{
  "_format": "hh-sol-artifact-1",
  "contractName": "SynthVault",
  "sourceName": "contracts/synthVault.sol",
  "abi": [
    {
      "inputs": [
        {
          "internalType": "address",
          "name": "_base",
          "type": "address"
        }
      ],
      "stateMutability": "nonpayable",
      "type": "constructor"
    },
    {
      "anonymous": false,
      "inputs": [
        {
          "indexed": true,
          "internalType": "address",
          "name": "synth",
          "type": "address"
        },
        {
          "indexed": true,
          "internalType": "address",
          "name": "member",
          "type": "address"
        },
        {
          "indexed": false,
          "internalType": "uint256",
          "name": "newDeposit",
          "type": "uint256"
        }
      ],
      "name": "MemberDeposits",
      "type": "event"
    },
    {
      "anonymous": false,
      "inputs": [
        {
          "indexed": true,
          "internalType": "address",
          "name": "synth",
          "type": "address"
        },
        {
          "indexed": true,
          "internalType": "address",
          "name": "member",
          "type": "address"
        },
        {
          "indexed": false,
          "internalType": "uint256",
          "name": "amount",
          "type": "uint256"
        }
      ],
      "name": "MemberHarvests",
      "type": "event"
    },
    {
      "anonymous": false,
      "inputs": [
        {
          "indexed": true,
          "internalType": "address",
          "name": "synth",
          "type": "address"
        },
        {
          "indexed": true,
          "internalType": "address",
          "name": "member",
          "type": "address"
        },
        {
          "indexed": false,
          "internalType": "uint256",
          "name": "amount",
          "type": "uint256"
        }
      ],
      "name": "MemberWithdraws",
      "type": "event"
    },
    {
      "inputs": [],
      "name": "BASE",
      "outputs": [
        {
          "internalType": "address",
          "name": "",
          "type": "address"
        }
      ],
      "stateMutability": "view",
      "type": "function"
    },
    {
      "inputs": [],
      "name": "DEPLOYER",
      "outputs": [
        {
          "internalType": "address",
          "name": "",
          "type": "address"
        }
      ],
      "stateMutability": "view",
      "type": "function"
    },
    {
      "inputs": [
        {
          "internalType": "address",
          "name": "synth",
          "type": "address"
        },
        {
          "internalType": "address",
          "name": "member",
          "type": "address"
        }
      ],
      "name": "calcCurrentReward",
      "outputs": [
        {
          "internalType": "uint256",
          "name": "reward",
          "type": "uint256"
        }
      ],
      "stateMutability": "nonpayable",
      "type": "function"
    },
    {
      "inputs": [
        {
          "internalType": "address",
          "name": "_synth",
          "type": "address"
        },
        {
          "internalType": "address",
          "name": "member",
          "type": "address"
        }
      ],
      "name": "calcReward",
      "outputs": [
        {
          "internalType": "uint256",
          "name": "_share",
          "type": "uint256"
        },
        {
          "internalType": "uint256",
          "name": "_vaultReward",
          "type": "uint256"
        }
      ],
      "stateMutability": "nonpayable",
      "type": "function"
    },
    {
      "inputs": [
        {
          "internalType": "address",
          "name": "synth",
          "type": "address"
        },
        {
          "internalType": "uint256",
          "name": "amount",
          "type": "uint256"
        }
      ],
      "name": "deposit",
      "outputs": [],
      "stateMutability": "nonpayable",
      "type": "function"
    },
    {
      "inputs": [],
      "name": "erasToEarn",
      "outputs": [
        {
          "internalType": "uint256",
          "name": "",
          "type": "uint256"
        }
      ],
      "stateMutability": "view",
      "type": "function"
    },
    {
      "inputs": [],
      "name": "genesis",
      "outputs": [
        {
          "internalType": "uint256",
          "name": "",
          "type": "uint256"
        }
      ],
      "stateMutability": "view",
      "type": "function"
    },
    {
      "inputs": [
        {
          "internalType": "address",
          "name": "synth",
          "type": "address"
        },
        {
          "internalType": "address",
          "name": "member",
          "type": "address"
        }
      ],
      "name": "getMemberDeposit",
      "outputs": [
        {
          "internalType": "uint256",
          "name": "",
          "type": "uint256"
        }
      ],
      "stateMutability": "view",
      "type": "function"
    },
    {
      "inputs": [
        {
          "internalType": "address",
          "name": "synth",
          "type": "address"
        },
        {
          "internalType": "address",
          "name": "member",
          "type": "address"
        }
      ],
      "name": "getMemberLastSynthTime",
      "outputs": [
        {
          "internalType": "uint256",
          "name": "",
          "type": "uint256"
        }
      ],
      "stateMutability": "view",
      "type": "function"
    },
    {
      "inputs": [
        {
          "internalType": "address",
          "name": "_synth",
          "type": "address"
        },
        {
          "internalType": "address",
          "name": "member",
          "type": "address"
        }
      ],
      "name": "getMemberSynthWeight",
      "outputs": [
        {
          "internalType": "uint256",
          "name": "memberSynthWeight",
          "type": "uint256"
        },
        {
          "internalType": "uint256",
          "name": "synthWeight",
          "type": "uint256"
        },
        {
          "internalType": "uint256",
          "name": "totalSynthWeight",
          "type": "uint256"
        }
      ],
      "stateMutability": "nonpayable",
      "type": "function"
    },
    {
      "inputs": [
        {
          "internalType": "address[]",
          "name": "synthAssets",
          "type": "address[]"
        }
      ],
      "name": "harvestAll",
      "outputs": [
        {
          "internalType": "bool",
          "name": "",
          "type": "bool"
        }
      ],
      "stateMutability": "nonpayable",
      "type": "function"
    },
    {
      "inputs": [
        {
          "internalType": "address",
          "name": "synth",
          "type": "address"
        }
      ],
      "name": "harvestSingle",
      "outputs": [
        {
          "internalType": "bool",
          "name": "",
          "type": "bool"
        }
      ],
      "stateMutability": "nonpayable",
      "type": "function"
    },
    {
      "inputs": [
        {
          "internalType": "address",
          "name": "",
          "type": "address"
        }
      ],
      "name": "lastBlock",
      "outputs": [
        {
          "internalType": "uint256",
          "name": "",
          "type": "uint256"
        }
      ],
      "stateMutability": "view",
      "type": "function"
    },
    {
      "inputs": [],
      "name": "lastMonth",
      "outputs": [
        {
          "internalType": "uint256",
          "name": "",
          "type": "uint256"
        }
      ],
      "stateMutability": "view",
      "type": "function"
    },
    {
      "inputs": [],
      "name": "map30DVaultRevenue",
      "outputs": [
        {
          "internalType": "uint256",
          "name": "",
          "type": "uint256"
        }
      ],
      "stateMutability": "view",
      "type": "function"
    },
    {
      "inputs": [
        {
          "internalType": "address",
          "name": "",
          "type": "address"
        }
      ],
      "name": "mapMember_depositTime",
      "outputs": [
        {
          "internalType": "uint256",
          "name": "",
          "type": "uint256"
        }
      ],
      "stateMutability": "view",
      "type": "function"
    },
    {
      "inputs": [],
      "name": "mapPast30DVaultRevenue",
      "outputs": [
        {
          "internalType": "uint256",
          "name": "",
          "type": "uint256"
        }
      ],
      "stateMutability": "view",
      "type": "function"
    },
    {
      "inputs": [
        {
          "internalType": "address",
          "name": "",
          "type": "address"
        }
      ],
      "name": "mapTotalSynth_balance",
      "outputs": [
        {
          "internalType": "uint256",
          "name": "",
          "type": "uint256"
        }
      ],
      "stateMutability": "view",
      "type": "function"
    },
    {
      "inputs": [],
      "name": "minimumDepositTime",
      "outputs": [
        {
          "internalType": "uint256",
          "name": "",
          "type": "uint256"
        }
      ],
      "stateMutability": "view",
      "type": "function"
    },
    {
      "inputs": [],
      "name": "purgeDeployer",
      "outputs": [],
      "stateMutability": "nonpayable",
      "type": "function"
    },
    {
      "inputs": [],
      "name": "reserveBASE",
      "outputs": [
        {
          "internalType": "uint256",
          "name": "",
          "type": "uint256"
        }
      ],
      "stateMutability": "view",
      "type": "function"
    },
    {
      "inputs": [
        {
          "internalType": "uint256",
          "name": "",
          "type": "uint256"
        }
      ],
      "name": "revenueArray",
      "outputs": [
        {
          "internalType": "uint256",
          "name": "",
          "type": "uint256"
        }
      ],
      "stateMutability": "view",
      "type": "function"
    },
    {
      "inputs": [
        {
          "internalType": "uint256",
          "name": "_erasToEarn",
          "type": "uint256"
        },
        {
          "internalType": "uint256",
          "name": "_minTime",
          "type": "uint256"
        },
        {
          "internalType": "uint256",
          "name": "_vaultClaim",
          "type": "uint256"
        }
      ],
      "name": "setParams",
      "outputs": [],
      "stateMutability": "nonpayable",
      "type": "function"
    },
    {
      "inputs": [],
      "name": "vaultClaim",
      "outputs": [
        {
          "internalType": "uint256",
          "name": "",
          "type": "uint256"
        }
      ],
      "stateMutability": "view",
      "type": "function"
    },
    {
      "inputs": [
        {
          "internalType": "address",
          "name": "synth",
          "type": "address"
        },
        {
          "internalType": "uint256",
          "name": "basisPoints",
          "type": "uint256"
        }
      ],
      "name": "withdraw",
      "outputs": [],
      "stateMutability": "nonpayable",
      "type": "function"
    }
  ],
  "bytecode": "0x60c06040523480156200001157600080fd5b5060405162003b1d38038062003b1d833981810160405281019062000037919062000169565b600073ffffffffffffffffffffffffffffffffffffffff168173ffffffffffffffffffffffffffffffffffffffff161415620000aa576040517f08c379a0000000000000000000000000000000000000000000000000000000008152600401620000a190620001bc565b60405180910390fd5b8073ffffffffffffffffffffffffffffffffffffffff1660808173ffffffffffffffffffffffffffffffffffffffff1660601b81525050336000806101000a81548173ffffffffffffffffffffffffffffffffffffffff021916908373ffffffffffffffffffffffffffffffffffffffff160217905550601e600281905550610e106001819055506103e86003819055504260a0818152505060006004819055505062000266565b60008151905062000163816200024c565b92915050565b6000602082840312156200017c57600080fd5b60006200018c8482850162000152565b91505092915050565b6000620001a4600583620001de565b9150620001b18262000223565b602082019050919050565b60006020820190508181036000830152620001d78162000195565b9050919050565b600082825260208201905092915050565b6000620001fc8262000203565b9050919050565b600073ffffffffffffffffffffffffffffffffffffffff82169050919050565b7f215a45524f000000000000000000000000000000000000000000000000000000600082015250565b6200025781620001ef565b81146200026357600080fd5b50565b60805160601c60a051613879620002a46000396000611f2001526000818161107d015281816121a20152818161226e015261272a01526138796000f3fe608060405234801561001057600080fd5b50600436106101735760003560e01c80638dfa9bcc116100de578063c1b8411a11610097578063e9f27c3a11610071578063e9f27c3a1461047b578063ec342ad0146104ab578063f0337cdc146104c9578063f3fef3a3146104f957610173565b8063c1b8411a146103fd578063ca4f64c21461041b578063ca8531a01461044b57610173565b80638dfa9bcc14610300578063952ca92c1461033057806399d786ca14610360578063a6dde1311461037e578063a7f0b3de146103af578063b28fc23a146103cd57610173565b806347e7ef241161013057806347e7ef241461022c578063485084b7146102485780635a0ce676146102785780636d85a7ea146102945780636fc2ee5c146102b25780637a94c2a5146102d057610173565b8063036e21e51461017857806303a82138146101965780630b991d4d146101a05780630dd3af75146101be5780631c21088c146101dc5780632c07eebf1461020e575b600080fd5b610180610515565b60405161018d919061333a565b60405180910390f35b61019e61051b565b005b6101a86105b6565b6040516101b5919061333a565b60405180910390f35b6101c66105bc565b6040516101d3919061333a565b60405180910390f35b6101f660048036038101906101f19190612e93565b6105c2565b604051610205939291906133a7565b60405180910390f35b610216610d77565b604051610223919061333a565b60405180910390f35b61024660048036038101906102419190612ecf565b610d7d565b005b610262600480360381019061025d9190612e41565b610fe9565b60405161026f919061333a565b60405180910390f35b610292600480360381019061028d919061306d565b611001565b005b61029c611073565b6040516102a9919061333a565b60405180910390f35b6102ba611079565b6040516102c7919061333a565b60405180910390f35b6102ea60048036038101906102e59190612e41565b6111ad565b6040516102f7919061325f565b60405180910390f35b61031a60048036038101906103159190612e93565b611ae3565b604051610327919061333a565b60405180910390f35b61034a60048036038101906103459190612e41565b611b6a565b604051610357919061333a565b60405180910390f35b610368611b82565b604051610375919061333a565b60405180910390f35b61039860048036038101906103939190612e93565b611b88565b6040516103a692919061337e565b60405180910390f35b6103b7611f1e565b6040516103c4919061333a565b60405180910390f35b6103e760048036038101906103e29190612e41565b611f42565b6040516103f4919061333a565b60405180910390f35b610405611f5a565b60405161041291906131bb565b60405180910390f35b61043560048036038101906104309190612f0b565b611f7e565b604051610442919061325f565b60405180910390f35b61046560048036038101906104609190612e93565b611ff6565b604051610472919061333a565b60405180910390f35b61049560048036038101906104909190612e93565b61207d565b6040516104a2919061333a565b60405180910390f35b6104b361226c565b6040516104c091906131bb565b60405180910390f35b6104e360048036038101906104de9190612fdf565b612290565b6040516104f0919061333a565b60405180910390f35b610513600480360381019061050e9190612ecf565b6122b4565b005b60015481565b60008054906101000a900473ffffffffffffffffffffffffffffffffffffffff1673ffffffffffffffffffffffffffffffffffffffff163373ffffffffffffffffffffffffffffffffffffffff161461057357600080fd5b60008060006101000a81548173ffffffffffffffffffffffffffffffffffffffff021916908373ffffffffffffffffffffffffffffffffffffffff160217905550565b60055481565b60065481565b6000806000600115156105d3612726565b73ffffffffffffffffffffffffffffffffffffffff16639d2cc4366040518163ffffffff1660e01b815260040160206040518083038186803b15801561061857600080fd5b505afa15801561062c573d6000803e3d6000fd5b505050506040513d601f19601f820116820180604052508101906106509190612e6a565b73ffffffffffffffffffffffffffffffffffffffff1663194e22ce6040518163ffffffff1660e01b8152600401602060405180830381600087803b15801561069757600080fd5b505af11580156106ab573d6000803e3d6000fd5b505050506040513d601f19601f820116820180604052508101906106cf9190612f8d565b15151415610712576040517f08c379a0000000000000000000000000000000000000000000000000000000008152600401610709906132fa565b60405180910390fd5b600061071c612726565b73ffffffffffffffffffffffffffffffffffffffff1663b99b0a0c6040518163ffffffff1660e01b815260040160206040518083038186803b15801561076157600080fd5b505afa158015610775573d6000803e3d6000fd5b505050506040513d601f19601f820116820180604052508101906107999190612e6a565b73ffffffffffffffffffffffffffffffffffffffff1663abc764da6040518163ffffffff1660e01b815260040160006040518083038186803b1580156107de57600080fd5b505afa1580156107f2573d6000803e3d6000fd5b505050506040513d6000823e3d601f19601f8201168201806040525081019061081b9190612f4c565b905060005b8151811115610a91576000828281518110610864577f4e487b7100000000000000000000000000000000000000000000000000000000600052603260045260246000fd5b602002602001015173ffffffffffffffffffffffffffffffffffffffff1663e1eddde36040518163ffffffff1660e01b8152600401602060405180830381600087803b1580156108b357600080fd5b505af11580156108c7573d6000803e3d6000fd5b505050506040513d601f19601f820116820180604052508101906108eb9190612e6a565b9050600073ffffffffffffffffffffffffffffffffffffffff168173ffffffffffffffffffffffffffffffffffffffff1614610a7d57610929612726565b73ffffffffffffffffffffffffffffffffffffffff16637b0e5c456040518163ffffffff1660e01b815260040160206040518083038186803b15801561096e57600080fd5b505afa158015610982573d6000803e3d6000fd5b505050506040513d601f19601f820116820180604052508101906109a69190612e6a565b73ffffffffffffffffffffffffffffffffffffffff166348c0fd8f82600960008573ffffffffffffffffffffffffffffffffffffffff1673ffffffffffffffffffffffffffffffffffffffff168152602001908152602001600020546040518363ffffffff1660e01b8152600401610a1f929190613236565b60206040518083038186803b158015610a3757600080fd5b505afa158015610a4b573d6000803e3d6000fd5b505050506040513d601f19601f82011682018060405250810190610a6f9190613008565b84610a7a9190613440565b93505b508080610a899061360a565b915050610820565b50610a9a612726565b73ffffffffffffffffffffffffffffffffffffffff16637b0e5c456040518163ffffffff1660e01b815260040160206040518083038186803b158015610adf57600080fd5b505afa158015610af3573d6000803e3d6000fd5b505050506040513d601f19601f82011682018060405250810190610b179190612e6a565b73ffffffffffffffffffffffffffffffffffffffff166348c0fd8f87600960008a73ffffffffffffffffffffffffffffffffffffffff1673ffffffffffffffffffffffffffffffffffffffff168152602001908152602001600020546040518363ffffffff1660e01b8152600401610b90929190613236565b60206040518083038186803b158015610ba857600080fd5b505afa158015610bbc573d6000803e3d6000fd5b505050506040513d601f19601f82011682018060405250810190610be09190613008565b9250610bea612726565b73ffffffffffffffffffffffffffffffffffffffff16637b0e5c456040518163ffffffff1660e01b815260040160206040518083038186803b158015610c2f57600080fd5b505afa158015610c43573d6000803e3d6000fd5b505050506040513d601f19601f82011682018060405250810190610c679190612e6a565b73ffffffffffffffffffffffffffffffffffffffff166348c0fd8f87600860008973ffffffffffffffffffffffffffffffffffffffff1673ffffffffffffffffffffffffffffffffffffffff16815260200190815260200160002060008a73ffffffffffffffffffffffffffffffffffffffff1673ffffffffffffffffffffffffffffffffffffffff168152602001908152602001600020546040518363ffffffff1660e01b8152600401610d1d929190613236565b60206040518083038186803b158015610d3557600080fd5b505afa158015610d49573d6000803e3d6000fd5b505050506040513d601f19601f82011682018060405250810190610d6d9190613008565b9350509250925092565b60025481565b60008111610dc0576040517f08c379a0000000000000000000000000000000000000000000000000000000008152600401610db79061329a565b60405180910390fd5b610dc8612726565b73ffffffffffffffffffffffffffffffffffffffff1663b93ec54b6040518163ffffffff1660e01b815260040160206040518083038186803b158015610e0d57600080fd5b505afa158015610e21573d6000803e3d6000fd5b505050506040513d601f19601f82011682018060405250810190610e459190612e6a565b73ffffffffffffffffffffffffffffffffffffffff16635e0237ea836040518263ffffffff1660e01b8152600401610e7d91906131bb565b60206040518083038186803b158015610e9557600080fd5b505afa158015610ea9573d6000803e3d6000fd5b505050506040513d601f19601f82011682018060405250810190610ecd9190612f8d565b610f0c576040517f08c379a0000000000000000000000000000000000000000000000000000000008152600401610f03906132ba565b60405180910390fd5b8173ffffffffffffffffffffffffffffffffffffffff166323b872dd3330846040518463ffffffff1660e01b8152600401610f49939291906131ff565b602060405180830381600087803b158015610f6357600080fd5b505af1158015610f77573d6000803e3d6000fd5b505050506040513d601f19601f82011682018060405250810190610f9b9190612f8d565b610fda576040517f08c379a0000000000000000000000000000000000000000000000000000000008152600401610fd1906132da565b60405180910390fd5b610fe58233836127cb565b5050565b60096020528060005260406000206000915090505481565b60008054906101000a900473ffffffffffffffffffffffffffffffffffffffff1673ffffffffffffffffffffffffffffffffffffffff163373ffffffffffffffffffffffffffffffffffffffff161461105957600080fd5b826002819055508160018190555080600381905550505050565b60035481565b60007f000000000000000000000000000000000000000000000000000000000000000073ffffffffffffffffffffffffffffffffffffffff166370a082316110bf612726565b73ffffffffffffffffffffffffffffffffffffffff16639d2cc4366040518163ffffffff1660e01b815260040160206040518083038186803b15801561110457600080fd5b505afa158015611118573d6000803e3d6000fd5b505050506040513d601f19601f8201168201806040525081019061113c9190612e6a565b6040518263ffffffff1660e01b815260040161115891906131bb565b60206040518083038186803b15801561117057600080fd5b505afa158015611184573d6000803e3d6000fd5b505050506040513d601f19601f820116820180604052508101906111a89190613008565b905090565b60006111b7612726565b73ffffffffffffffffffffffffffffffffffffffff1663b93ec54b6040518163ffffffff1660e01b815260040160206040518083038186803b1580156111fc57600080fd5b505afa158015611210573d6000803e3d6000fd5b505050506040513d601f19601f820116820180604052508101906112349190612e6a565b73ffffffffffffffffffffffffffffffffffffffff16635e0237ea836040518263ffffffff1660e01b815260040161126c91906131bb565b60206040518083038186803b15801561128457600080fd5b505afa158015611298573d6000803e3d6000fd5b505050506040513d601f19601f820116820180604052508101906112bc9190612f8d565b6112fb576040517f08c379a00000000000000000000000000000000000000000000000000000000081526004016112f2906132ba565b60405180910390fd5b6000611307833361207d565b90506000811115611ad957600a60003373ffffffffffffffffffffffffffffffffffffffff1673ffffffffffffffffffffffffffffffffffffffff16815260200190815260200160002060008473ffffffffffffffffffffffffffffffffffffffff1673ffffffffffffffffffffffffffffffffffffffff1681526020019081526020016000205442116113d0576040517f08c379a00000000000000000000000000000000000000000000000000000000081526004016113c79061331a565b60405180910390fd5b42600a60003373ffffffffffffffffffffffffffffffffffffffff1673ffffffffffffffffffffffffffffffffffffffff16815260200190815260200160002060008573ffffffffffffffffffffffffffffffffffffffff1673ffffffffffffffffffffffffffffffffffffffff1681526020019081526020016000208190555060008373ffffffffffffffffffffffffffffffffffffffff16637535d2466040518163ffffffff1660e01b815260040160206040518083038186803b15801561149957600080fd5b505afa1580156114ad573d6000803e3d6000fd5b505050506040513d601f19601f820116820180604052508101906114d19190612e6a565b90508073ffffffffffffffffffffffffffffffffffffffff1663fff6cae96040518163ffffffff1660e01b8152600401600060405180830381600087803b15801561151b57600080fd5b505af115801561152f573d6000803e3d6000fd5b5050505060008173ffffffffffffffffffffffffffffffffffffffff166361cc24bb866040518263ffffffff1660e01b815260040161156e91906131bb565b602060405180830381600087803b15801561158857600080fd5b505af115801561159c573d6000803e3d6000fd5b505050506040513d601f19601f820116820180604052508101906115c09190613008565b905060006115cc612726565b73ffffffffffffffffffffffffffffffffffffffff16637b0e5c456040518163ffffffff1660e01b815260040160206040518083038186803b15801561161157600080fd5b505afa158015611625573d6000803e3d6000fd5b505050506040513d601f19601f820116820180604052508101906116499190612e6a565b73ffffffffffffffffffffffffffffffffffffffff16635f2c12e88473ffffffffffffffffffffffffffffffffffffffff166382bfefc86040518163ffffffff1660e01b815260040160206040518083038186803b1580156116aa57600080fd5b505afa1580156116be573d6000803e3d6000fd5b505050506040513d601f19601f820116820180604052508101906116e29190612e6a565b866040518363ffffffff1660e01b8152600401611700929190613236565b60206040518083038186803b15801561171857600080fd5b505afa15801561172c573d6000803e3d6000fd5b505050506040513d601f19601f820116820180604052508101906117509190613008565b90508082101561185057611762612726565b73ffffffffffffffffffffffffffffffffffffffff16639d2cc4366040518163ffffffff1660e01b815260040160206040518083038186803b1580156117a757600080fd5b505afa1580156117bb573d6000803e3d6000fd5b505050506040513d601f19601f820116820180604052508101906117df9190612e6a565b73ffffffffffffffffffffffffffffffffffffffff16637d458baa85336040518363ffffffff1660e01b8152600401611819929190613355565b600060405180830381600087803b15801561183357600080fd5b505af1158015611847573d6000803e3d6000fd5b50505050611942565b611858612726565b73ffffffffffffffffffffffffffffffffffffffff16639d2cc4366040518163ffffffff1660e01b815260040160206040518083038186803b15801561189d57600080fd5b505afa1580156118b1573d6000803e3d6000fd5b505050506040513d601f19601f820116820180604052508101906118d59190612e6a565b73ffffffffffffffffffffffffffffffffffffffff16637d458baa85856040518363ffffffff1660e01b815260040161190f929190613355565b600060405180830381600087803b15801561192957600080fd5b505af115801561193d573d6000803e3d6000fd5b505050505b60008373ffffffffffffffffffffffffffffffffffffffff16635c53738688306040518363ffffffff1660e01b815260040161197f9291906131d6565b6040805180830381600087803b15801561199857600080fd5b505af11580156119ac573d6000803e3d6000fd5b505050506040513d601f19601f820116820180604052508101906119d09190613031565b50905080600860003373ffffffffffffffffffffffffffffffffffffffff1673ffffffffffffffffffffffffffffffffffffffff16815260200190815260200160002060008973ffffffffffffffffffffffffffffffffffffffff1673ffffffffffffffffffffffffffffffffffffffff1681526020019081526020016000206000828254611a5f9190613440565b92505081905550611a6f856129fd565b3373ffffffffffffffffffffffffffffffffffffffff168773ffffffffffffffffffffffffffffffffffffffff167f509122099a522eb9860de32189d85affc5ff2d5f093c558c64a8a2427f7eba2087604051611acc919061333a565b60405180910390a3505050505b6001915050919050565b6000600860008373ffffffffffffffffffffffffffffffffffffffff1673ffffffffffffffffffffffffffffffffffffffff16815260200190815260200160002060008473ffffffffffffffffffffffffffffffffffffffff1673ffffffffffffffffffffffffffffffffffffffff16815260200190815260200160002054905092915050565b600c6020528060005260406000206000915090505481565b60045481565b6000806000806000611b9a87876105c2565b9250925092506000600254611bad611079565b611bb79190613496565b90506000611bc3612726565b73ffffffffffffffffffffffffffffffffffffffff1663b93ec54b6040518163ffffffff1660e01b815260040160206040518083038186803b158015611c0857600080fd5b505afa158015611c1c573d6000803e3d6000fd5b505050506040513d601f19601f82011682018060405250810190611c409190612e6a565b73ffffffffffffffffffffffffffffffffffffffff166378a45a246040518163ffffffff1660e01b8152600401602060405180830381600087803b158015611c8757600080fd5b505af1158015611c9b573d6000803e3d6000fd5b505050506040513d601f19601f82011682018060405250810190611cbf9190613008565b90506127108160035484611cd391906134c7565b611cdd9190613496565b611ce79190613496565b95506000611cf3612726565b73ffffffffffffffffffffffffffffffffffffffff16637b0e5c456040518163ffffffff1660e01b815260040160206040518083038186803b158015611d3857600080fd5b505afa158015611d4c573d6000803e3d6000fd5b505050506040513d601f19601f82011682018060405250810190611d709190612e6a565b73ffffffffffffffffffffffffffffffffffffffff16631ba326c486868a6040518463ffffffff1660e01b8152600401611dac939291906133a7565b60206040518083038186803b158015611dc457600080fd5b505afa158015611dd8573d6000803e3d6000fd5b505050506040513d601f19601f82011682018060405250810190611dfc9190613008565b9050611e06612726565b73ffffffffffffffffffffffffffffffffffffffff16637b0e5c456040518163ffffffff1660e01b815260040160206040518083038186803b158015611e4b57600080fd5b505afa158015611e5f573d6000803e3d6000fd5b505050506040513d601f19601f82011682018060405250810190611e839190612e6a565b73ffffffffffffffffffffffffffffffffffffffff16631ba326c48787846040518463ffffffff1660e01b8152600401611ebf939291906133a7565b60206040518083038186803b158015611ed757600080fd5b505afa158015611eeb573d6000803e3d6000fd5b505050506040513d601f19601f82011682018060405250810190611f0f9190613008565b97505050505050509250929050565b7f000000000000000000000000000000000000000000000000000000000000000081565b600b6020528060005260406000206000915090505481565b60008054906101000a900473ffffffffffffffffffffffffffffffffffffffff1681565b600080600090505b8251811015611fec57611fd8838281518110611fcb577f4e487b7100000000000000000000000000000000000000000000000000000000600052603260045260246000fd5b60200260200101516111ad565b508080611fe49061360a565b915050611f86565b5060019050919050565b6000600a60008373ffffffffffffffffffffffffffffffffffffffff1673ffffffffffffffffffffffffffffffffffffffff16815260200190815260200160002060008473ffffffffffffffffffffffffffffffffffffffff1673ffffffffffffffffffffffffffffffffffffffff16815260200190815260200160002054905092915050565b6000600a60008373ffffffffffffffffffffffffffffffffffffffff1673ffffffffffffffffffffffffffffffffffffffff16815260200190815260200160002060008473ffffffffffffffffffffffffffffffffffffffff1673ffffffffffffffffffffffffffffffffffffffff16815260200190815260200160002054421115612266576000600a60008473ffffffffffffffffffffffffffffffffffffffff1673ffffffffffffffffffffffffffffffffffffffff16815260200190815260200160002060008573ffffffffffffffffffffffffffffffffffffffff1673ffffffffffffffffffffffffffffffffffffffff168152602001908152602001600020544261218d9190613521565b905060008061219c8686611b88565b915091507f000000000000000000000000000000000000000000000000000000000000000073ffffffffffffffffffffffffffffffffffffffff16636b92a3b66040518163ffffffff1660e01b815260040160206040518083038186803b15801561220657600080fd5b505afa15801561221a573d6000803e3d6000fd5b505050506040513d601f19601f8201168201806040525081019061223e9190613008565b838361224a91906134c7565b6122549190613496565b935080841115612262578093505b5050505b92915050565b7f000000000000000000000000000000000000000000000000000000000000000081565b600781815481106122a057600080fd5b906000526020600020016000915090505481565b600081116122f7576040517f08c379a00000000000000000000000000000000000000000000000000000000081526004016122ee9061329a565b60405180910390fd5b600b60003373ffffffffffffffffffffffffffffffffffffffff1673ffffffffffffffffffffffffffffffffffffffff168152602001908152602001600020544211612378576040517f08c379a000000000000000000000000000000000000000000000000000000000815260040161236f9061327a565b60405180910390fd5b6000612382612726565b73ffffffffffffffffffffffffffffffffffffffff16637b0e5c456040518163ffffffff1660e01b815260040160206040518083038186803b1580156123c757600080fd5b505afa1580156123db573d6000803e3d6000fd5b505050506040513d601f19601f820116820180604052508101906123ff9190612e6a565b73ffffffffffffffffffffffffffffffffffffffff1663714270ab83600860003373ffffffffffffffffffffffffffffffffffffffff1673ffffffffffffffffffffffffffffffffffffffff16815260200190815260200160002060008773ffffffffffffffffffffffffffffffffffffffff1673ffffffffffffffffffffffffffffffffffffffff168152602001908152602001600020546040518363ffffffff1660e01b81526004016124b592919061337e565b60206040518083038186803b1580156124cd57600080fd5b505afa1580156124e1573d6000803e3d6000fd5b505050506040513d601f19601f820116820180604052508101906125059190613008565b905080600860003373ffffffffffffffffffffffffffffffffffffffff1673ffffffffffffffffffffffffffffffffffffffff16815260200190815260200160002060008573ffffffffffffffffffffffffffffffffffffffff1673ffffffffffffffffffffffffffffffffffffffff16815260200190815260200160002060008282546125939190613521565b9250508190555080600960008573ffffffffffffffffffffffffffffffffffffffff1673ffffffffffffffffffffffffffffffffffffffff16815260200190815260200160002060008282546125e99190613521565b925050819055508273ffffffffffffffffffffffffffffffffffffffff1663a9059cbb33836040518363ffffffff1660e01b815260040161262b929190613236565b602060405180830381600087803b15801561264557600080fd5b505af1158015612659573d6000803e3d6000fd5b505050506040513d601f19601f8201168201806040525081019061267d9190612f8d565b6126bc576040517f08c379a00000000000000000000000000000000000000000000000000000000081526004016126b3906132da565b60405180910390fd5b3373ffffffffffffffffffffffffffffffffffffffff168373ffffffffffffffffffffffffffffffffffffffff167f12dcb5d4117cb4675d56c72f030db8f0f4dd34f875fe484eea4cf0790b5deaa383604051612719919061333a565b60405180910390a3505050565b60007f000000000000000000000000000000000000000000000000000000000000000073ffffffffffffffffffffffffffffffffffffffff166398fabd3a6040518163ffffffff1660e01b815260040160206040518083038186803b15801561278e57600080fd5b505afa1580156127a2573d6000803e3d6000fd5b505050506040513d601f19601f820116820180604052508101906127c69190612fb6565b905090565b600154426127d99190613440565b600a60008473ffffffffffffffffffffffffffffffffffffffff1673ffffffffffffffffffffffffffffffffffffffff16815260200190815260200160002060008573ffffffffffffffffffffffffffffffffffffffff1673ffffffffffffffffffffffffffffffffffffffff16815260200190815260200160002081905550600154426128679190613440565b600b60008473ffffffffffffffffffffffffffffffffffffffff1673ffffffffffffffffffffffffffffffffffffffff1681526020019081526020016000208190555080600860008473ffffffffffffffffffffffffffffffffffffffff1673ffffffffffffffffffffffffffffffffffffffff16815260200190815260200160002060008573ffffffffffffffffffffffffffffffffffffffff1673ffffffffffffffffffffffffffffffffffffffff16815260200190815260200160002060008282546129369190613440565b9250508190555080600960008573ffffffffffffffffffffffffffffffffffffffff1673ffffffffffffffffffffffffffffffffffffffff168152602001908152602001600020600082825461298c9190613440565b925050819055508173ffffffffffffffffffffffffffffffffffffffff168373ffffffffffffffffffffffffffffffffffffffff167f5f9b5a75581a29d72b32414a5df7f1ef124b7787b38616fb8fdcad76179127c2836040516129f0919061333a565b60405180910390a3505050565b60006004541415612a1057426004819055505b62278d00600454612a219190613440565b4211612a405780600554612a359190613440565b600581905550612a63565b42600481905550600554600681905550612a5b600654612a66565b806005819055505b50565b600260078054905014612aa1576007819080600181540180825580915050600190039060005260206000200160009091909190915055612aab565b612aaa81612aae565b5b50565b60006007805480602002602001604051908101604052809291908181526020018280548015612afc57602002820191906000526020600020905b815481526020019060010190808311612ae8575b505050505090506000815190506000600182612b189190613521565b90505b6000811115612bc95782600182612b329190613521565b81518110612b69577f4e487b7100000000000000000000000000000000000000000000000000000000600052603260045260246000fd5b6020026020010151838281518110612baa577f4e487b7100000000000000000000000000000000000000000000000000000000600052603260045260246000fd5b6020026020010181815250508080612bc1906135af565b915050612b1b565b508282600081518110612c05577f4e487b7100000000000000000000000000000000000000000000000000000000600052603260045260246000fd5b6020026020010181815250508160079080519060200190612c27929190612c2d565b50505050565b828054828255906000526020600020908101928215612c69579160200282015b82811115612c68578251825591602001919060010190612c4d565b5b509050612c769190612c7a565b5090565b5b80821115612c93576000816000905550600101612c7b565b5090565b6000612caa612ca584613403565b6133de565b90508083825260208201905082856020860282011115612cc957600080fd5b60005b85811015612cf95781612cdf8882612d6f565b845260208401935060208301925050600181019050612ccc565b5050509392505050565b6000612d16612d1184613403565b6133de565b90508083825260208201905082856020860282011115612d3557600080fd5b60005b85811015612d655781612d4b8882612d84565b845260208401935060208301925050600181019050612d38565b5050509392505050565b600081359050612d7e816137e7565b92915050565b600081519050612d93816137e7565b92915050565b600082601f830112612daa57600080fd5b8135612dba848260208601612c97565b91505092915050565b600082601f830112612dd457600080fd5b8151612de4848260208601612d03565b91505092915050565b600081519050612dfc816137fe565b92915050565b600081519050612e1181613815565b92915050565b600081359050612e268161382c565b92915050565b600081519050612e3b8161382c565b92915050565b600060208284031215612e5357600080fd5b6000612e6184828501612d6f565b91505092915050565b600060208284031215612e7c57600080fd5b6000612e8a84828501612d84565b91505092915050565b60008060408385031215612ea657600080fd5b6000612eb485828601612d6f565b9250506020612ec585828601612d6f565b9150509250929050565b60008060408385031215612ee257600080fd5b6000612ef085828601612d6f565b9250506020612f0185828601612e17565b9150509250929050565b600060208284031215612f1d57600080fd5b600082013567ffffffffffffffff811115612f3757600080fd5b612f4384828501612d99565b91505092915050565b600060208284031215612f5e57600080fd5b600082015167ffffffffffffffff811115612f7857600080fd5b612f8484828501612dc3565b91505092915050565b600060208284031215612f9f57600080fd5b6000612fad84828501612ded565b91505092915050565b600060208284031215612fc857600080fd5b6000612fd684828501612e02565b91505092915050565b600060208284031215612ff157600080fd5b6000612fff84828501612e17565b91505092915050565b60006020828403121561301a57600080fd5b600061302884828501612e2c565b91505092915050565b6000806040838503121561304457600080fd5b600061305285828601612e2c565b925050602061306385828601612e2c565b9150509250929050565b60008060006060848603121561308257600080fd5b600061309086828701612e17565b93505060206130a186828701612e17565b92505060406130b286828701612e17565b9150509250925092565b6130c581613555565b82525050565b6130d481613567565b82525050565b60006130e760078361342f565b91506130f2826136f1565b602082019050919050565b600061310a60068361342f565b91506131158261371a565b602082019050919050565b600061312d60068361342f565b915061313882613743565b602082019050919050565b600061315060098361342f565b915061315b8261376c565b602082019050919050565b600061317360058361342f565b915061317e82613795565b602082019050919050565b600061319660068361342f565b91506131a1826137be565b602082019050919050565b6131b5816135a5565b82525050565b60006020820190506131d060008301846130bc565b92915050565b60006040820190506131eb60008301856130bc565b6131f860208301846130bc565b9392505050565b600060608201905061321460008301866130bc565b61322160208301856130bc565b61322e60408301846131ac565b949350505050565b600060408201905061324b60008301856130bc565b61325860208301846131ac565b9392505050565b600060208201905061327460008301846130cb565b92915050565b60006020820190508181036000830152613293816130da565b9050919050565b600060208201905081810360008301526132b3816130fd565b9050919050565b600060208201905081810360008301526132d381613120565b9050919050565b600060208201905081810360008301526132f381613143565b9050919050565b6000602082019050818103600083015261331381613166565b9050919050565b6000602082019050818103600083015261333381613189565b9050919050565b600060208201905061334f60008301846131ac565b92915050565b600060408201905061336a60008301856131ac565b61337760208301846130bc565b9392505050565b600060408201905061339360008301856131ac565b6133a060208301846131ac565b9392505050565b60006060820190506133bc60008301866131ac565b6133c960208301856131ac565b6133d660408301846131ac565b949350505050565b60006133e86133f9565b90506133f482826135d9565b919050565b6000604051905090565b600067ffffffffffffffff82111561341e5761341d6136b1565b5b602082029050602081019050919050565b600082825260208201905092915050565b600061344b826135a5565b9150613456836135a5565b9250827fffffffffffffffffffffffffffffffffffffffffffffffffffffffffffffffff0382111561348b5761348a613653565b5b828201905092915050565b60006134a1826135a5565b91506134ac836135a5565b9250826134bc576134bb613682565b5b828204905092915050565b60006134d2826135a5565b91506134dd836135a5565b9250817fffffffffffffffffffffffffffffffffffffffffffffffffffffffffffffffff048311821515161561351657613515613653565b5b828202905092915050565b600061352c826135a5565b9150613537836135a5565b92508282101561354a57613549613653565b5b828203905092915050565b600061356082613585565b9050919050565b60008115159050919050565b600061357e82613555565b9050919050565b600073ffffffffffffffffffffffffffffffffffffffff82169050919050565b6000819050919050565b60006135ba826135a5565b915060008214156135ce576135cd613653565b5b600182039050919050565b6135e2826136e0565b810181811067ffffffffffffffff82111715613601576136006136b1565b5b80604052505050565b6000613615826135a5565b91507fffffffffffffffffffffffffffffffffffffffffffffffffffffffffffffffff82141561364857613647613653565b5b600182019050919050565b7f4e487b7100000000000000000000000000000000000000000000000000000000600052601160045260246000fd5b7f4e487b7100000000000000000000000000000000000000000000000000000000600052601260045260246000fd5b7f4e487b7100000000000000000000000000000000000000000000000000000000600052604160045260246000fd5b6000601f19601f8301169050919050565b7f6c6f636b6f757400000000000000000000000000000000000000000000000000600082015250565b7f2156414c49440000000000000000000000000000000000000000000000000000600082015250565b7f2153796e74680000000000000000000000000000000000000000000000000000600082015250565b7f217472616e736665720000000000000000000000000000000000000000000000600082015250565b7f2153414645000000000000000000000000000000000000000000000000000000600082015250565b7f4c4f434b45440000000000000000000000000000000000000000000000000000600082015250565b6137f081613555565b81146137fb57600080fd5b50565b61380781613567565b811461381257600080fd5b50565b61381e81613573565b811461382957600080fd5b50565b613835816135a5565b811461384057600080fd5b5056fea2646970667358221220e0b6876cc46774cd37e14378f80893e6fe62d4f8e555dcf9f8f6ba7fcf9457be64736f6c63430008030033",
  "linkReferences": {},
  "deployedLinkReferences": {}
}