{
  "_format": "hh-sol-artifact-1",
  "contractName": "SynthVault",
  "sourceName": "contracts/synthVault.sol",
  "abi": [
    {
      "inputs": [
        {
          "internalType": "address",
          "name": "_base",
          "type": "address"
        }
      ],
      "stateMutability": "nonpayable",
      "type": "constructor"
    },
    {
      "anonymous": false,
      "inputs": [
        {
          "indexed": true,
          "internalType": "address",
          "name": "synth",
          "type": "address"
        },
        {
          "indexed": true,
          "internalType": "address",
          "name": "member",
          "type": "address"
        },
        {
          "indexed": false,
          "internalType": "uint256",
          "name": "newDeposit",
          "type": "uint256"
        }
      ],
      "name": "MemberDeposits",
      "type": "event"
    },
    {
      "anonymous": false,
      "inputs": [
        {
          "indexed": true,
          "internalType": "address",
          "name": "synth",
          "type": "address"
        },
        {
          "indexed": true,
          "internalType": "address",
          "name": "member",
          "type": "address"
        },
        {
          "indexed": false,
          "internalType": "uint256",
          "name": "amount",
          "type": "uint256"
        }
      ],
      "name": "MemberHarvests",
      "type": "event"
    },
    {
      "anonymous": false,
      "inputs": [
        {
          "indexed": true,
          "internalType": "address",
          "name": "synth",
          "type": "address"
        },
        {
          "indexed": true,
          "internalType": "address",
          "name": "member",
          "type": "address"
        },
        {
          "indexed": false,
          "internalType": "uint256",
          "name": "amount",
          "type": "uint256"
        }
      ],
      "name": "MemberWithdraws",
      "type": "event"
    },
    {
      "inputs": [],
      "name": "BASE",
      "outputs": [
        {
          "internalType": "address",
          "name": "",
          "type": "address"
        }
      ],
      "stateMutability": "view",
      "type": "function"
    },
    {
      "inputs": [],
      "name": "DEPLOYER",
      "outputs": [
        {
          "internalType": "address",
          "name": "",
          "type": "address"
        }
      ],
      "stateMutability": "view",
      "type": "function"
    },
    {
      "inputs": [
        {
          "internalType": "address",
          "name": "synth",
          "type": "address"
        },
        {
          "internalType": "address",
          "name": "member",
          "type": "address"
        }
      ],
      "name": "calcCurrentReward",
      "outputs": [
        {
          "internalType": "uint256",
          "name": "reward",
          "type": "uint256"
        }
      ],
      "stateMutability": "nonpayable",
      "type": "function"
    },
    {
      "inputs": [
        {
          "internalType": "address",
          "name": "_synth",
          "type": "address"
        },
        {
          "internalType": "address",
          "name": "member",
          "type": "address"
        }
      ],
      "name": "calcReward",
      "outputs": [
        {
          "internalType": "uint256",
          "name": "_share",
          "type": "uint256"
        },
        {
          "internalType": "uint256",
          "name": "_vaultReward",
          "type": "uint256"
        }
      ],
      "stateMutability": "nonpayable",
      "type": "function"
    },
    {
      "inputs": [
        {
          "internalType": "address",
          "name": "synth",
          "type": "address"
        },
        {
          "internalType": "uint256",
          "name": "amount",
          "type": "uint256"
        }
      ],
      "name": "deposit",
      "outputs": [],
      "stateMutability": "nonpayable",
      "type": "function"
    },
    {
      "inputs": [],
      "name": "erasToEarn",
      "outputs": [
        {
          "internalType": "uint256",
          "name": "",
          "type": "uint256"
        }
      ],
      "stateMutability": "view",
      "type": "function"
    },
    {
      "inputs": [],
      "name": "genesis",
      "outputs": [
        {
          "internalType": "uint256",
          "name": "",
          "type": "uint256"
        }
      ],
      "stateMutability": "view",
      "type": "function"
    },
    {
      "inputs": [
        {
          "internalType": "address",
          "name": "synth",
          "type": "address"
        },
        {
          "internalType": "address",
          "name": "member",
          "type": "address"
        }
      ],
      "name": "getMemberDeposit",
      "outputs": [
        {
          "internalType": "uint256",
          "name": "",
          "type": "uint256"
        }
      ],
      "stateMutability": "view",
      "type": "function"
    },
    {
      "inputs": [
        {
          "internalType": "address",
          "name": "synth",
          "type": "address"
        },
        {
          "internalType": "address",
          "name": "member",
          "type": "address"
        }
      ],
      "name": "getMemberLastSynthTime",
      "outputs": [
        {
          "internalType": "uint256",
          "name": "",
          "type": "uint256"
        }
      ],
      "stateMutability": "view",
      "type": "function"
    },
    {
      "inputs": [
        {
          "internalType": "address",
          "name": "_synth",
          "type": "address"
        },
        {
          "internalType": "address",
          "name": "member",
          "type": "address"
        }
      ],
      "name": "getMemberSynthWeight",
      "outputs": [
        {
          "internalType": "uint256",
          "name": "memberSynthWeight",
          "type": "uint256"
        },
        {
          "internalType": "uint256",
          "name": "synthWeight",
          "type": "uint256"
        },
        {
          "internalType": "uint256",
          "name": "totalSynthWeight",
          "type": "uint256"
        }
      ],
      "stateMutability": "nonpayable",
      "type": "function"
    },
    {
      "inputs": [
        {
          "internalType": "address[]",
          "name": "synthAssets",
          "type": "address[]"
        }
      ],
      "name": "harvestAll",
      "outputs": [
        {
          "internalType": "bool",
          "name": "",
          "type": "bool"
        }
      ],
      "stateMutability": "nonpayable",
      "type": "function"
    },
    {
      "inputs": [
        {
          "internalType": "address",
          "name": "synth",
          "type": "address"
        }
      ],
      "name": "harvestSingle",
      "outputs": [
        {
          "internalType": "bool",
          "name": "",
          "type": "bool"
        }
      ],
      "stateMutability": "nonpayable",
      "type": "function"
    },
    {
      "inputs": [
        {
          "internalType": "address",
          "name": "",
          "type": "address"
        }
      ],
      "name": "lastBlock",
      "outputs": [
        {
          "internalType": "uint256",
          "name": "",
          "type": "uint256"
        }
      ],
      "stateMutability": "view",
      "type": "function"
    },
    {
      "inputs": [],
      "name": "lastMonth",
      "outputs": [
        {
          "internalType": "uint256",
          "name": "",
          "type": "uint256"
        }
      ],
      "stateMutability": "view",
      "type": "function"
    },
    {
      "inputs": [],
      "name": "map30DVaultRevenue",
      "outputs": [
        {
          "internalType": "uint256",
          "name": "",
          "type": "uint256"
        }
      ],
      "stateMutability": "view",
      "type": "function"
    },
    {
      "inputs": [
        {
          "internalType": "address",
          "name": "",
          "type": "address"
        }
      ],
      "name": "mapMember_depositTime",
      "outputs": [
        {
          "internalType": "uint256",
          "name": "",
          "type": "uint256"
        }
      ],
      "stateMutability": "view",
      "type": "function"
    },
    {
      "inputs": [],
      "name": "mapPast30DVaultRevenue",
      "outputs": [
        {
          "internalType": "uint256",
          "name": "",
          "type": "uint256"
        }
      ],
      "stateMutability": "view",
      "type": "function"
    },
    {
      "inputs": [
        {
          "internalType": "address",
          "name": "",
          "type": "address"
        }
      ],
      "name": "mapTotalSynth_balance",
      "outputs": [
        {
          "internalType": "uint256",
          "name": "",
          "type": "uint256"
        }
      ],
      "stateMutability": "view",
      "type": "function"
    },
    {
      "inputs": [],
      "name": "minimumDepositTime",
      "outputs": [
        {
          "internalType": "uint256",
          "name": "",
          "type": "uint256"
        }
      ],
      "stateMutability": "view",
      "type": "function"
    },
    {
      "inputs": [],
      "name": "purgeDeployer",
      "outputs": [],
      "stateMutability": "nonpayable",
      "type": "function"
    },
    {
      "inputs": [],
      "name": "reserveBASE",
      "outputs": [
        {
          "internalType": "uint256",
          "name": "",
          "type": "uint256"
        }
      ],
      "stateMutability": "view",
      "type": "function"
    },
    {
      "inputs": [
        {
          "internalType": "uint256",
          "name": "",
          "type": "uint256"
        }
      ],
      "name": "revenueArray",
      "outputs": [
        {
          "internalType": "uint256",
          "name": "",
          "type": "uint256"
        }
      ],
      "stateMutability": "view",
      "type": "function"
    },
    {
      "inputs": [
        {
          "internalType": "uint256",
          "name": "_erasToEarn",
          "type": "uint256"
        },
        {
          "internalType": "uint256",
          "name": "_minTime",
          "type": "uint256"
        },
        {
          "internalType": "uint256",
          "name": "_vaultClaim",
          "type": "uint256"
        }
      ],
      "name": "setParams",
      "outputs": [],
      "stateMutability": "nonpayable",
      "type": "function"
    },
    {
      "inputs": [],
      "name": "vaultClaim",
      "outputs": [
        {
          "internalType": "uint256",
          "name": "",
          "type": "uint256"
        }
      ],
      "stateMutability": "view",
      "type": "function"
    },
    {
      "inputs": [
        {
          "internalType": "address",
          "name": "synth",
          "type": "address"
        },
        {
          "internalType": "uint256",
          "name": "basisPoints",
          "type": "uint256"
        }
      ],
      "name": "withdraw",
      "outputs": [],
      "stateMutability": "nonpayable",
      "type": "function"
    }
  ],
  "bytecode": "0x60c06040523480156200001157600080fd5b50604051620037fd380380620037fd833981810160405281019062000037919062000169565b600073ffffffffffffffffffffffffffffffffffffffff168173ffffffffffffffffffffffffffffffffffffffff161415620000aa576040517f08c379a0000000000000000000000000000000000000000000000000000000008152600401620000a190620001bc565b60405180910390fd5b8073ffffffffffffffffffffffffffffffffffffffff1660808173ffffffffffffffffffffffffffffffffffffffff1660601b81525050336000806101000a81548173ffffffffffffffffffffffffffffffffffffffff021916908373ffffffffffffffffffffffffffffffffffffffff160217905550601e600281905550610e106001819055506103e86003819055504260a0818152505060006004819055505062000266565b60008151905062000163816200024c565b92915050565b6000602082840312156200017c57600080fd5b60006200018c8482850162000152565b91505092915050565b6000620001a4600583620001de565b9150620001b18262000223565b602082019050919050565b60006020820190508181036000830152620001d78162000195565b9050919050565b600082825260208201905092915050565b6000620001fc8262000203565b9050919050565b600073ffffffffffffffffffffffffffffffffffffffff82169050919050565b7f215a45524f000000000000000000000000000000000000000000000000000000600082015250565b6200025781620001ef565b81146200026357600080fd5b50565b60805160601c60a051613559620002a46000396000611c0001526000818161107d01528181611e8201528181611f4e015261240a01526135596000f3fe608060405234801561001057600080fd5b50600436106101735760003560e01c80638dfa9bcc116100de578063c1b8411a11610097578063e9f27c3a11610071578063e9f27c3a1461047b578063ec342ad0146104ab578063f0337cdc146104c9578063f3fef3a3146104f957610173565b8063c1b8411a146103fd578063ca4f64c21461041b578063ca8531a01461044b57610173565b80638dfa9bcc14610300578063952ca92c1461033057806399d786ca14610360578063a6dde1311461037e578063a7f0b3de146103af578063b28fc23a146103cd57610173565b806347e7ef241161013057806347e7ef241461022c578063485084b7146102485780635a0ce676146102785780636d85a7ea146102945780636fc2ee5c146102b25780637a94c2a5146102d057610173565b8063036e21e51461017857806303a82138146101965780630b991d4d146101a05780630dd3af75146101be5780631c21088c146101dc5780632c07eebf1461020e575b600080fd5b610180610515565b60405161018d919061301a565b60405180910390f35b61019e61051b565b005b6101a86105b6565b6040516101b5919061301a565b60405180910390f35b6101c66105bc565b6040516101d3919061301a565b60405180910390f35b6101f660048036038101906101f19190612b73565b6105c2565b60405161020593929190613087565b60405180910390f35b610216610d77565b604051610223919061301a565b60405180910390f35b61024660048036038101906102419190612baf565b610d7d565b005b610262600480360381019061025d9190612b21565b610fe9565b60405161026f919061301a565b60405180910390f35b610292600480360381019061028d9190612d4d565b611001565b005b61029c611073565b6040516102a9919061301a565b60405180910390f35b6102ba611079565b6040516102c7919061301a565b60405180910390f35b6102ea60048036038101906102e59190612b21565b6111ad565b6040516102f79190612f3f565b60405180910390f35b61031a60048036038101906103159190612b73565b6117c3565b604051610327919061301a565b60405180910390f35b61034a60048036038101906103459190612b21565b61184a565b604051610357919061301a565b60405180910390f35b610368611862565b604051610375919061301a565b60405180910390f35b61039860048036038101906103939190612b73565b611868565b6040516103a692919061305e565b60405180910390f35b6103b7611bfe565b6040516103c4919061301a565b60405180910390f35b6103e760048036038101906103e29190612b21565b611c22565b6040516103f4919061301a565b60405180910390f35b610405611c3a565b6040516104129190612e9b565b60405180910390f35b61043560048036038101906104309190612beb565b611c5e565b6040516104429190612f3f565b60405180910390f35b61046560048036038101906104609190612b73565b611cd6565b604051610472919061301a565b60405180910390f35b61049560048036038101906104909190612b73565b611d5d565b6040516104a2919061301a565b60405180910390f35b6104b3611f4c565b6040516104c09190612e9b565b60405180910390f35b6104e360048036038101906104de9190612cbf565b611f70565b6040516104f0919061301a565b60405180910390f35b610513600480360381019061050e9190612baf565b611f94565b005b60015481565b60008054906101000a900473ffffffffffffffffffffffffffffffffffffffff1673ffffffffffffffffffffffffffffffffffffffff163373ffffffffffffffffffffffffffffffffffffffff161461057357600080fd5b60008060006101000a81548173ffffffffffffffffffffffffffffffffffffffff021916908373ffffffffffffffffffffffffffffffffffffffff160217905550565b60055481565b60065481565b6000806000600115156105d3612406565b73ffffffffffffffffffffffffffffffffffffffff16639d2cc4366040518163ffffffff1660e01b815260040160206040518083038186803b15801561061857600080fd5b505afa15801561062c573d6000803e3d6000fd5b505050506040513d601f19601f820116820180604052508101906106509190612b4a565b73ffffffffffffffffffffffffffffffffffffffff1663194e22ce6040518163ffffffff1660e01b8152600401602060405180830381600087803b15801561069757600080fd5b505af11580156106ab573d6000803e3d6000fd5b505050506040513d601f19601f820116820180604052508101906106cf9190612c6d565b15151415610712576040517f08c379a000000000000000000000000000000000000000000000000000000000815260040161070990612fda565b60405180910390fd5b600061071c612406565b73ffffffffffffffffffffffffffffffffffffffff1663b99b0a0c6040518163ffffffff1660e01b815260040160206040518083038186803b15801561076157600080fd5b505afa158015610775573d6000803e3d6000fd5b505050506040513d601f19601f820116820180604052508101906107999190612b4a565b73ffffffffffffffffffffffffffffffffffffffff166351e596e06040518163ffffffff1660e01b815260040160006040518083038186803b1580156107de57600080fd5b505afa1580156107f2573d6000803e3d6000fd5b505050506040513d6000823e3d601f19601f8201168201806040525081019061081b9190612c2c565b905060005b8151811115610a91576000828281518110610864577f4e487b7100000000000000000000000000000000000000000000000000000000600052603260045260246000fd5b602002602001015173ffffffffffffffffffffffffffffffffffffffff1663e1eddde36040518163ffffffff1660e01b8152600401602060405180830381600087803b1580156108b357600080fd5b505af11580156108c7573d6000803e3d6000fd5b505050506040513d601f19601f820116820180604052508101906108eb9190612b4a565b9050600073ffffffffffffffffffffffffffffffffffffffff168173ffffffffffffffffffffffffffffffffffffffff1614610a7d57610929612406565b73ffffffffffffffffffffffffffffffffffffffff16637b0e5c456040518163ffffffff1660e01b815260040160206040518083038186803b15801561096e57600080fd5b505afa158015610982573d6000803e3d6000fd5b505050506040513d601f19601f820116820180604052508101906109a69190612b4a565b73ffffffffffffffffffffffffffffffffffffffff166348c0fd8f82600960008573ffffffffffffffffffffffffffffffffffffffff1673ffffffffffffffffffffffffffffffffffffffff168152602001908152602001600020546040518363ffffffff1660e01b8152600401610a1f929190612f16565b60206040518083038186803b158015610a3757600080fd5b505afa158015610a4b573d6000803e3d6000fd5b505050506040513d601f19601f82011682018060405250810190610a6f9190612ce8565b84610a7a9190613120565b93505b508080610a89906132ea565b915050610820565b50610a9a612406565b73ffffffffffffffffffffffffffffffffffffffff16637b0e5c456040518163ffffffff1660e01b815260040160206040518083038186803b158015610adf57600080fd5b505afa158015610af3573d6000803e3d6000fd5b505050506040513d601f19601f82011682018060405250810190610b179190612b4a565b73ffffffffffffffffffffffffffffffffffffffff166348c0fd8f87600960008a73ffffffffffffffffffffffffffffffffffffffff1673ffffffffffffffffffffffffffffffffffffffff168152602001908152602001600020546040518363ffffffff1660e01b8152600401610b90929190612f16565b60206040518083038186803b158015610ba857600080fd5b505afa158015610bbc573d6000803e3d6000fd5b505050506040513d601f19601f82011682018060405250810190610be09190612ce8565b9250610bea612406565b73ffffffffffffffffffffffffffffffffffffffff16637b0e5c456040518163ffffffff1660e01b815260040160206040518083038186803b158015610c2f57600080fd5b505afa158015610c43573d6000803e3d6000fd5b505050506040513d601f19601f82011682018060405250810190610c679190612b4a565b73ffffffffffffffffffffffffffffffffffffffff166348c0fd8f87600860008973ffffffffffffffffffffffffffffffffffffffff1673ffffffffffffffffffffffffffffffffffffffff16815260200190815260200160002060008a73ffffffffffffffffffffffffffffffffffffffff1673ffffffffffffffffffffffffffffffffffffffff168152602001908152602001600020546040518363ffffffff1660e01b8152600401610d1d929190612f16565b60206040518083038186803b158015610d3557600080fd5b505afa158015610d49573d6000803e3d6000fd5b505050506040513d601f19601f82011682018060405250810190610d6d9190612ce8565b9350509250925092565b60025481565b60008111610dc0576040517f08c379a0000000000000000000000000000000000000000000000000000000008152600401610db790612f7a565b60405180910390fd5b610dc8612406565b73ffffffffffffffffffffffffffffffffffffffff1663b93ec54b6040518163ffffffff1660e01b815260040160206040518083038186803b158015610e0d57600080fd5b505afa158015610e21573d6000803e3d6000fd5b505050506040513d601f19601f82011682018060405250810190610e459190612b4a565b73ffffffffffffffffffffffffffffffffffffffff16635e0237ea836040518263ffffffff1660e01b8152600401610e7d9190612e9b565b60206040518083038186803b158015610e9557600080fd5b505afa158015610ea9573d6000803e3d6000fd5b505050506040513d601f19601f82011682018060405250810190610ecd9190612c6d565b610f0c576040517f08c379a0000000000000000000000000000000000000000000000000000000008152600401610f0390612f9a565b60405180910390fd5b8173ffffffffffffffffffffffffffffffffffffffff166323b872dd3330846040518463ffffffff1660e01b8152600401610f4993929190612edf565b602060405180830381600087803b158015610f6357600080fd5b505af1158015610f77573d6000803e3d6000fd5b505050506040513d601f19601f82011682018060405250810190610f9b9190612c6d565b610fda576040517f08c379a0000000000000000000000000000000000000000000000000000000008152600401610fd190612fba565b60405180910390fd5b610fe58233836124ab565b5050565b60096020528060005260406000206000915090505481565b60008054906101000a900473ffffffffffffffffffffffffffffffffffffffff1673ffffffffffffffffffffffffffffffffffffffff163373ffffffffffffffffffffffffffffffffffffffff161461105957600080fd5b826002819055508160018190555080600381905550505050565b60035481565b60007f000000000000000000000000000000000000000000000000000000000000000073ffffffffffffffffffffffffffffffffffffffff166370a082316110bf612406565b73ffffffffffffffffffffffffffffffffffffffff16639d2cc4366040518163ffffffff1660e01b815260040160206040518083038186803b15801561110457600080fd5b505afa158015611118573d6000803e3d6000fd5b505050506040513d601f19601f8201168201806040525081019061113c9190612b4a565b6040518263ffffffff1660e01b81526004016111589190612e9b565b60206040518083038186803b15801561117057600080fd5b505afa158015611184573d6000803e3d6000fd5b505050506040513d601f19601f820116820180604052508101906111a89190612ce8565b905090565b60006111b7612406565b73ffffffffffffffffffffffffffffffffffffffff1663b93ec54b6040518163ffffffff1660e01b815260040160206040518083038186803b1580156111fc57600080fd5b505afa158015611210573d6000803e3d6000fd5b505050506040513d601f19601f820116820180604052508101906112349190612b4a565b73ffffffffffffffffffffffffffffffffffffffff16635e0237ea836040518263ffffffff1660e01b815260040161126c9190612e9b565b60206040518083038186803b15801561128457600080fd5b505afa158015611298573d6000803e3d6000fd5b505050506040513d601f19601f820116820180604052508101906112bc9190612c6d565b6112fb576040517f08c379a00000000000000000000000000000000000000000000000000000000081526004016112f290612f9a565b60405180910390fd5b60006113078333611d5d565b905060008111156117b957600a60003373ffffffffffffffffffffffffffffffffffffffff1673ffffffffffffffffffffffffffffffffffffffff16815260200190815260200160002060008473ffffffffffffffffffffffffffffffffffffffff1673ffffffffffffffffffffffffffffffffffffffff1681526020019081526020016000205442116113d0576040517f08c379a00000000000000000000000000000000000000000000000000000000081526004016113c790612ffa565b60405180910390fd5b42600a60003373ffffffffffffffffffffffffffffffffffffffff1673ffffffffffffffffffffffffffffffffffffffff16815260200190815260200160002060008573ffffffffffffffffffffffffffffffffffffffff1673ffffffffffffffffffffffffffffffffffffffff1681526020019081526020016000208190555060008373ffffffffffffffffffffffffffffffffffffffff16637535d2466040518163ffffffff1660e01b815260040160206040518083038186803b15801561149957600080fd5b505afa1580156114ad573d6000803e3d6000fd5b505050506040513d601f19601f820116820180604052508101906114d19190612b4a565b90508073ffffffffffffffffffffffffffffffffffffffff1663fff6cae96040518163ffffffff1660e01b8152600401600060405180830381600087803b15801561151b57600080fd5b505af115801561152f573d6000803e3d6000fd5b5050505061153b612406565b73ffffffffffffffffffffffffffffffffffffffff16639d2cc4366040518163ffffffff1660e01b815260040160206040518083038186803b15801561158057600080fd5b505afa158015611594573d6000803e3d6000fd5b505050506040513d601f19601f820116820180604052508101906115b89190612b4a565b73ffffffffffffffffffffffffffffffffffffffff16637d458baa83836040518363ffffffff1660e01b81526004016115f2929190613035565b600060405180830381600087803b15801561160c57600080fd5b505af1158015611620573d6000803e3d6000fd5b5050505060008173ffffffffffffffffffffffffffffffffffffffff16635c53738686306040518363ffffffff1660e01b8152600401611661929190612eb6565b6040805180830381600087803b15801561167a57600080fd5b505af115801561168e573d6000803e3d6000fd5b505050506040513d601f19601f820116820180604052508101906116b29190612d11565b50905080600860003373ffffffffffffffffffffffffffffffffffffffff1673ffffffffffffffffffffffffffffffffffffffff16815260200190815260200160002060008773ffffffffffffffffffffffffffffffffffffffff1673ffffffffffffffffffffffffffffffffffffffff16815260200190815260200160002060008282546117419190613120565b92505081905550611751836126dd565b3373ffffffffffffffffffffffffffffffffffffffff168573ffffffffffffffffffffffffffffffffffffffff167f509122099a522eb9860de32189d85affc5ff2d5f093c558c64a8a2427f7eba20856040516117ae919061301a565b60405180910390a350505b6001915050919050565b6000600860008373ffffffffffffffffffffffffffffffffffffffff1673ffffffffffffffffffffffffffffffffffffffff16815260200190815260200160002060008473ffffffffffffffffffffffffffffffffffffffff1673ffffffffffffffffffffffffffffffffffffffff16815260200190815260200160002054905092915050565b600c6020528060005260406000206000915090505481565b60045481565b600080600080600061187a87876105c2565b925092509250600060025461188d611079565b6118979190613176565b905060006118a3612406565b73ffffffffffffffffffffffffffffffffffffffff1663b93ec54b6040518163ffffffff1660e01b815260040160206040518083038186803b1580156118e857600080fd5b505afa1580156118fc573d6000803e3d6000fd5b505050506040513d601f19601f820116820180604052508101906119209190612b4a565b73ffffffffffffffffffffffffffffffffffffffff166378a45a246040518163ffffffff1660e01b8152600401602060405180830381600087803b15801561196757600080fd5b505af115801561197b573d6000803e3d6000fd5b505050506040513d601f19601f8201168201806040525081019061199f9190612ce8565b905061271081600354846119b391906131a7565b6119bd9190613176565b6119c79190613176565b955060006119d3612406565b73ffffffffffffffffffffffffffffffffffffffff16637b0e5c456040518163ffffffff1660e01b815260040160206040518083038186803b158015611a1857600080fd5b505afa158015611a2c573d6000803e3d6000fd5b505050506040513d601f19601f82011682018060405250810190611a509190612b4a565b73ffffffffffffffffffffffffffffffffffffffff16631ba326c486868a6040518463ffffffff1660e01b8152600401611a8c93929190613087565b60206040518083038186803b158015611aa457600080fd5b505afa158015611ab8573d6000803e3d6000fd5b505050506040513d601f19601f82011682018060405250810190611adc9190612ce8565b9050611ae6612406565b73ffffffffffffffffffffffffffffffffffffffff16637b0e5c456040518163ffffffff1660e01b815260040160206040518083038186803b158015611b2b57600080fd5b505afa158015611b3f573d6000803e3d6000fd5b505050506040513d601f19601f82011682018060405250810190611b639190612b4a565b73ffffffffffffffffffffffffffffffffffffffff16631ba326c48787846040518463ffffffff1660e01b8152600401611b9f93929190613087565b60206040518083038186803b158015611bb757600080fd5b505afa158015611bcb573d6000803e3d6000fd5b505050506040513d601f19601f82011682018060405250810190611bef9190612ce8565b97505050505050509250929050565b7f000000000000000000000000000000000000000000000000000000000000000081565b600b6020528060005260406000206000915090505481565b60008054906101000a900473ffffffffffffffffffffffffffffffffffffffff1681565b600080600090505b8251811015611ccc57611cb8838281518110611cab577f4e487b7100000000000000000000000000000000000000000000000000000000600052603260045260246000fd5b60200260200101516111ad565b508080611cc4906132ea565b915050611c66565b5060019050919050565b6000600a60008373ffffffffffffffffffffffffffffffffffffffff1673ffffffffffffffffffffffffffffffffffffffff16815260200190815260200160002060008473ffffffffffffffffffffffffffffffffffffffff1673ffffffffffffffffffffffffffffffffffffffff16815260200190815260200160002054905092915050565b6000600a60008373ffffffffffffffffffffffffffffffffffffffff1673ffffffffffffffffffffffffffffffffffffffff16815260200190815260200160002060008473ffffffffffffffffffffffffffffffffffffffff1673ffffffffffffffffffffffffffffffffffffffff16815260200190815260200160002054421115611f46576000600a60008473ffffffffffffffffffffffffffffffffffffffff1673ffffffffffffffffffffffffffffffffffffffff16815260200190815260200160002060008573ffffffffffffffffffffffffffffffffffffffff1673ffffffffffffffffffffffffffffffffffffffff1681526020019081526020016000205442611e6d9190613201565b9050600080611e7c8686611868565b915091507f000000000000000000000000000000000000000000000000000000000000000073ffffffffffffffffffffffffffffffffffffffff16636b92a3b66040518163ffffffff1660e01b815260040160206040518083038186803b158015611ee657600080fd5b505afa158015611efa573d6000803e3d6000fd5b505050506040513d601f19601f82011682018060405250810190611f1e9190612ce8565b8383611f2a91906131a7565b611f349190613176565b935080841115611f42578093505b5050505b92915050565b7f000000000000000000000000000000000000000000000000000000000000000081565b60078181548110611f8057600080fd5b906000526020600020016000915090505481565b60008111611fd7576040517f08c379a0000000000000000000000000000000000000000000000000000000008152600401611fce90612f7a565b60405180910390fd5b600b60003373ffffffffffffffffffffffffffffffffffffffff1673ffffffffffffffffffffffffffffffffffffffff168152602001908152602001600020544211612058576040517f08c379a000000000000000000000000000000000000000000000000000000000815260040161204f90612f5a565b60405180910390fd5b6000612062612406565b73ffffffffffffffffffffffffffffffffffffffff16637b0e5c456040518163ffffffff1660e01b815260040160206040518083038186803b1580156120a757600080fd5b505afa1580156120bb573d6000803e3d6000fd5b505050506040513d601f19601f820116820180604052508101906120df9190612b4a565b73ffffffffffffffffffffffffffffffffffffffff1663714270ab83600860003373ffffffffffffffffffffffffffffffffffffffff1673ffffffffffffffffffffffffffffffffffffffff16815260200190815260200160002060008773ffffffffffffffffffffffffffffffffffffffff1673ffffffffffffffffffffffffffffffffffffffff168152602001908152602001600020546040518363ffffffff1660e01b815260040161219592919061305e565b60206040518083038186803b1580156121ad57600080fd5b505afa1580156121c1573d6000803e3d6000fd5b505050506040513d601f19601f820116820180604052508101906121e59190612ce8565b905080600860003373ffffffffffffffffffffffffffffffffffffffff1673ffffffffffffffffffffffffffffffffffffffff16815260200190815260200160002060008573ffffffffffffffffffffffffffffffffffffffff1673ffffffffffffffffffffffffffffffffffffffff16815260200190815260200160002060008282546122739190613201565b9250508190555080600960008573ffffffffffffffffffffffffffffffffffffffff1673ffffffffffffffffffffffffffffffffffffffff16815260200190815260200160002060008282546122c99190613201565b925050819055508273ffffffffffffffffffffffffffffffffffffffff1663a9059cbb33836040518363ffffffff1660e01b815260040161230b929190612f16565b602060405180830381600087803b15801561232557600080fd5b505af1158015612339573d6000803e3d6000fd5b505050506040513d601f19601f8201168201806040525081019061235d9190612c6d565b61239c576040517f08c379a000000000000000000000000000000000000000000000000000000000815260040161239390612fba565b60405180910390fd5b3373ffffffffffffffffffffffffffffffffffffffff168373ffffffffffffffffffffffffffffffffffffffff167f12dcb5d4117cb4675d56c72f030db8f0f4dd34f875fe484eea4cf0790b5deaa3836040516123f9919061301a565b60405180910390a3505050565b60007f000000000000000000000000000000000000000000000000000000000000000073ffffffffffffffffffffffffffffffffffffffff166398fabd3a6040518163ffffffff1660e01b815260040160206040518083038186803b15801561246e57600080fd5b505afa158015612482573d6000803e3d6000fd5b505050506040513d601f19601f820116820180604052508101906124a69190612c96565b905090565b600154426124b99190613120565b600a60008473ffffffffffffffffffffffffffffffffffffffff1673ffffffffffffffffffffffffffffffffffffffff16815260200190815260200160002060008573ffffffffffffffffffffffffffffffffffffffff1673ffffffffffffffffffffffffffffffffffffffff16815260200190815260200160002081905550600154426125479190613120565b600b60008473ffffffffffffffffffffffffffffffffffffffff1673ffffffffffffffffffffffffffffffffffffffff1681526020019081526020016000208190555080600860008473ffffffffffffffffffffffffffffffffffffffff1673ffffffffffffffffffffffffffffffffffffffff16815260200190815260200160002060008573ffffffffffffffffffffffffffffffffffffffff1673ffffffffffffffffffffffffffffffffffffffff16815260200190815260200160002060008282546126169190613120565b9250508190555080600960008573ffffffffffffffffffffffffffffffffffffffff1673ffffffffffffffffffffffffffffffffffffffff168152602001908152602001600020600082825461266c9190613120565b925050819055508173ffffffffffffffffffffffffffffffffffffffff168373ffffffffffffffffffffffffffffffffffffffff167f5f9b5a75581a29d72b32414a5df7f1ef124b7787b38616fb8fdcad76179127c2836040516126d0919061301a565b60405180910390a3505050565b600060045414156126f057426004819055505b62278d006004546127019190613120565b421161272057806005546127159190613120565b600581905550612743565b4260048190555060055460068190555061273b600654612746565b806005819055505b50565b60026007805490501461278157600781908060018154018082558091505060019003906000526020600020016000909190919091505561278b565b61278a8161278e565b5b50565b600060078054806020026020016040519081016040528092919081815260200182805480156127dc57602002820191906000526020600020905b8154815260200190600101908083116127c8575b5050505050905060008151905060006001826127f89190613201565b90505b60008111156128a957826001826128129190613201565b81518110612849577f4e487b7100000000000000000000000000000000000000000000000000000000600052603260045260246000fd5b602002602001015183828151811061288a577f4e487b7100000000000000000000000000000000000000000000000000000000600052603260045260246000fd5b60200260200101818152505080806128a19061328f565b9150506127fb565b5082826000815181106128e5577f4e487b7100000000000000000000000000000000000000000000000000000000600052603260045260246000fd5b602002602001018181525050816007908051906020019061290792919061290d565b50505050565b828054828255906000526020600020908101928215612949579160200282015b8281111561294857825182559160200191906001019061292d565b5b509050612956919061295a565b5090565b5b8082111561297357600081600090555060010161295b565b5090565b600061298a612985846130e3565b6130be565b905080838252602082019050828560208602820111156129a957600080fd5b60005b858110156129d957816129bf8882612a4f565b8452602084019350602083019250506001810190506129ac565b5050509392505050565b60006129f66129f1846130e3565b6130be565b90508083825260208201905082856020860282011115612a1557600080fd5b60005b85811015612a455781612a2b8882612a64565b845260208401935060208301925050600181019050612a18565b5050509392505050565b600081359050612a5e816134c7565b92915050565b600081519050612a73816134c7565b92915050565b600082601f830112612a8a57600080fd5b8135612a9a848260208601612977565b91505092915050565b600082601f830112612ab457600080fd5b8151612ac48482602086016129e3565b91505092915050565b600081519050612adc816134de565b92915050565b600081519050612af1816134f5565b92915050565b600081359050612b068161350c565b92915050565b600081519050612b1b8161350c565b92915050565b600060208284031215612b3357600080fd5b6000612b4184828501612a4f565b91505092915050565b600060208284031215612b5c57600080fd5b6000612b6a84828501612a64565b91505092915050565b60008060408385031215612b8657600080fd5b6000612b9485828601612a4f565b9250506020612ba585828601612a4f565b9150509250929050565b60008060408385031215612bc257600080fd5b6000612bd085828601612a4f565b9250506020612be185828601612af7565b9150509250929050565b600060208284031215612bfd57600080fd5b600082013567ffffffffffffffff811115612c1757600080fd5b612c2384828501612a79565b91505092915050565b600060208284031215612c3e57600080fd5b600082015167ffffffffffffffff811115612c5857600080fd5b612c6484828501612aa3565b91505092915050565b600060208284031215612c7f57600080fd5b6000612c8d84828501612acd565b91505092915050565b600060208284031215612ca857600080fd5b6000612cb684828501612ae2565b91505092915050565b600060208284031215612cd157600080fd5b6000612cdf84828501612af7565b91505092915050565b600060208284031215612cfa57600080fd5b6000612d0884828501612b0c565b91505092915050565b60008060408385031215612d2457600080fd5b6000612d3285828601612b0c565b9250506020612d4385828601612b0c565b9150509250929050565b600080600060608486031215612d6257600080fd5b6000612d7086828701612af7565b9350506020612d8186828701612af7565b9250506040612d9286828701612af7565b9150509250925092565b612da581613235565b82525050565b612db481613247565b82525050565b6000612dc760078361310f565b9150612dd2826133d1565b602082019050919050565b6000612dea60068361310f565b9150612df5826133fa565b602082019050919050565b6000612e0d60068361310f565b9150612e1882613423565b602082019050919050565b6000612e3060098361310f565b9150612e3b8261344c565b602082019050919050565b6000612e5360058361310f565b9150612e5e82613475565b602082019050919050565b6000612e7660068361310f565b9150612e818261349e565b602082019050919050565b612e9581613285565b82525050565b6000602082019050612eb06000830184612d9c565b92915050565b6000604082019050612ecb6000830185612d9c565b612ed86020830184612d9c565b9392505050565b6000606082019050612ef46000830186612d9c565b612f016020830185612d9c565b612f0e6040830184612e8c565b949350505050565b6000604082019050612f2b6000830185612d9c565b612f386020830184612e8c565b9392505050565b6000602082019050612f546000830184612dab565b92915050565b60006020820190508181036000830152612f7381612dba565b9050919050565b60006020820190508181036000830152612f9381612ddd565b9050919050565b60006020820190508181036000830152612fb381612e00565b9050919050565b60006020820190508181036000830152612fd381612e23565b9050919050565b60006020820190508181036000830152612ff381612e46565b9050919050565b6000602082019050818103600083015261301381612e69565b9050919050565b600060208201905061302f6000830184612e8c565b92915050565b600060408201905061304a6000830185612e8c565b6130576020830184612d9c565b9392505050565b60006040820190506130736000830185612e8c565b6130806020830184612e8c565b9392505050565b600060608201905061309c6000830186612e8c565b6130a96020830185612e8c565b6130b66040830184612e8c565b949350505050565b60006130c86130d9565b90506130d482826132b9565b919050565b6000604051905090565b600067ffffffffffffffff8211156130fe576130fd613391565b5b602082029050602081019050919050565b600082825260208201905092915050565b600061312b82613285565b915061313683613285565b9250827fffffffffffffffffffffffffffffffffffffffffffffffffffffffffffffffff0382111561316b5761316a613333565b5b828201905092915050565b600061318182613285565b915061318c83613285565b92508261319c5761319b613362565b5b828204905092915050565b60006131b282613285565b91506131bd83613285565b9250817fffffffffffffffffffffffffffffffffffffffffffffffffffffffffffffffff04831182151516156131f6576131f5613333565b5b828202905092915050565b600061320c82613285565b915061321783613285565b92508282101561322a57613229613333565b5b828203905092915050565b600061324082613265565b9050919050565b60008115159050919050565b600061325e82613235565b9050919050565b600073ffffffffffffffffffffffffffffffffffffffff82169050919050565b6000819050919050565b600061329a82613285565b915060008214156132ae576132ad613333565b5b600182039050919050565b6132c2826133c0565b810181811067ffffffffffffffff821117156132e1576132e0613391565b5b80604052505050565b60006132f582613285565b91507fffffffffffffffffffffffffffffffffffffffffffffffffffffffffffffffff82141561332857613327613333565b5b600182019050919050565b7f4e487b7100000000000000000000000000000000000000000000000000000000600052601160045260246000fd5b7f4e487b7100000000000000000000000000000000000000000000000000000000600052601260045260246000fd5b7f4e487b7100000000000000000000000000000000000000000000000000000000600052604160045260246000fd5b6000601f19601f8301169050919050565b7f6c6f636b6f757400000000000000000000000000000000000000000000000000600082015250565b7f2156414c49440000000000000000000000000000000000000000000000000000600082015250565b7f2153796e74680000000000000000000000000000000000000000000000000000600082015250565b7f217472616e736665720000000000000000000000000000000000000000000000600082015250565b7f2153414645000000000000000000000000000000000000000000000000000000600082015250565b7f4c4f434b45440000000000000000000000000000000000000000000000000000600082015250565b6134d081613235565b81146134db57600080fd5b50565b6134e781613247565b81146134f257600080fd5b50565b6134fe81613253565b811461350957600080fd5b50565b61351581613285565b811461352057600080fd5b5056fea264697066735822122064f1505b8a95dd502a5302bbc75d47b4e5236fe91d12e85f20af0810d526176764736f6c63430008030033",
  "linkReferences": {},
  "deployedLinkReferences": {}
}