{
  "_format": "hh-sol-artifact-1",
  "contractName": "SynthVault",
  "sourceName": "contracts/synthVault.sol",
  "abi": [
    {
      "inputs": [
        {
          "internalType": "address",
          "name": "_base",
          "type": "address"
        }
      ],
      "stateMutability": "nonpayable",
      "type": "constructor"
    },
    {
      "anonymous": false,
      "inputs": [
        {
          "indexed": true,
          "internalType": "address",
          "name": "synth",
          "type": "address"
        },
        {
          "indexed": true,
          "internalType": "address",
          "name": "member",
          "type": "address"
        },
        {
          "indexed": false,
          "internalType": "uint256",
          "name": "newDeposit",
          "type": "uint256"
        },
        {
          "indexed": false,
          "internalType": "uint256",
          "name": "weight",
          "type": "uint256"
        },
        {
          "indexed": false,
          "internalType": "uint256",
          "name": "totalWeight",
          "type": "uint256"
        }
      ],
      "name": "MemberDeposits",
      "type": "event"
    },
    {
      "anonymous": false,
      "inputs": [
        {
          "indexed": true,
          "internalType": "address",
          "name": "synth",
          "type": "address"
        },
        {
          "indexed": true,
          "internalType": "address",
          "name": "member",
          "type": "address"
        },
        {
          "indexed": false,
          "internalType": "uint256",
          "name": "amount",
          "type": "uint256"
        },
        {
          "indexed": false,
          "internalType": "uint256",
          "name": "weight",
          "type": "uint256"
        },
        {
          "indexed": false,
          "internalType": "uint256",
          "name": "totalWeight",
          "type": "uint256"
        }
      ],
      "name": "MemberHarvests",
      "type": "event"
    },
    {
      "anonymous": false,
      "inputs": [
        {
          "indexed": true,
          "internalType": "address",
          "name": "synth",
          "type": "address"
        },
        {
          "indexed": true,
          "internalType": "address",
          "name": "member",
          "type": "address"
        },
        {
          "indexed": false,
          "internalType": "uint256",
          "name": "amount",
          "type": "uint256"
        },
        {
          "indexed": false,
          "internalType": "uint256",
          "name": "weight",
          "type": "uint256"
        },
        {
          "indexed": false,
          "internalType": "uint256",
          "name": "totalWeight",
          "type": "uint256"
        }
      ],
      "name": "MemberWithdraws",
      "type": "event"
    },
    {
      "inputs": [],
      "name": "BASE",
      "outputs": [
        {
          "internalType": "address",
          "name": "",
          "type": "address"
        }
      ],
      "stateMutability": "view",
      "type": "function"
    },
    {
      "inputs": [],
      "name": "DEPLOYER",
      "outputs": [
        {
          "internalType": "address",
          "name": "",
          "type": "address"
        }
      ],
      "stateMutability": "view",
      "type": "function"
    },
    {
      "inputs": [
        {
          "internalType": "address",
          "name": "synth",
          "type": "address"
        },
        {
          "internalType": "address",
          "name": "member",
          "type": "address"
        }
      ],
      "name": "calcCurrentReward",
      "outputs": [
        {
          "internalType": "uint256",
          "name": "reward",
          "type": "uint256"
        }
      ],
      "stateMutability": "view",
      "type": "function"
    },
    {
      "inputs": [
        {
          "internalType": "address",
          "name": "synth",
          "type": "address"
        },
        {
          "internalType": "address",
          "name": "member",
          "type": "address"
        }
      ],
      "name": "calcReward",
      "outputs": [
        {
          "internalType": "uint256",
          "name": "",
          "type": "uint256"
        }
      ],
      "stateMutability": "view",
      "type": "function"
    },
    {
      "inputs": [
        {
          "internalType": "address",
          "name": "synth",
          "type": "address"
        },
        {
          "internalType": "uint256",
          "name": "amount",
          "type": "uint256"
        }
      ],
      "name": "deposit",
      "outputs": [],
      "stateMutability": "nonpayable",
      "type": "function"
    },
    {
      "inputs": [],
      "name": "erasToEarn",
      "outputs": [
        {
          "internalType": "uint256",
          "name": "",
          "type": "uint256"
        }
      ],
      "stateMutability": "view",
      "type": "function"
    },
    {
      "inputs": [],
      "name": "genesis",
      "outputs": [
        {
          "internalType": "uint256",
          "name": "",
          "type": "uint256"
        }
      ],
      "stateMutability": "view",
      "type": "function"
    },
    {
      "inputs": [
        {
          "internalType": "address",
          "name": "synth",
          "type": "address"
        },
        {
          "internalType": "address",
          "name": "member",
          "type": "address"
        }
      ],
      "name": "getMemberDeposit",
      "outputs": [
        {
          "internalType": "uint256",
          "name": "",
          "type": "uint256"
        }
      ],
      "stateMutability": "view",
      "type": "function"
    },
    {
      "inputs": [
        {
          "internalType": "address",
          "name": "synth",
          "type": "address"
        },
        {
          "internalType": "address",
          "name": "member",
          "type": "address"
        }
      ],
      "name": "getMemberLastSynthTime",
      "outputs": [
        {
          "internalType": "uint256",
          "name": "",
          "type": "uint256"
        }
      ],
      "stateMutability": "view",
      "type": "function"
    },
    {
      "inputs": [
        {
          "internalType": "address",
          "name": "member",
          "type": "address"
        }
      ],
      "name": "getMemberLastTime",
      "outputs": [
        {
          "internalType": "uint256",
          "name": "",
          "type": "uint256"
        }
      ],
      "stateMutability": "view",
      "type": "function"
    },
    {
      "inputs": [
        {
          "internalType": "address",
          "name": "synth",
          "type": "address"
        },
        {
          "internalType": "address",
          "name": "member",
          "type": "address"
        }
      ],
      "name": "getMemberSynthWeight",
      "outputs": [
        {
          "internalType": "uint256",
          "name": "",
          "type": "uint256"
        }
      ],
      "stateMutability": "view",
      "type": "function"
    },
    {
      "inputs": [
        {
          "internalType": "address",
          "name": "member",
          "type": "address"
        }
      ],
      "name": "getMemberWeight",
      "outputs": [
        {
          "internalType": "uint256",
          "name": "",
          "type": "uint256"
        }
      ],
      "stateMutability": "view",
      "type": "function"
    },
    {
      "inputs": [],
      "name": "getStakeSynthLength",
      "outputs": [
        {
          "internalType": "uint256",
          "name": "",
          "type": "uint256"
        }
      ],
      "stateMutability": "view",
      "type": "function"
    },
    {
      "inputs": [
        {
          "internalType": "address[]",
          "name": "synthAssets",
          "type": "address[]"
        }
      ],
      "name": "harvestAll",
      "outputs": [
        {
          "internalType": "bool",
          "name": "",
          "type": "bool"
        }
      ],
      "stateMutability": "nonpayable",
      "type": "function"
    },
    {
      "inputs": [
        {
          "internalType": "address",
          "name": "synth",
          "type": "address"
        }
      ],
      "name": "harvestSingle",
      "outputs": [
        {
          "internalType": "bool",
          "name": "",
          "type": "bool"
        }
      ],
      "stateMutability": "nonpayable",
      "type": "function"
    },
    {
      "inputs": [
        {
          "internalType": "address",
          "name": "",
          "type": "address"
        }
      ],
      "name": "lastBlock",
      "outputs": [
        {
          "internalType": "uint256",
          "name": "",
          "type": "uint256"
        }
      ],
      "stateMutability": "view",
      "type": "function"
    },
    {
      "inputs": [],
      "name": "map30DVaultRevenue",
      "outputs": [
        {
          "internalType": "uint256",
          "name": "",
          "type": "uint256"
        }
      ],
      "stateMutability": "view",
      "type": "function"
    },
    {
      "inputs": [],
      "name": "mapPast30DVaultRevenue",
      "outputs": [
        {
          "internalType": "uint256",
          "name": "",
          "type": "uint256"
        }
      ],
      "stateMutability": "view",
      "type": "function"
    },
    {
      "inputs": [],
      "name": "minimumDepositTime",
      "outputs": [
        {
          "internalType": "uint256",
          "name": "",
          "type": "uint256"
        }
      ],
      "stateMutability": "view",
      "type": "function"
    },
    {
      "inputs": [],
      "name": "purgeDeployer",
      "outputs": [],
      "stateMutability": "nonpayable",
      "type": "function"
    },
    {
      "inputs": [],
      "name": "reserveBASE",
      "outputs": [
        {
          "internalType": "uint256",
          "name": "",
          "type": "uint256"
        }
      ],
      "stateMutability": "view",
      "type": "function"
    },
    {
      "inputs": [
        {
          "internalType": "uint256",
          "name": "",
          "type": "uint256"
        }
      ],
      "name": "revenueArray",
      "outputs": [
        {
          "internalType": "uint256",
          "name": "",
          "type": "uint256"
        }
      ],
      "stateMutability": "view",
      "type": "function"
    },
    {
      "inputs": [
        {
          "internalType": "uint256",
          "name": "_erasToEarn",
          "type": "uint256"
        },
        {
          "internalType": "uint256",
          "name": "_minTime",
          "type": "uint256"
        },
        {
          "internalType": "uint256",
          "name": "_vaultClaim",
          "type": "uint256"
        }
      ],
      "name": "setParams",
      "outputs": [],
      "stateMutability": "nonpayable",
      "type": "function"
    },
    {
      "inputs": [
        {
          "internalType": "uint256",
          "name": "",
          "type": "uint256"
        }
      ],
      "name": "stakedSynthAssets",
      "outputs": [
        {
          "internalType": "address",
          "name": "",
          "type": "address"
        }
      ],
      "stateMutability": "view",
      "type": "function"
    },
    {
      "inputs": [],
      "name": "totalWeight",
      "outputs": [
        {
          "internalType": "uint256",
          "name": "",
          "type": "uint256"
        }
      ],
      "stateMutability": "view",
      "type": "function"
    },
    {
      "inputs": [],
      "name": "vaultClaim",
      "outputs": [
        {
          "internalType": "uint256",
          "name": "",
          "type": "uint256"
        }
      ],
      "stateMutability": "view",
      "type": "function"
    },
    {
      "inputs": [
        {
          "internalType": "address",
          "name": "synth",
          "type": "address"
        },
        {
          "internalType": "uint256",
          "name": "basisPoints",
          "type": "uint256"
        }
      ],
      "name": "withdraw",
      "outputs": [
        {
          "internalType": "uint256",
          "name": "redeemedAmount",
          "type": "uint256"
        }
      ],
      "stateMutability": "nonpayable",
      "type": "function"
    }
  ],
  "bytecode": "0x60806040523480156200001157600080fd5b5060405162003240380380620032408339818101604052810190620000379190620000ff565b806000806101000a81548173ffffffffffffffffffffffffffffffffffffffff021916908373ffffffffffffffffffffffffffffffffffffffff16021790555033600160006101000a81548173ffffffffffffffffffffffffffffffffffffffff021916908373ffffffffffffffffffffffffffffffffffffffff160217905550601e600481905550610e106002819055506103e86005819055504260088190555060006007819055505062000179565b600081519050620000f9816200015f565b92915050565b6000602082840312156200011257600080fd5b60006200012284828501620000e8565b91505092915050565b600062000138826200013f565b9050919050565b600073ffffffffffffffffffffffffffffffffffffffff82169050919050565b6200016a816200012b565b81146200017657600080fd5b50565b6130b780620001896000396000f3fe608060405234801561001057600080fd5b50600436106101a95760003560e01c80638dfa9bcc116100f9578063ca4f64c211610097578063e9f27c3a11610071578063e9f27c3a146104fc578063ec342ad01461052c578063f0337cdc1461054a578063f3fef3a31461057a576101a9565b8063ca4f64c21461046c578063ca8531a01461049c578063d90c7dfb146104cc576101a9565b8063a6dde131116100d3578063a6dde131146103d0578063a7f0b3de14610400578063c1b8411a1461041e578063c420bb8c1461043c576101a9565b80638dfa9bcc14610352578063952ca92c1461038257806396c82e57146103b2576101a9565b80632c07eebf116101665780635a0ce676116101405780635a0ce676146102ca5780636d85a7ea146102e65780636fc2ee5c146103045780637a94c2a514610322576101a9565b80632c07eebf1461026057806347e7ef241461027e5780635364df491461029a576101a9565b8063036e21e5146101ae57806303a82138146101cc5780630b991d4d146101d65780630dd3af75146101f45780631c21088c146102125780631e89f00a14610242575b600080fd5b6101b66105aa565b6040516101c39190612bca565b60405180910390f35b6101d46105b0565b005b6101de61064e565b6040516101eb9190612bca565b60405180910390f35b6101fc610654565b6040516102099190612bca565b60405180910390f35b61022c600480360381019061022791906127ea565b61065a565b6040516102399190612bca565b60405180910390f35b61024a6106e1565b6040516102579190612bca565b60405180910390f35b6102686106ee565b6040516102759190612bca565b60405180910390f35b61029860048036038101906102939190612826565b6106f4565b005b6102b460048036038101906102af9190612798565b61079b565b6040516102c19190612bca565b60405180910390f35b6102e460048036038101906102df9190612983565b6107e4565b005b6102ee610858565b6040516102fb9190612bca565b60405180910390f35b61030c61085e565b6040516103199190612bca565b60405180910390f35b61033c60048036038101906103379190612798565b610993565b6040516103499190612b2f565b60405180910390f35b61036c600480360381019061036791906127ea565b610ddf565b6040516103799190612bca565b60405180910390f35b61039c60048036038101906103979190612798565b610e66565b6040516103a99190612bca565b60405180910390f35b6103ba610e7e565b6040516103c79190612bca565b60405180910390f35b6103ea60048036038101906103e591906127ea565b610e84565b6040516103f79190612bca565b60405180910390f35b61040861105c565b6040516104159190612bca565b60405180910390f35b610426611062565b6040516104339190612a8b565b60405180910390f35b61045660048036038101906104519190612798565b611088565b6040516104639190612bca565b60405180910390f35b61048660048036038101906104819190612862565b6110d1565b6040516104939190612b2f565b60405180910390f35b6104b660048036038101906104b191906127ea565b611149565b6040516104c39190612bca565b60405180910390f35b6104e660048036038101906104e191906128f5565b6111d0565b6040516104f39190612a8b565b60405180910390f35b610516600480360381019061051191906127ea565b61120f565b6040516105239190612bca565b60405180910390f35b6105346113ee565b6040516105419190612a8b565b60405180910390f35b610564600480360381019061055f91906128f5565b611412565b6040516105719190612bca565b60405180910390f35b610594600480360381019061058f9190612826565b611436565b6040516105a19190612bca565b60405180910390f35b60025481565b600160009054906101000a900473ffffffffffffffffffffffffffffffffffffffff1673ffffffffffffffffffffffffffffffffffffffff163373ffffffffffffffffffffffffffffffffffffffff161461060a57600080fd5b6000600160006101000a81548173ffffffffffffffffffffffffffffffffffffffff021916908373ffffffffffffffffffffffffffffffffffffffff160217905550565b60095481565b600a5481565b6000600c60008373ffffffffffffffffffffffffffffffffffffffff1673ffffffffffffffffffffffffffffffffffffffff16815260200190815260200160002060008473ffffffffffffffffffffffffffffffffffffffff1673ffffffffffffffffffffffffffffffffffffffff16815260200190815260200160002054905092915050565b6000600680549050905090565b60045481565b8173ffffffffffffffffffffffffffffffffffffffff166323b872dd3330846040518463ffffffff1660e01b815260040161073193929190612acf565b602060405180830381600087803b15801561074b57600080fd5b505af115801561075f573d6000803e3d6000fd5b505050506040513d601f19601f8201168201806040525081019061078391906128a3565b61078c57600080fd5b6107978233836114e1565b5050565b6000600d60008373ffffffffffffffffffffffffffffffffffffffff1673ffffffffffffffffffffffffffffffffffffffff168152602001908152602001600020549050919050565b600160009054906101000a900473ffffffffffffffffffffffffffffffffffffffff1673ffffffffffffffffffffffffffffffffffffffff163373ffffffffffffffffffffffffffffffffffffffff161461083e57600080fd5b826004819055508160028190555080600581905550505050565b60055481565b60008060009054906101000a900473ffffffffffffffffffffffffffffffffffffffff1673ffffffffffffffffffffffffffffffffffffffff166370a082316108a56117e2565b73ffffffffffffffffffffffffffffffffffffffff16639d2cc4366040518163ffffffff1660e01b815260040160206040518083038186803b1580156108ea57600080fd5b505afa1580156108fe573d6000803e3d6000fd5b505050506040513d601f19601f8201168201806040525081019061092291906127c1565b6040518263ffffffff1660e01b815260040161093e9190612a8b565b60206040518083038186803b15801561095657600080fd5b505afa15801561096a573d6000803e3d6000fd5b505050506040513d601f19601f8201168201806040525081019061098e919061291e565b905090565b6000806109a0833361120f565b90506000811115610dd557600f60003373ffffffffffffffffffffffffffffffffffffffff1673ffffffffffffffffffffffffffffffffffffffff16815260200190815260200160002060008473ffffffffffffffffffffffffffffffffffffffff1673ffffffffffffffffffffffffffffffffffffffff168152602001908152602001600020544211610a69576040517f08c379a0000000000000000000000000000000000000000000000000000000008152600401610a6090612baa565b60405180910390fd5b42600f60003373ffffffffffffffffffffffffffffffffffffffff1673ffffffffffffffffffffffffffffffffffffffff16815260200190815260200160002060008573ffffffffffffffffffffffffffffffffffffffff1673ffffffffffffffffffffffffffffffffffffffff1681526020019081526020016000208190555060008373ffffffffffffffffffffffffffffffffffffffff16637535d2466040518163ffffffff1660e01b815260040160206040518083038186803b158015610b3257600080fd5b505afa158015610b46573d6000803e3d6000fd5b505050506040513d601f19601f82011682018060405250810190610b6a91906127c1565b90508073ffffffffffffffffffffffffffffffffffffffff1663fff6cae96040518163ffffffff1660e01b8152600401600060405180830381600087803b158015610bb457600080fd5b505af1158015610bc8573d6000803e3d6000fd5b50505050610bd46117e2565b73ffffffffffffffffffffffffffffffffffffffff16639d2cc4366040518163ffffffff1660e01b815260040160206040518083038186803b158015610c1957600080fd5b505afa158015610c2d573d6000803e3d6000fd5b505050506040513d601f19601f82011682018060405250810190610c5191906127c1565b73ffffffffffffffffffffffffffffffffffffffff16637d458baa83836040518363ffffffff1660e01b8152600401610c8b929190612be5565b600060405180830381600087803b158015610ca557600080fd5b505af1158015610cb9573d6000803e3d6000fd5b5050505060008173ffffffffffffffffffffffffffffffffffffffff16635c53738686306040518363ffffffff1660e01b8152600401610cfa929190612aa6565b6040805180830381600087803b158015610d1357600080fd5b505af1158015610d27573d6000803e3d6000fd5b505050506040513d601f19601f82011682018060405250810190610d4b9190612947565b5090506000610d5b338784611888565b9050610d6684611e43565b3373ffffffffffffffffffffffffffffffffffffffff168673ffffffffffffffffffffffffffffffffffffffff167f154ce75570debb840e085287bc6b1fd9f48fa7b08a5f2dd564b6a7592147d4448684600354604051610dc993929190612c37565b60405180910390a35050505b6001915050919050565b6000600e60008373ffffffffffffffffffffffffffffffffffffffff1673ffffffffffffffffffffffffffffffffffffffff16815260200190815260200160002060008473ffffffffffffffffffffffffffffffffffffffff1673ffffffffffffffffffffffffffffffffffffffff16815260200190815260200160002054905092915050565b60116020528060005260406000206000915090505481565b60035481565b600080600c60008473ffffffffffffffffffffffffffffffffffffffff1673ffffffffffffffffffffffffffffffffffffffff16815260200190815260200160002060008573ffffffffffffffffffffffffffffffffffffffff1673ffffffffffffffffffffffffffffffffffffffff1681526020019081526020016000205490506000600454610f1361085e565b610f1d9190612d26565b9050600061271060055483610f329190612d57565b610f3c9190612d26565b9050610f466117e2565b73ffffffffffffffffffffffffffffffffffffffff16637b0e5c456040518163ffffffff1660e01b815260040160206040518083038186803b158015610f8b57600080fd5b505afa158015610f9f573d6000803e3d6000fd5b505050506040513d601f19601f82011682018060405250810190610fc391906127c1565b73ffffffffffffffffffffffffffffffffffffffff16631ba326c484600354846040518463ffffffff1660e01b815260040161100193929190612c37565b60206040518083038186803b15801561101957600080fd5b505afa15801561102d573d6000803e3d6000fd5b505050506040513d601f19601f82011682018060405250810190611051919061291e565b935050505092915050565b60085481565b600160009054906101000a900473ffffffffffffffffffffffffffffffffffffffff1681565b6000601060008373ffffffffffffffffffffffffffffffffffffffff1673ffffffffffffffffffffffffffffffffffffffff168152602001908152602001600020549050919050565b600080600090505b825181101561113f5761112b83828151811061111e577f4e487b7100000000000000000000000000000000000000000000000000000000600052603260045260246000fd5b6020026020010151610993565b50808061113790612e9a565b9150506110d9565b5060019050919050565b6000600f60008373ffffffffffffffffffffffffffffffffffffffff1673ffffffffffffffffffffffffffffffffffffffff16815260200190815260200160002060008473ffffffffffffffffffffffffffffffffffffffff1673ffffffffffffffffffffffffffffffffffffffff16815260200190815260200160002054905092915050565b600681815481106111e057600080fd5b906000526020600020016000915054906101000a900473ffffffffffffffffffffffffffffffffffffffff1681565b6000600f60008373ffffffffffffffffffffffffffffffffffffffff1673ffffffffffffffffffffffffffffffffffffffff16815260200190815260200160002060008473ffffffffffffffffffffffffffffffffffffffff1673ffffffffffffffffffffffffffffffffffffffff168152602001908152602001600020544211156113e8576000600f60008473ffffffffffffffffffffffffffffffffffffffff1673ffffffffffffffffffffffffffffffffffffffff16815260200190815260200160002060008573ffffffffffffffffffffffffffffffffffffffff1673ffffffffffffffffffffffffffffffffffffffff168152602001908152602001600020544261131f9190612db1565b9050600061132d8585610e84565b905060008054906101000a900473ffffffffffffffffffffffffffffffffffffffff1673ffffffffffffffffffffffffffffffffffffffff16636b92a3b66040518163ffffffff1660e01b815260040160206040518083038186803b15801561139557600080fd5b505afa1580156113a9573d6000803e3d6000fd5b505050506040513d601f19601f820116820180604052508101906113cd919061291e565b82826113d99190612d57565b6113e39190612d26565b925050505b92915050565b60008054906101000a900473ffffffffffffffffffffffffffffffffffffffff1681565b600b818154811061142257600080fd5b906000526020600020016000915090505481565b6000611443833384611eac565b90508273ffffffffffffffffffffffffffffffffffffffff1663a9059cbb33836040518363ffffffff1660e01b8152600401611480929190612b06565b602060405180830381600087803b15801561149a57600080fd5b505af11580156114ae573d6000803e3d6000fd5b505050506040513d601f19601f820116820180604052508101906114d291906128a3565b6114db57600080fd5b92915050565b601260008473ffffffffffffffffffffffffffffffffffffffff1673ffffffffffffffffffffffffffffffffffffffff16815260200190815260200160002060009054906101000a900460ff166115ee576001601260008573ffffffffffffffffffffffffffffffffffffffff1673ffffffffffffffffffffffffffffffffffffffff16815260200190815260200160002060006101000a81548160ff0219169083151502179055506006839080600181540180825580915050600190039060005260206000200160009091909190916101000a81548173ffffffffffffffffffffffffffffffffffffffff021916908373ffffffffffffffffffffffffffffffffffffffff1602179055505b600254426115fc9190612cd0565b600f60008473ffffffffffffffffffffffffffffffffffffffff1673ffffffffffffffffffffffffffffffffffffffff16815260200190815260200160002060008573ffffffffffffffffffffffffffffffffffffffff1673ffffffffffffffffffffffffffffffffffffffff168152602001908152602001600020819055506002544261168a9190612cd0565b601060008473ffffffffffffffffffffffffffffffffffffffff1673ffffffffffffffffffffffffffffffffffffffff1681526020019081526020016000208190555060006116da838584611888565b90506001601360008573ffffffffffffffffffffffffffffffffffffffff1673ffffffffffffffffffffffffffffffffffffffff16815260200190815260200160002060008673ffffffffffffffffffffffffffffffffffffffff1673ffffffffffffffffffffffffffffffffffffffff16815260200190815260200160002060006101000a81548160ff0219169083151502179055508273ffffffffffffffffffffffffffffffffffffffff168473ffffffffffffffffffffffffffffffffffffffff167f14cd3bc470910a26ce3f7f4a5649f17759dd61c2d987e6941dc6c34f8bd920a284846003546040516117d493929190612c37565b60405180910390a350505050565b60008060009054906101000a900473ffffffffffffffffffffffffffffffffffffffff1673ffffffffffffffffffffffffffffffffffffffff166398fabd3a6040518163ffffffff1660e01b815260040160206040518083038186803b15801561184b57600080fd5b505afa15801561185f573d6000803e3d6000fd5b505050506040513d601f19601f8201168201806040525081019061188391906128cc565b905090565b60006118926117e2565b73ffffffffffffffffffffffffffffffffffffffff1663b93ec54b6040518163ffffffff1660e01b815260040160206040518083038186803b1580156118d757600080fd5b505afa1580156118eb573d6000803e3d6000fd5b505050506040513d601f19601f8201168201806040525081019061190f91906127c1565b73ffffffffffffffffffffffffffffffffffffffff16635e0237ea846040518263ffffffff1660e01b81526004016119479190612a8b565b60206040518083038186803b15801561195f57600080fd5b505afa158015611973573d6000803e3d6000fd5b505050506040513d601f19601f8201168201806040525081019061199791906128a3565b6119d6576040517f08c379a00000000000000000000000000000000000000000000000000000000081526004016119cd90612b8a565b60405180910390fd5b6119de6117e2565b73ffffffffffffffffffffffffffffffffffffffff16639d2cc4366040518163ffffffff1660e01b815260040160206040518083038186803b158015611a2357600080fd5b505afa158015611a37573d6000803e3d6000fd5b505050506040513d601f19601f82011682018060405250810190611a5b91906127c1565b73ffffffffffffffffffffffffffffffffffffffff16632267716c6040518163ffffffff1660e01b8152600401602060405180830381600087803b158015611aa257600080fd5b505af1158015611ab6573d6000803e3d6000fd5b505050506040513d601f19601f82011682018060405250810190611ada91906128a3565b611b19576040517f08c379a0000000000000000000000000000000000000000000000000000000008152600401611b1090612b4a565b60405180910390fd5b81600e60008673ffffffffffffffffffffffffffffffffffffffff1673ffffffffffffffffffffffffffffffffffffffff16815260200190815260200160002060008573ffffffffffffffffffffffffffffffffffffffff1673ffffffffffffffffffffffffffffffffffffffff1681526020019081526020016000206000828254611ba59190612cd0565b92505081905550611bb46117e2565b73ffffffffffffffffffffffffffffffffffffffff16637b0e5c456040518163ffffffff1660e01b815260040160206040518083038186803b158015611bf957600080fd5b505afa158015611c0d573d6000803e3d6000fd5b505050506040513d601f19601f82011682018060405250810190611c3191906127c1565b73ffffffffffffffffffffffffffffffffffffffff1663c19387df8473ffffffffffffffffffffffffffffffffffffffff166382bfefc86040518163ffffffff1660e01b815260040160206040518083038186803b158015611c9257600080fd5b505afa158015611ca6573d6000803e3d6000fd5b505050506040513d601f19601f82011682018060405250810190611cca91906127c1565b846040518363ffffffff1660e01b8152600401611ce8929190612b06565b60206040518083038186803b158015611d0057600080fd5b505afa158015611d14573d6000803e3d6000fd5b505050506040513d601f19601f82011682018060405250810190611d38919061291e565b905080600c60008673ffffffffffffffffffffffffffffffffffffffff1673ffffffffffffffffffffffffffffffffffffffff16815260200190815260200160002060008573ffffffffffffffffffffffffffffffffffffffff1673ffffffffffffffffffffffffffffffffffffffff1681526020019081526020016000206000828254611dc69190612cd0565b9250508190555080600d60008673ffffffffffffffffffffffffffffffffffffffff1673ffffffffffffffffffffffffffffffffffffffff1681526020019081526020016000206000828254611e1c9190612cd0565b925050819055508060036000828254611e359190612cd0565b925050819055509392505050565b60006007541415611e5657426007819055505b62278d00600754611e679190612cd0565b4211611e865780600954611e7b9190612cd0565b600981905550611ea9565b42600781905550600954600a81905550611ea1600a54612453565b806009819055505b50565b6000601060008473ffffffffffffffffffffffffffffffffffffffff1673ffffffffffffffffffffffffffffffffffffffff168152602001908152602001600020544211611f2f576040517f08c379a0000000000000000000000000000000000000000000000000000000008152600401611f2690612b6a565b60405180910390fd5b611f376117e2565b73ffffffffffffffffffffffffffffffffffffffff16637b0e5c456040518163ffffffff1660e01b815260040160206040518083038186803b158015611f7c57600080fd5b505afa158015611f90573d6000803e3d6000fd5b505050506040513d601f19601f82011682018060405250810190611fb491906127c1565b73ffffffffffffffffffffffffffffffffffffffff1663714270ab83600e60008773ffffffffffffffffffffffffffffffffffffffff1673ffffffffffffffffffffffffffffffffffffffff16815260200190815260200160002060008873ffffffffffffffffffffffffffffffffffffffff1673ffffffffffffffffffffffffffffffffffffffff168152602001908152602001600020546040518363ffffffff1660e01b815260040161206a929190612c0e565b60206040518083038186803b15801561208257600080fd5b505afa158015612096573d6000803e3d6000fd5b505050506040513d601f19601f820116820180604052508101906120ba919061291e565b905080600e60008573ffffffffffffffffffffffffffffffffffffffff1673ffffffffffffffffffffffffffffffffffffffff16815260200190815260200160002060008673ffffffffffffffffffffffffffffffffffffffff1673ffffffffffffffffffffffffffffffffffffffff16815260200190815260200160002060008282546121489190612db1565b9250508190555060006121596117e2565b73ffffffffffffffffffffffffffffffffffffffff16637b0e5c456040518163ffffffff1660e01b815260040160206040518083038186803b15801561219e57600080fd5b505afa1580156121b2573d6000803e3d6000fd5b505050506040513d601f19601f820116820180604052508101906121d691906127c1565b73ffffffffffffffffffffffffffffffffffffffff1663714270ab84600c60008873ffffffffffffffffffffffffffffffffffffffff1673ffffffffffffffffffffffffffffffffffffffff16815260200190815260200160002060008973ffffffffffffffffffffffffffffffffffffffff1673ffffffffffffffffffffffffffffffffffffffff168152602001908152602001600020546040518363ffffffff1660e01b815260040161228c929190612c0e565b60206040518083038186803b1580156122a457600080fd5b505afa1580156122b8573d6000803e3d6000fd5b505050506040513d601f19601f820116820180604052508101906122dc919061291e565b905080600d60008673ffffffffffffffffffffffffffffffffffffffff1673ffffffffffffffffffffffffffffffffffffffff168152602001908152602001600020600082825461232d9190612db1565b9250508190555080600c60008673ffffffffffffffffffffffffffffffffffffffff1673ffffffffffffffffffffffffffffffffffffffff16815260200190815260200160002060008773ffffffffffffffffffffffffffffffffffffffff1673ffffffffffffffffffffffffffffffffffffffff16815260200190815260200160002060008282546123c09190612db1565b9250508190555080600360008282546123d99190612db1565b925050819055508373ffffffffffffffffffffffffffffffffffffffff168573ffffffffffffffffffffffffffffffffffffffff167f28b0a5e71db5b0ceb9e9edc3f89a0763709f773d717a2dcfd7851977f805ea7a848460035460405161244393929190612c37565b60405180910390a3509392505050565b6002600b805490501461248e57600b819080600181540180825580915050600190039060005260206000200160009091909190915055612498565b6124978161249b565b5b50565b6000600b8054806020026020016040519081016040528092919081815260200182805480156124e957602002820191906000526020600020905b8154815260200190600101908083116124d5575b5050505050905060008151905060006001826125059190612db1565b90505b60008111156125b6578260018261251f9190612db1565b81518110612556577f4e487b7100000000000000000000000000000000000000000000000000000000600052603260045260246000fd5b6020026020010151838281518110612597577f4e487b7100000000000000000000000000000000000000000000000000000000600052603260045260246000fd5b60200260200101818152505080806125ae90612e3f565b915050612508565b5082826000815181106125f2577f4e487b7100000000000000000000000000000000000000000000000000000000600052603260045260246000fd5b60200260200101818152505081600b908051906020019061261492919061261a565b50505050565b828054828255906000526020600020908101928215612656579160200282015b8281111561265557825182559160200191906001019061263a565b5b5090506126639190612667565b5090565b5b80821115612680576000816000905550600101612668565b5090565b600061269761269284612c93565b612c6e565b905080838252602082019050828560208602820111156126b657600080fd5b60005b858110156126e657816126cc88826126f0565b8452602084019350602083019250506001810190506126b9565b5050509392505050565b6000813590506126ff81613025565b92915050565b60008151905061271481613025565b92915050565b600082601f83011261272b57600080fd5b813561273b848260208601612684565b91505092915050565b6000815190506127538161303c565b92915050565b60008151905061276881613053565b92915050565b60008135905061277d8161306a565b92915050565b6000815190506127928161306a565b92915050565b6000602082840312156127aa57600080fd5b60006127b8848285016126f0565b91505092915050565b6000602082840312156127d357600080fd5b60006127e184828501612705565b91505092915050565b600080604083850312156127fd57600080fd5b600061280b858286016126f0565b925050602061281c858286016126f0565b9150509250929050565b6000806040838503121561283957600080fd5b6000612847858286016126f0565b92505060206128588582860161276e565b9150509250929050565b60006020828403121561287457600080fd5b600082013567ffffffffffffffff81111561288e57600080fd5b61289a8482850161271a565b91505092915050565b6000602082840312156128b557600080fd5b60006128c384828501612744565b91505092915050565b6000602082840312156128de57600080fd5b60006128ec84828501612759565b91505092915050565b60006020828403121561290757600080fd5b60006129158482850161276e565b91505092915050565b60006020828403121561293057600080fd5b600061293e84828501612783565b91505092915050565b6000806040838503121561295a57600080fd5b600061296885828601612783565b925050602061297985828601612783565b9150509250929050565b60008060006060848603121561299857600080fd5b60006129a68682870161276e565b93505060206129b78682870161276e565b92505060406129c88682870161276e565b9150509250925092565b6129db81612de5565b82525050565b6129ea81612df7565b82525050565b60006129fd600a83612cbf565b9150612a0882612f81565b602082019050919050565b6000612a20600783612cbf565b9150612a2b82612faa565b602082019050919050565b6000612a43600683612cbf565b9150612a4e82612fd3565b602082019050919050565b6000612a66600683612cbf565b9150612a7182612ffc565b602082019050919050565b612a8581612e35565b82525050565b6000602082019050612aa060008301846129d2565b92915050565b6000604082019050612abb60008301856129d2565b612ac860208301846129d2565b9392505050565b6000606082019050612ae460008301866129d2565b612af160208301856129d2565b612afe6040830184612a7c565b949350505050565b6000604082019050612b1b60008301856129d2565b612b286020830184612a7c565b9392505050565b6000602082019050612b4460008301846129e1565b92915050565b60006020820190508181036000830152612b63816129f0565b9050919050565b60006020820190508181036000830152612b8381612a13565b9050919050565b60006020820190508181036000830152612ba381612a36565b9050919050565b60006020820190508181036000830152612bc381612a59565b9050919050565b6000602082019050612bdf6000830184612a7c565b92915050565b6000604082019050612bfa6000830185612a7c565b612c0760208301846129d2565b9392505050565b6000604082019050612c236000830185612a7c565b612c306020830184612a7c565b9392505050565b6000606082019050612c4c6000830186612a7c565b612c596020830185612a7c565b612c666040830184612a7c565b949350505050565b6000612c78612c89565b9050612c848282612e69565b919050565b6000604051905090565b600067ffffffffffffffff821115612cae57612cad612f41565b5b602082029050602081019050919050565b600082825260208201905092915050565b6000612cdb82612e35565b9150612ce683612e35565b9250827fffffffffffffffffffffffffffffffffffffffffffffffffffffffffffffffff03821115612d1b57612d1a612ee3565b5b828201905092915050565b6000612d3182612e35565b9150612d3c83612e35565b925082612d4c57612d4b612f12565b5b828204905092915050565b6000612d6282612e35565b9150612d6d83612e35565b9250817fffffffffffffffffffffffffffffffffffffffffffffffffffffffffffffffff0483118215151615612da657612da5612ee3565b5b828202905092915050565b6000612dbc82612e35565b9150612dc783612e35565b925082821015612dda57612dd9612ee3565b5b828203905092915050565b6000612df082612e15565b9050919050565b60008115159050919050565b6000612e0e82612de5565b9050919050565b600073ffffffffffffffffffffffffffffffffffffffff82169050919050565b6000819050919050565b6000612e4a82612e35565b91506000821415612e5e57612e5d612ee3565b5b600182039050919050565b612e7282612f70565b810181811067ffffffffffffffff82111715612e9157612e90612f41565b5b80604052505050565b6000612ea582612e35565b91507fffffffffffffffffffffffffffffffffffffffffffffffffffffffffffffffff821415612ed857612ed7612ee3565b5b600182019050919050565b7f4e487b7100000000000000000000000000000000000000000000000000000000600052601160045260246000fd5b7f4e487b7100000000000000000000000000000000000000000000000000000000600052601260045260246000fd5b7f4e487b7100000000000000000000000000000000000000000000000000000000600052604160045260246000fd5b6000601f19601f8301169050919050565b7f21656d697373696f6e7300000000000000000000000000000000000000000000600082015250565b7f6c6f636b6f757400000000000000000000000000000000000000000000000000600082015250565b7f2173796e74680000000000000000000000000000000000000000000000000000600082015250565b7f4c4f434b45440000000000000000000000000000000000000000000000000000600082015250565b61302e81612de5565b811461303957600080fd5b50565b61304581612df7565b811461305057600080fd5b50565b61305c81612e03565b811461306757600080fd5b50565b61307381612e35565b811461307e57600080fd5b5056fea264697066735822122029b6f884dfb07a5e0cd91ccfa280618747f8189d6e835864dd73adf9a5f174bf64736f6c63430008030033",
  "linkReferences": {},
  "deployedLinkReferences": {}
}