{
  "_format": "hh-sol-artifact-1",
  "contractName": "SynthVault",
  "sourceName": "contracts/synthVault.sol",
  "abi": [
    {
      "inputs": [
        {
          "internalType": "address",
          "name": "_base",
          "type": "address"
        }
      ],
      "stateMutability": "nonpayable",
      "type": "constructor"
    },
    {
      "anonymous": false,
      "inputs": [
        {
          "indexed": true,
          "internalType": "address",
          "name": "synth",
          "type": "address"
        },
        {
          "indexed": true,
          "internalType": "address",
          "name": "member",
          "type": "address"
        },
        {
          "indexed": false,
          "internalType": "uint256",
          "name": "newDeposit",
          "type": "uint256"
        },
        {
          "indexed": false,
          "internalType": "uint256",
          "name": "weight",
          "type": "uint256"
        },
        {
          "indexed": false,
          "internalType": "uint256",
          "name": "totalWeight",
          "type": "uint256"
        }
      ],
      "name": "MemberDeposits",
      "type": "event"
    },
    {
      "anonymous": false,
      "inputs": [
        {
          "indexed": true,
          "internalType": "address",
          "name": "synth",
          "type": "address"
        },
        {
          "indexed": true,
          "internalType": "address",
          "name": "member",
          "type": "address"
        },
        {
          "indexed": false,
          "internalType": "uint256",
          "name": "amount",
          "type": "uint256"
        },
        {
          "indexed": false,
          "internalType": "uint256",
          "name": "weight",
          "type": "uint256"
        },
        {
          "indexed": false,
          "internalType": "uint256",
          "name": "totalWeight",
          "type": "uint256"
        }
      ],
      "name": "MemberHarvests",
      "type": "event"
    },
    {
      "anonymous": false,
      "inputs": [
        {
          "indexed": true,
          "internalType": "address",
          "name": "synth",
          "type": "address"
        },
        {
          "indexed": true,
          "internalType": "address",
          "name": "member",
          "type": "address"
        },
        {
          "indexed": false,
          "internalType": "uint256",
          "name": "amount",
          "type": "uint256"
        },
        {
          "indexed": false,
          "internalType": "uint256",
          "name": "weight",
          "type": "uint256"
        },
        {
          "indexed": false,
          "internalType": "uint256",
          "name": "totalWeight",
          "type": "uint256"
        }
      ],
      "name": "MemberWithdraws",
      "type": "event"
    },
    {
      "inputs": [],
      "name": "BASE",
      "outputs": [
        {
          "internalType": "address",
          "name": "",
          "type": "address"
        }
      ],
      "stateMutability": "view",
      "type": "function"
    },
    {
      "inputs": [],
      "name": "DEPLOYER",
      "outputs": [
        {
          "internalType": "address",
          "name": "",
          "type": "address"
        }
      ],
      "stateMutability": "view",
      "type": "function"
    },
    {
      "inputs": [],
      "name": "blockDelay",
      "outputs": [
        {
          "internalType": "uint256",
          "name": "",
          "type": "uint256"
        }
      ],
      "stateMutability": "view",
      "type": "function"
    },
    {
      "inputs": [
        {
          "internalType": "address",
          "name": "synth",
          "type": "address"
        },
        {
          "internalType": "address",
          "name": "member",
          "type": "address"
        }
      ],
      "name": "calcCurrentReward",
      "outputs": [
        {
          "internalType": "uint256",
          "name": "reward",
          "type": "uint256"
        }
      ],
      "stateMutability": "view",
      "type": "function"
    },
    {
      "inputs": [
        {
          "internalType": "address",
          "name": "synth",
          "type": "address"
        },
        {
          "internalType": "address",
          "name": "member",
          "type": "address"
        }
      ],
      "name": "calcReward",
      "outputs": [
        {
          "internalType": "uint256",
          "name": "",
          "type": "uint256"
        }
      ],
      "stateMutability": "view",
      "type": "function"
    },
    {
      "inputs": [
        {
          "internalType": "address",
          "name": "synth",
          "type": "address"
        },
        {
          "internalType": "uint256",
          "name": "amount",
          "type": "uint256"
        }
      ],
      "name": "deposit",
      "outputs": [],
      "stateMutability": "nonpayable",
      "type": "function"
    },
    {
      "inputs": [
        {
          "internalType": "address",
          "name": "synth",
          "type": "address"
        },
        {
          "internalType": "address",
          "name": "member",
          "type": "address"
        },
        {
          "internalType": "uint256",
          "name": "amount",
          "type": "uint256"
        }
      ],
      "name": "depositForMember",
      "outputs": [],
      "stateMutability": "nonpayable",
      "type": "function"
    },
    {
      "inputs": [],
      "name": "erasToEarn",
      "outputs": [
        {
          "internalType": "uint256",
          "name": "",
          "type": "uint256"
        }
      ],
      "stateMutability": "view",
      "type": "function"
    },
    {
      "inputs": [],
      "name": "genesis",
      "outputs": [
        {
          "internalType": "uint256",
          "name": "",
          "type": "uint256"
        }
      ],
      "stateMutability": "view",
      "type": "function"
    },
    {
      "inputs": [
        {
          "internalType": "address",
          "name": "synth",
          "type": "address"
        },
        {
          "internalType": "address",
          "name": "member",
          "type": "address"
        }
      ],
      "name": "getMemberDeposit",
      "outputs": [
        {
          "internalType": "uint256",
          "name": "",
          "type": "uint256"
        }
      ],
      "stateMutability": "view",
      "type": "function"
    },
    {
      "inputs": [
        {
          "internalType": "address",
          "name": "synth",
          "type": "address"
        },
        {
          "internalType": "address",
          "name": "member",
          "type": "address"
        }
      ],
      "name": "getMemberLastSynthTime",
      "outputs": [
        {
          "internalType": "uint256",
          "name": "",
          "type": "uint256"
        }
      ],
      "stateMutability": "view",
      "type": "function"
    },
    {
      "inputs": [
        {
          "internalType": "address",
          "name": "member",
          "type": "address"
        }
      ],
      "name": "getMemberLastTime",
      "outputs": [
        {
          "internalType": "uint256",
          "name": "",
          "type": "uint256"
        }
      ],
      "stateMutability": "view",
      "type": "function"
    },
    {
      "inputs": [
        {
          "internalType": "address",
          "name": "synth",
          "type": "address"
        },
        {
          "internalType": "address",
          "name": "member",
          "type": "address"
        }
      ],
      "name": "getMemberSynthWeight",
      "outputs": [
        {
          "internalType": "uint256",
          "name": "",
          "type": "uint256"
        }
      ],
      "stateMutability": "view",
      "type": "function"
    },
    {
      "inputs": [
        {
          "internalType": "address",
          "name": "member",
          "type": "address"
        }
      ],
      "name": "getMemberWeight",
      "outputs": [
        {
          "internalType": "uint256",
          "name": "",
          "type": "uint256"
        }
      ],
      "stateMutability": "view",
      "type": "function"
    },
    {
      "inputs": [],
      "name": "getStakeSynthLength",
      "outputs": [
        {
          "internalType": "uint256",
          "name": "",
          "type": "uint256"
        }
      ],
      "stateMutability": "view",
      "type": "function"
    },
    {
      "inputs": [],
      "name": "harvestAll",
      "outputs": [
        {
          "internalType": "bool",
          "name": "",
          "type": "bool"
        }
      ],
      "stateMutability": "nonpayable",
      "type": "function"
    },
    {
      "inputs": [
        {
          "internalType": "address",
          "name": "synth",
          "type": "address"
        }
      ],
      "name": "harvestSingle",
      "outputs": [
        {
          "internalType": "bool",
          "name": "",
          "type": "bool"
        }
      ],
      "stateMutability": "nonpayable",
      "type": "function"
    },
    {
      "inputs": [
        {
          "internalType": "address",
          "name": "",
          "type": "address"
        }
      ],
      "name": "lastBlock",
      "outputs": [
        {
          "internalType": "uint256",
          "name": "",
          "type": "uint256"
        }
      ],
      "stateMutability": "view",
      "type": "function"
    },
    {
      "inputs": [],
      "name": "map30DVaultRevenue",
      "outputs": [
        {
          "internalType": "uint256",
          "name": "",
          "type": "uint256"
        }
      ],
      "stateMutability": "view",
      "type": "function"
    },
    {
      "inputs": [],
      "name": "mapPast30DVaultRevenue",
      "outputs": [
        {
          "internalType": "uint256",
          "name": "",
          "type": "uint256"
        }
      ],
      "stateMutability": "view",
      "type": "function"
    },
    {
      "inputs": [],
      "name": "minimumDepositTime",
      "outputs": [
        {
          "internalType": "uint256",
          "name": "",
          "type": "uint256"
        }
      ],
      "stateMutability": "view",
      "type": "function"
    },
    {
      "inputs": [],
      "name": "reserveBASE",
      "outputs": [
        {
          "internalType": "uint256",
          "name": "",
          "type": "uint256"
        }
      ],
      "stateMutability": "view",
      "type": "function"
    },
    {
      "inputs": [
        {
          "internalType": "uint256",
          "name": "",
          "type": "uint256"
        }
      ],
      "name": "revenueArray",
      "outputs": [
        {
          "internalType": "uint256",
          "name": "",
          "type": "uint256"
        }
      ],
      "stateMutability": "view",
      "type": "function"
    },
    {
      "inputs": [
        {
          "internalType": "uint256",
          "name": "one",
          "type": "uint256"
        },
        {
          "internalType": "uint256",
          "name": "two",
          "type": "uint256"
        },
        {
          "internalType": "uint256",
          "name": "three",
          "type": "uint256"
        },
        {
          "internalType": "uint256",
          "name": "four",
          "type": "uint256"
        }
      ],
      "name": "setParams",
      "outputs": [],
      "stateMutability": "nonpayable",
      "type": "function"
    },
    {
      "inputs": [
        {
          "internalType": "uint256",
          "name": "",
          "type": "uint256"
        }
      ],
      "name": "stakedSynthAssets",
      "outputs": [
        {
          "internalType": "address",
          "name": "",
          "type": "address"
        }
      ],
      "stateMutability": "view",
      "type": "function"
    },
    {
      "inputs": [],
      "name": "totalWeight",
      "outputs": [
        {
          "internalType": "uint256",
          "name": "",
          "type": "uint256"
        }
      ],
      "stateMutability": "view",
      "type": "function"
    },
    {
      "inputs": [],
      "name": "vaultClaim",
      "outputs": [
        {
          "internalType": "uint256",
          "name": "",
          "type": "uint256"
        }
      ],
      "stateMutability": "view",
      "type": "function"
    },
    {
      "inputs": [
        {
          "internalType": "address",
          "name": "synth",
          "type": "address"
        },
        {
          "internalType": "uint256",
          "name": "basisPoints",
          "type": "uint256"
        }
      ],
      "name": "withdraw",
      "outputs": [
        {
          "internalType": "uint256",
          "name": "redeemedAmount",
          "type": "uint256"
        }
      ],
      "stateMutability": "nonpayable",
      "type": "function"
    }
  ],
  "bytecode": "0x60806040523480156200001157600080fd5b50604051620035ed380380620035ed833981810160405281019062000037919062000107565b806000806101000a81548173ffffffffffffffffffffffffffffffffffffffff021916908373ffffffffffffffffffffffffffffffffffffffff16021790555033600160006101000a81548173ffffffffffffffffffffffffffffffffffffffff021916908373ffffffffffffffffffffffffffffffffffffffff160217905550601e600481905550610e1060028190555060006005819055506103e86006819055504260098190555060006008819055505062000181565b600081519050620001018162000167565b92915050565b6000602082840312156200011a57600080fd5b60006200012a84828501620000f0565b91505092915050565b6000620001408262000147565b9050919050565b600073ffffffffffffffffffffffffffffffffffffffff82169050919050565b620001728162000133565b81146200017e57600080fd5b50565b61345c80620001916000396000f3fe608060405234801561001057600080fd5b50600436106101c45760003560e01c8063952ca92c116100f9578063ca8531a011610097578063e9f27c3a11610071578063e9f27c3a14610535578063ec342ad014610565578063f0337cdc14610583578063f3fef3a3146105b3576101c4565b8063ca8531a0146104b7578063d90c7dfb146104e7578063d98f608814610517576101c4565b8063a7f0b3de116100d3578063a7f0b3de1461042f578063bf58d0ef1461044d578063c1b8411a14610469578063c420bb8c14610487576101c4565b8063952ca92c146103b157806396c82e57146103e1578063a6dde131146103ff576101c4565b80635364df49116101665780637a94c2a5116101405780637a94c2a5146103175780637ece45e8146103475780638dfa9bcc146103635780638ed955b914610393576101c4565b80635364df49146102ab5780636d85a7ea146102db5780636fc2ee5c146102f9576101c4565b80631c21088c116101a25780631c21088c146102235780631e89f00a146102535780632c07eebf1461027157806347e7ef241461028f576101c4565b8063036e21e5146101c95780630b991d4d146101e75780630dd3af7514610205575b600080fd5b6101d16105e3565b6040516101de919061305a565b60405180910390f35b6101ef6105e9565b6040516101fc919061305a565b60405180910390f35b61020d6105ef565b60405161021a919061305a565b60405180910390f35b61023d60048036038101906102389190612c9b565b6105f5565b60405161024a919061305a565b60405180910390f35b61025b61067c565b604051610268919061305a565b60405180910390f35b610279610689565b604051610286919061305a565b60405180910390f35b6102a960048036038101906102a49190612d26565b61068f565b005b6102c560048036038101906102c09190612c49565b61069e565b6040516102d2919061305a565b60405180910390f35b6102e36106e7565b6040516102f0919061305a565b60405180910390f35b6103016106ed565b60405161030e919061305a565b60405180910390f35b610331600480360381019061032c9190612c49565b610822565b60405161033e9190612fdf565b60405180910390f35b610361600480360381019061035c9190612e42565b611262565b005b61037d60048036038101906103789190612c9b565b611398565b60405161038a919061305a565b60405180910390f35b61039b61141f565b6040516103a89190612fdf565b60405180910390f35b6103cb60048036038101906103c69190612c49565b61153a565b6040516103d8919061305a565b60405180910390f35b6103e9611552565b6040516103f6919061305a565b60405180910390f35b61041960048036038101906104149190612c9b565b611558565b604051610426919061305a565b60405180910390f35b610437611730565b604051610444919061305a565b60405180910390f35b61046760048036038101906104629190612cd7565b611736565b005b61047161192a565b60405161047e9190612f3b565b60405180910390f35b6104a1600480360381019061049c9190612c49565b611950565b6040516104ae919061305a565b60405180910390f35b6104d160048036038101906104cc9190612c9b565b611999565b6040516104de919061305a565b60405180910390f35b61050160048036038101906104fc9190612db4565b611a20565b60405161050e9190612f3b565b60405180910390f35b61051f611a5f565b60405161052c919061305a565b60405180910390f35b61054f600480360381019061054a9190612c9b565b611a65565b60405161055c919061305a565b60405180910390f35b61056d611c7d565b60405161057a9190612f3b565b60405180910390f35b61059d60048036038101906105989190612db4565b611ca1565b6040516105aa919061305a565b60405180910390f35b6105cd60048036038101906105c89190612d26565b611cc5565b6040516105da919061305a565b60405180910390f35b60025481565b600a5481565b600b5481565b6000600d60008373ffffffffffffffffffffffffffffffffffffffff1673ffffffffffffffffffffffffffffffffffffffff16815260200190815260200160002060008473ffffffffffffffffffffffffffffffffffffffff1673ffffffffffffffffffffffffffffffffffffffff16815260200190815260200160002054905092915050565b6000600780549050905090565b60045481565b61069a823383611736565b5050565b6000600e60008373ffffffffffffffffffffffffffffffffffffffff1673ffffffffffffffffffffffffffffffffffffffff168152602001908152602001600020549050919050565b60065481565b60008060009054906101000a900473ffffffffffffffffffffffffffffffffffffffff1673ffffffffffffffffffffffffffffffffffffffff166370a08231610734611d70565b73ffffffffffffffffffffffffffffffffffffffff16639d2cc4366040518163ffffffff1660e01b815260040160206040518083038186803b15801561077957600080fd5b505afa15801561078d573d6000803e3d6000fd5b505050506040513d601f19601f820116820180604052508101906107b19190612c72565b6040518263ffffffff1660e01b81526004016107cd9190612f3b565b60206040518083038186803b1580156107e557600080fd5b505afa1580156107f9573d6000803e3d6000fd5b505050506040513d601f19601f8201168201806040525081019061081d9190612ddd565b905090565b600061082c611d70565b73ffffffffffffffffffffffffffffffffffffffff1663b93ec54b6040518163ffffffff1660e01b815260040160206040518083038186803b15801561087157600080fd5b505afa158015610885573d6000803e3d6000fd5b505050506040513d601f19601f820116820180604052508101906108a99190612c72565b73ffffffffffffffffffffffffffffffffffffffff16635e0237ea836040518263ffffffff1660e01b81526004016108e19190612f3b565b60206040518083038186803b1580156108f957600080fd5b505afa15801561090d573d6000803e3d6000fd5b505050506040513d601f19601f820116820180604052508101906109319190612d62565b610970576040517f08c379a00000000000000000000000000000000000000000000000000000000081526004016109679061303a565b60405180910390fd5b610978611d70565b73ffffffffffffffffffffffffffffffffffffffff16639d2cc4366040518163ffffffff1660e01b815260040160206040518083038186803b1580156109bd57600080fd5b505afa1580156109d1573d6000803e3d6000fd5b505050506040513d601f19601f820116820180604052508101906109f59190612c72565b73ffffffffffffffffffffffffffffffffffffffff16632267716c6040518163ffffffff1660e01b8152600401602060405180830381600087803b158015610a3c57600080fd5b505af1158015610a50573d6000803e3d6000fd5b505050506040513d601f19601f82011682018060405250810190610a749190612d62565b610ab3576040517f08c379a0000000000000000000000000000000000000000000000000000000008152600401610aaa90612ffa565b60405180910390fd5b600080610ac08433611a65565b905042601060003373ffffffffffffffffffffffffffffffffffffffff1673ffffffffffffffffffffffffffffffffffffffff16815260200190815260200160002060008673ffffffffffffffffffffffffffffffffffffffff1673ffffffffffffffffffffffffffffffffffffffff168152602001908152602001600020819055506000610b4d611d70565b73ffffffffffffffffffffffffffffffffffffffff1663b99b0a0c6040518163ffffffff1660e01b815260040160206040518083038186803b158015610b9257600080fd5b505afa158015610ba6573d6000803e3d6000fd5b505050506040513d601f19601f82011682018060405250810190610bca9190612c72565b73ffffffffffffffffffffffffffffffffffffffff1663bbe4f6db8673ffffffffffffffffffffffffffffffffffffffff1663484920316040518163ffffffff1660e01b815260040160206040518083038186803b158015610c2b57600080fd5b505afa158015610c3f573d6000803e3d6000fd5b505050506040513d601f19601f82011682018060405250810190610c639190612c72565b6040518263ffffffff1660e01b8152600401610c7f9190612f3b565b60206040518083038186803b158015610c9757600080fd5b505afa158015610cab573d6000803e3d6000fd5b505050506040513d601f19601f82011682018060405250810190610ccf9190612c72565b9050610cd9611d70565b73ffffffffffffffffffffffffffffffffffffffff16639d2cc4366040518163ffffffff1660e01b815260040160206040518083038186803b158015610d1e57600080fd5b505afa158015610d32573d6000803e3d6000fd5b505050506040513d601f19601f82011682018060405250810190610d569190612c72565b73ffffffffffffffffffffffffffffffffffffffff16637d458baa83836040518363ffffffff1660e01b8152600401610d90929190613075565b600060405180830381600087803b158015610daa57600080fd5b505af1158015610dbe573d6000803e3d6000fd5b5050505060008173ffffffffffffffffffffffffffffffffffffffff16635c53738687306040518363ffffffff1660e01b8152600401610dff929190612f56565b6040805180830381600087803b158015610e1857600080fd5b505af1158015610e2c573d6000803e3d6000fd5b505050506040513d601f19601f82011682018060405250810190610e509190612e06565b509050610e5b611d70565b73ffffffffffffffffffffffffffffffffffffffff16637b0e5c456040518163ffffffff1660e01b815260040160206040518083038186803b158015610ea057600080fd5b505afa158015610eb4573d6000803e3d6000fd5b505050506040513d601f19601f82011682018060405250810190610ed89190612c72565b73ffffffffffffffffffffffffffffffffffffffff1663c19387df8773ffffffffffffffffffffffffffffffffffffffff1663484920316040518163ffffffff1660e01b815260040160206040518083038186803b158015610f3957600080fd5b505afa158015610f4d573d6000803e3d6000fd5b505050506040513d601f19601f82011682018060405250810190610f719190612c72565b836040518363ffffffff1660e01b8152600401610f8f929190612fb6565b60206040518083038186803b158015610fa757600080fd5b505afa158015610fbb573d6000803e3d6000fd5b505050506040513d601f19601f82011682018060405250810190610fdf9190612ddd565b935080600f60003373ffffffffffffffffffffffffffffffffffffffff1673ffffffffffffffffffffffffffffffffffffffff16815260200190815260200160002060008873ffffffffffffffffffffffffffffffffffffffff1673ffffffffffffffffffffffffffffffffffffffff168152602001908152602001600020600082825461106d919061310f565b9250508190555083600d60003373ffffffffffffffffffffffffffffffffffffffff1673ffffffffffffffffffffffffffffffffffffffff16815260200190815260200160002060008873ffffffffffffffffffffffffffffffffffffffff1673ffffffffffffffffffffffffffffffffffffffff1681526020019081526020016000206000828254611100919061310f565b9250508190555083600e60003373ffffffffffffffffffffffffffffffffffffffff1673ffffffffffffffffffffffffffffffffffffffff1681526020019081526020016000206000828254611156919061310f565b92505081905550836003600082825461116f919061310f565b9250508190555061117f83611e16565b8573ffffffffffffffffffffffffffffffffffffffff1663d3e48814836040518263ffffffff1660e01b81526004016111b89190612f3b565b600060405180830381600087803b1580156111d257600080fd5b505af11580156111e6573d6000803e3d6000fd5b505050503373ffffffffffffffffffffffffffffffffffffffff168673ffffffffffffffffffffffffffffffffffffffff167f154ce75570debb840e085287bc6b1fd9f48fa7b08a5f2dd564b6a7592147d444858760035460405161124d939291906130c7565b60405180910390a36001945050505050919050565b61126a611d70565b73ffffffffffffffffffffffffffffffffffffffff166398fabd3a6040518163ffffffff1660e01b815260040160206040518083038186803b1580156112af57600080fd5b505afa1580156112c3573d6000803e3d6000fd5b505050506040513d601f19601f820116820180604052508101906112e79190612c72565b73ffffffffffffffffffffffffffffffffffffffff163373ffffffffffffffffffffffffffffffffffffffff16148061136d5750600160009054906101000a900473ffffffffffffffffffffffffffffffffffffffff1673ffffffffffffffffffffffffffffffffffffffff163373ffffffffffffffffffffffffffffffffffffffff16145b61137657600080fd5b8360048190555082600281905550816005819055508060068190555050505050565b6000600f60008373ffffffffffffffffffffffffffffffffffffffff1673ffffffffffffffffffffffffffffffffffffffff16815260200190815260200160002060008473ffffffffffffffffffffffffffffffffffffffff1673ffffffffffffffffffffffffffffffffffffffff16815260200190815260200160002054905092915050565b600080600090505b6007805490508110156115325760006114a460078381548110611473577f4e487b7100000000000000000000000000000000000000000000000000000000600052603260045260246000fd5b9060005260206000200160009054906101000a900473ffffffffffffffffffffffffffffffffffffffff1633611a65565b9050600081111561151e5761151c600783815481106114ec577f4e487b7100000000000000000000000000000000000000000000000000000000600052603260045260246000fd5b9060005260206000200160009054906101000a900473ffffffffffffffffffffffffffffffffffffffff16610822565b505b50808061152a906132a8565b915050611427565b506001905090565b60126020528060005260406000206000915090505481565b60035481565b600080600d60008473ffffffffffffffffffffffffffffffffffffffff1673ffffffffffffffffffffffffffffffffffffffff16815260200190815260200160002060008573ffffffffffffffffffffffffffffffffffffffff1673ffffffffffffffffffffffffffffffffffffffff16815260200190815260200160002054905060006004546115e76106ed565b6115f19190613165565b90506000612710600654836116069190613196565b6116109190613165565b905061161a611d70565b73ffffffffffffffffffffffffffffffffffffffff16637b0e5c456040518163ffffffff1660e01b815260040160206040518083038186803b15801561165f57600080fd5b505afa158015611673573d6000803e3d6000fd5b505050506040513d601f19601f820116820180604052508101906116979190612c72565b73ffffffffffffffffffffffffffffffffffffffff16631ba326c484600354846040518463ffffffff1660e01b81526004016116d5939291906130c7565b60206040518083038186803b1580156116ed57600080fd5b505afa158015611701573d6000803e3d6000fd5b505050506040513d601f19601f820116820180604052508101906117259190612ddd565b935050505092915050565b60095481565b61173e611d70565b73ffffffffffffffffffffffffffffffffffffffff1663b93ec54b6040518163ffffffff1660e01b815260040160206040518083038186803b15801561178357600080fd5b505afa158015611797573d6000803e3d6000fd5b505050506040513d601f19601f820116820180604052508101906117bb9190612c72565b73ffffffffffffffffffffffffffffffffffffffff16635e0237ea846040518263ffffffff1660e01b81526004016117f39190612f3b565b60206040518083038186803b15801561180b57600080fd5b505afa15801561181f573d6000803e3d6000fd5b505050506040513d601f19601f820116820180604052508101906118439190612d62565b611882576040517f08c379a00000000000000000000000000000000000000000000000000000000081526004016118799061303a565b60405180910390fd5b8273ffffffffffffffffffffffffffffffffffffffff166323b872dd3330846040518463ffffffff1660e01b81526004016118bf93929190612f7f565b602060405180830381600087803b1580156118d957600080fd5b505af11580156118ed573d6000803e3d6000fd5b505050506040513d601f19601f820116820180604052508101906119119190612d62565b61191a57600080fd5b611925838383611e94565b505050565b600160009054906101000a900473ffffffffffffffffffffffffffffffffffffffff1681565b6000601160008373ffffffffffffffffffffffffffffffffffffffff1673ffffffffffffffffffffffffffffffffffffffff168152602001908152602001600020549050919050565b6000601060008373ffffffffffffffffffffffffffffffffffffffff1673ffffffffffffffffffffffffffffffffffffffff16815260200190815260200160002060008473ffffffffffffffffffffffffffffffffffffffff1673ffffffffffffffffffffffffffffffffffffffff16815260200190815260200160002054905092915050565b60078181548110611a3057600080fd5b906000526020600020016000915054906101000a900473ffffffffffffffffffffffffffffffffffffffff1681565b60055481565b6000601060008373ffffffffffffffffffffffffffffffffffffffff1673ffffffffffffffffffffffffffffffffffffffff16815260200190815260200160002060008473ffffffffffffffffffffffffffffffffffffffff1673ffffffffffffffffffffffffffffffffffffffff168152602001908152602001600020544211611b25576040517f08c379a0000000000000000000000000000000000000000000000000000000008152600401611b1c9061301a565b60405180910390fd5b6000601060008473ffffffffffffffffffffffffffffffffffffffff1673ffffffffffffffffffffffffffffffffffffffff16815260200190815260200160002060008573ffffffffffffffffffffffffffffffffffffffff1673ffffffffffffffffffffffffffffffffffffffff1681526020019081526020016000205442611baf91906131f0565b90506000611bbd8585611558565b905060008054906101000a900473ffffffffffffffffffffffffffffffffffffffff1673ffffffffffffffffffffffffffffffffffffffff16636b92a3b66040518163ffffffff1660e01b815260040160206040518083038186803b158015611c2557600080fd5b505afa158015611c39573d6000803e3d6000fd5b505050506040513d601f19601f82011682018060405250810190611c5d9190612ddd565b8282611c699190613196565b611c739190613165565b9250505092915050565b60008054906101000a900473ffffffffffffffffffffffffffffffffffffffff1681565b600c8181548110611cb157600080fd5b906000526020600020016000915090505481565b6000611cd28333846124ab565b90508273ffffffffffffffffffffffffffffffffffffffff1663a9059cbb33836040518363ffffffff1660e01b8152600401611d0f929190612fb6565b602060405180830381600087803b158015611d2957600080fd5b505af1158015611d3d573d6000803e3d6000fd5b505050506040513d601f19601f82011682018060405250810190611d619190612d62565b611d6a57600080fd5b92915050565b60008060009054906101000a900473ffffffffffffffffffffffffffffffffffffffff1673ffffffffffffffffffffffffffffffffffffffff166398fabd3a6040518163ffffffff1660e01b815260040160206040518083038186803b158015611dd957600080fd5b505afa158015611ded573d6000803e3d6000fd5b505050506040513d601f19601f82011682018060405250810190611e119190612d8b565b905090565b60006008541415611e2957426008819055505b62278d00600854611e3a919061310f565b4211611e595780600a54611e4e919061310f565b600a81905550611e91565b42600881905550600a54600b81905550611e74600b54612a63565b6000600a8190555080600a54611e8a919061310f565b600a819055505b50565b601360008473ffffffffffffffffffffffffffffffffffffffff1673ffffffffffffffffffffffffffffffffffffffff16815260200190815260200160002060009054906101000a900460ff16611fa1576001601360008573ffffffffffffffffffffffffffffffffffffffff1673ffffffffffffffffffffffffffffffffffffffff16815260200190815260200160002060006101000a81548160ff0219169083151502179055506007839080600181540180825580915050600190039060005260206000200160009091909190916101000a81548173ffffffffffffffffffffffffffffffffffffffff021916908373ffffffffffffffffffffffffffffffffffffffff1602179055505b60025442611faf919061310f565b601060008473ffffffffffffffffffffffffffffffffffffffff1673ffffffffffffffffffffffffffffffffffffffff16815260200190815260200160002060008573ffffffffffffffffffffffffffffffffffffffff1673ffffffffffffffffffffffffffffffffffffffff168152602001908152602001600020819055506002544261203d919061310f565b601160008473ffffffffffffffffffffffffffffffffffffffff1673ffffffffffffffffffffffffffffffffffffffff1681526020019081526020016000208190555080600f60008473ffffffffffffffffffffffffffffffffffffffff1673ffffffffffffffffffffffffffffffffffffffff16815260200190815260200160002060008573ffffffffffffffffffffffffffffffffffffffff1673ffffffffffffffffffffffffffffffffffffffff168152602001908152602001600020600082825461210c919061310f565b92505081905550600061211d611d70565b73ffffffffffffffffffffffffffffffffffffffff16637b0e5c456040518163ffffffff1660e01b815260040160206040518083038186803b15801561216257600080fd5b505afa158015612176573d6000803e3d6000fd5b505050506040513d601f19601f8201168201806040525081019061219a9190612c72565b73ffffffffffffffffffffffffffffffffffffffff1663c19387df8573ffffffffffffffffffffffffffffffffffffffff1663484920316040518163ffffffff1660e01b815260040160206040518083038186803b1580156121fb57600080fd5b505afa15801561220f573d6000803e3d6000fd5b505050506040513d601f19601f820116820180604052508101906122339190612c72565b846040518363ffffffff1660e01b8152600401612251929190612fb6565b60206040518083038186803b15801561226957600080fd5b505afa15801561227d573d6000803e3d6000fd5b505050506040513d601f19601f820116820180604052508101906122a19190612ddd565b905080600d60008573ffffffffffffffffffffffffffffffffffffffff1673ffffffffffffffffffffffffffffffffffffffff16815260200190815260200160002060008673ffffffffffffffffffffffffffffffffffffffff1673ffffffffffffffffffffffffffffffffffffffff168152602001908152602001600020600082825461232f919061310f565b9250508190555080600e60008573ffffffffffffffffffffffffffffffffffffffff1673ffffffffffffffffffffffffffffffffffffffff1681526020019081526020016000206000828254612385919061310f565b92505081905550806003600082825461239e919061310f565b925050819055506001601460008573ffffffffffffffffffffffffffffffffffffffff1673ffffffffffffffffffffffffffffffffffffffff16815260200190815260200160002060008673ffffffffffffffffffffffffffffffffffffffff1673ffffffffffffffffffffffffffffffffffffffff16815260200190815260200160002060006101000a81548160ff0219169083151502179055508273ffffffffffffffffffffffffffffffffffffffff168473ffffffffffffffffffffffffffffffffffffffff167f14cd3bc470910a26ce3f7f4a5649f17759dd61c2d987e6941dc6c34f8bd920a2848460035460405161249d939291906130c7565b60405180910390a350505050565b6000601160008473ffffffffffffffffffffffffffffffffffffffff1673ffffffffffffffffffffffffffffffffffffffff16815260200190815260200160002054421161252e576040517f08c379a00000000000000000000000000000000000000000000000000000000081526004016125259061301a565b60405180910390fd5b6000612538611d70565b73ffffffffffffffffffffffffffffffffffffffff16637b0e5c456040518163ffffffff1660e01b815260040160206040518083038186803b15801561257d57600080fd5b505afa158015612591573d6000803e3d6000fd5b505050506040513d601f19601f820116820180604052508101906125b59190612c72565b73ffffffffffffffffffffffffffffffffffffffff1663714270ab84600f60008873ffffffffffffffffffffffffffffffffffffffff1673ffffffffffffffffffffffffffffffffffffffff16815260200190815260200160002060008973ffffffffffffffffffffffffffffffffffffffff1673ffffffffffffffffffffffffffffffffffffffff168152602001908152602001600020546040518363ffffffff1660e01b815260040161266b92919061309e565b60206040518083038186803b15801561268357600080fd5b505afa158015612697573d6000803e3d6000fd5b505050506040513d601f19601f820116820180604052508101906126bb9190612ddd565b905080600f60008673ffffffffffffffffffffffffffffffffffffffff1673ffffffffffffffffffffffffffffffffffffffff16815260200190815260200160002060008773ffffffffffffffffffffffffffffffffffffffff1673ffffffffffffffffffffffffffffffffffffffff168152602001908152602001600020600082825461274991906131f0565b92505081905550600061275a611d70565b73ffffffffffffffffffffffffffffffffffffffff16637b0e5c456040518163ffffffff1660e01b815260040160206040518083038186803b15801561279f57600080fd5b505afa1580156127b3573d6000803e3d6000fd5b505050506040513d601f19601f820116820180604052508101906127d79190612c72565b73ffffffffffffffffffffffffffffffffffffffff1663714270ab85600d60008973ffffffffffffffffffffffffffffffffffffffff1673ffffffffffffffffffffffffffffffffffffffff16815260200190815260200160002060008a73ffffffffffffffffffffffffffffffffffffffff1673ffffffffffffffffffffffffffffffffffffffff168152602001908152602001600020546040518363ffffffff1660e01b815260040161288d92919061309e565b60206040518083038186803b1580156128a557600080fd5b505afa1580156128b9573d6000803e3d6000fd5b505050506040513d601f19601f820116820180604052508101906128dd9190612ddd565b905080600e60008773ffffffffffffffffffffffffffffffffffffffff1673ffffffffffffffffffffffffffffffffffffffff168152602001908152602001600020600082825461292e91906131f0565b9250508190555080600d60008773ffffffffffffffffffffffffffffffffffffffff1673ffffffffffffffffffffffffffffffffffffffff16815260200190815260200160002060008873ffffffffffffffffffffffffffffffffffffffff1673ffffffffffffffffffffffffffffffffffffffff16815260200190815260200160002060008282546129c191906131f0565b9250508190555080600360008282546129da91906131f0565b925050819055508473ffffffffffffffffffffffffffffffffffffffff168673ffffffffffffffffffffffffffffffffffffffff167f28b0a5e71db5b0ceb9e9edc3f89a0763709f773d717a2dcfd7851977f805ea7a8584600354604051612a44939291906130c7565b60405180910390a38282612a58919061310f565b925050509392505050565b6002600c8054905014612a9e57600c819080600181540180825580915050600190039060005260206000200160009091909190915055612aa8565b612aa781612aab565b5b50565b6000600c8054905090506000600182612ac491906131f0565b90505b6000811115612b7c57600c600182612adf91906131f0565b81548110612b16577f4e487b7100000000000000000000000000000000000000000000000000000000600052603260045260246000fd5b9060005260206000200154600c8281548110612b5b577f4e487b7100000000000000000000000000000000000000000000000000000000600052603260045260246000fd5b90600052602060002001819055508080612b749061327e565b915050612ac7565b5081600c600081548110612bb9577f4e487b7100000000000000000000000000000000000000000000000000000000600052603260045260246000fd5b90600052602060002001819055505050565b600081359050612bda816133ca565b92915050565b600081519050612bef816133ca565b92915050565b600081519050612c04816133e1565b92915050565b600081519050612c19816133f8565b92915050565b600081359050612c2e8161340f565b92915050565b600081519050612c438161340f565b92915050565b600060208284031215612c5b57600080fd5b6000612c6984828501612bcb565b91505092915050565b600060208284031215612c8457600080fd5b6000612c9284828501612be0565b91505092915050565b60008060408385031215612cae57600080fd5b6000612cbc85828601612bcb565b9250506020612ccd85828601612bcb565b9150509250929050565b600080600060608486031215612cec57600080fd5b6000612cfa86828701612bcb565b9350506020612d0b86828701612bcb565b9250506040612d1c86828701612c1f565b9150509250925092565b60008060408385031215612d3957600080fd5b6000612d4785828601612bcb565b9250506020612d5885828601612c1f565b9150509250929050565b600060208284031215612d7457600080fd5b6000612d8284828501612bf5565b91505092915050565b600060208284031215612d9d57600080fd5b6000612dab84828501612c0a565b91505092915050565b600060208284031215612dc657600080fd5b6000612dd484828501612c1f565b91505092915050565b600060208284031215612def57600080fd5b6000612dfd84828501612c34565b91505092915050565b60008060408385031215612e1957600080fd5b6000612e2785828601612c34565b9250506020612e3885828601612c34565b9150509250929050565b60008060008060808587031215612e5857600080fd5b6000612e6687828801612c1f565b9450506020612e7787828801612c1f565b9350506040612e8887828801612c1f565b9250506060612e9987828801612c1f565b91505092959194509250565b612eae81613224565b82525050565b612ebd81613236565b82525050565b6000612ed0600a836130fe565b9150612edb8261334f565b602082019050919050565b6000612ef36007836130fe565b9150612efe82613378565b602082019050919050565b6000612f166006836130fe565b9150612f21826133a1565b602082019050919050565b612f3581613274565b82525050565b6000602082019050612f506000830184612ea5565b92915050565b6000604082019050612f6b6000830185612ea5565b612f786020830184612ea5565b9392505050565b6000606082019050612f946000830186612ea5565b612fa16020830185612ea5565b612fae6040830184612f2c565b949350505050565b6000604082019050612fcb6000830185612ea5565b612fd86020830184612f2c565b9392505050565b6000602082019050612ff46000830184612eb4565b92915050565b6000602082019050818103600083015261301381612ec3565b9050919050565b6000602082019050818103600083015261303381612ee6565b9050919050565b6000602082019050818103600083015261305381612f09565b9050919050565b600060208201905061306f6000830184612f2c565b92915050565b600060408201905061308a6000830185612f2c565b6130976020830184612ea5565b9392505050565b60006040820190506130b36000830185612f2c565b6130c06020830184612f2c565b9392505050565b60006060820190506130dc6000830186612f2c565b6130e96020830185612f2c565b6130f66040830184612f2c565b949350505050565b600082825260208201905092915050565b600061311a82613274565b915061312583613274565b9250827fffffffffffffffffffffffffffffffffffffffffffffffffffffffffffffffff0382111561315a576131596132f1565b5b828201905092915050565b600061317082613274565b915061317b83613274565b92508261318b5761318a613320565b5b828204905092915050565b60006131a182613274565b91506131ac83613274565b9250817fffffffffffffffffffffffffffffffffffffffffffffffffffffffffffffffff04831182151516156131e5576131e46132f1565b5b828202905092915050565b60006131fb82613274565b915061320683613274565b925082821015613219576132186132f1565b5b828203905092915050565b600061322f82613254565b9050919050565b60008115159050919050565b600061324d82613224565b9050919050565b600073ffffffffffffffffffffffffffffffffffffffff82169050919050565b6000819050919050565b600061328982613274565b9150600082141561329d5761329c6132f1565b5b600182039050919050565b60006132b382613274565b91507fffffffffffffffffffffffffffffffffffffffffffffffffffffffffffffffff8214156132e6576132e56132f1565b5b600182019050919050565b7f4e487b7100000000000000000000000000000000000000000000000000000000600052601160045260246000fd5b7f4e487b7100000000000000000000000000000000000000000000000000000000600052601260045260246000fd5b7f21656d697373696f6e7300000000000000000000000000000000000000000000600082015250565b7f6c6f636b6f757400000000000000000000000000000000000000000000000000600082015250565b7f2173796e74680000000000000000000000000000000000000000000000000000600082015250565b6133d381613224565b81146133de57600080fd5b50565b6133ea81613236565b81146133f557600080fd5b50565b61340181613242565b811461340c57600080fd5b50565b61341881613274565b811461342357600080fd5b5056fea26469706673582212205dd8f7874820a378bb102063abe95279bc1a365815385d7c00853b2d874f8eea64736f6c63430008030033",
  "linkReferences": {},
  "deployedLinkReferences": {}
}