{
  "_format": "hh-sol-artifact-1",
  "contractName": "SynthVault",
  "sourceName": "contracts/synthVault.sol",
  "abi": [
    {
      "inputs": [
        {
          "internalType": "address",
          "name": "_base",
          "type": "address"
        }
      ],
      "stateMutability": "nonpayable",
      "type": "constructor"
    },
    {
      "anonymous": false,
      "inputs": [
        {
          "indexed": true,
          "internalType": "address",
          "name": "synth",
          "type": "address"
        },
        {
          "indexed": true,
          "internalType": "address",
          "name": "member",
          "type": "address"
        },
        {
          "indexed": false,
          "internalType": "uint256",
          "name": "newDeposit",
          "type": "uint256"
        }
      ],
      "name": "MemberDeposits",
      "type": "event"
    },
    {
      "anonymous": false,
      "inputs": [
        {
          "indexed": true,
          "internalType": "address",
          "name": "synth",
          "type": "address"
        },
        {
          "indexed": true,
          "internalType": "address",
          "name": "member",
          "type": "address"
        },
        {
          "indexed": false,
          "internalType": "uint256",
          "name": "amount",
          "type": "uint256"
        }
      ],
      "name": "MemberHarvests",
      "type": "event"
    },
    {
      "anonymous": false,
      "inputs": [
        {
          "indexed": true,
          "internalType": "address",
          "name": "synth",
          "type": "address"
        },
        {
          "indexed": true,
          "internalType": "address",
          "name": "member",
          "type": "address"
        },
        {
          "indexed": false,
          "internalType": "uint256",
          "name": "amount",
          "type": "uint256"
        }
      ],
      "name": "MemberWithdraws",
      "type": "event"
    },
    {
      "inputs": [],
      "name": "BASE",
      "outputs": [
        {
          "internalType": "address",
          "name": "",
          "type": "address"
        }
      ],
      "stateMutability": "view",
      "type": "function"
    },
    {
      "inputs": [],
      "name": "DEPLOYER",
      "outputs": [
        {
          "internalType": "address",
          "name": "",
          "type": "address"
        }
      ],
      "stateMutability": "view",
      "type": "function"
    },
    {
      "inputs": [
        {
          "internalType": "address",
          "name": "synth",
          "type": "address"
        },
        {
          "internalType": "address",
          "name": "member",
          "type": "address"
        }
      ],
      "name": "calcCurrentReward",
      "outputs": [
        {
          "internalType": "uint256",
          "name": "reward",
          "type": "uint256"
        }
      ],
      "stateMutability": "nonpayable",
      "type": "function"
    },
    {
      "inputs": [
        {
          "internalType": "address",
          "name": "_synth",
          "type": "address"
        },
        {
          "internalType": "address",
          "name": "member",
          "type": "address"
        }
      ],
      "name": "calcReward",
      "outputs": [
        {
          "internalType": "uint256",
          "name": "_share",
          "type": "uint256"
        },
        {
          "internalType": "uint256",
          "name": "_vaultReward",
          "type": "uint256"
        }
      ],
      "stateMutability": "nonpayable",
      "type": "function"
    },
    {
      "inputs": [
        {
          "internalType": "address",
          "name": "synth",
          "type": "address"
        },
        {
          "internalType": "uint256",
          "name": "amount",
          "type": "uint256"
        }
      ],
      "name": "deposit",
      "outputs": [],
      "stateMutability": "nonpayable",
      "type": "function"
    },
    {
      "inputs": [
        {
          "internalType": "address",
          "name": "synth",
          "type": "address"
        },
        {
          "internalType": "address",
          "name": "member",
          "type": "address"
        }
      ],
      "name": "depositForMember",
      "outputs": [],
      "stateMutability": "nonpayable",
      "type": "function"
    },
    {
      "inputs": [],
      "name": "erasToEarn",
      "outputs": [
        {
          "internalType": "uint256",
          "name": "",
          "type": "uint256"
        }
      ],
      "stateMutability": "view",
      "type": "function"
    },
    {
      "inputs": [],
      "name": "genesis",
      "outputs": [
        {
          "internalType": "uint256",
          "name": "",
          "type": "uint256"
        }
      ],
      "stateMutability": "view",
      "type": "function"
    },
    {
      "inputs": [
        {
          "internalType": "address",
          "name": "member",
          "type": "address"
        },
        {
          "internalType": "address",
          "name": "synth",
          "type": "address"
        }
      ],
      "name": "getMemberDeposit",
      "outputs": [
        {
          "internalType": "uint256",
          "name": "",
          "type": "uint256"
        }
      ],
      "stateMutability": "view",
      "type": "function"
    },
    {
      "inputs": [
        {
          "internalType": "address",
          "name": "synth",
          "type": "address"
        },
        {
          "internalType": "address",
          "name": "member",
          "type": "address"
        }
      ],
      "name": "getMemberLastSynthTime",
      "outputs": [
        {
          "internalType": "uint256",
          "name": "",
          "type": "uint256"
        }
      ],
      "stateMutability": "view",
      "type": "function"
    },
    {
      "inputs": [
        {
          "internalType": "address",
          "name": "_synth",
          "type": "address"
        },
        {
          "internalType": "address",
          "name": "member",
          "type": "address"
        }
      ],
      "name": "getMemberSynthWeight",
      "outputs": [
        {
          "internalType": "uint256",
          "name": "memberSynthWeight",
          "type": "uint256"
        },
        {
          "internalType": "uint256",
          "name": "synthWeight",
          "type": "uint256"
        },
        {
          "internalType": "uint256",
          "name": "totalSynthWeight",
          "type": "uint256"
        }
      ],
      "stateMutability": "nonpayable",
      "type": "function"
    },
    {
      "inputs": [
        {
          "internalType": "address",
          "name": "synth",
          "type": "address"
        }
      ],
      "name": "getTotalDeposit",
      "outputs": [
        {
          "internalType": "uint256",
          "name": "",
          "type": "uint256"
        }
      ],
      "stateMutability": "view",
      "type": "function"
    },
    {
      "inputs": [
        {
          "internalType": "address[]",
          "name": "synthAssets",
          "type": "address[]"
        }
      ],
      "name": "harvestAll",
      "outputs": [
        {
          "internalType": "bool",
          "name": "",
          "type": "bool"
        }
      ],
      "stateMutability": "nonpayable",
      "type": "function"
    },
    {
      "inputs": [
        {
          "internalType": "address",
          "name": "synth",
          "type": "address"
        }
      ],
      "name": "harvestSingle",
      "outputs": [
        {
          "internalType": "bool",
          "name": "",
          "type": "bool"
        }
      ],
      "stateMutability": "nonpayable",
      "type": "function"
    },
    {
      "inputs": [],
      "name": "lastMonth",
      "outputs": [
        {
          "internalType": "uint256",
          "name": "",
          "type": "uint256"
        }
      ],
      "stateMutability": "view",
      "type": "function"
    },
    {
      "inputs": [],
      "name": "map30DVaultRevenue",
      "outputs": [
        {
          "internalType": "uint256",
          "name": "",
          "type": "uint256"
        }
      ],
      "stateMutability": "view",
      "type": "function"
    },
    {
      "inputs": [
        {
          "internalType": "address",
          "name": "",
          "type": "address"
        }
      ],
      "name": "mapMember_depositTime",
      "outputs": [
        {
          "internalType": "uint256",
          "name": "",
          "type": "uint256"
        }
      ],
      "stateMutability": "view",
      "type": "function"
    },
    {
      "inputs": [],
      "name": "mapPast30DVaultRevenue",
      "outputs": [
        {
          "internalType": "uint256",
          "name": "",
          "type": "uint256"
        }
      ],
      "stateMutability": "view",
      "type": "function"
    },
    {
      "inputs": [
        {
          "internalType": "address",
          "name": "",
          "type": "address"
        }
      ],
      "name": "mapTotalSynth_balance",
      "outputs": [
        {
          "internalType": "uint256",
          "name": "",
          "type": "uint256"
        }
      ],
      "stateMutability": "view",
      "type": "function"
    },
    {
      "inputs": [],
      "name": "minimumDepositTime",
      "outputs": [
        {
          "internalType": "uint256",
          "name": "",
          "type": "uint256"
        }
      ],
      "stateMutability": "view",
      "type": "function"
    },
    {
      "inputs": [],
      "name": "purgeDeployer",
      "outputs": [],
      "stateMutability": "nonpayable",
      "type": "function"
    },
    {
      "inputs": [],
      "name": "reserveBASE",
      "outputs": [
        {
          "internalType": "uint256",
          "name": "",
          "type": "uint256"
        }
      ],
      "stateMutability": "view",
      "type": "function"
    },
    {
      "inputs": [
        {
          "internalType": "uint256",
          "name": "",
          "type": "uint256"
        }
      ],
      "name": "revenueArray",
      "outputs": [
        {
          "internalType": "uint256",
          "name": "",
          "type": "uint256"
        }
      ],
      "stateMutability": "view",
      "type": "function"
    },
    {
      "inputs": [
        {
          "internalType": "uint256",
          "name": "_erasToEarn",
          "type": "uint256"
        },
        {
          "internalType": "uint256",
          "name": "_minTime",
          "type": "uint256"
        },
        {
          "internalType": "uint256",
          "name": "_vaultClaim",
          "type": "uint256"
        }
      ],
      "name": "setParams",
      "outputs": [],
      "stateMutability": "nonpayable",
      "type": "function"
    },
    {
      "inputs": [],
      "name": "vaultClaim",
      "outputs": [
        {
          "internalType": "uint256",
          "name": "",
          "type": "uint256"
        }
      ],
      "stateMutability": "view",
      "type": "function"
    },
    {
      "inputs": [
        {
          "internalType": "address",
          "name": "synth",
          "type": "address"
        },
        {
          "internalType": "uint256",
          "name": "basisPoints",
          "type": "uint256"
        }
      ],
      "name": "withdraw",
      "outputs": [],
      "stateMutability": "nonpayable",
      "type": "function"
    }
  ],
  "bytecode": "0x60c06040523480156200001157600080fd5b506040516200419c3803806200419c8339818101604052810190620000379190620000fe565b60016000819055508073ffffffffffffffffffffffffffffffffffffffff1660808173ffffffffffffffffffffffffffffffffffffffff1660601b8152505033600160006101000a81548173ffffffffffffffffffffffffffffffffffffffff021916908373ffffffffffffffffffffffffffffffffffffffff160217905550601e600381905550603c6002819055506103e86004819055504260a0818152505060006005819055505062000178565b600081519050620000f8816200015e565b92915050565b6000602082840312156200011157600080fd5b60006200012184828501620000e7565b91505092915050565b600062000137826200013e565b9050919050565b600073ffffffffffffffffffffffffffffffffffffffff82169050919050565b62000169816200012a565b81146200017557600080fd5b50565b60805160601c60a051613fe6620001b6600039600061208201526000818161123a01528181612306015281816123d201526128300152613fe66000f3fe608060405234801561001057600080fd5b506004361061018e5760003560e01c8063857184d1116100de578063c1b8411a11610097578063e9f27c3a11610071578063e9f27c3a146104b2578063ec342ad0146104e2578063f0337cdc14610500578063f3fef3a3146105305761018e565b8063c1b8411a14610434578063ca4f64c214610452578063ca8531a0146104825761018e565b8063857184d1146103375780638dfa9bcc1461036757806399d786ca14610397578063a6dde131146103b5578063a7f0b3de146103e6578063b28fc23a146104045761018e565b80634335a95c1161014b5780635a0ce676116101255780635a0ce676146102af5780636d85a7ea146102cb5780636fc2ee5c146102e95780637a94c2a5146103075761018e565b80634335a95c1461024757806347e7ef2414610263578063485084b71461027f5761018e565b8063036e21e51461019357806303a82138146101b15780630b991d4d146101bb5780630dd3af75146101d95780631c21088c146101f75780632c07eebf14610229575b600080fd5b61019b61054c565b6040516101a891906139bd565b60405180910390f35b6101b9610552565b005b6101c36105f0565b6040516101d091906139bd565b60405180910390f35b6101e16105f6565b6040516101ee91906139bd565b60405180910390f35b610211600480360381019061020c919061342e565b6105fc565b60405161022093929190613a2a565b60405180910390f35b610231610db1565b60405161023e91906139bd565b60405180910390f35b610261600480360381019061025c919061342e565b610db7565b005b61027d6004803603810190610278919061346a565b61103d565b005b610299600480360381019061029491906133dc565b6111a4565b6040516102a691906139bd565b60405180910390f35b6102c960048036038101906102c49190613608565b6111bc565b005b6102d3611230565b6040516102e091906139bd565b60405180910390f35b6102f1611236565b6040516102fe91906139bd565b60405180910390f35b610321600480360381019061031c91906133dc565b61136a565b60405161032e9190613882565b60405180910390f35b610351600480360381019061034c91906133dc565b611c14565b60405161035e91906139bd565b60405180910390f35b610381600480360381019061037c919061342e565b611c5d565b60405161038e91906139bd565b60405180910390f35b61039f611ce4565b6040516103ac91906139bd565b60405180910390f35b6103cf60048036038101906103ca919061342e565b611cea565b6040516103dd929190613a01565b60405180910390f35b6103ee612080565b6040516103fb91906139bd565b60405180910390f35b61041e600480360381019061041991906133dc565b6120a4565b60405161042b91906139bd565b60405180910390f35b61043c6120bc565b6040516104499190613807565b60405180910390f35b61046c600480360381019061046791906134a6565b6120e2565b6040516104799190613882565b60405180910390f35b61049c6004803603810190610497919061342e565b61215a565b6040516104a991906139bd565b60405180910390f35b6104cc60048036038101906104c7919061342e565b6121e1565b6040516104d991906139bd565b60405180910390f35b6104ea6123d0565b6040516104f79190613807565b60405180910390f35b61051a6004803603810190610515919061357a565b6123f4565b60405161052791906139bd565b60405180910390f35b61054a6004803603810190610545919061346a565b612418565b005b60025481565b600160009054906101000a900473ffffffffffffffffffffffffffffffffffffffff1673ffffffffffffffffffffffffffffffffffffffff163373ffffffffffffffffffffffffffffffffffffffff16146105ac57600080fd5b6000600160006101000a81548173ffffffffffffffffffffffffffffffffffffffff021916908373ffffffffffffffffffffffffffffffffffffffff160217905550565b60065481565b60075481565b60008060006001151561060d61282c565b73ffffffffffffffffffffffffffffffffffffffff16639d2cc4366040518163ffffffff1660e01b815260040160206040518083038186803b15801561065257600080fd5b505afa158015610666573d6000803e3d6000fd5b505050506040513d601f19601f8201168201806040525081019061068a9190613405565b73ffffffffffffffffffffffffffffffffffffffff1663194e22ce6040518163ffffffff1660e01b8152600401602060405180830381600087803b1580156106d157600080fd5b505af11580156106e5573d6000803e3d6000fd5b505050506040513d601f19601f820116820180604052508101906107099190613528565b1515141561074c576040517f08c379a00000000000000000000000000000000000000000000000000000000081526004016107439061393d565b60405180910390fd5b600061075661282c565b73ffffffffffffffffffffffffffffffffffffffff1663b99b0a0c6040518163ffffffff1660e01b815260040160206040518083038186803b15801561079b57600080fd5b505afa1580156107af573d6000803e3d6000fd5b505050506040513d601f19601f820116820180604052508101906107d39190613405565b73ffffffffffffffffffffffffffffffffffffffff1663abc764da6040518163ffffffff1660e01b815260040160006040518083038186803b15801561081857600080fd5b505afa15801561082c573d6000803e3d6000fd5b505050506040513d6000823e3d601f19601f8201168201806040525081019061085591906134e7565b905060005b8151811015610acb57600082828151811061089e577f4e487b7100000000000000000000000000000000000000000000000000000000600052603260045260246000fd5b602002602001015173ffffffffffffffffffffffffffffffffffffffff1663e1eddde36040518163ffffffff1660e01b8152600401602060405180830381600087803b1580156108ed57600080fd5b505af1158015610901573d6000803e3d6000fd5b505050506040513d601f19601f820116820180604052508101906109259190613405565b9050600073ffffffffffffffffffffffffffffffffffffffff168173ffffffffffffffffffffffffffffffffffffffff1614610ab75761096361282c565b73ffffffffffffffffffffffffffffffffffffffff16637b0e5c456040518163ffffffff1660e01b815260040160206040518083038186803b1580156109a857600080fd5b505afa1580156109bc573d6000803e3d6000fd5b505050506040513d601f19601f820116820180604052508101906109e09190613405565b73ffffffffffffffffffffffffffffffffffffffff166348c0fd8f82600a60008573ffffffffffffffffffffffffffffffffffffffff1673ffffffffffffffffffffffffffffffffffffffff168152602001908152602001600020546040518363ffffffff1660e01b8152600401610a59929190613859565b60206040518083038186803b158015610a7157600080fd5b505afa158015610a85573d6000803e3d6000fd5b505050506040513d601f19601f82011682018060405250810190610aa991906135a3565b84610ab49190613ad9565b93505b508080610ac390613cd6565b91505061085a565b50610ad461282c565b73ffffffffffffffffffffffffffffffffffffffff16637b0e5c456040518163ffffffff1660e01b815260040160206040518083038186803b158015610b1957600080fd5b505afa158015610b2d573d6000803e3d6000fd5b505050506040513d601f19601f82011682018060405250810190610b519190613405565b73ffffffffffffffffffffffffffffffffffffffff166348c0fd8f87600a60008a73ffffffffffffffffffffffffffffffffffffffff1673ffffffffffffffffffffffffffffffffffffffff168152602001908152602001600020546040518363ffffffff1660e01b8152600401610bca929190613859565b60206040518083038186803b158015610be257600080fd5b505afa158015610bf6573d6000803e3d6000fd5b505050506040513d601f19601f82011682018060405250810190610c1a91906135a3565b9250610c2461282c565b73ffffffffffffffffffffffffffffffffffffffff16637b0e5c456040518163ffffffff1660e01b815260040160206040518083038186803b158015610c6957600080fd5b505afa158015610c7d573d6000803e3d6000fd5b505050506040513d601f19601f82011682018060405250810190610ca19190613405565b73ffffffffffffffffffffffffffffffffffffffff166348c0fd8f87600960008973ffffffffffffffffffffffffffffffffffffffff1673ffffffffffffffffffffffffffffffffffffffff16815260200190815260200160002060008a73ffffffffffffffffffffffffffffffffffffffff1673ffffffffffffffffffffffffffffffffffffffff168152602001908152602001600020546040518363ffffffff1660e01b8152600401610d57929190613859565b60206040518083038186803b158015610d6f57600080fd5b505afa158015610d83573d6000803e3d6000fd5b505050506040513d601f19601f82011682018060405250810190610da791906135a3565b9350509250925092565b60035481565b60011515610dc361282c565b73ffffffffffffffffffffffffffffffffffffffff1663b99b0a0c6040518163ffffffff1660e01b815260040160206040518083038186803b158015610e0857600080fd5b505afa158015610e1c573d6000803e3d6000fd5b505050506040513d601f19601f82011682018060405250810190610e409190613405565b73ffffffffffffffffffffffffffffffffffffffff16638dcb4c93336040518263ffffffff1660e01b8152600401610e789190613807565b60206040518083038186803b158015610e9057600080fd5b505afa158015610ea4573d6000803e3d6000fd5b505050506040513d601f19601f82011682018060405250810190610ec89190613528565b151514610ed457600080fd5b610edc61282c565b73ffffffffffffffffffffffffffffffffffffffff1663b93ec54b6040518163ffffffff1660e01b815260040160206040518083038186803b158015610f2157600080fd5b505afa158015610f35573d6000803e3d6000fd5b505050506040513d601f19601f82011682018060405250810190610f599190613405565b73ffffffffffffffffffffffffffffffffffffffff16635e0237ea836040518263ffffffff1660e01b8152600401610f919190613807565b60206040518083038186803b158015610fa957600080fd5b505afa158015610fbd573d6000803e3d6000fd5b505050506040513d601f19601f82011682018060405250810190610fe19190613528565b611020576040517f08c379a00000000000000000000000000000000000000000000000000000000081526004016110179061391d565b60405180910390fd5b600061102b836128d1565b9050611038838383612a03565b505050565b61104561282c565b73ffffffffffffffffffffffffffffffffffffffff1663b93ec54b6040518163ffffffff1660e01b815260040160206040518083038186803b15801561108a57600080fd5b505afa15801561109e573d6000803e3d6000fd5b505050506040513d601f19601f820116820180604052508101906110c29190613405565b73ffffffffffffffffffffffffffffffffffffffff16635e0237ea836040518263ffffffff1660e01b81526004016110fa9190613807565b60206040518083038186803b15801561111257600080fd5b505afa158015611126573d6000803e3d6000fd5b505050506040513d601f19601f8201168201806040525081019061114a9190613528565b611189576040517f08c379a00000000000000000000000000000000000000000000000000000000081526004016111809061391d565b60405180910390fd5b61119582333084612d29565b6111a0823383612a03565b5050565b600a6020528060005260406000206000915090505481565b600160009054906101000a900473ffffffffffffffffffffffffffffffffffffffff1673ffffffffffffffffffffffffffffffffffffffff163373ffffffffffffffffffffffffffffffffffffffff161461121657600080fd5b826003819055508160028190555080600481905550505050565b60045481565b60007f000000000000000000000000000000000000000000000000000000000000000073ffffffffffffffffffffffffffffffffffffffff166370a0823161127c61282c565b73ffffffffffffffffffffffffffffffffffffffff16639d2cc4366040518163ffffffff1660e01b815260040160206040518083038186803b1580156112c157600080fd5b505afa1580156112d5573d6000803e3d6000fd5b505050506040513d601f19601f820116820180604052508101906112f99190613405565b6040518263ffffffff1660e01b81526004016113159190613807565b60206040518083038186803b15801561132d57600080fd5b505afa158015611341573d6000803e3d6000fd5b505050506040513d601f19601f8201168201806040525081019061136591906135a3565b905090565b600061137461282c565b73ffffffffffffffffffffffffffffffffffffffff1663b93ec54b6040518163ffffffff1660e01b815260040160206040518083038186803b1580156113b957600080fd5b505afa1580156113cd573d6000803e3d6000fd5b505050506040513d601f19601f820116820180604052508101906113f19190613405565b73ffffffffffffffffffffffffffffffffffffffff16635e0237ea836040518263ffffffff1660e01b81526004016114299190613807565b60206040518083038186803b15801561144157600080fd5b505afa158015611455573d6000803e3d6000fd5b505050506040513d601f19601f820116820180604052508101906114799190613528565b6114b8576040517f08c379a00000000000000000000000000000000000000000000000000000000081526004016114af9061391d565b60405180910390fd5b60006114c483336121e1565b90506000811115611c0a57600254600b60003373ffffffffffffffffffffffffffffffffffffffff1673ffffffffffffffffffffffffffffffffffffffff16815260200190815260200160002060008573ffffffffffffffffffffffffffffffffffffffff1673ffffffffffffffffffffffffffffffffffffffff168152602001908152602001600020546115599190613ad9565b421161159a576040517f08c379a00000000000000000000000000000000000000000000000000000000081526004016115919061397d565b60405180910390fd5b42600b60003373ffffffffffffffffffffffffffffffffffffffff1673ffffffffffffffffffffffffffffffffffffffff16815260200190815260200160002060008573ffffffffffffffffffffffffffffffffffffffff1673ffffffffffffffffffffffffffffffffffffffff1681526020019081526020016000208190555060008373ffffffffffffffffffffffffffffffffffffffff16637535d2466040518163ffffffff1660e01b815260040160206040518083038186803b15801561166357600080fd5b505afa158015611677573d6000803e3d6000fd5b505050506040513d601f19601f8201168201806040525081019061169b9190613405565b90508073ffffffffffffffffffffffffffffffffffffffff1663fff6cae96040518163ffffffff1660e01b8152600401600060405180830381600087803b1580156116e557600080fd5b505af11580156116f9573d6000803e3d6000fd5b5050505060008173ffffffffffffffffffffffffffffffffffffffff166361cc24bb866040518263ffffffff1660e01b81526004016117389190613807565b602060405180830381600087803b15801561175257600080fd5b505af1158015611766573d6000803e3d6000fd5b505050506040513d601f19601f8201168201806040525081019061178a91906135a3565b9050600061179661282c565b73ffffffffffffffffffffffffffffffffffffffff16637b0e5c456040518163ffffffff1660e01b815260040160206040518083038186803b1580156117db57600080fd5b505afa1580156117ef573d6000803e3d6000fd5b505050506040513d601f19601f820116820180604052508101906118139190613405565b73ffffffffffffffffffffffffffffffffffffffff16635f2c12e88473ffffffffffffffffffffffffffffffffffffffff166382bfefc86040518163ffffffff1660e01b815260040160206040518083038186803b15801561187457600080fd5b505afa158015611888573d6000803e3d6000fd5b505050506040513d601f19601f820116820180604052508101906118ac9190613405565b866040518363ffffffff1660e01b81526004016118ca929190613859565b60206040518083038186803b1580156118e257600080fd5b505afa1580156118f6573d6000803e3d6000fd5b505050506040513d601f19601f8201168201806040525081019061191a91906135a3565b905080821015611a1a5761192c61282c565b73ffffffffffffffffffffffffffffffffffffffff16639d2cc4366040518163ffffffff1660e01b815260040160206040518083038186803b15801561197157600080fd5b505afa158015611985573d6000803e3d6000fd5b505050506040513d601f19601f820116820180604052508101906119a99190613405565b73ffffffffffffffffffffffffffffffffffffffff16637d458baa85336040518363ffffffff1660e01b81526004016119e39291906139d8565b600060405180830381600087803b1580156119fd57600080fd5b505af1158015611a11573d6000803e3d6000fd5b50505050611b98565b611a2261282c565b73ffffffffffffffffffffffffffffffffffffffff16639d2cc4366040518163ffffffff1660e01b815260040160206040518083038186803b158015611a6757600080fd5b505afa158015611a7b573d6000803e3d6000fd5b505050506040513d601f19601f82011682018060405250810190611a9f9190613405565b73ffffffffffffffffffffffffffffffffffffffff16637d458baa85856040518363ffffffff1660e01b8152600401611ad99291906139d8565b600060405180830381600087803b158015611af357600080fd5b505af1158015611b07573d6000803e3d6000fd5b505050508273ffffffffffffffffffffffffffffffffffffffff1663f1bbdef2306040518263ffffffff1660e01b8152600401611b449190613807565b6040805180830381600087803b158015611b5d57600080fd5b505af1158015611b71573d6000803e3d6000fd5b505050506040513d601f19601f82011682018060405250810190611b9591906135cc565b50505b611ba184612e62565b3373ffffffffffffffffffffffffffffffffffffffff168673ffffffffffffffffffffffffffffffffffffffff167f509122099a522eb9860de32189d85affc5ff2d5f093c558c64a8a2427f7eba2086604051611bfe91906139bd565b60405180910390a35050505b6001915050919050565b6000600a60008373ffffffffffffffffffffffffffffffffffffffff1673ffffffffffffffffffffffffffffffffffffffff168152602001908152602001600020549050919050565b6000600960008473ffffffffffffffffffffffffffffffffffffffff1673ffffffffffffffffffffffffffffffffffffffff16815260200190815260200160002060008373ffffffffffffffffffffffffffffffffffffffff1673ffffffffffffffffffffffffffffffffffffffff16815260200190815260200160002054905092915050565b60055481565b6000806000806000611cfc87876105fc565b9250925092506000600354611d0f611236565b611d199190613b2f565b90506000611d2561282c565b73ffffffffffffffffffffffffffffffffffffffff1663b93ec54b6040518163ffffffff1660e01b815260040160206040518083038186803b158015611d6a57600080fd5b505afa158015611d7e573d6000803e3d6000fd5b505050506040513d601f19601f82011682018060405250810190611da29190613405565b73ffffffffffffffffffffffffffffffffffffffff166378a45a246040518163ffffffff1660e01b8152600401602060405180830381600087803b158015611de957600080fd5b505af1158015611dfd573d6000803e3d6000fd5b505050506040513d601f19601f82011682018060405250810190611e2191906135a3565b90506127108160045484611e359190613b60565b611e3f9190613b2f565b611e499190613b2f565b95506000611e5561282c565b73ffffffffffffffffffffffffffffffffffffffff16637b0e5c456040518163ffffffff1660e01b815260040160206040518083038186803b158015611e9a57600080fd5b505afa158015611eae573d6000803e3d6000fd5b505050506040513d601f19601f82011682018060405250810190611ed29190613405565b73ffffffffffffffffffffffffffffffffffffffff16631ba326c486868a6040518463ffffffff1660e01b8152600401611f0e93929190613a2a565b60206040518083038186803b158015611f2657600080fd5b505afa158015611f3a573d6000803e3d6000fd5b505050506040513d601f19601f82011682018060405250810190611f5e91906135a3565b9050611f6861282c565b73ffffffffffffffffffffffffffffffffffffffff16637b0e5c456040518163ffffffff1660e01b815260040160206040518083038186803b158015611fad57600080fd5b505afa158015611fc1573d6000803e3d6000fd5b505050506040513d601f19601f82011682018060405250810190611fe59190613405565b73ffffffffffffffffffffffffffffffffffffffff16631ba326c48787846040518463ffffffff1660e01b815260040161202193929190613a2a565b60206040518083038186803b15801561203957600080fd5b505afa15801561204d573d6000803e3d6000fd5b505050506040513d601f19601f8201168201806040525081019061207191906135a3565b97505050505050509250929050565b7f000000000000000000000000000000000000000000000000000000000000000081565b600c6020528060005260406000206000915090505481565b600160009054906101000a900473ffffffffffffffffffffffffffffffffffffffff1681565b600080600090505b82518110156121505761213c83828151811061212f577f4e487b7100000000000000000000000000000000000000000000000000000000600052603260045260246000fd5b602002602001015161136a565b50808061214890613cd6565b9150506120ea565b5060019050919050565b6000600b60008373ffffffffffffffffffffffffffffffffffffffff1673ffffffffffffffffffffffffffffffffffffffff16815260200190815260200160002060008473ffffffffffffffffffffffffffffffffffffffff1673ffffffffffffffffffffffffffffffffffffffff16815260200190815260200160002054905092915050565b6000600b60008373ffffffffffffffffffffffffffffffffffffffff1673ffffffffffffffffffffffffffffffffffffffff16815260200190815260200160002060008473ffffffffffffffffffffffffffffffffffffffff1673ffffffffffffffffffffffffffffffffffffffff168152602001908152602001600020544211156123ca576000600b60008473ffffffffffffffffffffffffffffffffffffffff1673ffffffffffffffffffffffffffffffffffffffff16815260200190815260200160002060008573ffffffffffffffffffffffffffffffffffffffff1673ffffffffffffffffffffffffffffffffffffffff16815260200190815260200160002054426122f19190613bba565b90506000806123008686611cea565b915091507f000000000000000000000000000000000000000000000000000000000000000073ffffffffffffffffffffffffffffffffffffffff16636b92a3b66040518163ffffffff1660e01b815260040160206040518083038186803b15801561236a57600080fd5b505afa15801561237e573d6000803e3d6000fd5b505050506040513d601f19601f820116820180604052508101906123a291906135a3565b83836123ae9190613b60565b6123b89190613b2f565b9350808411156123c6578093505b5050505b92915050565b7f000000000000000000000000000000000000000000000000000000000000000081565b6008818154811061240457600080fd5b906000526020600020016000915090505481565b6002600054141561245e576040517f08c379a00000000000000000000000000000000000000000000000000000000081526004016124559061399d565b60405180910390fd5b6002600081905550600081116124a9576040517f08c379a00000000000000000000000000000000000000000000000000000000081526004016124a0906138fd565b60405180910390fd5b600254600c60003373ffffffffffffffffffffffffffffffffffffffff1673ffffffffffffffffffffffffffffffffffffffff168152602001908152602001600020546124f69190613ad9565b4211612537576040517f08c379a000000000000000000000000000000000000000000000000000000000815260040161252e906138dd565b60405180910390fd5b600061254161282c565b73ffffffffffffffffffffffffffffffffffffffff16637b0e5c456040518163ffffffff1660e01b815260040160206040518083038186803b15801561258657600080fd5b505afa15801561259a573d6000803e3d6000fd5b505050506040513d601f19601f820116820180604052508101906125be9190613405565b73ffffffffffffffffffffffffffffffffffffffff1663714270ab83600960003373ffffffffffffffffffffffffffffffffffffffff1673ffffffffffffffffffffffffffffffffffffffff16815260200190815260200160002060008773ffffffffffffffffffffffffffffffffffffffff1673ffffffffffffffffffffffffffffffffffffffff168152602001908152602001600020546040518363ffffffff1660e01b8152600401612674929190613a01565b60206040518083038186803b15801561268c57600080fd5b505afa1580156126a0573d6000803e3d6000fd5b505050506040513d601f19601f820116820180604052508101906126c491906135a3565b905080600960003373ffffffffffffffffffffffffffffffffffffffff1673ffffffffffffffffffffffffffffffffffffffff16815260200190815260200160002060008573ffffffffffffffffffffffffffffffffffffffff1673ffffffffffffffffffffffffffffffffffffffff16815260200190815260200160002060008282546127529190613bba565b9250508190555080600a60008573ffffffffffffffffffffffffffffffffffffffff1673ffffffffffffffffffffffffffffffffffffffff16815260200190815260200160002060008282546127a89190613bba565b925050819055506127ba833383612ecb565b3373ffffffffffffffffffffffffffffffffffffffff168373ffffffffffffffffffffffffffffffffffffffff167f12dcb5d4117cb4675d56c72f030db8f0f4dd34f875fe484eea4cf0790b5deaa38360405161281791906139bd565b60405180910390a35060016000819055505050565b60007f000000000000000000000000000000000000000000000000000000000000000073ffffffffffffffffffffffffffffffffffffffff166398fabd3a6040518163ffffffff1660e01b815260040160206040518083038186803b15801561289457600080fd5b505afa1580156128a8573d6000803e3d6000fd5b505050506040513d601f19601f820116820180604052508101906128cc9190613551565b905090565b6000808273ffffffffffffffffffffffffffffffffffffffff166370a08231306040518263ffffffff1660e01b815260040161290d9190613807565b60206040518083038186803b15801561292557600080fd5b505afa158015612939573d6000803e3d6000fd5b505050506040513d601f19601f8201168201806040525081019061295d91906135a3565b9050600a60008473ffffffffffffffffffffffffffffffffffffffff1673ffffffffffffffffffffffffffffffffffffffff168152602001908152602001600020548111156129f857600a60008473ffffffffffffffffffffffffffffffffffffffff1673ffffffffffffffffffffffffffffffffffffffff16815260200190815260200160002054816129f19190613bba565b91506129fd565b600091505b50919050565b60008111612a46576040517f08c379a0000000000000000000000000000000000000000000000000000000008152600401612a3d906138fd565b60405180910390fd5b600254600b60008473ffffffffffffffffffffffffffffffffffffffff1673ffffffffffffffffffffffffffffffffffffffff16815260200190815260200160002060008573ffffffffffffffffffffffffffffffffffffffff1673ffffffffffffffffffffffffffffffffffffffff16815260200190815260200160002054612ad09190613ad9565b4211612b11576040517f08c379a0000000000000000000000000000000000000000000000000000000008152600401612b08906138bd565b60405180910390fd5b42600b60008473ffffffffffffffffffffffffffffffffffffffff1673ffffffffffffffffffffffffffffffffffffffff16815260200190815260200160002060008573ffffffffffffffffffffffffffffffffffffffff1673ffffffffffffffffffffffffffffffffffffffff1681526020019081526020016000208190555042600c60008473ffffffffffffffffffffffffffffffffffffffff1673ffffffffffffffffffffffffffffffffffffffff1681526020019081526020016000208190555080600960008473ffffffffffffffffffffffffffffffffffffffff1673ffffffffffffffffffffffffffffffffffffffff16815260200190815260200160002060008573ffffffffffffffffffffffffffffffffffffffff1673ffffffffffffffffffffffffffffffffffffffff1681526020019081526020016000206000828254612c629190613ad9565b9250508190555080600a60008573ffffffffffffffffffffffffffffffffffffffff1673ffffffffffffffffffffffffffffffffffffffff1681526020019081526020016000206000828254612cb89190613ad9565b925050819055508173ffffffffffffffffffffffffffffffffffffffff168373ffffffffffffffffffffffffffffffffffffffff167f5f9b5a75581a29d72b32414a5df7f1ef124b7787b38616fb8fdcad76179127c283604051612d1c91906139bd565b60405180910390a3505050565b6000808573ffffffffffffffffffffffffffffffffffffffff166323b872dd868686604051602401612d5d93929190613822565b6040516020818303038152906040529060e01b6020820180517bffffffffffffffffffffffffffffffffffffffffffffffffffffffff8381831617835250505050604051612dab91906137f0565b6000604051808303816000865af19150503d8060008114612de8576040519150601f19603f3d011682016040523d82523d6000602084013e612ded565b606091505b5091509150818015612e1b5750600081511480612e1a575080806020019051810190612e199190613528565b5b5b612e5a576040517f08c379a0000000000000000000000000000000000000000000000000000000008152600401612e519061395d565b60405180910390fd5b505050505050565b60006005541415612e7557426005819055505b62278d00600554612e869190613ad9565b4211612ea55780600654612e9a9190613ad9565b600681905550612ec8565b42600581905550600654600781905550612ec0600754613001565b806006819055505b50565b6000808473ffffffffffffffffffffffffffffffffffffffff1663a9059cbb8585604051602401612efd929190613859565b6040516020818303038152906040529060e01b6020820180517bffffffffffffffffffffffffffffffffffffffffffffffffffffffff8381831617835250505050604051612f4b91906137f0565b6000604051808303816000865af19150503d8060008114612f88576040519150601f19603f3d011682016040523d82523d6000602084013e612f8d565b606091505b5091509150818015612fbb5750600081511480612fba575080806020019051810190612fb99190613528565b5b5b612ffa576040517f08c379a0000000000000000000000000000000000000000000000000000000008152600401612ff19061389d565b60405180910390fd5b5050505050565b60026008805490501461303c576008819080600181540180825580915050600190039060005260206000200160009091909190915055613046565b61304581613049565b5b50565b6000600880548060200260200160405190810160405280929190818152602001828054801561309757602002820191906000526020600020905b815481526020019060010190808311613083575b5050505050905060008151905060006001826130b39190613bba565b90505b600081111561316457826001826130cd9190613bba565b81518110613104577f4e487b7100000000000000000000000000000000000000000000000000000000600052603260045260246000fd5b6020026020010151838281518110613145577f4e487b7100000000000000000000000000000000000000000000000000000000600052603260045260246000fd5b602002602001018181525050808061315c90613c7b565b9150506130b6565b5082826000815181106131a0577f4e487b7100000000000000000000000000000000000000000000000000000000600052603260045260246000fd5b60200260200101818152505081600890805190602001906131c29291906131c8565b50505050565b828054828255906000526020600020908101928215613204579160200282015b828111156132035782518255916020019190600101906131e8565b5b5090506132119190613215565b5090565b5b8082111561322e576000816000905550600101613216565b5090565b600061324561324084613a86565b613a61565b9050808382526020820190508285602086028201111561326457600080fd5b60005b85811015613294578161327a888261330a565b845260208401935060208301925050600181019050613267565b5050509392505050565b60006132b16132ac84613a86565b613a61565b905080838252602082019050828560208602820111156132d057600080fd5b60005b8581101561330057816132e6888261331f565b8452602084019350602083019250506001810190506132d3565b5050509392505050565b60008135905061331981613f54565b92915050565b60008151905061332e81613f54565b92915050565b600082601f83011261334557600080fd5b8135613355848260208601613232565b91505092915050565b600082601f83011261336f57600080fd5b815161337f84826020860161329e565b91505092915050565b60008151905061339781613f6b565b92915050565b6000815190506133ac81613f82565b92915050565b6000813590506133c181613f99565b92915050565b6000815190506133d681613f99565b92915050565b6000602082840312156133ee57600080fd5b60006133fc8482850161330a565b91505092915050565b60006020828403121561341757600080fd5b60006134258482850161331f565b91505092915050565b6000806040838503121561344157600080fd5b600061344f8582860161330a565b92505060206134608582860161330a565b9150509250929050565b6000806040838503121561347d57600080fd5b600061348b8582860161330a565b925050602061349c858286016133b2565b9150509250929050565b6000602082840312156134b857600080fd5b600082013567ffffffffffffffff8111156134d257600080fd5b6134de84828501613334565b91505092915050565b6000602082840312156134f957600080fd5b600082015167ffffffffffffffff81111561351357600080fd5b61351f8482850161335e565b91505092915050565b60006020828403121561353a57600080fd5b600061354884828501613388565b91505092915050565b60006020828403121561356357600080fd5b60006135718482850161339d565b91505092915050565b60006020828403121561358c57600080fd5b600061359a848285016133b2565b91505092915050565b6000602082840312156135b557600080fd5b60006135c3848285016133c7565b91505092915050565b600080604083850312156135df57600080fd5b60006135ed858286016133c7565b92505060206135fe858286016133c7565b9150509250929050565b60008060006060848603121561361d57600080fd5b600061362b868287016133b2565b935050602061363c868287016133b2565b925050604061364d868287016133b2565b9150509250925092565b61366081613bee565b82525050565b61366f81613c00565b82525050565b600061368082613ab2565b61368a8185613abd565b935061369a818560208601613c48565b80840191505092915050565b60006136b3601f83613ac8565b91506136be82613dbd565b602082019050919050565b60006136d6600c83613ac8565b91506136e182613de6565b602082019050919050565b60006136f9600783613ac8565b915061370482613e0f565b602082019050919050565b600061371c600683613ac8565b915061372782613e38565b602082019050919050565b600061373f600683613ac8565b915061374a82613e61565b602082019050919050565b6000613762600583613ac8565b915061376d82613e8a565b602082019050919050565b6000613785602483613ac8565b915061379082613eb3565b604082019050919050565b60006137a8600683613ac8565b91506137b382613f02565b602082019050919050565b60006137cb601f83613ac8565b91506137d682613f2b565b602082019050919050565b6137ea81613c3e565b82525050565b60006137fc8284613675565b915081905092915050565b600060208201905061381c6000830184613657565b92915050565b60006060820190506138376000830186613657565b6138446020830185613657565b61385160408301846137e1565b949350505050565b600060408201905061386e6000830185613657565b61387b60208301846137e1565b9392505050565b60006020820190506138976000830184613666565b92915050565b600060208201905081810360008301526138b6816136a6565b9050919050565b600060208201905081810360008301526138d6816136c9565b9050919050565b600060208201905081810360008301526138f6816136ec565b9050919050565b600060208201905081810360008301526139168161370f565b9050919050565b6000602082019050818103600083015261393681613732565b9050919050565b6000602082019050818103600083015261395681613755565b9050919050565b6000602082019050818103600083015261397681613778565b9050919050565b600060208201905081810360008301526139968161379b565b9050919050565b600060208201905081810360008301526139b6816137be565b9050919050565b60006020820190506139d260008301846137e1565b92915050565b60006040820190506139ed60008301856137e1565b6139fa6020830184613657565b9392505050565b6000604082019050613a1660008301856137e1565b613a2360208301846137e1565b9392505050565b6000606082019050613a3f60008301866137e1565b613a4c60208301856137e1565b613a5960408301846137e1565b949350505050565b6000613a6b613a7c565b9050613a778282613ca5565b919050565b6000604051905090565b600067ffffffffffffffff821115613aa157613aa0613d7d565b5b602082029050602081019050919050565b600081519050919050565b600081905092915050565b600082825260208201905092915050565b6000613ae482613c3e565b9150613aef83613c3e565b9250827fffffffffffffffffffffffffffffffffffffffffffffffffffffffffffffffff03821115613b2457613b23613d1f565b5b828201905092915050565b6000613b3a82613c3e565b9150613b4583613c3e565b925082613b5557613b54613d4e565b5b828204905092915050565b6000613b6b82613c3e565b9150613b7683613c3e565b9250817fffffffffffffffffffffffffffffffffffffffffffffffffffffffffffffffff0483118215151615613baf57613bae613d1f565b5b828202905092915050565b6000613bc582613c3e565b9150613bd083613c3e565b925082821015613be357613be2613d1f565b5b828203905092915050565b6000613bf982613c1e565b9050919050565b60008115159050919050565b6000613c1782613bee565b9050919050565b600073ffffffffffffffffffffffffffffffffffffffff82169050919050565b6000819050919050565b60005b83811015613c66578082015181840152602081019050613c4b565b83811115613c75576000848401525b50505050565b6000613c8682613c3e565b91506000821415613c9a57613c99613d1f565b5b600182039050919050565b613cae82613dac565b810181811067ffffffffffffffff82111715613ccd57613ccc613d7d565b5b80604052505050565b6000613ce182613c3e565b91507fffffffffffffffffffffffffffffffffffffffffffffffffffffffffffffffff821415613d1457613d13613d1f565b5b600182019050919050565b7f4e487b7100000000000000000000000000000000000000000000000000000000600052601160045260246000fd5b7f4e487b7100000000000000000000000000000000000000000000000000000000600052601260045260246000fd5b7f4e487b7100000000000000000000000000000000000000000000000000000000600052604160045260246000fd5b6000601f19601f8301169050919050565b7f5472616e7366657248656c7065723a205452414e534645525f4641494c454400600082015250565b7f214465706f73697454696d650000000000000000000000000000000000000000600082015250565b7f6c6f636b6f757400000000000000000000000000000000000000000000000000600082015250565b7f2156414c49440000000000000000000000000000000000000000000000000000600082015250565b7f2153796e74680000000000000000000000000000000000000000000000000000600082015250565b7f2153414645000000000000000000000000000000000000000000000000000000600082015250565b7f5472616e7366657248656c7065723a205452414e534645525f46524f4d5f464160008201527f494c454400000000000000000000000000000000000000000000000000000000602082015250565b7f4c4f434b45440000000000000000000000000000000000000000000000000000600082015250565b7f5265656e7472616e637947756172643a207265656e7472616e742063616c6c00600082015250565b613f5d81613bee565b8114613f6857600080fd5b50565b613f7481613c00565b8114613f7f57600080fd5b50565b613f8b81613c0c565b8114613f9657600080fd5b50565b613fa281613c3e565b8114613fad57600080fd5b5056fea264697066735822122069846d2c3cc46bd6db833b102bcdd92733612eba02e92ec823e7cc61f2fc5cc764736f6c63430008030033",
  "linkReferences": {},
  "deployedLinkReferences": {}
}