{
  "_format": "hh-sol-artifact-1",
  "contractName": "SynthVault",
  "sourceName": "contracts/synthVault.sol",
  "abi": [
    {
      "inputs": [
        {
          "internalType": "address",
          "name": "_base",
          "type": "address"
        }
      ],
      "stateMutability": "nonpayable",
      "type": "constructor"
    },
    {
      "anonymous": false,
      "inputs": [
        {
          "indexed": true,
          "internalType": "address",
          "name": "synth",
          "type": "address"
        },
        {
          "indexed": true,
          "internalType": "address",
          "name": "member",
          "type": "address"
        },
        {
          "indexed": false,
          "internalType": "uint256",
          "name": "newDeposit",
          "type": "uint256"
        }
      ],
      "name": "MemberDeposits",
      "type": "event"
    },
    {
      "anonymous": false,
      "inputs": [
        {
          "indexed": true,
          "internalType": "address",
          "name": "synth",
          "type": "address"
        },
        {
          "indexed": true,
          "internalType": "address",
          "name": "member",
          "type": "address"
        },
        {
          "indexed": false,
          "internalType": "uint256",
          "name": "amount",
          "type": "uint256"
        }
      ],
      "name": "MemberHarvests",
      "type": "event"
    },
    {
      "anonymous": false,
      "inputs": [
        {
          "indexed": true,
          "internalType": "address",
          "name": "synth",
          "type": "address"
        },
        {
          "indexed": true,
          "internalType": "address",
          "name": "member",
          "type": "address"
        },
        {
          "indexed": false,
          "internalType": "uint256",
          "name": "amount",
          "type": "uint256"
        }
      ],
      "name": "MemberWithdraws",
      "type": "event"
    },
    {
      "inputs": [],
      "name": "BASE",
      "outputs": [
        {
          "internalType": "address",
          "name": "",
          "type": "address"
        }
      ],
      "stateMutability": "view",
      "type": "function"
    },
    {
      "inputs": [],
      "name": "DEPLOYER",
      "outputs": [
        {
          "internalType": "address",
          "name": "",
          "type": "address"
        }
      ],
      "stateMutability": "view",
      "type": "function"
    },
    {
      "inputs": [
        {
          "internalType": "address",
          "name": "synth",
          "type": "address"
        },
        {
          "internalType": "address",
          "name": "member",
          "type": "address"
        }
      ],
      "name": "calcCurrentReward",
      "outputs": [
        {
          "internalType": "uint256",
          "name": "reward",
          "type": "uint256"
        }
      ],
      "stateMutability": "nonpayable",
      "type": "function"
    },
    {
      "inputs": [
        {
          "internalType": "address",
          "name": "_synth",
          "type": "address"
        },
        {
          "internalType": "address",
          "name": "member",
          "type": "address"
        }
      ],
      "name": "calcReward",
      "outputs": [
        {
          "internalType": "uint256",
          "name": "_share",
          "type": "uint256"
        },
        {
          "internalType": "uint256",
          "name": "_vaultReward",
          "type": "uint256"
        }
      ],
      "stateMutability": "nonpayable",
      "type": "function"
    },
    {
      "inputs": [
        {
          "internalType": "address",
          "name": "synth",
          "type": "address"
        },
        {
          "internalType": "uint256",
          "name": "amount",
          "type": "uint256"
        }
      ],
      "name": "deposit",
      "outputs": [],
      "stateMutability": "nonpayable",
      "type": "function"
    },
    {
      "inputs": [
        {
          "internalType": "address",
          "name": "synth",
          "type": "address"
        },
        {
          "internalType": "address",
          "name": "member",
          "type": "address"
        }
      ],
      "name": "depositForMember",
      "outputs": [],
      "stateMutability": "nonpayable",
      "type": "function"
    },
    {
      "inputs": [],
      "name": "erasToEarn",
      "outputs": [
        {
          "internalType": "uint256",
          "name": "",
          "type": "uint256"
        }
      ],
      "stateMutability": "view",
      "type": "function"
    },
    {
      "inputs": [],
      "name": "genesis",
      "outputs": [
        {
          "internalType": "uint256",
          "name": "",
          "type": "uint256"
        }
      ],
      "stateMutability": "view",
      "type": "function"
    },
    {
      "inputs": [
        {
          "internalType": "address",
          "name": "member",
          "type": "address"
        },
        {
          "internalType": "address",
          "name": "synth",
          "type": "address"
        }
      ],
      "name": "getMemberDeposit",
      "outputs": [
        {
          "internalType": "uint256",
          "name": "",
          "type": "uint256"
        }
      ],
      "stateMutability": "view",
      "type": "function"
    },
    {
      "inputs": [
        {
          "internalType": "address",
          "name": "synth",
          "type": "address"
        },
        {
          "internalType": "address",
          "name": "member",
          "type": "address"
        }
      ],
      "name": "getMemberLastSynthTime",
      "outputs": [
        {
          "internalType": "uint256",
          "name": "",
          "type": "uint256"
        }
      ],
      "stateMutability": "view",
      "type": "function"
    },
    {
      "inputs": [
        {
          "internalType": "address",
          "name": "_synth",
          "type": "address"
        },
        {
          "internalType": "address",
          "name": "member",
          "type": "address"
        }
      ],
      "name": "getMemberSynthWeight",
      "outputs": [
        {
          "internalType": "uint256",
          "name": "memberSynthWeight",
          "type": "uint256"
        },
        {
          "internalType": "uint256",
          "name": "synthWeight",
          "type": "uint256"
        },
        {
          "internalType": "uint256",
          "name": "totalSynthWeight",
          "type": "uint256"
        }
      ],
      "stateMutability": "nonpayable",
      "type": "function"
    },
    {
      "inputs": [
        {
          "internalType": "address",
          "name": "synth",
          "type": "address"
        }
      ],
      "name": "getTotalDeposit",
      "outputs": [
        {
          "internalType": "uint256",
          "name": "",
          "type": "uint256"
        }
      ],
      "stateMutability": "view",
      "type": "function"
    },
    {
      "inputs": [
        {
          "internalType": "address[]",
          "name": "synthAssets",
          "type": "address[]"
        }
      ],
      "name": "harvestAll",
      "outputs": [
        {
          "internalType": "bool",
          "name": "",
          "type": "bool"
        }
      ],
      "stateMutability": "nonpayable",
      "type": "function"
    },
    {
      "inputs": [
        {
          "internalType": "address",
          "name": "synth",
          "type": "address"
        }
      ],
      "name": "harvestSingle",
      "outputs": [
        {
          "internalType": "bool",
          "name": "",
          "type": "bool"
        }
      ],
      "stateMutability": "nonpayable",
      "type": "function"
    },
    {
      "inputs": [],
      "name": "lastMonth",
      "outputs": [
        {
          "internalType": "uint256",
          "name": "",
          "type": "uint256"
        }
      ],
      "stateMutability": "view",
      "type": "function"
    },
    {
      "inputs": [],
      "name": "map30DVaultRevenue",
      "outputs": [
        {
          "internalType": "uint256",
          "name": "",
          "type": "uint256"
        }
      ],
      "stateMutability": "view",
      "type": "function"
    },
    {
      "inputs": [
        {
          "internalType": "address",
          "name": "",
          "type": "address"
        }
      ],
      "name": "mapMember_depositTime",
      "outputs": [
        {
          "internalType": "uint256",
          "name": "",
          "type": "uint256"
        }
      ],
      "stateMutability": "view",
      "type": "function"
    },
    {
      "inputs": [],
      "name": "mapPast30DVaultRevenue",
      "outputs": [
        {
          "internalType": "uint256",
          "name": "",
          "type": "uint256"
        }
      ],
      "stateMutability": "view",
      "type": "function"
    },
    {
      "inputs": [
        {
          "internalType": "address",
          "name": "",
          "type": "address"
        }
      ],
      "name": "mapTotalSynth_balance",
      "outputs": [
        {
          "internalType": "uint256",
          "name": "",
          "type": "uint256"
        }
      ],
      "stateMutability": "view",
      "type": "function"
    },
    {
      "inputs": [],
      "name": "minimumDepositTime",
      "outputs": [
        {
          "internalType": "uint256",
          "name": "",
          "type": "uint256"
        }
      ],
      "stateMutability": "view",
      "type": "function"
    },
    {
      "inputs": [],
      "name": "purgeDeployer",
      "outputs": [],
      "stateMutability": "nonpayable",
      "type": "function"
    },
    {
      "inputs": [],
      "name": "reserveBASE",
      "outputs": [
        {
          "internalType": "uint256",
          "name": "",
          "type": "uint256"
        }
      ],
      "stateMutability": "view",
      "type": "function"
    },
    {
      "inputs": [
        {
          "internalType": "uint256",
          "name": "",
          "type": "uint256"
        }
      ],
      "name": "revenueArray",
      "outputs": [
        {
          "internalType": "uint256",
          "name": "",
          "type": "uint256"
        }
      ],
      "stateMutability": "view",
      "type": "function"
    },
    {
      "inputs": [
        {
          "internalType": "uint256",
          "name": "_erasToEarn",
          "type": "uint256"
        },
        {
          "internalType": "uint256",
          "name": "_minTime",
          "type": "uint256"
        },
        {
          "internalType": "uint256",
          "name": "_vaultClaim",
          "type": "uint256"
        }
      ],
      "name": "setParams",
      "outputs": [],
      "stateMutability": "nonpayable",
      "type": "function"
    },
    {
      "inputs": [
        {
          "internalType": "uint256",
          "name": "_setSynthClaim",
          "type": "uint256"
        }
      ],
      "name": "setReserveClaim",
      "outputs": [],
      "stateMutability": "nonpayable",
      "type": "function"
    },
    {
      "inputs": [],
      "name": "vaultClaim",
      "outputs": [
        {
          "internalType": "uint256",
          "name": "",
          "type": "uint256"
        }
      ],
      "stateMutability": "view",
      "type": "function"
    },
    {
      "inputs": [
        {
          "internalType": "address",
          "name": "synth",
          "type": "address"
        },
        {
          "internalType": "uint256",
          "name": "basisPoints",
          "type": "uint256"
        }
      ],
      "name": "withdraw",
      "outputs": [],
      "stateMutability": "nonpayable",
      "type": "function"
    }
  ],
  "bytecode": "0x60c06040523480156200001157600080fd5b5060405162004465380380620044658339818101604052810190620000379190620000fe565b60016000819055508073ffffffffffffffffffffffffffffffffffffffff1660808173ffffffffffffffffffffffffffffffffffffffff1660601b8152505033600160006101000a81548173ffffffffffffffffffffffffffffffffffffffff021916908373ffffffffffffffffffffffffffffffffffffffff160217905550601e600381905550603c6002819055506103e86004819055504260a0818152505060006005819055505062000178565b600081519050620000f8816200015e565b92915050565b6000602082840312156200011157600080fd5b60006200012184828501620000e7565b91505092915050565b600062000137826200013e565b9050919050565b600073ffffffffffffffffffffffffffffffffffffffff82169050919050565b62000169816200012a565b81146200017557600080fd5b50565b60805160601c60a0516142af620001b6600039600061222d0152600081816113e5015281816124b10152818161257d0152612af901526142af6000f3fe608060405234801561001057600080fd5b50600436106101a95760003560e01c8063857184d1116100f9578063ca4f64c211610097578063ec342ad011610071578063ec342ad0146104fd578063f0337cdc1461051b578063f3fef3a31461054b578063ffe3d4a214610567576101a9565b8063ca4f64c21461046d578063ca8531a01461049d578063e9f27c3a146104cd576101a9565b8063a6dde131116100d3578063a6dde131146103d0578063a7f0b3de14610401578063b28fc23a1461041f578063c1b8411a1461044f576101a9565b8063857184d1146103525780638dfa9bcc1461038257806399d786ca146103b2576101a9565b80634335a95c116101665780635a0ce676116101405780635a0ce676146102ca5780636d85a7ea146102e65780636fc2ee5c146103045780637a94c2a514610322576101a9565b80634335a95c1461026257806347e7ef241461027e578063485084b71461029a576101a9565b8063036e21e5146101ae57806303a82138146101cc5780630b991d4d146101d65780630dd3af75146101f45780631c21088c146102125780632c07eebf14610244575b600080fd5b6101b6610583565b6040516101c39190613c86565b60405180910390f35b6101d4610589565b005b6101de6106e1565b6040516101eb9190613c86565b60405180910390f35b6101fc6106e7565b6040516102099190613c86565b60405180910390f35b61022c600480360381019061022791906136f7565b6106ed565b60405161023b93929190613cf3565b60405180910390f35b61024c610ea2565b6040516102599190613c86565b60405180910390f35b61027c600480360381019061027791906136f7565b610ea8565b005b61029860048036038101906102939190613733565b61112e565b005b6102b460048036038101906102af91906136a5565b611295565b6040516102c19190613c86565b60405180910390f35b6102e460048036038101906102df91906138d1565b6112ad565b005b6102ee6113db565b6040516102fb9190613c86565b60405180910390f35b61030c6113e1565b6040516103199190613c86565b60405180910390f35b61033c600480360381019061033791906136a5565b611515565b6040516103499190613b4b565b60405180910390f35b61036c600480360381019061036791906136a5565b611dbf565b6040516103799190613c86565b60405180910390f35b61039c600480360381019061039791906136f7565b611e08565b6040516103a99190613c86565b60405180910390f35b6103ba611e8f565b6040516103c79190613c86565b60405180910390f35b6103ea60048036038101906103e591906136f7565b611e95565b6040516103f8929190613cca565b60405180910390f35b61040961222b565b6040516104169190613c86565b60405180910390f35b610439600480360381019061043491906136a5565b61224f565b6040516104469190613c86565b60405180910390f35b610457612267565b6040516104649190613ad0565b60405180910390f35b6104876004803603810190610482919061376f565b61228d565b6040516104949190613b4b565b60405180910390f35b6104b760048036038101906104b291906136f7565b612305565b6040516104c49190613c86565b60405180910390f35b6104e760048036038101906104e291906136f7565b61238c565b6040516104f49190613c86565b60405180910390f35b61050561257b565b6040516105129190613ad0565b60405180910390f35b61053560048036038101906105309190613843565b61259f565b6040516105429190613c86565b60405180910390f35b61056560048036038101906105609190613733565b6125c3565b005b610581600480360381019061057c9190613843565b6129d7565b005b60025481565b600160009054906101000a900473ffffffffffffffffffffffffffffffffffffffff1673ffffffffffffffffffffffffffffffffffffffff163373ffffffffffffffffffffffffffffffffffffffff16148061069457506105e8612af5565b73ffffffffffffffffffffffffffffffffffffffff166398fabd3a6040518163ffffffff1660e01b815260040160206040518083038186803b15801561062d57600080fd5b505afa158015610641573d6000803e3d6000fd5b505050506040513d601f19601f8201168201806040525081019061066591906136ce565b73ffffffffffffffffffffffffffffffffffffffff163373ffffffffffffffffffffffffffffffffffffffff16145b61069d57600080fd5b6000600160006101000a81548173ffffffffffffffffffffffffffffffffffffffff021916908373ffffffffffffffffffffffffffffffffffffffff160217905550565b60065481565b60075481565b6000806000600115156106fe612af5565b73ffffffffffffffffffffffffffffffffffffffff16639d2cc4366040518163ffffffff1660e01b815260040160206040518083038186803b15801561074357600080fd5b505afa158015610757573d6000803e3d6000fd5b505050506040513d601f19601f8201168201806040525081019061077b91906136ce565b73ffffffffffffffffffffffffffffffffffffffff1663194e22ce6040518163ffffffff1660e01b8152600401602060405180830381600087803b1580156107c257600080fd5b505af11580156107d6573d6000803e3d6000fd5b505050506040513d601f19601f820116820180604052508101906107fa91906137f1565b1515141561083d576040517f08c379a000000000000000000000000000000000000000000000000000000000815260040161083490613c06565b60405180910390fd5b6000610847612af5565b73ffffffffffffffffffffffffffffffffffffffff1663b99b0a0c6040518163ffffffff1660e01b815260040160206040518083038186803b15801561088c57600080fd5b505afa1580156108a0573d6000803e3d6000fd5b505050506040513d601f19601f820116820180604052508101906108c491906136ce565b73ffffffffffffffffffffffffffffffffffffffff1663abc764da6040518163ffffffff1660e01b815260040160006040518083038186803b15801561090957600080fd5b505afa15801561091d573d6000803e3d6000fd5b505050506040513d6000823e3d601f19601f8201168201806040525081019061094691906137b0565b905060005b8151811015610bbc57600082828151811061098f577f4e487b7100000000000000000000000000000000000000000000000000000000600052603260045260246000fd5b602002602001015173ffffffffffffffffffffffffffffffffffffffff1663e1eddde36040518163ffffffff1660e01b8152600401602060405180830381600087803b1580156109de57600080fd5b505af11580156109f2573d6000803e3d6000fd5b505050506040513d601f19601f82011682018060405250810190610a1691906136ce565b9050600073ffffffffffffffffffffffffffffffffffffffff168173ffffffffffffffffffffffffffffffffffffffff1614610ba857610a54612af5565b73ffffffffffffffffffffffffffffffffffffffff16637b0e5c456040518163ffffffff1660e01b815260040160206040518083038186803b158015610a9957600080fd5b505afa158015610aad573d6000803e3d6000fd5b505050506040513d601f19601f82011682018060405250810190610ad191906136ce565b73ffffffffffffffffffffffffffffffffffffffff166348c0fd8f82600a60008573ffffffffffffffffffffffffffffffffffffffff1673ffffffffffffffffffffffffffffffffffffffff168152602001908152602001600020546040518363ffffffff1660e01b8152600401610b4a929190613b22565b60206040518083038186803b158015610b6257600080fd5b505afa158015610b76573d6000803e3d6000fd5b505050506040513d601f19601f82011682018060405250810190610b9a919061386c565b84610ba59190613da2565b93505b508080610bb490613f9f565b91505061094b565b50610bc5612af5565b73ffffffffffffffffffffffffffffffffffffffff16637b0e5c456040518163ffffffff1660e01b815260040160206040518083038186803b158015610c0a57600080fd5b505afa158015610c1e573d6000803e3d6000fd5b505050506040513d601f19601f82011682018060405250810190610c4291906136ce565b73ffffffffffffffffffffffffffffffffffffffff166348c0fd8f87600a60008a73ffffffffffffffffffffffffffffffffffffffff1673ffffffffffffffffffffffffffffffffffffffff168152602001908152602001600020546040518363ffffffff1660e01b8152600401610cbb929190613b22565b60206040518083038186803b158015610cd357600080fd5b505afa158015610ce7573d6000803e3d6000fd5b505050506040513d601f19601f82011682018060405250810190610d0b919061386c565b9250610d15612af5565b73ffffffffffffffffffffffffffffffffffffffff16637b0e5c456040518163ffffffff1660e01b815260040160206040518083038186803b158015610d5a57600080fd5b505afa158015610d6e573d6000803e3d6000fd5b505050506040513d601f19601f82011682018060405250810190610d9291906136ce565b73ffffffffffffffffffffffffffffffffffffffff166348c0fd8f87600960008973ffffffffffffffffffffffffffffffffffffffff1673ffffffffffffffffffffffffffffffffffffffff16815260200190815260200160002060008a73ffffffffffffffffffffffffffffffffffffffff1673ffffffffffffffffffffffffffffffffffffffff168152602001908152602001600020546040518363ffffffff1660e01b8152600401610e48929190613b22565b60206040518083038186803b158015610e6057600080fd5b505afa158015610e74573d6000803e3d6000fd5b505050506040513d601f19601f82011682018060405250810190610e98919061386c565b9350509250925092565b60035481565b60011515610eb4612af5565b73ffffffffffffffffffffffffffffffffffffffff1663b99b0a0c6040518163ffffffff1660e01b815260040160206040518083038186803b158015610ef957600080fd5b505afa158015610f0d573d6000803e3d6000fd5b505050506040513d601f19601f82011682018060405250810190610f3191906136ce565b73ffffffffffffffffffffffffffffffffffffffff16638dcb4c93336040518263ffffffff1660e01b8152600401610f699190613ad0565b60206040518083038186803b158015610f8157600080fd5b505afa158015610f95573d6000803e3d6000fd5b505050506040513d601f19601f82011682018060405250810190610fb991906137f1565b151514610fc557600080fd5b610fcd612af5565b73ffffffffffffffffffffffffffffffffffffffff1663b93ec54b6040518163ffffffff1660e01b815260040160206040518083038186803b15801561101257600080fd5b505afa158015611026573d6000803e3d6000fd5b505050506040513d601f19601f8201168201806040525081019061104a91906136ce565b73ffffffffffffffffffffffffffffffffffffffff16635e0237ea836040518263ffffffff1660e01b81526004016110829190613ad0565b60206040518083038186803b15801561109a57600080fd5b505afa1580156110ae573d6000803e3d6000fd5b505050506040513d601f19601f820116820180604052508101906110d291906137f1565b611111576040517f08c379a000000000000000000000000000000000000000000000000000000000815260040161110890613be6565b60405180910390fd5b600061111c83612b9a565b9050611129838383612ccc565b505050565b611136612af5565b73ffffffffffffffffffffffffffffffffffffffff1663b93ec54b6040518163ffffffff1660e01b815260040160206040518083038186803b15801561117b57600080fd5b505afa15801561118f573d6000803e3d6000fd5b505050506040513d601f19601f820116820180604052508101906111b391906136ce565b73ffffffffffffffffffffffffffffffffffffffff16635e0237ea836040518263ffffffff1660e01b81526004016111eb9190613ad0565b60206040518083038186803b15801561120357600080fd5b505afa158015611217573d6000803e3d6000fd5b505050506040513d601f19601f8201168201806040525081019061123b91906137f1565b61127a576040517f08c379a000000000000000000000000000000000000000000000000000000000815260040161127190613be6565b60405180910390fd5b61128682333084612ff2565b611291823383612ccc565b5050565b600a6020528060005260406000206000915090505481565b600160009054906101000a900473ffffffffffffffffffffffffffffffffffffffff1673ffffffffffffffffffffffffffffffffffffffff163373ffffffffffffffffffffffffffffffffffffffff1614806113b8575061130c612af5565b73ffffffffffffffffffffffffffffffffffffffff166398fabd3a6040518163ffffffff1660e01b815260040160206040518083038186803b15801561135157600080fd5b505afa158015611365573d6000803e3d6000fd5b505050506040513d601f19601f8201168201806040525081019061138991906136ce565b73ffffffffffffffffffffffffffffffffffffffff163373ffffffffffffffffffffffffffffffffffffffff16145b6113c157600080fd5b826003819055508160028190555080600481905550505050565b60045481565b60007f000000000000000000000000000000000000000000000000000000000000000073ffffffffffffffffffffffffffffffffffffffff166370a08231611427612af5565b73ffffffffffffffffffffffffffffffffffffffff16639d2cc4366040518163ffffffff1660e01b815260040160206040518083038186803b15801561146c57600080fd5b505afa158015611480573d6000803e3d6000fd5b505050506040513d601f19601f820116820180604052508101906114a491906136ce565b6040518263ffffffff1660e01b81526004016114c09190613ad0565b60206040518083038186803b1580156114d857600080fd5b505afa1580156114ec573d6000803e3d6000fd5b505050506040513d601f19601f82011682018060405250810190611510919061386c565b905090565b600061151f612af5565b73ffffffffffffffffffffffffffffffffffffffff1663b93ec54b6040518163ffffffff1660e01b815260040160206040518083038186803b15801561156457600080fd5b505afa158015611578573d6000803e3d6000fd5b505050506040513d601f19601f8201168201806040525081019061159c91906136ce565b73ffffffffffffffffffffffffffffffffffffffff16635e0237ea836040518263ffffffff1660e01b81526004016115d49190613ad0565b60206040518083038186803b1580156115ec57600080fd5b505afa158015611600573d6000803e3d6000fd5b505050506040513d601f19601f8201168201806040525081019061162491906137f1565b611663576040517f08c379a000000000000000000000000000000000000000000000000000000000815260040161165a90613be6565b60405180910390fd5b600061166f833361238c565b90506000811115611db557600254600b60003373ffffffffffffffffffffffffffffffffffffffff1673ffffffffffffffffffffffffffffffffffffffff16815260200190815260200160002060008573ffffffffffffffffffffffffffffffffffffffff1673ffffffffffffffffffffffffffffffffffffffff168152602001908152602001600020546117049190613da2565b4211611745576040517f08c379a000000000000000000000000000000000000000000000000000000000815260040161173c90613c46565b60405180910390fd5b60008373ffffffffffffffffffffffffffffffffffffffff16637535d2466040518163ffffffff1660e01b815260040160206040518083038186803b15801561178d57600080fd5b505afa1580156117a1573d6000803e3d6000fd5b505050506040513d601f19601f820116820180604052508101906117c591906136ce565b90508073ffffffffffffffffffffffffffffffffffffffff1663fff6cae96040518163ffffffff1660e01b8152600401600060405180830381600087803b15801561180f57600080fd5b505af1158015611823573d6000803e3d6000fd5b5050505060008173ffffffffffffffffffffffffffffffffffffffff166361cc24bb866040518263ffffffff1660e01b81526004016118629190613ad0565b602060405180830381600087803b15801561187c57600080fd5b505af1158015611890573d6000803e3d6000fd5b505050506040513d601f19601f820116820180604052508101906118b4919061386c565b905060006118c0612af5565b73ffffffffffffffffffffffffffffffffffffffff16637b0e5c456040518163ffffffff1660e01b815260040160206040518083038186803b15801561190557600080fd5b505afa158015611919573d6000803e3d6000fd5b505050506040513d601f19601f8201168201806040525081019061193d91906136ce565b73ffffffffffffffffffffffffffffffffffffffff16635f2c12e88473ffffffffffffffffffffffffffffffffffffffff166382bfefc86040518163ffffffff1660e01b815260040160206040518083038186803b15801561199e57600080fd5b505afa1580156119b2573d6000803e3d6000fd5b505050506040513d601f19601f820116820180604052508101906119d691906136ce565b866040518363ffffffff1660e01b81526004016119f4929190613b22565b60206040518083038186803b158015611a0c57600080fd5b505afa158015611a20573d6000803e3d6000fd5b505050506040513d601f19601f82011682018060405250810190611a44919061386c565b905080821015611bc557611a56612af5565b73ffffffffffffffffffffffffffffffffffffffff16639d2cc4366040518163ffffffff1660e01b815260040160206040518083038186803b158015611a9b57600080fd5b505afa158015611aaf573d6000803e3d6000fd5b505050506040513d601f19601f82011682018060405250810190611ad391906136ce565b73ffffffffffffffffffffffffffffffffffffffff16637d458baa85336040518363ffffffff1660e01b8152600401611b0d929190613ca1565b600060405180830381600087803b158015611b2757600080fd5b505af1158015611b3b573d6000803e3d6000fd5b5050505042600b60003373ffffffffffffffffffffffffffffffffffffffff1673ffffffffffffffffffffffffffffffffffffffff16815260200190815260200160002060008873ffffffffffffffffffffffffffffffffffffffff1673ffffffffffffffffffffffffffffffffffffffff16815260200190815260200160002081905550611d43565b611bcd612af5565b73ffffffffffffffffffffffffffffffffffffffff16639d2cc4366040518163ffffffff1660e01b815260040160206040518083038186803b158015611c1257600080fd5b505afa158015611c26573d6000803e3d6000fd5b505050506040513d601f19601f82011682018060405250810190611c4a91906136ce565b73ffffffffffffffffffffffffffffffffffffffff16637d458baa85856040518363ffffffff1660e01b8152600401611c84929190613ca1565b600060405180830381600087803b158015611c9e57600080fd5b505af1158015611cb2573d6000803e3d6000fd5b505050508273ffffffffffffffffffffffffffffffffffffffff1663f1bbdef2336040518263ffffffff1660e01b8152600401611cef9190613ad0565b6040805180830381600087803b158015611d0857600080fd5b505af1158015611d1c573d6000803e3d6000fd5b505050506040513d601f19601f82011682018060405250810190611d409190613895565b50505b611d4c8461312b565b3373ffffffffffffffffffffffffffffffffffffffff168673ffffffffffffffffffffffffffffffffffffffff167f509122099a522eb9860de32189d85affc5ff2d5f093c558c64a8a2427f7eba2086604051611da99190613c86565b60405180910390a35050505b6001915050919050565b6000600a60008373ffffffffffffffffffffffffffffffffffffffff1673ffffffffffffffffffffffffffffffffffffffff168152602001908152602001600020549050919050565b6000600960008473ffffffffffffffffffffffffffffffffffffffff1673ffffffffffffffffffffffffffffffffffffffff16815260200190815260200160002060008373ffffffffffffffffffffffffffffffffffffffff1673ffffffffffffffffffffffffffffffffffffffff16815260200190815260200160002054905092915050565b60055481565b6000806000806000611ea787876106ed565b9250925092506000600354611eba6113e1565b611ec49190613df8565b90506000611ed0612af5565b73ffffffffffffffffffffffffffffffffffffffff1663b93ec54b6040518163ffffffff1660e01b815260040160206040518083038186803b158015611f1557600080fd5b505afa158015611f29573d6000803e3d6000fd5b505050506040513d601f19601f82011682018060405250810190611f4d91906136ce565b73ffffffffffffffffffffffffffffffffffffffff166378a45a246040518163ffffffff1660e01b8152600401602060405180830381600087803b158015611f9457600080fd5b505af1158015611fa8573d6000803e3d6000fd5b505050506040513d601f19601f82011682018060405250810190611fcc919061386c565b90506127108160045484611fe09190613e29565b611fea9190613df8565b611ff49190613df8565b95506000612000612af5565b73ffffffffffffffffffffffffffffffffffffffff16637b0e5c456040518163ffffffff1660e01b815260040160206040518083038186803b15801561204557600080fd5b505afa158015612059573d6000803e3d6000fd5b505050506040513d601f19601f8201168201806040525081019061207d91906136ce565b73ffffffffffffffffffffffffffffffffffffffff16631ba326c486868a6040518463ffffffff1660e01b81526004016120b993929190613cf3565b60206040518083038186803b1580156120d157600080fd5b505afa1580156120e5573d6000803e3d6000fd5b505050506040513d601f19601f82011682018060405250810190612109919061386c565b9050612113612af5565b73ffffffffffffffffffffffffffffffffffffffff16637b0e5c456040518163ffffffff1660e01b815260040160206040518083038186803b15801561215857600080fd5b505afa15801561216c573d6000803e3d6000fd5b505050506040513d601f19601f8201168201806040525081019061219091906136ce565b73ffffffffffffffffffffffffffffffffffffffff16631ba326c48787846040518463ffffffff1660e01b81526004016121cc93929190613cf3565b60206040518083038186803b1580156121e457600080fd5b505afa1580156121f8573d6000803e3d6000fd5b505050506040513d601f19601f8201168201806040525081019061221c919061386c565b97505050505050509250929050565b7f000000000000000000000000000000000000000000000000000000000000000081565b600c6020528060005260406000206000915090505481565b600160009054906101000a900473ffffffffffffffffffffffffffffffffffffffff1681565b600080600090505b82518110156122fb576122e78382815181106122da577f4e487b7100000000000000000000000000000000000000000000000000000000600052603260045260246000fd5b6020026020010151611515565b5080806122f390613f9f565b915050612295565b5060019050919050565b6000600b60008373ffffffffffffffffffffffffffffffffffffffff1673ffffffffffffffffffffffffffffffffffffffff16815260200190815260200160002060008473ffffffffffffffffffffffffffffffffffffffff1673ffffffffffffffffffffffffffffffffffffffff16815260200190815260200160002054905092915050565b6000600b60008373ffffffffffffffffffffffffffffffffffffffff1673ffffffffffffffffffffffffffffffffffffffff16815260200190815260200160002060008473ffffffffffffffffffffffffffffffffffffffff1673ffffffffffffffffffffffffffffffffffffffff16815260200190815260200160002054421115612575576000600b60008473ffffffffffffffffffffffffffffffffffffffff1673ffffffffffffffffffffffffffffffffffffffff16815260200190815260200160002060008573ffffffffffffffffffffffffffffffffffffffff1673ffffffffffffffffffffffffffffffffffffffff168152602001908152602001600020544261249c9190613e83565b90506000806124ab8686611e95565b915091507f000000000000000000000000000000000000000000000000000000000000000073ffffffffffffffffffffffffffffffffffffffff16636b92a3b66040518163ffffffff1660e01b815260040160206040518083038186803b15801561251557600080fd5b505afa158015612529573d6000803e3d6000fd5b505050506040513d601f19601f8201168201806040525081019061254d919061386c565b83836125599190613e29565b6125639190613df8565b935080841115612571578093505b5050505b92915050565b7f000000000000000000000000000000000000000000000000000000000000000081565b600881815481106125af57600080fd5b906000526020600020016000915090505481565b60026000541415612609576040517f08c379a000000000000000000000000000000000000000000000000000000000815260040161260090613c66565b60405180910390fd5b600260008190555060008111612654576040517f08c379a000000000000000000000000000000000000000000000000000000000815260040161264b90613bc6565b60405180910390fd5b600254600c60003373ffffffffffffffffffffffffffffffffffffffff1673ffffffffffffffffffffffffffffffffffffffff168152602001908152602001600020546126a19190613da2565b42116126e2576040517f08c379a00000000000000000000000000000000000000000000000000000000081526004016126d990613ba6565b60405180910390fd5b60006126ec612af5565b73ffffffffffffffffffffffffffffffffffffffff16637b0e5c456040518163ffffffff1660e01b815260040160206040518083038186803b15801561273157600080fd5b505afa158015612745573d6000803e3d6000fd5b505050506040513d601f19601f8201168201806040525081019061276991906136ce565b73ffffffffffffffffffffffffffffffffffffffff1663714270ab83600960003373ffffffffffffffffffffffffffffffffffffffff1673ffffffffffffffffffffffffffffffffffffffff16815260200190815260200160002060008773ffffffffffffffffffffffffffffffffffffffff1673ffffffffffffffffffffffffffffffffffffffff168152602001908152602001600020546040518363ffffffff1660e01b815260040161281f929190613cca565b60206040518083038186803b15801561283757600080fd5b505afa15801561284b573d6000803e3d6000fd5b505050506040513d601f19601f8201168201806040525081019061286f919061386c565b905080600960003373ffffffffffffffffffffffffffffffffffffffff1673ffffffffffffffffffffffffffffffffffffffff16815260200190815260200160002060008573ffffffffffffffffffffffffffffffffffffffff1673ffffffffffffffffffffffffffffffffffffffff16815260200190815260200160002060008282546128fd9190613e83565b9250508190555080600a60008573ffffffffffffffffffffffffffffffffffffffff1673ffffffffffffffffffffffffffffffffffffffff16815260200190815260200160002060008282546129539190613e83565b92505081905550612965833383613194565b3373ffffffffffffffffffffffffffffffffffffffff168373ffffffffffffffffffffffffffffffffffffffff167f12dcb5d4117cb4675d56c72f030db8f0f4dd34f875fe484eea4cf0790b5deaa3836040516129c29190613c86565b60405180910390a35060016000819055505050565b600160009054906101000a900473ffffffffffffffffffffffffffffffffffffffff1673ffffffffffffffffffffffffffffffffffffffff163373ffffffffffffffffffffffffffffffffffffffff161480612ae25750612a36612af5565b73ffffffffffffffffffffffffffffffffffffffff166398fabd3a6040518163ffffffff1660e01b815260040160206040518083038186803b158015612a7b57600080fd5b505afa158015612a8f573d6000803e3d6000fd5b505050506040513d601f19601f82011682018060405250810190612ab391906136ce565b73ffffffffffffffffffffffffffffffffffffffff163373ffffffffffffffffffffffffffffffffffffffff16145b612aeb57600080fd5b8060048190555050565b60007f000000000000000000000000000000000000000000000000000000000000000073ffffffffffffffffffffffffffffffffffffffff166398fabd3a6040518163ffffffff1660e01b815260040160206040518083038186803b158015612b5d57600080fd5b505afa158015612b71573d6000803e3d6000fd5b505050506040513d601f19601f82011682018060405250810190612b95919061381a565b905090565b6000808273ffffffffffffffffffffffffffffffffffffffff166370a08231306040518263ffffffff1660e01b8152600401612bd69190613ad0565b60206040518083038186803b158015612bee57600080fd5b505afa158015612c02573d6000803e3d6000fd5b505050506040513d601f19601f82011682018060405250810190612c26919061386c565b9050600a60008473ffffffffffffffffffffffffffffffffffffffff1673ffffffffffffffffffffffffffffffffffffffff16815260200190815260200160002054811115612cc157600a60008473ffffffffffffffffffffffffffffffffffffffff1673ffffffffffffffffffffffffffffffffffffffff1681526020019081526020016000205481612cba9190613e83565b9150612cc6565b600091505b50919050565b60008111612d0f576040517f08c379a0000000000000000000000000000000000000000000000000000000008152600401612d0690613bc6565b60405180910390fd5b600254600b60008473ffffffffffffffffffffffffffffffffffffffff1673ffffffffffffffffffffffffffffffffffffffff16815260200190815260200160002060008573ffffffffffffffffffffffffffffffffffffffff1673ffffffffffffffffffffffffffffffffffffffff16815260200190815260200160002054612d999190613da2565b4211612dda576040517f08c379a0000000000000000000000000000000000000000000000000000000008152600401612dd190613b86565b60405180910390fd5b42600b60008473ffffffffffffffffffffffffffffffffffffffff1673ffffffffffffffffffffffffffffffffffffffff16815260200190815260200160002060008573ffffffffffffffffffffffffffffffffffffffff1673ffffffffffffffffffffffffffffffffffffffff1681526020019081526020016000208190555042600c60008473ffffffffffffffffffffffffffffffffffffffff1673ffffffffffffffffffffffffffffffffffffffff1681526020019081526020016000208190555080600960008473ffffffffffffffffffffffffffffffffffffffff1673ffffffffffffffffffffffffffffffffffffffff16815260200190815260200160002060008573ffffffffffffffffffffffffffffffffffffffff1673ffffffffffffffffffffffffffffffffffffffff1681526020019081526020016000206000828254612f2b9190613da2565b9250508190555080600a60008573ffffffffffffffffffffffffffffffffffffffff1673ffffffffffffffffffffffffffffffffffffffff1681526020019081526020016000206000828254612f819190613da2565b925050819055508173ffffffffffffffffffffffffffffffffffffffff168373ffffffffffffffffffffffffffffffffffffffff167f5f9b5a75581a29d72b32414a5df7f1ef124b7787b38616fb8fdcad76179127c283604051612fe59190613c86565b60405180910390a3505050565b6000808573ffffffffffffffffffffffffffffffffffffffff166323b872dd86868660405160240161302693929190613aeb565b6040516020818303038152906040529060e01b6020820180517bffffffffffffffffffffffffffffffffffffffffffffffffffffffff83818316178352505050506040516130749190613ab9565b6000604051808303816000865af19150503d80600081146130b1576040519150601f19603f3d011682016040523d82523d6000602084013e6130b6565b606091505b50915091508180156130e457506000815114806130e35750808060200190518101906130e291906137f1565b5b5b613123576040517f08c379a000000000000000000000000000000000000000000000000000000000815260040161311a90613c26565b60405180910390fd5b505050505050565b6000600554141561313e57426005819055505b62278d0060055461314f9190613da2565b421161316e57806006546131639190613da2565b600681905550613191565b426005819055506006546007819055506131896007546132ca565b806006819055505b50565b6000808473ffffffffffffffffffffffffffffffffffffffff1663a9059cbb85856040516024016131c6929190613b22565b6040516020818303038152906040529060e01b6020820180517bffffffffffffffffffffffffffffffffffffffffffffffffffffffff83818316178352505050506040516132149190613ab9565b6000604051808303816000865af19150503d8060008114613251576040519150601f19603f3d011682016040523d82523d6000602084013e613256565b606091505b5091509150818015613284575060008151148061328357508080602001905181019061328291906137f1565b5b5b6132c3576040517f08c379a00000000000000000000000000000000000000000000000000000000081526004016132ba90613b66565b60405180910390fd5b5050505050565b60026008805490501461330557600881908060018154018082558091505060019003906000526020600020016000909190919091505561330f565b61330e81613312565b5b50565b6000600880548060200260200160405190810160405280929190818152602001828054801561336057602002820191906000526020600020905b81548152602001906001019080831161334c575b50505050509050600081519050600060018261337c9190613e83565b90505b600081111561342d57826001826133969190613e83565b815181106133cd577f4e487b7100000000000000000000000000000000000000000000000000000000600052603260045260246000fd5b602002602001015183828151811061340e577f4e487b7100000000000000000000000000000000000000000000000000000000600052603260045260246000fd5b602002602001018181525050808061342590613f44565b91505061337f565b508282600081518110613469577f4e487b7100000000000000000000000000000000000000000000000000000000600052603260045260246000fd5b602002602001018181525050816008908051906020019061348b929190613491565b50505050565b8280548282559060005260206000209081019282156134cd579160200282015b828111156134cc5782518255916020019190600101906134b1565b5b5090506134da91906134de565b5090565b5b808211156134f75760008160009055506001016134df565b5090565b600061350e61350984613d4f565b613d2a565b9050808382526020820190508285602086028201111561352d57600080fd5b60005b8581101561355d578161354388826135d3565b845260208401935060208301925050600181019050613530565b5050509392505050565b600061357a61357584613d4f565b613d2a565b9050808382526020820190508285602086028201111561359957600080fd5b60005b858110156135c957816135af88826135e8565b84526020840193506020830192505060018101905061359c565b5050509392505050565b6000813590506135e28161421d565b92915050565b6000815190506135f78161421d565b92915050565b600082601f83011261360e57600080fd5b813561361e8482602086016134fb565b91505092915050565b600082601f83011261363857600080fd5b8151613648848260208601613567565b91505092915050565b60008151905061366081614234565b92915050565b6000815190506136758161424b565b92915050565b60008135905061368a81614262565b92915050565b60008151905061369f81614262565b92915050565b6000602082840312156136b757600080fd5b60006136c5848285016135d3565b91505092915050565b6000602082840312156136e057600080fd5b60006136ee848285016135e8565b91505092915050565b6000806040838503121561370a57600080fd5b6000613718858286016135d3565b9250506020613729858286016135d3565b9150509250929050565b6000806040838503121561374657600080fd5b6000613754858286016135d3565b92505060206137658582860161367b565b9150509250929050565b60006020828403121561378157600080fd5b600082013567ffffffffffffffff81111561379b57600080fd5b6137a7848285016135fd565b91505092915050565b6000602082840312156137c257600080fd5b600082015167ffffffffffffffff8111156137dc57600080fd5b6137e884828501613627565b91505092915050565b60006020828403121561380357600080fd5b600061381184828501613651565b91505092915050565b60006020828403121561382c57600080fd5b600061383a84828501613666565b91505092915050565b60006020828403121561385557600080fd5b60006138638482850161367b565b91505092915050565b60006020828403121561387e57600080fd5b600061388c84828501613690565b91505092915050565b600080604083850312156138a857600080fd5b60006138b685828601613690565b92505060206138c785828601613690565b9150509250929050565b6000806000606084860312156138e657600080fd5b60006138f48682870161367b565b93505060206139058682870161367b565b92505060406139168682870161367b565b9150509250925092565b61392981613eb7565b82525050565b61393881613ec9565b82525050565b600061394982613d7b565b6139538185613d86565b9350613963818560208601613f11565b80840191505092915050565b600061397c601f83613d91565b915061398782614086565b602082019050919050565b600061399f600c83613d91565b91506139aa826140af565b602082019050919050565b60006139c2600783613d91565b91506139cd826140d8565b602082019050919050565b60006139e5600683613d91565b91506139f082614101565b602082019050919050565b6000613a08600683613d91565b9150613a138261412a565b602082019050919050565b6000613a2b600583613d91565b9150613a3682614153565b602082019050919050565b6000613a4e602483613d91565b9150613a598261417c565b604082019050919050565b6000613a71600683613d91565b9150613a7c826141cb565b602082019050919050565b6000613a94601f83613d91565b9150613a9f826141f4565b602082019050919050565b613ab381613f07565b82525050565b6000613ac5828461393e565b915081905092915050565b6000602082019050613ae56000830184613920565b92915050565b6000606082019050613b006000830186613920565b613b0d6020830185613920565b613b1a6040830184613aaa565b949350505050565b6000604082019050613b376000830185613920565b613b446020830184613aaa565b9392505050565b6000602082019050613b60600083018461392f565b92915050565b60006020820190508181036000830152613b7f8161396f565b9050919050565b60006020820190508181036000830152613b9f81613992565b9050919050565b60006020820190508181036000830152613bbf816139b5565b9050919050565b60006020820190508181036000830152613bdf816139d8565b9050919050565b60006020820190508181036000830152613bff816139fb565b9050919050565b60006020820190508181036000830152613c1f81613a1e565b9050919050565b60006020820190508181036000830152613c3f81613a41565b9050919050565b60006020820190508181036000830152613c5f81613a64565b9050919050565b60006020820190508181036000830152613c7f81613a87565b9050919050565b6000602082019050613c9b6000830184613aaa565b92915050565b6000604082019050613cb66000830185613aaa565b613cc36020830184613920565b9392505050565b6000604082019050613cdf6000830185613aaa565b613cec6020830184613aaa565b9392505050565b6000606082019050613d086000830186613aaa565b613d156020830185613aaa565b613d226040830184613aaa565b949350505050565b6000613d34613d45565b9050613d408282613f6e565b919050565b6000604051905090565b600067ffffffffffffffff821115613d6a57613d69614046565b5b602082029050602081019050919050565b600081519050919050565b600081905092915050565b600082825260208201905092915050565b6000613dad82613f07565b9150613db883613f07565b9250827fffffffffffffffffffffffffffffffffffffffffffffffffffffffffffffffff03821115613ded57613dec613fe8565b5b828201905092915050565b6000613e0382613f07565b9150613e0e83613f07565b925082613e1e57613e1d614017565b5b828204905092915050565b6000613e3482613f07565b9150613e3f83613f07565b9250817fffffffffffffffffffffffffffffffffffffffffffffffffffffffffffffffff0483118215151615613e7857613e77613fe8565b5b828202905092915050565b6000613e8e82613f07565b9150613e9983613f07565b925082821015613eac57613eab613fe8565b5b828203905092915050565b6000613ec282613ee7565b9050919050565b60008115159050919050565b6000613ee082613eb7565b9050919050565b600073ffffffffffffffffffffffffffffffffffffffff82169050919050565b6000819050919050565b60005b83811015613f2f578082015181840152602081019050613f14565b83811115613f3e576000848401525b50505050565b6000613f4f82613f07565b91506000821415613f6357613f62613fe8565b5b600182039050919050565b613f7782614075565b810181811067ffffffffffffffff82111715613f9657613f95614046565b5b80604052505050565b6000613faa82613f07565b91507fffffffffffffffffffffffffffffffffffffffffffffffffffffffffffffffff821415613fdd57613fdc613fe8565b5b600182019050919050565b7f4e487b7100000000000000000000000000000000000000000000000000000000600052601160045260246000fd5b7f4e487b7100000000000000000000000000000000000000000000000000000000600052601260045260246000fd5b7f4e487b7100000000000000000000000000000000000000000000000000000000600052604160045260246000fd5b6000601f19601f8301169050919050565b7f5472616e7366657248656c7065723a205452414e534645525f4641494c454400600082015250565b7f214465706f73697454696d650000000000000000000000000000000000000000600082015250565b7f6c6f636b6f757400000000000000000000000000000000000000000000000000600082015250565b7f2156414c49440000000000000000000000000000000000000000000000000000600082015250565b7f2153796e74680000000000000000000000000000000000000000000000000000600082015250565b7f2153414645000000000000000000000000000000000000000000000000000000600082015250565b7f5472616e7366657248656c7065723a205452414e534645525f46524f4d5f464160008201527f494c454400000000000000000000000000000000000000000000000000000000602082015250565b7f4c4f434b45440000000000000000000000000000000000000000000000000000600082015250565b7f5265656e7472616e637947756172643a207265656e7472616e742063616c6c00600082015250565b61422681613eb7565b811461423157600080fd5b50565b61423d81613ec9565b811461424857600080fd5b50565b61425481613ed5565b811461425f57600080fd5b50565b61426b81613f07565b811461427657600080fd5b5056fea26469706673582212208256a19394257cc348c017d5cbbac93ce9221aa55096fdd7bbf24953f936f08764736f6c63430008030033",
  "linkReferences": {},
  "deployedLinkReferences": {}
}