{
  "_format": "hh-sol-artifact-1",
  "contractName": "SynthVault",
  "sourceName": "contracts/synthVault.sol",
  "abi": [
    {
      "inputs": [
        {
          "internalType": "address",
          "name": "_base",
          "type": "address"
        }
      ],
      "stateMutability": "nonpayable",
      "type": "constructor"
    },
    {
      "anonymous": false,
      "inputs": [
        {
          "indexed": true,
          "internalType": "address",
          "name": "synth",
          "type": "address"
        },
        {
          "indexed": true,
          "internalType": "address",
          "name": "member",
          "type": "address"
        },
        {
          "indexed": false,
          "internalType": "uint256",
          "name": "newDeposit",
          "type": "uint256"
        },
        {
          "indexed": false,
          "internalType": "uint256",
          "name": "weight",
          "type": "uint256"
        },
        {
          "indexed": false,
          "internalType": "uint256",
          "name": "totalWeight",
          "type": "uint256"
        }
      ],
      "name": "MemberDeposits",
      "type": "event"
    },
    {
      "anonymous": false,
      "inputs": [
        {
          "indexed": true,
          "internalType": "address",
          "name": "synth",
          "type": "address"
        },
        {
          "indexed": true,
          "internalType": "address",
          "name": "member",
          "type": "address"
        },
        {
          "indexed": false,
          "internalType": "uint256",
          "name": "amount",
          "type": "uint256"
        },
        {
          "indexed": false,
          "internalType": "uint256",
          "name": "weight",
          "type": "uint256"
        },
        {
          "indexed": false,
          "internalType": "uint256",
          "name": "totalWeight",
          "type": "uint256"
        }
      ],
      "name": "MemberHarvests",
      "type": "event"
    },
    {
      "anonymous": false,
      "inputs": [
        {
          "indexed": true,
          "internalType": "address",
          "name": "synth",
          "type": "address"
        },
        {
          "indexed": true,
          "internalType": "address",
          "name": "member",
          "type": "address"
        },
        {
          "indexed": false,
          "internalType": "uint256",
          "name": "amount",
          "type": "uint256"
        },
        {
          "indexed": false,
          "internalType": "uint256",
          "name": "weight",
          "type": "uint256"
        },
        {
          "indexed": false,
          "internalType": "uint256",
          "name": "totalWeight",
          "type": "uint256"
        }
      ],
      "name": "MemberWithdraws",
      "type": "event"
    },
    {
      "inputs": [],
      "name": "BASE",
      "outputs": [
        {
          "internalType": "address",
          "name": "",
          "type": "address"
        }
      ],
      "stateMutability": "view",
      "type": "function"
    },
    {
      "inputs": [],
      "name": "DEPLOYER",
      "outputs": [
        {
          "internalType": "address",
          "name": "",
          "type": "address"
        }
      ],
      "stateMutability": "view",
      "type": "function"
    },
    {
      "inputs": [
        {
          "internalType": "address",
          "name": "synth",
          "type": "address"
        },
        {
          "internalType": "address",
          "name": "member",
          "type": "address"
        }
      ],
      "name": "calcCurrentReward",
      "outputs": [
        {
          "internalType": "uint256",
          "name": "reward",
          "type": "uint256"
        }
      ],
      "stateMutability": "view",
      "type": "function"
    },
    {
      "inputs": [
        {
          "internalType": "address",
          "name": "synth",
          "type": "address"
        },
        {
          "internalType": "address",
          "name": "member",
          "type": "address"
        }
      ],
      "name": "calcReward",
      "outputs": [
        {
          "internalType": "uint256",
          "name": "",
          "type": "uint256"
        }
      ],
      "stateMutability": "view",
      "type": "function"
    },
    {
      "inputs": [
        {
          "internalType": "address",
          "name": "synth",
          "type": "address"
        },
        {
          "internalType": "uint256",
          "name": "amount",
          "type": "uint256"
        }
      ],
      "name": "deposit",
      "outputs": [],
      "stateMutability": "nonpayable",
      "type": "function"
    },
    {
      "inputs": [
        {
          "internalType": "address",
          "name": "synth",
          "type": "address"
        },
        {
          "internalType": "address",
          "name": "member",
          "type": "address"
        },
        {
          "internalType": "uint256",
          "name": "amount",
          "type": "uint256"
        }
      ],
      "name": "depositForMember",
      "outputs": [],
      "stateMutability": "nonpayable",
      "type": "function"
    },
    {
      "inputs": [],
      "name": "erasToEarn",
      "outputs": [
        {
          "internalType": "uint256",
          "name": "",
          "type": "uint256"
        }
      ],
      "stateMutability": "view",
      "type": "function"
    },
    {
      "inputs": [],
      "name": "genesis",
      "outputs": [
        {
          "internalType": "uint256",
          "name": "",
          "type": "uint256"
        }
      ],
      "stateMutability": "view",
      "type": "function"
    },
    {
      "inputs": [
        {
          "internalType": "address",
          "name": "synth",
          "type": "address"
        },
        {
          "internalType": "address",
          "name": "member",
          "type": "address"
        }
      ],
      "name": "getMemberDeposit",
      "outputs": [
        {
          "internalType": "uint256",
          "name": "",
          "type": "uint256"
        }
      ],
      "stateMutability": "view",
      "type": "function"
    },
    {
      "inputs": [
        {
          "internalType": "address",
          "name": "synth",
          "type": "address"
        },
        {
          "internalType": "address",
          "name": "member",
          "type": "address"
        }
      ],
      "name": "getMemberLastSynthTime",
      "outputs": [
        {
          "internalType": "uint256",
          "name": "",
          "type": "uint256"
        }
      ],
      "stateMutability": "view",
      "type": "function"
    },
    {
      "inputs": [
        {
          "internalType": "address",
          "name": "member",
          "type": "address"
        }
      ],
      "name": "getMemberLastTime",
      "outputs": [
        {
          "internalType": "uint256",
          "name": "",
          "type": "uint256"
        }
      ],
      "stateMutability": "view",
      "type": "function"
    },
    {
      "inputs": [
        {
          "internalType": "address",
          "name": "synth",
          "type": "address"
        },
        {
          "internalType": "address",
          "name": "member",
          "type": "address"
        }
      ],
      "name": "getMemberSynthWeight",
      "outputs": [
        {
          "internalType": "uint256",
          "name": "",
          "type": "uint256"
        }
      ],
      "stateMutability": "view",
      "type": "function"
    },
    {
      "inputs": [
        {
          "internalType": "address",
          "name": "member",
          "type": "address"
        }
      ],
      "name": "getMemberWeight",
      "outputs": [
        {
          "internalType": "uint256",
          "name": "",
          "type": "uint256"
        }
      ],
      "stateMutability": "view",
      "type": "function"
    },
    {
      "inputs": [],
      "name": "getStakeSynthLength",
      "outputs": [
        {
          "internalType": "uint256",
          "name": "",
          "type": "uint256"
        }
      ],
      "stateMutability": "view",
      "type": "function"
    },
    {
      "inputs": [],
      "name": "harvestAll",
      "outputs": [
        {
          "internalType": "bool",
          "name": "",
          "type": "bool"
        }
      ],
      "stateMutability": "nonpayable",
      "type": "function"
    },
    {
      "inputs": [
        {
          "internalType": "address",
          "name": "synth",
          "type": "address"
        }
      ],
      "name": "harvestSingle",
      "outputs": [
        {
          "internalType": "bool",
          "name": "",
          "type": "bool"
        }
      ],
      "stateMutability": "nonpayable",
      "type": "function"
    },
    {
      "inputs": [
        {
          "internalType": "address",
          "name": "",
          "type": "address"
        }
      ],
      "name": "lastBlock",
      "outputs": [
        {
          "internalType": "uint256",
          "name": "",
          "type": "uint256"
        }
      ],
      "stateMutability": "view",
      "type": "function"
    },
    {
      "inputs": [],
      "name": "map30DVaultRevenue",
      "outputs": [
        {
          "internalType": "uint256",
          "name": "",
          "type": "uint256"
        }
      ],
      "stateMutability": "view",
      "type": "function"
    },
    {
      "inputs": [],
      "name": "mapPast30DVaultRevenue",
      "outputs": [
        {
          "internalType": "uint256",
          "name": "",
          "type": "uint256"
        }
      ],
      "stateMutability": "view",
      "type": "function"
    },
    {
      "inputs": [],
      "name": "minimumDepositTime",
      "outputs": [
        {
          "internalType": "uint256",
          "name": "",
          "type": "uint256"
        }
      ],
      "stateMutability": "view",
      "type": "function"
    },
    {
      "inputs": [],
      "name": "reserveBASE",
      "outputs": [
        {
          "internalType": "uint256",
          "name": "",
          "type": "uint256"
        }
      ],
      "stateMutability": "view",
      "type": "function"
    },
    {
      "inputs": [
        {
          "internalType": "uint256",
          "name": "",
          "type": "uint256"
        }
      ],
      "name": "revenueArray",
      "outputs": [
        {
          "internalType": "uint256",
          "name": "",
          "type": "uint256"
        }
      ],
      "stateMutability": "view",
      "type": "function"
    },
    {
      "inputs": [
        {
          "internalType": "uint256",
          "name": "one",
          "type": "uint256"
        },
        {
          "internalType": "uint256",
          "name": "two",
          "type": "uint256"
        },
        {
          "internalType": "uint256",
          "name": "three",
          "type": "uint256"
        }
      ],
      "name": "setParams",
      "outputs": [],
      "stateMutability": "nonpayable",
      "type": "function"
    },
    {
      "inputs": [
        {
          "internalType": "uint256",
          "name": "",
          "type": "uint256"
        }
      ],
      "name": "stakedSynthAssets",
      "outputs": [
        {
          "internalType": "address",
          "name": "",
          "type": "address"
        }
      ],
      "stateMutability": "view",
      "type": "function"
    },
    {
      "inputs": [],
      "name": "totalWeight",
      "outputs": [
        {
          "internalType": "uint256",
          "name": "",
          "type": "uint256"
        }
      ],
      "stateMutability": "view",
      "type": "function"
    },
    {
      "inputs": [],
      "name": "vaultClaim",
      "outputs": [
        {
          "internalType": "uint256",
          "name": "",
          "type": "uint256"
        }
      ],
      "stateMutability": "view",
      "type": "function"
    },
    {
      "inputs": [
        {
          "internalType": "address",
          "name": "synth",
          "type": "address"
        },
        {
          "internalType": "uint256",
          "name": "basisPoints",
          "type": "uint256"
        }
      ],
      "name": "withdraw",
      "outputs": [
        {
          "internalType": "uint256",
          "name": "redeemedAmount",
          "type": "uint256"
        }
      ],
      "stateMutability": "nonpayable",
      "type": "function"
    }
  ],
  "bytecode": "0x60806040523480156200001157600080fd5b50604051620035f6380380620035f68339818101604052810190620000379190620000ff565b806000806101000a81548173ffffffffffffffffffffffffffffffffffffffff021916908373ffffffffffffffffffffffffffffffffffffffff16021790555033600160006101000a81548173ffffffffffffffffffffffffffffffffffffffff021916908373ffffffffffffffffffffffffffffffffffffffff160217905550601e600481905550610e106002819055506103e86005819055504260088190555060006007819055505062000179565b600081519050620000f9816200015f565b92915050565b6000602082840312156200011257600080fd5b60006200012284828501620000e8565b91505092915050565b600062000138826200013f565b9050919050565b600073ffffffffffffffffffffffffffffffffffffffff82169050919050565b6200016a816200012b565b81146200017657600080fd5b50565b61346d80620001896000396000f3fe608060405234801561001057600080fd5b50600436106101a95760003560e01c80638ed955b9116100f9578063c420bb8c11610097578063e9f27c3a11610071578063e9f27c3a146104fc578063ec342ad01461052c578063f0337cdc1461054a578063f3fef3a31461057a576101a9565b8063c420bb8c1461046c578063ca8531a01461049c578063d90c7dfb146104cc576101a9565b8063a6dde131116100d3578063a6dde131146103e4578063a7f0b3de14610414578063bf58d0ef14610432578063c1b8411a1461044e576101a9565b80638ed955b914610378578063952ca92c1461039657806396c82e57146103c6576101a9565b806347e7ef24116101665780636d85a7ea116101405780636d85a7ea146102dc5780636fc2ee5c146102fa5780637a94c2a5146103185780638dfa9bcc14610348576101a9565b806347e7ef24146102745780635364df49146102905780635a0ce676146102c0576101a9565b8063036e21e5146101ae5780630b991d4d146101cc5780630dd3af75146101ea5780631c21088c146102085780631e89f00a146102385780632c07eebf14610256575b600080fd5b6101b66105aa565b6040516101c39190613042565b60405180910390f35b6101d46105b0565b6040516101e19190613042565b60405180910390f35b6101f26105b6565b6040516101ff9190613042565b60405180910390f35b610222600480360381019061021d9190612c54565b6105bc565b60405161022f9190613042565b60405180910390f35b610240610643565b60405161024d9190613042565b60405180910390f35b61025e610650565b60405161026b9190613042565b60405180910390f35b61028e60048036038101906102899190612cdf565b610656565b005b6102aa60048036038101906102a59190612c02565b610665565b6040516102b79190613042565b60405180910390f35b6102da60048036038101906102d59190612dfb565b6106ae565b005b6102e46107dc565b6040516102f19190613042565b60405180910390f35b6103026107e2565b60405161030f9190613042565b60405180910390f35b610332600480360381019061032d9190612c02565b610917565b60405161033f9190612fa7565b60405180910390f35b610362600480360381019061035d9190612c54565b611357565b60405161036f9190613042565b60405180910390f35b6103806113de565b60405161038d9190612fa7565b60405180910390f35b6103b060048036038101906103ab9190612c02565b6114f9565b6040516103bd9190613042565b60405180910390f35b6103ce611511565b6040516103db9190613042565b60405180910390f35b6103fe60048036038101906103f99190612c54565b611517565b60405161040b9190613042565b60405180910390f35b61041c6116ef565b6040516104299190613042565b60405180910390f35b61044c60048036038101906104479190612c90565b6116f5565b005b6104566118e9565b6040516104639190612f03565b60405180910390f35b61048660048036038101906104819190612c02565b61190f565b6040516104939190613042565b60405180910390f35b6104b660048036038101906104b19190612c54565b611958565b6040516104c39190613042565b60405180910390f35b6104e660048036038101906104e19190612d6d565b6119df565b6040516104f39190612f03565b60405180910390f35b61051660048036038101906105119190612c54565b611a1e565b6040516105239190613042565b60405180910390f35b610534611c36565b6040516105419190612f03565b60405180910390f35b610564600480360381019061055f9190612d6d565b611c5a565b6040516105719190613042565b60405180910390f35b610594600480360381019061058f9190612cdf565b611c7e565b6040516105a19190613042565b60405180910390f35b60025481565b60095481565b600a5481565b6000600c60008373ffffffffffffffffffffffffffffffffffffffff1673ffffffffffffffffffffffffffffffffffffffff16815260200190815260200160002060008473ffffffffffffffffffffffffffffffffffffffff1673ffffffffffffffffffffffffffffffffffffffff16815260200190815260200160002054905092915050565b6000600680549050905090565b60045481565b6106618233836116f5565b5050565b6000600d60008373ffffffffffffffffffffffffffffffffffffffff1673ffffffffffffffffffffffffffffffffffffffff168152602001908152602001600020549050919050565b6106b6611d29565b73ffffffffffffffffffffffffffffffffffffffff166398fabd3a6040518163ffffffff1660e01b815260040160206040518083038186803b1580156106fb57600080fd5b505afa15801561070f573d6000803e3d6000fd5b505050506040513d601f19601f820116820180604052508101906107339190612c2b565b73ffffffffffffffffffffffffffffffffffffffff163373ffffffffffffffffffffffffffffffffffffffff1614806107b95750600160009054906101000a900473ffffffffffffffffffffffffffffffffffffffff1673ffffffffffffffffffffffffffffffffffffffff163373ffffffffffffffffffffffffffffffffffffffff16145b6107c257600080fd5b826004819055508160028190555080600581905550505050565b60055481565b60008060009054906101000a900473ffffffffffffffffffffffffffffffffffffffff1673ffffffffffffffffffffffffffffffffffffffff166370a08231610829611d29565b73ffffffffffffffffffffffffffffffffffffffff16639d2cc4366040518163ffffffff1660e01b815260040160206040518083038186803b15801561086e57600080fd5b505afa158015610882573d6000803e3d6000fd5b505050506040513d601f19601f820116820180604052508101906108a69190612c2b565b6040518263ffffffff1660e01b81526004016108c29190612f03565b60206040518083038186803b1580156108da57600080fd5b505afa1580156108ee573d6000803e3d6000fd5b505050506040513d601f19601f820116820180604052508101906109129190612d96565b905090565b6000610921611d29565b73ffffffffffffffffffffffffffffffffffffffff1663b93ec54b6040518163ffffffff1660e01b815260040160206040518083038186803b15801561096657600080fd5b505afa15801561097a573d6000803e3d6000fd5b505050506040513d601f19601f8201168201806040525081019061099e9190612c2b565b73ffffffffffffffffffffffffffffffffffffffff16635e0237ea836040518263ffffffff1660e01b81526004016109d69190612f03565b60206040518083038186803b1580156109ee57600080fd5b505afa158015610a02573d6000803e3d6000fd5b505050506040513d601f19601f82011682018060405250810190610a269190612d1b565b610a65576040517f08c379a0000000000000000000000000000000000000000000000000000000008152600401610a5c90613022565b60405180910390fd5b610a6d611d29565b73ffffffffffffffffffffffffffffffffffffffff16639d2cc4366040518163ffffffff1660e01b815260040160206040518083038186803b158015610ab257600080fd5b505afa158015610ac6573d6000803e3d6000fd5b505050506040513d601f19601f82011682018060405250810190610aea9190612c2b565b73ffffffffffffffffffffffffffffffffffffffff16632267716c6040518163ffffffff1660e01b8152600401602060405180830381600087803b158015610b3157600080fd5b505af1158015610b45573d6000803e3d6000fd5b505050506040513d601f19601f82011682018060405250810190610b699190612d1b565b610ba8576040517f08c379a0000000000000000000000000000000000000000000000000000000008152600401610b9f90612fc2565b60405180910390fd5b600080610bb58433611a1e565b905042600f60003373ffffffffffffffffffffffffffffffffffffffff1673ffffffffffffffffffffffffffffffffffffffff16815260200190815260200160002060008673ffffffffffffffffffffffffffffffffffffffff1673ffffffffffffffffffffffffffffffffffffffff168152602001908152602001600020819055506000610c42611d29565b73ffffffffffffffffffffffffffffffffffffffff1663b99b0a0c6040518163ffffffff1660e01b815260040160206040518083038186803b158015610c8757600080fd5b505afa158015610c9b573d6000803e3d6000fd5b505050506040513d601f19601f82011682018060405250810190610cbf9190612c2b565b73ffffffffffffffffffffffffffffffffffffffff1663bbe4f6db8673ffffffffffffffffffffffffffffffffffffffff1663484920316040518163ffffffff1660e01b815260040160206040518083038186803b158015610d2057600080fd5b505afa158015610d34573d6000803e3d6000fd5b505050506040513d601f19601f82011682018060405250810190610d589190612c2b565b6040518263ffffffff1660e01b8152600401610d749190612f03565b60206040518083038186803b158015610d8c57600080fd5b505afa158015610da0573d6000803e3d6000fd5b505050506040513d601f19601f82011682018060405250810190610dc49190612c2b565b9050610dce611d29565b73ffffffffffffffffffffffffffffffffffffffff16639d2cc4366040518163ffffffff1660e01b815260040160206040518083038186803b158015610e1357600080fd5b505afa158015610e27573d6000803e3d6000fd5b505050506040513d601f19601f82011682018060405250810190610e4b9190612c2b565b73ffffffffffffffffffffffffffffffffffffffff16637d458baa83836040518363ffffffff1660e01b8152600401610e8592919061305d565b600060405180830381600087803b158015610e9f57600080fd5b505af1158015610eb3573d6000803e3d6000fd5b5050505060008173ffffffffffffffffffffffffffffffffffffffff16635c53738687306040518363ffffffff1660e01b8152600401610ef4929190612f1e565b6040805180830381600087803b158015610f0d57600080fd5b505af1158015610f21573d6000803e3d6000fd5b505050506040513d601f19601f82011682018060405250810190610f459190612dbf565b509050610f50611d29565b73ffffffffffffffffffffffffffffffffffffffff16637b0e5c456040518163ffffffff1660e01b815260040160206040518083038186803b158015610f9557600080fd5b505afa158015610fa9573d6000803e3d6000fd5b505050506040513d601f19601f82011682018060405250810190610fcd9190612c2b565b73ffffffffffffffffffffffffffffffffffffffff1663c19387df8773ffffffffffffffffffffffffffffffffffffffff1663484920316040518163ffffffff1660e01b815260040160206040518083038186803b15801561102e57600080fd5b505afa158015611042573d6000803e3d6000fd5b505050506040513d601f19601f820116820180604052508101906110669190612c2b565b836040518363ffffffff1660e01b8152600401611084929190612f7e565b60206040518083038186803b15801561109c57600080fd5b505afa1580156110b0573d6000803e3d6000fd5b505050506040513d601f19601f820116820180604052508101906110d49190612d96565b935080600e60003373ffffffffffffffffffffffffffffffffffffffff1673ffffffffffffffffffffffffffffffffffffffff16815260200190815260200160002060008873ffffffffffffffffffffffffffffffffffffffff1673ffffffffffffffffffffffffffffffffffffffff168152602001908152602001600020600082825461116291906130f7565b9250508190555083600c60003373ffffffffffffffffffffffffffffffffffffffff1673ffffffffffffffffffffffffffffffffffffffff16815260200190815260200160002060008873ffffffffffffffffffffffffffffffffffffffff1673ffffffffffffffffffffffffffffffffffffffff16815260200190815260200160002060008282546111f591906130f7565b9250508190555083600d60003373ffffffffffffffffffffffffffffffffffffffff1673ffffffffffffffffffffffffffffffffffffffff168152602001908152602001600020600082825461124b91906130f7565b92505081905550836003600082825461126491906130f7565b9250508190555061127483611dcf565b8573ffffffffffffffffffffffffffffffffffffffff1663d3e48814836040518263ffffffff1660e01b81526004016112ad9190612f03565b600060405180830381600087803b1580156112c757600080fd5b505af11580156112db573d6000803e3d6000fd5b505050503373ffffffffffffffffffffffffffffffffffffffff168673ffffffffffffffffffffffffffffffffffffffff167f154ce75570debb840e085287bc6b1fd9f48fa7b08a5f2dd564b6a7592147d4448587600354604051611342939291906130af565b60405180910390a36001945050505050919050565b6000600e60008373ffffffffffffffffffffffffffffffffffffffff1673ffffffffffffffffffffffffffffffffffffffff16815260200190815260200160002060008473ffffffffffffffffffffffffffffffffffffffff1673ffffffffffffffffffffffffffffffffffffffff16815260200190815260200160002054905092915050565b600080600090505b6006805490508110156114f157600061146360068381548110611432577f4e487b7100000000000000000000000000000000000000000000000000000000600052603260045260246000fd5b9060005260206000200160009054906101000a900473ffffffffffffffffffffffffffffffffffffffff1633611a1e565b905060008111156114dd576114db600683815481106114ab577f4e487b7100000000000000000000000000000000000000000000000000000000600052603260045260246000fd5b9060005260206000200160009054906101000a900473ffffffffffffffffffffffffffffffffffffffff16610917565b505b5080806114e990613290565b9150506113e6565b506001905090565b60116020528060005260406000206000915090505481565b60035481565b600080600c60008473ffffffffffffffffffffffffffffffffffffffff1673ffffffffffffffffffffffffffffffffffffffff16815260200190815260200160002060008573ffffffffffffffffffffffffffffffffffffffff1673ffffffffffffffffffffffffffffffffffffffff16815260200190815260200160002054905060006004546115a66107e2565b6115b0919061314d565b90506000612710600554836115c5919061317e565b6115cf919061314d565b90506115d9611d29565b73ffffffffffffffffffffffffffffffffffffffff16637b0e5c456040518163ffffffff1660e01b815260040160206040518083038186803b15801561161e57600080fd5b505afa158015611632573d6000803e3d6000fd5b505050506040513d601f19601f820116820180604052508101906116569190612c2b565b73ffffffffffffffffffffffffffffffffffffffff16631ba326c484600354846040518463ffffffff1660e01b8152600401611694939291906130af565b60206040518083038186803b1580156116ac57600080fd5b505afa1580156116c0573d6000803e3d6000fd5b505050506040513d601f19601f820116820180604052508101906116e49190612d96565b935050505092915050565b60085481565b6116fd611d29565b73ffffffffffffffffffffffffffffffffffffffff1663b93ec54b6040518163ffffffff1660e01b815260040160206040518083038186803b15801561174257600080fd5b505afa158015611756573d6000803e3d6000fd5b505050506040513d601f19601f8201168201806040525081019061177a9190612c2b565b73ffffffffffffffffffffffffffffffffffffffff16635e0237ea846040518263ffffffff1660e01b81526004016117b29190612f03565b60206040518083038186803b1580156117ca57600080fd5b505afa1580156117de573d6000803e3d6000fd5b505050506040513d601f19601f820116820180604052508101906118029190612d1b565b611841576040517f08c379a000000000000000000000000000000000000000000000000000000000815260040161183890613022565b60405180910390fd5b8273ffffffffffffffffffffffffffffffffffffffff166323b872dd3330846040518463ffffffff1660e01b815260040161187e93929190612f47565b602060405180830381600087803b15801561189857600080fd5b505af11580156118ac573d6000803e3d6000fd5b505050506040513d601f19601f820116820180604052508101906118d09190612d1b565b6118d957600080fd5b6118e4838383611e4d565b505050565b600160009054906101000a900473ffffffffffffffffffffffffffffffffffffffff1681565b6000601060008373ffffffffffffffffffffffffffffffffffffffff1673ffffffffffffffffffffffffffffffffffffffff168152602001908152602001600020549050919050565b6000600f60008373ffffffffffffffffffffffffffffffffffffffff1673ffffffffffffffffffffffffffffffffffffffff16815260200190815260200160002060008473ffffffffffffffffffffffffffffffffffffffff1673ffffffffffffffffffffffffffffffffffffffff16815260200190815260200160002054905092915050565b600681815481106119ef57600080fd5b906000526020600020016000915054906101000a900473ffffffffffffffffffffffffffffffffffffffff1681565b6000600f60008373ffffffffffffffffffffffffffffffffffffffff1673ffffffffffffffffffffffffffffffffffffffff16815260200190815260200160002060008473ffffffffffffffffffffffffffffffffffffffff1673ffffffffffffffffffffffffffffffffffffffff168152602001908152602001600020544211611ade576040517f08c379a0000000000000000000000000000000000000000000000000000000008152600401611ad590613002565b60405180910390fd5b6000600f60008473ffffffffffffffffffffffffffffffffffffffff1673ffffffffffffffffffffffffffffffffffffffff16815260200190815260200160002060008573ffffffffffffffffffffffffffffffffffffffff1673ffffffffffffffffffffffffffffffffffffffff1681526020019081526020016000205442611b6891906131d8565b90506000611b768585611517565b905060008054906101000a900473ffffffffffffffffffffffffffffffffffffffff1673ffffffffffffffffffffffffffffffffffffffff16636b92a3b66040518163ffffffff1660e01b815260040160206040518083038186803b158015611bde57600080fd5b505afa158015611bf2573d6000803e3d6000fd5b505050506040513d601f19601f82011682018060405250810190611c169190612d96565b8282611c22919061317e565b611c2c919061314d565b9250505092915050565b60008054906101000a900473ffffffffffffffffffffffffffffffffffffffff1681565b600b8181548110611c6a57600080fd5b906000526020600020016000915090505481565b6000611c8b833384612464565b90508273ffffffffffffffffffffffffffffffffffffffff1663a9059cbb33836040518363ffffffff1660e01b8152600401611cc8929190612f7e565b602060405180830381600087803b158015611ce257600080fd5b505af1158015611cf6573d6000803e3d6000fd5b505050506040513d601f19601f82011682018060405250810190611d1a9190612d1b565b611d2357600080fd5b92915050565b60008060009054906101000a900473ffffffffffffffffffffffffffffffffffffffff1673ffffffffffffffffffffffffffffffffffffffff166398fabd3a6040518163ffffffff1660e01b815260040160206040518083038186803b158015611d9257600080fd5b505afa158015611da6573d6000803e3d6000fd5b505050506040513d601f19601f82011682018060405250810190611dca9190612d44565b905090565b60006007541415611de257426007819055505b62278d00600754611df391906130f7565b4211611e125780600954611e0791906130f7565b600981905550611e4a565b42600781905550600954600a81905550611e2d600a54612a1c565b600060098190555080600954611e4391906130f7565b6009819055505b50565b601260008473ffffffffffffffffffffffffffffffffffffffff1673ffffffffffffffffffffffffffffffffffffffff16815260200190815260200160002060009054906101000a900460ff16611f5a576001601260008573ffffffffffffffffffffffffffffffffffffffff1673ffffffffffffffffffffffffffffffffffffffff16815260200190815260200160002060006101000a81548160ff0219169083151502179055506006839080600181540180825580915050600190039060005260206000200160009091909190916101000a81548173ffffffffffffffffffffffffffffffffffffffff021916908373ffffffffffffffffffffffffffffffffffffffff1602179055505b60025442611f6891906130f7565b600f60008473ffffffffffffffffffffffffffffffffffffffff1673ffffffffffffffffffffffffffffffffffffffff16815260200190815260200160002060008573ffffffffffffffffffffffffffffffffffffffff1673ffffffffffffffffffffffffffffffffffffffff1681526020019081526020016000208190555060025442611ff691906130f7565b601060008473ffffffffffffffffffffffffffffffffffffffff1673ffffffffffffffffffffffffffffffffffffffff1681526020019081526020016000208190555080600e60008473ffffffffffffffffffffffffffffffffffffffff1673ffffffffffffffffffffffffffffffffffffffff16815260200190815260200160002060008573ffffffffffffffffffffffffffffffffffffffff1673ffffffffffffffffffffffffffffffffffffffff16815260200190815260200160002060008282546120c591906130f7565b9250508190555060006120d6611d29565b73ffffffffffffffffffffffffffffffffffffffff16637b0e5c456040518163ffffffff1660e01b815260040160206040518083038186803b15801561211b57600080fd5b505afa15801561212f573d6000803e3d6000fd5b505050506040513d601f19601f820116820180604052508101906121539190612c2b565b73ffffffffffffffffffffffffffffffffffffffff1663c19387df8573ffffffffffffffffffffffffffffffffffffffff1663484920316040518163ffffffff1660e01b815260040160206040518083038186803b1580156121b457600080fd5b505afa1580156121c8573d6000803e3d6000fd5b505050506040513d601f19601f820116820180604052508101906121ec9190612c2b565b846040518363ffffffff1660e01b815260040161220a929190612f7e565b60206040518083038186803b15801561222257600080fd5b505afa158015612236573d6000803e3d6000fd5b505050506040513d601f19601f8201168201806040525081019061225a9190612d96565b905080600c60008573ffffffffffffffffffffffffffffffffffffffff1673ffffffffffffffffffffffffffffffffffffffff16815260200190815260200160002060008673ffffffffffffffffffffffffffffffffffffffff1673ffffffffffffffffffffffffffffffffffffffff16815260200190815260200160002060008282546122e891906130f7565b9250508190555080600d60008573ffffffffffffffffffffffffffffffffffffffff1673ffffffffffffffffffffffffffffffffffffffff168152602001908152602001600020600082825461233e91906130f7565b92505081905550806003600082825461235791906130f7565b925050819055506001601360008573ffffffffffffffffffffffffffffffffffffffff1673ffffffffffffffffffffffffffffffffffffffff16815260200190815260200160002060008673ffffffffffffffffffffffffffffffffffffffff1673ffffffffffffffffffffffffffffffffffffffff16815260200190815260200160002060006101000a81548160ff0219169083151502179055508273ffffffffffffffffffffffffffffffffffffffff168473ffffffffffffffffffffffffffffffffffffffff167f14cd3bc470910a26ce3f7f4a5649f17759dd61c2d987e6941dc6c34f8bd920a28484600354604051612456939291906130af565b60405180910390a350505050565b6000601060008473ffffffffffffffffffffffffffffffffffffffff1673ffffffffffffffffffffffffffffffffffffffff1681526020019081526020016000205442116124e7576040517f08c379a00000000000000000000000000000000000000000000000000000000081526004016124de90612fe2565b60405180910390fd5b60006124f1611d29565b73ffffffffffffffffffffffffffffffffffffffff16637b0e5c456040518163ffffffff1660e01b815260040160206040518083038186803b15801561253657600080fd5b505afa15801561254a573d6000803e3d6000fd5b505050506040513d601f19601f8201168201806040525081019061256e9190612c2b565b73ffffffffffffffffffffffffffffffffffffffff1663714270ab84600e60008873ffffffffffffffffffffffffffffffffffffffff1673ffffffffffffffffffffffffffffffffffffffff16815260200190815260200160002060008973ffffffffffffffffffffffffffffffffffffffff1673ffffffffffffffffffffffffffffffffffffffff168152602001908152602001600020546040518363ffffffff1660e01b8152600401612624929190613086565b60206040518083038186803b15801561263c57600080fd5b505afa158015612650573d6000803e3d6000fd5b505050506040513d601f19601f820116820180604052508101906126749190612d96565b905080600e60008673ffffffffffffffffffffffffffffffffffffffff1673ffffffffffffffffffffffffffffffffffffffff16815260200190815260200160002060008773ffffffffffffffffffffffffffffffffffffffff1673ffffffffffffffffffffffffffffffffffffffff168152602001908152602001600020600082825461270291906131d8565b925050819055506000612713611d29565b73ffffffffffffffffffffffffffffffffffffffff16637b0e5c456040518163ffffffff1660e01b815260040160206040518083038186803b15801561275857600080fd5b505afa15801561276c573d6000803e3d6000fd5b505050506040513d601f19601f820116820180604052508101906127909190612c2b565b73ffffffffffffffffffffffffffffffffffffffff1663714270ab85600c60008973ffffffffffffffffffffffffffffffffffffffff1673ffffffffffffffffffffffffffffffffffffffff16815260200190815260200160002060008a73ffffffffffffffffffffffffffffffffffffffff1673ffffffffffffffffffffffffffffffffffffffff168152602001908152602001600020546040518363ffffffff1660e01b8152600401612846929190613086565b60206040518083038186803b15801561285e57600080fd5b505afa158015612872573d6000803e3d6000fd5b505050506040513d601f19601f820116820180604052508101906128969190612d96565b905080600d60008773ffffffffffffffffffffffffffffffffffffffff1673ffffffffffffffffffffffffffffffffffffffff16815260200190815260200160002060008282546128e791906131d8565b9250508190555080600c60008773ffffffffffffffffffffffffffffffffffffffff1673ffffffffffffffffffffffffffffffffffffffff16815260200190815260200160002060008873ffffffffffffffffffffffffffffffffffffffff1673ffffffffffffffffffffffffffffffffffffffff168152602001908152602001600020600082825461297a91906131d8565b92505081905550806003600082825461299391906131d8565b925050819055508473ffffffffffffffffffffffffffffffffffffffff168673ffffffffffffffffffffffffffffffffffffffff167f28b0a5e71db5b0ceb9e9edc3f89a0763709f773d717a2dcfd7851977f805ea7a85846003546040516129fd939291906130af565b60405180910390a38282612a1191906130f7565b925050509392505050565b6002600b8054905014612a5757600b819080600181540180825580915050600190039060005260206000200160009091909190915055612a61565b612a6081612a64565b5b50565b6000600b8054905090506000600182612a7d91906131d8565b90505b6000811115612b3557600b600182612a9891906131d8565b81548110612acf577f4e487b7100000000000000000000000000000000000000000000000000000000600052603260045260246000fd5b9060005260206000200154600b8281548110612b14577f4e487b7100000000000000000000000000000000000000000000000000000000600052603260045260246000fd5b90600052602060002001819055508080612b2d90613266565b915050612a80565b5081600b600081548110612b72577f4e487b7100000000000000000000000000000000000000000000000000000000600052603260045260246000fd5b90600052602060002001819055505050565b600081359050612b93816133db565b92915050565b600081519050612ba8816133db565b92915050565b600081519050612bbd816133f2565b92915050565b600081519050612bd281613409565b92915050565b600081359050612be781613420565b92915050565b600081519050612bfc81613420565b92915050565b600060208284031215612c1457600080fd5b6000612c2284828501612b84565b91505092915050565b600060208284031215612c3d57600080fd5b6000612c4b84828501612b99565b91505092915050565b60008060408385031215612c6757600080fd5b6000612c7585828601612b84565b9250506020612c8685828601612b84565b9150509250929050565b600080600060608486031215612ca557600080fd5b6000612cb386828701612b84565b9350506020612cc486828701612b84565b9250506040612cd586828701612bd8565b9150509250925092565b60008060408385031215612cf257600080fd5b6000612d0085828601612b84565b9250506020612d1185828601612bd8565b9150509250929050565b600060208284031215612d2d57600080fd5b6000612d3b84828501612bae565b91505092915050565b600060208284031215612d5657600080fd5b6000612d6484828501612bc3565b91505092915050565b600060208284031215612d7f57600080fd5b6000612d8d84828501612bd8565b91505092915050565b600060208284031215612da857600080fd5b6000612db684828501612bed565b91505092915050565b60008060408385031215612dd257600080fd5b6000612de085828601612bed565b9250506020612df185828601612bed565b9150509250929050565b600080600060608486031215612e1057600080fd5b6000612e1e86828701612bd8565b9350506020612e2f86828701612bd8565b9250506040612e4086828701612bd8565b9150509250925092565b612e538161320c565b82525050565b612e628161321e565b82525050565b6000612e75600a836130e6565b9150612e8082613337565b602082019050919050565b6000612e986007836130e6565b9150612ea382613360565b602082019050919050565b6000612ebb6009836130e6565b9150612ec682613389565b602082019050919050565b6000612ede6006836130e6565b9150612ee9826133b2565b602082019050919050565b612efd8161325c565b82525050565b6000602082019050612f186000830184612e4a565b92915050565b6000604082019050612f336000830185612e4a565b612f406020830184612e4a565b9392505050565b6000606082019050612f5c6000830186612e4a565b612f696020830185612e4a565b612f766040830184612ef4565b949350505050565b6000604082019050612f936000830185612e4a565b612fa06020830184612ef4565b9392505050565b6000602082019050612fbc6000830184612e59565b92915050565b60006020820190508181036000830152612fdb81612e68565b9050919050565b60006020820190508181036000830152612ffb81612e8b565b9050919050565b6000602082019050818103600083015261301b81612eae565b9050919050565b6000602082019050818103600083015261303b81612ed1565b9050919050565b60006020820190506130576000830184612ef4565b92915050565b60006040820190506130726000830185612ef4565b61307f6020830184612e4a565b9392505050565b600060408201905061309b6000830185612ef4565b6130a86020830184612ef4565b9392505050565b60006060820190506130c46000830186612ef4565b6130d16020830185612ef4565b6130de6040830184612ef4565b949350505050565b600082825260208201905092915050565b60006131028261325c565b915061310d8361325c565b9250827fffffffffffffffffffffffffffffffffffffffffffffffffffffffffffffffff03821115613142576131416132d9565b5b828201905092915050565b60006131588261325c565b91506131638361325c565b92508261317357613172613308565b5b828204905092915050565b60006131898261325c565b91506131948361325c565b9250817fffffffffffffffffffffffffffffffffffffffffffffffffffffffffffffffff04831182151516156131cd576131cc6132d9565b5b828202905092915050565b60006131e38261325c565b91506131ee8361325c565b925082821015613201576132006132d9565b5b828203905092915050565b60006132178261323c565b9050919050565b60008115159050919050565b60006132358261320c565b9050919050565b600073ffffffffffffffffffffffffffffffffffffffff82169050919050565b6000819050919050565b60006132718261325c565b91506000821415613285576132846132d9565b5b600182039050919050565b600061329b8261325c565b91507fffffffffffffffffffffffffffffffffffffffffffffffffffffffffffffffff8214156132ce576132cd6132d9565b5b600182019050919050565b7f4e487b7100000000000000000000000000000000000000000000000000000000600052601160045260246000fd5b7f4e487b7100000000000000000000000000000000000000000000000000000000600052601260045260246000fd5b7f21656d697373696f6e7300000000000000000000000000000000000000000000600082015250565b7f6c6f636b6f757400000000000000000000000000000000000000000000000000600082015250565b7f21756e6c6f636b65640000000000000000000000000000000000000000000000600082015250565b7f2173796e74680000000000000000000000000000000000000000000000000000600082015250565b6133e48161320c565b81146133ef57600080fd5b50565b6133fb8161321e565b811461340657600080fd5b50565b6134128161322a565b811461341d57600080fd5b50565b6134298161325c565b811461343457600080fd5b5056fea26469706673582212206b0649ea654547f19335ef1971c5766b3516007ef6c1015a924bb22d41340b0464736f6c63430008030033",
  "linkReferences": {},
  "deployedLinkReferences": {}
}