{
  "_format": "hh-sol-artifact-1",
  "contractName": "SynthVault",
  "sourceName": "contracts/synthVault.sol",
  "abi": [
    {
      "inputs": [
        {
          "internalType": "address",
          "name": "_base",
          "type": "address"
        }
      ],
      "stateMutability": "nonpayable",
      "type": "constructor"
    },
    {
      "anonymous": false,
      "inputs": [
        {
          "indexed": true,
          "internalType": "address",
          "name": "synth",
          "type": "address"
        },
        {
          "indexed": true,
          "internalType": "address",
          "name": "member",
          "type": "address"
        },
        {
          "indexed": false,
          "internalType": "uint256",
          "name": "newDeposit",
          "type": "uint256"
        }
      ],
      "name": "MemberDeposits",
      "type": "event"
    },
    {
      "anonymous": false,
      "inputs": [
        {
          "indexed": true,
          "internalType": "address",
          "name": "synth",
          "type": "address"
        },
        {
          "indexed": true,
          "internalType": "address",
          "name": "member",
          "type": "address"
        },
        {
          "indexed": false,
          "internalType": "uint256",
          "name": "amount",
          "type": "uint256"
        }
      ],
      "name": "MemberHarvests",
      "type": "event"
    },
    {
      "anonymous": false,
      "inputs": [
        {
          "indexed": true,
          "internalType": "address",
          "name": "synth",
          "type": "address"
        },
        {
          "indexed": true,
          "internalType": "address",
          "name": "member",
          "type": "address"
        },
        {
          "indexed": false,
          "internalType": "uint256",
          "name": "amount",
          "type": "uint256"
        }
      ],
      "name": "MemberWithdraws",
      "type": "event"
    },
    {
      "inputs": [],
      "name": "BASE",
      "outputs": [
        {
          "internalType": "address",
          "name": "",
          "type": "address"
        }
      ],
      "stateMutability": "view",
      "type": "function"
    },
    {
      "inputs": [],
      "name": "DEPLOYER",
      "outputs": [
        {
          "internalType": "address",
          "name": "",
          "type": "address"
        }
      ],
      "stateMutability": "view",
      "type": "function"
    },
    {
      "inputs": [
        {
          "internalType": "address",
          "name": "synth",
          "type": "address"
        },
        {
          "internalType": "address",
          "name": "member",
          "type": "address"
        }
      ],
      "name": "calcCurrentReward",
      "outputs": [
        {
          "internalType": "uint256",
          "name": "reward",
          "type": "uint256"
        }
      ],
      "stateMutability": "nonpayable",
      "type": "function"
    },
    {
      "inputs": [
        {
          "internalType": "address",
          "name": "_synth",
          "type": "address"
        },
        {
          "internalType": "address",
          "name": "member",
          "type": "address"
        }
      ],
      "name": "calcReward",
      "outputs": [
        {
          "internalType": "uint256",
          "name": "_share",
          "type": "uint256"
        },
        {
          "internalType": "uint256",
          "name": "_vaultReward",
          "type": "uint256"
        }
      ],
      "stateMutability": "nonpayable",
      "type": "function"
    },
    {
      "inputs": [
        {
          "internalType": "address",
          "name": "synth",
          "type": "address"
        },
        {
          "internalType": "uint256",
          "name": "amount",
          "type": "uint256"
        }
      ],
      "name": "deposit",
      "outputs": [],
      "stateMutability": "nonpayable",
      "type": "function"
    },
    {
      "inputs": [
        {
          "internalType": "address",
          "name": "synth",
          "type": "address"
        },
        {
          "internalType": "address",
          "name": "member",
          "type": "address"
        }
      ],
      "name": "depositForMember",
      "outputs": [],
      "stateMutability": "nonpayable",
      "type": "function"
    },
    {
      "inputs": [],
      "name": "erasToEarn",
      "outputs": [
        {
          "internalType": "uint256",
          "name": "",
          "type": "uint256"
        }
      ],
      "stateMutability": "view",
      "type": "function"
    },
    {
      "inputs": [],
      "name": "genesis",
      "outputs": [
        {
          "internalType": "uint256",
          "name": "",
          "type": "uint256"
        }
      ],
      "stateMutability": "view",
      "type": "function"
    },
    {
      "inputs": [
        {
          "internalType": "address",
          "name": "member",
          "type": "address"
        },
        {
          "internalType": "address",
          "name": "synth",
          "type": "address"
        }
      ],
      "name": "getMemberDeposit",
      "outputs": [
        {
          "internalType": "uint256",
          "name": "",
          "type": "uint256"
        }
      ],
      "stateMutability": "view",
      "type": "function"
    },
    {
      "inputs": [
        {
          "internalType": "address",
          "name": "synth",
          "type": "address"
        },
        {
          "internalType": "address",
          "name": "member",
          "type": "address"
        }
      ],
      "name": "getMemberLastSynthTime",
      "outputs": [
        {
          "internalType": "uint256",
          "name": "",
          "type": "uint256"
        }
      ],
      "stateMutability": "view",
      "type": "function"
    },
    {
      "inputs": [
        {
          "internalType": "address",
          "name": "_synth",
          "type": "address"
        },
        {
          "internalType": "address",
          "name": "member",
          "type": "address"
        }
      ],
      "name": "getMemberSynthWeight",
      "outputs": [
        {
          "internalType": "uint256",
          "name": "memberSynthWeight",
          "type": "uint256"
        },
        {
          "internalType": "uint256",
          "name": "synthWeight",
          "type": "uint256"
        },
        {
          "internalType": "uint256",
          "name": "totalSynthWeight",
          "type": "uint256"
        }
      ],
      "stateMutability": "nonpayable",
      "type": "function"
    },
    {
      "inputs": [
        {
          "internalType": "address",
          "name": "synth",
          "type": "address"
        }
      ],
      "name": "getTotalDeposit",
      "outputs": [
        {
          "internalType": "uint256",
          "name": "",
          "type": "uint256"
        }
      ],
      "stateMutability": "view",
      "type": "function"
    },
    {
      "inputs": [
        {
          "internalType": "address[]",
          "name": "synthAssets",
          "type": "address[]"
        }
      ],
      "name": "harvestAll",
      "outputs": [
        {
          "internalType": "bool",
          "name": "",
          "type": "bool"
        }
      ],
      "stateMutability": "nonpayable",
      "type": "function"
    },
    {
      "inputs": [
        {
          "internalType": "address",
          "name": "synth",
          "type": "address"
        }
      ],
      "name": "harvestSingle",
      "outputs": [
        {
          "internalType": "bool",
          "name": "",
          "type": "bool"
        }
      ],
      "stateMutability": "nonpayable",
      "type": "function"
    },
    {
      "inputs": [],
      "name": "lastMonth",
      "outputs": [
        {
          "internalType": "uint256",
          "name": "",
          "type": "uint256"
        }
      ],
      "stateMutability": "view",
      "type": "function"
    },
    {
      "inputs": [],
      "name": "map30DVaultRevenue",
      "outputs": [
        {
          "internalType": "uint256",
          "name": "",
          "type": "uint256"
        }
      ],
      "stateMutability": "view",
      "type": "function"
    },
    {
      "inputs": [
        {
          "internalType": "address",
          "name": "",
          "type": "address"
        }
      ],
      "name": "mapMember_depositTime",
      "outputs": [
        {
          "internalType": "uint256",
          "name": "",
          "type": "uint256"
        }
      ],
      "stateMutability": "view",
      "type": "function"
    },
    {
      "inputs": [],
      "name": "mapPast30DVaultRevenue",
      "outputs": [
        {
          "internalType": "uint256",
          "name": "",
          "type": "uint256"
        }
      ],
      "stateMutability": "view",
      "type": "function"
    },
    {
      "inputs": [
        {
          "internalType": "address",
          "name": "",
          "type": "address"
        }
      ],
      "name": "mapTotalSynth_balance",
      "outputs": [
        {
          "internalType": "uint256",
          "name": "",
          "type": "uint256"
        }
      ],
      "stateMutability": "view",
      "type": "function"
    },
    {
      "inputs": [],
      "name": "minimumDepositTime",
      "outputs": [
        {
          "internalType": "uint256",
          "name": "",
          "type": "uint256"
        }
      ],
      "stateMutability": "view",
      "type": "function"
    },
    {
      "inputs": [],
      "name": "purgeDeployer",
      "outputs": [],
      "stateMutability": "nonpayable",
      "type": "function"
    },
    {
      "inputs": [],
      "name": "reserveBASE",
      "outputs": [
        {
          "internalType": "uint256",
          "name": "",
          "type": "uint256"
        }
      ],
      "stateMutability": "view",
      "type": "function"
    },
    {
      "inputs": [
        {
          "internalType": "uint256",
          "name": "",
          "type": "uint256"
        }
      ],
      "name": "revenueArray",
      "outputs": [
        {
          "internalType": "uint256",
          "name": "",
          "type": "uint256"
        }
      ],
      "stateMutability": "view",
      "type": "function"
    },
    {
      "inputs": [
        {
          "internalType": "uint256",
          "name": "_erasToEarn",
          "type": "uint256"
        },
        {
          "internalType": "uint256",
          "name": "_minTime",
          "type": "uint256"
        },
        {
          "internalType": "uint256",
          "name": "_vaultClaim",
          "type": "uint256"
        }
      ],
      "name": "setParams",
      "outputs": [],
      "stateMutability": "nonpayable",
      "type": "function"
    },
    {
      "inputs": [
        {
          "internalType": "uint256",
          "name": "_setSynthClaim",
          "type": "uint256"
        }
      ],
      "name": "setReserveClaim",
      "outputs": [],
      "stateMutability": "nonpayable",
      "type": "function"
    },
    {
      "inputs": [],
      "name": "vaultClaim",
      "outputs": [
        {
          "internalType": "uint256",
          "name": "",
          "type": "uint256"
        }
      ],
      "stateMutability": "view",
      "type": "function"
    },
    {
      "inputs": [
        {
          "internalType": "address",
          "name": "synth",
          "type": "address"
        },
        {
          "internalType": "uint256",
          "name": "basisPoints",
          "type": "uint256"
        }
      ],
      "name": "withdraw",
      "outputs": [],
      "stateMutability": "nonpayable",
      "type": "function"
    }
  ],
  "bytecode": "0x60c06040523480156200001157600080fd5b5060405162004463380380620044638339818101604052810190620000379190620000fe565b60016000819055508073ffffffffffffffffffffffffffffffffffffffff1660808173ffffffffffffffffffffffffffffffffffffffff1660601b8152505033600160006101000a81548173ffffffffffffffffffffffffffffffffffffffff021916908373ffffffffffffffffffffffffffffffffffffffff160217905550601e600381905550603c6002819055506103e86004819055504260a0818152505060006005819055505062000178565b600081519050620000f8816200015e565b92915050565b6000602082840312156200011157600080fd5b60006200012184828501620000e7565b91505092915050565b600062000137826200013e565b9050919050565b600073ffffffffffffffffffffffffffffffffffffffff82169050919050565b62000169816200012a565b81146200017557600080fd5b50565b60805160601c60a0516142ad620001b6600039600061222c0152600081816113e5015281816124b00152818161257c0152612af801526142ad6000f3fe608060405234801561001057600080fd5b50600436106101a95760003560e01c8063857184d1116100f9578063ca4f64c211610097578063ec342ad011610071578063ec342ad0146104fd578063f0337cdc1461051b578063f3fef3a31461054b578063ffe3d4a214610567576101a9565b8063ca4f64c21461046d578063ca8531a01461049d578063e9f27c3a146104cd576101a9565b8063a6dde131116100d3578063a6dde131146103d0578063a7f0b3de14610401578063b28fc23a1461041f578063c1b8411a1461044f576101a9565b8063857184d1146103525780638dfa9bcc1461038257806399d786ca146103b2576101a9565b80634335a95c116101665780635a0ce676116101405780635a0ce676146102ca5780636d85a7ea146102e65780636fc2ee5c146103045780637a94c2a514610322576101a9565b80634335a95c1461026257806347e7ef241461027e578063485084b71461029a576101a9565b8063036e21e5146101ae57806303a82138146101cc5780630b991d4d146101d65780630dd3af75146101f45780631c21088c146102125780632c07eebf14610244575b600080fd5b6101b6610583565b6040516101c39190613c84565b60405180910390f35b6101d4610589565b005b6101de6106e1565b6040516101eb9190613c84565b60405180910390f35b6101fc6106e7565b6040516102099190613c84565b60405180910390f35b61022c600480360381019061022791906136f5565b6106ed565b60405161023b93929190613cf1565b60405180910390f35b61024c610ea2565b6040516102599190613c84565b60405180910390f35b61027c600480360381019061027791906136f5565b610ea8565b005b61029860048036038101906102939190613731565b61112e565b005b6102b460048036038101906102af91906136a3565b611295565b6040516102c19190613c84565b60405180910390f35b6102e460048036038101906102df91906138cf565b6112ad565b005b6102ee6113db565b6040516102fb9190613c84565b60405180910390f35b61030c6113e1565b6040516103199190613c84565b60405180910390f35b61033c600480360381019061033791906136a3565b611515565b6040516103499190613b49565b60405180910390f35b61036c600480360381019061036791906136a3565b611dbe565b6040516103799190613c84565b60405180910390f35b61039c600480360381019061039791906136f5565b611e07565b6040516103a99190613c84565b60405180910390f35b6103ba611e8e565b6040516103c79190613c84565b60405180910390f35b6103ea60048036038101906103e591906136f5565b611e94565b6040516103f8929190613cc8565b60405180910390f35b61040961222a565b6040516104169190613c84565b60405180910390f35b610439600480360381019061043491906136a3565b61224e565b6040516104469190613c84565b60405180910390f35b610457612266565b6040516104649190613ace565b60405180910390f35b6104876004803603810190610482919061376d565b61228c565b6040516104949190613b49565b60405180910390f35b6104b760048036038101906104b291906136f5565b612304565b6040516104c49190613c84565b60405180910390f35b6104e760048036038101906104e291906136f5565b61238b565b6040516104f49190613c84565b60405180910390f35b61050561257a565b6040516105129190613ace565b60405180910390f35b61053560048036038101906105309190613841565b61259e565b6040516105429190613c84565b60405180910390f35b61056560048036038101906105609190613731565b6125c2565b005b610581600480360381019061057c9190613841565b6129d6565b005b60025481565b600160009054906101000a900473ffffffffffffffffffffffffffffffffffffffff1673ffffffffffffffffffffffffffffffffffffffff163373ffffffffffffffffffffffffffffffffffffffff16148061069457506105e8612af4565b73ffffffffffffffffffffffffffffffffffffffff166398fabd3a6040518163ffffffff1660e01b815260040160206040518083038186803b15801561062d57600080fd5b505afa158015610641573d6000803e3d6000fd5b505050506040513d601f19601f8201168201806040525081019061066591906136cc565b73ffffffffffffffffffffffffffffffffffffffff163373ffffffffffffffffffffffffffffffffffffffff16145b61069d57600080fd5b6000600160006101000a81548173ffffffffffffffffffffffffffffffffffffffff021916908373ffffffffffffffffffffffffffffffffffffffff160217905550565b60065481565b60075481565b6000806000600115156106fe612af4565b73ffffffffffffffffffffffffffffffffffffffff16639d2cc4366040518163ffffffff1660e01b815260040160206040518083038186803b15801561074357600080fd5b505afa158015610757573d6000803e3d6000fd5b505050506040513d601f19601f8201168201806040525081019061077b91906136cc565b73ffffffffffffffffffffffffffffffffffffffff1663194e22ce6040518163ffffffff1660e01b8152600401602060405180830381600087803b1580156107c257600080fd5b505af11580156107d6573d6000803e3d6000fd5b505050506040513d601f19601f820116820180604052508101906107fa91906137ef565b1515141561083d576040517f08c379a000000000000000000000000000000000000000000000000000000000815260040161083490613c04565b60405180910390fd5b6000610847612af4565b73ffffffffffffffffffffffffffffffffffffffff1663b99b0a0c6040518163ffffffff1660e01b815260040160206040518083038186803b15801561088c57600080fd5b505afa1580156108a0573d6000803e3d6000fd5b505050506040513d601f19601f820116820180604052508101906108c491906136cc565b73ffffffffffffffffffffffffffffffffffffffff1663abc764da6040518163ffffffff1660e01b815260040160006040518083038186803b15801561090957600080fd5b505afa15801561091d573d6000803e3d6000fd5b505050506040513d6000823e3d601f19601f8201168201806040525081019061094691906137ae565b905060005b8151811015610bbc57600082828151811061098f577f4e487b7100000000000000000000000000000000000000000000000000000000600052603260045260246000fd5b602002602001015173ffffffffffffffffffffffffffffffffffffffff1663e1eddde36040518163ffffffff1660e01b8152600401602060405180830381600087803b1580156109de57600080fd5b505af11580156109f2573d6000803e3d6000fd5b505050506040513d601f19601f82011682018060405250810190610a1691906136cc565b9050600073ffffffffffffffffffffffffffffffffffffffff168173ffffffffffffffffffffffffffffffffffffffff1614610ba857610a54612af4565b73ffffffffffffffffffffffffffffffffffffffff16637b0e5c456040518163ffffffff1660e01b815260040160206040518083038186803b158015610a9957600080fd5b505afa158015610aad573d6000803e3d6000fd5b505050506040513d601f19601f82011682018060405250810190610ad191906136cc565b73ffffffffffffffffffffffffffffffffffffffff166348c0fd8f82600a60008573ffffffffffffffffffffffffffffffffffffffff1673ffffffffffffffffffffffffffffffffffffffff168152602001908152602001600020546040518363ffffffff1660e01b8152600401610b4a929190613b20565b60206040518083038186803b158015610b6257600080fd5b505afa158015610b76573d6000803e3d6000fd5b505050506040513d601f19601f82011682018060405250810190610b9a919061386a565b84610ba59190613da0565b93505b508080610bb490613f9d565b91505061094b565b50610bc5612af4565b73ffffffffffffffffffffffffffffffffffffffff16637b0e5c456040518163ffffffff1660e01b815260040160206040518083038186803b158015610c0a57600080fd5b505afa158015610c1e573d6000803e3d6000fd5b505050506040513d601f19601f82011682018060405250810190610c4291906136cc565b73ffffffffffffffffffffffffffffffffffffffff166348c0fd8f87600a60008a73ffffffffffffffffffffffffffffffffffffffff1673ffffffffffffffffffffffffffffffffffffffff168152602001908152602001600020546040518363ffffffff1660e01b8152600401610cbb929190613b20565b60206040518083038186803b158015610cd357600080fd5b505afa158015610ce7573d6000803e3d6000fd5b505050506040513d601f19601f82011682018060405250810190610d0b919061386a565b9250610d15612af4565b73ffffffffffffffffffffffffffffffffffffffff16637b0e5c456040518163ffffffff1660e01b815260040160206040518083038186803b158015610d5a57600080fd5b505afa158015610d6e573d6000803e3d6000fd5b505050506040513d601f19601f82011682018060405250810190610d9291906136cc565b73ffffffffffffffffffffffffffffffffffffffff166348c0fd8f87600960008973ffffffffffffffffffffffffffffffffffffffff1673ffffffffffffffffffffffffffffffffffffffff16815260200190815260200160002060008a73ffffffffffffffffffffffffffffffffffffffff1673ffffffffffffffffffffffffffffffffffffffff168152602001908152602001600020546040518363ffffffff1660e01b8152600401610e48929190613b20565b60206040518083038186803b158015610e6057600080fd5b505afa158015610e74573d6000803e3d6000fd5b505050506040513d601f19601f82011682018060405250810190610e98919061386a565b9350509250925092565b60035481565b60011515610eb4612af4565b73ffffffffffffffffffffffffffffffffffffffff1663b99b0a0c6040518163ffffffff1660e01b815260040160206040518083038186803b158015610ef957600080fd5b505afa158015610f0d573d6000803e3d6000fd5b505050506040513d601f19601f82011682018060405250810190610f3191906136cc565b73ffffffffffffffffffffffffffffffffffffffff16638dcb4c93336040518263ffffffff1660e01b8152600401610f699190613ace565b60206040518083038186803b158015610f8157600080fd5b505afa158015610f95573d6000803e3d6000fd5b505050506040513d601f19601f82011682018060405250810190610fb991906137ef565b151514610fc557600080fd5b610fcd612af4565b73ffffffffffffffffffffffffffffffffffffffff1663b93ec54b6040518163ffffffff1660e01b815260040160206040518083038186803b15801561101257600080fd5b505afa158015611026573d6000803e3d6000fd5b505050506040513d601f19601f8201168201806040525081019061104a91906136cc565b73ffffffffffffffffffffffffffffffffffffffff16635e0237ea836040518263ffffffff1660e01b81526004016110829190613ace565b60206040518083038186803b15801561109a57600080fd5b505afa1580156110ae573d6000803e3d6000fd5b505050506040513d601f19601f820116820180604052508101906110d291906137ef565b611111576040517f08c379a000000000000000000000000000000000000000000000000000000000815260040161110890613be4565b60405180910390fd5b600061111c83612b99565b9050611129838383612ccb565b505050565b611136612af4565b73ffffffffffffffffffffffffffffffffffffffff1663b93ec54b6040518163ffffffff1660e01b815260040160206040518083038186803b15801561117b57600080fd5b505afa15801561118f573d6000803e3d6000fd5b505050506040513d601f19601f820116820180604052508101906111b391906136cc565b73ffffffffffffffffffffffffffffffffffffffff16635e0237ea836040518263ffffffff1660e01b81526004016111eb9190613ace565b60206040518083038186803b15801561120357600080fd5b505afa158015611217573d6000803e3d6000fd5b505050506040513d601f19601f8201168201806040525081019061123b91906137ef565b61127a576040517f08c379a000000000000000000000000000000000000000000000000000000000815260040161127190613be4565b60405180910390fd5b61128682333084612ff0565b611291823383612ccb565b5050565b600a6020528060005260406000206000915090505481565b600160009054906101000a900473ffffffffffffffffffffffffffffffffffffffff1673ffffffffffffffffffffffffffffffffffffffff163373ffffffffffffffffffffffffffffffffffffffff1614806113b8575061130c612af4565b73ffffffffffffffffffffffffffffffffffffffff166398fabd3a6040518163ffffffff1660e01b815260040160206040518083038186803b15801561135157600080fd5b505afa158015611365573d6000803e3d6000fd5b505050506040513d601f19601f8201168201806040525081019061138991906136cc565b73ffffffffffffffffffffffffffffffffffffffff163373ffffffffffffffffffffffffffffffffffffffff16145b6113c157600080fd5b826003819055508160028190555080600481905550505050565b60045481565b60007f000000000000000000000000000000000000000000000000000000000000000073ffffffffffffffffffffffffffffffffffffffff166370a08231611427612af4565b73ffffffffffffffffffffffffffffffffffffffff16639d2cc4366040518163ffffffff1660e01b815260040160206040518083038186803b15801561146c57600080fd5b505afa158015611480573d6000803e3d6000fd5b505050506040513d601f19601f820116820180604052508101906114a491906136cc565b6040518263ffffffff1660e01b81526004016114c09190613ace565b60206040518083038186803b1580156114d857600080fd5b505afa1580156114ec573d6000803e3d6000fd5b505050506040513d601f19601f82011682018060405250810190611510919061386a565b905090565b600061151f612af4565b73ffffffffffffffffffffffffffffffffffffffff1663b93ec54b6040518163ffffffff1660e01b815260040160206040518083038186803b15801561156457600080fd5b505afa158015611578573d6000803e3d6000fd5b505050506040513d601f19601f8201168201806040525081019061159c91906136cc565b73ffffffffffffffffffffffffffffffffffffffff16635e0237ea836040518263ffffffff1660e01b81526004016115d49190613ace565b60206040518083038186803b1580156115ec57600080fd5b505afa158015611600573d6000803e3d6000fd5b505050506040513d601f19601f8201168201806040525081019061162491906137ef565b611663576040517f08c379a000000000000000000000000000000000000000000000000000000000815260040161165a90613be4565b60405180910390fd5b600061166f833361238b565b90506000811115611db457600a600b60003373ffffffffffffffffffffffffffffffffffffffff1673ffffffffffffffffffffffffffffffffffffffff16815260200190815260200160002060008573ffffffffffffffffffffffffffffffffffffffff1673ffffffffffffffffffffffffffffffffffffffff168152602001908152602001600020546117039190613da0565b4211611744576040517f08c379a000000000000000000000000000000000000000000000000000000000815260040161173b90613c44565b60405180910390fd5b60008373ffffffffffffffffffffffffffffffffffffffff16637535d2466040518163ffffffff1660e01b815260040160206040518083038186803b15801561178c57600080fd5b505afa1580156117a0573d6000803e3d6000fd5b505050506040513d601f19601f820116820180604052508101906117c491906136cc565b90508073ffffffffffffffffffffffffffffffffffffffff1663fff6cae96040518163ffffffff1660e01b8152600401600060405180830381600087803b15801561180e57600080fd5b505af1158015611822573d6000803e3d6000fd5b5050505060008173ffffffffffffffffffffffffffffffffffffffff166361cc24bb866040518263ffffffff1660e01b81526004016118619190613ace565b602060405180830381600087803b15801561187b57600080fd5b505af115801561188f573d6000803e3d6000fd5b505050506040513d601f19601f820116820180604052508101906118b3919061386a565b905060006118bf612af4565b73ffffffffffffffffffffffffffffffffffffffff16637b0e5c456040518163ffffffff1660e01b815260040160206040518083038186803b15801561190457600080fd5b505afa158015611918573d6000803e3d6000fd5b505050506040513d601f19601f8201168201806040525081019061193c91906136cc565b73ffffffffffffffffffffffffffffffffffffffff16635f2c12e88473ffffffffffffffffffffffffffffffffffffffff166382bfefc86040518163ffffffff1660e01b815260040160206040518083038186803b15801561199d57600080fd5b505afa1580156119b1573d6000803e3d6000fd5b505050506040513d601f19601f820116820180604052508101906119d591906136cc565b866040518363ffffffff1660e01b81526004016119f3929190613b20565b60206040518083038186803b158015611a0b57600080fd5b505afa158015611a1f573d6000803e3d6000fd5b505050506040513d601f19601f82011682018060405250810190611a43919061386a565b905080821015611bc457611a55612af4565b73ffffffffffffffffffffffffffffffffffffffff16639d2cc4366040518163ffffffff1660e01b815260040160206040518083038186803b158015611a9a57600080fd5b505afa158015611aae573d6000803e3d6000fd5b505050506040513d601f19601f82011682018060405250810190611ad291906136cc565b73ffffffffffffffffffffffffffffffffffffffff16637d458baa85336040518363ffffffff1660e01b8152600401611b0c929190613c9f565b600060405180830381600087803b158015611b2657600080fd5b505af1158015611b3a573d6000803e3d6000fd5b5050505042600b60003373ffffffffffffffffffffffffffffffffffffffff1673ffffffffffffffffffffffffffffffffffffffff16815260200190815260200160002060008873ffffffffffffffffffffffffffffffffffffffff1673ffffffffffffffffffffffffffffffffffffffff16815260200190815260200160002081905550611d42565b611bcc612af4565b73ffffffffffffffffffffffffffffffffffffffff16639d2cc4366040518163ffffffff1660e01b815260040160206040518083038186803b158015611c1157600080fd5b505afa158015611c25573d6000803e3d6000fd5b505050506040513d601f19601f82011682018060405250810190611c4991906136cc565b73ffffffffffffffffffffffffffffffffffffffff16637d458baa85856040518363ffffffff1660e01b8152600401611c83929190613c9f565b600060405180830381600087803b158015611c9d57600080fd5b505af1158015611cb1573d6000803e3d6000fd5b505050508273ffffffffffffffffffffffffffffffffffffffff1663f1bbdef2336040518263ffffffff1660e01b8152600401611cee9190613ace565b6040805180830381600087803b158015611d0757600080fd5b505af1158015611d1b573d6000803e3d6000fd5b505050506040513d601f19601f82011682018060405250810190611d3f9190613893565b50505b611d4b84613129565b3373ffffffffffffffffffffffffffffffffffffffff168673ffffffffffffffffffffffffffffffffffffffff167f509122099a522eb9860de32189d85affc5ff2d5f093c558c64a8a2427f7eba2086604051611da89190613c84565b60405180910390a35050505b6001915050919050565b6000600a60008373ffffffffffffffffffffffffffffffffffffffff1673ffffffffffffffffffffffffffffffffffffffff168152602001908152602001600020549050919050565b6000600960008473ffffffffffffffffffffffffffffffffffffffff1673ffffffffffffffffffffffffffffffffffffffff16815260200190815260200160002060008373ffffffffffffffffffffffffffffffffffffffff1673ffffffffffffffffffffffffffffffffffffffff16815260200190815260200160002054905092915050565b60055481565b6000806000806000611ea687876106ed565b9250925092506000600354611eb96113e1565b611ec39190613df6565b90506000611ecf612af4565b73ffffffffffffffffffffffffffffffffffffffff1663b93ec54b6040518163ffffffff1660e01b815260040160206040518083038186803b158015611f1457600080fd5b505afa158015611f28573d6000803e3d6000fd5b505050506040513d601f19601f82011682018060405250810190611f4c91906136cc565b73ffffffffffffffffffffffffffffffffffffffff166378a45a246040518163ffffffff1660e01b8152600401602060405180830381600087803b158015611f9357600080fd5b505af1158015611fa7573d6000803e3d6000fd5b505050506040513d601f19601f82011682018060405250810190611fcb919061386a565b90506127108160045484611fdf9190613e27565b611fe99190613df6565b611ff39190613df6565b95506000611fff612af4565b73ffffffffffffffffffffffffffffffffffffffff16637b0e5c456040518163ffffffff1660e01b815260040160206040518083038186803b15801561204457600080fd5b505afa158015612058573d6000803e3d6000fd5b505050506040513d601f19601f8201168201806040525081019061207c91906136cc565b73ffffffffffffffffffffffffffffffffffffffff16631ba326c486868a6040518463ffffffff1660e01b81526004016120b893929190613cf1565b60206040518083038186803b1580156120d057600080fd5b505afa1580156120e4573d6000803e3d6000fd5b505050506040513d601f19601f82011682018060405250810190612108919061386a565b9050612112612af4565b73ffffffffffffffffffffffffffffffffffffffff16637b0e5c456040518163ffffffff1660e01b815260040160206040518083038186803b15801561215757600080fd5b505afa15801561216b573d6000803e3d6000fd5b505050506040513d601f19601f8201168201806040525081019061218f91906136cc565b73ffffffffffffffffffffffffffffffffffffffff16631ba326c48787846040518463ffffffff1660e01b81526004016121cb93929190613cf1565b60206040518083038186803b1580156121e357600080fd5b505afa1580156121f7573d6000803e3d6000fd5b505050506040513d601f19601f8201168201806040525081019061221b919061386a565b97505050505050509250929050565b7f000000000000000000000000000000000000000000000000000000000000000081565b600c6020528060005260406000206000915090505481565b600160009054906101000a900473ffffffffffffffffffffffffffffffffffffffff1681565b600080600090505b82518110156122fa576122e68382815181106122d9577f4e487b7100000000000000000000000000000000000000000000000000000000600052603260045260246000fd5b6020026020010151611515565b5080806122f290613f9d565b915050612294565b5060019050919050565b6000600b60008373ffffffffffffffffffffffffffffffffffffffff1673ffffffffffffffffffffffffffffffffffffffff16815260200190815260200160002060008473ffffffffffffffffffffffffffffffffffffffff1673ffffffffffffffffffffffffffffffffffffffff16815260200190815260200160002054905092915050565b6000600b60008373ffffffffffffffffffffffffffffffffffffffff1673ffffffffffffffffffffffffffffffffffffffff16815260200190815260200160002060008473ffffffffffffffffffffffffffffffffffffffff1673ffffffffffffffffffffffffffffffffffffffff16815260200190815260200160002054421115612574576000600b60008473ffffffffffffffffffffffffffffffffffffffff1673ffffffffffffffffffffffffffffffffffffffff16815260200190815260200160002060008573ffffffffffffffffffffffffffffffffffffffff1673ffffffffffffffffffffffffffffffffffffffff168152602001908152602001600020544261249b9190613e81565b90506000806124aa8686611e94565b915091507f000000000000000000000000000000000000000000000000000000000000000073ffffffffffffffffffffffffffffffffffffffff16636b92a3b66040518163ffffffff1660e01b815260040160206040518083038186803b15801561251457600080fd5b505afa158015612528573d6000803e3d6000fd5b505050506040513d601f19601f8201168201806040525081019061254c919061386a565b83836125589190613e27565b6125629190613df6565b935080841115612570578093505b5050505b92915050565b7f000000000000000000000000000000000000000000000000000000000000000081565b600881815481106125ae57600080fd5b906000526020600020016000915090505481565b60026000541415612608576040517f08c379a00000000000000000000000000000000000000000000000000000000081526004016125ff90613c64565b60405180910390fd5b600260008190555060008111612653576040517f08c379a000000000000000000000000000000000000000000000000000000000815260040161264a90613bc4565b60405180910390fd5b600254600c60003373ffffffffffffffffffffffffffffffffffffffff1673ffffffffffffffffffffffffffffffffffffffff168152602001908152602001600020546126a09190613da0565b42116126e1576040517f08c379a00000000000000000000000000000000000000000000000000000000081526004016126d890613ba4565b60405180910390fd5b60006126eb612af4565b73ffffffffffffffffffffffffffffffffffffffff16637b0e5c456040518163ffffffff1660e01b815260040160206040518083038186803b15801561273057600080fd5b505afa158015612744573d6000803e3d6000fd5b505050506040513d601f19601f8201168201806040525081019061276891906136cc565b73ffffffffffffffffffffffffffffffffffffffff1663714270ab83600960003373ffffffffffffffffffffffffffffffffffffffff1673ffffffffffffffffffffffffffffffffffffffff16815260200190815260200160002060008773ffffffffffffffffffffffffffffffffffffffff1673ffffffffffffffffffffffffffffffffffffffff168152602001908152602001600020546040518363ffffffff1660e01b815260040161281e929190613cc8565b60206040518083038186803b15801561283657600080fd5b505afa15801561284a573d6000803e3d6000fd5b505050506040513d601f19601f8201168201806040525081019061286e919061386a565b905080600960003373ffffffffffffffffffffffffffffffffffffffff1673ffffffffffffffffffffffffffffffffffffffff16815260200190815260200160002060008573ffffffffffffffffffffffffffffffffffffffff1673ffffffffffffffffffffffffffffffffffffffff16815260200190815260200160002060008282546128fc9190613e81565b9250508190555080600a60008573ffffffffffffffffffffffffffffffffffffffff1673ffffffffffffffffffffffffffffffffffffffff16815260200190815260200160002060008282546129529190613e81565b92505081905550612964833383613192565b3373ffffffffffffffffffffffffffffffffffffffff168373ffffffffffffffffffffffffffffffffffffffff167f12dcb5d4117cb4675d56c72f030db8f0f4dd34f875fe484eea4cf0790b5deaa3836040516129c19190613c84565b60405180910390a35060016000819055505050565b600160009054906101000a900473ffffffffffffffffffffffffffffffffffffffff1673ffffffffffffffffffffffffffffffffffffffff163373ffffffffffffffffffffffffffffffffffffffff161480612ae15750612a35612af4565b73ffffffffffffffffffffffffffffffffffffffff166398fabd3a6040518163ffffffff1660e01b815260040160206040518083038186803b158015612a7a57600080fd5b505afa158015612a8e573d6000803e3d6000fd5b505050506040513d601f19601f82011682018060405250810190612ab291906136cc565b73ffffffffffffffffffffffffffffffffffffffff163373ffffffffffffffffffffffffffffffffffffffff16145b612aea57600080fd5b8060048190555050565b60007f000000000000000000000000000000000000000000000000000000000000000073ffffffffffffffffffffffffffffffffffffffff166398fabd3a6040518163ffffffff1660e01b815260040160206040518083038186803b158015612b5c57600080fd5b505afa158015612b70573d6000803e3d6000fd5b505050506040513d601f19601f82011682018060405250810190612b949190613818565b905090565b6000808273ffffffffffffffffffffffffffffffffffffffff166370a08231306040518263ffffffff1660e01b8152600401612bd59190613ace565b60206040518083038186803b158015612bed57600080fd5b505afa158015612c01573d6000803e3d6000fd5b505050506040513d601f19601f82011682018060405250810190612c25919061386a565b9050600a60008473ffffffffffffffffffffffffffffffffffffffff1673ffffffffffffffffffffffffffffffffffffffff16815260200190815260200160002054811115612cc057600a60008473ffffffffffffffffffffffffffffffffffffffff1673ffffffffffffffffffffffffffffffffffffffff1681526020019081526020016000205481612cb99190613e81565b9150612cc5565b600091505b50919050565b60008111612d0e576040517f08c379a0000000000000000000000000000000000000000000000000000000008152600401612d0590613bc4565b60405180910390fd5b600a600b60008473ffffffffffffffffffffffffffffffffffffffff1673ffffffffffffffffffffffffffffffffffffffff16815260200190815260200160002060008573ffffffffffffffffffffffffffffffffffffffff1673ffffffffffffffffffffffffffffffffffffffff16815260200190815260200160002054612d979190613da0565b4211612dd8576040517f08c379a0000000000000000000000000000000000000000000000000000000008152600401612dcf90613b84565b60405180910390fd5b42600b60008473ffffffffffffffffffffffffffffffffffffffff1673ffffffffffffffffffffffffffffffffffffffff16815260200190815260200160002060008573ffffffffffffffffffffffffffffffffffffffff1673ffffffffffffffffffffffffffffffffffffffff1681526020019081526020016000208190555042600c60008473ffffffffffffffffffffffffffffffffffffffff1673ffffffffffffffffffffffffffffffffffffffff1681526020019081526020016000208190555080600960008473ffffffffffffffffffffffffffffffffffffffff1673ffffffffffffffffffffffffffffffffffffffff16815260200190815260200160002060008573ffffffffffffffffffffffffffffffffffffffff1673ffffffffffffffffffffffffffffffffffffffff1681526020019081526020016000206000828254612f299190613da0565b9250508190555080600a60008573ffffffffffffffffffffffffffffffffffffffff1673ffffffffffffffffffffffffffffffffffffffff1681526020019081526020016000206000828254612f7f9190613da0565b925050819055508173ffffffffffffffffffffffffffffffffffffffff168373ffffffffffffffffffffffffffffffffffffffff167f5f9b5a75581a29d72b32414a5df7f1ef124b7787b38616fb8fdcad76179127c283604051612fe39190613c84565b60405180910390a3505050565b6000808573ffffffffffffffffffffffffffffffffffffffff166323b872dd86868660405160240161302493929190613ae9565b6040516020818303038152906040529060e01b6020820180517bffffffffffffffffffffffffffffffffffffffffffffffffffffffff83818316178352505050506040516130729190613ab7565b6000604051808303816000865af19150503d80600081146130af576040519150601f19603f3d011682016040523d82523d6000602084013e6130b4565b606091505b50915091508180156130e257506000815114806130e15750808060200190518101906130e091906137ef565b5b5b613121576040517f08c379a000000000000000000000000000000000000000000000000000000000815260040161311890613c24565b60405180910390fd5b505050505050565b6000600554141561313c57426005819055505b62278d0060055461314d9190613da0565b421161316c57806006546131619190613da0565b60068190555061318f565b426005819055506006546007819055506131876007546132c8565b806006819055505b50565b6000808473ffffffffffffffffffffffffffffffffffffffff1663a9059cbb85856040516024016131c4929190613b20565b6040516020818303038152906040529060e01b6020820180517bffffffffffffffffffffffffffffffffffffffffffffffffffffffff83818316178352505050506040516132129190613ab7565b6000604051808303816000865af19150503d806000811461324f576040519150601f19603f3d011682016040523d82523d6000602084013e613254565b606091505b5091509150818015613282575060008151148061328157508080602001905181019061328091906137ef565b5b5b6132c1576040517f08c379a00000000000000000000000000000000000000000000000000000000081526004016132b890613b64565b60405180910390fd5b5050505050565b60026008805490501461330357600881908060018154018082558091505060019003906000526020600020016000909190919091505561330d565b61330c81613310565b5b50565b6000600880548060200260200160405190810160405280929190818152602001828054801561335e57602002820191906000526020600020905b81548152602001906001019080831161334a575b50505050509050600081519050600060018261337a9190613e81565b90505b600081111561342b57826001826133949190613e81565b815181106133cb577f4e487b7100000000000000000000000000000000000000000000000000000000600052603260045260246000fd5b602002602001015183828151811061340c577f4e487b7100000000000000000000000000000000000000000000000000000000600052603260045260246000fd5b602002602001018181525050808061342390613f42565b91505061337d565b508282600081518110613467577f4e487b7100000000000000000000000000000000000000000000000000000000600052603260045260246000fd5b602002602001018181525050816008908051906020019061348992919061348f565b50505050565b8280548282559060005260206000209081019282156134cb579160200282015b828111156134ca5782518255916020019190600101906134af565b5b5090506134d891906134dc565b5090565b5b808211156134f55760008160009055506001016134dd565b5090565b600061350c61350784613d4d565b613d28565b9050808382526020820190508285602086028201111561352b57600080fd5b60005b8581101561355b578161354188826135d1565b84526020840193506020830192505060018101905061352e565b5050509392505050565b600061357861357384613d4d565b613d28565b9050808382526020820190508285602086028201111561359757600080fd5b60005b858110156135c757816135ad88826135e6565b84526020840193506020830192505060018101905061359a565b5050509392505050565b6000813590506135e08161421b565b92915050565b6000815190506135f58161421b565b92915050565b600082601f83011261360c57600080fd5b813561361c8482602086016134f9565b91505092915050565b600082601f83011261363657600080fd5b8151613646848260208601613565565b91505092915050565b60008151905061365e81614232565b92915050565b60008151905061367381614249565b92915050565b60008135905061368881614260565b92915050565b60008151905061369d81614260565b92915050565b6000602082840312156136b557600080fd5b60006136c3848285016135d1565b91505092915050565b6000602082840312156136de57600080fd5b60006136ec848285016135e6565b91505092915050565b6000806040838503121561370857600080fd5b6000613716858286016135d1565b9250506020613727858286016135d1565b9150509250929050565b6000806040838503121561374457600080fd5b6000613752858286016135d1565b925050602061376385828601613679565b9150509250929050565b60006020828403121561377f57600080fd5b600082013567ffffffffffffffff81111561379957600080fd5b6137a5848285016135fb565b91505092915050565b6000602082840312156137c057600080fd5b600082015167ffffffffffffffff8111156137da57600080fd5b6137e684828501613625565b91505092915050565b60006020828403121561380157600080fd5b600061380f8482850161364f565b91505092915050565b60006020828403121561382a57600080fd5b600061383884828501613664565b91505092915050565b60006020828403121561385357600080fd5b600061386184828501613679565b91505092915050565b60006020828403121561387c57600080fd5b600061388a8482850161368e565b91505092915050565b600080604083850312156138a657600080fd5b60006138b48582860161368e565b92505060206138c58582860161368e565b9150509250929050565b6000806000606084860312156138e457600080fd5b60006138f286828701613679565b935050602061390386828701613679565b925050604061391486828701613679565b9150509250925092565b61392781613eb5565b82525050565b61393681613ec7565b82525050565b600061394782613d79565b6139518185613d84565b9350613961818560208601613f0f565b80840191505092915050565b600061397a601f83613d8f565b915061398582614084565b602082019050919050565b600061399d600c83613d8f565b91506139a8826140ad565b602082019050919050565b60006139c0600783613d8f565b91506139cb826140d6565b602082019050919050565b60006139e3600683613d8f565b91506139ee826140ff565b602082019050919050565b6000613a06600683613d8f565b9150613a1182614128565b602082019050919050565b6000613a29600583613d8f565b9150613a3482614151565b602082019050919050565b6000613a4c602483613d8f565b9150613a578261417a565b604082019050919050565b6000613a6f600683613d8f565b9150613a7a826141c9565b602082019050919050565b6000613a92601f83613d8f565b9150613a9d826141f2565b602082019050919050565b613ab181613f05565b82525050565b6000613ac3828461393c565b915081905092915050565b6000602082019050613ae3600083018461391e565b92915050565b6000606082019050613afe600083018661391e565b613b0b602083018561391e565b613b186040830184613aa8565b949350505050565b6000604082019050613b35600083018561391e565b613b426020830184613aa8565b9392505050565b6000602082019050613b5e600083018461392d565b92915050565b60006020820190508181036000830152613b7d8161396d565b9050919050565b60006020820190508181036000830152613b9d81613990565b9050919050565b60006020820190508181036000830152613bbd816139b3565b9050919050565b60006020820190508181036000830152613bdd816139d6565b9050919050565b60006020820190508181036000830152613bfd816139f9565b9050919050565b60006020820190508181036000830152613c1d81613a1c565b9050919050565b60006020820190508181036000830152613c3d81613a3f565b9050919050565b60006020820190508181036000830152613c5d81613a62565b9050919050565b60006020820190508181036000830152613c7d81613a85565b9050919050565b6000602082019050613c996000830184613aa8565b92915050565b6000604082019050613cb46000830185613aa8565b613cc1602083018461391e565b9392505050565b6000604082019050613cdd6000830185613aa8565b613cea6020830184613aa8565b9392505050565b6000606082019050613d066000830186613aa8565b613d136020830185613aa8565b613d206040830184613aa8565b949350505050565b6000613d32613d43565b9050613d3e8282613f6c565b919050565b6000604051905090565b600067ffffffffffffffff821115613d6857613d67614044565b5b602082029050602081019050919050565b600081519050919050565b600081905092915050565b600082825260208201905092915050565b6000613dab82613f05565b9150613db683613f05565b9250827fffffffffffffffffffffffffffffffffffffffffffffffffffffffffffffffff03821115613deb57613dea613fe6565b5b828201905092915050565b6000613e0182613f05565b9150613e0c83613f05565b925082613e1c57613e1b614015565b5b828204905092915050565b6000613e3282613f05565b9150613e3d83613f05565b9250817fffffffffffffffffffffffffffffffffffffffffffffffffffffffffffffffff0483118215151615613e7657613e75613fe6565b5b828202905092915050565b6000613e8c82613f05565b9150613e9783613f05565b925082821015613eaa57613ea9613fe6565b5b828203905092915050565b6000613ec082613ee5565b9050919050565b60008115159050919050565b6000613ede82613eb5565b9050919050565b600073ffffffffffffffffffffffffffffffffffffffff82169050919050565b6000819050919050565b60005b83811015613f2d578082015181840152602081019050613f12565b83811115613f3c576000848401525b50505050565b6000613f4d82613f05565b91506000821415613f6157613f60613fe6565b5b600182039050919050565b613f7582614073565b810181811067ffffffffffffffff82111715613f9457613f93614044565b5b80604052505050565b6000613fa882613f05565b91507fffffffffffffffffffffffffffffffffffffffffffffffffffffffffffffffff821415613fdb57613fda613fe6565b5b600182019050919050565b7f4e487b7100000000000000000000000000000000000000000000000000000000600052601160045260246000fd5b7f4e487b7100000000000000000000000000000000000000000000000000000000600052601260045260246000fd5b7f4e487b7100000000000000000000000000000000000000000000000000000000600052604160045260246000fd5b6000601f19601f8301169050919050565b7f5472616e7366657248656c7065723a205452414e534645525f4641494c454400600082015250565b7f214465706f73697454696d650000000000000000000000000000000000000000600082015250565b7f6c6f636b6f757400000000000000000000000000000000000000000000000000600082015250565b7f2156414c49440000000000000000000000000000000000000000000000000000600082015250565b7f2153796e74680000000000000000000000000000000000000000000000000000600082015250565b7f2153414645000000000000000000000000000000000000000000000000000000600082015250565b7f5472616e7366657248656c7065723a205452414e534645525f46524f4d5f464160008201527f494c454400000000000000000000000000000000000000000000000000000000602082015250565b7f4c4f434b45440000000000000000000000000000000000000000000000000000600082015250565b7f5265656e7472616e637947756172643a207265656e7472616e742063616c6c00600082015250565b61422481613eb5565b811461422f57600080fd5b50565b61423b81613ec7565b811461424657600080fd5b50565b61425281613ed3565b811461425d57600080fd5b50565b61426981613f05565b811461427457600080fd5b5056fea2646970667358221220b065d3478a6b202db135b32ce4af114c72ea4257faa0822975106343a5d24eab64736f6c63430008030033",
  "linkReferences": {},
  "deployedLinkReferences": {}
}