{
  "_format": "hh-sol-artifact-1",
  "contractName": "Reserve",
  "sourceName": "contracts/Reserve.sol",
  "abi": [
    {
      "inputs": [
        {
          "internalType": "address",
          "name": "_base",
          "type": "address"
        },
        {
          "internalType": "address",
          "name": "_wbnb",
          "type": "address"
        }
      ],
      "stateMutability": "nonpayable",
      "type": "constructor"
    },
    {
      "anonymous": false,
      "inputs": [
        {
          "indexed": false,
          "internalType": "address",
          "name": "pool",
          "type": "address"
        },
        {
          "indexed": false,
          "internalType": "uint256",
          "name": "amount",
          "type": "uint256"
        }
      ],
      "name": "RealisePOL",
      "type": "event"
    },
    {
      "inputs": [],
      "name": "BASE",
      "outputs": [
        {
          "internalType": "address",
          "name": "",
          "type": "address"
        }
      ],
      "stateMutability": "view",
      "type": "function"
    },
    {
      "inputs": [],
      "name": "DEPLOYER",
      "outputs": [
        {
          "internalType": "address",
          "name": "",
          "type": "address"
        }
      ],
      "stateMutability": "view",
      "type": "function"
    },
    {
      "inputs": [],
      "name": "emissions",
      "outputs": [
        {
          "internalType": "bool",
          "name": "",
          "type": "bool"
        }
      ],
      "stateMutability": "view",
      "type": "function"
    },
    {
      "inputs": [],
      "name": "flipEmissions",
      "outputs": [],
      "stateMutability": "nonpayable",
      "type": "function"
    },
    {
      "inputs": [],
      "name": "flipPol",
      "outputs": [],
      "stateMutability": "nonpayable",
      "type": "function"
    },
    {
      "inputs": [],
      "name": "freezeTime",
      "outputs": [
        {
          "internalType": "uint256",
          "name": "",
          "type": "uint256"
        }
      ],
      "stateMutability": "view",
      "type": "function"
    },
    {
      "inputs": [],
      "name": "globalFreeze",
      "outputs": [
        {
          "internalType": "bool",
          "name": "",
          "type": "bool"
        }
      ],
      "stateMutability": "view",
      "type": "function"
    },
    {
      "inputs": [
        {
          "internalType": "uint256",
          "name": "amount",
          "type": "uint256"
        },
        {
          "internalType": "address",
          "name": "to",
          "type": "address"
        }
      ],
      "name": "grantFunds",
      "outputs": [],
      "stateMutability": "nonpayable",
      "type": "function"
    },
    {
      "inputs": [
        {
          "internalType": "uint256",
          "name": "amount",
          "type": "uint256"
        },
        {
          "internalType": "address",
          "name": "to",
          "type": "address"
        }
      ],
      "name": "grantPOLFunds",
      "outputs": [],
      "stateMutability": "nonpayable",
      "type": "function"
    },
    {
      "inputs": [],
      "name": "performApprovals",
      "outputs": [],
      "stateMutability": "nonpayable",
      "type": "function"
    },
    {
      "inputs": [],
      "name": "polClaim",
      "outputs": [
        {
          "internalType": "uint256",
          "name": "",
          "type": "uint256"
        }
      ],
      "stateMutability": "view",
      "type": "function"
    },
    {
      "inputs": [],
      "name": "polEmission",
      "outputs": [
        {
          "internalType": "uint256",
          "name": "",
          "type": "uint256"
        }
      ],
      "stateMutability": "view",
      "type": "function"
    },
    {
      "inputs": [],
      "name": "polPoolAddress",
      "outputs": [
        {
          "internalType": "address",
          "name": "",
          "type": "address"
        }
      ],
      "stateMutability": "view",
      "type": "function"
    },
    {
      "inputs": [],
      "name": "polStatus",
      "outputs": [
        {
          "internalType": "bool",
          "name": "",
          "type": "bool"
        }
      ],
      "stateMutability": "view",
      "type": "function"
    },
    {
      "inputs": [],
      "name": "polTime",
      "outputs": [
        {
          "internalType": "uint256",
          "name": "",
          "type": "uint256"
        }
      ],
      "stateMutability": "view",
      "type": "function"
    },
    {
      "inputs": [],
      "name": "polTokenAddress",
      "outputs": [
        {
          "internalType": "address",
          "name": "",
          "type": "address"
        }
      ],
      "stateMutability": "view",
      "type": "function"
    },
    {
      "inputs": [],
      "name": "purgeDeployer",
      "outputs": [],
      "stateMutability": "nonpayable",
      "type": "function"
    },
    {
      "inputs": [],
      "name": "realiseClaim",
      "outputs": [
        {
          "internalType": "uint256",
          "name": "",
          "type": "uint256"
        }
      ],
      "stateMutability": "view",
      "type": "function"
    },
    {
      "inputs": [],
      "name": "realisePOL",
      "outputs": [],
      "stateMutability": "nonpayable",
      "type": "function"
    },
    {
      "inputs": [
        {
          "internalType": "bool",
          "name": "freeze",
          "type": "bool"
        }
      ],
      "name": "setGlobalFreeze",
      "outputs": [],
      "stateMutability": "nonpayable",
      "type": "function"
    },
    {
      "inputs": [
        {
          "internalType": "uint256",
          "name": "newPolEmission",
          "type": "uint256"
        },
        {
          "internalType": "uint256",
          "name": "newPolClaim",
          "type": "uint256"
        },
        {
          "internalType": "uint256",
          "name": "newRealiseClaim",
          "type": "uint256"
        }
      ],
      "name": "setPOLParams",
      "outputs": [],
      "stateMutability": "nonpayable",
      "type": "function"
    },
    {
      "inputs": [
        {
          "internalType": "address",
          "name": "token",
          "type": "address"
        }
      ],
      "name": "setParams",
      "outputs": [],
      "stateMutability": "nonpayable",
      "type": "function"
    },
    {
      "stateMutability": "payable",
      "type": "receive"
    }
  ],
  "bytecode": "0x60c06040523480156200001157600080fd5b5060405162003a9938038062003a9983398181016040528101906200003791906200013e565b8173ffffffffffffffffffffffffffffffffffffffff1660808173ffffffffffffffffffffffffffffffffffffffff1660601b815250508073ffffffffffffffffffffffffffffffffffffffff1660a08173ffffffffffffffffffffffffffffffffffffffff1660601b81525050336000806101000a81548173ffffffffffffffffffffffffffffffffffffffff021916908373ffffffffffffffffffffffffffffffffffffffff16021790555042600581905550600160048190555060056007819055506000600660006101000a81548160ff02191690831515021790555060646008819055505050620001cd565b6000815190506200013881620001b3565b92915050565b600080604083850312156200015257600080fd5b6000620001628582860162000127565b9250506020620001758582860162000127565b9150509250929050565b60006200018c8262000193565b9050919050565b600073ffffffffffffffffffffffffffffffffffffffff82169050919050565b620001be816200017f565b8114620001ca57600080fd5b50565b60805160601c60a05160601c61386f6200022a60003960008181612324015261234e015260008181610d5701528181611d3801528181611e0c01528181611e3c015281816126b601528181612a8a0152612c6b015261386f6000f3fe6080604052600436106101395760003560e01c80637d458baa116100ab578063c3eb6b431161006f578063c3eb6b43146103af578063cf03113a146103c6578063ec342ad0146103f1578063f0f35c041461041c578063fd7e1bee14610447578063fe1fa8fa1461047257610140565b80637d458baa146102dc5780638fc50b4e14610305578063940eaf4d1461032e578063a77e0f1114610359578063c1b8411a1461038457610140565b80632267716c116100fd5780632267716c146101f457806327dc39281461021f5780634e49acac14610236578063714844551461025f578063772d5788146102885780637828c717146102b357610140565b80630397fe791461014557806303a82138146101705780630909138a14610187578063150a73eb1461019e578063194e22ce146101c957610140565b3661014057005b600080fd5b34801561015157600080fd5b5061015a610489565b60405161016791906133fd565b60405180910390f35b34801561017c57600080fd5b506101856104af565b005b34801561019357600080fd5b5061019c610868565b005b3480156101aa57600080fd5b506101b3610c0a565b6040516101c0919061346a565b60405180910390f35b3480156101d557600080fd5b506101de610c1d565b6040516101eb919061346a565b60405180910390f35b34801561020057600080fd5b50610209610c30565b604051610216919061346a565b60405180910390f35b34801561022b57600080fd5b50610234610c43565b005b34801561024257600080fd5b5061025d6004803603810190610258919061318f565b610fd3565b005b34801561026b57600080fd5b5061028660048036038101906102819190613285565b6113a1565b005b34801561029457600080fd5b5061029d6115ef565b6040516102aa91906134e5565b60405180910390f35b3480156102bf57600080fd5b506102da60048036038101906102d591906131e1565b6115f5565b005b3480156102e857600080fd5b5061030360048036038101906102fe9190613285565b6119be565b005b34801561031157600080fd5b5061032c600480360381019061032791906132c1565b611e72565b005b34801561033a57600080fd5b50610343611f9e565b60405161035091906134e5565b60405180910390f35b34801561036557600080fd5b5061036e611fa4565b60405161037b91906134e5565b60405180910390f35b34801561039057600080fd5b50610399611faa565b6040516103a691906133fd565b60405180910390f35b3480156103bb57600080fd5b506103c4611fce565b005b3480156103d257600080fd5b506103db61268e565b6040516103e891906133fd565b60405180910390f35b3480156103fd57600080fd5b506104066126b4565b60405161041391906133fd565b60405180910390f35b34801561042857600080fd5b506104316126d8565b60405161043e91906134e5565b60405180910390f35b34801561045357600080fd5b5061045c6126de565b60405161046991906134e5565b60405180910390f35b34801561047e57600080fd5b506104876126e4565b005b600260009054906101000a900473ffffffffffffffffffffffffffffffffffffffff1681565b6104b7612a86565b73ffffffffffffffffffffffffffffffffffffffff166398fabd3a6040518163ffffffff1660e01b815260040160206040518083038186803b1580156104fc57600080fd5b505afa158015610510573d6000803e3d6000fd5b505050506040513d601f19601f8201168201806040525081019061053491906131b8565b73ffffffffffffffffffffffffffffffffffffffff163373ffffffffffffffffffffffffffffffffffffffff16148061061c5750610570612a86565b73ffffffffffffffffffffffffffffffffffffffff166332fe7b266040518163ffffffff1660e01b815260040160206040518083038186803b1580156105b557600080fd5b505afa1580156105c9573d6000803e3d6000fd5b505050506040513d601f19601f820116820180604052508101906105ed91906131b8565b73ffffffffffffffffffffffffffffffffffffffff163373ffffffffffffffffffffffffffffffffffffffff16145b806106d6575061062a612a86565b73ffffffffffffffffffffffffffffffffffffffff16632ab24e496040518163ffffffff1660e01b815260040160206040518083038186803b15801561066f57600080fd5b505afa158015610683573d6000803e3d6000fd5b505050506040513d601f19601f820116820180604052508101906106a791906131b8565b73ffffffffffffffffffffffffffffffffffffffff163373ffffffffffffffffffffffffffffffffffffffff16145b8061072c575060008054906101000a900473ffffffffffffffffffffffffffffffffffffffff1673ffffffffffffffffffffffffffffffffffffffff163373ffffffffffffffffffffffffffffffffffffffff16145b806107e6575061073a612a86565b73ffffffffffffffffffffffffffffffffffffffff1663f301e7816040518163ffffffff1660e01b815260040160206040518083038186803b15801561077f57600080fd5b505afa158015610793573d6000803e3d6000fd5b505050506040513d601f19601f820116820180604052508101906107b791906131b8565b73ffffffffffffffffffffffffffffffffffffffff163373ffffffffffffffffffffffffffffffffffffffff16145b610825576040517f08c379a000000000000000000000000000000000000000000000000000000000815260040161081c90613485565b60405180910390fd5b60008060006101000a81548173ffffffffffffffffffffffffffffffffffffffff021916908373ffffffffffffffffffffffffffffffffffffffff160217905550565b610870612a86565b73ffffffffffffffffffffffffffffffffffffffff166398fabd3a6040518163ffffffff1660e01b815260040160206040518083038186803b1580156108b557600080fd5b505afa1580156108c9573d6000803e3d6000fd5b505050506040513d601f19601f820116820180604052508101906108ed91906131b8565b73ffffffffffffffffffffffffffffffffffffffff163373ffffffffffffffffffffffffffffffffffffffff1614806109d55750610929612a86565b73ffffffffffffffffffffffffffffffffffffffff166332fe7b266040518163ffffffff1660e01b815260040160206040518083038186803b15801561096e57600080fd5b505afa158015610982573d6000803e3d6000fd5b505050506040513d601f19601f820116820180604052508101906109a691906131b8565b73ffffffffffffffffffffffffffffffffffffffff163373ffffffffffffffffffffffffffffffffffffffff16145b80610a8f57506109e3612a86565b73ffffffffffffffffffffffffffffffffffffffff16632ab24e496040518163ffffffff1660e01b815260040160206040518083038186803b158015610a2857600080fd5b505afa158015610a3c573d6000803e3d6000fd5b505050506040513d601f19601f82011682018060405250810190610a6091906131b8565b73ffffffffffffffffffffffffffffffffffffffff163373ffffffffffffffffffffffffffffffffffffffff16145b80610ae5575060008054906101000a900473ffffffffffffffffffffffffffffffffffffffff1673ffffffffffffffffffffffffffffffffffffffff163373ffffffffffffffffffffffffffffffffffffffff16145b80610b9f5750610af3612a86565b73ffffffffffffffffffffffffffffffffffffffff1663f301e7816040518163ffffffff1660e01b815260040160206040518083038186803b158015610b3857600080fd5b505afa158015610b4c573d6000803e3d6000fd5b505050506040513d601f19601f82011682018060405250810190610b7091906131b8565b73ffffffffffffffffffffffffffffffffffffffff163373ffffffffffffffffffffffffffffffffffffffff16145b610bde576040517f08c379a0000000000000000000000000000000000000000000000000000000008152600401610bd590613485565b60405180910390fd5b600660009054906101000a900460ff1615600660006101000a81548160ff021916908315150217905550565b600660009054906101000a900460ff1681565b600060159054906101000a900460ff1681565b600060149054906101000a900460ff1681565b610c4b612a86565b73ffffffffffffffffffffffffffffffffffffffff166398fabd3a6040518163ffffffff1660e01b815260040160206040518083038186803b158015610c9057600080fd5b505afa158015610ca4573d6000803e3d6000fd5b505050506040513d601f19601f82011682018060405250810190610cc891906131b8565b73ffffffffffffffffffffffffffffffffffffffff163373ffffffffffffffffffffffffffffffffffffffff161480610d4c575060008054906101000a900473ffffffffffffffffffffffffffffffffffffffff1673ffffffffffffffffffffffffffffffffffffffff163373ffffffffffffffffffffffffffffffffffffffff16145b610d5557600080fd5b7f000000000000000000000000000000000000000000000000000000000000000073ffffffffffffffffffffffffffffffffffffffff1663095ea7b3610d99612a86565b73ffffffffffffffffffffffffffffffffffffffff166332fe7b266040518163ffffffff1660e01b815260040160206040518083038186803b158015610dde57600080fd5b505afa158015610df2573d6000803e3d6000fd5b505050506040513d601f19601f82011682018060405250810190610e1691906131b8565b6af8277896582678ac0000006040518363ffffffff1660e01b8152600401610e3f929190613418565b602060405180830381600087803b158015610e5957600080fd5b505af1158015610e6d573d6000803e3d6000fd5b505050506040513d601f19601f82011682018060405250810190610e91919061320a565b50600360009054906101000a900473ffffffffffffffffffffffffffffffffffffffff1673ffffffffffffffffffffffffffffffffffffffff1663095ea7b3610ed8612a86565b73ffffffffffffffffffffffffffffffffffffffff166332fe7b266040518163ffffffff1660e01b815260040160206040518083038186803b158015610f1d57600080fd5b505afa158015610f31573d6000803e3d6000fd5b505050506040513d601f19601f82011682018060405250810190610f5591906131b8565b6af8277896582678ac0000006040518363ffffffff1660e01b8152600401610f7e929190613418565b602060405180830381600087803b158015610f9857600080fd5b505af1158015610fac573d6000803e3d6000fd5b505050506040513d601f19601f82011682018060405250810190610fd0919061320a565b50565b610fdb612a86565b73ffffffffffffffffffffffffffffffffffffffff166398fabd3a6040518163ffffffff1660e01b815260040160206040518083038186803b15801561102057600080fd5b505afa158015611034573d6000803e3d6000fd5b505050506040513d601f19601f8201168201806040525081019061105891906131b8565b73ffffffffffffffffffffffffffffffffffffffff163373ffffffffffffffffffffffffffffffffffffffff1614806110dc575060008054906101000a900473ffffffffffffffffffffffffffffffffffffffff1673ffffffffffffffffffffffffffffffffffffffff163373ffffffffffffffffffffffffffffffffffffffff16145b6110e557600080fd5b60006110ef612a86565b73ffffffffffffffffffffffffffffffffffffffff1663b99b0a0c6040518163ffffffff1660e01b815260040160206040518083038186803b15801561113457600080fd5b505afa158015611148573d6000803e3d6000fd5b505050506040513d601f19601f8201168201806040525081019061116c91906131b8565b73ffffffffffffffffffffffffffffffffffffffff1663bbe4f6db836040518263ffffffff1660e01b81526004016111a491906133fd565b60206040518083038186803b1580156111bc57600080fd5b505afa1580156111d0573d6000803e3d6000fd5b505050506040513d601f19601f820116820180604052508101906111f491906131b8565b905060011515611202612a86565b73ffffffffffffffffffffffffffffffffffffffff1663b99b0a0c6040518163ffffffff1660e01b815260040160206040518083038186803b15801561124757600080fd5b505afa15801561125b573d6000803e3d6000fd5b505050506040513d601f19601f8201168201806040525081019061127f91906131b8565b73ffffffffffffffffffffffffffffffffffffffff16638dcb4c93836040518263ffffffff1660e01b81526004016112b791906133fd565b60206040518083038186803b1580156112cf57600080fd5b505afa1580156112e3573d6000803e3d6000fd5b505050506040513d601f19601f82011682018060405250810190611307919061320a565b15151461131357600080fd5b81600260006101000a81548173ffffffffffffffffffffffffffffffffffffffff021916908373ffffffffffffffffffffffffffffffffffffffff16021790555080600360006101000a81548173ffffffffffffffffffffffffffffffffffffffff021916908373ffffffffffffffffffffffffffffffffffffffff16021790555061139d610c43565b5050565b6113a9612a86565b73ffffffffffffffffffffffffffffffffffffffff166398fabd3a6040518163ffffffff1660e01b815260040160206040518083038186803b1580156113ee57600080fd5b505afa158015611402573d6000803e3d6000fd5b505050506040513d601f19601f8201168201806040525081019061142691906131b8565b73ffffffffffffffffffffffffffffffffffffffff163373ffffffffffffffffffffffffffffffffffffffff1614806114aa575060008054906101000a900473ffffffffffffffffffffffffffffffffffffffff1673ffffffffffffffffffffffffffffffffffffffff163373ffffffffffffffffffffffffffffffffffffffff16145b6114b357600080fd5b6000600360009054906101000a900473ffffffffffffffffffffffffffffffffffffffff1673ffffffffffffffffffffffffffffffffffffffff166370a08231306040518263ffffffff1660e01b815260040161151091906133fd565b60206040518083038186803b15801561152857600080fd5b505afa15801561153c573d6000803e3d6000fd5b505050506040513d601f19601f82011682018060405250810190611560919061325c565b905060008311156115ea57600060149054906101000a900460ff16156115e957808311156115ba576115b5600360009054906101000a900473ffffffffffffffffffffffffffffffffffffffff168383612b2b565b6115e8565b6115e7600360009054906101000a900473ffffffffffffffffffffffffffffffffffffffff168385612b2b565b5b5b5b505050565b60055481565b6115fd612a86565b73ffffffffffffffffffffffffffffffffffffffff166398fabd3a6040518163ffffffff1660e01b815260040160206040518083038186803b15801561164257600080fd5b505afa158015611656573d6000803e3d6000fd5b505050506040513d601f19601f8201168201806040525081019061167a91906131b8565b73ffffffffffffffffffffffffffffffffffffffff163373ffffffffffffffffffffffffffffffffffffffff16148061176257506116b6612a86565b73ffffffffffffffffffffffffffffffffffffffff166332fe7b266040518163ffffffff1660e01b815260040160206040518083038186803b1580156116fb57600080fd5b505afa15801561170f573d6000803e3d6000fd5b505050506040513d601f19601f8201168201806040525081019061173391906131b8565b73ffffffffffffffffffffffffffffffffffffffff163373ffffffffffffffffffffffffffffffffffffffff16145b8061181c5750611770612a86565b73ffffffffffffffffffffffffffffffffffffffff16632ab24e496040518163ffffffff1660e01b815260040160206040518083038186803b1580156117b557600080fd5b505afa1580156117c9573d6000803e3d6000fd5b505050506040513d601f19601f820116820180604052508101906117ed91906131b8565b73ffffffffffffffffffffffffffffffffffffffff163373ffffffffffffffffffffffffffffffffffffffff16145b80611872575060008054906101000a900473ffffffffffffffffffffffffffffffffffffffff1673ffffffffffffffffffffffffffffffffffffffff163373ffffffffffffffffffffffffffffffffffffffff16145b8061192c5750611880612a86565b73ffffffffffffffffffffffffffffffffffffffff1663f301e7816040518163ffffffff1660e01b815260040160206040518083038186803b1580156118c557600080fd5b505afa1580156118d9573d6000803e3d6000fd5b505050506040513d601f19601f820116820180604052508101906118fd91906131b8565b73ffffffffffffffffffffffffffffffffffffffff163373ffffffffffffffffffffffffffffffffffffffff16145b61196b576040517f08c379a000000000000000000000000000000000000000000000000000000000815260040161196290613485565b60405180910390fd5b80600060156101000a81548160ff021916908315150217905550801561199757426001819055506119a0565b60006001819055505b8015600060146101000a81548160ff02191690831515021790555050565b6119c6612a86565b73ffffffffffffffffffffffffffffffffffffffff166398fabd3a6040518163ffffffff1660e01b815260040160206040518083038186803b158015611a0b57600080fd5b505afa158015611a1f573d6000803e3d6000fd5b505050506040513d601f19601f82011682018060405250810190611a4391906131b8565b73ffffffffffffffffffffffffffffffffffffffff163373ffffffffffffffffffffffffffffffffffffffff161480611b2b5750611a7f612a86565b73ffffffffffffffffffffffffffffffffffffffff166332fe7b266040518163ffffffff1660e01b815260040160206040518083038186803b158015611ac457600080fd5b505afa158015611ad8573d6000803e3d6000fd5b505050506040513d601f19601f82011682018060405250810190611afc91906131b8565b73ffffffffffffffffffffffffffffffffffffffff163373ffffffffffffffffffffffffffffffffffffffff16145b80611be55750611b39612a86565b73ffffffffffffffffffffffffffffffffffffffff16632ab24e496040518163ffffffff1660e01b815260040160206040518083038186803b158015611b7e57600080fd5b505afa158015611b92573d6000803e3d6000fd5b505050506040513d601f19601f82011682018060405250810190611bb691906131b8565b73ffffffffffffffffffffffffffffffffffffffff163373ffffffffffffffffffffffffffffffffffffffff16145b80611c3b575060008054906101000a900473ffffffffffffffffffffffffffffffffffffffff1673ffffffffffffffffffffffffffffffffffffffff163373ffffffffffffffffffffffffffffffffffffffff16145b80611cf55750611c49612a86565b73ffffffffffffffffffffffffffffffffffffffff1663f301e7816040518163ffffffff1660e01b815260040160206040518083038186803b158015611c8e57600080fd5b505afa158015611ca2573d6000803e3d6000fd5b505050506040513d601f19601f82011682018060405250810190611cc691906131b8565b73ffffffffffffffffffffffffffffffffffffffff163373ffffffffffffffffffffffffffffffffffffffff16145b611d34576040517f08c379a0000000000000000000000000000000000000000000000000000000008152600401611d2b90613485565b60405180910390fd5b60007f000000000000000000000000000000000000000000000000000000000000000073ffffffffffffffffffffffffffffffffffffffff166370a08231306040518263ffffffff1660e01b8152600401611d8f91906133fd565b60206040518083038186803b158015611da757600080fd5b505afa158015611dbb573d6000803e3d6000fd5b505050506040513d601f19601f82011682018060405250810190611ddf919061325c565b90506000831115611e6d57600060149054906101000a900460ff1615611e6c5780831115611e3757611e327f00000000000000000000000000000000000000000000000000000000000000008383612b2b565b611e63565b611e627f00000000000000000000000000000000000000000000000000000000000000008385612b2b565b5b611e6b612c61565b5b5b505050565b611e7a612a86565b73ffffffffffffffffffffffffffffffffffffffff166398fabd3a6040518163ffffffff1660e01b815260040160206040518083038186803b158015611ebf57600080fd5b505afa158015611ed3573d6000803e3d6000fd5b505050506040513d601f19601f82011682018060405250810190611ef791906131b8565b73ffffffffffffffffffffffffffffffffffffffff163373ffffffffffffffffffffffffffffffffffffffff161480611f7b575060008054906101000a900473ffffffffffffffffffffffffffffffffffffffff1673ffffffffffffffffffffffffffffffffffffffff163373ffffffffffffffffffffffffffffffffffffffff16145b611f8457600080fd5b826004819055508160078190555080600881905550505050565b60045481565b60085481565b60008054906101000a900473ffffffffffffffffffffffffffffffffffffffff1681565b611fd6612a86565b73ffffffffffffffffffffffffffffffffffffffff166398fabd3a6040518163ffffffff1660e01b815260040160206040518083038186803b15801561201b57600080fd5b505afa15801561202f573d6000803e3d6000fd5b505050506040513d601f19601f8201168201806040525081019061205391906131b8565b73ffffffffffffffffffffffffffffffffffffffff163373ffffffffffffffffffffffffffffffffffffffff1614806120d7575060008054906101000a900473ffffffffffffffffffffffffffffffffffffffff1673ffffffffffffffffffffffffffffffffffffffff163373ffffffffffffffffffffffffffffffffffffffff16145b6120e057600080fd5b6000600360009054906101000a900473ffffffffffffffffffffffffffffffffffffffff1673ffffffffffffffffffffffffffffffffffffffff166370a08231306040518263ffffffff1660e01b815260040161213d91906133fd565b60206040518083038186803b15801561215557600080fd5b505afa158015612169573d6000803e3d6000fd5b505050506040513d601f19601f8201168201806040525081019061218d919061325c565b90506000612710600854836121a291906135e5565b6121ac91906135b4565b90506121b6612a86565b73ffffffffffffffffffffffffffffffffffffffff166332fe7b266040518163ffffffff1660e01b815260040160206040518083038186803b1580156121fb57600080fd5b505afa15801561220f573d6000803e3d6000fd5b505050506040513d601f19601f8201168201806040525081019061223391906131b8565b73ffffffffffffffffffffffffffffffffffffffff16631e2dd515826000600260009054906101000a900473ffffffffffffffffffffffffffffffffffffffff166040518463ffffffff1660e01b815260040161229293929190613500565b600060405180830381600087803b1580156122ac57600080fd5b505af11580156122c0573d6000803e3d6000fd5b5050505060008073ffffffffffffffffffffffffffffffffffffffff16600260009054906101000a900473ffffffffffffffffffffffffffffffffffffffff1673ffffffffffffffffffffffffffffffffffffffff16141561239b574790506123497f000000000000000000000000000000000000000000000000000000000000000082612fd6565b6123967f0000000000000000000000000000000000000000000000000000000000000000600360009054906101000a900473ffffffffffffffffffffffffffffffffffffffff1683612b2b565b61251b565b600260009054906101000a900473ffffffffffffffffffffffffffffffffffffffff1673ffffffffffffffffffffffffffffffffffffffff166370a08231306040518263ffffffff1660e01b81526004016123f691906133fd565b60206040518083038186803b15801561240e57600080fd5b505afa158015612422573d6000803e3d6000fd5b505050506040513d601f19601f82011682018060405250810190612446919061325c565b9050600260009054906101000a900473ffffffffffffffffffffffffffffffffffffffff1673ffffffffffffffffffffffffffffffffffffffff1663a9059cbb600360009054906101000a900473ffffffffffffffffffffffffffffffffffffffff16836040518363ffffffff1660e01b81526004016124c7929190613441565b602060405180830381600087803b1580156124e157600080fd5b505af11580156124f5573d6000803e3d6000fd5b505050506040513d601f19601f82011682018060405250810190612519919061320a565b505b612523612a86565b73ffffffffffffffffffffffffffffffffffffffff166332fe7b266040518163ffffffff1660e01b815260040160206040518083038186803b15801561256857600080fd5b505afa15801561257c573d6000803e3d6000fd5b505050506040513d601f19601f820116820180604052508101906125a091906131b8565b73ffffffffffffffffffffffffffffffffffffffff16630e4256b0600360009054906101000a900473ffffffffffffffffffffffffffffffffffffffff16836040518363ffffffff1660e01b81526004016125fc929190613441565b600060405180830381600087803b15801561261657600080fd5b505af115801561262a573d6000803e3d6000fd5b505050507f12cd883e1e74d7facead72cdda0135ca945ffeb1e5029dd3f31b0b8e458e66fb600360009054906101000a900473ffffffffffffffffffffffffffffffffffffffff1682604051612681929190613441565b60405180910390a1505050565b600360009054906101000a900473ffffffffffffffffffffffffffffffffffffffff1681565b7f000000000000000000000000000000000000000000000000000000000000000081565b60075481565b60015481565b6126ec612a86565b73ffffffffffffffffffffffffffffffffffffffff166398fabd3a6040518163ffffffff1660e01b815260040160206040518083038186803b15801561273157600080fd5b505afa158015612745573d6000803e3d6000fd5b505050506040513d601f19601f8201168201806040525081019061276991906131b8565b73ffffffffffffffffffffffffffffffffffffffff163373ffffffffffffffffffffffffffffffffffffffff16148061285157506127a5612a86565b73ffffffffffffffffffffffffffffffffffffffff166332fe7b266040518163ffffffff1660e01b815260040160206040518083038186803b1580156127ea57600080fd5b505afa1580156127fe573d6000803e3d6000fd5b505050506040513d601f19601f8201168201806040525081019061282291906131b8565b73ffffffffffffffffffffffffffffffffffffffff163373ffffffffffffffffffffffffffffffffffffffff16145b8061290b575061285f612a86565b73ffffffffffffffffffffffffffffffffffffffff16632ab24e496040518163ffffffff1660e01b815260040160206040518083038186803b1580156128a457600080fd5b505afa1580156128b8573d6000803e3d6000fd5b505050506040513d601f19601f820116820180604052508101906128dc91906131b8565b73ffffffffffffffffffffffffffffffffffffffff163373ffffffffffffffffffffffffffffffffffffffff16145b80612961575060008054906101000a900473ffffffffffffffffffffffffffffffffffffffff1673ffffffffffffffffffffffffffffffffffffffff163373ffffffffffffffffffffffffffffffffffffffff16145b80612a1b575061296f612a86565b73ffffffffffffffffffffffffffffffffffffffff1663f301e7816040518163ffffffff1660e01b815260040160206040518083038186803b1580156129b457600080fd5b505afa1580156129c8573d6000803e3d6000fd5b505050506040513d601f19601f820116820180604052508101906129ec91906131b8565b73ffffffffffffffffffffffffffffffffffffffff163373ffffffffffffffffffffffffffffffffffffffff16145b612a5a576040517f08c379a0000000000000000000000000000000000000000000000000000000008152600401612a5190613485565b60405180910390fd5b600060149054906101000a900460ff1615600060146101000a81548160ff021916908315150217905550565b60007f000000000000000000000000000000000000000000000000000000000000000073ffffffffffffffffffffffffffffffffffffffff166398fabd3a6040518163ffffffff1660e01b815260040160206040518083038186803b158015612aee57600080fd5b505afa158015612b02573d6000803e3d6000fd5b505050506040513d601f19601f82011682018060405250810190612b269190613233565b905090565b6000808473ffffffffffffffffffffffffffffffffffffffff1663a9059cbb8585604051602401612b5d929190613441565b6040516020818303038152906040529060e01b6020820180517bffffffffffffffffffffffffffffffffffffffffffffffffffffffff8381831617835250505050604051612bab91906133e6565b6000604051808303816000865af19150503d8060008114612be8576040519150601f19603f3d011682016040523d82523d6000602084013e612bed565b606091505b5091509150818015612c1b5750600081511480612c1a575080806020019051810190612c19919061320a565b5b5b612c5a576040517f08c379a0000000000000000000000000000000000000000000000000000000008152600401612c51906134a5565b60405180910390fd5b5050505050565b60006127106007547f000000000000000000000000000000000000000000000000000000000000000073ffffffffffffffffffffffffffffffffffffffff166370a08231306040518263ffffffff1660e01b8152600401612cc291906133fd565b60206040518083038186803b158015612cda57600080fd5b505afa158015612cee573d6000803e3d6000fd5b505050506040513d601f19601f82011682018060405250810190612d12919061325c565b612d1c91906135e5565b612d2691906135b4565b905060055442118015612d455750600660009054906101000a900460ff165b15612fd3576000600360009054906101000a900473ffffffffffffffffffffffffffffffffffffffff1673ffffffffffffffffffffffffffffffffffffffff1663cbbcf8026040518163ffffffff1660e01b815260040160206040518083038186803b158015612db457600080fd5b505afa158015612dc8573d6000803e3d6000fd5b505050506040513d601f19601f82011682018060405250810190612dec919061325c565b90506000600360009054906101000a900473ffffffffffffffffffffffffffffffffffffffff1673ffffffffffffffffffffffffffffffffffffffff16634864d1406040518163ffffffff1660e01b815260040160206040518083038186803b158015612e5857600080fd5b505afa158015612e6c573d6000803e3d6000fd5b505050506040513d601f19601f82011682018060405250810190612e90919061325c565b9050818382612e9f919061355e565b1015612fd057612ead612a86565b73ffffffffffffffffffffffffffffffffffffffff166332fe7b266040518163ffffffff1660e01b815260040160206040518083038186803b158015612ef257600080fd5b505afa158015612f06573d6000803e3d6000fd5b505050506040513d601f19601f82011682018060405250810190612f2a91906131b8565b73ffffffffffffffffffffffffffffffffffffffff1663aa62519b846001600260009054906101000a900473ffffffffffffffffffffffffffffffffffffffff166040518463ffffffff1660e01b8152600401612f8993929190613500565b600060405180830381600087803b158015612fa357600080fd5b505af1158015612fb7573d6000803e3d6000fd5b5050505060045442612fc9919061355e565b6005819055505b50505b50565b60008273ffffffffffffffffffffffffffffffffffffffff1682600067ffffffffffffffff811115613031577f4e487b7100000000000000000000000000000000000000000000000000000000600052604160045260246000fd5b6040519080825280601f01601f1916602001820160405280156130635781602001600182028036833780820191505090505b5060405161307191906133e6565b60006040518083038185875af1925050503d80600081146130ae576040519150601f19603f3d011682016040523d82523d6000602084013e6130b3565b606091505b50509050806130f7576040517f08c379a00000000000000000000000000000000000000000000000000000000081526004016130ee906134c5565b60405180910390fd5b505050565b60008135905061310b816137dd565b92915050565b600081519050613120816137dd565b92915050565b600081359050613135816137f4565b92915050565b60008151905061314a816137f4565b92915050565b60008151905061315f8161380b565b92915050565b60008135905061317481613822565b92915050565b60008151905061318981613822565b92915050565b6000602082840312156131a157600080fd5b60006131af848285016130fc565b91505092915050565b6000602082840312156131ca57600080fd5b60006131d884828501613111565b91505092915050565b6000602082840312156131f357600080fd5b600061320184828501613126565b91505092915050565b60006020828403121561321c57600080fd5b600061322a8482850161313b565b91505092915050565b60006020828403121561324557600080fd5b600061325384828501613150565b91505092915050565b60006020828403121561326e57600080fd5b600061327c8482850161317a565b91505092915050565b6000806040838503121561329857600080fd5b60006132a685828601613165565b92505060206132b7858286016130fc565b9150509250929050565b6000806000606084860312156132d657600080fd5b60006132e486828701613165565b93505060206132f586828701613165565b925050604061330686828701613165565b9150509250925092565b6133198161363f565b82525050565b61332881613651565b82525050565b600061333982613537565b6133438185613542565b93506133538185602086016136ab565b80840191505092915050565b61336881613699565b82525050565b600061337b60048361354d565b91506133868261373c565b602082019050919050565b600061339e601f8361354d565b91506133a982613765565b602082019050919050565b60006133c160238361354d565b91506133cc8261378e565b604082019050919050565b6133e08161368f565b82525050565b60006133f2828461332e565b915081905092915050565b60006020820190506134126000830184613310565b92915050565b600060408201905061342d6000830185613310565b61343a602083018461335f565b9392505050565b60006040820190506134566000830185613310565b61346360208301846133d7565b9392505050565b600060208201905061347f600083018461331f565b92915050565b6000602082019050818103600083015261349e8161336e565b9050919050565b600060208201905081810360008301526134be81613391565b9050919050565b600060208201905081810360008301526134de816133b4565b9050919050565b60006020820190506134fa60008301846133d7565b92915050565b600060608201905061351560008301866133d7565b613522602083018561331f565b61352f6040830184613310565b949350505050565b600081519050919050565b600081905092915050565b600082825260208201905092915050565b60006135698261368f565b91506135748361368f565b9250827fffffffffffffffffffffffffffffffffffffffffffffffffffffffffffffffff038211156135a9576135a86136de565b5b828201905092915050565b60006135bf8261368f565b91506135ca8361368f565b9250826135da576135d961370d565b5b828204905092915050565b60006135f08261368f565b91506135fb8361368f565b9250817fffffffffffffffffffffffffffffffffffffffffffffffffffffffffffffffff0483118215151615613634576136336136de565b5b828202905092915050565b600061364a8261366f565b9050919050565b60008115159050919050565b60006136688261363f565b9050919050565b600073ffffffffffffffffffffffffffffffffffffffff82169050919050565b6000819050919050565b60006136a48261368f565b9050919050565b60005b838110156136c95780820151818401526020810190506136ae565b838111156136d8576000848401525b50505050565b7f4e487b7100000000000000000000000000000000000000000000000000000000600052601160045260246000fd5b7f4e487b7100000000000000000000000000000000000000000000000000000000600052601260045260246000fd5b7f2144414f00000000000000000000000000000000000000000000000000000000600082015250565b7f5472616e7366657248656c7065723a205452414e534645525f4641494c454400600082015250565b7f5472616e7366657248656c7065723a20424e425f5452414e534645525f46414960008201527f4c45440000000000000000000000000000000000000000000000000000000000602082015250565b6137e68161363f565b81146137f157600080fd5b50565b6137fd81613651565b811461380857600080fd5b50565b6138148161365d565b811461381f57600080fd5b50565b61382b8161368f565b811461383657600080fd5b5056fea26469706673582212204f96c148b4dba838ddaa9c1f2f3d532d2790c0fc16fb38ac7d7faabde31ae11c64736f6c63430008030033",
  "linkReferences": {},
  "deployedLinkReferences": {}
}