{
  "_format": "hh-sol-artifact-1",
  "contractName": "Reserve",
  "sourceName": "contracts/Reserve.sol",
  "abi": [
    {
      "inputs": [
        {
          "internalType": "address",
          "name": "_base",
          "type": "address"
        }
      ],
      "stateMutability": "nonpayable",
      "type": "constructor"
    },
    {
      "inputs": [],
      "name": "BASE",
      "outputs": [
        {
          "internalType": "address",
          "name": "",
          "type": "address"
        }
      ],
      "stateMutability": "view",
      "type": "function"
    },
    {
      "inputs": [],
      "name": "DEPLOYER",
      "outputs": [
        {
          "internalType": "address",
          "name": "",
          "type": "address"
        }
      ],
      "stateMutability": "view",
      "type": "function"
    },
    {
      "inputs": [],
      "name": "emissions",
      "outputs": [
        {
          "internalType": "bool",
          "name": "",
          "type": "bool"
        }
      ],
      "stateMutability": "view",
      "type": "function"
    },
    {
      "inputs": [],
      "name": "flipEmissions",
      "outputs": [],
      "stateMutability": "nonpayable",
      "type": "function"
    },
    {
      "inputs": [
        {
          "internalType": "uint256",
          "name": "amount",
          "type": "uint256"
        },
        {
          "internalType": "address",
          "name": "to",
          "type": "address"
        }
      ],
      "name": "grantFunds",
      "outputs": [],
      "stateMutability": "nonpayable",
      "type": "function"
    }
  ],
  "bytecode": "0x608060405234801561001057600080fd5b506040516108bf3803806108bf833981810160405281019061003291906100ce565b806000806101000a81548173ffffffffffffffffffffffffffffffffffffffff021916908373ffffffffffffffffffffffffffffffffffffffff16021790555033600160006101000a81548173ffffffffffffffffffffffffffffffffffffffff021916908373ffffffffffffffffffffffffffffffffffffffff16021790555050610140565b6000815190506100c881610129565b92915050565b6000602082840312156100e057600080fd5b60006100ee848285016100b9565b91505092915050565b600061010282610109565b9050919050565b600073ffffffffffffffffffffffffffffffffffffffff82169050919050565b610132816100f7565b811461013d57600080fd5b50565b6107708061014f6000396000f3fe608060405234801561001057600080fd5b50600436106100575760003560e01c80632267716c1461005c5780637d458baa1461007a578063c1b8411a14610096578063ec342ad0146100b4578063fe1fa8fa146100d2575b600080fd5b6100646100dc565b6040516100719190610638565b60405180910390f35b610094600480360381019061008f9190610568565b6100ef565b005b61009e6103bc565b6040516100ab91906105f4565b60405180910390f35b6100bc6103e2565b6040516100c991906105f4565b60405180910390f35b6100da610406565b005b600160149054906101000a900460ff1681565b600160009054906101000a900473ffffffffffffffffffffffffffffffffffffffff1673ffffffffffffffffffffffffffffffffffffffff163373ffffffffffffffffffffffffffffffffffffffff161461017f576040517f08c379a000000000000000000000000000000000000000000000000000000000815260040161017690610653565b60405180910390fd5b60008060009054906101000a900473ffffffffffffffffffffffffffffffffffffffff1673ffffffffffffffffffffffffffffffffffffffff166370a08231306040518263ffffffff1660e01b81526004016101db91906105f4565b60206040518083038186803b1580156101f357600080fd5b505afa158015610207573d6000803e3d6000fd5b505050506040513d601f19601f8201168201806040525081019061022b919061053f565b905060008311156103b757600160149054906101000a900460ff16156103b657808311156103065760008054906101000a900473ffffffffffffffffffffffffffffffffffffffff1673ffffffffffffffffffffffffffffffffffffffff1663a9059cbb83836040518363ffffffff1660e01b81526004016102ae92919061060f565b602060405180830381600087803b1580156102c857600080fd5b505af11580156102dc573d6000803e3d6000fd5b505050506040513d601f19601f820116820180604052508101906103009190610516565b506103b5565b60008054906101000a900473ffffffffffffffffffffffffffffffffffffffff1673ffffffffffffffffffffffffffffffffffffffff1663a9059cbb83856040518363ffffffff1660e01b815260040161036192919061060f565b602060405180830381600087803b15801561037b57600080fd5b505af115801561038f573d6000803e3d6000fd5b505050506040513d601f19601f820116820180604052508101906103b39190610516565b505b5b5b505050565b600160009054906101000a900473ffffffffffffffffffffffffffffffffffffffff1681565b60008054906101000a900473ffffffffffffffffffffffffffffffffffffffff1681565b600160009054906101000a900473ffffffffffffffffffffffffffffffffffffffff1673ffffffffffffffffffffffffffffffffffffffff163373ffffffffffffffffffffffffffffffffffffffff1614610496576040517f08c379a000000000000000000000000000000000000000000000000000000000815260040161048d90610653565b60405180910390fd5b600160149054906101000a900460ff1615600160146101000a81548160ff021916908315150217905550565b6000813590506104d1816106f5565b92915050565b6000815190506104e68161070c565b92915050565b6000813590506104fb81610723565b92915050565b60008151905061051081610723565b92915050565b60006020828403121561052857600080fd5b6000610536848285016104d7565b91505092915050565b60006020828403121561055157600080fd5b600061055f84828501610501565b91505092915050565b6000806040838503121561057b57600080fd5b6000610589858286016104ec565b925050602061059a858286016104c2565b9150509250929050565b6105ad81610684565b82525050565b6105bc81610696565b82525050565b60006105cf600483610673565b91506105da826106cc565b602082019050919050565b6105ee816106c2565b82525050565b600060208201905061060960008301846105a4565b92915050565b600060408201905061062460008301856105a4565b61063160208301846105e5565b9392505050565b600060208201905061064d60008301846105b3565b92915050565b6000602082019050818103600083015261066c816105c2565b9050919050565b600082825260208201905092915050565b600061068f826106a2565b9050919050565b60008115159050919050565b600073ffffffffffffffffffffffffffffffffffffffff82169050919050565b6000819050919050565b7f2144414f00000000000000000000000000000000000000000000000000000000600082015250565b6106fe81610684565b811461070957600080fd5b50565b61071581610696565b811461072057600080fd5b50565b61072c816106c2565b811461073757600080fd5b5056fea26469706673582212204ac7a718bb57ac9d1a12d90b93ba342f78dca803bd086ebad7b5f45cdb54685264736f6c63430008030033",
  "linkReferences": {},
  "deployedLinkReferences": {}
}