{
  "_format": "hh-sol-artifact-1",
  "contractName": "Reserve",
  "sourceName": "contracts/Reserve.sol",
  "abi": [
    {
      "inputs": [
        {
          "internalType": "address",
          "name": "_base",
          "type": "address"
        },
        {
          "internalType": "address",
          "name": "_wbnb",
          "type": "address"
        }
      ],
      "stateMutability": "nonpayable",
      "type": "constructor"
    },
    {
      "anonymous": false,
      "inputs": [
        {
          "indexed": false,
          "internalType": "address",
          "name": "pool",
          "type": "address"
        },
        {
          "indexed": false,
          "internalType": "uint256",
          "name": "amount",
          "type": "uint256"
        }
      ],
      "name": "RealisePOL",
      "type": "event"
    },
    {
      "inputs": [],
      "name": "BASE",
      "outputs": [
        {
          "internalType": "address",
          "name": "",
          "type": "address"
        }
      ],
      "stateMutability": "view",
      "type": "function"
    },
    {
      "inputs": [],
      "name": "DEPLOYER",
      "outputs": [
        {
          "internalType": "address",
          "name": "",
          "type": "address"
        }
      ],
      "stateMutability": "view",
      "type": "function"
    },
    {
      "inputs": [],
      "name": "emissions",
      "outputs": [
        {
          "internalType": "bool",
          "name": "",
          "type": "bool"
        }
      ],
      "stateMutability": "view",
      "type": "function"
    },
    {
      "inputs": [],
      "name": "flipEmissions",
      "outputs": [],
      "stateMutability": "nonpayable",
      "type": "function"
    },
    {
      "inputs": [],
      "name": "flipPol",
      "outputs": [],
      "stateMutability": "nonpayable",
      "type": "function"
    },
    {
      "inputs": [],
      "name": "freezeTime",
      "outputs": [
        {
          "internalType": "uint256",
          "name": "",
          "type": "uint256"
        }
      ],
      "stateMutability": "view",
      "type": "function"
    },
    {
      "inputs": [],
      "name": "globalFreeze",
      "outputs": [
        {
          "internalType": "bool",
          "name": "",
          "type": "bool"
        }
      ],
      "stateMutability": "view",
      "type": "function"
    },
    {
      "inputs": [
        {
          "internalType": "uint256",
          "name": "amount",
          "type": "uint256"
        },
        {
          "internalType": "address",
          "name": "to",
          "type": "address"
        }
      ],
      "name": "grantFunds",
      "outputs": [],
      "stateMutability": "nonpayable",
      "type": "function"
    },
    {
      "inputs": [
        {
          "internalType": "uint256",
          "name": "amount",
          "type": "uint256"
        },
        {
          "internalType": "address",
          "name": "to",
          "type": "address"
        }
      ],
      "name": "grantPOLFunds",
      "outputs": [],
      "stateMutability": "nonpayable",
      "type": "function"
    },
    {
      "inputs": [],
      "name": "performApprovals",
      "outputs": [],
      "stateMutability": "nonpayable",
      "type": "function"
    },
    {
      "inputs": [],
      "name": "polClaim",
      "outputs": [
        {
          "internalType": "uint256",
          "name": "",
          "type": "uint256"
        }
      ],
      "stateMutability": "view",
      "type": "function"
    },
    {
      "inputs": [],
      "name": "polEmission",
      "outputs": [
        {
          "internalType": "uint256",
          "name": "",
          "type": "uint256"
        }
      ],
      "stateMutability": "view",
      "type": "function"
    },
    {
      "inputs": [],
      "name": "polPoolAddress",
      "outputs": [
        {
          "internalType": "address",
          "name": "",
          "type": "address"
        }
      ],
      "stateMutability": "view",
      "type": "function"
    },
    {
      "inputs": [],
      "name": "polStatus",
      "outputs": [
        {
          "internalType": "bool",
          "name": "",
          "type": "bool"
        }
      ],
      "stateMutability": "view",
      "type": "function"
    },
    {
      "inputs": [],
      "name": "polTime",
      "outputs": [
        {
          "internalType": "uint256",
          "name": "",
          "type": "uint256"
        }
      ],
      "stateMutability": "view",
      "type": "function"
    },
    {
      "inputs": [],
      "name": "polTokenAddress",
      "outputs": [
        {
          "internalType": "address",
          "name": "",
          "type": "address"
        }
      ],
      "stateMutability": "view",
      "type": "function"
    },
    {
      "inputs": [],
      "name": "purgeDeployer",
      "outputs": [],
      "stateMutability": "nonpayable",
      "type": "function"
    },
    {
      "inputs": [],
      "name": "realiseClaim",
      "outputs": [
        {
          "internalType": "uint256",
          "name": "",
          "type": "uint256"
        }
      ],
      "stateMutability": "view",
      "type": "function"
    },
    {
      "inputs": [
        {
          "internalType": "address",
          "name": "token",
          "type": "address"
        }
      ],
      "name": "realisePOL",
      "outputs": [],
      "stateMutability": "nonpayable",
      "type": "function"
    },
    {
      "inputs": [
        {
          "internalType": "bool",
          "name": "freeze",
          "type": "bool"
        }
      ],
      "name": "setGlobalFreeze",
      "outputs": [],
      "stateMutability": "nonpayable",
      "type": "function"
    },
    {
      "inputs": [
        {
          "internalType": "uint256",
          "name": "newPolEmission",
          "type": "uint256"
        },
        {
          "internalType": "uint256",
          "name": "newPolClaim",
          "type": "uint256"
        },
        {
          "internalType": "uint256",
          "name": "newRealiseClaim",
          "type": "uint256"
        }
      ],
      "name": "setPOLParams",
      "outputs": [],
      "stateMutability": "nonpayable",
      "type": "function"
    },
    {
      "inputs": [
        {
          "internalType": "address",
          "name": "token",
          "type": "address"
        }
      ],
      "name": "setParams",
      "outputs": [],
      "stateMutability": "nonpayable",
      "type": "function"
    },
    {
      "stateMutability": "payable",
      "type": "receive"
    }
  ],
  "bytecode": "0x60c06040523480156200001157600080fd5b5060405162003aee38038062003aee833981810160405281019062000037919062000140565b8173ffffffffffffffffffffffffffffffffffffffff1660808173ffffffffffffffffffffffffffffffffffffffff1660601b815250508073ffffffffffffffffffffffffffffffffffffffff1660a08173ffffffffffffffffffffffffffffffffffffffff1660601b81525050336000806101000a81548173ffffffffffffffffffffffffffffffffffffffff021916908373ffffffffffffffffffffffffffffffffffffffff16021790555042600581905550610e1060048190555060056007819055506000600660006101000a81548160ff0219169083151502179055506101f46008819055505050620001cf565b6000815190506200013a81620001b5565b92915050565b600080604083850312156200015457600080fd5b6000620001648582860162000129565b9250506020620001778582860162000129565b9150509250929050565b60006200018e8262000195565b9050919050565b600073ffffffffffffffffffffffffffffffffffffffff82169050919050565b620001c08162000181565b8114620001cc57600080fd5b50565b60805160601c60a05160601c6138bb620002336000396000818161132701528181612410015261243a015260008181610d6901528181611da301528181611e7701528181611ea70152818161270201528181612ad60152612cb701526138bb6000f3fe6080604052600436106101395760003560e01c80637d458baa116100ab578063c1b8411a1161006f578063c1b8411a146103ad578063cf03113a146103d8578063ec342ad014610403578063f0f35c041461042e578063fd7e1bee14610459578063fe1fa8fa1461048457610140565b80637d458baa146102dc5780638fc50b4e14610305578063940eaf4d1461032e5780639b919c9a14610359578063a77e0f111461038257610140565b80632267716c116100fd5780632267716c146101f457806327dc39281461021f5780634e49acac14610236578063714844551461025f578063772d5788146102885780637828c717146102b357610140565b80630397fe791461014557806303a82138146101705780630909138a14610187578063150a73eb1461019e578063194e22ce146101c957610140565b3661014057005b600080fd5b34801561015157600080fd5b5061015a61049b565b6040516101679190613449565b60405180910390f35b34801561017c57600080fd5b506101856104c1565b005b34801561019357600080fd5b5061019c61087a565b005b3480156101aa57600080fd5b506101b3610c1c565b6040516101c091906134b6565b60405180910390f35b3480156101d557600080fd5b506101de610c2f565b6040516101eb91906134b6565b60405180910390f35b34801561020057600080fd5b50610209610c42565b60405161021691906134b6565b60405180910390f35b34801561022b57600080fd5b50610234610c55565b005b34801561024257600080fd5b5061025d600480360381019061025891906131db565b610fe5565b005b34801561026b57600080fd5b50610286600480360381019061028191906132d1565b61140c565b005b34801561029457600080fd5b5061029d61165a565b6040516102aa9190613531565b60405180910390f35b3480156102bf57600080fd5b506102da60048036038101906102d5919061322d565b611660565b005b3480156102e857600080fd5b5061030360048036038101906102fe91906132d1565b611a29565b005b34801561031157600080fd5b5061032c6004803603810190610327919061330d565b611edd565b005b34801561033a57600080fd5b50610343612009565b6040516103509190613531565b60405180910390f35b34801561036557600080fd5b50610380600480360381019061037b91906131db565b61200f565b005b34801561038e57600080fd5b506103976126b0565b6040516103a49190613531565b60405180910390f35b3480156103b957600080fd5b506103c26126b6565b6040516103cf9190613449565b60405180910390f35b3480156103e457600080fd5b506103ed6126da565b6040516103fa9190613449565b60405180910390f35b34801561040f57600080fd5b50610418612700565b6040516104259190613449565b60405180910390f35b34801561043a57600080fd5b50610443612724565b6040516104509190613531565b60405180910390f35b34801561046557600080fd5b5061046e61272a565b60405161047b9190613531565b60405180910390f35b34801561049057600080fd5b50610499612730565b005b600260009054906101000a900473ffffffffffffffffffffffffffffffffffffffff1681565b6104c9612ad2565b73ffffffffffffffffffffffffffffffffffffffff166398fabd3a6040518163ffffffff1660e01b815260040160206040518083038186803b15801561050e57600080fd5b505afa158015610522573d6000803e3d6000fd5b505050506040513d601f19601f820116820180604052508101906105469190613204565b73ffffffffffffffffffffffffffffffffffffffff163373ffffffffffffffffffffffffffffffffffffffff16148061062e5750610582612ad2565b73ffffffffffffffffffffffffffffffffffffffff166332fe7b266040518163ffffffff1660e01b815260040160206040518083038186803b1580156105c757600080fd5b505afa1580156105db573d6000803e3d6000fd5b505050506040513d601f19601f820116820180604052508101906105ff9190613204565b73ffffffffffffffffffffffffffffffffffffffff163373ffffffffffffffffffffffffffffffffffffffff16145b806106e8575061063c612ad2565b73ffffffffffffffffffffffffffffffffffffffff16632ab24e496040518163ffffffff1660e01b815260040160206040518083038186803b15801561068157600080fd5b505afa158015610695573d6000803e3d6000fd5b505050506040513d601f19601f820116820180604052508101906106b99190613204565b73ffffffffffffffffffffffffffffffffffffffff163373ffffffffffffffffffffffffffffffffffffffff16145b8061073e575060008054906101000a900473ffffffffffffffffffffffffffffffffffffffff1673ffffffffffffffffffffffffffffffffffffffff163373ffffffffffffffffffffffffffffffffffffffff16145b806107f8575061074c612ad2565b73ffffffffffffffffffffffffffffffffffffffff1663f301e7816040518163ffffffff1660e01b815260040160206040518083038186803b15801561079157600080fd5b505afa1580156107a5573d6000803e3d6000fd5b505050506040513d601f19601f820116820180604052508101906107c99190613204565b73ffffffffffffffffffffffffffffffffffffffff163373ffffffffffffffffffffffffffffffffffffffff16145b610837576040517f08c379a000000000000000000000000000000000000000000000000000000000815260040161082e906134d1565b60405180910390fd5b60008060006101000a81548173ffffffffffffffffffffffffffffffffffffffff021916908373ffffffffffffffffffffffffffffffffffffffff160217905550565b610882612ad2565b73ffffffffffffffffffffffffffffffffffffffff166398fabd3a6040518163ffffffff1660e01b815260040160206040518083038186803b1580156108c757600080fd5b505afa1580156108db573d6000803e3d6000fd5b505050506040513d601f19601f820116820180604052508101906108ff9190613204565b73ffffffffffffffffffffffffffffffffffffffff163373ffffffffffffffffffffffffffffffffffffffff1614806109e7575061093b612ad2565b73ffffffffffffffffffffffffffffffffffffffff166332fe7b266040518163ffffffff1660e01b815260040160206040518083038186803b15801561098057600080fd5b505afa158015610994573d6000803e3d6000fd5b505050506040513d601f19601f820116820180604052508101906109b89190613204565b73ffffffffffffffffffffffffffffffffffffffff163373ffffffffffffffffffffffffffffffffffffffff16145b80610aa157506109f5612ad2565b73ffffffffffffffffffffffffffffffffffffffff16632ab24e496040518163ffffffff1660e01b815260040160206040518083038186803b158015610a3a57600080fd5b505afa158015610a4e573d6000803e3d6000fd5b505050506040513d601f19601f82011682018060405250810190610a729190613204565b73ffffffffffffffffffffffffffffffffffffffff163373ffffffffffffffffffffffffffffffffffffffff16145b80610af7575060008054906101000a900473ffffffffffffffffffffffffffffffffffffffff1673ffffffffffffffffffffffffffffffffffffffff163373ffffffffffffffffffffffffffffffffffffffff16145b80610bb15750610b05612ad2565b73ffffffffffffffffffffffffffffffffffffffff1663f301e7816040518163ffffffff1660e01b815260040160206040518083038186803b158015610b4a57600080fd5b505afa158015610b5e573d6000803e3d6000fd5b505050506040513d601f19601f82011682018060405250810190610b829190613204565b73ffffffffffffffffffffffffffffffffffffffff163373ffffffffffffffffffffffffffffffffffffffff16145b610bf0576040517f08c379a0000000000000000000000000000000000000000000000000000000008152600401610be7906134d1565b60405180910390fd5b600660009054906101000a900460ff1615600660006101000a81548160ff021916908315150217905550565b600660009054906101000a900460ff1681565b600060159054906101000a900460ff1681565b600060149054906101000a900460ff1681565b610c5d612ad2565b73ffffffffffffffffffffffffffffffffffffffff166398fabd3a6040518163ffffffff1660e01b815260040160206040518083038186803b158015610ca257600080fd5b505afa158015610cb6573d6000803e3d6000fd5b505050506040513d601f19601f82011682018060405250810190610cda9190613204565b73ffffffffffffffffffffffffffffffffffffffff163373ffffffffffffffffffffffffffffffffffffffff161480610d5e575060008054906101000a900473ffffffffffffffffffffffffffffffffffffffff1673ffffffffffffffffffffffffffffffffffffffff163373ffffffffffffffffffffffffffffffffffffffff16145b610d6757600080fd5b7f000000000000000000000000000000000000000000000000000000000000000073ffffffffffffffffffffffffffffffffffffffff1663095ea7b3610dab612ad2565b73ffffffffffffffffffffffffffffffffffffffff166332fe7b266040518163ffffffff1660e01b815260040160206040518083038186803b158015610df057600080fd5b505afa158015610e04573d6000803e3d6000fd5b505050506040513d601f19601f82011682018060405250810190610e289190613204565b6af8277896582678ac0000006040518363ffffffff1660e01b8152600401610e51929190613464565b602060405180830381600087803b158015610e6b57600080fd5b505af1158015610e7f573d6000803e3d6000fd5b505050506040513d601f19601f82011682018060405250810190610ea39190613256565b50600360009054906101000a900473ffffffffffffffffffffffffffffffffffffffff1673ffffffffffffffffffffffffffffffffffffffff1663095ea7b3610eea612ad2565b73ffffffffffffffffffffffffffffffffffffffff166332fe7b266040518163ffffffff1660e01b815260040160206040518083038186803b158015610f2f57600080fd5b505afa158015610f43573d6000803e3d6000fd5b505050506040513d601f19601f82011682018060405250810190610f679190613204565b6af8277896582678ac0000006040518363ffffffff1660e01b8152600401610f90929190613464565b602060405180830381600087803b158015610faa57600080fd5b505af1158015610fbe573d6000803e3d6000fd5b505050506040513d601f19601f82011682018060405250810190610fe29190613256565b50565b610fed612ad2565b73ffffffffffffffffffffffffffffffffffffffff166398fabd3a6040518163ffffffff1660e01b815260040160206040518083038186803b15801561103257600080fd5b505afa158015611046573d6000803e3d6000fd5b505050506040513d601f19601f8201168201806040525081019061106a9190613204565b73ffffffffffffffffffffffffffffffffffffffff163373ffffffffffffffffffffffffffffffffffffffff1614806110ee575060008054906101000a900473ffffffffffffffffffffffffffffffffffffffff1673ffffffffffffffffffffffffffffffffffffffff163373ffffffffffffffffffffffffffffffffffffffff16145b6110f757600080fd5b6000611101612ad2565b73ffffffffffffffffffffffffffffffffffffffff1663b99b0a0c6040518163ffffffff1660e01b815260040160206040518083038186803b15801561114657600080fd5b505afa15801561115a573d6000803e3d6000fd5b505050506040513d601f19601f8201168201806040525081019061117e9190613204565b73ffffffffffffffffffffffffffffffffffffffff1663bbe4f6db836040518263ffffffff1660e01b81526004016111b69190613449565b60206040518083038186803b1580156111ce57600080fd5b505afa1580156111e2573d6000803e3d6000fd5b505050506040513d601f19601f820116820180604052508101906112069190613204565b905060011515611214612ad2565b73ffffffffffffffffffffffffffffffffffffffff1663b99b0a0c6040518163ffffffff1660e01b815260040160206040518083038186803b15801561125957600080fd5b505afa15801561126d573d6000803e3d6000fd5b505050506040513d601f19601f820116820180604052508101906112919190613204565b73ffffffffffffffffffffffffffffffffffffffff16638dcb4c93836040518263ffffffff1660e01b81526004016112c99190613449565b60206040518083038186803b1580156112e157600080fd5b505afa1580156112f5573d6000803e3d6000fd5b505050506040513d601f19601f820116820180604052508101906113199190613256565b15151461132557600080fd5b7f000000000000000000000000000000000000000000000000000000000000000073ffffffffffffffffffffffffffffffffffffffff168273ffffffffffffffffffffffffffffffffffffffff16141561137e57600080fd5b81600260006101000a81548173ffffffffffffffffffffffffffffffffffffffff021916908373ffffffffffffffffffffffffffffffffffffffff16021790555080600360006101000a81548173ffffffffffffffffffffffffffffffffffffffff021916908373ffffffffffffffffffffffffffffffffffffffff160217905550611408610c55565b5050565b611414612ad2565b73ffffffffffffffffffffffffffffffffffffffff166398fabd3a6040518163ffffffff1660e01b815260040160206040518083038186803b15801561145957600080fd5b505afa15801561146d573d6000803e3d6000fd5b505050506040513d601f19601f820116820180604052508101906114919190613204565b73ffffffffffffffffffffffffffffffffffffffff163373ffffffffffffffffffffffffffffffffffffffff161480611515575060008054906101000a900473ffffffffffffffffffffffffffffffffffffffff1673ffffffffffffffffffffffffffffffffffffffff163373ffffffffffffffffffffffffffffffffffffffff16145b61151e57600080fd5b6000600360009054906101000a900473ffffffffffffffffffffffffffffffffffffffff1673ffffffffffffffffffffffffffffffffffffffff166370a08231306040518263ffffffff1660e01b815260040161157b9190613449565b60206040518083038186803b15801561159357600080fd5b505afa1580156115a7573d6000803e3d6000fd5b505050506040513d601f19601f820116820180604052508101906115cb91906132a8565b9050600083111561165557600060149054906101000a900460ff1615611654578083111561162557611620600360009054906101000a900473ffffffffffffffffffffffffffffffffffffffff168383612b77565b611653565b611652600360009054906101000a900473ffffffffffffffffffffffffffffffffffffffff168385612b77565b5b5b5b505050565b60055481565b611668612ad2565b73ffffffffffffffffffffffffffffffffffffffff166398fabd3a6040518163ffffffff1660e01b815260040160206040518083038186803b1580156116ad57600080fd5b505afa1580156116c1573d6000803e3d6000fd5b505050506040513d601f19601f820116820180604052508101906116e59190613204565b73ffffffffffffffffffffffffffffffffffffffff163373ffffffffffffffffffffffffffffffffffffffff1614806117cd5750611721612ad2565b73ffffffffffffffffffffffffffffffffffffffff166332fe7b266040518163ffffffff1660e01b815260040160206040518083038186803b15801561176657600080fd5b505afa15801561177a573d6000803e3d6000fd5b505050506040513d601f19601f8201168201806040525081019061179e9190613204565b73ffffffffffffffffffffffffffffffffffffffff163373ffffffffffffffffffffffffffffffffffffffff16145b8061188757506117db612ad2565b73ffffffffffffffffffffffffffffffffffffffff16632ab24e496040518163ffffffff1660e01b815260040160206040518083038186803b15801561182057600080fd5b505afa158015611834573d6000803e3d6000fd5b505050506040513d601f19601f820116820180604052508101906118589190613204565b73ffffffffffffffffffffffffffffffffffffffff163373ffffffffffffffffffffffffffffffffffffffff16145b806118dd575060008054906101000a900473ffffffffffffffffffffffffffffffffffffffff1673ffffffffffffffffffffffffffffffffffffffff163373ffffffffffffffffffffffffffffffffffffffff16145b8061199757506118eb612ad2565b73ffffffffffffffffffffffffffffffffffffffff1663f301e7816040518163ffffffff1660e01b815260040160206040518083038186803b15801561193057600080fd5b505afa158015611944573d6000803e3d6000fd5b505050506040513d601f19601f820116820180604052508101906119689190613204565b73ffffffffffffffffffffffffffffffffffffffff163373ffffffffffffffffffffffffffffffffffffffff16145b6119d6576040517f08c379a00000000000000000000000000000000000000000000000000000000081526004016119cd906134d1565b60405180910390fd5b80600060156101000a81548160ff0219169083151502179055508015611a025742600181905550611a0b565b60006001819055505b8015600060146101000a81548160ff02191690831515021790555050565b611a31612ad2565b73ffffffffffffffffffffffffffffffffffffffff166398fabd3a6040518163ffffffff1660e01b815260040160206040518083038186803b158015611a7657600080fd5b505afa158015611a8a573d6000803e3d6000fd5b505050506040513d601f19601f82011682018060405250810190611aae9190613204565b73ffffffffffffffffffffffffffffffffffffffff163373ffffffffffffffffffffffffffffffffffffffff161480611b965750611aea612ad2565b73ffffffffffffffffffffffffffffffffffffffff166332fe7b266040518163ffffffff1660e01b815260040160206040518083038186803b158015611b2f57600080fd5b505afa158015611b43573d6000803e3d6000fd5b505050506040513d601f19601f82011682018060405250810190611b679190613204565b73ffffffffffffffffffffffffffffffffffffffff163373ffffffffffffffffffffffffffffffffffffffff16145b80611c505750611ba4612ad2565b73ffffffffffffffffffffffffffffffffffffffff16632ab24e496040518163ffffffff1660e01b815260040160206040518083038186803b158015611be957600080fd5b505afa158015611bfd573d6000803e3d6000fd5b505050506040513d601f19601f82011682018060405250810190611c219190613204565b73ffffffffffffffffffffffffffffffffffffffff163373ffffffffffffffffffffffffffffffffffffffff16145b80611ca6575060008054906101000a900473ffffffffffffffffffffffffffffffffffffffff1673ffffffffffffffffffffffffffffffffffffffff163373ffffffffffffffffffffffffffffffffffffffff16145b80611d605750611cb4612ad2565b73ffffffffffffffffffffffffffffffffffffffff1663f301e7816040518163ffffffff1660e01b815260040160206040518083038186803b158015611cf957600080fd5b505afa158015611d0d573d6000803e3d6000fd5b505050506040513d601f19601f82011682018060405250810190611d319190613204565b73ffffffffffffffffffffffffffffffffffffffff163373ffffffffffffffffffffffffffffffffffffffff16145b611d9f576040517f08c379a0000000000000000000000000000000000000000000000000000000008152600401611d96906134d1565b60405180910390fd5b60007f000000000000000000000000000000000000000000000000000000000000000073ffffffffffffffffffffffffffffffffffffffff166370a08231306040518263ffffffff1660e01b8152600401611dfa9190613449565b60206040518083038186803b158015611e1257600080fd5b505afa158015611e26573d6000803e3d6000fd5b505050506040513d601f19601f82011682018060405250810190611e4a91906132a8565b90506000831115611ed857600060149054906101000a900460ff1615611ed75780831115611ea257611e9d7f00000000000000000000000000000000000000000000000000000000000000008383612b77565b611ece565b611ecd7f00000000000000000000000000000000000000000000000000000000000000008385612b77565b5b611ed6612cad565b5b5b505050565b611ee5612ad2565b73ffffffffffffffffffffffffffffffffffffffff166398fabd3a6040518163ffffffff1660e01b815260040160206040518083038186803b158015611f2a57600080fd5b505afa158015611f3e573d6000803e3d6000fd5b505050506040513d601f19601f82011682018060405250810190611f629190613204565b73ffffffffffffffffffffffffffffffffffffffff163373ffffffffffffffffffffffffffffffffffffffff161480611fe6575060008054906101000a900473ffffffffffffffffffffffffffffffffffffffff1673ffffffffffffffffffffffffffffffffffffffff163373ffffffffffffffffffffffffffffffffffffffff16145b611fef57600080fd5b826004819055508160078190555080600881905550505050565b60045481565b612017612ad2565b73ffffffffffffffffffffffffffffffffffffffff166398fabd3a6040518163ffffffff1660e01b815260040160206040518083038186803b15801561205c57600080fd5b505afa158015612070573d6000803e3d6000fd5b505050506040513d601f19601f820116820180604052508101906120949190613204565b73ffffffffffffffffffffffffffffffffffffffff163373ffffffffffffffffffffffffffffffffffffffff161480612118575060008054906101000a900473ffffffffffffffffffffffffffffffffffffffff1673ffffffffffffffffffffffffffffffffffffffff163373ffffffffffffffffffffffffffffffffffffffff16145b61212157600080fd5b600061212b612ad2565b73ffffffffffffffffffffffffffffffffffffffff1663b99b0a0c6040518163ffffffff1660e01b815260040160206040518083038186803b15801561217057600080fd5b505afa158015612184573d6000803e3d6000fd5b505050506040513d601f19601f820116820180604052508101906121a89190613204565b73ffffffffffffffffffffffffffffffffffffffff1663bbe4f6db836040518263ffffffff1660e01b81526004016121e09190613449565b60206040518083038186803b1580156121f857600080fd5b505afa15801561220c573d6000803e3d6000fd5b505050506040513d601f19601f820116820180604052508101906122309190613204565b905060008173ffffffffffffffffffffffffffffffffffffffff166370a08231306040518263ffffffff1660e01b815260040161226d9190613449565b60206040518083038186803b15801561228557600080fd5b505afa158015612299573d6000803e3d6000fd5b505050506040513d601f19601f820116820180604052508101906122bd91906132a8565b90506000612710600854836122d29190613631565b6122dc9190613600565b90506122e6612ad2565b73ffffffffffffffffffffffffffffffffffffffff166332fe7b266040518163ffffffff1660e01b815260040160206040518083038186803b15801561232b57600080fd5b505afa15801561233f573d6000803e3d6000fd5b505050506040513d601f19601f820116820180604052508101906123639190613204565b73ffffffffffffffffffffffffffffffffffffffff16631e2dd515826000876040518463ffffffff1660e01b81526004016123a09392919061354c565b600060405180830381600087803b1580156123ba57600080fd5b505af11580156123ce573d6000803e3d6000fd5b5050505060008073ffffffffffffffffffffffffffffffffffffffff168573ffffffffffffffffffffffffffffffffffffffff161415612465574790506124357f000000000000000000000000000000000000000000000000000000000000000082613022565b6124607f00000000000000000000000000000000000000000000000000000000000000008583612b77565b61257f565b8473ffffffffffffffffffffffffffffffffffffffff166370a08231306040518263ffffffff1660e01b815260040161249e9190613449565b60206040518083038186803b1580156124b657600080fd5b505afa1580156124ca573d6000803e3d6000fd5b505050506040513d601f19601f820116820180604052508101906124ee91906132a8565b90508473ffffffffffffffffffffffffffffffffffffffff1663a9059cbb85836040518363ffffffff1660e01b815260040161252b92919061348d565b602060405180830381600087803b15801561254557600080fd5b505af1158015612559573d6000803e3d6000fd5b505050506040513d601f19601f8201168201806040525081019061257d9190613256565b505b612587612ad2565b73ffffffffffffffffffffffffffffffffffffffff166332fe7b266040518163ffffffff1660e01b815260040160206040518083038186803b1580156125cc57600080fd5b505afa1580156125e0573d6000803e3d6000fd5b505050506040513d601f19601f820116820180604052508101906126049190613204565b73ffffffffffffffffffffffffffffffffffffffff16630e4256b085836040518363ffffffff1660e01b815260040161263e92919061348d565b600060405180830381600087803b15801561265857600080fd5b505af115801561266c573d6000803e3d6000fd5b505050507f12cd883e1e74d7facead72cdda0135ca945ffeb1e5029dd3f31b0b8e458e66fb84826040516126a192919061348d565b60405180910390a15050505050565b60085481565b60008054906101000a900473ffffffffffffffffffffffffffffffffffffffff1681565b600360009054906101000a900473ffffffffffffffffffffffffffffffffffffffff1681565b7f000000000000000000000000000000000000000000000000000000000000000081565b60075481565b60015481565b612738612ad2565b73ffffffffffffffffffffffffffffffffffffffff166398fabd3a6040518163ffffffff1660e01b815260040160206040518083038186803b15801561277d57600080fd5b505afa158015612791573d6000803e3d6000fd5b505050506040513d601f19601f820116820180604052508101906127b59190613204565b73ffffffffffffffffffffffffffffffffffffffff163373ffffffffffffffffffffffffffffffffffffffff16148061289d57506127f1612ad2565b73ffffffffffffffffffffffffffffffffffffffff166332fe7b266040518163ffffffff1660e01b815260040160206040518083038186803b15801561283657600080fd5b505afa15801561284a573d6000803e3d6000fd5b505050506040513d601f19601f8201168201806040525081019061286e9190613204565b73ffffffffffffffffffffffffffffffffffffffff163373ffffffffffffffffffffffffffffffffffffffff16145b8061295757506128ab612ad2565b73ffffffffffffffffffffffffffffffffffffffff16632ab24e496040518163ffffffff1660e01b815260040160206040518083038186803b1580156128f057600080fd5b505afa158015612904573d6000803e3d6000fd5b505050506040513d601f19601f820116820180604052508101906129289190613204565b73ffffffffffffffffffffffffffffffffffffffff163373ffffffffffffffffffffffffffffffffffffffff16145b806129ad575060008054906101000a900473ffffffffffffffffffffffffffffffffffffffff1673ffffffffffffffffffffffffffffffffffffffff163373ffffffffffffffffffffffffffffffffffffffff16145b80612a6757506129bb612ad2565b73ffffffffffffffffffffffffffffffffffffffff1663f301e7816040518163ffffffff1660e01b815260040160206040518083038186803b158015612a0057600080fd5b505afa158015612a14573d6000803e3d6000fd5b505050506040513d601f19601f82011682018060405250810190612a389190613204565b73ffffffffffffffffffffffffffffffffffffffff163373ffffffffffffffffffffffffffffffffffffffff16145b612aa6576040517f08c379a0000000000000000000000000000000000000000000000000000000008152600401612a9d906134d1565b60405180910390fd5b600060149054906101000a900460ff1615600060146101000a81548160ff021916908315150217905550565b60007f000000000000000000000000000000000000000000000000000000000000000073ffffffffffffffffffffffffffffffffffffffff166398fabd3a6040518163ffffffff1660e01b815260040160206040518083038186803b158015612b3a57600080fd5b505afa158015612b4e573d6000803e3d6000fd5b505050506040513d601f19601f82011682018060405250810190612b72919061327f565b905090565b6000808473ffffffffffffffffffffffffffffffffffffffff1663a9059cbb8585604051602401612ba992919061348d565b6040516020818303038152906040529060e01b6020820180517bffffffffffffffffffffffffffffffffffffffffffffffffffffffff8381831617835250505050604051612bf79190613432565b6000604051808303816000865af19150503d8060008114612c34576040519150601f19603f3d011682016040523d82523d6000602084013e612c39565b606091505b5091509150818015612c675750600081511480612c66575080806020019051810190612c659190613256565b5b5b612ca6576040517f08c379a0000000000000000000000000000000000000000000000000000000008152600401612c9d906134f1565b60405180910390fd5b5050505050565b60006127106007547f000000000000000000000000000000000000000000000000000000000000000073ffffffffffffffffffffffffffffffffffffffff166370a08231306040518263ffffffff1660e01b8152600401612d0e9190613449565b60206040518083038186803b158015612d2657600080fd5b505afa158015612d3a573d6000803e3d6000fd5b505050506040513d601f19601f82011682018060405250810190612d5e91906132a8565b612d689190613631565b612d729190613600565b905060055442118015612d915750600660009054906101000a900460ff165b1561301f576000600360009054906101000a900473ffffffffffffffffffffffffffffffffffffffff1673ffffffffffffffffffffffffffffffffffffffff1663cbbcf8026040518163ffffffff1660e01b815260040160206040518083038186803b158015612e0057600080fd5b505afa158015612e14573d6000803e3d6000fd5b505050506040513d601f19601f82011682018060405250810190612e3891906132a8565b90506000600360009054906101000a900473ffffffffffffffffffffffffffffffffffffffff1673ffffffffffffffffffffffffffffffffffffffff16634864d1406040518163ffffffff1660e01b815260040160206040518083038186803b158015612ea457600080fd5b505afa158015612eb8573d6000803e3d6000fd5b505050506040513d601f19601f82011682018060405250810190612edc91906132a8565b9050818382612eeb91906135aa565b101561301c57612ef9612ad2565b73ffffffffffffffffffffffffffffffffffffffff166332fe7b266040518163ffffffff1660e01b815260040160206040518083038186803b158015612f3e57600080fd5b505afa158015612f52573d6000803e3d6000fd5b505050506040513d601f19601f82011682018060405250810190612f769190613204565b73ffffffffffffffffffffffffffffffffffffffff1663aa62519b846001600260009054906101000a900473ffffffffffffffffffffffffffffffffffffffff166040518463ffffffff1660e01b8152600401612fd59392919061354c565b600060405180830381600087803b158015612fef57600080fd5b505af1158015613003573d6000803e3d6000fd5b505050506004544261301591906135aa565b6005819055505b50505b50565b60008273ffffffffffffffffffffffffffffffffffffffff1682600067ffffffffffffffff81111561307d577f4e487b7100000000000000000000000000000000000000000000000000000000600052604160045260246000fd5b6040519080825280601f01601f1916602001820160405280156130af5781602001600182028036833780820191505090505b506040516130bd9190613432565b60006040518083038185875af1925050503d80600081146130fa576040519150601f19603f3d011682016040523d82523d6000602084013e6130ff565b606091505b5050905080613143576040517f08c379a000000000000000000000000000000000000000000000000000000000815260040161313a90613511565b60405180910390fd5b505050565b60008135905061315781613829565b92915050565b60008151905061316c81613829565b92915050565b60008135905061318181613840565b92915050565b60008151905061319681613840565b92915050565b6000815190506131ab81613857565b92915050565b6000813590506131c08161386e565b92915050565b6000815190506131d58161386e565b92915050565b6000602082840312156131ed57600080fd5b60006131fb84828501613148565b91505092915050565b60006020828403121561321657600080fd5b60006132248482850161315d565b91505092915050565b60006020828403121561323f57600080fd5b600061324d84828501613172565b91505092915050565b60006020828403121561326857600080fd5b600061327684828501613187565b91505092915050565b60006020828403121561329157600080fd5b600061329f8482850161319c565b91505092915050565b6000602082840312156132ba57600080fd5b60006132c8848285016131c6565b91505092915050565b600080604083850312156132e457600080fd5b60006132f2858286016131b1565b925050602061330385828601613148565b9150509250929050565b60008060006060848603121561332257600080fd5b6000613330868287016131b1565b9350506020613341868287016131b1565b9250506040613352868287016131b1565b9150509250925092565b6133658161368b565b82525050565b6133748161369d565b82525050565b600061338582613583565b61338f818561358e565b935061339f8185602086016136f7565b80840191505092915050565b6133b4816136e5565b82525050565b60006133c7600483613599565b91506133d282613788565b602082019050919050565b60006133ea601f83613599565b91506133f5826137b1565b602082019050919050565b600061340d602383613599565b9150613418826137da565b604082019050919050565b61342c816136db565b82525050565b600061343e828461337a565b915081905092915050565b600060208201905061345e600083018461335c565b92915050565b6000604082019050613479600083018561335c565b61348660208301846133ab565b9392505050565b60006040820190506134a2600083018561335c565b6134af6020830184613423565b9392505050565b60006020820190506134cb600083018461336b565b92915050565b600060208201905081810360008301526134ea816133ba565b9050919050565b6000602082019050818103600083015261350a816133dd565b9050919050565b6000602082019050818103600083015261352a81613400565b9050919050565b60006020820190506135466000830184613423565b92915050565b60006060820190506135616000830186613423565b61356e602083018561336b565b61357b604083018461335c565b949350505050565b600081519050919050565b600081905092915050565b600082825260208201905092915050565b60006135b5826136db565b91506135c0836136db565b9250827fffffffffffffffffffffffffffffffffffffffffffffffffffffffffffffffff038211156135f5576135f461372a565b5b828201905092915050565b600061360b826136db565b9150613616836136db565b92508261362657613625613759565b5b828204905092915050565b600061363c826136db565b9150613647836136db565b9250817fffffffffffffffffffffffffffffffffffffffffffffffffffffffffffffffff04831182151516156136805761367f61372a565b5b828202905092915050565b6000613696826136bb565b9050919050565b60008115159050919050565b60006136b48261368b565b9050919050565b600073ffffffffffffffffffffffffffffffffffffffff82169050919050565b6000819050919050565b60006136f0826136db565b9050919050565b60005b838110156137155780820151818401526020810190506136fa565b83811115613724576000848401525b50505050565b7f4e487b7100000000000000000000000000000000000000000000000000000000600052601160045260246000fd5b7f4e487b7100000000000000000000000000000000000000000000000000000000600052601260045260246000fd5b7f2144414f00000000000000000000000000000000000000000000000000000000600082015250565b7f5472616e7366657248656c7065723a205452414e534645525f4641494c454400600082015250565b7f5472616e7366657248656c7065723a20424e425f5452414e534645525f46414960008201527f4c45440000000000000000000000000000000000000000000000000000000000602082015250565b6138328161368b565b811461383d57600080fd5b50565b6138498161369d565b811461385457600080fd5b50565b613860816136a9565b811461386b57600080fd5b50565b613877816136db565b811461388257600080fd5b5056fea264697066735822122099953f763961763eab88621f8194fb826caafe2e6ba7f1ec5e9db09f7daafe5264736f6c63430008030033",
  "linkReferences": {},
  "deployedLinkReferences": {}
}