{
  "_format": "hh-sol-artifact-1",
  "contractName": "Reserve",
  "sourceName": "contracts/Reserve.sol",
  "abi": [
    {
      "inputs": [
        {
          "internalType": "address",
          "name": "_base",
          "type": "address"
        }
      ],
      "stateMutability": "nonpayable",
      "type": "constructor"
    },
    {
      "inputs": [],
      "name": "BASE",
      "outputs": [
        {
          "internalType": "address",
          "name": "",
          "type": "address"
        }
      ],
      "stateMutability": "view",
      "type": "function"
    },
    {
      "inputs": [],
      "name": "DEPLOYER",
      "outputs": [
        {
          "internalType": "address",
          "name": "",
          "type": "address"
        }
      ],
      "stateMutability": "view",
      "type": "function"
    },
    {
      "inputs": [],
      "name": "emissions",
      "outputs": [
        {
          "internalType": "bool",
          "name": "",
          "type": "bool"
        }
      ],
      "stateMutability": "view",
      "type": "function"
    },
    {
      "inputs": [],
      "name": "flipEmissions",
      "outputs": [],
      "stateMutability": "nonpayable",
      "type": "function"
    },
    {
      "inputs": [],
      "name": "globalFreeze",
      "outputs": [
        {
          "internalType": "bool",
          "name": "",
          "type": "bool"
        }
      ],
      "stateMutability": "view",
      "type": "function"
    },
    {
      "inputs": [
        {
          "internalType": "uint256",
          "name": "amount",
          "type": "uint256"
        },
        {
          "internalType": "address",
          "name": "to",
          "type": "address"
        }
      ],
      "name": "grantFunds",
      "outputs": [],
      "stateMutability": "nonpayable",
      "type": "function"
    },
    {
      "inputs": [],
      "name": "purgeDeployer",
      "outputs": [],
      "stateMutability": "nonpayable",
      "type": "function"
    },
    {
      "inputs": [
        {
          "internalType": "bool",
          "name": "freeze",
          "type": "bool"
        }
      ],
      "name": "setGlobalFreeze",
      "outputs": [],
      "stateMutability": "nonpayable",
      "type": "function"
    }
  ],
  "bytecode": "0x60806040523480156200001157600080fd5b506040516200181d3803806200181d8339818101604052810190620000379190620000d6565b806000806101000a81548173ffffffffffffffffffffffffffffffffffffffff021916908373ffffffffffffffffffffffffffffffffffffffff16021790555033600160006101000a81548173ffffffffffffffffffffffffffffffffffffffff021916908373ffffffffffffffffffffffffffffffffffffffff1602179055505062000150565b600081519050620000d08162000136565b92915050565b600060208284031215620000e957600080fd5b6000620000f984828501620000bf565b91505092915050565b60006200010f8262000116565b9050919050565b600073ffffffffffffffffffffffffffffffffffffffff82169050919050565b620001418162000102565b81146200014d57600080fd5b50565b6116bd80620001606000396000f3fe608060405234801561001057600080fd5b50600436106100885760003560e01c80637d458baa1161005b5780637d458baa146100ef578063c1b8411a1461010b578063ec342ad014610129578063fe1fa8fa1461014757610088565b806303a821381461008d578063194e22ce146100975780632267716c146100b55780637828c717146100d3575b600080fd5b610095610151565b005b61009f61050d565b6040516100ac919061155c565b60405180910390f35b6100bd610520565b6040516100ca919061155c565b60405180910390f35b6100ed60048036038101906100e891906113e8565b610533565b005b6101096004803603810190610104919061148c565b6108e3565b005b610113610e98565b6040516101209190611518565b60405180910390f35b610131610ebe565b60405161013e9190611518565b60405180910390f35b61014f610ee2565b005b610159611286565b73ffffffffffffffffffffffffffffffffffffffff166398fabd3a6040518163ffffffff1660e01b815260040160206040518083038186803b15801561019e57600080fd5b505afa1580156101b2573d6000803e3d6000fd5b505050506040513d601f19601f820116820180604052508101906101d691906113bf565b73ffffffffffffffffffffffffffffffffffffffff163373ffffffffffffffffffffffffffffffffffffffff1614806102be5750610212611286565b73ffffffffffffffffffffffffffffffffffffffff166332fe7b266040518163ffffffff1660e01b815260040160206040518083038186803b15801561025757600080fd5b505afa15801561026b573d6000803e3d6000fd5b505050506040513d601f19601f8201168201806040525081019061028f91906113bf565b73ffffffffffffffffffffffffffffffffffffffff163373ffffffffffffffffffffffffffffffffffffffff16145b8061037857506102cc611286565b73ffffffffffffffffffffffffffffffffffffffff16632ab24e496040518163ffffffff1660e01b815260040160206040518083038186803b15801561031157600080fd5b505afa158015610325573d6000803e3d6000fd5b505050506040513d601f19601f8201168201806040525081019061034991906113bf565b73ffffffffffffffffffffffffffffffffffffffff163373ffffffffffffffffffffffffffffffffffffffff16145b806103d05750600160009054906101000a900473ffffffffffffffffffffffffffffffffffffffff1673ffffffffffffffffffffffffffffffffffffffff163373ffffffffffffffffffffffffffffffffffffffff16145b8061048a57506103de611286565b73ffffffffffffffffffffffffffffffffffffffff1663f301e7816040518163ffffffff1660e01b815260040160206040518083038186803b15801561042357600080fd5b505afa158015610437573d6000803e3d6000fd5b505050506040513d601f19601f8201168201806040525081019061045b91906113bf565b73ffffffffffffffffffffffffffffffffffffffff163373ffffffffffffffffffffffffffffffffffffffff16145b6104c9576040517f08c379a00000000000000000000000000000000000000000000000000000000081526004016104c090611577565b60405180910390fd5b6000600160006101000a81548173ffffffffffffffffffffffffffffffffffffffff021916908373ffffffffffffffffffffffffffffffffffffffff160217905550565b600160159054906101000a900460ff1681565b600160149054906101000a900460ff1681565b61053b611286565b73ffffffffffffffffffffffffffffffffffffffff166398fabd3a6040518163ffffffff1660e01b815260040160206040518083038186803b15801561058057600080fd5b505afa158015610594573d6000803e3d6000fd5b505050506040513d601f19601f820116820180604052508101906105b891906113bf565b73ffffffffffffffffffffffffffffffffffffffff163373ffffffffffffffffffffffffffffffffffffffff1614806106a057506105f4611286565b73ffffffffffffffffffffffffffffffffffffffff166332fe7b266040518163ffffffff1660e01b815260040160206040518083038186803b15801561063957600080fd5b505afa15801561064d573d6000803e3d6000fd5b505050506040513d601f19601f8201168201806040525081019061067191906113bf565b73ffffffffffffffffffffffffffffffffffffffff163373ffffffffffffffffffffffffffffffffffffffff16145b8061075a57506106ae611286565b73ffffffffffffffffffffffffffffffffffffffff16632ab24e496040518163ffffffff1660e01b815260040160206040518083038186803b1580156106f357600080fd5b505afa158015610707573d6000803e3d6000fd5b505050506040513d601f19601f8201168201806040525081019061072b91906113bf565b73ffffffffffffffffffffffffffffffffffffffff163373ffffffffffffffffffffffffffffffffffffffff16145b806107b25750600160009054906101000a900473ffffffffffffffffffffffffffffffffffffffff1673ffffffffffffffffffffffffffffffffffffffff163373ffffffffffffffffffffffffffffffffffffffff16145b8061086c57506107c0611286565b73ffffffffffffffffffffffffffffffffffffffff1663f301e7816040518163ffffffff1660e01b815260040160206040518083038186803b15801561080557600080fd5b505afa158015610819573d6000803e3d6000fd5b505050506040513d601f19601f8201168201806040525081019061083d91906113bf565b73ffffffffffffffffffffffffffffffffffffffff163373ffffffffffffffffffffffffffffffffffffffff16145b6108ab576040517f08c379a00000000000000000000000000000000000000000000000000000000081526004016108a290611577565b60405180910390fd5b80600160156101000a81548160ff0219169083151502179055508015600160146101000a81548160ff02191690831515021790555050565b6108eb611286565b73ffffffffffffffffffffffffffffffffffffffff166398fabd3a6040518163ffffffff1660e01b815260040160206040518083038186803b15801561093057600080fd5b505afa158015610944573d6000803e3d6000fd5b505050506040513d601f19601f8201168201806040525081019061096891906113bf565b73ffffffffffffffffffffffffffffffffffffffff163373ffffffffffffffffffffffffffffffffffffffff161480610a5057506109a4611286565b73ffffffffffffffffffffffffffffffffffffffff166332fe7b266040518163ffffffff1660e01b815260040160206040518083038186803b1580156109e957600080fd5b505afa1580156109fd573d6000803e3d6000fd5b505050506040513d601f19601f82011682018060405250810190610a2191906113bf565b73ffffffffffffffffffffffffffffffffffffffff163373ffffffffffffffffffffffffffffffffffffffff16145b80610b0a5750610a5e611286565b73ffffffffffffffffffffffffffffffffffffffff16632ab24e496040518163ffffffff1660e01b815260040160206040518083038186803b158015610aa357600080fd5b505afa158015610ab7573d6000803e3d6000fd5b505050506040513d601f19601f82011682018060405250810190610adb91906113bf565b73ffffffffffffffffffffffffffffffffffffffff163373ffffffffffffffffffffffffffffffffffffffff16145b80610b625750600160009054906101000a900473ffffffffffffffffffffffffffffffffffffffff1673ffffffffffffffffffffffffffffffffffffffff163373ffffffffffffffffffffffffffffffffffffffff16145b80610c1c5750610b70611286565b73ffffffffffffffffffffffffffffffffffffffff1663f301e7816040518163ffffffff1660e01b815260040160206040518083038186803b158015610bb557600080fd5b505afa158015610bc9573d6000803e3d6000fd5b505050506040513d601f19601f82011682018060405250810190610bed91906113bf565b73ffffffffffffffffffffffffffffffffffffffff163373ffffffffffffffffffffffffffffffffffffffff16145b610c5b576040517f08c379a0000000000000000000000000000000000000000000000000000000008152600401610c5290611577565b60405180910390fd5b60008060009054906101000a900473ffffffffffffffffffffffffffffffffffffffff1673ffffffffffffffffffffffffffffffffffffffff166370a08231306040518263ffffffff1660e01b8152600401610cb79190611518565b60206040518083038186803b158015610ccf57600080fd5b505afa158015610ce3573d6000803e3d6000fd5b505050506040513d601f19601f82011682018060405250810190610d079190611463565b90506000831115610e9357600160149054906101000a900460ff1615610e925780831115610de25760008054906101000a900473ffffffffffffffffffffffffffffffffffffffff1673ffffffffffffffffffffffffffffffffffffffff1663a9059cbb83836040518363ffffffff1660e01b8152600401610d8a929190611533565b602060405180830381600087803b158015610da457600080fd5b505af1158015610db8573d6000803e3d6000fd5b505050506040513d601f19601f82011682018060405250810190610ddc9190611411565b50610e91565b60008054906101000a900473ffffffffffffffffffffffffffffffffffffffff1673ffffffffffffffffffffffffffffffffffffffff1663a9059cbb83856040518363ffffffff1660e01b8152600401610e3d929190611533565b602060405180830381600087803b158015610e5757600080fd5b505af1158015610e6b573d6000803e3d6000fd5b505050506040513d601f19601f82011682018060405250810190610e8f9190611411565b505b5b5b505050565b600160009054906101000a900473ffffffffffffffffffffffffffffffffffffffff1681565b60008054906101000a900473ffffffffffffffffffffffffffffffffffffffff1681565b610eea611286565b73ffffffffffffffffffffffffffffffffffffffff166398fabd3a6040518163ffffffff1660e01b815260040160206040518083038186803b158015610f2f57600080fd5b505afa158015610f43573d6000803e3d6000fd5b505050506040513d601f19601f82011682018060405250810190610f6791906113bf565b73ffffffffffffffffffffffffffffffffffffffff163373ffffffffffffffffffffffffffffffffffffffff16148061104f5750610fa3611286565b73ffffffffffffffffffffffffffffffffffffffff166332fe7b266040518163ffffffff1660e01b815260040160206040518083038186803b158015610fe857600080fd5b505afa158015610ffc573d6000803e3d6000fd5b505050506040513d601f19601f8201168201806040525081019061102091906113bf565b73ffffffffffffffffffffffffffffffffffffffff163373ffffffffffffffffffffffffffffffffffffffff16145b80611109575061105d611286565b73ffffffffffffffffffffffffffffffffffffffff16632ab24e496040518163ffffffff1660e01b815260040160206040518083038186803b1580156110a257600080fd5b505afa1580156110b6573d6000803e3d6000fd5b505050506040513d601f19601f820116820180604052508101906110da91906113bf565b73ffffffffffffffffffffffffffffffffffffffff163373ffffffffffffffffffffffffffffffffffffffff16145b806111615750600160009054906101000a900473ffffffffffffffffffffffffffffffffffffffff1673ffffffffffffffffffffffffffffffffffffffff163373ffffffffffffffffffffffffffffffffffffffff16145b8061121b575061116f611286565b73ffffffffffffffffffffffffffffffffffffffff1663f301e7816040518163ffffffff1660e01b815260040160206040518083038186803b1580156111b457600080fd5b505afa1580156111c8573d6000803e3d6000fd5b505050506040513d601f19601f820116820180604052508101906111ec91906113bf565b73ffffffffffffffffffffffffffffffffffffffff163373ffffffffffffffffffffffffffffffffffffffff16145b61125a576040517f08c379a000000000000000000000000000000000000000000000000000000000815260040161125190611577565b60405180910390fd5b600160149054906101000a900460ff1615600160146101000a81548160ff021916908315150217905550565b60008060009054906101000a900473ffffffffffffffffffffffffffffffffffffffff1673ffffffffffffffffffffffffffffffffffffffff166398fabd3a6040518163ffffffff1660e01b815260040160206040518083038186803b1580156112ef57600080fd5b505afa158015611303573d6000803e3d6000fd5b505050506040513d601f19601f82011682018060405250810190611327919061143a565b905090565b60008135905061133b8161162b565b92915050565b6000815190506113508161162b565b92915050565b60008135905061136581611642565b92915050565b60008151905061137a81611642565b92915050565b60008151905061138f81611659565b92915050565b6000813590506113a481611670565b92915050565b6000815190506113b981611670565b92915050565b6000602082840312156113d157600080fd5b60006113df84828501611341565b91505092915050565b6000602082840312156113fa57600080fd5b600061140884828501611356565b91505092915050565b60006020828403121561142357600080fd5b60006114318482850161136b565b91505092915050565b60006020828403121561144c57600080fd5b600061145a84828501611380565b91505092915050565b60006020828403121561147557600080fd5b6000611483848285016113aa565b91505092915050565b6000806040838503121561149f57600080fd5b60006114ad85828601611395565b92505060206114be8582860161132c565b9150509250929050565b6114d1816115a8565b82525050565b6114e0816115ba565b82525050565b60006114f3600483611597565b91506114fe82611602565b602082019050919050565b611512816115f8565b82525050565b600060208201905061152d60008301846114c8565b92915050565b600060408201905061154860008301856114c8565b6115556020830184611509565b9392505050565b600060208201905061157160008301846114d7565b92915050565b60006020820190508181036000830152611590816114e6565b9050919050565b600082825260208201905092915050565b60006115b3826115d8565b9050919050565b60008115159050919050565b60006115d1826115a8565b9050919050565b600073ffffffffffffffffffffffffffffffffffffffff82169050919050565b6000819050919050565b7f2144414f00000000000000000000000000000000000000000000000000000000600082015250565b611634816115a8565b811461163f57600080fd5b50565b61164b816115ba565b811461165657600080fd5b50565b611662816115c6565b811461166d57600080fd5b50565b611679816115f8565b811461168457600080fd5b5056fea26469706673582212203d6527f4b53c7ea843a4834a2aa827dc960b8371a371d1de139c2e7a1aec258064736f6c63430008030033",
  "linkReferences": {},
  "deployedLinkReferences": {}
}