{
  "_format": "hh-sol-artifact-1",
  "contractName": "Reserve",
  "sourceName": "contracts/Reserve.sol",
  "abi": [
    {
      "inputs": [
        {
          "internalType": "address",
          "name": "_base",
          "type": "address"
        }
      ],
      "stateMutability": "nonpayable",
      "type": "constructor"
    },
    {
      "inputs": [],
      "name": "BASE",
      "outputs": [
        {
          "internalType": "address",
          "name": "",
          "type": "address"
        }
      ],
      "stateMutability": "view",
      "type": "function"
    },
    {
      "inputs": [],
      "name": "DEPLOYER",
      "outputs": [
        {
          "internalType": "address",
          "name": "",
          "type": "address"
        }
      ],
      "stateMutability": "view",
      "type": "function"
    },
    {
      "inputs": [],
      "name": "emissions",
      "outputs": [
        {
          "internalType": "bool",
          "name": "",
          "type": "bool"
        }
      ],
      "stateMutability": "view",
      "type": "function"
    },
    {
      "inputs": [],
      "name": "flipEmissions",
      "outputs": [],
      "stateMutability": "nonpayable",
      "type": "function"
    },
    {
      "inputs": [],
      "name": "globalFreeze",
      "outputs": [
        {
          "internalType": "bool",
          "name": "",
          "type": "bool"
        }
      ],
      "stateMutability": "view",
      "type": "function"
    },
    {
      "inputs": [
        {
          "internalType": "uint256",
          "name": "amount",
          "type": "uint256"
        },
        {
          "internalType": "address",
          "name": "to",
          "type": "address"
        }
      ],
      "name": "grantFunds",
      "outputs": [],
      "stateMutability": "nonpayable",
      "type": "function"
    },
    {
      "inputs": [],
      "name": "purgeDeployer",
      "outputs": [],
      "stateMutability": "nonpayable",
      "type": "function"
    },
    {
      "inputs": [
        {
          "internalType": "bool",
          "name": "freeze",
          "type": "bool"
        }
      ],
      "name": "setGlobalFreeze",
      "outputs": [],
      "stateMutability": "nonpayable",
      "type": "function"
    }
  ],
  "bytecode": "0x60a06040523480156200001157600080fd5b5060405162001a0f38038062001a0f83398181016040528101906200003791906200013f565b600073ffffffffffffffffffffffffffffffffffffffff168173ffffffffffffffffffffffffffffffffffffffff161415620000aa576040517f08c379a0000000000000000000000000000000000000000000000000000000008152600401620000a19062000192565b60405180910390fd5b8073ffffffffffffffffffffffffffffffffffffffff1660808173ffffffffffffffffffffffffffffffffffffffff1660601b81525050336000806101000a81548173ffffffffffffffffffffffffffffffffffffffff021916908373ffffffffffffffffffffffffffffffffffffffff160217905550506200023c565b600081519050620001398162000222565b92915050565b6000602082840312156200015257600080fd5b6000620001628482850162000128565b91505092915050565b60006200017a600583620001b4565b91506200018782620001f9565b602082019050919050565b60006020820190508181036000830152620001ad816200016b565b9050919050565b600082825260208201905092915050565b6000620001d282620001d9565b9050919050565b600073ffffffffffffffffffffffffffffffffffffffff82169050919050565b7f215a45524f000000000000000000000000000000000000000000000000000000600082015250565b6200022d81620001c5565b81146200023957600080fd5b50565b60805160601c6117986200027760003960008181610c5801528181610d2901528181610e1a01528181610f3201526112fa01526117986000f3fe608060405234801561001057600080fd5b50600436106100885760003560e01c80637d458baa1161005b5780637d458baa146100ef578063c1b8411a1461010b578063ec342ad014610129578063fe1fa8fa1461014757610088565b806303a821381461008d578063194e22ce146100975780632267716c146100b55780637828c717146100d3575b600080fd5b610095610151565b005b61009f61050a565b6040516100ac91906115ee565b60405180910390f35b6100bd61051d565b6040516100ca91906115ee565b60405180910390f35b6100ed60048036038101906100e89190611457565b610530565b005b610109600480360381019061010491906114fb565b6108de565b005b610113610f0c565b60405161012091906115aa565b60405180910390f35b610131610f30565b60405161013e91906115aa565b60405180910390f35b61014f610f54565b005b6101596112f6565b73ffffffffffffffffffffffffffffffffffffffff166398fabd3a6040518163ffffffff1660e01b815260040160206040518083038186803b15801561019e57600080fd5b505afa1580156101b2573d6000803e3d6000fd5b505050506040513d601f19601f820116820180604052508101906101d6919061142e565b73ffffffffffffffffffffffffffffffffffffffff163373ffffffffffffffffffffffffffffffffffffffff1614806102be57506102126112f6565b73ffffffffffffffffffffffffffffffffffffffff166332fe7b266040518163ffffffff1660e01b815260040160206040518083038186803b15801561025757600080fd5b505afa15801561026b573d6000803e3d6000fd5b505050506040513d601f19601f8201168201806040525081019061028f919061142e565b73ffffffffffffffffffffffffffffffffffffffff163373ffffffffffffffffffffffffffffffffffffffff16145b8061037857506102cc6112f6565b73ffffffffffffffffffffffffffffffffffffffff16632ab24e496040518163ffffffff1660e01b815260040160206040518083038186803b15801561031157600080fd5b505afa158015610325573d6000803e3d6000fd5b505050506040513d601f19601f82011682018060405250810190610349919061142e565b73ffffffffffffffffffffffffffffffffffffffff163373ffffffffffffffffffffffffffffffffffffffff16145b806103ce575060008054906101000a900473ffffffffffffffffffffffffffffffffffffffff1673ffffffffffffffffffffffffffffffffffffffff163373ffffffffffffffffffffffffffffffffffffffff16145b8061048857506103dc6112f6565b73ffffffffffffffffffffffffffffffffffffffff1663f301e7816040518163ffffffff1660e01b815260040160206040518083038186803b15801561042157600080fd5b505afa158015610435573d6000803e3d6000fd5b505050506040513d601f19601f82011682018060405250810190610459919061142e565b73ffffffffffffffffffffffffffffffffffffffff163373ffffffffffffffffffffffffffffffffffffffff16145b6104c7576040517f08c379a00000000000000000000000000000000000000000000000000000000081526004016104be90611609565b60405180910390fd5b60008060006101000a81548173ffffffffffffffffffffffffffffffffffffffff021916908373ffffffffffffffffffffffffffffffffffffffff160217905550565b600060159054906101000a900460ff1681565b600060149054906101000a900460ff1681565b6105386112f6565b73ffffffffffffffffffffffffffffffffffffffff166398fabd3a6040518163ffffffff1660e01b815260040160206040518083038186803b15801561057d57600080fd5b505afa158015610591573d6000803e3d6000fd5b505050506040513d601f19601f820116820180604052508101906105b5919061142e565b73ffffffffffffffffffffffffffffffffffffffff163373ffffffffffffffffffffffffffffffffffffffff16148061069d57506105f16112f6565b73ffffffffffffffffffffffffffffffffffffffff166332fe7b266040518163ffffffff1660e01b815260040160206040518083038186803b15801561063657600080fd5b505afa15801561064a573d6000803e3d6000fd5b505050506040513d601f19601f8201168201806040525081019061066e919061142e565b73ffffffffffffffffffffffffffffffffffffffff163373ffffffffffffffffffffffffffffffffffffffff16145b8061075757506106ab6112f6565b73ffffffffffffffffffffffffffffffffffffffff16632ab24e496040518163ffffffff1660e01b815260040160206040518083038186803b1580156106f057600080fd5b505afa158015610704573d6000803e3d6000fd5b505050506040513d601f19601f82011682018060405250810190610728919061142e565b73ffffffffffffffffffffffffffffffffffffffff163373ffffffffffffffffffffffffffffffffffffffff16145b806107ad575060008054906101000a900473ffffffffffffffffffffffffffffffffffffffff1673ffffffffffffffffffffffffffffffffffffffff163373ffffffffffffffffffffffffffffffffffffffff16145b8061086757506107bb6112f6565b73ffffffffffffffffffffffffffffffffffffffff1663f301e7816040518163ffffffff1660e01b815260040160206040518083038186803b15801561080057600080fd5b505afa158015610814573d6000803e3d6000fd5b505050506040513d601f19601f82011682018060405250810190610838919061142e565b73ffffffffffffffffffffffffffffffffffffffff163373ffffffffffffffffffffffffffffffffffffffff16145b6108a6576040517f08c379a000000000000000000000000000000000000000000000000000000000815260040161089d90611609565b60405180910390fd5b80600060156101000a81548160ff0219169083151502179055508015600060146101000a81548160ff02191690831515021790555050565b6108e66112f6565b73ffffffffffffffffffffffffffffffffffffffff166398fabd3a6040518163ffffffff1660e01b815260040160206040518083038186803b15801561092b57600080fd5b505afa15801561093f573d6000803e3d6000fd5b505050506040513d601f19601f82011682018060405250810190610963919061142e565b73ffffffffffffffffffffffffffffffffffffffff163373ffffffffffffffffffffffffffffffffffffffff161480610a4b575061099f6112f6565b73ffffffffffffffffffffffffffffffffffffffff166332fe7b266040518163ffffffff1660e01b815260040160206040518083038186803b1580156109e457600080fd5b505afa1580156109f8573d6000803e3d6000fd5b505050506040513d601f19601f82011682018060405250810190610a1c919061142e565b73ffffffffffffffffffffffffffffffffffffffff163373ffffffffffffffffffffffffffffffffffffffff16145b80610b055750610a596112f6565b73ffffffffffffffffffffffffffffffffffffffff16632ab24e496040518163ffffffff1660e01b815260040160206040518083038186803b158015610a9e57600080fd5b505afa158015610ab2573d6000803e3d6000fd5b505050506040513d601f19601f82011682018060405250810190610ad6919061142e565b73ffffffffffffffffffffffffffffffffffffffff163373ffffffffffffffffffffffffffffffffffffffff16145b80610b5b575060008054906101000a900473ffffffffffffffffffffffffffffffffffffffff1673ffffffffffffffffffffffffffffffffffffffff163373ffffffffffffffffffffffffffffffffffffffff16145b80610c155750610b696112f6565b73ffffffffffffffffffffffffffffffffffffffff1663f301e7816040518163ffffffff1660e01b815260040160206040518083038186803b158015610bae57600080fd5b505afa158015610bc2573d6000803e3d6000fd5b505050506040513d601f19601f82011682018060405250810190610be6919061142e565b73ffffffffffffffffffffffffffffffffffffffff163373ffffffffffffffffffffffffffffffffffffffff16145b610c54576040517f08c379a0000000000000000000000000000000000000000000000000000000008152600401610c4b90611609565b60405180910390fd5b60007f000000000000000000000000000000000000000000000000000000000000000073ffffffffffffffffffffffffffffffffffffffff166370a08231306040518263ffffffff1660e01b8152600401610caf91906115aa565b60206040518083038186803b158015610cc757600080fd5b505afa158015610cdb573d6000803e3d6000fd5b505050506040513d601f19601f82011682018060405250810190610cff91906114d2565b90506000831115610f0757600060149054906101000a900460ff1615610f065780831115610e18577f000000000000000000000000000000000000000000000000000000000000000073ffffffffffffffffffffffffffffffffffffffff1663a9059cbb83836040518363ffffffff1660e01b8152600401610d829291906115c5565b602060405180830381600087803b158015610d9c57600080fd5b505af1158015610db0573d6000803e3d6000fd5b505050506040513d601f19601f82011682018060405250810190610dd49190611480565b610e13576040517f08c379a0000000000000000000000000000000000000000000000000000000008152600401610e0a90611629565b60405180910390fd5b610f05565b7f000000000000000000000000000000000000000000000000000000000000000073ffffffffffffffffffffffffffffffffffffffff1663a9059cbb83856040518363ffffffff1660e01b8152600401610e739291906115c5565b602060405180830381600087803b158015610e8d57600080fd5b505af1158015610ea1573d6000803e3d6000fd5b505050506040513d601f19601f82011682018060405250810190610ec59190611480565b610f04576040517f08c379a0000000000000000000000000000000000000000000000000000000008152600401610efb90611629565b60405180910390fd5b5b5b5b505050565b60008054906101000a900473ffffffffffffffffffffffffffffffffffffffff1681565b7f000000000000000000000000000000000000000000000000000000000000000081565b610f5c6112f6565b73ffffffffffffffffffffffffffffffffffffffff166398fabd3a6040518163ffffffff1660e01b815260040160206040518083038186803b158015610fa157600080fd5b505afa158015610fb5573d6000803e3d6000fd5b505050506040513d601f19601f82011682018060405250810190610fd9919061142e565b73ffffffffffffffffffffffffffffffffffffffff163373ffffffffffffffffffffffffffffffffffffffff1614806110c157506110156112f6565b73ffffffffffffffffffffffffffffffffffffffff166332fe7b266040518163ffffffff1660e01b815260040160206040518083038186803b15801561105a57600080fd5b505afa15801561106e573d6000803e3d6000fd5b505050506040513d601f19601f82011682018060405250810190611092919061142e565b73ffffffffffffffffffffffffffffffffffffffff163373ffffffffffffffffffffffffffffffffffffffff16145b8061117b57506110cf6112f6565b73ffffffffffffffffffffffffffffffffffffffff16632ab24e496040518163ffffffff1660e01b815260040160206040518083038186803b15801561111457600080fd5b505afa158015611128573d6000803e3d6000fd5b505050506040513d601f19601f8201168201806040525081019061114c919061142e565b73ffffffffffffffffffffffffffffffffffffffff163373ffffffffffffffffffffffffffffffffffffffff16145b806111d1575060008054906101000a900473ffffffffffffffffffffffffffffffffffffffff1673ffffffffffffffffffffffffffffffffffffffff163373ffffffffffffffffffffffffffffffffffffffff16145b8061128b57506111df6112f6565b73ffffffffffffffffffffffffffffffffffffffff1663f301e7816040518163ffffffff1660e01b815260040160206040518083038186803b15801561122457600080fd5b505afa158015611238573d6000803e3d6000fd5b505050506040513d601f19601f8201168201806040525081019061125c919061142e565b73ffffffffffffffffffffffffffffffffffffffff163373ffffffffffffffffffffffffffffffffffffffff16145b6112ca576040517f08c379a00000000000000000000000000000000000000000000000000000000081526004016112c190611609565b60405180910390fd5b600060149054906101000a900460ff1615600060146101000a81548160ff021916908315150217905550565b60007f000000000000000000000000000000000000000000000000000000000000000073ffffffffffffffffffffffffffffffffffffffff166398fabd3a6040518163ffffffff1660e01b815260040160206040518083038186803b15801561135e57600080fd5b505afa158015611372573d6000803e3d6000fd5b505050506040513d601f19601f8201168201806040525081019061139691906114a9565b905090565b6000813590506113aa81611706565b92915050565b6000815190506113bf81611706565b92915050565b6000813590506113d48161171d565b92915050565b6000815190506113e98161171d565b92915050565b6000815190506113fe81611734565b92915050565b6000813590506114138161174b565b92915050565b6000815190506114288161174b565b92915050565b60006020828403121561144057600080fd5b600061144e848285016113b0565b91505092915050565b60006020828403121561146957600080fd5b6000611477848285016113c5565b91505092915050565b60006020828403121561149257600080fd5b60006114a0848285016113da565b91505092915050565b6000602082840312156114bb57600080fd5b60006114c9848285016113ef565b91505092915050565b6000602082840312156114e457600080fd5b60006114f284828501611419565b91505092915050565b6000806040838503121561150e57600080fd5b600061151c85828601611404565b925050602061152d8582860161139b565b9150509250929050565b6115408161165a565b82525050565b61154f8161166c565b82525050565b6000611562600483611649565b915061156d826116b4565b602082019050919050565b6000611585600983611649565b9150611590826116dd565b602082019050919050565b6115a4816116aa565b82525050565b60006020820190506115bf6000830184611537565b92915050565b60006040820190506115da6000830185611537565b6115e7602083018461159b565b9392505050565b60006020820190506116036000830184611546565b92915050565b6000602082019050818103600083015261162281611555565b9050919050565b6000602082019050818103600083015261164281611578565b9050919050565b600082825260208201905092915050565b60006116658261168a565b9050919050565b60008115159050919050565b60006116838261165a565b9050919050565b600073ffffffffffffffffffffffffffffffffffffffff82169050919050565b6000819050919050565b7f2144414f00000000000000000000000000000000000000000000000000000000600082015250565b7f217472616e736665720000000000000000000000000000000000000000000000600082015250565b61170f8161165a565b811461171a57600080fd5b50565b6117268161166c565b811461173157600080fd5b50565b61173d81611678565b811461174857600080fd5b50565b611754816116aa565b811461175f57600080fd5b5056fea2646970667358221220b54a5b725d43afbb4adc3045f14ca339c73ec9725b8bbe0a09e59bd36f6d09f764736f6c63430008030033",
  "linkReferences": {},
  "deployedLinkReferences": {}
}