{
  "_format": "hh-sol-artifact-1",
  "contractName": "Reserve",
  "sourceName": "contracts/Reserve.sol",
  "abi": [
    {
      "inputs": [
        {
          "internalType": "address",
          "name": "_base",
          "type": "address"
        }
      ],
      "stateMutability": "nonpayable",
      "type": "constructor"
    },
    {
      "inputs": [],
      "name": "BASE",
      "outputs": [
        {
          "internalType": "address",
          "name": "",
          "type": "address"
        }
      ],
      "stateMutability": "view",
      "type": "function"
    },
    {
      "inputs": [],
      "name": "DEPLOYER",
      "outputs": [
        {
          "internalType": "address",
          "name": "",
          "type": "address"
        }
      ],
      "stateMutability": "view",
      "type": "function"
    },
    {
      "inputs": [],
      "name": "emissions",
      "outputs": [
        {
          "internalType": "bool",
          "name": "",
          "type": "bool"
        }
      ],
      "stateMutability": "view",
      "type": "function"
    },
    {
      "inputs": [],
      "name": "flipEmissions",
      "outputs": [],
      "stateMutability": "nonpayable",
      "type": "function"
    },
    {
      "inputs": [],
      "name": "freezeTime",
      "outputs": [
        {
          "internalType": "uint256",
          "name": "",
          "type": "uint256"
        }
      ],
      "stateMutability": "view",
      "type": "function"
    },
    {
      "inputs": [],
      "name": "globalFreeze",
      "outputs": [
        {
          "internalType": "bool",
          "name": "",
          "type": "bool"
        }
      ],
      "stateMutability": "view",
      "type": "function"
    },
    {
      "inputs": [
        {
          "internalType": "uint256",
          "name": "amount",
          "type": "uint256"
        },
        {
          "internalType": "address",
          "name": "to",
          "type": "address"
        }
      ],
      "name": "grantFunds",
      "outputs": [],
      "stateMutability": "nonpayable",
      "type": "function"
    },
    {
      "inputs": [],
      "name": "purgeDeployer",
      "outputs": [],
      "stateMutability": "nonpayable",
      "type": "function"
    },
    {
      "inputs": [
        {
          "internalType": "bool",
          "name": "freeze",
          "type": "bool"
        }
      ],
      "name": "setGlobalFreeze",
      "outputs": [],
      "stateMutability": "nonpayable",
      "type": "function"
    }
  ],
  "bytecode": "0x60a06040523480156200001157600080fd5b50604051620019c3380380620019c38339818101604052810190620000379190620000cc565b8073ffffffffffffffffffffffffffffffffffffffff1660808173ffffffffffffffffffffffffffffffffffffffff1660601b81525050336000806101000a81548173ffffffffffffffffffffffffffffffffffffffff021916908373ffffffffffffffffffffffffffffffffffffffff1602179055505062000146565b600081519050620000c6816200012c565b92915050565b600060208284031215620000df57600080fd5b6000620000ef84828501620000b5565b91505092915050565b600062000105826200010c565b9050919050565b600073ffffffffffffffffffffffffffffffffffffffff82169050919050565b6200013781620000f8565b81146200014357600080fd5b50565b60805160601c6118426200018160003960008181610c9c01528181610d7001528181610da001528181610df401526111c201526118426000f3fe608060405234801561001057600080fd5b50600436106100935760003560e01c80637d458baa116100665780637d458baa146100fa578063c1b8411a14610116578063ec342ad014610134578063fd7e1bee14610152578063fe1fa8fa1461017057610093565b806303a8213814610098578063194e22ce146100a25780632267716c146100c05780637828c717146100de575b600080fd5b6100a061017a565b005b6100aa610533565b6040516100b79190611634565b60405180910390f35b6100c8610546565b6040516100d59190611634565b60405180910390f35b6100f860048036038101906100f39190611455565b610559565b005b610114600480360381019061010f91906114f9565b610922565b005b61011e610dce565b60405161012b91906115f0565b60405180910390f35b61013c610df2565b60405161014991906115f0565b60405180910390f35b61015a610e16565b604051610167919061168f565b60405180910390f35b610178610e1c565b005b6101826111be565b73ffffffffffffffffffffffffffffffffffffffff166398fabd3a6040518163ffffffff1660e01b815260040160206040518083038186803b1580156101c757600080fd5b505afa1580156101db573d6000803e3d6000fd5b505050506040513d601f19601f820116820180604052508101906101ff919061142c565b73ffffffffffffffffffffffffffffffffffffffff163373ffffffffffffffffffffffffffffffffffffffff1614806102e7575061023b6111be565b73ffffffffffffffffffffffffffffffffffffffff166332fe7b266040518163ffffffff1660e01b815260040160206040518083038186803b15801561028057600080fd5b505afa158015610294573d6000803e3d6000fd5b505050506040513d601f19601f820116820180604052508101906102b8919061142c565b73ffffffffffffffffffffffffffffffffffffffff163373ffffffffffffffffffffffffffffffffffffffff16145b806103a157506102f56111be565b73ffffffffffffffffffffffffffffffffffffffff16632ab24e496040518163ffffffff1660e01b815260040160206040518083038186803b15801561033a57600080fd5b505afa15801561034e573d6000803e3d6000fd5b505050506040513d601f19601f82011682018060405250810190610372919061142c565b73ffffffffffffffffffffffffffffffffffffffff163373ffffffffffffffffffffffffffffffffffffffff16145b806103f7575060008054906101000a900473ffffffffffffffffffffffffffffffffffffffff1673ffffffffffffffffffffffffffffffffffffffff163373ffffffffffffffffffffffffffffffffffffffff16145b806104b157506104056111be565b73ffffffffffffffffffffffffffffffffffffffff1663f301e7816040518163ffffffff1660e01b815260040160206040518083038186803b15801561044a57600080fd5b505afa15801561045e573d6000803e3d6000fd5b505050506040513d601f19601f82011682018060405250810190610482919061142c565b73ffffffffffffffffffffffffffffffffffffffff163373ffffffffffffffffffffffffffffffffffffffff16145b6104f0576040517f08c379a00000000000000000000000000000000000000000000000000000000081526004016104e79061164f565b60405180910390fd5b60008060006101000a81548173ffffffffffffffffffffffffffffffffffffffff021916908373ffffffffffffffffffffffffffffffffffffffff160217905550565b600060159054906101000a900460ff1681565b600060149054906101000a900460ff1681565b6105616111be565b73ffffffffffffffffffffffffffffffffffffffff166398fabd3a6040518163ffffffff1660e01b815260040160206040518083038186803b1580156105a657600080fd5b505afa1580156105ba573d6000803e3d6000fd5b505050506040513d601f19601f820116820180604052508101906105de919061142c565b73ffffffffffffffffffffffffffffffffffffffff163373ffffffffffffffffffffffffffffffffffffffff1614806106c6575061061a6111be565b73ffffffffffffffffffffffffffffffffffffffff166332fe7b266040518163ffffffff1660e01b815260040160206040518083038186803b15801561065f57600080fd5b505afa158015610673573d6000803e3d6000fd5b505050506040513d601f19601f82011682018060405250810190610697919061142c565b73ffffffffffffffffffffffffffffffffffffffff163373ffffffffffffffffffffffffffffffffffffffff16145b8061078057506106d46111be565b73ffffffffffffffffffffffffffffffffffffffff16632ab24e496040518163ffffffff1660e01b815260040160206040518083038186803b15801561071957600080fd5b505afa15801561072d573d6000803e3d6000fd5b505050506040513d601f19601f82011682018060405250810190610751919061142c565b73ffffffffffffffffffffffffffffffffffffffff163373ffffffffffffffffffffffffffffffffffffffff16145b806107d6575060008054906101000a900473ffffffffffffffffffffffffffffffffffffffff1673ffffffffffffffffffffffffffffffffffffffff163373ffffffffffffffffffffffffffffffffffffffff16145b8061089057506107e46111be565b73ffffffffffffffffffffffffffffffffffffffff1663f301e7816040518163ffffffff1660e01b815260040160206040518083038186803b15801561082957600080fd5b505afa15801561083d573d6000803e3d6000fd5b505050506040513d601f19601f82011682018060405250810190610861919061142c565b73ffffffffffffffffffffffffffffffffffffffff163373ffffffffffffffffffffffffffffffffffffffff16145b6108cf576040517f08c379a00000000000000000000000000000000000000000000000000000000081526004016108c69061164f565b60405180910390fd5b80600060156101000a81548160ff02191690831515021790555080156108fb5742600181905550610904565b60006001819055505b8015600060146101000a81548160ff02191690831515021790555050565b61092a6111be565b73ffffffffffffffffffffffffffffffffffffffff166398fabd3a6040518163ffffffff1660e01b815260040160206040518083038186803b15801561096f57600080fd5b505afa158015610983573d6000803e3d6000fd5b505050506040513d601f19601f820116820180604052508101906109a7919061142c565b73ffffffffffffffffffffffffffffffffffffffff163373ffffffffffffffffffffffffffffffffffffffff161480610a8f57506109e36111be565b73ffffffffffffffffffffffffffffffffffffffff166332fe7b266040518163ffffffff1660e01b815260040160206040518083038186803b158015610a2857600080fd5b505afa158015610a3c573d6000803e3d6000fd5b505050506040513d601f19601f82011682018060405250810190610a60919061142c565b73ffffffffffffffffffffffffffffffffffffffff163373ffffffffffffffffffffffffffffffffffffffff16145b80610b495750610a9d6111be565b73ffffffffffffffffffffffffffffffffffffffff16632ab24e496040518163ffffffff1660e01b815260040160206040518083038186803b158015610ae257600080fd5b505afa158015610af6573d6000803e3d6000fd5b505050506040513d601f19601f82011682018060405250810190610b1a919061142c565b73ffffffffffffffffffffffffffffffffffffffff163373ffffffffffffffffffffffffffffffffffffffff16145b80610b9f575060008054906101000a900473ffffffffffffffffffffffffffffffffffffffff1673ffffffffffffffffffffffffffffffffffffffff163373ffffffffffffffffffffffffffffffffffffffff16145b80610c595750610bad6111be565b73ffffffffffffffffffffffffffffffffffffffff1663f301e7816040518163ffffffff1660e01b815260040160206040518083038186803b158015610bf257600080fd5b505afa158015610c06573d6000803e3d6000fd5b505050506040513d601f19601f82011682018060405250810190610c2a919061142c565b73ffffffffffffffffffffffffffffffffffffffff163373ffffffffffffffffffffffffffffffffffffffff16145b610c98576040517f08c379a0000000000000000000000000000000000000000000000000000000008152600401610c8f9061164f565b60405180910390fd5b60007f000000000000000000000000000000000000000000000000000000000000000073ffffffffffffffffffffffffffffffffffffffff166370a08231306040518263ffffffff1660e01b8152600401610cf391906115f0565b60206040518083038186803b158015610d0b57600080fd5b505afa158015610d1f573d6000803e3d6000fd5b505050506040513d601f19601f82011682018060405250810190610d4391906114d0565b90506000831115610dc957600060149054906101000a900460ff1615610dc85780831115610d9b57610d967f00000000000000000000000000000000000000000000000000000000000000008383611263565b610dc7565b610dc67f00000000000000000000000000000000000000000000000000000000000000008385611263565b5b5b5b505050565b60008054906101000a900473ffffffffffffffffffffffffffffffffffffffff1681565b7f000000000000000000000000000000000000000000000000000000000000000081565b60015481565b610e246111be565b73ffffffffffffffffffffffffffffffffffffffff166398fabd3a6040518163ffffffff1660e01b815260040160206040518083038186803b158015610e6957600080fd5b505afa158015610e7d573d6000803e3d6000fd5b505050506040513d601f19601f82011682018060405250810190610ea1919061142c565b73ffffffffffffffffffffffffffffffffffffffff163373ffffffffffffffffffffffffffffffffffffffff161480610f895750610edd6111be565b73ffffffffffffffffffffffffffffffffffffffff166332fe7b266040518163ffffffff1660e01b815260040160206040518083038186803b158015610f2257600080fd5b505afa158015610f36573d6000803e3d6000fd5b505050506040513d601f19601f82011682018060405250810190610f5a919061142c565b73ffffffffffffffffffffffffffffffffffffffff163373ffffffffffffffffffffffffffffffffffffffff16145b806110435750610f976111be565b73ffffffffffffffffffffffffffffffffffffffff16632ab24e496040518163ffffffff1660e01b815260040160206040518083038186803b158015610fdc57600080fd5b505afa158015610ff0573d6000803e3d6000fd5b505050506040513d601f19601f82011682018060405250810190611014919061142c565b73ffffffffffffffffffffffffffffffffffffffff163373ffffffffffffffffffffffffffffffffffffffff16145b80611099575060008054906101000a900473ffffffffffffffffffffffffffffffffffffffff1673ffffffffffffffffffffffffffffffffffffffff163373ffffffffffffffffffffffffffffffffffffffff16145b8061115357506110a76111be565b73ffffffffffffffffffffffffffffffffffffffff1663f301e7816040518163ffffffff1660e01b815260040160206040518083038186803b1580156110ec57600080fd5b505afa158015611100573d6000803e3d6000fd5b505050506040513d601f19601f82011682018060405250810190611124919061142c565b73ffffffffffffffffffffffffffffffffffffffff163373ffffffffffffffffffffffffffffffffffffffff16145b611192576040517f08c379a00000000000000000000000000000000000000000000000000000000081526004016111899061164f565b60405180910390fd5b600060149054906101000a900460ff1615600060146101000a81548160ff021916908315150217905550565b60007f000000000000000000000000000000000000000000000000000000000000000073ffffffffffffffffffffffffffffffffffffffff166398fabd3a6040518163ffffffff1660e01b815260040160206040518083038186803b15801561122657600080fd5b505afa15801561123a573d6000803e3d6000fd5b505050506040513d601f19601f8201168201806040525081019061125e91906114a7565b905090565b6000808473ffffffffffffffffffffffffffffffffffffffff1663a9059cbb858560405160240161129592919061160b565b6040516020818303038152906040529060e01b6020820180517bffffffffffffffffffffffffffffffffffffffffffffffffffffffff83818316178352505050506040516112e391906115d9565b6000604051808303816000865af19150503d8060008114611320576040519150601f19603f3d011682016040523d82523d6000602084013e611325565b606091505b50915091508180156113535750600081511480611352575080806020019051810190611351919061147e565b5b5b611392576040517f08c379a00000000000000000000000000000000000000000000000000000000081526004016113899061166f565b60405180910390fd5b5050505050565b6000813590506113a8816117b0565b92915050565b6000815190506113bd816117b0565b92915050565b6000813590506113d2816117c7565b92915050565b6000815190506113e7816117c7565b92915050565b6000815190506113fc816117de565b92915050565b600081359050611411816117f5565b92915050565b600081519050611426816117f5565b92915050565b60006020828403121561143e57600080fd5b600061144c848285016113ae565b91505092915050565b60006020828403121561146757600080fd5b6000611475848285016113c3565b91505092915050565b60006020828403121561149057600080fd5b600061149e848285016113d8565b91505092915050565b6000602082840312156114b957600080fd5b60006114c7848285016113ed565b91505092915050565b6000602082840312156114e257600080fd5b60006114f084828501611417565b91505092915050565b6000806040838503121561150c57600080fd5b600061151a85828601611402565b925050602061152b85828601611399565b9150509250929050565b61153e816116d1565b82525050565b61154d816116e3565b82525050565b600061155e826116aa565b61156881856116b5565b935061157881856020860161172b565b80840191505092915050565b60006115916004836116c0565b915061159c8261175e565b602082019050919050565b60006115b4601f836116c0565b91506115bf82611787565b602082019050919050565b6115d381611721565b82525050565b60006115e58284611553565b915081905092915050565b60006020820190506116056000830184611535565b92915050565b60006040820190506116206000830185611535565b61162d60208301846115ca565b9392505050565b60006020820190506116496000830184611544565b92915050565b6000602082019050818103600083015261166881611584565b9050919050565b60006020820190508181036000830152611688816115a7565b9050919050565b60006020820190506116a460008301846115ca565b92915050565b600081519050919050565b600081905092915050565b600082825260208201905092915050565b60006116dc82611701565b9050919050565b60008115159050919050565b60006116fa826116d1565b9050919050565b600073ffffffffffffffffffffffffffffffffffffffff82169050919050565b6000819050919050565b60005b8381101561174957808201518184015260208101905061172e565b83811115611758576000848401525b50505050565b7f2144414f00000000000000000000000000000000000000000000000000000000600082015250565b7f5472616e7366657248656c7065723a205452414e534645525f4641494c454400600082015250565b6117b9816116d1565b81146117c457600080fd5b50565b6117d0816116e3565b81146117db57600080fd5b50565b6117e7816116ef565b81146117f257600080fd5b50565b6117fe81611721565b811461180957600080fd5b5056fea26469706673582212203ae4bf34c28c3c71e87846b728a7f3df505d85118aa607cf0ccf8eb2ffc5f90064736f6c63430008030033",
  "linkReferences": {},
  "deployedLinkReferences": {}
}