{
  "contracts/Dao.sol": {
    "Dao": {
      "abi": [
        {
          "inputs": [
            {
              "internalType": "address",
              "name": "_base",
              "type": "address"
            }
          ],
          "stateMutability": "nonpayable",
          "type": "constructor"
        },
        {
          "anonymous": false,
          "inputs": [
            {
              "indexed": true,
              "internalType": "address",
              "name": "member",
              "type": "address"
            },
            {
              "indexed": true,
              "internalType": "uint256",
              "name": "oldProposalID",
              "type": "uint256"
            },
            {
              "indexed": false,
              "internalType": "uint256",
              "name": "oldVotes",
              "type": "uint256"
            },
            {
              "indexed": false,
              "internalType": "uint256",
              "name": "newVotes",
              "type": "uint256"
            },
            {
              "indexed": false,
              "internalType": "uint256",
              "name": "totalWeight",
              "type": "uint256"
            }
          ],
          "name": "CancelProposal",
          "type": "event"
        },
        {
          "anonymous": false,
          "inputs": [
            {
              "indexed": true,
              "internalType": "address",
              "name": "DAO",
              "type": "address"
            },
            {
              "indexed": true,
              "internalType": "address",
              "name": "asset",
              "type": "address"
            }
          ],
          "name": "DelistedAsset",
          "type": "event"
        },
        {
          "anonymous": false,
          "inputs": [
            {
              "indexed": true,
              "internalType": "address",
              "name": "owner",
              "type": "address"
            },
            {
              "indexed": false,
              "internalType": "uint256",
              "name": "depositAmount",
              "type": "uint256"
            },
            {
              "indexed": false,
              "internalType": "uint256",
              "name": "bondedLP",
              "type": "uint256"
            }
          ],
          "name": "DepositAsset",
          "type": "event"
        },
        {
          "anonymous": false,
          "inputs": [
            {
              "indexed": true,
              "internalType": "address",
              "name": "member",
              "type": "address"
            },
            {
              "indexed": true,
              "internalType": "uint256",
              "name": "proposalID",
              "type": "uint256"
            },
            {
              "indexed": false,
              "internalType": "uint256",
              "name": "votesCast",
              "type": "uint256"
            },
            {
              "indexed": false,
              "internalType": "uint256",
              "name": "totalWeight",
              "type": "uint256"
            },
            {
              "indexed": false,
              "internalType": "string",
              "name": "proposalType",
              "type": "string"
            }
          ],
          "name": "FinalisedProposal",
          "type": "event"
        },
        {
          "anonymous": false,
          "inputs": [
            {
              "indexed": true,
              "internalType": "address",
              "name": "DAO",
              "type": "address"
            },
            {
              "indexed": true,
              "internalType": "address",
              "name": "asset",
              "type": "address"
            }
          ],
          "name": "ListedAsset",
          "type": "event"
        },
        {
          "anonymous": false,
          "inputs": [
            {
              "indexed": true,
              "internalType": "address",
              "name": "member",
              "type": "address"
            },
            {
              "indexed": true,
              "internalType": "address",
              "name": "pool",
              "type": "address"
            },
            {
              "indexed": false,
              "internalType": "uint256",
              "name": "amount",
              "type": "uint256"
            }
          ],
          "name": "MemberDeposits",
          "type": "event"
        },
        {
          "anonymous": false,
          "inputs": [
            {
              "indexed": true,
              "internalType": "address",
              "name": "member",
              "type": "address"
            },
            {
              "indexed": true,
              "internalType": "address",
              "name": "pool",
              "type": "address"
            },
            {
              "indexed": false,
              "internalType": "uint256",
              "name": "balance",
              "type": "uint256"
            }
          ],
          "name": "MemberWithdraws",
          "type": "event"
        },
        {
          "anonymous": false,
          "inputs": [
            {
              "indexed": true,
              "internalType": "address",
              "name": "member",
              "type": "address"
            },
            {
              "indexed": true,
              "internalType": "uint256",
              "name": "proposalID",
              "type": "uint256"
            },
            {
              "indexed": false,
              "internalType": "string",
              "name": "proposalType",
              "type": "string"
            }
          ],
          "name": "NewProposal",
          "type": "event"
        },
        {
          "anonymous": false,
          "inputs": [
            {
              "indexed": true,
              "internalType": "address",
              "name": "member",
              "type": "address"
            },
            {
              "indexed": true,
              "internalType": "uint256",
              "name": "proposalID",
              "type": "uint256"
            },
            {
              "indexed": false,
              "internalType": "uint256",
              "name": "voteWeight",
              "type": "uint256"
            },
            {
              "indexed": false,
              "internalType": "uint256",
              "name": "totalVotes",
              "type": "uint256"
            },
            {
              "indexed": false,
              "internalType": "string",
              "name": "proposalType",
              "type": "string"
            }
          ],
          "name": "NewVote",
          "type": "event"
        },
        {
          "anonymous": false,
          "inputs": [
            {
              "indexed": true,
              "internalType": "address",
              "name": "member",
              "type": "address"
            },
            {
              "indexed": true,
              "internalType": "uint256",
              "name": "proposalID",
              "type": "uint256"
            },
            {
              "indexed": false,
              "internalType": "uint256",
              "name": "timeFinalised",
              "type": "uint256"
            },
            {
              "indexed": false,
              "internalType": "string",
              "name": "proposalType",
              "type": "string"
            }
          ],
          "name": "ProposalFinalising",
          "type": "event"
        },
        {
          "anonymous": false,
          "inputs": [
            {
              "indexed": true,
              "internalType": "address",
              "name": "member",
              "type": "address"
            },
            {
              "indexed": true,
              "internalType": "uint256",
              "name": "proposalID",
              "type": "uint256"
            },
            {
              "indexed": false,
              "internalType": "uint256",
              "name": "voteWeight",
              "type": "uint256"
            },
            {
              "indexed": false,
              "internalType": "uint256",
              "name": "totalVotes",
              "type": "uint256"
            },
            {
              "indexed": false,
              "internalType": "string",
              "name": "proposalType",
              "type": "string"
            }
          ],
          "name": "RemovedVote",
          "type": "event"
        },
        {
          "inputs": [],
          "name": "BASE",
          "outputs": [
            {
              "internalType": "address",
              "name": "",
              "type": "address"
            }
          ],
          "stateMutability": "view",
          "type": "function"
        },
        {
          "inputs": [],
          "name": "BONDVAULT",
          "outputs": [
            {
              "internalType": "contract iBONDVAULT",
              "name": "",
              "type": "address"
            }
          ],
          "stateMutability": "view",
          "type": "function"
        },
        {
          "inputs": [],
          "name": "DAO",
          "outputs": [
            {
              "internalType": "address",
              "name": "",
              "type": "address"
            }
          ],
          "stateMutability": "view",
          "type": "function"
        },
        {
          "inputs": [],
          "name": "DAOVAULT",
          "outputs": [
            {
              "internalType": "contract iDAOVAULT",
              "name": "",
              "type": "address"
            }
          ],
          "stateMutability": "view",
          "type": "function"
        },
        {
          "inputs": [],
          "name": "DEPLOYER",
          "outputs": [
            {
              "internalType": "address",
              "name": "",
              "type": "address"
            }
          ],
          "stateMutability": "view",
          "type": "function"
        },
        {
          "inputs": [],
          "name": "POOLFACTORY",
          "outputs": [
            {
              "internalType": "contract iPOOLFACTORY",
              "name": "",
              "type": "address"
            }
          ],
          "stateMutability": "view",
          "type": "function"
        },
        {
          "inputs": [],
          "name": "RESERVE",
          "outputs": [
            {
              "internalType": "contract iRESERVE",
              "name": "",
              "type": "address"
            }
          ],
          "stateMutability": "view",
          "type": "function"
        },
        {
          "inputs": [],
          "name": "ROUTER",
          "outputs": [
            {
              "internalType": "contract iROUTER",
              "name": "",
              "type": "address"
            }
          ],
          "stateMutability": "view",
          "type": "function"
        },
        {
          "inputs": [],
          "name": "SYNTHFACTORY",
          "outputs": [
            {
              "internalType": "contract iSYNTHFACTORY",
              "name": "",
              "type": "address"
            }
          ],
          "stateMutability": "view",
          "type": "function"
        },
        {
          "inputs": [],
          "name": "SYNTHVAULT",
          "outputs": [
            {
              "internalType": "contract iSYNTHVAULT",
              "name": "",
              "type": "address"
            }
          ],
          "stateMutability": "view",
          "type": "function"
        },
        {
          "inputs": [],
          "name": "UTILS",
          "outputs": [
            {
              "internalType": "contract iUTILS",
              "name": "",
              "type": "address"
            }
          ],
          "stateMutability": "view",
          "type": "function"
        },
        {
          "inputs": [],
          "name": "allListedAssets",
          "outputs": [
            {
              "internalType": "address[]",
              "name": "_allListedAssets",
              "type": "address[]"
            }
          ],
          "stateMutability": "view",
          "type": "function"
        },
        {
          "inputs": [
            {
              "internalType": "uint256",
              "name": "",
              "type": "uint256"
            }
          ],
          "name": "arrayMembers",
          "outputs": [
            {
              "internalType": "address",
              "name": "",
              "type": "address"
            }
          ],
          "stateMutability": "view",
          "type": "function"
        },
        {
          "inputs": [],
          "name": "assetListedCount",
          "outputs": [
            {
              "internalType": "uint256",
              "name": "count",
              "type": "uint256"
            }
          ],
          "stateMutability": "view",
          "type": "function"
        },
        {
          "inputs": [
            {
              "internalType": "address",
              "name": "asset",
              "type": "address"
            },
            {
              "internalType": "uint256",
              "name": "amount",
              "type": "uint256"
            }
          ],
          "name": "bond",
          "outputs": [
            {
              "internalType": "bool",
              "name": "success",
              "type": "bool"
            }
          ],
          "stateMutability": "payable",
          "type": "function"
        },
        {
          "inputs": [],
          "name": "bondingPeriodSeconds",
          "outputs": [
            {
              "internalType": "uint256",
              "name": "",
              "type": "uint256"
            }
          ],
          "stateMutability": "view",
          "type": "function"
        },
        {
          "inputs": [],
          "name": "burnBalance",
          "outputs": [
            {
              "internalType": "bool",
              "name": "",
              "type": "bool"
            }
          ],
          "stateMutability": "nonpayable",
          "type": "function"
        },
        {
          "inputs": [
            {
              "internalType": "address",
              "name": "bondedMember",
              "type": "address"
            },
            {
              "internalType": "address",
              "name": "asset",
              "type": "address"
            }
          ],
          "name": "calcClaimBondedLP",
          "outputs": [
            {
              "internalType": "uint256",
              "name": "",
              "type": "uint256"
            }
          ],
          "stateMutability": "nonpayable",
          "type": "function"
        },
        {
          "inputs": [
            {
              "internalType": "address",
              "name": "member",
              "type": "address"
            }
          ],
          "name": "calcCurrentReward",
          "outputs": [
            {
              "internalType": "uint256",
              "name": "",
              "type": "uint256"
            }
          ],
          "stateMutability": "view",
          "type": "function"
        },
        {
          "inputs": [
            {
              "internalType": "address",
              "name": "member",
              "type": "address"
            }
          ],
          "name": "calcReward",
          "outputs": [
            {
              "internalType": "uint256",
              "name": "",
              "type": "uint256"
            }
          ],
          "stateMutability": "view",
          "type": "function"
        },
        {
          "inputs": [],
          "name": "cancelProposal",
          "outputs": [],
          "stateMutability": "nonpayable",
          "type": "function"
        },
        {
          "inputs": [
            {
              "internalType": "uint256",
              "name": "bondingSeconds",
              "type": "uint256"
            }
          ],
          "name": "changeBondingPeriod",
          "outputs": [],
          "stateMutability": "nonpayable",
          "type": "function"
        },
        {
          "inputs": [
            {
              "internalType": "address",
              "name": "member",
              "type": "address"
            }
          ],
          "name": "claimAllForMember",
          "outputs": [
            {
              "internalType": "bool",
              "name": "",
              "type": "bool"
            }
          ],
          "stateMutability": "nonpayable",
          "type": "function"
        },
        {
          "inputs": [
            {
              "internalType": "address",
              "name": "asset",
              "type": "address"
            }
          ],
          "name": "claimForMember",
          "outputs": [
            {
              "internalType": "bool",
              "name": "",
              "type": "bool"
            }
          ],
          "stateMutability": "nonpayable",
          "type": "function"
        },
        {
          "inputs": [],
          "name": "coolOffPeriod",
          "outputs": [
            {
              "internalType": "uint256",
              "name": "",
              "type": "uint256"
            }
          ],
          "stateMutability": "view",
          "type": "function"
        },
        {
          "inputs": [],
          "name": "currentProposal",
          "outputs": [
            {
              "internalType": "uint256",
              "name": "",
              "type": "uint256"
            }
          ],
          "stateMutability": "view",
          "type": "function"
        },
        {
          "inputs": [],
          "name": "daoClaim",
          "outputs": [
            {
              "internalType": "uint256",
              "name": "",
              "type": "uint256"
            }
          ],
          "stateMutability": "view",
          "type": "function"
        },
        {
          "inputs": [],
          "name": "daoFee",
          "outputs": [
            {
              "internalType": "uint256",
              "name": "",
              "type": "uint256"
            }
          ],
          "stateMutability": "view",
          "type": "function"
        },
        {
          "inputs": [],
          "name": "daoHasMoved",
          "outputs": [
            {
              "internalType": "bool",
              "name": "",
              "type": "bool"
            }
          ],
          "stateMutability": "view",
          "type": "function"
        },
        {
          "inputs": [
            {
              "internalType": "address",
              "name": "asset",
              "type": "address"
            }
          ],
          "name": "delistBondAsset",
          "outputs": [],
          "stateMutability": "nonpayable",
          "type": "function"
        },
        {
          "inputs": [
            {
              "internalType": "address",
              "name": "pool",
              "type": "address"
            },
            {
              "internalType": "uint256",
              "name": "amount",
              "type": "uint256"
            }
          ],
          "name": "deposit",
          "outputs": [],
          "stateMutability": "nonpayable",
          "type": "function"
        },
        {
          "inputs": [
            {
              "internalType": "address",
              "name": "pool",
              "type": "address"
            },
            {
              "internalType": "uint256",
              "name": "amount",
              "type": "uint256"
            },
            {
              "internalType": "address",
              "name": "member",
              "type": "address"
            }
          ],
          "name": "depositLPForMember",
          "outputs": [],
          "stateMutability": "nonpayable",
          "type": "function"
        },
        {
          "inputs": [],
          "name": "erasToEarn",
          "outputs": [
            {
              "internalType": "uint256",
              "name": "",
              "type": "uint256"
            }
          ],
          "stateMutability": "view",
          "type": "function"
        },
        {
          "inputs": [],
          "name": "finaliseProposal",
          "outputs": [],
          "stateMutability": "nonpayable",
          "type": "function"
        },
        {
          "inputs": [
            {
              "internalType": "uint256",
              "name": "proposalID",
              "type": "uint256"
            }
          ],
          "name": "getProposalDetails",
          "outputs": [
            {
              "components": [
                {
                  "internalType": "uint256",
                  "name": "id",
                  "type": "uint256"
                },
                {
                  "internalType": "string",
                  "name": "proposalType",
                  "type": "string"
                },
                {
                  "internalType": "uint256",
                  "name": "votes",
                  "type": "uint256"
                },
                {
                  "internalType": "uint256",
                  "name": "coolOffTime",
                  "type": "uint256"
                },
                {
                  "internalType": "bool",
                  "name": "finalising",
                  "type": "bool"
                },
                {
                  "internalType": "bool",
                  "name": "finalised",
                  "type": "bool"
                },
                {
                  "internalType": "uint256",
                  "name": "param",
                  "type": "uint256"
                },
                {
                  "internalType": "address",
                  "name": "proposedAddress",
                  "type": "address"
                },
                {
                  "internalType": "bool",
                  "name": "open",
                  "type": "bool"
                },
                {
                  "internalType": "uint256",
                  "name": "startTime",
                  "type": "uint256"
                }
              ],
              "internalType": "struct Dao.ProposalDetails",
              "name": "proposalDetails",
              "type": "tuple"
            }
          ],
          "stateMutability": "view",
          "type": "function"
        },
        {
          "inputs": [],
          "name": "harvest",
          "outputs": [],
          "stateMutability": "nonpayable",
          "type": "function"
        },
        {
          "inputs": [
            {
              "internalType": "uint256",
              "name": "_proposalID",
              "type": "uint256"
            }
          ],
          "name": "hasMajority",
          "outputs": [
            {
              "internalType": "bool",
              "name": "",
              "type": "bool"
            }
          ],
          "stateMutability": "view",
          "type": "function"
        },
        {
          "inputs": [
            {
              "internalType": "uint256",
              "name": "_proposalID",
              "type": "uint256"
            }
          ],
          "name": "hasMinority",
          "outputs": [
            {
              "internalType": "bool",
              "name": "",
              "type": "bool"
            }
          ],
          "stateMutability": "view",
          "type": "function"
        },
        {
          "inputs": [
            {
              "internalType": "uint256",
              "name": "_proposalID",
              "type": "uint256"
            }
          ],
          "name": "hasQuorum",
          "outputs": [
            {
              "internalType": "bool",
              "name": "",
              "type": "bool"
            }
          ],
          "stateMutability": "view",
          "type": "function"
        },
        {
          "inputs": [
            {
              "internalType": "address",
              "name": "",
              "type": "address"
            }
          ],
          "name": "isListed",
          "outputs": [
            {
              "internalType": "bool",
              "name": "",
              "type": "bool"
            }
          ],
          "stateMutability": "view",
          "type": "function"
        },
        {
          "inputs": [
            {
              "internalType": "address",
              "name": "",
              "type": "address"
            }
          ],
          "name": "isMember",
          "outputs": [
            {
              "internalType": "bool",
              "name": "",
              "type": "bool"
            }
          ],
          "stateMutability": "view",
          "type": "function"
        },
        {
          "inputs": [
            {
              "internalType": "address",
              "name": "asset",
              "type": "address"
            }
          ],
          "name": "listBondAsset",
          "outputs": [],
          "stateMutability": "nonpayable",
          "type": "function"
        },
        {
          "inputs": [],
          "name": "majorityFactor",
          "outputs": [
            {
              "internalType": "uint256",
              "name": "",
              "type": "uint256"
            }
          ],
          "stateMutability": "view",
          "type": "function"
        },
        {
          "inputs": [
            {
              "internalType": "address",
              "name": "",
              "type": "address"
            }
          ],
          "name": "mapMember_lastTime",
          "outputs": [
            {
              "internalType": "uint256",
              "name": "",
              "type": "uint256"
            }
          ],
          "stateMutability": "view",
          "type": "function"
        },
        {
          "inputs": [
            {
              "internalType": "uint256",
              "name": "",
              "type": "uint256"
            },
            {
              "internalType": "address",
              "name": "",
              "type": "address"
            }
          ],
          "name": "mapPIDMember_votes",
          "outputs": [
            {
              "internalType": "uint256",
              "name": "",
              "type": "uint256"
            }
          ],
          "stateMutability": "view",
          "type": "function"
        },
        {
          "inputs": [
            {
              "internalType": "uint256",
              "name": "",
              "type": "uint256"
            }
          ],
          "name": "mapPID_address",
          "outputs": [
            {
              "internalType": "address",
              "name": "",
              "type": "address"
            }
          ],
          "stateMutability": "view",
          "type": "function"
        },
        {
          "inputs": [
            {
              "internalType": "uint256",
              "name": "",
              "type": "uint256"
            }
          ],
          "name": "mapPID_coolOffTime",
          "outputs": [
            {
              "internalType": "uint256",
              "name": "",
              "type": "uint256"
            }
          ],
          "stateMutability": "view",
          "type": "function"
        },
        {
          "inputs": [
            {
              "internalType": "uint256",
              "name": "",
              "type": "uint256"
            }
          ],
          "name": "mapPID_finalised",
          "outputs": [
            {
              "internalType": "bool",
              "name": "",
              "type": "bool"
            }
          ],
          "stateMutability": "view",
          "type": "function"
        },
        {
          "inputs": [
            {
              "internalType": "uint256",
              "name": "",
              "type": "uint256"
            }
          ],
          "name": "mapPID_finalising",
          "outputs": [
            {
              "internalType": "bool",
              "name": "",
              "type": "bool"
            }
          ],
          "stateMutability": "view",
          "type": "function"
        },
        {
          "inputs": [
            {
              "internalType": "uint256",
              "name": "",
              "type": "uint256"
            }
          ],
          "name": "mapPID_open",
          "outputs": [
            {
              "internalType": "bool",
              "name": "",
              "type": "bool"
            }
          ],
          "stateMutability": "view",
          "type": "function"
        },
        {
          "inputs": [
            {
              "internalType": "uint256",
              "name": "",
              "type": "uint256"
            }
          ],
          "name": "mapPID_param",
          "outputs": [
            {
              "internalType": "uint256",
              "name": "",
              "type": "uint256"
            }
          ],
          "stateMutability": "view",
          "type": "function"
        },
        {
          "inputs": [
            {
              "internalType": "uint256",
              "name": "",
              "type": "uint256"
            }
          ],
          "name": "mapPID_startTime",
          "outputs": [
            {
              "internalType": "uint256",
              "name": "",
              "type": "uint256"
            }
          ],
          "stateMutability": "view",
          "type": "function"
        },
        {
          "inputs": [
            {
              "internalType": "uint256",
              "name": "",
              "type": "uint256"
            }
          ],
          "name": "mapPID_type",
          "outputs": [
            {
              "internalType": "string",
              "name": "",
              "type": "string"
            }
          ],
          "stateMutability": "view",
          "type": "function"
        },
        {
          "inputs": [
            {
              "internalType": "uint256",
              "name": "",
              "type": "uint256"
            }
          ],
          "name": "mapPID_votes",
          "outputs": [
            {
              "internalType": "uint256",
              "name": "",
              "type": "uint256"
            }
          ],
          "stateMutability": "view",
          "type": "function"
        },
        {
          "inputs": [],
          "name": "memberCount",
          "outputs": [
            {
              "internalType": "uint256",
              "name": "",
              "type": "uint256"
            }
          ],
          "stateMutability": "view",
          "type": "function"
        },
        {
          "inputs": [
            {
              "internalType": "address",
              "name": "newDAO",
              "type": "address"
            }
          ],
          "name": "moveBASEBalance",
          "outputs": [],
          "stateMutability": "nonpayable",
          "type": "function"
        },
        {
          "inputs": [
            {
              "internalType": "string",
              "name": "typeStr",
              "type": "string"
            }
          ],
          "name": "newActionProposal",
          "outputs": [
            {
              "internalType": "uint256",
              "name": "",
              "type": "uint256"
            }
          ],
          "stateMutability": "nonpayable",
          "type": "function"
        },
        {
          "inputs": [
            {
              "internalType": "address",
              "name": "proposedAddress",
              "type": "address"
            },
            {
              "internalType": "string",
              "name": "typeStr",
              "type": "string"
            }
          ],
          "name": "newAddressProposal",
          "outputs": [
            {
              "internalType": "uint256",
              "name": "",
              "type": "uint256"
            }
          ],
          "stateMutability": "nonpayable",
          "type": "function"
        },
        {
          "inputs": [
            {
              "internalType": "address",
              "name": "recipient",
              "type": "address"
            },
            {
              "internalType": "uint256",
              "name": "amount",
              "type": "uint256"
            }
          ],
          "name": "newGrantProposal",
          "outputs": [
            {
              "internalType": "uint256",
              "name": "",
              "type": "uint256"
            }
          ],
          "stateMutability": "nonpayable",
          "type": "function"
        },
        {
          "inputs": [
            {
              "internalType": "uint32",
              "name": "param",
              "type": "uint32"
            },
            {
              "internalType": "string",
              "name": "typeStr",
              "type": "string"
            }
          ],
          "name": "newParamProposal",
          "outputs": [
            {
              "internalType": "uint256",
              "name": "",
              "type": "uint256"
            }
          ],
          "stateMutability": "nonpayable",
          "type": "function"
        },
        {
          "inputs": [],
          "name": "proposalCount",
          "outputs": [
            {
              "internalType": "uint256",
              "name": "",
              "type": "uint256"
            }
          ],
          "stateMutability": "view",
          "type": "function"
        },
        {
          "inputs": [],
          "name": "purgeDeployer",
          "outputs": [],
          "stateMutability": "nonpayable",
          "type": "function"
        },
        {
          "inputs": [],
          "name": "removeVote",
          "outputs": [
            {
              "internalType": "uint256",
              "name": "voteWeightRemoved",
              "type": "uint256"
            }
          ],
          "stateMutability": "nonpayable",
          "type": "function"
        },
        {
          "inputs": [],
          "name": "secondsPerEra",
          "outputs": [
            {
              "internalType": "uint256",
              "name": "",
              "type": "uint256"
            }
          ],
          "stateMutability": "view",
          "type": "function"
        },
        {
          "inputs": [
            {
              "internalType": "address",
              "name": "_poolFactory",
              "type": "address"
            },
            {
              "internalType": "address",
              "name": "_synthFactory",
              "type": "address"
            }
          ],
          "name": "setFactoryAddresses",
          "outputs": [],
          "stateMutability": "nonpayable",
          "type": "function"
        },
        {
          "inputs": [
            {
              "internalType": "address",
              "name": "_router",
              "type": "address"
            },
            {
              "internalType": "address",
              "name": "_utils",
              "type": "address"
            },
            {
              "internalType": "address",
              "name": "_reserve",
              "type": "address"
            }
          ],
          "name": "setGenesisAddresses",
          "outputs": [],
          "stateMutability": "nonpayable",
          "type": "function"
        },
        {
          "inputs": [
            {
              "internalType": "uint32",
              "name": "_coolOff",
              "type": "uint32"
            },
            {
              "internalType": "uint32",
              "name": "_daysToEarn",
              "type": "uint32"
            },
            {
              "internalType": "uint32",
              "name": "_majorityFactor",
              "type": "uint32"
            },
            {
              "internalType": "uint32",
              "name": "_daoClaim",
              "type": "uint32"
            },
            {
              "internalType": "uint32",
              "name": "_daoFee",
              "type": "uint32"
            }
          ],
          "name": "setGenesisFactors",
          "outputs": [],
          "stateMutability": "nonpayable",
          "type": "function"
        },
        {
          "inputs": [
            {
              "internalType": "address",
              "name": "_daovault",
              "type": "address"
            },
            {
              "internalType": "address",
              "name": "_bondvault",
              "type": "address"
            },
            {
              "internalType": "address",
              "name": "_synthVault",
              "type": "address"
            }
          ],
          "name": "setVaultAddresses",
          "outputs": [],
          "stateMutability": "nonpayable",
          "type": "function"
        },
        {
          "inputs": [],
          "name": "voteProposal",
          "outputs": [
            {
              "internalType": "uint256",
              "name": "voteWeight",
              "type": "uint256"
            }
          ],
          "stateMutability": "nonpayable",
          "type": "function"
        },
        {
          "inputs": [
            {
              "internalType": "address",
              "name": "pool",
              "type": "address"
            }
          ],
          "name": "withdraw",
          "outputs": [],
          "stateMutability": "nonpayable",
          "type": "function"
        }
      ],
      "evm": {
        "bytecode": {
          "linkReferences": {},
          "object": "608060405262ed4e006015553480156200001857600080fd5b506040516200909a3803806200909a83398181016040528101906200003e919062000211565b80600160006101000a81548173ffffffffffffffffffffffffffffffffffffffff021916908373ffffffffffffffffffffffffffffffffffffffff160217905550336000806101000a81548173ffffffffffffffffffffffffffffffffffffffff021916908373ffffffffffffffffffffffffffffffffffffffff16021790555030600a60016101000a81548173ffffffffffffffffffffffffffffffffffffffff021916908373ffffffffffffffffffffffffffffffffffffffff1602179055506001600381905550601e600681905550611a0a6005819055506103e860078190555060646008819055506000600481905550600160009054906101000a900473ffffffffffffffffffffffffffffffffffffffff1673ffffffffffffffffffffffffffffffffffffffff16636b92a3b66040518163ffffffff1660e01b815260040160206040518083038186803b1580156200019b57600080fd5b505afa158015620001b0573d6000803e3d6000fd5b505050506040513d601f19601f82011682018060405250810190620001d691906200023d565b60028190555050620002db565b600081519050620001f481620002a7565b92915050565b6000815190506200020b81620002c1565b92915050565b6000602082840312156200022457600080fd5b60006200023484828501620001e3565b91505092915050565b6000602082840312156200025057600080fd5b60006200026084828501620001fa565b91505092915050565b600062000276826200027d565b9050919050565b600073ffffffffffffffffffffffffffffffffffffffff82169050919050565b6000819050919050565b620002b28162000269565b8114620002be57600080fd5b50565b620002cc816200029d565b8114620002d857600080fd5b50565b618daf80620002eb6000396000f3fe6080604052600436106104055760003560e01c80638351739a11610213578063b93ec54b11610123578063da35c664116100ab578063ec342ad01161007a578063ec342ad014611044578063f135dcf81461106f578063f38a2fa1146110ac578063f794062e146110e9578063f7a79a371461112657610405565b8063da35c66414610f76578063dab249b314610fa1578063db634d7c14610fde578063e248260c1461100757610405565b8063c05fc178116100f2578063c05fc17814610e57578063c1b8411a14610e94578063c42b3f7d14610ebf578063d0ad170914610efc578063d145836314610f3957610405565b8063b93ec54b14610d99578063b99b0a0c14610dc4578063bbf8cf8214610def578063bc68fad914610e2c57610405565b8063a230c524116101a6578063ab2bd8fd11610175578063ab2bd8fd14610cb4578063abb6154f14610ccb578063ae887c8b14610cf6578063af04598014610d33578063b826286914610d5c57610405565b8063a230c52414610bcd578063a299ecb214610c0a578063a515366a14610c47578063a6c83fed14610c7757610405565b8063956615be116101e2578063956615be14610b2357806398fabd3a14610b4e5780639cd99aa214610b795780639d2cc43614610ba257610405565b80638351739a14610a7b5780638601b9e614610aa65780638bebea8914610acf5780639070577f14610b0c57610405565b8063436f80be116103195780635c120b37116102a15780636b92a3b6116102705780636b92a3b61461099457806373758988146109bf57806379b2dc4c146109e85780637a8c72b514610a135780637b0e5c4514610a5057610405565b80635c120b37146108c65780635c7366d31461090357806365c71bbf1461094057806368bb97b31461096b57610405565b806347e7ef24116102e857806347e7ef24146107e357806349aa4ee21461080c5780634b4000341461083757806351cff8d914610874578063572cf9271461089d57610405565b8063436f80be1461072957806346350821146107665780634636279f1461078f5780634641257d146107cc57610405565b80632bee11941161039c57806332fe7b261161036b57806332fe7b261461062e57806335cb5fe01461065957806338da7dd6146106845780633a61738d146106af5780633b4d01a7146106ec57610405565b80632bee11941461055e5780632c07eebf1461059b5780632f7fa180146105c6578063314604fe146105f157610405565b8063293cee7d116103d8578063293cee7d146104a05780632957b839146104dd5780632ab24e49146105085780632b49d4251461053357610405565b806303a821381461040a57806311aee3801461042157806324efb5281461044c57806325a7f90814610477575b600080fd5b34801561041657600080fd5b5061041f611151565b005b34801561042d57600080fd5b506104366111ec565b6040516104439190618305565b60405180910390f35b34801561045857600080fd5b506104616111f9565b60405161046e919061800e565b60405180910390f35b34801561048357600080fd5b5061049e600480360381019061049991906176c8565b61120c565b005b3480156104ac57600080fd5b506104c760048036038101906104c29190617638565b6117f4565b6040516104d49190618305565b60405180910390f35b3480156104e957600080fd5b506104f26118e1565b6040516104ff9190618305565b60405180910390f35b34801561051457600080fd5b5061051d6118e7565b60405161052a91906180cb565b60405180910390f35b34801561053f57600080fd5b506105486119ce565b6040516105559190618305565b60405180910390f35b34801561056a57600080fd5b50610585600480360381019061058091906178f2565b6119d4565b604051610592919061800e565b60405180910390f35b3480156105a757600080fd5b506105b06119f4565b6040516105bd9190618305565b60405180910390f35b3480156105d257600080fd5b506105db6119fa565b6040516105e89190618029565b60405180910390f35b3480156105fd57600080fd5b50610618600480360381019061061391906178f2565b611ae1565b6040516106259190618305565b60405180910390f35b34801561063a57600080fd5b50610643611af9565b6040516106509190618095565b60405180910390f35b34801561066557600080fd5b5061066e611be0565b60405161067b9190617fec565b60405180910390f35b34801561069057600080fd5b50610699611c6e565b6040516106a69190618044565b60405180910390f35b3480156106bb57600080fd5b506106d660048036038101906106d19190617584565b611d55565b6040516106e39190618305565b60405180910390f35b3480156106f857600080fd5b50610713600480360381019061070e91906178f2565b6121bf565b60405161072091906182e3565b60405180910390f35b34801561073557600080fd5b50610750600480360381019061074b91906178f2565b6123eb565b60405161075d9190617f11565b60405180910390f35b34801561077257600080fd5b5061078d600480360381019061078891906175ad565b61242a565b005b34801561079b57600080fd5b506107b660048036038101906107b19190617584565b612508565b6040516107c39190618305565b60405180910390f35b3480156107d857600080fd5b506107e161261a565b005b3480156107ef57600080fd5b5061080a6004803603810190610805919061768c565b6128dc565b005b34801561081857600080fd5b506108216128eb565b60405161082e9190618305565b60405180910390f35b34801561084357600080fd5b5061085e600480360381019061085991906178f2565b612afe565b60405161086b919061800e565b60405180910390f35b34801561088057600080fd5b5061089b60048036038101906108969190617584565b612b1e565b005b3480156108a957600080fd5b506108c460048036038101906108bf91906179d4565b612c18565b005b3480156108d257600080fd5b506108ed60048036038101906108e891906178f2565b612cb8565b6040516108fa919061800e565b60405180910390f35b34801561090f57600080fd5b5061092a60048036038101906109259190617584565b612e5f565b6040516109379190618305565b60405180910390f35b34801561094c57600080fd5b50610955612e77565b6040516109629190618305565b60405180910390f35b34801561097757600080fd5b50610992600480360381019061098d9190617584565b612e7d565b005b3480156109a057600080fd5b506109a9613038565b6040516109b69190618305565b60405180910390f35b3480156109cb57600080fd5b506109e660048036038101906109e191906175e9565b61303e565b005b3480156109f457600080fd5b506109fd61315e565b604051610a0a9190618305565b60405180910390f35b348015610a1f57600080fd5b50610a3a6004803603810190610a359190617584565b613164565b604051610a47919061800e565b60405180910390f35b348015610a5c57600080fd5b50610a65613342565b604051610a7291906180e6565b60405180910390f35b348015610a8757600080fd5b50610a90613429565b604051610a9d9190618305565b60405180910390f35b348015610ab257600080fd5b50610acd6004803603810190610ac891906175e9565b613846565b005b348015610adb57600080fd5b50610af66004803603810190610af191906178f2565b613966565b604051610b03919061800e565b60405180910390f35b348015610b1857600080fd5b50610b21613985565b005b348015610b2f57600080fd5b50610b38613b52565b604051610b459190618305565b60405180910390f35b348015610b5a57600080fd5b50610b63613b58565b604051610b709190617f11565b60405180910390f35b348015610b8557600080fd5b50610ba06004803603810190610b9b9190617584565b613b7e565b005b348015610bae57600080fd5b50610bb7613d40565b604051610bc4919061807a565b60405180910390f35b348015610bd957600080fd5b50610bf46004803603810190610bef9190617584565b613e27565b604051610c01919061800e565b60405180910390f35b348015610c1657600080fd5b50610c316004803603810190610c2c91906178f2565b613e47565b604051610c3e9190618305565b60405180910390f35b610c616004803603810190610c5c919061768c565b613e5f565b604051610c6e919061800e565b60405180910390f35b348015610c8357600080fd5b50610c9e6004803603810190610c99919061768c565b6142f2565b604051610cab9190618305565b60405180910390f35b348015610cc057600080fd5b50610cc9614434565b005b348015610cd757600080fd5b50610ce0614a35565b604051610ced9190618305565b60405180910390f35b348015610d0257600080fd5b50610d1d6004803603810190610d1891906178f2565b614a3b565b604051610d2a9190617f11565b60405180910390f35b348015610d3f57600080fd5b50610d5a6004803603810190610d5591906178f2565b614a6e565b005b348015610d6857600080fd5b50610d836004803603810190610d7e91906178f2565b614ad0565b604051610d909190618305565b60405180910390f35b348015610da557600080fd5b50610dae614ae8565b604051610dbb91906180b0565b60405180910390f35b348015610dd057600080fd5b50610dd9614bcf565b604051610de6919061805f565b60405180910390f35b348015610dfb57600080fd5b50610e166004803603810190610e1191906178f2565b614cb6565b604051610e23919061800e565b60405180910390f35b348015610e3857600080fd5b50610e41614e4f565b604051610e4e919061800e565b60405180910390f35b348015610e6357600080fd5b50610e7e6004803603810190610e7991906178f2565b614fee565b604051610e8b9190618101565b60405180910390f35b348015610ea057600080fd5b50610ea961508e565b604051610eb69190617f11565b60405180910390f35b348015610ecb57600080fd5b50610ee66004803603810190610ee19190617944565b6150b2565b604051610ef39190618305565b60405180910390f35b348015610f0857600080fd5b50610f236004803603810190610f1e91906178f2565b6150d7565b604051610f30919061800e565b60405180910390f35b348015610f4557600080fd5b50610f606004803603810190610f5b91906178b1565b615270565b604051610f6d9190618305565b60405180910390f35b348015610f8257600080fd5b50610f8b615308565b604051610f989190618305565b60405180910390f35b348015610fad57600080fd5b50610fc86004803603810190610fc391906178f2565b61530e565b604051610fd59190618305565b60405180910390f35b348015610fea57600080fd5b5061100560048036038101906110009190617584565b615326565b005b34801561101357600080fd5b5061102e60048036038101906110299190617584565b615433565b60405161103b919061800e565b60405180910390f35b34801561105057600080fd5b506110596154e5565b6040516110669190617f11565b60405180910390f35b34801561107b57600080fd5b50611096600480360381019061109191906175ad565b61550b565b6040516110a39190618305565b60405180910390f35b3480156110b857600080fd5b506110d360048036038101906110ce9190617980565b6155c9565b6040516110e09190618305565b60405180910390f35b3480156110f557600080fd5b50611110600480360381019061110b9190617584565b615682565b60405161111d919061800e565b60405180910390f35b34801561113257600080fd5b5061113b6156a2565b6040516111489190618305565b60405180910390f35b60008054906101000a900473ffffffffffffffffffffffffffffffffffffffff1673ffffffffffffffffffffffffffffffffffffffff163373ffffffffffffffffffffffffffffffffffffffff16146111a957600080fd5b60008060006101000a81548173ffffffffffffffffffffffffffffffffffffffff021916908373ffffffffffffffffffffffffffffffffffffffff160217905550565b6000601380549050905090565b600a60009054906101000a900460ff1681565b60011515600f60009054906101000a900473ffffffffffffffffffffffffffffffffffffffff1673ffffffffffffffffffffffffffffffffffffffff16638dcb4c93856040518263ffffffff1660e01b815260040161126b9190617f11565b60206040518083038186803b15801561128357600080fd5b505afa158015611297573d6000803e3d6000fd5b505050506040513d601f19601f820116820180604052508101906112bb9190617717565b1515146112fd576040517f08c379a00000000000000000000000000000000000000000000000000000000081526004016112f490618203565b60405180910390fd5b60008211611340576040517f08c379a000000000000000000000000000000000000000000000000000000000815260040161133790618263565b60405180910390fd5b60011515601660008373ffffffffffffffffffffffffffffffffffffffff1673ffffffffffffffffffffffffffffffffffffffff16815260200190815260200160002060009054906101000a900460ff16151514611454576013819080600181540180825580915050600190039060005260206000200160009091909190916101000a81548173ffffffffffffffffffffffffffffffffffffffff021916908373ffffffffffffffffffffffffffffffffffffffff1602179055506001601660008373ffffffffffffffffffffffffffffffffffffffff1673ffffffffffffffffffffffffffffffffffffffff16815260200190815260200160002060006101000a81548160ff0219169083151502179055505b6000600d60009054906101000a900473ffffffffffffffffffffffffffffffffffffffff1673ffffffffffffffffffffffffffffffffffffffff16635364df49836040518263ffffffff1660e01b81526004016114b19190617f11565b60206040518083038186803b1580156114c957600080fd5b505afa1580156114dd573d6000803e3d6000fd5b505050506040513d601f19601f82011682018060405250810190611501919061791b565b600e60009054906101000a900473ffffffffffffffffffffffffffffffffffffffff1673ffffffffffffffffffffffffffffffffffffffff16635364df49846040518263ffffffff1660e01b815260040161155c9190617f11565b60206040518083038186803b15801561157457600080fd5b505afa158015611588573d6000803e3d6000fd5b505050506040513d601f19601f820116820180604052508101906115ac919061791b565b6115b6919061852e565b11156115c5576115c461261a565b5b8273ffffffffffffffffffffffffffffffffffffffff166323b872dd33600e60009054906101000a900473ffffffffffffffffffffffffffffffffffffffff16856040518463ffffffff1660e01b815260040161162493929190617f55565b602060405180830381600087803b15801561163e57600080fd5b505af1158015611652573d6000803e3d6000fd5b505050506040513d601f19601f820116820180604052508101906116769190617717565b6116b5576040517f08c379a00000000000000000000000000000000000000000000000000000000081526004016116ac906181e3565b60405180910390fd5b600e60009054906101000a900473ffffffffffffffffffffffffffffffffffffffff1673ffffffffffffffffffffffffffffffffffffffff166346dafa2f8484846040518463ffffffff1660e01b815260040161171493929190617fb5565b600060405180830381600087803b15801561172e57600080fd5b505af1158015611742573d6000803e3d6000fd5b5050505042601860008373ffffffffffffffffffffffffffffffffffffffff1673ffffffffffffffffffffffffffffffffffffffff168152602001908152602001600020819055508273ffffffffffffffffffffffffffffffffffffffff168173ffffffffffffffffffffffffffffffffffffffff167f5f9b5a75581a29d72b32414a5df7f1ef124b7787b38616fb8fdcad76179127c2846040516117e79190618305565b60405180910390a3505050565b60006117fe6156af565b611806615785565b5082601a6000600954815260200190815260200160002060006101000a81548173ffffffffffffffffffffffffffffffffffffffff021916908373ffffffffffffffffffffffffffffffffffffffff16021790555081601b6000600954815260200190815260200160002090805190602001906118849291906172e4565b506009543373ffffffffffffffffffffffffffffffffffffffff167f8d500fcad86fc64a281b94ef64d6d66acbfc6862aa4ff2ee5fbbfb40736e803e846040516118ce9190618101565b60405180910390a3600954905092915050565b60085481565b6000600a60009054906101000a900460ff16156119a557600a60019054906101000a900473ffffffffffffffffffffffffffffffffffffffff1673ffffffffffffffffffffffffffffffffffffffff16632ab24e496040518163ffffffff1660e01b815260040160206040518083038186803b15801561196657600080fd5b505afa15801561197a573d6000803e3d6000fd5b505050506040513d601f19601f8201168201806040525081019061199e919061785f565b90506119cb565b601260009054906101000a900473ffffffffffffffffffffffffffffffffffffffff1690505b90565b60095481565b601f6020528060005260406000206000915054906101000a900460ff1681565b60065481565b6000600a60009054906101000a900460ff1615611ab857600a60019054906101000a900473ffffffffffffffffffffffffffffffffffffffff1673ffffffffffffffffffffffffffffffffffffffff16632f7fa1806040518163ffffffff1660e01b815260040160206040518083038186803b158015611a7957600080fd5b505afa158015611a8d573d6000803e3d6000fd5b505050506040513d601f19601f82011682018060405250810190611ab19190617769565b9050611ade565b600d60009054906101000a900473ffffffffffffffffffffffffffffffffffffffff1690505b90565b60196020528060005260406000206000915090505481565b6000600a60009054906101000a900460ff1615611bb757600a60019054906101000a900473ffffffffffffffffffffffffffffffffffffffff1673ffffffffffffffffffffffffffffffffffffffff166332fe7b266040518163ffffffff1660e01b815260040160206040518083038186803b158015611b7857600080fd5b505afa158015611b8c573d6000803e3d6000fd5b505050506040513d601f19601f82011682018060405250810190611bb0919061780d565b9050611bdd565b600b60009054906101000a900473ffffffffffffffffffffffffffffffffffffffff1690505b90565b60606014805480602002602001604051908101604052809291908181526020018280548015611c6457602002820191906000526020600020905b8160009054906101000a900473ffffffffffffffffffffffffffffffffffffffff1673ffffffffffffffffffffffffffffffffffffffff1681526020019060010190808311611c1a575b5050505050905090565b6000600a60009054906101000a900460ff1615611d2c57600a60019054906101000a900473ffffffffffffffffffffffffffffffffffffffff1673ffffffffffffffffffffffffffffffffffffffff166338da7dd66040518163ffffffff1660e01b815260040160206040518083038186803b158015611ced57600080fd5b505afa158015611d01573d6000803e3d6000fd5b505050506040513d601f19601f82011682018060405250810190611d259190617792565b9050611d52565b600e60009054906101000a900473ffffffffffffffffffffffffffffffffffffffff1690505b90565b600080600d60009054906101000a900473ffffffffffffffffffffffffffffffffffffffff1673ffffffffffffffffffffffffffffffffffffffff16635364df49846040518263ffffffff1660e01b8152600401611db39190617f11565b60206040518083038186803b158015611dcb57600080fd5b505afa158015611ddf573d6000803e3d6000fd5b505050506040513d601f19601f82011682018060405250810190611e03919061791b565b600e60009054906101000a900473ffffffffffffffffffffffffffffffffffffffff1673ffffffffffffffffffffffffffffffffffffffff16635364df49856040518263ffffffff1660e01b8152600401611e5e9190617f11565b60206040518083038186803b158015611e7657600080fd5b505afa158015611e8a573d6000803e3d6000fd5b505050506040513d601f19601f82011682018060405250810190611eae919061791b565b611eb8919061852e565b90506000600d60009054906101000a900473ffffffffffffffffffffffffffffffffffffffff1673ffffffffffffffffffffffffffffffffffffffff166396c82e576040518163ffffffff1660e01b815260040160206040518083038186803b158015611f2457600080fd5b505afa158015611f38573d6000803e3d6000fd5b505050506040513d601f19601f82011682018060405250810190611f5c919061791b565b600e60009054906101000a900473ffffffffffffffffffffffffffffffffffffffff1673ffffffffffffffffffffffffffffffffffffffff166396c82e576040518163ffffffff1660e01b815260040160206040518083038186803b158015611fc457600080fd5b505afa158015611fd8573d6000803e3d6000fd5b505050506040513d601f19601f82011682018060405250810190611ffc919061791b565b612006919061852e565b90506000600654600160009054906101000a900473ffffffffffffffffffffffffffffffffffffffff1673ffffffffffffffffffffffffffffffffffffffff166370a08231601160009054906101000a900473ffffffffffffffffffffffffffffffffffffffff166040518263ffffffff1660e01b815260040161208a9190617f11565b60206040518083038186803b1580156120a257600080fd5b505afa1580156120b6573d6000803e3d6000fd5b505050506040513d601f19601f820116820180604052508101906120da919061791b565b6120e49190618584565b90506000612710600754836120f991906185b5565b6121039190618584565b9050600c60009054906101000a900473ffffffffffffffffffffffffffffffffffffffff1673ffffffffffffffffffffffffffffffffffffffff16631ba326c48585846040518463ffffffff1660e01b815260040161216493929190618425565b60206040518083038186803b15801561217c57600080fd5b505afa158015612190573d6000803e3d6000fd5b505050506040513d601f19601f820116820180604052508101906121b4919061791b565b945050505050919050565b6121c761736a565b81816000018181525050601b600083815260200190815260200160002080546121ef90618897565b80601f016020809104026020016040519081016040528092919081815260200182805461221b90618897565b80156122685780601f1061223d57610100808354040283529160200191612268565b820191906000526020600020905b81548152906001019060200180831161224b57829003601f168201915b50505050508160200181905250601c600083815260200190815260200160002054816040018181525050601d600083815260200190815260200160002054816060018181525050601e600083815260200190815260200160002060009054906101000a900460ff16816080019015159081151581525050601f600083815260200190815260200160002060009054906101000a900460ff168160a001901515908115158152505060196000838152602001908152602001600020548160c0018181525050601a600083815260200190815260200160002060009054906101000a900473ffffffffffffffffffffffffffffffffffffffff168160e0019073ffffffffffffffffffffffffffffffffffffffff16908173ffffffffffffffffffffffffffffffffffffffff16815250506020600083815260200190815260200160002060009054906101000a900460ff1681610100019015159081151581525050602160008381526020019081526020016000205481610120018181525050919050565b601381815481106123fb57600080fd5b906000526020600020016000915054906101000a900473ffffffffffffffffffffffffffffffffffffffff1681565b60008054906101000a900473ffffffffffffffffffffffffffffffffffffffff1673ffffffffffffffffffffffffffffffffffffffff163373ffffffffffffffffffffffffffffffffffffffff161461248257600080fd5b81600f60006101000a81548173ffffffffffffffffffffffffffffffffffffffff021916908373ffffffffffffffffffffffffffffffffffffffff16021790555080601060006101000a81548173ffffffffffffffffffffffffffffffffffffffff021916908373ffffffffffffffffffffffffffffffffffffffff1602179055505050565b6000601660008373ffffffffffffffffffffffffffffffffffffffff1673ffffffffffffffffffffffffffffffffffffffff16815260200190815260200160002060009054906101000a900460ff16612596576040517f08c379a000000000000000000000000000000000000000000000000000000000815260040161258d906181c3565b60405180910390fd5b6000601860008473ffffffffffffffffffffffffffffffffffffffff1673ffffffffffffffffffffffffffffffffffffffff16815260200190815260200160002054426125e3919061860f565b905060006125f084611d55565b90506000600254838361260391906185b5565b61260d9190618584565b9050809350505050919050565b601160009054906101000a900473ffffffffffffffffffffffffffffffffffffffff1673ffffffffffffffffffffffffffffffffffffffff16632267716c6040518163ffffffff1660e01b8152600401602060405180830381600087803b15801561268457600080fd5b505af1158015612698573d6000803e3d6000fd5b505050506040513d601f19601f820116820180604052508101906126bc9190617717565b6126fb576040517f08c379a00000000000000000000000000000000000000000000000000000000081526004016126f290618163565b60405180910390fd5b600061270633612508565b905042601860003373ffffffffffffffffffffffffffffffffffffffff1673ffffffffffffffffffffffffffffffffffffffff168152602001908152602001600020819055506000600160009054906101000a900473ffffffffffffffffffffffffffffffffffffffff1673ffffffffffffffffffffffffffffffffffffffff166370a08231601160009054906101000a900473ffffffffffffffffffffffffffffffffffffffff166040518263ffffffff1660e01b81526004016127cb9190617f11565b60206040518083038186803b1580156127e357600080fd5b505afa1580156127f7573d6000803e3d6000fd5b505050506040513d601f19601f8201168201806040525081019061281b919061791b565b905060006127106007548361283091906185b5565b61283a9190618584565b905080831115612848578092505b601160009054906101000a900473ffffffffffffffffffffffffffffffffffffffff1673ffffffffffffffffffffffffffffffffffffffff16637d458baa84336040518363ffffffff1660e01b81526004016128a5929190618320565b600060405180830381600087803b1580156128bf57600080fd5b505af11580156128d3573d6000803e3d6000fd5b50505050505050565b6128e782823361120c565b5050565b600080601b60006009548152602001908152602001600020805461290e90618897565b80601f016020809104026020016040519081016040528092919081815260200182805461293a90618897565b80156129875780601f1061295c57610100808354040283529160200191612987565b820191906000526020600020905b81548152906001019060200180831161296a57829003601f168201915b5050505050905060226000600954815260200190815260200160002060003373ffffffffffffffffffffffffffffffffffffffff1673ffffffffffffffffffffffffffffffffffffffff16815260200190815260200160002054915060206000600954815260200190815260200160002060009054906101000a900460ff1615612a385781601c600060095481526020019081526020016000206000828254612a30919061860f565b925050819055505b600060226000600954815260200190815260200160002060003373ffffffffffffffffffffffffffffffffffffffff1673ffffffffffffffffffffffffffffffffffffffff168152602001908152602001600020819055506009543373ffffffffffffffffffffffffffffffffffffffff167f70a6ab6ed794c2ceb8df59b7bb4e317e9b215d9ce74b88161ca5af2a5a801d6f84601c600060095481526020019081526020016000205485604051612af2939291906183e7565b60405180910390a35090565b601e6020528060005260406000206000915054906101000a900460ff1681565b612b266128eb565b50600e60009054906101000a900473ffffffffffffffffffffffffffffffffffffffff1673ffffffffffffffffffffffffffffffffffffffff1663f940e38582336040518363ffffffff1660e01b8152600401612b84929190617f2c565b602060405180830381600087803b158015612b9e57600080fd5b505af1158015612bb2573d6000803e3d6000fd5b505050506040513d601f19601f82011682018060405250810190612bd69190617717565b612c15576040517f08c379a0000000000000000000000000000000000000000000000000000000008152600401612c0c90618223565b60405180910390fd5b50565b60008054906101000a900473ffffffffffffffffffffffffffffffffffffffff1673ffffffffffffffffffffffffffffffffffffffff163373ffffffffffffffffffffffffffffffffffffffff1614612c7057600080fd5b8463ffffffff166003819055508363ffffffff166006819055508263ffffffff166005819055508163ffffffff166007819055508063ffffffff166008819055505050505050565b600080601c60008481526020019081526020016000205490506000600d60009054906101000a900473ffffffffffffffffffffffffffffffffffffffff1673ffffffffffffffffffffffffffffffffffffffff166396c82e576040518163ffffffff1660e01b815260040160206040518083038186803b158015612d3b57600080fd5b505afa158015612d4f573d6000803e3d6000fd5b505050506040513d601f19601f82011682018060405250810190612d73919061791b565b600e60009054906101000a900473ffffffffffffffffffffffffffffffffffffffff1673ffffffffffffffffffffffffffffffffffffffff166396c82e576040518163ffffffff1660e01b815260040160206040518083038186803b158015612ddb57600080fd5b505afa158015612def573d6000803e3d6000fd5b505050506040513d601f19601f82011682018060405250810190612e13919061791b565b612e1d919061852e565b9050600061271060055483612e3291906185b5565b612e3c9190618584565b905080831115612e525760019350505050612e5a565b600093505050505b919050565b60186020528060005260406000206000915090505481565b60155481565b60008054906101000a900473ffffffffffffffffffffffffffffffffffffffff1673ffffffffffffffffffffffffffffffffffffffff163373ffffffffffffffffffffffffffffffffffffffff1614612ed557600080fd5b6000600160009054906101000a900473ffffffffffffffffffffffffffffffffffffffff1673ffffffffffffffffffffffffffffffffffffffff166370a08231306040518263ffffffff1660e01b8152600401612f329190617f11565b60206040518083038186803b158015612f4a57600080fd5b505afa158015612f5e573d6000803e3d6000fd5b505050506040513d601f19601f82011682018060405250810190612f82919061791b565b9050600160009054906101000a900473ffffffffffffffffffffffffffffffffffffffff1673ffffffffffffffffffffffffffffffffffffffff1663a9059cbb83836040518363ffffffff1660e01b8152600401612fe1929190617f8c565b602060405180830381600087803b158015612ffb57600080fd5b505af115801561300f573d6000803e3d6000fd5b505050506040513d601f19601f820116820180604052508101906130339190617717565b505050565b60025481565b60008054906101000a900473ffffffffffffffffffffffffffffffffffffffff1673ffffffffffffffffffffffffffffffffffffffff163373ffffffffffffffffffffffffffffffffffffffff161461309657600080fd5b82600e60006101000a81548173ffffffffffffffffffffffffffffffffffffffff021916908373ffffffffffffffffffffffffffffffffffffffff16021790555081600d60006101000a81548173ffffffffffffffffffffffffffffffffffffffff021916908373ffffffffffffffffffffffffffffffffffffffff16021790555080601260006101000a81548173ffffffffffffffffffffffffffffffffffffffff021916908373ffffffffffffffffffffffffffffffffffffffff160217905550505050565b60075481565b60008060148054806020026020016040519081016040528092919081815260200182805480156131e957602002820191906000526020600020905b8160009054906101000a900473ffffffffffffffffffffffffffffffffffffffff1673ffffffffffffffffffffffffffffffffffffffff168152602001906001019080831161319f575b5050505050905060005b81518110156133375760006132488584848151811061323b577f4e487b7100000000000000000000000000000000000000000000000000000000600052603260045260246000fd5b602002602001015161550b565b9050600081111561332357600d60009054906101000a900473ffffffffffffffffffffffffffffffffffffffff1673ffffffffffffffffffffffffffffffffffffffff16635bc262be8484815181106132ca577f4e487b7100000000000000000000000000000000000000000000000000000000600052603260045260246000fd5b6020026020010151876040518363ffffffff1660e01b81526004016132f0929190617f2c565b600060405180830381600087803b15801561330a57600080fd5b505af115801561331e573d6000803e3d6000fd5b505050505b50808061332f906188fa565b9150506131f3565b506001915050919050565b6000600a60009054906101000a900460ff161561340057600a60019054906101000a900473ffffffffffffffffffffffffffffffffffffffff1673ffffffffffffffffffffffffffffffffffffffff16637b0e5c456040518163ffffffff1660e01b815260040160206040518083038186803b1580156133c157600080fd5b505afa1580156133d5573d6000803e3d6000fd5b505050506040513d601f19601f820116820180604052508101906133f99190617888565b9050613426565b600c60009054906101000a900473ffffffffffffffffffffffffffffffffffffffff1690505b90565b60006001151560206000600954815260200190815260200160002060009054906101000a900460ff16151514613494576040517f08c379a000000000000000000000000000000000000000000000000000000000815260040161348b906182a3565b60405180910390fd5b6000601b6000600954815260200190815260200160002080546134b690618897565b80601f01602080910402602001604051908101604052809291908181526020018280546134e290618897565b801561352f5780601f106135045761010080835404028352916020019161352f565b820191906000526020600020905b81548152906001019060200180831161351257829003601f168201915b5050505050905061353e6158ba565b915061354b600954614cb6565b801561357d575060001515601e6000600954815260200190815260200160002060009054906101000a900460ff161515145b156137d8576135c1816040518060400160405280600381526020017f44414f0000000000000000000000000000000000000000000000000000000000815250615b22565b806136075750613606816040518060400160405280600581526020017f5554494c53000000000000000000000000000000000000000000000000000000815250615b22565b5b8061364d575061364c816040518060400160405280600781526020017f5245534552564500000000000000000000000000000000000000000000000000815250615b22565b5b806136935750613692816040518060400160405280600a81526020017f4745545f53504152544100000000000000000000000000000000000000000000815250615b22565b5b806136d957506136d8816040518060400160405280600681526020017f524f555445520000000000000000000000000000000000000000000000000000815250615b22565b5b8061371f575061371e816040518060400160405280600981526020017f4c4953545f424f4e440000000000000000000000000000000000000000000000815250615b22565b5b806137655750613764816040518060400160405280600581526020017f4752414e54000000000000000000000000000000000000000000000000000000815250615b22565b5b806137ab57506137aa816040518060400160405280601081526020017f4144445f435552415445445f504f4f4c00000000000000000000000000000000815250615b22565b5b156137ce576137bb600954612cb8565b156137c9576137c8615bde565b5b6137d7565b6137d6615bde565b5b5b6009543373ffffffffffffffffffffffffffffffffffffffff167f4d46d88c7e981a5bf4572a83b5d88bcfefbd5ee6ca8df0588e27c4221a43640784601c60006009548152602001908152602001600020548560405161383a939291906183e7565b60405180910390a35090565b60008054906101000a900473ffffffffffffffffffffffffffffffffffffffff1673ffffffffffffffffffffffffffffffffffffffff163373ffffffffffffffffffffffffffffffffffffffff161461389e57600080fd5b82600b60006101000a81548173ffffffffffffffffffffffffffffffffffffffff021916908373ffffffffffffffffffffffffffffffffffffffff16021790555081600c60006101000a81548173ffffffffffffffffffffffffffffffffffffffff021916908373ffffffffffffffffffffffffffffffffffffffff16021790555080601160006101000a81548173ffffffffffffffffffffffffffffffffffffffff021916908373ffffffffffffffffffffffffffffffffffffffff160217905550505050565b602080528060005260406000206000915054906101000a900460ff1681565b610258602160006009548152602001908152602001600020546139a8919061852e565b42116139e9576040517f08c379a00000000000000000000000000000000000000000000000000000000081526004016139e0906182c3565b60405180910390fd5b6000601c6000600954815260200190815260200160002081905550600060206000600954815260200190815260200160002060006101000a81548160ff0219169083151502179055506009543373ffffffffffffffffffffffffffffffffffffffff167f0e67c2e72a9ea22e5d163549aebce99ddc3d1fbbc58e7ed196b0e88f458847d9601c6000600954815260200190815260200160002054601c6000600954815260200190815260200160002054600e60009054906101000a900473ffffffffffffffffffffffffffffffffffffffff1673ffffffffffffffffffffffffffffffffffffffff166396c82e576040518163ffffffff1660e01b815260040160206040518083038186803b158015613b0157600080fd5b505afa158015613b15573d6000803e3d6000fd5b505050506040513d601f19601f82011682018060405250810190613b39919061791b565b604051613b4893929190618425565b60405180910390a3565b60055481565b600a60019054906101000a900473ffffffffffffffffffffffffffffffffffffffff1681565b60008054906101000a900473ffffffffffffffffffffffffffffffffffffffff1673ffffffffffffffffffffffffffffffffffffffff163373ffffffffffffffffffffffffffffffffffffffff1614613bd657600080fd5b601760008273ffffffffffffffffffffffffffffffffffffffff1673ffffffffffffffffffffffffffffffffffffffff16815260200190815260200160002060009054906101000a900460ff16613ce3576001601760008373ffffffffffffffffffffffffffffffffffffffff1673ffffffffffffffffffffffffffffffffffffffff16815260200190815260200160002060006101000a81548160ff0219169083151502179055506014819080600181540180825580915050600190039060005260206000200160009091909190916101000a81548173ffffffffffffffffffffffffffffffffffffffff021916908373ffffffffffffffffffffffffffffffffffffffff1602179055505b8073ffffffffffffffffffffffffffffffffffffffff163373ffffffffffffffffffffffffffffffffffffffff167fa2c962e87fd75165c1496c9ea420ddb0231e124bf2625a77f828287c8050006860405160405180910390a350565b6000600a60009054906101000a900460ff1615613dfe57600a60019054906101000a900473ffffffffffffffffffffffffffffffffffffffff1673ffffffffffffffffffffffffffffffffffffffff16639d2cc4366040518163ffffffff1660e01b815260040160206040518083038186803b158015613dbf57600080fd5b505afa158015613dd3573d6000803e3d6000fd5b505050506040513d601f19601f82011682018060405250810190613df791906177e4565b9050613e24565b601160009054906101000a900473ffffffffffffffffffffffffffffffffffffffff1690505b90565b60166020528060005260406000206000915054906101000a900460ff1681565b601d6020528060005260406000206000915090505481565b6000808211613ea3576040517f08c379a0000000000000000000000000000000000000000000000000000000008152600401613e9a90618263565b60405180910390fd5b601760008473ffffffffffffffffffffffffffffffffffffffff1673ffffffffffffffffffffffffffffffffffffffff16815260200190815260200160002060009054906101000a900460ff16613f2f576040517f08c379a0000000000000000000000000000000000000000000000000000000008152600401613f2690618123565b60405180910390fd5b60011515601660003373ffffffffffffffffffffffffffffffffffffffff1673ffffffffffffffffffffffffffffffffffffffff16815260200190815260200160002060009054906101000a900460ff16151514614043576013339080600181540180825580915050600190039060005260206000200160009091909190916101000a81548173ffffffffffffffffffffffffffffffffffffffff021916908373ffffffffffffffffffffffffffffffffffffffff1602179055506001601660003373ffffffffffffffffffffffffffffffffffffffff1673ffffffffffffffffffffffffffffffffffffffff16815260200190815260200160002060006101000a81548160ff0219169083151502179055505b6000600d60009054906101000a900473ffffffffffffffffffffffffffffffffffffffff1673ffffffffffffffffffffffffffffffffffffffff16635364df49336040518263ffffffff1660e01b81526004016140a09190617f11565b60206040518083038186803b1580156140b857600080fd5b505afa1580156140cc573d6000803e3d6000fd5b505050506040513d601f19601f820116820180604052508101906140f0919061791b565b600e60009054906101000a900473ffffffffffffffffffffffffffffffffffffffff1673ffffffffffffffffffffffffffffffffffffffff16635364df49336040518263ffffffff1660e01b815260040161414b9190617f11565b60206040518083038186803b15801561416357600080fd5b505afa158015614177573d6000803e3d6000fd5b505050506040513d601f19601f8201168201806040525081019061419b919061791b565b6141a5919061852e565b11156141b4576141b361261a565b5b60006141c08484615d2b565b9050600d60009054906101000a900473ffffffffffffffffffffffffffffffffffffffff1673ffffffffffffffffffffffffffffffffffffffff1663bf58d0ef8533846040518463ffffffff1660e01b815260040161422193929190617f55565b600060405180830381600087803b15801561423b57600080fd5b505af115801561424f573d6000803e3d6000fd5b5050505042601860003373ffffffffffffffffffffffffffffffffffffffff1673ffffffffffffffffffffffffffffffffffffffff168152602001908152602001600020819055503373ffffffffffffffffffffffffffffffffffffffff167fe4dd259ab128527fe8b5fdae0b44bda8db95a4de10b999d63dce142b1eb88d5484836040516142df929190618379565b60405180910390a2600191505092915050565b60006142fc6156af565b614304615785565b5060006040518060400160405280600581526020017f4752414e54000000000000000000000000000000000000000000000000000000815250905080601b6000600954815260200190815260200160002090805190602001906143689291906172e4565b5083601a6000600954815260200190815260200160002060006101000a81548173ffffffffffffffffffffffffffffffffffffffff021916908373ffffffffffffffffffffffffffffffffffffffff16021790555082601960006009548152602001908152602001600020819055506009543373ffffffffffffffffffffffffffffffffffffffff167f8d500fcad86fc64a281b94ef64d6d66acbfc6862aa4ff2ee5fbbfb40736e803e836040516144209190618101565b60405180910390a360095491505092915050565b600354601d600060095481526020019081526020016000205442614458919061860f565b11614498576040517f08c379a000000000000000000000000000000000000000000000000000000000815260040161448f90618183565b60405180910390fd5b60011515601e6000600954815260200190815260200160002060009054906101000a900460ff16151514614501576040517f08c379a00000000000000000000000000000000000000000000000000000000081526004016144f8906181a3565b60405180910390fd5b61450c600954614cb6565b614543576000601e6000600954815260200190815260200160002060006101000a81548160ff021916908315150217905550614a33565b6000601b60006009548152602001908152602001600020805461456590618897565b80601f016020809104026020016040519081016040528092919081815260200182805461459190618897565b80156145de5780601f106145b3576101008083540402835291602001916145de565b820191906000526020600020905b8154815290600101906020018083116145c157829003601f168201915b50505050509050614624816040518060400160405280600381526020017f44414f0000000000000000000000000000000000000000000000000000000000815250615b22565b15614639576146346009546164d0565b614a31565b614678816040518060400160405280600681526020017f524f555445520000000000000000000000000000000000000000000000000000815250615b22565b1561468d5761468860095461666e565b614a30565b6146cc816040518060400160405280600581526020017f5554494c53000000000000000000000000000000000000000000000000000000815250615b22565b156146e1576146dc600954616764565b614a2f565b614720816040518060400160405280600781526020017f5245534552564500000000000000000000000000000000000000000000000000815250615b22565b156147355761473060095461685a565b614a2e565b614774816040518060400160405280600e81526020017f464c49505f454d495353494f4e53000000000000000000000000000000000000815250615b22565b1561478957614784600954616950565b614a2d565b6147c8816040518060400160405280600881526020017f434f4f4c5f4f4646000000000000000000000000000000000000000000000000815250615b22565b156147dd576147d86009546169de565b614a2c565b61481c816040518060400160405280600c81526020017f455241535f544f5f4541524e0000000000000000000000000000000000000000815250615b22565b156148315761482c600954616a4e565b614a2b565b614870816040518060400160405280600581526020017f4752414e54000000000000000000000000000000000000000000000000000000815250615b22565b1561488557614880600954616abe565b614a2a565b6148c4816040518060400160405280600a81526020017f4745545f53504152544100000000000000000000000000000000000000000000815250615b22565b156148d9576148d4600954616c5f565b614a29565b614918816040518060400160405280600981526020017f4c4953545f424f4e440000000000000000000000000000000000000000000000815250615b22565b1561492d57614928600954616d0b565b614a28565b61496c816040518060400160405280600b81526020017f44454c4953545f424f4e44000000000000000000000000000000000000000000815250615b22565b156149815761497c600954616e5d565b614a27565b6149c0816040518060400160405280601081526020017f4144445f435552415445445f504f4f4c00000000000000000000000000000000815250615b22565b156149d5576149d0600954616efa565b614a26565b614a14816040518060400160405280601381526020017f52454d4f56455f435552415445445f504f4f4c00000000000000000000000000815250615b22565b15614a2557614a24600954616fcc565b5b5b5b5b5b5b5b5b5b5b5b5b5b505b565b60035481565b601a6020528060005260406000206000915054906101000a900473ffffffffffffffffffffffffffffffffffffffff1681565b60008054906101000a900473ffffffffffffffffffffffffffffffffffffffff1673ffffffffffffffffffffffffffffffffffffffff163373ffffffffffffffffffffffffffffffffffffffff1614614ac657600080fd5b8060158190555050565b60216020528060005260406000206000915090505481565b6000600a60009054906101000a900460ff1615614ba657600a60019054906101000a900473ffffffffffffffffffffffffffffffffffffffff1673ffffffffffffffffffffffffffffffffffffffff1663b93ec54b6040518163ffffffff1660e01b815260040160206040518083038186803b158015614b6757600080fd5b505afa158015614b7b573d6000803e3d6000fd5b505050506040513d601f19601f82011682018060405250810190614b9f9190617836565b9050614bcc565b601060009054906101000a900473ffffffffffffffffffffffffffffffffffffffff1690505b90565b6000600a60009054906101000a900460ff1615614c8d57600a60019054906101000a900473ffffffffffffffffffffffffffffffffffffffff1673ffffffffffffffffffffffffffffffffffffffff1663b99b0a0c6040518163ffffffff1660e01b815260040160206040518083038186803b158015614c4e57600080fd5b505afa158015614c62573d6000803e3d6000fd5b505050506040513d601f19601f82011682018060405250810190614c8691906177bb565b9050614cb3565b600f60009054906101000a900473ffffffffffffffffffffffffffffffffffffffff1690505b90565b600080601c60008481526020019081526020016000205490506000600d60009054906101000a900473ffffffffffffffffffffffffffffffffffffffff1673ffffffffffffffffffffffffffffffffffffffff166396c82e576040518163ffffffff1660e01b815260040160206040518083038186803b158015614d3957600080fd5b505afa158015614d4d573d6000803e3d6000fd5b505050506040513d601f19601f82011682018060405250810190614d71919061791b565b600e60009054906101000a900473ffffffffffffffffffffffffffffffffffffffff1673ffffffffffffffffffffffffffffffffffffffff166396c82e576040518163ffffffff1660e01b815260040160206040518083038186803b158015614dd957600080fd5b505afa158015614ded573d6000803e3d6000fd5b505050506040513d601f19601f82011682018060405250810190614e11919061791b565b614e1b919061852e565b90506000600282614e2c9190618584565b905080831115614e425760019350505050614e4a565b600093505050505b919050565b60008060009054906101000a900473ffffffffffffffffffffffffffffffffffffffff1673ffffffffffffffffffffffffffffffffffffffff163373ffffffffffffffffffffffffffffffffffffffff1614614eaa57600080fd5b6000600160009054906101000a900473ffffffffffffffffffffffffffffffffffffffff1673ffffffffffffffffffffffffffffffffffffffff166370a08231306040518263ffffffff1660e01b8152600401614f079190617f11565b60206040518083038186803b158015614f1f57600080fd5b505afa158015614f33573d6000803e3d6000fd5b505050506040513d601f19601f82011682018060405250810190614f57919061791b565b9050600160009054906101000a900473ffffffffffffffffffffffffffffffffffffffff1673ffffffffffffffffffffffffffffffffffffffff166342966c68826040518263ffffffff1660e01b8152600401614fb49190618305565b600060405180830381600087803b158015614fce57600080fd5b505af1158015614fe2573d6000803e3d6000fd5b50505050600191505090565b601b602052806000526040600020600091509050805461500d90618897565b80601f016020809104026020016040519081016040528092919081815260200182805461503990618897565b80156150865780601f1061505b57610100808354040283529160200191615086565b820191906000526020600020905b81548152906001019060200180831161506957829003601f168201915b505050505081565b60008054906101000a900473ffffffffffffffffffffffffffffffffffffffff1681565b6022602052816000526040600020602052806000526040600020600091509150505481565b600080601c60008481526020019081526020016000205490506000600d60009054906101000a900473ffffffffffffffffffffffffffffffffffffffff1673ffffffffffffffffffffffffffffffffffffffff166396c82e576040518163ffffffff1660e01b815260040160206040518083038186803b15801561515a57600080fd5b505afa15801561516e573d6000803e3d6000fd5b505050506040513d601f19601f82011682018060405250810190615192919061791b565b600e60009054906101000a900473ffffffffffffffffffffffffffffffffffffffff1673ffffffffffffffffffffffffffffffffffffffff166396c82e576040518163ffffffff1660e01b815260040160206040518083038186803b1580156151fa57600080fd5b505afa15801561520e573d6000803e3d6000fd5b505050506040513d601f19601f82011682018060405250810190615232919061791b565b61523c919061852e565b9050600060068261524d9190618584565b905080831115615263576001935050505061526b565b600093505050505b919050565b600061527a6156af565b615282615785565b5081601b6000600954815260200190815260200160002090805190602001906152ac9291906172e4565b506009543373ffffffffffffffffffffffffffffffffffffffff167f8d500fcad86fc64a281b94ef64d6d66acbfc6862aa4ff2ee5fbbfb40736e803e846040516152f69190618101565b60405180910390a36009549050919050565b60045481565b601c6020528060005260406000206000915090505481565b60008054906101000a900473ffffffffffffffffffffffffffffffffffffffff1673ffffffffffffffffffffffffffffffffffffffff163373ffffffffffffffffffffffffffffffffffffffff161461537e57600080fd5b6000601760008373ffffffffffffffffffffffffffffffffffffffff1673ffffffffffffffffffffffffffffffffffffffff16815260200190815260200160002060006101000a81548160ff0219169083151502179055508073ffffffffffffffffffffffffffffffffffffffff163373ffffffffffffffffffffffffffffffffffffffff167ff487c2322baa448cfa506b983134d9dd9f27d0bbfe0b48119a3908d4f0dde89f60405160405180910390a350565b600080615440338461550b565b905060008111156154db57600d60009054906101000a900473ffffffffffffffffffffffffffffffffffffffff1673ffffffffffffffffffffffffffffffffffffffff16635bc262be84336040518363ffffffff1660e01b81526004016154a8929190617f2c565b600060405180830381600087803b1580156154c257600080fd5b505af11580156154d6573d6000803e3d6000fd5b505050505b6001915050919050565b600160009054906101000a900473ffffffffffffffffffffffffffffffffffffffff1681565b600080600d60009054906101000a900473ffffffffffffffffffffffffffffffffffffffff1673ffffffffffffffffffffffffffffffffffffffff1663ba0ba54f85856040518363ffffffff1660e01b815260040161556b929190617f2c565b602060405180830381600087803b15801561558557600080fd5b505af1158015615599573d6000803e3d6000fd5b505050506040513d601f19601f820116820180604052508101906155bd919061791b565b90508091505092915050565b60006155d36156af565b6155db615785565b508263ffffffff166019600060095481526020019081526020016000208190555081601b6000600954815260200190815260200160002090805190602001906156259291906172e4565b506009543373ffffffffffffffffffffffffffffffffffffffff167f8d500fcad86fc64a281b94ef64d6d66acbfc6862aa4ff2ee5fbbfb40736e803e8460405161566f9190618101565b60405180910390a3600954905092915050565b60176020528060005260406000206000915054906101000a900460ff1681565b6000601480549050905090565b6000151560206000600954815260200190815260200160002060009054906101000a900460ff16151514615718576040517f08c379a000000000000000000000000000000000000000000000000000000000815260040161570f906182a3565b60405180910390fd5b60016004600082825461572b919061852e565b92505081905550600454600981905550600160206000600954815260200190815260200160002060006101000a81548160ff0219169083151502179055504260216000600954815260200190815260200160002081905550565b600080670de0b6b3a764000060085461579e91906185b5565b9050600160009054906101000a900473ffffffffffffffffffffffffffffffffffffffff1673ffffffffffffffffffffffffffffffffffffffff166323b872dd33601160009054906101000a900473ffffffffffffffffffffffffffffffffffffffff16846040518463ffffffff1660e01b815260040161582193929190617f55565b602060405180830381600087803b15801561583b57600080fd5b505af115801561584f573d6000803e3d6000fd5b505050506040513d601f19601f820116820180604052508101906158739190617717565b6158b2576040517f08c379a00000000000000000000000000000000000000000000000000000000081526004016158a990618143565b60405180910390fd5b600191505090565b600060226000600954815260200190815260200160002060003373ffffffffffffffffffffffffffffffffffffffff1673ffffffffffffffffffffffffffffffffffffffff16815260200190815260200160002054601c600060095481526020019081526020016000206000828254615933919061860f565b92505081905550600d60009054906101000a900473ffffffffffffffffffffffffffffffffffffffff1673ffffffffffffffffffffffffffffffffffffffff16635364df49336040518263ffffffff1660e01b81526004016159959190617f11565b60206040518083038186803b1580156159ad57600080fd5b505afa1580156159c1573d6000803e3d6000fd5b505050506040513d601f19601f820116820180604052508101906159e5919061791b565b600e60009054906101000a900473ffffffffffffffffffffffffffffffffffffffff1673ffffffffffffffffffffffffffffffffffffffff16635364df49336040518263ffffffff1660e01b8152600401615a409190617f11565b60206040518083038186803b158015615a5857600080fd5b505afa158015615a6c573d6000803e3d6000fd5b505050506040513d601f19601f82011682018060405250810190615a90919061791b565b615a9a919061852e565b905080601c600060095481526020019081526020016000206000828254615ac1919061852e565b925050819055508060226000600954815260200190815260200160002060003373ffffffffffffffffffffffffffffffffffffffff1673ffffffffffffffffffffffffffffffffffffffff1681526020019081526020016000208190555090565b6000600282604051615b349190617efa565b602060405180830381855afa158015615b51573d6000803e3d6000fd5b5050506040513d601f19601f82011682018060405250810190615b749190617740565b600284604051615b849190617efa565b602060405180830381855afa158015615ba1573d6000803e3d6000fd5b5050506040513d601f19601f82011682018060405250810190615bc49190617740565b1415615bd35760019050615bd8565b600090505b92915050565b6000601b600060095481526020019081526020016000208054615c0090618897565b80601f0160208091040260200160405190810160405280929190818152602001828054615c2c90618897565b8015615c795780601f10615c4e57610100808354040283529160200191615c79565b820191906000526020600020905b815481529060010190602001808311615c5c57829003601f168201915b505050505090506001601e6000600954815260200190815260200160002060006101000a81548160ff02191690831515021790555042601d60006009548152602001908152602001600020819055506009543373ffffffffffffffffffffffffffffffffffffffff167f0f36aea5066f9f90a999260fe4ce8d7713f7f07f5ae61bf36d73cc51170a3a9e60035442615d11919061852e565b84604051615d20929190618349565b60405180910390a350565b600080600c60009054906101000a900473ffffffffffffffffffffffffffffffffffffffff1673ffffffffffffffffffffffffffffffffffffffff1663b80e44b885856040518363ffffffff1660e01b8152600401615d8b929190617f8c565b60206040518083038186803b158015615da357600080fd5b505afa158015615db7573d6000803e3d6000fd5b505050506040513d601f19601f82011682018060405250810190615ddb919061791b565b905080600160009054906101000a900473ffffffffffffffffffffffffffffffffffffffff1673ffffffffffffffffffffffffffffffffffffffff1663dd62ed3e30600b60009054906101000a900473ffffffffffffffffffffffffffffffffffffffff166040518363ffffffff1660e01b8152600401615e5d929190617f2c565b60206040518083038186803b158015615e7557600080fd5b505afa158015615e89573d6000803e3d6000fd5b505050506040513d601f19601f82011682018060405250810190615ead919061791b565b101561602557600160009054906101000a900473ffffffffffffffffffffffffffffffffffffffff1673ffffffffffffffffffffffffffffffffffffffff1663095ea7b3600b60009054906101000a900473ffffffffffffffffffffffffffffffffffffffff16600160009054906101000a900473ffffffffffffffffffffffffffffffffffffffff1673ffffffffffffffffffffffffffffffffffffffff166318160ddd6040518163ffffffff1660e01b815260040160206040518083038186803b158015615f7c57600080fd5b505afa158015615f90573d6000803e3d6000fd5b505050506040513d601f19601f82011682018060405250810190615fb4919061791b565b6040518363ffffffff1660e01b8152600401615fd1929190617f8c565b602060405180830381600087803b158015615feb57600080fd5b505af1158015615fff573d6000803e3d6000fd5b505050506040513d601f19601f820116820180604052508101906160239190617717565b505b600073ffffffffffffffffffffffffffffffffffffffff168473ffffffffffffffffffffffffffffffffffffffff1614156161795734831461609c576040517f08c379a000000000000000000000000000000000000000000000000000000000815260040161609390618263565b60405180910390fd5b600b60009054906101000a900473ffffffffffffffffffffffffffffffffffffffff1673ffffffffffffffffffffffffffffffffffffffff166393cac68584838688600d60009054906101000a900473ffffffffffffffffffffffffffffffffffffffff166040518663ffffffff1660e01b815260040161612094939291906183a2565b6020604051808303818588803b15801561613957600080fd5b505af115801561614d573d6000803e3d6000fd5b50505050506040513d601f19601f82011682018060405250810190616172919061791b565b91506164c9565b8373ffffffffffffffffffffffffffffffffffffffff166323b872dd3330866040518463ffffffff1660e01b81526004016161b693929190617f55565b602060405180830381600087803b1580156161d057600080fd5b505af11580156161e4573d6000803e3d6000fd5b505050506040513d601f19601f820116820180604052508101906162089190617717565b50828473ffffffffffffffffffffffffffffffffffffffff1663dd62ed3e30600b60009054906101000a900473ffffffffffffffffffffffffffffffffffffffff166040518363ffffffff1660e01b8152600401616267929190617f2c565b60206040518083038186803b15801561627f57600080fd5b505afa158015616293573d6000803e3d6000fd5b505050506040513d601f19601f820116820180604052508101906162b7919061791b565b10156163f15760008473ffffffffffffffffffffffffffffffffffffffff166318160ddd6040518163ffffffff1660e01b815260040160206040518083038186803b15801561630557600080fd5b505afa158015616319573d6000803e3d6000fd5b505050506040513d601f19601f8201168201806040525081019061633d919061791b565b90508473ffffffffffffffffffffffffffffffffffffffff1663095ea7b3600b60009054906101000a900473ffffffffffffffffffffffffffffffffffffffff16836040518363ffffffff1660e01b815260040161639c929190617f8c565b602060405180830381600087803b1580156163b657600080fd5b505af11580156163ca573d6000803e3d6000fd5b505050506040513d601f19601f820116820180604052508101906163ee9190617717565b50505b600b60009054906101000a900473ffffffffffffffffffffffffffffffffffffffff1673ffffffffffffffffffffffffffffffffffffffff166393cac685828587600d60009054906101000a900473ffffffffffffffffffffffffffffffffffffffff166040518563ffffffff1660e01b815260040161647494939291906183a2565b602060405180830381600087803b15801561648e57600080fd5b505af11580156164a2573d6000803e3d6000fd5b505050506040513d601f19601f820116820180604052508101906164c6919061791b565b91505b5092915050565b6000601a600083815260200190815260200160002060009054906101000a900473ffffffffffffffffffffffffffffffffffffffff169050600073ffffffffffffffffffffffffffffffffffffffff168173ffffffffffffffffffffffffffffffffffffffff161415616578576040517f08c379a000000000000000000000000000000000000000000000000000000000815260040161656f90618283565b60405180910390fd5b80600a60016101000a81548173ffffffffffffffffffffffffffffffffffffffff021916908373ffffffffffffffffffffffffffffffffffffffff160217905550600160009054906101000a900473ffffffffffffffffffffffffffffffffffffffff1673ffffffffffffffffffffffffffffffffffffffff16631d007f5f826040518263ffffffff1660e01b81526004016166149190617f11565b600060405180830381600087803b15801561662e57600080fd5b505af1158015616642573d6000803e3d6000fd5b505050506001600a60006101000a81548160ff02191690831515021790555061666a8261709e565b5050565b6000601a600083815260200190815260200160002060009054906101000a900473ffffffffffffffffffffffffffffffffffffffff169050600073ffffffffffffffffffffffffffffffffffffffff168173ffffffffffffffffffffffffffffffffffffffff161415616716576040517f08c379a000000000000000000000000000000000000000000000000000000000815260040161670d90618283565b60405180910390fd5b80600b60006101000a81548173ffffffffffffffffffffffffffffffffffffffff021916908373ffffffffffffffffffffffffffffffffffffffff1602179055506167608261709e565b5050565b6000601a600083815260200190815260200160002060009054906101000a900473ffffffffffffffffffffffffffffffffffffffff169050600073ffffffffffffffffffffffffffffffffffffffff168173ffffffffffffffffffffffffffffffffffffffff16141561680c576040517f08c379a000000000000000000000000000000000000000000000000000000000815260040161680390618283565b60405180910390fd5b80600c60006101000a81548173ffffffffffffffffffffffffffffffffffffffff021916908373ffffffffffffffffffffffffffffffffffffffff1602179055506168568261709e565b5050565b6000601a600083815260200190815260200160002060009054906101000a900473ffffffffffffffffffffffffffffffffffffffff169050600073ffffffffffffffffffffffffffffffffffffffff168173ffffffffffffffffffffffffffffffffffffffff161415616902576040517f08c379a00000000000000000000000000000000000000000000000000000000081526004016168f990618283565b60405180910390fd5b80601160006101000a81548173ffffffffffffffffffffffffffffffffffffffff021916908373ffffffffffffffffffffffffffffffffffffffff16021790555061694c8261709e565b5050565b600160009054906101000a900473ffffffffffffffffffffffffffffffffffffffff1673ffffffffffffffffffffffffffffffffffffffff1663fe1fa8fa6040518163ffffffff1660e01b8152600401600060405180830381600087803b1580156169ba57600080fd5b505af11580156169ce573d6000803e3d6000fd5b505050506169db8161709e565b50565b6000601960008381526020019081526020016000205490506000811415616a3a576040517f08c379a0000000000000000000000000000000000000000000000000000000008152600401616a3190618243565b60405180910390fd5b80600381905550616a4a8261709e565b5050565b6000601960008381526020019081526020016000205490506000811415616aaa576040517f08c379a0000000000000000000000000000000000000000000000000000000008152600401616aa190618243565b60405180910390fd5b80600681905550616aba8261709e565b5050565b6000601960008381526020019081526020016000205490506000601a600084815260200190815260200160002060009054906101000a900473ffffffffffffffffffffffffffffffffffffffff1690506000821415616b52576040517f08c379a0000000000000000000000000000000000000000000000000000000008152600401616b4990618243565b60405180910390fd5b600073ffffffffffffffffffffffffffffffffffffffff168173ffffffffffffffffffffffffffffffffffffffff161415616bc2576040517f08c379a0000000000000000000000000000000000000000000000000000000008152600401616bb990618283565b60405180910390fd5b601160009054906101000a900473ffffffffffffffffffffffffffffffffffffffff1673ffffffffffffffffffffffffffffffffffffffff16637d458baa83836040518363ffffffff1660e01b8152600401616c1f929190618320565b600060405180830381600087803b158015616c3957600080fd5b505af1158015616c4d573d6000803e3d6000fd5b50505050616c5a8361709e565b505050565b60006a02116545850052128000009050600160009054906101000a900473ffffffffffffffffffffffffffffffffffffffff1673ffffffffffffffffffffffffffffffffffffffff1663d01f6fba82306040518363ffffffff1660e01b8152600401616ccc929190618320565b600060405180830381600087803b158015616ce657600080fd5b505af1158015616cfa573d6000803e3d6000fd5b50505050616d078261709e565b5050565b6000601a600083815260200190815260200160002060009054906101000a900473ffffffffffffffffffffffffffffffffffffffff169050601760008273ffffffffffffffffffffffffffffffffffffffff1673ffffffffffffffffffffffffffffffffffffffff16815260200190815260200160002060009054906101000a900460ff16616e50576001601760008373ffffffffffffffffffffffffffffffffffffffff1673ffffffffffffffffffffffffffffffffffffffff16815260200190815260200160002060006101000a81548160ff0219169083151502179055506014819080600181540180825580915050600190039060005260206000200160009091909190916101000a81548173ffffffffffffffffffffffffffffffffffffffff021916908373ffffffffffffffffffffffffffffffffffffffff1602179055505b616e598261709e565b5050565b6000601a600083815260200190815260200160002060009054906101000a900473ffffffffffffffffffffffffffffffffffffffff1690506000601760008373ffffffffffffffffffffffffffffffffffffffff1673ffffffffffffffffffffffffffffffffffffffff16815260200190815260200160002060006101000a81548160ff021916908315150217905550616ef68261709e565b5050565b6000601a600083815260200190815260200160002060009054906101000a900473ffffffffffffffffffffffffffffffffffffffff169050600f60009054906101000a900473ffffffffffffffffffffffffffffffffffffffff1673ffffffffffffffffffffffffffffffffffffffff16632b2260a8826040518263ffffffff1660e01b8152600401616f8d9190617f11565b600060405180830381600087803b158015616fa757600080fd5b505af1158015616fbb573d6000803e3d6000fd5b50505050616fc88261709e565b5050565b6000601a600083815260200190815260200160002060009054906101000a900473ffffffffffffffffffffffffffffffffffffffff169050600f60009054906101000a900473ffffffffffffffffffffffffffffffffffffffff1673ffffffffffffffffffffffffffffffffffffffff16637ca51fbf826040518263ffffffff1660e01b815260040161705f9190617f11565b600060405180830381600087803b15801561707957600080fd5b505af115801561708d573d6000803e3d6000fd5b5050505061709a8261709e565b5050565b6000601b600083815260200190815260200160002080546170be90618897565b80601f01602080910402602001604051908101604052809291908181526020018280546170ea90618897565b80156171375780601f1061710c57610100808354040283529160200191617137565b820191906000526020600020905b81548152906001019060200180831161711a57829003601f168201915b50505050509050813373ffffffffffffffffffffffffffffffffffffffff167f28fca9bc3d4a734a707bd9396d50341c1f45e1d455c4aa4a58ceee0e09f64544601c600086815260200190815260200160002054600e60009054906101000a900473ffffffffffffffffffffffffffffffffffffffff1673ffffffffffffffffffffffffffffffffffffffff166396c82e576040518163ffffffff1660e01b815260040160206040518083038186803b1580156171f357600080fd5b505afa158015617207573d6000803e3d6000fd5b505050506040513d601f19601f8201168201806040525081019061722b919061791b565b8560405161723b939291906183e7565b60405180910390a36000601c6000848152602001908152602001600020819055506001601f600084815260200190815260200160002060006101000a81548160ff0219169083151502179055506000601e600084815260200190815260200160002060006101000a81548160ff02191690831515021790555060006020600084815260200190815260200160002060006101000a81548160ff0219169083151502179055505050565b8280546172f090618897565b90600052602060002090601f0160209004810192826173125760008555617359565b82601f1061732b57805160ff1916838001178555617359565b82800160010185558215617359579182015b8281111561735857825182559160200191906001019061733d565b5b50905061736691906173d9565b5090565b6040518061014001604052806000815260200160608152602001600081526020016000815260200160001515815260200160001515815260200160008152602001600073ffffffffffffffffffffffffffffffffffffffff168152602001600015158152602001600081525090565b5b808211156173f25760008160009055506001016173da565b5090565b600061740961740484618481565b61845c565b90508281526020810184848401111561742157600080fd5b61742c848285618855565b509392505050565b60008135905061744381618c4e565b92915050565b60008151905061745881618c65565b92915050565b60008151905061746d81618c7c565b92915050565b60008151905061748281618c93565b92915050565b60008151905061749781618caa565b92915050565b6000815190506174ac81618cc1565b92915050565b6000815190506174c181618cd8565b92915050565b6000815190506174d681618cef565b92915050565b6000815190506174eb81618d06565b92915050565b60008151905061750081618d1d565b92915050565b60008151905061751581618d34565b92915050565b600082601f83011261752c57600080fd5b813561753c8482602086016173f6565b91505092915050565b60008135905061755481618d4b565b92915050565b60008151905061756981618d4b565b92915050565b60008135905061757e81618d62565b92915050565b60006020828403121561759657600080fd5b60006175a484828501617434565b91505092915050565b600080604083850312156175c057600080fd5b60006175ce85828601617434565b92505060206175df85828601617434565b9150509250929050565b6000806000606084860312156175fe57600080fd5b600061760c86828701617434565b935050602061761d86828701617434565b925050604061762e86828701617434565b9150509250925092565b6000806040838503121561764b57600080fd5b600061765985828601617434565b925050602083013567ffffffffffffffff81111561767657600080fd5b6176828582860161751b565b9150509250929050565b6000806040838503121561769f57600080fd5b60006176ad85828601617434565b92505060206176be85828601617545565b9150509250929050565b6000806000606084860312156176dd57600080fd5b60006176eb86828701617434565b93505060206176fc86828701617545565b925050604061770d86828701617434565b9150509250925092565b60006020828403121561772957600080fd5b600061773784828501617449565b91505092915050565b60006020828403121561775257600080fd5b60006177608482850161745e565b91505092915050565b60006020828403121561777b57600080fd5b600061778984828501617473565b91505092915050565b6000602082840312156177a457600080fd5b60006177b284828501617488565b91505092915050565b6000602082840312156177cd57600080fd5b60006177db8482850161749d565b91505092915050565b6000602082840312156177f657600080fd5b6000617804848285016174b2565b91505092915050565b60006020828403121561781f57600080fd5b600061782d848285016174c7565b91505092915050565b60006020828403121561784857600080fd5b6000617856848285016174dc565b91505092915050565b60006020828403121561787157600080fd5b600061787f848285016174f1565b91505092915050565b60006020828403121561789a57600080fd5b60006178a884828501617506565b91505092915050565b6000602082840312156178c357600080fd5b600082013567ffffffffffffffff8111156178dd57600080fd5b6178e98482850161751b565b91505092915050565b60006020828403121561790457600080fd5b600061791284828501617545565b91505092915050565b60006020828403121561792d57600080fd5b600061793b8482850161755a565b91505092915050565b6000806040838503121561795757600080fd5b600061796585828601617545565b925050602061797685828601617434565b9150509250929050565b6000806040838503121561799357600080fd5b60006179a18582860161756f565b925050602083013567ffffffffffffffff8111156179be57600080fd5b6179ca8582860161751b565b9150509250929050565b600080600080600060a086880312156179ec57600080fd5b60006179fa8882890161756f565b9550506020617a0b8882890161756f565b9450506040617a1c8882890161756f565b9350506060617a2d8882890161756f565b9250506080617a3e8882890161756f565b9150509295509295909350565b6000617a578383617a63565b60208301905092915050565b617a6c81618643565b82525050565b617a7b81618643565b82525050565b6000617a8c826184c2565b617a9681856184f0565b9350617aa1836184b2565b8060005b83811015617ad2578151617ab98882617a4b565b9750617ac4836184e3565b925050600181019050617aa5565b5085935050505092915050565b617ae881618655565b82525050565b617af781618655565b82525050565b6000617b08826184cd565b617b128185618501565b9350617b22818560208601618864565b80840191505092915050565b617b3781618735565b82525050565b617b4681618759565b82525050565b617b558161877d565b82525050565b617b64816187a1565b82525050565b617b73816187c5565b82525050565b617b82816187e9565b82525050565b617b918161880d565b82525050565b617ba081618831565b82525050565b6000617bb1826184d8565b617bbb818561850c565b9350617bcb818560208601618864565b617bd4816189ff565b840191505092915050565b6000617bea826184d8565b617bf4818561851d565b9350617c04818560208601618864565b617c0d816189ff565b840191505092915050565b6000617c2560078361851d565b9150617c3082618a10565b602082019050919050565b6000617c4860048361851d565b9150617c5382618a39565b602082019050919050565b6000617c6b600a8361851d565b9150617c7682618a62565b602082019050919050565b6000617c8e60088361851d565b9150617c9982618a8b565b602082019050919050565b6000617cb1600b8361851d565b9150617cbc82618ab4565b602082019050919050565b6000617cd460078361851d565b9150617cdf82618add565b602082019050919050565b6000617cf760068361851d565b9150617d0282618b06565b602082019050919050565b6000617d1a60088361851d565b9150617d2582618b2f565b602082019050919050565b6000617d3d60098361851d565b9150617d4882618b58565b602082019050919050565b6000617d6060068361851d565b9150617d6b82618b81565b602082019050919050565b6000617d8360078361851d565b9150617d8e82618baa565b602082019050919050565b6000617da660088361851d565b9150617db182618bd3565b602082019050919050565b6000617dc960058361851d565b9150617dd482618bfc565b602082019050919050565b6000617dec60058361851d565b9150617df782618c25565b602082019050919050565b600061014083016000830151617e1b6000860182617edc565b5060208301518482036020860152617e338282617ba6565b9150506040830151617e486040860182617edc565b506060830151617e5b6060860182617edc565b506080830151617e6e6080860182617adf565b5060a0830151617e8160a0860182617adf565b5060c0830151617e9460c0860182617edc565b5060e0830151617ea760e0860182617a63565b50610100830151617ebc610100860182617adf565b50610120830151617ed1610120860182617edc565b508091505092915050565b617ee58161871b565b82525050565b617ef48161871b565b82525050565b6000617f068284617afd565b915081905092915050565b6000602082019050617f266000830184617a72565b92915050565b6000604082019050617f416000830185617a72565b617f4e6020830184617a72565b9392505050565b6000606082019050617f6a6000830186617a72565b617f776020830185617a72565b617f846040830184617eeb565b949350505050565b6000604082019050617fa16000830185617a72565b617fae6020830184617eeb565b9392505050565b6000606082019050617fca6000830186617a72565b617fd76020830185617eeb565b617fe46040830184617a72565b949350505050565b600060208201905081810360008301526180068184617a81565b905092915050565b60006020820190506180236000830184617aee565b92915050565b600060208201905061803e6000830184617b2e565b92915050565b60006020820190506180596000830184617b3d565b92915050565b60006020820190506180746000830184617b4c565b92915050565b600060208201905061808f6000830184617b5b565b92915050565b60006020820190506180aa6000830184617b6a565b92915050565b60006020820190506180c56000830184617b79565b92915050565b60006020820190506180e06000830184617b88565b92915050565b60006020820190506180fb6000830184617b97565b92915050565b6000602082019050818103600083015261811b8184617bdf565b905092915050565b6000602082019050818103600083015261813c81617c18565b9050919050565b6000602082019050818103600083015261815c81617c3b565b9050919050565b6000602082019050818103600083015261817c81617c5e565b9050919050565b6000602082019050818103600083015261819c81617c81565b9050919050565b600060208201905081810360008301526181bc81617ca4565b9050919050565b600060208201905081810360008301526181dc81617cc7565b9050919050565b600060208201905081810360008301526181fc81617cea565b9050919050565b6000602082019050818103600083015261821c81617d0d565b9050919050565b6000602082019050818103600083015261823c81617d30565b9050919050565b6000602082019050818103600083015261825c81617d53565b9050919050565b6000602082019050818103600083015261827c81617d76565b9050919050565b6000602082019050818103600083015261829c81617d99565b9050919050565b600060208201905081810360008301526182bc81617dbc565b9050919050565b600060208201905081810360008301526182dc81617ddf565b9050919050565b600060208201905081810360008301526182fd8184617e02565b905092915050565b600060208201905061831a6000830184617eeb565b92915050565b60006040820190506183356000830185617eeb565b6183426020830184617a72565b9392505050565b600060408201905061835e6000830185617eeb565b81810360208301526183708184617bdf565b90509392505050565b600060408201905061838e6000830185617eeb565b61839b6020830184617eeb565b9392505050565b60006080820190506183b76000830187617eeb565b6183c46020830186617eeb565b6183d16040830185617a72565b6183de6060830184617a72565b95945050505050565b60006060820190506183fc6000830186617eeb565b6184096020830185617eeb565b818103604083015261841b8184617bdf565b9050949350505050565b600060608201905061843a6000830186617eeb565b6184476020830185617eeb565b6184546040830184617eeb565b949350505050565b6000618466618477565b905061847282826188c9565b919050565b6000604051905090565b600067ffffffffffffffff82111561849c5761849b6189d0565b5b6184a5826189ff565b9050602081019050919050565b6000819050602082019050919050565b600081519050919050565b600081519050919050565b600081519050919050565b6000602082019050919050565b600082825260208201905092915050565b600081905092915050565b600082825260208201905092915050565b600082825260208201905092915050565b60006185398261871b565b91506185448361871b565b9250827fffffffffffffffffffffffffffffffffffffffffffffffffffffffffffffffff0382111561857957618578618943565b5b828201905092915050565b600061858f8261871b565b915061859a8361871b565b9250826185aa576185a9618972565b5b828204905092915050565b60006185c08261871b565b91506185cb8361871b565b9250817fffffffffffffffffffffffffffffffffffffffffffffffffffffffffffffffff048311821515161561860457618603618943565b5b828202905092915050565b600061861a8261871b565b91506186258361871b565b92508282101561863857618637618943565b5b828203905092915050565b600061864e826186fb565b9050919050565b60008115159050919050565b6000819050919050565b600061867682618643565b9050919050565b600061868882618643565b9050919050565b600061869a82618643565b9050919050565b60006186ac82618643565b9050919050565b60006186be82618643565b9050919050565b60006186d082618643565b9050919050565b60006186e282618643565b9050919050565b60006186f482618643565b9050919050565b600073ffffffffffffffffffffffffffffffffffffffff82169050919050565b6000819050919050565b600063ffffffff82169050919050565b600061874082618747565b9050919050565b6000618752826186fb565b9050919050565b60006187648261876b565b9050919050565b6000618776826186fb565b9050919050565b60006187888261878f565b9050919050565b600061879a826186fb565b9050919050565b60006187ac826187b3565b9050919050565b60006187be826186fb565b9050919050565b60006187d0826187d7565b9050919050565b60006187e2826186fb565b9050919050565b60006187f4826187fb565b9050919050565b6000618806826186fb565b9050919050565b60006188188261881f565b9050919050565b600061882a826186fb565b9050919050565b600061883c82618843565b9050919050565b600061884e826186fb565b9050919050565b82818337600083830152505050565b60005b83811015618882578082015181840152602081019050618867565b83811115618891576000848401525b50505050565b600060028204905060018216806188af57607f821691505b602082108114156188c3576188c26189a1565b5b50919050565b6188d2826189ff565b810181811067ffffffffffffffff821117156188f1576188f06189d0565b5b80604052505050565b60006189058261871b565b91507fffffffffffffffffffffffffffffffffffffffffffffffffffffffffffffffff82141561893857618937618943565b5b600182019050919050565b7f4e487b7100000000000000000000000000000000000000000000000000000000600052601160045260246000fd5b7f4e487b7100000000000000000000000000000000000000000000000000000000600052601260045260246000fd5b7f4e487b7100000000000000000000000000000000000000000000000000000000600052602260045260246000fd5b7f4e487b7100000000000000000000000000000000000000000000000000000000600052604160045260246000fd5b6000601f19601f8301169050919050565b7f216c697374656400000000000000000000000000000000000000000000000000600082015250565b7f2166656500000000000000000000000000000000000000000000000000000000600082015250565b7f21656d697373696f6e7300000000000000000000000000000000000000000000600082015250565b7f21636f6f6c6f6666000000000000000000000000000000000000000000000000600082015250565b7f2166696e616c6973696e67000000000000000000000000000000000000000000600082015250565b7f216d656d62657200000000000000000000000000000000000000000000000000600082015250565b7f2166756e64730000000000000000000000000000000000000000000000000000600082015250565b7f2163757261746564000000000000000000000000000000000000000000000000600082015250565b7f217472616e736665720000000000000000000000000000000000000000000000600082015250565b7f21706172616d0000000000000000000000000000000000000000000000000000600082015250565b7f21616d6f756e7400000000000000000000000000000000000000000000000000600082015250565b7f2161646472657373000000000000000000000000000000000000000000000000600082015250565b7f216f70656e000000000000000000000000000000000000000000000000000000600082015250565b7f2164617973000000000000000000000000000000000000000000000000000000600082015250565b618c5781618643565b8114618c6257600080fd5b50565b618c6e81618655565b8114618c7957600080fd5b50565b618c8581618661565b8114618c9057600080fd5b50565b618c9c8161866b565b8114618ca757600080fd5b50565b618cb38161867d565b8114618cbe57600080fd5b50565b618cca8161868f565b8114618cd557600080fd5b50565b618ce1816186a1565b8114618cec57600080fd5b50565b618cf8816186b3565b8114618d0357600080fd5b50565b618d0f816186c5565b8114618d1a57600080fd5b50565b618d26816186d7565b8114618d3157600080fd5b50565b618d3d816186e9565b8114618d4857600080fd5b50565b618d548161871b565b8114618d5f57600080fd5b50565b618d6b81618725565b8114618d7657600080fd5b5056fea264697066735822122008bfd1ebdcb78aa6622d4e92b92e07ee9a2936cafe3edf280509da9798f2596164736f6c63430008030033",
          "opcodes": "PUSH1 0x80 PUSH1 0x40 MSTORE PUSH3 0xED4E00 PUSH1 0x15 SSTORE CALLVALUE DUP1 ISZERO PUSH3 0x18 JUMPI PUSH1 0x0 DUP1 REVERT JUMPDEST POP PUSH1 0x40 MLOAD PUSH3 0x909A CODESIZE SUB DUP1 PUSH3 0x909A DUP4 CODECOPY DUP2 DUP2 ADD PUSH1 0x40 MSTORE DUP2 ADD SWAP1 PUSH3 0x3E SWAP2 SWAP1 PUSH3 0x211 JUMP JUMPDEST DUP1 PUSH1 0x1 PUSH1 0x0 PUSH2 0x100 EXP DUP2 SLOAD DUP2 PUSH20 0xFFFFFFFFFFFFFFFFFFFFFFFFFFFFFFFFFFFFFFFF MUL NOT AND SWAP1 DUP4 PUSH20 0xFFFFFFFFFFFFFFFFFFFFFFFFFFFFFFFFFFFFFFFF AND MUL OR SWAP1 SSTORE POP CALLER PUSH1 0x0 DUP1 PUSH2 0x100 EXP DUP2 SLOAD DUP2 PUSH20 0xFFFFFFFFFFFFFFFFFFFFFFFFFFFFFFFFFFFFFFFF MUL NOT AND SWAP1 DUP4 PUSH20 0xFFFFFFFFFFFFFFFFFFFFFFFFFFFFFFFFFFFFFFFF AND MUL OR SWAP1 SSTORE POP ADDRESS PUSH1 0xA PUSH1 0x1 PUSH2 0x100 EXP DUP2 SLOAD DUP2 PUSH20 0xFFFFFFFFFFFFFFFFFFFFFFFFFFFFFFFFFFFFFFFF MUL NOT AND SWAP1 DUP4 PUSH20 0xFFFFFFFFFFFFFFFFFFFFFFFFFFFFFFFFFFFFFFFF AND MUL OR SWAP1 SSTORE POP PUSH1 0x1 PUSH1 0x3 DUP2 SWAP1 SSTORE POP PUSH1 0x1E PUSH1 0x6 DUP2 SWAP1 SSTORE POP PUSH2 0x1A0A PUSH1 0x5 DUP2 SWAP1 SSTORE POP PUSH2 0x3E8 PUSH1 0x7 DUP2 SWAP1 SSTORE POP PUSH1 0x64 PUSH1 0x8 DUP2 SWAP1 SSTORE POP PUSH1 0x0 PUSH1 0x4 DUP2 SWAP1 SSTORE POP PUSH1 0x1 PUSH1 0x0 SWAP1 SLOAD SWAP1 PUSH2 0x100 EXP SWAP1 DIV PUSH20 0xFFFFFFFFFFFFFFFFFFFFFFFFFFFFFFFFFFFFFFFF AND PUSH20 0xFFFFFFFFFFFFFFFFFFFFFFFFFFFFFFFFFFFFFFFF AND PUSH4 0x6B92A3B6 PUSH1 0x40 MLOAD DUP2 PUSH4 0xFFFFFFFF AND PUSH1 0xE0 SHL DUP2 MSTORE PUSH1 0x4 ADD PUSH1 0x20 PUSH1 0x40 MLOAD DUP1 DUP4 SUB DUP2 DUP7 DUP1 EXTCODESIZE ISZERO DUP1 ISZERO PUSH3 0x19B JUMPI PUSH1 0x0 DUP1 REVERT JUMPDEST POP GAS STATICCALL ISZERO DUP1 ISZERO PUSH3 0x1B0 JUMPI RETURNDATASIZE PUSH1 0x0 DUP1 RETURNDATACOPY RETURNDATASIZE PUSH1 0x0 REVERT JUMPDEST POP POP POP POP PUSH1 0x40 MLOAD RETURNDATASIZE PUSH1 0x1F NOT PUSH1 0x1F DUP3 ADD AND DUP3 ADD DUP1 PUSH1 0x40 MSTORE POP DUP2 ADD SWAP1 PUSH3 0x1D6 SWAP2 SWAP1 PUSH3 0x23D JUMP JUMPDEST PUSH1 0x2 DUP2 SWAP1 SSTORE POP POP PUSH3 0x2DB JUMP JUMPDEST PUSH1 0x0 DUP2 MLOAD SWAP1 POP PUSH3 0x1F4 DUP2 PUSH3 0x2A7 JUMP JUMPDEST SWAP3 SWAP2 POP POP JUMP JUMPDEST PUSH1 0x0 DUP2 MLOAD SWAP1 POP PUSH3 0x20B DUP2 PUSH3 0x2C1 JUMP JUMPDEST SWAP3 SWAP2 POP POP JUMP JUMPDEST PUSH1 0x0 PUSH1 0x20 DUP3 DUP5 SUB SLT ISZERO PUSH3 0x224 JUMPI PUSH1 0x0 DUP1 REVERT JUMPDEST PUSH1 0x0 PUSH3 0x234 DUP5 DUP3 DUP6 ADD PUSH3 0x1E3 JUMP JUMPDEST SWAP2 POP POP SWAP3 SWAP2 POP POP JUMP JUMPDEST PUSH1 0x0 PUSH1 0x20 DUP3 DUP5 SUB SLT ISZERO PUSH3 0x250 JUMPI PUSH1 0x0 DUP1 REVERT JUMPDEST PUSH1 0x0 PUSH3 0x260 DUP5 DUP3 DUP6 ADD PUSH3 0x1FA JUMP JUMPDEST SWAP2 POP POP SWAP3 SWAP2 POP POP JUMP JUMPDEST PUSH1 0x0 PUSH3 0x276 DUP3 PUSH3 0x27D JUMP JUMPDEST SWAP1 POP SWAP2 SWAP1 POP JUMP JUMPDEST PUSH1 0x0 PUSH20 0xFFFFFFFFFFFFFFFFFFFFFFFFFFFFFFFFFFFFFFFF DUP3 AND SWAP1 POP SWAP2 SWAP1 POP JUMP JUMPDEST PUSH1 0x0 DUP2 SWAP1 POP SWAP2 SWAP1 POP JUMP JUMPDEST PUSH3 0x2B2 DUP2 PUSH3 0x269 JUMP JUMPDEST DUP2 EQ PUSH3 0x2BE JUMPI PUSH1 0x0 DUP1 REVERT JUMPDEST POP JUMP JUMPDEST PUSH3 0x2CC DUP2 PUSH3 0x29D JUMP JUMPDEST DUP2 EQ PUSH3 0x2D8 JUMPI PUSH1 0x0 DUP1 REVERT JUMPDEST POP JUMP JUMPDEST PUSH2 0x8DAF DUP1 PUSH3 0x2EB PUSH1 0x0 CODECOPY PUSH1 0x0 RETURN INVALID PUSH1 0x80 PUSH1 0x40 MSTORE PUSH1 0x4 CALLDATASIZE LT PUSH2 0x405 JUMPI PUSH1 0x0 CALLDATALOAD PUSH1 0xE0 SHR DUP1 PUSH4 0x8351739A GT PUSH2 0x213 JUMPI DUP1 PUSH4 0xB93EC54B GT PUSH2 0x123 JUMPI DUP1 PUSH4 0xDA35C664 GT PUSH2 0xAB JUMPI DUP1 PUSH4 0xEC342AD0 GT PUSH2 0x7A JUMPI DUP1 PUSH4 0xEC342AD0 EQ PUSH2 0x1044 JUMPI DUP1 PUSH4 0xF135DCF8 EQ PUSH2 0x106F JUMPI DUP1 PUSH4 0xF38A2FA1 EQ PUSH2 0x10AC JUMPI DUP1 PUSH4 0xF794062E EQ PUSH2 0x10E9 JUMPI DUP1 PUSH4 0xF7A79A37 EQ PUSH2 0x1126 JUMPI PUSH2 0x405 JUMP JUMPDEST DUP1 PUSH4 0xDA35C664 EQ PUSH2 0xF76 JUMPI DUP1 PUSH4 0xDAB249B3 EQ PUSH2 0xFA1 JUMPI DUP1 PUSH4 0xDB634D7C EQ PUSH2 0xFDE JUMPI DUP1 PUSH4 0xE248260C EQ PUSH2 0x1007 JUMPI PUSH2 0x405 JUMP JUMPDEST DUP1 PUSH4 0xC05FC178 GT PUSH2 0xF2 JUMPI DUP1 PUSH4 0xC05FC178 EQ PUSH2 0xE57 JUMPI DUP1 PUSH4 0xC1B8411A EQ PUSH2 0xE94 JUMPI DUP1 PUSH4 0xC42B3F7D EQ PUSH2 0xEBF JUMPI DUP1 PUSH4 0xD0AD1709 EQ PUSH2 0xEFC JUMPI DUP1 PUSH4 0xD1458363 EQ PUSH2 0xF39 JUMPI PUSH2 0x405 JUMP JUMPDEST DUP1 PUSH4 0xB93EC54B EQ PUSH2 0xD99 JUMPI DUP1 PUSH4 0xB99B0A0C EQ PUSH2 0xDC4 JUMPI DUP1 PUSH4 0xBBF8CF82 EQ PUSH2 0xDEF JUMPI DUP1 PUSH4 0xBC68FAD9 EQ PUSH2 0xE2C JUMPI PUSH2 0x405 JUMP JUMPDEST DUP1 PUSH4 0xA230C524 GT PUSH2 0x1A6 JUMPI DUP1 PUSH4 0xAB2BD8FD GT PUSH2 0x175 JUMPI DUP1 PUSH4 0xAB2BD8FD EQ PUSH2 0xCB4 JUMPI DUP1 PUSH4 0xABB6154F EQ PUSH2 0xCCB JUMPI DUP1 PUSH4 0xAE887C8B EQ PUSH2 0xCF6 JUMPI DUP1 PUSH4 0xAF045980 EQ PUSH2 0xD33 JUMPI DUP1 PUSH4 0xB8262869 EQ PUSH2 0xD5C JUMPI PUSH2 0x405 JUMP JUMPDEST DUP1 PUSH4 0xA230C524 EQ PUSH2 0xBCD JUMPI DUP1 PUSH4 0xA299ECB2 EQ PUSH2 0xC0A JUMPI DUP1 PUSH4 0xA515366A EQ PUSH2 0xC47 JUMPI DUP1 PUSH4 0xA6C83FED EQ PUSH2 0xC77 JUMPI PUSH2 0x405 JUMP JUMPDEST DUP1 PUSH4 0x956615BE GT PUSH2 0x1E2 JUMPI DUP1 PUSH4 0x956615BE EQ PUSH2 0xB23 JUMPI DUP1 PUSH4 0x98FABD3A EQ PUSH2 0xB4E JUMPI DUP1 PUSH4 0x9CD99AA2 EQ PUSH2 0xB79 JUMPI DUP1 PUSH4 0x9D2CC436 EQ PUSH2 0xBA2 JUMPI PUSH2 0x405 JUMP JUMPDEST DUP1 PUSH4 0x8351739A EQ PUSH2 0xA7B JUMPI DUP1 PUSH4 0x8601B9E6 EQ PUSH2 0xAA6 JUMPI DUP1 PUSH4 0x8BEBEA89 EQ PUSH2 0xACF JUMPI DUP1 PUSH4 0x9070577F EQ PUSH2 0xB0C JUMPI PUSH2 0x405 JUMP JUMPDEST DUP1 PUSH4 0x436F80BE GT PUSH2 0x319 JUMPI DUP1 PUSH4 0x5C120B37 GT PUSH2 0x2A1 JUMPI DUP1 PUSH4 0x6B92A3B6 GT PUSH2 0x270 JUMPI DUP1 PUSH4 0x6B92A3B6 EQ PUSH2 0x994 JUMPI DUP1 PUSH4 0x73758988 EQ PUSH2 0x9BF JUMPI DUP1 PUSH4 0x79B2DC4C EQ PUSH2 0x9E8 JUMPI DUP1 PUSH4 0x7A8C72B5 EQ PUSH2 0xA13 JUMPI DUP1 PUSH4 0x7B0E5C45 EQ PUSH2 0xA50 JUMPI PUSH2 0x405 JUMP JUMPDEST DUP1 PUSH4 0x5C120B37 EQ PUSH2 0x8C6 JUMPI DUP1 PUSH4 0x5C7366D3 EQ PUSH2 0x903 JUMPI DUP1 PUSH4 0x65C71BBF EQ PUSH2 0x940 JUMPI DUP1 PUSH4 0x68BB97B3 EQ PUSH2 0x96B JUMPI PUSH2 0x405 JUMP JUMPDEST DUP1 PUSH4 0x47E7EF24 GT PUSH2 0x2E8 JUMPI DUP1 PUSH4 0x47E7EF24 EQ PUSH2 0x7E3 JUMPI DUP1 PUSH4 0x49AA4EE2 EQ PUSH2 0x80C JUMPI DUP1 PUSH4 0x4B400034 EQ PUSH2 0x837 JUMPI DUP1 PUSH4 0x51CFF8D9 EQ PUSH2 0x874 JUMPI DUP1 PUSH4 0x572CF927 EQ PUSH2 0x89D JUMPI PUSH2 0x405 JUMP JUMPDEST DUP1 PUSH4 0x436F80BE EQ PUSH2 0x729 JUMPI DUP1 PUSH4 0x46350821 EQ PUSH2 0x766 JUMPI DUP1 PUSH4 0x4636279F EQ PUSH2 0x78F JUMPI DUP1 PUSH4 0x4641257D EQ PUSH2 0x7CC JUMPI PUSH2 0x405 JUMP JUMPDEST DUP1 PUSH4 0x2BEE1194 GT PUSH2 0x39C JUMPI DUP1 PUSH4 0x32FE7B26 GT PUSH2 0x36B JUMPI DUP1 PUSH4 0x32FE7B26 EQ PUSH2 0x62E JUMPI DUP1 PUSH4 0x35CB5FE0 EQ PUSH2 0x659 JUMPI DUP1 PUSH4 0x38DA7DD6 EQ PUSH2 0x684 JUMPI DUP1 PUSH4 0x3A61738D EQ PUSH2 0x6AF JUMPI DUP1 PUSH4 0x3B4D01A7 EQ PUSH2 0x6EC JUMPI PUSH2 0x405 JUMP JUMPDEST DUP1 PUSH4 0x2BEE1194 EQ PUSH2 0x55E JUMPI DUP1 PUSH4 0x2C07EEBF EQ PUSH2 0x59B JUMPI DUP1 PUSH4 0x2F7FA180 EQ PUSH2 0x5C6 JUMPI DUP1 PUSH4 0x314604FE EQ PUSH2 0x5F1 JUMPI PUSH2 0x405 JUMP JUMPDEST DUP1 PUSH4 0x293CEE7D GT PUSH2 0x3D8 JUMPI DUP1 PUSH4 0x293CEE7D EQ PUSH2 0x4A0 JUMPI DUP1 PUSH4 0x2957B839 EQ PUSH2 0x4DD JUMPI DUP1 PUSH4 0x2AB24E49 EQ PUSH2 0x508 JUMPI DUP1 PUSH4 0x2B49D425 EQ PUSH2 0x533 JUMPI PUSH2 0x405 JUMP JUMPDEST DUP1 PUSH4 0x3A82138 EQ PUSH2 0x40A JUMPI DUP1 PUSH4 0x11AEE380 EQ PUSH2 0x421 JUMPI DUP1 PUSH4 0x24EFB528 EQ PUSH2 0x44C JUMPI DUP1 PUSH4 0x25A7F908 EQ PUSH2 0x477 JUMPI JUMPDEST PUSH1 0x0 DUP1 REVERT JUMPDEST CALLVALUE DUP1 ISZERO PUSH2 0x416 JUMPI PUSH1 0x0 DUP1 REVERT JUMPDEST POP PUSH2 0x41F PUSH2 0x1151 JUMP JUMPDEST STOP JUMPDEST CALLVALUE DUP1 ISZERO PUSH2 0x42D JUMPI PUSH1 0x0 DUP1 REVERT JUMPDEST POP PUSH2 0x436 PUSH2 0x11EC JUMP JUMPDEST PUSH1 0x40 MLOAD PUSH2 0x443 SWAP2 SWAP1 PUSH2 0x8305 JUMP JUMPDEST PUSH1 0x40 MLOAD DUP1 SWAP2 SUB SWAP1 RETURN JUMPDEST CALLVALUE DUP1 ISZERO PUSH2 0x458 JUMPI PUSH1 0x0 DUP1 REVERT JUMPDEST POP PUSH2 0x461 PUSH2 0x11F9 JUMP JUMPDEST PUSH1 0x40 MLOAD PUSH2 0x46E SWAP2 SWAP1 PUSH2 0x800E JUMP JUMPDEST PUSH1 0x40 MLOAD DUP1 SWAP2 SUB SWAP1 RETURN JUMPDEST CALLVALUE DUP1 ISZERO PUSH2 0x483 JUMPI PUSH1 0x0 DUP1 REVERT JUMPDEST POP PUSH2 0x49E PUSH1 0x4 DUP1 CALLDATASIZE SUB DUP2 ADD SWAP1 PUSH2 0x499 SWAP2 SWAP1 PUSH2 0x76C8 JUMP JUMPDEST PUSH2 0x120C JUMP JUMPDEST STOP JUMPDEST CALLVALUE DUP1 ISZERO PUSH2 0x4AC JUMPI PUSH1 0x0 DUP1 REVERT JUMPDEST POP PUSH2 0x4C7 PUSH1 0x4 DUP1 CALLDATASIZE SUB DUP2 ADD SWAP1 PUSH2 0x4C2 SWAP2 SWAP1 PUSH2 0x7638 JUMP JUMPDEST PUSH2 0x17F4 JUMP JUMPDEST PUSH1 0x40 MLOAD PUSH2 0x4D4 SWAP2 SWAP1 PUSH2 0x8305 JUMP JUMPDEST PUSH1 0x40 MLOAD DUP1 SWAP2 SUB SWAP1 RETURN JUMPDEST CALLVALUE DUP1 ISZERO PUSH2 0x4E9 JUMPI PUSH1 0x0 DUP1 REVERT JUMPDEST POP PUSH2 0x4F2 PUSH2 0x18E1 JUMP JUMPDEST PUSH1 0x40 MLOAD PUSH2 0x4FF SWAP2 SWAP1 PUSH2 0x8305 JUMP JUMPDEST PUSH1 0x40 MLOAD DUP1 SWAP2 SUB SWAP1 RETURN JUMPDEST CALLVALUE DUP1 ISZERO PUSH2 0x514 JUMPI PUSH1 0x0 DUP1 REVERT JUMPDEST POP PUSH2 0x51D PUSH2 0x18E7 JUMP JUMPDEST PUSH1 0x40 MLOAD PUSH2 0x52A SWAP2 SWAP1 PUSH2 0x80CB JUMP JUMPDEST PUSH1 0x40 MLOAD DUP1 SWAP2 SUB SWAP1 RETURN JUMPDEST CALLVALUE DUP1 ISZERO PUSH2 0x53F JUMPI PUSH1 0x0 DUP1 REVERT JUMPDEST POP PUSH2 0x548 PUSH2 0x19CE JUMP JUMPDEST PUSH1 0x40 MLOAD PUSH2 0x555 SWAP2 SWAP1 PUSH2 0x8305 JUMP JUMPDEST PUSH1 0x40 MLOAD DUP1 SWAP2 SUB SWAP1 RETURN JUMPDEST CALLVALUE DUP1 ISZERO PUSH2 0x56A JUMPI PUSH1 0x0 DUP1 REVERT JUMPDEST POP PUSH2 0x585 PUSH1 0x4 DUP1 CALLDATASIZE SUB DUP2 ADD SWAP1 PUSH2 0x580 SWAP2 SWAP1 PUSH2 0x78F2 JUMP JUMPDEST PUSH2 0x19D4 JUMP JUMPDEST PUSH1 0x40 MLOAD PUSH2 0x592 SWAP2 SWAP1 PUSH2 0x800E JUMP JUMPDEST PUSH1 0x40 MLOAD DUP1 SWAP2 SUB SWAP1 RETURN JUMPDEST CALLVALUE DUP1 ISZERO PUSH2 0x5A7 JUMPI PUSH1 0x0 DUP1 REVERT JUMPDEST POP PUSH2 0x5B0 PUSH2 0x19F4 JUMP JUMPDEST PUSH1 0x40 MLOAD PUSH2 0x5BD SWAP2 SWAP1 PUSH2 0x8305 JUMP JUMPDEST PUSH1 0x40 MLOAD DUP1 SWAP2 SUB SWAP1 RETURN JUMPDEST CALLVALUE DUP1 ISZERO PUSH2 0x5D2 JUMPI PUSH1 0x0 DUP1 REVERT JUMPDEST POP PUSH2 0x5DB PUSH2 0x19FA JUMP JUMPDEST PUSH1 0x40 MLOAD PUSH2 0x5E8 SWAP2 SWAP1 PUSH2 0x8029 JUMP JUMPDEST PUSH1 0x40 MLOAD DUP1 SWAP2 SUB SWAP1 RETURN JUMPDEST CALLVALUE DUP1 ISZERO PUSH2 0x5FD JUMPI PUSH1 0x0 DUP1 REVERT JUMPDEST POP PUSH2 0x618 PUSH1 0x4 DUP1 CALLDATASIZE SUB DUP2 ADD SWAP1 PUSH2 0x613 SWAP2 SWAP1 PUSH2 0x78F2 JUMP JUMPDEST PUSH2 0x1AE1 JUMP JUMPDEST PUSH1 0x40 MLOAD PUSH2 0x625 SWAP2 SWAP1 PUSH2 0x8305 JUMP JUMPDEST PUSH1 0x40 MLOAD DUP1 SWAP2 SUB SWAP1 RETURN JUMPDEST CALLVALUE DUP1 ISZERO PUSH2 0x63A JUMPI PUSH1 0x0 DUP1 REVERT JUMPDEST POP PUSH2 0x643 PUSH2 0x1AF9 JUMP JUMPDEST PUSH1 0x40 MLOAD PUSH2 0x650 SWAP2 SWAP1 PUSH2 0x8095 JUMP JUMPDEST PUSH1 0x40 MLOAD DUP1 SWAP2 SUB SWAP1 RETURN JUMPDEST CALLVALUE DUP1 ISZERO PUSH2 0x665 JUMPI PUSH1 0x0 DUP1 REVERT JUMPDEST POP PUSH2 0x66E PUSH2 0x1BE0 JUMP JUMPDEST PUSH1 0x40 MLOAD PUSH2 0x67B SWAP2 SWAP1 PUSH2 0x7FEC JUMP JUMPDEST PUSH1 0x40 MLOAD DUP1 SWAP2 SUB SWAP1 RETURN JUMPDEST CALLVALUE DUP1 ISZERO PUSH2 0x690 JUMPI PUSH1 0x0 DUP1 REVERT JUMPDEST POP PUSH2 0x699 PUSH2 0x1C6E JUMP JUMPDEST PUSH1 0x40 MLOAD PUSH2 0x6A6 SWAP2 SWAP1 PUSH2 0x8044 JUMP JUMPDEST PUSH1 0x40 MLOAD DUP1 SWAP2 SUB SWAP1 RETURN JUMPDEST CALLVALUE DUP1 ISZERO PUSH2 0x6BB JUMPI PUSH1 0x0 DUP1 REVERT JUMPDEST POP PUSH2 0x6D6 PUSH1 0x4 DUP1 CALLDATASIZE SUB DUP2 ADD SWAP1 PUSH2 0x6D1 SWAP2 SWAP1 PUSH2 0x7584 JUMP JUMPDEST PUSH2 0x1D55 JUMP JUMPDEST PUSH1 0x40 MLOAD PUSH2 0x6E3 SWAP2 SWAP1 PUSH2 0x8305 JUMP JUMPDEST PUSH1 0x40 MLOAD DUP1 SWAP2 SUB SWAP1 RETURN JUMPDEST CALLVALUE DUP1 ISZERO PUSH2 0x6F8 JUMPI PUSH1 0x0 DUP1 REVERT JUMPDEST POP PUSH2 0x713 PUSH1 0x4 DUP1 CALLDATASIZE SUB DUP2 ADD SWAP1 PUSH2 0x70E SWAP2 SWAP1 PUSH2 0x78F2 JUMP JUMPDEST PUSH2 0x21BF JUMP JUMPDEST PUSH1 0x40 MLOAD PUSH2 0x720 SWAP2 SWAP1 PUSH2 0x82E3 JUMP JUMPDEST PUSH1 0x40 MLOAD DUP1 SWAP2 SUB SWAP1 RETURN JUMPDEST CALLVALUE DUP1 ISZERO PUSH2 0x735 JUMPI PUSH1 0x0 DUP1 REVERT JUMPDEST POP PUSH2 0x750 PUSH1 0x4 DUP1 CALLDATASIZE SUB DUP2 ADD SWAP1 PUSH2 0x74B SWAP2 SWAP1 PUSH2 0x78F2 JUMP JUMPDEST PUSH2 0x23EB JUMP JUMPDEST PUSH1 0x40 MLOAD PUSH2 0x75D SWAP2 SWAP1 PUSH2 0x7F11 JUMP JUMPDEST PUSH1 0x40 MLOAD DUP1 SWAP2 SUB SWAP1 RETURN JUMPDEST CALLVALUE DUP1 ISZERO PUSH2 0x772 JUMPI PUSH1 0x0 DUP1 REVERT JUMPDEST POP PUSH2 0x78D PUSH1 0x4 DUP1 CALLDATASIZE SUB DUP2 ADD SWAP1 PUSH2 0x788 SWAP2 SWAP1 PUSH2 0x75AD JUMP JUMPDEST PUSH2 0x242A JUMP JUMPDEST STOP JUMPDEST CALLVALUE DUP1 ISZERO PUSH2 0x79B JUMPI PUSH1 0x0 DUP1 REVERT JUMPDEST POP PUSH2 0x7B6 PUSH1 0x4 DUP1 CALLDATASIZE SUB DUP2 ADD SWAP1 PUSH2 0x7B1 SWAP2 SWAP1 PUSH2 0x7584 JUMP JUMPDEST PUSH2 0x2508 JUMP JUMPDEST PUSH1 0x40 MLOAD PUSH2 0x7C3 SWAP2 SWAP1 PUSH2 0x8305 JUMP JUMPDEST PUSH1 0x40 MLOAD DUP1 SWAP2 SUB SWAP1 RETURN JUMPDEST CALLVALUE DUP1 ISZERO PUSH2 0x7D8 JUMPI PUSH1 0x0 DUP1 REVERT JUMPDEST POP PUSH2 0x7E1 PUSH2 0x261A JUMP JUMPDEST STOP JUMPDEST CALLVALUE DUP1 ISZERO PUSH2 0x7EF JUMPI PUSH1 0x0 DUP1 REVERT JUMPDEST POP PUSH2 0x80A PUSH1 0x4 DUP1 CALLDATASIZE SUB DUP2 ADD SWAP1 PUSH2 0x805 SWAP2 SWAP1 PUSH2 0x768C JUMP JUMPDEST PUSH2 0x28DC JUMP JUMPDEST STOP JUMPDEST CALLVALUE DUP1 ISZERO PUSH2 0x818 JUMPI PUSH1 0x0 DUP1 REVERT JUMPDEST POP PUSH2 0x821 PUSH2 0x28EB JUMP JUMPDEST PUSH1 0x40 MLOAD PUSH2 0x82E SWAP2 SWAP1 PUSH2 0x8305 JUMP JUMPDEST PUSH1 0x40 MLOAD DUP1 SWAP2 SUB SWAP1 RETURN JUMPDEST CALLVALUE DUP1 ISZERO PUSH2 0x843 JUMPI PUSH1 0x0 DUP1 REVERT JUMPDEST POP PUSH2 0x85E PUSH1 0x4 DUP1 CALLDATASIZE SUB DUP2 ADD SWAP1 PUSH2 0x859 SWAP2 SWAP1 PUSH2 0x78F2 JUMP JUMPDEST PUSH2 0x2AFE JUMP JUMPDEST PUSH1 0x40 MLOAD PUSH2 0x86B SWAP2 SWAP1 PUSH2 0x800E JUMP JUMPDEST PUSH1 0x40 MLOAD DUP1 SWAP2 SUB SWAP1 RETURN JUMPDEST CALLVALUE DUP1 ISZERO PUSH2 0x880 JUMPI PUSH1 0x0 DUP1 REVERT JUMPDEST POP PUSH2 0x89B PUSH1 0x4 DUP1 CALLDATASIZE SUB DUP2 ADD SWAP1 PUSH2 0x896 SWAP2 SWAP1 PUSH2 0x7584 JUMP JUMPDEST PUSH2 0x2B1E JUMP JUMPDEST STOP JUMPDEST CALLVALUE DUP1 ISZERO PUSH2 0x8A9 JUMPI PUSH1 0x0 DUP1 REVERT JUMPDEST POP PUSH2 0x8C4 PUSH1 0x4 DUP1 CALLDATASIZE SUB DUP2 ADD SWAP1 PUSH2 0x8BF SWAP2 SWAP1 PUSH2 0x79D4 JUMP JUMPDEST PUSH2 0x2C18 JUMP JUMPDEST STOP JUMPDEST CALLVALUE DUP1 ISZERO PUSH2 0x8D2 JUMPI PUSH1 0x0 DUP1 REVERT JUMPDEST POP PUSH2 0x8ED PUSH1 0x4 DUP1 CALLDATASIZE SUB DUP2 ADD SWAP1 PUSH2 0x8E8 SWAP2 SWAP1 PUSH2 0x78F2 JUMP JUMPDEST PUSH2 0x2CB8 JUMP JUMPDEST PUSH1 0x40 MLOAD PUSH2 0x8FA SWAP2 SWAP1 PUSH2 0x800E JUMP JUMPDEST PUSH1 0x40 MLOAD DUP1 SWAP2 SUB SWAP1 RETURN JUMPDEST CALLVALUE DUP1 ISZERO PUSH2 0x90F JUMPI PUSH1 0x0 DUP1 REVERT JUMPDEST POP PUSH2 0x92A PUSH1 0x4 DUP1 CALLDATASIZE SUB DUP2 ADD SWAP1 PUSH2 0x925 SWAP2 SWAP1 PUSH2 0x7584 JUMP JUMPDEST PUSH2 0x2E5F JUMP JUMPDEST PUSH1 0x40 MLOAD PUSH2 0x937 SWAP2 SWAP1 PUSH2 0x8305 JUMP JUMPDEST PUSH1 0x40 MLOAD DUP1 SWAP2 SUB SWAP1 RETURN JUMPDEST CALLVALUE DUP1 ISZERO PUSH2 0x94C JUMPI PUSH1 0x0 DUP1 REVERT JUMPDEST POP PUSH2 0x955 PUSH2 0x2E77 JUMP JUMPDEST PUSH1 0x40 MLOAD PUSH2 0x962 SWAP2 SWAP1 PUSH2 0x8305 JUMP JUMPDEST PUSH1 0x40 MLOAD DUP1 SWAP2 SUB SWAP1 RETURN JUMPDEST CALLVALUE DUP1 ISZERO PUSH2 0x977 JUMPI PUSH1 0x0 DUP1 REVERT JUMPDEST POP PUSH2 0x992 PUSH1 0x4 DUP1 CALLDATASIZE SUB DUP2 ADD SWAP1 PUSH2 0x98D SWAP2 SWAP1 PUSH2 0x7584 JUMP JUMPDEST PUSH2 0x2E7D JUMP JUMPDEST STOP JUMPDEST CALLVALUE DUP1 ISZERO PUSH2 0x9A0 JUMPI PUSH1 0x0 DUP1 REVERT JUMPDEST POP PUSH2 0x9A9 PUSH2 0x3038 JUMP JUMPDEST PUSH1 0x40 MLOAD PUSH2 0x9B6 SWAP2 SWAP1 PUSH2 0x8305 JUMP JUMPDEST PUSH1 0x40 MLOAD DUP1 SWAP2 SUB SWAP1 RETURN JUMPDEST CALLVALUE DUP1 ISZERO PUSH2 0x9CB JUMPI PUSH1 0x0 DUP1 REVERT JUMPDEST POP PUSH2 0x9E6 PUSH1 0x4 DUP1 CALLDATASIZE SUB DUP2 ADD SWAP1 PUSH2 0x9E1 SWAP2 SWAP1 PUSH2 0x75E9 JUMP JUMPDEST PUSH2 0x303E JUMP JUMPDEST STOP JUMPDEST CALLVALUE DUP1 ISZERO PUSH2 0x9F4 JUMPI PUSH1 0x0 DUP1 REVERT JUMPDEST POP PUSH2 0x9FD PUSH2 0x315E JUMP JUMPDEST PUSH1 0x40 MLOAD PUSH2 0xA0A SWAP2 SWAP1 PUSH2 0x8305 JUMP JUMPDEST PUSH1 0x40 MLOAD DUP1 SWAP2 SUB SWAP1 RETURN JUMPDEST CALLVALUE DUP1 ISZERO PUSH2 0xA1F JUMPI PUSH1 0x0 DUP1 REVERT JUMPDEST POP PUSH2 0xA3A PUSH1 0x4 DUP1 CALLDATASIZE SUB DUP2 ADD SWAP1 PUSH2 0xA35 SWAP2 SWAP1 PUSH2 0x7584 JUMP JUMPDEST PUSH2 0x3164 JUMP JUMPDEST PUSH1 0x40 MLOAD PUSH2 0xA47 SWAP2 SWAP1 PUSH2 0x800E JUMP JUMPDEST PUSH1 0x40 MLOAD DUP1 SWAP2 SUB SWAP1 RETURN JUMPDEST CALLVALUE DUP1 ISZERO PUSH2 0xA5C JUMPI PUSH1 0x0 DUP1 REVERT JUMPDEST POP PUSH2 0xA65 PUSH2 0x3342 JUMP JUMPDEST PUSH1 0x40 MLOAD PUSH2 0xA72 SWAP2 SWAP1 PUSH2 0x80E6 JUMP JUMPDEST PUSH1 0x40 MLOAD DUP1 SWAP2 SUB SWAP1 RETURN JUMPDEST CALLVALUE DUP1 ISZERO PUSH2 0xA87 JUMPI PUSH1 0x0 DUP1 REVERT JUMPDEST POP PUSH2 0xA90 PUSH2 0x3429 JUMP JUMPDEST PUSH1 0x40 MLOAD PUSH2 0xA9D SWAP2 SWAP1 PUSH2 0x8305 JUMP JUMPDEST PUSH1 0x40 MLOAD DUP1 SWAP2 SUB SWAP1 RETURN JUMPDEST CALLVALUE DUP1 ISZERO PUSH2 0xAB2 JUMPI PUSH1 0x0 DUP1 REVERT JUMPDEST POP PUSH2 0xACD PUSH1 0x4 DUP1 CALLDATASIZE SUB DUP2 ADD SWAP1 PUSH2 0xAC8 SWAP2 SWAP1 PUSH2 0x75E9 JUMP JUMPDEST PUSH2 0x3846 JUMP JUMPDEST STOP JUMPDEST CALLVALUE DUP1 ISZERO PUSH2 0xADB JUMPI PUSH1 0x0 DUP1 REVERT JUMPDEST POP PUSH2 0xAF6 PUSH1 0x4 DUP1 CALLDATASIZE SUB DUP2 ADD SWAP1 PUSH2 0xAF1 SWAP2 SWAP1 PUSH2 0x78F2 JUMP JUMPDEST PUSH2 0x3966 JUMP JUMPDEST PUSH1 0x40 MLOAD PUSH2 0xB03 SWAP2 SWAP1 PUSH2 0x800E JUMP JUMPDEST PUSH1 0x40 MLOAD DUP1 SWAP2 SUB SWAP1 RETURN JUMPDEST CALLVALUE DUP1 ISZERO PUSH2 0xB18 JUMPI PUSH1 0x0 DUP1 REVERT JUMPDEST POP PUSH2 0xB21 PUSH2 0x3985 JUMP JUMPDEST STOP JUMPDEST CALLVALUE DUP1 ISZERO PUSH2 0xB2F JUMPI PUSH1 0x0 DUP1 REVERT JUMPDEST POP PUSH2 0xB38 PUSH2 0x3B52 JUMP JUMPDEST PUSH1 0x40 MLOAD PUSH2 0xB45 SWAP2 SWAP1 PUSH2 0x8305 JUMP JUMPDEST PUSH1 0x40 MLOAD DUP1 SWAP2 SUB SWAP1 RETURN JUMPDEST CALLVALUE DUP1 ISZERO PUSH2 0xB5A JUMPI PUSH1 0x0 DUP1 REVERT JUMPDEST POP PUSH2 0xB63 PUSH2 0x3B58 JUMP JUMPDEST PUSH1 0x40 MLOAD PUSH2 0xB70 SWAP2 SWAP1 PUSH2 0x7F11 JUMP JUMPDEST PUSH1 0x40 MLOAD DUP1 SWAP2 SUB SWAP1 RETURN JUMPDEST CALLVALUE DUP1 ISZERO PUSH2 0xB85 JUMPI PUSH1 0x0 DUP1 REVERT JUMPDEST POP PUSH2 0xBA0 PUSH1 0x4 DUP1 CALLDATASIZE SUB DUP2 ADD SWAP1 PUSH2 0xB9B SWAP2 SWAP1 PUSH2 0x7584 JUMP JUMPDEST PUSH2 0x3B7E JUMP JUMPDEST STOP JUMPDEST CALLVALUE DUP1 ISZERO PUSH2 0xBAE JUMPI PUSH1 0x0 DUP1 REVERT JUMPDEST POP PUSH2 0xBB7 PUSH2 0x3D40 JUMP JUMPDEST PUSH1 0x40 MLOAD PUSH2 0xBC4 SWAP2 SWAP1 PUSH2 0x807A JUMP JUMPDEST PUSH1 0x40 MLOAD DUP1 SWAP2 SUB SWAP1 RETURN JUMPDEST CALLVALUE DUP1 ISZERO PUSH2 0xBD9 JUMPI PUSH1 0x0 DUP1 REVERT JUMPDEST POP PUSH2 0xBF4 PUSH1 0x4 DUP1 CALLDATASIZE SUB DUP2 ADD SWAP1 PUSH2 0xBEF SWAP2 SWAP1 PUSH2 0x7584 JUMP JUMPDEST PUSH2 0x3E27 JUMP JUMPDEST PUSH1 0x40 MLOAD PUSH2 0xC01 SWAP2 SWAP1 PUSH2 0x800E JUMP JUMPDEST PUSH1 0x40 MLOAD DUP1 SWAP2 SUB SWAP1 RETURN JUMPDEST CALLVALUE DUP1 ISZERO PUSH2 0xC16 JUMPI PUSH1 0x0 DUP1 REVERT JUMPDEST POP PUSH2 0xC31 PUSH1 0x4 DUP1 CALLDATASIZE SUB DUP2 ADD SWAP1 PUSH2 0xC2C SWAP2 SWAP1 PUSH2 0x78F2 JUMP JUMPDEST PUSH2 0x3E47 JUMP JUMPDEST PUSH1 0x40 MLOAD PUSH2 0xC3E SWAP2 SWAP1 PUSH2 0x8305 JUMP JUMPDEST PUSH1 0x40 MLOAD DUP1 SWAP2 SUB SWAP1 RETURN JUMPDEST PUSH2 0xC61 PUSH1 0x4 DUP1 CALLDATASIZE SUB DUP2 ADD SWAP1 PUSH2 0xC5C SWAP2 SWAP1 PUSH2 0x768C JUMP JUMPDEST PUSH2 0x3E5F JUMP JUMPDEST PUSH1 0x40 MLOAD PUSH2 0xC6E SWAP2 SWAP1 PUSH2 0x800E JUMP JUMPDEST PUSH1 0x40 MLOAD DUP1 SWAP2 SUB SWAP1 RETURN JUMPDEST CALLVALUE DUP1 ISZERO PUSH2 0xC83 JUMPI PUSH1 0x0 DUP1 REVERT JUMPDEST POP PUSH2 0xC9E PUSH1 0x4 DUP1 CALLDATASIZE SUB DUP2 ADD SWAP1 PUSH2 0xC99 SWAP2 SWAP1 PUSH2 0x768C JUMP JUMPDEST PUSH2 0x42F2 JUMP JUMPDEST PUSH1 0x40 MLOAD PUSH2 0xCAB SWAP2 SWAP1 PUSH2 0x8305 JUMP JUMPDEST PUSH1 0x40 MLOAD DUP1 SWAP2 SUB SWAP1 RETURN JUMPDEST CALLVALUE DUP1 ISZERO PUSH2 0xCC0 JUMPI PUSH1 0x0 DUP1 REVERT JUMPDEST POP PUSH2 0xCC9 PUSH2 0x4434 JUMP JUMPDEST STOP JUMPDEST CALLVALUE DUP1 ISZERO PUSH2 0xCD7 JUMPI PUSH1 0x0 DUP1 REVERT JUMPDEST POP PUSH2 0xCE0 PUSH2 0x4A35 JUMP JUMPDEST PUSH1 0x40 MLOAD PUSH2 0xCED SWAP2 SWAP1 PUSH2 0x8305 JUMP JUMPDEST PUSH1 0x40 MLOAD DUP1 SWAP2 SUB SWAP1 RETURN JUMPDEST CALLVALUE DUP1 ISZERO PUSH2 0xD02 JUMPI PUSH1 0x0 DUP1 REVERT JUMPDEST POP PUSH2 0xD1D PUSH1 0x4 DUP1 CALLDATASIZE SUB DUP2 ADD SWAP1 PUSH2 0xD18 SWAP2 SWAP1 PUSH2 0x78F2 JUMP JUMPDEST PUSH2 0x4A3B JUMP JUMPDEST PUSH1 0x40 MLOAD PUSH2 0xD2A SWAP2 SWAP1 PUSH2 0x7F11 JUMP JUMPDEST PUSH1 0x40 MLOAD DUP1 SWAP2 SUB SWAP1 RETURN JUMPDEST CALLVALUE DUP1 ISZERO PUSH2 0xD3F JUMPI PUSH1 0x0 DUP1 REVERT JUMPDEST POP PUSH2 0xD5A PUSH1 0x4 DUP1 CALLDATASIZE SUB DUP2 ADD SWAP1 PUSH2 0xD55 SWAP2 SWAP1 PUSH2 0x78F2 JUMP JUMPDEST PUSH2 0x4A6E JUMP JUMPDEST STOP JUMPDEST CALLVALUE DUP1 ISZERO PUSH2 0xD68 JUMPI PUSH1 0x0 DUP1 REVERT JUMPDEST POP PUSH2 0xD83 PUSH1 0x4 DUP1 CALLDATASIZE SUB DUP2 ADD SWAP1 PUSH2 0xD7E SWAP2 SWAP1 PUSH2 0x78F2 JUMP JUMPDEST PUSH2 0x4AD0 JUMP JUMPDEST PUSH1 0x40 MLOAD PUSH2 0xD90 SWAP2 SWAP1 PUSH2 0x8305 JUMP JUMPDEST PUSH1 0x40 MLOAD DUP1 SWAP2 SUB SWAP1 RETURN JUMPDEST CALLVALUE DUP1 ISZERO PUSH2 0xDA5 JUMPI PUSH1 0x0 DUP1 REVERT JUMPDEST POP PUSH2 0xDAE PUSH2 0x4AE8 JUMP JUMPDEST PUSH1 0x40 MLOAD PUSH2 0xDBB SWAP2 SWAP1 PUSH2 0x80B0 JUMP JUMPDEST PUSH1 0x40 MLOAD DUP1 SWAP2 SUB SWAP1 RETURN JUMPDEST CALLVALUE DUP1 ISZERO PUSH2 0xDD0 JUMPI PUSH1 0x0 DUP1 REVERT JUMPDEST POP PUSH2 0xDD9 PUSH2 0x4BCF JUMP JUMPDEST PUSH1 0x40 MLOAD PUSH2 0xDE6 SWAP2 SWAP1 PUSH2 0x805F JUMP JUMPDEST PUSH1 0x40 MLOAD DUP1 SWAP2 SUB SWAP1 RETURN JUMPDEST CALLVALUE DUP1 ISZERO PUSH2 0xDFB JUMPI PUSH1 0x0 DUP1 REVERT JUMPDEST POP PUSH2 0xE16 PUSH1 0x4 DUP1 CALLDATASIZE SUB DUP2 ADD SWAP1 PUSH2 0xE11 SWAP2 SWAP1 PUSH2 0x78F2 JUMP JUMPDEST PUSH2 0x4CB6 JUMP JUMPDEST PUSH1 0x40 MLOAD PUSH2 0xE23 SWAP2 SWAP1 PUSH2 0x800E JUMP JUMPDEST PUSH1 0x40 MLOAD DUP1 SWAP2 SUB SWAP1 RETURN JUMPDEST CALLVALUE DUP1 ISZERO PUSH2 0xE38 JUMPI PUSH1 0x0 DUP1 REVERT JUMPDEST POP PUSH2 0xE41 PUSH2 0x4E4F JUMP JUMPDEST PUSH1 0x40 MLOAD PUSH2 0xE4E SWAP2 SWAP1 PUSH2 0x800E JUMP JUMPDEST PUSH1 0x40 MLOAD DUP1 SWAP2 SUB SWAP1 RETURN JUMPDEST CALLVALUE DUP1 ISZERO PUSH2 0xE63 JUMPI PUSH1 0x0 DUP1 REVERT JUMPDEST POP PUSH2 0xE7E PUSH1 0x4 DUP1 CALLDATASIZE SUB DUP2 ADD SWAP1 PUSH2 0xE79 SWAP2 SWAP1 PUSH2 0x78F2 JUMP JUMPDEST PUSH2 0x4FEE JUMP JUMPDEST PUSH1 0x40 MLOAD PUSH2 0xE8B SWAP2 SWAP1 PUSH2 0x8101 JUMP JUMPDEST PUSH1 0x40 MLOAD DUP1 SWAP2 SUB SWAP1 RETURN JUMPDEST CALLVALUE DUP1 ISZERO PUSH2 0xEA0 JUMPI PUSH1 0x0 DUP1 REVERT JUMPDEST POP PUSH2 0xEA9 PUSH2 0x508E JUMP JUMPDEST PUSH1 0x40 MLOAD PUSH2 0xEB6 SWAP2 SWAP1 PUSH2 0x7F11 JUMP JUMPDEST PUSH1 0x40 MLOAD DUP1 SWAP2 SUB SWAP1 RETURN JUMPDEST CALLVALUE DUP1 ISZERO PUSH2 0xECB JUMPI PUSH1 0x0 DUP1 REVERT JUMPDEST POP PUSH2 0xEE6 PUSH1 0x4 DUP1 CALLDATASIZE SUB DUP2 ADD SWAP1 PUSH2 0xEE1 SWAP2 SWAP1 PUSH2 0x7944 JUMP JUMPDEST PUSH2 0x50B2 JUMP JUMPDEST PUSH1 0x40 MLOAD PUSH2 0xEF3 SWAP2 SWAP1 PUSH2 0x8305 JUMP JUMPDEST PUSH1 0x40 MLOAD DUP1 SWAP2 SUB SWAP1 RETURN JUMPDEST CALLVALUE DUP1 ISZERO PUSH2 0xF08 JUMPI PUSH1 0x0 DUP1 REVERT JUMPDEST POP PUSH2 0xF23 PUSH1 0x4 DUP1 CALLDATASIZE SUB DUP2 ADD SWAP1 PUSH2 0xF1E SWAP2 SWAP1 PUSH2 0x78F2 JUMP JUMPDEST PUSH2 0x50D7 JUMP JUMPDEST PUSH1 0x40 MLOAD PUSH2 0xF30 SWAP2 SWAP1 PUSH2 0x800E JUMP JUMPDEST PUSH1 0x40 MLOAD DUP1 SWAP2 SUB SWAP1 RETURN JUMPDEST CALLVALUE DUP1 ISZERO PUSH2 0xF45 JUMPI PUSH1 0x0 DUP1 REVERT JUMPDEST POP PUSH2 0xF60 PUSH1 0x4 DUP1 CALLDATASIZE SUB DUP2 ADD SWAP1 PUSH2 0xF5B SWAP2 SWAP1 PUSH2 0x78B1 JUMP JUMPDEST PUSH2 0x5270 JUMP JUMPDEST PUSH1 0x40 MLOAD PUSH2 0xF6D SWAP2 SWAP1 PUSH2 0x8305 JUMP JUMPDEST PUSH1 0x40 MLOAD DUP1 SWAP2 SUB SWAP1 RETURN JUMPDEST CALLVALUE DUP1 ISZERO PUSH2 0xF82 JUMPI PUSH1 0x0 DUP1 REVERT JUMPDEST POP PUSH2 0xF8B PUSH2 0x5308 JUMP JUMPDEST PUSH1 0x40 MLOAD PUSH2 0xF98 SWAP2 SWAP1 PUSH2 0x8305 JUMP JUMPDEST PUSH1 0x40 MLOAD DUP1 SWAP2 SUB SWAP1 RETURN JUMPDEST CALLVALUE DUP1 ISZERO PUSH2 0xFAD JUMPI PUSH1 0x0 DUP1 REVERT JUMPDEST POP PUSH2 0xFC8 PUSH1 0x4 DUP1 CALLDATASIZE SUB DUP2 ADD SWAP1 PUSH2 0xFC3 SWAP2 SWAP1 PUSH2 0x78F2 JUMP JUMPDEST PUSH2 0x530E JUMP JUMPDEST PUSH1 0x40 MLOAD PUSH2 0xFD5 SWAP2 SWAP1 PUSH2 0x8305 JUMP JUMPDEST PUSH1 0x40 MLOAD DUP1 SWAP2 SUB SWAP1 RETURN JUMPDEST CALLVALUE DUP1 ISZERO PUSH2 0xFEA JUMPI PUSH1 0x0 DUP1 REVERT JUMPDEST POP PUSH2 0x1005 PUSH1 0x4 DUP1 CALLDATASIZE SUB DUP2 ADD SWAP1 PUSH2 0x1000 SWAP2 SWAP1 PUSH2 0x7584 JUMP JUMPDEST PUSH2 0x5326 JUMP JUMPDEST STOP JUMPDEST CALLVALUE DUP1 ISZERO PUSH2 0x1013 JUMPI PUSH1 0x0 DUP1 REVERT JUMPDEST POP PUSH2 0x102E PUSH1 0x4 DUP1 CALLDATASIZE SUB DUP2 ADD SWAP1 PUSH2 0x1029 SWAP2 SWAP1 PUSH2 0x7584 JUMP JUMPDEST PUSH2 0x5433 JUMP JUMPDEST PUSH1 0x40 MLOAD PUSH2 0x103B SWAP2 SWAP1 PUSH2 0x800E JUMP JUMPDEST PUSH1 0x40 MLOAD DUP1 SWAP2 SUB SWAP1 RETURN JUMPDEST CALLVALUE DUP1 ISZERO PUSH2 0x1050 JUMPI PUSH1 0x0 DUP1 REVERT JUMPDEST POP PUSH2 0x1059 PUSH2 0x54E5 JUMP JUMPDEST PUSH1 0x40 MLOAD PUSH2 0x1066 SWAP2 SWAP1 PUSH2 0x7F11 JUMP JUMPDEST PUSH1 0x40 MLOAD DUP1 SWAP2 SUB SWAP1 RETURN JUMPDEST CALLVALUE DUP1 ISZERO PUSH2 0x107B JUMPI PUSH1 0x0 DUP1 REVERT JUMPDEST POP PUSH2 0x1096 PUSH1 0x4 DUP1 CALLDATASIZE SUB DUP2 ADD SWAP1 PUSH2 0x1091 SWAP2 SWAP1 PUSH2 0x75AD JUMP JUMPDEST PUSH2 0x550B JUMP JUMPDEST PUSH1 0x40 MLOAD PUSH2 0x10A3 SWAP2 SWAP1 PUSH2 0x8305 JUMP JUMPDEST PUSH1 0x40 MLOAD DUP1 SWAP2 SUB SWAP1 RETURN JUMPDEST CALLVALUE DUP1 ISZERO PUSH2 0x10B8 JUMPI PUSH1 0x0 DUP1 REVERT JUMPDEST POP PUSH2 0x10D3 PUSH1 0x4 DUP1 CALLDATASIZE SUB DUP2 ADD SWAP1 PUSH2 0x10CE SWAP2 SWAP1 PUSH2 0x7980 JUMP JUMPDEST PUSH2 0x55C9 JUMP JUMPDEST PUSH1 0x40 MLOAD PUSH2 0x10E0 SWAP2 SWAP1 PUSH2 0x8305 JUMP JUMPDEST PUSH1 0x40 MLOAD DUP1 SWAP2 SUB SWAP1 RETURN JUMPDEST CALLVALUE DUP1 ISZERO PUSH2 0x10F5 JUMPI PUSH1 0x0 DUP1 REVERT JUMPDEST POP PUSH2 0x1110 PUSH1 0x4 DUP1 CALLDATASIZE SUB DUP2 ADD SWAP1 PUSH2 0x110B SWAP2 SWAP1 PUSH2 0x7584 JUMP JUMPDEST PUSH2 0x5682 JUMP JUMPDEST PUSH1 0x40 MLOAD PUSH2 0x111D SWAP2 SWAP1 PUSH2 0x800E JUMP JUMPDEST PUSH1 0x40 MLOAD DUP1 SWAP2 SUB SWAP1 RETURN JUMPDEST CALLVALUE DUP1 ISZERO PUSH2 0x1132 JUMPI PUSH1 0x0 DUP1 REVERT JUMPDEST POP PUSH2 0x113B PUSH2 0x56A2 JUMP JUMPDEST PUSH1 0x40 MLOAD PUSH2 0x1148 SWAP2 SWAP1 PUSH2 0x8305 JUMP JUMPDEST PUSH1 0x40 MLOAD DUP1 SWAP2 SUB SWAP1 RETURN JUMPDEST PUSH1 0x0 DUP1 SLOAD SWAP1 PUSH2 0x100 EXP SWAP1 DIV PUSH20 0xFFFFFFFFFFFFFFFFFFFFFFFFFFFFFFFFFFFFFFFF AND PUSH20 0xFFFFFFFFFFFFFFFFFFFFFFFFFFFFFFFFFFFFFFFF AND CALLER PUSH20 0xFFFFFFFFFFFFFFFFFFFFFFFFFFFFFFFFFFFFFFFF AND EQ PUSH2 0x11A9 JUMPI PUSH1 0x0 DUP1 REVERT JUMPDEST PUSH1 0x0 DUP1 PUSH1 0x0 PUSH2 0x100 EXP DUP2 SLOAD DUP2 PUSH20 0xFFFFFFFFFFFFFFFFFFFFFFFFFFFFFFFFFFFFFFFF MUL NOT AND SWAP1 DUP4 PUSH20 0xFFFFFFFFFFFFFFFFFFFFFFFFFFFFFFFFFFFFFFFF AND MUL OR SWAP1 SSTORE POP JUMP JUMPDEST PUSH1 0x0 PUSH1 0x13 DUP1 SLOAD SWAP1 POP SWAP1 POP SWAP1 JUMP JUMPDEST PUSH1 0xA PUSH1 0x0 SWAP1 SLOAD SWAP1 PUSH2 0x100 EXP SWAP1 DIV PUSH1 0xFF AND DUP2 JUMP JUMPDEST PUSH1 0x1 ISZERO ISZERO PUSH1 0xF PUSH1 0x0 SWAP1 SLOAD SWAP1 PUSH2 0x100 EXP SWAP1 DIV PUSH20 0xFFFFFFFFFFFFFFFFFFFFFFFFFFFFFFFFFFFFFFFF AND PUSH20 0xFFFFFFFFFFFFFFFFFFFFFFFFFFFFFFFFFFFFFFFF AND PUSH4 0x8DCB4C93 DUP6 PUSH1 0x40 MLOAD DUP3 PUSH4 0xFFFFFFFF AND PUSH1 0xE0 SHL DUP2 MSTORE PUSH1 0x4 ADD PUSH2 0x126B SWAP2 SWAP1 PUSH2 0x7F11 JUMP JUMPDEST PUSH1 0x20 PUSH1 0x40 MLOAD DUP1 DUP4 SUB DUP2 DUP7 DUP1 EXTCODESIZE ISZERO DUP1 ISZERO PUSH2 0x1283 JUMPI PUSH1 0x0 DUP1 REVERT JUMPDEST POP GAS STATICCALL ISZERO DUP1 ISZERO PUSH2 0x1297 JUMPI RETURNDATASIZE PUSH1 0x0 DUP1 RETURNDATACOPY RETURNDATASIZE PUSH1 0x0 REVERT JUMPDEST POP POP POP POP PUSH1 0x40 MLOAD RETURNDATASIZE PUSH1 0x1F NOT PUSH1 0x1F DUP3 ADD AND DUP3 ADD DUP1 PUSH1 0x40 MSTORE POP DUP2 ADD SWAP1 PUSH2 0x12BB SWAP2 SWAP1 PUSH2 0x7717 JUMP JUMPDEST ISZERO ISZERO EQ PUSH2 0x12FD JUMPI PUSH1 0x40 MLOAD PUSH32 0x8C379A000000000000000000000000000000000000000000000000000000000 DUP2 MSTORE PUSH1 0x4 ADD PUSH2 0x12F4 SWAP1 PUSH2 0x8203 JUMP JUMPDEST PUSH1 0x40 MLOAD DUP1 SWAP2 SUB SWAP1 REVERT JUMPDEST PUSH1 0x0 DUP3 GT PUSH2 0x1340 JUMPI PUSH1 0x40 MLOAD PUSH32 0x8C379A000000000000000000000000000000000000000000000000000000000 DUP2 MSTORE PUSH1 0x4 ADD PUSH2 0x1337 SWAP1 PUSH2 0x8263 JUMP JUMPDEST PUSH1 0x40 MLOAD DUP1 SWAP2 SUB SWAP1 REVERT JUMPDEST PUSH1 0x1 ISZERO ISZERO PUSH1 0x16 PUSH1 0x0 DUP4 PUSH20 0xFFFFFFFFFFFFFFFFFFFFFFFFFFFFFFFFFFFFFFFF AND PUSH20 0xFFFFFFFFFFFFFFFFFFFFFFFFFFFFFFFFFFFFFFFF AND DUP2 MSTORE PUSH1 0x20 ADD SWAP1 DUP2 MSTORE PUSH1 0x20 ADD PUSH1 0x0 KECCAK256 PUSH1 0x0 SWAP1 SLOAD SWAP1 PUSH2 0x100 EXP SWAP1 DIV PUSH1 0xFF AND ISZERO ISZERO EQ PUSH2 0x1454 JUMPI PUSH1 0x13 DUP2 SWAP1 DUP1 PUSH1 0x1 DUP2 SLOAD ADD DUP1 DUP3 SSTORE DUP1 SWAP2 POP POP PUSH1 0x1 SWAP1 SUB SWAP1 PUSH1 0x0 MSTORE PUSH1 0x20 PUSH1 0x0 KECCAK256 ADD PUSH1 0x0 SWAP1 SWAP2 SWAP1 SWAP2 SWAP1 SWAP2 PUSH2 0x100 EXP DUP2 SLOAD DUP2 PUSH20 0xFFFFFFFFFFFFFFFFFFFFFFFFFFFFFFFFFFFFFFFF MUL NOT AND SWAP1 DUP4 PUSH20 0xFFFFFFFFFFFFFFFFFFFFFFFFFFFFFFFFFFFFFFFF AND MUL OR SWAP1 SSTORE POP PUSH1 0x1 PUSH1 0x16 PUSH1 0x0 DUP4 PUSH20 0xFFFFFFFFFFFFFFFFFFFFFFFFFFFFFFFFFFFFFFFF AND PUSH20 0xFFFFFFFFFFFFFFFFFFFFFFFFFFFFFFFFFFFFFFFF AND DUP2 MSTORE PUSH1 0x20 ADD SWAP1 DUP2 MSTORE PUSH1 0x20 ADD PUSH1 0x0 KECCAK256 PUSH1 0x0 PUSH2 0x100 EXP DUP2 SLOAD DUP2 PUSH1 0xFF MUL NOT AND SWAP1 DUP4 ISZERO ISZERO MUL OR SWAP1 SSTORE POP JUMPDEST PUSH1 0x0 PUSH1 0xD PUSH1 0x0 SWAP1 SLOAD SWAP1 PUSH2 0x100 EXP SWAP1 DIV PUSH20 0xFFFFFFFFFFFFFFFFFFFFFFFFFFFFFFFFFFFFFFFF AND PUSH20 0xFFFFFFFFFFFFFFFFFFFFFFFFFFFFFFFFFFFFFFFF AND PUSH4 0x5364DF49 DUP4 PUSH1 0x40 MLOAD DUP3 PUSH4 0xFFFFFFFF AND PUSH1 0xE0 SHL DUP2 MSTORE PUSH1 0x4 ADD PUSH2 0x14B1 SWAP2 SWAP1 PUSH2 0x7F11 JUMP JUMPDEST PUSH1 0x20 PUSH1 0x40 MLOAD DUP1 DUP4 SUB DUP2 DUP7 DUP1 EXTCODESIZE ISZERO DUP1 ISZERO PUSH2 0x14C9 JUMPI PUSH1 0x0 DUP1 REVERT JUMPDEST POP GAS STATICCALL ISZERO DUP1 ISZERO PUSH2 0x14DD JUMPI RETURNDATASIZE PUSH1 0x0 DUP1 RETURNDATACOPY RETURNDATASIZE PUSH1 0x0 REVERT JUMPDEST POP POP POP POP PUSH1 0x40 MLOAD RETURNDATASIZE PUSH1 0x1F NOT PUSH1 0x1F DUP3 ADD AND DUP3 ADD DUP1 PUSH1 0x40 MSTORE POP DUP2 ADD SWAP1 PUSH2 0x1501 SWAP2 SWAP1 PUSH2 0x791B JUMP JUMPDEST PUSH1 0xE PUSH1 0x0 SWAP1 SLOAD SWAP1 PUSH2 0x100 EXP SWAP1 DIV PUSH20 0xFFFFFFFFFFFFFFFFFFFFFFFFFFFFFFFFFFFFFFFF AND PUSH20 0xFFFFFFFFFFFFFFFFFFFFFFFFFFFFFFFFFFFFFFFF AND PUSH4 0x5364DF49 DUP5 PUSH1 0x40 MLOAD DUP3 PUSH4 0xFFFFFFFF AND PUSH1 0xE0 SHL DUP2 MSTORE PUSH1 0x4 ADD PUSH2 0x155C SWAP2 SWAP1 PUSH2 0x7F11 JUMP JUMPDEST PUSH1 0x20 PUSH1 0x40 MLOAD DUP1 DUP4 SUB DUP2 DUP7 DUP1 EXTCODESIZE ISZERO DUP1 ISZERO PUSH2 0x1574 JUMPI PUSH1 0x0 DUP1 REVERT JUMPDEST POP GAS STATICCALL ISZERO DUP1 ISZERO PUSH2 0x1588 JUMPI RETURNDATASIZE PUSH1 0x0 DUP1 RETURNDATACOPY RETURNDATASIZE PUSH1 0x0 REVERT JUMPDEST POP POP POP POP PUSH1 0x40 MLOAD RETURNDATASIZE PUSH1 0x1F NOT PUSH1 0x1F DUP3 ADD AND DUP3 ADD DUP1 PUSH1 0x40 MSTORE POP DUP2 ADD SWAP1 PUSH2 0x15AC SWAP2 SWAP1 PUSH2 0x791B JUMP JUMPDEST PUSH2 0x15B6 SWAP2 SWAP1 PUSH2 0x852E JUMP JUMPDEST GT ISZERO PUSH2 0x15C5 JUMPI PUSH2 0x15C4 PUSH2 0x261A JUMP JUMPDEST JUMPDEST DUP3 PUSH20 0xFFFFFFFFFFFFFFFFFFFFFFFFFFFFFFFFFFFFFFFF AND PUSH4 0x23B872DD CALLER PUSH1 0xE PUSH1 0x0 SWAP1 SLOAD SWAP1 PUSH2 0x100 EXP SWAP1 DIV PUSH20 0xFFFFFFFFFFFFFFFFFFFFFFFFFFFFFFFFFFFFFFFF AND DUP6 PUSH1 0x40 MLOAD DUP5 PUSH4 0xFFFFFFFF AND PUSH1 0xE0 SHL DUP2 MSTORE PUSH1 0x4 ADD PUSH2 0x1624 SWAP4 SWAP3 SWAP2 SWAP1 PUSH2 0x7F55 JUMP JUMPDEST PUSH1 0x20 PUSH1 0x40 MLOAD DUP1 DUP4 SUB DUP2 PUSH1 0x0 DUP8 DUP1 EXTCODESIZE ISZERO DUP1 ISZERO PUSH2 0x163E JUMPI PUSH1 0x0 DUP1 REVERT JUMPDEST POP GAS CALL ISZERO DUP1 ISZERO PUSH2 0x1652 JUMPI RETURNDATASIZE PUSH1 0x0 DUP1 RETURNDATACOPY RETURNDATASIZE PUSH1 0x0 REVERT JUMPDEST POP POP POP POP PUSH1 0x40 MLOAD RETURNDATASIZE PUSH1 0x1F NOT PUSH1 0x1F DUP3 ADD AND DUP3 ADD DUP1 PUSH1 0x40 MSTORE POP DUP2 ADD SWAP1 PUSH2 0x1676 SWAP2 SWAP1 PUSH2 0x7717 JUMP JUMPDEST PUSH2 0x16B5 JUMPI PUSH1 0x40 MLOAD PUSH32 0x8C379A000000000000000000000000000000000000000000000000000000000 DUP2 MSTORE PUSH1 0x4 ADD PUSH2 0x16AC SWAP1 PUSH2 0x81E3 JUMP JUMPDEST PUSH1 0x40 MLOAD DUP1 SWAP2 SUB SWAP1 REVERT JUMPDEST PUSH1 0xE PUSH1 0x0 SWAP1 SLOAD SWAP1 PUSH2 0x100 EXP SWAP1 DIV PUSH20 0xFFFFFFFFFFFFFFFFFFFFFFFFFFFFFFFFFFFFFFFF AND PUSH20 0xFFFFFFFFFFFFFFFFFFFFFFFFFFFFFFFFFFFFFFFF AND PUSH4 0x46DAFA2F DUP5 DUP5 DUP5 PUSH1 0x40 MLOAD DUP5 PUSH4 0xFFFFFFFF AND PUSH1 0xE0 SHL DUP2 MSTORE PUSH1 0x4 ADD PUSH2 0x1714 SWAP4 SWAP3 SWAP2 SWAP1 PUSH2 0x7FB5 JUMP JUMPDEST PUSH1 0x0 PUSH1 0x40 MLOAD DUP1 DUP4 SUB DUP2 PUSH1 0x0 DUP8 DUP1 EXTCODESIZE ISZERO DUP1 ISZERO PUSH2 0x172E JUMPI PUSH1 0x0 DUP1 REVERT JUMPDEST POP GAS CALL ISZERO DUP1 ISZERO PUSH2 0x1742 JUMPI RETURNDATASIZE PUSH1 0x0 DUP1 RETURNDATACOPY RETURNDATASIZE PUSH1 0x0 REVERT JUMPDEST POP POP POP POP TIMESTAMP PUSH1 0x18 PUSH1 0x0 DUP4 PUSH20 0xFFFFFFFFFFFFFFFFFFFFFFFFFFFFFFFFFFFFFFFF AND PUSH20 0xFFFFFFFFFFFFFFFFFFFFFFFFFFFFFFFFFFFFFFFF AND DUP2 MSTORE PUSH1 0x20 ADD SWAP1 DUP2 MSTORE PUSH1 0x20 ADD PUSH1 0x0 KECCAK256 DUP2 SWAP1 SSTORE POP DUP3 PUSH20 0xFFFFFFFFFFFFFFFFFFFFFFFFFFFFFFFFFFFFFFFF AND DUP2 PUSH20 0xFFFFFFFFFFFFFFFFFFFFFFFFFFFFFFFFFFFFFFFF AND PUSH32 0x5F9B5A75581A29D72B32414A5DF7F1EF124B7787B38616FB8FDCAD76179127C2 DUP5 PUSH1 0x40 MLOAD PUSH2 0x17E7 SWAP2 SWAP1 PUSH2 0x8305 JUMP JUMPDEST PUSH1 0x40 MLOAD DUP1 SWAP2 SUB SWAP1 LOG3 POP POP POP JUMP JUMPDEST PUSH1 0x0 PUSH2 0x17FE PUSH2 0x56AF JUMP JUMPDEST PUSH2 0x1806 PUSH2 0x5785 JUMP JUMPDEST POP DUP3 PUSH1 0x1A PUSH1 0x0 PUSH1 0x9 SLOAD DUP2 MSTORE PUSH1 0x20 ADD SWAP1 DUP2 MSTORE PUSH1 0x20 ADD PUSH1 0x0 KECCAK256 PUSH1 0x0 PUSH2 0x100 EXP DUP2 SLOAD DUP2 PUSH20 0xFFFFFFFFFFFFFFFFFFFFFFFFFFFFFFFFFFFFFFFF MUL NOT AND SWAP1 DUP4 PUSH20 0xFFFFFFFFFFFFFFFFFFFFFFFFFFFFFFFFFFFFFFFF AND MUL OR SWAP1 SSTORE POP DUP2 PUSH1 0x1B PUSH1 0x0 PUSH1 0x9 SLOAD DUP2 MSTORE PUSH1 0x20 ADD SWAP1 DUP2 MSTORE PUSH1 0x20 ADD PUSH1 0x0 KECCAK256 SWAP1 DUP1 MLOAD SWAP1 PUSH1 0x20 ADD SWAP1 PUSH2 0x1884 SWAP3 SWAP2 SWAP1 PUSH2 0x72E4 JUMP JUMPDEST POP PUSH1 0x9 SLOAD CALLER PUSH20 0xFFFFFFFFFFFFFFFFFFFFFFFFFFFFFFFFFFFFFFFF AND PUSH32 0x8D500FCAD86FC64A281B94EF64D6D66ACBFC6862AA4FF2EE5FBBFB40736E803E DUP5 PUSH1 0x40 MLOAD PUSH2 0x18CE SWAP2 SWAP1 PUSH2 0x8101 JUMP JUMPDEST PUSH1 0x40 MLOAD DUP1 SWAP2 SUB SWAP1 LOG3 PUSH1 0x9 SLOAD SWAP1 POP SWAP3 SWAP2 POP POP JUMP JUMPDEST PUSH1 0x8 SLOAD DUP2 JUMP JUMPDEST PUSH1 0x0 PUSH1 0xA PUSH1 0x0 SWAP1 SLOAD SWAP1 PUSH2 0x100 EXP SWAP1 DIV PUSH1 0xFF AND ISZERO PUSH2 0x19A5 JUMPI PUSH1 0xA PUSH1 0x1 SWAP1 SLOAD SWAP1 PUSH2 0x100 EXP SWAP1 DIV PUSH20 0xFFFFFFFFFFFFFFFFFFFFFFFFFFFFFFFFFFFFFFFF AND PUSH20 0xFFFFFFFFFFFFFFFFFFFFFFFFFFFFFFFFFFFFFFFF AND PUSH4 0x2AB24E49 PUSH1 0x40 MLOAD DUP2 PUSH4 0xFFFFFFFF AND PUSH1 0xE0 SHL DUP2 MSTORE PUSH1 0x4 ADD PUSH1 0x20 PUSH1 0x40 MLOAD DUP1 DUP4 SUB DUP2 DUP7 DUP1 EXTCODESIZE ISZERO DUP1 ISZERO PUSH2 0x1966 JUMPI PUSH1 0x0 DUP1 REVERT JUMPDEST POP GAS STATICCALL ISZERO DUP1 ISZERO PUSH2 0x197A JUMPI RETURNDATASIZE PUSH1 0x0 DUP1 RETURNDATACOPY RETURNDATASIZE PUSH1 0x0 REVERT JUMPDEST POP POP POP POP PUSH1 0x40 MLOAD RETURNDATASIZE PUSH1 0x1F NOT PUSH1 0x1F DUP3 ADD AND DUP3 ADD DUP1 PUSH1 0x40 MSTORE POP DUP2 ADD SWAP1 PUSH2 0x199E SWAP2 SWAP1 PUSH2 0x785F JUMP JUMPDEST SWAP1 POP PUSH2 0x19CB JUMP JUMPDEST PUSH1 0x12 PUSH1 0x0 SWAP1 SLOAD SWAP1 PUSH2 0x100 EXP SWAP1 DIV PUSH20 0xFFFFFFFFFFFFFFFFFFFFFFFFFFFFFFFFFFFFFFFF AND SWAP1 POP JUMPDEST SWAP1 JUMP JUMPDEST PUSH1 0x9 SLOAD DUP2 JUMP JUMPDEST PUSH1 0x1F PUSH1 0x20 MSTORE DUP1 PUSH1 0x0 MSTORE PUSH1 0x40 PUSH1 0x0 KECCAK256 PUSH1 0x0 SWAP2 POP SLOAD SWAP1 PUSH2 0x100 EXP SWAP1 DIV PUSH1 0xFF AND DUP2 JUMP JUMPDEST PUSH1 0x6 SLOAD DUP2 JUMP JUMPDEST PUSH1 0x0 PUSH1 0xA PUSH1 0x0 SWAP1 SLOAD SWAP1 PUSH2 0x100 EXP SWAP1 DIV PUSH1 0xFF AND ISZERO PUSH2 0x1AB8 JUMPI PUSH1 0xA PUSH1 0x1 SWAP1 SLOAD SWAP1 PUSH2 0x100 EXP SWAP1 DIV PUSH20 0xFFFFFFFFFFFFFFFFFFFFFFFFFFFFFFFFFFFFFFFF AND PUSH20 0xFFFFFFFFFFFFFFFFFFFFFFFFFFFFFFFFFFFFFFFF AND PUSH4 0x2F7FA180 PUSH1 0x40 MLOAD DUP2 PUSH4 0xFFFFFFFF AND PUSH1 0xE0 SHL DUP2 MSTORE PUSH1 0x4 ADD PUSH1 0x20 PUSH1 0x40 MLOAD DUP1 DUP4 SUB DUP2 DUP7 DUP1 EXTCODESIZE ISZERO DUP1 ISZERO PUSH2 0x1A79 JUMPI PUSH1 0x0 DUP1 REVERT JUMPDEST POP GAS STATICCALL ISZERO DUP1 ISZERO PUSH2 0x1A8D JUMPI RETURNDATASIZE PUSH1 0x0 DUP1 RETURNDATACOPY RETURNDATASIZE PUSH1 0x0 REVERT JUMPDEST POP POP POP POP PUSH1 0x40 MLOAD RETURNDATASIZE PUSH1 0x1F NOT PUSH1 0x1F DUP3 ADD AND DUP3 ADD DUP1 PUSH1 0x40 MSTORE POP DUP2 ADD SWAP1 PUSH2 0x1AB1 SWAP2 SWAP1 PUSH2 0x7769 JUMP JUMPDEST SWAP1 POP PUSH2 0x1ADE JUMP JUMPDEST PUSH1 0xD PUSH1 0x0 SWAP1 SLOAD SWAP1 PUSH2 0x100 EXP SWAP1 DIV PUSH20 0xFFFFFFFFFFFFFFFFFFFFFFFFFFFFFFFFFFFFFFFF AND SWAP1 POP JUMPDEST SWAP1 JUMP JUMPDEST PUSH1 0x19 PUSH1 0x20 MSTORE DUP1 PUSH1 0x0 MSTORE PUSH1 0x40 PUSH1 0x0 KECCAK256 PUSH1 0x0 SWAP2 POP SWAP1 POP SLOAD DUP2 JUMP JUMPDEST PUSH1 0x0 PUSH1 0xA PUSH1 0x0 SWAP1 SLOAD SWAP1 PUSH2 0x100 EXP SWAP1 DIV PUSH1 0xFF AND ISZERO PUSH2 0x1BB7 JUMPI PUSH1 0xA PUSH1 0x1 SWAP1 SLOAD SWAP1 PUSH2 0x100 EXP SWAP1 DIV PUSH20 0xFFFFFFFFFFFFFFFFFFFFFFFFFFFFFFFFFFFFFFFF AND PUSH20 0xFFFFFFFFFFFFFFFFFFFFFFFFFFFFFFFFFFFFFFFF AND PUSH4 0x32FE7B26 PUSH1 0x40 MLOAD DUP2 PUSH4 0xFFFFFFFF AND PUSH1 0xE0 SHL DUP2 MSTORE PUSH1 0x4 ADD PUSH1 0x20 PUSH1 0x40 MLOAD DUP1 DUP4 SUB DUP2 DUP7 DUP1 EXTCODESIZE ISZERO DUP1 ISZERO PUSH2 0x1B78 JUMPI PUSH1 0x0 DUP1 REVERT JUMPDEST POP GAS STATICCALL ISZERO DUP1 ISZERO PUSH2 0x1B8C JUMPI RETURNDATASIZE PUSH1 0x0 DUP1 RETURNDATACOPY RETURNDATASIZE PUSH1 0x0 REVERT JUMPDEST POP POP POP POP PUSH1 0x40 MLOAD RETURNDATASIZE PUSH1 0x1F NOT PUSH1 0x1F DUP3 ADD AND DUP3 ADD DUP1 PUSH1 0x40 MSTORE POP DUP2 ADD SWAP1 PUSH2 0x1BB0 SWAP2 SWAP1 PUSH2 0x780D JUMP JUMPDEST SWAP1 POP PUSH2 0x1BDD JUMP JUMPDEST PUSH1 0xB PUSH1 0x0 SWAP1 SLOAD SWAP1 PUSH2 0x100 EXP SWAP1 DIV PUSH20 0xFFFFFFFFFFFFFFFFFFFFFFFFFFFFFFFFFFFFFFFF AND SWAP1 POP JUMPDEST SWAP1 JUMP JUMPDEST PUSH1 0x60 PUSH1 0x14 DUP1 SLOAD DUP1 PUSH1 0x20 MUL PUSH1 0x20 ADD PUSH1 0x40 MLOAD SWAP1 DUP2 ADD PUSH1 0x40 MSTORE DUP1 SWAP3 SWAP2 SWAP1 DUP2 DUP2 MSTORE PUSH1 0x20 ADD DUP3 DUP1 SLOAD DUP1 ISZERO PUSH2 0x1C64 JUMPI PUSH1 0x20 MUL DUP3 ADD SWAP2 SWAP1 PUSH1 0x0 MSTORE PUSH1 0x20 PUSH1 0x0 KECCAK256 SWAP1 JUMPDEST DUP2 PUSH1 0x0 SWAP1 SLOAD SWAP1 PUSH2 0x100 EXP SWAP1 DIV PUSH20 0xFFFFFFFFFFFFFFFFFFFFFFFFFFFFFFFFFFFFFFFF AND PUSH20 0xFFFFFFFFFFFFFFFFFFFFFFFFFFFFFFFFFFFFFFFF AND DUP2 MSTORE PUSH1 0x20 ADD SWAP1 PUSH1 0x1 ADD SWAP1 DUP1 DUP4 GT PUSH2 0x1C1A JUMPI JUMPDEST POP POP POP POP POP SWAP1 POP SWAP1 JUMP JUMPDEST PUSH1 0x0 PUSH1 0xA PUSH1 0x0 SWAP1 SLOAD SWAP1 PUSH2 0x100 EXP SWAP1 DIV PUSH1 0xFF AND ISZERO PUSH2 0x1D2C JUMPI PUSH1 0xA PUSH1 0x1 SWAP1 SLOAD SWAP1 PUSH2 0x100 EXP SWAP1 DIV PUSH20 0xFFFFFFFFFFFFFFFFFFFFFFFFFFFFFFFFFFFFFFFF AND PUSH20 0xFFFFFFFFFFFFFFFFFFFFFFFFFFFFFFFFFFFFFFFF AND PUSH4 0x38DA7DD6 PUSH1 0x40 MLOAD DUP2 PUSH4 0xFFFFFFFF AND PUSH1 0xE0 SHL DUP2 MSTORE PUSH1 0x4 ADD PUSH1 0x20 PUSH1 0x40 MLOAD DUP1 DUP4 SUB DUP2 DUP7 DUP1 EXTCODESIZE ISZERO DUP1 ISZERO PUSH2 0x1CED JUMPI PUSH1 0x0 DUP1 REVERT JUMPDEST POP GAS STATICCALL ISZERO DUP1 ISZERO PUSH2 0x1D01 JUMPI RETURNDATASIZE PUSH1 0x0 DUP1 RETURNDATACOPY RETURNDATASIZE PUSH1 0x0 REVERT JUMPDEST POP POP POP POP PUSH1 0x40 MLOAD RETURNDATASIZE PUSH1 0x1F NOT PUSH1 0x1F DUP3 ADD AND DUP3 ADD DUP1 PUSH1 0x40 MSTORE POP DUP2 ADD SWAP1 PUSH2 0x1D25 SWAP2 SWAP1 PUSH2 0x7792 JUMP JUMPDEST SWAP1 POP PUSH2 0x1D52 JUMP JUMPDEST PUSH1 0xE PUSH1 0x0 SWAP1 SLOAD SWAP1 PUSH2 0x100 EXP SWAP1 DIV PUSH20 0xFFFFFFFFFFFFFFFFFFFFFFFFFFFFFFFFFFFFFFFF AND SWAP1 POP JUMPDEST SWAP1 JUMP JUMPDEST PUSH1 0x0 DUP1 PUSH1 0xD PUSH1 0x0 SWAP1 SLOAD SWAP1 PUSH2 0x100 EXP SWAP1 DIV PUSH20 0xFFFFFFFFFFFFFFFFFFFFFFFFFFFFFFFFFFFFFFFF AND PUSH20 0xFFFFFFFFFFFFFFFFFFFFFFFFFFFFFFFFFFFFFFFF AND PUSH4 0x5364DF49 DUP5 PUSH1 0x40 MLOAD DUP3 PUSH4 0xFFFFFFFF AND PUSH1 0xE0 SHL DUP2 MSTORE PUSH1 0x4 ADD PUSH2 0x1DB3 SWAP2 SWAP1 PUSH2 0x7F11 JUMP JUMPDEST PUSH1 0x20 PUSH1 0x40 MLOAD DUP1 DUP4 SUB DUP2 DUP7 DUP1 EXTCODESIZE ISZERO DUP1 ISZERO PUSH2 0x1DCB JUMPI PUSH1 0x0 DUP1 REVERT JUMPDEST POP GAS STATICCALL ISZERO DUP1 ISZERO PUSH2 0x1DDF JUMPI RETURNDATASIZE PUSH1 0x0 DUP1 RETURNDATACOPY RETURNDATASIZE PUSH1 0x0 REVERT JUMPDEST POP POP POP POP PUSH1 0x40 MLOAD RETURNDATASIZE PUSH1 0x1F NOT PUSH1 0x1F DUP3 ADD AND DUP3 ADD DUP1 PUSH1 0x40 MSTORE POP DUP2 ADD SWAP1 PUSH2 0x1E03 SWAP2 SWAP1 PUSH2 0x791B JUMP JUMPDEST PUSH1 0xE PUSH1 0x0 SWAP1 SLOAD SWAP1 PUSH2 0x100 EXP SWAP1 DIV PUSH20 0xFFFFFFFFFFFFFFFFFFFFFFFFFFFFFFFFFFFFFFFF AND PUSH20 0xFFFFFFFFFFFFFFFFFFFFFFFFFFFFFFFFFFFFFFFF AND PUSH4 0x5364DF49 DUP6 PUSH1 0x40 MLOAD DUP3 PUSH4 0xFFFFFFFF AND PUSH1 0xE0 SHL DUP2 MSTORE PUSH1 0x4 ADD PUSH2 0x1E5E SWAP2 SWAP1 PUSH2 0x7F11 JUMP JUMPDEST PUSH1 0x20 PUSH1 0x40 MLOAD DUP1 DUP4 SUB DUP2 DUP7 DUP1 EXTCODESIZE ISZERO DUP1 ISZERO PUSH2 0x1E76 JUMPI PUSH1 0x0 DUP1 REVERT JUMPDEST POP GAS STATICCALL ISZERO DUP1 ISZERO PUSH2 0x1E8A JUMPI RETURNDATASIZE PUSH1 0x0 DUP1 RETURNDATACOPY RETURNDATASIZE PUSH1 0x0 REVERT JUMPDEST POP POP POP POP PUSH1 0x40 MLOAD RETURNDATASIZE PUSH1 0x1F NOT PUSH1 0x1F DUP3 ADD AND DUP3 ADD DUP1 PUSH1 0x40 MSTORE POP DUP2 ADD SWAP1 PUSH2 0x1EAE SWAP2 SWAP1 PUSH2 0x791B JUMP JUMPDEST PUSH2 0x1EB8 SWAP2 SWAP1 PUSH2 0x852E JUMP JUMPDEST SWAP1 POP PUSH1 0x0 PUSH1 0xD PUSH1 0x0 SWAP1 SLOAD SWAP1 PUSH2 0x100 EXP SWAP1 DIV PUSH20 0xFFFFFFFFFFFFFFFFFFFFFFFFFFFFFFFFFFFFFFFF AND PUSH20 0xFFFFFFFFFFFFFFFFFFFFFFFFFFFFFFFFFFFFFFFF AND PUSH4 0x96C82E57 PUSH1 0x40 MLOAD DUP2 PUSH4 0xFFFFFFFF AND PUSH1 0xE0 SHL DUP2 MSTORE PUSH1 0x4 ADD PUSH1 0x20 PUSH1 0x40 MLOAD DUP1 DUP4 SUB DUP2 DUP7 DUP1 EXTCODESIZE ISZERO DUP1 ISZERO PUSH2 0x1F24 JUMPI PUSH1 0x0 DUP1 REVERT JUMPDEST POP GAS STATICCALL ISZERO DUP1 ISZERO PUSH2 0x1F38 JUMPI RETURNDATASIZE PUSH1 0x0 DUP1 RETURNDATACOPY RETURNDATASIZE PUSH1 0x0 REVERT JUMPDEST POP POP POP POP PUSH1 0x40 MLOAD RETURNDATASIZE PUSH1 0x1F NOT PUSH1 0x1F DUP3 ADD AND DUP3 ADD DUP1 PUSH1 0x40 MSTORE POP DUP2 ADD SWAP1 PUSH2 0x1F5C SWAP2 SWAP1 PUSH2 0x791B JUMP JUMPDEST PUSH1 0xE PUSH1 0x0 SWAP1 SLOAD SWAP1 PUSH2 0x100 EXP SWAP1 DIV PUSH20 0xFFFFFFFFFFFFFFFFFFFFFFFFFFFFFFFFFFFFFFFF AND PUSH20 0xFFFFFFFFFFFFFFFFFFFFFFFFFFFFFFFFFFFFFFFF AND PUSH4 0x96C82E57 PUSH1 0x40 MLOAD DUP2 PUSH4 0xFFFFFFFF AND PUSH1 0xE0 SHL DUP2 MSTORE PUSH1 0x4 ADD PUSH1 0x20 PUSH1 0x40 MLOAD DUP1 DUP4 SUB DUP2 DUP7 DUP1 EXTCODESIZE ISZERO DUP1 ISZERO PUSH2 0x1FC4 JUMPI PUSH1 0x0 DUP1 REVERT JUMPDEST POP GAS STATICCALL ISZERO DUP1 ISZERO PUSH2 0x1FD8 JUMPI RETURNDATASIZE PUSH1 0x0 DUP1 RETURNDATACOPY RETURNDATASIZE PUSH1 0x0 REVERT JUMPDEST POP POP POP POP PUSH1 0x40 MLOAD RETURNDATASIZE PUSH1 0x1F NOT PUSH1 0x1F DUP3 ADD AND DUP3 ADD DUP1 PUSH1 0x40 MSTORE POP DUP2 ADD SWAP1 PUSH2 0x1FFC SWAP2 SWAP1 PUSH2 0x791B JUMP JUMPDEST PUSH2 0x2006 SWAP2 SWAP1 PUSH2 0x852E JUMP JUMPDEST SWAP1 POP PUSH1 0x0 PUSH1 0x6 SLOAD PUSH1 0x1 PUSH1 0x0 SWAP1 SLOAD SWAP1 PUSH2 0x100 EXP SWAP1 DIV PUSH20 0xFFFFFFFFFFFFFFFFFFFFFFFFFFFFFFFFFFFFFFFF AND PUSH20 0xFFFFFFFFFFFFFFFFFFFFFFFFFFFFFFFFFFFFFFFF AND PUSH4 0x70A08231 PUSH1 0x11 PUSH1 0x0 SWAP1 SLOAD SWAP1 PUSH2 0x100 EXP SWAP1 DIV PUSH20 0xFFFFFFFFFFFFFFFFFFFFFFFFFFFFFFFFFFFFFFFF AND PUSH1 0x40 MLOAD DUP3 PUSH4 0xFFFFFFFF AND PUSH1 0xE0 SHL DUP2 MSTORE PUSH1 0x4 ADD PUSH2 0x208A SWAP2 SWAP1 PUSH2 0x7F11 JUMP JUMPDEST PUSH1 0x20 PUSH1 0x40 MLOAD DUP1 DUP4 SUB DUP2 DUP7 DUP1 EXTCODESIZE ISZERO DUP1 ISZERO PUSH2 0x20A2 JUMPI PUSH1 0x0 DUP1 REVERT JUMPDEST POP GAS STATICCALL ISZERO DUP1 ISZERO PUSH2 0x20B6 JUMPI RETURNDATASIZE PUSH1 0x0 DUP1 RETURNDATACOPY RETURNDATASIZE PUSH1 0x0 REVERT JUMPDEST POP POP POP POP PUSH1 0x40 MLOAD RETURNDATASIZE PUSH1 0x1F NOT PUSH1 0x1F DUP3 ADD AND DUP3 ADD DUP1 PUSH1 0x40 MSTORE POP DUP2 ADD SWAP1 PUSH2 0x20DA SWAP2 SWAP1 PUSH2 0x791B JUMP JUMPDEST PUSH2 0x20E4 SWAP2 SWAP1 PUSH2 0x8584 JUMP JUMPDEST SWAP1 POP PUSH1 0x0 PUSH2 0x2710 PUSH1 0x7 SLOAD DUP4 PUSH2 0x20F9 SWAP2 SWAP1 PUSH2 0x85B5 JUMP JUMPDEST PUSH2 0x2103 SWAP2 SWAP1 PUSH2 0x8584 JUMP JUMPDEST SWAP1 POP PUSH1 0xC PUSH1 0x0 SWAP1 SLOAD SWAP1 PUSH2 0x100 EXP SWAP1 DIV PUSH20 0xFFFFFFFFFFFFFFFFFFFFFFFFFFFFFFFFFFFFFFFF AND PUSH20 0xFFFFFFFFFFFFFFFFFFFFFFFFFFFFFFFFFFFFFFFF AND PUSH4 0x1BA326C4 DUP6 DUP6 DUP5 PUSH1 0x40 MLOAD DUP5 PUSH4 0xFFFFFFFF AND PUSH1 0xE0 SHL DUP2 MSTORE PUSH1 0x4 ADD PUSH2 0x2164 SWAP4 SWAP3 SWAP2 SWAP1 PUSH2 0x8425 JUMP JUMPDEST PUSH1 0x20 PUSH1 0x40 MLOAD DUP1 DUP4 SUB DUP2 DUP7 DUP1 EXTCODESIZE ISZERO DUP1 ISZERO PUSH2 0x217C JUMPI PUSH1 0x0 DUP1 REVERT JUMPDEST POP GAS STATICCALL ISZERO DUP1 ISZERO PUSH2 0x2190 JUMPI RETURNDATASIZE PUSH1 0x0 DUP1 RETURNDATACOPY RETURNDATASIZE PUSH1 0x0 REVERT JUMPDEST POP POP POP POP PUSH1 0x40 MLOAD RETURNDATASIZE PUSH1 0x1F NOT PUSH1 0x1F DUP3 ADD AND DUP3 ADD DUP1 PUSH1 0x40 MSTORE POP DUP2 ADD SWAP1 PUSH2 0x21B4 SWAP2 SWAP1 PUSH2 0x791B JUMP JUMPDEST SWAP5 POP POP POP POP POP SWAP2 SWAP1 POP JUMP JUMPDEST PUSH2 0x21C7 PUSH2 0x736A JUMP JUMPDEST DUP2 DUP2 PUSH1 0x0 ADD DUP2 DUP2 MSTORE POP POP PUSH1 0x1B PUSH1 0x0 DUP4 DUP2 MSTORE PUSH1 0x20 ADD SWAP1 DUP2 MSTORE PUSH1 0x20 ADD PUSH1 0x0 KECCAK256 DUP1 SLOAD PUSH2 0x21EF SWAP1 PUSH2 0x8897 JUMP JUMPDEST DUP1 PUSH1 0x1F ADD PUSH1 0x20 DUP1 SWAP2 DIV MUL PUSH1 0x20 ADD PUSH1 0x40 MLOAD SWAP1 DUP2 ADD PUSH1 0x40 MSTORE DUP1 SWAP3 SWAP2 SWAP1 DUP2 DUP2 MSTORE PUSH1 0x20 ADD DUP3 DUP1 SLOAD PUSH2 0x221B SWAP1 PUSH2 0x8897 JUMP JUMPDEST DUP1 ISZERO PUSH2 0x2268 JUMPI DUP1 PUSH1 0x1F LT PUSH2 0x223D JUMPI PUSH2 0x100 DUP1 DUP4 SLOAD DIV MUL DUP4 MSTORE SWAP2 PUSH1 0x20 ADD SWAP2 PUSH2 0x2268 JUMP JUMPDEST DUP3 ADD SWAP2 SWAP1 PUSH1 0x0 MSTORE PUSH1 0x20 PUSH1 0x0 KECCAK256 SWAP1 JUMPDEST DUP2 SLOAD DUP2 MSTORE SWAP1 PUSH1 0x1 ADD SWAP1 PUSH1 0x20 ADD DUP1 DUP4 GT PUSH2 0x224B JUMPI DUP3 SWAP1 SUB PUSH1 0x1F AND DUP3 ADD SWAP2 JUMPDEST POP POP POP POP POP DUP2 PUSH1 0x20 ADD DUP2 SWAP1 MSTORE POP PUSH1 0x1C PUSH1 0x0 DUP4 DUP2 MSTORE PUSH1 0x20 ADD SWAP1 DUP2 MSTORE PUSH1 0x20 ADD PUSH1 0x0 KECCAK256 SLOAD DUP2 PUSH1 0x40 ADD DUP2 DUP2 MSTORE POP POP PUSH1 0x1D PUSH1 0x0 DUP4 DUP2 MSTORE PUSH1 0x20 ADD SWAP1 DUP2 MSTORE PUSH1 0x20 ADD PUSH1 0x0 KECCAK256 SLOAD DUP2 PUSH1 0x60 ADD DUP2 DUP2 MSTORE POP POP PUSH1 0x1E PUSH1 0x0 DUP4 DUP2 MSTORE PUSH1 0x20 ADD SWAP1 DUP2 MSTORE PUSH1 0x20 ADD PUSH1 0x0 KECCAK256 PUSH1 0x0 SWAP1 SLOAD SWAP1 PUSH2 0x100 EXP SWAP1 DIV PUSH1 0xFF AND DUP2 PUSH1 0x80 ADD SWAP1 ISZERO ISZERO SWAP1 DUP2 ISZERO ISZERO DUP2 MSTORE POP POP PUSH1 0x1F PUSH1 0x0 DUP4 DUP2 MSTORE PUSH1 0x20 ADD SWAP1 DUP2 MSTORE PUSH1 0x20 ADD PUSH1 0x0 KECCAK256 PUSH1 0x0 SWAP1 SLOAD SWAP1 PUSH2 0x100 EXP SWAP1 DIV PUSH1 0xFF AND DUP2 PUSH1 0xA0 ADD SWAP1 ISZERO ISZERO SWAP1 DUP2 ISZERO ISZERO DUP2 MSTORE POP POP PUSH1 0x19 PUSH1 0x0 DUP4 DUP2 MSTORE PUSH1 0x20 ADD SWAP1 DUP2 MSTORE PUSH1 0x20 ADD PUSH1 0x0 KECCAK256 SLOAD DUP2 PUSH1 0xC0 ADD DUP2 DUP2 MSTORE POP POP PUSH1 0x1A PUSH1 0x0 DUP4 DUP2 MSTORE PUSH1 0x20 ADD SWAP1 DUP2 MSTORE PUSH1 0x20 ADD PUSH1 0x0 KECCAK256 PUSH1 0x0 SWAP1 SLOAD SWAP1 PUSH2 0x100 EXP SWAP1 DIV PUSH20 0xFFFFFFFFFFFFFFFFFFFFFFFFFFFFFFFFFFFFFFFF AND DUP2 PUSH1 0xE0 ADD SWAP1 PUSH20 0xFFFFFFFFFFFFFFFFFFFFFFFFFFFFFFFFFFFFFFFF AND SWAP1 DUP2 PUSH20 0xFFFFFFFFFFFFFFFFFFFFFFFFFFFFFFFFFFFFFFFF AND DUP2 MSTORE POP POP PUSH1 0x20 PUSH1 0x0 DUP4 DUP2 MSTORE PUSH1 0x20 ADD SWAP1 DUP2 MSTORE PUSH1 0x20 ADD PUSH1 0x0 KECCAK256 PUSH1 0x0 SWAP1 SLOAD SWAP1 PUSH2 0x100 EXP SWAP1 DIV PUSH1 0xFF AND DUP2 PUSH2 0x100 ADD SWAP1 ISZERO ISZERO SWAP1 DUP2 ISZERO ISZERO DUP2 MSTORE POP POP PUSH1 0x21 PUSH1 0x0 DUP4 DUP2 MSTORE PUSH1 0x20 ADD SWAP1 DUP2 MSTORE PUSH1 0x20 ADD PUSH1 0x0 KECCAK256 SLOAD DUP2 PUSH2 0x120 ADD DUP2 DUP2 MSTORE POP POP SWAP2 SWAP1 POP JUMP JUMPDEST PUSH1 0x13 DUP2 DUP2 SLOAD DUP2 LT PUSH2 0x23FB JUMPI PUSH1 0x0 DUP1 REVERT JUMPDEST SWAP1 PUSH1 0x0 MSTORE PUSH1 0x20 PUSH1 0x0 KECCAK256 ADD PUSH1 0x0 SWAP2 POP SLOAD SWAP1 PUSH2 0x100 EXP SWAP1 DIV PUSH20 0xFFFFFFFFFFFFFFFFFFFFFFFFFFFFFFFFFFFFFFFF AND DUP2 JUMP JUMPDEST PUSH1 0x0 DUP1 SLOAD SWAP1 PUSH2 0x100 EXP SWAP1 DIV PUSH20 0xFFFFFFFFFFFFFFFFFFFFFFFFFFFFFFFFFFFFFFFF AND PUSH20 0xFFFFFFFFFFFFFFFFFFFFFFFFFFFFFFFFFFFFFFFF AND CALLER PUSH20 0xFFFFFFFFFFFFFFFFFFFFFFFFFFFFFFFFFFFFFFFF AND EQ PUSH2 0x2482 JUMPI PUSH1 0x0 DUP1 REVERT JUMPDEST DUP2 PUSH1 0xF PUSH1 0x0 PUSH2 0x100 EXP DUP2 SLOAD DUP2 PUSH20 0xFFFFFFFFFFFFFFFFFFFFFFFFFFFFFFFFFFFFFFFF MUL NOT AND SWAP1 DUP4 PUSH20 0xFFFFFFFFFFFFFFFFFFFFFFFFFFFFFFFFFFFFFFFF AND MUL OR SWAP1 SSTORE POP DUP1 PUSH1 0x10 PUSH1 0x0 PUSH2 0x100 EXP DUP2 SLOAD DUP2 PUSH20 0xFFFFFFFFFFFFFFFFFFFFFFFFFFFFFFFFFFFFFFFF MUL NOT AND SWAP1 DUP4 PUSH20 0xFFFFFFFFFFFFFFFFFFFFFFFFFFFFFFFFFFFFFFFF AND MUL OR SWAP1 SSTORE POP POP POP JUMP JUMPDEST PUSH1 0x0 PUSH1 0x16 PUSH1 0x0 DUP4 PUSH20 0xFFFFFFFFFFFFFFFFFFFFFFFFFFFFFFFFFFFFFFFF AND PUSH20 0xFFFFFFFFFFFFFFFFFFFFFFFFFFFFFFFFFFFFFFFF AND DUP2 MSTORE PUSH1 0x20 ADD SWAP1 DUP2 MSTORE PUSH1 0x20 ADD PUSH1 0x0 KECCAK256 PUSH1 0x0 SWAP1 SLOAD SWAP1 PUSH2 0x100 EXP SWAP1 DIV PUSH1 0xFF AND PUSH2 0x2596 JUMPI PUSH1 0x40 MLOAD PUSH32 0x8C379A000000000000000000000000000000000000000000000000000000000 DUP2 MSTORE PUSH1 0x4 ADD PUSH2 0x258D SWAP1 PUSH2 0x81C3 JUMP JUMPDEST PUSH1 0x40 MLOAD DUP1 SWAP2 SUB SWAP1 REVERT JUMPDEST PUSH1 0x0 PUSH1 0x18 PUSH1 0x0 DUP5 PUSH20 0xFFFFFFFFFFFFFFFFFFFFFFFFFFFFFFFFFFFFFFFF AND PUSH20 0xFFFFFFFFFFFFFFFFFFFFFFFFFFFFFFFFFFFFFFFF AND DUP2 MSTORE PUSH1 0x20 ADD SWAP1 DUP2 MSTORE PUSH1 0x20 ADD PUSH1 0x0 KECCAK256 SLOAD TIMESTAMP PUSH2 0x25E3 SWAP2 SWAP1 PUSH2 0x860F JUMP JUMPDEST SWAP1 POP PUSH1 0x0 PUSH2 0x25F0 DUP5 PUSH2 0x1D55 JUMP JUMPDEST SWAP1 POP PUSH1 0x0 PUSH1 0x2 SLOAD DUP4 DUP4 PUSH2 0x2603 SWAP2 SWAP1 PUSH2 0x85B5 JUMP JUMPDEST PUSH2 0x260D SWAP2 SWAP1 PUSH2 0x8584 JUMP JUMPDEST SWAP1 POP DUP1 SWAP4 POP POP POP POP SWAP2 SWAP1 POP JUMP JUMPDEST PUSH1 0x11 PUSH1 0x0 SWAP1 SLOAD SWAP1 PUSH2 0x100 EXP SWAP1 DIV PUSH20 0xFFFFFFFFFFFFFFFFFFFFFFFFFFFFFFFFFFFFFFFF AND PUSH20 0xFFFFFFFFFFFFFFFFFFFFFFFFFFFFFFFFFFFFFFFF AND PUSH4 0x2267716C PUSH1 0x40 MLOAD DUP2 PUSH4 0xFFFFFFFF AND PUSH1 0xE0 SHL DUP2 MSTORE PUSH1 0x4 ADD PUSH1 0x20 PUSH1 0x40 MLOAD DUP1 DUP4 SUB DUP2 PUSH1 0x0 DUP8 DUP1 EXTCODESIZE ISZERO DUP1 ISZERO PUSH2 0x2684 JUMPI PUSH1 0x0 DUP1 REVERT JUMPDEST POP GAS CALL ISZERO DUP1 ISZERO PUSH2 0x2698 JUMPI RETURNDATASIZE PUSH1 0x0 DUP1 RETURNDATACOPY RETURNDATASIZE PUSH1 0x0 REVERT JUMPDEST POP POP POP POP PUSH1 0x40 MLOAD RETURNDATASIZE PUSH1 0x1F NOT PUSH1 0x1F DUP3 ADD AND DUP3 ADD DUP1 PUSH1 0x40 MSTORE POP DUP2 ADD SWAP1 PUSH2 0x26BC SWAP2 SWAP1 PUSH2 0x7717 JUMP JUMPDEST PUSH2 0x26FB JUMPI PUSH1 0x40 MLOAD PUSH32 0x8C379A000000000000000000000000000000000000000000000000000000000 DUP2 MSTORE PUSH1 0x4 ADD PUSH2 0x26F2 SWAP1 PUSH2 0x8163 JUMP JUMPDEST PUSH1 0x40 MLOAD DUP1 SWAP2 SUB SWAP1 REVERT JUMPDEST PUSH1 0x0 PUSH2 0x2706 CALLER PUSH2 0x2508 JUMP JUMPDEST SWAP1 POP TIMESTAMP PUSH1 0x18 PUSH1 0x0 CALLER PUSH20 0xFFFFFFFFFFFFFFFFFFFFFFFFFFFFFFFFFFFFFFFF AND PUSH20 0xFFFFFFFFFFFFFFFFFFFFFFFFFFFFFFFFFFFFFFFF AND DUP2 MSTORE PUSH1 0x20 ADD SWAP1 DUP2 MSTORE PUSH1 0x20 ADD PUSH1 0x0 KECCAK256 DUP2 SWAP1 SSTORE POP PUSH1 0x0 PUSH1 0x1 PUSH1 0x0 SWAP1 SLOAD SWAP1 PUSH2 0x100 EXP SWAP1 DIV PUSH20 0xFFFFFFFFFFFFFFFFFFFFFFFFFFFFFFFFFFFFFFFF AND PUSH20 0xFFFFFFFFFFFFFFFFFFFFFFFFFFFFFFFFFFFFFFFF AND PUSH4 0x70A08231 PUSH1 0x11 PUSH1 0x0 SWAP1 SLOAD SWAP1 PUSH2 0x100 EXP SWAP1 DIV PUSH20 0xFFFFFFFFFFFFFFFFFFFFFFFFFFFFFFFFFFFFFFFF AND PUSH1 0x40 MLOAD DUP3 PUSH4 0xFFFFFFFF AND PUSH1 0xE0 SHL DUP2 MSTORE PUSH1 0x4 ADD PUSH2 0x27CB SWAP2 SWAP1 PUSH2 0x7F11 JUMP JUMPDEST PUSH1 0x20 PUSH1 0x40 MLOAD DUP1 DUP4 SUB DUP2 DUP7 DUP1 EXTCODESIZE ISZERO DUP1 ISZERO PUSH2 0x27E3 JUMPI PUSH1 0x0 DUP1 REVERT JUMPDEST POP GAS STATICCALL ISZERO DUP1 ISZERO PUSH2 0x27F7 JUMPI RETURNDATASIZE PUSH1 0x0 DUP1 RETURNDATACOPY RETURNDATASIZE PUSH1 0x0 REVERT JUMPDEST POP POP POP POP PUSH1 0x40 MLOAD RETURNDATASIZE PUSH1 0x1F NOT PUSH1 0x1F DUP3 ADD AND DUP3 ADD DUP1 PUSH1 0x40 MSTORE POP DUP2 ADD SWAP1 PUSH2 0x281B SWAP2 SWAP1 PUSH2 0x791B JUMP JUMPDEST SWAP1 POP PUSH1 0x0 PUSH2 0x2710 PUSH1 0x7 SLOAD DUP4 PUSH2 0x2830 SWAP2 SWAP1 PUSH2 0x85B5 JUMP JUMPDEST PUSH2 0x283A SWAP2 SWAP1 PUSH2 0x8584 JUMP JUMPDEST SWAP1 POP DUP1 DUP4 GT ISZERO PUSH2 0x2848 JUMPI DUP1 SWAP3 POP JUMPDEST PUSH1 0x11 PUSH1 0x0 SWAP1 SLOAD SWAP1 PUSH2 0x100 EXP SWAP1 DIV PUSH20 0xFFFFFFFFFFFFFFFFFFFFFFFFFFFFFFFFFFFFFFFF AND PUSH20 0xFFFFFFFFFFFFFFFFFFFFFFFFFFFFFFFFFFFFFFFF AND PUSH4 0x7D458BAA DUP5 CALLER PUSH1 0x40 MLOAD DUP4 PUSH4 0xFFFFFFFF AND PUSH1 0xE0 SHL DUP2 MSTORE PUSH1 0x4 ADD PUSH2 0x28A5 SWAP3 SWAP2 SWAP1 PUSH2 0x8320 JUMP JUMPDEST PUSH1 0x0 PUSH1 0x40 MLOAD DUP1 DUP4 SUB DUP2 PUSH1 0x0 DUP8 DUP1 EXTCODESIZE ISZERO DUP1 ISZERO PUSH2 0x28BF JUMPI PUSH1 0x0 DUP1 REVERT JUMPDEST POP GAS CALL ISZERO DUP1 ISZERO PUSH2 0x28D3 JUMPI RETURNDATASIZE PUSH1 0x0 DUP1 RETURNDATACOPY RETURNDATASIZE PUSH1 0x0 REVERT JUMPDEST POP POP POP POP POP POP POP JUMP JUMPDEST PUSH2 0x28E7 DUP3 DUP3 CALLER PUSH2 0x120C JUMP JUMPDEST POP POP JUMP JUMPDEST PUSH1 0x0 DUP1 PUSH1 0x1B PUSH1 0x0 PUSH1 0x9 SLOAD DUP2 MSTORE PUSH1 0x20 ADD SWAP1 DUP2 MSTORE PUSH1 0x20 ADD PUSH1 0x0 KECCAK256 DUP1 SLOAD PUSH2 0x290E SWAP1 PUSH2 0x8897 JUMP JUMPDEST DUP1 PUSH1 0x1F ADD PUSH1 0x20 DUP1 SWAP2 DIV MUL PUSH1 0x20 ADD PUSH1 0x40 MLOAD SWAP1 DUP2 ADD PUSH1 0x40 MSTORE DUP1 SWAP3 SWAP2 SWAP1 DUP2 DUP2 MSTORE PUSH1 0x20 ADD DUP3 DUP1 SLOAD PUSH2 0x293A SWAP1 PUSH2 0x8897 JUMP JUMPDEST DUP1 ISZERO PUSH2 0x2987 JUMPI DUP1 PUSH1 0x1F LT PUSH2 0x295C JUMPI PUSH2 0x100 DUP1 DUP4 SLOAD DIV MUL DUP4 MSTORE SWAP2 PUSH1 0x20 ADD SWAP2 PUSH2 0x2987 JUMP JUMPDEST DUP3 ADD SWAP2 SWAP1 PUSH1 0x0 MSTORE PUSH1 0x20 PUSH1 0x0 KECCAK256 SWAP1 JUMPDEST DUP2 SLOAD DUP2 MSTORE SWAP1 PUSH1 0x1 ADD SWAP1 PUSH1 0x20 ADD DUP1 DUP4 GT PUSH2 0x296A JUMPI DUP3 SWAP1 SUB PUSH1 0x1F AND DUP3 ADD SWAP2 JUMPDEST POP POP POP POP POP SWAP1 POP PUSH1 0x22 PUSH1 0x0 PUSH1 0x9 SLOAD DUP2 MSTORE PUSH1 0x20 ADD SWAP1 DUP2 MSTORE PUSH1 0x20 ADD PUSH1 0x0 KECCAK256 PUSH1 0x0 CALLER PUSH20 0xFFFFFFFFFFFFFFFFFFFFFFFFFFFFFFFFFFFFFFFF AND PUSH20 0xFFFFFFFFFFFFFFFFFFFFFFFFFFFFFFFFFFFFFFFF AND DUP2 MSTORE PUSH1 0x20 ADD SWAP1 DUP2 MSTORE PUSH1 0x20 ADD PUSH1 0x0 KECCAK256 SLOAD SWAP2 POP PUSH1 0x20 PUSH1 0x0 PUSH1 0x9 SLOAD DUP2 MSTORE PUSH1 0x20 ADD SWAP1 DUP2 MSTORE PUSH1 0x20 ADD PUSH1 0x0 KECCAK256 PUSH1 0x0 SWAP1 SLOAD SWAP1 PUSH2 0x100 EXP SWAP1 DIV PUSH1 0xFF AND ISZERO PUSH2 0x2A38 JUMPI DUP2 PUSH1 0x1C PUSH1 0x0 PUSH1 0x9 SLOAD DUP2 MSTORE PUSH1 0x20 ADD SWAP1 DUP2 MSTORE PUSH1 0x20 ADD PUSH1 0x0 KECCAK256 PUSH1 0x0 DUP3 DUP3 SLOAD PUSH2 0x2A30 SWAP2 SWAP1 PUSH2 0x860F JUMP JUMPDEST SWAP3 POP POP DUP2 SWAP1 SSTORE POP JUMPDEST PUSH1 0x0 PUSH1 0x22 PUSH1 0x0 PUSH1 0x9 SLOAD DUP2 MSTORE PUSH1 0x20 ADD SWAP1 DUP2 MSTORE PUSH1 0x20 ADD PUSH1 0x0 KECCAK256 PUSH1 0x0 CALLER PUSH20 0xFFFFFFFFFFFFFFFFFFFFFFFFFFFFFFFFFFFFFFFF AND PUSH20 0xFFFFFFFFFFFFFFFFFFFFFFFFFFFFFFFFFFFFFFFF AND DUP2 MSTORE PUSH1 0x20 ADD SWAP1 DUP2 MSTORE PUSH1 0x20 ADD PUSH1 0x0 KECCAK256 DUP2 SWAP1 SSTORE POP PUSH1 0x9 SLOAD CALLER PUSH20 0xFFFFFFFFFFFFFFFFFFFFFFFFFFFFFFFFFFFFFFFF AND PUSH32 0x70A6AB6ED794C2CEB8DF59B7BB4E317E9B215D9CE74B88161CA5AF2A5A801D6F DUP5 PUSH1 0x1C PUSH1 0x0 PUSH1 0x9 SLOAD DUP2 MSTORE PUSH1 0x20 ADD SWAP1 DUP2 MSTORE PUSH1 0x20 ADD PUSH1 0x0 KECCAK256 SLOAD DUP6 PUSH1 0x40 MLOAD PUSH2 0x2AF2 SWAP4 SWAP3 SWAP2 SWAP1 PUSH2 0x83E7 JUMP JUMPDEST PUSH1 0x40 MLOAD DUP1 SWAP2 SUB SWAP1 LOG3 POP SWAP1 JUMP JUMPDEST PUSH1 0x1E PUSH1 0x20 MSTORE DUP1 PUSH1 0x0 MSTORE PUSH1 0x40 PUSH1 0x0 KECCAK256 PUSH1 0x0 SWAP2 POP SLOAD SWAP1 PUSH2 0x100 EXP SWAP1 DIV PUSH1 0xFF AND DUP2 JUMP JUMPDEST PUSH2 0x2B26 PUSH2 0x28EB JUMP JUMPDEST POP PUSH1 0xE PUSH1 0x0 SWAP1 SLOAD SWAP1 PUSH2 0x100 EXP SWAP1 DIV PUSH20 0xFFFFFFFFFFFFFFFFFFFFFFFFFFFFFFFFFFFFFFFF AND PUSH20 0xFFFFFFFFFFFFFFFFFFFFFFFFFFFFFFFFFFFFFFFF AND PUSH4 0xF940E385 DUP3 CALLER PUSH1 0x40 MLOAD DUP4 PUSH4 0xFFFFFFFF AND PUSH1 0xE0 SHL DUP2 MSTORE PUSH1 0x4 ADD PUSH2 0x2B84 SWAP3 SWAP2 SWAP1 PUSH2 0x7F2C JUMP JUMPDEST PUSH1 0x20 PUSH1 0x40 MLOAD DUP1 DUP4 SUB DUP2 PUSH1 0x0 DUP8 DUP1 EXTCODESIZE ISZERO DUP1 ISZERO PUSH2 0x2B9E JUMPI PUSH1 0x0 DUP1 REVERT JUMPDEST POP GAS CALL ISZERO DUP1 ISZERO PUSH2 0x2BB2 JUMPI RETURNDATASIZE PUSH1 0x0 DUP1 RETURNDATACOPY RETURNDATASIZE PUSH1 0x0 REVERT JUMPDEST POP POP POP POP PUSH1 0x40 MLOAD RETURNDATASIZE PUSH1 0x1F NOT PUSH1 0x1F DUP3 ADD AND DUP3 ADD DUP1 PUSH1 0x40 MSTORE POP DUP2 ADD SWAP1 PUSH2 0x2BD6 SWAP2 SWAP1 PUSH2 0x7717 JUMP JUMPDEST PUSH2 0x2C15 JUMPI PUSH1 0x40 MLOAD PUSH32 0x8C379A000000000000000000000000000000000000000000000000000000000 DUP2 MSTORE PUSH1 0x4 ADD PUSH2 0x2C0C SWAP1 PUSH2 0x8223 JUMP JUMPDEST PUSH1 0x40 MLOAD DUP1 SWAP2 SUB SWAP1 REVERT JUMPDEST POP JUMP JUMPDEST PUSH1 0x0 DUP1 SLOAD SWAP1 PUSH2 0x100 EXP SWAP1 DIV PUSH20 0xFFFFFFFFFFFFFFFFFFFFFFFFFFFFFFFFFFFFFFFF AND PUSH20 0xFFFFFFFFFFFFFFFFFFFFFFFFFFFFFFFFFFFFFFFF AND CALLER PUSH20 0xFFFFFFFFFFFFFFFFFFFFFFFFFFFFFFFFFFFFFFFF AND EQ PUSH2 0x2C70 JUMPI PUSH1 0x0 DUP1 REVERT JUMPDEST DUP5 PUSH4 0xFFFFFFFF AND PUSH1 0x3 DUP2 SWAP1 SSTORE POP DUP4 PUSH4 0xFFFFFFFF AND PUSH1 0x6 DUP2 SWAP1 SSTORE POP DUP3 PUSH4 0xFFFFFFFF AND PUSH1 0x5 DUP2 SWAP1 SSTORE POP DUP2 PUSH4 0xFFFFFFFF AND PUSH1 0x7 DUP2 SWAP1 SSTORE POP DUP1 PUSH4 0xFFFFFFFF AND PUSH1 0x8 DUP2 SWAP1 SSTORE POP POP POP POP POP POP JUMP JUMPDEST PUSH1 0x0 DUP1 PUSH1 0x1C PUSH1 0x0 DUP5 DUP2 MSTORE PUSH1 0x20 ADD SWAP1 DUP2 MSTORE PUSH1 0x20 ADD PUSH1 0x0 KECCAK256 SLOAD SWAP1 POP PUSH1 0x0 PUSH1 0xD PUSH1 0x0 SWAP1 SLOAD SWAP1 PUSH2 0x100 EXP SWAP1 DIV PUSH20 0xFFFFFFFFFFFFFFFFFFFFFFFFFFFFFFFFFFFFFFFF AND PUSH20 0xFFFFFFFFFFFFFFFFFFFFFFFFFFFFFFFFFFFFFFFF AND PUSH4 0x96C82E57 PUSH1 0x40 MLOAD DUP2 PUSH4 0xFFFFFFFF AND PUSH1 0xE0 SHL DUP2 MSTORE PUSH1 0x4 ADD PUSH1 0x20 PUSH1 0x40 MLOAD DUP1 DUP4 SUB DUP2 DUP7 DUP1 EXTCODESIZE ISZERO DUP1 ISZERO PUSH2 0x2D3B JUMPI PUSH1 0x0 DUP1 REVERT JUMPDEST POP GAS STATICCALL ISZERO DUP1 ISZERO PUSH2 0x2D4F JUMPI RETURNDATASIZE PUSH1 0x0 DUP1 RETURNDATACOPY RETURNDATASIZE PUSH1 0x0 REVERT JUMPDEST POP POP POP POP PUSH1 0x40 MLOAD RETURNDATASIZE PUSH1 0x1F NOT PUSH1 0x1F DUP3 ADD AND DUP3 ADD DUP1 PUSH1 0x40 MSTORE POP DUP2 ADD SWAP1 PUSH2 0x2D73 SWAP2 SWAP1 PUSH2 0x791B JUMP JUMPDEST PUSH1 0xE PUSH1 0x0 SWAP1 SLOAD SWAP1 PUSH2 0x100 EXP SWAP1 DIV PUSH20 0xFFFFFFFFFFFFFFFFFFFFFFFFFFFFFFFFFFFFFFFF AND PUSH20 0xFFFFFFFFFFFFFFFFFFFFFFFFFFFFFFFFFFFFFFFF AND PUSH4 0x96C82E57 PUSH1 0x40 MLOAD DUP2 PUSH4 0xFFFFFFFF AND PUSH1 0xE0 SHL DUP2 MSTORE PUSH1 0x4 ADD PUSH1 0x20 PUSH1 0x40 MLOAD DUP1 DUP4 SUB DUP2 DUP7 DUP1 EXTCODESIZE ISZERO DUP1 ISZERO PUSH2 0x2DDB JUMPI PUSH1 0x0 DUP1 REVERT JUMPDEST POP GAS STATICCALL ISZERO DUP1 ISZERO PUSH2 0x2DEF JUMPI RETURNDATASIZE PUSH1 0x0 DUP1 RETURNDATACOPY RETURNDATASIZE PUSH1 0x0 REVERT JUMPDEST POP POP POP POP PUSH1 0x40 MLOAD RETURNDATASIZE PUSH1 0x1F NOT PUSH1 0x1F DUP3 ADD AND DUP3 ADD DUP1 PUSH1 0x40 MSTORE POP DUP2 ADD SWAP1 PUSH2 0x2E13 SWAP2 SWAP1 PUSH2 0x791B JUMP JUMPDEST PUSH2 0x2E1D SWAP2 SWAP1 PUSH2 0x852E JUMP JUMPDEST SWAP1 POP PUSH1 0x0 PUSH2 0x2710 PUSH1 0x5 SLOAD DUP4 PUSH2 0x2E32 SWAP2 SWAP1 PUSH2 0x85B5 JUMP JUMPDEST PUSH2 0x2E3C SWAP2 SWAP1 PUSH2 0x8584 JUMP JUMPDEST SWAP1 POP DUP1 DUP4 GT ISZERO PUSH2 0x2E52 JUMPI PUSH1 0x1 SWAP4 POP POP POP POP PUSH2 0x2E5A JUMP JUMPDEST PUSH1 0x0 SWAP4 POP POP POP POP JUMPDEST SWAP2 SWAP1 POP JUMP JUMPDEST PUSH1 0x18 PUSH1 0x20 MSTORE DUP1 PUSH1 0x0 MSTORE PUSH1 0x40 PUSH1 0x0 KECCAK256 PUSH1 0x0 SWAP2 POP SWAP1 POP SLOAD DUP2 JUMP JUMPDEST PUSH1 0x15 SLOAD DUP2 JUMP JUMPDEST PUSH1 0x0 DUP1 SLOAD SWAP1 PUSH2 0x100 EXP SWAP1 DIV PUSH20 0xFFFFFFFFFFFFFFFFFFFFFFFFFFFFFFFFFFFFFFFF AND PUSH20 0xFFFFFFFFFFFFFFFFFFFFFFFFFFFFFFFFFFFFFFFF AND CALLER PUSH20 0xFFFFFFFFFFFFFFFFFFFFFFFFFFFFFFFFFFFFFFFF AND EQ PUSH2 0x2ED5 JUMPI PUSH1 0x0 DUP1 REVERT JUMPDEST PUSH1 0x0 PUSH1 0x1 PUSH1 0x0 SWAP1 SLOAD SWAP1 PUSH2 0x100 EXP SWAP1 DIV PUSH20 0xFFFFFFFFFFFFFFFFFFFFFFFFFFFFFFFFFFFFFFFF AND PUSH20 0xFFFFFFFFFFFFFFFFFFFFFFFFFFFFFFFFFFFFFFFF AND PUSH4 0x70A08231 ADDRESS PUSH1 0x40 MLOAD DUP3 PUSH4 0xFFFFFFFF AND PUSH1 0xE0 SHL DUP2 MSTORE PUSH1 0x4 ADD PUSH2 0x2F32 SWAP2 SWAP1 PUSH2 0x7F11 JUMP JUMPDEST PUSH1 0x20 PUSH1 0x40 MLOAD DUP1 DUP4 SUB DUP2 DUP7 DUP1 EXTCODESIZE ISZERO DUP1 ISZERO PUSH2 0x2F4A JUMPI PUSH1 0x0 DUP1 REVERT JUMPDEST POP GAS STATICCALL ISZERO DUP1 ISZERO PUSH2 0x2F5E JUMPI RETURNDATASIZE PUSH1 0x0 DUP1 RETURNDATACOPY RETURNDATASIZE PUSH1 0x0 REVERT JUMPDEST POP POP POP POP PUSH1 0x40 MLOAD RETURNDATASIZE PUSH1 0x1F NOT PUSH1 0x1F DUP3 ADD AND DUP3 ADD DUP1 PUSH1 0x40 MSTORE POP DUP2 ADD SWAP1 PUSH2 0x2F82 SWAP2 SWAP1 PUSH2 0x791B JUMP JUMPDEST SWAP1 POP PUSH1 0x1 PUSH1 0x0 SWAP1 SLOAD SWAP1 PUSH2 0x100 EXP SWAP1 DIV PUSH20 0xFFFFFFFFFFFFFFFFFFFFFFFFFFFFFFFFFFFFFFFF AND PUSH20 0xFFFFFFFFFFFFFFFFFFFFFFFFFFFFFFFFFFFFFFFF AND PUSH4 0xA9059CBB DUP4 DUP4 PUSH1 0x40 MLOAD DUP4 PUSH4 0xFFFFFFFF AND PUSH1 0xE0 SHL DUP2 MSTORE PUSH1 0x4 ADD PUSH2 0x2FE1 SWAP3 SWAP2 SWAP1 PUSH2 0x7F8C JUMP JUMPDEST PUSH1 0x20 PUSH1 0x40 MLOAD DUP1 DUP4 SUB DUP2 PUSH1 0x0 DUP8 DUP1 EXTCODESIZE ISZERO DUP1 ISZERO PUSH2 0x2FFB JUMPI PUSH1 0x0 DUP1 REVERT JUMPDEST POP GAS CALL ISZERO DUP1 ISZERO PUSH2 0x300F JUMPI RETURNDATASIZE PUSH1 0x0 DUP1 RETURNDATACOPY RETURNDATASIZE PUSH1 0x0 REVERT JUMPDEST POP POP POP POP PUSH1 0x40 MLOAD RETURNDATASIZE PUSH1 0x1F NOT PUSH1 0x1F DUP3 ADD AND DUP3 ADD DUP1 PUSH1 0x40 MSTORE POP DUP2 ADD SWAP1 PUSH2 0x3033 SWAP2 SWAP1 PUSH2 0x7717 JUMP JUMPDEST POP POP POP JUMP JUMPDEST PUSH1 0x2 SLOAD DUP2 JUMP JUMPDEST PUSH1 0x0 DUP1 SLOAD SWAP1 PUSH2 0x100 EXP SWAP1 DIV PUSH20 0xFFFFFFFFFFFFFFFFFFFFFFFFFFFFFFFFFFFFFFFF AND PUSH20 0xFFFFFFFFFFFFFFFFFFFFFFFFFFFFFFFFFFFFFFFF AND CALLER PUSH20 0xFFFFFFFFFFFFFFFFFFFFFFFFFFFFFFFFFFFFFFFF AND EQ PUSH2 0x3096 JUMPI PUSH1 0x0 DUP1 REVERT JUMPDEST DUP3 PUSH1 0xE PUSH1 0x0 PUSH2 0x100 EXP DUP2 SLOAD DUP2 PUSH20 0xFFFFFFFFFFFFFFFFFFFFFFFFFFFFFFFFFFFFFFFF MUL NOT AND SWAP1 DUP4 PUSH20 0xFFFFFFFFFFFFFFFFFFFFFFFFFFFFFFFFFFFFFFFF AND MUL OR SWAP1 SSTORE POP DUP2 PUSH1 0xD PUSH1 0x0 PUSH2 0x100 EXP DUP2 SLOAD DUP2 PUSH20 0xFFFFFFFFFFFFFFFFFFFFFFFFFFFFFFFFFFFFFFFF MUL NOT AND SWAP1 DUP4 PUSH20 0xFFFFFFFFFFFFFFFFFFFFFFFFFFFFFFFFFFFFFFFF AND MUL OR SWAP1 SSTORE POP DUP1 PUSH1 0x12 PUSH1 0x0 PUSH2 0x100 EXP DUP2 SLOAD DUP2 PUSH20 0xFFFFFFFFFFFFFFFFFFFFFFFFFFFFFFFFFFFFFFFF MUL NOT AND SWAP1 DUP4 PUSH20 0xFFFFFFFFFFFFFFFFFFFFFFFFFFFFFFFFFFFFFFFF AND MUL OR SWAP1 SSTORE POP POP POP POP JUMP JUMPDEST PUSH1 0x7 SLOAD DUP2 JUMP JUMPDEST PUSH1 0x0 DUP1 PUSH1 0x14 DUP1 SLOAD DUP1 PUSH1 0x20 MUL PUSH1 0x20 ADD PUSH1 0x40 MLOAD SWAP1 DUP2 ADD PUSH1 0x40 MSTORE DUP1 SWAP3 SWAP2 SWAP1 DUP2 DUP2 MSTORE PUSH1 0x20 ADD DUP3 DUP1 SLOAD DUP1 ISZERO PUSH2 0x31E9 JUMPI PUSH1 0x20 MUL DUP3 ADD SWAP2 SWAP1 PUSH1 0x0 MSTORE PUSH1 0x20 PUSH1 0x0 KECCAK256 SWAP1 JUMPDEST DUP2 PUSH1 0x0 SWAP1 SLOAD SWAP1 PUSH2 0x100 EXP SWAP1 DIV PUSH20 0xFFFFFFFFFFFFFFFFFFFFFFFFFFFFFFFFFFFFFFFF AND PUSH20 0xFFFFFFFFFFFFFFFFFFFFFFFFFFFFFFFFFFFFFFFF AND DUP2 MSTORE PUSH1 0x20 ADD SWAP1 PUSH1 0x1 ADD SWAP1 DUP1 DUP4 GT PUSH2 0x319F JUMPI JUMPDEST POP POP POP POP POP SWAP1 POP PUSH1 0x0 JUMPDEST DUP2 MLOAD DUP2 LT ISZERO PUSH2 0x3337 JUMPI PUSH1 0x0 PUSH2 0x3248 DUP6 DUP5 DUP5 DUP2 MLOAD DUP2 LT PUSH2 0x323B JUMPI PUSH32 0x4E487B7100000000000000000000000000000000000000000000000000000000 PUSH1 0x0 MSTORE PUSH1 0x32 PUSH1 0x4 MSTORE PUSH1 0x24 PUSH1 0x0 REVERT JUMPDEST PUSH1 0x20 MUL PUSH1 0x20 ADD ADD MLOAD PUSH2 0x550B JUMP JUMPDEST SWAP1 POP PUSH1 0x0 DUP2 GT ISZERO PUSH2 0x3323 JUMPI PUSH1 0xD PUSH1 0x0 SWAP1 SLOAD SWAP1 PUSH2 0x100 EXP SWAP1 DIV PUSH20 0xFFFFFFFFFFFFFFFFFFFFFFFFFFFFFFFFFFFFFFFF AND PUSH20 0xFFFFFFFFFFFFFFFFFFFFFFFFFFFFFFFFFFFFFFFF AND PUSH4 0x5BC262BE DUP5 DUP5 DUP2 MLOAD DUP2 LT PUSH2 0x32CA JUMPI PUSH32 0x4E487B7100000000000000000000000000000000000000000000000000000000 PUSH1 0x0 MSTORE PUSH1 0x32 PUSH1 0x4 MSTORE PUSH1 0x24 PUSH1 0x0 REVERT JUMPDEST PUSH1 0x20 MUL PUSH1 0x20 ADD ADD MLOAD DUP8 PUSH1 0x40 MLOAD DUP4 PUSH4 0xFFFFFFFF AND PUSH1 0xE0 SHL DUP2 MSTORE PUSH1 0x4 ADD PUSH2 0x32F0 SWAP3 SWAP2 SWAP1 PUSH2 0x7F2C JUMP JUMPDEST PUSH1 0x0 PUSH1 0x40 MLOAD DUP1 DUP4 SUB DUP2 PUSH1 0x0 DUP8 DUP1 EXTCODESIZE ISZERO DUP1 ISZERO PUSH2 0x330A JUMPI PUSH1 0x0 DUP1 REVERT JUMPDEST POP GAS CALL ISZERO DUP1 ISZERO PUSH2 0x331E JUMPI RETURNDATASIZE PUSH1 0x0 DUP1 RETURNDATACOPY RETURNDATASIZE PUSH1 0x0 REVERT JUMPDEST POP POP POP POP JUMPDEST POP DUP1 DUP1 PUSH2 0x332F SWAP1 PUSH2 0x88FA JUMP JUMPDEST SWAP2 POP POP PUSH2 0x31F3 JUMP JUMPDEST POP PUSH1 0x1 SWAP2 POP POP SWAP2 SWAP1 POP JUMP JUMPDEST PUSH1 0x0 PUSH1 0xA PUSH1 0x0 SWAP1 SLOAD SWAP1 PUSH2 0x100 EXP SWAP1 DIV PUSH1 0xFF AND ISZERO PUSH2 0x3400 JUMPI PUSH1 0xA PUSH1 0x1 SWAP1 SLOAD SWAP1 PUSH2 0x100 EXP SWAP1 DIV PUSH20 0xFFFFFFFFFFFFFFFFFFFFFFFFFFFFFFFFFFFFFFFF AND PUSH20 0xFFFFFFFFFFFFFFFFFFFFFFFFFFFFFFFFFFFFFFFF AND PUSH4 0x7B0E5C45 PUSH1 0x40 MLOAD DUP2 PUSH4 0xFFFFFFFF AND PUSH1 0xE0 SHL DUP2 MSTORE PUSH1 0x4 ADD PUSH1 0x20 PUSH1 0x40 MLOAD DUP1 DUP4 SUB DUP2 DUP7 DUP1 EXTCODESIZE ISZERO DUP1 ISZERO PUSH2 0x33C1 JUMPI PUSH1 0x0 DUP1 REVERT JUMPDEST POP GAS STATICCALL ISZERO DUP1 ISZERO PUSH2 0x33D5 JUMPI RETURNDATASIZE PUSH1 0x0 DUP1 RETURNDATACOPY RETURNDATASIZE PUSH1 0x0 REVERT JUMPDEST POP POP POP POP PUSH1 0x40 MLOAD RETURNDATASIZE PUSH1 0x1F NOT PUSH1 0x1F DUP3 ADD AND DUP3 ADD DUP1 PUSH1 0x40 MSTORE POP DUP2 ADD SWAP1 PUSH2 0x33F9 SWAP2 SWAP1 PUSH2 0x7888 JUMP JUMPDEST SWAP1 POP PUSH2 0x3426 JUMP JUMPDEST PUSH1 0xC PUSH1 0x0 SWAP1 SLOAD SWAP1 PUSH2 0x100 EXP SWAP1 DIV PUSH20 0xFFFFFFFFFFFFFFFFFFFFFFFFFFFFFFFFFFFFFFFF AND SWAP1 POP JUMPDEST SWAP1 JUMP JUMPDEST PUSH1 0x0 PUSH1 0x1 ISZERO ISZERO PUSH1 0x20 PUSH1 0x0 PUSH1 0x9 SLOAD DUP2 MSTORE PUSH1 0x20 ADD SWAP1 DUP2 MSTORE PUSH1 0x20 ADD PUSH1 0x0 KECCAK256 PUSH1 0x0 SWAP1 SLOAD SWAP1 PUSH2 0x100 EXP SWAP1 DIV PUSH1 0xFF AND ISZERO ISZERO EQ PUSH2 0x3494 JUMPI PUSH1 0x40 MLOAD PUSH32 0x8C379A000000000000000000000000000000000000000000000000000000000 DUP2 MSTORE PUSH1 0x4 ADD PUSH2 0x348B SWAP1 PUSH2 0x82A3 JUMP JUMPDEST PUSH1 0x40 MLOAD DUP1 SWAP2 SUB SWAP1 REVERT JUMPDEST PUSH1 0x0 PUSH1 0x1B PUSH1 0x0 PUSH1 0x9 SLOAD DUP2 MSTORE PUSH1 0x20 ADD SWAP1 DUP2 MSTORE PUSH1 0x20 ADD PUSH1 0x0 KECCAK256 DUP1 SLOAD PUSH2 0x34B6 SWAP1 PUSH2 0x8897 JUMP JUMPDEST DUP1 PUSH1 0x1F ADD PUSH1 0x20 DUP1 SWAP2 DIV MUL PUSH1 0x20 ADD PUSH1 0x40 MLOAD SWAP1 DUP2 ADD PUSH1 0x40 MSTORE DUP1 SWAP3 SWAP2 SWAP1 DUP2 DUP2 MSTORE PUSH1 0x20 ADD DUP3 DUP1 SLOAD PUSH2 0x34E2 SWAP1 PUSH2 0x8897 JUMP JUMPDEST DUP1 ISZERO PUSH2 0x352F JUMPI DUP1 PUSH1 0x1F LT PUSH2 0x3504 JUMPI PUSH2 0x100 DUP1 DUP4 SLOAD DIV MUL DUP4 MSTORE SWAP2 PUSH1 0x20 ADD SWAP2 PUSH2 0x352F JUMP JUMPDEST DUP3 ADD SWAP2 SWAP1 PUSH1 0x0 MSTORE PUSH1 0x20 PUSH1 0x0 KECCAK256 SWAP1 JUMPDEST DUP2 SLOAD DUP2 MSTORE SWAP1 PUSH1 0x1 ADD SWAP1 PUSH1 0x20 ADD DUP1 DUP4 GT PUSH2 0x3512 JUMPI DUP3 SWAP1 SUB PUSH1 0x1F AND DUP3 ADD SWAP2 JUMPDEST POP POP POP POP POP SWAP1 POP PUSH2 0x353E PUSH2 0x58BA JUMP JUMPDEST SWAP2 POP PUSH2 0x354B PUSH1 0x9 SLOAD PUSH2 0x4CB6 JUMP JUMPDEST DUP1 ISZERO PUSH2 0x357D JUMPI POP PUSH1 0x0 ISZERO ISZERO PUSH1 0x1E PUSH1 0x0 PUSH1 0x9 SLOAD DUP2 MSTORE PUSH1 0x20 ADD SWAP1 DUP2 MSTORE PUSH1 0x20 ADD PUSH1 0x0 KECCAK256 PUSH1 0x0 SWAP1 SLOAD SWAP1 PUSH2 0x100 EXP SWAP1 DIV PUSH1 0xFF AND ISZERO ISZERO EQ JUMPDEST ISZERO PUSH2 0x37D8 JUMPI PUSH2 0x35C1 DUP2 PUSH1 0x40 MLOAD DUP1 PUSH1 0x40 ADD PUSH1 0x40 MSTORE DUP1 PUSH1 0x3 DUP2 MSTORE PUSH1 0x20 ADD PUSH32 0x44414F0000000000000000000000000000000000000000000000000000000000 DUP2 MSTORE POP PUSH2 0x5B22 JUMP JUMPDEST DUP1 PUSH2 0x3607 JUMPI POP PUSH2 0x3606 DUP2 PUSH1 0x40 MLOAD DUP1 PUSH1 0x40 ADD PUSH1 0x40 MSTORE DUP1 PUSH1 0x5 DUP2 MSTORE PUSH1 0x20 ADD PUSH32 0x5554494C53000000000000000000000000000000000000000000000000000000 DUP2 MSTORE POP PUSH2 0x5B22 JUMP JUMPDEST JUMPDEST DUP1 PUSH2 0x364D JUMPI POP PUSH2 0x364C DUP2 PUSH1 0x40 MLOAD DUP1 PUSH1 0x40 ADD PUSH1 0x40 MSTORE DUP1 PUSH1 0x7 DUP2 MSTORE PUSH1 0x20 ADD PUSH32 0x5245534552564500000000000000000000000000000000000000000000000000 DUP2 MSTORE POP PUSH2 0x5B22 JUMP JUMPDEST JUMPDEST DUP1 PUSH2 0x3693 JUMPI POP PUSH2 0x3692 DUP2 PUSH1 0x40 MLOAD DUP1 PUSH1 0x40 ADD PUSH1 0x40 MSTORE DUP1 PUSH1 0xA DUP2 MSTORE PUSH1 0x20 ADD PUSH32 0x4745545F53504152544100000000000000000000000000000000000000000000 DUP2 MSTORE POP PUSH2 0x5B22 JUMP JUMPDEST JUMPDEST DUP1 PUSH2 0x36D9 JUMPI POP PUSH2 0x36D8 DUP2 PUSH1 0x40 MLOAD DUP1 PUSH1 0x40 ADD PUSH1 0x40 MSTORE DUP1 PUSH1 0x6 DUP2 MSTORE PUSH1 0x20 ADD PUSH32 0x524F555445520000000000000000000000000000000000000000000000000000 DUP2 MSTORE POP PUSH2 0x5B22 JUMP JUMPDEST JUMPDEST DUP1 PUSH2 0x371F JUMPI POP PUSH2 0x371E DUP2 PUSH1 0x40 MLOAD DUP1 PUSH1 0x40 ADD PUSH1 0x40 MSTORE DUP1 PUSH1 0x9 DUP2 MSTORE PUSH1 0x20 ADD PUSH32 0x4C4953545F424F4E440000000000000000000000000000000000000000000000 DUP2 MSTORE POP PUSH2 0x5B22 JUMP JUMPDEST JUMPDEST DUP1 PUSH2 0x3765 JUMPI POP PUSH2 0x3764 DUP2 PUSH1 0x40 MLOAD DUP1 PUSH1 0x40 ADD PUSH1 0x40 MSTORE DUP1 PUSH1 0x5 DUP2 MSTORE PUSH1 0x20 ADD PUSH32 0x4752414E54000000000000000000000000000000000000000000000000000000 DUP2 MSTORE POP PUSH2 0x5B22 JUMP JUMPDEST JUMPDEST DUP1 PUSH2 0x37AB JUMPI POP PUSH2 0x37AA DUP2 PUSH1 0x40 MLOAD DUP1 PUSH1 0x40 ADD PUSH1 0x40 MSTORE DUP1 PUSH1 0x10 DUP2 MSTORE PUSH1 0x20 ADD PUSH32 0x4144445F435552415445445F504F4F4C00000000000000000000000000000000 DUP2 MSTORE POP PUSH2 0x5B22 JUMP JUMPDEST JUMPDEST ISZERO PUSH2 0x37CE JUMPI PUSH2 0x37BB PUSH1 0x9 SLOAD PUSH2 0x2CB8 JUMP JUMPDEST ISZERO PUSH2 0x37C9 JUMPI PUSH2 0x37C8 PUSH2 0x5BDE JUMP JUMPDEST JUMPDEST PUSH2 0x37D7 JUMP JUMPDEST PUSH2 0x37D6 PUSH2 0x5BDE JUMP JUMPDEST JUMPDEST JUMPDEST PUSH1 0x9 SLOAD CALLER PUSH20 0xFFFFFFFFFFFFFFFFFFFFFFFFFFFFFFFFFFFFFFFF AND PUSH32 0x4D46D88C7E981A5BF4572A83B5D88BCFEFBD5EE6CA8DF0588E27C4221A436407 DUP5 PUSH1 0x1C PUSH1 0x0 PUSH1 0x9 SLOAD DUP2 MSTORE PUSH1 0x20 ADD SWAP1 DUP2 MSTORE PUSH1 0x20 ADD PUSH1 0x0 KECCAK256 SLOAD DUP6 PUSH1 0x40 MLOAD PUSH2 0x383A SWAP4 SWAP3 SWAP2 SWAP1 PUSH2 0x83E7 JUMP JUMPDEST PUSH1 0x40 MLOAD DUP1 SWAP2 SUB SWAP1 LOG3 POP SWAP1 JUMP JUMPDEST PUSH1 0x0 DUP1 SLOAD SWAP1 PUSH2 0x100 EXP SWAP1 DIV PUSH20 0xFFFFFFFFFFFFFFFFFFFFFFFFFFFFFFFFFFFFFFFF AND PUSH20 0xFFFFFFFFFFFFFFFFFFFFFFFFFFFFFFFFFFFFFFFF AND CALLER PUSH20 0xFFFFFFFFFFFFFFFFFFFFFFFFFFFFFFFFFFFFFFFF AND EQ PUSH2 0x389E JUMPI PUSH1 0x0 DUP1 REVERT JUMPDEST DUP3 PUSH1 0xB PUSH1 0x0 PUSH2 0x100 EXP DUP2 SLOAD DUP2 PUSH20 0xFFFFFFFFFFFFFFFFFFFFFFFFFFFFFFFFFFFFFFFF MUL NOT AND SWAP1 DUP4 PUSH20 0xFFFFFFFFFFFFFFFFFFFFFFFFFFFFFFFFFFFFFFFF AND MUL OR SWAP1 SSTORE POP DUP2 PUSH1 0xC PUSH1 0x0 PUSH2 0x100 EXP DUP2 SLOAD DUP2 PUSH20 0xFFFFFFFFFFFFFFFFFFFFFFFFFFFFFFFFFFFFFFFF MUL NOT AND SWAP1 DUP4 PUSH20 0xFFFFFFFFFFFFFFFFFFFFFFFFFFFFFFFFFFFFFFFF AND MUL OR SWAP1 SSTORE POP DUP1 PUSH1 0x11 PUSH1 0x0 PUSH2 0x100 EXP DUP2 SLOAD DUP2 PUSH20 0xFFFFFFFFFFFFFFFFFFFFFFFFFFFFFFFFFFFFFFFF MUL NOT AND SWAP1 DUP4 PUSH20 0xFFFFFFFFFFFFFFFFFFFFFFFFFFFFFFFFFFFFFFFF AND MUL OR SWAP1 SSTORE POP POP POP POP JUMP JUMPDEST PUSH1 0x20 DUP1 MSTORE DUP1 PUSH1 0x0 MSTORE PUSH1 0x40 PUSH1 0x0 KECCAK256 PUSH1 0x0 SWAP2 POP SLOAD SWAP1 PUSH2 0x100 EXP SWAP1 DIV PUSH1 0xFF AND DUP2 JUMP JUMPDEST PUSH2 0x258 PUSH1 0x21 PUSH1 0x0 PUSH1 0x9 SLOAD DUP2 MSTORE PUSH1 0x20 ADD SWAP1 DUP2 MSTORE PUSH1 0x20 ADD PUSH1 0x0 KECCAK256 SLOAD PUSH2 0x39A8 SWAP2 SWAP1 PUSH2 0x852E JUMP JUMPDEST TIMESTAMP GT PUSH2 0x39E9 JUMPI PUSH1 0x40 MLOAD PUSH32 0x8C379A000000000000000000000000000000000000000000000000000000000 DUP2 MSTORE PUSH1 0x4 ADD PUSH2 0x39E0 SWAP1 PUSH2 0x82C3 JUMP JUMPDEST PUSH1 0x40 MLOAD DUP1 SWAP2 SUB SWAP1 REVERT JUMPDEST PUSH1 0x0 PUSH1 0x1C PUSH1 0x0 PUSH1 0x9 SLOAD DUP2 MSTORE PUSH1 0x20 ADD SWAP1 DUP2 MSTORE PUSH1 0x20 ADD PUSH1 0x0 KECCAK256 DUP2 SWAP1 SSTORE POP PUSH1 0x0 PUSH1 0x20 PUSH1 0x0 PUSH1 0x9 SLOAD DUP2 MSTORE PUSH1 0x20 ADD SWAP1 DUP2 MSTORE PUSH1 0x20 ADD PUSH1 0x0 KECCAK256 PUSH1 0x0 PUSH2 0x100 EXP DUP2 SLOAD DUP2 PUSH1 0xFF MUL NOT AND SWAP1 DUP4 ISZERO ISZERO MUL OR SWAP1 SSTORE POP PUSH1 0x9 SLOAD CALLER PUSH20 0xFFFFFFFFFFFFFFFFFFFFFFFFFFFFFFFFFFFFFFFF AND PUSH32 0xE67C2E72A9EA22E5D163549AEBCE99DDC3D1FBBC58E7ED196B0E88F458847D9 PUSH1 0x1C PUSH1 0x0 PUSH1 0x9 SLOAD DUP2 MSTORE PUSH1 0x20 ADD SWAP1 DUP2 MSTORE PUSH1 0x20 ADD PUSH1 0x0 KECCAK256 SLOAD PUSH1 0x1C PUSH1 0x0 PUSH1 0x9 SLOAD DUP2 MSTORE PUSH1 0x20 ADD SWAP1 DUP2 MSTORE PUSH1 0x20 ADD PUSH1 0x0 KECCAK256 SLOAD PUSH1 0xE PUSH1 0x0 SWAP1 SLOAD SWAP1 PUSH2 0x100 EXP SWAP1 DIV PUSH20 0xFFFFFFFFFFFFFFFFFFFFFFFFFFFFFFFFFFFFFFFF AND PUSH20 0xFFFFFFFFFFFFFFFFFFFFFFFFFFFFFFFFFFFFFFFF AND PUSH4 0x96C82E57 PUSH1 0x40 MLOAD DUP2 PUSH4 0xFFFFFFFF AND PUSH1 0xE0 SHL DUP2 MSTORE PUSH1 0x4 ADD PUSH1 0x20 PUSH1 0x40 MLOAD DUP1 DUP4 SUB DUP2 DUP7 DUP1 EXTCODESIZE ISZERO DUP1 ISZERO PUSH2 0x3B01 JUMPI PUSH1 0x0 DUP1 REVERT JUMPDEST POP GAS STATICCALL ISZERO DUP1 ISZERO PUSH2 0x3B15 JUMPI RETURNDATASIZE PUSH1 0x0 DUP1 RETURNDATACOPY RETURNDATASIZE PUSH1 0x0 REVERT JUMPDEST POP POP POP POP PUSH1 0x40 MLOAD RETURNDATASIZE PUSH1 0x1F NOT PUSH1 0x1F DUP3 ADD AND DUP3 ADD DUP1 PUSH1 0x40 MSTORE POP DUP2 ADD SWAP1 PUSH2 0x3B39 SWAP2 SWAP1 PUSH2 0x791B JUMP JUMPDEST PUSH1 0x40 MLOAD PUSH2 0x3B48 SWAP4 SWAP3 SWAP2 SWAP1 PUSH2 0x8425 JUMP JUMPDEST PUSH1 0x40 MLOAD DUP1 SWAP2 SUB SWAP1 LOG3 JUMP JUMPDEST PUSH1 0x5 SLOAD DUP2 JUMP JUMPDEST PUSH1 0xA PUSH1 0x1 SWAP1 SLOAD SWAP1 PUSH2 0x100 EXP SWAP1 DIV PUSH20 0xFFFFFFFFFFFFFFFFFFFFFFFFFFFFFFFFFFFFFFFF AND DUP2 JUMP JUMPDEST PUSH1 0x0 DUP1 SLOAD SWAP1 PUSH2 0x100 EXP SWAP1 DIV PUSH20 0xFFFFFFFFFFFFFFFFFFFFFFFFFFFFFFFFFFFFFFFF AND PUSH20 0xFFFFFFFFFFFFFFFFFFFFFFFFFFFFFFFFFFFFFFFF AND CALLER PUSH20 0xFFFFFFFFFFFFFFFFFFFFFFFFFFFFFFFFFFFFFFFF AND EQ PUSH2 0x3BD6 JUMPI PUSH1 0x0 DUP1 REVERT JUMPDEST PUSH1 0x17 PUSH1 0x0 DUP3 PUSH20 0xFFFFFFFFFFFFFFFFFFFFFFFFFFFFFFFFFFFFFFFF AND PUSH20 0xFFFFFFFFFFFFFFFFFFFFFFFFFFFFFFFFFFFFFFFF AND DUP2 MSTORE PUSH1 0x20 ADD SWAP1 DUP2 MSTORE PUSH1 0x20 ADD PUSH1 0x0 KECCAK256 PUSH1 0x0 SWAP1 SLOAD SWAP1 PUSH2 0x100 EXP SWAP1 DIV PUSH1 0xFF AND PUSH2 0x3CE3 JUMPI PUSH1 0x1 PUSH1 0x17 PUSH1 0x0 DUP4 PUSH20 0xFFFFFFFFFFFFFFFFFFFFFFFFFFFFFFFFFFFFFFFF AND PUSH20 0xFFFFFFFFFFFFFFFFFFFFFFFFFFFFFFFFFFFFFFFF AND DUP2 MSTORE PUSH1 0x20 ADD SWAP1 DUP2 MSTORE PUSH1 0x20 ADD PUSH1 0x0 KECCAK256 PUSH1 0x0 PUSH2 0x100 EXP DUP2 SLOAD DUP2 PUSH1 0xFF MUL NOT AND SWAP1 DUP4 ISZERO ISZERO MUL OR SWAP1 SSTORE POP PUSH1 0x14 DUP2 SWAP1 DUP1 PUSH1 0x1 DUP2 SLOAD ADD DUP1 DUP3 SSTORE DUP1 SWAP2 POP POP PUSH1 0x1 SWAP1 SUB SWAP1 PUSH1 0x0 MSTORE PUSH1 0x20 PUSH1 0x0 KECCAK256 ADD PUSH1 0x0 SWAP1 SWAP2 SWAP1 SWAP2 SWAP1 SWAP2 PUSH2 0x100 EXP DUP2 SLOAD DUP2 PUSH20 0xFFFFFFFFFFFFFFFFFFFFFFFFFFFFFFFFFFFFFFFF MUL NOT AND SWAP1 DUP4 PUSH20 0xFFFFFFFFFFFFFFFFFFFFFFFFFFFFFFFFFFFFFFFF AND MUL OR SWAP1 SSTORE POP JUMPDEST DUP1 PUSH20 0xFFFFFFFFFFFFFFFFFFFFFFFFFFFFFFFFFFFFFFFF AND CALLER PUSH20 0xFFFFFFFFFFFFFFFFFFFFFFFFFFFFFFFFFFFFFFFF AND PUSH32 0xA2C962E87FD75165C1496C9EA420DDB0231E124BF2625A77F828287C80500068 PUSH1 0x40 MLOAD PUSH1 0x40 MLOAD DUP1 SWAP2 SUB SWAP1 LOG3 POP JUMP JUMPDEST PUSH1 0x0 PUSH1 0xA PUSH1 0x0 SWAP1 SLOAD SWAP1 PUSH2 0x100 EXP SWAP1 DIV PUSH1 0xFF AND ISZERO PUSH2 0x3DFE JUMPI PUSH1 0xA PUSH1 0x1 SWAP1 SLOAD SWAP1 PUSH2 0x100 EXP SWAP1 DIV PUSH20 0xFFFFFFFFFFFFFFFFFFFFFFFFFFFFFFFFFFFFFFFF AND PUSH20 0xFFFFFFFFFFFFFFFFFFFFFFFFFFFFFFFFFFFFFFFF AND PUSH4 0x9D2CC436 PUSH1 0x40 MLOAD DUP2 PUSH4 0xFFFFFFFF AND PUSH1 0xE0 SHL DUP2 MSTORE PUSH1 0x4 ADD PUSH1 0x20 PUSH1 0x40 MLOAD DUP1 DUP4 SUB DUP2 DUP7 DUP1 EXTCODESIZE ISZERO DUP1 ISZERO PUSH2 0x3DBF JUMPI PUSH1 0x0 DUP1 REVERT JUMPDEST POP GAS STATICCALL ISZERO DUP1 ISZERO PUSH2 0x3DD3 JUMPI RETURNDATASIZE PUSH1 0x0 DUP1 RETURNDATACOPY RETURNDATASIZE PUSH1 0x0 REVERT JUMPDEST POP POP POP POP PUSH1 0x40 MLOAD RETURNDATASIZE PUSH1 0x1F NOT PUSH1 0x1F DUP3 ADD AND DUP3 ADD DUP1 PUSH1 0x40 MSTORE POP DUP2 ADD SWAP1 PUSH2 0x3DF7 SWAP2 SWAP1 PUSH2 0x77E4 JUMP JUMPDEST SWAP1 POP PUSH2 0x3E24 JUMP JUMPDEST PUSH1 0x11 PUSH1 0x0 SWAP1 SLOAD SWAP1 PUSH2 0x100 EXP SWAP1 DIV PUSH20 0xFFFFFFFFFFFFFFFFFFFFFFFFFFFFFFFFFFFFFFFF AND SWAP1 POP JUMPDEST SWAP1 JUMP JUMPDEST PUSH1 0x16 PUSH1 0x20 MSTORE DUP1 PUSH1 0x0 MSTORE PUSH1 0x40 PUSH1 0x0 KECCAK256 PUSH1 0x0 SWAP2 POP SLOAD SWAP1 PUSH2 0x100 EXP SWAP1 DIV PUSH1 0xFF AND DUP2 JUMP JUMPDEST PUSH1 0x1D PUSH1 0x20 MSTORE DUP1 PUSH1 0x0 MSTORE PUSH1 0x40 PUSH1 0x0 KECCAK256 PUSH1 0x0 SWAP2 POP SWAP1 POP SLOAD DUP2 JUMP JUMPDEST PUSH1 0x0 DUP1 DUP3 GT PUSH2 0x3EA3 JUMPI PUSH1 0x40 MLOAD PUSH32 0x8C379A000000000000000000000000000000000000000000000000000000000 DUP2 MSTORE PUSH1 0x4 ADD PUSH2 0x3E9A SWAP1 PUSH2 0x8263 JUMP JUMPDEST PUSH1 0x40 MLOAD DUP1 SWAP2 SUB SWAP1 REVERT JUMPDEST PUSH1 0x17 PUSH1 0x0 DUP5 PUSH20 0xFFFFFFFFFFFFFFFFFFFFFFFFFFFFFFFFFFFFFFFF AND PUSH20 0xFFFFFFFFFFFFFFFFFFFFFFFFFFFFFFFFFFFFFFFF AND DUP2 MSTORE PUSH1 0x20 ADD SWAP1 DUP2 MSTORE PUSH1 0x20 ADD PUSH1 0x0 KECCAK256 PUSH1 0x0 SWAP1 SLOAD SWAP1 PUSH2 0x100 EXP SWAP1 DIV PUSH1 0xFF AND PUSH2 0x3F2F JUMPI PUSH1 0x40 MLOAD PUSH32 0x8C379A000000000000000000000000000000000000000000000000000000000 DUP2 MSTORE PUSH1 0x4 ADD PUSH2 0x3F26 SWAP1 PUSH2 0x8123 JUMP JUMPDEST PUSH1 0x40 MLOAD DUP1 SWAP2 SUB SWAP1 REVERT JUMPDEST PUSH1 0x1 ISZERO ISZERO PUSH1 0x16 PUSH1 0x0 CALLER PUSH20 0xFFFFFFFFFFFFFFFFFFFFFFFFFFFFFFFFFFFFFFFF AND PUSH20 0xFFFFFFFFFFFFFFFFFFFFFFFFFFFFFFFFFFFFFFFF AND DUP2 MSTORE PUSH1 0x20 ADD SWAP1 DUP2 MSTORE PUSH1 0x20 ADD PUSH1 0x0 KECCAK256 PUSH1 0x0 SWAP1 SLOAD SWAP1 PUSH2 0x100 EXP SWAP1 DIV PUSH1 0xFF AND ISZERO ISZERO EQ PUSH2 0x4043 JUMPI PUSH1 0x13 CALLER SWAP1 DUP1 PUSH1 0x1 DUP2 SLOAD ADD DUP1 DUP3 SSTORE DUP1 SWAP2 POP POP PUSH1 0x1 SWAP1 SUB SWAP1 PUSH1 0x0 MSTORE PUSH1 0x20 PUSH1 0x0 KECCAK256 ADD PUSH1 0x0 SWAP1 SWAP2 SWAP1 SWAP2 SWAP1 SWAP2 PUSH2 0x100 EXP DUP2 SLOAD DUP2 PUSH20 0xFFFFFFFFFFFFFFFFFFFFFFFFFFFFFFFFFFFFFFFF MUL NOT AND SWAP1 DUP4 PUSH20 0xFFFFFFFFFFFFFFFFFFFFFFFFFFFFFFFFFFFFFFFF AND MUL OR SWAP1 SSTORE POP PUSH1 0x1 PUSH1 0x16 PUSH1 0x0 CALLER PUSH20 0xFFFFFFFFFFFFFFFFFFFFFFFFFFFFFFFFFFFFFFFF AND PUSH20 0xFFFFFFFFFFFFFFFFFFFFFFFFFFFFFFFFFFFFFFFF AND DUP2 MSTORE PUSH1 0x20 ADD SWAP1 DUP2 MSTORE PUSH1 0x20 ADD PUSH1 0x0 KECCAK256 PUSH1 0x0 PUSH2 0x100 EXP DUP2 SLOAD DUP2 PUSH1 0xFF MUL NOT AND SWAP1 DUP4 ISZERO ISZERO MUL OR SWAP1 SSTORE POP JUMPDEST PUSH1 0x0 PUSH1 0xD PUSH1 0x0 SWAP1 SLOAD SWAP1 PUSH2 0x100 EXP SWAP1 DIV PUSH20 0xFFFFFFFFFFFFFFFFFFFFFFFFFFFFFFFFFFFFFFFF AND PUSH20 0xFFFFFFFFFFFFFFFFFFFFFFFFFFFFFFFFFFFFFFFF AND PUSH4 0x5364DF49 CALLER PUSH1 0x40 MLOAD DUP3 PUSH4 0xFFFFFFFF AND PUSH1 0xE0 SHL DUP2 MSTORE PUSH1 0x4 ADD PUSH2 0x40A0 SWAP2 SWAP1 PUSH2 0x7F11 JUMP JUMPDEST PUSH1 0x20 PUSH1 0x40 MLOAD DUP1 DUP4 SUB DUP2 DUP7 DUP1 EXTCODESIZE ISZERO DUP1 ISZERO PUSH2 0x40B8 JUMPI PUSH1 0x0 DUP1 REVERT JUMPDEST POP GAS STATICCALL ISZERO DUP1 ISZERO PUSH2 0x40CC JUMPI RETURNDATASIZE PUSH1 0x0 DUP1 RETURNDATACOPY RETURNDATASIZE PUSH1 0x0 REVERT JUMPDEST POP POP POP POP PUSH1 0x40 MLOAD RETURNDATASIZE PUSH1 0x1F NOT PUSH1 0x1F DUP3 ADD AND DUP3 ADD DUP1 PUSH1 0x40 MSTORE POP DUP2 ADD SWAP1 PUSH2 0x40F0 SWAP2 SWAP1 PUSH2 0x791B JUMP JUMPDEST PUSH1 0xE PUSH1 0x0 SWAP1 SLOAD SWAP1 PUSH2 0x100 EXP SWAP1 DIV PUSH20 0xFFFFFFFFFFFFFFFFFFFFFFFFFFFFFFFFFFFFFFFF AND PUSH20 0xFFFFFFFFFFFFFFFFFFFFFFFFFFFFFFFFFFFFFFFF AND PUSH4 0x5364DF49 CALLER PUSH1 0x40 MLOAD DUP3 PUSH4 0xFFFFFFFF AND PUSH1 0xE0 SHL DUP2 MSTORE PUSH1 0x4 ADD PUSH2 0x414B SWAP2 SWAP1 PUSH2 0x7F11 JUMP JUMPDEST PUSH1 0x20 PUSH1 0x40 MLOAD DUP1 DUP4 SUB DUP2 DUP7 DUP1 EXTCODESIZE ISZERO DUP1 ISZERO PUSH2 0x4163 JUMPI PUSH1 0x0 DUP1 REVERT JUMPDEST POP GAS STATICCALL ISZERO DUP1 ISZERO PUSH2 0x4177 JUMPI RETURNDATASIZE PUSH1 0x0 DUP1 RETURNDATACOPY RETURNDATASIZE PUSH1 0x0 REVERT JUMPDEST POP POP POP POP PUSH1 0x40 MLOAD RETURNDATASIZE PUSH1 0x1F NOT PUSH1 0x1F DUP3 ADD AND DUP3 ADD DUP1 PUSH1 0x40 MSTORE POP DUP2 ADD SWAP1 PUSH2 0x419B SWAP2 SWAP1 PUSH2 0x791B JUMP JUMPDEST PUSH2 0x41A5 SWAP2 SWAP1 PUSH2 0x852E JUMP JUMPDEST GT ISZERO PUSH2 0x41B4 JUMPI PUSH2 0x41B3 PUSH2 0x261A JUMP JUMPDEST JUMPDEST PUSH1 0x0 PUSH2 0x41C0 DUP5 DUP5 PUSH2 0x5D2B JUMP JUMPDEST SWAP1 POP PUSH1 0xD PUSH1 0x0 SWAP1 SLOAD SWAP1 PUSH2 0x100 EXP SWAP1 DIV PUSH20 0xFFFFFFFFFFFFFFFFFFFFFFFFFFFFFFFFFFFFFFFF AND PUSH20 0xFFFFFFFFFFFFFFFFFFFFFFFFFFFFFFFFFFFFFFFF AND PUSH4 0xBF58D0EF DUP6 CALLER DUP5 PUSH1 0x40 MLOAD DUP5 PUSH4 0xFFFFFFFF AND PUSH1 0xE0 SHL DUP2 MSTORE PUSH1 0x4 ADD PUSH2 0x4221 SWAP4 SWAP3 SWAP2 SWAP1 PUSH2 0x7F55 JUMP JUMPDEST PUSH1 0x0 PUSH1 0x40 MLOAD DUP1 DUP4 SUB DUP2 PUSH1 0x0 DUP8 DUP1 EXTCODESIZE ISZERO DUP1 ISZERO PUSH2 0x423B JUMPI PUSH1 0x0 DUP1 REVERT JUMPDEST POP GAS CALL ISZERO DUP1 ISZERO PUSH2 0x424F JUMPI RETURNDATASIZE PUSH1 0x0 DUP1 RETURNDATACOPY RETURNDATASIZE PUSH1 0x0 REVERT JUMPDEST POP POP POP POP TIMESTAMP PUSH1 0x18 PUSH1 0x0 CALLER PUSH20 0xFFFFFFFFFFFFFFFFFFFFFFFFFFFFFFFFFFFFFFFF AND PUSH20 0xFFFFFFFFFFFFFFFFFFFFFFFFFFFFFFFFFFFFFFFF AND DUP2 MSTORE PUSH1 0x20 ADD SWAP1 DUP2 MSTORE PUSH1 0x20 ADD PUSH1 0x0 KECCAK256 DUP2 SWAP1 SSTORE POP CALLER PUSH20 0xFFFFFFFFFFFFFFFFFFFFFFFFFFFFFFFFFFFFFFFF AND PUSH32 0xE4DD259AB128527FE8B5FDAE0B44BDA8DB95A4DE10B999D63DCE142B1EB88D54 DUP5 DUP4 PUSH1 0x40 MLOAD PUSH2 0x42DF SWAP3 SWAP2 SWAP1 PUSH2 0x8379 JUMP JUMPDEST PUSH1 0x40 MLOAD DUP1 SWAP2 SUB SWAP1 LOG2 PUSH1 0x1 SWAP2 POP POP SWAP3 SWAP2 POP POP JUMP JUMPDEST PUSH1 0x0 PUSH2 0x42FC PUSH2 0x56AF JUMP JUMPDEST PUSH2 0x4304 PUSH2 0x5785 JUMP JUMPDEST POP PUSH1 0x0 PUSH1 0x40 MLOAD DUP1 PUSH1 0x40 ADD PUSH1 0x40 MSTORE DUP1 PUSH1 0x5 DUP2 MSTORE PUSH1 0x20 ADD PUSH32 0x4752414E54000000000000000000000000000000000000000000000000000000 DUP2 MSTORE POP SWAP1 POP DUP1 PUSH1 0x1B PUSH1 0x0 PUSH1 0x9 SLOAD DUP2 MSTORE PUSH1 0x20 ADD SWAP1 DUP2 MSTORE PUSH1 0x20 ADD PUSH1 0x0 KECCAK256 SWAP1 DUP1 MLOAD SWAP1 PUSH1 0x20 ADD SWAP1 PUSH2 0x4368 SWAP3 SWAP2 SWAP1 PUSH2 0x72E4 JUMP JUMPDEST POP DUP4 PUSH1 0x1A PUSH1 0x0 PUSH1 0x9 SLOAD DUP2 MSTORE PUSH1 0x20 ADD SWAP1 DUP2 MSTORE PUSH1 0x20 ADD PUSH1 0x0 KECCAK256 PUSH1 0x0 PUSH2 0x100 EXP DUP2 SLOAD DUP2 PUSH20 0xFFFFFFFFFFFFFFFFFFFFFFFFFFFFFFFFFFFFFFFF MUL NOT AND SWAP1 DUP4 PUSH20 0xFFFFFFFFFFFFFFFFFFFFFFFFFFFFFFFFFFFFFFFF AND MUL OR SWAP1 SSTORE POP DUP3 PUSH1 0x19 PUSH1 0x0 PUSH1 0x9 SLOAD DUP2 MSTORE PUSH1 0x20 ADD SWAP1 DUP2 MSTORE PUSH1 0x20 ADD PUSH1 0x0 KECCAK256 DUP2 SWAP1 SSTORE POP PUSH1 0x9 SLOAD CALLER PUSH20 0xFFFFFFFFFFFFFFFFFFFFFFFFFFFFFFFFFFFFFFFF AND PUSH32 0x8D500FCAD86FC64A281B94EF64D6D66ACBFC6862AA4FF2EE5FBBFB40736E803E DUP4 PUSH1 0x40 MLOAD PUSH2 0x4420 SWAP2 SWAP1 PUSH2 0x8101 JUMP JUMPDEST PUSH1 0x40 MLOAD DUP1 SWAP2 SUB SWAP1 LOG3 PUSH1 0x9 SLOAD SWAP2 POP POP SWAP3 SWAP2 POP POP JUMP JUMPDEST PUSH1 0x3 SLOAD PUSH1 0x1D PUSH1 0x0 PUSH1 0x9 SLOAD DUP2 MSTORE PUSH1 0x20 ADD SWAP1 DUP2 MSTORE PUSH1 0x20 ADD PUSH1 0x0 KECCAK256 SLOAD TIMESTAMP PUSH2 0x4458 SWAP2 SWAP1 PUSH2 0x860F JUMP JUMPDEST GT PUSH2 0x4498 JUMPI PUSH1 0x40 MLOAD PUSH32 0x8C379A000000000000000000000000000000000000000000000000000000000 DUP2 MSTORE PUSH1 0x4 ADD PUSH2 0x448F SWAP1 PUSH2 0x8183 JUMP JUMPDEST PUSH1 0x40 MLOAD DUP1 SWAP2 SUB SWAP1 REVERT JUMPDEST PUSH1 0x1 ISZERO ISZERO PUSH1 0x1E PUSH1 0x0 PUSH1 0x9 SLOAD DUP2 MSTORE PUSH1 0x20 ADD SWAP1 DUP2 MSTORE PUSH1 0x20 ADD PUSH1 0x0 KECCAK256 PUSH1 0x0 SWAP1 SLOAD SWAP1 PUSH2 0x100 EXP SWAP1 DIV PUSH1 0xFF AND ISZERO ISZERO EQ PUSH2 0x4501 JUMPI PUSH1 0x40 MLOAD PUSH32 0x8C379A000000000000000000000000000000000000000000000000000000000 DUP2 MSTORE PUSH1 0x4 ADD PUSH2 0x44F8 SWAP1 PUSH2 0x81A3 JUMP JUMPDEST PUSH1 0x40 MLOAD DUP1 SWAP2 SUB SWAP1 REVERT JUMPDEST PUSH2 0x450C PUSH1 0x9 SLOAD PUSH2 0x4CB6 JUMP JUMPDEST PUSH2 0x4543 JUMPI PUSH1 0x0 PUSH1 0x1E PUSH1 0x0 PUSH1 0x9 SLOAD DUP2 MSTORE PUSH1 0x20 ADD SWAP1 DUP2 MSTORE PUSH1 0x20 ADD PUSH1 0x0 KECCAK256 PUSH1 0x0 PUSH2 0x100 EXP DUP2 SLOAD DUP2 PUSH1 0xFF MUL NOT AND SWAP1 DUP4 ISZERO ISZERO MUL OR SWAP1 SSTORE POP PUSH2 0x4A33 JUMP JUMPDEST PUSH1 0x0 PUSH1 0x1B PUSH1 0x0 PUSH1 0x9 SLOAD DUP2 MSTORE PUSH1 0x20 ADD SWAP1 DUP2 MSTORE PUSH1 0x20 ADD PUSH1 0x0 KECCAK256 DUP1 SLOAD PUSH2 0x4565 SWAP1 PUSH2 0x8897 JUMP JUMPDEST DUP1 PUSH1 0x1F ADD PUSH1 0x20 DUP1 SWAP2 DIV MUL PUSH1 0x20 ADD PUSH1 0x40 MLOAD SWAP1 DUP2 ADD PUSH1 0x40 MSTORE DUP1 SWAP3 SWAP2 SWAP1 DUP2 DUP2 MSTORE PUSH1 0x20 ADD DUP3 DUP1 SLOAD PUSH2 0x4591 SWAP1 PUSH2 0x8897 JUMP JUMPDEST DUP1 ISZERO PUSH2 0x45DE JUMPI DUP1 PUSH1 0x1F LT PUSH2 0x45B3 JUMPI PUSH2 0x100 DUP1 DUP4 SLOAD DIV MUL DUP4 MSTORE SWAP2 PUSH1 0x20 ADD SWAP2 PUSH2 0x45DE JUMP JUMPDEST DUP3 ADD SWAP2 SWAP1 PUSH1 0x0 MSTORE PUSH1 0x20 PUSH1 0x0 KECCAK256 SWAP1 JUMPDEST DUP2 SLOAD DUP2 MSTORE SWAP1 PUSH1 0x1 ADD SWAP1 PUSH1 0x20 ADD DUP1 DUP4 GT PUSH2 0x45C1 JUMPI DUP3 SWAP1 SUB PUSH1 0x1F AND DUP3 ADD SWAP2 JUMPDEST POP POP POP POP POP SWAP1 POP PUSH2 0x4624 DUP2 PUSH1 0x40 MLOAD DUP1 PUSH1 0x40 ADD PUSH1 0x40 MSTORE DUP1 PUSH1 0x3 DUP2 MSTORE PUSH1 0x20 ADD PUSH32 0x44414F0000000000000000000000000000000000000000000000000000000000 DUP2 MSTORE POP PUSH2 0x5B22 JUMP JUMPDEST ISZERO PUSH2 0x4639 JUMPI PUSH2 0x4634 PUSH1 0x9 SLOAD PUSH2 0x64D0 JUMP JUMPDEST PUSH2 0x4A31 JUMP JUMPDEST PUSH2 0x4678 DUP2 PUSH1 0x40 MLOAD DUP1 PUSH1 0x40 ADD PUSH1 0x40 MSTORE DUP1 PUSH1 0x6 DUP2 MSTORE PUSH1 0x20 ADD PUSH32 0x524F555445520000000000000000000000000000000000000000000000000000 DUP2 MSTORE POP PUSH2 0x5B22 JUMP JUMPDEST ISZERO PUSH2 0x468D JUMPI PUSH2 0x4688 PUSH1 0x9 SLOAD PUSH2 0x666E JUMP JUMPDEST PUSH2 0x4A30 JUMP JUMPDEST PUSH2 0x46CC DUP2 PUSH1 0x40 MLOAD DUP1 PUSH1 0x40 ADD PUSH1 0x40 MSTORE DUP1 PUSH1 0x5 DUP2 MSTORE PUSH1 0x20 ADD PUSH32 0x5554494C53000000000000000000000000000000000000000000000000000000 DUP2 MSTORE POP PUSH2 0x5B22 JUMP JUMPDEST ISZERO PUSH2 0x46E1 JUMPI PUSH2 0x46DC PUSH1 0x9 SLOAD PUSH2 0x6764 JUMP JUMPDEST PUSH2 0x4A2F JUMP JUMPDEST PUSH2 0x4720 DUP2 PUSH1 0x40 MLOAD DUP1 PUSH1 0x40 ADD PUSH1 0x40 MSTORE DUP1 PUSH1 0x7 DUP2 MSTORE PUSH1 0x20 ADD PUSH32 0x5245534552564500000000000000000000000000000000000000000000000000 DUP2 MSTORE POP PUSH2 0x5B22 JUMP JUMPDEST ISZERO PUSH2 0x4735 JUMPI PUSH2 0x4730 PUSH1 0x9 SLOAD PUSH2 0x685A JUMP JUMPDEST PUSH2 0x4A2E JUMP JUMPDEST PUSH2 0x4774 DUP2 PUSH1 0x40 MLOAD DUP1 PUSH1 0x40 ADD PUSH1 0x40 MSTORE DUP1 PUSH1 0xE DUP2 MSTORE PUSH1 0x20 ADD PUSH32 0x464C49505F454D495353494F4E53000000000000000000000000000000000000 DUP2 MSTORE POP PUSH2 0x5B22 JUMP JUMPDEST ISZERO PUSH2 0x4789 JUMPI PUSH2 0x4784 PUSH1 0x9 SLOAD PUSH2 0x6950 JUMP JUMPDEST PUSH2 0x4A2D JUMP JUMPDEST PUSH2 0x47C8 DUP2 PUSH1 0x40 MLOAD DUP1 PUSH1 0x40 ADD PUSH1 0x40 MSTORE DUP1 PUSH1 0x8 DUP2 MSTORE PUSH1 0x20 ADD PUSH32 0x434F4F4C5F4F4646000000000000000000000000000000000000000000000000 DUP2 MSTORE POP PUSH2 0x5B22 JUMP JUMPDEST ISZERO PUSH2 0x47DD JUMPI PUSH2 0x47D8 PUSH1 0x9 SLOAD PUSH2 0x69DE JUMP JUMPDEST PUSH2 0x4A2C JUMP JUMPDEST PUSH2 0x481C DUP2 PUSH1 0x40 MLOAD DUP1 PUSH1 0x40 ADD PUSH1 0x40 MSTORE DUP1 PUSH1 0xC DUP2 MSTORE PUSH1 0x20 ADD PUSH32 0x455241535F544F5F4541524E0000000000000000000000000000000000000000 DUP2 MSTORE POP PUSH2 0x5B22 JUMP JUMPDEST ISZERO PUSH2 0x4831 JUMPI PUSH2 0x482C PUSH1 0x9 SLOAD PUSH2 0x6A4E JUMP JUMPDEST PUSH2 0x4A2B JUMP JUMPDEST PUSH2 0x4870 DUP2 PUSH1 0x40 MLOAD DUP1 PUSH1 0x40 ADD PUSH1 0x40 MSTORE DUP1 PUSH1 0x5 DUP2 MSTORE PUSH1 0x20 ADD PUSH32 0x4752414E54000000000000000000000000000000000000000000000000000000 DUP2 MSTORE POP PUSH2 0x5B22 JUMP JUMPDEST ISZERO PUSH2 0x4885 JUMPI PUSH2 0x4880 PUSH1 0x9 SLOAD PUSH2 0x6ABE JUMP JUMPDEST PUSH2 0x4A2A JUMP JUMPDEST PUSH2 0x48C4 DUP2 PUSH1 0x40 MLOAD DUP1 PUSH1 0x40 ADD PUSH1 0x40 MSTORE DUP1 PUSH1 0xA DUP2 MSTORE PUSH1 0x20 ADD PUSH32 0x4745545F53504152544100000000000000000000000000000000000000000000 DUP2 MSTORE POP PUSH2 0x5B22 JUMP JUMPDEST ISZERO PUSH2 0x48D9 JUMPI PUSH2 0x48D4 PUSH1 0x9 SLOAD PUSH2 0x6C5F JUMP JUMPDEST PUSH2 0x4A29 JUMP JUMPDEST PUSH2 0x4918 DUP2 PUSH1 0x40 MLOAD DUP1 PUSH1 0x40 ADD PUSH1 0x40 MSTORE DUP1 PUSH1 0x9 DUP2 MSTORE PUSH1 0x20 ADD PUSH32 0x4C4953545F424F4E440000000000000000000000000000000000000000000000 DUP2 MSTORE POP PUSH2 0x5B22 JUMP JUMPDEST ISZERO PUSH2 0x492D JUMPI PUSH2 0x4928 PUSH1 0x9 SLOAD PUSH2 0x6D0B JUMP JUMPDEST PUSH2 0x4A28 JUMP JUMPDEST PUSH2 0x496C DUP2 PUSH1 0x40 MLOAD DUP1 PUSH1 0x40 ADD PUSH1 0x40 MSTORE DUP1 PUSH1 0xB DUP2 MSTORE PUSH1 0x20 ADD PUSH32 0x44454C4953545F424F4E44000000000000000000000000000000000000000000 DUP2 MSTORE POP PUSH2 0x5B22 JUMP JUMPDEST ISZERO PUSH2 0x4981 JUMPI PUSH2 0x497C PUSH1 0x9 SLOAD PUSH2 0x6E5D JUMP JUMPDEST PUSH2 0x4A27 JUMP JUMPDEST PUSH2 0x49C0 DUP2 PUSH1 0x40 MLOAD DUP1 PUSH1 0x40 ADD PUSH1 0x40 MSTORE DUP1 PUSH1 0x10 DUP2 MSTORE PUSH1 0x20 ADD PUSH32 0x4144445F435552415445445F504F4F4C00000000000000000000000000000000 DUP2 MSTORE POP PUSH2 0x5B22 JUMP JUMPDEST ISZERO PUSH2 0x49D5 JUMPI PUSH2 0x49D0 PUSH1 0x9 SLOAD PUSH2 0x6EFA JUMP JUMPDEST PUSH2 0x4A26 JUMP JUMPDEST PUSH2 0x4A14 DUP2 PUSH1 0x40 MLOAD DUP1 PUSH1 0x40 ADD PUSH1 0x40 MSTORE DUP1 PUSH1 0x13 DUP2 MSTORE PUSH1 0x20 ADD PUSH32 0x52454D4F56455F435552415445445F504F4F4C00000000000000000000000000 DUP2 MSTORE POP PUSH2 0x5B22 JUMP JUMPDEST ISZERO PUSH2 0x4A25 JUMPI PUSH2 0x4A24 PUSH1 0x9 SLOAD PUSH2 0x6FCC JUMP JUMPDEST JUMPDEST JUMPDEST JUMPDEST JUMPDEST JUMPDEST JUMPDEST JUMPDEST JUMPDEST JUMPDEST JUMPDEST JUMPDEST JUMPDEST JUMPDEST POP JUMPDEST JUMP JUMPDEST PUSH1 0x3 SLOAD DUP2 JUMP JUMPDEST PUSH1 0x1A PUSH1 0x20 MSTORE DUP1 PUSH1 0x0 MSTORE PUSH1 0x40 PUSH1 0x0 KECCAK256 PUSH1 0x0 SWAP2 POP SLOAD SWAP1 PUSH2 0x100 EXP SWAP1 DIV PUSH20 0xFFFFFFFFFFFFFFFFFFFFFFFFFFFFFFFFFFFFFFFF AND DUP2 JUMP JUMPDEST PUSH1 0x0 DUP1 SLOAD SWAP1 PUSH2 0x100 EXP SWAP1 DIV PUSH20 0xFFFFFFFFFFFFFFFFFFFFFFFFFFFFFFFFFFFFFFFF AND PUSH20 0xFFFFFFFFFFFFFFFFFFFFFFFFFFFFFFFFFFFFFFFF AND CALLER PUSH20 0xFFFFFFFFFFFFFFFFFFFFFFFFFFFFFFFFFFFFFFFF AND EQ PUSH2 0x4AC6 JUMPI PUSH1 0x0 DUP1 REVERT JUMPDEST DUP1 PUSH1 0x15 DUP2 SWAP1 SSTORE POP POP JUMP JUMPDEST PUSH1 0x21 PUSH1 0x20 MSTORE DUP1 PUSH1 0x0 MSTORE PUSH1 0x40 PUSH1 0x0 KECCAK256 PUSH1 0x0 SWAP2 POP SWAP1 POP SLOAD DUP2 JUMP JUMPDEST PUSH1 0x0 PUSH1 0xA PUSH1 0x0 SWAP1 SLOAD SWAP1 PUSH2 0x100 EXP SWAP1 DIV PUSH1 0xFF AND ISZERO PUSH2 0x4BA6 JUMPI PUSH1 0xA PUSH1 0x1 SWAP1 SLOAD SWAP1 PUSH2 0x100 EXP SWAP1 DIV PUSH20 0xFFFFFFFFFFFFFFFFFFFFFFFFFFFFFFFFFFFFFFFF AND PUSH20 0xFFFFFFFFFFFFFFFFFFFFFFFFFFFFFFFFFFFFFFFF AND PUSH4 0xB93EC54B PUSH1 0x40 MLOAD DUP2 PUSH4 0xFFFFFFFF AND PUSH1 0xE0 SHL DUP2 MSTORE PUSH1 0x4 ADD PUSH1 0x20 PUSH1 0x40 MLOAD DUP1 DUP4 SUB DUP2 DUP7 DUP1 EXTCODESIZE ISZERO DUP1 ISZERO PUSH2 0x4B67 JUMPI PUSH1 0x0 DUP1 REVERT JUMPDEST POP GAS STATICCALL ISZERO DUP1 ISZERO PUSH2 0x4B7B JUMPI RETURNDATASIZE PUSH1 0x0 DUP1 RETURNDATACOPY RETURNDATASIZE PUSH1 0x0 REVERT JUMPDEST POP POP POP POP PUSH1 0x40 MLOAD RETURNDATASIZE PUSH1 0x1F NOT PUSH1 0x1F DUP3 ADD AND DUP3 ADD DUP1 PUSH1 0x40 MSTORE POP DUP2 ADD SWAP1 PUSH2 0x4B9F SWAP2 SWAP1 PUSH2 0x7836 JUMP JUMPDEST SWAP1 POP PUSH2 0x4BCC JUMP JUMPDEST PUSH1 0x10 PUSH1 0x0 SWAP1 SLOAD SWAP1 PUSH2 0x100 EXP SWAP1 DIV PUSH20 0xFFFFFFFFFFFFFFFFFFFFFFFFFFFFFFFFFFFFFFFF AND SWAP1 POP JUMPDEST SWAP1 JUMP JUMPDEST PUSH1 0x0 PUSH1 0xA PUSH1 0x0 SWAP1 SLOAD SWAP1 PUSH2 0x100 EXP SWAP1 DIV PUSH1 0xFF AND ISZERO PUSH2 0x4C8D JUMPI PUSH1 0xA PUSH1 0x1 SWAP1 SLOAD SWAP1 PUSH2 0x100 EXP SWAP1 DIV PUSH20 0xFFFFFFFFFFFFFFFFFFFFFFFFFFFFFFFFFFFFFFFF AND PUSH20 0xFFFFFFFFFFFFFFFFFFFFFFFFFFFFFFFFFFFFFFFF AND PUSH4 0xB99B0A0C PUSH1 0x40 MLOAD DUP2 PUSH4 0xFFFFFFFF AND PUSH1 0xE0 SHL DUP2 MSTORE PUSH1 0x4 ADD PUSH1 0x20 PUSH1 0x40 MLOAD DUP1 DUP4 SUB DUP2 DUP7 DUP1 EXTCODESIZE ISZERO DUP1 ISZERO PUSH2 0x4C4E JUMPI PUSH1 0x0 DUP1 REVERT JUMPDEST POP GAS STATICCALL ISZERO DUP1 ISZERO PUSH2 0x4C62 JUMPI RETURNDATASIZE PUSH1 0x0 DUP1 RETURNDATACOPY RETURNDATASIZE PUSH1 0x0 REVERT JUMPDEST POP POP POP POP PUSH1 0x40 MLOAD RETURNDATASIZE PUSH1 0x1F NOT PUSH1 0x1F DUP3 ADD AND DUP3 ADD DUP1 PUSH1 0x40 MSTORE POP DUP2 ADD SWAP1 PUSH2 0x4C86 SWAP2 SWAP1 PUSH2 0x77BB JUMP JUMPDEST SWAP1 POP PUSH2 0x4CB3 JUMP JUMPDEST PUSH1 0xF PUSH1 0x0 SWAP1 SLOAD SWAP1 PUSH2 0x100 EXP SWAP1 DIV PUSH20 0xFFFFFFFFFFFFFFFFFFFFFFFFFFFFFFFFFFFFFFFF AND SWAP1 POP JUMPDEST SWAP1 JUMP JUMPDEST PUSH1 0x0 DUP1 PUSH1 0x1C PUSH1 0x0 DUP5 DUP2 MSTORE PUSH1 0x20 ADD SWAP1 DUP2 MSTORE PUSH1 0x20 ADD PUSH1 0x0 KECCAK256 SLOAD SWAP1 POP PUSH1 0x0 PUSH1 0xD PUSH1 0x0 SWAP1 SLOAD SWAP1 PUSH2 0x100 EXP SWAP1 DIV PUSH20 0xFFFFFFFFFFFFFFFFFFFFFFFFFFFFFFFFFFFFFFFF AND PUSH20 0xFFFFFFFFFFFFFFFFFFFFFFFFFFFFFFFFFFFFFFFF AND PUSH4 0x96C82E57 PUSH1 0x40 MLOAD DUP2 PUSH4 0xFFFFFFFF AND PUSH1 0xE0 SHL DUP2 MSTORE PUSH1 0x4 ADD PUSH1 0x20 PUSH1 0x40 MLOAD DUP1 DUP4 SUB DUP2 DUP7 DUP1 EXTCODESIZE ISZERO DUP1 ISZERO PUSH2 0x4D39 JUMPI PUSH1 0x0 DUP1 REVERT JUMPDEST POP GAS STATICCALL ISZERO DUP1 ISZERO PUSH2 0x4D4D JUMPI RETURNDATASIZE PUSH1 0x0 DUP1 RETURNDATACOPY RETURNDATASIZE PUSH1 0x0 REVERT JUMPDEST POP POP POP POP PUSH1 0x40 MLOAD RETURNDATASIZE PUSH1 0x1F NOT PUSH1 0x1F DUP3 ADD AND DUP3 ADD DUP1 PUSH1 0x40 MSTORE POP DUP2 ADD SWAP1 PUSH2 0x4D71 SWAP2 SWAP1 PUSH2 0x791B JUMP JUMPDEST PUSH1 0xE PUSH1 0x0 SWAP1 SLOAD SWAP1 PUSH2 0x100 EXP SWAP1 DIV PUSH20 0xFFFFFFFFFFFFFFFFFFFFFFFFFFFFFFFFFFFFFFFF AND PUSH20 0xFFFFFFFFFFFFFFFFFFFFFFFFFFFFFFFFFFFFFFFF AND PUSH4 0x96C82E57 PUSH1 0x40 MLOAD DUP2 PUSH4 0xFFFFFFFF AND PUSH1 0xE0 SHL DUP2 MSTORE PUSH1 0x4 ADD PUSH1 0x20 PUSH1 0x40 MLOAD DUP1 DUP4 SUB DUP2 DUP7 DUP1 EXTCODESIZE ISZERO DUP1 ISZERO PUSH2 0x4DD9 JUMPI PUSH1 0x0 DUP1 REVERT JUMPDEST POP GAS STATICCALL ISZERO DUP1 ISZERO PUSH2 0x4DED JUMPI RETURNDATASIZE PUSH1 0x0 DUP1 RETURNDATACOPY RETURNDATASIZE PUSH1 0x0 REVERT JUMPDEST POP POP POP POP PUSH1 0x40 MLOAD RETURNDATASIZE PUSH1 0x1F NOT PUSH1 0x1F DUP3 ADD AND DUP3 ADD DUP1 PUSH1 0x40 MSTORE POP DUP2 ADD SWAP1 PUSH2 0x4E11 SWAP2 SWAP1 PUSH2 0x791B JUMP JUMPDEST PUSH2 0x4E1B SWAP2 SWAP1 PUSH2 0x852E JUMP JUMPDEST SWAP1 POP PUSH1 0x0 PUSH1 0x2 DUP3 PUSH2 0x4E2C SWAP2 SWAP1 PUSH2 0x8584 JUMP JUMPDEST SWAP1 POP DUP1 DUP4 GT ISZERO PUSH2 0x4E42 JUMPI PUSH1 0x1 SWAP4 POP POP POP POP PUSH2 0x4E4A JUMP JUMPDEST PUSH1 0x0 SWAP4 POP POP POP POP JUMPDEST SWAP2 SWAP1 POP JUMP JUMPDEST PUSH1 0x0 DUP1 PUSH1 0x0 SWAP1 SLOAD SWAP1 PUSH2 0x100 EXP SWAP1 DIV PUSH20 0xFFFFFFFFFFFFFFFFFFFFFFFFFFFFFFFFFFFFFFFF AND PUSH20 0xFFFFFFFFFFFFFFFFFFFFFFFFFFFFFFFFFFFFFFFF AND CALLER PUSH20 0xFFFFFFFFFFFFFFFFFFFFFFFFFFFFFFFFFFFFFFFF AND EQ PUSH2 0x4EAA JUMPI PUSH1 0x0 DUP1 REVERT JUMPDEST PUSH1 0x0 PUSH1 0x1 PUSH1 0x0 SWAP1 SLOAD SWAP1 PUSH2 0x100 EXP SWAP1 DIV PUSH20 0xFFFFFFFFFFFFFFFFFFFFFFFFFFFFFFFFFFFFFFFF AND PUSH20 0xFFFFFFFFFFFFFFFFFFFFFFFFFFFFFFFFFFFFFFFF AND PUSH4 0x70A08231 ADDRESS PUSH1 0x40 MLOAD DUP3 PUSH4 0xFFFFFFFF AND PUSH1 0xE0 SHL DUP2 MSTORE PUSH1 0x4 ADD PUSH2 0x4F07 SWAP2 SWAP1 PUSH2 0x7F11 JUMP JUMPDEST PUSH1 0x20 PUSH1 0x40 MLOAD DUP1 DUP4 SUB DUP2 DUP7 DUP1 EXTCODESIZE ISZERO DUP1 ISZERO PUSH2 0x4F1F JUMPI PUSH1 0x0 DUP1 REVERT JUMPDEST POP GAS STATICCALL ISZERO DUP1 ISZERO PUSH2 0x4F33 JUMPI RETURNDATASIZE PUSH1 0x0 DUP1 RETURNDATACOPY RETURNDATASIZE PUSH1 0x0 REVERT JUMPDEST POP POP POP POP PUSH1 0x40 MLOAD RETURNDATASIZE PUSH1 0x1F NOT PUSH1 0x1F DUP3 ADD AND DUP3 ADD DUP1 PUSH1 0x40 MSTORE POP DUP2 ADD SWAP1 PUSH2 0x4F57 SWAP2 SWAP1 PUSH2 0x791B JUMP JUMPDEST SWAP1 POP PUSH1 0x1 PUSH1 0x0 SWAP1 SLOAD SWAP1 PUSH2 0x100 EXP SWAP1 DIV PUSH20 0xFFFFFFFFFFFFFFFFFFFFFFFFFFFFFFFFFFFFFFFF AND PUSH20 0xFFFFFFFFFFFFFFFFFFFFFFFFFFFFFFFFFFFFFFFF AND PUSH4 0x42966C68 DUP3 PUSH1 0x40 MLOAD DUP3 PUSH4 0xFFFFFFFF AND PUSH1 0xE0 SHL DUP2 MSTORE PUSH1 0x4 ADD PUSH2 0x4FB4 SWAP2 SWAP1 PUSH2 0x8305 JUMP JUMPDEST PUSH1 0x0 PUSH1 0x40 MLOAD DUP1 DUP4 SUB DUP2 PUSH1 0x0 DUP8 DUP1 EXTCODESIZE ISZERO DUP1 ISZERO PUSH2 0x4FCE JUMPI PUSH1 0x0 DUP1 REVERT JUMPDEST POP GAS CALL ISZERO DUP1 ISZERO PUSH2 0x4FE2 JUMPI RETURNDATASIZE PUSH1 0x0 DUP1 RETURNDATACOPY RETURNDATASIZE PUSH1 0x0 REVERT JUMPDEST POP POP POP POP PUSH1 0x1 SWAP2 POP POP SWAP1 JUMP JUMPDEST PUSH1 0x1B PUSH1 0x20 MSTORE DUP1 PUSH1 0x0 MSTORE PUSH1 0x40 PUSH1 0x0 KECCAK256 PUSH1 0x0 SWAP2 POP SWAP1 POP DUP1 SLOAD PUSH2 0x500D SWAP1 PUSH2 0x8897 JUMP JUMPDEST DUP1 PUSH1 0x1F ADD PUSH1 0x20 DUP1 SWAP2 DIV MUL PUSH1 0x20 ADD PUSH1 0x40 MLOAD SWAP1 DUP2 ADD PUSH1 0x40 MSTORE DUP1 SWAP3 SWAP2 SWAP1 DUP2 DUP2 MSTORE PUSH1 0x20 ADD DUP3 DUP1 SLOAD PUSH2 0x5039 SWAP1 PUSH2 0x8897 JUMP JUMPDEST DUP1 ISZERO PUSH2 0x5086 JUMPI DUP1 PUSH1 0x1F LT PUSH2 0x505B JUMPI PUSH2 0x100 DUP1 DUP4 SLOAD DIV MUL DUP4 MSTORE SWAP2 PUSH1 0x20 ADD SWAP2 PUSH2 0x5086 JUMP JUMPDEST DUP3 ADD SWAP2 SWAP1 PUSH1 0x0 MSTORE PUSH1 0x20 PUSH1 0x0 KECCAK256 SWAP1 JUMPDEST DUP2 SLOAD DUP2 MSTORE SWAP1 PUSH1 0x1 ADD SWAP1 PUSH1 0x20 ADD DUP1 DUP4 GT PUSH2 0x5069 JUMPI DUP3 SWAP1 SUB PUSH1 0x1F AND DUP3 ADD SWAP2 JUMPDEST POP POP POP POP POP DUP2 JUMP JUMPDEST PUSH1 0x0 DUP1 SLOAD SWAP1 PUSH2 0x100 EXP SWAP1 DIV PUSH20 0xFFFFFFFFFFFFFFFFFFFFFFFFFFFFFFFFFFFFFFFF AND DUP2 JUMP JUMPDEST PUSH1 0x22 PUSH1 0x20 MSTORE DUP2 PUSH1 0x0 MSTORE PUSH1 0x40 PUSH1 0x0 KECCAK256 PUSH1 0x20 MSTORE DUP1 PUSH1 0x0 MSTORE PUSH1 0x40 PUSH1 0x0 KECCAK256 PUSH1 0x0 SWAP2 POP SWAP2 POP POP SLOAD DUP2 JUMP JUMPDEST PUSH1 0x0 DUP1 PUSH1 0x1C PUSH1 0x0 DUP5 DUP2 MSTORE PUSH1 0x20 ADD SWAP1 DUP2 MSTORE PUSH1 0x20 ADD PUSH1 0x0 KECCAK256 SLOAD SWAP1 POP PUSH1 0x0 PUSH1 0xD PUSH1 0x0 SWAP1 SLOAD SWAP1 PUSH2 0x100 EXP SWAP1 DIV PUSH20 0xFFFFFFFFFFFFFFFFFFFFFFFFFFFFFFFFFFFFFFFF AND PUSH20 0xFFFFFFFFFFFFFFFFFFFFFFFFFFFFFFFFFFFFFFFF AND PUSH4 0x96C82E57 PUSH1 0x40 MLOAD DUP2 PUSH4 0xFFFFFFFF AND PUSH1 0xE0 SHL DUP2 MSTORE PUSH1 0x4 ADD PUSH1 0x20 PUSH1 0x40 MLOAD DUP1 DUP4 SUB DUP2 DUP7 DUP1 EXTCODESIZE ISZERO DUP1 ISZERO PUSH2 0x515A JUMPI PUSH1 0x0 DUP1 REVERT JUMPDEST POP GAS STATICCALL ISZERO DUP1 ISZERO PUSH2 0x516E JUMPI RETURNDATASIZE PUSH1 0x0 DUP1 RETURNDATACOPY RETURNDATASIZE PUSH1 0x0 REVERT JUMPDEST POP POP POP POP PUSH1 0x40 MLOAD RETURNDATASIZE PUSH1 0x1F NOT PUSH1 0x1F DUP3 ADD AND DUP3 ADD DUP1 PUSH1 0x40 MSTORE POP DUP2 ADD SWAP1 PUSH2 0x5192 SWAP2 SWAP1 PUSH2 0x791B JUMP JUMPDEST PUSH1 0xE PUSH1 0x0 SWAP1 SLOAD SWAP1 PUSH2 0x100 EXP SWAP1 DIV PUSH20 0xFFFFFFFFFFFFFFFFFFFFFFFFFFFFFFFFFFFFFFFF AND PUSH20 0xFFFFFFFFFFFFFFFFFFFFFFFFFFFFFFFFFFFFFFFF AND PUSH4 0x96C82E57 PUSH1 0x40 MLOAD DUP2 PUSH4 0xFFFFFFFF AND PUSH1 0xE0 SHL DUP2 MSTORE PUSH1 0x4 ADD PUSH1 0x20 PUSH1 0x40 MLOAD DUP1 DUP4 SUB DUP2 DUP7 DUP1 EXTCODESIZE ISZERO DUP1 ISZERO PUSH2 0x51FA JUMPI PUSH1 0x0 DUP1 REVERT JUMPDEST POP GAS STATICCALL ISZERO DUP1 ISZERO PUSH2 0x520E JUMPI RETURNDATASIZE PUSH1 0x0 DUP1 RETURNDATACOPY RETURNDATASIZE PUSH1 0x0 REVERT JUMPDEST POP POP POP POP PUSH1 0x40 MLOAD RETURNDATASIZE PUSH1 0x1F NOT PUSH1 0x1F DUP3 ADD AND DUP3 ADD DUP1 PUSH1 0x40 MSTORE POP DUP2 ADD SWAP1 PUSH2 0x5232 SWAP2 SWAP1 PUSH2 0x791B JUMP JUMPDEST PUSH2 0x523C SWAP2 SWAP1 PUSH2 0x852E JUMP JUMPDEST SWAP1 POP PUSH1 0x0 PUSH1 0x6 DUP3 PUSH2 0x524D SWAP2 SWAP1 PUSH2 0x8584 JUMP JUMPDEST SWAP1 POP DUP1 DUP4 GT ISZERO PUSH2 0x5263 JUMPI PUSH1 0x1 SWAP4 POP POP POP POP PUSH2 0x526B JUMP JUMPDEST PUSH1 0x0 SWAP4 POP POP POP POP JUMPDEST SWAP2 SWAP1 POP JUMP JUMPDEST PUSH1 0x0 PUSH2 0x527A PUSH2 0x56AF JUMP JUMPDEST PUSH2 0x5282 PUSH2 0x5785 JUMP JUMPDEST POP DUP2 PUSH1 0x1B PUSH1 0x0 PUSH1 0x9 SLOAD DUP2 MSTORE PUSH1 0x20 ADD SWAP1 DUP2 MSTORE PUSH1 0x20 ADD PUSH1 0x0 KECCAK256 SWAP1 DUP1 MLOAD SWAP1 PUSH1 0x20 ADD SWAP1 PUSH2 0x52AC SWAP3 SWAP2 SWAP1 PUSH2 0x72E4 JUMP JUMPDEST POP PUSH1 0x9 SLOAD CALLER PUSH20 0xFFFFFFFFFFFFFFFFFFFFFFFFFFFFFFFFFFFFFFFF AND PUSH32 0x8D500FCAD86FC64A281B94EF64D6D66ACBFC6862AA4FF2EE5FBBFB40736E803E DUP5 PUSH1 0x40 MLOAD PUSH2 0x52F6 SWAP2 SWAP1 PUSH2 0x8101 JUMP JUMPDEST PUSH1 0x40 MLOAD DUP1 SWAP2 SUB SWAP1 LOG3 PUSH1 0x9 SLOAD SWAP1 POP SWAP2 SWAP1 POP JUMP JUMPDEST PUSH1 0x4 SLOAD DUP2 JUMP JUMPDEST PUSH1 0x1C PUSH1 0x20 MSTORE DUP1 PUSH1 0x0 MSTORE PUSH1 0x40 PUSH1 0x0 KECCAK256 PUSH1 0x0 SWAP2 POP SWAP1 POP SLOAD DUP2 JUMP JUMPDEST PUSH1 0x0 DUP1 SLOAD SWAP1 PUSH2 0x100 EXP SWAP1 DIV PUSH20 0xFFFFFFFFFFFFFFFFFFFFFFFFFFFFFFFFFFFFFFFF AND PUSH20 0xFFFFFFFFFFFFFFFFFFFFFFFFFFFFFFFFFFFFFFFF AND CALLER PUSH20 0xFFFFFFFFFFFFFFFFFFFFFFFFFFFFFFFFFFFFFFFF AND EQ PUSH2 0x537E JUMPI PUSH1 0x0 DUP1 REVERT JUMPDEST PUSH1 0x0 PUSH1 0x17 PUSH1 0x0 DUP4 PUSH20 0xFFFFFFFFFFFFFFFFFFFFFFFFFFFFFFFFFFFFFFFF AND PUSH20 0xFFFFFFFFFFFFFFFFFFFFFFFFFFFFFFFFFFFFFFFF AND DUP2 MSTORE PUSH1 0x20 ADD SWAP1 DUP2 MSTORE PUSH1 0x20 ADD PUSH1 0x0 KECCAK256 PUSH1 0x0 PUSH2 0x100 EXP DUP2 SLOAD DUP2 PUSH1 0xFF MUL NOT AND SWAP1 DUP4 ISZERO ISZERO MUL OR SWAP1 SSTORE POP DUP1 PUSH20 0xFFFFFFFFFFFFFFFFFFFFFFFFFFFFFFFFFFFFFFFF AND CALLER PUSH20 0xFFFFFFFFFFFFFFFFFFFFFFFFFFFFFFFFFFFFFFFF AND PUSH32 0xF487C2322BAA448CFA506B983134D9DD9F27D0BBFE0B48119A3908D4F0DDE89F PUSH1 0x40 MLOAD PUSH1 0x40 MLOAD DUP1 SWAP2 SUB SWAP1 LOG3 POP JUMP JUMPDEST PUSH1 0x0 DUP1 PUSH2 0x5440 CALLER DUP5 PUSH2 0x550B JUMP JUMPDEST SWAP1 POP PUSH1 0x0 DUP2 GT ISZERO PUSH2 0x54DB JUMPI PUSH1 0xD PUSH1 0x0 SWAP1 SLOAD SWAP1 PUSH2 0x100 EXP SWAP1 DIV PUSH20 0xFFFFFFFFFFFFFFFFFFFFFFFFFFFFFFFFFFFFFFFF AND PUSH20 0xFFFFFFFFFFFFFFFFFFFFFFFFFFFFFFFFFFFFFFFF AND PUSH4 0x5BC262BE DUP5 CALLER PUSH1 0x40 MLOAD DUP4 PUSH4 0xFFFFFFFF AND PUSH1 0xE0 SHL DUP2 MSTORE PUSH1 0x4 ADD PUSH2 0x54A8 SWAP3 SWAP2 SWAP1 PUSH2 0x7F2C JUMP JUMPDEST PUSH1 0x0 PUSH1 0x40 MLOAD DUP1 DUP4 SUB DUP2 PUSH1 0x0 DUP8 DUP1 EXTCODESIZE ISZERO DUP1 ISZERO PUSH2 0x54C2 JUMPI PUSH1 0x0 DUP1 REVERT JUMPDEST POP GAS CALL ISZERO DUP1 ISZERO PUSH2 0x54D6 JUMPI RETURNDATASIZE PUSH1 0x0 DUP1 RETURNDATACOPY RETURNDATASIZE PUSH1 0x0 REVERT JUMPDEST POP POP POP POP JUMPDEST PUSH1 0x1 SWAP2 POP POP SWAP2 SWAP1 POP JUMP JUMPDEST PUSH1 0x1 PUSH1 0x0 SWAP1 SLOAD SWAP1 PUSH2 0x100 EXP SWAP1 DIV PUSH20 0xFFFFFFFFFFFFFFFFFFFFFFFFFFFFFFFFFFFFFFFF AND DUP2 JUMP JUMPDEST PUSH1 0x0 DUP1 PUSH1 0xD PUSH1 0x0 SWAP1 SLOAD SWAP1 PUSH2 0x100 EXP SWAP1 DIV PUSH20 0xFFFFFFFFFFFFFFFFFFFFFFFFFFFFFFFFFFFFFFFF AND PUSH20 0xFFFFFFFFFFFFFFFFFFFFFFFFFFFFFFFFFFFFFFFF AND PUSH4 0xBA0BA54F DUP6 DUP6 PUSH1 0x40 MLOAD DUP4 PUSH4 0xFFFFFFFF AND PUSH1 0xE0 SHL DUP2 MSTORE PUSH1 0x4 ADD PUSH2 0x556B SWAP3 SWAP2 SWAP1 PUSH2 0x7F2C JUMP JUMPDEST PUSH1 0x20 PUSH1 0x40 MLOAD DUP1 DUP4 SUB DUP2 PUSH1 0x0 DUP8 DUP1 EXTCODESIZE ISZERO DUP1 ISZERO PUSH2 0x5585 JUMPI PUSH1 0x0 DUP1 REVERT JUMPDEST POP GAS CALL ISZERO DUP1 ISZERO PUSH2 0x5599 JUMPI RETURNDATASIZE PUSH1 0x0 DUP1 RETURNDATACOPY RETURNDATASIZE PUSH1 0x0 REVERT JUMPDEST POP POP POP POP PUSH1 0x40 MLOAD RETURNDATASIZE PUSH1 0x1F NOT PUSH1 0x1F DUP3 ADD AND DUP3 ADD DUP1 PUSH1 0x40 MSTORE POP DUP2 ADD SWAP1 PUSH2 0x55BD SWAP2 SWAP1 PUSH2 0x791B JUMP JUMPDEST SWAP1 POP DUP1 SWAP2 POP POP SWAP3 SWAP2 POP POP JUMP JUMPDEST PUSH1 0x0 PUSH2 0x55D3 PUSH2 0x56AF JUMP JUMPDEST PUSH2 0x55DB PUSH2 0x5785 JUMP JUMPDEST POP DUP3 PUSH4 0xFFFFFFFF AND PUSH1 0x19 PUSH1 0x0 PUSH1 0x9 SLOAD DUP2 MSTORE PUSH1 0x20 ADD SWAP1 DUP2 MSTORE PUSH1 0x20 ADD PUSH1 0x0 KECCAK256 DUP2 SWAP1 SSTORE POP DUP2 PUSH1 0x1B PUSH1 0x0 PUSH1 0x9 SLOAD DUP2 MSTORE PUSH1 0x20 ADD SWAP1 DUP2 MSTORE PUSH1 0x20 ADD PUSH1 0x0 KECCAK256 SWAP1 DUP1 MLOAD SWAP1 PUSH1 0x20 ADD SWAP1 PUSH2 0x5625 SWAP3 SWAP2 SWAP1 PUSH2 0x72E4 JUMP JUMPDEST POP PUSH1 0x9 SLOAD CALLER PUSH20 0xFFFFFFFFFFFFFFFFFFFFFFFFFFFFFFFFFFFFFFFF AND PUSH32 0x8D500FCAD86FC64A281B94EF64D6D66ACBFC6862AA4FF2EE5FBBFB40736E803E DUP5 PUSH1 0x40 MLOAD PUSH2 0x566F SWAP2 SWAP1 PUSH2 0x8101 JUMP JUMPDEST PUSH1 0x40 MLOAD DUP1 SWAP2 SUB SWAP1 LOG3 PUSH1 0x9 SLOAD SWAP1 POP SWAP3 SWAP2 POP POP JUMP JUMPDEST PUSH1 0x17 PUSH1 0x20 MSTORE DUP1 PUSH1 0x0 MSTORE PUSH1 0x40 PUSH1 0x0 KECCAK256 PUSH1 0x0 SWAP2 POP SLOAD SWAP1 PUSH2 0x100 EXP SWAP1 DIV PUSH1 0xFF AND DUP2 JUMP JUMPDEST PUSH1 0x0 PUSH1 0x14 DUP1 SLOAD SWAP1 POP SWAP1 POP SWAP1 JUMP JUMPDEST PUSH1 0x0 ISZERO ISZERO PUSH1 0x20 PUSH1 0x0 PUSH1 0x9 SLOAD DUP2 MSTORE PUSH1 0x20 ADD SWAP1 DUP2 MSTORE PUSH1 0x20 ADD PUSH1 0x0 KECCAK256 PUSH1 0x0 SWAP1 SLOAD SWAP1 PUSH2 0x100 EXP SWAP1 DIV PUSH1 0xFF AND ISZERO ISZERO EQ PUSH2 0x5718 JUMPI PUSH1 0x40 MLOAD PUSH32 0x8C379A000000000000000000000000000000000000000000000000000000000 DUP2 MSTORE PUSH1 0x4 ADD PUSH2 0x570F SWAP1 PUSH2 0x82A3 JUMP JUMPDEST PUSH1 0x40 MLOAD DUP1 SWAP2 SUB SWAP1 REVERT JUMPDEST PUSH1 0x1 PUSH1 0x4 PUSH1 0x0 DUP3 DUP3 SLOAD PUSH2 0x572B SWAP2 SWAP1 PUSH2 0x852E JUMP JUMPDEST SWAP3 POP POP DUP2 SWAP1 SSTORE POP PUSH1 0x4 SLOAD PUSH1 0x9 DUP2 SWAP1 SSTORE POP PUSH1 0x1 PUSH1 0x20 PUSH1 0x0 PUSH1 0x9 SLOAD DUP2 MSTORE PUSH1 0x20 ADD SWAP1 DUP2 MSTORE PUSH1 0x20 ADD PUSH1 0x0 KECCAK256 PUSH1 0x0 PUSH2 0x100 EXP DUP2 SLOAD DUP2 PUSH1 0xFF MUL NOT AND SWAP1 DUP4 ISZERO ISZERO MUL OR SWAP1 SSTORE POP TIMESTAMP PUSH1 0x21 PUSH1 0x0 PUSH1 0x9 SLOAD DUP2 MSTORE PUSH1 0x20 ADD SWAP1 DUP2 MSTORE PUSH1 0x20 ADD PUSH1 0x0 KECCAK256 DUP2 SWAP1 SSTORE POP JUMP JUMPDEST PUSH1 0x0 DUP1 PUSH8 0xDE0B6B3A7640000 PUSH1 0x8 SLOAD PUSH2 0x579E SWAP2 SWAP1 PUSH2 0x85B5 JUMP JUMPDEST SWAP1 POP PUSH1 0x1 PUSH1 0x0 SWAP1 SLOAD SWAP1 PUSH2 0x100 EXP SWAP1 DIV PUSH20 0xFFFFFFFFFFFFFFFFFFFFFFFFFFFFFFFFFFFFFFFF AND PUSH20 0xFFFFFFFFFFFFFFFFFFFFFFFFFFFFFFFFFFFFFFFF AND PUSH4 0x23B872DD CALLER PUSH1 0x11 PUSH1 0x0 SWAP1 SLOAD SWAP1 PUSH2 0x100 EXP SWAP1 DIV PUSH20 0xFFFFFFFFFFFFFFFFFFFFFFFFFFFFFFFFFFFFFFFF AND DUP5 PUSH1 0x40 MLOAD DUP5 PUSH4 0xFFFFFFFF AND PUSH1 0xE0 SHL DUP2 MSTORE PUSH1 0x4 ADD PUSH2 0x5821 SWAP4 SWAP3 SWAP2 SWAP1 PUSH2 0x7F55 JUMP JUMPDEST PUSH1 0x20 PUSH1 0x40 MLOAD DUP1 DUP4 SUB DUP2 PUSH1 0x0 DUP8 DUP1 EXTCODESIZE ISZERO DUP1 ISZERO PUSH2 0x583B JUMPI PUSH1 0x0 DUP1 REVERT JUMPDEST POP GAS CALL ISZERO DUP1 ISZERO PUSH2 0x584F JUMPI RETURNDATASIZE PUSH1 0x0 DUP1 RETURNDATACOPY RETURNDATASIZE PUSH1 0x0 REVERT JUMPDEST POP POP POP POP PUSH1 0x40 MLOAD RETURNDATASIZE PUSH1 0x1F NOT PUSH1 0x1F DUP3 ADD AND DUP3 ADD DUP1 PUSH1 0x40 MSTORE POP DUP2 ADD SWAP1 PUSH2 0x5873 SWAP2 SWAP1 PUSH2 0x7717 JUMP JUMPDEST PUSH2 0x58B2 JUMPI PUSH1 0x40 MLOAD PUSH32 0x8C379A000000000000000000000000000000000000000000000000000000000 DUP2 MSTORE PUSH1 0x4 ADD PUSH2 0x58A9 SWAP1 PUSH2 0x8143 JUMP JUMPDEST PUSH1 0x40 MLOAD DUP1 SWAP2 SUB SWAP1 REVERT JUMPDEST PUSH1 0x1 SWAP2 POP POP SWAP1 JUMP JUMPDEST PUSH1 0x0 PUSH1 0x22 PUSH1 0x0 PUSH1 0x9 SLOAD DUP2 MSTORE PUSH1 0x20 ADD SWAP1 DUP2 MSTORE PUSH1 0x20 ADD PUSH1 0x0 KECCAK256 PUSH1 0x0 CALLER PUSH20 0xFFFFFFFFFFFFFFFFFFFFFFFFFFFFFFFFFFFFFFFF AND PUSH20 0xFFFFFFFFFFFFFFFFFFFFFFFFFFFFFFFFFFFFFFFF AND DUP2 MSTORE PUSH1 0x20 ADD SWAP1 DUP2 MSTORE PUSH1 0x20 ADD PUSH1 0x0 KECCAK256 SLOAD PUSH1 0x1C PUSH1 0x0 PUSH1 0x9 SLOAD DUP2 MSTORE PUSH1 0x20 ADD SWAP1 DUP2 MSTORE PUSH1 0x20 ADD PUSH1 0x0 KECCAK256 PUSH1 0x0 DUP3 DUP3 SLOAD PUSH2 0x5933 SWAP2 SWAP1 PUSH2 0x860F JUMP JUMPDEST SWAP3 POP POP DUP2 SWAP1 SSTORE POP PUSH1 0xD PUSH1 0x0 SWAP1 SLOAD SWAP1 PUSH2 0x100 EXP SWAP1 DIV PUSH20 0xFFFFFFFFFFFFFFFFFFFFFFFFFFFFFFFFFFFFFFFF AND PUSH20 0xFFFFFFFFFFFFFFFFFFFFFFFFFFFFFFFFFFFFFFFF AND PUSH4 0x5364DF49 CALLER PUSH1 0x40 MLOAD DUP3 PUSH4 0xFFFFFFFF AND PUSH1 0xE0 SHL DUP2 MSTORE PUSH1 0x4 ADD PUSH2 0x5995 SWAP2 SWAP1 PUSH2 0x7F11 JUMP JUMPDEST PUSH1 0x20 PUSH1 0x40 MLOAD DUP1 DUP4 SUB DUP2 DUP7 DUP1 EXTCODESIZE ISZERO DUP1 ISZERO PUSH2 0x59AD JUMPI PUSH1 0x0 DUP1 REVERT JUMPDEST POP GAS STATICCALL ISZERO DUP1 ISZERO PUSH2 0x59C1 JUMPI RETURNDATASIZE PUSH1 0x0 DUP1 RETURNDATACOPY RETURNDATASIZE PUSH1 0x0 REVERT JUMPDEST POP POP POP POP PUSH1 0x40 MLOAD RETURNDATASIZE PUSH1 0x1F NOT PUSH1 0x1F DUP3 ADD AND DUP3 ADD DUP1 PUSH1 0x40 MSTORE POP DUP2 ADD SWAP1 PUSH2 0x59E5 SWAP2 SWAP1 PUSH2 0x791B JUMP JUMPDEST PUSH1 0xE PUSH1 0x0 SWAP1 SLOAD SWAP1 PUSH2 0x100 EXP SWAP1 DIV PUSH20 0xFFFFFFFFFFFFFFFFFFFFFFFFFFFFFFFFFFFFFFFF AND PUSH20 0xFFFFFFFFFFFFFFFFFFFFFFFFFFFFFFFFFFFFFFFF AND PUSH4 0x5364DF49 CALLER PUSH1 0x40 MLOAD DUP3 PUSH4 0xFFFFFFFF AND PUSH1 0xE0 SHL DUP2 MSTORE PUSH1 0x4 ADD PUSH2 0x5A40 SWAP2 SWAP1 PUSH2 0x7F11 JUMP JUMPDEST PUSH1 0x20 PUSH1 0x40 MLOAD DUP1 DUP4 SUB DUP2 DUP7 DUP1 EXTCODESIZE ISZERO DUP1 ISZERO PUSH2 0x5A58 JUMPI PUSH1 0x0 DUP1 REVERT JUMPDEST POP GAS STATICCALL ISZERO DUP1 ISZERO PUSH2 0x5A6C JUMPI RETURNDATASIZE PUSH1 0x0 DUP1 RETURNDATACOPY RETURNDATASIZE PUSH1 0x0 REVERT JUMPDEST POP POP POP POP PUSH1 0x40 MLOAD RETURNDATASIZE PUSH1 0x1F NOT PUSH1 0x1F DUP3 ADD AND DUP3 ADD DUP1 PUSH1 0x40 MSTORE POP DUP2 ADD SWAP1 PUSH2 0x5A90 SWAP2 SWAP1 PUSH2 0x791B JUMP JUMPDEST PUSH2 0x5A9A SWAP2 SWAP1 PUSH2 0x852E JUMP JUMPDEST SWAP1 POP DUP1 PUSH1 0x1C PUSH1 0x0 PUSH1 0x9 SLOAD DUP2 MSTORE PUSH1 0x20 ADD SWAP1 DUP2 MSTORE PUSH1 0x20 ADD PUSH1 0x0 KECCAK256 PUSH1 0x0 DUP3 DUP3 SLOAD PUSH2 0x5AC1 SWAP2 SWAP1 PUSH2 0x852E JUMP JUMPDEST SWAP3 POP POP DUP2 SWAP1 SSTORE POP DUP1 PUSH1 0x22 PUSH1 0x0 PUSH1 0x9 SLOAD DUP2 MSTORE PUSH1 0x20 ADD SWAP1 DUP2 MSTORE PUSH1 0x20 ADD PUSH1 0x0 KECCAK256 PUSH1 0x0 CALLER PUSH20 0xFFFFFFFFFFFFFFFFFFFFFFFFFFFFFFFFFFFFFFFF AND PUSH20 0xFFFFFFFFFFFFFFFFFFFFFFFFFFFFFFFFFFFFFFFF AND DUP2 MSTORE PUSH1 0x20 ADD SWAP1 DUP2 MSTORE PUSH1 0x20 ADD PUSH1 0x0 KECCAK256 DUP2 SWAP1 SSTORE POP SWAP1 JUMP JUMPDEST PUSH1 0x0 PUSH1 0x2 DUP3 PUSH1 0x40 MLOAD PUSH2 0x5B34 SWAP2 SWAP1 PUSH2 0x7EFA JUMP JUMPDEST PUSH1 0x20 PUSH1 0x40 MLOAD DUP1 DUP4 SUB DUP2 DUP6 GAS STATICCALL ISZERO DUP1 ISZERO PUSH2 0x5B51 JUMPI RETURNDATASIZE PUSH1 0x0 DUP1 RETURNDATACOPY RETURNDATASIZE PUSH1 0x0 REVERT JUMPDEST POP POP POP PUSH1 0x40 MLOAD RETURNDATASIZE PUSH1 0x1F NOT PUSH1 0x1F DUP3 ADD AND DUP3 ADD DUP1 PUSH1 0x40 MSTORE POP DUP2 ADD SWAP1 PUSH2 0x5B74 SWAP2 SWAP1 PUSH2 0x7740 JUMP JUMPDEST PUSH1 0x2 DUP5 PUSH1 0x40 MLOAD PUSH2 0x5B84 SWAP2 SWAP1 PUSH2 0x7EFA JUMP JUMPDEST PUSH1 0x20 PUSH1 0x40 MLOAD DUP1 DUP4 SUB DUP2 DUP6 GAS STATICCALL ISZERO DUP1 ISZERO PUSH2 0x5BA1 JUMPI RETURNDATASIZE PUSH1 0x0 DUP1 RETURNDATACOPY RETURNDATASIZE PUSH1 0x0 REVERT JUMPDEST POP POP POP PUSH1 0x40 MLOAD RETURNDATASIZE PUSH1 0x1F NOT PUSH1 0x1F DUP3 ADD AND DUP3 ADD DUP1 PUSH1 0x40 MSTORE POP DUP2 ADD SWAP1 PUSH2 0x5BC4 SWAP2 SWAP1 PUSH2 0x7740 JUMP JUMPDEST EQ ISZERO PUSH2 0x5BD3 JUMPI PUSH1 0x1 SWAP1 POP PUSH2 0x5BD8 JUMP JUMPDEST PUSH1 0x0 SWAP1 POP JUMPDEST SWAP3 SWAP2 POP POP JUMP JUMPDEST PUSH1 0x0 PUSH1 0x1B PUSH1 0x0 PUSH1 0x9 SLOAD DUP2 MSTORE PUSH1 0x20 ADD SWAP1 DUP2 MSTORE PUSH1 0x20 ADD PUSH1 0x0 KECCAK256 DUP1 SLOAD PUSH2 0x5C00 SWAP1 PUSH2 0x8897 JUMP JUMPDEST DUP1 PUSH1 0x1F ADD PUSH1 0x20 DUP1 SWAP2 DIV MUL PUSH1 0x20 ADD PUSH1 0x40 MLOAD SWAP1 DUP2 ADD PUSH1 0x40 MSTORE DUP1 SWAP3 SWAP2 SWAP1 DUP2 DUP2 MSTORE PUSH1 0x20 ADD DUP3 DUP1 SLOAD PUSH2 0x5C2C SWAP1 PUSH2 0x8897 JUMP JUMPDEST DUP1 ISZERO PUSH2 0x5C79 JUMPI DUP1 PUSH1 0x1F LT PUSH2 0x5C4E JUMPI PUSH2 0x100 DUP1 DUP4 SLOAD DIV MUL DUP4 MSTORE SWAP2 PUSH1 0x20 ADD SWAP2 PUSH2 0x5C79 JUMP JUMPDEST DUP3 ADD SWAP2 SWAP1 PUSH1 0x0 MSTORE PUSH1 0x20 PUSH1 0x0 KECCAK256 SWAP1 JUMPDEST DUP2 SLOAD DUP2 MSTORE SWAP1 PUSH1 0x1 ADD SWAP1 PUSH1 0x20 ADD DUP1 DUP4 GT PUSH2 0x5C5C JUMPI DUP3 SWAP1 SUB PUSH1 0x1F AND DUP3 ADD SWAP2 JUMPDEST POP POP POP POP POP SWAP1 POP PUSH1 0x1 PUSH1 0x1E PUSH1 0x0 PUSH1 0x9 SLOAD DUP2 MSTORE PUSH1 0x20 ADD SWAP1 DUP2 MSTORE PUSH1 0x20 ADD PUSH1 0x0 KECCAK256 PUSH1 0x0 PUSH2 0x100 EXP DUP2 SLOAD DUP2 PUSH1 0xFF MUL NOT AND SWAP1 DUP4 ISZERO ISZERO MUL OR SWAP1 SSTORE POP TIMESTAMP PUSH1 0x1D PUSH1 0x0 PUSH1 0x9 SLOAD DUP2 MSTORE PUSH1 0x20 ADD SWAP1 DUP2 MSTORE PUSH1 0x20 ADD PUSH1 0x0 KECCAK256 DUP2 SWAP1 SSTORE POP PUSH1 0x9 SLOAD CALLER PUSH20 0xFFFFFFFFFFFFFFFFFFFFFFFFFFFFFFFFFFFFFFFF AND PUSH32 0xF36AEA5066F9F90A999260FE4CE8D7713F7F07F5AE61BF36D73CC51170A3A9E PUSH1 0x3 SLOAD TIMESTAMP PUSH2 0x5D11 SWAP2 SWAP1 PUSH2 0x852E JUMP JUMPDEST DUP5 PUSH1 0x40 MLOAD PUSH2 0x5D20 SWAP3 SWAP2 SWAP1 PUSH2 0x8349 JUMP JUMPDEST PUSH1 0x40 MLOAD DUP1 SWAP2 SUB SWAP1 LOG3 POP JUMP JUMPDEST PUSH1 0x0 DUP1 PUSH1 0xC PUSH1 0x0 SWAP1 SLOAD SWAP1 PUSH2 0x100 EXP SWAP1 DIV PUSH20 0xFFFFFFFFFFFFFFFFFFFFFFFFFFFFFFFFFFFFFFFF AND PUSH20 0xFFFFFFFFFFFFFFFFFFFFFFFFFFFFFFFFFFFFFFFF AND PUSH4 0xB80E44B8 DUP6 DUP6 PUSH1 0x40 MLOAD DUP4 PUSH4 0xFFFFFFFF AND PUSH1 0xE0 SHL DUP2 MSTORE PUSH1 0x4 ADD PUSH2 0x5D8B SWAP3 SWAP2 SWAP1 PUSH2 0x7F8C JUMP JUMPDEST PUSH1 0x20 PUSH1 0x40 MLOAD DUP1 DUP4 SUB DUP2 DUP7 DUP1 EXTCODESIZE ISZERO DUP1 ISZERO PUSH2 0x5DA3 JUMPI PUSH1 0x0 DUP1 REVERT JUMPDEST POP GAS STATICCALL ISZERO DUP1 ISZERO PUSH2 0x5DB7 JUMPI RETURNDATASIZE PUSH1 0x0 DUP1 RETURNDATACOPY RETURNDATASIZE PUSH1 0x0 REVERT JUMPDEST POP POP POP POP PUSH1 0x40 MLOAD RETURNDATASIZE PUSH1 0x1F NOT PUSH1 0x1F DUP3 ADD AND DUP3 ADD DUP1 PUSH1 0x40 MSTORE POP DUP2 ADD SWAP1 PUSH2 0x5DDB SWAP2 SWAP1 PUSH2 0x791B JUMP JUMPDEST SWAP1 POP DUP1 PUSH1 0x1 PUSH1 0x0 SWAP1 SLOAD SWAP1 PUSH2 0x100 EXP SWAP1 DIV PUSH20 0xFFFFFFFFFFFFFFFFFFFFFFFFFFFFFFFFFFFFFFFF AND PUSH20 0xFFFFFFFFFFFFFFFFFFFFFFFFFFFFFFFFFFFFFFFF AND PUSH4 0xDD62ED3E ADDRESS PUSH1 0xB PUSH1 0x0 SWAP1 SLOAD SWAP1 PUSH2 0x100 EXP SWAP1 DIV PUSH20 0xFFFFFFFFFFFFFFFFFFFFFFFFFFFFFFFFFFFFFFFF AND PUSH1 0x40 MLOAD DUP4 PUSH4 0xFFFFFFFF AND PUSH1 0xE0 SHL DUP2 MSTORE PUSH1 0x4 ADD PUSH2 0x5E5D SWAP3 SWAP2 SWAP1 PUSH2 0x7F2C JUMP JUMPDEST PUSH1 0x20 PUSH1 0x40 MLOAD DUP1 DUP4 SUB DUP2 DUP7 DUP1 EXTCODESIZE ISZERO DUP1 ISZERO PUSH2 0x5E75 JUMPI PUSH1 0x0 DUP1 REVERT JUMPDEST POP GAS STATICCALL ISZERO DUP1 ISZERO PUSH2 0x5E89 JUMPI RETURNDATASIZE PUSH1 0x0 DUP1 RETURNDATACOPY RETURNDATASIZE PUSH1 0x0 REVERT JUMPDEST POP POP POP POP PUSH1 0x40 MLOAD RETURNDATASIZE PUSH1 0x1F NOT PUSH1 0x1F DUP3 ADD AND DUP3 ADD DUP1 PUSH1 0x40 MSTORE POP DUP2 ADD SWAP1 PUSH2 0x5EAD SWAP2 SWAP1 PUSH2 0x791B JUMP JUMPDEST LT ISZERO PUSH2 0x6025 JUMPI PUSH1 0x1 PUSH1 0x0 SWAP1 SLOAD SWAP1 PUSH2 0x100 EXP SWAP1 DIV PUSH20 0xFFFFFFFFFFFFFFFFFFFFFFFFFFFFFFFFFFFFFFFF AND PUSH20 0xFFFFFFFFFFFFFFFFFFFFFFFFFFFFFFFFFFFFFFFF AND PUSH4 0x95EA7B3 PUSH1 0xB PUSH1 0x0 SWAP1 SLOAD SWAP1 PUSH2 0x100 EXP SWAP1 DIV PUSH20 0xFFFFFFFFFFFFFFFFFFFFFFFFFFFFFFFFFFFFFFFF AND PUSH1 0x1 PUSH1 0x0 SWAP1 SLOAD SWAP1 PUSH2 0x100 EXP SWAP1 DIV PUSH20 0xFFFFFFFFFFFFFFFFFFFFFFFFFFFFFFFFFFFFFFFF AND PUSH20 0xFFFFFFFFFFFFFFFFFFFFFFFFFFFFFFFFFFFFFFFF AND PUSH4 0x18160DDD PUSH1 0x40 MLOAD DUP2 PUSH4 0xFFFFFFFF AND PUSH1 0xE0 SHL DUP2 MSTORE PUSH1 0x4 ADD PUSH1 0x20 PUSH1 0x40 MLOAD DUP1 DUP4 SUB DUP2 DUP7 DUP1 EXTCODESIZE ISZERO DUP1 ISZERO PUSH2 0x5F7C JUMPI PUSH1 0x0 DUP1 REVERT JUMPDEST POP GAS STATICCALL ISZERO DUP1 ISZERO PUSH2 0x5F90 JUMPI RETURNDATASIZE PUSH1 0x0 DUP1 RETURNDATACOPY RETURNDATASIZE PUSH1 0x0 REVERT JUMPDEST POP POP POP POP PUSH1 0x40 MLOAD RETURNDATASIZE PUSH1 0x1F NOT PUSH1 0x1F DUP3 ADD AND DUP3 ADD DUP1 PUSH1 0x40 MSTORE POP DUP2 ADD SWAP1 PUSH2 0x5FB4 SWAP2 SWAP1 PUSH2 0x791B JUMP JUMPDEST PUSH1 0x40 MLOAD DUP4 PUSH4 0xFFFFFFFF AND PUSH1 0xE0 SHL DUP2 MSTORE PUSH1 0x4 ADD PUSH2 0x5FD1 SWAP3 SWAP2 SWAP1 PUSH2 0x7F8C JUMP JUMPDEST PUSH1 0x20 PUSH1 0x40 MLOAD DUP1 DUP4 SUB DUP2 PUSH1 0x0 DUP8 DUP1 EXTCODESIZE ISZERO DUP1 ISZERO PUSH2 0x5FEB JUMPI PUSH1 0x0 DUP1 REVERT JUMPDEST POP GAS CALL ISZERO DUP1 ISZERO PUSH2 0x5FFF JUMPI RETURNDATASIZE PUSH1 0x0 DUP1 RETURNDATACOPY RETURNDATASIZE PUSH1 0x0 REVERT JUMPDEST POP POP POP POP PUSH1 0x40 MLOAD RETURNDATASIZE PUSH1 0x1F NOT PUSH1 0x1F DUP3 ADD AND DUP3 ADD DUP1 PUSH1 0x40 MSTORE POP DUP2 ADD SWAP1 PUSH2 0x6023 SWAP2 SWAP1 PUSH2 0x7717 JUMP JUMPDEST POP JUMPDEST PUSH1 0x0 PUSH20 0xFFFFFFFFFFFFFFFFFFFFFFFFFFFFFFFFFFFFFFFF AND DUP5 PUSH20 0xFFFFFFFFFFFFFFFFFFFFFFFFFFFFFFFFFFFFFFFF AND EQ ISZERO PUSH2 0x6179 JUMPI CALLVALUE DUP4 EQ PUSH2 0x609C JUMPI PUSH1 0x40 MLOAD PUSH32 0x8C379A000000000000000000000000000000000000000000000000000000000 DUP2 MSTORE PUSH1 0x4 ADD PUSH2 0x6093 SWAP1 PUSH2 0x8263 JUMP JUMPDEST PUSH1 0x40 MLOAD DUP1 SWAP2 SUB SWAP1 REVERT JUMPDEST PUSH1 0xB PUSH1 0x0 SWAP1 SLOAD SWAP1 PUSH2 0x100 EXP SWAP1 DIV PUSH20 0xFFFFFFFFFFFFFFFFFFFFFFFFFFFFFFFFFFFFFFFF AND PUSH20 0xFFFFFFFFFFFFFFFFFFFFFFFFFFFFFFFFFFFFFFFF AND PUSH4 0x93CAC685 DUP5 DUP4 DUP7 DUP9 PUSH1 0xD PUSH1 0x0 SWAP1 SLOAD SWAP1 PUSH2 0x100 EXP SWAP1 DIV PUSH20 0xFFFFFFFFFFFFFFFFFFFFFFFFFFFFFFFFFFFFFFFF AND PUSH1 0x40 MLOAD DUP7 PUSH4 0xFFFFFFFF AND PUSH1 0xE0 SHL DUP2 MSTORE PUSH1 0x4 ADD PUSH2 0x6120 SWAP5 SWAP4 SWAP3 SWAP2 SWAP1 PUSH2 0x83A2 JUMP JUMPDEST PUSH1 0x20 PUSH1 0x40 MLOAD DUP1 DUP4 SUB DUP2 DUP6 DUP9 DUP1 EXTCODESIZE ISZERO DUP1 ISZERO PUSH2 0x6139 JUMPI PUSH1 0x0 DUP1 REVERT JUMPDEST POP GAS CALL ISZERO DUP1 ISZERO PUSH2 0x614D JUMPI RETURNDATASIZE PUSH1 0x0 DUP1 RETURNDATACOPY RETURNDATASIZE PUSH1 0x0 REVERT JUMPDEST POP POP POP POP POP PUSH1 0x40 MLOAD RETURNDATASIZE PUSH1 0x1F NOT PUSH1 0x1F DUP3 ADD AND DUP3 ADD DUP1 PUSH1 0x40 MSTORE POP DUP2 ADD SWAP1 PUSH2 0x6172 SWAP2 SWAP1 PUSH2 0x791B JUMP JUMPDEST SWAP2 POP PUSH2 0x64C9 JUMP JUMPDEST DUP4 PUSH20 0xFFFFFFFFFFFFFFFFFFFFFFFFFFFFFFFFFFFFFFFF AND PUSH4 0x23B872DD CALLER ADDRESS DUP7 PUSH1 0x40 MLOAD DUP5 PUSH4 0xFFFFFFFF AND PUSH1 0xE0 SHL DUP2 MSTORE PUSH1 0x4 ADD PUSH2 0x61B6 SWAP4 SWAP3 SWAP2 SWAP1 PUSH2 0x7F55 JUMP JUMPDEST PUSH1 0x20 PUSH1 0x40 MLOAD DUP1 DUP4 SUB DUP2 PUSH1 0x0 DUP8 DUP1 EXTCODESIZE ISZERO DUP1 ISZERO PUSH2 0x61D0 JUMPI PUSH1 0x0 DUP1 REVERT JUMPDEST POP GAS CALL ISZERO DUP1 ISZERO PUSH2 0x61E4 JUMPI RETURNDATASIZE PUSH1 0x0 DUP1 RETURNDATACOPY RETURNDATASIZE PUSH1 0x0 REVERT JUMPDEST POP POP POP POP PUSH1 0x40 MLOAD RETURNDATASIZE PUSH1 0x1F NOT PUSH1 0x1F DUP3 ADD AND DUP3 ADD DUP1 PUSH1 0x40 MSTORE POP DUP2 ADD SWAP1 PUSH2 0x6208 SWAP2 SWAP1 PUSH2 0x7717 JUMP JUMPDEST POP DUP3 DUP5 PUSH20 0xFFFFFFFFFFFFFFFFFFFFFFFFFFFFFFFFFFFFFFFF AND PUSH4 0xDD62ED3E ADDRESS PUSH1 0xB PUSH1 0x0 SWAP1 SLOAD SWAP1 PUSH2 0x100 EXP SWAP1 DIV PUSH20 0xFFFFFFFFFFFFFFFFFFFFFFFFFFFFFFFFFFFFFFFF AND PUSH1 0x40 MLOAD DUP4 PUSH4 0xFFFFFFFF AND PUSH1 0xE0 SHL DUP2 MSTORE PUSH1 0x4 ADD PUSH2 0x6267 SWAP3 SWAP2 SWAP1 PUSH2 0x7F2C JUMP JUMPDEST PUSH1 0x20 PUSH1 0x40 MLOAD DUP1 DUP4 SUB DUP2 DUP7 DUP1 EXTCODESIZE ISZERO DUP1 ISZERO PUSH2 0x627F JUMPI PUSH1 0x0 DUP1 REVERT JUMPDEST POP GAS STATICCALL ISZERO DUP1 ISZERO PUSH2 0x6293 JUMPI RETURNDATASIZE PUSH1 0x0 DUP1 RETURNDATACOPY RETURNDATASIZE PUSH1 0x0 REVERT JUMPDEST POP POP POP POP PUSH1 0x40 MLOAD RETURNDATASIZE PUSH1 0x1F NOT PUSH1 0x1F DUP3 ADD AND DUP3 ADD DUP1 PUSH1 0x40 MSTORE POP DUP2 ADD SWAP1 PUSH2 0x62B7 SWAP2 SWAP1 PUSH2 0x791B JUMP JUMPDEST LT ISZERO PUSH2 0x63F1 JUMPI PUSH1 0x0 DUP5 PUSH20 0xFFFFFFFFFFFFFFFFFFFFFFFFFFFFFFFFFFFFFFFF AND PUSH4 0x18160DDD PUSH1 0x40 MLOAD DUP2 PUSH4 0xFFFFFFFF AND PUSH1 0xE0 SHL DUP2 MSTORE PUSH1 0x4 ADD PUSH1 0x20 PUSH1 0x40 MLOAD DUP1 DUP4 SUB DUP2 DUP7 DUP1 EXTCODESIZE ISZERO DUP1 ISZERO PUSH2 0x6305 JUMPI PUSH1 0x0 DUP1 REVERT JUMPDEST POP GAS STATICCALL ISZERO DUP1 ISZERO PUSH2 0x6319 JUMPI RETURNDATASIZE PUSH1 0x0 DUP1 RETURNDATACOPY RETURNDATASIZE PUSH1 0x0 REVERT JUMPDEST POP POP POP POP PUSH1 0x40 MLOAD RETURNDATASIZE PUSH1 0x1F NOT PUSH1 0x1F DUP3 ADD AND DUP3 ADD DUP1 PUSH1 0x40 MSTORE POP DUP2 ADD SWAP1 PUSH2 0x633D SWAP2 SWAP1 PUSH2 0x791B JUMP JUMPDEST SWAP1 POP DUP5 PUSH20 0xFFFFFFFFFFFFFFFFFFFFFFFFFFFFFFFFFFFFFFFF AND PUSH4 0x95EA7B3 PUSH1 0xB PUSH1 0x0 SWAP1 SLOAD SWAP1 PUSH2 0x100 EXP SWAP1 DIV PUSH20 0xFFFFFFFFFFFFFFFFFFFFFFFFFFFFFFFFFFFFFFFF AND DUP4 PUSH1 0x40 MLOAD DUP4 PUSH4 0xFFFFFFFF AND PUSH1 0xE0 SHL DUP2 MSTORE PUSH1 0x4 ADD PUSH2 0x639C SWAP3 SWAP2 SWAP1 PUSH2 0x7F8C JUMP JUMPDEST PUSH1 0x20 PUSH1 0x40 MLOAD DUP1 DUP4 SUB DUP2 PUSH1 0x0 DUP8 DUP1 EXTCODESIZE ISZERO DUP1 ISZERO PUSH2 0x63B6 JUMPI PUSH1 0x0 DUP1 REVERT JUMPDEST POP GAS CALL ISZERO DUP1 ISZERO PUSH2 0x63CA JUMPI RETURNDATASIZE PUSH1 0x0 DUP1 RETURNDATACOPY RETURNDATASIZE PUSH1 0x0 REVERT JUMPDEST POP POP POP POP PUSH1 0x40 MLOAD RETURNDATASIZE PUSH1 0x1F NOT PUSH1 0x1F DUP3 ADD AND DUP3 ADD DUP1 PUSH1 0x40 MSTORE POP DUP2 ADD SWAP1 PUSH2 0x63EE SWAP2 SWAP1 PUSH2 0x7717 JUMP JUMPDEST POP POP JUMPDEST PUSH1 0xB PUSH1 0x0 SWAP1 SLOAD SWAP1 PUSH2 0x100 EXP SWAP1 DIV PUSH20 0xFFFFFFFFFFFFFFFFFFFFFFFFFFFFFFFFFFFFFFFF AND PUSH20 0xFFFFFFFFFFFFFFFFFFFFFFFFFFFFFFFFFFFFFFFF AND PUSH4 0x93CAC685 DUP3 DUP6 DUP8 PUSH1 0xD PUSH1 0x0 SWAP1 SLOAD SWAP1 PUSH2 0x100 EXP SWAP1 DIV PUSH20 0xFFFFFFFFFFFFFFFFFFFFFFFFFFFFFFFFFFFFFFFF AND PUSH1 0x40 MLOAD DUP6 PUSH4 0xFFFFFFFF AND PUSH1 0xE0 SHL DUP2 MSTORE PUSH1 0x4 ADD PUSH2 0x6474 SWAP5 SWAP4 SWAP3 SWAP2 SWAP1 PUSH2 0x83A2 JUMP JUMPDEST PUSH1 0x20 PUSH1 0x40 MLOAD DUP1 DUP4 SUB DUP2 PUSH1 0x0 DUP8 DUP1 EXTCODESIZE ISZERO DUP1 ISZERO PUSH2 0x648E JUMPI PUSH1 0x0 DUP1 REVERT JUMPDEST POP GAS CALL ISZERO DUP1 ISZERO PUSH2 0x64A2 JUMPI RETURNDATASIZE PUSH1 0x0 DUP1 RETURNDATACOPY RETURNDATASIZE PUSH1 0x0 REVERT JUMPDEST POP POP POP POP PUSH1 0x40 MLOAD RETURNDATASIZE PUSH1 0x1F NOT PUSH1 0x1F DUP3 ADD AND DUP3 ADD DUP1 PUSH1 0x40 MSTORE POP DUP2 ADD SWAP1 PUSH2 0x64C6 SWAP2 SWAP1 PUSH2 0x791B JUMP JUMPDEST SWAP2 POP JUMPDEST POP SWAP3 SWAP2 POP POP JUMP JUMPDEST PUSH1 0x0 PUSH1 0x1A PUSH1 0x0 DUP4 DUP2 MSTORE PUSH1 0x20 ADD SWAP1 DUP2 MSTORE PUSH1 0x20 ADD PUSH1 0x0 KECCAK256 PUSH1 0x0 SWAP1 SLOAD SWAP1 PUSH2 0x100 EXP SWAP1 DIV PUSH20 0xFFFFFFFFFFFFFFFFFFFFFFFFFFFFFFFFFFFFFFFF AND SWAP1 POP PUSH1 0x0 PUSH20 0xFFFFFFFFFFFFFFFFFFFFFFFFFFFFFFFFFFFFFFFF AND DUP2 PUSH20 0xFFFFFFFFFFFFFFFFFFFFFFFFFFFFFFFFFFFFFFFF AND EQ ISZERO PUSH2 0x6578 JUMPI PUSH1 0x40 MLOAD PUSH32 0x8C379A000000000000000000000000000000000000000000000000000000000 DUP2 MSTORE PUSH1 0x4 ADD PUSH2 0x656F SWAP1 PUSH2 0x8283 JUMP JUMPDEST PUSH1 0x40 MLOAD DUP1 SWAP2 SUB SWAP1 REVERT JUMPDEST DUP1 PUSH1 0xA PUSH1 0x1 PUSH2 0x100 EXP DUP2 SLOAD DUP2 PUSH20 0xFFFFFFFFFFFFFFFFFFFFFFFFFFFFFFFFFFFFFFFF MUL NOT AND SWAP1 DUP4 PUSH20 0xFFFFFFFFFFFFFFFFFFFFFFFFFFFFFFFFFFFFFFFF AND MUL OR SWAP1 SSTORE POP PUSH1 0x1 PUSH1 0x0 SWAP1 SLOAD SWAP1 PUSH2 0x100 EXP SWAP1 DIV PUSH20 0xFFFFFFFFFFFFFFFFFFFFFFFFFFFFFFFFFFFFFFFF AND PUSH20 0xFFFFFFFFFFFFFFFFFFFFFFFFFFFFFFFFFFFFFFFF AND PUSH4 0x1D007F5F DUP3 PUSH1 0x40 MLOAD DUP3 PUSH4 0xFFFFFFFF AND PUSH1 0xE0 SHL DUP2 MSTORE PUSH1 0x4 ADD PUSH2 0x6614 SWAP2 SWAP1 PUSH2 0x7F11 JUMP JUMPDEST PUSH1 0x0 PUSH1 0x40 MLOAD DUP1 DUP4 SUB DUP2 PUSH1 0x0 DUP8 DUP1 EXTCODESIZE ISZERO DUP1 ISZERO PUSH2 0x662E JUMPI PUSH1 0x0 DUP1 REVERT JUMPDEST POP GAS CALL ISZERO DUP1 ISZERO PUSH2 0x6642 JUMPI RETURNDATASIZE PUSH1 0x0 DUP1 RETURNDATACOPY RETURNDATASIZE PUSH1 0x0 REVERT JUMPDEST POP POP POP POP PUSH1 0x1 PUSH1 0xA PUSH1 0x0 PUSH2 0x100 EXP DUP2 SLOAD DUP2 PUSH1 0xFF MUL NOT AND SWAP1 DUP4 ISZERO ISZERO MUL OR SWAP1 SSTORE POP PUSH2 0x666A DUP3 PUSH2 0x709E JUMP JUMPDEST POP POP JUMP JUMPDEST PUSH1 0x0 PUSH1 0x1A PUSH1 0x0 DUP4 DUP2 MSTORE PUSH1 0x20 ADD SWAP1 DUP2 MSTORE PUSH1 0x20 ADD PUSH1 0x0 KECCAK256 PUSH1 0x0 SWAP1 SLOAD SWAP1 PUSH2 0x100 EXP SWAP1 DIV PUSH20 0xFFFFFFFFFFFFFFFFFFFFFFFFFFFFFFFFFFFFFFFF AND SWAP1 POP PUSH1 0x0 PUSH20 0xFFFFFFFFFFFFFFFFFFFFFFFFFFFFFFFFFFFFFFFF AND DUP2 PUSH20 0xFFFFFFFFFFFFFFFFFFFFFFFFFFFFFFFFFFFFFFFF AND EQ ISZERO PUSH2 0x6716 JUMPI PUSH1 0x40 MLOAD PUSH32 0x8C379A000000000000000000000000000000000000000000000000000000000 DUP2 MSTORE PUSH1 0x4 ADD PUSH2 0x670D SWAP1 PUSH2 0x8283 JUMP JUMPDEST PUSH1 0x40 MLOAD DUP1 SWAP2 SUB SWAP1 REVERT JUMPDEST DUP1 PUSH1 0xB PUSH1 0x0 PUSH2 0x100 EXP DUP2 SLOAD DUP2 PUSH20 0xFFFFFFFFFFFFFFFFFFFFFFFFFFFFFFFFFFFFFFFF MUL NOT AND SWAP1 DUP4 PUSH20 0xFFFFFFFFFFFFFFFFFFFFFFFFFFFFFFFFFFFFFFFF AND MUL OR SWAP1 SSTORE POP PUSH2 0x6760 DUP3 PUSH2 0x709E JUMP JUMPDEST POP POP JUMP JUMPDEST PUSH1 0x0 PUSH1 0x1A PUSH1 0x0 DUP4 DUP2 MSTORE PUSH1 0x20 ADD SWAP1 DUP2 MSTORE PUSH1 0x20 ADD PUSH1 0x0 KECCAK256 PUSH1 0x0 SWAP1 SLOAD SWAP1 PUSH2 0x100 EXP SWAP1 DIV PUSH20 0xFFFFFFFFFFFFFFFFFFFFFFFFFFFFFFFFFFFFFFFF AND SWAP1 POP PUSH1 0x0 PUSH20 0xFFFFFFFFFFFFFFFFFFFFFFFFFFFFFFFFFFFFFFFF AND DUP2 PUSH20 0xFFFFFFFFFFFFFFFFFFFFFFFFFFFFFFFFFFFFFFFF AND EQ ISZERO PUSH2 0x680C JUMPI PUSH1 0x40 MLOAD PUSH32 0x8C379A000000000000000000000000000000000000000000000000000000000 DUP2 MSTORE PUSH1 0x4 ADD PUSH2 0x6803 SWAP1 PUSH2 0x8283 JUMP JUMPDEST PUSH1 0x40 MLOAD DUP1 SWAP2 SUB SWAP1 REVERT JUMPDEST DUP1 PUSH1 0xC PUSH1 0x0 PUSH2 0x100 EXP DUP2 SLOAD DUP2 PUSH20 0xFFFFFFFFFFFFFFFFFFFFFFFFFFFFFFFFFFFFFFFF MUL NOT AND SWAP1 DUP4 PUSH20 0xFFFFFFFFFFFFFFFFFFFFFFFFFFFFFFFFFFFFFFFF AND MUL OR SWAP1 SSTORE POP PUSH2 0x6856 DUP3 PUSH2 0x709E JUMP JUMPDEST POP POP JUMP JUMPDEST PUSH1 0x0 PUSH1 0x1A PUSH1 0x0 DUP4 DUP2 MSTORE PUSH1 0x20 ADD SWAP1 DUP2 MSTORE PUSH1 0x20 ADD PUSH1 0x0 KECCAK256 PUSH1 0x0 SWAP1 SLOAD SWAP1 PUSH2 0x100 EXP SWAP1 DIV PUSH20 0xFFFFFFFFFFFFFFFFFFFFFFFFFFFFFFFFFFFFFFFF AND SWAP1 POP PUSH1 0x0 PUSH20 0xFFFFFFFFFFFFFFFFFFFFFFFFFFFFFFFFFFFFFFFF AND DUP2 PUSH20 0xFFFFFFFFFFFFFFFFFFFFFFFFFFFFFFFFFFFFFFFF AND EQ ISZERO PUSH2 0x6902 JUMPI PUSH1 0x40 MLOAD PUSH32 0x8C379A000000000000000000000000000000000000000000000000000000000 DUP2 MSTORE PUSH1 0x4 ADD PUSH2 0x68F9 SWAP1 PUSH2 0x8283 JUMP JUMPDEST PUSH1 0x40 MLOAD DUP1 SWAP2 SUB SWAP1 REVERT JUMPDEST DUP1 PUSH1 0x11 PUSH1 0x0 PUSH2 0x100 EXP DUP2 SLOAD DUP2 PUSH20 0xFFFFFFFFFFFFFFFFFFFFFFFFFFFFFFFFFFFFFFFF MUL NOT AND SWAP1 DUP4 PUSH20 0xFFFFFFFFFFFFFFFFFFFFFFFFFFFFFFFFFFFFFFFF AND MUL OR SWAP1 SSTORE POP PUSH2 0x694C DUP3 PUSH2 0x709E JUMP JUMPDEST POP POP JUMP JUMPDEST PUSH1 0x1 PUSH1 0x0 SWAP1 SLOAD SWAP1 PUSH2 0x100 EXP SWAP1 DIV PUSH20 0xFFFFFFFFFFFFFFFFFFFFFFFFFFFFFFFFFFFFFFFF AND PUSH20 0xFFFFFFFFFFFFFFFFFFFFFFFFFFFFFFFFFFFFFFFF AND PUSH4 0xFE1FA8FA PUSH1 0x40 MLOAD DUP2 PUSH4 0xFFFFFFFF AND PUSH1 0xE0 SHL DUP2 MSTORE PUSH1 0x4 ADD PUSH1 0x0 PUSH1 0x40 MLOAD DUP1 DUP4 SUB DUP2 PUSH1 0x0 DUP8 DUP1 EXTCODESIZE ISZERO DUP1 ISZERO PUSH2 0x69BA JUMPI PUSH1 0x0 DUP1 REVERT JUMPDEST POP GAS CALL ISZERO DUP1 ISZERO PUSH2 0x69CE JUMPI RETURNDATASIZE PUSH1 0x0 DUP1 RETURNDATACOPY RETURNDATASIZE PUSH1 0x0 REVERT JUMPDEST POP POP POP POP PUSH2 0x69DB DUP2 PUSH2 0x709E JUMP JUMPDEST POP JUMP JUMPDEST PUSH1 0x0 PUSH1 0x19 PUSH1 0x0 DUP4 DUP2 MSTORE PUSH1 0x20 ADD SWAP1 DUP2 MSTORE PUSH1 0x20 ADD PUSH1 0x0 KECCAK256 SLOAD SWAP1 POP PUSH1 0x0 DUP2 EQ ISZERO PUSH2 0x6A3A JUMPI PUSH1 0x40 MLOAD PUSH32 0x8C379A000000000000000000000000000000000000000000000000000000000 DUP2 MSTORE PUSH1 0x4 ADD PUSH2 0x6A31 SWAP1 PUSH2 0x8243 JUMP JUMPDEST PUSH1 0x40 MLOAD DUP1 SWAP2 SUB SWAP1 REVERT JUMPDEST DUP1 PUSH1 0x3 DUP2 SWAP1 SSTORE POP PUSH2 0x6A4A DUP3 PUSH2 0x709E JUMP JUMPDEST POP POP JUMP JUMPDEST PUSH1 0x0 PUSH1 0x19 PUSH1 0x0 DUP4 DUP2 MSTORE PUSH1 0x20 ADD SWAP1 DUP2 MSTORE PUSH1 0x20 ADD PUSH1 0x0 KECCAK256 SLOAD SWAP1 POP PUSH1 0x0 DUP2 EQ ISZERO PUSH2 0x6AAA JUMPI PUSH1 0x40 MLOAD PUSH32 0x8C379A000000000000000000000000000000000000000000000000000000000 DUP2 MSTORE PUSH1 0x4 ADD PUSH2 0x6AA1 SWAP1 PUSH2 0x8243 JUMP JUMPDEST PUSH1 0x40 MLOAD DUP1 SWAP2 SUB SWAP1 REVERT JUMPDEST DUP1 PUSH1 0x6 DUP2 SWAP1 SSTORE POP PUSH2 0x6ABA DUP3 PUSH2 0x709E JUMP JUMPDEST POP POP JUMP JUMPDEST PUSH1 0x0 PUSH1 0x19 PUSH1 0x0 DUP4 DUP2 MSTORE PUSH1 0x20 ADD SWAP1 DUP2 MSTORE PUSH1 0x20 ADD PUSH1 0x0 KECCAK256 SLOAD SWAP1 POP PUSH1 0x0 PUSH1 0x1A PUSH1 0x0 DUP5 DUP2 MSTORE PUSH1 0x20 ADD SWAP1 DUP2 MSTORE PUSH1 0x20 ADD PUSH1 0x0 KECCAK256 PUSH1 0x0 SWAP1 SLOAD SWAP1 PUSH2 0x100 EXP SWAP1 DIV PUSH20 0xFFFFFFFFFFFFFFFFFFFFFFFFFFFFFFFFFFFFFFFF AND SWAP1 POP PUSH1 0x0 DUP3 EQ ISZERO PUSH2 0x6B52 JUMPI PUSH1 0x40 MLOAD PUSH32 0x8C379A000000000000000000000000000000000000000000000000000000000 DUP2 MSTORE PUSH1 0x4 ADD PUSH2 0x6B49 SWAP1 PUSH2 0x8243 JUMP JUMPDEST PUSH1 0x40 MLOAD DUP1 SWAP2 SUB SWAP1 REVERT JUMPDEST PUSH1 0x0 PUSH20 0xFFFFFFFFFFFFFFFFFFFFFFFFFFFFFFFFFFFFFFFF AND DUP2 PUSH20 0xFFFFFFFFFFFFFFFFFFFFFFFFFFFFFFFFFFFFFFFF AND EQ ISZERO PUSH2 0x6BC2 JUMPI PUSH1 0x40 MLOAD PUSH32 0x8C379A000000000000000000000000000000000000000000000000000000000 DUP2 MSTORE PUSH1 0x4 ADD PUSH2 0x6BB9 SWAP1 PUSH2 0x8283 JUMP JUMPDEST PUSH1 0x40 MLOAD DUP1 SWAP2 SUB SWAP1 REVERT JUMPDEST PUSH1 0x11 PUSH1 0x0 SWAP1 SLOAD SWAP1 PUSH2 0x100 EXP SWAP1 DIV PUSH20 0xFFFFFFFFFFFFFFFFFFFFFFFFFFFFFFFFFFFFFFFF AND PUSH20 0xFFFFFFFFFFFFFFFFFFFFFFFFFFFFFFFFFFFFFFFF AND PUSH4 0x7D458BAA DUP4 DUP4 PUSH1 0x40 MLOAD DUP4 PUSH4 0xFFFFFFFF AND PUSH1 0xE0 SHL DUP2 MSTORE PUSH1 0x4 ADD PUSH2 0x6C1F SWAP3 SWAP2 SWAP1 PUSH2 0x8320 JUMP JUMPDEST PUSH1 0x0 PUSH1 0x40 MLOAD DUP1 DUP4 SUB DUP2 PUSH1 0x0 DUP8 DUP1 EXTCODESIZE ISZERO DUP1 ISZERO PUSH2 0x6C39 JUMPI PUSH1 0x0 DUP1 REVERT JUMPDEST POP GAS CALL ISZERO DUP1 ISZERO PUSH2 0x6C4D JUMPI RETURNDATASIZE PUSH1 0x0 DUP1 RETURNDATACOPY RETURNDATASIZE PUSH1 0x0 REVERT JUMPDEST POP POP POP POP PUSH2 0x6C5A DUP4 PUSH2 0x709E JUMP JUMPDEST POP POP POP JUMP JUMPDEST PUSH1 0x0 PUSH11 0x211654585005212800000 SWAP1 POP PUSH1 0x1 PUSH1 0x0 SWAP1 SLOAD SWAP1 PUSH2 0x100 EXP SWAP1 DIV PUSH20 0xFFFFFFFFFFFFFFFFFFFFFFFFFFFFFFFFFFFFFFFF AND PUSH20 0xFFFFFFFFFFFFFFFFFFFFFFFFFFFFFFFFFFFFFFFF AND PUSH4 0xD01F6FBA DUP3 ADDRESS PUSH1 0x40 MLOAD DUP4 PUSH4 0xFFFFFFFF AND PUSH1 0xE0 SHL DUP2 MSTORE PUSH1 0x4 ADD PUSH2 0x6CCC SWAP3 SWAP2 SWAP1 PUSH2 0x8320 JUMP JUMPDEST PUSH1 0x0 PUSH1 0x40 MLOAD DUP1 DUP4 SUB DUP2 PUSH1 0x0 DUP8 DUP1 EXTCODESIZE ISZERO DUP1 ISZERO PUSH2 0x6CE6 JUMPI PUSH1 0x0 DUP1 REVERT JUMPDEST POP GAS CALL ISZERO DUP1 ISZERO PUSH2 0x6CFA JUMPI RETURNDATASIZE PUSH1 0x0 DUP1 RETURNDATACOPY RETURNDATASIZE PUSH1 0x0 REVERT JUMPDEST POP POP POP POP PUSH2 0x6D07 DUP3 PUSH2 0x709E JUMP JUMPDEST POP POP JUMP JUMPDEST PUSH1 0x0 PUSH1 0x1A PUSH1 0x0 DUP4 DUP2 MSTORE PUSH1 0x20 ADD SWAP1 DUP2 MSTORE PUSH1 0x20 ADD PUSH1 0x0 KECCAK256 PUSH1 0x0 SWAP1 SLOAD SWAP1 PUSH2 0x100 EXP SWAP1 DIV PUSH20 0xFFFFFFFFFFFFFFFFFFFFFFFFFFFFFFFFFFFFFFFF AND SWAP1 POP PUSH1 0x17 PUSH1 0x0 DUP3 PUSH20 0xFFFFFFFFFFFFFFFFFFFFFFFFFFFFFFFFFFFFFFFF AND PUSH20 0xFFFFFFFFFFFFFFFFFFFFFFFFFFFFFFFFFFFFFFFF AND DUP2 MSTORE PUSH1 0x20 ADD SWAP1 DUP2 MSTORE PUSH1 0x20 ADD PUSH1 0x0 KECCAK256 PUSH1 0x0 SWAP1 SLOAD SWAP1 PUSH2 0x100 EXP SWAP1 DIV PUSH1 0xFF AND PUSH2 0x6E50 JUMPI PUSH1 0x1 PUSH1 0x17 PUSH1 0x0 DUP4 PUSH20 0xFFFFFFFFFFFFFFFFFFFFFFFFFFFFFFFFFFFFFFFF AND PUSH20 0xFFFFFFFFFFFFFFFFFFFFFFFFFFFFFFFFFFFFFFFF AND DUP2 MSTORE PUSH1 0x20 ADD SWAP1 DUP2 MSTORE PUSH1 0x20 ADD PUSH1 0x0 KECCAK256 PUSH1 0x0 PUSH2 0x100 EXP DUP2 SLOAD DUP2 PUSH1 0xFF MUL NOT AND SWAP1 DUP4 ISZERO ISZERO MUL OR SWAP1 SSTORE POP PUSH1 0x14 DUP2 SWAP1 DUP1 PUSH1 0x1 DUP2 SLOAD ADD DUP1 DUP3 SSTORE DUP1 SWAP2 POP POP PUSH1 0x1 SWAP1 SUB SWAP1 PUSH1 0x0 MSTORE PUSH1 0x20 PUSH1 0x0 KECCAK256 ADD PUSH1 0x0 SWAP1 SWAP2 SWAP1 SWAP2 SWAP1 SWAP2 PUSH2 0x100 EXP DUP2 SLOAD DUP2 PUSH20 0xFFFFFFFFFFFFFFFFFFFFFFFFFFFFFFFFFFFFFFFF MUL NOT AND SWAP1 DUP4 PUSH20 0xFFFFFFFFFFFFFFFFFFFFFFFFFFFFFFFFFFFFFFFF AND MUL OR SWAP1 SSTORE POP JUMPDEST PUSH2 0x6E59 DUP3 PUSH2 0x709E JUMP JUMPDEST POP POP JUMP JUMPDEST PUSH1 0x0 PUSH1 0x1A PUSH1 0x0 DUP4 DUP2 MSTORE PUSH1 0x20 ADD SWAP1 DUP2 MSTORE PUSH1 0x20 ADD PUSH1 0x0 KECCAK256 PUSH1 0x0 SWAP1 SLOAD SWAP1 PUSH2 0x100 EXP SWAP1 DIV PUSH20 0xFFFFFFFFFFFFFFFFFFFFFFFFFFFFFFFFFFFFFFFF AND SWAP1 POP PUSH1 0x0 PUSH1 0x17 PUSH1 0x0 DUP4 PUSH20 0xFFFFFFFFFFFFFFFFFFFFFFFFFFFFFFFFFFFFFFFF AND PUSH20 0xFFFFFFFFFFFFFFFFFFFFFFFFFFFFFFFFFFFFFFFF AND DUP2 MSTORE PUSH1 0x20 ADD SWAP1 DUP2 MSTORE PUSH1 0x20 ADD PUSH1 0x0 KECCAK256 PUSH1 0x0 PUSH2 0x100 EXP DUP2 SLOAD DUP2 PUSH1 0xFF MUL NOT AND SWAP1 DUP4 ISZERO ISZERO MUL OR SWAP1 SSTORE POP PUSH2 0x6EF6 DUP3 PUSH2 0x709E JUMP JUMPDEST POP POP JUMP JUMPDEST PUSH1 0x0 PUSH1 0x1A PUSH1 0x0 DUP4 DUP2 MSTORE PUSH1 0x20 ADD SWAP1 DUP2 MSTORE PUSH1 0x20 ADD PUSH1 0x0 KECCAK256 PUSH1 0x0 SWAP1 SLOAD SWAP1 PUSH2 0x100 EXP SWAP1 DIV PUSH20 0xFFFFFFFFFFFFFFFFFFFFFFFFFFFFFFFFFFFFFFFF AND SWAP1 POP PUSH1 0xF PUSH1 0x0 SWAP1 SLOAD SWAP1 PUSH2 0x100 EXP SWAP1 DIV PUSH20 0xFFFFFFFFFFFFFFFFFFFFFFFFFFFFFFFFFFFFFFFF AND PUSH20 0xFFFFFFFFFFFFFFFFFFFFFFFFFFFFFFFFFFFFFFFF AND PUSH4 0x2B2260A8 DUP3 PUSH1 0x40 MLOAD DUP3 PUSH4 0xFFFFFFFF AND PUSH1 0xE0 SHL DUP2 MSTORE PUSH1 0x4 ADD PUSH2 0x6F8D SWAP2 SWAP1 PUSH2 0x7F11 JUMP JUMPDEST PUSH1 0x0 PUSH1 0x40 MLOAD DUP1 DUP4 SUB DUP2 PUSH1 0x0 DUP8 DUP1 EXTCODESIZE ISZERO DUP1 ISZERO PUSH2 0x6FA7 JUMPI PUSH1 0x0 DUP1 REVERT JUMPDEST POP GAS CALL ISZERO DUP1 ISZERO PUSH2 0x6FBB JUMPI RETURNDATASIZE PUSH1 0x0 DUP1 RETURNDATACOPY RETURNDATASIZE PUSH1 0x0 REVERT JUMPDEST POP POP POP POP PUSH2 0x6FC8 DUP3 PUSH2 0x709E JUMP JUMPDEST POP POP JUMP JUMPDEST PUSH1 0x0 PUSH1 0x1A PUSH1 0x0 DUP4 DUP2 MSTORE PUSH1 0x20 ADD SWAP1 DUP2 MSTORE PUSH1 0x20 ADD PUSH1 0x0 KECCAK256 PUSH1 0x0 SWAP1 SLOAD SWAP1 PUSH2 0x100 EXP SWAP1 DIV PUSH20 0xFFFFFFFFFFFFFFFFFFFFFFFFFFFFFFFFFFFFFFFF AND SWAP1 POP PUSH1 0xF PUSH1 0x0 SWAP1 SLOAD SWAP1 PUSH2 0x100 EXP SWAP1 DIV PUSH20 0xFFFFFFFFFFFFFFFFFFFFFFFFFFFFFFFFFFFFFFFF AND PUSH20 0xFFFFFFFFFFFFFFFFFFFFFFFFFFFFFFFFFFFFFFFF AND PUSH4 0x7CA51FBF DUP3 PUSH1 0x40 MLOAD DUP3 PUSH4 0xFFFFFFFF AND PUSH1 0xE0 SHL DUP2 MSTORE PUSH1 0x4 ADD PUSH2 0x705F SWAP2 SWAP1 PUSH2 0x7F11 JUMP JUMPDEST PUSH1 0x0 PUSH1 0x40 MLOAD DUP1 DUP4 SUB DUP2 PUSH1 0x0 DUP8 DUP1 EXTCODESIZE ISZERO DUP1 ISZERO PUSH2 0x7079 JUMPI PUSH1 0x0 DUP1 REVERT JUMPDEST POP GAS CALL ISZERO DUP1 ISZERO PUSH2 0x708D JUMPI RETURNDATASIZE PUSH1 0x0 DUP1 RETURNDATACOPY RETURNDATASIZE PUSH1 0x0 REVERT JUMPDEST POP POP POP POP PUSH2 0x709A DUP3 PUSH2 0x709E JUMP JUMPDEST POP POP JUMP JUMPDEST PUSH1 0x0 PUSH1 0x1B PUSH1 0x0 DUP4 DUP2 MSTORE PUSH1 0x20 ADD SWAP1 DUP2 MSTORE PUSH1 0x20 ADD PUSH1 0x0 KECCAK256 DUP1 SLOAD PUSH2 0x70BE SWAP1 PUSH2 0x8897 JUMP JUMPDEST DUP1 PUSH1 0x1F ADD PUSH1 0x20 DUP1 SWAP2 DIV MUL PUSH1 0x20 ADD PUSH1 0x40 MLOAD SWAP1 DUP2 ADD PUSH1 0x40 MSTORE DUP1 SWAP3 SWAP2 SWAP1 DUP2 DUP2 MSTORE PUSH1 0x20 ADD DUP3 DUP1 SLOAD PUSH2 0x70EA SWAP1 PUSH2 0x8897 JUMP JUMPDEST DUP1 ISZERO PUSH2 0x7137 JUMPI DUP1 PUSH1 0x1F LT PUSH2 0x710C JUMPI PUSH2 0x100 DUP1 DUP4 SLOAD DIV MUL DUP4 MSTORE SWAP2 PUSH1 0x20 ADD SWAP2 PUSH2 0x7137 JUMP JUMPDEST DUP3 ADD SWAP2 SWAP1 PUSH1 0x0 MSTORE PUSH1 0x20 PUSH1 0x0 KECCAK256 SWAP1 JUMPDEST DUP2 SLOAD DUP2 MSTORE SWAP1 PUSH1 0x1 ADD SWAP1 PUSH1 0x20 ADD DUP1 DUP4 GT PUSH2 0x711A JUMPI DUP3 SWAP1 SUB PUSH1 0x1F AND DUP3 ADD SWAP2 JUMPDEST POP POP POP POP POP SWAP1 POP DUP2 CALLER PUSH20 0xFFFFFFFFFFFFFFFFFFFFFFFFFFFFFFFFFFFFFFFF AND PUSH32 0x28FCA9BC3D4A734A707BD9396D50341C1F45E1D455C4AA4A58CEEE0E09F64544 PUSH1 0x1C PUSH1 0x0 DUP7 DUP2 MSTORE PUSH1 0x20 ADD SWAP1 DUP2 MSTORE PUSH1 0x20 ADD PUSH1 0x0 KECCAK256 SLOAD PUSH1 0xE PUSH1 0x0 SWAP1 SLOAD SWAP1 PUSH2 0x100 EXP SWAP1 DIV PUSH20 0xFFFFFFFFFFFFFFFFFFFFFFFFFFFFFFFFFFFFFFFF AND PUSH20 0xFFFFFFFFFFFFFFFFFFFFFFFFFFFFFFFFFFFFFFFF AND PUSH4 0x96C82E57 PUSH1 0x40 MLOAD DUP2 PUSH4 0xFFFFFFFF AND PUSH1 0xE0 SHL DUP2 MSTORE PUSH1 0x4 ADD PUSH1 0x20 PUSH1 0x40 MLOAD DUP1 DUP4 SUB DUP2 DUP7 DUP1 EXTCODESIZE ISZERO DUP1 ISZERO PUSH2 0x71F3 JUMPI PUSH1 0x0 DUP1 REVERT JUMPDEST POP GAS STATICCALL ISZERO DUP1 ISZERO PUSH2 0x7207 JUMPI RETURNDATASIZE PUSH1 0x0 DUP1 RETURNDATACOPY RETURNDATASIZE PUSH1 0x0 REVERT JUMPDEST POP POP POP POP PUSH1 0x40 MLOAD RETURNDATASIZE PUSH1 0x1F NOT PUSH1 0x1F DUP3 ADD AND DUP3 ADD DUP1 PUSH1 0x40 MSTORE POP DUP2 ADD SWAP1 PUSH2 0x722B SWAP2 SWAP1 PUSH2 0x791B JUMP JUMPDEST DUP6 PUSH1 0x40 MLOAD PUSH2 0x723B SWAP4 SWAP3 SWAP2 SWAP1 PUSH2 0x83E7 JUMP JUMPDEST PUSH1 0x40 MLOAD DUP1 SWAP2 SUB SWAP1 LOG3 PUSH1 0x0 PUSH1 0x1C PUSH1 0x0 DUP5 DUP2 MSTORE PUSH1 0x20 ADD SWAP1 DUP2 MSTORE PUSH1 0x20 ADD PUSH1 0x0 KECCAK256 DUP2 SWAP1 SSTORE POP PUSH1 0x1 PUSH1 0x1F PUSH1 0x0 DUP5 DUP2 MSTORE PUSH1 0x20 ADD SWAP1 DUP2 MSTORE PUSH1 0x20 ADD PUSH1 0x0 KECCAK256 PUSH1 0x0 PUSH2 0x100 EXP DUP2 SLOAD DUP2 PUSH1 0xFF MUL NOT AND SWAP1 DUP4 ISZERO ISZERO MUL OR SWAP1 SSTORE POP PUSH1 0x0 PUSH1 0x1E PUSH1 0x0 DUP5 DUP2 MSTORE PUSH1 0x20 ADD SWAP1 DUP2 MSTORE PUSH1 0x20 ADD PUSH1 0x0 KECCAK256 PUSH1 0x0 PUSH2 0x100 EXP DUP2 SLOAD DUP2 PUSH1 0xFF MUL NOT AND SWAP1 DUP4 ISZERO ISZERO MUL OR SWAP1 SSTORE POP PUSH1 0x0 PUSH1 0x20 PUSH1 0x0 DUP5 DUP2 MSTORE PUSH1 0x20 ADD SWAP1 DUP2 MSTORE PUSH1 0x20 ADD PUSH1 0x0 KECCAK256 PUSH1 0x0 PUSH2 0x100 EXP DUP2 SLOAD DUP2 PUSH1 0xFF MUL NOT AND SWAP1 DUP4 ISZERO ISZERO MUL OR SWAP1 SSTORE POP POP POP JUMP JUMPDEST DUP3 DUP1 SLOAD PUSH2 0x72F0 SWAP1 PUSH2 0x8897 JUMP JUMPDEST SWAP1 PUSH1 0x0 MSTORE PUSH1 0x20 PUSH1 0x0 KECCAK256 SWAP1 PUSH1 0x1F ADD PUSH1 0x20 SWAP1 DIV DUP2 ADD SWAP3 DUP3 PUSH2 0x7312 JUMPI PUSH1 0x0 DUP6 SSTORE PUSH2 0x7359 JUMP JUMPDEST DUP3 PUSH1 0x1F LT PUSH2 0x732B JUMPI DUP1 MLOAD PUSH1 0xFF NOT AND DUP4 DUP1 ADD OR DUP6 SSTORE PUSH2 0x7359 JUMP JUMPDEST DUP3 DUP1 ADD PUSH1 0x1 ADD DUP6 SSTORE DUP3 ISZERO PUSH2 0x7359 JUMPI SWAP2 DUP3 ADD JUMPDEST DUP3 DUP2 GT ISZERO PUSH2 0x7358 JUMPI DUP3 MLOAD DUP3 SSTORE SWAP2 PUSH1 0x20 ADD SWAP2 SWAP1 PUSH1 0x1 ADD SWAP1 PUSH2 0x733D JUMP JUMPDEST JUMPDEST POP SWAP1 POP PUSH2 0x7366 SWAP2 SWAP1 PUSH2 0x73D9 JUMP JUMPDEST POP SWAP1 JUMP JUMPDEST PUSH1 0x40 MLOAD DUP1 PUSH2 0x140 ADD PUSH1 0x40 MSTORE DUP1 PUSH1 0x0 DUP2 MSTORE PUSH1 0x20 ADD PUSH1 0x60 DUP2 MSTORE PUSH1 0x20 ADD PUSH1 0x0 DUP2 MSTORE PUSH1 0x20 ADD PUSH1 0x0 DUP2 MSTORE PUSH1 0x20 ADD PUSH1 0x0 ISZERO ISZERO DUP2 MSTORE PUSH1 0x20 ADD PUSH1 0x0 ISZERO ISZERO DUP2 MSTORE PUSH1 0x20 ADD PUSH1 0x0 DUP2 MSTORE PUSH1 0x20 ADD PUSH1 0x0 PUSH20 0xFFFFFFFFFFFFFFFFFFFFFFFFFFFFFFFFFFFFFFFF AND DUP2 MSTORE PUSH1 0x20 ADD PUSH1 0x0 ISZERO ISZERO DUP2 MSTORE PUSH1 0x20 ADD PUSH1 0x0 DUP2 MSTORE POP SWAP1 JUMP JUMPDEST JUMPDEST DUP1 DUP3 GT ISZERO PUSH2 0x73F2 JUMPI PUSH1 0x0 DUP2 PUSH1 0x0 SWAP1 SSTORE POP PUSH1 0x1 ADD PUSH2 0x73DA JUMP JUMPDEST POP SWAP1 JUMP JUMPDEST PUSH1 0x0 PUSH2 0x7409 PUSH2 0x7404 DUP5 PUSH2 0x8481 JUMP JUMPDEST PUSH2 0x845C JUMP JUMPDEST SWAP1 POP DUP3 DUP2 MSTORE PUSH1 0x20 DUP2 ADD DUP5 DUP5 DUP5 ADD GT ISZERO PUSH2 0x7421 JUMPI PUSH1 0x0 DUP1 REVERT JUMPDEST PUSH2 0x742C DUP5 DUP3 DUP6 PUSH2 0x8855 JUMP JUMPDEST POP SWAP4 SWAP3 POP POP POP JUMP JUMPDEST PUSH1 0x0 DUP2 CALLDATALOAD SWAP1 POP PUSH2 0x7443 DUP2 PUSH2 0x8C4E JUMP JUMPDEST SWAP3 SWAP2 POP POP JUMP JUMPDEST PUSH1 0x0 DUP2 MLOAD SWAP1 POP PUSH2 0x7458 DUP2 PUSH2 0x8C65 JUMP JUMPDEST SWAP3 SWAP2 POP POP JUMP JUMPDEST PUSH1 0x0 DUP2 MLOAD SWAP1 POP PUSH2 0x746D DUP2 PUSH2 0x8C7C JUMP JUMPDEST SWAP3 SWAP2 POP POP JUMP JUMPDEST PUSH1 0x0 DUP2 MLOAD SWAP1 POP PUSH2 0x7482 DUP2 PUSH2 0x8C93 JUMP JUMPDEST SWAP3 SWAP2 POP POP JUMP JUMPDEST PUSH1 0x0 DUP2 MLOAD SWAP1 POP PUSH2 0x7497 DUP2 PUSH2 0x8CAA JUMP JUMPDEST SWAP3 SWAP2 POP POP JUMP JUMPDEST PUSH1 0x0 DUP2 MLOAD SWAP1 POP PUSH2 0x74AC DUP2 PUSH2 0x8CC1 JUMP JUMPDEST SWAP3 SWAP2 POP POP JUMP JUMPDEST PUSH1 0x0 DUP2 MLOAD SWAP1 POP PUSH2 0x74C1 DUP2 PUSH2 0x8CD8 JUMP JUMPDEST SWAP3 SWAP2 POP POP JUMP JUMPDEST PUSH1 0x0 DUP2 MLOAD SWAP1 POP PUSH2 0x74D6 DUP2 PUSH2 0x8CEF JUMP JUMPDEST SWAP3 SWAP2 POP POP JUMP JUMPDEST PUSH1 0x0 DUP2 MLOAD SWAP1 POP PUSH2 0x74EB DUP2 PUSH2 0x8D06 JUMP JUMPDEST SWAP3 SWAP2 POP POP JUMP JUMPDEST PUSH1 0x0 DUP2 MLOAD SWAP1 POP PUSH2 0x7500 DUP2 PUSH2 0x8D1D JUMP JUMPDEST SWAP3 SWAP2 POP POP JUMP JUMPDEST PUSH1 0x0 DUP2 MLOAD SWAP1 POP PUSH2 0x7515 DUP2 PUSH2 0x8D34 JUMP JUMPDEST SWAP3 SWAP2 POP POP JUMP JUMPDEST PUSH1 0x0 DUP3 PUSH1 0x1F DUP4 ADD SLT PUSH2 0x752C JUMPI PUSH1 0x0 DUP1 REVERT JUMPDEST DUP2 CALLDATALOAD PUSH2 0x753C DUP5 DUP3 PUSH1 0x20 DUP7 ADD PUSH2 0x73F6 JUMP JUMPDEST SWAP2 POP POP SWAP3 SWAP2 POP POP JUMP JUMPDEST PUSH1 0x0 DUP2 CALLDATALOAD SWAP1 POP PUSH2 0x7554 DUP2 PUSH2 0x8D4B JUMP JUMPDEST SWAP3 SWAP2 POP POP JUMP JUMPDEST PUSH1 0x0 DUP2 MLOAD SWAP1 POP PUSH2 0x7569 DUP2 PUSH2 0x8D4B JUMP JUMPDEST SWAP3 SWAP2 POP POP JUMP JUMPDEST PUSH1 0x0 DUP2 CALLDATALOAD SWAP1 POP PUSH2 0x757E DUP2 PUSH2 0x8D62 JUMP JUMPDEST SWAP3 SWAP2 POP POP JUMP JUMPDEST PUSH1 0x0 PUSH1 0x20 DUP3 DUP5 SUB SLT ISZERO PUSH2 0x7596 JUMPI PUSH1 0x0 DUP1 REVERT JUMPDEST PUSH1 0x0 PUSH2 0x75A4 DUP5 DUP3 DUP6 ADD PUSH2 0x7434 JUMP JUMPDEST SWAP2 POP POP SWAP3 SWAP2 POP POP JUMP JUMPDEST PUSH1 0x0 DUP1 PUSH1 0x40 DUP4 DUP6 SUB SLT ISZERO PUSH2 0x75C0 JUMPI PUSH1 0x0 DUP1 REVERT JUMPDEST PUSH1 0x0 PUSH2 0x75CE DUP6 DUP3 DUP7 ADD PUSH2 0x7434 JUMP JUMPDEST SWAP3 POP POP PUSH1 0x20 PUSH2 0x75DF DUP6 DUP3 DUP7 ADD PUSH2 0x7434 JUMP JUMPDEST SWAP2 POP POP SWAP3 POP SWAP3 SWAP1 POP JUMP JUMPDEST PUSH1 0x0 DUP1 PUSH1 0x0 PUSH1 0x60 DUP5 DUP7 SUB SLT ISZERO PUSH2 0x75FE JUMPI PUSH1 0x0 DUP1 REVERT JUMPDEST PUSH1 0x0 PUSH2 0x760C DUP7 DUP3 DUP8 ADD PUSH2 0x7434 JUMP JUMPDEST SWAP4 POP POP PUSH1 0x20 PUSH2 0x761D DUP7 DUP3 DUP8 ADD PUSH2 0x7434 JUMP JUMPDEST SWAP3 POP POP PUSH1 0x40 PUSH2 0x762E DUP7 DUP3 DUP8 ADD PUSH2 0x7434 JUMP JUMPDEST SWAP2 POP POP SWAP3 POP SWAP3 POP SWAP3 JUMP JUMPDEST PUSH1 0x0 DUP1 PUSH1 0x40 DUP4 DUP6 SUB SLT ISZERO PUSH2 0x764B JUMPI PUSH1 0x0 DUP1 REVERT JUMPDEST PUSH1 0x0 PUSH2 0x7659 DUP6 DUP3 DUP7 ADD PUSH2 0x7434 JUMP JUMPDEST SWAP3 POP POP PUSH1 0x20 DUP4 ADD CALLDATALOAD PUSH8 0xFFFFFFFFFFFFFFFF DUP2 GT ISZERO PUSH2 0x7676 JUMPI PUSH1 0x0 DUP1 REVERT JUMPDEST PUSH2 0x7682 DUP6 DUP3 DUP7 ADD PUSH2 0x751B JUMP JUMPDEST SWAP2 POP POP SWAP3 POP SWAP3 SWAP1 POP JUMP JUMPDEST PUSH1 0x0 DUP1 PUSH1 0x40 DUP4 DUP6 SUB SLT ISZERO PUSH2 0x769F JUMPI PUSH1 0x0 DUP1 REVERT JUMPDEST PUSH1 0x0 PUSH2 0x76AD DUP6 DUP3 DUP7 ADD PUSH2 0x7434 JUMP JUMPDEST SWAP3 POP POP PUSH1 0x20 PUSH2 0x76BE DUP6 DUP3 DUP7 ADD PUSH2 0x7545 JUMP JUMPDEST SWAP2 POP POP SWAP3 POP SWAP3 SWAP1 POP JUMP JUMPDEST PUSH1 0x0 DUP1 PUSH1 0x0 PUSH1 0x60 DUP5 DUP7 SUB SLT ISZERO PUSH2 0x76DD JUMPI PUSH1 0x0 DUP1 REVERT JUMPDEST PUSH1 0x0 PUSH2 0x76EB DUP7 DUP3 DUP8 ADD PUSH2 0x7434 JUMP JUMPDEST SWAP4 POP POP PUSH1 0x20 PUSH2 0x76FC DUP7 DUP3 DUP8 ADD PUSH2 0x7545 JUMP JUMPDEST SWAP3 POP POP PUSH1 0x40 PUSH2 0x770D DUP7 DUP3 DUP8 ADD PUSH2 0x7434 JUMP JUMPDEST SWAP2 POP POP SWAP3 POP SWAP3 POP SWAP3 JUMP JUMPDEST PUSH1 0x0 PUSH1 0x20 DUP3 DUP5 SUB SLT ISZERO PUSH2 0x7729 JUMPI PUSH1 0x0 DUP1 REVERT JUMPDEST PUSH1 0x0 PUSH2 0x7737 DUP5 DUP3 DUP6 ADD PUSH2 0x7449 JUMP JUMPDEST SWAP2 POP POP SWAP3 SWAP2 POP POP JUMP JUMPDEST PUSH1 0x0 PUSH1 0x20 DUP3 DUP5 SUB SLT ISZERO PUSH2 0x7752 JUMPI PUSH1 0x0 DUP1 REVERT JUMPDEST PUSH1 0x0 PUSH2 0x7760 DUP5 DUP3 DUP6 ADD PUSH2 0x745E JUMP JUMPDEST SWAP2 POP POP SWAP3 SWAP2 POP POP JUMP JUMPDEST PUSH1 0x0 PUSH1 0x20 DUP3 DUP5 SUB SLT ISZERO PUSH2 0x777B JUMPI PUSH1 0x0 DUP1 REVERT JUMPDEST PUSH1 0x0 PUSH2 0x7789 DUP5 DUP3 DUP6 ADD PUSH2 0x7473 JUMP JUMPDEST SWAP2 POP POP SWAP3 SWAP2 POP POP JUMP JUMPDEST PUSH1 0x0 PUSH1 0x20 DUP3 DUP5 SUB SLT ISZERO PUSH2 0x77A4 JUMPI PUSH1 0x0 DUP1 REVERT JUMPDEST PUSH1 0x0 PUSH2 0x77B2 DUP5 DUP3 DUP6 ADD PUSH2 0x7488 JUMP JUMPDEST SWAP2 POP POP SWAP3 SWAP2 POP POP JUMP JUMPDEST PUSH1 0x0 PUSH1 0x20 DUP3 DUP5 SUB SLT ISZERO PUSH2 0x77CD JUMPI PUSH1 0x0 DUP1 REVERT JUMPDEST PUSH1 0x0 PUSH2 0x77DB DUP5 DUP3 DUP6 ADD PUSH2 0x749D JUMP JUMPDEST SWAP2 POP POP SWAP3 SWAP2 POP POP JUMP JUMPDEST PUSH1 0x0 PUSH1 0x20 DUP3 DUP5 SUB SLT ISZERO PUSH2 0x77F6 JUMPI PUSH1 0x0 DUP1 REVERT JUMPDEST PUSH1 0x0 PUSH2 0x7804 DUP5 DUP3 DUP6 ADD PUSH2 0x74B2 JUMP JUMPDEST SWAP2 POP POP SWAP3 SWAP2 POP POP JUMP JUMPDEST PUSH1 0x0 PUSH1 0x20 DUP3 DUP5 SUB SLT ISZERO PUSH2 0x781F JUMPI PUSH1 0x0 DUP1 REVERT JUMPDEST PUSH1 0x0 PUSH2 0x782D DUP5 DUP3 DUP6 ADD PUSH2 0x74C7 JUMP JUMPDEST SWAP2 POP POP SWAP3 SWAP2 POP POP JUMP JUMPDEST PUSH1 0x0 PUSH1 0x20 DUP3 DUP5 SUB SLT ISZERO PUSH2 0x7848 JUMPI PUSH1 0x0 DUP1 REVERT JUMPDEST PUSH1 0x0 PUSH2 0x7856 DUP5 DUP3 DUP6 ADD PUSH2 0x74DC JUMP JUMPDEST SWAP2 POP POP SWAP3 SWAP2 POP POP JUMP JUMPDEST PUSH1 0x0 PUSH1 0x20 DUP3 DUP5 SUB SLT ISZERO PUSH2 0x7871 JUMPI PUSH1 0x0 DUP1 REVERT JUMPDEST PUSH1 0x0 PUSH2 0x787F DUP5 DUP3 DUP6 ADD PUSH2 0x74F1 JUMP JUMPDEST SWAP2 POP POP SWAP3 SWAP2 POP POP JUMP JUMPDEST PUSH1 0x0 PUSH1 0x20 DUP3 DUP5 SUB SLT ISZERO PUSH2 0x789A JUMPI PUSH1 0x0 DUP1 REVERT JUMPDEST PUSH1 0x0 PUSH2 0x78A8 DUP5 DUP3 DUP6 ADD PUSH2 0x7506 JUMP JUMPDEST SWAP2 POP POP SWAP3 SWAP2 POP POP JUMP JUMPDEST PUSH1 0x0 PUSH1 0x20 DUP3 DUP5 SUB SLT ISZERO PUSH2 0x78C3 JUMPI PUSH1 0x0 DUP1 REVERT JUMPDEST PUSH1 0x0 DUP3 ADD CALLDATALOAD PUSH8 0xFFFFFFFFFFFFFFFF DUP2 GT ISZERO PUSH2 0x78DD JUMPI PUSH1 0x0 DUP1 REVERT JUMPDEST PUSH2 0x78E9 DUP5 DUP3 DUP6 ADD PUSH2 0x751B JUMP JUMPDEST SWAP2 POP POP SWAP3 SWAP2 POP POP JUMP JUMPDEST PUSH1 0x0 PUSH1 0x20 DUP3 DUP5 SUB SLT ISZERO PUSH2 0x7904 JUMPI PUSH1 0x0 DUP1 REVERT JUMPDEST PUSH1 0x0 PUSH2 0x7912 DUP5 DUP3 DUP6 ADD PUSH2 0x7545 JUMP JUMPDEST SWAP2 POP POP SWAP3 SWAP2 POP POP JUMP JUMPDEST PUSH1 0x0 PUSH1 0x20 DUP3 DUP5 SUB SLT ISZERO PUSH2 0x792D JUMPI PUSH1 0x0 DUP1 REVERT JUMPDEST PUSH1 0x0 PUSH2 0x793B DUP5 DUP3 DUP6 ADD PUSH2 0x755A JUMP JUMPDEST SWAP2 POP POP SWAP3 SWAP2 POP POP JUMP JUMPDEST PUSH1 0x0 DUP1 PUSH1 0x40 DUP4 DUP6 SUB SLT ISZERO PUSH2 0x7957 JUMPI PUSH1 0x0 DUP1 REVERT JUMPDEST PUSH1 0x0 PUSH2 0x7965 DUP6 DUP3 DUP7 ADD PUSH2 0x7545 JUMP JUMPDEST SWAP3 POP POP PUSH1 0x20 PUSH2 0x7976 DUP6 DUP3 DUP7 ADD PUSH2 0x7434 JUMP JUMPDEST SWAP2 POP POP SWAP3 POP SWAP3 SWAP1 POP JUMP JUMPDEST PUSH1 0x0 DUP1 PUSH1 0x40 DUP4 DUP6 SUB SLT ISZERO PUSH2 0x7993 JUMPI PUSH1 0x0 DUP1 REVERT JUMPDEST PUSH1 0x0 PUSH2 0x79A1 DUP6 DUP3 DUP7 ADD PUSH2 0x756F JUMP JUMPDEST SWAP3 POP POP PUSH1 0x20 DUP4 ADD CALLDATALOAD PUSH8 0xFFFFFFFFFFFFFFFF DUP2 GT ISZERO PUSH2 0x79BE JUMPI PUSH1 0x0 DUP1 REVERT JUMPDEST PUSH2 0x79CA DUP6 DUP3 DUP7 ADD PUSH2 0x751B JUMP JUMPDEST SWAP2 POP POP SWAP3 POP SWAP3 SWAP1 POP JUMP JUMPDEST PUSH1 0x0 DUP1 PUSH1 0x0 DUP1 PUSH1 0x0 PUSH1 0xA0 DUP7 DUP9 SUB SLT ISZERO PUSH2 0x79EC JUMPI PUSH1 0x0 DUP1 REVERT JUMPDEST PUSH1 0x0 PUSH2 0x79FA DUP9 DUP3 DUP10 ADD PUSH2 0x756F JUMP JUMPDEST SWAP6 POP POP PUSH1 0x20 PUSH2 0x7A0B DUP9 DUP3 DUP10 ADD PUSH2 0x756F JUMP JUMPDEST SWAP5 POP POP PUSH1 0x40 PUSH2 0x7A1C DUP9 DUP3 DUP10 ADD PUSH2 0x756F JUMP JUMPDEST SWAP4 POP POP PUSH1 0x60 PUSH2 0x7A2D DUP9 DUP3 DUP10 ADD PUSH2 0x756F JUMP JUMPDEST SWAP3 POP POP PUSH1 0x80 PUSH2 0x7A3E DUP9 DUP3 DUP10 ADD PUSH2 0x756F JUMP JUMPDEST SWAP2 POP POP SWAP3 SWAP6 POP SWAP3 SWAP6 SWAP1 SWAP4 POP JUMP JUMPDEST PUSH1 0x0 PUSH2 0x7A57 DUP4 DUP4 PUSH2 0x7A63 JUMP JUMPDEST PUSH1 0x20 DUP4 ADD SWAP1 POP SWAP3 SWAP2 POP POP JUMP JUMPDEST PUSH2 0x7A6C DUP2 PUSH2 0x8643 JUMP JUMPDEST DUP3 MSTORE POP POP JUMP JUMPDEST PUSH2 0x7A7B DUP2 PUSH2 0x8643 JUMP JUMPDEST DUP3 MSTORE POP POP JUMP JUMPDEST PUSH1 0x0 PUSH2 0x7A8C DUP3 PUSH2 0x84C2 JUMP JUMPDEST PUSH2 0x7A96 DUP2 DUP6 PUSH2 0x84F0 JUMP JUMPDEST SWAP4 POP PUSH2 0x7AA1 DUP4 PUSH2 0x84B2 JUMP JUMPDEST DUP1 PUSH1 0x0 JUMPDEST DUP4 DUP2 LT ISZERO PUSH2 0x7AD2 JUMPI DUP2 MLOAD PUSH2 0x7AB9 DUP9 DUP3 PUSH2 0x7A4B JUMP JUMPDEST SWAP8 POP PUSH2 0x7AC4 DUP4 PUSH2 0x84E3 JUMP JUMPDEST SWAP3 POP POP PUSH1 0x1 DUP2 ADD SWAP1 POP PUSH2 0x7AA5 JUMP JUMPDEST POP DUP6 SWAP4 POP POP POP POP SWAP3 SWAP2 POP POP JUMP JUMPDEST PUSH2 0x7AE8 DUP2 PUSH2 0x8655 JUMP JUMPDEST DUP3 MSTORE POP POP JUMP JUMPDEST PUSH2 0x7AF7 DUP2 PUSH2 0x8655 JUMP JUMPDEST DUP3 MSTORE POP POP JUMP JUMPDEST PUSH1 0x0 PUSH2 0x7B08 DUP3 PUSH2 0x84CD JUMP JUMPDEST PUSH2 0x7B12 DUP2 DUP6 PUSH2 0x8501 JUMP JUMPDEST SWAP4 POP PUSH2 0x7B22 DUP2 DUP6 PUSH1 0x20 DUP7 ADD PUSH2 0x8864 JUMP JUMPDEST DUP1 DUP5 ADD SWAP2 POP POP SWAP3 SWAP2 POP POP JUMP JUMPDEST PUSH2 0x7B37 DUP2 PUSH2 0x8735 JUMP JUMPDEST DUP3 MSTORE POP POP JUMP JUMPDEST PUSH2 0x7B46 DUP2 PUSH2 0x8759 JUMP JUMPDEST DUP3 MSTORE POP POP JUMP JUMPDEST PUSH2 0x7B55 DUP2 PUSH2 0x877D JUMP JUMPDEST DUP3 MSTORE POP POP JUMP JUMPDEST PUSH2 0x7B64 DUP2 PUSH2 0x87A1 JUMP JUMPDEST DUP3 MSTORE POP POP JUMP JUMPDEST PUSH2 0x7B73 DUP2 PUSH2 0x87C5 JUMP JUMPDEST DUP3 MSTORE POP POP JUMP JUMPDEST PUSH2 0x7B82 DUP2 PUSH2 0x87E9 JUMP JUMPDEST DUP3 MSTORE POP POP JUMP JUMPDEST PUSH2 0x7B91 DUP2 PUSH2 0x880D JUMP JUMPDEST DUP3 MSTORE POP POP JUMP JUMPDEST PUSH2 0x7BA0 DUP2 PUSH2 0x8831 JUMP JUMPDEST DUP3 MSTORE POP POP JUMP JUMPDEST PUSH1 0x0 PUSH2 0x7BB1 DUP3 PUSH2 0x84D8 JUMP JUMPDEST PUSH2 0x7BBB DUP2 DUP6 PUSH2 0x850C JUMP JUMPDEST SWAP4 POP PUSH2 0x7BCB DUP2 DUP6 PUSH1 0x20 DUP7 ADD PUSH2 0x8864 JUMP JUMPDEST PUSH2 0x7BD4 DUP2 PUSH2 0x89FF JUMP JUMPDEST DUP5 ADD SWAP2 POP POP SWAP3 SWAP2 POP POP JUMP JUMPDEST PUSH1 0x0 PUSH2 0x7BEA DUP3 PUSH2 0x84D8 JUMP JUMPDEST PUSH2 0x7BF4 DUP2 DUP6 PUSH2 0x851D JUMP JUMPDEST SWAP4 POP PUSH2 0x7C04 DUP2 DUP6 PUSH1 0x20 DUP7 ADD PUSH2 0x8864 JUMP JUMPDEST PUSH2 0x7C0D DUP2 PUSH2 0x89FF JUMP JUMPDEST DUP5 ADD SWAP2 POP POP SWAP3 SWAP2 POP POP JUMP JUMPDEST PUSH1 0x0 PUSH2 0x7C25 PUSH1 0x7 DUP4 PUSH2 0x851D JUMP JUMPDEST SWAP2 POP PUSH2 0x7C30 DUP3 PUSH2 0x8A10 JUMP JUMPDEST PUSH1 0x20 DUP3 ADD SWAP1 POP SWAP2 SWAP1 POP JUMP JUMPDEST PUSH1 0x0 PUSH2 0x7C48 PUSH1 0x4 DUP4 PUSH2 0x851D JUMP JUMPDEST SWAP2 POP PUSH2 0x7C53 DUP3 PUSH2 0x8A39 JUMP JUMPDEST PUSH1 0x20 DUP3 ADD SWAP1 POP SWAP2 SWAP1 POP JUMP JUMPDEST PUSH1 0x0 PUSH2 0x7C6B PUSH1 0xA DUP4 PUSH2 0x851D JUMP JUMPDEST SWAP2 POP PUSH2 0x7C76 DUP3 PUSH2 0x8A62 JUMP JUMPDEST PUSH1 0x20 DUP3 ADD SWAP1 POP SWAP2 SWAP1 POP JUMP JUMPDEST PUSH1 0x0 PUSH2 0x7C8E PUSH1 0x8 DUP4 PUSH2 0x851D JUMP JUMPDEST SWAP2 POP PUSH2 0x7C99 DUP3 PUSH2 0x8A8B JUMP JUMPDEST PUSH1 0x20 DUP3 ADD SWAP1 POP SWAP2 SWAP1 POP JUMP JUMPDEST PUSH1 0x0 PUSH2 0x7CB1 PUSH1 0xB DUP4 PUSH2 0x851D JUMP JUMPDEST SWAP2 POP PUSH2 0x7CBC DUP3 PUSH2 0x8AB4 JUMP JUMPDEST PUSH1 0x20 DUP3 ADD SWAP1 POP SWAP2 SWAP1 POP JUMP JUMPDEST PUSH1 0x0 PUSH2 0x7CD4 PUSH1 0x7 DUP4 PUSH2 0x851D JUMP JUMPDEST SWAP2 POP PUSH2 0x7CDF DUP3 PUSH2 0x8ADD JUMP JUMPDEST PUSH1 0x20 DUP3 ADD SWAP1 POP SWAP2 SWAP1 POP JUMP JUMPDEST PUSH1 0x0 PUSH2 0x7CF7 PUSH1 0x6 DUP4 PUSH2 0x851D JUMP JUMPDEST SWAP2 POP PUSH2 0x7D02 DUP3 PUSH2 0x8B06 JUMP JUMPDEST PUSH1 0x20 DUP3 ADD SWAP1 POP SWAP2 SWAP1 POP JUMP JUMPDEST PUSH1 0x0 PUSH2 0x7D1A PUSH1 0x8 DUP4 PUSH2 0x851D JUMP JUMPDEST SWAP2 POP PUSH2 0x7D25 DUP3 PUSH2 0x8B2F JUMP JUMPDEST PUSH1 0x20 DUP3 ADD SWAP1 POP SWAP2 SWAP1 POP JUMP JUMPDEST PUSH1 0x0 PUSH2 0x7D3D PUSH1 0x9 DUP4 PUSH2 0x851D JUMP JUMPDEST SWAP2 POP PUSH2 0x7D48 DUP3 PUSH2 0x8B58 JUMP JUMPDEST PUSH1 0x20 DUP3 ADD SWAP1 POP SWAP2 SWAP1 POP JUMP JUMPDEST PUSH1 0x0 PUSH2 0x7D60 PUSH1 0x6 DUP4 PUSH2 0x851D JUMP JUMPDEST SWAP2 POP PUSH2 0x7D6B DUP3 PUSH2 0x8B81 JUMP JUMPDEST PUSH1 0x20 DUP3 ADD SWAP1 POP SWAP2 SWAP1 POP JUMP JUMPDEST PUSH1 0x0 PUSH2 0x7D83 PUSH1 0x7 DUP4 PUSH2 0x851D JUMP JUMPDEST SWAP2 POP PUSH2 0x7D8E DUP3 PUSH2 0x8BAA JUMP JUMPDEST PUSH1 0x20 DUP3 ADD SWAP1 POP SWAP2 SWAP1 POP JUMP JUMPDEST PUSH1 0x0 PUSH2 0x7DA6 PUSH1 0x8 DUP4 PUSH2 0x851D JUMP JUMPDEST SWAP2 POP PUSH2 0x7DB1 DUP3 PUSH2 0x8BD3 JUMP JUMPDEST PUSH1 0x20 DUP3 ADD SWAP1 POP SWAP2 SWAP1 POP JUMP JUMPDEST PUSH1 0x0 PUSH2 0x7DC9 PUSH1 0x5 DUP4 PUSH2 0x851D JUMP JUMPDEST SWAP2 POP PUSH2 0x7DD4 DUP3 PUSH2 0x8BFC JUMP JUMPDEST PUSH1 0x20 DUP3 ADD SWAP1 POP SWAP2 SWAP1 POP JUMP JUMPDEST PUSH1 0x0 PUSH2 0x7DEC PUSH1 0x5 DUP4 PUSH2 0x851D JUMP JUMPDEST SWAP2 POP PUSH2 0x7DF7 DUP3 PUSH2 0x8C25 JUMP JUMPDEST PUSH1 0x20 DUP3 ADD SWAP1 POP SWAP2 SWAP1 POP JUMP JUMPDEST PUSH1 0x0 PUSH2 0x140 DUP4 ADD PUSH1 0x0 DUP4 ADD MLOAD PUSH2 0x7E1B PUSH1 0x0 DUP7 ADD DUP3 PUSH2 0x7EDC JUMP JUMPDEST POP PUSH1 0x20 DUP4 ADD MLOAD DUP5 DUP3 SUB PUSH1 0x20 DUP7 ADD MSTORE PUSH2 0x7E33 DUP3 DUP3 PUSH2 0x7BA6 JUMP JUMPDEST SWAP2 POP POP PUSH1 0x40 DUP4 ADD MLOAD PUSH2 0x7E48 PUSH1 0x40 DUP7 ADD DUP3 PUSH2 0x7EDC JUMP JUMPDEST POP PUSH1 0x60 DUP4 ADD MLOAD PUSH2 0x7E5B PUSH1 0x60 DUP7 ADD DUP3 PUSH2 0x7EDC JUMP JUMPDEST POP PUSH1 0x80 DUP4 ADD MLOAD PUSH2 0x7E6E PUSH1 0x80 DUP7 ADD DUP3 PUSH2 0x7ADF JUMP JUMPDEST POP PUSH1 0xA0 DUP4 ADD MLOAD PUSH2 0x7E81 PUSH1 0xA0 DUP7 ADD DUP3 PUSH2 0x7ADF JUMP JUMPDEST POP PUSH1 0xC0 DUP4 ADD MLOAD PUSH2 0x7E94 PUSH1 0xC0 DUP7 ADD DUP3 PUSH2 0x7EDC JUMP JUMPDEST POP PUSH1 0xE0 DUP4 ADD MLOAD PUSH2 0x7EA7 PUSH1 0xE0 DUP7 ADD DUP3 PUSH2 0x7A63 JUMP JUMPDEST POP PUSH2 0x100 DUP4 ADD MLOAD PUSH2 0x7EBC PUSH2 0x100 DUP7 ADD DUP3 PUSH2 0x7ADF JUMP JUMPDEST POP PUSH2 0x120 DUP4 ADD MLOAD PUSH2 0x7ED1 PUSH2 0x120 DUP7 ADD DUP3 PUSH2 0x7EDC JUMP JUMPDEST POP DUP1 SWAP2 POP POP SWAP3 SWAP2 POP POP JUMP JUMPDEST PUSH2 0x7EE5 DUP2 PUSH2 0x871B JUMP JUMPDEST DUP3 MSTORE POP POP JUMP JUMPDEST PUSH2 0x7EF4 DUP2 PUSH2 0x871B JUMP JUMPDEST DUP3 MSTORE POP POP JUMP JUMPDEST PUSH1 0x0 PUSH2 0x7F06 DUP3 DUP5 PUSH2 0x7AFD JUMP JUMPDEST SWAP2 POP DUP2 SWAP1 POP SWAP3 SWAP2 POP POP JUMP JUMPDEST PUSH1 0x0 PUSH1 0x20 DUP3 ADD SWAP1 POP PUSH2 0x7F26 PUSH1 0x0 DUP4 ADD DUP5 PUSH2 0x7A72 JUMP JUMPDEST SWAP3 SWAP2 POP POP JUMP JUMPDEST PUSH1 0x0 PUSH1 0x40 DUP3 ADD SWAP1 POP PUSH2 0x7F41 PUSH1 0x0 DUP4 ADD DUP6 PUSH2 0x7A72 JUMP JUMPDEST PUSH2 0x7F4E PUSH1 0x20 DUP4 ADD DUP5 PUSH2 0x7A72 JUMP JUMPDEST SWAP4 SWAP3 POP POP POP JUMP JUMPDEST PUSH1 0x0 PUSH1 0x60 DUP3 ADD SWAP1 POP PUSH2 0x7F6A PUSH1 0x0 DUP4 ADD DUP7 PUSH2 0x7A72 JUMP JUMPDEST PUSH2 0x7F77 PUSH1 0x20 DUP4 ADD DUP6 PUSH2 0x7A72 JUMP JUMPDEST PUSH2 0x7F84 PUSH1 0x40 DUP4 ADD DUP5 PUSH2 0x7EEB JUMP JUMPDEST SWAP5 SWAP4 POP POP POP POP JUMP JUMPDEST PUSH1 0x0 PUSH1 0x40 DUP3 ADD SWAP1 POP PUSH2 0x7FA1 PUSH1 0x0 DUP4 ADD DUP6 PUSH2 0x7A72 JUMP JUMPDEST PUSH2 0x7FAE PUSH1 0x20 DUP4 ADD DUP5 PUSH2 0x7EEB JUMP JUMPDEST SWAP4 SWAP3 POP POP POP JUMP JUMPDEST PUSH1 0x0 PUSH1 0x60 DUP3 ADD SWAP1 POP PUSH2 0x7FCA PUSH1 0x0 DUP4 ADD DUP7 PUSH2 0x7A72 JUMP JUMPDEST PUSH2 0x7FD7 PUSH1 0x20 DUP4 ADD DUP6 PUSH2 0x7EEB JUMP JUMPDEST PUSH2 0x7FE4 PUSH1 0x40 DUP4 ADD DUP5 PUSH2 0x7A72 JUMP JUMPDEST SWAP5 SWAP4 POP POP POP POP JUMP JUMPDEST PUSH1 0x0 PUSH1 0x20 DUP3 ADD SWAP1 POP DUP2 DUP2 SUB PUSH1 0x0 DUP4 ADD MSTORE PUSH2 0x8006 DUP2 DUP5 PUSH2 0x7A81 JUMP JUMPDEST SWAP1 POP SWAP3 SWAP2 POP POP JUMP JUMPDEST PUSH1 0x0 PUSH1 0x20 DUP3 ADD SWAP1 POP PUSH2 0x8023 PUSH1 0x0 DUP4 ADD DUP5 PUSH2 0x7AEE JUMP JUMPDEST SWAP3 SWAP2 POP POP JUMP JUMPDEST PUSH1 0x0 PUSH1 0x20 DUP3 ADD SWAP1 POP PUSH2 0x803E PUSH1 0x0 DUP4 ADD DUP5 PUSH2 0x7B2E JUMP JUMPDEST SWAP3 SWAP2 POP POP JUMP JUMPDEST PUSH1 0x0 PUSH1 0x20 DUP3 ADD SWAP1 POP PUSH2 0x8059 PUSH1 0x0 DUP4 ADD DUP5 PUSH2 0x7B3D JUMP JUMPDEST SWAP3 SWAP2 POP POP JUMP JUMPDEST PUSH1 0x0 PUSH1 0x20 DUP3 ADD SWAP1 POP PUSH2 0x8074 PUSH1 0x0 DUP4 ADD DUP5 PUSH2 0x7B4C JUMP JUMPDEST SWAP3 SWAP2 POP POP JUMP JUMPDEST PUSH1 0x0 PUSH1 0x20 DUP3 ADD SWAP1 POP PUSH2 0x808F PUSH1 0x0 DUP4 ADD DUP5 PUSH2 0x7B5B JUMP JUMPDEST SWAP3 SWAP2 POP POP JUMP JUMPDEST PUSH1 0x0 PUSH1 0x20 DUP3 ADD SWAP1 POP PUSH2 0x80AA PUSH1 0x0 DUP4 ADD DUP5 PUSH2 0x7B6A JUMP JUMPDEST SWAP3 SWAP2 POP POP JUMP JUMPDEST PUSH1 0x0 PUSH1 0x20 DUP3 ADD SWAP1 POP PUSH2 0x80C5 PUSH1 0x0 DUP4 ADD DUP5 PUSH2 0x7B79 JUMP JUMPDEST SWAP3 SWAP2 POP POP JUMP JUMPDEST PUSH1 0x0 PUSH1 0x20 DUP3 ADD SWAP1 POP PUSH2 0x80E0 PUSH1 0x0 DUP4 ADD DUP5 PUSH2 0x7B88 JUMP JUMPDEST SWAP3 SWAP2 POP POP JUMP JUMPDEST PUSH1 0x0 PUSH1 0x20 DUP3 ADD SWAP1 POP PUSH2 0x80FB PUSH1 0x0 DUP4 ADD DUP5 PUSH2 0x7B97 JUMP JUMPDEST SWAP3 SWAP2 POP POP JUMP JUMPDEST PUSH1 0x0 PUSH1 0x20 DUP3 ADD SWAP1 POP DUP2 DUP2 SUB PUSH1 0x0 DUP4 ADD MSTORE PUSH2 0x811B DUP2 DUP5 PUSH2 0x7BDF JUMP JUMPDEST SWAP1 POP SWAP3 SWAP2 POP POP JUMP JUMPDEST PUSH1 0x0 PUSH1 0x20 DUP3 ADD SWAP1 POP DUP2 DUP2 SUB PUSH1 0x0 DUP4 ADD MSTORE PUSH2 0x813C DUP2 PUSH2 0x7C18 JUMP JUMPDEST SWAP1 POP SWAP2 SWAP1 POP JUMP JUMPDEST PUSH1 0x0 PUSH1 0x20 DUP3 ADD SWAP1 POP DUP2 DUP2 SUB PUSH1 0x0 DUP4 ADD MSTORE PUSH2 0x815C DUP2 PUSH2 0x7C3B JUMP JUMPDEST SWAP1 POP SWAP2 SWAP1 POP JUMP JUMPDEST PUSH1 0x0 PUSH1 0x20 DUP3 ADD SWAP1 POP DUP2 DUP2 SUB PUSH1 0x0 DUP4 ADD MSTORE PUSH2 0x817C DUP2 PUSH2 0x7C5E JUMP JUMPDEST SWAP1 POP SWAP2 SWAP1 POP JUMP JUMPDEST PUSH1 0x0 PUSH1 0x20 DUP3 ADD SWAP1 POP DUP2 DUP2 SUB PUSH1 0x0 DUP4 ADD MSTORE PUSH2 0x819C DUP2 PUSH2 0x7C81 JUMP JUMPDEST SWAP1 POP SWAP2 SWAP1 POP JUMP JUMPDEST PUSH1 0x0 PUSH1 0x20 DUP3 ADD SWAP1 POP DUP2 DUP2 SUB PUSH1 0x0 DUP4 ADD MSTORE PUSH2 0x81BC DUP2 PUSH2 0x7CA4 JUMP JUMPDEST SWAP1 POP SWAP2 SWAP1 POP JUMP JUMPDEST PUSH1 0x0 PUSH1 0x20 DUP3 ADD SWAP1 POP DUP2 DUP2 SUB PUSH1 0x0 DUP4 ADD MSTORE PUSH2 0x81DC DUP2 PUSH2 0x7CC7 JUMP JUMPDEST SWAP1 POP SWAP2 SWAP1 POP JUMP JUMPDEST PUSH1 0x0 PUSH1 0x20 DUP3 ADD SWAP1 POP DUP2 DUP2 SUB PUSH1 0x0 DUP4 ADD MSTORE PUSH2 0x81FC DUP2 PUSH2 0x7CEA JUMP JUMPDEST SWAP1 POP SWAP2 SWAP1 POP JUMP JUMPDEST PUSH1 0x0 PUSH1 0x20 DUP3 ADD SWAP1 POP DUP2 DUP2 SUB PUSH1 0x0 DUP4 ADD MSTORE PUSH2 0x821C DUP2 PUSH2 0x7D0D JUMP JUMPDEST SWAP1 POP SWAP2 SWAP1 POP JUMP JUMPDEST PUSH1 0x0 PUSH1 0x20 DUP3 ADD SWAP1 POP DUP2 DUP2 SUB PUSH1 0x0 DUP4 ADD MSTORE PUSH2 0x823C DUP2 PUSH2 0x7D30 JUMP JUMPDEST SWAP1 POP SWAP2 SWAP1 POP JUMP JUMPDEST PUSH1 0x0 PUSH1 0x20 DUP3 ADD SWAP1 POP DUP2 DUP2 SUB PUSH1 0x0 DUP4 ADD MSTORE PUSH2 0x825C DUP2 PUSH2 0x7D53 JUMP JUMPDEST SWAP1 POP SWAP2 SWAP1 POP JUMP JUMPDEST PUSH1 0x0 PUSH1 0x20 DUP3 ADD SWAP1 POP DUP2 DUP2 SUB PUSH1 0x0 DUP4 ADD MSTORE PUSH2 0x827C DUP2 PUSH2 0x7D76 JUMP JUMPDEST SWAP1 POP SWAP2 SWAP1 POP JUMP JUMPDEST PUSH1 0x0 PUSH1 0x20 DUP3 ADD SWAP1 POP DUP2 DUP2 SUB PUSH1 0x0 DUP4 ADD MSTORE PUSH2 0x829C DUP2 PUSH2 0x7D99 JUMP JUMPDEST SWAP1 POP SWAP2 SWAP1 POP JUMP JUMPDEST PUSH1 0x0 PUSH1 0x20 DUP3 ADD SWAP1 POP DUP2 DUP2 SUB PUSH1 0x0 DUP4 ADD MSTORE PUSH2 0x82BC DUP2 PUSH2 0x7DBC JUMP JUMPDEST SWAP1 POP SWAP2 SWAP1 POP JUMP JUMPDEST PUSH1 0x0 PUSH1 0x20 DUP3 ADD SWAP1 POP DUP2 DUP2 SUB PUSH1 0x0 DUP4 ADD MSTORE PUSH2 0x82DC DUP2 PUSH2 0x7DDF JUMP JUMPDEST SWAP1 POP SWAP2 SWAP1 POP JUMP JUMPDEST PUSH1 0x0 PUSH1 0x20 DUP3 ADD SWAP1 POP DUP2 DUP2 SUB PUSH1 0x0 DUP4 ADD MSTORE PUSH2 0x82FD DUP2 DUP5 PUSH2 0x7E02 JUMP JUMPDEST SWAP1 POP SWAP3 SWAP2 POP POP JUMP JUMPDEST PUSH1 0x0 PUSH1 0x20 DUP3 ADD SWAP1 POP PUSH2 0x831A PUSH1 0x0 DUP4 ADD DUP5 PUSH2 0x7EEB JUMP JUMPDEST SWAP3 SWAP2 POP POP JUMP JUMPDEST PUSH1 0x0 PUSH1 0x40 DUP3 ADD SWAP1 POP PUSH2 0x8335 PUSH1 0x0 DUP4 ADD DUP6 PUSH2 0x7EEB JUMP JUMPDEST PUSH2 0x8342 PUSH1 0x20 DUP4 ADD DUP5 PUSH2 0x7A72 JUMP JUMPDEST SWAP4 SWAP3 POP POP POP JUMP JUMPDEST PUSH1 0x0 PUSH1 0x40 DUP3 ADD SWAP1 POP PUSH2 0x835E PUSH1 0x0 DUP4 ADD DUP6 PUSH2 0x7EEB JUMP JUMPDEST DUP2 DUP2 SUB PUSH1 0x20 DUP4 ADD MSTORE PUSH2 0x8370 DUP2 DUP5 PUSH2 0x7BDF JUMP JUMPDEST SWAP1 POP SWAP4 SWAP3 POP POP POP JUMP JUMPDEST PUSH1 0x0 PUSH1 0x40 DUP3 ADD SWAP1 POP PUSH2 0x838E PUSH1 0x0 DUP4 ADD DUP6 PUSH2 0x7EEB JUMP JUMPDEST PUSH2 0x839B PUSH1 0x20 DUP4 ADD DUP5 PUSH2 0x7EEB JUMP JUMPDEST SWAP4 SWAP3 POP POP POP JUMP JUMPDEST PUSH1 0x0 PUSH1 0x80 DUP3 ADD SWAP1 POP PUSH2 0x83B7 PUSH1 0x0 DUP4 ADD DUP8 PUSH2 0x7EEB JUMP JUMPDEST PUSH2 0x83C4 PUSH1 0x20 DUP4 ADD DUP7 PUSH2 0x7EEB JUMP JUMPDEST PUSH2 0x83D1 PUSH1 0x40 DUP4 ADD DUP6 PUSH2 0x7A72 JUMP JUMPDEST PUSH2 0x83DE PUSH1 0x60 DUP4 ADD DUP5 PUSH2 0x7A72 JUMP JUMPDEST SWAP6 SWAP5 POP POP POP POP POP JUMP JUMPDEST PUSH1 0x0 PUSH1 0x60 DUP3 ADD SWAP1 POP PUSH2 0x83FC PUSH1 0x0 DUP4 ADD DUP7 PUSH2 0x7EEB JUMP JUMPDEST PUSH2 0x8409 PUSH1 0x20 DUP4 ADD DUP6 PUSH2 0x7EEB JUMP JUMPDEST DUP2 DUP2 SUB PUSH1 0x40 DUP4 ADD MSTORE PUSH2 0x841B DUP2 DUP5 PUSH2 0x7BDF JUMP JUMPDEST SWAP1 POP SWAP5 SWAP4 POP POP POP POP JUMP JUMPDEST PUSH1 0x0 PUSH1 0x60 DUP3 ADD SWAP1 POP PUSH2 0x843A PUSH1 0x0 DUP4 ADD DUP7 PUSH2 0x7EEB JUMP JUMPDEST PUSH2 0x8447 PUSH1 0x20 DUP4 ADD DUP6 PUSH2 0x7EEB JUMP JUMPDEST PUSH2 0x8454 PUSH1 0x40 DUP4 ADD DUP5 PUSH2 0x7EEB JUMP JUMPDEST SWAP5 SWAP4 POP POP POP POP JUMP JUMPDEST PUSH1 0x0 PUSH2 0x8466 PUSH2 0x8477 JUMP JUMPDEST SWAP1 POP PUSH2 0x8472 DUP3 DUP3 PUSH2 0x88C9 JUMP JUMPDEST SWAP2 SWAP1 POP JUMP JUMPDEST PUSH1 0x0 PUSH1 0x40 MLOAD SWAP1 POP SWAP1 JUMP JUMPDEST PUSH1 0x0 PUSH8 0xFFFFFFFFFFFFFFFF DUP3 GT ISZERO PUSH2 0x849C JUMPI PUSH2 0x849B PUSH2 0x89D0 JUMP JUMPDEST JUMPDEST PUSH2 0x84A5 DUP3 PUSH2 0x89FF JUMP JUMPDEST SWAP1 POP PUSH1 0x20 DUP2 ADD SWAP1 POP SWAP2 SWAP1 POP JUMP JUMPDEST PUSH1 0x0 DUP2 SWAP1 POP PUSH1 0x20 DUP3 ADD SWAP1 POP SWAP2 SWAP1 POP JUMP JUMPDEST PUSH1 0x0 DUP2 MLOAD SWAP1 POP SWAP2 SWAP1 POP JUMP JUMPDEST PUSH1 0x0 DUP2 MLOAD SWAP1 POP SWAP2 SWAP1 POP JUMP JUMPDEST PUSH1 0x0 DUP2 MLOAD SWAP1 POP SWAP2 SWAP1 POP JUMP JUMPDEST PUSH1 0x0 PUSH1 0x20 DUP3 ADD SWAP1 POP SWAP2 SWAP1 POP JUMP JUMPDEST PUSH1 0x0 DUP3 DUP3 MSTORE PUSH1 0x20 DUP3 ADD SWAP1 POP SWAP3 SWAP2 POP POP JUMP JUMPDEST PUSH1 0x0 DUP2 SWAP1 POP SWAP3 SWAP2 POP POP JUMP JUMPDEST PUSH1 0x0 DUP3 DUP3 MSTORE PUSH1 0x20 DUP3 ADD SWAP1 POP SWAP3 SWAP2 POP POP JUMP JUMPDEST PUSH1 0x0 DUP3 DUP3 MSTORE PUSH1 0x20 DUP3 ADD SWAP1 POP SWAP3 SWAP2 POP POP JUMP JUMPDEST PUSH1 0x0 PUSH2 0x8539 DUP3 PUSH2 0x871B JUMP JUMPDEST SWAP2 POP PUSH2 0x8544 DUP4 PUSH2 0x871B JUMP JUMPDEST SWAP3 POP DUP3 PUSH32 0xFFFFFFFFFFFFFFFFFFFFFFFFFFFFFFFFFFFFFFFFFFFFFFFFFFFFFFFFFFFFFFFF SUB DUP3 GT ISZERO PUSH2 0x8579 JUMPI PUSH2 0x8578 PUSH2 0x8943 JUMP JUMPDEST JUMPDEST DUP3 DUP3 ADD SWAP1 POP SWAP3 SWAP2 POP POP JUMP JUMPDEST PUSH1 0x0 PUSH2 0x858F DUP3 PUSH2 0x871B JUMP JUMPDEST SWAP2 POP PUSH2 0x859A DUP4 PUSH2 0x871B JUMP JUMPDEST SWAP3 POP DUP3 PUSH2 0x85AA JUMPI PUSH2 0x85A9 PUSH2 0x8972 JUMP JUMPDEST JUMPDEST DUP3 DUP3 DIV SWAP1 POP SWAP3 SWAP2 POP POP JUMP JUMPDEST PUSH1 0x0 PUSH2 0x85C0 DUP3 PUSH2 0x871B JUMP JUMPDEST SWAP2 POP PUSH2 0x85CB DUP4 PUSH2 0x871B JUMP JUMPDEST SWAP3 POP DUP2 PUSH32 0xFFFFFFFFFFFFFFFFFFFFFFFFFFFFFFFFFFFFFFFFFFFFFFFFFFFFFFFFFFFFFFFF DIV DUP4 GT DUP3 ISZERO ISZERO AND ISZERO PUSH2 0x8604 JUMPI PUSH2 0x8603 PUSH2 0x8943 JUMP JUMPDEST JUMPDEST DUP3 DUP3 MUL SWAP1 POP SWAP3 SWAP2 POP POP JUMP JUMPDEST PUSH1 0x0 PUSH2 0x861A DUP3 PUSH2 0x871B JUMP JUMPDEST SWAP2 POP PUSH2 0x8625 DUP4 PUSH2 0x871B JUMP JUMPDEST SWAP3 POP DUP3 DUP3 LT ISZERO PUSH2 0x8638 JUMPI PUSH2 0x8637 PUSH2 0x8943 JUMP JUMPDEST JUMPDEST DUP3 DUP3 SUB SWAP1 POP SWAP3 SWAP2 POP POP JUMP JUMPDEST PUSH1 0x0 PUSH2 0x864E DUP3 PUSH2 0x86FB JUMP JUMPDEST SWAP1 POP SWAP2 SWAP1 POP JUMP JUMPDEST PUSH1 0x0 DUP2 ISZERO ISZERO SWAP1 POP SWAP2 SWAP1 POP JUMP JUMPDEST PUSH1 0x0 DUP2 SWAP1 POP SWAP2 SWAP1 POP JUMP JUMPDEST PUSH1 0x0 PUSH2 0x8676 DUP3 PUSH2 0x8643 JUMP JUMPDEST SWAP1 POP SWAP2 SWAP1 POP JUMP JUMPDEST PUSH1 0x0 PUSH2 0x8688 DUP3 PUSH2 0x8643 JUMP JUMPDEST SWAP1 POP SWAP2 SWAP1 POP JUMP JUMPDEST PUSH1 0x0 PUSH2 0x869A DUP3 PUSH2 0x8643 JUMP JUMPDEST SWAP1 POP SWAP2 SWAP1 POP JUMP JUMPDEST PUSH1 0x0 PUSH2 0x86AC DUP3 PUSH2 0x8643 JUMP JUMPDEST SWAP1 POP SWAP2 SWAP1 POP JUMP JUMPDEST PUSH1 0x0 PUSH2 0x86BE DUP3 PUSH2 0x8643 JUMP JUMPDEST SWAP1 POP SWAP2 SWAP1 POP JUMP JUMPDEST PUSH1 0x0 PUSH2 0x86D0 DUP3 PUSH2 0x8643 JUMP JUMPDEST SWAP1 POP SWAP2 SWAP1 POP JUMP JUMPDEST PUSH1 0x0 PUSH2 0x86E2 DUP3 PUSH2 0x8643 JUMP JUMPDEST SWAP1 POP SWAP2 SWAP1 POP JUMP JUMPDEST PUSH1 0x0 PUSH2 0x86F4 DUP3 PUSH2 0x8643 JUMP JUMPDEST SWAP1 POP SWAP2 SWAP1 POP JUMP JUMPDEST PUSH1 0x0 PUSH20 0xFFFFFFFFFFFFFFFFFFFFFFFFFFFFFFFFFFFFFFFF DUP3 AND SWAP1 POP SWAP2 SWAP1 POP JUMP JUMPDEST PUSH1 0x0 DUP2 SWAP1 POP SWAP2 SWAP1 POP JUMP JUMPDEST PUSH1 0x0 PUSH4 0xFFFFFFFF DUP3 AND SWAP1 POP SWAP2 SWAP1 POP JUMP JUMPDEST PUSH1 0x0 PUSH2 0x8740 DUP3 PUSH2 0x8747 JUMP JUMPDEST SWAP1 POP SWAP2 SWAP1 POP JUMP JUMPDEST PUSH1 0x0 PUSH2 0x8752 DUP3 PUSH2 0x86FB JUMP JUMPDEST SWAP1 POP SWAP2 SWAP1 POP JUMP JUMPDEST PUSH1 0x0 PUSH2 0x8764 DUP3 PUSH2 0x876B JUMP JUMPDEST SWAP1 POP SWAP2 SWAP1 POP JUMP JUMPDEST PUSH1 0x0 PUSH2 0x8776 DUP3 PUSH2 0x86FB JUMP JUMPDEST SWAP1 POP SWAP2 SWAP1 POP JUMP JUMPDEST PUSH1 0x0 PUSH2 0x8788 DUP3 PUSH2 0x878F JUMP JUMPDEST SWAP1 POP SWAP2 SWAP1 POP JUMP JUMPDEST PUSH1 0x0 PUSH2 0x879A DUP3 PUSH2 0x86FB JUMP JUMPDEST SWAP1 POP SWAP2 SWAP1 POP JUMP JUMPDEST PUSH1 0x0 PUSH2 0x87AC DUP3 PUSH2 0x87B3 JUMP JUMPDEST SWAP1 POP SWAP2 SWAP1 POP JUMP JUMPDEST PUSH1 0x0 PUSH2 0x87BE DUP3 PUSH2 0x86FB JUMP JUMPDEST SWAP1 POP SWAP2 SWAP1 POP JUMP JUMPDEST PUSH1 0x0 PUSH2 0x87D0 DUP3 PUSH2 0x87D7 JUMP JUMPDEST SWAP1 POP SWAP2 SWAP1 POP JUMP JUMPDEST PUSH1 0x0 PUSH2 0x87E2 DUP3 PUSH2 0x86FB JUMP JUMPDEST SWAP1 POP SWAP2 SWAP1 POP JUMP JUMPDEST PUSH1 0x0 PUSH2 0x87F4 DUP3 PUSH2 0x87FB JUMP JUMPDEST SWAP1 POP SWAP2 SWAP1 POP JUMP JUMPDEST PUSH1 0x0 PUSH2 0x8806 DUP3 PUSH2 0x86FB JUMP JUMPDEST SWAP1 POP SWAP2 SWAP1 POP JUMP JUMPDEST PUSH1 0x0 PUSH2 0x8818 DUP3 PUSH2 0x881F JUMP JUMPDEST SWAP1 POP SWAP2 SWAP1 POP JUMP JUMPDEST PUSH1 0x0 PUSH2 0x882A DUP3 PUSH2 0x86FB JUMP JUMPDEST SWAP1 POP SWAP2 SWAP1 POP JUMP JUMPDEST PUSH1 0x0 PUSH2 0x883C DUP3 PUSH2 0x8843 JUMP JUMPDEST SWAP1 POP SWAP2 SWAP1 POP JUMP JUMPDEST PUSH1 0x0 PUSH2 0x884E DUP3 PUSH2 0x86FB JUMP JUMPDEST SWAP1 POP SWAP2 SWAP1 POP JUMP JUMPDEST DUP3 DUP2 DUP4 CALLDATACOPY PUSH1 0x0 DUP4 DUP4 ADD MSTORE POP POP POP JUMP JUMPDEST PUSH1 0x0 JUMPDEST DUP4 DUP2 LT ISZERO PUSH2 0x8882 JUMPI DUP1 DUP3 ADD MLOAD DUP2 DUP5 ADD MSTORE PUSH1 0x20 DUP2 ADD SWAP1 POP PUSH2 0x8867 JUMP JUMPDEST DUP4 DUP2 GT ISZERO PUSH2 0x8891 JUMPI PUSH1 0x0 DUP5 DUP5 ADD MSTORE JUMPDEST POP POP POP POP JUMP JUMPDEST PUSH1 0x0 PUSH1 0x2 DUP3 DIV SWAP1 POP PUSH1 0x1 DUP3 AND DUP1 PUSH2 0x88AF JUMPI PUSH1 0x7F DUP3 AND SWAP2 POP JUMPDEST PUSH1 0x20 DUP3 LT DUP2 EQ ISZERO PUSH2 0x88C3 JUMPI PUSH2 0x88C2 PUSH2 0x89A1 JUMP JUMPDEST JUMPDEST POP SWAP2 SWAP1 POP JUMP JUMPDEST PUSH2 0x88D2 DUP3 PUSH2 0x89FF JUMP JUMPDEST DUP2 ADD DUP2 DUP2 LT PUSH8 0xFFFFFFFFFFFFFFFF DUP3 GT OR ISZERO PUSH2 0x88F1 JUMPI PUSH2 0x88F0 PUSH2 0x89D0 JUMP JUMPDEST JUMPDEST DUP1 PUSH1 0x40 MSTORE POP POP POP JUMP JUMPDEST PUSH1 0x0 PUSH2 0x8905 DUP3 PUSH2 0x871B JUMP JUMPDEST SWAP2 POP PUSH32 0xFFFFFFFFFFFFFFFFFFFFFFFFFFFFFFFFFFFFFFFFFFFFFFFFFFFFFFFFFFFFFFFF DUP3 EQ ISZERO PUSH2 0x8938 JUMPI PUSH2 0x8937 PUSH2 0x8943 JUMP JUMPDEST JUMPDEST PUSH1 0x1 DUP3 ADD SWAP1 POP SWAP2 SWAP1 POP JUMP JUMPDEST PUSH32 0x4E487B7100000000000000000000000000000000000000000000000000000000 PUSH1 0x0 MSTORE PUSH1 0x11 PUSH1 0x4 MSTORE PUSH1 0x24 PUSH1 0x0 REVERT JUMPDEST PUSH32 0x4E487B7100000000000000000000000000000000000000000000000000000000 PUSH1 0x0 MSTORE PUSH1 0x12 PUSH1 0x4 MSTORE PUSH1 0x24 PUSH1 0x0 REVERT JUMPDEST PUSH32 0x4E487B7100000000000000000000000000000000000000000000000000000000 PUSH1 0x0 MSTORE PUSH1 0x22 PUSH1 0x4 MSTORE PUSH1 0x24 PUSH1 0x0 REVERT JUMPDEST PUSH32 0x4E487B7100000000000000000000000000000000000000000000000000000000 PUSH1 0x0 MSTORE PUSH1 0x41 PUSH1 0x4 MSTORE PUSH1 0x24 PUSH1 0x0 REVERT JUMPDEST PUSH1 0x0 PUSH1 0x1F NOT PUSH1 0x1F DUP4 ADD AND SWAP1 POP SWAP2 SWAP1 POP JUMP JUMPDEST PUSH32 0x216C697374656400000000000000000000000000000000000000000000000000 PUSH1 0x0 DUP3 ADD MSTORE POP JUMP JUMPDEST PUSH32 0x2166656500000000000000000000000000000000000000000000000000000000 PUSH1 0x0 DUP3 ADD MSTORE POP JUMP JUMPDEST PUSH32 0x21656D697373696F6E7300000000000000000000000000000000000000000000 PUSH1 0x0 DUP3 ADD MSTORE POP JUMP JUMPDEST PUSH32 0x21636F6F6C6F6666000000000000000000000000000000000000000000000000 PUSH1 0x0 DUP3 ADD MSTORE POP JUMP JUMPDEST PUSH32 0x2166696E616C6973696E67000000000000000000000000000000000000000000 PUSH1 0x0 DUP3 ADD MSTORE POP JUMP JUMPDEST PUSH32 0x216D656D62657200000000000000000000000000000000000000000000000000 PUSH1 0x0 DUP3 ADD MSTORE POP JUMP JUMPDEST PUSH32 0x2166756E64730000000000000000000000000000000000000000000000000000 PUSH1 0x0 DUP3 ADD MSTORE POP JUMP JUMPDEST PUSH32 0x2163757261746564000000000000000000000000000000000000000000000000 PUSH1 0x0 DUP3 ADD MSTORE POP JUMP JUMPDEST PUSH32 0x217472616E736665720000000000000000000000000000000000000000000000 PUSH1 0x0 DUP3 ADD MSTORE POP JUMP JUMPDEST PUSH32 0x21706172616D0000000000000000000000000000000000000000000000000000 PUSH1 0x0 DUP3 ADD MSTORE POP JUMP JUMPDEST PUSH32 0x21616D6F756E7400000000000000000000000000000000000000000000000000 PUSH1 0x0 DUP3 ADD MSTORE POP JUMP JUMPDEST PUSH32 0x2161646472657373000000000000000000000000000000000000000000000000 PUSH1 0x0 DUP3 ADD MSTORE POP JUMP JUMPDEST PUSH32 0x216F70656E000000000000000000000000000000000000000000000000000000 PUSH1 0x0 DUP3 ADD MSTORE POP JUMP JUMPDEST PUSH32 0x2164617973000000000000000000000000000000000000000000000000000000 PUSH1 0x0 DUP3 ADD MSTORE POP JUMP JUMPDEST PUSH2 0x8C57 DUP2 PUSH2 0x8643 JUMP JUMPDEST DUP2 EQ PUSH2 0x8C62 JUMPI PUSH1 0x0 DUP1 REVERT JUMPDEST POP JUMP JUMPDEST PUSH2 0x8C6E DUP2 PUSH2 0x8655 JUMP JUMPDEST DUP2 EQ PUSH2 0x8C79 JUMPI PUSH1 0x0 DUP1 REVERT JUMPDEST POP JUMP JUMPDEST PUSH2 0x8C85 DUP2 PUSH2 0x8661 JUMP JUMPDEST DUP2 EQ PUSH2 0x8C90 JUMPI PUSH1 0x0 DUP1 REVERT JUMPDEST POP JUMP JUMPDEST PUSH2 0x8C9C DUP2 PUSH2 0x866B JUMP JUMPDEST DUP2 EQ PUSH2 0x8CA7 JUMPI PUSH1 0x0 DUP1 REVERT JUMPDEST POP JUMP JUMPDEST PUSH2 0x8CB3 DUP2 PUSH2 0x867D JUMP JUMPDEST DUP2 EQ PUSH2 0x8CBE JUMPI PUSH1 0x0 DUP1 REVERT JUMPDEST POP JUMP JUMPDEST PUSH2 0x8CCA DUP2 PUSH2 0x868F JUMP JUMPDEST DUP2 EQ PUSH2 0x8CD5 JUMPI PUSH1 0x0 DUP1 REVERT JUMPDEST POP JUMP JUMPDEST PUSH2 0x8CE1 DUP2 PUSH2 0x86A1 JUMP JUMPDEST DUP2 EQ PUSH2 0x8CEC JUMPI PUSH1 0x0 DUP1 REVERT JUMPDEST POP JUMP JUMPDEST PUSH2 0x8CF8 DUP2 PUSH2 0x86B3 JUMP JUMPDEST DUP2 EQ PUSH2 0x8D03 JUMPI PUSH1 0x0 DUP1 REVERT JUMPDEST POP JUMP JUMPDEST PUSH2 0x8D0F DUP2 PUSH2 0x86C5 JUMP JUMPDEST DUP2 EQ PUSH2 0x8D1A JUMPI PUSH1 0x0 DUP1 REVERT JUMPDEST POP JUMP JUMPDEST PUSH2 0x8D26 DUP2 PUSH2 0x86D7 JUMP JUMPDEST DUP2 EQ PUSH2 0x8D31 JUMPI PUSH1 0x0 DUP1 REVERT JUMPDEST POP JUMP JUMPDEST PUSH2 0x8D3D DUP2 PUSH2 0x86E9 JUMP JUMPDEST DUP2 EQ PUSH2 0x8D48 JUMPI PUSH1 0x0 DUP1 REVERT JUMPDEST POP JUMP JUMPDEST PUSH2 0x8D54 DUP2 PUSH2 0x871B JUMP JUMPDEST DUP2 EQ PUSH2 0x8D5F JUMPI PUSH1 0x0 DUP1 REVERT JUMPDEST POP JUMP JUMPDEST PUSH2 0x8D6B DUP2 PUSH2 0x8725 JUMP JUMPDEST DUP2 EQ PUSH2 0x8D76 JUMPI PUSH1 0x0 DUP1 REVERT JUMPDEST POP JUMP INVALID LOG2 PUSH5 0x6970667358 0x22 SLT KECCAK256 ADDMOD 0xBF 0xD1 0xEB 0xDC 0xB7 DUP11 0xA6 PUSH3 0x2D4E92 0xB9 0x2E SMOD 0xEE SWAP11 0x29 CALLDATASIZE 0xCA INVALID RETURNDATACOPY 0xDF 0x28 SDIV MULMOD 0xDA SWAP8 SWAP9 CALLCODE MSIZE PUSH2 0x6473 PUSH16 0x6C634300080300330000000000000000 "
        },
        "methodIdentifiers": {
          "BASE()": "ec342ad0",
          "BONDVAULT()": "2f7fa180",
          "DAO()": "98fabd3a",
          "DAOVAULT()": "38da7dd6",
          "DEPLOYER()": "c1b8411a",
          "POOLFACTORY()": "b99b0a0c",
          "RESERVE()": "9d2cc436",
          "ROUTER()": "32fe7b26",
          "SYNTHFACTORY()": "b93ec54b",
          "SYNTHVAULT()": "2ab24e49",
          "UTILS()": "7b0e5c45",
          "allListedAssets()": "35cb5fe0",
          "arrayMembers(uint256)": "436f80be",
          "assetListedCount()": "f7a79a37",
          "bond(address,uint256)": "a515366a",
          "bondingPeriodSeconds()": "65c71bbf",
          "burnBalance()": "bc68fad9",
          "calcClaimBondedLP(address,address)": "f135dcf8",
          "calcCurrentReward(address)": "4636279f",
          "calcReward(address)": "3a61738d",
          "cancelProposal()": "9070577f",
          "changeBondingPeriod(uint256)": "af045980",
          "claimAllForMember(address)": "7a8c72b5",
          "claimForMember(address)": "e248260c",
          "coolOffPeriod()": "abb6154f",
          "currentProposal()": "2b49d425",
          "daoClaim()": "79b2dc4c",
          "daoFee()": "2957b839",
          "daoHasMoved()": "24efb528",
          "delistBondAsset(address)": "db634d7c",
          "deposit(address,uint256)": "47e7ef24",
          "depositLPForMember(address,uint256,address)": "25a7f908",
          "erasToEarn()": "2c07eebf",
          "finaliseProposal()": "ab2bd8fd",
          "getProposalDetails(uint256)": "3b4d01a7",
          "harvest()": "4641257d",
          "hasMajority(uint256)": "5c120b37",
          "hasMinority(uint256)": "d0ad1709",
          "hasQuorum(uint256)": "bbf8cf82",
          "isListed(address)": "f794062e",
          "isMember(address)": "a230c524",
          "listBondAsset(address)": "9cd99aa2",
          "majorityFactor()": "956615be",
          "mapMember_lastTime(address)": "5c7366d3",
          "mapPIDMember_votes(uint256,address)": "c42b3f7d",
          "mapPID_address(uint256)": "ae887c8b",
          "mapPID_coolOffTime(uint256)": "a299ecb2",
          "mapPID_finalised(uint256)": "2bee1194",
          "mapPID_finalising(uint256)": "4b400034",
          "mapPID_open(uint256)": "8bebea89",
          "mapPID_param(uint256)": "314604fe",
          "mapPID_startTime(uint256)": "b8262869",
          "mapPID_type(uint256)": "c05fc178",
          "mapPID_votes(uint256)": "dab249b3",
          "memberCount()": "11aee380",
          "moveBASEBalance(address)": "68bb97b3",
          "newActionProposal(string)": "d1458363",
          "newAddressProposal(address,string)": "293cee7d",
          "newGrantProposal(address,uint256)": "a6c83fed",
          "newParamProposal(uint32,string)": "f38a2fa1",
          "proposalCount()": "da35c664",
          "purgeDeployer()": "03a82138",
          "removeVote()": "49aa4ee2",
          "secondsPerEra()": "6b92a3b6",
          "setFactoryAddresses(address,address)": "46350821",
          "setGenesisAddresses(address,address,address)": "8601b9e6",
          "setGenesisFactors(uint32,uint32,uint32,uint32,uint32)": "572cf927",
          "setVaultAddresses(address,address,address)": "73758988",
          "voteProposal()": "8351739a",
          "withdraw(address)": "51cff8d9"
        }
      }
    }
  }
}