{
  "contracts/Utils.sol": {
    "Utils": {
      "abi": [
        {
          "inputs": [
            {
              "internalType": "address",
              "name": "_base",
              "type": "address"
            }
          ],
          "stateMutability": "nonpayable",
          "type": "constructor"
        },
        {
          "inputs": [],
          "name": "BASE",
          "outputs": [
            {
              "internalType": "address",
              "name": "",
              "type": "address"
            }
          ],
          "stateMutability": "view",
          "type": "function"
        },
        {
          "inputs": [
            {
              "internalType": "address",
              "name": "synth",
              "type": "address"
            },
            {
              "internalType": "uint256",
              "name": "amount",
              "type": "uint256"
            }
          ],
          "name": "calcActualSynthUnits",
          "outputs": [
            {
              "internalType": "uint256",
              "name": "_output",
              "type": "uint256"
            }
          ],
          "stateMutability": "view",
          "type": "function"
        },
        {
          "inputs": [
            {
              "internalType": "uint256",
              "name": "units",
              "type": "uint256"
            },
            {
              "internalType": "address",
              "name": "token",
              "type": "address"
            },
            {
              "internalType": "address",
              "name": "pool",
              "type": "address"
            }
          ],
          "name": "calcLiquidityHoldings",
          "outputs": [
            {
              "internalType": "uint256",
              "name": "share",
              "type": "uint256"
            }
          ],
          "stateMutability": "view",
          "type": "function"
        },
        {
          "inputs": [
            {
              "internalType": "uint256",
              "name": "b",
              "type": "uint256"
            },
            {
              "internalType": "uint256",
              "name": "B",
              "type": "uint256"
            },
            {
              "internalType": "uint256",
              "name": "t",
              "type": "uint256"
            },
            {
              "internalType": "uint256",
              "name": "T",
              "type": "uint256"
            },
            {
              "internalType": "uint256",
              "name": "P",
              "type": "uint256"
            }
          ],
          "name": "calcLiquidityUnits",
          "outputs": [
            {
              "internalType": "uint256",
              "name": "units",
              "type": "uint256"
            }
          ],
          "stateMutability": "pure",
          "type": "function"
        },
        {
          "inputs": [
            {
              "internalType": "uint256",
              "name": "amount",
              "type": "uint256"
            },
            {
              "internalType": "address",
              "name": "pool",
              "type": "address"
            }
          ],
          "name": "calcLiquidityUnitsAsym",
          "outputs": [
            {
              "internalType": "uint256",
              "name": "units",
              "type": "uint256"
            }
          ],
          "stateMutability": "view",
          "type": "function"
        },
        {
          "inputs": [
            {
              "internalType": "uint256",
              "name": "bp",
              "type": "uint256"
            },
            {
              "internalType": "uint256",
              "name": "total",
              "type": "uint256"
            }
          ],
          "name": "calcPart",
          "outputs": [
            {
              "internalType": "uint256",
              "name": "",
              "type": "uint256"
            }
          ],
          "stateMutability": "pure",
          "type": "function"
        },
        {
          "inputs": [
            {
              "internalType": "uint256",
              "name": "part",
              "type": "uint256"
            },
            {
              "internalType": "uint256",
              "name": "total",
              "type": "uint256"
            },
            {
              "internalType": "uint256",
              "name": "amount",
              "type": "uint256"
            }
          ],
          "name": "calcShare",
          "outputs": [
            {
              "internalType": "uint256",
              "name": "share",
              "type": "uint256"
            }
          ],
          "stateMutability": "pure",
          "type": "function"
        },
        {
          "inputs": [
            {
              "internalType": "address",
              "name": "token",
              "type": "address"
            },
            {
              "internalType": "uint256",
              "name": "amount",
              "type": "uint256"
            }
          ],
          "name": "calcSpotValueInBase",
          "outputs": [
            {
              "internalType": "uint256",
              "name": "value",
              "type": "uint256"
            }
          ],
          "stateMutability": "view",
          "type": "function"
        },
        {
          "inputs": [
            {
              "internalType": "address",
              "name": "synth",
              "type": "address"
            },
            {
              "internalType": "uint256",
              "name": "amount",
              "type": "uint256"
            }
          ],
          "name": "calcSpotValueInBaseWithSynth",
          "outputs": [
            {
              "internalType": "uint256",
              "name": "value",
              "type": "uint256"
            }
          ],
          "stateMutability": "view",
          "type": "function"
        },
        {
          "inputs": [
            {
              "internalType": "uint256",
              "name": "x",
              "type": "uint256"
            },
            {
              "internalType": "uint256",
              "name": "X",
              "type": "uint256"
            },
            {
              "internalType": "uint256",
              "name": "Y",
              "type": "uint256"
            }
          ],
          "name": "calcSwapFee",
          "outputs": [
            {
              "internalType": "uint256",
              "name": "output",
              "type": "uint256"
            }
          ],
          "stateMutability": "pure",
          "type": "function"
        },
        {
          "inputs": [
            {
              "internalType": "uint256",
              "name": "x",
              "type": "uint256"
            },
            {
              "internalType": "uint256",
              "name": "X",
              "type": "uint256"
            },
            {
              "internalType": "uint256",
              "name": "Y",
              "type": "uint256"
            }
          ],
          "name": "calcSwapOutput",
          "outputs": [
            {
              "internalType": "uint256",
              "name": "output",
              "type": "uint256"
            }
          ],
          "stateMutability": "pure",
          "type": "function"
        },
        {
          "inputs": [
            {
              "internalType": "address",
              "name": "token",
              "type": "address"
            },
            {
              "internalType": "uint256",
              "name": "amount",
              "type": "uint256"
            }
          ],
          "name": "calcSwapValueInBase",
          "outputs": [
            {
              "internalType": "uint256",
              "name": "_output",
              "type": "uint256"
            }
          ],
          "stateMutability": "view",
          "type": "function"
        },
        {
          "inputs": [
            {
              "internalType": "address",
              "name": "token",
              "type": "address"
            },
            {
              "internalType": "uint256",
              "name": "amount",
              "type": "uint256"
            }
          ],
          "name": "calcSwapValueInToken",
          "outputs": [
            {
              "internalType": "uint256",
              "name": "_output",
              "type": "uint256"
            }
          ],
          "stateMutability": "view",
          "type": "function"
        },
        {
          "inputs": [
            {
              "internalType": "uint256",
              "name": "totalSupply",
              "type": "uint256"
            },
            {
              "internalType": "uint256",
              "name": "maxSupply",
              "type": "uint256"
            }
          ],
          "name": "getFeeOnTransfer",
          "outputs": [
            {
              "internalType": "uint256",
              "name": "",
              "type": "uint256"
            }
          ],
          "stateMutability": "pure",
          "type": "function"
        },
        {
          "inputs": [
            {
              "internalType": "address",
              "name": "token",
              "type": "address"
            }
          ],
          "name": "getPool",
          "outputs": [
            {
              "internalType": "address",
              "name": "pool",
              "type": "address"
            }
          ],
          "stateMutability": "view",
          "type": "function"
        },
        {
          "inputs": [
            {
              "internalType": "address",
              "name": "token",
              "type": "address"
            }
          ],
          "name": "getPoolData",
          "outputs": [
            {
              "components": [
                {
                  "internalType": "address",
                  "name": "tokenAddress",
                  "type": "address"
                },
                {
                  "internalType": "address",
                  "name": "poolAddress",
                  "type": "address"
                },
                {
                  "internalType": "uint256",
                  "name": "genesis",
                  "type": "uint256"
                },
                {
                  "internalType": "uint256",
                  "name": "baseAmount",
                  "type": "uint256"
                },
                {
                  "internalType": "uint256",
                  "name": "tokenAmount",
                  "type": "uint256"
                },
                {
                  "internalType": "uint256",
                  "name": "poolUnits",
                  "type": "uint256"
                },
                {
                  "internalType": "uint256",
                  "name": "synthCap",
                  "type": "uint256"
                },
                {
                  "internalType": "uint256",
                  "name": "baseCap",
                  "type": "uint256"
                }
              ],
              "internalType": "struct Utils.PoolDataStruct",
              "name": "poolData",
              "type": "tuple"
            }
          ],
          "stateMutability": "view",
          "type": "function"
        },
        {
          "inputs": [
            {
              "internalType": "address",
              "name": "pool",
              "type": "address"
            },
            {
              "internalType": "uint256",
              "name": "units",
              "type": "uint256"
            }
          ],
          "name": "getPoolShareWeight",
          "outputs": [
            {
              "internalType": "uint256",
              "name": "weight",
              "type": "uint256"
            }
          ],
          "stateMutability": "view",
          "type": "function"
        },
        {
          "inputs": [
            {
              "internalType": "uint256",
              "name": "b",
              "type": "uint256"
            },
            {
              "internalType": "uint256",
              "name": "B",
              "type": "uint256"
            },
            {
              "internalType": "uint256",
              "name": "t",
              "type": "uint256"
            },
            {
              "internalType": "uint256",
              "name": "T",
              "type": "uint256"
            }
          ],
          "name": "getSlipAdjustment",
          "outputs": [
            {
              "internalType": "uint256",
              "name": "slipAdjustment",
              "type": "uint256"
            }
          ],
          "stateMutability": "pure",
          "type": "function"
        },
        {
          "inputs": [
            {
              "internalType": "address",
              "name": "token",
              "type": "address"
            }
          ],
          "name": "getSynth",
          "outputs": [
            {
              "internalType": "address",
              "name": "synth",
              "type": "address"
            }
          ],
          "stateMutability": "view",
          "type": "function"
        }
      ],
      "evm": {
        "bytecode": {
          "linkReferences": {},
          "object": "60a06040523480156200001157600080fd5b506040516200252a3803806200252a83398181016040528101906200003791906200008c565b8073ffffffffffffffffffffffffffffffffffffffff1660808173ffffffffffffffffffffffffffffffffffffffff1660601b815250505062000106565b6000815190506200008681620000ec565b92915050565b6000602082840312156200009f57600080fd5b6000620000af8482850162000075565b91505092915050565b6000620000c582620000cc565b9050919050565b600073ffffffffffffffffffffffffffffffffffffffff82169050919050565b620000f781620000b8565b81146200010357600080fd5b50565b60805160601c6123f76200013360003960008181610c0401528181611b310152611b5701526123f76000f3fe608060405234801561001057600080fd5b50600436106101215760003560e01c8063896a708c116100ad578063c19387df11610071578063c19387df146103c6578063c5c11ee9146103f6578063ca2e5b6514610426578063dcec811614610456578063ec342ad01461048657610121565b8063896a708c146102d65780638b18b11514610306578063b80e44b814610336578063b86a82ef14610366578063bbe4f6db1461039657610121565b80635a7b2ed3116100f45780635a7b2ed3146101e65780635f2c12e8146102165780636c5054d014610246578063701baaf314610276578063714270ab146102a657610121565b806302bf4bf81461012657806313d21cdf146101565780631ba326c41461018657806348c0fd8f146101b6575b600080fd5b610140600480360381019061013b9190611ec8565b6104a4565b60405161014d919061213d565b60405180910390f35b610170600480360381019061016b9190611cd2565b6105b2565b60405161017d9190612121565b60405180910390f35b6101a0600480360381019061019b9190611e79565b6109a3565b6040516101ad919061213d565b60405180910390f35b6101d060048036038101906101cb9190611d24565b610a13565b6040516101dd919061213d565b60405180910390f35b61020060048036038101906101fb9190611dee565b610bff565b60405161020d919061213d565b60405180910390f35b610230600480360381019061022b9190611d24565b610e43565b60405161023d919061213d565b60405180910390f35b610260600480360381019061025b9190611d24565b610f6b565b60405161026d919061213d565b60405180910390f35b610290600480360381019061028b9190611e79565b611163565b60405161029d919061213d565b60405180910390f35b6102c060048036038101906102bb9190611e3d565b6111ff565b6040516102cd919061213d565b60405180910390f35b6102f060048036038101906102eb9190611e79565b61125b565b6040516102fd919061213d565b60405180910390f35b610320600480360381019061031b9190611e3d565b6112f7565b60405161032d919061213d565b60405180910390f35b610350600480360381019061034b9190611d24565b61130d565b60405161035d919061213d565b60405180910390f35b610380600480360381019061037b9190611db2565b611435565b60405161038d919061213d565b60405180910390f35b6103b060048036038101906103ab9190611cd2565b611572565b6040516103bd91906120c6565b60405180910390f35b6103e060048036038101906103db9190611d24565b611688565b6040516103ed919061213d565b60405180910390f35b610410600480360381019061040b9190611f2b565b6117ff565b60405161041d919061213d565b60405180910390f35b610440600480360381019061043b9190611d24565b61190a565b60405161044d919061213d565b60405180910390f35b610470600480360381019061046b9190611cd2565b611a19565b60405161047d91906120c6565b60405180910390f35b61048e611b2f565b60405161049b91906120c6565b60405180910390f35b60008083856104b391906121f0565b9050600083876104c391906121f0565b90506000868860026104d591906121f0565b6104df9190612169565b9050600085876104ef9190612169565b905060008385111561050e578385610507919061224a565b905061051d565b848461051a919061224a565b90505b6000828461052b91906121f0565b905060008111610570576040517f08c379a0000000000000000000000000000000000000000000000000000000008152600401610567906120e1565b60405180910390fd5b80670de0b6b3a76400008361058591906121f0565b61058f91906121bf565b670de0b6b3a76400006105a2919061224a565b9650505050505050949350505050565b6105ba611bf8565b60006105c583611572565b905060008173ffffffffffffffffffffffffffffffffffffffff1663eec7faa16040518163ffffffff1660e01b815260040160206040518083038186803b15801561060f57600080fd5b505afa158015610623573d6000803e3d6000fd5b505050506040513d601f19601f820116820180604052508101906106479190611d89565b905060008273ffffffffffffffffffffffffffffffffffffffff16634864d1406040518163ffffffff1660e01b815260040160206040518083038186803b15801561069157600080fd5b505afa1580156106a5573d6000803e3d6000fd5b505050506040513d601f19601f820116820180604052508101906106c99190611d89565b905084846000019073ffffffffffffffffffffffffffffffffffffffff16908173ffffffffffffffffffffffffffffffffffffffff168152505082846020019073ffffffffffffffffffffffffffffffffffffffff16908173ffffffffffffffffffffffffffffffffffffffff16815250508273ffffffffffffffffffffffffffffffffffffffff1663a7f0b3de6040518163ffffffff1660e01b815260040160206040518083038186803b15801561078157600080fd5b505afa158015610795573d6000803e3d6000fd5b505050506040513d601f19601f820116820180604052508101906107b99190611d89565b84604001818152505080846060018181525050818460800181815250508273ffffffffffffffffffffffffffffffffffffffff166318160ddd6040518163ffffffff1660e01b815260040160206040518083038186803b15801561081c57600080fd5b505afa158015610830573d6000803e3d6000fd5b505050506040513d601f19601f820116820180604052508101906108549190611d89565b8460a00181815250506127108373ffffffffffffffffffffffffffffffffffffffff166333ca78e46040518163ffffffff1660e01b815260040160206040518083038186803b1580156108a657600080fd5b505afa1580156108ba573d6000803e3d6000fd5b505050506040513d601f19601f820116820180604052508101906108de9190611d89565b836108e991906121f0565b6108f391906121bf565b8460c00181815250506127108373ffffffffffffffffffffffffffffffffffffffff1663cbbcf8026040518163ffffffff1660e01b815260040160206040518083038186803b15801561094557600080fd5b505afa158015610959573d6000803e3d6000fd5b505050506040513d601f19601f8201168201806040525081019061097d9190611d89565b8261098891906121f0565b61099291906121bf565b8460e0018181525050505050919050565b60008083116109e7576040517f08c379a00000000000000000000000000000000000000000000000000000000081526004016109de906120e1565b60405180910390fd5b828411156109f3578293505b828483610a0091906121f0565b610a0a91906121bf565b90509392505050565b6000808373ffffffffffffffffffffffffffffffffffffffff16637535d2466040518163ffffffff1660e01b815260040160206040518083038186803b158015610a5c57600080fd5b505afa158015610a70573d6000803e3d6000fd5b505050506040513d601f19601f82011682018060405250810190610a949190611cfb565b905060008173ffffffffffffffffffffffffffffffffffffffff16634864d1406040518163ffffffff1660e01b815260040160206040518083038186803b158015610ade57600080fd5b505afa158015610af2573d6000803e3d6000fd5b505050506040513d601f19601f82011682018060405250810190610b169190611d89565b905060008273ffffffffffffffffffffffffffffffffffffffff1663eec7faa16040518163ffffffff1660e01b815260040160206040518083038186803b158015610b6057600080fd5b505afa158015610b74573d6000803e3d6000fd5b505050506040513d601f19601f82011682018060405250810190610b989190611d89565b905060008111610bdd576040517f08c379a0000000000000000000000000000000000000000000000000000000008152600401610bd4906120e1565b60405180910390fd5b808286610bea91906121f0565b610bf491906121bf565b935050505092915050565b6000807f000000000000000000000000000000000000000000000000000000000000000073ffffffffffffffffffffffffffffffffffffffff168473ffffffffffffffffffffffffffffffffffffffff161415610cdb578273ffffffffffffffffffffffffffffffffffffffff16634864d1406040518163ffffffff1660e01b815260040160206040518083038186803b158015610c9c57600080fd5b505afa158015610cb0573d6000803e3d6000fd5b505050506040513d601f19601f82011682018060405250810190610cd49190611d89565b9050610d5c565b8273ffffffffffffffffffffffffffffffffffffffff1663eec7faa16040518163ffffffff1660e01b815260040160206040518083038186803b158015610d2157600080fd5b505afa158015610d35573d6000803e3d6000fd5b505050506040513d601f19601f82011682018060405250810190610d599190611d89565b90505b60008373ffffffffffffffffffffffffffffffffffffffff166318160ddd6040518163ffffffff1660e01b815260040160206040518083038186803b158015610da457600080fd5b505afa158015610db8573d6000803e3d6000fd5b505050506040513d601f19601f82011682018060405250810190610ddc9190611d89565b905060008111610e21576040517f08c379a0000000000000000000000000000000000000000000000000000000008152600401610e18906120e1565b60405180910390fd5b808683610e2e91906121f0565b610e3891906121bf565b925050509392505050565b600080610e4f84611572565b905060008173ffffffffffffffffffffffffffffffffffffffff16634864d1406040518163ffffffff1660e01b815260040160206040518083038186803b158015610e9957600080fd5b505afa158015610ead573d6000803e3d6000fd5b505050506040513d601f19601f82011682018060405250810190610ed19190611d89565b905060008273ffffffffffffffffffffffffffffffffffffffff1663eec7faa16040518163ffffffff1660e01b815260040160206040518083038186803b158015610f1b57600080fd5b505afa158015610f2f573d6000803e3d6000fd5b505050506040513d601f19601f82011682018060405250810190610f539190611d89565b9050610f60858383611163565b935050505092915050565b6000808373ffffffffffffffffffffffffffffffffffffffff16637535d2466040518163ffffffff1660e01b815260040160206040518083038186803b158015610fb457600080fd5b505afa158015610fc8573d6000803e3d6000fd5b505050506040513d601f19601f82011682018060405250810190610fec9190611cfb565b905060008173ffffffffffffffffffffffffffffffffffffffff16634864d1406040518163ffffffff1660e01b815260040160206040518083038186803b15801561103657600080fd5b505afa15801561104a573d6000803e3d6000fd5b505050506040513d601f19601f8201168201806040525081019061106e9190611d89565b905060008273ffffffffffffffffffffffffffffffffffffffff1663eec7faa16040518163ffffffff1660e01b815260040160206040518083038186803b1580156110b857600080fd5b505afa1580156110cc573d6000803e3d6000fd5b505050506040513d601f19601f820116820180604052508101906110f09190611d89565b905060008111611135576040517f08c379a000000000000000000000000000000000000000000000000000000000815260040161112c906120e1565b60405180910390fd5b80600261114291906121f0565b828661114e91906121f0565b61115891906121bf565b935050505092915050565b60008082848661117391906121f0565b61117d91906121f0565b90506000848661118d9190612169565b85876111999190612169565b6111a391906121f0565b9050600081116111e8576040517f08c379a00000000000000000000000000000000000000000000000000000000081526004016111df906120e1565b60405180910390fd5b80826111f491906121bf565b925050509392505050565b6000612710831115611246576040517f08c379a000000000000000000000000000000000000000000000000000000000815260040161123d90612101565b60405180910390fd5b61125383612710846109a3565b905092915050565b60008082858661126b91906121f0565b61127591906121f0565b9050600084866112859190612169565b85876112919190612169565b61129b91906121f0565b9050600081116112e0576040517f08c379a00000000000000000000000000000000000000000000000000000000081526004016112d7906120e1565b60405180910390fd5b80826112ec91906121bf565b925050509392505050565b6000611305838360646109a3565b905092915050565b60008061131984611572565b905060008173ffffffffffffffffffffffffffffffffffffffff16634864d1406040518163ffffffff1660e01b815260040160206040518083038186803b15801561136357600080fd5b505afa158015611377573d6000803e3d6000fd5b505050506040513d601f19601f8201168201806040525081019061139b9190611d89565b905060008273ffffffffffffffffffffffffffffffffffffffff1663eec7faa16040518163ffffffff1660e01b815260040160206040518083038186803b1580156113e557600080fd5b505afa1580156113f9573d6000803e3d6000fd5b505050506040513d601f19601f8201168201806040525081019061141d9190611d89565b905061142a858284611163565b935050505092915050565b6000808273ffffffffffffffffffffffffffffffffffffffff16634864d1406040518163ffffffff1660e01b815260040160206040518083038186803b15801561147e57600080fd5b505afa158015611492573d6000803e3d6000fd5b505050506040513d601f19601f820116820180604052508101906114b69190611d89565b905060008373ffffffffffffffffffffffffffffffffffffffff166318160ddd6040518163ffffffff1660e01b815260040160206040518083038186803b15801561150057600080fd5b505afa158015611514573d6000803e3d6000fd5b505050506040513d601f19601f820116820180604052508101906115389190611d89565b9050600282866115489190612169565b61155291906121f0565b858261155e91906121f0565b61156891906121bf565b9250505092915050565b600061157c611b53565b73ffffffffffffffffffffffffffffffffffffffff1663b99b0a0c6040518163ffffffff1660e01b815260040160206040518083038186803b1580156115c157600080fd5b505afa1580156115d5573d6000803e3d6000fd5b505050506040513d601f19601f820116820180604052508101906115f99190611cfb565b73ffffffffffffffffffffffffffffffffffffffff1663bbe4f6db836040518263ffffffff1660e01b815260040161163191906120c6565b60206040518083038186803b15801561164957600080fd5b505afa15801561165d573d6000803e3d6000fd5b505050506040513d601f19601f820116820180604052508101906116819190611cfb565b9050919050565b60008061169484611572565b905060008173ffffffffffffffffffffffffffffffffffffffff16634864d1406040518163ffffffff1660e01b815260040160206040518083038186803b1580156116de57600080fd5b505afa1580156116f2573d6000803e3d6000fd5b505050506040513d601f19601f820116820180604052508101906117169190611d89565b905060008273ffffffffffffffffffffffffffffffffffffffff1663eec7faa16040518163ffffffff1660e01b815260040160206040518083038186803b15801561176057600080fd5b505afa158015611774573d6000803e3d6000fd5b505050506040513d601f19601f820116820180604052508101906117989190611d89565b9050600081116117dd576040517f08c379a00000000000000000000000000000000000000000000000000000000081526004016117d4906120e1565b60405180910390fd5b8082866117ea91906121f0565b6117f491906121bf565b935050505092915050565b60008082141561181157859050611901565b600061181f878787876104a4565b9050670d99a8cec7e20000811161183557600080fd5b6000868661184391906121f0565b90506000888661185391906121f0565b905060006002898861186591906121f0565b61186f91906121f0565b9050600081116118b4576040517f08c379a00000000000000000000000000000000000000000000000000000000081526004016118ab906120e1565b60405180910390fd5b60008183856118c39190612169565b886118ce91906121f0565b6118d891906121bf565b9050670de0b6b3a764000085826118ef91906121f0565b6118f991906121bf565b955050505050505b95945050505050565b6000611a11828473ffffffffffffffffffffffffffffffffffffffff166318160ddd6040518163ffffffff1660e01b815260040160206040518083038186803b15801561195657600080fd5b505afa15801561196a573d6000803e3d6000fd5b505050506040513d601f19601f8201168201806040525081019061198e9190611d89565b8573ffffffffffffffffffffffffffffffffffffffff16634864d1406040518163ffffffff1660e01b815260040160206040518083038186803b1580156119d457600080fd5b505afa1580156119e8573d6000803e3d6000fd5b505050506040513d601f19601f82011682018060405250810190611a0c9190611d89565b6109a3565b905092915050565b6000611a23611b53565b73ffffffffffffffffffffffffffffffffffffffff1663b93ec54b6040518163ffffffff1660e01b815260040160206040518083038186803b158015611a6857600080fd5b505afa158015611a7c573d6000803e3d6000fd5b505050506040513d601f19601f82011682018060405250810190611aa09190611cfb565b73ffffffffffffffffffffffffffffffffffffffff1663dcec8116836040518263ffffffff1660e01b8152600401611ad891906120c6565b60206040518083038186803b158015611af057600080fd5b505afa158015611b04573d6000803e3d6000fd5b505050506040513d601f19601f82011682018060405250810190611b289190611cfb565b9050919050565b7f000000000000000000000000000000000000000000000000000000000000000081565b60007f000000000000000000000000000000000000000000000000000000000000000073ffffffffffffffffffffffffffffffffffffffff166398fabd3a6040518163ffffffff1660e01b815260040160206040518083038186803b158015611bbb57600080fd5b505afa158015611bcf573d6000803e3d6000fd5b505050506040513d601f19601f82011682018060405250810190611bf39190611d60565b905090565b604051806101000160405280600073ffffffffffffffffffffffffffffffffffffffff168152602001600073ffffffffffffffffffffffffffffffffffffffff1681526020016000815260200160008152602001600081526020016000815260200160008152602001600081525090565b600081359050611c788161237c565b92915050565b600081519050611c8d8161237c565b92915050565b600081519050611ca281612393565b92915050565b600081359050611cb7816123aa565b92915050565b600081519050611ccc816123aa565b92915050565b600060208284031215611ce457600080fd5b6000611cf284828501611c69565b91505092915050565b600060208284031215611d0d57600080fd5b6000611d1b84828501611c7e565b91505092915050565b60008060408385031215611d3757600080fd5b6000611d4585828601611c69565b9250506020611d5685828601611ca8565b9150509250929050565b600060208284031215611d7257600080fd5b6000611d8084828501611c93565b91505092915050565b600060208284031215611d9b57600080fd5b6000611da984828501611cbd565b91505092915050565b60008060408385031215611dc557600080fd5b6000611dd385828601611ca8565b9250506020611de485828601611c69565b9150509250929050565b600080600060608486031215611e0357600080fd5b6000611e1186828701611ca8565b9350506020611e2286828701611c69565b9250506040611e3386828701611c69565b9150509250925092565b60008060408385031215611e5057600080fd5b6000611e5e85828601611ca8565b9250506020611e6f85828601611ca8565b9150509250929050565b600080600060608486031215611e8e57600080fd5b6000611e9c86828701611ca8565b9350506020611ead86828701611ca8565b9250506040611ebe86828701611ca8565b9150509250925092565b60008060008060808587031215611ede57600080fd5b6000611eec87828801611ca8565b9450506020611efd87828801611ca8565b9350506040611f0e87828801611ca8565b9250506060611f1f87828801611ca8565b91505092959194509250565b600080600080600060a08688031215611f4357600080fd5b6000611f5188828901611ca8565b9550506020611f6288828901611ca8565b9450506040611f7388828901611ca8565b9350506060611f8488828901611ca8565b9250506080611f9588828901611ca8565b9150509295509295909350565b611fab8161227e565b82525050565b611fba8161227e565b82525050565b6000611fcd600983612158565b9150611fd88261232a565b602082019050919050565b6000611ff0600383612158565b9150611ffb82612353565b602082019050919050565b6101008201600082015161201d6000850182611fa2565b5060208201516120306020850182611fa2565b50604082015161204360408501826120a8565b50606082015161205660608501826120a8565b50608082015161206960808501826120a8565b5060a082015161207c60a08501826120a8565b5060c082015161208f60c08501826120a8565b5060e08201516120a260e08501826120a8565b50505050565b6120b1816122c2565b82525050565b6120c0816122c2565b82525050565b60006020820190506120db6000830184611fb1565b92915050565b600060208201905081810360008301526120fa81611fc0565b9050919050565b6000602082019050818103600083015261211a81611fe3565b9050919050565b6000610100820190506121376000830184612006565b92915050565b600060208201905061215260008301846120b7565b92915050565b600082825260208201905092915050565b6000612174826122c2565b915061217f836122c2565b9250827fffffffffffffffffffffffffffffffffffffffffffffffffffffffffffffffff038211156121b4576121b36122cc565b5b828201905092915050565b60006121ca826122c2565b91506121d5836122c2565b9250826121e5576121e46122fb565b5b828204905092915050565b60006121fb826122c2565b9150612206836122c2565b9250817fffffffffffffffffffffffffffffffffffffffffffffffffffffffffffffffff048311821515161561223f5761223e6122cc565b5b828202905092915050565b6000612255826122c2565b9150612260836122c2565b925082821015612273576122726122cc565b5b828203905092915050565b6000612289826122a2565b9050919050565b600061229b8261227e565b9050919050565b600073ffffffffffffffffffffffffffffffffffffffff82169050919050565b6000819050919050565b7f4e487b7100000000000000000000000000000000000000000000000000000000600052601160045260246000fd5b7f4e487b7100000000000000000000000000000000000000000000000000000000600052601260045260246000fd5b7f214449564953494f4e0000000000000000000000000000000000000000000000600082015250565b7f2162700000000000000000000000000000000000000000000000000000000000600082015250565b6123858161227e565b811461239057600080fd5b50565b61239c81612290565b81146123a757600080fd5b50565b6123b3816122c2565b81146123be57600080fd5b5056fea2646970667358221220e2a5168ee9fd3dccbd616a21c4d24b58ef416afe824392c7ed485e09ead2aba064736f6c63430008030033",
          "opcodes": "PUSH1 0xA0 PUSH1 0x40 MSTORE CALLVALUE DUP1 ISZERO PUSH3 0x11 JUMPI PUSH1 0x0 DUP1 REVERT JUMPDEST POP PUSH1 0x40 MLOAD PUSH3 0x252A CODESIZE SUB DUP1 PUSH3 0x252A DUP4 CODECOPY DUP2 DUP2 ADD PUSH1 0x40 MSTORE DUP2 ADD SWAP1 PUSH3 0x37 SWAP2 SWAP1 PUSH3 0x8C JUMP JUMPDEST DUP1 PUSH20 0xFFFFFFFFFFFFFFFFFFFFFFFFFFFFFFFFFFFFFFFF AND PUSH1 0x80 DUP2 PUSH20 0xFFFFFFFFFFFFFFFFFFFFFFFFFFFFFFFFFFFFFFFF AND PUSH1 0x60 SHL DUP2 MSTORE POP POP POP PUSH3 0x106 JUMP JUMPDEST PUSH1 0x0 DUP2 MLOAD SWAP1 POP PUSH3 0x86 DUP2 PUSH3 0xEC JUMP JUMPDEST SWAP3 SWAP2 POP POP JUMP JUMPDEST PUSH1 0x0 PUSH1 0x20 DUP3 DUP5 SUB SLT ISZERO PUSH3 0x9F JUMPI PUSH1 0x0 DUP1 REVERT JUMPDEST PUSH1 0x0 PUSH3 0xAF DUP5 DUP3 DUP6 ADD PUSH3 0x75 JUMP JUMPDEST SWAP2 POP POP SWAP3 SWAP2 POP POP JUMP JUMPDEST PUSH1 0x0 PUSH3 0xC5 DUP3 PUSH3 0xCC JUMP JUMPDEST SWAP1 POP SWAP2 SWAP1 POP JUMP JUMPDEST PUSH1 0x0 PUSH20 0xFFFFFFFFFFFFFFFFFFFFFFFFFFFFFFFFFFFFFFFF DUP3 AND SWAP1 POP SWAP2 SWAP1 POP JUMP JUMPDEST PUSH3 0xF7 DUP2 PUSH3 0xB8 JUMP JUMPDEST DUP2 EQ PUSH3 0x103 JUMPI PUSH1 0x0 DUP1 REVERT JUMPDEST POP JUMP JUMPDEST PUSH1 0x80 MLOAD PUSH1 0x60 SHR PUSH2 0x23F7 PUSH3 0x133 PUSH1 0x0 CODECOPY PUSH1 0x0 DUP2 DUP2 PUSH2 0xC04 ADD MSTORE DUP2 DUP2 PUSH2 0x1B31 ADD MSTORE PUSH2 0x1B57 ADD MSTORE PUSH2 0x23F7 PUSH1 0x0 RETURN INVALID PUSH1 0x80 PUSH1 0x40 MSTORE CALLVALUE DUP1 ISZERO PUSH2 0x10 JUMPI PUSH1 0x0 DUP1 REVERT JUMPDEST POP PUSH1 0x4 CALLDATASIZE LT PUSH2 0x121 JUMPI PUSH1 0x0 CALLDATALOAD PUSH1 0xE0 SHR DUP1 PUSH4 0x896A708C GT PUSH2 0xAD JUMPI DUP1 PUSH4 0xC19387DF GT PUSH2 0x71 JUMPI DUP1 PUSH4 0xC19387DF EQ PUSH2 0x3C6 JUMPI DUP1 PUSH4 0xC5C11EE9 EQ PUSH2 0x3F6 JUMPI DUP1 PUSH4 0xCA2E5B65 EQ PUSH2 0x426 JUMPI DUP1 PUSH4 0xDCEC8116 EQ PUSH2 0x456 JUMPI DUP1 PUSH4 0xEC342AD0 EQ PUSH2 0x486 JUMPI PUSH2 0x121 JUMP JUMPDEST DUP1 PUSH4 0x896A708C EQ PUSH2 0x2D6 JUMPI DUP1 PUSH4 0x8B18B115 EQ PUSH2 0x306 JUMPI DUP1 PUSH4 0xB80E44B8 EQ PUSH2 0x336 JUMPI DUP1 PUSH4 0xB86A82EF EQ PUSH2 0x366 JUMPI DUP1 PUSH4 0xBBE4F6DB EQ PUSH2 0x396 JUMPI PUSH2 0x121 JUMP JUMPDEST DUP1 PUSH4 0x5A7B2ED3 GT PUSH2 0xF4 JUMPI DUP1 PUSH4 0x5A7B2ED3 EQ PUSH2 0x1E6 JUMPI DUP1 PUSH4 0x5F2C12E8 EQ PUSH2 0x216 JUMPI DUP1 PUSH4 0x6C5054D0 EQ PUSH2 0x246 JUMPI DUP1 PUSH4 0x701BAAF3 EQ PUSH2 0x276 JUMPI DUP1 PUSH4 0x714270AB EQ PUSH2 0x2A6 JUMPI PUSH2 0x121 JUMP JUMPDEST DUP1 PUSH4 0x2BF4BF8 EQ PUSH2 0x126 JUMPI DUP1 PUSH4 0x13D21CDF EQ PUSH2 0x156 JUMPI DUP1 PUSH4 0x1BA326C4 EQ PUSH2 0x186 JUMPI DUP1 PUSH4 0x48C0FD8F EQ PUSH2 0x1B6 JUMPI JUMPDEST PUSH1 0x0 DUP1 REVERT JUMPDEST PUSH2 0x140 PUSH1 0x4 DUP1 CALLDATASIZE SUB DUP2 ADD SWAP1 PUSH2 0x13B SWAP2 SWAP1 PUSH2 0x1EC8 JUMP JUMPDEST PUSH2 0x4A4 JUMP JUMPDEST PUSH1 0x40 MLOAD PUSH2 0x14D SWAP2 SWAP1 PUSH2 0x213D JUMP JUMPDEST PUSH1 0x40 MLOAD DUP1 SWAP2 SUB SWAP1 RETURN JUMPDEST PUSH2 0x170 PUSH1 0x4 DUP1 CALLDATASIZE SUB DUP2 ADD SWAP1 PUSH2 0x16B SWAP2 SWAP1 PUSH2 0x1CD2 JUMP JUMPDEST PUSH2 0x5B2 JUMP JUMPDEST PUSH1 0x40 MLOAD PUSH2 0x17D SWAP2 SWAP1 PUSH2 0x2121 JUMP JUMPDEST PUSH1 0x40 MLOAD DUP1 SWAP2 SUB SWAP1 RETURN JUMPDEST PUSH2 0x1A0 PUSH1 0x4 DUP1 CALLDATASIZE SUB DUP2 ADD SWAP1 PUSH2 0x19B SWAP2 SWAP1 PUSH2 0x1E79 JUMP JUMPDEST PUSH2 0x9A3 JUMP JUMPDEST PUSH1 0x40 MLOAD PUSH2 0x1AD SWAP2 SWAP1 PUSH2 0x213D JUMP JUMPDEST PUSH1 0x40 MLOAD DUP1 SWAP2 SUB SWAP1 RETURN JUMPDEST PUSH2 0x1D0 PUSH1 0x4 DUP1 CALLDATASIZE SUB DUP2 ADD SWAP1 PUSH2 0x1CB SWAP2 SWAP1 PUSH2 0x1D24 JUMP JUMPDEST PUSH2 0xA13 JUMP JUMPDEST PUSH1 0x40 MLOAD PUSH2 0x1DD SWAP2 SWAP1 PUSH2 0x213D JUMP JUMPDEST PUSH1 0x40 MLOAD DUP1 SWAP2 SUB SWAP1 RETURN JUMPDEST PUSH2 0x200 PUSH1 0x4 DUP1 CALLDATASIZE SUB DUP2 ADD SWAP1 PUSH2 0x1FB SWAP2 SWAP1 PUSH2 0x1DEE JUMP JUMPDEST PUSH2 0xBFF JUMP JUMPDEST PUSH1 0x40 MLOAD PUSH2 0x20D SWAP2 SWAP1 PUSH2 0x213D JUMP JUMPDEST PUSH1 0x40 MLOAD DUP1 SWAP2 SUB SWAP1 RETURN JUMPDEST PUSH2 0x230 PUSH1 0x4 DUP1 CALLDATASIZE SUB DUP2 ADD SWAP1 PUSH2 0x22B SWAP2 SWAP1 PUSH2 0x1D24 JUMP JUMPDEST PUSH2 0xE43 JUMP JUMPDEST PUSH1 0x40 MLOAD PUSH2 0x23D SWAP2 SWAP1 PUSH2 0x213D JUMP JUMPDEST PUSH1 0x40 MLOAD DUP1 SWAP2 SUB SWAP1 RETURN JUMPDEST PUSH2 0x260 PUSH1 0x4 DUP1 CALLDATASIZE SUB DUP2 ADD SWAP1 PUSH2 0x25B SWAP2 SWAP1 PUSH2 0x1D24 JUMP JUMPDEST PUSH2 0xF6B JUMP JUMPDEST PUSH1 0x40 MLOAD PUSH2 0x26D SWAP2 SWAP1 PUSH2 0x213D JUMP JUMPDEST PUSH1 0x40 MLOAD DUP1 SWAP2 SUB SWAP1 RETURN JUMPDEST PUSH2 0x290 PUSH1 0x4 DUP1 CALLDATASIZE SUB DUP2 ADD SWAP1 PUSH2 0x28B SWAP2 SWAP1 PUSH2 0x1E79 JUMP JUMPDEST PUSH2 0x1163 JUMP JUMPDEST PUSH1 0x40 MLOAD PUSH2 0x29D SWAP2 SWAP1 PUSH2 0x213D JUMP JUMPDEST PUSH1 0x40 MLOAD DUP1 SWAP2 SUB SWAP1 RETURN JUMPDEST PUSH2 0x2C0 PUSH1 0x4 DUP1 CALLDATASIZE SUB DUP2 ADD SWAP1 PUSH2 0x2BB SWAP2 SWAP1 PUSH2 0x1E3D JUMP JUMPDEST PUSH2 0x11FF JUMP JUMPDEST PUSH1 0x40 MLOAD PUSH2 0x2CD SWAP2 SWAP1 PUSH2 0x213D JUMP JUMPDEST PUSH1 0x40 MLOAD DUP1 SWAP2 SUB SWAP1 RETURN JUMPDEST PUSH2 0x2F0 PUSH1 0x4 DUP1 CALLDATASIZE SUB DUP2 ADD SWAP1 PUSH2 0x2EB SWAP2 SWAP1 PUSH2 0x1E79 JUMP JUMPDEST PUSH2 0x125B JUMP JUMPDEST PUSH1 0x40 MLOAD PUSH2 0x2FD SWAP2 SWAP1 PUSH2 0x213D JUMP JUMPDEST PUSH1 0x40 MLOAD DUP1 SWAP2 SUB SWAP1 RETURN JUMPDEST PUSH2 0x320 PUSH1 0x4 DUP1 CALLDATASIZE SUB DUP2 ADD SWAP1 PUSH2 0x31B SWAP2 SWAP1 PUSH2 0x1E3D JUMP JUMPDEST PUSH2 0x12F7 JUMP JUMPDEST PUSH1 0x40 MLOAD PUSH2 0x32D SWAP2 SWAP1 PUSH2 0x213D JUMP JUMPDEST PUSH1 0x40 MLOAD DUP1 SWAP2 SUB SWAP1 RETURN JUMPDEST PUSH2 0x350 PUSH1 0x4 DUP1 CALLDATASIZE SUB DUP2 ADD SWAP1 PUSH2 0x34B SWAP2 SWAP1 PUSH2 0x1D24 JUMP JUMPDEST PUSH2 0x130D JUMP JUMPDEST PUSH1 0x40 MLOAD PUSH2 0x35D SWAP2 SWAP1 PUSH2 0x213D JUMP JUMPDEST PUSH1 0x40 MLOAD DUP1 SWAP2 SUB SWAP1 RETURN JUMPDEST PUSH2 0x380 PUSH1 0x4 DUP1 CALLDATASIZE SUB DUP2 ADD SWAP1 PUSH2 0x37B SWAP2 SWAP1 PUSH2 0x1DB2 JUMP JUMPDEST PUSH2 0x1435 JUMP JUMPDEST PUSH1 0x40 MLOAD PUSH2 0x38D SWAP2 SWAP1 PUSH2 0x213D JUMP JUMPDEST PUSH1 0x40 MLOAD DUP1 SWAP2 SUB SWAP1 RETURN JUMPDEST PUSH2 0x3B0 PUSH1 0x4 DUP1 CALLDATASIZE SUB DUP2 ADD SWAP1 PUSH2 0x3AB SWAP2 SWAP1 PUSH2 0x1CD2 JUMP JUMPDEST PUSH2 0x1572 JUMP JUMPDEST PUSH1 0x40 MLOAD PUSH2 0x3BD SWAP2 SWAP1 PUSH2 0x20C6 JUMP JUMPDEST PUSH1 0x40 MLOAD DUP1 SWAP2 SUB SWAP1 RETURN JUMPDEST PUSH2 0x3E0 PUSH1 0x4 DUP1 CALLDATASIZE SUB DUP2 ADD SWAP1 PUSH2 0x3DB SWAP2 SWAP1 PUSH2 0x1D24 JUMP JUMPDEST PUSH2 0x1688 JUMP JUMPDEST PUSH1 0x40 MLOAD PUSH2 0x3ED SWAP2 SWAP1 PUSH2 0x213D JUMP JUMPDEST PUSH1 0x40 MLOAD DUP1 SWAP2 SUB SWAP1 RETURN JUMPDEST PUSH2 0x410 PUSH1 0x4 DUP1 CALLDATASIZE SUB DUP2 ADD SWAP1 PUSH2 0x40B SWAP2 SWAP1 PUSH2 0x1F2B JUMP JUMPDEST PUSH2 0x17FF JUMP JUMPDEST PUSH1 0x40 MLOAD PUSH2 0x41D SWAP2 SWAP1 PUSH2 0x213D JUMP JUMPDEST PUSH1 0x40 MLOAD DUP1 SWAP2 SUB SWAP1 RETURN JUMPDEST PUSH2 0x440 PUSH1 0x4 DUP1 CALLDATASIZE SUB DUP2 ADD SWAP1 PUSH2 0x43B SWAP2 SWAP1 PUSH2 0x1D24 JUMP JUMPDEST PUSH2 0x190A JUMP JUMPDEST PUSH1 0x40 MLOAD PUSH2 0x44D SWAP2 SWAP1 PUSH2 0x213D JUMP JUMPDEST PUSH1 0x40 MLOAD DUP1 SWAP2 SUB SWAP1 RETURN JUMPDEST PUSH2 0x470 PUSH1 0x4 DUP1 CALLDATASIZE SUB DUP2 ADD SWAP1 PUSH2 0x46B SWAP2 SWAP1 PUSH2 0x1CD2 JUMP JUMPDEST PUSH2 0x1A19 JUMP JUMPDEST PUSH1 0x40 MLOAD PUSH2 0x47D SWAP2 SWAP1 PUSH2 0x20C6 JUMP JUMPDEST PUSH1 0x40 MLOAD DUP1 SWAP2 SUB SWAP1 RETURN JUMPDEST PUSH2 0x48E PUSH2 0x1B2F JUMP JUMPDEST PUSH1 0x40 MLOAD PUSH2 0x49B SWAP2 SWAP1 PUSH2 0x20C6 JUMP JUMPDEST PUSH1 0x40 MLOAD DUP1 SWAP2 SUB SWAP1 RETURN JUMPDEST PUSH1 0x0 DUP1 DUP4 DUP6 PUSH2 0x4B3 SWAP2 SWAP1 PUSH2 0x21F0 JUMP JUMPDEST SWAP1 POP PUSH1 0x0 DUP4 DUP8 PUSH2 0x4C3 SWAP2 SWAP1 PUSH2 0x21F0 JUMP JUMPDEST SWAP1 POP PUSH1 0x0 DUP7 DUP9 PUSH1 0x2 PUSH2 0x4D5 SWAP2 SWAP1 PUSH2 0x21F0 JUMP JUMPDEST PUSH2 0x4DF SWAP2 SWAP1 PUSH2 0x2169 JUMP JUMPDEST SWAP1 POP PUSH1 0x0 DUP6 DUP8 PUSH2 0x4EF SWAP2 SWAP1 PUSH2 0x2169 JUMP JUMPDEST SWAP1 POP PUSH1 0x0 DUP4 DUP6 GT ISZERO PUSH2 0x50E JUMPI DUP4 DUP6 PUSH2 0x507 SWAP2 SWAP1 PUSH2 0x224A JUMP JUMPDEST SWAP1 POP PUSH2 0x51D JUMP JUMPDEST DUP5 DUP5 PUSH2 0x51A SWAP2 SWAP1 PUSH2 0x224A JUMP JUMPDEST SWAP1 POP JUMPDEST PUSH1 0x0 DUP3 DUP5 PUSH2 0x52B SWAP2 SWAP1 PUSH2 0x21F0 JUMP JUMPDEST SWAP1 POP PUSH1 0x0 DUP2 GT PUSH2 0x570 JUMPI PUSH1 0x40 MLOAD PUSH32 0x8C379A000000000000000000000000000000000000000000000000000000000 DUP2 MSTORE PUSH1 0x4 ADD PUSH2 0x567 SWAP1 PUSH2 0x20E1 JUMP JUMPDEST PUSH1 0x40 MLOAD DUP1 SWAP2 SUB SWAP1 REVERT JUMPDEST DUP1 PUSH8 0xDE0B6B3A7640000 DUP4 PUSH2 0x585 SWAP2 SWAP1 PUSH2 0x21F0 JUMP JUMPDEST PUSH2 0x58F SWAP2 SWAP1 PUSH2 0x21BF JUMP JUMPDEST PUSH8 0xDE0B6B3A7640000 PUSH2 0x5A2 SWAP2 SWAP1 PUSH2 0x224A JUMP JUMPDEST SWAP7 POP POP POP POP POP POP POP SWAP5 SWAP4 POP POP POP POP JUMP JUMPDEST PUSH2 0x5BA PUSH2 0x1BF8 JUMP JUMPDEST PUSH1 0x0 PUSH2 0x5C5 DUP4 PUSH2 0x1572 JUMP JUMPDEST SWAP1 POP PUSH1 0x0 DUP2 PUSH20 0xFFFFFFFFFFFFFFFFFFFFFFFFFFFFFFFFFFFFFFFF AND PUSH4 0xEEC7FAA1 PUSH1 0x40 MLOAD DUP2 PUSH4 0xFFFFFFFF AND PUSH1 0xE0 SHL DUP2 MSTORE PUSH1 0x4 ADD PUSH1 0x20 PUSH1 0x40 MLOAD DUP1 DUP4 SUB DUP2 DUP7 DUP1 EXTCODESIZE ISZERO DUP1 ISZERO PUSH2 0x60F JUMPI PUSH1 0x0 DUP1 REVERT JUMPDEST POP GAS STATICCALL ISZERO DUP1 ISZERO PUSH2 0x623 JUMPI RETURNDATASIZE PUSH1 0x0 DUP1 RETURNDATACOPY RETURNDATASIZE PUSH1 0x0 REVERT JUMPDEST POP POP POP POP PUSH1 0x40 MLOAD RETURNDATASIZE PUSH1 0x1F NOT PUSH1 0x1F DUP3 ADD AND DUP3 ADD DUP1 PUSH1 0x40 MSTORE POP DUP2 ADD SWAP1 PUSH2 0x647 SWAP2 SWAP1 PUSH2 0x1D89 JUMP JUMPDEST SWAP1 POP PUSH1 0x0 DUP3 PUSH20 0xFFFFFFFFFFFFFFFFFFFFFFFFFFFFFFFFFFFFFFFF AND PUSH4 0x4864D140 PUSH1 0x40 MLOAD DUP2 PUSH4 0xFFFFFFFF AND PUSH1 0xE0 SHL DUP2 MSTORE PUSH1 0x4 ADD PUSH1 0x20 PUSH1 0x40 MLOAD DUP1 DUP4 SUB DUP2 DUP7 DUP1 EXTCODESIZE ISZERO DUP1 ISZERO PUSH2 0x691 JUMPI PUSH1 0x0 DUP1 REVERT JUMPDEST POP GAS STATICCALL ISZERO DUP1 ISZERO PUSH2 0x6A5 JUMPI RETURNDATASIZE PUSH1 0x0 DUP1 RETURNDATACOPY RETURNDATASIZE PUSH1 0x0 REVERT JUMPDEST POP POP POP POP PUSH1 0x40 MLOAD RETURNDATASIZE PUSH1 0x1F NOT PUSH1 0x1F DUP3 ADD AND DUP3 ADD DUP1 PUSH1 0x40 MSTORE POP DUP2 ADD SWAP1 PUSH2 0x6C9 SWAP2 SWAP1 PUSH2 0x1D89 JUMP JUMPDEST SWAP1 POP DUP5 DUP5 PUSH1 0x0 ADD SWAP1 PUSH20 0xFFFFFFFFFFFFFFFFFFFFFFFFFFFFFFFFFFFFFFFF AND SWAP1 DUP2 PUSH20 0xFFFFFFFFFFFFFFFFFFFFFFFFFFFFFFFFFFFFFFFF AND DUP2 MSTORE POP POP DUP3 DUP5 PUSH1 0x20 ADD SWAP1 PUSH20 0xFFFFFFFFFFFFFFFFFFFFFFFFFFFFFFFFFFFFFFFF AND SWAP1 DUP2 PUSH20 0xFFFFFFFFFFFFFFFFFFFFFFFFFFFFFFFFFFFFFFFF AND DUP2 MSTORE POP POP DUP3 PUSH20 0xFFFFFFFFFFFFFFFFFFFFFFFFFFFFFFFFFFFFFFFF AND PUSH4 0xA7F0B3DE PUSH1 0x40 MLOAD DUP2 PUSH4 0xFFFFFFFF AND PUSH1 0xE0 SHL DUP2 MSTORE PUSH1 0x4 ADD PUSH1 0x20 PUSH1 0x40 MLOAD DUP1 DUP4 SUB DUP2 DUP7 DUP1 EXTCODESIZE ISZERO DUP1 ISZERO PUSH2 0x781 JUMPI PUSH1 0x0 DUP1 REVERT JUMPDEST POP GAS STATICCALL ISZERO DUP1 ISZERO PUSH2 0x795 JUMPI RETURNDATASIZE PUSH1 0x0 DUP1 RETURNDATACOPY RETURNDATASIZE PUSH1 0x0 REVERT JUMPDEST POP POP POP POP PUSH1 0x40 MLOAD RETURNDATASIZE PUSH1 0x1F NOT PUSH1 0x1F DUP3 ADD AND DUP3 ADD DUP1 PUSH1 0x40 MSTORE POP DUP2 ADD SWAP1 PUSH2 0x7B9 SWAP2 SWAP1 PUSH2 0x1D89 JUMP JUMPDEST DUP5 PUSH1 0x40 ADD DUP2 DUP2 MSTORE POP POP DUP1 DUP5 PUSH1 0x60 ADD DUP2 DUP2 MSTORE POP POP DUP2 DUP5 PUSH1 0x80 ADD DUP2 DUP2 MSTORE POP POP DUP3 PUSH20 0xFFFFFFFFFFFFFFFFFFFFFFFFFFFFFFFFFFFFFFFF AND PUSH4 0x18160DDD PUSH1 0x40 MLOAD DUP2 PUSH4 0xFFFFFFFF AND PUSH1 0xE0 SHL DUP2 MSTORE PUSH1 0x4 ADD PUSH1 0x20 PUSH1 0x40 MLOAD DUP1 DUP4 SUB DUP2 DUP7 DUP1 EXTCODESIZE ISZERO DUP1 ISZERO PUSH2 0x81C JUMPI PUSH1 0x0 DUP1 REVERT JUMPDEST POP GAS STATICCALL ISZERO DUP1 ISZERO PUSH2 0x830 JUMPI RETURNDATASIZE PUSH1 0x0 DUP1 RETURNDATACOPY RETURNDATASIZE PUSH1 0x0 REVERT JUMPDEST POP POP POP POP PUSH1 0x40 MLOAD RETURNDATASIZE PUSH1 0x1F NOT PUSH1 0x1F DUP3 ADD AND DUP3 ADD DUP1 PUSH1 0x40 MSTORE POP DUP2 ADD SWAP1 PUSH2 0x854 SWAP2 SWAP1 PUSH2 0x1D89 JUMP JUMPDEST DUP5 PUSH1 0xA0 ADD DUP2 DUP2 MSTORE POP POP PUSH2 0x2710 DUP4 PUSH20 0xFFFFFFFFFFFFFFFFFFFFFFFFFFFFFFFFFFFFFFFF AND PUSH4 0x33CA78E4 PUSH1 0x40 MLOAD DUP2 PUSH4 0xFFFFFFFF AND PUSH1 0xE0 SHL DUP2 MSTORE PUSH1 0x4 ADD PUSH1 0x20 PUSH1 0x40 MLOAD DUP1 DUP4 SUB DUP2 DUP7 DUP1 EXTCODESIZE ISZERO DUP1 ISZERO PUSH2 0x8A6 JUMPI PUSH1 0x0 DUP1 REVERT JUMPDEST POP GAS STATICCALL ISZERO DUP1 ISZERO PUSH2 0x8BA JUMPI RETURNDATASIZE PUSH1 0x0 DUP1 RETURNDATACOPY RETURNDATASIZE PUSH1 0x0 REVERT JUMPDEST POP POP POP POP PUSH1 0x40 MLOAD RETURNDATASIZE PUSH1 0x1F NOT PUSH1 0x1F DUP3 ADD AND DUP3 ADD DUP1 PUSH1 0x40 MSTORE POP DUP2 ADD SWAP1 PUSH2 0x8DE SWAP2 SWAP1 PUSH2 0x1D89 JUMP JUMPDEST DUP4 PUSH2 0x8E9 SWAP2 SWAP1 PUSH2 0x21F0 JUMP JUMPDEST PUSH2 0x8F3 SWAP2 SWAP1 PUSH2 0x21BF JUMP JUMPDEST DUP5 PUSH1 0xC0 ADD DUP2 DUP2 MSTORE POP POP PUSH2 0x2710 DUP4 PUSH20 0xFFFFFFFFFFFFFFFFFFFFFFFFFFFFFFFFFFFFFFFF AND PUSH4 0xCBBCF802 PUSH1 0x40 MLOAD DUP2 PUSH4 0xFFFFFFFF AND PUSH1 0xE0 SHL DUP2 MSTORE PUSH1 0x4 ADD PUSH1 0x20 PUSH1 0x40 MLOAD DUP1 DUP4 SUB DUP2 DUP7 DUP1 EXTCODESIZE ISZERO DUP1 ISZERO PUSH2 0x945 JUMPI PUSH1 0x0 DUP1 REVERT JUMPDEST POP GAS STATICCALL ISZERO DUP1 ISZERO PUSH2 0x959 JUMPI RETURNDATASIZE PUSH1 0x0 DUP1 RETURNDATACOPY RETURNDATASIZE PUSH1 0x0 REVERT JUMPDEST POP POP POP POP PUSH1 0x40 MLOAD RETURNDATASIZE PUSH1 0x1F NOT PUSH1 0x1F DUP3 ADD AND DUP3 ADD DUP1 PUSH1 0x40 MSTORE POP DUP2 ADD SWAP1 PUSH2 0x97D SWAP2 SWAP1 PUSH2 0x1D89 JUMP JUMPDEST DUP3 PUSH2 0x988 SWAP2 SWAP1 PUSH2 0x21F0 JUMP JUMPDEST PUSH2 0x992 SWAP2 SWAP1 PUSH2 0x21BF JUMP JUMPDEST DUP5 PUSH1 0xE0 ADD DUP2 DUP2 MSTORE POP POP POP POP POP SWAP2 SWAP1 POP JUMP JUMPDEST PUSH1 0x0 DUP1 DUP4 GT PUSH2 0x9E7 JUMPI PUSH1 0x40 MLOAD PUSH32 0x8C379A000000000000000000000000000000000000000000000000000000000 DUP2 MSTORE PUSH1 0x4 ADD PUSH2 0x9DE SWAP1 PUSH2 0x20E1 JUMP JUMPDEST PUSH1 0x40 MLOAD DUP1 SWAP2 SUB SWAP1 REVERT JUMPDEST DUP3 DUP5 GT ISZERO PUSH2 0x9F3 JUMPI DUP3 SWAP4 POP JUMPDEST DUP3 DUP5 DUP4 PUSH2 0xA00 SWAP2 SWAP1 PUSH2 0x21F0 JUMP JUMPDEST PUSH2 0xA0A SWAP2 SWAP1 PUSH2 0x21BF JUMP JUMPDEST SWAP1 POP SWAP4 SWAP3 POP POP POP JUMP JUMPDEST PUSH1 0x0 DUP1 DUP4 PUSH20 0xFFFFFFFFFFFFFFFFFFFFFFFFFFFFFFFFFFFFFFFF AND PUSH4 0x7535D246 PUSH1 0x40 MLOAD DUP2 PUSH4 0xFFFFFFFF AND PUSH1 0xE0 SHL DUP2 MSTORE PUSH1 0x4 ADD PUSH1 0x20 PUSH1 0x40 MLOAD DUP1 DUP4 SUB DUP2 DUP7 DUP1 EXTCODESIZE ISZERO DUP1 ISZERO PUSH2 0xA5C JUMPI PUSH1 0x0 DUP1 REVERT JUMPDEST POP GAS STATICCALL ISZERO DUP1 ISZERO PUSH2 0xA70 JUMPI RETURNDATASIZE PUSH1 0x0 DUP1 RETURNDATACOPY RETURNDATASIZE PUSH1 0x0 REVERT JUMPDEST POP POP POP POP PUSH1 0x40 MLOAD RETURNDATASIZE PUSH1 0x1F NOT PUSH1 0x1F DUP3 ADD AND DUP3 ADD DUP1 PUSH1 0x40 MSTORE POP DUP2 ADD SWAP1 PUSH2 0xA94 SWAP2 SWAP1 PUSH2 0x1CFB JUMP JUMPDEST SWAP1 POP PUSH1 0x0 DUP2 PUSH20 0xFFFFFFFFFFFFFFFFFFFFFFFFFFFFFFFFFFFFFFFF AND PUSH4 0x4864D140 PUSH1 0x40 MLOAD DUP2 PUSH4 0xFFFFFFFF AND PUSH1 0xE0 SHL DUP2 MSTORE PUSH1 0x4 ADD PUSH1 0x20 PUSH1 0x40 MLOAD DUP1 DUP4 SUB DUP2 DUP7 DUP1 EXTCODESIZE ISZERO DUP1 ISZERO PUSH2 0xADE JUMPI PUSH1 0x0 DUP1 REVERT JUMPDEST POP GAS STATICCALL ISZERO DUP1 ISZERO PUSH2 0xAF2 JUMPI RETURNDATASIZE PUSH1 0x0 DUP1 RETURNDATACOPY RETURNDATASIZE PUSH1 0x0 REVERT JUMPDEST POP POP POP POP PUSH1 0x40 MLOAD RETURNDATASIZE PUSH1 0x1F NOT PUSH1 0x1F DUP3 ADD AND DUP3 ADD DUP1 PUSH1 0x40 MSTORE POP DUP2 ADD SWAP1 PUSH2 0xB16 SWAP2 SWAP1 PUSH2 0x1D89 JUMP JUMPDEST SWAP1 POP PUSH1 0x0 DUP3 PUSH20 0xFFFFFFFFFFFFFFFFFFFFFFFFFFFFFFFFFFFFFFFF AND PUSH4 0xEEC7FAA1 PUSH1 0x40 MLOAD DUP2 PUSH4 0xFFFFFFFF AND PUSH1 0xE0 SHL DUP2 MSTORE PUSH1 0x4 ADD PUSH1 0x20 PUSH1 0x40 MLOAD DUP1 DUP4 SUB DUP2 DUP7 DUP1 EXTCODESIZE ISZERO DUP1 ISZERO PUSH2 0xB60 JUMPI PUSH1 0x0 DUP1 REVERT JUMPDEST POP GAS STATICCALL ISZERO DUP1 ISZERO PUSH2 0xB74 JUMPI RETURNDATASIZE PUSH1 0x0 DUP1 RETURNDATACOPY RETURNDATASIZE PUSH1 0x0 REVERT JUMPDEST POP POP POP POP PUSH1 0x40 MLOAD RETURNDATASIZE PUSH1 0x1F NOT PUSH1 0x1F DUP3 ADD AND DUP3 ADD DUP1 PUSH1 0x40 MSTORE POP DUP2 ADD SWAP1 PUSH2 0xB98 SWAP2 SWAP1 PUSH2 0x1D89 JUMP JUMPDEST SWAP1 POP PUSH1 0x0 DUP2 GT PUSH2 0xBDD JUMPI PUSH1 0x40 MLOAD PUSH32 0x8C379A000000000000000000000000000000000000000000000000000000000 DUP2 MSTORE PUSH1 0x4 ADD PUSH2 0xBD4 SWAP1 PUSH2 0x20E1 JUMP JUMPDEST PUSH1 0x40 MLOAD DUP1 SWAP2 SUB SWAP1 REVERT JUMPDEST DUP1 DUP3 DUP7 PUSH2 0xBEA SWAP2 SWAP1 PUSH2 0x21F0 JUMP JUMPDEST PUSH2 0xBF4 SWAP2 SWAP1 PUSH2 0x21BF JUMP JUMPDEST SWAP4 POP POP POP POP SWAP3 SWAP2 POP POP JUMP JUMPDEST PUSH1 0x0 DUP1 PUSH32 0x0 PUSH20 0xFFFFFFFFFFFFFFFFFFFFFFFFFFFFFFFFFFFFFFFF AND DUP5 PUSH20 0xFFFFFFFFFFFFFFFFFFFFFFFFFFFFFFFFFFFFFFFF AND EQ ISZERO PUSH2 0xCDB JUMPI DUP3 PUSH20 0xFFFFFFFFFFFFFFFFFFFFFFFFFFFFFFFFFFFFFFFF AND PUSH4 0x4864D140 PUSH1 0x40 MLOAD DUP2 PUSH4 0xFFFFFFFF AND PUSH1 0xE0 SHL DUP2 MSTORE PUSH1 0x4 ADD PUSH1 0x20 PUSH1 0x40 MLOAD DUP1 DUP4 SUB DUP2 DUP7 DUP1 EXTCODESIZE ISZERO DUP1 ISZERO PUSH2 0xC9C JUMPI PUSH1 0x0 DUP1 REVERT JUMPDEST POP GAS STATICCALL ISZERO DUP1 ISZERO PUSH2 0xCB0 JUMPI RETURNDATASIZE PUSH1 0x0 DUP1 RETURNDATACOPY RETURNDATASIZE PUSH1 0x0 REVERT JUMPDEST POP POP POP POP PUSH1 0x40 MLOAD RETURNDATASIZE PUSH1 0x1F NOT PUSH1 0x1F DUP3 ADD AND DUP3 ADD DUP1 PUSH1 0x40 MSTORE POP DUP2 ADD SWAP1 PUSH2 0xCD4 SWAP2 SWAP1 PUSH2 0x1D89 JUMP JUMPDEST SWAP1 POP PUSH2 0xD5C JUMP JUMPDEST DUP3 PUSH20 0xFFFFFFFFFFFFFFFFFFFFFFFFFFFFFFFFFFFFFFFF AND PUSH4 0xEEC7FAA1 PUSH1 0x40 MLOAD DUP2 PUSH4 0xFFFFFFFF AND PUSH1 0xE0 SHL DUP2 MSTORE PUSH1 0x4 ADD PUSH1 0x20 PUSH1 0x40 MLOAD DUP1 DUP4 SUB DUP2 DUP7 DUP1 EXTCODESIZE ISZERO DUP1 ISZERO PUSH2 0xD21 JUMPI PUSH1 0x0 DUP1 REVERT JUMPDEST POP GAS STATICCALL ISZERO DUP1 ISZERO PUSH2 0xD35 JUMPI RETURNDATASIZE PUSH1 0x0 DUP1 RETURNDATACOPY RETURNDATASIZE PUSH1 0x0 REVERT JUMPDEST POP POP POP POP PUSH1 0x40 MLOAD RETURNDATASIZE PUSH1 0x1F NOT PUSH1 0x1F DUP3 ADD AND DUP3 ADD DUP1 PUSH1 0x40 MSTORE POP DUP2 ADD SWAP1 PUSH2 0xD59 SWAP2 SWAP1 PUSH2 0x1D89 JUMP JUMPDEST SWAP1 POP JUMPDEST PUSH1 0x0 DUP4 PUSH20 0xFFFFFFFFFFFFFFFFFFFFFFFFFFFFFFFFFFFFFFFF AND PUSH4 0x18160DDD PUSH1 0x40 MLOAD DUP2 PUSH4 0xFFFFFFFF AND PUSH1 0xE0 SHL DUP2 MSTORE PUSH1 0x4 ADD PUSH1 0x20 PUSH1 0x40 MLOAD DUP1 DUP4 SUB DUP2 DUP7 DUP1 EXTCODESIZE ISZERO DUP1 ISZERO PUSH2 0xDA4 JUMPI PUSH1 0x0 DUP1 REVERT JUMPDEST POP GAS STATICCALL ISZERO DUP1 ISZERO PUSH2 0xDB8 JUMPI RETURNDATASIZE PUSH1 0x0 DUP1 RETURNDATACOPY RETURNDATASIZE PUSH1 0x0 REVERT JUMPDEST POP POP POP POP PUSH1 0x40 MLOAD RETURNDATASIZE PUSH1 0x1F NOT PUSH1 0x1F DUP3 ADD AND DUP3 ADD DUP1 PUSH1 0x40 MSTORE POP DUP2 ADD SWAP1 PUSH2 0xDDC SWAP2 SWAP1 PUSH2 0x1D89 JUMP JUMPDEST SWAP1 POP PUSH1 0x0 DUP2 GT PUSH2 0xE21 JUMPI PUSH1 0x40 MLOAD PUSH32 0x8C379A000000000000000000000000000000000000000000000000000000000 DUP2 MSTORE PUSH1 0x4 ADD PUSH2 0xE18 SWAP1 PUSH2 0x20E1 JUMP JUMPDEST PUSH1 0x40 MLOAD DUP1 SWAP2 SUB SWAP1 REVERT JUMPDEST DUP1 DUP7 DUP4 PUSH2 0xE2E SWAP2 SWAP1 PUSH2 0x21F0 JUMP JUMPDEST PUSH2 0xE38 SWAP2 SWAP1 PUSH2 0x21BF JUMP JUMPDEST SWAP3 POP POP POP SWAP4 SWAP3 POP POP POP JUMP JUMPDEST PUSH1 0x0 DUP1 PUSH2 0xE4F DUP5 PUSH2 0x1572 JUMP JUMPDEST SWAP1 POP PUSH1 0x0 DUP2 PUSH20 0xFFFFFFFFFFFFFFFFFFFFFFFFFFFFFFFFFFFFFFFF AND PUSH4 0x4864D140 PUSH1 0x40 MLOAD DUP2 PUSH4 0xFFFFFFFF AND PUSH1 0xE0 SHL DUP2 MSTORE PUSH1 0x4 ADD PUSH1 0x20 PUSH1 0x40 MLOAD DUP1 DUP4 SUB DUP2 DUP7 DUP1 EXTCODESIZE ISZERO DUP1 ISZERO PUSH2 0xE99 JUMPI PUSH1 0x0 DUP1 REVERT JUMPDEST POP GAS STATICCALL ISZERO DUP1 ISZERO PUSH2 0xEAD JUMPI RETURNDATASIZE PUSH1 0x0 DUP1 RETURNDATACOPY RETURNDATASIZE PUSH1 0x0 REVERT JUMPDEST POP POP POP POP PUSH1 0x40 MLOAD RETURNDATASIZE PUSH1 0x1F NOT PUSH1 0x1F DUP3 ADD AND DUP3 ADD DUP1 PUSH1 0x40 MSTORE POP DUP2 ADD SWAP1 PUSH2 0xED1 SWAP2 SWAP1 PUSH2 0x1D89 JUMP JUMPDEST SWAP1 POP PUSH1 0x0 DUP3 PUSH20 0xFFFFFFFFFFFFFFFFFFFFFFFFFFFFFFFFFFFFFFFF AND PUSH4 0xEEC7FAA1 PUSH1 0x40 MLOAD DUP2 PUSH4 0xFFFFFFFF AND PUSH1 0xE0 SHL DUP2 MSTORE PUSH1 0x4 ADD PUSH1 0x20 PUSH1 0x40 MLOAD DUP1 DUP4 SUB DUP2 DUP7 DUP1 EXTCODESIZE ISZERO DUP1 ISZERO PUSH2 0xF1B JUMPI PUSH1 0x0 DUP1 REVERT JUMPDEST POP GAS STATICCALL ISZERO DUP1 ISZERO PUSH2 0xF2F JUMPI RETURNDATASIZE PUSH1 0x0 DUP1 RETURNDATACOPY RETURNDATASIZE PUSH1 0x0 REVERT JUMPDEST POP POP POP POP PUSH1 0x40 MLOAD RETURNDATASIZE PUSH1 0x1F NOT PUSH1 0x1F DUP3 ADD AND DUP3 ADD DUP1 PUSH1 0x40 MSTORE POP DUP2 ADD SWAP1 PUSH2 0xF53 SWAP2 SWAP1 PUSH2 0x1D89 JUMP JUMPDEST SWAP1 POP PUSH2 0xF60 DUP6 DUP4 DUP4 PUSH2 0x1163 JUMP JUMPDEST SWAP4 POP POP POP POP SWAP3 SWAP2 POP POP JUMP JUMPDEST PUSH1 0x0 DUP1 DUP4 PUSH20 0xFFFFFFFFFFFFFFFFFFFFFFFFFFFFFFFFFFFFFFFF AND PUSH4 0x7535D246 PUSH1 0x40 MLOAD DUP2 PUSH4 0xFFFFFFFF AND PUSH1 0xE0 SHL DUP2 MSTORE PUSH1 0x4 ADD PUSH1 0x20 PUSH1 0x40 MLOAD DUP1 DUP4 SUB DUP2 DUP7 DUP1 EXTCODESIZE ISZERO DUP1 ISZERO PUSH2 0xFB4 JUMPI PUSH1 0x0 DUP1 REVERT JUMPDEST POP GAS STATICCALL ISZERO DUP1 ISZERO PUSH2 0xFC8 JUMPI RETURNDATASIZE PUSH1 0x0 DUP1 RETURNDATACOPY RETURNDATASIZE PUSH1 0x0 REVERT JUMPDEST POP POP POP POP PUSH1 0x40 MLOAD RETURNDATASIZE PUSH1 0x1F NOT PUSH1 0x1F DUP3 ADD AND DUP3 ADD DUP1 PUSH1 0x40 MSTORE POP DUP2 ADD SWAP1 PUSH2 0xFEC SWAP2 SWAP1 PUSH2 0x1CFB JUMP JUMPDEST SWAP1 POP PUSH1 0x0 DUP2 PUSH20 0xFFFFFFFFFFFFFFFFFFFFFFFFFFFFFFFFFFFFFFFF AND PUSH4 0x4864D140 PUSH1 0x40 MLOAD DUP2 PUSH4 0xFFFFFFFF AND PUSH1 0xE0 SHL DUP2 MSTORE PUSH1 0x4 ADD PUSH1 0x20 PUSH1 0x40 MLOAD DUP1 DUP4 SUB DUP2 DUP7 DUP1 EXTCODESIZE ISZERO DUP1 ISZERO PUSH2 0x1036 JUMPI PUSH1 0x0 DUP1 REVERT JUMPDEST POP GAS STATICCALL ISZERO DUP1 ISZERO PUSH2 0x104A JUMPI RETURNDATASIZE PUSH1 0x0 DUP1 RETURNDATACOPY RETURNDATASIZE PUSH1 0x0 REVERT JUMPDEST POP POP POP POP PUSH1 0x40 MLOAD RETURNDATASIZE PUSH1 0x1F NOT PUSH1 0x1F DUP3 ADD AND DUP3 ADD DUP1 PUSH1 0x40 MSTORE POP DUP2 ADD SWAP1 PUSH2 0x106E SWAP2 SWAP1 PUSH2 0x1D89 JUMP JUMPDEST SWAP1 POP PUSH1 0x0 DUP3 PUSH20 0xFFFFFFFFFFFFFFFFFFFFFFFFFFFFFFFFFFFFFFFF AND PUSH4 0xEEC7FAA1 PUSH1 0x40 MLOAD DUP2 PUSH4 0xFFFFFFFF AND PUSH1 0xE0 SHL DUP2 MSTORE PUSH1 0x4 ADD PUSH1 0x20 PUSH1 0x40 MLOAD DUP1 DUP4 SUB DUP2 DUP7 DUP1 EXTCODESIZE ISZERO DUP1 ISZERO PUSH2 0x10B8 JUMPI PUSH1 0x0 DUP1 REVERT JUMPDEST POP GAS STATICCALL ISZERO DUP1 ISZERO PUSH2 0x10CC JUMPI RETURNDATASIZE PUSH1 0x0 DUP1 RETURNDATACOPY RETURNDATASIZE PUSH1 0x0 REVERT JUMPDEST POP POP POP POP PUSH1 0x40 MLOAD RETURNDATASIZE PUSH1 0x1F NOT PUSH1 0x1F DUP3 ADD AND DUP3 ADD DUP1 PUSH1 0x40 MSTORE POP DUP2 ADD SWAP1 PUSH2 0x10F0 SWAP2 SWAP1 PUSH2 0x1D89 JUMP JUMPDEST SWAP1 POP PUSH1 0x0 DUP2 GT PUSH2 0x1135 JUMPI PUSH1 0x40 MLOAD PUSH32 0x8C379A000000000000000000000000000000000000000000000000000000000 DUP2 MSTORE PUSH1 0x4 ADD PUSH2 0x112C SWAP1 PUSH2 0x20E1 JUMP JUMPDEST PUSH1 0x40 MLOAD DUP1 SWAP2 SUB SWAP1 REVERT JUMPDEST DUP1 PUSH1 0x2 PUSH2 0x1142 SWAP2 SWAP1 PUSH2 0x21F0 JUMP JUMPDEST DUP3 DUP7 PUSH2 0x114E SWAP2 SWAP1 PUSH2 0x21F0 JUMP JUMPDEST PUSH2 0x1158 SWAP2 SWAP1 PUSH2 0x21BF JUMP JUMPDEST SWAP4 POP POP POP POP SWAP3 SWAP2 POP POP JUMP JUMPDEST PUSH1 0x0 DUP1 DUP3 DUP5 DUP7 PUSH2 0x1173 SWAP2 SWAP1 PUSH2 0x21F0 JUMP JUMPDEST PUSH2 0x117D SWAP2 SWAP1 PUSH2 0x21F0 JUMP JUMPDEST SWAP1 POP PUSH1 0x0 DUP5 DUP7 PUSH2 0x118D SWAP2 SWAP1 PUSH2 0x2169 JUMP JUMPDEST DUP6 DUP8 PUSH2 0x1199 SWAP2 SWAP1 PUSH2 0x2169 JUMP JUMPDEST PUSH2 0x11A3 SWAP2 SWAP1 PUSH2 0x21F0 JUMP JUMPDEST SWAP1 POP PUSH1 0x0 DUP2 GT PUSH2 0x11E8 JUMPI PUSH1 0x40 MLOAD PUSH32 0x8C379A000000000000000000000000000000000000000000000000000000000 DUP2 MSTORE PUSH1 0x4 ADD PUSH2 0x11DF SWAP1 PUSH2 0x20E1 JUMP JUMPDEST PUSH1 0x40 MLOAD DUP1 SWAP2 SUB SWAP1 REVERT JUMPDEST DUP1 DUP3 PUSH2 0x11F4 SWAP2 SWAP1 PUSH2 0x21BF JUMP JUMPDEST SWAP3 POP POP POP SWAP4 SWAP3 POP POP POP JUMP JUMPDEST PUSH1 0x0 PUSH2 0x2710 DUP4 GT ISZERO PUSH2 0x1246 JUMPI PUSH1 0x40 MLOAD PUSH32 0x8C379A000000000000000000000000000000000000000000000000000000000 DUP2 MSTORE PUSH1 0x4 ADD PUSH2 0x123D SWAP1 PUSH2 0x2101 JUMP JUMPDEST PUSH1 0x40 MLOAD DUP1 SWAP2 SUB SWAP1 REVERT JUMPDEST PUSH2 0x1253 DUP4 PUSH2 0x2710 DUP5 PUSH2 0x9A3 JUMP JUMPDEST SWAP1 POP SWAP3 SWAP2 POP POP JUMP JUMPDEST PUSH1 0x0 DUP1 DUP3 DUP6 DUP7 PUSH2 0x126B SWAP2 SWAP1 PUSH2 0x21F0 JUMP JUMPDEST PUSH2 0x1275 SWAP2 SWAP1 PUSH2 0x21F0 JUMP JUMPDEST SWAP1 POP PUSH1 0x0 DUP5 DUP7 PUSH2 0x1285 SWAP2 SWAP1 PUSH2 0x2169 JUMP JUMPDEST DUP6 DUP8 PUSH2 0x1291 SWAP2 SWAP1 PUSH2 0x2169 JUMP JUMPDEST PUSH2 0x129B SWAP2 SWAP1 PUSH2 0x21F0 JUMP JUMPDEST SWAP1 POP PUSH1 0x0 DUP2 GT PUSH2 0x12E0 JUMPI PUSH1 0x40 MLOAD PUSH32 0x8C379A000000000000000000000000000000000000000000000000000000000 DUP2 MSTORE PUSH1 0x4 ADD PUSH2 0x12D7 SWAP1 PUSH2 0x20E1 JUMP JUMPDEST PUSH1 0x40 MLOAD DUP1 SWAP2 SUB SWAP1 REVERT JUMPDEST DUP1 DUP3 PUSH2 0x12EC SWAP2 SWAP1 PUSH2 0x21BF JUMP JUMPDEST SWAP3 POP POP POP SWAP4 SWAP3 POP POP POP JUMP JUMPDEST PUSH1 0x0 PUSH2 0x1305 DUP4 DUP4 PUSH1 0x64 PUSH2 0x9A3 JUMP JUMPDEST SWAP1 POP SWAP3 SWAP2 POP POP JUMP JUMPDEST PUSH1 0x0 DUP1 PUSH2 0x1319 DUP5 PUSH2 0x1572 JUMP JUMPDEST SWAP1 POP PUSH1 0x0 DUP2 PUSH20 0xFFFFFFFFFFFFFFFFFFFFFFFFFFFFFFFFFFFFFFFF AND PUSH4 0x4864D140 PUSH1 0x40 MLOAD DUP2 PUSH4 0xFFFFFFFF AND PUSH1 0xE0 SHL DUP2 MSTORE PUSH1 0x4 ADD PUSH1 0x20 PUSH1 0x40 MLOAD DUP1 DUP4 SUB DUP2 DUP7 DUP1 EXTCODESIZE ISZERO DUP1 ISZERO PUSH2 0x1363 JUMPI PUSH1 0x0 DUP1 REVERT JUMPDEST POP GAS STATICCALL ISZERO DUP1 ISZERO PUSH2 0x1377 JUMPI RETURNDATASIZE PUSH1 0x0 DUP1 RETURNDATACOPY RETURNDATASIZE PUSH1 0x0 REVERT JUMPDEST POP POP POP POP PUSH1 0x40 MLOAD RETURNDATASIZE PUSH1 0x1F NOT PUSH1 0x1F DUP3 ADD AND DUP3 ADD DUP1 PUSH1 0x40 MSTORE POP DUP2 ADD SWAP1 PUSH2 0x139B SWAP2 SWAP1 PUSH2 0x1D89 JUMP JUMPDEST SWAP1 POP PUSH1 0x0 DUP3 PUSH20 0xFFFFFFFFFFFFFFFFFFFFFFFFFFFFFFFFFFFFFFFF AND PUSH4 0xEEC7FAA1 PUSH1 0x40 MLOAD DUP2 PUSH4 0xFFFFFFFF AND PUSH1 0xE0 SHL DUP2 MSTORE PUSH1 0x4 ADD PUSH1 0x20 PUSH1 0x40 MLOAD DUP1 DUP4 SUB DUP2 DUP7 DUP1 EXTCODESIZE ISZERO DUP1 ISZERO PUSH2 0x13E5 JUMPI PUSH1 0x0 DUP1 REVERT JUMPDEST POP GAS STATICCALL ISZERO DUP1 ISZERO PUSH2 0x13F9 JUMPI RETURNDATASIZE PUSH1 0x0 DUP1 RETURNDATACOPY RETURNDATASIZE PUSH1 0x0 REVERT JUMPDEST POP POP POP POP PUSH1 0x40 MLOAD RETURNDATASIZE PUSH1 0x1F NOT PUSH1 0x1F DUP3 ADD AND DUP3 ADD DUP1 PUSH1 0x40 MSTORE POP DUP2 ADD SWAP1 PUSH2 0x141D SWAP2 SWAP1 PUSH2 0x1D89 JUMP JUMPDEST SWAP1 POP PUSH2 0x142A DUP6 DUP3 DUP5 PUSH2 0x1163 JUMP JUMPDEST SWAP4 POP POP POP POP SWAP3 SWAP2 POP POP JUMP JUMPDEST PUSH1 0x0 DUP1 DUP3 PUSH20 0xFFFFFFFFFFFFFFFFFFFFFFFFFFFFFFFFFFFFFFFF AND PUSH4 0x4864D140 PUSH1 0x40 MLOAD DUP2 PUSH4 0xFFFFFFFF AND PUSH1 0xE0 SHL DUP2 MSTORE PUSH1 0x4 ADD PUSH1 0x20 PUSH1 0x40 MLOAD DUP1 DUP4 SUB DUP2 DUP7 DUP1 EXTCODESIZE ISZERO DUP1 ISZERO PUSH2 0x147E JUMPI PUSH1 0x0 DUP1 REVERT JUMPDEST POP GAS STATICCALL ISZERO DUP1 ISZERO PUSH2 0x1492 JUMPI RETURNDATASIZE PUSH1 0x0 DUP1 RETURNDATACOPY RETURNDATASIZE PUSH1 0x0 REVERT JUMPDEST POP POP POP POP PUSH1 0x40 MLOAD RETURNDATASIZE PUSH1 0x1F NOT PUSH1 0x1F DUP3 ADD AND DUP3 ADD DUP1 PUSH1 0x40 MSTORE POP DUP2 ADD SWAP1 PUSH2 0x14B6 SWAP2 SWAP1 PUSH2 0x1D89 JUMP JUMPDEST SWAP1 POP PUSH1 0x0 DUP4 PUSH20 0xFFFFFFFFFFFFFFFFFFFFFFFFFFFFFFFFFFFFFFFF AND PUSH4 0x18160DDD PUSH1 0x40 MLOAD DUP2 PUSH4 0xFFFFFFFF AND PUSH1 0xE0 SHL DUP2 MSTORE PUSH1 0x4 ADD PUSH1 0x20 PUSH1 0x40 MLOAD DUP1 DUP4 SUB DUP2 DUP7 DUP1 EXTCODESIZE ISZERO DUP1 ISZERO PUSH2 0x1500 JUMPI PUSH1 0x0 DUP1 REVERT JUMPDEST POP GAS STATICCALL ISZERO DUP1 ISZERO PUSH2 0x1514 JUMPI RETURNDATASIZE PUSH1 0x0 DUP1 RETURNDATACOPY RETURNDATASIZE PUSH1 0x0 REVERT JUMPDEST POP POP POP POP PUSH1 0x40 MLOAD RETURNDATASIZE PUSH1 0x1F NOT PUSH1 0x1F DUP3 ADD AND DUP3 ADD DUP1 PUSH1 0x40 MSTORE POP DUP2 ADD SWAP1 PUSH2 0x1538 SWAP2 SWAP1 PUSH2 0x1D89 JUMP JUMPDEST SWAP1 POP PUSH1 0x2 DUP3 DUP7 PUSH2 0x1548 SWAP2 SWAP1 PUSH2 0x2169 JUMP JUMPDEST PUSH2 0x1552 SWAP2 SWAP1 PUSH2 0x21F0 JUMP JUMPDEST DUP6 DUP3 PUSH2 0x155E SWAP2 SWAP1 PUSH2 0x21F0 JUMP JUMPDEST PUSH2 0x1568 SWAP2 SWAP1 PUSH2 0x21BF JUMP JUMPDEST SWAP3 POP POP POP SWAP3 SWAP2 POP POP JUMP JUMPDEST PUSH1 0x0 PUSH2 0x157C PUSH2 0x1B53 JUMP JUMPDEST PUSH20 0xFFFFFFFFFFFFFFFFFFFFFFFFFFFFFFFFFFFFFFFF AND PUSH4 0xB99B0A0C PUSH1 0x40 MLOAD DUP2 PUSH4 0xFFFFFFFF AND PUSH1 0xE0 SHL DUP2 MSTORE PUSH1 0x4 ADD PUSH1 0x20 PUSH1 0x40 MLOAD DUP1 DUP4 SUB DUP2 DUP7 DUP1 EXTCODESIZE ISZERO DUP1 ISZERO PUSH2 0x15C1 JUMPI PUSH1 0x0 DUP1 REVERT JUMPDEST POP GAS STATICCALL ISZERO DUP1 ISZERO PUSH2 0x15D5 JUMPI RETURNDATASIZE PUSH1 0x0 DUP1 RETURNDATACOPY RETURNDATASIZE PUSH1 0x0 REVERT JUMPDEST POP POP POP POP PUSH1 0x40 MLOAD RETURNDATASIZE PUSH1 0x1F NOT PUSH1 0x1F DUP3 ADD AND DUP3 ADD DUP1 PUSH1 0x40 MSTORE POP DUP2 ADD SWAP1 PUSH2 0x15F9 SWAP2 SWAP1 PUSH2 0x1CFB JUMP JUMPDEST PUSH20 0xFFFFFFFFFFFFFFFFFFFFFFFFFFFFFFFFFFFFFFFF AND PUSH4 0xBBE4F6DB DUP4 PUSH1 0x40 MLOAD DUP3 PUSH4 0xFFFFFFFF AND PUSH1 0xE0 SHL DUP2 MSTORE PUSH1 0x4 ADD PUSH2 0x1631 SWAP2 SWAP1 PUSH2 0x20C6 JUMP JUMPDEST PUSH1 0x20 PUSH1 0x40 MLOAD DUP1 DUP4 SUB DUP2 DUP7 DUP1 EXTCODESIZE ISZERO DUP1 ISZERO PUSH2 0x1649 JUMPI PUSH1 0x0 DUP1 REVERT JUMPDEST POP GAS STATICCALL ISZERO DUP1 ISZERO PUSH2 0x165D JUMPI RETURNDATASIZE PUSH1 0x0 DUP1 RETURNDATACOPY RETURNDATASIZE PUSH1 0x0 REVERT JUMPDEST POP POP POP POP PUSH1 0x40 MLOAD RETURNDATASIZE PUSH1 0x1F NOT PUSH1 0x1F DUP3 ADD AND DUP3 ADD DUP1 PUSH1 0x40 MSTORE POP DUP2 ADD SWAP1 PUSH2 0x1681 SWAP2 SWAP1 PUSH2 0x1CFB JUMP JUMPDEST SWAP1 POP SWAP2 SWAP1 POP JUMP JUMPDEST PUSH1 0x0 DUP1 PUSH2 0x1694 DUP5 PUSH2 0x1572 JUMP JUMPDEST SWAP1 POP PUSH1 0x0 DUP2 PUSH20 0xFFFFFFFFFFFFFFFFFFFFFFFFFFFFFFFFFFFFFFFF AND PUSH4 0x4864D140 PUSH1 0x40 MLOAD DUP2 PUSH4 0xFFFFFFFF AND PUSH1 0xE0 SHL DUP2 MSTORE PUSH1 0x4 ADD PUSH1 0x20 PUSH1 0x40 MLOAD DUP1 DUP4 SUB DUP2 DUP7 DUP1 EXTCODESIZE ISZERO DUP1 ISZERO PUSH2 0x16DE JUMPI PUSH1 0x0 DUP1 REVERT JUMPDEST POP GAS STATICCALL ISZERO DUP1 ISZERO PUSH2 0x16F2 JUMPI RETURNDATASIZE PUSH1 0x0 DUP1 RETURNDATACOPY RETURNDATASIZE PUSH1 0x0 REVERT JUMPDEST POP POP POP POP PUSH1 0x40 MLOAD RETURNDATASIZE PUSH1 0x1F NOT PUSH1 0x1F DUP3 ADD AND DUP3 ADD DUP1 PUSH1 0x40 MSTORE POP DUP2 ADD SWAP1 PUSH2 0x1716 SWAP2 SWAP1 PUSH2 0x1D89 JUMP JUMPDEST SWAP1 POP PUSH1 0x0 DUP3 PUSH20 0xFFFFFFFFFFFFFFFFFFFFFFFFFFFFFFFFFFFFFFFF AND PUSH4 0xEEC7FAA1 PUSH1 0x40 MLOAD DUP2 PUSH4 0xFFFFFFFF AND PUSH1 0xE0 SHL DUP2 MSTORE PUSH1 0x4 ADD PUSH1 0x20 PUSH1 0x40 MLOAD DUP1 DUP4 SUB DUP2 DUP7 DUP1 EXTCODESIZE ISZERO DUP1 ISZERO PUSH2 0x1760 JUMPI PUSH1 0x0 DUP1 REVERT JUMPDEST POP GAS STATICCALL ISZERO DUP1 ISZERO PUSH2 0x1774 JUMPI RETURNDATASIZE PUSH1 0x0 DUP1 RETURNDATACOPY RETURNDATASIZE PUSH1 0x0 REVERT JUMPDEST POP POP POP POP PUSH1 0x40 MLOAD RETURNDATASIZE PUSH1 0x1F NOT PUSH1 0x1F DUP3 ADD AND DUP3 ADD DUP1 PUSH1 0x40 MSTORE POP DUP2 ADD SWAP1 PUSH2 0x1798 SWAP2 SWAP1 PUSH2 0x1D89 JUMP JUMPDEST SWAP1 POP PUSH1 0x0 DUP2 GT PUSH2 0x17DD JUMPI PUSH1 0x40 MLOAD PUSH32 0x8C379A000000000000000000000000000000000000000000000000000000000 DUP2 MSTORE PUSH1 0x4 ADD PUSH2 0x17D4 SWAP1 PUSH2 0x20E1 JUMP JUMPDEST PUSH1 0x40 MLOAD DUP1 SWAP2 SUB SWAP1 REVERT JUMPDEST DUP1 DUP3 DUP7 PUSH2 0x17EA SWAP2 SWAP1 PUSH2 0x21F0 JUMP JUMPDEST PUSH2 0x17F4 SWAP2 SWAP1 PUSH2 0x21BF JUMP JUMPDEST SWAP4 POP POP POP POP SWAP3 SWAP2 POP POP JUMP JUMPDEST PUSH1 0x0 DUP1 DUP3 EQ ISZERO PUSH2 0x1811 JUMPI DUP6 SWAP1 POP PUSH2 0x1901 JUMP JUMPDEST PUSH1 0x0 PUSH2 0x181F DUP8 DUP8 DUP8 DUP8 PUSH2 0x4A4 JUMP JUMPDEST SWAP1 POP PUSH8 0xD99A8CEC7E20000 DUP2 GT PUSH2 0x1835 JUMPI PUSH1 0x0 DUP1 REVERT JUMPDEST PUSH1 0x0 DUP7 DUP7 PUSH2 0x1843 SWAP2 SWAP1 PUSH2 0x21F0 JUMP JUMPDEST SWAP1 POP PUSH1 0x0 DUP9 DUP7 PUSH2 0x1853 SWAP2 SWAP1 PUSH2 0x21F0 JUMP JUMPDEST SWAP1 POP PUSH1 0x0 PUSH1 0x2 DUP10 DUP9 PUSH2 0x1865 SWAP2 SWAP1 PUSH2 0x21F0 JUMP JUMPDEST PUSH2 0x186F SWAP2 SWAP1 PUSH2 0x21F0 JUMP JUMPDEST SWAP1 POP PUSH1 0x0 DUP2 GT PUSH2 0x18B4 JUMPI PUSH1 0x40 MLOAD PUSH32 0x8C379A000000000000000000000000000000000000000000000000000000000 DUP2 MSTORE PUSH1 0x4 ADD PUSH2 0x18AB SWAP1 PUSH2 0x20E1 JUMP JUMPDEST PUSH1 0x40 MLOAD DUP1 SWAP2 SUB SWAP1 REVERT JUMPDEST PUSH1 0x0 DUP2 DUP4 DUP6 PUSH2 0x18C3 SWAP2 SWAP1 PUSH2 0x2169 JUMP JUMPDEST DUP9 PUSH2 0x18CE SWAP2 SWAP1 PUSH2 0x21F0 JUMP JUMPDEST PUSH2 0x18D8 SWAP2 SWAP1 PUSH2 0x21BF JUMP JUMPDEST SWAP1 POP PUSH8 0xDE0B6B3A7640000 DUP6 DUP3 PUSH2 0x18EF SWAP2 SWAP1 PUSH2 0x21F0 JUMP JUMPDEST PUSH2 0x18F9 SWAP2 SWAP1 PUSH2 0x21BF JUMP JUMPDEST SWAP6 POP POP POP POP POP POP JUMPDEST SWAP6 SWAP5 POP POP POP POP POP JUMP JUMPDEST PUSH1 0x0 PUSH2 0x1A11 DUP3 DUP5 PUSH20 0xFFFFFFFFFFFFFFFFFFFFFFFFFFFFFFFFFFFFFFFF AND PUSH4 0x18160DDD PUSH1 0x40 MLOAD DUP2 PUSH4 0xFFFFFFFF AND PUSH1 0xE0 SHL DUP2 MSTORE PUSH1 0x4 ADD PUSH1 0x20 PUSH1 0x40 MLOAD DUP1 DUP4 SUB DUP2 DUP7 DUP1 EXTCODESIZE ISZERO DUP1 ISZERO PUSH2 0x1956 JUMPI PUSH1 0x0 DUP1 REVERT JUMPDEST POP GAS STATICCALL ISZERO DUP1 ISZERO PUSH2 0x196A JUMPI RETURNDATASIZE PUSH1 0x0 DUP1 RETURNDATACOPY RETURNDATASIZE PUSH1 0x0 REVERT JUMPDEST POP POP POP POP PUSH1 0x40 MLOAD RETURNDATASIZE PUSH1 0x1F NOT PUSH1 0x1F DUP3 ADD AND DUP3 ADD DUP1 PUSH1 0x40 MSTORE POP DUP2 ADD SWAP1 PUSH2 0x198E SWAP2 SWAP1 PUSH2 0x1D89 JUMP JUMPDEST DUP6 PUSH20 0xFFFFFFFFFFFFFFFFFFFFFFFFFFFFFFFFFFFFFFFF AND PUSH4 0x4864D140 PUSH1 0x40 MLOAD DUP2 PUSH4 0xFFFFFFFF AND PUSH1 0xE0 SHL DUP2 MSTORE PUSH1 0x4 ADD PUSH1 0x20 PUSH1 0x40 MLOAD DUP1 DUP4 SUB DUP2 DUP7 DUP1 EXTCODESIZE ISZERO DUP1 ISZERO PUSH2 0x19D4 JUMPI PUSH1 0x0 DUP1 REVERT JUMPDEST POP GAS STATICCALL ISZERO DUP1 ISZERO PUSH2 0x19E8 JUMPI RETURNDATASIZE PUSH1 0x0 DUP1 RETURNDATACOPY RETURNDATASIZE PUSH1 0x0 REVERT JUMPDEST POP POP POP POP PUSH1 0x40 MLOAD RETURNDATASIZE PUSH1 0x1F NOT PUSH1 0x1F DUP3 ADD AND DUP3 ADD DUP1 PUSH1 0x40 MSTORE POP DUP2 ADD SWAP1 PUSH2 0x1A0C SWAP2 SWAP1 PUSH2 0x1D89 JUMP JUMPDEST PUSH2 0x9A3 JUMP JUMPDEST SWAP1 POP SWAP3 SWAP2 POP POP JUMP JUMPDEST PUSH1 0x0 PUSH2 0x1A23 PUSH2 0x1B53 JUMP JUMPDEST PUSH20 0xFFFFFFFFFFFFFFFFFFFFFFFFFFFFFFFFFFFFFFFF AND PUSH4 0xB93EC54B PUSH1 0x40 MLOAD DUP2 PUSH4 0xFFFFFFFF AND PUSH1 0xE0 SHL DUP2 MSTORE PUSH1 0x4 ADD PUSH1 0x20 PUSH1 0x40 MLOAD DUP1 DUP4 SUB DUP2 DUP7 DUP1 EXTCODESIZE ISZERO DUP1 ISZERO PUSH2 0x1A68 JUMPI PUSH1 0x0 DUP1 REVERT JUMPDEST POP GAS STATICCALL ISZERO DUP1 ISZERO PUSH2 0x1A7C JUMPI RETURNDATASIZE PUSH1 0x0 DUP1 RETURNDATACOPY RETURNDATASIZE PUSH1 0x0 REVERT JUMPDEST POP POP POP POP PUSH1 0x40 MLOAD RETURNDATASIZE PUSH1 0x1F NOT PUSH1 0x1F DUP3 ADD AND DUP3 ADD DUP1 PUSH1 0x40 MSTORE POP DUP2 ADD SWAP1 PUSH2 0x1AA0 SWAP2 SWAP1 PUSH2 0x1CFB JUMP JUMPDEST PUSH20 0xFFFFFFFFFFFFFFFFFFFFFFFFFFFFFFFFFFFFFFFF AND PUSH4 0xDCEC8116 DUP4 PUSH1 0x40 MLOAD DUP3 PUSH4 0xFFFFFFFF AND PUSH1 0xE0 SHL DUP2 MSTORE PUSH1 0x4 ADD PUSH2 0x1AD8 SWAP2 SWAP1 PUSH2 0x20C6 JUMP JUMPDEST PUSH1 0x20 PUSH1 0x40 MLOAD DUP1 DUP4 SUB DUP2 DUP7 DUP1 EXTCODESIZE ISZERO DUP1 ISZERO PUSH2 0x1AF0 JUMPI PUSH1 0x0 DUP1 REVERT JUMPDEST POP GAS STATICCALL ISZERO DUP1 ISZERO PUSH2 0x1B04 JUMPI RETURNDATASIZE PUSH1 0x0 DUP1 RETURNDATACOPY RETURNDATASIZE PUSH1 0x0 REVERT JUMPDEST POP POP POP POP PUSH1 0x40 MLOAD RETURNDATASIZE PUSH1 0x1F NOT PUSH1 0x1F DUP3 ADD AND DUP3 ADD DUP1 PUSH1 0x40 MSTORE POP DUP2 ADD SWAP1 PUSH2 0x1B28 SWAP2 SWAP1 PUSH2 0x1CFB JUMP JUMPDEST SWAP1 POP SWAP2 SWAP1 POP JUMP JUMPDEST PUSH32 0x0 DUP2 JUMP JUMPDEST PUSH1 0x0 PUSH32 0x0 PUSH20 0xFFFFFFFFFFFFFFFFFFFFFFFFFFFFFFFFFFFFFFFF AND PUSH4 0x98FABD3A PUSH1 0x40 MLOAD DUP2 PUSH4 0xFFFFFFFF AND PUSH1 0xE0 SHL DUP2 MSTORE PUSH1 0x4 ADD PUSH1 0x20 PUSH1 0x40 MLOAD DUP1 DUP4 SUB DUP2 DUP7 DUP1 EXTCODESIZE ISZERO DUP1 ISZERO PUSH2 0x1BBB JUMPI PUSH1 0x0 DUP1 REVERT JUMPDEST POP GAS STATICCALL ISZERO DUP1 ISZERO PUSH2 0x1BCF JUMPI RETURNDATASIZE PUSH1 0x0 DUP1 RETURNDATACOPY RETURNDATASIZE PUSH1 0x0 REVERT JUMPDEST POP POP POP POP PUSH1 0x40 MLOAD RETURNDATASIZE PUSH1 0x1F NOT PUSH1 0x1F DUP3 ADD AND DUP3 ADD DUP1 PUSH1 0x40 MSTORE POP DUP2 ADD SWAP1 PUSH2 0x1BF3 SWAP2 SWAP1 PUSH2 0x1D60 JUMP JUMPDEST SWAP1 POP SWAP1 JUMP JUMPDEST PUSH1 0x40 MLOAD DUP1 PUSH2 0x100 ADD PUSH1 0x40 MSTORE DUP1 PUSH1 0x0 PUSH20 0xFFFFFFFFFFFFFFFFFFFFFFFFFFFFFFFFFFFFFFFF AND DUP2 MSTORE PUSH1 0x20 ADD PUSH1 0x0 PUSH20 0xFFFFFFFFFFFFFFFFFFFFFFFFFFFFFFFFFFFFFFFF AND DUP2 MSTORE PUSH1 0x20 ADD PUSH1 0x0 DUP2 MSTORE PUSH1 0x20 ADD PUSH1 0x0 DUP2 MSTORE PUSH1 0x20 ADD PUSH1 0x0 DUP2 MSTORE PUSH1 0x20 ADD PUSH1 0x0 DUP2 MSTORE PUSH1 0x20 ADD PUSH1 0x0 DUP2 MSTORE PUSH1 0x20 ADD PUSH1 0x0 DUP2 MSTORE POP SWAP1 JUMP JUMPDEST PUSH1 0x0 DUP2 CALLDATALOAD SWAP1 POP PUSH2 0x1C78 DUP2 PUSH2 0x237C JUMP JUMPDEST SWAP3 SWAP2 POP POP JUMP JUMPDEST PUSH1 0x0 DUP2 MLOAD SWAP1 POP PUSH2 0x1C8D DUP2 PUSH2 0x237C JUMP JUMPDEST SWAP3 SWAP2 POP POP JUMP JUMPDEST PUSH1 0x0 DUP2 MLOAD SWAP1 POP PUSH2 0x1CA2 DUP2 PUSH2 0x2393 JUMP JUMPDEST SWAP3 SWAP2 POP POP JUMP JUMPDEST PUSH1 0x0 DUP2 CALLDATALOAD SWAP1 POP PUSH2 0x1CB7 DUP2 PUSH2 0x23AA JUMP JUMPDEST SWAP3 SWAP2 POP POP JUMP JUMPDEST PUSH1 0x0 DUP2 MLOAD SWAP1 POP PUSH2 0x1CCC DUP2 PUSH2 0x23AA JUMP JUMPDEST SWAP3 SWAP2 POP POP JUMP JUMPDEST PUSH1 0x0 PUSH1 0x20 DUP3 DUP5 SUB SLT ISZERO PUSH2 0x1CE4 JUMPI PUSH1 0x0 DUP1 REVERT JUMPDEST PUSH1 0x0 PUSH2 0x1CF2 DUP5 DUP3 DUP6 ADD PUSH2 0x1C69 JUMP JUMPDEST SWAP2 POP POP SWAP3 SWAP2 POP POP JUMP JUMPDEST PUSH1 0x0 PUSH1 0x20 DUP3 DUP5 SUB SLT ISZERO PUSH2 0x1D0D JUMPI PUSH1 0x0 DUP1 REVERT JUMPDEST PUSH1 0x0 PUSH2 0x1D1B DUP5 DUP3 DUP6 ADD PUSH2 0x1C7E JUMP JUMPDEST SWAP2 POP POP SWAP3 SWAP2 POP POP JUMP JUMPDEST PUSH1 0x0 DUP1 PUSH1 0x40 DUP4 DUP6 SUB SLT ISZERO PUSH2 0x1D37 JUMPI PUSH1 0x0 DUP1 REVERT JUMPDEST PUSH1 0x0 PUSH2 0x1D45 DUP6 DUP3 DUP7 ADD PUSH2 0x1C69 JUMP JUMPDEST SWAP3 POP POP PUSH1 0x20 PUSH2 0x1D56 DUP6 DUP3 DUP7 ADD PUSH2 0x1CA8 JUMP JUMPDEST SWAP2 POP POP SWAP3 POP SWAP3 SWAP1 POP JUMP JUMPDEST PUSH1 0x0 PUSH1 0x20 DUP3 DUP5 SUB SLT ISZERO PUSH2 0x1D72 JUMPI PUSH1 0x0 DUP1 REVERT JUMPDEST PUSH1 0x0 PUSH2 0x1D80 DUP5 DUP3 DUP6 ADD PUSH2 0x1C93 JUMP JUMPDEST SWAP2 POP POP SWAP3 SWAP2 POP POP JUMP JUMPDEST PUSH1 0x0 PUSH1 0x20 DUP3 DUP5 SUB SLT ISZERO PUSH2 0x1D9B JUMPI PUSH1 0x0 DUP1 REVERT JUMPDEST PUSH1 0x0 PUSH2 0x1DA9 DUP5 DUP3 DUP6 ADD PUSH2 0x1CBD JUMP JUMPDEST SWAP2 POP POP SWAP3 SWAP2 POP POP JUMP JUMPDEST PUSH1 0x0 DUP1 PUSH1 0x40 DUP4 DUP6 SUB SLT ISZERO PUSH2 0x1DC5 JUMPI PUSH1 0x0 DUP1 REVERT JUMPDEST PUSH1 0x0 PUSH2 0x1DD3 DUP6 DUP3 DUP7 ADD PUSH2 0x1CA8 JUMP JUMPDEST SWAP3 POP POP PUSH1 0x20 PUSH2 0x1DE4 DUP6 DUP3 DUP7 ADD PUSH2 0x1C69 JUMP JUMPDEST SWAP2 POP POP SWAP3 POP SWAP3 SWAP1 POP JUMP JUMPDEST PUSH1 0x0 DUP1 PUSH1 0x0 PUSH1 0x60 DUP5 DUP7 SUB SLT ISZERO PUSH2 0x1E03 JUMPI PUSH1 0x0 DUP1 REVERT JUMPDEST PUSH1 0x0 PUSH2 0x1E11 DUP7 DUP3 DUP8 ADD PUSH2 0x1CA8 JUMP JUMPDEST SWAP4 POP POP PUSH1 0x20 PUSH2 0x1E22 DUP7 DUP3 DUP8 ADD PUSH2 0x1C69 JUMP JUMPDEST SWAP3 POP POP PUSH1 0x40 PUSH2 0x1E33 DUP7 DUP3 DUP8 ADD PUSH2 0x1C69 JUMP JUMPDEST SWAP2 POP POP SWAP3 POP SWAP3 POP SWAP3 JUMP JUMPDEST PUSH1 0x0 DUP1 PUSH1 0x40 DUP4 DUP6 SUB SLT ISZERO PUSH2 0x1E50 JUMPI PUSH1 0x0 DUP1 REVERT JUMPDEST PUSH1 0x0 PUSH2 0x1E5E DUP6 DUP3 DUP7 ADD PUSH2 0x1CA8 JUMP JUMPDEST SWAP3 POP POP PUSH1 0x20 PUSH2 0x1E6F DUP6 DUP3 DUP7 ADD PUSH2 0x1CA8 JUMP JUMPDEST SWAP2 POP POP SWAP3 POP SWAP3 SWAP1 POP JUMP JUMPDEST PUSH1 0x0 DUP1 PUSH1 0x0 PUSH1 0x60 DUP5 DUP7 SUB SLT ISZERO PUSH2 0x1E8E JUMPI PUSH1 0x0 DUP1 REVERT JUMPDEST PUSH1 0x0 PUSH2 0x1E9C DUP7 DUP3 DUP8 ADD PUSH2 0x1CA8 JUMP JUMPDEST SWAP4 POP POP PUSH1 0x20 PUSH2 0x1EAD DUP7 DUP3 DUP8 ADD PUSH2 0x1CA8 JUMP JUMPDEST SWAP3 POP POP PUSH1 0x40 PUSH2 0x1EBE DUP7 DUP3 DUP8 ADD PUSH2 0x1CA8 JUMP JUMPDEST SWAP2 POP POP SWAP3 POP SWAP3 POP SWAP3 JUMP JUMPDEST PUSH1 0x0 DUP1 PUSH1 0x0 DUP1 PUSH1 0x80 DUP6 DUP8 SUB SLT ISZERO PUSH2 0x1EDE JUMPI PUSH1 0x0 DUP1 REVERT JUMPDEST PUSH1 0x0 PUSH2 0x1EEC DUP8 DUP3 DUP9 ADD PUSH2 0x1CA8 JUMP JUMPDEST SWAP5 POP POP PUSH1 0x20 PUSH2 0x1EFD DUP8 DUP3 DUP9 ADD PUSH2 0x1CA8 JUMP JUMPDEST SWAP4 POP POP PUSH1 0x40 PUSH2 0x1F0E DUP8 DUP3 DUP9 ADD PUSH2 0x1CA8 JUMP JUMPDEST SWAP3 POP POP PUSH1 0x60 PUSH2 0x1F1F DUP8 DUP3 DUP9 ADD PUSH2 0x1CA8 JUMP JUMPDEST SWAP2 POP POP SWAP3 SWAP6 SWAP2 SWAP5 POP SWAP3 POP JUMP JUMPDEST PUSH1 0x0 DUP1 PUSH1 0x0 DUP1 PUSH1 0x0 PUSH1 0xA0 DUP7 DUP9 SUB SLT ISZERO PUSH2 0x1F43 JUMPI PUSH1 0x0 DUP1 REVERT JUMPDEST PUSH1 0x0 PUSH2 0x1F51 DUP9 DUP3 DUP10 ADD PUSH2 0x1CA8 JUMP JUMPDEST SWAP6 POP POP PUSH1 0x20 PUSH2 0x1F62 DUP9 DUP3 DUP10 ADD PUSH2 0x1CA8 JUMP JUMPDEST SWAP5 POP POP PUSH1 0x40 PUSH2 0x1F73 DUP9 DUP3 DUP10 ADD PUSH2 0x1CA8 JUMP JUMPDEST SWAP4 POP POP PUSH1 0x60 PUSH2 0x1F84 DUP9 DUP3 DUP10 ADD PUSH2 0x1CA8 JUMP JUMPDEST SWAP3 POP POP PUSH1 0x80 PUSH2 0x1F95 DUP9 DUP3 DUP10 ADD PUSH2 0x1CA8 JUMP JUMPDEST SWAP2 POP POP SWAP3 SWAP6 POP SWAP3 SWAP6 SWAP1 SWAP4 POP JUMP JUMPDEST PUSH2 0x1FAB DUP2 PUSH2 0x227E JUMP JUMPDEST DUP3 MSTORE POP POP JUMP JUMPDEST PUSH2 0x1FBA DUP2 PUSH2 0x227E JUMP JUMPDEST DUP3 MSTORE POP POP JUMP JUMPDEST PUSH1 0x0 PUSH2 0x1FCD PUSH1 0x9 DUP4 PUSH2 0x2158 JUMP JUMPDEST SWAP2 POP PUSH2 0x1FD8 DUP3 PUSH2 0x232A JUMP JUMPDEST PUSH1 0x20 DUP3 ADD SWAP1 POP SWAP2 SWAP1 POP JUMP JUMPDEST PUSH1 0x0 PUSH2 0x1FF0 PUSH1 0x3 DUP4 PUSH2 0x2158 JUMP JUMPDEST SWAP2 POP PUSH2 0x1FFB DUP3 PUSH2 0x2353 JUMP JUMPDEST PUSH1 0x20 DUP3 ADD SWAP1 POP SWAP2 SWAP1 POP JUMP JUMPDEST PUSH2 0x100 DUP3 ADD PUSH1 0x0 DUP3 ADD MLOAD PUSH2 0x201D PUSH1 0x0 DUP6 ADD DUP3 PUSH2 0x1FA2 JUMP JUMPDEST POP PUSH1 0x20 DUP3 ADD MLOAD PUSH2 0x2030 PUSH1 0x20 DUP6 ADD DUP3 PUSH2 0x1FA2 JUMP JUMPDEST POP PUSH1 0x40 DUP3 ADD MLOAD PUSH2 0x2043 PUSH1 0x40 DUP6 ADD DUP3 PUSH2 0x20A8 JUMP JUMPDEST POP PUSH1 0x60 DUP3 ADD MLOAD PUSH2 0x2056 PUSH1 0x60 DUP6 ADD DUP3 PUSH2 0x20A8 JUMP JUMPDEST POP PUSH1 0x80 DUP3 ADD MLOAD PUSH2 0x2069 PUSH1 0x80 DUP6 ADD DUP3 PUSH2 0x20A8 JUMP JUMPDEST POP PUSH1 0xA0 DUP3 ADD MLOAD PUSH2 0x207C PUSH1 0xA0 DUP6 ADD DUP3 PUSH2 0x20A8 JUMP JUMPDEST POP PUSH1 0xC0 DUP3 ADD MLOAD PUSH2 0x208F PUSH1 0xC0 DUP6 ADD DUP3 PUSH2 0x20A8 JUMP JUMPDEST POP PUSH1 0xE0 DUP3 ADD MLOAD PUSH2 0x20A2 PUSH1 0xE0 DUP6 ADD DUP3 PUSH2 0x20A8 JUMP JUMPDEST POP POP POP POP JUMP JUMPDEST PUSH2 0x20B1 DUP2 PUSH2 0x22C2 JUMP JUMPDEST DUP3 MSTORE POP POP JUMP JUMPDEST PUSH2 0x20C0 DUP2 PUSH2 0x22C2 JUMP JUMPDEST DUP3 MSTORE POP POP JUMP JUMPDEST PUSH1 0x0 PUSH1 0x20 DUP3 ADD SWAP1 POP PUSH2 0x20DB PUSH1 0x0 DUP4 ADD DUP5 PUSH2 0x1FB1 JUMP JUMPDEST SWAP3 SWAP2 POP POP JUMP JUMPDEST PUSH1 0x0 PUSH1 0x20 DUP3 ADD SWAP1 POP DUP2 DUP2 SUB PUSH1 0x0 DUP4 ADD MSTORE PUSH2 0x20FA DUP2 PUSH2 0x1FC0 JUMP JUMPDEST SWAP1 POP SWAP2 SWAP1 POP JUMP JUMPDEST PUSH1 0x0 PUSH1 0x20 DUP3 ADD SWAP1 POP DUP2 DUP2 SUB PUSH1 0x0 DUP4 ADD MSTORE PUSH2 0x211A DUP2 PUSH2 0x1FE3 JUMP JUMPDEST SWAP1 POP SWAP2 SWAP1 POP JUMP JUMPDEST PUSH1 0x0 PUSH2 0x100 DUP3 ADD SWAP1 POP PUSH2 0x2137 PUSH1 0x0 DUP4 ADD DUP5 PUSH2 0x2006 JUMP JUMPDEST SWAP3 SWAP2 POP POP JUMP JUMPDEST PUSH1 0x0 PUSH1 0x20 DUP3 ADD SWAP1 POP PUSH2 0x2152 PUSH1 0x0 DUP4 ADD DUP5 PUSH2 0x20B7 JUMP JUMPDEST SWAP3 SWAP2 POP POP JUMP JUMPDEST PUSH1 0x0 DUP3 DUP3 MSTORE PUSH1 0x20 DUP3 ADD SWAP1 POP SWAP3 SWAP2 POP POP JUMP JUMPDEST PUSH1 0x0 PUSH2 0x2174 DUP3 PUSH2 0x22C2 JUMP JUMPDEST SWAP2 POP PUSH2 0x217F DUP4 PUSH2 0x22C2 JUMP JUMPDEST SWAP3 POP DUP3 PUSH32 0xFFFFFFFFFFFFFFFFFFFFFFFFFFFFFFFFFFFFFFFFFFFFFFFFFFFFFFFFFFFFFFFF SUB DUP3 GT ISZERO PUSH2 0x21B4 JUMPI PUSH2 0x21B3 PUSH2 0x22CC JUMP JUMPDEST JUMPDEST DUP3 DUP3 ADD SWAP1 POP SWAP3 SWAP2 POP POP JUMP JUMPDEST PUSH1 0x0 PUSH2 0x21CA DUP3 PUSH2 0x22C2 JUMP JUMPDEST SWAP2 POP PUSH2 0x21D5 DUP4 PUSH2 0x22C2 JUMP JUMPDEST SWAP3 POP DUP3 PUSH2 0x21E5 JUMPI PUSH2 0x21E4 PUSH2 0x22FB JUMP JUMPDEST JUMPDEST DUP3 DUP3 DIV SWAP1 POP SWAP3 SWAP2 POP POP JUMP JUMPDEST PUSH1 0x0 PUSH2 0x21FB DUP3 PUSH2 0x22C2 JUMP JUMPDEST SWAP2 POP PUSH2 0x2206 DUP4 PUSH2 0x22C2 JUMP JUMPDEST SWAP3 POP DUP2 PUSH32 0xFFFFFFFFFFFFFFFFFFFFFFFFFFFFFFFFFFFFFFFFFFFFFFFFFFFFFFFFFFFFFFFF DIV DUP4 GT DUP3 ISZERO ISZERO AND ISZERO PUSH2 0x223F JUMPI PUSH2 0x223E PUSH2 0x22CC JUMP JUMPDEST JUMPDEST DUP3 DUP3 MUL SWAP1 POP SWAP3 SWAP2 POP POP JUMP JUMPDEST PUSH1 0x0 PUSH2 0x2255 DUP3 PUSH2 0x22C2 JUMP JUMPDEST SWAP2 POP PUSH2 0x2260 DUP4 PUSH2 0x22C2 JUMP JUMPDEST SWAP3 POP DUP3 DUP3 LT ISZERO PUSH2 0x2273 JUMPI PUSH2 0x2272 PUSH2 0x22CC JUMP JUMPDEST JUMPDEST DUP3 DUP3 SUB SWAP1 POP SWAP3 SWAP2 POP POP JUMP JUMPDEST PUSH1 0x0 PUSH2 0x2289 DUP3 PUSH2 0x22A2 JUMP JUMPDEST SWAP1 POP SWAP2 SWAP1 POP JUMP JUMPDEST PUSH1 0x0 PUSH2 0x229B DUP3 PUSH2 0x227E JUMP JUMPDEST SWAP1 POP SWAP2 SWAP1 POP JUMP JUMPDEST PUSH1 0x0 PUSH20 0xFFFFFFFFFFFFFFFFFFFFFFFFFFFFFFFFFFFFFFFF DUP3 AND SWAP1 POP SWAP2 SWAP1 POP JUMP JUMPDEST PUSH1 0x0 DUP2 SWAP1 POP SWAP2 SWAP1 POP JUMP JUMPDEST PUSH32 0x4E487B7100000000000000000000000000000000000000000000000000000000 PUSH1 0x0 MSTORE PUSH1 0x11 PUSH1 0x4 MSTORE PUSH1 0x24 PUSH1 0x0 REVERT JUMPDEST PUSH32 0x4E487B7100000000000000000000000000000000000000000000000000000000 PUSH1 0x0 MSTORE PUSH1 0x12 PUSH1 0x4 MSTORE PUSH1 0x24 PUSH1 0x0 REVERT JUMPDEST PUSH32 0x214449564953494F4E0000000000000000000000000000000000000000000000 PUSH1 0x0 DUP3 ADD MSTORE POP JUMP JUMPDEST PUSH32 0x2162700000000000000000000000000000000000000000000000000000000000 PUSH1 0x0 DUP3 ADD MSTORE POP JUMP JUMPDEST PUSH2 0x2385 DUP2 PUSH2 0x227E JUMP JUMPDEST DUP2 EQ PUSH2 0x2390 JUMPI PUSH1 0x0 DUP1 REVERT JUMPDEST POP JUMP JUMPDEST PUSH2 0x239C DUP2 PUSH2 0x2290 JUMP JUMPDEST DUP2 EQ PUSH2 0x23A7 JUMPI PUSH1 0x0 DUP1 REVERT JUMPDEST POP JUMP JUMPDEST PUSH2 0x23B3 DUP2 PUSH2 0x22C2 JUMP JUMPDEST DUP2 EQ PUSH2 0x23BE JUMPI PUSH1 0x0 DUP1 REVERT JUMPDEST POP JUMP INVALID LOG2 PUSH5 0x6970667358 0x22 SLT KECCAK256 0xE2 0xA5 AND DUP15 0xE9 REVERT RETURNDATASIZE 0xCC 0xBD PUSH2 0x6A21 0xC4 0xD2 0x4B PC 0xEF COINBASE PUSH11 0xFE824392C7ED485E09EAD2 0xAB LOG0 PUSH5 0x736F6C6343 STOP ADDMOD SUB STOP CALLER "
        },
        "methodIdentifiers": {
          "BASE()": "ec342ad0",
          "calcActualSynthUnits(address,uint256)": "6c5054d0",
          "calcLiquidityHoldings(uint256,address,address)": "5a7b2ed3",
          "calcLiquidityUnits(uint256,uint256,uint256,uint256,uint256)": "c5c11ee9",
          "calcLiquidityUnitsAsym(uint256,address)": "b86a82ef",
          "calcPart(uint256,uint256)": "714270ab",
          "calcShare(uint256,uint256,uint256)": "1ba326c4",
          "calcSpotValueInBase(address,uint256)": "c19387df",
          "calcSpotValueInBaseWithSynth(address,uint256)": "48c0fd8f",
          "calcSwapFee(uint256,uint256,uint256)": "896a708c",
          "calcSwapOutput(uint256,uint256,uint256)": "701baaf3",
          "calcSwapValueInBase(address,uint256)": "b80e44b8",
          "calcSwapValueInToken(address,uint256)": "5f2c12e8",
          "getFeeOnTransfer(uint256,uint256)": "8b18b115",
          "getPool(address)": "bbe4f6db",
          "getPoolData(address)": "13d21cdf",
          "getPoolShareWeight(address,uint256)": "ca2e5b65",
          "getSlipAdjustment(uint256,uint256,uint256,uint256)": "02bf4bf8",
          "getSynth(address)": "dcec8116"
        }
      }
    }
  }
}