{
  "contracts/Utils.sol": {
    "Utils": {
      "abi": [
        {
          "inputs": [
            {
              "internalType": "address",
              "name": "_base",
              "type": "address"
            }
          ],
          "stateMutability": "nonpayable",
          "type": "constructor"
        },
        {
          "inputs": [],
          "name": "BASE",
          "outputs": [
            {
              "internalType": "address",
              "name": "",
              "type": "address"
            }
          ],
          "stateMutability": "view",
          "type": "function"
        },
        {
          "inputs": [
            {
              "internalType": "uint256",
              "name": "units",
              "type": "uint256"
            },
            {
              "internalType": "address",
              "name": "token",
              "type": "address"
            },
            {
              "internalType": "address",
              "name": "pool",
              "type": "address"
            }
          ],
          "name": "calcLiquidityHoldings",
          "outputs": [
            {
              "internalType": "uint256",
              "name": "share",
              "type": "uint256"
            }
          ],
          "stateMutability": "view",
          "type": "function"
        },
        {
          "inputs": [
            {
              "internalType": "uint256",
              "name": "b",
              "type": "uint256"
            },
            {
              "internalType": "uint256",
              "name": "B",
              "type": "uint256"
            },
            {
              "internalType": "uint256",
              "name": "t",
              "type": "uint256"
            },
            {
              "internalType": "uint256",
              "name": "T",
              "type": "uint256"
            },
            {
              "internalType": "uint256",
              "name": "P",
              "type": "uint256"
            }
          ],
          "name": "calcLiquidityUnits",
          "outputs": [
            {
              "internalType": "uint256",
              "name": "units",
              "type": "uint256"
            }
          ],
          "stateMutability": "view",
          "type": "function"
        },
        {
          "inputs": [
            {
              "internalType": "uint256",
              "name": "bp",
              "type": "uint256"
            },
            {
              "internalType": "uint256",
              "name": "total",
              "type": "uint256"
            }
          ],
          "name": "calcPart",
          "outputs": [
            {
              "internalType": "uint256",
              "name": "",
              "type": "uint256"
            }
          ],
          "stateMutability": "pure",
          "type": "function"
        },
        {
          "inputs": [
            {
              "internalType": "uint256",
              "name": "part",
              "type": "uint256"
            },
            {
              "internalType": "uint256",
              "name": "total",
              "type": "uint256"
            },
            {
              "internalType": "uint256",
              "name": "amount",
              "type": "uint256"
            }
          ],
          "name": "calcShare",
          "outputs": [
            {
              "internalType": "uint256",
              "name": "share",
              "type": "uint256"
            }
          ],
          "stateMutability": "pure",
          "type": "function"
        },
        {
          "inputs": [
            {
              "internalType": "uint256",
              "name": "totalSupply",
              "type": "uint256"
            },
            {
              "internalType": "uint256",
              "name": "maxSupply",
              "type": "uint256"
            }
          ],
          "name": "getFeeOnTransfer",
          "outputs": [
            {
              "internalType": "uint256",
              "name": "",
              "type": "uint256"
            }
          ],
          "stateMutability": "pure",
          "type": "function"
        },
        {
          "inputs": [
            {
              "internalType": "address",
              "name": "token",
              "type": "address"
            }
          ],
          "name": "getPoolData",
          "outputs": [
            {
              "components": [
                {
                  "internalType": "address",
                  "name": "tokenAddress",
                  "type": "address"
                },
                {
                  "internalType": "address",
                  "name": "poolAddress",
                  "type": "address"
                },
                {
                  "internalType": "uint256",
                  "name": "genesis",
                  "type": "uint256"
                },
                {
                  "internalType": "uint256",
                  "name": "baseAmount",
                  "type": "uint256"
                },
                {
                  "internalType": "uint256",
                  "name": "tokenAmount",
                  "type": "uint256"
                },
                {
                  "internalType": "uint256",
                  "name": "fees",
                  "type": "uint256"
                },
                {
                  "internalType": "uint256",
                  "name": "volume",
                  "type": "uint256"
                },
                {
                  "internalType": "uint256",
                  "name": "txCount",
                  "type": "uint256"
                },
                {
                  "internalType": "uint256",
                  "name": "poolUnits",
                  "type": "uint256"
                }
              ],
              "internalType": "struct Utils.PoolDataStruct",
              "name": "poolData",
              "type": "tuple"
            }
          ],
          "stateMutability": "view",
          "type": "function"
        },
        {
          "inputs": [
            {
              "internalType": "uint256",
              "name": "b",
              "type": "uint256"
            },
            {
              "internalType": "uint256",
              "name": "B",
              "type": "uint256"
            },
            {
              "internalType": "uint256",
              "name": "t",
              "type": "uint256"
            },
            {
              "internalType": "uint256",
              "name": "T",
              "type": "uint256"
            }
          ],
          "name": "getSlipAdustment",
          "outputs": [
            {
              "internalType": "uint256",
              "name": "slipAdjustment",
              "type": "uint256"
            }
          ],
          "stateMutability": "view",
          "type": "function"
        },
        {
          "inputs": [],
          "name": "one",
          "outputs": [
            {
              "internalType": "uint256",
              "name": "",
              "type": "uint256"
            }
          ],
          "stateMutability": "view",
          "type": "function"
        }
      ],
      "evm": {
        "bytecode": {
          "linkReferences": {},
          "object": "6080604052670de0b6b3a76400006001553480156200001d57600080fd5b506040516200131a3803806200131a8339818101604052810190620000439190620000a1565b806000806101000a81548173ffffffffffffffffffffffffffffffffffffffff021916908373ffffffffffffffffffffffffffffffffffffffff160217905550506200011b565b6000815190506200009b8162000101565b92915050565b600060208284031215620000b457600080fd5b6000620000c4848285016200008a565b91505092915050565b6000620000da82620000e1565b9050919050565b600073ffffffffffffffffffffffffffffffffffffffff82169050919050565b6200010c81620000cd565b81146200011857600080fd5b50565b6111ef806200012b6000396000f3fe608060405234801561001057600080fd5b50600436106100935760003560e01c8063714270ab11610066578063714270ab146101585780638b18b11514610188578063901717d1146101b8578063c5c11ee9146101d6578063ec342ad01461020657610093565b806313d21cdf146100985780631ba326c4146100c85780635a7b2ed3146100f85780636da0f1fc14610128575b600080fd5b6100b260048036038101906100ad9190610b99565b610224565b6040516100bf9190610f42565b60405180910390f35b6100e260048036038101906100dd9190610cc8565b6105d0565b6040516100ef9190610f5e565b60405180910390f35b610112600480360381019061010d9190610c3d565b610608565b60405161011f9190610f5e565b60405180910390f35b610142600480360381019061013d9190610d17565b610809565b60405161014f9190610f5e565b60405180910390f35b610172600480360381019061016d9190610c8c565b6108c8565b60405161017f9190610f5e565b60405180910390f35b6101a2600480360381019061019d9190610c8c565b610924565b6040516101af9190610f5e565b60405180910390f35b6101c061093a565b6040516101cd9190610f5e565b60405180910390f35b6101f060048036038101906101eb9190610d7a565b610940565b6040516101fd9190610f5e565b60405180910390f35b61020e6109ee565b60405161021b9190610f07565b60405180910390f35b61022c610ab8565b6000610236610a12565b73ffffffffffffffffffffffffffffffffffffffff1663b99b0a0c6040518163ffffffff1660e01b815260040160206040518083038186803b15801561027b57600080fd5b505afa15801561028f573d6000803e3d6000fd5b505050506040513d601f19601f820116820180604052508101906102b39190610bc2565b73ffffffffffffffffffffffffffffffffffffffff1663bbe4f6db846040518263ffffffff1660e01b81526004016102eb9190610f07565b60206040518083038186803b15801561030357600080fd5b505afa158015610317573d6000803e3d6000fd5b505050506040513d601f19601f8201168201806040525081019061033b9190610bc2565b905080826020019073ffffffffffffffffffffffffffffffffffffffff16908173ffffffffffffffffffffffffffffffffffffffff168152505082826000019073ffffffffffffffffffffffffffffffffffffffff16908173ffffffffffffffffffffffffffffffffffffffff16815250508073ffffffffffffffffffffffffffffffffffffffff1663a7f0b3de6040518163ffffffff1660e01b815260040160206040518083038186803b1580156103f357600080fd5b505afa158015610407573d6000803e3d6000fd5b505050506040513d601f19601f8201168201806040525081019061042b9190610c14565b8260400181815250508073ffffffffffffffffffffffffffffffffffffffff16634864d1406040518163ffffffff1660e01b815260040160206040518083038186803b15801561047a57600080fd5b505afa15801561048e573d6000803e3d6000fd5b505050506040513d601f19601f820116820180604052508101906104b29190610c14565b8260600181815250508073ffffffffffffffffffffffffffffffffffffffff1663eec7faa16040518163ffffffff1660e01b815260040160206040518083038186803b15801561050157600080fd5b505afa158015610515573d6000803e3d6000fd5b505050506040513d601f19601f820116820180604052508101906105399190610c14565b8260800181815250508073ffffffffffffffffffffffffffffffffffffffff166318160ddd6040518163ffffffff1660e01b815260040160206040518083038186803b15801561058857600080fd5b505afa15801561059c573d6000803e3d6000fd5b505050506040513d601f19601f820116820180604052508101906105c09190610c14565b8261010001818152505050919050565b6000828411156105de578293505b6000831115610601578284836105f49190611011565b6105fe9190610fe0565b90505b9392505050565b60008060008054906101000a900473ffffffffffffffffffffffffffffffffffffffff1673ffffffffffffffffffffffffffffffffffffffff168473ffffffffffffffffffffffffffffffffffffffff1614156106e4578273ffffffffffffffffffffffffffffffffffffffff16634864d1406040518163ffffffff1660e01b815260040160206040518083038186803b1580156106a557600080fd5b505afa1580156106b9573d6000803e3d6000fd5b505050506040513d601f19601f820116820180604052508101906106dd9190610c14565b9050610765565b8273ffffffffffffffffffffffffffffffffffffffff1663eec7faa16040518163ffffffff1660e01b815260040160206040518083038186803b15801561072a57600080fd5b505afa15801561073e573d6000803e3d6000fd5b505050506040513d601f19601f820116820180604052508101906107629190610c14565b90505b60008373ffffffffffffffffffffffffffffffffffffffff166318160ddd6040518163ffffffff1660e01b815260040160206040518083038186803b1580156107ad57600080fd5b505afa1580156107c1573d6000803e3d6000fd5b505050506040513d601f19601f820116820180604052508101906107e59190610c14565b90508086836107f49190611011565b6107fe9190610fe0565b925050509392505050565b60008083856108189190611011565b9050600083876108289190611011565b905060008660028961083a9190611011565b6108449190610f8a565b9050600085876108549190610f8a565b905060008385111561087357838561086c919061106b565b9050610882565b848461087f919061106b565b90505b600082846108909190611011565b905080600154836108a19190611011565b6108ab9190610fe0565b6001546108b8919061106b565b9650505050505050949350505050565b600061271083111561090f576040517f08c379a000000000000000000000000000000000000000000000000000000000815260040161090690610f22565b60405180910390fd5b61091c83612710846105d0565b905092915050565b6000610932838360646105d0565b905092915050565b60015481565b600080821415610952578590506109e5565b600061096087878787610809565b9050600086866109709190611011565b9050600088866109809190611011565b90506000600289886109929190611011565b61099c9190611011565b905060008183856109ad9190610f8a565b886109b89190611011565b6109c29190610fe0565b905060015485826109d39190611011565b6109dd9190610fe0565b955050505050505b95945050505050565b60008054906101000a900473ffffffffffffffffffffffffffffffffffffffff1681565b60008060009054906101000a900473ffffffffffffffffffffffffffffffffffffffff1673ffffffffffffffffffffffffffffffffffffffff166398fabd3a6040518163ffffffff1660e01b815260040160206040518083038186803b158015610a7b57600080fd5b505afa158015610a8f573d6000803e3d6000fd5b505050506040513d601f19601f82011682018060405250810190610ab39190610beb565b905090565b604051806101200160405280600073ffffffffffffffffffffffffffffffffffffffff168152602001600073ffffffffffffffffffffffffffffffffffffffff168152602001600081526020016000815260200160008152602001600081526020016000815260200160008152602001600081525090565b600081359050610b3f81611174565b92915050565b600081519050610b5481611174565b92915050565b600081519050610b698161118b565b92915050565b600081359050610b7e816111a2565b92915050565b600081519050610b93816111a2565b92915050565b600060208284031215610bab57600080fd5b6000610bb984828501610b30565b91505092915050565b600060208284031215610bd457600080fd5b6000610be284828501610b45565b91505092915050565b600060208284031215610bfd57600080fd5b6000610c0b84828501610b5a565b91505092915050565b600060208284031215610c2657600080fd5b6000610c3484828501610b84565b91505092915050565b600080600060608486031215610c5257600080fd5b6000610c6086828701610b6f565b9350506020610c7186828701610b30565b9250506040610c8286828701610b30565b9150509250925092565b60008060408385031215610c9f57600080fd5b6000610cad85828601610b6f565b9250506020610cbe85828601610b6f565b9150509250929050565b600080600060608486031215610cdd57600080fd5b6000610ceb86828701610b6f565b9350506020610cfc86828701610b6f565b9250506040610d0d86828701610b6f565b9150509250925092565b60008060008060808587031215610d2d57600080fd5b6000610d3b87828801610b6f565b9450506020610d4c87828801610b6f565b9350506040610d5d87828801610b6f565b9250506060610d6e87828801610b6f565b91505092959194509250565b600080600080600060a08688031215610d9257600080fd5b6000610da088828901610b6f565b9550506020610db188828901610b6f565b9450506040610dc288828901610b6f565b9350506060610dd388828901610b6f565b9250506080610de488828901610b6f565b9150509295509295909350565b610dfa8161109f565b82525050565b610e098161109f565b82525050565b6000610e1c601283610f79565b9150610e278261114b565b602082019050919050565b61012082016000820151610e496000850182610df1565b506020820151610e5c6020850182610df1565b506040820151610e6f6040850182610ee9565b506060820151610e826060850182610ee9565b506080820151610e956080850182610ee9565b5060a0820151610ea860a0850182610ee9565b5060c0820151610ebb60c0850182610ee9565b5060e0820151610ece60e0850182610ee9565b50610100820151610ee3610100850182610ee9565b50505050565b610ef2816110e3565b82525050565b610f01816110e3565b82525050565b6000602082019050610f1c6000830184610e00565b92915050565b60006020820190508181036000830152610f3b81610e0f565b9050919050565b600061012082019050610f586000830184610e32565b92915050565b6000602082019050610f736000830184610ef8565b92915050565b600082825260208201905092915050565b6000610f95826110e3565b9150610fa0836110e3565b9250827fffffffffffffffffffffffffffffffffffffffffffffffffffffffffffffffff03821115610fd557610fd46110ed565b5b828201905092915050565b6000610feb826110e3565b9150610ff6836110e3565b9250826110065761100561111c565b5b828204905092915050565b600061101c826110e3565b9150611027836110e3565b9250817fffffffffffffffffffffffffffffffffffffffffffffffffffffffffffffffff04831182151516156110605761105f6110ed565b5b828202905092915050565b6000611076826110e3565b9150611081836110e3565b925082821015611094576110936110ed565b5b828203905092915050565b60006110aa826110c3565b9050919050565b60006110bc8261109f565b9050919050565b600073ffffffffffffffffffffffffffffffffffffffff82169050919050565b6000819050919050565b7f4e487b7100000000000000000000000000000000000000000000000000000000600052601160045260246000fd5b7f4e487b7100000000000000000000000000000000000000000000000000000000600052601260045260246000fd5b7f4d75737420626520636f72726563742042500000000000000000000000000000600082015250565b61117d8161109f565b811461118857600080fd5b50565b611194816110b1565b811461119f57600080fd5b50565b6111ab816110e3565b81146111b657600080fd5b5056fea2646970667358221220633a374257cefcb03161a20b97da5f3147fcb1b9476e9ec7d47d221445895d0764736f6c63430008030033",
          "opcodes": "PUSH1 0x80 PUSH1 0x40 MSTORE PUSH8 0xDE0B6B3A7640000 PUSH1 0x1 SSTORE CALLVALUE DUP1 ISZERO PUSH3 0x1D JUMPI PUSH1 0x0 DUP1 REVERT JUMPDEST POP PUSH1 0x40 MLOAD PUSH3 0x131A CODESIZE SUB DUP1 PUSH3 0x131A DUP4 CODECOPY DUP2 DUP2 ADD PUSH1 0x40 MSTORE DUP2 ADD SWAP1 PUSH3 0x43 SWAP2 SWAP1 PUSH3 0xA1 JUMP JUMPDEST DUP1 PUSH1 0x0 DUP1 PUSH2 0x100 EXP DUP2 SLOAD DUP2 PUSH20 0xFFFFFFFFFFFFFFFFFFFFFFFFFFFFFFFFFFFFFFFF MUL NOT AND SWAP1 DUP4 PUSH20 0xFFFFFFFFFFFFFFFFFFFFFFFFFFFFFFFFFFFFFFFF AND MUL OR SWAP1 SSTORE POP POP PUSH3 0x11B JUMP JUMPDEST PUSH1 0x0 DUP2 MLOAD SWAP1 POP PUSH3 0x9B DUP2 PUSH3 0x101 JUMP JUMPDEST SWAP3 SWAP2 POP POP JUMP JUMPDEST PUSH1 0x0 PUSH1 0x20 DUP3 DUP5 SUB SLT ISZERO PUSH3 0xB4 JUMPI PUSH1 0x0 DUP1 REVERT JUMPDEST PUSH1 0x0 PUSH3 0xC4 DUP5 DUP3 DUP6 ADD PUSH3 0x8A JUMP JUMPDEST SWAP2 POP POP SWAP3 SWAP2 POP POP JUMP JUMPDEST PUSH1 0x0 PUSH3 0xDA DUP3 PUSH3 0xE1 JUMP JUMPDEST SWAP1 POP SWAP2 SWAP1 POP JUMP JUMPDEST PUSH1 0x0 PUSH20 0xFFFFFFFFFFFFFFFFFFFFFFFFFFFFFFFFFFFFFFFF DUP3 AND SWAP1 POP SWAP2 SWAP1 POP JUMP JUMPDEST PUSH3 0x10C DUP2 PUSH3 0xCD JUMP JUMPDEST DUP2 EQ PUSH3 0x118 JUMPI PUSH1 0x0 DUP1 REVERT JUMPDEST POP JUMP JUMPDEST PUSH2 0x11EF DUP1 PUSH3 0x12B PUSH1 0x0 CODECOPY PUSH1 0x0 RETURN INVALID PUSH1 0x80 PUSH1 0x40 MSTORE CALLVALUE DUP1 ISZERO PUSH2 0x10 JUMPI PUSH1 0x0 DUP1 REVERT JUMPDEST POP PUSH1 0x4 CALLDATASIZE LT PUSH2 0x93 JUMPI PUSH1 0x0 CALLDATALOAD PUSH1 0xE0 SHR DUP1 PUSH4 0x714270AB GT PUSH2 0x66 JUMPI DUP1 PUSH4 0x714270AB EQ PUSH2 0x158 JUMPI DUP1 PUSH4 0x8B18B115 EQ PUSH2 0x188 JUMPI DUP1 PUSH4 0x901717D1 EQ PUSH2 0x1B8 JUMPI DUP1 PUSH4 0xC5C11EE9 EQ PUSH2 0x1D6 JUMPI DUP1 PUSH4 0xEC342AD0 EQ PUSH2 0x206 JUMPI PUSH2 0x93 JUMP JUMPDEST DUP1 PUSH4 0x13D21CDF EQ PUSH2 0x98 JUMPI DUP1 PUSH4 0x1BA326C4 EQ PUSH2 0xC8 JUMPI DUP1 PUSH4 0x5A7B2ED3 EQ PUSH2 0xF8 JUMPI DUP1 PUSH4 0x6DA0F1FC EQ PUSH2 0x128 JUMPI JUMPDEST PUSH1 0x0 DUP1 REVERT JUMPDEST PUSH2 0xB2 PUSH1 0x4 DUP1 CALLDATASIZE SUB DUP2 ADD SWAP1 PUSH2 0xAD SWAP2 SWAP1 PUSH2 0xB99 JUMP JUMPDEST PUSH2 0x224 JUMP JUMPDEST PUSH1 0x40 MLOAD PUSH2 0xBF SWAP2 SWAP1 PUSH2 0xF42 JUMP JUMPDEST PUSH1 0x40 MLOAD DUP1 SWAP2 SUB SWAP1 RETURN JUMPDEST PUSH2 0xE2 PUSH1 0x4 DUP1 CALLDATASIZE SUB DUP2 ADD SWAP1 PUSH2 0xDD SWAP2 SWAP1 PUSH2 0xCC8 JUMP JUMPDEST PUSH2 0x5D0 JUMP JUMPDEST PUSH1 0x40 MLOAD PUSH2 0xEF SWAP2 SWAP1 PUSH2 0xF5E JUMP JUMPDEST PUSH1 0x40 MLOAD DUP1 SWAP2 SUB SWAP1 RETURN JUMPDEST PUSH2 0x112 PUSH1 0x4 DUP1 CALLDATASIZE SUB DUP2 ADD SWAP1 PUSH2 0x10D SWAP2 SWAP1 PUSH2 0xC3D JUMP JUMPDEST PUSH2 0x608 JUMP JUMPDEST PUSH1 0x40 MLOAD PUSH2 0x11F SWAP2 SWAP1 PUSH2 0xF5E JUMP JUMPDEST PUSH1 0x40 MLOAD DUP1 SWAP2 SUB SWAP1 RETURN JUMPDEST PUSH2 0x142 PUSH1 0x4 DUP1 CALLDATASIZE SUB DUP2 ADD SWAP1 PUSH2 0x13D SWAP2 SWAP1 PUSH2 0xD17 JUMP JUMPDEST PUSH2 0x809 JUMP JUMPDEST PUSH1 0x40 MLOAD PUSH2 0x14F SWAP2 SWAP1 PUSH2 0xF5E JUMP JUMPDEST PUSH1 0x40 MLOAD DUP1 SWAP2 SUB SWAP1 RETURN JUMPDEST PUSH2 0x172 PUSH1 0x4 DUP1 CALLDATASIZE SUB DUP2 ADD SWAP1 PUSH2 0x16D SWAP2 SWAP1 PUSH2 0xC8C JUMP JUMPDEST PUSH2 0x8C8 JUMP JUMPDEST PUSH1 0x40 MLOAD PUSH2 0x17F SWAP2 SWAP1 PUSH2 0xF5E JUMP JUMPDEST PUSH1 0x40 MLOAD DUP1 SWAP2 SUB SWAP1 RETURN JUMPDEST PUSH2 0x1A2 PUSH1 0x4 DUP1 CALLDATASIZE SUB DUP2 ADD SWAP1 PUSH2 0x19D SWAP2 SWAP1 PUSH2 0xC8C JUMP JUMPDEST PUSH2 0x924 JUMP JUMPDEST PUSH1 0x40 MLOAD PUSH2 0x1AF SWAP2 SWAP1 PUSH2 0xF5E JUMP JUMPDEST PUSH1 0x40 MLOAD DUP1 SWAP2 SUB SWAP1 RETURN JUMPDEST PUSH2 0x1C0 PUSH2 0x93A JUMP JUMPDEST PUSH1 0x40 MLOAD PUSH2 0x1CD SWAP2 SWAP1 PUSH2 0xF5E JUMP JUMPDEST PUSH1 0x40 MLOAD DUP1 SWAP2 SUB SWAP1 RETURN JUMPDEST PUSH2 0x1F0 PUSH1 0x4 DUP1 CALLDATASIZE SUB DUP2 ADD SWAP1 PUSH2 0x1EB SWAP2 SWAP1 PUSH2 0xD7A JUMP JUMPDEST PUSH2 0x940 JUMP JUMPDEST PUSH1 0x40 MLOAD PUSH2 0x1FD SWAP2 SWAP1 PUSH2 0xF5E JUMP JUMPDEST PUSH1 0x40 MLOAD DUP1 SWAP2 SUB SWAP1 RETURN JUMPDEST PUSH2 0x20E PUSH2 0x9EE JUMP JUMPDEST PUSH1 0x40 MLOAD PUSH2 0x21B SWAP2 SWAP1 PUSH2 0xF07 JUMP JUMPDEST PUSH1 0x40 MLOAD DUP1 SWAP2 SUB SWAP1 RETURN JUMPDEST PUSH2 0x22C PUSH2 0xAB8 JUMP JUMPDEST PUSH1 0x0 PUSH2 0x236 PUSH2 0xA12 JUMP JUMPDEST PUSH20 0xFFFFFFFFFFFFFFFFFFFFFFFFFFFFFFFFFFFFFFFF AND PUSH4 0xB99B0A0C PUSH1 0x40 MLOAD DUP2 PUSH4 0xFFFFFFFF AND PUSH1 0xE0 SHL DUP2 MSTORE PUSH1 0x4 ADD PUSH1 0x20 PUSH1 0x40 MLOAD DUP1 DUP4 SUB DUP2 DUP7 DUP1 EXTCODESIZE ISZERO DUP1 ISZERO PUSH2 0x27B JUMPI PUSH1 0x0 DUP1 REVERT JUMPDEST POP GAS STATICCALL ISZERO DUP1 ISZERO PUSH2 0x28F JUMPI RETURNDATASIZE PUSH1 0x0 DUP1 RETURNDATACOPY RETURNDATASIZE PUSH1 0x0 REVERT JUMPDEST POP POP POP POP PUSH1 0x40 MLOAD RETURNDATASIZE PUSH1 0x1F NOT PUSH1 0x1F DUP3 ADD AND DUP3 ADD DUP1 PUSH1 0x40 MSTORE POP DUP2 ADD SWAP1 PUSH2 0x2B3 SWAP2 SWAP1 PUSH2 0xBC2 JUMP JUMPDEST PUSH20 0xFFFFFFFFFFFFFFFFFFFFFFFFFFFFFFFFFFFFFFFF AND PUSH4 0xBBE4F6DB DUP5 PUSH1 0x40 MLOAD DUP3 PUSH4 0xFFFFFFFF AND PUSH1 0xE0 SHL DUP2 MSTORE PUSH1 0x4 ADD PUSH2 0x2EB SWAP2 SWAP1 PUSH2 0xF07 JUMP JUMPDEST PUSH1 0x20 PUSH1 0x40 MLOAD DUP1 DUP4 SUB DUP2 DUP7 DUP1 EXTCODESIZE ISZERO DUP1 ISZERO PUSH2 0x303 JUMPI PUSH1 0x0 DUP1 REVERT JUMPDEST POP GAS STATICCALL ISZERO DUP1 ISZERO PUSH2 0x317 JUMPI RETURNDATASIZE PUSH1 0x0 DUP1 RETURNDATACOPY RETURNDATASIZE PUSH1 0x0 REVERT JUMPDEST POP POP POP POP PUSH1 0x40 MLOAD RETURNDATASIZE PUSH1 0x1F NOT PUSH1 0x1F DUP3 ADD AND DUP3 ADD DUP1 PUSH1 0x40 MSTORE POP DUP2 ADD SWAP1 PUSH2 0x33B SWAP2 SWAP1 PUSH2 0xBC2 JUMP JUMPDEST SWAP1 POP DUP1 DUP3 PUSH1 0x20 ADD SWAP1 PUSH20 0xFFFFFFFFFFFFFFFFFFFFFFFFFFFFFFFFFFFFFFFF AND SWAP1 DUP2 PUSH20 0xFFFFFFFFFFFFFFFFFFFFFFFFFFFFFFFFFFFFFFFF AND DUP2 MSTORE POP POP DUP3 DUP3 PUSH1 0x0 ADD SWAP1 PUSH20 0xFFFFFFFFFFFFFFFFFFFFFFFFFFFFFFFFFFFFFFFF AND SWAP1 DUP2 PUSH20 0xFFFFFFFFFFFFFFFFFFFFFFFFFFFFFFFFFFFFFFFF AND DUP2 MSTORE POP POP DUP1 PUSH20 0xFFFFFFFFFFFFFFFFFFFFFFFFFFFFFFFFFFFFFFFF AND PUSH4 0xA7F0B3DE PUSH1 0x40 MLOAD DUP2 PUSH4 0xFFFFFFFF AND PUSH1 0xE0 SHL DUP2 MSTORE PUSH1 0x4 ADD PUSH1 0x20 PUSH1 0x40 MLOAD DUP1 DUP4 SUB DUP2 DUP7 DUP1 EXTCODESIZE ISZERO DUP1 ISZERO PUSH2 0x3F3 JUMPI PUSH1 0x0 DUP1 REVERT JUMPDEST POP GAS STATICCALL ISZERO DUP1 ISZERO PUSH2 0x407 JUMPI RETURNDATASIZE PUSH1 0x0 DUP1 RETURNDATACOPY RETURNDATASIZE PUSH1 0x0 REVERT JUMPDEST POP POP POP POP PUSH1 0x40 MLOAD RETURNDATASIZE PUSH1 0x1F NOT PUSH1 0x1F DUP3 ADD AND DUP3 ADD DUP1 PUSH1 0x40 MSTORE POP DUP2 ADD SWAP1 PUSH2 0x42B SWAP2 SWAP1 PUSH2 0xC14 JUMP JUMPDEST DUP3 PUSH1 0x40 ADD DUP2 DUP2 MSTORE POP POP DUP1 PUSH20 0xFFFFFFFFFFFFFFFFFFFFFFFFFFFFFFFFFFFFFFFF AND PUSH4 0x4864D140 PUSH1 0x40 MLOAD DUP2 PUSH4 0xFFFFFFFF AND PUSH1 0xE0 SHL DUP2 MSTORE PUSH1 0x4 ADD PUSH1 0x20 PUSH1 0x40 MLOAD DUP1 DUP4 SUB DUP2 DUP7 DUP1 EXTCODESIZE ISZERO DUP1 ISZERO PUSH2 0x47A JUMPI PUSH1 0x0 DUP1 REVERT JUMPDEST POP GAS STATICCALL ISZERO DUP1 ISZERO PUSH2 0x48E JUMPI RETURNDATASIZE PUSH1 0x0 DUP1 RETURNDATACOPY RETURNDATASIZE PUSH1 0x0 REVERT JUMPDEST POP POP POP POP PUSH1 0x40 MLOAD RETURNDATASIZE PUSH1 0x1F NOT PUSH1 0x1F DUP3 ADD AND DUP3 ADD DUP1 PUSH1 0x40 MSTORE POP DUP2 ADD SWAP1 PUSH2 0x4B2 SWAP2 SWAP1 PUSH2 0xC14 JUMP JUMPDEST DUP3 PUSH1 0x60 ADD DUP2 DUP2 MSTORE POP POP DUP1 PUSH20 0xFFFFFFFFFFFFFFFFFFFFFFFFFFFFFFFFFFFFFFFF AND PUSH4 0xEEC7FAA1 PUSH1 0x40 MLOAD DUP2 PUSH4 0xFFFFFFFF AND PUSH1 0xE0 SHL DUP2 MSTORE PUSH1 0x4 ADD PUSH1 0x20 PUSH1 0x40 MLOAD DUP1 DUP4 SUB DUP2 DUP7 DUP1 EXTCODESIZE ISZERO DUP1 ISZERO PUSH2 0x501 JUMPI PUSH1 0x0 DUP1 REVERT JUMPDEST POP GAS STATICCALL ISZERO DUP1 ISZERO PUSH2 0x515 JUMPI RETURNDATASIZE PUSH1 0x0 DUP1 RETURNDATACOPY RETURNDATASIZE PUSH1 0x0 REVERT JUMPDEST POP POP POP POP PUSH1 0x40 MLOAD RETURNDATASIZE PUSH1 0x1F NOT PUSH1 0x1F DUP3 ADD AND DUP3 ADD DUP1 PUSH1 0x40 MSTORE POP DUP2 ADD SWAP1 PUSH2 0x539 SWAP2 SWAP1 PUSH2 0xC14 JUMP JUMPDEST DUP3 PUSH1 0x80 ADD DUP2 DUP2 MSTORE POP POP DUP1 PUSH20 0xFFFFFFFFFFFFFFFFFFFFFFFFFFFFFFFFFFFFFFFF AND PUSH4 0x18160DDD PUSH1 0x40 MLOAD DUP2 PUSH4 0xFFFFFFFF AND PUSH1 0xE0 SHL DUP2 MSTORE PUSH1 0x4 ADD PUSH1 0x20 PUSH1 0x40 MLOAD DUP1 DUP4 SUB DUP2 DUP7 DUP1 EXTCODESIZE ISZERO DUP1 ISZERO PUSH2 0x588 JUMPI PUSH1 0x0 DUP1 REVERT JUMPDEST POP GAS STATICCALL ISZERO DUP1 ISZERO PUSH2 0x59C JUMPI RETURNDATASIZE PUSH1 0x0 DUP1 RETURNDATACOPY RETURNDATASIZE PUSH1 0x0 REVERT JUMPDEST POP POP POP POP PUSH1 0x40 MLOAD RETURNDATASIZE PUSH1 0x1F NOT PUSH1 0x1F DUP3 ADD AND DUP3 ADD DUP1 PUSH1 0x40 MSTORE POP DUP2 ADD SWAP1 PUSH2 0x5C0 SWAP2 SWAP1 PUSH2 0xC14 JUMP JUMPDEST DUP3 PUSH2 0x100 ADD DUP2 DUP2 MSTORE POP POP POP SWAP2 SWAP1 POP JUMP JUMPDEST PUSH1 0x0 DUP3 DUP5 GT ISZERO PUSH2 0x5DE JUMPI DUP3 SWAP4 POP JUMPDEST PUSH1 0x0 DUP4 GT ISZERO PUSH2 0x601 JUMPI DUP3 DUP5 DUP4 PUSH2 0x5F4 SWAP2 SWAP1 PUSH2 0x1011 JUMP JUMPDEST PUSH2 0x5FE SWAP2 SWAP1 PUSH2 0xFE0 JUMP JUMPDEST SWAP1 POP JUMPDEST SWAP4 SWAP3 POP POP POP JUMP JUMPDEST PUSH1 0x0 DUP1 PUSH1 0x0 DUP1 SLOAD SWAP1 PUSH2 0x100 EXP SWAP1 DIV PUSH20 0xFFFFFFFFFFFFFFFFFFFFFFFFFFFFFFFFFFFFFFFF AND PUSH20 0xFFFFFFFFFFFFFFFFFFFFFFFFFFFFFFFFFFFFFFFF AND DUP5 PUSH20 0xFFFFFFFFFFFFFFFFFFFFFFFFFFFFFFFFFFFFFFFF AND EQ ISZERO PUSH2 0x6E4 JUMPI DUP3 PUSH20 0xFFFFFFFFFFFFFFFFFFFFFFFFFFFFFFFFFFFFFFFF AND PUSH4 0x4864D140 PUSH1 0x40 MLOAD DUP2 PUSH4 0xFFFFFFFF AND PUSH1 0xE0 SHL DUP2 MSTORE PUSH1 0x4 ADD PUSH1 0x20 PUSH1 0x40 MLOAD DUP1 DUP4 SUB DUP2 DUP7 DUP1 EXTCODESIZE ISZERO DUP1 ISZERO PUSH2 0x6A5 JUMPI PUSH1 0x0 DUP1 REVERT JUMPDEST POP GAS STATICCALL ISZERO DUP1 ISZERO PUSH2 0x6B9 JUMPI RETURNDATASIZE PUSH1 0x0 DUP1 RETURNDATACOPY RETURNDATASIZE PUSH1 0x0 REVERT JUMPDEST POP POP POP POP PUSH1 0x40 MLOAD RETURNDATASIZE PUSH1 0x1F NOT PUSH1 0x1F DUP3 ADD AND DUP3 ADD DUP1 PUSH1 0x40 MSTORE POP DUP2 ADD SWAP1 PUSH2 0x6DD SWAP2 SWAP1 PUSH2 0xC14 JUMP JUMPDEST SWAP1 POP PUSH2 0x765 JUMP JUMPDEST DUP3 PUSH20 0xFFFFFFFFFFFFFFFFFFFFFFFFFFFFFFFFFFFFFFFF AND PUSH4 0xEEC7FAA1 PUSH1 0x40 MLOAD DUP2 PUSH4 0xFFFFFFFF AND PUSH1 0xE0 SHL DUP2 MSTORE PUSH1 0x4 ADD PUSH1 0x20 PUSH1 0x40 MLOAD DUP1 DUP4 SUB DUP2 DUP7 DUP1 EXTCODESIZE ISZERO DUP1 ISZERO PUSH2 0x72A JUMPI PUSH1 0x0 DUP1 REVERT JUMPDEST POP GAS STATICCALL ISZERO DUP1 ISZERO PUSH2 0x73E JUMPI RETURNDATASIZE PUSH1 0x0 DUP1 RETURNDATACOPY RETURNDATASIZE PUSH1 0x0 REVERT JUMPDEST POP POP POP POP PUSH1 0x40 MLOAD RETURNDATASIZE PUSH1 0x1F NOT PUSH1 0x1F DUP3 ADD AND DUP3 ADD DUP1 PUSH1 0x40 MSTORE POP DUP2 ADD SWAP1 PUSH2 0x762 SWAP2 SWAP1 PUSH2 0xC14 JUMP JUMPDEST SWAP1 POP JUMPDEST PUSH1 0x0 DUP4 PUSH20 0xFFFFFFFFFFFFFFFFFFFFFFFFFFFFFFFFFFFFFFFF AND PUSH4 0x18160DDD PUSH1 0x40 MLOAD DUP2 PUSH4 0xFFFFFFFF AND PUSH1 0xE0 SHL DUP2 MSTORE PUSH1 0x4 ADD PUSH1 0x20 PUSH1 0x40 MLOAD DUP1 DUP4 SUB DUP2 DUP7 DUP1 EXTCODESIZE ISZERO DUP1 ISZERO PUSH2 0x7AD JUMPI PUSH1 0x0 DUP1 REVERT JUMPDEST POP GAS STATICCALL ISZERO DUP1 ISZERO PUSH2 0x7C1 JUMPI RETURNDATASIZE PUSH1 0x0 DUP1 RETURNDATACOPY RETURNDATASIZE PUSH1 0x0 REVERT JUMPDEST POP POP POP POP PUSH1 0x40 MLOAD RETURNDATASIZE PUSH1 0x1F NOT PUSH1 0x1F DUP3 ADD AND DUP3 ADD DUP1 PUSH1 0x40 MSTORE POP DUP2 ADD SWAP1 PUSH2 0x7E5 SWAP2 SWAP1 PUSH2 0xC14 JUMP JUMPDEST SWAP1 POP DUP1 DUP7 DUP4 PUSH2 0x7F4 SWAP2 SWAP1 PUSH2 0x1011 JUMP JUMPDEST PUSH2 0x7FE SWAP2 SWAP1 PUSH2 0xFE0 JUMP JUMPDEST SWAP3 POP POP POP SWAP4 SWAP3 POP POP POP JUMP JUMPDEST PUSH1 0x0 DUP1 DUP4 DUP6 PUSH2 0x818 SWAP2 SWAP1 PUSH2 0x1011 JUMP JUMPDEST SWAP1 POP PUSH1 0x0 DUP4 DUP8 PUSH2 0x828 SWAP2 SWAP1 PUSH2 0x1011 JUMP JUMPDEST SWAP1 POP PUSH1 0x0 DUP7 PUSH1 0x2 DUP10 PUSH2 0x83A SWAP2 SWAP1 PUSH2 0x1011 JUMP JUMPDEST PUSH2 0x844 SWAP2 SWAP1 PUSH2 0xF8A JUMP JUMPDEST SWAP1 POP PUSH1 0x0 DUP6 DUP8 PUSH2 0x854 SWAP2 SWAP1 PUSH2 0xF8A JUMP JUMPDEST SWAP1 POP PUSH1 0x0 DUP4 DUP6 GT ISZERO PUSH2 0x873 JUMPI DUP4 DUP6 PUSH2 0x86C SWAP2 SWAP1 PUSH2 0x106B JUMP JUMPDEST SWAP1 POP PUSH2 0x882 JUMP JUMPDEST DUP5 DUP5 PUSH2 0x87F SWAP2 SWAP1 PUSH2 0x106B JUMP JUMPDEST SWAP1 POP JUMPDEST PUSH1 0x0 DUP3 DUP5 PUSH2 0x890 SWAP2 SWAP1 PUSH2 0x1011 JUMP JUMPDEST SWAP1 POP DUP1 PUSH1 0x1 SLOAD DUP4 PUSH2 0x8A1 SWAP2 SWAP1 PUSH2 0x1011 JUMP JUMPDEST PUSH2 0x8AB SWAP2 SWAP1 PUSH2 0xFE0 JUMP JUMPDEST PUSH1 0x1 SLOAD PUSH2 0x8B8 SWAP2 SWAP1 PUSH2 0x106B JUMP JUMPDEST SWAP7 POP POP POP POP POP POP POP SWAP5 SWAP4 POP POP POP POP JUMP JUMPDEST PUSH1 0x0 PUSH2 0x2710 DUP4 GT ISZERO PUSH2 0x90F JUMPI PUSH1 0x40 MLOAD PUSH32 0x8C379A000000000000000000000000000000000000000000000000000000000 DUP2 MSTORE PUSH1 0x4 ADD PUSH2 0x906 SWAP1 PUSH2 0xF22 JUMP JUMPDEST PUSH1 0x40 MLOAD DUP1 SWAP2 SUB SWAP1 REVERT JUMPDEST PUSH2 0x91C DUP4 PUSH2 0x2710 DUP5 PUSH2 0x5D0 JUMP JUMPDEST SWAP1 POP SWAP3 SWAP2 POP POP JUMP JUMPDEST PUSH1 0x0 PUSH2 0x932 DUP4 DUP4 PUSH1 0x64 PUSH2 0x5D0 JUMP JUMPDEST SWAP1 POP SWAP3 SWAP2 POP POP JUMP JUMPDEST PUSH1 0x1 SLOAD DUP2 JUMP JUMPDEST PUSH1 0x0 DUP1 DUP3 EQ ISZERO PUSH2 0x952 JUMPI DUP6 SWAP1 POP PUSH2 0x9E5 JUMP JUMPDEST PUSH1 0x0 PUSH2 0x960 DUP8 DUP8 DUP8 DUP8 PUSH2 0x809 JUMP JUMPDEST SWAP1 POP PUSH1 0x0 DUP7 DUP7 PUSH2 0x970 SWAP2 SWAP1 PUSH2 0x1011 JUMP JUMPDEST SWAP1 POP PUSH1 0x0 DUP9 DUP7 PUSH2 0x980 SWAP2 SWAP1 PUSH2 0x1011 JUMP JUMPDEST SWAP1 POP PUSH1 0x0 PUSH1 0x2 DUP10 DUP9 PUSH2 0x992 SWAP2 SWAP1 PUSH2 0x1011 JUMP JUMPDEST PUSH2 0x99C SWAP2 SWAP1 PUSH2 0x1011 JUMP JUMPDEST SWAP1 POP PUSH1 0x0 DUP2 DUP4 DUP6 PUSH2 0x9AD SWAP2 SWAP1 PUSH2 0xF8A JUMP JUMPDEST DUP9 PUSH2 0x9B8 SWAP2 SWAP1 PUSH2 0x1011 JUMP JUMPDEST PUSH2 0x9C2 SWAP2 SWAP1 PUSH2 0xFE0 JUMP JUMPDEST SWAP1 POP PUSH1 0x1 SLOAD DUP6 DUP3 PUSH2 0x9D3 SWAP2 SWAP1 PUSH2 0x1011 JUMP JUMPDEST PUSH2 0x9DD SWAP2 SWAP1 PUSH2 0xFE0 JUMP JUMPDEST SWAP6 POP POP POP POP POP POP JUMPDEST SWAP6 SWAP5 POP POP POP POP POP JUMP JUMPDEST PUSH1 0x0 DUP1 SLOAD SWAP1 PUSH2 0x100 EXP SWAP1 DIV PUSH20 0xFFFFFFFFFFFFFFFFFFFFFFFFFFFFFFFFFFFFFFFF AND DUP2 JUMP JUMPDEST PUSH1 0x0 DUP1 PUSH1 0x0 SWAP1 SLOAD SWAP1 PUSH2 0x100 EXP SWAP1 DIV PUSH20 0xFFFFFFFFFFFFFFFFFFFFFFFFFFFFFFFFFFFFFFFF AND PUSH20 0xFFFFFFFFFFFFFFFFFFFFFFFFFFFFFFFFFFFFFFFF AND PUSH4 0x98FABD3A PUSH1 0x40 MLOAD DUP2 PUSH4 0xFFFFFFFF AND PUSH1 0xE0 SHL DUP2 MSTORE PUSH1 0x4 ADD PUSH1 0x20 PUSH1 0x40 MLOAD DUP1 DUP4 SUB DUP2 DUP7 DUP1 EXTCODESIZE ISZERO DUP1 ISZERO PUSH2 0xA7B JUMPI PUSH1 0x0 DUP1 REVERT JUMPDEST POP GAS STATICCALL ISZERO DUP1 ISZERO PUSH2 0xA8F JUMPI RETURNDATASIZE PUSH1 0x0 DUP1 RETURNDATACOPY RETURNDATASIZE PUSH1 0x0 REVERT JUMPDEST POP POP POP POP PUSH1 0x40 MLOAD RETURNDATASIZE PUSH1 0x1F NOT PUSH1 0x1F DUP3 ADD AND DUP3 ADD DUP1 PUSH1 0x40 MSTORE POP DUP2 ADD SWAP1 PUSH2 0xAB3 SWAP2 SWAP1 PUSH2 0xBEB JUMP JUMPDEST SWAP1 POP SWAP1 JUMP JUMPDEST PUSH1 0x40 MLOAD DUP1 PUSH2 0x120 ADD PUSH1 0x40 MSTORE DUP1 PUSH1 0x0 PUSH20 0xFFFFFFFFFFFFFFFFFFFFFFFFFFFFFFFFFFFFFFFF AND DUP2 MSTORE PUSH1 0x20 ADD PUSH1 0x0 PUSH20 0xFFFFFFFFFFFFFFFFFFFFFFFFFFFFFFFFFFFFFFFF AND DUP2 MSTORE PUSH1 0x20 ADD PUSH1 0x0 DUP2 MSTORE PUSH1 0x20 ADD PUSH1 0x0 DUP2 MSTORE PUSH1 0x20 ADD PUSH1 0x0 DUP2 MSTORE PUSH1 0x20 ADD PUSH1 0x0 DUP2 MSTORE PUSH1 0x20 ADD PUSH1 0x0 DUP2 MSTORE PUSH1 0x20 ADD PUSH1 0x0 DUP2 MSTORE PUSH1 0x20 ADD PUSH1 0x0 DUP2 MSTORE POP SWAP1 JUMP JUMPDEST PUSH1 0x0 DUP2 CALLDATALOAD SWAP1 POP PUSH2 0xB3F DUP2 PUSH2 0x1174 JUMP JUMPDEST SWAP3 SWAP2 POP POP JUMP JUMPDEST PUSH1 0x0 DUP2 MLOAD SWAP1 POP PUSH2 0xB54 DUP2 PUSH2 0x1174 JUMP JUMPDEST SWAP3 SWAP2 POP POP JUMP JUMPDEST PUSH1 0x0 DUP2 MLOAD SWAP1 POP PUSH2 0xB69 DUP2 PUSH2 0x118B JUMP JUMPDEST SWAP3 SWAP2 POP POP JUMP JUMPDEST PUSH1 0x0 DUP2 CALLDATALOAD SWAP1 POP PUSH2 0xB7E DUP2 PUSH2 0x11A2 JUMP JUMPDEST SWAP3 SWAP2 POP POP JUMP JUMPDEST PUSH1 0x0 DUP2 MLOAD SWAP1 POP PUSH2 0xB93 DUP2 PUSH2 0x11A2 JUMP JUMPDEST SWAP3 SWAP2 POP POP JUMP JUMPDEST PUSH1 0x0 PUSH1 0x20 DUP3 DUP5 SUB SLT ISZERO PUSH2 0xBAB JUMPI PUSH1 0x0 DUP1 REVERT JUMPDEST PUSH1 0x0 PUSH2 0xBB9 DUP5 DUP3 DUP6 ADD PUSH2 0xB30 JUMP JUMPDEST SWAP2 POP POP SWAP3 SWAP2 POP POP JUMP JUMPDEST PUSH1 0x0 PUSH1 0x20 DUP3 DUP5 SUB SLT ISZERO PUSH2 0xBD4 JUMPI PUSH1 0x0 DUP1 REVERT JUMPDEST PUSH1 0x0 PUSH2 0xBE2 DUP5 DUP3 DUP6 ADD PUSH2 0xB45 JUMP JUMPDEST SWAP2 POP POP SWAP3 SWAP2 POP POP JUMP JUMPDEST PUSH1 0x0 PUSH1 0x20 DUP3 DUP5 SUB SLT ISZERO PUSH2 0xBFD JUMPI PUSH1 0x0 DUP1 REVERT JUMPDEST PUSH1 0x0 PUSH2 0xC0B DUP5 DUP3 DUP6 ADD PUSH2 0xB5A JUMP JUMPDEST SWAP2 POP POP SWAP3 SWAP2 POP POP JUMP JUMPDEST PUSH1 0x0 PUSH1 0x20 DUP3 DUP5 SUB SLT ISZERO PUSH2 0xC26 JUMPI PUSH1 0x0 DUP1 REVERT JUMPDEST PUSH1 0x0 PUSH2 0xC34 DUP5 DUP3 DUP6 ADD PUSH2 0xB84 JUMP JUMPDEST SWAP2 POP POP SWAP3 SWAP2 POP POP JUMP JUMPDEST PUSH1 0x0 DUP1 PUSH1 0x0 PUSH1 0x60 DUP5 DUP7 SUB SLT ISZERO PUSH2 0xC52 JUMPI PUSH1 0x0 DUP1 REVERT JUMPDEST PUSH1 0x0 PUSH2 0xC60 DUP7 DUP3 DUP8 ADD PUSH2 0xB6F JUMP JUMPDEST SWAP4 POP POP PUSH1 0x20 PUSH2 0xC71 DUP7 DUP3 DUP8 ADD PUSH2 0xB30 JUMP JUMPDEST SWAP3 POP POP PUSH1 0x40 PUSH2 0xC82 DUP7 DUP3 DUP8 ADD PUSH2 0xB30 JUMP JUMPDEST SWAP2 POP POP SWAP3 POP SWAP3 POP SWAP3 JUMP JUMPDEST PUSH1 0x0 DUP1 PUSH1 0x40 DUP4 DUP6 SUB SLT ISZERO PUSH2 0xC9F JUMPI PUSH1 0x0 DUP1 REVERT JUMPDEST PUSH1 0x0 PUSH2 0xCAD DUP6 DUP3 DUP7 ADD PUSH2 0xB6F JUMP JUMPDEST SWAP3 POP POP PUSH1 0x20 PUSH2 0xCBE DUP6 DUP3 DUP7 ADD PUSH2 0xB6F JUMP JUMPDEST SWAP2 POP POP SWAP3 POP SWAP3 SWAP1 POP JUMP JUMPDEST PUSH1 0x0 DUP1 PUSH1 0x0 PUSH1 0x60 DUP5 DUP7 SUB SLT ISZERO PUSH2 0xCDD JUMPI PUSH1 0x0 DUP1 REVERT JUMPDEST PUSH1 0x0 PUSH2 0xCEB DUP7 DUP3 DUP8 ADD PUSH2 0xB6F JUMP JUMPDEST SWAP4 POP POP PUSH1 0x20 PUSH2 0xCFC DUP7 DUP3 DUP8 ADD PUSH2 0xB6F JUMP JUMPDEST SWAP3 POP POP PUSH1 0x40 PUSH2 0xD0D DUP7 DUP3 DUP8 ADD PUSH2 0xB6F JUMP JUMPDEST SWAP2 POP POP SWAP3 POP SWAP3 POP SWAP3 JUMP JUMPDEST PUSH1 0x0 DUP1 PUSH1 0x0 DUP1 PUSH1 0x80 DUP6 DUP8 SUB SLT ISZERO PUSH2 0xD2D JUMPI PUSH1 0x0 DUP1 REVERT JUMPDEST PUSH1 0x0 PUSH2 0xD3B DUP8 DUP3 DUP9 ADD PUSH2 0xB6F JUMP JUMPDEST SWAP5 POP POP PUSH1 0x20 PUSH2 0xD4C DUP8 DUP3 DUP9 ADD PUSH2 0xB6F JUMP JUMPDEST SWAP4 POP POP PUSH1 0x40 PUSH2 0xD5D DUP8 DUP3 DUP9 ADD PUSH2 0xB6F JUMP JUMPDEST SWAP3 POP POP PUSH1 0x60 PUSH2 0xD6E DUP8 DUP3 DUP9 ADD PUSH2 0xB6F JUMP JUMPDEST SWAP2 POP POP SWAP3 SWAP6 SWAP2 SWAP5 POP SWAP3 POP JUMP JUMPDEST PUSH1 0x0 DUP1 PUSH1 0x0 DUP1 PUSH1 0x0 PUSH1 0xA0 DUP7 DUP9 SUB SLT ISZERO PUSH2 0xD92 JUMPI PUSH1 0x0 DUP1 REVERT JUMPDEST PUSH1 0x0 PUSH2 0xDA0 DUP9 DUP3 DUP10 ADD PUSH2 0xB6F JUMP JUMPDEST SWAP6 POP POP PUSH1 0x20 PUSH2 0xDB1 DUP9 DUP3 DUP10 ADD PUSH2 0xB6F JUMP JUMPDEST SWAP5 POP POP PUSH1 0x40 PUSH2 0xDC2 DUP9 DUP3 DUP10 ADD PUSH2 0xB6F JUMP JUMPDEST SWAP4 POP POP PUSH1 0x60 PUSH2 0xDD3 DUP9 DUP3 DUP10 ADD PUSH2 0xB6F JUMP JUMPDEST SWAP3 POP POP PUSH1 0x80 PUSH2 0xDE4 DUP9 DUP3 DUP10 ADD PUSH2 0xB6F JUMP JUMPDEST SWAP2 POP POP SWAP3 SWAP6 POP SWAP3 SWAP6 SWAP1 SWAP4 POP JUMP JUMPDEST PUSH2 0xDFA DUP2 PUSH2 0x109F JUMP JUMPDEST DUP3 MSTORE POP POP JUMP JUMPDEST PUSH2 0xE09 DUP2 PUSH2 0x109F JUMP JUMPDEST DUP3 MSTORE POP POP JUMP JUMPDEST PUSH1 0x0 PUSH2 0xE1C PUSH1 0x12 DUP4 PUSH2 0xF79 JUMP JUMPDEST SWAP2 POP PUSH2 0xE27 DUP3 PUSH2 0x114B JUMP JUMPDEST PUSH1 0x20 DUP3 ADD SWAP1 POP SWAP2 SWAP1 POP JUMP JUMPDEST PUSH2 0x120 DUP3 ADD PUSH1 0x0 DUP3 ADD MLOAD PUSH2 0xE49 PUSH1 0x0 DUP6 ADD DUP3 PUSH2 0xDF1 JUMP JUMPDEST POP PUSH1 0x20 DUP3 ADD MLOAD PUSH2 0xE5C PUSH1 0x20 DUP6 ADD DUP3 PUSH2 0xDF1 JUMP JUMPDEST POP PUSH1 0x40 DUP3 ADD MLOAD PUSH2 0xE6F PUSH1 0x40 DUP6 ADD DUP3 PUSH2 0xEE9 JUMP JUMPDEST POP PUSH1 0x60 DUP3 ADD MLOAD PUSH2 0xE82 PUSH1 0x60 DUP6 ADD DUP3 PUSH2 0xEE9 JUMP JUMPDEST POP PUSH1 0x80 DUP3 ADD MLOAD PUSH2 0xE95 PUSH1 0x80 DUP6 ADD DUP3 PUSH2 0xEE9 JUMP JUMPDEST POP PUSH1 0xA0 DUP3 ADD MLOAD PUSH2 0xEA8 PUSH1 0xA0 DUP6 ADD DUP3 PUSH2 0xEE9 JUMP JUMPDEST POP PUSH1 0xC0 DUP3 ADD MLOAD PUSH2 0xEBB PUSH1 0xC0 DUP6 ADD DUP3 PUSH2 0xEE9 JUMP JUMPDEST POP PUSH1 0xE0 DUP3 ADD MLOAD PUSH2 0xECE PUSH1 0xE0 DUP6 ADD DUP3 PUSH2 0xEE9 JUMP JUMPDEST POP PUSH2 0x100 DUP3 ADD MLOAD PUSH2 0xEE3 PUSH2 0x100 DUP6 ADD DUP3 PUSH2 0xEE9 JUMP JUMPDEST POP POP POP POP JUMP JUMPDEST PUSH2 0xEF2 DUP2 PUSH2 0x10E3 JUMP JUMPDEST DUP3 MSTORE POP POP JUMP JUMPDEST PUSH2 0xF01 DUP2 PUSH2 0x10E3 JUMP JUMPDEST DUP3 MSTORE POP POP JUMP JUMPDEST PUSH1 0x0 PUSH1 0x20 DUP3 ADD SWAP1 POP PUSH2 0xF1C PUSH1 0x0 DUP4 ADD DUP5 PUSH2 0xE00 JUMP JUMPDEST SWAP3 SWAP2 POP POP JUMP JUMPDEST PUSH1 0x0 PUSH1 0x20 DUP3 ADD SWAP1 POP DUP2 DUP2 SUB PUSH1 0x0 DUP4 ADD MSTORE PUSH2 0xF3B DUP2 PUSH2 0xE0F JUMP JUMPDEST SWAP1 POP SWAP2 SWAP1 POP JUMP JUMPDEST PUSH1 0x0 PUSH2 0x120 DUP3 ADD SWAP1 POP PUSH2 0xF58 PUSH1 0x0 DUP4 ADD DUP5 PUSH2 0xE32 JUMP JUMPDEST SWAP3 SWAP2 POP POP JUMP JUMPDEST PUSH1 0x0 PUSH1 0x20 DUP3 ADD SWAP1 POP PUSH2 0xF73 PUSH1 0x0 DUP4 ADD DUP5 PUSH2 0xEF8 JUMP JUMPDEST SWAP3 SWAP2 POP POP JUMP JUMPDEST PUSH1 0x0 DUP3 DUP3 MSTORE PUSH1 0x20 DUP3 ADD SWAP1 POP SWAP3 SWAP2 POP POP JUMP JUMPDEST PUSH1 0x0 PUSH2 0xF95 DUP3 PUSH2 0x10E3 JUMP JUMPDEST SWAP2 POP PUSH2 0xFA0 DUP4 PUSH2 0x10E3 JUMP JUMPDEST SWAP3 POP DUP3 PUSH32 0xFFFFFFFFFFFFFFFFFFFFFFFFFFFFFFFFFFFFFFFFFFFFFFFFFFFFFFFFFFFFFFFF SUB DUP3 GT ISZERO PUSH2 0xFD5 JUMPI PUSH2 0xFD4 PUSH2 0x10ED JUMP JUMPDEST JUMPDEST DUP3 DUP3 ADD SWAP1 POP SWAP3 SWAP2 POP POP JUMP JUMPDEST PUSH1 0x0 PUSH2 0xFEB DUP3 PUSH2 0x10E3 JUMP JUMPDEST SWAP2 POP PUSH2 0xFF6 DUP4 PUSH2 0x10E3 JUMP JUMPDEST SWAP3 POP DUP3 PUSH2 0x1006 JUMPI PUSH2 0x1005 PUSH2 0x111C JUMP JUMPDEST JUMPDEST DUP3 DUP3 DIV SWAP1 POP SWAP3 SWAP2 POP POP JUMP JUMPDEST PUSH1 0x0 PUSH2 0x101C DUP3 PUSH2 0x10E3 JUMP JUMPDEST SWAP2 POP PUSH2 0x1027 DUP4 PUSH2 0x10E3 JUMP JUMPDEST SWAP3 POP DUP2 PUSH32 0xFFFFFFFFFFFFFFFFFFFFFFFFFFFFFFFFFFFFFFFFFFFFFFFFFFFFFFFFFFFFFFFF DIV DUP4 GT DUP3 ISZERO ISZERO AND ISZERO PUSH2 0x1060 JUMPI PUSH2 0x105F PUSH2 0x10ED JUMP JUMPDEST JUMPDEST DUP3 DUP3 MUL SWAP1 POP SWAP3 SWAP2 POP POP JUMP JUMPDEST PUSH1 0x0 PUSH2 0x1076 DUP3 PUSH2 0x10E3 JUMP JUMPDEST SWAP2 POP PUSH2 0x1081 DUP4 PUSH2 0x10E3 JUMP JUMPDEST SWAP3 POP DUP3 DUP3 LT ISZERO PUSH2 0x1094 JUMPI PUSH2 0x1093 PUSH2 0x10ED JUMP JUMPDEST JUMPDEST DUP3 DUP3 SUB SWAP1 POP SWAP3 SWAP2 POP POP JUMP JUMPDEST PUSH1 0x0 PUSH2 0x10AA DUP3 PUSH2 0x10C3 JUMP JUMPDEST SWAP1 POP SWAP2 SWAP1 POP JUMP JUMPDEST PUSH1 0x0 PUSH2 0x10BC DUP3 PUSH2 0x109F JUMP JUMPDEST SWAP1 POP SWAP2 SWAP1 POP JUMP JUMPDEST PUSH1 0x0 PUSH20 0xFFFFFFFFFFFFFFFFFFFFFFFFFFFFFFFFFFFFFFFF DUP3 AND SWAP1 POP SWAP2 SWAP1 POP JUMP JUMPDEST PUSH1 0x0 DUP2 SWAP1 POP SWAP2 SWAP1 POP JUMP JUMPDEST PUSH32 0x4E487B7100000000000000000000000000000000000000000000000000000000 PUSH1 0x0 MSTORE PUSH1 0x11 PUSH1 0x4 MSTORE PUSH1 0x24 PUSH1 0x0 REVERT JUMPDEST PUSH32 0x4E487B7100000000000000000000000000000000000000000000000000000000 PUSH1 0x0 MSTORE PUSH1 0x12 PUSH1 0x4 MSTORE PUSH1 0x24 PUSH1 0x0 REVERT JUMPDEST PUSH32 0x4D75737420626520636F72726563742042500000000000000000000000000000 PUSH1 0x0 DUP3 ADD MSTORE POP JUMP JUMPDEST PUSH2 0x117D DUP2 PUSH2 0x109F JUMP JUMPDEST DUP2 EQ PUSH2 0x1188 JUMPI PUSH1 0x0 DUP1 REVERT JUMPDEST POP JUMP JUMPDEST PUSH2 0x1194 DUP2 PUSH2 0x10B1 JUMP JUMPDEST DUP2 EQ PUSH2 0x119F JUMPI PUSH1 0x0 DUP1 REVERT JUMPDEST POP JUMP JUMPDEST PUSH2 0x11AB DUP2 PUSH2 0x10E3 JUMP JUMPDEST DUP2 EQ PUSH2 0x11B6 JUMPI PUSH1 0x0 DUP1 REVERT JUMPDEST POP JUMP INVALID LOG2 PUSH5 0x6970667358 0x22 SLT KECCAK256 PUSH4 0x3A374257 0xCE 0xFC 0xB0 BALANCE PUSH2 0xA20B SWAP8 0xDA 0x5F BALANCE SELFBALANCE 0xFC 0xB1 0xB9 SELFBALANCE PUSH15 0x9EC7D47D221445895D0764736F6C63 NUMBER STOP ADDMOD SUB STOP CALLER "
        },
        "methodIdentifiers": {
          "BASE()": "ec342ad0",
          "calcLiquidityHoldings(uint256,address,address)": "5a7b2ed3",
          "calcLiquidityUnits(uint256,uint256,uint256,uint256,uint256)": "c5c11ee9",
          "calcPart(uint256,uint256)": "714270ab",
          "calcShare(uint256,uint256,uint256)": "1ba326c4",
          "getFeeOnTransfer(uint256,uint256)": "8b18b115",
          "getPoolData(address)": "13d21cdf",
          "getSlipAdustment(uint256,uint256,uint256,uint256)": "6da0f1fc",
          "one()": "901717d1"
        }
      }
    }
  }
}