{
  "_format": "hh-sol-artifact-1",
  "contractName": "SynthFactory",
  "sourceName": "contracts/synthFactory.sol",
  "abi": [
    {
      "inputs": [
        {
          "internalType": "address",
          "name": "_base",
          "type": "address"
        },
        {
          "internalType": "address",
          "name": "_wbnb",
          "type": "address"
        }
      ],
      "stateMutability": "nonpayable",
      "type": "constructor"
    },
    {
      "anonymous": false,
      "inputs": [
        {
          "indexed": true,
          "internalType": "address",
          "name": "token",
          "type": "address"
        },
        {
          "indexed": true,
          "internalType": "address",
          "name": "pool",
          "type": "address"
        }
      ],
      "name": "CreateSynth",
      "type": "event"
    },
    {
      "inputs": [],
      "name": "BASE",
      "outputs": [
        {
          "internalType": "address",
          "name": "",
          "type": "address"
        }
      ],
      "stateMutability": "view",
      "type": "function"
    },
    {
      "inputs": [],
      "name": "DEPLOYER",
      "outputs": [
        {
          "internalType": "address",
          "name": "",
          "type": "address"
        }
      ],
      "stateMutability": "view",
      "type": "function"
    },
    {
      "inputs": [],
      "name": "WBNB",
      "outputs": [
        {
          "internalType": "address",
          "name": "",
          "type": "address"
        }
      ],
      "stateMutability": "view",
      "type": "function"
    },
    {
      "inputs": [
        {
          "internalType": "uint256",
          "name": "",
          "type": "uint256"
        }
      ],
      "name": "arraySynths",
      "outputs": [
        {
          "internalType": "address",
          "name": "",
          "type": "address"
        }
      ],
      "stateMutability": "view",
      "type": "function"
    },
    {
      "inputs": [
        {
          "internalType": "address",
          "name": "token",
          "type": "address"
        }
      ],
      "name": "createSynth",
      "outputs": [
        {
          "internalType": "address",
          "name": "synth",
          "type": "address"
        }
      ],
      "stateMutability": "nonpayable",
      "type": "function"
    },
    {
      "inputs": [
        {
          "internalType": "address",
          "name": "token",
          "type": "address"
        }
      ],
      "name": "getSynth",
      "outputs": [
        {
          "internalType": "address",
          "name": "synth",
          "type": "address"
        }
      ],
      "stateMutability": "view",
      "type": "function"
    },
    {
      "inputs": [
        {
          "internalType": "uint256",
          "name": "i",
          "type": "uint256"
        }
      ],
      "name": "getSynthsArray",
      "outputs": [
        {
          "internalType": "address",
          "name": "",
          "type": "address"
        }
      ],
      "stateMutability": "view",
      "type": "function"
    },
    {
      "inputs": [
        {
          "internalType": "address",
          "name": "",
          "type": "address"
        }
      ],
      "name": "isSynth",
      "outputs": [
        {
          "internalType": "bool",
          "name": "",
          "type": "bool"
        }
      ],
      "stateMutability": "view",
      "type": "function"
    },
    {
      "inputs": [],
      "name": "purgeDeployer",
      "outputs": [],
      "stateMutability": "nonpayable",
      "type": "function"
    },
    {
      "inputs": [],
      "name": "synthCount",
      "outputs": [
        {
          "internalType": "uint256",
          "name": "",
          "type": "uint256"
        }
      ],
      "stateMutability": "view",
      "type": "function"
    }
  ],
  "bytecode": "0x60806040523480156200001157600080fd5b506040516200475a3803806200475a833981810160405281019062000037919062000118565b816000806101000a81548173ffffffffffffffffffffffffffffffffffffffff021916908373ffffffffffffffffffffffffffffffffffffffff16021790555080600160006101000a81548173ffffffffffffffffffffffffffffffffffffffff021916908373ffffffffffffffffffffffffffffffffffffffff16021790555033600260006101000a81548173ffffffffffffffffffffffffffffffffffffffff021916908373ffffffffffffffffffffffffffffffffffffffff1602179055505050620001a7565b60008151905062000112816200018d565b92915050565b600080604083850312156200012c57600080fd5b60006200013c8582860162000101565b92505060206200014f8582860162000101565b9150509250929050565b600062000166826200016d565b9050919050565b600073ffffffffffffffffffffffffffffffffffffffff82169050919050565b620001988162000159565b8114620001a457600080fd5b50565b6145a380620001b76000396000f3fe60806040523480156200001157600080fd5b5060043610620000ac5760003560e01c8063c1b8411a116200006f578063c1b8411a146200016d578063cf62480d146200018f578063dcec811614620001c5578063eb76595514620001fb578063ec342ad0146200023157620000ac565b806303a8213814620000b15780635e0237ea14620000bd57806378a45a2414620000f35780638dd950021462000115578063c0d0a46c1462000137575b600080fd5b620000bb62000253565b005b620000db6004803603810190620000d5919062000c8d565b6200032a565b604051620000ea919062000e5b565b60405180910390f35b620000fd6200034a565b6040516200010c919062000ede565b60405180910390f35b6200011f62000357565b6040516200012e919062000e11565b60405180910390f35b6200015560048036038101906200014f919062000d3d565b6200037d565b60405162000164919062000e11565b60405180910390f35b62000177620003ec565b60405162000186919062000e11565b60405180910390f35b620001ad6004803603810190620001a7919062000c8d565b62000412565b604051620001bc919062000e11565b60405180910390f35b620001e36004803603810190620001dd919062000c8d565b6200083e565b604051620001f2919062000e11565b60405180910390f35b62000219600480360381019062000213919062000d3d565b62000967565b60405162000228919062000e11565b60405180910390f35b6200023b620009a7565b6040516200024a919062000e11565b60405180910390f35b600260009054906101000a900473ffffffffffffffffffffffffffffffffffffffff1673ffffffffffffffffffffffffffffffffffffffff163373ffffffffffffffffffffffffffffffffffffffff1614620002e6576040517f08c379a0000000000000000000000000000000000000000000000000000000008152600401620002dd9062000e9a565b60405180910390fd5b6000600260006101000a81548173ffffffffffffffffffffffffffffffffffffffff021916908373ffffffffffffffffffffffffffffffffffffffff160217905550565b60056020528060005260406000206000915054906101000a900460ff1681565b6000600380549050905090565b600160009054906101000a900473ffffffffffffffffffffffffffffffffffffffff1681565b600060038281548110620003ba577f4e487b7100000000000000000000000000000000000000000000000000000000600052603260045260246000fd5b9060005260206000200160009054906101000a900473ffffffffffffffffffffffffffffffffffffffff169050919050565b600260009054906101000a900473ffffffffffffffffffffffffffffffffffffffff1681565b60008073ffffffffffffffffffffffffffffffffffffffff1662000436836200083e565b73ffffffffffffffffffffffffffffffffffffffff16146200048f576040517f08c379a0000000000000000000000000000000000000000000000000000000008152600401620004869062000e78565b60405180910390fd5b60006200049b620009cb565b73ffffffffffffffffffffffffffffffffffffffff1663b99b0a0c6040518163ffffffff1660e01b815260040160206040518083038186803b158015620004e157600080fd5b505afa158015620004f6573d6000803e3d6000fd5b505050506040513d601f19601f820116820180604052508101906200051c919062000cb9565b73ffffffffffffffffffffffffffffffffffffffff1663bbe4f6db846040518263ffffffff1660e01b815260040162000556919062000e11565b60206040518083038186803b1580156200056f57600080fd5b505afa15801562000584573d6000803e3d6000fd5b505050506040513d601f19601f82011682018060405250810190620005aa919062000cb9565b905060011515620005ba620009cb565b73ffffffffffffffffffffffffffffffffffffffff1663b99b0a0c6040518163ffffffff1660e01b815260040160206040518083038186803b1580156200060057600080fd5b505afa15801562000615573d6000803e3d6000fd5b505050506040513d601f19601f820116820180604052508101906200063b919062000cb9565b73ffffffffffffffffffffffffffffffffffffffff16638dcb4c93836040518263ffffffff1660e01b815260040162000675919062000e11565b60206040518083038186803b1580156200068e57600080fd5b505afa158015620006a3573d6000803e3d6000fd5b505050506040513d601f19601f82011682018060405250810190620006c9919062000ce5565b1515146200070e576040517f08c379a0000000000000000000000000000000000000000000000000000000008152600401620007059062000ebc565b60405180910390fd5b600080849050600073ffffffffffffffffffffffffffffffffffffffff168573ffffffffffffffffffffffffffffffffffffffff1614156200077057600160009054906101000a900473ffffffffffffffffffffffffffffffffffffffff1690505b60008054906101000a900473ffffffffffffffffffffffffffffffffffffffff1681604051620007a09062000c0c565b620007ad92919062000e2e565b604051809103906000f080158015620007ca573d6000803e3d6000fd5b509150819350620007dc818562000a75565b8373ffffffffffffffffffffffffffffffffffffffff168573ffffffffffffffffffffffffffffffffffffffff167f43f98d8b2371b57c895f837bf56fcc83a2e97624200ff6282779f0d40411a83860405160405180910390a3505050919050565b60008073ffffffffffffffffffffffffffffffffffffffff168273ffffffffffffffffffffffffffffffffffffffff161415620008ff5760046000600160009054906101000a900473ffffffffffffffffffffffffffffffffffffffff1673ffffffffffffffffffffffffffffffffffffffff1673ffffffffffffffffffffffffffffffffffffffff16815260200190815260200160002060009054906101000a900473ffffffffffffffffffffffffffffffffffffffff16905062000962565b600460008373ffffffffffffffffffffffffffffffffffffffff1673ffffffffffffffffffffffffffffffffffffffff16815260200190815260200160002060009054906101000a900473ffffffffffffffffffffffffffffffffffffffff1690505b919050565b600381815481106200097857600080fd5b906000526020600020016000915054906101000a900473ffffffffffffffffffffffffffffffffffffffff1681565b60008054906101000a900473ffffffffffffffffffffffffffffffffffffffff1681565b60008060009054906101000a900473ffffffffffffffffffffffffffffffffffffffff1673ffffffffffffffffffffffffffffffffffffffff166398fabd3a6040518163ffffffff1660e01b815260040160206040518083038186803b15801562000a3557600080fd5b505afa15801562000a4a573d6000803e3d6000fd5b505050506040513d601f19601f8201168201806040525081019062000a70919062000d11565b905090565b60008054906101000a900473ffffffffffffffffffffffffffffffffffffffff1673ffffffffffffffffffffffffffffffffffffffff168273ffffffffffffffffffffffffffffffffffffffff16141562000acf57600080fd5b80600460008473ffffffffffffffffffffffffffffffffffffffff1673ffffffffffffffffffffffffffffffffffffffff16815260200190815260200160002060006101000a81548173ffffffffffffffffffffffffffffffffffffffff021916908373ffffffffffffffffffffffffffffffffffffffff1602179055506003819080600181540180825580915050600190039060005260206000200160009091909190916101000a81548173ffffffffffffffffffffffffffffffffffffffff021916908373ffffffffffffffffffffffffffffffffffffffff1602179055506001600560008373ffffffffffffffffffffffffffffffffffffffff1673ffffffffffffffffffffffffffffffffffffffff16815260200190815260200160002060006101000a81548160ff0219169083151502179055505050565b613520806200104e83390190565b60008135905062000c2b8162000fe5565b92915050565b60008151905062000c428162000fe5565b92915050565b60008151905062000c598162000fff565b92915050565b60008151905062000c708162001019565b92915050565b60008135905062000c878162001033565b92915050565b60006020828403121562000ca057600080fd5b600062000cb08482850162000c1a565b91505092915050565b60006020828403121562000ccc57600080fd5b600062000cdc8482850162000c31565b91505092915050565b60006020828403121562000cf857600080fd5b600062000d088482850162000c48565b91505092915050565b60006020828403121562000d2457600080fd5b600062000d348482850162000c5f565b91505092915050565b60006020828403121562000d5057600080fd5b600062000d608482850162000c76565b91505092915050565b62000d748162000f0c565b82525050565b62000d858162000f20565b82525050565b600062000d9a60098362000efb565b915062000da78262000f6a565b602082019050919050565b600062000dc1600b8362000efb565b915062000dce8262000f93565b602082019050919050565b600062000de8600f8362000efb565b915062000df58262000fbc565b602082019050919050565b62000e0b8162000f60565b82525050565b600060208201905062000e28600083018462000d69565b92915050565b600060408201905062000e45600083018562000d69565b62000e54602083018462000d69565b9392505050565b600060208201905062000e72600083018462000d7a565b92915050565b6000602082019050818103600083015262000e938162000d8b565b9050919050565b6000602082019050818103600083015262000eb58162000db2565b9050919050565b6000602082019050818103600083015262000ed78162000dd9565b9050919050565b600060208201905062000ef5600083018462000e00565b92915050565b600082825260208201905092915050565b600062000f198262000f40565b9050919050565b60008115159050919050565b600062000f398262000f0c565b9050919050565b600073ffffffffffffffffffffffffffffffffffffffff82169050919050565b6000819050919050565b7f4372656174654572720000000000000000000000000000000000000000000000600082015250565b7f4465706c6f796572457272000000000000000000000000000000000000000000600082015250565b7f4d75737420626520437572617465640000000000000000000000000000000000600082015250565b62000ff08162000f0c565b811462000ffc57600080fd5b50565b6200100a8162000f20565b81146200101657600080fd5b50565b620010248162000f2c565b81146200103057600080fd5b50565b6200103e8162000f60565b81146200104a57600080fd5b5056fe60806040523480156200001157600080fd5b506040516200352038038062003520833981810160405281019062000037919062000457565b816000806101000a81548173ffffffffffffffffffffffffffffffffffffffff021916908373ffffffffffffffffffffffffffffffffffffffff16021790555080600160006101000a81548173ffffffffffffffffffffffffffffffffffffffff021916908373ffffffffffffffffffffffffffffffffffffffff16021790555060006040518060400160405280601981526020017f2d5370617274616e50726f746f636f6c53796e74686574696300000000000000815250905060006040518060400160405280600481526020017f2d5350530000000000000000000000000000000000000000000000000000000081525090508273ffffffffffffffffffffffffffffffffffffffff166306fdde036040518163ffffffff1660e01b815260040160006040518083038186803b1580156200017357600080fd5b505afa15801562000188573d6000803e3d6000fd5b505050506040513d6000823e3d601f19601f82011682018060405250810190620001b3919062000498565b82604051602001620001c792919062000514565b60405160208183030381529060405260049080519060200190620001ed9291906200031e565b508273ffffffffffffffffffffffffffffffffffffffff166395d89b416040518163ffffffff1660e01b815260040160006040518083038186803b1580156200023557600080fd5b505afa1580156200024a573d6000803e3d6000fd5b505050506040513d6000823e3d601f19601f8201168201806040525081019062000275919062000498565b816040516020016200028992919062000514565b60405160208183030381529060405260059080519060200190620002af9291906200031e565b506012600660006101000a81548160ff021916908360ff16021790555033600360006101000a81548173ffffffffffffffffffffffffffffffffffffffff021916908373ffffffffffffffffffffffffffffffffffffffff160217905550426002819055505050505062000710565b8280546200032c906200061b565b90600052602060002090601f0160209004810192826200035057600085556200039c565b82601f106200036b57805160ff19168380011785556200039c565b828001600101855582156200039c579182015b828111156200039b5782518255916020019190600101906200037e565b5b509050620003ab9190620003af565b5090565b5b80821115620003ca576000816000905550600101620003b0565b5090565b6000620003e5620003df8462000565565b6200053c565b905082815260208101848484011115620003fe57600080fd5b6200040b848285620005e5565b509392505050565b6000815190506200042481620006f6565b92915050565b600082601f8301126200043c57600080fd5b81516200044e848260208601620003ce565b91505092915050565b600080604083850312156200046b57600080fd5b60006200047b8582860162000413565b92505060206200048e8582860162000413565b9150509250929050565b600060208284031215620004ab57600080fd5b600082015167ffffffffffffffff811115620004c657600080fd5b620004d4848285016200042a565b91505092915050565b6000620004ea826200059b565b620004f68185620005a6565b935062000508818560208601620005e5565b80840191505092915050565b6000620005228285620004dd565b9150620005308284620004dd565b91508190509392505050565b6000620005486200055b565b905062000556828262000651565b919050565b6000604051905090565b600067ffffffffffffffff821115620005835762000582620006b6565b5b6200058e82620006e5565b9050602081019050919050565b600081519050919050565b600081905092915050565b6000620005be82620005c5565b9050919050565b600073ffffffffffffffffffffffffffffffffffffffff82169050919050565b60005b8381101562000605578082015181840152602081019050620005e8565b8381111562000615576000848401525b50505050565b600060028204905060018216806200063457607f821691505b602082108114156200064b576200064a62000687565b5b50919050565b6200065c82620006e5565b810181811067ffffffffffffffff821117156200067e576200067d620006b6565b5b80604052505050565b7f4e487b7100000000000000000000000000000000000000000000000000000000600052602260045260246000fd5b7f4e487b7100000000000000000000000000000000000000000000000000000000600052604160045260246000fd5b6000601f19601f8301169050919050565b6200070181620005b1565b81146200070d57600080fd5b50565b612e0080620007206000396000f3fe608060405234801561001057600080fd5b506004361061018e5760003560e01c806395d89b41116100de578063d3e4881411610097578063dd25322911610071578063dd253229146104e7578063dd62ed3e14610517578063ec342ad014610547578063f1bbdef2146105655761018e565b8063d3e488141461047d578063d950b6f314610499578063d9f22fba146104b75761018e565b806395d89b4114610393578063a457c2d7146103b1578063a7f0b3de146103e1578063a9059cbb146103ff578063c1b8411a1461042f578063cae9ca511461044d5761018e565b80634000aea01161014b5780635d30ca1f116101255780635d30ca1f146102e757806364dcd2161461031757806370a082311461034757806379cc6790146103775761018e565b80634000aea01461027d57806342966c68146102ad57806348492031146102c95761018e565b806306fdde0314610193578063095ea7b3146101b157806318160ddd146101e157806323b872dd146101ff578063313ce5671461022f578063395093511461024d575b600080fd5b61019b610595565b6040516101a891906127c0565b60405180910390f35b6101cb60048036038101906101c69190612421565b610627565b6040516101d891906127a5565b60405180910390f35b6101e961063e565b6040516101f691906128c2565b60405180910390f35b610219600480360381019061021491906123d2565b610644565b60405161022691906127a5565b60405180910390f35b6102376107dc565b6040516102449190612967565b60405180910390f35b61026760048036038101906102629190612421565b6107ef565b60405161027491906127a5565b60405180910390f35b6102976004803603810190610292919061245d565b61088d565b6040516102a491906127a5565b60405180910390f35b6102c760048036038101906102c2919061251b565b610919565b005b6102d1610926565b6040516102de9190612713565b60405180910390f35b61030160048036038101906102fc9190612344565b61094c565b60405161030e91906128c2565b60405180910390f35b610331600480360381019061032c9190612344565b610964565b60405161033e91906128c2565b60405180910390f35b610361600480360381019061035c9190612344565b6109ad565b60405161036e91906128c2565b60405180910390f35b610391600480360381019061038c9190612421565b6109f6565b005b61039b610a29565b6040516103a891906127c0565b60405180910390f35b6103cb60048036038101906103c69190612421565b610abb565b6040516103d891906127a5565b60405180910390f35b6103e9610ba1565b6040516103f691906128c2565b60405180910390f35b61041960048036038101906104149190612421565b610ba7565b60405161042691906127a5565b60405180910390f35b610437610bbe565b6040516104449190612713565b60405180910390f35b6104676004803603810190610462919061245d565b610be4565b60405161047491906127a5565b60405180910390f35b61049760048036038101906104929190612344565b610c90565b005b6104a16112f6565b6040516104ae91906127a5565b60405180910390f35b6104d160048036038101906104cc9190612344565b6114d1565b6040516104de91906128c2565b60405180910390f35b61050160048036038101906104fc9190612344565b61151a565b60405161050e91906128c2565b60405180910390f35b610531600480360381019061052c9190612396565b611532565b60405161053e91906128c2565b60405180910390f35b61054f6115b9565b60405161055c9190612713565b60405180910390f35b61057f600480360381019061057a9190612344565b6115dd565b60405161058c91906128c2565b60405180910390f35b6060600480546105a490612b7f565b80601f01602080910402602001604051908101604052809291908181526020018280546105d090612b7f565b801561061d5780601f106105f25761010080835404028352916020019161061d565b820191906000526020600020905b81548152906001019060200180831161060057829003601f168201915b5050505050905090565b6000610634338484611912565b6001905092915050565b60075481565b6000610651848484611b82565b7fffffffffffffffffffffffffffffffffffffffffffffffffffffffffffffffff600960008673ffffffffffffffffffffffffffffffffffffffff1673ffffffffffffffffffffffffffffffffffffffff16815260200190815260200160002060003373ffffffffffffffffffffffffffffffffffffffff1673ffffffffffffffffffffffffffffffffffffffff1681526020019081526020016000205410156107d1576000600960008673ffffffffffffffffffffffffffffffffffffffff1673ffffffffffffffffffffffffffffffffffffffff16815260200190815260200160002060003373ffffffffffffffffffffffffffffffffffffffff1673ffffffffffffffffffffffffffffffffffffffff168152602001908152602001600020549050828110156107b9576040517f08c379a00000000000000000000000000000000000000000000000000000000081526004016107b090612842565b60405180910390fd5b6107cf853385846107ca9190612a90565b611912565b505b600190509392505050565b600660009054906101000a900460ff1681565b6000610883338484600960003373ffffffffffffffffffffffffffffffffffffffff1673ffffffffffffffffffffffffffffffffffffffff16815260200190815260200160002060008873ffffffffffffffffffffffffffffffffffffffff1673ffffffffffffffffffffffffffffffffffffffff1681526020019081526020016000205461087e91906129af565b611912565b6001905092915050565b600061089a338686611b82565b8473ffffffffffffffffffffffffffffffffffffffff1663cf4d253530863387876040518663ffffffff1660e01b81526004016108db959493929190612757565b600060405180830381600087803b1580156108f557600080fd5b505af1158015610909573d6000803e3d6000fd5b5050505060019050949350505050565b6109233382611d90565b50565b600160009054906101000a900473ffffffffffffffffffffffffffffffffffffffff1681565b600a6020528060005260406000206000915090505481565b6000600a60008373ffffffffffffffffffffffffffffffffffffffff1673ffffffffffffffffffffffffffffffffffffffff168152602001908152602001600020549050919050565b6000600860008373ffffffffffffffffffffffffffffffffffffffff1673ffffffffffffffffffffffffffffffffffffffff168152602001908152602001600020549050919050565b600081610a038433611532565b610a0d9190612a90565b9050610a1a833383611912565b610a248383611d90565b505050565b606060058054610a3890612b7f565b80601f0160208091040260200160405190810160405280929190818152602001828054610a6490612b7f565b8015610ab15780601f10610a8657610100808354040283529160200191610ab1565b820191906000526020600020905b815481529060010190602001808311610a9457829003601f168201915b5050505050905090565b600080600960003373ffffffffffffffffffffffffffffffffffffffff1673ffffffffffffffffffffffffffffffffffffffff16815260200190815260200160002060008573ffffffffffffffffffffffffffffffffffffffff1673ffffffffffffffffffffffffffffffffffffffff16815260200190815260200160002054905082811015610b80576040517f08c379a0000000000000000000000000000000000000000000000000000000008152600401610b7790612842565b60405180910390fd5b610b9633858584610b919190612a90565b611912565b600191505092915050565b60025481565b6000610bb4338484611b82565b6001905092915050565b600360009054906101000a900473ffffffffffffffffffffffffffffffffffffffff1681565b6000610c1133867fffffffffffffffffffffffffffffffffffffffffffffffffffffffffffffffff611912565b8473ffffffffffffffffffffffffffffffffffffffff16631ac562a730863387876040518663ffffffff1660e01b8152600401610c52959493929190612757565b600060405180830381600087803b158015610c6c57600080fd5b505af1158015610c80573d6000803e3d6000fd5b5050505060019050949350505050565b6000610c9a611f5b565b73ffffffffffffffffffffffffffffffffffffffff16637b0e5c456040518163ffffffff1660e01b815260040160206040518083038186803b158015610cdf57600080fd5b505afa158015610cf3573d6000803e3d6000fd5b505050506040513d601f19601f82011682018060405250810190610d17919061236d565b73ffffffffffffffffffffffffffffffffffffffff16635a7b2ed3600a60008573ffffffffffffffffffffffffffffffffffffffff1673ffffffffffffffffffffffffffffffffffffffff1681526020019081526020016000205460008054906101000a900473ffffffffffffffffffffffffffffffffffffffff16856040518463ffffffff1660e01b8152600401610db2939291906128dd565b60206040518083038186803b158015610dca57600080fd5b505afa158015610dde573d6000803e3d6000fd5b505050506040513d601f19601f82011682018060405250810190610e029190612544565b90506000610e0e611f5b565b73ffffffffffffffffffffffffffffffffffffffff16637b0e5c456040518163ffffffff1660e01b815260040160206040518083038186803b158015610e5357600080fd5b505afa158015610e67573d6000803e3d6000fd5b505050506040513d601f19601f82011682018060405250810190610e8b919061236d565b73ffffffffffffffffffffffffffffffffffffffff1663b80e44b8600160009054906101000a900473ffffffffffffffffffffffffffffffffffffffff166002600b60008873ffffffffffffffffffffffffffffffffffffffff1673ffffffffffffffffffffffffffffffffffffffff16815260200190815260200160002054610f159190612a05565b6040518363ffffffff1660e01b8152600401610f3292919061272e565b60206040518083038186803b158015610f4a57600080fd5b505afa158015610f5e573d6000803e3d6000fd5b505050506040513d601f19601f82011682018060405250810190610f829190612544565b9050808211156112f15760008282610f9a9190612a90565b90506000610fa6611f5b565b73ffffffffffffffffffffffffffffffffffffffff16637b0e5c456040518163ffffffff1660e01b815260040160206040518083038186803b158015610feb57600080fd5b505afa158015610fff573d6000803e3d6000fd5b505050506040513d601f19601f82011682018060405250810190611023919061236d565b73ffffffffffffffffffffffffffffffffffffffff1663c5c11ee9838773ffffffffffffffffffffffffffffffffffffffff16634864d1406040518163ffffffff1660e01b815260040160206040518083038186803b15801561108557600080fd5b505afa158015611099573d6000803e3d6000fd5b505050506040513d601f19601f820116820180604052508101906110bd9190612544565b60008973ffffffffffffffffffffffffffffffffffffffff1663eec7faa16040518163ffffffff1660e01b815260040160206040518083038186803b15801561110557600080fd5b505afa158015611119573d6000803e3d6000fd5b505050506040513d601f19601f8201168201806040525081019061113d9190612544565b8a73ffffffffffffffffffffffffffffffffffffffff166318160ddd6040518163ffffffff1660e01b815260040160206040518083038186803b15801561118357600080fd5b505afa158015611197573d6000803e3d6000fd5b505050506040513d601f19601f820116820180604052508101906111bb9190612544565b6040518663ffffffff1660e01b81526004016111db959493929190612914565b60206040518083038186803b1580156111f357600080fd5b505afa158015611207573d6000803e3d6000fd5b505050506040513d601f19601f8201168201806040525081019061122b9190612544565b905080600a60008773ffffffffffffffffffffffffffffffffffffffff1673ffffffffffffffffffffffffffffffffffffffff168152602001908152602001600020600082825461127c9190612a90565b925050819055508473ffffffffffffffffffffffffffffffffffffffff166342966c68826040518263ffffffff1660e01b81526004016112bc91906128c2565b600060405180830381600087803b1580156112d657600080fd5b505af11580156112ea573d6000803e3d6000fd5b5050505050505b505050565b600080611302306109ad565b90506000600b60003373ffffffffffffffffffffffffffffffffffffffff1673ffffffffffffffffffffffffffffffffffffffff16815260200190815260200160002054600a60003373ffffffffffffffffffffffffffffffffffffffff1673ffffffffffffffffffffffffffffffffffffffff16815260200190815260200160002054836113919190612a36565b61139b9190612a05565b905080600a60003373ffffffffffffffffffffffffffffffffffffffff1673ffffffffffffffffffffffffffffffffffffffff16815260200190815260200160002060008282546113ec9190612a90565b9250508190555081600b60003373ffffffffffffffffffffffffffffffffffffffff1673ffffffffffffffffffffffffffffffffffffffff16815260200190815260200160002060008282546114429190612a90565b9250508190555060008111156114c85761145c3083611d90565b3373ffffffffffffffffffffffffffffffffffffffff166342966c68826040518263ffffffff1660e01b815260040161149591906128c2565b600060405180830381600087803b1580156114af57600080fd5b505af11580156114c3573d6000803e3d6000fd5b505050505b60019250505090565b6000600b60008373ffffffffffffffffffffffffffffffffffffffff1673ffffffffffffffffffffffffffffffffffffffff168152602001908152602001600020549050919050565b600b6020528060005260406000206000915090505481565b6000600960008473ffffffffffffffffffffffffffffffffffffffff1673ffffffffffffffffffffffffffffffffffffffff16815260200190815260200160002060008373ffffffffffffffffffffffffffffffffffffffff1673ffffffffffffffffffffffffffffffffffffffff16815260200190815260200160002054905092915050565b60008054906101000a900473ffffffffffffffffffffffffffffffffffffffff1681565b6000600115156115eb611f5b565b73ffffffffffffffffffffffffffffffffffffffff1663b99b0a0c6040518163ffffffff1660e01b815260040160206040518083038186803b15801561163057600080fd5b505afa158015611644573d6000803e3d6000fd5b505050506040513d601f19601f82011682018060405250810190611668919061236d565b73ffffffffffffffffffffffffffffffffffffffff16638dcb4c93336040518263ffffffff1660e01b81526004016116a09190612713565b60206040518083038186803b1580156116b857600080fd5b505afa1580156116cc573d6000803e3d6000fd5b505050506040513d601f19601f820116820180604052508101906116f091906124c9565b151514611732576040517f08c379a000000000000000000000000000000000000000000000000000000000815260040161172990612802565b60405180910390fd5b600061173d33612001565b90506000611749611f5b565b73ffffffffffffffffffffffffffffffffffffffff16637b0e5c456040518163ffffffff1660e01b815260040160206040518083038186803b15801561178e57600080fd5b505afa1580156117a2573d6000803e3d6000fd5b505050506040513d601f19601f820116820180604052508101906117c6919061236d565b73ffffffffffffffffffffffffffffffffffffffff16635649820233846040518363ffffffff1660e01b815260040161180092919061272e565b60206040518083038186803b15801561181857600080fd5b505afa15801561182c573d6000803e3d6000fd5b505050506040513d601f19601f820116820180604052508101906118509190612544565b905080600b60003373ffffffffffffffffffffffffffffffffffffffff1673ffffffffffffffffffffffffffffffffffffffff16815260200190815260200160002060008282546118a191906129af565b9250508190555081600a60003373ffffffffffffffffffffffffffffffffffffffff1673ffffffffffffffffffffffffffffffffffffffff16815260200190815260200160002060008282546118f791906129af565b925050819055506119088482612133565b8092505050919050565b600073ffffffffffffffffffffffffffffffffffffffff168373ffffffffffffffffffffffffffffffffffffffff161415611982576040517f08c379a000000000000000000000000000000000000000000000000000000000815260040161197990612822565b60405180910390fd5b600073ffffffffffffffffffffffffffffffffffffffff168273ffffffffffffffffffffffffffffffffffffffff1614156119f2576040517f08c379a00000000000000000000000000000000000000000000000000000000081526004016119e990612882565b60405180910390fd5b7fffffffffffffffffffffffffffffffffffffffffffffffffffffffffffffffff600960008573ffffffffffffffffffffffffffffffffffffffff1673ffffffffffffffffffffffffffffffffffffffff16815260200190815260200160002060008473ffffffffffffffffffffffffffffffffffffffff1673ffffffffffffffffffffffffffffffffffffffff168152602001908152602001600020541015611b7d5780600960008573ffffffffffffffffffffffffffffffffffffffff1673ffffffffffffffffffffffffffffffffffffffff16815260200190815260200160002060008473ffffffffffffffffffffffffffffffffffffffff1673ffffffffffffffffffffffffffffffffffffffff168152602001908152602001600020819055508173ffffffffffffffffffffffffffffffffffffffff168373ffffffffffffffffffffffffffffffffffffffff167f8c5be1e5ebec7d5bd14f71427d1e84f3dd0314c0f7b2291e5b200ac8c7c3b92583604051611b7491906128c2565b60405180910390a35b505050565b600073ffffffffffffffffffffffffffffffffffffffff168373ffffffffffffffffffffffffffffffffffffffff161415611bf2576040517f08c379a0000000000000000000000000000000000000000000000000000000008152600401611be9906127e2565b60405180910390fd5b6000600860008573ffffffffffffffffffffffffffffffffffffffff1673ffffffffffffffffffffffffffffffffffffffff16815260200190815260200160002054905081811015611c79576040517f08c379a0000000000000000000000000000000000000000000000000000000008152600401611c7090612862565b60405180910390fd5b81600860008673ffffffffffffffffffffffffffffffffffffffff1673ffffffffffffffffffffffffffffffffffffffff1681526020019081526020016000206000828254611cc89190612a90565b9250508190555081600860008573ffffffffffffffffffffffffffffffffffffffff1673ffffffffffffffffffffffffffffffffffffffff1681526020019081526020016000206000828254611d1e91906129af565b925050819055508273ffffffffffffffffffffffffffffffffffffffff168473ffffffffffffffffffffffffffffffffffffffff167fddf252ad1be2c89b69c2b068fc378daa952ba7f163c4a11628f55a4df523b3ef84604051611d8291906128c2565b60405180910390a350505050565b600073ffffffffffffffffffffffffffffffffffffffff168273ffffffffffffffffffffffffffffffffffffffff161415611e00576040517f08c379a0000000000000000000000000000000000000000000000000000000008152600401611df7906128a2565b60405180910390fd5b80600860008473ffffffffffffffffffffffffffffffffffffffff1673ffffffffffffffffffffffffffffffffffffffff168152602001908152602001600020541015611e82576040517f08c379a0000000000000000000000000000000000000000000000000000000008152600401611e7990612862565b60405180910390fd5b80600860008473ffffffffffffffffffffffffffffffffffffffff1673ffffffffffffffffffffffffffffffffffffffff1681526020019081526020016000206000828254611ed19190612a90565b925050819055508060076000828254611eea9190612a90565b92505081905550600073ffffffffffffffffffffffffffffffffffffffff168273ffffffffffffffffffffffffffffffffffffffff167fddf252ad1be2c89b69c2b068fc378daa952ba7f163c4a11628f55a4df523b3ef83604051611f4f91906128c2565b60405180910390a35050565b60008060009054906101000a900473ffffffffffffffffffffffffffffffffffffffff1673ffffffffffffffffffffffffffffffffffffffff166398fabd3a6040518163ffffffff1660e01b815260040160206040518083038186803b158015611fc457600080fd5b505afa158015611fd8573d6000803e3d6000fd5b505050506040513d601f19601f82011682018060405250810190611ffc91906124f2565b905090565b6000808273ffffffffffffffffffffffffffffffffffffffff166370a08231306040518263ffffffff1660e01b815260040161203d9190612713565b60206040518083038186803b15801561205557600080fd5b505afa158015612069573d6000803e3d6000fd5b505050506040513d601f19601f8201168201806040525081019061208d9190612544565b9050600a60008473ffffffffffffffffffffffffffffffffffffffff1673ffffffffffffffffffffffffffffffffffffffff1681526020019081526020016000205481111561212857600a60008473ffffffffffffffffffffffffffffffffffffffff1673ffffffffffffffffffffffffffffffffffffffff16815260200190815260200160002054816121219190612a90565b915061212d565b600091505b50919050565b600073ffffffffffffffffffffffffffffffffffffffff168273ffffffffffffffffffffffffffffffffffffffff1614156121a3576040517f08c379a000000000000000000000000000000000000000000000000000000000815260040161219a906128a2565b60405180910390fd5b80600760008282546121b591906129af565b9250508190555080600860008473ffffffffffffffffffffffffffffffffffffffff1673ffffffffffffffffffffffffffffffffffffffff168152602001908152602001600020600082825461220b91906129af565b925050819055508173ffffffffffffffffffffffffffffffffffffffff16600073ffffffffffffffffffffffffffffffffffffffff167fddf252ad1be2c89b69c2b068fc378daa952ba7f163c4a11628f55a4df523b3ef8360405161227091906128c2565b60405180910390a35050565b60008135905061228b81612d6e565b92915050565b6000815190506122a081612d6e565b92915050565b6000815190506122b581612d85565b92915050565b60008083601f8401126122cd57600080fd5b8235905067ffffffffffffffff8111156122e657600080fd5b6020830191508360018202830111156122fe57600080fd5b9250929050565b60008151905061231481612d9c565b92915050565b60008135905061232981612db3565b92915050565b60008151905061233e81612db3565b92915050565b60006020828403121561235657600080fd5b60006123648482850161227c565b91505092915050565b60006020828403121561237f57600080fd5b600061238d84828501612291565b91505092915050565b600080604083850312156123a957600080fd5b60006123b78582860161227c565b92505060206123c88582860161227c565b9150509250929050565b6000806000606084860312156123e757600080fd5b60006123f58682870161227c565b93505060206124068682870161227c565b92505060406124178682870161231a565b9150509250925092565b6000806040838503121561243457600080fd5b60006124428582860161227c565b92505060206124538582860161231a565b9150509250929050565b6000806000806060858703121561247357600080fd5b60006124818782880161227c565b94505060206124928782880161231a565b935050604085013567ffffffffffffffff8111156124af57600080fd5b6124bb878288016122bb565b925092505092959194509250565b6000602082840312156124db57600080fd5b60006124e9848285016122a6565b91505092915050565b60006020828403121561250457600080fd5b600061251284828501612305565b91505092915050565b60006020828403121561252d57600080fd5b600061253b8482850161231a565b91505092915050565b60006020828403121561255657600080fd5b60006125648482850161232f565b91505092915050565b61257681612ac4565b82525050565b61258581612ad6565b82525050565b6000612597838561298d565b93506125a4838584612b3d565b6125ad83612c3e565b840190509392505050565b6125c181612b2b565b82525050565b60006125d282612982565b6125dc818561299e565b93506125ec818560208601612b4c565b6125f581612c3e565b840191505092915050565b600061260d600c8361299e565b915061261882612c4f565b602082019050919050565b600061263060058361299e565b915061263b82612c78565b602082019050919050565b600061265360068361299e565b915061265e82612ca1565b602082019050919050565b6000612676600d8361299e565b915061268182612cca565b602082019050919050565b6000612699600b8361299e565b91506126a482612cf3565b602082019050919050565b60006126bc60078361299e565b91506126c782612d1c565b602082019050919050565b60006126df600b8361299e565b91506126ea82612d45565b602082019050919050565b6126fe81612b14565b82525050565b61270d81612b1e565b82525050565b6000602082019050612728600083018461256d565b92915050565b6000604082019050612743600083018561256d565b61275060208301846126f5565b9392505050565b600060808201905061276c600083018861256d565b61277960208301876126f5565b612786604083018661256d565b818103606083015261279981848661258b565b90509695505050505050565b60006020820190506127ba600083018461257c565b92915050565b600060208201905081810360008301526127da81846125c7565b905092915050565b600060208201905081810360008301526127fb81612600565b9050919050565b6000602082019050818103600083015261281b81612623565b9050919050565b6000602082019050818103600083015261283b81612646565b9050919050565b6000602082019050818103600083015261285b81612669565b9050919050565b6000602082019050818103600083015261287b8161268c565b9050919050565b6000602082019050818103600083015261289b816126af565b9050919050565b600060208201905081810360008301526128bb816126d2565b9050919050565b60006020820190506128d760008301846126f5565b92915050565b60006060820190506128f260008301866126f5565b6128ff602083018561256d565b61290c604083018461256d565b949350505050565b600060a08201905061292960008301886126f5565b61293660208301876126f5565b61294360408301866125b8565b61295060608301856126f5565b61295d60808301846126f5565b9695505050505050565b600060208201905061297c6000830184612704565b92915050565b600081519050919050565b600082825260208201905092915050565b600082825260208201905092915050565b60006129ba82612b14565b91506129c583612b14565b9250827fffffffffffffffffffffffffffffffffffffffffffffffffffffffffffffffff038211156129fa576129f9612bb1565b5b828201905092915050565b6000612a1082612b14565b9150612a1b83612b14565b925082612a2b57612a2a612be0565b5b828204905092915050565b6000612a4182612b14565b9150612a4c83612b14565b9250817fffffffffffffffffffffffffffffffffffffffffffffffffffffffffffffffff0483118215151615612a8557612a84612bb1565b5b828202905092915050565b6000612a9b82612b14565b9150612aa683612b14565b925082821015612ab957612ab8612bb1565b5b828203905092915050565b6000612acf82612af4565b9050919050565b60008115159050919050565b6000612aed82612ac4565b9050919050565b600073ffffffffffffffffffffffffffffffffffffffff82169050919050565b6000819050919050565b600060ff82169050919050565b6000612b3682612b14565b9050919050565b82818337600083830152505050565b60005b83811015612b6a578082015181840152602081019050612b4f565b83811115612b79576000848401525b50505050565b60006002820490506001821680612b9757607f821691505b60208210811415612bab57612baa612c0f565b5b50919050565b7f4e487b7100000000000000000000000000000000000000000000000000000000600052601160045260246000fd5b7f4e487b7100000000000000000000000000000000000000000000000000000000600052601260045260246000fd5b7f4e487b7100000000000000000000000000000000000000000000000000000000600052602260045260246000fd5b6000601f19601f8301169050919050565b7f7472616e73666572206572720000000000000000000000000000000000000000600082015250565b7f21504f4f4c000000000000000000000000000000000000000000000000000000600082015250565b7f73656e6465720000000000000000000000000000000000000000000000000000600082015250565b7f616c6c6f77616e63652065727200000000000000000000000000000000000000600082015250565b7f62616c616e636520657272000000000000000000000000000000000000000000600082015250565b7f7370656e64657200000000000000000000000000000000000000000000000000600082015250565b7f6164647265737320657272000000000000000000000000000000000000000000600082015250565b612d7781612ac4565b8114612d8257600080fd5b50565b612d8e81612ad6565b8114612d9957600080fd5b50565b612da581612ae2565b8114612db057600080fd5b50565b612dbc81612b14565b8114612dc757600080fd5b5056fea2646970667358221220ffc4eba66d715aef90a07d6ef0b8fbab71757b8565a0e05bfe9be4273e34eb5464736f6c63430008030033a2646970667358221220ffd1fb932f199e00e3000a39cf5f47174f1ba204eb69150fd1b9d0d7fcab47cd64736f6c63430008030033",
  "linkReferences": {},
  "deployedLinkReferences": {}
}