{
  "_format": "hh-sol-artifact-1",
  "contractName": "SynthFactory",
  "sourceName": "contracts/synthFactory.sol",
  "abi": [
    {
      "inputs": [
        {
          "internalType": "address",
          "name": "_base",
          "type": "address"
        },
        {
          "internalType": "address",
          "name": "_wbnb",
          "type": "address"
        }
      ],
      "stateMutability": "nonpayable",
      "type": "constructor"
    },
    {
      "anonymous": false,
      "inputs": [
        {
          "indexed": true,
          "internalType": "address",
          "name": "token",
          "type": "address"
        },
        {
          "indexed": true,
          "internalType": "address",
          "name": "pool",
          "type": "address"
        },
        {
          "indexed": true,
          "internalType": "address",
          "name": "synth",
          "type": "address"
        }
      ],
      "name": "CreateSynth",
      "type": "event"
    },
    {
      "inputs": [],
      "name": "BASE",
      "outputs": [
        {
          "internalType": "address",
          "name": "",
          "type": "address"
        }
      ],
      "stateMutability": "view",
      "type": "function"
    },
    {
      "inputs": [],
      "name": "WBNB",
      "outputs": [
        {
          "internalType": "address",
          "name": "",
          "type": "address"
        }
      ],
      "stateMutability": "view",
      "type": "function"
    },
    {
      "inputs": [
        {
          "internalType": "uint256",
          "name": "",
          "type": "uint256"
        }
      ],
      "name": "arraySynths",
      "outputs": [
        {
          "internalType": "address",
          "name": "",
          "type": "address"
        }
      ],
      "stateMutability": "view",
      "type": "function"
    },
    {
      "inputs": [
        {
          "internalType": "address",
          "name": "token",
          "type": "address"
        }
      ],
      "name": "createSynth",
      "outputs": [
        {
          "internalType": "address",
          "name": "synth",
          "type": "address"
        }
      ],
      "stateMutability": "nonpayable",
      "type": "function"
    },
    {
      "inputs": [
        {
          "internalType": "address",
          "name": "token",
          "type": "address"
        }
      ],
      "name": "getSynth",
      "outputs": [
        {
          "internalType": "address",
          "name": "synth",
          "type": "address"
        }
      ],
      "stateMutability": "view",
      "type": "function"
    },
    {
      "inputs": [
        {
          "internalType": "uint256",
          "name": "i",
          "type": "uint256"
        }
      ],
      "name": "getSynthsArray",
      "outputs": [
        {
          "internalType": "address",
          "name": "",
          "type": "address"
        }
      ],
      "stateMutability": "view",
      "type": "function"
    },
    {
      "inputs": [
        {
          "internalType": "address",
          "name": "",
          "type": "address"
        }
      ],
      "name": "isSynth",
      "outputs": [
        {
          "internalType": "bool",
          "name": "",
          "type": "bool"
        }
      ],
      "stateMutability": "view",
      "type": "function"
    },
    {
      "inputs": [],
      "name": "synthCount",
      "outputs": [
        {
          "internalType": "uint256",
          "name": "",
          "type": "uint256"
        }
      ],
      "stateMutability": "view",
      "type": "function"
    }
  ],
  "bytecode": "0x60806040523480156200001157600080fd5b50604051620041ca380380620041ca8339818101604052810190620000379190620000d7565b816000806101000a81548173ffffffffffffffffffffffffffffffffffffffff021916908373ffffffffffffffffffffffffffffffffffffffff16021790555080600160006101000a81548173ffffffffffffffffffffffffffffffffffffffff021916908373ffffffffffffffffffffffffffffffffffffffff160217905550505062000166565b600081519050620000d1816200014c565b92915050565b60008060408385031215620000eb57600080fd5b6000620000fb85828601620000c0565b92505060206200010e85828601620000c0565b9150509250929050565b600062000125826200012c565b9050919050565b600073ffffffffffffffffffffffffffffffffffffffff82169050919050565b620001578162000118565b81146200016357600080fd5b50565b61405480620001766000396000f3fe60806040523480156200001157600080fd5b5060043610620000945760003560e01c8063cf62480d1162000063578063cf62480d1462000149578063dcec8116146200017f578063eb76595514620001b5578063ec342ad014620001eb5762000094565b80635e0237ea146200009957806378a45a2414620000cf5780638dd9500214620000f1578063c0d0a46c1462000113575b600080fd5b620000b76004803603810190620000b1919062000bd6565b6200020d565b604051620000c6919062000db4565b60405180910390f35b620000d96200022d565b604051620000e8919062000e37565b60405180910390f35b620000fb6200023a565b6040516200010a919062000d5a565b60405180910390f35b6200013160048036038101906200012b919062000c86565b62000260565b60405162000140919062000d5a565b60405180910390f35b62000167600480360381019062000161919062000bd6565b620002cf565b60405162000176919062000d5a565b60405180910390f35b6200019d600480360381019062000197919062000bd6565b62000787565b604051620001ac919062000d5a565b60405180910390f35b620001d36004803603810190620001cd919062000c86565b620008b0565b604051620001e2919062000d5a565b60405180910390f35b620001f5620008f0565b60405162000204919062000d5a565b60405180910390f35b60046020528060005260406000206000915054906101000a900460ff1681565b6000600280549050905090565b600160009054906101000a900473ffffffffffffffffffffffffffffffffffffffff1681565b6000600282815481106200029d577f4e487b7100000000000000000000000000000000000000000000000000000000600052603260045260246000fd5b9060005260206000200160009054906101000a900473ffffffffffffffffffffffffffffffffffffffff169050919050565b60008073ffffffffffffffffffffffffffffffffffffffff16620002f38362000787565b73ffffffffffffffffffffffffffffffffffffffff16146200034c576040517f08c379a0000000000000000000000000000000000000000000000000000000008152600401620003439062000dd1565b60405180910390fd5b60006200035862000914565b73ffffffffffffffffffffffffffffffffffffffff1663b99b0a0c6040518163ffffffff1660e01b815260040160206040518083038186803b1580156200039e57600080fd5b505afa158015620003b3573d6000803e3d6000fd5b505050506040513d601f19601f82011682018060405250810190620003d9919062000c02565b73ffffffffffffffffffffffffffffffffffffffff1663bbe4f6db846040518263ffffffff1660e01b815260040162000413919062000d5a565b60206040518083038186803b1580156200042c57600080fd5b505afa15801562000441573d6000803e3d6000fd5b505050506040513d601f19601f8201168201806040525081019062000467919062000c02565b9050600073ffffffffffffffffffffffffffffffffffffffff168173ffffffffffffffffffffffffffffffffffffffff161415620004dc576040517f08c379a0000000000000000000000000000000000000000000000000000000008152600401620004d39062000df3565b60405180910390fd5b60011515620004ea62000914565b73ffffffffffffffffffffffffffffffffffffffff1663b99b0a0c6040518163ffffffff1660e01b815260040160206040518083038186803b1580156200053057600080fd5b505afa15801562000545573d6000803e3d6000fd5b505050506040513d601f19601f820116820180604052508101906200056b919062000c02565b73ffffffffffffffffffffffffffffffffffffffff16638dcb4c93836040518263ffffffff1660e01b8152600401620005a5919062000d5a565b60206040518083038186803b158015620005be57600080fd5b505afa158015620005d3573d6000803e3d6000fd5b505050506040513d601f19601f82011682018060405250810190620005f9919062000c2e565b1515146200063e576040517f08c379a0000000000000000000000000000000000000000000000000000000008152600401620006359062000e15565b60405180910390fd5b600080849050600073ffffffffffffffffffffffffffffffffffffffff168573ffffffffffffffffffffffffffffffffffffffff161415620006a057600160009054906101000a900473ffffffffffffffffffffffffffffffffffffffff1690505b60008054906101000a900473ffffffffffffffffffffffffffffffffffffffff168184604051620006d19062000b55565b620006df9392919062000d77565b604051809103906000f080158015620006fc573d6000803e3d6000fd5b5091508193506200070e8185620009be565b8373ffffffffffffffffffffffffffffffffffffffff168373ffffffffffffffffffffffffffffffffffffffff168273ffffffffffffffffffffffffffffffffffffffff167f2fd51d4b47ee0b6a8bcfc97dff79e4fe2647bb76a585dee3f98619b2694bd77160405160405180910390a4505050919050565b60008073ffffffffffffffffffffffffffffffffffffffff168273ffffffffffffffffffffffffffffffffffffffff161415620008485760036000600160009054906101000a900473ffffffffffffffffffffffffffffffffffffffff1673ffffffffffffffffffffffffffffffffffffffff1673ffffffffffffffffffffffffffffffffffffffff16815260200190815260200160002060009054906101000a900473ffffffffffffffffffffffffffffffffffffffff169050620008ab565b600360008373ffffffffffffffffffffffffffffffffffffffff1673ffffffffffffffffffffffffffffffffffffffff16815260200190815260200160002060009054906101000a900473ffffffffffffffffffffffffffffffffffffffff1690505b919050565b60028181548110620008c157600080fd5b906000526020600020016000915054906101000a900473ffffffffffffffffffffffffffffffffffffffff1681565b60008054906101000a900473ffffffffffffffffffffffffffffffffffffffff1681565b60008060009054906101000a900473ffffffffffffffffffffffffffffffffffffffff1673ffffffffffffffffffffffffffffffffffffffff166398fabd3a6040518163ffffffff1660e01b815260040160206040518083038186803b1580156200097e57600080fd5b505afa15801562000993573d6000803e3d6000fd5b505050506040513d601f19601f82011682018060405250810190620009b9919062000c5a565b905090565b60008054906101000a900473ffffffffffffffffffffffffffffffffffffffff1673ffffffffffffffffffffffffffffffffffffffff168273ffffffffffffffffffffffffffffffffffffffff16141562000a1857600080fd5b80600360008473ffffffffffffffffffffffffffffffffffffffff1673ffffffffffffffffffffffffffffffffffffffff16815260200190815260200160002060006101000a81548173ffffffffffffffffffffffffffffffffffffffff021916908373ffffffffffffffffffffffffffffffffffffffff1602179055506002819080600181540180825580915050600190039060005260206000200160009091909190916101000a81548173ffffffffffffffffffffffffffffffffffffffff021916908373ffffffffffffffffffffffffffffffffffffffff1602179055506001600460008373ffffffffffffffffffffffffffffffffffffffff1673ffffffffffffffffffffffffffffffffffffffff16815260200190815260200160002060006101000a81548160ff0219169083151502179055505050565b6130788062000fa783390190565b60008135905062000b748162000f3e565b92915050565b60008151905062000b8b8162000f3e565b92915050565b60008151905062000ba28162000f58565b92915050565b60008151905062000bb98162000f72565b92915050565b60008135905062000bd08162000f8c565b92915050565b60006020828403121562000be957600080fd5b600062000bf98482850162000b63565b91505092915050565b60006020828403121562000c1557600080fd5b600062000c258482850162000b7a565b91505092915050565b60006020828403121562000c4157600080fd5b600062000c518482850162000b91565b91505092915050565b60006020828403121562000c6d57600080fd5b600062000c7d8482850162000ba8565b91505092915050565b60006020828403121562000c9957600080fd5b600062000ca98482850162000bbf565b91505092915050565b62000cbd8162000e65565b82525050565b62000cce8162000e79565b82525050565b600062000ce360068362000e54565b915062000cf08262000ec3565b602082019050919050565b600062000d0a60058362000e54565b915062000d178262000eec565b602082019050919050565b600062000d3160088362000e54565b915062000d3e8262000f15565b602082019050919050565b62000d548162000eb9565b82525050565b600060208201905062000d71600083018462000cb2565b92915050565b600060608201905062000d8e600083018662000cb2565b62000d9d602083018562000cb2565b62000dac604083018462000cb2565b949350505050565b600060208201905062000dcb600083018462000cc3565b92915050565b6000602082019050818103600083015262000dec8162000cd4565b9050919050565b6000602082019050818103600083015262000e0e8162000cfb565b9050919050565b6000602082019050818103600083015262000e308162000d22565b9050919050565b600060208201905062000e4e600083018462000d49565b92915050565b600082825260208201905092915050565b600062000e728262000e99565b9050919050565b60008115159050919050565b600062000e928262000e65565b9050919050565b600073ffffffffffffffffffffffffffffffffffffffff82169050919050565b6000819050919050565b7f6578697374730000000000000000000000000000000000000000000000000000600082015250565b7f21504f4f4c000000000000000000000000000000000000000000000000000000600082015250565b7f2163757261746564000000000000000000000000000000000000000000000000600082015250565b62000f498162000e65565b811462000f5557600080fd5b50565b62000f638162000e79565b811462000f6f57600080fd5b50565b62000f7d8162000e85565b811462000f8957600080fd5b50565b62000f978162000eb9565b811462000fa357600080fd5b5056fe60806040523480156200001157600080fd5b5060405162003078380380620030788339818101604052810190620000379190620004ef565b826000806101000a81548173ffffffffffffffffffffffffffffffffffffffff021916908373ffffffffffffffffffffffffffffffffffffffff16021790555081600160006101000a81548173ffffffffffffffffffffffffffffffffffffffff021916908373ffffffffffffffffffffffffffffffffffffffff16021790555080600260006101000a81548173ffffffffffffffffffffffffffffffffffffffff021916908373ffffffffffffffffffffffffffffffffffffffff16021790555060006040518060400160405280601981526020017f2d5370617274616e50726f746f636f6c53796e74686574696300000000000000815250905060006040518060400160405280600481526020017f2d5350530000000000000000000000000000000000000000000000000000000081525090508373ffffffffffffffffffffffffffffffffffffffff166306fdde036040518163ffffffff1660e01b815260040160006040518083038186803b158015620001b457600080fd5b505afa158015620001c9573d6000803e3d6000fd5b505050506040513d6000823e3d601f19601f82011682018060405250810190620001f4919062000545565b8260405160200162000208929190620005ed565b604051602081830303815290604052600590805190602001906200022e9291906200039f565b508373ffffffffffffffffffffffffffffffffffffffff166395d89b416040518163ffffffff1660e01b815260040160006040518083038186803b1580156200027657600080fd5b505afa1580156200028b573d6000803e3d6000fd5b505050506040513d6000823e3d601f19601f82011682018060405250810190620002b6919062000545565b81604051602001620002ca929190620005ed565b60405160208183030381529060405260069080519060200190620002f09291906200039f565b508373ffffffffffffffffffffffffffffffffffffffff1663313ce5676040518163ffffffff1660e01b815260040160206040518083038186803b1580156200033857600080fd5b505afa1580156200034d573d6000803e3d6000fd5b505050506040513d601f19601f820116820180604052508101906200037391906200058a565b600760006101000a81548160ff021916908360ff16021790555042600381905550505050505062000810565b828054620003ad9062000701565b90600052602060002090601f016020900481019282620003d157600085556200041d565b82601f10620003ec57805160ff19168380011785556200041d565b828001600101855582156200041d579182015b828111156200041c578251825591602001919060010190620003ff565b5b5090506200042c919062000430565b5090565b5b808211156200044b57600081600090555060010162000431565b5090565b60006200046662000460846200063e565b62000615565b9050828152602081018484840111156200047f57600080fd5b6200048c848285620006cb565b509392505050565b600081519050620004a581620007dc565b92915050565b600082601f830112620004bd57600080fd5b8151620004cf8482602086016200044f565b91505092915050565b600081519050620004e981620007f6565b92915050565b6000806000606084860312156200050557600080fd5b6000620005158682870162000494565b9350506020620005288682870162000494565b92505060406200053b8682870162000494565b9150509250925092565b6000602082840312156200055857600080fd5b600082015167ffffffffffffffff8111156200057357600080fd5b6200058184828501620004ab565b91505092915050565b6000602082840312156200059d57600080fd5b6000620005ad84828501620004d8565b91505092915050565b6000620005c38262000674565b620005cf81856200067f565b9350620005e1818560208601620006cb565b80840191505092915050565b6000620005fb8285620005b6565b9150620006098284620005b6565b91508190509392505050565b60006200062162000634565b90506200062f828262000737565b919050565b6000604051905090565b600067ffffffffffffffff8211156200065c576200065b6200079c565b5b6200066782620007cb565b9050602081019050919050565b600081519050919050565b600081905092915050565b600062000697826200069e565b9050919050565b600073ffffffffffffffffffffffffffffffffffffffff82169050919050565b600060ff82169050919050565b60005b83811015620006eb578082015181840152602081019050620006ce565b83811115620006fb576000848401525b50505050565b600060028204905060018216806200071a57607f821691505b602082108114156200073157620007306200076d565b5b50919050565b6200074282620007cb565b810181811067ffffffffffffffff821117156200076457620007636200079c565b5b80604052505050565b7f4e487b7100000000000000000000000000000000000000000000000000000000600052602260045260246000fd5b7f4e487b7100000000000000000000000000000000000000000000000000000000600052604160045260246000fd5b6000601f19601f8301169050919050565b620007e7816200068a565b8114620007f357600080fd5b50565b6200080181620006be565b81146200080d57600080fd5b50565b61285880620008206000396000f3fe608060405234801561001057600080fd5b506004361061012c5760003560e01c80637535d246116100ad578063a7f0b3de11610071578063a7f0b3de1461035b578063a9059cbb14610379578063d8dfeb45146103a9578063dd62ed3e146103c7578063ec342ad0146103f75761012c565b80637535d246146102a157806382bfefc8146102bf57806386450495146102dd57806395d89b411461030d578063a457c2d71461032b5761012c565b8063313ce567116100f4578063313ce567146101d757806332f302e3146101f5578063395093511461022557806342966c681461025557806370a08231146102715761012c565b806306fdde0314610131578063095ea7b31461014f57806318160ddd1461017f578063224b2a5b1461019d57806323b872dd146101a7575b600080fd5b610139610415565b6040516101469190612199565b60405180910390f35b61016960048036038101906101649190611eb0565b6104a7565b604051610176919061217e565b60405180910390f35b6101876104be565b60405161019491906122fb565b60405180910390f35b6101a56104c4565b005b6101c160048036038101906101bc9190611e61565b6109f9565b6040516101ce919061217e565b60405180910390f35b6101df610aec565b6040516101ec9190612376565b60405180910390f35b61020f600480360381019061020a9190611eb0565b610aff565b60405161021c91906122fb565b60405180910390f35b61023f600480360381019061023a9190611eb0565b610e8e565b60405161024c919061217e565b60405180910390f35b61026f600480360381019061026a9190611f3e565b610f2c565b005b61028b60048036038101906102869190611dd3565b610f2f565b60405161029891906122fb565b60405180910390f35b6102a9610f78565b6040516102b69190612163565b60405180910390f35b6102c7610f9e565b6040516102d49190612163565b60405180910390f35b6102f760048036038101906102f29190611f3e565b610fc4565b60405161030491906122fb565b60405180910390f35b610315611254565b6040516103229190612199565b60405180910390f35b61034560048036038101906103409190611eb0565b6112e6565b604051610352919061217e565b60405180910390f35b6103636113cc565b60405161037091906122fb565b60405180910390f35b610393600480360381019061038e9190611eb0565b6113d2565b6040516103a0919061217e565b60405180910390f35b6103b16113e9565b6040516103be91906122fb565b60405180910390f35b6103e160048036038101906103dc9190611e25565b6113ef565b6040516103ee91906122fb565b60405180910390f35b6103ff611476565b60405161040c9190612163565b60405180910390f35b6060600580546104249061255c565b80601f01602080910402602001604051908101604052809291908181526020018280546104509061255c565b801561049d5780601f106104725761010080835404028352916020019161049d565b820191906000526020600020905b81548152906001019060200180831161048057829003601f168201915b5050505050905090565b60006104b433848461149a565b6001905092915050565b60085481565b6104cc611665565b73ffffffffffffffffffffffffffffffffffffffff166398fabd3a6040518163ffffffff1660e01b815260040160206040518083038186803b15801561051157600080fd5b505afa158015610525573d6000803e3d6000fd5b505050506040513d601f19601f820116820180604052508101906105499190611dfc565b73ffffffffffffffffffffffffffffffffffffffff163373ffffffffffffffffffffffffffffffffffffffff161461058057600080fd5b600061058a611665565b73ffffffffffffffffffffffffffffffffffffffff16637b0e5c456040518163ffffffff1660e01b815260040160206040518083038186803b1580156105cf57600080fd5b505afa1580156105e3573d6000803e3d6000fd5b505050506040513d601f19601f820116820180604052508101906106079190611dfc565b73ffffffffffffffffffffffffffffffffffffffff16635a7b2ed360045460008054906101000a900473ffffffffffffffffffffffffffffffffffffffff16600260009054906101000a900473ffffffffffffffffffffffffffffffffffffffff166040518463ffffffff1660e01b81526004016106879392919061233f565b60206040518083038186803b15801561069f57600080fd5b505afa1580156106b3573d6000803e3d6000fd5b505050506040513d601f19601f820116820180604052508101906106d79190611f67565b905060006106e3611665565b73ffffffffffffffffffffffffffffffffffffffff16637b0e5c456040518163ffffffff1660e01b815260040160206040518083038186803b15801561072857600080fd5b505afa15801561073c573d6000803e3d6000fd5b505050506040513d601f19601f820116820180604052508101906107609190611dfc565b73ffffffffffffffffffffffffffffffffffffffff1663c889a4df600854306040518363ffffffff1660e01b815260040161079c929190612316565b60206040518083038186803b1580156107b457600080fd5b505afa1580156107c8573d6000803e3d6000fd5b505050506040513d601f19601f820116820180604052508101906107ec9190611f67565b9050808211156109f55760008183610804919061248e565b9050670de0b6b3a76400008111156109f3576000610820611665565b73ffffffffffffffffffffffffffffffffffffffff16637b0e5c456040518163ffffffff1660e01b815260040160206040518083038186803b15801561086557600080fd5b505afa158015610879573d6000803e3d6000fd5b505050506040513d601f19601f8201168201806040525081019061089d9190611dfc565b73ffffffffffffffffffffffffffffffffffffffff1663b86a82ef83600260009054906101000a900473ffffffffffffffffffffffffffffffffffffffff166040518363ffffffff1660e01b81526004016108f9929190612316565b60206040518083038186803b15801561091157600080fd5b505afa158015610925573d6000803e3d6000fd5b505050506040513d601f19601f820116820180604052508101906109499190611f67565b9050806004600082825461095d919061248e565b92505081905550600260009054906101000a900473ffffffffffffffffffffffffffffffffffffffff1673ffffffffffffffffffffffffffffffffffffffff166342966c68826040518263ffffffff1660e01b81526004016109bf91906122fb565b600060405180830381600087803b1580156109d957600080fd5b505af11580156109ed573d6000803e3d6000fd5b50505050505b505b5050565b6000610a0684848461170b565b6000600a60008673ffffffffffffffffffffffffffffffffffffffff1673ffffffffffffffffffffffffffffffffffffffff16815260200190815260200160002060003373ffffffffffffffffffffffffffffffffffffffff1673ffffffffffffffffffffffffffffffffffffffff16815260200190815260200160002054905082811015610aca576040517f08c379a0000000000000000000000000000000000000000000000000000000008152600401610ac1906121fb565b60405180910390fd5b610ae085338584610adb919061248e565b61149a565b60019150509392505050565b600760009054906101000a900460ff1681565b6000600260009054906101000a900473ffffffffffffffffffffffffffffffffffffffff1673ffffffffffffffffffffffffffffffffffffffff163373ffffffffffffffffffffffffffffffffffffffff1614610b91576040517f08c379a0000000000000000000000000000000000000000000000000000000008152600401610b88906121bb565b60405180910390fd5b610b99611665565b73ffffffffffffffffffffffffffffffffffffffff1663b99b0a0c6040518163ffffffff1660e01b815260040160206040518083038186803b158015610bde57600080fd5b505afa158015610bf2573d6000803e3d6000fd5b505050506040513d601f19601f82011682018060405250810190610c169190611dfc565b73ffffffffffffffffffffffffffffffffffffffff16635b16ebb7600260009054906101000a900473ffffffffffffffffffffffffffffffffffffffff166040518263ffffffff1660e01b8152600401610c709190612163565b602060405180830381600087803b158015610c8a57600080fd5b505af1158015610c9e573d6000803e3d6000fd5b505050506040513d601f19601f82011682018060405250810190610cc29190611eec565b610d01576040517f08c379a0000000000000000000000000000000000000000000000000000000008152600401610cf8906121bb565b60405180910390fd5b60011515610d0d611665565b73ffffffffffffffffffffffffffffffffffffffff1663b99b0a0c6040518163ffffffff1660e01b815260040160206040518083038186803b158015610d5257600080fd5b505afa158015610d66573d6000803e3d6000fd5b505050506040513d601f19601f82011682018060405250810190610d8a9190611dfc565b73ffffffffffffffffffffffffffffffffffffffff16638dcb4c93336040518263ffffffff1660e01b8152600401610dc29190612163565b60206040518083038186803b158015610dda57600080fd5b505afa158015610dee573d6000803e3d6000fd5b505050506040513d601f19601f82011682018060405250810190610e129190611eec565b151514610e54576040517f08c379a0000000000000000000000000000000000000000000000000000000008152600401610e4b906122bb565b60405180910390fd5b6000610e5f33611989565b90508060046000828254610e7391906123ad565b92505081905550610e848484611a41565b8291505092915050565b6000610f22338484600a60003373ffffffffffffffffffffffffffffffffffffffff1673ffffffffffffffffffffffffffffffffffffffff16815260200190815260200160002060008873ffffffffffffffffffffffffffffffffffffffff1673ffffffffffffffffffffffffffffffffffffffff16815260200190815260200160002054610f1d91906123ad565b61149a565b6001905092915050565b50565b6000600960008373ffffffffffffffffffffffffffffffffffffffff1673ffffffffffffffffffffffffffffffffffffffff168152602001908152602001600020549050919050565b600260009054906101000a900473ffffffffffffffffffffffffffffffffffffffff1681565b600160009054906101000a900473ffffffffffffffffffffffffffffffffffffffff1681565b6000600260009054906101000a900473ffffffffffffffffffffffffffffffffffffffff1673ffffffffffffffffffffffffffffffffffffffff163373ffffffffffffffffffffffffffffffffffffffff1614611056576040517f08c379a000000000000000000000000000000000000000000000000000000000815260040161104d906121bb565b60405180910390fd5b61105e611665565b73ffffffffffffffffffffffffffffffffffffffff1663b99b0a0c6040518163ffffffff1660e01b815260040160206040518083038186803b1580156110a357600080fd5b505afa1580156110b7573d6000803e3d6000fd5b505050506040513d601f19601f820116820180604052508101906110db9190611dfc565b73ffffffffffffffffffffffffffffffffffffffff16635b16ebb7600260009054906101000a900473ffffffffffffffffffffffffffffffffffffffff166040518263ffffffff1660e01b81526004016111359190612163565b602060405180830381600087803b15801561114f57600080fd5b505af1158015611163573d6000803e3d6000fd5b505050506040513d601f19601f820116820180604052508101906111879190611eec565b6111c6576040517f08c379a00000000000000000000000000000000000000000000000000000000081526004016111bd906121bb565b60405180910390fd5b60008211611209576040517f08c379a00000000000000000000000000000000000000000000000000000000081526004016112009061221b565b60405180910390fd5b60006008546004548461121c9190612434565b6112269190612403565b9050806004600082825461123a919061248e565b9250508190555061124b3384611b8a565b80915050919050565b6060600680546112639061255c565b80601f016020809104026020016040519081016040528092919081815260200182805461128f9061255c565b80156112dc5780601f106112b1576101008083540402835291602001916112dc565b820191906000526020600020905b8154815290600101906020018083116112bf57829003601f168201915b5050505050905090565b600080600a60003373ffffffffffffffffffffffffffffffffffffffff1673ffffffffffffffffffffffffffffffffffffffff16815260200190815260200160002060008573ffffffffffffffffffffffffffffffffffffffff1673ffffffffffffffffffffffffffffffffffffffff168152602001908152602001600020549050828110156113ab576040517f08c379a00000000000000000000000000000000000000000000000000000000081526004016113a2906121fb565b60405180910390fd5b6113c1338585846113bc919061248e565b61149a565b600191505092915050565b60035481565b60006113df33848461170b565b6001905092915050565b60045481565b6000600a60008473ffffffffffffffffffffffffffffffffffffffff1673ffffffffffffffffffffffffffffffffffffffff16815260200190815260200160002060008373ffffffffffffffffffffffffffffffffffffffff1673ffffffffffffffffffffffffffffffffffffffff16815260200190815260200160002054905092915050565b60008054906101000a900473ffffffffffffffffffffffffffffffffffffffff1681565b600073ffffffffffffffffffffffffffffffffffffffff168373ffffffffffffffffffffffffffffffffffffffff16141561150a576040517f08c379a0000000000000000000000000000000000000000000000000000000008152600401611501906122db565b60405180910390fd5b600073ffffffffffffffffffffffffffffffffffffffff168273ffffffffffffffffffffffffffffffffffffffff16141561157a576040517f08c379a00000000000000000000000000000000000000000000000000000000081526004016115719061227b565b60405180910390fd5b80600a60008573ffffffffffffffffffffffffffffffffffffffff1673ffffffffffffffffffffffffffffffffffffffff16815260200190815260200160002060008473ffffffffffffffffffffffffffffffffffffffff1673ffffffffffffffffffffffffffffffffffffffff168152602001908152602001600020819055508173ffffffffffffffffffffffffffffffffffffffff168373ffffffffffffffffffffffffffffffffffffffff167f8c5be1e5ebec7d5bd14f71427d1e84f3dd0314c0f7b2291e5b200ac8c7c3b9258360405161165891906122fb565b60405180910390a3505050565b60008060009054906101000a900473ffffffffffffffffffffffffffffffffffffffff1673ffffffffffffffffffffffffffffffffffffffff166398fabd3a6040518163ffffffff1660e01b815260040160206040518083038186803b1580156116ce57600080fd5b505afa1580156116e2573d6000803e3d6000fd5b505050506040513d601f19601f820116820180604052508101906117069190611f15565b905090565b600073ffffffffffffffffffffffffffffffffffffffff168373ffffffffffffffffffffffffffffffffffffffff16141561177b576040517f08c379a00000000000000000000000000000000000000000000000000000000081526004016117729061229b565b60405180910390fd5b600073ffffffffffffffffffffffffffffffffffffffff168273ffffffffffffffffffffffffffffffffffffffff1614156117eb576040517f08c379a00000000000000000000000000000000000000000000000000000000081526004016117e29061225b565b60405180910390fd5b6000600960008573ffffffffffffffffffffffffffffffffffffffff1673ffffffffffffffffffffffffffffffffffffffff16815260200190815260200160002054905081811015611872576040517f08c379a00000000000000000000000000000000000000000000000000000000081526004016118699061223b565b60405180910390fd5b81600960008673ffffffffffffffffffffffffffffffffffffffff1673ffffffffffffffffffffffffffffffffffffffff16815260200190815260200160002060008282546118c1919061248e565b9250508190555081600960008573ffffffffffffffffffffffffffffffffffffffff1673ffffffffffffffffffffffffffffffffffffffff168152602001908152602001600020600082825461191791906123ad565b925050819055508273ffffffffffffffffffffffffffffffffffffffff168473ffffffffffffffffffffffffffffffffffffffff167fddf252ad1be2c89b69c2b068fc378daa952ba7f163c4a11628f55a4df523b3ef8460405161197b91906122fb565b60405180910390a350505050565b6000808273ffffffffffffffffffffffffffffffffffffffff166370a08231306040518263ffffffff1660e01b81526004016119c59190612163565b60206040518083038186803b1580156119dd57600080fd5b505afa1580156119f1573d6000803e3d6000fd5b505050506040513d601f19601f82011682018060405250810190611a159190611f67565b9050600454811115611a365760045481611a2f919061248e565b9150611a3b565b600091505b50919050565b600073ffffffffffffffffffffffffffffffffffffffff168273ffffffffffffffffffffffffffffffffffffffff161415611ab1576040517f08c379a0000000000000000000000000000000000000000000000000000000008152600401611aa8906121db565b60405180910390fd5b8060086000828254611ac391906123ad565b9250508190555080600960008473ffffffffffffffffffffffffffffffffffffffff1673ffffffffffffffffffffffffffffffffffffffff1681526020019081526020016000206000828254611b1991906123ad565b925050819055508173ffffffffffffffffffffffffffffffffffffffff16600073ffffffffffffffffffffffffffffffffffffffff167fddf252ad1be2c89b69c2b068fc378daa952ba7f163c4a11628f55a4df523b3ef83604051611b7e91906122fb565b60405180910390a35050565b600073ffffffffffffffffffffffffffffffffffffffff168273ffffffffffffffffffffffffffffffffffffffff161415611bfa576040517f08c379a0000000000000000000000000000000000000000000000000000000008152600401611bf1906121db565b60405180910390fd5b80600960008473ffffffffffffffffffffffffffffffffffffffff1673ffffffffffffffffffffffffffffffffffffffff168152602001908152602001600020541015611c7c576040517f08c379a0000000000000000000000000000000000000000000000000000000008152600401611c739061223b565b60405180910390fd5b80600960008473ffffffffffffffffffffffffffffffffffffffff1673ffffffffffffffffffffffffffffffffffffffff1681526020019081526020016000206000828254611ccb919061248e565b925050819055508060086000828254611ce4919061248e565b92505081905550600073ffffffffffffffffffffffffffffffffffffffff168273ffffffffffffffffffffffffffffffffffffffff167fddf252ad1be2c89b69c2b068fc378daa952ba7f163c4a11628f55a4df523b3ef83604051611d4991906122fb565b60405180910390a35050565b600081359050611d64816127c6565b92915050565b600081519050611d79816127c6565b92915050565b600081519050611d8e816127dd565b92915050565b600081519050611da3816127f4565b92915050565b600081359050611db88161280b565b92915050565b600081519050611dcd8161280b565b92915050565b600060208284031215611de557600080fd5b6000611df384828501611d55565b91505092915050565b600060208284031215611e0e57600080fd5b6000611e1c84828501611d6a565b91505092915050565b60008060408385031215611e3857600080fd5b6000611e4685828601611d55565b9250506020611e5785828601611d55565b9150509250929050565b600080600060608486031215611e7657600080fd5b6000611e8486828701611d55565b9350506020611e9586828701611d55565b9250506040611ea686828701611da9565b9150509250925092565b60008060408385031215611ec357600080fd5b6000611ed185828601611d55565b9250506020611ee285828601611da9565b9150509250929050565b600060208284031215611efe57600080fd5b6000611f0c84828501611d7f565b91505092915050565b600060208284031215611f2757600080fd5b6000611f3584828501611d94565b91505092915050565b600060208284031215611f5057600080fd5b6000611f5e84828501611da9565b91505092915050565b600060208284031215611f7957600080fd5b6000611f8784828501611dbe565b91505092915050565b611f99816124c2565b82525050565b611fa8816124d4565b82525050565b6000611fb982612391565b611fc3818561239c565b9350611fd3818560208601612529565b611fdc8161261b565b840191505092915050565b6000611ff460058361239c565b9150611fff8261262c565b602082019050919050565b600061201760088361239c565b915061202282612655565b602082019050919050565b600061203a60098361239c565b91506120458261267e565b602082019050919050565b600061205d60078361239c565b9150612068826126a7565b602082019050919050565b600061208060088361239c565b915061208b826126d0565b602082019050919050565b60006120a360058361239c565b91506120ae826126f9565b602082019050919050565b60006120c660088361239c565b91506120d182612722565b602082019050919050565b60006120e960078361239c565b91506120f48261274b565b602082019050919050565b600061210c60088361239c565b915061211782612774565b602082019050919050565b600061212f60068361239c565b915061213a8261279d565b602082019050919050565b61214e81612512565b82525050565b61215d8161251c565b82525050565b60006020820190506121786000830184611f90565b92915050565b60006020820190506121936000830184611f9f565b92915050565b600060208201905081810360008301526121b38184611fae565b905092915050565b600060208201905081810360008301526121d481611fe7565b9050919050565b600060208201905081810360008301526121f48161200a565b9050919050565b600060208201905081810360008301526122148161202d565b9050919050565b6000602082019050818103600083015261223481612050565b9050919050565b6000602082019050818103600083015261225481612073565b9050919050565b6000602082019050818103600083015261227481612096565b9050919050565b60006020820190508181036000830152612294816120b9565b9050919050565b600060208201905081810360008301526122b4816120dc565b9050919050565b600060208201905081810360008301526122d4816120ff565b9050919050565b600060208201905081810360008301526122f481612122565b9050919050565b60006020820190506123106000830184612145565b92915050565b600060408201905061232b6000830185612145565b6123386020830184611f90565b9392505050565b60006060820190506123546000830186612145565b6123616020830185611f90565b61236e6040830184611f90565b949350505050565b600060208201905061238b6000830184612154565b92915050565b600081519050919050565b600082825260208201905092915050565b60006123b882612512565b91506123c383612512565b9250827fffffffffffffffffffffffffffffffffffffffffffffffffffffffffffffffff038211156123f8576123f761258e565b5b828201905092915050565b600061240e82612512565b915061241983612512565b925082612429576124286125bd565b5b828204905092915050565b600061243f82612512565b915061244a83612512565b9250817fffffffffffffffffffffffffffffffffffffffffffffffffffffffffffffffff04831182151516156124835761248261258e565b5b828202905092915050565b600061249982612512565b91506124a483612512565b9250828210156124b7576124b661258e565b5b828203905092915050565b60006124cd826124f2565b9050919050565b60008115159050919050565b60006124eb826124c2565b9050919050565b600073ffffffffffffffffffffffffffffffffffffffff82169050919050565b6000819050919050565b600060ff82169050919050565b60005b8381101561254757808201518184015260208101905061252c565b83811115612556576000848401525b50505050565b6000600282049050600182168061257457607f821691505b60208210811415612588576125876125ec565b5b50919050565b7f4e487b7100000000000000000000000000000000000000000000000000000000600052601160045260246000fd5b7f4e487b7100000000000000000000000000000000000000000000000000000000600052601260045260246000fd5b7f4e487b7100000000000000000000000000000000000000000000000000000000600052602260045260246000fd5b6000601f19601f8301169050919050565b7f21504f4f4c000000000000000000000000000000000000000000000000000000600082015250565b7f216163636f756e74000000000000000000000000000000000000000000000000600082015250565b7f21617070726f76616c0000000000000000000000000000000000000000000000600082015250565b7f21414d4f554e5400000000000000000000000000000000000000000000000000600082015250565b7f2162616c616e6365000000000000000000000000000000000000000000000000600082015250565b7f214255524e000000000000000000000000000000000000000000000000000000600082015250565b7f217370656e646572000000000000000000000000000000000000000000000000600082015250565b7f2173656e64657200000000000000000000000000000000000000000000000000600082015250565b7f2143555241544544000000000000000000000000000000000000000000000000600082015250565b7f216f776e65720000000000000000000000000000000000000000000000000000600082015250565b6127cf816124c2565b81146127da57600080fd5b50565b6127e6816124d4565b81146127f157600080fd5b50565b6127fd816124e0565b811461280857600080fd5b50565b61281481612512565b811461281f57600080fd5b5056fea2646970667358221220fd052c608902b73d25de04dab408fdcdf94477f301434bf574c2a3c36d0daa2464736f6c63430008030033a2646970667358221220794d935390730960ed1dab6a4359cddc312bb5b0a110a821ad0bb85e76293fa364736f6c63430008030033",
  "linkReferences": {},
  "deployedLinkReferences": {}
}