{
  "_format": "hh-sol-artifact-1",
  "contractName": "SynthFactory",
  "sourceName": "contracts/synthFactory.sol",
  "abi": [
    {
      "inputs": [
        {
          "internalType": "address",
          "name": "_base",
          "type": "address"
        },
        {
          "internalType": "address",
          "name": "_wbnb",
          "type": "address"
        }
      ],
      "stateMutability": "nonpayable",
      "type": "constructor"
    },
    {
      "anonymous": false,
      "inputs": [
        {
          "indexed": true,
          "internalType": "address",
          "name": "token",
          "type": "address"
        },
        {
          "indexed": true,
          "internalType": "address",
          "name": "pool",
          "type": "address"
        }
      ],
      "name": "CreateSynth",
      "type": "event"
    },
    {
      "inputs": [],
      "name": "BASE",
      "outputs": [
        {
          "internalType": "address",
          "name": "",
          "type": "address"
        }
      ],
      "stateMutability": "view",
      "type": "function"
    },
    {
      "inputs": [],
      "name": "DEPLOYER",
      "outputs": [
        {
          "internalType": "address",
          "name": "",
          "type": "address"
        }
      ],
      "stateMutability": "view",
      "type": "function"
    },
    {
      "inputs": [],
      "name": "WBNB",
      "outputs": [
        {
          "internalType": "address",
          "name": "",
          "type": "address"
        }
      ],
      "stateMutability": "view",
      "type": "function"
    },
    {
      "inputs": [
        {
          "internalType": "uint256",
          "name": "",
          "type": "uint256"
        }
      ],
      "name": "arraySynths",
      "outputs": [
        {
          "internalType": "address",
          "name": "",
          "type": "address"
        }
      ],
      "stateMutability": "view",
      "type": "function"
    },
    {
      "inputs": [
        {
          "internalType": "address",
          "name": "token",
          "type": "address"
        }
      ],
      "name": "createSynth",
      "outputs": [
        {
          "internalType": "address",
          "name": "synth",
          "type": "address"
        }
      ],
      "stateMutability": "nonpayable",
      "type": "function"
    },
    {
      "inputs": [
        {
          "internalType": "address",
          "name": "token",
          "type": "address"
        }
      ],
      "name": "getSynth",
      "outputs": [
        {
          "internalType": "address",
          "name": "synth",
          "type": "address"
        }
      ],
      "stateMutability": "view",
      "type": "function"
    },
    {
      "inputs": [
        {
          "internalType": "uint256",
          "name": "i",
          "type": "uint256"
        }
      ],
      "name": "getSynthsArray",
      "outputs": [
        {
          "internalType": "address",
          "name": "",
          "type": "address"
        }
      ],
      "stateMutability": "view",
      "type": "function"
    },
    {
      "inputs": [
        {
          "internalType": "address",
          "name": "",
          "type": "address"
        }
      ],
      "name": "isSynth",
      "outputs": [
        {
          "internalType": "bool",
          "name": "",
          "type": "bool"
        }
      ],
      "stateMutability": "view",
      "type": "function"
    },
    {
      "inputs": [],
      "name": "purgeDeployer",
      "outputs": [],
      "stateMutability": "nonpayable",
      "type": "function"
    },
    {
      "inputs": [],
      "name": "synthCount",
      "outputs": [
        {
          "internalType": "uint256",
          "name": "",
          "type": "uint256"
        }
      ],
      "stateMutability": "view",
      "type": "function"
    }
  ],
  "bytecode": "0x60806040523480156200001157600080fd5b506040516200489438038062004894833981810160405281019062000037919062000118565b816000806101000a81548173ffffffffffffffffffffffffffffffffffffffff021916908373ffffffffffffffffffffffffffffffffffffffff16021790555080600160006101000a81548173ffffffffffffffffffffffffffffffffffffffff021916908373ffffffffffffffffffffffffffffffffffffffff16021790555033600260006101000a81548173ffffffffffffffffffffffffffffffffffffffff021916908373ffffffffffffffffffffffffffffffffffffffff1602179055505050620001a7565b60008151905062000112816200018d565b92915050565b600080604083850312156200012c57600080fd5b60006200013c8582860162000101565b92505060206200014f8582860162000101565b9150509250929050565b600062000166826200016d565b9050919050565b600073ffffffffffffffffffffffffffffffffffffffff82169050919050565b620001988162000159565b8114620001a457600080fd5b50565b6146dd80620001b76000396000f3fe60806040523480156200001157600080fd5b5060043610620000ac5760003560e01c8063c1b8411a116200006f578063c1b8411a146200016d578063cf62480d146200018f578063dcec811614620001c5578063eb76595514620001fb578063ec342ad0146200023157620000ac565b806303a8213814620000b15780635e0237ea14620000bd57806378a45a2414620000f35780638dd950021462000115578063c0d0a46c1462000137575b600080fd5b620000bb62000253565b005b620000db6004803603810190620000d5919062000c8d565b6200032a565b604051620000ea919062000e5b565b60405180910390f35b620000fd6200034a565b6040516200010c919062000ede565b60405180910390f35b6200011f62000357565b6040516200012e919062000e11565b60405180910390f35b6200015560048036038101906200014f919062000d3d565b6200037d565b60405162000164919062000e11565b60405180910390f35b62000177620003ec565b60405162000186919062000e11565b60405180910390f35b620001ad6004803603810190620001a7919062000c8d565b62000412565b604051620001bc919062000e11565b60405180910390f35b620001e36004803603810190620001dd919062000c8d565b6200083e565b604051620001f2919062000e11565b60405180910390f35b62000219600480360381019062000213919062000d3d565b62000967565b60405162000228919062000e11565b60405180910390f35b6200023b620009a7565b6040516200024a919062000e11565b60405180910390f35b600260009054906101000a900473ffffffffffffffffffffffffffffffffffffffff1673ffffffffffffffffffffffffffffffffffffffff163373ffffffffffffffffffffffffffffffffffffffff1614620002e6576040517f08c379a0000000000000000000000000000000000000000000000000000000008152600401620002dd9062000e9a565b60405180910390fd5b6000600260006101000a81548173ffffffffffffffffffffffffffffffffffffffff021916908373ffffffffffffffffffffffffffffffffffffffff160217905550565b60056020528060005260406000206000915054906101000a900460ff1681565b6000600380549050905090565b600160009054906101000a900473ffffffffffffffffffffffffffffffffffffffff1681565b600060038281548110620003ba577f4e487b7100000000000000000000000000000000000000000000000000000000600052603260045260246000fd5b9060005260206000200160009054906101000a900473ffffffffffffffffffffffffffffffffffffffff169050919050565b600260009054906101000a900473ffffffffffffffffffffffffffffffffffffffff1681565b60008073ffffffffffffffffffffffffffffffffffffffff1662000436836200083e565b73ffffffffffffffffffffffffffffffffffffffff16146200048f576040517f08c379a0000000000000000000000000000000000000000000000000000000008152600401620004869062000e78565b60405180910390fd5b60006200049b620009cb565b73ffffffffffffffffffffffffffffffffffffffff1663b99b0a0c6040518163ffffffff1660e01b815260040160206040518083038186803b158015620004e157600080fd5b505afa158015620004f6573d6000803e3d6000fd5b505050506040513d601f19601f820116820180604052508101906200051c919062000cb9565b73ffffffffffffffffffffffffffffffffffffffff1663bbe4f6db846040518263ffffffff1660e01b815260040162000556919062000e11565b60206040518083038186803b1580156200056f57600080fd5b505afa15801562000584573d6000803e3d6000fd5b505050506040513d601f19601f82011682018060405250810190620005aa919062000cb9565b905060011515620005ba620009cb565b73ffffffffffffffffffffffffffffffffffffffff1663b99b0a0c6040518163ffffffff1660e01b815260040160206040518083038186803b1580156200060057600080fd5b505afa15801562000615573d6000803e3d6000fd5b505050506040513d601f19601f820116820180604052508101906200063b919062000cb9565b73ffffffffffffffffffffffffffffffffffffffff16638dcb4c93836040518263ffffffff1660e01b815260040162000675919062000e11565b60206040518083038186803b1580156200068e57600080fd5b505afa158015620006a3573d6000803e3d6000fd5b505050506040513d601f19601f82011682018060405250810190620006c9919062000ce5565b1515146200070e576040517f08c379a0000000000000000000000000000000000000000000000000000000008152600401620007059062000ebc565b60405180910390fd5b600080849050600073ffffffffffffffffffffffffffffffffffffffff168573ffffffffffffffffffffffffffffffffffffffff1614156200077057600160009054906101000a900473ffffffffffffffffffffffffffffffffffffffff1690505b60008054906101000a900473ffffffffffffffffffffffffffffffffffffffff1681604051620007a09062000c0c565b620007ad92919062000e2e565b604051809103906000f080158015620007ca573d6000803e3d6000fd5b509150819350620007dc818562000a75565b8373ffffffffffffffffffffffffffffffffffffffff168573ffffffffffffffffffffffffffffffffffffffff167f43f98d8b2371b57c895f837bf56fcc83a2e97624200ff6282779f0d40411a83860405160405180910390a3505050919050565b60008073ffffffffffffffffffffffffffffffffffffffff168273ffffffffffffffffffffffffffffffffffffffff161415620008ff5760046000600160009054906101000a900473ffffffffffffffffffffffffffffffffffffffff1673ffffffffffffffffffffffffffffffffffffffff1673ffffffffffffffffffffffffffffffffffffffff16815260200190815260200160002060009054906101000a900473ffffffffffffffffffffffffffffffffffffffff16905062000962565b600460008373ffffffffffffffffffffffffffffffffffffffff1673ffffffffffffffffffffffffffffffffffffffff16815260200190815260200160002060009054906101000a900473ffffffffffffffffffffffffffffffffffffffff1690505b919050565b600381815481106200097857600080fd5b906000526020600020016000915054906101000a900473ffffffffffffffffffffffffffffffffffffffff1681565b60008054906101000a900473ffffffffffffffffffffffffffffffffffffffff1681565b60008060009054906101000a900473ffffffffffffffffffffffffffffffffffffffff1673ffffffffffffffffffffffffffffffffffffffff166398fabd3a6040518163ffffffff1660e01b815260040160206040518083038186803b15801562000a3557600080fd5b505afa15801562000a4a573d6000803e3d6000fd5b505050506040513d601f19601f8201168201806040525081019062000a70919062000d11565b905090565b60008054906101000a900473ffffffffffffffffffffffffffffffffffffffff1673ffffffffffffffffffffffffffffffffffffffff168273ffffffffffffffffffffffffffffffffffffffff16141562000acf57600080fd5b80600460008473ffffffffffffffffffffffffffffffffffffffff1673ffffffffffffffffffffffffffffffffffffffff16815260200190815260200160002060006101000a81548173ffffffffffffffffffffffffffffffffffffffff021916908373ffffffffffffffffffffffffffffffffffffffff1602179055506003819080600181540180825580915050600190039060005260206000200160009091909190916101000a81548173ffffffffffffffffffffffffffffffffffffffff021916908373ffffffffffffffffffffffffffffffffffffffff1602179055506001600560008373ffffffffffffffffffffffffffffffffffffffff1673ffffffffffffffffffffffffffffffffffffffff16815260200190815260200160002060006101000a81548160ff0219169083151502179055505050565b61365a806200104e83390190565b60008135905062000c2b8162000fe5565b92915050565b60008151905062000c428162000fe5565b92915050565b60008151905062000c598162000fff565b92915050565b60008151905062000c708162001019565b92915050565b60008135905062000c878162001033565b92915050565b60006020828403121562000ca057600080fd5b600062000cb08482850162000c1a565b91505092915050565b60006020828403121562000ccc57600080fd5b600062000cdc8482850162000c31565b91505092915050565b60006020828403121562000cf857600080fd5b600062000d088482850162000c48565b91505092915050565b60006020828403121562000d2457600080fd5b600062000d348482850162000c5f565b91505092915050565b60006020828403121562000d5057600080fd5b600062000d608482850162000c76565b91505092915050565b62000d748162000f0c565b82525050565b62000d858162000f20565b82525050565b600062000d9a60098362000efb565b915062000da78262000f6a565b602082019050919050565b600062000dc1600b8362000efb565b915062000dce8262000f93565b602082019050919050565b600062000de8600f8362000efb565b915062000df58262000fbc565b602082019050919050565b62000e0b8162000f60565b82525050565b600060208201905062000e28600083018462000d69565b92915050565b600060408201905062000e45600083018562000d69565b62000e54602083018462000d69565b9392505050565b600060208201905062000e72600083018462000d7a565b92915050565b6000602082019050818103600083015262000e938162000d8b565b9050919050565b6000602082019050818103600083015262000eb58162000db2565b9050919050565b6000602082019050818103600083015262000ed78162000dd9565b9050919050565b600060208201905062000ef5600083018462000e00565b92915050565b600082825260208201905092915050565b600062000f198262000f40565b9050919050565b60008115159050919050565b600062000f398262000f0c565b9050919050565b600073ffffffffffffffffffffffffffffffffffffffff82169050919050565b6000819050919050565b7f4372656174654572720000000000000000000000000000000000000000000000600082015250565b7f4465706c6f796572457272000000000000000000000000000000000000000000600082015250565b7f4d75737420626520437572617465640000000000000000000000000000000000600082015250565b62000ff08162000f0c565b811462000ffc57600080fd5b50565b6200100a8162000f20565b81146200101657600080fd5b50565b620010248162000f2c565b81146200103057600080fd5b50565b6200103e8162000f60565b81146200104a57600080fd5b5056fe60806040523480156200001157600080fd5b506040516200365a3803806200365a833981810160405281019062000037919062000457565b816000806101000a81548173ffffffffffffffffffffffffffffffffffffffff021916908373ffffffffffffffffffffffffffffffffffffffff16021790555080600160006101000a81548173ffffffffffffffffffffffffffffffffffffffff021916908373ffffffffffffffffffffffffffffffffffffffff16021790555060006040518060400160405280601981526020017f2d5370617274616e50726f746f636f6c53796e74686574696300000000000000815250905060006040518060400160405280600481526020017f2d5350530000000000000000000000000000000000000000000000000000000081525090508273ffffffffffffffffffffffffffffffffffffffff166306fdde036040518163ffffffff1660e01b815260040160006040518083038186803b1580156200017357600080fd5b505afa15801562000188573d6000803e3d6000fd5b505050506040513d6000823e3d601f19601f82011682018060405250810190620001b3919062000498565b82604051602001620001c792919062000514565b60405160208183030381529060405260049080519060200190620001ed9291906200031e565b508273ffffffffffffffffffffffffffffffffffffffff166395d89b416040518163ffffffff1660e01b815260040160006040518083038186803b1580156200023557600080fd5b505afa1580156200024a573d6000803e3d6000fd5b505050506040513d6000823e3d601f19601f8201168201806040525081019062000275919062000498565b816040516020016200028992919062000514565b60405160208183030381529060405260059080519060200190620002af9291906200031e565b506012600660006101000a81548160ff021916908360ff16021790555033600360006101000a81548173ffffffffffffffffffffffffffffffffffffffff021916908373ffffffffffffffffffffffffffffffffffffffff160217905550426002819055505050505062000710565b8280546200032c906200061b565b90600052602060002090601f0160209004810192826200035057600085556200039c565b82601f106200036b57805160ff19168380011785556200039c565b828001600101855582156200039c579182015b828111156200039b5782518255916020019190600101906200037e565b5b509050620003ab9190620003af565b5090565b5b80821115620003ca576000816000905550600101620003b0565b5090565b6000620003e5620003df8462000565565b6200053c565b905082815260208101848484011115620003fe57600080fd5b6200040b848285620005e5565b509392505050565b6000815190506200042481620006f6565b92915050565b600082601f8301126200043c57600080fd5b81516200044e848260208601620003ce565b91505092915050565b600080604083850312156200046b57600080fd5b60006200047b8582860162000413565b92505060206200048e8582860162000413565b9150509250929050565b600060208284031215620004ab57600080fd5b600082015167ffffffffffffffff811115620004c657600080fd5b620004d4848285016200042a565b91505092915050565b6000620004ea826200059b565b620004f68185620005a6565b935062000508818560208601620005e5565b80840191505092915050565b6000620005228285620004dd565b9150620005308284620004dd565b91508190509392505050565b6000620005486200055b565b905062000556828262000651565b919050565b6000604051905090565b600067ffffffffffffffff821115620005835762000582620006b6565b5b6200058e82620006e5565b9050602081019050919050565b600081519050919050565b600081905092915050565b6000620005be82620005c5565b9050919050565b600073ffffffffffffffffffffffffffffffffffffffff82169050919050565b60005b8381101562000605578082015181840152602081019050620005e8565b8381111562000615576000848401525b50505050565b600060028204905060018216806200063457607f821691505b602082108114156200064b576200064a62000687565b5b50919050565b6200065c82620006e5565b810181811067ffffffffffffffff821117156200067e576200067d620006b6565b5b80604052505050565b7f4e487b7100000000000000000000000000000000000000000000000000000000600052602260045260246000fd5b7f4e487b7100000000000000000000000000000000000000000000000000000000600052604160045260246000fd5b6000601f19601f8301169050919050565b6200070181620005b1565b81146200070d57600080fd5b50565b612f3a80620007206000396000f3fe608060405234801561001057600080fd5b50600436106101a95760003560e01c806379cc6790116100f9578063d3e4881411610097578063dd25322911610071578063dd2532291461050c578063dd62ed3e1461053c578063ec342ad01461056c578063f1bbdef21461058a576101a9565b8063d3e48814146104a2578063d950b6f3146104be578063d9f22fba146104dc576101a9565b8063a7f0b3de116100d3578063a7f0b3de14610406578063a9059cbb14610424578063c1b8411a14610454578063cae9ca5114610472576101a9565b806379cc67901461039c57806395d89b41146103b8578063a457c2d7146103d6576101a9565b80633950935111610166578063484920311161014057806348492031146102ee5780635d30ca1f1461030c57806364dcd2161461033c57806370a082311461036c576101a9565b806339509351146102725780634000aea0146102a257806342966c68146102d2576101a9565b806306fdde03146101ae578063095ea7b3146101cc5780630c7caded146101fc57806318160ddd1461020657806323b872dd14610224578063313ce56714610254575b600080fd5b6101b66105ba565b6040516101c391906128b1565b60405180910390f35b6101e660048036038101906101e191906124ef565b61064c565b6040516101f39190612896565b60405180910390f35b610204610663565b005b61020e61070c565b60405161021b91906129d3565b60405180910390f35b61023e600480360381019061023991906124a0565b610712565b60405161024b9190612896565b60405180910390f35b61025c6108aa565b6040516102699190612a78565b60405180910390f35b61028c600480360381019061028791906124ef565b6108bd565b6040516102999190612896565b60405180910390f35b6102bc60048036038101906102b7919061252b565b61095b565b6040516102c99190612896565b60405180910390f35b6102ec60048036038101906102e791906125e9565b6109e7565b005b6102f66109f4565b6040516103039190612804565b60405180910390f35b61032660048036038101906103219190612412565b610a1a565b60405161033391906129d3565b60405180910390f35b61035660048036038101906103519190612412565b610a32565b60405161036391906129d3565b60405180910390f35b61038660048036038101906103819190612412565b610a7b565b60405161039391906129d3565b60405180910390f35b6103b660048036038101906103b191906124ef565b610ac4565b005b6103c0610af7565b6040516103cd91906128b1565b60405180910390f35b6103f060048036038101906103eb91906124ef565b610b89565b6040516103fd9190612896565b60405180910390f35b61040e610c6f565b60405161041b91906129d3565b60405180910390f35b61043e600480360381019061043991906124ef565b610c75565b60405161044b9190612896565b60405180910390f35b61045c610c8c565b6040516104699190612804565b60405180910390f35b61048c6004803603810190610487919061252b565b610cb2565b6040516104999190612896565b60405180910390f35b6104bc60048036038101906104b79190612412565b610d5e565b005b6104c66113c4565b6040516104d39190612896565b60405180910390f35b6104f660048036038101906104f19190612412565b61159f565b60405161050391906129d3565b60405180910390f35b61052660048036038101906105219190612412565b6115e8565b60405161053391906129d3565b60405180910390f35b61055660048036038101906105519190612464565b611600565b60405161056391906129d3565b60405180910390f35b610574611687565b6040516105819190612804565b60405180910390f35b6105a4600480360381019061059f9190612412565b6116ab565b6040516105b191906129d3565b60405180910390f35b6060600480546105c990612c90565b80601f01602080910402602001604051908101604052809291908181526020018280546105f590612c90565b80156106425780601f1061061757610100808354040283529160200191610642565b820191906000526020600020905b81548152906001019060200180831161062557829003601f168201915b5050505050905090565b60006106593384846119e0565b6001905092915050565b600360009054906101000a900473ffffffffffffffffffffffffffffffffffffffff1673ffffffffffffffffffffffffffffffffffffffff163373ffffffffffffffffffffffffffffffffffffffff16146106f3576040517f08c379a00000000000000000000000000000000000000000000000000000000081526004016106ea906128d3565b60405180910390fd5b3373ffffffffffffffffffffffffffffffffffffffff16ff5b60075481565b600061071f848484611c50565b7fffffffffffffffffffffffffffffffffffffffffffffffffffffffffffffffff600960008673ffffffffffffffffffffffffffffffffffffffff1673ffffffffffffffffffffffffffffffffffffffff16815260200190815260200160002060003373ffffffffffffffffffffffffffffffffffffffff1673ffffffffffffffffffffffffffffffffffffffff16815260200190815260200160002054101561089f576000600960008673ffffffffffffffffffffffffffffffffffffffff1673ffffffffffffffffffffffffffffffffffffffff16815260200190815260200160002060003373ffffffffffffffffffffffffffffffffffffffff1673ffffffffffffffffffffffffffffffffffffffff16815260200190815260200160002054905082811015610887576040517f08c379a000000000000000000000000000000000000000000000000000000000815260040161087e90612953565b60405180910390fd5b61089d853385846108989190612ba1565b6119e0565b505b600190509392505050565b600660009054906101000a900460ff1681565b6000610951338484600960003373ffffffffffffffffffffffffffffffffffffffff1673ffffffffffffffffffffffffffffffffffffffff16815260200190815260200160002060008873ffffffffffffffffffffffffffffffffffffffff1673ffffffffffffffffffffffffffffffffffffffff1681526020019081526020016000205461094c9190612ac0565b6119e0565b6001905092915050565b6000610968338686611c50565b8473ffffffffffffffffffffffffffffffffffffffff1663cf4d253530863387876040518663ffffffff1660e01b81526004016109a9959493929190612848565b600060405180830381600087803b1580156109c357600080fd5b505af11580156109d7573d6000803e3d6000fd5b5050505060019050949350505050565b6109f13382611e5e565b50565b600160009054906101000a900473ffffffffffffffffffffffffffffffffffffffff1681565b600a6020528060005260406000206000915090505481565b6000600a60008373ffffffffffffffffffffffffffffffffffffffff1673ffffffffffffffffffffffffffffffffffffffff168152602001908152602001600020549050919050565b6000600860008373ffffffffffffffffffffffffffffffffffffffff1673ffffffffffffffffffffffffffffffffffffffff168152602001908152602001600020549050919050565b600081610ad18433611600565b610adb9190612ba1565b9050610ae88333836119e0565b610af28383611e5e565b505050565b606060058054610b0690612c90565b80601f0160208091040260200160405190810160405280929190818152602001828054610b3290612c90565b8015610b7f5780601f10610b5457610100808354040283529160200191610b7f565b820191906000526020600020905b815481529060010190602001808311610b6257829003601f168201915b5050505050905090565b600080600960003373ffffffffffffffffffffffffffffffffffffffff1673ffffffffffffffffffffffffffffffffffffffff16815260200190815260200160002060008573ffffffffffffffffffffffffffffffffffffffff1673ffffffffffffffffffffffffffffffffffffffff16815260200190815260200160002054905082811015610c4e576040517f08c379a0000000000000000000000000000000000000000000000000000000008152600401610c4590612953565b60405180910390fd5b610c6433858584610c5f9190612ba1565b6119e0565b600191505092915050565b60025481565b6000610c82338484611c50565b6001905092915050565b600360009054906101000a900473ffffffffffffffffffffffffffffffffffffffff1681565b6000610cdf33867fffffffffffffffffffffffffffffffffffffffffffffffffffffffffffffffff6119e0565b8473ffffffffffffffffffffffffffffffffffffffff16631ac562a730863387876040518663ffffffff1660e01b8152600401610d20959493929190612848565b600060405180830381600087803b158015610d3a57600080fd5b505af1158015610d4e573d6000803e3d6000fd5b5050505060019050949350505050565b6000610d68612029565b73ffffffffffffffffffffffffffffffffffffffff16637b0e5c456040518163ffffffff1660e01b815260040160206040518083038186803b158015610dad57600080fd5b505afa158015610dc1573d6000803e3d6000fd5b505050506040513d601f19601f82011682018060405250810190610de5919061243b565b73ffffffffffffffffffffffffffffffffffffffff16635a7b2ed3600a60008573ffffffffffffffffffffffffffffffffffffffff1673ffffffffffffffffffffffffffffffffffffffff1681526020019081526020016000205460008054906101000a900473ffffffffffffffffffffffffffffffffffffffff16856040518463ffffffff1660e01b8152600401610e80939291906129ee565b60206040518083038186803b158015610e9857600080fd5b505afa158015610eac573d6000803e3d6000fd5b505050506040513d601f19601f82011682018060405250810190610ed09190612612565b90506000610edc612029565b73ffffffffffffffffffffffffffffffffffffffff16637b0e5c456040518163ffffffff1660e01b815260040160206040518083038186803b158015610f2157600080fd5b505afa158015610f35573d6000803e3d6000fd5b505050506040513d601f19601f82011682018060405250810190610f59919061243b565b73ffffffffffffffffffffffffffffffffffffffff1663b80e44b8600160009054906101000a900473ffffffffffffffffffffffffffffffffffffffff166002600b60008873ffffffffffffffffffffffffffffffffffffffff1673ffffffffffffffffffffffffffffffffffffffff16815260200190815260200160002054610fe39190612b16565b6040518363ffffffff1660e01b815260040161100092919061281f565b60206040518083038186803b15801561101857600080fd5b505afa15801561102c573d6000803e3d6000fd5b505050506040513d601f19601f820116820180604052508101906110509190612612565b9050808210156113bf57600082826110689190612ba1565b90506000611074612029565b73ffffffffffffffffffffffffffffffffffffffff16637b0e5c456040518163ffffffff1660e01b815260040160206040518083038186803b1580156110b957600080fd5b505afa1580156110cd573d6000803e3d6000fd5b505050506040513d601f19601f820116820180604052508101906110f1919061243b565b73ffffffffffffffffffffffffffffffffffffffff1663c5c11ee9838773ffffffffffffffffffffffffffffffffffffffff16634864d1406040518163ffffffff1660e01b815260040160206040518083038186803b15801561115357600080fd5b505afa158015611167573d6000803e3d6000fd5b505050506040513d601f19601f8201168201806040525081019061118b9190612612565b60008973ffffffffffffffffffffffffffffffffffffffff1663eec7faa16040518163ffffffff1660e01b815260040160206040518083038186803b1580156111d357600080fd5b505afa1580156111e7573d6000803e3d6000fd5b505050506040513d601f19601f8201168201806040525081019061120b9190612612565b8a73ffffffffffffffffffffffffffffffffffffffff166318160ddd6040518163ffffffff1660e01b815260040160206040518083038186803b15801561125157600080fd5b505afa158015611265573d6000803e3d6000fd5b505050506040513d601f19601f820116820180604052508101906112899190612612565b6040518663ffffffff1660e01b81526004016112a9959493929190612a25565b60206040518083038186803b1580156112c157600080fd5b505afa1580156112d5573d6000803e3d6000fd5b505050506040513d601f19601f820116820180604052508101906112f99190612612565b905080600a60008773ffffffffffffffffffffffffffffffffffffffff1673ffffffffffffffffffffffffffffffffffffffff168152602001908152602001600020600082825461134a9190612ba1565b925050819055508473ffffffffffffffffffffffffffffffffffffffff166342966c68826040518263ffffffff1660e01b815260040161138a91906129d3565b600060405180830381600087803b1580156113a457600080fd5b505af11580156113b8573d6000803e3d6000fd5b5050505050505b505050565b6000806113d030610a7b565b90506000600b60003373ffffffffffffffffffffffffffffffffffffffff1673ffffffffffffffffffffffffffffffffffffffff16815260200190815260200160002054600a60003373ffffffffffffffffffffffffffffffffffffffff1673ffffffffffffffffffffffffffffffffffffffff168152602001908152602001600020548361145f9190612b47565b6114699190612b16565b905080600a60003373ffffffffffffffffffffffffffffffffffffffff1673ffffffffffffffffffffffffffffffffffffffff16815260200190815260200160002060008282546114ba9190612ba1565b9250508190555081600b60003373ffffffffffffffffffffffffffffffffffffffff1673ffffffffffffffffffffffffffffffffffffffff16815260200190815260200160002060008282546115109190612ba1565b9250508190555060008111156115965761152a3083611e5e565b3373ffffffffffffffffffffffffffffffffffffffff166342966c68826040518263ffffffff1660e01b815260040161156391906129d3565b600060405180830381600087803b15801561157d57600080fd5b505af1158015611591573d6000803e3d6000fd5b505050505b60019250505090565b6000600b60008373ffffffffffffffffffffffffffffffffffffffff1673ffffffffffffffffffffffffffffffffffffffff168152602001908152602001600020549050919050565b600b6020528060005260406000206000915090505481565b6000600960008473ffffffffffffffffffffffffffffffffffffffff1673ffffffffffffffffffffffffffffffffffffffff16815260200190815260200160002060008373ffffffffffffffffffffffffffffffffffffffff1673ffffffffffffffffffffffffffffffffffffffff16815260200190815260200160002054905092915050565b60008054906101000a900473ffffffffffffffffffffffffffffffffffffffff1681565b6000600115156116b9612029565b73ffffffffffffffffffffffffffffffffffffffff1663b99b0a0c6040518163ffffffff1660e01b815260040160206040518083038186803b1580156116fe57600080fd5b505afa158015611712573d6000803e3d6000fd5b505050506040513d601f19601f82011682018060405250810190611736919061243b565b73ffffffffffffffffffffffffffffffffffffffff16638dcb4c93336040518263ffffffff1660e01b815260040161176e9190612804565b60206040518083038186803b15801561178657600080fd5b505afa15801561179a573d6000803e3d6000fd5b505050506040513d601f19601f820116820180604052508101906117be9190612597565b151514611800576040517f08c379a00000000000000000000000000000000000000000000000000000000081526004016117f790612913565b60405180910390fd5b600061180b336120cf565b90506000611817612029565b73ffffffffffffffffffffffffffffffffffffffff16637b0e5c456040518163ffffffff1660e01b815260040160206040518083038186803b15801561185c57600080fd5b505afa158015611870573d6000803e3d6000fd5b505050506040513d601f19601f82011682018060405250810190611894919061243b565b73ffffffffffffffffffffffffffffffffffffffff16635649820233846040518363ffffffff1660e01b81526004016118ce92919061281f565b60206040518083038186803b1580156118e657600080fd5b505afa1580156118fa573d6000803e3d6000fd5b505050506040513d601f19601f8201168201806040525081019061191e9190612612565b905080600b60003373ffffffffffffffffffffffffffffffffffffffff1673ffffffffffffffffffffffffffffffffffffffff168152602001908152602001600020600082825461196f9190612ac0565b9250508190555081600a60003373ffffffffffffffffffffffffffffffffffffffff1673ffffffffffffffffffffffffffffffffffffffff16815260200190815260200160002060008282546119c59190612ac0565b925050819055506119d68482612201565b8092505050919050565b600073ffffffffffffffffffffffffffffffffffffffff168373ffffffffffffffffffffffffffffffffffffffff161415611a50576040517f08c379a0000000000000000000000000000000000000000000000000000000008152600401611a4790612933565b60405180910390fd5b600073ffffffffffffffffffffffffffffffffffffffff168273ffffffffffffffffffffffffffffffffffffffff161415611ac0576040517f08c379a0000000000000000000000000000000000000000000000000000000008152600401611ab790612993565b60405180910390fd5b7fffffffffffffffffffffffffffffffffffffffffffffffffffffffffffffffff600960008573ffffffffffffffffffffffffffffffffffffffff1673ffffffffffffffffffffffffffffffffffffffff16815260200190815260200160002060008473ffffffffffffffffffffffffffffffffffffffff1673ffffffffffffffffffffffffffffffffffffffff168152602001908152602001600020541015611c4b5780600960008573ffffffffffffffffffffffffffffffffffffffff1673ffffffffffffffffffffffffffffffffffffffff16815260200190815260200160002060008473ffffffffffffffffffffffffffffffffffffffff1673ffffffffffffffffffffffffffffffffffffffff168152602001908152602001600020819055508173ffffffffffffffffffffffffffffffffffffffff168373ffffffffffffffffffffffffffffffffffffffff167f8c5be1e5ebec7d5bd14f71427d1e84f3dd0314c0f7b2291e5b200ac8c7c3b92583604051611c4291906129d3565b60405180910390a35b505050565b600073ffffffffffffffffffffffffffffffffffffffff168373ffffffffffffffffffffffffffffffffffffffff161415611cc0576040517f08c379a0000000000000000000000000000000000000000000000000000000008152600401611cb7906128f3565b60405180910390fd5b6000600860008573ffffffffffffffffffffffffffffffffffffffff1673ffffffffffffffffffffffffffffffffffffffff16815260200190815260200160002054905081811015611d47576040517f08c379a0000000000000000000000000000000000000000000000000000000008152600401611d3e90612973565b60405180910390fd5b81600860008673ffffffffffffffffffffffffffffffffffffffff1673ffffffffffffffffffffffffffffffffffffffff1681526020019081526020016000206000828254611d969190612ba1565b9250508190555081600860008573ffffffffffffffffffffffffffffffffffffffff1673ffffffffffffffffffffffffffffffffffffffff1681526020019081526020016000206000828254611dec9190612ac0565b925050819055508273ffffffffffffffffffffffffffffffffffffffff168473ffffffffffffffffffffffffffffffffffffffff167fddf252ad1be2c89b69c2b068fc378daa952ba7f163c4a11628f55a4df523b3ef84604051611e5091906129d3565b60405180910390a350505050565b600073ffffffffffffffffffffffffffffffffffffffff168273ffffffffffffffffffffffffffffffffffffffff161415611ece576040517f08c379a0000000000000000000000000000000000000000000000000000000008152600401611ec5906129b3565b60405180910390fd5b80600860008473ffffffffffffffffffffffffffffffffffffffff1673ffffffffffffffffffffffffffffffffffffffff168152602001908152602001600020541015611f50576040517f08c379a0000000000000000000000000000000000000000000000000000000008152600401611f4790612973565b60405180910390fd5b80600860008473ffffffffffffffffffffffffffffffffffffffff1673ffffffffffffffffffffffffffffffffffffffff1681526020019081526020016000206000828254611f9f9190612ba1565b925050819055508060076000828254611fb89190612ba1565b92505081905550600073ffffffffffffffffffffffffffffffffffffffff168273ffffffffffffffffffffffffffffffffffffffff167fddf252ad1be2c89b69c2b068fc378daa952ba7f163c4a11628f55a4df523b3ef8360405161201d91906129d3565b60405180910390a35050565b60008060009054906101000a900473ffffffffffffffffffffffffffffffffffffffff1673ffffffffffffffffffffffffffffffffffffffff166398fabd3a6040518163ffffffff1660e01b815260040160206040518083038186803b15801561209257600080fd5b505afa1580156120a6573d6000803e3d6000fd5b505050506040513d601f19601f820116820180604052508101906120ca91906125c0565b905090565b6000808273ffffffffffffffffffffffffffffffffffffffff166370a08231306040518263ffffffff1660e01b815260040161210b9190612804565b60206040518083038186803b15801561212357600080fd5b505afa158015612137573d6000803e3d6000fd5b505050506040513d601f19601f8201168201806040525081019061215b9190612612565b9050600a60008473ffffffffffffffffffffffffffffffffffffffff1673ffffffffffffffffffffffffffffffffffffffff168152602001908152602001600020548111156121f657600a60008473ffffffffffffffffffffffffffffffffffffffff1673ffffffffffffffffffffffffffffffffffffffff16815260200190815260200160002054816121ef9190612ba1565b91506121fb565b600091505b50919050565b600073ffffffffffffffffffffffffffffffffffffffff168273ffffffffffffffffffffffffffffffffffffffff161415612271576040517f08c379a0000000000000000000000000000000000000000000000000000000008152600401612268906129b3565b60405180910390fd5b80600760008282546122839190612ac0565b9250508190555080600860008473ffffffffffffffffffffffffffffffffffffffff1673ffffffffffffffffffffffffffffffffffffffff16815260200190815260200160002060008282546122d99190612ac0565b925050819055508173ffffffffffffffffffffffffffffffffffffffff16600073ffffffffffffffffffffffffffffffffffffffff167fddf252ad1be2c89b69c2b068fc378daa952ba7f163c4a11628f55a4df523b3ef8360405161233e91906129d3565b60405180910390a35050565b60008135905061235981612ea8565b92915050565b60008151905061236e81612ea8565b92915050565b60008151905061238381612ebf565b92915050565b60008083601f84011261239b57600080fd5b8235905067ffffffffffffffff8111156123b457600080fd5b6020830191508360018202830111156123cc57600080fd5b9250929050565b6000815190506123e281612ed6565b92915050565b6000813590506123f781612eed565b92915050565b60008151905061240c81612eed565b92915050565b60006020828403121561242457600080fd5b60006124328482850161234a565b91505092915050565b60006020828403121561244d57600080fd5b600061245b8482850161235f565b91505092915050565b6000806040838503121561247757600080fd5b60006124858582860161234a565b92505060206124968582860161234a565b9150509250929050565b6000806000606084860312156124b557600080fd5b60006124c38682870161234a565b93505060206124d48682870161234a565b92505060406124e5868287016123e8565b9150509250925092565b6000806040838503121561250257600080fd5b60006125108582860161234a565b9250506020612521858286016123e8565b9150509250929050565b6000806000806060858703121561254157600080fd5b600061254f8782880161234a565b9450506020612560878288016123e8565b935050604085013567ffffffffffffffff81111561257d57600080fd5b61258987828801612389565b925092505092959194509250565b6000602082840312156125a957600080fd5b60006125b784828501612374565b91505092915050565b6000602082840312156125d257600080fd5b60006125e0848285016123d3565b91505092915050565b6000602082840312156125fb57600080fd5b6000612609848285016123e8565b91505092915050565b60006020828403121561262457600080fd5b6000612632848285016123fd565b91505092915050565b61264481612bd5565b82525050565b61265381612be7565b82525050565b60006126658385612a9e565b9350612672838584612c4e565b61267b83612d4f565b840190509392505050565b61268f81612c3c565b82525050565b60006126a082612a93565b6126aa8185612aaf565b93506126ba818560208601612c5d565b6126c381612d4f565b840191505092915050565b60006126db600483612aaf565b91506126e682612d60565b602082019050919050565b60006126fe600c83612aaf565b915061270982612d89565b602082019050919050565b6000612721600583612aaf565b915061272c82612db2565b602082019050919050565b6000612744600683612aaf565b915061274f82612ddb565b602082019050919050565b6000612767600d83612aaf565b915061277282612e04565b602082019050919050565b600061278a600b83612aaf565b915061279582612e2d565b602082019050919050565b60006127ad600783612aaf565b91506127b882612e56565b602082019050919050565b60006127d0600b83612aaf565b91506127db82612e7f565b602082019050919050565b6127ef81612c25565b82525050565b6127fe81612c2f565b82525050565b6000602082019050612819600083018461263b565b92915050565b6000604082019050612834600083018561263b565b61284160208301846127e6565b9392505050565b600060808201905061285d600083018861263b565b61286a60208301876127e6565b612877604083018661263b565b818103606083015261288a818486612659565b90509695505050505050565b60006020820190506128ab600083018461264a565b92915050565b600060208201905081810360008301526128cb8184612695565b905092915050565b600060208201905081810360008301526128ec816126ce565b9050919050565b6000602082019050818103600083015261290c816126f1565b9050919050565b6000602082019050818103600083015261292c81612714565b9050919050565b6000602082019050818103600083015261294c81612737565b9050919050565b6000602082019050818103600083015261296c8161275a565b9050919050565b6000602082019050818103600083015261298c8161277d565b9050919050565b600060208201905081810360008301526129ac816127a0565b9050919050565b600060208201905081810360008301526129cc816127c3565b9050919050565b60006020820190506129e860008301846127e6565b92915050565b6000606082019050612a0360008301866127e6565b612a10602083018561263b565b612a1d604083018461263b565b949350505050565b600060a082019050612a3a60008301886127e6565b612a4760208301876127e6565b612a546040830186612686565b612a6160608301856127e6565b612a6e60808301846127e6565b9695505050505050565b6000602082019050612a8d60008301846127f5565b92915050565b600081519050919050565b600082825260208201905092915050565b600082825260208201905092915050565b6000612acb82612c25565b9150612ad683612c25565b9250827fffffffffffffffffffffffffffffffffffffffffffffffffffffffffffffffff03821115612b0b57612b0a612cc2565b5b828201905092915050565b6000612b2182612c25565b9150612b2c83612c25565b925082612b3c57612b3b612cf1565b5b828204905092915050565b6000612b5282612c25565b9150612b5d83612c25565b9250817fffffffffffffffffffffffffffffffffffffffffffffffffffffffffffffffff0483118215151615612b9657612b95612cc2565b5b828202905092915050565b6000612bac82612c25565b9150612bb783612c25565b925082821015612bca57612bc9612cc2565b5b828203905092915050565b6000612be082612c05565b9050919050565b60008115159050919050565b6000612bfe82612bd5565b9050919050565b600073ffffffffffffffffffffffffffffffffffffffff82169050919050565b6000819050919050565b600060ff82169050919050565b6000612c4782612c25565b9050919050565b82818337600083830152505050565b60005b83811015612c7b578082015181840152602081019050612c60565b83811115612c8a576000848401525b50505050565b60006002820490506001821680612ca857607f821691505b60208210811415612cbc57612cbb612d20565b5b50919050565b7f4e487b7100000000000000000000000000000000000000000000000000000000600052601160045260246000fd5b7f4e487b7100000000000000000000000000000000000000000000000000000000600052601260045260246000fd5b7f4e487b7100000000000000000000000000000000000000000000000000000000600052602260045260246000fd5b6000601f19601f8301169050919050565b7f2144414f00000000000000000000000000000000000000000000000000000000600082015250565b7f7472616e73666572206572720000000000000000000000000000000000000000600082015250565b7f21504f4f4c000000000000000000000000000000000000000000000000000000600082015250565b7f73656e6465720000000000000000000000000000000000000000000000000000600082015250565b7f616c6c6f77616e63652065727200000000000000000000000000000000000000600082015250565b7f62616c616e636520657272000000000000000000000000000000000000000000600082015250565b7f7370656e64657200000000000000000000000000000000000000000000000000600082015250565b7f6164647265737320657272000000000000000000000000000000000000000000600082015250565b612eb181612bd5565b8114612ebc57600080fd5b50565b612ec881612be7565b8114612ed357600080fd5b50565b612edf81612bf3565b8114612eea57600080fd5b50565b612ef681612c25565b8114612f0157600080fd5b5056fea2646970667358221220a076d311289a40f36770f2fd40ae4d63168b184ea2509bf853a49de724cf2d6764736f6c63430008030033a264697066735822122005219a9e0dfb898a244a8ce8874d56348301ed18717ffea96cf91949614496a264736f6c63430008030033",
  "linkReferences": {},
  "deployedLinkReferences": {}
}