{
  "_format": "hh-sol-artifact-1",
  "contractName": "SynthFactory",
  "sourceName": "contracts/synthFactory.sol",
  "abi": [
    {
      "inputs": [
        {
          "internalType": "address",
          "name": "_base",
          "type": "address"
        },
        {
          "internalType": "address",
          "name": "_wbnb",
          "type": "address"
        }
      ],
      "stateMutability": "nonpayable",
      "type": "constructor"
    },
    {
      "anonymous": false,
      "inputs": [
        {
          "indexed": true,
          "internalType": "address",
          "name": "token",
          "type": "address"
        },
        {
          "indexed": true,
          "internalType": "address",
          "name": "pool",
          "type": "address"
        },
        {
          "indexed": true,
          "internalType": "address",
          "name": "synth",
          "type": "address"
        }
      ],
      "name": "CreateSynth",
      "type": "event"
    },
    {
      "inputs": [],
      "name": "BASE",
      "outputs": [
        {
          "internalType": "address",
          "name": "",
          "type": "address"
        }
      ],
      "stateMutability": "view",
      "type": "function"
    },
    {
      "inputs": [],
      "name": "DEPLOYER",
      "outputs": [
        {
          "internalType": "address",
          "name": "",
          "type": "address"
        }
      ],
      "stateMutability": "view",
      "type": "function"
    },
    {
      "inputs": [],
      "name": "WBNB",
      "outputs": [
        {
          "internalType": "address",
          "name": "",
          "type": "address"
        }
      ],
      "stateMutability": "view",
      "type": "function"
    },
    {
      "inputs": [
        {
          "internalType": "address",
          "name": "_synth",
          "type": "address"
        }
      ],
      "name": "_addSynth",
      "outputs": [],
      "stateMutability": "nonpayable",
      "type": "function"
    },
    {
      "inputs": [
        {
          "internalType": "uint256",
          "name": "",
          "type": "uint256"
        }
      ],
      "name": "arraySynths",
      "outputs": [
        {
          "internalType": "address",
          "name": "",
          "type": "address"
        }
      ],
      "stateMutability": "view",
      "type": "function"
    },
    {
      "inputs": [
        {
          "internalType": "address",
          "name": "token",
          "type": "address"
        }
      ],
      "name": "createSynth",
      "outputs": [
        {
          "internalType": "address",
          "name": "synth",
          "type": "address"
        }
      ],
      "stateMutability": "nonpayable",
      "type": "function"
    },
    {
      "inputs": [
        {
          "internalType": "address",
          "name": "token",
          "type": "address"
        }
      ],
      "name": "getSynth",
      "outputs": [
        {
          "internalType": "address",
          "name": "synth",
          "type": "address"
        }
      ],
      "stateMutability": "view",
      "type": "function"
    },
    {
      "inputs": [
        {
          "internalType": "uint256",
          "name": "i",
          "type": "uint256"
        }
      ],
      "name": "getSynthsArray",
      "outputs": [
        {
          "internalType": "address",
          "name": "",
          "type": "address"
        }
      ],
      "stateMutability": "view",
      "type": "function"
    },
    {
      "inputs": [
        {
          "internalType": "address",
          "name": "",
          "type": "address"
        }
      ],
      "name": "isSynth",
      "outputs": [
        {
          "internalType": "bool",
          "name": "",
          "type": "bool"
        }
      ],
      "stateMutability": "view",
      "type": "function"
    },
    {
      "inputs": [
        {
          "internalType": "address",
          "name": "_token",
          "type": "address"
        }
      ],
      "name": "removeSynth",
      "outputs": [],
      "stateMutability": "nonpayable",
      "type": "function"
    },
    {
      "inputs": [],
      "name": "synthCount",
      "outputs": [
        {
          "internalType": "uint256",
          "name": "",
          "type": "uint256"
        }
      ],
      "stateMutability": "view",
      "type": "function"
    }
  ],
  "bytecode": "0x60c06040523480156200001157600080fd5b5060405162004c3a38038062004c3a8339818101604052810190620000379190620001ea565b600073ffffffffffffffffffffffffffffffffffffffff168273ffffffffffffffffffffffffffffffffffffffff161415620000aa576040517f08c379a0000000000000000000000000000000000000000000000000000000008152600401620000a19062000252565b60405180910390fd5b600073ffffffffffffffffffffffffffffffffffffffff168173ffffffffffffffffffffffffffffffffffffffff1614156200011d576040517f08c379a0000000000000000000000000000000000000000000000000000000008152600401620001149062000252565b60405180910390fd5b8173ffffffffffffffffffffffffffffffffffffffff1660808173ffffffffffffffffffffffffffffffffffffffff1660601b815250508073ffffffffffffffffffffffffffffffffffffffff1660a08173ffffffffffffffffffffffffffffffffffffffff1660601b81525050336000806101000a81548173ffffffffffffffffffffffffffffffffffffffff021916908373ffffffffffffffffffffffffffffffffffffffff1602179055505050620002fc565b600081519050620001e481620002e2565b92915050565b60008060408385031215620001fe57600080fd5b60006200020e85828601620001d3565b92505060206200022185828601620001d3565b9150509250929050565b60006200023a60058362000274565b91506200024782620002b9565b602082019050919050565b600060208201905081810360008301526200026d816200022b565b9050919050565b600082825260208201905092915050565b6000620002928262000299565b9050919050565b600073ffffffffffffffffffffffffffffffffffffffff82169050919050565b7f215a45524f000000000000000000000000000000000000000000000000000000600082015250565b620002ed8162000285565b8114620002f957600080fd5b50565b60805160601c60a05160601c6148f66200034460003960008181610a0201528181610ddf0152611053015260008181610e030152818161117f01526111a501526148f66000f3fe60806040523480156200001157600080fd5b5060043610620000b85760003560e01c8063c0d0a46c116200007b578063c0d0a46c1462000177578063c1b8411a14620001ad578063cf62480d14620001cf578063dcec81161462000205578063eb765955146200023b578063ec342ad0146200027157620000b8565b806335a7ede614620000bd5780634a1bc79314620000dd5780635e0237ea14620000fd57806378a45a2414620001335780638dd950021462000155575b600080fd5b620000db6004803603810190620000d59190620012cb565b62000293565b005b620000fb6004803603810190620000f59190620012cb565b6200073a565b005b6200011b6004803603810190620001159190620012cb565b620009d3565b6040516200012a9190620014a9565b60405180910390f35b6200013d620009f3565b6040516200014c91906200152c565b60405180910390f35b6200015f62000a00565b6040516200016e91906200144f565b60405180910390f35b6200019560048036038101906200018f91906200137b565b62000a24565b604051620001a491906200144f565b60405180910390f35b620001b762000a93565b604051620001c691906200144f565b60405180910390f35b620001ed6004803603810190620001e79190620012cb565b62000ab7565b604051620001fc91906200144f565b60405180910390f35b6200022360048036038101906200021d9190620012cb565b62001016565b6040516200023291906200144f565b60405180910390f35b6200025960048036038101906200025391906200137b565b6200113d565b6040516200026891906200144f565b60405180910390f35b6200027b6200117d565b6040516200028a91906200144f565b60405180910390f35b6200029d620011a1565b73ffffffffffffffffffffffffffffffffffffffff166398fabd3a6040518163ffffffff1660e01b815260040160206040518083038186803b158015620002e357600080fd5b505afa158015620002f8573d6000803e3d6000fd5b505050506040513d601f19601f820116820180604052508101906200031e9190620012f7565b73ffffffffffffffffffffffffffffffffffffffff163373ffffffffffffffffffffffffffffffffffffffff161480620003a3575060008054906101000a900473ffffffffffffffffffffffffffffffffffffffff1673ffffffffffffffffffffffffffffffffffffffff163373ffffffffffffffffffffffffffffffffffffffff16145b80620004645750620003b4620011a1565b73ffffffffffffffffffffffffffffffffffffffff1663b99b0a0c6040518163ffffffff1660e01b815260040160206040518083038186803b158015620003fa57600080fd5b505afa1580156200040f573d6000803e3d6000fd5b505050506040513d601f19601f82011682018060405250810190620004359190620012f7565b73ffffffffffffffffffffffffffffffffffffffff163373ffffffffffffffffffffffffffffffffffffffff16145b6200046e57600080fd5b60006200047b8262001016565b9050600073ffffffffffffffffffffffffffffffffffffffff168173ffffffffffffffffffffffffffffffffffffffff1614620007365760005b600180549050811015620006dc578173ffffffffffffffffffffffffffffffffffffffff166001828154811062000515577f4e487b7100000000000000000000000000000000000000000000000000000000600052603260045260246000fd5b9060005260206000200160009054906101000a900473ffffffffffffffffffffffffffffffffffffffff1673ffffffffffffffffffffffffffffffffffffffff161415620006c65760018080805490506200057191906200155a565b81548110620005a9577f4e487b7100000000000000000000000000000000000000000000000000000000600052603260045260246000fd5b9060005260206000200160009054906101000a900473ffffffffffffffffffffffffffffffffffffffff16600182815481106200060f577f4e487b7100000000000000000000000000000000000000000000000000000000600052603260045260246000fd5b9060005260206000200160006101000a81548173ffffffffffffffffffffffffffffffffffffffff021916908373ffffffffffffffffffffffffffffffffffffffff160217905550600180548062000690577f4e487b7100000000000000000000000000000000000000000000000000000000600052603160045260246000fd5b6001900381819060005260206000200160006101000a81549073ffffffffffffffffffffffffffffffffffffffff021916905590555b8080620006d390620015f3565b915050620004b5565b506000600360008373ffffffffffffffffffffffffffffffffffffffff1673ffffffffffffffffffffffffffffffffffffffff16815260200190815260200160002060006101000a81548160ff0219169083151502179055505b5050565b62000744620011a1565b73ffffffffffffffffffffffffffffffffffffffff166398fabd3a6040518163ffffffff1660e01b815260040160206040518083038186803b1580156200078a57600080fd5b505afa1580156200079f573d6000803e3d6000fd5b505050506040513d601f19601f82011682018060405250810190620007c59190620012f7565b73ffffffffffffffffffffffffffffffffffffffff163373ffffffffffffffffffffffffffffffffffffffff1614806200084a575060008054906101000a900473ffffffffffffffffffffffffffffffffffffffff1673ffffffffffffffffffffffffffffffffffffffff163373ffffffffffffffffffffffffffffffffffffffff16145b806200090b57506200085b620011a1565b73ffffffffffffffffffffffffffffffffffffffff1663b99b0a0c6040518163ffffffff1660e01b815260040160206040518083038186803b158015620008a157600080fd5b505afa158015620008b6573d6000803e3d6000fd5b505050506040513d601f19601f82011682018060405250810190620008dc9190620012f7565b73ffffffffffffffffffffffffffffffffffffffff163373ffffffffffffffffffffffffffffffffffffffff16145b6200091557600080fd5b6001819080600181540180825580915050600190039060005260206000200160009091909190916101000a81548173ffffffffffffffffffffffffffffffffffffffff021916908373ffffffffffffffffffffffffffffffffffffffff1602179055506001600360008373ffffffffffffffffffffffffffffffffffffffff1673ffffffffffffffffffffffffffffffffffffffff16815260200190815260200160002060006101000a81548160ff02191690831515021790555050565b60036020528060005260406000206000915054906101000a900460ff1681565b6000600180549050905090565b7f000000000000000000000000000000000000000000000000000000000000000081565b60006001828154811062000a61577f4e487b7100000000000000000000000000000000000000000000000000000000600052603260045260246000fd5b9060005260206000200160009054906101000a900473ffffffffffffffffffffffffffffffffffffffff169050919050565b60008054906101000a900473ffffffffffffffffffffffffffffffffffffffff1681565b60008062000ac4620011a1565b73ffffffffffffffffffffffffffffffffffffffff1663b99b0a0c6040518163ffffffff1660e01b815260040160206040518083038186803b15801562000b0a57600080fd5b505afa15801562000b1f573d6000803e3d6000fd5b505050506040513d601f19601f8201168201806040525081019062000b459190620012f7565b9050600073ffffffffffffffffffffffffffffffffffffffff1662000b6a8462001016565b73ffffffffffffffffffffffffffffffffffffffff161462000bc3576040517f08c379a000000000000000000000000000000000000000000000000000000000815260040162000bba90620014c6565b60405180910390fd5b60008173ffffffffffffffffffffffffffffffffffffffff1663bbe4f6db856040518263ffffffff1660e01b815260040162000c0091906200144f565b60206040518083038186803b15801562000c1957600080fd5b505afa15801562000c2e573d6000803e3d6000fd5b505050506040513d601f19601f8201168201806040525081019062000c549190620012f7565b9050600073ffffffffffffffffffffffffffffffffffffffff168173ffffffffffffffffffffffffffffffffffffffff16141562000cc9576040517f08c379a000000000000000000000000000000000000000000000000000000000815260040162000cc090620014e8565b60405180910390fd5b600115158273ffffffffffffffffffffffffffffffffffffffff16638dcb4c93836040518263ffffffff1660e01b815260040162000d0891906200144f565b60206040518083038186803b15801562000d2157600080fd5b505afa15801562000d36573d6000803e3d6000fd5b505050506040513d601f19601f8201168201806040525081019062000d5c919062001323565b15151462000da1576040517f08c379a000000000000000000000000000000000000000000000000000000000815260040162000d98906200150a565b60405180910390fd5b600080859050600073ffffffffffffffffffffffffffffffffffffffff168673ffffffffffffffffffffffffffffffffffffffff16141562000e01577f000000000000000000000000000000000000000000000000000000000000000090505b7f0000000000000000000000000000000000000000000000000000000000000000818460405162000e32906200124a565b62000e40939291906200146c565b604051809103906000f08015801562000e5d573d6000803e3d6000fd5b50915081945084600260008373ffffffffffffffffffffffffffffffffffffffff1673ffffffffffffffffffffffffffffffffffffffff16815260200190815260200160002060006101000a81548173ffffffffffffffffffffffffffffffffffffffff021916908373ffffffffffffffffffffffffffffffffffffffff1602179055506001859080600181540180825580915050600190039060005260206000200160009091909190916101000a81548173ffffffffffffffffffffffffffffffffffffffff021916908373ffffffffffffffffffffffffffffffffffffffff1602179055506001600360008773ffffffffffffffffffffffffffffffffffffffff1673ffffffffffffffffffffffffffffffffffffffff16815260200190815260200160002060006101000a81548160ff0219169083151502179055508473ffffffffffffffffffffffffffffffffffffffff168373ffffffffffffffffffffffffffffffffffffffff168273ffffffffffffffffffffffffffffffffffffffff167f2fd51d4b47ee0b6a8bcfc97dff79e4fe2647bb76a585dee3f98619b2694bd77160405160405180910390a450505050919050565b60008073ffffffffffffffffffffffffffffffffffffffff168273ffffffffffffffffffffffffffffffffffffffff161415620010d557600260007f000000000000000000000000000000000000000000000000000000000000000073ffffffffffffffffffffffffffffffffffffffff1673ffffffffffffffffffffffffffffffffffffffff16815260200190815260200160002060009054906101000a900473ffffffffffffffffffffffffffffffffffffffff16905062001138565b600260008373ffffffffffffffffffffffffffffffffffffffff1673ffffffffffffffffffffffffffffffffffffffff16815260200190815260200160002060009054906101000a900473ffffffffffffffffffffffffffffffffffffffff1690505b919050565b600181815481106200114e57600080fd5b906000526020600020016000915054906101000a900473ffffffffffffffffffffffffffffffffffffffff1681565b7f000000000000000000000000000000000000000000000000000000000000000081565b60007f000000000000000000000000000000000000000000000000000000000000000073ffffffffffffffffffffffffffffffffffffffff166398fabd3a6040518163ffffffff1660e01b815260040160206040518083038186803b1580156200120a57600080fd5b505afa1580156200121f573d6000803e3d6000fd5b505050506040513d601f19601f820116820180604052508101906200124591906200134f565b905090565b61316d806200175483390190565b6000813590506200126981620016eb565b92915050565b6000815190506200128081620016eb565b92915050565b600081519050620012978162001705565b92915050565b600081519050620012ae816200171f565b92915050565b600081359050620012c58162001739565b92915050565b600060208284031215620012de57600080fd5b6000620012ee8482850162001258565b91505092915050565b6000602082840312156200130a57600080fd5b60006200131a848285016200126f565b91505092915050565b6000602082840312156200133657600080fd5b6000620013468482850162001286565b91505092915050565b6000602082840312156200136257600080fd5b600062001372848285016200129d565b91505092915050565b6000602082840312156200138e57600080fd5b60006200139e84828501620012b4565b91505092915050565b620013b28162001595565b82525050565b620013c381620015a9565b82525050565b6000620013d860068362001549565b9150620013e58262001670565b602082019050919050565b6000620013ff60058362001549565b91506200140c8262001699565b602082019050919050565b60006200142660088362001549565b91506200143382620016c2565b602082019050919050565b6200144981620015e9565b82525050565b6000602082019050620014666000830184620013a7565b92915050565b6000606082019050620014836000830186620013a7565b620014926020830185620013a7565b620014a16040830184620013a7565b949350505050565b6000602082019050620014c06000830184620013b8565b92915050565b60006020820190508181036000830152620014e181620013c9565b9050919050565b600060208201905081810360008301526200150381620013f0565b9050919050565b60006020820190508181036000830152620015258162001417565b9050919050565b60006020820190506200154360008301846200143e565b92915050565b600082825260208201905092915050565b60006200156782620015e9565b91506200157483620015e9565b9250828210156200158a576200158962001641565b5b828203905092915050565b6000620015a282620015c9565b9050919050565b60008115159050919050565b6000620015c28262001595565b9050919050565b600073ffffffffffffffffffffffffffffffffffffffff82169050919050565b6000819050919050565b60006200160082620015e9565b91507fffffffffffffffffffffffffffffffffffffffffffffffffffffffffffffffff82141562001636576200163562001641565b5b600182019050919050565b7f4e487b7100000000000000000000000000000000000000000000000000000000600052601160045260246000fd5b7f6578697374730000000000000000000000000000000000000000000000000000600082015250565b7f21504f4f4c000000000000000000000000000000000000000000000000000000600082015250565b7f2163757261746564000000000000000000000000000000000000000000000000600082015250565b620016f68162001595565b81146200170257600080fd5b50565b6200171081620015a9565b81146200171c57600080fd5b50565b6200172a81620015b5565b81146200173657600080fd5b50565b6200174481620015e9565b81146200175057600080fd5b5056fe6101006040523480156200001257600080fd5b506040516200316d3803806200316d8339818101604052810190620000389190620004d4565b8273ffffffffffffffffffffffffffffffffffffffff1660808173ffffffffffffffffffffffffffffffffffffffff1660601b815250508173ffffffffffffffffffffffffffffffffffffffff1660a08173ffffffffffffffffffffffffffffffffffffffff1660601b815250508073ffffffffffffffffffffffffffffffffffffffff1660c08173ffffffffffffffffffffffffffffffffffffffff1660601b8152505060006040518060400160405280601581526020017f2d5370617274616e50726f746f636f6c53796e74680000000000000000000000815250905060006040518060400160405280600481526020017f2d5350530000000000000000000000000000000000000000000000000000000081525090508373ffffffffffffffffffffffffffffffffffffffff166306fdde036040518163ffffffff1660e01b815260040160006040518083038186803b1580156200019857600080fd5b505afa158015620001ad573d6000803e3d6000fd5b505050506040513d6000823e3d601f19601f82011682018060405250810190620001d891906200052a565b82604051602001620001ec929190620005d2565b604051602081830303815290604052600190805190602001906200021292919062000384565b508373ffffffffffffffffffffffffffffffffffffffff166395d89b416040518163ffffffff1660e01b815260040160006040518083038186803b1580156200025a57600080fd5b505afa1580156200026f573d6000803e3d6000fd5b505050506040513d6000823e3d601f19601f820116820180604052508101906200029a91906200052a565b81604051602001620002ae929190620005d2565b60405160208183030381529060405260029080519060200190620002d492919062000384565b508373ffffffffffffffffffffffffffffffffffffffff1663313ce5676040518163ffffffff1660e01b815260040160206040518083038186803b1580156200031c57600080fd5b505afa15801562000331573d6000803e3d6000fd5b505050506040513d601f19601f820116820180604052508101906200035791906200056f565b600360006101000a81548160ff021916908360ff1602179055504260e081815250505050505050620007f5565b8280546200039290620006e6565b90600052602060002090601f016020900481019282620003b6576000855562000402565b82601f10620003d157805160ff191683800117855562000402565b8280016001018555821562000402579182015b8281111562000401578251825591602001919060010190620003e4565b5b50905062000411919062000415565b5090565b5b808211156200043057600081600090555060010162000416565b5090565b60006200044b620004458462000623565b620005fa565b9050828152602081018484840111156200046457600080fd5b62000471848285620006b0565b509392505050565b6000815190506200048a81620007c1565b92915050565b600082601f830112620004a257600080fd5b8151620004b484826020860162000434565b91505092915050565b600081519050620004ce81620007db565b92915050565b600080600060608486031215620004ea57600080fd5b6000620004fa8682870162000479565b93505060206200050d8682870162000479565b9250506040620005208682870162000479565b9150509250925092565b6000602082840312156200053d57600080fd5b600082015167ffffffffffffffff8111156200055857600080fd5b620005668482850162000490565b91505092915050565b6000602082840312156200058257600080fd5b60006200059284828501620004bd565b91505092915050565b6000620005a88262000659565b620005b4818562000664565b9350620005c6818560208601620006b0565b80840191505092915050565b6000620005e082856200059b565b9150620005ee82846200059b565b91508190509392505050565b60006200060662000619565b90506200061482826200071c565b919050565b6000604051905090565b600067ffffffffffffffff82111562000641576200064062000781565b5b6200064c82620007b0565b9050602081019050919050565b600081519050919050565b600081905092915050565b60006200067c8262000683565b9050919050565b600073ffffffffffffffffffffffffffffffffffffffff82169050919050565b600060ff82169050919050565b60005b83811015620006d0578082015181840152602081019050620006b3565b83811115620006e0576000848401525b50505050565b60006002820490506001821680620006ff57607f821691505b6020821081141562000716576200071562000752565b5b50919050565b6200072782620007b0565b810181811067ffffffffffffffff8211171562000749576200074862000781565b5b80604052505050565b7f4e487b7100000000000000000000000000000000000000000000000000000000600052602260045260246000fd5b7f4e487b7100000000000000000000000000000000000000000000000000000000600052604160045260246000fd5b6000601f19601f8301169050919050565b620007cc816200066f565b8114620007d857600080fd5b50565b620007e681620006a3565b8114620007f257600080fd5b50565b60805160601c60a05160601c60c05160601c60e0516128ef6200087e6000396000611427015260008181610648015281816108b901528181610961015281816109ec01528181610b6a01528181610c9801528181610fdc01528181611026015261115401526000611000015260008181610627015281816114ef01526116e001526128ef6000f3fe608060405234801561001057600080fd5b506004361061012c5760003560e01c80637535d246116100ad578063a7f0b3de11610071578063a7f0b3de1461035b578063a9059cbb14610379578063d8dfeb45146103a9578063dd62ed3e146103c7578063ec342ad0146103f75761012c565b80637535d246146102a157806382bfefc8146102bf57806386450495146102dd57806395d89b411461030d578063a457c2d71461032b5761012c565b8063313ce567116100f4578063313ce567146101d757806332f302e3146101f5578063395093511461022557806342966c681461025557806370a08231146102715761012c565b806306fdde0314610131578063095ea7b31461014f57806318160ddd1461017f578063224b2a5b1461019d57806323b872dd146101a7575b600080fd5b610139610415565b6040516101469190612230565b60405180910390f35b61016960048036038101906101649190611f1e565b6104a7565b6040516101769190612215565b60405180910390f35b6101876104be565b6040516101949190612392565b60405180910390f35b6101a56104c4565b005b6101c160048036038101906101bc9190611ecf565b610a60565b6040516101ce9190612215565b60405180910390f35b6101df610b53565b6040516101ec919061240d565b60405180910390f35b61020f600480360381019061020a9190611f1e565b610b66565b60405161021c9190612392565b60405180910390f35b61023f600480360381019061023a9190611f1e565b610ef0565b60405161024c9190612215565b60405180910390f35b61026f600480360381019061026a9190611fac565b610f8e565b005b61028b60048036038101906102869190611e41565b610f91565b6040516102989190612392565b60405180910390f35b6102a9610fda565b6040516102b691906121d1565b60405180910390f35b6102c7610ffe565b6040516102d491906121d1565b60405180910390f35b6102f760048036038101906102f29190611fac565b611022565b6040516103049190612392565b60405180910390f35b6103156112ad565b6040516103229190612230565b60405180910390f35b61034560048036038101906103409190611f1e565b61133f565b6040516103529190612215565b60405180910390f35b610363611425565b6040516103709190612392565b60405180910390f35b610393600480360381019061038e9190611f1e565b611449565b6040516103a09190612215565b60405180910390f35b6103b1611460565b6040516103be9190612392565b60405180910390f35b6103e160048036038101906103dc9190611e93565b611466565b6040516103ee9190612392565b60405180910390f35b6103ff6114ed565b60405161040c91906121d1565b60405180910390f35b606060018054610424906125f3565b80601f0160208091040260200160405190810160405280929190818152602001828054610450906125f3565b801561049d5780601f106104725761010080835404028352916020019161049d565b820191906000526020600020905b81548152906001019060200180831161048057829003601f168201915b5050505050905090565b60006104b4338484611511565b6001905092915050565b60045481565b6104cc6116dc565b73ffffffffffffffffffffffffffffffffffffffff166398fabd3a6040518163ffffffff1660e01b815260040160206040518083038186803b15801561051157600080fd5b505afa158015610525573d6000803e3d6000fd5b505050506040513d601f19601f820116820180604052508101906105499190611e6a565b73ffffffffffffffffffffffffffffffffffffffff163373ffffffffffffffffffffffffffffffffffffffff161461058057600080fd5b600061058a6116dc565b73ffffffffffffffffffffffffffffffffffffffff16637b0e5c456040518163ffffffff1660e01b815260040160206040518083038186803b1580156105cf57600080fd5b505afa1580156105e3573d6000803e3d6000fd5b505050506040513d601f19601f820116820180604052508101906106079190611e6a565b73ffffffffffffffffffffffffffffffffffffffff16635a7b2ed36000547f00000000000000000000000000000000000000000000000000000000000000007f00000000000000000000000000000000000000000000000000000000000000006040518463ffffffff1660e01b8152600401610685939291906123d6565b60206040518083038186803b15801561069d57600080fd5b505afa1580156106b1573d6000803e3d6000fd5b505050506040513d601f19601f820116820180604052508101906106d59190611fd5565b905060006106e16116dc565b73ffffffffffffffffffffffffffffffffffffffff16637b0e5c456040518163ffffffff1660e01b815260040160206040518083038186803b15801561072657600080fd5b505afa15801561073a573d6000803e3d6000fd5b505050506040513d601f19601f8201168201806040525081019061075e9190611e6a565b73ffffffffffffffffffffffffffffffffffffffff16636c5054d0306004546040518363ffffffff1660e01b815260040161079a9291906121ec565b60206040518083038186803b1580156107b257600080fd5b505afa1580156107c6573d6000803e3d6000fd5b505050506040513d601f19601f820116820180604052508101906107ea9190611fd5565b905080821115610a5c57600081836108029190612525565b9050670de0b6b3a7640000811115610a5a57600061081e6116dc565b73ffffffffffffffffffffffffffffffffffffffff16637b0e5c456040518163ffffffff1660e01b815260040160206040518083038186803b15801561086357600080fd5b505afa158015610877573d6000803e3d6000fd5b505050506040513d601f19601f8201168201806040525081019061089b9190611e6a565b73ffffffffffffffffffffffffffffffffffffffff1663b86a82ef837f00000000000000000000000000000000000000000000000000000000000000006040518363ffffffff1660e01b81526004016108f59291906123ad565b60206040518083038186803b15801561090d57600080fd5b505afa158015610921573d6000803e3d6000fd5b505050506040513d601f19601f820116820180604052508101906109459190611fd5565b9050806000808282546109589190612525565b925050819055507f000000000000000000000000000000000000000000000000000000000000000073ffffffffffffffffffffffffffffffffffffffff166342966c68826040518263ffffffff1660e01b81526004016109b89190612392565b600060405180830381600087803b1580156109d257600080fd5b505af11580156109e6573d6000803e3d6000fd5b505050507f000000000000000000000000000000000000000000000000000000000000000073ffffffffffffffffffffffffffffffffffffffff167f25624723cb36c0b927a6a14c74044dac7e7e06e0ff4b7b4a8a16e7973df3e9b582604051610a509190612392565b60405180910390a2505b505b5050565b6000610a6d848484611781565b6000600660008673ffffffffffffffffffffffffffffffffffffffff1673ffffffffffffffffffffffffffffffffffffffff16815260200190815260200160002060003373ffffffffffffffffffffffffffffffffffffffff1673ffffffffffffffffffffffffffffffffffffffff16815260200190815260200160002054905082811015610b31576040517f08c379a0000000000000000000000000000000000000000000000000000000008152600401610b2890612292565b60405180910390fd5b610b4785338584610b429190612525565b611511565b60019150509392505050565b600360009054906101000a900460ff1681565b60007f000000000000000000000000000000000000000000000000000000000000000073ffffffffffffffffffffffffffffffffffffffff163373ffffffffffffffffffffffffffffffffffffffff1614610bf6576040517f08c379a0000000000000000000000000000000000000000000000000000000008152600401610bed90612252565b60405180910390fd5b610bfe6116dc565b73ffffffffffffffffffffffffffffffffffffffff1663b99b0a0c6040518163ffffffff1660e01b815260040160206040518083038186803b158015610c4357600080fd5b505afa158015610c57573d6000803e3d6000fd5b505050506040513d601f19601f82011682018060405250810190610c7b9190611e6a565b73ffffffffffffffffffffffffffffffffffffffff16635b16ebb77f00000000000000000000000000000000000000000000000000000000000000006040518263ffffffff1660e01b8152600401610cd391906121d1565b602060405180830381600087803b158015610ced57600080fd5b505af1158015610d01573d6000803e3d6000fd5b505050506040513d601f19601f82011682018060405250810190610d259190611f5a565b610d64576040517f08c379a0000000000000000000000000000000000000000000000000000000008152600401610d5b90612252565b60405180910390fd5b60011515610d706116dc565b73ffffffffffffffffffffffffffffffffffffffff1663b99b0a0c6040518163ffffffff1660e01b815260040160206040518083038186803b158015610db557600080fd5b505afa158015610dc9573d6000803e3d6000fd5b505050506040513d601f19601f82011682018060405250810190610ded9190611e6a565b73ffffffffffffffffffffffffffffffffffffffff16638dcb4c93336040518263ffffffff1660e01b8152600401610e2591906121d1565b60206040518083038186803b158015610e3d57600080fd5b505afa158015610e51573d6000803e3d6000fd5b505050506040513d601f19601f82011682018060405250810190610e759190611f5a565b151514610eb7576040517f08c379a0000000000000000000000000000000000000000000000000000000008152600401610eae90612352565b60405180910390fd5b6000610ec2336119f8565b905080600080828254610ed59190612444565b92505081905550610ee68484611ab0565b8291505092915050565b6000610f84338484600660003373ffffffffffffffffffffffffffffffffffffffff1673ffffffffffffffffffffffffffffffffffffffff16815260200190815260200160002060008873ffffffffffffffffffffffffffffffffffffffff1673ffffffffffffffffffffffffffffffffffffffff16815260200190815260200160002054610f7f9190612444565b611511565b6001905092915050565b50565b6000600560008373ffffffffffffffffffffffffffffffffffffffff1673ffffffffffffffffffffffffffffffffffffffff168152602001908152602001600020549050919050565b7f000000000000000000000000000000000000000000000000000000000000000081565b7f000000000000000000000000000000000000000000000000000000000000000081565b60007f000000000000000000000000000000000000000000000000000000000000000073ffffffffffffffffffffffffffffffffffffffff163373ffffffffffffffffffffffffffffffffffffffff16146110b2576040517f08c379a00000000000000000000000000000000000000000000000000000000081526004016110a990612252565b60405180910390fd5b6110ba6116dc565b73ffffffffffffffffffffffffffffffffffffffff1663b99b0a0c6040518163ffffffff1660e01b815260040160206040518083038186803b1580156110ff57600080fd5b505afa158015611113573d6000803e3d6000fd5b505050506040513d601f19601f820116820180604052508101906111379190611e6a565b73ffffffffffffffffffffffffffffffffffffffff16635b16ebb77f00000000000000000000000000000000000000000000000000000000000000006040518263ffffffff1660e01b815260040161118f91906121d1565b602060405180830381600087803b1580156111a957600080fd5b505af11580156111bd573d6000803e3d6000fd5b505050506040513d601f19601f820116820180604052508101906111e19190611f5a565b611220576040517f08c379a000000000000000000000000000000000000000000000000000000000815260040161121790612252565b60405180910390fd5b60008211611263576040517f08c379a000000000000000000000000000000000000000000000000000000000815260040161125a906122b2565b60405180910390fd5b60006004546000548461127691906124cb565b611280919061249a565b9050806000808282546112939190612525565b925050819055506112a43384611bf9565b80915050919050565b6060600280546112bc906125f3565b80601f01602080910402602001604051908101604052809291908181526020018280546112e8906125f3565b80156113355780601f1061130a57610100808354040283529160200191611335565b820191906000526020600020905b81548152906001019060200180831161131857829003601f168201915b5050505050905090565b600080600660003373ffffffffffffffffffffffffffffffffffffffff1673ffffffffffffffffffffffffffffffffffffffff16815260200190815260200160002060008573ffffffffffffffffffffffffffffffffffffffff1673ffffffffffffffffffffffffffffffffffffffff16815260200190815260200160002054905082811015611404576040517f08c379a00000000000000000000000000000000000000000000000000000000081526004016113fb90612292565b60405180910390fd5b61141a338585846114159190612525565b611511565b600191505092915050565b7f000000000000000000000000000000000000000000000000000000000000000081565b6000611456338484611781565b6001905092915050565b60005481565b6000600660008473ffffffffffffffffffffffffffffffffffffffff1673ffffffffffffffffffffffffffffffffffffffff16815260200190815260200160002060008373ffffffffffffffffffffffffffffffffffffffff1673ffffffffffffffffffffffffffffffffffffffff16815260200190815260200160002054905092915050565b7f000000000000000000000000000000000000000000000000000000000000000081565b600073ffffffffffffffffffffffffffffffffffffffff168373ffffffffffffffffffffffffffffffffffffffff161415611581576040517f08c379a000000000000000000000000000000000000000000000000000000000815260040161157890612372565b60405180910390fd5b600073ffffffffffffffffffffffffffffffffffffffff168273ffffffffffffffffffffffffffffffffffffffff1614156115f1576040517f08c379a00000000000000000000000000000000000000000000000000000000081526004016115e890612312565b60405180910390fd5b80600660008573ffffffffffffffffffffffffffffffffffffffff1673ffffffffffffffffffffffffffffffffffffffff16815260200190815260200160002060008473ffffffffffffffffffffffffffffffffffffffff1673ffffffffffffffffffffffffffffffffffffffff168152602001908152602001600020819055508173ffffffffffffffffffffffffffffffffffffffff168373ffffffffffffffffffffffffffffffffffffffff167f8c5be1e5ebec7d5bd14f71427d1e84f3dd0314c0f7b2291e5b200ac8c7c3b925836040516116cf9190612392565b60405180910390a3505050565b60007f000000000000000000000000000000000000000000000000000000000000000073ffffffffffffffffffffffffffffffffffffffff166398fabd3a6040518163ffffffff1660e01b815260040160206040518083038186803b15801561174457600080fd5b505afa158015611758573d6000803e3d6000fd5b505050506040513d601f19601f8201168201806040525081019061177c9190611f83565b905090565b600073ffffffffffffffffffffffffffffffffffffffff168373ffffffffffffffffffffffffffffffffffffffff1614156117f1576040517f08c379a00000000000000000000000000000000000000000000000000000000081526004016117e890612332565b60405180910390fd5b600073ffffffffffffffffffffffffffffffffffffffff168273ffffffffffffffffffffffffffffffffffffffff161415611861576040517f08c379a0000000000000000000000000000000000000000000000000000000008152600401611858906122f2565b60405180910390fd5b6000600560008573ffffffffffffffffffffffffffffffffffffffff1673ffffffffffffffffffffffffffffffffffffffff168152602001908152602001600020549050818110156118e8576040517f08c379a00000000000000000000000000000000000000000000000000000000081526004016118df906122d2565b60405180910390fd5b81816118f49190612525565b600560008673ffffffffffffffffffffffffffffffffffffffff1673ffffffffffffffffffffffffffffffffffffffff1681526020019081526020016000208190555081600560008573ffffffffffffffffffffffffffffffffffffffff1673ffffffffffffffffffffffffffffffffffffffff16815260200190815260200160002060008282546119869190612444565b925050819055508273ffffffffffffffffffffffffffffffffffffffff168473ffffffffffffffffffffffffffffffffffffffff167fddf252ad1be2c89b69c2b068fc378daa952ba7f163c4a11628f55a4df523b3ef846040516119ea9190612392565b60405180910390a350505050565b6000808273ffffffffffffffffffffffffffffffffffffffff166370a08231306040518263ffffffff1660e01b8152600401611a3491906121d1565b60206040518083038186803b158015611a4c57600080fd5b505afa158015611a60573d6000803e3d6000fd5b505050506040513d601f19601f82011682018060405250810190611a849190611fd5565b9050600054811115611aa55760005481611a9e9190612525565b9150611aaa565b600091505b50919050565b600073ffffffffffffffffffffffffffffffffffffffff168273ffffffffffffffffffffffffffffffffffffffff161415611b20576040517f08c379a0000000000000000000000000000000000000000000000000000000008152600401611b1790612272565b60405180910390fd5b8060046000828254611b329190612444565b9250508190555080600560008473ffffffffffffffffffffffffffffffffffffffff1673ffffffffffffffffffffffffffffffffffffffff1681526020019081526020016000206000828254611b889190612444565b925050819055508173ffffffffffffffffffffffffffffffffffffffff16600073ffffffffffffffffffffffffffffffffffffffff167fddf252ad1be2c89b69c2b068fc378daa952ba7f163c4a11628f55a4df523b3ef83604051611bed9190612392565b60405180910390a35050565b600073ffffffffffffffffffffffffffffffffffffffff168273ffffffffffffffffffffffffffffffffffffffff161415611c69576040517f08c379a0000000000000000000000000000000000000000000000000000000008152600401611c6090612272565b60405180910390fd5b6000600560008473ffffffffffffffffffffffffffffffffffffffff1673ffffffffffffffffffffffffffffffffffffffff16815260200190815260200160002054905081811015611cf0576040517f08c379a0000000000000000000000000000000000000000000000000000000008152600401611ce7906122d2565b60405180910390fd5b8181611cfc9190612525565b600560008573ffffffffffffffffffffffffffffffffffffffff1673ffffffffffffffffffffffffffffffffffffffff168152602001908152602001600020819055508160046000828254611d519190612525565b92505081905550600073ffffffffffffffffffffffffffffffffffffffff168373ffffffffffffffffffffffffffffffffffffffff167fddf252ad1be2c89b69c2b068fc378daa952ba7f163c4a11628f55a4df523b3ef84604051611db69190612392565b60405180910390a3505050565b600081359050611dd28161285d565b92915050565b600081519050611de78161285d565b92915050565b600081519050611dfc81612874565b92915050565b600081519050611e118161288b565b92915050565b600081359050611e26816128a2565b92915050565b600081519050611e3b816128a2565b92915050565b600060208284031215611e5357600080fd5b6000611e6184828501611dc3565b91505092915050565b600060208284031215611e7c57600080fd5b6000611e8a84828501611dd8565b91505092915050565b60008060408385031215611ea657600080fd5b6000611eb485828601611dc3565b9250506020611ec585828601611dc3565b9150509250929050565b600080600060608486031215611ee457600080fd5b6000611ef286828701611dc3565b9350506020611f0386828701611dc3565b9250506040611f1486828701611e17565b9150509250925092565b60008060408385031215611f3157600080fd5b6000611f3f85828601611dc3565b9250506020611f5085828601611e17565b9150509250929050565b600060208284031215611f6c57600080fd5b6000611f7a84828501611ded565b91505092915050565b600060208284031215611f9557600080fd5b6000611fa384828501611e02565b91505092915050565b600060208284031215611fbe57600080fd5b6000611fcc84828501611e17565b91505092915050565b600060208284031215611fe757600080fd5b6000611ff584828501611e2c565b91505092915050565b61200781612559565b82525050565b6120168161256b565b82525050565b600061202782612428565b6120318185612433565b93506120418185602086016125c0565b61204a816126b2565b840191505092915050565b6000612062600583612433565b915061206d826126c3565b602082019050919050565b6000612085600883612433565b9150612090826126ec565b602082019050919050565b60006120a8600983612433565b91506120b382612715565b602082019050919050565b60006120cb600783612433565b91506120d68261273e565b602082019050919050565b60006120ee600883612433565b91506120f982612767565b602082019050919050565b6000612111600583612433565b915061211c82612790565b602082019050919050565b6000612134600883612433565b915061213f826127b9565b602082019050919050565b6000612157600783612433565b9150612162826127e2565b602082019050919050565b600061217a600883612433565b91506121858261280b565b602082019050919050565b600061219d600683612433565b91506121a882612834565b602082019050919050565b6121bc816125a9565b82525050565b6121cb816125b3565b82525050565b60006020820190506121e66000830184611ffe565b92915050565b60006040820190506122016000830185611ffe565b61220e60208301846121b3565b9392505050565b600060208201905061222a600083018461200d565b92915050565b6000602082019050818103600083015261224a818461201c565b905092915050565b6000602082019050818103600083015261226b81612055565b9050919050565b6000602082019050818103600083015261228b81612078565b9050919050565b600060208201905081810360008301526122ab8161209b565b9050919050565b600060208201905081810360008301526122cb816120be565b9050919050565b600060208201905081810360008301526122eb816120e1565b9050919050565b6000602082019050818103600083015261230b81612104565b9050919050565b6000602082019050818103600083015261232b81612127565b9050919050565b6000602082019050818103600083015261234b8161214a565b9050919050565b6000602082019050818103600083015261236b8161216d565b9050919050565b6000602082019050818103600083015261238b81612190565b9050919050565b60006020820190506123a760008301846121b3565b92915050565b60006040820190506123c260008301856121b3565b6123cf6020830184611ffe565b9392505050565b60006060820190506123eb60008301866121b3565b6123f86020830185611ffe565b6124056040830184611ffe565b949350505050565b600060208201905061242260008301846121c2565b92915050565b600081519050919050565b600082825260208201905092915050565b600061244f826125a9565b915061245a836125a9565b9250827fffffffffffffffffffffffffffffffffffffffffffffffffffffffffffffffff0382111561248f5761248e612625565b5b828201905092915050565b60006124a5826125a9565b91506124b0836125a9565b9250826124c0576124bf612654565b5b828204905092915050565b60006124d6826125a9565b91506124e1836125a9565b9250817fffffffffffffffffffffffffffffffffffffffffffffffffffffffffffffffff048311821515161561251a57612519612625565b5b828202905092915050565b6000612530826125a9565b915061253b836125a9565b92508282101561254e5761254d612625565b5b828203905092915050565b600061256482612589565b9050919050565b60008115159050919050565b600061258282612559565b9050919050565b600073ffffffffffffffffffffffffffffffffffffffff82169050919050565b6000819050919050565b600060ff82169050919050565b60005b838110156125de5780820151818401526020810190506125c3565b838111156125ed576000848401525b50505050565b6000600282049050600182168061260b57607f821691505b6020821081141561261f5761261e612683565b5b50919050565b7f4e487b7100000000000000000000000000000000000000000000000000000000600052601160045260246000fd5b7f4e487b7100000000000000000000000000000000000000000000000000000000600052601260045260246000fd5b7f4e487b7100000000000000000000000000000000000000000000000000000000600052602260045260246000fd5b6000601f19601f8301169050919050565b7f21504f4f4c000000000000000000000000000000000000000000000000000000600082015250565b7f216163636f756e74000000000000000000000000000000000000000000000000600082015250565b7f21617070726f76616c0000000000000000000000000000000000000000000000600082015250565b7f21414d4f554e5400000000000000000000000000000000000000000000000000600082015250565b7f2162616c616e6365000000000000000000000000000000000000000000000000600082015250565b7f214255524e000000000000000000000000000000000000000000000000000000600082015250565b7f217370656e646572000000000000000000000000000000000000000000000000600082015250565b7f2173656e64657200000000000000000000000000000000000000000000000000600082015250565b7f2143555241544544000000000000000000000000000000000000000000000000600082015250565b7f216f776e65720000000000000000000000000000000000000000000000000000600082015250565b61286681612559565b811461287157600080fd5b50565b61287d8161256b565b811461288857600080fd5b50565b61289481612577565b811461289f57600080fd5b50565b6128ab816125a9565b81146128b657600080fd5b5056fea26469706673582212208f17b4905a00e948379350cfdadbb1d1f4a90bdbbdeb83768e17eb45315b714b64736f6c63430008030033a26469706673582212200d2f170e4124f15c70a511037123bed23400465fd730838c2f04401cdd160de664736f6c63430008030033",
  "linkReferences": {},
  "deployedLinkReferences": {}
}