{
    "contractName": "Dao",
    "abi": [
        {
            "inputs": [
                {
                    "internalType": "address",
                    "name": "_base",
                    "type": "address"
                }
            ],
            "stateMutability": "nonpayable",
            "type": "constructor"
        },
        {
            "anonymous": false,
            "inputs": [
                {
                    "indexed": true,
                    "internalType": "address",
                    "name": "member",
                    "type": "address"
                },
                {
                    "indexed": true,
                    "internalType": "uint256",
                    "name": "proposalID",
                    "type": "uint256"
                }
            ],
            "name": "CancelProposal",
            "type": "event"
        },
        {
            "anonymous": false,
            "inputs": [
                {
                    "indexed": true,
                    "internalType": "address",
                    "name": "DAO",
                    "type": "address"
                },
                {
                    "indexed": true,
                    "internalType": "address",
                    "name": "asset",
                    "type": "address"
                }
            ],
            "name": "DelistedAsset",
            "type": "event"
        },
        {
            "anonymous": false,
            "inputs": [
                {
                    "indexed": true,
                    "internalType": "address",
                    "name": "owner",
                    "type": "address"
                },
                {
                    "indexed": false,
                    "internalType": "uint256",
                    "name": "depositAmount",
                    "type": "uint256"
                },
                {
                    "indexed": false,
                    "internalType": "uint256",
                    "name": "bondedLP",
                    "type": "uint256"
                }
            ],
            "name": "DepositAsset",
            "type": "event"
        },
        {
            "anonymous": false,
            "inputs": [
                {
                    "indexed": true,
                    "internalType": "address",
                    "name": "member",
                    "type": "address"
                },
                {
                    "indexed": true,
                    "internalType": "uint256",
                    "name": "proposalID",
                    "type": "uint256"
                },
                {
                    "indexed": false,
                    "internalType": "uint256",
                    "name": "votesCast",
                    "type": "uint256"
                },
                {
                    "indexed": false,
                    "internalType": "uint256",
                    "name": "totalWeight",
                    "type": "uint256"
                },
                {
                    "indexed": false,
                    "internalType": "string",
                    "name": "proposalType",
                    "type": "string"
                }
            ],
            "name": "FinalisedProposal",
            "type": "event"
        },
        {
            "anonymous": false,
            "inputs": [
                {
                    "indexed": true,
                    "internalType": "address",
                    "name": "DAO",
                    "type": "address"
                },
                {
                    "indexed": true,
                    "internalType": "address",
                    "name": "asset",
                    "type": "address"
                }
            ],
            "name": "ListedAsset",
            "type": "event"
        },
        {
            "anonymous": false,
            "inputs": [
                {
                    "indexed": true,
                    "internalType": "address",
                    "name": "member",
                    "type": "address"
                },
                {
                    "indexed": true,
                    "internalType": "address",
                    "name": "pool",
                    "type": "address"
                },
                {
                    "indexed": false,
                    "internalType": "uint256",
                    "name": "amount",
                    "type": "uint256"
                }
            ],
            "name": "MemberDeposits",
            "type": "event"
        },
        {
            "anonymous": false,
            "inputs": [
                {
                    "indexed": true,
                    "internalType": "address",
                    "name": "member",
                    "type": "address"
                },
                {
                    "indexed": true,
                    "internalType": "address",
                    "name": "pool",
                    "type": "address"
                },
                {
                    "indexed": false,
                    "internalType": "uint256",
                    "name": "balance",
                    "type": "uint256"
                }
            ],
            "name": "MemberWithdraws",
            "type": "event"
        },
        {
            "anonymous": false,
            "inputs": [
                {
                    "indexed": true,
                    "internalType": "address",
                    "name": "member",
                    "type": "address"
                },
                {
                    "indexed": true,
                    "internalType": "uint256",
                    "name": "proposalID",
                    "type": "uint256"
                },
                {
                    "indexed": false,
                    "internalType": "string",
                    "name": "proposalType",
                    "type": "string"
                }
            ],
            "name": "NewProposal",
            "type": "event"
        },
        {
            "anonymous": false,
            "inputs": [
                {
                    "indexed": true,
                    "internalType": "address",
                    "name": "member",
                    "type": "address"
                },
                {
                    "indexed": true,
                    "internalType": "uint256",
                    "name": "proposalID",
                    "type": "uint256"
                },
                {
                    "indexed": false,
                    "internalType": "uint256",
                    "name": "voteWeight",
                    "type": "uint256"
                },
                {
                    "indexed": false,
                    "internalType": "uint256",
                    "name": "totalVotes",
                    "type": "uint256"
                },
                {
                    "indexed": false,
                    "internalType": "string",
                    "name": "proposalType",
                    "type": "string"
                }
            ],
            "name": "NewVote",
            "type": "event"
        },
        {
            "anonymous": false,
            "inputs": [
                {
                    "indexed": true,
                    "internalType": "address",
                    "name": "member",
                    "type": "address"
                },
                {
                    "indexed": true,
                    "internalType": "uint256",
                    "name": "proposalID",
                    "type": "uint256"
                },
                {
                    "indexed": false,
                    "internalType": "uint256",
                    "name": "timeFinalised",
                    "type": "uint256"
                },
                {
                    "indexed": false,
                    "internalType": "string",
                    "name": "proposalType",
                    "type": "string"
                }
            ],
            "name": "ProposalFinalising",
            "type": "event"
        },
        {
            "anonymous": false,
            "inputs": [
                {
                    "indexed": true,
                    "internalType": "address",
                    "name": "member",
                    "type": "address"
                },
                {
                    "indexed": true,
                    "internalType": "uint256",
                    "name": "proposalID",
                    "type": "uint256"
                },
                {
                    "indexed": false,
                    "internalType": "uint256",
                    "name": "voteWeight",
                    "type": "uint256"
                },
                {
                    "indexed": false,
                    "internalType": "uint256",
                    "name": "totalVotes",
                    "type": "uint256"
                },
                {
                    "indexed": false,
                    "internalType": "string",
                    "name": "proposalType",
                    "type": "string"
                }
            ],
            "name": "RemovedVote",
            "type": "event"
        },
        {
            "inputs": [],
            "name": "BASE",
            "outputs": [
                {
                    "internalType": "address",
                    "name": "",
                    "type": "address"
                }
            ],
            "stateMutability": "view",
            "type": "function"
        },
        {
            "inputs": [],
            "name": "BONDVAULT",
            "outputs": [
                {
                    "internalType": "contract iBONDVAULT",
                    "name": "",
                    "type": "address"
                }
            ],
            "stateMutability": "view",
            "type": "function"
        },
        {
            "inputs": [],
            "name": "DAO",
            "outputs": [
                {
                    "internalType": "address",
                    "name": "",
                    "type": "address"
                }
            ],
            "stateMutability": "view",
            "type": "function"
        },
        {
            "inputs": [],
            "name": "DAOVAULT",
            "outputs": [
                {
                    "internalType": "contract iDAOVAULT",
                    "name": "",
                    "type": "address"
                }
            ],
            "stateMutability": "view",
            "type": "function"
        },
        {
            "inputs": [],
            "name": "DEPLOYER",
            "outputs": [
                {
                    "internalType": "address",
                    "name": "",
                    "type": "address"
                }
            ],
            "stateMutability": "view",
            "type": "function"
        },
        {
            "inputs": [],
            "name": "LEND",
            "outputs": [
                {
                    "internalType": "contract iLEND",
                    "name": "",
                    "type": "address"
                }
            ],
            "stateMutability": "view",
            "type": "function"
        },
        {
            "inputs": [],
            "name": "POOLFACTORY",
            "outputs": [
                {
                    "internalType": "contract iPOOLFACTORY",
                    "name": "",
                    "type": "address"
                }
            ],
            "stateMutability": "view",
            "type": "function"
        },
        {
            "inputs": [],
            "name": "RESERVE",
            "outputs": [
                {
                    "internalType": "contract iRESERVE",
                    "name": "",
                    "type": "address"
                }
            ],
            "stateMutability": "view",
            "type": "function"
        },
        {
            "inputs": [],
            "name": "ROUTER",
            "outputs": [
                {
                    "internalType": "contract iROUTER",
                    "name": "",
                    "type": "address"
                }
            ],
            "stateMutability": "view",
            "type": "function"
        },
        {
            "inputs": [],
            "name": "SYNTHFACTORY",
            "outputs": [
                {
                    "internalType": "contract iSYNTHFACTORY",
                    "name": "",
                    "type": "address"
                }
            ],
            "stateMutability": "view",
            "type": "function"
        },
        {
            "inputs": [],
            "name": "SYNTHVAULT",
            "outputs": [
                {
                    "internalType": "contract iSYNTHVAULT",
                    "name": "",
                    "type": "address"
                }
            ],
            "stateMutability": "view",
            "type": "function"
        },
        {
            "inputs": [],
            "name": "UTILS",
            "outputs": [
                {
                    "internalType": "contract iUTILS",
                    "name": "",
                    "type": "address"
                }
            ],
            "stateMutability": "view",
            "type": "function"
        },
        {
            "inputs": [],
            "name": "allListedAssets",
            "outputs": [
                {
                    "internalType": "address[]",
                    "name": "_allListedAssets",
                    "type": "address[]"
                }
            ],
            "stateMutability": "view",
            "type": "function"
        },
        {
            "inputs": [
                {
                    "internalType": "uint256",
                    "name": "",
                    "type": "uint256"
                }
            ],
            "name": "arrayMembers",
            "outputs": [
                {
                    "internalType": "address",
                    "name": "",
                    "type": "address"
                }
            ],
            "stateMutability": "view",
            "type": "function"
        },
        {
            "inputs": [],
            "name": "assetListedCount",
            "outputs": [
                {
                    "internalType": "uint256",
                    "name": "count",
                    "type": "uint256"
                }
            ],
            "stateMutability": "view",
            "type": "function"
        },
        {
            "inputs": [
                {
                    "internalType": "address",
                    "name": "asset",
                    "type": "address"
                },
                {
                    "internalType": "uint256",
                    "name": "amount",
                    "type": "uint256"
                }
            ],
            "name": "bond",
            "outputs": [
                {
                    "internalType": "bool",
                    "name": "success",
                    "type": "bool"
                }
            ],
            "stateMutability": "payable",
            "type": "function"
        },
        {
            "inputs": [],
            "name": "bondingPeriodSeconds",
            "outputs": [
                {
                    "internalType": "uint256",
                    "name": "",
                    "type": "uint256"
                }
            ],
            "stateMutability": "view",
            "type": "function"
        },
        {
            "inputs": [],
            "name": "burnBalance",
            "outputs": [
                {
                    "internalType": "bool",
                    "name": "",
                    "type": "bool"
                }
            ],
            "stateMutability": "nonpayable",
            "type": "function"
        },
        {
            "inputs": [
                {
                    "internalType": "address",
                    "name": "bondedMember",
                    "type": "address"
                },
                {
                    "internalType": "address",
                    "name": "asset",
                    "type": "address"
                }
            ],
            "name": "calcClaimBondedLP",
            "outputs": [
                {
                    "internalType": "uint256",
                    "name": "",
                    "type": "uint256"
                }
            ],
            "stateMutability": "view",
            "type": "function"
        },
        {
            "inputs": [
                {
                    "internalType": "address",
                    "name": "member",
                    "type": "address"
                }
            ],
            "name": "calcCurrentReward",
            "outputs": [
                {
                    "internalType": "uint256",
                    "name": "",
                    "type": "uint256"
                }
            ],
            "stateMutability": "view",
            "type": "function"
        },
        {
            "inputs": [
                {
                    "internalType": "address",
                    "name": "member",
                    "type": "address"
                }
            ],
            "name": "calcReward",
            "outputs": [
                {
                    "internalType": "uint256",
                    "name": "",
                    "type": "uint256"
                }
            ],
            "stateMutability": "view",
            "type": "function"
        },
        {
            "inputs": [],
            "name": "cancelProposal",
            "outputs": [],
            "stateMutability": "nonpayable",
            "type": "function"
        },
        {
            "inputs": [
                {
                    "internalType": "uint256",
                    "name": "bondingSeconds",
                    "type": "uint256"
                }
            ],
            "name": "changeBondingPeriod",
            "outputs": [],
            "stateMutability": "nonpayable",
            "type": "function"
        },
        {
            "inputs": [
                {
                    "internalType": "address",
                    "name": "asset",
                    "type": "address"
                }
            ],
            "name": "claim",
            "outputs": [
                {
                    "internalType": "bool",
                    "name": "",
                    "type": "bool"
                }
            ],
            "stateMutability": "nonpayable",
            "type": "function"
        },
        {
            "inputs": [
                {
                    "internalType": "address[]",
                    "name": "bondAssets",
                    "type": "address[]"
                }
            ],
            "name": "claimAll",
            "outputs": [
                {
                    "internalType": "bool",
                    "name": "",
                    "type": "bool"
                }
            ],
            "stateMutability": "nonpayable",
            "type": "function"
        },
        {
            "inputs": [],
            "name": "coolOffPeriod",
            "outputs": [
                {
                    "internalType": "uint256",
                    "name": "",
                    "type": "uint256"
                }
            ],
            "stateMutability": "view",
            "type": "function"
        },
        {
            "inputs": [],
            "name": "currentProposal",
            "outputs": [
                {
                    "internalType": "uint256",
                    "name": "",
                    "type": "uint256"
                }
            ],
            "stateMutability": "view",
            "type": "function"
        },
        {
            "inputs": [],
            "name": "daoClaim",
            "outputs": [
                {
                    "internalType": "uint256",
                    "name": "",
                    "type": "uint256"
                }
            ],
            "stateMutability": "view",
            "type": "function"
        },
        {
            "inputs": [],
            "name": "daoFee",
            "outputs": [
                {
                    "internalType": "uint256",
                    "name": "",
                    "type": "uint256"
                }
            ],
            "stateMutability": "view",
            "type": "function"
        },
        {
            "inputs": [],
            "name": "daoHasMoved",
            "outputs": [
                {
                    "internalType": "bool",
                    "name": "",
                    "type": "bool"
                }
            ],
            "stateMutability": "view",
            "type": "function"
        },
        {
            "inputs": [
                {
                    "internalType": "address",
                    "name": "asset",
                    "type": "address"
                }
            ],
            "name": "delistBondAsset",
            "outputs": [],
            "stateMutability": "nonpayable",
            "type": "function"
        },
        {
            "inputs": [
                {
                    "internalType": "address",
                    "name": "pool",
                    "type": "address"
                },
                {
                    "internalType": "uint256",
                    "name": "amount",
                    "type": "uint256"
                }
            ],
            "name": "deposit",
            "outputs": [],
            "stateMutability": "nonpayable",
            "type": "function"
        },
        {
            "inputs": [],
            "name": "erasToEarn",
            "outputs": [
                {
                    "internalType": "uint256",
                    "name": "",
                    "type": "uint256"
                }
            ],
            "stateMutability": "view",
            "type": "function"
        },
        {
            "inputs": [],
            "name": "finaliseProposal",
            "outputs": [],
            "stateMutability": "nonpayable",
            "type": "function"
        },
        {
            "inputs": [
                {
                    "internalType": "uint256",
                    "name": "proposalID",
                    "type": "uint256"
                }
            ],
            "name": "getProposalDetails",
            "outputs": [
                {
                    "components": [
                        {
                            "internalType": "uint256",
                            "name": "id",
                            "type": "uint256"
                        },
                        {
                            "internalType": "string",
                            "name": "proposalType",
                            "type": "string"
                        },
                        {
                            "internalType": "uint256",
                            "name": "votes",
                            "type": "uint256"
                        },
                        {
                            "internalType": "uint256",
                            "name": "coolOffTime",
                            "type": "uint256"
                        },
                        {
                            "internalType": "bool",
                            "name": "finalising",
                            "type": "bool"
                        },
                        {
                            "internalType": "bool",
                            "name": "finalised",
                            "type": "bool"
                        },
                        {
                            "internalType": "uint256",
                            "name": "param",
                            "type": "uint256"
                        },
                        {
                            "internalType": "address",
                            "name": "proposedAddress",
                            "type": "address"
                        },
                        {
                            "internalType": "bool",
                            "name": "open",
                            "type": "bool"
                        },
                        {
                            "internalType": "uint256",
                            "name": "startTime",
                            "type": "uint256"
                        }
                    ],
                    "internalType": "struct Dao.ProposalDetails",
                    "name": "proposalDetails",
                    "type": "tuple"
                }
            ],
            "stateMutability": "view",
            "type": "function"
        },
        {
            "inputs": [],
            "name": "harvest",
            "outputs": [],
            "stateMutability": "nonpayable",
            "type": "function"
        },
        {
            "inputs": [
                {
                    "internalType": "uint256",
                    "name": "_proposalID",
                    "type": "uint256"
                }
            ],
            "name": "hasMajority",
            "outputs": [
                {
                    "internalType": "bool",
                    "name": "",
                    "type": "bool"
                }
            ],
            "stateMutability": "view",
            "type": "function"
        },
        {
            "inputs": [
                {
                    "internalType": "uint256",
                    "name": "_proposalID",
                    "type": "uint256"
                }
            ],
            "name": "hasQuorum",
            "outputs": [
                {
                    "internalType": "bool",
                    "name": "",
                    "type": "bool"
                }
            ],
            "stateMutability": "view",
            "type": "function"
        },
        {
            "inputs": [
                {
                    "internalType": "address",
                    "name": "",
                    "type": "address"
                }
            ],
            "name": "isListed",
            "outputs": [
                {
                    "internalType": "bool",
                    "name": "",
                    "type": "bool"
                }
            ],
            "stateMutability": "view",
            "type": "function"
        },
        {
            "inputs": [
                {
                    "internalType": "address",
                    "name": "",
                    "type": "address"
                }
            ],
            "name": "isMember",
            "outputs": [
                {
                    "internalType": "bool",
                    "name": "",
                    "type": "bool"
                }
            ],
            "stateMutability": "view",
            "type": "function"
        },
        {
            "inputs": [
                {
                    "internalType": "address",
                    "name": "asset",
                    "type": "address"
                }
            ],
            "name": "listBondAsset",
            "outputs": [],
            "stateMutability": "nonpayable",
            "type": "function"
        },
        {
            "inputs": [],
            "name": "majorityFactor",
            "outputs": [
                {
                    "internalType": "uint256",
                    "name": "",
                    "type": "uint256"
                }
            ],
            "stateMutability": "view",
            "type": "function"
        },
        {
            "inputs": [
                {
                    "internalType": "address",
                    "name": "",
                    "type": "address"
                }
            ],
            "name": "mapMember_lastTime",
            "outputs": [
                {
                    "internalType": "uint256",
                    "name": "",
                    "type": "uint256"
                }
            ],
            "stateMutability": "view",
            "type": "function"
        },
        {
            "inputs": [
                {
                    "internalType": "uint256",
                    "name": "",
                    "type": "uint256"
                },
                {
                    "internalType": "address",
                    "name": "",
                    "type": "address"
                }
            ],
            "name": "mapPIDMember_votes",
            "outputs": [
                {
                    "internalType": "uint256",
                    "name": "",
                    "type": "uint256"
                }
            ],
            "stateMutability": "view",
            "type": "function"
        },
        {
            "inputs": [
                {
                    "internalType": "uint256",
                    "name": "",
                    "type": "uint256"
                }
            ],
            "name": "mapPID_address",
            "outputs": [
                {
                    "internalType": "address",
                    "name": "",
                    "type": "address"
                }
            ],
            "stateMutability": "view",
            "type": "function"
        },
        {
            "inputs": [
                {
                    "internalType": "uint256",
                    "name": "",
                    "type": "uint256"
                }
            ],
            "name": "mapPID_coolOffTime",
            "outputs": [
                {
                    "internalType": "uint256",
                    "name": "",
                    "type": "uint256"
                }
            ],
            "stateMutability": "view",
            "type": "function"
        },
        {
            "inputs": [
                {
                    "internalType": "uint256",
                    "name": "",
                    "type": "uint256"
                }
            ],
            "name": "mapPID_finalised",
            "outputs": [
                {
                    "internalType": "bool",
                    "name": "",
                    "type": "bool"
                }
            ],
            "stateMutability": "view",
            "type": "function"
        },
        {
            "inputs": [
                {
                    "internalType": "uint256",
                    "name": "",
                    "type": "uint256"
                }
            ],
            "name": "mapPID_finalising",
            "outputs": [
                {
                    "internalType": "bool",
                    "name": "",
                    "type": "bool"
                }
            ],
            "stateMutability": "view",
            "type": "function"
        },
        {
            "inputs": [
                {
                    "internalType": "uint256",
                    "name": "",
                    "type": "uint256"
                }
            ],
            "name": "mapPID_open",
            "outputs": [
                {
                    "internalType": "bool",
                    "name": "",
                    "type": "bool"
                }
            ],
            "stateMutability": "view",
            "type": "function"
        },
        {
            "inputs": [
                {
                    "internalType": "uint256",
                    "name": "",
                    "type": "uint256"
                }
            ],
            "name": "mapPID_param",
            "outputs": [
                {
                    "internalType": "uint256",
                    "name": "",
                    "type": "uint256"
                }
            ],
            "stateMutability": "view",
            "type": "function"
        },
        {
            "inputs": [
                {
                    "internalType": "uint256",
                    "name": "",
                    "type": "uint256"
                }
            ],
            "name": "mapPID_startTime",
            "outputs": [
                {
                    "internalType": "uint256",
                    "name": "",
                    "type": "uint256"
                }
            ],
            "stateMutability": "view",
            "type": "function"
        },
        {
            "inputs": [
                {
                    "internalType": "uint256",
                    "name": "",
                    "type": "uint256"
                }
            ],
            "name": "mapPID_type",
            "outputs": [
                {
                    "internalType": "string",
                    "name": "",
                    "type": "string"
                }
            ],
            "stateMutability": "view",
            "type": "function"
        },
        {
            "inputs": [
                {
                    "internalType": "uint256",
                    "name": "",
                    "type": "uint256"
                }
            ],
            "name": "mapPID_votes",
            "outputs": [
                {
                    "internalType": "uint256",
                    "name": "",
                    "type": "uint256"
                }
            ],
            "stateMutability": "view",
            "type": "function"
        },
        {
            "inputs": [],
            "name": "memberCount",
            "outputs": [
                {
                    "internalType": "uint256",
                    "name": "",
                    "type": "uint256"
                }
            ],
            "stateMutability": "view",
            "type": "function"
        },
        {
            "inputs": [
                {
                    "internalType": "address",
                    "name": "newDAO",
                    "type": "address"
                }
            ],
            "name": "moveBASEBalance",
            "outputs": [],
            "stateMutability": "nonpayable",
            "type": "function"
        },
        {
            "inputs": [
                {
                    "internalType": "string",
                    "name": "typeStr",
                    "type": "string"
                }
            ],
            "name": "newActionProposal",
            "outputs": [
                {
                    "internalType": "uint256",
                    "name": "",
                    "type": "uint256"
                }
            ],
            "stateMutability": "nonpayable",
            "type": "function"
        },
        {
            "inputs": [
                {
                    "internalType": "address",
                    "name": "proposedAddress",
                    "type": "address"
                },
                {
                    "internalType": "string",
                    "name": "typeStr",
                    "type": "string"
                }
            ],
            "name": "newAddressProposal",
            "outputs": [
                {
                    "internalType": "uint256",
                    "name": "",
                    "type": "uint256"
                }
            ],
            "stateMutability": "nonpayable",
            "type": "function"
        },
        {
            "inputs": [
                {
                    "internalType": "address",
                    "name": "recipient",
                    "type": "address"
                },
                {
                    "internalType": "uint256",
                    "name": "amount",
                    "type": "uint256"
                }
            ],
            "name": "newGrantProposal",
            "outputs": [
                {
                    "internalType": "uint256",
                    "name": "",
                    "type": "uint256"
                }
            ],
            "stateMutability": "nonpayable",
            "type": "function"
        },
        {
            "inputs": [
                {
                    "internalType": "uint256",
                    "name": "param",
                    "type": "uint256"
                },
                {
                    "internalType": "string",
                    "name": "typeStr",
                    "type": "string"
                }
            ],
            "name": "newParamProposal",
            "outputs": [
                {
                    "internalType": "uint256",
                    "name": "",
                    "type": "uint256"
                }
            ],
            "stateMutability": "nonpayable",
            "type": "function"
        },
        {
            "inputs": [],
            "name": "proposalCount",
            "outputs": [
                {
                    "internalType": "uint256",
                    "name": "",
                    "type": "uint256"
                }
            ],
            "stateMutability": "view",
            "type": "function"
        },
        {
            "inputs": [],
            "name": "purgeDeployer",
            "outputs": [],
            "stateMutability": "nonpayable",
            "type": "function"
        },
        {
            "inputs": [],
            "name": "removeVote",
            "outputs": [
                {
                    "internalType": "uint256",
                    "name": "voteWeightRemoved",
                    "type": "uint256"
                }
            ],
            "stateMutability": "nonpayable",
            "type": "function"
        },
        {
            "inputs": [],
            "name": "retire",
            "outputs": [
                {
                    "internalType": "bool",
                    "name": "",
                    "type": "bool"
                }
            ],
            "stateMutability": "view",
            "type": "function"
        },
        {
            "inputs": [],
            "name": "running",
            "outputs": [
                {
                    "internalType": "bool",
                    "name": "",
                    "type": "bool"
                }
            ],
            "stateMutability": "view",
            "type": "function"
        },
        {
            "inputs": [],
            "name": "secondsPerEra",
            "outputs": [
                {
                    "internalType": "uint256",
                    "name": "",
                    "type": "uint256"
                }
            ],
            "stateMutability": "view",
            "type": "function"
        },
        {
            "inputs": [
                {
                    "internalType": "address",
                    "name": "_poolFactory",
                    "type": "address"
                },
                {
                    "internalType": "address",
                    "name": "_synthFactory",
                    "type": "address"
                }
            ],
            "name": "setFactoryAddresses",
            "outputs": [],
            "stateMutability": "nonpayable",
            "type": "function"
        },
        {
            "inputs": [
                {
                    "internalType": "address",
                    "name": "_router",
                    "type": "address"
                },
                {
                    "internalType": "address",
                    "name": "_utils",
                    "type": "address"
                },
                {
                    "internalType": "address",
                    "name": "_reserve",
                    "type": "address"
                },
                {
                    "internalType": "address",
                    "name": "_lend",
                    "type": "address"
                }
            ],
            "name": "setGenesisAddresses",
            "outputs": [],
            "stateMutability": "nonpayable",
            "type": "function"
        },
        {
            "inputs": [
                {
                    "internalType": "uint256",
                    "name": "_coolOff",
                    "type": "uint256"
                },
                {
                    "internalType": "uint256",
                    "name": "_erasToEarn",
                    "type": "uint256"
                },
                {
                    "internalType": "uint256",
                    "name": "_majorityFactor",
                    "type": "uint256"
                },
                {
                    "internalType": "uint256",
                    "name": "_daoClaim",
                    "type": "uint256"
                },
                {
                    "internalType": "uint256",
                    "name": "_daoFee",
                    "type": "uint256"
                }
            ],
            "name": "setGenesisFactors",
            "outputs": [],
            "stateMutability": "nonpayable",
            "type": "function"
        },
        {
            "inputs": [
                {
                    "internalType": "address",
                    "name": "_daovault",
                    "type": "address"
                },
                {
                    "internalType": "address",
                    "name": "_bondvault",
                    "type": "address"
                },
                {
                    "internalType": "address",
                    "name": "_synthVault",
                    "type": "address"
                }
            ],
            "name": "setVaultAddresses",
            "outputs": [],
            "stateMutability": "nonpayable",
            "type": "function"
        },
        {
            "inputs": [],
            "name": "voteProposal",
            "outputs": [
                {
                    "internalType": "uint256",
                    "name": "voteWeight",
                    "type": "uint256"
                }
            ],
            "stateMutability": "nonpayable",
            "type": "function"
        },
        {
            "inputs": [
                {
                    "internalType": "address",
                    "name": "pool",
                    "type": "address"
                }
            ],
            "name": "withdraw",
            "outputs": [],
            "stateMutability": "nonpayable",
            "type": "function"
        }
    ],
    "bytecode": "608060405262ed4e006017553480156200001857600080fd5b5060405162006040380380620060408339810160408190526200003b916200012d565b60016000818155600280546001600160a01b0385166001600160a01b031991821681179092558354163317909255600b80543061010002610100600160a81b03199091161790556203f4806004908155601e600755611a0a6006556103e86008556064600955600591909155604080516335c951db60e11b81529051636b92a3b692828101926020929190829003018186803b158015620000db57600080fd5b505afa158015620000f0573d6000803e3d6000fd5b505050506040513d601f19601f820116820180604052508101906200011691906200015d565b600355506002805460ff60a81b1916905562000176565b6000602082840312156200013f578081fd5b81516001600160a01b038116811462000156578182fd5b9392505050565b6000602082840312156200016f578081fd5b5051919050565b615eba80620001866000396000f3fe6080604052600436106104105760003560e01c80637b0e5c451161021e578063b826286911610123578063d85bd526116100ab578063ec342ad01161007a578063ec342ad014610c46578063f135dcf814610c66578063f301e78114610c86578063f794062e14610c9b578063f7a79a3714610ccb57610410565b8063d85bd52614610bc2578063da35c66414610be3578063dab249b314610bf9578063db634d7c14610c2657610410565b8063bc68fad9116100f2578063bc68fad914610b08578063c05fc17814610b1d578063c1b8411a14610b4a578063c42b3f7d14610b6a578063d145836314610ba257610410565b8063b826286914610a91578063b93ec54b14610abe578063b99b0a0c14610ad3578063bbf8cf8214610ae857610410565b8063a299ecb2116101a6578063a6c83fed11610175578063a6c83fed146109f0578063ab2bd8fd14610a10578063abb6154f14610a25578063ae887c8b14610a3b578063af04598014610a7157610410565b8063a299ecb21461096f578063a32022461461099c578063a4874d77146109bc578063a515366a146109dd57610410565b8063956615be116101ed578063956615be146108cf57806398fabd3a146108e55780639cd99aa21461090a5780639d2cc4361461092a578063a230c5241461093f57610410565b80637b0e5c45146108605780638351739a146108755780638bebea891461088a5780639070577f146108ba57610410565b80633a61738d116103245780634b400034116102ac57806365c71bbf1161027b57806365c71bbf146107de57806368bb97b3146107f45780636b92a3b614610814578063737589881461082a57806379b2dc4c1461084a57610410565b80634b4000341461074257806351cff8d9146107715780635c120b37146107915780635c7366d3146107b157610410565b806346350821116102f357806346350821146106b85780634636279f146106d85780634641257d146106f857806347e7ef241461070d57806349aa4ee21461072d57610410565b80633a61738d1461062b5780633b4d01a71461064b578063436f80be1461067857806343b2116f1461069857610410565b80632ab24e49116103a75780632f7fa180116103765780632f7fa1801461059d578063314604fe146105b257806332fe7b26146105df57806335cb5fe0146105f457806338da7dd61461061657610410565b80632ab24e49146105145780632b49d425146105415780632bee1194146105575780632c07eebf1461058757610410565b806320b1b45d116103e357806320b1b45d146104a457806324efb528146104c4578063293cee7d146104de5780632957b839146104fe57610410565b806303a821381461041557806311aee3801461042c5780631e2de0d1146104545780631e83409a14610484575b600080fd5b34801561042157600080fd5b5061042a610ce0565b005b34801561043857600080fd5b50610441610d09565b6040519081526020015b60405180910390f35b34801561046057600080fd5b5061047461046f366004615908565b610d10565b604051901515815260200161044b565b34801561049057600080fd5b5061047461049f366004615773565b610d9e565b3480156104b057600080fd5b5061042a6104bf366004615ab5565b610e4d565b3480156104d057600080fd5b50600b546104749060ff1681565b3480156104ea57600080fd5b506104416104f936600461588f565b610e7b565b34801561050a57600080fd5b5061044160095481565b34801561052057600080fd5b5061052961128b565b6040516001600160a01b03909116815260200161044b565b34801561054d57600080fd5b50610441600a5481565b34801561056357600080fd5b50610474610572366004615a27565b60216020526000908152604090205460ff1681565b34801561059357600080fd5b5061044160075481565b3480156105a957600080fd5b50610529611338565b3480156105be57600080fd5b506104416105cd366004615a27565b601b6020526000908152604090205481565b3480156105eb57600080fd5b506105296113a6565b34801561060057600080fd5b50610609611414565b60405161044b9190615b5b565b34801561062257600080fd5b50610529611476565b34801561063757600080fd5b50610441610646366004615773565b6114e4565b34801561065757600080fd5b5061066b610666366004615a27565b611780565b60405161044b9190615c19565b34801561068457600080fd5b50610529610693366004615a27565b611927565b3480156106a457600080fd5b5061042a6106b3366004615834565b611951565b3480156106c457600080fd5b5061042a6106d33660046157b2565b6119b8565b3480156106e457600080fd5b506104416106f3366004615773565b6119fd565b34801561070457600080fd5b5061042a611a80565b34801561071957600080fd5b5061042a6107283660046158dd565b611ca2565b34801561073957600080fd5b50610441611fa0565b34801561074e57600080fd5b5061047461075d366004615a27565b602080526000908152604090205460ff1681565b34801561077d57600080fd5b5061042a61078c366004615773565b612165565b34801561079d57600080fd5b506104746107ac366004615a27565b612371565b3480156107bd57600080fd5b506104416107cc366004615773565b601a6020526000908152604090205481565b3480156107ea57600080fd5b5061044160175481565b34801561080057600080fd5b5061042a61080f366004615773565b6124b8565b34801561082057600080fd5b5061044160035481565b34801561083657600080fd5b5061042a6108453660046157ea565b6125d8565b34801561085657600080fd5b5061044160085481565b34801561086c57600080fd5b5061052961262e565b34801561088157600080fd5b5061044161269c565b34801561089657600080fd5b506104746108a5366004615a27565b60226020526000908152604090205460ff1681565b3480156108c657600080fd5b5061042a612a99565b3480156108db57600080fd5b5061044160065481565b3480156108f157600080fd5b50600b546105299061010090046001600160a01b031681565b34801561091657600080fd5b5061042a610925366004615773565b612b6f565b34801561093657600080fd5b50610529612cef565b34801561094b57600080fd5b5061047461095a366004615773565b60186020526000908152604090205460ff1681565b34801561097b57600080fd5b5061044161098a366004615a27565b601f6020526000908152604090205481565b3480156109a857600080fd5b506104416109b7366004615a63565b612d5d565b3480156109c857600080fd5b5060025461047490600160a01b900460ff1681565b6104746109eb3660046158dd565b612ea7565b3480156109fc57600080fd5b50610441610a0b3660046158dd565b613164565b348015610a1c57600080fd5b5061042a613364565b348015610a3157600080fd5b5061044160045481565b348015610a4757600080fd5b50610529610a56366004615a27565b601c602052600090815260409020546001600160a01b031681565b348015610a7d57600080fd5b5061042a610a8c366004615a27565b613952565b348015610a9d57600080fd5b50610441610aac366004615a27565b60236020526000908152604090205481565b348015610aca57600080fd5b5061052961396e565b348015610adf57600080fd5b506105296139dc565b348015610af457600080fd5b50610474610b03366004615a27565b613a4a565b348015610b1457600080fd5b50610474613b76565b348015610b2957600080fd5b50610b3d610b38366004615a27565b613c73565b60405161044b9190615ba8565b348015610b5657600080fd5b50600154610529906001600160a01b031681565b348015610b7657600080fd5b50610441610b85366004615a3f565b602460209081526000928352604080842090915290825290205481565b348015610bae57600080fd5b50610441610bbd3660046159f4565b613d0d565b348015610bce57600080fd5b5060025461047490600160a81b900460ff1681565b348015610bef57600080fd5b5061044160055481565b348015610c0557600080fd5b50610441610c14366004615a27565b601e6020526000908152604090205481565b348015610c3257600080fd5b5061042a610c41366004615773565b613e12565b348015610c5257600080fd5b50600254610529906001600160a01b031681565b348015610c7257600080fd5b50610441610c813660046157b2565b614092565b348015610c9257600080fd5b50610529614123565b348015610ca757600080fd5b50610474610cb6366004615773565b60196020526000908152604090205460ff1681565b348015610cd757600080fd5b50601654610441565b6001546001600160a01b03163314610cf757600080fd5b600180546001600160a01b0319169055565b6015545b90565b600254600090600160a01b900460ff1615610d465760405162461bcd60e51b8152600401610d3d90615bbb565b60405180910390fd5b60005b8251811015610d9557610d82838281518110610d7557634e487b7160e01b600052603260045260246000fd5b6020026020010151610d9e565b5080610d8d81615e08565b915050610d49565b50600192915050565b600254600090600160a01b900460ff1615610dcb5760405162461bcd60e51b8152600401610d3d90615bbb565b6000610dd73384614092565b90508015610d9557600e54604051632de1315f60e11b81526001600160a01b03858116600483015233602483015290911690635bc262be90604401600060405180830381600087803b158015610e2c57600080fd5b505af1158015610e40573d6000803e3d6000fd5b5050505050600192915050565b6001546001600160a01b03163314610e6457600080fd5b600494909455600792909255600655600855600955565b60105460405163bbe4f6db60e01b81526001600160a01b038481166004830152600092849284929091169063bbe4f6db9060240160206040518083038186803b158015610ec757600080fd5b505afa158015610edb573d6000803e3d6000fd5b505050506040513d601f19601f82011682018060405250810190610eff9190615796565b9050610f26826040518060400160405280600381526020016244414f60e81b815250614191565b80610f545750610f5482604051806040016040528060068152602001652927aaaa22a960d11b815250614191565b80610f815750610f8182604051806040016040528060058152602001645554494c5360d81b815250614191565b80610fb05750610fb082604051806040016040528060078152602001665245534552564560c81b815250614191565b15610ffb576001600160a01b038516610ff65760405162461bcd60e51b8152602060048201526008602482015267216164647265737360c01b6044820152606401610d3d565b6111dc565b6110268260405180604001604052806009815260200168131254d517d093d39160ba1b815250614191565b806110615750611061826040518060400160405280601381526020017214915353d59157d0d5549055115117d413d3d3606a1b815250614191565b1561111a57601054604051638dcb4c9360e01b81526001600160a01b03838116600483015290911690638dcb4c939060240160206040518083038186803b1580156110ab57600080fd5b505afa1580156110bf573d6000803e3d6000fd5b505050506040513d601f19601f820116820180604052508101906110e391906159bc565b610ff65760405162461bcd60e51b81526020600482015260086024820152670850d5549055115160c21b6044820152606401610d3d565b611147826040518060400160405280600b81526020016a1111531254d517d093d39160aa1b815250614191565b8061117f575061117f826040518060400160405280601081526020016f10511117d0d5549055115117d413d3d360821b815250614191565b61119b5760405162461bcd60e51b8152600401610d3d90615bd9565b6001600160a01b0381166111dc5760405162461bcd60e51b81526020600482015260086024820152670850d5549055115160c21b6044820152606401610d3d565b6111e461423b565b611202600954670de0b6b3a76400006111fd9190615d67565b6143ef565b50600a80546000908152601c6020908152604080832080546001600160a01b0319166001600160a01b038b1617905592548252601d8152919020855161124a92870190615678565b50600a54336001600160a01b0316600080516020615e65833981519152866040516112759190615ba8565b60405180910390a3600a54925050505b92915050565b600b5460009060ff161561132657600b60019054906101000a90046001600160a01b03166001600160a01b0316632ab24e496040518163ffffffff1660e01b815260040160206040518083038186803b1580156112e757600080fd5b505afa1580156112fb573d6000803e3d6000fd5b505050506040513d601f19601f8201168201806040525081019061131f9190615796565b9050610d0d565b506013546001600160a01b0316610d0d565b600b5460009060ff161561139457600b60019054906101000a90046001600160a01b03166001600160a01b0316632f7fa1806040518163ffffffff1660e01b815260040160206040518083038186803b1580156112e757600080fd5b50600e546001600160a01b0316610d0d565b600b5460009060ff161561140257600b60019054906101000a90046001600160a01b03166001600160a01b03166332fe7b266040518163ffffffff1660e01b815260040160206040518083038186803b1580156112e757600080fd5b50600c546001600160a01b0316610d0d565b6060601680548060200260200160405190810160405280929190818152602001828054801561146c57602002820191906000526020600020905b81546001600160a01b0316815260019091019060200180831161144e575b5050505050905090565b600b5460009060ff16156114d257600b60019054906101000a90046001600160a01b03166001600160a01b03166338da7dd66040518163ffffffff1660e01b815260040160206040518083038186803b1580156112e757600080fd5b50600f546001600160a01b0316610d0d565b600254600090600160a01b900460ff16156115115760405162461bcd60e51b8152600401610d3d90615bbb565b600f5460405163291dee0160e21b81526001600160a01b038481166004830152600092839291169063a477b80490602401604080518083038186803b15801561155957600080fd5b505afa15801561156d573d6000803e3d6000fd5b505050506040513d601f19601f820116820180604052508101906115919190615a92565b600e5460405163291dee0160e21b81526001600160a01b038881166004830152939550919350600092839291169063a477b80490602401604080518083038186803b1580156115df57600080fd5b505afa1580156115f3573d6000803e3d6000fd5b505050506040513d601f19601f820116820180604052508101906116179190615a92565b909250905060006116288386615d2f565b905060006116368386615d2f565b6007546002546012546040516370a0823160e01b81526001600160a01b0391821660048201529394506000939116906370a082319060240160206040518083038186803b15801561168657600080fd5b505afa15801561169a573d6000803e3d6000fd5b505050506040513d601f19601f820116820180604052508101906116be91906159dc565b6116c89190615d47565b90506000612710600854836116dd9190615d67565b6116e79190615d47565b600d546040516306e8c9b160e21b81526004810187905260248101869052604481018390529192506001600160a01b031690631ba326c49060640160206040518083038186803b15801561173a57600080fd5b505afa15801561174e573d6000803e3d6000fd5b505050506040513d601f19601f8201168201806040525081019061177291906159dc565b9a9950505050505050505050565b6117e5604051806101400160405280600081526020016060815260200160008152602001600081526020016000151581526020016000151581526020016000815260200160006001600160a01b03168152602001600015158152602001600081525090565b8181526000828152601d60205260409020805461180190615dcd565b80601f016020809104026020016040519081016040528092919081815260200182805461182d90615dcd565b801561187a5780601f1061184f5761010080835404028352916020019161187a565b820191906000526020600020905b81548152906001019060200180831161185d57829003601f168201915b50505050602080840192909252506000838152601e825260408082205481850152848252601f83528082205460608501528482528280528082205460ff9081161515608086015285835260218452818320548116151560a0860152858352601b84528183205460c0860152858352601c8452818320546001600160a01b031660e0860152858352602284528183205416151561010085015284825260239092522054610120820152919050565b6015818154811061193757600080fd5b6000918252602090912001546001600160a01b0316905081565b6001546001600160a01b0316331461196857600080fd5b600c80546001600160a01b039586166001600160a01b031991821617909155600d805494861694821694909417909355601280549285169284169290921790915560148054919093169116179055565b6001546001600160a01b031633146119cf57600080fd5b601080546001600160a01b039384166001600160a01b03199182161790915560118054929093169116179055565b600254600090600160a01b900460ff1615611a2a5760405162461bcd60e51b8152600401610d3d90615bbb565b6001600160a01b0382166000908152601a6020526040812054611a4d9042615d86565b90506000611a5a846114e4565b905060006003548383611a6d9190615d67565b611a779190615d47565b95945050505050565b600254600160a01b900460ff1615611aaa5760405162461bcd60e51b8152600401610d3d90615bbb565b601260009054906101000a90046001600160a01b03166001600160a01b0316632267716c6040518163ffffffff1660e01b8152600401602060405180830381600087803b158015611afa57600080fd5b505af1158015611b0e573d6000803e3d6000fd5b505050506040513d601f19601f82011682018060405250810190611b3291906159bc565b611b6b5760405162461bcd60e51b815260206004820152600a60248201526921656d697373696f6e7360b01b6044820152606401610d3d565b6000611b76336119fd565b336000908152601a602052604080822042905560025460125491516370a0823160e01b81526001600160a01b03928316600482015293945091929116906370a082319060240160206040518083038186803b158015611bd457600080fd5b505afa158015611be8573d6000803e3d6000fd5b505050506040513d601f19601f82011682018060405250810190611c0c91906159dc565b9050600061271060085483611c219190615d67565b611c2b9190615d47565b905080831115611c39578092505b601254604051633ea2c5d560e11b8152600481018590523360248201526001600160a01b0390911690637d458baa90604401600060405180830381600087803b158015611c8557600080fd5b505af1158015611c99573d6000803e3d6000fd5b50505050505050565b600254600160a01b900460ff1615611ccc5760405162461bcd60e51b8152600401610d3d90615bbb565b601054604051638dcb4c9360e01b81526001600160a01b03848116600483015290911690638dcb4c939060240160206040518083038186803b158015611d1157600080fd5b505afa158015611d25573d6000803e3d6000fd5b505050506040513d601f19601f82011682018060405250810190611d4991906159bc565b1515600114611d855760405162461bcd60e51b81526020600482015260086024820152670858dd5c985d195960c21b6044820152606401610d3d565b60008111611da55760405162461bcd60e51b8152600401610d3d90615bf8565b3360009081526018602052604090205460ff161515600114611e1c576015805460018181019092557f55f448fdea98c4d29eb340757ef0a66cd03dbb9538908a6a81d96026b71ec4750180546001600160a01b031916339081179091556000908152601860205260409020805460ff191690911790555b600f546040516323b872dd60e01b81526001600160a01b03808516926323b872dd92611e5092339216908690600401615b37565b602060405180830381600087803b158015611e6a57600080fd5b505af1158015611e7e573d6000803e3d6000fd5b505050506040513d601f19601f82011682018060405250810190611ea291906159bc565b611ed75760405162461bcd60e51b81526020600482015260066024820152652166756e647360d01b6044820152606401610d3d565b600f546040516346dafa2f60e01b81526001600160a01b03848116600483015260248201849052336044830152909116906346dafa2f90606401600060405180830381600087803b158015611f2b57600080fd5b505af1158015611f3f573d6000803e3d6000fd5b5050336000818152601a602052604090819020429055516001600160a01b03861693509091507f5f9b5a75581a29d72b32414a5df7f1ef124b7787b38616fb8fdcad76179127c290611f949085815260200190565b60405180910390a35050565b600254600090600160a01b900460ff1615611fcd5760405162461bcd60e51b8152600401610d3d90615bbb565b600a546000908152601d602052604081208054611fe990615dcd565b80601f016020809104026020016040519081016040528092919081815260200182805461201590615dcd565b80156120625780601f1061203757610100808354040283529160200191612062565b820191906000526020600020905b81548152906001019060200180831161204557829003601f168201915b5050600a5460008181526024602090815260408083203384528252808320549383526022909152902054909650939450505060ff9091161590506120c757600a546000908152601e6020526040812080548492906120c1908490615d86565b90915550505b600a54600090815260246020908152604080832033845290915281208190556127106120f4846032615d67565b6120fe9190615d47565b9050612109816143ef565b50821561216057600a546000818152601e60205260409081902054905133917f70a6ab6ed794c2ceb8df59b7bb4e317e9b215d9ce74b88161ca5af2a5a801d6f916121579188918890615cdf565b60405180910390a35b505090565b600254600160a01b900460ff161561218f5760405162461bcd60e51b8152600401610d3d90615bbb565b600a54600090815260246020818152604080842033808652925280842054600f54915163332a4b6760e21b815260048101939093526001600160a01b03868116948401949094529392169063cca92d9c9060440160206040518083038186803b1580156121fb57600080fd5b505afa15801561220f573d6000803e3d6000fd5b505050506040513d601f19601f8201168201806040525081019061223391906159dc565b600f5460405163f940e38560e01b81526001600160a01b03868116600483015233602483015292935091169063f940e38590604401602060405180830381600087803b15801561228257600080fd5b505af1158015612296573d6000803e3d6000fd5b505050506040513d601f19601f820116820180604052508101906122ba91906159bc565b6122f25760405162461bcd60e51b815260206004820152600960248201526810ba3930b739b332b960b91b6044820152606401610d3d565b6040518181526001600160a01b0384169033907f12dcb5d4117cb4675d56c72f030db8f0f4dd34f875fe484eea4cf0790b5deaa39060200160405180910390a3600061233c6144c8565b9050600061234a8285615d86565b9050600061271061235c836032615d67565b6123669190615d47565b9050611c99816143ef565b6000818152601e6020908152604080832054600e5482516396c82e5760e01b81529251919385936001600160a01b03909216926396c82e57926004808201939291829003018186803b1580156123c657600080fd5b505afa1580156123da573d6000803e3d6000fd5b505050506040513d601f19601f820116820180604052508101906123fe91906159dc565b600f60009054906101000a90046001600160a01b03166001600160a01b03166396c82e576040518163ffffffff1660e01b815260040160206040518083038186803b15801561244c57600080fd5b505afa158015612460573d6000803e3d6000fd5b505050506040513d601f19601f8201168201806040525081019061248491906159dc565b61248e9190615d2f565b90506000612710600654836124a39190615d67565b6124ad9190615d47565b909211949350505050565b6001546001600160a01b031633146124cf57600080fd5b6002546040516370a0823160e01b81523060048201526000916001600160a01b0316906370a082319060240160206040518083038186803b15801561251357600080fd5b505afa158015612527573d6000803e3d6000fd5b505050506040513d601f19601f8201168201806040525081019061254b91906159dc565b60025460405163a9059cbb60e01b81526001600160a01b0385811660048301526024820184905292935091169063a9059cbb90604401602060405180830381600087803b15801561259b57600080fd5b505af11580156125af573d6000803e3d6000fd5b505050506040513d601f19601f820116820180604052508101906125d391906159bc565b505050565b6001546001600160a01b031633146125ef57600080fd5b600f80546001600160a01b039485166001600160a01b031991821617909155600e80549385169382169390931790925560138054919093169116179055565b600b5460009060ff161561268a57600b60019054906101000a90046001600160a01b03166001600160a01b0316637b0e5c456040518163ffffffff1660e01b815260040160206040518083038186803b1580156112e757600080fd5b50600d546001600160a01b0316610d0d565b600254600090600160a01b900460ff16156126c95760405162461bcd60e51b8152600401610d3d90615bbb565b601260009054906101000a90046001600160a01b03166001600160a01b031663194e22ce6040518163ffffffff1660e01b8152600401602060405180830381600087803b15801561271957600080fd5b505af115801561272d573d6000803e3d6000fd5b505050506040513d601f19601f8201168201806040525081019061275191906159bc565b15156001141561277d5760405162461bcd60e51b81526020600482015260006024820152604401610d3d565b600a5460009081526022602052604090205460ff1615156001146127cb5760405162461bcd60e51b815260206004820152600560248201526410b7b832b760d91b6044820152606401610d3d565b600a546000908152601d6020526040812080546127e790615dcd565b80601f016020809104026020016040519081016040528092919081815260200182805461281390615dcd565b80156128605780601f1061283557610100808354040283529160200191612860565b820191906000526020600020905b81548152906001019060200180831161284357829003601f168201915b5050505050905061286f6144c8565b915061287c600a54613a4a565b80156128995750600a54600090815260208052604090205460ff16155b15612a3f576128c3816040518060400160405280600381526020016244414f60e81b815250614191565b806128f057506128f081604051806040016040528060058152602001645554494c5360d81b815250614191565b8061291f575061291f81604051806040016040528060078152602001665245534552564560c81b815250614191565b806129515750612951816040518060400160405280600a8152602001694745545f53504152544160b01b815250614191565b8061297f575061297f81604051806040016040528060068152602001652927aaaa22a960d11b815250614191565b806129b057506129b08160405180604001604052806009815260200168131254d517d093d39160ba1b815250614191565b806129dd57506129dd816040518060400160405280600581526020016411d490539560da1b815250614191565b80612a155750612a15816040518060400160405280601081526020016f10511117d0d5549055115117d413d3d360821b815250614191565b15612a3757612a25600a54612371565b15612a3257612a32614654565b612a3f565b612a3f614654565b8115612a9557600a546000818152601e60205260409081902054905133917f4d46d88c7e981a5bf4572a83b5d88bcfefbd5ee6ca8df0588e27c4221a43640791612a8c9187918790615cdf565b60405180910390a35b5090565b600254600160a01b900460ff1615612ac35760405162461bcd60e51b8152600401610d3d90615bbb565b600a54600090815260236020526040902054612ae2906213c680615d2f565b4211612b185760405162461bcd60e51b8152602060048201526005602482015264216461797360d81b6044820152606401610d3d565b600a80546000908152601e60209081526040808320839055835483526022909152808220805460ff191690559154915133917f6b4f340ccba70b829531b22cfbc4ad2defb3beac09f6149d584fe1031dedbf7c91a3565b6001546001600160a01b03163314612b8657600080fd5b60105460405163bbe4f6db60e01b81526001600160a01b038381166004830152600092169063bbe4f6db9060240160206040518083038186803b158015612bcc57600080fd5b505afa158015612be0573d6000803e3d6000fd5b505050506040513d601f19601f82011682018060405250810190612c049190615796565b6001600160a01b03811660009081526019602052604090205490915060ff1615612c595760405162461bcd60e51b81526020600482015260066024820152651b1a5cdd195960d21b6044820152606401610d3d565b6001600160a01b03808216600081815260196020526040808220805460ff1916600190811790915560168054918201815583527fd833147d7dc355ba459fc788f669e58cfaf9dc25ddcd0702e87d69c7b51242890180546001600160a01b03191690931790925590519184169133917fa2c962e87fd75165c1496c9ea420ddb0231e124bf2625a77f828287c8050006891a35050565b600b5460009060ff1615612d4b57600b60019054906101000a90046001600160a01b03166001600160a01b0316639d2cc4366040518163ffffffff1660e01b815260040160206040518083038186803b1580156112e757600080fd5b506012546001600160a01b0316610d0d565b6000808311612d975760405162461bcd60e51b815260206004820152600660248201526521706172616d60d01b6044820152606401610d3d565b6000829050612dc6816040518060400160405280600881526020016721a7a7a62fa7a32360c11b815250614191565b80612dfa5750612dfa816040518060400160405280600c81526020016b22a920a9afaa27afa2a0a92760a11b815250614191565b612e165760405162461bcd60e51b8152600401610d3d90615bd9565b612e1e61423b565b612e37600954670de0b6b3a76400006111fd9190615d67565b50600a80546000908152601b6020908152604080832088905592548252601d81529190208451612e6992860190615678565b50600a54336001600160a01b0316600080516020615e6583398151915285604051612e949190615ba8565b60405180910390a35050600a5492915050565b600254600090600160a01b900460ff1615612ed45760405162461bcd60e51b8152600401610d3d90615bbb565b60026000541415612f275760405162461bcd60e51b815260206004820152601f60248201527f5265656e7472616e637947756172643a207265656e7472616e742063616c6c006044820152606401610d3d565b600260005581612f495760405162461bcd60e51b8152600401610d3d90615bf8565b6001600160a01b03831660009081526019602052604090205460ff16612f9b5760405162461bcd60e51b8152602060048201526007602482015266085b1a5cdd195960ca1b6044820152606401610d3d565b60105460405163bbe4f6db60e01b81526001600160a01b038581166004830152600092169063bbe4f6db9060240160206040518083038186803b158015612fe157600080fd5b505afa158015612ff5573d6000803e3d6000fd5b505050506040513d601f19601f820116820180604052508101906130199190615796565b3360009081526018602052604090205490915060ff161515600114613093576015805460018181019092557f55f448fdea98c4d29eb340757ef0a66cd03dbb9538908a6a81d96026b71ec4750180546001600160a01b031916339081179091556000908152601860205260409020805460ff191690911790555b600061309f858561476d565b336000818152601a602052604090819020429055600e54905163bf58d0ef60e01b81529293506001600160a01b03169163bf58d0ef916130e6918691908690600401615b37565b600060405180830381600087803b15801561310057600080fd5b505af1158015613114573d6000803e3d6000fd5b505060408051878152602081018590523393507fe4dd259ab128527fe8b5fdae0b44bda8db95a4de10b999d63dce142b1eb88d5492500160405180910390a2600192505050600160005592915050565b60006001600160a01b0383166131a75760405162461bcd60e51b8152602060048201526008602482015267216164647265737360c01b6044820152606401610d3d565b6002546012546040516370a0823160e01b81526001600160a01b03918216600482015260009291909116906370a082319060240160206040518083038186803b1580156131f357600080fd5b505afa158015613207573d6000803e3d6000fd5b505050506040513d601f19601f8201168201806040525081019061322b91906159dc565b90506000612710600854836132409190615d67565b61324a9190615d47565b905060008411801561325b57508084105b6132915760405162461bcd60e51b815260206004820152600760248201526608505353d5539560ca1b6044820152606401610d3d565b61329961423b565b6132b2600954670de0b6b3a76400006111fd9190615d67565b50604080518082018252600581526411d490539560da1b6020808301918252600a546000908152601d90915292909220815191926132ef92615678565b50600a80546000908152601c6020908152604080832080546001600160a01b0319166001600160a01b038c1617905583548352601b90915290819020879055905490513390600080516020615e658339815191529061334f908590615ba8565b60405180910390a35050600a54949350505050565b600254600160a01b900460ff161561338e5760405162461bcd60e51b8152600401610d3d90615bbb565b600254600160a81b900460ff166133cf5760405162461bcd60e51b81526020600482015260056024820152640534c4545560dc1b6044820152606401610d3d565b601260009054906101000a90046001600160a01b03166001600160a01b031663194e22ce6040518163ffffffff1660e01b8152600401602060405180830381600087803b15801561341f57600080fd5b505af1158015613433573d6000803e3d6000fd5b505050506040513d601f19601f8201168201806040525081019061345791906159bc565b1515600114156134835760405162461bcd60e51b81526020600482015260006024820152604401610d3d565b600454600a546000908152601f60205260409020546134a29042615d86565b116134da5760405162461bcd60e51b815260206004820152600860248201526710b1b7b7b637b33360c11b6044820152606401610d3d565b600a54600090815260208052604090205460ff16151560011461352d5760405162461bcd60e51b815260206004820152600b60248201526a2166696e616c6973696e6760a81b6044820152606401610d3d565b600a5460009081526022602052604090205460ff16151560011461355057600080fd5b600a5460009081526021602052604090205460ff161561356f57600080fd5b61357a600a54613a4a565b61359b57600a5460009081526020805260409020805460ff19169055613950565b600a546000908152601d6020526040812080546135b790615dcd565b80601f01602080910402602001604051908101604052809291908181526020018280546135e390615dcd565b80156136305780601f1061360557610100808354040283529160200191613630565b820191906000526020600020905b81548152906001019060200180831161361357829003601f168201915b5050505050905061365c816040518060400160405280600381526020016244414f60e81b815250614191565b156136715761366c600a54614e10565b61394e565b61369981604051806040016040528060068152602001652927aaaa22a960d11b815250614191565b156136a95761366c600a54614eba565b6136d081604051806040016040528060058152602001645554494c5360d81b815250614191565b156136e05761366c600a54614ef0565b61370981604051806040016040528060078152602001665245534552564560c81b815250614191565b156137195761366c600a54614f26565b613749816040518060400160405280600e81526020016d464c49505f454d495353494f4e5360901b815250614191565b156137595761366c600a54614f5c565b613783816040518060400160405280600881526020016721a7a7a62fa7a32360c11b815250614191565b156137935761366c600a54614fcd565b6137c1816040518060400160405280600c81526020016b22a920a9afaa27afa2a0a92760a11b815250614191565b156137d15761366c600a54614fea565b6137f8816040518060400160405280600581526020016411d490539560da1b815250614191565b156138085761366c600a54615007565b613834816040518060400160405280600a8152602001694745545f53504152544160b01b815250614191565b156138445761366c600a54615096565b61386f8160405180604001604052806009815260200168131254d517d093d39160ba1b815250614191565b1561387f5761366c600a5461510f565b6138ac816040518060400160405280600b81526020016a1111531254d517d093d39160aa1b815250614191565b156138bc5761366c600a546151ac565b6138ee816040518060400160405280601081526020016f10511117d0d5549055115117d413d3d360821b815250614191565b156138fe5761366c600a54615340565b613933816040518060400160405280601381526020017214915353d59157d0d5549055115117d413d3d3606a1b815250614191565b156139435761366c600a54615386565b61394e600a5461543f565b505b565b6001546001600160a01b0316331461396957600080fd5b601755565b600b5460009060ff16156139ca57600b60019054906101000a90046001600160a01b03166001600160a01b031663b93ec54b6040518163ffffffff1660e01b815260040160206040518083038186803b1580156112e757600080fd5b506011546001600160a01b0316610d0d565b600b5460009060ff1615613a3857600b60019054906101000a90046001600160a01b03166001600160a01b031663b99b0a0c6040518163ffffffff1660e01b815260040160206040518083038186803b1580156112e757600080fd5b506010546001600160a01b0316610d0d565b6000818152601e6020908152604080832054600e5482516396c82e5760e01b81529251919385936001600160a01b03909216926396c82e57926004808201939291829003018186803b158015613a9f57600080fd5b505afa158015613ab3573d6000803e3d6000fd5b505050506040513d601f19601f82011682018060405250810190613ad791906159dc565b600f60009054906101000a90046001600160a01b03166001600160a01b03166396c82e576040518163ffffffff1660e01b815260040160206040518083038186803b158015613b2557600080fd5b505afa158015613b39573d6000803e3d6000fd5b505050506040513d601f19601f82011682018060405250810190613b5d91906159dc565b613b679190615d2f565b905060006124ad600283615d47565b6001546000906001600160a01b03163314613b9057600080fd5b6002546040516370a0823160e01b81523060048201526000916001600160a01b0316906370a082319060240160206040518083038186803b158015613bd457600080fd5b505afa158015613be8573d6000803e3d6000fd5b505050506040513d601f19601f82011682018060405250810190613c0c91906159dc565b600254604051630852cd8d60e31b8152600481018390529192506001600160a01b0316906342966c6890602401600060405180830381600087803b158015613c5357600080fd5b505af1158015613c67573d6000803e3d6000fd5b50505050600191505090565b601d6020526000908152604090208054613c8c90615dcd565b80601f0160208091040260200160405190810160405280929190818152602001828054613cb890615dcd565b8015613d055780601f10613cda57610100808354040283529160200191613d05565b820191906000526020600020905b815481529060010190602001808311613ce857829003601f168201915b505050505081565b600080829050613d43816040518060400160405280600e81526020016d464c49505f454d495353494f4e5360901b815250614191565b80613d755750613d75816040518060400160405280600a8152602001694745545f53504152544160b01b815250614191565b613d915760405162461bcd60e51b8152600401610d3d90615bd9565b613d9961423b565b613db2600954670de0b6b3a76400006111fd9190615d67565b50600a546000908152601d602090815260409091208451613dd592860190615678565b50600a54336001600160a01b0316600080516020615e6583398151915285604051613e009190615ba8565b60405180910390a35050600a54919050565b6001546001600160a01b03163314613e2957600080fd5b60105460405163bbe4f6db60e01b81526001600160a01b038381166004830152600092169063bbe4f6db9060240160206040518083038186803b158015613e6f57600080fd5b505afa158015613e83573d6000803e3d6000fd5b505050506040513d601f19601f82011682018060405250810190613ea79190615796565b6001600160a01b03811660009081526019602052604090205490915060ff16613efc5760405162461bcd60e51b8152602060048201526007602482015266085b1a5cdd195960ca1b6044820152606401610d3d565b6001600160a01b0381166000908152601960205260408120805460ff191690555b60165481101561405757816001600160a01b031660168281548110613f5257634e487b7160e01b600052603260045260246000fd5b6000918252602090912001546001600160a01b031614156140455760168054613f7d90600190615d86565b81548110613f9b57634e487b7160e01b600052603260045260246000fd5b600091825260209091200154601680546001600160a01b039092169183908110613fd557634e487b7160e01b600052603260045260246000fd5b9060005260206000200160006101000a8154816001600160a01b0302191690836001600160a01b03160217905550601680548061402257634e487b7160e01b600052603160045260246000fd5b600082815260209020810160001990810180546001600160a01b03191690550190555b8061404f81615e08565b915050613f1d565b506040516001600160a01b0383169033907ff487c2322baa448cfa506b983134d9dd9f27d0bbfe0b48119a3908d4f0dde89f90600090a35050565b600e5460405163ba0ba54f60e01b81526001600160a01b0384811660048301528381166024830152600092839291169063ba0ba54f9060440160206040518083038186803b1580156140e357600080fd5b505afa1580156140f7573d6000803e3d6000fd5b505050506040513d601f19601f8201168201806040525081019061411b91906159dc565b949350505050565b600b5460009060ff161561417f57600b60019054906101000a90046001600160a01b03166001600160a01b031663f301e7816040518163ffffffff1660e01b815260040160206040518083038186803b1580156112e757600080fd5b506014546001600160a01b0316610d0d565b60006002826040516141a39190615b1b565b602060405180830381855afa1580156141c0573d6000803e3d6000fd5b5050506040513d601f19601f820116820180604052508101906141e391906159dc565b6002846040516141f39190615b1b565b602060405180830381855afa158015614210573d6000803e3d6000fd5b5050506040513d601f19601f8201168201806040525081019061423391906159dc565b149392505050565b600254600160a01b900460ff16156142655760405162461bcd60e51b8152600401610d3d90615bbb565b600254600160a81b900460ff166142a65760405162461bcd60e51b81526020600482015260056024820152640534c4545560dc1b6044820152606401610d3d565b601260009054906101000a90046001600160a01b03166001600160a01b031663194e22ce6040518163ffffffff1660e01b8152600401602060405180830381600087803b1580156142f657600080fd5b505af115801561430a573d6000803e3d6000fd5b505050506040513d601f19601f8201168201806040525081019061432e91906159bc565b15156001141561435a5760405162461bcd60e51b81526020600482015260006024820152604401610d3d565b600a5460009081526022602052604090205460ff16156143a45760405162461bcd60e51b815260206004820152600560248201526410b7b832b760d91b6044820152606401610d3d565b6001600560008282546143b79190615d2f565b9091555050600554600a8181556000918252602260209081526040808420805460ff1916600117905591548352602390529020429055565b6000670de0b6b3a764000082106144c0576002546012546040516323b872dd60e01b81526001600160a01b03928316926323b872dd92614439923392909116908790600401615b37565b602060405180830381600087803b15801561445357600080fd5b505af1158015614467573d6000803e3d6000fd5b505050506040513d601f19601f8201168201806040525081019061448b91906159bc565b6144c05760405162461bcd60e51b8152600401610d3d906020808252600490820152632166656560e01b604082015260600190565b506001919050565b600a546000818152602460209081526040808320338452825280832054938352601e909152812080549192918390614501908490615d86565b9091555050600e54604051635364df4960e01b81523360048201526001600160a01b0390911690635364df499060240160206040518083038186803b15801561454957600080fd5b505afa15801561455d573d6000803e3d6000fd5b505050506040513d601f19601f8201168201806040525081019061458191906159dc565b600f54604051635364df4960e01b81523360048201526001600160a01b0390911690635364df499060240160206040518083038186803b1580156145c457600080fd5b505afa1580156145d8573d6000803e3d6000fd5b505050506040513d601f19601f820116820180604052508101906145fc91906159dc565b6146069190615d2f565b905080601e6000600a548152602001908152602001600020600082825461462d9190615d2f565b9091555050600a546000908152602460209081526040808320338452909152902081905590565b600a546000908152601d60205260408120805461467090615dcd565b80601f016020809104026020016040519081016040528092919081815260200182805461469c90615dcd565b80156146e95780601f106146be576101008083540402835291602001916146e9565b820191906000526020600020905b8154815290600101906020018083116146cc57829003601f168201915b5050600a8054600090815260208080526040808320805460ff1916600117905583548352601f909152902042908190559054600454959650943394507f0f36aea5066f9f90a999260fe4ce8d7713f7f07f5ae61bf36d73cc51170a3a9e9350614753925090615d2f565b84604051614762929190615cc6565b60405180910390a350565b600254600c54604051636eb1769f60e11b81523060048201526001600160a01b0391821660248201526000926a021165458500521280000092169063dd62ed3e9060440160206040518083038186803b1580156147c957600080fd5b505afa1580156147dd573d6000803e3d6000fd5b505050506040513d601f19601f8201168201806040525081019061480191906159dc565b101561491157600254600c54604080516318160ddd60e01b815290516001600160a01b039384169363095ea7b393169184916318160ddd91600480820192602092909190829003018186803b15801561485957600080fd5b505afa15801561486d573d6000803e3d6000fd5b505050506040513d601f19601f8201168201806040525081019061489191906159dc565b6040516001600160e01b031960e085901b1681526001600160a01b0390921660048301526024820152604401602060405180830381600087803b1580156148d757600080fd5b505af11580156148eb573d6000803e3d6000fd5b505050506040513d601f19601f8201168201806040525081019061490f91906159bc565b505b6001600160a01b038316614a665734821461493e5760405162461bcd60e51b8152600401610d3d90615bf8565b600d54604051631701c89760e31b81526001600160a01b03858116600483015260248201859052600092169063b80e44b89060440160206040518083038186803b15801561498b57600080fd5b505afa15801561499f573d6000803e3d6000fd5b505050506040513d601f19601f820116820180604052508101906149c391906159dc565b600c54600e546040516393cac68560e01b815260048101849052602481018790526001600160a01b038881166044830152918216606482015292935016906393cac6859085906084016020604051808303818588803b158015614a2557600080fd5b505af1158015614a39573d6000803e3d6000fd5b50505050506040513d601f19601f82011682018060405250810190614a5e91906159dc565b915050611285565b6040516323b872dd60e01b81526001600160a01b038416906323b872dd90614a9690339030908790600401615b37565b602060405180830381600087803b158015614ab057600080fd5b505af1158015614ac4573d6000803e3d6000fd5b505050506040513d601f19601f82011682018060405250810190614ae891906159bc565b506040516370a0823160e01b81523060048201526000906001600160a01b038516906370a082319060240160206040518083038186803b158015614b2b57600080fd5b505afa158015614b3f573d6000803e3d6000fd5b505050506040513d601f19601f82011682018060405250810190614b6391906159dc565b600d54604051631701c89760e31b81526001600160a01b038781166004830152602482018490529293506000929091169063b80e44b89060440160206040518083038186803b158015614bb557600080fd5b505afa158015614bc9573d6000803e3d6000fd5b505050506040513d601f19601f82011682018060405250810190614bed91906159dc565b600c54604051636eb1769f60e11b81523060048201526001600160a01b03918216602482015291925083919087169063dd62ed3e9060440160206040518083038186803b158015614c3d57600080fd5b505afa158015614c51573d6000803e3d6000fd5b505050506040513d601f19601f82011682018060405250810190614c7591906159dc565b1015614d79576000856001600160a01b03166318160ddd6040518163ffffffff1660e01b815260040160206040518083038186803b158015614cb657600080fd5b505afa158015614cca573d6000803e3d6000fd5b505050506040513d601f19601f82011682018060405250810190614cee91906159dc565b600c5460405163095ea7b360e01b81526001600160a01b0391821660048201526024810183905291925087169063095ea7b390604401602060405180830381600087803b158015614d3e57600080fd5b505af1158015614d52573d6000803e3d6000fd5b505050506040513d601f19601f82011682018060405250810190614d7691906159bc565b50505b600c54600e546040516393cac68560e01b815260048101849052602481018590526001600160a01b03888116604483015291821660648201529116906393cac68590608401602060405180830381600087803b158015614dd857600080fd5b505af1158015614dec573d6000803e3d6000fd5b505050506040513d601f19601f82011682018060405250810190611a7791906159dc565b6000818152601c60205260409081902054600b8054610100600160a81b0319166101006001600160a01b03938416908102919091179091556002549251631d007f5f60e01b815260048101829052909290911690631d007f5f90602401600060405180830381600087803b158015614e8757600080fd5b505af1158015614e9b573d6000803e3d6000fd5b5050600b805460ff1916600117905550614eb690508261543f565b5050565b6000818152601c6020526040902054600c80546001600160a01b0319166001600160a01b039092169182179055614eb68261543f565b6000818152601c6020526040902054600d80546001600160a01b0319166001600160a01b039092169182179055614eb68261543f565b6000818152601c6020526040902054601280546001600160a01b0319166001600160a01b039092169182179055614eb68261543f565b600260009054906101000a90046001600160a01b03166001600160a01b031663fe1fa8fa6040518163ffffffff1660e01b8152600401600060405180830381600087803b158015614fac57600080fd5b505af1158015614fc0573d6000803e3d6000fd5b5050505061394e8161543f565b6000818152601b60205260409020546004819055614eb68261543f565b6000818152601b60205260409020546007819055614eb68261543f565b6000818152601b6020908152604080832054601c90925291829020546012549251633ea2c5d560e11b8152600481018390526001600160a01b039182166024820181905292939190911690637d458baa90604401600060405180830381600087803b15801561507557600080fd5b505af1158015615089573d6000803e3d6000fd5b505050506125d38361543f565b60025460405163680fb7dd60e11b81526a021165458500521280000060048201819052306024830152916001600160a01b03169063d01f6fba906044015b600060405180830381600087803b1580156150ee57600080fd5b505af1158015615102573d6000803e3d6000fd5b50505050614eb68261543f565b6000818152601c60209081526040808320546001600160a01b031680845260199092529091205460ff166151a3576001600160a01b0381166000818152601960205260408120805460ff191660019081179091556016805491820181559091527fd833147d7dc355ba459fc788f669e58cfaf9dc25ddcd0702e87d69c7b51242890180546001600160a01b03191690911790555b614eb68261543f565b6000818152601c60209081526040808320546001600160a01b031680845260199092529091205460ff16156151a3576001600160a01b0381166000908152601960205260408120805460ff191690555b60165481101561533657816001600160a01b03166016828154811061523157634e487b7160e01b600052603260045260246000fd5b6000918252602090912001546001600160a01b03161415615324576016805461525c90600190615d86565b8154811061527a57634e487b7160e01b600052603260045260246000fd5b600091825260209091200154601680546001600160a01b0390921691839081106152b457634e487b7160e01b600052603260045260246000fd5b9060005260206000200160006101000a8154816001600160a01b0302191690836001600160a01b03160217905550601680548061530157634e487b7160e01b600052603160045260246000fd5b600082815260209020810160001990810180546001600160a01b03191690550190555b8061532e81615e08565b9150506151fc565b50614eb68261543f565b6000818152601c6020526040908190205460105491516305644c1560e31b81526001600160a01b0391821660048201819052929190911690632b2260a8906024016150d4565b6000818152601c602052604090819020546010549151637ca51fbf60e01b81526001600160a01b0391821660048201819052929190911690637ca51fbf90602401600060405180830381600087803b1580156153e157600080fd5b505af11580156153f5573d6000803e3d6000fd5b505050506001600160a01b03811660009081526019602052604090205460ff16156151a3576001600160a01b0381166000908152601960205260409020805460ff19169055614eb6825b6000818152601d60205260408120805461545890615dcd565b80601f016020809104026020016040519081016040528092919081815260200182805461548490615dcd565b80156154d15780601f106154a6576101008083540402835291602001916154d1565b820191906000526020600020905b8154815290600101906020018083116154b457829003601f168201915b5050506000858152601e602090815260409182902054600e5483516396c82e5760e01b8152935196975088963396507f28fca9bc3d4a734a707bd9396d50341c1f45e1d455c4aa4a58ceee0e09f64544955091936001600160a01b03909116926396c82e5792600480840193829003018186803b15801561555157600080fd5b505afa158015615565573d6000803e3d6000fd5b505050506040513d601f19601f8201168201806040525081019061558991906159dc565b600f60009054906101000a90046001600160a01b03166001600160a01b03166396c82e576040518163ffffffff1660e01b815260040160206040518083038186803b1580156155d757600080fd5b505afa1580156155eb573d6000803e3d6000fd5b505050506040513d601f19601f8201168201806040525081019061560f91906159dc565b6156199190615d2f565b8560405161562993929190615cdf565b60405180910390a3506000908152601e6020908152604080832083905560218252808320805460ff19908116600117909155828052818420805482169055602290925290912080549091169055565b82805461568490615dcd565b90600052602060002090601f0160209004810192826156a657600085556156ec565b82601f106156bf57805160ff19168380011785556156ec565b828001600101855582156156ec579182015b828111156156ec5782518255916020019190600101906156d1565b50612a959291505b80821115612a9557600081556001016156f4565b600082601f830112615718578081fd5b813567ffffffffffffffff81111561573257615732615e39565b615745601f8201601f1916602001615cfe565b818152846020838601011115615759578283fd5b816020850160208301379081016020019190915292915050565b600060208284031215615784578081fd5b813561578f81615e4f565b9392505050565b6000602082840312156157a7578081fd5b815161578f81615e4f565b600080604083850312156157c4578081fd5b82356157cf81615e4f565b915060208301356157df81615e4f565b809150509250929050565b6000806000606084860312156157fe578081fd5b833561580981615e4f565b9250602084013561581981615e4f565b9150604084013561582981615e4f565b809150509250925092565b60008060008060808587031215615849578081fd5b843561585481615e4f565b9350602085013561586481615e4f565b9250604085013561587481615e4f565b9150606085013561588481615e4f565b939692955090935050565b600080604083850312156158a1578182fd5b82356158ac81615e4f565b9150602083013567ffffffffffffffff8111156158c7578182fd5b6158d385828601615708565b9150509250929050565b600080604083850312156158ef578182fd5b82356158fa81615e4f565b946020939093013593505050565b6000602080838503121561591a578182fd5b823567ffffffffffffffff80821115615931578384fd5b818501915085601f830112615944578384fd5b81358181111561595657615956615e39565b8060051b9150615967848301615cfe565b8181528481019084860184860187018a1015615981578788fd5b8795505b838610156159af578035945061599a85615e4f565b84835260019590950194918601918601615985565b5098975050505050505050565b6000602082840312156159cd578081fd5b8151801515811461578f578182fd5b6000602082840312156159ed578081fd5b5051919050565b600060208284031215615a05578081fd5b813567ffffffffffffffff811115615a1b578182fd5b61411b84828501615708565b600060208284031215615a38578081fd5b5035919050565b60008060408385031215615a51578182fd5b8235915060208301356157df81615e4f565b60008060408385031215615a75578182fd5b82359150602083013567ffffffffffffffff8111156158c7578182fd5b60008060408385031215615aa4578182fd5b505080516020909101519092909150565b600080600080600060a08688031215615acc578283fd5b505083359560208501359550604085013594606081013594506080013592509050565b60008151808452615b07816020860160208601615d9d565b601f01601f19169290920160200192915050565b60008251615b2d818460208701615d9d565b9190910192915050565b6001600160a01b039384168152919092166020820152604081019190915260600190565b6020808252825182820181905260009190848201906040850190845b81811015615b9c5783516001600160a01b031683529284019291840191600101615b77565b50909695505050505050565b60006020825261578f6020830184615aef565b602080825260049082015263434f4d4160e01b604082015260600190565b602080825260059082015264215459504560d81b604082015260600190565b60208082526007908201526608585b5bdd5b9d60ca1b604082015260600190565b600060208252825160208301526020830151610140806040850152615c42610160850183615aef565b915060408501516060850152606085015160808501526080850151615c6b60a086018215159052565b5060a085015180151560c08601525060c085015160e085015260e0850151610100615ca0818701836001600160a01b03169052565b8601519050610120615cb58682018315159052565b959095015193019290925250919050565b60008382526040602083015261411b6040830184615aef565b600084825283602083015260606040830152611a776060830184615aef565b604051601f8201601f1916810167ffffffffffffffff81118282101715615d2757615d27615e39565b604052919050565b60008219821115615d4257615d42615e23565b500190565b600082615d6257634e487b7160e01b81526012600452602481fd5b500490565b6000816000190483118215151615615d8157615d81615e23565b500290565b600082821015615d9857615d98615e23565b500390565b60005b83811015615db8578181015183820152602001615da0565b83811115615dc7576000848401525b50505050565b600181811c90821680615de157607f821691505b60208210811415615e0257634e487b7160e01b600052602260045260246000fd5b50919050565b6000600019821415615e1c57615e1c615e23565b5060010190565b634e487b7160e01b600052601160045260246000fd5b634e487b7160e01b600052604160045260246000fd5b6001600160a01b038116811461394e57600080fdfe8d500fcad86fc64a281b94ef64d6d66acbfc6862aa4ff2ee5fbbfb40736e803ea26469706673582212200a84624fea408be8cd3c882c5880eaeabee60a7915ca8d9562978cee5c0d81e064736f6c63430008030033",
    "sourcePath": "/Users/defi/spartanswap-contracts/contracts/Dao.sol",
    "compiler": {
        "name": "solc",
        "version": "0.8.3+commit.8d00100c"
    },
    "functionHashes": {
        "BASE()": "ec342ad0",
        "BONDVAULT()": "2f7fa180",
        "DAO()": "98fabd3a",
        "DAOVAULT()": "38da7dd6",
        "DEPLOYER()": "c1b8411a",
        "LEND()": "f301e781",
        "POOLFACTORY()": "b99b0a0c",
        "RESERVE()": "9d2cc436",
        "ROUTER()": "32fe7b26",
        "SYNTHFACTORY()": "b93ec54b",
        "SYNTHVAULT()": "2ab24e49",
        "UTILS()": "7b0e5c45",
        "allListedAssets()": "35cb5fe0",
        "arrayMembers(uint256)": "436f80be",
        "assetListedCount()": "f7a79a37",
        "bond(address,uint256)": "a515366a",
        "bondingPeriodSeconds()": "65c71bbf",
        "burnBalance()": "bc68fad9",
        "calcClaimBondedLP(address,address)": "f135dcf8",
        "calcCurrentReward(address)": "4636279f",
        "calcReward(address)": "3a61738d",
        "cancelProposal()": "9070577f",
        "changeBondingPeriod(uint256)": "af045980",
        "claim(address)": "1e83409a",
        "claimAll(address[])": "1e2de0d1",
        "coolOffPeriod()": "abb6154f",
        "currentProposal()": "2b49d425",
        "daoClaim()": "79b2dc4c",
        "daoFee()": "2957b839",
        "daoHasMoved()": "24efb528",
        "delistBondAsset(address)": "db634d7c",
        "deposit(address,uint256)": "47e7ef24",
        "erasToEarn()": "2c07eebf",
        "finaliseProposal()": "ab2bd8fd",
        "getProposalDetails(uint256)": "3b4d01a7",
        "harvest()": "4641257d",
        "hasMajority(uint256)": "5c120b37",
        "hasQuorum(uint256)": "bbf8cf82",
        "isListed(address)": "f794062e",
        "isMember(address)": "a230c524",
        "listBondAsset(address)": "9cd99aa2",
        "majorityFactor()": "956615be",
        "mapMember_lastTime(address)": "5c7366d3",
        "mapPIDMember_votes(uint256,address)": "c42b3f7d",
        "mapPID_address(uint256)": "ae887c8b",
        "mapPID_coolOffTime(uint256)": "a299ecb2",
        "mapPID_finalised(uint256)": "2bee1194",
        "mapPID_finalising(uint256)": "4b400034",
        "mapPID_open(uint256)": "8bebea89",
        "mapPID_param(uint256)": "314604fe",
        "mapPID_startTime(uint256)": "b8262869",
        "mapPID_type(uint256)": "c05fc178",
        "mapPID_votes(uint256)": "dab249b3",
        "memberCount()": "11aee380",
        "moveBASEBalance(address)": "68bb97b3",
        "newActionProposal(string)": "d1458363",
        "newAddressProposal(address,string)": "293cee7d",
        "newGrantProposal(address,uint256)": "a6c83fed",
        "newParamProposal(uint256,string)": "a3202246",
        "proposalCount()": "da35c664",
        "purgeDeployer()": "03a82138",
        "removeVote()": "49aa4ee2",
        "retire()": "a4874d77",
        "running()": "d85bd526",
        "secondsPerEra()": "6b92a3b6",
        "setFactoryAddresses(address,address)": "46350821",
        "setGenesisAddresses(address,address,address,address)": "43b2116f",
        "setGenesisFactors(uint256,uint256,uint256,uint256,uint256)": "20b1b45d",
        "setVaultAddresses(address,address,address)": "73758988",
        "voteProposal()": "8351739a",
        "withdraw(address)": "51cff8d9"
    },
    "gasEstimates": {
        "creation": {
            "codeDepositCost": "4850000",
            "executionCost": "infinite",
            "totalCost": "infinite"
        },
        "external": {
            "BASE()": "1103",
            "BONDVAULT()": "infinite",
            "DAO()": "1138",
            "DAOVAULT()": "infinite",
            "DEPLOYER()": "1148",
            "LEND()": "infinite",
            "POOLFACTORY()": "infinite",
            "RESERVE()": "infinite",
            "ROUTER()": "infinite",
            "SYNTHFACTORY()": "infinite",
            "SYNTHVAULT()": "infinite",
            "UTILS()": "infinite",
            "allListedAssets()": "infinite",
            "arrayMembers(uint256)": "2127",
            "assetListedCount()": "1135",
            "bond(address,uint256)": "infinite",
            "bondingPeriodSeconds()": "1051",
            "burnBalance()": "infinite",
            "calcClaimBondedLP(address,address)": "infinite",
            "calcCurrentReward(address)": "infinite",
            "calcReward(address)": "infinite",
            "cancelProposal()": "32777",
            "changeBondingPeriod(uint256)": "21219",
            "claim(address)": "infinite",
            "claimAll(address[])": "infinite",
            "coolOffPeriod()": "1095",
            "currentProposal()": "1075",
            "daoClaim()": "1139",
            "daoFee()": "1119",
            "daoHasMoved()": "1101",
            "delistBondAsset(address)": "infinite",
            "deposit(address,uint256)": "infinite",
            "erasToEarn()": "1119",
            "finaliseProposal()": "infinite",
            "getProposalDetails(uint256)": "infinite",
            "harvest()": "infinite",
            "hasMajority(uint256)": "infinite",
            "hasQuorum(uint256)": "infinite",
            "isListed(address)": "1358",
            "isMember(address)": "1382",
            "listBondAsset(address)": "infinite",
            "majorityFactor()": "1052",
            "mapMember_lastTime(address)": "1337",
            "mapPIDMember_votes(uint256,address)": "1439",
            "mapPID_address(uint256)": "1310",
            "mapPID_coolOffTime(uint256)": "1195",
            "mapPID_finalised(uint256)": "1263",
            "mapPID_finalising(uint256)": "1218",
            "mapPID_open(uint256)": "1263",
            "mapPID_param(uint256)": "1217",
            "mapPID_startTime(uint256)": "1195",
            "mapPID_type(uint256)": "infinite",
            "mapPID_votes(uint256)": "1238",
            "memberCount()": "1089",
            "moveBASEBalance(address)": "infinite",
            "newActionProposal(string)": "infinite",
            "newAddressProposal(address,string)": "infinite",
            "newGrantProposal(address,uint256)": "infinite",
            "newParamProposal(uint256,string)": "infinite",
            "proposalCount()": "1073",
            "purgeDeployer()": "21884",
            "removeVote()": "infinite",
            "retire()": "1139",
            "running()": "1094",
            "secondsPerEra()": "1095",
            "setFactoryAddresses(address,address)": "infinite",
            "setGenesisAddresses(address,address,address,address)": "infinite",
            "setGenesisFactors(uint256,uint256,uint256,uint256,uint256)": "101243",
            "setVaultAddresses(address,address,address)": "infinite",
            "voteProposal()": "infinite",
            "withdraw(address)": "infinite"
        },
        "internal": {
            "_addCuratedPool(uint256)": "infinite",
            "_delistBondingAsset(uint256)": "infinite",
            "_finalise()": "infinite",
            "_handleTransferIn(address,uint256)": "infinite",
            "_increaseSpartaAllocation(uint256)": "infinite",
            "_listBondingAsset(uint256)": "infinite",
            "_removeCuratedPool(uint256)": "infinite",
            "changeCooloff(uint256)": "infinite",
            "changeEras(uint256)": "infinite",
            "checkProposal()": "infinite",
            "completeProposal(uint256)": "infinite",
            "countVotes()": "infinite",
            "flipEmissions(uint256)": "infinite",
            "grantFunds(uint256)": "infinite",
            "isEqual(bytes memory,bytes memory)": "infinite",
            "moveDao(uint256)": "infinite",
            "moveReserve(uint256)": "infinite",
            "moveRouter(uint256)": "infinite",
            "moveUtils(uint256)": "infinite",
            "payFee(uint256)": "infinite"
        }
    }
}