{
  "_format": "hh-sol-artifact-1",
  "contractName": "Dao",
  "sourceName": "contracts/DaoV2.sol",
  "abi": [
    {
      "inputs": [
        {
          "internalType": "address",
          "name": "_base",
          "type": "address"
        }
      ],
      "stateMutability": "nonpayable",
      "type": "constructor"
    },
    {
      "inputs": [],
      "name": "BASE",
      "outputs": [
        {
          "internalType": "address",
          "name": "",
          "type": "address"
        }
      ],
      "stateMutability": "view",
      "type": "function"
    },
    {
      "inputs": [],
      "name": "DAO",
      "outputs": [
        {
          "internalType": "address",
          "name": "",
          "type": "address"
        }
      ],
      "stateMutability": "view",
      "type": "function"
    },
    {
      "inputs": [],
      "name": "DEPLOYER",
      "outputs": [
        {
          "internalType": "address",
          "name": "",
          "type": "address"
        }
      ],
      "stateMutability": "view",
      "type": "function"
    },
    {
      "inputs": [],
      "name": "RESERVE",
      "outputs": [
        {
          "internalType": "contract iRESERVE",
          "name": "",
          "type": "address"
        }
      ],
      "stateMutability": "view",
      "type": "function"
    },
    {
      "inputs": [],
      "name": "UTILS",
      "outputs": [
        {
          "internalType": "contract iUTILS",
          "name": "",
          "type": "address"
        }
      ],
      "stateMutability": "view",
      "type": "function"
    },
    {
      "inputs": [],
      "name": "_RESERVE",
      "outputs": [
        {
          "internalType": "contract iRESERVE",
          "name": "",
          "type": "address"
        }
      ],
      "stateMutability": "view",
      "type": "function"
    },
    {
      "inputs": [],
      "name": "_UTILS",
      "outputs": [
        {
          "internalType": "contract iUTILS",
          "name": "",
          "type": "address"
        }
      ],
      "stateMutability": "view",
      "type": "function"
    },
    {
      "inputs": [],
      "name": "daoHasMoved",
      "outputs": [
        {
          "internalType": "bool",
          "name": "",
          "type": "bool"
        }
      ],
      "stateMutability": "view",
      "type": "function"
    },
    {
      "inputs": [
        {
          "internalType": "address",
          "name": "_utils",
          "type": "address"
        },
        {
          "internalType": "address",
          "name": "_reserve",
          "type": "address"
        }
      ],
      "name": "setGenesisAddresses",
      "outputs": [],
      "stateMutability": "nonpayable",
      "type": "function"
    }
  ],
  "bytecode": "0x608060405234801561001057600080fd5b506040516109493803806109498339818101604052810190610032919061010f565b80600160006101000a81548173ffffffffffffffffffffffffffffffffffffffff021916908373ffffffffffffffffffffffffffffffffffffffff160217905550336000806101000a81548173ffffffffffffffffffffffffffffffffffffffff021916908373ffffffffffffffffffffffffffffffffffffffff16021790555030600260006101000a81548173ffffffffffffffffffffffffffffffffffffffff021916908373ffffffffffffffffffffffffffffffffffffffff16021790555050610181565b6000815190506101098161016a565b92915050565b60006020828403121561012157600080fd5b600061012f848285016100fa565b91505092915050565b60006101438261014a565b9050919050565b600073ffffffffffffffffffffffffffffffffffffffff82169050919050565b61017381610138565b811461017e57600080fd5b50565b6107b9806101906000396000f3fe608060405234801561001057600080fd5b50600436106100935760003560e01c80639d2cc436116100665780639d2cc43614610110578063ad3064851461012e578063bb258e6b1461014a578063c1b8411a14610168578063ec342ad01461018657610093565b806324efb528146100985780637b0e5c45146100b657806398fabd3a146100d45780639c552f04146100f2575b600080fd5b6100a06101a4565b6040516100ad9190610643565b60405180910390f35b6100be6101b7565b6040516100cb9190610679565b60405180910390f35b6100dc61029e565b6040516100e99190610628565b60405180910390f35b6100fa6102c4565b604051610107919061065e565b60405180910390f35b6101186102ea565b604051610125919061065e565b60405180910390f35b6101486004803603810190610143919061055e565b6103d1565b005b6101526104af565b60405161015f9190610679565b60405180910390f35b6101706104d5565b60405161017d9190610628565b60405180910390f35b61018e6104f9565b60405161019b9190610628565b60405180910390f35b600160149054906101000a900460ff1681565b6000600160149054906101000a900460ff161561027557600260009054906101000a900473ffffffffffffffffffffffffffffffffffffffff1673ffffffffffffffffffffffffffffffffffffffff16637b0e5c456040518163ffffffff1660e01b815260040160206040518083038186803b15801561023657600080fd5b505afa15801561024a573d6000803e3d6000fd5b505050506040513d601f19601f8201168201806040525081019061026e91906105c3565b905061029b565b600360009054906101000a900473ffffffffffffffffffffffffffffffffffffffff1690505b90565b600260009054906101000a900473ffffffffffffffffffffffffffffffffffffffff1681565b600460009054906101000a900473ffffffffffffffffffffffffffffffffffffffff1681565b6000600160149054906101000a900460ff16156103a857600260009054906101000a900473ffffffffffffffffffffffffffffffffffffffff1673ffffffffffffffffffffffffffffffffffffffff16639d2cc4366040518163ffffffff1660e01b815260040160206040518083038186803b15801561036957600080fd5b505afa15801561037d573d6000803e3d6000fd5b505050506040513d601f19601f820116820180604052508101906103a1919061059a565b90506103ce565b600460009054906101000a900473ffffffffffffffffffffffffffffffffffffffff1690505b90565b60008054906101000a900473ffffffffffffffffffffffffffffffffffffffff1673ffffffffffffffffffffffffffffffffffffffff163373ffffffffffffffffffffffffffffffffffffffff161461042957600080fd5b81600360006101000a81548173ffffffffffffffffffffffffffffffffffffffff021916908373ffffffffffffffffffffffffffffffffffffffff16021790555080600460006101000a81548173ffffffffffffffffffffffffffffffffffffffff021916908373ffffffffffffffffffffffffffffffffffffffff1602179055505050565b600360009054906101000a900473ffffffffffffffffffffffffffffffffffffffff1681565b60008054906101000a900473ffffffffffffffffffffffffffffffffffffffff1681565b600160009054906101000a900473ffffffffffffffffffffffffffffffffffffffff1681565b60008135905061052e8161073e565b92915050565b60008151905061054381610755565b92915050565b6000815190506105588161076c565b92915050565b6000806040838503121561057157600080fd5b600061057f8582860161051f565b92505060206105908582860161051f565b9150509250929050565b6000602082840312156105ac57600080fd5b60006105ba84828501610534565b91505092915050565b6000602082840312156105d557600080fd5b60006105e384828501610549565b91505092915050565b6105f581610694565b82525050565b610604816106a6565b82525050565b610613816106f6565b82525050565b6106228161071a565b82525050565b600060208201905061063d60008301846105ec565b92915050565b600060208201905061065860008301846105fb565b92915050565b6000602082019050610673600083018461060a565b92915050565b600060208201905061068e6000830184610619565b92915050565b600061069f826106d6565b9050919050565b60008115159050919050565b60006106bd82610694565b9050919050565b60006106cf82610694565b9050919050565b600073ffffffffffffffffffffffffffffffffffffffff82169050919050565b600061070182610708565b9050919050565b6000610713826106d6565b9050919050565b60006107258261072c565b9050919050565b6000610737826106d6565b9050919050565b61074781610694565b811461075257600080fd5b50565b61075e816106b2565b811461076957600080fd5b50565b610775816106c4565b811461078057600080fd5b5056fea26469706673582212200b90eff94d846d1392e70ee08aae9ad7ac0eaf7eeb21a66f7e9d0298a367c02e64736f6c63430008030033",
  "linkReferences": {},
  "deployedLinkReferences": {}
}