{
  "_format": "hh-sol-artifact-1",
  "contractName": "Dao",
  "sourceName": "contracts/DaoV2.sol",
  "abi": [
    {
      "inputs": [
        {
          "internalType": "address",
          "name": "_base",
          "type": "address"
        }
      ],
      "stateMutability": "nonpayable",
      "type": "constructor"
    },
    {
      "anonymous": false,
      "inputs": [
        {
          "indexed": true,
          "internalType": "address",
          "name": "member",
          "type": "address"
        },
        {
          "indexed": true,
          "internalType": "uint256",
          "name": "oldProposalID",
          "type": "uint256"
        },
        {
          "indexed": false,
          "internalType": "uint256",
          "name": "oldVotes",
          "type": "uint256"
        },
        {
          "indexed": false,
          "internalType": "uint256",
          "name": "newVotes",
          "type": "uint256"
        },
        {
          "indexed": false,
          "internalType": "uint256",
          "name": "totalWeight",
          "type": "uint256"
        }
      ],
      "name": "CancelProposal",
      "type": "event"
    },
    {
      "anonymous": false,
      "inputs": [
        {
          "indexed": true,
          "internalType": "address",
          "name": "member",
          "type": "address"
        },
        {
          "indexed": true,
          "internalType": "uint256",
          "name": "proposalID",
          "type": "uint256"
        },
        {
          "indexed": false,
          "internalType": "uint256",
          "name": "votesCast",
          "type": "uint256"
        },
        {
          "indexed": false,
          "internalType": "uint256",
          "name": "totalWeight",
          "type": "uint256"
        },
        {
          "indexed": false,
          "internalType": "string",
          "name": "proposalType",
          "type": "string"
        }
      ],
      "name": "FinalisedProposal",
      "type": "event"
    },
    {
      "anonymous": false,
      "inputs": [
        {
          "indexed": true,
          "internalType": "address",
          "name": "member",
          "type": "address"
        },
        {
          "indexed": true,
          "internalType": "address",
          "name": "pool",
          "type": "address"
        },
        {
          "indexed": false,
          "internalType": "uint256",
          "name": "amount",
          "type": "uint256"
        }
      ],
      "name": "MemberDeposits",
      "type": "event"
    },
    {
      "anonymous": false,
      "inputs": [
        {
          "indexed": true,
          "internalType": "address",
          "name": "member",
          "type": "address"
        },
        {
          "indexed": true,
          "internalType": "address",
          "name": "pool",
          "type": "address"
        },
        {
          "indexed": false,
          "internalType": "uint256",
          "name": "balance",
          "type": "uint256"
        }
      ],
      "name": "MemberWithdraws",
      "type": "event"
    },
    {
      "anonymous": false,
      "inputs": [
        {
          "indexed": true,
          "internalType": "address",
          "name": "member",
          "type": "address"
        },
        {
          "indexed": true,
          "internalType": "uint256",
          "name": "proposalID",
          "type": "uint256"
        },
        {
          "indexed": false,
          "internalType": "string",
          "name": "proposalType",
          "type": "string"
        }
      ],
      "name": "NewProposal",
      "type": "event"
    },
    {
      "anonymous": false,
      "inputs": [
        {
          "indexed": true,
          "internalType": "address",
          "name": "member",
          "type": "address"
        },
        {
          "indexed": true,
          "internalType": "uint256",
          "name": "proposalID",
          "type": "uint256"
        },
        {
          "indexed": false,
          "internalType": "uint256",
          "name": "voteWeight",
          "type": "uint256"
        },
        {
          "indexed": false,
          "internalType": "uint256",
          "name": "totalVotes",
          "type": "uint256"
        },
        {
          "indexed": false,
          "internalType": "string",
          "name": "proposalType",
          "type": "string"
        }
      ],
      "name": "NewVote",
      "type": "event"
    },
    {
      "anonymous": false,
      "inputs": [
        {
          "indexed": true,
          "internalType": "address",
          "name": "member",
          "type": "address"
        },
        {
          "indexed": true,
          "internalType": "uint256",
          "name": "proposalID",
          "type": "uint256"
        },
        {
          "indexed": false,
          "internalType": "uint256",
          "name": "timeFinalised",
          "type": "uint256"
        },
        {
          "indexed": false,
          "internalType": "string",
          "name": "proposalType",
          "type": "string"
        }
      ],
      "name": "ProposalFinalising",
      "type": "event"
    },
    {
      "anonymous": false,
      "inputs": [
        {
          "indexed": true,
          "internalType": "address",
          "name": "member",
          "type": "address"
        },
        {
          "indexed": true,
          "internalType": "uint256",
          "name": "proposalID",
          "type": "uint256"
        },
        {
          "indexed": false,
          "internalType": "uint256",
          "name": "voteWeight",
          "type": "uint256"
        },
        {
          "indexed": false,
          "internalType": "uint256",
          "name": "totalVotes",
          "type": "uint256"
        },
        {
          "indexed": false,
          "internalType": "string",
          "name": "proposalType",
          "type": "string"
        }
      ],
      "name": "RemovedVote",
      "type": "event"
    },
    {
      "inputs": [],
      "name": "BASE",
      "outputs": [
        {
          "internalType": "address",
          "name": "",
          "type": "address"
        }
      ],
      "stateMutability": "view",
      "type": "function"
    },
    {
      "inputs": [],
      "name": "DAO",
      "outputs": [
        {
          "internalType": "address",
          "name": "",
          "type": "address"
        }
      ],
      "stateMutability": "view",
      "type": "function"
    },
    {
      "inputs": [],
      "name": "DEPLOYER",
      "outputs": [
        {
          "internalType": "address",
          "name": "",
          "type": "address"
        }
      ],
      "stateMutability": "view",
      "type": "function"
    },
    {
      "inputs": [],
      "name": "MSTATUS",
      "outputs": [
        {
          "internalType": "bool",
          "name": "",
          "type": "bool"
        }
      ],
      "stateMutability": "view",
      "type": "function"
    },
    {
      "inputs": [],
      "name": "RESERVE",
      "outputs": [
        {
          "internalType": "contract iRESERVE",
          "name": "",
          "type": "address"
        }
      ],
      "stateMutability": "view",
      "type": "function"
    },
    {
      "inputs": [],
      "name": "UTILS",
      "outputs": [
        {
          "internalType": "contract iUTILS",
          "name": "",
          "type": "address"
        }
      ],
      "stateMutability": "view",
      "type": "function"
    },
    {
      "inputs": [],
      "name": "_BOND",
      "outputs": [
        {
          "internalType": "contract iBOND",
          "name": "",
          "type": "address"
        }
      ],
      "stateMutability": "view",
      "type": "function"
    },
    {
      "inputs": [],
      "name": "_DAOVAULT",
      "outputs": [
        {
          "internalType": "contract iDAOVAULT",
          "name": "",
          "type": "address"
        }
      ],
      "stateMutability": "view",
      "type": "function"
    },
    {
      "inputs": [
        {
          "internalType": "bool",
          "name": "status",
          "type": "bool"
        }
      ],
      "name": "_MSTATUS",
      "outputs": [],
      "stateMutability": "nonpayable",
      "type": "function"
    },
    {
      "inputs": [],
      "name": "_POOLFACTORY",
      "outputs": [
        {
          "internalType": "contract iPOOLFACTORY",
          "name": "",
          "type": "address"
        }
      ],
      "stateMutability": "view",
      "type": "function"
    },
    {
      "inputs": [],
      "name": "_RESERVE",
      "outputs": [
        {
          "internalType": "contract iRESERVE",
          "name": "",
          "type": "address"
        }
      ],
      "stateMutability": "view",
      "type": "function"
    },
    {
      "inputs": [],
      "name": "_ROUTER",
      "outputs": [
        {
          "internalType": "contract iROUTER",
          "name": "",
          "type": "address"
        }
      ],
      "stateMutability": "view",
      "type": "function"
    },
    {
      "inputs": [],
      "name": "_SYNTHFACTORY",
      "outputs": [
        {
          "internalType": "contract iSYNTHFACTORY",
          "name": "",
          "type": "address"
        }
      ],
      "stateMutability": "view",
      "type": "function"
    },
    {
      "inputs": [],
      "name": "_UTILS",
      "outputs": [
        {
          "internalType": "contract iUTILS",
          "name": "",
          "type": "address"
        }
      ],
      "stateMutability": "view",
      "type": "function"
    },
    {
      "inputs": [
        {
          "internalType": "uint256",
          "name": "",
          "type": "uint256"
        }
      ],
      "name": "arrayMembers",
      "outputs": [
        {
          "internalType": "address",
          "name": "",
          "type": "address"
        }
      ],
      "stateMutability": "view",
      "type": "function"
    },
    {
      "inputs": [
        {
          "internalType": "address",
          "name": "member",
          "type": "address"
        }
      ],
      "name": "calcCurrentReward",
      "outputs": [
        {
          "internalType": "uint256",
          "name": "",
          "type": "uint256"
        }
      ],
      "stateMutability": "nonpayable",
      "type": "function"
    },
    {
      "inputs": [
        {
          "internalType": "address",
          "name": "member",
          "type": "address"
        }
      ],
      "name": "calcReward",
      "outputs": [
        {
          "internalType": "uint256",
          "name": "",
          "type": "uint256"
        }
      ],
      "stateMutability": "nonpayable",
      "type": "function"
    },
    {
      "inputs": [],
      "name": "coolOffPeriod",
      "outputs": [
        {
          "internalType": "uint256",
          "name": "",
          "type": "uint256"
        }
      ],
      "stateMutability": "view",
      "type": "function"
    },
    {
      "inputs": [],
      "name": "daoClaim",
      "outputs": [
        {
          "internalType": "uint256",
          "name": "",
          "type": "uint256"
        }
      ],
      "stateMutability": "view",
      "type": "function"
    },
    {
      "inputs": [],
      "name": "daoFee",
      "outputs": [
        {
          "internalType": "uint256",
          "name": "",
          "type": "uint256"
        }
      ],
      "stateMutability": "view",
      "type": "function"
    },
    {
      "inputs": [],
      "name": "daoHasMoved",
      "outputs": [
        {
          "internalType": "bool",
          "name": "",
          "type": "bool"
        }
      ],
      "stateMutability": "view",
      "type": "function"
    },
    {
      "inputs": [
        {
          "internalType": "address",
          "name": "pool",
          "type": "address"
        },
        {
          "internalType": "uint256",
          "name": "amount",
          "type": "uint256"
        }
      ],
      "name": "deposit",
      "outputs": [],
      "stateMutability": "nonpayable",
      "type": "function"
    },
    {
      "inputs": [
        {
          "internalType": "address",
          "name": "pool",
          "type": "address"
        },
        {
          "internalType": "uint256",
          "name": "amount",
          "type": "uint256"
        },
        {
          "internalType": "address",
          "name": "member",
          "type": "address"
        }
      ],
      "name": "depositLPForMember",
      "outputs": [],
      "stateMutability": "nonpayable",
      "type": "function"
    },
    {
      "inputs": [],
      "name": "erasToEarn",
      "outputs": [
        {
          "internalType": "uint256",
          "name": "",
          "type": "uint256"
        }
      ],
      "stateMutability": "view",
      "type": "function"
    },
    {
      "inputs": [],
      "name": "harvest",
      "outputs": [],
      "stateMutability": "nonpayable",
      "type": "function"
    },
    {
      "inputs": [
        {
          "internalType": "address",
          "name": "",
          "type": "address"
        }
      ],
      "name": "isListed",
      "outputs": [
        {
          "internalType": "bool",
          "name": "",
          "type": "bool"
        }
      ],
      "stateMutability": "view",
      "type": "function"
    },
    {
      "inputs": [
        {
          "internalType": "address",
          "name": "",
          "type": "address"
        }
      ],
      "name": "isMember",
      "outputs": [
        {
          "internalType": "bool",
          "name": "",
          "type": "bool"
        }
      ],
      "stateMutability": "view",
      "type": "function"
    },
    {
      "inputs": [],
      "name": "mStatus",
      "outputs": [
        {
          "internalType": "bool",
          "name": "",
          "type": "bool"
        }
      ],
      "stateMutability": "view",
      "type": "function"
    },
    {
      "inputs": [],
      "name": "majorityFactor",
      "outputs": [
        {
          "internalType": "uint256",
          "name": "",
          "type": "uint256"
        }
      ],
      "stateMutability": "view",
      "type": "function"
    },
    {
      "inputs": [
        {
          "internalType": "address",
          "name": "",
          "type": "address"
        }
      ],
      "name": "mapMember_lastTime",
      "outputs": [
        {
          "internalType": "uint256",
          "name": "",
          "type": "uint256"
        }
      ],
      "stateMutability": "view",
      "type": "function"
    },
    {
      "inputs": [
        {
          "internalType": "uint256",
          "name": "",
          "type": "uint256"
        },
        {
          "internalType": "address",
          "name": "",
          "type": "address"
        }
      ],
      "name": "mapPIDMember_votes",
      "outputs": [
        {
          "internalType": "uint256",
          "name": "",
          "type": "uint256"
        }
      ],
      "stateMutability": "view",
      "type": "function"
    },
    {
      "inputs": [
        {
          "internalType": "uint256",
          "name": "",
          "type": "uint256"
        }
      ],
      "name": "mapPID_address",
      "outputs": [
        {
          "internalType": "address",
          "name": "",
          "type": "address"
        }
      ],
      "stateMutability": "view",
      "type": "function"
    },
    {
      "inputs": [
        {
          "internalType": "uint256",
          "name": "",
          "type": "uint256"
        }
      ],
      "name": "mapPID_finalised",
      "outputs": [
        {
          "internalType": "bool",
          "name": "",
          "type": "bool"
        }
      ],
      "stateMutability": "view",
      "type": "function"
    },
    {
      "inputs": [
        {
          "internalType": "uint256",
          "name": "",
          "type": "uint256"
        }
      ],
      "name": "mapPID_finalising",
      "outputs": [
        {
          "internalType": "bool",
          "name": "",
          "type": "bool"
        }
      ],
      "stateMutability": "view",
      "type": "function"
    },
    {
      "inputs": [
        {
          "internalType": "uint256",
          "name": "",
          "type": "uint256"
        }
      ],
      "name": "mapPID_grant",
      "outputs": [
        {
          "internalType": "address",
          "name": "recipient",
          "type": "address"
        },
        {
          "internalType": "uint256",
          "name": "amount",
          "type": "uint256"
        }
      ],
      "stateMutability": "view",
      "type": "function"
    },
    {
      "inputs": [
        {
          "internalType": "uint256",
          "name": "",
          "type": "uint256"
        }
      ],
      "name": "mapPID_param",
      "outputs": [
        {
          "internalType": "uint32",
          "name": "",
          "type": "uint32"
        }
      ],
      "stateMutability": "view",
      "type": "function"
    },
    {
      "inputs": [
        {
          "internalType": "uint256",
          "name": "",
          "type": "uint256"
        }
      ],
      "name": "mapPID_timeStart",
      "outputs": [
        {
          "internalType": "uint256",
          "name": "",
          "type": "uint256"
        }
      ],
      "stateMutability": "view",
      "type": "function"
    },
    {
      "inputs": [
        {
          "internalType": "uint256",
          "name": "",
          "type": "uint256"
        }
      ],
      "name": "mapPID_type",
      "outputs": [
        {
          "internalType": "string",
          "name": "",
          "type": "string"
        }
      ],
      "stateMutability": "view",
      "type": "function"
    },
    {
      "inputs": [
        {
          "internalType": "uint256",
          "name": "",
          "type": "uint256"
        }
      ],
      "name": "mapPID_votes",
      "outputs": [
        {
          "internalType": "uint256",
          "name": "",
          "type": "uint256"
        }
      ],
      "stateMutability": "view",
      "type": "function"
    },
    {
      "inputs": [],
      "name": "proposalCount",
      "outputs": [
        {
          "internalType": "uint256",
          "name": "",
          "type": "uint256"
        }
      ],
      "stateMutability": "view",
      "type": "function"
    },
    {
      "inputs": [],
      "name": "purgeDeployer",
      "outputs": [],
      "stateMutability": "nonpayable",
      "type": "function"
    },
    {
      "inputs": [],
      "name": "secondsPerEra",
      "outputs": [
        {
          "internalType": "uint256",
          "name": "",
          "type": "uint256"
        }
      ],
      "stateMutability": "view",
      "type": "function"
    },
    {
      "inputs": [
        {
          "internalType": "address",
          "name": "_router",
          "type": "address"
        },
        {
          "internalType": "address",
          "name": "_utils",
          "type": "address"
        },
        {
          "internalType": "address",
          "name": "_bond",
          "type": "address"
        },
        {
          "internalType": "address",
          "name": "_daoVault",
          "type": "address"
        },
        {
          "internalType": "address",
          "name": "_poolFactory",
          "type": "address"
        },
        {
          "internalType": "address",
          "name": "_synthFactory",
          "type": "address"
        },
        {
          "internalType": "address",
          "name": "_reserve",
          "type": "address"
        }
      ],
      "name": "setGenesisAddresses",
      "outputs": [],
      "stateMutability": "nonpayable",
      "type": "function"
    },
    {
      "inputs": [
        {
          "internalType": "uint32",
          "name": "_coolOff",
          "type": "uint32"
        },
        {
          "internalType": "uint32",
          "name": "_daysToEarn",
          "type": "uint32"
        },
        {
          "internalType": "uint32",
          "name": "_majorityFactor",
          "type": "uint32"
        },
        {
          "internalType": "uint32",
          "name": "_daoClaim",
          "type": "uint32"
        },
        {
          "internalType": "uint32",
          "name": "_daoFee",
          "type": "uint32"
        }
      ],
      "name": "setGenesisFactors",
      "outputs": [],
      "stateMutability": "nonpayable",
      "type": "function"
    },
    {
      "inputs": [
        {
          "internalType": "address",
          "name": "pool",
          "type": "address"
        }
      ],
      "name": "withdraw",
      "outputs": [],
      "stateMutability": "nonpayable",
      "type": "function"
    }
  ],
  "bytecode": "0x60806040523480156200001157600080fd5b5060405162002db438038062002db483398181016040528101906200003791906200021c565b80600160006101000a81548173ffffffffffffffffffffffffffffffffffffffff021916908373ffffffffffffffffffffffffffffffffffffffff160217905550336000806101000a81548173ffffffffffffffffffffffffffffffffffffffff021916908373ffffffffffffffffffffffffffffffffffffffff1602179055506003808190555030600960026101000a81548173ffffffffffffffffffffffffffffffffffffffff021916908373ffffffffffffffffffffffffffffffffffffffff160217905550601e600681905550611a0a6005819055506107d060078190555060646008819055506000600960016101000a81548160ff021916908315150217905550600160009054906101000a900473ffffffffffffffffffffffffffffffffffffffff1673ffffffffffffffffffffffffffffffffffffffff16636b92a3b66040518163ffffffff1660e01b815260040160206040518083038186803b158015620001a657600080fd5b505afa158015620001bb573d6000803e3d6000fd5b505050506040513d601f19601f82011682018060405250810190620001e1919062000248565b60028190555050620002e6565b600081519050620001ff81620002b2565b92915050565b6000815190506200021681620002cc565b92915050565b6000602082840312156200022f57600080fd5b60006200023f84828501620001ee565b91505092915050565b6000602082840312156200025b57600080fd5b60006200026b8482850162000205565b91505092915050565b6000620002818262000288565b9050919050565b600073ffffffffffffffffffffffffffffffffffffffff82169050919050565b6000819050919050565b620002bd8162000274565b8114620002c957600080fd5b50565b620002d781620002a8565b8114620002e357600080fd5b50565b612abe80620002f66000396000f3fe608060405234801561001057600080fd5b506004361061027f5760003560e01c8063929f60d01161015c578063bb258e6b116100ce578063dab249b311610087578063dab249b3146107bd578063e38c7dcc146107ed578063e53bea971461081d578063ec342ad01461083b578063f4d2f89014610859578063f794062e146108755761027f565b8063bb258e6b146106d2578063c05fc178146106f0578063c1b8411a14610720578063c42b3f7d1461073e578063cb7bdbc01461076e578063da35c6641461079f5761027f565b80639d2cc436116101205780639d2cc436146105fa578063a230c52414610618578063abb6154f14610648578063ae887c8b14610666578063b41b4f2814610696578063b9d1afd9146106b45761027f565b8063929f60d014610564578063956615be1461058257806398e4439a146105a057806398fabd3a146105be5780639c552f04146105dc5761027f565b80634641257d116101f55780635c7366d3116101b95780635c7366d31461049e57806364ca935d146104ce57806367afe7e9146104ec5780636b92a3b61461050a57806379b2dc4c146105285780637b0e5c45146105465761027f565b80634641257d1461041057806347e7ef241461041a5780634b4000341461043657806351cff8d914610466578063572cf927146104825761027f565b80632bee1194116102475780632bee1194146103025780632c07eebf14610332578063314604fe146103505780633a61738d14610380578063436f80be146103b05780634636279f146103e05761027f565b806303a8213814610284578063195b7a3e1461028e57806324efb528146102aa57806325a7f908146102c85780632957b839146102e4575b600080fd5b61028c6108a5565b005b6102a860048036038101906102a39190611ea8565b610940565b005b6102b2610b68565b6040516102bf91906123ab565b60405180910390f35b6102e260048036038101906102dd9190611f82565b610b7b565b005b6102ec610fbe565b6040516102f99190612545565b60405180910390f35b61031c60048036038101906103179190612075565b610fc4565b60405161032991906123ab565b60405180910390f35b61033a610fe4565b6040516103479190612545565b60405180910390f35b61036a60048036038101906103659190612075565b610fea565b60405161037791906125c0565b60405180910390f35b61039a60048036038101906103959190611e7f565b61100d565b6040516103a79190612545565b60405180910390f35b6103ca60048036038101906103c59190612075565b611318565b6040516103d79190612307565b60405180910390f35b6103fa60048036038101906103f59190611e7f565b611357565b6040516104079190612545565b60405180910390f35b610418611469565b005b610434600480360381019061042f9190611f46565b61164e565b005b610450600480360381019061044b9190612075565b61165d565b60405161045d91906123ab565b60405180910390f35b610480600480360381019061047b9190611e7f565b61167d565b005b61049c60048036038101906104979190612103565b61176e565b005b6104b860048036038101906104b39190611e7f565b61180e565b6040516104c59190612545565b60405180910390f35b6104d6611826565b6040516104e391906123c6565b60405180910390f35b6104f461184c565b60405161050191906123fc565b60405180910390f35b610512611872565b60405161051f9190612545565b60405180910390f35b610530611878565b60405161053d9190612545565b60405180910390f35b61054e61187e565b60405161055b9190612468565b60405180910390f35b61056c611965565b60405161057991906123e1565b60405180910390f35b61058a61198b565b6040516105979190612545565b60405180910390f35b6105a8611991565b6040516105b59190612432565b60405180910390f35b6105c66119b7565b6040516105d39190612307565b60405180910390f35b6105e46119dd565b6040516105f19190612417565b60405180910390f35b610602611a03565b60405161060f9190612417565b60405180910390f35b610632600480360381019061062d9190611e7f565b611aea565b60405161063f91906123ab565b60405180910390f35b610650611b0a565b60405161065d9190612545565b60405180910390f35b610680600480360381019061067b9190612075565b611b10565b60405161068d9190612307565b60405180910390f35b61069e611b43565b6040516106ab91906123ab565b60405180910390f35b6106bc611b5a565b6040516106c991906123ab565b60405180910390f35b6106da611b6d565b6040516106e79190612468565b60405180910390f35b61070a60048036038101906107059190612075565b611b93565b6040516107179190612483565b60405180910390f35b610728611c33565b6040516107359190612307565b60405180910390f35b610758600480360381019061075391906120c7565b611c57565b6040516107659190612545565b60405180910390f35b61078860048036038101906107839190612075565b611c7c565b60405161079692919061234b565b60405180910390f35b6107a7611cc0565b6040516107b49190612545565b60405180910390f35b6107d760048036038101906107d29190612075565b611cc6565b6040516107e49190612545565b60405180910390f35b61080760048036038101906108029190612075565b611cde565b6040516108149190612545565b60405180910390f35b610825611cf6565b604051610832919061244d565b60405180910390f35b610843611d1c565b6040516108509190612307565b60405180910390f35b610873600480360381019061086e9190611fd1565b611d42565b005b61088f600480360381019061088a9190611e7f565b611db7565b60405161089c91906123ab565b60405180910390f35b60008054906101000a900473ffffffffffffffffffffffffffffffffffffffff1673ffffffffffffffffffffffffffffffffffffffff163373ffffffffffffffffffffffffffffffffffffffff16146108fd57600080fd5b60008060006101000a81548173ffffffffffffffffffffffffffffffffffffffff021916908373ffffffffffffffffffffffffffffffffffffffff160217905550565b60008054906101000a900473ffffffffffffffffffffffffffffffffffffffff1673ffffffffffffffffffffffffffffffffffffffff163373ffffffffffffffffffffffffffffffffffffffff161461099857600080fd5b86600a60006101000a81548173ffffffffffffffffffffffffffffffffffffffff021916908373ffffffffffffffffffffffffffffffffffffffff16021790555085600b60006101000a81548173ffffffffffffffffffffffffffffffffffffffff021916908373ffffffffffffffffffffffffffffffffffffffff16021790555084600c60006101000a81548173ffffffffffffffffffffffffffffffffffffffff021916908373ffffffffffffffffffffffffffffffffffffffff16021790555083600d60006101000a81548173ffffffffffffffffffffffffffffffffffffffff021916908373ffffffffffffffffffffffffffffffffffffffff16021790555082600e60006101000a81548173ffffffffffffffffffffffffffffffffffffffff021916908373ffffffffffffffffffffffffffffffffffffffff16021790555081600f60006101000a81548173ffffffffffffffffffffffffffffffffffffffff021916908373ffffffffffffffffffffffffffffffffffffffff16021790555080601060006101000a81548173ffffffffffffffffffffffffffffffffffffffff021916908373ffffffffffffffffffffffffffffffffffffffff16021790555050505050505050565b600960009054906101000a900460ff1681565b60011515600e60009054906101000a900473ffffffffffffffffffffffffffffffffffffffff1673ffffffffffffffffffffffffffffffffffffffff16638dcb4c93856040518263ffffffff1660e01b8152600401610bda9190612307565b60206040518083038186803b158015610bf257600080fd5b505afa158015610c06573d6000803e3d6000fd5b505050506040513d601f19601f82011682018060405250810190610c2a9190611ffa565b151514610c6c576040517f08c379a0000000000000000000000000000000000000000000000000000000008152600401610c6390612505565b60405180910390fd5b60008211610caf576040517f08c379a0000000000000000000000000000000000000000000000000000000008152600401610ca6906124a5565b60405180910390fd5b60011515601260008373ffffffffffffffffffffffffffffffffffffffff1673ffffffffffffffffffffffffffffffffffffffff16815260200190815260200160002060009054906101000a900460ff16151514610dc3576011339080600181540180825580915050600190039060005260206000200160009091909190916101000a81548173ffffffffffffffffffffffffffffffffffffffff021916908373ffffffffffffffffffffffffffffffffffffffff1602179055506001601260008373ffffffffffffffffffffffffffffffffffffffff1673ffffffffffffffffffffffffffffffffffffffff16815260200190815260200160002060006101000a81548160ff0219169083151502179055505b6000600d60009054906101000a900473ffffffffffffffffffffffffffffffffffffffff1673ffffffffffffffffffffffffffffffffffffffff16635364df49836040518263ffffffff1660e01b8152600401610e209190612307565b60206040518083038186803b158015610e3857600080fd5b505afa158015610e4c573d6000803e3d6000fd5b505050506040513d601f19601f82011682018060405250810190610e70919061209e565b1115610e7f57610e7e611469565b5b600d60009054906101000a900473ffffffffffffffffffffffffffffffffffffffff1673ffffffffffffffffffffffffffffffffffffffff166346dafa2f8484846040518463ffffffff1660e01b8152600401610ede93929190612374565b600060405180830381600087803b158015610ef857600080fd5b505af1158015610f0c573d6000803e3d6000fd5b5050505042601460008373ffffffffffffffffffffffffffffffffffffffff1673ffffffffffffffffffffffffffffffffffffffff168152602001908152602001600020819055508273ffffffffffffffffffffffffffffffffffffffff168173ffffffffffffffffffffffffffffffffffffffff167f5f9b5a75581a29d72b32414a5df7f1ef124b7787b38616fb8fdcad76179127c284604051610fb19190612545565b60405180910390a3505050565b60085481565b601c6020528060005260406000206000915054906101000a900460ff1681565b60065481565b60156020528060005260406000206000915054906101000a900463ffffffff1681565b600080600d60009054906101000a900473ffffffffffffffffffffffffffffffffffffffff1673ffffffffffffffffffffffffffffffffffffffff16635364df49846040518263ffffffff1660e01b815260040161106b9190612307565b60206040518083038186803b15801561108357600080fd5b505afa158015611097573d6000803e3d6000fd5b505050506040513d601f19601f820116820180604052508101906110bb919061209e565b90506000600d60009054906101000a900473ffffffffffffffffffffffffffffffffffffffff1673ffffffffffffffffffffffffffffffffffffffff166396c82e576040518163ffffffff1660e01b815260040160206040518083038186803b15801561112757600080fd5b505afa15801561113b573d6000803e3d6000fd5b505050506040513d601f19601f8201168201806040525081019061115f919061209e565b90506000600654600160009054906101000a900473ffffffffffffffffffffffffffffffffffffffff1673ffffffffffffffffffffffffffffffffffffffff166370a08231601060009054906101000a900473ffffffffffffffffffffffffffffffffffffffff166040518263ffffffff1660e01b81526004016111e39190612307565b60206040518083038186803b1580156111fb57600080fd5b505afa15801561120f573d6000803e3d6000fd5b505050506040513d601f19601f82011682018060405250810190611233919061209e565b61123d91906125f7565b90506000612710600754836112529190612628565b61125c91906125f7565b9050600b60009054906101000a900473ffffffffffffffffffffffffffffffffffffffff1673ffffffffffffffffffffffffffffffffffffffff16631ba326c48585846040518463ffffffff1660e01b81526004016112bd93929190612589565b60206040518083038186803b1580156112d557600080fd5b505afa1580156112e9573d6000803e3d6000fd5b505050506040513d601f19601f8201168201806040525081019061130d919061209e565b945050505050919050565b6011818154811061132857600080fd5b906000526020600020016000915054906101000a900473ffffffffffffffffffffffffffffffffffffffff1681565b6000601260008373ffffffffffffffffffffffffffffffffffffffff1673ffffffffffffffffffffffffffffffffffffffff16815260200190815260200160002060009054906101000a900460ff166113e5576040517f08c379a00000000000000000000000000000000000000000000000000000000081526004016113dc906124e5565b60405180910390fd5b6000601460008473ffffffffffffffffffffffffffffffffffffffff1673ffffffffffffffffffffffffffffffffffffffff16815260200190815260200160002054426114329190612682565b9050600061143f8461100d565b9050600060025483836114529190612628565b61145c91906125f7565b9050809350505050919050565b601060009054906101000a900473ffffffffffffffffffffffffffffffffffffffff1673ffffffffffffffffffffffffffffffffffffffff16632267716c6040518163ffffffff1660e01b8152600401602060405180830381600087803b1580156114d357600080fd5b505af11580156114e7573d6000803e3d6000fd5b505050506040513d601f19601f8201168201806040525081019061150b9190611ffa565b61154a576040517f08c379a0000000000000000000000000000000000000000000000000000000008152600401611541906124c5565b60405180910390fd5b600061155533611357565b905042601460003373ffffffffffffffffffffffffffffffffffffffff1673ffffffffffffffffffffffffffffffffffffffff16815260200190815260200160002081905550601060009054906101000a900473ffffffffffffffffffffffffffffffffffffffff1673ffffffffffffffffffffffffffffffffffffffff16637d458baa82336040518363ffffffff1660e01b81526004016115f8929190612560565b602060405180830381600087803b15801561161257600080fd5b505af1158015611626573d6000803e3d6000fd5b505050506040513d601f19601f8201168201806040525081019061164a919061209e565b5050565b611659828233610b7b565b5050565b601b6020528060005260406000206000915054906101000a900460ff1681565b600d60009054906101000a900473ffffffffffffffffffffffffffffffffffffffff1673ffffffffffffffffffffffffffffffffffffffff1663f940e38582336040518363ffffffff1660e01b81526004016116da929190612322565b602060405180830381600087803b1580156116f457600080fd5b505af1158015611708573d6000803e3d6000fd5b505050506040513d601f19601f8201168201806040525081019061172c9190611ffa565b61176b576040517f08c379a000000000000000000000000000000000000000000000000000000000815260040161176290612525565b60405180910390fd5b50565b60008054906101000a900473ffffffffffffffffffffffffffffffffffffffff1673ffffffffffffffffffffffffffffffffffffffff163373ffffffffffffffffffffffffffffffffffffffff16146117c657600080fd5b8463ffffffff166003819055508363ffffffff166006819055508263ffffffff166005819055508163ffffffff166007819055508063ffffffff166008819055505050505050565b60146020528060005260406000206000915090505481565b600c60009054906101000a900473ffffffffffffffffffffffffffffffffffffffff1681565b600e60009054906101000a900473ffffffffffffffffffffffffffffffffffffffff1681565b60025481565b60075481565b6000600960009054906101000a900460ff161561193c57600960029054906101000a900473ffffffffffffffffffffffffffffffffffffffff1673ffffffffffffffffffffffffffffffffffffffff16637b0e5c456040518163ffffffff1660e01b815260040160206040518083038186803b1580156118fd57600080fd5b505afa158015611911573d6000803e3d6000fd5b505050506040513d601f19601f82011682018060405250810190611935919061204c565b9050611962565b600b60009054906101000a900473ffffffffffffffffffffffffffffffffffffffff1690505b90565b600d60009054906101000a900473ffffffffffffffffffffffffffffffffffffffff1681565b60055481565b600a60009054906101000a900473ffffffffffffffffffffffffffffffffffffffff1681565b600960029054906101000a900473ffffffffffffffffffffffffffffffffffffffff1681565b601060009054906101000a900473ffffffffffffffffffffffffffffffffffffffff1681565b6000600960009054906101000a900460ff1615611ac157600960029054906101000a900473ffffffffffffffffffffffffffffffffffffffff1673ffffffffffffffffffffffffffffffffffffffff16639d2cc4366040518163ffffffff1660e01b815260040160206040518083038186803b158015611a8257600080fd5b505afa158015611a96573d6000803e3d6000fd5b505050506040513d601f19601f82011682018060405250810190611aba9190612023565b9050611ae7565b601060009054906101000a900473ffffffffffffffffffffffffffffffffffffffff1690505b90565b60126020528060005260406000206000915054906101000a900460ff1681565b60035481565b60166020528060005260406000206000915054906101000a900473ffffffffffffffffffffffffffffffffffffffff1681565b6000600960019054906101000a900460ff16905090565b600960019054906101000a900460ff1681565b600b60009054906101000a900473ffffffffffffffffffffffffffffffffffffffff1681565b60186020528060005260406000206000915090508054611bb290612861565b80601f0160208091040260200160405190810160405280929190818152602001828054611bde90612861565b8015611c2b5780601f10611c0057610100808354040283529160200191611c2b565b820191906000526020600020905b815481529060010190602001808311611c0e57829003601f168201915b505050505081565b60008054906101000a900473ffffffffffffffffffffffffffffffffffffffff1681565b601d602052816000526040600020602052806000526040600020600091509150505481565b60176020528060005260406000206000915090508060000160009054906101000a900473ffffffffffffffffffffffffffffffffffffffff16908060010154905082565b60045481565b60196020528060005260406000206000915090505481565b601a6020528060005260406000206000915090505481565b600f60009054906101000a900473ffffffffffffffffffffffffffffffffffffffff1681565b600160009054906101000a900473ffffffffffffffffffffffffffffffffffffffff1681565b60008054906101000a900473ffffffffffffffffffffffffffffffffffffffff1673ffffffffffffffffffffffffffffffffffffffff163373ffffffffffffffffffffffffffffffffffffffff1614611d9a57600080fd5b80600960016101000a81548160ff02191690831515021790555050565b60136020528060005260406000206000915054906101000a900460ff1681565b600081359050611de6816129fe565b92915050565b600081359050611dfb81612a15565b92915050565b600081519050611e1081612a15565b92915050565b600081519050611e2581612a2c565b92915050565b600081519050611e3a81612a43565b92915050565b600081359050611e4f81612a5a565b92915050565b600081519050611e6481612a5a565b92915050565b600081359050611e7981612a71565b92915050565b600060208284031215611e9157600080fd5b6000611e9f84828501611dd7565b91505092915050565b600080600080600080600060e0888a031215611ec357600080fd5b6000611ed18a828b01611dd7565b9750506020611ee28a828b01611dd7565b9650506040611ef38a828b01611dd7565b9550506060611f048a828b01611dd7565b9450506080611f158a828b01611dd7565b93505060a0611f268a828b01611dd7565b92505060c0611f378a828b01611dd7565b91505092959891949750929550565b60008060408385031215611f5957600080fd5b6000611f6785828601611dd7565b9250506020611f7885828601611e40565b9150509250929050565b600080600060608486031215611f9757600080fd5b6000611fa586828701611dd7565b9350506020611fb686828701611e40565b9250506040611fc786828701611dd7565b9150509250925092565b600060208284031215611fe357600080fd5b6000611ff184828501611dec565b91505092915050565b60006020828403121561200c57600080fd5b600061201a84828501611e01565b91505092915050565b60006020828403121561203557600080fd5b600061204384828501611e16565b91505092915050565b60006020828403121561205e57600080fd5b600061206c84828501611e2b565b91505092915050565b60006020828403121561208757600080fd5b600061209584828501611e40565b91505092915050565b6000602082840312156120b057600080fd5b60006120be84828501611e55565b91505092915050565b600080604083850312156120da57600080fd5b60006120e885828601611e40565b92505060206120f985828601611dd7565b9150509250929050565b600080600080600060a0868803121561211b57600080fd5b600061212988828901611e6a565b955050602061213a88828901611e6a565b945050604061214b88828901611e6a565b935050606061215c88828901611e6a565b925050608061216d88828901611e6a565b9150509295509295909350565b612183816126b6565b82525050565b612192816126c8565b82525050565b6121a181612732565b82525050565b6121b081612756565b82525050565b6121bf8161277a565b82525050565b6121ce8161279e565b82525050565b6121dd816127c2565b82525050565b6121ec816127e6565b82525050565b6121fb8161280a565b82525050565b600061220c826125db565b61221681856125e6565b935061222681856020860161282e565b61222f81612920565b840191505092915050565b60006122476007836125e6565b915061225282612931565b602082019050919050565b600061226a600a836125e6565b91506122758261295a565b602082019050919050565b600061228d6007836125e6565b915061229882612983565b602082019050919050565b60006122b06008836125e6565b91506122bb826129ac565b602082019050919050565b60006122d36009836125e6565b91506122de826129d5565b602082019050919050565b6122f281612718565b82525050565b61230181612722565b82525050565b600060208201905061231c600083018461217a565b92915050565b6000604082019050612337600083018561217a565b612344602083018461217a565b9392505050565b6000604082019050612360600083018561217a565b61236d60208301846122e9565b9392505050565b6000606082019050612389600083018661217a565b61239660208301856122e9565b6123a3604083018461217a565b949350505050565b60006020820190506123c06000830184612189565b92915050565b60006020820190506123db6000830184612198565b92915050565b60006020820190506123f660008301846121a7565b92915050565b600060208201905061241160008301846121b6565b92915050565b600060208201905061242c60008301846121c5565b92915050565b600060208201905061244760008301846121d4565b92915050565b600060208201905061246260008301846121e3565b92915050565b600060208201905061247d60008301846121f2565b92915050565b6000602082019050818103600083015261249d8184612201565b905092915050565b600060208201905081810360008301526124be8161223a565b9050919050565b600060208201905081810360008301526124de8161225d565b9050919050565b600060208201905081810360008301526124fe81612280565b9050919050565b6000602082019050818103600083015261251e816122a3565b9050919050565b6000602082019050818103600083015261253e816122c6565b9050919050565b600060208201905061255a60008301846122e9565b92915050565b600060408201905061257560008301856122e9565b612582602083018461217a565b9392505050565b600060608201905061259e60008301866122e9565b6125ab60208301856122e9565b6125b860408301846122e9565b949350505050565b60006020820190506125d560008301846122f8565b92915050565b600081519050919050565b600082825260208201905092915050565b600061260282612718565b915061260d83612718565b92508261261d5761261c6128c2565b5b828204905092915050565b600061263382612718565b915061263e83612718565b9250817fffffffffffffffffffffffffffffffffffffffffffffffffffffffffffffffff048311821515161561267757612676612893565b5b828202905092915050565b600061268d82612718565b915061269883612718565b9250828210156126ab576126aa612893565b5b828203905092915050565b60006126c1826126f8565b9050919050565b60008115159050919050565b60006126df826126b6565b9050919050565b60006126f1826126b6565b9050919050565b600073ffffffffffffffffffffffffffffffffffffffff82169050919050565b6000819050919050565b600063ffffffff82169050919050565b600061273d82612744565b9050919050565b600061274f826126f8565b9050919050565b600061276182612768565b9050919050565b6000612773826126f8565b9050919050565b60006127858261278c565b9050919050565b6000612797826126f8565b9050919050565b60006127a9826127b0565b9050919050565b60006127bb826126f8565b9050919050565b60006127cd826127d4565b9050919050565b60006127df826126f8565b9050919050565b60006127f1826127f8565b9050919050565b6000612803826126f8565b9050919050565b60006128158261281c565b9050919050565b6000612827826126f8565b9050919050565b60005b8381101561284c578082015181840152602081019050612831565b8381111561285b576000848401525b50505050565b6000600282049050600182168061287957607f821691505b6020821081141561288d5761288c6128f1565b5b50919050565b7f4e487b7100000000000000000000000000000000000000000000000000000000600052601160045260246000fd5b7f4e487b7100000000000000000000000000000000000000000000000000000000600052601260045260246000fd5b7f4e487b7100000000000000000000000000000000000000000000000000000000600052602260045260246000fd5b6000601f19601f8301169050919050565b7f21416d6f756e7400000000000000000000000000000000000000000000000000600082015250565b7f21454d495353494f4e5300000000000000000000000000000000000000000000600082015250565b7f216d656d62657200000000000000000000000000000000000000000000000000600082015250565b7f2143757261746564000000000000000000000000000000000000000000000000600082015250565b7f217472616e736665720000000000000000000000000000000000000000000000600082015250565b612a07816126b6565b8114612a1257600080fd5b50565b612a1e816126c8565b8114612a2957600080fd5b50565b612a35816126d4565b8114612a4057600080fd5b50565b612a4c816126e6565b8114612a5757600080fd5b50565b612a6381612718565b8114612a6e57600080fd5b50565b612a7a81612722565b8114612a8557600080fd5b5056fea26469706673582212200cf3431cf9984c28a542759ce1e78e2b5d6b5639a27c97c6ccec32628da201ff64736f6c63430008030033",
  "linkReferences": {},
  "deployedLinkReferences": {}
}