{
  "_format": "hh-sol-artifact-1",
  "contractName": "Dao",
  "sourceName": "contracts/Dao.sol",
  "abi": [
    {
      "inputs": [
        {
          "internalType": "address",
          "name": "_base",
          "type": "address"
        }
      ],
      "stateMutability": "nonpayable",
      "type": "constructor"
    },
    {
      "anonymous": false,
      "inputs": [
        {
          "indexed": true,
          "internalType": "address",
          "name": "member",
          "type": "address"
        },
        {
          "indexed": true,
          "internalType": "uint256",
          "name": "proposalID",
          "type": "uint256"
        }
      ],
      "name": "CancelProposal",
      "type": "event"
    },
    {
      "anonymous": false,
      "inputs": [
        {
          "indexed": true,
          "internalType": "address",
          "name": "owner",
          "type": "address"
        },
        {
          "indexed": false,
          "internalType": "uint256",
          "name": "depositAmount",
          "type": "uint256"
        },
        {
          "indexed": false,
          "internalType": "uint256",
          "name": "bondedLP",
          "type": "uint256"
        }
      ],
      "name": "DepositAsset",
      "type": "event"
    },
    {
      "anonymous": false,
      "inputs": [
        {
          "indexed": true,
          "internalType": "address",
          "name": "member",
          "type": "address"
        },
        {
          "indexed": true,
          "internalType": "uint256",
          "name": "proposalID",
          "type": "uint256"
        },
        {
          "indexed": false,
          "internalType": "string",
          "name": "proposalType",
          "type": "string"
        }
      ],
      "name": "FinalisedProposal",
      "type": "event"
    },
    {
      "anonymous": false,
      "inputs": [
        {
          "indexed": true,
          "internalType": "address",
          "name": "member",
          "type": "address"
        },
        {
          "indexed": true,
          "internalType": "address",
          "name": "pool",
          "type": "address"
        },
        {
          "indexed": false,
          "internalType": "uint256",
          "name": "amount",
          "type": "uint256"
        }
      ],
      "name": "MemberDeposits",
      "type": "event"
    },
    {
      "anonymous": false,
      "inputs": [
        {
          "indexed": true,
          "internalType": "address",
          "name": "member",
          "type": "address"
        },
        {
          "indexed": true,
          "internalType": "address",
          "name": "pool",
          "type": "address"
        },
        {
          "indexed": false,
          "internalType": "uint256",
          "name": "balance",
          "type": "uint256"
        }
      ],
      "name": "MemberWithdraws",
      "type": "event"
    },
    {
      "anonymous": false,
      "inputs": [
        {
          "indexed": true,
          "internalType": "address",
          "name": "member",
          "type": "address"
        },
        {
          "indexed": true,
          "internalType": "uint256",
          "name": "proposalID",
          "type": "uint256"
        },
        {
          "indexed": false,
          "internalType": "string",
          "name": "proposalType",
          "type": "string"
        }
      ],
      "name": "NewProposal",
      "type": "event"
    },
    {
      "anonymous": false,
      "inputs": [
        {
          "indexed": true,
          "internalType": "address",
          "name": "member",
          "type": "address"
        },
        {
          "indexed": true,
          "internalType": "uint256",
          "name": "proposalID",
          "type": "uint256"
        },
        {
          "indexed": false,
          "internalType": "string",
          "name": "proposalType",
          "type": "string"
        }
      ],
      "name": "NewVote",
      "type": "event"
    },
    {
      "anonymous": false,
      "inputs": [
        {
          "indexed": true,
          "internalType": "address",
          "name": "member",
          "type": "address"
        },
        {
          "indexed": true,
          "internalType": "uint256",
          "name": "proposalID",
          "type": "uint256"
        },
        {
          "indexed": false,
          "internalType": "uint256",
          "name": "timeFinalised",
          "type": "uint256"
        },
        {
          "indexed": false,
          "internalType": "string",
          "name": "proposalType",
          "type": "string"
        }
      ],
      "name": "ProposalFinalising",
      "type": "event"
    },
    {
      "anonymous": false,
      "inputs": [
        {
          "indexed": true,
          "internalType": "address",
          "name": "member",
          "type": "address"
        },
        {
          "indexed": true,
          "internalType": "uint256",
          "name": "proposalID",
          "type": "uint256"
        },
        {
          "indexed": false,
          "internalType": "string",
          "name": "proposalType",
          "type": "string"
        }
      ],
      "name": "RemovedVote",
      "type": "event"
    },
    {
      "inputs": [],
      "name": "BASE",
      "outputs": [
        {
          "internalType": "address",
          "name": "",
          "type": "address"
        }
      ],
      "stateMutability": "view",
      "type": "function"
    },
    {
      "inputs": [],
      "name": "BONDVAULT",
      "outputs": [
        {
          "internalType": "contract iBONDVAULT",
          "name": "",
          "type": "address"
        }
      ],
      "stateMutability": "view",
      "type": "function"
    },
    {
      "inputs": [],
      "name": "DAO",
      "outputs": [
        {
          "internalType": "address",
          "name": "",
          "type": "address"
        }
      ],
      "stateMutability": "view",
      "type": "function"
    },
    {
      "inputs": [],
      "name": "DAOVAULT",
      "outputs": [
        {
          "internalType": "contract iDAOVAULT",
          "name": "",
          "type": "address"
        }
      ],
      "stateMutability": "view",
      "type": "function"
    },
    {
      "inputs": [],
      "name": "DEPLOYER",
      "outputs": [
        {
          "internalType": "address",
          "name": "",
          "type": "address"
        }
      ],
      "stateMutability": "view",
      "type": "function"
    },
    {
      "inputs": [],
      "name": "LEND",
      "outputs": [
        {
          "internalType": "contract iLEND",
          "name": "",
          "type": "address"
        }
      ],
      "stateMutability": "view",
      "type": "function"
    },
    {
      "inputs": [],
      "name": "POOLFACTORY",
      "outputs": [
        {
          "internalType": "contract iPOOLFACTORY",
          "name": "",
          "type": "address"
        }
      ],
      "stateMutability": "view",
      "type": "function"
    },
    {
      "inputs": [],
      "name": "RESERVE",
      "outputs": [
        {
          "internalType": "contract iRESERVE",
          "name": "",
          "type": "address"
        }
      ],
      "stateMutability": "view",
      "type": "function"
    },
    {
      "inputs": [],
      "name": "ROUTER",
      "outputs": [
        {
          "internalType": "contract iROUTER",
          "name": "",
          "type": "address"
        }
      ],
      "stateMutability": "view",
      "type": "function"
    },
    {
      "inputs": [],
      "name": "SYNTHFACTORY",
      "outputs": [
        {
          "internalType": "contract iSYNTHFACTORY",
          "name": "",
          "type": "address"
        }
      ],
      "stateMutability": "view",
      "type": "function"
    },
    {
      "inputs": [],
      "name": "SYNTHVAULT",
      "outputs": [
        {
          "internalType": "contract iSYNTHVAULT",
          "name": "",
          "type": "address"
        }
      ],
      "stateMutability": "view",
      "type": "function"
    },
    {
      "inputs": [],
      "name": "UTILS",
      "outputs": [
        {
          "internalType": "contract iUTILS",
          "name": "",
          "type": "address"
        }
      ],
      "stateMutability": "view",
      "type": "function"
    },
    {
      "inputs": [
        {
          "internalType": "uint256",
          "name": "",
          "type": "uint256"
        }
      ],
      "name": "arrayMembers",
      "outputs": [
        {
          "internalType": "address",
          "name": "",
          "type": "address"
        }
      ],
      "stateMutability": "view",
      "type": "function"
    },
    {
      "inputs": [
        {
          "internalType": "address",
          "name": "asset",
          "type": "address"
        },
        {
          "internalType": "uint256",
          "name": "amount",
          "type": "uint256"
        }
      ],
      "name": "bond",
      "outputs": [
        {
          "internalType": "bool",
          "name": "success",
          "type": "bool"
        }
      ],
      "stateMutability": "payable",
      "type": "function"
    },
    {
      "inputs": [
        {
          "internalType": "address",
          "name": "member",
          "type": "address"
        }
      ],
      "name": "calcCurrentReward",
      "outputs": [
        {
          "internalType": "uint256",
          "name": "",
          "type": "uint256"
        }
      ],
      "stateMutability": "view",
      "type": "function"
    },
    {
      "inputs": [
        {
          "internalType": "address",
          "name": "member",
          "type": "address"
        }
      ],
      "name": "calcReward",
      "outputs": [
        {
          "internalType": "uint256",
          "name": "",
          "type": "uint256"
        }
      ],
      "stateMutability": "view",
      "type": "function"
    },
    {
      "inputs": [],
      "name": "cancelPeriod",
      "outputs": [
        {
          "internalType": "uint256",
          "name": "",
          "type": "uint256"
        }
      ],
      "stateMutability": "view",
      "type": "function"
    },
    {
      "inputs": [],
      "name": "cancelProposal",
      "outputs": [],
      "stateMutability": "nonpayable",
      "type": "function"
    },
    {
      "inputs": [
        {
          "internalType": "address",
          "name": "bondAsset",
          "type": "address"
        }
      ],
      "name": "claim",
      "outputs": [],
      "stateMutability": "nonpayable",
      "type": "function"
    },
    {
      "inputs": [],
      "name": "coolOffPeriod",
      "outputs": [
        {
          "internalType": "uint256",
          "name": "",
          "type": "uint256"
        }
      ],
      "stateMutability": "view",
      "type": "function"
    },
    {
      "inputs": [],
      "name": "currentProposal",
      "outputs": [
        {
          "internalType": "uint256",
          "name": "",
          "type": "uint256"
        }
      ],
      "stateMutability": "view",
      "type": "function"
    },
    {
      "inputs": [],
      "name": "daoClaim",
      "outputs": [
        {
          "internalType": "uint256",
          "name": "",
          "type": "uint256"
        }
      ],
      "stateMutability": "view",
      "type": "function"
    },
    {
      "inputs": [],
      "name": "daoFee",
      "outputs": [
        {
          "internalType": "uint256",
          "name": "",
          "type": "uint256"
        }
      ],
      "stateMutability": "view",
      "type": "function"
    },
    {
      "inputs": [],
      "name": "daoHasMoved",
      "outputs": [
        {
          "internalType": "bool",
          "name": "",
          "type": "bool"
        }
      ],
      "stateMutability": "view",
      "type": "function"
    },
    {
      "inputs": [
        {
          "internalType": "address",
          "name": "pool",
          "type": "address"
        },
        {
          "internalType": "uint256",
          "name": "amount",
          "type": "uint256"
        }
      ],
      "name": "deposit",
      "outputs": [],
      "stateMutability": "nonpayable",
      "type": "function"
    },
    {
      "inputs": [],
      "name": "erasToEarn",
      "outputs": [
        {
          "internalType": "uint256",
          "name": "",
          "type": "uint256"
        }
      ],
      "stateMutability": "view",
      "type": "function"
    },
    {
      "inputs": [],
      "name": "finaliseProposal",
      "outputs": [],
      "stateMutability": "nonpayable",
      "type": "function"
    },
    {
      "inputs": [
        {
          "internalType": "uint256",
          "name": "proposal",
          "type": "uint256"
        },
        {
          "internalType": "address",
          "name": "asset",
          "type": "address"
        }
      ],
      "name": "getProposalAssetVotes",
      "outputs": [
        {
          "internalType": "uint256",
          "name": "",
          "type": "uint256"
        }
      ],
      "stateMutability": "view",
      "type": "function"
    },
    {
      "inputs": [
        {
          "internalType": "uint256",
          "name": "proposalID",
          "type": "uint256"
        }
      ],
      "name": "getProposalDetails",
      "outputs": [
        {
          "components": [
            {
              "internalType": "uint256",
              "name": "id",
              "type": "uint256"
            },
            {
              "internalType": "string",
              "name": "proposalType",
              "type": "string"
            },
            {
              "internalType": "uint256",
              "name": "votes",
              "type": "uint256"
            },
            {
              "internalType": "uint256",
              "name": "coolOffTime",
              "type": "uint256"
            },
            {
              "internalType": "bool",
              "name": "finalising",
              "type": "bool"
            },
            {
              "internalType": "bool",
              "name": "finalised",
              "type": "bool"
            },
            {
              "internalType": "uint256",
              "name": "param",
              "type": "uint256"
            },
            {
              "internalType": "address",
              "name": "proposedAddress",
              "type": "address"
            },
            {
              "internalType": "bool",
              "name": "open",
              "type": "bool"
            },
            {
              "internalType": "uint256",
              "name": "startTime",
              "type": "uint256"
            }
          ],
          "internalType": "struct Dao.ProposalDetails",
          "name": "proposalDetails",
          "type": "tuple"
        }
      ],
      "stateMutability": "view",
      "type": "function"
    },
    {
      "inputs": [],
      "name": "harvest",
      "outputs": [],
      "stateMutability": "nonpayable",
      "type": "function"
    },
    {
      "inputs": [
        {
          "internalType": "uint256",
          "name": "_proposalID",
          "type": "uint256"
        }
      ],
      "name": "hasMajority",
      "outputs": [
        {
          "internalType": "bool",
          "name": "",
          "type": "bool"
        }
      ],
      "stateMutability": "view",
      "type": "function"
    },
    {
      "inputs": [
        {
          "internalType": "uint256",
          "name": "_proposalID",
          "type": "uint256"
        }
      ],
      "name": "hasQuorum",
      "outputs": [
        {
          "internalType": "bool",
          "name": "",
          "type": "bool"
        }
      ],
      "stateMutability": "view",
      "type": "function"
    },
    {
      "inputs": [
        {
          "internalType": "address",
          "name": "",
          "type": "address"
        }
      ],
      "name": "isMember",
      "outputs": [
        {
          "internalType": "bool",
          "name": "",
          "type": "bool"
        }
      ],
      "stateMutability": "view",
      "type": "function"
    },
    {
      "inputs": [],
      "name": "majorityFactor",
      "outputs": [
        {
          "internalType": "uint256",
          "name": "",
          "type": "uint256"
        }
      ],
      "stateMutability": "view",
      "type": "function"
    },
    {
      "inputs": [
        {
          "internalType": "address",
          "name": "",
          "type": "address"
        }
      ],
      "name": "mapMember_lastTime",
      "outputs": [
        {
          "internalType": "uint256",
          "name": "",
          "type": "uint256"
        }
      ],
      "stateMutability": "view",
      "type": "function"
    },
    {
      "inputs": [
        {
          "internalType": "uint256",
          "name": "",
          "type": "uint256"
        }
      ],
      "name": "mapPID_address",
      "outputs": [
        {
          "internalType": "address",
          "name": "",
          "type": "address"
        }
      ],
      "stateMutability": "view",
      "type": "function"
    },
    {
      "inputs": [
        {
          "internalType": "uint256",
          "name": "",
          "type": "uint256"
        }
      ],
      "name": "mapPID_coolOffTime",
      "outputs": [
        {
          "internalType": "uint256",
          "name": "",
          "type": "uint256"
        }
      ],
      "stateMutability": "view",
      "type": "function"
    },
    {
      "inputs": [
        {
          "internalType": "uint256",
          "name": "",
          "type": "uint256"
        }
      ],
      "name": "mapPID_finalised",
      "outputs": [
        {
          "internalType": "bool",
          "name": "",
          "type": "bool"
        }
      ],
      "stateMutability": "view",
      "type": "function"
    },
    {
      "inputs": [
        {
          "internalType": "uint256",
          "name": "",
          "type": "uint256"
        }
      ],
      "name": "mapPID_finalising",
      "outputs": [
        {
          "internalType": "bool",
          "name": "",
          "type": "bool"
        }
      ],
      "stateMutability": "view",
      "type": "function"
    },
    {
      "inputs": [
        {
          "internalType": "uint256",
          "name": "",
          "type": "uint256"
        }
      ],
      "name": "mapPID_open",
      "outputs": [
        {
          "internalType": "bool",
          "name": "",
          "type": "bool"
        }
      ],
      "stateMutability": "view",
      "type": "function"
    },
    {
      "inputs": [
        {
          "internalType": "uint256",
          "name": "",
          "type": "uint256"
        }
      ],
      "name": "mapPID_param",
      "outputs": [
        {
          "internalType": "uint256",
          "name": "",
          "type": "uint256"
        }
      ],
      "stateMutability": "view",
      "type": "function"
    },
    {
      "inputs": [
        {
          "internalType": "uint256",
          "name": "",
          "type": "uint256"
        }
      ],
      "name": "mapPID_startTime",
      "outputs": [
        {
          "internalType": "uint256",
          "name": "",
          "type": "uint256"
        }
      ],
      "stateMutability": "view",
      "type": "function"
    },
    {
      "inputs": [
        {
          "internalType": "uint256",
          "name": "",
          "type": "uint256"
        }
      ],
      "name": "mapPID_type",
      "outputs": [
        {
          "internalType": "string",
          "name": "",
          "type": "string"
        }
      ],
      "stateMutability": "view",
      "type": "function"
    },
    {
      "inputs": [
        {
          "internalType": "uint256",
          "name": "proposal",
          "type": "uint256"
        },
        {
          "internalType": "address",
          "name": "member",
          "type": "address"
        }
      ],
      "name": "memberVoted",
      "outputs": [
        {
          "internalType": "bool",
          "name": "",
          "type": "bool"
        }
      ],
      "stateMutability": "view",
      "type": "function"
    },
    {
      "inputs": [
        {
          "internalType": "string",
          "name": "typeStr",
          "type": "string"
        }
      ],
      "name": "newActionProposal",
      "outputs": [],
      "stateMutability": "nonpayable",
      "type": "function"
    },
    {
      "inputs": [
        {
          "internalType": "address",
          "name": "proposedAddress",
          "type": "address"
        },
        {
          "internalType": "string",
          "name": "typeStr",
          "type": "string"
        }
      ],
      "name": "newAddressProposal",
      "outputs": [],
      "stateMutability": "nonpayable",
      "type": "function"
    },
    {
      "inputs": [
        {
          "internalType": "address",
          "name": "recipient",
          "type": "address"
        },
        {
          "internalType": "uint256",
          "name": "amount",
          "type": "uint256"
        }
      ],
      "name": "newGrantProposal",
      "outputs": [],
      "stateMutability": "nonpayable",
      "type": "function"
    },
    {
      "inputs": [
        {
          "internalType": "uint256",
          "name": "param",
          "type": "uint256"
        },
        {
          "internalType": "string",
          "name": "typeStr",
          "type": "string"
        }
      ],
      "name": "newParamProposal",
      "outputs": [],
      "stateMutability": "nonpayable",
      "type": "function"
    },
    {
      "inputs": [],
      "name": "pollVotes",
      "outputs": [],
      "stateMutability": "nonpayable",
      "type": "function"
    },
    {
      "inputs": [],
      "name": "purgeDeployer",
      "outputs": [],
      "stateMutability": "nonpayable",
      "type": "function"
    },
    {
      "inputs": [],
      "name": "retire",
      "outputs": [
        {
          "internalType": "bool",
          "name": "",
          "type": "bool"
        }
      ],
      "stateMutability": "view",
      "type": "function"
    },
    {
      "inputs": [],
      "name": "running",
      "outputs": [
        {
          "internalType": "bool",
          "name": "",
          "type": "bool"
        }
      ],
      "stateMutability": "view",
      "type": "function"
    },
    {
      "inputs": [
        {
          "internalType": "uint256",
          "name": "_daoClaim",
          "type": "uint256"
        },
        {
          "internalType": "uint256",
          "name": "_daoFee",
          "type": "uint256"
        },
        {
          "internalType": "bool",
          "name": "_running",
          "type": "bool"
        },
        {
          "internalType": "uint256",
          "name": "_cancelPeriod",
          "type": "uint256"
        }
      ],
      "name": "setDaoFactors",
      "outputs": [],
      "stateMutability": "nonpayable",
      "type": "function"
    },
    {
      "inputs": [
        {
          "internalType": "address",
          "name": "_poolFactory",
          "type": "address"
        },
        {
          "internalType": "address",
          "name": "_synthFactory",
          "type": "address"
        }
      ],
      "name": "setFactoryAddresses",
      "outputs": [],
      "stateMutability": "nonpayable",
      "type": "function"
    },
    {
      "inputs": [
        {
          "internalType": "address",
          "name": "_router",
          "type": "address"
        },
        {
          "internalType": "address",
          "name": "_utils",
          "type": "address"
        },
        {
          "internalType": "address",
          "name": "_reserve",
          "type": "address"
        },
        {
          "internalType": "address",
          "name": "_lend",
          "type": "address"
        }
      ],
      "name": "setGenesisAddresses",
      "outputs": [],
      "stateMutability": "nonpayable",
      "type": "function"
    },
    {
      "inputs": [
        {
          "internalType": "uint256",
          "name": "_coolOff",
          "type": "uint256"
        },
        {
          "internalType": "uint256",
          "name": "_erasToEarn",
          "type": "uint256"
        },
        {
          "internalType": "uint256",
          "name": "_majorityFactor",
          "type": "uint256"
        }
      ],
      "name": "setGenesisFactors",
      "outputs": [],
      "stateMutability": "nonpayable",
      "type": "function"
    },
    {
      "inputs": [
        {
          "internalType": "address",
          "name": "_daovault",
          "type": "address"
        },
        {
          "internalType": "address",
          "name": "_bondvault",
          "type": "address"
        },
        {
          "internalType": "address",
          "name": "_synthVault",
          "type": "address"
        }
      ],
      "name": "setVaultAddresses",
      "outputs": [],
      "stateMutability": "nonpayable",
      "type": "function"
    },
    {
      "inputs": [],
      "name": "unvoteProposal",
      "outputs": [],
      "stateMutability": "nonpayable",
      "type": "function"
    },
    {
      "inputs": [],
      "name": "voteProposal",
      "outputs": [],
      "stateMutability": "nonpayable",
      "type": "function"
    },
    {
      "inputs": [
        {
          "internalType": "address",
          "name": "pool",
          "type": "address"
        }
      ],
      "name": "withdraw",
      "outputs": [],
      "stateMutability": "nonpayable",
      "type": "function"
    }
  ],
  "bytecode": "0x60a06040523480156200001157600080fd5b506040516200a2623803806200a262833981810160405281019062000037919062000116565b60016000819055508073ffffffffffffffffffffffffffffffffffffffff1660808173ffffffffffffffffffffffffffffffffffffffff1660601b8152505033600160006101000a81548173ffffffffffffffffffffffffffffffffffffffff021916908373ffffffffffffffffffffffffffffffffffffffff16021790555030600960016101000a81548173ffffffffffffffffffffffffffffffffffffffff021916908373ffffffffffffffffffffffffffffffffffffffff1602179055505062000190565b600081519050620001108162000176565b92915050565b6000602082840312156200012957600080fd5b60006200013984828501620000ff565b91505092915050565b60006200014f8262000156565b9050919050565b600073ffffffffffffffffffffffffffffffffffffffff82169050919050565b620001818162000142565b81146200018d57600080fd5b50565b60805160601c61a05f6200020360003960008181611989015281816120da0152818161231f01528181614a7c01528181615e5c0152818161694c01528181616bee01528181616cc101528181616d2001528181617492015281816176700152818161781201526179ce015261a05f6000f3fe6080604052600436106103975760003560e01c806379b2dc4c116101dc578063a6c83fed11610102578063b99b0a0c116100a0578063d14583631161006f578063d145836314610dab578063d85bd52614610dd4578063ec342ad014610dff578063f301e78114610e2a57610397565b8063b99b0a0c14610cdb578063bbf8cf8214610d06578063c05fc17814610d43578063c1b8411a14610d8057610397565b8063ae887c8b116100dc578063ae887c8b14610bf9578063b7407e6a14610c36578063b826286914610c73578063b93ec54b14610cb057610397565b8063a6c83fed14610b8e578063ab2bd8fd14610bb7578063abb6154f14610bce57610397565b806398fabd3a1161017a578063a320224611610149578063a320224614610ae1578063a44c247214610b0a578063a4874d7714610b33578063a515366a14610b5e57610397565b806398fabd3a14610a115780639d2cc43614610a3c578063a230c52414610a67578063a299ecb214610aa457610397565b806385d2b916116101b657806385d2b916146109675780638bebea89146109925780639070577f146109cf578063956615be146109e657610397565b806379b2dc4c146108fa5780637b0e5c45146109255780638351739a1461095057610397565b80633b4d01a7116102c157806347e7ef241161025f5780635c7366d31161022e5780635c7366d3146108665780635f9384fc146108a3578063682454ed146108ba57806373758988146108d157610397565b806347e7ef241461079a5780634b400034146107c357806351cff8d9146108005780635c120b371461082957610397565b806343b2116f1161029b57806343b2116f146106f4578063463508211461071d5780634636279f146107465780634641257d1461078357610397565b80633b4d01a71461063d5780633f3fa3361461067a578063436f80be146106b757610397565b80632bee11941161033957806332fe7b261161030857806332fe7b261461058157806334bc8f45146105ac57806338da7dd6146105d55780633a61738d1461060057610397565b80632bee1194146104b15780632c07eebf146104ee5780632f7fa18014610519578063314604fe1461054457610397565b8063293cee7d11610375578063293cee7d146104075780632957b839146104305780632ab24e491461045b5780632b49d4251461048657610397565b806303a821381461039c5780631e83409a146103b357806324efb528146103dc575b600080fd5b3480156103a857600080fd5b506103b1610e55565b005b3480156103bf57600080fd5b506103da60048036038101906103d591906184fb565b610ef3565b005b3480156103e857600080fd5b506103f161108b565b6040516103fe91906190ec565b60405180910390f35b34801561041357600080fd5b5061042e6004803603810190610429919061863b565b61109e565b005b34801561043c57600080fd5b50610445611354565b60405161045291906194be565b60405180910390f35b34801561046757600080fd5b5061047061135a565b60405161047d91906191c4565b60405180910390f35b34801561049257600080fd5b5061049b611441565b6040516104a891906194be565b60405180910390f35b3480156104bd57600080fd5b506104d860048036038101906104d39190618910565b611447565b6040516104e591906190ec565b60405180910390f35b3480156104fa57600080fd5b50610503611467565b60405161051091906194be565b60405180910390f35b34801561052557600080fd5b5061052e61146d565b60405161053b9190619107565b60405180910390f35b34801561055057600080fd5b5061056b60048036038101906105669190618910565b611554565b60405161057891906194be565b60405180910390f35b34801561058d57600080fd5b5061059661156c565b6040516105a3919061918e565b60405180910390f35b3480156105b857600080fd5b506105d360048036038101906105ce9190618a91565b611653565b005b3480156105e157600080fd5b506105ea6116c7565b6040516105f79190619122565b60405180910390f35b34801561060c57600080fd5b50610627600480360381019061062291906184fb565b6117ae565b60405161063491906194be565b60405180910390f35b34801561064957600080fd5b50610664600480360381019061065f9190618910565b611b3b565b604051610671919061949c565b60405180910390f35b34801561068657600080fd5b506106a1600480360381019061069c9190618962565b611d4a565b6040516106ae91906194be565b60405180910390f35b3480156106c357600080fd5b506106de60048036038101906106d99190618910565b611da5565b6040516106eb9190619011565b60405180910390f35b34801561070057600080fd5b5061071b600480360381019061071691906185d8565b611de4565b005b34801561072957600080fd5b50610744600480360381019061073f919061854d565b611f48565b005b34801561075257600080fd5b5061076d600480360381019061076891906184fb565b612028565b60405161077a91906194be565b60405180910390f35b34801561078f57600080fd5b50610798612199565b005b3480156107a657600080fd5b506107c160048036038101906107bc919061868f565b6124a9565b005b3480156107cf57600080fd5b506107ea60048036038101906107e59190618910565b61296f565b6040516107f791906190ec565b60405180910390f35b34801561080c57600080fd5b50610827600480360381019061082291906184fb565b61298f565b005b34801561083557600080fd5b50610850600480360381019061084b9190618910565b612c9d565b60405161085d91906190ec565b60405180910390f35b34801561087257600080fd5b5061088d600480360381019061088891906184fb565b613200565b60405161089a91906194be565b60405180910390f35b3480156108af57600080fd5b506108b8613218565b005b3480156108c657600080fd5b506108cf613610565b005b3480156108dd57600080fd5b506108f860048036038101906108f39190618589565b6138e3565b005b34801561090657600080fd5b5061090f613a05565b60405161091c91906194be565b60405180910390f35b34801561093157600080fd5b5061093a613a0b565b60405161094791906191df565b60405180910390f35b34801561095c57600080fd5b50610965613af2565b005b34801561097357600080fd5b5061097c613eae565b60405161098991906194be565b60405180910390f35b34801561099e57600080fd5b506109b960048036038101906109b49190618910565b613eb4565b6040516109c691906190ec565b60405180910390f35b3480156109db57600080fd5b506109e4613ed4565b005b3480156109f257600080fd5b506109fb6141ec565b604051610a0891906194be565b60405180910390f35b348015610a1d57600080fd5b50610a266141f2565b604051610a339190619011565b60405180910390f35b348015610a4857600080fd5b50610a51614218565b604051610a5e9190619173565b60405180910390f35b348015610a7357600080fd5b50610a8e6004803603810190610a8991906184fb565b6142ff565b604051610a9b91906190ec565b60405180910390f35b348015610ab057600080fd5b50610acb6004803603810190610ac69190618910565b61431f565b604051610ad891906194be565b60405180910390f35b348015610aed57600080fd5b50610b086004803603810190610b03919061899e565b614337565b005b348015610b1657600080fd5b50610b316004803603810190610b2c9190618a2e565b614423565b005b348015610b3f57600080fd5b50610b486144b2565b604051610b5591906190ec565b60405180910390f35b610b786004803603810190610b73919061868f565b6144c5565b604051610b8591906190ec565b60405180910390f35b348015610b9a57600080fd5b50610bb56004803603810190610bb0919061868f565b614a08565b005b348015610bc357600080fd5b50610bcc614cec565b005b348015610bda57600080fd5b50610be3615515565b604051610bf091906194be565b60405180910390f35b348015610c0557600080fd5b50610c206004803603810190610c1b9190618910565b61551b565b604051610c2d9190619011565b60405180910390f35b348015610c4257600080fd5b50610c5d6004803603810190610c589190618962565b61554e565b604051610c6a91906190ec565b60405180910390f35b348015610c7f57600080fd5b50610c9a6004803603810190610c959190618910565b6155b6565b604051610ca791906194be565b60405180910390f35b348015610cbc57600080fd5b50610cc56155ce565b604051610cd291906191a9565b60405180910390f35b348015610ce757600080fd5b50610cf06156b5565b604051610cfd9190619158565b60405180910390f35b348015610d1257600080fd5b50610d2d6004803603810190610d289190618910565b61579c565b604051610d3a91906190ec565b60405180910390f35b348015610d4f57600080fd5b50610d6a6004803603810190610d659190618910565b615cf1565b604051610d7791906191fa565b60405180910390f35b348015610d8c57600080fd5b50610d95615d91565b604051610da29190619011565b60405180910390f35b348015610db757600080fd5b50610dd26004803603810190610dcd91906188cf565b615db7565b005b348015610de057600080fd5b50610de9615e47565b604051610df691906190ec565b60405180910390f35b348015610e0b57600080fd5b50610e14615e5a565b604051610e219190619011565b60405180910390f35b348015610e3657600080fd5b50610e3f615e7e565b604051610e4c919061913d565b60405180910390f35b600160009054906101000a900473ffffffffffffffffffffffffffffffffffffffff1673ffffffffffffffffffffffffffffffffffffffff163373ffffffffffffffffffffffffffffffffffffffff1614610eaf57600080fd5b6000600160006101000a81548173ffffffffffffffffffffffffffffffffffffffff021916908373ffffffffffffffffffffffffffffffffffffffff160217905550565b600160149054906101000a900460ff1615610f43576040517f08c379a0000000000000000000000000000000000000000000000000000000008152600401610f3a9061923c565b60405180910390fd5b600060075490506000601c600083815260200190815260200160002060009054906101000a900460ff168015610fd35750601f600083815260200190815260200160002060003373ffffffffffffffffffffffffffffffffffffffff1673ffffffffffffffffffffffffffffffffffffffff16815260200190815260200160002060009054906101000a900460ff165b90508015610fe657610fe482615f65565b505b600c60009054906101000a900473ffffffffffffffffffffffffffffffffffffffff1673ffffffffffffffffffffffffffffffffffffffff166321c0b34284336040518363ffffffff1660e01b815260040161104392919061902c565b600060405180830381600087803b15801561105d57600080fd5b505af1158015611071573d6000803e3d6000fd5b50505050801561108657611084826162d3565b505b505050565b600960009054906101000a900460ff1681565b60008190506110e2816040518060400160405280600381526020017f44414f0000000000000000000000000000000000000000000000000000000000815250616641565b806111285750611127816040518060400160405280600681526020017f524f555445520000000000000000000000000000000000000000000000000000815250616641565b5b8061116e575061116d816040518060400160405280600581526020017f5554494c53000000000000000000000000000000000000000000000000000000815250616641565b5b806111b457506111b3816040518060400160405280600781526020017f5245534552564500000000000000000000000000000000000000000000000000815250616641565b5b806111fa57506111f9816040518060400160405280600781526020017f5245414c49534500000000000000000000000000000000000000000000000000815250616641565b5b1561127057600073ffffffffffffffffffffffffffffffffffffffff168373ffffffffffffffffffffffffffffffffffffffff16141561126f576040517f08c379a0000000000000000000000000000000000000000000000000000000008152600401611266906193dc565b60405180910390fd5b5b600061127a6166ec565b9050611284616945565b50836017600083815260200190815260200160002060006101000a81548173ffffffffffffffffffffffffffffffffffffffff021916908373ffffffffffffffffffffffffffffffffffffffff160217905550826018600083815260200190815260200160002090805190602001906112fe92919061819b565b50803373ffffffffffffffffffffffffffffffffffffffff167f8d500fcad86fc64a281b94ef64d6d66acbfc6862aa4ff2ee5fbbfb40736e803e8560405161134691906191fa565b60405180910390a350505050565b60065481565b6000600960009054906101000a900460ff161561141857600960019054906101000a900473ffffffffffffffffffffffffffffffffffffffff1673ffffffffffffffffffffffffffffffffffffffff16632ab24e496040518163ffffffff1660e01b815260040160206040518083038186803b1580156113d957600080fd5b505afa1580156113ed573d6000803e3d6000fd5b505050506040513d601f19601f82011682018060405250810190611411919061887d565b905061143e565b601160009054906101000a900473ffffffffffffffffffffffffffffffffffffffff1690505b90565b60075481565b601b6020528060005260406000206000915054906101000a900460ff1681565b60045481565b6000600960009054906101000a900460ff161561152b57600960019054906101000a900473ffffffffffffffffffffffffffffffffffffffff1673ffffffffffffffffffffffffffffffffffffffff16632f7fa1806040518163ffffffff1660e01b815260040160206040518083038186803b1580156114ec57600080fd5b505afa158015611500573d6000803e3d6000fd5b505050506040513d601f19601f82011682018060405250810190611524919061875e565b9050611551565b600c60009054906101000a900473ffffffffffffffffffffffffffffffffffffffff1690505b90565b60166020528060005260406000206000915090505481565b6000600960009054906101000a900460ff161561162a57600960019054906101000a900473ffffffffffffffffffffffffffffffffffffffff1673ffffffffffffffffffffffffffffffffffffffff166332fe7b266040518163ffffffff1660e01b815260040160206040518083038186803b1580156115eb57600080fd5b505afa1580156115ff573d6000803e3d6000fd5b505050506040513d601f19601f82011682018060405250810190611623919061882b565b9050611650565b600a60009054906101000a900473ffffffffffffffffffffffffffffffffffffffff1690505b90565b600160009054906101000a900473ffffffffffffffffffffffffffffffffffffffff1673ffffffffffffffffffffffffffffffffffffffff163373ffffffffffffffffffffffffffffffffffffffff16146116ad57600080fd5b826002819055508160048190555080600381905550505050565b6000600960009054906101000a900460ff161561178557600960019054906101000a900473ffffffffffffffffffffffffffffffffffffffff1673ffffffffffffffffffffffffffffffffffffffff166338da7dd66040518163ffffffff1660e01b815260040160206040518083038186803b15801561174657600080fd5b505afa15801561175a573d6000803e3d6000fd5b505050506040513d601f19601f8201168201806040525081019061177e9190618787565b90506117ab565b600d60009054906101000a900473ffffffffffffffffffffffffffffffffffffffff1690505b90565b6000600160149054906101000a900460ff1615611800576040517f08c379a00000000000000000000000000000000000000000000000000000000081526004016117f79061923c565b60405180910390fd5b600080600d60009054906101000a900473ffffffffffffffffffffffffffffffffffffffff1673ffffffffffffffffffffffffffffffffffffffff1663a477b804856040518263ffffffff1660e01b815260040161185e9190619011565b604080518083038186803b15801561187557600080fd5b505afa158015611889573d6000803e3d6000fd5b505050506040513d601f19601f820116820180604052508101906118ad91906189f2565b91509150600080600c60009054906101000a900473ffffffffffffffffffffffffffffffffffffffff1673ffffffffffffffffffffffffffffffffffffffff1663a477b804876040518263ffffffff1660e01b815260040161190f9190619011565b604080518083038186803b15801561192657600080fd5b505afa15801561193a573d6000803e3d6000fd5b505050506040513d601f19601f8201168201806040525081019061195e91906189f2565b9150915060008285611970919061969c565b905060008285611980919061969c565b905060006004547f000000000000000000000000000000000000000000000000000000000000000073ffffffffffffffffffffffffffffffffffffffff166370a08231601060009054906101000a900473ffffffffffffffffffffffffffffffffffffffff166040518263ffffffff1660e01b8152600401611a029190619011565b60206040518083038186803b158015611a1a57600080fd5b505afa158015611a2e573d6000803e3d6000fd5b505050506040513d601f19601f82011682018060405250810190611a529190618939565b611a5c91906196f2565b9050600061271060055483611a719190619723565b611a7b91906196f2565b9050600b60009054906101000a900473ffffffffffffffffffffffffffffffffffffffff1673ffffffffffffffffffffffffffffffffffffffff16631ba326c48585846040518463ffffffff1660e01b8152600401611adc939291906195a0565b60206040518083038186803b158015611af457600080fd5b505afa158015611b08573d6000803e3d6000fd5b505050506040513d601f19601f82011682018060405250810190611b2c9190618939565b98505050505050505050919050565b611b43618221565b81816000018181525050601860008381526020019081526020016000208054611b6b90619a2b565b80601f0160208091040260200160405190810160405280929190818152602001828054611b9790619a2b565b8015611be45780601f10611bb957610100808354040283529160200191611be4565b820191906000526020600020905b815481529060010190602001808311611bc757829003601f168201915b505050505081602001819052506019600083815260200190815260200160002054816060018181525050601a600083815260200190815260200160002060009054906101000a900460ff16816080019015159081151581525050601b600083815260200190815260200160002060009054906101000a900460ff168160a001901515908115158152505060166000838152602001908152602001600020548160c00181815250506017600083815260200190815260200160002060009054906101000a900473ffffffffffffffffffffffffffffffffffffffff168160e0019073ffffffffffffffffffffffffffffffffffffffff16908173ffffffffffffffffffffffffffffffffffffffff1681525050601c600083815260200190815260200160002060009054906101000a900460ff1681610100019015159081151581525050601d60008381526020019081526020016000205481610120018181525050919050565b6000601e600084815260200190815260200160002060008373ffffffffffffffffffffffffffffffffffffffff1673ffffffffffffffffffffffffffffffffffffffff16815260200190815260200160002054905092915050565b60138181548110611db557600080fd5b906000526020600020016000915054906101000a900473ffffffffffffffffffffffffffffffffffffffff1681565b600160009054906101000a900473ffffffffffffffffffffffffffffffffffffffff1673ffffffffffffffffffffffffffffffffffffffff163373ffffffffffffffffffffffffffffffffffffffff1614611e3e57600080fd5b83600a60006101000a81548173ffffffffffffffffffffffffffffffffffffffff021916908373ffffffffffffffffffffffffffffffffffffffff16021790555082600b60006101000a81548173ffffffffffffffffffffffffffffffffffffffff021916908373ffffffffffffffffffffffffffffffffffffffff16021790555081601060006101000a81548173ffffffffffffffffffffffffffffffffffffffff021916908373ffffffffffffffffffffffffffffffffffffffff16021790555080601260006101000a81548173ffffffffffffffffffffffffffffffffffffffff021916908373ffffffffffffffffffffffffffffffffffffffff16021790555050505050565b600160009054906101000a900473ffffffffffffffffffffffffffffffffffffffff1673ffffffffffffffffffffffffffffffffffffffff163373ffffffffffffffffffffffffffffffffffffffff1614611fa257600080fd5b81600e60006101000a81548173ffffffffffffffffffffffffffffffffffffffff021916908373ffffffffffffffffffffffffffffffffffffffff16021790555080600f60006101000a81548173ffffffffffffffffffffffffffffffffffffffff021916908373ffffffffffffffffffffffffffffffffffffffff1602179055505050565b6000600160149054906101000a900460ff161561207a576040517f08c379a00000000000000000000000000000000000000000000000000000000081526004016120719061923c565b60405180910390fd5b6000601560008473ffffffffffffffffffffffffffffffffffffffff1673ffffffffffffffffffffffffffffffffffffffff16815260200190815260200160002054426120c7919061977d565b905060006120d4846117ae565b905060007f000000000000000000000000000000000000000000000000000000000000000073ffffffffffffffffffffffffffffffffffffffff16636b92a3b66040518163ffffffff1660e01b815260040160206040518083038186803b15801561213e57600080fd5b505afa158015612152573d6000803e3d6000fd5b505050506040513d601f19601f820116820180604052508101906121769190618939565b83836121829190619723565b61218c91906196f2565b9050809350505050919050565b600160149054906101000a900460ff16156121e9576040517f08c379a00000000000000000000000000000000000000000000000000000000081526004016121e09061923c565b60405180910390fd5b601060009054906101000a900473ffffffffffffffffffffffffffffffffffffffff1673ffffffffffffffffffffffffffffffffffffffff16632267716c6040518163ffffffff1660e01b8152600401602060405180830381600087803b15801561225357600080fd5b505af1158015612267573d6000803e3d6000fd5b505050506040513d601f19601f8201168201806040525081019061228b919061870c565b6122ca576040517f08c379a00000000000000000000000000000000000000000000000000000000081526004016122c1906192dc565b60405180910390fd5b60006122d533612028565b905042601560003373ffffffffffffffffffffffffffffffffffffffff1673ffffffffffffffffffffffffffffffffffffffff1681526020019081526020016000208190555060007f000000000000000000000000000000000000000000000000000000000000000073ffffffffffffffffffffffffffffffffffffffff166370a08231601060009054906101000a900473ffffffffffffffffffffffffffffffffffffffff166040518263ffffffff1660e01b81526004016123989190619011565b60206040518083038186803b1580156123b057600080fd5b505afa1580156123c4573d6000803e3d6000fd5b505050506040513d601f19601f820116820180604052508101906123e89190618939565b90506000612710600554836123fd9190619723565b61240791906196f2565b905080831115612415578092505b601060009054906101000a900473ffffffffffffffffffffffffffffffffffffffff1673ffffffffffffffffffffffffffffffffffffffff16637d458baa84336040518363ffffffff1660e01b81526004016124729291906194d9565b600060405180830381600087803b15801561248c57600080fd5b505af11580156124a0573d6000803e3d6000fd5b50505050505050565b600160149054906101000a900460ff16156124f9576040517f08c379a00000000000000000000000000000000000000000000000000000000081526004016124f09061923c565b60405180910390fd5b600060075490506000601c600083815260200190815260200160002060009054906101000a900460ff1680156125895750601f600083815260200190815260200160002060003373ffffffffffffffffffffffffffffffffffffffff1673ffffffffffffffffffffffffffffffffffffffff16815260200190815260200160002060009054906101000a900460ff165b9050801561259c5761259a82615f65565b505b60011515600e60009054906101000a900473ffffffffffffffffffffffffffffffffffffffff1673ffffffffffffffffffffffffffffffffffffffff16638dcb4c93866040518263ffffffff1660e01b81526004016125fb9190619011565b60206040518083038186803b15801561261357600080fd5b505afa158015612627573d6000803e3d6000fd5b505050506040513d601f19601f8201168201806040525081019061264b919061870c565b15151461268d576040517f08c379a00000000000000000000000000000000000000000000000000000000081526004016126849061935c565b60405180910390fd5b600083116126d0576040517f08c379a00000000000000000000000000000000000000000000000000000000081526004016126c7906193bc565b60405180910390fd5b60011515601460003373ffffffffffffffffffffffffffffffffffffffff1673ffffffffffffffffffffffffffffffffffffffff16815260200190815260200160002060009054906101000a900460ff161515146127e4576013339080600181540180825580915050600190039060005260206000200160009091909190916101000a81548173ffffffffffffffffffffffffffffffffffffffff021916908373ffffffffffffffffffffffffffffffffffffffff1602179055506001601460003373ffffffffffffffffffffffffffffffffffffffff1673ffffffffffffffffffffffffffffffffffffffff16815260200190815260200160002060006101000a81548160ff0219169083151502179055505b6128128433600d60009054906101000a900473ffffffffffffffffffffffffffffffffffffffff16866169b1565b600d60009054906101000a900473ffffffffffffffffffffffffffffffffffffffff1673ffffffffffffffffffffffffffffffffffffffff166346dafa2f8585336040518463ffffffff1660e01b8152600401612871939291906190b5565b600060405180830381600087803b15801561288b57600080fd5b505af115801561289f573d6000803e3d6000fd5b50505050603c426128b0919061969c565b601560003373ffffffffffffffffffffffffffffffffffffffff1673ffffffffffffffffffffffffffffffffffffffff168152602001908152602001600020819055508373ffffffffffffffffffffffffffffffffffffffff163373ffffffffffffffffffffffffffffffffffffffff167f5f9b5a75581a29d72b32414a5df7f1ef124b7787b38616fb8fdcad76179127c28560405161295091906194be565b60405180910390a3801561296957612967826162d3565b505b50505050565b601a6020528060005260406000206000915054906101000a900460ff1681565b600160149054906101000a900460ff16156129df576040517f08c379a00000000000000000000000000000000000000000000000000000000081526004016129d69061923c565b60405180910390fd5b600060075490506000601c600083815260200190815260200160002060009054906101000a900460ff168015612a6f5750601f600083815260200190815260200160002060003373ffffffffffffffffffffffffffffffffffffffff1673ffffffffffffffffffffffffffffffffffffffff16815260200190815260200160002060009054906101000a900460ff165b90508015612a8257612a8082615f65565b505b6000600d60009054906101000a900473ffffffffffffffffffffffffffffffffffffffff1673ffffffffffffffffffffffffffffffffffffffff1663aa9fd37433866040518363ffffffff1660e01b8152600401612ae192919061902c565b60206040518083038186803b158015612af957600080fd5b505afa158015612b0d573d6000803e3d6000fd5b505050506040513d601f19601f82011682018060405250810190612b319190618939565b9050600d60009054906101000a900473ffffffffffffffffffffffffffffffffffffffff1673ffffffffffffffffffffffffffffffffffffffff1663f940e38585336040518363ffffffff1660e01b8152600401612b9092919061902c565b602060405180830381600087803b158015612baa57600080fd5b505af1158015612bbe573d6000803e3d6000fd5b505050506040513d601f19601f82011682018060405250810190612be2919061870c565b612c21576040517f08c379a0000000000000000000000000000000000000000000000000000000008152600401612c189061937c565b60405180910390fd5b8373ffffffffffffffffffffffffffffffffffffffff163373ffffffffffffffffffffffffffffffffffffffff167f12dcb5d4117cb4675d56c72f030db8f0f4dd34f875fe484eea4cf0790b5deaa383604051612c7e91906194be565b60405180910390a3508015612c9857612c96826162d3565b505b505050565b600080600e60009054906101000a900473ffffffffffffffffffffffffffffffffffffffff1673ffffffffffffffffffffffffffffffffffffffff1663abc764da6040518163ffffffff1660e01b815260040160006040518083038186803b158015612d0857600080fd5b505afa158015612d1c573d6000803e3d6000fd5b505050506040513d6000823e3d601f19601f82011682018060405250810190612d4591906186cb565b905060008060005b83518110156131d2576000600c60009054906101000a900473ffffffffffffffffffffffffffffffffffffffff1673ffffffffffffffffffffffffffffffffffffffff166389bbd670868481518110612dcf577f4e487b7100000000000000000000000000000000000000000000000000000000600052603260045260246000fd5b60200260200101516040518263ffffffff1660e01b8152600401612df39190619011565b60206040518083038186803b158015612e0b57600080fd5b505afa158015612e1f573d6000803e3d6000fd5b505050506040513d601f19601f82011682018060405250810190612e439190618939565b600d60009054906101000a900473ffffffffffffffffffffffffffffffffffffffff1673ffffffffffffffffffffffffffffffffffffffff166389bbd670878581518110612eba577f4e487b7100000000000000000000000000000000000000000000000000000000600052603260045260246000fd5b60200260200101516040518263ffffffff1660e01b8152600401612ede9190619011565b60206040518083038186803b158015612ef657600080fd5b505afa158015612f0a573d6000803e3d6000fd5b505050506040513d601f19601f82011682018060405250810190612f2e9190618939565b612f38919061969c565b9050600b60009054906101000a900473ffffffffffffffffffffffffffffffffffffffff1673ffffffffffffffffffffffffffffffffffffffff1663ca2e5b65868481518110612fb1577f4e487b7100000000000000000000000000000000000000000000000000000000600052603260045260246000fd5b6020026020010151601e60008b81526020019081526020016000206000898781518110613007577f4e487b7100000000000000000000000000000000000000000000000000000000600052603260045260246000fd5b602002602001015173ffffffffffffffffffffffffffffffffffffffff1673ffffffffffffffffffffffffffffffffffffffff168152602001908152602001600020546040518363ffffffff1660e01b815260040161306792919061908c565b60206040518083038186803b15801561307f57600080fd5b505afa158015613093573d6000803e3d6000fd5b505050506040513d601f19601f820116820180604052508101906130b79190618939565b846130c2919061969c565b9350600b60009054906101000a900473ffffffffffffffffffffffffffffffffffffffff1673ffffffffffffffffffffffffffffffffffffffff1663ca2e5b6586848151811061313b577f4e487b7100000000000000000000000000000000000000000000000000000000600052603260045260246000fd5b6020026020010151836040518363ffffffff1660e01b815260040161316192919061908c565b60206040518083038186803b15801561317957600080fd5b505afa15801561318d573d6000803e3d6000fd5b505050506040513d601f19601f820116820180604052508101906131b19190618939565b836131bc919061969c565b92505080806131ca90619a8e565b915050612d4d565b506000612710600354836131e69190619723565b6131f091906196f2565b9050808311945050505050919050565b60156020528060005260406000206000915090505481565b600160149054906101000a900460ff1615613268576040517f08c379a000000000000000000000000000000000000000000000000000000000815260040161325f9061923c565b60405180910390fd5b6000600754905060011515601c600083815260200190815260200160002060009054906101000a900460ff161515146132d6576040517f08c379a00000000000000000000000000000000000000000000000000000000081526004016132cd9061941c565b60405180910390fd5b60006018600083815260200190815260200160002080546132f690619a2b565b80601f016020809104026020016040519081016040528092919081815260200182805461332290619a2b565b801561336f5780601f106133445761010080835404028352916020019161336f565b820191906000526020600020905b81548152906001019060200180831161335257829003601f168201915b5050505050905061337f8261579c565b80156133af575060001515601a600084815260200190815260200160002060009054906101000a900460ff161515145b1561360c576133f3816040518060400160405280600381526020017f44414f0000000000000000000000000000000000000000000000000000000000815250616641565b806134395750613438816040518060400160405280600581526020017f5554494c53000000000000000000000000000000000000000000000000000000815250616641565b5b8061347f575061347e816040518060400160405280600781526020017f5245534552564500000000000000000000000000000000000000000000000000815250616641565b5b806134c557506134c4816040518060400160405280600a81526020017f4745545f53504152544100000000000000000000000000000000000000000000815250616641565b5b8061350b575061350a816040518060400160405280600681526020017f524f555445520000000000000000000000000000000000000000000000000000815250616641565b5b806135515750613550816040518060400160405280600981526020017f4c4953545f424f4e440000000000000000000000000000000000000000000000815250616641565b5b806135975750613596816040518060400160405280600581526020017f4752414e54000000000000000000000000000000000000000000000000000000815250616641565b5b806135dd57506135dc816040518060400160405280601081526020017f4144445f435552415445445f504f4f4c00000000000000000000000000000000815250616641565b5b15613600576135eb82612c9d565b156135fb576135fa8282616aea565b5b61360b565b61360a8282616aea565b5b5b5050565b600160149054906101000a900460ff1615613660576040517f08c379a00000000000000000000000000000000000000000000000000000000081526004016136579061923c565b60405180910390fd5b6000600754905060011515601c600083815260200190815260200160002060009054906101000a900460ff161515146136ce576040517f08c379a00000000000000000000000000000000000000000000000000000000081526004016136c59061941c565b60405180910390fd5b60011515601f600083815260200190815260200160002060003373ffffffffffffffffffffffffffffffffffffffff1673ffffffffffffffffffffffffffffffffffffffff16815260200190815260200160002060009054906101000a900460ff16151514613772576040517f08c379a00000000000000000000000000000000000000000000000000000000081526004016137699061933c565b60405180910390fd5b600060186000838152602001908152602001600020805461379290619a2b565b80601f01602080910402602001604051908101604052809291908181526020018280546137be90619a2b565b801561380b5780601f106137e05761010080835404028352916020019161380b565b820191906000526020600020905b8154815290600101906020018083116137ee57829003601f168201915b50505050509050600061381d83615f65565b90506000601f600085815260200190815260200160002060003373ffffffffffffffffffffffffffffffffffffffff1673ffffffffffffffffffffffffffffffffffffffff16815260200190815260200160002060006101000a81548160ff02191690831515021790555080156138de57823373ffffffffffffffffffffffffffffffffffffffff167fc47bced501ad257962522a3fba16532ae8ccbbe97f400da0bd120fc1b7443e19846040516138d591906191fa565b60405180910390a35b505050565b600160009054906101000a900473ffffffffffffffffffffffffffffffffffffffff1673ffffffffffffffffffffffffffffffffffffffff163373ffffffffffffffffffffffffffffffffffffffff161461393d57600080fd5b82600d60006101000a81548173ffffffffffffffffffffffffffffffffffffffff021916908373ffffffffffffffffffffffffffffffffffffffff16021790555081600c60006101000a81548173ffffffffffffffffffffffffffffffffffffffff021916908373ffffffffffffffffffffffffffffffffffffffff16021790555080601160006101000a81548173ffffffffffffffffffffffffffffffffffffffff021916908373ffffffffffffffffffffffffffffffffffffffff160217905550505050565b60055481565b6000600960009054906101000a900460ff1615613ac957600960019054906101000a900473ffffffffffffffffffffffffffffffffffffffff1673ffffffffffffffffffffffffffffffffffffffff16637b0e5c456040518163ffffffff1660e01b815260040160206040518083038186803b158015613a8a57600080fd5b505afa158015613a9e573d6000803e3d6000fd5b505050506040513d601f19601f82011682018060405250810190613ac291906188a6565b9050613aef565b600b60009054906101000a900473ffffffffffffffffffffffffffffffffffffffff1690505b90565b600160149054906101000a900460ff1615613b42576040517f08c379a0000000000000000000000000000000000000000000000000000000008152600401613b399061923c565b60405180910390fd5b60011515601060009054906101000a900473ffffffffffffffffffffffffffffffffffffffff1673ffffffffffffffffffffffffffffffffffffffff1663194e22ce6040518163ffffffff1660e01b8152600401602060405180830381600087803b158015613bb057600080fd5b505af1158015613bc4573d6000803e3d6000fd5b505050506040513d601f19601f82011682018060405250810190613be8919061870c565b15151415613c2b576040517f08c379a0000000000000000000000000000000000000000000000000000000008152600401613c22906193fc565b60405180910390fd5b6000600754905060011515601c600083815260200190815260200160002060009054906101000a900460ff16151514613c99576040517f08c379a0000000000000000000000000000000000000000000000000000000008152600401613c909061941c565b60405180910390fd5b60001515601f600083815260200190815260200160002060003373ffffffffffffffffffffffffffffffffffffffff1673ffffffffffffffffffffffffffffffffffffffff16815260200190815260200160002060009054906101000a900460ff16151514613d3d576040517f08c379a0000000000000000000000000000000000000000000000000000000008152600401613d349061929c565b60405180910390fd5b6000601860008381526020019081526020016000208054613d5d90619a2b565b80601f0160208091040260200160405190810160405280929190818152602001828054613d8990619a2b565b8015613dd65780601f10613dab57610100808354040283529160200191613dd6565b820191906000526020600020905b815481529060010190602001808311613db957829003601f168201915b505050505090506000613de8836162d3565b90506001601f600085815260200190815260200160002060003373ffffffffffffffffffffffffffffffffffffffff1673ffffffffffffffffffffffffffffffffffffffff16815260200190815260200160002060006101000a81548160ff0219169083151502179055508015613ea957823373ffffffffffffffffffffffffffffffffffffffff167ff3bb4a59f9a41b07650fa6eb0aaaf8f6e78fe9a712e0c0989ee060358403a89c84604051613ea091906191fa565b60405180910390a35b505050565b60085481565b601c6020528060005260406000206000915054906101000a900460ff1681565b600160149054906101000a900460ff1615613f24576040517f08c379a0000000000000000000000000000000000000000000000000000000008152600401613f1b9061923c565b60405180910390fd5b60006007549050601c600082815260200190815260200160002060009054906101000a900460ff16613f8b576040517f08c379a0000000000000000000000000000000000000000000000000000000008152600401613f82906192bc565b60405180910390fd5b600854601d600083815260200190815260200160002054613fac919061969c565b4211613fed576040517f08c379a0000000000000000000000000000000000000000000000000000000008152600401613fe49061947c565b60405180910390fd5b6000600e60009054906101000a900473ffffffffffffffffffffffffffffffffffffffff1673ffffffffffffffffffffffffffffffffffffffff1663abc764da6040518163ffffffff1660e01b815260040160006040518083038186803b15801561405757600080fd5b505afa15801561406b573d6000803e3d6000fd5b505050506040513d6000823e3d601f19601f8201168201806040525081019061409491906186cb565b905060005b815181101561414b576000601e600085815260200190815260200160002060008484815181106140f2577f4e487b7100000000000000000000000000000000000000000000000000000000600052603260045260246000fd5b602002602001015173ffffffffffffffffffffffffffffffffffffffff1673ffffffffffffffffffffffffffffffffffffffff16815260200190815260200160002081905550808061414390619a8e565b915050614099565b506000601a600084815260200190815260200160002060006101000a81548160ff0219169083151502179055506000601c600084815260200190815260200160002060006101000a81548160ff021916908315150217905550813373ffffffffffffffffffffffffffffffffffffffff167f6b4f340ccba70b829531b22cfbc4ad2defb3beac09f6149d584fe1031dedbf7c60405160405180910390a35050565b60035481565b600960019054906101000a900473ffffffffffffffffffffffffffffffffffffffff1681565b6000600960009054906101000a900460ff16156142d657600960019054906101000a900473ffffffffffffffffffffffffffffffffffffffff1673ffffffffffffffffffffffffffffffffffffffff16639d2cc4366040518163ffffffff1660e01b815260040160206040518083038186803b15801561429757600080fd5b505afa1580156142ab573d6000803e3d6000fd5b505050506040513d601f19601f820116820180604052508101906142cf9190618802565b90506142fc565b601060009054906101000a900473ffffffffffffffffffffffffffffffffffffffff1690505b90565b60146020528060005260406000206000915054906101000a900460ff1681565b60196020528060005260406000206000915090505481565b6000821161437a576040517f08c379a00000000000000000000000000000000000000000000000000000000081526004016143719061939c565b60405180910390fd5b60006143846166ec565b905061438e616945565b50826016600083815260200190815260200160002081905550816018600083815260200190815260200160002090805190602001906143ce92919061819b565b50803373ffffffffffffffffffffffffffffffffffffffff167f8d500fcad86fc64a281b94ef64d6d66acbfc6862aa4ff2ee5fbbfb40736e803e8460405161441691906191fa565b60405180910390a3505050565b600160009054906101000a900473ffffffffffffffffffffffffffffffffffffffff1673ffffffffffffffffffffffffffffffffffffffff163373ffffffffffffffffffffffffffffffffffffffff161461447d57600080fd5b836005819055508260068190555081600160156101000a81548160ff0219169083151502179055508060088190555050505050565b600160149054906101000a900460ff1681565b6000600160149054906101000a900460ff1615614517576040517f08c379a000000000000000000000000000000000000000000000000000000000815260040161450e9061923c565b60405180910390fd5b600060075490506000601c600083815260200190815260200160002060009054906101000a900460ff1680156145a75750601f600083815260200190815260200160002060003373ffffffffffffffffffffffffffffffffffffffff1673ffffffffffffffffffffffffffffffffffffffff16815260200190815260200160002060009054906101000a900460ff165b905080156145ba576145b882615f65565b505b600084116145fd576040517f08c379a00000000000000000000000000000000000000000000000000000000081526004016145f4906193bc565b60405180910390fd5b6000600e60009054906101000a900473ffffffffffffffffffffffffffffffffffffffff1673ffffffffffffffffffffffffffffffffffffffff1663bbe4f6db876040518263ffffffff1660e01b815260040161465a9190619011565b60206040518083038186803b15801561467257600080fd5b505afa158015614686573d6000803e3d6000fd5b505050506040513d601f19601f820116820180604052508101906146aa9190618524565b9050600c60009054906101000a900473ffffffffffffffffffffffffffffffffffffffff1673ffffffffffffffffffffffffffffffffffffffff1663f794062e826040518263ffffffff1660e01b81526004016147079190619011565b60206040518083038186803b15801561471f57600080fd5b505afa158015614733573d6000803e3d6000fd5b505050506040513d601f19601f82011682018060405250810190614757919061870c565b614796576040517f08c379a000000000000000000000000000000000000000000000000000000000815260040161478d9061921c565b60405180910390fd5b60011515601460003373ffffffffffffffffffffffffffffffffffffffff1673ffffffffffffffffffffffffffffffffffffffff16815260200190815260200160002060009054906101000a900460ff161515146148aa576013339080600181540180825580915050600190039060005260206000200160009091909190916101000a81548173ffffffffffffffffffffffffffffffffffffffff021916908373ffffffffffffffffffffffffffffffffffffffff1602179055506001601460003373ffffffffffffffffffffffffffffffffffffffff1673ffffffffffffffffffffffffffffffffffffffff16815260200190815260200160002060006101000a81548160ff0219169083151502179055505b60006148b68787616b90565b90506000426148c5919061969c565b601560003373ffffffffffffffffffffffffffffffffffffffff1673ffffffffffffffffffffffffffffffffffffffff16815260200190815260200160002081905550600c60009054906101000a900473ffffffffffffffffffffffffffffffffffffffff1673ffffffffffffffffffffffffffffffffffffffff1663bf58d0ef8333846040518463ffffffff1660e01b815260040161496793929190619055565b600060405180830381600087803b15801561498157600080fd5b505af1158015614995573d6000803e3d6000fd5b505050503373ffffffffffffffffffffffffffffffffffffffff167fe4dd259ab128527fe8b5fdae0b44bda8db95a4de10b999d63dce142b1eb88d5487836040516149e1929190619532565b60405180910390a26001945050508015614a00576149fe826162d3565b505b505092915050565b600073ffffffffffffffffffffffffffffffffffffffff168273ffffffffffffffffffffffffffffffffffffffff161415614a78576040517f08c379a0000000000000000000000000000000000000000000000000000000008152600401614a6f906193dc565b60405180910390fd5b60007f000000000000000000000000000000000000000000000000000000000000000073ffffffffffffffffffffffffffffffffffffffff166370a08231601060009054906101000a900473ffffffffffffffffffffffffffffffffffffffff166040518263ffffffff1660e01b8152600401614af59190619011565b60206040518083038186803b158015614b0d57600080fd5b505afa158015614b21573d6000803e3d6000fd5b505050506040513d601f19601f82011682018060405250810190614b459190618939565b9050600061271060055483614b5a9190619723565b614b6491906196f2565b9050600083118015614b7557508083105b614bb4576040517f08c379a0000000000000000000000000000000000000000000000000000000008152600401614bab9061927c565b60405180910390fd5b6000614bbe6166ec565b9050614bc8616945565b5060006040518060400160405280600581526020017f4752414e54000000000000000000000000000000000000000000000000000000815250905080601860008481526020019081526020016000209080519060200190614c2a92919061819b565b50856017600084815260200190815260200160002060006101000a81548173ffffffffffffffffffffffffffffffffffffffff021916908373ffffffffffffffffffffffffffffffffffffffff160217905550846016600084815260200190815260200160002081905550813373ffffffffffffffffffffffffffffffffffffffff167f8d500fcad86fc64a281b94ef64d6d66acbfc6862aa4ff2ee5fbbfb40736e803e83604051614cdc91906191fa565b60405180910390a3505050505050565b600160149054906101000a900460ff1615614d3c576040517f08c379a0000000000000000000000000000000000000000000000000000000008152600401614d339061923c565b60405180910390fd5b600160159054906101000a900460ff16614d8b576040517f08c379a0000000000000000000000000000000000000000000000000000000008152600401614d829061925c565b60405180910390fd5b60011515601060009054906101000a900473ffffffffffffffffffffffffffffffffffffffff1673ffffffffffffffffffffffffffffffffffffffff1663194e22ce6040518163ffffffff1660e01b8152600401602060405180830381600087803b158015614df957600080fd5b505af1158015614e0d573d6000803e3d6000fd5b505050506040513d601f19601f82011682018060405250810190614e31919061870c565b15151415614e74576040517f08c379a0000000000000000000000000000000000000000000000000000000008152600401614e6b906193fc565b60405180910390fd5b60006007549050600254601960008381526020019081526020016000205442614e9d919061977d565b11614edd576040517f08c379a0000000000000000000000000000000000000000000000000000000008152600401614ed4906192fc565b60405180910390fd5b60011515601a600083815260200190815260200160002060009054906101000a900460ff16151514614f44576040517f08c379a0000000000000000000000000000000000000000000000000000000008152600401614f3b9061931c565b60405180910390fd5b60011515601c600083815260200190815260200160002060009054906101000a900460ff16151514614f7557600080fd5b60001515601b600083815260200190815260200160002060009054906101000a900460ff16151514614fa657600080fd5b614faf8161579c565b614fe4576000601a600083815260200190815260200160002060006101000a81548160ff021916908315150217905550615512565b600060186000838152602001908152602001600020805461500490619a2b565b80601f016020809104026020016040519081016040528092919081815260200182805461503090619a2b565b801561507d5780601f106150525761010080835404028352916020019161507d565b820191906000526020600020905b81548152906001019060200180831161506057829003601f168201915b505050505090506150c3816040518060400160405280600381526020017f44414f0000000000000000000000000000000000000000000000000000000000815250616641565b156150d6576150d182617417565b615507565b615115816040518060400160405280600681526020017f524f555445520000000000000000000000000000000000000000000000000000815250616641565b15615128576151238261753a565b615506565b615167816040518060400160405280600581526020017f5554494c53000000000000000000000000000000000000000000000000000000815250616641565b1561517a57615175826175b7565b615505565b6151b9816040518060400160405280600781526020017f5245534552564500000000000000000000000000000000000000000000000000815250616641565b156151cc576151c782617634565b615504565b61520b816040518060400160405280600e81526020017f464c49505f454d495353494f4e53000000000000000000000000000000000000815250616641565b1561521d57615218617810565b615503565b61525c816040518060400160405280600881526020017f434f4f4c5f4f4646000000000000000000000000000000000000000000000000815250616641565b1561526f5761526a82617892565b615502565b6152ae816040518060400160405280600c81526020017f455241535f544f5f4541524e0000000000000000000000000000000000000000815250616641565b156152c1576152bc826178b5565b615501565b615300816040518060400160405280600581526020017f4752414e54000000000000000000000000000000000000000000000000000000815250616641565b156153135761530e826178d8565b615500565b615352816040518060400160405280600a81526020017f4745545f53504152544100000000000000000000000000000000000000000000815250616641565b156153645761535f6179bc565b6154ff565b6153a3816040518060400160405280600981526020017f4c4953545f424f4e440000000000000000000000000000000000000000000000815250616641565b156153b6576153b182617a5c565b6154fe565b6153f5816040518060400160405280600b81526020017f44454c4953545f424f4e44000000000000000000000000000000000000000000815250616641565b156154085761540382617b2e565b6154fd565b615447816040518060400160405280601081526020017f4144445f435552415445445f504f4f4c00000000000000000000000000000000815250616641565b1561545a5761545582617bf7565b6154fc565b615499816040518060400160405280601381526020017f52454d4f56455f435552415445445f504f4f4c00000000000000000000000000815250616641565b156154ac576154a782617cc9565b6154fb565b6154eb816040518060400160405280600781526020017f5245414c49534500000000000000000000000000000000000000000000000000815250616641565b156154fa576154f982617e28565b5b5b5b5b5b5b5b5b5b5b5b5b5b5b61551082617ec4565b505b50565b60025481565b60176020528060005260406000206000915054906101000a900473ffffffffffffffffffffffffffffffffffffffff1681565b6000601f600084815260200190815260200160002060008373ffffffffffffffffffffffffffffffffffffffff1673ffffffffffffffffffffffffffffffffffffffff16815260200190815260200160002060009054906101000a900460ff16905092915050565b601d6020528060005260406000206000915090505481565b6000600960009054906101000a900460ff161561568c57600960019054906101000a900473ffffffffffffffffffffffffffffffffffffffff1673ffffffffffffffffffffffffffffffffffffffff1663b93ec54b6040518163ffffffff1660e01b815260040160206040518083038186803b15801561564d57600080fd5b505afa158015615661573d6000803e3d6000fd5b505050506040513d601f19601f820116820180604052508101906156859190618854565b90506156b2565b600f60009054906101000a900473ffffffffffffffffffffffffffffffffffffffff1690505b90565b6000600960009054906101000a900460ff161561577357600960019054906101000a900473ffffffffffffffffffffffffffffffffffffffff1673ffffffffffffffffffffffffffffffffffffffff1663b99b0a0c6040518163ffffffff1660e01b815260040160206040518083038186803b15801561573457600080fd5b505afa158015615748573d6000803e3d6000fd5b505050506040513d601f19601f8201168201806040525081019061576c91906187d9565b9050615799565b600e60009054906101000a900473ffffffffffffffffffffffffffffffffffffffff1690505b90565b600080600e60009054906101000a900473ffffffffffffffffffffffffffffffffffffffff1673ffffffffffffffffffffffffffffffffffffffff1663abc764da6040518163ffffffff1660e01b815260040160006040518083038186803b15801561580757600080fd5b505afa15801561581b573d6000803e3d6000fd5b505050506040513d6000823e3d601f19601f8201168201806040525081019061584491906186cb565b905060008060005b8351811015615cd1576000600c60009054906101000a900473ffffffffffffffffffffffffffffffffffffffff1673ffffffffffffffffffffffffffffffffffffffff166389bbd6708684815181106158ce577f4e487b7100000000000000000000000000000000000000000000000000000000600052603260045260246000fd5b60200260200101516040518263ffffffff1660e01b81526004016158f29190619011565b60206040518083038186803b15801561590a57600080fd5b505afa15801561591e573d6000803e3d6000fd5b505050506040513d601f19601f820116820180604052508101906159429190618939565b600d60009054906101000a900473ffffffffffffffffffffffffffffffffffffffff1673ffffffffffffffffffffffffffffffffffffffff166389bbd6708785815181106159b9577f4e487b7100000000000000000000000000000000000000000000000000000000600052603260045260246000fd5b60200260200101516040518263ffffffff1660e01b81526004016159dd9190619011565b60206040518083038186803b1580156159f557600080fd5b505afa158015615a09573d6000803e3d6000fd5b505050506040513d601f19601f82011682018060405250810190615a2d9190618939565b615a37919061969c565b9050600b60009054906101000a900473ffffffffffffffffffffffffffffffffffffffff1673ffffffffffffffffffffffffffffffffffffffff1663ca2e5b65868481518110615ab0577f4e487b7100000000000000000000000000000000000000000000000000000000600052603260045260246000fd5b6020026020010151601e60008b81526020019081526020016000206000898781518110615b06577f4e487b7100000000000000000000000000000000000000000000000000000000600052603260045260246000fd5b602002602001015173ffffffffffffffffffffffffffffffffffffffff1673ffffffffffffffffffffffffffffffffffffffff168152602001908152602001600020546040518363ffffffff1660e01b8152600401615b6692919061908c565b60206040518083038186803b158015615b7e57600080fd5b505afa158015615b92573d6000803e3d6000fd5b505050506040513d601f19601f82011682018060405250810190615bb69190618939565b84615bc1919061969c565b9350600b60009054906101000a900473ffffffffffffffffffffffffffffffffffffffff1673ffffffffffffffffffffffffffffffffffffffff1663ca2e5b65868481518110615c3a577f4e487b7100000000000000000000000000000000000000000000000000000000600052603260045260246000fd5b6020026020010151836040518363ffffffff1660e01b8152600401615c6092919061908c565b60206040518083038186803b158015615c7857600080fd5b505afa158015615c8c573d6000803e3d6000fd5b505050506040513d601f19601f82011682018060405250810190615cb09190618939565b83615cbb919061969c565b9250508080615cc990619a8e565b91505061584c565b506000600282615ce191906196f2565b9050808311945050505050919050565b60186020528060005260406000206000915090508054615d1090619a2b565b80601f0160208091040260200160405190810160405280929190818152602001828054615d3c90619a2b565b8015615d895780601f10615d5e57610100808354040283529160200191615d89565b820191906000526020600020905b815481529060010190602001808311615d6c57829003601f168201915b505050505081565b600160009054906101000a900473ffffffffffffffffffffffffffffffffffffffff1681565b6000615dc16166ec565b9050615dcb616945565b5081601860008381526020019081526020016000209080519060200190615df392919061819b565b50803373ffffffffffffffffffffffffffffffffffffffff167f8d500fcad86fc64a281b94ef64d6d66acbfc6862aa4ff2ee5fbbfb40736e803e84604051615e3b91906191fa565b60405180910390a35050565b600160159054906101000a900460ff1681565b7f000000000000000000000000000000000000000000000000000000000000000081565b6000600960009054906101000a900460ff1615615f3c57600960019054906101000a900473ffffffffffffffffffffffffffffffffffffffff1673ffffffffffffffffffffffffffffffffffffffff1663f301e7816040518163ffffffff1660e01b815260040160206040518083038186803b158015615efd57600080fd5b505afa158015615f11573d6000803e3d6000fd5b505050506040513d601f19601f82011682018060405250810190615f3591906187b0565b9050615f62565b601260009054906101000a900473ffffffffffffffffffffffffffffffffffffffff1690505b90565b600080600e60009054906101000a900473ffffffffffffffffffffffffffffffffffffffff1673ffffffffffffffffffffffffffffffffffffffff1663abc764da6040518163ffffffff1660e01b815260040160006040518083038186803b158015615fd057600080fd5b505afa158015615fe4573d6000803e3d6000fd5b505050506040513d6000823e3d601f19601f8201168201806040525081019061600d91906186cb565b905060005b81518110156162cc576000600c60009054906101000a900473ffffffffffffffffffffffffffffffffffffffff1673ffffffffffffffffffffffffffffffffffffffff1663aa9fd374848481518110616094577f4e487b7100000000000000000000000000000000000000000000000000000000600052603260045260246000fd5b6020026020010151336040518363ffffffff1660e01b81526004016160ba92919061902c565b60206040518083038186803b1580156160d257600080fd5b505afa1580156160e6573d6000803e3d6000fd5b505050506040513d601f19601f8201168201806040525081019061610a9190618939565b600d60009054906101000a900473ffffffffffffffffffffffffffffffffffffffff1673ffffffffffffffffffffffffffffffffffffffff1663aa9fd374858581518110616181577f4e487b7100000000000000000000000000000000000000000000000000000000600052603260045260246000fd5b6020026020010151336040518363ffffffff1660e01b81526004016161a792919061902c565b60206040518083038186803b1580156161bf57600080fd5b505afa1580156161d3573d6000803e3d6000fd5b505050506040513d601f19601f820116820180604052508101906161f79190618939565b616201919061969c565b905060008111156162b85780601e6000878152602001908152602001600020600085858151811061625b577f4e487b7100000000000000000000000000000000000000000000000000000000600052603260045260246000fd5b602002602001015173ffffffffffffffffffffffffffffffffffffffff1673ffffffffffffffffffffffffffffffffffffffff16815260200190815260200160002060008282546162ac919061977d565b92505081905550600193505b5080806162c490619a8e565b915050616012565b5050919050565b600080600e60009054906101000a900473ffffffffffffffffffffffffffffffffffffffff1673ffffffffffffffffffffffffffffffffffffffff1663abc764da6040518163ffffffff1660e01b815260040160006040518083038186803b15801561633e57600080fd5b505afa158015616352573d6000803e3d6000fd5b505050506040513d6000823e3d601f19601f8201168201806040525081019061637b91906186cb565b905060005b815181101561663a576000600c60009054906101000a900473ffffffffffffffffffffffffffffffffffffffff1673ffffffffffffffffffffffffffffffffffffffff1663aa9fd374848481518110616402577f4e487b7100000000000000000000000000000000000000000000000000000000600052603260045260246000fd5b6020026020010151336040518363ffffffff1660e01b815260040161642892919061902c565b60206040518083038186803b15801561644057600080fd5b505afa158015616454573d6000803e3d6000fd5b505050506040513d601f19601f820116820180604052508101906164789190618939565b600d60009054906101000a900473ffffffffffffffffffffffffffffffffffffffff1673ffffffffffffffffffffffffffffffffffffffff1663aa9fd3748585815181106164ef577f4e487b7100000000000000000000000000000000000000000000000000000000600052603260045260246000fd5b6020026020010151336040518363ffffffff1660e01b815260040161651592919061902c565b60206040518083038186803b15801561652d57600080fd5b505afa158015616541573d6000803e3d6000fd5b505050506040513d601f19601f820116820180604052508101906165659190618939565b61656f919061969c565b905060008111156166265780601e600087815260200190815260200160002060008585815181106165c9577f4e487b7100000000000000000000000000000000000000000000000000000000600052603260045260246000fd5b602002602001015173ffffffffffffffffffffffffffffffffffffffff1673ffffffffffffffffffffffffffffffffffffffff168152602001908152602001600020600082825461661a919061969c565b92505081905550600193505b50808061663290619a8e565b915050616380565b5050919050565b60006002826040516166539190618ffa565b602060405180830381855afa158015616670573d6000803e3d6000fd5b5050506040513d601f19601f820116820180604052508101906166939190618735565b6002846040516166a39190618ffa565b602060405180830381855afa1580156166c0573d6000803e3d6000fd5b5050506040513d601f19601f820116820180604052508101906166e39190618735565b14905092915050565b6000600160149054906101000a900460ff161561673e576040517f08c379a00000000000000000000000000000000000000000000000000000000081526004016167359061923c565b60405180910390fd5b600160159054906101000a900460ff1661678d576040517f08c379a00000000000000000000000000000000000000000000000000000000081526004016167849061925c565b60405180910390fd5b60011515601060009054906101000a900473ffffffffffffffffffffffffffffffffffffffff1673ffffffffffffffffffffffffffffffffffffffff1663194e22ce6040518163ffffffff1660e01b8152600401602060405180830381600087803b1580156167fb57600080fd5b505af115801561680f573d6000803e3d6000fd5b505050506040513d601f19601f82011682018060405250810190616833919061870c565b15151415616876576040517f08c379a000000000000000000000000000000000000000000000000000000000815260040161686d906193fc565b60405180910390fd5b6000600754905060001515601c600083815260200190815260200160002060009054906101000a900460ff161515146168e4576040517f08c379a00000000000000000000000000000000000000000000000000000000081526004016168db9061941c565b60405180910390fd5b6001816168f1919061969c565b9050806007819055506001601c600083815260200190815260200160002060006101000a81548160ff02191690831515021790555042601d6000838152602001908152602001600020819055508091505090565b60006169aa7f000000000000000000000000000000000000000000000000000000000000000033601060009054906101000a900473ffffffffffffffffffffffffffffffffffffffff16670de0b6b3a76400006006546169a59190619723565b6169b1565b6001905090565b6000808573ffffffffffffffffffffffffffffffffffffffff166323b872dd8686866040516024016169e593929190619055565b6040516020818303038152906040529060e01b6020820180517bffffffffffffffffffffffffffffffffffffffffffffffffffffffff8381831617835250505050604051616a339190618ffa565b6000604051808303816000865af19150503d8060008114616a70576040519150601f19603f3d011682016040523d82523d6000602084013e616a75565b606091505b5091509150818015616aa35750600081511480616aa2575080806020019051810190616aa1919061870c565b5b5b616ae2576040517f08c379a0000000000000000000000000000000000000000000000000000000008152600401616ad99061943c565b60405180910390fd5b505050505050565b6001601a600084815260200190815260200160002060006101000a81548160ff021916908315150217905550426019600084815260200190815260200160002081905550813373ffffffffffffffffffffffffffffffffffffffff167f0f36aea5066f9f90a999260fe4ce8d7713f7f07f5ae61bf36d73cc51170a3a9e60025442616b75919061969c565b84604051616b84929190619502565b60405180910390a35050565b600060026000541415616bd8576040517f08c379a0000000000000000000000000000000000000000000000000000000008152600401616bcf9061945c565b60405180910390fd5b60026000819055506a02116545850052128000007f000000000000000000000000000000000000000000000000000000000000000073ffffffffffffffffffffffffffffffffffffffff1663dd62ed3e30600a60009054906101000a900473ffffffffffffffffffffffffffffffffffffffff166040518363ffffffff1660e01b8152600401616c6992919061902c565b60206040518083038186803b158015616c8157600080fd5b505afa158015616c95573d6000803e3d6000fd5b505050506040513d601f19601f82011682018060405250810190616cb99190618939565b1015616e2d577f000000000000000000000000000000000000000000000000000000000000000073ffffffffffffffffffffffffffffffffffffffff1663095ea7b3600a60009054906101000a900473ffffffffffffffffffffffffffffffffffffffff167f000000000000000000000000000000000000000000000000000000000000000073ffffffffffffffffffffffffffffffffffffffff166318160ddd6040518163ffffffff1660e01b815260040160206040518083038186803b158015616d8457600080fd5b505afa158015616d98573d6000803e3d6000fd5b505050506040513d601f19601f82011682018060405250810190616dbc9190618939565b6040518363ffffffff1660e01b8152600401616dd992919061908c565b602060405180830381600087803b158015616df357600080fd5b505af1158015616e07573d6000803e3d6000fd5b505050506040513d601f19601f82011682018060405250810190616e2b919061870c565b505b600073ffffffffffffffffffffffffffffffffffffffff168373ffffffffffffffffffffffffffffffffffffffff161415616ffd57348214616e6e57600080fd5b6000600b60009054906101000a900473ffffffffffffffffffffffffffffffffffffffff1673ffffffffffffffffffffffffffffffffffffffff1663b80e44b885856040518363ffffffff1660e01b8152600401616ecd92919061908c565b60206040518083038186803b158015616ee557600080fd5b505afa158015616ef9573d6000803e3d6000fd5b505050506040513d601f19601f82011682018060405250810190616f1d9190618939565b9050600a60009054906101000a900473ffffffffffffffffffffffffffffffffffffffff1673ffffffffffffffffffffffffffffffffffffffff166393cac68584858488600c60009054906101000a900473ffffffffffffffffffffffffffffffffffffffff166040518663ffffffff1660e01b8152600401616fa3949392919061955b565b6020604051808303818588803b158015616fbc57600080fd5b505af1158015616fd0573d6000803e3d6000fd5b50505050506040513d601f19601f82011682018060405250810190616ff59190618939565b915050617409565b617009833330856169b1565b60008373ffffffffffffffffffffffffffffffffffffffff166370a08231306040518263ffffffff1660e01b81526004016170449190619011565b60206040518083038186803b15801561705c57600080fd5b505afa158015617070573d6000803e3d6000fd5b505050506040513d601f19601f820116820180604052508101906170949190618939565b90506000600b60009054906101000a900473ffffffffffffffffffffffffffffffffffffffff1673ffffffffffffffffffffffffffffffffffffffff1663b80e44b886846040518363ffffffff1660e01b81526004016170f592919061908c565b60206040518083038186803b15801561710d57600080fd5b505afa158015617121573d6000803e3d6000fd5b505050506040513d601f19601f820116820180604052508101906171459190618939565b9050818573ffffffffffffffffffffffffffffffffffffffff1663dd62ed3e30600a60009054906101000a900473ffffffffffffffffffffffffffffffffffffffff166040518363ffffffff1660e01b81526004016171a592919061902c565b60206040518083038186803b1580156171bd57600080fd5b505afa1580156171d1573d6000803e3d6000fd5b505050506040513d601f19601f820116820180604052508101906171f59190618939565b101561732f5760008573ffffffffffffffffffffffffffffffffffffffff166318160ddd6040518163ffffffff1660e01b815260040160206040518083038186803b15801561724357600080fd5b505afa158015617257573d6000803e3d6000fd5b505050506040513d601f19601f8201168201806040525081019061727b9190618939565b90508573ffffffffffffffffffffffffffffffffffffffff1663095ea7b3600a60009054906101000a900473ffffffffffffffffffffffffffffffffffffffff16836040518363ffffffff1660e01b81526004016172da92919061908c565b602060405180830381600087803b1580156172f457600080fd5b505af1158015617308573d6000803e3d6000fd5b505050506040513d601f19601f8201168201806040525081019061732c919061870c565b50505b600a60009054906101000a900473ffffffffffffffffffffffffffffffffffffffff1673ffffffffffffffffffffffffffffffffffffffff166393cac685838388600c60009054906101000a900473ffffffffffffffffffffffffffffffffffffffff166040518563ffffffff1660e01b81526004016173b2949392919061955b565b602060405180830381600087803b1580156173cc57600080fd5b505af11580156173e0573d6000803e3d6000fd5b505050506040513d601f19601f820116820180604052508101906174049190618939565b925050505b600160008190555092915050565b60006017600083815260200190815260200160002060009054906101000a900473ffffffffffffffffffffffffffffffffffffffff16905080600960016101000a81548173ffffffffffffffffffffffffffffffffffffffff021916908373ffffffffffffffffffffffffffffffffffffffff1602179055507f000000000000000000000000000000000000000000000000000000000000000073ffffffffffffffffffffffffffffffffffffffff16631d007f5f826040518263ffffffff1660e01b81526004016174e99190619011565b600060405180830381600087803b15801561750357600080fd5b505af1158015617517573d6000803e3d6000fd5b505050506001600960006101000a81548160ff0219169083151502179055505050565b60006017600083815260200190815260200160002060009054906101000a900473ffffffffffffffffffffffffffffffffffffffff16905080600a60006101000a81548173ffffffffffffffffffffffffffffffffffffffff021916908373ffffffffffffffffffffffffffffffffffffffff1602179055505050565b60006017600083815260200190815260200160002060009054906101000a900473ffffffffffffffffffffffffffffffffffffffff16905080600b60006101000a81548173ffffffffffffffffffffffffffffffffffffffff021916908373ffffffffffffffffffffffffffffffffffffffff1602179055505050565b60006017600083815260200190815260200160002060009054906101000a900473ffffffffffffffffffffffffffffffffffffffff16905060007f000000000000000000000000000000000000000000000000000000000000000073ffffffffffffffffffffffffffffffffffffffff166370a08231601060009054906101000a900473ffffffffffffffffffffffffffffffffffffffff166040518263ffffffff1660e01b81526004016176e99190619011565b60206040518083038186803b15801561770157600080fd5b505afa158015617715573d6000803e3d6000fd5b505050506040513d601f19601f820116820180604052508101906177399190618939565b9050601060009054906101000a900473ffffffffffffffffffffffffffffffffffffffff1673ffffffffffffffffffffffffffffffffffffffff16637d458baa82846040518363ffffffff1660e01b81526004016177989291906194d9565b600060405180830381600087803b1580156177b257600080fd5b505af11580156177c6573d6000803e3d6000fd5b5050505081601060006101000a81548173ffffffffffffffffffffffffffffffffffffffff021916908373ffffffffffffffffffffffffffffffffffffffff160217905550505050565b7f000000000000000000000000000000000000000000000000000000000000000073ffffffffffffffffffffffffffffffffffffffff1663fe1fa8fa6040518163ffffffff1660e01b8152600401600060405180830381600087803b15801561787857600080fd5b505af115801561788c573d6000803e3d6000fd5b50505050565b600060166000838152602001908152602001600020549050806002819055505050565b600060166000838152602001908152602001600020549050806004819055505050565b60006016600083815260200190815260200160002054905060006017600084815260200190815260200160002060009054906101000a900473ffffffffffffffffffffffffffffffffffffffff169050601060009054906101000a900473ffffffffffffffffffffffffffffffffffffffff1673ffffffffffffffffffffffffffffffffffffffff16637d458baa83836040518363ffffffff1660e01b81526004016179859291906194d9565b600060405180830381600087803b15801561799f57600080fd5b505af11580156179b3573d6000803e3d6000fd5b50505050505050565b60006a021165458500521280000090507f000000000000000000000000000000000000000000000000000000000000000073ffffffffffffffffffffffffffffffffffffffff1663d01f6fba82306040518363ffffffff1660e01b8152600401617a279291906194d9565b600060405180830381600087803b158015617a4157600080fd5b505af1158015617a55573d6000803e3d6000fd5b5050505050565b60006017600083815260200190815260200160002060009054906101000a900473ffffffffffffffffffffffffffffffffffffffff169050617a9d82617ec4565b600c60009054906101000a900473ffffffffffffffffffffffffffffffffffffffff1673ffffffffffffffffffffffffffffffffffffffff16639cd99aa2826040518263ffffffff1660e01b8152600401617af89190619011565b600060405180830381600087803b158015617b1257600080fd5b505af1158015617b26573d6000803e3d6000fd5b505050505050565b60006017600083815260200190815260200160002060009054906101000a900473ffffffffffffffffffffffffffffffffffffffff169050600c60009054906101000a900473ffffffffffffffffffffffffffffffffffffffff1673ffffffffffffffffffffffffffffffffffffffff1663db634d7c826040518263ffffffff1660e01b8152600401617bc19190619011565b600060405180830381600087803b158015617bdb57600080fd5b505af1158015617bef573d6000803e3d6000fd5b505050505050565b60006017600083815260200190815260200160002060009054906101000a900473ffffffffffffffffffffffffffffffffffffffff169050617c3882617ec4565b600e60009054906101000a900473ffffffffffffffffffffffffffffffffffffffff1673ffffffffffffffffffffffffffffffffffffffff16632b2260a8826040518263ffffffff1660e01b8152600401617c939190619011565b600060405180830381600087803b158015617cad57600080fd5b505af1158015617cc1573d6000803e3d6000fd5b505050505050565b60006017600083815260200190815260200160002060009054906101000a900473ffffffffffffffffffffffffffffffffffffffff169050617d0a82617ec4565b600c60009054906101000a900473ffffffffffffffffffffffffffffffffffffffff1673ffffffffffffffffffffffffffffffffffffffff1663db634d7c826040518263ffffffff1660e01b8152600401617d659190619011565b600060405180830381600087803b158015617d7f57600080fd5b505af1158015617d93573d6000803e3d6000fd5b50505050600e60009054906101000a900473ffffffffffffffffffffffffffffffffffffffff1673ffffffffffffffffffffffffffffffffffffffff16637ca51fbf826040518263ffffffff1660e01b8152600401617df29190619011565b600060405180830381600087803b158015617e0c57600080fd5b505af1158015617e20573d6000803e3d6000fd5b505050505050565b60006017600083815260200190815260200160002060009054906101000a900473ffffffffffffffffffffffffffffffffffffffff1690508073ffffffffffffffffffffffffffffffffffffffff1663224b2a5b6040518163ffffffff1660e01b8152600401600060405180830381600087803b158015617ea857600080fd5b505af1158015617ebc573d6000803e3d6000fd5b505050505050565b6000601860008381526020019081526020016000208054617ee490619a2b565b80601f0160208091040260200160405190810160405280929190818152602001828054617f1090619a2b565b8015617f5d5780601f10617f3257610100808354040283529160200191617f5d565b820191906000526020600020905b815481529060010190602001808311617f4057829003601f168201915b505050505090506000600e60009054906101000a900473ffffffffffffffffffffffffffffffffffffffff1673ffffffffffffffffffffffffffffffffffffffff1663abc764da6040518163ffffffff1660e01b815260040160006040518083038186803b158015617fce57600080fd5b505afa158015617fe2573d6000803e3d6000fd5b505050506040513d6000823e3d601f19601f8201168201806040525081019061800b91906186cb565b905060005b81518110156180c2576000601e60008681526020019081526020016000206000848481518110618069577f4e487b7100000000000000000000000000000000000000000000000000000000600052603260045260246000fd5b602002602001015173ffffffffffffffffffffffffffffffffffffffff1673ffffffffffffffffffffffffffffffffffffffff1681526020019081526020016000208190555080806180ba90619a8e565b915050618010565b506001601b600085815260200190815260200160002060006101000a81548160ff0219169083151502179055506000601a600085815260200190815260200160002060006101000a81548160ff0219169083151502179055506000601c600085815260200190815260200160002060006101000a81548160ff021916908315150217905550823373ffffffffffffffffffffffffffffffffffffffff167ffdbe656509abcebb25a94a9630376c43df21fd5f51077a0c0e20965cf5a023278460405161818e91906191fa565b60405180910390a3505050565b8280546181a790619a2b565b90600052602060002090601f0160209004810192826181c95760008555618210565b82601f106181e257805160ff1916838001178555618210565b82800160010185558215618210579182015b8281111561820f5782518255916020019190600101906181f4565b5b50905061821d9190618290565b5090565b6040518061014001604052806000815260200160608152602001600081526020016000815260200160001515815260200160001515815260200160008152602001600073ffffffffffffffffffffffffffffffffffffffff168152602001600015158152602001600081525090565b5b808211156182a9576000816000905550600101618291565b5090565b60006182c06182bb846195fc565b6195d7565b905080838252602082019050828560208602820111156182df57600080fd5b60005b8581101561830f57816182f5888261836c565b8452602084019350602083019250506001810190506182e2565b5050509392505050565b600061832c61832784619628565b6195d7565b90508281526020810184848401111561834457600080fd5b61834f8482856199e9565b509392505050565b60008135905061836681619efe565b92915050565b60008151905061837b81619efe565b92915050565b600082601f83011261839257600080fd5b81516183a28482602086016182ad565b91505092915050565b6000813590506183ba81619f15565b92915050565b6000815190506183cf81619f15565b92915050565b6000815190506183e481619f2c565b92915050565b6000815190506183f981619f43565b92915050565b60008151905061840e81619f5a565b92915050565b60008151905061842381619f71565b92915050565b60008151905061843881619f88565b92915050565b60008151905061844d81619f9f565b92915050565b60008151905061846281619fb6565b92915050565b60008151905061847781619fcd565b92915050565b60008151905061848c81619fe4565b92915050565b6000815190506184a181619ffb565b92915050565b600082601f8301126184b857600080fd5b81356184c8848260208601618319565b91505092915050565b6000813590506184e08161a012565b92915050565b6000815190506184f58161a012565b92915050565b60006020828403121561850d57600080fd5b600061851b84828501618357565b91505092915050565b60006020828403121561853657600080fd5b60006185448482850161836c565b91505092915050565b6000806040838503121561856057600080fd5b600061856e85828601618357565b925050602061857f85828601618357565b9150509250929050565b60008060006060848603121561859e57600080fd5b60006185ac86828701618357565b93505060206185bd86828701618357565b92505060406185ce86828701618357565b9150509250925092565b600080600080608085870312156185ee57600080fd5b60006185fc87828801618357565b945050602061860d87828801618357565b935050604061861e87828801618357565b925050606061862f87828801618357565b91505092959194509250565b6000806040838503121561864e57600080fd5b600061865c85828601618357565b925050602083013567ffffffffffffffff81111561867957600080fd5b618685858286016184a7565b9150509250929050565b600080604083850312156186a257600080fd5b60006186b085828601618357565b92505060206186c1858286016184d1565b9150509250929050565b6000602082840312156186dd57600080fd5b600082015167ffffffffffffffff8111156186f757600080fd5b61870384828501618381565b91505092915050565b60006020828403121561871e57600080fd5b600061872c848285016183c0565b91505092915050565b60006020828403121561874757600080fd5b6000618755848285016183d5565b91505092915050565b60006020828403121561877057600080fd5b600061877e848285016183ea565b91505092915050565b60006020828403121561879957600080fd5b60006187a7848285016183ff565b91505092915050565b6000602082840312156187c257600080fd5b60006187d084828501618414565b91505092915050565b6000602082840312156187eb57600080fd5b60006187f984828501618429565b91505092915050565b60006020828403121561881457600080fd5b60006188228482850161843e565b91505092915050565b60006020828403121561883d57600080fd5b600061884b84828501618453565b91505092915050565b60006020828403121561886657600080fd5b600061887484828501618468565b91505092915050565b60006020828403121561888f57600080fd5b600061889d8482850161847d565b91505092915050565b6000602082840312156188b857600080fd5b60006188c684828501618492565b91505092915050565b6000602082840312156188e157600080fd5b600082013567ffffffffffffffff8111156188fb57600080fd5b618907848285016184a7565b91505092915050565b60006020828403121561892257600080fd5b6000618930848285016184d1565b91505092915050565b60006020828403121561894b57600080fd5b6000618959848285016184e6565b91505092915050565b6000806040838503121561897557600080fd5b6000618983858286016184d1565b925050602061899485828601618357565b9150509250929050565b600080604083850312156189b157600080fd5b60006189bf858286016184d1565b925050602083013567ffffffffffffffff8111156189dc57600080fd5b6189e8858286016184a7565b9150509250929050565b60008060408385031215618a0557600080fd5b6000618a13858286016184e6565b9250506020618a24858286016184e6565b9150509250929050565b60008060008060808587031215618a4457600080fd5b6000618a52878288016184d1565b9450506020618a63878288016184d1565b9350506040618a74878288016183ab565b9250506060618a85878288016184d1565b91505092959194509250565b600080600060608486031215618aa657600080fd5b6000618ab4868287016184d1565b9350506020618ac5868287016184d1565b9250506040618ad6868287016184d1565b9150509250925092565b618ae9816197b1565b82525050565b618af8816197b1565b82525050565b618b07816197c3565b82525050565b618b16816197c3565b82525050565b6000618b2782619659565b618b31818561966f565b9350618b418185602086016199f8565b80840191505092915050565b618b56816198a5565b82525050565b618b65816198c9565b82525050565b618b74816198ed565b82525050565b618b8381619911565b82525050565b618b9281619935565b82525050565b618ba181619959565b82525050565b618bb08161997d565b82525050565b618bbf816199a1565b82525050565b618bce816199c5565b82525050565b6000618bdf82619664565b618be9818561967a565b9350618bf98185602086016199f8565b618c0281619b93565b840191505092915050565b6000618c1882619664565b618c22818561968b565b9350618c328185602086016199f8565b618c3b81619b93565b840191505092915050565b6000618c5360078361968b565b9150618c5e82619ba4565b602082019050919050565b6000618c7660078361968b565b9150618c8182619bcd565b602082019050919050565b6000618c9960088361968b565b9150618ca482619bf6565b602082019050919050565b6000618cbc60078361968b565b9150618cc782619c1f565b602082019050919050565b6000618cdf60058361968b565b9150618cea82619c48565b602082019050919050565b6000618d0260058361968b565b9150618d0d82619c71565b602082019050919050565b6000618d25600a8361968b565b9150618d3082619c9a565b602082019050919050565b6000618d4860088361968b565b9150618d5382619cc3565b602082019050919050565b6000618d6b600b8361968b565b9150618d7682619cec565b602082019050919050565b6000618d8e60068361968b565b9150618d9982619d15565b602082019050919050565b6000618db160088361968b565b9150618dbc82619d3e565b602082019050919050565b6000618dd460098361968b565b9150618ddf82619d67565b602082019050919050565b6000618df760068361968b565b9150618e0282619d90565b602082019050919050565b6000618e1a60078361968b565b9150618e2582619db9565b602082019050919050565b6000618e3d60088361968b565b9150618e4882619de2565b602082019050919050565b6000618e6060058361968b565b9150618e6b82619e0b565b602082019050919050565b6000618e8360058361968b565b9150618e8e82619e34565b602082019050919050565b6000618ea660248361968b565b9150618eb182619e5d565b604082019050919050565b6000618ec9601f8361968b565b9150618ed482619eac565b602082019050919050565b6000618eec60058361968b565b9150618ef782619ed5565b602082019050919050565b600061014083016000830151618f1b6000860182618fdc565b5060208301518482036020860152618f338282618bd4565b9150506040830151618f486040860182618fdc565b506060830151618f5b6060860182618fdc565b506080830151618f6e6080860182618afe565b5060a0830151618f8160a0860182618afe565b5060c0830151618f9460c0860182618fdc565b5060e0830151618fa760e0860182618ae0565b50610100830151618fbc610100860182618afe565b50610120830151618fd1610120860182618fdc565b508091505092915050565b618fe58161989b565b82525050565b618ff48161989b565b82525050565b60006190068284618b1c565b915081905092915050565b60006020820190506190266000830184618aef565b92915050565b60006040820190506190416000830185618aef565b61904e6020830184618aef565b9392505050565b600060608201905061906a6000830186618aef565b6190776020830185618aef565b6190846040830184618feb565b949350505050565b60006040820190506190a16000830185618aef565b6190ae6020830184618feb565b9392505050565b60006060820190506190ca6000830186618aef565b6190d76020830185618feb565b6190e46040830184618aef565b949350505050565b60006020820190506191016000830184618b0d565b92915050565b600060208201905061911c6000830184618b4d565b92915050565b60006020820190506191376000830184618b5c565b92915050565b60006020820190506191526000830184618b6b565b92915050565b600060208201905061916d6000830184618b7a565b92915050565b60006020820190506191886000830184618b89565b92915050565b60006020820190506191a36000830184618b98565b92915050565b60006020820190506191be6000830184618ba7565b92915050565b60006020820190506191d96000830184618bb6565b92915050565b60006020820190506191f46000830184618bc5565b92915050565b600060208201905081810360008301526192148184618c0d565b905092915050565b6000602082019050818103600083015261923581618c46565b9050919050565b6000602082019050818103600083015261925581618c69565b9050919050565b6000602082019050818103600083015261927581618c8c565b9050919050565b6000602082019050818103600083015261929581618caf565b9050919050565b600060208201905081810360008301526192b581618cd2565b9050919050565b600060208201905081810360008301526192d581618cf5565b9050919050565b600060208201905081810360008301526192f581618d18565b9050919050565b6000602082019050818103600083015261931581618d3b565b9050919050565b6000602082019050818103600083015261933581618d5e565b9050919050565b6000602082019050818103600083015261935581618d81565b9050919050565b6000602082019050818103600083015261937581618da4565b9050919050565b6000602082019050818103600083015261939581618dc7565b9050919050565b600060208201905081810360008301526193b581618dea565b9050919050565b600060208201905081810360008301526193d581618e0d565b9050919050565b600060208201905081810360008301526193f581618e30565b9050919050565b6000602082019050818103600083015261941581618e53565b9050919050565b6000602082019050818103600083015261943581618e76565b9050919050565b6000602082019050818103600083015261945581618e99565b9050919050565b6000602082019050818103600083015261947581618ebc565b9050919050565b6000602082019050818103600083015261949581618edf565b9050919050565b600060208201905081810360008301526194b68184618f02565b905092915050565b60006020820190506194d36000830184618feb565b92915050565b60006040820190506194ee6000830185618feb565b6194fb6020830184618aef565b9392505050565b60006040820190506195176000830185618feb565b81810360208301526195298184618c0d565b90509392505050565b60006040820190506195476000830185618feb565b6195546020830184618feb565b9392505050565b60006080820190506195706000830187618feb565b61957d6020830186618feb565b61958a6040830185618aef565b6195976060830184618aef565b95945050505050565b60006060820190506195b56000830186618feb565b6195c26020830185618feb565b6195cf6040830184618feb565b949350505050565b60006195e16195f2565b90506195ed8282619a5d565b919050565b6000604051905090565b600067ffffffffffffffff82111561961757619616619b64565b5b602082029050602081019050919050565b600067ffffffffffffffff82111561964357619642619b64565b5b61964c82619b93565b9050602081019050919050565b600081519050919050565b600081519050919050565b600081905092915050565b600082825260208201905092915050565b600082825260208201905092915050565b60006196a78261989b565b91506196b28361989b565b9250827fffffffffffffffffffffffffffffffffffffffffffffffffffffffffffffffff038211156196e7576196e6619ad7565b5b828201905092915050565b60006196fd8261989b565b91506197088361989b565b92508261971857619717619b06565b5b828204905092915050565b600061972e8261989b565b91506197398361989b565b9250817fffffffffffffffffffffffffffffffffffffffffffffffffffffffffffffffff048311821515161561977257619771619ad7565b5b828202905092915050565b60006197888261989b565b91506197938361989b565b9250828210156197a6576197a5619ad7565b5b828203905092915050565b60006197bc8261987b565b9050919050565b60008115159050919050565b6000819050919050565b60006197e4826197b1565b9050919050565b60006197f6826197b1565b9050919050565b6000619808826197b1565b9050919050565b600061981a826197b1565b9050919050565b600061982c826197b1565b9050919050565b600061983e826197b1565b9050919050565b6000619850826197b1565b9050919050565b6000619862826197b1565b9050919050565b6000619874826197b1565b9050919050565b600073ffffffffffffffffffffffffffffffffffffffff82169050919050565b6000819050919050565b60006198b0826198b7565b9050919050565b60006198c28261987b565b9050919050565b60006198d4826198db565b9050919050565b60006198e68261987b565b9050919050565b60006198f8826198ff565b9050919050565b600061990a8261987b565b9050919050565b600061991c82619923565b9050919050565b600061992e8261987b565b9050919050565b600061994082619947565b9050919050565b60006199528261987b565b9050919050565b60006199648261996b565b9050919050565b60006199768261987b565b9050919050565b60006199888261998f565b9050919050565b600061999a8261987b565b9050919050565b60006199ac826199b3565b9050919050565b60006199be8261987b565b9050919050565b60006199d0826199d7565b9050919050565b60006199e28261987b565b9050919050565b82818337600083830152505050565b60005b83811015619a165780820151818401526020810190506199fb565b83811115619a25576000848401525b50505050565b60006002820490506001821680619a4357607f821691505b60208210811415619a5757619a56619b35565b5b50919050565b619a6682619b93565b810181811067ffffffffffffffff82111715619a8557619a84619b64565b5b80604052505050565b6000619a998261989b565b91507fffffffffffffffffffffffffffffffffffffffffffffffffffffffffffffffff821415619acc57619acb619ad7565b5b600182019050919050565b7f4e487b7100000000000000000000000000000000000000000000000000000000600052601160045260246000fd5b7f4e487b7100000000000000000000000000000000000000000000000000000000600052601260045260246000fd5b7f4e487b7100000000000000000000000000000000000000000000000000000000600052602260045260246000fd5b7f4e487b7100000000000000000000000000000000000000000000000000000000600052604160045260246000fd5b6000601f19601f8301169050919050565b7f216c697374656400000000000000000000000000000000000000000000000000600082015250565b7f5245544952454400000000000000000000000000000000000000000000000000600082015250565b7f494e414354495645000000000000000000000000000000000000000000000000600082015250565b7f21414d4f554e5400000000000000000000000000000000000000000000000000600082015250565b7f564f544544000000000000000000000000000000000000000000000000000000600082015250565b7f214f50454e000000000000000000000000000000000000000000000000000000600082015250565b7f21656d697373696f6e7300000000000000000000000000000000000000000000600082015250565b7f21636f6f6c6f6666000000000000000000000000000000000000000000000000600082015250565b7f2166696e616c6973696e67000000000000000000000000000000000000000000600082015250565b7f21564f5445440000000000000000000000000000000000000000000000000000600082015250565b7f2163757261746564000000000000000000000000000000000000000000000000600082015250565b7f217472616e736665720000000000000000000000000000000000000000000000600082015250565b7f21706172616d0000000000000000000000000000000000000000000000000000600082015250565b7f21616d6f756e7400000000000000000000000000000000000000000000000000600082015250565b7f2161646472657373000000000000000000000000000000000000000000000000600082015250565b7f2153414645000000000000000000000000000000000000000000000000000000600082015250565b7f216f70656e000000000000000000000000000000000000000000000000000000600082015250565b7f5472616e7366657248656c7065723a205452414e534645525f46524f4d5f464160008201527f494c454400000000000000000000000000000000000000000000000000000000602082015250565b7f5265656e7472616e637947756172643a207265656e7472616e742063616c6c00600082015250565b7f2164617973000000000000000000000000000000000000000000000000000000600082015250565b619f07816197b1565b8114619f1257600080fd5b50565b619f1e816197c3565b8114619f2957600080fd5b50565b619f35816197cf565b8114619f4057600080fd5b50565b619f4c816197d9565b8114619f5757600080fd5b50565b619f63816197eb565b8114619f6e57600080fd5b50565b619f7a816197fd565b8114619f8557600080fd5b50565b619f918161980f565b8114619f9c57600080fd5b50565b619fa881619821565b8114619fb357600080fd5b50565b619fbf81619833565b8114619fca57600080fd5b50565b619fd681619845565b8114619fe157600080fd5b50565b619fed81619857565b8114619ff857600080fd5b50565b61a00481619869565b811461a00f57600080fd5b50565b61a01b8161989b565b811461a02657600080fd5b5056fea2646970667358221220efccf4023057586ea56199fd56ab54c42e922be2fd59efcf988b90c8f6c62ba164736f6c63430008030033",
  "linkReferences": {},
  "deployedLinkReferences": {}
}