{
  "_format": "hh-sol-artifact-1",
  "contractName": "Dao",
  "sourceName": "contracts/Dao.sol",
  "abi": [
    {
      "inputs": [
        {
          "internalType": "address",
          "name": "_base",
          "type": "address"
        }
      ],
      "stateMutability": "nonpayable",
      "type": "constructor"
    },
    {
      "anonymous": false,
      "inputs": [
        {
          "indexed": true,
          "internalType": "address",
          "name": "member",
          "type": "address"
        },
        {
          "indexed": true,
          "internalType": "uint256",
          "name": "oldProposalID",
          "type": "uint256"
        },
        {
          "indexed": false,
          "internalType": "uint256",
          "name": "oldVotes",
          "type": "uint256"
        },
        {
          "indexed": false,
          "internalType": "uint256",
          "name": "newVotes",
          "type": "uint256"
        },
        {
          "indexed": false,
          "internalType": "uint256",
          "name": "totalWeight",
          "type": "uint256"
        }
      ],
      "name": "CancelProposal",
      "type": "event"
    },
    {
      "anonymous": false,
      "inputs": [
        {
          "indexed": true,
          "internalType": "address",
          "name": "DAO",
          "type": "address"
        },
        {
          "indexed": true,
          "internalType": "address",
          "name": "asset",
          "type": "address"
        }
      ],
      "name": "DelistedAsset",
      "type": "event"
    },
    {
      "anonymous": false,
      "inputs": [
        {
          "indexed": true,
          "internalType": "address",
          "name": "owner",
          "type": "address"
        },
        {
          "indexed": false,
          "internalType": "uint256",
          "name": "depositAmount",
          "type": "uint256"
        },
        {
          "indexed": false,
          "internalType": "uint256",
          "name": "bondedLP",
          "type": "uint256"
        }
      ],
      "name": "DepositAsset",
      "type": "event"
    },
    {
      "anonymous": false,
      "inputs": [
        {
          "indexed": true,
          "internalType": "address",
          "name": "member",
          "type": "address"
        },
        {
          "indexed": true,
          "internalType": "uint256",
          "name": "proposalID",
          "type": "uint256"
        },
        {
          "indexed": false,
          "internalType": "uint256",
          "name": "votesCast",
          "type": "uint256"
        },
        {
          "indexed": false,
          "internalType": "uint256",
          "name": "totalWeight",
          "type": "uint256"
        },
        {
          "indexed": false,
          "internalType": "string",
          "name": "proposalType",
          "type": "string"
        }
      ],
      "name": "FinalisedProposal",
      "type": "event"
    },
    {
      "anonymous": false,
      "inputs": [
        {
          "indexed": true,
          "internalType": "address",
          "name": "DAO",
          "type": "address"
        },
        {
          "indexed": true,
          "internalType": "address",
          "name": "asset",
          "type": "address"
        }
      ],
      "name": "ListedAsset",
      "type": "event"
    },
    {
      "anonymous": false,
      "inputs": [
        {
          "indexed": true,
          "internalType": "address",
          "name": "member",
          "type": "address"
        },
        {
          "indexed": true,
          "internalType": "address",
          "name": "pool",
          "type": "address"
        },
        {
          "indexed": false,
          "internalType": "uint256",
          "name": "amount",
          "type": "uint256"
        }
      ],
      "name": "MemberDeposits",
      "type": "event"
    },
    {
      "anonymous": false,
      "inputs": [
        {
          "indexed": true,
          "internalType": "address",
          "name": "member",
          "type": "address"
        },
        {
          "indexed": true,
          "internalType": "address",
          "name": "pool",
          "type": "address"
        },
        {
          "indexed": false,
          "internalType": "uint256",
          "name": "balance",
          "type": "uint256"
        }
      ],
      "name": "MemberWithdraws",
      "type": "event"
    },
    {
      "anonymous": false,
      "inputs": [
        {
          "indexed": true,
          "internalType": "address",
          "name": "member",
          "type": "address"
        },
        {
          "indexed": true,
          "internalType": "uint256",
          "name": "proposalID",
          "type": "uint256"
        },
        {
          "indexed": false,
          "internalType": "string",
          "name": "proposalType",
          "type": "string"
        }
      ],
      "name": "NewProposal",
      "type": "event"
    },
    {
      "anonymous": false,
      "inputs": [
        {
          "indexed": true,
          "internalType": "address",
          "name": "member",
          "type": "address"
        },
        {
          "indexed": true,
          "internalType": "uint256",
          "name": "proposalID",
          "type": "uint256"
        },
        {
          "indexed": false,
          "internalType": "uint256",
          "name": "voteWeight",
          "type": "uint256"
        },
        {
          "indexed": false,
          "internalType": "uint256",
          "name": "totalVotes",
          "type": "uint256"
        },
        {
          "indexed": false,
          "internalType": "string",
          "name": "proposalType",
          "type": "string"
        }
      ],
      "name": "NewVote",
      "type": "event"
    },
    {
      "anonymous": false,
      "inputs": [
        {
          "indexed": true,
          "internalType": "address",
          "name": "member",
          "type": "address"
        },
        {
          "indexed": true,
          "internalType": "uint256",
          "name": "proposalID",
          "type": "uint256"
        },
        {
          "indexed": false,
          "internalType": "uint256",
          "name": "timeFinalised",
          "type": "uint256"
        },
        {
          "indexed": false,
          "internalType": "string",
          "name": "proposalType",
          "type": "string"
        }
      ],
      "name": "ProposalFinalising",
      "type": "event"
    },
    {
      "anonymous": false,
      "inputs": [
        {
          "indexed": true,
          "internalType": "address",
          "name": "member",
          "type": "address"
        },
        {
          "indexed": true,
          "internalType": "uint256",
          "name": "proposalID",
          "type": "uint256"
        },
        {
          "indexed": false,
          "internalType": "uint256",
          "name": "voteWeight",
          "type": "uint256"
        },
        {
          "indexed": false,
          "internalType": "uint256",
          "name": "totalVotes",
          "type": "uint256"
        },
        {
          "indexed": false,
          "internalType": "string",
          "name": "proposalType",
          "type": "string"
        }
      ],
      "name": "RemovedVote",
      "type": "event"
    },
    {
      "inputs": [],
      "name": "BASE",
      "outputs": [
        {
          "internalType": "address",
          "name": "",
          "type": "address"
        }
      ],
      "stateMutability": "view",
      "type": "function"
    },
    {
      "inputs": [],
      "name": "BONDVAULT",
      "outputs": [
        {
          "internalType": "contract iBONDVAULT",
          "name": "",
          "type": "address"
        }
      ],
      "stateMutability": "view",
      "type": "function"
    },
    {
      "inputs": [],
      "name": "DAO",
      "outputs": [
        {
          "internalType": "address",
          "name": "",
          "type": "address"
        }
      ],
      "stateMutability": "view",
      "type": "function"
    },
    {
      "inputs": [],
      "name": "DAOVAULT",
      "outputs": [
        {
          "internalType": "contract iDAOVAULT",
          "name": "",
          "type": "address"
        }
      ],
      "stateMutability": "view",
      "type": "function"
    },
    {
      "inputs": [],
      "name": "DEPLOYER",
      "outputs": [
        {
          "internalType": "address",
          "name": "",
          "type": "address"
        }
      ],
      "stateMutability": "view",
      "type": "function"
    },
    {
      "inputs": [],
      "name": "POOLFACTORY",
      "outputs": [
        {
          "internalType": "contract iPOOLFACTORY",
          "name": "",
          "type": "address"
        }
      ],
      "stateMutability": "view",
      "type": "function"
    },
    {
      "inputs": [],
      "name": "RESERVE",
      "outputs": [
        {
          "internalType": "contract iRESERVE",
          "name": "",
          "type": "address"
        }
      ],
      "stateMutability": "view",
      "type": "function"
    },
    {
      "inputs": [],
      "name": "ROUTER",
      "outputs": [
        {
          "internalType": "contract iROUTER",
          "name": "",
          "type": "address"
        }
      ],
      "stateMutability": "view",
      "type": "function"
    },
    {
      "inputs": [],
      "name": "SYNTHFACTORY",
      "outputs": [
        {
          "internalType": "contract iSYNTHFACTORY",
          "name": "",
          "type": "address"
        }
      ],
      "stateMutability": "view",
      "type": "function"
    },
    {
      "inputs": [],
      "name": "SYNTHVAULT",
      "outputs": [
        {
          "internalType": "contract iSYNTHVAULT",
          "name": "",
          "type": "address"
        }
      ],
      "stateMutability": "view",
      "type": "function"
    },
    {
      "inputs": [],
      "name": "UTILS",
      "outputs": [
        {
          "internalType": "contract iUTILS",
          "name": "",
          "type": "address"
        }
      ],
      "stateMutability": "view",
      "type": "function"
    },
    {
      "inputs": [],
      "name": "allListedAssets",
      "outputs": [
        {
          "internalType": "address[]",
          "name": "_allListedAssets",
          "type": "address[]"
        }
      ],
      "stateMutability": "view",
      "type": "function"
    },
    {
      "inputs": [
        {
          "internalType": "uint256",
          "name": "",
          "type": "uint256"
        }
      ],
      "name": "arrayMembers",
      "outputs": [
        {
          "internalType": "address",
          "name": "",
          "type": "address"
        }
      ],
      "stateMutability": "view",
      "type": "function"
    },
    {
      "inputs": [],
      "name": "assetListedCount",
      "outputs": [
        {
          "internalType": "uint256",
          "name": "count",
          "type": "uint256"
        }
      ],
      "stateMutability": "view",
      "type": "function"
    },
    {
      "inputs": [
        {
          "internalType": "address",
          "name": "asset",
          "type": "address"
        },
        {
          "internalType": "uint256",
          "name": "amount",
          "type": "uint256"
        }
      ],
      "name": "bond",
      "outputs": [
        {
          "internalType": "bool",
          "name": "success",
          "type": "bool"
        }
      ],
      "stateMutability": "payable",
      "type": "function"
    },
    {
      "inputs": [],
      "name": "bondingPeriodSeconds",
      "outputs": [
        {
          "internalType": "uint256",
          "name": "",
          "type": "uint256"
        }
      ],
      "stateMutability": "view",
      "type": "function"
    },
    {
      "inputs": [],
      "name": "burnBalance",
      "outputs": [
        {
          "internalType": "bool",
          "name": "",
          "type": "bool"
        }
      ],
      "stateMutability": "nonpayable",
      "type": "function"
    },
    {
      "inputs": [
        {
          "internalType": "address",
          "name": "bondedMember",
          "type": "address"
        },
        {
          "internalType": "address",
          "name": "asset",
          "type": "address"
        }
      ],
      "name": "calcClaimBondedLP",
      "outputs": [
        {
          "internalType": "uint256",
          "name": "",
          "type": "uint256"
        }
      ],
      "stateMutability": "nonpayable",
      "type": "function"
    },
    {
      "inputs": [
        {
          "internalType": "address",
          "name": "member",
          "type": "address"
        }
      ],
      "name": "calcCurrentReward",
      "outputs": [
        {
          "internalType": "uint256",
          "name": "",
          "type": "uint256"
        }
      ],
      "stateMutability": "view",
      "type": "function"
    },
    {
      "inputs": [
        {
          "internalType": "address",
          "name": "member",
          "type": "address"
        }
      ],
      "name": "calcReward",
      "outputs": [
        {
          "internalType": "uint256",
          "name": "",
          "type": "uint256"
        }
      ],
      "stateMutability": "view",
      "type": "function"
    },
    {
      "inputs": [],
      "name": "cancelProposal",
      "outputs": [],
      "stateMutability": "nonpayable",
      "type": "function"
    },
    {
      "inputs": [
        {
          "internalType": "uint256",
          "name": "bondingSeconds",
          "type": "uint256"
        }
      ],
      "name": "changeBondingPeriod",
      "outputs": [],
      "stateMutability": "nonpayable",
      "type": "function"
    },
    {
      "inputs": [
        {
          "internalType": "address",
          "name": "member",
          "type": "address"
        }
      ],
      "name": "claimAllForMember",
      "outputs": [
        {
          "internalType": "bool",
          "name": "",
          "type": "bool"
        }
      ],
      "stateMutability": "nonpayable",
      "type": "function"
    },
    {
      "inputs": [
        {
          "internalType": "address",
          "name": "asset",
          "type": "address"
        }
      ],
      "name": "claimForMember",
      "outputs": [
        {
          "internalType": "bool",
          "name": "",
          "type": "bool"
        }
      ],
      "stateMutability": "nonpayable",
      "type": "function"
    },
    {
      "inputs": [],
      "name": "coolOffPeriod",
      "outputs": [
        {
          "internalType": "uint256",
          "name": "",
          "type": "uint256"
        }
      ],
      "stateMutability": "view",
      "type": "function"
    },
    {
      "inputs": [],
      "name": "currentProposal",
      "outputs": [
        {
          "internalType": "uint256",
          "name": "",
          "type": "uint256"
        }
      ],
      "stateMutability": "view",
      "type": "function"
    },
    {
      "inputs": [],
      "name": "daoClaim",
      "outputs": [
        {
          "internalType": "uint256",
          "name": "",
          "type": "uint256"
        }
      ],
      "stateMutability": "view",
      "type": "function"
    },
    {
      "inputs": [],
      "name": "daoFee",
      "outputs": [
        {
          "internalType": "uint256",
          "name": "",
          "type": "uint256"
        }
      ],
      "stateMutability": "view",
      "type": "function"
    },
    {
      "inputs": [],
      "name": "daoHasMoved",
      "outputs": [
        {
          "internalType": "bool",
          "name": "",
          "type": "bool"
        }
      ],
      "stateMutability": "view",
      "type": "function"
    },
    {
      "inputs": [
        {
          "internalType": "address",
          "name": "asset",
          "type": "address"
        }
      ],
      "name": "delistBondAsset",
      "outputs": [],
      "stateMutability": "nonpayable",
      "type": "function"
    },
    {
      "inputs": [
        {
          "internalType": "address",
          "name": "pool",
          "type": "address"
        },
        {
          "internalType": "uint256",
          "name": "amount",
          "type": "uint256"
        }
      ],
      "name": "deposit",
      "outputs": [],
      "stateMutability": "nonpayable",
      "type": "function"
    },
    {
      "inputs": [
        {
          "internalType": "address",
          "name": "pool",
          "type": "address"
        },
        {
          "internalType": "uint256",
          "name": "amount",
          "type": "uint256"
        },
        {
          "internalType": "address",
          "name": "member",
          "type": "address"
        }
      ],
      "name": "depositLPForMember",
      "outputs": [],
      "stateMutability": "nonpayable",
      "type": "function"
    },
    {
      "inputs": [],
      "name": "erasToEarn",
      "outputs": [
        {
          "internalType": "uint256",
          "name": "",
          "type": "uint256"
        }
      ],
      "stateMutability": "view",
      "type": "function"
    },
    {
      "inputs": [],
      "name": "finaliseProposal",
      "outputs": [],
      "stateMutability": "nonpayable",
      "type": "function"
    },
    {
      "inputs": [
        {
          "internalType": "uint256",
          "name": "proposalID",
          "type": "uint256"
        }
      ],
      "name": "getProposalDetails",
      "outputs": [
        {
          "components": [
            {
              "internalType": "uint256",
              "name": "id",
              "type": "uint256"
            },
            {
              "internalType": "string",
              "name": "proposalType",
              "type": "string"
            },
            {
              "internalType": "uint256",
              "name": "votes",
              "type": "uint256"
            },
            {
              "internalType": "uint256",
              "name": "coolOffTime",
              "type": "uint256"
            },
            {
              "internalType": "bool",
              "name": "finalising",
              "type": "bool"
            },
            {
              "internalType": "bool",
              "name": "finalised",
              "type": "bool"
            },
            {
              "internalType": "uint256",
              "name": "param",
              "type": "uint256"
            },
            {
              "internalType": "address",
              "name": "proposedAddress",
              "type": "address"
            },
            {
              "internalType": "bool",
              "name": "open",
              "type": "bool"
            },
            {
              "internalType": "uint256",
              "name": "startTime",
              "type": "uint256"
            }
          ],
          "internalType": "struct Dao.ProposalDetails",
          "name": "proposalDetails",
          "type": "tuple"
        }
      ],
      "stateMutability": "view",
      "type": "function"
    },
    {
      "inputs": [],
      "name": "harvest",
      "outputs": [],
      "stateMutability": "nonpayable",
      "type": "function"
    },
    {
      "inputs": [
        {
          "internalType": "uint256",
          "name": "_proposalID",
          "type": "uint256"
        }
      ],
      "name": "hasMajority",
      "outputs": [
        {
          "internalType": "bool",
          "name": "",
          "type": "bool"
        }
      ],
      "stateMutability": "view",
      "type": "function"
    },
    {
      "inputs": [
        {
          "internalType": "uint256",
          "name": "_proposalID",
          "type": "uint256"
        }
      ],
      "name": "hasMinority",
      "outputs": [
        {
          "internalType": "bool",
          "name": "",
          "type": "bool"
        }
      ],
      "stateMutability": "view",
      "type": "function"
    },
    {
      "inputs": [
        {
          "internalType": "uint256",
          "name": "_proposalID",
          "type": "uint256"
        }
      ],
      "name": "hasQuorum",
      "outputs": [
        {
          "internalType": "bool",
          "name": "",
          "type": "bool"
        }
      ],
      "stateMutability": "view",
      "type": "function"
    },
    {
      "inputs": [
        {
          "internalType": "bytes",
          "name": "part1",
          "type": "bytes"
        },
        {
          "internalType": "bytes",
          "name": "part2",
          "type": "bytes"
        }
      ],
      "name": "isEqual",
      "outputs": [
        {
          "internalType": "bool",
          "name": "",
          "type": "bool"
        }
      ],
      "stateMutability": "pure",
      "type": "function"
    },
    {
      "inputs": [
        {
          "internalType": "address",
          "name": "",
          "type": "address"
        }
      ],
      "name": "isListed",
      "outputs": [
        {
          "internalType": "bool",
          "name": "",
          "type": "bool"
        }
      ],
      "stateMutability": "view",
      "type": "function"
    },
    {
      "inputs": [
        {
          "internalType": "address",
          "name": "",
          "type": "address"
        }
      ],
      "name": "isMember",
      "outputs": [
        {
          "internalType": "bool",
          "name": "",
          "type": "bool"
        }
      ],
      "stateMutability": "view",
      "type": "function"
    },
    {
      "inputs": [
        {
          "internalType": "address",
          "name": "asset",
          "type": "address"
        }
      ],
      "name": "listBondAsset",
      "outputs": [],
      "stateMutability": "nonpayable",
      "type": "function"
    },
    {
      "inputs": [],
      "name": "majorityFactor",
      "outputs": [
        {
          "internalType": "uint256",
          "name": "",
          "type": "uint256"
        }
      ],
      "stateMutability": "view",
      "type": "function"
    },
    {
      "inputs": [
        {
          "internalType": "address",
          "name": "",
          "type": "address"
        }
      ],
      "name": "mapMember_lastTime",
      "outputs": [
        {
          "internalType": "uint256",
          "name": "",
          "type": "uint256"
        }
      ],
      "stateMutability": "view",
      "type": "function"
    },
    {
      "inputs": [
        {
          "internalType": "uint256",
          "name": "",
          "type": "uint256"
        },
        {
          "internalType": "address",
          "name": "",
          "type": "address"
        }
      ],
      "name": "mapPIDMember_votes",
      "outputs": [
        {
          "internalType": "uint256",
          "name": "",
          "type": "uint256"
        }
      ],
      "stateMutability": "view",
      "type": "function"
    },
    {
      "inputs": [
        {
          "internalType": "uint256",
          "name": "",
          "type": "uint256"
        }
      ],
      "name": "mapPID_address",
      "outputs": [
        {
          "internalType": "address",
          "name": "",
          "type": "address"
        }
      ],
      "stateMutability": "view",
      "type": "function"
    },
    {
      "inputs": [
        {
          "internalType": "uint256",
          "name": "",
          "type": "uint256"
        }
      ],
      "name": "mapPID_coolOffTime",
      "outputs": [
        {
          "internalType": "uint256",
          "name": "",
          "type": "uint256"
        }
      ],
      "stateMutability": "view",
      "type": "function"
    },
    {
      "inputs": [
        {
          "internalType": "uint256",
          "name": "",
          "type": "uint256"
        }
      ],
      "name": "mapPID_finalised",
      "outputs": [
        {
          "internalType": "bool",
          "name": "",
          "type": "bool"
        }
      ],
      "stateMutability": "view",
      "type": "function"
    },
    {
      "inputs": [
        {
          "internalType": "uint256",
          "name": "",
          "type": "uint256"
        }
      ],
      "name": "mapPID_finalising",
      "outputs": [
        {
          "internalType": "bool",
          "name": "",
          "type": "bool"
        }
      ],
      "stateMutability": "view",
      "type": "function"
    },
    {
      "inputs": [
        {
          "internalType": "uint256",
          "name": "",
          "type": "uint256"
        }
      ],
      "name": "mapPID_open",
      "outputs": [
        {
          "internalType": "bool",
          "name": "",
          "type": "bool"
        }
      ],
      "stateMutability": "view",
      "type": "function"
    },
    {
      "inputs": [
        {
          "internalType": "uint256",
          "name": "",
          "type": "uint256"
        }
      ],
      "name": "mapPID_param",
      "outputs": [
        {
          "internalType": "uint256",
          "name": "",
          "type": "uint256"
        }
      ],
      "stateMutability": "view",
      "type": "function"
    },
    {
      "inputs": [
        {
          "internalType": "uint256",
          "name": "",
          "type": "uint256"
        }
      ],
      "name": "mapPID_startTime",
      "outputs": [
        {
          "internalType": "uint256",
          "name": "",
          "type": "uint256"
        }
      ],
      "stateMutability": "view",
      "type": "function"
    },
    {
      "inputs": [
        {
          "internalType": "uint256",
          "name": "",
          "type": "uint256"
        }
      ],
      "name": "mapPID_type",
      "outputs": [
        {
          "internalType": "string",
          "name": "",
          "type": "string"
        }
      ],
      "stateMutability": "view",
      "type": "function"
    },
    {
      "inputs": [
        {
          "internalType": "uint256",
          "name": "",
          "type": "uint256"
        }
      ],
      "name": "mapPID_votes",
      "outputs": [
        {
          "internalType": "uint256",
          "name": "",
          "type": "uint256"
        }
      ],
      "stateMutability": "view",
      "type": "function"
    },
    {
      "inputs": [],
      "name": "memberCount",
      "outputs": [
        {
          "internalType": "uint256",
          "name": "",
          "type": "uint256"
        }
      ],
      "stateMutability": "view",
      "type": "function"
    },
    {
      "inputs": [
        {
          "internalType": "address",
          "name": "newDAO",
          "type": "address"
        }
      ],
      "name": "moveBASEBalance",
      "outputs": [],
      "stateMutability": "nonpayable",
      "type": "function"
    },
    {
      "inputs": [
        {
          "internalType": "string",
          "name": "typeStr",
          "type": "string"
        }
      ],
      "name": "newActionProposal",
      "outputs": [
        {
          "internalType": "uint256",
          "name": "",
          "type": "uint256"
        }
      ],
      "stateMutability": "nonpayable",
      "type": "function"
    },
    {
      "inputs": [
        {
          "internalType": "address",
          "name": "proposedAddress",
          "type": "address"
        },
        {
          "internalType": "string",
          "name": "typeStr",
          "type": "string"
        }
      ],
      "name": "newAddressProposal",
      "outputs": [
        {
          "internalType": "uint256",
          "name": "",
          "type": "uint256"
        }
      ],
      "stateMutability": "nonpayable",
      "type": "function"
    },
    {
      "inputs": [
        {
          "internalType": "address",
          "name": "recipient",
          "type": "address"
        },
        {
          "internalType": "uint256",
          "name": "amount",
          "type": "uint256"
        }
      ],
      "name": "newGrantProposal",
      "outputs": [
        {
          "internalType": "uint256",
          "name": "",
          "type": "uint256"
        }
      ],
      "stateMutability": "nonpayable",
      "type": "function"
    },
    {
      "inputs": [
        {
          "internalType": "uint32",
          "name": "param",
          "type": "uint32"
        },
        {
          "internalType": "string",
          "name": "typeStr",
          "type": "string"
        }
      ],
      "name": "newParamProposal",
      "outputs": [
        {
          "internalType": "uint256",
          "name": "",
          "type": "uint256"
        }
      ],
      "stateMutability": "nonpayable",
      "type": "function"
    },
    {
      "inputs": [],
      "name": "proposalCount",
      "outputs": [
        {
          "internalType": "uint256",
          "name": "",
          "type": "uint256"
        }
      ],
      "stateMutability": "view",
      "type": "function"
    },
    {
      "inputs": [],
      "name": "purgeDeployer",
      "outputs": [],
      "stateMutability": "nonpayable",
      "type": "function"
    },
    {
      "inputs": [],
      "name": "removeVote",
      "outputs": [
        {
          "internalType": "uint256",
          "name": "voteWeightRemoved",
          "type": "uint256"
        }
      ],
      "stateMutability": "nonpayable",
      "type": "function"
    },
    {
      "inputs": [],
      "name": "secondsPerEra",
      "outputs": [
        {
          "internalType": "uint256",
          "name": "",
          "type": "uint256"
        }
      ],
      "stateMutability": "view",
      "type": "function"
    },
    {
      "inputs": [
        {
          "internalType": "address",
          "name": "_poolFactory",
          "type": "address"
        },
        {
          "internalType": "address",
          "name": "_synthFactory",
          "type": "address"
        }
      ],
      "name": "setFactoryAddresses",
      "outputs": [],
      "stateMutability": "nonpayable",
      "type": "function"
    },
    {
      "inputs": [
        {
          "internalType": "address",
          "name": "_router",
          "type": "address"
        },
        {
          "internalType": "address",
          "name": "_utils",
          "type": "address"
        },
        {
          "internalType": "address",
          "name": "_reserve",
          "type": "address"
        }
      ],
      "name": "setGenesisAddresses",
      "outputs": [],
      "stateMutability": "nonpayable",
      "type": "function"
    },
    {
      "inputs": [
        {
          "internalType": "uint32",
          "name": "_coolOff",
          "type": "uint32"
        },
        {
          "internalType": "uint32",
          "name": "_daysToEarn",
          "type": "uint32"
        },
        {
          "internalType": "uint32",
          "name": "_majorityFactor",
          "type": "uint32"
        },
        {
          "internalType": "uint32",
          "name": "_daoClaim",
          "type": "uint32"
        },
        {
          "internalType": "uint32",
          "name": "_daoFee",
          "type": "uint32"
        }
      ],
      "name": "setGenesisFactors",
      "outputs": [],
      "stateMutability": "nonpayable",
      "type": "function"
    },
    {
      "inputs": [
        {
          "internalType": "address",
          "name": "_daovault",
          "type": "address"
        },
        {
          "internalType": "address",
          "name": "_bondvault",
          "type": "address"
        },
        {
          "internalType": "address",
          "name": "_synthVault",
          "type": "address"
        }
      ],
      "name": "setVaultAddresses",
      "outputs": [],
      "stateMutability": "nonpayable",
      "type": "function"
    },
    {
      "inputs": [],
      "name": "voteProposal",
      "outputs": [
        {
          "internalType": "uint256",
          "name": "voteWeight",
          "type": "uint256"
        }
      ],
      "stateMutability": "nonpayable",
      "type": "function"
    },
    {
      "inputs": [
        {
          "internalType": "address",
          "name": "pool",
          "type": "address"
        }
      ],
      "name": "withdraw",
      "outputs": [],
      "stateMutability": "nonpayable",
      "type": "function"
    }
  ],
  "bytecode": "0x608060405262ed4e006015553480156200001857600080fd5b506040516200922e3803806200922e83398181016040528101906200003e919062000211565b80600160006101000a81548173ffffffffffffffffffffffffffffffffffffffff021916908373ffffffffffffffffffffffffffffffffffffffff160217905550336000806101000a81548173ffffffffffffffffffffffffffffffffffffffff021916908373ffffffffffffffffffffffffffffffffffffffff16021790555030600a60016101000a81548173ffffffffffffffffffffffffffffffffffffffff021916908373ffffffffffffffffffffffffffffffffffffffff1602179055506001600381905550601e600681905550611a0a6005819055506107d060078190555060646008819055506000600481905550600160009054906101000a900473ffffffffffffffffffffffffffffffffffffffff1673ffffffffffffffffffffffffffffffffffffffff16636b92a3b66040518163ffffffff1660e01b815260040160206040518083038186803b1580156200019b57600080fd5b505afa158015620001b0573d6000803e3d6000fd5b505050506040513d601f19601f82011682018060405250810190620001d691906200023d565b60028190555050620002db565b600081519050620001f481620002a7565b92915050565b6000815190506200020b81620002c1565b92915050565b6000602082840312156200022457600080fd5b60006200023484828501620001e3565b91505092915050565b6000602082840312156200025057600080fd5b60006200026084828501620001fa565b91505092915050565b600062000276826200027d565b9050919050565b600073ffffffffffffffffffffffffffffffffffffffff82169050919050565b6000819050919050565b620002b28162000269565b8114620002be57600080fd5b50565b620002cc816200029d565b8114620002d857600080fd5b50565b618f4380620002eb6000396000f3fe6080604052600436106104105760003560e01c80637b0e5c451161021e578063b93ec54b11610123578063da35c664116100ab578063ec342ad01161007a578063ec342ad01461108c578063f135dcf8146110b7578063f38a2fa1146110f4578063f794062e14611131578063f7a79a371461116e57610410565b8063da35c66414610fbe578063dab249b314610fe9578063db634d7c14611026578063e248260c1461104f57610410565b8063c05fc178116100f2578063c05fc17814610e9f578063c1b8411a14610edc578063c42b3f7d14610f07578063d0ad170914610f44578063d145836314610f8157610410565b8063b93ec54b14610de1578063b99b0a0c14610e0c578063bbf8cf8214610e37578063bc68fad914610e7457610410565b8063a230c524116101a6578063ab2bd8fd11610175578063ab2bd8fd14610cfc578063abb6154f14610d13578063ae887c8b14610d3e578063af04598014610d7b578063b826286914610da457610410565b8063a230c52414610c15578063a299ecb214610c52578063a515366a14610c8f578063a6c83fed14610cbf57610410565b80639070577f116101ed5780639070577f14610b54578063956615be14610b6b57806398fabd3a14610b965780639cd99aa214610bc15780639d2cc43614610bea57610410565b80637b0e5c4514610a985780638351739a14610ac35780638601b9e614610aee5780638bebea8914610b1757610410565b80633b4d01a711610324578063572cf927116102ac57806368bb97b31161027b57806368bb97b3146109b35780636b92a3b6146109dc5780637375898814610a0757806379b2dc4c14610a305780637a8c72b514610a5b57610410565b8063572cf927146108e55780635c120b371461090e5780635c7366d31461094b57806365c71bbf1461098857610410565b80634641257d116102f35780634641257d1461081457806347e7ef241461082b57806349aa4ee2146108545780634b4000341461087f57806351cff8d9146108bc57610410565b80633b4d01a714610734578063436f80be1461077157806346350821146107ae5780634636279f146107d757610410565b80632bee1194116103a757806332fe7b261161037657806332fe7b2614610639578063343598081461066457806335cb5fe0146106a157806338da7dd6146106cc5780633a61738d146106f757610410565b80632bee1194146105695780632c07eebf146105a65780632f7fa180146105d1578063314604fe146105fc57610410565b8063293cee7d116103e3578063293cee7d146104ab5780632957b839146104e85780632ab24e49146105135780632b49d4251461053e57610410565b806303a821381461041557806311aee3801461042c57806324efb5281461045757806325a7f90814610482575b600080fd5b34801561042157600080fd5b5061042a611199565b005b34801561043857600080fd5b50610441611234565b60405161044e91906183ed565b60405180910390f35b34801561046357600080fd5b5061046c611241565b6040516104799190618096565b60405180910390f35b34801561048e57600080fd5b506104a960048036038101906104a4919061767b565b611254565b005b3480156104b757600080fd5b506104d260048036038101906104cd91906175eb565b61183c565b6040516104df91906183ed565b60405180910390f35b3480156104f457600080fd5b506104fd611929565b60405161050a91906183ed565b60405180910390f35b34801561051f57600080fd5b5061052861192f565b6040516105359190618153565b60405180910390f35b34801561054a57600080fd5b50610553611a16565b60405161056091906183ed565b60405180910390f35b34801561057557600080fd5b50610590600480360381019061058b9190617911565b611a1c565b60405161059d9190618096565b60405180910390f35b3480156105b257600080fd5b506105bb611a3c565b6040516105c891906183ed565b60405180910390f35b3480156105dd57600080fd5b506105e6611a42565b6040516105f391906180b1565b60405180910390f35b34801561060857600080fd5b50610623600480360381019061061e9190617911565b611b29565b60405161063091906183ed565b60405180910390f35b34801561064557600080fd5b5061064e611b41565b60405161065b919061811d565b60405180910390f35b34801561067057600080fd5b5061068b6004803603810190610686919061771c565b611c28565b6040516106989190618096565b60405180910390f35b3480156106ad57600080fd5b506106b6611ce4565b6040516106c39190618074565b60405180910390f35b3480156106d857600080fd5b506106e1611d72565b6040516106ee91906180cc565b60405180910390f35b34801561070357600080fd5b5061071e60048036038101906107199190617537565b611e59565b60405161072b91906183ed565b60405180910390f35b34801561074057600080fd5b5061075b60048036038101906107569190617911565b6122c3565b60405161076891906183cb565b60405180910390f35b34801561077d57600080fd5b5061079860048036038101906107939190617911565b6124ef565b6040516107a59190617f99565b60405180910390f35b3480156107ba57600080fd5b506107d560048036038101906107d09190617560565b61252e565b005b3480156107e357600080fd5b506107fe60048036038101906107f99190617537565b61260c565b60405161080b91906183ed565b60405180910390f35b34801561082057600080fd5b5061082961271e565b005b34801561083757600080fd5b50610852600480360381019061084d919061763f565b6128e2565b005b34801561086057600080fd5b506108696128f1565b60405161087691906183ed565b60405180910390f35b34801561088b57600080fd5b506108a660048036038101906108a19190617911565b612b04565b6040516108b39190618096565b60405180910390f35b3480156108c857600080fd5b506108e360048036038101906108de9190617537565b612b24565b005b3480156108f157600080fd5b5061090c600480360381019061090791906179f3565b612c1e565b005b34801561091a57600080fd5b5061093560048036038101906109309190617911565b612cbe565b6040516109429190618096565b60405180910390f35b34801561095757600080fd5b50610972600480360381019061096d9190617537565b612e65565b60405161097f91906183ed565b60405180910390f35b34801561099457600080fd5b5061099d612e7d565b6040516109aa91906183ed565b60405180910390f35b3480156109bf57600080fd5b506109da60048036038101906109d59190617537565b612e83565b005b3480156109e857600080fd5b506109f161303e565b6040516109fe91906183ed565b60405180910390f35b348015610a1357600080fd5b50610a2e6004803603810190610a29919061759c565b613044565b005b348015610a3c57600080fd5b50610a45613164565b604051610a5291906183ed565b60405180910390f35b348015610a6757600080fd5b50610a826004803603810190610a7d9190617537565b61316a565b604051610a8f9190618096565b60405180910390f35b348015610aa457600080fd5b50610aad613348565b604051610aba919061816e565b60405180910390f35b348015610acf57600080fd5b50610ad861342f565b604051610ae591906183ed565b60405180910390f35b348015610afa57600080fd5b50610b156004803603810190610b10919061759c565b61384c565b005b348015610b2357600080fd5b50610b3e6004803603810190610b399190617911565b61396c565b604051610b4b9190618096565b60405180910390f35b348015610b6057600080fd5b50610b6961398b565b005b348015610b7757600080fd5b50610b80613b59565b604051610b8d91906183ed565b60405180910390f35b348015610ba257600080fd5b50610bab613b5f565b604051610bb89190617f99565b60405180910390f35b348015610bcd57600080fd5b50610be86004803603810190610be39190617537565b613b85565b005b348015610bf657600080fd5b50610bff613d47565b604051610c0c9190618102565b60405180910390f35b348015610c2157600080fd5b50610c3c6004803603810190610c379190617537565b613e2e565b604051610c499190618096565b60405180910390f35b348015610c5e57600080fd5b50610c796004803603810190610c749190617911565b613e4e565b604051610c8691906183ed565b60405180910390f35b610ca96004803603810190610ca4919061763f565b613e66565b604051610cb69190618096565b60405180910390f35b348015610ccb57600080fd5b50610ce66004803603810190610ce1919061763f565b6142f9565b604051610cf391906183ed565b60405180910390f35b348015610d0857600080fd5b50610d1161443b565b005b348015610d1f57600080fd5b50610d28614a3c565b604051610d3591906183ed565b60405180910390f35b348015610d4a57600080fd5b50610d656004803603810190610d609190617911565b614a42565b604051610d729190617f99565b60405180910390f35b348015610d8757600080fd5b50610da26004803603810190610d9d9190617911565b614a75565b005b348015610db057600080fd5b50610dcb6004803603810190610dc69190617911565b614ad7565b604051610dd891906183ed565b60405180910390f35b348015610ded57600080fd5b50610df6614aef565b604051610e039190618138565b60405180910390f35b348015610e1857600080fd5b50610e21614bd6565b604051610e2e91906180e7565b60405180910390f35b348015610e4357600080fd5b50610e5e6004803603810190610e599190617911565b614cbd565b604051610e6b9190618096565b60405180910390f35b348015610e8057600080fd5b50610e89614e56565b604051610e969190618096565b60405180910390f35b348015610eab57600080fd5b50610ec66004803603810190610ec19190617911565b614ff5565b604051610ed39190618189565b60405180910390f35b348015610ee857600080fd5b50610ef1615095565b604051610efe9190617f99565b60405180910390f35b348015610f1357600080fd5b50610f2e6004803603810190610f299190617963565b6150b9565b604051610f3b91906183ed565b60405180910390f35b348015610f5057600080fd5b50610f6b6004803603810190610f669190617911565b6150de565b604051610f789190618096565b60405180910390f35b348015610f8d57600080fd5b50610fa86004803603810190610fa391906178d0565b615277565b604051610fb591906183ed565b60405180910390f35b348015610fca57600080fd5b50610fd361530f565b604051610fe091906183ed565b60405180910390f35b348015610ff557600080fd5b50611010600480360381019061100b9190617911565b615315565b60405161101d91906183ed565b60405180910390f35b34801561103257600080fd5b5061104d60048036038101906110489190617537565b61532d565b005b34801561105b57600080fd5b5061107660048036038101906110719190617537565b61543a565b6040516110839190618096565b60405180910390f35b34801561109857600080fd5b506110a16154ec565b6040516110ae9190617f99565b60405180910390f35b3480156110c357600080fd5b506110de60048036038101906110d99190617560565b615512565b6040516110eb91906183ed565b60405180910390f35b34801561110057600080fd5b5061111b6004803603810190611116919061799f565b6155d0565b60405161112891906183ed565b60405180910390f35b34801561113d57600080fd5b5061115860048036038101906111539190617537565b615689565b6040516111659190618096565b60405180910390f35b34801561117a57600080fd5b506111836156a9565b60405161119091906183ed565b60405180910390f35b60008054906101000a900473ffffffffffffffffffffffffffffffffffffffff1673ffffffffffffffffffffffffffffffffffffffff163373ffffffffffffffffffffffffffffffffffffffff16146111f157600080fd5b60008060006101000a81548173ffffffffffffffffffffffffffffffffffffffff021916908373ffffffffffffffffffffffffffffffffffffffff160217905550565b6000601380549050905090565b600a60009054906101000a900460ff1681565b60011515600f60009054906101000a900473ffffffffffffffffffffffffffffffffffffffff1673ffffffffffffffffffffffffffffffffffffffff16638dcb4c93856040518263ffffffff1660e01b81526004016112b39190617f99565b60206040518083038186803b1580156112cb57600080fd5b505afa1580156112df573d6000803e3d6000fd5b505050506040513d601f19601f8201168201806040525081019061130391906176ca565b151514611345576040517f08c379a000000000000000000000000000000000000000000000000000000000815260040161133c9061832b565b60405180910390fd5b60008211611388576040517f08c379a000000000000000000000000000000000000000000000000000000000815260040161137f9061820b565b60405180910390fd5b60011515601660008373ffffffffffffffffffffffffffffffffffffffff1673ffffffffffffffffffffffffffffffffffffffff16815260200190815260200160002060009054906101000a900460ff1615151461149c576013819080600181540180825580915050600190039060005260206000200160009091909190916101000a81548173ffffffffffffffffffffffffffffffffffffffff021916908373ffffffffffffffffffffffffffffffffffffffff1602179055506001601660008373ffffffffffffffffffffffffffffffffffffffff1673ffffffffffffffffffffffffffffffffffffffff16815260200190815260200160002060006101000a81548160ff0219169083151502179055505b6000600d60009054906101000a900473ffffffffffffffffffffffffffffffffffffffff1673ffffffffffffffffffffffffffffffffffffffff16635364df49836040518263ffffffff1660e01b81526004016114f99190617f99565b60206040518083038186803b15801561151157600080fd5b505afa158015611525573d6000803e3d6000fd5b505050506040513d601f19601f82011682018060405250810190611549919061793a565b600e60009054906101000a900473ffffffffffffffffffffffffffffffffffffffff1673ffffffffffffffffffffffffffffffffffffffff16635364df49846040518263ffffffff1660e01b81526004016115a49190617f99565b60206040518083038186803b1580156115bc57600080fd5b505afa1580156115d0573d6000803e3d6000fd5b505050506040513d601f19601f820116820180604052508101906115f4919061793a565b6115fe9190618647565b111561160d5761160c61271e565b5b8273ffffffffffffffffffffffffffffffffffffffff166323b872dd33600e60009054906101000a900473ffffffffffffffffffffffffffffffffffffffff16856040518463ffffffff1660e01b815260040161166c93929190617fdd565b602060405180830381600087803b15801561168657600080fd5b505af115801561169a573d6000803e3d6000fd5b505050506040513d601f19601f820116820180604052508101906116be91906176ca565b6116fd576040517f08c379a00000000000000000000000000000000000000000000000000000000081526004016116f4906181ab565b60405180910390fd5b600e60009054906101000a900473ffffffffffffffffffffffffffffffffffffffff1673ffffffffffffffffffffffffffffffffffffffff166346dafa2f8484846040518463ffffffff1660e01b815260040161175c9392919061803d565b600060405180830381600087803b15801561177657600080fd5b505af115801561178a573d6000803e3d6000fd5b5050505042601860008373ffffffffffffffffffffffffffffffffffffffff1673ffffffffffffffffffffffffffffffffffffffff168152602001908152602001600020819055508273ffffffffffffffffffffffffffffffffffffffff168173ffffffffffffffffffffffffffffffffffffffff167f5f9b5a75581a29d72b32414a5df7f1ef124b7787b38616fb8fdcad76179127c28460405161182f91906183ed565b60405180910390a3505050565b60006118466156b6565b61184e61578c565b5082601a6000600954815260200190815260200160002060006101000a81548173ffffffffffffffffffffffffffffffffffffffff021916908373ffffffffffffffffffffffffffffffffffffffff16021790555081601b6000600954815260200190815260200160002090805190602001906118cc92919061722f565b506009543373ffffffffffffffffffffffffffffffffffffffff167f8d500fcad86fc64a281b94ef64d6d66acbfc6862aa4ff2ee5fbbfb40736e803e846040516119169190618189565b60405180910390a3600954905092915050565b60085481565b6000600a60009054906101000a900460ff16156119ed57600a60019054906101000a900473ffffffffffffffffffffffffffffffffffffffff1673ffffffffffffffffffffffffffffffffffffffff16632ab24e496040518163ffffffff1660e01b815260040160206040518083038186803b1580156119ae57600080fd5b505afa1580156119c2573d6000803e3d6000fd5b505050506040513d601f19601f820116820180604052508101906119e6919061787e565b9050611a13565b601260009054906101000a900473ffffffffffffffffffffffffffffffffffffffff1690505b90565b60095481565b601f6020528060005260406000206000915054906101000a900460ff1681565b60065481565b6000600a60009054906101000a900460ff1615611b0057600a60019054906101000a900473ffffffffffffffffffffffffffffffffffffffff1673ffffffffffffffffffffffffffffffffffffffff16632f7fa1806040518163ffffffff1660e01b815260040160206040518083038186803b158015611ac157600080fd5b505afa158015611ad5573d6000803e3d6000fd5b505050506040513d601f19601f82011682018060405250810190611af99190617788565b9050611b26565b600d60009054906101000a900473ffffffffffffffffffffffffffffffffffffffff1690505b90565b60196020528060005260406000206000915090505481565b6000600a60009054906101000a900460ff1615611bff57600a60019054906101000a900473ffffffffffffffffffffffffffffffffffffffff1673ffffffffffffffffffffffffffffffffffffffff166332fe7b266040518163ffffffff1660e01b815260040160206040518083038186803b158015611bc057600080fd5b505afa158015611bd4573d6000803e3d6000fd5b505050506040513d601f19601f82011682018060405250810190611bf8919061782c565b9050611c25565b600b60009054906101000a900473ffffffffffffffffffffffffffffffffffffffff1690505b90565b6000600282604051611c3a9190617f82565b602060405180830381855afa158015611c57573d6000803e3d6000fd5b5050506040513d601f19601f82011682018060405250810190611c7a91906176f3565b600284604051611c8a9190617f82565b602060405180830381855afa158015611ca7573d6000803e3d6000fd5b5050506040513d601f19601f82011682018060405250810190611cca91906176f3565b1415611cd95760019050611cde565b600090505b92915050565b60606014805480602002602001604051908101604052809291908181526020018280548015611d6857602002820191906000526020600020905b8160009054906101000a900473ffffffffffffffffffffffffffffffffffffffff1673ffffffffffffffffffffffffffffffffffffffff1681526020019060010190808311611d1e575b5050505050905090565b6000600a60009054906101000a900460ff1615611e3057600a60019054906101000a900473ffffffffffffffffffffffffffffffffffffffff1673ffffffffffffffffffffffffffffffffffffffff166338da7dd66040518163ffffffff1660e01b815260040160206040518083038186803b158015611df157600080fd5b505afa158015611e05573d6000803e3d6000fd5b505050506040513d601f19601f82011682018060405250810190611e2991906177b1565b9050611e56565b600e60009054906101000a900473ffffffffffffffffffffffffffffffffffffffff1690505b90565b600080600d60009054906101000a900473ffffffffffffffffffffffffffffffffffffffff1673ffffffffffffffffffffffffffffffffffffffff16635364df49846040518263ffffffff1660e01b8152600401611eb79190617f99565b60206040518083038186803b158015611ecf57600080fd5b505afa158015611ee3573d6000803e3d6000fd5b505050506040513d601f19601f82011682018060405250810190611f07919061793a565b600e60009054906101000a900473ffffffffffffffffffffffffffffffffffffffff1673ffffffffffffffffffffffffffffffffffffffff16635364df49856040518263ffffffff1660e01b8152600401611f629190617f99565b60206040518083038186803b158015611f7a57600080fd5b505afa158015611f8e573d6000803e3d6000fd5b505050506040513d601f19601f82011682018060405250810190611fb2919061793a565b611fbc9190618647565b90506000600d60009054906101000a900473ffffffffffffffffffffffffffffffffffffffff1673ffffffffffffffffffffffffffffffffffffffff166396c82e576040518163ffffffff1660e01b815260040160206040518083038186803b15801561202857600080fd5b505afa15801561203c573d6000803e3d6000fd5b505050506040513d601f19601f82011682018060405250810190612060919061793a565b600e60009054906101000a900473ffffffffffffffffffffffffffffffffffffffff1673ffffffffffffffffffffffffffffffffffffffff166396c82e576040518163ffffffff1660e01b815260040160206040518083038186803b1580156120c857600080fd5b505afa1580156120dc573d6000803e3d6000fd5b505050506040513d601f19601f82011682018060405250810190612100919061793a565b61210a9190618647565b90506000600654600160009054906101000a900473ffffffffffffffffffffffffffffffffffffffff1673ffffffffffffffffffffffffffffffffffffffff166370a08231601160009054906101000a900473ffffffffffffffffffffffffffffffffffffffff166040518263ffffffff1660e01b815260040161218e9190617f99565b60206040518083038186803b1580156121a657600080fd5b505afa1580156121ba573d6000803e3d6000fd5b505050506040513d601f19601f820116820180604052508101906121de919061793a565b6121e8919061869d565b90506000612710600754836121fd91906186ce565b612207919061869d565b9050600c60009054906101000a900473ffffffffffffffffffffffffffffffffffffffff1673ffffffffffffffffffffffffffffffffffffffff16631ba326c48585846040518463ffffffff1660e01b81526004016122689392919061850d565b60206040518083038186803b15801561228057600080fd5b505afa158015612294573d6000803e3d6000fd5b505050506040513d601f19601f820116820180604052508101906122b8919061793a565b945050505050919050565b6122cb6172b5565b81816000018181525050601b600083815260200190815260200160002080546122f3906189b0565b80601f016020809104026020016040519081016040528092919081815260200182805461231f906189b0565b801561236c5780601f106123415761010080835404028352916020019161236c565b820191906000526020600020905b81548152906001019060200180831161234f57829003601f168201915b50505050508160200181905250601c600083815260200190815260200160002054816040018181525050601d600083815260200190815260200160002054816060018181525050601e600083815260200190815260200160002060009054906101000a900460ff16816080019015159081151581525050601f600083815260200190815260200160002060009054906101000a900460ff168160a001901515908115158152505060196000838152602001908152602001600020548160c0018181525050601a600083815260200190815260200160002060009054906101000a900473ffffffffffffffffffffffffffffffffffffffff168160e0019073ffffffffffffffffffffffffffffffffffffffff16908173ffffffffffffffffffffffffffffffffffffffff16815250506020600083815260200190815260200160002060009054906101000a900460ff1681610100019015159081151581525050602160008381526020019081526020016000205481610120018181525050919050565b601381815481106124ff57600080fd5b906000526020600020016000915054906101000a900473ffffffffffffffffffffffffffffffffffffffff1681565b60008054906101000a900473ffffffffffffffffffffffffffffffffffffffff1673ffffffffffffffffffffffffffffffffffffffff163373ffffffffffffffffffffffffffffffffffffffff161461258657600080fd5b81600f60006101000a81548173ffffffffffffffffffffffffffffffffffffffff021916908373ffffffffffffffffffffffffffffffffffffffff16021790555080601060006101000a81548173ffffffffffffffffffffffffffffffffffffffff021916908373ffffffffffffffffffffffffffffffffffffffff1602179055505050565b6000601660008373ffffffffffffffffffffffffffffffffffffffff1673ffffffffffffffffffffffffffffffffffffffff16815260200190815260200160002060009054906101000a900460ff1661269a576040517f08c379a00000000000000000000000000000000000000000000000000000000081526004016126919061830b565b60405180910390fd5b6000601860008473ffffffffffffffffffffffffffffffffffffffff1673ffffffffffffffffffffffffffffffffffffffff16815260200190815260200160002054426126e79190618728565b905060006126f484611e59565b90506000600254838361270791906186ce565b612711919061869d565b9050809350505050919050565b601160009054906101000a900473ffffffffffffffffffffffffffffffffffffffff1673ffffffffffffffffffffffffffffffffffffffff16632267716c6040518163ffffffff1660e01b8152600401602060405180830381600087803b15801561278857600080fd5b505af115801561279c573d6000803e3d6000fd5b505050506040513d601f19601f820116820180604052508101906127c091906176ca565b6127ff576040517f08c379a00000000000000000000000000000000000000000000000000000000081526004016127f6906182cb565b60405180910390fd5b600061280a3361260c565b905042601860003373ffffffffffffffffffffffffffffffffffffffff1673ffffffffffffffffffffffffffffffffffffffff16815260200190815260200160002081905550601160009054906101000a900473ffffffffffffffffffffffffffffffffffffffff1673ffffffffffffffffffffffffffffffffffffffff16637d458baa82336040518363ffffffff1660e01b81526004016128ad929190618408565b600060405180830381600087803b1580156128c757600080fd5b505af11580156128db573d6000803e3d6000fd5b5050505050565b6128ed828233611254565b5050565b600080601b600060095481526020019081526020016000208054612914906189b0565b80601f0160208091040260200160405190810160405280929190818152602001828054612940906189b0565b801561298d5780601f106129625761010080835404028352916020019161298d565b820191906000526020600020905b81548152906001019060200180831161297057829003601f168201915b5050505050905060226000600954815260200190815260200160002060003373ffffffffffffffffffffffffffffffffffffffff1673ffffffffffffffffffffffffffffffffffffffff16815260200190815260200160002054915060206000600954815260200190815260200160002060009054906101000a900460ff1615612a3e5781601c600060095481526020019081526020016000206000828254612a369190618728565b925050819055505b600060226000600954815260200190815260200160002060003373ffffffffffffffffffffffffffffffffffffffff1673ffffffffffffffffffffffffffffffffffffffff168152602001908152602001600020819055506009543373ffffffffffffffffffffffffffffffffffffffff167f70a6ab6ed794c2ceb8df59b7bb4e317e9b215d9ce74b88161ca5af2a5a801d6f84601c600060095481526020019081526020016000205485604051612af8939291906184cf565b60405180910390a35090565b601e6020528060005260406000206000915054906101000a900460ff1681565b612b2c6128f1565b50600e60009054906101000a900473ffffffffffffffffffffffffffffffffffffffff1673ffffffffffffffffffffffffffffffffffffffff1663f940e38582336040518363ffffffff1660e01b8152600401612b8a929190617fb4565b602060405180830381600087803b158015612ba457600080fd5b505af1158015612bb8573d6000803e3d6000fd5b505050506040513d601f19601f82011682018060405250810190612bdc91906176ca565b612c1b576040517f08c379a0000000000000000000000000000000000000000000000000000000008152600401612c129061834b565b60405180910390fd5b50565b60008054906101000a900473ffffffffffffffffffffffffffffffffffffffff1673ffffffffffffffffffffffffffffffffffffffff163373ffffffffffffffffffffffffffffffffffffffff1614612c7657600080fd5b8463ffffffff166003819055508363ffffffff166006819055508263ffffffff166005819055508163ffffffff166007819055508063ffffffff166008819055505050505050565b600080601c60008481526020019081526020016000205490506000600d60009054906101000a900473ffffffffffffffffffffffffffffffffffffffff1673ffffffffffffffffffffffffffffffffffffffff166396c82e576040518163ffffffff1660e01b815260040160206040518083038186803b158015612d4157600080fd5b505afa158015612d55573d6000803e3d6000fd5b505050506040513d601f19601f82011682018060405250810190612d79919061793a565b600e60009054906101000a900473ffffffffffffffffffffffffffffffffffffffff1673ffffffffffffffffffffffffffffffffffffffff166396c82e576040518163ffffffff1660e01b815260040160206040518083038186803b158015612de157600080fd5b505afa158015612df5573d6000803e3d6000fd5b505050506040513d601f19601f82011682018060405250810190612e19919061793a565b612e239190618647565b9050600061271060055483612e3891906186ce565b612e42919061869d565b905080831115612e585760019350505050612e60565b600093505050505b919050565b60186020528060005260406000206000915090505481565b60155481565b60008054906101000a900473ffffffffffffffffffffffffffffffffffffffff1673ffffffffffffffffffffffffffffffffffffffff163373ffffffffffffffffffffffffffffffffffffffff1614612edb57600080fd5b6000600160009054906101000a900473ffffffffffffffffffffffffffffffffffffffff1673ffffffffffffffffffffffffffffffffffffffff166370a08231306040518263ffffffff1660e01b8152600401612f389190617f99565b60206040518083038186803b158015612f5057600080fd5b505afa158015612f64573d6000803e3d6000fd5b505050506040513d601f19601f82011682018060405250810190612f88919061793a565b9050600160009054906101000a900473ffffffffffffffffffffffffffffffffffffffff1673ffffffffffffffffffffffffffffffffffffffff1663a9059cbb83836040518363ffffffff1660e01b8152600401612fe7929190618014565b602060405180830381600087803b15801561300157600080fd5b505af1158015613015573d6000803e3d6000fd5b505050506040513d601f19601f8201168201806040525081019061303991906176ca565b505050565b60025481565b60008054906101000a900473ffffffffffffffffffffffffffffffffffffffff1673ffffffffffffffffffffffffffffffffffffffff163373ffffffffffffffffffffffffffffffffffffffff161461309c57600080fd5b82600e60006101000a81548173ffffffffffffffffffffffffffffffffffffffff021916908373ffffffffffffffffffffffffffffffffffffffff16021790555081600d60006101000a81548173ffffffffffffffffffffffffffffffffffffffff021916908373ffffffffffffffffffffffffffffffffffffffff16021790555080601260006101000a81548173ffffffffffffffffffffffffffffffffffffffff021916908373ffffffffffffffffffffffffffffffffffffffff160217905550505050565b60075481565b60008060148054806020026020016040519081016040528092919081815260200182805480156131ef57602002820191906000526020600020905b8160009054906101000a900473ffffffffffffffffffffffffffffffffffffffff1673ffffffffffffffffffffffffffffffffffffffff16815260200190600101908083116131a5575b5050505050905060005b815181101561333d57600061324e85848481518110613241577f4e487b7100000000000000000000000000000000000000000000000000000000600052603260045260246000fd5b6020026020010151615512565b9050600081111561332957600d60009054906101000a900473ffffffffffffffffffffffffffffffffffffffff1673ffffffffffffffffffffffffffffffffffffffff16635bc262be8484815181106132d0577f4e487b7100000000000000000000000000000000000000000000000000000000600052603260045260246000fd5b6020026020010151876040518363ffffffff1660e01b81526004016132f6929190617fb4565b600060405180830381600087803b15801561331057600080fd5b505af1158015613324573d6000803e3d6000fd5b505050505b50808061333590618a13565b9150506131f9565b506001915050919050565b6000600a60009054906101000a900460ff161561340657600a60019054906101000a900473ffffffffffffffffffffffffffffffffffffffff1673ffffffffffffffffffffffffffffffffffffffff16637b0e5c456040518163ffffffff1660e01b815260040160206040518083038186803b1580156133c757600080fd5b505afa1580156133db573d6000803e3d6000fd5b505050506040513d601f19601f820116820180604052508101906133ff91906178a7565b905061342c565b600c60009054906101000a900473ffffffffffffffffffffffffffffffffffffffff1690505b90565b60006001151560206000600954815260200190815260200160002060009054906101000a900460ff1615151461349a576040517f08c379a0000000000000000000000000000000000000000000000000000000008152600401613491906183ab565b60405180910390fd5b6000601b6000600954815260200190815260200160002080546134bc906189b0565b80601f01602080910402602001604051908101604052809291908181526020018280546134e8906189b0565b80156135355780601f1061350a57610100808354040283529160200191613535565b820191906000526020600020905b81548152906001019060200180831161351857829003601f168201915b505050505090506135446158c1565b9150613551600954614cbd565b8015613583575060001515601e6000600954815260200190815260200160002060009054906101000a900460ff161515145b156137de576135c7816040518060400160405280600381526020017f44414f0000000000000000000000000000000000000000000000000000000000815250611c28565b8061360d575061360c816040518060400160405280600581526020017f5554494c53000000000000000000000000000000000000000000000000000000815250611c28565b5b806136535750613652816040518060400160405280600781526020017f5245534552564500000000000000000000000000000000000000000000000000815250611c28565b5b806136995750613698816040518060400160405280600a81526020017f4745545f53504152544100000000000000000000000000000000000000000000815250611c28565b5b806136df57506136de816040518060400160405280600681526020017f524f555445520000000000000000000000000000000000000000000000000000815250611c28565b5b806137255750613724816040518060400160405280600981526020017f4c4953545f424f4e440000000000000000000000000000000000000000000000815250611c28565b5b8061376b575061376a816040518060400160405280600581526020017f4752414e54000000000000000000000000000000000000000000000000000000815250611c28565b5b806137b157506137b0816040518060400160405280601081526020017f4144445f435552415445445f504f4f4c00000000000000000000000000000000815250611c28565b5b156137d4576137c1600954612cbe565b156137cf576137ce615b29565b5b6137dd565b6137dc615b29565b5b5b6009543373ffffffffffffffffffffffffffffffffffffffff167f4d46d88c7e981a5bf4572a83b5d88bcfefbd5ee6ca8df0588e27c4221a43640784601c600060095481526020019081526020016000205485604051613840939291906184cf565b60405180910390a35090565b60008054906101000a900473ffffffffffffffffffffffffffffffffffffffff1673ffffffffffffffffffffffffffffffffffffffff163373ffffffffffffffffffffffffffffffffffffffff16146138a457600080fd5b82600b60006101000a81548173ffffffffffffffffffffffffffffffffffffffff021916908373ffffffffffffffffffffffffffffffffffffffff16021790555081600c60006101000a81548173ffffffffffffffffffffffffffffffffffffffff021916908373ffffffffffffffffffffffffffffffffffffffff16021790555080601160006101000a81548173ffffffffffffffffffffffffffffffffffffffff021916908373ffffffffffffffffffffffffffffffffffffffff160217905550505050565b602080528060005260406000206000915054906101000a900460ff1681565b62127500602160006009548152602001908152602001600020546139af9190618647565b42116139f0576040517f08c379a00000000000000000000000000000000000000000000000000000000081526004016139e7906181eb565b60405180910390fd5b6000601c6000600954815260200190815260200160002081905550600060206000600954815260200190815260200160002060006101000a81548160ff0219169083151502179055506009543373ffffffffffffffffffffffffffffffffffffffff167f0e67c2e72a9ea22e5d163549aebce99ddc3d1fbbc58e7ed196b0e88f458847d9601c6000600954815260200190815260200160002054601c6000600954815260200190815260200160002054600e60009054906101000a900473ffffffffffffffffffffffffffffffffffffffff1673ffffffffffffffffffffffffffffffffffffffff166396c82e576040518163ffffffff1660e01b815260040160206040518083038186803b158015613b0857600080fd5b505afa158015613b1c573d6000803e3d6000fd5b505050506040513d601f19601f82011682018060405250810190613b40919061793a565b604051613b4f9392919061850d565b60405180910390a3565b60055481565b600a60019054906101000a900473ffffffffffffffffffffffffffffffffffffffff1681565b60008054906101000a900473ffffffffffffffffffffffffffffffffffffffff1673ffffffffffffffffffffffffffffffffffffffff163373ffffffffffffffffffffffffffffffffffffffff1614613bdd57600080fd5b601760008273ffffffffffffffffffffffffffffffffffffffff1673ffffffffffffffffffffffffffffffffffffffff16815260200190815260200160002060009054906101000a900460ff16613cea576001601760008373ffffffffffffffffffffffffffffffffffffffff1673ffffffffffffffffffffffffffffffffffffffff16815260200190815260200160002060006101000a81548160ff0219169083151502179055506014819080600181540180825580915050600190039060005260206000200160009091909190916101000a81548173ffffffffffffffffffffffffffffffffffffffff021916908373ffffffffffffffffffffffffffffffffffffffff1602179055505b8073ffffffffffffffffffffffffffffffffffffffff163373ffffffffffffffffffffffffffffffffffffffff167fa2c962e87fd75165c1496c9ea420ddb0231e124bf2625a77f828287c8050006860405160405180910390a350565b6000600a60009054906101000a900460ff1615613e0557600a60019054906101000a900473ffffffffffffffffffffffffffffffffffffffff1673ffffffffffffffffffffffffffffffffffffffff16639d2cc4366040518163ffffffff1660e01b815260040160206040518083038186803b158015613dc657600080fd5b505afa158015613dda573d6000803e3d6000fd5b505050506040513d601f19601f82011682018060405250810190613dfe9190617803565b9050613e2b565b601160009054906101000a900473ffffffffffffffffffffffffffffffffffffffff1690505b90565b60166020528060005260406000206000915054906101000a900460ff1681565b601d6020528060005260406000206000915090505481565b6000808211613eaa576040517f08c379a0000000000000000000000000000000000000000000000000000000008152600401613ea19061838b565b60405180910390fd5b601760008473ffffffffffffffffffffffffffffffffffffffff1673ffffffffffffffffffffffffffffffffffffffff16815260200190815260200160002060009054906101000a900460ff16613f36576040517f08c379a0000000000000000000000000000000000000000000000000000000008152600401613f2d906181cb565b60405180910390fd5b60011515601660003373ffffffffffffffffffffffffffffffffffffffff1673ffffffffffffffffffffffffffffffffffffffff16815260200190815260200160002060009054906101000a900460ff1615151461404a576013339080600181540180825580915050600190039060005260206000200160009091909190916101000a81548173ffffffffffffffffffffffffffffffffffffffff021916908373ffffffffffffffffffffffffffffffffffffffff1602179055506001601660003373ffffffffffffffffffffffffffffffffffffffff1673ffffffffffffffffffffffffffffffffffffffff16815260200190815260200160002060006101000a81548160ff0219169083151502179055505b6000600d60009054906101000a900473ffffffffffffffffffffffffffffffffffffffff1673ffffffffffffffffffffffffffffffffffffffff16635364df49336040518263ffffffff1660e01b81526004016140a79190617f99565b60206040518083038186803b1580156140bf57600080fd5b505afa1580156140d3573d6000803e3d6000fd5b505050506040513d601f19601f820116820180604052508101906140f7919061793a565b600e60009054906101000a900473ffffffffffffffffffffffffffffffffffffffff1673ffffffffffffffffffffffffffffffffffffffff16635364df49336040518263ffffffff1660e01b81526004016141529190617f99565b60206040518083038186803b15801561416a57600080fd5b505afa15801561417e573d6000803e3d6000fd5b505050506040513d601f19601f820116820180604052508101906141a2919061793a565b6141ac9190618647565b11156141bb576141ba61271e565b5b60006141c78484615c76565b9050600d60009054906101000a900473ffffffffffffffffffffffffffffffffffffffff1673ffffffffffffffffffffffffffffffffffffffff1663bf58d0ef8533846040518463ffffffff1660e01b815260040161422893929190617fdd565b600060405180830381600087803b15801561424257600080fd5b505af1158015614256573d6000803e3d6000fd5b5050505042601860003373ffffffffffffffffffffffffffffffffffffffff1673ffffffffffffffffffffffffffffffffffffffff168152602001908152602001600020819055503373ffffffffffffffffffffffffffffffffffffffff167fe4dd259ab128527fe8b5fdae0b44bda8db95a4de10b999d63dce142b1eb88d5484836040516142e6929190618461565b60405180910390a2600191505092915050565b60006143036156b6565b61430b61578c565b5060006040518060400160405280600581526020017f4752414e54000000000000000000000000000000000000000000000000000000815250905080601b60006009548152602001908152602001600020908051906020019061436f92919061722f565b5083601a6000600954815260200190815260200160002060006101000a81548173ffffffffffffffffffffffffffffffffffffffff021916908373ffffffffffffffffffffffffffffffffffffffff16021790555082601960006009548152602001908152602001600020819055506009543373ffffffffffffffffffffffffffffffffffffffff167f8d500fcad86fc64a281b94ef64d6d66acbfc6862aa4ff2ee5fbbfb40736e803e836040516144279190618189565b60405180910390a360095491505092915050565b600354601d60006009548152602001908152602001600020544261445f9190618728565b1161449f576040517f08c379a00000000000000000000000000000000000000000000000000000000081526004016144969061828b565b60405180910390fd5b60011515601e6000600954815260200190815260200160002060009054906101000a900460ff16151514614508576040517f08c379a00000000000000000000000000000000000000000000000000000000081526004016144ff906182eb565b60405180910390fd5b614513600954614cbd565b61454a576000601e6000600954815260200190815260200160002060006101000a81548160ff021916908315150217905550614a3a565b6000601b60006009548152602001908152602001600020805461456c906189b0565b80601f0160208091040260200160405190810160405280929190818152602001828054614598906189b0565b80156145e55780601f106145ba576101008083540402835291602001916145e5565b820191906000526020600020905b8154815290600101906020018083116145c857829003601f168201915b5050505050905061462b816040518060400160405280600381526020017f44414f0000000000000000000000000000000000000000000000000000000000815250611c28565b156146405761463b60095461641b565b614a38565b61467f816040518060400160405280600681526020017f524f555445520000000000000000000000000000000000000000000000000000815250611c28565b156146945761468f6009546165b9565b614a37565b6146d3816040518060400160405280600581526020017f5554494c53000000000000000000000000000000000000000000000000000000815250611c28565b156146e8576146e36009546166af565b614a36565b614727816040518060400160405280600781526020017f5245534552564500000000000000000000000000000000000000000000000000815250611c28565b1561473c576147376009546167a5565b614a35565b61477b816040518060400160405280600e81526020017f464c49505f454d495353494f4e53000000000000000000000000000000000000815250611c28565b156147905761478b60095461689b565b614a34565b6147cf816040518060400160405280600881526020017f434f4f4c5f4f4646000000000000000000000000000000000000000000000000815250611c28565b156147e4576147df600954616929565b614a33565b614823816040518060400160405280600c81526020017f455241535f544f5f4541524e0000000000000000000000000000000000000000815250611c28565b1561483857614833600954616999565b614a32565b614877816040518060400160405280600581526020017f4752414e54000000000000000000000000000000000000000000000000000000815250611c28565b1561488c57614887600954616a09565b614a31565b6148cb816040518060400160405280600a81526020017f4745545f53504152544100000000000000000000000000000000000000000000815250611c28565b156148e0576148db600954616baa565b614a30565b61491f816040518060400160405280600981526020017f4c4953545f424f4e440000000000000000000000000000000000000000000000815250611c28565b156149345761492f600954616c56565b614a2f565b614973816040518060400160405280600b81526020017f44454c4953545f424f4e44000000000000000000000000000000000000000000815250611c28565b1561498857614983600954616da8565b614a2e565b6149c7816040518060400160405280601081526020017f4144445f435552415445445f504f4f4c00000000000000000000000000000000815250611c28565b156149dc576149d7600954616e45565b614a2d565b614a1b816040518060400160405280601381526020017f52454d4f56455f435552415445445f504f4f4c00000000000000000000000000815250611c28565b15614a2c57614a2b600954616f17565b5b5b5b5b5b5b5b5b5b5b5b5b5b505b565b60035481565b601a6020528060005260406000206000915054906101000a900473ffffffffffffffffffffffffffffffffffffffff1681565b60008054906101000a900473ffffffffffffffffffffffffffffffffffffffff1673ffffffffffffffffffffffffffffffffffffffff163373ffffffffffffffffffffffffffffffffffffffff1614614acd57600080fd5b8060158190555050565b60216020528060005260406000206000915090505481565b6000600a60009054906101000a900460ff1615614bad57600a60019054906101000a900473ffffffffffffffffffffffffffffffffffffffff1673ffffffffffffffffffffffffffffffffffffffff1663b93ec54b6040518163ffffffff1660e01b815260040160206040518083038186803b158015614b6e57600080fd5b505afa158015614b82573d6000803e3d6000fd5b505050506040513d601f19601f82011682018060405250810190614ba69190617855565b9050614bd3565b601060009054906101000a900473ffffffffffffffffffffffffffffffffffffffff1690505b90565b6000600a60009054906101000a900460ff1615614c9457600a60019054906101000a900473ffffffffffffffffffffffffffffffffffffffff1673ffffffffffffffffffffffffffffffffffffffff1663b99b0a0c6040518163ffffffff1660e01b815260040160206040518083038186803b158015614c5557600080fd5b505afa158015614c69573d6000803e3d6000fd5b505050506040513d601f19601f82011682018060405250810190614c8d91906177da565b9050614cba565b600f60009054906101000a900473ffffffffffffffffffffffffffffffffffffffff1690505b90565b600080601c60008481526020019081526020016000205490506000600d60009054906101000a900473ffffffffffffffffffffffffffffffffffffffff1673ffffffffffffffffffffffffffffffffffffffff166396c82e576040518163ffffffff1660e01b815260040160206040518083038186803b158015614d4057600080fd5b505afa158015614d54573d6000803e3d6000fd5b505050506040513d601f19601f82011682018060405250810190614d78919061793a565b600e60009054906101000a900473ffffffffffffffffffffffffffffffffffffffff1673ffffffffffffffffffffffffffffffffffffffff166396c82e576040518163ffffffff1660e01b815260040160206040518083038186803b158015614de057600080fd5b505afa158015614df4573d6000803e3d6000fd5b505050506040513d601f19601f82011682018060405250810190614e18919061793a565b614e229190618647565b90506000600282614e33919061869d565b905080831115614e495760019350505050614e51565b600093505050505b919050565b60008060009054906101000a900473ffffffffffffffffffffffffffffffffffffffff1673ffffffffffffffffffffffffffffffffffffffff163373ffffffffffffffffffffffffffffffffffffffff1614614eb157600080fd5b6000600160009054906101000a900473ffffffffffffffffffffffffffffffffffffffff1673ffffffffffffffffffffffffffffffffffffffff166370a08231306040518263ffffffff1660e01b8152600401614f0e9190617f99565b60206040518083038186803b158015614f2657600080fd5b505afa158015614f3a573d6000803e3d6000fd5b505050506040513d601f19601f82011682018060405250810190614f5e919061793a565b9050600160009054906101000a900473ffffffffffffffffffffffffffffffffffffffff1673ffffffffffffffffffffffffffffffffffffffff166342966c68826040518263ffffffff1660e01b8152600401614fbb91906183ed565b600060405180830381600087803b158015614fd557600080fd5b505af1158015614fe9573d6000803e3d6000fd5b50505050600191505090565b601b6020528060005260406000206000915090508054615014906189b0565b80601f0160208091040260200160405190810160405280929190818152602001828054615040906189b0565b801561508d5780601f106150625761010080835404028352916020019161508d565b820191906000526020600020905b81548152906001019060200180831161507057829003601f168201915b505050505081565b60008054906101000a900473ffffffffffffffffffffffffffffffffffffffff1681565b6022602052816000526040600020602052806000526040600020600091509150505481565b600080601c60008481526020019081526020016000205490506000600d60009054906101000a900473ffffffffffffffffffffffffffffffffffffffff1673ffffffffffffffffffffffffffffffffffffffff166396c82e576040518163ffffffff1660e01b815260040160206040518083038186803b15801561516157600080fd5b505afa158015615175573d6000803e3d6000fd5b505050506040513d601f19601f82011682018060405250810190615199919061793a565b600e60009054906101000a900473ffffffffffffffffffffffffffffffffffffffff1673ffffffffffffffffffffffffffffffffffffffff166396c82e576040518163ffffffff1660e01b815260040160206040518083038186803b15801561520157600080fd5b505afa158015615215573d6000803e3d6000fd5b505050506040513d601f19601f82011682018060405250810190615239919061793a565b6152439190618647565b90506000600682615254919061869d565b90508083111561526a5760019350505050615272565b600093505050505b919050565b60006152816156b6565b61528961578c565b5081601b6000600954815260200190815260200160002090805190602001906152b392919061722f565b506009543373ffffffffffffffffffffffffffffffffffffffff167f8d500fcad86fc64a281b94ef64d6d66acbfc6862aa4ff2ee5fbbfb40736e803e846040516152fd9190618189565b60405180910390a36009549050919050565b60045481565b601c6020528060005260406000206000915090505481565b60008054906101000a900473ffffffffffffffffffffffffffffffffffffffff1673ffffffffffffffffffffffffffffffffffffffff163373ffffffffffffffffffffffffffffffffffffffff161461538557600080fd5b6000601760008373ffffffffffffffffffffffffffffffffffffffff1673ffffffffffffffffffffffffffffffffffffffff16815260200190815260200160002060006101000a81548160ff0219169083151502179055508073ffffffffffffffffffffffffffffffffffffffff163373ffffffffffffffffffffffffffffffffffffffff167ff487c2322baa448cfa506b983134d9dd9f27d0bbfe0b48119a3908d4f0dde89f60405160405180910390a350565b6000806154473384615512565b905060008111156154e257600d60009054906101000a900473ffffffffffffffffffffffffffffffffffffffff1673ffffffffffffffffffffffffffffffffffffffff16635bc262be84336040518363ffffffff1660e01b81526004016154af929190617fb4565b600060405180830381600087803b1580156154c957600080fd5b505af11580156154dd573d6000803e3d6000fd5b505050505b6001915050919050565b600160009054906101000a900473ffffffffffffffffffffffffffffffffffffffff1681565b600080600d60009054906101000a900473ffffffffffffffffffffffffffffffffffffffff1673ffffffffffffffffffffffffffffffffffffffff1663ba0ba54f85856040518363ffffffff1660e01b8152600401615572929190617fb4565b602060405180830381600087803b15801561558c57600080fd5b505af11580156155a0573d6000803e3d6000fd5b505050506040513d601f19601f820116820180604052508101906155c4919061793a565b90508091505092915050565b60006155da6156b6565b6155e261578c565b508263ffffffff166019600060095481526020019081526020016000208190555081601b60006009548152602001908152602001600020908051906020019061562c92919061722f565b506009543373ffffffffffffffffffffffffffffffffffffffff167f8d500fcad86fc64a281b94ef64d6d66acbfc6862aa4ff2ee5fbbfb40736e803e846040516156769190618189565b60405180910390a3600954905092915050565b60176020528060005260406000206000915054906101000a900460ff1681565b6000601480549050905090565b6000151560206000600954815260200190815260200160002060009054906101000a900460ff1615151461571f576040517f08c379a00000000000000000000000000000000000000000000000000000000081526004016157169061822b565b60405180910390fd5b6001600460008282546157329190618647565b92505081905550600454600981905550600160206000600954815260200190815260200160002060006101000a81548160ff0219169083151502179055504260216000600954815260200190815260200160002081905550565b600080670de0b6b3a76400006008546157a591906186ce565b9050600160009054906101000a900473ffffffffffffffffffffffffffffffffffffffff1673ffffffffffffffffffffffffffffffffffffffff166323b872dd33601160009054906101000a900473ffffffffffffffffffffffffffffffffffffffff16846040518463ffffffff1660e01b815260040161582893929190617fdd565b602060405180830381600087803b15801561584257600080fd5b505af1158015615856573d6000803e3d6000fd5b505050506040513d601f19601f8201168201806040525081019061587a91906176ca565b6158b9576040517f08c379a00000000000000000000000000000000000000000000000000000000081526004016158b09061824b565b60405180910390fd5b600191505090565b600060226000600954815260200190815260200160002060003373ffffffffffffffffffffffffffffffffffffffff1673ffffffffffffffffffffffffffffffffffffffff16815260200190815260200160002054601c60006009548152602001908152602001600020600082825461593a9190618728565b92505081905550600d60009054906101000a900473ffffffffffffffffffffffffffffffffffffffff1673ffffffffffffffffffffffffffffffffffffffff16635364df49336040518263ffffffff1660e01b815260040161599c9190617f99565b60206040518083038186803b1580156159b457600080fd5b505afa1580156159c8573d6000803e3d6000fd5b505050506040513d601f19601f820116820180604052508101906159ec919061793a565b600e60009054906101000a900473ffffffffffffffffffffffffffffffffffffffff1673ffffffffffffffffffffffffffffffffffffffff16635364df49336040518263ffffffff1660e01b8152600401615a479190617f99565b60206040518083038186803b158015615a5f57600080fd5b505afa158015615a73573d6000803e3d6000fd5b505050506040513d601f19601f82011682018060405250810190615a97919061793a565b615aa19190618647565b905080601c600060095481526020019081526020016000206000828254615ac89190618647565b925050819055508060226000600954815260200190815260200160002060003373ffffffffffffffffffffffffffffffffffffffff1673ffffffffffffffffffffffffffffffffffffffff1681526020019081526020016000208190555090565b6000601b600060095481526020019081526020016000208054615b4b906189b0565b80601f0160208091040260200160405190810160405280929190818152602001828054615b77906189b0565b8015615bc45780601f10615b9957610100808354040283529160200191615bc4565b820191906000526020600020905b815481529060010190602001808311615ba757829003601f168201915b505050505090506001601e6000600954815260200190815260200160002060006101000a81548160ff02191690831515021790555042601d60006009548152602001908152602001600020819055506009543373ffffffffffffffffffffffffffffffffffffffff167f0f36aea5066f9f90a999260fe4ce8d7713f7f07f5ae61bf36d73cc51170a3a9e60035442615c5c9190618647565b84604051615c6b929190618431565b60405180910390a350565b600080600c60009054906101000a900473ffffffffffffffffffffffffffffffffffffffff1673ffffffffffffffffffffffffffffffffffffffff1663b80e44b885856040518363ffffffff1660e01b8152600401615cd6929190618014565b60206040518083038186803b158015615cee57600080fd5b505afa158015615d02573d6000803e3d6000fd5b505050506040513d601f19601f82011682018060405250810190615d26919061793a565b905080600160009054906101000a900473ffffffffffffffffffffffffffffffffffffffff1673ffffffffffffffffffffffffffffffffffffffff1663dd62ed3e30600b60009054906101000a900473ffffffffffffffffffffffffffffffffffffffff166040518363ffffffff1660e01b8152600401615da8929190617fb4565b60206040518083038186803b158015615dc057600080fd5b505afa158015615dd4573d6000803e3d6000fd5b505050506040513d601f19601f82011682018060405250810190615df8919061793a565b1015615f7057600160009054906101000a900473ffffffffffffffffffffffffffffffffffffffff1673ffffffffffffffffffffffffffffffffffffffff1663095ea7b3600b60009054906101000a900473ffffffffffffffffffffffffffffffffffffffff16600160009054906101000a900473ffffffffffffffffffffffffffffffffffffffff1673ffffffffffffffffffffffffffffffffffffffff166318160ddd6040518163ffffffff1660e01b815260040160206040518083038186803b158015615ec757600080fd5b505afa158015615edb573d6000803e3d6000fd5b505050506040513d601f19601f82011682018060405250810190615eff919061793a565b6040518363ffffffff1660e01b8152600401615f1c929190618014565b602060405180830381600087803b158015615f3657600080fd5b505af1158015615f4a573d6000803e3d6000fd5b505050506040513d601f19601f82011682018060405250810190615f6e91906176ca565b505b600073ffffffffffffffffffffffffffffffffffffffff168473ffffffffffffffffffffffffffffffffffffffff1614156160c457348314615fe7576040517f08c379a0000000000000000000000000000000000000000000000000000000008152600401615fde906182ab565b60405180910390fd5b600b60009054906101000a900473ffffffffffffffffffffffffffffffffffffffff1673ffffffffffffffffffffffffffffffffffffffff166393cac68584838688600d60009054906101000a900473ffffffffffffffffffffffffffffffffffffffff166040518663ffffffff1660e01b815260040161606b949392919061848a565b6020604051808303818588803b15801561608457600080fd5b505af1158015616098573d6000803e3d6000fd5b50505050506040513d601f19601f820116820180604052508101906160bd919061793a565b9150616414565b8373ffffffffffffffffffffffffffffffffffffffff166323b872dd3330866040518463ffffffff1660e01b815260040161610193929190617fdd565b602060405180830381600087803b15801561611b57600080fd5b505af115801561612f573d6000803e3d6000fd5b505050506040513d601f19601f8201168201806040525081019061615391906176ca565b50828473ffffffffffffffffffffffffffffffffffffffff1663dd62ed3e30600b60009054906101000a900473ffffffffffffffffffffffffffffffffffffffff166040518363ffffffff1660e01b81526004016161b2929190617fb4565b60206040518083038186803b1580156161ca57600080fd5b505afa1580156161de573d6000803e3d6000fd5b505050506040513d601f19601f82011682018060405250810190616202919061793a565b101561633c5760008473ffffffffffffffffffffffffffffffffffffffff166318160ddd6040518163ffffffff1660e01b815260040160206040518083038186803b15801561625057600080fd5b505afa158015616264573d6000803e3d6000fd5b505050506040513d601f19601f82011682018060405250810190616288919061793a565b90508473ffffffffffffffffffffffffffffffffffffffff1663095ea7b3600b60009054906101000a900473ffffffffffffffffffffffffffffffffffffffff16836040518363ffffffff1660e01b81526004016162e7929190618014565b602060405180830381600087803b15801561630157600080fd5b505af1158015616315573d6000803e3d6000fd5b505050506040513d601f19601f8201168201806040525081019061633991906176ca565b50505b600b60009054906101000a900473ffffffffffffffffffffffffffffffffffffffff1673ffffffffffffffffffffffffffffffffffffffff166393cac685828587600d60009054906101000a900473ffffffffffffffffffffffffffffffffffffffff166040518563ffffffff1660e01b81526004016163bf949392919061848a565b602060405180830381600087803b1580156163d957600080fd5b505af11580156163ed573d6000803e3d6000fd5b505050506040513d601f19601f82011682018060405250810190616411919061793a565b91505b5092915050565b6000601a600083815260200190815260200160002060009054906101000a900473ffffffffffffffffffffffffffffffffffffffff169050600073ffffffffffffffffffffffffffffffffffffffff168173ffffffffffffffffffffffffffffffffffffffff1614156164c3576040517f08c379a00000000000000000000000000000000000000000000000000000000081526004016164ba9061836b565b60405180910390fd5b80600a60016101000a81548173ffffffffffffffffffffffffffffffffffffffff021916908373ffffffffffffffffffffffffffffffffffffffff160217905550600160009054906101000a900473ffffffffffffffffffffffffffffffffffffffff1673ffffffffffffffffffffffffffffffffffffffff16631d007f5f826040518263ffffffff1660e01b815260040161655f9190617f99565b600060405180830381600087803b15801561657957600080fd5b505af115801561658d573d6000803e3d6000fd5b505050506001600a60006101000a81548160ff0219169083151502179055506165b582616fe9565b5050565b6000601a600083815260200190815260200160002060009054906101000a900473ffffffffffffffffffffffffffffffffffffffff169050600073ffffffffffffffffffffffffffffffffffffffff168173ffffffffffffffffffffffffffffffffffffffff161415616661576040517f08c379a00000000000000000000000000000000000000000000000000000000081526004016166589061836b565b60405180910390fd5b80600b60006101000a81548173ffffffffffffffffffffffffffffffffffffffff021916908373ffffffffffffffffffffffffffffffffffffffff1602179055506166ab82616fe9565b5050565b6000601a600083815260200190815260200160002060009054906101000a900473ffffffffffffffffffffffffffffffffffffffff169050600073ffffffffffffffffffffffffffffffffffffffff168173ffffffffffffffffffffffffffffffffffffffff161415616757576040517f08c379a000000000000000000000000000000000000000000000000000000000815260040161674e9061836b565b60405180910390fd5b80600c60006101000a81548173ffffffffffffffffffffffffffffffffffffffff021916908373ffffffffffffffffffffffffffffffffffffffff1602179055506167a182616fe9565b5050565b6000601a600083815260200190815260200160002060009054906101000a900473ffffffffffffffffffffffffffffffffffffffff169050600073ffffffffffffffffffffffffffffffffffffffff168173ffffffffffffffffffffffffffffffffffffffff16141561684d576040517f08c379a00000000000000000000000000000000000000000000000000000000081526004016168449061836b565b60405180910390fd5b80601160006101000a81548173ffffffffffffffffffffffffffffffffffffffff021916908373ffffffffffffffffffffffffffffffffffffffff16021790555061689782616fe9565b5050565b600160009054906101000a900473ffffffffffffffffffffffffffffffffffffffff1673ffffffffffffffffffffffffffffffffffffffff1663fe1fa8fa6040518163ffffffff1660e01b8152600401600060405180830381600087803b15801561690557600080fd5b505af1158015616919573d6000803e3d6000fd5b5050505061692681616fe9565b50565b6000601960008381526020019081526020016000205490506000811415616985576040517f08c379a000000000000000000000000000000000000000000000000000000000815260040161697c9061826b565b60405180910390fd5b8060038190555061699582616fe9565b5050565b60006019600083815260200190815260200160002054905060008114156169f5576040517f08c379a00000000000000000000000000000000000000000000000000000000081526004016169ec9061826b565b60405180910390fd5b80600681905550616a0582616fe9565b5050565b6000601960008381526020019081526020016000205490506000601a600084815260200190815260200160002060009054906101000a900473ffffffffffffffffffffffffffffffffffffffff1690506000821415616a9d576040517f08c379a0000000000000000000000000000000000000000000000000000000008152600401616a949061826b565b60405180910390fd5b600073ffffffffffffffffffffffffffffffffffffffff168173ffffffffffffffffffffffffffffffffffffffff161415616b0d576040517f08c379a0000000000000000000000000000000000000000000000000000000008152600401616b049061836b565b60405180910390fd5b601160009054906101000a900473ffffffffffffffffffffffffffffffffffffffff1673ffffffffffffffffffffffffffffffffffffffff16637d458baa83836040518363ffffffff1660e01b8152600401616b6a929190618408565b600060405180830381600087803b158015616b8457600080fd5b505af1158015616b98573d6000803e3d6000fd5b50505050616ba583616fe9565b505050565b60006a02116545850052128000009050600160009054906101000a900473ffffffffffffffffffffffffffffffffffffffff1673ffffffffffffffffffffffffffffffffffffffff1663d01f6fba82306040518363ffffffff1660e01b8152600401616c17929190618408565b600060405180830381600087803b158015616c3157600080fd5b505af1158015616c45573d6000803e3d6000fd5b50505050616c5282616fe9565b5050565b6000601a600083815260200190815260200160002060009054906101000a900473ffffffffffffffffffffffffffffffffffffffff169050601760008273ffffffffffffffffffffffffffffffffffffffff1673ffffffffffffffffffffffffffffffffffffffff16815260200190815260200160002060009054906101000a900460ff16616d9b576001601760008373ffffffffffffffffffffffffffffffffffffffff1673ffffffffffffffffffffffffffffffffffffffff16815260200190815260200160002060006101000a81548160ff0219169083151502179055506014819080600181540180825580915050600190039060005260206000200160009091909190916101000a81548173ffffffffffffffffffffffffffffffffffffffff021916908373ffffffffffffffffffffffffffffffffffffffff1602179055505b616da482616fe9565b5050565b6000601a600083815260200190815260200160002060009054906101000a900473ffffffffffffffffffffffffffffffffffffffff1690506000601760008373ffffffffffffffffffffffffffffffffffffffff1673ffffffffffffffffffffffffffffffffffffffff16815260200190815260200160002060006101000a81548160ff021916908315150217905550616e4182616fe9565b5050565b6000601a600083815260200190815260200160002060009054906101000a900473ffffffffffffffffffffffffffffffffffffffff169050600f60009054906101000a900473ffffffffffffffffffffffffffffffffffffffff1673ffffffffffffffffffffffffffffffffffffffff16632b2260a8826040518263ffffffff1660e01b8152600401616ed89190617f99565b600060405180830381600087803b158015616ef257600080fd5b505af1158015616f06573d6000803e3d6000fd5b50505050616f1382616fe9565b5050565b6000601a600083815260200190815260200160002060009054906101000a900473ffffffffffffffffffffffffffffffffffffffff169050600f60009054906101000a900473ffffffffffffffffffffffffffffffffffffffff1673ffffffffffffffffffffffffffffffffffffffff16637ca51fbf826040518263ffffffff1660e01b8152600401616faa9190617f99565b600060405180830381600087803b158015616fc457600080fd5b505af1158015616fd8573d6000803e3d6000fd5b50505050616fe582616fe9565b5050565b6000601b60008381526020019081526020016000208054617009906189b0565b80601f0160208091040260200160405190810160405280929190818152602001828054617035906189b0565b80156170825780601f1061705757610100808354040283529160200191617082565b820191906000526020600020905b81548152906001019060200180831161706557829003601f168201915b50505050509050813373ffffffffffffffffffffffffffffffffffffffff167f28fca9bc3d4a734a707bd9396d50341c1f45e1d455c4aa4a58ceee0e09f64544601c600086815260200190815260200160002054600e60009054906101000a900473ffffffffffffffffffffffffffffffffffffffff1673ffffffffffffffffffffffffffffffffffffffff166396c82e576040518163ffffffff1660e01b815260040160206040518083038186803b15801561713e57600080fd5b505afa158015617152573d6000803e3d6000fd5b505050506040513d601f19601f82011682018060405250810190617176919061793a565b85604051617186939291906184cf565b60405180910390a36000601c6000848152602001908152602001600020819055506001601f600084815260200190815260200160002060006101000a81548160ff0219169083151502179055506000601e600084815260200190815260200160002060006101000a81548160ff02191690831515021790555060006020600084815260200190815260200160002060006101000a81548160ff0219169083151502179055505050565b82805461723b906189b0565b90600052602060002090601f01602090048101928261725d57600085556172a4565b82601f1061727657805160ff19168380011785556172a4565b828001600101855582156172a4579182015b828111156172a3578251825591602001919060010190617288565b5b5090506172b19190617324565b5090565b6040518061014001604052806000815260200160608152602001600081526020016000815260200160001515815260200160001515815260200160008152602001600073ffffffffffffffffffffffffffffffffffffffff168152602001600015158152602001600081525090565b5b8082111561733d576000816000905550600101617325565b5090565b600061735461734f84618569565b618544565b90508281526020810184848401111561736c57600080fd5b61737784828561896e565b509392505050565b600061739261738d8461859a565b618544565b9050828152602081018484840111156173aa57600080fd5b6173b584828561896e565b509392505050565b6000813590506173cc81618de2565b92915050565b6000815190506173e181618df9565b92915050565b6000815190506173f681618e10565b92915050565b600082601f83011261740d57600080fd5b813561741d848260208601617341565b91505092915050565b60008151905061743581618e27565b92915050565b60008151905061744a81618e3e565b92915050565b60008151905061745f81618e55565b92915050565b60008151905061747481618e6c565b92915050565b60008151905061748981618e83565b92915050565b60008151905061749e81618e9a565b92915050565b6000815190506174b381618eb1565b92915050565b6000815190506174c881618ec8565b92915050565b600082601f8301126174df57600080fd5b81356174ef84826020860161737f565b91505092915050565b60008135905061750781618edf565b92915050565b60008151905061751c81618edf565b92915050565b60008135905061753181618ef6565b92915050565b60006020828403121561754957600080fd5b6000617557848285016173bd565b91505092915050565b6000806040838503121561757357600080fd5b6000617581858286016173bd565b9250506020617592858286016173bd565b9150509250929050565b6000806000606084860312156175b157600080fd5b60006175bf868287016173bd565b93505060206175d0868287016173bd565b92505060406175e1868287016173bd565b9150509250925092565b600080604083850312156175fe57600080fd5b600061760c858286016173bd565b925050602083013567ffffffffffffffff81111561762957600080fd5b617635858286016174ce565b9150509250929050565b6000806040838503121561765257600080fd5b6000617660858286016173bd565b9250506020617671858286016174f8565b9150509250929050565b60008060006060848603121561769057600080fd5b600061769e868287016173bd565b93505060206176af868287016174f8565b92505060406176c0868287016173bd565b9150509250925092565b6000602082840312156176dc57600080fd5b60006176ea848285016173d2565b91505092915050565b60006020828403121561770557600080fd5b6000617713848285016173e7565b91505092915050565b6000806040838503121561772f57600080fd5b600083013567ffffffffffffffff81111561774957600080fd5b617755858286016173fc565b925050602083013567ffffffffffffffff81111561777257600080fd5b61777e858286016173fc565b9150509250929050565b60006020828403121561779a57600080fd5b60006177a884828501617426565b91505092915050565b6000602082840312156177c357600080fd5b60006177d18482850161743b565b91505092915050565b6000602082840312156177ec57600080fd5b60006177fa84828501617450565b91505092915050565b60006020828403121561781557600080fd5b600061782384828501617465565b91505092915050565b60006020828403121561783e57600080fd5b600061784c8482850161747a565b91505092915050565b60006020828403121561786757600080fd5b60006178758482850161748f565b91505092915050565b60006020828403121561789057600080fd5b600061789e848285016174a4565b91505092915050565b6000602082840312156178b957600080fd5b60006178c7848285016174b9565b91505092915050565b6000602082840312156178e257600080fd5b600082013567ffffffffffffffff8111156178fc57600080fd5b617908848285016174ce565b91505092915050565b60006020828403121561792357600080fd5b6000617931848285016174f8565b91505092915050565b60006020828403121561794c57600080fd5b600061795a8482850161750d565b91505092915050565b6000806040838503121561797657600080fd5b6000617984858286016174f8565b9250506020617995858286016173bd565b9150509250929050565b600080604083850312156179b257600080fd5b60006179c085828601617522565b925050602083013567ffffffffffffffff8111156179dd57600080fd5b6179e9858286016174ce565b9150509250929050565b600080600080600060a08688031215617a0b57600080fd5b6000617a1988828901617522565b9550506020617a2a88828901617522565b9450506040617a3b88828901617522565b9350506060617a4c88828901617522565b9250506080617a5d88828901617522565b9150509295509295909350565b6000617a768383617a82565b60208301905092915050565b617a8b8161875c565b82525050565b617a9a8161875c565b82525050565b6000617aab826185db565b617ab58185618609565b9350617ac0836185cb565b8060005b83811015617af1578151617ad88882617a6a565b9750617ae3836185fc565b925050600181019050617ac4565b5085935050505092915050565b617b078161876e565b82525050565b617b168161876e565b82525050565b6000617b27826185e6565b617b31818561861a565b9350617b4181856020860161897d565b80840191505092915050565b617b568161884e565b82525050565b617b6581618872565b82525050565b617b7481618896565b82525050565b617b83816188ba565b82525050565b617b92816188de565b82525050565b617ba181618902565b82525050565b617bb081618926565b82525050565b617bbf8161894a565b82525050565b6000617bd0826185f1565b617bda8185618625565b9350617bea81856020860161897d565b617bf381618b18565b840191505092915050565b6000617c09826185f1565b617c138185618636565b9350617c2381856020860161897d565b617c2c81618b18565b840191505092915050565b6000617c44600683618636565b9150617c4f82618b29565b602082019050919050565b6000617c67600783618636565b9150617c7282618b52565b602082019050919050565b6000617c8a600783618636565b9150617c9582618b7b565b602082019050919050565b6000617cad600783618636565b9150617cb882618ba4565b602082019050919050565b6000617cd0600583618636565b9150617cdb82618bcd565b602082019050919050565b6000617cf3600483618636565b9150617cfe82618bf6565b602082019050919050565b6000617d16601183618636565b9150617d2182618c1f565b602082019050919050565b6000617d39600883618636565b9150617d4482618c48565b602082019050919050565b6000617d5c600883618636565b9150617d6782618c71565b602082019050919050565b6000617d7f600a83618636565b9150617d8a82618c9a565b602082019050919050565b6000617da2600b83618636565b9150617dad82618cc3565b602082019050919050565b6000617dc5600783618636565b9150617dd082618cec565b602082019050919050565b6000617de8600883618636565b9150617df382618d15565b602082019050919050565b6000617e0b600983618636565b9150617e1682618d3e565b602082019050919050565b6000617e2e601383618636565b9150617e3982618d67565b602082019050919050565b6000617e51600683618636565b9150617e5c82618d90565b602082019050919050565b6000617e74600583618636565b9150617e7f82618db9565b602082019050919050565b600061014083016000830151617ea36000860182617f64565b5060208301518482036020860152617ebb8282617bc5565b9150506040830151617ed06040860182617f64565b506060830151617ee36060860182617f64565b506080830151617ef66080860182617afe565b5060a0830151617f0960a0860182617afe565b5060c0830151617f1c60c0860182617f64565b5060e0830151617f2f60e0860182617a82565b50610100830151617f44610100860182617afe565b50610120830151617f59610120860182617f64565b508091505092915050565b617f6d81618834565b82525050565b617f7c81618834565b82525050565b6000617f8e8284617b1c565b915081905092915050565b6000602082019050617fae6000830184617a91565b92915050565b6000604082019050617fc96000830185617a91565b617fd66020830184617a91565b9392505050565b6000606082019050617ff26000830186617a91565b617fff6020830185617a91565b61800c6040830184617f73565b949350505050565b60006040820190506180296000830185617a91565b6180366020830184617f73565b9392505050565b60006060820190506180526000830186617a91565b61805f6020830185617f73565b61806c6040830184617a91565b949350505050565b6000602082019050818103600083015261808e8184617aa0565b905092915050565b60006020820190506180ab6000830184617b0d565b92915050565b60006020820190506180c66000830184617b4d565b92915050565b60006020820190506180e16000830184617b5c565b92915050565b60006020820190506180fc6000830184617b6b565b92915050565b60006020820190506181176000830184617b7a565b92915050565b60006020820190506181326000830184617b89565b92915050565b600060208201905061814d6000830184617b98565b92915050565b60006020820190506181686000830184617ba7565b92915050565b60006020820190506181836000830184617bb6565b92915050565b600060208201905081810360008301526181a38184617bfe565b905092915050565b600060208201905081810360008301526181c481617c37565b9050919050565b600060208201905081810360008301526181e481617c5a565b9050919050565b6000602082019050818103600083015261820481617c7d565b9050919050565b6000602082019050818103600083015261822481617ca0565b9050919050565b6000602082019050818103600083015261824481617cc3565b9050919050565b6000602082019050818103600083015261826481617ce6565b9050919050565b6000602082019050818103600083015261828481617d09565b9050919050565b600060208201905081810360008301526182a481617d2c565b9050919050565b600060208201905081810360008301526182c481617d4f565b9050919050565b600060208201905081810360008301526182e481617d72565b9050919050565b6000602082019050818103600083015261830481617d95565b9050919050565b6000602082019050818103600083015261832481617db8565b9050919050565b6000602082019050818103600083015261834481617ddb565b9050919050565b6000602082019050818103600083015261836481617dfe565b9050919050565b6000602082019050818103600083015261838481617e21565b9050919050565b600060208201905081810360008301526183a481617e44565b9050919050565b600060208201905081810360008301526183c481617e67565b9050919050565b600060208201905081810360008301526183e58184617e8a565b905092915050565b60006020820190506184026000830184617f73565b92915050565b600060408201905061841d6000830185617f73565b61842a6020830184617a91565b9392505050565b60006040820190506184466000830185617f73565b81810360208301526184588184617bfe565b90509392505050565b60006040820190506184766000830185617f73565b6184836020830184617f73565b9392505050565b600060808201905061849f6000830187617f73565b6184ac6020830186617f73565b6184b96040830185617a91565b6184c66060830184617a91565b95945050505050565b60006060820190506184e46000830186617f73565b6184f16020830185617f73565b81810360408301526185038184617bfe565b9050949350505050565b60006060820190506185226000830186617f73565b61852f6020830185617f73565b61853c6040830184617f73565b949350505050565b600061854e61855f565b905061855a82826189e2565b919050565b6000604051905090565b600067ffffffffffffffff82111561858457618583618ae9565b5b61858d82618b18565b9050602081019050919050565b600067ffffffffffffffff8211156185b5576185b4618ae9565b5b6185be82618b18565b9050602081019050919050565b6000819050602082019050919050565b600081519050919050565b600081519050919050565b600081519050919050565b6000602082019050919050565b600082825260208201905092915050565b600081905092915050565b600082825260208201905092915050565b600082825260208201905092915050565b600061865282618834565b915061865d83618834565b9250827fffffffffffffffffffffffffffffffffffffffffffffffffffffffffffffffff0382111561869257618691618a5c565b5b828201905092915050565b60006186a882618834565b91506186b383618834565b9250826186c3576186c2618a8b565b5b828204905092915050565b60006186d982618834565b91506186e483618834565b9250817fffffffffffffffffffffffffffffffffffffffffffffffffffffffffffffffff048311821515161561871d5761871c618a5c565b5b828202905092915050565b600061873382618834565b915061873e83618834565b92508282101561875157618750618a5c565b5b828203905092915050565b600061876782618814565b9050919050565b60008115159050919050565b6000819050919050565b600061878f8261875c565b9050919050565b60006187a18261875c565b9050919050565b60006187b38261875c565b9050919050565b60006187c58261875c565b9050919050565b60006187d78261875c565b9050919050565b60006187e98261875c565b9050919050565b60006187fb8261875c565b9050919050565b600061880d8261875c565b9050919050565b600073ffffffffffffffffffffffffffffffffffffffff82169050919050565b6000819050919050565b600063ffffffff82169050919050565b600061885982618860565b9050919050565b600061886b82618814565b9050919050565b600061887d82618884565b9050919050565b600061888f82618814565b9050919050565b60006188a1826188a8565b9050919050565b60006188b382618814565b9050919050565b60006188c5826188cc565b9050919050565b60006188d782618814565b9050919050565b60006188e9826188f0565b9050919050565b60006188fb82618814565b9050919050565b600061890d82618914565b9050919050565b600061891f82618814565b9050919050565b600061893182618938565b9050919050565b600061894382618814565b9050919050565b60006189558261895c565b9050919050565b600061896782618814565b9050919050565b82818337600083830152505050565b60005b8381101561899b578082015181840152602081019050618980565b838111156189aa576000848401525b50505050565b600060028204905060018216806189c857607f821691505b602082108114156189dc576189db618aba565b5b50919050565b6189eb82618b18565b810181811067ffffffffffffffff82111715618a0a57618a09618ae9565b5b80604052505050565b6000618a1e82618834565b91507fffffffffffffffffffffffffffffffffffffffffffffffffffffffffffffffff821415618a5157618a50618a5c565b5b600182019050919050565b7f4e487b7100000000000000000000000000000000000000000000000000000000600052601160045260246000fd5b7f4e487b7100000000000000000000000000000000000000000000000000000000600052601260045260246000fd5b7f4e487b7100000000000000000000000000000000000000000000000000000000600052602260045260246000fd5b7f4e487b7100000000000000000000000000000000000000000000000000000000600052604160045260246000fd5b6000601f19601f8301169050919050565b7f2146554e44530000000000000000000000000000000000000000000000000000600082015250565b7f216c697374656400000000000000000000000000000000000000000000000000600082015250565b7f2131354441595300000000000000000000000000000000000000000000000000600082015250565b7f21416d6f756e7400000000000000000000000000000000000000000000000000600082015250565b7f214f50454e000000000000000000000000000000000000000000000000000000600082015250565b7f2166656500000000000000000000000000000000000000000000000000000000600082015250565b7f4e6f20706172616d2070726f706f736564000000000000000000000000000000600082015250565b7f21636f6f6c6f6666000000000000000000000000000000000000000000000000600082015250565b7f496e707574457272000000000000000000000000000000000000000000000000600082015250565b7f21454d495353494f4e5300000000000000000000000000000000000000000000600082015250565b7f2166696e616c6973696e67000000000000000000000000000000000000000000600082015250565b7f216d656d62657200000000000000000000000000000000000000000000000000600082015250565b7f2143757261746564000000000000000000000000000000000000000000000000600082015250565b7f217472616e736665720000000000000000000000000000000000000000000000600082015250565b7f4e6f20616464726573732070726f706f73656400000000000000000000000000600082015250565b7f2161737365740000000000000000000000000000000000000000000000000000600082015250565b7f216f70656e000000000000000000000000000000000000000000000000000000600082015250565b618deb8161875c565b8114618df657600080fd5b50565b618e028161876e565b8114618e0d57600080fd5b50565b618e198161877a565b8114618e2457600080fd5b50565b618e3081618784565b8114618e3b57600080fd5b50565b618e4781618796565b8114618e5257600080fd5b50565b618e5e816187a8565b8114618e6957600080fd5b50565b618e75816187ba565b8114618e8057600080fd5b50565b618e8c816187cc565b8114618e9757600080fd5b50565b618ea3816187de565b8114618eae57600080fd5b50565b618eba816187f0565b8114618ec557600080fd5b50565b618ed181618802565b8114618edc57600080fd5b50565b618ee881618834565b8114618ef357600080fd5b50565b618eff8161883e565b8114618f0a57600080fd5b5056fea2646970667358221220ab15d30a5765349178b9dc8a24d52df244ee3496bf655ac5079d87aa3bd037b464736f6c63430008030033",
  "linkReferences": {},
  "deployedLinkReferences": {}
}