{
  "_format": "hh-sol-artifact-1",
  "contractName": "Dao",
  "sourceName": "contracts/Dao.sol",
  "abi": [
    {
      "inputs": [
        {
          "internalType": "address",
          "name": "_base",
          "type": "address"
        }
      ],
      "stateMutability": "nonpayable",
      "type": "constructor"
    },
    {
      "anonymous": false,
      "inputs": [
        {
          "indexed": true,
          "internalType": "address",
          "name": "member",
          "type": "address"
        },
        {
          "indexed": true,
          "internalType": "uint256",
          "name": "oldProposalID",
          "type": "uint256"
        },
        {
          "indexed": false,
          "internalType": "uint256",
          "name": "oldVotes",
          "type": "uint256"
        },
        {
          "indexed": false,
          "internalType": "uint256",
          "name": "newVotes",
          "type": "uint256"
        },
        {
          "indexed": false,
          "internalType": "uint256",
          "name": "totalWeight",
          "type": "uint256"
        }
      ],
      "name": "CancelProposal",
      "type": "event"
    },
    {
      "anonymous": false,
      "inputs": [
        {
          "indexed": true,
          "internalType": "address",
          "name": "DAO",
          "type": "address"
        },
        {
          "indexed": true,
          "internalType": "address",
          "name": "asset",
          "type": "address"
        }
      ],
      "name": "DelistedAsset",
      "type": "event"
    },
    {
      "anonymous": false,
      "inputs": [
        {
          "indexed": true,
          "internalType": "address",
          "name": "owner",
          "type": "address"
        },
        {
          "indexed": false,
          "internalType": "uint256",
          "name": "depositAmount",
          "type": "uint256"
        },
        {
          "indexed": false,
          "internalType": "uint256",
          "name": "bondedLP",
          "type": "uint256"
        }
      ],
      "name": "DepositAsset",
      "type": "event"
    },
    {
      "anonymous": false,
      "inputs": [
        {
          "indexed": true,
          "internalType": "address",
          "name": "member",
          "type": "address"
        },
        {
          "indexed": true,
          "internalType": "uint256",
          "name": "proposalID",
          "type": "uint256"
        },
        {
          "indexed": false,
          "internalType": "uint256",
          "name": "votesCast",
          "type": "uint256"
        },
        {
          "indexed": false,
          "internalType": "uint256",
          "name": "totalWeight",
          "type": "uint256"
        },
        {
          "indexed": false,
          "internalType": "string",
          "name": "proposalType",
          "type": "string"
        }
      ],
      "name": "FinalisedProposal",
      "type": "event"
    },
    {
      "anonymous": false,
      "inputs": [
        {
          "indexed": true,
          "internalType": "address",
          "name": "DAO",
          "type": "address"
        },
        {
          "indexed": true,
          "internalType": "address",
          "name": "asset",
          "type": "address"
        }
      ],
      "name": "ListedAsset",
      "type": "event"
    },
    {
      "anonymous": false,
      "inputs": [
        {
          "indexed": true,
          "internalType": "address",
          "name": "member",
          "type": "address"
        },
        {
          "indexed": true,
          "internalType": "address",
          "name": "pool",
          "type": "address"
        },
        {
          "indexed": false,
          "internalType": "uint256",
          "name": "amount",
          "type": "uint256"
        }
      ],
      "name": "MemberDeposits",
      "type": "event"
    },
    {
      "anonymous": false,
      "inputs": [
        {
          "indexed": true,
          "internalType": "address",
          "name": "member",
          "type": "address"
        },
        {
          "indexed": true,
          "internalType": "address",
          "name": "pool",
          "type": "address"
        },
        {
          "indexed": false,
          "internalType": "uint256",
          "name": "balance",
          "type": "uint256"
        }
      ],
      "name": "MemberWithdraws",
      "type": "event"
    },
    {
      "anonymous": false,
      "inputs": [
        {
          "indexed": true,
          "internalType": "address",
          "name": "member",
          "type": "address"
        },
        {
          "indexed": true,
          "internalType": "uint256",
          "name": "proposalID",
          "type": "uint256"
        },
        {
          "indexed": false,
          "internalType": "string",
          "name": "proposalType",
          "type": "string"
        }
      ],
      "name": "NewProposal",
      "type": "event"
    },
    {
      "anonymous": false,
      "inputs": [
        {
          "indexed": true,
          "internalType": "address",
          "name": "member",
          "type": "address"
        },
        {
          "indexed": true,
          "internalType": "uint256",
          "name": "proposalID",
          "type": "uint256"
        },
        {
          "indexed": false,
          "internalType": "uint256",
          "name": "voteWeight",
          "type": "uint256"
        },
        {
          "indexed": false,
          "internalType": "uint256",
          "name": "totalVotes",
          "type": "uint256"
        },
        {
          "indexed": false,
          "internalType": "string",
          "name": "proposalType",
          "type": "string"
        }
      ],
      "name": "NewVote",
      "type": "event"
    },
    {
      "anonymous": false,
      "inputs": [
        {
          "indexed": true,
          "internalType": "address",
          "name": "member",
          "type": "address"
        },
        {
          "indexed": true,
          "internalType": "uint256",
          "name": "proposalID",
          "type": "uint256"
        },
        {
          "indexed": false,
          "internalType": "uint256",
          "name": "timeFinalised",
          "type": "uint256"
        },
        {
          "indexed": false,
          "internalType": "string",
          "name": "proposalType",
          "type": "string"
        }
      ],
      "name": "ProposalFinalising",
      "type": "event"
    },
    {
      "anonymous": false,
      "inputs": [
        {
          "indexed": true,
          "internalType": "address",
          "name": "member",
          "type": "address"
        },
        {
          "indexed": true,
          "internalType": "uint256",
          "name": "proposalID",
          "type": "uint256"
        },
        {
          "indexed": false,
          "internalType": "uint256",
          "name": "voteWeight",
          "type": "uint256"
        },
        {
          "indexed": false,
          "internalType": "uint256",
          "name": "totalVotes",
          "type": "uint256"
        },
        {
          "indexed": false,
          "internalType": "string",
          "name": "proposalType",
          "type": "string"
        }
      ],
      "name": "RemovedVote",
      "type": "event"
    },
    {
      "inputs": [],
      "name": "BASE",
      "outputs": [
        {
          "internalType": "address",
          "name": "",
          "type": "address"
        }
      ],
      "stateMutability": "view",
      "type": "function"
    },
    {
      "inputs": [],
      "name": "BONDVAULT",
      "outputs": [
        {
          "internalType": "contract iBONDVAULT",
          "name": "",
          "type": "address"
        }
      ],
      "stateMutability": "view",
      "type": "function"
    },
    {
      "inputs": [],
      "name": "DAO",
      "outputs": [
        {
          "internalType": "address",
          "name": "",
          "type": "address"
        }
      ],
      "stateMutability": "view",
      "type": "function"
    },
    {
      "inputs": [],
      "name": "DAOVAULT",
      "outputs": [
        {
          "internalType": "contract iDAOVAULT",
          "name": "",
          "type": "address"
        }
      ],
      "stateMutability": "view",
      "type": "function"
    },
    {
      "inputs": [],
      "name": "DEPLOYER",
      "outputs": [
        {
          "internalType": "address",
          "name": "",
          "type": "address"
        }
      ],
      "stateMutability": "view",
      "type": "function"
    },
    {
      "inputs": [],
      "name": "POOLFACTORY",
      "outputs": [
        {
          "internalType": "contract iPOOLFACTORY",
          "name": "",
          "type": "address"
        }
      ],
      "stateMutability": "view",
      "type": "function"
    },
    {
      "inputs": [],
      "name": "RESERVE",
      "outputs": [
        {
          "internalType": "contract iRESERVE",
          "name": "",
          "type": "address"
        }
      ],
      "stateMutability": "view",
      "type": "function"
    },
    {
      "inputs": [],
      "name": "ROUTER",
      "outputs": [
        {
          "internalType": "contract iROUTER",
          "name": "",
          "type": "address"
        }
      ],
      "stateMutability": "view",
      "type": "function"
    },
    {
      "inputs": [],
      "name": "SYNTHFACTORY",
      "outputs": [
        {
          "internalType": "contract iSYNTHFACTORY",
          "name": "",
          "type": "address"
        }
      ],
      "stateMutability": "view",
      "type": "function"
    },
    {
      "inputs": [],
      "name": "SYNTHVAULT",
      "outputs": [
        {
          "internalType": "contract iSYNTHVAULT",
          "name": "",
          "type": "address"
        }
      ],
      "stateMutability": "view",
      "type": "function"
    },
    {
      "inputs": [],
      "name": "UTILS",
      "outputs": [
        {
          "internalType": "contract iUTILS",
          "name": "",
          "type": "address"
        }
      ],
      "stateMutability": "view",
      "type": "function"
    },
    {
      "inputs": [],
      "name": "allListedAssets",
      "outputs": [
        {
          "internalType": "address[]",
          "name": "_allListedAssets",
          "type": "address[]"
        }
      ],
      "stateMutability": "view",
      "type": "function"
    },
    {
      "inputs": [
        {
          "internalType": "uint256",
          "name": "",
          "type": "uint256"
        }
      ],
      "name": "arrayMembers",
      "outputs": [
        {
          "internalType": "address",
          "name": "",
          "type": "address"
        }
      ],
      "stateMutability": "view",
      "type": "function"
    },
    {
      "inputs": [],
      "name": "assetListedCount",
      "outputs": [
        {
          "internalType": "uint256",
          "name": "count",
          "type": "uint256"
        }
      ],
      "stateMutability": "view",
      "type": "function"
    },
    {
      "inputs": [
        {
          "internalType": "address",
          "name": "asset",
          "type": "address"
        },
        {
          "internalType": "uint256",
          "name": "amount",
          "type": "uint256"
        }
      ],
      "name": "bond",
      "outputs": [
        {
          "internalType": "bool",
          "name": "success",
          "type": "bool"
        }
      ],
      "stateMutability": "payable",
      "type": "function"
    },
    {
      "inputs": [],
      "name": "bondingPeriodSeconds",
      "outputs": [
        {
          "internalType": "uint256",
          "name": "",
          "type": "uint256"
        }
      ],
      "stateMutability": "view",
      "type": "function"
    },
    {
      "inputs": [],
      "name": "burnBalance",
      "outputs": [
        {
          "internalType": "bool",
          "name": "",
          "type": "bool"
        }
      ],
      "stateMutability": "nonpayable",
      "type": "function"
    },
    {
      "inputs": [
        {
          "internalType": "address",
          "name": "bondedMember",
          "type": "address"
        },
        {
          "internalType": "address",
          "name": "asset",
          "type": "address"
        }
      ],
      "name": "calcClaimBondedLP",
      "outputs": [
        {
          "internalType": "uint256",
          "name": "",
          "type": "uint256"
        }
      ],
      "stateMutability": "nonpayable",
      "type": "function"
    },
    {
      "inputs": [
        {
          "internalType": "address",
          "name": "member",
          "type": "address"
        }
      ],
      "name": "calcCurrentReward",
      "outputs": [
        {
          "internalType": "uint256",
          "name": "",
          "type": "uint256"
        }
      ],
      "stateMutability": "view",
      "type": "function"
    },
    {
      "inputs": [
        {
          "internalType": "address",
          "name": "member",
          "type": "address"
        }
      ],
      "name": "calcReward",
      "outputs": [
        {
          "internalType": "uint256",
          "name": "",
          "type": "uint256"
        }
      ],
      "stateMutability": "view",
      "type": "function"
    },
    {
      "inputs": [
        {
          "internalType": "uint256",
          "name": "oldProposalID",
          "type": "uint256"
        },
        {
          "internalType": "uint256",
          "name": "newProposalID",
          "type": "uint256"
        }
      ],
      "name": "cancelProposal",
      "outputs": [],
      "stateMutability": "nonpayable",
      "type": "function"
    },
    {
      "inputs": [
        {
          "internalType": "uint256",
          "name": "bondingSeconds",
          "type": "uint256"
        }
      ],
      "name": "changeBondingPeriod",
      "outputs": [],
      "stateMutability": "nonpayable",
      "type": "function"
    },
    {
      "inputs": [
        {
          "internalType": "address",
          "name": "member",
          "type": "address"
        }
      ],
      "name": "claimAllForMember",
      "outputs": [
        {
          "internalType": "bool",
          "name": "",
          "type": "bool"
        }
      ],
      "stateMutability": "nonpayable",
      "type": "function"
    },
    {
      "inputs": [
        {
          "internalType": "address",
          "name": "asset",
          "type": "address"
        }
      ],
      "name": "claimForMember",
      "outputs": [
        {
          "internalType": "bool",
          "name": "",
          "type": "bool"
        }
      ],
      "stateMutability": "nonpayable",
      "type": "function"
    },
    {
      "inputs": [],
      "name": "coolOffPeriod",
      "outputs": [
        {
          "internalType": "uint256",
          "name": "",
          "type": "uint256"
        }
      ],
      "stateMutability": "view",
      "type": "function"
    },
    {
      "inputs": [],
      "name": "daoClaim",
      "outputs": [
        {
          "internalType": "uint256",
          "name": "",
          "type": "uint256"
        }
      ],
      "stateMutability": "view",
      "type": "function"
    },
    {
      "inputs": [],
      "name": "daoFee",
      "outputs": [
        {
          "internalType": "uint256",
          "name": "",
          "type": "uint256"
        }
      ],
      "stateMutability": "view",
      "type": "function"
    },
    {
      "inputs": [],
      "name": "daoHasMoved",
      "outputs": [
        {
          "internalType": "bool",
          "name": "",
          "type": "bool"
        }
      ],
      "stateMutability": "view",
      "type": "function"
    },
    {
      "inputs": [
        {
          "internalType": "address",
          "name": "asset",
          "type": "address"
        }
      ],
      "name": "delistBondAsset",
      "outputs": [
        {
          "internalType": "bool",
          "name": "",
          "type": "bool"
        }
      ],
      "stateMutability": "nonpayable",
      "type": "function"
    },
    {
      "inputs": [
        {
          "internalType": "address",
          "name": "pool",
          "type": "address"
        },
        {
          "internalType": "uint256",
          "name": "amount",
          "type": "uint256"
        }
      ],
      "name": "deposit",
      "outputs": [],
      "stateMutability": "nonpayable",
      "type": "function"
    },
    {
      "inputs": [
        {
          "internalType": "address",
          "name": "pool",
          "type": "address"
        },
        {
          "internalType": "uint256",
          "name": "amount",
          "type": "uint256"
        },
        {
          "internalType": "address",
          "name": "member",
          "type": "address"
        }
      ],
      "name": "depositLPForMember",
      "outputs": [],
      "stateMutability": "nonpayable",
      "type": "function"
    },
    {
      "inputs": [],
      "name": "erasToEarn",
      "outputs": [
        {
          "internalType": "uint256",
          "name": "",
          "type": "uint256"
        }
      ],
      "stateMutability": "view",
      "type": "function"
    },
    {
      "inputs": [
        {
          "internalType": "uint256",
          "name": "proposalID",
          "type": "uint256"
        }
      ],
      "name": "finaliseProposal",
      "outputs": [],
      "stateMutability": "nonpayable",
      "type": "function"
    },
    {
      "inputs": [
        {
          "internalType": "uint256",
          "name": "proposalID",
          "type": "uint256"
        }
      ],
      "name": "getProposalDetails",
      "outputs": [
        {
          "components": [
            {
              "internalType": "uint256",
              "name": "id",
              "type": "uint256"
            },
            {
              "internalType": "string",
              "name": "proposalType",
              "type": "string"
            },
            {
              "internalType": "uint256",
              "name": "votes",
              "type": "uint256"
            },
            {
              "internalType": "uint256",
              "name": "timeStart",
              "type": "uint256"
            },
            {
              "internalType": "bool",
              "name": "finalising",
              "type": "bool"
            },
            {
              "internalType": "bool",
              "name": "finalised",
              "type": "bool"
            },
            {
              "internalType": "uint256",
              "name": "param",
              "type": "uint256"
            },
            {
              "internalType": "address",
              "name": "proposedAddress",
              "type": "address"
            }
          ],
          "internalType": "struct Dao.ProposalDetails",
          "name": "proposalDetails",
          "type": "tuple"
        }
      ],
      "stateMutability": "view",
      "type": "function"
    },
    {
      "inputs": [],
      "name": "harvest",
      "outputs": [],
      "stateMutability": "nonpayable",
      "type": "function"
    },
    {
      "inputs": [
        {
          "internalType": "uint256",
          "name": "_proposalID",
          "type": "uint256"
        }
      ],
      "name": "hasMajority",
      "outputs": [
        {
          "internalType": "bool",
          "name": "",
          "type": "bool"
        }
      ],
      "stateMutability": "view",
      "type": "function"
    },
    {
      "inputs": [
        {
          "internalType": "uint256",
          "name": "_proposalID",
          "type": "uint256"
        }
      ],
      "name": "hasMinority",
      "outputs": [
        {
          "internalType": "bool",
          "name": "",
          "type": "bool"
        }
      ],
      "stateMutability": "view",
      "type": "function"
    },
    {
      "inputs": [
        {
          "internalType": "uint256",
          "name": "_proposalID",
          "type": "uint256"
        }
      ],
      "name": "hasQuorum",
      "outputs": [
        {
          "internalType": "bool",
          "name": "",
          "type": "bool"
        }
      ],
      "stateMutability": "view",
      "type": "function"
    },
    {
      "inputs": [
        {
          "internalType": "bytes",
          "name": "part1",
          "type": "bytes"
        },
        {
          "internalType": "bytes",
          "name": "part2",
          "type": "bytes"
        }
      ],
      "name": "isEqual",
      "outputs": [
        {
          "internalType": "bool",
          "name": "",
          "type": "bool"
        }
      ],
      "stateMutability": "pure",
      "type": "function"
    },
    {
      "inputs": [
        {
          "internalType": "address",
          "name": "",
          "type": "address"
        }
      ],
      "name": "isListed",
      "outputs": [
        {
          "internalType": "bool",
          "name": "",
          "type": "bool"
        }
      ],
      "stateMutability": "view",
      "type": "function"
    },
    {
      "inputs": [
        {
          "internalType": "address",
          "name": "",
          "type": "address"
        }
      ],
      "name": "isMember",
      "outputs": [
        {
          "internalType": "bool",
          "name": "",
          "type": "bool"
        }
      ],
      "stateMutability": "view",
      "type": "function"
    },
    {
      "inputs": [
        {
          "internalType": "address",
          "name": "asset",
          "type": "address"
        }
      ],
      "name": "listBondAsset",
      "outputs": [
        {
          "internalType": "bool",
          "name": "",
          "type": "bool"
        }
      ],
      "stateMutability": "nonpayable",
      "type": "function"
    },
    {
      "inputs": [],
      "name": "majorityFactor",
      "outputs": [
        {
          "internalType": "uint256",
          "name": "",
          "type": "uint256"
        }
      ],
      "stateMutability": "view",
      "type": "function"
    },
    {
      "inputs": [
        {
          "internalType": "address",
          "name": "",
          "type": "address"
        }
      ],
      "name": "mapMember_lastTime",
      "outputs": [
        {
          "internalType": "uint256",
          "name": "",
          "type": "uint256"
        }
      ],
      "stateMutability": "view",
      "type": "function"
    },
    {
      "inputs": [
        {
          "internalType": "uint256",
          "name": "",
          "type": "uint256"
        },
        {
          "internalType": "address",
          "name": "",
          "type": "address"
        }
      ],
      "name": "mapPIDMember_votes",
      "outputs": [
        {
          "internalType": "uint256",
          "name": "",
          "type": "uint256"
        }
      ],
      "stateMutability": "view",
      "type": "function"
    },
    {
      "inputs": [
        {
          "internalType": "uint256",
          "name": "",
          "type": "uint256"
        }
      ],
      "name": "mapPID_address",
      "outputs": [
        {
          "internalType": "address",
          "name": "",
          "type": "address"
        }
      ],
      "stateMutability": "view",
      "type": "function"
    },
    {
      "inputs": [
        {
          "internalType": "uint256",
          "name": "",
          "type": "uint256"
        }
      ],
      "name": "mapPID_finalised",
      "outputs": [
        {
          "internalType": "bool",
          "name": "",
          "type": "bool"
        }
      ],
      "stateMutability": "view",
      "type": "function"
    },
    {
      "inputs": [
        {
          "internalType": "uint256",
          "name": "",
          "type": "uint256"
        }
      ],
      "name": "mapPID_finalising",
      "outputs": [
        {
          "internalType": "bool",
          "name": "",
          "type": "bool"
        }
      ],
      "stateMutability": "view",
      "type": "function"
    },
    {
      "inputs": [
        {
          "internalType": "uint256",
          "name": "",
          "type": "uint256"
        }
      ],
      "name": "mapPID_param",
      "outputs": [
        {
          "internalType": "uint256",
          "name": "",
          "type": "uint256"
        }
      ],
      "stateMutability": "view",
      "type": "function"
    },
    {
      "inputs": [
        {
          "internalType": "uint256",
          "name": "",
          "type": "uint256"
        }
      ],
      "name": "mapPID_timeStart",
      "outputs": [
        {
          "internalType": "uint256",
          "name": "",
          "type": "uint256"
        }
      ],
      "stateMutability": "view",
      "type": "function"
    },
    {
      "inputs": [
        {
          "internalType": "uint256",
          "name": "",
          "type": "uint256"
        }
      ],
      "name": "mapPID_type",
      "outputs": [
        {
          "internalType": "string",
          "name": "",
          "type": "string"
        }
      ],
      "stateMutability": "view",
      "type": "function"
    },
    {
      "inputs": [
        {
          "internalType": "uint256",
          "name": "",
          "type": "uint256"
        }
      ],
      "name": "mapPID_votes",
      "outputs": [
        {
          "internalType": "uint256",
          "name": "",
          "type": "uint256"
        }
      ],
      "stateMutability": "view",
      "type": "function"
    },
    {
      "inputs": [],
      "name": "memberCount",
      "outputs": [
        {
          "internalType": "uint256",
          "name": "",
          "type": "uint256"
        }
      ],
      "stateMutability": "view",
      "type": "function"
    },
    {
      "inputs": [
        {
          "internalType": "address",
          "name": "newDAO",
          "type": "address"
        }
      ],
      "name": "moveBASEBalance",
      "outputs": [],
      "stateMutability": "nonpayable",
      "type": "function"
    },
    {
      "inputs": [
        {
          "internalType": "string",
          "name": "typeStr",
          "type": "string"
        }
      ],
      "name": "newActionProposal",
      "outputs": [
        {
          "internalType": "uint256",
          "name": "",
          "type": "uint256"
        }
      ],
      "stateMutability": "nonpayable",
      "type": "function"
    },
    {
      "inputs": [
        {
          "internalType": "address",
          "name": "proposedAddress",
          "type": "address"
        },
        {
          "internalType": "string",
          "name": "typeStr",
          "type": "string"
        }
      ],
      "name": "newAddressProposal",
      "outputs": [
        {
          "internalType": "uint256",
          "name": "",
          "type": "uint256"
        }
      ],
      "stateMutability": "nonpayable",
      "type": "function"
    },
    {
      "inputs": [
        {
          "internalType": "address",
          "name": "recipient",
          "type": "address"
        },
        {
          "internalType": "uint256",
          "name": "amount",
          "type": "uint256"
        }
      ],
      "name": "newGrantProposal",
      "outputs": [
        {
          "internalType": "uint256",
          "name": "",
          "type": "uint256"
        }
      ],
      "stateMutability": "nonpayable",
      "type": "function"
    },
    {
      "inputs": [
        {
          "internalType": "uint32",
          "name": "param",
          "type": "uint32"
        },
        {
          "internalType": "string",
          "name": "typeStr",
          "type": "string"
        }
      ],
      "name": "newParamProposal",
      "outputs": [
        {
          "internalType": "uint256",
          "name": "",
          "type": "uint256"
        }
      ],
      "stateMutability": "nonpayable",
      "type": "function"
    },
    {
      "inputs": [],
      "name": "proposalCount",
      "outputs": [
        {
          "internalType": "uint256",
          "name": "",
          "type": "uint256"
        }
      ],
      "stateMutability": "view",
      "type": "function"
    },
    {
      "inputs": [],
      "name": "purgeDeployer",
      "outputs": [],
      "stateMutability": "nonpayable",
      "type": "function"
    },
    {
      "inputs": [
        {
          "internalType": "uint256",
          "name": "proposalID",
          "type": "uint256"
        }
      ],
      "name": "removeVote",
      "outputs": [
        {
          "internalType": "uint256",
          "name": "voteWeightRemoved",
          "type": "uint256"
        }
      ],
      "stateMutability": "nonpayable",
      "type": "function"
    },
    {
      "inputs": [],
      "name": "secondsPerEra",
      "outputs": [
        {
          "internalType": "uint256",
          "name": "",
          "type": "uint256"
        }
      ],
      "stateMutability": "view",
      "type": "function"
    },
    {
      "inputs": [
        {
          "internalType": "address",
          "name": "_poolFactory",
          "type": "address"
        },
        {
          "internalType": "address",
          "name": "_synthFactory",
          "type": "address"
        }
      ],
      "name": "setFactoryAddresses",
      "outputs": [],
      "stateMutability": "nonpayable",
      "type": "function"
    },
    {
      "inputs": [
        {
          "internalType": "address",
          "name": "_router",
          "type": "address"
        },
        {
          "internalType": "address",
          "name": "_utils",
          "type": "address"
        },
        {
          "internalType": "address",
          "name": "_reserve",
          "type": "address"
        }
      ],
      "name": "setGenesisAddresses",
      "outputs": [],
      "stateMutability": "nonpayable",
      "type": "function"
    },
    {
      "inputs": [
        {
          "internalType": "uint32",
          "name": "_coolOff",
          "type": "uint32"
        },
        {
          "internalType": "uint32",
          "name": "_daysToEarn",
          "type": "uint32"
        },
        {
          "internalType": "uint32",
          "name": "_majorityFactor",
          "type": "uint32"
        },
        {
          "internalType": "uint32",
          "name": "_daoClaim",
          "type": "uint32"
        },
        {
          "internalType": "uint32",
          "name": "_daoFee",
          "type": "uint32"
        }
      ],
      "name": "setGenesisFactors",
      "outputs": [],
      "stateMutability": "nonpayable",
      "type": "function"
    },
    {
      "inputs": [
        {
          "internalType": "address",
          "name": "_daovault",
          "type": "address"
        },
        {
          "internalType": "address",
          "name": "_bondvault",
          "type": "address"
        },
        {
          "internalType": "address",
          "name": "_synthVault",
          "type": "address"
        }
      ],
      "name": "setVaultAddresses",
      "outputs": [],
      "stateMutability": "nonpayable",
      "type": "function"
    },
    {
      "inputs": [
        {
          "internalType": "uint256",
          "name": "proposalID",
          "type": "uint256"
        }
      ],
      "name": "voteProposal",
      "outputs": [
        {
          "internalType": "uint256",
          "name": "voteWeight",
          "type": "uint256"
        }
      ],
      "stateMutability": "nonpayable",
      "type": "function"
    },
    {
      "inputs": [
        {
          "internalType": "address",
          "name": "pool",
          "type": "address"
        }
      ],
      "name": "withdraw",
      "outputs": [],
      "stateMutability": "nonpayable",
      "type": "function"
    }
  ],
  "bytecode": "0x608060405262ed4e006014553480156200001857600080fd5b506040516200912c3803806200912c83398181016040528101906200003e919062000209565b80600160006101000a81548173ffffffffffffffffffffffffffffffffffffffff021916908373ffffffffffffffffffffffffffffffffffffffff160217905550336000806101000a81548173ffffffffffffffffffffffffffffffffffffffff021916908373ffffffffffffffffffffffffffffffffffffffff16021790555030600960016101000a81548173ffffffffffffffffffffffffffffffffffffffff021916908373ffffffffffffffffffffffffffffffffffffffff1602179055506001600381905550601e600681905550611a0a6005819055506107d06007819055506064600881905550600160009054906101000a900473ffffffffffffffffffffffffffffffffffffffff1673ffffffffffffffffffffffffffffffffffffffff16636b92a3b66040518163ffffffff1660e01b815260040160206040518083038186803b1580156200019357600080fd5b505afa158015620001a8573d6000803e3d6000fd5b505050506040513d601f19601f82011682018060405250810190620001ce919062000235565b60028190555050620002d3565b600081519050620001ec816200029f565b92915050565b6000815190506200020381620002b9565b92915050565b6000602082840312156200021c57600080fd5b60006200022c84828501620001db565b91505092915050565b6000602082840312156200024857600080fd5b60006200025884828501620001f2565b91505092915050565b60006200026e8262000275565b9050919050565b600073ffffffffffffffffffffffffffffffffffffffff82169050919050565b6000819050919050565b620002aa8162000261565b8114620002b657600080fd5b50565b620002c48162000295565b8114620002d057600080fd5b50565b618e4980620002e36000396000f3fe6080604052600436106103ef5760003560e01c806379b2dc4c11610208578063bbf8cf8211610118578063dab249b3116100ab578063ec342ad01161007a578063ec342ad014611036578063f135dcf814611061578063f38a2fa11461109e578063f794062e146110db578063f7a79a3714611118576103ef565b8063dab249b314610f42578063db634d7c14610f7f578063e248260c14610fbc578063e38c7dcc14610ff9576103ef565b8063c42b3f7d116100e7578063c42b3f7d14610e60578063d0ad170914610e9d578063d145836314610eda578063da35c66414610f17576103ef565b8063bbf8cf8214610d90578063bc68fad914610dcd578063c05fc17814610df8578063c1b8411a14610e35576103ef565b80639d2cc4361161019b578063abb6154f1161016a578063abb6154f14610ca9578063ae887c8b14610cd4578063af04598014610d11578063b93ec54b14610d3a578063b99b0a0c14610d65576103ef565b80639d2cc43614610bd4578063a230c52414610bff578063a515366a14610c3c578063a6c83fed14610c6c576103ef565b80638601b9e6116101d75780638601b9e614610b18578063956615be14610b4157806398fabd3a14610b6c5780639cd99aa214610b97576103ef565b806379b2dc4c14610a485780637a8c72b514610a735780637b0e5c4514610ab0578063807896d514610adb576103ef565b80633f68fde41161030357806351cff8d9116102965780635ded8b06116102655780635ded8b061461097757806365c71bbf146109a057806368bb97b3146109cb5780636b92a3b6146109f45780637375898814610a1f576103ef565b806351cff8d9146108ab578063572cf927146108d45780635c120b37146108fd5780635c7366d31461093a576103ef565b80634641257d116102d25780634641257d1461080557806347e7ef241461081c5780634b193e23146108455780634b4000341461086e576103ef565b80633f68fde414610725578063436f80be14610762578063463508211461079f5780634636279f146107c8576103ef565b80632c07eebf116103865780633435980811610355578063343598081461061857806335cb5fe01461065557806338da7dd6146106805780633a61738d146106ab5780633b4d01a7146106e8576103ef565b80632c07eebf1461055a5780632f7fa18014610585578063314604fe146105b057806332fe7b26146105ed576103ef565b8063293cee7d116103c2578063293cee7d1461048a5780632957b839146104c75780632ab24e49146104f25780632bee11941461051d576103ef565b806303a82138146103f457806311aee3801461040b57806324efb5281461043657806325a7f90814610461575b600080fd5b34801561040057600080fd5b50610409611143565b005b34801561041757600080fd5b506104206111de565b60405161042d919061831c565b60405180910390f35b34801561044257600080fd5b5061044b6111eb565b6040516104589190617fe5565b60405180910390f35b34801561046d57600080fd5b50610488600480360381019061048391906175db565b6111fe565b005b34801561049657600080fd5b506104b160048036038101906104ac919061754b565b6117e6565b6040516104be919061831c565b60405180910390f35b3480156104d357600080fd5b506104dc6118e5565b6040516104e9919061831c565b60405180910390f35b3480156104fe57600080fd5b506105076118eb565b60405161051491906180a2565b60405180910390f35b34801561052957600080fd5b50610544600480360381019061053f9190617871565b6119d2565b6040516105519190617fe5565b60405180910390f35b34801561056657600080fd5b5061056f6119f2565b60405161057c919061831c565b60405180910390f35b34801561059157600080fd5b5061059a6119f8565b6040516105a79190618000565b60405180910390f35b3480156105bc57600080fd5b506105d760048036038101906105d29190617871565b611adf565b6040516105e4919061831c565b60405180910390f35b3480156105f957600080fd5b50610602611af7565b60405161060f919061806c565b60405180910390f35b34801561062457600080fd5b5061063f600480360381019061063a919061767c565b611bde565b60405161064c9190617fe5565b60405180910390f35b34801561066157600080fd5b5061066a611c9a565b6040516106779190617fc3565b60405180910390f35b34801561068c57600080fd5b50610695611d28565b6040516106a2919061801b565b60405180910390f35b3480156106b757600080fd5b506106d260048036038101906106cd9190617497565b611e0f565b6040516106df919061831c565b60405180910390f35b3480156106f457600080fd5b5061070f600480360381019061070a9190617871565b612279565b60405161071c91906182fa565b60405180910390f35b34801561073157600080fd5b5061074c60048036038101906107479190617871565b612456565b604051610759919061831c565b60405180910390f35b34801561076e57600080fd5b5061078960048036038101906107849190617871565b612653565b6040516107969190617ee8565b60405180910390f35b3480156107ab57600080fd5b506107c660048036038101906107c191906174c0565b612692565b005b3480156107d457600080fd5b506107ef60048036038101906107ea9190617497565b612770565b6040516107fc919061831c565b60405180910390f35b34801561081157600080fd5b5061081a612882565b005b34801561082857600080fd5b50610843600480360381019061083e919061759f565b612a46565b005b34801561085157600080fd5b5061086c60048036038101906108679190617871565b612a55565b005b34801561087a57600080fd5b5061089560048036038101906108909190617871565b613033565b6040516108a29190617fe5565b60405180910390f35b3480156108b757600080fd5b506108d260048036038101906108cd9190617497565b613053565b005b3480156108e057600080fd5b506108fb60048036038101906108f6919061798f565b61316e565b005b34801561090957600080fd5b50610924600480360381019061091f9190617871565b61320e565b6040516109319190617fe5565b60405180910390f35b34801561094657600080fd5b50610961600480360381019061095c9190617497565b6133b5565b60405161096e919061831c565b60405180910390f35b34801561098357600080fd5b5061099e600480360381019061099991906178ff565b6133cd565b005b3480156109ac57600080fd5b506109b5613729565b6040516109c2919061831c565b60405180910390f35b3480156109d757600080fd5b506109f260048036038101906109ed9190617497565b61372f565b005b348015610a0057600080fd5b50610a096138ea565b604051610a16919061831c565b60405180910390f35b348015610a2b57600080fd5b50610a466004803603810190610a4191906174fc565b6138f0565b005b348015610a5457600080fd5b50610a5d613a10565b604051610a6a919061831c565b60405180910390f35b348015610a7f57600080fd5b50610a9a6004803603810190610a959190617497565b613a16565b604051610aa79190617fe5565b60405180910390f35b348015610abc57600080fd5b50610ac5613bf4565b604051610ad291906180bd565b60405180910390f35b348015610ae757600080fd5b50610b026004803603810190610afd9190617871565b613cdb565b604051610b0f919061831c565b60405180910390f35b348015610b2457600080fd5b50610b3f6004803603810190610b3a91906174fc565b614087565b005b348015610b4d57600080fd5b50610b566141a7565b604051610b63919061831c565b60405180910390f35b348015610b7857600080fd5b50610b816141ad565b604051610b8e9190617ee8565b60405180910390f35b348015610ba357600080fd5b50610bbe6004803603810190610bb99190617497565b6141d3565b604051610bcb9190617fe5565b60405180910390f35b348015610be057600080fd5b50610be961439e565b604051610bf69190618051565b60405180910390f35b348015610c0b57600080fd5b50610c266004803603810190610c219190617497565b614485565b604051610c339190617fe5565b60405180910390f35b610c566004803603810190610c51919061759f565b6144a5565b604051610c639190617fe5565b60405180910390f35b348015610c7857600080fd5b50610c936004803603810190610c8e919061759f565b614938565b604051610ca0919061831c565b60405180910390f35b348015610cb557600080fd5b50610cbe614a8c565b604051610ccb919061831c565b60405180910390f35b348015610ce057600080fd5b50610cfb6004803603810190610cf69190617871565b614a92565b604051610d089190617ee8565b60405180910390f35b348015610d1d57600080fd5b50610d386004803603810190610d339190617871565b614ac5565b005b348015610d4657600080fd5b50610d4f614b27565b604051610d5c9190618087565b60405180910390f35b348015610d7157600080fd5b50610d7a614c0e565b604051610d879190618036565b60405180910390f35b348015610d9c57600080fd5b50610db76004803603810190610db29190617871565b614cf5565b604051610dc49190617fe5565b60405180910390f35b348015610dd957600080fd5b50610de2614e8e565b604051610def9190617fe5565b60405180910390f35b348015610e0457600080fd5b50610e1f6004803603810190610e1a9190617871565b61502d565b604051610e2c91906180d8565b60405180910390f35b348015610e4157600080fd5b50610e4a6150cd565b604051610e579190617ee8565b60405180910390f35b348015610e6c57600080fd5b50610e876004803603810190610e8291906178c3565b6150f1565b604051610e94919061831c565b60405180910390f35b348015610ea957600080fd5b50610ec46004803603810190610ebf9190617871565b615116565b604051610ed19190617fe5565b60405180910390f35b348015610ee657600080fd5b50610f016004803603810190610efc9190617830565b6152af565b604051610f0e919061831c565b60405180910390f35b348015610f2357600080fd5b50610f2c615359565b604051610f39919061831c565b60405180910390f35b348015610f4e57600080fd5b50610f696004803603810190610f649190617871565b61535f565b604051610f76919061831c565b60405180910390f35b348015610f8b57600080fd5b50610fa66004803603810190610fa19190617497565b615377565b604051610fb39190617fe5565b60405180910390f35b348015610fc857600080fd5b50610fe36004803603810190610fde9190617497565b61548d565b604051610ff09190617fe5565b60405180910390f35b34801561100557600080fd5b50611020600480360381019061101b9190617871565b61553f565b60405161102d919061831c565b60405180910390f35b34801561104257600080fd5b5061104b615557565b6040516110589190617ee8565b60405180910390f35b34801561106d57600080fd5b50611088600480360381019061108391906174c0565b61557d565b604051611095919061831c565b60405180910390f35b3480156110aa57600080fd5b506110c560048036038101906110c0919061793b565b61563b565b6040516110d2919061831c565b60405180910390f35b3480156110e757600080fd5b5061110260048036038101906110fd9190617497565b615706565b60405161110f9190617fe5565b60405180910390f35b34801561112457600080fd5b5061112d615726565b60405161113a919061831c565b60405180910390f35b60008054906101000a900473ffffffffffffffffffffffffffffffffffffffff1673ffffffffffffffffffffffffffffffffffffffff163373ffffffffffffffffffffffffffffffffffffffff161461119b57600080fd5b60008060006101000a81548173ffffffffffffffffffffffffffffffffffffffff021916908373ffffffffffffffffffffffffffffffffffffffff160217905550565b6000601280549050905090565b600960009054906101000a900460ff1681565b60011515600e60009054906101000a900473ffffffffffffffffffffffffffffffffffffffff1673ffffffffffffffffffffffffffffffffffffffff16638dcb4c93856040518263ffffffff1660e01b815260040161125d9190617ee8565b60206040518083038186803b15801561127557600080fd5b505afa158015611289573d6000803e3d6000fd5b505050506040513d601f19601f820116820180604052508101906112ad919061762a565b1515146112ef576040517f08c379a00000000000000000000000000000000000000000000000000000000081526004016112e69061823a565b60405180910390fd5b60008211611332576040517f08c379a00000000000000000000000000000000000000000000000000000000081526004016113299061813a565b60405180910390fd5b60011515601560008373ffffffffffffffffffffffffffffffffffffffff1673ffffffffffffffffffffffffffffffffffffffff16815260200190815260200160002060009054906101000a900460ff16151514611446576012819080600181540180825580915050600190039060005260206000200160009091909190916101000a81548173ffffffffffffffffffffffffffffffffffffffff021916908373ffffffffffffffffffffffffffffffffffffffff1602179055506001601560008373ffffffffffffffffffffffffffffffffffffffff1673ffffffffffffffffffffffffffffffffffffffff16815260200190815260200160002060006101000a81548160ff0219169083151502179055505b6000600c60009054906101000a900473ffffffffffffffffffffffffffffffffffffffff1673ffffffffffffffffffffffffffffffffffffffff16635364df49836040518263ffffffff1660e01b81526004016114a39190617ee8565b60206040518083038186803b1580156114bb57600080fd5b505afa1580156114cf573d6000803e3d6000fd5b505050506040513d601f19601f820116820180604052508101906114f3919061789a565b600d60009054906101000a900473ffffffffffffffffffffffffffffffffffffffff1673ffffffffffffffffffffffffffffffffffffffff16635364df49846040518263ffffffff1660e01b815260040161154e9190617ee8565b60206040518083038186803b15801561156657600080fd5b505afa15801561157a573d6000803e3d6000fd5b505050506040513d601f19601f8201168201806040525081019061159e919061789a565b6115a89190618576565b11156115b7576115b6612882565b5b8273ffffffffffffffffffffffffffffffffffffffff166323b872dd33600d60009054906101000a900473ffffffffffffffffffffffffffffffffffffffff16856040518463ffffffff1660e01b815260040161161693929190617f2c565b602060405180830381600087803b15801561163057600080fd5b505af1158015611644573d6000803e3d6000fd5b505050506040513d601f19601f82011682018060405250810190611668919061762a565b6116a7576040517f08c379a000000000000000000000000000000000000000000000000000000000815260040161169e906180fa565b60405180910390fd5b600d60009054906101000a900473ffffffffffffffffffffffffffffffffffffffff1673ffffffffffffffffffffffffffffffffffffffff166346dafa2f8484846040518463ffffffff1660e01b815260040161170693929190617f8c565b600060405180830381600087803b15801561172057600080fd5b505af1158015611734573d6000803e3d6000fd5b5050505042601760008373ffffffffffffffffffffffffffffffffffffffff1673ffffffffffffffffffffffffffffffffffffffff168152602001908152602001600020819055508273ffffffffffffffffffffffffffffffffffffffff168173ffffffffffffffffffffffffffffffffffffffff167f5f9b5a75581a29d72b32414a5df7f1ef124b7787b38616fb8fdcad76179127c2846040516117d9919061831c565b60405180910390a3505050565b60006117f0615733565b506001600460008282546118049190618576565b925050819055508260196000600454815260200190815260200160002060006101000a81548173ffffffffffffffffffffffffffffffffffffffff021916908373ffffffffffffffffffffffffffffffffffffffff16021790555081601a60006004548152602001908152602001600020908051906020019061188892919061719f565b506004543373ffffffffffffffffffffffffffffffffffffffff167f8d500fcad86fc64a281b94ef64d6d66acbfc6862aa4ff2ee5fbbfb40736e803e846040516118d291906180d8565b60405180910390a3600454905092915050565b60085481565b6000600960009054906101000a900460ff16156119a957600960019054906101000a900473ffffffffffffffffffffffffffffffffffffffff1673ffffffffffffffffffffffffffffffffffffffff16632ab24e496040518163ffffffff1660e01b815260040160206040518083038186803b15801561196a57600080fd5b505afa15801561197e573d6000803e3d6000fd5b505050506040513d601f19601f820116820180604052508101906119a291906177de565b90506119cf565b601160009054906101000a900473ffffffffffffffffffffffffffffffffffffffff1690505b90565b601e6020528060005260406000206000915054906101000a900460ff1681565b60065481565b6000600960009054906101000a900460ff1615611ab657600960019054906101000a900473ffffffffffffffffffffffffffffffffffffffff1673ffffffffffffffffffffffffffffffffffffffff16632f7fa1806040518163ffffffff1660e01b815260040160206040518083038186803b158015611a7757600080fd5b505afa158015611a8b573d6000803e3d6000fd5b505050506040513d601f19601f82011682018060405250810190611aaf91906176e8565b9050611adc565b600c60009054906101000a900473ffffffffffffffffffffffffffffffffffffffff1690505b90565b60186020528060005260406000206000915090505481565b6000600960009054906101000a900460ff1615611bb557600960019054906101000a900473ffffffffffffffffffffffffffffffffffffffff1673ffffffffffffffffffffffffffffffffffffffff166332fe7b266040518163ffffffff1660e01b815260040160206040518083038186803b158015611b7657600080fd5b505afa158015611b8a573d6000803e3d6000fd5b505050506040513d601f19601f82011682018060405250810190611bae919061778c565b9050611bdb565b600a60009054906101000a900473ffffffffffffffffffffffffffffffffffffffff1690505b90565b6000600282604051611bf09190617ed1565b602060405180830381855afa158015611c0d573d6000803e3d6000fd5b5050506040513d601f19601f82011682018060405250810190611c309190617653565b600284604051611c409190617ed1565b602060405180830381855afa158015611c5d573d6000803e3d6000fd5b5050506040513d601f19601f82011682018060405250810190611c809190617653565b1415611c8f5760019050611c94565b600090505b92915050565b60606013805480602002602001604051908101604052809291908181526020018280548015611d1e57602002820191906000526020600020905b8160009054906101000a900473ffffffffffffffffffffffffffffffffffffffff1673ffffffffffffffffffffffffffffffffffffffff1681526020019060010190808311611cd4575b5050505050905090565b6000600960009054906101000a900460ff1615611de657600960019054906101000a900473ffffffffffffffffffffffffffffffffffffffff1673ffffffffffffffffffffffffffffffffffffffff166338da7dd66040518163ffffffff1660e01b815260040160206040518083038186803b158015611da757600080fd5b505afa158015611dbb573d6000803e3d6000fd5b505050506040513d601f19601f82011682018060405250810190611ddf9190617711565b9050611e0c565b600d60009054906101000a900473ffffffffffffffffffffffffffffffffffffffff1690505b90565b600080600c60009054906101000a900473ffffffffffffffffffffffffffffffffffffffff1673ffffffffffffffffffffffffffffffffffffffff16635364df49846040518263ffffffff1660e01b8152600401611e6d9190617ee8565b60206040518083038186803b158015611e8557600080fd5b505afa158015611e99573d6000803e3d6000fd5b505050506040513d601f19601f82011682018060405250810190611ebd919061789a565b600d60009054906101000a900473ffffffffffffffffffffffffffffffffffffffff1673ffffffffffffffffffffffffffffffffffffffff16635364df49856040518263ffffffff1660e01b8152600401611f189190617ee8565b60206040518083038186803b158015611f3057600080fd5b505afa158015611f44573d6000803e3d6000fd5b505050506040513d601f19601f82011682018060405250810190611f68919061789a565b611f729190618576565b90506000600c60009054906101000a900473ffffffffffffffffffffffffffffffffffffffff1673ffffffffffffffffffffffffffffffffffffffff166396c82e576040518163ffffffff1660e01b815260040160206040518083038186803b158015611fde57600080fd5b505afa158015611ff2573d6000803e3d6000fd5b505050506040513d601f19601f82011682018060405250810190612016919061789a565b600d60009054906101000a900473ffffffffffffffffffffffffffffffffffffffff1673ffffffffffffffffffffffffffffffffffffffff166396c82e576040518163ffffffff1660e01b815260040160206040518083038186803b15801561207e57600080fd5b505afa158015612092573d6000803e3d6000fd5b505050506040513d601f19601f820116820180604052508101906120b6919061789a565b6120c09190618576565b90506000600654600160009054906101000a900473ffffffffffffffffffffffffffffffffffffffff1673ffffffffffffffffffffffffffffffffffffffff166370a08231601060009054906101000a900473ffffffffffffffffffffffffffffffffffffffff166040518263ffffffff1660e01b81526004016121449190617ee8565b60206040518083038186803b15801561215c57600080fd5b505afa158015612170573d6000803e3d6000fd5b505050506040513d601f19601f82011682018060405250810190612194919061789a565b61219e91906185cc565b90506000612710600754836121b391906185fd565b6121bd91906185cc565b9050600b60009054906101000a900473ffffffffffffffffffffffffffffffffffffffff1673ffffffffffffffffffffffffffffffffffffffff16631ba326c48585846040518463ffffffff1660e01b815260040161221e9392919061843c565b60206040518083038186803b15801561223657600080fd5b505afa15801561224a573d6000803e3d6000fd5b505050506040513d601f19601f8201168201806040525081019061226e919061789a565b945050505050919050565b612281617225565b81816000018181525050601a600083815260200190815260200160002080546122a9906188df565b80601f01602080910402602001604051908101604052809291908181526020018280546122d5906188df565b80156123225780601f106122f757610100808354040283529160200191612322565b820191906000526020600020905b81548152906001019060200180831161230557829003601f168201915b50505050508160200181905250601b600083815260200190815260200160002054816040018181525050601c600083815260200190815260200160002054816060018181525050601d600083815260200190815260200160002060009054906101000a900460ff16816080019015159081151581525050601e600083815260200190815260200160002060009054906101000a900460ff168160a001901515908115158152505060186000838152602001908152602001600020548160c00181815250506019600083815260200190815260200160002060009054906101000a900473ffffffffffffffffffffffffffffffffffffffff168160e0019073ffffffffffffffffffffffffffffffffffffffff16908173ffffffffffffffffffffffffffffffffffffffff1681525050919050565b600080601a60008481526020019081526020016000208054612477906188df565b80601f01602080910402602001604051908101604052809291908181526020018280546124a3906188df565b80156124f05780601f106124c5576101008083540402835291602001916124f0565b820191906000526020600020905b8154815290600101906020018083116124d357829003601f168201915b50505050509050601f600084815260200190815260200160002060003373ffffffffffffffffffffffffffffffffffffffff1673ffffffffffffffffffffffffffffffffffffffff1681526020019081526020016000205491506000601b60008581526020019081526020016000205411156125915781601b600085815260200190815260200160002060008282546125899190618657565b925050819055505b6000601f600085815260200190815260200160002060003373ffffffffffffffffffffffffffffffffffffffff1673ffffffffffffffffffffffffffffffffffffffff16815260200190815260200160002081905550823373ffffffffffffffffffffffffffffffffffffffff167f70a6ab6ed794c2ceb8df59b7bb4e317e9b215d9ce74b88161ca5af2a5a801d6f84601b60008881526020019081526020016000205485604051612645939291906183fe565b60405180910390a350919050565b6012818154811061266357600080fd5b906000526020600020016000915054906101000a900473ffffffffffffffffffffffffffffffffffffffff1681565b60008054906101000a900473ffffffffffffffffffffffffffffffffffffffff1673ffffffffffffffffffffffffffffffffffffffff163373ffffffffffffffffffffffffffffffffffffffff16146126ea57600080fd5b81600e60006101000a81548173ffffffffffffffffffffffffffffffffffffffff021916908373ffffffffffffffffffffffffffffffffffffffff16021790555080600f60006101000a81548173ffffffffffffffffffffffffffffffffffffffff021916908373ffffffffffffffffffffffffffffffffffffffff1602179055505050565b6000601560008373ffffffffffffffffffffffffffffffffffffffff1673ffffffffffffffffffffffffffffffffffffffff16815260200190815260200160002060009054906101000a900460ff166127fe576040517f08c379a00000000000000000000000000000000000000000000000000000000081526004016127f5906181fa565b60405180910390fd5b6000601760008473ffffffffffffffffffffffffffffffffffffffff1673ffffffffffffffffffffffffffffffffffffffff168152602001908152602001600020544261284b9190618657565b9050600061285884611e0f565b90506000600254838361286b91906185fd565b61287591906185cc565b9050809350505050919050565b601060009054906101000a900473ffffffffffffffffffffffffffffffffffffffff1673ffffffffffffffffffffffffffffffffffffffff16632267716c6040518163ffffffff1660e01b8152600401602060405180830381600087803b1580156128ec57600080fd5b505af1158015612900573d6000803e3d6000fd5b505050506040513d601f19601f82011682018060405250810190612924919061762a565b612963576040517f08c379a000000000000000000000000000000000000000000000000000000000815260040161295a906181ba565b60405180910390fd5b600061296e33612770565b905042601760003373ffffffffffffffffffffffffffffffffffffffff1673ffffffffffffffffffffffffffffffffffffffff16815260200190815260200160002081905550601060009054906101000a900473ffffffffffffffffffffffffffffffffffffffff1673ffffffffffffffffffffffffffffffffffffffff16637d458baa82336040518363ffffffff1660e01b8152600401612a11929190618337565b600060405180830381600087803b158015612a2b57600080fd5b505af1158015612a3f573d6000803e3d6000fd5b5050505050565b612a518282336111fe565b5050565b600354601c60008381526020019081526020016000205442612a779190618657565b11612ab7576040517f08c379a0000000000000000000000000000000000000000000000000000000008152600401612aae9061821a565b60405180910390fd5b60011515601d600083815260200190815260200160002060009054906101000a900460ff16151514612b1e576040517f08c379a0000000000000000000000000000000000000000000000000000000008152600401612b15906181da565b60405180910390fd5b612b2781614cf5565b612b5c576000601d600083815260200190815260200160002060006101000a81548160ff021916908315150217905550613030565b6000601a60008381526020019081526020016000208054612b7c906188df565b80601f0160208091040260200160405190810160405280929190818152602001828054612ba8906188df565b8015612bf55780601f10612bca57610100808354040283529160200191612bf5565b820191906000526020600020905b815481529060010190602001808311612bd857829003601f168201915b50505050509050612c3b816040518060400160405280600381526020017f44414f0000000000000000000000000000000000000000000000000000000000815250611bde565b15612c4e57612c4982615868565b61302e565b612c8d816040518060400160405280600681526020017f524f555445520000000000000000000000000000000000000000000000000000815250611bde565b15612ca057612c9b82615a5a565b61302d565b612cdf816040518060400160405280600581526020017f5554494c53000000000000000000000000000000000000000000000000000000815250611bde565b15612cf257612ced82615b50565b61302c565b612d31816040518060400160405280600781526020017f5245534552564500000000000000000000000000000000000000000000000000815250611bde565b15612d4457612d3f82615c46565b61302b565b612d83816040518060400160405280600e81526020017f464c49505f454d495353494f4e53000000000000000000000000000000000000815250611bde565b15612d9657612d9182615d3c565b61302a565b612dd5816040518060400160405280600881526020017f434f4f4c5f4f4646000000000000000000000000000000000000000000000000815250611bde565b15612de857612de382615deb565b613029565b612e27816040518060400160405280600c81526020017f455241535f544f5f4541524e0000000000000000000000000000000000000000815250611bde565b15612e3a57612e3582615e5b565b613028565b612e79816040518060400160405280600581526020017f4752414e54000000000000000000000000000000000000000000000000000000815250611bde565b15612e8c57612e8782615ecb565b613027565b612ecb816040518060400160405280600a81526020017f4745545f53504152544100000000000000000000000000000000000000000000815250611bde565b15612ede57612ed982615fb8565b613026565b612f1d816040518060400160405280600981526020017f4c4953545f424f4e440000000000000000000000000000000000000000000000815250611bde565b15612f3057612f2b82616064565b613025565b612f6f816040518060400160405280600b81526020017f44454c4953545f424f4e44000000000000000000000000000000000000000000815250611bde565b15612f8257612f7d826160b3565b613024565b612fc1816040518060400160405280601081526020017f4144445f435552415445445f504f4f4c00000000000000000000000000000000815250611bde565b15612fd457612fcf82616172565b613023565b613013816040518060400160405280601381526020017f52454d4f56455f435552415445445f504f4f4c00000000000000000000000000815250611bde565b1561302257613021826162d5565b5b5b5b5b5b5b5b5b5b5b5b5b5b505b50565b601d6020528060005260406000206000915054906101000a900460ff1681565b60005b600454811161307c5761306881612456565b50808061307490618942565b915050613056565b50600d60009054906101000a900473ffffffffffffffffffffffffffffffffffffffff1673ffffffffffffffffffffffffffffffffffffffff1663f940e38582336040518363ffffffff1660e01b81526004016130da929190617f03565b602060405180830381600087803b1580156130f457600080fd5b505af1158015613108573d6000803e3d6000fd5b505050506040513d601f19601f8201168201806040525081019061312c919061762a565b61316b576040517f08c379a00000000000000000000000000000000000000000000000000000000081526004016131629061827a565b60405180910390fd5b50565b60008054906101000a900473ffffffffffffffffffffffffffffffffffffffff1673ffffffffffffffffffffffffffffffffffffffff163373ffffffffffffffffffffffffffffffffffffffff16146131c657600080fd5b8463ffffffff166003819055508363ffffffff166006819055508263ffffffff166005819055508163ffffffff166007819055508063ffffffff166008819055505050505050565b600080601b60008481526020019081526020016000205490506000600c60009054906101000a900473ffffffffffffffffffffffffffffffffffffffff1673ffffffffffffffffffffffffffffffffffffffff166396c82e576040518163ffffffff1660e01b815260040160206040518083038186803b15801561329157600080fd5b505afa1580156132a5573d6000803e3d6000fd5b505050506040513d601f19601f820116820180604052508101906132c9919061789a565b600d60009054906101000a900473ffffffffffffffffffffffffffffffffffffffff1673ffffffffffffffffffffffffffffffffffffffff166396c82e576040518163ffffffff1660e01b815260040160206040518083038186803b15801561333157600080fd5b505afa158015613345573d6000803e3d6000fd5b505050506040513d601f19601f82011682018060405250810190613369919061789a565b6133739190618576565b905060006127106005548361338891906185fd565b61339291906185cc565b9050808311156133a857600193505050506133b0565b600093505050505b919050565b60176020528060005260406000206000915090505481565b601d600083815260200190815260200160002060009054906101000a900460ff1661342d576040517f08c379a0000000000000000000000000000000000000000000000000000000008152600401613424906181da565b60405180910390fd5b61343681615116565b613475576040517f08c379a000000000000000000000000000000000000000000000000000000000815260040161346c9061829a565b60405180910390fd5b6135b5601a60008481526020019081526020016000208054613496906188df565b80601f01602080910402602001604051908101604052809291908181526020018280546134c2906188df565b801561350f5780601f106134e45761010080835404028352916020019161350f565b820191906000526020600020905b8154815290600101906020018083116134f257829003601f168201915b5050505050601a60008481526020019081526020016000208054613532906188df565b80601f016020809104026020016040519081016040528092919081815260200182805461355e906188df565b80156135ab5780601f10613580576101008083540402835291602001916135ab565b820191906000526020600020905b81548152906001019060200180831161358e57829003601f168201915b5050505050611bde565b6135f4576040517f08c379a00000000000000000000000000000000000000000000000000000000081526004016135eb9061825a565b60405180910390fd5b6000601b600084815260200190815260200160002081905550813373ffffffffffffffffffffffffffffffffffffffff167f0e67c2e72a9ea22e5d163549aebce99ddc3d1fbbc58e7ed196b0e88f458847d9601b600086815260200190815260200160002054601b600086815260200190815260200160002054600d60009054906101000a900473ffffffffffffffffffffffffffffffffffffffff1673ffffffffffffffffffffffffffffffffffffffff166396c82e576040518163ffffffff1660e01b815260040160206040518083038186803b1580156136d657600080fd5b505afa1580156136ea573d6000803e3d6000fd5b505050506040513d601f19601f8201168201806040525081019061370e919061789a565b60405161371d9392919061843c565b60405180910390a35050565b60145481565b60008054906101000a900473ffffffffffffffffffffffffffffffffffffffff1673ffffffffffffffffffffffffffffffffffffffff163373ffffffffffffffffffffffffffffffffffffffff161461378757600080fd5b6000600160009054906101000a900473ffffffffffffffffffffffffffffffffffffffff1673ffffffffffffffffffffffffffffffffffffffff166370a08231306040518263ffffffff1660e01b81526004016137e49190617ee8565b60206040518083038186803b1580156137fc57600080fd5b505afa158015613810573d6000803e3d6000fd5b505050506040513d601f19601f82011682018060405250810190613834919061789a565b9050600160009054906101000a900473ffffffffffffffffffffffffffffffffffffffff1673ffffffffffffffffffffffffffffffffffffffff1663a9059cbb83836040518363ffffffff1660e01b8152600401613893929190617f63565b602060405180830381600087803b1580156138ad57600080fd5b505af11580156138c1573d6000803e3d6000fd5b505050506040513d601f19601f820116820180604052508101906138e5919061762a565b505050565b60025481565b60008054906101000a900473ffffffffffffffffffffffffffffffffffffffff1673ffffffffffffffffffffffffffffffffffffffff163373ffffffffffffffffffffffffffffffffffffffff161461394857600080fd5b82600d60006101000a81548173ffffffffffffffffffffffffffffffffffffffff021916908373ffffffffffffffffffffffffffffffffffffffff16021790555081600c60006101000a81548173ffffffffffffffffffffffffffffffffffffffff021916908373ffffffffffffffffffffffffffffffffffffffff16021790555080601160006101000a81548173ffffffffffffffffffffffffffffffffffffffff021916908373ffffffffffffffffffffffffffffffffffffffff160217905550505050565b60075481565b6000806013805480602002602001604051908101604052809291908181526020018280548015613a9b57602002820191906000526020600020905b8160009054906101000a900473ffffffffffffffffffffffffffffffffffffffff1673ffffffffffffffffffffffffffffffffffffffff1681526020019060010190808311613a51575b5050505050905060005b8151811015613be9576000613afa85848481518110613aed577f4e487b7100000000000000000000000000000000000000000000000000000000600052603260045260246000fd5b602002602001015161557d565b90506000811115613bd557600c60009054906101000a900473ffffffffffffffffffffffffffffffffffffffff1673ffffffffffffffffffffffffffffffffffffffff16635bc262be848481518110613b7c577f4e487b7100000000000000000000000000000000000000000000000000000000600052603260045260246000fd5b6020026020010151876040518363ffffffff1660e01b8152600401613ba2929190617f03565b600060405180830381600087803b158015613bbc57600080fd5b505af1158015613bd0573d6000803e3d6000fd5b505050505b508080613be190618942565b915050613aa5565b506001915050919050565b6000600960009054906101000a900460ff1615613cb257600960019054906101000a900473ffffffffffffffffffffffffffffffffffffffff1673ffffffffffffffffffffffffffffffffffffffff16637b0e5c456040518163ffffffff1660e01b815260040160206040518083038186803b158015613c7357600080fd5b505afa158015613c87573d6000803e3d6000fd5b505050506040513d601f19601f82011682018060405250810190613cab9190617807565b9050613cd8565b600b60009054906101000a900473ffffffffffffffffffffffffffffffffffffffff1690505b90565b600080601a60008481526020019081526020016000208054613cfc906188df565b80601f0160208091040260200160405190810160405280929190818152602001828054613d28906188df565b8015613d755780601f10613d4a57610100808354040283529160200191613d75565b820191906000526020600020905b815481529060010190602001808311613d5857829003601f168201915b50505050509050613d8583616438565b9150613d9083614cf5565b8015613dc0575060001515601d600085815260200190815260200160002060009054906101000a900460ff161515145b1561401b57613e04816040518060400160405280600381526020017f44414f0000000000000000000000000000000000000000000000000000000000815250611bde565b80613e4a5750613e49816040518060400160405280600581526020017f5554494c53000000000000000000000000000000000000000000000000000000815250611bde565b5b80613e905750613e8f816040518060400160405280600781526020017f5245534552564500000000000000000000000000000000000000000000000000815250611bde565b5b80613ed65750613ed5816040518060400160405280600a81526020017f4745545f53504152544100000000000000000000000000000000000000000000815250611bde565b5b80613f1c5750613f1b816040518060400160405280600681526020017f524f555445520000000000000000000000000000000000000000000000000000815250611bde565b5b80613f625750613f61816040518060400160405280600981526020017f4c4953545f424f4e440000000000000000000000000000000000000000000000815250611bde565b5b80613fa85750613fa7816040518060400160405280600581526020017f4752414e54000000000000000000000000000000000000000000000000000000815250611bde565b5b80613fee5750613fed816040518060400160405280601081526020017f4144445f435552415445445f504f4f4c00000000000000000000000000000000815250611bde565b5b1561401057613ffc8361320e565b1561400b5761400a8361669a565b5b61401a565b6140198361669a565b5b5b823373ffffffffffffffffffffffffffffffffffffffff167f4d46d88c7e981a5bf4572a83b5d88bcfefbd5ee6ca8df0588e27c4221a43640784601b60008881526020019081526020016000205485604051614079939291906183fe565b60405180910390a350919050565b60008054906101000a900473ffffffffffffffffffffffffffffffffffffffff1673ffffffffffffffffffffffffffffffffffffffff163373ffffffffffffffffffffffffffffffffffffffff16146140df57600080fd5b82600a60006101000a81548173ffffffffffffffffffffffffffffffffffffffff021916908373ffffffffffffffffffffffffffffffffffffffff16021790555081600b60006101000a81548173ffffffffffffffffffffffffffffffffffffffff021916908373ffffffffffffffffffffffffffffffffffffffff16021790555080601060006101000a81548173ffffffffffffffffffffffffffffffffffffffff021916908373ffffffffffffffffffffffffffffffffffffffff160217905550505050565b60055481565b600960019054906101000a900473ffffffffffffffffffffffffffffffffffffffff1681565b60008060009054906101000a900473ffffffffffffffffffffffffffffffffffffffff1673ffffffffffffffffffffffffffffffffffffffff163373ffffffffffffffffffffffffffffffffffffffff161461422e57600080fd5b601660008373ffffffffffffffffffffffffffffffffffffffff1673ffffffffffffffffffffffffffffffffffffffff16815260200190815260200160002060009054906101000a900460ff1661433b576001601660008473ffffffffffffffffffffffffffffffffffffffff1673ffffffffffffffffffffffffffffffffffffffff16815260200190815260200160002060006101000a81548160ff0219169083151502179055506013829080600181540180825580915050600190039060005260206000200160009091909190916101000a81548173ffffffffffffffffffffffffffffffffffffffff021916908373ffffffffffffffffffffffffffffffffffffffff1602179055505b8173ffffffffffffffffffffffffffffffffffffffff163373ffffffffffffffffffffffffffffffffffffffff167fa2c962e87fd75165c1496c9ea420ddb0231e124bf2625a77f828287c8050006860405160405180910390a360019050919050565b6000600960009054906101000a900460ff161561445c57600960019054906101000a900473ffffffffffffffffffffffffffffffffffffffff1673ffffffffffffffffffffffffffffffffffffffff16639d2cc4366040518163ffffffff1660e01b815260040160206040518083038186803b15801561441d57600080fd5b505afa158015614431573d6000803e3d6000fd5b505050506040513d601f19601f820116820180604052508101906144559190617763565b9050614482565b601060009054906101000a900473ffffffffffffffffffffffffffffffffffffffff1690505b90565b60156020528060005260406000206000915054906101000a900460ff1681565b60008082116144e9576040517f08c379a00000000000000000000000000000000000000000000000000000000081526004016144e0906182da565b60405180910390fd5b601660008473ffffffffffffffffffffffffffffffffffffffff1673ffffffffffffffffffffffffffffffffffffffff16815260200190815260200160002060009054906101000a900460ff16614575576040517f08c379a000000000000000000000000000000000000000000000000000000000815260040161456c9061811a565b60405180910390fd5b60011515601560003373ffffffffffffffffffffffffffffffffffffffff1673ffffffffffffffffffffffffffffffffffffffff16815260200190815260200160002060009054906101000a900460ff16151514614689576012339080600181540180825580915050600190039060005260206000200160009091909190916101000a81548173ffffffffffffffffffffffffffffffffffffffff021916908373ffffffffffffffffffffffffffffffffffffffff1602179055506001601560003373ffffffffffffffffffffffffffffffffffffffff1673ffffffffffffffffffffffffffffffffffffffff16815260200190815260200160002060006101000a81548160ff0219169083151502179055505b6000600c60009054906101000a900473ffffffffffffffffffffffffffffffffffffffff1673ffffffffffffffffffffffffffffffffffffffff16635364df49336040518263ffffffff1660e01b81526004016146e69190617ee8565b60206040518083038186803b1580156146fe57600080fd5b505afa158015614712573d6000803e3d6000fd5b505050506040513d601f19601f82011682018060405250810190614736919061789a565b600d60009054906101000a900473ffffffffffffffffffffffffffffffffffffffff1673ffffffffffffffffffffffffffffffffffffffff16635364df49336040518263ffffffff1660e01b81526004016147919190617ee8565b60206040518083038186803b1580156147a957600080fd5b505afa1580156147bd573d6000803e3d6000fd5b505050506040513d601f19601f820116820180604052508101906147e1919061789a565b6147eb9190618576565b11156147fa576147f9612882565b5b600061480684846167e0565b9050600c60009054906101000a900473ffffffffffffffffffffffffffffffffffffffff1673ffffffffffffffffffffffffffffffffffffffff1663bf58d0ef8533846040518463ffffffff1660e01b815260040161486793929190617f2c565b600060405180830381600087803b15801561488157600080fd5b505af1158015614895573d6000803e3d6000fd5b5050505042601760003373ffffffffffffffffffffffffffffffffffffffff1673ffffffffffffffffffffffffffffffffffffffff168152602001908152602001600020819055503373ffffffffffffffffffffffffffffffffffffffff167fe4dd259ab128527fe8b5fdae0b44bda8db95a4de10b999d63dce142b1eb88d548483604051614925929190618390565b60405180910390a2600191505092915050565b6000614942615733565b5060006040518060400160405280600581526020017f4752414e5400000000000000000000000000000000000000000000000000000081525090506001600460008282546149909190618576565b9250508190555080601a6000600454815260200190815260200160002090805190602001906149c092919061719f565b508360196000600454815260200190815260200160002060006101000a81548173ffffffffffffffffffffffffffffffffffffffff021916908373ffffffffffffffffffffffffffffffffffffffff16021790555082601860006004548152602001908152602001600020819055506004543373ffffffffffffffffffffffffffffffffffffffff167f8d500fcad86fc64a281b94ef64d6d66acbfc6862aa4ff2ee5fbbfb40736e803e83604051614a7891906180d8565b60405180910390a360045491505092915050565b60035481565b60196020528060005260406000206000915054906101000a900473ffffffffffffffffffffffffffffffffffffffff1681565b60008054906101000a900473ffffffffffffffffffffffffffffffffffffffff1673ffffffffffffffffffffffffffffffffffffffff163373ffffffffffffffffffffffffffffffffffffffff1614614b1d57600080fd5b8060148190555050565b6000600960009054906101000a900460ff1615614be557600960019054906101000a900473ffffffffffffffffffffffffffffffffffffffff1673ffffffffffffffffffffffffffffffffffffffff1663b93ec54b6040518163ffffffff1660e01b815260040160206040518083038186803b158015614ba657600080fd5b505afa158015614bba573d6000803e3d6000fd5b505050506040513d601f19601f82011682018060405250810190614bde91906177b5565b9050614c0b565b600f60009054906101000a900473ffffffffffffffffffffffffffffffffffffffff1690505b90565b6000600960009054906101000a900460ff1615614ccc57600960019054906101000a900473ffffffffffffffffffffffffffffffffffffffff1673ffffffffffffffffffffffffffffffffffffffff1663b99b0a0c6040518163ffffffff1660e01b815260040160206040518083038186803b158015614c8d57600080fd5b505afa158015614ca1573d6000803e3d6000fd5b505050506040513d601f19601f82011682018060405250810190614cc5919061773a565b9050614cf2565b600e60009054906101000a900473ffffffffffffffffffffffffffffffffffffffff1690505b90565b600080601b60008481526020019081526020016000205490506000600c60009054906101000a900473ffffffffffffffffffffffffffffffffffffffff1673ffffffffffffffffffffffffffffffffffffffff166396c82e576040518163ffffffff1660e01b815260040160206040518083038186803b158015614d7857600080fd5b505afa158015614d8c573d6000803e3d6000fd5b505050506040513d601f19601f82011682018060405250810190614db0919061789a565b600d60009054906101000a900473ffffffffffffffffffffffffffffffffffffffff1673ffffffffffffffffffffffffffffffffffffffff166396c82e576040518163ffffffff1660e01b815260040160206040518083038186803b158015614e1857600080fd5b505afa158015614e2c573d6000803e3d6000fd5b505050506040513d601f19601f82011682018060405250810190614e50919061789a565b614e5a9190618576565b90506000600282614e6b91906185cc565b905080831115614e815760019350505050614e89565b600093505050505b919050565b60008060009054906101000a900473ffffffffffffffffffffffffffffffffffffffff1673ffffffffffffffffffffffffffffffffffffffff163373ffffffffffffffffffffffffffffffffffffffff1614614ee957600080fd5b6000600160009054906101000a900473ffffffffffffffffffffffffffffffffffffffff1673ffffffffffffffffffffffffffffffffffffffff166370a08231306040518263ffffffff1660e01b8152600401614f469190617ee8565b60206040518083038186803b158015614f5e57600080fd5b505afa158015614f72573d6000803e3d6000fd5b505050506040513d601f19601f82011682018060405250810190614f96919061789a565b9050600160009054906101000a900473ffffffffffffffffffffffffffffffffffffffff1673ffffffffffffffffffffffffffffffffffffffff166342966c68826040518263ffffffff1660e01b8152600401614ff3919061831c565b600060405180830381600087803b15801561500d57600080fd5b505af1158015615021573d6000803e3d6000fd5b50505050600191505090565b601a602052806000526040600020600091509050805461504c906188df565b80601f0160208091040260200160405190810160405280929190818152602001828054615078906188df565b80156150c55780601f1061509a576101008083540402835291602001916150c5565b820191906000526020600020905b8154815290600101906020018083116150a857829003601f168201915b505050505081565b60008054906101000a900473ffffffffffffffffffffffffffffffffffffffff1681565b601f602052816000526040600020602052806000526040600020600091509150505481565b600080601b60008481526020019081526020016000205490506000600c60009054906101000a900473ffffffffffffffffffffffffffffffffffffffff1673ffffffffffffffffffffffffffffffffffffffff166396c82e576040518163ffffffff1660e01b815260040160206040518083038186803b15801561519957600080fd5b505afa1580156151ad573d6000803e3d6000fd5b505050506040513d601f19601f820116820180604052508101906151d1919061789a565b600d60009054906101000a900473ffffffffffffffffffffffffffffffffffffffff1673ffffffffffffffffffffffffffffffffffffffff166396c82e576040518163ffffffff1660e01b815260040160206040518083038186803b15801561523957600080fd5b505afa15801561524d573d6000803e3d6000fd5b505050506040513d601f19601f82011682018060405250810190615271919061789a565b61527b9190618576565b9050600060068261528c91906185cc565b9050808311156152a257600193505050506152aa565b600093505050505b919050565b60006152b9615733565b506001600460008282546152cd9190618576565b9250508190555081601a6000600454815260200190815260200160002090805190602001906152fd92919061719f565b506004543373ffffffffffffffffffffffffffffffffffffffff167f8d500fcad86fc64a281b94ef64d6d66acbfc6862aa4ff2ee5fbbfb40736e803e8460405161534791906180d8565b60405180910390a36004549050919050565b60045481565b601b6020528060005260406000206000915090505481565b60008060009054906101000a900473ffffffffffffffffffffffffffffffffffffffff1673ffffffffffffffffffffffffffffffffffffffff163373ffffffffffffffffffffffffffffffffffffffff16146153d257600080fd5b6000601660008473ffffffffffffffffffffffffffffffffffffffff1673ffffffffffffffffffffffffffffffffffffffff16815260200190815260200160002060006101000a81548160ff0219169083151502179055508173ffffffffffffffffffffffffffffffffffffffff163373ffffffffffffffffffffffffffffffffffffffff167ff487c2322baa448cfa506b983134d9dd9f27d0bbfe0b48119a3908d4f0dde89f60405160405180910390a360019050919050565b60008061549a338461557d565b9050600081111561553557600c60009054906101000a900473ffffffffffffffffffffffffffffffffffffffff1673ffffffffffffffffffffffffffffffffffffffff16635bc262be84336040518363ffffffff1660e01b8152600401615502929190617f03565b600060405180830381600087803b15801561551c57600080fd5b505af1158015615530573d6000803e3d6000fd5b505050505b6001915050919050565b601c6020528060005260406000206000915090505481565b600160009054906101000a900473ffffffffffffffffffffffffffffffffffffffff1681565b600080600c60009054906101000a900473ffffffffffffffffffffffffffffffffffffffff1673ffffffffffffffffffffffffffffffffffffffff1663ba0ba54f85856040518363ffffffff1660e01b81526004016155dd929190617f03565b602060405180830381600087803b1580156155f757600080fd5b505af115801561560b573d6000803e3d6000fd5b505050506040513d601f19601f8201168201806040525081019061562f919061789a565b90508091505092915050565b6000615645615733565b506001600460008282546156599190618576565b925050819055508263ffffffff166018600060045481526020019081526020016000208190555081601a6000600454815260200190815260200160002090805190602001906156a992919061719f565b506004543373ffffffffffffffffffffffffffffffffffffffff167f8d500fcad86fc64a281b94ef64d6d66acbfc6862aa4ff2ee5fbbfb40736e803e846040516156f391906180d8565b60405180910390a3600454905092915050565b60166020528060005260406000206000915054906101000a900460ff1681565b6000601380549050905090565b600080670de0b6b3a764000060085461574c91906185fd565b9050600160009054906101000a900473ffffffffffffffffffffffffffffffffffffffff1673ffffffffffffffffffffffffffffffffffffffff166323b872dd33601060009054906101000a900473ffffffffffffffffffffffffffffffffffffffff16846040518463ffffffff1660e01b81526004016157cf93929190617f2c565b602060405180830381600087803b1580156157e957600080fd5b505af11580156157fd573d6000803e3d6000fd5b505050506040513d601f19601f82011682018060405250810190615821919061762a565b615860576040517f08c379a00000000000000000000000000000000000000000000000000000000081526004016158579061815a565b60405180910390fd5b600191505090565b60006019600083815260200190815260200160002060009054906101000a900473ffffffffffffffffffffffffffffffffffffffff169050600073ffffffffffffffffffffffffffffffffffffffff168173ffffffffffffffffffffffffffffffffffffffff161415615910576040517f08c379a0000000000000000000000000000000000000000000000000000000008152600401615907906182ba565b60405180910390fd5b6019600083815260200190815260200160002060009054906101000a900473ffffffffffffffffffffffffffffffffffffffff16600960016101000a81548173ffffffffffffffffffffffffffffffffffffffff021916908373ffffffffffffffffffffffffffffffffffffffff160217905550600160009054906101000a900473ffffffffffffffffffffffffffffffffffffffff1673ffffffffffffffffffffffffffffffffffffffff16631d007f5f826040518263ffffffff1660e01b81526004016159df9190617ee8565b602060405180830381600087803b1580156159f957600080fd5b505af1158015615a0d573d6000803e3d6000fd5b505050506040513d601f19601f82011682018060405250810190615a31919061762a565b506001600960006101000a81548160ff021916908315150217905550615a5682616f85565b5050565b60006019600083815260200190815260200160002060009054906101000a900473ffffffffffffffffffffffffffffffffffffffff169050600073ffffffffffffffffffffffffffffffffffffffff168173ffffffffffffffffffffffffffffffffffffffff161415615b02576040517f08c379a0000000000000000000000000000000000000000000000000000000008152600401615af9906182ba565b60405180910390fd5b80600a60006101000a81548173ffffffffffffffffffffffffffffffffffffffff021916908373ffffffffffffffffffffffffffffffffffffffff160217905550615b4c82616f85565b5050565b60006019600083815260200190815260200160002060009054906101000a900473ffffffffffffffffffffffffffffffffffffffff169050600073ffffffffffffffffffffffffffffffffffffffff168173ffffffffffffffffffffffffffffffffffffffff161415615bf8576040517f08c379a0000000000000000000000000000000000000000000000000000000008152600401615bef906182ba565b60405180910390fd5b80600b60006101000a81548173ffffffffffffffffffffffffffffffffffffffff021916908373ffffffffffffffffffffffffffffffffffffffff160217905550615c4282616f85565b5050565b60006019600083815260200190815260200160002060009054906101000a900473ffffffffffffffffffffffffffffffffffffffff169050600073ffffffffffffffffffffffffffffffffffffffff168173ffffffffffffffffffffffffffffffffffffffff161415615cee576040517f08c379a0000000000000000000000000000000000000000000000000000000008152600401615ce5906182ba565b60405180910390fd5b80601060006101000a81548173ffffffffffffffffffffffffffffffffffffffff021916908373ffffffffffffffffffffffffffffffffffffffff160217905550615d3882616f85565b5050565b600160009054906101000a900473ffffffffffffffffffffffffffffffffffffffff1673ffffffffffffffffffffffffffffffffffffffff1663fe1fa8fa6040518163ffffffff1660e01b8152600401602060405180830381600087803b158015615da657600080fd5b505af1158015615dba573d6000803e3d6000fd5b505050506040513d601f19601f82011682018060405250810190615dde919061762a565b50615de881616f85565b50565b6000601860008381526020019081526020016000205490506000811415615e47576040517f08c379a0000000000000000000000000000000000000000000000000000000008152600401615e3e9061817a565b60405180910390fd5b80600381905550615e5782616f85565b5050565b6000601860008381526020019081526020016000205490506000811415615eb7576040517f08c379a0000000000000000000000000000000000000000000000000000000008152600401615eae9061817a565b60405180910390fd5b80600681905550615ec782616f85565b5050565b60006018600083815260200190815260200160002054905060006019600084815260200190815260200160002060009054906101000a900473ffffffffffffffffffffffffffffffffffffffff169050601060009054906101000a900473ffffffffffffffffffffffffffffffffffffffff1673ffffffffffffffffffffffffffffffffffffffff16637d458baa83836040518363ffffffff1660e01b8152600401615f78929190618337565b600060405180830381600087803b158015615f9257600080fd5b505af1158015615fa6573d6000803e3d6000fd5b50505050615fb383616f85565b505050565b60006a02116545850052128000009050600160009054906101000a900473ffffffffffffffffffffffffffffffffffffffff1673ffffffffffffffffffffffffffffffffffffffff1663d01f6fba82306040518363ffffffff1660e01b8152600401616025929190618337565b600060405180830381600087803b15801561603f57600080fd5b505af1158015616053573d6000803e3d6000fd5b5050505061606082616f85565b5050565b60006019600083815260200190815260200160002060009054906101000a900473ffffffffffffffffffffffffffffffffffffffff1690506160a5816141d3565b506160af82616f85565b5050565b60006019600083815260200190815260200160002060009054906101000a900473ffffffffffffffffffffffffffffffffffffffff169050600073ffffffffffffffffffffffffffffffffffffffff168173ffffffffffffffffffffffffffffffffffffffff16141561615b576040517f08c379a0000000000000000000000000000000000000000000000000000000008152600401616152906182ba565b60405180910390fd5b61616481615377565b5061616e82616f85565b5050565b60006019600083815260200190815260200160002060009054906101000a900473ffffffffffffffffffffffffffffffffffffffff169050600073ffffffffffffffffffffffffffffffffffffffff168173ffffffffffffffffffffffffffffffffffffffff16141561621a576040517f08c379a0000000000000000000000000000000000000000000000000000000008152600401616211906182ba565b60405180910390fd5b600e60009054906101000a900473ffffffffffffffffffffffffffffffffffffffff1673ffffffffffffffffffffffffffffffffffffffff16632b2260a8826040518263ffffffff1660e01b81526004016162759190617ee8565b602060405180830381600087803b15801561628f57600080fd5b505af11580156162a3573d6000803e3d6000fd5b505050506040513d601f19601f820116820180604052508101906162c7919061762a565b506162d182616f85565b5050565b60006019600083815260200190815260200160002060009054906101000a900473ffffffffffffffffffffffffffffffffffffffff169050600073ffffffffffffffffffffffffffffffffffffffff168173ffffffffffffffffffffffffffffffffffffffff16141561637d576040517f08c379a0000000000000000000000000000000000000000000000000000000008152600401616374906182ba565b60405180910390fd5b600e60009054906101000a900473ffffffffffffffffffffffffffffffffffffffff1673ffffffffffffffffffffffffffffffffffffffff16637ca51fbf826040518263ffffffff1660e01b81526004016163d89190617ee8565b602060405180830381600087803b1580156163f257600080fd5b505af1158015616406573d6000803e3d6000fd5b505050506040513d601f19601f8201168201806040525081019061642a919061762a565b5061643482616f85565b5050565b6000601f600083815260200190815260200160002060003373ffffffffffffffffffffffffffffffffffffffff1673ffffffffffffffffffffffffffffffffffffffff16815260200190815260200160002054601b600084815260200190815260200160002060008282546164ad9190618657565b92505081905550600c60009054906101000a900473ffffffffffffffffffffffffffffffffffffffff1673ffffffffffffffffffffffffffffffffffffffff16635364df49336040518263ffffffff1660e01b815260040161650f9190617ee8565b60206040518083038186803b15801561652757600080fd5b505afa15801561653b573d6000803e3d6000fd5b505050506040513d601f19601f8201168201806040525081019061655f919061789a565b600d60009054906101000a900473ffffffffffffffffffffffffffffffffffffffff1673ffffffffffffffffffffffffffffffffffffffff16635364df49336040518263ffffffff1660e01b81526004016165ba9190617ee8565b60206040518083038186803b1580156165d257600080fd5b505afa1580156165e6573d6000803e3d6000fd5b505050506040513d601f19601f8201168201806040525081019061660a919061789a565b6166149190618576565b905080601b600084815260200190815260200160002060008282546166399190618576565b9250508190555080601f600084815260200190815260200160002060003373ffffffffffffffffffffffffffffffffffffffff1673ffffffffffffffffffffffffffffffffffffffff16815260200190815260200160002081905550919050565b6000601a600083815260200190815260200160002080546166ba906188df565b80601f01602080910402602001604051908101604052809291908181526020018280546166e6906188df565b80156167335780601f1061670857610100808354040283529160200191616733565b820191906000526020600020905b81548152906001019060200180831161671657829003601f168201915b505050505090506001601d600084815260200190815260200160002060006101000a81548160ff02191690831515021790555042601c600084815260200190815260200160002081905550813373ffffffffffffffffffffffffffffffffffffffff167f0f36aea5066f9f90a999260fe4ce8d7713f7f07f5ae61bf36d73cc51170a3a9e600354426167c59190618576565b846040516167d4929190618360565b60405180910390a35050565b600080600b60009054906101000a900473ffffffffffffffffffffffffffffffffffffffff1673ffffffffffffffffffffffffffffffffffffffff1663b80e44b885856040518363ffffffff1660e01b8152600401616840929190617f63565b60206040518083038186803b15801561685857600080fd5b505afa15801561686c573d6000803e3d6000fd5b505050506040513d601f19601f82011682018060405250810190616890919061789a565b905080600160009054906101000a900473ffffffffffffffffffffffffffffffffffffffff1673ffffffffffffffffffffffffffffffffffffffff1663dd62ed3e30600a60009054906101000a900473ffffffffffffffffffffffffffffffffffffffff166040518363ffffffff1660e01b8152600401616912929190617f03565b60206040518083038186803b15801561692a57600080fd5b505afa15801561693e573d6000803e3d6000fd5b505050506040513d601f19601f82011682018060405250810190616962919061789a565b1015616ada57600160009054906101000a900473ffffffffffffffffffffffffffffffffffffffff1673ffffffffffffffffffffffffffffffffffffffff1663095ea7b3600a60009054906101000a900473ffffffffffffffffffffffffffffffffffffffff16600160009054906101000a900473ffffffffffffffffffffffffffffffffffffffff1673ffffffffffffffffffffffffffffffffffffffff166318160ddd6040518163ffffffff1660e01b815260040160206040518083038186803b158015616a3157600080fd5b505afa158015616a45573d6000803e3d6000fd5b505050506040513d601f19601f82011682018060405250810190616a69919061789a565b6040518363ffffffff1660e01b8152600401616a86929190617f63565b602060405180830381600087803b158015616aa057600080fd5b505af1158015616ab4573d6000803e3d6000fd5b505050506040513d601f19601f82011682018060405250810190616ad8919061762a565b505b600073ffffffffffffffffffffffffffffffffffffffff168473ffffffffffffffffffffffffffffffffffffffff161415616c2e57348314616b51576040517f08c379a0000000000000000000000000000000000000000000000000000000008152600401616b489061819a565b60405180910390fd5b600a60009054906101000a900473ffffffffffffffffffffffffffffffffffffffff1673ffffffffffffffffffffffffffffffffffffffff166393cac68584838688600c60009054906101000a900473ffffffffffffffffffffffffffffffffffffffff166040518663ffffffff1660e01b8152600401616bd594939291906183b9565b6020604051808303818588803b158015616bee57600080fd5b505af1158015616c02573d6000803e3d6000fd5b50505050506040513d601f19601f82011682018060405250810190616c27919061789a565b9150616f7e565b8373ffffffffffffffffffffffffffffffffffffffff166323b872dd3330866040518463ffffffff1660e01b8152600401616c6b93929190617f2c565b602060405180830381600087803b158015616c8557600080fd5b505af1158015616c99573d6000803e3d6000fd5b505050506040513d601f19601f82011682018060405250810190616cbd919061762a565b50828473ffffffffffffffffffffffffffffffffffffffff1663dd62ed3e30600a60009054906101000a900473ffffffffffffffffffffffffffffffffffffffff166040518363ffffffff1660e01b8152600401616d1c929190617f03565b60206040518083038186803b158015616d3457600080fd5b505afa158015616d48573d6000803e3d6000fd5b505050506040513d601f19601f82011682018060405250810190616d6c919061789a565b1015616ea65760008473ffffffffffffffffffffffffffffffffffffffff166318160ddd6040518163ffffffff1660e01b815260040160206040518083038186803b158015616dba57600080fd5b505afa158015616dce573d6000803e3d6000fd5b505050506040513d601f19601f82011682018060405250810190616df2919061789a565b90508473ffffffffffffffffffffffffffffffffffffffff1663095ea7b3600a60009054906101000a900473ffffffffffffffffffffffffffffffffffffffff16836040518363ffffffff1660e01b8152600401616e51929190617f63565b602060405180830381600087803b158015616e6b57600080fd5b505af1158015616e7f573d6000803e3d6000fd5b505050506040513d601f19601f82011682018060405250810190616ea3919061762a565b50505b600a60009054906101000a900473ffffffffffffffffffffffffffffffffffffffff1673ffffffffffffffffffffffffffffffffffffffff166393cac685828587600c60009054906101000a900473ffffffffffffffffffffffffffffffffffffffff166040518563ffffffff1660e01b8152600401616f2994939291906183b9565b602060405180830381600087803b158015616f4357600080fd5b505af1158015616f57573d6000803e3d6000fd5b505050506040513d601f19601f82011682018060405250810190616f7b919061789a565b91505b5092915050565b6000601a60008381526020019081526020016000208054616fa5906188df565b80601f0160208091040260200160405190810160405280929190818152602001828054616fd1906188df565b801561701e5780601f10616ff35761010080835404028352916020019161701e565b820191906000526020600020905b81548152906001019060200180831161700157829003601f168201915b50505050509050813373ffffffffffffffffffffffffffffffffffffffff167f28fca9bc3d4a734a707bd9396d50341c1f45e1d455c4aa4a58ceee0e09f64544601b600086815260200190815260200160002054600d60009054906101000a900473ffffffffffffffffffffffffffffffffffffffff1673ffffffffffffffffffffffffffffffffffffffff166396c82e576040518163ffffffff1660e01b815260040160206040518083038186803b1580156170da57600080fd5b505afa1580156170ee573d6000803e3d6000fd5b505050506040513d601f19601f82011682018060405250810190617112919061789a565b85604051617122939291906183fe565b60405180910390a36000601b6000848152602001908152602001600020819055506001601e600084815260200190815260200160002060006101000a81548160ff0219169083151502179055506000601d600084815260200190815260200160002060006101000a81548160ff0219169083151502179055505050565b8280546171ab906188df565b90600052602060002090601f0160209004810192826171cd5760008555617214565b82601f106171e657805160ff1916838001178555617214565b82800160010185558215617214579182015b828111156172135782518255916020019190600101906171f8565b5b5090506172219190617284565b5090565b6040518061010001604052806000815260200160608152602001600081526020016000815260200160001515815260200160001515815260200160008152602001600073ffffffffffffffffffffffffffffffffffffffff1681525090565b5b8082111561729d576000816000905550600101617285565b5090565b60006172b46172af84618498565b618473565b9050828152602081018484840111156172cc57600080fd5b6172d784828561889d565b509392505050565b60006172f26172ed846184c9565b618473565b90508281526020810184848401111561730a57600080fd5b61731584828561889d565b509392505050565b60008135905061732c81618ce8565b92915050565b60008151905061734181618cff565b92915050565b60008151905061735681618d16565b92915050565b600082601f83011261736d57600080fd5b813561737d8482602086016172a1565b91505092915050565b60008151905061739581618d2d565b92915050565b6000815190506173aa81618d44565b92915050565b6000815190506173bf81618d5b565b92915050565b6000815190506173d481618d72565b92915050565b6000815190506173e981618d89565b92915050565b6000815190506173fe81618da0565b92915050565b60008151905061741381618db7565b92915050565b60008151905061742881618dce565b92915050565b600082601f83011261743f57600080fd5b813561744f8482602086016172df565b91505092915050565b60008135905061746781618de5565b92915050565b60008151905061747c81618de5565b92915050565b60008135905061749181618dfc565b92915050565b6000602082840312156174a957600080fd5b60006174b78482850161731d565b91505092915050565b600080604083850312156174d357600080fd5b60006174e18582860161731d565b92505060206174f28582860161731d565b9150509250929050565b60008060006060848603121561751157600080fd5b600061751f8682870161731d565b93505060206175308682870161731d565b92505060406175418682870161731d565b9150509250925092565b6000806040838503121561755e57600080fd5b600061756c8582860161731d565b925050602083013567ffffffffffffffff81111561758957600080fd5b6175958582860161742e565b9150509250929050565b600080604083850312156175b257600080fd5b60006175c08582860161731d565b92505060206175d185828601617458565b9150509250929050565b6000806000606084860312156175f057600080fd5b60006175fe8682870161731d565b935050602061760f86828701617458565b92505060406176208682870161731d565b9150509250925092565b60006020828403121561763c57600080fd5b600061764a84828501617332565b91505092915050565b60006020828403121561766557600080fd5b600061767384828501617347565b91505092915050565b6000806040838503121561768f57600080fd5b600083013567ffffffffffffffff8111156176a957600080fd5b6176b58582860161735c565b925050602083013567ffffffffffffffff8111156176d257600080fd5b6176de8582860161735c565b9150509250929050565b6000602082840312156176fa57600080fd5b600061770884828501617386565b91505092915050565b60006020828403121561772357600080fd5b60006177318482850161739b565b91505092915050565b60006020828403121561774c57600080fd5b600061775a848285016173b0565b91505092915050565b60006020828403121561777557600080fd5b6000617783848285016173c5565b91505092915050565b60006020828403121561779e57600080fd5b60006177ac848285016173da565b91505092915050565b6000602082840312156177c757600080fd5b60006177d5848285016173ef565b91505092915050565b6000602082840312156177f057600080fd5b60006177fe84828501617404565b91505092915050565b60006020828403121561781957600080fd5b600061782784828501617419565b91505092915050565b60006020828403121561784257600080fd5b600082013567ffffffffffffffff81111561785c57600080fd5b6178688482850161742e565b91505092915050565b60006020828403121561788357600080fd5b600061789184828501617458565b91505092915050565b6000602082840312156178ac57600080fd5b60006178ba8482850161746d565b91505092915050565b600080604083850312156178d657600080fd5b60006178e485828601617458565b92505060206178f58582860161731d565b9150509250929050565b6000806040838503121561791257600080fd5b600061792085828601617458565b925050602061793185828601617458565b9150509250929050565b6000806040838503121561794e57600080fd5b600061795c85828601617482565b925050602083013567ffffffffffffffff81111561797957600080fd5b6179858582860161742e565b9150509250929050565b600080600080600060a086880312156179a757600080fd5b60006179b588828901617482565b95505060206179c688828901617482565b94505060406179d788828901617482565b93505060606179e888828901617482565b92505060806179f988828901617482565b9150509295509295909350565b6000617a128383617a1e565b60208301905092915050565b617a278161868b565b82525050565b617a368161868b565b82525050565b6000617a478261850a565b617a518185618538565b9350617a5c836184fa565b8060005b83811015617a8d578151617a748882617a06565b9750617a7f8361852b565b925050600181019050617a60565b5085935050505092915050565b617aa38161869d565b82525050565b617ab28161869d565b82525050565b6000617ac382618515565b617acd8185618549565b9350617add8185602086016188ac565b80840191505092915050565b617af28161877d565b82525050565b617b01816187a1565b82525050565b617b10816187c5565b82525050565b617b1f816187e9565b82525050565b617b2e8161880d565b82525050565b617b3d81618831565b82525050565b617b4c81618855565b82525050565b617b5b81618879565b82525050565b6000617b6c82618520565b617b768185618554565b9350617b868185602086016188ac565b617b8f81618a47565b840191505092915050565b6000617ba582618520565b617baf8185618565565b9350617bbf8185602086016188ac565b617bc881618a47565b840191505092915050565b6000617be0600683618565565b9150617beb82618a58565b602082019050919050565b6000617c03600783618565565b9150617c0e82618a81565b602082019050919050565b6000617c26600783618565565b9150617c3182618aaa565b602082019050919050565b6000617c49600483618565565b9150617c5482618ad3565b602082019050919050565b6000617c6c601183618565565b9150617c7782618afc565b602082019050919050565b6000617c8f600883618565565b9150617c9a82618b25565b602082019050919050565b6000617cb2600a83618565565b9150617cbd82618b4e565b602082019050919050565b6000617cd5600b83618565565b9150617ce082618b77565b602082019050919050565b6000617cf8600783618565565b9150617d0382618ba0565b602082019050919050565b6000617d1b600983618565565b9150617d2682618bc9565b602082019050919050565b6000617d3e600883618565565b9150617d4982618bf2565b602082019050919050565b6000617d61600583618565565b9150617d6c82618c1b565b602082019050919050565b6000617d84600983618565565b9150617d8f82618c44565b602082019050919050565b6000617da7600983618565565b9150617db282618c6d565b602082019050919050565b6000617dca601383618565565b9150617dd582618c96565b602082019050919050565b6000617ded600683618565565b9150617df882618cbf565b602082019050919050565b600061010083016000830151617e1c6000860182617eb3565b5060208301518482036020860152617e348282617b61565b9150506040830151617e496040860182617eb3565b506060830151617e5c6060860182617eb3565b506080830151617e6f6080860182617a9a565b5060a0830151617e8260a0860182617a9a565b5060c0830151617e9560c0860182617eb3565b5060e0830151617ea860e0860182617a1e565b508091505092915050565b617ebc81618763565b82525050565b617ecb81618763565b82525050565b6000617edd8284617ab8565b915081905092915050565b6000602082019050617efd6000830184617a2d565b92915050565b6000604082019050617f186000830185617a2d565b617f256020830184617a2d565b9392505050565b6000606082019050617f416000830186617a2d565b617f4e6020830185617a2d565b617f5b6040830184617ec2565b949350505050565b6000604082019050617f786000830185617a2d565b617f856020830184617ec2565b9392505050565b6000606082019050617fa16000830186617a2d565b617fae6020830185617ec2565b617fbb6040830184617a2d565b949350505050565b60006020820190508181036000830152617fdd8184617a3c565b905092915050565b6000602082019050617ffa6000830184617aa9565b92915050565b60006020820190506180156000830184617ae9565b92915050565b60006020820190506180306000830184617af8565b92915050565b600060208201905061804b6000830184617b07565b92915050565b60006020820190506180666000830184617b16565b92915050565b60006020820190506180816000830184617b25565b92915050565b600060208201905061809c6000830184617b34565b92915050565b60006020820190506180b76000830184617b43565b92915050565b60006020820190506180d26000830184617b52565b92915050565b600060208201905081810360008301526180f28184617b9a565b905092915050565b6000602082019050818103600083015261811381617bd3565b9050919050565b6000602082019050818103600083015261813381617bf6565b9050919050565b6000602082019050818103600083015261815381617c19565b9050919050565b6000602082019050818103600083015261817381617c3c565b9050919050565b6000602082019050818103600083015261819381617c5f565b9050919050565b600060208201905081810360008301526181b381617c82565b9050919050565b600060208201905081810360008301526181d381617ca5565b9050919050565b600060208201905081810360008301526181f381617cc8565b9050919050565b6000602082019050818103600083015261821381617ceb565b9050919050565b6000602082019050818103600083015261823381617d0e565b9050919050565b6000602082019050818103600083015261825381617d31565b9050919050565b6000602082019050818103600083015261827381617d54565b9050919050565b6000602082019050818103600083015261829381617d77565b9050919050565b600060208201905081810360008301526182b381617d9a565b9050919050565b600060208201905081810360008301526182d381617dbd565b9050919050565b600060208201905081810360008301526182f381617de0565b9050919050565b600060208201905081810360008301526183148184617e03565b905092915050565b60006020820190506183316000830184617ec2565b92915050565b600060408201905061834c6000830185617ec2565b6183596020830184617a2d565b9392505050565b60006040820190506183756000830185617ec2565b81810360208301526183878184617b9a565b90509392505050565b60006040820190506183a56000830185617ec2565b6183b26020830184617ec2565b9392505050565b60006080820190506183ce6000830187617ec2565b6183db6020830186617ec2565b6183e86040830185617a2d565b6183f56060830184617a2d565b95945050505050565b60006060820190506184136000830186617ec2565b6184206020830185617ec2565b81810360408301526184328184617b9a565b9050949350505050565b60006060820190506184516000830186617ec2565b61845e6020830185617ec2565b61846b6040830184617ec2565b949350505050565b600061847d61848e565b90506184898282618911565b919050565b6000604051905090565b600067ffffffffffffffff8211156184b3576184b2618a18565b5b6184bc82618a47565b9050602081019050919050565b600067ffffffffffffffff8211156184e4576184e3618a18565b5b6184ed82618a47565b9050602081019050919050565b6000819050602082019050919050565b600081519050919050565b600081519050919050565b600081519050919050565b6000602082019050919050565b600082825260208201905092915050565b600081905092915050565b600082825260208201905092915050565b600082825260208201905092915050565b600061858182618763565b915061858c83618763565b9250827fffffffffffffffffffffffffffffffffffffffffffffffffffffffffffffffff038211156185c1576185c061898b565b5b828201905092915050565b60006185d782618763565b91506185e283618763565b9250826185f2576185f16189ba565b5b828204905092915050565b600061860882618763565b915061861383618763565b9250817fffffffffffffffffffffffffffffffffffffffffffffffffffffffffffffffff048311821515161561864c5761864b61898b565b5b828202905092915050565b600061866282618763565b915061866d83618763565b9250828210156186805761867f61898b565b5b828203905092915050565b600061869682618743565b9050919050565b60008115159050919050565b6000819050919050565b60006186be8261868b565b9050919050565b60006186d08261868b565b9050919050565b60006186e28261868b565b9050919050565b60006186f48261868b565b9050919050565b60006187068261868b565b9050919050565b60006187188261868b565b9050919050565b600061872a8261868b565b9050919050565b600061873c8261868b565b9050919050565b600073ffffffffffffffffffffffffffffffffffffffff82169050919050565b6000819050919050565b600063ffffffff82169050919050565b60006187888261878f565b9050919050565b600061879a82618743565b9050919050565b60006187ac826187b3565b9050919050565b60006187be82618743565b9050919050565b60006187d0826187d7565b9050919050565b60006187e282618743565b9050919050565b60006187f4826187fb565b9050919050565b600061880682618743565b9050919050565b60006188188261881f565b9050919050565b600061882a82618743565b9050919050565b600061883c82618843565b9050919050565b600061884e82618743565b9050919050565b600061886082618867565b9050919050565b600061887282618743565b9050919050565b60006188848261888b565b9050919050565b600061889682618743565b9050919050565b82818337600083830152505050565b60005b838110156188ca5780820151818401526020810190506188af565b838111156188d9576000848401525b50505050565b600060028204905060018216806188f757607f821691505b6020821081141561890b5761890a6189e9565b5b50919050565b61891a82618a47565b810181811067ffffffffffffffff8211171561893957618938618a18565b5b80604052505050565b600061894d82618763565b91507fffffffffffffffffffffffffffffffffffffffffffffffffffffffffffffffff8214156189805761897f61898b565b5b600182019050919050565b7f4e487b7100000000000000000000000000000000000000000000000000000000600052601160045260246000fd5b7f4e487b7100000000000000000000000000000000000000000000000000000000600052601260045260246000fd5b7f4e487b7100000000000000000000000000000000000000000000000000000000600052602260045260246000fd5b7f4e487b7100000000000000000000000000000000000000000000000000000000600052604160045260246000fd5b6000601f19601f8301169050919050565b7f2146554e44530000000000000000000000000000000000000000000000000000600082015250565b7f216c697374656400000000000000000000000000000000000000000000000000600082015250565b7f21416d6f756e7400000000000000000000000000000000000000000000000000600082015250565b7f2166656500000000000000000000000000000000000000000000000000000000600082015250565b7f4e6f20706172616d2070726f706f736564000000000000000000000000000000600082015250565b7f496e707574457272000000000000000000000000000000000000000000000000600082015250565b7f21454d495353494f4e5300000000000000000000000000000000000000000000600082015250565b7f2166696e616c6973696e67000000000000000000000000000000000000000000600082015250565b7f216d656d62657200000000000000000000000000000000000000000000000000600082015250565b7f21636f6f6c206f66660000000000000000000000000000000000000000000000600082015250565b7f2143757261746564000000000000000000000000000000000000000000000000600082015250565b7f2173616d65000000000000000000000000000000000000000000000000000000600082015250565b7f217472616e736665720000000000000000000000000000000000000000000000600082015250565b7f216d696e6f726974790000000000000000000000000000000000000000000000600082015250565b7f4e6f20616464726573732070726f706f73656400000000000000000000000000600082015250565b7f2161737365740000000000000000000000000000000000000000000000000000600082015250565b618cf18161868b565b8114618cfc57600080fd5b50565b618d088161869d565b8114618d1357600080fd5b50565b618d1f816186a9565b8114618d2a57600080fd5b50565b618d36816186b3565b8114618d4157600080fd5b50565b618d4d816186c5565b8114618d5857600080fd5b50565b618d64816186d7565b8114618d6f57600080fd5b50565b618d7b816186e9565b8114618d8657600080fd5b50565b618d92816186fb565b8114618d9d57600080fd5b50565b618da98161870d565b8114618db457600080fd5b50565b618dc08161871f565b8114618dcb57600080fd5b50565b618dd781618731565b8114618de257600080fd5b50565b618dee81618763565b8114618df957600080fd5b50565b618e058161876d565b8114618e1057600080fd5b5056fea2646970667358221220195740c66bd619c4c2d802f8477882f0f652efb660a1f88ae7dcdef3235a0f8a64736f6c63430008030033",
  "linkReferences": {},
  "deployedLinkReferences": {}
}