{
  "_format": "hh-sol-artifact-1",
  "contractName": "Dao",
  "sourceName": "contracts/Dao.sol",
  "abi": [
    {
      "inputs": [
        {
          "internalType": "address",
          "name": "_base",
          "type": "address"
        }
      ],
      "stateMutability": "nonpayable",
      "type": "constructor"
    },
    {
      "anonymous": false,
      "inputs": [
        {
          "indexed": true,
          "internalType": "address",
          "name": "member",
          "type": "address"
        },
        {
          "indexed": true,
          "internalType": "uint256",
          "name": "proposalID",
          "type": "uint256"
        }
      ],
      "name": "CancelProposal",
      "type": "event"
    },
    {
      "anonymous": false,
      "inputs": [
        {
          "indexed": true,
          "internalType": "address",
          "name": "DAO",
          "type": "address"
        },
        {
          "indexed": true,
          "internalType": "address",
          "name": "asset",
          "type": "address"
        }
      ],
      "name": "DelistedAsset",
      "type": "event"
    },
    {
      "anonymous": false,
      "inputs": [
        {
          "indexed": true,
          "internalType": "address",
          "name": "owner",
          "type": "address"
        },
        {
          "indexed": false,
          "internalType": "uint256",
          "name": "depositAmount",
          "type": "uint256"
        },
        {
          "indexed": false,
          "internalType": "uint256",
          "name": "bondedLP",
          "type": "uint256"
        }
      ],
      "name": "DepositAsset",
      "type": "event"
    },
    {
      "anonymous": false,
      "inputs": [
        {
          "indexed": true,
          "internalType": "address",
          "name": "member",
          "type": "address"
        },
        {
          "indexed": true,
          "internalType": "uint256",
          "name": "proposalID",
          "type": "uint256"
        },
        {
          "indexed": false,
          "internalType": "string",
          "name": "proposalType",
          "type": "string"
        }
      ],
      "name": "FinalisedProposal",
      "type": "event"
    },
    {
      "anonymous": false,
      "inputs": [
        {
          "indexed": true,
          "internalType": "address",
          "name": "DAO",
          "type": "address"
        },
        {
          "indexed": true,
          "internalType": "address",
          "name": "asset",
          "type": "address"
        }
      ],
      "name": "ListedAsset",
      "type": "event"
    },
    {
      "anonymous": false,
      "inputs": [
        {
          "indexed": true,
          "internalType": "address",
          "name": "member",
          "type": "address"
        },
        {
          "indexed": true,
          "internalType": "address",
          "name": "pool",
          "type": "address"
        },
        {
          "indexed": false,
          "internalType": "uint256",
          "name": "amount",
          "type": "uint256"
        }
      ],
      "name": "MemberDeposits",
      "type": "event"
    },
    {
      "anonymous": false,
      "inputs": [
        {
          "indexed": true,
          "internalType": "address",
          "name": "member",
          "type": "address"
        },
        {
          "indexed": true,
          "internalType": "address",
          "name": "pool",
          "type": "address"
        },
        {
          "indexed": false,
          "internalType": "uint256",
          "name": "balance",
          "type": "uint256"
        }
      ],
      "name": "MemberWithdraws",
      "type": "event"
    },
    {
      "anonymous": false,
      "inputs": [
        {
          "indexed": true,
          "internalType": "address",
          "name": "member",
          "type": "address"
        },
        {
          "indexed": true,
          "internalType": "uint256",
          "name": "proposalID",
          "type": "uint256"
        },
        {
          "indexed": false,
          "internalType": "string",
          "name": "proposalType",
          "type": "string"
        }
      ],
      "name": "NewProposal",
      "type": "event"
    },
    {
      "anonymous": false,
      "inputs": [
        {
          "indexed": true,
          "internalType": "address",
          "name": "member",
          "type": "address"
        },
        {
          "indexed": true,
          "internalType": "uint256",
          "name": "proposalID",
          "type": "uint256"
        },
        {
          "indexed": false,
          "internalType": "string",
          "name": "proposalType",
          "type": "string"
        }
      ],
      "name": "NewVote",
      "type": "event"
    },
    {
      "anonymous": false,
      "inputs": [
        {
          "indexed": true,
          "internalType": "address",
          "name": "member",
          "type": "address"
        },
        {
          "indexed": true,
          "internalType": "uint256",
          "name": "proposalID",
          "type": "uint256"
        },
        {
          "indexed": false,
          "internalType": "uint256",
          "name": "timeFinalised",
          "type": "uint256"
        },
        {
          "indexed": false,
          "internalType": "string",
          "name": "proposalType",
          "type": "string"
        }
      ],
      "name": "ProposalFinalising",
      "type": "event"
    },
    {
      "anonymous": false,
      "inputs": [
        {
          "indexed": true,
          "internalType": "address",
          "name": "member",
          "type": "address"
        },
        {
          "indexed": true,
          "internalType": "uint256",
          "name": "proposalID",
          "type": "uint256"
        },
        {
          "indexed": false,
          "internalType": "string",
          "name": "proposalType",
          "type": "string"
        }
      ],
      "name": "RemovedVote",
      "type": "event"
    },
    {
      "inputs": [],
      "name": "BASE",
      "outputs": [
        {
          "internalType": "address",
          "name": "",
          "type": "address"
        }
      ],
      "stateMutability": "view",
      "type": "function"
    },
    {
      "inputs": [],
      "name": "BONDVAULT",
      "outputs": [
        {
          "internalType": "contract iBONDVAULT",
          "name": "",
          "type": "address"
        }
      ],
      "stateMutability": "view",
      "type": "function"
    },
    {
      "inputs": [],
      "name": "DAO",
      "outputs": [
        {
          "internalType": "address",
          "name": "",
          "type": "address"
        }
      ],
      "stateMutability": "view",
      "type": "function"
    },
    {
      "inputs": [],
      "name": "DAOVAULT",
      "outputs": [
        {
          "internalType": "contract iDAOVAULT",
          "name": "",
          "type": "address"
        }
      ],
      "stateMutability": "view",
      "type": "function"
    },
    {
      "inputs": [],
      "name": "DEPLOYER",
      "outputs": [
        {
          "internalType": "address",
          "name": "",
          "type": "address"
        }
      ],
      "stateMutability": "view",
      "type": "function"
    },
    {
      "inputs": [],
      "name": "LEND",
      "outputs": [
        {
          "internalType": "contract iLEND",
          "name": "",
          "type": "address"
        }
      ],
      "stateMutability": "view",
      "type": "function"
    },
    {
      "inputs": [],
      "name": "POOLFACTORY",
      "outputs": [
        {
          "internalType": "contract iPOOLFACTORY",
          "name": "",
          "type": "address"
        }
      ],
      "stateMutability": "view",
      "type": "function"
    },
    {
      "inputs": [],
      "name": "RESERVE",
      "outputs": [
        {
          "internalType": "contract iRESERVE",
          "name": "",
          "type": "address"
        }
      ],
      "stateMutability": "view",
      "type": "function"
    },
    {
      "inputs": [],
      "name": "ROUTER",
      "outputs": [
        {
          "internalType": "contract iROUTER",
          "name": "",
          "type": "address"
        }
      ],
      "stateMutability": "view",
      "type": "function"
    },
    {
      "inputs": [],
      "name": "SYNTHFACTORY",
      "outputs": [
        {
          "internalType": "contract iSYNTHFACTORY",
          "name": "",
          "type": "address"
        }
      ],
      "stateMutability": "view",
      "type": "function"
    },
    {
      "inputs": [],
      "name": "SYNTHVAULT",
      "outputs": [
        {
          "internalType": "contract iSYNTHVAULT",
          "name": "",
          "type": "address"
        }
      ],
      "stateMutability": "view",
      "type": "function"
    },
    {
      "inputs": [],
      "name": "UTILS",
      "outputs": [
        {
          "internalType": "contract iUTILS",
          "name": "",
          "type": "address"
        }
      ],
      "stateMutability": "view",
      "type": "function"
    },
    {
      "inputs": [],
      "name": "allListedAssets",
      "outputs": [
        {
          "internalType": "address[]",
          "name": "_allListedAssets",
          "type": "address[]"
        }
      ],
      "stateMutability": "view",
      "type": "function"
    },
    {
      "inputs": [
        {
          "internalType": "uint256",
          "name": "",
          "type": "uint256"
        }
      ],
      "name": "arrayMembers",
      "outputs": [
        {
          "internalType": "address",
          "name": "",
          "type": "address"
        }
      ],
      "stateMutability": "view",
      "type": "function"
    },
    {
      "inputs": [],
      "name": "assetListedCount",
      "outputs": [
        {
          "internalType": "uint256",
          "name": "count",
          "type": "uint256"
        }
      ],
      "stateMutability": "view",
      "type": "function"
    },
    {
      "inputs": [
        {
          "internalType": "address",
          "name": "asset",
          "type": "address"
        },
        {
          "internalType": "uint256",
          "name": "amount",
          "type": "uint256"
        }
      ],
      "name": "bond",
      "outputs": [
        {
          "internalType": "bool",
          "name": "success",
          "type": "bool"
        }
      ],
      "stateMutability": "payable",
      "type": "function"
    },
    {
      "inputs": [],
      "name": "bondingPeriodSeconds",
      "outputs": [
        {
          "internalType": "uint256",
          "name": "",
          "type": "uint256"
        }
      ],
      "stateMutability": "view",
      "type": "function"
    },
    {
      "inputs": [],
      "name": "burnBalance",
      "outputs": [
        {
          "internalType": "bool",
          "name": "",
          "type": "bool"
        }
      ],
      "stateMutability": "nonpayable",
      "type": "function"
    },
    {
      "inputs": [
        {
          "internalType": "address",
          "name": "bondedMember",
          "type": "address"
        },
        {
          "internalType": "address",
          "name": "asset",
          "type": "address"
        }
      ],
      "name": "calcClaimBondedLP",
      "outputs": [
        {
          "internalType": "uint256",
          "name": "",
          "type": "uint256"
        }
      ],
      "stateMutability": "view",
      "type": "function"
    },
    {
      "inputs": [
        {
          "internalType": "address",
          "name": "member",
          "type": "address"
        }
      ],
      "name": "calcCurrentReward",
      "outputs": [
        {
          "internalType": "uint256",
          "name": "",
          "type": "uint256"
        }
      ],
      "stateMutability": "view",
      "type": "function"
    },
    {
      "inputs": [
        {
          "internalType": "address",
          "name": "member",
          "type": "address"
        }
      ],
      "name": "calcReward",
      "outputs": [
        {
          "internalType": "uint256",
          "name": "",
          "type": "uint256"
        }
      ],
      "stateMutability": "view",
      "type": "function"
    },
    {
      "inputs": [],
      "name": "cancelProposal",
      "outputs": [],
      "stateMutability": "nonpayable",
      "type": "function"
    },
    {
      "inputs": [
        {
          "internalType": "uint256",
          "name": "bondingSeconds",
          "type": "uint256"
        }
      ],
      "name": "changeBondingPeriod",
      "outputs": [],
      "stateMutability": "nonpayable",
      "type": "function"
    },
    {
      "inputs": [
        {
          "internalType": "address[]",
          "name": "bondAssets",
          "type": "address[]"
        }
      ],
      "name": "claimAll",
      "outputs": [
        {
          "internalType": "bool",
          "name": "",
          "type": "bool"
        }
      ],
      "stateMutability": "nonpayable",
      "type": "function"
    },
    {
      "inputs": [],
      "name": "coolOffPeriod",
      "outputs": [
        {
          "internalType": "uint256",
          "name": "",
          "type": "uint256"
        }
      ],
      "stateMutability": "view",
      "type": "function"
    },
    {
      "inputs": [],
      "name": "currentProposal",
      "outputs": [
        {
          "internalType": "uint256",
          "name": "",
          "type": "uint256"
        }
      ],
      "stateMutability": "view",
      "type": "function"
    },
    {
      "inputs": [],
      "name": "daoClaim",
      "outputs": [
        {
          "internalType": "uint256",
          "name": "",
          "type": "uint256"
        }
      ],
      "stateMutability": "view",
      "type": "function"
    },
    {
      "inputs": [],
      "name": "daoFee",
      "outputs": [
        {
          "internalType": "uint256",
          "name": "",
          "type": "uint256"
        }
      ],
      "stateMutability": "view",
      "type": "function"
    },
    {
      "inputs": [],
      "name": "daoHasMoved",
      "outputs": [
        {
          "internalType": "bool",
          "name": "",
          "type": "bool"
        }
      ],
      "stateMutability": "view",
      "type": "function"
    },
    {
      "inputs": [
        {
          "internalType": "address",
          "name": "asset",
          "type": "address"
        }
      ],
      "name": "delistBondAsset",
      "outputs": [],
      "stateMutability": "nonpayable",
      "type": "function"
    },
    {
      "inputs": [
        {
          "internalType": "address",
          "name": "pool",
          "type": "address"
        },
        {
          "internalType": "uint256",
          "name": "amount",
          "type": "uint256"
        }
      ],
      "name": "deposit",
      "outputs": [],
      "stateMutability": "nonpayable",
      "type": "function"
    },
    {
      "inputs": [],
      "name": "erasToEarn",
      "outputs": [
        {
          "internalType": "uint256",
          "name": "",
          "type": "uint256"
        }
      ],
      "stateMutability": "view",
      "type": "function"
    },
    {
      "inputs": [],
      "name": "finaliseProposal",
      "outputs": [],
      "stateMutability": "nonpayable",
      "type": "function"
    },
    {
      "inputs": [
        {
          "internalType": "uint256",
          "name": "proposal",
          "type": "uint256"
        },
        {
          "internalType": "address",
          "name": "asset",
          "type": "address"
        }
      ],
      "name": "getProposalAssetVotes",
      "outputs": [
        {
          "internalType": "uint256",
          "name": "",
          "type": "uint256"
        }
      ],
      "stateMutability": "view",
      "type": "function"
    },
    {
      "inputs": [
        {
          "internalType": "uint256",
          "name": "proposalID",
          "type": "uint256"
        }
      ],
      "name": "getProposalDetails",
      "outputs": [
        {
          "components": [
            {
              "internalType": "uint256",
              "name": "id",
              "type": "uint256"
            },
            {
              "internalType": "string",
              "name": "proposalType",
              "type": "string"
            },
            {
              "internalType": "uint256",
              "name": "votes",
              "type": "uint256"
            },
            {
              "internalType": "uint256",
              "name": "coolOffTime",
              "type": "uint256"
            },
            {
              "internalType": "bool",
              "name": "finalising",
              "type": "bool"
            },
            {
              "internalType": "bool",
              "name": "finalised",
              "type": "bool"
            },
            {
              "internalType": "uint256",
              "name": "param",
              "type": "uint256"
            },
            {
              "internalType": "address",
              "name": "proposedAddress",
              "type": "address"
            },
            {
              "internalType": "bool",
              "name": "open",
              "type": "bool"
            },
            {
              "internalType": "uint256",
              "name": "startTime",
              "type": "uint256"
            }
          ],
          "internalType": "struct Dao.ProposalDetails",
          "name": "proposalDetails",
          "type": "tuple"
        }
      ],
      "stateMutability": "view",
      "type": "function"
    },
    {
      "inputs": [],
      "name": "harvest",
      "outputs": [],
      "stateMutability": "nonpayable",
      "type": "function"
    },
    {
      "inputs": [
        {
          "internalType": "uint256",
          "name": "_proposalID",
          "type": "uint256"
        }
      ],
      "name": "hasMajority",
      "outputs": [
        {
          "internalType": "bool",
          "name": "",
          "type": "bool"
        }
      ],
      "stateMutability": "view",
      "type": "function"
    },
    {
      "inputs": [
        {
          "internalType": "uint256",
          "name": "_proposalID",
          "type": "uint256"
        }
      ],
      "name": "hasQuorum",
      "outputs": [
        {
          "internalType": "bool",
          "name": "",
          "type": "bool"
        }
      ],
      "stateMutability": "view",
      "type": "function"
    },
    {
      "inputs": [
        {
          "internalType": "address",
          "name": "",
          "type": "address"
        }
      ],
      "name": "isListed",
      "outputs": [
        {
          "internalType": "bool",
          "name": "",
          "type": "bool"
        }
      ],
      "stateMutability": "view",
      "type": "function"
    },
    {
      "inputs": [
        {
          "internalType": "address",
          "name": "",
          "type": "address"
        }
      ],
      "name": "isMember",
      "outputs": [
        {
          "internalType": "bool",
          "name": "",
          "type": "bool"
        }
      ],
      "stateMutability": "view",
      "type": "function"
    },
    {
      "inputs": [
        {
          "internalType": "address",
          "name": "asset",
          "type": "address"
        }
      ],
      "name": "listBondAsset",
      "outputs": [],
      "stateMutability": "nonpayable",
      "type": "function"
    },
    {
      "inputs": [
        {
          "internalType": "uint256",
          "name": "",
          "type": "uint256"
        }
      ],
      "name": "listedBondPools",
      "outputs": [
        {
          "internalType": "address",
          "name": "",
          "type": "address"
        }
      ],
      "stateMutability": "view",
      "type": "function"
    },
    {
      "inputs": [],
      "name": "majorityFactor",
      "outputs": [
        {
          "internalType": "uint256",
          "name": "",
          "type": "uint256"
        }
      ],
      "stateMutability": "view",
      "type": "function"
    },
    {
      "inputs": [
        {
          "internalType": "address",
          "name": "",
          "type": "address"
        }
      ],
      "name": "mapMember_lastTime",
      "outputs": [
        {
          "internalType": "uint256",
          "name": "",
          "type": "uint256"
        }
      ],
      "stateMutability": "view",
      "type": "function"
    },
    {
      "inputs": [
        {
          "internalType": "uint256",
          "name": "",
          "type": "uint256"
        }
      ],
      "name": "mapPID_address",
      "outputs": [
        {
          "internalType": "address",
          "name": "",
          "type": "address"
        }
      ],
      "stateMutability": "view",
      "type": "function"
    },
    {
      "inputs": [
        {
          "internalType": "uint256",
          "name": "",
          "type": "uint256"
        }
      ],
      "name": "mapPID_coolOffTime",
      "outputs": [
        {
          "internalType": "uint256",
          "name": "",
          "type": "uint256"
        }
      ],
      "stateMutability": "view",
      "type": "function"
    },
    {
      "inputs": [
        {
          "internalType": "uint256",
          "name": "",
          "type": "uint256"
        }
      ],
      "name": "mapPID_finalised",
      "outputs": [
        {
          "internalType": "bool",
          "name": "",
          "type": "bool"
        }
      ],
      "stateMutability": "view",
      "type": "function"
    },
    {
      "inputs": [
        {
          "internalType": "uint256",
          "name": "",
          "type": "uint256"
        }
      ],
      "name": "mapPID_finalising",
      "outputs": [
        {
          "internalType": "bool",
          "name": "",
          "type": "bool"
        }
      ],
      "stateMutability": "view",
      "type": "function"
    },
    {
      "inputs": [
        {
          "internalType": "uint256",
          "name": "",
          "type": "uint256"
        }
      ],
      "name": "mapPID_open",
      "outputs": [
        {
          "internalType": "bool",
          "name": "",
          "type": "bool"
        }
      ],
      "stateMutability": "view",
      "type": "function"
    },
    {
      "inputs": [
        {
          "internalType": "uint256",
          "name": "",
          "type": "uint256"
        }
      ],
      "name": "mapPID_param",
      "outputs": [
        {
          "internalType": "uint256",
          "name": "",
          "type": "uint256"
        }
      ],
      "stateMutability": "view",
      "type": "function"
    },
    {
      "inputs": [
        {
          "internalType": "uint256",
          "name": "",
          "type": "uint256"
        }
      ],
      "name": "mapPID_startTime",
      "outputs": [
        {
          "internalType": "uint256",
          "name": "",
          "type": "uint256"
        }
      ],
      "stateMutability": "view",
      "type": "function"
    },
    {
      "inputs": [
        {
          "internalType": "uint256",
          "name": "",
          "type": "uint256"
        }
      ],
      "name": "mapPID_type",
      "outputs": [
        {
          "internalType": "string",
          "name": "",
          "type": "string"
        }
      ],
      "stateMutability": "view",
      "type": "function"
    },
    {
      "inputs": [],
      "name": "memberCount",
      "outputs": [
        {
          "internalType": "uint256",
          "name": "",
          "type": "uint256"
        }
      ],
      "stateMutability": "view",
      "type": "function"
    },
    {
      "inputs": [
        {
          "internalType": "uint256",
          "name": "proposal",
          "type": "uint256"
        },
        {
          "internalType": "address",
          "name": "member",
          "type": "address"
        }
      ],
      "name": "memberVoted",
      "outputs": [
        {
          "internalType": "bool",
          "name": "",
          "type": "bool"
        }
      ],
      "stateMutability": "view",
      "type": "function"
    },
    {
      "inputs": [
        {
          "internalType": "address",
          "name": "newDAO",
          "type": "address"
        }
      ],
      "name": "moveBASEBalance",
      "outputs": [],
      "stateMutability": "nonpayable",
      "type": "function"
    },
    {
      "inputs": [
        {
          "internalType": "string",
          "name": "typeStr",
          "type": "string"
        }
      ],
      "name": "newActionProposal",
      "outputs": [],
      "stateMutability": "nonpayable",
      "type": "function"
    },
    {
      "inputs": [
        {
          "internalType": "address",
          "name": "proposedAddress",
          "type": "address"
        },
        {
          "internalType": "string",
          "name": "typeStr",
          "type": "string"
        }
      ],
      "name": "newAddressProposal",
      "outputs": [],
      "stateMutability": "nonpayable",
      "type": "function"
    },
    {
      "inputs": [
        {
          "internalType": "address",
          "name": "recipient",
          "type": "address"
        },
        {
          "internalType": "uint256",
          "name": "amount",
          "type": "uint256"
        }
      ],
      "name": "newGrantProposal",
      "outputs": [],
      "stateMutability": "nonpayable",
      "type": "function"
    },
    {
      "inputs": [
        {
          "internalType": "uint256",
          "name": "param",
          "type": "uint256"
        },
        {
          "internalType": "string",
          "name": "typeStr",
          "type": "string"
        }
      ],
      "name": "newParamProposal",
      "outputs": [],
      "stateMutability": "nonpayable",
      "type": "function"
    },
    {
      "inputs": [],
      "name": "pollVotes",
      "outputs": [],
      "stateMutability": "nonpayable",
      "type": "function"
    },
    {
      "inputs": [],
      "name": "purgeDeployer",
      "outputs": [],
      "stateMutability": "nonpayable",
      "type": "function"
    },
    {
      "inputs": [],
      "name": "retire",
      "outputs": [
        {
          "internalType": "bool",
          "name": "",
          "type": "bool"
        }
      ],
      "stateMutability": "view",
      "type": "function"
    },
    {
      "inputs": [],
      "name": "running",
      "outputs": [
        {
          "internalType": "bool",
          "name": "",
          "type": "bool"
        }
      ],
      "stateMutability": "view",
      "type": "function"
    },
    {
      "inputs": [
        {
          "internalType": "address",
          "name": "_poolFactory",
          "type": "address"
        },
        {
          "internalType": "address",
          "name": "_synthFactory",
          "type": "address"
        }
      ],
      "name": "setFactoryAddresses",
      "outputs": [],
      "stateMutability": "nonpayable",
      "type": "function"
    },
    {
      "inputs": [
        {
          "internalType": "address",
          "name": "_router",
          "type": "address"
        },
        {
          "internalType": "address",
          "name": "_utils",
          "type": "address"
        },
        {
          "internalType": "address",
          "name": "_reserve",
          "type": "address"
        },
        {
          "internalType": "address",
          "name": "_lend",
          "type": "address"
        }
      ],
      "name": "setGenesisAddresses",
      "outputs": [],
      "stateMutability": "nonpayable",
      "type": "function"
    },
    {
      "inputs": [
        {
          "internalType": "uint256",
          "name": "_coolOff",
          "type": "uint256"
        },
        {
          "internalType": "uint256",
          "name": "_erasToEarn",
          "type": "uint256"
        },
        {
          "internalType": "uint256",
          "name": "_majorityFactor",
          "type": "uint256"
        },
        {
          "internalType": "uint256",
          "name": "_daoClaim",
          "type": "uint256"
        },
        {
          "internalType": "uint256",
          "name": "_daoFee",
          "type": "uint256"
        },
        {
          "internalType": "bool",
          "name": "_running",
          "type": "bool"
        }
      ],
      "name": "setGenesisFactors",
      "outputs": [],
      "stateMutability": "nonpayable",
      "type": "function"
    },
    {
      "inputs": [
        {
          "internalType": "address",
          "name": "_daovault",
          "type": "address"
        },
        {
          "internalType": "address",
          "name": "_bondvault",
          "type": "address"
        },
        {
          "internalType": "address",
          "name": "_synthVault",
          "type": "address"
        }
      ],
      "name": "setVaultAddresses",
      "outputs": [],
      "stateMutability": "nonpayable",
      "type": "function"
    },
    {
      "inputs": [],
      "name": "unvoteProposal",
      "outputs": [],
      "stateMutability": "nonpayable",
      "type": "function"
    },
    {
      "inputs": [],
      "name": "voteProposal",
      "outputs": [],
      "stateMutability": "nonpayable",
      "type": "function"
    },
    {
      "inputs": [
        {
          "internalType": "address",
          "name": "pool",
          "type": "address"
        }
      ],
      "name": "withdraw",
      "outputs": [],
      "stateMutability": "nonpayable",
      "type": "function"
    }
  ],
  "bytecode": "0x60a060405262ed4e006014553480156200001857600080fd5b506040516200bc453803806200bc4583398181016040528101906200003e9190620001d8565b6001600081905550600073ffffffffffffffffffffffffffffffffffffffff168173ffffffffffffffffffffffffffffffffffffffff161415620000b9576040517f08c379a0000000000000000000000000000000000000000000000000000000008152600401620000b0906200022b565b60405180910390fd5b8073ffffffffffffffffffffffffffffffffffffffff1660808173ffffffffffffffffffffffffffffffffffffffff1660601b8152505033600160006101000a81548173ffffffffffffffffffffffffffffffffffffffff021916908373ffffffffffffffffffffffffffffffffffffffff16021790555030600860016101000a81548173ffffffffffffffffffffffffffffffffffffffff021916908373ffffffffffffffffffffffffffffffffffffffff1602179055506203f480600281905550601e600481905550611a0a6003819055506103e86005819055506000600160156101000a81548160ff02191690831515021790555061019060068190555050620002d5565b600081519050620001d281620002bb565b92915050565b600060208284031215620001eb57600080fd5b6000620001fb84828501620001c1565b91505092915050565b6000620002136005836200024d565b9150620002208262000292565b602082019050919050565b60006020820190508181036000830152620002468162000204565b9050919050565b600082825260208201905092915050565b60006200026b8262000272565b9050919050565b600073ffffffffffffffffffffffffffffffffffffffff82169050919050565b7f215a45524f000000000000000000000000000000000000000000000000000000600082015250565b620002c6816200025e565b8114620002d257600080fd5b50565b60805160601c61b8e16200036460003960008181611c3201528181612383015281816125c801528181613cb201528181613d5d015281816151a00152818161657f0152818161662a01528181616c930152818161796c01528181617b9a01528181617c6d01528181617ccc015281816185360152818161872f015281816188da0152618abb015261b8e16000f3fe6080604052600436106104055760003560e01c80637b0e5c4511610213578063ae887c8b11610123578063c1b8411a116100ab578063ec342ad01161007a578063ec342ad014610fba578063f135dcf814610fe5578063f301e78114611022578063f794062e1461104d578063f7a79a371461108a57610405565b8063c1b8411a14610f12578063d145836314610f3d578063d85bd52614610f66578063db634d7c14610f9157610405565b8063b93ec54b116100f2578063b93ec54b14610e17578063b99b0a0c14610e42578063bbf8cf8214610e6d578063bc68fad914610eaa578063c05fc17814610ed557610405565b8063ae887c8b14610d37578063af04598014610d74578063b7407e6a14610d9d578063b826286914610dda57610405565b8063a230c524116101a6578063a515366a11610175578063a515366a14610c73578063a6c83fed14610ca3578063ab2bd8fd14610ccc578063ab4ed05b14610ce3578063abb6154f14610d0c57610405565b8063a230c52414610ba5578063a299ecb214610be2578063a320224614610c1f578063a4874d7714610c4857610405565b8063956615be116101e2578063956615be14610afb57806398fabd3a14610b265780639cd99aa214610b515780639d2cc43614610b7a57610405565b80637b0e5c4514610a655780638351739a14610a905780638bebea8914610aa75780639070577f14610ae457610405565b80633b4d01a71161031957806351cff8d9116102a157806365c71bbf1161027057806365c71bbf146109a6578063682454ed146109d157806368bb97b3146109e85780637375898814610a1157806379b2dc4c14610a3a57610405565b806351cff8d9146108ec5780635c120b37146109155780635c7366d3146109525780635f9384fc1461098f57610405565b806346350821116102e857806346350821146108095780634636279f146108325780634641257d1461086f57806347e7ef24146108865780634b400034146108af57610405565b80633b4d01a7146107295780633f3fa33614610766578063436f80be146107a357806343b2116f146107e057610405565b80632b49d4251161039c578063314604fe1161036b578063314604fe1461062e57806332fe7b261461066b57806335cb5fe01461069657806338da7dd6146106c15780633a61738d146106ec57610405565b80632b49d425146105705780632bee11941461059b5780632c07eebf146105d85780632f7fa1801461060357610405565b806324efb528116103d857806324efb528146104c6578063293cee7d146104f15780632957b8391461051a5780632ab24e491461054557610405565b806303a821381461040a57806303c06fbd1461042157806311aee3801461045e5780631e2de0d114610489575b600080fd5b34801561041657600080fd5b5061041f6110b5565b005b34801561042d57600080fd5b506104486004803603810190610443919061a0a4565b611153565b604051610455919061a815565b60405180910390f35b34801561046a57600080fd5b50610473611192565b604051610480919061ad04565b60405180910390f35b34801561049557600080fd5b506104b060048036038101906104ab9190619e1e565b61119f565b6040516104bd919061a912565b60405180910390f35b3480156104d257600080fd5b506104db61131a565b6040516104e8919061a912565b60405180910390f35b3480156104fd57600080fd5b5061051860048036038101906105139190619d8e565b61132d565b005b34801561052657600080fd5b5061052f6115e3565b60405161053c919061ad04565b60405180910390f35b34801561055157600080fd5b5061055a6115e9565b604051610567919061a9ea565b60405180910390f35b34801561057c57600080fd5b506105856116d0565b604051610592919061ad04565b60405180910390f35b3480156105a757600080fd5b506105c260048036038101906105bd919061a0a4565b6116d6565b6040516105cf919061a912565b60405180910390f35b3480156105e457600080fd5b506105ed6116f6565b6040516105fa919061ad04565b60405180910390f35b34801561060f57600080fd5b506106186116fc565b604051610625919061a92d565b60405180910390f35b34801561063a57600080fd5b506106556004803603810190610650919061a0a4565b6117e3565b604051610662919061ad04565b60405180910390f35b34801561067757600080fd5b506106806117fb565b60405161068d919061a9b4565b60405180910390f35b3480156106a257600080fd5b506106ab6118e2565b6040516106b8919061a8f0565b60405180910390f35b3480156106cd57600080fd5b506106d6611970565b6040516106e3919061a948565b60405180910390f35b3480156106f857600080fd5b50610713600480360381019061070e9190619c4e565b611a57565b604051610720919061ad04565b60405180910390f35b34801561073557600080fd5b50610750600480360381019061074b919061a0a4565b611de4565b60405161075d919061ace2565b60405180910390f35b34801561077257600080fd5b5061078d6004803603810190610788919061a0f6565b611ff3565b60405161079a919061ad04565b60405180910390f35b3480156107af57600080fd5b506107ca60048036038101906107c5919061a0a4565b61204e565b6040516107d7919061a815565b60405180910390f35b3480156107ec57600080fd5b5061080760048036038101906108029190619d2b565b61208d565b005b34801561081557600080fd5b50610830600480360381019061082b9190619ca0565b6121f1565b005b34801561083e57600080fd5b5061085960048036038101906108549190619c4e565b6122d1565b604051610866919061ad04565b60405180910390f35b34801561087b57600080fd5b50610884612442565b005b34801561089257600080fd5b506108ad60048036038101906108a89190619de2565b612752565b005b3480156108bb57600080fd5b506108d660048036038101906108d1919061a0a4565b612cda565b6040516108e3919061a912565b60405180910390f35b3480156108f857600080fd5b50610913600480360381019061090e9190619c4e565b612cfa565b005b34801561092157600080fd5b5061093c6004803603810190610937919061a0a4565b613008565b604051610949919061a912565b60405180910390f35b34801561095e57600080fd5b5061097960048036038101906109749190619c4e565b61356b565b604051610986919061ad04565b60405180910390f35b34801561099b57600080fd5b506109a4613583565b005b3480156109b257600080fd5b506109bb61397b565b6040516109c8919061ad04565b60405180910390f35b3480156109dd57600080fd5b506109e6613981565b005b3480156109f457600080fd5b50610a0f6004803603810190610a0a9190619c4e565b613c54565b005b348015610a1d57600080fd5b50610a386004803603810190610a339190619cdc565b613e0d565b005b348015610a4657600080fd5b50610a4f613f2f565b604051610a5c919061ad04565b60405180910390f35b348015610a7157600080fd5b50610a7a613f35565b604051610a87919061aa05565b60405180910390f35b348015610a9c57600080fd5b50610aa561401c565b005b348015610ab357600080fd5b50610ace6004803603810190610ac9919061a0a4565b6143d8565b604051610adb919061a912565b60405180910390f35b348015610af057600080fd5b50610af96143f8565b005b348015610b0757600080fd5b50610b106146e5565b604051610b1d919061ad04565b60405180910390f35b348015610b3257600080fd5b50610b3b6146eb565b604051610b48919061a815565b60405180910390f35b348015610b5d57600080fd5b50610b786004803603810190610b739190619c4e565b614711565b005b348015610b8657600080fd5b50610b8f614a29565b604051610b9c919061a999565b60405180910390f35b348015610bb157600080fd5b50610bcc6004803603810190610bc79190619c4e565b614b10565b604051610bd9919061a912565b60405180910390f35b348015610bee57600080fd5b50610c096004803603810190610c04919061a0a4565b614b30565b604051610c16919061ad04565b60405180910390f35b348015610c2b57600080fd5b50610c466004803603810190610c41919061a132565b614b48565b005b348015610c5457600080fd5b50610c5d614c34565b604051610c6a919061a912565b60405180910390f35b610c8d6004803603810190610c889190619de2565b614c47565b604051610c9a919061a912565b60405180910390f35b348015610caf57600080fd5b50610cca6004803603810190610cc59190619de2565b61512c565b005b348015610cd857600080fd5b50610ce1615410565b005b348015610cef57600080fd5b50610d0a6004803603810190610d05919061a1c2565b615c40565b005b348015610d1857600080fd5b50610d21615cdf565b604051610d2e919061ad04565b60405180910390f35b348015610d4357600080fd5b50610d5e6004803603810190610d59919061a0a4565b615ce5565b604051610d6b919061a815565b60405180910390f35b348015610d8057600080fd5b50610d9b6004803603810190610d96919061a0a4565b615d18565b005b348015610da957600080fd5b50610dc46004803603810190610dbf919061a0f6565b615d7c565b604051610dd1919061a912565b60405180910390f35b348015610de657600080fd5b50610e016004803603810190610dfc919061a0a4565b615de4565b604051610e0e919061ad04565b60405180910390f35b348015610e2357600080fd5b50610e2c615dfc565b604051610e39919061a9cf565b60405180910390f35b348015610e4e57600080fd5b50610e57615ee3565b604051610e64919061a97e565b60405180910390f35b348015610e7957600080fd5b50610e946004803603810190610e8f919061a0a4565b615fca565b604051610ea1919061a912565b60405180910390f35b348015610eb657600080fd5b50610ebf61651f565b604051610ecc919061a912565b60405180910390f35b348015610ee157600080fd5b50610efc6004803603810190610ef7919061a0a4565b6166bb565b604051610f09919061aa20565b60405180910390f35b348015610f1e57600080fd5b50610f2761675b565b604051610f34919061a815565b60405180910390f35b348015610f4957600080fd5b50610f646004803603810190610f5f919061a063565b616781565b005b348015610f7257600080fd5b50610f7b616811565b604051610f88919061a912565b60405180910390f35b348015610f9d57600080fd5b50610fb86004803603810190610fb39190619c4e565b616824565b005b348015610fc657600080fd5b50610fcf616c91565b604051610fdc919061a815565b60405180910390f35b348015610ff157600080fd5b5061100c60048036038101906110079190619ca0565b616cb5565b604051611019919061ad04565b60405180910390f35b34801561102e57600080fd5b50611037616d71565b604051611044919061a963565b60405180910390f35b34801561105957600080fd5b50611074600480360381019061106f9190619c4e565b616e58565b604051611081919061a912565b60405180910390f35b34801561109657600080fd5b5061109f616e78565b6040516110ac919061ad04565b60405180910390f35b600160009054906101000a900473ffffffffffffffffffffffffffffffffffffffff1673ffffffffffffffffffffffffffffffffffffffff163373ffffffffffffffffffffffffffffffffffffffff161461110f57600080fd5b6000600160006101000a81548173ffffffffffffffffffffffffffffffffffffffff021916908373ffffffffffffffffffffffffffffffffffffffff160217905550565b6013818154811061116357600080fd5b906000526020600020016000915054906101000a900473ffffffffffffffffffffffffffffffffffffffff1681565b6000601280549050905090565b6000600160149054906101000a900460ff16156111f1576040517f08c379a00000000000000000000000000000000000000000000000000000000081526004016111e89061aa62565b60405180910390fd5b600060075490506000601e600083815260200190815260200160002060009054906101000a900460ff16801561128157506021600083815260200190815260200160002060003373ffffffffffffffffffffffffffffffffffffffff1673ffffffffffffffffffffffffffffffffffffffff16815260200190815260200160002060009054906101000a900460ff165b905080156112945761129282616e85565b505b60005b84518110156112fd576112e98582815181106112dc577f4e487b7100000000000000000000000000000000000000000000000000000000600052603260045260246000fd5b60200260200101516171f3565b5080806112f59061b30d565b915050611297565b5060019250801561131357611311826172f6565b505b5050919050565b600860009054906101000a900460ff1681565b6000819050611371816040518060400160405280600381526020017f44414f0000000000000000000000000000000000000000000000000000000000815250617664565b806113b757506113b6816040518060400160405280600681526020017f524f555445520000000000000000000000000000000000000000000000000000815250617664565b5b806113fd57506113fc816040518060400160405280600581526020017f5554494c53000000000000000000000000000000000000000000000000000000815250617664565b5b806114435750611442816040518060400160405280600781526020017f5245534552564500000000000000000000000000000000000000000000000000815250617664565b5b806114895750611488816040518060400160405280600781526020017f5245414c49534500000000000000000000000000000000000000000000000000815250617664565b5b156114ff57600073ffffffffffffffffffffffffffffffffffffffff168373ffffffffffffffffffffffffffffffffffffffff1614156114fe576040517f08c379a00000000000000000000000000000000000000000000000000000000081526004016114f59061ac22565b60405180910390fd5b5b600061150961770f565b9050611513617968565b50836019600083815260200190815260200160002060006101000a81548173ffffffffffffffffffffffffffffffffffffffff021916908373ffffffffffffffffffffffffffffffffffffffff16021790555082601a6000838152602001908152602001600020908051906020019061158d929190619858565b50803373ffffffffffffffffffffffffffffffffffffffff167f8d500fcad86fc64a281b94ef64d6d66acbfc6862aa4ff2ee5fbbfb40736e803e856040516115d5919061aa20565b60405180910390a350505050565b60065481565b6000600860009054906101000a900460ff16156116a757600860019054906101000a900473ffffffffffffffffffffffffffffffffffffffff1673ffffffffffffffffffffffffffffffffffffffff16632ab24e496040518163ffffffff1660e01b815260040160206040518083038186803b15801561166857600080fd5b505afa15801561167c573d6000803e3d6000fd5b505050506040513d601f19601f820116820180604052508101906116a0919061a011565b90506116cd565b601060009054906101000a900473ffffffffffffffffffffffffffffffffffffffff1690505b90565b60075481565b601d6020528060005260406000206000915054906101000a900460ff1681565b60045481565b6000600860009054906101000a900460ff16156117ba57600860019054906101000a900473ffffffffffffffffffffffffffffffffffffffff1673ffffffffffffffffffffffffffffffffffffffff16632f7fa1806040518163ffffffff1660e01b815260040160206040518083038186803b15801561177b57600080fd5b505afa15801561178f573d6000803e3d6000fd5b505050506040513d601f19601f820116820180604052508101906117b39190619ef2565b90506117e0565b600b60009054906101000a900473ffffffffffffffffffffffffffffffffffffffff1690505b90565b60186020528060005260406000206000915090505481565b6000600860009054906101000a900460ff16156118b957600860019054906101000a900473ffffffffffffffffffffffffffffffffffffffff1673ffffffffffffffffffffffffffffffffffffffff166332fe7b266040518163ffffffff1660e01b815260040160206040518083038186803b15801561187a57600080fd5b505afa15801561188e573d6000803e3d6000fd5b505050506040513d601f19601f820116820180604052508101906118b29190619fbf565b90506118df565b600960009054906101000a900473ffffffffffffffffffffffffffffffffffffffff1690505b90565b6060601380548060200260200160405190810160405280929190818152602001828054801561196657602002820191906000526020600020905b8160009054906101000a900473ffffffffffffffffffffffffffffffffffffffff1673ffffffffffffffffffffffffffffffffffffffff168152602001906001019080831161191c575b5050505050905090565b6000600860009054906101000a900460ff1615611a2e57600860019054906101000a900473ffffffffffffffffffffffffffffffffffffffff1673ffffffffffffffffffffffffffffffffffffffff166338da7dd66040518163ffffffff1660e01b815260040160206040518083038186803b1580156119ef57600080fd5b505afa158015611a03573d6000803e3d6000fd5b505050506040513d601f19601f82011682018060405250810190611a279190619f1b565b9050611a54565b600c60009054906101000a900473ffffffffffffffffffffffffffffffffffffffff1690505b90565b6000600160149054906101000a900460ff1615611aa9576040517f08c379a0000000000000000000000000000000000000000000000000000000008152600401611aa09061aa62565b60405180910390fd5b600080600c60009054906101000a900473ffffffffffffffffffffffffffffffffffffffff1673ffffffffffffffffffffffffffffffffffffffff1663a477b804856040518263ffffffff1660e01b8152600401611b07919061a815565b604080518083038186803b158015611b1e57600080fd5b505afa158015611b32573d6000803e3d6000fd5b505050506040513d601f19601f82011682018060405250810190611b56919061a186565b91509150600080600b60009054906101000a900473ffffffffffffffffffffffffffffffffffffffff1673ffffffffffffffffffffffffffffffffffffffff1663a477b804876040518263ffffffff1660e01b8152600401611bb8919061a815565b604080518083038186803b158015611bcf57600080fd5b505afa158015611be3573d6000803e3d6000fd5b505050506040513d601f19601f82011682018060405250810190611c07919061a186565b9150915060008285611c19919061af1b565b905060008285611c29919061af1b565b905060006004547f000000000000000000000000000000000000000000000000000000000000000073ffffffffffffffffffffffffffffffffffffffff166370a08231600f60009054906101000a900473ffffffffffffffffffffffffffffffffffffffff166040518263ffffffff1660e01b8152600401611cab919061a815565b60206040518083038186803b158015611cc357600080fd5b505afa158015611cd7573d6000803e3d6000fd5b505050506040513d601f19601f82011682018060405250810190611cfb919061a0cd565b611d05919061af71565b9050600061271060055483611d1a919061afa2565b611d24919061af71565b9050600a60009054906101000a900473ffffffffffffffffffffffffffffffffffffffff1673ffffffffffffffffffffffffffffffffffffffff16631ba326c48585846040518463ffffffff1660e01b8152600401611d859392919061ade6565b60206040518083038186803b158015611d9d57600080fd5b505afa158015611db1573d6000803e3d6000fd5b505050506040513d601f19601f82011682018060405250810190611dd5919061a0cd565b98505050505050505050919050565b611dec6198de565b81816000018181525050601a60008381526020019081526020016000208054611e149061b2aa565b80601f0160208091040260200160405190810160405280929190818152602001828054611e409061b2aa565b8015611e8d5780601f10611e6257610100808354040283529160200191611e8d565b820191906000526020600020905b815481529060010190602001808311611e7057829003601f168201915b50505050508160200181905250601b600083815260200190815260200160002054816060018181525050601c600083815260200190815260200160002060009054906101000a900460ff16816080019015159081151581525050601d600083815260200190815260200160002060009054906101000a900460ff168160a001901515908115158152505060186000838152602001908152602001600020548160c00181815250506019600083815260200190815260200160002060009054906101000a900473ffffffffffffffffffffffffffffffffffffffff168160e0019073ffffffffffffffffffffffffffffffffffffffff16908173ffffffffffffffffffffffffffffffffffffffff1681525050601e600083815260200190815260200160002060009054906101000a900460ff1681610100019015159081151581525050601f60008381526020019081526020016000205481610120018181525050919050565b60006020600084815260200190815260200160002060008373ffffffffffffffffffffffffffffffffffffffff1673ffffffffffffffffffffffffffffffffffffffff16815260200190815260200160002054905092915050565b6012818154811061205e57600080fd5b906000526020600020016000915054906101000a900473ffffffffffffffffffffffffffffffffffffffff1681565b600160009054906101000a900473ffffffffffffffffffffffffffffffffffffffff1673ffffffffffffffffffffffffffffffffffffffff163373ffffffffffffffffffffffffffffffffffffffff16146120e757600080fd5b83600960006101000a81548173ffffffffffffffffffffffffffffffffffffffff021916908373ffffffffffffffffffffffffffffffffffffffff16021790555082600a60006101000a81548173ffffffffffffffffffffffffffffffffffffffff021916908373ffffffffffffffffffffffffffffffffffffffff16021790555081600f60006101000a81548173ffffffffffffffffffffffffffffffffffffffff021916908373ffffffffffffffffffffffffffffffffffffffff16021790555080601160006101000a81548173ffffffffffffffffffffffffffffffffffffffff021916908373ffffffffffffffffffffffffffffffffffffffff16021790555050505050565b600160009054906101000a900473ffffffffffffffffffffffffffffffffffffffff1673ffffffffffffffffffffffffffffffffffffffff163373ffffffffffffffffffffffffffffffffffffffff161461224b57600080fd5b81600d60006101000a81548173ffffffffffffffffffffffffffffffffffffffff021916908373ffffffffffffffffffffffffffffffffffffffff16021790555080600e60006101000a81548173ffffffffffffffffffffffffffffffffffffffff021916908373ffffffffffffffffffffffffffffffffffffffff1602179055505050565b6000600160149054906101000a900460ff1615612323576040517f08c379a000000000000000000000000000000000000000000000000000000000815260040161231a9061aa62565b60405180910390fd5b6000601760008473ffffffffffffffffffffffffffffffffffffffff1673ffffffffffffffffffffffffffffffffffffffff1681526020019081526020016000205442612370919061affc565b9050600061237d84611a57565b905060007f000000000000000000000000000000000000000000000000000000000000000073ffffffffffffffffffffffffffffffffffffffff16636b92a3b66040518163ffffffff1660e01b815260040160206040518083038186803b1580156123e757600080fd5b505afa1580156123fb573d6000803e3d6000fd5b505050506040513d601f19601f8201168201806040525081019061241f919061a0cd565b838361242b919061afa2565b612435919061af71565b9050809350505050919050565b600160149054906101000a900460ff1615612492576040517f08c379a00000000000000000000000000000000000000000000000000000000081526004016124899061aa62565b60405180910390fd5b600f60009054906101000a900473ffffffffffffffffffffffffffffffffffffffff1673ffffffffffffffffffffffffffffffffffffffff16632267716c6040518163ffffffff1660e01b8152600401602060405180830381600087803b1580156124fc57600080fd5b505af1158015612510573d6000803e3d6000fd5b505050506040513d601f19601f820116820180604052508101906125349190619ea0565b612573576040517f08c379a000000000000000000000000000000000000000000000000000000000815260040161256a9061ab02565b60405180910390fd5b600061257e336122d1565b905042601760003373ffffffffffffffffffffffffffffffffffffffff1673ffffffffffffffffffffffffffffffffffffffff1681526020019081526020016000208190555060007f000000000000000000000000000000000000000000000000000000000000000073ffffffffffffffffffffffffffffffffffffffff166370a08231600f60009054906101000a900473ffffffffffffffffffffffffffffffffffffffff166040518263ffffffff1660e01b8152600401612641919061a815565b60206040518083038186803b15801561265957600080fd5b505afa15801561266d573d6000803e3d6000fd5b505050506040513d601f19601f82011682018060405250810190612691919061a0cd565b90506000612710600554836126a6919061afa2565b6126b0919061af71565b9050808311156126be578092505b600f60009054906101000a900473ffffffffffffffffffffffffffffffffffffffff1673ffffffffffffffffffffffffffffffffffffffff16637d458baa84336040518363ffffffff1660e01b815260040161271b92919061ad1f565b600060405180830381600087803b15801561273557600080fd5b505af1158015612749573d6000803e3d6000fd5b50505050505050565b600160149054906101000a900460ff16156127a2576040517f08c379a00000000000000000000000000000000000000000000000000000000081526004016127999061aa62565b60405180910390fd5b600060075490506000601e600083815260200190815260200160002060009054906101000a900460ff16801561283257506021600083815260200190815260200160002060003373ffffffffffffffffffffffffffffffffffffffff1673ffffffffffffffffffffffffffffffffffffffff16815260200190815260200160002060009054906101000a900460ff165b905080156128455761284382616e85565b505b60011515600d60009054906101000a900473ffffffffffffffffffffffffffffffffffffffff1673ffffffffffffffffffffffffffffffffffffffff16638dcb4c93866040518263ffffffff1660e01b81526004016128a4919061a815565b60206040518083038186803b1580156128bc57600080fd5b505afa1580156128d0573d6000803e3d6000fd5b505050506040513d601f19601f820116820180604052508101906128f49190619ea0565b151514612936576040517f08c379a000000000000000000000000000000000000000000000000000000000815260040161292d9061aba2565b60405180910390fd5b60008311612979576040517f08c379a00000000000000000000000000000000000000000000000000000000081526004016129709061ac02565b60405180910390fd5b60011515601560003373ffffffffffffffffffffffffffffffffffffffff1673ffffffffffffffffffffffffffffffffffffffff16815260200190815260200160002060009054906101000a900460ff16151514612a8d576012339080600181540180825580915050600190039060005260206000200160009091909190916101000a81548173ffffffffffffffffffffffffffffffffffffffff021916908373ffffffffffffffffffffffffffffffffffffffff1602179055506001601560003373ffffffffffffffffffffffffffffffffffffffff1673ffffffffffffffffffffffffffffffffffffffff16815260200190815260200160002060006101000a81548160ff0219169083151502179055505b8373ffffffffffffffffffffffffffffffffffffffff166323b872dd33600c60009054906101000a900473ffffffffffffffffffffffffffffffffffffffff16866040518463ffffffff1660e01b8152600401612aec9392919061a859565b602060405180830381600087803b158015612b0657600080fd5b505af1158015612b1a573d6000803e3d6000fd5b505050506040513d601f19601f82011682018060405250810190612b3e9190619ea0565b612b7d576040517f08c379a0000000000000000000000000000000000000000000000000000000008152600401612b749061abc2565b60405180910390fd5b600c60009054906101000a900473ffffffffffffffffffffffffffffffffffffffff1673ffffffffffffffffffffffffffffffffffffffff166346dafa2f8585336040518463ffffffff1660e01b8152600401612bdc9392919061a8b9565b600060405180830381600087803b158015612bf657600080fd5b505af1158015612c0a573d6000803e3d6000fd5b50505050603c42612c1b919061af1b565b601760003373ffffffffffffffffffffffffffffffffffffffff1673ffffffffffffffffffffffffffffffffffffffff168152602001908152602001600020819055508373ffffffffffffffffffffffffffffffffffffffff163373ffffffffffffffffffffffffffffffffffffffff167f5f9b5a75581a29d72b32414a5df7f1ef124b7787b38616fb8fdcad76179127c285604051612cbb919061ad04565b60405180910390a38015612cd457612cd2826172f6565b505b50505050565b601c6020528060005260406000206000915054906101000a900460ff1681565b600160149054906101000a900460ff1615612d4a576040517f08c379a0000000000000000000000000000000000000000000000000000000008152600401612d419061aa62565b60405180910390fd5b600060075490506000601e600083815260200190815260200160002060009054906101000a900460ff168015612dda57506021600083815260200190815260200160002060003373ffffffffffffffffffffffffffffffffffffffff1673ffffffffffffffffffffffffffffffffffffffff16815260200190815260200160002060009054906101000a900460ff165b90508015612ded57612deb82616e85565b505b6000600c60009054906101000a900473ffffffffffffffffffffffffffffffffffffffff1673ffffffffffffffffffffffffffffffffffffffff1663aa9fd37433866040518363ffffffff1660e01b8152600401612e4c92919061a830565b60206040518083038186803b158015612e6457600080fd5b505afa158015612e78573d6000803e3d6000fd5b505050506040513d601f19601f82011682018060405250810190612e9c919061a0cd565b9050600c60009054906101000a900473ffffffffffffffffffffffffffffffffffffffff1673ffffffffffffffffffffffffffffffffffffffff1663f940e38585336040518363ffffffff1660e01b8152600401612efb92919061a830565b602060405180830381600087803b158015612f1557600080fd5b505af1158015612f29573d6000803e3d6000fd5b505050506040513d601f19601f82011682018060405250810190612f4d9190619ea0565b612f8c576040517f08c379a0000000000000000000000000000000000000000000000000000000008152600401612f839061abc2565b60405180910390fd5b8373ffffffffffffffffffffffffffffffffffffffff163373ffffffffffffffffffffffffffffffffffffffff167f12dcb5d4117cb4675d56c72f030db8f0f4dd34f875fe484eea4cf0790b5deaa383604051612fe9919061ad04565b60405180910390a350801561300357613001826172f6565b505b505050565b600080600d60009054906101000a900473ffffffffffffffffffffffffffffffffffffffff1673ffffffffffffffffffffffffffffffffffffffff1663abc764da6040518163ffffffff1660e01b815260040160006040518083038186803b15801561307357600080fd5b505afa158015613087573d6000803e3d6000fd5b505050506040513d6000823e3d601f19601f820116820180604052508101906130b09190619e5f565b905060008060005b835181101561353d576000600b60009054906101000a900473ffffffffffffffffffffffffffffffffffffffff1673ffffffffffffffffffffffffffffffffffffffff166389bbd67086848151811061313a577f4e487b7100000000000000000000000000000000000000000000000000000000600052603260045260246000fd5b60200260200101516040518263ffffffff1660e01b815260040161315e919061a815565b60206040518083038186803b15801561317657600080fd5b505afa15801561318a573d6000803e3d6000fd5b505050506040513d601f19601f820116820180604052508101906131ae919061a0cd565b600c60009054906101000a900473ffffffffffffffffffffffffffffffffffffffff1673ffffffffffffffffffffffffffffffffffffffff166389bbd670878581518110613225577f4e487b7100000000000000000000000000000000000000000000000000000000600052603260045260246000fd5b60200260200101516040518263ffffffff1660e01b8152600401613249919061a815565b60206040518083038186803b15801561326157600080fd5b505afa158015613275573d6000803e3d6000fd5b505050506040513d601f19601f82011682018060405250810190613299919061a0cd565b6132a3919061af1b565b9050600a60009054906101000a900473ffffffffffffffffffffffffffffffffffffffff1673ffffffffffffffffffffffffffffffffffffffff1663ca2e5b6586848151811061331c577f4e487b7100000000000000000000000000000000000000000000000000000000600052603260045260246000fd5b6020026020010151602060008b81526020019081526020016000206000898781518110613372577f4e487b7100000000000000000000000000000000000000000000000000000000600052603260045260246000fd5b602002602001015173ffffffffffffffffffffffffffffffffffffffff1673ffffffffffffffffffffffffffffffffffffffff168152602001908152602001600020546040518363ffffffff1660e01b81526004016133d292919061a890565b60206040518083038186803b1580156133ea57600080fd5b505afa1580156133fe573d6000803e3d6000fd5b505050506040513d601f19601f82011682018060405250810190613422919061a0cd565b8461342d919061af1b565b9350600a60009054906101000a900473ffffffffffffffffffffffffffffffffffffffff1673ffffffffffffffffffffffffffffffffffffffff1663ca2e5b658684815181106134a6577f4e487b7100000000000000000000000000000000000000000000000000000000600052603260045260246000fd5b6020026020010151836040518363ffffffff1660e01b81526004016134cc92919061a890565b60206040518083038186803b1580156134e457600080fd5b505afa1580156134f8573d6000803e3d6000fd5b505050506040513d601f19601f8201168201806040525081019061351c919061a0cd565b83613527919061af1b565b92505080806135359061b30d565b9150506130b8565b50600061271060035483613551919061afa2565b61355b919061af71565b9050808311945050505050919050565b60176020528060005260406000206000915090505481565b600160149054906101000a900460ff16156135d3576040517f08c379a00000000000000000000000000000000000000000000000000000000081526004016135ca9061aa62565b60405180910390fd5b6000600754905060011515601e600083815260200190815260200160002060009054906101000a900460ff16151514613641576040517f08c379a00000000000000000000000000000000000000000000000000000000081526004016136389061ac62565b60405180910390fd5b6000601a600083815260200190815260200160002080546136619061b2aa565b80601f016020809104026020016040519081016040528092919081815260200182805461368d9061b2aa565b80156136da5780601f106136af576101008083540402835291602001916136da565b820191906000526020600020905b8154815290600101906020018083116136bd57829003601f168201915b505050505090506136ea82615fca565b801561371a575060001515601c600084815260200190815260200160002060009054906101000a900460ff161515145b156139775761375e816040518060400160405280600381526020017f44414f0000000000000000000000000000000000000000000000000000000000815250617664565b806137a457506137a3816040518060400160405280600581526020017f5554494c53000000000000000000000000000000000000000000000000000000815250617664565b5b806137ea57506137e9816040518060400160405280600781526020017f5245534552564500000000000000000000000000000000000000000000000000815250617664565b5b80613830575061382f816040518060400160405280600a81526020017f4745545f53504152544100000000000000000000000000000000000000000000815250617664565b5b806138765750613875816040518060400160405280600681526020017f524f555445520000000000000000000000000000000000000000000000000000815250617664565b5b806138bc57506138bb816040518060400160405280600981526020017f4c4953545f424f4e440000000000000000000000000000000000000000000000815250617664565b5b806139025750613901816040518060400160405280600581526020017f4752414e54000000000000000000000000000000000000000000000000000000815250617664565b5b806139485750613947816040518060400160405280601081526020017f4144445f435552415445445f504f4f4c00000000000000000000000000000000815250617664565b5b1561396b5761395682613008565b15613966576139658282617a96565b5b613976565b6139758282617a96565b5b5b5050565b60145481565b600160149054906101000a900460ff16156139d1576040517f08c379a00000000000000000000000000000000000000000000000000000000081526004016139c89061aa62565b60405180910390fd5b6000600754905060011515601e600083815260200190815260200160002060009054906101000a900460ff16151514613a3f576040517f08c379a0000000000000000000000000000000000000000000000000000000008152600401613a369061ac62565b60405180910390fd5b600115156021600083815260200190815260200160002060003373ffffffffffffffffffffffffffffffffffffffff1673ffffffffffffffffffffffffffffffffffffffff16815260200190815260200160002060009054906101000a900460ff16151514613ae3576040517f08c379a0000000000000000000000000000000000000000000000000000000008152600401613ada9061ab82565b60405180910390fd5b6000601a60008381526020019081526020016000208054613b039061b2aa565b80601f0160208091040260200160405190810160405280929190818152602001828054613b2f9061b2aa565b8015613b7c5780601f10613b5157610100808354040283529160200191613b7c565b820191906000526020600020905b815481529060010190602001808311613b5f57829003601f168201915b505050505090506000613b8e83616e85565b905060006021600085815260200190815260200160002060003373ffffffffffffffffffffffffffffffffffffffff1673ffffffffffffffffffffffffffffffffffffffff16815260200190815260200160002060006101000a81548160ff0219169083151502179055508015613c4f57823373ffffffffffffffffffffffffffffffffffffffff167fc47bced501ad257962522a3fba16532ae8ccbbe97f400da0bd120fc1b7443e1984604051613c46919061aa20565b60405180910390a35b505050565b600160009054906101000a900473ffffffffffffffffffffffffffffffffffffffff1673ffffffffffffffffffffffffffffffffffffffff163373ffffffffffffffffffffffffffffffffffffffff1614613cae57600080fd5b60007f000000000000000000000000000000000000000000000000000000000000000073ffffffffffffffffffffffffffffffffffffffff166370a08231306040518263ffffffff1660e01b8152600401613d09919061a815565b60206040518083038186803b158015613d2157600080fd5b505afa158015613d35573d6000803e3d6000fd5b505050506040513d601f19601f82011682018060405250810190613d59919061a0cd565b90507f000000000000000000000000000000000000000000000000000000000000000073ffffffffffffffffffffffffffffffffffffffff1663a9059cbb83836040518363ffffffff1660e01b8152600401613db692919061a890565b602060405180830381600087803b158015613dd057600080fd5b505af1158015613de4573d6000803e3d6000fd5b505050506040513d601f19601f82011682018060405250810190613e089190619ea0565b505050565b600160009054906101000a900473ffffffffffffffffffffffffffffffffffffffff1673ffffffffffffffffffffffffffffffffffffffff163373ffffffffffffffffffffffffffffffffffffffff1614613e6757600080fd5b82600c60006101000a81548173ffffffffffffffffffffffffffffffffffffffff021916908373ffffffffffffffffffffffffffffffffffffffff16021790555081600b60006101000a81548173ffffffffffffffffffffffffffffffffffffffff021916908373ffffffffffffffffffffffffffffffffffffffff16021790555080601060006101000a81548173ffffffffffffffffffffffffffffffffffffffff021916908373ffffffffffffffffffffffffffffffffffffffff160217905550505050565b60055481565b6000600860009054906101000a900460ff1615613ff357600860019054906101000a900473ffffffffffffffffffffffffffffffffffffffff1673ffffffffffffffffffffffffffffffffffffffff16637b0e5c456040518163ffffffff1660e01b815260040160206040518083038186803b158015613fb457600080fd5b505afa158015613fc8573d6000803e3d6000fd5b505050506040513d601f19601f82011682018060405250810190613fec919061a03a565b9050614019565b600a60009054906101000a900473ffffffffffffffffffffffffffffffffffffffff1690505b90565b600160149054906101000a900460ff161561406c576040517f08c379a00000000000000000000000000000000000000000000000000000000081526004016140639061aa62565b60405180910390fd5b60011515600f60009054906101000a900473ffffffffffffffffffffffffffffffffffffffff1673ffffffffffffffffffffffffffffffffffffffff1663194e22ce6040518163ffffffff1660e01b8152600401602060405180830381600087803b1580156140da57600080fd5b505af11580156140ee573d6000803e3d6000fd5b505050506040513d601f19601f820116820180604052508101906141129190619ea0565b15151415614155576040517f08c379a000000000000000000000000000000000000000000000000000000000815260040161414c9061ac42565b60405180910390fd5b6000600754905060011515601e600083815260200190815260200160002060009054906101000a900460ff161515146141c3576040517f08c379a00000000000000000000000000000000000000000000000000000000081526004016141ba9061ac62565b60405180910390fd5b600015156021600083815260200190815260200160002060003373ffffffffffffffffffffffffffffffffffffffff1673ffffffffffffffffffffffffffffffffffffffff16815260200190815260200160002060009054906101000a900460ff16151514614267576040517f08c379a000000000000000000000000000000000000000000000000000000000815260040161425e9061aac2565b60405180910390fd5b6000601a600083815260200190815260200160002080546142879061b2aa565b80601f01602080910402602001604051908101604052809291908181526020018280546142b39061b2aa565b80156143005780601f106142d557610100808354040283529160200191614300565b820191906000526020600020905b8154815290600101906020018083116142e357829003601f168201915b505050505090506000614312836172f6565b905060016021600085815260200190815260200160002060003373ffffffffffffffffffffffffffffffffffffffff1673ffffffffffffffffffffffffffffffffffffffff16815260200190815260200160002060006101000a81548160ff02191690831515021790555080156143d357823373ffffffffffffffffffffffffffffffffffffffff167ff3bb4a59f9a41b07650fa6eb0aaaf8f6e78fe9a712e0c0989ee060358403a89c846040516143ca919061aa20565b60405180910390a35b505050565b601e6020528060005260406000206000915054906101000a900460ff1681565b600160149054906101000a900460ff1615614448576040517f08c379a000000000000000000000000000000000000000000000000000000000815260040161443f9061aa62565b60405180910390fd5b60006007549050601e600082815260200190815260200160002060009054906101000a900460ff166144af576040517f08c379a00000000000000000000000000000000000000000000000000000000081526004016144a69061aae2565b60405180910390fd5b6213c680601f6000838152602001908152602001600020546144d1919061af1b565b4211614512576040517f08c379a00000000000000000000000000000000000000000000000000000000081526004016145099061aca2565b60405180910390fd5b6000600d60009054906101000a900473ffffffffffffffffffffffffffffffffffffffff1673ffffffffffffffffffffffffffffffffffffffff1663abc764da6040518163ffffffff1660e01b815260040160006040518083038186803b15801561457c57600080fd5b505afa158015614590573d6000803e3d6000fd5b505050506040513d6000823e3d601f19601f820116820180604052508101906145b99190619e5f565b905060005b8151811015614670576000602060008581526020019081526020016000206000848481518110614617577f4e487b7100000000000000000000000000000000000000000000000000000000600052603260045260246000fd5b602002602001015173ffffffffffffffffffffffffffffffffffffffff1673ffffffffffffffffffffffffffffffffffffffff1681526020019081526020016000208190555080806146689061b30d565b9150506145be565b506000601e600084815260200190815260200160002060006101000a81548160ff021916908315150217905550813373ffffffffffffffffffffffffffffffffffffffff167f6b4f340ccba70b829531b22cfbc4ad2defb3beac09f6149d584fe1031dedbf7c60405160405180910390a35050565b60035481565b600860019054906101000a900473ffffffffffffffffffffffffffffffffffffffff1681565b600160009054906101000a900473ffffffffffffffffffffffffffffffffffffffff1673ffffffffffffffffffffffffffffffffffffffff163373ffffffffffffffffffffffffffffffffffffffff161461476b57600080fd5b60001515601e6000600754815260200190815260200160002060009054906101000a900460ff161515146147d4576040517f08c379a00000000000000000000000000000000000000000000000000000000081526004016147cb9061acc2565b60405180910390fd5b6000600d60009054906101000a900473ffffffffffffffffffffffffffffffffffffffff1673ffffffffffffffffffffffffffffffffffffffff1663bbe4f6db836040518263ffffffff1660e01b8152600401614831919061a815565b60206040518083038186803b15801561484957600080fd5b505afa15801561485d573d6000803e3d6000fd5b505050506040513d601f19601f820116820180604052508101906148819190619c77565b9050601660008273ffffffffffffffffffffffffffffffffffffffff1673ffffffffffffffffffffffffffffffffffffffff16815260200190815260200160002060009054906101000a900460ff1615614910576040517f08c379a00000000000000000000000000000000000000000000000000000000081526004016149079061ab42565b60405180910390fd5b6001601660008373ffffffffffffffffffffffffffffffffffffffff1673ffffffffffffffffffffffffffffffffffffffff16815260200190815260200160002060006101000a81548160ff0219169083151502179055506013819080600181540180825580915050600190039060005260206000200160009091909190916101000a81548173ffffffffffffffffffffffffffffffffffffffff021916908373ffffffffffffffffffffffffffffffffffffffff1602179055508173ffffffffffffffffffffffffffffffffffffffff163373ffffffffffffffffffffffffffffffffffffffff167fa2c962e87fd75165c1496c9ea420ddb0231e124bf2625a77f828287c8050006860405160405180910390a35050565b6000600860009054906101000a900460ff1615614ae757600860019054906101000a900473ffffffffffffffffffffffffffffffffffffffff1673ffffffffffffffffffffffffffffffffffffffff16639d2cc4366040518163ffffffff1660e01b815260040160206040518083038186803b158015614aa857600080fd5b505afa158015614abc573d6000803e3d6000fd5b505050506040513d601f19601f82011682018060405250810190614ae09190619f96565b9050614b0d565b600f60009054906101000a900473ffffffffffffffffffffffffffffffffffffffff1690505b90565b60156020528060005260406000206000915054906101000a900460ff1681565b601b6020528060005260406000206000915090505481565b60008211614b8b576040517f08c379a0000000000000000000000000000000000000000000000000000000008152600401614b829061abe2565b60405180910390fd5b6000614b9561770f565b9050614b9f617968565b5082601860008381526020019081526020016000208190555081601a60008381526020019081526020016000209080519060200190614bdf929190619858565b50803373ffffffffffffffffffffffffffffffffffffffff167f8d500fcad86fc64a281b94ef64d6d66acbfc6862aa4ff2ee5fbbfb40736e803e84604051614c27919061aa20565b60405180910390a3505050565b600160149054906101000a900460ff1681565b6000600160149054906101000a900460ff1615614c99576040517f08c379a0000000000000000000000000000000000000000000000000000000008152600401614c909061aa62565b60405180910390fd5b600060075490506000601e600083815260200190815260200160002060009054906101000a900460ff168015614d2957506021600083815260200190815260200160002060003373ffffffffffffffffffffffffffffffffffffffff1673ffffffffffffffffffffffffffffffffffffffff16815260200190815260200160002060009054906101000a900460ff165b90508015614d3c57614d3a82616e85565b505b60008411614d7f576040517f08c379a0000000000000000000000000000000000000000000000000000000008152600401614d769061ac02565b60405180910390fd5b601660008673ffffffffffffffffffffffffffffffffffffffff1673ffffffffffffffffffffffffffffffffffffffff16815260200190815260200160002060009054906101000a900460ff16614e0b576040517f08c379a0000000000000000000000000000000000000000000000000000000008152600401614e029061aa42565b60405180910390fd5b6000600d60009054906101000a900473ffffffffffffffffffffffffffffffffffffffff1673ffffffffffffffffffffffffffffffffffffffff1663bbe4f6db876040518263ffffffff1660e01b8152600401614e68919061a815565b60206040518083038186803b158015614e8057600080fd5b505afa158015614e94573d6000803e3d6000fd5b505050506040513d601f19601f82011682018060405250810190614eb89190619c77565b905060011515601560003373ffffffffffffffffffffffffffffffffffffffff1673ffffffffffffffffffffffffffffffffffffffff16815260200190815260200160002060009054906101000a900460ff16151514614fce576012339080600181540180825580915050600190039060005260206000200160009091909190916101000a81548173ffffffffffffffffffffffffffffffffffffffff021916908373ffffffffffffffffffffffffffffffffffffffff1602179055506001601560003373ffffffffffffffffffffffffffffffffffffffff1673ffffffffffffffffffffffffffffffffffffffff16815260200190815260200160002060006101000a81548160ff0219169083151502179055505b6000614fda8787617b3c565b9050603c42614fe9919061af1b565b601760003373ffffffffffffffffffffffffffffffffffffffff1673ffffffffffffffffffffffffffffffffffffffff16815260200190815260200160002081905550600b60009054906101000a900473ffffffffffffffffffffffffffffffffffffffff1673ffffffffffffffffffffffffffffffffffffffff1663bf58d0ef8333846040518463ffffffff1660e01b815260040161508b9392919061a859565b600060405180830381600087803b1580156150a557600080fd5b505af11580156150b9573d6000803e3d6000fd5b505050503373ffffffffffffffffffffffffffffffffffffffff167fe4dd259ab128527fe8b5fdae0b44bda8db95a4de10b999d63dce142b1eb88d54878360405161510592919061ad78565b60405180910390a2600194505050801561512457615122826172f6565b505b505092915050565b600073ffffffffffffffffffffffffffffffffffffffff168273ffffffffffffffffffffffffffffffffffffffff16141561519c576040517f08c379a00000000000000000000000000000000000000000000000000000000081526004016151939061ac22565b60405180910390fd5b60007f000000000000000000000000000000000000000000000000000000000000000073ffffffffffffffffffffffffffffffffffffffff166370a08231600f60009054906101000a900473ffffffffffffffffffffffffffffffffffffffff166040518263ffffffff1660e01b8152600401615219919061a815565b60206040518083038186803b15801561523157600080fd5b505afa158015615245573d6000803e3d6000fd5b505050506040513d601f19601f82011682018060405250810190615269919061a0cd565b905060006127106005548361527e919061afa2565b615288919061af71565b905060008311801561529957508083105b6152d8576040517f08c379a00000000000000000000000000000000000000000000000000000000081526004016152cf9061aaa2565b60405180910390fd5b60006152e261770f565b90506152ec617968565b5060006040518060400160405280600581526020017f4752414e54000000000000000000000000000000000000000000000000000000815250905080601a6000848152602001908152602001600020908051906020019061534e929190619858565b50856019600084815260200190815260200160002060006101000a81548173ffffffffffffffffffffffffffffffffffffffff021916908373ffffffffffffffffffffffffffffffffffffffff160217905550846018600084815260200190815260200160002081905550813373ffffffffffffffffffffffffffffffffffffffff167f8d500fcad86fc64a281b94ef64d6d66acbfc6862aa4ff2ee5fbbfb40736e803e83604051615400919061aa20565b60405180910390a3505050505050565b600160149054906101000a900460ff1615615460576040517f08c379a00000000000000000000000000000000000000000000000000000000081526004016154579061aa62565b60405180910390fd5b600160159054906101000a900460ff166154af576040517f08c379a00000000000000000000000000000000000000000000000000000000081526004016154a69061aa82565b60405180910390fd5b60011515600f60009054906101000a900473ffffffffffffffffffffffffffffffffffffffff1673ffffffffffffffffffffffffffffffffffffffff1663194e22ce6040518163ffffffff1660e01b8152600401602060405180830381600087803b15801561551d57600080fd5b505af1158015615531573d6000803e3d6000fd5b505050506040513d601f19601f820116820180604052508101906155559190619ea0565b15151415615598576040517f08c379a000000000000000000000000000000000000000000000000000000000815260040161558f9061ac42565b60405180910390fd5b60006007549050600254601b600083815260200190815260200160002054426155c1919061affc565b11615601576040517f08c379a00000000000000000000000000000000000000000000000000000000081526004016155f89061ab22565b60405180910390fd5b60011515601c600083815260200190815260200160002060009054906101000a900460ff16151514615668576040517f08c379a000000000000000000000000000000000000000000000000000000000815260040161565f9061ab62565b60405180910390fd5b60011515601e600083815260200190815260200160002060009054906101000a900460ff1615151461569957600080fd5b60001515601d600083815260200190815260200160002060009054906101000a900460ff161515146156ca57600080fd5b6156d381615fca565b615708576000601c600083815260200190815260200160002060006101000a81548160ff021916908315150217905550615c3d565b6000601a600083815260200190815260200160002080546157289061b2aa565b80601f01602080910402602001604051908101604052809291908181526020018280546157549061b2aa565b80156157a15780601f10615776576101008083540402835291602001916157a1565b820191906000526020600020905b81548152906001019060200180831161578457829003601f168201915b505050505090506157e7816040518060400160405280600381526020017f44414f0000000000000000000000000000000000000000000000000000000000815250617664565b156157fa576157f5826184bb565b615c3b565b615839816040518060400160405280600681526020017f524f555445520000000000000000000000000000000000000000000000000000815250617664565b1561584c57615847826185e7565b615c3a565b61588b816040518060400160405280600581526020017f5554494c53000000000000000000000000000000000000000000000000000000815250617664565b1561589e576158998261866d565b615c39565b6158dd816040518060400160405280600781526020017f5245534552564500000000000000000000000000000000000000000000000000815250617664565b156158f0576158eb826186f3565b615c38565b61592f816040518060400160405280600e81526020017f464c49505f454d495353494f4e53000000000000000000000000000000000000815250617664565b156159425761593d826188d8565b615c37565b615981816040518060400160405280600881526020017f434f4f4c5f4f4646000000000000000000000000000000000000000000000000815250617664565b156159945761598f82618964565b615c36565b6159d3816040518060400160405280600c81526020017f455241535f544f5f4541524e0000000000000000000000000000000000000000815250617664565b156159e6576159e182618990565b615c35565b615a25816040518060400160405280600581526020017f4752414e54000000000000000000000000000000000000000000000000000000815250617664565b15615a3857615a33826189bc565b615c34565b615a77816040518060400160405280600a81526020017f4745545f53504152544100000000000000000000000000000000000000000000815250617664565b15615a8a57615a8582618aa9565b615c33565b615ac9816040518060400160405280600981526020017f4c4953545f424f4e440000000000000000000000000000000000000000000000815250617664565b15615adc57615ad782618b53565b615c32565b615b1b816040518060400160405280600b81526020017f44454c4953545f424f4e44000000000000000000000000000000000000000000815250617664565b15615b2e57615b2982618cff565b615c31565b615b6d816040518060400160405280601081526020017f4144445f435552415445445f504f4f4c00000000000000000000000000000000815250617664565b15615b8057615b7b8261906b565b615c30565b615bbf816040518060400160405280601381526020017f52454d4f56455f435552415445445f504f4f4c00000000000000000000000000815250617664565b15615bd257615bcd8261913d565b615c2f565b615c11816040518060400160405280600781526020017f5245414c49534500000000000000000000000000000000000000000000000000815250617664565b15615c2457615c1f826194dc565b615c2e565b615c2d82619581565b5b5b5b5b5b5b5b5b5b5b5b5b5b5b505b50565b600160009054906101000a900473ffffffffffffffffffffffffffffffffffffffff1673ffffffffffffffffffffffffffffffffffffffff163373ffffffffffffffffffffffffffffffffffffffff1614615c9a57600080fd5b856002819055508460048190555083600381905550826005819055508160068190555080600160156101000a81548160ff021916908315150217905550505050505050565b60025481565b60196020528060005260406000206000915054906101000a900473ffffffffffffffffffffffffffffffffffffffff1681565b600160009054906101000a900473ffffffffffffffffffffffffffffffffffffffff1673ffffffffffffffffffffffffffffffffffffffff163373ffffffffffffffffffffffffffffffffffffffff1614615d7257600080fd5b8060148190555050565b60006021600084815260200190815260200160002060008373ffffffffffffffffffffffffffffffffffffffff1673ffffffffffffffffffffffffffffffffffffffff16815260200190815260200160002060009054906101000a900460ff16905092915050565b601f6020528060005260406000206000915090505481565b6000600860009054906101000a900460ff1615615eba57600860019054906101000a900473ffffffffffffffffffffffffffffffffffffffff1673ffffffffffffffffffffffffffffffffffffffff1663b93ec54b6040518163ffffffff1660e01b815260040160206040518083038186803b158015615e7b57600080fd5b505afa158015615e8f573d6000803e3d6000fd5b505050506040513d601f19601f82011682018060405250810190615eb39190619fe8565b9050615ee0565b600e60009054906101000a900473ffffffffffffffffffffffffffffffffffffffff1690505b90565b6000600860009054906101000a900460ff1615615fa157600860019054906101000a900473ffffffffffffffffffffffffffffffffffffffff1673ffffffffffffffffffffffffffffffffffffffff1663b99b0a0c6040518163ffffffff1660e01b815260040160206040518083038186803b158015615f6257600080fd5b505afa158015615f76573d6000803e3d6000fd5b505050506040513d601f19601f82011682018060405250810190615f9a9190619f6d565b9050615fc7565b600d60009054906101000a900473ffffffffffffffffffffffffffffffffffffffff1690505b90565b600080600d60009054906101000a900473ffffffffffffffffffffffffffffffffffffffff1673ffffffffffffffffffffffffffffffffffffffff1663abc764da6040518163ffffffff1660e01b815260040160006040518083038186803b15801561603557600080fd5b505afa158015616049573d6000803e3d6000fd5b505050506040513d6000823e3d601f19601f820116820180604052508101906160729190619e5f565b905060008060005b83518110156164ff576000600b60009054906101000a900473ffffffffffffffffffffffffffffffffffffffff1673ffffffffffffffffffffffffffffffffffffffff166389bbd6708684815181106160fc577f4e487b7100000000000000000000000000000000000000000000000000000000600052603260045260246000fd5b60200260200101516040518263ffffffff1660e01b8152600401616120919061a815565b60206040518083038186803b15801561613857600080fd5b505afa15801561614c573d6000803e3d6000fd5b505050506040513d601f19601f82011682018060405250810190616170919061a0cd565b600c60009054906101000a900473ffffffffffffffffffffffffffffffffffffffff1673ffffffffffffffffffffffffffffffffffffffff166389bbd6708785815181106161e7577f4e487b7100000000000000000000000000000000000000000000000000000000600052603260045260246000fd5b60200260200101516040518263ffffffff1660e01b815260040161620b919061a815565b60206040518083038186803b15801561622357600080fd5b505afa158015616237573d6000803e3d6000fd5b505050506040513d601f19601f8201168201806040525081019061625b919061a0cd565b616265919061af1b565b9050600a60009054906101000a900473ffffffffffffffffffffffffffffffffffffffff1673ffffffffffffffffffffffffffffffffffffffff1663ca2e5b658684815181106162de577f4e487b7100000000000000000000000000000000000000000000000000000000600052603260045260246000fd5b6020026020010151602060008b81526020019081526020016000206000898781518110616334577f4e487b7100000000000000000000000000000000000000000000000000000000600052603260045260246000fd5b602002602001015173ffffffffffffffffffffffffffffffffffffffff1673ffffffffffffffffffffffffffffffffffffffff168152602001908152602001600020546040518363ffffffff1660e01b815260040161639492919061a890565b60206040518083038186803b1580156163ac57600080fd5b505afa1580156163c0573d6000803e3d6000fd5b505050506040513d601f19601f820116820180604052508101906163e4919061a0cd565b846163ef919061af1b565b9350600a60009054906101000a900473ffffffffffffffffffffffffffffffffffffffff1673ffffffffffffffffffffffffffffffffffffffff1663ca2e5b65868481518110616468577f4e487b7100000000000000000000000000000000000000000000000000000000600052603260045260246000fd5b6020026020010151836040518363ffffffff1660e01b815260040161648e92919061a890565b60206040518083038186803b1580156164a657600080fd5b505afa1580156164ba573d6000803e3d6000fd5b505050506040513d601f19601f820116820180604052508101906164de919061a0cd565b836164e9919061af1b565b92505080806164f79061b30d565b91505061607a565b50600060028261650f919061af71565b9050808311945050505050919050565b6000600160009054906101000a900473ffffffffffffffffffffffffffffffffffffffff1673ffffffffffffffffffffffffffffffffffffffff163373ffffffffffffffffffffffffffffffffffffffff161461657b57600080fd5b60007f000000000000000000000000000000000000000000000000000000000000000073ffffffffffffffffffffffffffffffffffffffff166370a08231306040518263ffffffff1660e01b81526004016165d6919061a815565b60206040518083038186803b1580156165ee57600080fd5b505afa158015616602573d6000803e3d6000fd5b505050506040513d601f19601f82011682018060405250810190616626919061a0cd565b90507f000000000000000000000000000000000000000000000000000000000000000073ffffffffffffffffffffffffffffffffffffffff166342966c68826040518263ffffffff1660e01b8152600401616681919061ad04565b600060405180830381600087803b15801561669b57600080fd5b505af11580156166af573d6000803e3d6000fd5b50505050600191505090565b601a60205280600052604060002060009150905080546166da9061b2aa565b80601f01602080910402602001604051908101604052809291908181526020018280546167069061b2aa565b80156167535780601f1061672857610100808354040283529160200191616753565b820191906000526020600020905b81548152906001019060200180831161673657829003601f168201915b505050505081565b600160009054906101000a900473ffffffffffffffffffffffffffffffffffffffff1681565b600061678b61770f565b9050616795617968565b5081601a600083815260200190815260200160002090805190602001906167bd929190619858565b50803373ffffffffffffffffffffffffffffffffffffffff167f8d500fcad86fc64a281b94ef64d6d66acbfc6862aa4ff2ee5fbbfb40736e803e84604051616805919061aa20565b60405180910390a35050565b600160159054906101000a900460ff1681565b600160009054906101000a900473ffffffffffffffffffffffffffffffffffffffff1673ffffffffffffffffffffffffffffffffffffffff163373ffffffffffffffffffffffffffffffffffffffff161461687e57600080fd5b6000600d60009054906101000a900473ffffffffffffffffffffffffffffffffffffffff1673ffffffffffffffffffffffffffffffffffffffff1663bbe4f6db836040518263ffffffff1660e01b81526004016168db919061a815565b60206040518083038186803b1580156168f357600080fd5b505afa158015616907573d6000803e3d6000fd5b505050506040513d601f19601f8201168201806040525081019061692b9190619c77565b9050601660008273ffffffffffffffffffffffffffffffffffffffff1673ffffffffffffffffffffffffffffffffffffffff16815260200190815260200160002060009054906101000a900460ff166169b9576040517f08c379a00000000000000000000000000000000000000000000000000000000081526004016169b09061aa42565b60405180910390fd5b6000601660008373ffffffffffffffffffffffffffffffffffffffff1673ffffffffffffffffffffffffffffffffffffffff16815260200190815260200160002060006101000a81548160ff02191690831515021790555060005b601380549050811015616c32578173ffffffffffffffffffffffffffffffffffffffff1660138281548110616a72577f4e487b7100000000000000000000000000000000000000000000000000000000600052603260045260246000fd5b9060005260206000200160009054906101000a900473ffffffffffffffffffffffffffffffffffffffff1673ffffffffffffffffffffffffffffffffffffffff161415616c1f5760136001601380549050616acd919061affc565b81548110616b04577f4e487b7100000000000000000000000000000000000000000000000000000000600052603260045260246000fd5b9060005260206000200160009054906101000a900473ffffffffffffffffffffffffffffffffffffffff1660138281548110616b69577f4e487b7100000000000000000000000000000000000000000000000000000000600052603260045260246000fd5b9060005260206000200160006101000a81548173ffffffffffffffffffffffffffffffffffffffff021916908373ffffffffffffffffffffffffffffffffffffffff1602179055506013805480616be9577f4e487b7100000000000000000000000000000000000000000000000000000000600052603160045260246000fd5b6001900381819060005260206000200160006101000a81549073ffffffffffffffffffffffffffffffffffffffff021916905590555b8080616c2a9061b30d565b915050616a14565b508173ffffffffffffffffffffffffffffffffffffffff163373ffffffffffffffffffffffffffffffffffffffff167ff487c2322baa448cfa506b983134d9dd9f27d0bbfe0b48119a3908d4f0dde89f60405160405180910390a35050565b7f000000000000000000000000000000000000000000000000000000000000000081565b600080600b60009054906101000a900473ffffffffffffffffffffffffffffffffffffffff1673ffffffffffffffffffffffffffffffffffffffff1663ba0ba54f85856040518363ffffffff1660e01b8152600401616d1592919061a830565b60206040518083038186803b158015616d2d57600080fd5b505afa158015616d41573d6000803e3d6000fd5b505050506040513d601f19601f82011682018060405250810190616d65919061a0cd565b90508091505092915050565b6000600860009054906101000a900460ff1615616e2f57600860019054906101000a900473ffffffffffffffffffffffffffffffffffffffff1673ffffffffffffffffffffffffffffffffffffffff1663f301e7816040518163ffffffff1660e01b815260040160206040518083038186803b158015616df057600080fd5b505afa158015616e04573d6000803e3d6000fd5b505050506040513d601f19601f82011682018060405250810190616e289190619f44565b9050616e55565b601160009054906101000a900473ffffffffffffffffffffffffffffffffffffffff1690505b90565b60166020528060005260406000206000915054906101000a900460ff1681565b6000601380549050905090565b600080600d60009054906101000a900473ffffffffffffffffffffffffffffffffffffffff1673ffffffffffffffffffffffffffffffffffffffff1663abc764da6040518163ffffffff1660e01b815260040160006040518083038186803b158015616ef057600080fd5b505afa158015616f04573d6000803e3d6000fd5b505050506040513d6000823e3d601f19601f82011682018060405250810190616f2d9190619e5f565b905060005b81518110156171ec576000600b60009054906101000a900473ffffffffffffffffffffffffffffffffffffffff1673ffffffffffffffffffffffffffffffffffffffff1663aa9fd374848481518110616fb4577f4e487b7100000000000000000000000000000000000000000000000000000000600052603260045260246000fd5b6020026020010151336040518363ffffffff1660e01b8152600401616fda92919061a830565b60206040518083038186803b158015616ff257600080fd5b505afa158015617006573d6000803e3d6000fd5b505050506040513d601f19601f8201168201806040525081019061702a919061a0cd565b600c60009054906101000a900473ffffffffffffffffffffffffffffffffffffffff1673ffffffffffffffffffffffffffffffffffffffff1663aa9fd3748585815181106170a1577f4e487b7100000000000000000000000000000000000000000000000000000000600052603260045260246000fd5b6020026020010151336040518363ffffffff1660e01b81526004016170c792919061a830565b60206040518083038186803b1580156170df57600080fd5b505afa1580156170f3573d6000803e3d6000fd5b505050506040513d601f19601f82011682018060405250810190617117919061a0cd565b617121919061af1b565b905060008111156171d8578060206000878152602001908152602001600020600085858151811061717b577f4e487b7100000000000000000000000000000000000000000000000000000000600052603260045260246000fd5b602002602001015173ffffffffffffffffffffffffffffffffffffffff1673ffffffffffffffffffffffffffffffffffffffff16815260200190815260200160002060008282546171cc919061affc565b92505081905550600193505b5080806171e49061b30d565b915050616f32565b5050919050565b6000600160149054906101000a900460ff1615617245576040517f08c379a000000000000000000000000000000000000000000000000000000000815260040161723c9061aa62565b60405180910390fd5b60006172513384616cb5565b905060008111156172ec57600b60009054906101000a900473ffffffffffffffffffffffffffffffffffffffff1673ffffffffffffffffffffffffffffffffffffffff16635bc262be84336040518363ffffffff1660e01b81526004016172b992919061a830565b600060405180830381600087803b1580156172d357600080fd5b505af11580156172e7573d6000803e3d6000fd5b505050505b6001915050919050565b600080600d60009054906101000a900473ffffffffffffffffffffffffffffffffffffffff1673ffffffffffffffffffffffffffffffffffffffff1663abc764da6040518163ffffffff1660e01b815260040160006040518083038186803b15801561736157600080fd5b505afa158015617375573d6000803e3d6000fd5b505050506040513d6000823e3d601f19601f8201168201806040525081019061739e9190619e5f565b905060005b815181101561765d576000600b60009054906101000a900473ffffffffffffffffffffffffffffffffffffffff1673ffffffffffffffffffffffffffffffffffffffff1663aa9fd374848481518110617425577f4e487b7100000000000000000000000000000000000000000000000000000000600052603260045260246000fd5b6020026020010151336040518363ffffffff1660e01b815260040161744b92919061a830565b60206040518083038186803b15801561746357600080fd5b505afa158015617477573d6000803e3d6000fd5b505050506040513d601f19601f8201168201806040525081019061749b919061a0cd565b600c60009054906101000a900473ffffffffffffffffffffffffffffffffffffffff1673ffffffffffffffffffffffffffffffffffffffff1663aa9fd374858581518110617512577f4e487b7100000000000000000000000000000000000000000000000000000000600052603260045260246000fd5b6020026020010151336040518363ffffffff1660e01b815260040161753892919061a830565b60206040518083038186803b15801561755057600080fd5b505afa158015617564573d6000803e3d6000fd5b505050506040513d601f19601f82011682018060405250810190617588919061a0cd565b617592919061af1b565b9050600081111561764957806020600087815260200190815260200160002060008585815181106175ec577f4e487b7100000000000000000000000000000000000000000000000000000000600052603260045260246000fd5b602002602001015173ffffffffffffffffffffffffffffffffffffffff1673ffffffffffffffffffffffffffffffffffffffff168152602001908152602001600020600082825461763d919061af1b565b92505081905550600193505b5080806176559061b30d565b9150506173a3565b5050919050565b6000600282604051617676919061a7fe565b602060405180830381855afa158015617693573d6000803e3d6000fd5b5050506040513d601f19601f820116820180604052508101906176b69190619ec9565b6002846040516176c6919061a7fe565b602060405180830381855afa1580156176e3573d6000803e3d6000fd5b5050506040513d601f19601f820116820180604052508101906177069190619ec9565b14905092915050565b6000600160149054906101000a900460ff1615617761576040517f08c379a00000000000000000000000000000000000000000000000000000000081526004016177589061aa62565b60405180910390fd5b600160159054906101000a900460ff166177b0576040517f08c379a00000000000000000000000000000000000000000000000000000000081526004016177a79061aa82565b60405180910390fd5b60011515600f60009054906101000a900473ffffffffffffffffffffffffffffffffffffffff1673ffffffffffffffffffffffffffffffffffffffff1663194e22ce6040518163ffffffff1660e01b8152600401602060405180830381600087803b15801561781e57600080fd5b505af1158015617832573d6000803e3d6000fd5b505050506040513d601f19601f820116820180604052508101906178569190619ea0565b15151415617899576040517f08c379a00000000000000000000000000000000000000000000000000000000081526004016178909061ac42565b60405180910390fd5b6000600754905060001515601e600083815260200190815260200160002060009054906101000a900460ff16151514617907576040517f08c379a00000000000000000000000000000000000000000000000000000000081526004016178fe9061ac62565b60405180910390fd5b600181617914919061af1b565b9050806007819055506001601e600083815260200190815260200160002060006101000a81548160ff02191690831515021790555042601f6000838152602001908152602001600020819055508091505090565b60007f000000000000000000000000000000000000000000000000000000000000000073ffffffffffffffffffffffffffffffffffffffff166323b872dd33600f60009054906101000a900473ffffffffffffffffffffffffffffffffffffffff16670de0b6b3a76400006006546179e0919061afa2565b6040518463ffffffff1660e01b81526004016179fe9392919061a859565b602060405180830381600087803b158015617a1857600080fd5b505af1158015617a2c573d6000803e3d6000fd5b505050506040513d601f19601f82011682018060405250810190617a509190619ea0565b617a8f576040517f08c379a0000000000000000000000000000000000000000000000000000000008152600401617a869061abc2565b60405180910390fd5b6001905090565b6001601c600084815260200190815260200160002060006101000a81548160ff02191690831515021790555042601b600084815260200190815260200160002081905550813373ffffffffffffffffffffffffffffffffffffffff167f0f36aea5066f9f90a999260fe4ce8d7713f7f07f5ae61bf36d73cc51170a3a9e60025442617b21919061af1b565b84604051617b3092919061ad48565b60405180910390a35050565b600060026000541415617b84576040517f08c379a0000000000000000000000000000000000000000000000000000000008152600401617b7b9061ac82565b60405180910390fd5b60026000819055506a02116545850052128000007f000000000000000000000000000000000000000000000000000000000000000073ffffffffffffffffffffffffffffffffffffffff1663dd62ed3e30600960009054906101000a900473ffffffffffffffffffffffffffffffffffffffff166040518363ffffffff1660e01b8152600401617c1592919061a830565b60206040518083038186803b158015617c2d57600080fd5b505afa158015617c41573d6000803e3d6000fd5b505050506040513d601f19601f82011682018060405250810190617c65919061a0cd565b1015617dd9577f000000000000000000000000000000000000000000000000000000000000000073ffffffffffffffffffffffffffffffffffffffff1663095ea7b3600960009054906101000a900473ffffffffffffffffffffffffffffffffffffffff167f000000000000000000000000000000000000000000000000000000000000000073ffffffffffffffffffffffffffffffffffffffff166318160ddd6040518163ffffffff1660e01b815260040160206040518083038186803b158015617d3057600080fd5b505afa158015617d44573d6000803e3d6000fd5b505050506040513d601f19601f82011682018060405250810190617d68919061a0cd565b6040518363ffffffff1660e01b8152600401617d8592919061a890565b602060405180830381600087803b158015617d9f57600080fd5b505af1158015617db3573d6000803e3d6000fd5b505050506040513d601f19601f82011682018060405250810190617dd79190619ea0565b505b600073ffffffffffffffffffffffffffffffffffffffff168373ffffffffffffffffffffffffffffffffffffffff161415617fdf57348214617e50576040517f08c379a0000000000000000000000000000000000000000000000000000000008152600401617e479061ac02565b60405180910390fd5b6000600a60009054906101000a900473ffffffffffffffffffffffffffffffffffffffff1673ffffffffffffffffffffffffffffffffffffffff1663b80e44b885856040518363ffffffff1660e01b8152600401617eaf92919061a890565b60206040518083038186803b158015617ec757600080fd5b505afa158015617edb573d6000803e3d6000fd5b505050506040513d601f19601f82011682018060405250810190617eff919061a0cd565b9050600960009054906101000a900473ffffffffffffffffffffffffffffffffffffffff1673ffffffffffffffffffffffffffffffffffffffff166393cac68584838688600b60009054906101000a900473ffffffffffffffffffffffffffffffffffffffff166040518663ffffffff1660e01b8152600401617f85949392919061ada1565b6020604051808303818588803b158015617f9e57600080fd5b505af1158015617fb2573d6000803e3d6000fd5b50505050506040513d601f19601f82011682018060405250810190617fd7919061a0cd565b9150506184ad565b8273ffffffffffffffffffffffffffffffffffffffff166323b872dd3330856040518463ffffffff1660e01b815260040161801c9392919061a859565b602060405180830381600087803b15801561803657600080fd5b505af115801561804a573d6000803e3d6000fd5b505050506040513d601f19601f8201168201806040525081019061806e9190619ea0565b6180ad576040517f08c379a00000000000000000000000000000000000000000000000000000000081526004016180a49061abc2565b60405180910390fd5b60008373ffffffffffffffffffffffffffffffffffffffff166370a08231306040518263ffffffff1660e01b81526004016180e8919061a815565b60206040518083038186803b15801561810057600080fd5b505afa158015618114573d6000803e3d6000fd5b505050506040513d601f19601f82011682018060405250810190618138919061a0cd565b90506000600a60009054906101000a900473ffffffffffffffffffffffffffffffffffffffff1673ffffffffffffffffffffffffffffffffffffffff1663b80e44b886846040518363ffffffff1660e01b815260040161819992919061a890565b60206040518083038186803b1580156181b157600080fd5b505afa1580156181c5573d6000803e3d6000fd5b505050506040513d601f19601f820116820180604052508101906181e9919061a0cd565b9050818573ffffffffffffffffffffffffffffffffffffffff1663dd62ed3e30600960009054906101000a900473ffffffffffffffffffffffffffffffffffffffff166040518363ffffffff1660e01b815260040161824992919061a830565b60206040518083038186803b15801561826157600080fd5b505afa158015618275573d6000803e3d6000fd5b505050506040513d601f19601f82011682018060405250810190618299919061a0cd565b10156183d35760008573ffffffffffffffffffffffffffffffffffffffff166318160ddd6040518163ffffffff1660e01b815260040160206040518083038186803b1580156182e757600080fd5b505afa1580156182fb573d6000803e3d6000fd5b505050506040513d601f19601f8201168201806040525081019061831f919061a0cd565b90508573ffffffffffffffffffffffffffffffffffffffff1663095ea7b3600960009054906101000a900473ffffffffffffffffffffffffffffffffffffffff16836040518363ffffffff1660e01b815260040161837e92919061a890565b602060405180830381600087803b15801561839857600080fd5b505af11580156183ac573d6000803e3d6000fd5b505050506040513d601f19601f820116820180604052508101906183d09190619ea0565b50505b600960009054906101000a900473ffffffffffffffffffffffffffffffffffffffff1673ffffffffffffffffffffffffffffffffffffffff166393cac685828488600b60009054906101000a900473ffffffffffffffffffffffffffffffffffffffff166040518563ffffffff1660e01b8152600401618456949392919061ada1565b602060405180830381600087803b15801561847057600080fd5b505af1158015618484573d6000803e3d6000fd5b505050506040513d601f19601f820116820180604052508101906184a8919061a0cd565b925050505b600160008190555092915050565b60006019600083815260200190815260200160002060009054906101000a900473ffffffffffffffffffffffffffffffffffffffff16905080600860016101000a81548173ffffffffffffffffffffffffffffffffffffffff021916908373ffffffffffffffffffffffffffffffffffffffff1602179055507f000000000000000000000000000000000000000000000000000000000000000073ffffffffffffffffffffffffffffffffffffffff16631d007f5f826040518263ffffffff1660e01b815260040161858d919061a815565b600060405180830381600087803b1580156185a757600080fd5b505af11580156185bb573d6000803e3d6000fd5b505050506001600860006101000a81548160ff0219169083151502179055506185e382619581565b5050565b60006019600083815260200190815260200160002060009054906101000a900473ffffffffffffffffffffffffffffffffffffffff16905080600960006101000a81548173ffffffffffffffffffffffffffffffffffffffff021916908373ffffffffffffffffffffffffffffffffffffffff16021790555061866982619581565b5050565b60006019600083815260200190815260200160002060009054906101000a900473ffffffffffffffffffffffffffffffffffffffff16905080600a60006101000a81548173ffffffffffffffffffffffffffffffffffffffff021916908373ffffffffffffffffffffffffffffffffffffffff1602179055506186ef82619581565b5050565b60006019600083815260200190815260200160002060009054906101000a900473ffffffffffffffffffffffffffffffffffffffff16905060007f000000000000000000000000000000000000000000000000000000000000000073ffffffffffffffffffffffffffffffffffffffff166370a08231600f60009054906101000a900473ffffffffffffffffffffffffffffffffffffffff166040518263ffffffff1660e01b81526004016187a8919061a815565b60206040518083038186803b1580156187c057600080fd5b505afa1580156187d4573d6000803e3d6000fd5b505050506040513d601f19601f820116820180604052508101906187f8919061a0cd565b9050600f60009054906101000a900473ffffffffffffffffffffffffffffffffffffffff1673ffffffffffffffffffffffffffffffffffffffff16637d458baa82846040518363ffffffff1660e01b815260040161885792919061ad1f565b600060405180830381600087803b15801561887157600080fd5b505af1158015618885573d6000803e3d6000fd5b5050505081600f60006101000a81548173ffffffffffffffffffffffffffffffffffffffff021916908373ffffffffffffffffffffffffffffffffffffffff1602179055506188d383619581565b505050565b7f000000000000000000000000000000000000000000000000000000000000000073ffffffffffffffffffffffffffffffffffffffff1663fe1fa8fa6040518163ffffffff1660e01b8152600401600060405180830381600087803b15801561894057600080fd5b505af1158015618954573d6000803e3d6000fd5b5050505061896181619581565b50565b6000601860008381526020019081526020016000205490508060028190555061898c82619581565b5050565b600060186000838152602001908152602001600020549050806004819055506189b882619581565b5050565b60006018600083815260200190815260200160002054905060006019600084815260200190815260200160002060009054906101000a900473ffffffffffffffffffffffffffffffffffffffff169050600f60009054906101000a900473ffffffffffffffffffffffffffffffffffffffff1673ffffffffffffffffffffffffffffffffffffffff16637d458baa83836040518363ffffffff1660e01b8152600401618a6992919061ad1f565b600060405180830381600087803b158015618a8357600080fd5b505af1158015618a97573d6000803e3d6000fd5b50505050618aa483619581565b505050565b60006a021165458500521280000090507f000000000000000000000000000000000000000000000000000000000000000073ffffffffffffffffffffffffffffffffffffffff1663d01f6fba82306040518363ffffffff1660e01b8152600401618b1492919061ad1f565b600060405180830381600087803b158015618b2e57600080fd5b505af1158015618b42573d6000803e3d6000fd5b50505050618b4f82619581565b5050565b60006019600083815260200190815260200160002060009054906101000a900473ffffffffffffffffffffffffffffffffffffffff169050601660008273ffffffffffffffffffffffffffffffffffffffff1673ffffffffffffffffffffffffffffffffffffffff16815260200190815260200160002060009054906101000a900460ff16618c98576001601660008373ffffffffffffffffffffffffffffffffffffffff1673ffffffffffffffffffffffffffffffffffffffff16815260200190815260200160002060006101000a81548160ff0219169083151502179055506013819080600181540180825580915050600190039060005260206000200160009091909190916101000a81548173ffffffffffffffffffffffffffffffffffffffff021916908373ffffffffffffffffffffffffffffffffffffffff1602179055505b618ca182619581565b8073ffffffffffffffffffffffffffffffffffffffff163373ffffffffffffffffffffffffffffffffffffffff167fa2c962e87fd75165c1496c9ea420ddb0231e124bf2625a77f828287c8050006860405160405180910390a35050565b60006019600083815260200190815260200160002060009054906101000a900473ffffffffffffffffffffffffffffffffffffffff169050601660008273ffffffffffffffffffffffffffffffffffffffff1673ffffffffffffffffffffffffffffffffffffffff16815260200190815260200160002060009054906101000a900460ff1615619004576000601660008373ffffffffffffffffffffffffffffffffffffffff1673ffffffffffffffffffffffffffffffffffffffff16815260200190815260200160002060006101000a81548160ff02191690831515021790555060005b601380549050811015619002578173ffffffffffffffffffffffffffffffffffffffff1660138281548110618e42577f4e487b7100000000000000000000000000000000000000000000000000000000600052603260045260246000fd5b9060005260206000200160009054906101000a900473ffffffffffffffffffffffffffffffffffffffff1673ffffffffffffffffffffffffffffffffffffffff161415618fef5760136001601380549050618e9d919061affc565b81548110618ed4577f4e487b7100000000000000000000000000000000000000000000000000000000600052603260045260246000fd5b9060005260206000200160009054906101000a900473ffffffffffffffffffffffffffffffffffffffff1660138281548110618f39577f4e487b7100000000000000000000000000000000000000000000000000000000600052603260045260246000fd5b9060005260206000200160006101000a81548173ffffffffffffffffffffffffffffffffffffffff021916908373ffffffffffffffffffffffffffffffffffffffff1602179055506013805480618fb9577f4e487b7100000000000000000000000000000000000000000000000000000000600052603160045260246000fd5b6001900381819060005260206000200160006101000a81549073ffffffffffffffffffffffffffffffffffffffff021916905590555b8080618ffa9061b30d565b915050618de4565b505b61900d82619581565b8073ffffffffffffffffffffffffffffffffffffffff163373ffffffffffffffffffffffffffffffffffffffff167ff487c2322baa448cfa506b983134d9dd9f27d0bbfe0b48119a3908d4f0dde89f60405160405180910390a35050565b60006019600083815260200190815260200160002060009054906101000a900473ffffffffffffffffffffffffffffffffffffffff1690506190ac82619581565b600d60009054906101000a900473ffffffffffffffffffffffffffffffffffffffff1673ffffffffffffffffffffffffffffffffffffffff16632b2260a8826040518263ffffffff1660e01b8152600401619107919061a815565b600060405180830381600087803b15801561912157600080fd5b505af1158015619135573d6000803e3d6000fd5b505050505050565b60006019600083815260200190815260200160002060009054906101000a900473ffffffffffffffffffffffffffffffffffffffff169050600d60009054906101000a900473ffffffffffffffffffffffffffffffffffffffff1673ffffffffffffffffffffffffffffffffffffffff16637ca51fbf826040518263ffffffff1660e01b81526004016191d0919061a815565b600060405180830381600087803b1580156191ea57600080fd5b505af11580156191fe573d6000803e3d6000fd5b50505050601660008273ffffffffffffffffffffffffffffffffffffffff1673ffffffffffffffffffffffffffffffffffffffff16815260200190815260200160002060009054906101000a900460ff16156194cf576000601660008373ffffffffffffffffffffffffffffffffffffffff1673ffffffffffffffffffffffffffffffffffffffff16815260200190815260200160002060006101000a81548160ff02191690831515021790555060005b6013805490508110156194cd578173ffffffffffffffffffffffffffffffffffffffff166013828154811061930d577f4e487b7100000000000000000000000000000000000000000000000000000000600052603260045260246000fd5b9060005260206000200160009054906101000a900473ffffffffffffffffffffffffffffffffffffffff1673ffffffffffffffffffffffffffffffffffffffff1614156194ba5760136001601380549050619368919061affc565b8154811061939f577f4e487b7100000000000000000000000000000000000000000000000000000000600052603260045260246000fd5b9060005260206000200160009054906101000a900473ffffffffffffffffffffffffffffffffffffffff1660138281548110619404577f4e487b7100000000000000000000000000000000000000000000000000000000600052603260045260246000fd5b9060005260206000200160006101000a81548173ffffffffffffffffffffffffffffffffffffffff021916908373ffffffffffffffffffffffffffffffffffffffff1602179055506013805480619484577f4e487b7100000000000000000000000000000000000000000000000000000000600052603160045260246000fd5b6001900381819060005260206000200160006101000a81549073ffffffffffffffffffffffffffffffffffffffff021916905590555b80806194c59061b30d565b9150506192af565b505b6194d882619581565b5050565b60006019600083815260200190815260200160002060009054906101000a900473ffffffffffffffffffffffffffffffffffffffff1690508073ffffffffffffffffffffffffffffffffffffffff1663224b2a5b6040518163ffffffff1660e01b8152600401600060405180830381600087803b15801561955c57600080fd5b505af1158015619570573d6000803e3d6000fd5b5050505061957d82619581565b5050565b6000601a600083815260200190815260200160002080546195a19061b2aa565b80601f01602080910402602001604051908101604052809291908181526020018280546195cd9061b2aa565b801561961a5780601f106195ef5761010080835404028352916020019161961a565b820191906000526020600020905b8154815290600101906020018083116195fd57829003601f168201915b505050505090506000600d60009054906101000a900473ffffffffffffffffffffffffffffffffffffffff1673ffffffffffffffffffffffffffffffffffffffff1663abc764da6040518163ffffffff1660e01b815260040160006040518083038186803b15801561968b57600080fd5b505afa15801561969f573d6000803e3d6000fd5b505050506040513d6000823e3d601f19601f820116820180604052508101906196c89190619e5f565b905060005b815181101561977f576000602060008681526020019081526020016000206000848481518110619726577f4e487b7100000000000000000000000000000000000000000000000000000000600052603260045260246000fd5b602002602001015173ffffffffffffffffffffffffffffffffffffffff1673ffffffffffffffffffffffffffffffffffffffff1681526020019081526020016000208190555080806197779061b30d565b9150506196cd565b506001601d600085815260200190815260200160002060006101000a81548160ff0219169083151502179055506000601c600085815260200190815260200160002060006101000a81548160ff0219169083151502179055506000601e600085815260200190815260200160002060006101000a81548160ff021916908315150217905550823373ffffffffffffffffffffffffffffffffffffffff167ffdbe656509abcebb25a94a9630376c43df21fd5f51077a0c0e20965cf5a023278460405161984b919061aa20565b60405180910390a3505050565b8280546198649061b2aa565b90600052602060002090601f01602090048101928261988657600085556198cd565b82601f1061989f57805160ff19168380011785556198cd565b828001600101855582156198cd579182015b828111156198cc5782518255916020019190600101906198b1565b5b5090506198da919061994d565b5090565b6040518061014001604052806000815260200160608152602001600081526020016000815260200160001515815260200160001515815260200160008152602001600073ffffffffffffffffffffffffffffffffffffffff168152602001600015158152602001600081525090565b5b8082111561996657600081600090555060010161994e565b5090565b600061997d6199788461ae42565b61ae1d565b9050808382526020820190508285602086028201111561999c57600080fd5b60005b858110156199cc57816199b28882619a80565b84526020840193506020830192505060018101905061999f565b5050509392505050565b60006199e96199e48461ae42565b61ae1d565b90508083825260208201905082856020860282011115619a0857600080fd5b60005b85811015619a385781619a1e8882619a95565b845260208401935060208301925050600181019050619a0b565b5050509392505050565b6000619a55619a508461ae6e565b61ae1d565b905082815260208101848484011115619a6d57600080fd5b619a7884828561b268565b509392505050565b600081359050619a8f8161b780565b92915050565b600081519050619aa48161b780565b92915050565b600082601f830112619abb57600080fd5b8135619acb84826020860161996a565b91505092915050565b600082601f830112619ae557600080fd5b8151619af58482602086016199d6565b91505092915050565b600081359050619b0d8161b797565b92915050565b600081519050619b228161b797565b92915050565b600081519050619b378161b7ae565b92915050565b600081519050619b4c8161b7c5565b92915050565b600081519050619b618161b7dc565b92915050565b600081519050619b768161b7f3565b92915050565b600081519050619b8b8161b80a565b92915050565b600081519050619ba08161b821565b92915050565b600081519050619bb58161b838565b92915050565b600081519050619bca8161b84f565b92915050565b600081519050619bdf8161b866565b92915050565b600081519050619bf48161b87d565b92915050565b600082601f830112619c0b57600080fd5b8135619c1b848260208601619a42565b91505092915050565b600081359050619c338161b894565b92915050565b600081519050619c488161b894565b92915050565b600060208284031215619c6057600080fd5b6000619c6e84828501619a80565b91505092915050565b600060208284031215619c8957600080fd5b6000619c9784828501619a95565b91505092915050565b60008060408385031215619cb357600080fd5b6000619cc185828601619a80565b9250506020619cd285828601619a80565b9150509250929050565b600080600060608486031215619cf157600080fd5b6000619cff86828701619a80565b9350506020619d1086828701619a80565b9250506040619d2186828701619a80565b9150509250925092565b60008060008060808587031215619d4157600080fd5b6000619d4f87828801619a80565b9450506020619d6087828801619a80565b9350506040619d7187828801619a80565b9250506060619d8287828801619a80565b91505092959194509250565b60008060408385031215619da157600080fd5b6000619daf85828601619a80565b925050602083013567ffffffffffffffff811115619dcc57600080fd5b619dd885828601619bfa565b9150509250929050565b60008060408385031215619df557600080fd5b6000619e0385828601619a80565b9250506020619e1485828601619c24565b9150509250929050565b600060208284031215619e3057600080fd5b600082013567ffffffffffffffff811115619e4a57600080fd5b619e5684828501619aaa565b91505092915050565b600060208284031215619e7157600080fd5b600082015167ffffffffffffffff811115619e8b57600080fd5b619e9784828501619ad4565b91505092915050565b600060208284031215619eb257600080fd5b6000619ec084828501619b13565b91505092915050565b600060208284031215619edb57600080fd5b6000619ee984828501619b28565b91505092915050565b600060208284031215619f0457600080fd5b6000619f1284828501619b3d565b91505092915050565b600060208284031215619f2d57600080fd5b6000619f3b84828501619b52565b91505092915050565b600060208284031215619f5657600080fd5b6000619f6484828501619b67565b91505092915050565b600060208284031215619f7f57600080fd5b6000619f8d84828501619b7c565b91505092915050565b600060208284031215619fa857600080fd5b6000619fb684828501619b91565b91505092915050565b600060208284031215619fd157600080fd5b6000619fdf84828501619ba6565b91505092915050565b600060208284031215619ffa57600080fd5b600061a00884828501619bbb565b91505092915050565b60006020828403121561a02357600080fd5b600061a03184828501619bd0565b91505092915050565b60006020828403121561a04c57600080fd5b600061a05a84828501619be5565b91505092915050565b60006020828403121561a07557600080fd5b600082013567ffffffffffffffff81111561a08f57600080fd5b61a09b84828501619bfa565b91505092915050565b60006020828403121561a0b657600080fd5b600061a0c484828501619c24565b91505092915050565b60006020828403121561a0df57600080fd5b600061a0ed84828501619c39565b91505092915050565b6000806040838503121561a10957600080fd5b600061a11785828601619c24565b925050602061a12885828601619a80565b9150509250929050565b6000806040838503121561a14557600080fd5b600061a15385828601619c24565b925050602083013567ffffffffffffffff81111561a17057600080fd5b61a17c85828601619bfa565b9150509250929050565b6000806040838503121561a19957600080fd5b600061a1a785828601619c39565b925050602061a1b885828601619c39565b9150509250929050565b60008060008060008060c0878903121561a1db57600080fd5b600061a1e989828a01619c24565b965050602061a1fa89828a01619c24565b955050604061a20b89828a01619c24565b945050606061a21c89828a01619c24565b935050608061a22d89828a01619c24565b92505060a061a23e89828a01619afe565b9150509295509295509295565b600061a257838361a263565b60208301905092915050565b61a26c8161b030565b82525050565b61a27b8161b030565b82525050565b600061a28c8261aeaf565b61a296818561aedd565b935061a2a18361ae9f565b8060005b8381101561a2d257815161a2b9888261a24b565b975061a2c48361aed0565b92505060018101905061a2a5565b5085935050505092915050565b61a2e88161b042565b82525050565b61a2f78161b042565b82525050565b600061a3088261aeba565b61a312818561aeee565b935061a32281856020860161b277565b80840191505092915050565b61a3378161b124565b82525050565b61a3468161b148565b82525050565b61a3558161b16c565b82525050565b61a3648161b190565b82525050565b61a3738161b1b4565b82525050565b61a3828161b1d8565b82525050565b61a3918161b1fc565b82525050565b61a3a08161b220565b82525050565b61a3af8161b244565b82525050565b600061a3c08261aec5565b61a3ca818561aef9565b935061a3da81856020860161b277565b61a3e38161b412565b840191505092915050565b600061a3f98261aec5565b61a403818561af0a565b935061a41381856020860161b277565b61a41c8161b412565b840191505092915050565b600061a43460078361af0a565b915061a43f8261b423565b602082019050919050565b600061a45760078361af0a565b915061a4628261b44c565b602082019050919050565b600061a47a60088361af0a565b915061a4858261b475565b602082019050919050565b600061a49d60078361af0a565b915061a4a88261b49e565b602082019050919050565b600061a4c060058361af0a565b915061a4cb8261b4c7565b602082019050919050565b600061a4e360058361af0a565b915061a4ee8261b4f0565b602082019050919050565b600061a506600a8361af0a565b915061a5118261b519565b602082019050919050565b600061a52960088361af0a565b915061a5348261b542565b602082019050919050565b600061a54c60068361af0a565b915061a5578261b56b565b602082019050919050565b600061a56f600b8361af0a565b915061a57a8261b594565b602082019050919050565b600061a59260068361af0a565b915061a59d8261b5bd565b602082019050919050565b600061a5b560088361af0a565b915061a5c08261b5e6565b602082019050919050565b600061a5d860098361af0a565b915061a5e38261b60f565b602082019050919050565b600061a5fb60068361af0a565b915061a6068261b638565b602082019050919050565b600061a61e60078361af0a565b915061a6298261b661565b602082019050919050565b600061a64160088361af0a565b915061a64c8261b68a565b602082019050919050565b600061a66460058361af0a565b915061a66f8261b6b3565b602082019050919050565b600061a68760058361af0a565b915061a6928261b6dc565b602082019050919050565b600061a6aa601f8361af0a565b915061a6b58261b705565b602082019050919050565b600061a6cd60058361af0a565b915061a6d88261b72e565b602082019050919050565b600061a6f060048361af0a565b915061a6fb8261b757565b602082019050919050565b60006101408301600083015161a71f600086018261a7e0565b506020830151848203602086015261a737828261a3b5565b915050604083015161a74c604086018261a7e0565b50606083015161a75f606086018261a7e0565b50608083015161a772608086018261a2df565b5060a083015161a78560a086018261a2df565b5060c083015161a79860c086018261a7e0565b5060e083015161a7ab60e086018261a263565b5061010083015161a7c061010086018261a2df565b5061012083015161a7d561012086018261a7e0565b508091505092915050565b61a7e98161b11a565b82525050565b61a7f88161b11a565b82525050565b600061a80a828461a2fd565b915081905092915050565b600060208201905061a82a600083018461a272565b92915050565b600060408201905061a845600083018561a272565b61a852602083018461a272565b9392505050565b600060608201905061a86e600083018661a272565b61a87b602083018561a272565b61a888604083018461a7ef565b949350505050565b600060408201905061a8a5600083018561a272565b61a8b2602083018461a7ef565b9392505050565b600060608201905061a8ce600083018661a272565b61a8db602083018561a7ef565b61a8e8604083018461a272565b949350505050565b6000602082019050818103600083015261a90a818461a281565b905092915050565b600060208201905061a927600083018461a2ee565b92915050565b600060208201905061a942600083018461a32e565b92915050565b600060208201905061a95d600083018461a33d565b92915050565b600060208201905061a978600083018461a34c565b92915050565b600060208201905061a993600083018461a35b565b92915050565b600060208201905061a9ae600083018461a36a565b92915050565b600060208201905061a9c9600083018461a379565b92915050565b600060208201905061a9e4600083018461a388565b92915050565b600060208201905061a9ff600083018461a397565b92915050565b600060208201905061aa1a600083018461a3a6565b92915050565b6000602082019050818103600083015261aa3a818461a3ee565b905092915050565b6000602082019050818103600083015261aa5b8161a427565b9050919050565b6000602082019050818103600083015261aa7b8161a44a565b9050919050565b6000602082019050818103600083015261aa9b8161a46d565b9050919050565b6000602082019050818103600083015261aabb8161a490565b9050919050565b6000602082019050818103600083015261aadb8161a4b3565b9050919050565b6000602082019050818103600083015261aafb8161a4d6565b9050919050565b6000602082019050818103600083015261ab1b8161a4f9565b9050919050565b6000602082019050818103600083015261ab3b8161a51c565b9050919050565b6000602082019050818103600083015261ab5b8161a53f565b9050919050565b6000602082019050818103600083015261ab7b8161a562565b9050919050565b6000602082019050818103600083015261ab9b8161a585565b9050919050565b6000602082019050818103600083015261abbb8161a5a8565b9050919050565b6000602082019050818103600083015261abdb8161a5cb565b9050919050565b6000602082019050818103600083015261abfb8161a5ee565b9050919050565b6000602082019050818103600083015261ac1b8161a611565b9050919050565b6000602082019050818103600083015261ac3b8161a634565b9050919050565b6000602082019050818103600083015261ac5b8161a657565b9050919050565b6000602082019050818103600083015261ac7b8161a67a565b9050919050565b6000602082019050818103600083015261ac9b8161a69d565b9050919050565b6000602082019050818103600083015261acbb8161a6c0565b9050919050565b6000602082019050818103600083015261acdb8161a6e3565b9050919050565b6000602082019050818103600083015261acfc818461a706565b905092915050565b600060208201905061ad19600083018461a7ef565b92915050565b600060408201905061ad34600083018561a7ef565b61ad41602083018461a272565b9392505050565b600060408201905061ad5d600083018561a7ef565b818103602083015261ad6f818461a3ee565b90509392505050565b600060408201905061ad8d600083018561a7ef565b61ad9a602083018461a7ef565b9392505050565b600060808201905061adb6600083018761a7ef565b61adc3602083018661a7ef565b61add0604083018561a272565b61addd606083018461a272565b95945050505050565b600060608201905061adfb600083018661a7ef565b61ae08602083018561a7ef565b61ae15604083018461a7ef565b949350505050565b600061ae2761ae38565b905061ae33828261b2dc565b919050565b6000604051905090565b600067ffffffffffffffff82111561ae5d5761ae5c61b3e3565b5b602082029050602081019050919050565b600067ffffffffffffffff82111561ae895761ae8861b3e3565b5b61ae928261b412565b9050602081019050919050565b6000819050602082019050919050565b600081519050919050565b600081519050919050565b600081519050919050565b6000602082019050919050565b600082825260208201905092915050565b600081905092915050565b600082825260208201905092915050565b600082825260208201905092915050565b600061af268261b11a565b915061af318361b11a565b9250827fffffffffffffffffffffffffffffffffffffffffffffffffffffffffffffffff0382111561af665761af6561b356565b5b828201905092915050565b600061af7c8261b11a565b915061af878361b11a565b92508261af975761af9661b385565b5b828204905092915050565b600061afad8261b11a565b915061afb88361b11a565b9250817fffffffffffffffffffffffffffffffffffffffffffffffffffffffffffffffff048311821515161561aff15761aff061b356565b5b828202905092915050565b600061b0078261b11a565b915061b0128361b11a565b92508282101561b0255761b02461b356565b5b828203905092915050565b600061b03b8261b0fa565b9050919050565b60008115159050919050565b6000819050919050565b600061b0638261b030565b9050919050565b600061b0758261b030565b9050919050565b600061b0878261b030565b9050919050565b600061b0998261b030565b9050919050565b600061b0ab8261b030565b9050919050565b600061b0bd8261b030565b9050919050565b600061b0cf8261b030565b9050919050565b600061b0e18261b030565b9050919050565b600061b0f38261b030565b9050919050565b600073ffffffffffffffffffffffffffffffffffffffff82169050919050565b6000819050919050565b600061b12f8261b136565b9050919050565b600061b1418261b0fa565b9050919050565b600061b1538261b15a565b9050919050565b600061b1658261b0fa565b9050919050565b600061b1778261b17e565b9050919050565b600061b1898261b0fa565b9050919050565b600061b19b8261b1a2565b9050919050565b600061b1ad8261b0fa565b9050919050565b600061b1bf8261b1c6565b9050919050565b600061b1d18261b0fa565b9050919050565b600061b1e38261b1ea565b9050919050565b600061b1f58261b0fa565b9050919050565b600061b2078261b20e565b9050919050565b600061b2198261b0fa565b9050919050565b600061b22b8261b232565b9050919050565b600061b23d8261b0fa565b9050919050565b600061b24f8261b256565b9050919050565b600061b2618261b0fa565b9050919050565b82818337600083830152505050565b60005b8381101561b29557808201518184015260208101905061b27a565b8381111561b2a4576000848401525b50505050565b6000600282049050600182168061b2c257607f821691505b6020821081141561b2d65761b2d561b3b4565b5b50919050565b61b2e58261b412565b810181811067ffffffffffffffff8211171561b3045761b30361b3e3565b5b80604052505050565b600061b3188261b11a565b91507fffffffffffffffffffffffffffffffffffffffffffffffffffffffffffffffff82141561b34b5761b34a61b356565b5b600182019050919050565b7f4e487b7100000000000000000000000000000000000000000000000000000000600052601160045260246000fd5b7f4e487b7100000000000000000000000000000000000000000000000000000000600052601260045260246000fd5b7f4e487b7100000000000000000000000000000000000000000000000000000000600052602260045260246000fd5b7f4e487b7100000000000000000000000000000000000000000000000000000000600052604160045260246000fd5b6000601f19601f8301169050919050565b7f216c697374656400000000000000000000000000000000000000000000000000600082015250565b7f5245544952454400000000000000000000000000000000000000000000000000600082015250565b7f494e414354495645000000000000000000000000000000000000000000000000600082015250565b7f21414d4f554e5400000000000000000000000000000000000000000000000000600082015250565b7f564f544544000000000000000000000000000000000000000000000000000000600082015250565b7f214f50454e000000000000000000000000000000000000000000000000000000600082015250565b7f21656d697373696f6e7300000000000000000000000000000000000000000000600082015250565b7f21636f6f6c6f6666000000000000000000000000000000000000000000000000600082015250565b7f6c69737465640000000000000000000000000000000000000000000000000000600082015250565b7f2166696e616c6973696e67000000000000000000000000000000000000000000600082015250565b7f21564f5445440000000000000000000000000000000000000000000000000000600082015250565b7f2163757261746564000000000000000000000000000000000000000000000000600082015250565b7f217472616e736665720000000000000000000000000000000000000000000000600082015250565b7f21706172616d0000000000000000000000000000000000000000000000000000600082015250565b7f21616d6f756e7400000000000000000000000000000000000000000000000000600082015250565b7f2161646472657373000000000000000000000000000000000000000000000000600082015250565b7f2153414645000000000000000000000000000000000000000000000000000000600082015250565b7f216f70656e000000000000000000000000000000000000000000000000000000600082015250565b7f5265656e7472616e637947756172643a207265656e7472616e742063616c6c00600082015250565b7f2164617973000000000000000000000000000000000000000000000000000000600082015250565b7f4f50454e00000000000000000000000000000000000000000000000000000000600082015250565b61b7898161b030565b811461b79457600080fd5b50565b61b7a08161b042565b811461b7ab57600080fd5b50565b61b7b78161b04e565b811461b7c257600080fd5b50565b61b7ce8161b058565b811461b7d957600080fd5b50565b61b7e58161b06a565b811461b7f057600080fd5b50565b61b7fc8161b07c565b811461b80757600080fd5b50565b61b8138161b08e565b811461b81e57600080fd5b50565b61b82a8161b0a0565b811461b83557600080fd5b50565b61b8418161b0b2565b811461b84c57600080fd5b50565b61b8588161b0c4565b811461b86357600080fd5b50565b61b86f8161b0d6565b811461b87a57600080fd5b50565b61b8868161b0e8565b811461b89157600080fd5b50565b61b89d8161b11a565b811461b8a857600080fd5b5056fea2646970667358221220e986c3d879d4f0d7ba8c2a5e852d24ff362d130179617b384b67fb0384248f2c64736f6c63430008030033",
  "linkReferences": {},
  "deployedLinkReferences": {}
}