{
  "_format": "hh-sol-artifact-1",
  "contractName": "Dao",
  "sourceName": "contracts/Dao.sol",
  "abi": [
    {
      "inputs": [
        {
          "internalType": "address",
          "name": "_base",
          "type": "address"
        }
      ],
      "stateMutability": "nonpayable",
      "type": "constructor"
    },
    {
      "anonymous": false,
      "inputs": [
        {
          "indexed": true,
          "internalType": "address",
          "name": "member",
          "type": "address"
        },
        {
          "indexed": true,
          "internalType": "uint256",
          "name": "oldProposalID",
          "type": "uint256"
        },
        {
          "indexed": false,
          "internalType": "uint256",
          "name": "oldVotes",
          "type": "uint256"
        },
        {
          "indexed": false,
          "internalType": "uint256",
          "name": "newVotes",
          "type": "uint256"
        },
        {
          "indexed": false,
          "internalType": "uint256",
          "name": "totalWeight",
          "type": "uint256"
        }
      ],
      "name": "CancelProposal",
      "type": "event"
    },
    {
      "anonymous": false,
      "inputs": [
        {
          "indexed": true,
          "internalType": "address",
          "name": "member",
          "type": "address"
        },
        {
          "indexed": true,
          "internalType": "uint256",
          "name": "proposalID",
          "type": "uint256"
        },
        {
          "indexed": false,
          "internalType": "uint256",
          "name": "votesCast",
          "type": "uint256"
        },
        {
          "indexed": false,
          "internalType": "uint256",
          "name": "totalWeight",
          "type": "uint256"
        },
        {
          "indexed": false,
          "internalType": "string",
          "name": "proposalType",
          "type": "string"
        }
      ],
      "name": "FinalisedProposal",
      "type": "event"
    },
    {
      "anonymous": false,
      "inputs": [
        {
          "indexed": true,
          "internalType": "address",
          "name": "member",
          "type": "address"
        },
        {
          "indexed": true,
          "internalType": "address",
          "name": "pool",
          "type": "address"
        },
        {
          "indexed": false,
          "internalType": "uint256",
          "name": "amount",
          "type": "uint256"
        }
      ],
      "name": "MemberDeposits",
      "type": "event"
    },
    {
      "anonymous": false,
      "inputs": [
        {
          "indexed": true,
          "internalType": "address",
          "name": "member",
          "type": "address"
        },
        {
          "indexed": true,
          "internalType": "address",
          "name": "pool",
          "type": "address"
        },
        {
          "indexed": false,
          "internalType": "uint256",
          "name": "balance",
          "type": "uint256"
        }
      ],
      "name": "MemberWithdraws",
      "type": "event"
    },
    {
      "anonymous": false,
      "inputs": [
        {
          "indexed": true,
          "internalType": "address",
          "name": "member",
          "type": "address"
        },
        {
          "indexed": true,
          "internalType": "uint256",
          "name": "proposalID",
          "type": "uint256"
        },
        {
          "indexed": false,
          "internalType": "string",
          "name": "proposalType",
          "type": "string"
        }
      ],
      "name": "NewProposal",
      "type": "event"
    },
    {
      "anonymous": false,
      "inputs": [
        {
          "indexed": true,
          "internalType": "address",
          "name": "member",
          "type": "address"
        },
        {
          "indexed": true,
          "internalType": "uint256",
          "name": "proposalID",
          "type": "uint256"
        },
        {
          "indexed": false,
          "internalType": "uint256",
          "name": "voteWeight",
          "type": "uint256"
        },
        {
          "indexed": false,
          "internalType": "uint256",
          "name": "totalVotes",
          "type": "uint256"
        },
        {
          "indexed": false,
          "internalType": "string",
          "name": "proposalType",
          "type": "string"
        }
      ],
      "name": "NewVote",
      "type": "event"
    },
    {
      "anonymous": false,
      "inputs": [
        {
          "indexed": true,
          "internalType": "address",
          "name": "member",
          "type": "address"
        },
        {
          "indexed": true,
          "internalType": "uint256",
          "name": "proposalID",
          "type": "uint256"
        },
        {
          "indexed": false,
          "internalType": "uint256",
          "name": "timeFinalised",
          "type": "uint256"
        },
        {
          "indexed": false,
          "internalType": "string",
          "name": "proposalType",
          "type": "string"
        }
      ],
      "name": "ProposalFinalising",
      "type": "event"
    },
    {
      "anonymous": false,
      "inputs": [
        {
          "indexed": true,
          "internalType": "address",
          "name": "member",
          "type": "address"
        },
        {
          "indexed": true,
          "internalType": "uint256",
          "name": "proposalID",
          "type": "uint256"
        },
        {
          "indexed": false,
          "internalType": "uint256",
          "name": "voteWeight",
          "type": "uint256"
        },
        {
          "indexed": false,
          "internalType": "uint256",
          "name": "totalVotes",
          "type": "uint256"
        },
        {
          "indexed": false,
          "internalType": "string",
          "name": "proposalType",
          "type": "string"
        }
      ],
      "name": "RemovedVote",
      "type": "event"
    },
    {
      "inputs": [],
      "name": "BASE",
      "outputs": [
        {
          "internalType": "address",
          "name": "",
          "type": "address"
        }
      ],
      "stateMutability": "view",
      "type": "function"
    },
    {
      "inputs": [],
      "name": "BOND",
      "outputs": [
        {
          "internalType": "contract iBOND",
          "name": "",
          "type": "address"
        }
      ],
      "stateMutability": "view",
      "type": "function"
    },
    {
      "inputs": [],
      "name": "DAO",
      "outputs": [
        {
          "internalType": "address",
          "name": "",
          "type": "address"
        }
      ],
      "stateMutability": "view",
      "type": "function"
    },
    {
      "inputs": [],
      "name": "DAOVAULT",
      "outputs": [
        {
          "internalType": "contract iDAOVAULT",
          "name": "",
          "type": "address"
        }
      ],
      "stateMutability": "view",
      "type": "function"
    },
    {
      "inputs": [],
      "name": "DEPLOYER",
      "outputs": [
        {
          "internalType": "address",
          "name": "",
          "type": "address"
        }
      ],
      "stateMutability": "view",
      "type": "function"
    },
    {
      "inputs": [],
      "name": "POOLFACTORY",
      "outputs": [
        {
          "internalType": "contract iPOOLFACTORY",
          "name": "",
          "type": "address"
        }
      ],
      "stateMutability": "view",
      "type": "function"
    },
    {
      "inputs": [],
      "name": "RESERVE",
      "outputs": [
        {
          "internalType": "contract iRESERVE",
          "name": "",
          "type": "address"
        }
      ],
      "stateMutability": "view",
      "type": "function"
    },
    {
      "inputs": [],
      "name": "ROUTER",
      "outputs": [
        {
          "internalType": "contract iROUTER",
          "name": "",
          "type": "address"
        }
      ],
      "stateMutability": "view",
      "type": "function"
    },
    {
      "inputs": [],
      "name": "SYNTHFACTORY",
      "outputs": [
        {
          "internalType": "contract iSYNTHFACTORY",
          "name": "",
          "type": "address"
        }
      ],
      "stateMutability": "view",
      "type": "function"
    },
    {
      "inputs": [],
      "name": "UTILS",
      "outputs": [
        {
          "internalType": "contract iUTILS",
          "name": "",
          "type": "address"
        }
      ],
      "stateMutability": "view",
      "type": "function"
    },
    {
      "inputs": [],
      "name": "_BOND",
      "outputs": [
        {
          "internalType": "contract iBOND",
          "name": "",
          "type": "address"
        }
      ],
      "stateMutability": "view",
      "type": "function"
    },
    {
      "inputs": [],
      "name": "_DAOVAULT",
      "outputs": [
        {
          "internalType": "contract iDAOVAULT",
          "name": "",
          "type": "address"
        }
      ],
      "stateMutability": "view",
      "type": "function"
    },
    {
      "inputs": [],
      "name": "_POOLFACTORY",
      "outputs": [
        {
          "internalType": "contract iPOOLFACTORY",
          "name": "",
          "type": "address"
        }
      ],
      "stateMutability": "view",
      "type": "function"
    },
    {
      "inputs": [],
      "name": "_RESERVE",
      "outputs": [
        {
          "internalType": "contract iRESERVE",
          "name": "",
          "type": "address"
        }
      ],
      "stateMutability": "view",
      "type": "function"
    },
    {
      "inputs": [],
      "name": "_ROUTER",
      "outputs": [
        {
          "internalType": "contract iROUTER",
          "name": "",
          "type": "address"
        }
      ],
      "stateMutability": "view",
      "type": "function"
    },
    {
      "inputs": [],
      "name": "_SYNTHFACTORY",
      "outputs": [
        {
          "internalType": "contract iSYNTHFACTORY",
          "name": "",
          "type": "address"
        }
      ],
      "stateMutability": "view",
      "type": "function"
    },
    {
      "inputs": [],
      "name": "_UTILS",
      "outputs": [
        {
          "internalType": "contract iUTILS",
          "name": "",
          "type": "address"
        }
      ],
      "stateMutability": "view",
      "type": "function"
    },
    {
      "inputs": [
        {
          "internalType": "uint256",
          "name": "",
          "type": "uint256"
        }
      ],
      "name": "arrayMembers",
      "outputs": [
        {
          "internalType": "address",
          "name": "",
          "type": "address"
        }
      ],
      "stateMutability": "view",
      "type": "function"
    },
    {
      "inputs": [
        {
          "internalType": "address",
          "name": "member",
          "type": "address"
        }
      ],
      "name": "calcCurrentReward",
      "outputs": [
        {
          "internalType": "uint256",
          "name": "",
          "type": "uint256"
        }
      ],
      "stateMutability": "nonpayable",
      "type": "function"
    },
    {
      "inputs": [
        {
          "internalType": "address",
          "name": "member",
          "type": "address"
        }
      ],
      "name": "calcReward",
      "outputs": [
        {
          "internalType": "uint256",
          "name": "",
          "type": "uint256"
        }
      ],
      "stateMutability": "nonpayable",
      "type": "function"
    },
    {
      "inputs": [
        {
          "internalType": "uint256",
          "name": "oldProposalID",
          "type": "uint256"
        },
        {
          "internalType": "uint256",
          "name": "newProposalID",
          "type": "uint256"
        }
      ],
      "name": "cancelProposal",
      "outputs": [],
      "stateMutability": "nonpayable",
      "type": "function"
    },
    {
      "inputs": [],
      "name": "coolOffPeriod",
      "outputs": [
        {
          "internalType": "uint256",
          "name": "",
          "type": "uint256"
        }
      ],
      "stateMutability": "view",
      "type": "function"
    },
    {
      "inputs": [],
      "name": "daoClaim",
      "outputs": [
        {
          "internalType": "uint256",
          "name": "",
          "type": "uint256"
        }
      ],
      "stateMutability": "view",
      "type": "function"
    },
    {
      "inputs": [],
      "name": "daoFee",
      "outputs": [
        {
          "internalType": "uint256",
          "name": "",
          "type": "uint256"
        }
      ],
      "stateMutability": "view",
      "type": "function"
    },
    {
      "inputs": [],
      "name": "daoHasMoved",
      "outputs": [
        {
          "internalType": "bool",
          "name": "",
          "type": "bool"
        }
      ],
      "stateMutability": "view",
      "type": "function"
    },
    {
      "inputs": [
        {
          "internalType": "address",
          "name": "pool",
          "type": "address"
        },
        {
          "internalType": "uint256",
          "name": "amount",
          "type": "uint256"
        }
      ],
      "name": "deposit",
      "outputs": [],
      "stateMutability": "nonpayable",
      "type": "function"
    },
    {
      "inputs": [
        {
          "internalType": "address",
          "name": "pool",
          "type": "address"
        },
        {
          "internalType": "uint256",
          "name": "amount",
          "type": "uint256"
        },
        {
          "internalType": "address",
          "name": "member",
          "type": "address"
        }
      ],
      "name": "depositLPForMember",
      "outputs": [],
      "stateMutability": "nonpayable",
      "type": "function"
    },
    {
      "inputs": [],
      "name": "erasToEarn",
      "outputs": [
        {
          "internalType": "uint256",
          "name": "",
          "type": "uint256"
        }
      ],
      "stateMutability": "view",
      "type": "function"
    },
    {
      "inputs": [
        {
          "internalType": "uint256",
          "name": "proposalID",
          "type": "uint256"
        }
      ],
      "name": "finaliseProposal",
      "outputs": [],
      "stateMutability": "nonpayable",
      "type": "function"
    },
    {
      "inputs": [
        {
          "internalType": "uint256",
          "name": "proposalID",
          "type": "uint256"
        }
      ],
      "name": "getGrantDetails",
      "outputs": [
        {
          "components": [
            {
              "internalType": "address",
              "name": "recipient",
              "type": "address"
            },
            {
              "internalType": "uint256",
              "name": "amount",
              "type": "uint256"
            }
          ],
          "internalType": "struct Dao.GrantDetails",
          "name": "grantDetails",
          "type": "tuple"
        }
      ],
      "stateMutability": "view",
      "type": "function"
    },
    {
      "inputs": [
        {
          "internalType": "uint256",
          "name": "proposalID",
          "type": "uint256"
        }
      ],
      "name": "getProposalDetails",
      "outputs": [
        {
          "components": [
            {
              "internalType": "uint256",
              "name": "id",
              "type": "uint256"
            },
            {
              "internalType": "string",
              "name": "proposalType",
              "type": "string"
            },
            {
              "internalType": "uint256",
              "name": "votes",
              "type": "uint256"
            },
            {
              "internalType": "uint256",
              "name": "timeStart",
              "type": "uint256"
            },
            {
              "internalType": "bool",
              "name": "finalising",
              "type": "bool"
            },
            {
              "internalType": "bool",
              "name": "finalised",
              "type": "bool"
            },
            {
              "internalType": "uint256",
              "name": "param",
              "type": "uint256"
            },
            {
              "internalType": "address",
              "name": "proposedAddress",
              "type": "address"
            }
          ],
          "internalType": "struct Dao.ProposalDetails",
          "name": "proposalDetails",
          "type": "tuple"
        }
      ],
      "stateMutability": "view",
      "type": "function"
    },
    {
      "inputs": [],
      "name": "harvest",
      "outputs": [],
      "stateMutability": "nonpayable",
      "type": "function"
    },
    {
      "inputs": [
        {
          "internalType": "uint256",
          "name": "_proposalID",
          "type": "uint256"
        }
      ],
      "name": "hasMajority",
      "outputs": [
        {
          "internalType": "bool",
          "name": "",
          "type": "bool"
        }
      ],
      "stateMutability": "view",
      "type": "function"
    },
    {
      "inputs": [
        {
          "internalType": "uint256",
          "name": "_proposalID",
          "type": "uint256"
        }
      ],
      "name": "hasMinority",
      "outputs": [
        {
          "internalType": "bool",
          "name": "",
          "type": "bool"
        }
      ],
      "stateMutability": "view",
      "type": "function"
    },
    {
      "inputs": [
        {
          "internalType": "uint256",
          "name": "_proposalID",
          "type": "uint256"
        }
      ],
      "name": "hasQuorum",
      "outputs": [
        {
          "internalType": "bool",
          "name": "",
          "type": "bool"
        }
      ],
      "stateMutability": "view",
      "type": "function"
    },
    {
      "inputs": [
        {
          "internalType": "bytes",
          "name": "part1",
          "type": "bytes"
        },
        {
          "internalType": "bytes",
          "name": "part2",
          "type": "bytes"
        }
      ],
      "name": "isEqual",
      "outputs": [
        {
          "internalType": "bool",
          "name": "",
          "type": "bool"
        }
      ],
      "stateMutability": "pure",
      "type": "function"
    },
    {
      "inputs": [
        {
          "internalType": "address",
          "name": "",
          "type": "address"
        }
      ],
      "name": "isListed",
      "outputs": [
        {
          "internalType": "bool",
          "name": "",
          "type": "bool"
        }
      ],
      "stateMutability": "view",
      "type": "function"
    },
    {
      "inputs": [
        {
          "internalType": "address",
          "name": "",
          "type": "address"
        }
      ],
      "name": "isMember",
      "outputs": [
        {
          "internalType": "bool",
          "name": "",
          "type": "bool"
        }
      ],
      "stateMutability": "view",
      "type": "function"
    },
    {
      "inputs": [],
      "name": "majorityFactor",
      "outputs": [
        {
          "internalType": "uint256",
          "name": "",
          "type": "uint256"
        }
      ],
      "stateMutability": "view",
      "type": "function"
    },
    {
      "inputs": [
        {
          "internalType": "address",
          "name": "",
          "type": "address"
        }
      ],
      "name": "mapMember_lastTime",
      "outputs": [
        {
          "internalType": "uint256",
          "name": "",
          "type": "uint256"
        }
      ],
      "stateMutability": "view",
      "type": "function"
    },
    {
      "inputs": [
        {
          "internalType": "uint256",
          "name": "",
          "type": "uint256"
        },
        {
          "internalType": "address",
          "name": "",
          "type": "address"
        }
      ],
      "name": "mapPIDMember_votes",
      "outputs": [
        {
          "internalType": "uint256",
          "name": "",
          "type": "uint256"
        }
      ],
      "stateMutability": "view",
      "type": "function"
    },
    {
      "inputs": [
        {
          "internalType": "uint256",
          "name": "",
          "type": "uint256"
        }
      ],
      "name": "mapPID_address",
      "outputs": [
        {
          "internalType": "address",
          "name": "",
          "type": "address"
        }
      ],
      "stateMutability": "view",
      "type": "function"
    },
    {
      "inputs": [
        {
          "internalType": "uint256",
          "name": "",
          "type": "uint256"
        }
      ],
      "name": "mapPID_finalised",
      "outputs": [
        {
          "internalType": "bool",
          "name": "",
          "type": "bool"
        }
      ],
      "stateMutability": "view",
      "type": "function"
    },
    {
      "inputs": [
        {
          "internalType": "uint256",
          "name": "",
          "type": "uint256"
        }
      ],
      "name": "mapPID_finalising",
      "outputs": [
        {
          "internalType": "bool",
          "name": "",
          "type": "bool"
        }
      ],
      "stateMutability": "view",
      "type": "function"
    },
    {
      "inputs": [
        {
          "internalType": "uint256",
          "name": "",
          "type": "uint256"
        }
      ],
      "name": "mapPID_grant",
      "outputs": [
        {
          "internalType": "address",
          "name": "recipient",
          "type": "address"
        },
        {
          "internalType": "uint256",
          "name": "amount",
          "type": "uint256"
        }
      ],
      "stateMutability": "view",
      "type": "function"
    },
    {
      "inputs": [
        {
          "internalType": "uint256",
          "name": "",
          "type": "uint256"
        }
      ],
      "name": "mapPID_param",
      "outputs": [
        {
          "internalType": "uint32",
          "name": "",
          "type": "uint32"
        }
      ],
      "stateMutability": "view",
      "type": "function"
    },
    {
      "inputs": [
        {
          "internalType": "uint256",
          "name": "",
          "type": "uint256"
        }
      ],
      "name": "mapPID_timeStart",
      "outputs": [
        {
          "internalType": "uint256",
          "name": "",
          "type": "uint256"
        }
      ],
      "stateMutability": "view",
      "type": "function"
    },
    {
      "inputs": [
        {
          "internalType": "uint256",
          "name": "",
          "type": "uint256"
        }
      ],
      "name": "mapPID_type",
      "outputs": [
        {
          "internalType": "string",
          "name": "",
          "type": "string"
        }
      ],
      "stateMutability": "view",
      "type": "function"
    },
    {
      "inputs": [
        {
          "internalType": "uint256",
          "name": "",
          "type": "uint256"
        }
      ],
      "name": "mapPID_votes",
      "outputs": [
        {
          "internalType": "uint256",
          "name": "",
          "type": "uint256"
        }
      ],
      "stateMutability": "view",
      "type": "function"
    },
    {
      "inputs": [],
      "name": "memberCount",
      "outputs": [
        {
          "internalType": "uint256",
          "name": "",
          "type": "uint256"
        }
      ],
      "stateMutability": "view",
      "type": "function"
    },
    {
      "inputs": [
        {
          "internalType": "string",
          "name": "typeStr",
          "type": "string"
        }
      ],
      "name": "newActionProposal",
      "outputs": [
        {
          "internalType": "uint256",
          "name": "",
          "type": "uint256"
        }
      ],
      "stateMutability": "nonpayable",
      "type": "function"
    },
    {
      "inputs": [
        {
          "internalType": "address",
          "name": "proposedAddress",
          "type": "address"
        },
        {
          "internalType": "string",
          "name": "typeStr",
          "type": "string"
        }
      ],
      "name": "newAddressProposal",
      "outputs": [
        {
          "internalType": "uint256",
          "name": "",
          "type": "uint256"
        }
      ],
      "stateMutability": "nonpayable",
      "type": "function"
    },
    {
      "inputs": [
        {
          "internalType": "address",
          "name": "recipient",
          "type": "address"
        },
        {
          "internalType": "uint256",
          "name": "amount",
          "type": "uint256"
        }
      ],
      "name": "newGrantProposal",
      "outputs": [
        {
          "internalType": "uint256",
          "name": "",
          "type": "uint256"
        }
      ],
      "stateMutability": "nonpayable",
      "type": "function"
    },
    {
      "inputs": [
        {
          "internalType": "uint32",
          "name": "param",
          "type": "uint32"
        },
        {
          "internalType": "string",
          "name": "typeStr",
          "type": "string"
        }
      ],
      "name": "newParamProposal",
      "outputs": [
        {
          "internalType": "uint256",
          "name": "",
          "type": "uint256"
        }
      ],
      "stateMutability": "nonpayable",
      "type": "function"
    },
    {
      "inputs": [],
      "name": "proposalCount",
      "outputs": [
        {
          "internalType": "uint256",
          "name": "",
          "type": "uint256"
        }
      ],
      "stateMutability": "view",
      "type": "function"
    },
    {
      "inputs": [],
      "name": "purgeDeployer",
      "outputs": [],
      "stateMutability": "nonpayable",
      "type": "function"
    },
    {
      "inputs": [
        {
          "internalType": "uint256",
          "name": "proposalID",
          "type": "uint256"
        }
      ],
      "name": "removeVote",
      "outputs": [
        {
          "internalType": "uint256",
          "name": "voteWeightRemoved",
          "type": "uint256"
        }
      ],
      "stateMutability": "nonpayable",
      "type": "function"
    },
    {
      "inputs": [],
      "name": "secondsPerEra",
      "outputs": [
        {
          "internalType": "uint256",
          "name": "",
          "type": "uint256"
        }
      ],
      "stateMutability": "view",
      "type": "function"
    },
    {
      "inputs": [
        {
          "internalType": "address",
          "name": "_poolFactory",
          "type": "address"
        },
        {
          "internalType": "address",
          "name": "_synthFactory",
          "type": "address"
        }
      ],
      "name": "setFactoryAddresses",
      "outputs": [],
      "stateMutability": "nonpayable",
      "type": "function"
    },
    {
      "inputs": [
        {
          "internalType": "address",
          "name": "_router",
          "type": "address"
        },
        {
          "internalType": "address",
          "name": "_utils",
          "type": "address"
        },
        {
          "internalType": "address",
          "name": "_bond",
          "type": "address"
        },
        {
          "internalType": "address",
          "name": "_reserve",
          "type": "address"
        },
        {
          "internalType": "address",
          "name": "_daovault",
          "type": "address"
        }
      ],
      "name": "setGenesisAddresses",
      "outputs": [],
      "stateMutability": "nonpayable",
      "type": "function"
    },
    {
      "inputs": [
        {
          "internalType": "uint256",
          "name": "proposalID",
          "type": "uint256"
        }
      ],
      "name": "voteProposal",
      "outputs": [
        {
          "internalType": "uint256",
          "name": "voteWeight",
          "type": "uint256"
        }
      ],
      "stateMutability": "nonpayable",
      "type": "function"
    },
    {
      "inputs": [
        {
          "internalType": "address",
          "name": "pool",
          "type": "address"
        }
      ],
      "name": "withdraw",
      "outputs": [],
      "stateMutability": "nonpayable",
      "type": "function"
    }
  ],
  "bytecode": "0x60806040523480156200001157600080fd5b5060405162006f5038038062006f50833981810160405281019062000037919062000117565b80600160006101000a81548173ffffffffffffffffffffffffffffffffffffffff021916908373ffffffffffffffffffffffffffffffffffffffff160217905550336000806101000a81548173ffffffffffffffffffffffffffffffffffffffff021916908373ffffffffffffffffffffffffffffffffffffffff16021790555030600960016101000a81548173ffffffffffffffffffffffffffffffffffffffff021916908373ffffffffffffffffffffffffffffffffffffffff1602179055505062000191565b600081519050620001118162000177565b92915050565b6000602082840312156200012a57600080fd5b60006200013a8482850162000100565b91505092915050565b6000620001508262000157565b9050919050565b600073ffffffffffffffffffffffffffffffffffffffff82169050919050565b620001828162000143565b81146200018e57600080fd5b50565b616daf80620001a16000396000f3fe608060405234801561001057600080fd5b50600436106103ba5760003560e01c8063807896d5116101f4578063bbf8cf821161011a578063da35c664116100ad578063ec342ad01161007c578063ec342ad014610c06578063f1b591d614610c24578063f38a2fa114610c54578063f794062e14610c84576103ba565b8063da35c66414610b6a578063dab249b314610b88578063e38c7dcc14610bb8578063e53bea9714610be8576103ba565b8063c42b3f7d116100e9578063c42b3f7d14610aa9578063cb7bdbc014610ad9578063d0ad170914610b0a578063d145836314610b3a576103ba565b8063bbf8cf8214610a0d578063c05fc17814610a3d578063c1b8411a14610a6d578063c1c1d21814610a8b576103ba565b8063a230c52411610192578063ae887c8b11610161578063ae887c8b14610983578063b93ec54b146109b3578063b99b0a0c146109d1578063bb258e6b146109ef576103ba565b8063a230c524146108e9578063a2eea1bc14610919578063a6c83fed14610935578063abb6154f14610965576103ba565b806398e4439a116101ce57806398e4439a1461087157806398fabd3a1461088f5780639c552f04146108ad5780639d2cc436146108cb576103ba565b8063807896d514610805578063929f60d014610835578063956615be14610853576103ba565b8063436f80be116102e45780635c120b371161027757806367afe7e91161024657806367afe7e91461078d5780636b92a3b6146107ab57806379b2dc4c146107c95780637b0e5c45146107e7576103ba565b80635c120b37146106f35780635c7366d3146107235780635ded8b061461075357806364ca935d1461076f576103ba565b806347e7ef24116102b357806347e7ef241461066f5780634b193e231461068b5780634b400034146106a757806351cff8d9146106d7576103ba565b8063436f80be146105e957806346350821146106195780634636279f146106355780634641257d14610665576103ba565b80632c07eebf1161035c57806338da7dd61161032b57806338da7dd61461053b5780633a61738d146105595780633b4d01a7146105895780633f68fde4146105b9576103ba565b80632c07eebf1461049f578063314604fe146104bd57806332fe7b26146104ed578063343598081461050b576103ba565b806325a7f9081161039857806325a7f90814610405578063293cee7d146104215780632957b839146104515780632bee11941461046f576103ba565b806303a82138146103bf57806311aee380146103c957806324efb528146103e7575b600080fd5b6103c7610cb4565b005b6103d1610d4f565b6040516103de9190616448565b60405180910390f35b6103ef610d5c565b6040516103fc9190616191565b60405180910390f35b61041f600480360381019061041a919061591c565b610d6f565b005b61043b6004803603810190610436919061588c565b6111b2565b6040516104489190616448565b60405180910390f35b6104596112b1565b6040516104669190616448565b60405180910390f35b61048960048036038101906104849190615b89565b6112b7565b6040516104969190616191565b60405180910390f35b6104a76112d7565b6040516104b49190616448565b60405180910390f35b6104d760048036038101906104d29190615b89565b6112dd565b6040516104e49190616531565b60405180910390f35b6104f5611300565b6040516105029190616218565b60405180910390f35b610525600480360381019061052091906159bd565b6113e7565b6040516105329190616191565b60405180910390f35b6105436114a3565b60405161055091906161c7565b60405180910390f35b610573600480360381019061056e91906157b0565b61158a565b6040516105809190616448565b60405180910390f35b6105a3600480360381019061059e9190615b89565b611895565b6040516105b09190616426565b60405180910390f35b6105d360048036038101906105ce9190615b89565b611a88565b6040516105e09190616448565b60405180910390f35b61060360048036038101906105fe9190615b89565b611c68565b60405161061091906160b6565b60405180910390f35b610633600480360381019061062e91906157d9565b611ca7565b005b61064f600480360381019061064a91906157b0565b611d85565b60405161065c9190616448565b60405180910390f35b61066d611e97565b005b610689600480360381019061068491906158e0565b61205b565b005b6106a560048036038101906106a09190615b89565b61206a565b005b6106c160048036038101906106bc9190615b89565b6126ee565b6040516106ce9190616191565b60405180910390f35b6106f160048036038101906106ec91906157b0565b61270e565b005b61070d60048036038101906107089190615b89565b6127ff565b60405161071a9190616191565b60405180910390f35b61073d600480360381019061073891906157b0565b6128fc565b60405161074a9190616448565b60405180910390f35b61076d60048036038101906107689190615c17565b612914565b005b610777612c70565b60405161078491906161ac565b60405180910390f35b610795612c96565b6040516107a291906161e2565b60405180910390f35b6107b3612cbc565b6040516107c09190616448565b60405180910390f35b6107d1612cc2565b6040516107de9190616448565b60405180910390f35b6107ef612cc8565b6040516107fc919061624e565b60405180910390f35b61081f600480360381019061081a9190615b89565b612daf565b60405161082c9190616448565b60405180910390f35b61083d613115565b60405161084a91906161c7565b60405180910390f35b61085b61313b565b6040516108689190616448565b60405180910390f35b610879613141565b6040516108869190616218565b60405180910390f35b610897613167565b6040516108a491906160b6565b60405180910390f35b6108b561318d565b6040516108c291906161fd565b60405180910390f35b6108d36131b3565b6040516108e091906161fd565b60405180910390f35b61090360048036038101906108fe91906157b0565b61329a565b6040516109109190616191565b60405180910390f35b610933600480360381019061092e9190615815565b6132ba565b005b61094f600480360381019061094a91906158e0565b61345e565b60405161095c9190616448565b60405180910390f35b61096d6135f9565b60405161097a9190616448565b60405180910390f35b61099d60048036038101906109989190615b89565b6135ff565b6040516109aa91906160b6565b60405180910390f35b6109bb613632565b6040516109c89190616233565b60405180910390f35b6109d9613719565b6040516109e691906161e2565b60405180910390f35b6109f7613800565b604051610a04919061624e565b60405180910390f35b610a276004803603810190610a229190615b89565b613826565b604051610a349190616191565b60405180910390f35b610a576004803603810190610a529190615b89565b613915565b604051610a649190616269565b60405180910390f35b610a756139b5565b604051610a8291906160b6565b60405180910390f35b610a936139d9565b604051610aa091906161ac565b60405180910390f35b610ac36004803603810190610abe9190615bdb565b613ac0565b604051610ad09190616448565b60405180910390f35b610af36004803603810190610aee9190615b89565b613ae5565b604051610b01929190616131565b60405180910390f35b610b246004803603810190610b1f9190615b89565b613b29565b604051610b319190616191565b60405180910390f35b610b546004803603810190610b4f9190615b48565b613c18565b604051610b619190616448565b60405180910390f35b610b72613cc2565b604051610b7f9190616448565b60405180910390f35b610ba26004803603810190610b9d9190615b89565b613cc8565b604051610baf9190616448565b60405180910390f35b610bd26004803603810190610bcd9190615b89565b613ce0565b604051610bdf9190616448565b60405180910390f35b610bf0613cf8565b604051610bfd9190616233565b60405180910390f35b610c0e613d1e565b604051610c1b91906160b6565b60405180910390f35b610c3e6004803603810190610c399190615b89565b613d44565b604051610c4b919061640b565b60405180910390f35b610c6e6004803603810190610c699190615c53565b613ddf565b604051610c7b9190616448565b60405180910390f35b610c9e6004803603810190610c9991906157b0565b613ebe565b604051610cab9190616191565b60405180910390f35b60008054906101000a900473ffffffffffffffffffffffffffffffffffffffff1673ffffffffffffffffffffffffffffffffffffffff163373ffffffffffffffffffffffffffffffffffffffff1614610d0c57600080fd5b60008060006101000a81548173ffffffffffffffffffffffffffffffffffffffff021916908373ffffffffffffffffffffffffffffffffffffffff160217905550565b6000601180549050905090565b600960009054906101000a900460ff1681565b60011515600e60009054906101000a900473ffffffffffffffffffffffffffffffffffffffff1673ffffffffffffffffffffffffffffffffffffffff16638dcb4c93856040518263ffffffff1660e01b8152600401610dce91906160b6565b60206040518083038186803b158015610de657600080fd5b505afa158015610dfa573d6000803e3d6000fd5b505050506040513d601f19601f82011682018060405250810190610e1e919061596b565b151514610e60576040517f08c379a0000000000000000000000000000000000000000000000000000000008152600401610e579061636b565b60405180910390fd5b60008211610ea3576040517f08c379a0000000000000000000000000000000000000000000000000000000008152600401610e9a9061628b565b60405180910390fd5b60011515601260008373ffffffffffffffffffffffffffffffffffffffff1673ffffffffffffffffffffffffffffffffffffffff16815260200190815260200160002060009054906101000a900460ff16151514610fb7576011339080600181540180825580915050600190039060005260206000200160009091909190916101000a81548173ffffffffffffffffffffffffffffffffffffffff021916908373ffffffffffffffffffffffffffffffffffffffff1602179055506001601260008373ffffffffffffffffffffffffffffffffffffffff1673ffffffffffffffffffffffffffffffffffffffff16815260200190815260200160002060006101000a81548160ff0219169083151502179055505b6000600d60009054906101000a900473ffffffffffffffffffffffffffffffffffffffff1673ffffffffffffffffffffffffffffffffffffffff16635364df49836040518263ffffffff1660e01b815260040161101491906160b6565b60206040518083038186803b15801561102c57600080fd5b505afa158015611040573d6000803e3d6000fd5b505050506040513d601f19601f820116820180604052508101906110649190615bb2565b111561107357611072611e97565b5b600d60009054906101000a900473ffffffffffffffffffffffffffffffffffffffff1673ffffffffffffffffffffffffffffffffffffffff166346dafa2f8484846040518463ffffffff1660e01b81526004016110d29392919061615a565b600060405180830381600087803b1580156110ec57600080fd5b505af1158015611100573d6000803e3d6000fd5b5050505042601460008373ffffffffffffffffffffffffffffffffffffffff1673ffffffffffffffffffffffffffffffffffffffff168152602001908152602001600020819055508273ffffffffffffffffffffffffffffffffffffffff168173ffffffffffffffffffffffffffffffffffffffff167f5f9b5a75581a29d72b32414a5df7f1ef124b7787b38616fb8fdcad76179127c2846040516111a59190616448565b60405180910390a3505050565b60006111bc613ede565b506001600460008282546111d09190616616565b925050819055508260166000600454815260200190815260200160002060006101000a81548173ffffffffffffffffffffffffffffffffffffffff021916908373ffffffffffffffffffffffffffffffffffffffff16021790555081601860006004548152602001908152602001600020908051906020019061125492919061549d565b506004543373ffffffffffffffffffffffffffffffffffffffff167f8d500fcad86fc64a281b94ef64d6d66acbfc6862aa4ff2ee5fbbfb40736e803e8460405161129e9190616269565b60405180910390a3600454905092915050565b60085481565b601c6020528060005260406000206000915054906101000a900460ff1681565b60065481565b60156020528060005260406000206000915054906101000a900463ffffffff1681565b6000600960009054906101000a900460ff16156113be57600960019054906101000a900473ffffffffffffffffffffffffffffffffffffffff1673ffffffffffffffffffffffffffffffffffffffff166332fe7b266040518163ffffffff1660e01b815260040160206040518083038186803b15801561137f57600080fd5b505afa158015611393573d6000803e3d6000fd5b505050506040513d601f19601f820116820180604052508101906113b79190615acd565b90506113e4565b600a60009054906101000a900473ffffffffffffffffffffffffffffffffffffffff1690505b90565b60006002826040516113f9919061609f565b602060405180830381855afa158015611416573d6000803e3d6000fd5b5050506040513d601f19601f820116820180604052508101906114399190615994565b600284604051611449919061609f565b602060405180830381855afa158015611466573d6000803e3d6000fd5b5050506040513d601f19601f820116820180604052508101906114899190615994565b1415611498576001905061149d565b600090505b92915050565b6000600960009054906101000a900460ff161561156157600960019054906101000a900473ffffffffffffffffffffffffffffffffffffffff1673ffffffffffffffffffffffffffffffffffffffff166338da7dd66040518163ffffffff1660e01b815260040160206040518083038186803b15801561152257600080fd5b505afa158015611536573d6000803e3d6000fd5b505050506040513d601f19601f8201168201806040525081019061155a9190615a52565b9050611587565b600d60009054906101000a900473ffffffffffffffffffffffffffffffffffffffff1690505b90565b600080600d60009054906101000a900473ffffffffffffffffffffffffffffffffffffffff1673ffffffffffffffffffffffffffffffffffffffff16635364df49846040518263ffffffff1660e01b81526004016115e891906160b6565b60206040518083038186803b15801561160057600080fd5b505afa158015611614573d6000803e3d6000fd5b505050506040513d601f19601f820116820180604052508101906116389190615bb2565b90506000600d60009054906101000a900473ffffffffffffffffffffffffffffffffffffffff1673ffffffffffffffffffffffffffffffffffffffff166396c82e576040518163ffffffff1660e01b815260040160206040518083038186803b1580156116a457600080fd5b505afa1580156116b8573d6000803e3d6000fd5b505050506040513d601f19601f820116820180604052508101906116dc9190615bb2565b90506000600654600160009054906101000a900473ffffffffffffffffffffffffffffffffffffffff1673ffffffffffffffffffffffffffffffffffffffff166370a08231601060009054906101000a900473ffffffffffffffffffffffffffffffffffffffff166040518263ffffffff1660e01b815260040161176091906160b6565b60206040518083038186803b15801561177857600080fd5b505afa15801561178c573d6000803e3d6000fd5b505050506040513d601f19601f820116820180604052508101906117b09190615bb2565b6117ba919061666c565b90506000612710600754836117cf919061669d565b6117d9919061666c565b9050600b60009054906101000a900473ffffffffffffffffffffffffffffffffffffffff1673ffffffffffffffffffffffffffffffffffffffff16631ba326c48585846040518463ffffffff1660e01b815260040161183a939291906164fa565b60206040518083038186803b15801561185257600080fd5b505afa158015611866573d6000803e3d6000fd5b505050506040513d601f19601f8201168201806040525081019061188a9190615bb2565b945050505050919050565b61189d615523565b818160000181815250506018600083815260200190815260200160002080546118c590616949565b80601f01602080910402602001604051908101604052809291908181526020018280546118f190616949565b801561193e5780601f106119135761010080835404028352916020019161193e565b820191906000526020600020905b81548152906001019060200180831161192157829003601f168201915b505050505081602001819052506019600083815260200190815260200160002054816040018181525050601a600083815260200190815260200160002054816060018181525050601b600083815260200190815260200160002060009054906101000a900460ff16816080019015159081151581525050601c600083815260200190815260200160002060009054906101000a900460ff168160a00190151590811515815250506015600083815260200190815260200160002060009054906101000a900463ffffffff1663ffffffff168160c00181815250506016600083815260200190815260200160002060009054906101000a900473ffffffffffffffffffffffffffffffffffffffff168160e0019073ffffffffffffffffffffffffffffffffffffffff16908173ffffffffffffffffffffffffffffffffffffffff1681525050919050565b600080601860008481526020019081526020016000208054611aa990616949565b80601f0160208091040260200160405190810160405280929190818152602001828054611ad590616949565b8015611b225780601f10611af757610100808354040283529160200191611b22565b820191906000526020600020905b815481529060010190602001808311611b0557829003601f168201915b50505050509050601d600084815260200190815260200160002060003373ffffffffffffffffffffffffffffffffffffffff1673ffffffffffffffffffffffffffffffffffffffff16815260200190815260200160002054915081601960008581526020019081526020016000206000828254611b9f91906166f7565b925050819055506000601d600085815260200190815260200160002060003373ffffffffffffffffffffffffffffffffffffffff1673ffffffffffffffffffffffffffffffffffffffff16815260200190815260200160002081905550823373ffffffffffffffffffffffffffffffffffffffff167f70a6ab6ed794c2ceb8df59b7bb4e317e9b215d9ce74b88161ca5af2a5a801d6f84601960008881526020019081526020016000205485604051611c5a939291906164bc565b60405180910390a350919050565b60118181548110611c7857600080fd5b906000526020600020016000915054906101000a900473ffffffffffffffffffffffffffffffffffffffff1681565b60008054906101000a900473ffffffffffffffffffffffffffffffffffffffff1673ffffffffffffffffffffffffffffffffffffffff163373ffffffffffffffffffffffffffffffffffffffff1614611cff57600080fd5b81600e60006101000a81548173ffffffffffffffffffffffffffffffffffffffff021916908373ffffffffffffffffffffffffffffffffffffffff16021790555080600f60006101000a81548173ffffffffffffffffffffffffffffffffffffffff021916908373ffffffffffffffffffffffffffffffffffffffff1602179055505050565b6000601260008373ffffffffffffffffffffffffffffffffffffffff1673ffffffffffffffffffffffffffffffffffffffff16815260200190815260200160002060009054906101000a900460ff16611e13576040517f08c379a0000000000000000000000000000000000000000000000000000000008152600401611e0a9061632b565b60405180910390fd5b6000601460008473ffffffffffffffffffffffffffffffffffffffff1673ffffffffffffffffffffffffffffffffffffffff1681526020019081526020016000205442611e6091906166f7565b90506000611e6d8461158a565b905060006002548383611e80919061669d565b611e8a919061666c565b9050809350505050919050565b601060009054906101000a900473ffffffffffffffffffffffffffffffffffffffff1673ffffffffffffffffffffffffffffffffffffffff16632267716c6040518163ffffffff1660e01b8152600401602060405180830381600087803b158015611f0157600080fd5b505af1158015611f15573d6000803e3d6000fd5b505050506040513d601f19601f82011682018060405250810190611f39919061596b565b611f78576040517f08c379a0000000000000000000000000000000000000000000000000000000008152600401611f6f906162eb565b60405180910390fd5b6000611f8333611d85565b905042601460003373ffffffffffffffffffffffffffffffffffffffff1673ffffffffffffffffffffffffffffffffffffffff16815260200190815260200160002081905550601060009054906101000a900473ffffffffffffffffffffffffffffffffffffffff1673ffffffffffffffffffffffffffffffffffffffff16637d458baa82336040518363ffffffff1660e01b8152600401612026929190616463565b600060405180830381600087803b15801561204057600080fd5b505af1158015612054573d6000803e3d6000fd5b5050505050565b612066828233610d6f565b5050565b600354601a6000838152602001908152602001600020544261208c91906166f7565b116120cc576040517f08c379a00000000000000000000000000000000000000000000000000000000081526004016120c39061634b565b60405180910390fd5b60011515601b600083815260200190815260200160002060009054906101000a900460ff16151514612133576040517f08c379a000000000000000000000000000000000000000000000000000000000815260040161212a9061630b565b60405180910390fd5b61213c81613826565b612171576000601b600083815260200190815260200160002060006101000a81548160ff0219169083151502179055506126eb565b600060186000838152602001908152602001600020805461219190616949565b80601f01602080910402602001604051908101604052809291908181526020018280546121bd90616949565b801561220a5780601f106121df5761010080835404028352916020019161220a565b820191906000526020600020905b8154815290600101906020018083116121ed57829003601f168201915b50505050509050612250816040518060400160405280600381526020017f44414f00000000000000000000000000000000000000000000000000000000008152506113e7565b156122635761225e82614013565b6126e9565b6122a2816040518060400160405280600681526020017f524f5554455200000000000000000000000000000000000000000000000000008152506113e7565b156122b5576122b082614205565b6126e8565b6122f4816040518060400160405280600581526020017f5554494c530000000000000000000000000000000000000000000000000000008152506113e7565b1561230757612302826142fb565b6126e7565b612346816040518060400160405280600781526020017f52455345525645000000000000000000000000000000000000000000000000008152506113e7565b1561235957612354826143f1565b6126e6565b612398816040518060400160405280600e81526020017f464c49505f454d495353494f4e530000000000000000000000000000000000008152506113e7565b156123ab576123a6826144e7565b6126e5565b6123ea816040518060400160405280600881526020017f434f4f4c5f4f46460000000000000000000000000000000000000000000000008152506113e7565b156123fd576123f882614596565b6126e4565b61243c816040518060400160405280600c81526020017f455241535f544f5f4541524e00000000000000000000000000000000000000008152506113e7565b1561244f5761244a82614622565b6126e3565b61248e816040518060400160405280600581526020017f4752414e540000000000000000000000000000000000000000000000000000008152506113e7565b156124a15761249c826146ae565b6126e2565b6124e0816040518060400160405280600a81526020017f4745545f535041525441000000000000000000000000000000000000000000008152506113e7565b156124f3576124ee826147d4565b6126e1565b612532816040518060400160405280600981526020017f4c4953545f424f4e4400000000000000000000000000000000000000000000008152506113e7565b1561254557612540826148a2565b6126e0565b612584816040518060400160405280600b81526020017f44454c4953545f424f4e440000000000000000000000000000000000000000008152506113e7565b156125975761259282614995565b6126df565b6125d6816040518060400160405280601081526020017f4144445f435552415445445f504f4f4c000000000000000000000000000000008152506113e7565b156125e9576125e482614af8565b6126de565b612628816040518060400160405280601381526020017f52454d4f56455f435552415445445f504f4f4c000000000000000000000000008152506113e7565b1561263b5761263682614c5b565b6126dd565b61267a816040518060400160405280600e81526020017f4645455f41525241595f53495a450000000000000000000000000000000000008152506113e7565b1561268d5761268882614dbe565b6126dc565b6126cc816040518060400160405280600a81526020017f4d41585f545241444553000000000000000000000000000000000000000000008152506113e7565b156126db576126da82614ea7565b5b5b5b5b5b5b5b5b5b5b5b5b5b5b5b505b50565b601b6020528060005260406000206000915054906101000a900460ff1681565b600d60009054906101000a900473ffffffffffffffffffffffffffffffffffffffff1673ffffffffffffffffffffffffffffffffffffffff1663f940e38582336040518363ffffffff1660e01b815260040161276b9291906160d1565b602060405180830381600087803b15801561278557600080fd5b505af1158015612799573d6000803e3d6000fd5b505050506040513d601f19601f820116820180604052508101906127bd919061596b565b6127fc576040517f08c379a00000000000000000000000000000000000000000000000000000000081526004016127f3906163ab565b60405180910390fd5b50565b600080601960008481526020019081526020016000205490506000600d60009054906101000a900473ffffffffffffffffffffffffffffffffffffffff1673ffffffffffffffffffffffffffffffffffffffff166396c82e576040518163ffffffff1660e01b815260040160206040518083038186803b15801561288257600080fd5b505afa158015612896573d6000803e3d6000fd5b505050506040513d601f19601f820116820180604052508101906128ba9190615bb2565b90506000612710600554836128cf919061669d565b6128d9919061666c565b9050808311156128ef57600193505050506128f7565b600093505050505b919050565b60146020528060005260406000206000915090505481565b601b600083815260200190815260200160002060009054906101000a900460ff16612974576040517f08c379a000000000000000000000000000000000000000000000000000000000815260040161296b9061630b565b60405180910390fd5b61297d81613b29565b6129bc576040517f08c379a00000000000000000000000000000000000000000000000000000000081526004016129b3906163cb565b60405180910390fd5b612afc6018600084815260200190815260200160002080546129dd90616949565b80601f0160208091040260200160405190810160405280929190818152602001828054612a0990616949565b8015612a565780601f10612a2b57610100808354040283529160200191612a56565b820191906000526020600020905b815481529060010190602001808311612a3957829003601f168201915b5050505050601860008481526020019081526020016000208054612a7990616949565b80601f0160208091040260200160405190810160405280929190818152602001828054612aa590616949565b8015612af25780601f10612ac757610100808354040283529160200191612af2565b820191906000526020600020905b815481529060010190602001808311612ad557829003601f168201915b50505050506113e7565b612b3b576040517f08c379a0000000000000000000000000000000000000000000000000000000008152600401612b329061638b565b60405180910390fd5b60006019600084815260200190815260200160002081905550813373ffffffffffffffffffffffffffffffffffffffff167f0e67c2e72a9ea22e5d163549aebce99ddc3d1fbbc58e7ed196b0e88f458847d960196000868152602001908152602001600020546019600086815260200190815260200160002054600d60009054906101000a900473ffffffffffffffffffffffffffffffffffffffff1673ffffffffffffffffffffffffffffffffffffffff166396c82e576040518163ffffffff1660e01b815260040160206040518083038186803b158015612c1d57600080fd5b505afa158015612c31573d6000803e3d6000fd5b505050506040513d601f19601f82011682018060405250810190612c559190615bb2565b604051612c64939291906164fa565b60405180910390a35050565b600c60009054906101000a900473ffffffffffffffffffffffffffffffffffffffff1681565b600e60009054906101000a900473ffffffffffffffffffffffffffffffffffffffff1681565b60025481565b60075481565b6000600960009054906101000a900460ff1615612d8657600960019054906101000a900473ffffffffffffffffffffffffffffffffffffffff1673ffffffffffffffffffffffffffffffffffffffff16637b0e5c456040518163ffffffff1660e01b815260040160206040518083038186803b158015612d4757600080fd5b505afa158015612d5b573d6000803e3d6000fd5b505050506040513d601f19601f82011682018060405250810190612d7f9190615b1f565b9050612dac565b600b60009054906101000a900473ffffffffffffffffffffffffffffffffffffffff1690505b90565b600080601860008481526020019081526020016000208054612dd090616949565b80601f0160208091040260200160405190810160405280929190818152602001828054612dfc90616949565b8015612e495780601f10612e1e57610100808354040283529160200191612e49565b820191906000526020600020905b815481529060010190602001808311612e2c57829003601f168201915b50505050509050612e5983614f90565b9150612e6483613826565b8015612e94575060001515601b600085815260200190815260200160002060009054906101000a900460ff161515145b156130a957612ed8816040518060400160405280600381526020017f44414f00000000000000000000000000000000000000000000000000000000008152506113e7565b80612f1e5750612f1d816040518060400160405280600581526020017f5554494c530000000000000000000000000000000000000000000000000000008152506113e7565b5b80612f645750612f63816040518060400160405280600981526020017f494e43454e5449564500000000000000000000000000000000000000000000008152506113e7565b5b80612faa5750612fa9816040518060400160405280600981526020017f4c4953545f424f4e4400000000000000000000000000000000000000000000008152506113e7565b5b80612ff05750612fef816040518060400160405280600581526020017f4752414e540000000000000000000000000000000000000000000000000000008152506113e7565b5b806130365750613035816040518060400160405280600a81526020017f4745545f535041525441000000000000000000000000000000000000000000008152506113e7565b5b8061307c575061307b816040518060400160405280601081526020017f4144445f435552415445445f504f4f4c000000000000000000000000000000008152506113e7565b5b1561309e5761308a836127ff565b15613099576130988361513d565b5b6130a8565b6130a78361513d565b5b5b823373ffffffffffffffffffffffffffffffffffffffff167f4d46d88c7e981a5bf4572a83b5d88bcfefbd5ee6ca8df0588e27c4221a43640784601960008881526020019081526020016000205485604051613107939291906164bc565b60405180910390a350919050565b600d60009054906101000a900473ffffffffffffffffffffffffffffffffffffffff1681565b60055481565b600a60009054906101000a900473ffffffffffffffffffffffffffffffffffffffff1681565b600960019054906101000a900473ffffffffffffffffffffffffffffffffffffffff1681565b601060009054906101000a900473ffffffffffffffffffffffffffffffffffffffff1681565b6000600960009054906101000a900460ff161561327157600960019054906101000a900473ffffffffffffffffffffffffffffffffffffffff1673ffffffffffffffffffffffffffffffffffffffff16639d2cc4366040518163ffffffff1660e01b815260040160206040518083038186803b15801561323257600080fd5b505afa158015613246573d6000803e3d6000fd5b505050506040513d601f19601f8201168201806040525081019061326a9190615aa4565b9050613297565b601060009054906101000a900473ffffffffffffffffffffffffffffffffffffffff1690505b90565b60126020528060005260406000206000915054906101000a900460ff1681565b60008054906101000a900473ffffffffffffffffffffffffffffffffffffffff1673ffffffffffffffffffffffffffffffffffffffff163373ffffffffffffffffffffffffffffffffffffffff161461331257600080fd5b84600a60006101000a81548173ffffffffffffffffffffffffffffffffffffffff021916908373ffffffffffffffffffffffffffffffffffffffff16021790555083600b60006101000a81548173ffffffffffffffffffffffffffffffffffffffff021916908373ffffffffffffffffffffffffffffffffffffffff16021790555082600c60006101000a81548173ffffffffffffffffffffffffffffffffffffffff021916908373ffffffffffffffffffffffffffffffffffffffff16021790555081601060006101000a81548173ffffffffffffffffffffffffffffffffffffffff021916908373ffffffffffffffffffffffffffffffffffffffff16021790555080600d60006101000a81548173ffffffffffffffffffffffffffffffffffffffff021916908373ffffffffffffffffffffffffffffffffffffffff1602179055505050505050565b6000613468613ede565b5060006040518060400160405280600581526020017f4752414e5400000000000000000000000000000000000000000000000000000081525090506001600460008282546134b69190616616565b925050819055508060186000600454815260200190815260200160002090805190602001906134e692919061549d565b506134ef615582565b84816000019073ffffffffffffffffffffffffffffffffffffffff16908173ffffffffffffffffffffffffffffffffffffffff1681525050838160200181815250508060176000600454815260200190815260200160002060008201518160000160006101000a81548173ffffffffffffffffffffffffffffffffffffffff021916908373ffffffffffffffffffffffffffffffffffffffff160217905550602082015181600101559050506004543373ffffffffffffffffffffffffffffffffffffffff167f8d500fcad86fc64a281b94ef64d6d66acbfc6862aa4ff2ee5fbbfb40736e803e846040516135e49190616269565b60405180910390a36004549250505092915050565b60035481565b60166020528060005260406000206000915054906101000a900473ffffffffffffffffffffffffffffffffffffffff1681565b6000600960009054906101000a900460ff16156136f057600960019054906101000a900473ffffffffffffffffffffffffffffffffffffffff1673ffffffffffffffffffffffffffffffffffffffff1663b93ec54b6040518163ffffffff1660e01b815260040160206040518083038186803b1580156136b157600080fd5b505afa1580156136c5573d6000803e3d6000fd5b505050506040513d601f19601f820116820180604052508101906136e99190615af6565b9050613716565b600f60009054906101000a900473ffffffffffffffffffffffffffffffffffffffff1690505b90565b6000600960009054906101000a900460ff16156137d757600960019054906101000a900473ffffffffffffffffffffffffffffffffffffffff1673ffffffffffffffffffffffffffffffffffffffff1663b99b0a0c6040518163ffffffff1660e01b815260040160206040518083038186803b15801561379857600080fd5b505afa1580156137ac573d6000803e3d6000fd5b505050506040513d601f19601f820116820180604052508101906137d09190615a7b565b90506137fd565b600e60009054906101000a900473ffffffffffffffffffffffffffffffffffffffff1690505b90565b600b60009054906101000a900473ffffffffffffffffffffffffffffffffffffffff1681565b600080601960008481526020019081526020016000205490506000600d60009054906101000a900473ffffffffffffffffffffffffffffffffffffffff1673ffffffffffffffffffffffffffffffffffffffff166396c82e576040518163ffffffff1660e01b815260040160206040518083038186803b1580156138a957600080fd5b505afa1580156138bd573d6000803e3d6000fd5b505050506040513d601f19601f820116820180604052508101906138e19190615bb2565b905060006003826138f2919061666c565b9050808311156139085760019350505050613910565b600093505050505b919050565b6018602052806000526040600020600091509050805461393490616949565b80601f016020809104026020016040519081016040528092919081815260200182805461396090616949565b80156139ad5780601f10613982576101008083540402835291602001916139ad565b820191906000526020600020905b81548152906001019060200180831161399057829003601f168201915b505050505081565b60008054906101000a900473ffffffffffffffffffffffffffffffffffffffff1681565b6000600960009054906101000a900460ff1615613a9757600960019054906101000a900473ffffffffffffffffffffffffffffffffffffffff1673ffffffffffffffffffffffffffffffffffffffff1663c1c1d2186040518163ffffffff1660e01b815260040160206040518083038186803b158015613a5857600080fd5b505afa158015613a6c573d6000803e3d6000fd5b505050506040513d601f19601f82011682018060405250810190613a909190615a29565b9050613abd565b600c60009054906101000a900473ffffffffffffffffffffffffffffffffffffffff1690505b90565b601d602052816000526040600020602052806000526040600020600091509150505481565b60176020528060005260406000206000915090508060000160009054906101000a900473ffffffffffffffffffffffffffffffffffffffff16908060010154905082565b600080601960008481526020019081526020016000205490506000600d60009054906101000a900473ffffffffffffffffffffffffffffffffffffffff1673ffffffffffffffffffffffffffffffffffffffff166396c82e576040518163ffffffff1660e01b815260040160206040518083038186803b158015613bac57600080fd5b505afa158015613bc0573d6000803e3d6000fd5b505050506040513d601f19601f82011682018060405250810190613be49190615bb2565b90506000600682613bf5919061666c565b905080831115613c0b5760019350505050613c13565b600093505050505b919050565b6000613c22613ede565b50600160046000828254613c369190616616565b92505081905550816018600060045481526020019081526020016000209080519060200190613c6692919061549d565b506004543373ffffffffffffffffffffffffffffffffffffffff167f8d500fcad86fc64a281b94ef64d6d66acbfc6862aa4ff2ee5fbbfb40736e803e84604051613cb09190616269565b60405180910390a36004549050919050565b60045481565b60196020528060005260406000206000915090505481565b601a6020528060005260406000206000915090505481565b600f60009054906101000a900473ffffffffffffffffffffffffffffffffffffffff1681565b600160009054906101000a900473ffffffffffffffffffffffffffffffffffffffff1681565b613d4c615582565b6017600083815260200190815260200160002060000160009054906101000a900473ffffffffffffffffffffffffffffffffffffffff16816000019073ffffffffffffffffffffffffffffffffffffffff16908173ffffffffffffffffffffffffffffffffffffffff16815250506017600083815260200190815260200160002060010154816020018181525050919050565b6000613de9613ede565b50600160046000828254613dfd9190616616565b925050819055508260156000600454815260200190815260200160002060006101000a81548163ffffffff021916908363ffffffff160217905550816018600060045481526020019081526020016000209080519060200190613e6192919061549d565b506004543373ffffffffffffffffffffffffffffffffffffffff167f8d500fcad86fc64a281b94ef64d6d66acbfc6862aa4ff2ee5fbbfb40736e803e84604051613eab9190616269565b60405180910390a3600454905092915050565b60136020528060005260406000206000915054906101000a900460ff1681565b600080670de0b6b3a7640000600854613ef7919061669d565b9050600160009054906101000a900473ffffffffffffffffffffffffffffffffffffffff1673ffffffffffffffffffffffffffffffffffffffff166323b872dd33600a60009054906101000a900473ffffffffffffffffffffffffffffffffffffffff16846040518463ffffffff1660e01b8152600401613f7a939291906160fa565b602060405180830381600087803b158015613f9457600080fd5b505af1158015613fa8573d6000803e3d6000fd5b505050506040513d601f19601f82011682018060405250810190613fcc919061596b565b61400b576040517f08c379a0000000000000000000000000000000000000000000000000000000008152600401614002906162ab565b60405180910390fd5b600191505090565b60006016600083815260200190815260200160002060009054906101000a900473ffffffffffffffffffffffffffffffffffffffff169050600073ffffffffffffffffffffffffffffffffffffffff168173ffffffffffffffffffffffffffffffffffffffff1614156140bb576040517f08c379a00000000000000000000000000000000000000000000000000000000081526004016140b2906163eb565b60405180910390fd5b6016600083815260200190815260200160002060009054906101000a900473ffffffffffffffffffffffffffffffffffffffff16600960016101000a81548173ffffffffffffffffffffffffffffffffffffffff021916908373ffffffffffffffffffffffffffffffffffffffff160217905550600160009054906101000a900473ffffffffffffffffffffffffffffffffffffffff1673ffffffffffffffffffffffffffffffffffffffff16631d007f5f826040518263ffffffff1660e01b815260040161418a91906160b6565b602060405180830381600087803b1580156141a457600080fd5b505af11580156141b8573d6000803e3d6000fd5b505050506040513d601f19601f820116820180604052508101906141dc919061596b565b506001600960006101000a81548160ff02191690831515021790555061420182615283565b5050565b60006016600083815260200190815260200160002060009054906101000a900473ffffffffffffffffffffffffffffffffffffffff169050600073ffffffffffffffffffffffffffffffffffffffff168173ffffffffffffffffffffffffffffffffffffffff1614156142ad576040517f08c379a00000000000000000000000000000000000000000000000000000000081526004016142a4906163eb565b60405180910390fd5b80600a60006101000a81548173ffffffffffffffffffffffffffffffffffffffff021916908373ffffffffffffffffffffffffffffffffffffffff1602179055506142f782615283565b5050565b60006016600083815260200190815260200160002060009054906101000a900473ffffffffffffffffffffffffffffffffffffffff169050600073ffffffffffffffffffffffffffffffffffffffff168173ffffffffffffffffffffffffffffffffffffffff1614156143a3576040517f08c379a000000000000000000000000000000000000000000000000000000000815260040161439a906163eb565b60405180910390fd5b80600b60006101000a81548173ffffffffffffffffffffffffffffffffffffffff021916908373ffffffffffffffffffffffffffffffffffffffff1602179055506143ed82615283565b5050565b60006016600083815260200190815260200160002060009054906101000a900473ffffffffffffffffffffffffffffffffffffffff169050600073ffffffffffffffffffffffffffffffffffffffff168173ffffffffffffffffffffffffffffffffffffffff161415614499576040517f08c379a0000000000000000000000000000000000000000000000000000000008152600401614490906163eb565b60405180910390fd5b80601060006101000a81548173ffffffffffffffffffffffffffffffffffffffff021916908373ffffffffffffffffffffffffffffffffffffffff1602179055506144e382615283565b5050565b600160009054906101000a900473ffffffffffffffffffffffffffffffffffffffff1673ffffffffffffffffffffffffffffffffffffffff1663fe1fa8fa6040518163ffffffff1660e01b8152600401602060405180830381600087803b15801561455157600080fd5b505af1158015614565573d6000803e3d6000fd5b505050506040513d601f19601f82011682018060405250810190614589919061596b565b5061459381615283565b50565b60006015600083815260200190815260200160002060009054906101000a900463ffffffff16905060008163ffffffff161415614608576040517f08c379a00000000000000000000000000000000000000000000000000000000081526004016145ff906162cb565b60405180910390fd5b8063ffffffff1660038190555061461e82615283565b5050565b60006015600083815260200190815260200160002060009054906101000a900463ffffffff16905060008163ffffffff161415614694576040517f08c379a000000000000000000000000000000000000000000000000000000000815260040161468b906162cb565b60405180910390fd5b8063ffffffff166006819055506146aa82615283565b5050565b6000601760008381526020019081526020016000206040518060400160405290816000820160009054906101000a900473ffffffffffffffffffffffffffffffffffffffff1673ffffffffffffffffffffffffffffffffffffffff1673ffffffffffffffffffffffffffffffffffffffff1681526020016001820154815250509050601060009054906101000a900473ffffffffffffffffffffffffffffffffffffffff1673ffffffffffffffffffffffffffffffffffffffff16637d458baa826020015183600001516040518363ffffffff1660e01b8152600401614795929190616463565b600060405180830381600087803b1580156147af57600080fd5b505af11580156147c3573d6000803e3d6000fd5b505050506147d082615283565b5050565b60006a0422ca8b0a00a4250000009050600160009054906101000a900473ffffffffffffffffffffffffffffffffffffffff1673ffffffffffffffffffffffffffffffffffffffff1663d01f6fba82600c60009054906101000a900473ffffffffffffffffffffffffffffffffffffffff166040518363ffffffff1660e01b8152600401614863929190616463565b600060405180830381600087803b15801561487d57600080fd5b505af1158015614891573d6000803e3d6000fd5b5050505061489e82615283565b5050565b60006016600083815260200190815260200160002060009054906101000a900473ffffffffffffffffffffffffffffffffffffffff169050600c60009054906101000a900473ffffffffffffffffffffffffffffffffffffffff1673ffffffffffffffffffffffffffffffffffffffff16639cd99aa2826040518263ffffffff1660e01b815260040161493591906160b6565b602060405180830381600087803b15801561494f57600080fd5b505af1158015614963573d6000803e3d6000fd5b505050506040513d601f19601f82011682018060405250810190614987919061596b565b5061499182615283565b5050565b60006016600083815260200190815260200160002060009054906101000a900473ffffffffffffffffffffffffffffffffffffffff169050600073ffffffffffffffffffffffffffffffffffffffff168173ffffffffffffffffffffffffffffffffffffffff161415614a3d576040517f08c379a0000000000000000000000000000000000000000000000000000000008152600401614a34906163eb565b60405180910390fd5b600c60009054906101000a900473ffffffffffffffffffffffffffffffffffffffff1673ffffffffffffffffffffffffffffffffffffffff1663db634d7c826040518263ffffffff1660e01b8152600401614a9891906160b6565b602060405180830381600087803b158015614ab257600080fd5b505af1158015614ac6573d6000803e3d6000fd5b505050506040513d601f19601f82011682018060405250810190614aea919061596b565b50614af482615283565b5050565b60006016600083815260200190815260200160002060009054906101000a900473ffffffffffffffffffffffffffffffffffffffff169050600073ffffffffffffffffffffffffffffffffffffffff168173ffffffffffffffffffffffffffffffffffffffff161415614ba0576040517f08c379a0000000000000000000000000000000000000000000000000000000008152600401614b97906163eb565b60405180910390fd5b600e60009054906101000a900473ffffffffffffffffffffffffffffffffffffffff1673ffffffffffffffffffffffffffffffffffffffff16632b2260a8826040518263ffffffff1660e01b8152600401614bfb91906160b6565b602060405180830381600087803b158015614c1557600080fd5b505af1158015614c29573d6000803e3d6000fd5b505050506040513d601f19601f82011682018060405250810190614c4d919061596b565b50614c5782615283565b5050565b60006016600083815260200190815260200160002060009054906101000a900473ffffffffffffffffffffffffffffffffffffffff169050600073ffffffffffffffffffffffffffffffffffffffff168173ffffffffffffffffffffffffffffffffffffffff161415614d03576040517f08c379a0000000000000000000000000000000000000000000000000000000008152600401614cfa906163eb565b60405180910390fd5b600e60009054906101000a900473ffffffffffffffffffffffffffffffffffffffff1673ffffffffffffffffffffffffffffffffffffffff16637ca51fbf826040518263ffffffff1660e01b8152600401614d5e91906160b6565b602060405180830381600087803b158015614d7857600080fd5b505af1158015614d8c573d6000803e3d6000fd5b505050506040513d601f19601f82011682018060405250810190614db0919061596b565b50614dba82615283565b5050565b60006015600083815260200190815260200160002060009054906101000a900463ffffffff1663ffffffff169050600a60009054906101000a900473ffffffffffffffffffffffffffffffffffffffff1673ffffffffffffffffffffffffffffffffffffffff1663ab87d7be826040518263ffffffff1660e01b8152600401614e479190616448565b602060405180830381600087803b158015614e6157600080fd5b505af1158015614e75573d6000803e3d6000fd5b505050506040513d601f19601f82011682018060405250810190614e99919061596b565b50614ea382615283565b5050565b60006015600083815260200190815260200160002060009054906101000a900463ffffffff1663ffffffff169050600a60009054906101000a900473ffffffffffffffffffffffffffffffffffffffff1673ffffffffffffffffffffffffffffffffffffffff1663519fc9c9826040518263ffffffff1660e01b8152600401614f309190616448565b602060405180830381600087803b158015614f4a57600080fd5b505af1158015614f5e573d6000803e3d6000fd5b505050506040513d601f19601f82011682018060405250810190614f82919061596b565b50614f8c82615283565b5050565b6000601d600083815260200190815260200160002060003373ffffffffffffffffffffffffffffffffffffffff1673ffffffffffffffffffffffffffffffffffffffff1681526020019081526020016000205460196000848152602001908152602001600020600082825461500591906166f7565b92505081905550600d60009054906101000a900473ffffffffffffffffffffffffffffffffffffffff1673ffffffffffffffffffffffffffffffffffffffff16635364df49336040518263ffffffff1660e01b815260040161506791906160b6565b60206040518083038186803b15801561507f57600080fd5b505afa158015615093573d6000803e3d6000fd5b505050506040513d601f19601f820116820180604052508101906150b79190615bb2565b9050806019600084815260200190815260200160002060008282546150dc9190616616565b9250508190555080601d600084815260200190815260200160002060003373ffffffffffffffffffffffffffffffffffffffff1673ffffffffffffffffffffffffffffffffffffffff16815260200190815260200160002081905550919050565b600060186000838152602001908152602001600020805461515d90616949565b80601f016020809104026020016040519081016040528092919081815260200182805461518990616949565b80156151d65780601f106151ab576101008083540402835291602001916151d6565b820191906000526020600020905b8154815290600101906020018083116151b957829003601f168201915b505050505090506001601b600084815260200190815260200160002060006101000a81548160ff02191690831515021790555042601a600084815260200190815260200160002081905550813373ffffffffffffffffffffffffffffffffffffffff167f0f36aea5066f9f90a999260fe4ce8d7713f7f07f5ae61bf36d73cc51170a3a9e600354426152689190616616565b8460405161527792919061648c565b60405180910390a35050565b60006018600083815260200190815260200160002080546152a390616949565b80601f01602080910402602001604051908101604052809291908181526020018280546152cf90616949565b801561531c5780601f106152f15761010080835404028352916020019161531c565b820191906000526020600020905b8154815290600101906020018083116152ff57829003601f168201915b50505050509050813373ffffffffffffffffffffffffffffffffffffffff167f28fca9bc3d4a734a707bd9396d50341c1f45e1d455c4aa4a58ceee0e09f645446019600086815260200190815260200160002054600d60009054906101000a900473ffffffffffffffffffffffffffffffffffffffff1673ffffffffffffffffffffffffffffffffffffffff166396c82e576040518163ffffffff1660e01b815260040160206040518083038186803b1580156153d857600080fd5b505afa1580156153ec573d6000803e3d6000fd5b505050506040513d601f19601f820116820180604052508101906154109190615bb2565b85604051615420939291906164bc565b60405180910390a3600060196000848152602001908152602001600020819055506001601c600084815260200190815260200160002060006101000a81548160ff0219169083151502179055506000601b600084815260200190815260200160002060006101000a81548160ff0219169083151502179055505050565b8280546154a990616949565b90600052602060002090601f0160209004810192826154cb5760008555615512565b82601f106154e457805160ff1916838001178555615512565b82800160010185558215615512579182015b828111156155115782518255916020019190600101906154f6565b5b50905061551f91906155b2565b5090565b6040518061010001604052806000815260200160608152602001600081526020016000815260200160001515815260200160001515815260200160008152602001600073ffffffffffffffffffffffffffffffffffffffff1681525090565b6040518060400160405280600073ffffffffffffffffffffffffffffffffffffffff168152602001600081525090565b5b808211156155cb5760008160009055506001016155b3565b5090565b60006155e26155dd84616571565b61654c565b9050828152602081018484840111156155fa57600080fd5b615605848285616907565b509392505050565b600061562061561b846165a2565b61654c565b90508281526020810184848401111561563857600080fd5b615643848285616907565b509392505050565b60008135905061565a81616c65565b92915050565b60008151905061566f81616c7c565b92915050565b60008151905061568481616c93565b92915050565b600082601f83011261569b57600080fd5b81356156ab8482602086016155cf565b91505092915050565b6000815190506156c381616caa565b92915050565b6000815190506156d881616cc1565b92915050565b6000815190506156ed81616cd8565b92915050565b60008151905061570281616cef565b92915050565b60008151905061571781616d06565b92915050565b60008151905061572c81616d1d565b92915050565b60008151905061574181616d34565b92915050565b600082601f83011261575857600080fd5b813561576884826020860161560d565b91505092915050565b60008135905061578081616d4b565b92915050565b60008151905061579581616d4b565b92915050565b6000813590506157aa81616d62565b92915050565b6000602082840312156157c257600080fd5b60006157d08482850161564b565b91505092915050565b600080604083850312156157ec57600080fd5b60006157fa8582860161564b565b925050602061580b8582860161564b565b9150509250929050565b600080600080600060a0868803121561582d57600080fd5b600061583b8882890161564b565b955050602061584c8882890161564b565b945050604061585d8882890161564b565b935050606061586e8882890161564b565b925050608061587f8882890161564b565b9150509295509295909350565b6000806040838503121561589f57600080fd5b60006158ad8582860161564b565b925050602083013567ffffffffffffffff8111156158ca57600080fd5b6158d685828601615747565b9150509250929050565b600080604083850312156158f357600080fd5b60006159018582860161564b565b925050602061591285828601615771565b9150509250929050565b60008060006060848603121561593157600080fd5b600061593f8682870161564b565b935050602061595086828701615771565b92505060406159618682870161564b565b9150509250925092565b60006020828403121561597d57600080fd5b600061598b84828501615660565b91505092915050565b6000602082840312156159a657600080fd5b60006159b484828501615675565b91505092915050565b600080604083850312156159d057600080fd5b600083013567ffffffffffffffff8111156159ea57600080fd5b6159f68582860161568a565b925050602083013567ffffffffffffffff811115615a1357600080fd5b615a1f8582860161568a565b9150509250929050565b600060208284031215615a3b57600080fd5b6000615a49848285016156b4565b91505092915050565b600060208284031215615a6457600080fd5b6000615a72848285016156c9565b91505092915050565b600060208284031215615a8d57600080fd5b6000615a9b848285016156de565b91505092915050565b600060208284031215615ab657600080fd5b6000615ac4848285016156f3565b91505092915050565b600060208284031215615adf57600080fd5b6000615aed84828501615708565b91505092915050565b600060208284031215615b0857600080fd5b6000615b168482850161571d565b91505092915050565b600060208284031215615b3157600080fd5b6000615b3f84828501615732565b91505092915050565b600060208284031215615b5a57600080fd5b600082013567ffffffffffffffff811115615b7457600080fd5b615b8084828501615747565b91505092915050565b600060208284031215615b9b57600080fd5b6000615ba984828501615771565b91505092915050565b600060208284031215615bc457600080fd5b6000615bd284828501615786565b91505092915050565b60008060408385031215615bee57600080fd5b6000615bfc85828601615771565b9250506020615c0d8582860161564b565b9150509250929050565b60008060408385031215615c2a57600080fd5b6000615c3885828601615771565b9250506020615c4985828601615771565b9150509250929050565b60008060408385031215615c6657600080fd5b6000615c748582860161579b565b925050602083013567ffffffffffffffff811115615c9157600080fd5b615c9d85828601615747565b9150509250929050565b615cb08161672b565b82525050565b615cbf8161672b565b82525050565b615cce8161673d565b82525050565b615cdd8161673d565b82525050565b6000615cee826165d3565b615cf881856165e9565b9350615d08818560208601616916565b80840191505092915050565b615d1d8161680b565b82525050565b615d2c8161682f565b82525050565b615d3b81616853565b82525050565b615d4a81616877565b82525050565b615d598161689b565b82525050565b615d68816168bf565b82525050565b615d77816168e3565b82525050565b6000615d88826165de565b615d9281856165f4565b9350615da2818560208601616916565b615dab81616a68565b840191505092915050565b6000615dc1826165de565b615dcb8185616605565b9350615ddb818560208601616916565b615de481616a68565b840191505092915050565b6000615dfc600783616605565b9150615e0782616a79565b602082019050919050565b6000615e1f600483616605565b9150615e2a82616aa2565b602082019050919050565b6000615e42601183616605565b9150615e4d82616acb565b602082019050919050565b6000615e65600a83616605565b9150615e7082616af4565b602082019050919050565b6000615e88600b83616605565b9150615e9382616b1d565b602082019050919050565b6000615eab600783616605565b9150615eb682616b46565b602082019050919050565b6000615ece600983616605565b9150615ed982616b6f565b602082019050919050565b6000615ef1600883616605565b9150615efc82616b98565b602082019050919050565b6000615f14600583616605565b9150615f1f82616bc1565b602082019050919050565b6000615f37600983616605565b9150615f4282616bea565b602082019050919050565b6000615f5a600983616605565b9150615f6582616c13565b602082019050919050565b6000615f7d601383616605565b9150615f8882616c3c565b602082019050919050565b604082016000820151615fa96000850182615ca7565b506020820151615fbc6020850182616072565b50505050565b600061010083016000830151615fdb6000860182616072565b5060208301518482036020860152615ff38282615d7d565b91505060408301516160086040860182616072565b50606083015161601b6060860182616072565b50608083015161602e6080860182615cc5565b5060a083015161604160a0860182615cc5565b5060c083015161605460c0860182616072565b5060e083015161606760e0860182615ca7565b508091505092915050565b61607b816167f1565b82525050565b61608a816167f1565b82525050565b616099816167fb565b82525050565b60006160ab8284615ce3565b915081905092915050565b60006020820190506160cb6000830184615cb6565b92915050565b60006040820190506160e66000830185615cb6565b6160f36020830184615cb6565b9392505050565b600060608201905061610f6000830186615cb6565b61611c6020830185615cb6565b6161296040830184616081565b949350505050565b60006040820190506161466000830185615cb6565b6161536020830184616081565b9392505050565b600060608201905061616f6000830186615cb6565b61617c6020830185616081565b6161896040830184615cb6565b949350505050565b60006020820190506161a66000830184615cd4565b92915050565b60006020820190506161c16000830184615d14565b92915050565b60006020820190506161dc6000830184615d23565b92915050565b60006020820190506161f76000830184615d32565b92915050565b60006020820190506162126000830184615d41565b92915050565b600060208201905061622d6000830184615d50565b92915050565b60006020820190506162486000830184615d5f565b92915050565b60006020820190506162636000830184615d6e565b92915050565b600060208201905081810360008301526162838184615db6565b905092915050565b600060208201905081810360008301526162a481615def565b9050919050565b600060208201905081810360008301526162c481615e12565b9050919050565b600060208201905081810360008301526162e481615e35565b9050919050565b6000602082019050818103600083015261630481615e58565b9050919050565b6000602082019050818103600083015261632481615e7b565b9050919050565b6000602082019050818103600083015261634481615e9e565b9050919050565b6000602082019050818103600083015261636481615ec1565b9050919050565b6000602082019050818103600083015261638481615ee4565b9050919050565b600060208201905081810360008301526163a481615f07565b9050919050565b600060208201905081810360008301526163c481615f2a565b9050919050565b600060208201905081810360008301526163e481615f4d565b9050919050565b6000602082019050818103600083015261640481615f70565b9050919050565b60006040820190506164206000830184615f93565b92915050565b600060208201905081810360008301526164408184615fc2565b905092915050565b600060208201905061645d6000830184616081565b92915050565b60006040820190506164786000830185616081565b6164856020830184615cb6565b9392505050565b60006040820190506164a16000830185616081565b81810360208301526164b38184615db6565b90509392505050565b60006060820190506164d16000830186616081565b6164de6020830185616081565b81810360408301526164f08184615db6565b9050949350505050565b600060608201905061650f6000830186616081565b61651c6020830185616081565b6165296040830184616081565b949350505050565b60006020820190506165466000830184616090565b92915050565b6000616556616567565b9050616562828261697b565b919050565b6000604051905090565b600067ffffffffffffffff82111561658c5761658b616a39565b5b61659582616a68565b9050602081019050919050565b600067ffffffffffffffff8211156165bd576165bc616a39565b5b6165c682616a68565b9050602081019050919050565b600081519050919050565b600081519050919050565b600081905092915050565b600082825260208201905092915050565b600082825260208201905092915050565b6000616621826167f1565b915061662c836167f1565b9250827fffffffffffffffffffffffffffffffffffffffffffffffffffffffffffffffff03821115616661576166606169ac565b5b828201905092915050565b6000616677826167f1565b9150616682836167f1565b925082616692576166916169db565b5b828204905092915050565b60006166a8826167f1565b91506166b3836167f1565b9250817fffffffffffffffffffffffffffffffffffffffffffffffffffffffffffffffff04831182151516156166ec576166eb6169ac565b5b828202905092915050565b6000616702826167f1565b915061670d836167f1565b9250828210156167205761671f6169ac565b5b828203905092915050565b6000616736826167d1565b9050919050565b60008115159050919050565b6000819050919050565b600061675e8261672b565b9050919050565b60006167708261672b565b9050919050565b60006167828261672b565b9050919050565b60006167948261672b565b9050919050565b60006167a68261672b565b9050919050565b60006167b88261672b565b9050919050565b60006167ca8261672b565b9050919050565b600073ffffffffffffffffffffffffffffffffffffffff82169050919050565b6000819050919050565b600063ffffffff82169050919050565b60006168168261681d565b9050919050565b6000616828826167d1565b9050919050565b600061683a82616841565b9050919050565b600061684c826167d1565b9050919050565b600061685e82616865565b9050919050565b6000616870826167d1565b9050919050565b600061688282616889565b9050919050565b6000616894826167d1565b9050919050565b60006168a6826168ad565b9050919050565b60006168b8826167d1565b9050919050565b60006168ca826168d1565b9050919050565b60006168dc826167d1565b9050919050565b60006168ee826168f5565b9050919050565b6000616900826167d1565b9050919050565b82818337600083830152505050565b60005b83811015616934578082015181840152602081019050616919565b83811115616943576000848401525b50505050565b6000600282049050600182168061696157607f821691505b6020821081141561697557616974616a0a565b5b50919050565b61698482616a68565b810181811067ffffffffffffffff821117156169a3576169a2616a39565b5b80604052505050565b7f4e487b7100000000000000000000000000000000000000000000000000000000600052601160045260246000fd5b7f4e487b7100000000000000000000000000000000000000000000000000000000600052601260045260246000fd5b7f4e487b7100000000000000000000000000000000000000000000000000000000600052602260045260246000fd5b7f4e487b7100000000000000000000000000000000000000000000000000000000600052604160045260246000fd5b6000601f19601f8301169050919050565b7f21416d6f756e7400000000000000000000000000000000000000000000000000600082015250565b7f2166656500000000000000000000000000000000000000000000000000000000600082015250565b7f4e6f20706172616d2070726f706f736564000000000000000000000000000000600082015250565b7f21454d495353494f4e5300000000000000000000000000000000000000000000600082015250565b7f2166696e616c6973696e67000000000000000000000000000000000000000000600082015250565b7f216d656d62657200000000000000000000000000000000000000000000000000600082015250565b7f21636f6f6c206f66660000000000000000000000000000000000000000000000600082015250565b7f2143757261746564000000000000000000000000000000000000000000000000600082015250565b7f2173616d65000000000000000000000000000000000000000000000000000000600082015250565b7f217472616e736665720000000000000000000000000000000000000000000000600082015250565b7f216d696e6f726974790000000000000000000000000000000000000000000000600082015250565b7f4e6f20616464726573732070726f706f73656400000000000000000000000000600082015250565b616c6e8161672b565b8114616c7957600080fd5b50565b616c858161673d565b8114616c9057600080fd5b50565b616c9c81616749565b8114616ca757600080fd5b50565b616cb381616753565b8114616cbe57600080fd5b50565b616cca81616765565b8114616cd557600080fd5b50565b616ce181616777565b8114616cec57600080fd5b50565b616cf881616789565b8114616d0357600080fd5b50565b616d0f8161679b565b8114616d1a57600080fd5b50565b616d26816167ad565b8114616d3157600080fd5b50565b616d3d816167bf565b8114616d4857600080fd5b50565b616d54816167f1565b8114616d5f57600080fd5b50565b616d6b816167fb565b8114616d7657600080fd5b5056fea2646970667358221220ea840769ed4895625dd03b68a49294a880fa296d9d4dcdeae74aa9f5edbb274a64736f6c63430008030033",
  "linkReferences": {},
  "deployedLinkReferences": {}
}