{
  "_format": "hh-sol-artifact-1",
  "contractName": "Dao",
  "sourceName": "contracts/Dao.sol",
  "abi": [
    {
      "inputs": [
        {
          "internalType": "address",
          "name": "_base",
          "type": "address"
        }
      ],
      "stateMutability": "nonpayable",
      "type": "constructor"
    },
    {
      "anonymous": false,
      "inputs": [
        {
          "indexed": true,
          "internalType": "address",
          "name": "member",
          "type": "address"
        },
        {
          "indexed": true,
          "internalType": "uint256",
          "name": "proposalID",
          "type": "uint256"
        }
      ],
      "name": "CancelProposal",
      "type": "event"
    },
    {
      "anonymous": false,
      "inputs": [
        {
          "indexed": true,
          "internalType": "address",
          "name": "owner",
          "type": "address"
        },
        {
          "indexed": false,
          "internalType": "uint256",
          "name": "depositAmount",
          "type": "uint256"
        },
        {
          "indexed": false,
          "internalType": "uint256",
          "name": "bondedLP",
          "type": "uint256"
        }
      ],
      "name": "DepositAsset",
      "type": "event"
    },
    {
      "anonymous": false,
      "inputs": [
        {
          "indexed": true,
          "internalType": "address",
          "name": "member",
          "type": "address"
        },
        {
          "indexed": true,
          "internalType": "uint256",
          "name": "proposalID",
          "type": "uint256"
        },
        {
          "indexed": false,
          "internalType": "string",
          "name": "proposalType",
          "type": "string"
        }
      ],
      "name": "FinalisedProposal",
      "type": "event"
    },
    {
      "anonymous": false,
      "inputs": [
        {
          "indexed": true,
          "internalType": "address",
          "name": "member",
          "type": "address"
        },
        {
          "indexed": true,
          "internalType": "address",
          "name": "pool",
          "type": "address"
        },
        {
          "indexed": false,
          "internalType": "uint256",
          "name": "amount",
          "type": "uint256"
        }
      ],
      "name": "MemberDeposits",
      "type": "event"
    },
    {
      "anonymous": false,
      "inputs": [
        {
          "indexed": true,
          "internalType": "address",
          "name": "member",
          "type": "address"
        },
        {
          "indexed": true,
          "internalType": "address",
          "name": "pool",
          "type": "address"
        },
        {
          "indexed": false,
          "internalType": "uint256",
          "name": "balance",
          "type": "uint256"
        }
      ],
      "name": "MemberWithdraws",
      "type": "event"
    },
    {
      "anonymous": false,
      "inputs": [
        {
          "indexed": true,
          "internalType": "address",
          "name": "member",
          "type": "address"
        },
        {
          "indexed": true,
          "internalType": "uint256",
          "name": "proposalID",
          "type": "uint256"
        },
        {
          "indexed": false,
          "internalType": "string",
          "name": "proposalType",
          "type": "string"
        }
      ],
      "name": "NewProposal",
      "type": "event"
    },
    {
      "anonymous": false,
      "inputs": [
        {
          "indexed": true,
          "internalType": "address",
          "name": "member",
          "type": "address"
        },
        {
          "indexed": true,
          "internalType": "uint256",
          "name": "proposalID",
          "type": "uint256"
        },
        {
          "indexed": false,
          "internalType": "string",
          "name": "proposalType",
          "type": "string"
        }
      ],
      "name": "NewVote",
      "type": "event"
    },
    {
      "anonymous": false,
      "inputs": [
        {
          "indexed": true,
          "internalType": "address",
          "name": "member",
          "type": "address"
        },
        {
          "indexed": true,
          "internalType": "uint256",
          "name": "proposalID",
          "type": "uint256"
        },
        {
          "indexed": false,
          "internalType": "uint256",
          "name": "timeFinalised",
          "type": "uint256"
        },
        {
          "indexed": false,
          "internalType": "string",
          "name": "proposalType",
          "type": "string"
        }
      ],
      "name": "ProposalFinalising",
      "type": "event"
    },
    {
      "anonymous": false,
      "inputs": [
        {
          "indexed": true,
          "internalType": "address",
          "name": "member",
          "type": "address"
        },
        {
          "indexed": true,
          "internalType": "uint256",
          "name": "proposalID",
          "type": "uint256"
        },
        {
          "indexed": false,
          "internalType": "string",
          "name": "proposalType",
          "type": "string"
        }
      ],
      "name": "RemovedVote",
      "type": "event"
    },
    {
      "inputs": [],
      "name": "BASE",
      "outputs": [
        {
          "internalType": "address",
          "name": "",
          "type": "address"
        }
      ],
      "stateMutability": "view",
      "type": "function"
    },
    {
      "inputs": [],
      "name": "BONDVAULT",
      "outputs": [
        {
          "internalType": "contract iBONDVAULT",
          "name": "",
          "type": "address"
        }
      ],
      "stateMutability": "view",
      "type": "function"
    },
    {
      "inputs": [],
      "name": "DAO",
      "outputs": [
        {
          "internalType": "address",
          "name": "",
          "type": "address"
        }
      ],
      "stateMutability": "view",
      "type": "function"
    },
    {
      "inputs": [],
      "name": "DAOVAULT",
      "outputs": [
        {
          "internalType": "contract iDAOVAULT",
          "name": "",
          "type": "address"
        }
      ],
      "stateMutability": "view",
      "type": "function"
    },
    {
      "inputs": [],
      "name": "DEPLOYER",
      "outputs": [
        {
          "internalType": "address",
          "name": "",
          "type": "address"
        }
      ],
      "stateMutability": "view",
      "type": "function"
    },
    {
      "inputs": [],
      "name": "LEND",
      "outputs": [
        {
          "internalType": "contract iLEND",
          "name": "",
          "type": "address"
        }
      ],
      "stateMutability": "view",
      "type": "function"
    },
    {
      "inputs": [],
      "name": "POOLFACTORY",
      "outputs": [
        {
          "internalType": "contract iPOOLFACTORY",
          "name": "",
          "type": "address"
        }
      ],
      "stateMutability": "view",
      "type": "function"
    },
    {
      "inputs": [],
      "name": "RESERVE",
      "outputs": [
        {
          "internalType": "contract iRESERVE",
          "name": "",
          "type": "address"
        }
      ],
      "stateMutability": "view",
      "type": "function"
    },
    {
      "inputs": [],
      "name": "ROUTER",
      "outputs": [
        {
          "internalType": "contract iROUTER",
          "name": "",
          "type": "address"
        }
      ],
      "stateMutability": "view",
      "type": "function"
    },
    {
      "inputs": [],
      "name": "SYNTHFACTORY",
      "outputs": [
        {
          "internalType": "contract iSYNTHFACTORY",
          "name": "",
          "type": "address"
        }
      ],
      "stateMutability": "view",
      "type": "function"
    },
    {
      "inputs": [],
      "name": "SYNTHVAULT",
      "outputs": [
        {
          "internalType": "contract iSYNTHVAULT",
          "name": "",
          "type": "address"
        }
      ],
      "stateMutability": "view",
      "type": "function"
    },
    {
      "inputs": [],
      "name": "UTILS",
      "outputs": [
        {
          "internalType": "contract iUTILS",
          "name": "",
          "type": "address"
        }
      ],
      "stateMutability": "view",
      "type": "function"
    },
    {
      "inputs": [
        {
          "internalType": "uint256",
          "name": "",
          "type": "uint256"
        }
      ],
      "name": "arrayMembers",
      "outputs": [
        {
          "internalType": "address",
          "name": "",
          "type": "address"
        }
      ],
      "stateMutability": "view",
      "type": "function"
    },
    {
      "inputs": [
        {
          "internalType": "address",
          "name": "asset",
          "type": "address"
        },
        {
          "internalType": "uint256",
          "name": "amount",
          "type": "uint256"
        }
      ],
      "name": "bond",
      "outputs": [
        {
          "internalType": "bool",
          "name": "success",
          "type": "bool"
        }
      ],
      "stateMutability": "payable",
      "type": "function"
    },
    {
      "inputs": [
        {
          "internalType": "address",
          "name": "member",
          "type": "address"
        }
      ],
      "name": "calcCurrentReward",
      "outputs": [
        {
          "internalType": "uint256",
          "name": "",
          "type": "uint256"
        }
      ],
      "stateMutability": "view",
      "type": "function"
    },
    {
      "inputs": [
        {
          "internalType": "address",
          "name": "member",
          "type": "address"
        }
      ],
      "name": "calcReward",
      "outputs": [
        {
          "internalType": "uint256",
          "name": "",
          "type": "uint256"
        }
      ],
      "stateMutability": "view",
      "type": "function"
    },
    {
      "inputs": [],
      "name": "cancelPeriod",
      "outputs": [
        {
          "internalType": "uint256",
          "name": "",
          "type": "uint256"
        }
      ],
      "stateMutability": "view",
      "type": "function"
    },
    {
      "inputs": [],
      "name": "cancelProposal",
      "outputs": [],
      "stateMutability": "nonpayable",
      "type": "function"
    },
    {
      "inputs": [
        {
          "internalType": "address",
          "name": "bondAsset",
          "type": "address"
        }
      ],
      "name": "claim",
      "outputs": [],
      "stateMutability": "nonpayable",
      "type": "function"
    },
    {
      "inputs": [],
      "name": "coolOffPeriod",
      "outputs": [
        {
          "internalType": "uint256",
          "name": "",
          "type": "uint256"
        }
      ],
      "stateMutability": "view",
      "type": "function"
    },
    {
      "inputs": [],
      "name": "currentProposal",
      "outputs": [
        {
          "internalType": "uint256",
          "name": "",
          "type": "uint256"
        }
      ],
      "stateMutability": "view",
      "type": "function"
    },
    {
      "inputs": [],
      "name": "daoClaim",
      "outputs": [
        {
          "internalType": "uint256",
          "name": "",
          "type": "uint256"
        }
      ],
      "stateMutability": "view",
      "type": "function"
    },
    {
      "inputs": [],
      "name": "daoFee",
      "outputs": [
        {
          "internalType": "uint256",
          "name": "",
          "type": "uint256"
        }
      ],
      "stateMutability": "view",
      "type": "function"
    },
    {
      "inputs": [],
      "name": "daoHasMoved",
      "outputs": [
        {
          "internalType": "bool",
          "name": "",
          "type": "bool"
        }
      ],
      "stateMutability": "view",
      "type": "function"
    },
    {
      "inputs": [
        {
          "internalType": "address",
          "name": "pool",
          "type": "address"
        },
        {
          "internalType": "uint256",
          "name": "amount",
          "type": "uint256"
        }
      ],
      "name": "deposit",
      "outputs": [],
      "stateMutability": "nonpayable",
      "type": "function"
    },
    {
      "inputs": [],
      "name": "erasToEarn",
      "outputs": [
        {
          "internalType": "uint256",
          "name": "",
          "type": "uint256"
        }
      ],
      "stateMutability": "view",
      "type": "function"
    },
    {
      "inputs": [],
      "name": "finaliseProposal",
      "outputs": [],
      "stateMutability": "nonpayable",
      "type": "function"
    },
    {
      "inputs": [
        {
          "internalType": "uint256",
          "name": "proposal",
          "type": "uint256"
        },
        {
          "internalType": "address",
          "name": "asset",
          "type": "address"
        }
      ],
      "name": "getProposalAssetVotes",
      "outputs": [
        {
          "internalType": "uint256",
          "name": "",
          "type": "uint256"
        }
      ],
      "stateMutability": "view",
      "type": "function"
    },
    {
      "inputs": [
        {
          "internalType": "uint256",
          "name": "proposalID",
          "type": "uint256"
        }
      ],
      "name": "getProposalDetails",
      "outputs": [
        {
          "components": [
            {
              "internalType": "uint256",
              "name": "id",
              "type": "uint256"
            },
            {
              "internalType": "string",
              "name": "proposalType",
              "type": "string"
            },
            {
              "internalType": "uint256",
              "name": "votes",
              "type": "uint256"
            },
            {
              "internalType": "uint256",
              "name": "coolOffTime",
              "type": "uint256"
            },
            {
              "internalType": "bool",
              "name": "finalising",
              "type": "bool"
            },
            {
              "internalType": "bool",
              "name": "finalised",
              "type": "bool"
            },
            {
              "internalType": "uint256",
              "name": "param",
              "type": "uint256"
            },
            {
              "internalType": "address",
              "name": "proposedAddress",
              "type": "address"
            },
            {
              "internalType": "bool",
              "name": "open",
              "type": "bool"
            },
            {
              "internalType": "uint256",
              "name": "startTime",
              "type": "uint256"
            }
          ],
          "internalType": "struct Dao.ProposalDetails",
          "name": "proposalDetails",
          "type": "tuple"
        }
      ],
      "stateMutability": "view",
      "type": "function"
    },
    {
      "inputs": [],
      "name": "harvest",
      "outputs": [],
      "stateMutability": "nonpayable",
      "type": "function"
    },
    {
      "inputs": [
        {
          "internalType": "uint256",
          "name": "_proposalID",
          "type": "uint256"
        }
      ],
      "name": "hasMajority",
      "outputs": [
        {
          "internalType": "bool",
          "name": "",
          "type": "bool"
        }
      ],
      "stateMutability": "view",
      "type": "function"
    },
    {
      "inputs": [
        {
          "internalType": "uint256",
          "name": "_proposalID",
          "type": "uint256"
        }
      ],
      "name": "hasQuorum",
      "outputs": [
        {
          "internalType": "bool",
          "name": "",
          "type": "bool"
        }
      ],
      "stateMutability": "view",
      "type": "function"
    },
    {
      "inputs": [
        {
          "internalType": "address",
          "name": "",
          "type": "address"
        }
      ],
      "name": "isMember",
      "outputs": [
        {
          "internalType": "bool",
          "name": "",
          "type": "bool"
        }
      ],
      "stateMutability": "view",
      "type": "function"
    },
    {
      "inputs": [],
      "name": "majorityFactor",
      "outputs": [
        {
          "internalType": "uint256",
          "name": "",
          "type": "uint256"
        }
      ],
      "stateMutability": "view",
      "type": "function"
    },
    {
      "inputs": [
        {
          "internalType": "address",
          "name": "",
          "type": "address"
        }
      ],
      "name": "mapMember_lastTime",
      "outputs": [
        {
          "internalType": "uint256",
          "name": "",
          "type": "uint256"
        }
      ],
      "stateMutability": "view",
      "type": "function"
    },
    {
      "inputs": [
        {
          "internalType": "uint256",
          "name": "",
          "type": "uint256"
        }
      ],
      "name": "mapPID_address",
      "outputs": [
        {
          "internalType": "address",
          "name": "",
          "type": "address"
        }
      ],
      "stateMutability": "view",
      "type": "function"
    },
    {
      "inputs": [
        {
          "internalType": "uint256",
          "name": "",
          "type": "uint256"
        }
      ],
      "name": "mapPID_coolOffTime",
      "outputs": [
        {
          "internalType": "uint256",
          "name": "",
          "type": "uint256"
        }
      ],
      "stateMutability": "view",
      "type": "function"
    },
    {
      "inputs": [
        {
          "internalType": "uint256",
          "name": "",
          "type": "uint256"
        }
      ],
      "name": "mapPID_finalised",
      "outputs": [
        {
          "internalType": "bool",
          "name": "",
          "type": "bool"
        }
      ],
      "stateMutability": "view",
      "type": "function"
    },
    {
      "inputs": [
        {
          "internalType": "uint256",
          "name": "",
          "type": "uint256"
        }
      ],
      "name": "mapPID_finalising",
      "outputs": [
        {
          "internalType": "bool",
          "name": "",
          "type": "bool"
        }
      ],
      "stateMutability": "view",
      "type": "function"
    },
    {
      "inputs": [
        {
          "internalType": "uint256",
          "name": "",
          "type": "uint256"
        }
      ],
      "name": "mapPID_open",
      "outputs": [
        {
          "internalType": "bool",
          "name": "",
          "type": "bool"
        }
      ],
      "stateMutability": "view",
      "type": "function"
    },
    {
      "inputs": [
        {
          "internalType": "uint256",
          "name": "",
          "type": "uint256"
        }
      ],
      "name": "mapPID_param",
      "outputs": [
        {
          "internalType": "uint256",
          "name": "",
          "type": "uint256"
        }
      ],
      "stateMutability": "view",
      "type": "function"
    },
    {
      "inputs": [
        {
          "internalType": "uint256",
          "name": "",
          "type": "uint256"
        }
      ],
      "name": "mapPID_startTime",
      "outputs": [
        {
          "internalType": "uint256",
          "name": "",
          "type": "uint256"
        }
      ],
      "stateMutability": "view",
      "type": "function"
    },
    {
      "inputs": [
        {
          "internalType": "uint256",
          "name": "",
          "type": "uint256"
        }
      ],
      "name": "mapPID_type",
      "outputs": [
        {
          "internalType": "string",
          "name": "",
          "type": "string"
        }
      ],
      "stateMutability": "view",
      "type": "function"
    },
    {
      "inputs": [
        {
          "internalType": "uint256",
          "name": "proposal",
          "type": "uint256"
        },
        {
          "internalType": "address",
          "name": "member",
          "type": "address"
        }
      ],
      "name": "memberVoted",
      "outputs": [
        {
          "internalType": "bool",
          "name": "",
          "type": "bool"
        }
      ],
      "stateMutability": "view",
      "type": "function"
    },
    {
      "inputs": [
        {
          "internalType": "string",
          "name": "typeStr",
          "type": "string"
        }
      ],
      "name": "newActionProposal",
      "outputs": [],
      "stateMutability": "nonpayable",
      "type": "function"
    },
    {
      "inputs": [
        {
          "internalType": "address",
          "name": "proposedAddress",
          "type": "address"
        },
        {
          "internalType": "string",
          "name": "typeStr",
          "type": "string"
        }
      ],
      "name": "newAddressProposal",
      "outputs": [],
      "stateMutability": "nonpayable",
      "type": "function"
    },
    {
      "inputs": [
        {
          "internalType": "address",
          "name": "recipient",
          "type": "address"
        },
        {
          "internalType": "uint256",
          "name": "amount",
          "type": "uint256"
        }
      ],
      "name": "newGrantProposal",
      "outputs": [],
      "stateMutability": "nonpayable",
      "type": "function"
    },
    {
      "inputs": [
        {
          "internalType": "uint256",
          "name": "param",
          "type": "uint256"
        },
        {
          "internalType": "string",
          "name": "typeStr",
          "type": "string"
        }
      ],
      "name": "newParamProposal",
      "outputs": [],
      "stateMutability": "nonpayable",
      "type": "function"
    },
    {
      "inputs": [],
      "name": "pollVotes",
      "outputs": [],
      "stateMutability": "nonpayable",
      "type": "function"
    },
    {
      "inputs": [],
      "name": "purgeDeployer",
      "outputs": [],
      "stateMutability": "nonpayable",
      "type": "function"
    },
    {
      "inputs": [],
      "name": "retire",
      "outputs": [
        {
          "internalType": "bool",
          "name": "",
          "type": "bool"
        }
      ],
      "stateMutability": "view",
      "type": "function"
    },
    {
      "inputs": [],
      "name": "running",
      "outputs": [
        {
          "internalType": "bool",
          "name": "",
          "type": "bool"
        }
      ],
      "stateMutability": "view",
      "type": "function"
    },
    {
      "inputs": [
        {
          "internalType": "uint256",
          "name": "_daoClaim",
          "type": "uint256"
        },
        {
          "internalType": "uint256",
          "name": "_daoFee",
          "type": "uint256"
        },
        {
          "internalType": "bool",
          "name": "_running",
          "type": "bool"
        },
        {
          "internalType": "uint256",
          "name": "_cancelPeriod",
          "type": "uint256"
        }
      ],
      "name": "setDaoFactors",
      "outputs": [],
      "stateMutability": "nonpayable",
      "type": "function"
    },
    {
      "inputs": [
        {
          "internalType": "address",
          "name": "_poolFactory",
          "type": "address"
        },
        {
          "internalType": "address",
          "name": "_synthFactory",
          "type": "address"
        }
      ],
      "name": "setFactoryAddresses",
      "outputs": [],
      "stateMutability": "nonpayable",
      "type": "function"
    },
    {
      "inputs": [
        {
          "internalType": "address",
          "name": "_router",
          "type": "address"
        },
        {
          "internalType": "address",
          "name": "_utils",
          "type": "address"
        },
        {
          "internalType": "address",
          "name": "_reserve",
          "type": "address"
        },
        {
          "internalType": "address",
          "name": "_lend",
          "type": "address"
        }
      ],
      "name": "setGenesisAddresses",
      "outputs": [],
      "stateMutability": "nonpayable",
      "type": "function"
    },
    {
      "inputs": [
        {
          "internalType": "uint256",
          "name": "_coolOff",
          "type": "uint256"
        },
        {
          "internalType": "uint256",
          "name": "_erasToEarn",
          "type": "uint256"
        },
        {
          "internalType": "uint256",
          "name": "_majorityFactor",
          "type": "uint256"
        }
      ],
      "name": "setGenesisFactors",
      "outputs": [],
      "stateMutability": "nonpayable",
      "type": "function"
    },
    {
      "inputs": [
        {
          "internalType": "address",
          "name": "_daovault",
          "type": "address"
        },
        {
          "internalType": "address",
          "name": "_bondvault",
          "type": "address"
        },
        {
          "internalType": "address",
          "name": "_synthVault",
          "type": "address"
        }
      ],
      "name": "setVaultAddresses",
      "outputs": [],
      "stateMutability": "nonpayable",
      "type": "function"
    },
    {
      "inputs": [],
      "name": "unvoteProposal",
      "outputs": [],
      "stateMutability": "nonpayable",
      "type": "function"
    },
    {
      "inputs": [],
      "name": "voteProposal",
      "outputs": [],
      "stateMutability": "nonpayable",
      "type": "function"
    },
    {
      "inputs": [
        {
          "internalType": "address",
          "name": "pool",
          "type": "address"
        }
      ],
      "name": "withdraw",
      "outputs": [],
      "stateMutability": "nonpayable",
      "type": "function"
    }
  ],
  "bytecode": "0x60a06040523480156200001157600080fd5b506040516200a4693803806200a469833981810160405281019062000037919062000116565b60016000819055508073ffffffffffffffffffffffffffffffffffffffff1660808173ffffffffffffffffffffffffffffffffffffffff1660601b8152505033600160006101000a81548173ffffffffffffffffffffffffffffffffffffffff021916908373ffffffffffffffffffffffffffffffffffffffff16021790555030600960016101000a81548173ffffffffffffffffffffffffffffffffffffffff021916908373ffffffffffffffffffffffffffffffffffffffff1602179055505062000190565b600081519050620001108162000176565b92915050565b6000602082840312156200012957600080fd5b60006200013984828501620000ff565b91505092915050565b60006200014f8262000156565b9050919050565b600073ffffffffffffffffffffffffffffffffffffffff82169050919050565b620001818162000142565b81146200018d57600080fd5b50565b60805160601c61a26662000203600039600081816119890152818161215b015281816123a001528181614afd01528181615f3001528181616a2001528181616cc201528181616d9501528181616df40152818161756601528181617744015281816178e60152617b69015261a2666000f3fe6080604052600436106103975760003560e01c806379b2dc4c116101dc578063a6c83fed11610102578063b99b0a0c116100a0578063d14583631161006f578063d145836314610dab578063d85bd52614610dd4578063ec342ad014610dff578063f301e78114610e2a57610397565b8063b99b0a0c14610cdb578063bbf8cf8214610d06578063c05fc17814610d43578063c1b8411a14610d8057610397565b8063ae887c8b116100dc578063ae887c8b14610bf9578063b7407e6a14610c36578063b826286914610c73578063b93ec54b14610cb057610397565b8063a6c83fed14610b8e578063ab2bd8fd14610bb7578063abb6154f14610bce57610397565b806398fabd3a1161017a578063a320224611610149578063a320224614610ae1578063a44c247214610b0a578063a4874d7714610b33578063a515366a14610b5e57610397565b806398fabd3a14610a115780639d2cc43614610a3c578063a230c52414610a67578063a299ecb214610aa457610397565b806385d2b916116101b657806385d2b916146109675780638bebea89146109925780639070577f146109cf578063956615be146109e657610397565b806379b2dc4c146108fa5780637b0e5c45146109255780638351739a1461095057610397565b80633b4d01a7116102c157806347e7ef241161025f5780635c7366d31161022e5780635c7366d3146108665780635f9384fc146108a3578063682454ed146108ba57806373758988146108d157610397565b806347e7ef241461079a5780634b400034146107c357806351cff8d9146108005780635c120b371461082957610397565b806343b2116f1161029b57806343b2116f146106f4578063463508211461071d5780634636279f146107465780634641257d1461078357610397565b80633b4d01a71461063d5780633f3fa3361461067a578063436f80be146106b757610397565b80632bee11941161033957806332fe7b261161030857806332fe7b261461058157806334bc8f45146105ac57806338da7dd6146105d55780633a61738d1461060057610397565b80632bee1194146104b15780632c07eebf146104ee5780632f7fa18014610519578063314604fe1461054457610397565b8063293cee7d11610375578063293cee7d146104075780632957b839146104305780632ab24e491461045b5780632b49d4251461048657610397565b806303a821381461039c5780631e83409a146103b357806324efb528146103dc575b600080fd5b3480156103a857600080fd5b506103b1610e55565b005b3480156103bf57600080fd5b506103da60048036038101906103d59190618696565b610ef3565b005b3480156103e857600080fd5b506103f161108b565b6040516103fe91906192aa565b60405180910390f35b34801561041357600080fd5b5061042e600480360381019061042991906187d6565b61109e565b005b34801561043c57600080fd5b50610445611354565b604051610452919061969c565b60405180910390f35b34801561046757600080fd5b5061047061135a565b60405161047d9190619382565b60405180910390f35b34801561049257600080fd5b5061049b611441565b6040516104a8919061969c565b60405180910390f35b3480156104bd57600080fd5b506104d860048036038101906104d39190618aab565b611447565b6040516104e591906192aa565b60405180910390f35b3480156104fa57600080fd5b50610503611467565b604051610510919061969c565b60405180910390f35b34801561052557600080fd5b5061052e61146d565b60405161053b91906192c5565b60405180910390f35b34801561055057600080fd5b5061056b60048036038101906105669190618aab565b611554565b604051610578919061969c565b60405180910390f35b34801561058d57600080fd5b5061059661156c565b6040516105a3919061934c565b60405180910390f35b3480156105b857600080fd5b506105d360048036038101906105ce9190618c2c565b611653565b005b3480156105e157600080fd5b506105ea6116c7565b6040516105f791906192e0565b60405180910390f35b34801561060c57600080fd5b5061062760048036038101906106229190618696565b6117ae565b604051610634919061969c565b60405180910390f35b34801561064957600080fd5b50610664600480360381019061065f9190618aab565b611b3b565b604051610671919061967a565b60405180910390f35b34801561068657600080fd5b506106a1600480360381019061069c9190618afd565b611d4a565b6040516106ae919061969c565b60405180910390f35b3480156106c357600080fd5b506106de60048036038101906106d99190618aab565b611da5565b6040516106eb91906191cf565b60405180910390f35b34801561070057600080fd5b5061071b60048036038101906107169190618773565b611de4565b005b34801561072957600080fd5b50610744600480360381019061073f91906186e8565b611f48565b005b34801561075257600080fd5b5061076d60048036038101906107689190618696565b612028565b60405161077a919061969c565b60405180910390f35b34801561078f57600080fd5b5061079861221a565b005b3480156107a657600080fd5b506107c160048036038101906107bc919061882a565b61252a565b005b3480156107cf57600080fd5b506107ea60048036038101906107e59190618aab565b6129f0565b6040516107f791906192aa565b60405180910390f35b34801561080c57600080fd5b5061082760048036038101906108229190618696565b612a10565b005b34801561083557600080fd5b50610850600480360381019061084b9190618aab565b612d1e565b60405161085d91906192aa565b60405180910390f35b34801561087257600080fd5b5061088d60048036038101906108889190618696565b613281565b60405161089a919061969c565b60405180910390f35b3480156108af57600080fd5b506108b8613299565b005b3480156108c657600080fd5b506108cf613691565b005b3480156108dd57600080fd5b506108f860048036038101906108f39190618724565b613964565b005b34801561090657600080fd5b5061090f613a86565b60405161091c919061969c565b60405180910390f35b34801561093157600080fd5b5061093a613a8c565b604051610947919061939d565b60405180910390f35b34801561095c57600080fd5b50610965613b73565b005b34801561097357600080fd5b5061097c613f2f565b604051610989919061969c565b60405180910390f35b34801561099e57600080fd5b506109b960048036038101906109b49190618aab565b613f35565b6040516109c691906192aa565b60405180910390f35b3480156109db57600080fd5b506109e4613f55565b005b3480156109f257600080fd5b506109fb61426d565b604051610a08919061969c565b60405180910390f35b348015610a1d57600080fd5b50610a26614273565b604051610a3391906191cf565b60405180910390f35b348015610a4857600080fd5b50610a51614299565b604051610a5e9190619331565b60405180910390f35b348015610a7357600080fd5b50610a8e6004803603810190610a899190618696565b614380565b604051610a9b91906192aa565b60405180910390f35b348015610ab057600080fd5b50610acb6004803603810190610ac69190618aab565b6143a0565b604051610ad8919061969c565b60405180910390f35b348015610aed57600080fd5b50610b086004803603810190610b039190618b39565b6143b8565b005b348015610b1657600080fd5b50610b316004803603810190610b2c9190618bc9565b6144a4565b005b348015610b3f57600080fd5b50610b48614533565b604051610b5591906192aa565b60405180910390f35b610b786004803603810190610b73919061882a565b614546565b604051610b8591906192aa565b60405180910390f35b348015610b9a57600080fd5b50610bb56004803603810190610bb0919061882a565b614a89565b005b348015610bc357600080fd5b50610bcc614d6d565b005b348015610bda57600080fd5b50610be36155e9565b604051610bf0919061969c565b60405180910390f35b348015610c0557600080fd5b50610c206004803603810190610c1b9190618aab565b6155ef565b604051610c2d91906191cf565b60405180910390f35b348015610c4257600080fd5b50610c5d6004803603810190610c589190618afd565b615622565b604051610c6a91906192aa565b60405180910390f35b348015610c7f57600080fd5b50610c9a6004803603810190610c959190618aab565b61568a565b604051610ca7919061969c565b60405180910390f35b348015610cbc57600080fd5b50610cc56156a2565b604051610cd29190619367565b60405180910390f35b348015610ce757600080fd5b50610cf0615789565b604051610cfd9190619316565b60405180910390f35b348015610d1257600080fd5b50610d2d6004803603810190610d289190618aab565b615870565b604051610d3a91906192aa565b60405180910390f35b348015610d4f57600080fd5b50610d6a6004803603810190610d659190618aab565b615dc5565b604051610d7791906193b8565b60405180910390f35b348015610d8c57600080fd5b50610d95615e65565b604051610da291906191cf565b60405180910390f35b348015610db757600080fd5b50610dd26004803603810190610dcd9190618a6a565b615e8b565b005b348015610de057600080fd5b50610de9615f1b565b604051610df691906192aa565b60405180910390f35b348015610e0b57600080fd5b50610e14615f2e565b604051610e2191906191cf565b60405180910390f35b348015610e3657600080fd5b50610e3f615f52565b604051610e4c91906192fb565b60405180910390f35b600160009054906101000a900473ffffffffffffffffffffffffffffffffffffffff1673ffffffffffffffffffffffffffffffffffffffff163373ffffffffffffffffffffffffffffffffffffffff1614610eaf57600080fd5b6000600160006101000a81548173ffffffffffffffffffffffffffffffffffffffff021916908373ffffffffffffffffffffffffffffffffffffffff160217905550565b600160149054906101000a900460ff1615610f43576040517f08c379a0000000000000000000000000000000000000000000000000000000008152600401610f3a906193fa565b60405180910390fd5b600060075490506000601c600083815260200190815260200160002060009054906101000a900460ff168015610fd35750601f600083815260200190815260200160002060003373ffffffffffffffffffffffffffffffffffffffff1673ffffffffffffffffffffffffffffffffffffffff16815260200190815260200160002060009054906101000a900460ff165b90508015610fe657610fe482616039565b505b600c60009054906101000a900473ffffffffffffffffffffffffffffffffffffffff1673ffffffffffffffffffffffffffffffffffffffff166321c0b34284336040518363ffffffff1660e01b81526004016110439291906191ea565b600060405180830381600087803b15801561105d57600080fd5b505af1158015611071573d6000803e3d6000fd5b50505050801561108657611084826163a7565b505b505050565b600960009054906101000a900460ff1681565b60008190506110e2816040518060400160405280600381526020017f44414f0000000000000000000000000000000000000000000000000000000000815250616715565b806111285750611127816040518060400160405280600681526020017f524f555445520000000000000000000000000000000000000000000000000000815250616715565b5b8061116e575061116d816040518060400160405280600581526020017f5554494c53000000000000000000000000000000000000000000000000000000815250616715565b5b806111b457506111b3816040518060400160405280600781526020017f5245534552564500000000000000000000000000000000000000000000000000815250616715565b5b806111fa57506111f9816040518060400160405280600781526020017f5245414c49534500000000000000000000000000000000000000000000000000815250616715565b5b1561127057600073ffffffffffffffffffffffffffffffffffffffff168373ffffffffffffffffffffffffffffffffffffffff16141561126f576040517f08c379a0000000000000000000000000000000000000000000000000000000008152600401611266906195ba565b60405180910390fd5b5b600061127a6167c0565b9050611284616a19565b50836017600083815260200190815260200160002060006101000a81548173ffffffffffffffffffffffffffffffffffffffff021916908373ffffffffffffffffffffffffffffffffffffffff160217905550826018600083815260200190815260200160002090805190602001906112fe929190618336565b50803373ffffffffffffffffffffffffffffffffffffffff167f8d500fcad86fc64a281b94ef64d6d66acbfc6862aa4ff2ee5fbbfb40736e803e8560405161134691906193b8565b60405180910390a350505050565b60065481565b6000600960009054906101000a900460ff161561141857600960019054906101000a900473ffffffffffffffffffffffffffffffffffffffff1673ffffffffffffffffffffffffffffffffffffffff16632ab24e496040518163ffffffff1660e01b815260040160206040518083038186803b1580156113d957600080fd5b505afa1580156113ed573d6000803e3d6000fd5b505050506040513d601f19601f820116820180604052508101906114119190618a18565b905061143e565b601160009054906101000a900473ffffffffffffffffffffffffffffffffffffffff1690505b90565b60075481565b601b6020528060005260406000206000915054906101000a900460ff1681565b60045481565b6000600960009054906101000a900460ff161561152b57600960019054906101000a900473ffffffffffffffffffffffffffffffffffffffff1673ffffffffffffffffffffffffffffffffffffffff16632f7fa1806040518163ffffffff1660e01b815260040160206040518083038186803b1580156114ec57600080fd5b505afa158015611500573d6000803e3d6000fd5b505050506040513d601f19601f8201168201806040525081019061152491906188f9565b9050611551565b600c60009054906101000a900473ffffffffffffffffffffffffffffffffffffffff1690505b90565b60166020528060005260406000206000915090505481565b6000600960009054906101000a900460ff161561162a57600960019054906101000a900473ffffffffffffffffffffffffffffffffffffffff1673ffffffffffffffffffffffffffffffffffffffff166332fe7b266040518163ffffffff1660e01b815260040160206040518083038186803b1580156115eb57600080fd5b505afa1580156115ff573d6000803e3d6000fd5b505050506040513d601f19601f8201168201806040525081019061162391906189c6565b9050611650565b600a60009054906101000a900473ffffffffffffffffffffffffffffffffffffffff1690505b90565b600160009054906101000a900473ffffffffffffffffffffffffffffffffffffffff1673ffffffffffffffffffffffffffffffffffffffff163373ffffffffffffffffffffffffffffffffffffffff16146116ad57600080fd5b826002819055508160048190555080600381905550505050565b6000600960009054906101000a900460ff161561178557600960019054906101000a900473ffffffffffffffffffffffffffffffffffffffff1673ffffffffffffffffffffffffffffffffffffffff166338da7dd66040518163ffffffff1660e01b815260040160206040518083038186803b15801561174657600080fd5b505afa15801561175a573d6000803e3d6000fd5b505050506040513d601f19601f8201168201806040525081019061177e9190618922565b90506117ab565b600d60009054906101000a900473ffffffffffffffffffffffffffffffffffffffff1690505b90565b6000600160149054906101000a900460ff1615611800576040517f08c379a00000000000000000000000000000000000000000000000000000000081526004016117f7906193fa565b60405180910390fd5b600080600d60009054906101000a900473ffffffffffffffffffffffffffffffffffffffff1673ffffffffffffffffffffffffffffffffffffffff1663a477b804856040518263ffffffff1660e01b815260040161185e91906191cf565b604080518083038186803b15801561187557600080fd5b505afa158015611889573d6000803e3d6000fd5b505050506040513d601f19601f820116820180604052508101906118ad9190618b8d565b91509150600080600c60009054906101000a900473ffffffffffffffffffffffffffffffffffffffff1673ffffffffffffffffffffffffffffffffffffffff1663a477b804876040518263ffffffff1660e01b815260040161190f91906191cf565b604080518083038186803b15801561192657600080fd5b505afa15801561193a573d6000803e3d6000fd5b505050506040513d601f19601f8201168201806040525081019061195e9190618b8d565b9150915060008285611970919061987a565b905060008285611980919061987a565b905060006004547f000000000000000000000000000000000000000000000000000000000000000073ffffffffffffffffffffffffffffffffffffffff166370a08231601060009054906101000a900473ffffffffffffffffffffffffffffffffffffffff166040518263ffffffff1660e01b8152600401611a0291906191cf565b60206040518083038186803b158015611a1a57600080fd5b505afa158015611a2e573d6000803e3d6000fd5b505050506040513d601f19601f82011682018060405250810190611a529190618ad4565b611a5c91906198d0565b9050600061271060055483611a719190619901565b611a7b91906198d0565b9050600b60009054906101000a900473ffffffffffffffffffffffffffffffffffffffff1673ffffffffffffffffffffffffffffffffffffffff16631ba326c48585846040518463ffffffff1660e01b8152600401611adc9392919061977e565b60206040518083038186803b158015611af457600080fd5b505afa158015611b08573d6000803e3d6000fd5b505050506040513d601f19601f82011682018060405250810190611b2c9190618ad4565b98505050505050505050919050565b611b436183bc565b81816000018181525050601860008381526020019081526020016000208054611b6b90619c09565b80601f0160208091040260200160405190810160405280929190818152602001828054611b9790619c09565b8015611be45780601f10611bb957610100808354040283529160200191611be4565b820191906000526020600020905b815481529060010190602001808311611bc757829003601f168201915b505050505081602001819052506019600083815260200190815260200160002054816060018181525050601a600083815260200190815260200160002060009054906101000a900460ff16816080019015159081151581525050601b600083815260200190815260200160002060009054906101000a900460ff168160a001901515908115158152505060166000838152602001908152602001600020548160c00181815250506017600083815260200190815260200160002060009054906101000a900473ffffffffffffffffffffffffffffffffffffffff168160e0019073ffffffffffffffffffffffffffffffffffffffff16908173ffffffffffffffffffffffffffffffffffffffff1681525050601c600083815260200190815260200160002060009054906101000a900460ff1681610100019015159081151581525050601d60008381526020019081526020016000205481610120018181525050919050565b6000601e600084815260200190815260200160002060008373ffffffffffffffffffffffffffffffffffffffff1673ffffffffffffffffffffffffffffffffffffffff16815260200190815260200160002054905092915050565b60138181548110611db557600080fd5b906000526020600020016000915054906101000a900473ffffffffffffffffffffffffffffffffffffffff1681565b600160009054906101000a900473ffffffffffffffffffffffffffffffffffffffff1673ffffffffffffffffffffffffffffffffffffffff163373ffffffffffffffffffffffffffffffffffffffff1614611e3e57600080fd5b83600a60006101000a81548173ffffffffffffffffffffffffffffffffffffffff021916908373ffffffffffffffffffffffffffffffffffffffff16021790555082600b60006101000a81548173ffffffffffffffffffffffffffffffffffffffff021916908373ffffffffffffffffffffffffffffffffffffffff16021790555081601060006101000a81548173ffffffffffffffffffffffffffffffffffffffff021916908373ffffffffffffffffffffffffffffffffffffffff16021790555080601260006101000a81548173ffffffffffffffffffffffffffffffffffffffff021916908373ffffffffffffffffffffffffffffffffffffffff16021790555050505050565b600160009054906101000a900473ffffffffffffffffffffffffffffffffffffffff1673ffffffffffffffffffffffffffffffffffffffff163373ffffffffffffffffffffffffffffffffffffffff1614611fa257600080fd5b81600e60006101000a81548173ffffffffffffffffffffffffffffffffffffffff021916908373ffffffffffffffffffffffffffffffffffffffff16021790555080600f60006101000a81548173ffffffffffffffffffffffffffffffffffffffff021916908373ffffffffffffffffffffffffffffffffffffffff1602179055505050565b6000600160149054906101000a900460ff161561207a576040517f08c379a0000000000000000000000000000000000000000000000000000000008152600401612071906193fa565b60405180910390fd5b601560008373ffffffffffffffffffffffffffffffffffffffff1673ffffffffffffffffffffffffffffffffffffffff1681526020019081526020016000205442116120fb576040517f08c379a00000000000000000000000000000000000000000000000000000000081526004016120f29061953a565b60405180910390fd5b6000601560008473ffffffffffffffffffffffffffffffffffffffff1673ffffffffffffffffffffffffffffffffffffffff1681526020019081526020016000205442612148919061995b565b90506000612155846117ae565b905060007f000000000000000000000000000000000000000000000000000000000000000073ffffffffffffffffffffffffffffffffffffffff16636b92a3b66040518163ffffffff1660e01b815260040160206040518083038186803b1580156121bf57600080fd5b505afa1580156121d3573d6000803e3d6000fd5b505050506040513d601f19601f820116820180604052508101906121f79190618ad4565b83836122039190619901565b61220d91906198d0565b9050809350505050919050565b600160149054906101000a900460ff161561226a576040517f08c379a0000000000000000000000000000000000000000000000000000000008152600401612261906193fa565b60405180910390fd5b601060009054906101000a900473ffffffffffffffffffffffffffffffffffffffff1673ffffffffffffffffffffffffffffffffffffffff16632267716c6040518163ffffffff1660e01b8152600401602060405180830381600087803b1580156122d457600080fd5b505af11580156122e8573d6000803e3d6000fd5b505050506040513d601f19601f8201168201806040525081019061230c91906188a7565b61234b576040517f08c379a00000000000000000000000000000000000000000000000000000000081526004016123429061949a565b60405180910390fd5b600061235633612028565b905042601560003373ffffffffffffffffffffffffffffffffffffffff1673ffffffffffffffffffffffffffffffffffffffff1681526020019081526020016000208190555060007f000000000000000000000000000000000000000000000000000000000000000073ffffffffffffffffffffffffffffffffffffffff166370a08231601060009054906101000a900473ffffffffffffffffffffffffffffffffffffffff166040518263ffffffff1660e01b815260040161241991906191cf565b60206040518083038186803b15801561243157600080fd5b505afa158015612445573d6000803e3d6000fd5b505050506040513d601f19601f820116820180604052508101906124699190618ad4565b905060006127106005548361247e9190619901565b61248891906198d0565b905080831115612496578092505b601060009054906101000a900473ffffffffffffffffffffffffffffffffffffffff1673ffffffffffffffffffffffffffffffffffffffff16637d458baa84336040518363ffffffff1660e01b81526004016124f39291906196b7565b600060405180830381600087803b15801561250d57600080fd5b505af1158015612521573d6000803e3d6000fd5b50505050505050565b600160149054906101000a900460ff161561257a576040517f08c379a0000000000000000000000000000000000000000000000000000000008152600401612571906193fa565b60405180910390fd5b600060075490506000601c600083815260200190815260200160002060009054906101000a900460ff16801561260a5750601f600083815260200190815260200160002060003373ffffffffffffffffffffffffffffffffffffffff1673ffffffffffffffffffffffffffffffffffffffff16815260200190815260200160002060009054906101000a900460ff165b9050801561261d5761261b82616039565b505b60011515600e60009054906101000a900473ffffffffffffffffffffffffffffffffffffffff1673ffffffffffffffffffffffffffffffffffffffff16638dcb4c93866040518263ffffffff1660e01b815260040161267c91906191cf565b60206040518083038186803b15801561269457600080fd5b505afa1580156126a8573d6000803e3d6000fd5b505050506040513d601f19601f820116820180604052508101906126cc91906188a7565b15151461270e576040517f08c379a00000000000000000000000000000000000000000000000000000000081526004016127059061951a565b60405180910390fd5b60008311612751576040517f08c379a00000000000000000000000000000000000000000000000000000000081526004016127489061959a565b60405180910390fd5b60011515601460003373ffffffffffffffffffffffffffffffffffffffff1673ffffffffffffffffffffffffffffffffffffffff16815260200190815260200160002060009054906101000a900460ff16151514612865576013339080600181540180825580915050600190039060005260206000200160009091909190916101000a81548173ffffffffffffffffffffffffffffffffffffffff021916908373ffffffffffffffffffffffffffffffffffffffff1602179055506001601460003373ffffffffffffffffffffffffffffffffffffffff1673ffffffffffffffffffffffffffffffffffffffff16815260200190815260200160002060006101000a81548160ff0219169083151502179055505b6128938433600d60009054906101000a900473ffffffffffffffffffffffffffffffffffffffff1686616a85565b600d60009054906101000a900473ffffffffffffffffffffffffffffffffffffffff1673ffffffffffffffffffffffffffffffffffffffff166346dafa2f8585336040518463ffffffff1660e01b81526004016128f293929190619273565b600060405180830381600087803b15801561290c57600080fd5b505af1158015612920573d6000803e3d6000fd5b50505050603c42612931919061987a565b601560003373ffffffffffffffffffffffffffffffffffffffff1673ffffffffffffffffffffffffffffffffffffffff168152602001908152602001600020819055508373ffffffffffffffffffffffffffffffffffffffff163373ffffffffffffffffffffffffffffffffffffffff167f5f9b5a75581a29d72b32414a5df7f1ef124b7787b38616fb8fdcad76179127c2856040516129d1919061969c565b60405180910390a380156129ea576129e8826163a7565b505b50505050565b601a6020528060005260406000206000915054906101000a900460ff1681565b600160149054906101000a900460ff1615612a60576040517f08c379a0000000000000000000000000000000000000000000000000000000008152600401612a57906193fa565b60405180910390fd5b600060075490506000601c600083815260200190815260200160002060009054906101000a900460ff168015612af05750601f600083815260200190815260200160002060003373ffffffffffffffffffffffffffffffffffffffff1673ffffffffffffffffffffffffffffffffffffffff16815260200190815260200160002060009054906101000a900460ff165b90508015612b0357612b0182616039565b505b6000600d60009054906101000a900473ffffffffffffffffffffffffffffffffffffffff1673ffffffffffffffffffffffffffffffffffffffff1663aa9fd37433866040518363ffffffff1660e01b8152600401612b629291906191ea565b60206040518083038186803b158015612b7a57600080fd5b505afa158015612b8e573d6000803e3d6000fd5b505050506040513d601f19601f82011682018060405250810190612bb29190618ad4565b9050600d60009054906101000a900473ffffffffffffffffffffffffffffffffffffffff1673ffffffffffffffffffffffffffffffffffffffff1663f940e38585336040518363ffffffff1660e01b8152600401612c119291906191ea565b602060405180830381600087803b158015612c2b57600080fd5b505af1158015612c3f573d6000803e3d6000fd5b505050506040513d601f19601f82011682018060405250810190612c6391906188a7565b612ca2576040517f08c379a0000000000000000000000000000000000000000000000000000000008152600401612c999061955a565b60405180910390fd5b8373ffffffffffffffffffffffffffffffffffffffff163373ffffffffffffffffffffffffffffffffffffffff167f12dcb5d4117cb4675d56c72f030db8f0f4dd34f875fe484eea4cf0790b5deaa383604051612cff919061969c565b60405180910390a3508015612d1957612d17826163a7565b505b505050565b600080600e60009054906101000a900473ffffffffffffffffffffffffffffffffffffffff1673ffffffffffffffffffffffffffffffffffffffff1663abc764da6040518163ffffffff1660e01b815260040160006040518083038186803b158015612d8957600080fd5b505afa158015612d9d573d6000803e3d6000fd5b505050506040513d6000823e3d601f19601f82011682018060405250810190612dc69190618866565b905060008060005b8351811015613253576000600c60009054906101000a900473ffffffffffffffffffffffffffffffffffffffff1673ffffffffffffffffffffffffffffffffffffffff166389bbd670868481518110612e50577f4e487b7100000000000000000000000000000000000000000000000000000000600052603260045260246000fd5b60200260200101516040518263ffffffff1660e01b8152600401612e7491906191cf565b60206040518083038186803b158015612e8c57600080fd5b505afa158015612ea0573d6000803e3d6000fd5b505050506040513d601f19601f82011682018060405250810190612ec49190618ad4565b600d60009054906101000a900473ffffffffffffffffffffffffffffffffffffffff1673ffffffffffffffffffffffffffffffffffffffff166389bbd670878581518110612f3b577f4e487b7100000000000000000000000000000000000000000000000000000000600052603260045260246000fd5b60200260200101516040518263ffffffff1660e01b8152600401612f5f91906191cf565b60206040518083038186803b158015612f7757600080fd5b505afa158015612f8b573d6000803e3d6000fd5b505050506040513d601f19601f82011682018060405250810190612faf9190618ad4565b612fb9919061987a565b9050600b60009054906101000a900473ffffffffffffffffffffffffffffffffffffffff1673ffffffffffffffffffffffffffffffffffffffff1663ca2e5b65868481518110613032577f4e487b7100000000000000000000000000000000000000000000000000000000600052603260045260246000fd5b6020026020010151601e60008b81526020019081526020016000206000898781518110613088577f4e487b7100000000000000000000000000000000000000000000000000000000600052603260045260246000fd5b602002602001015173ffffffffffffffffffffffffffffffffffffffff1673ffffffffffffffffffffffffffffffffffffffff168152602001908152602001600020546040518363ffffffff1660e01b81526004016130e892919061924a565b60206040518083038186803b15801561310057600080fd5b505afa158015613114573d6000803e3d6000fd5b505050506040513d601f19601f820116820180604052508101906131389190618ad4565b84613143919061987a565b9350600b60009054906101000a900473ffffffffffffffffffffffffffffffffffffffff1673ffffffffffffffffffffffffffffffffffffffff1663ca2e5b658684815181106131bc577f4e487b7100000000000000000000000000000000000000000000000000000000600052603260045260246000fd5b6020026020010151836040518363ffffffff1660e01b81526004016131e292919061924a565b60206040518083038186803b1580156131fa57600080fd5b505afa15801561320e573d6000803e3d6000fd5b505050506040513d601f19601f820116820180604052508101906132329190618ad4565b8361323d919061987a565b925050808061324b90619c6c565b915050612dce565b506000612710600354836132679190619901565b61327191906198d0565b9050808311945050505050919050565b60156020528060005260406000206000915090505481565b600160149054906101000a900460ff16156132e9576040517f08c379a00000000000000000000000000000000000000000000000000000000081526004016132e0906193fa565b60405180910390fd5b6000600754905060011515601c600083815260200190815260200160002060009054906101000a900460ff16151514613357576040517f08c379a000000000000000000000000000000000000000000000000000000000815260040161334e906195fa565b60405180910390fd5b600060186000838152602001908152602001600020805461337790619c09565b80601f01602080910402602001604051908101604052809291908181526020018280546133a390619c09565b80156133f05780601f106133c5576101008083540402835291602001916133f0565b820191906000526020600020905b8154815290600101906020018083116133d357829003601f168201915b5050505050905061340082615870565b8015613430575060001515601a600084815260200190815260200160002060009054906101000a900460ff161515145b1561368d57613474816040518060400160405280600381526020017f44414f0000000000000000000000000000000000000000000000000000000000815250616715565b806134ba57506134b9816040518060400160405280600581526020017f5554494c53000000000000000000000000000000000000000000000000000000815250616715565b5b8061350057506134ff816040518060400160405280600781526020017f5245534552564500000000000000000000000000000000000000000000000000815250616715565b5b806135465750613545816040518060400160405280600a81526020017f4745545f53504152544100000000000000000000000000000000000000000000815250616715565b5b8061358c575061358b816040518060400160405280600681526020017f524f555445520000000000000000000000000000000000000000000000000000815250616715565b5b806135d257506135d1816040518060400160405280600981526020017f4c4953545f424f4e440000000000000000000000000000000000000000000000815250616715565b5b806136185750613617816040518060400160405280600581526020017f4752414e54000000000000000000000000000000000000000000000000000000815250616715565b5b8061365e575061365d816040518060400160405280601081526020017f4144445f435552415445445f504f4f4c00000000000000000000000000000000815250616715565b5b156136815761366c82612d1e565b1561367c5761367b8282616bbe565b5b61368c565b61368b8282616bbe565b5b5b5050565b600160149054906101000a900460ff16156136e1576040517f08c379a00000000000000000000000000000000000000000000000000000000081526004016136d8906193fa565b60405180910390fd5b6000600754905060011515601c600083815260200190815260200160002060009054906101000a900460ff1615151461374f576040517f08c379a0000000000000000000000000000000000000000000000000000000008152600401613746906195fa565b60405180910390fd5b60011515601f600083815260200190815260200160002060003373ffffffffffffffffffffffffffffffffffffffff1673ffffffffffffffffffffffffffffffffffffffff16815260200190815260200160002060009054906101000a900460ff161515146137f3576040517f08c379a00000000000000000000000000000000000000000000000000000000081526004016137ea906194fa565b60405180910390fd5b600060186000838152602001908152602001600020805461381390619c09565b80601f016020809104026020016040519081016040528092919081815260200182805461383f90619c09565b801561388c5780601f106138615761010080835404028352916020019161388c565b820191906000526020600020905b81548152906001019060200180831161386f57829003601f168201915b50505050509050600061389e83616039565b90506000601f600085815260200190815260200160002060003373ffffffffffffffffffffffffffffffffffffffff1673ffffffffffffffffffffffffffffffffffffffff16815260200190815260200160002060006101000a81548160ff021916908315150217905550801561395f57823373ffffffffffffffffffffffffffffffffffffffff167fc47bced501ad257962522a3fba16532ae8ccbbe97f400da0bd120fc1b7443e198460405161395691906193b8565b60405180910390a35b505050565b600160009054906101000a900473ffffffffffffffffffffffffffffffffffffffff1673ffffffffffffffffffffffffffffffffffffffff163373ffffffffffffffffffffffffffffffffffffffff16146139be57600080fd5b82600d60006101000a81548173ffffffffffffffffffffffffffffffffffffffff021916908373ffffffffffffffffffffffffffffffffffffffff16021790555081600c60006101000a81548173ffffffffffffffffffffffffffffffffffffffff021916908373ffffffffffffffffffffffffffffffffffffffff16021790555080601160006101000a81548173ffffffffffffffffffffffffffffffffffffffff021916908373ffffffffffffffffffffffffffffffffffffffff160217905550505050565b60055481565b6000600960009054906101000a900460ff1615613b4a57600960019054906101000a900473ffffffffffffffffffffffffffffffffffffffff1673ffffffffffffffffffffffffffffffffffffffff16637b0e5c456040518163ffffffff1660e01b815260040160206040518083038186803b158015613b0b57600080fd5b505afa158015613b1f573d6000803e3d6000fd5b505050506040513d601f19601f82011682018060405250810190613b439190618a41565b9050613b70565b600b60009054906101000a900473ffffffffffffffffffffffffffffffffffffffff1690505b90565b600160149054906101000a900460ff1615613bc3576040517f08c379a0000000000000000000000000000000000000000000000000000000008152600401613bba906193fa565b60405180910390fd5b60011515601060009054906101000a900473ffffffffffffffffffffffffffffffffffffffff1673ffffffffffffffffffffffffffffffffffffffff1663194e22ce6040518163ffffffff1660e01b8152600401602060405180830381600087803b158015613c3157600080fd5b505af1158015613c45573d6000803e3d6000fd5b505050506040513d601f19601f82011682018060405250810190613c6991906188a7565b15151415613cac576040517f08c379a0000000000000000000000000000000000000000000000000000000008152600401613ca3906195da565b60405180910390fd5b6000600754905060011515601c600083815260200190815260200160002060009054906101000a900460ff16151514613d1a576040517f08c379a0000000000000000000000000000000000000000000000000000000008152600401613d11906195fa565b60405180910390fd5b60001515601f600083815260200190815260200160002060003373ffffffffffffffffffffffffffffffffffffffff1673ffffffffffffffffffffffffffffffffffffffff16815260200190815260200160002060009054906101000a900460ff16151514613dbe576040517f08c379a0000000000000000000000000000000000000000000000000000000008152600401613db59061945a565b60405180910390fd5b6000601860008381526020019081526020016000208054613dde90619c09565b80601f0160208091040260200160405190810160405280929190818152602001828054613e0a90619c09565b8015613e575780601f10613e2c57610100808354040283529160200191613e57565b820191906000526020600020905b815481529060010190602001808311613e3a57829003601f168201915b505050505090506000613e69836163a7565b90506001601f600085815260200190815260200160002060003373ffffffffffffffffffffffffffffffffffffffff1673ffffffffffffffffffffffffffffffffffffffff16815260200190815260200160002060006101000a81548160ff0219169083151502179055508015613f2a57823373ffffffffffffffffffffffffffffffffffffffff167ff3bb4a59f9a41b07650fa6eb0aaaf8f6e78fe9a712e0c0989ee060358403a89c84604051613f2191906193b8565b60405180910390a35b505050565b60085481565b601c6020528060005260406000206000915054906101000a900460ff1681565b600160149054906101000a900460ff1615613fa5576040517f08c379a0000000000000000000000000000000000000000000000000000000008152600401613f9c906193fa565b60405180910390fd5b60006007549050601c600082815260200190815260200160002060009054906101000a900460ff1661400c576040517f08c379a00000000000000000000000000000000000000000000000000000000081526004016140039061947a565b60405180910390fd5b600854601d60008381526020019081526020016000205461402d919061987a565b421161406e576040517f08c379a00000000000000000000000000000000000000000000000000000000081526004016140659061965a565b60405180910390fd5b6000600e60009054906101000a900473ffffffffffffffffffffffffffffffffffffffff1673ffffffffffffffffffffffffffffffffffffffff1663abc764da6040518163ffffffff1660e01b815260040160006040518083038186803b1580156140d857600080fd5b505afa1580156140ec573d6000803e3d6000fd5b505050506040513d6000823e3d601f19601f820116820180604052508101906141159190618866565b905060005b81518110156141cc576000601e60008581526020019081526020016000206000848481518110614173577f4e487b7100000000000000000000000000000000000000000000000000000000600052603260045260246000fd5b602002602001015173ffffffffffffffffffffffffffffffffffffffff1673ffffffffffffffffffffffffffffffffffffffff1681526020019081526020016000208190555080806141c490619c6c565b91505061411a565b506000601a600084815260200190815260200160002060006101000a81548160ff0219169083151502179055506000601c600084815260200190815260200160002060006101000a81548160ff021916908315150217905550813373ffffffffffffffffffffffffffffffffffffffff167f6b4f340ccba70b829531b22cfbc4ad2defb3beac09f6149d584fe1031dedbf7c60405160405180910390a35050565b60035481565b600960019054906101000a900473ffffffffffffffffffffffffffffffffffffffff1681565b6000600960009054906101000a900460ff161561435757600960019054906101000a900473ffffffffffffffffffffffffffffffffffffffff1673ffffffffffffffffffffffffffffffffffffffff16639d2cc4366040518163ffffffff1660e01b815260040160206040518083038186803b15801561431857600080fd5b505afa15801561432c573d6000803e3d6000fd5b505050506040513d601f19601f82011682018060405250810190614350919061899d565b905061437d565b601060009054906101000a900473ffffffffffffffffffffffffffffffffffffffff1690505b90565b60146020528060005260406000206000915054906101000a900460ff1681565b60196020528060005260406000206000915090505481565b600082116143fb576040517f08c379a00000000000000000000000000000000000000000000000000000000081526004016143f29061957a565b60405180910390fd5b60006144056167c0565b905061440f616a19565b508260166000838152602001908152602001600020819055508160186000838152602001908152602001600020908051906020019061444f929190618336565b50803373ffffffffffffffffffffffffffffffffffffffff167f8d500fcad86fc64a281b94ef64d6d66acbfc6862aa4ff2ee5fbbfb40736e803e8460405161449791906193b8565b60405180910390a3505050565b600160009054906101000a900473ffffffffffffffffffffffffffffffffffffffff1673ffffffffffffffffffffffffffffffffffffffff163373ffffffffffffffffffffffffffffffffffffffff16146144fe57600080fd5b836005819055508260068190555081600160156101000a81548160ff0219169083151502179055508060088190555050505050565b600160149054906101000a900460ff1681565b6000600160149054906101000a900460ff1615614598576040517f08c379a000000000000000000000000000000000000000000000000000000000815260040161458f906193fa565b60405180910390fd5b600060075490506000601c600083815260200190815260200160002060009054906101000a900460ff1680156146285750601f600083815260200190815260200160002060003373ffffffffffffffffffffffffffffffffffffffff1673ffffffffffffffffffffffffffffffffffffffff16815260200190815260200160002060009054906101000a900460ff165b9050801561463b5761463982616039565b505b6000841161467e576040517f08c379a00000000000000000000000000000000000000000000000000000000081526004016146759061959a565b60405180910390fd5b6000600e60009054906101000a900473ffffffffffffffffffffffffffffffffffffffff1673ffffffffffffffffffffffffffffffffffffffff1663bbe4f6db876040518263ffffffff1660e01b81526004016146db91906191cf565b60206040518083038186803b1580156146f357600080fd5b505afa158015614707573d6000803e3d6000fd5b505050506040513d601f19601f8201168201806040525081019061472b91906186bf565b9050600c60009054906101000a900473ffffffffffffffffffffffffffffffffffffffff1673ffffffffffffffffffffffffffffffffffffffff1663f794062e826040518263ffffffff1660e01b815260040161478891906191cf565b60206040518083038186803b1580156147a057600080fd5b505afa1580156147b4573d6000803e3d6000fd5b505050506040513d601f19601f820116820180604052508101906147d891906188a7565b614817576040517f08c379a000000000000000000000000000000000000000000000000000000000815260040161480e906193da565b60405180910390fd5b60011515601460003373ffffffffffffffffffffffffffffffffffffffff1673ffffffffffffffffffffffffffffffffffffffff16815260200190815260200160002060009054906101000a900460ff1615151461492b576013339080600181540180825580915050600190039060005260206000200160009091909190916101000a81548173ffffffffffffffffffffffffffffffffffffffff021916908373ffffffffffffffffffffffffffffffffffffffff1602179055506001601460003373ffffffffffffffffffffffffffffffffffffffff1673ffffffffffffffffffffffffffffffffffffffff16815260200190815260200160002060006101000a81548160ff0219169083151502179055505b60006149378787616c64565b9050603c42614946919061987a565b601560003373ffffffffffffffffffffffffffffffffffffffff1673ffffffffffffffffffffffffffffffffffffffff16815260200190815260200160002081905550600c60009054906101000a900473ffffffffffffffffffffffffffffffffffffffff1673ffffffffffffffffffffffffffffffffffffffff1663bf58d0ef8333846040518463ffffffff1660e01b81526004016149e893929190619213565b600060405180830381600087803b158015614a0257600080fd5b505af1158015614a16573d6000803e3d6000fd5b505050503373ffffffffffffffffffffffffffffffffffffffff167fe4dd259ab128527fe8b5fdae0b44bda8db95a4de10b999d63dce142b1eb88d548783604051614a62929190619710565b60405180910390a26001945050508015614a8157614a7f826163a7565b505b505092915050565b600073ffffffffffffffffffffffffffffffffffffffff168273ffffffffffffffffffffffffffffffffffffffff161415614af9576040517f08c379a0000000000000000000000000000000000000000000000000000000008152600401614af0906195ba565b60405180910390fd5b60007f000000000000000000000000000000000000000000000000000000000000000073ffffffffffffffffffffffffffffffffffffffff166370a08231601060009054906101000a900473ffffffffffffffffffffffffffffffffffffffff166040518263ffffffff1660e01b8152600401614b7691906191cf565b60206040518083038186803b158015614b8e57600080fd5b505afa158015614ba2573d6000803e3d6000fd5b505050506040513d601f19601f82011682018060405250810190614bc69190618ad4565b9050600061271060055483614bdb9190619901565b614be591906198d0565b9050600083118015614bf657508083105b614c35576040517f08c379a0000000000000000000000000000000000000000000000000000000008152600401614c2c9061943a565b60405180910390fd5b6000614c3f6167c0565b9050614c49616a19565b5060006040518060400160405280600581526020017f4752414e54000000000000000000000000000000000000000000000000000000815250905080601860008481526020019081526020016000209080519060200190614cab929190618336565b50856017600084815260200190815260200160002060006101000a81548173ffffffffffffffffffffffffffffffffffffffff021916908373ffffffffffffffffffffffffffffffffffffffff160217905550846016600084815260200190815260200160002081905550813373ffffffffffffffffffffffffffffffffffffffff167f8d500fcad86fc64a281b94ef64d6d66acbfc6862aa4ff2ee5fbbfb40736e803e83604051614d5d91906193b8565b60405180910390a3505050505050565b600160149054906101000a900460ff1615614dbd576040517f08c379a0000000000000000000000000000000000000000000000000000000008152600401614db4906193fa565b60405180910390fd5b600160159054906101000a900460ff16614e0c576040517f08c379a0000000000000000000000000000000000000000000000000000000008152600401614e039061941a565b60405180910390fd5b60011515601060009054906101000a900473ffffffffffffffffffffffffffffffffffffffff1673ffffffffffffffffffffffffffffffffffffffff1663194e22ce6040518163ffffffff1660e01b8152600401602060405180830381600087803b158015614e7a57600080fd5b505af1158015614e8e573d6000803e3d6000fd5b505050506040513d601f19601f82011682018060405250810190614eb291906188a7565b15151415614ef5576040517f08c379a0000000000000000000000000000000000000000000000000000000008152600401614eec906195da565b60405180910390fd5b60006007549050600254601960008381526020019081526020016000205442614f1e919061995b565b11614f5e576040517f08c379a0000000000000000000000000000000000000000000000000000000008152600401614f55906194ba565b60405180910390fd5b60011515601a600083815260200190815260200160002060009054906101000a900460ff16151514614fc5576040517f08c379a0000000000000000000000000000000000000000000000000000000008152600401614fbc906194da565b60405180910390fd5b60011515601c600083815260200190815260200160002060009054906101000a900460ff16151514614ff657600080fd5b60001515601b600083815260200190815260200160002060009054906101000a900460ff1615151461502757600080fd5b61503081615870565b615065576000601a600083815260200190815260200160002060006101000a81548160ff0219169083151502179055506155e6565b600060186000838152602001908152602001600020805461508590619c09565b80601f01602080910402602001604051908101604052809291908181526020018280546150b190619c09565b80156150fe5780601f106150d3576101008083540402835291602001916150fe565b820191906000526020600020905b8154815290600101906020018083116150e157829003601f168201915b50505050509050615144816040518060400160405280600381526020017f44414f0000000000000000000000000000000000000000000000000000000000815250616715565b1561515757615152826174eb565b6155db565b615196816040518060400160405280600681526020017f524f555445520000000000000000000000000000000000000000000000000000815250616715565b156151a9576151a48261760e565b6155da565b6151e8816040518060400160405280600581526020017f5554494c53000000000000000000000000000000000000000000000000000000815250616715565b156151fb576151f68261768b565b6155d9565b61523a816040518060400160405280600781526020017f5245534552564500000000000000000000000000000000000000000000000000815250616715565b1561524d5761524882617708565b6155d8565b61528c816040518060400160405280600e81526020017f464c49505f454d495353494f4e53000000000000000000000000000000000000815250616715565b1561529e576152996178e4565b6155d7565b6152dd816040518060400160405280600881526020017f434f4f4c5f4f4646000000000000000000000000000000000000000000000000815250616715565b156152f0576152eb82617966565b6155d6565b61532f816040518060400160405280600981526020017f44414f5f434c41494d0000000000000000000000000000000000000000000000815250616715565b156153425761533d82617989565b6155d5565b615381816040518060400160405280600b81526020017f53594e54485f434c41494d000000000000000000000000000000000000000000815250616715565b156153945761538f826179bb565b6155d4565b6153d3816040518060400160405280600581526020017f4752414e54000000000000000000000000000000000000000000000000000000815250616715565b156153e6576153e182617a73565b6155d3565b615425816040518060400160405280600a81526020017f4745545f53504152544100000000000000000000000000000000000000000000815250616715565b1561543757615432617b57565b6155d2565b615476816040518060400160405280600981526020017f4c4953545f424f4e440000000000000000000000000000000000000000000000815250616715565b156154895761548482617bf7565b6155d1565b6154c8816040518060400160405280600b81526020017f44454c4953545f424f4e44000000000000000000000000000000000000000000815250616715565b156154db576154d682617cc9565b6155d0565b61551a816040518060400160405280601081526020017f4144445f435552415445445f504f4f4c00000000000000000000000000000000815250616715565b1561552d5761552882617d92565b6155cf565b61556c816040518060400160405280601381526020017f52454d4f56455f435552415445445f504f4f4c00000000000000000000000000815250616715565b1561557f5761557a82617e64565b6155ce565b6155be816040518060400160405280600781526020017f5245414c49534500000000000000000000000000000000000000000000000000815250616715565b156155cd576155cc82617fc3565b5b5b5b5b5b5b5b5b5b5b5b5b5b5b5b6155e48261805f565b505b50565b60025481565b60176020528060005260406000206000915054906101000a900473ffffffffffffffffffffffffffffffffffffffff1681565b6000601f600084815260200190815260200160002060008373ffffffffffffffffffffffffffffffffffffffff1673ffffffffffffffffffffffffffffffffffffffff16815260200190815260200160002060009054906101000a900460ff16905092915050565b601d6020528060005260406000206000915090505481565b6000600960009054906101000a900460ff161561576057600960019054906101000a900473ffffffffffffffffffffffffffffffffffffffff1673ffffffffffffffffffffffffffffffffffffffff1663b93ec54b6040518163ffffffff1660e01b815260040160206040518083038186803b15801561572157600080fd5b505afa158015615735573d6000803e3d6000fd5b505050506040513d601f19601f8201168201806040525081019061575991906189ef565b9050615786565b600f60009054906101000a900473ffffffffffffffffffffffffffffffffffffffff1690505b90565b6000600960009054906101000a900460ff161561584757600960019054906101000a900473ffffffffffffffffffffffffffffffffffffffff1673ffffffffffffffffffffffffffffffffffffffff1663b99b0a0c6040518163ffffffff1660e01b815260040160206040518083038186803b15801561580857600080fd5b505afa15801561581c573d6000803e3d6000fd5b505050506040513d601f19601f820116820180604052508101906158409190618974565b905061586d565b600e60009054906101000a900473ffffffffffffffffffffffffffffffffffffffff1690505b90565b600080600e60009054906101000a900473ffffffffffffffffffffffffffffffffffffffff1673ffffffffffffffffffffffffffffffffffffffff1663abc764da6040518163ffffffff1660e01b815260040160006040518083038186803b1580156158db57600080fd5b505afa1580156158ef573d6000803e3d6000fd5b505050506040513d6000823e3d601f19601f820116820180604052508101906159189190618866565b905060008060005b8351811015615da5576000600c60009054906101000a900473ffffffffffffffffffffffffffffffffffffffff1673ffffffffffffffffffffffffffffffffffffffff166389bbd6708684815181106159a2577f4e487b7100000000000000000000000000000000000000000000000000000000600052603260045260246000fd5b60200260200101516040518263ffffffff1660e01b81526004016159c691906191cf565b60206040518083038186803b1580156159de57600080fd5b505afa1580156159f2573d6000803e3d6000fd5b505050506040513d601f19601f82011682018060405250810190615a169190618ad4565b600d60009054906101000a900473ffffffffffffffffffffffffffffffffffffffff1673ffffffffffffffffffffffffffffffffffffffff166389bbd670878581518110615a8d577f4e487b7100000000000000000000000000000000000000000000000000000000600052603260045260246000fd5b60200260200101516040518263ffffffff1660e01b8152600401615ab191906191cf565b60206040518083038186803b158015615ac957600080fd5b505afa158015615add573d6000803e3d6000fd5b505050506040513d601f19601f82011682018060405250810190615b019190618ad4565b615b0b919061987a565b9050600b60009054906101000a900473ffffffffffffffffffffffffffffffffffffffff1673ffffffffffffffffffffffffffffffffffffffff1663ca2e5b65868481518110615b84577f4e487b7100000000000000000000000000000000000000000000000000000000600052603260045260246000fd5b6020026020010151601e60008b81526020019081526020016000206000898781518110615bda577f4e487b7100000000000000000000000000000000000000000000000000000000600052603260045260246000fd5b602002602001015173ffffffffffffffffffffffffffffffffffffffff1673ffffffffffffffffffffffffffffffffffffffff168152602001908152602001600020546040518363ffffffff1660e01b8152600401615c3a92919061924a565b60206040518083038186803b158015615c5257600080fd5b505afa158015615c66573d6000803e3d6000fd5b505050506040513d601f19601f82011682018060405250810190615c8a9190618ad4565b84615c95919061987a565b9350600b60009054906101000a900473ffffffffffffffffffffffffffffffffffffffff1673ffffffffffffffffffffffffffffffffffffffff1663ca2e5b65868481518110615d0e577f4e487b7100000000000000000000000000000000000000000000000000000000600052603260045260246000fd5b6020026020010151836040518363ffffffff1660e01b8152600401615d3492919061924a565b60206040518083038186803b158015615d4c57600080fd5b505afa158015615d60573d6000803e3d6000fd5b505050506040513d601f19601f82011682018060405250810190615d849190618ad4565b83615d8f919061987a565b9250508080615d9d90619c6c565b915050615920565b506000600282615db591906198d0565b9050808311945050505050919050565b60186020528060005260406000206000915090508054615de490619c09565b80601f0160208091040260200160405190810160405280929190818152602001828054615e1090619c09565b8015615e5d5780601f10615e3257610100808354040283529160200191615e5d565b820191906000526020600020905b815481529060010190602001808311615e4057829003601f168201915b505050505081565b600160009054906101000a900473ffffffffffffffffffffffffffffffffffffffff1681565b6000615e956167c0565b9050615e9f616a19565b5081601860008381526020019081526020016000209080519060200190615ec7929190618336565b50803373ffffffffffffffffffffffffffffffffffffffff167f8d500fcad86fc64a281b94ef64d6d66acbfc6862aa4ff2ee5fbbfb40736e803e84604051615f0f91906193b8565b60405180910390a35050565b600160159054906101000a900460ff1681565b7f000000000000000000000000000000000000000000000000000000000000000081565b6000600960009054906101000a900460ff161561601057600960019054906101000a900473ffffffffffffffffffffffffffffffffffffffff1673ffffffffffffffffffffffffffffffffffffffff1663f301e7816040518163ffffffff1660e01b815260040160206040518083038186803b158015615fd157600080fd5b505afa158015615fe5573d6000803e3d6000fd5b505050506040513d601f19601f82011682018060405250810190616009919061894b565b9050616036565b601260009054906101000a900473ffffffffffffffffffffffffffffffffffffffff1690505b90565b600080600e60009054906101000a900473ffffffffffffffffffffffffffffffffffffffff1673ffffffffffffffffffffffffffffffffffffffff1663abc764da6040518163ffffffff1660e01b815260040160006040518083038186803b1580156160a457600080fd5b505afa1580156160b8573d6000803e3d6000fd5b505050506040513d6000823e3d601f19601f820116820180604052508101906160e19190618866565b905060005b81518110156163a0576000600c60009054906101000a900473ffffffffffffffffffffffffffffffffffffffff1673ffffffffffffffffffffffffffffffffffffffff1663aa9fd374848481518110616168577f4e487b7100000000000000000000000000000000000000000000000000000000600052603260045260246000fd5b6020026020010151336040518363ffffffff1660e01b815260040161618e9291906191ea565b60206040518083038186803b1580156161a657600080fd5b505afa1580156161ba573d6000803e3d6000fd5b505050506040513d601f19601f820116820180604052508101906161de9190618ad4565b600d60009054906101000a900473ffffffffffffffffffffffffffffffffffffffff1673ffffffffffffffffffffffffffffffffffffffff1663aa9fd374858581518110616255577f4e487b7100000000000000000000000000000000000000000000000000000000600052603260045260246000fd5b6020026020010151336040518363ffffffff1660e01b815260040161627b9291906191ea565b60206040518083038186803b15801561629357600080fd5b505afa1580156162a7573d6000803e3d6000fd5b505050506040513d601f19601f820116820180604052508101906162cb9190618ad4565b6162d5919061987a565b9050600081111561638c5780601e6000878152602001908152602001600020600085858151811061632f577f4e487b7100000000000000000000000000000000000000000000000000000000600052603260045260246000fd5b602002602001015173ffffffffffffffffffffffffffffffffffffffff1673ffffffffffffffffffffffffffffffffffffffff1681526020019081526020016000206000828254616380919061995b565b92505081905550600193505b50808061639890619c6c565b9150506160e6565b5050919050565b600080600e60009054906101000a900473ffffffffffffffffffffffffffffffffffffffff1673ffffffffffffffffffffffffffffffffffffffff1663abc764da6040518163ffffffff1660e01b815260040160006040518083038186803b15801561641257600080fd5b505afa158015616426573d6000803e3d6000fd5b505050506040513d6000823e3d601f19601f8201168201806040525081019061644f9190618866565b905060005b815181101561670e576000600c60009054906101000a900473ffffffffffffffffffffffffffffffffffffffff1673ffffffffffffffffffffffffffffffffffffffff1663aa9fd3748484815181106164d6577f4e487b7100000000000000000000000000000000000000000000000000000000600052603260045260246000fd5b6020026020010151336040518363ffffffff1660e01b81526004016164fc9291906191ea565b60206040518083038186803b15801561651457600080fd5b505afa158015616528573d6000803e3d6000fd5b505050506040513d601f19601f8201168201806040525081019061654c9190618ad4565b600d60009054906101000a900473ffffffffffffffffffffffffffffffffffffffff1673ffffffffffffffffffffffffffffffffffffffff1663aa9fd3748585815181106165c3577f4e487b7100000000000000000000000000000000000000000000000000000000600052603260045260246000fd5b6020026020010151336040518363ffffffff1660e01b81526004016165e99291906191ea565b60206040518083038186803b15801561660157600080fd5b505afa158015616615573d6000803e3d6000fd5b505050506040513d601f19601f820116820180604052508101906166399190618ad4565b616643919061987a565b905060008111156166fa5780601e6000878152602001908152602001600020600085858151811061669d577f4e487b7100000000000000000000000000000000000000000000000000000000600052603260045260246000fd5b602002602001015173ffffffffffffffffffffffffffffffffffffffff1673ffffffffffffffffffffffffffffffffffffffff16815260200190815260200160002060008282546166ee919061987a565b92505081905550600193505b50808061670690619c6c565b915050616454565b5050919050565b600060028260405161672791906191b8565b602060405180830381855afa158015616744573d6000803e3d6000fd5b5050506040513d601f19601f8201168201806040525081019061676791906188d0565b60028460405161677791906191b8565b602060405180830381855afa158015616794573d6000803e3d6000fd5b5050506040513d601f19601f820116820180604052508101906167b791906188d0565b14905092915050565b6000600160149054906101000a900460ff1615616812576040517f08c379a0000000000000000000000000000000000000000000000000000000008152600401616809906193fa565b60405180910390fd5b600160159054906101000a900460ff16616861576040517f08c379a00000000000000000000000000000000000000000000000000000000081526004016168589061941a565b60405180910390fd5b60011515601060009054906101000a900473ffffffffffffffffffffffffffffffffffffffff1673ffffffffffffffffffffffffffffffffffffffff1663194e22ce6040518163ffffffff1660e01b8152600401602060405180830381600087803b1580156168cf57600080fd5b505af11580156168e3573d6000803e3d6000fd5b505050506040513d601f19601f8201168201806040525081019061690791906188a7565b1515141561694a576040517f08c379a0000000000000000000000000000000000000000000000000000000008152600401616941906195da565b60405180910390fd5b6000600754905060001515601c600083815260200190815260200160002060009054906101000a900460ff161515146169b8576040517f08c379a00000000000000000000000000000000000000000000000000000000081526004016169af906195fa565b60405180910390fd5b6001816169c5919061987a565b9050806007819055506001601c600083815260200190815260200160002060006101000a81548160ff02191690831515021790555042601d6000838152602001908152602001600020819055508091505090565b6000616a7e7f000000000000000000000000000000000000000000000000000000000000000033601060009054906101000a900473ffffffffffffffffffffffffffffffffffffffff16670de0b6b3a7640000600654616a799190619901565b616a85565b6001905090565b6000808573ffffffffffffffffffffffffffffffffffffffff166323b872dd868686604051602401616ab993929190619213565b6040516020818303038152906040529060e01b6020820180517bffffffffffffffffffffffffffffffffffffffffffffffffffffffff8381831617835250505050604051616b0791906191b8565b6000604051808303816000865af19150503d8060008114616b44576040519150601f19603f3d011682016040523d82523d6000602084013e616b49565b606091505b5091509150818015616b775750600081511480616b76575080806020019051810190616b7591906188a7565b5b5b616bb6576040517f08c379a0000000000000000000000000000000000000000000000000000000008152600401616bad9061961a565b60405180910390fd5b505050505050565b6001601a600084815260200190815260200160002060006101000a81548160ff021916908315150217905550426019600084815260200190815260200160002081905550813373ffffffffffffffffffffffffffffffffffffffff167f0f36aea5066f9f90a999260fe4ce8d7713f7f07f5ae61bf36d73cc51170a3a9e60025442616c49919061987a565b84604051616c589291906196e0565b60405180910390a35050565b600060026000541415616cac576040517f08c379a0000000000000000000000000000000000000000000000000000000008152600401616ca39061963a565b60405180910390fd5b60026000819055506a02116545850052128000007f000000000000000000000000000000000000000000000000000000000000000073ffffffffffffffffffffffffffffffffffffffff1663dd62ed3e30600a60009054906101000a900473ffffffffffffffffffffffffffffffffffffffff166040518363ffffffff1660e01b8152600401616d3d9291906191ea565b60206040518083038186803b158015616d5557600080fd5b505afa158015616d69573d6000803e3d6000fd5b505050506040513d601f19601f82011682018060405250810190616d8d9190618ad4565b1015616f01577f000000000000000000000000000000000000000000000000000000000000000073ffffffffffffffffffffffffffffffffffffffff1663095ea7b3600a60009054906101000a900473ffffffffffffffffffffffffffffffffffffffff167f000000000000000000000000000000000000000000000000000000000000000073ffffffffffffffffffffffffffffffffffffffff166318160ddd6040518163ffffffff1660e01b815260040160206040518083038186803b158015616e5857600080fd5b505afa158015616e6c573d6000803e3d6000fd5b505050506040513d601f19601f82011682018060405250810190616e909190618ad4565b6040518363ffffffff1660e01b8152600401616ead92919061924a565b602060405180830381600087803b158015616ec757600080fd5b505af1158015616edb573d6000803e3d6000fd5b505050506040513d601f19601f82011682018060405250810190616eff91906188a7565b505b600073ffffffffffffffffffffffffffffffffffffffff168373ffffffffffffffffffffffffffffffffffffffff1614156170d157348214616f4257600080fd5b6000600b60009054906101000a900473ffffffffffffffffffffffffffffffffffffffff1673ffffffffffffffffffffffffffffffffffffffff1663b80e44b885856040518363ffffffff1660e01b8152600401616fa192919061924a565b60206040518083038186803b158015616fb957600080fd5b505afa158015616fcd573d6000803e3d6000fd5b505050506040513d601f19601f82011682018060405250810190616ff19190618ad4565b9050600a60009054906101000a900473ffffffffffffffffffffffffffffffffffffffff1673ffffffffffffffffffffffffffffffffffffffff166393cac68584858488600c60009054906101000a900473ffffffffffffffffffffffffffffffffffffffff166040518663ffffffff1660e01b81526004016170779493929190619739565b6020604051808303818588803b15801561709057600080fd5b505af11580156170a4573d6000803e3d6000fd5b50505050506040513d601f19601f820116820180604052508101906170c99190618ad4565b9150506174dd565b6170dd83333085616a85565b60008373ffffffffffffffffffffffffffffffffffffffff166370a08231306040518263ffffffff1660e01b815260040161711891906191cf565b60206040518083038186803b15801561713057600080fd5b505afa158015617144573d6000803e3d6000fd5b505050506040513d601f19601f820116820180604052508101906171689190618ad4565b90506000600b60009054906101000a900473ffffffffffffffffffffffffffffffffffffffff1673ffffffffffffffffffffffffffffffffffffffff1663b80e44b886846040518363ffffffff1660e01b81526004016171c992919061924a565b60206040518083038186803b1580156171e157600080fd5b505afa1580156171f5573d6000803e3d6000fd5b505050506040513d601f19601f820116820180604052508101906172199190618ad4565b9050818573ffffffffffffffffffffffffffffffffffffffff1663dd62ed3e30600a60009054906101000a900473ffffffffffffffffffffffffffffffffffffffff166040518363ffffffff1660e01b81526004016172799291906191ea565b60206040518083038186803b15801561729157600080fd5b505afa1580156172a5573d6000803e3d6000fd5b505050506040513d601f19601f820116820180604052508101906172c99190618ad4565b10156174035760008573ffffffffffffffffffffffffffffffffffffffff166318160ddd6040518163ffffffff1660e01b815260040160206040518083038186803b15801561731757600080fd5b505afa15801561732b573d6000803e3d6000fd5b505050506040513d601f19601f8201168201806040525081019061734f9190618ad4565b90508573ffffffffffffffffffffffffffffffffffffffff1663095ea7b3600a60009054906101000a900473ffffffffffffffffffffffffffffffffffffffff16836040518363ffffffff1660e01b81526004016173ae92919061924a565b602060405180830381600087803b1580156173c857600080fd5b505af11580156173dc573d6000803e3d6000fd5b505050506040513d601f19601f8201168201806040525081019061740091906188a7565b50505b600a60009054906101000a900473ffffffffffffffffffffffffffffffffffffffff1673ffffffffffffffffffffffffffffffffffffffff166393cac685838388600c60009054906101000a900473ffffffffffffffffffffffffffffffffffffffff166040518563ffffffff1660e01b81526004016174869493929190619739565b602060405180830381600087803b1580156174a057600080fd5b505af11580156174b4573d6000803e3d6000fd5b505050506040513d601f19601f820116820180604052508101906174d89190618ad4565b925050505b600160008190555092915050565b60006017600083815260200190815260200160002060009054906101000a900473ffffffffffffffffffffffffffffffffffffffff16905080600960016101000a81548173ffffffffffffffffffffffffffffffffffffffff021916908373ffffffffffffffffffffffffffffffffffffffff1602179055507f000000000000000000000000000000000000000000000000000000000000000073ffffffffffffffffffffffffffffffffffffffff16631d007f5f826040518263ffffffff1660e01b81526004016175bd91906191cf565b600060405180830381600087803b1580156175d757600080fd5b505af11580156175eb573d6000803e3d6000fd5b505050506001600960006101000a81548160ff0219169083151502179055505050565b60006017600083815260200190815260200160002060009054906101000a900473ffffffffffffffffffffffffffffffffffffffff16905080600a60006101000a81548173ffffffffffffffffffffffffffffffffffffffff021916908373ffffffffffffffffffffffffffffffffffffffff1602179055505050565b60006017600083815260200190815260200160002060009054906101000a900473ffffffffffffffffffffffffffffffffffffffff16905080600b60006101000a81548173ffffffffffffffffffffffffffffffffffffffff021916908373ffffffffffffffffffffffffffffffffffffffff1602179055505050565b60006017600083815260200190815260200160002060009054906101000a900473ffffffffffffffffffffffffffffffffffffffff16905060007f000000000000000000000000000000000000000000000000000000000000000073ffffffffffffffffffffffffffffffffffffffff166370a08231601060009054906101000a900473ffffffffffffffffffffffffffffffffffffffff166040518263ffffffff1660e01b81526004016177bd91906191cf565b60206040518083038186803b1580156177d557600080fd5b505afa1580156177e9573d6000803e3d6000fd5b505050506040513d601f19601f8201168201806040525081019061780d9190618ad4565b9050601060009054906101000a900473ffffffffffffffffffffffffffffffffffffffff1673ffffffffffffffffffffffffffffffffffffffff16637d458baa82846040518363ffffffff1660e01b815260040161786c9291906196b7565b600060405180830381600087803b15801561788657600080fd5b505af115801561789a573d6000803e3d6000fd5b5050505081601060006101000a81548173ffffffffffffffffffffffffffffffffffffffff021916908373ffffffffffffffffffffffffffffffffffffffff160217905550505050565b7f000000000000000000000000000000000000000000000000000000000000000073ffffffffffffffffffffffffffffffffffffffff1663fe1fa8fa6040518163ffffffff1660e01b8152600401600060405180830381600087803b15801561794c57600080fd5b505af1158015617960573d6000803e3d6000fd5b50505050565b600060166000838152602001908152602001600020549050806002819055505050565b6000601660008381526020019081526020016000205490506105dc8111156179b057600080fd5b806005819055505050565b6000601660008381526020019081526020016000205490506105dc8111156179e257600080fd5b601160009054906101000a900473ffffffffffffffffffffffffffffffffffffffff1673ffffffffffffffffffffffffffffffffffffffff1663ffe3d4a2826040518263ffffffff1660e01b8152600401617a3d919061969c565b600060405180830381600087803b158015617a5757600080fd5b505af1158015617a6b573d6000803e3d6000fd5b505050505050565b60006016600083815260200190815260200160002054905060006017600084815260200190815260200160002060009054906101000a900473ffffffffffffffffffffffffffffffffffffffff169050601060009054906101000a900473ffffffffffffffffffffffffffffffffffffffff1673ffffffffffffffffffffffffffffffffffffffff16637d458baa83836040518363ffffffff1660e01b8152600401617b209291906196b7565b600060405180830381600087803b158015617b3a57600080fd5b505af1158015617b4e573d6000803e3d6000fd5b50505050505050565b60006a021165458500521280000090507f000000000000000000000000000000000000000000000000000000000000000073ffffffffffffffffffffffffffffffffffffffff1663d01f6fba82306040518363ffffffff1660e01b8152600401617bc29291906196b7565b600060405180830381600087803b158015617bdc57600080fd5b505af1158015617bf0573d6000803e3d6000fd5b5050505050565b60006017600083815260200190815260200160002060009054906101000a900473ffffffffffffffffffffffffffffffffffffffff169050617c388261805f565b600c60009054906101000a900473ffffffffffffffffffffffffffffffffffffffff1673ffffffffffffffffffffffffffffffffffffffff16639cd99aa2826040518263ffffffff1660e01b8152600401617c9391906191cf565b600060405180830381600087803b158015617cad57600080fd5b505af1158015617cc1573d6000803e3d6000fd5b505050505050565b60006017600083815260200190815260200160002060009054906101000a900473ffffffffffffffffffffffffffffffffffffffff169050600c60009054906101000a900473ffffffffffffffffffffffffffffffffffffffff1673ffffffffffffffffffffffffffffffffffffffff1663db634d7c826040518263ffffffff1660e01b8152600401617d5c91906191cf565b600060405180830381600087803b158015617d7657600080fd5b505af1158015617d8a573d6000803e3d6000fd5b505050505050565b60006017600083815260200190815260200160002060009054906101000a900473ffffffffffffffffffffffffffffffffffffffff169050617dd38261805f565b600e60009054906101000a900473ffffffffffffffffffffffffffffffffffffffff1673ffffffffffffffffffffffffffffffffffffffff16632b2260a8826040518263ffffffff1660e01b8152600401617e2e91906191cf565b600060405180830381600087803b158015617e4857600080fd5b505af1158015617e5c573d6000803e3d6000fd5b505050505050565b60006017600083815260200190815260200160002060009054906101000a900473ffffffffffffffffffffffffffffffffffffffff169050617ea58261805f565b600c60009054906101000a900473ffffffffffffffffffffffffffffffffffffffff1673ffffffffffffffffffffffffffffffffffffffff1663db634d7c826040518263ffffffff1660e01b8152600401617f0091906191cf565b600060405180830381600087803b158015617f1a57600080fd5b505af1158015617f2e573d6000803e3d6000fd5b50505050600e60009054906101000a900473ffffffffffffffffffffffffffffffffffffffff1673ffffffffffffffffffffffffffffffffffffffff16637ca51fbf826040518263ffffffff1660e01b8152600401617f8d91906191cf565b600060405180830381600087803b158015617fa757600080fd5b505af1158015617fbb573d6000803e3d6000fd5b505050505050565b60006017600083815260200190815260200160002060009054906101000a900473ffffffffffffffffffffffffffffffffffffffff1690508073ffffffffffffffffffffffffffffffffffffffff1663224b2a5b6040518163ffffffff1660e01b8152600401600060405180830381600087803b15801561804357600080fd5b505af1158015618057573d6000803e3d6000fd5b505050505050565b600060186000838152602001908152602001600020805461807f90619c09565b80601f01602080910402602001604051908101604052809291908181526020018280546180ab90619c09565b80156180f85780601f106180cd576101008083540402835291602001916180f8565b820191906000526020600020905b8154815290600101906020018083116180db57829003601f168201915b505050505090506000600e60009054906101000a900473ffffffffffffffffffffffffffffffffffffffff1673ffffffffffffffffffffffffffffffffffffffff1663abc764da6040518163ffffffff1660e01b815260040160006040518083038186803b15801561816957600080fd5b505afa15801561817d573d6000803e3d6000fd5b505050506040513d6000823e3d601f19601f820116820180604052508101906181a69190618866565b905060005b815181101561825d576000601e60008681526020019081526020016000206000848481518110618204577f4e487b7100000000000000000000000000000000000000000000000000000000600052603260045260246000fd5b602002602001015173ffffffffffffffffffffffffffffffffffffffff1673ffffffffffffffffffffffffffffffffffffffff16815260200190815260200160002081905550808061825590619c6c565b9150506181ab565b506001601b600085815260200190815260200160002060006101000a81548160ff0219169083151502179055506000601a600085815260200190815260200160002060006101000a81548160ff0219169083151502179055506000601c600085815260200190815260200160002060006101000a81548160ff021916908315150217905550823373ffffffffffffffffffffffffffffffffffffffff167ffdbe656509abcebb25a94a9630376c43df21fd5f51077a0c0e20965cf5a023278460405161832991906193b8565b60405180910390a3505050565b82805461834290619c09565b90600052602060002090601f01602090048101928261836457600085556183ab565b82601f1061837d57805160ff19168380011785556183ab565b828001600101855582156183ab579182015b828111156183aa57825182559160200191906001019061838f565b5b5090506183b8919061842b565b5090565b6040518061014001604052806000815260200160608152602001600081526020016000815260200160001515815260200160001515815260200160008152602001600073ffffffffffffffffffffffffffffffffffffffff168152602001600015158152602001600081525090565b5b8082111561844457600081600090555060010161842c565b5090565b600061845b618456846197da565b6197b5565b9050808382526020820190508285602086028201111561847a57600080fd5b60005b858110156184aa57816184908882618507565b84526020840193506020830192505060018101905061847d565b5050509392505050565b60006184c76184c284619806565b6197b5565b9050828152602081018484840111156184df57600080fd5b6184ea848285619bc7565b509392505050565b6000813590506185018161a105565b92915050565b6000815190506185168161a105565b92915050565b600082601f83011261852d57600080fd5b815161853d848260208601618448565b91505092915050565b6000813590506185558161a11c565b92915050565b60008151905061856a8161a11c565b92915050565b60008151905061857f8161a133565b92915050565b6000815190506185948161a14a565b92915050565b6000815190506185a98161a161565b92915050565b6000815190506185be8161a178565b92915050565b6000815190506185d38161a18f565b92915050565b6000815190506185e88161a1a6565b92915050565b6000815190506185fd8161a1bd565b92915050565b6000815190506186128161a1d4565b92915050565b6000815190506186278161a1eb565b92915050565b60008151905061863c8161a202565b92915050565b600082601f83011261865357600080fd5b81356186638482602086016184b4565b91505092915050565b60008135905061867b8161a219565b92915050565b6000815190506186908161a219565b92915050565b6000602082840312156186a857600080fd5b60006186b6848285016184f2565b91505092915050565b6000602082840312156186d157600080fd5b60006186df84828501618507565b91505092915050565b600080604083850312156186fb57600080fd5b6000618709858286016184f2565b925050602061871a858286016184f2565b9150509250929050565b60008060006060848603121561873957600080fd5b6000618747868287016184f2565b9350506020618758868287016184f2565b9250506040618769868287016184f2565b9150509250925092565b6000806000806080858703121561878957600080fd5b6000618797878288016184f2565b94505060206187a8878288016184f2565b93505060406187b9878288016184f2565b92505060606187ca878288016184f2565b91505092959194509250565b600080604083850312156187e957600080fd5b60006187f7858286016184f2565b925050602083013567ffffffffffffffff81111561881457600080fd5b61882085828601618642565b9150509250929050565b6000806040838503121561883d57600080fd5b600061884b858286016184f2565b925050602061885c8582860161866c565b9150509250929050565b60006020828403121561887857600080fd5b600082015167ffffffffffffffff81111561889257600080fd5b61889e8482850161851c565b91505092915050565b6000602082840312156188b957600080fd5b60006188c78482850161855b565b91505092915050565b6000602082840312156188e257600080fd5b60006188f084828501618570565b91505092915050565b60006020828403121561890b57600080fd5b600061891984828501618585565b91505092915050565b60006020828403121561893457600080fd5b60006189428482850161859a565b91505092915050565b60006020828403121561895d57600080fd5b600061896b848285016185af565b91505092915050565b60006020828403121561898657600080fd5b6000618994848285016185c4565b91505092915050565b6000602082840312156189af57600080fd5b60006189bd848285016185d9565b91505092915050565b6000602082840312156189d857600080fd5b60006189e6848285016185ee565b91505092915050565b600060208284031215618a0157600080fd5b6000618a0f84828501618603565b91505092915050565b600060208284031215618a2a57600080fd5b6000618a3884828501618618565b91505092915050565b600060208284031215618a5357600080fd5b6000618a618482850161862d565b91505092915050565b600060208284031215618a7c57600080fd5b600082013567ffffffffffffffff811115618a9657600080fd5b618aa284828501618642565b91505092915050565b600060208284031215618abd57600080fd5b6000618acb8482850161866c565b91505092915050565b600060208284031215618ae657600080fd5b6000618af484828501618681565b91505092915050565b60008060408385031215618b1057600080fd5b6000618b1e8582860161866c565b9250506020618b2f858286016184f2565b9150509250929050565b60008060408385031215618b4c57600080fd5b6000618b5a8582860161866c565b925050602083013567ffffffffffffffff811115618b7757600080fd5b618b8385828601618642565b9150509250929050565b60008060408385031215618ba057600080fd5b6000618bae85828601618681565b9250506020618bbf85828601618681565b9150509250929050565b60008060008060808587031215618bdf57600080fd5b6000618bed8782880161866c565b9450506020618bfe8782880161866c565b9350506040618c0f87828801618546565b9250506060618c208782880161866c565b91505092959194509250565b600080600060608486031215618c4157600080fd5b6000618c4f8682870161866c565b9350506020618c608682870161866c565b9250506040618c718682870161866c565b9150509250925092565b618c848161998f565b82525050565b618c938161998f565b82525050565b618ca2816199a1565b82525050565b618cb1816199a1565b82525050565b6000618cc282619837565b618ccc818561984d565b9350618cdc818560208601619bd6565b80840191505092915050565b618cf181619a83565b82525050565b618d0081619aa7565b82525050565b618d0f81619acb565b82525050565b618d1e81619aef565b82525050565b618d2d81619b13565b82525050565b618d3c81619b37565b82525050565b618d4b81619b5b565b82525050565b618d5a81619b7f565b82525050565b618d6981619ba3565b82525050565b6000618d7a82619842565b618d848185619858565b9350618d94818560208601619bd6565b618d9d81619d71565b840191505092915050565b6000618db382619842565b618dbd8185619869565b9350618dcd818560208601619bd6565b618dd681619d71565b840191505092915050565b6000618dee600783619869565b9150618df982619d82565b602082019050919050565b6000618e11600783619869565b9150618e1c82619dab565b602082019050919050565b6000618e34600883619869565b9150618e3f82619dd4565b602082019050919050565b6000618e57600783619869565b9150618e6282619dfd565b602082019050919050565b6000618e7a600583619869565b9150618e8582619e26565b602082019050919050565b6000618e9d600583619869565b9150618ea882619e4f565b602082019050919050565b6000618ec0600a83619869565b9150618ecb82619e78565b602082019050919050565b6000618ee3600883619869565b9150618eee82619ea1565b602082019050919050565b6000618f06600b83619869565b9150618f1182619eca565b602082019050919050565b6000618f29600683619869565b9150618f3482619ef3565b602082019050919050565b6000618f4c600883619869565b9150618f5782619f1c565b602082019050919050565b6000618f6f600683619869565b9150618f7a82619f45565b602082019050919050565b6000618f92600983619869565b9150618f9d82619f6e565b602082019050919050565b6000618fb5600683619869565b9150618fc082619f97565b602082019050919050565b6000618fd8600783619869565b9150618fe382619fc0565b602082019050919050565b6000618ffb600883619869565b915061900682619fe9565b602082019050919050565b600061901e600583619869565b91506190298261a012565b602082019050919050565b6000619041600583619869565b915061904c8261a03b565b602082019050919050565b6000619064602483619869565b915061906f8261a064565b604082019050919050565b6000619087601f83619869565b91506190928261a0b3565b602082019050919050565b60006190aa600583619869565b91506190b58261a0dc565b602082019050919050565b6000610140830160008301516190d9600086018261919a565b50602083015184820360208601526190f18282618d6f565b9150506040830151619106604086018261919a565b506060830151619119606086018261919a565b50608083015161912c6080860182618c99565b5060a083015161913f60a0860182618c99565b5060c083015161915260c086018261919a565b5060e083015161916560e0860182618c7b565b5061010083015161917a610100860182618c99565b5061012083015161918f61012086018261919a565b508091505092915050565b6191a381619a79565b82525050565b6191b281619a79565b82525050565b60006191c48284618cb7565b915081905092915050565b60006020820190506191e46000830184618c8a565b92915050565b60006040820190506191ff6000830185618c8a565b61920c6020830184618c8a565b9392505050565b60006060820190506192286000830186618c8a565b6192356020830185618c8a565b61924260408301846191a9565b949350505050565b600060408201905061925f6000830185618c8a565b61926c60208301846191a9565b9392505050565b60006060820190506192886000830186618c8a565b61929560208301856191a9565b6192a26040830184618c8a565b949350505050565b60006020820190506192bf6000830184618ca8565b92915050565b60006020820190506192da6000830184618ce8565b92915050565b60006020820190506192f56000830184618cf7565b92915050565b60006020820190506193106000830184618d06565b92915050565b600060208201905061932b6000830184618d15565b92915050565b60006020820190506193466000830184618d24565b92915050565b60006020820190506193616000830184618d33565b92915050565b600060208201905061937c6000830184618d42565b92915050565b60006020820190506193976000830184618d51565b92915050565b60006020820190506193b26000830184618d60565b92915050565b600060208201905081810360008301526193d28184618da8565b905092915050565b600060208201905081810360008301526193f381618de1565b9050919050565b6000602082019050818103600083015261941381618e04565b9050919050565b6000602082019050818103600083015261943381618e27565b9050919050565b6000602082019050818103600083015261945381618e4a565b9050919050565b6000602082019050818103600083015261947381618e6d565b9050919050565b6000602082019050818103600083015261949381618e90565b9050919050565b600060208201905081810360008301526194b381618eb3565b9050919050565b600060208201905081810360008301526194d381618ed6565b9050919050565b600060208201905081810360008301526194f381618ef9565b9050919050565b6000602082019050818103600083015261951381618f1c565b9050919050565b6000602082019050818103600083015261953381618f3f565b9050919050565b6000602082019050818103600083015261955381618f62565b9050919050565b6000602082019050818103600083015261957381618f85565b9050919050565b6000602082019050818103600083015261959381618fa8565b9050919050565b600060208201905081810360008301526195b381618fcb565b9050919050565b600060208201905081810360008301526195d381618fee565b9050919050565b600060208201905081810360008301526195f381619011565b9050919050565b6000602082019050818103600083015261961381619034565b9050919050565b6000602082019050818103600083015261963381619057565b9050919050565b600060208201905081810360008301526196538161907a565b9050919050565b600060208201905081810360008301526196738161909d565b9050919050565b6000602082019050818103600083015261969481846190c0565b905092915050565b60006020820190506196b160008301846191a9565b92915050565b60006040820190506196cc60008301856191a9565b6196d96020830184618c8a565b9392505050565b60006040820190506196f560008301856191a9565b81810360208301526197078184618da8565b90509392505050565b600060408201905061972560008301856191a9565b61973260208301846191a9565b9392505050565b600060808201905061974e60008301876191a9565b61975b60208301866191a9565b6197686040830185618c8a565b6197756060830184618c8a565b95945050505050565b600060608201905061979360008301866191a9565b6197a060208301856191a9565b6197ad60408301846191a9565b949350505050565b60006197bf6197d0565b90506197cb8282619c3b565b919050565b6000604051905090565b600067ffffffffffffffff8211156197f5576197f4619d42565b5b602082029050602081019050919050565b600067ffffffffffffffff82111561982157619820619d42565b5b61982a82619d71565b9050602081019050919050565b600081519050919050565b600081519050919050565b600081905092915050565b600082825260208201905092915050565b600082825260208201905092915050565b600061988582619a79565b915061989083619a79565b9250827fffffffffffffffffffffffffffffffffffffffffffffffffffffffffffffffff038211156198c5576198c4619cb5565b5b828201905092915050565b60006198db82619a79565b91506198e683619a79565b9250826198f6576198f5619ce4565b5b828204905092915050565b600061990c82619a79565b915061991783619a79565b9250817fffffffffffffffffffffffffffffffffffffffffffffffffffffffffffffffff04831182151516156199505761994f619cb5565b5b828202905092915050565b600061996682619a79565b915061997183619a79565b92508282101561998457619983619cb5565b5b828203905092915050565b600061999a82619a59565b9050919050565b60008115159050919050565b6000819050919050565b60006199c28261998f565b9050919050565b60006199d48261998f565b9050919050565b60006199e68261998f565b9050919050565b60006199f88261998f565b9050919050565b6000619a0a8261998f565b9050919050565b6000619a1c8261998f565b9050919050565b6000619a2e8261998f565b9050919050565b6000619a408261998f565b9050919050565b6000619a528261998f565b9050919050565b600073ffffffffffffffffffffffffffffffffffffffff82169050919050565b6000819050919050565b6000619a8e82619a95565b9050919050565b6000619aa082619a59565b9050919050565b6000619ab282619ab9565b9050919050565b6000619ac482619a59565b9050919050565b6000619ad682619add565b9050919050565b6000619ae882619a59565b9050919050565b6000619afa82619b01565b9050919050565b6000619b0c82619a59565b9050919050565b6000619b1e82619b25565b9050919050565b6000619b3082619a59565b9050919050565b6000619b4282619b49565b9050919050565b6000619b5482619a59565b9050919050565b6000619b6682619b6d565b9050919050565b6000619b7882619a59565b9050919050565b6000619b8a82619b91565b9050919050565b6000619b9c82619a59565b9050919050565b6000619bae82619bb5565b9050919050565b6000619bc082619a59565b9050919050565b82818337600083830152505050565b60005b83811015619bf4578082015181840152602081019050619bd9565b83811115619c03576000848401525b50505050565b60006002820490506001821680619c2157607f821691505b60208210811415619c3557619c34619d13565b5b50919050565b619c4482619d71565b810181811067ffffffffffffffff82111715619c6357619c62619d42565b5b80604052505050565b6000619c7782619a79565b91507fffffffffffffffffffffffffffffffffffffffffffffffffffffffffffffffff821415619caa57619ca9619cb5565b5b600182019050919050565b7f4e487b7100000000000000000000000000000000000000000000000000000000600052601160045260246000fd5b7f4e487b7100000000000000000000000000000000000000000000000000000000600052601260045260246000fd5b7f4e487b7100000000000000000000000000000000000000000000000000000000600052602260045260246000fd5b7f4e487b7100000000000000000000000000000000000000000000000000000000600052604160045260246000fd5b6000601f19601f8301169050919050565b7f216c697374656400000000000000000000000000000000000000000000000000600082015250565b7f5245544952454400000000000000000000000000000000000000000000000000600082015250565b7f494e414354495645000000000000000000000000000000000000000000000000600082015250565b7f21414d4f554e5400000000000000000000000000000000000000000000000000600082015250565b7f564f544544000000000000000000000000000000000000000000000000000000600082015250565b7f214f50454e000000000000000000000000000000000000000000000000000000600082015250565b7f21656d697373696f6e7300000000000000000000000000000000000000000000600082015250565b7f21636f6f6c6f6666000000000000000000000000000000000000000000000000600082015250565b7f2166696e616c6973696e67000000000000000000000000000000000000000000600082015250565b7f21564f5445440000000000000000000000000000000000000000000000000000600082015250565b7f2163757261746564000000000000000000000000000000000000000000000000600082015250565b7f2156414c49440000000000000000000000000000000000000000000000000000600082015250565b7f217472616e736665720000000000000000000000000000000000000000000000600082015250565b7f21706172616d0000000000000000000000000000000000000000000000000000600082015250565b7f21616d6f756e7400000000000000000000000000000000000000000000000000600082015250565b7f2161646472657373000000000000000000000000000000000000000000000000600082015250565b7f2153414645000000000000000000000000000000000000000000000000000000600082015250565b7f216f70656e000000000000000000000000000000000000000000000000000000600082015250565b7f5472616e7366657248656c7065723a205452414e534645525f46524f4d5f464160008201527f494c454400000000000000000000000000000000000000000000000000000000602082015250565b7f5265656e7472616e637947756172643a207265656e7472616e742063616c6c00600082015250565b7f2164617973000000000000000000000000000000000000000000000000000000600082015250565b61a10e8161998f565b811461a11957600080fd5b50565b61a125816199a1565b811461a13057600080fd5b50565b61a13c816199ad565b811461a14757600080fd5b50565b61a153816199b7565b811461a15e57600080fd5b50565b61a16a816199c9565b811461a17557600080fd5b50565b61a181816199db565b811461a18c57600080fd5b50565b61a198816199ed565b811461a1a357600080fd5b50565b61a1af816199ff565b811461a1ba57600080fd5b50565b61a1c681619a11565b811461a1d157600080fd5b50565b61a1dd81619a23565b811461a1e857600080fd5b50565b61a1f481619a35565b811461a1ff57600080fd5b50565b61a20b81619a47565b811461a21657600080fd5b50565b61a22281619a79565b811461a22d57600080fd5b5056fea2646970667358221220b697b37976d4ba0b406da514c8ae9af5ace4f1779addac8bd0d0211a461c922e64736f6c63430008030033",
  "linkReferences": {},
  "deployedLinkReferences": {}
}