{
  "_format": "hh-sol-artifact-1",
  "contractName": "Dao",
  "sourceName": "contracts/Dao.sol",
  "abi": [
    {
      "inputs": [
        {
          "internalType": "address",
          "name": "_base",
          "type": "address"
        }
      ],
      "stateMutability": "nonpayable",
      "type": "constructor"
    },
    {
      "anonymous": false,
      "inputs": [
        {
          "indexed": true,
          "internalType": "address",
          "name": "member",
          "type": "address"
        },
        {
          "indexed": true,
          "internalType": "uint256",
          "name": "proposalID",
          "type": "uint256"
        }
      ],
      "name": "CancelProposal",
      "type": "event"
    },
    {
      "anonymous": false,
      "inputs": [
        {
          "indexed": true,
          "internalType": "address",
          "name": "DAO",
          "type": "address"
        },
        {
          "indexed": true,
          "internalType": "address",
          "name": "asset",
          "type": "address"
        }
      ],
      "name": "DelistedAsset",
      "type": "event"
    },
    {
      "anonymous": false,
      "inputs": [
        {
          "indexed": true,
          "internalType": "address",
          "name": "owner",
          "type": "address"
        },
        {
          "indexed": false,
          "internalType": "uint256",
          "name": "depositAmount",
          "type": "uint256"
        },
        {
          "indexed": false,
          "internalType": "uint256",
          "name": "bondedLP",
          "type": "uint256"
        }
      ],
      "name": "DepositAsset",
      "type": "event"
    },
    {
      "anonymous": false,
      "inputs": [
        {
          "indexed": true,
          "internalType": "address",
          "name": "member",
          "type": "address"
        },
        {
          "indexed": true,
          "internalType": "uint256",
          "name": "proposalID",
          "type": "uint256"
        },
        {
          "indexed": false,
          "internalType": "uint256",
          "name": "votesCast",
          "type": "uint256"
        },
        {
          "indexed": false,
          "internalType": "uint256",
          "name": "totalWeight",
          "type": "uint256"
        },
        {
          "indexed": false,
          "internalType": "string",
          "name": "proposalType",
          "type": "string"
        }
      ],
      "name": "FinalisedProposal",
      "type": "event"
    },
    {
      "anonymous": false,
      "inputs": [
        {
          "indexed": true,
          "internalType": "address",
          "name": "DAO",
          "type": "address"
        },
        {
          "indexed": true,
          "internalType": "address",
          "name": "asset",
          "type": "address"
        }
      ],
      "name": "ListedAsset",
      "type": "event"
    },
    {
      "anonymous": false,
      "inputs": [
        {
          "indexed": true,
          "internalType": "address",
          "name": "member",
          "type": "address"
        },
        {
          "indexed": true,
          "internalType": "address",
          "name": "pool",
          "type": "address"
        },
        {
          "indexed": false,
          "internalType": "uint256",
          "name": "amount",
          "type": "uint256"
        }
      ],
      "name": "MemberDeposits",
      "type": "event"
    },
    {
      "anonymous": false,
      "inputs": [
        {
          "indexed": true,
          "internalType": "address",
          "name": "member",
          "type": "address"
        },
        {
          "indexed": true,
          "internalType": "address",
          "name": "pool",
          "type": "address"
        },
        {
          "indexed": false,
          "internalType": "uint256",
          "name": "balance",
          "type": "uint256"
        }
      ],
      "name": "MemberWithdraws",
      "type": "event"
    },
    {
      "anonymous": false,
      "inputs": [
        {
          "indexed": true,
          "internalType": "address",
          "name": "member",
          "type": "address"
        },
        {
          "indexed": true,
          "internalType": "uint256",
          "name": "proposalID",
          "type": "uint256"
        },
        {
          "indexed": false,
          "internalType": "string",
          "name": "proposalType",
          "type": "string"
        }
      ],
      "name": "NewProposal",
      "type": "event"
    },
    {
      "anonymous": false,
      "inputs": [
        {
          "indexed": true,
          "internalType": "address",
          "name": "member",
          "type": "address"
        },
        {
          "indexed": true,
          "internalType": "uint256",
          "name": "proposalID",
          "type": "uint256"
        },
        {
          "indexed": false,
          "internalType": "uint256",
          "name": "voteWeight",
          "type": "uint256"
        },
        {
          "indexed": false,
          "internalType": "uint256",
          "name": "totalVotes",
          "type": "uint256"
        },
        {
          "indexed": false,
          "internalType": "string",
          "name": "proposalType",
          "type": "string"
        }
      ],
      "name": "NewVote",
      "type": "event"
    },
    {
      "anonymous": false,
      "inputs": [
        {
          "indexed": true,
          "internalType": "address",
          "name": "member",
          "type": "address"
        },
        {
          "indexed": true,
          "internalType": "uint256",
          "name": "proposalID",
          "type": "uint256"
        },
        {
          "indexed": false,
          "internalType": "uint256",
          "name": "timeFinalised",
          "type": "uint256"
        },
        {
          "indexed": false,
          "internalType": "string",
          "name": "proposalType",
          "type": "string"
        }
      ],
      "name": "ProposalFinalising",
      "type": "event"
    },
    {
      "anonymous": false,
      "inputs": [
        {
          "indexed": true,
          "internalType": "address",
          "name": "member",
          "type": "address"
        },
        {
          "indexed": true,
          "internalType": "uint256",
          "name": "proposalID",
          "type": "uint256"
        },
        {
          "indexed": false,
          "internalType": "uint256",
          "name": "voteWeight",
          "type": "uint256"
        },
        {
          "indexed": false,
          "internalType": "uint256",
          "name": "totalVotes",
          "type": "uint256"
        },
        {
          "indexed": false,
          "internalType": "string",
          "name": "proposalType",
          "type": "string"
        }
      ],
      "name": "RemovedVote",
      "type": "event"
    },
    {
      "inputs": [],
      "name": "BASE",
      "outputs": [
        {
          "internalType": "address",
          "name": "",
          "type": "address"
        }
      ],
      "stateMutability": "view",
      "type": "function"
    },
    {
      "inputs": [],
      "name": "BONDVAULT",
      "outputs": [
        {
          "internalType": "contract iBONDVAULT",
          "name": "",
          "type": "address"
        }
      ],
      "stateMutability": "view",
      "type": "function"
    },
    {
      "inputs": [],
      "name": "DAO",
      "outputs": [
        {
          "internalType": "address",
          "name": "",
          "type": "address"
        }
      ],
      "stateMutability": "view",
      "type": "function"
    },
    {
      "inputs": [],
      "name": "DAOVAULT",
      "outputs": [
        {
          "internalType": "contract iDAOVAULT",
          "name": "",
          "type": "address"
        }
      ],
      "stateMutability": "view",
      "type": "function"
    },
    {
      "inputs": [],
      "name": "DEPLOYER",
      "outputs": [
        {
          "internalType": "address",
          "name": "",
          "type": "address"
        }
      ],
      "stateMutability": "view",
      "type": "function"
    },
    {
      "inputs": [],
      "name": "LEND",
      "outputs": [
        {
          "internalType": "contract iLEND",
          "name": "",
          "type": "address"
        }
      ],
      "stateMutability": "view",
      "type": "function"
    },
    {
      "inputs": [],
      "name": "POOLFACTORY",
      "outputs": [
        {
          "internalType": "contract iPOOLFACTORY",
          "name": "",
          "type": "address"
        }
      ],
      "stateMutability": "view",
      "type": "function"
    },
    {
      "inputs": [],
      "name": "RESERVE",
      "outputs": [
        {
          "internalType": "contract iRESERVE",
          "name": "",
          "type": "address"
        }
      ],
      "stateMutability": "view",
      "type": "function"
    },
    {
      "inputs": [],
      "name": "ROUTER",
      "outputs": [
        {
          "internalType": "contract iROUTER",
          "name": "",
          "type": "address"
        }
      ],
      "stateMutability": "view",
      "type": "function"
    },
    {
      "inputs": [],
      "name": "SYNTHFACTORY",
      "outputs": [
        {
          "internalType": "contract iSYNTHFACTORY",
          "name": "",
          "type": "address"
        }
      ],
      "stateMutability": "view",
      "type": "function"
    },
    {
      "inputs": [],
      "name": "SYNTHVAULT",
      "outputs": [
        {
          "internalType": "contract iSYNTHVAULT",
          "name": "",
          "type": "address"
        }
      ],
      "stateMutability": "view",
      "type": "function"
    },
    {
      "inputs": [],
      "name": "UTILS",
      "outputs": [
        {
          "internalType": "contract iUTILS",
          "name": "",
          "type": "address"
        }
      ],
      "stateMutability": "view",
      "type": "function"
    },
    {
      "inputs": [],
      "name": "allListedAssets",
      "outputs": [
        {
          "internalType": "address[]",
          "name": "_allListedAssets",
          "type": "address[]"
        }
      ],
      "stateMutability": "view",
      "type": "function"
    },
    {
      "inputs": [
        {
          "internalType": "uint256",
          "name": "",
          "type": "uint256"
        }
      ],
      "name": "arrayMembers",
      "outputs": [
        {
          "internalType": "address",
          "name": "",
          "type": "address"
        }
      ],
      "stateMutability": "view",
      "type": "function"
    },
    {
      "inputs": [],
      "name": "assetListedCount",
      "outputs": [
        {
          "internalType": "uint256",
          "name": "count",
          "type": "uint256"
        }
      ],
      "stateMutability": "view",
      "type": "function"
    },
    {
      "inputs": [
        {
          "internalType": "address",
          "name": "asset",
          "type": "address"
        },
        {
          "internalType": "uint256",
          "name": "amount",
          "type": "uint256"
        }
      ],
      "name": "bond",
      "outputs": [
        {
          "internalType": "bool",
          "name": "success",
          "type": "bool"
        }
      ],
      "stateMutability": "payable",
      "type": "function"
    },
    {
      "inputs": [],
      "name": "bondingPeriodSeconds",
      "outputs": [
        {
          "internalType": "uint256",
          "name": "",
          "type": "uint256"
        }
      ],
      "stateMutability": "view",
      "type": "function"
    },
    {
      "inputs": [],
      "name": "burnBalance",
      "outputs": [
        {
          "internalType": "bool",
          "name": "",
          "type": "bool"
        }
      ],
      "stateMutability": "nonpayable",
      "type": "function"
    },
    {
      "inputs": [
        {
          "internalType": "address",
          "name": "bondedMember",
          "type": "address"
        },
        {
          "internalType": "address",
          "name": "asset",
          "type": "address"
        }
      ],
      "name": "calcClaimBondedLP",
      "outputs": [
        {
          "internalType": "uint256",
          "name": "",
          "type": "uint256"
        }
      ],
      "stateMutability": "view",
      "type": "function"
    },
    {
      "inputs": [
        {
          "internalType": "address",
          "name": "member",
          "type": "address"
        }
      ],
      "name": "calcCurrentReward",
      "outputs": [
        {
          "internalType": "uint256",
          "name": "",
          "type": "uint256"
        }
      ],
      "stateMutability": "view",
      "type": "function"
    },
    {
      "inputs": [
        {
          "internalType": "address",
          "name": "member",
          "type": "address"
        }
      ],
      "name": "calcReward",
      "outputs": [
        {
          "internalType": "uint256",
          "name": "",
          "type": "uint256"
        }
      ],
      "stateMutability": "view",
      "type": "function"
    },
    {
      "inputs": [],
      "name": "cancelProposal",
      "outputs": [],
      "stateMutability": "nonpayable",
      "type": "function"
    },
    {
      "inputs": [
        {
          "internalType": "uint256",
          "name": "bondingSeconds",
          "type": "uint256"
        }
      ],
      "name": "changeBondingPeriod",
      "outputs": [],
      "stateMutability": "nonpayable",
      "type": "function"
    },
    {
      "inputs": [
        {
          "internalType": "address",
          "name": "asset",
          "type": "address"
        }
      ],
      "name": "claim",
      "outputs": [
        {
          "internalType": "bool",
          "name": "",
          "type": "bool"
        }
      ],
      "stateMutability": "nonpayable",
      "type": "function"
    },
    {
      "inputs": [
        {
          "internalType": "address[]",
          "name": "bondAssets",
          "type": "address[]"
        }
      ],
      "name": "claimAll",
      "outputs": [
        {
          "internalType": "bool",
          "name": "",
          "type": "bool"
        }
      ],
      "stateMutability": "nonpayable",
      "type": "function"
    },
    {
      "inputs": [],
      "name": "coolOffPeriod",
      "outputs": [
        {
          "internalType": "uint256",
          "name": "",
          "type": "uint256"
        }
      ],
      "stateMutability": "view",
      "type": "function"
    },
    {
      "inputs": [],
      "name": "currentProposal",
      "outputs": [
        {
          "internalType": "uint256",
          "name": "",
          "type": "uint256"
        }
      ],
      "stateMutability": "view",
      "type": "function"
    },
    {
      "inputs": [],
      "name": "daoClaim",
      "outputs": [
        {
          "internalType": "uint256",
          "name": "",
          "type": "uint256"
        }
      ],
      "stateMutability": "view",
      "type": "function"
    },
    {
      "inputs": [],
      "name": "daoFee",
      "outputs": [
        {
          "internalType": "uint256",
          "name": "",
          "type": "uint256"
        }
      ],
      "stateMutability": "view",
      "type": "function"
    },
    {
      "inputs": [],
      "name": "daoHasMoved",
      "outputs": [
        {
          "internalType": "bool",
          "name": "",
          "type": "bool"
        }
      ],
      "stateMutability": "view",
      "type": "function"
    },
    {
      "inputs": [
        {
          "internalType": "address",
          "name": "asset",
          "type": "address"
        }
      ],
      "name": "delistBondAsset",
      "outputs": [],
      "stateMutability": "nonpayable",
      "type": "function"
    },
    {
      "inputs": [
        {
          "internalType": "address",
          "name": "pool",
          "type": "address"
        },
        {
          "internalType": "uint256",
          "name": "amount",
          "type": "uint256"
        }
      ],
      "name": "deposit",
      "outputs": [],
      "stateMutability": "nonpayable",
      "type": "function"
    },
    {
      "inputs": [],
      "name": "erasToEarn",
      "outputs": [
        {
          "internalType": "uint256",
          "name": "",
          "type": "uint256"
        }
      ],
      "stateMutability": "view",
      "type": "function"
    },
    {
      "inputs": [],
      "name": "finaliseProposal",
      "outputs": [],
      "stateMutability": "nonpayable",
      "type": "function"
    },
    {
      "inputs": [
        {
          "internalType": "uint256",
          "name": "proposalID",
          "type": "uint256"
        }
      ],
      "name": "getProposalDetails",
      "outputs": [
        {
          "components": [
            {
              "internalType": "uint256",
              "name": "id",
              "type": "uint256"
            },
            {
              "internalType": "string",
              "name": "proposalType",
              "type": "string"
            },
            {
              "internalType": "uint256",
              "name": "votes",
              "type": "uint256"
            },
            {
              "internalType": "uint256",
              "name": "coolOffTime",
              "type": "uint256"
            },
            {
              "internalType": "bool",
              "name": "finalising",
              "type": "bool"
            },
            {
              "internalType": "bool",
              "name": "finalised",
              "type": "bool"
            },
            {
              "internalType": "uint256",
              "name": "param",
              "type": "uint256"
            },
            {
              "internalType": "address",
              "name": "proposedAddress",
              "type": "address"
            },
            {
              "internalType": "bool",
              "name": "open",
              "type": "bool"
            },
            {
              "internalType": "uint256",
              "name": "startTime",
              "type": "uint256"
            }
          ],
          "internalType": "struct Dao.ProposalDetails",
          "name": "proposalDetails",
          "type": "tuple"
        }
      ],
      "stateMutability": "view",
      "type": "function"
    },
    {
      "inputs": [],
      "name": "harvest",
      "outputs": [],
      "stateMutability": "nonpayable",
      "type": "function"
    },
    {
      "inputs": [
        {
          "internalType": "uint256",
          "name": "_proposalID",
          "type": "uint256"
        }
      ],
      "name": "hasMajority",
      "outputs": [
        {
          "internalType": "bool",
          "name": "",
          "type": "bool"
        }
      ],
      "stateMutability": "view",
      "type": "function"
    },
    {
      "inputs": [
        {
          "internalType": "uint256",
          "name": "_proposalID",
          "type": "uint256"
        }
      ],
      "name": "hasQuorum",
      "outputs": [
        {
          "internalType": "bool",
          "name": "",
          "type": "bool"
        }
      ],
      "stateMutability": "view",
      "type": "function"
    },
    {
      "inputs": [
        {
          "internalType": "address",
          "name": "",
          "type": "address"
        }
      ],
      "name": "isListed",
      "outputs": [
        {
          "internalType": "bool",
          "name": "",
          "type": "bool"
        }
      ],
      "stateMutability": "view",
      "type": "function"
    },
    {
      "inputs": [
        {
          "internalType": "address",
          "name": "",
          "type": "address"
        }
      ],
      "name": "isMember",
      "outputs": [
        {
          "internalType": "bool",
          "name": "",
          "type": "bool"
        }
      ],
      "stateMutability": "view",
      "type": "function"
    },
    {
      "inputs": [
        {
          "internalType": "address",
          "name": "asset",
          "type": "address"
        }
      ],
      "name": "listBondAsset",
      "outputs": [],
      "stateMutability": "nonpayable",
      "type": "function"
    },
    {
      "inputs": [],
      "name": "majorityFactor",
      "outputs": [
        {
          "internalType": "uint256",
          "name": "",
          "type": "uint256"
        }
      ],
      "stateMutability": "view",
      "type": "function"
    },
    {
      "inputs": [
        {
          "internalType": "address",
          "name": "",
          "type": "address"
        }
      ],
      "name": "mapMember_lastTime",
      "outputs": [
        {
          "internalType": "uint256",
          "name": "",
          "type": "uint256"
        }
      ],
      "stateMutability": "view",
      "type": "function"
    },
    {
      "inputs": [
        {
          "internalType": "uint256",
          "name": "",
          "type": "uint256"
        },
        {
          "internalType": "address",
          "name": "",
          "type": "address"
        }
      ],
      "name": "mapPIDAsset_votes",
      "outputs": [
        {
          "internalType": "uint256",
          "name": "",
          "type": "uint256"
        }
      ],
      "stateMutability": "view",
      "type": "function"
    },
    {
      "inputs": [
        {
          "internalType": "uint256",
          "name": "",
          "type": "uint256"
        }
      ],
      "name": "mapPID_address",
      "outputs": [
        {
          "internalType": "address",
          "name": "",
          "type": "address"
        }
      ],
      "stateMutability": "view",
      "type": "function"
    },
    {
      "inputs": [
        {
          "internalType": "uint256",
          "name": "",
          "type": "uint256"
        }
      ],
      "name": "mapPID_coolOffTime",
      "outputs": [
        {
          "internalType": "uint256",
          "name": "",
          "type": "uint256"
        }
      ],
      "stateMutability": "view",
      "type": "function"
    },
    {
      "inputs": [
        {
          "internalType": "uint256",
          "name": "",
          "type": "uint256"
        }
      ],
      "name": "mapPID_finalised",
      "outputs": [
        {
          "internalType": "bool",
          "name": "",
          "type": "bool"
        }
      ],
      "stateMutability": "view",
      "type": "function"
    },
    {
      "inputs": [
        {
          "internalType": "uint256",
          "name": "",
          "type": "uint256"
        }
      ],
      "name": "mapPID_finalising",
      "outputs": [
        {
          "internalType": "bool",
          "name": "",
          "type": "bool"
        }
      ],
      "stateMutability": "view",
      "type": "function"
    },
    {
      "inputs": [
        {
          "internalType": "uint256",
          "name": "",
          "type": "uint256"
        }
      ],
      "name": "mapPID_open",
      "outputs": [
        {
          "internalType": "bool",
          "name": "",
          "type": "bool"
        }
      ],
      "stateMutability": "view",
      "type": "function"
    },
    {
      "inputs": [
        {
          "internalType": "uint256",
          "name": "",
          "type": "uint256"
        }
      ],
      "name": "mapPID_param",
      "outputs": [
        {
          "internalType": "uint256",
          "name": "",
          "type": "uint256"
        }
      ],
      "stateMutability": "view",
      "type": "function"
    },
    {
      "inputs": [
        {
          "internalType": "uint256",
          "name": "",
          "type": "uint256"
        }
      ],
      "name": "mapPID_startTime",
      "outputs": [
        {
          "internalType": "uint256",
          "name": "",
          "type": "uint256"
        }
      ],
      "stateMutability": "view",
      "type": "function"
    },
    {
      "inputs": [
        {
          "internalType": "uint256",
          "name": "",
          "type": "uint256"
        }
      ],
      "name": "mapPID_type",
      "outputs": [
        {
          "internalType": "string",
          "name": "",
          "type": "string"
        }
      ],
      "stateMutability": "view",
      "type": "function"
    },
    {
      "inputs": [],
      "name": "memberCount",
      "outputs": [
        {
          "internalType": "uint256",
          "name": "",
          "type": "uint256"
        }
      ],
      "stateMutability": "view",
      "type": "function"
    },
    {
      "inputs": [
        {
          "internalType": "address",
          "name": "newDAO",
          "type": "address"
        }
      ],
      "name": "moveBASEBalance",
      "outputs": [],
      "stateMutability": "nonpayable",
      "type": "function"
    },
    {
      "inputs": [
        {
          "internalType": "string",
          "name": "typeStr",
          "type": "string"
        }
      ],
      "name": "newActionProposal",
      "outputs": [
        {
          "internalType": "uint256",
          "name": "",
          "type": "uint256"
        }
      ],
      "stateMutability": "nonpayable",
      "type": "function"
    },
    {
      "inputs": [
        {
          "internalType": "address",
          "name": "proposedAddress",
          "type": "address"
        },
        {
          "internalType": "string",
          "name": "typeStr",
          "type": "string"
        }
      ],
      "name": "newAddressProposal",
      "outputs": [
        {
          "internalType": "uint256",
          "name": "",
          "type": "uint256"
        }
      ],
      "stateMutability": "nonpayable",
      "type": "function"
    },
    {
      "inputs": [
        {
          "internalType": "address",
          "name": "recipient",
          "type": "address"
        },
        {
          "internalType": "uint256",
          "name": "amount",
          "type": "uint256"
        }
      ],
      "name": "newGrantProposal",
      "outputs": [
        {
          "internalType": "uint256",
          "name": "",
          "type": "uint256"
        }
      ],
      "stateMutability": "nonpayable",
      "type": "function"
    },
    {
      "inputs": [
        {
          "internalType": "uint256",
          "name": "param",
          "type": "uint256"
        },
        {
          "internalType": "string",
          "name": "typeStr",
          "type": "string"
        }
      ],
      "name": "newParamProposal",
      "outputs": [
        {
          "internalType": "uint256",
          "name": "",
          "type": "uint256"
        }
      ],
      "stateMutability": "nonpayable",
      "type": "function"
    },
    {
      "inputs": [],
      "name": "proposalCount",
      "outputs": [
        {
          "internalType": "uint256",
          "name": "",
          "type": "uint256"
        }
      ],
      "stateMutability": "view",
      "type": "function"
    },
    {
      "inputs": [],
      "name": "purgeDeployer",
      "outputs": [],
      "stateMutability": "nonpayable",
      "type": "function"
    },
    {
      "inputs": [],
      "name": "removeVote",
      "outputs": [
        {
          "internalType": "uint256",
          "name": "voteWeightRemoved",
          "type": "uint256"
        }
      ],
      "stateMutability": "nonpayable",
      "type": "function"
    },
    {
      "inputs": [],
      "name": "retire",
      "outputs": [
        {
          "internalType": "bool",
          "name": "",
          "type": "bool"
        }
      ],
      "stateMutability": "view",
      "type": "function"
    },
    {
      "inputs": [],
      "name": "running",
      "outputs": [
        {
          "internalType": "bool",
          "name": "",
          "type": "bool"
        }
      ],
      "stateMutability": "view",
      "type": "function"
    },
    {
      "inputs": [],
      "name": "secondsPerEra",
      "outputs": [
        {
          "internalType": "uint256",
          "name": "",
          "type": "uint256"
        }
      ],
      "stateMutability": "view",
      "type": "function"
    },
    {
      "inputs": [
        {
          "internalType": "address",
          "name": "_poolFactory",
          "type": "address"
        },
        {
          "internalType": "address",
          "name": "_synthFactory",
          "type": "address"
        }
      ],
      "name": "setFactoryAddresses",
      "outputs": [],
      "stateMutability": "nonpayable",
      "type": "function"
    },
    {
      "inputs": [
        {
          "internalType": "address",
          "name": "_router",
          "type": "address"
        },
        {
          "internalType": "address",
          "name": "_utils",
          "type": "address"
        },
        {
          "internalType": "address",
          "name": "_reserve",
          "type": "address"
        },
        {
          "internalType": "address",
          "name": "_lend",
          "type": "address"
        }
      ],
      "name": "setGenesisAddresses",
      "outputs": [],
      "stateMutability": "nonpayable",
      "type": "function"
    },
    {
      "inputs": [
        {
          "internalType": "uint256",
          "name": "_coolOff",
          "type": "uint256"
        },
        {
          "internalType": "uint256",
          "name": "_erasToEarn",
          "type": "uint256"
        },
        {
          "internalType": "uint256",
          "name": "_majorityFactor",
          "type": "uint256"
        },
        {
          "internalType": "uint256",
          "name": "_daoClaim",
          "type": "uint256"
        },
        {
          "internalType": "uint256",
          "name": "_daoFee",
          "type": "uint256"
        }
      ],
      "name": "setGenesisFactors",
      "outputs": [],
      "stateMutability": "nonpayable",
      "type": "function"
    },
    {
      "inputs": [
        {
          "internalType": "address",
          "name": "_daovault",
          "type": "address"
        },
        {
          "internalType": "address",
          "name": "_bondvault",
          "type": "address"
        },
        {
          "internalType": "address",
          "name": "_synthVault",
          "type": "address"
        }
      ],
      "name": "setVaultAddresses",
      "outputs": [],
      "stateMutability": "nonpayable",
      "type": "function"
    },
    {
      "inputs": [],
      "name": "voteProposal",
      "outputs": [
        {
          "internalType": "uint256",
          "name": "voteWeight",
          "type": "uint256"
        }
      ],
      "stateMutability": "nonpayable",
      "type": "function"
    },
    {
      "inputs": [
        {
          "internalType": "uint256",
          "name": "",
          "type": "uint256"
        }
      ],
      "name": "votingAddresses",
      "outputs": [
        {
          "internalType": "address",
          "name": "",
          "type": "address"
        }
      ],
      "stateMutability": "view",
      "type": "function"
    },
    {
      "inputs": [
        {
          "internalType": "address",
          "name": "pool",
          "type": "address"
        }
      ],
      "name": "withdraw",
      "outputs": [],
      "stateMutability": "nonpayable",
      "type": "function"
    }
  ],
  "bytecode": "0x608060405262ed4e006017553480156200001857600080fd5b506040516200b3413803806200b34183398181016040528101906200003e919062000237565b600160008190555080600260006101000a81548173ffffffffffffffffffffffffffffffffffffffff021916908373ffffffffffffffffffffffffffffffffffffffff16021790555033600160006101000a81548173ffffffffffffffffffffffffffffffffffffffff021916908373ffffffffffffffffffffffffffffffffffffffff16021790555030600b60016101000a81548173ffffffffffffffffffffffffffffffffffffffff021916908373ffffffffffffffffffffffffffffffffffffffff1602179055506203f480600481905550601e600781905550611a0a6006819055506103e860088190555060646009819055506000600581905550600260009054906101000a900473ffffffffffffffffffffffffffffffffffffffff1673ffffffffffffffffffffffffffffffffffffffff16636b92a3b66040518163ffffffff1660e01b815260040160206040518083038186803b158015620001a657600080fd5b505afa158015620001bb573d6000803e3d6000fd5b505050506040513d601f19601f82011682018060405250810190620001e1919062000263565b6003819055506000600260156101000a81548160ff0219169083151502179055505062000301565b6000815190506200021a81620002cd565b92915050565b6000815190506200023181620002e7565b92915050565b6000602082840312156200024a57600080fd5b60006200025a8482850162000209565b91505092915050565b6000602082840312156200027657600080fd5b6000620002868482850162000220565b91505092915050565b60006200029c82620002a3565b9050919050565b600073ffffffffffffffffffffffffffffffffffffffff82169050919050565b6000819050919050565b620002d8816200028f565b8114620002e457600080fd5b50565b620002f281620002c3565b8114620002fe57600080fd5b50565b61b03080620003116000396000f3fe6080604052600436106104105760003560e01c806379b2dc4c1161021e578063ae887c8b11610123578063d1458363116100ab578063ec342ad01161007a578063ec342ad01461107c578063f135dcf8146110a7578063f301e781146110e4578063f794062e1461110f578063f7a79a371461114c57610410565b8063d145836314610fc0578063d85bd52614610ffd578063da35c66414611028578063db634d7c1461105357610410565b8063b99b0a0c116100f2578063b99b0a0c14610ec5578063bbf8cf8214610ef0578063bc68fad914610f2d578063c05fc17814610f58578063c1b8411a14610f9557610410565b8063ae887c8b14610df7578063af04598014610e34578063b826286914610e5d578063b93ec54b14610e9a57610410565b80639d2cc436116101a6578063a4874d7711610175578063a4874d7714610d1d578063a515366a14610d48578063a6c83fed14610d78578063ab2bd8fd14610db5578063abb6154f14610dcc57610410565b80639d2cc43614610c3b578063a230c52414610c66578063a299ecb214610ca3578063a320224614610ce057610410565b80638bebea89116101ed5780638bebea8914610b685780639070577f14610ba5578063956615be14610bbc57806398fabd3a14610be75780639cd99aa214610c1257610410565b806379b2dc4c14610aaa5780637b0e5c4514610ad55780637b21f03114610b005780638351739a14610b3d57610410565b806338da7dd61161032457806349aa4ee2116102ac5780635c7366d31161027b5780635c7366d3146109c557806365c71bbf14610a0257806368bb97b314610a2d5780636b92a3b614610a565780637375898814610a8157610410565b806349aa4ee2146108f75780634b4000341461092257806351cff8d91461095f5780635c120b371461098857610410565b806343b2116f116102f357806343b2116f1461082857806346350821146108515780634636279f1461087a5780634641257d146108b757806347e7ef24146108ce57610410565b806338da7dd6146107465780633a61738d146107715780633b4d01a7146107ae578063436f80be146107eb57610410565b80632957b839116103a75780632c07eebf116103765780632c07eebf1461065d5780632f7fa18014610688578063314604fe146106b357806332fe7b26146106f057806335cb5fe01461071b57610410565b80632957b8391461059f5780632ab24e49146105ca5780632b49d425146105f55780632bee11941461062057610410565b80631e83409a116103e35780631e83409a146104d157806320b1b45d1461050e57806324efb52814610537578063293cee7d1461056257610410565b806303a821381461041557806311aee3801461042c5780631b9a293d146104575780631e2de0d114610494575b600080fd5b34801561042157600080fd5b5061042a611177565b005b34801561043857600080fd5b50610441611215565b60405161044e919061a479565b60405180910390f35b34801561046357600080fd5b5061047e6004803603810190610479919061982b565b611222565b60405161048b9190619f8a565b60405180910390f35b3480156104a057600080fd5b506104bb60048036038101906104b691906195a5565b611261565b6040516104c8919061a087565b60405180910390f35b3480156104dd57600080fd5b506104f860048036038101906104f391906193d5565b611326565b604051610505919061a087565b60405180910390f35b34801561051a57600080fd5b5061053560048036038101906105309190619949565b611439565b005b34801561054357600080fd5b5061054c6114bd565b604051610559919061a087565b60405180910390f35b34801561056e57600080fd5b5061058960048036038101906105849190619515565b6114d0565b604051610596919061a479565b60405180910390f35b3480156105ab57600080fd5b506105b4611ac2565b6040516105c1919061a479565b60405180910390f35b3480156105d657600080fd5b506105df611ac8565b6040516105ec919061a15f565b60405180910390f35b34801561060157600080fd5b5061060a611baf565b604051610617919061a479565b60405180910390f35b34801561062c57600080fd5b506106476004803603810190610642919061982b565b611bb5565b604051610654919061a087565b60405180910390f35b34801561066957600080fd5b50610672611bd5565b60405161067f919061a479565b60405180910390f35b34801561069457600080fd5b5061069d611bdb565b6040516106aa919061a0a2565b60405180910390f35b3480156106bf57600080fd5b506106da60048036038101906106d5919061982b565b611cc2565b6040516106e7919061a479565b60405180910390f35b3480156106fc57600080fd5b50610705611cda565b604051610712919061a129565b60405180910390f35b34801561072757600080fd5b50610730611dc1565b60405161073d919061a065565b60405180910390f35b34801561075257600080fd5b5061075b611e4f565b604051610768919061a0bd565b60405180910390f35b34801561077d57600080fd5b50610798600480360381019061079391906193d5565b611f36565b6040516107a5919061a479565b60405180910390f35b3480156107ba57600080fd5b506107d560048036038101906107d0919061982b565b6122c5565b6040516107e2919061a457565b60405180910390f35b3480156107f757600080fd5b50610812600480360381019061080d919061982b565b6124d4565b60405161081f9190619f8a565b60405180910390f35b34801561083457600080fd5b5061084f600480360381019061084a91906194b2565b612513565b005b34801561085d57600080fd5b5061087860048036038101906108739190619427565b612677565b005b34801561088657600080fd5b506108a1600480360381019061089c91906193d5565b612757565b6040516108ae919061a479565b60405180910390f35b3480156108c357600080fd5b506108cc61282d565b005b3480156108da57600080fd5b506108f560048036038101906108f09190619569565b612b3f565b005b34801561090357600080fd5b5061090c613005565b604051610919919061a479565b60405180910390f35b34801561092e57600080fd5b506109496004803603810190610944919061982b565b61312e565b604051610956919061a087565b60405180910390f35b34801561096b57600080fd5b50610986600480360381019061098191906193d5565b61314d565b005b34801561099457600080fd5b506109af60048036038101906109aa919061982b565b6133b5565b6040516109bc919061a087565b60405180910390f35b3480156109d157600080fd5b506109ec60048036038101906109e791906193d5565b613918565b6040516109f9919061a479565b60405180910390f35b348015610a0e57600080fd5b50610a17613930565b604051610a24919061a479565b60405180910390f35b348015610a3957600080fd5b50610a546004803603810190610a4f91906193d5565b613936565b005b348015610a6257600080fd5b50610a6b613af3565b604051610a78919061a479565b60405180910390f35b348015610a8d57600080fd5b50610aa86004803603810190610aa39190619463565b613af9565b005b348015610ab657600080fd5b50610abf613c1b565b604051610acc919061a479565b60405180910390f35b348015610ae157600080fd5b50610aea613c21565b604051610af7919061a17a565b60405180910390f35b348015610b0c57600080fd5b50610b276004803603810190610b22919061987d565b613d08565b604051610b34919061a479565b60405180910390f35b348015610b4957600080fd5b50610b52613d2d565b604051610b5f919061a479565b60405180910390f35b348015610b7457600080fd5b50610b8f6004803603810190610b8a919061982b565b614217565b604051610b9c919061a087565b60405180910390f35b348015610bb157600080fd5b50610bba614237565b005b348015610bc857600080fd5b50610bd16144c4565b604051610bde919061a479565b60405180910390f35b348015610bf357600080fd5b50610bfc6144ca565b604051610c099190619f8a565b60405180910390f35b348015610c1e57600080fd5b50610c396004803603810190610c3491906193d5565b6144f0565b005b348015610c4757600080fd5b50610c5061479f565b604051610c5d919061a10e565b60405180910390f35b348015610c7257600080fd5b50610c8d6004803603810190610c8891906193d5565b614886565b604051610c9a919061a087565b60405180910390f35b348015610caf57600080fd5b50610cca6004803603810190610cc5919061982b565b6148a6565b604051610cd7919061a479565b60405180910390f35b348015610cec57600080fd5b50610d076004803603810190610d0291906198b9565b6148be565b604051610d14919061a479565b60405180910390f35b348015610d2957600080fd5b50610d32614a93565b604051610d3f919061a087565b60405180910390f35b610d626004803603810190610d5d9190619569565b614aa6565b604051610d6f919061a087565b60405180910390f35b348015610d8457600080fd5b50610d9f6004803603810190610d9a9190619569565b614f1f565b604051610dac919061a479565b60405180910390f35b348015610dc157600080fd5b50610dca615226565b005b348015610dd857600080fd5b50610de1615a25565b604051610dee919061a479565b60405180910390f35b348015610e0357600080fd5b50610e1e6004803603810190610e19919061982b565b615a2b565b604051610e2b9190619f8a565b60405180910390f35b348015610e4057600080fd5b50610e5b6004803603810190610e56919061982b565b615a5e565b005b348015610e6957600080fd5b50610e846004803603810190610e7f919061982b565b615ac2565b604051610e91919061a479565b60405180910390f35b348015610ea657600080fd5b50610eaf615ada565b604051610ebc919061a144565b60405180910390f35b348015610ed157600080fd5b50610eda615bc1565b604051610ee7919061a0f3565b60405180910390f35b348015610efc57600080fd5b50610f176004803603810190610f12919061982b565b615ca8565b604051610f24919061a087565b60405180910390f35b348015610f3957600080fd5b50610f426161fd565b604051610f4f919061a087565b60405180910390f35b348015610f6457600080fd5b50610f7f6004803603810190610f7a919061982b565b61639d565b604051610f8c919061a195565b60405180910390f35b348015610fa157600080fd5b50610faa61643d565b604051610fb79190619f8a565b60405180910390f35b348015610fcc57600080fd5b50610fe76004803603810190610fe291906197ea565b616463565b604051610ff4919061a479565b60405180910390f35b34801561100957600080fd5b506110126165da565b60405161101f919061a087565b60405180910390f35b34801561103457600080fd5b5061103d6165ed565b60405161104a919061a479565b60405180910390f35b34801561105f57600080fd5b5061107a600480360381019061107591906193d5565b6165f3565b005b34801561108857600080fd5b50611091616a60565b60405161109e9190619f8a565b60405180910390f35b3480156110b357600080fd5b506110ce60048036038101906110c99190619427565b616a86565b6040516110db919061a479565b60405180910390f35b3480156110f057600080fd5b506110f9616b42565b604051611106919061a0d8565b60405180910390f35b34801561111b57600080fd5b50611136600480360381019061113191906193d5565b616c29565b604051611143919061a087565b60405180910390f35b34801561115857600080fd5b50611161616c49565b60405161116e919061a479565b60405180910390f35b600160009054906101000a900473ffffffffffffffffffffffffffffffffffffffff1673ffffffffffffffffffffffffffffffffffffffff163373ffffffffffffffffffffffffffffffffffffffff16146111d157600080fd5b6000600160006101000a81548173ffffffffffffffffffffffffffffffffffffffff021916908373ffffffffffffffffffffffffffffffffffffffff160217905550565b6000601580549050905090565b6018818154811061123257600080fd5b906000526020600020016000915054906101000a900473ffffffffffffffffffffffffffffffffffffffff1681565b6000600260149054906101000a900460ff16156112b3576040517f08c379a00000000000000000000000000000000000000000000000000000000081526004016112aa9061a1b7565b60405180910390fd5b60005b825181101561131c576113088382815181106112fb577f4e487b7100000000000000000000000000000000000000000000000000000000600052603260045260246000fd5b6020026020010151611326565b5080806113149061aa82565b9150506112b6565b5060019050919050565b6000600260149054906101000a900460ff1615611378576040517f08c379a000000000000000000000000000000000000000000000000000000000815260040161136f9061a1b7565b60405180910390fd5b60006113843384616a86565b9050600081111561142f57611397616c56565b600e60009054906101000a900473ffffffffffffffffffffffffffffffffffffffff1673ffffffffffffffffffffffffffffffffffffffff16635bc262be84336040518363ffffffff1660e01b81526004016113f4929190619fa5565b600060405180830381600087803b15801561140e57600080fd5b505af1158015611422573d6000803e3d6000fd5b5050505061142e616fae565b5b6001915050919050565b600160009054906101000a900473ffffffffffffffffffffffffffffffffffffffff1673ffffffffffffffffffffffffffffffffffffffff163373ffffffffffffffffffffffffffffffffffffffff161461149357600080fd5b84600481905550836007819055508260068190555081600881905550806009819055505050505050565b600b60009054906101000a900460ff1681565b6000808290506000601060009054906101000a900473ffffffffffffffffffffffffffffffffffffffff1673ffffffffffffffffffffffffffffffffffffffff1663bbe4f6db866040518263ffffffff1660e01b81526004016115339190619f8a565b60206040518083038186803b15801561154b57600080fd5b505afa15801561155f573d6000803e3d6000fd5b505050506040513d601f19601f8201168201806040525081019061158391906193fe565b90506115c4826040518060400160405280600381526020017f44414f0000000000000000000000000000000000000000000000000000000000815250617306565b8061160a5750611609826040518060400160405280600681526020017f524f555445520000000000000000000000000000000000000000000000000000815250617306565b5b80611650575061164f826040518060400160405280600581526020017f5554494c53000000000000000000000000000000000000000000000000000000815250617306565b5b806116965750611695826040518060400160405280600781526020017f5245534552564500000000000000000000000000000000000000000000000000815250617306565b5b1561171057600073ffffffffffffffffffffffffffffffffffffffff168573ffffffffffffffffffffffffffffffffffffffff16141561170b576040517f08c379a00000000000000000000000000000000000000000000000000000000081526004016117029061a3b7565b60405180910390fd5b6119bf565b61174f826040518060400160405280600981526020017f4c4953545f424f4e440000000000000000000000000000000000000000000000815250617306565b806117955750611794826040518060400160405280601381526020017f52454d4f56455f435552415445445f504f4f4c00000000000000000000000000815250617306565b5b1561188957601060009054906101000a900473ffffffffffffffffffffffffffffffffffffffff1673ffffffffffffffffffffffffffffffffffffffff16638dcb4c93826040518263ffffffff1660e01b81526004016117f59190619f8a565b60206040518083038186803b15801561180d57600080fd5b505afa158015611821573d6000803e3d6000fd5b505050506040513d601f19601f820116820180604052508101906118459190619627565b611884576040517f08c379a000000000000000000000000000000000000000000000000000000000815260040161187b9061a437565b60405180910390fd5b6119be565b6118c8826040518060400160405280600b81526020017f44454c4953545f424f4e44000000000000000000000000000000000000000000815250617306565b8061190e575061190d826040518060400160405280601081526020017f4144445f435552415445445f504f4f4c00000000000000000000000000000000815250617306565b5b61194d576040517f08c379a00000000000000000000000000000000000000000000000000000000081526004016119449061a2d7565b60405180910390fd5b600073ffffffffffffffffffffffffffffffffffffffff168173ffffffffffffffffffffffffffffffffffffffff1614156119bd576040517f08c379a00000000000000000000000000000000000000000000000000000000081526004016119b49061a437565b60405180910390fd5b5b5b6119c76173b1565b6119e5670de0b6b3a76400006009546119e0919061a717565b61760f565b5084601d6000600a54815260200190815260200160002060006101000a81548173ffffffffffffffffffffffffffffffffffffffff021916908373ffffffffffffffffffffffffffffffffffffffff16021790555083601e6000600a5481526020019081526020016000209080519060200190611a63929190618ff4565b50600a543373ffffffffffffffffffffffffffffffffffffffff167f8d500fcad86fc64a281b94ef64d6d66acbfc6862aa4ff2ee5fbbfb40736e803e86604051611aad919061a195565b60405180910390a3600a549250505092915050565b60095481565b6000600b60009054906101000a900460ff1615611b8657600b60019054906101000a900473ffffffffffffffffffffffffffffffffffffffff1673ffffffffffffffffffffffffffffffffffffffff16632ab24e496040518163ffffffff1660e01b815260040160206040518083038186803b158015611b4757600080fd5b505afa158015611b5b573d6000803e3d6000fd5b505050506040513d601f19601f82011682018060405250810190611b7f9190619798565b9050611bac565b601360009054906101000a900473ffffffffffffffffffffffffffffffffffffffff1690505b90565b600a5481565b60216020528060005260406000206000915054906101000a900460ff1681565b60075481565b6000600b60009054906101000a900460ff1615611c9957600b60019054906101000a900473ffffffffffffffffffffffffffffffffffffffff1673ffffffffffffffffffffffffffffffffffffffff16632f7fa1806040518163ffffffff1660e01b815260040160206040518083038186803b158015611c5a57600080fd5b505afa158015611c6e573d6000803e3d6000fd5b505050506040513d601f19601f82011682018060405250810190611c929190619679565b9050611cbf565b600e60009054906101000a900473ffffffffffffffffffffffffffffffffffffffff1690505b90565b601c6020528060005260406000206000915090505481565b6000600b60009054906101000a900460ff1615611d9857600b60019054906101000a900473ffffffffffffffffffffffffffffffffffffffff1673ffffffffffffffffffffffffffffffffffffffff166332fe7b266040518163ffffffff1660e01b815260040160206040518083038186803b158015611d5957600080fd5b505afa158015611d6d573d6000803e3d6000fd5b505050506040513d601f19601f82011682018060405250810190611d919190619746565b9050611dbe565b600c60009054906101000a900473ffffffffffffffffffffffffffffffffffffffff1690505b90565b60606016805480602002602001604051908101604052809291908181526020018280548015611e4557602002820191906000526020600020905b8160009054906101000a900473ffffffffffffffffffffffffffffffffffffffff1673ffffffffffffffffffffffffffffffffffffffff1681526020019060010190808311611dfb575b5050505050905090565b6000600b60009054906101000a900460ff1615611f0d57600b60019054906101000a900473ffffffffffffffffffffffffffffffffffffffff1673ffffffffffffffffffffffffffffffffffffffff166338da7dd66040518163ffffffff1660e01b815260040160206040518083038186803b158015611ece57600080fd5b505afa158015611ee2573d6000803e3d6000fd5b505050506040513d601f19601f82011682018060405250810190611f0691906196a2565b9050611f33565b600f60009054906101000a900473ffffffffffffffffffffffffffffffffffffffff1690505b90565b6000600260149054906101000a900460ff1615611f88576040517f08c379a0000000000000000000000000000000000000000000000000000000008152600401611f7f9061a1b7565b60405180910390fd5b600080600f60009054906101000a900473ffffffffffffffffffffffffffffffffffffffff1673ffffffffffffffffffffffffffffffffffffffff1663a477b804856040518263ffffffff1660e01b8152600401611fe69190619f8a565b604080518083038186803b158015611ffd57600080fd5b505afa158015612011573d6000803e3d6000fd5b505050506040513d601f19601f82011682018060405250810190612035919061990d565b91509150600080600e60009054906101000a900473ffffffffffffffffffffffffffffffffffffffff1673ffffffffffffffffffffffffffffffffffffffff1663a477b804876040518263ffffffff1660e01b81526004016120979190619f8a565b604080518083038186803b1580156120ae57600080fd5b505afa1580156120c2573d6000803e3d6000fd5b505050506040513d601f19601f820116820180604052508101906120e6919061990d565b91509150600082856120f8919061a690565b905060008285612108919061a690565b90506000600754600260009054906101000a900473ffffffffffffffffffffffffffffffffffffffff1673ffffffffffffffffffffffffffffffffffffffff166370a08231601260009054906101000a900473ffffffffffffffffffffffffffffffffffffffff166040518263ffffffff1660e01b815260040161218c9190619f8a565b60206040518083038186803b1580156121a457600080fd5b505afa1580156121b8573d6000803e3d6000fd5b505050506040513d601f19601f820116820180604052508101906121dc9190619854565b6121e6919061a6e6565b90506000612710600854836121fb919061a717565b612205919061a6e6565b9050600d60009054906101000a900473ffffffffffffffffffffffffffffffffffffffff1673ffffffffffffffffffffffffffffffffffffffff16631ba326c48585846040518463ffffffff1660e01b81526004016122669392919061a55b565b60206040518083038186803b15801561227e57600080fd5b505afa158015612292573d6000803e3d6000fd5b505050506040513d601f19601f820116820180604052508101906122b69190619854565b98505050505050505050919050565b6122cd61907a565b81816000018181525050601e600083815260200190815260200160002080546122f59061aa1f565b80601f01602080910402602001604051908101604052809291908181526020018280546123219061aa1f565b801561236e5780601f106123435761010080835404028352916020019161236e565b820191906000526020600020905b81548152906001019060200180831161235157829003601f168201915b50505050508160200181905250601f6000838152602001908152602001600020548160600181815250506020600083815260200190815260200160002060009054906101000a900460ff168160800190151590811515815250506021600083815260200190815260200160002060009054906101000a900460ff168160a0019015159081151581525050601c6000838152602001908152602001600020548160c0018181525050601d600083815260200190815260200160002060009054906101000a900473ffffffffffffffffffffffffffffffffffffffff168160e0019073ffffffffffffffffffffffffffffffffffffffff16908173ffffffffffffffffffffffffffffffffffffffff16815250506022600083815260200190815260200160002060009054906101000a900460ff1681610100019015159081151581525050602360008381526020019081526020016000205481610120018181525050919050565b601581815481106124e457600080fd5b906000526020600020016000915054906101000a900473ffffffffffffffffffffffffffffffffffffffff1681565b600160009054906101000a900473ffffffffffffffffffffffffffffffffffffffff1673ffffffffffffffffffffffffffffffffffffffff163373ffffffffffffffffffffffffffffffffffffffff161461256d57600080fd5b83600c60006101000a81548173ffffffffffffffffffffffffffffffffffffffff021916908373ffffffffffffffffffffffffffffffffffffffff16021790555082600d60006101000a81548173ffffffffffffffffffffffffffffffffffffffff021916908373ffffffffffffffffffffffffffffffffffffffff16021790555081601260006101000a81548173ffffffffffffffffffffffffffffffffffffffff021916908373ffffffffffffffffffffffffffffffffffffffff16021790555080601460006101000a81548173ffffffffffffffffffffffffffffffffffffffff021916908373ffffffffffffffffffffffffffffffffffffffff16021790555050505050565b600160009054906101000a900473ffffffffffffffffffffffffffffffffffffffff1673ffffffffffffffffffffffffffffffffffffffff163373ffffffffffffffffffffffffffffffffffffffff16146126d157600080fd5b81601060006101000a81548173ffffffffffffffffffffffffffffffffffffffff021916908373ffffffffffffffffffffffffffffffffffffffff16021790555080601160006101000a81548173ffffffffffffffffffffffffffffffffffffffff021916908373ffffffffffffffffffffffffffffffffffffffff1602179055505050565b6000600260149054906101000a900460ff16156127a9576040517f08c379a00000000000000000000000000000000000000000000000000000000081526004016127a09061a1b7565b60405180910390fd5b6000601b60008473ffffffffffffffffffffffffffffffffffffffff1673ffffffffffffffffffffffffffffffffffffffff16815260200190815260200160002054426127f6919061a771565b9050600061280384611f36565b905060006003548383612816919061a717565b612820919061a6e6565b9050809350505050919050565b600260149054906101000a900460ff161561287d576040517f08c379a00000000000000000000000000000000000000000000000000000000081526004016128749061a1b7565b60405180910390fd5b601260009054906101000a900473ffffffffffffffffffffffffffffffffffffffff1673ffffffffffffffffffffffffffffffffffffffff16632267716c6040518163ffffffff1660e01b8152600401602060405180830381600087803b1580156128e757600080fd5b505af11580156128fb573d6000803e3d6000fd5b505050506040513d601f19601f8201168201806040525081019061291f9190619627565b61295e576040517f08c379a00000000000000000000000000000000000000000000000000000000081526004016129559061a257565b60405180910390fd5b600061296933612757565b905042601b60003373ffffffffffffffffffffffffffffffffffffffff1673ffffffffffffffffffffffffffffffffffffffff168152602001908152602001600020819055506000600260009054906101000a900473ffffffffffffffffffffffffffffffffffffffff1673ffffffffffffffffffffffffffffffffffffffff166370a08231601260009054906101000a900473ffffffffffffffffffffffffffffffffffffffff166040518263ffffffff1660e01b8152600401612a2e9190619f8a565b60206040518083038186803b158015612a4657600080fd5b505afa158015612a5a573d6000803e3d6000fd5b505050506040513d601f19601f82011682018060405250810190612a7e9190619854565b9050600061271060085483612a93919061a717565b612a9d919061a6e6565b905080831115612aab578092505b601260009054906101000a900473ffffffffffffffffffffffffffffffffffffffff1673ffffffffffffffffffffffffffffffffffffffff16637d458baa84336040518363ffffffff1660e01b8152600401612b0892919061a494565b600060405180830381600087803b158015612b2257600080fd5b505af1158015612b36573d6000803e3d6000fd5b50505050505050565b600260149054906101000a900460ff1615612b8f576040517f08c379a0000000000000000000000000000000000000000000000000000000008152600401612b869061a1b7565b60405180910390fd5b60011515601060009054906101000a900473ffffffffffffffffffffffffffffffffffffffff1673ffffffffffffffffffffffffffffffffffffffff16638dcb4c93846040518263ffffffff1660e01b8152600401612bee9190619f8a565b60206040518083038186803b158015612c0657600080fd5b505afa158015612c1a573d6000803e3d6000fd5b505050506040513d601f19601f82011682018060405250810190612c3e9190619627565b151514612c80576040517f08c379a0000000000000000000000000000000000000000000000000000000008152600401612c779061a317565b60405180910390fd5b60008111612cc3576040517f08c379a0000000000000000000000000000000000000000000000000000000008152600401612cba9061a397565b60405180910390fd5b60011515601960003373ffffffffffffffffffffffffffffffffffffffff1673ffffffffffffffffffffffffffffffffffffffff16815260200190815260200160002060009054906101000a900460ff16151514612dd7576015339080600181540180825580915050600190039060005260206000200160009091909190916101000a81548173ffffffffffffffffffffffffffffffffffffffff021916908373ffffffffffffffffffffffffffffffffffffffff1602179055506001601960003373ffffffffffffffffffffffffffffffffffffffff1673ffffffffffffffffffffffffffffffffffffffff16815260200190815260200160002060006101000a81548160ff0219169083151502179055505b8173ffffffffffffffffffffffffffffffffffffffff166323b872dd33600f60009054906101000a900473ffffffffffffffffffffffffffffffffffffffff16846040518463ffffffff1660e01b8152600401612e3693929190619fce565b602060405180830381600087803b158015612e5057600080fd5b505af1158015612e64573d6000803e3d6000fd5b505050506040513d601f19601f82011682018060405250810190612e889190619627565b612ec7576040517f08c379a0000000000000000000000000000000000000000000000000000000008152600401612ebe9061a2f7565b60405180910390fd5b600f60009054906101000a900473ffffffffffffffffffffffffffffffffffffffff1673ffffffffffffffffffffffffffffffffffffffff166346dafa2f8383336040518463ffffffff1660e01b8152600401612f269392919061a02e565b600060405180830381600087803b158015612f4057600080fd5b505af1158015612f54573d6000803e3d6000fd5b5050505042601b60003373ffffffffffffffffffffffffffffffffffffffff1673ffffffffffffffffffffffffffffffffffffffff168152602001908152602001600020819055508173ffffffffffffffffffffffffffffffffffffffff163373ffffffffffffffffffffffffffffffffffffffff167f5f9b5a75581a29d72b32414a5df7f1ef124b7787b38616fb8fdcad76179127c283604051612ff9919061a479565b60405180910390a35050565b6000600260149054906101000a900460ff1615613057576040517f08c379a000000000000000000000000000000000000000000000000000000000815260040161304e9061a1b7565b60405180910390fd5b6000601e6000600a54815260200190815260200160002080546130799061aa1f565b80601f01602080910402602001604051908101604052809291908181526020018280546130a59061aa1f565b80156130f25780601f106130c7576101008083540402835291602001916130f2565b820191906000526020600020905b8154815290600101906020018083116130d557829003601f168201915b5050505050905060226000600a54815260200190815260200160002060009054906101000a900460ff161561312a57613129616c56565b5b5090565b602080528060005260406000206000915054906101000a900460ff1681565b600260149054906101000a900460ff161561319d576040517f08c379a00000000000000000000000000000000000000000000000000000000081526004016131949061a1b7565b60405180910390fd5b6131a5616c56565b6000600f60009054906101000a900473ffffffffffffffffffffffffffffffffffffffff1673ffffffffffffffffffffffffffffffffffffffff1663cca92d9c33846040518363ffffffff1660e01b8152600401613204929190619fa5565b60206040518083038186803b15801561321c57600080fd5b505afa158015613230573d6000803e3d6000fd5b505050506040513d601f19601f820116820180604052508101906132549190619854565b9050600f60009054906101000a900473ffffffffffffffffffffffffffffffffffffffff1673ffffffffffffffffffffffffffffffffffffffff1663f940e38583336040518363ffffffff1660e01b81526004016132b3929190619fa5565b602060405180830381600087803b1580156132cd57600080fd5b505af11580156132e1573d6000803e3d6000fd5b505050506040513d601f19601f820116820180604052508101906133059190619627565b613344576040517f08c379a000000000000000000000000000000000000000000000000000000000815260040161333b9061a337565b60405180910390fd5b8173ffffffffffffffffffffffffffffffffffffffff163373ffffffffffffffffffffffffffffffffffffffff167f12dcb5d4117cb4675d56c72f030db8f0f4dd34f875fe484eea4cf0790b5deaa3836040516133a1919061a479565b60405180910390a36133b1616fae565b5050565b600080601060009054906101000a900473ffffffffffffffffffffffffffffffffffffffff1673ffffffffffffffffffffffffffffffffffffffff166351e596e06040518163ffffffff1660e01b815260040160006040518083038186803b15801561342057600080fd5b505afa158015613434573d6000803e3d6000fd5b505050506040513d6000823e3d601f19601f8201168201806040525081019061345d91906195e6565b905060008060005b83518110156138ea576000600e60009054906101000a900473ffffffffffffffffffffffffffffffffffffffff1673ffffffffffffffffffffffffffffffffffffffff166389bbd6708684815181106134e7577f4e487b7100000000000000000000000000000000000000000000000000000000600052603260045260246000fd5b60200260200101516040518263ffffffff1660e01b815260040161350b9190619f8a565b60206040518083038186803b15801561352357600080fd5b505afa158015613537573d6000803e3d6000fd5b505050506040513d601f19601f8201168201806040525081019061355b9190619854565b600f60009054906101000a900473ffffffffffffffffffffffffffffffffffffffff1673ffffffffffffffffffffffffffffffffffffffff166389bbd6708785815181106135d2577f4e487b7100000000000000000000000000000000000000000000000000000000600052603260045260246000fd5b60200260200101516040518263ffffffff1660e01b81526004016135f69190619f8a565b60206040518083038186803b15801561360e57600080fd5b505afa158015613622573d6000803e3d6000fd5b505050506040513d601f19601f820116820180604052508101906136469190619854565b613650919061a690565b9050600d60009054906101000a900473ffffffffffffffffffffffffffffffffffffffff1673ffffffffffffffffffffffffffffffffffffffff1663ca2e5b658684815181106136c9577f4e487b7100000000000000000000000000000000000000000000000000000000600052603260045260246000fd5b6020026020010151602460008b8152602001908152602001600020600089878151811061371f577f4e487b7100000000000000000000000000000000000000000000000000000000600052603260045260246000fd5b602002602001015173ffffffffffffffffffffffffffffffffffffffff1673ffffffffffffffffffffffffffffffffffffffff168152602001908152602001600020546040518363ffffffff1660e01b815260040161377f92919061a005565b60206040518083038186803b15801561379757600080fd5b505afa1580156137ab573d6000803e3d6000fd5b505050506040513d601f19601f820116820180604052508101906137cf9190619854565b846137da919061a690565b9350600d60009054906101000a900473ffffffffffffffffffffffffffffffffffffffff1673ffffffffffffffffffffffffffffffffffffffff1663ca2e5b65868481518110613853577f4e487b7100000000000000000000000000000000000000000000000000000000600052603260045260246000fd5b6020026020010151836040518363ffffffff1660e01b815260040161387992919061a005565b60206040518083038186803b15801561389157600080fd5b505afa1580156138a5573d6000803e3d6000fd5b505050506040513d601f19601f820116820180604052508101906138c99190619854565b836138d4919061a690565b92505080806138e29061aa82565b915050613465565b506000612710600654836138fe919061a717565b613908919061a6e6565b9050808311945050505050919050565b601b6020528060005260406000206000915090505481565b60175481565b600160009054906101000a900473ffffffffffffffffffffffffffffffffffffffff1673ffffffffffffffffffffffffffffffffffffffff163373ffffffffffffffffffffffffffffffffffffffff161461399057600080fd5b6000600260009054906101000a900473ffffffffffffffffffffffffffffffffffffffff1673ffffffffffffffffffffffffffffffffffffffff166370a08231306040518263ffffffff1660e01b81526004016139ed9190619f8a565b60206040518083038186803b158015613a0557600080fd5b505afa158015613a19573d6000803e3d6000fd5b505050506040513d601f19601f82011682018060405250810190613a3d9190619854565b9050600260009054906101000a900473ffffffffffffffffffffffffffffffffffffffff1673ffffffffffffffffffffffffffffffffffffffff1663a9059cbb83836040518363ffffffff1660e01b8152600401613a9c92919061a005565b602060405180830381600087803b158015613ab657600080fd5b505af1158015613aca573d6000803e3d6000fd5b505050506040513d601f19601f82011682018060405250810190613aee9190619627565b505050565b60035481565b600160009054906101000a900473ffffffffffffffffffffffffffffffffffffffff1673ffffffffffffffffffffffffffffffffffffffff163373ffffffffffffffffffffffffffffffffffffffff1614613b5357600080fd5b82600f60006101000a81548173ffffffffffffffffffffffffffffffffffffffff021916908373ffffffffffffffffffffffffffffffffffffffff16021790555081600e60006101000a81548173ffffffffffffffffffffffffffffffffffffffff021916908373ffffffffffffffffffffffffffffffffffffffff16021790555080601360006101000a81548173ffffffffffffffffffffffffffffffffffffffff021916908373ffffffffffffffffffffffffffffffffffffffff160217905550505050565b60085481565b6000600b60009054906101000a900460ff1615613cdf57600b60019054906101000a900473ffffffffffffffffffffffffffffffffffffffff1673ffffffffffffffffffffffffffffffffffffffff16637b0e5c456040518163ffffffff1660e01b815260040160206040518083038186803b158015613ca057600080fd5b505afa158015613cb4573d6000803e3d6000fd5b505050506040513d601f19601f82011682018060405250810190613cd891906197c1565b9050613d05565b600d60009054906101000a900473ffffffffffffffffffffffffffffffffffffffff1690505b90565b6024602052816000526040600020602052806000526040600020600091509150505481565b6000600260149054906101000a900460ff1615613d7f576040517f08c379a0000000000000000000000000000000000000000000000000000000008152600401613d769061a1b7565b60405180910390fd5b60011515601260009054906101000a900473ffffffffffffffffffffffffffffffffffffffff1673ffffffffffffffffffffffffffffffffffffffff1663194e22ce6040518163ffffffff1660e01b8152600401602060405180830381600087803b158015613ded57600080fd5b505af1158015613e01573d6000803e3d6000fd5b505050506040513d601f19601f82011682018060405250810190613e259190619627565b15151415613e68576040517f08c379a0000000000000000000000000000000000000000000000000000000008152600401613e5f9061a357565b60405180910390fd5b6001151560226000600a54815260200190815260200160002060009054906101000a900460ff16151514613ed1576040517f08c379a0000000000000000000000000000000000000000000000000000000008152600401613ec89061a3d7565b60405180910390fd5b6000601e6000600a5481526020019081526020016000208054613ef39061aa1f565b80601f0160208091040260200160405190810160405280929190818152602001828054613f1f9061aa1f565b8015613f6c5780601f10613f4157610100808354040283529160200191613f6c565b820191906000526020600020905b815481529060010190602001808311613f4f57829003601f168201915b50505050509050613f7b616fae565b613f86600a54615ca8565b8015613fb857506000151560206000600a54815260200190815260200160002060009054906101000a900460ff161515145b1561421357613ffc816040518060400160405280600381526020017f44414f0000000000000000000000000000000000000000000000000000000000815250617306565b806140425750614041816040518060400160405280600581526020017f5554494c53000000000000000000000000000000000000000000000000000000815250617306565b5b806140885750614087816040518060400160405280600781526020017f5245534552564500000000000000000000000000000000000000000000000000815250617306565b5b806140ce57506140cd816040518060400160405280600a81526020017f4745545f53504152544100000000000000000000000000000000000000000000815250617306565b5b806141145750614113816040518060400160405280600681526020017f524f555445520000000000000000000000000000000000000000000000000000815250617306565b5b8061415a5750614159816040518060400160405280600981526020017f4c4953545f424f4e440000000000000000000000000000000000000000000000815250617306565b5b806141a0575061419f816040518060400160405280600581526020017f4752414e54000000000000000000000000000000000000000000000000000000815250617306565b5b806141e657506141e5816040518060400160405280601081526020017f4144445f435552415445445f504f4f4c00000000000000000000000000000000815250617306565b5b15614209576141f6600a546133b5565b156142045761420361773c565b5b614212565b61421161773c565b5b5b5090565b60226020528060005260406000206000915054906101000a900460ff1681565b600260149054906101000a900460ff1615614287576040517f08c379a000000000000000000000000000000000000000000000000000000000815260040161427e9061a1b7565b60405180910390fd5b6213c68060236000600a548152602001908152602001600020546142ab919061a690565b42116142ec576040517f08c379a00000000000000000000000000000000000000000000000000000000081526004016142e39061a417565b60405180910390fd5b6000601060009054906101000a900473ffffffffffffffffffffffffffffffffffffffff1673ffffffffffffffffffffffffffffffffffffffff166351e596e06040518163ffffffff1660e01b815260040160006040518083038186803b15801561435657600080fd5b505afa15801561436a573d6000803e3d6000fd5b505050506040513d6000823e3d601f19601f8201168201806040525081019061439391906195e6565b905060005b815181101561444c57600060246000600a54815260200190815260200160002060008484815181106143f3577f4e487b7100000000000000000000000000000000000000000000000000000000600052603260045260246000fd5b602002602001015173ffffffffffffffffffffffffffffffffffffffff1673ffffffffffffffffffffffffffffffffffffffff1681526020019081526020016000208190555080806144449061aa82565b915050614398565b50600060226000600a54815260200190815260200160002060006101000a81548160ff021916908315150217905550600a543373ffffffffffffffffffffffffffffffffffffffff167f6b4f340ccba70b829531b22cfbc4ad2defb3beac09f6149d584fe1031dedbf7c60405160405180910390a350565b60065481565b600b60019054906101000a900473ffffffffffffffffffffffffffffffffffffffff1681565b600160009054906101000a900473ffffffffffffffffffffffffffffffffffffffff1673ffffffffffffffffffffffffffffffffffffffff163373ffffffffffffffffffffffffffffffffffffffff161461454a57600080fd5b6000601060009054906101000a900473ffffffffffffffffffffffffffffffffffffffff1673ffffffffffffffffffffffffffffffffffffffff1663bbe4f6db836040518263ffffffff1660e01b81526004016145a79190619f8a565b60206040518083038186803b1580156145bf57600080fd5b505afa1580156145d3573d6000803e3d6000fd5b505050506040513d601f19601f820116820180604052508101906145f791906193fe565b9050601a60008273ffffffffffffffffffffffffffffffffffffffff1673ffffffffffffffffffffffffffffffffffffffff16815260200190815260200160002060009054906101000a900460ff1615614686576040517f08c379a000000000000000000000000000000000000000000000000000000000815260040161467d9061a297565b60405180910390fd5b6001601a60008373ffffffffffffffffffffffffffffffffffffffff1673ffffffffffffffffffffffffffffffffffffffff16815260200190815260200160002060006101000a81548160ff0219169083151502179055506016819080600181540180825580915050600190039060005260206000200160009091909190916101000a81548173ffffffffffffffffffffffffffffffffffffffff021916908373ffffffffffffffffffffffffffffffffffffffff1602179055508173ffffffffffffffffffffffffffffffffffffffff163373ffffffffffffffffffffffffffffffffffffffff167fa2c962e87fd75165c1496c9ea420ddb0231e124bf2625a77f828287c8050006860405160405180910390a35050565b6000600b60009054906101000a900460ff161561485d57600b60019054906101000a900473ffffffffffffffffffffffffffffffffffffffff1673ffffffffffffffffffffffffffffffffffffffff16639d2cc4366040518163ffffffff1660e01b815260040160206040518083038186803b15801561481e57600080fd5b505afa158015614832573d6000803e3d6000fd5b505050506040513d601f19601f82011682018060405250810190614856919061971d565b9050614883565b601260009054906101000a900473ffffffffffffffffffffffffffffffffffffffff1690505b90565b60196020528060005260406000206000915054906101000a900460ff1681565b601f6020528060005260406000206000915090505481565b6000808311614902576040517f08c379a00000000000000000000000000000000000000000000000000000000081526004016148f99061a377565b60405180910390fd5b6000829050614946816040518060400160405280600881526020017f434f4f4c5f4f4646000000000000000000000000000000000000000000000000815250617306565b8061498c575061498b816040518060400160405280600c81526020017f455241535f544f5f4541524e0000000000000000000000000000000000000000815250617306565b5b6149cb576040517f08c379a00000000000000000000000000000000000000000000000000000000081526004016149c29061a2d7565b60405180910390fd5b6149d36173b1565b6149f1670de0b6b3a76400006009546149ec919061a717565b61760f565b5083601c6000600a5481526020019081526020016000208190555082601e6000600a5481526020019081526020016000209080519060200190614a35929190618ff4565b50600a543373ffffffffffffffffffffffffffffffffffffffff167f8d500fcad86fc64a281b94ef64d6d66acbfc6862aa4ff2ee5fbbfb40736e803e85604051614a7f919061a195565b60405180910390a3600a5491505092915050565b600260149054906101000a900460ff1681565b6000600260149054906101000a900460ff1615614af8576040517f08c379a0000000000000000000000000000000000000000000000000000000008152600401614aef9061a1b7565b60405180910390fd5b60026000541415614b3e576040517f08c379a0000000000000000000000000000000000000000000000000000000008152600401614b359061a3f7565b60405180910390fd5b600260008190555060008211614b89576040517f08c379a0000000000000000000000000000000000000000000000000000000008152600401614b809061a397565b60405180910390fd5b601a60008473ffffffffffffffffffffffffffffffffffffffff1673ffffffffffffffffffffffffffffffffffffffff16815260200190815260200160002060009054906101000a900460ff16614c15576040517f08c379a0000000000000000000000000000000000000000000000000000000008152600401614c0c9061a1d7565b60405180910390fd5b6000601060009054906101000a900473ffffffffffffffffffffffffffffffffffffffff1673ffffffffffffffffffffffffffffffffffffffff1663bbe4f6db856040518263ffffffff1660e01b8152600401614c729190619f8a565b60206040518083038186803b158015614c8a57600080fd5b505afa158015614c9e573d6000803e3d6000fd5b505050506040513d601f19601f82011682018060405250810190614cc291906193fe565b905060011515601960003373ffffffffffffffffffffffffffffffffffffffff1673ffffffffffffffffffffffffffffffffffffffff16815260200190815260200160002060009054906101000a900460ff16151514614dd8576015339080600181540180825580915050600190039060005260206000200160009091909190916101000a81548173ffffffffffffffffffffffffffffffffffffffff021916908373ffffffffffffffffffffffffffffffffffffffff1602179055506001601960003373ffffffffffffffffffffffffffffffffffffffff1673ffffffffffffffffffffffffffffffffffffffff16815260200190815260200160002060006101000a81548160ff0219169083151502179055505b6000614de48585617889565b905042601b60003373ffffffffffffffffffffffffffffffffffffffff1673ffffffffffffffffffffffffffffffffffffffff16815260200190815260200160002081905550600e60009054906101000a900473ffffffffffffffffffffffffffffffffffffffff1673ffffffffffffffffffffffffffffffffffffffff1663bf58d0ef8333846040518463ffffffff1660e01b8152600401614e8993929190619fce565b600060405180830381600087803b158015614ea357600080fd5b505af1158015614eb7573d6000803e3d6000fd5b505050503373ffffffffffffffffffffffffffffffffffffffff167fe4dd259ab128527fe8b5fdae0b44bda8db95a4de10b999d63dce142b1eb88d548583604051614f0392919061a4ed565b60405180910390a2600192505050600160008190555092915050565b60008073ffffffffffffffffffffffffffffffffffffffff168373ffffffffffffffffffffffffffffffffffffffff161415614f90576040517f08c379a0000000000000000000000000000000000000000000000000000000008152600401614f879061a3b7565b60405180910390fd5b6000600260009054906101000a900473ffffffffffffffffffffffffffffffffffffffff1673ffffffffffffffffffffffffffffffffffffffff166370a08231601260009054906101000a900473ffffffffffffffffffffffffffffffffffffffff166040518263ffffffff1660e01b815260040161500f9190619f8a565b60206040518083038186803b15801561502757600080fd5b505afa15801561503b573d6000803e3d6000fd5b505050506040513d601f19601f8201168201806040525081019061505f9190619854565b9050600061271060085483615074919061a717565b61507e919061a6e6565b905060008411801561508f57508084105b6150ce576040517f08c379a00000000000000000000000000000000000000000000000000000000081526004016150c59061a1f7565b60405180910390fd5b6150d66173b1565b6150f4670de0b6b3a76400006009546150ef919061a717565b61760f565b5060006040518060400160405280600581526020017f4752414e54000000000000000000000000000000000000000000000000000000815250905080601e6000600a5481526020019081526020016000209080519060200190615158929190618ff4565b5085601d6000600a54815260200190815260200160002060006101000a81548173ffffffffffffffffffffffffffffffffffffffff021916908373ffffffffffffffffffffffffffffffffffffffff16021790555084601c6000600a54815260200190815260200160002081905550600a543373ffffffffffffffffffffffffffffffffffffffff167f8d500fcad86fc64a281b94ef64d6d66acbfc6862aa4ff2ee5fbbfb40736e803e83604051615210919061a195565b60405180910390a3600a54935050505092915050565b600260149054906101000a900460ff1615615276576040517f08c379a000000000000000000000000000000000000000000000000000000000815260040161526d9061a1b7565b60405180910390fd5b600260159054906101000a900460ff166152c5576040517f08c379a00000000000000000000000000000000000000000000000000000000081526004016152bc9061a237565b60405180910390fd5b60011515601260009054906101000a900473ffffffffffffffffffffffffffffffffffffffff1673ffffffffffffffffffffffffffffffffffffffff1663194e22ce6040518163ffffffff1660e01b8152600401602060405180830381600087803b15801561533357600080fd5b505af1158015615347573d6000803e3d6000fd5b505050506040513d601f19601f8201168201806040525081019061536b9190619627565b151514156153ae576040517f08c379a00000000000000000000000000000000000000000000000000000000081526004016153a59061a357565b60405180910390fd5b600454601f6000600a54815260200190815260200160002054426153d2919061a771565b11615412576040517f08c379a00000000000000000000000000000000000000000000000000000000081526004016154099061a277565b60405180910390fd5b6001151560206000600a54815260200190815260200160002060009054906101000a900460ff1615151461547b576040517f08c379a00000000000000000000000000000000000000000000000000000000081526004016154729061a2b7565b60405180910390fd5b6001151560226000600a54815260200190815260200160002060009054906101000a900460ff161515146154ae57600080fd5b6000151560216000600a54815260200190815260200160002060009054906101000a900460ff161515146154e157600080fd5b6154ec600a54615ca8565b61552357600060206000600a54815260200190815260200160002060006101000a81548160ff021916908315150217905550615a23565b6000601e6000600a54815260200190815260200160002080546155459061aa1f565b80601f01602080910402602001604051908101604052809291908181526020018280546155719061aa1f565b80156155be5780601f10615593576101008083540402835291602001916155be565b820191906000526020600020905b8154815290600101906020018083116155a157829003601f168201915b50505050509050615604816040518060400160405280600381526020017f44414f0000000000000000000000000000000000000000000000000000000000815250617306565b1561561957615614600a5461817a565b615a21565b615658816040518060400160405280600681526020017f524f555445520000000000000000000000000000000000000000000000000000815250617306565b1561566d57615668600a546182a8565b615a20565b6156ac816040518060400160405280600581526020017f5554494c53000000000000000000000000000000000000000000000000000000815250617306565b156156c1576156bc600a5461832e565b615a1f565b615700816040518060400160405280600781526020017f5245534552564500000000000000000000000000000000000000000000000000815250617306565b1561571557615710600a546183b4565b615a1e565b615754816040518060400160405280600e81526020017f464c49505f454d495353494f4e53000000000000000000000000000000000000815250617306565b1561576957615764600a5461843a565b615a1d565b6157a8816040518060400160405280600881526020017f434f4f4c5f4f4646000000000000000000000000000000000000000000000000815250617306565b156157bd576157b8600a546184c8565b615a1c565b6157fc816040518060400160405280600c81526020017f455241535f544f5f4541524e0000000000000000000000000000000000000000815250617306565b156158115761580c600a546184f4565b615a1b565b615850816040518060400160405280600581526020017f4752414e54000000000000000000000000000000000000000000000000000000815250617306565b1561586557615860600a54618520565b615a1a565b6158a4816040518060400160405280600a81526020017f4745545f53504152544100000000000000000000000000000000000000000000815250617306565b156158b9576158b4600a5461860d565b615a19565b6158f8816040518060400160405280600981526020017f4c4953545f424f4e440000000000000000000000000000000000000000000000815250617306565b1561590d57615908600a546186b9565b615a18565b61594c816040518060400160405280600b81526020017f44454c4953545f424f4e44000000000000000000000000000000000000000000815250617306565b156159615761595c600a5461880b565b615a17565b6159a0816040518060400160405280601081526020017f4144445f435552415445445f504f4f4c00000000000000000000000000000000815250617306565b156159b5576159b0600a54618b1d565b615a16565b6159f4816040518060400160405280601381526020017f52454d4f56455f435552415445445f504f4f4c00000000000000000000000000815250617306565b15615a0957615a04600a54618bef565b615a15565b615a14600a54618d6c565b5b5b5b5b5b5b5b5b5b5b5b5b5b505b565b60045481565b601d6020528060005260406000206000915054906101000a900473ffffffffffffffffffffffffffffffffffffffff1681565b600160009054906101000a900473ffffffffffffffffffffffffffffffffffffffff1673ffffffffffffffffffffffffffffffffffffffff163373ffffffffffffffffffffffffffffffffffffffff1614615ab857600080fd5b8060178190555050565b60236020528060005260406000206000915090505481565b6000600b60009054906101000a900460ff1615615b9857600b60019054906101000a900473ffffffffffffffffffffffffffffffffffffffff1673ffffffffffffffffffffffffffffffffffffffff1663b93ec54b6040518163ffffffff1660e01b815260040160206040518083038186803b158015615b5957600080fd5b505afa158015615b6d573d6000803e3d6000fd5b505050506040513d601f19601f82011682018060405250810190615b91919061976f565b9050615bbe565b601160009054906101000a900473ffffffffffffffffffffffffffffffffffffffff1690505b90565b6000600b60009054906101000a900460ff1615615c7f57600b60019054906101000a900473ffffffffffffffffffffffffffffffffffffffff1673ffffffffffffffffffffffffffffffffffffffff1663b99b0a0c6040518163ffffffff1660e01b815260040160206040518083038186803b158015615c4057600080fd5b505afa158015615c54573d6000803e3d6000fd5b505050506040513d601f19601f82011682018060405250810190615c7891906196f4565b9050615ca5565b601060009054906101000a900473ffffffffffffffffffffffffffffffffffffffff1690505b90565b600080601060009054906101000a900473ffffffffffffffffffffffffffffffffffffffff1673ffffffffffffffffffffffffffffffffffffffff166351e596e06040518163ffffffff1660e01b815260040160006040518083038186803b158015615d1357600080fd5b505afa158015615d27573d6000803e3d6000fd5b505050506040513d6000823e3d601f19601f82011682018060405250810190615d5091906195e6565b905060008060005b83518110156161dd576000600e60009054906101000a900473ffffffffffffffffffffffffffffffffffffffff1673ffffffffffffffffffffffffffffffffffffffff166389bbd670868481518110615dda577f4e487b7100000000000000000000000000000000000000000000000000000000600052603260045260246000fd5b60200260200101516040518263ffffffff1660e01b8152600401615dfe9190619f8a565b60206040518083038186803b158015615e1657600080fd5b505afa158015615e2a573d6000803e3d6000fd5b505050506040513d601f19601f82011682018060405250810190615e4e9190619854565b600f60009054906101000a900473ffffffffffffffffffffffffffffffffffffffff1673ffffffffffffffffffffffffffffffffffffffff166389bbd670878581518110615ec5577f4e487b7100000000000000000000000000000000000000000000000000000000600052603260045260246000fd5b60200260200101516040518263ffffffff1660e01b8152600401615ee99190619f8a565b60206040518083038186803b158015615f0157600080fd5b505afa158015615f15573d6000803e3d6000fd5b505050506040513d601f19601f82011682018060405250810190615f399190619854565b615f43919061a690565b9050600d60009054906101000a900473ffffffffffffffffffffffffffffffffffffffff1673ffffffffffffffffffffffffffffffffffffffff1663ca2e5b65868481518110615fbc577f4e487b7100000000000000000000000000000000000000000000000000000000600052603260045260246000fd5b6020026020010151602460008b81526020019081526020016000206000898781518110616012577f4e487b7100000000000000000000000000000000000000000000000000000000600052603260045260246000fd5b602002602001015173ffffffffffffffffffffffffffffffffffffffff1673ffffffffffffffffffffffffffffffffffffffff168152602001908152602001600020546040518363ffffffff1660e01b815260040161607292919061a005565b60206040518083038186803b15801561608a57600080fd5b505afa15801561609e573d6000803e3d6000fd5b505050506040513d601f19601f820116820180604052508101906160c29190619854565b846160cd919061a690565b9350600d60009054906101000a900473ffffffffffffffffffffffffffffffffffffffff1673ffffffffffffffffffffffffffffffffffffffff1663ca2e5b65868481518110616146577f4e487b7100000000000000000000000000000000000000000000000000000000600052603260045260246000fd5b6020026020010151836040518363ffffffff1660e01b815260040161616c92919061a005565b60206040518083038186803b15801561618457600080fd5b505afa158015616198573d6000803e3d6000fd5b505050506040513d601f19601f820116820180604052508101906161bc9190619854565b836161c7919061a690565b92505080806161d59061aa82565b915050615d58565b5060006002826161ed919061a6e6565b9050808311945050505050919050565b6000600160009054906101000a900473ffffffffffffffffffffffffffffffffffffffff1673ffffffffffffffffffffffffffffffffffffffff163373ffffffffffffffffffffffffffffffffffffffff161461625957600080fd5b6000600260009054906101000a900473ffffffffffffffffffffffffffffffffffffffff1673ffffffffffffffffffffffffffffffffffffffff166370a08231306040518263ffffffff1660e01b81526004016162b69190619f8a565b60206040518083038186803b1580156162ce57600080fd5b505afa1580156162e2573d6000803e3d6000fd5b505050506040513d601f19601f820116820180604052508101906163069190619854565b9050600260009054906101000a900473ffffffffffffffffffffffffffffffffffffffff1673ffffffffffffffffffffffffffffffffffffffff166342966c68826040518263ffffffff1660e01b8152600401616363919061a479565b600060405180830381600087803b15801561637d57600080fd5b505af1158015616391573d6000803e3d6000fd5b50505050600191505090565b601e60205280600052604060002060009150905080546163bc9061aa1f565b80601f01602080910402602001604051908101604052809291908181526020018280546163e89061aa1f565b80156164355780601f1061640a57610100808354040283529160200191616435565b820191906000526020600020905b81548152906001019060200180831161641857829003601f168201915b505050505081565b600160009054906101000a900473ffffffffffffffffffffffffffffffffffffffff1681565b6000808290506164a8816040518060400160405280600e81526020017f464c49505f454d495353494f4e53000000000000000000000000000000000000815250617306565b806164ee57506164ed816040518060400160405280600a81526020017f4745545f53504152544100000000000000000000000000000000000000000000815250617306565b5b61652d576040517f08c379a00000000000000000000000000000000000000000000000000000000081526004016165249061a2d7565b60405180910390fd5b6165356173b1565b616553670de0b6b3a764000060095461654e919061a717565b61760f565b5082601e6000600a548152602001908152602001600020908051906020019061657d929190618ff4565b50600a543373ffffffffffffffffffffffffffffffffffffffff167f8d500fcad86fc64a281b94ef64d6d66acbfc6862aa4ff2ee5fbbfb40736e803e856040516165c7919061a195565b60405180910390a3600a54915050919050565b600260159054906101000a900460ff1681565b60055481565b600160009054906101000a900473ffffffffffffffffffffffffffffffffffffffff1673ffffffffffffffffffffffffffffffffffffffff163373ffffffffffffffffffffffffffffffffffffffff161461664d57600080fd5b6000601060009054906101000a900473ffffffffffffffffffffffffffffffffffffffff1673ffffffffffffffffffffffffffffffffffffffff1663bbe4f6db836040518263ffffffff1660e01b81526004016166aa9190619f8a565b60206040518083038186803b1580156166c257600080fd5b505afa1580156166d6573d6000803e3d6000fd5b505050506040513d601f19601f820116820180604052508101906166fa91906193fe565b9050601a60008273ffffffffffffffffffffffffffffffffffffffff1673ffffffffffffffffffffffffffffffffffffffff16815260200190815260200160002060009054906101000a900460ff16616788576040517f08c379a000000000000000000000000000000000000000000000000000000000815260040161677f9061a1d7565b60405180910390fd5b6000601a60008373ffffffffffffffffffffffffffffffffffffffff1673ffffffffffffffffffffffffffffffffffffffff16815260200190815260200160002060006101000a81548160ff02191690831515021790555060005b601680549050811015616a01578173ffffffffffffffffffffffffffffffffffffffff1660168281548110616841577f4e487b7100000000000000000000000000000000000000000000000000000000600052603260045260246000fd5b9060005260206000200160009054906101000a900473ffffffffffffffffffffffffffffffffffffffff1673ffffffffffffffffffffffffffffffffffffffff1614156169ee576016600160168054905061689c919061a771565b815481106168d3577f4e487b7100000000000000000000000000000000000000000000000000000000600052603260045260246000fd5b9060005260206000200160009054906101000a900473ffffffffffffffffffffffffffffffffffffffff1660168281548110616938577f4e487b7100000000000000000000000000000000000000000000000000000000600052603260045260246000fd5b9060005260206000200160006101000a81548173ffffffffffffffffffffffffffffffffffffffff021916908373ffffffffffffffffffffffffffffffffffffffff16021790555060168054806169b8577f4e487b7100000000000000000000000000000000000000000000000000000000600052603160045260246000fd5b6001900381819060005260206000200160006101000a81549073ffffffffffffffffffffffffffffffffffffffff021916905590555b80806169f99061aa82565b9150506167e3565b508173ffffffffffffffffffffffffffffffffffffffff163373ffffffffffffffffffffffffffffffffffffffff167ff487c2322baa448cfa506b983134d9dd9f27d0bbfe0b48119a3908d4f0dde89f60405160405180910390a35050565b600260009054906101000a900473ffffffffffffffffffffffffffffffffffffffff1681565b600080600e60009054906101000a900473ffffffffffffffffffffffffffffffffffffffff1673ffffffffffffffffffffffffffffffffffffffff1663ba0ba54f85856040518363ffffffff1660e01b8152600401616ae6929190619fa5565b60206040518083038186803b158015616afe57600080fd5b505afa158015616b12573d6000803e3d6000fd5b505050506040513d601f19601f82011682018060405250810190616b369190619854565b90508091505092915050565b6000600b60009054906101000a900460ff1615616c0057600b60019054906101000a900473ffffffffffffffffffffffffffffffffffffffff1673ffffffffffffffffffffffffffffffffffffffff1663f301e7816040518163ffffffff1660e01b815260040160206040518083038186803b158015616bc157600080fd5b505afa158015616bd5573d6000803e3d6000fd5b505050506040513d601f19601f82011682018060405250810190616bf991906196cb565b9050616c26565b601460009054906101000a900473ffffffffffffffffffffffffffffffffffffffff1690505b90565b601a6020528060005260406000206000915054906101000a900460ff1681565b6000601680549050905090565b6000601060009054906101000a900473ffffffffffffffffffffffffffffffffffffffff1673ffffffffffffffffffffffffffffffffffffffff166351e596e06040518163ffffffff1660e01b815260040160006040518083038186803b158015616cc057600080fd5b505afa158015616cd4573d6000803e3d6000fd5b505050506040513d6000823e3d601f19601f82011682018060405250810190616cfd91906195e6565b905060005b8151811015616faa57600e60009054906101000a900473ffffffffffffffffffffffffffffffffffffffff1673ffffffffffffffffffffffffffffffffffffffff1663aa9fd374838381518110616d82577f4e487b7100000000000000000000000000000000000000000000000000000000600052603260045260246000fd5b6020026020010151336040518363ffffffff1660e01b8152600401616da8929190619fa5565b60206040518083038186803b158015616dc057600080fd5b505afa158015616dd4573d6000803e3d6000fd5b505050506040513d601f19601f82011682018060405250810190616df89190619854565b600f60009054906101000a900473ffffffffffffffffffffffffffffffffffffffff1673ffffffffffffffffffffffffffffffffffffffff1663cca92d9c848481518110616e6f577f4e487b7100000000000000000000000000000000000000000000000000000000600052603260045260246000fd5b6020026020010151336040518363ffffffff1660e01b8152600401616e95929190619fa5565b60206040518083038186803b158015616ead57600080fd5b505afa158015616ec1573d6000803e3d6000fd5b505050506040513d601f19601f82011682018060405250810190616ee59190619854565b616eef919061a690565b60246000600a5481526020019081526020016000206000848481518110616f3f577f4e487b7100000000000000000000000000000000000000000000000000000000600052603260045260246000fd5b602002602001015173ffffffffffffffffffffffffffffffffffffffff1673ffffffffffffffffffffffffffffffffffffffff1681526020019081526020016000206000828254616f90919061a771565b925050819055508080616fa29061aa82565b915050616d02565b5050565b6000601060009054906101000a900473ffffffffffffffffffffffffffffffffffffffff1673ffffffffffffffffffffffffffffffffffffffff166351e596e06040518163ffffffff1660e01b815260040160006040518083038186803b15801561701857600080fd5b505afa15801561702c573d6000803e3d6000fd5b505050506040513d6000823e3d601f19601f8201168201806040525081019061705591906195e6565b905060005b815181101561730257600e60009054906101000a900473ffffffffffffffffffffffffffffffffffffffff1673ffffffffffffffffffffffffffffffffffffffff1663aa9fd3748383815181106170da577f4e487b7100000000000000000000000000000000000000000000000000000000600052603260045260246000fd5b6020026020010151336040518363ffffffff1660e01b8152600401617100929190619fa5565b60206040518083038186803b15801561711857600080fd5b505afa15801561712c573d6000803e3d6000fd5b505050506040513d601f19601f820116820180604052508101906171509190619854565b600f60009054906101000a900473ffffffffffffffffffffffffffffffffffffffff1673ffffffffffffffffffffffffffffffffffffffff1663cca92d9c8484815181106171c7577f4e487b7100000000000000000000000000000000000000000000000000000000600052603260045260246000fd5b6020026020010151336040518363ffffffff1660e01b81526004016171ed929190619fa5565b60206040518083038186803b15801561720557600080fd5b505afa158015617219573d6000803e3d6000fd5b505050506040513d601f19601f8201168201806040525081019061723d9190619854565b617247919061a690565b60246000600a5481526020019081526020016000206000848481518110617297577f4e487b7100000000000000000000000000000000000000000000000000000000600052603260045260246000fd5b602002602001015173ffffffffffffffffffffffffffffffffffffffff1673ffffffffffffffffffffffffffffffffffffffff16815260200190815260200160002060008282546172e8919061a690565b9250508190555080806172fa9061aa82565b91505061705a565b5050565b60006002826040516173189190619f73565b602060405180830381855afa158015617335573d6000803e3d6000fd5b5050506040513d601f19601f820116820180604052508101906173589190619650565b6002846040516173689190619f73565b602060405180830381855afa158015617385573d6000803e3d6000fd5b5050506040513d601f19601f820116820180604052508101906173a89190619650565b14905092915050565b600260149054906101000a900460ff1615617401576040517f08c379a00000000000000000000000000000000000000000000000000000000081526004016173f89061a1b7565b60405180910390fd5b600260159054906101000a900460ff16617450576040517f08c379a00000000000000000000000000000000000000000000000000000000081526004016174479061a237565b60405180910390fd5b60011515601260009054906101000a900473ffffffffffffffffffffffffffffffffffffffff1673ffffffffffffffffffffffffffffffffffffffff1663194e22ce6040518163ffffffff1660e01b8152600401602060405180830381600087803b1580156174be57600080fd5b505af11580156174d2573d6000803e3d6000fd5b505050506040513d601f19601f820116820180604052508101906174f69190619627565b15151415617539576040517f08c379a00000000000000000000000000000000000000000000000000000000081526004016175309061a357565b60405180910390fd5b6000151560226000600a54815260200190815260200160002060009054906101000a900460ff161515146175a2576040517f08c379a00000000000000000000000000000000000000000000000000000000081526004016175999061a3d7565b60405180910390fd5b6001600560008282546175b5919061a690565b92505081905550600554600a81905550600160226000600a54815260200190815260200160002060006101000a81548160ff0219169083151502179055504260236000600a54815260200190815260200160002081905550565b6000670de0b6b3a7640000821061773357600260009054906101000a900473ffffffffffffffffffffffffffffffffffffffff1673ffffffffffffffffffffffffffffffffffffffff166323b872dd33601260009054906101000a900473ffffffffffffffffffffffffffffffffffffffff16856040518463ffffffff1660e01b81526004016176a193929190619fce565b602060405180830381600087803b1580156176bb57600080fd5b505af11580156176cf573d6000803e3d6000fd5b505050506040513d601f19601f820116820180604052508101906176f39190619627565b617732576040517f08c379a00000000000000000000000000000000000000000000000000000000081526004016177299061a217565b60405180910390fd5b5b60019050919050565b6000601e6000600a548152602001908152602001600020805461775e9061aa1f565b80601f016020809104026020016040519081016040528092919081815260200182805461778a9061aa1f565b80156177d75780601f106177ac576101008083540402835291602001916177d7565b820191906000526020600020905b8154815290600101906020018083116177ba57829003601f168201915b50505050509050600160206000600a54815260200190815260200160002060006101000a81548160ff02191690831515021790555042601f6000600a54815260200190815260200160002081905550600a543373ffffffffffffffffffffffffffffffffffffffff167f0f36aea5066f9f90a999260fe4ce8d7713f7f07f5ae61bf36d73cc51170a3a9e6004544261786f919061a690565b8460405161787e92919061a4bd565b60405180910390a350565b60006a0211654585005212800000600260009054906101000a900473ffffffffffffffffffffffffffffffffffffffff1673ffffffffffffffffffffffffffffffffffffffff1663dd62ed3e30600c60009054906101000a900473ffffffffffffffffffffffffffffffffffffffff166040518363ffffffff1660e01b8152600401617916929190619fa5565b60206040518083038186803b15801561792e57600080fd5b505afa158015617942573d6000803e3d6000fd5b505050506040513d601f19601f820116820180604052508101906179669190619854565b1015617ade57600260009054906101000a900473ffffffffffffffffffffffffffffffffffffffff1673ffffffffffffffffffffffffffffffffffffffff1663095ea7b3600c60009054906101000a900473ffffffffffffffffffffffffffffffffffffffff16600260009054906101000a900473ffffffffffffffffffffffffffffffffffffffff1673ffffffffffffffffffffffffffffffffffffffff166318160ddd6040518163ffffffff1660e01b815260040160206040518083038186803b158015617a3557600080fd5b505afa158015617a49573d6000803e3d6000fd5b505050506040513d601f19601f82011682018060405250810190617a6d9190619854565b6040518363ffffffff1660e01b8152600401617a8a92919061a005565b602060405180830381600087803b158015617aa457600080fd5b505af1158015617ab8573d6000803e3d6000fd5b505050506040513d601f19601f82011682018060405250810190617adc9190619627565b505b600073ffffffffffffffffffffffffffffffffffffffff168373ffffffffffffffffffffffffffffffffffffffff161415617ce457348214617b55576040517f08c379a0000000000000000000000000000000000000000000000000000000008152600401617b4c9061a397565b60405180910390fd5b6000600d60009054906101000a900473ffffffffffffffffffffffffffffffffffffffff1673ffffffffffffffffffffffffffffffffffffffff1663b80e44b885856040518363ffffffff1660e01b8152600401617bb492919061a005565b60206040518083038186803b158015617bcc57600080fd5b505afa158015617be0573d6000803e3d6000fd5b505050506040513d601f19601f82011682018060405250810190617c049190619854565b9050600c60009054906101000a900473ffffffffffffffffffffffffffffffffffffffff1673ffffffffffffffffffffffffffffffffffffffff166393cac68584838688600e60009054906101000a900473ffffffffffffffffffffffffffffffffffffffff166040518663ffffffff1660e01b8152600401617c8a949392919061a516565b6020604051808303818588803b158015617ca357600080fd5b505af1158015617cb7573d6000803e3d6000fd5b50505050506040513d601f19601f82011682018060405250810190617cdc9190619854565b915050618174565b8273ffffffffffffffffffffffffffffffffffffffff166323b872dd3330856040518463ffffffff1660e01b8152600401617d2193929190619fce565b602060405180830381600087803b158015617d3b57600080fd5b505af1158015617d4f573d6000803e3d6000fd5b505050506040513d601f19601f82011682018060405250810190617d739190619627565b5060008373ffffffffffffffffffffffffffffffffffffffff166370a08231306040518263ffffffff1660e01b8152600401617daf9190619f8a565b60206040518083038186803b158015617dc757600080fd5b505afa158015617ddb573d6000803e3d6000fd5b505050506040513d601f19601f82011682018060405250810190617dff9190619854565b90506000600d60009054906101000a900473ffffffffffffffffffffffffffffffffffffffff1673ffffffffffffffffffffffffffffffffffffffff1663b80e44b886846040518363ffffffff1660e01b8152600401617e6092919061a005565b60206040518083038186803b158015617e7857600080fd5b505afa158015617e8c573d6000803e3d6000fd5b505050506040513d601f19601f82011682018060405250810190617eb09190619854565b9050818573ffffffffffffffffffffffffffffffffffffffff1663dd62ed3e30600c60009054906101000a900473ffffffffffffffffffffffffffffffffffffffff166040518363ffffffff1660e01b8152600401617f10929190619fa5565b60206040518083038186803b158015617f2857600080fd5b505afa158015617f3c573d6000803e3d6000fd5b505050506040513d601f19601f82011682018060405250810190617f609190619854565b101561809a5760008573ffffffffffffffffffffffffffffffffffffffff166318160ddd6040518163ffffffff1660e01b815260040160206040518083038186803b158015617fae57600080fd5b505afa158015617fc2573d6000803e3d6000fd5b505050506040513d601f19601f82011682018060405250810190617fe69190619854565b90508573ffffffffffffffffffffffffffffffffffffffff1663095ea7b3600c60009054906101000a900473ffffffffffffffffffffffffffffffffffffffff16836040518363ffffffff1660e01b815260040161804592919061a005565b602060405180830381600087803b15801561805f57600080fd5b505af1158015618073573d6000803e3d6000fd5b505050506040513d601f19601f820116820180604052508101906180979190619627565b50505b600c60009054906101000a900473ffffffffffffffffffffffffffffffffffffffff1673ffffffffffffffffffffffffffffffffffffffff166393cac685828488600e60009054906101000a900473ffffffffffffffffffffffffffffffffffffffff166040518563ffffffff1660e01b815260040161811d949392919061a516565b602060405180830381600087803b15801561813757600080fd5b505af115801561814b573d6000803e3d6000fd5b505050506040513d601f19601f8201168201806040525081019061816f9190619854565b925050505b92915050565b6000601d600083815260200190815260200160002060009054906101000a900473ffffffffffffffffffffffffffffffffffffffff16905080600b60016101000a81548173ffffffffffffffffffffffffffffffffffffffff021916908373ffffffffffffffffffffffffffffffffffffffff160217905550600260009054906101000a900473ffffffffffffffffffffffffffffffffffffffff1673ffffffffffffffffffffffffffffffffffffffff16631d007f5f826040518263ffffffff1660e01b815260040161824e9190619f8a565b600060405180830381600087803b15801561826857600080fd5b505af115801561827c573d6000803e3d6000fd5b505050506001600b60006101000a81548160ff0219169083151502179055506182a482618d6c565b5050565b6000601d600083815260200190815260200160002060009054906101000a900473ffffffffffffffffffffffffffffffffffffffff16905080600c60006101000a81548173ffffffffffffffffffffffffffffffffffffffff021916908373ffffffffffffffffffffffffffffffffffffffff16021790555061832a82618d6c565b5050565b6000601d600083815260200190815260200160002060009054906101000a900473ffffffffffffffffffffffffffffffffffffffff16905080600d60006101000a81548173ffffffffffffffffffffffffffffffffffffffff021916908373ffffffffffffffffffffffffffffffffffffffff1602179055506183b082618d6c565b5050565b6000601d600083815260200190815260200160002060009054906101000a900473ffffffffffffffffffffffffffffffffffffffff16905080601260006101000a81548173ffffffffffffffffffffffffffffffffffffffff021916908373ffffffffffffffffffffffffffffffffffffffff16021790555061843682618d6c565b5050565b600260009054906101000a900473ffffffffffffffffffffffffffffffffffffffff1673ffffffffffffffffffffffffffffffffffffffff1663fe1fa8fa6040518163ffffffff1660e01b8152600401600060405180830381600087803b1580156184a457600080fd5b505af11580156184b8573d6000803e3d6000fd5b505050506184c581618d6c565b50565b6000601c6000838152602001908152602001600020549050806004819055506184f082618d6c565b5050565b6000601c60008381526020019081526020016000205490508060078190555061851c82618d6c565b5050565b6000601c60008381526020019081526020016000205490506000601d600084815260200190815260200160002060009054906101000a900473ffffffffffffffffffffffffffffffffffffffff169050601260009054906101000a900473ffffffffffffffffffffffffffffffffffffffff1673ffffffffffffffffffffffffffffffffffffffff16637d458baa83836040518363ffffffff1660e01b81526004016185cd92919061a494565b600060405180830381600087803b1580156185e757600080fd5b505af11580156185fb573d6000803e3d6000fd5b5050505061860883618d6c565b505050565b60006a02116545850052128000009050600260009054906101000a900473ffffffffffffffffffffffffffffffffffffffff1673ffffffffffffffffffffffffffffffffffffffff1663d01f6fba82306040518363ffffffff1660e01b815260040161867a92919061a494565b600060405180830381600087803b15801561869457600080fd5b505af11580156186a8573d6000803e3d6000fd5b505050506186b582618d6c565b5050565b6000601d600083815260200190815260200160002060009054906101000a900473ffffffffffffffffffffffffffffffffffffffff169050601a60008273ffffffffffffffffffffffffffffffffffffffff1673ffffffffffffffffffffffffffffffffffffffff16815260200190815260200160002060009054906101000a900460ff166187fe576001601a60008373ffffffffffffffffffffffffffffffffffffffff1673ffffffffffffffffffffffffffffffffffffffff16815260200190815260200160002060006101000a81548160ff0219169083151502179055506016819080600181540180825580915050600190039060005260206000200160009091909190916101000a81548173ffffffffffffffffffffffffffffffffffffffff021916908373ffffffffffffffffffffffffffffffffffffffff1602179055505b61880782618d6c565b5050565b6000601d600083815260200190815260200160002060009054906101000a900473ffffffffffffffffffffffffffffffffffffffff169050601a60008273ffffffffffffffffffffffffffffffffffffffff1673ffffffffffffffffffffffffffffffffffffffff16815260200190815260200160002060009054906101000a900460ff1615618b10576000601a60008373ffffffffffffffffffffffffffffffffffffffff1673ffffffffffffffffffffffffffffffffffffffff16815260200190815260200160002060006101000a81548160ff02191690831515021790555060005b601680549050811015618b0e578173ffffffffffffffffffffffffffffffffffffffff166016828154811061894e577f4e487b7100000000000000000000000000000000000000000000000000000000600052603260045260246000fd5b9060005260206000200160009054906101000a900473ffffffffffffffffffffffffffffffffffffffff1673ffffffffffffffffffffffffffffffffffffffff161415618afb57601660016016805490506189a9919061a771565b815481106189e0577f4e487b7100000000000000000000000000000000000000000000000000000000600052603260045260246000fd5b9060005260206000200160009054906101000a900473ffffffffffffffffffffffffffffffffffffffff1660168281548110618a45577f4e487b7100000000000000000000000000000000000000000000000000000000600052603260045260246000fd5b9060005260206000200160006101000a81548173ffffffffffffffffffffffffffffffffffffffff021916908373ffffffffffffffffffffffffffffffffffffffff1602179055506016805480618ac5577f4e487b7100000000000000000000000000000000000000000000000000000000600052603160045260246000fd5b6001900381819060005260206000200160006101000a81549073ffffffffffffffffffffffffffffffffffffffff021916905590555b8080618b069061aa82565b9150506188f0565b505b618b1982618d6c565b5050565b6000601d600083815260200190815260200160002060009054906101000a900473ffffffffffffffffffffffffffffffffffffffff169050601060009054906101000a900473ffffffffffffffffffffffffffffffffffffffff1673ffffffffffffffffffffffffffffffffffffffff16632b2260a8826040518263ffffffff1660e01b8152600401618bb09190619f8a565b600060405180830381600087803b158015618bca57600080fd5b505af1158015618bde573d6000803e3d6000fd5b50505050618beb82618d6c565b5050565b6000601d600083815260200190815260200160002060009054906101000a900473ffffffffffffffffffffffffffffffffffffffff169050601060009054906101000a900473ffffffffffffffffffffffffffffffffffffffff1673ffffffffffffffffffffffffffffffffffffffff16637ca51fbf826040518263ffffffff1660e01b8152600401618c829190619f8a565b600060405180830381600087803b158015618c9c57600080fd5b505af1158015618cb0573d6000803e3d6000fd5b50505050601a60008273ffffffffffffffffffffffffffffffffffffffff1673ffffffffffffffffffffffffffffffffffffffff16815260200190815260200160002060009054906101000a900460ff1615618d5f576000601a60008373ffffffffffffffffffffffffffffffffffffffff1673ffffffffffffffffffffffffffffffffffffffff16815260200190815260200160002060006101000a81548160ff0219169083151502179055505b618d6882618d6c565b5050565b6000601e60008381526020019081526020016000208054618d8c9061aa1f565b80601f0160208091040260200160405190810160405280929190818152602001828054618db89061aa1f565b8015618e055780601f10618dda57610100808354040283529160200191618e05565b820191906000526020600020905b815481529060010190602001808311618de857829003601f168201915b505050505090506000601060009054906101000a900473ffffffffffffffffffffffffffffffffffffffff1673ffffffffffffffffffffffffffffffffffffffff166351e596e06040518163ffffffff1660e01b815260040160006040518083038186803b158015618e7657600080fd5b505afa158015618e8a573d6000803e3d6000fd5b505050506040513d6000823e3d601f19601f82011682018060405250810190618eb391906195e6565b905060005b8151811015618f6a576000602460008681526020019081526020016000206000848481518110618f11577f4e487b7100000000000000000000000000000000000000000000000000000000600052603260045260246000fd5b602002602001015173ffffffffffffffffffffffffffffffffffffffff1673ffffffffffffffffffffffffffffffffffffffff168152602001908152602001600020819055508080618f629061aa82565b915050618eb8565b5060016021600085815260200190815260200160002060006101000a81548160ff02191690831515021790555060006020600085815260200190815260200160002060006101000a81548160ff02191690831515021790555060006022600085815260200190815260200160002060006101000a81548160ff021916908315150217905550505050565b8280546190009061aa1f565b90600052602060002090601f0160209004810192826190225760008555619069565b82601f1061903b57805160ff1916838001178555619069565b82800160010185558215619069579182015b8281111561906857825182559160200191906001019061904d565b5b50905061907691906190e9565b5090565b6040518061014001604052806000815260200160608152602001600081526020016000815260200160001515815260200160001515815260200160008152602001600073ffffffffffffffffffffffffffffffffffffffff168152602001600015158152602001600081525090565b5b808211156191025760008160009055506001016190ea565b5090565b60006191196191148461a5b7565b61a592565b9050808382526020820190508285602086028201111561913857600080fd5b60005b85811015619168578161914e888261921c565b84526020840193506020830192505060018101905061913b565b5050509392505050565b60006191856191808461a5b7565b61a592565b905080838252602082019050828560208602820111156191a457600080fd5b60005b858110156191d457816191ba8882619231565b8452602084019350602083019250506001810190506191a7565b5050509392505050565b60006191f16191ec8461a5e3565b61a592565b90508281526020810184848401111561920957600080fd5b61921484828561a9dd565b509392505050565b60008135905061922b8161aecf565b92915050565b6000815190506192408161aecf565b92915050565b600082601f83011261925757600080fd5b8135619267848260208601619106565b91505092915050565b600082601f83011261928157600080fd5b8151619291848260208601619172565b91505092915050565b6000815190506192a98161aee6565b92915050565b6000815190506192be8161aefd565b92915050565b6000815190506192d38161af14565b92915050565b6000815190506192e88161af2b565b92915050565b6000815190506192fd8161af42565b92915050565b6000815190506193128161af59565b92915050565b6000815190506193278161af70565b92915050565b60008151905061933c8161af87565b92915050565b6000815190506193518161af9e565b92915050565b6000815190506193668161afb5565b92915050565b60008151905061937b8161afcc565b92915050565b600082601f83011261939257600080fd5b81356193a28482602086016191de565b91505092915050565b6000813590506193ba8161afe3565b92915050565b6000815190506193cf8161afe3565b92915050565b6000602082840312156193e757600080fd5b60006193f58482850161921c565b91505092915050565b60006020828403121561941057600080fd5b600061941e84828501619231565b91505092915050565b6000806040838503121561943a57600080fd5b60006194488582860161921c565b92505060206194598582860161921c565b9150509250929050565b60008060006060848603121561947857600080fd5b60006194868682870161921c565b93505060206194978682870161921c565b92505060406194a88682870161921c565b9150509250925092565b600080600080608085870312156194c857600080fd5b60006194d68782880161921c565b94505060206194e78782880161921c565b93505060406194f88782880161921c565b92505060606195098782880161921c565b91505092959194509250565b6000806040838503121561952857600080fd5b60006195368582860161921c565b925050602083013567ffffffffffffffff81111561955357600080fd5b61955f85828601619381565b9150509250929050565b6000806040838503121561957c57600080fd5b600061958a8582860161921c565b925050602061959b858286016193ab565b9150509250929050565b6000602082840312156195b757600080fd5b600082013567ffffffffffffffff8111156195d157600080fd5b6195dd84828501619246565b91505092915050565b6000602082840312156195f857600080fd5b600082015167ffffffffffffffff81111561961257600080fd5b61961e84828501619270565b91505092915050565b60006020828403121561963957600080fd5b60006196478482850161929a565b91505092915050565b60006020828403121561966257600080fd5b6000619670848285016192af565b91505092915050565b60006020828403121561968b57600080fd5b6000619699848285016192c4565b91505092915050565b6000602082840312156196b457600080fd5b60006196c2848285016192d9565b91505092915050565b6000602082840312156196dd57600080fd5b60006196eb848285016192ee565b91505092915050565b60006020828403121561970657600080fd5b600061971484828501619303565b91505092915050565b60006020828403121561972f57600080fd5b600061973d84828501619318565b91505092915050565b60006020828403121561975857600080fd5b60006197668482850161932d565b91505092915050565b60006020828403121561978157600080fd5b600061978f84828501619342565b91505092915050565b6000602082840312156197aa57600080fd5b60006197b884828501619357565b91505092915050565b6000602082840312156197d357600080fd5b60006197e18482850161936c565b91505092915050565b6000602082840312156197fc57600080fd5b600082013567ffffffffffffffff81111561981657600080fd5b61982284828501619381565b91505092915050565b60006020828403121561983d57600080fd5b600061984b848285016193ab565b91505092915050565b60006020828403121561986657600080fd5b6000619874848285016193c0565b91505092915050565b6000806040838503121561989057600080fd5b600061989e858286016193ab565b92505060206198af8582860161921c565b9150509250929050565b600080604083850312156198cc57600080fd5b60006198da858286016193ab565b925050602083013567ffffffffffffffff8111156198f757600080fd5b61990385828601619381565b9150509250929050565b6000806040838503121561992057600080fd5b600061992e858286016193c0565b925050602061993f858286016193c0565b9150509250929050565b600080600080600060a0868803121561996157600080fd5b600061996f888289016193ab565b9550506020619980888289016193ab565b9450506040619991888289016193ab565b93505060606199a2888289016193ab565b92505060806199b3888289016193ab565b9150509295509295909350565b60006199cc83836199d8565b60208301905092915050565b6199e18161a7a5565b82525050565b6199f08161a7a5565b82525050565b6000619a018261a624565b619a0b818561a652565b9350619a168361a614565b8060005b83811015619a47578151619a2e88826199c0565b9750619a398361a645565b925050600181019050619a1a565b5085935050505092915050565b619a5d8161a7b7565b82525050565b619a6c8161a7b7565b82525050565b6000619a7d8261a62f565b619a87818561a663565b9350619a9781856020860161a9ec565b80840191505092915050565b619aac8161a899565b82525050565b619abb8161a8bd565b82525050565b619aca8161a8e1565b82525050565b619ad98161a905565b82525050565b619ae88161a929565b82525050565b619af78161a94d565b82525050565b619b068161a971565b82525050565b619b158161a995565b82525050565b619b248161a9b9565b82525050565b6000619b358261a63a565b619b3f818561a66e565b9350619b4f81856020860161a9ec565b619b588161ab87565b840191505092915050565b6000619b6e8261a63a565b619b78818561a67f565b9350619b8881856020860161a9ec565b619b918161ab87565b840191505092915050565b6000619ba960048361a67f565b9150619bb48261ab98565b602082019050919050565b6000619bcc60078361a67f565b9150619bd78261abc1565b602082019050919050565b6000619bef60078361a67f565b9150619bfa8261abea565b602082019050919050565b6000619c1260048361a67f565b9150619c1d8261ac13565b602082019050919050565b6000619c3560058361a67f565b9150619c408261ac3c565b602082019050919050565b6000619c58600a8361a67f565b9150619c638261ac65565b602082019050919050565b6000619c7b60088361a67f565b9150619c868261ac8e565b602082019050919050565b6000619c9e60068361a67f565b9150619ca98261acb7565b602082019050919050565b6000619cc1600b8361a67f565b9150619ccc8261ace0565b602082019050919050565b6000619ce460058361a67f565b9150619cef8261ad09565b602082019050919050565b6000619d0760068361a67f565b9150619d128261ad32565b602082019050919050565b6000619d2a60088361a67f565b9150619d358261ad5b565b602082019050919050565b6000619d4d60098361a67f565b9150619d588261ad84565b602082019050919050565b6000619d7060008361a67f565b9150619d7b8261adad565b600082019050919050565b6000619d9360068361a67f565b9150619d9e8261adb0565b602082019050919050565b6000619db660078361a67f565b9150619dc18261add9565b602082019050919050565b6000619dd960088361a67f565b9150619de48261ae02565b602082019050919050565b6000619dfc60058361a67f565b9150619e078261ae2b565b602082019050919050565b6000619e1f601f8361a67f565b9150619e2a8261ae54565b602082019050919050565b6000619e4260058361a67f565b9150619e4d8261ae7d565b602082019050919050565b6000619e6560088361a67f565b9150619e708261aea6565b602082019050919050565b600061014083016000830151619e946000860182619f55565b5060208301518482036020860152619eac8282619b2a565b9150506040830151619ec16040860182619f55565b506060830151619ed46060860182619f55565b506080830151619ee76080860182619a54565b5060a0830151619efa60a0860182619a54565b5060c0830151619f0d60c0860182619f55565b5060e0830151619f2060e08601826199d8565b50610100830151619f35610100860182619a54565b50610120830151619f4a610120860182619f55565b508091505092915050565b619f5e8161a88f565b82525050565b619f6d8161a88f565b82525050565b6000619f7f8284619a72565b915081905092915050565b6000602082019050619f9f60008301846199e7565b92915050565b6000604082019050619fba60008301856199e7565b619fc760208301846199e7565b9392505050565b6000606082019050619fe360008301866199e7565b619ff060208301856199e7565b619ffd6040830184619f64565b949350505050565b600060408201905061a01a60008301856199e7565b61a0276020830184619f64565b9392505050565b600060608201905061a04360008301866199e7565b61a0506020830185619f64565b61a05d60408301846199e7565b949350505050565b6000602082019050818103600083015261a07f81846199f6565b905092915050565b600060208201905061a09c6000830184619a63565b92915050565b600060208201905061a0b76000830184619aa3565b92915050565b600060208201905061a0d26000830184619ab2565b92915050565b600060208201905061a0ed6000830184619ac1565b92915050565b600060208201905061a1086000830184619ad0565b92915050565b600060208201905061a1236000830184619adf565b92915050565b600060208201905061a13e6000830184619aee565b92915050565b600060208201905061a1596000830184619afd565b92915050565b600060208201905061a1746000830184619b0c565b92915050565b600060208201905061a18f6000830184619b1b565b92915050565b6000602082019050818103600083015261a1af8184619b63565b905092915050565b6000602082019050818103600083015261a1d081619b9c565b9050919050565b6000602082019050818103600083015261a1f081619bbf565b9050919050565b6000602082019050818103600083015261a21081619be2565b9050919050565b6000602082019050818103600083015261a23081619c05565b9050919050565b6000602082019050818103600083015261a25081619c28565b9050919050565b6000602082019050818103600083015261a27081619c4b565b9050919050565b6000602082019050818103600083015261a29081619c6e565b9050919050565b6000602082019050818103600083015261a2b081619c91565b9050919050565b6000602082019050818103600083015261a2d081619cb4565b9050919050565b6000602082019050818103600083015261a2f081619cd7565b9050919050565b6000602082019050818103600083015261a31081619cfa565b9050919050565b6000602082019050818103600083015261a33081619d1d565b9050919050565b6000602082019050818103600083015261a35081619d40565b9050919050565b6000602082019050818103600083015261a37081619d63565b9050919050565b6000602082019050818103600083015261a39081619d86565b9050919050565b6000602082019050818103600083015261a3b081619da9565b9050919050565b6000602082019050818103600083015261a3d081619dcc565b9050919050565b6000602082019050818103600083015261a3f081619def565b9050919050565b6000602082019050818103600083015261a41081619e12565b9050919050565b6000602082019050818103600083015261a43081619e35565b9050919050565b6000602082019050818103600083015261a45081619e58565b9050919050565b6000602082019050818103600083015261a4718184619e7b565b905092915050565b600060208201905061a48e6000830184619f64565b92915050565b600060408201905061a4a96000830185619f64565b61a4b660208301846199e7565b9392505050565b600060408201905061a4d26000830185619f64565b818103602083015261a4e48184619b63565b90509392505050565b600060408201905061a5026000830185619f64565b61a50f6020830184619f64565b9392505050565b600060808201905061a52b6000830187619f64565b61a5386020830186619f64565b61a54560408301856199e7565b61a55260608301846199e7565b95945050505050565b600060608201905061a5706000830186619f64565b61a57d6020830185619f64565b61a58a6040830184619f64565b949350505050565b600061a59c61a5ad565b905061a5a8828261aa51565b919050565b6000604051905090565b600067ffffffffffffffff82111561a5d25761a5d161ab58565b5b602082029050602081019050919050565b600067ffffffffffffffff82111561a5fe5761a5fd61ab58565b5b61a6078261ab87565b9050602081019050919050565b6000819050602082019050919050565b600081519050919050565b600081519050919050565b600081519050919050565b6000602082019050919050565b600082825260208201905092915050565b600081905092915050565b600082825260208201905092915050565b600082825260208201905092915050565b600061a69b8261a88f565b915061a6a68361a88f565b9250827fffffffffffffffffffffffffffffffffffffffffffffffffffffffffffffffff0382111561a6db5761a6da61aacb565b5b828201905092915050565b600061a6f18261a88f565b915061a6fc8361a88f565b92508261a70c5761a70b61aafa565b5b828204905092915050565b600061a7228261a88f565b915061a72d8361a88f565b9250817fffffffffffffffffffffffffffffffffffffffffffffffffffffffffffffffff048311821515161561a7665761a76561aacb565b5b828202905092915050565b600061a77c8261a88f565b915061a7878361a88f565b92508282101561a79a5761a79961aacb565b5b828203905092915050565b600061a7b08261a86f565b9050919050565b60008115159050919050565b6000819050919050565b600061a7d88261a7a5565b9050919050565b600061a7ea8261a7a5565b9050919050565b600061a7fc8261a7a5565b9050919050565b600061a80e8261a7a5565b9050919050565b600061a8208261a7a5565b9050919050565b600061a8328261a7a5565b9050919050565b600061a8448261a7a5565b9050919050565b600061a8568261a7a5565b9050919050565b600061a8688261a7a5565b9050919050565b600073ffffffffffffffffffffffffffffffffffffffff82169050919050565b6000819050919050565b600061a8a48261a8ab565b9050919050565b600061a8b68261a86f565b9050919050565b600061a8c88261a8cf565b9050919050565b600061a8da8261a86f565b9050919050565b600061a8ec8261a8f3565b9050919050565b600061a8fe8261a86f565b9050919050565b600061a9108261a917565b9050919050565b600061a9228261a86f565b9050919050565b600061a9348261a93b565b9050919050565b600061a9468261a86f565b9050919050565b600061a9588261a95f565b9050919050565b600061a96a8261a86f565b9050919050565b600061a97c8261a983565b9050919050565b600061a98e8261a86f565b9050919050565b600061a9a08261a9a7565b9050919050565b600061a9b28261a86f565b9050919050565b600061a9c48261a9cb565b9050919050565b600061a9d68261a86f565b9050919050565b82818337600083830152505050565b60005b8381101561aa0a57808201518184015260208101905061a9ef565b8381111561aa19576000848401525b50505050565b6000600282049050600182168061aa3757607f821691505b6020821081141561aa4b5761aa4a61ab29565b5b50919050565b61aa5a8261ab87565b810181811067ffffffffffffffff8211171561aa795761aa7861ab58565b5b80604052505050565b600061aa8d8261a88f565b91507fffffffffffffffffffffffffffffffffffffffffffffffffffffffffffffffff82141561aac05761aabf61aacb565b5b600182019050919050565b7f4e487b7100000000000000000000000000000000000000000000000000000000600052601160045260246000fd5b7f4e487b7100000000000000000000000000000000000000000000000000000000600052601260045260246000fd5b7f4e487b7100000000000000000000000000000000000000000000000000000000600052602260045260246000fd5b7f4e487b7100000000000000000000000000000000000000000000000000000000600052604160045260246000fd5b6000601f19601f8301169050919050565b7f434f4d4100000000000000000000000000000000000000000000000000000000600082015250565b7f216c697374656400000000000000000000000000000000000000000000000000600082015250565b7f21414d4f554e5400000000000000000000000000000000000000000000000000600082015250565b7f2166656500000000000000000000000000000000000000000000000000000000600082015250565b7f534c454550000000000000000000000000000000000000000000000000000000600082015250565b7f21656d697373696f6e7300000000000000000000000000000000000000000000600082015250565b7f21636f6f6c6f6666000000000000000000000000000000000000000000000000600082015250565b7f6c69737465640000000000000000000000000000000000000000000000000000600082015250565b7f2166696e616c6973696e67000000000000000000000000000000000000000000600082015250565b7f2154595045000000000000000000000000000000000000000000000000000000600082015250565b7f2166756e64730000000000000000000000000000000000000000000000000000600082015250565b7f2163757261746564000000000000000000000000000000000000000000000000600082015250565b7f217472616e736665720000000000000000000000000000000000000000000000600082015250565b50565b7f21706172616d0000000000000000000000000000000000000000000000000000600082015250565b7f21616d6f756e7400000000000000000000000000000000000000000000000000600082015250565b7f2161646472657373000000000000000000000000000000000000000000000000600082015250565b7f216f70656e000000000000000000000000000000000000000000000000000000600082015250565b7f5265656e7472616e637947756172643a207265656e7472616e742063616c6c00600082015250565b7f2164617973000000000000000000000000000000000000000000000000000000600082015250565b7f2143555241544544000000000000000000000000000000000000000000000000600082015250565b61aed88161a7a5565b811461aee357600080fd5b50565b61aeef8161a7b7565b811461aefa57600080fd5b50565b61af068161a7c3565b811461af1157600080fd5b50565b61af1d8161a7cd565b811461af2857600080fd5b50565b61af348161a7df565b811461af3f57600080fd5b50565b61af4b8161a7f1565b811461af5657600080fd5b50565b61af628161a803565b811461af6d57600080fd5b50565b61af798161a815565b811461af8457600080fd5b50565b61af908161a827565b811461af9b57600080fd5b50565b61afa78161a839565b811461afb257600080fd5b50565b61afbe8161a84b565b811461afc957600080fd5b50565b61afd58161a85d565b811461afe057600080fd5b50565b61afec8161a88f565b811461aff757600080fd5b5056fea26469706673582212206e5b445acb168a865ad0772960abf869696ac29bf06dec252ecf92035ddc2cac64736f6c63430008030033",
  "linkReferences": {},
  "deployedLinkReferences": {}
}