{
  "_format": "hh-sol-artifact-1",
  "contractName": "Dao",
  "sourceName": "contracts/Dao.sol",
  "abi": [
    {
      "inputs": [
        {
          "internalType": "address",
          "name": "_base",
          "type": "address"
        }
      ],
      "stateMutability": "nonpayable",
      "type": "constructor"
    },
    {
      "anonymous": false,
      "inputs": [
        {
          "indexed": true,
          "internalType": "address",
          "name": "member",
          "type": "address"
        },
        {
          "indexed": true,
          "internalType": "uint256",
          "name": "proposalID",
          "type": "uint256"
        }
      ],
      "name": "CancelProposal",
      "type": "event"
    },
    {
      "anonymous": false,
      "inputs": [
        {
          "indexed": true,
          "internalType": "address",
          "name": "DAO",
          "type": "address"
        },
        {
          "indexed": true,
          "internalType": "address",
          "name": "asset",
          "type": "address"
        }
      ],
      "name": "DelistedAsset",
      "type": "event"
    },
    {
      "anonymous": false,
      "inputs": [
        {
          "indexed": true,
          "internalType": "address",
          "name": "owner",
          "type": "address"
        },
        {
          "indexed": false,
          "internalType": "uint256",
          "name": "depositAmount",
          "type": "uint256"
        },
        {
          "indexed": false,
          "internalType": "uint256",
          "name": "bondedLP",
          "type": "uint256"
        }
      ],
      "name": "DepositAsset",
      "type": "event"
    },
    {
      "anonymous": false,
      "inputs": [
        {
          "indexed": true,
          "internalType": "address",
          "name": "member",
          "type": "address"
        },
        {
          "indexed": true,
          "internalType": "uint256",
          "name": "proposalID",
          "type": "uint256"
        },
        {
          "indexed": false,
          "internalType": "uint256",
          "name": "votesCast",
          "type": "uint256"
        },
        {
          "indexed": false,
          "internalType": "uint256",
          "name": "totalWeight",
          "type": "uint256"
        },
        {
          "indexed": false,
          "internalType": "string",
          "name": "proposalType",
          "type": "string"
        }
      ],
      "name": "FinalisedProposal",
      "type": "event"
    },
    {
      "anonymous": false,
      "inputs": [
        {
          "indexed": true,
          "internalType": "address",
          "name": "DAO",
          "type": "address"
        },
        {
          "indexed": true,
          "internalType": "address",
          "name": "asset",
          "type": "address"
        }
      ],
      "name": "ListedAsset",
      "type": "event"
    },
    {
      "anonymous": false,
      "inputs": [
        {
          "indexed": true,
          "internalType": "address",
          "name": "member",
          "type": "address"
        },
        {
          "indexed": true,
          "internalType": "address",
          "name": "pool",
          "type": "address"
        },
        {
          "indexed": false,
          "internalType": "uint256",
          "name": "amount",
          "type": "uint256"
        }
      ],
      "name": "MemberDeposits",
      "type": "event"
    },
    {
      "anonymous": false,
      "inputs": [
        {
          "indexed": true,
          "internalType": "address",
          "name": "member",
          "type": "address"
        },
        {
          "indexed": true,
          "internalType": "address",
          "name": "pool",
          "type": "address"
        },
        {
          "indexed": false,
          "internalType": "uint256",
          "name": "balance",
          "type": "uint256"
        }
      ],
      "name": "MemberWithdraws",
      "type": "event"
    },
    {
      "anonymous": false,
      "inputs": [
        {
          "indexed": true,
          "internalType": "address",
          "name": "member",
          "type": "address"
        },
        {
          "indexed": true,
          "internalType": "uint256",
          "name": "proposalID",
          "type": "uint256"
        },
        {
          "indexed": false,
          "internalType": "string",
          "name": "proposalType",
          "type": "string"
        }
      ],
      "name": "NewProposal",
      "type": "event"
    },
    {
      "anonymous": false,
      "inputs": [
        {
          "indexed": true,
          "internalType": "address",
          "name": "member",
          "type": "address"
        },
        {
          "indexed": true,
          "internalType": "uint256",
          "name": "proposalID",
          "type": "uint256"
        },
        {
          "indexed": false,
          "internalType": "uint256",
          "name": "voteWeight",
          "type": "uint256"
        },
        {
          "indexed": false,
          "internalType": "uint256",
          "name": "totalVotes",
          "type": "uint256"
        },
        {
          "indexed": false,
          "internalType": "string",
          "name": "proposalType",
          "type": "string"
        }
      ],
      "name": "NewVote",
      "type": "event"
    },
    {
      "anonymous": false,
      "inputs": [
        {
          "indexed": true,
          "internalType": "address",
          "name": "member",
          "type": "address"
        },
        {
          "indexed": true,
          "internalType": "uint256",
          "name": "proposalID",
          "type": "uint256"
        },
        {
          "indexed": false,
          "internalType": "uint256",
          "name": "timeFinalised",
          "type": "uint256"
        },
        {
          "indexed": false,
          "internalType": "string",
          "name": "proposalType",
          "type": "string"
        }
      ],
      "name": "ProposalFinalising",
      "type": "event"
    },
    {
      "anonymous": false,
      "inputs": [
        {
          "indexed": true,
          "internalType": "address",
          "name": "member",
          "type": "address"
        },
        {
          "indexed": true,
          "internalType": "uint256",
          "name": "proposalID",
          "type": "uint256"
        },
        {
          "indexed": false,
          "internalType": "uint256",
          "name": "voteWeight",
          "type": "uint256"
        },
        {
          "indexed": false,
          "internalType": "uint256",
          "name": "totalVotes",
          "type": "uint256"
        },
        {
          "indexed": false,
          "internalType": "string",
          "name": "proposalType",
          "type": "string"
        }
      ],
      "name": "RemovedVote",
      "type": "event"
    },
    {
      "inputs": [],
      "name": "BASE",
      "outputs": [
        {
          "internalType": "address",
          "name": "",
          "type": "address"
        }
      ],
      "stateMutability": "view",
      "type": "function"
    },
    {
      "inputs": [],
      "name": "BONDVAULT",
      "outputs": [
        {
          "internalType": "contract iBONDVAULT",
          "name": "",
          "type": "address"
        }
      ],
      "stateMutability": "view",
      "type": "function"
    },
    {
      "inputs": [],
      "name": "DAO",
      "outputs": [
        {
          "internalType": "address",
          "name": "",
          "type": "address"
        }
      ],
      "stateMutability": "view",
      "type": "function"
    },
    {
      "inputs": [],
      "name": "DAOVAULT",
      "outputs": [
        {
          "internalType": "contract iDAOVAULT",
          "name": "",
          "type": "address"
        }
      ],
      "stateMutability": "view",
      "type": "function"
    },
    {
      "inputs": [],
      "name": "DEPLOYER",
      "outputs": [
        {
          "internalType": "address",
          "name": "",
          "type": "address"
        }
      ],
      "stateMutability": "view",
      "type": "function"
    },
    {
      "inputs": [],
      "name": "POOLFACTORY",
      "outputs": [
        {
          "internalType": "contract iPOOLFACTORY",
          "name": "",
          "type": "address"
        }
      ],
      "stateMutability": "view",
      "type": "function"
    },
    {
      "inputs": [],
      "name": "RESERVE",
      "outputs": [
        {
          "internalType": "contract iRESERVE",
          "name": "",
          "type": "address"
        }
      ],
      "stateMutability": "view",
      "type": "function"
    },
    {
      "inputs": [],
      "name": "ROUTER",
      "outputs": [
        {
          "internalType": "contract iROUTER",
          "name": "",
          "type": "address"
        }
      ],
      "stateMutability": "view",
      "type": "function"
    },
    {
      "inputs": [],
      "name": "SYNTHFACTORY",
      "outputs": [
        {
          "internalType": "contract iSYNTHFACTORY",
          "name": "",
          "type": "address"
        }
      ],
      "stateMutability": "view",
      "type": "function"
    },
    {
      "inputs": [],
      "name": "SYNTHVAULT",
      "outputs": [
        {
          "internalType": "contract iSYNTHVAULT",
          "name": "",
          "type": "address"
        }
      ],
      "stateMutability": "view",
      "type": "function"
    },
    {
      "inputs": [],
      "name": "UTILS",
      "outputs": [
        {
          "internalType": "contract iUTILS",
          "name": "",
          "type": "address"
        }
      ],
      "stateMutability": "view",
      "type": "function"
    },
    {
      "inputs": [],
      "name": "allListedAssets",
      "outputs": [
        {
          "internalType": "address[]",
          "name": "_allListedAssets",
          "type": "address[]"
        }
      ],
      "stateMutability": "view",
      "type": "function"
    },
    {
      "inputs": [
        {
          "internalType": "uint256",
          "name": "",
          "type": "uint256"
        }
      ],
      "name": "arrayMembers",
      "outputs": [
        {
          "internalType": "address",
          "name": "",
          "type": "address"
        }
      ],
      "stateMutability": "view",
      "type": "function"
    },
    {
      "inputs": [],
      "name": "assetListedCount",
      "outputs": [
        {
          "internalType": "uint256",
          "name": "count",
          "type": "uint256"
        }
      ],
      "stateMutability": "view",
      "type": "function"
    },
    {
      "inputs": [
        {
          "internalType": "address",
          "name": "asset",
          "type": "address"
        },
        {
          "internalType": "uint256",
          "name": "amount",
          "type": "uint256"
        }
      ],
      "name": "bond",
      "outputs": [
        {
          "internalType": "bool",
          "name": "success",
          "type": "bool"
        }
      ],
      "stateMutability": "payable",
      "type": "function"
    },
    {
      "inputs": [],
      "name": "bondingPeriodSeconds",
      "outputs": [
        {
          "internalType": "uint256",
          "name": "",
          "type": "uint256"
        }
      ],
      "stateMutability": "view",
      "type": "function"
    },
    {
      "inputs": [],
      "name": "burnBalance",
      "outputs": [
        {
          "internalType": "bool",
          "name": "",
          "type": "bool"
        }
      ],
      "stateMutability": "nonpayable",
      "type": "function"
    },
    {
      "inputs": [
        {
          "internalType": "address",
          "name": "bondedMember",
          "type": "address"
        },
        {
          "internalType": "address",
          "name": "asset",
          "type": "address"
        }
      ],
      "name": "calcClaimBondedLP",
      "outputs": [
        {
          "internalType": "uint256",
          "name": "",
          "type": "uint256"
        }
      ],
      "stateMutability": "nonpayable",
      "type": "function"
    },
    {
      "inputs": [
        {
          "internalType": "address",
          "name": "member",
          "type": "address"
        }
      ],
      "name": "calcCurrentReward",
      "outputs": [
        {
          "internalType": "uint256",
          "name": "",
          "type": "uint256"
        }
      ],
      "stateMutability": "view",
      "type": "function"
    },
    {
      "inputs": [
        {
          "internalType": "address",
          "name": "member",
          "type": "address"
        }
      ],
      "name": "calcReward",
      "outputs": [
        {
          "internalType": "uint256",
          "name": "",
          "type": "uint256"
        }
      ],
      "stateMutability": "view",
      "type": "function"
    },
    {
      "inputs": [],
      "name": "cancelProposal",
      "outputs": [],
      "stateMutability": "nonpayable",
      "type": "function"
    },
    {
      "inputs": [
        {
          "internalType": "uint256",
          "name": "bondingSeconds",
          "type": "uint256"
        }
      ],
      "name": "changeBondingPeriod",
      "outputs": [],
      "stateMutability": "nonpayable",
      "type": "function"
    },
    {
      "inputs": [
        {
          "internalType": "address",
          "name": "member",
          "type": "address"
        }
      ],
      "name": "claimAllForMember",
      "outputs": [
        {
          "internalType": "bool",
          "name": "",
          "type": "bool"
        }
      ],
      "stateMutability": "nonpayable",
      "type": "function"
    },
    {
      "inputs": [
        {
          "internalType": "address",
          "name": "asset",
          "type": "address"
        }
      ],
      "name": "claimForMember",
      "outputs": [
        {
          "internalType": "bool",
          "name": "",
          "type": "bool"
        }
      ],
      "stateMutability": "nonpayable",
      "type": "function"
    },
    {
      "inputs": [],
      "name": "coolOffPeriod",
      "outputs": [
        {
          "internalType": "uint256",
          "name": "",
          "type": "uint256"
        }
      ],
      "stateMutability": "view",
      "type": "function"
    },
    {
      "inputs": [],
      "name": "currentProposal",
      "outputs": [
        {
          "internalType": "uint256",
          "name": "",
          "type": "uint256"
        }
      ],
      "stateMutability": "view",
      "type": "function"
    },
    {
      "inputs": [],
      "name": "daoClaim",
      "outputs": [
        {
          "internalType": "uint256",
          "name": "",
          "type": "uint256"
        }
      ],
      "stateMutability": "view",
      "type": "function"
    },
    {
      "inputs": [],
      "name": "daoFee",
      "outputs": [
        {
          "internalType": "uint256",
          "name": "",
          "type": "uint256"
        }
      ],
      "stateMutability": "view",
      "type": "function"
    },
    {
      "inputs": [],
      "name": "daoHasMoved",
      "outputs": [
        {
          "internalType": "bool",
          "name": "",
          "type": "bool"
        }
      ],
      "stateMutability": "view",
      "type": "function"
    },
    {
      "inputs": [
        {
          "internalType": "address",
          "name": "asset",
          "type": "address"
        }
      ],
      "name": "delistBondAsset",
      "outputs": [],
      "stateMutability": "nonpayable",
      "type": "function"
    },
    {
      "inputs": [
        {
          "internalType": "address",
          "name": "pool",
          "type": "address"
        },
        {
          "internalType": "uint256",
          "name": "amount",
          "type": "uint256"
        }
      ],
      "name": "deposit",
      "outputs": [],
      "stateMutability": "nonpayable",
      "type": "function"
    },
    {
      "inputs": [
        {
          "internalType": "address",
          "name": "pool",
          "type": "address"
        },
        {
          "internalType": "uint256",
          "name": "amount",
          "type": "uint256"
        },
        {
          "internalType": "address",
          "name": "member",
          "type": "address"
        }
      ],
      "name": "depositLPForMember",
      "outputs": [],
      "stateMutability": "nonpayable",
      "type": "function"
    },
    {
      "inputs": [],
      "name": "erasToEarn",
      "outputs": [
        {
          "internalType": "uint256",
          "name": "",
          "type": "uint256"
        }
      ],
      "stateMutability": "view",
      "type": "function"
    },
    {
      "inputs": [],
      "name": "finaliseProposal",
      "outputs": [],
      "stateMutability": "nonpayable",
      "type": "function"
    },
    {
      "inputs": [
        {
          "internalType": "uint256",
          "name": "proposalID",
          "type": "uint256"
        }
      ],
      "name": "getProposalDetails",
      "outputs": [
        {
          "components": [
            {
              "internalType": "uint256",
              "name": "id",
              "type": "uint256"
            },
            {
              "internalType": "string",
              "name": "proposalType",
              "type": "string"
            },
            {
              "internalType": "uint256",
              "name": "votes",
              "type": "uint256"
            },
            {
              "internalType": "uint256",
              "name": "coolOffTime",
              "type": "uint256"
            },
            {
              "internalType": "bool",
              "name": "finalising",
              "type": "bool"
            },
            {
              "internalType": "bool",
              "name": "finalised",
              "type": "bool"
            },
            {
              "internalType": "uint256",
              "name": "param",
              "type": "uint256"
            },
            {
              "internalType": "address",
              "name": "proposedAddress",
              "type": "address"
            },
            {
              "internalType": "bool",
              "name": "open",
              "type": "bool"
            },
            {
              "internalType": "uint256",
              "name": "startTime",
              "type": "uint256"
            }
          ],
          "internalType": "struct Dao.ProposalDetails",
          "name": "proposalDetails",
          "type": "tuple"
        }
      ],
      "stateMutability": "view",
      "type": "function"
    },
    {
      "inputs": [],
      "name": "harvest",
      "outputs": [],
      "stateMutability": "nonpayable",
      "type": "function"
    },
    {
      "inputs": [
        {
          "internalType": "uint256",
          "name": "_proposalID",
          "type": "uint256"
        }
      ],
      "name": "hasMajority",
      "outputs": [
        {
          "internalType": "bool",
          "name": "",
          "type": "bool"
        }
      ],
      "stateMutability": "view",
      "type": "function"
    },
    {
      "inputs": [
        {
          "internalType": "uint256",
          "name": "_proposalID",
          "type": "uint256"
        }
      ],
      "name": "hasMinority",
      "outputs": [
        {
          "internalType": "bool",
          "name": "",
          "type": "bool"
        }
      ],
      "stateMutability": "view",
      "type": "function"
    },
    {
      "inputs": [
        {
          "internalType": "uint256",
          "name": "_proposalID",
          "type": "uint256"
        }
      ],
      "name": "hasQuorum",
      "outputs": [
        {
          "internalType": "bool",
          "name": "",
          "type": "bool"
        }
      ],
      "stateMutability": "view",
      "type": "function"
    },
    {
      "inputs": [
        {
          "internalType": "address",
          "name": "",
          "type": "address"
        }
      ],
      "name": "isListed",
      "outputs": [
        {
          "internalType": "bool",
          "name": "",
          "type": "bool"
        }
      ],
      "stateMutability": "view",
      "type": "function"
    },
    {
      "inputs": [
        {
          "internalType": "address",
          "name": "",
          "type": "address"
        }
      ],
      "name": "isMember",
      "outputs": [
        {
          "internalType": "bool",
          "name": "",
          "type": "bool"
        }
      ],
      "stateMutability": "view",
      "type": "function"
    },
    {
      "inputs": [
        {
          "internalType": "address",
          "name": "asset",
          "type": "address"
        }
      ],
      "name": "listBondAsset",
      "outputs": [],
      "stateMutability": "nonpayable",
      "type": "function"
    },
    {
      "inputs": [],
      "name": "majorityFactor",
      "outputs": [
        {
          "internalType": "uint256",
          "name": "",
          "type": "uint256"
        }
      ],
      "stateMutability": "view",
      "type": "function"
    },
    {
      "inputs": [
        {
          "internalType": "address",
          "name": "",
          "type": "address"
        }
      ],
      "name": "mapMember_lastTime",
      "outputs": [
        {
          "internalType": "uint256",
          "name": "",
          "type": "uint256"
        }
      ],
      "stateMutability": "view",
      "type": "function"
    },
    {
      "inputs": [
        {
          "internalType": "uint256",
          "name": "",
          "type": "uint256"
        },
        {
          "internalType": "address",
          "name": "",
          "type": "address"
        }
      ],
      "name": "mapPIDMember_votes",
      "outputs": [
        {
          "internalType": "uint256",
          "name": "",
          "type": "uint256"
        }
      ],
      "stateMutability": "view",
      "type": "function"
    },
    {
      "inputs": [
        {
          "internalType": "uint256",
          "name": "",
          "type": "uint256"
        }
      ],
      "name": "mapPID_address",
      "outputs": [
        {
          "internalType": "address",
          "name": "",
          "type": "address"
        }
      ],
      "stateMutability": "view",
      "type": "function"
    },
    {
      "inputs": [
        {
          "internalType": "uint256",
          "name": "",
          "type": "uint256"
        }
      ],
      "name": "mapPID_coolOffTime",
      "outputs": [
        {
          "internalType": "uint256",
          "name": "",
          "type": "uint256"
        }
      ],
      "stateMutability": "view",
      "type": "function"
    },
    {
      "inputs": [
        {
          "internalType": "uint256",
          "name": "",
          "type": "uint256"
        }
      ],
      "name": "mapPID_finalised",
      "outputs": [
        {
          "internalType": "bool",
          "name": "",
          "type": "bool"
        }
      ],
      "stateMutability": "view",
      "type": "function"
    },
    {
      "inputs": [
        {
          "internalType": "uint256",
          "name": "",
          "type": "uint256"
        }
      ],
      "name": "mapPID_finalising",
      "outputs": [
        {
          "internalType": "bool",
          "name": "",
          "type": "bool"
        }
      ],
      "stateMutability": "view",
      "type": "function"
    },
    {
      "inputs": [
        {
          "internalType": "uint256",
          "name": "",
          "type": "uint256"
        }
      ],
      "name": "mapPID_open",
      "outputs": [
        {
          "internalType": "bool",
          "name": "",
          "type": "bool"
        }
      ],
      "stateMutability": "view",
      "type": "function"
    },
    {
      "inputs": [
        {
          "internalType": "uint256",
          "name": "",
          "type": "uint256"
        }
      ],
      "name": "mapPID_param",
      "outputs": [
        {
          "internalType": "uint256",
          "name": "",
          "type": "uint256"
        }
      ],
      "stateMutability": "view",
      "type": "function"
    },
    {
      "inputs": [
        {
          "internalType": "uint256",
          "name": "",
          "type": "uint256"
        }
      ],
      "name": "mapPID_startTime",
      "outputs": [
        {
          "internalType": "uint256",
          "name": "",
          "type": "uint256"
        }
      ],
      "stateMutability": "view",
      "type": "function"
    },
    {
      "inputs": [
        {
          "internalType": "uint256",
          "name": "",
          "type": "uint256"
        }
      ],
      "name": "mapPID_type",
      "outputs": [
        {
          "internalType": "string",
          "name": "",
          "type": "string"
        }
      ],
      "stateMutability": "view",
      "type": "function"
    },
    {
      "inputs": [
        {
          "internalType": "uint256",
          "name": "",
          "type": "uint256"
        }
      ],
      "name": "mapPID_votes",
      "outputs": [
        {
          "internalType": "uint256",
          "name": "",
          "type": "uint256"
        }
      ],
      "stateMutability": "view",
      "type": "function"
    },
    {
      "inputs": [],
      "name": "memberCount",
      "outputs": [
        {
          "internalType": "uint256",
          "name": "",
          "type": "uint256"
        }
      ],
      "stateMutability": "view",
      "type": "function"
    },
    {
      "inputs": [
        {
          "internalType": "address",
          "name": "newDAO",
          "type": "address"
        }
      ],
      "name": "moveBASEBalance",
      "outputs": [],
      "stateMutability": "nonpayable",
      "type": "function"
    },
    {
      "inputs": [
        {
          "internalType": "string",
          "name": "typeStr",
          "type": "string"
        }
      ],
      "name": "newActionProposal",
      "outputs": [
        {
          "internalType": "uint256",
          "name": "",
          "type": "uint256"
        }
      ],
      "stateMutability": "nonpayable",
      "type": "function"
    },
    {
      "inputs": [
        {
          "internalType": "address",
          "name": "proposedAddress",
          "type": "address"
        },
        {
          "internalType": "string",
          "name": "typeStr",
          "type": "string"
        }
      ],
      "name": "newAddressProposal",
      "outputs": [
        {
          "internalType": "uint256",
          "name": "",
          "type": "uint256"
        }
      ],
      "stateMutability": "nonpayable",
      "type": "function"
    },
    {
      "inputs": [
        {
          "internalType": "address",
          "name": "recipient",
          "type": "address"
        },
        {
          "internalType": "uint256",
          "name": "amount",
          "type": "uint256"
        }
      ],
      "name": "newGrantProposal",
      "outputs": [
        {
          "internalType": "uint256",
          "name": "",
          "type": "uint256"
        }
      ],
      "stateMutability": "nonpayable",
      "type": "function"
    },
    {
      "inputs": [
        {
          "internalType": "uint32",
          "name": "param",
          "type": "uint32"
        },
        {
          "internalType": "string",
          "name": "typeStr",
          "type": "string"
        }
      ],
      "name": "newParamProposal",
      "outputs": [
        {
          "internalType": "uint256",
          "name": "",
          "type": "uint256"
        }
      ],
      "stateMutability": "nonpayable",
      "type": "function"
    },
    {
      "inputs": [],
      "name": "proposalCount",
      "outputs": [
        {
          "internalType": "uint256",
          "name": "",
          "type": "uint256"
        }
      ],
      "stateMutability": "view",
      "type": "function"
    },
    {
      "inputs": [],
      "name": "purgeDeployer",
      "outputs": [],
      "stateMutability": "nonpayable",
      "type": "function"
    },
    {
      "inputs": [],
      "name": "removeVote",
      "outputs": [
        {
          "internalType": "uint256",
          "name": "voteWeightRemoved",
          "type": "uint256"
        }
      ],
      "stateMutability": "nonpayable",
      "type": "function"
    },
    {
      "inputs": [],
      "name": "secondsPerEra",
      "outputs": [
        {
          "internalType": "uint256",
          "name": "",
          "type": "uint256"
        }
      ],
      "stateMutability": "view",
      "type": "function"
    },
    {
      "inputs": [
        {
          "internalType": "address",
          "name": "_poolFactory",
          "type": "address"
        },
        {
          "internalType": "address",
          "name": "_synthFactory",
          "type": "address"
        }
      ],
      "name": "setFactoryAddresses",
      "outputs": [],
      "stateMutability": "nonpayable",
      "type": "function"
    },
    {
      "inputs": [
        {
          "internalType": "address",
          "name": "_router",
          "type": "address"
        },
        {
          "internalType": "address",
          "name": "_utils",
          "type": "address"
        },
        {
          "internalType": "address",
          "name": "_reserve",
          "type": "address"
        }
      ],
      "name": "setGenesisAddresses",
      "outputs": [],
      "stateMutability": "nonpayable",
      "type": "function"
    },
    {
      "inputs": [
        {
          "internalType": "uint32",
          "name": "_coolOff",
          "type": "uint32"
        },
        {
          "internalType": "uint32",
          "name": "_daysToEarn",
          "type": "uint32"
        },
        {
          "internalType": "uint32",
          "name": "_majorityFactor",
          "type": "uint32"
        },
        {
          "internalType": "uint32",
          "name": "_daoClaim",
          "type": "uint32"
        },
        {
          "internalType": "uint32",
          "name": "_daoFee",
          "type": "uint32"
        }
      ],
      "name": "setGenesisFactors",
      "outputs": [],
      "stateMutability": "nonpayable",
      "type": "function"
    },
    {
      "inputs": [
        {
          "internalType": "address",
          "name": "_daovault",
          "type": "address"
        },
        {
          "internalType": "address",
          "name": "_bondvault",
          "type": "address"
        },
        {
          "internalType": "address",
          "name": "_synthVault",
          "type": "address"
        }
      ],
      "name": "setVaultAddresses",
      "outputs": [],
      "stateMutability": "nonpayable",
      "type": "function"
    },
    {
      "inputs": [],
      "name": "voteProposal",
      "outputs": [
        {
          "internalType": "uint256",
          "name": "voteWeight",
          "type": "uint256"
        }
      ],
      "stateMutability": "nonpayable",
      "type": "function"
    },
    {
      "inputs": [
        {
          "internalType": "address",
          "name": "pool",
          "type": "address"
        }
      ],
      "name": "withdraw",
      "outputs": [],
      "stateMutability": "nonpayable",
      "type": "function"
    }
  ],
  "bytecode": "0x608060405262ed4e006015553480156200001857600080fd5b5060405162008ecc38038062008ecc83398181016040528101906200003e919062000213565b80600160006101000a81548173ffffffffffffffffffffffffffffffffffffffff021916908373ffffffffffffffffffffffffffffffffffffffff160217905550336000806101000a81548173ffffffffffffffffffffffffffffffffffffffff021916908373ffffffffffffffffffffffffffffffffffffffff16021790555030600a60016101000a81548173ffffffffffffffffffffffffffffffffffffffff021916908373ffffffffffffffffffffffffffffffffffffffff1602179055506203f480600381905550601e600681905550611a0a6005819055506103e860078190555060646008819055506000600481905550600160009054906101000a900473ffffffffffffffffffffffffffffffffffffffff1673ffffffffffffffffffffffffffffffffffffffff16636b92a3b66040518163ffffffff1660e01b815260040160206040518083038186803b1580156200019d57600080fd5b505afa158015620001b2573d6000803e3d6000fd5b505050506040513d601f19601f82011682018060405250810190620001d891906200023f565b60028190555050620002dd565b600081519050620001f681620002a9565b92915050565b6000815190506200020d81620002c3565b92915050565b6000602082840312156200022657600080fd5b60006200023684828501620001e5565b91505092915050565b6000602082840312156200025257600080fd5b60006200026284828501620001fc565b91505092915050565b600062000278826200027f565b9050919050565b600073ffffffffffffffffffffffffffffffffffffffff82169050919050565b6000819050919050565b620002b4816200026b565b8114620002c057600080fd5b50565b620002ce816200029f565b8114620002da57600080fd5b50565b618bdf80620002ed6000396000f3fe6080604052600436106104055760003560e01c80638351739a11610213578063b93ec54b11610123578063da35c664116100ab578063ec342ad01161007a578063ec342ad014611044578063f135dcf81461106f578063f38a2fa1146110ac578063f794062e146110e9578063f7a79a371461112657610405565b8063da35c66414610f76578063dab249b314610fa1578063db634d7c14610fde578063e248260c1461100757610405565b8063c05fc178116100f2578063c05fc17814610e57578063c1b8411a14610e94578063c42b3f7d14610ebf578063d0ad170914610efc578063d145836314610f3957610405565b8063b93ec54b14610d99578063b99b0a0c14610dc4578063bbf8cf8214610def578063bc68fad914610e2c57610405565b8063a230c524116101a6578063ab2bd8fd11610175578063ab2bd8fd14610cb4578063abb6154f14610ccb578063ae887c8b14610cf6578063af04598014610d33578063b826286914610d5c57610405565b8063a230c52414610bcd578063a299ecb214610c0a578063a515366a14610c47578063a6c83fed14610c7757610405565b8063956615be116101e2578063956615be14610b2357806398fabd3a14610b4e5780639cd99aa214610b795780639d2cc43614610ba257610405565b80638351739a14610a7b5780638601b9e614610aa65780638bebea8914610acf5780639070577f14610b0c57610405565b8063436f80be116103195780635c120b37116102a15780636b92a3b6116102705780636b92a3b61461099457806373758988146109bf57806379b2dc4c146109e85780637a8c72b514610a135780637b0e5c4514610a5057610405565b80635c120b37146108c65780635c7366d31461090357806365c71bbf1461094057806368bb97b31461096b57610405565b806347e7ef24116102e857806347e7ef24146107e357806349aa4ee21461080c5780634b4000341461083757806351cff8d914610874578063572cf9271461089d57610405565b8063436f80be1461072957806346350821146107665780634636279f1461078f5780634641257d146107cc57610405565b80632bee11941161039c57806332fe7b261161036b57806332fe7b261461062e57806335cb5fe01461065957806338da7dd6146106845780633a61738d146106af5780633b4d01a7146106ec57610405565b80632bee11941461055e5780632c07eebf1461059b5780632f7fa180146105c6578063314604fe146105f157610405565b8063293cee7d116103d8578063293cee7d146104a05780632957b839146104dd5780632ab24e49146105085780632b49d4251461053357610405565b806303a821381461040a57806311aee3801461042157806324efb5281461044c57806325a7f90814610477575b600080fd5b34801561041657600080fd5b5061041f611151565b005b34801561042d57600080fd5b506104366111ec565b604051610443919061815e565b60405180910390f35b34801561045857600080fd5b506104616111f9565b60405161046e9190617e87565b60405180910390f35b34801561048357600080fd5b5061049e60048036038101906104999190617564565b61120c565b005b3480156104ac57600080fd5b506104c760048036038101906104c291906174d4565b6117f4565b6040516104d4919061815e565b60405180910390f35b3480156104e957600080fd5b506104f26118e1565b6040516104ff919061815e565b60405180910390f35b34801561051457600080fd5b5061051d6118e7565b60405161052a9190617f44565b60405180910390f35b34801561053f57600080fd5b506105486119ce565b604051610555919061815e565b60405180910390f35b34801561056a57600080fd5b506105856004803603810190610580919061778e565b6119d4565b6040516105929190617e87565b60405180910390f35b3480156105a757600080fd5b506105b06119f4565b6040516105bd919061815e565b60405180910390f35b3480156105d257600080fd5b506105db6119fa565b6040516105e89190617ea2565b60405180910390f35b3480156105fd57600080fd5b506106186004803603810190610613919061778e565b611ae1565b604051610625919061815e565b60405180910390f35b34801561063a57600080fd5b50610643611af9565b6040516106509190617f0e565b60405180910390f35b34801561066557600080fd5b5061066e611be0565b60405161067b9190617e65565b60405180910390f35b34801561069057600080fd5b50610699611c6e565b6040516106a69190617ebd565b60405180910390f35b3480156106bb57600080fd5b506106d660048036038101906106d19190617420565b611d55565b6040516106e3919061815e565b60405180910390f35b3480156106f857600080fd5b50610713600480360381019061070e919061778e565b6121bf565b604051610720919061813c565b60405180910390f35b34801561073557600080fd5b50610750600480360381019061074b919061778e565b6123eb565b60405161075d9190617d8a565b60405180910390f35b34801561077257600080fd5b5061078d60048036038101906107889190617449565b61242a565b005b34801561079b57600080fd5b506107b660048036038101906107b19190617420565b612508565b6040516107c3919061815e565b60405180910390f35b3480156107d857600080fd5b506107e161258d565b005b3480156107ef57600080fd5b5061080a60048036038101906108059190617528565b61284f565b005b34801561081857600080fd5b5061082161285e565b60405161082e919061815e565b60405180910390f35b34801561084357600080fd5b5061085e6004803603810190610859919061778e565b612a71565b60405161086b9190617e87565b60405180910390f35b34801561088057600080fd5b5061089b60048036038101906108969190617420565b612a91565b005b3480156108a957600080fd5b506108c460048036038101906108bf9190617870565b612b8b565b005b3480156108d257600080fd5b506108ed60048036038101906108e8919061778e565b612c2b565b6040516108fa9190617e87565b60405180910390f35b34801561090f57600080fd5b5061092a60048036038101906109259190617420565b612dd2565b604051610937919061815e565b60405180910390f35b34801561094c57600080fd5b50610955612dea565b604051610962919061815e565b60405180910390f35b34801561097757600080fd5b50610992600480360381019061098d9190617420565b612df0565b005b3480156109a057600080fd5b506109a9612fab565b6040516109b6919061815e565b60405180910390f35b3480156109cb57600080fd5b506109e660048036038101906109e19190617485565b612fb1565b005b3480156109f457600080fd5b506109fd6130d1565b604051610a0a919061815e565b60405180910390f35b348015610a1f57600080fd5b50610a3a6004803603810190610a359190617420565b6130d7565b604051610a479190617e87565b60405180910390f35b348015610a5c57600080fd5b50610a656132b5565b604051610a729190617f5f565b60405180910390f35b348015610a8757600080fd5b50610a9061339c565b604051610a9d919061815e565b60405180910390f35b348015610ab257600080fd5b50610acd6004803603810190610ac89190617485565b6137b9565b005b348015610adb57600080fd5b50610af66004803603810190610af1919061778e565b6138d9565b604051610b039190617e87565b60405180910390f35b348015610b1857600080fd5b50610b216138f8565b005b348015610b2f57600080fd5b50610b386139ee565b604051610b45919061815e565b60405180910390f35b348015610b5a57600080fd5b50610b636139f4565b604051610b709190617d8a565b60405180910390f35b348015610b8557600080fd5b50610ba06004803603810190610b9b9190617420565b613a1a565b005b348015610bae57600080fd5b50610bb7613bdc565b604051610bc49190617ef3565b60405180910390f35b348015610bd957600080fd5b50610bf46004803603810190610bef9190617420565b613cc3565b604051610c019190617e87565b60405180910390f35b348015610c1657600080fd5b50610c316004803603810190610c2c919061778e565b613ce3565b604051610c3e919061815e565b60405180910390f35b610c616004803603810190610c5c9190617528565b613cfb565b604051610c6e9190617e87565b60405180910390f35b348015610c8357600080fd5b50610c9e6004803603810190610c999190617528565b61418e565b604051610cab919061815e565b60405180910390f35b348015610cc057600080fd5b50610cc96142d0565b005b348015610cd757600080fd5b50610ce06148d1565b604051610ced919061815e565b60405180910390f35b348015610d0257600080fd5b50610d1d6004803603810190610d18919061778e565b6148d7565b604051610d2a9190617d8a565b60405180910390f35b348015610d3f57600080fd5b50610d5a6004803603810190610d55919061778e565b61490a565b005b348015610d6857600080fd5b50610d836004803603810190610d7e919061778e565b61496c565b604051610d90919061815e565b60405180910390f35b348015610da557600080fd5b50610dae614984565b604051610dbb9190617f29565b60405180910390f35b348015610dd057600080fd5b50610dd9614a6b565b604051610de69190617ed8565b60405180910390f35b348015610dfb57600080fd5b50610e166004803603810190610e11919061778e565b614b52565b604051610e239190617e87565b60405180910390f35b348015610e3857600080fd5b50610e41614ceb565b604051610e4e9190617e87565b60405180910390f35b348015610e6357600080fd5b50610e7e6004803603810190610e79919061778e565b614e8a565b604051610e8b9190617f7a565b60405180910390f35b348015610ea057600080fd5b50610ea9614f2a565b604051610eb69190617d8a565b60405180910390f35b348015610ecb57600080fd5b50610ee66004803603810190610ee191906177e0565b614f4e565b604051610ef3919061815e565b60405180910390f35b348015610f0857600080fd5b50610f236004803603810190610f1e919061778e565b614f73565b604051610f309190617e87565b60405180910390f35b348015610f4557600080fd5b50610f606004803603810190610f5b919061774d565b61510c565b604051610f6d919061815e565b60405180910390f35b348015610f8257600080fd5b50610f8b6151a4565b604051610f98919061815e565b60405180910390f35b348015610fad57600080fd5b50610fc86004803603810190610fc3919061778e565b6151aa565b604051610fd5919061815e565b60405180910390f35b348015610fea57600080fd5b5061100560048036038101906110009190617420565b6151c2565b005b34801561101357600080fd5b5061102e60048036038101906110299190617420565b6152cf565b60405161103b9190617e87565b60405180910390f35b34801561105057600080fd5b50611059615381565b6040516110669190617d8a565b60405180910390f35b34801561107b57600080fd5b5061109660048036038101906110919190617449565b6153a7565b6040516110a3919061815e565b60405180910390f35b3480156110b857600080fd5b506110d360048036038101906110ce919061781c565b615465565b6040516110e0919061815e565b60405180910390f35b3480156110f557600080fd5b50611110600480360381019061110b9190617420565b61551e565b60405161111d9190617e87565b60405180910390f35b34801561113257600080fd5b5061113b61553e565b604051611148919061815e565b60405180910390f35b60008054906101000a900473ffffffffffffffffffffffffffffffffffffffff1673ffffffffffffffffffffffffffffffffffffffff163373ffffffffffffffffffffffffffffffffffffffff16146111a957600080fd5b60008060006101000a81548173ffffffffffffffffffffffffffffffffffffffff021916908373ffffffffffffffffffffffffffffffffffffffff160217905550565b6000601380549050905090565b600a60009054906101000a900460ff1681565b60011515600f60009054906101000a900473ffffffffffffffffffffffffffffffffffffffff1673ffffffffffffffffffffffffffffffffffffffff16638dcb4c93856040518263ffffffff1660e01b815260040161126b9190617d8a565b60206040518083038186803b15801561128357600080fd5b505afa158015611297573d6000803e3d6000fd5b505050506040513d601f19601f820116820180604052508101906112bb91906175b3565b1515146112fd576040517f08c379a00000000000000000000000000000000000000000000000000000000081526004016112f49061805c565b60405180910390fd5b60008211611340576040517f08c379a0000000000000000000000000000000000000000000000000000000008152600401611337906180bc565b60405180910390fd5b60011515601660008373ffffffffffffffffffffffffffffffffffffffff1673ffffffffffffffffffffffffffffffffffffffff16815260200190815260200160002060009054906101000a900460ff16151514611454576013819080600181540180825580915050600190039060005260206000200160009091909190916101000a81548173ffffffffffffffffffffffffffffffffffffffff021916908373ffffffffffffffffffffffffffffffffffffffff1602179055506001601660008373ffffffffffffffffffffffffffffffffffffffff1673ffffffffffffffffffffffffffffffffffffffff16815260200190815260200160002060006101000a81548160ff0219169083151502179055505b6000600d60009054906101000a900473ffffffffffffffffffffffffffffffffffffffff1673ffffffffffffffffffffffffffffffffffffffff16635364df49836040518263ffffffff1660e01b81526004016114b19190617d8a565b60206040518083038186803b1580156114c957600080fd5b505afa1580156114dd573d6000803e3d6000fd5b505050506040513d601f19601f8201168201806040525081019061150191906177b7565b600e60009054906101000a900473ffffffffffffffffffffffffffffffffffffffff1673ffffffffffffffffffffffffffffffffffffffff16635364df49846040518263ffffffff1660e01b815260040161155c9190617d8a565b60206040518083038186803b15801561157457600080fd5b505afa158015611588573d6000803e3d6000fd5b505050506040513d601f19601f820116820180604052508101906115ac91906177b7565b6115b69190618387565b11156115c5576115c461258d565b5b8273ffffffffffffffffffffffffffffffffffffffff166323b872dd33600e60009054906101000a900473ffffffffffffffffffffffffffffffffffffffff16856040518463ffffffff1660e01b815260040161162493929190617dce565b602060405180830381600087803b15801561163e57600080fd5b505af1158015611652573d6000803e3d6000fd5b505050506040513d601f19601f8201168201806040525081019061167691906175b3565b6116b5576040517f08c379a00000000000000000000000000000000000000000000000000000000081526004016116ac9061803c565b60405180910390fd5b600e60009054906101000a900473ffffffffffffffffffffffffffffffffffffffff1673ffffffffffffffffffffffffffffffffffffffff166346dafa2f8484846040518463ffffffff1660e01b815260040161171493929190617e2e565b600060405180830381600087803b15801561172e57600080fd5b505af1158015611742573d6000803e3d6000fd5b5050505042601860008373ffffffffffffffffffffffffffffffffffffffff1673ffffffffffffffffffffffffffffffffffffffff168152602001908152602001600020819055508273ffffffffffffffffffffffffffffffffffffffff168173ffffffffffffffffffffffffffffffffffffffff167f5f9b5a75581a29d72b32414a5df7f1ef124b7787b38616fb8fdcad76179127c2846040516117e7919061815e565b60405180910390a3505050565b60006117fe61554b565b611806615621565b5082601a6000600954815260200190815260200160002060006101000a81548173ffffffffffffffffffffffffffffffffffffffff021916908373ffffffffffffffffffffffffffffffffffffffff16021790555081601b600060095481526020019081526020016000209080519060200190611884929190617180565b506009543373ffffffffffffffffffffffffffffffffffffffff167f8d500fcad86fc64a281b94ef64d6d66acbfc6862aa4ff2ee5fbbfb40736e803e846040516118ce9190617f7a565b60405180910390a3600954905092915050565b60085481565b6000600a60009054906101000a900460ff16156119a557600a60019054906101000a900473ffffffffffffffffffffffffffffffffffffffff1673ffffffffffffffffffffffffffffffffffffffff16632ab24e496040518163ffffffff1660e01b815260040160206040518083038186803b15801561196657600080fd5b505afa15801561197a573d6000803e3d6000fd5b505050506040513d601f19601f8201168201806040525081019061199e91906176fb565b90506119cb565b601260009054906101000a900473ffffffffffffffffffffffffffffffffffffffff1690505b90565b60095481565b601f6020528060005260406000206000915054906101000a900460ff1681565b60065481565b6000600a60009054906101000a900460ff1615611ab857600a60019054906101000a900473ffffffffffffffffffffffffffffffffffffffff1673ffffffffffffffffffffffffffffffffffffffff16632f7fa1806040518163ffffffff1660e01b815260040160206040518083038186803b158015611a7957600080fd5b505afa158015611a8d573d6000803e3d6000fd5b505050506040513d601f19601f82011682018060405250810190611ab19190617605565b9050611ade565b600d60009054906101000a900473ffffffffffffffffffffffffffffffffffffffff1690505b90565b60196020528060005260406000206000915090505481565b6000600a60009054906101000a900460ff1615611bb757600a60019054906101000a900473ffffffffffffffffffffffffffffffffffffffff1673ffffffffffffffffffffffffffffffffffffffff166332fe7b266040518163ffffffff1660e01b815260040160206040518083038186803b158015611b7857600080fd5b505afa158015611b8c573d6000803e3d6000fd5b505050506040513d601f19601f82011682018060405250810190611bb091906176a9565b9050611bdd565b600b60009054906101000a900473ffffffffffffffffffffffffffffffffffffffff1690505b90565b60606014805480602002602001604051908101604052809291908181526020018280548015611c6457602002820191906000526020600020905b8160009054906101000a900473ffffffffffffffffffffffffffffffffffffffff1673ffffffffffffffffffffffffffffffffffffffff1681526020019060010190808311611c1a575b5050505050905090565b6000600a60009054906101000a900460ff1615611d2c57600a60019054906101000a900473ffffffffffffffffffffffffffffffffffffffff1673ffffffffffffffffffffffffffffffffffffffff166338da7dd66040518163ffffffff1660e01b815260040160206040518083038186803b158015611ced57600080fd5b505afa158015611d01573d6000803e3d6000fd5b505050506040513d601f19601f82011682018060405250810190611d25919061762e565b9050611d52565b600e60009054906101000a900473ffffffffffffffffffffffffffffffffffffffff1690505b90565b600080600d60009054906101000a900473ffffffffffffffffffffffffffffffffffffffff1673ffffffffffffffffffffffffffffffffffffffff16635364df49846040518263ffffffff1660e01b8152600401611db39190617d8a565b60206040518083038186803b158015611dcb57600080fd5b505afa158015611ddf573d6000803e3d6000fd5b505050506040513d601f19601f82011682018060405250810190611e0391906177b7565b600e60009054906101000a900473ffffffffffffffffffffffffffffffffffffffff1673ffffffffffffffffffffffffffffffffffffffff16635364df49856040518263ffffffff1660e01b8152600401611e5e9190617d8a565b60206040518083038186803b158015611e7657600080fd5b505afa158015611e8a573d6000803e3d6000fd5b505050506040513d601f19601f82011682018060405250810190611eae91906177b7565b611eb89190618387565b90506000600d60009054906101000a900473ffffffffffffffffffffffffffffffffffffffff1673ffffffffffffffffffffffffffffffffffffffff166396c82e576040518163ffffffff1660e01b815260040160206040518083038186803b158015611f2457600080fd5b505afa158015611f38573d6000803e3d6000fd5b505050506040513d601f19601f82011682018060405250810190611f5c91906177b7565b600e60009054906101000a900473ffffffffffffffffffffffffffffffffffffffff1673ffffffffffffffffffffffffffffffffffffffff166396c82e576040518163ffffffff1660e01b815260040160206040518083038186803b158015611fc457600080fd5b505afa158015611fd8573d6000803e3d6000fd5b505050506040513d601f19601f82011682018060405250810190611ffc91906177b7565b6120069190618387565b90506000600654600160009054906101000a900473ffffffffffffffffffffffffffffffffffffffff1673ffffffffffffffffffffffffffffffffffffffff166370a08231601160009054906101000a900473ffffffffffffffffffffffffffffffffffffffff166040518263ffffffff1660e01b815260040161208a9190617d8a565b60206040518083038186803b1580156120a257600080fd5b505afa1580156120b6573d6000803e3d6000fd5b505050506040513d601f19601f820116820180604052508101906120da91906177b7565b6120e491906183dd565b90506000612710600754836120f9919061840e565b61210391906183dd565b9050600c60009054906101000a900473ffffffffffffffffffffffffffffffffffffffff1673ffffffffffffffffffffffffffffffffffffffff16631ba326c48585846040518463ffffffff1660e01b81526004016121649392919061827e565b60206040518083038186803b15801561217c57600080fd5b505afa158015612190573d6000803e3d6000fd5b505050506040513d601f19601f820116820180604052508101906121b491906177b7565b945050505050919050565b6121c7617206565b81816000018181525050601b600083815260200190815260200160002080546121ef906186f0565b80601f016020809104026020016040519081016040528092919081815260200182805461221b906186f0565b80156122685780601f1061223d57610100808354040283529160200191612268565b820191906000526020600020905b81548152906001019060200180831161224b57829003601f168201915b50505050508160200181905250601c600083815260200190815260200160002054816040018181525050601d600083815260200190815260200160002054816060018181525050601e600083815260200190815260200160002060009054906101000a900460ff16816080019015159081151581525050601f600083815260200190815260200160002060009054906101000a900460ff168160a001901515908115158152505060196000838152602001908152602001600020548160c0018181525050601a600083815260200190815260200160002060009054906101000a900473ffffffffffffffffffffffffffffffffffffffff168160e0019073ffffffffffffffffffffffffffffffffffffffff16908173ffffffffffffffffffffffffffffffffffffffff16815250506020600083815260200190815260200160002060009054906101000a900460ff1681610100019015159081151581525050602160008381526020019081526020016000205481610120018181525050919050565b601381815481106123fb57600080fd5b906000526020600020016000915054906101000a900473ffffffffffffffffffffffffffffffffffffffff1681565b60008054906101000a900473ffffffffffffffffffffffffffffffffffffffff1673ffffffffffffffffffffffffffffffffffffffff163373ffffffffffffffffffffffffffffffffffffffff161461248257600080fd5b81600f60006101000a81548173ffffffffffffffffffffffffffffffffffffffff021916908373ffffffffffffffffffffffffffffffffffffffff16021790555080601060006101000a81548173ffffffffffffffffffffffffffffffffffffffff021916908373ffffffffffffffffffffffffffffffffffffffff1602179055505050565b600080601860008473ffffffffffffffffffffffffffffffffffffffff1673ffffffffffffffffffffffffffffffffffffffff16815260200190815260200160002054426125569190618468565b9050600061256384611d55565b905060006002548383612576919061840e565b61258091906183dd565b9050809350505050919050565b601160009054906101000a900473ffffffffffffffffffffffffffffffffffffffff1673ffffffffffffffffffffffffffffffffffffffff16632267716c6040518163ffffffff1660e01b8152600401602060405180830381600087803b1580156125f757600080fd5b505af115801561260b573d6000803e3d6000fd5b505050506040513d601f19601f8201168201806040525081019061262f91906175b3565b61266e576040517f08c379a000000000000000000000000000000000000000000000000000000000815260040161266590617fdc565b60405180910390fd5b600061267933612508565b905042601860003373ffffffffffffffffffffffffffffffffffffffff1673ffffffffffffffffffffffffffffffffffffffff168152602001908152602001600020819055506000600160009054906101000a900473ffffffffffffffffffffffffffffffffffffffff1673ffffffffffffffffffffffffffffffffffffffff166370a08231601160009054906101000a900473ffffffffffffffffffffffffffffffffffffffff166040518263ffffffff1660e01b815260040161273e9190617d8a565b60206040518083038186803b15801561275657600080fd5b505afa15801561276a573d6000803e3d6000fd5b505050506040513d601f19601f8201168201806040525081019061278e91906177b7565b90506000612710600754836127a3919061840e565b6127ad91906183dd565b9050808311156127bb578092505b601160009054906101000a900473ffffffffffffffffffffffffffffffffffffffff1673ffffffffffffffffffffffffffffffffffffffff16637d458baa84336040518363ffffffff1660e01b8152600401612818929190618179565b600060405180830381600087803b15801561283257600080fd5b505af1158015612846573d6000803e3d6000fd5b50505050505050565b61285a82823361120c565b5050565b600080601b600060095481526020019081526020016000208054612881906186f0565b80601f01602080910402602001604051908101604052809291908181526020018280546128ad906186f0565b80156128fa5780601f106128cf576101008083540402835291602001916128fa565b820191906000526020600020905b8154815290600101906020018083116128dd57829003601f168201915b5050505050905060226000600954815260200190815260200160002060003373ffffffffffffffffffffffffffffffffffffffff1673ffffffffffffffffffffffffffffffffffffffff16815260200190815260200160002054915060206000600954815260200190815260200160002060009054906101000a900460ff16156129ab5781601c6000600954815260200190815260200160002060008282546129a39190618468565b925050819055505b600060226000600954815260200190815260200160002060003373ffffffffffffffffffffffffffffffffffffffff1673ffffffffffffffffffffffffffffffffffffffff168152602001908152602001600020819055506009543373ffffffffffffffffffffffffffffffffffffffff167f70a6ab6ed794c2ceb8df59b7bb4e317e9b215d9ce74b88161ca5af2a5a801d6f84601c600060095481526020019081526020016000205485604051612a6593929190618240565b60405180910390a35090565b601e6020528060005260406000206000915054906101000a900460ff1681565b612a9961285e565b50600e60009054906101000a900473ffffffffffffffffffffffffffffffffffffffff1673ffffffffffffffffffffffffffffffffffffffff1663f940e38582336040518363ffffffff1660e01b8152600401612af7929190617da5565b602060405180830381600087803b158015612b1157600080fd5b505af1158015612b25573d6000803e3d6000fd5b505050506040513d601f19601f82011682018060405250810190612b4991906175b3565b612b88576040517f08c379a0000000000000000000000000000000000000000000000000000000008152600401612b7f9061807c565b60405180910390fd5b50565b60008054906101000a900473ffffffffffffffffffffffffffffffffffffffff1673ffffffffffffffffffffffffffffffffffffffff163373ffffffffffffffffffffffffffffffffffffffff1614612be357600080fd5b8463ffffffff166003819055508363ffffffff166006819055508263ffffffff166005819055508163ffffffff166007819055508063ffffffff166008819055505050505050565b600080601c60008481526020019081526020016000205490506000600d60009054906101000a900473ffffffffffffffffffffffffffffffffffffffff1673ffffffffffffffffffffffffffffffffffffffff166396c82e576040518163ffffffff1660e01b815260040160206040518083038186803b158015612cae57600080fd5b505afa158015612cc2573d6000803e3d6000fd5b505050506040513d601f19601f82011682018060405250810190612ce691906177b7565b600e60009054906101000a900473ffffffffffffffffffffffffffffffffffffffff1673ffffffffffffffffffffffffffffffffffffffff166396c82e576040518163ffffffff1660e01b815260040160206040518083038186803b158015612d4e57600080fd5b505afa158015612d62573d6000803e3d6000fd5b505050506040513d601f19601f82011682018060405250810190612d8691906177b7565b612d909190618387565b9050600061271060055483612da5919061840e565b612daf91906183dd565b905080831115612dc55760019350505050612dcd565b600093505050505b919050565b60186020528060005260406000206000915090505481565b60155481565b60008054906101000a900473ffffffffffffffffffffffffffffffffffffffff1673ffffffffffffffffffffffffffffffffffffffff163373ffffffffffffffffffffffffffffffffffffffff1614612e4857600080fd5b6000600160009054906101000a900473ffffffffffffffffffffffffffffffffffffffff1673ffffffffffffffffffffffffffffffffffffffff166370a08231306040518263ffffffff1660e01b8152600401612ea59190617d8a565b60206040518083038186803b158015612ebd57600080fd5b505afa158015612ed1573d6000803e3d6000fd5b505050506040513d601f19601f82011682018060405250810190612ef591906177b7565b9050600160009054906101000a900473ffffffffffffffffffffffffffffffffffffffff1673ffffffffffffffffffffffffffffffffffffffff1663a9059cbb83836040518363ffffffff1660e01b8152600401612f54929190617e05565b602060405180830381600087803b158015612f6e57600080fd5b505af1158015612f82573d6000803e3d6000fd5b505050506040513d601f19601f82011682018060405250810190612fa691906175b3565b505050565b60025481565b60008054906101000a900473ffffffffffffffffffffffffffffffffffffffff1673ffffffffffffffffffffffffffffffffffffffff163373ffffffffffffffffffffffffffffffffffffffff161461300957600080fd5b82600e60006101000a81548173ffffffffffffffffffffffffffffffffffffffff021916908373ffffffffffffffffffffffffffffffffffffffff16021790555081600d60006101000a81548173ffffffffffffffffffffffffffffffffffffffff021916908373ffffffffffffffffffffffffffffffffffffffff16021790555080601260006101000a81548173ffffffffffffffffffffffffffffffffffffffff021916908373ffffffffffffffffffffffffffffffffffffffff160217905550505050565b60075481565b600080601480548060200260200160405190810160405280929190818152602001828054801561315c57602002820191906000526020600020905b8160009054906101000a900473ffffffffffffffffffffffffffffffffffffffff1673ffffffffffffffffffffffffffffffffffffffff1681526020019060010190808311613112575b5050505050905060005b81518110156132aa5760006131bb858484815181106131ae577f4e487b7100000000000000000000000000000000000000000000000000000000600052603260045260246000fd5b60200260200101516153a7565b9050600081111561329657600d60009054906101000a900473ffffffffffffffffffffffffffffffffffffffff1673ffffffffffffffffffffffffffffffffffffffff16635bc262be84848151811061323d577f4e487b7100000000000000000000000000000000000000000000000000000000600052603260045260246000fd5b6020026020010151876040518363ffffffff1660e01b8152600401613263929190617da5565b600060405180830381600087803b15801561327d57600080fd5b505af1158015613291573d6000803e3d6000fd5b505050505b5080806132a290618753565b915050613166565b506001915050919050565b6000600a60009054906101000a900460ff161561337357600a60019054906101000a900473ffffffffffffffffffffffffffffffffffffffff1673ffffffffffffffffffffffffffffffffffffffff16637b0e5c456040518163ffffffff1660e01b815260040160206040518083038186803b15801561333457600080fd5b505afa158015613348573d6000803e3d6000fd5b505050506040513d601f19601f8201168201806040525081019061336c9190617724565b9050613399565b600c60009054906101000a900473ffffffffffffffffffffffffffffffffffffffff1690505b90565b60006001151560206000600954815260200190815260200160002060009054906101000a900460ff16151514613407576040517f08c379a00000000000000000000000000000000000000000000000000000000081526004016133fe906180fc565b60405180910390fd5b6000601b600060095481526020019081526020016000208054613429906186f0565b80601f0160208091040260200160405190810160405280929190818152602001828054613455906186f0565b80156134a25780601f10613477576101008083540402835291602001916134a2565b820191906000526020600020905b81548152906001019060200180831161348557829003601f168201915b505050505090506134b1615756565b91506134be600954614b52565b80156134f0575060001515601e6000600954815260200190815260200160002060009054906101000a900460ff161515145b1561374b57613534816040518060400160405280600381526020017f44414f00000000000000000000000000000000000000000000000000000000008152506159be565b8061357a5750613579816040518060400160405280600581526020017f5554494c530000000000000000000000000000000000000000000000000000008152506159be565b5b806135c057506135bf816040518060400160405280600781526020017f52455345525645000000000000000000000000000000000000000000000000008152506159be565b5b806136065750613605816040518060400160405280600a81526020017f4745545f535041525441000000000000000000000000000000000000000000008152506159be565b5b8061364c575061364b816040518060400160405280600681526020017f524f5554455200000000000000000000000000000000000000000000000000008152506159be565b5b806136925750613691816040518060400160405280600981526020017f4c4953545f424f4e4400000000000000000000000000000000000000000000008152506159be565b5b806136d857506136d7816040518060400160405280600581526020017f4752414e540000000000000000000000000000000000000000000000000000008152506159be565b5b8061371e575061371d816040518060400160405280601081526020017f4144445f435552415445445f504f4f4c000000000000000000000000000000008152506159be565b5b156137415761372e600954612c2b565b1561373c5761373b615a7a565b5b61374a565b613749615a7a565b5b5b6009543373ffffffffffffffffffffffffffffffffffffffff167f4d46d88c7e981a5bf4572a83b5d88bcfefbd5ee6ca8df0588e27c4221a43640784601c6000600954815260200190815260200160002054856040516137ad93929190618240565b60405180910390a35090565b60008054906101000a900473ffffffffffffffffffffffffffffffffffffffff1673ffffffffffffffffffffffffffffffffffffffff163373ffffffffffffffffffffffffffffffffffffffff161461381157600080fd5b82600b60006101000a81548173ffffffffffffffffffffffffffffffffffffffff021916908373ffffffffffffffffffffffffffffffffffffffff16021790555081600c60006101000a81548173ffffffffffffffffffffffffffffffffffffffff021916908373ffffffffffffffffffffffffffffffffffffffff16021790555080601160006101000a81548173ffffffffffffffffffffffffffffffffffffffff021916908373ffffffffffffffffffffffffffffffffffffffff160217905550505050565b602080528060005260406000206000915054906101000a900460ff1681565b6213c6806021600060095481526020019081526020016000205461391c9190618387565b421161395d576040517f08c379a00000000000000000000000000000000000000000000000000000000081526004016139549061811c565b60405180910390fd5b6000601c6000600954815260200190815260200160002081905550600060206000600954815260200190815260200160002060006101000a81548160ff0219169083151502179055506009543373ffffffffffffffffffffffffffffffffffffffff167f6b4f340ccba70b829531b22cfbc4ad2defb3beac09f6149d584fe1031dedbf7c60405160405180910390a3565b60055481565b600a60019054906101000a900473ffffffffffffffffffffffffffffffffffffffff1681565b60008054906101000a900473ffffffffffffffffffffffffffffffffffffffff1673ffffffffffffffffffffffffffffffffffffffff163373ffffffffffffffffffffffffffffffffffffffff1614613a7257600080fd5b601760008273ffffffffffffffffffffffffffffffffffffffff1673ffffffffffffffffffffffffffffffffffffffff16815260200190815260200160002060009054906101000a900460ff16613b7f576001601760008373ffffffffffffffffffffffffffffffffffffffff1673ffffffffffffffffffffffffffffffffffffffff16815260200190815260200160002060006101000a81548160ff0219169083151502179055506014819080600181540180825580915050600190039060005260206000200160009091909190916101000a81548173ffffffffffffffffffffffffffffffffffffffff021916908373ffffffffffffffffffffffffffffffffffffffff1602179055505b8073ffffffffffffffffffffffffffffffffffffffff163373ffffffffffffffffffffffffffffffffffffffff167fa2c962e87fd75165c1496c9ea420ddb0231e124bf2625a77f828287c8050006860405160405180910390a350565b6000600a60009054906101000a900460ff1615613c9a57600a60019054906101000a900473ffffffffffffffffffffffffffffffffffffffff1673ffffffffffffffffffffffffffffffffffffffff16639d2cc4366040518163ffffffff1660e01b815260040160206040518083038186803b158015613c5b57600080fd5b505afa158015613c6f573d6000803e3d6000fd5b505050506040513d601f19601f82011682018060405250810190613c939190617680565b9050613cc0565b601160009054906101000a900473ffffffffffffffffffffffffffffffffffffffff1690505b90565b60166020528060005260406000206000915054906101000a900460ff1681565b601d6020528060005260406000206000915090505481565b6000808211613d3f576040517f08c379a0000000000000000000000000000000000000000000000000000000008152600401613d36906180bc565b60405180910390fd5b601760008473ffffffffffffffffffffffffffffffffffffffff1673ffffffffffffffffffffffffffffffffffffffff16815260200190815260200160002060009054906101000a900460ff16613dcb576040517f08c379a0000000000000000000000000000000000000000000000000000000008152600401613dc290617f9c565b60405180910390fd5b60011515601660003373ffffffffffffffffffffffffffffffffffffffff1673ffffffffffffffffffffffffffffffffffffffff16815260200190815260200160002060009054906101000a900460ff16151514613edf576013339080600181540180825580915050600190039060005260206000200160009091909190916101000a81548173ffffffffffffffffffffffffffffffffffffffff021916908373ffffffffffffffffffffffffffffffffffffffff1602179055506001601660003373ffffffffffffffffffffffffffffffffffffffff1673ffffffffffffffffffffffffffffffffffffffff16815260200190815260200160002060006101000a81548160ff0219169083151502179055505b6000600d60009054906101000a900473ffffffffffffffffffffffffffffffffffffffff1673ffffffffffffffffffffffffffffffffffffffff16635364df49336040518263ffffffff1660e01b8152600401613f3c9190617d8a565b60206040518083038186803b158015613f5457600080fd5b505afa158015613f68573d6000803e3d6000fd5b505050506040513d601f19601f82011682018060405250810190613f8c91906177b7565b600e60009054906101000a900473ffffffffffffffffffffffffffffffffffffffff1673ffffffffffffffffffffffffffffffffffffffff16635364df49336040518263ffffffff1660e01b8152600401613fe79190617d8a565b60206040518083038186803b158015613fff57600080fd5b505afa158015614013573d6000803e3d6000fd5b505050506040513d601f19601f8201168201806040525081019061403791906177b7565b6140419190618387565b11156140505761404f61258d565b5b600061405c8484615bc7565b9050600d60009054906101000a900473ffffffffffffffffffffffffffffffffffffffff1673ffffffffffffffffffffffffffffffffffffffff1663bf58d0ef8533846040518463ffffffff1660e01b81526004016140bd93929190617dce565b600060405180830381600087803b1580156140d757600080fd5b505af11580156140eb573d6000803e3d6000fd5b5050505042601860003373ffffffffffffffffffffffffffffffffffffffff1673ffffffffffffffffffffffffffffffffffffffff168152602001908152602001600020819055503373ffffffffffffffffffffffffffffffffffffffff167fe4dd259ab128527fe8b5fdae0b44bda8db95a4de10b999d63dce142b1eb88d54848360405161417b9291906181d2565b60405180910390a2600191505092915050565b600061419861554b565b6141a0615621565b5060006040518060400160405280600581526020017f4752414e54000000000000000000000000000000000000000000000000000000815250905080601b600060095481526020019081526020016000209080519060200190614204929190617180565b5083601a6000600954815260200190815260200160002060006101000a81548173ffffffffffffffffffffffffffffffffffffffff021916908373ffffffffffffffffffffffffffffffffffffffff16021790555082601960006009548152602001908152602001600020819055506009543373ffffffffffffffffffffffffffffffffffffffff167f8d500fcad86fc64a281b94ef64d6d66acbfc6862aa4ff2ee5fbbfb40736e803e836040516142bc9190617f7a565b60405180910390a360095491505092915050565b600354601d6000600954815260200190815260200160002054426142f49190618468565b11614334576040517f08c379a000000000000000000000000000000000000000000000000000000000815260040161432b90617ffc565b60405180910390fd5b60011515601e6000600954815260200190815260200160002060009054906101000a900460ff1615151461439d576040517f08c379a00000000000000000000000000000000000000000000000000000000081526004016143949061801c565b60405180910390fd5b6143a8600954614b52565b6143df576000601e6000600954815260200190815260200160002060006101000a81548160ff0219169083151502179055506148cf565b6000601b600060095481526020019081526020016000208054614401906186f0565b80601f016020809104026020016040519081016040528092919081815260200182805461442d906186f0565b801561447a5780601f1061444f5761010080835404028352916020019161447a565b820191906000526020600020905b81548152906001019060200180831161445d57829003601f168201915b505050505090506144c0816040518060400160405280600381526020017f44414f00000000000000000000000000000000000000000000000000000000008152506159be565b156144d5576144d060095461636c565b6148cd565b614514816040518060400160405280600681526020017f524f5554455200000000000000000000000000000000000000000000000000008152506159be565b156145295761452460095461650a565b6148cc565b614568816040518060400160405280600581526020017f5554494c530000000000000000000000000000000000000000000000000000008152506159be565b1561457d57614578600954616600565b6148cb565b6145bc816040518060400160405280600781526020017f52455345525645000000000000000000000000000000000000000000000000008152506159be565b156145d1576145cc6009546166f6565b6148ca565b614610816040518060400160405280600e81526020017f464c49505f454d495353494f4e530000000000000000000000000000000000008152506159be565b15614625576146206009546167ec565b6148c9565b614664816040518060400160405280600881526020017f434f4f4c5f4f46460000000000000000000000000000000000000000000000008152506159be565b156146795761467460095461687a565b6148c8565b6146b8816040518060400160405280600c81526020017f455241535f544f5f4541524e00000000000000000000000000000000000000008152506159be565b156146cd576146c86009546168ea565b6148c7565b61470c816040518060400160405280600581526020017f4752414e540000000000000000000000000000000000000000000000000000008152506159be565b156147215761471c60095461695a565b6148c6565b614760816040518060400160405280600a81526020017f4745545f535041525441000000000000000000000000000000000000000000008152506159be565b1561477557614770600954616afb565b6148c5565b6147b4816040518060400160405280600981526020017f4c4953545f424f4e4400000000000000000000000000000000000000000000008152506159be565b156147c9576147c4600954616ba7565b6148c4565b614808816040518060400160405280600b81526020017f44454c4953545f424f4e440000000000000000000000000000000000000000008152506159be565b1561481d57614818600954616cf9565b6148c3565b61485c816040518060400160405280601081526020017f4144445f435552415445445f504f4f4c000000000000000000000000000000008152506159be565b156148715761486c600954616d96565b6148c2565b6148b0816040518060400160405280601381526020017f52454d4f56455f435552415445445f504f4f4c000000000000000000000000008152506159be565b156148c1576148c0600954616e68565b5b5b5b5b5b5b5b5b5b5b5b5b5b505b565b60035481565b601a6020528060005260406000206000915054906101000a900473ffffffffffffffffffffffffffffffffffffffff1681565b60008054906101000a900473ffffffffffffffffffffffffffffffffffffffff1673ffffffffffffffffffffffffffffffffffffffff163373ffffffffffffffffffffffffffffffffffffffff161461496257600080fd5b8060158190555050565b60216020528060005260406000206000915090505481565b6000600a60009054906101000a900460ff1615614a4257600a60019054906101000a900473ffffffffffffffffffffffffffffffffffffffff1673ffffffffffffffffffffffffffffffffffffffff1663b93ec54b6040518163ffffffff1660e01b815260040160206040518083038186803b158015614a0357600080fd5b505afa158015614a17573d6000803e3d6000fd5b505050506040513d601f19601f82011682018060405250810190614a3b91906176d2565b9050614a68565b601060009054906101000a900473ffffffffffffffffffffffffffffffffffffffff1690505b90565b6000600a60009054906101000a900460ff1615614b2957600a60019054906101000a900473ffffffffffffffffffffffffffffffffffffffff1673ffffffffffffffffffffffffffffffffffffffff1663b99b0a0c6040518163ffffffff1660e01b815260040160206040518083038186803b158015614aea57600080fd5b505afa158015614afe573d6000803e3d6000fd5b505050506040513d601f19601f82011682018060405250810190614b229190617657565b9050614b4f565b600f60009054906101000a900473ffffffffffffffffffffffffffffffffffffffff1690505b90565b600080601c60008481526020019081526020016000205490506000600d60009054906101000a900473ffffffffffffffffffffffffffffffffffffffff1673ffffffffffffffffffffffffffffffffffffffff166396c82e576040518163ffffffff1660e01b815260040160206040518083038186803b158015614bd557600080fd5b505afa158015614be9573d6000803e3d6000fd5b505050506040513d601f19601f82011682018060405250810190614c0d91906177b7565b600e60009054906101000a900473ffffffffffffffffffffffffffffffffffffffff1673ffffffffffffffffffffffffffffffffffffffff166396c82e576040518163ffffffff1660e01b815260040160206040518083038186803b158015614c7557600080fd5b505afa158015614c89573d6000803e3d6000fd5b505050506040513d601f19601f82011682018060405250810190614cad91906177b7565b614cb79190618387565b90506000600282614cc891906183dd565b905080831115614cde5760019350505050614ce6565b600093505050505b919050565b60008060009054906101000a900473ffffffffffffffffffffffffffffffffffffffff1673ffffffffffffffffffffffffffffffffffffffff163373ffffffffffffffffffffffffffffffffffffffff1614614d4657600080fd5b6000600160009054906101000a900473ffffffffffffffffffffffffffffffffffffffff1673ffffffffffffffffffffffffffffffffffffffff166370a08231306040518263ffffffff1660e01b8152600401614da39190617d8a565b60206040518083038186803b158015614dbb57600080fd5b505afa158015614dcf573d6000803e3d6000fd5b505050506040513d601f19601f82011682018060405250810190614df391906177b7565b9050600160009054906101000a900473ffffffffffffffffffffffffffffffffffffffff1673ffffffffffffffffffffffffffffffffffffffff166342966c68826040518263ffffffff1660e01b8152600401614e50919061815e565b600060405180830381600087803b158015614e6a57600080fd5b505af1158015614e7e573d6000803e3d6000fd5b50505050600191505090565b601b6020528060005260406000206000915090508054614ea9906186f0565b80601f0160208091040260200160405190810160405280929190818152602001828054614ed5906186f0565b8015614f225780601f10614ef757610100808354040283529160200191614f22565b820191906000526020600020905b815481529060010190602001808311614f0557829003601f168201915b505050505081565b60008054906101000a900473ffffffffffffffffffffffffffffffffffffffff1681565b6022602052816000526040600020602052806000526040600020600091509150505481565b600080601c60008481526020019081526020016000205490506000600d60009054906101000a900473ffffffffffffffffffffffffffffffffffffffff1673ffffffffffffffffffffffffffffffffffffffff166396c82e576040518163ffffffff1660e01b815260040160206040518083038186803b158015614ff657600080fd5b505afa15801561500a573d6000803e3d6000fd5b505050506040513d601f19601f8201168201806040525081019061502e91906177b7565b600e60009054906101000a900473ffffffffffffffffffffffffffffffffffffffff1673ffffffffffffffffffffffffffffffffffffffff166396c82e576040518163ffffffff1660e01b815260040160206040518083038186803b15801561509657600080fd5b505afa1580156150aa573d6000803e3d6000fd5b505050506040513d601f19601f820116820180604052508101906150ce91906177b7565b6150d89190618387565b905060006006826150e991906183dd565b9050808311156150ff5760019350505050615107565b600093505050505b919050565b600061511661554b565b61511e615621565b5081601b600060095481526020019081526020016000209080519060200190615148929190617180565b506009543373ffffffffffffffffffffffffffffffffffffffff167f8d500fcad86fc64a281b94ef64d6d66acbfc6862aa4ff2ee5fbbfb40736e803e846040516151929190617f7a565b60405180910390a36009549050919050565b60045481565b601c6020528060005260406000206000915090505481565b60008054906101000a900473ffffffffffffffffffffffffffffffffffffffff1673ffffffffffffffffffffffffffffffffffffffff163373ffffffffffffffffffffffffffffffffffffffff161461521a57600080fd5b6000601760008373ffffffffffffffffffffffffffffffffffffffff1673ffffffffffffffffffffffffffffffffffffffff16815260200190815260200160002060006101000a81548160ff0219169083151502179055508073ffffffffffffffffffffffffffffffffffffffff163373ffffffffffffffffffffffffffffffffffffffff167ff487c2322baa448cfa506b983134d9dd9f27d0bbfe0b48119a3908d4f0dde89f60405160405180910390a350565b6000806152dc33846153a7565b9050600081111561537757600d60009054906101000a900473ffffffffffffffffffffffffffffffffffffffff1673ffffffffffffffffffffffffffffffffffffffff16635bc262be84336040518363ffffffff1660e01b8152600401615344929190617da5565b600060405180830381600087803b15801561535e57600080fd5b505af1158015615372573d6000803e3d6000fd5b505050505b6001915050919050565b600160009054906101000a900473ffffffffffffffffffffffffffffffffffffffff1681565b600080600d60009054906101000a900473ffffffffffffffffffffffffffffffffffffffff1673ffffffffffffffffffffffffffffffffffffffff1663ba0ba54f85856040518363ffffffff1660e01b8152600401615407929190617da5565b602060405180830381600087803b15801561542157600080fd5b505af1158015615435573d6000803e3d6000fd5b505050506040513d601f19601f8201168201806040525081019061545991906177b7565b90508091505092915050565b600061546f61554b565b615477615621565b508263ffffffff166019600060095481526020019081526020016000208190555081601b6000600954815260200190815260200160002090805190602001906154c1929190617180565b506009543373ffffffffffffffffffffffffffffffffffffffff167f8d500fcad86fc64a281b94ef64d6d66acbfc6862aa4ff2ee5fbbfb40736e803e8460405161550b9190617f7a565b60405180910390a3600954905092915050565b60176020528060005260406000206000915054906101000a900460ff1681565b6000601480549050905090565b6000151560206000600954815260200190815260200160002060009054906101000a900460ff161515146155b4576040517f08c379a00000000000000000000000000000000000000000000000000000000081526004016155ab906180fc565b60405180910390fd5b6001600460008282546155c79190618387565b92505081905550600454600981905550600160206000600954815260200190815260200160002060006101000a81548160ff0219169083151502179055504260216000600954815260200190815260200160002081905550565b600080670de0b6b3a764000060085461563a919061840e565b9050600160009054906101000a900473ffffffffffffffffffffffffffffffffffffffff1673ffffffffffffffffffffffffffffffffffffffff166323b872dd33601160009054906101000a900473ffffffffffffffffffffffffffffffffffffffff16846040518463ffffffff1660e01b81526004016156bd93929190617dce565b602060405180830381600087803b1580156156d757600080fd5b505af11580156156eb573d6000803e3d6000fd5b505050506040513d601f19601f8201168201806040525081019061570f91906175b3565b61574e576040517f08c379a000000000000000000000000000000000000000000000000000000000815260040161574590617fbc565b60405180910390fd5b600191505090565b600060226000600954815260200190815260200160002060003373ffffffffffffffffffffffffffffffffffffffff1673ffffffffffffffffffffffffffffffffffffffff16815260200190815260200160002054601c6000600954815260200190815260200160002060008282546157cf9190618468565b92505081905550600d60009054906101000a900473ffffffffffffffffffffffffffffffffffffffff1673ffffffffffffffffffffffffffffffffffffffff16635364df49336040518263ffffffff1660e01b81526004016158319190617d8a565b60206040518083038186803b15801561584957600080fd5b505afa15801561585d573d6000803e3d6000fd5b505050506040513d601f19601f8201168201806040525081019061588191906177b7565b600e60009054906101000a900473ffffffffffffffffffffffffffffffffffffffff1673ffffffffffffffffffffffffffffffffffffffff16635364df49336040518263ffffffff1660e01b81526004016158dc9190617d8a565b60206040518083038186803b1580156158f457600080fd5b505afa158015615908573d6000803e3d6000fd5b505050506040513d601f19601f8201168201806040525081019061592c91906177b7565b6159369190618387565b905080601c60006009548152602001908152602001600020600082825461595d9190618387565b925050819055508060226000600954815260200190815260200160002060003373ffffffffffffffffffffffffffffffffffffffff1673ffffffffffffffffffffffffffffffffffffffff1681526020019081526020016000208190555090565b60006002826040516159d09190617d73565b602060405180830381855afa1580156159ed573d6000803e3d6000fd5b5050506040513d601f19601f82011682018060405250810190615a1091906175dc565b600284604051615a209190617d73565b602060405180830381855afa158015615a3d573d6000803e3d6000fd5b5050506040513d601f19601f82011682018060405250810190615a6091906175dc565b1415615a6f5760019050615a74565b600090505b92915050565b6000601b600060095481526020019081526020016000208054615a9c906186f0565b80601f0160208091040260200160405190810160405280929190818152602001828054615ac8906186f0565b8015615b155780601f10615aea57610100808354040283529160200191615b15565b820191906000526020600020905b815481529060010190602001808311615af857829003601f168201915b505050505090506001601e6000600954815260200190815260200160002060006101000a81548160ff02191690831515021790555042601d60006009548152602001908152602001600020819055506009543373ffffffffffffffffffffffffffffffffffffffff167f0f36aea5066f9f90a999260fe4ce8d7713f7f07f5ae61bf36d73cc51170a3a9e60035442615bad9190618387565b84604051615bbc9291906181a2565b60405180910390a350565b600080600c60009054906101000a900473ffffffffffffffffffffffffffffffffffffffff1673ffffffffffffffffffffffffffffffffffffffff1663b80e44b885856040518363ffffffff1660e01b8152600401615c27929190617e05565b60206040518083038186803b158015615c3f57600080fd5b505afa158015615c53573d6000803e3d6000fd5b505050506040513d601f19601f82011682018060405250810190615c7791906177b7565b905080600160009054906101000a900473ffffffffffffffffffffffffffffffffffffffff1673ffffffffffffffffffffffffffffffffffffffff1663dd62ed3e30600b60009054906101000a900473ffffffffffffffffffffffffffffffffffffffff166040518363ffffffff1660e01b8152600401615cf9929190617da5565b60206040518083038186803b158015615d1157600080fd5b505afa158015615d25573d6000803e3d6000fd5b505050506040513d601f19601f82011682018060405250810190615d4991906177b7565b1015615ec157600160009054906101000a900473ffffffffffffffffffffffffffffffffffffffff1673ffffffffffffffffffffffffffffffffffffffff1663095ea7b3600b60009054906101000a900473ffffffffffffffffffffffffffffffffffffffff16600160009054906101000a900473ffffffffffffffffffffffffffffffffffffffff1673ffffffffffffffffffffffffffffffffffffffff166318160ddd6040518163ffffffff1660e01b815260040160206040518083038186803b158015615e1857600080fd5b505afa158015615e2c573d6000803e3d6000fd5b505050506040513d601f19601f82011682018060405250810190615e5091906177b7565b6040518363ffffffff1660e01b8152600401615e6d929190617e05565b602060405180830381600087803b158015615e8757600080fd5b505af1158015615e9b573d6000803e3d6000fd5b505050506040513d601f19601f82011682018060405250810190615ebf91906175b3565b505b600073ffffffffffffffffffffffffffffffffffffffff168473ffffffffffffffffffffffffffffffffffffffff16141561601557348314615f38576040517f08c379a0000000000000000000000000000000000000000000000000000000008152600401615f2f906180bc565b60405180910390fd5b600b60009054906101000a900473ffffffffffffffffffffffffffffffffffffffff1673ffffffffffffffffffffffffffffffffffffffff166393cac68584838688600d60009054906101000a900473ffffffffffffffffffffffffffffffffffffffff166040518663ffffffff1660e01b8152600401615fbc94939291906181fb565b6020604051808303818588803b158015615fd557600080fd5b505af1158015615fe9573d6000803e3d6000fd5b50505050506040513d601f19601f8201168201806040525081019061600e91906177b7565b9150616365565b8373ffffffffffffffffffffffffffffffffffffffff166323b872dd3330866040518463ffffffff1660e01b815260040161605293929190617dce565b602060405180830381600087803b15801561606c57600080fd5b505af1158015616080573d6000803e3d6000fd5b505050506040513d601f19601f820116820180604052508101906160a491906175b3565b50828473ffffffffffffffffffffffffffffffffffffffff1663dd62ed3e30600b60009054906101000a900473ffffffffffffffffffffffffffffffffffffffff166040518363ffffffff1660e01b8152600401616103929190617da5565b60206040518083038186803b15801561611b57600080fd5b505afa15801561612f573d6000803e3d6000fd5b505050506040513d601f19601f8201168201806040525081019061615391906177b7565b101561628d5760008473ffffffffffffffffffffffffffffffffffffffff166318160ddd6040518163ffffffff1660e01b815260040160206040518083038186803b1580156161a157600080fd5b505afa1580156161b5573d6000803e3d6000fd5b505050506040513d601f19601f820116820180604052508101906161d991906177b7565b90508473ffffffffffffffffffffffffffffffffffffffff1663095ea7b3600b60009054906101000a900473ffffffffffffffffffffffffffffffffffffffff16836040518363ffffffff1660e01b8152600401616238929190617e05565b602060405180830381600087803b15801561625257600080fd5b505af1158015616266573d6000803e3d6000fd5b505050506040513d601f19601f8201168201806040525081019061628a91906175b3565b50505b600b60009054906101000a900473ffffffffffffffffffffffffffffffffffffffff1673ffffffffffffffffffffffffffffffffffffffff166393cac685828587600d60009054906101000a900473ffffffffffffffffffffffffffffffffffffffff166040518563ffffffff1660e01b815260040161631094939291906181fb565b602060405180830381600087803b15801561632a57600080fd5b505af115801561633e573d6000803e3d6000fd5b505050506040513d601f19601f8201168201806040525081019061636291906177b7565b91505b5092915050565b6000601a600083815260200190815260200160002060009054906101000a900473ffffffffffffffffffffffffffffffffffffffff169050600073ffffffffffffffffffffffffffffffffffffffff168173ffffffffffffffffffffffffffffffffffffffff161415616414576040517f08c379a000000000000000000000000000000000000000000000000000000000815260040161640b906180dc565b60405180910390fd5b80600a60016101000a81548173ffffffffffffffffffffffffffffffffffffffff021916908373ffffffffffffffffffffffffffffffffffffffff160217905550600160009054906101000a900473ffffffffffffffffffffffffffffffffffffffff1673ffffffffffffffffffffffffffffffffffffffff16631d007f5f826040518263ffffffff1660e01b81526004016164b09190617d8a565b600060405180830381600087803b1580156164ca57600080fd5b505af11580156164de573d6000803e3d6000fd5b505050506001600a60006101000a81548160ff02191690831515021790555061650682616f3a565b5050565b6000601a600083815260200190815260200160002060009054906101000a900473ffffffffffffffffffffffffffffffffffffffff169050600073ffffffffffffffffffffffffffffffffffffffff168173ffffffffffffffffffffffffffffffffffffffff1614156165b2576040517f08c379a00000000000000000000000000000000000000000000000000000000081526004016165a9906180dc565b60405180910390fd5b80600b60006101000a81548173ffffffffffffffffffffffffffffffffffffffff021916908373ffffffffffffffffffffffffffffffffffffffff1602179055506165fc82616f3a565b5050565b6000601a600083815260200190815260200160002060009054906101000a900473ffffffffffffffffffffffffffffffffffffffff169050600073ffffffffffffffffffffffffffffffffffffffff168173ffffffffffffffffffffffffffffffffffffffff1614156166a8576040517f08c379a000000000000000000000000000000000000000000000000000000000815260040161669f906180dc565b60405180910390fd5b80600c60006101000a81548173ffffffffffffffffffffffffffffffffffffffff021916908373ffffffffffffffffffffffffffffffffffffffff1602179055506166f282616f3a565b5050565b6000601a600083815260200190815260200160002060009054906101000a900473ffffffffffffffffffffffffffffffffffffffff169050600073ffffffffffffffffffffffffffffffffffffffff168173ffffffffffffffffffffffffffffffffffffffff16141561679e576040517f08c379a0000000000000000000000000000000000000000000000000000000008152600401616795906180dc565b60405180910390fd5b80601160006101000a81548173ffffffffffffffffffffffffffffffffffffffff021916908373ffffffffffffffffffffffffffffffffffffffff1602179055506167e882616f3a565b5050565b600160009054906101000a900473ffffffffffffffffffffffffffffffffffffffff1673ffffffffffffffffffffffffffffffffffffffff1663fe1fa8fa6040518163ffffffff1660e01b8152600401600060405180830381600087803b15801561685657600080fd5b505af115801561686a573d6000803e3d6000fd5b5050505061687781616f3a565b50565b60006019600083815260200190815260200160002054905060008114156168d6576040517f08c379a00000000000000000000000000000000000000000000000000000000081526004016168cd9061809c565b60405180910390fd5b806003819055506168e682616f3a565b5050565b6000601960008381526020019081526020016000205490506000811415616946576040517f08c379a000000000000000000000000000000000000000000000000000000000815260040161693d9061809c565b60405180910390fd5b8060068190555061695682616f3a565b5050565b6000601960008381526020019081526020016000205490506000601a600084815260200190815260200160002060009054906101000a900473ffffffffffffffffffffffffffffffffffffffff16905060008214156169ee576040517f08c379a00000000000000000000000000000000000000000000000000000000081526004016169e59061809c565b60405180910390fd5b600073ffffffffffffffffffffffffffffffffffffffff168173ffffffffffffffffffffffffffffffffffffffff161415616a5e576040517f08c379a0000000000000000000000000000000000000000000000000000000008152600401616a55906180dc565b60405180910390fd5b601160009054906101000a900473ffffffffffffffffffffffffffffffffffffffff1673ffffffffffffffffffffffffffffffffffffffff16637d458baa83836040518363ffffffff1660e01b8152600401616abb929190618179565b600060405180830381600087803b158015616ad557600080fd5b505af1158015616ae9573d6000803e3d6000fd5b50505050616af683616f3a565b505050565b60006a02116545850052128000009050600160009054906101000a900473ffffffffffffffffffffffffffffffffffffffff1673ffffffffffffffffffffffffffffffffffffffff1663d01f6fba82306040518363ffffffff1660e01b8152600401616b68929190618179565b600060405180830381600087803b158015616b8257600080fd5b505af1158015616b96573d6000803e3d6000fd5b50505050616ba382616f3a565b5050565b6000601a600083815260200190815260200160002060009054906101000a900473ffffffffffffffffffffffffffffffffffffffff169050601760008273ffffffffffffffffffffffffffffffffffffffff1673ffffffffffffffffffffffffffffffffffffffff16815260200190815260200160002060009054906101000a900460ff16616cec576001601760008373ffffffffffffffffffffffffffffffffffffffff1673ffffffffffffffffffffffffffffffffffffffff16815260200190815260200160002060006101000a81548160ff0219169083151502179055506014819080600181540180825580915050600190039060005260206000200160009091909190916101000a81548173ffffffffffffffffffffffffffffffffffffffff021916908373ffffffffffffffffffffffffffffffffffffffff1602179055505b616cf582616f3a565b5050565b6000601a600083815260200190815260200160002060009054906101000a900473ffffffffffffffffffffffffffffffffffffffff1690506000601760008373ffffffffffffffffffffffffffffffffffffffff1673ffffffffffffffffffffffffffffffffffffffff16815260200190815260200160002060006101000a81548160ff021916908315150217905550616d9282616f3a565b5050565b6000601a600083815260200190815260200160002060009054906101000a900473ffffffffffffffffffffffffffffffffffffffff169050600f60009054906101000a900473ffffffffffffffffffffffffffffffffffffffff1673ffffffffffffffffffffffffffffffffffffffff16632b2260a8826040518263ffffffff1660e01b8152600401616e299190617d8a565b600060405180830381600087803b158015616e4357600080fd5b505af1158015616e57573d6000803e3d6000fd5b50505050616e6482616f3a565b5050565b6000601a600083815260200190815260200160002060009054906101000a900473ffffffffffffffffffffffffffffffffffffffff169050600f60009054906101000a900473ffffffffffffffffffffffffffffffffffffffff1673ffffffffffffffffffffffffffffffffffffffff16637ca51fbf826040518263ffffffff1660e01b8152600401616efb9190617d8a565b600060405180830381600087803b158015616f1557600080fd5b505af1158015616f29573d6000803e3d6000fd5b50505050616f3682616f3a565b5050565b6000601b60008381526020019081526020016000208054616f5a906186f0565b80601f0160208091040260200160405190810160405280929190818152602001828054616f86906186f0565b8015616fd35780601f10616fa857610100808354040283529160200191616fd3565b820191906000526020600020905b815481529060010190602001808311616fb657829003601f168201915b50505050509050813373ffffffffffffffffffffffffffffffffffffffff167f28fca9bc3d4a734a707bd9396d50341c1f45e1d455c4aa4a58ceee0e09f64544601c600086815260200190815260200160002054600e60009054906101000a900473ffffffffffffffffffffffffffffffffffffffff1673ffffffffffffffffffffffffffffffffffffffff166396c82e576040518163ffffffff1660e01b815260040160206040518083038186803b15801561708f57600080fd5b505afa1580156170a3573d6000803e3d6000fd5b505050506040513d601f19601f820116820180604052508101906170c791906177b7565b856040516170d793929190618240565b60405180910390a36000601c6000848152602001908152602001600020819055506001601f600084815260200190815260200160002060006101000a81548160ff0219169083151502179055506000601e600084815260200190815260200160002060006101000a81548160ff02191690831515021790555060006020600084815260200190815260200160002060006101000a81548160ff0219169083151502179055505050565b82805461718c906186f0565b90600052602060002090601f0160209004810192826171ae57600085556171f5565b82601f106171c757805160ff19168380011785556171f5565b828001600101855582156171f5579182015b828111156171f45782518255916020019190600101906171d9565b5b5090506172029190617275565b5090565b6040518061014001604052806000815260200160608152602001600081526020016000815260200160001515815260200160001515815260200160008152602001600073ffffffffffffffffffffffffffffffffffffffff168152602001600015158152602001600081525090565b5b8082111561728e576000816000905550600101617276565b5090565b60006172a56172a0846182da565b6182b5565b9050828152602081018484840111156172bd57600080fd5b6172c88482856186ae565b509392505050565b6000813590506172df81618a7e565b92915050565b6000815190506172f481618a95565b92915050565b60008151905061730981618aac565b92915050565b60008151905061731e81618ac3565b92915050565b60008151905061733381618ada565b92915050565b60008151905061734881618af1565b92915050565b60008151905061735d81618b08565b92915050565b60008151905061737281618b1f565b92915050565b60008151905061738781618b36565b92915050565b60008151905061739c81618b4d565b92915050565b6000815190506173b181618b64565b92915050565b600082601f8301126173c857600080fd5b81356173d8848260208601617292565b91505092915050565b6000813590506173f081618b7b565b92915050565b60008151905061740581618b7b565b92915050565b60008135905061741a81618b92565b92915050565b60006020828403121561743257600080fd5b6000617440848285016172d0565b91505092915050565b6000806040838503121561745c57600080fd5b600061746a858286016172d0565b925050602061747b858286016172d0565b9150509250929050565b60008060006060848603121561749a57600080fd5b60006174a8868287016172d0565b93505060206174b9868287016172d0565b92505060406174ca868287016172d0565b9150509250925092565b600080604083850312156174e757600080fd5b60006174f5858286016172d0565b925050602083013567ffffffffffffffff81111561751257600080fd5b61751e858286016173b7565b9150509250929050565b6000806040838503121561753b57600080fd5b6000617549858286016172d0565b925050602061755a858286016173e1565b9150509250929050565b60008060006060848603121561757957600080fd5b6000617587868287016172d0565b9350506020617598868287016173e1565b92505060406175a9868287016172d0565b9150509250925092565b6000602082840312156175c557600080fd5b60006175d3848285016172e5565b91505092915050565b6000602082840312156175ee57600080fd5b60006175fc848285016172fa565b91505092915050565b60006020828403121561761757600080fd5b60006176258482850161730f565b91505092915050565b60006020828403121561764057600080fd5b600061764e84828501617324565b91505092915050565b60006020828403121561766957600080fd5b600061767784828501617339565b91505092915050565b60006020828403121561769257600080fd5b60006176a08482850161734e565b91505092915050565b6000602082840312156176bb57600080fd5b60006176c984828501617363565b91505092915050565b6000602082840312156176e457600080fd5b60006176f284828501617378565b91505092915050565b60006020828403121561770d57600080fd5b600061771b8482850161738d565b91505092915050565b60006020828403121561773657600080fd5b6000617744848285016173a2565b91505092915050565b60006020828403121561775f57600080fd5b600082013567ffffffffffffffff81111561777957600080fd5b617785848285016173b7565b91505092915050565b6000602082840312156177a057600080fd5b60006177ae848285016173e1565b91505092915050565b6000602082840312156177c957600080fd5b60006177d7848285016173f6565b91505092915050565b600080604083850312156177f357600080fd5b6000617801858286016173e1565b9250506020617812858286016172d0565b9150509250929050565b6000806040838503121561782f57600080fd5b600061783d8582860161740b565b925050602083013567ffffffffffffffff81111561785a57600080fd5b617866858286016173b7565b9150509250929050565b600080600080600060a0868803121561788857600080fd5b60006178968882890161740b565b95505060206178a78882890161740b565b94505060406178b88882890161740b565b93505060606178c98882890161740b565b92505060806178da8882890161740b565b9150509295509295909350565b60006178f383836178ff565b60208301905092915050565b6179088161849c565b82525050565b6179178161849c565b82525050565b60006179288261831b565b6179328185618349565b935061793d8361830b565b8060005b8381101561796e57815161795588826178e7565b97506179608361833c565b925050600181019050617941565b5085935050505092915050565b617984816184ae565b82525050565b617993816184ae565b82525050565b60006179a482618326565b6179ae818561835a565b93506179be8185602086016186bd565b80840191505092915050565b6179d38161858e565b82525050565b6179e2816185b2565b82525050565b6179f1816185d6565b82525050565b617a00816185fa565b82525050565b617a0f8161861e565b82525050565b617a1e81618642565b82525050565b617a2d81618666565b82525050565b617a3c8161868a565b82525050565b6000617a4d82618331565b617a578185618365565b9350617a678185602086016186bd565b617a7081618858565b840191505092915050565b6000617a8682618331565b617a908185618376565b9350617aa08185602086016186bd565b617aa981618858565b840191505092915050565b6000617ac1600783618376565b9150617acc82618869565b602082019050919050565b6000617ae4600483618376565b9150617aef82618892565b602082019050919050565b6000617b07600a83618376565b9150617b12826188bb565b602082019050919050565b6000617b2a600883618376565b9150617b35826188e4565b602082019050919050565b6000617b4d600b83618376565b9150617b588261890d565b602082019050919050565b6000617b70600683618376565b9150617b7b82618936565b602082019050919050565b6000617b93600883618376565b9150617b9e8261895f565b602082019050919050565b6000617bb6600983618376565b9150617bc182618988565b602082019050919050565b6000617bd9600683618376565b9150617be4826189b1565b602082019050919050565b6000617bfc600783618376565b9150617c07826189da565b602082019050919050565b6000617c1f600883618376565b9150617c2a82618a03565b602082019050919050565b6000617c42600583618376565b9150617c4d82618a2c565b602082019050919050565b6000617c65600583618376565b9150617c7082618a55565b602082019050919050565b600061014083016000830151617c946000860182617d55565b5060208301518482036020860152617cac8282617a42565b9150506040830151617cc16040860182617d55565b506060830151617cd46060860182617d55565b506080830151617ce7608086018261797b565b5060a0830151617cfa60a086018261797b565b5060c0830151617d0d60c0860182617d55565b5060e0830151617d2060e08601826178ff565b50610100830151617d3561010086018261797b565b50610120830151617d4a610120860182617d55565b508091505092915050565b617d5e81618574565b82525050565b617d6d81618574565b82525050565b6000617d7f8284617999565b915081905092915050565b6000602082019050617d9f600083018461790e565b92915050565b6000604082019050617dba600083018561790e565b617dc7602083018461790e565b9392505050565b6000606082019050617de3600083018661790e565b617df0602083018561790e565b617dfd6040830184617d64565b949350505050565b6000604082019050617e1a600083018561790e565b617e276020830184617d64565b9392505050565b6000606082019050617e43600083018661790e565b617e506020830185617d64565b617e5d604083018461790e565b949350505050565b60006020820190508181036000830152617e7f818461791d565b905092915050565b6000602082019050617e9c600083018461798a565b92915050565b6000602082019050617eb760008301846179ca565b92915050565b6000602082019050617ed260008301846179d9565b92915050565b6000602082019050617eed60008301846179e8565b92915050565b6000602082019050617f0860008301846179f7565b92915050565b6000602082019050617f236000830184617a06565b92915050565b6000602082019050617f3e6000830184617a15565b92915050565b6000602082019050617f596000830184617a24565b92915050565b6000602082019050617f746000830184617a33565b92915050565b60006020820190508181036000830152617f948184617a7b565b905092915050565b60006020820190508181036000830152617fb581617ab4565b9050919050565b60006020820190508181036000830152617fd581617ad7565b9050919050565b60006020820190508181036000830152617ff581617afa565b9050919050565b6000602082019050818103600083015261801581617b1d565b9050919050565b6000602082019050818103600083015261803581617b40565b9050919050565b6000602082019050818103600083015261805581617b63565b9050919050565b6000602082019050818103600083015261807581617b86565b9050919050565b6000602082019050818103600083015261809581617ba9565b9050919050565b600060208201905081810360008301526180b581617bcc565b9050919050565b600060208201905081810360008301526180d581617bef565b9050919050565b600060208201905081810360008301526180f581617c12565b9050919050565b6000602082019050818103600083015261811581617c35565b9050919050565b6000602082019050818103600083015261813581617c58565b9050919050565b600060208201905081810360008301526181568184617c7b565b905092915050565b60006020820190506181736000830184617d64565b92915050565b600060408201905061818e6000830185617d64565b61819b602083018461790e565b9392505050565b60006040820190506181b76000830185617d64565b81810360208301526181c98184617a7b565b90509392505050565b60006040820190506181e76000830185617d64565b6181f46020830184617d64565b9392505050565b60006080820190506182106000830187617d64565b61821d6020830186617d64565b61822a604083018561790e565b618237606083018461790e565b95945050505050565b60006060820190506182556000830186617d64565b6182626020830185617d64565b81810360408301526182748184617a7b565b9050949350505050565b60006060820190506182936000830186617d64565b6182a06020830185617d64565b6182ad6040830184617d64565b949350505050565b60006182bf6182d0565b90506182cb8282618722565b919050565b6000604051905090565b600067ffffffffffffffff8211156182f5576182f4618829565b5b6182fe82618858565b9050602081019050919050565b6000819050602082019050919050565b600081519050919050565b600081519050919050565b600081519050919050565b6000602082019050919050565b600082825260208201905092915050565b600081905092915050565b600082825260208201905092915050565b600082825260208201905092915050565b600061839282618574565b915061839d83618574565b9250827fffffffffffffffffffffffffffffffffffffffffffffffffffffffffffffffff038211156183d2576183d161879c565b5b828201905092915050565b60006183e882618574565b91506183f383618574565b925082618403576184026187cb565b5b828204905092915050565b600061841982618574565b915061842483618574565b9250817fffffffffffffffffffffffffffffffffffffffffffffffffffffffffffffffff048311821515161561845d5761845c61879c565b5b828202905092915050565b600061847382618574565b915061847e83618574565b9250828210156184915761849061879c565b5b828203905092915050565b60006184a782618554565b9050919050565b60008115159050919050565b6000819050919050565b60006184cf8261849c565b9050919050565b60006184e18261849c565b9050919050565b60006184f38261849c565b9050919050565b60006185058261849c565b9050919050565b60006185178261849c565b9050919050565b60006185298261849c565b9050919050565b600061853b8261849c565b9050919050565b600061854d8261849c565b9050919050565b600073ffffffffffffffffffffffffffffffffffffffff82169050919050565b6000819050919050565b600063ffffffff82169050919050565b6000618599826185a0565b9050919050565b60006185ab82618554565b9050919050565b60006185bd826185c4565b9050919050565b60006185cf82618554565b9050919050565b60006185e1826185e8565b9050919050565b60006185f382618554565b9050919050565b60006186058261860c565b9050919050565b600061861782618554565b9050919050565b600061862982618630565b9050919050565b600061863b82618554565b9050919050565b600061864d82618654565b9050919050565b600061865f82618554565b9050919050565b600061867182618678565b9050919050565b600061868382618554565b9050919050565b60006186958261869c565b9050919050565b60006186a782618554565b9050919050565b82818337600083830152505050565b60005b838110156186db5780820151818401526020810190506186c0565b838111156186ea576000848401525b50505050565b6000600282049050600182168061870857607f821691505b6020821081141561871c5761871b6187fa565b5b50919050565b61872b82618858565b810181811067ffffffffffffffff8211171561874a57618749618829565b5b80604052505050565b600061875e82618574565b91507fffffffffffffffffffffffffffffffffffffffffffffffffffffffffffffffff8214156187915761879061879c565b5b600182019050919050565b7f4e487b7100000000000000000000000000000000000000000000000000000000600052601160045260246000fd5b7f4e487b7100000000000000000000000000000000000000000000000000000000600052601260045260246000fd5b7f4e487b7100000000000000000000000000000000000000000000000000000000600052602260045260246000fd5b7f4e487b7100000000000000000000000000000000000000000000000000000000600052604160045260246000fd5b6000601f19601f8301169050919050565b7f216c697374656400000000000000000000000000000000000000000000000000600082015250565b7f2166656500000000000000000000000000000000000000000000000000000000600082015250565b7f21656d697373696f6e7300000000000000000000000000000000000000000000600082015250565b7f21636f6f6c6f6666000000000000000000000000000000000000000000000000600082015250565b7f2166696e616c6973696e67000000000000000000000000000000000000000000600082015250565b7f2166756e64730000000000000000000000000000000000000000000000000000600082015250565b7f2163757261746564000000000000000000000000000000000000000000000000600082015250565b7f217472616e736665720000000000000000000000000000000000000000000000600082015250565b7f21706172616d0000000000000000000000000000000000000000000000000000600082015250565b7f21616d6f756e7400000000000000000000000000000000000000000000000000600082015250565b7f2161646472657373000000000000000000000000000000000000000000000000600082015250565b7f216f70656e000000000000000000000000000000000000000000000000000000600082015250565b7f2164617973000000000000000000000000000000000000000000000000000000600082015250565b618a878161849c565b8114618a9257600080fd5b50565b618a9e816184ae565b8114618aa957600080fd5b50565b618ab5816184ba565b8114618ac057600080fd5b50565b618acc816184c4565b8114618ad757600080fd5b50565b618ae3816184d6565b8114618aee57600080fd5b50565b618afa816184e8565b8114618b0557600080fd5b50565b618b11816184fa565b8114618b1c57600080fd5b50565b618b288161850c565b8114618b3357600080fd5b50565b618b3f8161851e565b8114618b4a57600080fd5b50565b618b5681618530565b8114618b6157600080fd5b50565b618b6d81618542565b8114618b7857600080fd5b50565b618b8481618574565b8114618b8f57600080fd5b50565b618b9b8161857e565b8114618ba657600080fd5b5056fea2646970667358221220c3a3aef3bc7f1362e0603555fee8b0e0b07c2622d692739a543c0cdb13bc61d364736f6c63430008030033",
  "linkReferences": {},
  "deployedLinkReferences": {}
}