{
  "_format": "hh-sol-artifact-1",
  "contractName": "Dao",
  "sourceName": "contracts/Dao.sol",
  "abi": [
    {
      "inputs": [
        {
          "internalType": "address",
          "name": "_base",
          "type": "address"
        }
      ],
      "stateMutability": "nonpayable",
      "type": "constructor"
    },
    {
      "anonymous": false,
      "inputs": [
        {
          "indexed": true,
          "internalType": "address",
          "name": "member",
          "type": "address"
        },
        {
          "indexed": true,
          "internalType": "uint256",
          "name": "proposalID",
          "type": "uint256"
        }
      ],
      "name": "CancelProposal",
      "type": "event"
    },
    {
      "anonymous": false,
      "inputs": [
        {
          "indexed": true,
          "internalType": "address",
          "name": "owner",
          "type": "address"
        },
        {
          "indexed": false,
          "internalType": "uint256",
          "name": "depositAmount",
          "type": "uint256"
        },
        {
          "indexed": false,
          "internalType": "uint256",
          "name": "bondedLP",
          "type": "uint256"
        }
      ],
      "name": "DepositAsset",
      "type": "event"
    },
    {
      "anonymous": false,
      "inputs": [
        {
          "indexed": true,
          "internalType": "address",
          "name": "member",
          "type": "address"
        },
        {
          "indexed": true,
          "internalType": "uint256",
          "name": "proposalID",
          "type": "uint256"
        },
        {
          "indexed": false,
          "internalType": "string",
          "name": "proposalType",
          "type": "string"
        }
      ],
      "name": "FinalisedProposal",
      "type": "event"
    },
    {
      "anonymous": false,
      "inputs": [
        {
          "indexed": true,
          "internalType": "address",
          "name": "member",
          "type": "address"
        },
        {
          "indexed": true,
          "internalType": "address",
          "name": "pool",
          "type": "address"
        },
        {
          "indexed": false,
          "internalType": "uint256",
          "name": "amount",
          "type": "uint256"
        }
      ],
      "name": "MemberDeposits",
      "type": "event"
    },
    {
      "anonymous": false,
      "inputs": [
        {
          "indexed": true,
          "internalType": "address",
          "name": "member",
          "type": "address"
        },
        {
          "indexed": true,
          "internalType": "address",
          "name": "pool",
          "type": "address"
        },
        {
          "indexed": false,
          "internalType": "uint256",
          "name": "balance",
          "type": "uint256"
        }
      ],
      "name": "MemberWithdraws",
      "type": "event"
    },
    {
      "anonymous": false,
      "inputs": [
        {
          "indexed": true,
          "internalType": "address",
          "name": "member",
          "type": "address"
        },
        {
          "indexed": true,
          "internalType": "uint256",
          "name": "proposalID",
          "type": "uint256"
        },
        {
          "indexed": false,
          "internalType": "string",
          "name": "proposalType",
          "type": "string"
        }
      ],
      "name": "NewProposal",
      "type": "event"
    },
    {
      "anonymous": false,
      "inputs": [
        {
          "indexed": true,
          "internalType": "address",
          "name": "member",
          "type": "address"
        },
        {
          "indexed": true,
          "internalType": "uint256",
          "name": "proposalID",
          "type": "uint256"
        },
        {
          "indexed": false,
          "internalType": "string",
          "name": "proposalType",
          "type": "string"
        }
      ],
      "name": "NewVote",
      "type": "event"
    },
    {
      "anonymous": false,
      "inputs": [
        {
          "indexed": true,
          "internalType": "address",
          "name": "member",
          "type": "address"
        },
        {
          "indexed": true,
          "internalType": "uint256",
          "name": "proposalID",
          "type": "uint256"
        },
        {
          "indexed": false,
          "internalType": "uint256",
          "name": "timeFinalised",
          "type": "uint256"
        },
        {
          "indexed": false,
          "internalType": "string",
          "name": "proposalType",
          "type": "string"
        }
      ],
      "name": "ProposalFinalising",
      "type": "event"
    },
    {
      "anonymous": false,
      "inputs": [
        {
          "indexed": true,
          "internalType": "address",
          "name": "member",
          "type": "address"
        },
        {
          "indexed": true,
          "internalType": "uint256",
          "name": "proposalID",
          "type": "uint256"
        },
        {
          "indexed": false,
          "internalType": "string",
          "name": "proposalType",
          "type": "string"
        }
      ],
      "name": "RemovedVote",
      "type": "event"
    },
    {
      "inputs": [],
      "name": "BASE",
      "outputs": [
        {
          "internalType": "address",
          "name": "",
          "type": "address"
        }
      ],
      "stateMutability": "view",
      "type": "function"
    },
    {
      "inputs": [],
      "name": "BONDVAULT",
      "outputs": [
        {
          "internalType": "contract iBONDVAULT",
          "name": "",
          "type": "address"
        }
      ],
      "stateMutability": "view",
      "type": "function"
    },
    {
      "inputs": [],
      "name": "DAO",
      "outputs": [
        {
          "internalType": "address",
          "name": "",
          "type": "address"
        }
      ],
      "stateMutability": "view",
      "type": "function"
    },
    {
      "inputs": [],
      "name": "DAOVAULT",
      "outputs": [
        {
          "internalType": "contract iDAOVAULT",
          "name": "",
          "type": "address"
        }
      ],
      "stateMutability": "view",
      "type": "function"
    },
    {
      "inputs": [],
      "name": "DEPLOYER",
      "outputs": [
        {
          "internalType": "address",
          "name": "",
          "type": "address"
        }
      ],
      "stateMutability": "view",
      "type": "function"
    },
    {
      "inputs": [],
      "name": "LEND",
      "outputs": [
        {
          "internalType": "contract iLEND",
          "name": "",
          "type": "address"
        }
      ],
      "stateMutability": "view",
      "type": "function"
    },
    {
      "inputs": [],
      "name": "POOLFACTORY",
      "outputs": [
        {
          "internalType": "contract iPOOLFACTORY",
          "name": "",
          "type": "address"
        }
      ],
      "stateMutability": "view",
      "type": "function"
    },
    {
      "inputs": [],
      "name": "RESERVE",
      "outputs": [
        {
          "internalType": "contract iRESERVE",
          "name": "",
          "type": "address"
        }
      ],
      "stateMutability": "view",
      "type": "function"
    },
    {
      "inputs": [],
      "name": "ROUTER",
      "outputs": [
        {
          "internalType": "contract iROUTER",
          "name": "",
          "type": "address"
        }
      ],
      "stateMutability": "view",
      "type": "function"
    },
    {
      "inputs": [],
      "name": "SYNTHFACTORY",
      "outputs": [
        {
          "internalType": "contract iSYNTHFACTORY",
          "name": "",
          "type": "address"
        }
      ],
      "stateMutability": "view",
      "type": "function"
    },
    {
      "inputs": [],
      "name": "SYNTHVAULT",
      "outputs": [
        {
          "internalType": "contract iSYNTHVAULT",
          "name": "",
          "type": "address"
        }
      ],
      "stateMutability": "view",
      "type": "function"
    },
    {
      "inputs": [],
      "name": "UTILS",
      "outputs": [
        {
          "internalType": "contract iUTILS",
          "name": "",
          "type": "address"
        }
      ],
      "stateMutability": "view",
      "type": "function"
    },
    {
      "inputs": [
        {
          "internalType": "uint256",
          "name": "",
          "type": "uint256"
        }
      ],
      "name": "arrayMembers",
      "outputs": [
        {
          "internalType": "address",
          "name": "",
          "type": "address"
        }
      ],
      "stateMutability": "view",
      "type": "function"
    },
    {
      "inputs": [
        {
          "internalType": "address",
          "name": "asset",
          "type": "address"
        },
        {
          "internalType": "uint256",
          "name": "amount",
          "type": "uint256"
        }
      ],
      "name": "bond",
      "outputs": [
        {
          "internalType": "bool",
          "name": "success",
          "type": "bool"
        }
      ],
      "stateMutability": "payable",
      "type": "function"
    },
    {
      "inputs": [
        {
          "internalType": "address",
          "name": "member",
          "type": "address"
        }
      ],
      "name": "calcCurrentReward",
      "outputs": [
        {
          "internalType": "uint256",
          "name": "",
          "type": "uint256"
        }
      ],
      "stateMutability": "view",
      "type": "function"
    },
    {
      "inputs": [
        {
          "internalType": "address",
          "name": "member",
          "type": "address"
        }
      ],
      "name": "calcReward",
      "outputs": [
        {
          "internalType": "uint256",
          "name": "",
          "type": "uint256"
        }
      ],
      "stateMutability": "view",
      "type": "function"
    },
    {
      "inputs": [],
      "name": "cancelPeriod",
      "outputs": [
        {
          "internalType": "uint256",
          "name": "",
          "type": "uint256"
        }
      ],
      "stateMutability": "view",
      "type": "function"
    },
    {
      "inputs": [],
      "name": "cancelProposal",
      "outputs": [],
      "stateMutability": "nonpayable",
      "type": "function"
    },
    {
      "inputs": [
        {
          "internalType": "address",
          "name": "bondAsset",
          "type": "address"
        }
      ],
      "name": "claimAll",
      "outputs": [],
      "stateMutability": "nonpayable",
      "type": "function"
    },
    {
      "inputs": [],
      "name": "coolOffPeriod",
      "outputs": [
        {
          "internalType": "uint256",
          "name": "",
          "type": "uint256"
        }
      ],
      "stateMutability": "view",
      "type": "function"
    },
    {
      "inputs": [],
      "name": "currentProposal",
      "outputs": [
        {
          "internalType": "uint256",
          "name": "",
          "type": "uint256"
        }
      ],
      "stateMutability": "view",
      "type": "function"
    },
    {
      "inputs": [],
      "name": "daoClaim",
      "outputs": [
        {
          "internalType": "uint256",
          "name": "",
          "type": "uint256"
        }
      ],
      "stateMutability": "view",
      "type": "function"
    },
    {
      "inputs": [],
      "name": "daoFee",
      "outputs": [
        {
          "internalType": "uint256",
          "name": "",
          "type": "uint256"
        }
      ],
      "stateMutability": "view",
      "type": "function"
    },
    {
      "inputs": [],
      "name": "daoHasMoved",
      "outputs": [
        {
          "internalType": "bool",
          "name": "",
          "type": "bool"
        }
      ],
      "stateMutability": "view",
      "type": "function"
    },
    {
      "inputs": [
        {
          "internalType": "address",
          "name": "pool",
          "type": "address"
        },
        {
          "internalType": "uint256",
          "name": "amount",
          "type": "uint256"
        }
      ],
      "name": "deposit",
      "outputs": [],
      "stateMutability": "nonpayable",
      "type": "function"
    },
    {
      "inputs": [],
      "name": "erasToEarn",
      "outputs": [
        {
          "internalType": "uint256",
          "name": "",
          "type": "uint256"
        }
      ],
      "stateMutability": "view",
      "type": "function"
    },
    {
      "inputs": [],
      "name": "finaliseProposal",
      "outputs": [],
      "stateMutability": "nonpayable",
      "type": "function"
    },
    {
      "inputs": [
        {
          "internalType": "uint256",
          "name": "proposal",
          "type": "uint256"
        },
        {
          "internalType": "address",
          "name": "asset",
          "type": "address"
        }
      ],
      "name": "getProposalAssetVotes",
      "outputs": [
        {
          "internalType": "uint256",
          "name": "",
          "type": "uint256"
        }
      ],
      "stateMutability": "view",
      "type": "function"
    },
    {
      "inputs": [
        {
          "internalType": "uint256",
          "name": "proposalID",
          "type": "uint256"
        }
      ],
      "name": "getProposalDetails",
      "outputs": [
        {
          "components": [
            {
              "internalType": "uint256",
              "name": "id",
              "type": "uint256"
            },
            {
              "internalType": "string",
              "name": "proposalType",
              "type": "string"
            },
            {
              "internalType": "uint256",
              "name": "votes",
              "type": "uint256"
            },
            {
              "internalType": "uint256",
              "name": "coolOffTime",
              "type": "uint256"
            },
            {
              "internalType": "bool",
              "name": "finalising",
              "type": "bool"
            },
            {
              "internalType": "bool",
              "name": "finalised",
              "type": "bool"
            },
            {
              "internalType": "uint256",
              "name": "param",
              "type": "uint256"
            },
            {
              "internalType": "address",
              "name": "proposedAddress",
              "type": "address"
            },
            {
              "internalType": "bool",
              "name": "open",
              "type": "bool"
            },
            {
              "internalType": "uint256",
              "name": "startTime",
              "type": "uint256"
            }
          ],
          "internalType": "struct Dao.ProposalDetails",
          "name": "proposalDetails",
          "type": "tuple"
        }
      ],
      "stateMutability": "view",
      "type": "function"
    },
    {
      "inputs": [],
      "name": "harvest",
      "outputs": [],
      "stateMutability": "nonpayable",
      "type": "function"
    },
    {
      "inputs": [
        {
          "internalType": "uint256",
          "name": "_proposalID",
          "type": "uint256"
        }
      ],
      "name": "hasMajority",
      "outputs": [
        {
          "internalType": "bool",
          "name": "",
          "type": "bool"
        }
      ],
      "stateMutability": "view",
      "type": "function"
    },
    {
      "inputs": [
        {
          "internalType": "uint256",
          "name": "_proposalID",
          "type": "uint256"
        }
      ],
      "name": "hasQuorum",
      "outputs": [
        {
          "internalType": "bool",
          "name": "",
          "type": "bool"
        }
      ],
      "stateMutability": "view",
      "type": "function"
    },
    {
      "inputs": [
        {
          "internalType": "address",
          "name": "",
          "type": "address"
        }
      ],
      "name": "isMember",
      "outputs": [
        {
          "internalType": "bool",
          "name": "",
          "type": "bool"
        }
      ],
      "stateMutability": "view",
      "type": "function"
    },
    {
      "inputs": [],
      "name": "majorityFactor",
      "outputs": [
        {
          "internalType": "uint256",
          "name": "",
          "type": "uint256"
        }
      ],
      "stateMutability": "view",
      "type": "function"
    },
    {
      "inputs": [
        {
          "internalType": "address",
          "name": "",
          "type": "address"
        }
      ],
      "name": "mapMember_lastTime",
      "outputs": [
        {
          "internalType": "uint256",
          "name": "",
          "type": "uint256"
        }
      ],
      "stateMutability": "view",
      "type": "function"
    },
    {
      "inputs": [
        {
          "internalType": "uint256",
          "name": "",
          "type": "uint256"
        }
      ],
      "name": "mapPID_address",
      "outputs": [
        {
          "internalType": "address",
          "name": "",
          "type": "address"
        }
      ],
      "stateMutability": "view",
      "type": "function"
    },
    {
      "inputs": [
        {
          "internalType": "uint256",
          "name": "",
          "type": "uint256"
        }
      ],
      "name": "mapPID_coolOffTime",
      "outputs": [
        {
          "internalType": "uint256",
          "name": "",
          "type": "uint256"
        }
      ],
      "stateMutability": "view",
      "type": "function"
    },
    {
      "inputs": [
        {
          "internalType": "uint256",
          "name": "",
          "type": "uint256"
        }
      ],
      "name": "mapPID_finalised",
      "outputs": [
        {
          "internalType": "bool",
          "name": "",
          "type": "bool"
        }
      ],
      "stateMutability": "view",
      "type": "function"
    },
    {
      "inputs": [
        {
          "internalType": "uint256",
          "name": "",
          "type": "uint256"
        }
      ],
      "name": "mapPID_finalising",
      "outputs": [
        {
          "internalType": "bool",
          "name": "",
          "type": "bool"
        }
      ],
      "stateMutability": "view",
      "type": "function"
    },
    {
      "inputs": [
        {
          "internalType": "uint256",
          "name": "",
          "type": "uint256"
        }
      ],
      "name": "mapPID_open",
      "outputs": [
        {
          "internalType": "bool",
          "name": "",
          "type": "bool"
        }
      ],
      "stateMutability": "view",
      "type": "function"
    },
    {
      "inputs": [
        {
          "internalType": "uint256",
          "name": "",
          "type": "uint256"
        }
      ],
      "name": "mapPID_param",
      "outputs": [
        {
          "internalType": "uint256",
          "name": "",
          "type": "uint256"
        }
      ],
      "stateMutability": "view",
      "type": "function"
    },
    {
      "inputs": [
        {
          "internalType": "uint256",
          "name": "",
          "type": "uint256"
        }
      ],
      "name": "mapPID_startTime",
      "outputs": [
        {
          "internalType": "uint256",
          "name": "",
          "type": "uint256"
        }
      ],
      "stateMutability": "view",
      "type": "function"
    },
    {
      "inputs": [
        {
          "internalType": "uint256",
          "name": "",
          "type": "uint256"
        }
      ],
      "name": "mapPID_type",
      "outputs": [
        {
          "internalType": "string",
          "name": "",
          "type": "string"
        }
      ],
      "stateMutability": "view",
      "type": "function"
    },
    {
      "inputs": [
        {
          "internalType": "uint256",
          "name": "proposal",
          "type": "uint256"
        },
        {
          "internalType": "address",
          "name": "member",
          "type": "address"
        }
      ],
      "name": "memberVoted",
      "outputs": [
        {
          "internalType": "bool",
          "name": "",
          "type": "bool"
        }
      ],
      "stateMutability": "view",
      "type": "function"
    },
    {
      "inputs": [
        {
          "internalType": "string",
          "name": "typeStr",
          "type": "string"
        }
      ],
      "name": "newActionProposal",
      "outputs": [],
      "stateMutability": "nonpayable",
      "type": "function"
    },
    {
      "inputs": [
        {
          "internalType": "address",
          "name": "proposedAddress",
          "type": "address"
        },
        {
          "internalType": "string",
          "name": "typeStr",
          "type": "string"
        }
      ],
      "name": "newAddressProposal",
      "outputs": [],
      "stateMutability": "nonpayable",
      "type": "function"
    },
    {
      "inputs": [
        {
          "internalType": "address",
          "name": "recipient",
          "type": "address"
        },
        {
          "internalType": "uint256",
          "name": "amount",
          "type": "uint256"
        }
      ],
      "name": "newGrantProposal",
      "outputs": [],
      "stateMutability": "nonpayable",
      "type": "function"
    },
    {
      "inputs": [
        {
          "internalType": "uint256",
          "name": "param",
          "type": "uint256"
        },
        {
          "internalType": "string",
          "name": "typeStr",
          "type": "string"
        }
      ],
      "name": "newParamProposal",
      "outputs": [],
      "stateMutability": "nonpayable",
      "type": "function"
    },
    {
      "inputs": [],
      "name": "pollVotes",
      "outputs": [],
      "stateMutability": "nonpayable",
      "type": "function"
    },
    {
      "inputs": [],
      "name": "purgeDeployer",
      "outputs": [],
      "stateMutability": "nonpayable",
      "type": "function"
    },
    {
      "inputs": [],
      "name": "retire",
      "outputs": [
        {
          "internalType": "bool",
          "name": "",
          "type": "bool"
        }
      ],
      "stateMutability": "view",
      "type": "function"
    },
    {
      "inputs": [],
      "name": "running",
      "outputs": [
        {
          "internalType": "bool",
          "name": "",
          "type": "bool"
        }
      ],
      "stateMutability": "view",
      "type": "function"
    },
    {
      "inputs": [
        {
          "internalType": "uint256",
          "name": "_daoClaim",
          "type": "uint256"
        },
        {
          "internalType": "uint256",
          "name": "_daoFee",
          "type": "uint256"
        },
        {
          "internalType": "bool",
          "name": "_running",
          "type": "bool"
        },
        {
          "internalType": "uint256",
          "name": "_cancelPeriod",
          "type": "uint256"
        }
      ],
      "name": "setDaoFactors",
      "outputs": [],
      "stateMutability": "nonpayable",
      "type": "function"
    },
    {
      "inputs": [
        {
          "internalType": "address",
          "name": "_poolFactory",
          "type": "address"
        },
        {
          "internalType": "address",
          "name": "_synthFactory",
          "type": "address"
        }
      ],
      "name": "setFactoryAddresses",
      "outputs": [],
      "stateMutability": "nonpayable",
      "type": "function"
    },
    {
      "inputs": [
        {
          "internalType": "address",
          "name": "_router",
          "type": "address"
        },
        {
          "internalType": "address",
          "name": "_utils",
          "type": "address"
        },
        {
          "internalType": "address",
          "name": "_reserve",
          "type": "address"
        },
        {
          "internalType": "address",
          "name": "_lend",
          "type": "address"
        }
      ],
      "name": "setGenesisAddresses",
      "outputs": [],
      "stateMutability": "nonpayable",
      "type": "function"
    },
    {
      "inputs": [
        {
          "internalType": "uint256",
          "name": "_coolOff",
          "type": "uint256"
        },
        {
          "internalType": "uint256",
          "name": "_erasToEarn",
          "type": "uint256"
        },
        {
          "internalType": "uint256",
          "name": "_majorityFactor",
          "type": "uint256"
        }
      ],
      "name": "setGenesisFactors",
      "outputs": [],
      "stateMutability": "nonpayable",
      "type": "function"
    },
    {
      "inputs": [
        {
          "internalType": "address",
          "name": "_daovault",
          "type": "address"
        },
        {
          "internalType": "address",
          "name": "_bondvault",
          "type": "address"
        },
        {
          "internalType": "address",
          "name": "_synthVault",
          "type": "address"
        }
      ],
      "name": "setVaultAddresses",
      "outputs": [],
      "stateMutability": "nonpayable",
      "type": "function"
    },
    {
      "inputs": [],
      "name": "unvoteProposal",
      "outputs": [],
      "stateMutability": "nonpayable",
      "type": "function"
    },
    {
      "inputs": [],
      "name": "voteProposal",
      "outputs": [],
      "stateMutability": "nonpayable",
      "type": "function"
    },
    {
      "inputs": [
        {
          "internalType": "address",
          "name": "pool",
          "type": "address"
        }
      ],
      "name": "withdraw",
      "outputs": [],
      "stateMutability": "nonpayable",
      "type": "function"
    }
  ],
  "bytecode": "0x60a06040523480156200001157600080fd5b506040516200a3f73803806200a3f7833981810160405281019062000037919062000189565b6001600081905550600073ffffffffffffffffffffffffffffffffffffffff168173ffffffffffffffffffffffffffffffffffffffff161415620000b2576040517f08c379a0000000000000000000000000000000000000000000000000000000008152600401620000a990620001dc565b60405180910390fd5b8073ffffffffffffffffffffffffffffffffffffffff1660808173ffffffffffffffffffffffffffffffffffffffff1660601b8152505033600160006101000a81548173ffffffffffffffffffffffffffffffffffffffff021916908373ffffffffffffffffffffffffffffffffffffffff16021790555030600960016101000a81548173ffffffffffffffffffffffffffffffffffffffff021916908373ffffffffffffffffffffffffffffffffffffffff1602179055505062000286565b60008151905062000183816200026c565b92915050565b6000602082840312156200019c57600080fd5b6000620001ac8482850162000172565b91505092915050565b6000620001c4600583620001fe565b9150620001d18262000243565b602082019050919050565b60006020820190508181036000830152620001f781620001b5565b9050919050565b600082825260208201905092915050565b60006200021c8262000223565b9050919050565b600073ffffffffffffffffffffffffffffffffffffffff82169050919050565b7f215a45524f000000000000000000000000000000000000000000000000000000600082015250565b62000277816200020f565b81146200028357600080fd5b50565b60805160601c61a0fe620002f9600039600081816117f101528181611f420152818161218701528181614b3e01528181615f1e0152818161632f01528181616c3901528181616d0c01528181616d6b015281816175d5015281816177b3015281816179550152617b11015261a0fe6000f3fe6080604052600436106103975760003560e01c806379b2dc4c116101dc578063a6c83fed11610102578063b99b0a0c116100a0578063d14583631161006f578063d145836314610dab578063d85bd52614610dd4578063ec342ad014610dff578063f301e78114610e2a57610397565b8063b99b0a0c14610cdb578063bbf8cf8214610d06578063c05fc17814610d43578063c1b8411a14610d8057610397565b8063ae887c8b116100dc578063ae887c8b14610bf9578063b7407e6a14610c36578063b826286914610c73578063b93ec54b14610cb057610397565b8063a6c83fed14610b8e578063ab2bd8fd14610bb7578063abb6154f14610bce57610397565b806398fabd3a1161017a578063a320224611610149578063a320224614610ae1578063a44c247214610b0a578063a4874d7714610b33578063a515366a14610b5e57610397565b806398fabd3a14610a115780639d2cc43614610a3c578063a230c52414610a67578063a299ecb214610aa457610397565b806385d2b916116101b657806385d2b916146109675780638bebea89146109925780639070577f146109cf578063956615be146109e657610397565b806379b2dc4c146108fa5780637b0e5c45146109255780638351739a1461095057610397565b80633f3fa336116102c15780634b4000341161025f5780635f9384fc1161022e5780635f9384fc1461087a578063682454ed1461089157806373758988146108a857806377329f35146108d157610397565b80634b4000341461079a57806351cff8d9146107d75780635c120b37146108005780635c7366d31461083d57610397565b8063463508211161029b57806346350821146106f45780634636279f1461071d5780634641257d1461075a57806347e7ef241461077157610397565b80633f3fa33614610651578063436f80be1461068e57806343b2116f146106cb57610397565b80632c07eebf1161033957806334bc8f451161030857806334bc8f451461058357806338da7dd6146105ac5780633a61738d146105d75780633b4d01a71461061457610397565b80632c07eebf146104c55780632f7fa180146104f0578063314604fe1461051b57806332fe7b261461055857610397565b80632957b839116103755780632957b839146104075780632ab24e49146104325780632b49d4251461045d5780632bee11941461048857610397565b806303a821381461039c57806324efb528146103b3578063293cee7d146103de575b600080fd5b3480156103a857600080fd5b506103b1610e55565b005b3480156103bf57600080fd5b506103c8610ef3565b6040516103d591906191fa565b60405180910390f35b3480156103ea57600080fd5b506104056004803603810190610400919061876c565b610f06565b005b34801561041357600080fd5b5061041c6111bc565b60405161042991906195ac565b60405180910390f35b34801561043e57600080fd5b506104476111c2565b60405161045491906192d2565b60405180910390f35b34801561046957600080fd5b506104726112a9565b60405161047f91906195ac565b60405180910390f35b34801561049457600080fd5b506104af60048036038101906104aa9190618a41565b6112af565b6040516104bc91906191fa565b60405180910390f35b3480156104d157600080fd5b506104da6112cf565b6040516104e791906195ac565b60405180910390f35b3480156104fc57600080fd5b506105056112d5565b6040516105129190619215565b60405180910390f35b34801561052757600080fd5b50610542600480360381019061053d9190618a41565b6113bc565b60405161054f91906195ac565b60405180910390f35b34801561056457600080fd5b5061056d6113d4565b60405161057a919061929c565b60405180910390f35b34801561058f57600080fd5b506105aa60048036038101906105a59190618bc2565b6114bb565b005b3480156105b857600080fd5b506105c161152f565b6040516105ce9190619230565b60405180910390f35b3480156105e357600080fd5b506105fe60048036038101906105f9919061862c565b611616565b60405161060b91906195ac565b60405180910390f35b34801561062057600080fd5b5061063b60048036038101906106369190618a41565b6119a3565b604051610648919061958a565b60405180910390f35b34801561065d57600080fd5b5061067860048036038101906106739190618a93565b611bb2565b60405161068591906195ac565b60405180910390f35b34801561069a57600080fd5b506106b560048036038101906106b09190618a41565b611c0d565b6040516106c2919061911f565b60405180910390f35b3480156106d757600080fd5b506106f260048036038101906106ed9190618709565b611c4c565b005b34801561070057600080fd5b5061071b6004803603810190610716919061867e565b611db0565b005b34801561072957600080fd5b50610744600480360381019061073f919061862c565b611e90565b60405161075191906195ac565b60405180910390f35b34801561076657600080fd5b5061076f612001565b005b34801561077d57600080fd5b50610798600480360381019061079391906187c0565b612311565b005b3480156107a657600080fd5b506107c160048036038101906107bc9190618a41565b612899565b6040516107ce91906191fa565b60405180910390f35b3480156107e357600080fd5b506107fe60048036038101906107f9919061862c565b6128b9565b005b34801561080c57600080fd5b5061082760048036038101906108229190618a41565b612bc7565b60405161083491906191fa565b60405180910390f35b34801561084957600080fd5b50610864600480360381019061085f919061862c565b61312a565b60405161087191906195ac565b60405180910390f35b34801561088657600080fd5b5061088f613142565b005b34801561089d57600080fd5b506108a661353a565b005b3480156108b457600080fd5b506108cf60048036038101906108ca91906186ba565b61380d565b005b3480156108dd57600080fd5b506108f860048036038101906108f3919061862c565b61392f565b005b34801561090657600080fd5b5061090f613ac7565b60405161091c91906195ac565b60405180910390f35b34801561093157600080fd5b5061093a613acd565b60405161094791906192ed565b60405180910390f35b34801561095c57600080fd5b50610965613bb4565b005b34801561097357600080fd5b5061097c613f70565b60405161098991906195ac565b60405180910390f35b34801561099e57600080fd5b506109b960048036038101906109b49190618a41565b613f76565b6040516109c691906191fa565b60405180910390f35b3480156109db57600080fd5b506109e4613f96565b005b3480156109f257600080fd5b506109fb6142ae565b604051610a0891906195ac565b60405180910390f35b348015610a1d57600080fd5b50610a266142b4565b604051610a33919061911f565b60405180910390f35b348015610a4857600080fd5b50610a516142da565b604051610a5e9190619281565b60405180910390f35b348015610a7357600080fd5b50610a8e6004803603810190610a89919061862c565b6143c1565b604051610a9b91906191fa565b60405180910390f35b348015610ab057600080fd5b50610acb6004803603810190610ac69190618a41565b6143e1565b604051610ad891906195ac565b60405180910390f35b348015610aed57600080fd5b50610b086004803603810190610b039190618acf565b6143f9565b005b348015610b1657600080fd5b50610b316004803603810190610b2c9190618b5f565b6144e5565b005b348015610b3f57600080fd5b50610b48614574565b604051610b5591906191fa565b60405180910390f35b610b786004803603810190610b7391906187c0565b614587565b604051610b8591906191fa565b60405180910390f35b348015610b9a57600080fd5b50610bb56004803603810190610bb091906187c0565b614aca565b005b348015610bc357600080fd5b50610bcc614dae565b005b348015610bda57600080fd5b50610be36155d7565b604051610bf091906195ac565b60405180910390f35b348015610c0557600080fd5b50610c206004803603810190610c1b9190618a41565b6155dd565b604051610c2d919061911f565b60405180910390f35b348015610c4257600080fd5b50610c5d6004803603810190610c589190618a93565b615610565b604051610c6a91906191fa565b60405180910390f35b348015610c7f57600080fd5b50610c9a6004803603810190610c959190618a41565b615678565b604051610ca791906195ac565b60405180910390f35b348015610cbc57600080fd5b50610cc5615690565b604051610cd291906192b7565b60405180910390f35b348015610ce757600080fd5b50610cf0615777565b604051610cfd9190619266565b60405180910390f35b348015610d1257600080fd5b50610d2d6004803603810190610d289190618a41565b61585e565b604051610d3a91906191fa565b60405180910390f35b348015610d4f57600080fd5b50610d6a6004803603810190610d659190618a41565b615db3565b604051610d779190619308565b60405180910390f35b348015610d8c57600080fd5b50610d95615e53565b604051610da2919061911f565b60405180910390f35b348015610db757600080fd5b50610dd26004803603810190610dcd9190618a00565b615e79565b005b348015610de057600080fd5b50610de9615f09565b604051610df691906191fa565b60405180910390f35b348015610e0b57600080fd5b50610e14615f1c565b604051610e21919061911f565b60405180910390f35b348015610e3657600080fd5b50610e3f615f40565b604051610e4c919061924b565b60405180910390f35b600160009054906101000a900473ffffffffffffffffffffffffffffffffffffffff1673ffffffffffffffffffffffffffffffffffffffff163373ffffffffffffffffffffffffffffffffffffffff1614610eaf57600080fd5b6000600160006101000a81548173ffffffffffffffffffffffffffffffffffffffff021916908373ffffffffffffffffffffffffffffffffffffffff160217905550565b600960009054906101000a900460ff1681565b6000819050610f4a816040518060400160405280600381526020017f44414f0000000000000000000000000000000000000000000000000000000000815250616027565b80610f905750610f8f816040518060400160405280600681526020017f524f555445520000000000000000000000000000000000000000000000000000815250616027565b5b80610fd65750610fd5816040518060400160405280600581526020017f5554494c53000000000000000000000000000000000000000000000000000000815250616027565b5b8061101c575061101b816040518060400160405280600781526020017f5245534552564500000000000000000000000000000000000000000000000000815250616027565b5b806110625750611061816040518060400160405280600781526020017f5245414c49534500000000000000000000000000000000000000000000000000815250616027565b5b156110d857600073ffffffffffffffffffffffffffffffffffffffff168373ffffffffffffffffffffffffffffffffffffffff1614156110d7576040517f08c379a00000000000000000000000000000000000000000000000000000000081526004016110ce906194ea565b60405180910390fd5b5b60006110e26160d2565b90506110ec61632b565b50836017600083815260200190815260200160002060006101000a81548173ffffffffffffffffffffffffffffffffffffffff021916908373ffffffffffffffffffffffffffffffffffffffff160217905550826018600083815260200190815260200160002090805190602001906111669291906182cc565b50803373ffffffffffffffffffffffffffffffffffffffff167f8d500fcad86fc64a281b94ef64d6d66acbfc6862aa4ff2ee5fbbfb40736e803e856040516111ae9190619308565b60405180910390a350505050565b60065481565b6000600960009054906101000a900460ff161561128057600960019054906101000a900473ffffffffffffffffffffffffffffffffffffffff1673ffffffffffffffffffffffffffffffffffffffff16632ab24e496040518163ffffffff1660e01b815260040160206040518083038186803b15801561124157600080fd5b505afa158015611255573d6000803e3d6000fd5b505050506040513d601f19601f8201168201806040525081019061127991906189ae565b90506112a6565b601160009054906101000a900473ffffffffffffffffffffffffffffffffffffffff1690505b90565b60075481565b601b6020528060005260406000206000915054906101000a900460ff1681565b60045481565b6000600960009054906101000a900460ff161561139357600960019054906101000a900473ffffffffffffffffffffffffffffffffffffffff1673ffffffffffffffffffffffffffffffffffffffff16632f7fa1806040518163ffffffff1660e01b815260040160206040518083038186803b15801561135457600080fd5b505afa158015611368573d6000803e3d6000fd5b505050506040513d601f19601f8201168201806040525081019061138c919061888f565b90506113b9565b600c60009054906101000a900473ffffffffffffffffffffffffffffffffffffffff1690505b90565b60166020528060005260406000206000915090505481565b6000600960009054906101000a900460ff161561149257600960019054906101000a900473ffffffffffffffffffffffffffffffffffffffff1673ffffffffffffffffffffffffffffffffffffffff166332fe7b266040518163ffffffff1660e01b815260040160206040518083038186803b15801561145357600080fd5b505afa158015611467573d6000803e3d6000fd5b505050506040513d601f19601f8201168201806040525081019061148b919061895c565b90506114b8565b600a60009054906101000a900473ffffffffffffffffffffffffffffffffffffffff1690505b90565b600160009054906101000a900473ffffffffffffffffffffffffffffffffffffffff1673ffffffffffffffffffffffffffffffffffffffff163373ffffffffffffffffffffffffffffffffffffffff161461151557600080fd5b826002819055508160048190555080600381905550505050565b6000600960009054906101000a900460ff16156115ed57600960019054906101000a900473ffffffffffffffffffffffffffffffffffffffff1673ffffffffffffffffffffffffffffffffffffffff166338da7dd66040518163ffffffff1660e01b815260040160206040518083038186803b1580156115ae57600080fd5b505afa1580156115c2573d6000803e3d6000fd5b505050506040513d601f19601f820116820180604052508101906115e691906188b8565b9050611613565b600d60009054906101000a900473ffffffffffffffffffffffffffffffffffffffff1690505b90565b6000600160149054906101000a900460ff1615611668576040517f08c379a000000000000000000000000000000000000000000000000000000000815260040161165f9061934a565b60405180910390fd5b600080600d60009054906101000a900473ffffffffffffffffffffffffffffffffffffffff1673ffffffffffffffffffffffffffffffffffffffff1663a477b804856040518263ffffffff1660e01b81526004016116c6919061911f565b604080518083038186803b1580156116dd57600080fd5b505afa1580156116f1573d6000803e3d6000fd5b505050506040513d601f19601f820116820180604052508101906117159190618b23565b91509150600080600c60009054906101000a900473ffffffffffffffffffffffffffffffffffffffff1673ffffffffffffffffffffffffffffffffffffffff1663a477b804876040518263ffffffff1660e01b8152600401611777919061911f565b604080518083038186803b15801561178e57600080fd5b505afa1580156117a2573d6000803e3d6000fd5b505050506040513d601f19601f820116820180604052508101906117c69190618b23565b91509150600082856117d8919061978a565b9050600082856117e8919061978a565b905060006004547f000000000000000000000000000000000000000000000000000000000000000073ffffffffffffffffffffffffffffffffffffffff166370a08231601060009054906101000a900473ffffffffffffffffffffffffffffffffffffffff166040518263ffffffff1660e01b815260040161186a919061911f565b60206040518083038186803b15801561188257600080fd5b505afa158015611896573d6000803e3d6000fd5b505050506040513d601f19601f820116820180604052508101906118ba9190618a6a565b6118c491906197e0565b90506000612710600554836118d99190619811565b6118e391906197e0565b9050600b60009054906101000a900473ffffffffffffffffffffffffffffffffffffffff1673ffffffffffffffffffffffffffffffffffffffff16631ba326c48585846040518463ffffffff1660e01b81526004016119449392919061968e565b60206040518083038186803b15801561195c57600080fd5b505afa158015611970573d6000803e3d6000fd5b505050506040513d601f19601f820116820180604052508101906119949190618a6a565b98505050505050505050919050565b6119ab618352565b818160000181815250506018600083815260200190815260200160002080546119d390619b19565b80601f01602080910402602001604051908101604052809291908181526020018280546119ff90619b19565b8015611a4c5780601f10611a2157610100808354040283529160200191611a4c565b820191906000526020600020905b815481529060010190602001808311611a2f57829003601f168201915b505050505081602001819052506019600083815260200190815260200160002054816060018181525050601a600083815260200190815260200160002060009054906101000a900460ff16816080019015159081151581525050601b600083815260200190815260200160002060009054906101000a900460ff168160a001901515908115158152505060166000838152602001908152602001600020548160c00181815250506017600083815260200190815260200160002060009054906101000a900473ffffffffffffffffffffffffffffffffffffffff168160e0019073ffffffffffffffffffffffffffffffffffffffff16908173ffffffffffffffffffffffffffffffffffffffff1681525050601c600083815260200190815260200160002060009054906101000a900460ff1681610100019015159081151581525050601d60008381526020019081526020016000205481610120018181525050919050565b6000601e600084815260200190815260200160002060008373ffffffffffffffffffffffffffffffffffffffff1673ffffffffffffffffffffffffffffffffffffffff16815260200190815260200160002054905092915050565b60138181548110611c1d57600080fd5b906000526020600020016000915054906101000a900473ffffffffffffffffffffffffffffffffffffffff1681565b600160009054906101000a900473ffffffffffffffffffffffffffffffffffffffff1673ffffffffffffffffffffffffffffffffffffffff163373ffffffffffffffffffffffffffffffffffffffff1614611ca657600080fd5b83600a60006101000a81548173ffffffffffffffffffffffffffffffffffffffff021916908373ffffffffffffffffffffffffffffffffffffffff16021790555082600b60006101000a81548173ffffffffffffffffffffffffffffffffffffffff021916908373ffffffffffffffffffffffffffffffffffffffff16021790555081601060006101000a81548173ffffffffffffffffffffffffffffffffffffffff021916908373ffffffffffffffffffffffffffffffffffffffff16021790555080601260006101000a81548173ffffffffffffffffffffffffffffffffffffffff021916908373ffffffffffffffffffffffffffffffffffffffff16021790555050505050565b600160009054906101000a900473ffffffffffffffffffffffffffffffffffffffff1673ffffffffffffffffffffffffffffffffffffffff163373ffffffffffffffffffffffffffffffffffffffff1614611e0a57600080fd5b81600e60006101000a81548173ffffffffffffffffffffffffffffffffffffffff021916908373ffffffffffffffffffffffffffffffffffffffff16021790555080600f60006101000a81548173ffffffffffffffffffffffffffffffffffffffff021916908373ffffffffffffffffffffffffffffffffffffffff1602179055505050565b6000600160149054906101000a900460ff1615611ee2576040517f08c379a0000000000000000000000000000000000000000000000000000000008152600401611ed99061934a565b60405180910390fd5b6000601560008473ffffffffffffffffffffffffffffffffffffffff1673ffffffffffffffffffffffffffffffffffffffff1681526020019081526020016000205442611f2f919061986b565b90506000611f3c84611616565b905060007f000000000000000000000000000000000000000000000000000000000000000073ffffffffffffffffffffffffffffffffffffffff16636b92a3b66040518163ffffffff1660e01b815260040160206040518083038186803b158015611fa657600080fd5b505afa158015611fba573d6000803e3d6000fd5b505050506040513d601f19601f82011682018060405250810190611fde9190618a6a565b8383611fea9190619811565b611ff491906197e0565b9050809350505050919050565b600160149054906101000a900460ff1615612051576040517f08c379a00000000000000000000000000000000000000000000000000000000081526004016120489061934a565b60405180910390fd5b601060009054906101000a900473ffffffffffffffffffffffffffffffffffffffff1673ffffffffffffffffffffffffffffffffffffffff16632267716c6040518163ffffffff1660e01b8152600401602060405180830381600087803b1580156120bb57600080fd5b505af11580156120cf573d6000803e3d6000fd5b505050506040513d601f19601f820116820180604052508101906120f3919061883d565b612132576040517f08c379a0000000000000000000000000000000000000000000000000000000008152600401612129906193ea565b60405180910390fd5b600061213d33611e90565b905042601560003373ffffffffffffffffffffffffffffffffffffffff1673ffffffffffffffffffffffffffffffffffffffff1681526020019081526020016000208190555060007f000000000000000000000000000000000000000000000000000000000000000073ffffffffffffffffffffffffffffffffffffffff166370a08231601060009054906101000a900473ffffffffffffffffffffffffffffffffffffffff166040518263ffffffff1660e01b8152600401612200919061911f565b60206040518083038186803b15801561221857600080fd5b505afa15801561222c573d6000803e3d6000fd5b505050506040513d601f19601f820116820180604052508101906122509190618a6a565b90506000612710600554836122659190619811565b61226f91906197e0565b90508083111561227d578092505b601060009054906101000a900473ffffffffffffffffffffffffffffffffffffffff1673ffffffffffffffffffffffffffffffffffffffff16637d458baa84336040518363ffffffff1660e01b81526004016122da9291906195c7565b600060405180830381600087803b1580156122f457600080fd5b505af1158015612308573d6000803e3d6000fd5b50505050505050565b600160149054906101000a900460ff1615612361576040517f08c379a00000000000000000000000000000000000000000000000000000000081526004016123589061934a565b60405180910390fd5b600060075490506000601c600083815260200190815260200160002060009054906101000a900460ff1680156123f15750601f600083815260200190815260200160002060003373ffffffffffffffffffffffffffffffffffffffff1673ffffffffffffffffffffffffffffffffffffffff16815260200190815260200160002060009054906101000a900460ff165b905080156124045761240282616459565b505b60011515600e60009054906101000a900473ffffffffffffffffffffffffffffffffffffffff1673ffffffffffffffffffffffffffffffffffffffff16638dcb4c93866040518263ffffffff1660e01b8152600401612463919061911f565b60206040518083038186803b15801561247b57600080fd5b505afa15801561248f573d6000803e3d6000fd5b505050506040513d601f19601f820116820180604052508101906124b3919061883d565b1515146124f5576040517f08c379a00000000000000000000000000000000000000000000000000000000081526004016124ec9061946a565b60405180910390fd5b60008311612538576040517f08c379a000000000000000000000000000000000000000000000000000000000815260040161252f906194ca565b60405180910390fd5b60011515601460003373ffffffffffffffffffffffffffffffffffffffff1673ffffffffffffffffffffffffffffffffffffffff16815260200190815260200160002060009054906101000a900460ff1615151461264c576013339080600181540180825580915050600190039060005260206000200160009091909190916101000a81548173ffffffffffffffffffffffffffffffffffffffff021916908373ffffffffffffffffffffffffffffffffffffffff1602179055506001601460003373ffffffffffffffffffffffffffffffffffffffff1673ffffffffffffffffffffffffffffffffffffffff16815260200190815260200160002060006101000a81548160ff0219169083151502179055505b8373ffffffffffffffffffffffffffffffffffffffff166323b872dd33600d60009054906101000a900473ffffffffffffffffffffffffffffffffffffffff16866040518463ffffffff1660e01b81526004016126ab93929190619163565b602060405180830381600087803b1580156126c557600080fd5b505af11580156126d9573d6000803e3d6000fd5b505050506040513d601f19601f820116820180604052508101906126fd919061883d565b61273c576040517f08c379a00000000000000000000000000000000000000000000000000000000081526004016127339061948a565b60405180910390fd5b600d60009054906101000a900473ffffffffffffffffffffffffffffffffffffffff1673ffffffffffffffffffffffffffffffffffffffff166346dafa2f8585336040518463ffffffff1660e01b815260040161279b939291906191c3565b600060405180830381600087803b1580156127b557600080fd5b505af11580156127c9573d6000803e3d6000fd5b50505050603c426127da919061978a565b601560003373ffffffffffffffffffffffffffffffffffffffff1673ffffffffffffffffffffffffffffffffffffffff168152602001908152602001600020819055508373ffffffffffffffffffffffffffffffffffffffff163373ffffffffffffffffffffffffffffffffffffffff167f5f9b5a75581a29d72b32414a5df7f1ef124b7787b38616fb8fdcad76179127c28560405161287a91906195ac565b60405180910390a3801561289357612891826167c7565b505b50505050565b601a6020528060005260406000206000915054906101000a900460ff1681565b600160149054906101000a900460ff1615612909576040517f08c379a00000000000000000000000000000000000000000000000000000000081526004016129009061934a565b60405180910390fd5b600060075490506000601c600083815260200190815260200160002060009054906101000a900460ff1680156129995750601f600083815260200190815260200160002060003373ffffffffffffffffffffffffffffffffffffffff1673ffffffffffffffffffffffffffffffffffffffff16815260200190815260200160002060009054906101000a900460ff165b905080156129ac576129aa82616459565b505b6000600d60009054906101000a900473ffffffffffffffffffffffffffffffffffffffff1673ffffffffffffffffffffffffffffffffffffffff1663aa9fd37433866040518363ffffffff1660e01b8152600401612a0b92919061913a565b60206040518083038186803b158015612a2357600080fd5b505afa158015612a37573d6000803e3d6000fd5b505050506040513d601f19601f82011682018060405250810190612a5b9190618a6a565b9050600d60009054906101000a900473ffffffffffffffffffffffffffffffffffffffff1673ffffffffffffffffffffffffffffffffffffffff1663f940e38585336040518363ffffffff1660e01b8152600401612aba92919061913a565b602060405180830381600087803b158015612ad457600080fd5b505af1158015612ae8573d6000803e3d6000fd5b505050506040513d601f19601f82011682018060405250810190612b0c919061883d565b612b4b576040517f08c379a0000000000000000000000000000000000000000000000000000000008152600401612b429061948a565b60405180910390fd5b8373ffffffffffffffffffffffffffffffffffffffff163373ffffffffffffffffffffffffffffffffffffffff167f12dcb5d4117cb4675d56c72f030db8f0f4dd34f875fe484eea4cf0790b5deaa383604051612ba891906195ac565b60405180910390a3508015612bc257612bc0826167c7565b505b505050565b600080600e60009054906101000a900473ffffffffffffffffffffffffffffffffffffffff1673ffffffffffffffffffffffffffffffffffffffff1663abc764da6040518163ffffffff1660e01b815260040160006040518083038186803b158015612c3257600080fd5b505afa158015612c46573d6000803e3d6000fd5b505050506040513d6000823e3d601f19601f82011682018060405250810190612c6f91906187fc565b905060008060005b83518110156130fc576000600c60009054906101000a900473ffffffffffffffffffffffffffffffffffffffff1673ffffffffffffffffffffffffffffffffffffffff166389bbd670868481518110612cf9577f4e487b7100000000000000000000000000000000000000000000000000000000600052603260045260246000fd5b60200260200101516040518263ffffffff1660e01b8152600401612d1d919061911f565b60206040518083038186803b158015612d3557600080fd5b505afa158015612d49573d6000803e3d6000fd5b505050506040513d601f19601f82011682018060405250810190612d6d9190618a6a565b600d60009054906101000a900473ffffffffffffffffffffffffffffffffffffffff1673ffffffffffffffffffffffffffffffffffffffff166389bbd670878581518110612de4577f4e487b7100000000000000000000000000000000000000000000000000000000600052603260045260246000fd5b60200260200101516040518263ffffffff1660e01b8152600401612e08919061911f565b60206040518083038186803b158015612e2057600080fd5b505afa158015612e34573d6000803e3d6000fd5b505050506040513d601f19601f82011682018060405250810190612e589190618a6a565b612e62919061978a565b9050600b60009054906101000a900473ffffffffffffffffffffffffffffffffffffffff1673ffffffffffffffffffffffffffffffffffffffff1663ca2e5b65868481518110612edb577f4e487b7100000000000000000000000000000000000000000000000000000000600052603260045260246000fd5b6020026020010151601e60008b81526020019081526020016000206000898781518110612f31577f4e487b7100000000000000000000000000000000000000000000000000000000600052603260045260246000fd5b602002602001015173ffffffffffffffffffffffffffffffffffffffff1673ffffffffffffffffffffffffffffffffffffffff168152602001908152602001600020546040518363ffffffff1660e01b8152600401612f9192919061919a565b60206040518083038186803b158015612fa957600080fd5b505afa158015612fbd573d6000803e3d6000fd5b505050506040513d601f19601f82011682018060405250810190612fe19190618a6a565b84612fec919061978a565b9350600b60009054906101000a900473ffffffffffffffffffffffffffffffffffffffff1673ffffffffffffffffffffffffffffffffffffffff1663ca2e5b65868481518110613065577f4e487b7100000000000000000000000000000000000000000000000000000000600052603260045260246000fd5b6020026020010151836040518363ffffffff1660e01b815260040161308b92919061919a565b60206040518083038186803b1580156130a357600080fd5b505afa1580156130b7573d6000803e3d6000fd5b505050506040513d601f19601f820116820180604052508101906130db9190618a6a565b836130e6919061978a565b92505080806130f490619b7c565b915050612c77565b506000612710600354836131109190619811565b61311a91906197e0565b9050808311945050505050919050565b60156020528060005260406000206000915090505481565b600160149054906101000a900460ff1615613192576040517f08c379a00000000000000000000000000000000000000000000000000000000081526004016131899061934a565b60405180910390fd5b6000600754905060011515601c600083815260200190815260200160002060009054906101000a900460ff16151514613200576040517f08c379a00000000000000000000000000000000000000000000000000000000081526004016131f79061952a565b60405180910390fd5b600060186000838152602001908152602001600020805461322090619b19565b80601f016020809104026020016040519081016040528092919081815260200182805461324c90619b19565b80156132995780601f1061326e57610100808354040283529160200191613299565b820191906000526020600020905b81548152906001019060200180831161327c57829003601f168201915b505050505090506132a98261585e565b80156132d9575060001515601a600084815260200190815260200160002060009054906101000a900460ff161515145b156135365761331d816040518060400160405280600381526020017f44414f0000000000000000000000000000000000000000000000000000000000815250616027565b806133635750613362816040518060400160405280600581526020017f5554494c53000000000000000000000000000000000000000000000000000000815250616027565b5b806133a957506133a8816040518060400160405280600781526020017f5245534552564500000000000000000000000000000000000000000000000000815250616027565b5b806133ef57506133ee816040518060400160405280600a81526020017f4745545f53504152544100000000000000000000000000000000000000000000815250616027565b5b806134355750613434816040518060400160405280600681526020017f524f555445520000000000000000000000000000000000000000000000000000815250616027565b5b8061347b575061347a816040518060400160405280600981526020017f4c4953545f424f4e440000000000000000000000000000000000000000000000815250616027565b5b806134c157506134c0816040518060400160405280600581526020017f4752414e54000000000000000000000000000000000000000000000000000000815250616027565b5b806135075750613506816040518060400160405280601081526020017f4144445f435552415445445f504f4f4c00000000000000000000000000000000815250616027565b5b1561352a5761351582612bc7565b15613525576135248282616b35565b5b613535565b6135348282616b35565b5b5b5050565b600160149054906101000a900460ff161561358a576040517f08c379a00000000000000000000000000000000000000000000000000000000081526004016135819061934a565b60405180910390fd5b6000600754905060011515601c600083815260200190815260200160002060009054906101000a900460ff161515146135f8576040517f08c379a00000000000000000000000000000000000000000000000000000000081526004016135ef9061952a565b60405180910390fd5b60011515601f600083815260200190815260200160002060003373ffffffffffffffffffffffffffffffffffffffff1673ffffffffffffffffffffffffffffffffffffffff16815260200190815260200160002060009054906101000a900460ff1615151461369c576040517f08c379a00000000000000000000000000000000000000000000000000000000081526004016136939061944a565b60405180910390fd5b60006018600083815260200190815260200160002080546136bc90619b19565b80601f01602080910402602001604051908101604052809291908181526020018280546136e890619b19565b80156137355780601f1061370a57610100808354040283529160200191613735565b820191906000526020600020905b81548152906001019060200180831161371857829003601f168201915b50505050509050600061374783616459565b90506000601f600085815260200190815260200160002060003373ffffffffffffffffffffffffffffffffffffffff1673ffffffffffffffffffffffffffffffffffffffff16815260200190815260200160002060006101000a81548160ff021916908315150217905550801561380857823373ffffffffffffffffffffffffffffffffffffffff167fc47bced501ad257962522a3fba16532ae8ccbbe97f400da0bd120fc1b7443e19846040516137ff9190619308565b60405180910390a35b505050565b600160009054906101000a900473ffffffffffffffffffffffffffffffffffffffff1673ffffffffffffffffffffffffffffffffffffffff163373ffffffffffffffffffffffffffffffffffffffff161461386757600080fd5b82600d60006101000a81548173ffffffffffffffffffffffffffffffffffffffff021916908373ffffffffffffffffffffffffffffffffffffffff16021790555081600c60006101000a81548173ffffffffffffffffffffffffffffffffffffffff021916908373ffffffffffffffffffffffffffffffffffffffff16021790555080601160006101000a81548173ffffffffffffffffffffffffffffffffffffffff021916908373ffffffffffffffffffffffffffffffffffffffff160217905550505050565b600160149054906101000a900460ff161561397f576040517f08c379a00000000000000000000000000000000000000000000000000000000081526004016139769061934a565b60405180910390fd5b600060075490506000601c600083815260200190815260200160002060009054906101000a900460ff168015613a0f5750601f600083815260200190815260200160002060003373ffffffffffffffffffffffffffffffffffffffff1673ffffffffffffffffffffffffffffffffffffffff16815260200190815260200160002060009054906101000a900460ff165b90508015613a2257613a2082616459565b505b600c60009054906101000a900473ffffffffffffffffffffffffffffffffffffffff1673ffffffffffffffffffffffffffffffffffffffff166321c0b34284336040518363ffffffff1660e01b8152600401613a7f92919061913a565b600060405180830381600087803b158015613a9957600080fd5b505af1158015613aad573d6000803e3d6000fd5b505050508015613ac257613ac0826167c7565b505b505050565b60055481565b6000600960009054906101000a900460ff1615613b8b57600960019054906101000a900473ffffffffffffffffffffffffffffffffffffffff1673ffffffffffffffffffffffffffffffffffffffff16637b0e5c456040518163ffffffff1660e01b815260040160206040518083038186803b158015613b4c57600080fd5b505afa158015613b60573d6000803e3d6000fd5b505050506040513d601f19601f82011682018060405250810190613b8491906189d7565b9050613bb1565b600b60009054906101000a900473ffffffffffffffffffffffffffffffffffffffff1690505b90565b600160149054906101000a900460ff1615613c04576040517f08c379a0000000000000000000000000000000000000000000000000000000008152600401613bfb9061934a565b60405180910390fd5b60011515601060009054906101000a900473ffffffffffffffffffffffffffffffffffffffff1673ffffffffffffffffffffffffffffffffffffffff1663194e22ce6040518163ffffffff1660e01b8152600401602060405180830381600087803b158015613c7257600080fd5b505af1158015613c86573d6000803e3d6000fd5b505050506040513d601f19601f82011682018060405250810190613caa919061883d565b15151415613ced576040517f08c379a0000000000000000000000000000000000000000000000000000000008152600401613ce49061950a565b60405180910390fd5b6000600754905060011515601c600083815260200190815260200160002060009054906101000a900460ff16151514613d5b576040517f08c379a0000000000000000000000000000000000000000000000000000000008152600401613d529061952a565b60405180910390fd5b60001515601f600083815260200190815260200160002060003373ffffffffffffffffffffffffffffffffffffffff1673ffffffffffffffffffffffffffffffffffffffff16815260200190815260200160002060009054906101000a900460ff16151514613dff576040517f08c379a0000000000000000000000000000000000000000000000000000000008152600401613df6906193aa565b60405180910390fd5b6000601860008381526020019081526020016000208054613e1f90619b19565b80601f0160208091040260200160405190810160405280929190818152602001828054613e4b90619b19565b8015613e985780601f10613e6d57610100808354040283529160200191613e98565b820191906000526020600020905b815481529060010190602001808311613e7b57829003601f168201915b505050505090506000613eaa836167c7565b90506001601f600085815260200190815260200160002060003373ffffffffffffffffffffffffffffffffffffffff1673ffffffffffffffffffffffffffffffffffffffff16815260200190815260200160002060006101000a81548160ff0219169083151502179055508015613f6b57823373ffffffffffffffffffffffffffffffffffffffff167ff3bb4a59f9a41b07650fa6eb0aaaf8f6e78fe9a712e0c0989ee060358403a89c84604051613f629190619308565b60405180910390a35b505050565b60085481565b601c6020528060005260406000206000915054906101000a900460ff1681565b600160149054906101000a900460ff1615613fe6576040517f08c379a0000000000000000000000000000000000000000000000000000000008152600401613fdd9061934a565b60405180910390fd5b60006007549050601c600082815260200190815260200160002060009054906101000a900460ff1661404d576040517f08c379a0000000000000000000000000000000000000000000000000000000008152600401614044906193ca565b60405180910390fd5b600854601d60008381526020019081526020016000205461406e919061978a565b42116140af576040517f08c379a00000000000000000000000000000000000000000000000000000000081526004016140a69061956a565b60405180910390fd5b6000600e60009054906101000a900473ffffffffffffffffffffffffffffffffffffffff1673ffffffffffffffffffffffffffffffffffffffff1663abc764da6040518163ffffffff1660e01b815260040160006040518083038186803b15801561411957600080fd5b505afa15801561412d573d6000803e3d6000fd5b505050506040513d6000823e3d601f19601f8201168201806040525081019061415691906187fc565b905060005b815181101561420d576000601e600085815260200190815260200160002060008484815181106141b4577f4e487b7100000000000000000000000000000000000000000000000000000000600052603260045260246000fd5b602002602001015173ffffffffffffffffffffffffffffffffffffffff1673ffffffffffffffffffffffffffffffffffffffff16815260200190815260200160002081905550808061420590619b7c565b91505061415b565b506000601a600084815260200190815260200160002060006101000a81548160ff0219169083151502179055506000601c600084815260200190815260200160002060006101000a81548160ff021916908315150217905550813373ffffffffffffffffffffffffffffffffffffffff167f6b4f340ccba70b829531b22cfbc4ad2defb3beac09f6149d584fe1031dedbf7c60405160405180910390a35050565b60035481565b600960019054906101000a900473ffffffffffffffffffffffffffffffffffffffff1681565b6000600960009054906101000a900460ff161561439857600960019054906101000a900473ffffffffffffffffffffffffffffffffffffffff1673ffffffffffffffffffffffffffffffffffffffff16639d2cc4366040518163ffffffff1660e01b815260040160206040518083038186803b15801561435957600080fd5b505afa15801561436d573d6000803e3d6000fd5b505050506040513d601f19601f820116820180604052508101906143919190618933565b90506143be565b601060009054906101000a900473ffffffffffffffffffffffffffffffffffffffff1690505b90565b60146020528060005260406000206000915054906101000a900460ff1681565b60196020528060005260406000206000915090505481565b6000821161443c576040517f08c379a0000000000000000000000000000000000000000000000000000000008152600401614433906194aa565b60405180910390fd5b60006144466160d2565b905061445061632b565b50826016600083815260200190815260200160002081905550816018600083815260200190815260200160002090805190602001906144909291906182cc565b50803373ffffffffffffffffffffffffffffffffffffffff167f8d500fcad86fc64a281b94ef64d6d66acbfc6862aa4ff2ee5fbbfb40736e803e846040516144d89190619308565b60405180910390a3505050565b600160009054906101000a900473ffffffffffffffffffffffffffffffffffffffff1673ffffffffffffffffffffffffffffffffffffffff163373ffffffffffffffffffffffffffffffffffffffff161461453f57600080fd5b836005819055508260068190555081600160156101000a81548160ff0219169083151502179055508060088190555050505050565b600160149054906101000a900460ff1681565b6000600160149054906101000a900460ff16156145d9576040517f08c379a00000000000000000000000000000000000000000000000000000000081526004016145d09061934a565b60405180910390fd5b600060075490506000601c600083815260200190815260200160002060009054906101000a900460ff1680156146695750601f600083815260200190815260200160002060003373ffffffffffffffffffffffffffffffffffffffff1673ffffffffffffffffffffffffffffffffffffffff16815260200190815260200160002060009054906101000a900460ff165b9050801561467c5761467a82616459565b505b600084116146bf576040517f08c379a00000000000000000000000000000000000000000000000000000000081526004016146b6906194ca565b60405180910390fd5b6000600e60009054906101000a900473ffffffffffffffffffffffffffffffffffffffff1673ffffffffffffffffffffffffffffffffffffffff1663bbe4f6db876040518263ffffffff1660e01b815260040161471c919061911f565b60206040518083038186803b15801561473457600080fd5b505afa158015614748573d6000803e3d6000fd5b505050506040513d601f19601f8201168201806040525081019061476c9190618655565b9050600c60009054906101000a900473ffffffffffffffffffffffffffffffffffffffff1673ffffffffffffffffffffffffffffffffffffffff1663f794062e826040518263ffffffff1660e01b81526004016147c9919061911f565b60206040518083038186803b1580156147e157600080fd5b505afa1580156147f5573d6000803e3d6000fd5b505050506040513d601f19601f82011682018060405250810190614819919061883d565b614858576040517f08c379a000000000000000000000000000000000000000000000000000000000815260040161484f9061932a565b60405180910390fd5b60011515601460003373ffffffffffffffffffffffffffffffffffffffff1673ffffffffffffffffffffffffffffffffffffffff16815260200190815260200160002060009054906101000a900460ff1615151461496c576013339080600181540180825580915050600190039060005260206000200160009091909190916101000a81548173ffffffffffffffffffffffffffffffffffffffff021916908373ffffffffffffffffffffffffffffffffffffffff1602179055506001601460003373ffffffffffffffffffffffffffffffffffffffff1673ffffffffffffffffffffffffffffffffffffffff16815260200190815260200160002060006101000a81548160ff0219169083151502179055505b60006149788787616bdb565b9050603c42614987919061978a565b601560003373ffffffffffffffffffffffffffffffffffffffff1673ffffffffffffffffffffffffffffffffffffffff16815260200190815260200160002081905550600c60009054906101000a900473ffffffffffffffffffffffffffffffffffffffff1673ffffffffffffffffffffffffffffffffffffffff1663bf58d0ef8333846040518463ffffffff1660e01b8152600401614a2993929190619163565b600060405180830381600087803b158015614a4357600080fd5b505af1158015614a57573d6000803e3d6000fd5b505050503373ffffffffffffffffffffffffffffffffffffffff167fe4dd259ab128527fe8b5fdae0b44bda8db95a4de10b999d63dce142b1eb88d548783604051614aa3929190619620565b60405180910390a26001945050508015614ac257614ac0826167c7565b505b505092915050565b600073ffffffffffffffffffffffffffffffffffffffff168273ffffffffffffffffffffffffffffffffffffffff161415614b3a576040517f08c379a0000000000000000000000000000000000000000000000000000000008152600401614b31906194ea565b60405180910390fd5b60007f000000000000000000000000000000000000000000000000000000000000000073ffffffffffffffffffffffffffffffffffffffff166370a08231601060009054906101000a900473ffffffffffffffffffffffffffffffffffffffff166040518263ffffffff1660e01b8152600401614bb7919061911f565b60206040518083038186803b158015614bcf57600080fd5b505afa158015614be3573d6000803e3d6000fd5b505050506040513d601f19601f82011682018060405250810190614c079190618a6a565b9050600061271060055483614c1c9190619811565b614c2691906197e0565b9050600083118015614c3757508083105b614c76576040517f08c379a0000000000000000000000000000000000000000000000000000000008152600401614c6d9061938a565b60405180910390fd5b6000614c806160d2565b9050614c8a61632b565b5060006040518060400160405280600581526020017f4752414e54000000000000000000000000000000000000000000000000000000815250905080601860008481526020019081526020016000209080519060200190614cec9291906182cc565b50856017600084815260200190815260200160002060006101000a81548173ffffffffffffffffffffffffffffffffffffffff021916908373ffffffffffffffffffffffffffffffffffffffff160217905550846016600084815260200190815260200160002081905550813373ffffffffffffffffffffffffffffffffffffffff167f8d500fcad86fc64a281b94ef64d6d66acbfc6862aa4ff2ee5fbbfb40736e803e83604051614d9e9190619308565b60405180910390a3505050505050565b600160149054906101000a900460ff1615614dfe576040517f08c379a0000000000000000000000000000000000000000000000000000000008152600401614df59061934a565b60405180910390fd5b600160159054906101000a900460ff16614e4d576040517f08c379a0000000000000000000000000000000000000000000000000000000008152600401614e449061936a565b60405180910390fd5b60011515601060009054906101000a900473ffffffffffffffffffffffffffffffffffffffff1673ffffffffffffffffffffffffffffffffffffffff1663194e22ce6040518163ffffffff1660e01b8152600401602060405180830381600087803b158015614ebb57600080fd5b505af1158015614ecf573d6000803e3d6000fd5b505050506040513d601f19601f82011682018060405250810190614ef3919061883d565b15151415614f36576040517f08c379a0000000000000000000000000000000000000000000000000000000008152600401614f2d9061950a565b60405180910390fd5b60006007549050600254601960008381526020019081526020016000205442614f5f919061986b565b11614f9f576040517f08c379a0000000000000000000000000000000000000000000000000000000008152600401614f969061940a565b60405180910390fd5b60011515601a600083815260200190815260200160002060009054906101000a900460ff16151514615006576040517f08c379a0000000000000000000000000000000000000000000000000000000008152600401614ffd9061942a565b60405180910390fd5b60011515601c600083815260200190815260200160002060009054906101000a900460ff1615151461503757600080fd5b60001515601b600083815260200190815260200160002060009054906101000a900460ff1615151461506857600080fd5b6150718161585e565b6150a6576000601a600083815260200190815260200160002060006101000a81548160ff0219169083151502179055506155d4565b60006018600083815260200190815260200160002080546150c690619b19565b80601f01602080910402602001604051908101604052809291908181526020018280546150f290619b19565b801561513f5780601f106151145761010080835404028352916020019161513f565b820191906000526020600020905b81548152906001019060200180831161512257829003601f168201915b50505050509050615185816040518060400160405280600381526020017f44414f0000000000000000000000000000000000000000000000000000000000815250616027565b15615198576151938261755a565b6155c9565b6151d7816040518060400160405280600681526020017f524f555445520000000000000000000000000000000000000000000000000000815250616027565b156151ea576151e58261767d565b6155c8565b615229816040518060400160405280600581526020017f5554494c53000000000000000000000000000000000000000000000000000000815250616027565b1561523c57615237826176fa565b6155c7565b61527b816040518060400160405280600781526020017f5245534552564500000000000000000000000000000000000000000000000000815250616027565b1561528e5761528982617777565b6155c6565b6152cd816040518060400160405280600e81526020017f464c49505f454d495353494f4e53000000000000000000000000000000000000815250616027565b156152df576152da617953565b6155c5565b61531e816040518060400160405280600881526020017f434f4f4c5f4f4646000000000000000000000000000000000000000000000000815250616027565b156153315761532c826179d5565b6155c4565b615370816040518060400160405280600c81526020017f455241535f544f5f4541524e0000000000000000000000000000000000000000815250616027565b156153835761537e826179f8565b6155c3565b6153c2816040518060400160405280600581526020017f4752414e54000000000000000000000000000000000000000000000000000000815250616027565b156153d5576153d082617a1b565b6155c2565b615414816040518060400160405280600a81526020017f4745545f53504152544100000000000000000000000000000000000000000000815250616027565b1561542657615421617aff565b6155c1565b615465816040518060400160405280600981526020017f4c4953545f424f4e440000000000000000000000000000000000000000000000815250616027565b156154785761547382617b9f565b6155c0565b6154b7816040518060400160405280600b81526020017f44454c4953545f424f4e44000000000000000000000000000000000000000000815250616027565b156154ca576154c582617c68565b6155bf565b615509816040518060400160405280601081526020017f4144445f435552415445445f504f4f4c00000000000000000000000000000000815250616027565b1561551c5761551782617d31565b6155be565b61555b816040518060400160405280601381526020017f52454d4f56455f435552415445445f504f4f4c00000000000000000000000000815250616027565b1561556e5761556982617e03565b6155bd565b6155ad816040518060400160405280600781526020017f5245414c49534500000000000000000000000000000000000000000000000000815250616027565b156155bc576155bb82617f59565b5b5b5b5b5b5b5b5b5b5b5b5b5b5b6155d282617ff5565b505b50565b60025481565b60176020528060005260406000206000915054906101000a900473ffffffffffffffffffffffffffffffffffffffff1681565b6000601f600084815260200190815260200160002060008373ffffffffffffffffffffffffffffffffffffffff1673ffffffffffffffffffffffffffffffffffffffff16815260200190815260200160002060009054906101000a900460ff16905092915050565b601d6020528060005260406000206000915090505481565b6000600960009054906101000a900460ff161561574e57600960019054906101000a900473ffffffffffffffffffffffffffffffffffffffff1673ffffffffffffffffffffffffffffffffffffffff1663b93ec54b6040518163ffffffff1660e01b815260040160206040518083038186803b15801561570f57600080fd5b505afa158015615723573d6000803e3d6000fd5b505050506040513d601f19601f820116820180604052508101906157479190618985565b9050615774565b600f60009054906101000a900473ffffffffffffffffffffffffffffffffffffffff1690505b90565b6000600960009054906101000a900460ff161561583557600960019054906101000a900473ffffffffffffffffffffffffffffffffffffffff1673ffffffffffffffffffffffffffffffffffffffff1663b99b0a0c6040518163ffffffff1660e01b815260040160206040518083038186803b1580156157f657600080fd5b505afa15801561580a573d6000803e3d6000fd5b505050506040513d601f19601f8201168201806040525081019061582e919061890a565b905061585b565b600e60009054906101000a900473ffffffffffffffffffffffffffffffffffffffff1690505b90565b600080600e60009054906101000a900473ffffffffffffffffffffffffffffffffffffffff1673ffffffffffffffffffffffffffffffffffffffff1663abc764da6040518163ffffffff1660e01b815260040160006040518083038186803b1580156158c957600080fd5b505afa1580156158dd573d6000803e3d6000fd5b505050506040513d6000823e3d601f19601f8201168201806040525081019061590691906187fc565b905060008060005b8351811015615d93576000600c60009054906101000a900473ffffffffffffffffffffffffffffffffffffffff1673ffffffffffffffffffffffffffffffffffffffff166389bbd670868481518110615990577f4e487b7100000000000000000000000000000000000000000000000000000000600052603260045260246000fd5b60200260200101516040518263ffffffff1660e01b81526004016159b4919061911f565b60206040518083038186803b1580156159cc57600080fd5b505afa1580156159e0573d6000803e3d6000fd5b505050506040513d601f19601f82011682018060405250810190615a049190618a6a565b600d60009054906101000a900473ffffffffffffffffffffffffffffffffffffffff1673ffffffffffffffffffffffffffffffffffffffff166389bbd670878581518110615a7b577f4e487b7100000000000000000000000000000000000000000000000000000000600052603260045260246000fd5b60200260200101516040518263ffffffff1660e01b8152600401615a9f919061911f565b60206040518083038186803b158015615ab757600080fd5b505afa158015615acb573d6000803e3d6000fd5b505050506040513d601f19601f82011682018060405250810190615aef9190618a6a565b615af9919061978a565b9050600b60009054906101000a900473ffffffffffffffffffffffffffffffffffffffff1673ffffffffffffffffffffffffffffffffffffffff1663ca2e5b65868481518110615b72577f4e487b7100000000000000000000000000000000000000000000000000000000600052603260045260246000fd5b6020026020010151601e60008b81526020019081526020016000206000898781518110615bc8577f4e487b7100000000000000000000000000000000000000000000000000000000600052603260045260246000fd5b602002602001015173ffffffffffffffffffffffffffffffffffffffff1673ffffffffffffffffffffffffffffffffffffffff168152602001908152602001600020546040518363ffffffff1660e01b8152600401615c2892919061919a565b60206040518083038186803b158015615c4057600080fd5b505afa158015615c54573d6000803e3d6000fd5b505050506040513d601f19601f82011682018060405250810190615c789190618a6a565b84615c83919061978a565b9350600b60009054906101000a900473ffffffffffffffffffffffffffffffffffffffff1673ffffffffffffffffffffffffffffffffffffffff1663ca2e5b65868481518110615cfc577f4e487b7100000000000000000000000000000000000000000000000000000000600052603260045260246000fd5b6020026020010151836040518363ffffffff1660e01b8152600401615d2292919061919a565b60206040518083038186803b158015615d3a57600080fd5b505afa158015615d4e573d6000803e3d6000fd5b505050506040513d601f19601f82011682018060405250810190615d729190618a6a565b83615d7d919061978a565b9250508080615d8b90619b7c565b91505061590e565b506000600282615da391906197e0565b9050808311945050505050919050565b60186020528060005260406000206000915090508054615dd290619b19565b80601f0160208091040260200160405190810160405280929190818152602001828054615dfe90619b19565b8015615e4b5780601f10615e2057610100808354040283529160200191615e4b565b820191906000526020600020905b815481529060010190602001808311615e2e57829003601f168201915b505050505081565b600160009054906101000a900473ffffffffffffffffffffffffffffffffffffffff1681565b6000615e836160d2565b9050615e8d61632b565b5081601860008381526020019081526020016000209080519060200190615eb59291906182cc565b50803373ffffffffffffffffffffffffffffffffffffffff167f8d500fcad86fc64a281b94ef64d6d66acbfc6862aa4ff2ee5fbbfb40736e803e84604051615efd9190619308565b60405180910390a35050565b600160159054906101000a900460ff1681565b7f000000000000000000000000000000000000000000000000000000000000000081565b6000600960009054906101000a900460ff1615615ffe57600960019054906101000a900473ffffffffffffffffffffffffffffffffffffffff1673ffffffffffffffffffffffffffffffffffffffff1663f301e7816040518163ffffffff1660e01b815260040160206040518083038186803b158015615fbf57600080fd5b505afa158015615fd3573d6000803e3d6000fd5b505050506040513d601f19601f82011682018060405250810190615ff791906188e1565b9050616024565b601260009054906101000a900473ffffffffffffffffffffffffffffffffffffffff1690505b90565b60006002826040516160399190619108565b602060405180830381855afa158015616056573d6000803e3d6000fd5b5050506040513d601f19601f820116820180604052508101906160799190618866565b6002846040516160899190619108565b602060405180830381855afa1580156160a6573d6000803e3d6000fd5b5050506040513d601f19601f820116820180604052508101906160c99190618866565b14905092915050565b6000600160149054906101000a900460ff1615616124576040517f08c379a000000000000000000000000000000000000000000000000000000000815260040161611b9061934a565b60405180910390fd5b600160159054906101000a900460ff16616173576040517f08c379a000000000000000000000000000000000000000000000000000000000815260040161616a9061936a565b60405180910390fd5b60011515601060009054906101000a900473ffffffffffffffffffffffffffffffffffffffff1673ffffffffffffffffffffffffffffffffffffffff1663194e22ce6040518163ffffffff1660e01b8152600401602060405180830381600087803b1580156161e157600080fd5b505af11580156161f5573d6000803e3d6000fd5b505050506040513d601f19601f82011682018060405250810190616219919061883d565b1515141561625c576040517f08c379a00000000000000000000000000000000000000000000000000000000081526004016162539061950a565b60405180910390fd5b6000600754905060001515601c600083815260200190815260200160002060009054906101000a900460ff161515146162ca576040517f08c379a00000000000000000000000000000000000000000000000000000000081526004016162c19061952a565b60405180910390fd5b6001816162d7919061978a565b9050806007819055506001601c600083815260200190815260200160002060006101000a81548160ff02191690831515021790555042601d6000838152602001908152602001600020819055508091505090565b60007f000000000000000000000000000000000000000000000000000000000000000073ffffffffffffffffffffffffffffffffffffffff166323b872dd33601060009054906101000a900473ffffffffffffffffffffffffffffffffffffffff16670de0b6b3a76400006006546163a39190619811565b6040518463ffffffff1660e01b81526004016163c193929190619163565b602060405180830381600087803b1580156163db57600080fd5b505af11580156163ef573d6000803e3d6000fd5b505050506040513d601f19601f82011682018060405250810190616413919061883d565b616452576040517f08c379a00000000000000000000000000000000000000000000000000000000081526004016164499061948a565b60405180910390fd5b6001905090565b600080600e60009054906101000a900473ffffffffffffffffffffffffffffffffffffffff1673ffffffffffffffffffffffffffffffffffffffff1663abc764da6040518163ffffffff1660e01b815260040160006040518083038186803b1580156164c457600080fd5b505afa1580156164d8573d6000803e3d6000fd5b505050506040513d6000823e3d601f19601f8201168201806040525081019061650191906187fc565b905060005b81518110156167c0576000600c60009054906101000a900473ffffffffffffffffffffffffffffffffffffffff1673ffffffffffffffffffffffffffffffffffffffff1663aa9fd374848481518110616588577f4e487b7100000000000000000000000000000000000000000000000000000000600052603260045260246000fd5b6020026020010151336040518363ffffffff1660e01b81526004016165ae92919061913a565b60206040518083038186803b1580156165c657600080fd5b505afa1580156165da573d6000803e3d6000fd5b505050506040513d601f19601f820116820180604052508101906165fe9190618a6a565b600d60009054906101000a900473ffffffffffffffffffffffffffffffffffffffff1673ffffffffffffffffffffffffffffffffffffffff1663aa9fd374858581518110616675577f4e487b7100000000000000000000000000000000000000000000000000000000600052603260045260246000fd5b6020026020010151336040518363ffffffff1660e01b815260040161669b92919061913a565b60206040518083038186803b1580156166b357600080fd5b505afa1580156166c7573d6000803e3d6000fd5b505050506040513d601f19601f820116820180604052508101906166eb9190618a6a565b6166f5919061978a565b905060008111156167ac5780601e6000878152602001908152602001600020600085858151811061674f577f4e487b7100000000000000000000000000000000000000000000000000000000600052603260045260246000fd5b602002602001015173ffffffffffffffffffffffffffffffffffffffff1673ffffffffffffffffffffffffffffffffffffffff16815260200190815260200160002060008282546167a0919061986b565b92505081905550600193505b5080806167b890619b7c565b915050616506565b5050919050565b600080600e60009054906101000a900473ffffffffffffffffffffffffffffffffffffffff1673ffffffffffffffffffffffffffffffffffffffff1663abc764da6040518163ffffffff1660e01b815260040160006040518083038186803b15801561683257600080fd5b505afa158015616846573d6000803e3d6000fd5b505050506040513d6000823e3d601f19601f8201168201806040525081019061686f91906187fc565b905060005b8151811015616b2e576000600c60009054906101000a900473ffffffffffffffffffffffffffffffffffffffff1673ffffffffffffffffffffffffffffffffffffffff1663aa9fd3748484815181106168f6577f4e487b7100000000000000000000000000000000000000000000000000000000600052603260045260246000fd5b6020026020010151336040518363ffffffff1660e01b815260040161691c92919061913a565b60206040518083038186803b15801561693457600080fd5b505afa158015616948573d6000803e3d6000fd5b505050506040513d601f19601f8201168201806040525081019061696c9190618a6a565b600d60009054906101000a900473ffffffffffffffffffffffffffffffffffffffff1673ffffffffffffffffffffffffffffffffffffffff1663aa9fd3748585815181106169e3577f4e487b7100000000000000000000000000000000000000000000000000000000600052603260045260246000fd5b6020026020010151336040518363ffffffff1660e01b8152600401616a0992919061913a565b60206040518083038186803b158015616a2157600080fd5b505afa158015616a35573d6000803e3d6000fd5b505050506040513d601f19601f82011682018060405250810190616a599190618a6a565b616a63919061978a565b90506000811115616b1a5780601e60008781526020019081526020016000206000858581518110616abd577f4e487b7100000000000000000000000000000000000000000000000000000000600052603260045260246000fd5b602002602001015173ffffffffffffffffffffffffffffffffffffffff1673ffffffffffffffffffffffffffffffffffffffff1681526020019081526020016000206000828254616b0e919061978a565b92505081905550600193505b508080616b2690619b7c565b915050616874565b5050919050565b6001601a600084815260200190815260200160002060006101000a81548160ff021916908315150217905550426019600084815260200190815260200160002081905550813373ffffffffffffffffffffffffffffffffffffffff167f0f36aea5066f9f90a999260fe4ce8d7713f7f07f5ae61bf36d73cc51170a3a9e60025442616bc0919061978a565b84604051616bcf9291906195f0565b60405180910390a35050565b600060026000541415616c23576040517f08c379a0000000000000000000000000000000000000000000000000000000008152600401616c1a9061954a565b60405180910390fd5b60026000819055506a02116545850052128000007f000000000000000000000000000000000000000000000000000000000000000073ffffffffffffffffffffffffffffffffffffffff1663dd62ed3e30600a60009054906101000a900473ffffffffffffffffffffffffffffffffffffffff166040518363ffffffff1660e01b8152600401616cb492919061913a565b60206040518083038186803b158015616ccc57600080fd5b505afa158015616ce0573d6000803e3d6000fd5b505050506040513d601f19601f82011682018060405250810190616d049190618a6a565b1015616e78577f000000000000000000000000000000000000000000000000000000000000000073ffffffffffffffffffffffffffffffffffffffff1663095ea7b3600a60009054906101000a900473ffffffffffffffffffffffffffffffffffffffff167f000000000000000000000000000000000000000000000000000000000000000073ffffffffffffffffffffffffffffffffffffffff166318160ddd6040518163ffffffff1660e01b815260040160206040518083038186803b158015616dcf57600080fd5b505afa158015616de3573d6000803e3d6000fd5b505050506040513d601f19601f82011682018060405250810190616e079190618a6a565b6040518363ffffffff1660e01b8152600401616e2492919061919a565b602060405180830381600087803b158015616e3e57600080fd5b505af1158015616e52573d6000803e3d6000fd5b505050506040513d601f19601f82011682018060405250810190616e76919061883d565b505b600073ffffffffffffffffffffffffffffffffffffffff168373ffffffffffffffffffffffffffffffffffffffff16141561707e57348214616eef576040517f08c379a0000000000000000000000000000000000000000000000000000000008152600401616ee6906194ca565b60405180910390fd5b6000600b60009054906101000a900473ffffffffffffffffffffffffffffffffffffffff1673ffffffffffffffffffffffffffffffffffffffff1663b80e44b885856040518363ffffffff1660e01b8152600401616f4e92919061919a565b60206040518083038186803b158015616f6657600080fd5b505afa158015616f7a573d6000803e3d6000fd5b505050506040513d601f19601f82011682018060405250810190616f9e9190618a6a565b9050600a60009054906101000a900473ffffffffffffffffffffffffffffffffffffffff1673ffffffffffffffffffffffffffffffffffffffff166393cac68584858488600c60009054906101000a900473ffffffffffffffffffffffffffffffffffffffff166040518663ffffffff1660e01b81526004016170249493929190619649565b6020604051808303818588803b15801561703d57600080fd5b505af1158015617051573d6000803e3d6000fd5b50505050506040513d601f19601f820116820180604052508101906170769190618a6a565b91505061754c565b8273ffffffffffffffffffffffffffffffffffffffff166323b872dd3330856040518463ffffffff1660e01b81526004016170bb93929190619163565b602060405180830381600087803b1580156170d557600080fd5b505af11580156170e9573d6000803e3d6000fd5b505050506040513d601f19601f8201168201806040525081019061710d919061883d565b61714c576040517f08c379a00000000000000000000000000000000000000000000000000000000081526004016171439061948a565b60405180910390fd5b60008373ffffffffffffffffffffffffffffffffffffffff166370a08231306040518263ffffffff1660e01b8152600401617187919061911f565b60206040518083038186803b15801561719f57600080fd5b505afa1580156171b3573d6000803e3d6000fd5b505050506040513d601f19601f820116820180604052508101906171d79190618a6a565b90506000600b60009054906101000a900473ffffffffffffffffffffffffffffffffffffffff1673ffffffffffffffffffffffffffffffffffffffff1663b80e44b886846040518363ffffffff1660e01b815260040161723892919061919a565b60206040518083038186803b15801561725057600080fd5b505afa158015617264573d6000803e3d6000fd5b505050506040513d601f19601f820116820180604052508101906172889190618a6a565b9050818573ffffffffffffffffffffffffffffffffffffffff1663dd62ed3e30600a60009054906101000a900473ffffffffffffffffffffffffffffffffffffffff166040518363ffffffff1660e01b81526004016172e892919061913a565b60206040518083038186803b15801561730057600080fd5b505afa158015617314573d6000803e3d6000fd5b505050506040513d601f19601f820116820180604052508101906173389190618a6a565b10156174725760008573ffffffffffffffffffffffffffffffffffffffff166318160ddd6040518163ffffffff1660e01b815260040160206040518083038186803b15801561738657600080fd5b505afa15801561739a573d6000803e3d6000fd5b505050506040513d601f19601f820116820180604052508101906173be9190618a6a565b90508573ffffffffffffffffffffffffffffffffffffffff1663095ea7b3600a60009054906101000a900473ffffffffffffffffffffffffffffffffffffffff16836040518363ffffffff1660e01b815260040161741d92919061919a565b602060405180830381600087803b15801561743757600080fd5b505af115801561744b573d6000803e3d6000fd5b505050506040513d601f19601f8201168201806040525081019061746f919061883d565b50505b600a60009054906101000a900473ffffffffffffffffffffffffffffffffffffffff1673ffffffffffffffffffffffffffffffffffffffff166393cac685838388600c60009054906101000a900473ffffffffffffffffffffffffffffffffffffffff166040518563ffffffff1660e01b81526004016174f59493929190619649565b602060405180830381600087803b15801561750f57600080fd5b505af1158015617523573d6000803e3d6000fd5b505050506040513d601f19601f820116820180604052508101906175479190618a6a565b925050505b600160008190555092915050565b60006017600083815260200190815260200160002060009054906101000a900473ffffffffffffffffffffffffffffffffffffffff16905080600960016101000a81548173ffffffffffffffffffffffffffffffffffffffff021916908373ffffffffffffffffffffffffffffffffffffffff1602179055507f000000000000000000000000000000000000000000000000000000000000000073ffffffffffffffffffffffffffffffffffffffff16631d007f5f826040518263ffffffff1660e01b815260040161762c919061911f565b600060405180830381600087803b15801561764657600080fd5b505af115801561765a573d6000803e3d6000fd5b505050506001600960006101000a81548160ff0219169083151502179055505050565b60006017600083815260200190815260200160002060009054906101000a900473ffffffffffffffffffffffffffffffffffffffff16905080600a60006101000a81548173ffffffffffffffffffffffffffffffffffffffff021916908373ffffffffffffffffffffffffffffffffffffffff1602179055505050565b60006017600083815260200190815260200160002060009054906101000a900473ffffffffffffffffffffffffffffffffffffffff16905080600b60006101000a81548173ffffffffffffffffffffffffffffffffffffffff021916908373ffffffffffffffffffffffffffffffffffffffff1602179055505050565b60006017600083815260200190815260200160002060009054906101000a900473ffffffffffffffffffffffffffffffffffffffff16905060007f000000000000000000000000000000000000000000000000000000000000000073ffffffffffffffffffffffffffffffffffffffff166370a08231601060009054906101000a900473ffffffffffffffffffffffffffffffffffffffff166040518263ffffffff1660e01b815260040161782c919061911f565b60206040518083038186803b15801561784457600080fd5b505afa158015617858573d6000803e3d6000fd5b505050506040513d601f19601f8201168201806040525081019061787c9190618a6a565b9050601060009054906101000a900473ffffffffffffffffffffffffffffffffffffffff1673ffffffffffffffffffffffffffffffffffffffff16637d458baa82846040518363ffffffff1660e01b81526004016178db9291906195c7565b600060405180830381600087803b1580156178f557600080fd5b505af1158015617909573d6000803e3d6000fd5b5050505081601060006101000a81548173ffffffffffffffffffffffffffffffffffffffff021916908373ffffffffffffffffffffffffffffffffffffffff160217905550505050565b7f000000000000000000000000000000000000000000000000000000000000000073ffffffffffffffffffffffffffffffffffffffff1663fe1fa8fa6040518163ffffffff1660e01b8152600401600060405180830381600087803b1580156179bb57600080fd5b505af11580156179cf573d6000803e3d6000fd5b50505050565b600060166000838152602001908152602001600020549050806002819055505050565b600060166000838152602001908152602001600020549050806004819055505050565b60006016600083815260200190815260200160002054905060006017600084815260200190815260200160002060009054906101000a900473ffffffffffffffffffffffffffffffffffffffff169050601060009054906101000a900473ffffffffffffffffffffffffffffffffffffffff1673ffffffffffffffffffffffffffffffffffffffff16637d458baa83836040518363ffffffff1660e01b8152600401617ac89291906195c7565b600060405180830381600087803b158015617ae257600080fd5b505af1158015617af6573d6000803e3d6000fd5b50505050505050565b60006a021165458500521280000090507f000000000000000000000000000000000000000000000000000000000000000073ffffffffffffffffffffffffffffffffffffffff1663d01f6fba82306040518363ffffffff1660e01b8152600401617b6a9291906195c7565b600060405180830381600087803b158015617b8457600080fd5b505af1158015617b98573d6000803e3d6000fd5b5050505050565b60006017600083815260200190815260200160002060009054906101000a900473ffffffffffffffffffffffffffffffffffffffff169050600c60009054906101000a900473ffffffffffffffffffffffffffffffffffffffff1673ffffffffffffffffffffffffffffffffffffffff16639cd99aa2826040518263ffffffff1660e01b8152600401617c32919061911f565b600060405180830381600087803b158015617c4c57600080fd5b505af1158015617c60573d6000803e3d6000fd5b505050505050565b60006017600083815260200190815260200160002060009054906101000a900473ffffffffffffffffffffffffffffffffffffffff169050600c60009054906101000a900473ffffffffffffffffffffffffffffffffffffffff1673ffffffffffffffffffffffffffffffffffffffff1663db634d7c826040518263ffffffff1660e01b8152600401617cfb919061911f565b600060405180830381600087803b158015617d1557600080fd5b505af1158015617d29573d6000803e3d6000fd5b505050505050565b60006017600083815260200190815260200160002060009054906101000a900473ffffffffffffffffffffffffffffffffffffffff169050617d7282617ff5565b600e60009054906101000a900473ffffffffffffffffffffffffffffffffffffffff1673ffffffffffffffffffffffffffffffffffffffff16632b2260a8826040518263ffffffff1660e01b8152600401617dcd919061911f565b600060405180830381600087803b158015617de757600080fd5b505af1158015617dfb573d6000803e3d6000fd5b505050505050565b60006017600083815260200190815260200160002060009054906101000a900473ffffffffffffffffffffffffffffffffffffffff169050600c60009054906101000a900473ffffffffffffffffffffffffffffffffffffffff1673ffffffffffffffffffffffffffffffffffffffff1663db634d7c826040518263ffffffff1660e01b8152600401617e96919061911f565b600060405180830381600087803b158015617eb057600080fd5b505af1158015617ec4573d6000803e3d6000fd5b50505050600e60009054906101000a900473ffffffffffffffffffffffffffffffffffffffff1673ffffffffffffffffffffffffffffffffffffffff16637ca51fbf826040518263ffffffff1660e01b8152600401617f23919061911f565b600060405180830381600087803b158015617f3d57600080fd5b505af1158015617f51573d6000803e3d6000fd5b505050505050565b60006017600083815260200190815260200160002060009054906101000a900473ffffffffffffffffffffffffffffffffffffffff1690508073ffffffffffffffffffffffffffffffffffffffff1663224b2a5b6040518163ffffffff1660e01b8152600401600060405180830381600087803b158015617fd957600080fd5b505af1158015617fed573d6000803e3d6000fd5b505050505050565b600060186000838152602001908152602001600020805461801590619b19565b80601f016020809104026020016040519081016040528092919081815260200182805461804190619b19565b801561808e5780601f106180635761010080835404028352916020019161808e565b820191906000526020600020905b81548152906001019060200180831161807157829003601f168201915b505050505090506000600e60009054906101000a900473ffffffffffffffffffffffffffffffffffffffff1673ffffffffffffffffffffffffffffffffffffffff1663abc764da6040518163ffffffff1660e01b815260040160006040518083038186803b1580156180ff57600080fd5b505afa158015618113573d6000803e3d6000fd5b505050506040513d6000823e3d601f19601f8201168201806040525081019061813c91906187fc565b905060005b81518110156181f3576000601e6000868152602001908152602001600020600084848151811061819a577f4e487b7100000000000000000000000000000000000000000000000000000000600052603260045260246000fd5b602002602001015173ffffffffffffffffffffffffffffffffffffffff1673ffffffffffffffffffffffffffffffffffffffff1681526020019081526020016000208190555080806181eb90619b7c565b915050618141565b506001601b600085815260200190815260200160002060006101000a81548160ff0219169083151502179055506000601a600085815260200190815260200160002060006101000a81548160ff0219169083151502179055506000601c600085815260200190815260200160002060006101000a81548160ff021916908315150217905550823373ffffffffffffffffffffffffffffffffffffffff167ffdbe656509abcebb25a94a9630376c43df21fd5f51077a0c0e20965cf5a02327846040516182bf9190619308565b60405180910390a3505050565b8280546182d890619b19565b90600052602060002090601f0160209004810192826182fa5760008555618341565b82601f1061831357805160ff1916838001178555618341565b82800160010185558215618341579182015b82811115618340578251825591602001919060010190618325565b5b50905061834e91906183c1565b5090565b6040518061014001604052806000815260200160608152602001600081526020016000815260200160001515815260200160001515815260200160008152602001600073ffffffffffffffffffffffffffffffffffffffff168152602001600015158152602001600081525090565b5b808211156183da5760008160009055506001016183c2565b5090565b60006183f16183ec846196ea565b6196c5565b9050808382526020820190508285602086028201111561841057600080fd5b60005b858110156184405781618426888261849d565b845260208401935060208301925050600181019050618413565b5050509392505050565b600061845d61845884619716565b6196c5565b90508281526020810184848401111561847557600080fd5b618480848285619ad7565b509392505050565b60008135905061849781619f9d565b92915050565b6000815190506184ac81619f9d565b92915050565b600082601f8301126184c357600080fd5b81516184d38482602086016183de565b91505092915050565b6000813590506184eb81619fb4565b92915050565b60008151905061850081619fb4565b92915050565b60008151905061851581619fcb565b92915050565b60008151905061852a81619fe2565b92915050565b60008151905061853f81619ff9565b92915050565b6000815190506185548161a010565b92915050565b6000815190506185698161a027565b92915050565b60008151905061857e8161a03e565b92915050565b6000815190506185938161a055565b92915050565b6000815190506185a88161a06c565b92915050565b6000815190506185bd8161a083565b92915050565b6000815190506185d28161a09a565b92915050565b600082601f8301126185e957600080fd5b81356185f984826020860161844a565b91505092915050565b6000813590506186118161a0b1565b92915050565b6000815190506186268161a0b1565b92915050565b60006020828403121561863e57600080fd5b600061864c84828501618488565b91505092915050565b60006020828403121561866757600080fd5b60006186758482850161849d565b91505092915050565b6000806040838503121561869157600080fd5b600061869f85828601618488565b92505060206186b085828601618488565b9150509250929050565b6000806000606084860312156186cf57600080fd5b60006186dd86828701618488565b93505060206186ee86828701618488565b92505060406186ff86828701618488565b9150509250925092565b6000806000806080858703121561871f57600080fd5b600061872d87828801618488565b945050602061873e87828801618488565b935050604061874f87828801618488565b925050606061876087828801618488565b91505092959194509250565b6000806040838503121561877f57600080fd5b600061878d85828601618488565b925050602083013567ffffffffffffffff8111156187aa57600080fd5b6187b6858286016185d8565b9150509250929050565b600080604083850312156187d357600080fd5b60006187e185828601618488565b92505060206187f285828601618602565b9150509250929050565b60006020828403121561880e57600080fd5b600082015167ffffffffffffffff81111561882857600080fd5b618834848285016184b2565b91505092915050565b60006020828403121561884f57600080fd5b600061885d848285016184f1565b91505092915050565b60006020828403121561887857600080fd5b600061888684828501618506565b91505092915050565b6000602082840312156188a157600080fd5b60006188af8482850161851b565b91505092915050565b6000602082840312156188ca57600080fd5b60006188d884828501618530565b91505092915050565b6000602082840312156188f357600080fd5b600061890184828501618545565b91505092915050565b60006020828403121561891c57600080fd5b600061892a8482850161855a565b91505092915050565b60006020828403121561894557600080fd5b60006189538482850161856f565b91505092915050565b60006020828403121561896e57600080fd5b600061897c84828501618584565b91505092915050565b60006020828403121561899757600080fd5b60006189a584828501618599565b91505092915050565b6000602082840312156189c057600080fd5b60006189ce848285016185ae565b91505092915050565b6000602082840312156189e957600080fd5b60006189f7848285016185c3565b91505092915050565b600060208284031215618a1257600080fd5b600082013567ffffffffffffffff811115618a2c57600080fd5b618a38848285016185d8565b91505092915050565b600060208284031215618a5357600080fd5b6000618a6184828501618602565b91505092915050565b600060208284031215618a7c57600080fd5b6000618a8a84828501618617565b91505092915050565b60008060408385031215618aa657600080fd5b6000618ab485828601618602565b9250506020618ac585828601618488565b9150509250929050565b60008060408385031215618ae257600080fd5b6000618af085828601618602565b925050602083013567ffffffffffffffff811115618b0d57600080fd5b618b19858286016185d8565b9150509250929050565b60008060408385031215618b3657600080fd5b6000618b4485828601618617565b9250506020618b5585828601618617565b9150509250929050565b60008060008060808587031215618b7557600080fd5b6000618b8387828801618602565b9450506020618b9487828801618602565b9350506040618ba5878288016184dc565b9250506060618bb687828801618602565b91505092959194509250565b600080600060608486031215618bd757600080fd5b6000618be586828701618602565b9350506020618bf686828701618602565b9250506040618c0786828701618602565b9150509250925092565b618c1a8161989f565b82525050565b618c298161989f565b82525050565b618c38816198b1565b82525050565b618c47816198b1565b82525050565b6000618c5882619747565b618c62818561975d565b9350618c72818560208601619ae6565b80840191505092915050565b618c8781619993565b82525050565b618c96816199b7565b82525050565b618ca5816199db565b82525050565b618cb4816199ff565b82525050565b618cc381619a23565b82525050565b618cd281619a47565b82525050565b618ce181619a6b565b82525050565b618cf081619a8f565b82525050565b618cff81619ab3565b82525050565b6000618d1082619752565b618d1a8185619768565b9350618d2a818560208601619ae6565b618d3381619c81565b840191505092915050565b6000618d4982619752565b618d538185619779565b9350618d63818560208601619ae6565b618d6c81619c81565b840191505092915050565b6000618d84600783619779565b9150618d8f82619c92565b602082019050919050565b6000618da7600783619779565b9150618db282619cbb565b602082019050919050565b6000618dca600883619779565b9150618dd582619ce4565b602082019050919050565b6000618ded600783619779565b9150618df882619d0d565b602082019050919050565b6000618e10600583619779565b9150618e1b82619d36565b602082019050919050565b6000618e33600583619779565b9150618e3e82619d5f565b602082019050919050565b6000618e56600a83619779565b9150618e6182619d88565b602082019050919050565b6000618e79600883619779565b9150618e8482619db1565b602082019050919050565b6000618e9c600b83619779565b9150618ea782619dda565b602082019050919050565b6000618ebf600683619779565b9150618eca82619e03565b602082019050919050565b6000618ee2600883619779565b9150618eed82619e2c565b602082019050919050565b6000618f05600983619779565b9150618f1082619e55565b602082019050919050565b6000618f28600683619779565b9150618f3382619e7e565b602082019050919050565b6000618f4b600783619779565b9150618f5682619ea7565b602082019050919050565b6000618f6e600883619779565b9150618f7982619ed0565b602082019050919050565b6000618f91600583619779565b9150618f9c82619ef9565b602082019050919050565b6000618fb4600583619779565b9150618fbf82619f22565b602082019050919050565b6000618fd7601f83619779565b9150618fe282619f4b565b602082019050919050565b6000618ffa600583619779565b915061900582619f74565b602082019050919050565b60006101408301600083015161902960008601826190ea565b50602083015184820360208601526190418282618d05565b915050604083015161905660408601826190ea565b50606083015161906960608601826190ea565b50608083015161907c6080860182618c2f565b5060a083015161908f60a0860182618c2f565b5060c08301516190a260c08601826190ea565b5060e08301516190b560e0860182618c11565b506101008301516190ca610100860182618c2f565b506101208301516190df6101208601826190ea565b508091505092915050565b6190f381619989565b82525050565b61910281619989565b82525050565b60006191148284618c4d565b915081905092915050565b60006020820190506191346000830184618c20565b92915050565b600060408201905061914f6000830185618c20565b61915c6020830184618c20565b9392505050565b60006060820190506191786000830186618c20565b6191856020830185618c20565b61919260408301846190f9565b949350505050565b60006040820190506191af6000830185618c20565b6191bc60208301846190f9565b9392505050565b60006060820190506191d86000830186618c20565b6191e560208301856190f9565b6191f26040830184618c20565b949350505050565b600060208201905061920f6000830184618c3e565b92915050565b600060208201905061922a6000830184618c7e565b92915050565b60006020820190506192456000830184618c8d565b92915050565b60006020820190506192606000830184618c9c565b92915050565b600060208201905061927b6000830184618cab565b92915050565b60006020820190506192966000830184618cba565b92915050565b60006020820190506192b16000830184618cc9565b92915050565b60006020820190506192cc6000830184618cd8565b92915050565b60006020820190506192e76000830184618ce7565b92915050565b60006020820190506193026000830184618cf6565b92915050565b600060208201905081810360008301526193228184618d3e565b905092915050565b6000602082019050818103600083015261934381618d77565b9050919050565b6000602082019050818103600083015261936381618d9a565b9050919050565b6000602082019050818103600083015261938381618dbd565b9050919050565b600060208201905081810360008301526193a381618de0565b9050919050565b600060208201905081810360008301526193c381618e03565b9050919050565b600060208201905081810360008301526193e381618e26565b9050919050565b6000602082019050818103600083015261940381618e49565b9050919050565b6000602082019050818103600083015261942381618e6c565b9050919050565b6000602082019050818103600083015261944381618e8f565b9050919050565b6000602082019050818103600083015261946381618eb2565b9050919050565b6000602082019050818103600083015261948381618ed5565b9050919050565b600060208201905081810360008301526194a381618ef8565b9050919050565b600060208201905081810360008301526194c381618f1b565b9050919050565b600060208201905081810360008301526194e381618f3e565b9050919050565b6000602082019050818103600083015261950381618f61565b9050919050565b6000602082019050818103600083015261952381618f84565b9050919050565b6000602082019050818103600083015261954381618fa7565b9050919050565b6000602082019050818103600083015261956381618fca565b9050919050565b6000602082019050818103600083015261958381618fed565b9050919050565b600060208201905081810360008301526195a48184619010565b905092915050565b60006020820190506195c160008301846190f9565b92915050565b60006040820190506195dc60008301856190f9565b6195e96020830184618c20565b9392505050565b600060408201905061960560008301856190f9565b81810360208301526196178184618d3e565b90509392505050565b600060408201905061963560008301856190f9565b61964260208301846190f9565b9392505050565b600060808201905061965e60008301876190f9565b61966b60208301866190f9565b6196786040830185618c20565b6196856060830184618c20565b95945050505050565b60006060820190506196a360008301866190f9565b6196b060208301856190f9565b6196bd60408301846190f9565b949350505050565b60006196cf6196e0565b90506196db8282619b4b565b919050565b6000604051905090565b600067ffffffffffffffff82111561970557619704619c52565b5b602082029050602081019050919050565b600067ffffffffffffffff82111561973157619730619c52565b5b61973a82619c81565b9050602081019050919050565b600081519050919050565b600081519050919050565b600081905092915050565b600082825260208201905092915050565b600082825260208201905092915050565b600061979582619989565b91506197a083619989565b9250827fffffffffffffffffffffffffffffffffffffffffffffffffffffffffffffffff038211156197d5576197d4619bc5565b5b828201905092915050565b60006197eb82619989565b91506197f683619989565b92508261980657619805619bf4565b5b828204905092915050565b600061981c82619989565b915061982783619989565b9250817fffffffffffffffffffffffffffffffffffffffffffffffffffffffffffffffff04831182151516156198605761985f619bc5565b5b828202905092915050565b600061987682619989565b915061988183619989565b92508282101561989457619893619bc5565b5b828203905092915050565b60006198aa82619969565b9050919050565b60008115159050919050565b6000819050919050565b60006198d28261989f565b9050919050565b60006198e48261989f565b9050919050565b60006198f68261989f565b9050919050565b60006199088261989f565b9050919050565b600061991a8261989f565b9050919050565b600061992c8261989f565b9050919050565b600061993e8261989f565b9050919050565b60006199508261989f565b9050919050565b60006199628261989f565b9050919050565b600073ffffffffffffffffffffffffffffffffffffffff82169050919050565b6000819050919050565b600061999e826199a5565b9050919050565b60006199b082619969565b9050919050565b60006199c2826199c9565b9050919050565b60006199d482619969565b9050919050565b60006199e6826199ed565b9050919050565b60006199f882619969565b9050919050565b6000619a0a82619a11565b9050919050565b6000619a1c82619969565b9050919050565b6000619a2e82619a35565b9050919050565b6000619a4082619969565b9050919050565b6000619a5282619a59565b9050919050565b6000619a6482619969565b9050919050565b6000619a7682619a7d565b9050919050565b6000619a8882619969565b9050919050565b6000619a9a82619aa1565b9050919050565b6000619aac82619969565b9050919050565b6000619abe82619ac5565b9050919050565b6000619ad082619969565b9050919050565b82818337600083830152505050565b60005b83811015619b04578082015181840152602081019050619ae9565b83811115619b13576000848401525b50505050565b60006002820490506001821680619b3157607f821691505b60208210811415619b4557619b44619c23565b5b50919050565b619b5482619c81565b810181811067ffffffffffffffff82111715619b7357619b72619c52565b5b80604052505050565b6000619b8782619989565b91507fffffffffffffffffffffffffffffffffffffffffffffffffffffffffffffffff821415619bba57619bb9619bc5565b5b600182019050919050565b7f4e487b7100000000000000000000000000000000000000000000000000000000600052601160045260246000fd5b7f4e487b7100000000000000000000000000000000000000000000000000000000600052601260045260246000fd5b7f4e487b7100000000000000000000000000000000000000000000000000000000600052602260045260246000fd5b7f4e487b7100000000000000000000000000000000000000000000000000000000600052604160045260246000fd5b6000601f19601f8301169050919050565b7f216c697374656400000000000000000000000000000000000000000000000000600082015250565b7f5245544952454400000000000000000000000000000000000000000000000000600082015250565b7f494e414354495645000000000000000000000000000000000000000000000000600082015250565b7f21414d4f554e5400000000000000000000000000000000000000000000000000600082015250565b7f564f544544000000000000000000000000000000000000000000000000000000600082015250565b7f214f50454e000000000000000000000000000000000000000000000000000000600082015250565b7f21656d697373696f6e7300000000000000000000000000000000000000000000600082015250565b7f21636f6f6c6f6666000000000000000000000000000000000000000000000000600082015250565b7f2166696e616c6973696e67000000000000000000000000000000000000000000600082015250565b7f21564f5445440000000000000000000000000000000000000000000000000000600082015250565b7f2163757261746564000000000000000000000000000000000000000000000000600082015250565b7f217472616e736665720000000000000000000000000000000000000000000000600082015250565b7f21706172616d0000000000000000000000000000000000000000000000000000600082015250565b7f21616d6f756e7400000000000000000000000000000000000000000000000000600082015250565b7f2161646472657373000000000000000000000000000000000000000000000000600082015250565b7f2153414645000000000000000000000000000000000000000000000000000000600082015250565b7f216f70656e000000000000000000000000000000000000000000000000000000600082015250565b7f5265656e7472616e637947756172643a207265656e7472616e742063616c6c00600082015250565b7f2164617973000000000000000000000000000000000000000000000000000000600082015250565b619fa68161989f565b8114619fb157600080fd5b50565b619fbd816198b1565b8114619fc857600080fd5b50565b619fd4816198bd565b8114619fdf57600080fd5b50565b619feb816198c7565b8114619ff657600080fd5b50565b61a002816198d9565b811461a00d57600080fd5b50565b61a019816198eb565b811461a02457600080fd5b50565b61a030816198fd565b811461a03b57600080fd5b50565b61a0478161990f565b811461a05257600080fd5b50565b61a05e81619921565b811461a06957600080fd5b50565b61a07581619933565b811461a08057600080fd5b50565b61a08c81619945565b811461a09757600080fd5b50565b61a0a381619957565b811461a0ae57600080fd5b50565b61a0ba81619989565b811461a0c557600080fd5b5056fea26469706673582212204ea07f30c45ff383ff531e4e2bc8f528d64905c6d6d22a3a3c48635123307adb64736f6c63430008030033",
  "linkReferences": {},
  "deployedLinkReferences": {}
}