{
  "_format": "hh-sol-artifact-1",
  "contractName": "Dao",
  "sourceName": "contracts/Dao.sol",
  "abi": [
    {
      "inputs": [
        {
          "internalType": "address",
          "name": "_base",
          "type": "address"
        }
      ],
      "stateMutability": "nonpayable",
      "type": "constructor"
    },
    {
      "anonymous": false,
      "inputs": [
        {
          "indexed": true,
          "internalType": "address",
          "name": "member",
          "type": "address"
        },
        {
          "indexed": true,
          "internalType": "uint256",
          "name": "oldProposalID",
          "type": "uint256"
        },
        {
          "indexed": false,
          "internalType": "uint256",
          "name": "oldVotes",
          "type": "uint256"
        },
        {
          "indexed": false,
          "internalType": "uint256",
          "name": "newVotes",
          "type": "uint256"
        },
        {
          "indexed": false,
          "internalType": "uint256",
          "name": "totalWeight",
          "type": "uint256"
        }
      ],
      "name": "CancelProposal",
      "type": "event"
    },
    {
      "anonymous": false,
      "inputs": [
        {
          "indexed": true,
          "internalType": "address",
          "name": "DAO",
          "type": "address"
        },
        {
          "indexed": true,
          "internalType": "address",
          "name": "asset",
          "type": "address"
        }
      ],
      "name": "DelistedAsset",
      "type": "event"
    },
    {
      "anonymous": false,
      "inputs": [
        {
          "indexed": true,
          "internalType": "address",
          "name": "owner",
          "type": "address"
        },
        {
          "indexed": false,
          "internalType": "uint256",
          "name": "depositAmount",
          "type": "uint256"
        },
        {
          "indexed": false,
          "internalType": "uint256",
          "name": "bondedLP",
          "type": "uint256"
        }
      ],
      "name": "DepositAsset",
      "type": "event"
    },
    {
      "anonymous": false,
      "inputs": [
        {
          "indexed": true,
          "internalType": "address",
          "name": "member",
          "type": "address"
        },
        {
          "indexed": true,
          "internalType": "uint256",
          "name": "proposalID",
          "type": "uint256"
        },
        {
          "indexed": false,
          "internalType": "uint256",
          "name": "votesCast",
          "type": "uint256"
        },
        {
          "indexed": false,
          "internalType": "uint256",
          "name": "totalWeight",
          "type": "uint256"
        },
        {
          "indexed": false,
          "internalType": "string",
          "name": "proposalType",
          "type": "string"
        }
      ],
      "name": "FinalisedProposal",
      "type": "event"
    },
    {
      "anonymous": false,
      "inputs": [
        {
          "indexed": true,
          "internalType": "address",
          "name": "DAO",
          "type": "address"
        },
        {
          "indexed": true,
          "internalType": "address",
          "name": "asset",
          "type": "address"
        }
      ],
      "name": "ListedAsset",
      "type": "event"
    },
    {
      "anonymous": false,
      "inputs": [
        {
          "indexed": true,
          "internalType": "address",
          "name": "member",
          "type": "address"
        },
        {
          "indexed": true,
          "internalType": "address",
          "name": "pool",
          "type": "address"
        },
        {
          "indexed": false,
          "internalType": "uint256",
          "name": "amount",
          "type": "uint256"
        }
      ],
      "name": "MemberDeposits",
      "type": "event"
    },
    {
      "anonymous": false,
      "inputs": [
        {
          "indexed": true,
          "internalType": "address",
          "name": "member",
          "type": "address"
        },
        {
          "indexed": true,
          "internalType": "address",
          "name": "pool",
          "type": "address"
        },
        {
          "indexed": false,
          "internalType": "uint256",
          "name": "balance",
          "type": "uint256"
        }
      ],
      "name": "MemberWithdraws",
      "type": "event"
    },
    {
      "anonymous": false,
      "inputs": [
        {
          "indexed": true,
          "internalType": "address",
          "name": "member",
          "type": "address"
        },
        {
          "indexed": true,
          "internalType": "uint256",
          "name": "proposalID",
          "type": "uint256"
        },
        {
          "indexed": false,
          "internalType": "string",
          "name": "proposalType",
          "type": "string"
        }
      ],
      "name": "NewProposal",
      "type": "event"
    },
    {
      "anonymous": false,
      "inputs": [
        {
          "indexed": true,
          "internalType": "address",
          "name": "member",
          "type": "address"
        },
        {
          "indexed": true,
          "internalType": "uint256",
          "name": "proposalID",
          "type": "uint256"
        },
        {
          "indexed": false,
          "internalType": "uint256",
          "name": "voteWeight",
          "type": "uint256"
        },
        {
          "indexed": false,
          "internalType": "uint256",
          "name": "totalVotes",
          "type": "uint256"
        },
        {
          "indexed": false,
          "internalType": "string",
          "name": "proposalType",
          "type": "string"
        }
      ],
      "name": "NewVote",
      "type": "event"
    },
    {
      "anonymous": false,
      "inputs": [
        {
          "indexed": true,
          "internalType": "address",
          "name": "member",
          "type": "address"
        },
        {
          "indexed": true,
          "internalType": "uint256",
          "name": "proposalID",
          "type": "uint256"
        },
        {
          "indexed": false,
          "internalType": "uint256",
          "name": "timeFinalised",
          "type": "uint256"
        },
        {
          "indexed": false,
          "internalType": "string",
          "name": "proposalType",
          "type": "string"
        }
      ],
      "name": "ProposalFinalising",
      "type": "event"
    },
    {
      "anonymous": false,
      "inputs": [
        {
          "indexed": true,
          "internalType": "address",
          "name": "member",
          "type": "address"
        },
        {
          "indexed": true,
          "internalType": "uint256",
          "name": "proposalID",
          "type": "uint256"
        },
        {
          "indexed": false,
          "internalType": "uint256",
          "name": "voteWeight",
          "type": "uint256"
        },
        {
          "indexed": false,
          "internalType": "uint256",
          "name": "totalVotes",
          "type": "uint256"
        },
        {
          "indexed": false,
          "internalType": "string",
          "name": "proposalType",
          "type": "string"
        }
      ],
      "name": "RemovedVote",
      "type": "event"
    },
    {
      "inputs": [],
      "name": "BASE",
      "outputs": [
        {
          "internalType": "address",
          "name": "",
          "type": "address"
        }
      ],
      "stateMutability": "view",
      "type": "function"
    },
    {
      "inputs": [],
      "name": "BONDVAULT",
      "outputs": [
        {
          "internalType": "contract iBONDVAULT",
          "name": "",
          "type": "address"
        }
      ],
      "stateMutability": "view",
      "type": "function"
    },
    {
      "inputs": [],
      "name": "DAO",
      "outputs": [
        {
          "internalType": "address",
          "name": "",
          "type": "address"
        }
      ],
      "stateMutability": "view",
      "type": "function"
    },
    {
      "inputs": [],
      "name": "DAOVAULT",
      "outputs": [
        {
          "internalType": "contract iDAOVAULT",
          "name": "",
          "type": "address"
        }
      ],
      "stateMutability": "view",
      "type": "function"
    },
    {
      "inputs": [],
      "name": "DEPLOYER",
      "outputs": [
        {
          "internalType": "address",
          "name": "",
          "type": "address"
        }
      ],
      "stateMutability": "view",
      "type": "function"
    },
    {
      "inputs": [],
      "name": "POOLFACTORY",
      "outputs": [
        {
          "internalType": "contract iPOOLFACTORY",
          "name": "",
          "type": "address"
        }
      ],
      "stateMutability": "view",
      "type": "function"
    },
    {
      "inputs": [],
      "name": "RESERVE",
      "outputs": [
        {
          "internalType": "contract iRESERVE",
          "name": "",
          "type": "address"
        }
      ],
      "stateMutability": "view",
      "type": "function"
    },
    {
      "inputs": [],
      "name": "ROUTER",
      "outputs": [
        {
          "internalType": "contract iROUTER",
          "name": "",
          "type": "address"
        }
      ],
      "stateMutability": "view",
      "type": "function"
    },
    {
      "inputs": [],
      "name": "SYNTHFACTORY",
      "outputs": [
        {
          "internalType": "contract iSYNTHFACTORY",
          "name": "",
          "type": "address"
        }
      ],
      "stateMutability": "view",
      "type": "function"
    },
    {
      "inputs": [],
      "name": "SYNTHVAULT",
      "outputs": [
        {
          "internalType": "contract iSYNTHVAULT",
          "name": "",
          "type": "address"
        }
      ],
      "stateMutability": "view",
      "type": "function"
    },
    {
      "inputs": [],
      "name": "UTILS",
      "outputs": [
        {
          "internalType": "contract iUTILS",
          "name": "",
          "type": "address"
        }
      ],
      "stateMutability": "view",
      "type": "function"
    },
    {
      "inputs": [],
      "name": "allListedAssets",
      "outputs": [
        {
          "internalType": "address[]",
          "name": "_allListedAssets",
          "type": "address[]"
        }
      ],
      "stateMutability": "view",
      "type": "function"
    },
    {
      "inputs": [
        {
          "internalType": "uint256",
          "name": "",
          "type": "uint256"
        }
      ],
      "name": "arrayMembers",
      "outputs": [
        {
          "internalType": "address",
          "name": "",
          "type": "address"
        }
      ],
      "stateMutability": "view",
      "type": "function"
    },
    {
      "inputs": [],
      "name": "assetListedCount",
      "outputs": [
        {
          "internalType": "uint256",
          "name": "count",
          "type": "uint256"
        }
      ],
      "stateMutability": "view",
      "type": "function"
    },
    {
      "inputs": [
        {
          "internalType": "address",
          "name": "asset",
          "type": "address"
        },
        {
          "internalType": "uint256",
          "name": "amount",
          "type": "uint256"
        }
      ],
      "name": "bond",
      "outputs": [
        {
          "internalType": "bool",
          "name": "success",
          "type": "bool"
        }
      ],
      "stateMutability": "payable",
      "type": "function"
    },
    {
      "inputs": [],
      "name": "bondingPeriodSeconds",
      "outputs": [
        {
          "internalType": "uint256",
          "name": "",
          "type": "uint256"
        }
      ],
      "stateMutability": "view",
      "type": "function"
    },
    {
      "inputs": [],
      "name": "burnBalance",
      "outputs": [
        {
          "internalType": "bool",
          "name": "",
          "type": "bool"
        }
      ],
      "stateMutability": "nonpayable",
      "type": "function"
    },
    {
      "inputs": [
        {
          "internalType": "address",
          "name": "bondedMember",
          "type": "address"
        },
        {
          "internalType": "address",
          "name": "asset",
          "type": "address"
        }
      ],
      "name": "calcClaimBondedLP",
      "outputs": [
        {
          "internalType": "uint256",
          "name": "",
          "type": "uint256"
        }
      ],
      "stateMutability": "nonpayable",
      "type": "function"
    },
    {
      "inputs": [
        {
          "internalType": "address",
          "name": "member",
          "type": "address"
        }
      ],
      "name": "calcCurrentReward",
      "outputs": [
        {
          "internalType": "uint256",
          "name": "",
          "type": "uint256"
        }
      ],
      "stateMutability": "view",
      "type": "function"
    },
    {
      "inputs": [
        {
          "internalType": "address",
          "name": "member",
          "type": "address"
        }
      ],
      "name": "calcReward",
      "outputs": [
        {
          "internalType": "uint256",
          "name": "",
          "type": "uint256"
        }
      ],
      "stateMutability": "view",
      "type": "function"
    },
    {
      "inputs": [
        {
          "internalType": "uint256",
          "name": "oldProposalID",
          "type": "uint256"
        },
        {
          "internalType": "uint256",
          "name": "newProposalID",
          "type": "uint256"
        }
      ],
      "name": "cancelProposal",
      "outputs": [],
      "stateMutability": "nonpayable",
      "type": "function"
    },
    {
      "inputs": [
        {
          "internalType": "uint256",
          "name": "bondingSeconds",
          "type": "uint256"
        }
      ],
      "name": "changeBondingPeriod",
      "outputs": [],
      "stateMutability": "nonpayable",
      "type": "function"
    },
    {
      "inputs": [
        {
          "internalType": "address",
          "name": "member",
          "type": "address"
        }
      ],
      "name": "claimAllForMember",
      "outputs": [
        {
          "internalType": "bool",
          "name": "",
          "type": "bool"
        }
      ],
      "stateMutability": "nonpayable",
      "type": "function"
    },
    {
      "inputs": [
        {
          "internalType": "address",
          "name": "asset",
          "type": "address"
        }
      ],
      "name": "claimForMember",
      "outputs": [
        {
          "internalType": "bool",
          "name": "",
          "type": "bool"
        }
      ],
      "stateMutability": "nonpayable",
      "type": "function"
    },
    {
      "inputs": [],
      "name": "coolOffPeriod",
      "outputs": [
        {
          "internalType": "uint256",
          "name": "",
          "type": "uint256"
        }
      ],
      "stateMutability": "view",
      "type": "function"
    },
    {
      "inputs": [],
      "name": "daoClaim",
      "outputs": [
        {
          "internalType": "uint256",
          "name": "",
          "type": "uint256"
        }
      ],
      "stateMutability": "view",
      "type": "function"
    },
    {
      "inputs": [],
      "name": "daoFee",
      "outputs": [
        {
          "internalType": "uint256",
          "name": "",
          "type": "uint256"
        }
      ],
      "stateMutability": "view",
      "type": "function"
    },
    {
      "inputs": [],
      "name": "daoHasMoved",
      "outputs": [
        {
          "internalType": "bool",
          "name": "",
          "type": "bool"
        }
      ],
      "stateMutability": "view",
      "type": "function"
    },
    {
      "inputs": [
        {
          "internalType": "address",
          "name": "asset",
          "type": "address"
        }
      ],
      "name": "delistBondAsset",
      "outputs": [
        {
          "internalType": "bool",
          "name": "",
          "type": "bool"
        }
      ],
      "stateMutability": "nonpayable",
      "type": "function"
    },
    {
      "inputs": [
        {
          "internalType": "address",
          "name": "pool",
          "type": "address"
        },
        {
          "internalType": "uint256",
          "name": "amount",
          "type": "uint256"
        }
      ],
      "name": "deposit",
      "outputs": [],
      "stateMutability": "nonpayable",
      "type": "function"
    },
    {
      "inputs": [
        {
          "internalType": "address",
          "name": "pool",
          "type": "address"
        },
        {
          "internalType": "uint256",
          "name": "amount",
          "type": "uint256"
        },
        {
          "internalType": "address",
          "name": "member",
          "type": "address"
        }
      ],
      "name": "depositLPForMember",
      "outputs": [],
      "stateMutability": "nonpayable",
      "type": "function"
    },
    {
      "inputs": [],
      "name": "erasToEarn",
      "outputs": [
        {
          "internalType": "uint256",
          "name": "",
          "type": "uint256"
        }
      ],
      "stateMutability": "view",
      "type": "function"
    },
    {
      "inputs": [
        {
          "internalType": "uint256",
          "name": "proposalID",
          "type": "uint256"
        }
      ],
      "name": "finaliseProposal",
      "outputs": [],
      "stateMutability": "nonpayable",
      "type": "function"
    },
    {
      "inputs": [
        {
          "internalType": "uint256",
          "name": "proposalID",
          "type": "uint256"
        }
      ],
      "name": "getGrantDetails",
      "outputs": [
        {
          "components": [
            {
              "internalType": "address",
              "name": "recipient",
              "type": "address"
            },
            {
              "internalType": "uint256",
              "name": "amount",
              "type": "uint256"
            }
          ],
          "internalType": "struct Dao.GrantDetails",
          "name": "grantDetails",
          "type": "tuple"
        }
      ],
      "stateMutability": "view",
      "type": "function"
    },
    {
      "inputs": [
        {
          "internalType": "uint256",
          "name": "proposalID",
          "type": "uint256"
        }
      ],
      "name": "getProposalDetails",
      "outputs": [
        {
          "components": [
            {
              "internalType": "uint256",
              "name": "id",
              "type": "uint256"
            },
            {
              "internalType": "string",
              "name": "proposalType",
              "type": "string"
            },
            {
              "internalType": "uint256",
              "name": "votes",
              "type": "uint256"
            },
            {
              "internalType": "uint256",
              "name": "timeStart",
              "type": "uint256"
            },
            {
              "internalType": "bool",
              "name": "finalising",
              "type": "bool"
            },
            {
              "internalType": "bool",
              "name": "finalised",
              "type": "bool"
            },
            {
              "internalType": "uint256",
              "name": "param",
              "type": "uint256"
            },
            {
              "internalType": "address",
              "name": "proposedAddress",
              "type": "address"
            }
          ],
          "internalType": "struct Dao.ProposalDetails",
          "name": "proposalDetails",
          "type": "tuple"
        }
      ],
      "stateMutability": "view",
      "type": "function"
    },
    {
      "inputs": [],
      "name": "harvest",
      "outputs": [],
      "stateMutability": "nonpayable",
      "type": "function"
    },
    {
      "inputs": [
        {
          "internalType": "uint256",
          "name": "_proposalID",
          "type": "uint256"
        }
      ],
      "name": "hasMajority",
      "outputs": [
        {
          "internalType": "bool",
          "name": "",
          "type": "bool"
        }
      ],
      "stateMutability": "view",
      "type": "function"
    },
    {
      "inputs": [
        {
          "internalType": "uint256",
          "name": "_proposalID",
          "type": "uint256"
        }
      ],
      "name": "hasMinority",
      "outputs": [
        {
          "internalType": "bool",
          "name": "",
          "type": "bool"
        }
      ],
      "stateMutability": "view",
      "type": "function"
    },
    {
      "inputs": [
        {
          "internalType": "uint256",
          "name": "_proposalID",
          "type": "uint256"
        }
      ],
      "name": "hasQuorum",
      "outputs": [
        {
          "internalType": "bool",
          "name": "",
          "type": "bool"
        }
      ],
      "stateMutability": "view",
      "type": "function"
    },
    {
      "inputs": [
        {
          "internalType": "bytes",
          "name": "part1",
          "type": "bytes"
        },
        {
          "internalType": "bytes",
          "name": "part2",
          "type": "bytes"
        }
      ],
      "name": "isEqual",
      "outputs": [
        {
          "internalType": "bool",
          "name": "",
          "type": "bool"
        }
      ],
      "stateMutability": "pure",
      "type": "function"
    },
    {
      "inputs": [
        {
          "internalType": "address",
          "name": "",
          "type": "address"
        }
      ],
      "name": "isListed",
      "outputs": [
        {
          "internalType": "bool",
          "name": "",
          "type": "bool"
        }
      ],
      "stateMutability": "view",
      "type": "function"
    },
    {
      "inputs": [
        {
          "internalType": "address",
          "name": "",
          "type": "address"
        }
      ],
      "name": "isMember",
      "outputs": [
        {
          "internalType": "bool",
          "name": "",
          "type": "bool"
        }
      ],
      "stateMutability": "view",
      "type": "function"
    },
    {
      "inputs": [
        {
          "internalType": "address",
          "name": "asset",
          "type": "address"
        }
      ],
      "name": "listBondAsset",
      "outputs": [
        {
          "internalType": "bool",
          "name": "",
          "type": "bool"
        }
      ],
      "stateMutability": "nonpayable",
      "type": "function"
    },
    {
      "inputs": [],
      "name": "majorityFactor",
      "outputs": [
        {
          "internalType": "uint256",
          "name": "",
          "type": "uint256"
        }
      ],
      "stateMutability": "view",
      "type": "function"
    },
    {
      "inputs": [
        {
          "internalType": "address",
          "name": "",
          "type": "address"
        }
      ],
      "name": "mapMember_lastTime",
      "outputs": [
        {
          "internalType": "uint256",
          "name": "",
          "type": "uint256"
        }
      ],
      "stateMutability": "view",
      "type": "function"
    },
    {
      "inputs": [
        {
          "internalType": "uint256",
          "name": "",
          "type": "uint256"
        },
        {
          "internalType": "address",
          "name": "",
          "type": "address"
        }
      ],
      "name": "mapPIDMember_votes",
      "outputs": [
        {
          "internalType": "uint256",
          "name": "",
          "type": "uint256"
        }
      ],
      "stateMutability": "view",
      "type": "function"
    },
    {
      "inputs": [
        {
          "internalType": "uint256",
          "name": "",
          "type": "uint256"
        }
      ],
      "name": "mapPID_address",
      "outputs": [
        {
          "internalType": "address",
          "name": "",
          "type": "address"
        }
      ],
      "stateMutability": "view",
      "type": "function"
    },
    {
      "inputs": [
        {
          "internalType": "uint256",
          "name": "",
          "type": "uint256"
        }
      ],
      "name": "mapPID_finalised",
      "outputs": [
        {
          "internalType": "bool",
          "name": "",
          "type": "bool"
        }
      ],
      "stateMutability": "view",
      "type": "function"
    },
    {
      "inputs": [
        {
          "internalType": "uint256",
          "name": "",
          "type": "uint256"
        }
      ],
      "name": "mapPID_finalising",
      "outputs": [
        {
          "internalType": "bool",
          "name": "",
          "type": "bool"
        }
      ],
      "stateMutability": "view",
      "type": "function"
    },
    {
      "inputs": [
        {
          "internalType": "uint256",
          "name": "",
          "type": "uint256"
        }
      ],
      "name": "mapPID_grant",
      "outputs": [
        {
          "internalType": "address",
          "name": "recipient",
          "type": "address"
        },
        {
          "internalType": "uint256",
          "name": "amount",
          "type": "uint256"
        }
      ],
      "stateMutability": "view",
      "type": "function"
    },
    {
      "inputs": [
        {
          "internalType": "uint256",
          "name": "",
          "type": "uint256"
        }
      ],
      "name": "mapPID_param",
      "outputs": [
        {
          "internalType": "uint32",
          "name": "",
          "type": "uint32"
        }
      ],
      "stateMutability": "view",
      "type": "function"
    },
    {
      "inputs": [
        {
          "internalType": "uint256",
          "name": "",
          "type": "uint256"
        }
      ],
      "name": "mapPID_timeStart",
      "outputs": [
        {
          "internalType": "uint256",
          "name": "",
          "type": "uint256"
        }
      ],
      "stateMutability": "view",
      "type": "function"
    },
    {
      "inputs": [
        {
          "internalType": "uint256",
          "name": "",
          "type": "uint256"
        }
      ],
      "name": "mapPID_type",
      "outputs": [
        {
          "internalType": "string",
          "name": "",
          "type": "string"
        }
      ],
      "stateMutability": "view",
      "type": "function"
    },
    {
      "inputs": [
        {
          "internalType": "uint256",
          "name": "",
          "type": "uint256"
        }
      ],
      "name": "mapPID_votes",
      "outputs": [
        {
          "internalType": "uint256",
          "name": "",
          "type": "uint256"
        }
      ],
      "stateMutability": "view",
      "type": "function"
    },
    {
      "inputs": [],
      "name": "memberCount",
      "outputs": [
        {
          "internalType": "uint256",
          "name": "",
          "type": "uint256"
        }
      ],
      "stateMutability": "view",
      "type": "function"
    },
    {
      "inputs": [
        {
          "internalType": "address",
          "name": "newDAO",
          "type": "address"
        }
      ],
      "name": "moveBASEBalance",
      "outputs": [],
      "stateMutability": "nonpayable",
      "type": "function"
    },
    {
      "inputs": [
        {
          "internalType": "string",
          "name": "typeStr",
          "type": "string"
        }
      ],
      "name": "newActionProposal",
      "outputs": [
        {
          "internalType": "uint256",
          "name": "",
          "type": "uint256"
        }
      ],
      "stateMutability": "nonpayable",
      "type": "function"
    },
    {
      "inputs": [
        {
          "internalType": "address",
          "name": "proposedAddress",
          "type": "address"
        },
        {
          "internalType": "string",
          "name": "typeStr",
          "type": "string"
        }
      ],
      "name": "newAddressProposal",
      "outputs": [
        {
          "internalType": "uint256",
          "name": "",
          "type": "uint256"
        }
      ],
      "stateMutability": "nonpayable",
      "type": "function"
    },
    {
      "inputs": [
        {
          "internalType": "address",
          "name": "recipient",
          "type": "address"
        },
        {
          "internalType": "uint256",
          "name": "amount",
          "type": "uint256"
        }
      ],
      "name": "newGrantProposal",
      "outputs": [
        {
          "internalType": "uint256",
          "name": "",
          "type": "uint256"
        }
      ],
      "stateMutability": "nonpayable",
      "type": "function"
    },
    {
      "inputs": [
        {
          "internalType": "uint32",
          "name": "param",
          "type": "uint32"
        },
        {
          "internalType": "string",
          "name": "typeStr",
          "type": "string"
        }
      ],
      "name": "newParamProposal",
      "outputs": [
        {
          "internalType": "uint256",
          "name": "",
          "type": "uint256"
        }
      ],
      "stateMutability": "nonpayable",
      "type": "function"
    },
    {
      "inputs": [],
      "name": "proposalCount",
      "outputs": [
        {
          "internalType": "uint256",
          "name": "",
          "type": "uint256"
        }
      ],
      "stateMutability": "view",
      "type": "function"
    },
    {
      "inputs": [],
      "name": "purgeDeployer",
      "outputs": [],
      "stateMutability": "nonpayable",
      "type": "function"
    },
    {
      "inputs": [
        {
          "internalType": "uint256",
          "name": "proposalID",
          "type": "uint256"
        }
      ],
      "name": "removeVote",
      "outputs": [
        {
          "internalType": "uint256",
          "name": "voteWeightRemoved",
          "type": "uint256"
        }
      ],
      "stateMutability": "nonpayable",
      "type": "function"
    },
    {
      "inputs": [],
      "name": "secondsPerEra",
      "outputs": [
        {
          "internalType": "uint256",
          "name": "",
          "type": "uint256"
        }
      ],
      "stateMutability": "view",
      "type": "function"
    },
    {
      "inputs": [
        {
          "internalType": "address",
          "name": "_poolFactory",
          "type": "address"
        },
        {
          "internalType": "address",
          "name": "_synthFactory",
          "type": "address"
        }
      ],
      "name": "setFactoryAddresses",
      "outputs": [],
      "stateMutability": "nonpayable",
      "type": "function"
    },
    {
      "inputs": [
        {
          "internalType": "address",
          "name": "_router",
          "type": "address"
        },
        {
          "internalType": "address",
          "name": "_utils",
          "type": "address"
        },
        {
          "internalType": "address",
          "name": "_reserve",
          "type": "address"
        }
      ],
      "name": "setGenesisAddresses",
      "outputs": [],
      "stateMutability": "nonpayable",
      "type": "function"
    },
    {
      "inputs": [
        {
          "internalType": "uint32",
          "name": "_coolOff",
          "type": "uint32"
        },
        {
          "internalType": "uint32",
          "name": "_daysToEarn",
          "type": "uint32"
        },
        {
          "internalType": "uint32",
          "name": "_majorityFactor",
          "type": "uint32"
        },
        {
          "internalType": "uint32",
          "name": "_daoClaim",
          "type": "uint32"
        },
        {
          "internalType": "uint32",
          "name": "_daoFee",
          "type": "uint32"
        }
      ],
      "name": "setGenesisFactors",
      "outputs": [],
      "stateMutability": "nonpayable",
      "type": "function"
    },
    {
      "inputs": [
        {
          "internalType": "address",
          "name": "_daovault",
          "type": "address"
        },
        {
          "internalType": "address",
          "name": "_bondvault",
          "type": "address"
        },
        {
          "internalType": "address",
          "name": "_synthVault",
          "type": "address"
        }
      ],
      "name": "setVaultAddresses",
      "outputs": [],
      "stateMutability": "nonpayable",
      "type": "function"
    },
    {
      "inputs": [
        {
          "internalType": "uint256",
          "name": "proposalID",
          "type": "uint256"
        }
      ],
      "name": "voteProposal",
      "outputs": [
        {
          "internalType": "uint256",
          "name": "voteWeight",
          "type": "uint256"
        }
      ],
      "stateMutability": "nonpayable",
      "type": "function"
    },
    {
      "inputs": [
        {
          "internalType": "address",
          "name": "pool",
          "type": "address"
        }
      ],
      "name": "withdraw",
      "outputs": [],
      "stateMutability": "nonpayable",
      "type": "function"
    }
  ],
  "bytecode": "0x608060405262ed4e006014553480156200001857600080fd5b50604051620090673803806200906783398181016040528101906200003e919062000209565b80600160006101000a81548173ffffffffffffffffffffffffffffffffffffffff021916908373ffffffffffffffffffffffffffffffffffffffff160217905550336000806101000a81548173ffffffffffffffffffffffffffffffffffffffff021916908373ffffffffffffffffffffffffffffffffffffffff16021790555030600960016101000a81548173ffffffffffffffffffffffffffffffffffffffff021916908373ffffffffffffffffffffffffffffffffffffffff1602179055506001600381905550601e600681905550611a0a6005819055506107d06007819055506064600881905550600160009054906101000a900473ffffffffffffffffffffffffffffffffffffffff1673ffffffffffffffffffffffffffffffffffffffff16636b92a3b66040518163ffffffff1660e01b815260040160206040518083038186803b1580156200019357600080fd5b505afa158015620001a8573d6000803e3d6000fd5b505050506040513d601f19601f82011682018060405250810190620001ce919062000235565b60028190555050620002d3565b600081519050620001ec816200029f565b92915050565b6000815190506200020381620002b9565b92915050565b6000602082840312156200021c57600080fd5b60006200022c84828501620001db565b91505092915050565b6000602082840312156200024857600080fd5b60006200025884828501620001f2565b91505092915050565b60006200026e8262000275565b9050919050565b600073ffffffffffffffffffffffffffffffffffffffff82169050919050565b6000819050919050565b620002aa8162000261565b8114620002b657600080fd5b50565b620002c48162000295565b8114620002d057600080fd5b50565b618d8480620002e36000396000f3fe6080604052600436106104055760003560e01c80637a8c72b511610213578063bc68fad911610123578063db634d7c116100ab578063f135dcf81161007a578063f135dcf8146110b5578063f1b591d6146110f2578063f38a2fa11461112f578063f794062e1461116c578063f7a79a37146111a957610405565b8063db634d7c14610fd3578063e248260c14611010578063e38c7dcc1461104d578063ec342ad01461108a57610405565b8063cb7bdbc0116100f2578063cb7bdbc014610eb3578063d0ad170914610ef1578063d145836314610f2e578063da35c66414610f6b578063dab249b314610f9657610405565b8063bc68fad914610de3578063c05fc17814610e0e578063c1b8411a14610e4b578063c42b3f7d14610e7657610405565b8063a230c524116101a6578063ae887c8b11610175578063ae887c8b14610cea578063af04598014610d27578063b93ec54b14610d50578063b99b0a0c14610d7b578063bbf8cf8214610da657610405565b8063a230c52414610c15578063a515366a14610c52578063a6c83fed14610c82578063abb6154f14610cbf57610405565b8063956615be116101e2578063956615be14610b5757806398fabd3a14610b825780639cd99aa214610bad5780639d2cc43614610bea57610405565b80637a8c72b514610a895780637b0e5c4514610ac6578063807896d514610af15780638601b9e614610b2e57610405565b80633f68fde411610319578063572cf927116102a157806365c71bbf1161027057806365c71bbf146109b657806368bb97b3146109e15780636b92a3b614610a0a5780637375898814610a3557806379b2dc4c14610a5e57610405565b8063572cf927146108ea5780635c120b37146109135780635c7366d3146109505780635ded8b061461098d57610405565b80634641257d116102e85780634641257d1461081b57806347e7ef24146108325780634b193e231461085b5780634b4000341461088457806351cff8d9146108c157610405565b80633f68fde41461073b578063436f80be1461077857806346350821146107b55780634636279f146107de57610405565b80632c07eebf1161039c578063343598081161036b578063343598081461062e57806335cb5fe01461066b57806338da7dd6146106965780633a61738d146106c15780633b4d01a7146106fe57610405565b80632c07eebf146105705780632f7fa1801461059b578063314604fe146105c657806332fe7b261461060357610405565b8063293cee7d116103d8578063293cee7d146104a05780632957b839146104dd5780632ab24e49146105085780632bee11941461053357610405565b806303a821381461040a57806311aee3801461042157806324efb5281461044c57806325a7f90814610477575b600080fd5b34801561041657600080fd5b5061041f6111d4565b005b34801561042d57600080fd5b5061043661126f565b604051610443919061823c565b60405180910390f35b34801561045857600080fd5b5061046161127c565b60405161046e9190617eea565b60405180910390f35b34801561048357600080fd5b5061049e600480360381019061049991906174a2565b61128f565b005b3480156104ac57600080fd5b506104c760048036038101906104c29190617412565b6117c2565b6040516104d4919061823c565b60405180910390f35b3480156104e957600080fd5b506104f26118c1565b6040516104ff919061823c565b60405180910390f35b34801561051457600080fd5b5061051d6118c7565b60405161052a9190617fa7565b60405180910390f35b34801561053f57600080fd5b5061055a60048036038101906105559190617738565b6119ae565b6040516105679190617eea565b60405180910390f35b34801561057c57600080fd5b506105856119ce565b604051610592919061823c565b60405180910390f35b3480156105a757600080fd5b506105b06119d4565b6040516105bd9190617f05565b60405180910390f35b3480156105d257600080fd5b506105ed60048036038101906105e89190617738565b611abb565b6040516105fa9190618393565b60405180910390f35b34801561060f57600080fd5b50610618611ade565b6040516106259190617f71565b60405180910390f35b34801561063a57600080fd5b5061065560048036038101906106509190617543565b611bc5565b6040516106629190617eea565b60405180910390f35b34801561067757600080fd5b50610680611c81565b60405161068d9190617ec8565b60405180910390f35b3480156106a257600080fd5b506106ab611d0f565b6040516106b89190617f20565b60405180910390f35b3480156106cd57600080fd5b506106e860048036038101906106e3919061735e565b611df6565b6040516106f5919061823c565b60405180910390f35b34801561070a57600080fd5b5061072560048036038101906107209190617738565b612260565b604051610732919061821a565b60405180910390f35b34801561074757600080fd5b50610762600480360381019061075d9190617738565b612453565b60405161076f919061823c565b60405180910390f35b34801561078457600080fd5b5061079f600480360381019061079a9190617738565b612633565b6040516107ac9190617ded565b60405180910390f35b3480156107c157600080fd5b506107dc60048036038101906107d79190617387565b612672565b005b3480156107ea57600080fd5b506108056004803603810190610800919061735e565b612750565b604051610812919061823c565b60405180910390f35b34801561082757600080fd5b50610830612862565b005b34801561083e57600080fd5b5061085960048036038101906108549190617466565b612a26565b005b34801561086757600080fd5b50610882600480360381019061087d9190617738565b612a35565b005b34801561089057600080fd5b506108ab60048036038101906108a69190617738565b613013565b6040516108b89190617eea565b60405180910390f35b3480156108cd57600080fd5b506108e860048036038101906108e3919061735e565b613033565b005b3480156108f657600080fd5b50610911600480360381019061090c9190617856565b613124565b005b34801561091f57600080fd5b5061093a60048036038101906109359190617738565b6131c4565b6040516109479190617eea565b60405180910390f35b34801561095c57600080fd5b506109776004803603810190610972919061735e565b61336b565b604051610984919061823c565b60405180910390f35b34801561099957600080fd5b506109b460048036038101906109af91906177c6565b613383565b005b3480156109c257600080fd5b506109cb6136df565b6040516109d8919061823c565b60405180910390f35b3480156109ed57600080fd5b50610a086004803603810190610a03919061735e565b6136e5565b005b348015610a1657600080fd5b50610a1f6138a0565b604051610a2c919061823c565b60405180910390f35b348015610a4157600080fd5b50610a5c6004803603810190610a5791906173c3565b6138a6565b005b348015610a6a57600080fd5b50610a736139c6565b604051610a80919061823c565b60405180910390f35b348015610a9557600080fd5b50610ab06004803603810190610aab919061735e565b6139cc565b604051610abd9190617eea565b60405180910390f35b348015610ad257600080fd5b50610adb613baa565b604051610ae89190617fc2565b60405180910390f35b348015610afd57600080fd5b50610b186004803603810190610b139190617738565b613c91565b604051610b25919061823c565b60405180910390f35b348015610b3a57600080fd5b50610b556004803603810190610b5091906173c3565b61403d565b005b348015610b6357600080fd5b50610b6c61415d565b604051610b79919061823c565b60405180910390f35b348015610b8e57600080fd5b50610b97614163565b604051610ba49190617ded565b60405180910390f35b348015610bb957600080fd5b50610bd46004803603810190610bcf919061735e565b614189565b604051610be19190617eea565b60405180910390f35b348015610bf657600080fd5b50610bff614354565b604051610c0c9190617f56565b60405180910390f35b348015610c2157600080fd5b50610c3c6004803603810190610c37919061735e565b61443b565b604051610c499190617eea565b60405180910390f35b610c6c6004803603810190610c679190617466565b61445b565b604051610c799190617eea565b60405180910390f35b348015610c8e57600080fd5b50610ca96004803603810190610ca49190617466565b614625565b604051610cb6919061823c565b60405180910390f35b348015610ccb57600080fd5b50610cd46147c0565b604051610ce1919061823c565b60405180910390f35b348015610cf657600080fd5b50610d116004803603810190610d0c9190617738565b6147c6565b604051610d1e9190617ded565b60405180910390f35b348015610d3357600080fd5b50610d4e6004803603810190610d499190617738565b6147f9565b005b348015610d5c57600080fd5b50610d6561485b565b604051610d729190617f8c565b60405180910390f35b348015610d8757600080fd5b50610d90614942565b604051610d9d9190617f3b565b60405180910390f35b348015610db257600080fd5b50610dcd6004803603810190610dc89190617738565b614a29565b604051610dda9190617eea565b60405180910390f35b348015610def57600080fd5b50610df8614bc2565b604051610e059190617eea565b60405180910390f35b348015610e1a57600080fd5b50610e356004803603810190610e309190617738565b614d61565b604051610e429190617fdd565b60405180910390f35b348015610e5757600080fd5b50610e60614e01565b604051610e6d9190617ded565b60405180910390f35b348015610e8257600080fd5b50610e9d6004803603810190610e98919061778a565b614e25565b604051610eaa919061823c565b60405180910390f35b348015610ebf57600080fd5b50610eda6004803603810190610ed59190617738565b614e49565b604051610ee8929190617e68565b60405180910390f35b348015610efd57600080fd5b50610f186004803603810190610f139190617738565b614e8d565b604051610f259190617eea565b60405180910390f35b348015610f3a57600080fd5b50610f556004803603810190610f5091906176f7565b615026565b604051610f62919061823c565b60405180910390f35b348015610f7757600080fd5b50610f806150d0565b604051610f8d919061823c565b60405180910390f35b348015610fa257600080fd5b50610fbd6004803603810190610fb89190617738565b6150d6565b604051610fca919061823c565b60405180910390f35b348015610fdf57600080fd5b50610ffa6004803603810190610ff5919061735e565b6150ee565b6040516110079190617eea565b60405180910390f35b34801561101c57600080fd5b506110376004803603810190611032919061735e565b615204565b6040516110449190617eea565b60405180910390f35b34801561105957600080fd5b50611074600480360381019061106f9190617738565b6152b6565b604051611081919061823c565b60405180910390f35b34801561109657600080fd5b5061109f6152ce565b6040516110ac9190617ded565b60405180910390f35b3480156110c157600080fd5b506110dc60048036038101906110d79190617387565b6152f4565b6040516110e9919061823c565b60405180910390f35b3480156110fe57600080fd5b5061111960048036038101906111149190617738565b6153b2565b60405161112691906181ff565b60405180910390f35b34801561113b57600080fd5b5061115660048036038101906111519190617802565b61544d565b604051611163919061823c565b60405180910390f35b34801561117857600080fd5b50611193600480360381019061118e919061735e565b61552c565b6040516111a09190617eea565b60405180910390f35b3480156111b557600080fd5b506111be61554c565b6040516111cb919061823c565b60405180910390f35b60008054906101000a900473ffffffffffffffffffffffffffffffffffffffff1673ffffffffffffffffffffffffffffffffffffffff163373ffffffffffffffffffffffffffffffffffffffff161461122c57600080fd5b60008060006101000a81548173ffffffffffffffffffffffffffffffffffffffff021916908373ffffffffffffffffffffffffffffffffffffffff160217905550565b6000601280549050905090565b600960009054906101000a900460ff1681565b60011515600e60009054906101000a900473ffffffffffffffffffffffffffffffffffffffff1673ffffffffffffffffffffffffffffffffffffffff16638dcb4c93856040518263ffffffff1660e01b81526004016112ee9190617ded565b60206040518083038186803b15801561130657600080fd5b505afa15801561131a573d6000803e3d6000fd5b505050506040513d601f19601f8201168201806040525081019061133e91906174f1565b151514611380576040517f08c379a00000000000000000000000000000000000000000000000000000000081526004016113779061813f565b60405180910390fd5b600082116113c3576040517f08c379a00000000000000000000000000000000000000000000000000000000081526004016113ba9061803f565b60405180910390fd5b60011515601560008373ffffffffffffffffffffffffffffffffffffffff1673ffffffffffffffffffffffffffffffffffffffff16815260200190815260200160002060009054906101000a900460ff161515146114d7576012339080600181540180825580915050600190039060005260206000200160009091909190916101000a81548173ffffffffffffffffffffffffffffffffffffffff021916908373ffffffffffffffffffffffffffffffffffffffff1602179055506001601560008373ffffffffffffffffffffffffffffffffffffffff1673ffffffffffffffffffffffffffffffffffffffff16815260200190815260200160002060006101000a81548160ff0219169083151502179055505b6000600d60009054906101000a900473ffffffffffffffffffffffffffffffffffffffff1673ffffffffffffffffffffffffffffffffffffffff16635364df49836040518263ffffffff1660e01b81526004016115349190617ded565b60206040518083038186803b15801561154c57600080fd5b505afa158015611560573d6000803e3d6000fd5b505050506040513d601f19601f820116820180604052508101906115849190617761565b111561159357611592612862565b5b8273ffffffffffffffffffffffffffffffffffffffff166323b872dd33600d60009054906101000a900473ffffffffffffffffffffffffffffffffffffffff16856040518463ffffffff1660e01b81526004016115f293929190617e31565b602060405180830381600087803b15801561160c57600080fd5b505af1158015611620573d6000803e3d6000fd5b505050506040513d601f19601f8201168201806040525081019061164491906174f1565b611683576040517f08c379a000000000000000000000000000000000000000000000000000000000815260040161167a90617fff565b60405180910390fd5b600d60009054906101000a900473ffffffffffffffffffffffffffffffffffffffff1673ffffffffffffffffffffffffffffffffffffffff166346dafa2f8484846040518463ffffffff1660e01b81526004016116e293929190617e91565b600060405180830381600087803b1580156116fc57600080fd5b505af1158015611710573d6000803e3d6000fd5b5050505042601760008373ffffffffffffffffffffffffffffffffffffffff1673ffffffffffffffffffffffffffffffffffffffff168152602001908152602001600020819055508273ffffffffffffffffffffffffffffffffffffffff168173ffffffffffffffffffffffffffffffffffffffff167f5f9b5a75581a29d72b32414a5df7f1ef124b7787b38616fb8fdcad76179127c2846040516117b5919061823c565b60405180910390a3505050565b60006117cc615559565b506001600460008282546117e091906184b1565b925050819055508260196000600454815260200190815260200160002060006101000a81548173ffffffffffffffffffffffffffffffffffffffff021916908373ffffffffffffffffffffffffffffffffffffffff16021790555081601b600060045481526020019081526020016000209080519060200190611864929190617036565b506004543373ffffffffffffffffffffffffffffffffffffffff167f8d500fcad86fc64a281b94ef64d6d66acbfc6862aa4ff2ee5fbbfb40736e803e846040516118ae9190617fdd565b60405180910390a3600454905092915050565b60085481565b6000600960009054906101000a900460ff161561198557600960019054906101000a900473ffffffffffffffffffffffffffffffffffffffff1673ffffffffffffffffffffffffffffffffffffffff16632ab24e496040518163ffffffff1660e01b815260040160206040518083038186803b15801561194657600080fd5b505afa15801561195a573d6000803e3d6000fd5b505050506040513d601f19601f8201168201806040525081019061197e91906176a5565b90506119ab565b601160009054906101000a900473ffffffffffffffffffffffffffffffffffffffff1690505b90565b601f6020528060005260406000206000915054906101000a900460ff1681565b60065481565b6000600960009054906101000a900460ff1615611a9257600960019054906101000a900473ffffffffffffffffffffffffffffffffffffffff1673ffffffffffffffffffffffffffffffffffffffff16632f7fa1806040518163ffffffff1660e01b815260040160206040518083038186803b158015611a5357600080fd5b505afa158015611a67573d6000803e3d6000fd5b505050506040513d601f19601f82011682018060405250810190611a8b91906175af565b9050611ab8565b600c60009054906101000a900473ffffffffffffffffffffffffffffffffffffffff1690505b90565b60186020528060005260406000206000915054906101000a900463ffffffff1681565b6000600960009054906101000a900460ff1615611b9c57600960019054906101000a900473ffffffffffffffffffffffffffffffffffffffff1673ffffffffffffffffffffffffffffffffffffffff166332fe7b266040518163ffffffff1660e01b815260040160206040518083038186803b158015611b5d57600080fd5b505afa158015611b71573d6000803e3d6000fd5b505050506040513d601f19601f82011682018060405250810190611b959190617653565b9050611bc2565b600a60009054906101000a900473ffffffffffffffffffffffffffffffffffffffff1690505b90565b6000600282604051611bd79190617dd6565b602060405180830381855afa158015611bf4573d6000803e3d6000fd5b5050506040513d601f19601f82011682018060405250810190611c17919061751a565b600284604051611c279190617dd6565b602060405180830381855afa158015611c44573d6000803e3d6000fd5b5050506040513d601f19601f82011682018060405250810190611c67919061751a565b1415611c765760019050611c7b565b600090505b92915050565b60606013805480602002602001604051908101604052809291908181526020018280548015611d0557602002820191906000526020600020905b8160009054906101000a900473ffffffffffffffffffffffffffffffffffffffff1673ffffffffffffffffffffffffffffffffffffffff1681526020019060010190808311611cbb575b5050505050905090565b6000600960009054906101000a900460ff1615611dcd57600960019054906101000a900473ffffffffffffffffffffffffffffffffffffffff1673ffffffffffffffffffffffffffffffffffffffff166338da7dd66040518163ffffffff1660e01b815260040160206040518083038186803b158015611d8e57600080fd5b505afa158015611da2573d6000803e3d6000fd5b505050506040513d601f19601f82011682018060405250810190611dc691906175d8565b9050611df3565b600d60009054906101000a900473ffffffffffffffffffffffffffffffffffffffff1690505b90565b600080600c60009054906101000a900473ffffffffffffffffffffffffffffffffffffffff1673ffffffffffffffffffffffffffffffffffffffff16635364df49846040518263ffffffff1660e01b8152600401611e549190617ded565b60206040518083038186803b158015611e6c57600080fd5b505afa158015611e80573d6000803e3d6000fd5b505050506040513d601f19601f82011682018060405250810190611ea49190617761565b600d60009054906101000a900473ffffffffffffffffffffffffffffffffffffffff1673ffffffffffffffffffffffffffffffffffffffff16635364df49856040518263ffffffff1660e01b8152600401611eff9190617ded565b60206040518083038186803b158015611f1757600080fd5b505afa158015611f2b573d6000803e3d6000fd5b505050506040513d601f19601f82011682018060405250810190611f4f9190617761565b611f5991906184b1565b90506000600c60009054906101000a900473ffffffffffffffffffffffffffffffffffffffff1673ffffffffffffffffffffffffffffffffffffffff166396c82e576040518163ffffffff1660e01b815260040160206040518083038186803b158015611fc557600080fd5b505afa158015611fd9573d6000803e3d6000fd5b505050506040513d601f19601f82011682018060405250810190611ffd9190617761565b600d60009054906101000a900473ffffffffffffffffffffffffffffffffffffffff1673ffffffffffffffffffffffffffffffffffffffff166396c82e576040518163ffffffff1660e01b815260040160206040518083038186803b15801561206557600080fd5b505afa158015612079573d6000803e3d6000fd5b505050506040513d601f19601f8201168201806040525081019061209d9190617761565b6120a791906184b1565b90506000600654600160009054906101000a900473ffffffffffffffffffffffffffffffffffffffff1673ffffffffffffffffffffffffffffffffffffffff166370a08231601060009054906101000a900473ffffffffffffffffffffffffffffffffffffffff166040518263ffffffff1660e01b815260040161212b9190617ded565b60206040518083038186803b15801561214357600080fd5b505afa158015612157573d6000803e3d6000fd5b505050506040513d601f19601f8201168201806040525081019061217b9190617761565b6121859190618507565b905060006127106007548361219a9190618538565b6121a49190618507565b9050600b60009054906101000a900473ffffffffffffffffffffffffffffffffffffffff1673ffffffffffffffffffffffffffffffffffffffff16631ba326c48585846040518463ffffffff1660e01b81526004016122059392919061835c565b60206040518083038186803b15801561221d57600080fd5b505afa158015612231573d6000803e3d6000fd5b505050506040513d601f19601f820116820180604052508101906122559190617761565b945050505050919050565b6122686170bc565b81816000018181525050601b600083815260200190815260200160002080546122909061881a565b80601f01602080910402602001604051908101604052809291908181526020018280546122bc9061881a565b80156123095780601f106122de57610100808354040283529160200191612309565b820191906000526020600020905b8154815290600101906020018083116122ec57829003601f168201915b50505050508160200181905250601c600083815260200190815260200160002054816040018181525050601d600083815260200190815260200160002054816060018181525050601e600083815260200190815260200160002060009054906101000a900460ff16816080019015159081151581525050601f600083815260200190815260200160002060009054906101000a900460ff168160a00190151590811515815250506018600083815260200190815260200160002060009054906101000a900463ffffffff1663ffffffff168160c00181815250506019600083815260200190815260200160002060009054906101000a900473ffffffffffffffffffffffffffffffffffffffff168160e0019073ffffffffffffffffffffffffffffffffffffffff16908173ffffffffffffffffffffffffffffffffffffffff1681525050919050565b600080601b600084815260200190815260200160002080546124749061881a565b80601f01602080910402602001604051908101604052809291908181526020018280546124a09061881a565b80156124ed5780601f106124c2576101008083540402835291602001916124ed565b820191906000526020600020905b8154815290600101906020018083116124d057829003601f168201915b505050505090506020600084815260200190815260200160002060003373ffffffffffffffffffffffffffffffffffffffff1673ffffffffffffffffffffffffffffffffffffffff16815260200190815260200160002054915081601c6000858152602001908152602001600020600082825461256a9190618592565b9250508190555060006020600085815260200190815260200160002060003373ffffffffffffffffffffffffffffffffffffffff1673ffffffffffffffffffffffffffffffffffffffff16815260200190815260200160002081905550823373ffffffffffffffffffffffffffffffffffffffff167f70a6ab6ed794c2ceb8df59b7bb4e317e9b215d9ce74b88161ca5af2a5a801d6f84601c600088815260200190815260200160002054856040516126259392919061831e565b60405180910390a350919050565b6012818154811061264357600080fd5b906000526020600020016000915054906101000a900473ffffffffffffffffffffffffffffffffffffffff1681565b60008054906101000a900473ffffffffffffffffffffffffffffffffffffffff1673ffffffffffffffffffffffffffffffffffffffff163373ffffffffffffffffffffffffffffffffffffffff16146126ca57600080fd5b81600e60006101000a81548173ffffffffffffffffffffffffffffffffffffffff021916908373ffffffffffffffffffffffffffffffffffffffff16021790555080600f60006101000a81548173ffffffffffffffffffffffffffffffffffffffff021916908373ffffffffffffffffffffffffffffffffffffffff1602179055505050565b6000601560008373ffffffffffffffffffffffffffffffffffffffff1673ffffffffffffffffffffffffffffffffffffffff16815260200190815260200160002060009054906101000a900460ff166127de576040517f08c379a00000000000000000000000000000000000000000000000000000000081526004016127d5906180ff565b60405180910390fd5b6000601760008473ffffffffffffffffffffffffffffffffffffffff1673ffffffffffffffffffffffffffffffffffffffff168152602001908152602001600020544261282b9190618592565b9050600061283884611df6565b90506000600254838361284b9190618538565b6128559190618507565b9050809350505050919050565b601060009054906101000a900473ffffffffffffffffffffffffffffffffffffffff1673ffffffffffffffffffffffffffffffffffffffff16632267716c6040518163ffffffff1660e01b8152600401602060405180830381600087803b1580156128cc57600080fd5b505af11580156128e0573d6000803e3d6000fd5b505050506040513d601f19601f8201168201806040525081019061290491906174f1565b612943576040517f08c379a000000000000000000000000000000000000000000000000000000000815260040161293a906180bf565b60405180910390fd5b600061294e33612750565b905042601760003373ffffffffffffffffffffffffffffffffffffffff1673ffffffffffffffffffffffffffffffffffffffff16815260200190815260200160002081905550601060009054906101000a900473ffffffffffffffffffffffffffffffffffffffff1673ffffffffffffffffffffffffffffffffffffffff16637d458baa82336040518363ffffffff1660e01b81526004016129f1929190618257565b600060405180830381600087803b158015612a0b57600080fd5b505af1158015612a1f573d6000803e3d6000fd5b5050505050565b612a3182823361128f565b5050565b600354601d60008381526020019081526020016000205442612a579190618592565b11612a97576040517f08c379a0000000000000000000000000000000000000000000000000000000008152600401612a8e9061811f565b60405180910390fd5b60011515601e600083815260200190815260200160002060009054906101000a900460ff16151514612afe576040517f08c379a0000000000000000000000000000000000000000000000000000000008152600401612af5906180df565b60405180910390fd5b612b0781614a29565b612b3c576000601e600083815260200190815260200160002060006101000a81548160ff021916908315150217905550613010565b6000601b60008381526020019081526020016000208054612b5c9061881a565b80601f0160208091040260200160405190810160405280929190818152602001828054612b889061881a565b8015612bd55780601f10612baa57610100808354040283529160200191612bd5565b820191906000526020600020905b815481529060010190602001808311612bb857829003601f168201915b50505050509050612c1b816040518060400160405280600381526020017f44414f0000000000000000000000000000000000000000000000000000000000815250611bc5565b15612c2e57612c298261568e565b61300e565b612c6d816040518060400160405280600681526020017f524f555445520000000000000000000000000000000000000000000000000000815250611bc5565b15612c8057612c7b82615880565b61300d565b612cbf816040518060400160405280600581526020017f5554494c53000000000000000000000000000000000000000000000000000000815250611bc5565b15612cd257612ccd82615976565b61300c565b612d11816040518060400160405280600781526020017f5245534552564500000000000000000000000000000000000000000000000000815250611bc5565b15612d2457612d1f82615a6c565b61300b565b612d63816040518060400160405280600e81526020017f464c49505f454d495353494f4e53000000000000000000000000000000000000815250611bc5565b15612d7657612d7182615b62565b61300a565b612db5816040518060400160405280600881526020017f434f4f4c5f4f4646000000000000000000000000000000000000000000000000815250611bc5565b15612dc857612dc382615c11565b613009565b612e07816040518060400160405280600c81526020017f455241535f544f5f4541524e0000000000000000000000000000000000000000815250611bc5565b15612e1a57612e1582615c9d565b613008565b612e59816040518060400160405280600581526020017f4752414e54000000000000000000000000000000000000000000000000000000815250611bc5565b15612e6c57612e6782615d29565b613007565b612eab816040518060400160405280600a81526020017f4745545f53504152544100000000000000000000000000000000000000000000815250611bc5565b15612ebe57612eb982615e4f565b613006565b612efd816040518060400160405280600981526020017f4c4953545f424f4e440000000000000000000000000000000000000000000000815250611bc5565b15612f1057612f0b82615efb565b613005565b612f4f816040518060400160405280600b81526020017f44454c4953545f424f4e44000000000000000000000000000000000000000000815250611bc5565b15612f6257612f5d82615f4a565b613004565b612fa1816040518060400160405280601081526020017f4144445f435552415445445f504f4f4c00000000000000000000000000000000815250611bc5565b15612fb457612faf82616009565b613003565b612ff3816040518060400160405280601381526020017f52454d4f56455f435552415445445f504f4f4c00000000000000000000000000815250611bc5565b15613002576130018261616c565b5b5b5b5b5b5b5b5b5b5b5b5b5b505b50565b601e6020528060005260406000206000915054906101000a900460ff1681565b600d60009054906101000a900473ffffffffffffffffffffffffffffffffffffffff1673ffffffffffffffffffffffffffffffffffffffff1663f940e38582336040518363ffffffff1660e01b8152600401613090929190617e08565b602060405180830381600087803b1580156130aa57600080fd5b505af11580156130be573d6000803e3d6000fd5b505050506040513d601f19601f820116820180604052508101906130e291906174f1565b613121576040517f08c379a00000000000000000000000000000000000000000000000000000000081526004016131189061817f565b60405180910390fd5b50565b60008054906101000a900473ffffffffffffffffffffffffffffffffffffffff1673ffffffffffffffffffffffffffffffffffffffff163373ffffffffffffffffffffffffffffffffffffffff161461317c57600080fd5b8463ffffffff166003819055508363ffffffff166006819055508263ffffffff166005819055508163ffffffff166007819055508063ffffffff166008819055505050505050565b600080601c60008481526020019081526020016000205490506000600c60009054906101000a900473ffffffffffffffffffffffffffffffffffffffff1673ffffffffffffffffffffffffffffffffffffffff166396c82e576040518163ffffffff1660e01b815260040160206040518083038186803b15801561324757600080fd5b505afa15801561325b573d6000803e3d6000fd5b505050506040513d601f19601f8201168201806040525081019061327f9190617761565b600d60009054906101000a900473ffffffffffffffffffffffffffffffffffffffff1673ffffffffffffffffffffffffffffffffffffffff166396c82e576040518163ffffffff1660e01b815260040160206040518083038186803b1580156132e757600080fd5b505afa1580156132fb573d6000803e3d6000fd5b505050506040513d601f19601f8201168201806040525081019061331f9190617761565b61332991906184b1565b905060006127106005548361333e9190618538565b6133489190618507565b90508083111561335e5760019350505050613366565b600093505050505b919050565b60176020528060005260406000206000915090505481565b601e600083815260200190815260200160002060009054906101000a900460ff166133e3576040517f08c379a00000000000000000000000000000000000000000000000000000000081526004016133da906180df565b60405180910390fd5b6133ec81614e8d565b61342b576040517f08c379a00000000000000000000000000000000000000000000000000000000081526004016134229061819f565b60405180910390fd5b61356b601b6000848152602001908152602001600020805461344c9061881a565b80601f01602080910402602001604051908101604052809291908181526020018280546134789061881a565b80156134c55780601f1061349a576101008083540402835291602001916134c5565b820191906000526020600020905b8154815290600101906020018083116134a857829003601f168201915b5050505050601b600084815260200190815260200160002080546134e89061881a565b80601f01602080910402602001604051908101604052809291908181526020018280546135149061881a565b80156135615780601f1061353657610100808354040283529160200191613561565b820191906000526020600020905b81548152906001019060200180831161354457829003601f168201915b5050505050611bc5565b6135aa576040517f08c379a00000000000000000000000000000000000000000000000000000000081526004016135a19061815f565b60405180910390fd5b6000601c600084815260200190815260200160002081905550813373ffffffffffffffffffffffffffffffffffffffff167f0e67c2e72a9ea22e5d163549aebce99ddc3d1fbbc58e7ed196b0e88f458847d9601c600086815260200190815260200160002054601c600086815260200190815260200160002054600d60009054906101000a900473ffffffffffffffffffffffffffffffffffffffff1673ffffffffffffffffffffffffffffffffffffffff166396c82e576040518163ffffffff1660e01b815260040160206040518083038186803b15801561368c57600080fd5b505afa1580156136a0573d6000803e3d6000fd5b505050506040513d601f19601f820116820180604052508101906136c49190617761565b6040516136d39392919061835c565b60405180910390a35050565b60145481565b60008054906101000a900473ffffffffffffffffffffffffffffffffffffffff1673ffffffffffffffffffffffffffffffffffffffff163373ffffffffffffffffffffffffffffffffffffffff161461373d57600080fd5b6000600160009054906101000a900473ffffffffffffffffffffffffffffffffffffffff1673ffffffffffffffffffffffffffffffffffffffff166370a08231306040518263ffffffff1660e01b815260040161379a9190617ded565b60206040518083038186803b1580156137b257600080fd5b505afa1580156137c6573d6000803e3d6000fd5b505050506040513d601f19601f820116820180604052508101906137ea9190617761565b9050600160009054906101000a900473ffffffffffffffffffffffffffffffffffffffff1673ffffffffffffffffffffffffffffffffffffffff1663a9059cbb83836040518363ffffffff1660e01b8152600401613849929190617e68565b602060405180830381600087803b15801561386357600080fd5b505af1158015613877573d6000803e3d6000fd5b505050506040513d601f19601f8201168201806040525081019061389b91906174f1565b505050565b60025481565b60008054906101000a900473ffffffffffffffffffffffffffffffffffffffff1673ffffffffffffffffffffffffffffffffffffffff163373ffffffffffffffffffffffffffffffffffffffff16146138fe57600080fd5b82600d60006101000a81548173ffffffffffffffffffffffffffffffffffffffff021916908373ffffffffffffffffffffffffffffffffffffffff16021790555081600c60006101000a81548173ffffffffffffffffffffffffffffffffffffffff021916908373ffffffffffffffffffffffffffffffffffffffff16021790555080601160006101000a81548173ffffffffffffffffffffffffffffffffffffffff021916908373ffffffffffffffffffffffffffffffffffffffff160217905550505050565b60075481565b6000806013805480602002602001604051908101604052809291908181526020018280548015613a5157602002820191906000526020600020905b8160009054906101000a900473ffffffffffffffffffffffffffffffffffffffff1673ffffffffffffffffffffffffffffffffffffffff1681526020019060010190808311613a07575b5050505050905060005b8151811015613b9f576000613ab085848481518110613aa3577f4e487b7100000000000000000000000000000000000000000000000000000000600052603260045260246000fd5b60200260200101516152f4565b90506000811115613b8b57600c60009054906101000a900473ffffffffffffffffffffffffffffffffffffffff1673ffffffffffffffffffffffffffffffffffffffff16635bc262be848481518110613b32577f4e487b7100000000000000000000000000000000000000000000000000000000600052603260045260246000fd5b6020026020010151876040518363ffffffff1660e01b8152600401613b58929190617e08565b600060405180830381600087803b158015613b7257600080fd5b505af1158015613b86573d6000803e3d6000fd5b505050505b508080613b979061887d565b915050613a5b565b506001915050919050565b6000600960009054906101000a900460ff1615613c6857600960019054906101000a900473ffffffffffffffffffffffffffffffffffffffff1673ffffffffffffffffffffffffffffffffffffffff16637b0e5c456040518163ffffffff1660e01b815260040160206040518083038186803b158015613c2957600080fd5b505afa158015613c3d573d6000803e3d6000fd5b505050506040513d601f19601f82011682018060405250810190613c6191906176ce565b9050613c8e565b600b60009054906101000a900473ffffffffffffffffffffffffffffffffffffffff1690505b90565b600080601b60008481526020019081526020016000208054613cb29061881a565b80601f0160208091040260200160405190810160405280929190818152602001828054613cde9061881a565b8015613d2b5780601f10613d0057610100808354040283529160200191613d2b565b820191906000526020600020905b815481529060010190602001808311613d0e57829003601f168201915b50505050509050613d3b836162cf565b9150613d4683614a29565b8015613d76575060001515601e600085815260200190815260200160002060009054906101000a900460ff161515145b15613fd157613dba816040518060400160405280600381526020017f44414f0000000000000000000000000000000000000000000000000000000000815250611bc5565b80613e005750613dff816040518060400160405280600581526020017f5554494c53000000000000000000000000000000000000000000000000000000815250611bc5565b5b80613e465750613e45816040518060400160405280600781526020017f5245534552564500000000000000000000000000000000000000000000000000815250611bc5565b5b80613e8c5750613e8b816040518060400160405280600a81526020017f4745545f53504152544100000000000000000000000000000000000000000000815250611bc5565b5b80613ed25750613ed1816040518060400160405280600681526020017f524f555445520000000000000000000000000000000000000000000000000000815250611bc5565b5b80613f185750613f17816040518060400160405280600981526020017f4c4953545f424f4e440000000000000000000000000000000000000000000000815250611bc5565b5b80613f5e5750613f5d816040518060400160405280600581526020017f4752414e54000000000000000000000000000000000000000000000000000000815250611bc5565b5b80613fa45750613fa3816040518060400160405280601081526020017f4144445f435552415445445f504f4f4c00000000000000000000000000000000815250611bc5565b5b15613fc657613fb2836131c4565b15613fc157613fc083616531565b5b613fd0565b613fcf83616531565b5b5b823373ffffffffffffffffffffffffffffffffffffffff167f4d46d88c7e981a5bf4572a83b5d88bcfefbd5ee6ca8df0588e27c4221a43640784601c6000888152602001908152602001600020548560405161402f9392919061831e565b60405180910390a350919050565b60008054906101000a900473ffffffffffffffffffffffffffffffffffffffff1673ffffffffffffffffffffffffffffffffffffffff163373ffffffffffffffffffffffffffffffffffffffff161461409557600080fd5b82600a60006101000a81548173ffffffffffffffffffffffffffffffffffffffff021916908373ffffffffffffffffffffffffffffffffffffffff16021790555081600b60006101000a81548173ffffffffffffffffffffffffffffffffffffffff021916908373ffffffffffffffffffffffffffffffffffffffff16021790555080601060006101000a81548173ffffffffffffffffffffffffffffffffffffffff021916908373ffffffffffffffffffffffffffffffffffffffff160217905550505050565b60055481565b600960019054906101000a900473ffffffffffffffffffffffffffffffffffffffff1681565b60008060009054906101000a900473ffffffffffffffffffffffffffffffffffffffff1673ffffffffffffffffffffffffffffffffffffffff163373ffffffffffffffffffffffffffffffffffffffff16146141e457600080fd5b601660008373ffffffffffffffffffffffffffffffffffffffff1673ffffffffffffffffffffffffffffffffffffffff16815260200190815260200160002060009054906101000a900460ff166142f1576001601660008473ffffffffffffffffffffffffffffffffffffffff1673ffffffffffffffffffffffffffffffffffffffff16815260200190815260200160002060006101000a81548160ff0219169083151502179055506013829080600181540180825580915050600190039060005260206000200160009091909190916101000a81548173ffffffffffffffffffffffffffffffffffffffff021916908373ffffffffffffffffffffffffffffffffffffffff1602179055505b8173ffffffffffffffffffffffffffffffffffffffff163373ffffffffffffffffffffffffffffffffffffffff167fa2c962e87fd75165c1496c9ea420ddb0231e124bf2625a77f828287c8050006860405160405180910390a360019050919050565b6000600960009054906101000a900460ff161561441257600960019054906101000a900473ffffffffffffffffffffffffffffffffffffffff1673ffffffffffffffffffffffffffffffffffffffff16639d2cc4366040518163ffffffff1660e01b815260040160206040518083038186803b1580156143d357600080fd5b505afa1580156143e7573d6000803e3d6000fd5b505050506040513d601f19601f8201168201806040525081019061440b919061762a565b9050614438565b601060009054906101000a900473ffffffffffffffffffffffffffffffffffffffff1690505b90565b60156020528060005260406000206000915054906101000a900460ff1681565b600080821161449f576040517f08c379a0000000000000000000000000000000000000000000000000000000008152600401614496906181df565b60405180910390fd5b601660008473ffffffffffffffffffffffffffffffffffffffff1673ffffffffffffffffffffffffffffffffffffffff16815260200190815260200160002060009054906101000a900460ff1661452b576040517f08c379a00000000000000000000000000000000000000000000000000000000081526004016145229061801f565b60405180910390fd5b60006145378484616677565b9050600c60009054906101000a900473ffffffffffffffffffffffffffffffffffffffff1673ffffffffffffffffffffffffffffffffffffffff1663bf58d0ef8533846040518463ffffffff1660e01b815260040161459893929190617e31565b600060405180830381600087803b1580156145b257600080fd5b505af11580156145c6573d6000803e3d6000fd5b505050503373ffffffffffffffffffffffffffffffffffffffff167fe4dd259ab128527fe8b5fdae0b44bda8db95a4de10b999d63dce142b1eb88d5484836040516146129291906182b0565b60405180910390a2600191505092915050565b600061462f615559565b5060006040518060400160405280600581526020017f4752414e54000000000000000000000000000000000000000000000000000000815250905060016004600082825461467d91906184b1565b9250508190555080601b6000600454815260200190815260200160002090805190602001906146ad929190617036565b506146b661711b565b84816000019073ffffffffffffffffffffffffffffffffffffffff16908173ffffffffffffffffffffffffffffffffffffffff16815250508381602001818152505080601a6000600454815260200190815260200160002060008201518160000160006101000a81548173ffffffffffffffffffffffffffffffffffffffff021916908373ffffffffffffffffffffffffffffffffffffffff160217905550602082015181600101559050506004543373ffffffffffffffffffffffffffffffffffffffff167f8d500fcad86fc64a281b94ef64d6d66acbfc6862aa4ff2ee5fbbfb40736e803e846040516147ab9190617fdd565b60405180910390a36004549250505092915050565b60035481565b60196020528060005260406000206000915054906101000a900473ffffffffffffffffffffffffffffffffffffffff1681565b60008054906101000a900473ffffffffffffffffffffffffffffffffffffffff1673ffffffffffffffffffffffffffffffffffffffff163373ffffffffffffffffffffffffffffffffffffffff161461485157600080fd5b8060148190555050565b6000600960009054906101000a900460ff161561491957600960019054906101000a900473ffffffffffffffffffffffffffffffffffffffff1673ffffffffffffffffffffffffffffffffffffffff1663b93ec54b6040518163ffffffff1660e01b815260040160206040518083038186803b1580156148da57600080fd5b505afa1580156148ee573d6000803e3d6000fd5b505050506040513d601f19601f82011682018060405250810190614912919061767c565b905061493f565b600f60009054906101000a900473ffffffffffffffffffffffffffffffffffffffff1690505b90565b6000600960009054906101000a900460ff1615614a0057600960019054906101000a900473ffffffffffffffffffffffffffffffffffffffff1673ffffffffffffffffffffffffffffffffffffffff1663b99b0a0c6040518163ffffffff1660e01b815260040160206040518083038186803b1580156149c157600080fd5b505afa1580156149d5573d6000803e3d6000fd5b505050506040513d601f19601f820116820180604052508101906149f99190617601565b9050614a26565b600e60009054906101000a900473ffffffffffffffffffffffffffffffffffffffff1690505b90565b600080601c60008481526020019081526020016000205490506000600c60009054906101000a900473ffffffffffffffffffffffffffffffffffffffff1673ffffffffffffffffffffffffffffffffffffffff166396c82e576040518163ffffffff1660e01b815260040160206040518083038186803b158015614aac57600080fd5b505afa158015614ac0573d6000803e3d6000fd5b505050506040513d601f19601f82011682018060405250810190614ae49190617761565b600d60009054906101000a900473ffffffffffffffffffffffffffffffffffffffff1673ffffffffffffffffffffffffffffffffffffffff166396c82e576040518163ffffffff1660e01b815260040160206040518083038186803b158015614b4c57600080fd5b505afa158015614b60573d6000803e3d6000fd5b505050506040513d601f19601f82011682018060405250810190614b849190617761565b614b8e91906184b1565b90506000600382614b9f9190618507565b905080831115614bb55760019350505050614bbd565b600093505050505b919050565b60008060009054906101000a900473ffffffffffffffffffffffffffffffffffffffff1673ffffffffffffffffffffffffffffffffffffffff163373ffffffffffffffffffffffffffffffffffffffff1614614c1d57600080fd5b6000600160009054906101000a900473ffffffffffffffffffffffffffffffffffffffff1673ffffffffffffffffffffffffffffffffffffffff166370a08231306040518263ffffffff1660e01b8152600401614c7a9190617ded565b60206040518083038186803b158015614c9257600080fd5b505afa158015614ca6573d6000803e3d6000fd5b505050506040513d601f19601f82011682018060405250810190614cca9190617761565b9050600160009054906101000a900473ffffffffffffffffffffffffffffffffffffffff1673ffffffffffffffffffffffffffffffffffffffff166342966c68826040518263ffffffff1660e01b8152600401614d27919061823c565b600060405180830381600087803b158015614d4157600080fd5b505af1158015614d55573d6000803e3d6000fd5b50505050600191505090565b601b6020528060005260406000206000915090508054614d809061881a565b80601f0160208091040260200160405190810160405280929190818152602001828054614dac9061881a565b8015614df95780601f10614dce57610100808354040283529160200191614df9565b820191906000526020600020905b815481529060010190602001808311614ddc57829003601f168201915b505050505081565b60008054906101000a900473ffffffffffffffffffffffffffffffffffffffff1681565b60208052816000526040600020602052806000526040600020600091509150505481565b601a6020528060005260406000206000915090508060000160009054906101000a900473ffffffffffffffffffffffffffffffffffffffff16908060010154905082565b600080601c60008481526020019081526020016000205490506000600c60009054906101000a900473ffffffffffffffffffffffffffffffffffffffff1673ffffffffffffffffffffffffffffffffffffffff166396c82e576040518163ffffffff1660e01b815260040160206040518083038186803b158015614f1057600080fd5b505afa158015614f24573d6000803e3d6000fd5b505050506040513d601f19601f82011682018060405250810190614f489190617761565b600d60009054906101000a900473ffffffffffffffffffffffffffffffffffffffff1673ffffffffffffffffffffffffffffffffffffffff166396c82e576040518163ffffffff1660e01b815260040160206040518083038186803b158015614fb057600080fd5b505afa158015614fc4573d6000803e3d6000fd5b505050506040513d601f19601f82011682018060405250810190614fe89190617761565b614ff291906184b1565b905060006006826150039190618507565b9050808311156150195760019350505050615021565b600093505050505b919050565b6000615030615559565b5060016004600082825461504491906184b1565b9250508190555081601b600060045481526020019081526020016000209080519060200190615074929190617036565b506004543373ffffffffffffffffffffffffffffffffffffffff167f8d500fcad86fc64a281b94ef64d6d66acbfc6862aa4ff2ee5fbbfb40736e803e846040516150be9190617fdd565b60405180910390a36004549050919050565b60045481565b601c6020528060005260406000206000915090505481565b60008060009054906101000a900473ffffffffffffffffffffffffffffffffffffffff1673ffffffffffffffffffffffffffffffffffffffff163373ffffffffffffffffffffffffffffffffffffffff161461514957600080fd5b6000601660008473ffffffffffffffffffffffffffffffffffffffff1673ffffffffffffffffffffffffffffffffffffffff16815260200190815260200160002060006101000a81548160ff0219169083151502179055508173ffffffffffffffffffffffffffffffffffffffff163373ffffffffffffffffffffffffffffffffffffffff167ff487c2322baa448cfa506b983134d9dd9f27d0bbfe0b48119a3908d4f0dde89f60405160405180910390a360019050919050565b60008061521133846152f4565b905060008111156152ac57600c60009054906101000a900473ffffffffffffffffffffffffffffffffffffffff1673ffffffffffffffffffffffffffffffffffffffff16635bc262be84336040518363ffffffff1660e01b8152600401615279929190617e08565b600060405180830381600087803b15801561529357600080fd5b505af11580156152a7573d6000803e3d6000fd5b505050505b6001915050919050565b601d6020528060005260406000206000915090505481565b600160009054906101000a900473ffffffffffffffffffffffffffffffffffffffff1681565b600080600c60009054906101000a900473ffffffffffffffffffffffffffffffffffffffff1673ffffffffffffffffffffffffffffffffffffffff1663ba0ba54f85856040518363ffffffff1660e01b8152600401615354929190617e08565b602060405180830381600087803b15801561536e57600080fd5b505af1158015615382573d6000803e3d6000fd5b505050506040513d601f19601f820116820180604052508101906153a69190617761565b90508091505092915050565b6153ba61711b565b601a600083815260200190815260200160002060000160009054906101000a900473ffffffffffffffffffffffffffffffffffffffff16816000019073ffffffffffffffffffffffffffffffffffffffff16908173ffffffffffffffffffffffffffffffffffffffff1681525050601a600083815260200190815260200160002060010154816020018181525050919050565b6000615457615559565b5060016004600082825461546b91906184b1565b925050819055508260186000600454815260200190815260200160002060006101000a81548163ffffffff021916908363ffffffff16021790555081601b6000600454815260200190815260200160002090805190602001906154cf929190617036565b506004543373ffffffffffffffffffffffffffffffffffffffff167f8d500fcad86fc64a281b94ef64d6d66acbfc6862aa4ff2ee5fbbfb40736e803e846040516155199190617fdd565b60405180910390a3600454905092915050565b60166020528060005260406000206000915054906101000a900460ff1681565b6000601380549050905090565b600080670de0b6b3a76400006008546155729190618538565b9050600160009054906101000a900473ffffffffffffffffffffffffffffffffffffffff1673ffffffffffffffffffffffffffffffffffffffff166323b872dd33601060009054906101000a900473ffffffffffffffffffffffffffffffffffffffff16846040518463ffffffff1660e01b81526004016155f593929190617e31565b602060405180830381600087803b15801561560f57600080fd5b505af1158015615623573d6000803e3d6000fd5b505050506040513d601f19601f8201168201806040525081019061564791906174f1565b615686576040517f08c379a000000000000000000000000000000000000000000000000000000000815260040161567d9061805f565b60405180910390fd5b600191505090565b60006019600083815260200190815260200160002060009054906101000a900473ffffffffffffffffffffffffffffffffffffffff169050600073ffffffffffffffffffffffffffffffffffffffff168173ffffffffffffffffffffffffffffffffffffffff161415615736576040517f08c379a000000000000000000000000000000000000000000000000000000000815260040161572d906181bf565b60405180910390fd5b6019600083815260200190815260200160002060009054906101000a900473ffffffffffffffffffffffffffffffffffffffff16600960016101000a81548173ffffffffffffffffffffffffffffffffffffffff021916908373ffffffffffffffffffffffffffffffffffffffff160217905550600160009054906101000a900473ffffffffffffffffffffffffffffffffffffffff1673ffffffffffffffffffffffffffffffffffffffff16631d007f5f826040518263ffffffff1660e01b81526004016158059190617ded565b602060405180830381600087803b15801561581f57600080fd5b505af1158015615833573d6000803e3d6000fd5b505050506040513d601f19601f8201168201806040525081019061585791906174f1565b506001600960006101000a81548160ff02191690831515021790555061587c82616e1c565b5050565b60006019600083815260200190815260200160002060009054906101000a900473ffffffffffffffffffffffffffffffffffffffff169050600073ffffffffffffffffffffffffffffffffffffffff168173ffffffffffffffffffffffffffffffffffffffff161415615928576040517f08c379a000000000000000000000000000000000000000000000000000000000815260040161591f906181bf565b60405180910390fd5b80600a60006101000a81548173ffffffffffffffffffffffffffffffffffffffff021916908373ffffffffffffffffffffffffffffffffffffffff16021790555061597282616e1c565b5050565b60006019600083815260200190815260200160002060009054906101000a900473ffffffffffffffffffffffffffffffffffffffff169050600073ffffffffffffffffffffffffffffffffffffffff168173ffffffffffffffffffffffffffffffffffffffff161415615a1e576040517f08c379a0000000000000000000000000000000000000000000000000000000008152600401615a15906181bf565b60405180910390fd5b80600b60006101000a81548173ffffffffffffffffffffffffffffffffffffffff021916908373ffffffffffffffffffffffffffffffffffffffff160217905550615a6882616e1c565b5050565b60006019600083815260200190815260200160002060009054906101000a900473ffffffffffffffffffffffffffffffffffffffff169050600073ffffffffffffffffffffffffffffffffffffffff168173ffffffffffffffffffffffffffffffffffffffff161415615b14576040517f08c379a0000000000000000000000000000000000000000000000000000000008152600401615b0b906181bf565b60405180910390fd5b80601060006101000a81548173ffffffffffffffffffffffffffffffffffffffff021916908373ffffffffffffffffffffffffffffffffffffffff160217905550615b5e82616e1c565b5050565b600160009054906101000a900473ffffffffffffffffffffffffffffffffffffffff1673ffffffffffffffffffffffffffffffffffffffff1663fe1fa8fa6040518163ffffffff1660e01b8152600401602060405180830381600087803b158015615bcc57600080fd5b505af1158015615be0573d6000803e3d6000fd5b505050506040513d601f19601f82011682018060405250810190615c0491906174f1565b50615c0e81616e1c565b50565b60006018600083815260200190815260200160002060009054906101000a900463ffffffff16905060008163ffffffff161415615c83576040517f08c379a0000000000000000000000000000000000000000000000000000000008152600401615c7a9061807f565b60405180910390fd5b8063ffffffff16600381905550615c9982616e1c565b5050565b60006018600083815260200190815260200160002060009054906101000a900463ffffffff16905060008163ffffffff161415615d0f576040517f08c379a0000000000000000000000000000000000000000000000000000000008152600401615d069061807f565b60405180910390fd5b8063ffffffff16600681905550615d2582616e1c565b5050565b6000601a60008381526020019081526020016000206040518060400160405290816000820160009054906101000a900473ffffffffffffffffffffffffffffffffffffffff1673ffffffffffffffffffffffffffffffffffffffff1673ffffffffffffffffffffffffffffffffffffffff1681526020016001820154815250509050601060009054906101000a900473ffffffffffffffffffffffffffffffffffffffff1673ffffffffffffffffffffffffffffffffffffffff16637d458baa826020015183600001516040518363ffffffff1660e01b8152600401615e10929190618257565b600060405180830381600087803b158015615e2a57600080fd5b505af1158015615e3e573d6000803e3d6000fd5b50505050615e4b82616e1c565b5050565b60006a02116545850052128000009050600160009054906101000a900473ffffffffffffffffffffffffffffffffffffffff1673ffffffffffffffffffffffffffffffffffffffff1663d01f6fba82306040518363ffffffff1660e01b8152600401615ebc929190618257565b600060405180830381600087803b158015615ed657600080fd5b505af1158015615eea573d6000803e3d6000fd5b50505050615ef782616e1c565b5050565b60006019600083815260200190815260200160002060009054906101000a900473ffffffffffffffffffffffffffffffffffffffff169050615f3c81614189565b50615f4682616e1c565b5050565b60006019600083815260200190815260200160002060009054906101000a900473ffffffffffffffffffffffffffffffffffffffff169050600073ffffffffffffffffffffffffffffffffffffffff168173ffffffffffffffffffffffffffffffffffffffff161415615ff2576040517f08c379a0000000000000000000000000000000000000000000000000000000008152600401615fe9906181bf565b60405180910390fd5b615ffb816150ee565b5061600582616e1c565b5050565b60006019600083815260200190815260200160002060009054906101000a900473ffffffffffffffffffffffffffffffffffffffff169050600073ffffffffffffffffffffffffffffffffffffffff168173ffffffffffffffffffffffffffffffffffffffff1614156160b1576040517f08c379a00000000000000000000000000000000000000000000000000000000081526004016160a8906181bf565b60405180910390fd5b600e60009054906101000a900473ffffffffffffffffffffffffffffffffffffffff1673ffffffffffffffffffffffffffffffffffffffff16632b2260a8826040518263ffffffff1660e01b815260040161610c9190617ded565b602060405180830381600087803b15801561612657600080fd5b505af115801561613a573d6000803e3d6000fd5b505050506040513d601f19601f8201168201806040525081019061615e91906174f1565b5061616882616e1c565b5050565b60006019600083815260200190815260200160002060009054906101000a900473ffffffffffffffffffffffffffffffffffffffff169050600073ffffffffffffffffffffffffffffffffffffffff168173ffffffffffffffffffffffffffffffffffffffff161415616214576040517f08c379a000000000000000000000000000000000000000000000000000000000815260040161620b906181bf565b60405180910390fd5b600e60009054906101000a900473ffffffffffffffffffffffffffffffffffffffff1673ffffffffffffffffffffffffffffffffffffffff16637ca51fbf826040518263ffffffff1660e01b815260040161626f9190617ded565b602060405180830381600087803b15801561628957600080fd5b505af115801561629d573d6000803e3d6000fd5b505050506040513d601f19601f820116820180604052508101906162c191906174f1565b506162cb82616e1c565b5050565b60006020600083815260200190815260200160002060003373ffffffffffffffffffffffffffffffffffffffff1673ffffffffffffffffffffffffffffffffffffffff16815260200190815260200160002054601c600084815260200190815260200160002060008282546163449190618592565b92505081905550600c60009054906101000a900473ffffffffffffffffffffffffffffffffffffffff1673ffffffffffffffffffffffffffffffffffffffff16635364df49336040518263ffffffff1660e01b81526004016163a69190617ded565b60206040518083038186803b1580156163be57600080fd5b505afa1580156163d2573d6000803e3d6000fd5b505050506040513d601f19601f820116820180604052508101906163f69190617761565b600d60009054906101000a900473ffffffffffffffffffffffffffffffffffffffff1673ffffffffffffffffffffffffffffffffffffffff16635364df49336040518263ffffffff1660e01b81526004016164519190617ded565b60206040518083038186803b15801561646957600080fd5b505afa15801561647d573d6000803e3d6000fd5b505050506040513d601f19601f820116820180604052508101906164a19190617761565b6164ab91906184b1565b905080601c600084815260200190815260200160002060008282546164d091906184b1565b92505081905550806020600084815260200190815260200160002060003373ffffffffffffffffffffffffffffffffffffffff1673ffffffffffffffffffffffffffffffffffffffff16815260200190815260200160002081905550919050565b6000601b600083815260200190815260200160002080546165519061881a565b80601f016020809104026020016040519081016040528092919081815260200182805461657d9061881a565b80156165ca5780601f1061659f576101008083540402835291602001916165ca565b820191906000526020600020905b8154815290600101906020018083116165ad57829003601f168201915b505050505090506001601e600084815260200190815260200160002060006101000a81548160ff02191690831515021790555042601d600084815260200190815260200160002081905550813373ffffffffffffffffffffffffffffffffffffffff167f0f36aea5066f9f90a999260fe4ce8d7713f7f07f5ae61bf36d73cc51170a3a9e6003544261665c91906184b1565b8460405161666b929190618280565b60405180910390a35050565b600080600b60009054906101000a900473ffffffffffffffffffffffffffffffffffffffff1673ffffffffffffffffffffffffffffffffffffffff1663b80e44b885856040518363ffffffff1660e01b81526004016166d7929190617e68565b60206040518083038186803b1580156166ef57600080fd5b505afa158015616703573d6000803e3d6000fd5b505050506040513d601f19601f820116820180604052508101906167279190617761565b9050600073ffffffffffffffffffffffffffffffffffffffff168473ffffffffffffffffffffffffffffffffffffffff161415616ac55780600160009054906101000a900473ffffffffffffffffffffffffffffffffffffffff1673ffffffffffffffffffffffffffffffffffffffff1663dd62ed3e30600a60009054906101000a900473ffffffffffffffffffffffffffffffffffffffff166040518363ffffffff1660e01b81526004016167de929190617e08565b60206040518083038186803b1580156167f657600080fd5b505afa15801561680a573d6000803e3d6000fd5b505050506040513d601f19601f8201168201806040525081019061682e9190617761565b10156169a657600160009054906101000a900473ffffffffffffffffffffffffffffffffffffffff1673ffffffffffffffffffffffffffffffffffffffff1663095ea7b3600a60009054906101000a900473ffffffffffffffffffffffffffffffffffffffff16600160009054906101000a900473ffffffffffffffffffffffffffffffffffffffff1673ffffffffffffffffffffffffffffffffffffffff166318160ddd6040518163ffffffff1660e01b815260040160206040518083038186803b1580156168fd57600080fd5b505afa158015616911573d6000803e3d6000fd5b505050506040513d601f19601f820116820180604052508101906169359190617761565b6040518363ffffffff1660e01b8152600401616952929190617e68565b602060405180830381600087803b15801561696c57600080fd5b505af1158015616980573d6000803e3d6000fd5b505050506040513d601f19601f820116820180604052508101906169a491906174f1565b505b3483146169e8576040517f08c379a00000000000000000000000000000000000000000000000000000000081526004016169df9061809f565b60405180910390fd5b600a60009054906101000a900473ffffffffffffffffffffffffffffffffffffffff1673ffffffffffffffffffffffffffffffffffffffff166393cac68584838688600c60009054906101000a900473ffffffffffffffffffffffffffffffffffffffff166040518663ffffffff1660e01b8152600401616a6c94939291906182d9565b6020604051808303818588803b158015616a8557600080fd5b505af1158015616a99573d6000803e3d6000fd5b50505050506040513d601f19601f82011682018060405250810190616abe9190617761565b9150616e15565b8373ffffffffffffffffffffffffffffffffffffffff166323b872dd3330866040518463ffffffff1660e01b8152600401616b0293929190617e31565b602060405180830381600087803b158015616b1c57600080fd5b505af1158015616b30573d6000803e3d6000fd5b505050506040513d601f19601f82011682018060405250810190616b5491906174f1565b50828473ffffffffffffffffffffffffffffffffffffffff1663dd62ed3e30600a60009054906101000a900473ffffffffffffffffffffffffffffffffffffffff166040518363ffffffff1660e01b8152600401616bb3929190617e08565b60206040518083038186803b158015616bcb57600080fd5b505afa158015616bdf573d6000803e3d6000fd5b505050506040513d601f19601f82011682018060405250810190616c039190617761565b1015616d3d5760008473ffffffffffffffffffffffffffffffffffffffff166318160ddd6040518163ffffffff1660e01b815260040160206040518083038186803b158015616c5157600080fd5b505afa158015616c65573d6000803e3d6000fd5b505050506040513d601f19601f82011682018060405250810190616c899190617761565b90508473ffffffffffffffffffffffffffffffffffffffff1663095ea7b3600a60009054906101000a900473ffffffffffffffffffffffffffffffffffffffff16836040518363ffffffff1660e01b8152600401616ce8929190617e68565b602060405180830381600087803b158015616d0257600080fd5b505af1158015616d16573d6000803e3d6000fd5b505050506040513d601f19601f82011682018060405250810190616d3a91906174f1565b50505b600a60009054906101000a900473ffffffffffffffffffffffffffffffffffffffff1673ffffffffffffffffffffffffffffffffffffffff166393cac685828587600c60009054906101000a900473ffffffffffffffffffffffffffffffffffffffff166040518563ffffffff1660e01b8152600401616dc094939291906182d9565b602060405180830381600087803b158015616dda57600080fd5b505af1158015616dee573d6000803e3d6000fd5b505050506040513d601f19601f82011682018060405250810190616e129190617761565b91505b5092915050565b6000601b60008381526020019081526020016000208054616e3c9061881a565b80601f0160208091040260200160405190810160405280929190818152602001828054616e689061881a565b8015616eb55780601f10616e8a57610100808354040283529160200191616eb5565b820191906000526020600020905b815481529060010190602001808311616e9857829003601f168201915b50505050509050813373ffffffffffffffffffffffffffffffffffffffff167f28fca9bc3d4a734a707bd9396d50341c1f45e1d455c4aa4a58ceee0e09f64544601c600086815260200190815260200160002054600d60009054906101000a900473ffffffffffffffffffffffffffffffffffffffff1673ffffffffffffffffffffffffffffffffffffffff166396c82e576040518163ffffffff1660e01b815260040160206040518083038186803b158015616f7157600080fd5b505afa158015616f85573d6000803e3d6000fd5b505050506040513d601f19601f82011682018060405250810190616fa99190617761565b85604051616fb99392919061831e565b60405180910390a36000601c6000848152602001908152602001600020819055506001601f600084815260200190815260200160002060006101000a81548160ff0219169083151502179055506000601e600084815260200190815260200160002060006101000a81548160ff0219169083151502179055505050565b8280546170429061881a565b90600052602060002090601f01602090048101928261706457600085556170ab565b82601f1061707d57805160ff19168380011785556170ab565b828001600101855582156170ab579182015b828111156170aa57825182559160200191906001019061708f565b5b5090506170b8919061714b565b5090565b6040518061010001604052806000815260200160608152602001600081526020016000815260200160001515815260200160001515815260200160008152602001600073ffffffffffffffffffffffffffffffffffffffff1681525090565b6040518060400160405280600073ffffffffffffffffffffffffffffffffffffffff168152602001600081525090565b5b8082111561716457600081600090555060010161714c565b5090565b600061717b617176846183d3565b6183ae565b90508281526020810184848401111561719357600080fd5b61719e8482856187d8565b509392505050565b60006171b96171b484618404565b6183ae565b9050828152602081018484840111156171d157600080fd5b6171dc8482856187d8565b509392505050565b6000813590506171f381618c23565b92915050565b60008151905061720881618c3a565b92915050565b60008151905061721d81618c51565b92915050565b600082601f83011261723457600080fd5b8135617244848260208601617168565b91505092915050565b60008151905061725c81618c68565b92915050565b60008151905061727181618c7f565b92915050565b60008151905061728681618c96565b92915050565b60008151905061729b81618cad565b92915050565b6000815190506172b081618cc4565b92915050565b6000815190506172c581618cdb565b92915050565b6000815190506172da81618cf2565b92915050565b6000815190506172ef81618d09565b92915050565b600082601f83011261730657600080fd5b81356173168482602086016171a6565b91505092915050565b60008135905061732e81618d20565b92915050565b60008151905061734381618d20565b92915050565b60008135905061735881618d37565b92915050565b60006020828403121561737057600080fd5b600061737e848285016171e4565b91505092915050565b6000806040838503121561739a57600080fd5b60006173a8858286016171e4565b92505060206173b9858286016171e4565b9150509250929050565b6000806000606084860312156173d857600080fd5b60006173e6868287016171e4565b93505060206173f7868287016171e4565b9250506040617408868287016171e4565b9150509250925092565b6000806040838503121561742557600080fd5b6000617433858286016171e4565b925050602083013567ffffffffffffffff81111561745057600080fd5b61745c858286016172f5565b9150509250929050565b6000806040838503121561747957600080fd5b6000617487858286016171e4565b92505060206174988582860161731f565b9150509250929050565b6000806000606084860312156174b757600080fd5b60006174c5868287016171e4565b93505060206174d68682870161731f565b92505060406174e7868287016171e4565b9150509250925092565b60006020828403121561750357600080fd5b6000617511848285016171f9565b91505092915050565b60006020828403121561752c57600080fd5b600061753a8482850161720e565b91505092915050565b6000806040838503121561755657600080fd5b600083013567ffffffffffffffff81111561757057600080fd5b61757c85828601617223565b925050602083013567ffffffffffffffff81111561759957600080fd5b6175a585828601617223565b9150509250929050565b6000602082840312156175c157600080fd5b60006175cf8482850161724d565b91505092915050565b6000602082840312156175ea57600080fd5b60006175f884828501617262565b91505092915050565b60006020828403121561761357600080fd5b600061762184828501617277565b91505092915050565b60006020828403121561763c57600080fd5b600061764a8482850161728c565b91505092915050565b60006020828403121561766557600080fd5b6000617673848285016172a1565b91505092915050565b60006020828403121561768e57600080fd5b600061769c848285016172b6565b91505092915050565b6000602082840312156176b757600080fd5b60006176c5848285016172cb565b91505092915050565b6000602082840312156176e057600080fd5b60006176ee848285016172e0565b91505092915050565b60006020828403121561770957600080fd5b600082013567ffffffffffffffff81111561772357600080fd5b61772f848285016172f5565b91505092915050565b60006020828403121561774a57600080fd5b60006177588482850161731f565b91505092915050565b60006020828403121561777357600080fd5b600061778184828501617334565b91505092915050565b6000806040838503121561779d57600080fd5b60006177ab8582860161731f565b92505060206177bc858286016171e4565b9150509250929050565b600080604083850312156177d957600080fd5b60006177e78582860161731f565b92505060206177f88582860161731f565b9150509250929050565b6000806040838503121561781557600080fd5b600061782385828601617349565b925050602083013567ffffffffffffffff81111561784057600080fd5b61784c858286016172f5565b9150509250929050565b600080600080600060a0868803121561786e57600080fd5b600061787c88828901617349565b955050602061788d88828901617349565b945050604061789e88828901617349565b93505060606178af88828901617349565b92505060806178c088828901617349565b9150509295509295909350565b60006178d983836178e5565b60208301905092915050565b6178ee816185c6565b82525050565b6178fd816185c6565b82525050565b600061790e82618445565b6179188185618473565b935061792383618435565b8060005b8381101561795457815161793b88826178cd565b975061794683618466565b925050600181019050617927565b5085935050505092915050565b61796a816185d8565b82525050565b617979816185d8565b82525050565b600061798a82618450565b6179948185618484565b93506179a48185602086016187e7565b80840191505092915050565b6179b9816186b8565b82525050565b6179c8816186dc565b82525050565b6179d781618700565b82525050565b6179e681618724565b82525050565b6179f581618748565b82525050565b617a048161876c565b82525050565b617a1381618790565b82525050565b617a22816187b4565b82525050565b6000617a338261845b565b617a3d818561848f565b9350617a4d8185602086016187e7565b617a5681618982565b840191505092915050565b6000617a6c8261845b565b617a7681856184a0565b9350617a868185602086016187e7565b617a8f81618982565b840191505092915050565b6000617aa76006836184a0565b9150617ab282618993565b602082019050919050565b6000617aca6007836184a0565b9150617ad5826189bc565b602082019050919050565b6000617aed6007836184a0565b9150617af8826189e5565b602082019050919050565b6000617b106004836184a0565b9150617b1b82618a0e565b602082019050919050565b6000617b336011836184a0565b9150617b3e82618a37565b602082019050919050565b6000617b566008836184a0565b9150617b6182618a60565b602082019050919050565b6000617b79600a836184a0565b9150617b8482618a89565b602082019050919050565b6000617b9c600b836184a0565b9150617ba782618ab2565b602082019050919050565b6000617bbf6007836184a0565b9150617bca82618adb565b602082019050919050565b6000617be26009836184a0565b9150617bed82618b04565b602082019050919050565b6000617c056008836184a0565b9150617c1082618b2d565b602082019050919050565b6000617c286005836184a0565b9150617c3382618b56565b602082019050919050565b6000617c4b6009836184a0565b9150617c5682618b7f565b602082019050919050565b6000617c6e6009836184a0565b9150617c7982618ba8565b602082019050919050565b6000617c916013836184a0565b9150617c9c82618bd1565b602082019050919050565b6000617cb46006836184a0565b9150617cbf82618bfa565b602082019050919050565b604082016000820151617ce060008501826178e5565b506020820151617cf36020850182617da9565b50505050565b600061010083016000830151617d126000860182617da9565b5060208301518482036020860152617d2a8282617a28565b9150506040830151617d3f6040860182617da9565b506060830151617d526060860182617da9565b506080830151617d656080860182617961565b5060a0830151617d7860a0860182617961565b5060c0830151617d8b60c0860182617da9565b5060e0830151617d9e60e08601826178e5565b508091505092915050565b617db28161869e565b82525050565b617dc18161869e565b82525050565b617dd0816186a8565b82525050565b6000617de2828461797f565b915081905092915050565b6000602082019050617e0260008301846178f4565b92915050565b6000604082019050617e1d60008301856178f4565b617e2a60208301846178f4565b9392505050565b6000606082019050617e4660008301866178f4565b617e5360208301856178f4565b617e606040830184617db8565b949350505050565b6000604082019050617e7d60008301856178f4565b617e8a6020830184617db8565b9392505050565b6000606082019050617ea660008301866178f4565b617eb36020830185617db8565b617ec060408301846178f4565b949350505050565b60006020820190508181036000830152617ee28184617903565b905092915050565b6000602082019050617eff6000830184617970565b92915050565b6000602082019050617f1a60008301846179b0565b92915050565b6000602082019050617f3560008301846179bf565b92915050565b6000602082019050617f5060008301846179ce565b92915050565b6000602082019050617f6b60008301846179dd565b92915050565b6000602082019050617f8660008301846179ec565b92915050565b6000602082019050617fa160008301846179fb565b92915050565b6000602082019050617fbc6000830184617a0a565b92915050565b6000602082019050617fd76000830184617a19565b92915050565b60006020820190508181036000830152617ff78184617a61565b905092915050565b6000602082019050818103600083015261801881617a9a565b9050919050565b6000602082019050818103600083015261803881617abd565b9050919050565b6000602082019050818103600083015261805881617ae0565b9050919050565b6000602082019050818103600083015261807881617b03565b9050919050565b6000602082019050818103600083015261809881617b26565b9050919050565b600060208201905081810360008301526180b881617b49565b9050919050565b600060208201905081810360008301526180d881617b6c565b9050919050565b600060208201905081810360008301526180f881617b8f565b9050919050565b6000602082019050818103600083015261811881617bb2565b9050919050565b6000602082019050818103600083015261813881617bd5565b9050919050565b6000602082019050818103600083015261815881617bf8565b9050919050565b6000602082019050818103600083015261817881617c1b565b9050919050565b6000602082019050818103600083015261819881617c3e565b9050919050565b600060208201905081810360008301526181b881617c61565b9050919050565b600060208201905081810360008301526181d881617c84565b9050919050565b600060208201905081810360008301526181f881617ca7565b9050919050565b60006040820190506182146000830184617cca565b92915050565b600060208201905081810360008301526182348184617cf9565b905092915050565b60006020820190506182516000830184617db8565b92915050565b600060408201905061826c6000830185617db8565b61827960208301846178f4565b9392505050565b60006040820190506182956000830185617db8565b81810360208301526182a78184617a61565b90509392505050565b60006040820190506182c56000830185617db8565b6182d26020830184617db8565b9392505050565b60006080820190506182ee6000830187617db8565b6182fb6020830186617db8565b61830860408301856178f4565b61831560608301846178f4565b95945050505050565b60006060820190506183336000830186617db8565b6183406020830185617db8565b81810360408301526183528184617a61565b9050949350505050565b60006060820190506183716000830186617db8565b61837e6020830185617db8565b61838b6040830184617db8565b949350505050565b60006020820190506183a86000830184617dc7565b92915050565b60006183b86183c9565b90506183c4828261884c565b919050565b6000604051905090565b600067ffffffffffffffff8211156183ee576183ed618953565b5b6183f782618982565b9050602081019050919050565b600067ffffffffffffffff82111561841f5761841e618953565b5b61842882618982565b9050602081019050919050565b6000819050602082019050919050565b600081519050919050565b600081519050919050565b600081519050919050565b6000602082019050919050565b600082825260208201905092915050565b600081905092915050565b600082825260208201905092915050565b600082825260208201905092915050565b60006184bc8261869e565b91506184c78361869e565b9250827fffffffffffffffffffffffffffffffffffffffffffffffffffffffffffffffff038211156184fc576184fb6188c6565b5b828201905092915050565b60006185128261869e565b915061851d8361869e565b92508261852d5761852c6188f5565b5b828204905092915050565b60006185438261869e565b915061854e8361869e565b9250817fffffffffffffffffffffffffffffffffffffffffffffffffffffffffffffffff0483118215151615618587576185866188c6565b5b828202905092915050565b600061859d8261869e565b91506185a88361869e565b9250828210156185bb576185ba6188c6565b5b828203905092915050565b60006185d18261867e565b9050919050565b60008115159050919050565b6000819050919050565b60006185f9826185c6565b9050919050565b600061860b826185c6565b9050919050565b600061861d826185c6565b9050919050565b600061862f826185c6565b9050919050565b6000618641826185c6565b9050919050565b6000618653826185c6565b9050919050565b6000618665826185c6565b9050919050565b6000618677826185c6565b9050919050565b600073ffffffffffffffffffffffffffffffffffffffff82169050919050565b6000819050919050565b600063ffffffff82169050919050565b60006186c3826186ca565b9050919050565b60006186d58261867e565b9050919050565b60006186e7826186ee565b9050919050565b60006186f98261867e565b9050919050565b600061870b82618712565b9050919050565b600061871d8261867e565b9050919050565b600061872f82618736565b9050919050565b60006187418261867e565b9050919050565b60006187538261875a565b9050919050565b60006187658261867e565b9050919050565b60006187778261877e565b9050919050565b60006187898261867e565b9050919050565b600061879b826187a2565b9050919050565b60006187ad8261867e565b9050919050565b60006187bf826187c6565b9050919050565b60006187d18261867e565b9050919050565b82818337600083830152505050565b60005b838110156188055780820151818401526020810190506187ea565b83811115618814576000848401525b50505050565b6000600282049050600182168061883257607f821691505b6020821081141561884657618845618924565b5b50919050565b61885582618982565b810181811067ffffffffffffffff8211171561887457618873618953565b5b80604052505050565b60006188888261869e565b91507fffffffffffffffffffffffffffffffffffffffffffffffffffffffffffffffff8214156188bb576188ba6188c6565b5b600182019050919050565b7f4e487b7100000000000000000000000000000000000000000000000000000000600052601160045260246000fd5b7f4e487b7100000000000000000000000000000000000000000000000000000000600052601260045260246000fd5b7f4e487b7100000000000000000000000000000000000000000000000000000000600052602260045260246000fd5b7f4e487b7100000000000000000000000000000000000000000000000000000000600052604160045260246000fd5b6000601f19601f8301169050919050565b7f2146554e44530000000000000000000000000000000000000000000000000000600082015250565b7f216c697374656400000000000000000000000000000000000000000000000000600082015250565b7f21416d6f756e7400000000000000000000000000000000000000000000000000600082015250565b7f2166656500000000000000000000000000000000000000000000000000000000600082015250565b7f4e6f20706172616d2070726f706f736564000000000000000000000000000000600082015250565b7f496e707574457272000000000000000000000000000000000000000000000000600082015250565b7f21454d495353494f4e5300000000000000000000000000000000000000000000600082015250565b7f2166696e616c6973696e67000000000000000000000000000000000000000000600082015250565b7f216d656d62657200000000000000000000000000000000000000000000000000600082015250565b7f21636f6f6c206f66660000000000000000000000000000000000000000000000600082015250565b7f2143757261746564000000000000000000000000000000000000000000000000600082015250565b7f2173616d65000000000000000000000000000000000000000000000000000000600082015250565b7f217472616e736665720000000000000000000000000000000000000000000000600082015250565b7f216d696e6f726974790000000000000000000000000000000000000000000000600082015250565b7f4e6f20616464726573732070726f706f73656400000000000000000000000000600082015250565b7f2161737365740000000000000000000000000000000000000000000000000000600082015250565b618c2c816185c6565b8114618c3757600080fd5b50565b618c43816185d8565b8114618c4e57600080fd5b50565b618c5a816185e4565b8114618c6557600080fd5b50565b618c71816185ee565b8114618c7c57600080fd5b50565b618c8881618600565b8114618c9357600080fd5b50565b618c9f81618612565b8114618caa57600080fd5b50565b618cb681618624565b8114618cc157600080fd5b50565b618ccd81618636565b8114618cd857600080fd5b50565b618ce481618648565b8114618cef57600080fd5b50565b618cfb8161865a565b8114618d0657600080fd5b50565b618d128161866c565b8114618d1d57600080fd5b50565b618d298161869e565b8114618d3457600080fd5b50565b618d40816186a8565b8114618d4b57600080fd5b5056fea2646970667358221220705fa5114b2d715612a3cd0fbe7882f65d576dd18d7147bc6132b95704db92a564736f6c63430008030033",
  "linkReferences": {},
  "deployedLinkReferences": {}
}