{
  "_format": "hh-sol-artifact-1",
  "contractName": "Dao",
  "sourceName": "contracts/Dao.sol",
  "abi": [
    {
      "inputs": [
        {
          "internalType": "address",
          "name": "_base",
          "type": "address"
        }
      ],
      "stateMutability": "nonpayable",
      "type": "constructor"
    },
    {
      "anonymous": false,
      "inputs": [
        {
          "indexed": true,
          "internalType": "address",
          "name": "member",
          "type": "address"
        },
        {
          "indexed": true,
          "internalType": "uint256",
          "name": "proposalID",
          "type": "uint256"
        }
      ],
      "name": "CancelProposal",
      "type": "event"
    },
    {
      "anonymous": false,
      "inputs": [
        {
          "indexed": true,
          "internalType": "address",
          "name": "owner",
          "type": "address"
        },
        {
          "indexed": true,
          "internalType": "address",
          "name": "tokenAddress",
          "type": "address"
        },
        {
          "indexed": true,
          "internalType": "address",
          "name": "poolAddress",
          "type": "address"
        },
        {
          "indexed": false,
          "internalType": "uint256",
          "name": "depositAmount",
          "type": "uint256"
        },
        {
          "indexed": false,
          "internalType": "uint256",
          "name": "bondedLP",
          "type": "uint256"
        }
      ],
      "name": "DepositAsset",
      "type": "event"
    },
    {
      "anonymous": false,
      "inputs": [
        {
          "indexed": true,
          "internalType": "address",
          "name": "member",
          "type": "address"
        },
        {
          "indexed": true,
          "internalType": "uint256",
          "name": "proposalID",
          "type": "uint256"
        },
        {
          "indexed": false,
          "internalType": "string",
          "name": "proposalType",
          "type": "string"
        }
      ],
      "name": "FinalisedProposal",
      "type": "event"
    },
    {
      "anonymous": false,
      "inputs": [
        {
          "indexed": true,
          "internalType": "address",
          "name": "owner",
          "type": "address"
        },
        {
          "indexed": false,
          "internalType": "uint256",
          "name": "amount",
          "type": "uint256"
        }
      ],
      "name": "Harvest",
      "type": "event"
    },
    {
      "anonymous": false,
      "inputs": [
        {
          "indexed": true,
          "internalType": "address",
          "name": "member",
          "type": "address"
        },
        {
          "indexed": true,
          "internalType": "address",
          "name": "pool",
          "type": "address"
        },
        {
          "indexed": false,
          "internalType": "uint256",
          "name": "amount",
          "type": "uint256"
        }
      ],
      "name": "MemberDeposits",
      "type": "event"
    },
    {
      "anonymous": false,
      "inputs": [
        {
          "indexed": true,
          "internalType": "address",
          "name": "member",
          "type": "address"
        },
        {
          "indexed": true,
          "internalType": "address",
          "name": "pool",
          "type": "address"
        },
        {
          "indexed": false,
          "internalType": "uint256",
          "name": "balance",
          "type": "uint256"
        }
      ],
      "name": "MemberWithdraws",
      "type": "event"
    },
    {
      "anonymous": false,
      "inputs": [
        {
          "indexed": true,
          "internalType": "address",
          "name": "member",
          "type": "address"
        },
        {
          "indexed": true,
          "internalType": "uint256",
          "name": "proposalID",
          "type": "uint256"
        },
        {
          "indexed": false,
          "internalType": "string",
          "name": "proposalType",
          "type": "string"
        }
      ],
      "name": "NewProposal",
      "type": "event"
    },
    {
      "anonymous": false,
      "inputs": [
        {
          "indexed": true,
          "internalType": "address",
          "name": "member",
          "type": "address"
        },
        {
          "indexed": true,
          "internalType": "uint256",
          "name": "proposalID",
          "type": "uint256"
        },
        {
          "indexed": false,
          "internalType": "string",
          "name": "proposalType",
          "type": "string"
        }
      ],
      "name": "NewVote",
      "type": "event"
    },
    {
      "anonymous": false,
      "inputs": [
        {
          "indexed": true,
          "internalType": "address",
          "name": "member",
          "type": "address"
        },
        {
          "indexed": true,
          "internalType": "uint256",
          "name": "proposalID",
          "type": "uint256"
        },
        {
          "indexed": false,
          "internalType": "uint256",
          "name": "timeFinalised",
          "type": "uint256"
        },
        {
          "indexed": false,
          "internalType": "string",
          "name": "proposalType",
          "type": "string"
        }
      ],
      "name": "ProposalFinalising",
      "type": "event"
    },
    {
      "anonymous": false,
      "inputs": [
        {
          "indexed": true,
          "internalType": "address",
          "name": "member",
          "type": "address"
        },
        {
          "indexed": true,
          "internalType": "uint256",
          "name": "proposalID",
          "type": "uint256"
        },
        {
          "indexed": false,
          "internalType": "string",
          "name": "proposalType",
          "type": "string"
        }
      ],
      "name": "RemovedVote",
      "type": "event"
    },
    {
      "inputs": [],
      "name": "BASE",
      "outputs": [
        {
          "internalType": "address",
          "name": "",
          "type": "address"
        }
      ],
      "stateMutability": "view",
      "type": "function"
    },
    {
      "inputs": [],
      "name": "BONDVAULT",
      "outputs": [
        {
          "internalType": "contract iBONDVAULT",
          "name": "",
          "type": "address"
        }
      ],
      "stateMutability": "view",
      "type": "function"
    },
    {
      "inputs": [],
      "name": "DAO",
      "outputs": [
        {
          "internalType": "address",
          "name": "",
          "type": "address"
        }
      ],
      "stateMutability": "view",
      "type": "function"
    },
    {
      "inputs": [],
      "name": "DAOVAULT",
      "outputs": [
        {
          "internalType": "contract iDAOVAULT",
          "name": "",
          "type": "address"
        }
      ],
      "stateMutability": "view",
      "type": "function"
    },
    {
      "inputs": [],
      "name": "LEND",
      "outputs": [
        {
          "internalType": "contract iLEND",
          "name": "",
          "type": "address"
        }
      ],
      "stateMutability": "view",
      "type": "function"
    },
    {
      "inputs": [],
      "name": "POOLFACTORY",
      "outputs": [
        {
          "internalType": "contract iPOOLFACTORY",
          "name": "",
          "type": "address"
        }
      ],
      "stateMutability": "view",
      "type": "function"
    },
    {
      "inputs": [],
      "name": "RESERVE",
      "outputs": [
        {
          "internalType": "contract iRESERVE",
          "name": "",
          "type": "address"
        }
      ],
      "stateMutability": "view",
      "type": "function"
    },
    {
      "inputs": [],
      "name": "ROUTER",
      "outputs": [
        {
          "internalType": "contract iROUTER",
          "name": "",
          "type": "address"
        }
      ],
      "stateMutability": "view",
      "type": "function"
    },
    {
      "inputs": [],
      "name": "SYNTHFACTORY",
      "outputs": [
        {
          "internalType": "contract iSYNTHFACTORY",
          "name": "",
          "type": "address"
        }
      ],
      "stateMutability": "view",
      "type": "function"
    },
    {
      "inputs": [],
      "name": "SYNTHVAULT",
      "outputs": [
        {
          "internalType": "contract iSYNTHVAULT",
          "name": "",
          "type": "address"
        }
      ],
      "stateMutability": "view",
      "type": "function"
    },
    {
      "inputs": [],
      "name": "UTILS",
      "outputs": [
        {
          "internalType": "contract iUTILS",
          "name": "",
          "type": "address"
        }
      ],
      "stateMutability": "view",
      "type": "function"
    },
    {
      "inputs": [
        {
          "internalType": "uint256",
          "name": "",
          "type": "uint256"
        }
      ],
      "name": "arrayMembers",
      "outputs": [
        {
          "internalType": "address",
          "name": "",
          "type": "address"
        }
      ],
      "stateMutability": "view",
      "type": "function"
    },
    {
      "inputs": [
        {
          "internalType": "address",
          "name": "asset",
          "type": "address"
        },
        {
          "internalType": "uint256",
          "name": "amount",
          "type": "uint256"
        }
      ],
      "name": "bond",
      "outputs": [
        {
          "internalType": "bool",
          "name": "success",
          "type": "bool"
        }
      ],
      "stateMutability": "payable",
      "type": "function"
    },
    {
      "inputs": [],
      "name": "burnBalance",
      "outputs": [
        {
          "internalType": "bool",
          "name": "",
          "type": "bool"
        }
      ],
      "stateMutability": "nonpayable",
      "type": "function"
    },
    {
      "inputs": [
        {
          "internalType": "address",
          "name": "member",
          "type": "address"
        }
      ],
      "name": "calcCurrentReward",
      "outputs": [
        {
          "internalType": "uint256",
          "name": "",
          "type": "uint256"
        }
      ],
      "stateMutability": "view",
      "type": "function"
    },
    {
      "inputs": [
        {
          "internalType": "address",
          "name": "member",
          "type": "address"
        }
      ],
      "name": "calcReward",
      "outputs": [
        {
          "internalType": "uint256",
          "name": "",
          "type": "uint256"
        }
      ],
      "stateMutability": "view",
      "type": "function"
    },
    {
      "inputs": [],
      "name": "cancelPeriod",
      "outputs": [
        {
          "internalType": "uint256",
          "name": "",
          "type": "uint256"
        }
      ],
      "stateMutability": "view",
      "type": "function"
    },
    {
      "inputs": [],
      "name": "cancelProposal",
      "outputs": [],
      "stateMutability": "nonpayable",
      "type": "function"
    },
    {
      "inputs": [
        {
          "internalType": "address",
          "name": "bondAsset",
          "type": "address"
        }
      ],
      "name": "claim",
      "outputs": [],
      "stateMutability": "nonpayable",
      "type": "function"
    },
    {
      "inputs": [],
      "name": "coolOffPeriod",
      "outputs": [
        {
          "internalType": "uint256",
          "name": "",
          "type": "uint256"
        }
      ],
      "stateMutability": "view",
      "type": "function"
    },
    {
      "inputs": [],
      "name": "currentProposal",
      "outputs": [
        {
          "internalType": "uint256",
          "name": "",
          "type": "uint256"
        }
      ],
      "stateMutability": "view",
      "type": "function"
    },
    {
      "inputs": [],
      "name": "daoClaim",
      "outputs": [
        {
          "internalType": "uint256",
          "name": "",
          "type": "uint256"
        }
      ],
      "stateMutability": "view",
      "type": "function"
    },
    {
      "inputs": [],
      "name": "daoFee",
      "outputs": [
        {
          "internalType": "uint256",
          "name": "",
          "type": "uint256"
        }
      ],
      "stateMutability": "view",
      "type": "function"
    },
    {
      "inputs": [
        {
          "internalType": "address",
          "name": "pool",
          "type": "address"
        },
        {
          "internalType": "uint256",
          "name": "amount",
          "type": "uint256"
        }
      ],
      "name": "deposit",
      "outputs": [],
      "stateMutability": "nonpayable",
      "type": "function"
    },
    {
      "inputs": [],
      "name": "erasToEarn",
      "outputs": [
        {
          "internalType": "uint256",
          "name": "",
          "type": "uint256"
        }
      ],
      "stateMutability": "view",
      "type": "function"
    },
    {
      "inputs": [],
      "name": "finaliseProposal",
      "outputs": [],
      "stateMutability": "nonpayable",
      "type": "function"
    },
    {
      "inputs": [
        {
          "internalType": "uint256",
          "name": "proposal",
          "type": "uint256"
        },
        {
          "internalType": "address",
          "name": "asset",
          "type": "address"
        }
      ],
      "name": "getProposalAssetVotes",
      "outputs": [
        {
          "internalType": "uint256",
          "name": "",
          "type": "uint256"
        }
      ],
      "stateMutability": "view",
      "type": "function"
    },
    {
      "inputs": [
        {
          "internalType": "uint256",
          "name": "proposalID",
          "type": "uint256"
        }
      ],
      "name": "getProposalDetails",
      "outputs": [
        {
          "components": [
            {
              "internalType": "uint256",
              "name": "id",
              "type": "uint256"
            },
            {
              "internalType": "string",
              "name": "proposalType",
              "type": "string"
            },
            {
              "internalType": "uint256",
              "name": "votes",
              "type": "uint256"
            },
            {
              "internalType": "uint256",
              "name": "coolOffTime",
              "type": "uint256"
            },
            {
              "internalType": "bool",
              "name": "finalising",
              "type": "bool"
            },
            {
              "internalType": "bool",
              "name": "finalised",
              "type": "bool"
            },
            {
              "internalType": "uint256",
              "name": "param",
              "type": "uint256"
            },
            {
              "internalType": "address",
              "name": "proposedAddress",
              "type": "address"
            },
            {
              "internalType": "bool",
              "name": "open",
              "type": "bool"
            },
            {
              "internalType": "uint256",
              "name": "startTime",
              "type": "uint256"
            }
          ],
          "internalType": "struct Dao.ProposalDetails",
          "name": "proposalDetails",
          "type": "tuple"
        }
      ],
      "stateMutability": "view",
      "type": "function"
    },
    {
      "inputs": [],
      "name": "harvest",
      "outputs": [],
      "stateMutability": "nonpayable",
      "type": "function"
    },
    {
      "inputs": [
        {
          "internalType": "uint256",
          "name": "_proposalID",
          "type": "uint256"
        }
      ],
      "name": "hasMajority",
      "outputs": [
        {
          "internalType": "bool",
          "name": "",
          "type": "bool"
        }
      ],
      "stateMutability": "view",
      "type": "function"
    },
    {
      "inputs": [
        {
          "internalType": "uint256",
          "name": "_proposalID",
          "type": "uint256"
        }
      ],
      "name": "hasQuorum",
      "outputs": [
        {
          "internalType": "bool",
          "name": "",
          "type": "bool"
        }
      ],
      "stateMutability": "view",
      "type": "function"
    },
    {
      "inputs": [
        {
          "internalType": "address",
          "name": "",
          "type": "address"
        }
      ],
      "name": "isMember",
      "outputs": [
        {
          "internalType": "bool",
          "name": "",
          "type": "bool"
        }
      ],
      "stateMutability": "view",
      "type": "function"
    },
    {
      "inputs": [],
      "name": "majorityFactor",
      "outputs": [
        {
          "internalType": "uint256",
          "name": "",
          "type": "uint256"
        }
      ],
      "stateMutability": "view",
      "type": "function"
    },
    {
      "inputs": [
        {
          "internalType": "address",
          "name": "",
          "type": "address"
        }
      ],
      "name": "mapMember_lastTime",
      "outputs": [
        {
          "internalType": "uint256",
          "name": "",
          "type": "uint256"
        }
      ],
      "stateMutability": "view",
      "type": "function"
    },
    {
      "inputs": [
        {
          "internalType": "uint256",
          "name": "",
          "type": "uint256"
        }
      ],
      "name": "mapPID_open",
      "outputs": [
        {
          "internalType": "bool",
          "name": "",
          "type": "bool"
        }
      ],
      "stateMutability": "view",
      "type": "function"
    },
    {
      "inputs": [
        {
          "internalType": "uint256",
          "name": "proposal",
          "type": "uint256"
        },
        {
          "internalType": "address",
          "name": "member",
          "type": "address"
        }
      ],
      "name": "memberVoted",
      "outputs": [
        {
          "internalType": "bool",
          "name": "",
          "type": "bool"
        }
      ],
      "stateMutability": "view",
      "type": "function"
    },
    {
      "inputs": [
        {
          "internalType": "address",
          "name": "newDAO",
          "type": "address"
        }
      ],
      "name": "moveBASEBalance",
      "outputs": [],
      "stateMutability": "nonpayable",
      "type": "function"
    },
    {
      "inputs": [
        {
          "internalType": "string",
          "name": "typeStr",
          "type": "string"
        }
      ],
      "name": "newActionProposal",
      "outputs": [],
      "stateMutability": "nonpayable",
      "type": "function"
    },
    {
      "inputs": [
        {
          "internalType": "address",
          "name": "proposedAddress",
          "type": "address"
        },
        {
          "internalType": "string",
          "name": "typeStr",
          "type": "string"
        }
      ],
      "name": "newAddressProposal",
      "outputs": [],
      "stateMutability": "nonpayable",
      "type": "function"
    },
    {
      "inputs": [
        {
          "internalType": "address",
          "name": "recipient",
          "type": "address"
        },
        {
          "internalType": "uint256",
          "name": "amount",
          "type": "uint256"
        }
      ],
      "name": "newGrantProposal",
      "outputs": [],
      "stateMutability": "nonpayable",
      "type": "function"
    },
    {
      "inputs": [
        {
          "internalType": "uint256",
          "name": "param",
          "type": "uint256"
        },
        {
          "internalType": "string",
          "name": "typeStr",
          "type": "string"
        }
      ],
      "name": "newParamProposal",
      "outputs": [],
      "stateMutability": "nonpayable",
      "type": "function"
    },
    {
      "inputs": [],
      "name": "pollVotes",
      "outputs": [],
      "stateMutability": "nonpayable",
      "type": "function"
    },
    {
      "inputs": [],
      "name": "purgeDeployer",
      "outputs": [],
      "stateMutability": "nonpayable",
      "type": "function"
    },
    {
      "inputs": [],
      "name": "retire",
      "outputs": [
        {
          "internalType": "bool",
          "name": "",
          "type": "bool"
        }
      ],
      "stateMutability": "view",
      "type": "function"
    },
    {
      "inputs": [],
      "name": "retireDao",
      "outputs": [],
      "stateMutability": "nonpayable",
      "type": "function"
    },
    {
      "inputs": [],
      "name": "running",
      "outputs": [
        {
          "internalType": "bool",
          "name": "",
          "type": "bool"
        }
      ],
      "stateMutability": "view",
      "type": "function"
    },
    {
      "inputs": [
        {
          "internalType": "uint256",
          "name": "_daoClaim",
          "type": "uint256"
        },
        {
          "internalType": "uint256",
          "name": "_daoFee",
          "type": "uint256"
        },
        {
          "internalType": "bool",
          "name": "_running",
          "type": "bool"
        },
        {
          "internalType": "uint256",
          "name": "_cancelPeriod",
          "type": "uint256"
        }
      ],
      "name": "setDaoFactors",
      "outputs": [],
      "stateMutability": "nonpayable",
      "type": "function"
    },
    {
      "inputs": [
        {
          "internalType": "address",
          "name": "_poolFactory",
          "type": "address"
        },
        {
          "internalType": "address",
          "name": "_synthFactory",
          "type": "address"
        }
      ],
      "name": "setFactoryAddresses",
      "outputs": [],
      "stateMutability": "nonpayable",
      "type": "function"
    },
    {
      "inputs": [
        {
          "internalType": "address",
          "name": "_router",
          "type": "address"
        },
        {
          "internalType": "address",
          "name": "_utils",
          "type": "address"
        },
        {
          "internalType": "address",
          "name": "_reserve",
          "type": "address"
        },
        {
          "internalType": "address",
          "name": "_lend",
          "type": "address"
        }
      ],
      "name": "setGenesisAddresses",
      "outputs": [],
      "stateMutability": "nonpayable",
      "type": "function"
    },
    {
      "inputs": [
        {
          "internalType": "uint256",
          "name": "_coolOff",
          "type": "uint256"
        },
        {
          "internalType": "uint256",
          "name": "_erasToEarn",
          "type": "uint256"
        },
        {
          "internalType": "uint256",
          "name": "_majorityFactor",
          "type": "uint256"
        }
      ],
      "name": "setGenesisFactors",
      "outputs": [],
      "stateMutability": "nonpayable",
      "type": "function"
    },
    {
      "inputs": [
        {
          "internalType": "address",
          "name": "_daovault",
          "type": "address"
        },
        {
          "internalType": "address",
          "name": "_bondvault",
          "type": "address"
        },
        {
          "internalType": "address",
          "name": "_synthVault",
          "type": "address"
        }
      ],
      "name": "setVaultAddresses",
      "outputs": [],
      "stateMutability": "nonpayable",
      "type": "function"
    },
    {
      "inputs": [],
      "name": "unvoteProposal",
      "outputs": [],
      "stateMutability": "nonpayable",
      "type": "function"
    },
    {
      "inputs": [],
      "name": "voteProposal",
      "outputs": [],
      "stateMutability": "nonpayable",
      "type": "function"
    },
    {
      "inputs": [
        {
          "internalType": "address",
          "name": "pool",
          "type": "address"
        }
      ],
      "name": "withdraw",
      "outputs": [],
      "stateMutability": "nonpayable",
      "type": "function"
    }
  ],
  "bytecode": "0x60a06040523480156200001157600080fd5b5060405162009e2e38038062009e2e833981810160405281019062000037919062000116565b60016000819055508073ffffffffffffffffffffffffffffffffffffffff1660808173ffffffffffffffffffffffffffffffffffffffff1660601b8152505033600160006101000a81548173ffffffffffffffffffffffffffffffffffffffff021916908373ffffffffffffffffffffffffffffffffffffffff16021790555030600960016101000a81548173ffffffffffffffffffffffffffffffffffffffff021916908373ffffffffffffffffffffffffffffffffffffffff1602179055505062000190565b600081519050620001108162000176565b92915050565b6000602082840312156200012957600080fd5b60006200013984828501620000ff565b91505092915050565b60006200014f8262000156565b9050919050565b600073ffffffffffffffffffffffffffffffffffffffff82169050919050565b620001818162000142565b81146200018d57600080fd5b50565b60805160601c619c0f6200021f6000396000818161171001528181611eac015281816120bb015281816135fd015281816136a80152818161482c01528181615ad301528181615b7e01528181615cb401528181616738015281816169da01528181616aad01528181616b0c0152818161727e015281816174760152818161761801526178de0152619c0f6000f3fe6080604052600436106103355760003560e01c806379b2dc4c116101ab578063a4874d77116100f7578063b99b0a0c11610095578063d14583631161006f578063d145836314610bb3578063d85bd52614610bdc578063ec342ad014610c07578063f301e78114610c3257610335565b8063b99b0a0c14610b20578063bbf8cf8214610b4b578063bc68fad914610b8857610335565b8063ab2bd8fd116100d1578063ab2bd8fd14610a76578063abb6154f14610a8d578063b7407e6a14610ab8578063b93ec54b14610af557610335565b8063a4874d77146109f2578063a515366a14610a1d578063a6c83fed14610a4d57610335565b80639070577f116101645780639d2cc4361161013e5780639d2cc43614610938578063a230c52414610963578063a3202246146109a0578063a44c2472146109c957610335565b80639070577f146108cb578063956615be146108e257806398fabd3a1461090d57610335565b806379b2dc4c146107df5780637b0e5c451461080a578063823abc56146108355780638351739a1461084c57806385d2b916146108635780638bebea891461088e57610335565b80633f3fa3361161028557806351cff8d9116102235780635f9384fc116101fd5780635f9384fc1461075f578063682454ed1461077657806368bb97b31461078d57806373758988146107b657610335565b806351cff8d9146106bc5780635c120b37146106e55780635c7366d31461072257610335565b8063463508211161025f57806346350821146106165780634636279f1461063f5780634641257d1461067c57806347e7ef241461069357610335565b80633f3fa33614610573578063436f80be146105b057806343b2116f146105ed57610335565b80632c07eebf116102f257806334bc8f45116102cc57806334bc8f45146104a557806338da7dd6146104ce5780633a61738d146104f95780633b4d01a71461053657610335565b80632c07eebf146104245780632f7fa1801461044f57806332fe7b261461047a57610335565b806303a821381461033a5780631e83409a14610351578063293cee7d1461037a5780632957b839146103a35780632ab24e49146103ce5780632b49d425146103f9575b600080fd5b34801561034657600080fd5b5061034f610c5d565b005b34801561035d57600080fd5b506103786004803603810190610373919061840b565b610cfb565b005b34801561038657600080fd5b506103a1600480360381019061039c919061854b565b610e93565b005b3480156103af57600080fd5b506103b8611113565b6040516103c591906191b6565b60405180910390f35b3480156103da57600080fd5b506103e3611119565b6040516103f09190618fbc565b60405180910390f35b34801561040557600080fd5b5061040e611200565b60405161041b91906191b6565b60405180910390f35b34801561043057600080fd5b50610439611206565b60405161044691906191b6565b60405180910390f35b34801561045b57600080fd5b5061046461120c565b6040516104719190618eff565b60405180910390f35b34801561048657600080fd5b5061048f6112f3565b60405161049c9190618f86565b60405180910390f35b3480156104b157600080fd5b506104cc60048036038101906104c791906189a1565b6113da565b005b3480156104da57600080fd5b506104e361144e565b6040516104f09190618f1a565b60405180910390f35b34801561050557600080fd5b50610520600480360381019061051b919061840b565b611535565b60405161052d91906191b6565b60405180910390f35b34801561054257600080fd5b5061055d60048036038101906105589190618820565b6118c2565b60405161056a9190619194565b60405180910390f35b34801561057f57600080fd5b5061059a60048036038101906105959190618872565b611ad1565b6040516105a791906191b6565b60405180910390f35b3480156105bc57600080fd5b506105d760048036038101906105d29190618820565b611b2c565b6040516105e49190618e09565b60405180910390f35b3480156105f957600080fd5b50610614600480360381019061060f91906184e8565b611b6b565b005b34801561062257600080fd5b5061063d6004803603810190610638919061845d565b611ccf565b005b34801561064b57600080fd5b506106666004803603810190610661919061840b565b611daf565b60405161067391906191b6565b60405180910390f35b34801561068857600080fd5b50610691611f6b565b005b34801561069f57600080fd5b506106ba60048036038101906106b5919061859f565b612293565b005b3480156106c857600080fd5b506106e360048036038101906106de919061840b565b6126ed565b005b3480156106f157600080fd5b5061070c60048036038101906107079190618820565b6129c5565b6040516107199190618ee4565b60405180910390f35b34801561072e57600080fd5b506107496004803603810190610744919061840b565b612f28565b60405161075691906191b6565b60405180910390f35b34801561076b57600080fd5b50610774612f40565b005b34801561078257600080fd5b5061078b613302565b005b34801561079957600080fd5b506107b460048036038101906107af919061840b565b61359f565b005b3480156107c257600080fd5b506107dd60048036038101906107d89190618499565b613758565b005b3480156107eb57600080fd5b506107f461387a565b60405161080191906191b6565b60405180910390f35b34801561081657600080fd5b5061081f613880565b60405161082c9190618fd7565b60405180910390f35b34801561084157600080fd5b5061084a613967565b005b34801561085857600080fd5b506108616139dd565b005b34801561086f57600080fd5b50610878613d2d565b60405161088591906191b6565b60405180910390f35b34801561089a57600080fd5b506108b560048036038101906108b09190618820565b613d33565b6040516108c29190618ee4565b60405180910390f35b3480156108d757600080fd5b506108e0613d53565b005b3480156108ee57600080fd5b506108f761406b565b60405161090491906191b6565b60405180910390f35b34801561091957600080fd5b50610922614071565b60405161092f9190618e09565b60405180910390f35b34801561094457600080fd5b5061094d614097565b60405161095a9190618f6b565b60405180910390f35b34801561096f57600080fd5b5061098a6004803603810190610985919061840b565b61417e565b6040516109979190618ee4565b60405180910390f35b3480156109ac57600080fd5b506109c760048036038101906109c291906188ae565b61419e565b005b3480156109d557600080fd5b506109f060048036038101906109eb919061893e565b614247565b005b3480156109fe57600080fd5b50610a076142d6565b604051610a149190618ee4565b60405180910390f35b610a376004803603810190610a32919061859f565b6142e9565b604051610a449190618ee4565b60405180910390f35b348015610a5957600080fd5b50610a746004803603810190610a6f919061859f565b6147ee565b005b348015610a8257600080fd5b50610a8b614a66565b005b348015610a9957600080fd5b50610aa26152e2565b604051610aaf91906191b6565b60405180910390f35b348015610ac457600080fd5b50610adf6004803603810190610ada9190618872565b6152e8565b604051610aec9190618ee4565b60405180910390f35b348015610b0157600080fd5b50610b0a615350565b604051610b179190618fa1565b60405180910390f35b348015610b2c57600080fd5b50610b35615437565b604051610b429190618f50565b60405180910390f35b348015610b5757600080fd5b50610b726004803603810190610b6d9190618820565b61551e565b604051610b7f9190618ee4565b60405180910390f35b348015610b9457600080fd5b50610b9d615a73565b604051610baa9190618ee4565b60405180910390f35b348015610bbf57600080fd5b50610bda6004803603810190610bd591906187df565b615c0f565b005b348015610be857600080fd5b50610bf1615c9f565b604051610bfe9190618ee4565b60405180910390f35b348015610c1357600080fd5b50610c1c615cb2565b604051610c299190618e09565b60405180910390f35b348015610c3e57600080fd5b50610c47615cd6565b604051610c549190618f35565b60405180910390f35b600160009054906101000a900473ffffffffffffffffffffffffffffffffffffffff1673ffffffffffffffffffffffffffffffffffffffff163373ffffffffffffffffffffffffffffffffffffffff1614610cb757600080fd5b6000600160006101000a81548173ffffffffffffffffffffffffffffffffffffffff021916908373ffffffffffffffffffffffffffffffffffffffff160217905550565b600160149054906101000a900460ff1615610d4b576040517f08c379a0000000000000000000000000000000000000000000000000000000008152600401610d4290619014565b60405180910390fd5b600060075490506000601c600083815260200190815260200160002060009054906101000a900460ff168015610ddb5750601f600083815260200190815260200160002060003373ffffffffffffffffffffffffffffffffffffffff1673ffffffffffffffffffffffffffffffffffffffff16815260200190815260200160002060009054906101000a900460ff165b90508015610dee57610dec82615dbd565b505b600c60009054906101000a900473ffffffffffffffffffffffffffffffffffffffff1673ffffffffffffffffffffffffffffffffffffffff166321c0b34284336040518363ffffffff1660e01b8152600401610e4b929190618e24565b600060405180830381600087803b158015610e6557600080fd5b505af1158015610e79573d6000803e3d6000fd5b505050508015610e8e57610e8c8261612b565b505b505050565b6000819050610ed7816040518060400160405280600381526020017f44414f0000000000000000000000000000000000000000000000000000000000815250616499565b80610f1d5750610f1c816040518060400160405280600681526020017f524f555445520000000000000000000000000000000000000000000000000000815250616499565b5b80610f635750610f62816040518060400160405280600581526020017f5554494c53000000000000000000000000000000000000000000000000000000815250616499565b5b80610fa95750610fa8816040518060400160405280600781526020017f5245534552564500000000000000000000000000000000000000000000000000815250616499565b5b80610fef5750610fee816040518060400160405280600781526020017f5245414c49534500000000000000000000000000000000000000000000000000815250616499565b5b1561102f57600073ffffffffffffffffffffffffffffffffffffffff168373ffffffffffffffffffffffffffffffffffffffff16141561102e57600080fd5b5b6000611039616544565b9050611043616731565b50836017600083815260200190815260200160002060006101000a81548173ffffffffffffffffffffffffffffffffffffffff021916908373ffffffffffffffffffffffffffffffffffffffff160217905550826018600083815260200190815260200160002090805190602001906110bd9291906180ab565b50803373ffffffffffffffffffffffffffffffffffffffff167f8d500fcad86fc64a281b94ef64d6d66acbfc6862aa4ff2ee5fbbfb40736e803e856040516111059190618ff2565b60405180910390a350505050565b60065481565b6000600960009054906101000a900460ff16156111d757600960019054906101000a900473ffffffffffffffffffffffffffffffffffffffff1673ffffffffffffffffffffffffffffffffffffffff16632ab24e496040518163ffffffff1660e01b815260040160206040518083038186803b15801561119857600080fd5b505afa1580156111ac573d6000803e3d6000fd5b505050506040513d601f19601f820116820180604052508101906111d0919061878d565b90506111fd565b601160009054906101000a900473ffffffffffffffffffffffffffffffffffffffff1690505b90565b60075481565b60045481565b6000600960009054906101000a900460ff16156112ca57600960019054906101000a900473ffffffffffffffffffffffffffffffffffffffff1673ffffffffffffffffffffffffffffffffffffffff16632f7fa1806040518163ffffffff1660e01b815260040160206040518083038186803b15801561128b57600080fd5b505afa15801561129f573d6000803e3d6000fd5b505050506040513d601f19601f820116820180604052508101906112c3919061866e565b90506112f0565b600c60009054906101000a900473ffffffffffffffffffffffffffffffffffffffff1690505b90565b6000600960009054906101000a900460ff16156113b157600960019054906101000a900473ffffffffffffffffffffffffffffffffffffffff1673ffffffffffffffffffffffffffffffffffffffff166332fe7b266040518163ffffffff1660e01b815260040160206040518083038186803b15801561137257600080fd5b505afa158015611386573d6000803e3d6000fd5b505050506040513d601f19601f820116820180604052508101906113aa919061873b565b90506113d7565b600a60009054906101000a900473ffffffffffffffffffffffffffffffffffffffff1690505b90565b600160009054906101000a900473ffffffffffffffffffffffffffffffffffffffff1673ffffffffffffffffffffffffffffffffffffffff163373ffffffffffffffffffffffffffffffffffffffff161461143457600080fd5b826002819055508160048190555080600381905550505050565b6000600960009054906101000a900460ff161561150c57600960019054906101000a900473ffffffffffffffffffffffffffffffffffffffff1673ffffffffffffffffffffffffffffffffffffffff166338da7dd66040518163ffffffff1660e01b815260040160206040518083038186803b1580156114cd57600080fd5b505afa1580156114e1573d6000803e3d6000fd5b505050506040513d601f19601f820116820180604052508101906115059190618697565b9050611532565b600d60009054906101000a900473ffffffffffffffffffffffffffffffffffffffff1690505b90565b6000600160149054906101000a900460ff1615611587576040517f08c379a000000000000000000000000000000000000000000000000000000000815260040161157e90619014565b60405180910390fd5b600080600d60009054906101000a900473ffffffffffffffffffffffffffffffffffffffff1673ffffffffffffffffffffffffffffffffffffffff1663a477b804856040518263ffffffff1660e01b81526004016115e59190618e09565b604080518083038186803b1580156115fc57600080fd5b505afa158015611610573d6000803e3d6000fd5b505050506040513d601f19601f820116820180604052508101906116349190618902565b91509150600080600c60009054906101000a900473ffffffffffffffffffffffffffffffffffffffff1673ffffffffffffffffffffffffffffffffffffffff1663a477b804876040518263ffffffff1660e01b81526004016116969190618e09565b604080518083038186803b1580156116ad57600080fd5b505afa1580156116c1573d6000803e3d6000fd5b505050506040513d601f19601f820116820180604052508101906116e59190618902565b91509150600082856116f79190619394565b9050600082856117079190619394565b905060006004547f000000000000000000000000000000000000000000000000000000000000000073ffffffffffffffffffffffffffffffffffffffff166370a08231601060009054906101000a900473ffffffffffffffffffffffffffffffffffffffff166040518263ffffffff1660e01b81526004016117899190618e09565b60206040518083038186803b1580156117a157600080fd5b505afa1580156117b5573d6000803e3d6000fd5b505050506040513d601f19601f820116820180604052508101906117d99190618849565b6117e391906193ea565b90506000612710600554836117f8919061941b565b61180291906193ea565b9050600b60009054906101000a900473ffffffffffffffffffffffffffffffffffffffff1673ffffffffffffffffffffffffffffffffffffffff16631ba326c48585846040518463ffffffff1660e01b815260040161186393929190619298565b60206040518083038186803b15801561187b57600080fd5b505afa15801561188f573d6000803e3d6000fd5b505050506040513d601f19601f820116820180604052508101906118b39190618849565b98505050505050505050919050565b6118ca618131565b818160000181815250506018600083815260200190815260200160002080546118f290619723565b80601f016020809104026020016040519081016040528092919081815260200182805461191e90619723565b801561196b5780601f106119405761010080835404028352916020019161196b565b820191906000526020600020905b81548152906001019060200180831161194e57829003601f168201915b505050505081602001819052506019600083815260200190815260200160002054816060018181525050601a600083815260200190815260200160002060009054906101000a900460ff16816080019015159081151581525050601b600083815260200190815260200160002060009054906101000a900460ff168160a001901515908115158152505060166000838152602001908152602001600020548160c00181815250506017600083815260200190815260200160002060009054906101000a900473ffffffffffffffffffffffffffffffffffffffff168160e0019073ffffffffffffffffffffffffffffffffffffffff16908173ffffffffffffffffffffffffffffffffffffffff1681525050601c600083815260200190815260200160002060009054906101000a900460ff1681610100019015159081151581525050601d60008381526020019081526020016000205481610120018181525050919050565b6000601e600084815260200190815260200160002060008373ffffffffffffffffffffffffffffffffffffffff1673ffffffffffffffffffffffffffffffffffffffff16815260200190815260200160002054905092915050565b60138181548110611b3c57600080fd5b906000526020600020016000915054906101000a900473ffffffffffffffffffffffffffffffffffffffff1681565b600160009054906101000a900473ffffffffffffffffffffffffffffffffffffffff1673ffffffffffffffffffffffffffffffffffffffff163373ffffffffffffffffffffffffffffffffffffffff1614611bc557600080fd5b83600a60006101000a81548173ffffffffffffffffffffffffffffffffffffffff021916908373ffffffffffffffffffffffffffffffffffffffff16021790555082600b60006101000a81548173ffffffffffffffffffffffffffffffffffffffff021916908373ffffffffffffffffffffffffffffffffffffffff16021790555081601060006101000a81548173ffffffffffffffffffffffffffffffffffffffff021916908373ffffffffffffffffffffffffffffffffffffffff16021790555080601260006101000a81548173ffffffffffffffffffffffffffffffffffffffff021916908373ffffffffffffffffffffffffffffffffffffffff16021790555050505050565b600160009054906101000a900473ffffffffffffffffffffffffffffffffffffffff1673ffffffffffffffffffffffffffffffffffffffff163373ffffffffffffffffffffffffffffffffffffffff1614611d2957600080fd5b81600e60006101000a81548173ffffffffffffffffffffffffffffffffffffffff021916908373ffffffffffffffffffffffffffffffffffffffff16021790555080600f60006101000a81548173ffffffffffffffffffffffffffffffffffffffff021916908373ffffffffffffffffffffffffffffffffffffffff1602179055505050565b6000600160149054906101000a900460ff1615611e01576040517f08c379a0000000000000000000000000000000000000000000000000000000008152600401611df890619014565b60405180910390fd5b601560008373ffffffffffffffffffffffffffffffffffffffff1673ffffffffffffffffffffffffffffffffffffffff168152602001908152602001600020544211611e4c57600080fd5b6000601560008473ffffffffffffffffffffffffffffffffffffffff1673ffffffffffffffffffffffffffffffffffffffff1681526020019081526020016000205442611e999190619475565b90506000611ea684611535565b905060007f000000000000000000000000000000000000000000000000000000000000000073ffffffffffffffffffffffffffffffffffffffff16636b92a3b66040518163ffffffff1660e01b815260040160206040518083038186803b158015611f1057600080fd5b505afa158015611f24573d6000803e3d6000fd5b505050506040513d601f19601f82011682018060405250810190611f489190618849565b8383611f54919061941b565b611f5e91906193ea565b9050809350505050919050565b600160149054906101000a900460ff1615611fbb576040517f08c379a0000000000000000000000000000000000000000000000000000000008152600401611fb290619014565b60405180910390fd5b601060009054906101000a900473ffffffffffffffffffffffffffffffffffffffff1673ffffffffffffffffffffffffffffffffffffffff16632267716c6040518163ffffffff1660e01b8152600401602060405180830381600087803b15801561202557600080fd5b505af1158015612039573d6000803e3d6000fd5b505050506040513d601f19601f8201168201806040525081019061205d919061861c565b61206657600080fd5b600061207133611daf565b905042601560003373ffffffffffffffffffffffffffffffffffffffff1673ffffffffffffffffffffffffffffffffffffffff1681526020019081526020016000208190555060007f000000000000000000000000000000000000000000000000000000000000000073ffffffffffffffffffffffffffffffffffffffff166370a08231601060009054906101000a900473ffffffffffffffffffffffffffffffffffffffff166040518263ffffffff1660e01b81526004016121349190618e09565b60206040518083038186803b15801561214c57600080fd5b505afa158015612160573d6000803e3d6000fd5b505050506040513d601f19601f820116820180604052508101906121849190618849565b9050600061271060055483612199919061941b565b6121a391906193ea565b9050808311156121b1578092505b601060009054906101000a900473ffffffffffffffffffffffffffffffffffffffff1673ffffffffffffffffffffffffffffffffffffffff16637d458baa84336040518363ffffffff1660e01b815260040161220e9291906191d1565b600060405180830381600087803b15801561222857600080fd5b505af115801561223c573d6000803e3d6000fd5b505050503373ffffffffffffffffffffffffffffffffffffffff167fc9695243a805adb74c91f28311176c65b417e842d5699893cef56d18bfa48cba8460405161228691906191b6565b60405180910390a2505050565b600160149054906101000a900460ff16156122e3576040517f08c379a00000000000000000000000000000000000000000000000000000000081526004016122da90619014565b60405180910390fd5b600060075490506000601c600083815260200190815260200160002060009054906101000a900460ff1680156123735750601f600083815260200190815260200160002060003373ffffffffffffffffffffffffffffffffffffffff1673ffffffffffffffffffffffffffffffffffffffff16815260200190815260200160002060009054906101000a900460ff165b905080156123865761238482615dbd565b505b60011515600e60009054906101000a900473ffffffffffffffffffffffffffffffffffffffff1673ffffffffffffffffffffffffffffffffffffffff16638dcb4c93866040518263ffffffff1660e01b81526004016123e59190618e09565b60206040518083038186803b1580156123fd57600080fd5b505afa158015612411573d6000803e3d6000fd5b505050506040513d601f19601f82011682018060405250810190612435919061861c565b15151461244157600080fd5b6000831161244e57600080fd5b60011515601460003373ffffffffffffffffffffffffffffffffffffffff1673ffffffffffffffffffffffffffffffffffffffff16815260200190815260200160002060009054906101000a900460ff16151514612562576013339080600181540180825580915050600190039060005260206000200160009091909190916101000a81548173ffffffffffffffffffffffffffffffffffffffff021916908373ffffffffffffffffffffffffffffffffffffffff1602179055506001601460003373ffffffffffffffffffffffffffffffffffffffff1673ffffffffffffffffffffffffffffffffffffffff16815260200190815260200160002060006101000a81548160ff0219169083151502179055505b6125908433600d60009054906101000a900473ffffffffffffffffffffffffffffffffffffffff168661679d565b600d60009054906101000a900473ffffffffffffffffffffffffffffffffffffffff1673ffffffffffffffffffffffffffffffffffffffff166346dafa2f8585336040518463ffffffff1660e01b81526004016125ef93929190618ead565b600060405180830381600087803b15801561260957600080fd5b505af115801561261d573d6000803e3d6000fd5b50505050603c4261262e9190619394565b601560003373ffffffffffffffffffffffffffffffffffffffff1673ffffffffffffffffffffffffffffffffffffffff168152602001908152602001600020819055508373ffffffffffffffffffffffffffffffffffffffff163373ffffffffffffffffffffffffffffffffffffffff167f5f9b5a75581a29d72b32414a5df7f1ef124b7787b38616fb8fdcad76179127c2856040516126ce91906191b6565b60405180910390a380156126e7576126e58261612b565b505b50505050565b600160149054906101000a900460ff161561273d576040517f08c379a000000000000000000000000000000000000000000000000000000000815260040161273490619014565b60405180910390fd5b600060075490506000601c600083815260200190815260200160002060009054906101000a900460ff1680156127cd5750601f600083815260200190815260200160002060003373ffffffffffffffffffffffffffffffffffffffff1673ffffffffffffffffffffffffffffffffffffffff16815260200190815260200160002060009054906101000a900460ff165b905080156127e0576127de82615dbd565b505b6000600d60009054906101000a900473ffffffffffffffffffffffffffffffffffffffff1673ffffffffffffffffffffffffffffffffffffffff1663aa9fd37485336040518363ffffffff1660e01b815260040161283f929190618e24565b60206040518083038186803b15801561285757600080fd5b505afa15801561286b573d6000803e3d6000fd5b505050506040513d601f19601f8201168201806040525081019061288f9190618849565b9050600d60009054906101000a900473ffffffffffffffffffffffffffffffffffffffff1673ffffffffffffffffffffffffffffffffffffffff1663f940e38585336040518363ffffffff1660e01b81526004016128ee929190618e24565b602060405180830381600087803b15801561290857600080fd5b505af115801561291c573d6000803e3d6000fd5b505050506040513d601f19601f82011682018060405250810190612940919061861c565b61294957600080fd5b8373ffffffffffffffffffffffffffffffffffffffff163373ffffffffffffffffffffffffffffffffffffffff167f12dcb5d4117cb4675d56c72f030db8f0f4dd34f875fe484eea4cf0790b5deaa3836040516129a691906191b6565b60405180910390a35080156129c0576129be8261612b565b505b505050565b600080600e60009054906101000a900473ffffffffffffffffffffffffffffffffffffffff1673ffffffffffffffffffffffffffffffffffffffff1663abc764da6040518163ffffffff1660e01b815260040160006040518083038186803b158015612a3057600080fd5b505afa158015612a44573d6000803e3d6000fd5b505050506040513d6000823e3d601f19601f82011682018060405250810190612a6d91906185db565b905060008060005b8351811015612efa576000600c60009054906101000a900473ffffffffffffffffffffffffffffffffffffffff1673ffffffffffffffffffffffffffffffffffffffff166389bbd670868481518110612af7577f4e487b7100000000000000000000000000000000000000000000000000000000600052603260045260246000fd5b60200260200101516040518263ffffffff1660e01b8152600401612b1b9190618e09565b60206040518083038186803b158015612b3357600080fd5b505afa158015612b47573d6000803e3d6000fd5b505050506040513d601f19601f82011682018060405250810190612b6b9190618849565b600d60009054906101000a900473ffffffffffffffffffffffffffffffffffffffff1673ffffffffffffffffffffffffffffffffffffffff166389bbd670878581518110612be2577f4e487b7100000000000000000000000000000000000000000000000000000000600052603260045260246000fd5b60200260200101516040518263ffffffff1660e01b8152600401612c069190618e09565b60206040518083038186803b158015612c1e57600080fd5b505afa158015612c32573d6000803e3d6000fd5b505050506040513d601f19601f82011682018060405250810190612c569190618849565b612c609190619394565b9050600b60009054906101000a900473ffffffffffffffffffffffffffffffffffffffff1673ffffffffffffffffffffffffffffffffffffffff1663ca2e5b65868481518110612cd9577f4e487b7100000000000000000000000000000000000000000000000000000000600052603260045260246000fd5b6020026020010151601e60008b81526020019081526020016000206000898781518110612d2f577f4e487b7100000000000000000000000000000000000000000000000000000000600052603260045260246000fd5b602002602001015173ffffffffffffffffffffffffffffffffffffffff1673ffffffffffffffffffffffffffffffffffffffff168152602001908152602001600020546040518363ffffffff1660e01b8152600401612d8f929190618e84565b60206040518083038186803b158015612da757600080fd5b505afa158015612dbb573d6000803e3d6000fd5b505050506040513d601f19601f82011682018060405250810190612ddf9190618849565b84612dea9190619394565b9350600b60009054906101000a900473ffffffffffffffffffffffffffffffffffffffff1673ffffffffffffffffffffffffffffffffffffffff1663ca2e5b65868481518110612e63577f4e487b7100000000000000000000000000000000000000000000000000000000600052603260045260246000fd5b6020026020010151836040518363ffffffff1660e01b8152600401612e89929190618e84565b60206040518083038186803b158015612ea157600080fd5b505afa158015612eb5573d6000803e3d6000fd5b505050506040513d601f19601f82011682018060405250810190612ed99190618849565b83612ee49190619394565b9250508080612ef290619786565b915050612a75565b50600061271060035483612f0e919061941b565b612f1891906193ea565b9050808311945050505050919050565b60156020528060005260406000206000915090505481565b600160149054906101000a900460ff1615612f90576040517f08c379a0000000000000000000000000000000000000000000000000000000008152600401612f8790619014565b60405180910390fd5b6000600754905060011515601c600083815260200190815260200160002060009054906101000a900460ff16151514612fc857600080fd5b6000601860008381526020019081526020016000208054612fe890619723565b80601f016020809104026020016040519081016040528092919081815260200182805461301490619723565b80156130615780601f1061303657610100808354040283529160200191613061565b820191906000526020600020905b81548152906001019060200180831161304457829003601f168201915b505050505090506130718261551e565b80156130a1575060001515601a600084815260200190815260200160002060009054906101000a900460ff161515145b156132fe576130e5816040518060400160405280600381526020017f44414f0000000000000000000000000000000000000000000000000000000000815250616499565b8061312b575061312a816040518060400160405280600581526020017f5554494c53000000000000000000000000000000000000000000000000000000815250616499565b5b806131715750613170816040518060400160405280600781526020017f5245534552564500000000000000000000000000000000000000000000000000815250616499565b5b806131b757506131b6816040518060400160405280600a81526020017f4745545f53504152544100000000000000000000000000000000000000000000815250616499565b5b806131fd57506131fc816040518060400160405280600681526020017f524f555445520000000000000000000000000000000000000000000000000000815250616499565b5b806132435750613242816040518060400160405280600981526020017f4c4953545f424f4e440000000000000000000000000000000000000000000000815250616499565b5b806132895750613288816040518060400160405280600581526020017f4752414e54000000000000000000000000000000000000000000000000000000815250616499565b5b806132cf57506132ce816040518060400160405280601081526020017f4144445f435552415445445f504f4f4c00000000000000000000000000000000815250616499565b5b156132f2576132dd826129c5565b156132ed576132ec82826168d6565b5b6132fd565b6132fc82826168d6565b5b5b5050565b600160149054906101000a900460ff1615613352576040517f08c379a000000000000000000000000000000000000000000000000000000000815260040161334990619014565b60405180910390fd5b6000600754905060011515601c600083815260200190815260200160002060009054906101000a900460ff1615151461338a57600080fd5b60011515601f600083815260200190815260200160002060003373ffffffffffffffffffffffffffffffffffffffff1673ffffffffffffffffffffffffffffffffffffffff16815260200190815260200160002060009054906101000a900460ff1615151461342e576040517f08c379a0000000000000000000000000000000000000000000000000000000008152600401613425906190d4565b60405180910390fd5b600060186000838152602001908152602001600020805461344e90619723565b80601f016020809104026020016040519081016040528092919081815260200182805461347a90619723565b80156134c75780601f1061349c576101008083540402835291602001916134c7565b820191906000526020600020905b8154815290600101906020018083116134aa57829003601f168201915b5050505050905060006134d983615dbd565b90506000601f600085815260200190815260200160002060003373ffffffffffffffffffffffffffffffffffffffff1673ffffffffffffffffffffffffffffffffffffffff16815260200190815260200160002060006101000a81548160ff021916908315150217905550801561359a57823373ffffffffffffffffffffffffffffffffffffffff167fc47bced501ad257962522a3fba16532ae8ccbbe97f400da0bd120fc1b7443e19846040516135919190618ff2565b60405180910390a35b505050565b600160009054906101000a900473ffffffffffffffffffffffffffffffffffffffff1673ffffffffffffffffffffffffffffffffffffffff163373ffffffffffffffffffffffffffffffffffffffff16146135f957600080fd5b60007f000000000000000000000000000000000000000000000000000000000000000073ffffffffffffffffffffffffffffffffffffffff166370a08231306040518263ffffffff1660e01b81526004016136549190618e09565b60206040518083038186803b15801561366c57600080fd5b505afa158015613680573d6000803e3d6000fd5b505050506040513d601f19601f820116820180604052508101906136a49190618849565b90507f000000000000000000000000000000000000000000000000000000000000000073ffffffffffffffffffffffffffffffffffffffff1663a9059cbb83836040518363ffffffff1660e01b8152600401613701929190618e84565b602060405180830381600087803b15801561371b57600080fd5b505af115801561372f573d6000803e3d6000fd5b505050506040513d601f19601f82011682018060405250810190613753919061861c565b505050565b600160009054906101000a900473ffffffffffffffffffffffffffffffffffffffff1673ffffffffffffffffffffffffffffffffffffffff163373ffffffffffffffffffffffffffffffffffffffff16146137b257600080fd5b82600d60006101000a81548173ffffffffffffffffffffffffffffffffffffffff021916908373ffffffffffffffffffffffffffffffffffffffff16021790555081600c60006101000a81548173ffffffffffffffffffffffffffffffffffffffff021916908373ffffffffffffffffffffffffffffffffffffffff16021790555080601160006101000a81548173ffffffffffffffffffffffffffffffffffffffff021916908373ffffffffffffffffffffffffffffffffffffffff160217905550505050565b60055481565b6000600960009054906101000a900460ff161561393e57600960019054906101000a900473ffffffffffffffffffffffffffffffffffffffff1673ffffffffffffffffffffffffffffffffffffffff16637b0e5c456040518163ffffffff1660e01b815260040160206040518083038186803b1580156138ff57600080fd5b505afa158015613913573d6000803e3d6000fd5b505050506040513d601f19601f8201168201806040525081019061393791906187b6565b9050613964565b600b60009054906101000a900473ffffffffffffffffffffffffffffffffffffffff1690505b90565b600160009054906101000a900473ffffffffffffffffffffffffffffffffffffffff1673ffffffffffffffffffffffffffffffffffffffff163373ffffffffffffffffffffffffffffffffffffffff16146139c157600080fd5b60018060146101000a81548160ff021916908315150217905550565b600160149054906101000a900460ff1615613a2d576040517f08c379a0000000000000000000000000000000000000000000000000000000008152600401613a2490619014565b60405180910390fd5b60011515601060009054906101000a900473ffffffffffffffffffffffffffffffffffffffff1673ffffffffffffffffffffffffffffffffffffffff1663194e22ce6040518163ffffffff1660e01b8152600401602060405180830381600087803b158015613a9b57600080fd5b505af1158015613aaf573d6000803e3d6000fd5b505050506040513d601f19601f82011682018060405250810190613ad3919061861c565b15151415613ae057600080fd5b6000600754905060011515601c600083815260200190815260200160002060009054906101000a900460ff16151514613b1857600080fd5b60001515601f600083815260200190815260200160002060003373ffffffffffffffffffffffffffffffffffffffff1673ffffffffffffffffffffffffffffffffffffffff16815260200190815260200160002060009054906101000a900460ff16151514613bbc576040517f08c379a0000000000000000000000000000000000000000000000000000000008152600401613bb390619054565b60405180910390fd5b6000601860008381526020019081526020016000208054613bdc90619723565b80601f0160208091040260200160405190810160405280929190818152602001828054613c0890619723565b8015613c555780601f10613c2a57610100808354040283529160200191613c55565b820191906000526020600020905b815481529060010190602001808311613c3857829003601f168201915b505050505090506000613c678361612b565b90506001601f600085815260200190815260200160002060003373ffffffffffffffffffffffffffffffffffffffff1673ffffffffffffffffffffffffffffffffffffffff16815260200190815260200160002060006101000a81548160ff0219169083151502179055508015613d2857823373ffffffffffffffffffffffffffffffffffffffff167ff3bb4a59f9a41b07650fa6eb0aaaf8f6e78fe9a712e0c0989ee060358403a89c84604051613d1f9190618ff2565b60405180910390a35b505050565b60085481565b601c6020528060005260406000206000915054906101000a900460ff1681565b600160149054906101000a900460ff1615613da3576040517f08c379a0000000000000000000000000000000000000000000000000000000008152600401613d9a90619014565b60405180910390fd5b60006007549050601c600082815260200190815260200160002060009054906101000a900460ff16613e0a576040517f08c379a0000000000000000000000000000000000000000000000000000000008152600401613e0190619074565b60405180910390fd5b600854601d600083815260200190815260200160002054613e2b9190619394565b4211613e6c576040517f08c379a0000000000000000000000000000000000000000000000000000000008152600401613e6390619174565b60405180910390fd5b6000600e60009054906101000a900473ffffffffffffffffffffffffffffffffffffffff1673ffffffffffffffffffffffffffffffffffffffff1663abc764da6040518163ffffffff1660e01b815260040160006040518083038186803b158015613ed657600080fd5b505afa158015613eea573d6000803e3d6000fd5b505050506040513d6000823e3d601f19601f82011682018060405250810190613f1391906185db565b905060005b8151811015613fca576000601e60008581526020019081526020016000206000848481518110613f71577f4e487b7100000000000000000000000000000000000000000000000000000000600052603260045260246000fd5b602002602001015173ffffffffffffffffffffffffffffffffffffffff1673ffffffffffffffffffffffffffffffffffffffff168152602001908152602001600020819055508080613fc290619786565b915050613f18565b506000601a600084815260200190815260200160002060006101000a81548160ff0219169083151502179055506000601c600084815260200190815260200160002060006101000a81548160ff021916908315150217905550813373ffffffffffffffffffffffffffffffffffffffff167f6b4f340ccba70b829531b22cfbc4ad2defb3beac09f6149d584fe1031dedbf7c60405160405180910390a35050565b60035481565b600960019054906101000a900473ffffffffffffffffffffffffffffffffffffffff1681565b6000600960009054906101000a900460ff161561415557600960019054906101000a900473ffffffffffffffffffffffffffffffffffffffff1673ffffffffffffffffffffffffffffffffffffffff16639d2cc4366040518163ffffffff1660e01b815260040160206040518083038186803b15801561411657600080fd5b505afa15801561412a573d6000803e3d6000fd5b505050506040513d601f19601f8201168201806040525081019061414e9190618712565b905061417b565b601060009054906101000a900473ffffffffffffffffffffffffffffffffffffffff1690505b90565b60146020528060005260406000206000915054906101000a900460ff1681565b60006141a8616544565b90506141b2616731565b50826016600083815260200190815260200160002081905550816018600083815260200190815260200160002090805190602001906141f29291906180ab565b50803373ffffffffffffffffffffffffffffffffffffffff167f8d500fcad86fc64a281b94ef64d6d66acbfc6862aa4ff2ee5fbbfb40736e803e8460405161423a9190618ff2565b60405180910390a3505050565b600160009054906101000a900473ffffffffffffffffffffffffffffffffffffffff1673ffffffffffffffffffffffffffffffffffffffff163373ffffffffffffffffffffffffffffffffffffffff16146142a157600080fd5b836005819055508260068190555081600160156101000a81548160ff0219169083151502179055508060088190555050505050565b600160149054906101000a900460ff1681565b6000600160149054906101000a900460ff161561433b576040517f08c379a000000000000000000000000000000000000000000000000000000000815260040161433290619014565b60405180910390fd5b600060075490506000601c600083815260200190815260200160002060009054906101000a900460ff1680156143cb5750601f600083815260200190815260200160002060003373ffffffffffffffffffffffffffffffffffffffff1673ffffffffffffffffffffffffffffffffffffffff16815260200190815260200160002060009054906101000a900460ff165b905080156143de576143dc82615dbd565b505b600084116143eb57600080fd5b6000600e60009054906101000a900473ffffffffffffffffffffffffffffffffffffffff1673ffffffffffffffffffffffffffffffffffffffff1663bbe4f6db876040518263ffffffff1660e01b81526004016144489190618e09565b60206040518083038186803b15801561446057600080fd5b505afa158015614474573d6000803e3d6000fd5b505050506040513d601f19601f820116820180604052508101906144989190618434565b9050600c60009054906101000a900473ffffffffffffffffffffffffffffffffffffffff1673ffffffffffffffffffffffffffffffffffffffff1663f794062e826040518263ffffffff1660e01b81526004016144f59190618e09565b60206040518083038186803b15801561450d57600080fd5b505afa158015614521573d6000803e3d6000fd5b505050506040513d601f19601f82011682018060405250810190614545919061861c565b61454e57600080fd5b60011515601460003373ffffffffffffffffffffffffffffffffffffffff1673ffffffffffffffffffffffffffffffffffffffff16815260200190815260200160002060009054906101000a900460ff16151514614662576013339080600181540180825580915050600190039060005260206000200160009091909190916101000a81548173ffffffffffffffffffffffffffffffffffffffff021916908373ffffffffffffffffffffffffffffffffffffffff1602179055506001601460003373ffffffffffffffffffffffffffffffffffffffff1673ffffffffffffffffffffffffffffffffffffffff16815260200190815260200160002060006101000a81548160ff0219169083151502179055505b600061466e878761697c565b9050603c4261467d9190619394565b601560003373ffffffffffffffffffffffffffffffffffffffff1673ffffffffffffffffffffffffffffffffffffffff16815260200190815260200160002081905550600c60009054906101000a900473ffffffffffffffffffffffffffffffffffffffff1673ffffffffffffffffffffffffffffffffffffffff1663bf58d0ef8333846040518463ffffffff1660e01b815260040161471f93929190618e4d565b600060405180830381600087803b15801561473957600080fd5b505af115801561474d573d6000803e3d6000fd5b505050508173ffffffffffffffffffffffffffffffffffffffff168773ffffffffffffffffffffffffffffffffffffffff163373ffffffffffffffffffffffffffffffffffffffff167feea1b3e3bf222477bec881b3d636cfbe1adfcf316ad14d2090fc98fdd2774c0289856040516147c792919061922a565b60405180910390a460019450505080156147e6576147e48261612b565b505b505092915050565b600073ffffffffffffffffffffffffffffffffffffffff168273ffffffffffffffffffffffffffffffffffffffff16141561482857600080fd5b60007f000000000000000000000000000000000000000000000000000000000000000073ffffffffffffffffffffffffffffffffffffffff166370a08231601060009054906101000a900473ffffffffffffffffffffffffffffffffffffffff166040518263ffffffff1660e01b81526004016148a59190618e09565b60206040518083038186803b1580156148bd57600080fd5b505afa1580156148d1573d6000803e3d6000fd5b505050506040513d601f19601f820116820180604052508101906148f59190618849565b905060006127106005548361490a919061941b565b61491491906193ea565b905060008311801561492557508083105b61492e57600080fd5b6000614938616544565b9050614942616731565b5060006040518060400160405280600581526020017f4752414e540000000000000000000000000000000000000000000000000000008152509050806018600084815260200190815260200160002090805190602001906149a49291906180ab565b50856017600084815260200190815260200160002060006101000a81548173ffffffffffffffffffffffffffffffffffffffff021916908373ffffffffffffffffffffffffffffffffffffffff160217905550846016600084815260200190815260200160002081905550813373ffffffffffffffffffffffffffffffffffffffff167f8d500fcad86fc64a281b94ef64d6d66acbfc6862aa4ff2ee5fbbfb40736e803e83604051614a569190618ff2565b60405180910390a3505050505050565b600160149054906101000a900460ff1615614ab6576040517f08c379a0000000000000000000000000000000000000000000000000000000008152600401614aad90619014565b60405180910390fd5b600160159054906101000a900460ff16614b05576040517f08c379a0000000000000000000000000000000000000000000000000000000008152600401614afc90619034565b60405180910390fd5b60011515601060009054906101000a900473ffffffffffffffffffffffffffffffffffffffff1673ffffffffffffffffffffffffffffffffffffffff1663194e22ce6040518163ffffffff1660e01b8152600401602060405180830381600087803b158015614b7357600080fd5b505af1158015614b87573d6000803e3d6000fd5b505050506040513d601f19601f82011682018060405250810190614bab919061861c565b15151415614bee576040517f08c379a0000000000000000000000000000000000000000000000000000000008152600401614be590619114565b60405180910390fd5b60006007549050600254601960008381526020019081526020016000205442614c179190619475565b11614c57576040517f08c379a0000000000000000000000000000000000000000000000000000000008152600401614c4e90619094565b60405180910390fd5b60011515601a600083815260200190815260200160002060009054906101000a900460ff16151514614cbe576040517f08c379a0000000000000000000000000000000000000000000000000000000008152600401614cb5906190b4565b60405180910390fd5b60011515601c600083815260200190815260200160002060009054906101000a900460ff16151514614cef57600080fd5b60001515601b600083815260200190815260200160002060009054906101000a900460ff16151514614d2057600080fd5b614d298161551e565b614d5e576000601a600083815260200190815260200160002060006101000a81548160ff0219169083151502179055506152df565b6000601860008381526020019081526020016000208054614d7e90619723565b80601f0160208091040260200160405190810160405280929190818152602001828054614daa90619723565b8015614df75780601f10614dcc57610100808354040283529160200191614df7565b820191906000526020600020905b815481529060010190602001808311614dda57829003601f168201915b50505050509050614e3d816040518060400160405280600381526020017f44414f0000000000000000000000000000000000000000000000000000000000815250616499565b15614e5057614e4b82617203565b6152d4565b614e8f816040518060400160405280600681526020017f524f555445520000000000000000000000000000000000000000000000000000815250616499565b15614ea257614e9d82617340565b6152d3565b614ee1816040518060400160405280600581526020017f5554494c53000000000000000000000000000000000000000000000000000000815250616499565b15614ef457614eef826173bd565b6152d2565b614f33816040518060400160405280600781526020017f5245534552564500000000000000000000000000000000000000000000000000815250616499565b15614f4657614f418261743a565b6152d1565b614f85816040518060400160405280600e81526020017f464c49505f454d495353494f4e53000000000000000000000000000000000000815250616499565b15614f9757614f92617616565b6152d0565b614fd6816040518060400160405280600881526020017f434f4f4c5f4f4646000000000000000000000000000000000000000000000000815250616499565b15614fe957614fe482617698565b6152cf565b615028816040518060400160405280600981526020017f44414f5f434c41494d0000000000000000000000000000000000000000000000815250616499565b1561503b57615036826176fe565b6152ce565b61507a816040518060400160405280600b81526020017f53594e54485f434c41494d000000000000000000000000000000000000000000815250616499565b1561508d5761508882617730565b6152cd565b6150cc816040518060400160405280600581526020017f4752414e54000000000000000000000000000000000000000000000000000000815250616499565b156150df576150da826177e8565b6152cc565b61511e816040518060400160405280600a81526020017f4745545f53504152544100000000000000000000000000000000000000000000815250616499565b156151305761512b6178cc565b6152cb565b61516f816040518060400160405280600981526020017f4c4953545f424f4e440000000000000000000000000000000000000000000000815250616499565b156151825761517d8261796c565b6152ca565b6151c1816040518060400160405280600b81526020017f44454c4953545f424f4e44000000000000000000000000000000000000000000815250616499565b156151d4576151cf82617a3e565b6152c9565b615213816040518060400160405280601081526020017f4144445f435552415445445f504f4f4c00000000000000000000000000000000815250616499565b156152265761522182617b07565b6152c8565b615265816040518060400160405280601381526020017f52454d4f56455f435552415445445f504f4f4c00000000000000000000000000815250616499565b156152785761527382617bd9565b6152c7565b6152b7816040518060400160405280600781526020017f5245414c49534500000000000000000000000000000000000000000000000000815250616499565b156152c6576152c582617d38565b5b5b5b5b5b5b5b5b5b5b5b5b5b5b5b6152dd82617dd4565b505b50565b60025481565b6000601f600084815260200190815260200160002060008373ffffffffffffffffffffffffffffffffffffffff1673ffffffffffffffffffffffffffffffffffffffff16815260200190815260200160002060009054906101000a900460ff16905092915050565b6000600960009054906101000a900460ff161561540e57600960019054906101000a900473ffffffffffffffffffffffffffffffffffffffff1673ffffffffffffffffffffffffffffffffffffffff1663b93ec54b6040518163ffffffff1660e01b815260040160206040518083038186803b1580156153cf57600080fd5b505afa1580156153e3573d6000803e3d6000fd5b505050506040513d601f19601f820116820180604052508101906154079190618764565b9050615434565b600f60009054906101000a900473ffffffffffffffffffffffffffffffffffffffff1690505b90565b6000600960009054906101000a900460ff16156154f557600960019054906101000a900473ffffffffffffffffffffffffffffffffffffffff1673ffffffffffffffffffffffffffffffffffffffff1663b99b0a0c6040518163ffffffff1660e01b815260040160206040518083038186803b1580156154b657600080fd5b505afa1580156154ca573d6000803e3d6000fd5b505050506040513d601f19601f820116820180604052508101906154ee91906186e9565b905061551b565b600e60009054906101000a900473ffffffffffffffffffffffffffffffffffffffff1690505b90565b600080600e60009054906101000a900473ffffffffffffffffffffffffffffffffffffffff1673ffffffffffffffffffffffffffffffffffffffff1663abc764da6040518163ffffffff1660e01b815260040160006040518083038186803b15801561558957600080fd5b505afa15801561559d573d6000803e3d6000fd5b505050506040513d6000823e3d601f19601f820116820180604052508101906155c691906185db565b905060008060005b8351811015615a53576000600c60009054906101000a900473ffffffffffffffffffffffffffffffffffffffff1673ffffffffffffffffffffffffffffffffffffffff166389bbd670868481518110615650577f4e487b7100000000000000000000000000000000000000000000000000000000600052603260045260246000fd5b60200260200101516040518263ffffffff1660e01b81526004016156749190618e09565b60206040518083038186803b15801561568c57600080fd5b505afa1580156156a0573d6000803e3d6000fd5b505050506040513d601f19601f820116820180604052508101906156c49190618849565b600d60009054906101000a900473ffffffffffffffffffffffffffffffffffffffff1673ffffffffffffffffffffffffffffffffffffffff166389bbd67087858151811061573b577f4e487b7100000000000000000000000000000000000000000000000000000000600052603260045260246000fd5b60200260200101516040518263ffffffff1660e01b815260040161575f9190618e09565b60206040518083038186803b15801561577757600080fd5b505afa15801561578b573d6000803e3d6000fd5b505050506040513d601f19601f820116820180604052508101906157af9190618849565b6157b99190619394565b9050600b60009054906101000a900473ffffffffffffffffffffffffffffffffffffffff1673ffffffffffffffffffffffffffffffffffffffff1663ca2e5b65868481518110615832577f4e487b7100000000000000000000000000000000000000000000000000000000600052603260045260246000fd5b6020026020010151601e60008b81526020019081526020016000206000898781518110615888577f4e487b7100000000000000000000000000000000000000000000000000000000600052603260045260246000fd5b602002602001015173ffffffffffffffffffffffffffffffffffffffff1673ffffffffffffffffffffffffffffffffffffffff168152602001908152602001600020546040518363ffffffff1660e01b81526004016158e8929190618e84565b60206040518083038186803b15801561590057600080fd5b505afa158015615914573d6000803e3d6000fd5b505050506040513d601f19601f820116820180604052508101906159389190618849565b846159439190619394565b9350600b60009054906101000a900473ffffffffffffffffffffffffffffffffffffffff1673ffffffffffffffffffffffffffffffffffffffff1663ca2e5b658684815181106159bc577f4e487b7100000000000000000000000000000000000000000000000000000000600052603260045260246000fd5b6020026020010151836040518363ffffffff1660e01b81526004016159e2929190618e84565b60206040518083038186803b1580156159fa57600080fd5b505afa158015615a0e573d6000803e3d6000fd5b505050506040513d601f19601f82011682018060405250810190615a329190618849565b83615a3d9190619394565b9250508080615a4b90619786565b9150506155ce565b506000600282615a6391906193ea565b9050808311945050505050919050565b6000600160009054906101000a900473ffffffffffffffffffffffffffffffffffffffff1673ffffffffffffffffffffffffffffffffffffffff163373ffffffffffffffffffffffffffffffffffffffff1614615acf57600080fd5b60007f000000000000000000000000000000000000000000000000000000000000000073ffffffffffffffffffffffffffffffffffffffff166370a08231306040518263ffffffff1660e01b8152600401615b2a9190618e09565b60206040518083038186803b158015615b4257600080fd5b505afa158015615b56573d6000803e3d6000fd5b505050506040513d601f19601f82011682018060405250810190615b7a9190618849565b90507f000000000000000000000000000000000000000000000000000000000000000073ffffffffffffffffffffffffffffffffffffffff166342966c68826040518263ffffffff1660e01b8152600401615bd591906191b6565b600060405180830381600087803b158015615bef57600080fd5b505af1158015615c03573d6000803e3d6000fd5b50505050600191505090565b6000615c19616544565b9050615c23616731565b5081601860008381526020019081526020016000209080519060200190615c4b9291906180ab565b50803373ffffffffffffffffffffffffffffffffffffffff167f8d500fcad86fc64a281b94ef64d6d66acbfc6862aa4ff2ee5fbbfb40736e803e84604051615c939190618ff2565b60405180910390a35050565b600160159054906101000a900460ff1681565b7f000000000000000000000000000000000000000000000000000000000000000081565b6000600960009054906101000a900460ff1615615d9457600960019054906101000a900473ffffffffffffffffffffffffffffffffffffffff1673ffffffffffffffffffffffffffffffffffffffff1663f301e7816040518163ffffffff1660e01b815260040160206040518083038186803b158015615d5557600080fd5b505afa158015615d69573d6000803e3d6000fd5b505050506040513d601f19601f82011682018060405250810190615d8d91906186c0565b9050615dba565b601260009054906101000a900473ffffffffffffffffffffffffffffffffffffffff1690505b90565b600080600e60009054906101000a900473ffffffffffffffffffffffffffffffffffffffff1673ffffffffffffffffffffffffffffffffffffffff1663abc764da6040518163ffffffff1660e01b815260040160006040518083038186803b158015615e2857600080fd5b505afa158015615e3c573d6000803e3d6000fd5b505050506040513d6000823e3d601f19601f82011682018060405250810190615e6591906185db565b905060005b8151811015616124576000600c60009054906101000a900473ffffffffffffffffffffffffffffffffffffffff1673ffffffffffffffffffffffffffffffffffffffff1663aa9fd374848481518110615eec577f4e487b7100000000000000000000000000000000000000000000000000000000600052603260045260246000fd5b6020026020010151336040518363ffffffff1660e01b8152600401615f12929190618e24565b60206040518083038186803b158015615f2a57600080fd5b505afa158015615f3e573d6000803e3d6000fd5b505050506040513d601f19601f82011682018060405250810190615f629190618849565b600d60009054906101000a900473ffffffffffffffffffffffffffffffffffffffff1673ffffffffffffffffffffffffffffffffffffffff1663aa9fd374858581518110615fd9577f4e487b7100000000000000000000000000000000000000000000000000000000600052603260045260246000fd5b6020026020010151336040518363ffffffff1660e01b8152600401615fff929190618e24565b60206040518083038186803b15801561601757600080fd5b505afa15801561602b573d6000803e3d6000fd5b505050506040513d601f19601f8201168201806040525081019061604f9190618849565b6160599190619394565b905060008111156161105780601e600087815260200190815260200160002060008585815181106160b3577f4e487b7100000000000000000000000000000000000000000000000000000000600052603260045260246000fd5b602002602001015173ffffffffffffffffffffffffffffffffffffffff1673ffffffffffffffffffffffffffffffffffffffff16815260200190815260200160002060008282546161049190619475565b92505081905550600193505b50808061611c90619786565b915050615e6a565b5050919050565b600080600e60009054906101000a900473ffffffffffffffffffffffffffffffffffffffff1673ffffffffffffffffffffffffffffffffffffffff1663abc764da6040518163ffffffff1660e01b815260040160006040518083038186803b15801561619657600080fd5b505afa1580156161aa573d6000803e3d6000fd5b505050506040513d6000823e3d601f19601f820116820180604052508101906161d391906185db565b905060005b8151811015616492576000600c60009054906101000a900473ffffffffffffffffffffffffffffffffffffffff1673ffffffffffffffffffffffffffffffffffffffff1663aa9fd37484848151811061625a577f4e487b7100000000000000000000000000000000000000000000000000000000600052603260045260246000fd5b6020026020010151336040518363ffffffff1660e01b8152600401616280929190618e24565b60206040518083038186803b15801561629857600080fd5b505afa1580156162ac573d6000803e3d6000fd5b505050506040513d601f19601f820116820180604052508101906162d09190618849565b600d60009054906101000a900473ffffffffffffffffffffffffffffffffffffffff1673ffffffffffffffffffffffffffffffffffffffff1663aa9fd374858581518110616347577f4e487b7100000000000000000000000000000000000000000000000000000000600052603260045260246000fd5b6020026020010151336040518363ffffffff1660e01b815260040161636d929190618e24565b60206040518083038186803b15801561638557600080fd5b505afa158015616399573d6000803e3d6000fd5b505050506040513d601f19601f820116820180604052508101906163bd9190618849565b6163c79190619394565b9050600081111561647e5780601e60008781526020019081526020016000206000858581518110616421577f4e487b7100000000000000000000000000000000000000000000000000000000600052603260045260246000fd5b602002602001015173ffffffffffffffffffffffffffffffffffffffff1673ffffffffffffffffffffffffffffffffffffffff16815260200190815260200160002060008282546164729190619394565b92505081905550600193505b50808061648a90619786565b9150506161d8565b5050919050565b60006002826040516164ab9190618df2565b602060405180830381855afa1580156164c8573d6000803e3d6000fd5b5050506040513d601f19601f820116820180604052508101906164eb9190618645565b6002846040516164fb9190618df2565b602060405180830381855afa158015616518573d6000803e3d6000fd5b5050506040513d601f19601f8201168201806040525081019061653b9190618645565b14905092915050565b6000600160149054906101000a900460ff1615616596576040517f08c379a000000000000000000000000000000000000000000000000000000000815260040161658d90619014565b60405180910390fd5b600160159054906101000a900460ff166165e5576040517f08c379a00000000000000000000000000000000000000000000000000000000081526004016165dc90619034565b60405180910390fd5b60011515601060009054906101000a900473ffffffffffffffffffffffffffffffffffffffff1673ffffffffffffffffffffffffffffffffffffffff1663194e22ce6040518163ffffffff1660e01b8152600401602060405180830381600087803b15801561665357600080fd5b505af1158015616667573d6000803e3d6000fd5b505050506040513d601f19601f8201168201806040525081019061668b919061861c565b1515141561669857600080fd5b6000600754905060001515601c600083815260200190815260200160002060009054906101000a900460ff161515146166d057600080fd5b6001816166dd9190619394565b9050806007819055506001601c600083815260200190815260200160002060006101000a81548160ff02191690831515021790555042601d6000838152602001908152602001600020819055508091505090565b60006167967f000000000000000000000000000000000000000000000000000000000000000033601060009054906101000a900473ffffffffffffffffffffffffffffffffffffffff16670de0b6b3a7640000600654616791919061941b565b61679d565b6001905090565b6000808573ffffffffffffffffffffffffffffffffffffffff166323b872dd8686866040516024016167d193929190618e4d565b6040516020818303038152906040529060e01b6020820180517bffffffffffffffffffffffffffffffffffffffffffffffffffffffff838183161783525050505060405161681f9190618df2565b6000604051808303816000865af19150503d806000811461685c576040519150601f19603f3d011682016040523d82523d6000602084013e616861565b606091505b509150915081801561688f575060008151148061688e57508080602001905181019061688d919061861c565b5b5b6168ce576040517f08c379a00000000000000000000000000000000000000000000000000000000081526004016168c590619134565b60405180910390fd5b505050505050565b6001601a600084815260200190815260200160002060006101000a81548160ff021916908315150217905550426019600084815260200190815260200160002081905550813373ffffffffffffffffffffffffffffffffffffffff167f0f36aea5066f9f90a999260fe4ce8d7713f7f07f5ae61bf36d73cc51170a3a9e600254426169619190619394565b846040516169709291906191fa565b60405180910390a35050565b6000600260005414156169c4576040517f08c379a00000000000000000000000000000000000000000000000000000000081526004016169bb90619154565b60405180910390fd5b60026000819055506a02116545850052128000007f000000000000000000000000000000000000000000000000000000000000000073ffffffffffffffffffffffffffffffffffffffff1663dd62ed3e30600a60009054906101000a900473ffffffffffffffffffffffffffffffffffffffff166040518363ffffffff1660e01b8152600401616a55929190618e24565b60206040518083038186803b158015616a6d57600080fd5b505afa158015616a81573d6000803e3d6000fd5b505050506040513d601f19601f82011682018060405250810190616aa59190618849565b1015616c19577f000000000000000000000000000000000000000000000000000000000000000073ffffffffffffffffffffffffffffffffffffffff1663095ea7b3600a60009054906101000a900473ffffffffffffffffffffffffffffffffffffffff167f000000000000000000000000000000000000000000000000000000000000000073ffffffffffffffffffffffffffffffffffffffff166318160ddd6040518163ffffffff1660e01b815260040160206040518083038186803b158015616b7057600080fd5b505afa158015616b84573d6000803e3d6000fd5b505050506040513d601f19601f82011682018060405250810190616ba89190618849565b6040518363ffffffff1660e01b8152600401616bc5929190618e84565b602060405180830381600087803b158015616bdf57600080fd5b505af1158015616bf3573d6000803e3d6000fd5b505050506040513d601f19601f82011682018060405250810190616c17919061861c565b505b600073ffffffffffffffffffffffffffffffffffffffff168373ffffffffffffffffffffffffffffffffffffffff161415616de957348214616c5a57600080fd5b6000600b60009054906101000a900473ffffffffffffffffffffffffffffffffffffffff1673ffffffffffffffffffffffffffffffffffffffff1663b80e44b885856040518363ffffffff1660e01b8152600401616cb9929190618e84565b60206040518083038186803b158015616cd157600080fd5b505afa158015616ce5573d6000803e3d6000fd5b505050506040513d601f19601f82011682018060405250810190616d099190618849565b9050600a60009054906101000a900473ffffffffffffffffffffffffffffffffffffffff1673ffffffffffffffffffffffffffffffffffffffff166393cac68584858488600c60009054906101000a900473ffffffffffffffffffffffffffffffffffffffff166040518663ffffffff1660e01b8152600401616d8f9493929190619253565b6020604051808303818588803b158015616da857600080fd5b505af1158015616dbc573d6000803e3d6000fd5b50505050506040513d601f19601f82011682018060405250810190616de19190618849565b9150506171f5565b616df58333308561679d565b60008373ffffffffffffffffffffffffffffffffffffffff166370a08231306040518263ffffffff1660e01b8152600401616e309190618e09565b60206040518083038186803b158015616e4857600080fd5b505afa158015616e5c573d6000803e3d6000fd5b505050506040513d601f19601f82011682018060405250810190616e809190618849565b90506000600b60009054906101000a900473ffffffffffffffffffffffffffffffffffffffff1673ffffffffffffffffffffffffffffffffffffffff1663b80e44b886846040518363ffffffff1660e01b8152600401616ee1929190618e84565b60206040518083038186803b158015616ef957600080fd5b505afa158015616f0d573d6000803e3d6000fd5b505050506040513d601f19601f82011682018060405250810190616f319190618849565b9050818573ffffffffffffffffffffffffffffffffffffffff1663dd62ed3e30600a60009054906101000a900473ffffffffffffffffffffffffffffffffffffffff166040518363ffffffff1660e01b8152600401616f91929190618e24565b60206040518083038186803b158015616fa957600080fd5b505afa158015616fbd573d6000803e3d6000fd5b505050506040513d601f19601f82011682018060405250810190616fe19190618849565b101561711b5760008573ffffffffffffffffffffffffffffffffffffffff166318160ddd6040518163ffffffff1660e01b815260040160206040518083038186803b15801561702f57600080fd5b505afa158015617043573d6000803e3d6000fd5b505050506040513d601f19601f820116820180604052508101906170679190618849565b90508573ffffffffffffffffffffffffffffffffffffffff1663095ea7b3600a60009054906101000a900473ffffffffffffffffffffffffffffffffffffffff16836040518363ffffffff1660e01b81526004016170c6929190618e84565b602060405180830381600087803b1580156170e057600080fd5b505af11580156170f4573d6000803e3d6000fd5b505050506040513d601f19601f82011682018060405250810190617118919061861c565b50505b600a60009054906101000a900473ffffffffffffffffffffffffffffffffffffffff1673ffffffffffffffffffffffffffffffffffffffff166393cac685838388600c60009054906101000a900473ffffffffffffffffffffffffffffffffffffffff166040518563ffffffff1660e01b815260040161719e9493929190619253565b602060405180830381600087803b1580156171b857600080fd5b505af11580156171cc573d6000803e3d6000fd5b505050506040513d601f19601f820116820180604052508101906171f09190618849565b925050505b600160008190555092915050565b60006017600083815260200190815260200160002060009054906101000a900473ffffffffffffffffffffffffffffffffffffffff16905080600960016101000a81548173ffffffffffffffffffffffffffffffffffffffff021916908373ffffffffffffffffffffffffffffffffffffffff1602179055507f000000000000000000000000000000000000000000000000000000000000000073ffffffffffffffffffffffffffffffffffffffff16631d007f5f826040518263ffffffff1660e01b81526004016172d59190618e09565b600060405180830381600087803b1580156172ef57600080fd5b505af1158015617303573d6000803e3d6000fd5b505050506001600960006101000a81548160ff02191690831515021790555060018060146101000a81548160ff0219169083151502179055505050565b60006017600083815260200190815260200160002060009054906101000a900473ffffffffffffffffffffffffffffffffffffffff16905080600a60006101000a81548173ffffffffffffffffffffffffffffffffffffffff021916908373ffffffffffffffffffffffffffffffffffffffff1602179055505050565b60006017600083815260200190815260200160002060009054906101000a900473ffffffffffffffffffffffffffffffffffffffff16905080600b60006101000a81548173ffffffffffffffffffffffffffffffffffffffff021916908373ffffffffffffffffffffffffffffffffffffffff1602179055505050565b60006017600083815260200190815260200160002060009054906101000a900473ffffffffffffffffffffffffffffffffffffffff16905060007f000000000000000000000000000000000000000000000000000000000000000073ffffffffffffffffffffffffffffffffffffffff166370a08231601060009054906101000a900473ffffffffffffffffffffffffffffffffffffffff166040518263ffffffff1660e01b81526004016174ef9190618e09565b60206040518083038186803b15801561750757600080fd5b505afa15801561751b573d6000803e3d6000fd5b505050506040513d601f19601f8201168201806040525081019061753f9190618849565b9050601060009054906101000a900473ffffffffffffffffffffffffffffffffffffffff1673ffffffffffffffffffffffffffffffffffffffff16637d458baa82846040518363ffffffff1660e01b815260040161759e9291906191d1565b600060405180830381600087803b1580156175b857600080fd5b505af11580156175cc573d6000803e3d6000fd5b5050505081601060006101000a81548173ffffffffffffffffffffffffffffffffffffffff021916908373ffffffffffffffffffffffffffffffffffffffff160217905550505050565b7f000000000000000000000000000000000000000000000000000000000000000073ffffffffffffffffffffffffffffffffffffffff1663fe1fa8fa6040518163ffffffff1660e01b8152600401600060405180830381600087803b15801561767e57600080fd5b505af1158015617692573d6000803e3d6000fd5b50505050565b600060166000838152602001908152602001600020549050600081116176f3576040517f08c379a00000000000000000000000000000000000000000000000000000000081526004016176ea906190f4565b60405180910390fd5b806002819055505050565b6000601660008381526020019081526020016000205490506105dc81111561772557600080fd5b806005819055505050565b6000601660008381526020019081526020016000205490506105dc81111561775757600080fd5b601160009054906101000a900473ffffffffffffffffffffffffffffffffffffffff1673ffffffffffffffffffffffffffffffffffffffff1663ffe3d4a2826040518263ffffffff1660e01b81526004016177b291906191b6565b600060405180830381600087803b1580156177cc57600080fd5b505af11580156177e0573d6000803e3d6000fd5b505050505050565b60006016600083815260200190815260200160002054905060006017600084815260200190815260200160002060009054906101000a900473ffffffffffffffffffffffffffffffffffffffff169050601060009054906101000a900473ffffffffffffffffffffffffffffffffffffffff1673ffffffffffffffffffffffffffffffffffffffff16637d458baa83836040518363ffffffff1660e01b81526004016178959291906191d1565b600060405180830381600087803b1580156178af57600080fd5b505af11580156178c3573d6000803e3d6000fd5b50505050505050565b60006a021165458500521280000090507f000000000000000000000000000000000000000000000000000000000000000073ffffffffffffffffffffffffffffffffffffffff1663d01f6fba82306040518363ffffffff1660e01b81526004016179379291906191d1565b600060405180830381600087803b15801561795157600080fd5b505af1158015617965573d6000803e3d6000fd5b5050505050565b60006017600083815260200190815260200160002060009054906101000a900473ffffffffffffffffffffffffffffffffffffffff1690506179ad82617dd4565b600c60009054906101000a900473ffffffffffffffffffffffffffffffffffffffff1673ffffffffffffffffffffffffffffffffffffffff16639cd99aa2826040518263ffffffff1660e01b8152600401617a089190618e09565b600060405180830381600087803b158015617a2257600080fd5b505af1158015617a36573d6000803e3d6000fd5b505050505050565b60006017600083815260200190815260200160002060009054906101000a900473ffffffffffffffffffffffffffffffffffffffff169050600c60009054906101000a900473ffffffffffffffffffffffffffffffffffffffff1673ffffffffffffffffffffffffffffffffffffffff1663db634d7c826040518263ffffffff1660e01b8152600401617ad19190618e09565b600060405180830381600087803b158015617aeb57600080fd5b505af1158015617aff573d6000803e3d6000fd5b505050505050565b60006017600083815260200190815260200160002060009054906101000a900473ffffffffffffffffffffffffffffffffffffffff169050617b4882617dd4565b600e60009054906101000a900473ffffffffffffffffffffffffffffffffffffffff1673ffffffffffffffffffffffffffffffffffffffff16632b2260a8826040518263ffffffff1660e01b8152600401617ba39190618e09565b600060405180830381600087803b158015617bbd57600080fd5b505af1158015617bd1573d6000803e3d6000fd5b505050505050565b60006017600083815260200190815260200160002060009054906101000a900473ffffffffffffffffffffffffffffffffffffffff169050617c1a82617dd4565b600c60009054906101000a900473ffffffffffffffffffffffffffffffffffffffff1673ffffffffffffffffffffffffffffffffffffffff1663db634d7c826040518263ffffffff1660e01b8152600401617c759190618e09565b600060405180830381600087803b158015617c8f57600080fd5b505af1158015617ca3573d6000803e3d6000fd5b50505050600e60009054906101000a900473ffffffffffffffffffffffffffffffffffffffff1673ffffffffffffffffffffffffffffffffffffffff16637ca51fbf826040518263ffffffff1660e01b8152600401617d029190618e09565b600060405180830381600087803b158015617d1c57600080fd5b505af1158015617d30573d6000803e3d6000fd5b505050505050565b60006017600083815260200190815260200160002060009054906101000a900473ffffffffffffffffffffffffffffffffffffffff1690508073ffffffffffffffffffffffffffffffffffffffff1663224b2a5b6040518163ffffffff1660e01b8152600401600060405180830381600087803b158015617db857600080fd5b505af1158015617dcc573d6000803e3d6000fd5b505050505050565b6000601860008381526020019081526020016000208054617df490619723565b80601f0160208091040260200160405190810160405280929190818152602001828054617e2090619723565b8015617e6d5780601f10617e4257610100808354040283529160200191617e6d565b820191906000526020600020905b815481529060010190602001808311617e5057829003601f168201915b505050505090506000600e60009054906101000a900473ffffffffffffffffffffffffffffffffffffffff1673ffffffffffffffffffffffffffffffffffffffff1663abc764da6040518163ffffffff1660e01b815260040160006040518083038186803b158015617ede57600080fd5b505afa158015617ef2573d6000803e3d6000fd5b505050506040513d6000823e3d601f19601f82011682018060405250810190617f1b91906185db565b905060005b8151811015617fd2576000601e60008681526020019081526020016000206000848481518110617f79577f4e487b7100000000000000000000000000000000000000000000000000000000600052603260045260246000fd5b602002602001015173ffffffffffffffffffffffffffffffffffffffff1673ffffffffffffffffffffffffffffffffffffffff168152602001908152602001600020819055508080617fca90619786565b915050617f20565b506001601b600085815260200190815260200160002060006101000a81548160ff0219169083151502179055506000601a600085815260200190815260200160002060006101000a81548160ff0219169083151502179055506000601c600085815260200190815260200160002060006101000a81548160ff021916908315150217905550823373ffffffffffffffffffffffffffffffffffffffff167ffdbe656509abcebb25a94a9630376c43df21fd5f51077a0c0e20965cf5a023278460405161809e9190618ff2565b60405180910390a3505050565b8280546180b790619723565b90600052602060002090601f0160209004810192826180d95760008555618120565b82601f106180f257805160ff1916838001178555618120565b82800160010185558215618120579182015b8281111561811f578251825591602001919060010190618104565b5b50905061812d91906181a0565b5090565b6040518061014001604052806000815260200160608152602001600081526020016000815260200160001515815260200160001515815260200160008152602001600073ffffffffffffffffffffffffffffffffffffffff168152602001600015158152602001600081525090565b5b808211156181b95760008160009055506001016181a1565b5090565b60006181d06181cb846192f4565b6192cf565b905080838252602082019050828560208602820111156181ef57600080fd5b60005b8581101561821f5781618205888261827c565b8452602084019350602083019250506001810190506181f2565b5050509392505050565b600061823c61823784619320565b6192cf565b90508281526020810184848401111561825457600080fd5b61825f8482856196e1565b509392505050565b60008135905061827681619aae565b92915050565b60008151905061828b81619aae565b92915050565b600082601f8301126182a257600080fd5b81516182b28482602086016181bd565b91505092915050565b6000813590506182ca81619ac5565b92915050565b6000815190506182df81619ac5565b92915050565b6000815190506182f481619adc565b92915050565b60008151905061830981619af3565b92915050565b60008151905061831e81619b0a565b92915050565b60008151905061833381619b21565b92915050565b60008151905061834881619b38565b92915050565b60008151905061835d81619b4f565b92915050565b60008151905061837281619b66565b92915050565b60008151905061838781619b7d565b92915050565b60008151905061839c81619b94565b92915050565b6000815190506183b181619bab565b92915050565b600082601f8301126183c857600080fd5b81356183d8848260208601618229565b91505092915050565b6000813590506183f081619bc2565b92915050565b60008151905061840581619bc2565b92915050565b60006020828403121561841d57600080fd5b600061842b84828501618267565b91505092915050565b60006020828403121561844657600080fd5b60006184548482850161827c565b91505092915050565b6000806040838503121561847057600080fd5b600061847e85828601618267565b925050602061848f85828601618267565b9150509250929050565b6000806000606084860312156184ae57600080fd5b60006184bc86828701618267565b93505060206184cd86828701618267565b92505060406184de86828701618267565b9150509250925092565b600080600080608085870312156184fe57600080fd5b600061850c87828801618267565b945050602061851d87828801618267565b935050604061852e87828801618267565b925050606061853f87828801618267565b91505092959194509250565b6000806040838503121561855e57600080fd5b600061856c85828601618267565b925050602083013567ffffffffffffffff81111561858957600080fd5b618595858286016183b7565b9150509250929050565b600080604083850312156185b257600080fd5b60006185c085828601618267565b92505060206185d1858286016183e1565b9150509250929050565b6000602082840312156185ed57600080fd5b600082015167ffffffffffffffff81111561860757600080fd5b61861384828501618291565b91505092915050565b60006020828403121561862e57600080fd5b600061863c848285016182d0565b91505092915050565b60006020828403121561865757600080fd5b6000618665848285016182e5565b91505092915050565b60006020828403121561868057600080fd5b600061868e848285016182fa565b91505092915050565b6000602082840312156186a957600080fd5b60006186b78482850161830f565b91505092915050565b6000602082840312156186d257600080fd5b60006186e084828501618324565b91505092915050565b6000602082840312156186fb57600080fd5b600061870984828501618339565b91505092915050565b60006020828403121561872457600080fd5b60006187328482850161834e565b91505092915050565b60006020828403121561874d57600080fd5b600061875b84828501618363565b91505092915050565b60006020828403121561877657600080fd5b600061878484828501618378565b91505092915050565b60006020828403121561879f57600080fd5b60006187ad8482850161838d565b91505092915050565b6000602082840312156187c857600080fd5b60006187d6848285016183a2565b91505092915050565b6000602082840312156187f157600080fd5b600082013567ffffffffffffffff81111561880b57600080fd5b618817848285016183b7565b91505092915050565b60006020828403121561883257600080fd5b6000618840848285016183e1565b91505092915050565b60006020828403121561885b57600080fd5b6000618869848285016183f6565b91505092915050565b6000806040838503121561888557600080fd5b6000618893858286016183e1565b92505060206188a485828601618267565b9150509250929050565b600080604083850312156188c157600080fd5b60006188cf858286016183e1565b925050602083013567ffffffffffffffff8111156188ec57600080fd5b6188f8858286016183b7565b9150509250929050565b6000806040838503121561891557600080fd5b6000618923858286016183f6565b9250506020618934858286016183f6565b9150509250929050565b6000806000806080858703121561895457600080fd5b6000618962878288016183e1565b9450506020618973878288016183e1565b9350506040618984878288016182bb565b9250506060618995878288016183e1565b91505092959194509250565b6000806000606084860312156189b657600080fd5b60006189c4868287016183e1565b93505060206189d5868287016183e1565b92505060406189e6868287016183e1565b9150509250925092565b6189f9816194a9565b82525050565b618a08816194a9565b82525050565b618a17816194bb565b82525050565b618a26816194bb565b82525050565b6000618a3782619351565b618a418185619367565b9350618a518185602086016196f0565b80840191505092915050565b618a668161959d565b82525050565b618a75816195c1565b82525050565b618a84816195e5565b82525050565b618a9381619609565b82525050565b618aa28161962d565b82525050565b618ab181619651565b82525050565b618ac081619675565b82525050565b618acf81619699565b82525050565b618ade816196bd565b82525050565b6000618aef8261935c565b618af98185619372565b9350618b098185602086016196f0565b618b128161988b565b840191505092915050565b6000618b288261935c565b618b328185619383565b9350618b428185602086016196f0565b618b4b8161988b565b840191505092915050565b6000618b63600783619383565b9150618b6e8261989c565b602082019050919050565b6000618b86600883619383565b9150618b91826198c5565b602082019050919050565b6000618ba9600583619383565b9150618bb4826198ee565b602082019050919050565b6000618bcc600583619383565b9150618bd782619917565b602082019050919050565b6000618bef600883619383565b9150618bfa82619940565b602082019050919050565b6000618c12600b83619383565b9150618c1d82619969565b602082019050919050565b6000618c35600683619383565b9150618c4082619992565b602082019050919050565b6000618c58600683619383565b9150618c63826199bb565b602082019050919050565b6000618c7b600583619383565b9150618c86826199e4565b602082019050919050565b6000618c9e602483619383565b9150618ca982619a0d565b604082019050919050565b6000618cc1601f83619383565b9150618ccc82619a5c565b602082019050919050565b6000618ce4600583619383565b9150618cef82619a85565b602082019050919050565b600061014083016000830151618d136000860182618dd4565b5060208301518482036020860152618d2b8282618ae4565b9150506040830151618d406040860182618dd4565b506060830151618d536060860182618dd4565b506080830151618d666080860182618a0e565b5060a0830151618d7960a0860182618a0e565b5060c0830151618d8c60c0860182618dd4565b5060e0830151618d9f60e08601826189f0565b50610100830151618db4610100860182618a0e565b50610120830151618dc9610120860182618dd4565b508091505092915050565b618ddd81619593565b82525050565b618dec81619593565b82525050565b6000618dfe8284618a2c565b915081905092915050565b6000602082019050618e1e60008301846189ff565b92915050565b6000604082019050618e3960008301856189ff565b618e4660208301846189ff565b9392505050565b6000606082019050618e6260008301866189ff565b618e6f60208301856189ff565b618e7c6040830184618de3565b949350505050565b6000604082019050618e9960008301856189ff565b618ea66020830184618de3565b9392505050565b6000606082019050618ec260008301866189ff565b618ecf6020830185618de3565b618edc60408301846189ff565b949350505050565b6000602082019050618ef96000830184618a1d565b92915050565b6000602082019050618f146000830184618a5d565b92915050565b6000602082019050618f2f6000830184618a6c565b92915050565b6000602082019050618f4a6000830184618a7b565b92915050565b6000602082019050618f656000830184618a8a565b92915050565b6000602082019050618f806000830184618a99565b92915050565b6000602082019050618f9b6000830184618aa8565b92915050565b6000602082019050618fb66000830184618ab7565b92915050565b6000602082019050618fd16000830184618ac6565b92915050565b6000602082019050618fec6000830184618ad5565b92915050565b6000602082019050818103600083015261900c8184618b1d565b905092915050565b6000602082019050818103600083015261902d81618b56565b9050919050565b6000602082019050818103600083015261904d81618b79565b9050919050565b6000602082019050818103600083015261906d81618b9c565b9050919050565b6000602082019050818103600083015261908d81618bbf565b9050919050565b600060208201905081810360008301526190ad81618be2565b9050919050565b600060208201905081810360008301526190cd81618c05565b9050919050565b600060208201905081810360008301526190ed81618c28565b9050919050565b6000602082019050818103600083015261910d81618c4b565b9050919050565b6000602082019050818103600083015261912d81618c6e565b9050919050565b6000602082019050818103600083015261914d81618c91565b9050919050565b6000602082019050818103600083015261916d81618cb4565b9050919050565b6000602082019050818103600083015261918d81618cd7565b9050919050565b600060208201905081810360008301526191ae8184618cfa565b905092915050565b60006020820190506191cb6000830184618de3565b92915050565b60006040820190506191e66000830185618de3565b6191f360208301846189ff565b9392505050565b600060408201905061920f6000830185618de3565b81810360208301526192218184618b1d565b90509392505050565b600060408201905061923f6000830185618de3565b61924c6020830184618de3565b9392505050565b60006080820190506192686000830187618de3565b6192756020830186618de3565b61928260408301856189ff565b61928f60608301846189ff565b95945050505050565b60006060820190506192ad6000830186618de3565b6192ba6020830185618de3565b6192c76040830184618de3565b949350505050565b60006192d96192ea565b90506192e58282619755565b919050565b6000604051905090565b600067ffffffffffffffff82111561930f5761930e61985c565b5b602082029050602081019050919050565b600067ffffffffffffffff82111561933b5761933a61985c565b5b6193448261988b565b9050602081019050919050565b600081519050919050565b600081519050919050565b600081905092915050565b600082825260208201905092915050565b600082825260208201905092915050565b600061939f82619593565b91506193aa83619593565b9250827fffffffffffffffffffffffffffffffffffffffffffffffffffffffffffffffff038211156193df576193de6197cf565b5b828201905092915050565b60006193f582619593565b915061940083619593565b9250826194105761940f6197fe565b5b828204905092915050565b600061942682619593565b915061943183619593565b9250817fffffffffffffffffffffffffffffffffffffffffffffffffffffffffffffffff048311821515161561946a576194696197cf565b5b828202905092915050565b600061948082619593565b915061948b83619593565b92508282101561949e5761949d6197cf565b5b828203905092915050565b60006194b482619573565b9050919050565b60008115159050919050565b6000819050919050565b60006194dc826194a9565b9050919050565b60006194ee826194a9565b9050919050565b6000619500826194a9565b9050919050565b6000619512826194a9565b9050919050565b6000619524826194a9565b9050919050565b6000619536826194a9565b9050919050565b6000619548826194a9565b9050919050565b600061955a826194a9565b9050919050565b600061956c826194a9565b9050919050565b600073ffffffffffffffffffffffffffffffffffffffff82169050919050565b6000819050919050565b60006195a8826195af565b9050919050565b60006195ba82619573565b9050919050565b60006195cc826195d3565b9050919050565b60006195de82619573565b9050919050565b60006195f0826195f7565b9050919050565b600061960282619573565b9050919050565b60006196148261961b565b9050919050565b600061962682619573565b9050919050565b60006196388261963f565b9050919050565b600061964a82619573565b9050919050565b600061965c82619663565b9050919050565b600061966e82619573565b9050919050565b600061968082619687565b9050919050565b600061969282619573565b9050919050565b60006196a4826196ab565b9050919050565b60006196b682619573565b9050919050565b60006196c8826196cf565b9050919050565b60006196da82619573565b9050919050565b82818337600083830152505050565b60005b8381101561970e5780820151818401526020810190506196f3565b8381111561971d576000848401525b50505050565b6000600282049050600182168061973b57607f821691505b6020821081141561974f5761974e61982d565b5b50919050565b61975e8261988b565b810181811067ffffffffffffffff8211171561977d5761977c61985c565b5b80604052505050565b600061979182619593565b91507fffffffffffffffffffffffffffffffffffffffffffffffffffffffffffffffff8214156197c4576197c36197cf565b5b600182019050919050565b7f4e487b7100000000000000000000000000000000000000000000000000000000600052601160045260246000fd5b7f4e487b7100000000000000000000000000000000000000000000000000000000600052601260045260246000fd5b7f4e487b7100000000000000000000000000000000000000000000000000000000600052602260045260246000fd5b7f4e487b7100000000000000000000000000000000000000000000000000000000600052604160045260246000fd5b6000601f19601f8301169050919050565b7f5245544952454400000000000000000000000000000000000000000000000000600082015250565b7f494e414354495645000000000000000000000000000000000000000000000000600082015250565b7f564f544544000000000000000000000000000000000000000000000000000000600082015250565b7f214f50454e000000000000000000000000000000000000000000000000000000600082015250565b7f21636f6f6c6f6666000000000000000000000000000000000000000000000000600082015250565b7f2166696e616c6973696e67000000000000000000000000000000000000000000600082015250565b7f21564f5445440000000000000000000000000000000000000000000000000000600082015250565b7f21706172616d0000000000000000000000000000000000000000000000000000600082015250565b7f2153414645000000000000000000000000000000000000000000000000000000600082015250565b7f5472616e7366657248656c7065723a205452414e534645525f46524f4d5f464160008201527f494c454400000000000000000000000000000000000000000000000000000000602082015250565b7f5265656e7472616e637947756172643a207265656e7472616e742063616c6c00600082015250565b7f2164617973000000000000000000000000000000000000000000000000000000600082015250565b619ab7816194a9565b8114619ac257600080fd5b50565b619ace816194bb565b8114619ad957600080fd5b50565b619ae5816194c7565b8114619af057600080fd5b50565b619afc816194d1565b8114619b0757600080fd5b50565b619b13816194e3565b8114619b1e57600080fd5b50565b619b2a816194f5565b8114619b3557600080fd5b50565b619b4181619507565b8114619b4c57600080fd5b50565b619b5881619519565b8114619b6357600080fd5b50565b619b6f8161952b565b8114619b7a57600080fd5b50565b619b868161953d565b8114619b9157600080fd5b50565b619b9d8161954f565b8114619ba857600080fd5b50565b619bb481619561565b8114619bbf57600080fd5b50565b619bcb81619593565b8114619bd657600080fd5b5056fea26469706673582212207e86f32c33e2d78769dd99b46d643415eebec59453ceac53380ad97d28af4abe64736f6c63430008030033",
  "linkReferences": {},
  "deployedLinkReferences": {}
}