{
  "_format": "hh-sol-artifact-1",
  "contractName": "Dao",
  "sourceName": "contracts/Dao.sol",
  "abi": [
    {
      "inputs": [
        {
          "internalType": "address",
          "name": "_base",
          "type": "address"
        }
      ],
      "stateMutability": "nonpayable",
      "type": "constructor"
    },
    {
      "anonymous": false,
      "inputs": [
        {
          "indexed": true,
          "internalType": "address",
          "name": "member",
          "type": "address"
        },
        {
          "indexed": true,
          "internalType": "uint256",
          "name": "proposalID",
          "type": "uint256"
        }
      ],
      "name": "CancelProposal",
      "type": "event"
    },
    {
      "anonymous": false,
      "inputs": [
        {
          "indexed": true,
          "internalType": "address",
          "name": "DAO",
          "type": "address"
        },
        {
          "indexed": true,
          "internalType": "address",
          "name": "asset",
          "type": "address"
        }
      ],
      "name": "DelistedAsset",
      "type": "event"
    },
    {
      "anonymous": false,
      "inputs": [
        {
          "indexed": true,
          "internalType": "address",
          "name": "owner",
          "type": "address"
        },
        {
          "indexed": false,
          "internalType": "uint256",
          "name": "depositAmount",
          "type": "uint256"
        },
        {
          "indexed": false,
          "internalType": "uint256",
          "name": "bondedLP",
          "type": "uint256"
        }
      ],
      "name": "DepositAsset",
      "type": "event"
    },
    {
      "anonymous": false,
      "inputs": [
        {
          "indexed": true,
          "internalType": "address",
          "name": "member",
          "type": "address"
        },
        {
          "indexed": true,
          "internalType": "uint256",
          "name": "proposalID",
          "type": "uint256"
        },
        {
          "indexed": false,
          "internalType": "string",
          "name": "proposalType",
          "type": "string"
        }
      ],
      "name": "FinalisedProposal",
      "type": "event"
    },
    {
      "anonymous": false,
      "inputs": [
        {
          "indexed": true,
          "internalType": "address",
          "name": "DAO",
          "type": "address"
        },
        {
          "indexed": true,
          "internalType": "address",
          "name": "asset",
          "type": "address"
        }
      ],
      "name": "ListedAsset",
      "type": "event"
    },
    {
      "anonymous": false,
      "inputs": [
        {
          "indexed": true,
          "internalType": "address",
          "name": "member",
          "type": "address"
        },
        {
          "indexed": true,
          "internalType": "address",
          "name": "pool",
          "type": "address"
        },
        {
          "indexed": false,
          "internalType": "uint256",
          "name": "amount",
          "type": "uint256"
        }
      ],
      "name": "MemberDeposits",
      "type": "event"
    },
    {
      "anonymous": false,
      "inputs": [
        {
          "indexed": true,
          "internalType": "address",
          "name": "member",
          "type": "address"
        },
        {
          "indexed": true,
          "internalType": "address",
          "name": "pool",
          "type": "address"
        },
        {
          "indexed": false,
          "internalType": "uint256",
          "name": "balance",
          "type": "uint256"
        }
      ],
      "name": "MemberWithdraws",
      "type": "event"
    },
    {
      "anonymous": false,
      "inputs": [
        {
          "indexed": true,
          "internalType": "address",
          "name": "member",
          "type": "address"
        },
        {
          "indexed": true,
          "internalType": "uint256",
          "name": "proposalID",
          "type": "uint256"
        },
        {
          "indexed": false,
          "internalType": "string",
          "name": "proposalType",
          "type": "string"
        }
      ],
      "name": "NewProposal",
      "type": "event"
    },
    {
      "anonymous": false,
      "inputs": [
        {
          "indexed": true,
          "internalType": "address",
          "name": "member",
          "type": "address"
        },
        {
          "indexed": true,
          "internalType": "uint256",
          "name": "proposalID",
          "type": "uint256"
        },
        {
          "indexed": false,
          "internalType": "string",
          "name": "proposalType",
          "type": "string"
        }
      ],
      "name": "NewVote",
      "type": "event"
    },
    {
      "anonymous": false,
      "inputs": [
        {
          "indexed": true,
          "internalType": "address",
          "name": "member",
          "type": "address"
        },
        {
          "indexed": true,
          "internalType": "uint256",
          "name": "proposalID",
          "type": "uint256"
        },
        {
          "indexed": false,
          "internalType": "uint256",
          "name": "timeFinalised",
          "type": "uint256"
        },
        {
          "indexed": false,
          "internalType": "string",
          "name": "proposalType",
          "type": "string"
        }
      ],
      "name": "ProposalFinalising",
      "type": "event"
    },
    {
      "anonymous": false,
      "inputs": [
        {
          "indexed": true,
          "internalType": "address",
          "name": "member",
          "type": "address"
        },
        {
          "indexed": true,
          "internalType": "uint256",
          "name": "proposalID",
          "type": "uint256"
        },
        {
          "indexed": false,
          "internalType": "string",
          "name": "proposalType",
          "type": "string"
        }
      ],
      "name": "RemovedVote",
      "type": "event"
    },
    {
      "inputs": [],
      "name": "BASE",
      "outputs": [
        {
          "internalType": "address",
          "name": "",
          "type": "address"
        }
      ],
      "stateMutability": "view",
      "type": "function"
    },
    {
      "inputs": [],
      "name": "BONDVAULT",
      "outputs": [
        {
          "internalType": "contract iBONDVAULT",
          "name": "",
          "type": "address"
        }
      ],
      "stateMutability": "view",
      "type": "function"
    },
    {
      "inputs": [],
      "name": "DAO",
      "outputs": [
        {
          "internalType": "address",
          "name": "",
          "type": "address"
        }
      ],
      "stateMutability": "view",
      "type": "function"
    },
    {
      "inputs": [],
      "name": "DAOVAULT",
      "outputs": [
        {
          "internalType": "contract iDAOVAULT",
          "name": "",
          "type": "address"
        }
      ],
      "stateMutability": "view",
      "type": "function"
    },
    {
      "inputs": [],
      "name": "DEPLOYER",
      "outputs": [
        {
          "internalType": "address",
          "name": "",
          "type": "address"
        }
      ],
      "stateMutability": "view",
      "type": "function"
    },
    {
      "inputs": [],
      "name": "LEND",
      "outputs": [
        {
          "internalType": "contract iLEND",
          "name": "",
          "type": "address"
        }
      ],
      "stateMutability": "view",
      "type": "function"
    },
    {
      "inputs": [],
      "name": "POOLFACTORY",
      "outputs": [
        {
          "internalType": "contract iPOOLFACTORY",
          "name": "",
          "type": "address"
        }
      ],
      "stateMutability": "view",
      "type": "function"
    },
    {
      "inputs": [],
      "name": "RESERVE",
      "outputs": [
        {
          "internalType": "contract iRESERVE",
          "name": "",
          "type": "address"
        }
      ],
      "stateMutability": "view",
      "type": "function"
    },
    {
      "inputs": [],
      "name": "ROUTER",
      "outputs": [
        {
          "internalType": "contract iROUTER",
          "name": "",
          "type": "address"
        }
      ],
      "stateMutability": "view",
      "type": "function"
    },
    {
      "inputs": [],
      "name": "SYNTHFACTORY",
      "outputs": [
        {
          "internalType": "contract iSYNTHFACTORY",
          "name": "",
          "type": "address"
        }
      ],
      "stateMutability": "view",
      "type": "function"
    },
    {
      "inputs": [],
      "name": "SYNTHVAULT",
      "outputs": [
        {
          "internalType": "contract iSYNTHVAULT",
          "name": "",
          "type": "address"
        }
      ],
      "stateMutability": "view",
      "type": "function"
    },
    {
      "inputs": [],
      "name": "UTILS",
      "outputs": [
        {
          "internalType": "contract iUTILS",
          "name": "",
          "type": "address"
        }
      ],
      "stateMutability": "view",
      "type": "function"
    },
    {
      "inputs": [],
      "name": "allListedAssets",
      "outputs": [
        {
          "internalType": "address[]",
          "name": "_allListedAssets",
          "type": "address[]"
        }
      ],
      "stateMutability": "view",
      "type": "function"
    },
    {
      "inputs": [
        {
          "internalType": "uint256",
          "name": "",
          "type": "uint256"
        }
      ],
      "name": "arrayMembers",
      "outputs": [
        {
          "internalType": "address",
          "name": "",
          "type": "address"
        }
      ],
      "stateMutability": "view",
      "type": "function"
    },
    {
      "inputs": [],
      "name": "assetListedCount",
      "outputs": [
        {
          "internalType": "uint256",
          "name": "count",
          "type": "uint256"
        }
      ],
      "stateMutability": "view",
      "type": "function"
    },
    {
      "inputs": [
        {
          "internalType": "address",
          "name": "asset",
          "type": "address"
        },
        {
          "internalType": "uint256",
          "name": "amount",
          "type": "uint256"
        }
      ],
      "name": "bond",
      "outputs": [
        {
          "internalType": "bool",
          "name": "success",
          "type": "bool"
        }
      ],
      "stateMutability": "payable",
      "type": "function"
    },
    {
      "inputs": [],
      "name": "bondingPeriodSeconds",
      "outputs": [
        {
          "internalType": "uint256",
          "name": "",
          "type": "uint256"
        }
      ],
      "stateMutability": "view",
      "type": "function"
    },
    {
      "inputs": [],
      "name": "burnBalance",
      "outputs": [
        {
          "internalType": "bool",
          "name": "",
          "type": "bool"
        }
      ],
      "stateMutability": "nonpayable",
      "type": "function"
    },
    {
      "inputs": [
        {
          "internalType": "address",
          "name": "bondedMember",
          "type": "address"
        },
        {
          "internalType": "address",
          "name": "asset",
          "type": "address"
        }
      ],
      "name": "calcClaimBondedLP",
      "outputs": [
        {
          "internalType": "uint256",
          "name": "",
          "type": "uint256"
        }
      ],
      "stateMutability": "view",
      "type": "function"
    },
    {
      "inputs": [
        {
          "internalType": "address",
          "name": "member",
          "type": "address"
        }
      ],
      "name": "calcCurrentReward",
      "outputs": [
        {
          "internalType": "uint256",
          "name": "",
          "type": "uint256"
        }
      ],
      "stateMutability": "view",
      "type": "function"
    },
    {
      "inputs": [
        {
          "internalType": "address",
          "name": "member",
          "type": "address"
        }
      ],
      "name": "calcReward",
      "outputs": [
        {
          "internalType": "uint256",
          "name": "",
          "type": "uint256"
        }
      ],
      "stateMutability": "view",
      "type": "function"
    },
    {
      "inputs": [],
      "name": "cancelProposal",
      "outputs": [],
      "stateMutability": "nonpayable",
      "type": "function"
    },
    {
      "inputs": [
        {
          "internalType": "uint256",
          "name": "bondingSeconds",
          "type": "uint256"
        }
      ],
      "name": "changeBondingPeriod",
      "outputs": [],
      "stateMutability": "nonpayable",
      "type": "function"
    },
    {
      "inputs": [
        {
          "internalType": "address[]",
          "name": "bondAssets",
          "type": "address[]"
        }
      ],
      "name": "claimAll",
      "outputs": [
        {
          "internalType": "bool",
          "name": "",
          "type": "bool"
        }
      ],
      "stateMutability": "nonpayable",
      "type": "function"
    },
    {
      "inputs": [],
      "name": "coolOffPeriod",
      "outputs": [
        {
          "internalType": "uint256",
          "name": "",
          "type": "uint256"
        }
      ],
      "stateMutability": "view",
      "type": "function"
    },
    {
      "inputs": [],
      "name": "currentProposal",
      "outputs": [
        {
          "internalType": "uint256",
          "name": "",
          "type": "uint256"
        }
      ],
      "stateMutability": "view",
      "type": "function"
    },
    {
      "inputs": [],
      "name": "daoClaim",
      "outputs": [
        {
          "internalType": "uint256",
          "name": "",
          "type": "uint256"
        }
      ],
      "stateMutability": "view",
      "type": "function"
    },
    {
      "inputs": [],
      "name": "daoFee",
      "outputs": [
        {
          "internalType": "uint256",
          "name": "",
          "type": "uint256"
        }
      ],
      "stateMutability": "view",
      "type": "function"
    },
    {
      "inputs": [],
      "name": "daoHasMoved",
      "outputs": [
        {
          "internalType": "bool",
          "name": "",
          "type": "bool"
        }
      ],
      "stateMutability": "view",
      "type": "function"
    },
    {
      "inputs": [
        {
          "internalType": "address",
          "name": "asset",
          "type": "address"
        }
      ],
      "name": "delistBondAsset",
      "outputs": [],
      "stateMutability": "nonpayable",
      "type": "function"
    },
    {
      "inputs": [
        {
          "internalType": "address",
          "name": "pool",
          "type": "address"
        },
        {
          "internalType": "uint256",
          "name": "amount",
          "type": "uint256"
        }
      ],
      "name": "deposit",
      "outputs": [],
      "stateMutability": "nonpayable",
      "type": "function"
    },
    {
      "inputs": [],
      "name": "erasToEarn",
      "outputs": [
        {
          "internalType": "uint256",
          "name": "",
          "type": "uint256"
        }
      ],
      "stateMutability": "view",
      "type": "function"
    },
    {
      "inputs": [],
      "name": "finaliseProposal",
      "outputs": [],
      "stateMutability": "nonpayable",
      "type": "function"
    },
    {
      "inputs": [
        {
          "internalType": "uint256",
          "name": "proposal",
          "type": "uint256"
        },
        {
          "internalType": "address",
          "name": "asset",
          "type": "address"
        }
      ],
      "name": "getProposalAssetVotes",
      "outputs": [
        {
          "internalType": "uint256",
          "name": "",
          "type": "uint256"
        }
      ],
      "stateMutability": "view",
      "type": "function"
    },
    {
      "inputs": [
        {
          "internalType": "uint256",
          "name": "proposalID",
          "type": "uint256"
        }
      ],
      "name": "getProposalDetails",
      "outputs": [
        {
          "components": [
            {
              "internalType": "uint256",
              "name": "id",
              "type": "uint256"
            },
            {
              "internalType": "string",
              "name": "proposalType",
              "type": "string"
            },
            {
              "internalType": "uint256",
              "name": "votes",
              "type": "uint256"
            },
            {
              "internalType": "uint256",
              "name": "coolOffTime",
              "type": "uint256"
            },
            {
              "internalType": "bool",
              "name": "finalising",
              "type": "bool"
            },
            {
              "internalType": "bool",
              "name": "finalised",
              "type": "bool"
            },
            {
              "internalType": "uint256",
              "name": "param",
              "type": "uint256"
            },
            {
              "internalType": "address",
              "name": "proposedAddress",
              "type": "address"
            },
            {
              "internalType": "bool",
              "name": "open",
              "type": "bool"
            },
            {
              "internalType": "uint256",
              "name": "startTime",
              "type": "uint256"
            }
          ],
          "internalType": "struct Dao.ProposalDetails",
          "name": "proposalDetails",
          "type": "tuple"
        }
      ],
      "stateMutability": "view",
      "type": "function"
    },
    {
      "inputs": [],
      "name": "harvest",
      "outputs": [],
      "stateMutability": "nonpayable",
      "type": "function"
    },
    {
      "inputs": [
        {
          "internalType": "uint256",
          "name": "_proposalID",
          "type": "uint256"
        }
      ],
      "name": "hasMajority",
      "outputs": [
        {
          "internalType": "bool",
          "name": "",
          "type": "bool"
        }
      ],
      "stateMutability": "view",
      "type": "function"
    },
    {
      "inputs": [
        {
          "internalType": "uint256",
          "name": "_proposalID",
          "type": "uint256"
        }
      ],
      "name": "hasQuorum",
      "outputs": [
        {
          "internalType": "bool",
          "name": "",
          "type": "bool"
        }
      ],
      "stateMutability": "view",
      "type": "function"
    },
    {
      "inputs": [
        {
          "internalType": "address",
          "name": "",
          "type": "address"
        }
      ],
      "name": "isListed",
      "outputs": [
        {
          "internalType": "bool",
          "name": "",
          "type": "bool"
        }
      ],
      "stateMutability": "view",
      "type": "function"
    },
    {
      "inputs": [
        {
          "internalType": "address",
          "name": "",
          "type": "address"
        }
      ],
      "name": "isMember",
      "outputs": [
        {
          "internalType": "bool",
          "name": "",
          "type": "bool"
        }
      ],
      "stateMutability": "view",
      "type": "function"
    },
    {
      "inputs": [
        {
          "internalType": "address",
          "name": "asset",
          "type": "address"
        }
      ],
      "name": "listBondAsset",
      "outputs": [],
      "stateMutability": "nonpayable",
      "type": "function"
    },
    {
      "inputs": [
        {
          "internalType": "uint256",
          "name": "",
          "type": "uint256"
        }
      ],
      "name": "listedBondPools",
      "outputs": [
        {
          "internalType": "address",
          "name": "",
          "type": "address"
        }
      ],
      "stateMutability": "view",
      "type": "function"
    },
    {
      "inputs": [],
      "name": "majorityFactor",
      "outputs": [
        {
          "internalType": "uint256",
          "name": "",
          "type": "uint256"
        }
      ],
      "stateMutability": "view",
      "type": "function"
    },
    {
      "inputs": [
        {
          "internalType": "address",
          "name": "",
          "type": "address"
        }
      ],
      "name": "mapMember_lastTime",
      "outputs": [
        {
          "internalType": "uint256",
          "name": "",
          "type": "uint256"
        }
      ],
      "stateMutability": "view",
      "type": "function"
    },
    {
      "inputs": [
        {
          "internalType": "uint256",
          "name": "",
          "type": "uint256"
        }
      ],
      "name": "mapPID_address",
      "outputs": [
        {
          "internalType": "address",
          "name": "",
          "type": "address"
        }
      ],
      "stateMutability": "view",
      "type": "function"
    },
    {
      "inputs": [
        {
          "internalType": "uint256",
          "name": "",
          "type": "uint256"
        }
      ],
      "name": "mapPID_coolOffTime",
      "outputs": [
        {
          "internalType": "uint256",
          "name": "",
          "type": "uint256"
        }
      ],
      "stateMutability": "view",
      "type": "function"
    },
    {
      "inputs": [
        {
          "internalType": "uint256",
          "name": "",
          "type": "uint256"
        }
      ],
      "name": "mapPID_finalised",
      "outputs": [
        {
          "internalType": "bool",
          "name": "",
          "type": "bool"
        }
      ],
      "stateMutability": "view",
      "type": "function"
    },
    {
      "inputs": [
        {
          "internalType": "uint256",
          "name": "",
          "type": "uint256"
        }
      ],
      "name": "mapPID_finalising",
      "outputs": [
        {
          "internalType": "bool",
          "name": "",
          "type": "bool"
        }
      ],
      "stateMutability": "view",
      "type": "function"
    },
    {
      "inputs": [
        {
          "internalType": "uint256",
          "name": "",
          "type": "uint256"
        }
      ],
      "name": "mapPID_open",
      "outputs": [
        {
          "internalType": "bool",
          "name": "",
          "type": "bool"
        }
      ],
      "stateMutability": "view",
      "type": "function"
    },
    {
      "inputs": [
        {
          "internalType": "uint256",
          "name": "",
          "type": "uint256"
        }
      ],
      "name": "mapPID_param",
      "outputs": [
        {
          "internalType": "uint256",
          "name": "",
          "type": "uint256"
        }
      ],
      "stateMutability": "view",
      "type": "function"
    },
    {
      "inputs": [
        {
          "internalType": "uint256",
          "name": "",
          "type": "uint256"
        }
      ],
      "name": "mapPID_startTime",
      "outputs": [
        {
          "internalType": "uint256",
          "name": "",
          "type": "uint256"
        }
      ],
      "stateMutability": "view",
      "type": "function"
    },
    {
      "inputs": [
        {
          "internalType": "uint256",
          "name": "",
          "type": "uint256"
        }
      ],
      "name": "mapPID_type",
      "outputs": [
        {
          "internalType": "string",
          "name": "",
          "type": "string"
        }
      ],
      "stateMutability": "view",
      "type": "function"
    },
    {
      "inputs": [],
      "name": "memberCount",
      "outputs": [
        {
          "internalType": "uint256",
          "name": "",
          "type": "uint256"
        }
      ],
      "stateMutability": "view",
      "type": "function"
    },
    {
      "inputs": [
        {
          "internalType": "uint256",
          "name": "proposal",
          "type": "uint256"
        },
        {
          "internalType": "address",
          "name": "member",
          "type": "address"
        }
      ],
      "name": "memberVoted",
      "outputs": [
        {
          "internalType": "bool",
          "name": "",
          "type": "bool"
        }
      ],
      "stateMutability": "view",
      "type": "function"
    },
    {
      "inputs": [
        {
          "internalType": "address",
          "name": "newDAO",
          "type": "address"
        }
      ],
      "name": "moveBASEBalance",
      "outputs": [],
      "stateMutability": "nonpayable",
      "type": "function"
    },
    {
      "inputs": [
        {
          "internalType": "string",
          "name": "typeStr",
          "type": "string"
        }
      ],
      "name": "newActionProposal",
      "outputs": [],
      "stateMutability": "nonpayable",
      "type": "function"
    },
    {
      "inputs": [
        {
          "internalType": "address",
          "name": "proposedAddress",
          "type": "address"
        },
        {
          "internalType": "string",
          "name": "typeStr",
          "type": "string"
        }
      ],
      "name": "newAddressProposal",
      "outputs": [],
      "stateMutability": "nonpayable",
      "type": "function"
    },
    {
      "inputs": [
        {
          "internalType": "address",
          "name": "recipient",
          "type": "address"
        },
        {
          "internalType": "uint256",
          "name": "amount",
          "type": "uint256"
        }
      ],
      "name": "newGrantProposal",
      "outputs": [],
      "stateMutability": "nonpayable",
      "type": "function"
    },
    {
      "inputs": [
        {
          "internalType": "uint256",
          "name": "param",
          "type": "uint256"
        },
        {
          "internalType": "string",
          "name": "typeStr",
          "type": "string"
        }
      ],
      "name": "newParamProposal",
      "outputs": [],
      "stateMutability": "nonpayable",
      "type": "function"
    },
    {
      "inputs": [],
      "name": "pollVotes",
      "outputs": [],
      "stateMutability": "nonpayable",
      "type": "function"
    },
    {
      "inputs": [],
      "name": "purgeDeployer",
      "outputs": [],
      "stateMutability": "nonpayable",
      "type": "function"
    },
    {
      "inputs": [],
      "name": "retire",
      "outputs": [
        {
          "internalType": "bool",
          "name": "",
          "type": "bool"
        }
      ],
      "stateMutability": "view",
      "type": "function"
    },
    {
      "inputs": [],
      "name": "running",
      "outputs": [
        {
          "internalType": "bool",
          "name": "",
          "type": "bool"
        }
      ],
      "stateMutability": "view",
      "type": "function"
    },
    {
      "inputs": [
        {
          "internalType": "address",
          "name": "_poolFactory",
          "type": "address"
        },
        {
          "internalType": "address",
          "name": "_synthFactory",
          "type": "address"
        }
      ],
      "name": "setFactoryAddresses",
      "outputs": [],
      "stateMutability": "nonpayable",
      "type": "function"
    },
    {
      "inputs": [
        {
          "internalType": "address",
          "name": "_router",
          "type": "address"
        },
        {
          "internalType": "address",
          "name": "_utils",
          "type": "address"
        },
        {
          "internalType": "address",
          "name": "_reserve",
          "type": "address"
        },
        {
          "internalType": "address",
          "name": "_lend",
          "type": "address"
        }
      ],
      "name": "setGenesisAddresses",
      "outputs": [],
      "stateMutability": "nonpayable",
      "type": "function"
    },
    {
      "inputs": [
        {
          "internalType": "uint256",
          "name": "_coolOff",
          "type": "uint256"
        },
        {
          "internalType": "uint256",
          "name": "_erasToEarn",
          "type": "uint256"
        },
        {
          "internalType": "uint256",
          "name": "_majorityFactor",
          "type": "uint256"
        },
        {
          "internalType": "uint256",
          "name": "_daoClaim",
          "type": "uint256"
        },
        {
          "internalType": "uint256",
          "name": "_daoFee",
          "type": "uint256"
        }
      ],
      "name": "setGenesisFactors",
      "outputs": [],
      "stateMutability": "nonpayable",
      "type": "function"
    },
    {
      "inputs": [
        {
          "internalType": "address",
          "name": "_daovault",
          "type": "address"
        },
        {
          "internalType": "address",
          "name": "_bondvault",
          "type": "address"
        },
        {
          "internalType": "address",
          "name": "_synthVault",
          "type": "address"
        }
      ],
      "name": "setVaultAddresses",
      "outputs": [],
      "stateMutability": "nonpayable",
      "type": "function"
    },
    {
      "inputs": [],
      "name": "unvoteProposal",
      "outputs": [],
      "stateMutability": "nonpayable",
      "type": "function"
    },
    {
      "inputs": [],
      "name": "voteProposal",
      "outputs": [],
      "stateMutability": "nonpayable",
      "type": "function"
    },
    {
      "inputs": [
        {
          "internalType": "address",
          "name": "pool",
          "type": "address"
        }
      ],
      "name": "withdraw",
      "outputs": [],
      "stateMutability": "nonpayable",
      "type": "function"
    }
  ],
  "bytecode": "0x60a060405262ed4e006014553480156200001857600080fd5b506040516200ba9d3803806200ba9d83398181016040528101906200003e9190620001d8565b6001600081905550600073ffffffffffffffffffffffffffffffffffffffff168173ffffffffffffffffffffffffffffffffffffffff161415620000b9576040517f08c379a0000000000000000000000000000000000000000000000000000000008152600401620000b0906200022b565b60405180910390fd5b8073ffffffffffffffffffffffffffffffffffffffff1660808173ffffffffffffffffffffffffffffffffffffffff1660601b8152505033600160006101000a81548173ffffffffffffffffffffffffffffffffffffffff021916908373ffffffffffffffffffffffffffffffffffffffff16021790555030600860016101000a81548173ffffffffffffffffffffffffffffffffffffffff021916908373ffffffffffffffffffffffffffffffffffffffff1602179055506203f480600281905550601e600481905550611a0a6003819055506103e86005819055506000600160156101000a81548160ff02191690831515021790555061019060068190555050620002d5565b600081519050620001d281620002bb565b92915050565b600060208284031215620001eb57600080fd5b6000620001fb84828501620001c1565b91505092915050565b6000620002136005836200024d565b9150620002208262000292565b602082019050919050565b60006020820190508181036000830152620002468162000204565b9050919050565b600082825260208201905092915050565b60006200026b8262000272565b9050919050565b600073ffffffffffffffffffffffffffffffffffffffff82169050919050565b7f215a45524f000000000000000000000000000000000000000000000000000000600082015250565b620002c6816200025e565b8114620002d257600080fd5b50565b60805160601c61b7406200035d60003960008181611cb6015281816124070152818161264c01528181613d3601528181613de101528181615224015281816165640152818161660f01528181616c780152818161795101528181617b7f01528181617c5201528181617cb10152818161851b015281816187600152618941015261b7406000f3fe6080604052600436106104055760003560e01c806379b2dc4c11610213578063ae887c8b11610123578063c1b8411a116100ab578063ec342ad01161007a578063ec342ad014610fba578063f135dcf814610fe5578063f301e78114611022578063f794062e1461104d578063f7a79a371461108a57610405565b8063c1b8411a14610f12578063d145836314610f3d578063d85bd52614610f66578063db634d7c14610f9157610405565b8063b93ec54b116100f2578063b93ec54b14610e17578063b99b0a0c14610e42578063bbf8cf8214610e6d578063bc68fad914610eaa578063c05fc17814610ed557610405565b8063ae887c8b14610d37578063af04598014610d74578063b7407e6a14610d9d578063b826286914610dda57610405565b80639d2cc436116101a6578063a4874d7711610175578063a4874d7714610c71578063a515366a14610c9c578063a6c83fed14610ccc578063ab2bd8fd14610cf5578063abb6154f14610d0c57610405565b80639d2cc43614610ba3578063a230c52414610bce578063a299ecb214610c0b578063a320224614610c4857610405565b80639070577f116101e25780639070577f14610b0d578063956615be14610b2457806398fabd3a14610b4f5780639cd99aa214610b7a57610405565b806379b2dc4c14610a635780637b0e5c4514610a8e5780638351739a14610ab95780638bebea8914610ad057610405565b80633a61738d116103195780634b400034116102a15780635f9384fc116102705780635f9384fc146109b857806365c71bbf146109cf578063682454ed146109fa57806368bb97b314610a115780637375898814610a3a57610405565b80634b400034146108d857806351cff8d9146109155780635c120b371461093e5780635c7366d31461097b57610405565b806343b2116f116102e857806343b2116f1461080957806346350821146108325780634636279f1461085b5780634641257d1461089857806347e7ef24146108af57610405565b80633a61738d146107155780633b4d01a7146107525780633f3fa3361461078f578063436f80be146107cc57610405565b80632ab24e491161039c5780632f7fa1801161036b5780632f7fa1801461062c578063314604fe1461065757806332fe7b261461069457806335cb5fe0146106bf57806338da7dd6146106ea57610405565b80632ab24e491461056e5780632b49d425146105995780632bee1194146105c45780632c07eebf1461060157610405565b806320b1b45d116103d857806320b1b45d146104c657806324efb528146104ef578063293cee7d1461051a5780632957b8391461054357610405565b806303a821381461040a57806303c06fbd1461042157806311aee3801461045e5780631e2de0d114610489575b600080fd5b34801561041657600080fd5b5061041f6110b5565b005b34801561042d57600080fd5b5061044860048036038101906104439190619f15565b611153565b604051610455919061a674565b60405180910390f35b34801561046a57600080fd5b50610473611192565b604051610480919061ab63565b60405180910390f35b34801561049557600080fd5b506104b060048036038101906104ab9190619c8f565b61119f565b6040516104bd919061a771565b60405180910390f35b3480156104d257600080fd5b506104ed60048036038101906104e8919061a033565b61131a565b005b3480156104fb57600080fd5b5061050461139e565b604051610511919061a771565b60405180910390f35b34801561052657600080fd5b50610541600480360381019061053c9190619bff565b6113b1565b005b34801561054f57600080fd5b50610558611667565b604051610565919061ab63565b60405180910390f35b34801561057a57600080fd5b5061058361166d565b604051610590919061a849565b60405180910390f35b3480156105a557600080fd5b506105ae611754565b6040516105bb919061ab63565b60405180910390f35b3480156105d057600080fd5b506105eb60048036038101906105e69190619f15565b61175a565b6040516105f8919061a771565b60405180910390f35b34801561060d57600080fd5b5061061661177a565b604051610623919061ab63565b60405180910390f35b34801561063857600080fd5b50610641611780565b60405161064e919061a78c565b60405180910390f35b34801561066357600080fd5b5061067e60048036038101906106799190619f15565b611867565b60405161068b919061ab63565b60405180910390f35b3480156106a057600080fd5b506106a961187f565b6040516106b6919061a813565b60405180910390f35b3480156106cb57600080fd5b506106d4611966565b6040516106e1919061a74f565b60405180910390f35b3480156106f657600080fd5b506106ff6119f4565b60405161070c919061a7a7565b60405180910390f35b34801561072157600080fd5b5061073c60048036038101906107379190619abf565b611adb565b604051610749919061ab63565b60405180910390f35b34801561075e57600080fd5b5061077960048036038101906107749190619f15565b611e68565b604051610786919061ab41565b60405180910390f35b34801561079b57600080fd5b506107b660048036038101906107b19190619f67565b612077565b6040516107c3919061ab63565b60405180910390f35b3480156107d857600080fd5b506107f360048036038101906107ee9190619f15565b6120d2565b604051610800919061a674565b60405180910390f35b34801561081557600080fd5b50610830600480360381019061082b9190619b9c565b612111565b005b34801561083e57600080fd5b5061085960048036038101906108549190619b11565b612275565b005b34801561086757600080fd5b50610882600480360381019061087d9190619abf565b612355565b60405161088f919061ab63565b60405180910390f35b3480156108a457600080fd5b506108ad6124c6565b005b3480156108bb57600080fd5b506108d660048036038101906108d19190619c53565b6127d6565b005b3480156108e457600080fd5b506108ff60048036038101906108fa9190619f15565b612d5e565b60405161090c919061a771565b60405180910390f35b34801561092157600080fd5b5061093c60048036038101906109379190619abf565b612d7e565b005b34801561094a57600080fd5b5061096560048036038101906109609190619f15565b61308c565b604051610972919061a771565b60405180910390f35b34801561098757600080fd5b506109a2600480360381019061099d9190619abf565b6135ef565b6040516109af919061ab63565b60405180910390f35b3480156109c457600080fd5b506109cd613607565b005b3480156109db57600080fd5b506109e46139ff565b6040516109f1919061ab63565b60405180910390f35b348015610a0657600080fd5b50610a0f613a05565b005b348015610a1d57600080fd5b50610a386004803603810190610a339190619abf565b613cd8565b005b348015610a4657600080fd5b50610a616004803603810190610a5c9190619b4d565b613e91565b005b348015610a6f57600080fd5b50610a78613fb3565b604051610a85919061ab63565b60405180910390f35b348015610a9a57600080fd5b50610aa3613fb9565b604051610ab0919061a864565b60405180910390f35b348015610ac557600080fd5b50610ace6140a0565b005b348015610adc57600080fd5b50610af76004803603810190610af29190619f15565b61445c565b604051610b04919061a771565b60405180910390f35b348015610b1957600080fd5b50610b2261447c565b005b348015610b3057600080fd5b50610b39614769565b604051610b46919061ab63565b60405180910390f35b348015610b5b57600080fd5b50610b6461476f565b604051610b71919061a674565b60405180910390f35b348015610b8657600080fd5b50610ba16004803603810190610b9c9190619abf565b614795565b005b348015610baf57600080fd5b50610bb8614aad565b604051610bc5919061a7f8565b60405180910390f35b348015610bda57600080fd5b50610bf56004803603810190610bf09190619abf565b614b94565b604051610c02919061a771565b60405180910390f35b348015610c1757600080fd5b50610c326004803603810190610c2d9190619f15565b614bb4565b604051610c3f919061ab63565b60405180910390f35b348015610c5457600080fd5b50610c6f6004803603810190610c6a9190619fa3565b614bcc565b005b348015610c7d57600080fd5b50610c86614cb8565b604051610c93919061a771565b60405180910390f35b610cb66004803603810190610cb19190619c53565b614ccb565b604051610cc3919061a771565b60405180910390f35b348015610cd857600080fd5b50610cf36004803603810190610cee9190619c53565b6151b0565b005b348015610d0157600080fd5b50610d0a615494565b005b348015610d1857600080fd5b50610d21615cc4565b604051610d2e919061ab63565b60405180910390f35b348015610d4357600080fd5b50610d5e6004803603810190610d599190619f15565b615cca565b604051610d6b919061a674565b60405180910390f35b348015610d8057600080fd5b50610d9b6004803603810190610d969190619f15565b615cfd565b005b348015610da957600080fd5b50610dc46004803603810190610dbf9190619f67565b615d61565b604051610dd1919061a771565b60405180910390f35b348015610de657600080fd5b50610e016004803603810190610dfc9190619f15565b615dc9565b604051610e0e919061ab63565b60405180910390f35b348015610e2357600080fd5b50610e2c615de1565b604051610e39919061a82e565b60405180910390f35b348015610e4e57600080fd5b50610e57615ec8565b604051610e64919061a7dd565b60405180910390f35b348015610e7957600080fd5b50610e946004803603810190610e8f9190619f15565b615faf565b604051610ea1919061a771565b60405180910390f35b348015610eb657600080fd5b50610ebf616504565b604051610ecc919061a771565b60405180910390f35b348015610ee157600080fd5b50610efc6004803603810190610ef79190619f15565b6166a0565b604051610f09919061a87f565b60405180910390f35b348015610f1e57600080fd5b50610f27616740565b604051610f34919061a674565b60405180910390f35b348015610f4957600080fd5b50610f646004803603810190610f5f9190619ed4565b616766565b005b348015610f7257600080fd5b50610f7b6167f6565b604051610f88919061a771565b60405180910390f35b348015610f9d57600080fd5b50610fb86004803603810190610fb39190619abf565b616809565b005b348015610fc657600080fd5b50610fcf616c76565b604051610fdc919061a674565b60405180910390f35b348015610ff157600080fd5b5061100c60048036038101906110079190619b11565b616c9a565b604051611019919061ab63565b60405180910390f35b34801561102e57600080fd5b50611037616d56565b604051611044919061a7c2565b60405180910390f35b34801561105957600080fd5b50611074600480360381019061106f9190619abf565b616e3d565b604051611081919061a771565b60405180910390f35b34801561109657600080fd5b5061109f616e5d565b6040516110ac919061ab63565b60405180910390f35b600160009054906101000a900473ffffffffffffffffffffffffffffffffffffffff1673ffffffffffffffffffffffffffffffffffffffff163373ffffffffffffffffffffffffffffffffffffffff161461110f57600080fd5b6000600160006101000a81548173ffffffffffffffffffffffffffffffffffffffff021916908373ffffffffffffffffffffffffffffffffffffffff160217905550565b6013818154811061116357600080fd5b906000526020600020016000915054906101000a900473ffffffffffffffffffffffffffffffffffffffff1681565b6000601280549050905090565b6000600160149054906101000a900460ff16156111f1576040517f08c379a00000000000000000000000000000000000000000000000000000000081526004016111e89061a8c1565b60405180910390fd5b600060075490506000601e600083815260200190815260200160002060009054906101000a900460ff16801561128157506021600083815260200190815260200160002060003373ffffffffffffffffffffffffffffffffffffffff1673ffffffffffffffffffffffffffffffffffffffff16815260200190815260200160002060009054906101000a900460ff165b905080156112945761129282616e6a565b505b60005b84518110156112fd576112e98582815181106112dc577f4e487b7100000000000000000000000000000000000000000000000000000000600052603260045260246000fd5b60200260200101516171d8565b5080806112f59061b16c565b915050611297565b5060019250801561131357611311826172db565b505b5050919050565b600160009054906101000a900473ffffffffffffffffffffffffffffffffffffffff1673ffffffffffffffffffffffffffffffffffffffff163373ffffffffffffffffffffffffffffffffffffffff161461137457600080fd5b84600281905550836004819055508260038190555081600581905550806006819055505050505050565b600860009054906101000a900460ff1681565b60008190506113f5816040518060400160405280600381526020017f44414f0000000000000000000000000000000000000000000000000000000000815250617649565b8061143b575061143a816040518060400160405280600681526020017f524f555445520000000000000000000000000000000000000000000000000000815250617649565b5b806114815750611480816040518060400160405280600581526020017f5554494c53000000000000000000000000000000000000000000000000000000815250617649565b5b806114c757506114c6816040518060400160405280600781526020017f5245534552564500000000000000000000000000000000000000000000000000815250617649565b5b8061150d575061150c816040518060400160405280600781526020017f5245414c49534500000000000000000000000000000000000000000000000000815250617649565b5b1561158357600073ffffffffffffffffffffffffffffffffffffffff168373ffffffffffffffffffffffffffffffffffffffff161415611582576040517f08c379a00000000000000000000000000000000000000000000000000000000081526004016115799061aa81565b60405180910390fd5b5b600061158d6176f4565b905061159761794d565b50836019600083815260200190815260200160002060006101000a81548173ffffffffffffffffffffffffffffffffffffffff021916908373ffffffffffffffffffffffffffffffffffffffff16021790555082601a600083815260200190815260200160002090805190602001906116119291906196de565b50803373ffffffffffffffffffffffffffffffffffffffff167f8d500fcad86fc64a281b94ef64d6d66acbfc6862aa4ff2ee5fbbfb40736e803e85604051611659919061a87f565b60405180910390a350505050565b60065481565b6000600860009054906101000a900460ff161561172b57600860019054906101000a900473ffffffffffffffffffffffffffffffffffffffff1673ffffffffffffffffffffffffffffffffffffffff16632ab24e496040518163ffffffff1660e01b815260040160206040518083038186803b1580156116ec57600080fd5b505afa158015611700573d6000803e3d6000fd5b505050506040513d601f19601f820116820180604052508101906117249190619e82565b9050611751565b601060009054906101000a900473ffffffffffffffffffffffffffffffffffffffff1690505b90565b60075481565b601d6020528060005260406000206000915054906101000a900460ff1681565b60045481565b6000600860009054906101000a900460ff161561183e57600860019054906101000a900473ffffffffffffffffffffffffffffffffffffffff1673ffffffffffffffffffffffffffffffffffffffff16632f7fa1806040518163ffffffff1660e01b815260040160206040518083038186803b1580156117ff57600080fd5b505afa158015611813573d6000803e3d6000fd5b505050506040513d601f19601f820116820180604052508101906118379190619d63565b9050611864565b600b60009054906101000a900473ffffffffffffffffffffffffffffffffffffffff1690505b90565b60186020528060005260406000206000915090505481565b6000600860009054906101000a900460ff161561193d57600860019054906101000a900473ffffffffffffffffffffffffffffffffffffffff1673ffffffffffffffffffffffffffffffffffffffff166332fe7b266040518163ffffffff1660e01b815260040160206040518083038186803b1580156118fe57600080fd5b505afa158015611912573d6000803e3d6000fd5b505050506040513d601f19601f820116820180604052508101906119369190619e30565b9050611963565b600960009054906101000a900473ffffffffffffffffffffffffffffffffffffffff1690505b90565b606060138054806020026020016040519081016040528092919081815260200182805480156119ea57602002820191906000526020600020905b8160009054906101000a900473ffffffffffffffffffffffffffffffffffffffff1673ffffffffffffffffffffffffffffffffffffffff16815260200190600101908083116119a0575b5050505050905090565b6000600860009054906101000a900460ff1615611ab257600860019054906101000a900473ffffffffffffffffffffffffffffffffffffffff1673ffffffffffffffffffffffffffffffffffffffff166338da7dd66040518163ffffffff1660e01b815260040160206040518083038186803b158015611a7357600080fd5b505afa158015611a87573d6000803e3d6000fd5b505050506040513d601f19601f82011682018060405250810190611aab9190619d8c565b9050611ad8565b600c60009054906101000a900473ffffffffffffffffffffffffffffffffffffffff1690505b90565b6000600160149054906101000a900460ff1615611b2d576040517f08c379a0000000000000000000000000000000000000000000000000000000008152600401611b249061a8c1565b60405180910390fd5b600080600c60009054906101000a900473ffffffffffffffffffffffffffffffffffffffff1673ffffffffffffffffffffffffffffffffffffffff1663a477b804856040518263ffffffff1660e01b8152600401611b8b919061a674565b604080518083038186803b158015611ba257600080fd5b505afa158015611bb6573d6000803e3d6000fd5b505050506040513d601f19601f82011682018060405250810190611bda9190619ff7565b91509150600080600b60009054906101000a900473ffffffffffffffffffffffffffffffffffffffff1673ffffffffffffffffffffffffffffffffffffffff1663a477b804876040518263ffffffff1660e01b8152600401611c3c919061a674565b604080518083038186803b158015611c5357600080fd5b505afa158015611c67573d6000803e3d6000fd5b505050506040513d601f19601f82011682018060405250810190611c8b9190619ff7565b9150915060008285611c9d919061ad7a565b905060008285611cad919061ad7a565b905060006004547f000000000000000000000000000000000000000000000000000000000000000073ffffffffffffffffffffffffffffffffffffffff166370a08231600f60009054906101000a900473ffffffffffffffffffffffffffffffffffffffff166040518263ffffffff1660e01b8152600401611d2f919061a674565b60206040518083038186803b158015611d4757600080fd5b505afa158015611d5b573d6000803e3d6000fd5b505050506040513d601f19601f82011682018060405250810190611d7f9190619f3e565b611d89919061add0565b9050600061271060055483611d9e919061ae01565b611da8919061add0565b9050600a60009054906101000a900473ffffffffffffffffffffffffffffffffffffffff1673ffffffffffffffffffffffffffffffffffffffff16631ba326c48585846040518463ffffffff1660e01b8152600401611e099392919061ac45565b60206040518083038186803b158015611e2157600080fd5b505afa158015611e35573d6000803e3d6000fd5b505050506040513d601f19601f82011682018060405250810190611e599190619f3e565b98505050505050505050919050565b611e70619764565b81816000018181525050601a60008381526020019081526020016000208054611e989061b109565b80601f0160208091040260200160405190810160405280929190818152602001828054611ec49061b109565b8015611f115780601f10611ee657610100808354040283529160200191611f11565b820191906000526020600020905b815481529060010190602001808311611ef457829003601f168201915b50505050508160200181905250601b600083815260200190815260200160002054816060018181525050601c600083815260200190815260200160002060009054906101000a900460ff16816080019015159081151581525050601d600083815260200190815260200160002060009054906101000a900460ff168160a001901515908115158152505060186000838152602001908152602001600020548160c00181815250506019600083815260200190815260200160002060009054906101000a900473ffffffffffffffffffffffffffffffffffffffff168160e0019073ffffffffffffffffffffffffffffffffffffffff16908173ffffffffffffffffffffffffffffffffffffffff1681525050601e600083815260200190815260200160002060009054906101000a900460ff1681610100019015159081151581525050601f60008381526020019081526020016000205481610120018181525050919050565b60006020600084815260200190815260200160002060008373ffffffffffffffffffffffffffffffffffffffff1673ffffffffffffffffffffffffffffffffffffffff16815260200190815260200160002054905092915050565b601281815481106120e257600080fd5b906000526020600020016000915054906101000a900473ffffffffffffffffffffffffffffffffffffffff1681565b600160009054906101000a900473ffffffffffffffffffffffffffffffffffffffff1673ffffffffffffffffffffffffffffffffffffffff163373ffffffffffffffffffffffffffffffffffffffff161461216b57600080fd5b83600960006101000a81548173ffffffffffffffffffffffffffffffffffffffff021916908373ffffffffffffffffffffffffffffffffffffffff16021790555082600a60006101000a81548173ffffffffffffffffffffffffffffffffffffffff021916908373ffffffffffffffffffffffffffffffffffffffff16021790555081600f60006101000a81548173ffffffffffffffffffffffffffffffffffffffff021916908373ffffffffffffffffffffffffffffffffffffffff16021790555080601160006101000a81548173ffffffffffffffffffffffffffffffffffffffff021916908373ffffffffffffffffffffffffffffffffffffffff16021790555050505050565b600160009054906101000a900473ffffffffffffffffffffffffffffffffffffffff1673ffffffffffffffffffffffffffffffffffffffff163373ffffffffffffffffffffffffffffffffffffffff16146122cf57600080fd5b81600d60006101000a81548173ffffffffffffffffffffffffffffffffffffffff021916908373ffffffffffffffffffffffffffffffffffffffff16021790555080600e60006101000a81548173ffffffffffffffffffffffffffffffffffffffff021916908373ffffffffffffffffffffffffffffffffffffffff1602179055505050565b6000600160149054906101000a900460ff16156123a7576040517f08c379a000000000000000000000000000000000000000000000000000000000815260040161239e9061a8c1565b60405180910390fd5b6000601760008473ffffffffffffffffffffffffffffffffffffffff1673ffffffffffffffffffffffffffffffffffffffff16815260200190815260200160002054426123f4919061ae5b565b9050600061240184611adb565b905060007f000000000000000000000000000000000000000000000000000000000000000073ffffffffffffffffffffffffffffffffffffffff16636b92a3b66040518163ffffffff1660e01b815260040160206040518083038186803b15801561246b57600080fd5b505afa15801561247f573d6000803e3d6000fd5b505050506040513d601f19601f820116820180604052508101906124a39190619f3e565b83836124af919061ae01565b6124b9919061add0565b9050809350505050919050565b600160149054906101000a900460ff1615612516576040517f08c379a000000000000000000000000000000000000000000000000000000000815260040161250d9061a8c1565b60405180910390fd5b600f60009054906101000a900473ffffffffffffffffffffffffffffffffffffffff1673ffffffffffffffffffffffffffffffffffffffff16632267716c6040518163ffffffff1660e01b8152600401602060405180830381600087803b15801561258057600080fd5b505af1158015612594573d6000803e3d6000fd5b505050506040513d601f19601f820116820180604052508101906125b89190619d11565b6125f7576040517f08c379a00000000000000000000000000000000000000000000000000000000081526004016125ee9061a961565b60405180910390fd5b600061260233612355565b905042601760003373ffffffffffffffffffffffffffffffffffffffff1673ffffffffffffffffffffffffffffffffffffffff1681526020019081526020016000208190555060007f000000000000000000000000000000000000000000000000000000000000000073ffffffffffffffffffffffffffffffffffffffff166370a08231600f60009054906101000a900473ffffffffffffffffffffffffffffffffffffffff166040518263ffffffff1660e01b81526004016126c5919061a674565b60206040518083038186803b1580156126dd57600080fd5b505afa1580156126f1573d6000803e3d6000fd5b505050506040513d601f19601f820116820180604052508101906127159190619f3e565b905060006127106005548361272a919061ae01565b612734919061add0565b905080831115612742578092505b600f60009054906101000a900473ffffffffffffffffffffffffffffffffffffffff1673ffffffffffffffffffffffffffffffffffffffff16637d458baa84336040518363ffffffff1660e01b815260040161279f92919061ab7e565b600060405180830381600087803b1580156127b957600080fd5b505af11580156127cd573d6000803e3d6000fd5b50505050505050565b600160149054906101000a900460ff1615612826576040517f08c379a000000000000000000000000000000000000000000000000000000000815260040161281d9061a8c1565b60405180910390fd5b600060075490506000601e600083815260200190815260200160002060009054906101000a900460ff1680156128b657506021600083815260200190815260200160002060003373ffffffffffffffffffffffffffffffffffffffff1673ffffffffffffffffffffffffffffffffffffffff16815260200190815260200160002060009054906101000a900460ff165b905080156128c9576128c782616e6a565b505b60011515600d60009054906101000a900473ffffffffffffffffffffffffffffffffffffffff1673ffffffffffffffffffffffffffffffffffffffff16638dcb4c93866040518263ffffffff1660e01b8152600401612928919061a674565b60206040518083038186803b15801561294057600080fd5b505afa158015612954573d6000803e3d6000fd5b505050506040513d601f19601f820116820180604052508101906129789190619d11565b1515146129ba576040517f08c379a00000000000000000000000000000000000000000000000000000000081526004016129b19061aa01565b60405180910390fd5b600083116129fd576040517f08c379a00000000000000000000000000000000000000000000000000000000081526004016129f49061aa61565b60405180910390fd5b60011515601560003373ffffffffffffffffffffffffffffffffffffffff1673ffffffffffffffffffffffffffffffffffffffff16815260200190815260200160002060009054906101000a900460ff16151514612b11576012339080600181540180825580915050600190039060005260206000200160009091909190916101000a81548173ffffffffffffffffffffffffffffffffffffffff021916908373ffffffffffffffffffffffffffffffffffffffff1602179055506001601560003373ffffffffffffffffffffffffffffffffffffffff1673ffffffffffffffffffffffffffffffffffffffff16815260200190815260200160002060006101000a81548160ff0219169083151502179055505b8373ffffffffffffffffffffffffffffffffffffffff166323b872dd33600c60009054906101000a900473ffffffffffffffffffffffffffffffffffffffff16866040518463ffffffff1660e01b8152600401612b709392919061a6b8565b602060405180830381600087803b158015612b8a57600080fd5b505af1158015612b9e573d6000803e3d6000fd5b505050506040513d601f19601f82011682018060405250810190612bc29190619d11565b612c01576040517f08c379a0000000000000000000000000000000000000000000000000000000008152600401612bf89061aa21565b60405180910390fd5b600c60009054906101000a900473ffffffffffffffffffffffffffffffffffffffff1673ffffffffffffffffffffffffffffffffffffffff166346dafa2f8585336040518463ffffffff1660e01b8152600401612c609392919061a718565b600060405180830381600087803b158015612c7a57600080fd5b505af1158015612c8e573d6000803e3d6000fd5b50505050603c42612c9f919061ad7a565b601760003373ffffffffffffffffffffffffffffffffffffffff1673ffffffffffffffffffffffffffffffffffffffff168152602001908152602001600020819055508373ffffffffffffffffffffffffffffffffffffffff163373ffffffffffffffffffffffffffffffffffffffff167f5f9b5a75581a29d72b32414a5df7f1ef124b7787b38616fb8fdcad76179127c285604051612d3f919061ab63565b60405180910390a38015612d5857612d56826172db565b505b50505050565b601c6020528060005260406000206000915054906101000a900460ff1681565b600160149054906101000a900460ff1615612dce576040517f08c379a0000000000000000000000000000000000000000000000000000000008152600401612dc59061a8c1565b60405180910390fd5b600060075490506000601e600083815260200190815260200160002060009054906101000a900460ff168015612e5e57506021600083815260200190815260200160002060003373ffffffffffffffffffffffffffffffffffffffff1673ffffffffffffffffffffffffffffffffffffffff16815260200190815260200160002060009054906101000a900460ff165b90508015612e7157612e6f82616e6a565b505b6000600c60009054906101000a900473ffffffffffffffffffffffffffffffffffffffff1673ffffffffffffffffffffffffffffffffffffffff1663aa9fd37433866040518363ffffffff1660e01b8152600401612ed092919061a68f565b60206040518083038186803b158015612ee857600080fd5b505afa158015612efc573d6000803e3d6000fd5b505050506040513d601f19601f82011682018060405250810190612f209190619f3e565b9050600c60009054906101000a900473ffffffffffffffffffffffffffffffffffffffff1673ffffffffffffffffffffffffffffffffffffffff1663f940e38585336040518363ffffffff1660e01b8152600401612f7f92919061a68f565b602060405180830381600087803b158015612f9957600080fd5b505af1158015612fad573d6000803e3d6000fd5b505050506040513d601f19601f82011682018060405250810190612fd19190619d11565b613010576040517f08c379a00000000000000000000000000000000000000000000000000000000081526004016130079061aa21565b60405180910390fd5b8373ffffffffffffffffffffffffffffffffffffffff163373ffffffffffffffffffffffffffffffffffffffff167f12dcb5d4117cb4675d56c72f030db8f0f4dd34f875fe484eea4cf0790b5deaa38360405161306d919061ab63565b60405180910390a350801561308757613085826172db565b505b505050565b600080600d60009054906101000a900473ffffffffffffffffffffffffffffffffffffffff1673ffffffffffffffffffffffffffffffffffffffff166351e596e06040518163ffffffff1660e01b815260040160006040518083038186803b1580156130f757600080fd5b505afa15801561310b573d6000803e3d6000fd5b505050506040513d6000823e3d601f19601f820116820180604052508101906131349190619cd0565b905060008060005b83518110156135c1576000600b60009054906101000a900473ffffffffffffffffffffffffffffffffffffffff1673ffffffffffffffffffffffffffffffffffffffff166389bbd6708684815181106131be577f4e487b7100000000000000000000000000000000000000000000000000000000600052603260045260246000fd5b60200260200101516040518263ffffffff1660e01b81526004016131e2919061a674565b60206040518083038186803b1580156131fa57600080fd5b505afa15801561320e573d6000803e3d6000fd5b505050506040513d601f19601f820116820180604052508101906132329190619f3e565b600c60009054906101000a900473ffffffffffffffffffffffffffffffffffffffff1673ffffffffffffffffffffffffffffffffffffffff166389bbd6708785815181106132a9577f4e487b7100000000000000000000000000000000000000000000000000000000600052603260045260246000fd5b60200260200101516040518263ffffffff1660e01b81526004016132cd919061a674565b60206040518083038186803b1580156132e557600080fd5b505afa1580156132f9573d6000803e3d6000fd5b505050506040513d601f19601f8201168201806040525081019061331d9190619f3e565b613327919061ad7a565b9050600a60009054906101000a900473ffffffffffffffffffffffffffffffffffffffff1673ffffffffffffffffffffffffffffffffffffffff1663ca2e5b658684815181106133a0577f4e487b7100000000000000000000000000000000000000000000000000000000600052603260045260246000fd5b6020026020010151602060008b815260200190815260200160002060008987815181106133f6577f4e487b7100000000000000000000000000000000000000000000000000000000600052603260045260246000fd5b602002602001015173ffffffffffffffffffffffffffffffffffffffff1673ffffffffffffffffffffffffffffffffffffffff168152602001908152602001600020546040518363ffffffff1660e01b815260040161345692919061a6ef565b60206040518083038186803b15801561346e57600080fd5b505afa158015613482573d6000803e3d6000fd5b505050506040513d601f19601f820116820180604052508101906134a69190619f3e565b846134b1919061ad7a565b9350600a60009054906101000a900473ffffffffffffffffffffffffffffffffffffffff1673ffffffffffffffffffffffffffffffffffffffff1663ca2e5b6586848151811061352a577f4e487b7100000000000000000000000000000000000000000000000000000000600052603260045260246000fd5b6020026020010151836040518363ffffffff1660e01b815260040161355092919061a6ef565b60206040518083038186803b15801561356857600080fd5b505afa15801561357c573d6000803e3d6000fd5b505050506040513d601f19601f820116820180604052508101906135a09190619f3e565b836135ab919061ad7a565b92505080806135b99061b16c565b91505061313c565b506000612710600354836135d5919061ae01565b6135df919061add0565b9050808311945050505050919050565b60176020528060005260406000206000915090505481565b600160149054906101000a900460ff1615613657576040517f08c379a000000000000000000000000000000000000000000000000000000000815260040161364e9061a8c1565b60405180910390fd5b6000600754905060011515601e600083815260200190815260200160002060009054906101000a900460ff161515146136c5576040517f08c379a00000000000000000000000000000000000000000000000000000000081526004016136bc9061aac1565b60405180910390fd5b6000601a600083815260200190815260200160002080546136e59061b109565b80601f01602080910402602001604051908101604052809291908181526020018280546137119061b109565b801561375e5780601f106137335761010080835404028352916020019161375e565b820191906000526020600020905b81548152906001019060200180831161374157829003601f168201915b5050505050905061376e82615faf565b801561379e575060001515601c600084815260200190815260200160002060009054906101000a900460ff161515145b156139fb576137e2816040518060400160405280600381526020017f44414f0000000000000000000000000000000000000000000000000000000000815250617649565b806138285750613827816040518060400160405280600581526020017f5554494c53000000000000000000000000000000000000000000000000000000815250617649565b5b8061386e575061386d816040518060400160405280600781526020017f5245534552564500000000000000000000000000000000000000000000000000815250617649565b5b806138b457506138b3816040518060400160405280600a81526020017f4745545f53504152544100000000000000000000000000000000000000000000815250617649565b5b806138fa57506138f9816040518060400160405280600681526020017f524f555445520000000000000000000000000000000000000000000000000000815250617649565b5b80613940575061393f816040518060400160405280600981526020017f4c4953545f424f4e440000000000000000000000000000000000000000000000815250617649565b5b806139865750613985816040518060400160405280600581526020017f4752414e54000000000000000000000000000000000000000000000000000000815250617649565b5b806139cc57506139cb816040518060400160405280601081526020017f4144445f435552415445445f504f4f4c00000000000000000000000000000000815250617649565b5b156139ef576139da8261308c565b156139ea576139e98282617a7b565b5b6139fa565b6139f98282617a7b565b5b5b5050565b60145481565b600160149054906101000a900460ff1615613a55576040517f08c379a0000000000000000000000000000000000000000000000000000000008152600401613a4c9061a8c1565b60405180910390fd5b6000600754905060011515601e600083815260200190815260200160002060009054906101000a900460ff16151514613ac3576040517f08c379a0000000000000000000000000000000000000000000000000000000008152600401613aba9061aac1565b60405180910390fd5b600115156021600083815260200190815260200160002060003373ffffffffffffffffffffffffffffffffffffffff1673ffffffffffffffffffffffffffffffffffffffff16815260200190815260200160002060009054906101000a900460ff16151514613b67576040517f08c379a0000000000000000000000000000000000000000000000000000000008152600401613b5e9061a9e1565b60405180910390fd5b6000601a60008381526020019081526020016000208054613b879061b109565b80601f0160208091040260200160405190810160405280929190818152602001828054613bb39061b109565b8015613c005780601f10613bd557610100808354040283529160200191613c00565b820191906000526020600020905b815481529060010190602001808311613be357829003601f168201915b505050505090506000613c1283616e6a565b905060006021600085815260200190815260200160002060003373ffffffffffffffffffffffffffffffffffffffff1673ffffffffffffffffffffffffffffffffffffffff16815260200190815260200160002060006101000a81548160ff0219169083151502179055508015613cd357823373ffffffffffffffffffffffffffffffffffffffff167fc47bced501ad257962522a3fba16532ae8ccbbe97f400da0bd120fc1b7443e1984604051613cca919061a87f565b60405180910390a35b505050565b600160009054906101000a900473ffffffffffffffffffffffffffffffffffffffff1673ffffffffffffffffffffffffffffffffffffffff163373ffffffffffffffffffffffffffffffffffffffff1614613d3257600080fd5b60007f000000000000000000000000000000000000000000000000000000000000000073ffffffffffffffffffffffffffffffffffffffff166370a08231306040518263ffffffff1660e01b8152600401613d8d919061a674565b60206040518083038186803b158015613da557600080fd5b505afa158015613db9573d6000803e3d6000fd5b505050506040513d601f19601f82011682018060405250810190613ddd9190619f3e565b90507f000000000000000000000000000000000000000000000000000000000000000073ffffffffffffffffffffffffffffffffffffffff1663a9059cbb83836040518363ffffffff1660e01b8152600401613e3a92919061a6ef565b602060405180830381600087803b158015613e5457600080fd5b505af1158015613e68573d6000803e3d6000fd5b505050506040513d601f19601f82011682018060405250810190613e8c9190619d11565b505050565b600160009054906101000a900473ffffffffffffffffffffffffffffffffffffffff1673ffffffffffffffffffffffffffffffffffffffff163373ffffffffffffffffffffffffffffffffffffffff1614613eeb57600080fd5b82600c60006101000a81548173ffffffffffffffffffffffffffffffffffffffff021916908373ffffffffffffffffffffffffffffffffffffffff16021790555081600b60006101000a81548173ffffffffffffffffffffffffffffffffffffffff021916908373ffffffffffffffffffffffffffffffffffffffff16021790555080601060006101000a81548173ffffffffffffffffffffffffffffffffffffffff021916908373ffffffffffffffffffffffffffffffffffffffff160217905550505050565b60055481565b6000600860009054906101000a900460ff161561407757600860019054906101000a900473ffffffffffffffffffffffffffffffffffffffff1673ffffffffffffffffffffffffffffffffffffffff16637b0e5c456040518163ffffffff1660e01b815260040160206040518083038186803b15801561403857600080fd5b505afa15801561404c573d6000803e3d6000fd5b505050506040513d601f19601f820116820180604052508101906140709190619eab565b905061409d565b600a60009054906101000a900473ffffffffffffffffffffffffffffffffffffffff1690505b90565b600160149054906101000a900460ff16156140f0576040517f08c379a00000000000000000000000000000000000000000000000000000000081526004016140e79061a8c1565b60405180910390fd5b60011515600f60009054906101000a900473ffffffffffffffffffffffffffffffffffffffff1673ffffffffffffffffffffffffffffffffffffffff1663194e22ce6040518163ffffffff1660e01b8152600401602060405180830381600087803b15801561415e57600080fd5b505af1158015614172573d6000803e3d6000fd5b505050506040513d601f19601f820116820180604052508101906141969190619d11565b151514156141d9576040517f08c379a00000000000000000000000000000000000000000000000000000000081526004016141d09061aaa1565b60405180910390fd5b6000600754905060011515601e600083815260200190815260200160002060009054906101000a900460ff16151514614247576040517f08c379a000000000000000000000000000000000000000000000000000000000815260040161423e9061aac1565b60405180910390fd5b600015156021600083815260200190815260200160002060003373ffffffffffffffffffffffffffffffffffffffff1673ffffffffffffffffffffffffffffffffffffffff16815260200190815260200160002060009054906101000a900460ff161515146142eb576040517f08c379a00000000000000000000000000000000000000000000000000000000081526004016142e29061a921565b60405180910390fd5b6000601a6000838152602001908152602001600020805461430b9061b109565b80601f01602080910402602001604051908101604052809291908181526020018280546143379061b109565b80156143845780601f1061435957610100808354040283529160200191614384565b820191906000526020600020905b81548152906001019060200180831161436757829003601f168201915b505050505090506000614396836172db565b905060016021600085815260200190815260200160002060003373ffffffffffffffffffffffffffffffffffffffff1673ffffffffffffffffffffffffffffffffffffffff16815260200190815260200160002060006101000a81548160ff021916908315150217905550801561445757823373ffffffffffffffffffffffffffffffffffffffff167ff3bb4a59f9a41b07650fa6eb0aaaf8f6e78fe9a712e0c0989ee060358403a89c8460405161444e919061a87f565b60405180910390a35b505050565b601e6020528060005260406000206000915054906101000a900460ff1681565b600160149054906101000a900460ff16156144cc576040517f08c379a00000000000000000000000000000000000000000000000000000000081526004016144c39061a8c1565b60405180910390fd5b60006007549050601e600082815260200190815260200160002060009054906101000a900460ff16614533576040517f08c379a000000000000000000000000000000000000000000000000000000000815260040161452a9061a941565b60405180910390fd5b6213c680601f600083815260200190815260200160002054614555919061ad7a565b4211614596576040517f08c379a000000000000000000000000000000000000000000000000000000000815260040161458d9061ab01565b60405180910390fd5b6000600d60009054906101000a900473ffffffffffffffffffffffffffffffffffffffff1673ffffffffffffffffffffffffffffffffffffffff166351e596e06040518163ffffffff1660e01b815260040160006040518083038186803b15801561460057600080fd5b505afa158015614614573d6000803e3d6000fd5b505050506040513d6000823e3d601f19601f8201168201806040525081019061463d9190619cd0565b905060005b81518110156146f457600060206000858152602001908152602001600020600084848151811061469b577f4e487b7100000000000000000000000000000000000000000000000000000000600052603260045260246000fd5b602002602001015173ffffffffffffffffffffffffffffffffffffffff1673ffffffffffffffffffffffffffffffffffffffff1681526020019081526020016000208190555080806146ec9061b16c565b915050614642565b506000601e600084815260200190815260200160002060006101000a81548160ff021916908315150217905550813373ffffffffffffffffffffffffffffffffffffffff167f6b4f340ccba70b829531b22cfbc4ad2defb3beac09f6149d584fe1031dedbf7c60405160405180910390a35050565b60035481565b600860019054906101000a900473ffffffffffffffffffffffffffffffffffffffff1681565b600160009054906101000a900473ffffffffffffffffffffffffffffffffffffffff1673ffffffffffffffffffffffffffffffffffffffff163373ffffffffffffffffffffffffffffffffffffffff16146147ef57600080fd5b60001515601e6000600754815260200190815260200160002060009054906101000a900460ff16151514614858576040517f08c379a000000000000000000000000000000000000000000000000000000000815260040161484f9061ab21565b60405180910390fd5b6000600d60009054906101000a900473ffffffffffffffffffffffffffffffffffffffff1673ffffffffffffffffffffffffffffffffffffffff1663bbe4f6db836040518263ffffffff1660e01b81526004016148b5919061a674565b60206040518083038186803b1580156148cd57600080fd5b505afa1580156148e1573d6000803e3d6000fd5b505050506040513d601f19601f820116820180604052508101906149059190619ae8565b9050601660008273ffffffffffffffffffffffffffffffffffffffff1673ffffffffffffffffffffffffffffffffffffffff16815260200190815260200160002060009054906101000a900460ff1615614994576040517f08c379a000000000000000000000000000000000000000000000000000000000815260040161498b9061a9a1565b60405180910390fd5b6001601660008373ffffffffffffffffffffffffffffffffffffffff1673ffffffffffffffffffffffffffffffffffffffff16815260200190815260200160002060006101000a81548160ff0219169083151502179055506013819080600181540180825580915050600190039060005260206000200160009091909190916101000a81548173ffffffffffffffffffffffffffffffffffffffff021916908373ffffffffffffffffffffffffffffffffffffffff1602179055508173ffffffffffffffffffffffffffffffffffffffff163373ffffffffffffffffffffffffffffffffffffffff167fa2c962e87fd75165c1496c9ea420ddb0231e124bf2625a77f828287c8050006860405160405180910390a35050565b6000600860009054906101000a900460ff1615614b6b57600860019054906101000a900473ffffffffffffffffffffffffffffffffffffffff1673ffffffffffffffffffffffffffffffffffffffff16639d2cc4366040518163ffffffff1660e01b815260040160206040518083038186803b158015614b2c57600080fd5b505afa158015614b40573d6000803e3d6000fd5b505050506040513d601f19601f82011682018060405250810190614b649190619e07565b9050614b91565b600f60009054906101000a900473ffffffffffffffffffffffffffffffffffffffff1690505b90565b60156020528060005260406000206000915054906101000a900460ff1681565b601b6020528060005260406000206000915090505481565b60008211614c0f576040517f08c379a0000000000000000000000000000000000000000000000000000000008152600401614c069061aa41565b60405180910390fd5b6000614c196176f4565b9050614c2361794d565b5082601860008381526020019081526020016000208190555081601a60008381526020019081526020016000209080519060200190614c639291906196de565b50803373ffffffffffffffffffffffffffffffffffffffff167f8d500fcad86fc64a281b94ef64d6d66acbfc6862aa4ff2ee5fbbfb40736e803e84604051614cab919061a87f565b60405180910390a3505050565b600160149054906101000a900460ff1681565b6000600160149054906101000a900460ff1615614d1d576040517f08c379a0000000000000000000000000000000000000000000000000000000008152600401614d149061a8c1565b60405180910390fd5b600060075490506000601e600083815260200190815260200160002060009054906101000a900460ff168015614dad57506021600083815260200190815260200160002060003373ffffffffffffffffffffffffffffffffffffffff1673ffffffffffffffffffffffffffffffffffffffff16815260200190815260200160002060009054906101000a900460ff165b90508015614dc057614dbe82616e6a565b505b60008411614e03576040517f08c379a0000000000000000000000000000000000000000000000000000000008152600401614dfa9061aa61565b60405180910390fd5b601660008673ffffffffffffffffffffffffffffffffffffffff1673ffffffffffffffffffffffffffffffffffffffff16815260200190815260200160002060009054906101000a900460ff16614e8f576040517f08c379a0000000000000000000000000000000000000000000000000000000008152600401614e869061a8a1565b60405180910390fd5b6000600d60009054906101000a900473ffffffffffffffffffffffffffffffffffffffff1673ffffffffffffffffffffffffffffffffffffffff1663bbe4f6db876040518263ffffffff1660e01b8152600401614eec919061a674565b60206040518083038186803b158015614f0457600080fd5b505afa158015614f18573d6000803e3d6000fd5b505050506040513d601f19601f82011682018060405250810190614f3c9190619ae8565b905060011515601560003373ffffffffffffffffffffffffffffffffffffffff1673ffffffffffffffffffffffffffffffffffffffff16815260200190815260200160002060009054906101000a900460ff16151514615052576012339080600181540180825580915050600190039060005260206000200160009091909190916101000a81548173ffffffffffffffffffffffffffffffffffffffff021916908373ffffffffffffffffffffffffffffffffffffffff1602179055506001601560003373ffffffffffffffffffffffffffffffffffffffff1673ffffffffffffffffffffffffffffffffffffffff16815260200190815260200160002060006101000a81548160ff0219169083151502179055505b600061505e8787617b21565b9050603c4261506d919061ad7a565b601760003373ffffffffffffffffffffffffffffffffffffffff1673ffffffffffffffffffffffffffffffffffffffff16815260200190815260200160002081905550600b60009054906101000a900473ffffffffffffffffffffffffffffffffffffffff1673ffffffffffffffffffffffffffffffffffffffff1663bf58d0ef8333846040518463ffffffff1660e01b815260040161510f9392919061a6b8565b600060405180830381600087803b15801561512957600080fd5b505af115801561513d573d6000803e3d6000fd5b505050503373ffffffffffffffffffffffffffffffffffffffff167fe4dd259ab128527fe8b5fdae0b44bda8db95a4de10b999d63dce142b1eb88d54878360405161518992919061abd7565b60405180910390a260019450505080156151a8576151a6826172db565b505b505092915050565b600073ffffffffffffffffffffffffffffffffffffffff168273ffffffffffffffffffffffffffffffffffffffff161415615220576040517f08c379a00000000000000000000000000000000000000000000000000000000081526004016152179061aa81565b60405180910390fd5b60007f000000000000000000000000000000000000000000000000000000000000000073ffffffffffffffffffffffffffffffffffffffff166370a08231600f60009054906101000a900473ffffffffffffffffffffffffffffffffffffffff166040518263ffffffff1660e01b815260040161529d919061a674565b60206040518083038186803b1580156152b557600080fd5b505afa1580156152c9573d6000803e3d6000fd5b505050506040513d601f19601f820116820180604052508101906152ed9190619f3e565b9050600061271060055483615302919061ae01565b61530c919061add0565b905060008311801561531d57508083105b61535c576040517f08c379a00000000000000000000000000000000000000000000000000000000081526004016153539061a901565b60405180910390fd5b60006153666176f4565b905061537061794d565b5060006040518060400160405280600581526020017f4752414e54000000000000000000000000000000000000000000000000000000815250905080601a600084815260200190815260200160002090805190602001906153d29291906196de565b50856019600084815260200190815260200160002060006101000a81548173ffffffffffffffffffffffffffffffffffffffff021916908373ffffffffffffffffffffffffffffffffffffffff160217905550846018600084815260200190815260200160002081905550813373ffffffffffffffffffffffffffffffffffffffff167f8d500fcad86fc64a281b94ef64d6d66acbfc6862aa4ff2ee5fbbfb40736e803e83604051615484919061a87f565b60405180910390a3505050505050565b600160149054906101000a900460ff16156154e4576040517f08c379a00000000000000000000000000000000000000000000000000000000081526004016154db9061a8c1565b60405180910390fd5b600160159054906101000a900460ff16615533576040517f08c379a000000000000000000000000000000000000000000000000000000000815260040161552a9061a8e1565b60405180910390fd5b60011515600f60009054906101000a900473ffffffffffffffffffffffffffffffffffffffff1673ffffffffffffffffffffffffffffffffffffffff1663194e22ce6040518163ffffffff1660e01b8152600401602060405180830381600087803b1580156155a157600080fd5b505af11580156155b5573d6000803e3d6000fd5b505050506040513d601f19601f820116820180604052508101906155d99190619d11565b1515141561561c576040517f08c379a00000000000000000000000000000000000000000000000000000000081526004016156139061aaa1565b60405180910390fd5b60006007549050600254601b60008381526020019081526020016000205442615645919061ae5b565b11615685576040517f08c379a000000000000000000000000000000000000000000000000000000000815260040161567c9061a981565b60405180910390fd5b60011515601c600083815260200190815260200160002060009054906101000a900460ff161515146156ec576040517f08c379a00000000000000000000000000000000000000000000000000000000081526004016156e39061a9c1565b60405180910390fd5b60011515601e600083815260200190815260200160002060009054906101000a900460ff1615151461571d57600080fd5b60001515601d600083815260200190815260200160002060009054906101000a900460ff1615151461574e57600080fd5b61575781615faf565b61578c576000601c600083815260200190815260200160002060006101000a81548160ff021916908315150217905550615cc1565b6000601a600083815260200190815260200160002080546157ac9061b109565b80601f01602080910402602001604051908101604052809291908181526020018280546157d89061b109565b80156158255780601f106157fa57610100808354040283529160200191615825565b820191906000526020600020905b81548152906001019060200180831161580857829003601f168201915b5050505050905061586b816040518060400160405280600381526020017f44414f0000000000000000000000000000000000000000000000000000000000815250617649565b1561587e57615879826184a0565b615cbf565b6158bd816040518060400160405280600681526020017f524f555445520000000000000000000000000000000000000000000000000000815250617649565b156158d0576158cb826185cc565b615cbe565b61590f816040518060400160405280600581526020017f5554494c53000000000000000000000000000000000000000000000000000000815250617649565b156159225761591d82618652565b615cbd565b615961816040518060400160405280600781526020017f5245534552564500000000000000000000000000000000000000000000000000815250617649565b156159745761596f826186d8565b615cbc565b6159b3816040518060400160405280600e81526020017f464c49505f454d495353494f4e53000000000000000000000000000000000000815250617649565b156159c6576159c18261875e565b615cbb565b615a05816040518060400160405280600881526020017f434f4f4c5f4f4646000000000000000000000000000000000000000000000000815250617649565b15615a1857615a13826187ea565b615cba565b615a57816040518060400160405280600c81526020017f455241535f544f5f4541524e0000000000000000000000000000000000000000815250617649565b15615a6a57615a6582618816565b615cb9565b615aa9816040518060400160405280600581526020017f4752414e54000000000000000000000000000000000000000000000000000000815250617649565b15615abc57615ab782618842565b615cb8565b615afb816040518060400160405280600a81526020017f4745545f53504152544100000000000000000000000000000000000000000000815250617649565b15615b0e57615b098261892f565b615cb7565b615b4d816040518060400160405280600981526020017f4c4953545f424f4e440000000000000000000000000000000000000000000000815250617649565b15615b6057615b5b826189d9565b615cb6565b615b9f816040518060400160405280600b81526020017f44454c4953545f424f4e44000000000000000000000000000000000000000000815250617649565b15615bb257615bad82618b85565b615cb5565b615bf1816040518060400160405280601081526020017f4144445f435552415445445f504f4f4c00000000000000000000000000000000815250617649565b15615c0457615bff82618ef1565b615cb4565b615c43816040518060400160405280601381526020017f52454d4f56455f435552415445445f504f4f4c00000000000000000000000000815250617649565b15615c5657615c5182618fc3565b615cb3565b615c95816040518060400160405280600781526020017f5245414c49534500000000000000000000000000000000000000000000000000815250617649565b15615ca857615ca382619362565b615cb2565b615cb182619407565b5b5b5b5b5b5b5b5b5b5b5b5b5b5b505b50565b60025481565b60196020528060005260406000206000915054906101000a900473ffffffffffffffffffffffffffffffffffffffff1681565b600160009054906101000a900473ffffffffffffffffffffffffffffffffffffffff1673ffffffffffffffffffffffffffffffffffffffff163373ffffffffffffffffffffffffffffffffffffffff1614615d5757600080fd5b8060148190555050565b60006021600084815260200190815260200160002060008373ffffffffffffffffffffffffffffffffffffffff1673ffffffffffffffffffffffffffffffffffffffff16815260200190815260200160002060009054906101000a900460ff16905092915050565b601f6020528060005260406000206000915090505481565b6000600860009054906101000a900460ff1615615e9f57600860019054906101000a900473ffffffffffffffffffffffffffffffffffffffff1673ffffffffffffffffffffffffffffffffffffffff1663b93ec54b6040518163ffffffff1660e01b815260040160206040518083038186803b158015615e6057600080fd5b505afa158015615e74573d6000803e3d6000fd5b505050506040513d601f19601f82011682018060405250810190615e989190619e59565b9050615ec5565b600e60009054906101000a900473ffffffffffffffffffffffffffffffffffffffff1690505b90565b6000600860009054906101000a900460ff1615615f8657600860019054906101000a900473ffffffffffffffffffffffffffffffffffffffff1673ffffffffffffffffffffffffffffffffffffffff1663b99b0a0c6040518163ffffffff1660e01b815260040160206040518083038186803b158015615f4757600080fd5b505afa158015615f5b573d6000803e3d6000fd5b505050506040513d601f19601f82011682018060405250810190615f7f9190619dde565b9050615fac565b600d60009054906101000a900473ffffffffffffffffffffffffffffffffffffffff1690505b90565b600080600d60009054906101000a900473ffffffffffffffffffffffffffffffffffffffff1673ffffffffffffffffffffffffffffffffffffffff166351e596e06040518163ffffffff1660e01b815260040160006040518083038186803b15801561601a57600080fd5b505afa15801561602e573d6000803e3d6000fd5b505050506040513d6000823e3d601f19601f820116820180604052508101906160579190619cd0565b905060008060005b83518110156164e4576000600b60009054906101000a900473ffffffffffffffffffffffffffffffffffffffff1673ffffffffffffffffffffffffffffffffffffffff166389bbd6708684815181106160e1577f4e487b7100000000000000000000000000000000000000000000000000000000600052603260045260246000fd5b60200260200101516040518263ffffffff1660e01b8152600401616105919061a674565b60206040518083038186803b15801561611d57600080fd5b505afa158015616131573d6000803e3d6000fd5b505050506040513d601f19601f820116820180604052508101906161559190619f3e565b600c60009054906101000a900473ffffffffffffffffffffffffffffffffffffffff1673ffffffffffffffffffffffffffffffffffffffff166389bbd6708785815181106161cc577f4e487b7100000000000000000000000000000000000000000000000000000000600052603260045260246000fd5b60200260200101516040518263ffffffff1660e01b81526004016161f0919061a674565b60206040518083038186803b15801561620857600080fd5b505afa15801561621c573d6000803e3d6000fd5b505050506040513d601f19601f820116820180604052508101906162409190619f3e565b61624a919061ad7a565b9050600a60009054906101000a900473ffffffffffffffffffffffffffffffffffffffff1673ffffffffffffffffffffffffffffffffffffffff1663ca2e5b658684815181106162c3577f4e487b7100000000000000000000000000000000000000000000000000000000600052603260045260246000fd5b6020026020010151602060008b81526020019081526020016000206000898781518110616319577f4e487b7100000000000000000000000000000000000000000000000000000000600052603260045260246000fd5b602002602001015173ffffffffffffffffffffffffffffffffffffffff1673ffffffffffffffffffffffffffffffffffffffff168152602001908152602001600020546040518363ffffffff1660e01b815260040161637992919061a6ef565b60206040518083038186803b15801561639157600080fd5b505afa1580156163a5573d6000803e3d6000fd5b505050506040513d601f19601f820116820180604052508101906163c99190619f3e565b846163d4919061ad7a565b9350600a60009054906101000a900473ffffffffffffffffffffffffffffffffffffffff1673ffffffffffffffffffffffffffffffffffffffff1663ca2e5b6586848151811061644d577f4e487b7100000000000000000000000000000000000000000000000000000000600052603260045260246000fd5b6020026020010151836040518363ffffffff1660e01b815260040161647392919061a6ef565b60206040518083038186803b15801561648b57600080fd5b505afa15801561649f573d6000803e3d6000fd5b505050506040513d601f19601f820116820180604052508101906164c39190619f3e565b836164ce919061ad7a565b92505080806164dc9061b16c565b91505061605f565b5060006002826164f4919061add0565b9050808311945050505050919050565b6000600160009054906101000a900473ffffffffffffffffffffffffffffffffffffffff1673ffffffffffffffffffffffffffffffffffffffff163373ffffffffffffffffffffffffffffffffffffffff161461656057600080fd5b60007f000000000000000000000000000000000000000000000000000000000000000073ffffffffffffffffffffffffffffffffffffffff166370a08231306040518263ffffffff1660e01b81526004016165bb919061a674565b60206040518083038186803b1580156165d357600080fd5b505afa1580156165e7573d6000803e3d6000fd5b505050506040513d601f19601f8201168201806040525081019061660b9190619f3e565b90507f000000000000000000000000000000000000000000000000000000000000000073ffffffffffffffffffffffffffffffffffffffff166342966c68826040518263ffffffff1660e01b8152600401616666919061ab63565b600060405180830381600087803b15801561668057600080fd5b505af1158015616694573d6000803e3d6000fd5b50505050600191505090565b601a60205280600052604060002060009150905080546166bf9061b109565b80601f01602080910402602001604051908101604052809291908181526020018280546166eb9061b109565b80156167385780601f1061670d57610100808354040283529160200191616738565b820191906000526020600020905b81548152906001019060200180831161671b57829003601f168201915b505050505081565b600160009054906101000a900473ffffffffffffffffffffffffffffffffffffffff1681565b60006167706176f4565b905061677a61794d565b5081601a600083815260200190815260200160002090805190602001906167a29291906196de565b50803373ffffffffffffffffffffffffffffffffffffffff167f8d500fcad86fc64a281b94ef64d6d66acbfc6862aa4ff2ee5fbbfb40736e803e846040516167ea919061a87f565b60405180910390a35050565b600160159054906101000a900460ff1681565b600160009054906101000a900473ffffffffffffffffffffffffffffffffffffffff1673ffffffffffffffffffffffffffffffffffffffff163373ffffffffffffffffffffffffffffffffffffffff161461686357600080fd5b6000600d60009054906101000a900473ffffffffffffffffffffffffffffffffffffffff1673ffffffffffffffffffffffffffffffffffffffff1663bbe4f6db836040518263ffffffff1660e01b81526004016168c0919061a674565b60206040518083038186803b1580156168d857600080fd5b505afa1580156168ec573d6000803e3d6000fd5b505050506040513d601f19601f820116820180604052508101906169109190619ae8565b9050601660008273ffffffffffffffffffffffffffffffffffffffff1673ffffffffffffffffffffffffffffffffffffffff16815260200190815260200160002060009054906101000a900460ff1661699e576040517f08c379a00000000000000000000000000000000000000000000000000000000081526004016169959061a8a1565b60405180910390fd5b6000601660008373ffffffffffffffffffffffffffffffffffffffff1673ffffffffffffffffffffffffffffffffffffffff16815260200190815260200160002060006101000a81548160ff02191690831515021790555060005b601380549050811015616c17578173ffffffffffffffffffffffffffffffffffffffff1660138281548110616a57577f4e487b7100000000000000000000000000000000000000000000000000000000600052603260045260246000fd5b9060005260206000200160009054906101000a900473ffffffffffffffffffffffffffffffffffffffff1673ffffffffffffffffffffffffffffffffffffffff161415616c045760136001601380549050616ab2919061ae5b565b81548110616ae9577f4e487b7100000000000000000000000000000000000000000000000000000000600052603260045260246000fd5b9060005260206000200160009054906101000a900473ffffffffffffffffffffffffffffffffffffffff1660138281548110616b4e577f4e487b7100000000000000000000000000000000000000000000000000000000600052603260045260246000fd5b9060005260206000200160006101000a81548173ffffffffffffffffffffffffffffffffffffffff021916908373ffffffffffffffffffffffffffffffffffffffff1602179055506013805480616bce577f4e487b7100000000000000000000000000000000000000000000000000000000600052603160045260246000fd5b6001900381819060005260206000200160006101000a81549073ffffffffffffffffffffffffffffffffffffffff021916905590555b8080616c0f9061b16c565b9150506169f9565b508173ffffffffffffffffffffffffffffffffffffffff163373ffffffffffffffffffffffffffffffffffffffff167ff487c2322baa448cfa506b983134d9dd9f27d0bbfe0b48119a3908d4f0dde89f60405160405180910390a35050565b7f000000000000000000000000000000000000000000000000000000000000000081565b600080600b60009054906101000a900473ffffffffffffffffffffffffffffffffffffffff1673ffffffffffffffffffffffffffffffffffffffff1663ba0ba54f85856040518363ffffffff1660e01b8152600401616cfa92919061a68f565b60206040518083038186803b158015616d1257600080fd5b505afa158015616d26573d6000803e3d6000fd5b505050506040513d601f19601f82011682018060405250810190616d4a9190619f3e565b90508091505092915050565b6000600860009054906101000a900460ff1615616e1457600860019054906101000a900473ffffffffffffffffffffffffffffffffffffffff1673ffffffffffffffffffffffffffffffffffffffff1663f301e7816040518163ffffffff1660e01b815260040160206040518083038186803b158015616dd557600080fd5b505afa158015616de9573d6000803e3d6000fd5b505050506040513d601f19601f82011682018060405250810190616e0d9190619db5565b9050616e3a565b601160009054906101000a900473ffffffffffffffffffffffffffffffffffffffff1690505b90565b60166020528060005260406000206000915054906101000a900460ff1681565b6000601380549050905090565b600080600d60009054906101000a900473ffffffffffffffffffffffffffffffffffffffff1673ffffffffffffffffffffffffffffffffffffffff166351e596e06040518163ffffffff1660e01b815260040160006040518083038186803b158015616ed557600080fd5b505afa158015616ee9573d6000803e3d6000fd5b505050506040513d6000823e3d601f19601f82011682018060405250810190616f129190619cd0565b905060005b81518110156171d1576000600b60009054906101000a900473ffffffffffffffffffffffffffffffffffffffff1673ffffffffffffffffffffffffffffffffffffffff1663aa9fd374848481518110616f99577f4e487b7100000000000000000000000000000000000000000000000000000000600052603260045260246000fd5b6020026020010151336040518363ffffffff1660e01b8152600401616fbf92919061a68f565b60206040518083038186803b158015616fd757600080fd5b505afa158015616feb573d6000803e3d6000fd5b505050506040513d601f19601f8201168201806040525081019061700f9190619f3e565b600c60009054906101000a900473ffffffffffffffffffffffffffffffffffffffff1673ffffffffffffffffffffffffffffffffffffffff1663aa9fd374858581518110617086577f4e487b7100000000000000000000000000000000000000000000000000000000600052603260045260246000fd5b6020026020010151336040518363ffffffff1660e01b81526004016170ac92919061a68f565b60206040518083038186803b1580156170c457600080fd5b505afa1580156170d8573d6000803e3d6000fd5b505050506040513d601f19601f820116820180604052508101906170fc9190619f3e565b617106919061ad7a565b905060008111156171bd5780602060008781526020019081526020016000206000858581518110617160577f4e487b7100000000000000000000000000000000000000000000000000000000600052603260045260246000fd5b602002602001015173ffffffffffffffffffffffffffffffffffffffff1673ffffffffffffffffffffffffffffffffffffffff16815260200190815260200160002060008282546171b1919061ae5b565b92505081905550600193505b5080806171c99061b16c565b915050616f17565b5050919050565b6000600160149054906101000a900460ff161561722a576040517f08c379a00000000000000000000000000000000000000000000000000000000081526004016172219061a8c1565b60405180910390fd5b60006172363384616c9a565b905060008111156172d157600b60009054906101000a900473ffffffffffffffffffffffffffffffffffffffff1673ffffffffffffffffffffffffffffffffffffffff16635bc262be84336040518363ffffffff1660e01b815260040161729e92919061a68f565b600060405180830381600087803b1580156172b857600080fd5b505af11580156172cc573d6000803e3d6000fd5b505050505b6001915050919050565b600080600d60009054906101000a900473ffffffffffffffffffffffffffffffffffffffff1673ffffffffffffffffffffffffffffffffffffffff166351e596e06040518163ffffffff1660e01b815260040160006040518083038186803b15801561734657600080fd5b505afa15801561735a573d6000803e3d6000fd5b505050506040513d6000823e3d601f19601f820116820180604052508101906173839190619cd0565b905060005b8151811015617642576000600b60009054906101000a900473ffffffffffffffffffffffffffffffffffffffff1673ffffffffffffffffffffffffffffffffffffffff1663aa9fd37484848151811061740a577f4e487b7100000000000000000000000000000000000000000000000000000000600052603260045260246000fd5b6020026020010151336040518363ffffffff1660e01b815260040161743092919061a68f565b60206040518083038186803b15801561744857600080fd5b505afa15801561745c573d6000803e3d6000fd5b505050506040513d601f19601f820116820180604052508101906174809190619f3e565b600c60009054906101000a900473ffffffffffffffffffffffffffffffffffffffff1673ffffffffffffffffffffffffffffffffffffffff1663aa9fd3748585815181106174f7577f4e487b7100000000000000000000000000000000000000000000000000000000600052603260045260246000fd5b6020026020010151336040518363ffffffff1660e01b815260040161751d92919061a68f565b60206040518083038186803b15801561753557600080fd5b505afa158015617549573d6000803e3d6000fd5b505050506040513d601f19601f8201168201806040525081019061756d9190619f3e565b617577919061ad7a565b9050600081111561762e57806020600087815260200190815260200160002060008585815181106175d1577f4e487b7100000000000000000000000000000000000000000000000000000000600052603260045260246000fd5b602002602001015173ffffffffffffffffffffffffffffffffffffffff1673ffffffffffffffffffffffffffffffffffffffff1681526020019081526020016000206000828254617622919061ad7a565b92505081905550600193505b50808061763a9061b16c565b915050617388565b5050919050565b600060028260405161765b919061a65d565b602060405180830381855afa158015617678573d6000803e3d6000fd5b5050506040513d601f19601f8201168201806040525081019061769b9190619d3a565b6002846040516176ab919061a65d565b602060405180830381855afa1580156176c8573d6000803e3d6000fd5b5050506040513d601f19601f820116820180604052508101906176eb9190619d3a565b14905092915050565b6000600160149054906101000a900460ff1615617746576040517f08c379a000000000000000000000000000000000000000000000000000000000815260040161773d9061a8c1565b60405180910390fd5b600160159054906101000a900460ff16617795576040517f08c379a000000000000000000000000000000000000000000000000000000000815260040161778c9061a8e1565b60405180910390fd5b60011515600f60009054906101000a900473ffffffffffffffffffffffffffffffffffffffff1673ffffffffffffffffffffffffffffffffffffffff1663194e22ce6040518163ffffffff1660e01b8152600401602060405180830381600087803b15801561780357600080fd5b505af1158015617817573d6000803e3d6000fd5b505050506040513d601f19601f8201168201806040525081019061783b9190619d11565b1515141561787e576040517f08c379a00000000000000000000000000000000000000000000000000000000081526004016178759061aaa1565b60405180910390fd5b6000600754905060001515601e600083815260200190815260200160002060009054906101000a900460ff161515146178ec576040517f08c379a00000000000000000000000000000000000000000000000000000000081526004016178e39061aac1565b60405180910390fd5b6001816178f9919061ad7a565b9050806007819055506001601e600083815260200190815260200160002060006101000a81548160ff02191690831515021790555042601f6000838152602001908152602001600020819055508091505090565b60007f000000000000000000000000000000000000000000000000000000000000000073ffffffffffffffffffffffffffffffffffffffff166323b872dd33600f60009054906101000a900473ffffffffffffffffffffffffffffffffffffffff16670de0b6b3a76400006006546179c5919061ae01565b6040518463ffffffff1660e01b81526004016179e39392919061a6b8565b602060405180830381600087803b1580156179fd57600080fd5b505af1158015617a11573d6000803e3d6000fd5b505050506040513d601f19601f82011682018060405250810190617a359190619d11565b617a74576040517f08c379a0000000000000000000000000000000000000000000000000000000008152600401617a6b9061aa21565b60405180910390fd5b6001905090565b6001601c600084815260200190815260200160002060006101000a81548160ff02191690831515021790555042601b600084815260200190815260200160002081905550813373ffffffffffffffffffffffffffffffffffffffff167f0f36aea5066f9f90a999260fe4ce8d7713f7f07f5ae61bf36d73cc51170a3a9e60025442617b06919061ad7a565b84604051617b1592919061aba7565b60405180910390a35050565b600060026000541415617b69576040517f08c379a0000000000000000000000000000000000000000000000000000000008152600401617b609061aae1565b60405180910390fd5b60026000819055506a02116545850052128000007f000000000000000000000000000000000000000000000000000000000000000073ffffffffffffffffffffffffffffffffffffffff1663dd62ed3e30600960009054906101000a900473ffffffffffffffffffffffffffffffffffffffff166040518363ffffffff1660e01b8152600401617bfa92919061a68f565b60206040518083038186803b158015617c1257600080fd5b505afa158015617c26573d6000803e3d6000fd5b505050506040513d601f19601f82011682018060405250810190617c4a9190619f3e565b1015617dbe577f000000000000000000000000000000000000000000000000000000000000000073ffffffffffffffffffffffffffffffffffffffff1663095ea7b3600960009054906101000a900473ffffffffffffffffffffffffffffffffffffffff167f000000000000000000000000000000000000000000000000000000000000000073ffffffffffffffffffffffffffffffffffffffff166318160ddd6040518163ffffffff1660e01b815260040160206040518083038186803b158015617d1557600080fd5b505afa158015617d29573d6000803e3d6000fd5b505050506040513d601f19601f82011682018060405250810190617d4d9190619f3e565b6040518363ffffffff1660e01b8152600401617d6a92919061a6ef565b602060405180830381600087803b158015617d8457600080fd5b505af1158015617d98573d6000803e3d6000fd5b505050506040513d601f19601f82011682018060405250810190617dbc9190619d11565b505b600073ffffffffffffffffffffffffffffffffffffffff168373ffffffffffffffffffffffffffffffffffffffff161415617fc457348214617e35576040517f08c379a0000000000000000000000000000000000000000000000000000000008152600401617e2c9061aa61565b60405180910390fd5b6000600a60009054906101000a900473ffffffffffffffffffffffffffffffffffffffff1673ffffffffffffffffffffffffffffffffffffffff1663b80e44b885856040518363ffffffff1660e01b8152600401617e9492919061a6ef565b60206040518083038186803b158015617eac57600080fd5b505afa158015617ec0573d6000803e3d6000fd5b505050506040513d601f19601f82011682018060405250810190617ee49190619f3e565b9050600960009054906101000a900473ffffffffffffffffffffffffffffffffffffffff1673ffffffffffffffffffffffffffffffffffffffff166393cac68584838688600b60009054906101000a900473ffffffffffffffffffffffffffffffffffffffff166040518663ffffffff1660e01b8152600401617f6a949392919061ac00565b6020604051808303818588803b158015617f8357600080fd5b505af1158015617f97573d6000803e3d6000fd5b50505050506040513d601f19601f82011682018060405250810190617fbc9190619f3e565b915050618492565b8273ffffffffffffffffffffffffffffffffffffffff166323b872dd3330856040518463ffffffff1660e01b81526004016180019392919061a6b8565b602060405180830381600087803b15801561801b57600080fd5b505af115801561802f573d6000803e3d6000fd5b505050506040513d601f19601f820116820180604052508101906180539190619d11565b618092576040517f08c379a00000000000000000000000000000000000000000000000000000000081526004016180899061aa21565b60405180910390fd5b60008373ffffffffffffffffffffffffffffffffffffffff166370a08231306040518263ffffffff1660e01b81526004016180cd919061a674565b60206040518083038186803b1580156180e557600080fd5b505afa1580156180f9573d6000803e3d6000fd5b505050506040513d601f19601f8201168201806040525081019061811d9190619f3e565b90506000600a60009054906101000a900473ffffffffffffffffffffffffffffffffffffffff1673ffffffffffffffffffffffffffffffffffffffff1663b80e44b886846040518363ffffffff1660e01b815260040161817e92919061a6ef565b60206040518083038186803b15801561819657600080fd5b505afa1580156181aa573d6000803e3d6000fd5b505050506040513d601f19601f820116820180604052508101906181ce9190619f3e565b9050818573ffffffffffffffffffffffffffffffffffffffff1663dd62ed3e30600960009054906101000a900473ffffffffffffffffffffffffffffffffffffffff166040518363ffffffff1660e01b815260040161822e92919061a68f565b60206040518083038186803b15801561824657600080fd5b505afa15801561825a573d6000803e3d6000fd5b505050506040513d601f19601f8201168201806040525081019061827e9190619f3e565b10156183b85760008573ffffffffffffffffffffffffffffffffffffffff166318160ddd6040518163ffffffff1660e01b815260040160206040518083038186803b1580156182cc57600080fd5b505afa1580156182e0573d6000803e3d6000fd5b505050506040513d601f19601f820116820180604052508101906183049190619f3e565b90508573ffffffffffffffffffffffffffffffffffffffff1663095ea7b3600960009054906101000a900473ffffffffffffffffffffffffffffffffffffffff16836040518363ffffffff1660e01b815260040161836392919061a6ef565b602060405180830381600087803b15801561837d57600080fd5b505af1158015618391573d6000803e3d6000fd5b505050506040513d601f19601f820116820180604052508101906183b59190619d11565b50505b600960009054906101000a900473ffffffffffffffffffffffffffffffffffffffff1673ffffffffffffffffffffffffffffffffffffffff166393cac685828488600b60009054906101000a900473ffffffffffffffffffffffffffffffffffffffff166040518563ffffffff1660e01b815260040161843b949392919061ac00565b602060405180830381600087803b15801561845557600080fd5b505af1158015618469573d6000803e3d6000fd5b505050506040513d601f19601f8201168201806040525081019061848d9190619f3e565b925050505b600160008190555092915050565b60006019600083815260200190815260200160002060009054906101000a900473ffffffffffffffffffffffffffffffffffffffff16905080600860016101000a81548173ffffffffffffffffffffffffffffffffffffffff021916908373ffffffffffffffffffffffffffffffffffffffff1602179055507f000000000000000000000000000000000000000000000000000000000000000073ffffffffffffffffffffffffffffffffffffffff16631d007f5f826040518263ffffffff1660e01b8152600401618572919061a674565b600060405180830381600087803b15801561858c57600080fd5b505af11580156185a0573d6000803e3d6000fd5b505050506001600860006101000a81548160ff0219169083151502179055506185c882619407565b5050565b60006019600083815260200190815260200160002060009054906101000a900473ffffffffffffffffffffffffffffffffffffffff16905080600960006101000a81548173ffffffffffffffffffffffffffffffffffffffff021916908373ffffffffffffffffffffffffffffffffffffffff16021790555061864e82619407565b5050565b60006019600083815260200190815260200160002060009054906101000a900473ffffffffffffffffffffffffffffffffffffffff16905080600a60006101000a81548173ffffffffffffffffffffffffffffffffffffffff021916908373ffffffffffffffffffffffffffffffffffffffff1602179055506186d482619407565b5050565b60006019600083815260200190815260200160002060009054906101000a900473ffffffffffffffffffffffffffffffffffffffff16905080600f60006101000a81548173ffffffffffffffffffffffffffffffffffffffff021916908373ffffffffffffffffffffffffffffffffffffffff16021790555061875a82619407565b5050565b7f000000000000000000000000000000000000000000000000000000000000000073ffffffffffffffffffffffffffffffffffffffff1663fe1fa8fa6040518163ffffffff1660e01b8152600401600060405180830381600087803b1580156187c657600080fd5b505af11580156187da573d6000803e3d6000fd5b505050506187e781619407565b50565b6000601860008381526020019081526020016000205490508060028190555061881282619407565b5050565b6000601860008381526020019081526020016000205490508060048190555061883e82619407565b5050565b60006018600083815260200190815260200160002054905060006019600084815260200190815260200160002060009054906101000a900473ffffffffffffffffffffffffffffffffffffffff169050600f60009054906101000a900473ffffffffffffffffffffffffffffffffffffffff1673ffffffffffffffffffffffffffffffffffffffff16637d458baa83836040518363ffffffff1660e01b81526004016188ef92919061ab7e565b600060405180830381600087803b15801561890957600080fd5b505af115801561891d573d6000803e3d6000fd5b5050505061892a83619407565b505050565b60006a021165458500521280000090507f000000000000000000000000000000000000000000000000000000000000000073ffffffffffffffffffffffffffffffffffffffff1663d01f6fba82306040518363ffffffff1660e01b815260040161899a92919061ab7e565b600060405180830381600087803b1580156189b457600080fd5b505af11580156189c8573d6000803e3d6000fd5b505050506189d582619407565b5050565b60006019600083815260200190815260200160002060009054906101000a900473ffffffffffffffffffffffffffffffffffffffff169050601660008273ffffffffffffffffffffffffffffffffffffffff1673ffffffffffffffffffffffffffffffffffffffff16815260200190815260200160002060009054906101000a900460ff16618b1e576001601660008373ffffffffffffffffffffffffffffffffffffffff1673ffffffffffffffffffffffffffffffffffffffff16815260200190815260200160002060006101000a81548160ff0219169083151502179055506013819080600181540180825580915050600190039060005260206000200160009091909190916101000a81548173ffffffffffffffffffffffffffffffffffffffff021916908373ffffffffffffffffffffffffffffffffffffffff1602179055505b618b2782619407565b8073ffffffffffffffffffffffffffffffffffffffff163373ffffffffffffffffffffffffffffffffffffffff167fa2c962e87fd75165c1496c9ea420ddb0231e124bf2625a77f828287c8050006860405160405180910390a35050565b60006019600083815260200190815260200160002060009054906101000a900473ffffffffffffffffffffffffffffffffffffffff169050601660008273ffffffffffffffffffffffffffffffffffffffff1673ffffffffffffffffffffffffffffffffffffffff16815260200190815260200160002060009054906101000a900460ff1615618e8a576000601660008373ffffffffffffffffffffffffffffffffffffffff1673ffffffffffffffffffffffffffffffffffffffff16815260200190815260200160002060006101000a81548160ff02191690831515021790555060005b601380549050811015618e88578173ffffffffffffffffffffffffffffffffffffffff1660138281548110618cc8577f4e487b7100000000000000000000000000000000000000000000000000000000600052603260045260246000fd5b9060005260206000200160009054906101000a900473ffffffffffffffffffffffffffffffffffffffff1673ffffffffffffffffffffffffffffffffffffffff161415618e755760136001601380549050618d23919061ae5b565b81548110618d5a577f4e487b7100000000000000000000000000000000000000000000000000000000600052603260045260246000fd5b9060005260206000200160009054906101000a900473ffffffffffffffffffffffffffffffffffffffff1660138281548110618dbf577f4e487b7100000000000000000000000000000000000000000000000000000000600052603260045260246000fd5b9060005260206000200160006101000a81548173ffffffffffffffffffffffffffffffffffffffff021916908373ffffffffffffffffffffffffffffffffffffffff1602179055506013805480618e3f577f4e487b7100000000000000000000000000000000000000000000000000000000600052603160045260246000fd5b6001900381819060005260206000200160006101000a81549073ffffffffffffffffffffffffffffffffffffffff021916905590555b8080618e809061b16c565b915050618c6a565b505b618e9382619407565b8073ffffffffffffffffffffffffffffffffffffffff163373ffffffffffffffffffffffffffffffffffffffff167ff487c2322baa448cfa506b983134d9dd9f27d0bbfe0b48119a3908d4f0dde89f60405160405180910390a35050565b60006019600083815260200190815260200160002060009054906101000a900473ffffffffffffffffffffffffffffffffffffffff169050600d60009054906101000a900473ffffffffffffffffffffffffffffffffffffffff1673ffffffffffffffffffffffffffffffffffffffff16632b2260a8826040518263ffffffff1660e01b8152600401618f84919061a674565b600060405180830381600087803b158015618f9e57600080fd5b505af1158015618fb2573d6000803e3d6000fd5b50505050618fbf82619407565b5050565b60006019600083815260200190815260200160002060009054906101000a900473ffffffffffffffffffffffffffffffffffffffff169050600d60009054906101000a900473ffffffffffffffffffffffffffffffffffffffff1673ffffffffffffffffffffffffffffffffffffffff16637ca51fbf826040518263ffffffff1660e01b8152600401619056919061a674565b600060405180830381600087803b15801561907057600080fd5b505af1158015619084573d6000803e3d6000fd5b50505050601660008273ffffffffffffffffffffffffffffffffffffffff1673ffffffffffffffffffffffffffffffffffffffff16815260200190815260200160002060009054906101000a900460ff1615619355576000601660008373ffffffffffffffffffffffffffffffffffffffff1673ffffffffffffffffffffffffffffffffffffffff16815260200190815260200160002060006101000a81548160ff02191690831515021790555060005b601380549050811015619353578173ffffffffffffffffffffffffffffffffffffffff1660138281548110619193577f4e487b7100000000000000000000000000000000000000000000000000000000600052603260045260246000fd5b9060005260206000200160009054906101000a900473ffffffffffffffffffffffffffffffffffffffff1673ffffffffffffffffffffffffffffffffffffffff16141561934057601360016013805490506191ee919061ae5b565b81548110619225577f4e487b7100000000000000000000000000000000000000000000000000000000600052603260045260246000fd5b9060005260206000200160009054906101000a900473ffffffffffffffffffffffffffffffffffffffff166013828154811061928a577f4e487b7100000000000000000000000000000000000000000000000000000000600052603260045260246000fd5b9060005260206000200160006101000a81548173ffffffffffffffffffffffffffffffffffffffff021916908373ffffffffffffffffffffffffffffffffffffffff160217905550601380548061930a577f4e487b7100000000000000000000000000000000000000000000000000000000600052603160045260246000fd5b6001900381819060005260206000200160006101000a81549073ffffffffffffffffffffffffffffffffffffffff021916905590555b808061934b9061b16c565b915050619135565b505b61935e82619407565b5050565b60006019600083815260200190815260200160002060009054906101000a900473ffffffffffffffffffffffffffffffffffffffff1690508073ffffffffffffffffffffffffffffffffffffffff1663224b2a5b6040518163ffffffff1660e01b8152600401600060405180830381600087803b1580156193e257600080fd5b505af11580156193f6573d6000803e3d6000fd5b5050505061940382619407565b5050565b6000601a600083815260200190815260200160002080546194279061b109565b80601f01602080910402602001604051908101604052809291908181526020018280546194539061b109565b80156194a05780601f10619475576101008083540402835291602001916194a0565b820191906000526020600020905b81548152906001019060200180831161948357829003601f168201915b505050505090506000600d60009054906101000a900473ffffffffffffffffffffffffffffffffffffffff1673ffffffffffffffffffffffffffffffffffffffff166351e596e06040518163ffffffff1660e01b815260040160006040518083038186803b15801561951157600080fd5b505afa158015619525573d6000803e3d6000fd5b505050506040513d6000823e3d601f19601f8201168201806040525081019061954e9190619cd0565b905060005b81518110156196055760006020600086815260200190815260200160002060008484815181106195ac577f4e487b7100000000000000000000000000000000000000000000000000000000600052603260045260246000fd5b602002602001015173ffffffffffffffffffffffffffffffffffffffff1673ffffffffffffffffffffffffffffffffffffffff1681526020019081526020016000208190555080806195fd9061b16c565b915050619553565b506001601d600085815260200190815260200160002060006101000a81548160ff0219169083151502179055506000601c600085815260200190815260200160002060006101000a81548160ff0219169083151502179055506000601e600085815260200190815260200160002060006101000a81548160ff021916908315150217905550823373ffffffffffffffffffffffffffffffffffffffff167ffdbe656509abcebb25a94a9630376c43df21fd5f51077a0c0e20965cf5a02327846040516196d1919061a87f565b60405180910390a3505050565b8280546196ea9061b109565b90600052602060002090601f01602090048101928261970c5760008555619753565b82601f1061972557805160ff1916838001178555619753565b82800160010185558215619753579182015b82811115619752578251825591602001919060010190619737565b5b50905061976091906197d3565b5090565b6040518061014001604052806000815260200160608152602001600081526020016000815260200160001515815260200160001515815260200160008152602001600073ffffffffffffffffffffffffffffffffffffffff168152602001600015158152602001600081525090565b5b808211156197ec5760008160009055506001016197d4565b5090565b60006198036197fe8461aca1565b61ac7c565b9050808382526020820190508285602086028201111561982257600080fd5b60005b8581101561985257816198388882619906565b845260208401935060208301925050600181019050619825565b5050509392505050565b600061986f61986a8461aca1565b61ac7c565b9050808382526020820190508285602086028201111561988e57600080fd5b60005b858110156198be57816198a4888261991b565b845260208401935060208301925050600181019050619891565b5050509392505050565b60006198db6198d68461accd565b61ac7c565b9050828152602081018484840111156198f357600080fd5b6198fe84828561b0c7565b509392505050565b6000813590506199158161b5df565b92915050565b60008151905061992a8161b5df565b92915050565b600082601f83011261994157600080fd5b81356199518482602086016197f0565b91505092915050565b600082601f83011261996b57600080fd5b815161997b84826020860161985c565b91505092915050565b6000815190506199938161b5f6565b92915050565b6000815190506199a88161b60d565b92915050565b6000815190506199bd8161b624565b92915050565b6000815190506199d28161b63b565b92915050565b6000815190506199e78161b652565b92915050565b6000815190506199fc8161b669565b92915050565b600081519050619a118161b680565b92915050565b600081519050619a268161b697565b92915050565b600081519050619a3b8161b6ae565b92915050565b600081519050619a508161b6c5565b92915050565b600081519050619a658161b6dc565b92915050565b600082601f830112619a7c57600080fd5b8135619a8c8482602086016198c8565b91505092915050565b600081359050619aa48161b6f3565b92915050565b600081519050619ab98161b6f3565b92915050565b600060208284031215619ad157600080fd5b6000619adf84828501619906565b91505092915050565b600060208284031215619afa57600080fd5b6000619b088482850161991b565b91505092915050565b60008060408385031215619b2457600080fd5b6000619b3285828601619906565b9250506020619b4385828601619906565b9150509250929050565b600080600060608486031215619b6257600080fd5b6000619b7086828701619906565b9350506020619b8186828701619906565b9250506040619b9286828701619906565b9150509250925092565b60008060008060808587031215619bb257600080fd5b6000619bc087828801619906565b9450506020619bd187828801619906565b9350506040619be287828801619906565b9250506060619bf387828801619906565b91505092959194509250565b60008060408385031215619c1257600080fd5b6000619c2085828601619906565b925050602083013567ffffffffffffffff811115619c3d57600080fd5b619c4985828601619a6b565b9150509250929050565b60008060408385031215619c6657600080fd5b6000619c7485828601619906565b9250506020619c8585828601619a95565b9150509250929050565b600060208284031215619ca157600080fd5b600082013567ffffffffffffffff811115619cbb57600080fd5b619cc784828501619930565b91505092915050565b600060208284031215619ce257600080fd5b600082015167ffffffffffffffff811115619cfc57600080fd5b619d088482850161995a565b91505092915050565b600060208284031215619d2357600080fd5b6000619d3184828501619984565b91505092915050565b600060208284031215619d4c57600080fd5b6000619d5a84828501619999565b91505092915050565b600060208284031215619d7557600080fd5b6000619d83848285016199ae565b91505092915050565b600060208284031215619d9e57600080fd5b6000619dac848285016199c3565b91505092915050565b600060208284031215619dc757600080fd5b6000619dd5848285016199d8565b91505092915050565b600060208284031215619df057600080fd5b6000619dfe848285016199ed565b91505092915050565b600060208284031215619e1957600080fd5b6000619e2784828501619a02565b91505092915050565b600060208284031215619e4257600080fd5b6000619e5084828501619a17565b91505092915050565b600060208284031215619e6b57600080fd5b6000619e7984828501619a2c565b91505092915050565b600060208284031215619e9457600080fd5b6000619ea284828501619a41565b91505092915050565b600060208284031215619ebd57600080fd5b6000619ecb84828501619a56565b91505092915050565b600060208284031215619ee657600080fd5b600082013567ffffffffffffffff811115619f0057600080fd5b619f0c84828501619a6b565b91505092915050565b600060208284031215619f2757600080fd5b6000619f3584828501619a95565b91505092915050565b600060208284031215619f5057600080fd5b6000619f5e84828501619aaa565b91505092915050565b60008060408385031215619f7a57600080fd5b6000619f8885828601619a95565b9250506020619f9985828601619906565b9150509250929050565b60008060408385031215619fb657600080fd5b6000619fc485828601619a95565b925050602083013567ffffffffffffffff811115619fe157600080fd5b619fed85828601619a6b565b9150509250929050565b6000806040838503121561a00a57600080fd5b600061a01885828601619aaa565b925050602061a02985828601619aaa565b9150509250929050565b600080600080600060a0868803121561a04b57600080fd5b600061a05988828901619a95565b955050602061a06a88828901619a95565b945050604061a07b88828901619a95565b935050606061a08c88828901619a95565b925050608061a09d88828901619a95565b9150509295509295909350565b600061a0b6838361a0c2565b60208301905092915050565b61a0cb8161ae8f565b82525050565b61a0da8161ae8f565b82525050565b600061a0eb8261ad0e565b61a0f5818561ad3c565b935061a1008361acfe565b8060005b8381101561a13157815161a118888261a0aa565b975061a1238361ad2f565b92505060018101905061a104565b5085935050505092915050565b61a1478161aea1565b82525050565b61a1568161aea1565b82525050565b600061a1678261ad19565b61a171818561ad4d565b935061a18181856020860161b0d6565b80840191505092915050565b61a1968161af83565b82525050565b61a1a58161afa7565b82525050565b61a1b48161afcb565b82525050565b61a1c38161afef565b82525050565b61a1d28161b013565b82525050565b61a1e18161b037565b82525050565b61a1f08161b05b565b82525050565b61a1ff8161b07f565b82525050565b61a20e8161b0a3565b82525050565b600061a21f8261ad24565b61a229818561ad58565b935061a23981856020860161b0d6565b61a2428161b271565b840191505092915050565b600061a2588261ad24565b61a262818561ad69565b935061a27281856020860161b0d6565b61a27b8161b271565b840191505092915050565b600061a29360078361ad69565b915061a29e8261b282565b602082019050919050565b600061a2b660078361ad69565b915061a2c18261b2ab565b602082019050919050565b600061a2d960088361ad69565b915061a2e48261b2d4565b602082019050919050565b600061a2fc60078361ad69565b915061a3078261b2fd565b602082019050919050565b600061a31f60058361ad69565b915061a32a8261b326565b602082019050919050565b600061a34260058361ad69565b915061a34d8261b34f565b602082019050919050565b600061a365600a8361ad69565b915061a3708261b378565b602082019050919050565b600061a38860088361ad69565b915061a3938261b3a1565b602082019050919050565b600061a3ab60068361ad69565b915061a3b68261b3ca565b602082019050919050565b600061a3ce600b8361ad69565b915061a3d98261b3f3565b602082019050919050565b600061a3f160068361ad69565b915061a3fc8261b41c565b602082019050919050565b600061a41460088361ad69565b915061a41f8261b445565b602082019050919050565b600061a43760098361ad69565b915061a4428261b46e565b602082019050919050565b600061a45a60068361ad69565b915061a4658261b497565b602082019050919050565b600061a47d60078361ad69565b915061a4888261b4c0565b602082019050919050565b600061a4a060088361ad69565b915061a4ab8261b4e9565b602082019050919050565b600061a4c360058361ad69565b915061a4ce8261b512565b602082019050919050565b600061a4e660058361ad69565b915061a4f18261b53b565b602082019050919050565b600061a509601f8361ad69565b915061a5148261b564565b602082019050919050565b600061a52c60058361ad69565b915061a5378261b58d565b602082019050919050565b600061a54f60048361ad69565b915061a55a8261b5b6565b602082019050919050565b60006101408301600083015161a57e600086018261a63f565b506020830151848203602086015261a596828261a214565b915050604083015161a5ab604086018261a63f565b50606083015161a5be606086018261a63f565b50608083015161a5d1608086018261a13e565b5060a083015161a5e460a086018261a13e565b5060c083015161a5f760c086018261a63f565b5060e083015161a60a60e086018261a0c2565b5061010083015161a61f61010086018261a13e565b5061012083015161a63461012086018261a63f565b508091505092915050565b61a6488161af79565b82525050565b61a6578161af79565b82525050565b600061a669828461a15c565b915081905092915050565b600060208201905061a689600083018461a0d1565b92915050565b600060408201905061a6a4600083018561a0d1565b61a6b1602083018461a0d1565b9392505050565b600060608201905061a6cd600083018661a0d1565b61a6da602083018561a0d1565b61a6e7604083018461a64e565b949350505050565b600060408201905061a704600083018561a0d1565b61a711602083018461a64e565b9392505050565b600060608201905061a72d600083018661a0d1565b61a73a602083018561a64e565b61a747604083018461a0d1565b949350505050565b6000602082019050818103600083015261a769818461a0e0565b905092915050565b600060208201905061a786600083018461a14d565b92915050565b600060208201905061a7a1600083018461a18d565b92915050565b600060208201905061a7bc600083018461a19c565b92915050565b600060208201905061a7d7600083018461a1ab565b92915050565b600060208201905061a7f2600083018461a1ba565b92915050565b600060208201905061a80d600083018461a1c9565b92915050565b600060208201905061a828600083018461a1d8565b92915050565b600060208201905061a843600083018461a1e7565b92915050565b600060208201905061a85e600083018461a1f6565b92915050565b600060208201905061a879600083018461a205565b92915050565b6000602082019050818103600083015261a899818461a24d565b905092915050565b6000602082019050818103600083015261a8ba8161a286565b9050919050565b6000602082019050818103600083015261a8da8161a2a9565b9050919050565b6000602082019050818103600083015261a8fa8161a2cc565b9050919050565b6000602082019050818103600083015261a91a8161a2ef565b9050919050565b6000602082019050818103600083015261a93a8161a312565b9050919050565b6000602082019050818103600083015261a95a8161a335565b9050919050565b6000602082019050818103600083015261a97a8161a358565b9050919050565b6000602082019050818103600083015261a99a8161a37b565b9050919050565b6000602082019050818103600083015261a9ba8161a39e565b9050919050565b6000602082019050818103600083015261a9da8161a3c1565b9050919050565b6000602082019050818103600083015261a9fa8161a3e4565b9050919050565b6000602082019050818103600083015261aa1a8161a407565b9050919050565b6000602082019050818103600083015261aa3a8161a42a565b9050919050565b6000602082019050818103600083015261aa5a8161a44d565b9050919050565b6000602082019050818103600083015261aa7a8161a470565b9050919050565b6000602082019050818103600083015261aa9a8161a493565b9050919050565b6000602082019050818103600083015261aaba8161a4b6565b9050919050565b6000602082019050818103600083015261aada8161a4d9565b9050919050565b6000602082019050818103600083015261aafa8161a4fc565b9050919050565b6000602082019050818103600083015261ab1a8161a51f565b9050919050565b6000602082019050818103600083015261ab3a8161a542565b9050919050565b6000602082019050818103600083015261ab5b818461a565565b905092915050565b600060208201905061ab78600083018461a64e565b92915050565b600060408201905061ab93600083018561a64e565b61aba0602083018461a0d1565b9392505050565b600060408201905061abbc600083018561a64e565b818103602083015261abce818461a24d565b90509392505050565b600060408201905061abec600083018561a64e565b61abf9602083018461a64e565b9392505050565b600060808201905061ac15600083018761a64e565b61ac22602083018661a64e565b61ac2f604083018561a0d1565b61ac3c606083018461a0d1565b95945050505050565b600060608201905061ac5a600083018661a64e565b61ac67602083018561a64e565b61ac74604083018461a64e565b949350505050565b600061ac8661ac97565b905061ac92828261b13b565b919050565b6000604051905090565b600067ffffffffffffffff82111561acbc5761acbb61b242565b5b602082029050602081019050919050565b600067ffffffffffffffff82111561ace85761ace761b242565b5b61acf18261b271565b9050602081019050919050565b6000819050602082019050919050565b600081519050919050565b600081519050919050565b600081519050919050565b6000602082019050919050565b600082825260208201905092915050565b600081905092915050565b600082825260208201905092915050565b600082825260208201905092915050565b600061ad858261af79565b915061ad908361af79565b9250827fffffffffffffffffffffffffffffffffffffffffffffffffffffffffffffffff0382111561adc55761adc461b1b5565b5b828201905092915050565b600061addb8261af79565b915061ade68361af79565b92508261adf65761adf561b1e4565b5b828204905092915050565b600061ae0c8261af79565b915061ae178361af79565b9250817fffffffffffffffffffffffffffffffffffffffffffffffffffffffffffffffff048311821515161561ae505761ae4f61b1b5565b5b828202905092915050565b600061ae668261af79565b915061ae718361af79565b92508282101561ae845761ae8361b1b5565b5b828203905092915050565b600061ae9a8261af59565b9050919050565b60008115159050919050565b6000819050919050565b600061aec28261ae8f565b9050919050565b600061aed48261ae8f565b9050919050565b600061aee68261ae8f565b9050919050565b600061aef88261ae8f565b9050919050565b600061af0a8261ae8f565b9050919050565b600061af1c8261ae8f565b9050919050565b600061af2e8261ae8f565b9050919050565b600061af408261ae8f565b9050919050565b600061af528261ae8f565b9050919050565b600073ffffffffffffffffffffffffffffffffffffffff82169050919050565b6000819050919050565b600061af8e8261af95565b9050919050565b600061afa08261af59565b9050919050565b600061afb28261afb9565b9050919050565b600061afc48261af59565b9050919050565b600061afd68261afdd565b9050919050565b600061afe88261af59565b9050919050565b600061affa8261b001565b9050919050565b600061b00c8261af59565b9050919050565b600061b01e8261b025565b9050919050565b600061b0308261af59565b9050919050565b600061b0428261b049565b9050919050565b600061b0548261af59565b9050919050565b600061b0668261b06d565b9050919050565b600061b0788261af59565b9050919050565b600061b08a8261b091565b9050919050565b600061b09c8261af59565b9050919050565b600061b0ae8261b0b5565b9050919050565b600061b0c08261af59565b9050919050565b82818337600083830152505050565b60005b8381101561b0f457808201518184015260208101905061b0d9565b8381111561b103576000848401525b50505050565b6000600282049050600182168061b12157607f821691505b6020821081141561b1355761b13461b213565b5b50919050565b61b1448261b271565b810181811067ffffffffffffffff8211171561b1635761b16261b242565b5b80604052505050565b600061b1778261af79565b91507fffffffffffffffffffffffffffffffffffffffffffffffffffffffffffffffff82141561b1aa5761b1a961b1b5565b5b600182019050919050565b7f4e487b7100000000000000000000000000000000000000000000000000000000600052601160045260246000fd5b7f4e487b7100000000000000000000000000000000000000000000000000000000600052601260045260246000fd5b7f4e487b7100000000000000000000000000000000000000000000000000000000600052602260045260246000fd5b7f4e487b7100000000000000000000000000000000000000000000000000000000600052604160045260246000fd5b6000601f19601f8301169050919050565b7f216c697374656400000000000000000000000000000000000000000000000000600082015250565b7f5245544952454400000000000000000000000000000000000000000000000000600082015250565b7f494e414354495645000000000000000000000000000000000000000000000000600082015250565b7f21414d4f554e5400000000000000000000000000000000000000000000000000600082015250565b7f564f544544000000000000000000000000000000000000000000000000000000600082015250565b7f214f50454e000000000000000000000000000000000000000000000000000000600082015250565b7f21656d697373696f6e7300000000000000000000000000000000000000000000600082015250565b7f21636f6f6c6f6666000000000000000000000000000000000000000000000000600082015250565b7f6c69737465640000000000000000000000000000000000000000000000000000600082015250565b7f2166696e616c6973696e67000000000000000000000000000000000000000000600082015250565b7f21564f5445440000000000000000000000000000000000000000000000000000600082015250565b7f2163757261746564000000000000000000000000000000000000000000000000600082015250565b7f217472616e736665720000000000000000000000000000000000000000000000600082015250565b7f21706172616d0000000000000000000000000000000000000000000000000000600082015250565b7f21616d6f756e7400000000000000000000000000000000000000000000000000600082015250565b7f2161646472657373000000000000000000000000000000000000000000000000600082015250565b7f2153414645000000000000000000000000000000000000000000000000000000600082015250565b7f216f70656e000000000000000000000000000000000000000000000000000000600082015250565b7f5265656e7472616e637947756172643a207265656e7472616e742063616c6c00600082015250565b7f2164617973000000000000000000000000000000000000000000000000000000600082015250565b7f4f50454e00000000000000000000000000000000000000000000000000000000600082015250565b61b5e88161ae8f565b811461b5f357600080fd5b50565b61b5ff8161aea1565b811461b60a57600080fd5b50565b61b6168161aead565b811461b62157600080fd5b50565b61b62d8161aeb7565b811461b63857600080fd5b50565b61b6448161aec9565b811461b64f57600080fd5b50565b61b65b8161aedb565b811461b66657600080fd5b50565b61b6728161aeed565b811461b67d57600080fd5b50565b61b6898161aeff565b811461b69457600080fd5b50565b61b6a08161af11565b811461b6ab57600080fd5b50565b61b6b78161af23565b811461b6c257600080fd5b50565b61b6ce8161af35565b811461b6d957600080fd5b50565b61b6e58161af47565b811461b6f057600080fd5b50565b61b6fc8161af79565b811461b70757600080fd5b5056fea2646970667358221220920b6ad4078f75f4f870d5192748d07955b3de0bceb3e4d8227cf73a95fd03be64736f6c63430008030033",
  "linkReferences": {},
  "deployedLinkReferences": {}
}