{
  "_format": "hh-sol-artifact-1",
  "contractName": "Dao",
  "sourceName": "contracts/Dao.sol",
  "abi": [
    {
      "inputs": [
        {
          "internalType": "address",
          "name": "_base",
          "type": "address"
        }
      ],
      "stateMutability": "nonpayable",
      "type": "constructor"
    },
    {
      "anonymous": false,
      "inputs": [
        {
          "indexed": true,
          "internalType": "address",
          "name": "member",
          "type": "address"
        },
        {
          "indexed": true,
          "internalType": "uint256",
          "name": "oldProposalID",
          "type": "uint256"
        },
        {
          "indexed": false,
          "internalType": "uint256",
          "name": "oldVotes",
          "type": "uint256"
        },
        {
          "indexed": false,
          "internalType": "uint256",
          "name": "newVotes",
          "type": "uint256"
        },
        {
          "indexed": false,
          "internalType": "uint256",
          "name": "totalWeight",
          "type": "uint256"
        }
      ],
      "name": "CancelProposal",
      "type": "event"
    },
    {
      "anonymous": false,
      "inputs": [
        {
          "indexed": true,
          "internalType": "address",
          "name": "member",
          "type": "address"
        },
        {
          "indexed": true,
          "internalType": "uint256",
          "name": "proposalID",
          "type": "uint256"
        },
        {
          "indexed": false,
          "internalType": "uint256",
          "name": "votesCast",
          "type": "uint256"
        },
        {
          "indexed": false,
          "internalType": "uint256",
          "name": "totalWeight",
          "type": "uint256"
        },
        {
          "indexed": false,
          "internalType": "string",
          "name": "proposalType",
          "type": "string"
        }
      ],
      "name": "FinalisedProposal",
      "type": "event"
    },
    {
      "anonymous": false,
      "inputs": [
        {
          "indexed": true,
          "internalType": "address",
          "name": "member",
          "type": "address"
        },
        {
          "indexed": true,
          "internalType": "address",
          "name": "pool",
          "type": "address"
        },
        {
          "indexed": false,
          "internalType": "uint256",
          "name": "amount",
          "type": "uint256"
        }
      ],
      "name": "MemberDeposits",
      "type": "event"
    },
    {
      "anonymous": false,
      "inputs": [
        {
          "indexed": true,
          "internalType": "address",
          "name": "member",
          "type": "address"
        },
        {
          "indexed": true,
          "internalType": "address",
          "name": "pool",
          "type": "address"
        },
        {
          "indexed": false,
          "internalType": "uint256",
          "name": "balance",
          "type": "uint256"
        }
      ],
      "name": "MemberWithdraws",
      "type": "event"
    },
    {
      "anonymous": false,
      "inputs": [
        {
          "indexed": true,
          "internalType": "address",
          "name": "member",
          "type": "address"
        },
        {
          "indexed": true,
          "internalType": "uint256",
          "name": "proposalID",
          "type": "uint256"
        },
        {
          "indexed": false,
          "internalType": "string",
          "name": "proposalType",
          "type": "string"
        }
      ],
      "name": "NewProposal",
      "type": "event"
    },
    {
      "anonymous": false,
      "inputs": [
        {
          "indexed": true,
          "internalType": "address",
          "name": "member",
          "type": "address"
        },
        {
          "indexed": true,
          "internalType": "uint256",
          "name": "proposalID",
          "type": "uint256"
        },
        {
          "indexed": false,
          "internalType": "uint256",
          "name": "voteWeight",
          "type": "uint256"
        },
        {
          "indexed": false,
          "internalType": "uint256",
          "name": "totalVotes",
          "type": "uint256"
        },
        {
          "indexed": false,
          "internalType": "string",
          "name": "proposalType",
          "type": "string"
        }
      ],
      "name": "NewVote",
      "type": "event"
    },
    {
      "anonymous": false,
      "inputs": [
        {
          "indexed": true,
          "internalType": "address",
          "name": "member",
          "type": "address"
        },
        {
          "indexed": true,
          "internalType": "uint256",
          "name": "proposalID",
          "type": "uint256"
        },
        {
          "indexed": false,
          "internalType": "uint256",
          "name": "timeFinalised",
          "type": "uint256"
        },
        {
          "indexed": false,
          "internalType": "string",
          "name": "proposalType",
          "type": "string"
        }
      ],
      "name": "ProposalFinalising",
      "type": "event"
    },
    {
      "anonymous": false,
      "inputs": [
        {
          "indexed": true,
          "internalType": "address",
          "name": "member",
          "type": "address"
        },
        {
          "indexed": true,
          "internalType": "uint256",
          "name": "proposalID",
          "type": "uint256"
        },
        {
          "indexed": false,
          "internalType": "uint256",
          "name": "voteWeight",
          "type": "uint256"
        },
        {
          "indexed": false,
          "internalType": "uint256",
          "name": "totalVotes",
          "type": "uint256"
        },
        {
          "indexed": false,
          "internalType": "string",
          "name": "proposalType",
          "type": "string"
        }
      ],
      "name": "RemovedVote",
      "type": "event"
    },
    {
      "inputs": [],
      "name": "BASE",
      "outputs": [
        {
          "internalType": "address",
          "name": "",
          "type": "address"
        }
      ],
      "stateMutability": "view",
      "type": "function"
    },
    {
      "inputs": [],
      "name": "BOND",
      "outputs": [
        {
          "internalType": "contract iBOND",
          "name": "",
          "type": "address"
        }
      ],
      "stateMutability": "view",
      "type": "function"
    },
    {
      "inputs": [],
      "name": "DAO",
      "outputs": [
        {
          "internalType": "address",
          "name": "",
          "type": "address"
        }
      ],
      "stateMutability": "view",
      "type": "function"
    },
    {
      "inputs": [],
      "name": "DAOVAULT",
      "outputs": [
        {
          "internalType": "contract iDAOVAULT",
          "name": "",
          "type": "address"
        }
      ],
      "stateMutability": "view",
      "type": "function"
    },
    {
      "inputs": [],
      "name": "DEPLOYER",
      "outputs": [
        {
          "internalType": "address",
          "name": "",
          "type": "address"
        }
      ],
      "stateMutability": "view",
      "type": "function"
    },
    {
      "inputs": [],
      "name": "POOLFACTORY",
      "outputs": [
        {
          "internalType": "contract iPOOLFACTORY",
          "name": "",
          "type": "address"
        }
      ],
      "stateMutability": "view",
      "type": "function"
    },
    {
      "inputs": [],
      "name": "RESERVE",
      "outputs": [
        {
          "internalType": "contract iRESERVE",
          "name": "",
          "type": "address"
        }
      ],
      "stateMutability": "view",
      "type": "function"
    },
    {
      "inputs": [],
      "name": "ROUTER",
      "outputs": [
        {
          "internalType": "contract iROUTER",
          "name": "",
          "type": "address"
        }
      ],
      "stateMutability": "view",
      "type": "function"
    },
    {
      "inputs": [],
      "name": "SYNTHFACTORY",
      "outputs": [
        {
          "internalType": "contract iSYNTHFACTORY",
          "name": "",
          "type": "address"
        }
      ],
      "stateMutability": "view",
      "type": "function"
    },
    {
      "inputs": [],
      "name": "UTILS",
      "outputs": [
        {
          "internalType": "contract iUTILS",
          "name": "",
          "type": "address"
        }
      ],
      "stateMutability": "view",
      "type": "function"
    },
    {
      "inputs": [],
      "name": "_BOND",
      "outputs": [
        {
          "internalType": "contract iBOND",
          "name": "",
          "type": "address"
        }
      ],
      "stateMutability": "view",
      "type": "function"
    },
    {
      "inputs": [],
      "name": "_DAOVAULT",
      "outputs": [
        {
          "internalType": "contract iDAOVAULT",
          "name": "",
          "type": "address"
        }
      ],
      "stateMutability": "view",
      "type": "function"
    },
    {
      "inputs": [],
      "name": "_POOLFACTORY",
      "outputs": [
        {
          "internalType": "contract iPOOLFACTORY",
          "name": "",
          "type": "address"
        }
      ],
      "stateMutability": "view",
      "type": "function"
    },
    {
      "inputs": [],
      "name": "_RESERVE",
      "outputs": [
        {
          "internalType": "contract iRESERVE",
          "name": "",
          "type": "address"
        }
      ],
      "stateMutability": "view",
      "type": "function"
    },
    {
      "inputs": [],
      "name": "_ROUTER",
      "outputs": [
        {
          "internalType": "contract iROUTER",
          "name": "",
          "type": "address"
        }
      ],
      "stateMutability": "view",
      "type": "function"
    },
    {
      "inputs": [],
      "name": "_SYNTHFACTORY",
      "outputs": [
        {
          "internalType": "contract iSYNTHFACTORY",
          "name": "",
          "type": "address"
        }
      ],
      "stateMutability": "view",
      "type": "function"
    },
    {
      "inputs": [],
      "name": "_UTILS",
      "outputs": [
        {
          "internalType": "contract iUTILS",
          "name": "",
          "type": "address"
        }
      ],
      "stateMutability": "view",
      "type": "function"
    },
    {
      "inputs": [
        {
          "internalType": "uint256",
          "name": "",
          "type": "uint256"
        }
      ],
      "name": "arrayMembers",
      "outputs": [
        {
          "internalType": "address",
          "name": "",
          "type": "address"
        }
      ],
      "stateMutability": "view",
      "type": "function"
    },
    {
      "inputs": [
        {
          "internalType": "address",
          "name": "member",
          "type": "address"
        }
      ],
      "name": "calcCurrentReward",
      "outputs": [
        {
          "internalType": "uint256",
          "name": "",
          "type": "uint256"
        }
      ],
      "stateMutability": "nonpayable",
      "type": "function"
    },
    {
      "inputs": [
        {
          "internalType": "address",
          "name": "member",
          "type": "address"
        }
      ],
      "name": "calcReward",
      "outputs": [
        {
          "internalType": "uint256",
          "name": "",
          "type": "uint256"
        }
      ],
      "stateMutability": "nonpayable",
      "type": "function"
    },
    {
      "inputs": [
        {
          "internalType": "uint256",
          "name": "oldProposalID",
          "type": "uint256"
        },
        {
          "internalType": "uint256",
          "name": "newProposalID",
          "type": "uint256"
        }
      ],
      "name": "cancelProposal",
      "outputs": [],
      "stateMutability": "nonpayable",
      "type": "function"
    },
    {
      "inputs": [],
      "name": "coolOffPeriod",
      "outputs": [
        {
          "internalType": "uint256",
          "name": "",
          "type": "uint256"
        }
      ],
      "stateMutability": "view",
      "type": "function"
    },
    {
      "inputs": [],
      "name": "daoClaim",
      "outputs": [
        {
          "internalType": "uint256",
          "name": "",
          "type": "uint256"
        }
      ],
      "stateMutability": "view",
      "type": "function"
    },
    {
      "inputs": [],
      "name": "daoFee",
      "outputs": [
        {
          "internalType": "uint256",
          "name": "",
          "type": "uint256"
        }
      ],
      "stateMutability": "view",
      "type": "function"
    },
    {
      "inputs": [],
      "name": "daoHasMoved",
      "outputs": [
        {
          "internalType": "bool",
          "name": "",
          "type": "bool"
        }
      ],
      "stateMutability": "view",
      "type": "function"
    },
    {
      "inputs": [
        {
          "internalType": "address",
          "name": "pool",
          "type": "address"
        },
        {
          "internalType": "uint256",
          "name": "amount",
          "type": "uint256"
        }
      ],
      "name": "deposit",
      "outputs": [],
      "stateMutability": "nonpayable",
      "type": "function"
    },
    {
      "inputs": [
        {
          "internalType": "address",
          "name": "pool",
          "type": "address"
        },
        {
          "internalType": "uint256",
          "name": "amount",
          "type": "uint256"
        },
        {
          "internalType": "address",
          "name": "member",
          "type": "address"
        }
      ],
      "name": "depositLPForMember",
      "outputs": [],
      "stateMutability": "nonpayable",
      "type": "function"
    },
    {
      "inputs": [],
      "name": "erasToEarn",
      "outputs": [
        {
          "internalType": "uint256",
          "name": "",
          "type": "uint256"
        }
      ],
      "stateMutability": "view",
      "type": "function"
    },
    {
      "inputs": [
        {
          "internalType": "uint256",
          "name": "proposalID",
          "type": "uint256"
        }
      ],
      "name": "finaliseProposal",
      "outputs": [],
      "stateMutability": "nonpayable",
      "type": "function"
    },
    {
      "inputs": [
        {
          "internalType": "uint256",
          "name": "proposalID",
          "type": "uint256"
        }
      ],
      "name": "getGrantDetails",
      "outputs": [
        {
          "components": [
            {
              "internalType": "address",
              "name": "recipient",
              "type": "address"
            },
            {
              "internalType": "uint256",
              "name": "amount",
              "type": "uint256"
            }
          ],
          "internalType": "struct Dao.GrantDetails",
          "name": "grantDetails",
          "type": "tuple"
        }
      ],
      "stateMutability": "view",
      "type": "function"
    },
    {
      "inputs": [
        {
          "internalType": "uint256",
          "name": "proposalID",
          "type": "uint256"
        }
      ],
      "name": "getProposalDetails",
      "outputs": [
        {
          "components": [
            {
              "internalType": "uint256",
              "name": "id",
              "type": "uint256"
            },
            {
              "internalType": "string",
              "name": "proposalType",
              "type": "string"
            },
            {
              "internalType": "uint256",
              "name": "votes",
              "type": "uint256"
            },
            {
              "internalType": "uint256",
              "name": "timeStart",
              "type": "uint256"
            },
            {
              "internalType": "bool",
              "name": "finalising",
              "type": "bool"
            },
            {
              "internalType": "bool",
              "name": "finalised",
              "type": "bool"
            },
            {
              "internalType": "uint256",
              "name": "param",
              "type": "uint256"
            },
            {
              "internalType": "address",
              "name": "proposedAddress",
              "type": "address"
            }
          ],
          "internalType": "struct Dao.ProposalDetails",
          "name": "proposalDetails",
          "type": "tuple"
        }
      ],
      "stateMutability": "view",
      "type": "function"
    },
    {
      "inputs": [],
      "name": "harvest",
      "outputs": [],
      "stateMutability": "nonpayable",
      "type": "function"
    },
    {
      "inputs": [
        {
          "internalType": "uint256",
          "name": "_proposalID",
          "type": "uint256"
        }
      ],
      "name": "hasMajority",
      "outputs": [
        {
          "internalType": "bool",
          "name": "",
          "type": "bool"
        }
      ],
      "stateMutability": "view",
      "type": "function"
    },
    {
      "inputs": [
        {
          "internalType": "uint256",
          "name": "_proposalID",
          "type": "uint256"
        }
      ],
      "name": "hasMinority",
      "outputs": [
        {
          "internalType": "bool",
          "name": "",
          "type": "bool"
        }
      ],
      "stateMutability": "view",
      "type": "function"
    },
    {
      "inputs": [
        {
          "internalType": "uint256",
          "name": "_proposalID",
          "type": "uint256"
        }
      ],
      "name": "hasQuorum",
      "outputs": [
        {
          "internalType": "bool",
          "name": "",
          "type": "bool"
        }
      ],
      "stateMutability": "view",
      "type": "function"
    },
    {
      "inputs": [
        {
          "internalType": "bytes",
          "name": "part1",
          "type": "bytes"
        },
        {
          "internalType": "bytes",
          "name": "part2",
          "type": "bytes"
        }
      ],
      "name": "isEqual",
      "outputs": [
        {
          "internalType": "bool",
          "name": "",
          "type": "bool"
        }
      ],
      "stateMutability": "pure",
      "type": "function"
    },
    {
      "inputs": [
        {
          "internalType": "address",
          "name": "",
          "type": "address"
        }
      ],
      "name": "isListed",
      "outputs": [
        {
          "internalType": "bool",
          "name": "",
          "type": "bool"
        }
      ],
      "stateMutability": "view",
      "type": "function"
    },
    {
      "inputs": [
        {
          "internalType": "address",
          "name": "",
          "type": "address"
        }
      ],
      "name": "isMember",
      "outputs": [
        {
          "internalType": "bool",
          "name": "",
          "type": "bool"
        }
      ],
      "stateMutability": "view",
      "type": "function"
    },
    {
      "inputs": [],
      "name": "majorityFactor",
      "outputs": [
        {
          "internalType": "uint256",
          "name": "",
          "type": "uint256"
        }
      ],
      "stateMutability": "view",
      "type": "function"
    },
    {
      "inputs": [
        {
          "internalType": "address",
          "name": "",
          "type": "address"
        }
      ],
      "name": "mapMember_lastTime",
      "outputs": [
        {
          "internalType": "uint256",
          "name": "",
          "type": "uint256"
        }
      ],
      "stateMutability": "view",
      "type": "function"
    },
    {
      "inputs": [
        {
          "internalType": "uint256",
          "name": "",
          "type": "uint256"
        },
        {
          "internalType": "address",
          "name": "",
          "type": "address"
        }
      ],
      "name": "mapPIDMember_votes",
      "outputs": [
        {
          "internalType": "uint256",
          "name": "",
          "type": "uint256"
        }
      ],
      "stateMutability": "view",
      "type": "function"
    },
    {
      "inputs": [
        {
          "internalType": "uint256",
          "name": "",
          "type": "uint256"
        }
      ],
      "name": "mapPID_address",
      "outputs": [
        {
          "internalType": "address",
          "name": "",
          "type": "address"
        }
      ],
      "stateMutability": "view",
      "type": "function"
    },
    {
      "inputs": [
        {
          "internalType": "uint256",
          "name": "",
          "type": "uint256"
        }
      ],
      "name": "mapPID_finalised",
      "outputs": [
        {
          "internalType": "bool",
          "name": "",
          "type": "bool"
        }
      ],
      "stateMutability": "view",
      "type": "function"
    },
    {
      "inputs": [
        {
          "internalType": "uint256",
          "name": "",
          "type": "uint256"
        }
      ],
      "name": "mapPID_finalising",
      "outputs": [
        {
          "internalType": "bool",
          "name": "",
          "type": "bool"
        }
      ],
      "stateMutability": "view",
      "type": "function"
    },
    {
      "inputs": [
        {
          "internalType": "uint256",
          "name": "",
          "type": "uint256"
        }
      ],
      "name": "mapPID_grant",
      "outputs": [
        {
          "internalType": "address",
          "name": "recipient",
          "type": "address"
        },
        {
          "internalType": "uint256",
          "name": "amount",
          "type": "uint256"
        }
      ],
      "stateMutability": "view",
      "type": "function"
    },
    {
      "inputs": [
        {
          "internalType": "uint256",
          "name": "",
          "type": "uint256"
        }
      ],
      "name": "mapPID_param",
      "outputs": [
        {
          "internalType": "uint32",
          "name": "",
          "type": "uint32"
        }
      ],
      "stateMutability": "view",
      "type": "function"
    },
    {
      "inputs": [
        {
          "internalType": "uint256",
          "name": "",
          "type": "uint256"
        }
      ],
      "name": "mapPID_timeStart",
      "outputs": [
        {
          "internalType": "uint256",
          "name": "",
          "type": "uint256"
        }
      ],
      "stateMutability": "view",
      "type": "function"
    },
    {
      "inputs": [
        {
          "internalType": "uint256",
          "name": "",
          "type": "uint256"
        }
      ],
      "name": "mapPID_type",
      "outputs": [
        {
          "internalType": "string",
          "name": "",
          "type": "string"
        }
      ],
      "stateMutability": "view",
      "type": "function"
    },
    {
      "inputs": [
        {
          "internalType": "uint256",
          "name": "",
          "type": "uint256"
        }
      ],
      "name": "mapPID_votes",
      "outputs": [
        {
          "internalType": "uint256",
          "name": "",
          "type": "uint256"
        }
      ],
      "stateMutability": "view",
      "type": "function"
    },
    {
      "inputs": [],
      "name": "memberCount",
      "outputs": [
        {
          "internalType": "uint256",
          "name": "",
          "type": "uint256"
        }
      ],
      "stateMutability": "view",
      "type": "function"
    },
    {
      "inputs": [
        {
          "internalType": "string",
          "name": "typeStr",
          "type": "string"
        }
      ],
      "name": "newActionProposal",
      "outputs": [
        {
          "internalType": "uint256",
          "name": "",
          "type": "uint256"
        }
      ],
      "stateMutability": "nonpayable",
      "type": "function"
    },
    {
      "inputs": [
        {
          "internalType": "address",
          "name": "proposedAddress",
          "type": "address"
        },
        {
          "internalType": "string",
          "name": "typeStr",
          "type": "string"
        }
      ],
      "name": "newAddressProposal",
      "outputs": [
        {
          "internalType": "uint256",
          "name": "",
          "type": "uint256"
        }
      ],
      "stateMutability": "nonpayable",
      "type": "function"
    },
    {
      "inputs": [
        {
          "internalType": "address",
          "name": "recipient",
          "type": "address"
        },
        {
          "internalType": "uint256",
          "name": "amount",
          "type": "uint256"
        }
      ],
      "name": "newGrantProposal",
      "outputs": [
        {
          "internalType": "uint256",
          "name": "",
          "type": "uint256"
        }
      ],
      "stateMutability": "nonpayable",
      "type": "function"
    },
    {
      "inputs": [
        {
          "internalType": "uint32",
          "name": "param",
          "type": "uint32"
        },
        {
          "internalType": "string",
          "name": "typeStr",
          "type": "string"
        }
      ],
      "name": "newParamProposal",
      "outputs": [
        {
          "internalType": "uint256",
          "name": "",
          "type": "uint256"
        }
      ],
      "stateMutability": "nonpayable",
      "type": "function"
    },
    {
      "inputs": [],
      "name": "proposalCount",
      "outputs": [
        {
          "internalType": "uint256",
          "name": "",
          "type": "uint256"
        }
      ],
      "stateMutability": "view",
      "type": "function"
    },
    {
      "inputs": [],
      "name": "purgeDeployer",
      "outputs": [],
      "stateMutability": "nonpayable",
      "type": "function"
    },
    {
      "inputs": [
        {
          "internalType": "uint256",
          "name": "proposalID",
          "type": "uint256"
        }
      ],
      "name": "removeVote",
      "outputs": [
        {
          "internalType": "uint256",
          "name": "voteWeightRemoved",
          "type": "uint256"
        }
      ],
      "stateMutability": "nonpayable",
      "type": "function"
    },
    {
      "inputs": [],
      "name": "secondsPerEra",
      "outputs": [
        {
          "internalType": "uint256",
          "name": "",
          "type": "uint256"
        }
      ],
      "stateMutability": "view",
      "type": "function"
    },
    {
      "inputs": [
        {
          "internalType": "address",
          "name": "_poolFactory",
          "type": "address"
        },
        {
          "internalType": "address",
          "name": "_synthFactory",
          "type": "address"
        }
      ],
      "name": "setFactoryAddresses",
      "outputs": [],
      "stateMutability": "nonpayable",
      "type": "function"
    },
    {
      "inputs": [
        {
          "internalType": "address",
          "name": "_router",
          "type": "address"
        },
        {
          "internalType": "address",
          "name": "_utils",
          "type": "address"
        },
        {
          "internalType": "address",
          "name": "_bond",
          "type": "address"
        },
        {
          "internalType": "address",
          "name": "_reserve",
          "type": "address"
        },
        {
          "internalType": "address",
          "name": "_daovault",
          "type": "address"
        }
      ],
      "name": "setGenesisAddresses",
      "outputs": [],
      "stateMutability": "nonpayable",
      "type": "function"
    },
    {
      "inputs": [
        {
          "internalType": "uint256",
          "name": "proposalID",
          "type": "uint256"
        }
      ],
      "name": "voteProposal",
      "outputs": [
        {
          "internalType": "uint256",
          "name": "voteWeight",
          "type": "uint256"
        }
      ],
      "stateMutability": "nonpayable",
      "type": "function"
    },
    {
      "inputs": [
        {
          "internalType": "address",
          "name": "pool",
          "type": "address"
        }
      ],
      "name": "withdraw",
      "outputs": [],
      "stateMutability": "nonpayable",
      "type": "function"
    }
  ],
  "bytecode": "0x60806040523480156200001157600080fd5b5060405162006f9238038062006f92833981810160405281019062000037919062000117565b80600160006101000a81548173ffffffffffffffffffffffffffffffffffffffff021916908373ffffffffffffffffffffffffffffffffffffffff160217905550336000806101000a81548173ffffffffffffffffffffffffffffffffffffffff021916908373ffffffffffffffffffffffffffffffffffffffff16021790555030600960016101000a81548173ffffffffffffffffffffffffffffffffffffffff021916908373ffffffffffffffffffffffffffffffffffffffff1602179055505062000191565b600081519050620001118162000177565b92915050565b6000602082840312156200012a57600080fd5b60006200013a8482850162000100565b91505092915050565b6000620001508262000157565b9050919050565b600073ffffffffffffffffffffffffffffffffffffffff82169050919050565b620001828162000143565b81146200018e57600080fd5b50565b616df180620001a16000396000f3fe608060405234801561001057600080fd5b50600436106103ba5760003560e01c8063807896d5116101f4578063bbf8cf821161011a578063da35c664116100ad578063ec342ad01161007c578063ec342ad014610c06578063f1b591d614610c24578063f38a2fa114610c54578063f794062e14610c84576103ba565b8063da35c66414610b6a578063dab249b314610b88578063e38c7dcc14610bb8578063e53bea9714610be8576103ba565b8063c42b3f7d116100e9578063c42b3f7d14610aa9578063cb7bdbc014610ad9578063d0ad170914610b0a578063d145836314610b3a576103ba565b8063bbf8cf8214610a0d578063c05fc17814610a3d578063c1b8411a14610a6d578063c1c1d21814610a8b576103ba565b8063a230c52411610192578063ae887c8b11610161578063ae887c8b14610983578063b93ec54b146109b3578063b99b0a0c146109d1578063bb258e6b146109ef576103ba565b8063a230c524146108e9578063a2eea1bc14610919578063a6c83fed14610935578063abb6154f14610965576103ba565b806398e4439a116101ce57806398e4439a1461087157806398fabd3a1461088f5780639c552f04146108ad5780639d2cc436146108cb576103ba565b8063807896d514610805578063929f60d014610835578063956615be14610853576103ba565b8063436f80be116102e45780635c120b371161027757806367afe7e91161024657806367afe7e91461078d5780636b92a3b6146107ab57806379b2dc4c146107c95780637b0e5c45146107e7576103ba565b80635c120b37146106f35780635c7366d3146107235780635ded8b061461075357806364ca935d1461076f576103ba565b806347e7ef24116102b357806347e7ef241461066f5780634b193e231461068b5780634b400034146106a757806351cff8d9146106d7576103ba565b8063436f80be146105e957806346350821146106195780634636279f146106355780634641257d14610665576103ba565b80632c07eebf1161035c57806338da7dd61161032b57806338da7dd61461053b5780633a61738d146105595780633b4d01a7146105895780633f68fde4146105b9576103ba565b80632c07eebf1461049f578063314604fe146104bd57806332fe7b26146104ed578063343598081461050b576103ba565b806325a7f9081161039857806325a7f90814610405578063293cee7d146104215780632957b839146104515780632bee11941461046f576103ba565b806303a82138146103bf57806311aee380146103c957806324efb528146103e7575b600080fd5b6103c7610cb4565b005b6103d1610d4f565b6040516103de919061648a565b60405180910390f35b6103ef610d5c565b6040516103fc91906161d3565b60405180910390f35b61041f600480360381019061041a919061595e565b610d6f565b005b61043b600480360381019061043691906158ce565b6111b2565b604051610448919061648a565b60405180910390f35b6104596112b1565b604051610466919061648a565b60405180910390f35b61048960048036038101906104849190615bcb565b6112b7565b60405161049691906161d3565b60405180910390f35b6104a76112d7565b6040516104b4919061648a565b60405180910390f35b6104d760048036038101906104d29190615bcb565b6112dd565b6040516104e49190616573565b60405180910390f35b6104f5611300565b604051610502919061625a565b60405180910390f35b610525600480360381019061052091906159ff565b6113e7565b60405161053291906161d3565b60405180910390f35b6105436114a3565b6040516105509190616209565b60405180910390f35b610573600480360381019061056e91906157f2565b61158a565b604051610580919061648a565b60405180910390f35b6105a3600480360381019061059e9190615bcb565b611895565b6040516105b09190616468565b60405180910390f35b6105d360048036038101906105ce9190615bcb565b611a88565b6040516105e0919061648a565b60405180910390f35b61060360048036038101906105fe9190615bcb565b611c68565b60405161061091906160f8565b60405180910390f35b610633600480360381019061062e919061581b565b611ca7565b005b61064f600480360381019061064a91906157f2565b611d85565b60405161065c919061648a565b60405180910390f35b61066d611e97565b005b61068960048036038101906106849190615922565b61207c565b005b6106a560048036038101906106a09190615bcb565b61208b565b005b6106c160048036038101906106bc9190615bcb565b61270f565b6040516106ce91906161d3565b60405180910390f35b6106f160048036038101906106ec91906157f2565b61272f565b005b61070d60048036038101906107089190615bcb565b612820565b60405161071a91906161d3565b60405180910390f35b61073d600480360381019061073891906157f2565b61291d565b60405161074a919061648a565b60405180910390f35b61076d60048036038101906107689190615c59565b612935565b005b610777612c91565b60405161078491906161ee565b60405180910390f35b610795612cb7565b6040516107a29190616224565b60405180910390f35b6107b3612cdd565b6040516107c0919061648a565b60405180910390f35b6107d1612ce3565b6040516107de919061648a565b60405180910390f35b6107ef612ce9565b6040516107fc9190616290565b60405180910390f35b61081f600480360381019061081a9190615bcb565b612dd0565b60405161082c919061648a565b60405180910390f35b61083d613136565b60405161084a9190616209565b60405180910390f35b61085b61315c565b604051610868919061648a565b60405180910390f35b610879613162565b604051610886919061625a565b60405180910390f35b610897613188565b6040516108a491906160f8565b60405180910390f35b6108b56131ae565b6040516108c2919061623f565b60405180910390f35b6108d36131d4565b6040516108e0919061623f565b60405180910390f35b61090360048036038101906108fe91906157f2565b6132bb565b60405161091091906161d3565b60405180910390f35b610933600480360381019061092e9190615857565b6132db565b005b61094f600480360381019061094a9190615922565b61347f565b60405161095c919061648a565b60405180910390f35b61096d61361a565b60405161097a919061648a565b60405180910390f35b61099d60048036038101906109989190615bcb565b613620565b6040516109aa91906160f8565b60405180910390f35b6109bb613653565b6040516109c89190616275565b60405180910390f35b6109d961373a565b6040516109e69190616224565b60405180910390f35b6109f7613821565b604051610a049190616290565b60405180910390f35b610a276004803603810190610a229190615bcb565b613847565b604051610a3491906161d3565b60405180910390f35b610a576004803603810190610a529190615bcb565b613936565b604051610a6491906162ab565b60405180910390f35b610a756139d6565b604051610a8291906160f8565b60405180910390f35b610a936139fa565b604051610aa091906161ee565b60405180910390f35b610ac36004803603810190610abe9190615c1d565b613ae1565b604051610ad0919061648a565b60405180910390f35b610af36004803603810190610aee9190615bcb565b613b06565b604051610b01929190616173565b60405180910390f35b610b246004803603810190610b1f9190615bcb565b613b4a565b604051610b3191906161d3565b60405180910390f35b610b546004803603810190610b4f9190615b8a565b613c39565b604051610b61919061648a565b60405180910390f35b610b72613ce3565b604051610b7f919061648a565b60405180910390f35b610ba26004803603810190610b9d9190615bcb565b613ce9565b604051610baf919061648a565b60405180910390f35b610bd26004803603810190610bcd9190615bcb565b613d01565b604051610bdf919061648a565b60405180910390f35b610bf0613d19565b604051610bfd9190616275565b60405180910390f35b610c0e613d3f565b604051610c1b91906160f8565b60405180910390f35b610c3e6004803603810190610c399190615bcb565b613d65565b604051610c4b919061644d565b60405180910390f35b610c6e6004803603810190610c699190615c95565b613e00565b604051610c7b919061648a565b60405180910390f35b610c9e6004803603810190610c9991906157f2565b613edf565b604051610cab91906161d3565b60405180910390f35b60008054906101000a900473ffffffffffffffffffffffffffffffffffffffff1673ffffffffffffffffffffffffffffffffffffffff163373ffffffffffffffffffffffffffffffffffffffff1614610d0c57600080fd5b60008060006101000a81548173ffffffffffffffffffffffffffffffffffffffff021916908373ffffffffffffffffffffffffffffffffffffffff160217905550565b6000601180549050905090565b600960009054906101000a900460ff1681565b60011515600e60009054906101000a900473ffffffffffffffffffffffffffffffffffffffff1673ffffffffffffffffffffffffffffffffffffffff16638dcb4c93856040518263ffffffff1660e01b8152600401610dce91906160f8565b60206040518083038186803b158015610de657600080fd5b505afa158015610dfa573d6000803e3d6000fd5b505050506040513d601f19601f82011682018060405250810190610e1e91906159ad565b151514610e60576040517f08c379a0000000000000000000000000000000000000000000000000000000008152600401610e57906163ad565b60405180910390fd5b60008211610ea3576040517f08c379a0000000000000000000000000000000000000000000000000000000008152600401610e9a906162cd565b60405180910390fd5b60011515601260008373ffffffffffffffffffffffffffffffffffffffff1673ffffffffffffffffffffffffffffffffffffffff16815260200190815260200160002060009054906101000a900460ff16151514610fb7576011339080600181540180825580915050600190039060005260206000200160009091909190916101000a81548173ffffffffffffffffffffffffffffffffffffffff021916908373ffffffffffffffffffffffffffffffffffffffff1602179055506001601260008373ffffffffffffffffffffffffffffffffffffffff1673ffffffffffffffffffffffffffffffffffffffff16815260200190815260200160002060006101000a81548160ff0219169083151502179055505b6000600d60009054906101000a900473ffffffffffffffffffffffffffffffffffffffff1673ffffffffffffffffffffffffffffffffffffffff16635364df49836040518263ffffffff1660e01b815260040161101491906160f8565b60206040518083038186803b15801561102c57600080fd5b505afa158015611040573d6000803e3d6000fd5b505050506040513d601f19601f820116820180604052508101906110649190615bf4565b111561107357611072611e97565b5b600d60009054906101000a900473ffffffffffffffffffffffffffffffffffffffff1673ffffffffffffffffffffffffffffffffffffffff166346dafa2f8484846040518463ffffffff1660e01b81526004016110d29392919061619c565b600060405180830381600087803b1580156110ec57600080fd5b505af1158015611100573d6000803e3d6000fd5b5050505042601460008373ffffffffffffffffffffffffffffffffffffffff1673ffffffffffffffffffffffffffffffffffffffff168152602001908152602001600020819055508273ffffffffffffffffffffffffffffffffffffffff168173ffffffffffffffffffffffffffffffffffffffff167f5f9b5a75581a29d72b32414a5df7f1ef124b7787b38616fb8fdcad76179127c2846040516111a5919061648a565b60405180910390a3505050565b60006111bc613eff565b506001600460008282546111d09190616658565b925050819055508260166000600454815260200190815260200160002060006101000a81548173ffffffffffffffffffffffffffffffffffffffff021916908373ffffffffffffffffffffffffffffffffffffffff1602179055508160186000600454815260200190815260200160002090805190602001906112549291906154df565b506004543373ffffffffffffffffffffffffffffffffffffffff167f8d500fcad86fc64a281b94ef64d6d66acbfc6862aa4ff2ee5fbbfb40736e803e8460405161129e91906162ab565b60405180910390a3600454905092915050565b60085481565b601c6020528060005260406000206000915054906101000a900460ff1681565b60065481565b60156020528060005260406000206000915054906101000a900463ffffffff1681565b6000600960009054906101000a900460ff16156113be57600960019054906101000a900473ffffffffffffffffffffffffffffffffffffffff1673ffffffffffffffffffffffffffffffffffffffff166332fe7b266040518163ffffffff1660e01b815260040160206040518083038186803b15801561137f57600080fd5b505afa158015611393573d6000803e3d6000fd5b505050506040513d601f19601f820116820180604052508101906113b79190615b0f565b90506113e4565b600a60009054906101000a900473ffffffffffffffffffffffffffffffffffffffff1690505b90565b60006002826040516113f991906160e1565b602060405180830381855afa158015611416573d6000803e3d6000fd5b5050506040513d601f19601f8201168201806040525081019061143991906159d6565b60028460405161144991906160e1565b602060405180830381855afa158015611466573d6000803e3d6000fd5b5050506040513d601f19601f8201168201806040525081019061148991906159d6565b1415611498576001905061149d565b600090505b92915050565b6000600960009054906101000a900460ff161561156157600960019054906101000a900473ffffffffffffffffffffffffffffffffffffffff1673ffffffffffffffffffffffffffffffffffffffff166338da7dd66040518163ffffffff1660e01b815260040160206040518083038186803b15801561152257600080fd5b505afa158015611536573d6000803e3d6000fd5b505050506040513d601f19601f8201168201806040525081019061155a9190615a94565b9050611587565b600d60009054906101000a900473ffffffffffffffffffffffffffffffffffffffff1690505b90565b600080600d60009054906101000a900473ffffffffffffffffffffffffffffffffffffffff1673ffffffffffffffffffffffffffffffffffffffff16635364df49846040518263ffffffff1660e01b81526004016115e891906160f8565b60206040518083038186803b15801561160057600080fd5b505afa158015611614573d6000803e3d6000fd5b505050506040513d601f19601f820116820180604052508101906116389190615bf4565b90506000600d60009054906101000a900473ffffffffffffffffffffffffffffffffffffffff1673ffffffffffffffffffffffffffffffffffffffff166396c82e576040518163ffffffff1660e01b815260040160206040518083038186803b1580156116a457600080fd5b505afa1580156116b8573d6000803e3d6000fd5b505050506040513d601f19601f820116820180604052508101906116dc9190615bf4565b90506000600654600160009054906101000a900473ffffffffffffffffffffffffffffffffffffffff1673ffffffffffffffffffffffffffffffffffffffff166370a08231601060009054906101000a900473ffffffffffffffffffffffffffffffffffffffff166040518263ffffffff1660e01b815260040161176091906160f8565b60206040518083038186803b15801561177857600080fd5b505afa15801561178c573d6000803e3d6000fd5b505050506040513d601f19601f820116820180604052508101906117b09190615bf4565b6117ba91906166ae565b90506000612710600754836117cf91906166df565b6117d991906166ae565b9050600b60009054906101000a900473ffffffffffffffffffffffffffffffffffffffff1673ffffffffffffffffffffffffffffffffffffffff16631ba326c48585846040518463ffffffff1660e01b815260040161183a9392919061653c565b60206040518083038186803b15801561185257600080fd5b505afa158015611866573d6000803e3d6000fd5b505050506040513d601f19601f8201168201806040525081019061188a9190615bf4565b945050505050919050565b61189d615565565b818160000181815250506018600083815260200190815260200160002080546118c59061698b565b80601f01602080910402602001604051908101604052809291908181526020018280546118f19061698b565b801561193e5780601f106119135761010080835404028352916020019161193e565b820191906000526020600020905b81548152906001019060200180831161192157829003601f168201915b505050505081602001819052506019600083815260200190815260200160002054816040018181525050601a600083815260200190815260200160002054816060018181525050601b600083815260200190815260200160002060009054906101000a900460ff16816080019015159081151581525050601c600083815260200190815260200160002060009054906101000a900460ff168160a00190151590811515815250506015600083815260200190815260200160002060009054906101000a900463ffffffff1663ffffffff168160c00181815250506016600083815260200190815260200160002060009054906101000a900473ffffffffffffffffffffffffffffffffffffffff168160e0019073ffffffffffffffffffffffffffffffffffffffff16908173ffffffffffffffffffffffffffffffffffffffff1681525050919050565b600080601860008481526020019081526020016000208054611aa99061698b565b80601f0160208091040260200160405190810160405280929190818152602001828054611ad59061698b565b8015611b225780601f10611af757610100808354040283529160200191611b22565b820191906000526020600020905b815481529060010190602001808311611b0557829003601f168201915b50505050509050601d600084815260200190815260200160002060003373ffffffffffffffffffffffffffffffffffffffff1673ffffffffffffffffffffffffffffffffffffffff16815260200190815260200160002054915081601960008581526020019081526020016000206000828254611b9f9190616739565b925050819055506000601d600085815260200190815260200160002060003373ffffffffffffffffffffffffffffffffffffffff1673ffffffffffffffffffffffffffffffffffffffff16815260200190815260200160002081905550823373ffffffffffffffffffffffffffffffffffffffff167f70a6ab6ed794c2ceb8df59b7bb4e317e9b215d9ce74b88161ca5af2a5a801d6f84601960008881526020019081526020016000205485604051611c5a939291906164fe565b60405180910390a350919050565b60118181548110611c7857600080fd5b906000526020600020016000915054906101000a900473ffffffffffffffffffffffffffffffffffffffff1681565b60008054906101000a900473ffffffffffffffffffffffffffffffffffffffff1673ffffffffffffffffffffffffffffffffffffffff163373ffffffffffffffffffffffffffffffffffffffff1614611cff57600080fd5b81600e60006101000a81548173ffffffffffffffffffffffffffffffffffffffff021916908373ffffffffffffffffffffffffffffffffffffffff16021790555080600f60006101000a81548173ffffffffffffffffffffffffffffffffffffffff021916908373ffffffffffffffffffffffffffffffffffffffff1602179055505050565b6000601260008373ffffffffffffffffffffffffffffffffffffffff1673ffffffffffffffffffffffffffffffffffffffff16815260200190815260200160002060009054906101000a900460ff16611e13576040517f08c379a0000000000000000000000000000000000000000000000000000000008152600401611e0a9061636d565b60405180910390fd5b6000601460008473ffffffffffffffffffffffffffffffffffffffff1673ffffffffffffffffffffffffffffffffffffffff1681526020019081526020016000205442611e609190616739565b90506000611e6d8461158a565b905060006002548383611e8091906166df565b611e8a91906166ae565b9050809350505050919050565b601060009054906101000a900473ffffffffffffffffffffffffffffffffffffffff1673ffffffffffffffffffffffffffffffffffffffff16632267716c6040518163ffffffff1660e01b8152600401602060405180830381600087803b158015611f0157600080fd5b505af1158015611f15573d6000803e3d6000fd5b505050506040513d601f19601f82011682018060405250810190611f3991906159ad565b611f78576040517f08c379a0000000000000000000000000000000000000000000000000000000008152600401611f6f9061632d565b60405180910390fd5b6000611f8333611d85565b905042601460003373ffffffffffffffffffffffffffffffffffffffff1673ffffffffffffffffffffffffffffffffffffffff16815260200190815260200160002081905550601060009054906101000a900473ffffffffffffffffffffffffffffffffffffffff1673ffffffffffffffffffffffffffffffffffffffff16637d458baa82336040518363ffffffff1660e01b81526004016120269291906164a5565b602060405180830381600087803b15801561204057600080fd5b505af1158015612054573d6000803e3d6000fd5b505050506040513d601f19601f820116820180604052508101906120789190615bf4565b5050565b612087828233610d6f565b5050565b600354601a600083815260200190815260200160002054426120ad9190616739565b116120ed576040517f08c379a00000000000000000000000000000000000000000000000000000000081526004016120e49061638d565b60405180910390fd5b60011515601b600083815260200190815260200160002060009054906101000a900460ff16151514612154576040517f08c379a000000000000000000000000000000000000000000000000000000000815260040161214b9061634d565b60405180910390fd5b61215d81613847565b612192576000601b600083815260200190815260200160002060006101000a81548160ff02191690831515021790555061270c565b60006018600083815260200190815260200160002080546121b29061698b565b80601f01602080910402602001604051908101604052809291908181526020018280546121de9061698b565b801561222b5780601f106122005761010080835404028352916020019161222b565b820191906000526020600020905b81548152906001019060200180831161220e57829003601f168201915b50505050509050612271816040518060400160405280600381526020017f44414f00000000000000000000000000000000000000000000000000000000008152506113e7565b156122845761227f82614034565b61270a565b6122c3816040518060400160405280600681526020017f524f5554455200000000000000000000000000000000000000000000000000008152506113e7565b156122d6576122d182614226565b612709565b612315816040518060400160405280600581526020017f5554494c530000000000000000000000000000000000000000000000000000008152506113e7565b15612328576123238261431c565b612708565b612367816040518060400160405280600781526020017f52455345525645000000000000000000000000000000000000000000000000008152506113e7565b1561237a5761237582614412565b612707565b6123b9816040518060400160405280600e81526020017f464c49505f454d495353494f4e530000000000000000000000000000000000008152506113e7565b156123cc576123c782614508565b612706565b61240b816040518060400160405280600881526020017f434f4f4c5f4f46460000000000000000000000000000000000000000000000008152506113e7565b1561241e57612419826145b7565b612705565b61245d816040518060400160405280600c81526020017f455241535f544f5f4541524e00000000000000000000000000000000000000008152506113e7565b156124705761246b82614643565b612704565b6124af816040518060400160405280600581526020017f4752414e540000000000000000000000000000000000000000000000000000008152506113e7565b156124c2576124bd826146cf565b612703565b612501816040518060400160405280600a81526020017f4745545f535041525441000000000000000000000000000000000000000000008152506113e7565b156125145761250f82614816565b612702565b612553816040518060400160405280600981526020017f4c4953545f424f4e4400000000000000000000000000000000000000000000008152506113e7565b1561256657612561826148e4565b612701565b6125a5816040518060400160405280600b81526020017f44454c4953545f424f4e440000000000000000000000000000000000000000008152506113e7565b156125b8576125b3826149d7565b612700565b6125f7816040518060400160405280601081526020017f4144445f435552415445445f504f4f4c000000000000000000000000000000008152506113e7565b1561260a5761260582614b3a565b6126ff565b612649816040518060400160405280601381526020017f52454d4f56455f435552415445445f504f4f4c000000000000000000000000008152506113e7565b1561265c5761265782614c9d565b6126fe565b61269b816040518060400160405280600e81526020017f4645455f41525241595f53495a450000000000000000000000000000000000008152506113e7565b156126ae576126a982614e00565b6126fd565b6126ed816040518060400160405280600a81526020017f4d41585f545241444553000000000000000000000000000000000000000000008152506113e7565b156126fc576126fb82614ee9565b5b5b5b5b5b5b5b5b5b5b5b5b5b5b5b505b50565b601b6020528060005260406000206000915054906101000a900460ff1681565b600d60009054906101000a900473ffffffffffffffffffffffffffffffffffffffff1673ffffffffffffffffffffffffffffffffffffffff1663f940e38582336040518363ffffffff1660e01b815260040161278c929190616113565b602060405180830381600087803b1580156127a657600080fd5b505af11580156127ba573d6000803e3d6000fd5b505050506040513d601f19601f820116820180604052508101906127de91906159ad565b61281d576040517f08c379a0000000000000000000000000000000000000000000000000000000008152600401612814906163ed565b60405180910390fd5b50565b600080601960008481526020019081526020016000205490506000600d60009054906101000a900473ffffffffffffffffffffffffffffffffffffffff1673ffffffffffffffffffffffffffffffffffffffff166396c82e576040518163ffffffff1660e01b815260040160206040518083038186803b1580156128a357600080fd5b505afa1580156128b7573d6000803e3d6000fd5b505050506040513d601f19601f820116820180604052508101906128db9190615bf4565b90506000612710600554836128f091906166df565b6128fa91906166ae565b9050808311156129105760019350505050612918565b600093505050505b919050565b60146020528060005260406000206000915090505481565b601b600083815260200190815260200160002060009054906101000a900460ff16612995576040517f08c379a000000000000000000000000000000000000000000000000000000000815260040161298c9061634d565b60405180910390fd5b61299e81613b4a565b6129dd576040517f08c379a00000000000000000000000000000000000000000000000000000000081526004016129d49061640d565b60405180910390fd5b612b1d6018600084815260200190815260200160002080546129fe9061698b565b80601f0160208091040260200160405190810160405280929190818152602001828054612a2a9061698b565b8015612a775780601f10612a4c57610100808354040283529160200191612a77565b820191906000526020600020905b815481529060010190602001808311612a5a57829003601f168201915b5050505050601860008481526020019081526020016000208054612a9a9061698b565b80601f0160208091040260200160405190810160405280929190818152602001828054612ac69061698b565b8015612b135780601f10612ae857610100808354040283529160200191612b13565b820191906000526020600020905b815481529060010190602001808311612af657829003601f168201915b50505050506113e7565b612b5c576040517f08c379a0000000000000000000000000000000000000000000000000000000008152600401612b53906163cd565b60405180910390fd5b60006019600084815260200190815260200160002081905550813373ffffffffffffffffffffffffffffffffffffffff167f0e67c2e72a9ea22e5d163549aebce99ddc3d1fbbc58e7ed196b0e88f458847d960196000868152602001908152602001600020546019600086815260200190815260200160002054600d60009054906101000a900473ffffffffffffffffffffffffffffffffffffffff1673ffffffffffffffffffffffffffffffffffffffff166396c82e576040518163ffffffff1660e01b815260040160206040518083038186803b158015612c3e57600080fd5b505afa158015612c52573d6000803e3d6000fd5b505050506040513d601f19601f82011682018060405250810190612c769190615bf4565b604051612c859392919061653c565b60405180910390a35050565b600c60009054906101000a900473ffffffffffffffffffffffffffffffffffffffff1681565b600e60009054906101000a900473ffffffffffffffffffffffffffffffffffffffff1681565b60025481565b60075481565b6000600960009054906101000a900460ff1615612da757600960019054906101000a900473ffffffffffffffffffffffffffffffffffffffff1673ffffffffffffffffffffffffffffffffffffffff16637b0e5c456040518163ffffffff1660e01b815260040160206040518083038186803b158015612d6857600080fd5b505afa158015612d7c573d6000803e3d6000fd5b505050506040513d601f19601f82011682018060405250810190612da09190615b61565b9050612dcd565b600b60009054906101000a900473ffffffffffffffffffffffffffffffffffffffff1690505b90565b600080601860008481526020019081526020016000208054612df19061698b565b80601f0160208091040260200160405190810160405280929190818152602001828054612e1d9061698b565b8015612e6a5780601f10612e3f57610100808354040283529160200191612e6a565b820191906000526020600020905b815481529060010190602001808311612e4d57829003601f168201915b50505050509050612e7a83614fd2565b9150612e8583613847565b8015612eb5575060001515601b600085815260200190815260200160002060009054906101000a900460ff161515145b156130ca57612ef9816040518060400160405280600381526020017f44414f00000000000000000000000000000000000000000000000000000000008152506113e7565b80612f3f5750612f3e816040518060400160405280600581526020017f5554494c530000000000000000000000000000000000000000000000000000008152506113e7565b5b80612f855750612f84816040518060400160405280600981526020017f494e43454e5449564500000000000000000000000000000000000000000000008152506113e7565b5b80612fcb5750612fca816040518060400160405280600981526020017f4c4953545f424f4e4400000000000000000000000000000000000000000000008152506113e7565b5b806130115750613010816040518060400160405280600581526020017f4752414e540000000000000000000000000000000000000000000000000000008152506113e7565b5b806130575750613056816040518060400160405280600a81526020017f4745545f535041525441000000000000000000000000000000000000000000008152506113e7565b5b8061309d575061309c816040518060400160405280601081526020017f4144445f435552415445445f504f4f4c000000000000000000000000000000008152506113e7565b5b156130bf576130ab83612820565b156130ba576130b98361517f565b5b6130c9565b6130c88361517f565b5b5b823373ffffffffffffffffffffffffffffffffffffffff167f4d46d88c7e981a5bf4572a83b5d88bcfefbd5ee6ca8df0588e27c4221a43640784601960008881526020019081526020016000205485604051613128939291906164fe565b60405180910390a350919050565b600d60009054906101000a900473ffffffffffffffffffffffffffffffffffffffff1681565b60055481565b600a60009054906101000a900473ffffffffffffffffffffffffffffffffffffffff1681565b600960019054906101000a900473ffffffffffffffffffffffffffffffffffffffff1681565b601060009054906101000a900473ffffffffffffffffffffffffffffffffffffffff1681565b6000600960009054906101000a900460ff161561329257600960019054906101000a900473ffffffffffffffffffffffffffffffffffffffff1673ffffffffffffffffffffffffffffffffffffffff16639d2cc4366040518163ffffffff1660e01b815260040160206040518083038186803b15801561325357600080fd5b505afa158015613267573d6000803e3d6000fd5b505050506040513d601f19601f8201168201806040525081019061328b9190615ae6565b90506132b8565b601060009054906101000a900473ffffffffffffffffffffffffffffffffffffffff1690505b90565b60126020528060005260406000206000915054906101000a900460ff1681565b60008054906101000a900473ffffffffffffffffffffffffffffffffffffffff1673ffffffffffffffffffffffffffffffffffffffff163373ffffffffffffffffffffffffffffffffffffffff161461333357600080fd5b84600a60006101000a81548173ffffffffffffffffffffffffffffffffffffffff021916908373ffffffffffffffffffffffffffffffffffffffff16021790555083600b60006101000a81548173ffffffffffffffffffffffffffffffffffffffff021916908373ffffffffffffffffffffffffffffffffffffffff16021790555082600c60006101000a81548173ffffffffffffffffffffffffffffffffffffffff021916908373ffffffffffffffffffffffffffffffffffffffff16021790555081601060006101000a81548173ffffffffffffffffffffffffffffffffffffffff021916908373ffffffffffffffffffffffffffffffffffffffff16021790555080600d60006101000a81548173ffffffffffffffffffffffffffffffffffffffff021916908373ffffffffffffffffffffffffffffffffffffffff1602179055505050505050565b6000613489613eff565b5060006040518060400160405280600581526020017f4752414e5400000000000000000000000000000000000000000000000000000081525090506001600460008282546134d79190616658565b925050819055508060186000600454815260200190815260200160002090805190602001906135079291906154df565b506135106155c4565b84816000019073ffffffffffffffffffffffffffffffffffffffff16908173ffffffffffffffffffffffffffffffffffffffff1681525050838160200181815250508060176000600454815260200190815260200160002060008201518160000160006101000a81548173ffffffffffffffffffffffffffffffffffffffff021916908373ffffffffffffffffffffffffffffffffffffffff160217905550602082015181600101559050506004543373ffffffffffffffffffffffffffffffffffffffff167f8d500fcad86fc64a281b94ef64d6d66acbfc6862aa4ff2ee5fbbfb40736e803e8460405161360591906162ab565b60405180910390a36004549250505092915050565b60035481565b60166020528060005260406000206000915054906101000a900473ffffffffffffffffffffffffffffffffffffffff1681565b6000600960009054906101000a900460ff161561371157600960019054906101000a900473ffffffffffffffffffffffffffffffffffffffff1673ffffffffffffffffffffffffffffffffffffffff1663b93ec54b6040518163ffffffff1660e01b815260040160206040518083038186803b1580156136d257600080fd5b505afa1580156136e6573d6000803e3d6000fd5b505050506040513d601f19601f8201168201806040525081019061370a9190615b38565b9050613737565b600f60009054906101000a900473ffffffffffffffffffffffffffffffffffffffff1690505b90565b6000600960009054906101000a900460ff16156137f857600960019054906101000a900473ffffffffffffffffffffffffffffffffffffffff1673ffffffffffffffffffffffffffffffffffffffff1663b99b0a0c6040518163ffffffff1660e01b815260040160206040518083038186803b1580156137b957600080fd5b505afa1580156137cd573d6000803e3d6000fd5b505050506040513d601f19601f820116820180604052508101906137f19190615abd565b905061381e565b600e60009054906101000a900473ffffffffffffffffffffffffffffffffffffffff1690505b90565b600b60009054906101000a900473ffffffffffffffffffffffffffffffffffffffff1681565b600080601960008481526020019081526020016000205490506000600d60009054906101000a900473ffffffffffffffffffffffffffffffffffffffff1673ffffffffffffffffffffffffffffffffffffffff166396c82e576040518163ffffffff1660e01b815260040160206040518083038186803b1580156138ca57600080fd5b505afa1580156138de573d6000803e3d6000fd5b505050506040513d601f19601f820116820180604052508101906139029190615bf4565b9050600060038261391391906166ae565b9050808311156139295760019350505050613931565b600093505050505b919050565b601860205280600052604060002060009150905080546139559061698b565b80601f01602080910402602001604051908101604052809291908181526020018280546139819061698b565b80156139ce5780601f106139a3576101008083540402835291602001916139ce565b820191906000526020600020905b8154815290600101906020018083116139b157829003601f168201915b505050505081565b60008054906101000a900473ffffffffffffffffffffffffffffffffffffffff1681565b6000600960009054906101000a900460ff1615613ab857600960019054906101000a900473ffffffffffffffffffffffffffffffffffffffff1673ffffffffffffffffffffffffffffffffffffffff1663c1c1d2186040518163ffffffff1660e01b815260040160206040518083038186803b158015613a7957600080fd5b505afa158015613a8d573d6000803e3d6000fd5b505050506040513d601f19601f82011682018060405250810190613ab19190615a6b565b9050613ade565b600c60009054906101000a900473ffffffffffffffffffffffffffffffffffffffff1690505b90565b601d602052816000526040600020602052806000526040600020600091509150505481565b60176020528060005260406000206000915090508060000160009054906101000a900473ffffffffffffffffffffffffffffffffffffffff16908060010154905082565b600080601960008481526020019081526020016000205490506000600d60009054906101000a900473ffffffffffffffffffffffffffffffffffffffff1673ffffffffffffffffffffffffffffffffffffffff166396c82e576040518163ffffffff1660e01b815260040160206040518083038186803b158015613bcd57600080fd5b505afa158015613be1573d6000803e3d6000fd5b505050506040513d601f19601f82011682018060405250810190613c059190615bf4565b90506000600682613c1691906166ae565b905080831115613c2c5760019350505050613c34565b600093505050505b919050565b6000613c43613eff565b50600160046000828254613c579190616658565b92505081905550816018600060045481526020019081526020016000209080519060200190613c879291906154df565b506004543373ffffffffffffffffffffffffffffffffffffffff167f8d500fcad86fc64a281b94ef64d6d66acbfc6862aa4ff2ee5fbbfb40736e803e84604051613cd191906162ab565b60405180910390a36004549050919050565b60045481565b60196020528060005260406000206000915090505481565b601a6020528060005260406000206000915090505481565b600f60009054906101000a900473ffffffffffffffffffffffffffffffffffffffff1681565b600160009054906101000a900473ffffffffffffffffffffffffffffffffffffffff1681565b613d6d6155c4565b6017600083815260200190815260200160002060000160009054906101000a900473ffffffffffffffffffffffffffffffffffffffff16816000019073ffffffffffffffffffffffffffffffffffffffff16908173ffffffffffffffffffffffffffffffffffffffff16815250506017600083815260200190815260200160002060010154816020018181525050919050565b6000613e0a613eff565b50600160046000828254613e1e9190616658565b925050819055508260156000600454815260200190815260200160002060006101000a81548163ffffffff021916908363ffffffff160217905550816018600060045481526020019081526020016000209080519060200190613e829291906154df565b506004543373ffffffffffffffffffffffffffffffffffffffff167f8d500fcad86fc64a281b94ef64d6d66acbfc6862aa4ff2ee5fbbfb40736e803e84604051613ecc91906162ab565b60405180910390a3600454905092915050565b60136020528060005260406000206000915054906101000a900460ff1681565b600080670de0b6b3a7640000600854613f1891906166df565b9050600160009054906101000a900473ffffffffffffffffffffffffffffffffffffffff1673ffffffffffffffffffffffffffffffffffffffff166323b872dd33600a60009054906101000a900473ffffffffffffffffffffffffffffffffffffffff16846040518463ffffffff1660e01b8152600401613f9b9392919061613c565b602060405180830381600087803b158015613fb557600080fd5b505af1158015613fc9573d6000803e3d6000fd5b505050506040513d601f19601f82011682018060405250810190613fed91906159ad565b61402c576040517f08c379a0000000000000000000000000000000000000000000000000000000008152600401614023906162ed565b60405180910390fd5b600191505090565b60006016600083815260200190815260200160002060009054906101000a900473ffffffffffffffffffffffffffffffffffffffff169050600073ffffffffffffffffffffffffffffffffffffffff168173ffffffffffffffffffffffffffffffffffffffff1614156140dc576040517f08c379a00000000000000000000000000000000000000000000000000000000081526004016140d39061642d565b60405180910390fd5b6016600083815260200190815260200160002060009054906101000a900473ffffffffffffffffffffffffffffffffffffffff16600960016101000a81548173ffffffffffffffffffffffffffffffffffffffff021916908373ffffffffffffffffffffffffffffffffffffffff160217905550600160009054906101000a900473ffffffffffffffffffffffffffffffffffffffff1673ffffffffffffffffffffffffffffffffffffffff16631d007f5f826040518263ffffffff1660e01b81526004016141ab91906160f8565b602060405180830381600087803b1580156141c557600080fd5b505af11580156141d9573d6000803e3d6000fd5b505050506040513d601f19601f820116820180604052508101906141fd91906159ad565b506001600960006101000a81548160ff021916908315150217905550614222826152c5565b5050565b60006016600083815260200190815260200160002060009054906101000a900473ffffffffffffffffffffffffffffffffffffffff169050600073ffffffffffffffffffffffffffffffffffffffff168173ffffffffffffffffffffffffffffffffffffffff1614156142ce576040517f08c379a00000000000000000000000000000000000000000000000000000000081526004016142c59061642d565b60405180910390fd5b80600a60006101000a81548173ffffffffffffffffffffffffffffffffffffffff021916908373ffffffffffffffffffffffffffffffffffffffff160217905550614318826152c5565b5050565b60006016600083815260200190815260200160002060009054906101000a900473ffffffffffffffffffffffffffffffffffffffff169050600073ffffffffffffffffffffffffffffffffffffffff168173ffffffffffffffffffffffffffffffffffffffff1614156143c4576040517f08c379a00000000000000000000000000000000000000000000000000000000081526004016143bb9061642d565b60405180910390fd5b80600b60006101000a81548173ffffffffffffffffffffffffffffffffffffffff021916908373ffffffffffffffffffffffffffffffffffffffff16021790555061440e826152c5565b5050565b60006016600083815260200190815260200160002060009054906101000a900473ffffffffffffffffffffffffffffffffffffffff169050600073ffffffffffffffffffffffffffffffffffffffff168173ffffffffffffffffffffffffffffffffffffffff1614156144ba576040517f08c379a00000000000000000000000000000000000000000000000000000000081526004016144b19061642d565b60405180910390fd5b80601060006101000a81548173ffffffffffffffffffffffffffffffffffffffff021916908373ffffffffffffffffffffffffffffffffffffffff160217905550614504826152c5565b5050565b600160009054906101000a900473ffffffffffffffffffffffffffffffffffffffff1673ffffffffffffffffffffffffffffffffffffffff1663fe1fa8fa6040518163ffffffff1660e01b8152600401602060405180830381600087803b15801561457257600080fd5b505af1158015614586573d6000803e3d6000fd5b505050506040513d601f19601f820116820180604052508101906145aa91906159ad565b506145b4816152c5565b50565b60006015600083815260200190815260200160002060009054906101000a900463ffffffff16905060008163ffffffff161415614629576040517f08c379a00000000000000000000000000000000000000000000000000000000081526004016146209061630d565b60405180910390fd5b8063ffffffff1660038190555061463f826152c5565b5050565b60006015600083815260200190815260200160002060009054906101000a900463ffffffff16905060008163ffffffff1614156146b5576040517f08c379a00000000000000000000000000000000000000000000000000000000081526004016146ac9061630d565b60405180910390fd5b8063ffffffff166006819055506146cb826152c5565b5050565b6000601760008381526020019081526020016000206040518060400160405290816000820160009054906101000a900473ffffffffffffffffffffffffffffffffffffffff1673ffffffffffffffffffffffffffffffffffffffff1673ffffffffffffffffffffffffffffffffffffffff1681526020016001820154815250509050601060009054906101000a900473ffffffffffffffffffffffffffffffffffffffff1673ffffffffffffffffffffffffffffffffffffffff16637d458baa826020015183600001516040518363ffffffff1660e01b81526004016147b69291906164a5565b602060405180830381600087803b1580156147d057600080fd5b505af11580156147e4573d6000803e3d6000fd5b505050506040513d601f19601f820116820180604052508101906148089190615bf4565b50614812826152c5565b5050565b60006a0422ca8b0a00a4250000009050600160009054906101000a900473ffffffffffffffffffffffffffffffffffffffff1673ffffffffffffffffffffffffffffffffffffffff1663d01f6fba82600c60009054906101000a900473ffffffffffffffffffffffffffffffffffffffff166040518363ffffffff1660e01b81526004016148a59291906164a5565b600060405180830381600087803b1580156148bf57600080fd5b505af11580156148d3573d6000803e3d6000fd5b505050506148e0826152c5565b5050565b60006016600083815260200190815260200160002060009054906101000a900473ffffffffffffffffffffffffffffffffffffffff169050600c60009054906101000a900473ffffffffffffffffffffffffffffffffffffffff1673ffffffffffffffffffffffffffffffffffffffff16639cd99aa2826040518263ffffffff1660e01b815260040161497791906160f8565b602060405180830381600087803b15801561499157600080fd5b505af11580156149a5573d6000803e3d6000fd5b505050506040513d601f19601f820116820180604052508101906149c991906159ad565b506149d3826152c5565b5050565b60006016600083815260200190815260200160002060009054906101000a900473ffffffffffffffffffffffffffffffffffffffff169050600073ffffffffffffffffffffffffffffffffffffffff168173ffffffffffffffffffffffffffffffffffffffff161415614a7f576040517f08c379a0000000000000000000000000000000000000000000000000000000008152600401614a769061642d565b60405180910390fd5b600c60009054906101000a900473ffffffffffffffffffffffffffffffffffffffff1673ffffffffffffffffffffffffffffffffffffffff1663db634d7c826040518263ffffffff1660e01b8152600401614ada91906160f8565b602060405180830381600087803b158015614af457600080fd5b505af1158015614b08573d6000803e3d6000fd5b505050506040513d601f19601f82011682018060405250810190614b2c91906159ad565b50614b36826152c5565b5050565b60006016600083815260200190815260200160002060009054906101000a900473ffffffffffffffffffffffffffffffffffffffff169050600073ffffffffffffffffffffffffffffffffffffffff168173ffffffffffffffffffffffffffffffffffffffff161415614be2576040517f08c379a0000000000000000000000000000000000000000000000000000000008152600401614bd99061642d565b60405180910390fd5b600e60009054906101000a900473ffffffffffffffffffffffffffffffffffffffff1673ffffffffffffffffffffffffffffffffffffffff16632b2260a8826040518263ffffffff1660e01b8152600401614c3d91906160f8565b602060405180830381600087803b158015614c5757600080fd5b505af1158015614c6b573d6000803e3d6000fd5b505050506040513d601f19601f82011682018060405250810190614c8f91906159ad565b50614c99826152c5565b5050565b60006016600083815260200190815260200160002060009054906101000a900473ffffffffffffffffffffffffffffffffffffffff169050600073ffffffffffffffffffffffffffffffffffffffff168173ffffffffffffffffffffffffffffffffffffffff161415614d45576040517f08c379a0000000000000000000000000000000000000000000000000000000008152600401614d3c9061642d565b60405180910390fd5b600e60009054906101000a900473ffffffffffffffffffffffffffffffffffffffff1673ffffffffffffffffffffffffffffffffffffffff16637ca51fbf826040518263ffffffff1660e01b8152600401614da091906160f8565b602060405180830381600087803b158015614dba57600080fd5b505af1158015614dce573d6000803e3d6000fd5b505050506040513d601f19601f82011682018060405250810190614df291906159ad565b50614dfc826152c5565b5050565b60006015600083815260200190815260200160002060009054906101000a900463ffffffff1663ffffffff169050600a60009054906101000a900473ffffffffffffffffffffffffffffffffffffffff1673ffffffffffffffffffffffffffffffffffffffff1663ab87d7be826040518263ffffffff1660e01b8152600401614e89919061648a565b602060405180830381600087803b158015614ea357600080fd5b505af1158015614eb7573d6000803e3d6000fd5b505050506040513d601f19601f82011682018060405250810190614edb91906159ad565b50614ee5826152c5565b5050565b60006015600083815260200190815260200160002060009054906101000a900463ffffffff1663ffffffff169050600a60009054906101000a900473ffffffffffffffffffffffffffffffffffffffff1673ffffffffffffffffffffffffffffffffffffffff1663519fc9c9826040518263ffffffff1660e01b8152600401614f72919061648a565b602060405180830381600087803b158015614f8c57600080fd5b505af1158015614fa0573d6000803e3d6000fd5b505050506040513d601f19601f82011682018060405250810190614fc491906159ad565b50614fce826152c5565b5050565b6000601d600083815260200190815260200160002060003373ffffffffffffffffffffffffffffffffffffffff1673ffffffffffffffffffffffffffffffffffffffff168152602001908152602001600020546019600084815260200190815260200160002060008282546150479190616739565b92505081905550600d60009054906101000a900473ffffffffffffffffffffffffffffffffffffffff1673ffffffffffffffffffffffffffffffffffffffff16635364df49336040518263ffffffff1660e01b81526004016150a991906160f8565b60206040518083038186803b1580156150c157600080fd5b505afa1580156150d5573d6000803e3d6000fd5b505050506040513d601f19601f820116820180604052508101906150f99190615bf4565b90508060196000848152602001908152602001600020600082825461511e9190616658565b9250508190555080601d600084815260200190815260200160002060003373ffffffffffffffffffffffffffffffffffffffff1673ffffffffffffffffffffffffffffffffffffffff16815260200190815260200160002081905550919050565b600060186000838152602001908152602001600020805461519f9061698b565b80601f01602080910402602001604051908101604052809291908181526020018280546151cb9061698b565b80156152185780601f106151ed57610100808354040283529160200191615218565b820191906000526020600020905b8154815290600101906020018083116151fb57829003601f168201915b505050505090506001601b600084815260200190815260200160002060006101000a81548160ff02191690831515021790555042601a600084815260200190815260200160002081905550813373ffffffffffffffffffffffffffffffffffffffff167f0f36aea5066f9f90a999260fe4ce8d7713f7f07f5ae61bf36d73cc51170a3a9e600354426152aa9190616658565b846040516152b99291906164ce565b60405180910390a35050565b60006018600083815260200190815260200160002080546152e59061698b565b80601f01602080910402602001604051908101604052809291908181526020018280546153119061698b565b801561535e5780601f106153335761010080835404028352916020019161535e565b820191906000526020600020905b81548152906001019060200180831161534157829003601f168201915b50505050509050813373ffffffffffffffffffffffffffffffffffffffff167f28fca9bc3d4a734a707bd9396d50341c1f45e1d455c4aa4a58ceee0e09f645446019600086815260200190815260200160002054600d60009054906101000a900473ffffffffffffffffffffffffffffffffffffffff1673ffffffffffffffffffffffffffffffffffffffff166396c82e576040518163ffffffff1660e01b815260040160206040518083038186803b15801561541a57600080fd5b505afa15801561542e573d6000803e3d6000fd5b505050506040513d601f19601f820116820180604052508101906154529190615bf4565b85604051615462939291906164fe565b60405180910390a3600060196000848152602001908152602001600020819055506001601c600084815260200190815260200160002060006101000a81548160ff0219169083151502179055506000601b600084815260200190815260200160002060006101000a81548160ff0219169083151502179055505050565b8280546154eb9061698b565b90600052602060002090601f01602090048101928261550d5760008555615554565b82601f1061552657805160ff1916838001178555615554565b82800160010185558215615554579182015b82811115615553578251825591602001919060010190615538565b5b50905061556191906155f4565b5090565b6040518061010001604052806000815260200160608152602001600081526020016000815260200160001515815260200160001515815260200160008152602001600073ffffffffffffffffffffffffffffffffffffffff1681525090565b6040518060400160405280600073ffffffffffffffffffffffffffffffffffffffff168152602001600081525090565b5b8082111561560d5760008160009055506001016155f5565b5090565b600061562461561f846165b3565b61658e565b90508281526020810184848401111561563c57600080fd5b615647848285616949565b509392505050565b600061566261565d846165e4565b61658e565b90508281526020810184848401111561567a57600080fd5b615685848285616949565b509392505050565b60008135905061569c81616ca7565b92915050565b6000815190506156b181616cbe565b92915050565b6000815190506156c681616cd5565b92915050565b600082601f8301126156dd57600080fd5b81356156ed848260208601615611565b91505092915050565b60008151905061570581616cec565b92915050565b60008151905061571a81616d03565b92915050565b60008151905061572f81616d1a565b92915050565b60008151905061574481616d31565b92915050565b60008151905061575981616d48565b92915050565b60008151905061576e81616d5f565b92915050565b60008151905061578381616d76565b92915050565b600082601f83011261579a57600080fd5b81356157aa84826020860161564f565b91505092915050565b6000813590506157c281616d8d565b92915050565b6000815190506157d781616d8d565b92915050565b6000813590506157ec81616da4565b92915050565b60006020828403121561580457600080fd5b60006158128482850161568d565b91505092915050565b6000806040838503121561582e57600080fd5b600061583c8582860161568d565b925050602061584d8582860161568d565b9150509250929050565b600080600080600060a0868803121561586f57600080fd5b600061587d8882890161568d565b955050602061588e8882890161568d565b945050604061589f8882890161568d565b93505060606158b08882890161568d565b92505060806158c18882890161568d565b9150509295509295909350565b600080604083850312156158e157600080fd5b60006158ef8582860161568d565b925050602083013567ffffffffffffffff81111561590c57600080fd5b61591885828601615789565b9150509250929050565b6000806040838503121561593557600080fd5b60006159438582860161568d565b9250506020615954858286016157b3565b9150509250929050565b60008060006060848603121561597357600080fd5b60006159818682870161568d565b9350506020615992868287016157b3565b92505060406159a38682870161568d565b9150509250925092565b6000602082840312156159bf57600080fd5b60006159cd848285016156a2565b91505092915050565b6000602082840312156159e857600080fd5b60006159f6848285016156b7565b91505092915050565b60008060408385031215615a1257600080fd5b600083013567ffffffffffffffff811115615a2c57600080fd5b615a38858286016156cc565b925050602083013567ffffffffffffffff811115615a5557600080fd5b615a61858286016156cc565b9150509250929050565b600060208284031215615a7d57600080fd5b6000615a8b848285016156f6565b91505092915050565b600060208284031215615aa657600080fd5b6000615ab48482850161570b565b91505092915050565b600060208284031215615acf57600080fd5b6000615add84828501615720565b91505092915050565b600060208284031215615af857600080fd5b6000615b0684828501615735565b91505092915050565b600060208284031215615b2157600080fd5b6000615b2f8482850161574a565b91505092915050565b600060208284031215615b4a57600080fd5b6000615b588482850161575f565b91505092915050565b600060208284031215615b7357600080fd5b6000615b8184828501615774565b91505092915050565b600060208284031215615b9c57600080fd5b600082013567ffffffffffffffff811115615bb657600080fd5b615bc284828501615789565b91505092915050565b600060208284031215615bdd57600080fd5b6000615beb848285016157b3565b91505092915050565b600060208284031215615c0657600080fd5b6000615c14848285016157c8565b91505092915050565b60008060408385031215615c3057600080fd5b6000615c3e858286016157b3565b9250506020615c4f8582860161568d565b9150509250929050565b60008060408385031215615c6c57600080fd5b6000615c7a858286016157b3565b9250506020615c8b858286016157b3565b9150509250929050565b60008060408385031215615ca857600080fd5b6000615cb6858286016157dd565b925050602083013567ffffffffffffffff811115615cd357600080fd5b615cdf85828601615789565b9150509250929050565b615cf28161676d565b82525050565b615d018161676d565b82525050565b615d108161677f565b82525050565b615d1f8161677f565b82525050565b6000615d3082616615565b615d3a818561662b565b9350615d4a818560208601616958565b80840191505092915050565b615d5f8161684d565b82525050565b615d6e81616871565b82525050565b615d7d81616895565b82525050565b615d8c816168b9565b82525050565b615d9b816168dd565b82525050565b615daa81616901565b82525050565b615db981616925565b82525050565b6000615dca82616620565b615dd48185616636565b9350615de4818560208601616958565b615ded81616aaa565b840191505092915050565b6000615e0382616620565b615e0d8185616647565b9350615e1d818560208601616958565b615e2681616aaa565b840191505092915050565b6000615e3e600783616647565b9150615e4982616abb565b602082019050919050565b6000615e61600483616647565b9150615e6c82616ae4565b602082019050919050565b6000615e84601183616647565b9150615e8f82616b0d565b602082019050919050565b6000615ea7600a83616647565b9150615eb282616b36565b602082019050919050565b6000615eca600b83616647565b9150615ed582616b5f565b602082019050919050565b6000615eed600783616647565b9150615ef882616b88565b602082019050919050565b6000615f10600983616647565b9150615f1b82616bb1565b602082019050919050565b6000615f33600883616647565b9150615f3e82616bda565b602082019050919050565b6000615f56600583616647565b9150615f6182616c03565b602082019050919050565b6000615f79600983616647565b9150615f8482616c2c565b602082019050919050565b6000615f9c600983616647565b9150615fa782616c55565b602082019050919050565b6000615fbf601383616647565b9150615fca82616c7e565b602082019050919050565b604082016000820151615feb6000850182615ce9565b506020820151615ffe60208501826160b4565b50505050565b60006101008301600083015161601d60008601826160b4565b50602083015184820360208601526160358282615dbf565b915050604083015161604a60408601826160b4565b50606083015161605d60608601826160b4565b5060808301516160706080860182615d07565b5060a083015161608360a0860182615d07565b5060c083015161609660c08601826160b4565b5060e08301516160a960e0860182615ce9565b508091505092915050565b6160bd81616833565b82525050565b6160cc81616833565b82525050565b6160db8161683d565b82525050565b60006160ed8284615d25565b915081905092915050565b600060208201905061610d6000830184615cf8565b92915050565b60006040820190506161286000830185615cf8565b6161356020830184615cf8565b9392505050565b60006060820190506161516000830186615cf8565b61615e6020830185615cf8565b61616b60408301846160c3565b949350505050565b60006040820190506161886000830185615cf8565b61619560208301846160c3565b9392505050565b60006060820190506161b16000830186615cf8565b6161be60208301856160c3565b6161cb6040830184615cf8565b949350505050565b60006020820190506161e86000830184615d16565b92915050565b60006020820190506162036000830184615d56565b92915050565b600060208201905061621e6000830184615d65565b92915050565b60006020820190506162396000830184615d74565b92915050565b60006020820190506162546000830184615d83565b92915050565b600060208201905061626f6000830184615d92565b92915050565b600060208201905061628a6000830184615da1565b92915050565b60006020820190506162a56000830184615db0565b92915050565b600060208201905081810360008301526162c58184615df8565b905092915050565b600060208201905081810360008301526162e681615e31565b9050919050565b6000602082019050818103600083015261630681615e54565b9050919050565b6000602082019050818103600083015261632681615e77565b9050919050565b6000602082019050818103600083015261634681615e9a565b9050919050565b6000602082019050818103600083015261636681615ebd565b9050919050565b6000602082019050818103600083015261638681615ee0565b9050919050565b600060208201905081810360008301526163a681615f03565b9050919050565b600060208201905081810360008301526163c681615f26565b9050919050565b600060208201905081810360008301526163e681615f49565b9050919050565b6000602082019050818103600083015261640681615f6c565b9050919050565b6000602082019050818103600083015261642681615f8f565b9050919050565b6000602082019050818103600083015261644681615fb2565b9050919050565b60006040820190506164626000830184615fd5565b92915050565b600060208201905081810360008301526164828184616004565b905092915050565b600060208201905061649f60008301846160c3565b92915050565b60006040820190506164ba60008301856160c3565b6164c76020830184615cf8565b9392505050565b60006040820190506164e360008301856160c3565b81810360208301526164f58184615df8565b90509392505050565b600060608201905061651360008301866160c3565b61652060208301856160c3565b81810360408301526165328184615df8565b9050949350505050565b600060608201905061655160008301866160c3565b61655e60208301856160c3565b61656b60408301846160c3565b949350505050565b600060208201905061658860008301846160d2565b92915050565b60006165986165a9565b90506165a482826169bd565b919050565b6000604051905090565b600067ffffffffffffffff8211156165ce576165cd616a7b565b5b6165d782616aaa565b9050602081019050919050565b600067ffffffffffffffff8211156165ff576165fe616a7b565b5b61660882616aaa565b9050602081019050919050565b600081519050919050565b600081519050919050565b600081905092915050565b600082825260208201905092915050565b600082825260208201905092915050565b600061666382616833565b915061666e83616833565b9250827fffffffffffffffffffffffffffffffffffffffffffffffffffffffffffffffff038211156166a3576166a26169ee565b5b828201905092915050565b60006166b982616833565b91506166c483616833565b9250826166d4576166d3616a1d565b5b828204905092915050565b60006166ea82616833565b91506166f583616833565b9250817fffffffffffffffffffffffffffffffffffffffffffffffffffffffffffffffff048311821515161561672e5761672d6169ee565b5b828202905092915050565b600061674482616833565b915061674f83616833565b925082821015616762576167616169ee565b5b828203905092915050565b600061677882616813565b9050919050565b60008115159050919050565b6000819050919050565b60006167a08261676d565b9050919050565b60006167b28261676d565b9050919050565b60006167c48261676d565b9050919050565b60006167d68261676d565b9050919050565b60006167e88261676d565b9050919050565b60006167fa8261676d565b9050919050565b600061680c8261676d565b9050919050565b600073ffffffffffffffffffffffffffffffffffffffff82169050919050565b6000819050919050565b600063ffffffff82169050919050565b60006168588261685f565b9050919050565b600061686a82616813565b9050919050565b600061687c82616883565b9050919050565b600061688e82616813565b9050919050565b60006168a0826168a7565b9050919050565b60006168b282616813565b9050919050565b60006168c4826168cb565b9050919050565b60006168d682616813565b9050919050565b60006168e8826168ef565b9050919050565b60006168fa82616813565b9050919050565b600061690c82616913565b9050919050565b600061691e82616813565b9050919050565b600061693082616937565b9050919050565b600061694282616813565b9050919050565b82818337600083830152505050565b60005b8381101561697657808201518184015260208101905061695b565b83811115616985576000848401525b50505050565b600060028204905060018216806169a357607f821691505b602082108114156169b7576169b6616a4c565b5b50919050565b6169c682616aaa565b810181811067ffffffffffffffff821117156169e5576169e4616a7b565b5b80604052505050565b7f4e487b7100000000000000000000000000000000000000000000000000000000600052601160045260246000fd5b7f4e487b7100000000000000000000000000000000000000000000000000000000600052601260045260246000fd5b7f4e487b7100000000000000000000000000000000000000000000000000000000600052602260045260246000fd5b7f4e487b7100000000000000000000000000000000000000000000000000000000600052604160045260246000fd5b6000601f19601f8301169050919050565b7f21416d6f756e7400000000000000000000000000000000000000000000000000600082015250565b7f2166656500000000000000000000000000000000000000000000000000000000600082015250565b7f4e6f20706172616d2070726f706f736564000000000000000000000000000000600082015250565b7f21454d495353494f4e5300000000000000000000000000000000000000000000600082015250565b7f2166696e616c6973696e67000000000000000000000000000000000000000000600082015250565b7f216d656d62657200000000000000000000000000000000000000000000000000600082015250565b7f21636f6f6c206f66660000000000000000000000000000000000000000000000600082015250565b7f2143757261746564000000000000000000000000000000000000000000000000600082015250565b7f2173616d65000000000000000000000000000000000000000000000000000000600082015250565b7f217472616e736665720000000000000000000000000000000000000000000000600082015250565b7f216d696e6f726974790000000000000000000000000000000000000000000000600082015250565b7f4e6f20616464726573732070726f706f73656400000000000000000000000000600082015250565b616cb08161676d565b8114616cbb57600080fd5b50565b616cc78161677f565b8114616cd257600080fd5b50565b616cde8161678b565b8114616ce957600080fd5b50565b616cf581616795565b8114616d0057600080fd5b50565b616d0c816167a7565b8114616d1757600080fd5b50565b616d23816167b9565b8114616d2e57600080fd5b50565b616d3a816167cb565b8114616d4557600080fd5b50565b616d51816167dd565b8114616d5c57600080fd5b50565b616d68816167ef565b8114616d7357600080fd5b50565b616d7f81616801565b8114616d8a57600080fd5b50565b616d9681616833565b8114616da157600080fd5b50565b616dad8161683d565b8114616db857600080fd5b5056fea2646970667358221220a0cc0801c193747729b28640012aeaeea97a497db01ad5ad938deb1a17abd39f64736f6c63430008030033",
  "linkReferences": {},
  "deployedLinkReferences": {}
}