{
  "_format": "hh-sol-artifact-1",
  "contractName": "Dao",
  "sourceName": "contracts/Dao.sol",
  "abi": [
    {
      "inputs": [
        {
          "internalType": "address",
          "name": "_base",
          "type": "address"
        }
      ],
      "stateMutability": "nonpayable",
      "type": "constructor"
    },
    {
      "anonymous": false,
      "inputs": [
        {
          "indexed": true,
          "internalType": "address",
          "name": "member",
          "type": "address"
        },
        {
          "indexed": true,
          "internalType": "uint256",
          "name": "oldProposalID",
          "type": "uint256"
        },
        {
          "indexed": false,
          "internalType": "uint256",
          "name": "oldVotes",
          "type": "uint256"
        },
        {
          "indexed": false,
          "internalType": "uint256",
          "name": "newVotes",
          "type": "uint256"
        },
        {
          "indexed": false,
          "internalType": "uint256",
          "name": "totalWeight",
          "type": "uint256"
        }
      ],
      "name": "CancelProposal",
      "type": "event"
    },
    {
      "anonymous": false,
      "inputs": [
        {
          "indexed": true,
          "internalType": "address",
          "name": "DAO",
          "type": "address"
        },
        {
          "indexed": true,
          "internalType": "address",
          "name": "asset",
          "type": "address"
        }
      ],
      "name": "DelistedAsset",
      "type": "event"
    },
    {
      "anonymous": false,
      "inputs": [
        {
          "indexed": true,
          "internalType": "address",
          "name": "owner",
          "type": "address"
        },
        {
          "indexed": false,
          "internalType": "uint256",
          "name": "depositAmount",
          "type": "uint256"
        },
        {
          "indexed": false,
          "internalType": "uint256",
          "name": "bondedLP",
          "type": "uint256"
        }
      ],
      "name": "DepositAsset",
      "type": "event"
    },
    {
      "anonymous": false,
      "inputs": [
        {
          "indexed": true,
          "internalType": "address",
          "name": "member",
          "type": "address"
        },
        {
          "indexed": true,
          "internalType": "uint256",
          "name": "proposalID",
          "type": "uint256"
        },
        {
          "indexed": false,
          "internalType": "uint256",
          "name": "votesCast",
          "type": "uint256"
        },
        {
          "indexed": false,
          "internalType": "uint256",
          "name": "totalWeight",
          "type": "uint256"
        },
        {
          "indexed": false,
          "internalType": "string",
          "name": "proposalType",
          "type": "string"
        }
      ],
      "name": "FinalisedProposal",
      "type": "event"
    },
    {
      "anonymous": false,
      "inputs": [
        {
          "indexed": true,
          "internalType": "address",
          "name": "DAO",
          "type": "address"
        },
        {
          "indexed": true,
          "internalType": "address",
          "name": "asset",
          "type": "address"
        }
      ],
      "name": "ListedAsset",
      "type": "event"
    },
    {
      "anonymous": false,
      "inputs": [
        {
          "indexed": true,
          "internalType": "address",
          "name": "member",
          "type": "address"
        },
        {
          "indexed": true,
          "internalType": "address",
          "name": "pool",
          "type": "address"
        },
        {
          "indexed": false,
          "internalType": "uint256",
          "name": "amount",
          "type": "uint256"
        }
      ],
      "name": "MemberDeposits",
      "type": "event"
    },
    {
      "anonymous": false,
      "inputs": [
        {
          "indexed": true,
          "internalType": "address",
          "name": "member",
          "type": "address"
        },
        {
          "indexed": true,
          "internalType": "address",
          "name": "pool",
          "type": "address"
        },
        {
          "indexed": false,
          "internalType": "uint256",
          "name": "balance",
          "type": "uint256"
        }
      ],
      "name": "MemberWithdraws",
      "type": "event"
    },
    {
      "anonymous": false,
      "inputs": [
        {
          "indexed": true,
          "internalType": "address",
          "name": "member",
          "type": "address"
        },
        {
          "indexed": true,
          "internalType": "uint256",
          "name": "proposalID",
          "type": "uint256"
        },
        {
          "indexed": false,
          "internalType": "string",
          "name": "proposalType",
          "type": "string"
        }
      ],
      "name": "NewProposal",
      "type": "event"
    },
    {
      "anonymous": false,
      "inputs": [
        {
          "indexed": true,
          "internalType": "address",
          "name": "member",
          "type": "address"
        },
        {
          "indexed": true,
          "internalType": "uint256",
          "name": "proposalID",
          "type": "uint256"
        },
        {
          "indexed": false,
          "internalType": "uint256",
          "name": "voteWeight",
          "type": "uint256"
        },
        {
          "indexed": false,
          "internalType": "uint256",
          "name": "totalVotes",
          "type": "uint256"
        },
        {
          "indexed": false,
          "internalType": "string",
          "name": "proposalType",
          "type": "string"
        }
      ],
      "name": "NewVote",
      "type": "event"
    },
    {
      "anonymous": false,
      "inputs": [
        {
          "indexed": true,
          "internalType": "address",
          "name": "member",
          "type": "address"
        },
        {
          "indexed": true,
          "internalType": "uint256",
          "name": "proposalID",
          "type": "uint256"
        },
        {
          "indexed": false,
          "internalType": "uint256",
          "name": "timeFinalised",
          "type": "uint256"
        },
        {
          "indexed": false,
          "internalType": "string",
          "name": "proposalType",
          "type": "string"
        }
      ],
      "name": "ProposalFinalising",
      "type": "event"
    },
    {
      "anonymous": false,
      "inputs": [
        {
          "indexed": true,
          "internalType": "address",
          "name": "member",
          "type": "address"
        },
        {
          "indexed": true,
          "internalType": "uint256",
          "name": "proposalID",
          "type": "uint256"
        },
        {
          "indexed": false,
          "internalType": "uint256",
          "name": "voteWeight",
          "type": "uint256"
        },
        {
          "indexed": false,
          "internalType": "uint256",
          "name": "totalVotes",
          "type": "uint256"
        },
        {
          "indexed": false,
          "internalType": "string",
          "name": "proposalType",
          "type": "string"
        }
      ],
      "name": "RemovedVote",
      "type": "event"
    },
    {
      "inputs": [],
      "name": "BASE",
      "outputs": [
        {
          "internalType": "address",
          "name": "",
          "type": "address"
        }
      ],
      "stateMutability": "view",
      "type": "function"
    },
    {
      "inputs": [],
      "name": "BONDVAULT",
      "outputs": [
        {
          "internalType": "contract iBONDVAULT",
          "name": "",
          "type": "address"
        }
      ],
      "stateMutability": "view",
      "type": "function"
    },
    {
      "inputs": [],
      "name": "DAO",
      "outputs": [
        {
          "internalType": "address",
          "name": "",
          "type": "address"
        }
      ],
      "stateMutability": "view",
      "type": "function"
    },
    {
      "inputs": [],
      "name": "DAOVAULT",
      "outputs": [
        {
          "internalType": "contract iDAOVAULT",
          "name": "",
          "type": "address"
        }
      ],
      "stateMutability": "view",
      "type": "function"
    },
    {
      "inputs": [],
      "name": "DEPLOYER",
      "outputs": [
        {
          "internalType": "address",
          "name": "",
          "type": "address"
        }
      ],
      "stateMutability": "view",
      "type": "function"
    },
    {
      "inputs": [],
      "name": "POOLFACTORY",
      "outputs": [
        {
          "internalType": "contract iPOOLFACTORY",
          "name": "",
          "type": "address"
        }
      ],
      "stateMutability": "view",
      "type": "function"
    },
    {
      "inputs": [],
      "name": "RESERVE",
      "outputs": [
        {
          "internalType": "contract iRESERVE",
          "name": "",
          "type": "address"
        }
      ],
      "stateMutability": "view",
      "type": "function"
    },
    {
      "inputs": [],
      "name": "ROUTER",
      "outputs": [
        {
          "internalType": "contract iROUTER",
          "name": "",
          "type": "address"
        }
      ],
      "stateMutability": "view",
      "type": "function"
    },
    {
      "inputs": [],
      "name": "SYNTHFACTORY",
      "outputs": [
        {
          "internalType": "contract iSYNTHFACTORY",
          "name": "",
          "type": "address"
        }
      ],
      "stateMutability": "view",
      "type": "function"
    },
    {
      "inputs": [],
      "name": "SYNTHVAULT",
      "outputs": [
        {
          "internalType": "contract iSYNTHVAULT",
          "name": "",
          "type": "address"
        }
      ],
      "stateMutability": "view",
      "type": "function"
    },
    {
      "inputs": [],
      "name": "UTILS",
      "outputs": [
        {
          "internalType": "contract iUTILS",
          "name": "",
          "type": "address"
        }
      ],
      "stateMutability": "view",
      "type": "function"
    },
    {
      "inputs": [],
      "name": "allListedAssets",
      "outputs": [
        {
          "internalType": "address[]",
          "name": "_allListedAssets",
          "type": "address[]"
        }
      ],
      "stateMutability": "view",
      "type": "function"
    },
    {
      "inputs": [
        {
          "internalType": "uint256",
          "name": "",
          "type": "uint256"
        }
      ],
      "name": "arrayMembers",
      "outputs": [
        {
          "internalType": "address",
          "name": "",
          "type": "address"
        }
      ],
      "stateMutability": "view",
      "type": "function"
    },
    {
      "inputs": [],
      "name": "assetListedCount",
      "outputs": [
        {
          "internalType": "uint256",
          "name": "count",
          "type": "uint256"
        }
      ],
      "stateMutability": "view",
      "type": "function"
    },
    {
      "inputs": [
        {
          "internalType": "address",
          "name": "asset",
          "type": "address"
        },
        {
          "internalType": "uint256",
          "name": "amount",
          "type": "uint256"
        }
      ],
      "name": "bond",
      "outputs": [
        {
          "internalType": "bool",
          "name": "success",
          "type": "bool"
        }
      ],
      "stateMutability": "payable",
      "type": "function"
    },
    {
      "inputs": [],
      "name": "bondingPeriodSeconds",
      "outputs": [
        {
          "internalType": "uint256",
          "name": "",
          "type": "uint256"
        }
      ],
      "stateMutability": "view",
      "type": "function"
    },
    {
      "inputs": [],
      "name": "burnBalance",
      "outputs": [
        {
          "internalType": "bool",
          "name": "",
          "type": "bool"
        }
      ],
      "stateMutability": "nonpayable",
      "type": "function"
    },
    {
      "inputs": [
        {
          "internalType": "address",
          "name": "bondedMember",
          "type": "address"
        },
        {
          "internalType": "address",
          "name": "asset",
          "type": "address"
        }
      ],
      "name": "calcClaimBondedLP",
      "outputs": [
        {
          "internalType": "uint256",
          "name": "",
          "type": "uint256"
        }
      ],
      "stateMutability": "nonpayable",
      "type": "function"
    },
    {
      "inputs": [
        {
          "internalType": "address",
          "name": "member",
          "type": "address"
        }
      ],
      "name": "calcCurrentReward",
      "outputs": [
        {
          "internalType": "uint256",
          "name": "",
          "type": "uint256"
        }
      ],
      "stateMutability": "view",
      "type": "function"
    },
    {
      "inputs": [
        {
          "internalType": "address",
          "name": "member",
          "type": "address"
        }
      ],
      "name": "calcReward",
      "outputs": [
        {
          "internalType": "uint256",
          "name": "",
          "type": "uint256"
        }
      ],
      "stateMutability": "view",
      "type": "function"
    },
    {
      "inputs": [],
      "name": "cancelProposal",
      "outputs": [],
      "stateMutability": "nonpayable",
      "type": "function"
    },
    {
      "inputs": [
        {
          "internalType": "uint256",
          "name": "bondingSeconds",
          "type": "uint256"
        }
      ],
      "name": "changeBondingPeriod",
      "outputs": [],
      "stateMutability": "nonpayable",
      "type": "function"
    },
    {
      "inputs": [
        {
          "internalType": "address",
          "name": "member",
          "type": "address"
        }
      ],
      "name": "claimAllForMember",
      "outputs": [
        {
          "internalType": "bool",
          "name": "",
          "type": "bool"
        }
      ],
      "stateMutability": "nonpayable",
      "type": "function"
    },
    {
      "inputs": [
        {
          "internalType": "address",
          "name": "asset",
          "type": "address"
        }
      ],
      "name": "claimForMember",
      "outputs": [
        {
          "internalType": "bool",
          "name": "",
          "type": "bool"
        }
      ],
      "stateMutability": "nonpayable",
      "type": "function"
    },
    {
      "inputs": [],
      "name": "coolOffPeriod",
      "outputs": [
        {
          "internalType": "uint256",
          "name": "",
          "type": "uint256"
        }
      ],
      "stateMutability": "view",
      "type": "function"
    },
    {
      "inputs": [],
      "name": "currentProposal",
      "outputs": [
        {
          "internalType": "uint256",
          "name": "",
          "type": "uint256"
        }
      ],
      "stateMutability": "view",
      "type": "function"
    },
    {
      "inputs": [],
      "name": "daoClaim",
      "outputs": [
        {
          "internalType": "uint256",
          "name": "",
          "type": "uint256"
        }
      ],
      "stateMutability": "view",
      "type": "function"
    },
    {
      "inputs": [],
      "name": "daoFee",
      "outputs": [
        {
          "internalType": "uint256",
          "name": "",
          "type": "uint256"
        }
      ],
      "stateMutability": "view",
      "type": "function"
    },
    {
      "inputs": [],
      "name": "daoHasMoved",
      "outputs": [
        {
          "internalType": "bool",
          "name": "",
          "type": "bool"
        }
      ],
      "stateMutability": "view",
      "type": "function"
    },
    {
      "inputs": [
        {
          "internalType": "address",
          "name": "asset",
          "type": "address"
        }
      ],
      "name": "delistBondAsset",
      "outputs": [],
      "stateMutability": "nonpayable",
      "type": "function"
    },
    {
      "inputs": [
        {
          "internalType": "address",
          "name": "pool",
          "type": "address"
        },
        {
          "internalType": "uint256",
          "name": "amount",
          "type": "uint256"
        }
      ],
      "name": "deposit",
      "outputs": [],
      "stateMutability": "nonpayable",
      "type": "function"
    },
    {
      "inputs": [
        {
          "internalType": "address",
          "name": "pool",
          "type": "address"
        },
        {
          "internalType": "uint256",
          "name": "amount",
          "type": "uint256"
        },
        {
          "internalType": "address",
          "name": "member",
          "type": "address"
        }
      ],
      "name": "depositLPForMember",
      "outputs": [],
      "stateMutability": "nonpayable",
      "type": "function"
    },
    {
      "inputs": [],
      "name": "erasToEarn",
      "outputs": [
        {
          "internalType": "uint256",
          "name": "",
          "type": "uint256"
        }
      ],
      "stateMutability": "view",
      "type": "function"
    },
    {
      "inputs": [],
      "name": "finaliseProposal",
      "outputs": [],
      "stateMutability": "nonpayable",
      "type": "function"
    },
    {
      "inputs": [
        {
          "internalType": "uint256",
          "name": "proposalID",
          "type": "uint256"
        }
      ],
      "name": "getProposalDetails",
      "outputs": [
        {
          "components": [
            {
              "internalType": "uint256",
              "name": "id",
              "type": "uint256"
            },
            {
              "internalType": "string",
              "name": "proposalType",
              "type": "string"
            },
            {
              "internalType": "uint256",
              "name": "votes",
              "type": "uint256"
            },
            {
              "internalType": "uint256",
              "name": "coolOffTime",
              "type": "uint256"
            },
            {
              "internalType": "bool",
              "name": "finalising",
              "type": "bool"
            },
            {
              "internalType": "bool",
              "name": "finalised",
              "type": "bool"
            },
            {
              "internalType": "uint256",
              "name": "param",
              "type": "uint256"
            },
            {
              "internalType": "address",
              "name": "proposedAddress",
              "type": "address"
            },
            {
              "internalType": "bool",
              "name": "open",
              "type": "bool"
            },
            {
              "internalType": "uint256",
              "name": "startTime",
              "type": "uint256"
            }
          ],
          "internalType": "struct Dao.ProposalDetails",
          "name": "proposalDetails",
          "type": "tuple"
        }
      ],
      "stateMutability": "view",
      "type": "function"
    },
    {
      "inputs": [],
      "name": "harvest",
      "outputs": [],
      "stateMutability": "nonpayable",
      "type": "function"
    },
    {
      "inputs": [
        {
          "internalType": "uint256",
          "name": "_proposalID",
          "type": "uint256"
        }
      ],
      "name": "hasMajority",
      "outputs": [
        {
          "internalType": "bool",
          "name": "",
          "type": "bool"
        }
      ],
      "stateMutability": "view",
      "type": "function"
    },
    {
      "inputs": [
        {
          "internalType": "uint256",
          "name": "_proposalID",
          "type": "uint256"
        }
      ],
      "name": "hasMinority",
      "outputs": [
        {
          "internalType": "bool",
          "name": "",
          "type": "bool"
        }
      ],
      "stateMutability": "view",
      "type": "function"
    },
    {
      "inputs": [
        {
          "internalType": "uint256",
          "name": "_proposalID",
          "type": "uint256"
        }
      ],
      "name": "hasQuorum",
      "outputs": [
        {
          "internalType": "bool",
          "name": "",
          "type": "bool"
        }
      ],
      "stateMutability": "view",
      "type": "function"
    },
    {
      "inputs": [
        {
          "internalType": "address",
          "name": "",
          "type": "address"
        }
      ],
      "name": "isListed",
      "outputs": [
        {
          "internalType": "bool",
          "name": "",
          "type": "bool"
        }
      ],
      "stateMutability": "view",
      "type": "function"
    },
    {
      "inputs": [
        {
          "internalType": "address",
          "name": "",
          "type": "address"
        }
      ],
      "name": "isMember",
      "outputs": [
        {
          "internalType": "bool",
          "name": "",
          "type": "bool"
        }
      ],
      "stateMutability": "view",
      "type": "function"
    },
    {
      "inputs": [
        {
          "internalType": "address",
          "name": "asset",
          "type": "address"
        }
      ],
      "name": "listBondAsset",
      "outputs": [],
      "stateMutability": "nonpayable",
      "type": "function"
    },
    {
      "inputs": [],
      "name": "majorityFactor",
      "outputs": [
        {
          "internalType": "uint256",
          "name": "",
          "type": "uint256"
        }
      ],
      "stateMutability": "view",
      "type": "function"
    },
    {
      "inputs": [
        {
          "internalType": "address",
          "name": "",
          "type": "address"
        }
      ],
      "name": "mapMember_lastTime",
      "outputs": [
        {
          "internalType": "uint256",
          "name": "",
          "type": "uint256"
        }
      ],
      "stateMutability": "view",
      "type": "function"
    },
    {
      "inputs": [
        {
          "internalType": "uint256",
          "name": "",
          "type": "uint256"
        },
        {
          "internalType": "address",
          "name": "",
          "type": "address"
        }
      ],
      "name": "mapPIDMember_votes",
      "outputs": [
        {
          "internalType": "uint256",
          "name": "",
          "type": "uint256"
        }
      ],
      "stateMutability": "view",
      "type": "function"
    },
    {
      "inputs": [
        {
          "internalType": "uint256",
          "name": "",
          "type": "uint256"
        }
      ],
      "name": "mapPID_address",
      "outputs": [
        {
          "internalType": "address",
          "name": "",
          "type": "address"
        }
      ],
      "stateMutability": "view",
      "type": "function"
    },
    {
      "inputs": [
        {
          "internalType": "uint256",
          "name": "",
          "type": "uint256"
        }
      ],
      "name": "mapPID_coolOffTime",
      "outputs": [
        {
          "internalType": "uint256",
          "name": "",
          "type": "uint256"
        }
      ],
      "stateMutability": "view",
      "type": "function"
    },
    {
      "inputs": [
        {
          "internalType": "uint256",
          "name": "",
          "type": "uint256"
        }
      ],
      "name": "mapPID_finalised",
      "outputs": [
        {
          "internalType": "bool",
          "name": "",
          "type": "bool"
        }
      ],
      "stateMutability": "view",
      "type": "function"
    },
    {
      "inputs": [
        {
          "internalType": "uint256",
          "name": "",
          "type": "uint256"
        }
      ],
      "name": "mapPID_finalising",
      "outputs": [
        {
          "internalType": "bool",
          "name": "",
          "type": "bool"
        }
      ],
      "stateMutability": "view",
      "type": "function"
    },
    {
      "inputs": [
        {
          "internalType": "uint256",
          "name": "",
          "type": "uint256"
        }
      ],
      "name": "mapPID_open",
      "outputs": [
        {
          "internalType": "bool",
          "name": "",
          "type": "bool"
        }
      ],
      "stateMutability": "view",
      "type": "function"
    },
    {
      "inputs": [
        {
          "internalType": "uint256",
          "name": "",
          "type": "uint256"
        }
      ],
      "name": "mapPID_param",
      "outputs": [
        {
          "internalType": "uint256",
          "name": "",
          "type": "uint256"
        }
      ],
      "stateMutability": "view",
      "type": "function"
    },
    {
      "inputs": [
        {
          "internalType": "uint256",
          "name": "",
          "type": "uint256"
        }
      ],
      "name": "mapPID_startTime",
      "outputs": [
        {
          "internalType": "uint256",
          "name": "",
          "type": "uint256"
        }
      ],
      "stateMutability": "view",
      "type": "function"
    },
    {
      "inputs": [
        {
          "internalType": "uint256",
          "name": "",
          "type": "uint256"
        }
      ],
      "name": "mapPID_type",
      "outputs": [
        {
          "internalType": "string",
          "name": "",
          "type": "string"
        }
      ],
      "stateMutability": "view",
      "type": "function"
    },
    {
      "inputs": [
        {
          "internalType": "uint256",
          "name": "",
          "type": "uint256"
        }
      ],
      "name": "mapPID_votes",
      "outputs": [
        {
          "internalType": "uint256",
          "name": "",
          "type": "uint256"
        }
      ],
      "stateMutability": "view",
      "type": "function"
    },
    {
      "inputs": [],
      "name": "memberCount",
      "outputs": [
        {
          "internalType": "uint256",
          "name": "",
          "type": "uint256"
        }
      ],
      "stateMutability": "view",
      "type": "function"
    },
    {
      "inputs": [
        {
          "internalType": "address",
          "name": "newDAO",
          "type": "address"
        }
      ],
      "name": "moveBASEBalance",
      "outputs": [],
      "stateMutability": "nonpayable",
      "type": "function"
    },
    {
      "inputs": [
        {
          "internalType": "string",
          "name": "typeStr",
          "type": "string"
        }
      ],
      "name": "newActionProposal",
      "outputs": [
        {
          "internalType": "uint256",
          "name": "",
          "type": "uint256"
        }
      ],
      "stateMutability": "nonpayable",
      "type": "function"
    },
    {
      "inputs": [
        {
          "internalType": "address",
          "name": "proposedAddress",
          "type": "address"
        },
        {
          "internalType": "string",
          "name": "typeStr",
          "type": "string"
        }
      ],
      "name": "newAddressProposal",
      "outputs": [
        {
          "internalType": "uint256",
          "name": "",
          "type": "uint256"
        }
      ],
      "stateMutability": "nonpayable",
      "type": "function"
    },
    {
      "inputs": [
        {
          "internalType": "address",
          "name": "recipient",
          "type": "address"
        },
        {
          "internalType": "uint256",
          "name": "amount",
          "type": "uint256"
        }
      ],
      "name": "newGrantProposal",
      "outputs": [
        {
          "internalType": "uint256",
          "name": "",
          "type": "uint256"
        }
      ],
      "stateMutability": "nonpayable",
      "type": "function"
    },
    {
      "inputs": [
        {
          "internalType": "uint32",
          "name": "param",
          "type": "uint32"
        },
        {
          "internalType": "string",
          "name": "typeStr",
          "type": "string"
        }
      ],
      "name": "newParamProposal",
      "outputs": [
        {
          "internalType": "uint256",
          "name": "",
          "type": "uint256"
        }
      ],
      "stateMutability": "nonpayable",
      "type": "function"
    },
    {
      "inputs": [],
      "name": "proposalCount",
      "outputs": [
        {
          "internalType": "uint256",
          "name": "",
          "type": "uint256"
        }
      ],
      "stateMutability": "view",
      "type": "function"
    },
    {
      "inputs": [],
      "name": "purgeDeployer",
      "outputs": [],
      "stateMutability": "nonpayable",
      "type": "function"
    },
    {
      "inputs": [],
      "name": "removeVote",
      "outputs": [
        {
          "internalType": "uint256",
          "name": "voteWeightRemoved",
          "type": "uint256"
        }
      ],
      "stateMutability": "nonpayable",
      "type": "function"
    },
    {
      "inputs": [],
      "name": "secondsPerEra",
      "outputs": [
        {
          "internalType": "uint256",
          "name": "",
          "type": "uint256"
        }
      ],
      "stateMutability": "view",
      "type": "function"
    },
    {
      "inputs": [
        {
          "internalType": "address",
          "name": "_poolFactory",
          "type": "address"
        },
        {
          "internalType": "address",
          "name": "_synthFactory",
          "type": "address"
        }
      ],
      "name": "setFactoryAddresses",
      "outputs": [],
      "stateMutability": "nonpayable",
      "type": "function"
    },
    {
      "inputs": [
        {
          "internalType": "address",
          "name": "_router",
          "type": "address"
        },
        {
          "internalType": "address",
          "name": "_utils",
          "type": "address"
        },
        {
          "internalType": "address",
          "name": "_reserve",
          "type": "address"
        }
      ],
      "name": "setGenesisAddresses",
      "outputs": [],
      "stateMutability": "nonpayable",
      "type": "function"
    },
    {
      "inputs": [
        {
          "internalType": "uint32",
          "name": "_coolOff",
          "type": "uint32"
        },
        {
          "internalType": "uint32",
          "name": "_daysToEarn",
          "type": "uint32"
        },
        {
          "internalType": "uint32",
          "name": "_majorityFactor",
          "type": "uint32"
        },
        {
          "internalType": "uint32",
          "name": "_daoClaim",
          "type": "uint32"
        },
        {
          "internalType": "uint32",
          "name": "_daoFee",
          "type": "uint32"
        }
      ],
      "name": "setGenesisFactors",
      "outputs": [],
      "stateMutability": "nonpayable",
      "type": "function"
    },
    {
      "inputs": [
        {
          "internalType": "address",
          "name": "_daovault",
          "type": "address"
        },
        {
          "internalType": "address",
          "name": "_bondvault",
          "type": "address"
        },
        {
          "internalType": "address",
          "name": "_synthVault",
          "type": "address"
        }
      ],
      "name": "setVaultAddresses",
      "outputs": [],
      "stateMutability": "nonpayable",
      "type": "function"
    },
    {
      "inputs": [],
      "name": "voteProposal",
      "outputs": [
        {
          "internalType": "uint256",
          "name": "voteWeight",
          "type": "uint256"
        }
      ],
      "stateMutability": "nonpayable",
      "type": "function"
    },
    {
      "inputs": [
        {
          "internalType": "address",
          "name": "pool",
          "type": "address"
        }
      ],
      "name": "withdraw",
      "outputs": [],
      "stateMutability": "nonpayable",
      "type": "function"
    }
  ],
  "bytecode": "0x608060405262ed4e006015553480156200001857600080fd5b506040516200909a3803806200909a83398181016040528101906200003e919062000211565b80600160006101000a81548173ffffffffffffffffffffffffffffffffffffffff021916908373ffffffffffffffffffffffffffffffffffffffff160217905550336000806101000a81548173ffffffffffffffffffffffffffffffffffffffff021916908373ffffffffffffffffffffffffffffffffffffffff16021790555030600a60016101000a81548173ffffffffffffffffffffffffffffffffffffffff021916908373ffffffffffffffffffffffffffffffffffffffff1602179055506001600381905550601e600681905550611a0a6005819055506103e860078190555060646008819055506000600481905550600160009054906101000a900473ffffffffffffffffffffffffffffffffffffffff1673ffffffffffffffffffffffffffffffffffffffff16636b92a3b66040518163ffffffff1660e01b815260040160206040518083038186803b1580156200019b57600080fd5b505afa158015620001b0573d6000803e3d6000fd5b505050506040513d601f19601f82011682018060405250810190620001d691906200023d565b60028190555050620002db565b600081519050620001f481620002a7565b92915050565b6000815190506200020b81620002c1565b92915050565b6000602082840312156200022457600080fd5b60006200023484828501620001e3565b91505092915050565b6000602082840312156200025057600080fd5b60006200026084828501620001fa565b91505092915050565b600062000276826200027d565b9050919050565b600073ffffffffffffffffffffffffffffffffffffffff82169050919050565b6000819050919050565b620002b28162000269565b8114620002be57600080fd5b50565b620002cc816200029d565b8114620002d857600080fd5b50565b618daf80620002eb6000396000f3fe6080604052600436106104055760003560e01c80638351739a11610213578063b93ec54b11610123578063da35c664116100ab578063ec342ad01161007a578063ec342ad014611044578063f135dcf81461106f578063f38a2fa1146110ac578063f794062e146110e9578063f7a79a371461112657610405565b8063da35c66414610f76578063dab249b314610fa1578063db634d7c14610fde578063e248260c1461100757610405565b8063c05fc178116100f2578063c05fc17814610e57578063c1b8411a14610e94578063c42b3f7d14610ebf578063d0ad170914610efc578063d145836314610f3957610405565b8063b93ec54b14610d99578063b99b0a0c14610dc4578063bbf8cf8214610def578063bc68fad914610e2c57610405565b8063a230c524116101a6578063ab2bd8fd11610175578063ab2bd8fd14610cb4578063abb6154f14610ccb578063ae887c8b14610cf6578063af04598014610d33578063b826286914610d5c57610405565b8063a230c52414610bcd578063a299ecb214610c0a578063a515366a14610c47578063a6c83fed14610c7757610405565b8063956615be116101e2578063956615be14610b2357806398fabd3a14610b4e5780639cd99aa214610b795780639d2cc43614610ba257610405565b80638351739a14610a7b5780638601b9e614610aa65780638bebea8914610acf5780639070577f14610b0c57610405565b8063436f80be116103195780635c120b37116102a15780636b92a3b6116102705780636b92a3b61461099457806373758988146109bf57806379b2dc4c146109e85780637a8c72b514610a135780637b0e5c4514610a5057610405565b80635c120b37146108c65780635c7366d31461090357806365c71bbf1461094057806368bb97b31461096b57610405565b806347e7ef24116102e857806347e7ef24146107e357806349aa4ee21461080c5780634b4000341461083757806351cff8d914610874578063572cf9271461089d57610405565b8063436f80be1461072957806346350821146107665780634636279f1461078f5780634641257d146107cc57610405565b80632bee11941161039c57806332fe7b261161036b57806332fe7b261461062e57806335cb5fe01461065957806338da7dd6146106845780633a61738d146106af5780633b4d01a7146106ec57610405565b80632bee11941461055e5780632c07eebf1461059b5780632f7fa180146105c6578063314604fe146105f157610405565b8063293cee7d116103d8578063293cee7d146104a05780632957b839146104dd5780632ab24e49146105085780632b49d4251461053357610405565b806303a821381461040a57806311aee3801461042157806324efb5281461044c57806325a7f90814610477575b600080fd5b34801561041657600080fd5b5061041f611151565b005b34801561042d57600080fd5b506104366111ec565b6040516104439190618305565b60405180910390f35b34801561045857600080fd5b506104616111f9565b60405161046e919061800e565b60405180910390f35b34801561048357600080fd5b5061049e600480360381019061049991906176c8565b61120c565b005b3480156104ac57600080fd5b506104c760048036038101906104c29190617638565b6117f4565b6040516104d49190618305565b60405180910390f35b3480156104e957600080fd5b506104f26118e1565b6040516104ff9190618305565b60405180910390f35b34801561051457600080fd5b5061051d6118e7565b60405161052a91906180cb565b60405180910390f35b34801561053f57600080fd5b506105486119ce565b6040516105559190618305565b60405180910390f35b34801561056a57600080fd5b50610585600480360381019061058091906178f2565b6119d4565b604051610592919061800e565b60405180910390f35b3480156105a757600080fd5b506105b06119f4565b6040516105bd9190618305565b60405180910390f35b3480156105d257600080fd5b506105db6119fa565b6040516105e89190618029565b60405180910390f35b3480156105fd57600080fd5b50610618600480360381019061061391906178f2565b611ae1565b6040516106259190618305565b60405180910390f35b34801561063a57600080fd5b50610643611af9565b6040516106509190618095565b60405180910390f35b34801561066557600080fd5b5061066e611be0565b60405161067b9190617fec565b60405180910390f35b34801561069057600080fd5b50610699611c6e565b6040516106a69190618044565b60405180910390f35b3480156106bb57600080fd5b506106d660048036038101906106d19190617584565b611d55565b6040516106e39190618305565b60405180910390f35b3480156106f857600080fd5b50610713600480360381019061070e91906178f2565b6121bf565b60405161072091906182e3565b60405180910390f35b34801561073557600080fd5b50610750600480360381019061074b91906178f2565b6123eb565b60405161075d9190617f11565b60405180910390f35b34801561077257600080fd5b5061078d600480360381019061078891906175ad565b61242a565b005b34801561079b57600080fd5b506107b660048036038101906107b19190617584565b612508565b6040516107c39190618305565b60405180910390f35b3480156107d857600080fd5b506107e161261a565b005b3480156107ef57600080fd5b5061080a6004803603810190610805919061768c565b6128dc565b005b34801561081857600080fd5b506108216128eb565b60405161082e9190618305565b60405180910390f35b34801561084357600080fd5b5061085e600480360381019061085991906178f2565b612afe565b60405161086b919061800e565b60405180910390f35b34801561088057600080fd5b5061089b60048036038101906108969190617584565b612b1e565b005b3480156108a957600080fd5b506108c460048036038101906108bf91906179d4565b612c18565b005b3480156108d257600080fd5b506108ed60048036038101906108e891906178f2565b612cb8565b6040516108fa919061800e565b60405180910390f35b34801561090f57600080fd5b5061092a60048036038101906109259190617584565b612e5f565b6040516109379190618305565b60405180910390f35b34801561094c57600080fd5b50610955612e77565b6040516109629190618305565b60405180910390f35b34801561097757600080fd5b50610992600480360381019061098d9190617584565b612e7d565b005b3480156109a057600080fd5b506109a9613038565b6040516109b69190618305565b60405180910390f35b3480156109cb57600080fd5b506109e660048036038101906109e191906175e9565b61303e565b005b3480156109f457600080fd5b506109fd61315e565b604051610a0a9190618305565b60405180910390f35b348015610a1f57600080fd5b50610a3a6004803603810190610a359190617584565b613164565b604051610a47919061800e565b60405180910390f35b348015610a5c57600080fd5b50610a65613342565b604051610a7291906180e6565b60405180910390f35b348015610a8757600080fd5b50610a90613429565b604051610a9d9190618305565b60405180910390f35b348015610ab257600080fd5b50610acd6004803603810190610ac891906175e9565b613846565b005b348015610adb57600080fd5b50610af66004803603810190610af191906178f2565b613966565b604051610b03919061800e565b60405180910390f35b348015610b1857600080fd5b50610b21613985565b005b348015610b2f57600080fd5b50610b38613b52565b604051610b459190618305565b60405180910390f35b348015610b5a57600080fd5b50610b63613b58565b604051610b709190617f11565b60405180910390f35b348015610b8557600080fd5b50610ba06004803603810190610b9b9190617584565b613b7e565b005b348015610bae57600080fd5b50610bb7613d40565b604051610bc4919061807a565b60405180910390f35b348015610bd957600080fd5b50610bf46004803603810190610bef9190617584565b613e27565b604051610c01919061800e565b60405180910390f35b348015610c1657600080fd5b50610c316004803603810190610c2c91906178f2565b613e47565b604051610c3e9190618305565b60405180910390f35b610c616004803603810190610c5c919061768c565b613e5f565b604051610c6e919061800e565b60405180910390f35b348015610c8357600080fd5b50610c9e6004803603810190610c99919061768c565b6142f2565b604051610cab9190618305565b60405180910390f35b348015610cc057600080fd5b50610cc9614434565b005b348015610cd757600080fd5b50610ce0614a35565b604051610ced9190618305565b60405180910390f35b348015610d0257600080fd5b50610d1d6004803603810190610d1891906178f2565b614a3b565b604051610d2a9190617f11565b60405180910390f35b348015610d3f57600080fd5b50610d5a6004803603810190610d5591906178f2565b614a6e565b005b348015610d6857600080fd5b50610d836004803603810190610d7e91906178f2565b614ad0565b604051610d909190618305565b60405180910390f35b348015610da557600080fd5b50610dae614ae8565b604051610dbb91906180b0565b60405180910390f35b348015610dd057600080fd5b50610dd9614bcf565b604051610de6919061805f565b60405180910390f35b348015610dfb57600080fd5b50610e166004803603810190610e1191906178f2565b614cb6565b604051610e23919061800e565b60405180910390f35b348015610e3857600080fd5b50610e41614e4f565b604051610e4e919061800e565b60405180910390f35b348015610e6357600080fd5b50610e7e6004803603810190610e7991906178f2565b614fee565b604051610e8b9190618101565b60405180910390f35b348015610ea057600080fd5b50610ea961508e565b604051610eb69190617f11565b60405180910390f35b348015610ecb57600080fd5b50610ee66004803603810190610ee19190617944565b6150b2565b604051610ef39190618305565b60405180910390f35b348015610f0857600080fd5b50610f236004803603810190610f1e91906178f2565b6150d7565b604051610f30919061800e565b60405180910390f35b348015610f4557600080fd5b50610f606004803603810190610f5b91906178b1565b615270565b604051610f6d9190618305565b60405180910390f35b348015610f8257600080fd5b50610f8b615308565b604051610f989190618305565b60405180910390f35b348015610fad57600080fd5b50610fc86004803603810190610fc391906178f2565b61530e565b604051610fd59190618305565b60405180910390f35b348015610fea57600080fd5b5061100560048036038101906110009190617584565b615326565b005b34801561101357600080fd5b5061102e60048036038101906110299190617584565b615433565b60405161103b919061800e565b60405180910390f35b34801561105057600080fd5b506110596154e5565b6040516110669190617f11565b60405180910390f35b34801561107b57600080fd5b50611096600480360381019061109191906175ad565b61550b565b6040516110a39190618305565b60405180910390f35b3480156110b857600080fd5b506110d360048036038101906110ce9190617980565b6155c9565b6040516110e09190618305565b60405180910390f35b3480156110f557600080fd5b50611110600480360381019061110b9190617584565b615682565b60405161111d919061800e565b60405180910390f35b34801561113257600080fd5b5061113b6156a2565b6040516111489190618305565b60405180910390f35b60008054906101000a900473ffffffffffffffffffffffffffffffffffffffff1673ffffffffffffffffffffffffffffffffffffffff163373ffffffffffffffffffffffffffffffffffffffff16146111a957600080fd5b60008060006101000a81548173ffffffffffffffffffffffffffffffffffffffff021916908373ffffffffffffffffffffffffffffffffffffffff160217905550565b6000601380549050905090565b600a60009054906101000a900460ff1681565b60011515600f60009054906101000a900473ffffffffffffffffffffffffffffffffffffffff1673ffffffffffffffffffffffffffffffffffffffff16638dcb4c93856040518263ffffffff1660e01b815260040161126b9190617f11565b60206040518083038186803b15801561128357600080fd5b505afa158015611297573d6000803e3d6000fd5b505050506040513d601f19601f820116820180604052508101906112bb9190617717565b1515146112fd576040517f08c379a00000000000000000000000000000000000000000000000000000000081526004016112f490618203565b60405180910390fd5b60008211611340576040517f08c379a000000000000000000000000000000000000000000000000000000000815260040161133790618263565b60405180910390fd5b60011515601660008373ffffffffffffffffffffffffffffffffffffffff1673ffffffffffffffffffffffffffffffffffffffff16815260200190815260200160002060009054906101000a900460ff16151514611454576013819080600181540180825580915050600190039060005260206000200160009091909190916101000a81548173ffffffffffffffffffffffffffffffffffffffff021916908373ffffffffffffffffffffffffffffffffffffffff1602179055506001601660008373ffffffffffffffffffffffffffffffffffffffff1673ffffffffffffffffffffffffffffffffffffffff16815260200190815260200160002060006101000a81548160ff0219169083151502179055505b6000600d60009054906101000a900473ffffffffffffffffffffffffffffffffffffffff1673ffffffffffffffffffffffffffffffffffffffff16635364df49836040518263ffffffff1660e01b81526004016114b19190617f11565b60206040518083038186803b1580156114c957600080fd5b505afa1580156114dd573d6000803e3d6000fd5b505050506040513d601f19601f82011682018060405250810190611501919061791b565b600e60009054906101000a900473ffffffffffffffffffffffffffffffffffffffff1673ffffffffffffffffffffffffffffffffffffffff16635364df49846040518263ffffffff1660e01b815260040161155c9190617f11565b60206040518083038186803b15801561157457600080fd5b505afa158015611588573d6000803e3d6000fd5b505050506040513d601f19601f820116820180604052508101906115ac919061791b565b6115b6919061852e565b11156115c5576115c461261a565b5b8273ffffffffffffffffffffffffffffffffffffffff166323b872dd33600e60009054906101000a900473ffffffffffffffffffffffffffffffffffffffff16856040518463ffffffff1660e01b815260040161162493929190617f55565b602060405180830381600087803b15801561163e57600080fd5b505af1158015611652573d6000803e3d6000fd5b505050506040513d601f19601f820116820180604052508101906116769190617717565b6116b5576040517f08c379a00000000000000000000000000000000000000000000000000000000081526004016116ac906181e3565b60405180910390fd5b600e60009054906101000a900473ffffffffffffffffffffffffffffffffffffffff1673ffffffffffffffffffffffffffffffffffffffff166346dafa2f8484846040518463ffffffff1660e01b815260040161171493929190617fb5565b600060405180830381600087803b15801561172e57600080fd5b505af1158015611742573d6000803e3d6000fd5b5050505042601860008373ffffffffffffffffffffffffffffffffffffffff1673ffffffffffffffffffffffffffffffffffffffff168152602001908152602001600020819055508273ffffffffffffffffffffffffffffffffffffffff168173ffffffffffffffffffffffffffffffffffffffff167f5f9b5a75581a29d72b32414a5df7f1ef124b7787b38616fb8fdcad76179127c2846040516117e79190618305565b60405180910390a3505050565b60006117fe6156af565b611806615785565b5082601a6000600954815260200190815260200160002060006101000a81548173ffffffffffffffffffffffffffffffffffffffff021916908373ffffffffffffffffffffffffffffffffffffffff16021790555081601b6000600954815260200190815260200160002090805190602001906118849291906172e4565b506009543373ffffffffffffffffffffffffffffffffffffffff167f8d500fcad86fc64a281b94ef64d6d66acbfc6862aa4ff2ee5fbbfb40736e803e846040516118ce9190618101565b60405180910390a3600954905092915050565b60085481565b6000600a60009054906101000a900460ff16156119a557600a60019054906101000a900473ffffffffffffffffffffffffffffffffffffffff1673ffffffffffffffffffffffffffffffffffffffff16632ab24e496040518163ffffffff1660e01b815260040160206040518083038186803b15801561196657600080fd5b505afa15801561197a573d6000803e3d6000fd5b505050506040513d601f19601f8201168201806040525081019061199e919061785f565b90506119cb565b601260009054906101000a900473ffffffffffffffffffffffffffffffffffffffff1690505b90565b60095481565b601f6020528060005260406000206000915054906101000a900460ff1681565b60065481565b6000600a60009054906101000a900460ff1615611ab857600a60019054906101000a900473ffffffffffffffffffffffffffffffffffffffff1673ffffffffffffffffffffffffffffffffffffffff16632f7fa1806040518163ffffffff1660e01b815260040160206040518083038186803b158015611a7957600080fd5b505afa158015611a8d573d6000803e3d6000fd5b505050506040513d601f19601f82011682018060405250810190611ab19190617769565b9050611ade565b600d60009054906101000a900473ffffffffffffffffffffffffffffffffffffffff1690505b90565b60196020528060005260406000206000915090505481565b6000600a60009054906101000a900460ff1615611bb757600a60019054906101000a900473ffffffffffffffffffffffffffffffffffffffff1673ffffffffffffffffffffffffffffffffffffffff166332fe7b266040518163ffffffff1660e01b815260040160206040518083038186803b158015611b7857600080fd5b505afa158015611b8c573d6000803e3d6000fd5b505050506040513d601f19601f82011682018060405250810190611bb0919061780d565b9050611bdd565b600b60009054906101000a900473ffffffffffffffffffffffffffffffffffffffff1690505b90565b60606014805480602002602001604051908101604052809291908181526020018280548015611c6457602002820191906000526020600020905b8160009054906101000a900473ffffffffffffffffffffffffffffffffffffffff1673ffffffffffffffffffffffffffffffffffffffff1681526020019060010190808311611c1a575b5050505050905090565b6000600a60009054906101000a900460ff1615611d2c57600a60019054906101000a900473ffffffffffffffffffffffffffffffffffffffff1673ffffffffffffffffffffffffffffffffffffffff166338da7dd66040518163ffffffff1660e01b815260040160206040518083038186803b158015611ced57600080fd5b505afa158015611d01573d6000803e3d6000fd5b505050506040513d601f19601f82011682018060405250810190611d259190617792565b9050611d52565b600e60009054906101000a900473ffffffffffffffffffffffffffffffffffffffff1690505b90565b600080600d60009054906101000a900473ffffffffffffffffffffffffffffffffffffffff1673ffffffffffffffffffffffffffffffffffffffff16635364df49846040518263ffffffff1660e01b8152600401611db39190617f11565b60206040518083038186803b158015611dcb57600080fd5b505afa158015611ddf573d6000803e3d6000fd5b505050506040513d601f19601f82011682018060405250810190611e03919061791b565b600e60009054906101000a900473ffffffffffffffffffffffffffffffffffffffff1673ffffffffffffffffffffffffffffffffffffffff16635364df49856040518263ffffffff1660e01b8152600401611e5e9190617f11565b60206040518083038186803b158015611e7657600080fd5b505afa158015611e8a573d6000803e3d6000fd5b505050506040513d601f19601f82011682018060405250810190611eae919061791b565b611eb8919061852e565b90506000600d60009054906101000a900473ffffffffffffffffffffffffffffffffffffffff1673ffffffffffffffffffffffffffffffffffffffff166396c82e576040518163ffffffff1660e01b815260040160206040518083038186803b158015611f2457600080fd5b505afa158015611f38573d6000803e3d6000fd5b505050506040513d601f19601f82011682018060405250810190611f5c919061791b565b600e60009054906101000a900473ffffffffffffffffffffffffffffffffffffffff1673ffffffffffffffffffffffffffffffffffffffff166396c82e576040518163ffffffff1660e01b815260040160206040518083038186803b158015611fc457600080fd5b505afa158015611fd8573d6000803e3d6000fd5b505050506040513d601f19601f82011682018060405250810190611ffc919061791b565b612006919061852e565b90506000600654600160009054906101000a900473ffffffffffffffffffffffffffffffffffffffff1673ffffffffffffffffffffffffffffffffffffffff166370a08231601160009054906101000a900473ffffffffffffffffffffffffffffffffffffffff166040518263ffffffff1660e01b815260040161208a9190617f11565b60206040518083038186803b1580156120a257600080fd5b505afa1580156120b6573d6000803e3d6000fd5b505050506040513d601f19601f820116820180604052508101906120da919061791b565b6120e49190618584565b90506000612710600754836120f991906185b5565b6121039190618584565b9050600c60009054906101000a900473ffffffffffffffffffffffffffffffffffffffff1673ffffffffffffffffffffffffffffffffffffffff16631ba326c48585846040518463ffffffff1660e01b815260040161216493929190618425565b60206040518083038186803b15801561217c57600080fd5b505afa158015612190573d6000803e3d6000fd5b505050506040513d601f19601f820116820180604052508101906121b4919061791b565b945050505050919050565b6121c761736a565b81816000018181525050601b600083815260200190815260200160002080546121ef90618897565b80601f016020809104026020016040519081016040528092919081815260200182805461221b90618897565b80156122685780601f1061223d57610100808354040283529160200191612268565b820191906000526020600020905b81548152906001019060200180831161224b57829003601f168201915b50505050508160200181905250601c600083815260200190815260200160002054816040018181525050601d600083815260200190815260200160002054816060018181525050601e600083815260200190815260200160002060009054906101000a900460ff16816080019015159081151581525050601f600083815260200190815260200160002060009054906101000a900460ff168160a001901515908115158152505060196000838152602001908152602001600020548160c0018181525050601a600083815260200190815260200160002060009054906101000a900473ffffffffffffffffffffffffffffffffffffffff168160e0019073ffffffffffffffffffffffffffffffffffffffff16908173ffffffffffffffffffffffffffffffffffffffff16815250506020600083815260200190815260200160002060009054906101000a900460ff1681610100019015159081151581525050602160008381526020019081526020016000205481610120018181525050919050565b601381815481106123fb57600080fd5b906000526020600020016000915054906101000a900473ffffffffffffffffffffffffffffffffffffffff1681565b60008054906101000a900473ffffffffffffffffffffffffffffffffffffffff1673ffffffffffffffffffffffffffffffffffffffff163373ffffffffffffffffffffffffffffffffffffffff161461248257600080fd5b81600f60006101000a81548173ffffffffffffffffffffffffffffffffffffffff021916908373ffffffffffffffffffffffffffffffffffffffff16021790555080601060006101000a81548173ffffffffffffffffffffffffffffffffffffffff021916908373ffffffffffffffffffffffffffffffffffffffff1602179055505050565b6000601660008373ffffffffffffffffffffffffffffffffffffffff1673ffffffffffffffffffffffffffffffffffffffff16815260200190815260200160002060009054906101000a900460ff16612596576040517f08c379a000000000000000000000000000000000000000000000000000000000815260040161258d906181c3565b60405180910390fd5b6000601860008473ffffffffffffffffffffffffffffffffffffffff1673ffffffffffffffffffffffffffffffffffffffff16815260200190815260200160002054426125e3919061860f565b905060006125f084611d55565b90506000600254838361260391906185b5565b61260d9190618584565b9050809350505050919050565b601160009054906101000a900473ffffffffffffffffffffffffffffffffffffffff1673ffffffffffffffffffffffffffffffffffffffff16632267716c6040518163ffffffff1660e01b8152600401602060405180830381600087803b15801561268457600080fd5b505af1158015612698573d6000803e3d6000fd5b505050506040513d601f19601f820116820180604052508101906126bc9190617717565b6126fb576040517f08c379a00000000000000000000000000000000000000000000000000000000081526004016126f290618163565b60405180910390fd5b600061270633612508565b905042601860003373ffffffffffffffffffffffffffffffffffffffff1673ffffffffffffffffffffffffffffffffffffffff168152602001908152602001600020819055506000600160009054906101000a900473ffffffffffffffffffffffffffffffffffffffff1673ffffffffffffffffffffffffffffffffffffffff166370a08231601160009054906101000a900473ffffffffffffffffffffffffffffffffffffffff166040518263ffffffff1660e01b81526004016127cb9190617f11565b60206040518083038186803b1580156127e357600080fd5b505afa1580156127f7573d6000803e3d6000fd5b505050506040513d601f19601f8201168201806040525081019061281b919061791b565b905060006127106007548361283091906185b5565b61283a9190618584565b905080831115612848578092505b601160009054906101000a900473ffffffffffffffffffffffffffffffffffffffff1673ffffffffffffffffffffffffffffffffffffffff16637d458baa84336040518363ffffffff1660e01b81526004016128a5929190618320565b600060405180830381600087803b1580156128bf57600080fd5b505af11580156128d3573d6000803e3d6000fd5b50505050505050565b6128e782823361120c565b5050565b600080601b60006009548152602001908152602001600020805461290e90618897565b80601f016020809104026020016040519081016040528092919081815260200182805461293a90618897565b80156129875780601f1061295c57610100808354040283529160200191612987565b820191906000526020600020905b81548152906001019060200180831161296a57829003601f168201915b5050505050905060226000600954815260200190815260200160002060003373ffffffffffffffffffffffffffffffffffffffff1673ffffffffffffffffffffffffffffffffffffffff16815260200190815260200160002054915060206000600954815260200190815260200160002060009054906101000a900460ff1615612a385781601c600060095481526020019081526020016000206000828254612a30919061860f565b925050819055505b600060226000600954815260200190815260200160002060003373ffffffffffffffffffffffffffffffffffffffff1673ffffffffffffffffffffffffffffffffffffffff168152602001908152602001600020819055506009543373ffffffffffffffffffffffffffffffffffffffff167f70a6ab6ed794c2ceb8df59b7bb4e317e9b215d9ce74b88161ca5af2a5a801d6f84601c600060095481526020019081526020016000205485604051612af2939291906183e7565b60405180910390a35090565b601e6020528060005260406000206000915054906101000a900460ff1681565b612b266128eb565b50600e60009054906101000a900473ffffffffffffffffffffffffffffffffffffffff1673ffffffffffffffffffffffffffffffffffffffff1663f940e38582336040518363ffffffff1660e01b8152600401612b84929190617f2c565b602060405180830381600087803b158015612b9e57600080fd5b505af1158015612bb2573d6000803e3d6000fd5b505050506040513d601f19601f82011682018060405250810190612bd69190617717565b612c15576040517f08c379a0000000000000000000000000000000000000000000000000000000008152600401612c0c90618223565b60405180910390fd5b50565b60008054906101000a900473ffffffffffffffffffffffffffffffffffffffff1673ffffffffffffffffffffffffffffffffffffffff163373ffffffffffffffffffffffffffffffffffffffff1614612c7057600080fd5b8463ffffffff166003819055508363ffffffff166006819055508263ffffffff166005819055508163ffffffff166007819055508063ffffffff166008819055505050505050565b600080601c60008481526020019081526020016000205490506000600d60009054906101000a900473ffffffffffffffffffffffffffffffffffffffff1673ffffffffffffffffffffffffffffffffffffffff166396c82e576040518163ffffffff1660e01b815260040160206040518083038186803b158015612d3b57600080fd5b505afa158015612d4f573d6000803e3d6000fd5b505050506040513d601f19601f82011682018060405250810190612d73919061791b565b600e60009054906101000a900473ffffffffffffffffffffffffffffffffffffffff1673ffffffffffffffffffffffffffffffffffffffff166396c82e576040518163ffffffff1660e01b815260040160206040518083038186803b158015612ddb57600080fd5b505afa158015612def573d6000803e3d6000fd5b505050506040513d601f19601f82011682018060405250810190612e13919061791b565b612e1d919061852e565b9050600061271060055483612e3291906185b5565b612e3c9190618584565b905080831115612e525760019350505050612e5a565b600093505050505b919050565b60186020528060005260406000206000915090505481565b60155481565b60008054906101000a900473ffffffffffffffffffffffffffffffffffffffff1673ffffffffffffffffffffffffffffffffffffffff163373ffffffffffffffffffffffffffffffffffffffff1614612ed557600080fd5b6000600160009054906101000a900473ffffffffffffffffffffffffffffffffffffffff1673ffffffffffffffffffffffffffffffffffffffff166370a08231306040518263ffffffff1660e01b8152600401612f329190617f11565b60206040518083038186803b158015612f4a57600080fd5b505afa158015612f5e573d6000803e3d6000fd5b505050506040513d601f19601f82011682018060405250810190612f82919061791b565b9050600160009054906101000a900473ffffffffffffffffffffffffffffffffffffffff1673ffffffffffffffffffffffffffffffffffffffff1663a9059cbb83836040518363ffffffff1660e01b8152600401612fe1929190617f8c565b602060405180830381600087803b158015612ffb57600080fd5b505af115801561300f573d6000803e3d6000fd5b505050506040513d601f19601f820116820180604052508101906130339190617717565b505050565b60025481565b60008054906101000a900473ffffffffffffffffffffffffffffffffffffffff1673ffffffffffffffffffffffffffffffffffffffff163373ffffffffffffffffffffffffffffffffffffffff161461309657600080fd5b82600e60006101000a81548173ffffffffffffffffffffffffffffffffffffffff021916908373ffffffffffffffffffffffffffffffffffffffff16021790555081600d60006101000a81548173ffffffffffffffffffffffffffffffffffffffff021916908373ffffffffffffffffffffffffffffffffffffffff16021790555080601260006101000a81548173ffffffffffffffffffffffffffffffffffffffff021916908373ffffffffffffffffffffffffffffffffffffffff160217905550505050565b60075481565b60008060148054806020026020016040519081016040528092919081815260200182805480156131e957602002820191906000526020600020905b8160009054906101000a900473ffffffffffffffffffffffffffffffffffffffff1673ffffffffffffffffffffffffffffffffffffffff168152602001906001019080831161319f575b5050505050905060005b81518110156133375760006132488584848151811061323b577f4e487b7100000000000000000000000000000000000000000000000000000000600052603260045260246000fd5b602002602001015161550b565b9050600081111561332357600d60009054906101000a900473ffffffffffffffffffffffffffffffffffffffff1673ffffffffffffffffffffffffffffffffffffffff16635bc262be8484815181106132ca577f4e487b7100000000000000000000000000000000000000000000000000000000600052603260045260246000fd5b6020026020010151876040518363ffffffff1660e01b81526004016132f0929190617f2c565b600060405180830381600087803b15801561330a57600080fd5b505af115801561331e573d6000803e3d6000fd5b505050505b50808061332f906188fa565b9150506131f3565b506001915050919050565b6000600a60009054906101000a900460ff161561340057600a60019054906101000a900473ffffffffffffffffffffffffffffffffffffffff1673ffffffffffffffffffffffffffffffffffffffff16637b0e5c456040518163ffffffff1660e01b815260040160206040518083038186803b1580156133c157600080fd5b505afa1580156133d5573d6000803e3d6000fd5b505050506040513d601f19601f820116820180604052508101906133f99190617888565b9050613426565b600c60009054906101000a900473ffffffffffffffffffffffffffffffffffffffff1690505b90565b60006001151560206000600954815260200190815260200160002060009054906101000a900460ff16151514613494576040517f08c379a000000000000000000000000000000000000000000000000000000000815260040161348b906182a3565b60405180910390fd5b6000601b6000600954815260200190815260200160002080546134b690618897565b80601f01602080910402602001604051908101604052809291908181526020018280546134e290618897565b801561352f5780601f106135045761010080835404028352916020019161352f565b820191906000526020600020905b81548152906001019060200180831161351257829003601f168201915b5050505050905061353e6158ba565b915061354b600954614cb6565b801561357d575060001515601e6000600954815260200190815260200160002060009054906101000a900460ff161515145b156137d8576135c1816040518060400160405280600381526020017f44414f0000000000000000000000000000000000000000000000000000000000815250615b22565b806136075750613606816040518060400160405280600581526020017f5554494c53000000000000000000000000000000000000000000000000000000815250615b22565b5b8061364d575061364c816040518060400160405280600781526020017f5245534552564500000000000000000000000000000000000000000000000000815250615b22565b5b806136935750613692816040518060400160405280600a81526020017f4745545f53504152544100000000000000000000000000000000000000000000815250615b22565b5b806136d957506136d8816040518060400160405280600681526020017f524f555445520000000000000000000000000000000000000000000000000000815250615b22565b5b8061371f575061371e816040518060400160405280600981526020017f4c4953545f424f4e440000000000000000000000000000000000000000000000815250615b22565b5b806137655750613764816040518060400160405280600581526020017f4752414e54000000000000000000000000000000000000000000000000000000815250615b22565b5b806137ab57506137aa816040518060400160405280601081526020017f4144445f435552415445445f504f4f4c00000000000000000000000000000000815250615b22565b5b156137ce576137bb600954612cb8565b156137c9576137c8615bde565b5b6137d7565b6137d6615bde565b5b5b6009543373ffffffffffffffffffffffffffffffffffffffff167f4d46d88c7e981a5bf4572a83b5d88bcfefbd5ee6ca8df0588e27c4221a43640784601c60006009548152602001908152602001600020548560405161383a939291906183e7565b60405180910390a35090565b60008054906101000a900473ffffffffffffffffffffffffffffffffffffffff1673ffffffffffffffffffffffffffffffffffffffff163373ffffffffffffffffffffffffffffffffffffffff161461389e57600080fd5b82600b60006101000a81548173ffffffffffffffffffffffffffffffffffffffff021916908373ffffffffffffffffffffffffffffffffffffffff16021790555081600c60006101000a81548173ffffffffffffffffffffffffffffffffffffffff021916908373ffffffffffffffffffffffffffffffffffffffff16021790555080601160006101000a81548173ffffffffffffffffffffffffffffffffffffffff021916908373ffffffffffffffffffffffffffffffffffffffff160217905550505050565b602080528060005260406000206000915054906101000a900460ff1681565b610258602160006009548152602001908152602001600020546139a8919061852e565b42116139e9576040517f08c379a00000000000000000000000000000000000000000000000000000000081526004016139e0906182c3565b60405180910390fd5b6000601c6000600954815260200190815260200160002081905550600060206000600954815260200190815260200160002060006101000a81548160ff0219169083151502179055506009543373ffffffffffffffffffffffffffffffffffffffff167f0e67c2e72a9ea22e5d163549aebce99ddc3d1fbbc58e7ed196b0e88f458847d9601c6000600954815260200190815260200160002054601c6000600954815260200190815260200160002054600e60009054906101000a900473ffffffffffffffffffffffffffffffffffffffff1673ffffffffffffffffffffffffffffffffffffffff166396c82e576040518163ffffffff1660e01b815260040160206040518083038186803b158015613b0157600080fd5b505afa158015613b15573d6000803e3d6000fd5b505050506040513d601f19601f82011682018060405250810190613b39919061791b565b604051613b4893929190618425565b60405180910390a3565b60055481565b600a60019054906101000a900473ffffffffffffffffffffffffffffffffffffffff1681565b60008054906101000a900473ffffffffffffffffffffffffffffffffffffffff1673ffffffffffffffffffffffffffffffffffffffff163373ffffffffffffffffffffffffffffffffffffffff1614613bd657600080fd5b601760008273ffffffffffffffffffffffffffffffffffffffff1673ffffffffffffffffffffffffffffffffffffffff16815260200190815260200160002060009054906101000a900460ff16613ce3576001601760008373ffffffffffffffffffffffffffffffffffffffff1673ffffffffffffffffffffffffffffffffffffffff16815260200190815260200160002060006101000a81548160ff0219169083151502179055506014819080600181540180825580915050600190039060005260206000200160009091909190916101000a81548173ffffffffffffffffffffffffffffffffffffffff021916908373ffffffffffffffffffffffffffffffffffffffff1602179055505b8073ffffffffffffffffffffffffffffffffffffffff163373ffffffffffffffffffffffffffffffffffffffff167fa2c962e87fd75165c1496c9ea420ddb0231e124bf2625a77f828287c8050006860405160405180910390a350565b6000600a60009054906101000a900460ff1615613dfe57600a60019054906101000a900473ffffffffffffffffffffffffffffffffffffffff1673ffffffffffffffffffffffffffffffffffffffff16639d2cc4366040518163ffffffff1660e01b815260040160206040518083038186803b158015613dbf57600080fd5b505afa158015613dd3573d6000803e3d6000fd5b505050506040513d601f19601f82011682018060405250810190613df791906177e4565b9050613e24565b601160009054906101000a900473ffffffffffffffffffffffffffffffffffffffff1690505b90565b60166020528060005260406000206000915054906101000a900460ff1681565b601d6020528060005260406000206000915090505481565b6000808211613ea3576040517f08c379a0000000000000000000000000000000000000000000000000000000008152600401613e9a90618263565b60405180910390fd5b601760008473ffffffffffffffffffffffffffffffffffffffff1673ffffffffffffffffffffffffffffffffffffffff16815260200190815260200160002060009054906101000a900460ff16613f2f576040517f08c379a0000000000000000000000000000000000000000000000000000000008152600401613f2690618123565b60405180910390fd5b60011515601660003373ffffffffffffffffffffffffffffffffffffffff1673ffffffffffffffffffffffffffffffffffffffff16815260200190815260200160002060009054906101000a900460ff16151514614043576013339080600181540180825580915050600190039060005260206000200160009091909190916101000a81548173ffffffffffffffffffffffffffffffffffffffff021916908373ffffffffffffffffffffffffffffffffffffffff1602179055506001601660003373ffffffffffffffffffffffffffffffffffffffff1673ffffffffffffffffffffffffffffffffffffffff16815260200190815260200160002060006101000a81548160ff0219169083151502179055505b6000600d60009054906101000a900473ffffffffffffffffffffffffffffffffffffffff1673ffffffffffffffffffffffffffffffffffffffff16635364df49336040518263ffffffff1660e01b81526004016140a09190617f11565b60206040518083038186803b1580156140b857600080fd5b505afa1580156140cc573d6000803e3d6000fd5b505050506040513d601f19601f820116820180604052508101906140f0919061791b565b600e60009054906101000a900473ffffffffffffffffffffffffffffffffffffffff1673ffffffffffffffffffffffffffffffffffffffff16635364df49336040518263ffffffff1660e01b815260040161414b9190617f11565b60206040518083038186803b15801561416357600080fd5b505afa158015614177573d6000803e3d6000fd5b505050506040513d601f19601f8201168201806040525081019061419b919061791b565b6141a5919061852e565b11156141b4576141b361261a565b5b60006141c08484615d2b565b9050600d60009054906101000a900473ffffffffffffffffffffffffffffffffffffffff1673ffffffffffffffffffffffffffffffffffffffff1663bf58d0ef8533846040518463ffffffff1660e01b815260040161422193929190617f55565b600060405180830381600087803b15801561423b57600080fd5b505af115801561424f573d6000803e3d6000fd5b5050505042601860003373ffffffffffffffffffffffffffffffffffffffff1673ffffffffffffffffffffffffffffffffffffffff168152602001908152602001600020819055503373ffffffffffffffffffffffffffffffffffffffff167fe4dd259ab128527fe8b5fdae0b44bda8db95a4de10b999d63dce142b1eb88d5484836040516142df929190618379565b60405180910390a2600191505092915050565b60006142fc6156af565b614304615785565b5060006040518060400160405280600581526020017f4752414e54000000000000000000000000000000000000000000000000000000815250905080601b6000600954815260200190815260200160002090805190602001906143689291906172e4565b5083601a6000600954815260200190815260200160002060006101000a81548173ffffffffffffffffffffffffffffffffffffffff021916908373ffffffffffffffffffffffffffffffffffffffff16021790555082601960006009548152602001908152602001600020819055506009543373ffffffffffffffffffffffffffffffffffffffff167f8d500fcad86fc64a281b94ef64d6d66acbfc6862aa4ff2ee5fbbfb40736e803e836040516144209190618101565b60405180910390a360095491505092915050565b600354601d600060095481526020019081526020016000205442614458919061860f565b11614498576040517f08c379a000000000000000000000000000000000000000000000000000000000815260040161448f90618183565b60405180910390fd5b60011515601e6000600954815260200190815260200160002060009054906101000a900460ff16151514614501576040517f08c379a00000000000000000000000000000000000000000000000000000000081526004016144f8906181a3565b60405180910390fd5b61450c600954614cb6565b614543576000601e6000600954815260200190815260200160002060006101000a81548160ff021916908315150217905550614a33565b6000601b60006009548152602001908152602001600020805461456590618897565b80601f016020809104026020016040519081016040528092919081815260200182805461459190618897565b80156145de5780601f106145b3576101008083540402835291602001916145de565b820191906000526020600020905b8154815290600101906020018083116145c157829003601f168201915b50505050509050614624816040518060400160405280600381526020017f44414f0000000000000000000000000000000000000000000000000000000000815250615b22565b15614639576146346009546164d0565b614a31565b614678816040518060400160405280600681526020017f524f555445520000000000000000000000000000000000000000000000000000815250615b22565b1561468d5761468860095461666e565b614a30565b6146cc816040518060400160405280600581526020017f5554494c53000000000000000000000000000000000000000000000000000000815250615b22565b156146e1576146dc600954616764565b614a2f565b614720816040518060400160405280600781526020017f5245534552564500000000000000000000000000000000000000000000000000815250615b22565b156147355761473060095461685a565b614a2e565b614774816040518060400160405280600e81526020017f464c49505f454d495353494f4e53000000000000000000000000000000000000815250615b22565b1561478957614784600954616950565b614a2d565b6147c8816040518060400160405280600881526020017f434f4f4c5f4f4646000000000000000000000000000000000000000000000000815250615b22565b156147dd576147d86009546169de565b614a2c565b61481c816040518060400160405280600c81526020017f455241535f544f5f4541524e0000000000000000000000000000000000000000815250615b22565b156148315761482c600954616a4e565b614a2b565b614870816040518060400160405280600581526020017f4752414e54000000000000000000000000000000000000000000000000000000815250615b22565b1561488557614880600954616abe565b614a2a565b6148c4816040518060400160405280600a81526020017f4745545f53504152544100000000000000000000000000000000000000000000815250615b22565b156148d9576148d4600954616c5f565b614a29565b614918816040518060400160405280600981526020017f4c4953545f424f4e440000000000000000000000000000000000000000000000815250615b22565b1561492d57614928600954616d0b565b614a28565b61496c816040518060400160405280600b81526020017f44454c4953545f424f4e44000000000000000000000000000000000000000000815250615b22565b156149815761497c600954616e5d565b614a27565b6149c0816040518060400160405280601081526020017f4144445f435552415445445f504f4f4c00000000000000000000000000000000815250615b22565b156149d5576149d0600954616efa565b614a26565b614a14816040518060400160405280601381526020017f52454d4f56455f435552415445445f504f4f4c00000000000000000000000000815250615b22565b15614a2557614a24600954616fcc565b5b5b5b5b5b5b5b5b5b5b5b5b5b505b565b60035481565b601a6020528060005260406000206000915054906101000a900473ffffffffffffffffffffffffffffffffffffffff1681565b60008054906101000a900473ffffffffffffffffffffffffffffffffffffffff1673ffffffffffffffffffffffffffffffffffffffff163373ffffffffffffffffffffffffffffffffffffffff1614614ac657600080fd5b8060158190555050565b60216020528060005260406000206000915090505481565b6000600a60009054906101000a900460ff1615614ba657600a60019054906101000a900473ffffffffffffffffffffffffffffffffffffffff1673ffffffffffffffffffffffffffffffffffffffff1663b93ec54b6040518163ffffffff1660e01b815260040160206040518083038186803b158015614b6757600080fd5b505afa158015614b7b573d6000803e3d6000fd5b505050506040513d601f19601f82011682018060405250810190614b9f9190617836565b9050614bcc565b601060009054906101000a900473ffffffffffffffffffffffffffffffffffffffff1690505b90565b6000600a60009054906101000a900460ff1615614c8d57600a60019054906101000a900473ffffffffffffffffffffffffffffffffffffffff1673ffffffffffffffffffffffffffffffffffffffff1663b99b0a0c6040518163ffffffff1660e01b815260040160206040518083038186803b158015614c4e57600080fd5b505afa158015614c62573d6000803e3d6000fd5b505050506040513d601f19601f82011682018060405250810190614c8691906177bb565b9050614cb3565b600f60009054906101000a900473ffffffffffffffffffffffffffffffffffffffff1690505b90565b600080601c60008481526020019081526020016000205490506000600d60009054906101000a900473ffffffffffffffffffffffffffffffffffffffff1673ffffffffffffffffffffffffffffffffffffffff166396c82e576040518163ffffffff1660e01b815260040160206040518083038186803b158015614d3957600080fd5b505afa158015614d4d573d6000803e3d6000fd5b505050506040513d601f19601f82011682018060405250810190614d71919061791b565b600e60009054906101000a900473ffffffffffffffffffffffffffffffffffffffff1673ffffffffffffffffffffffffffffffffffffffff166396c82e576040518163ffffffff1660e01b815260040160206040518083038186803b158015614dd957600080fd5b505afa158015614ded573d6000803e3d6000fd5b505050506040513d601f19601f82011682018060405250810190614e11919061791b565b614e1b919061852e565b90506000600282614e2c9190618584565b905080831115614e425760019350505050614e4a565b600093505050505b919050565b60008060009054906101000a900473ffffffffffffffffffffffffffffffffffffffff1673ffffffffffffffffffffffffffffffffffffffff163373ffffffffffffffffffffffffffffffffffffffff1614614eaa57600080fd5b6000600160009054906101000a900473ffffffffffffffffffffffffffffffffffffffff1673ffffffffffffffffffffffffffffffffffffffff166370a08231306040518263ffffffff1660e01b8152600401614f079190617f11565b60206040518083038186803b158015614f1f57600080fd5b505afa158015614f33573d6000803e3d6000fd5b505050506040513d601f19601f82011682018060405250810190614f57919061791b565b9050600160009054906101000a900473ffffffffffffffffffffffffffffffffffffffff1673ffffffffffffffffffffffffffffffffffffffff166342966c68826040518263ffffffff1660e01b8152600401614fb49190618305565b600060405180830381600087803b158015614fce57600080fd5b505af1158015614fe2573d6000803e3d6000fd5b50505050600191505090565b601b602052806000526040600020600091509050805461500d90618897565b80601f016020809104026020016040519081016040528092919081815260200182805461503990618897565b80156150865780601f1061505b57610100808354040283529160200191615086565b820191906000526020600020905b81548152906001019060200180831161506957829003601f168201915b505050505081565b60008054906101000a900473ffffffffffffffffffffffffffffffffffffffff1681565b6022602052816000526040600020602052806000526040600020600091509150505481565b600080601c60008481526020019081526020016000205490506000600d60009054906101000a900473ffffffffffffffffffffffffffffffffffffffff1673ffffffffffffffffffffffffffffffffffffffff166396c82e576040518163ffffffff1660e01b815260040160206040518083038186803b15801561515a57600080fd5b505afa15801561516e573d6000803e3d6000fd5b505050506040513d601f19601f82011682018060405250810190615192919061791b565b600e60009054906101000a900473ffffffffffffffffffffffffffffffffffffffff1673ffffffffffffffffffffffffffffffffffffffff166396c82e576040518163ffffffff1660e01b815260040160206040518083038186803b1580156151fa57600080fd5b505afa15801561520e573d6000803e3d6000fd5b505050506040513d601f19601f82011682018060405250810190615232919061791b565b61523c919061852e565b9050600060068261524d9190618584565b905080831115615263576001935050505061526b565b600093505050505b919050565b600061527a6156af565b615282615785565b5081601b6000600954815260200190815260200160002090805190602001906152ac9291906172e4565b506009543373ffffffffffffffffffffffffffffffffffffffff167f8d500fcad86fc64a281b94ef64d6d66acbfc6862aa4ff2ee5fbbfb40736e803e846040516152f69190618101565b60405180910390a36009549050919050565b60045481565b601c6020528060005260406000206000915090505481565b60008054906101000a900473ffffffffffffffffffffffffffffffffffffffff1673ffffffffffffffffffffffffffffffffffffffff163373ffffffffffffffffffffffffffffffffffffffff161461537e57600080fd5b6000601760008373ffffffffffffffffffffffffffffffffffffffff1673ffffffffffffffffffffffffffffffffffffffff16815260200190815260200160002060006101000a81548160ff0219169083151502179055508073ffffffffffffffffffffffffffffffffffffffff163373ffffffffffffffffffffffffffffffffffffffff167ff487c2322baa448cfa506b983134d9dd9f27d0bbfe0b48119a3908d4f0dde89f60405160405180910390a350565b600080615440338461550b565b905060008111156154db57600d60009054906101000a900473ffffffffffffffffffffffffffffffffffffffff1673ffffffffffffffffffffffffffffffffffffffff16635bc262be84336040518363ffffffff1660e01b81526004016154a8929190617f2c565b600060405180830381600087803b1580156154c257600080fd5b505af11580156154d6573d6000803e3d6000fd5b505050505b6001915050919050565b600160009054906101000a900473ffffffffffffffffffffffffffffffffffffffff1681565b600080600d60009054906101000a900473ffffffffffffffffffffffffffffffffffffffff1673ffffffffffffffffffffffffffffffffffffffff1663ba0ba54f85856040518363ffffffff1660e01b815260040161556b929190617f2c565b602060405180830381600087803b15801561558557600080fd5b505af1158015615599573d6000803e3d6000fd5b505050506040513d601f19601f820116820180604052508101906155bd919061791b565b90508091505092915050565b60006155d36156af565b6155db615785565b508263ffffffff166019600060095481526020019081526020016000208190555081601b6000600954815260200190815260200160002090805190602001906156259291906172e4565b506009543373ffffffffffffffffffffffffffffffffffffffff167f8d500fcad86fc64a281b94ef64d6d66acbfc6862aa4ff2ee5fbbfb40736e803e8460405161566f9190618101565b60405180910390a3600954905092915050565b60176020528060005260406000206000915054906101000a900460ff1681565b6000601480549050905090565b6000151560206000600954815260200190815260200160002060009054906101000a900460ff16151514615718576040517f08c379a000000000000000000000000000000000000000000000000000000000815260040161570f906182a3565b60405180910390fd5b60016004600082825461572b919061852e565b92505081905550600454600981905550600160206000600954815260200190815260200160002060006101000a81548160ff0219169083151502179055504260216000600954815260200190815260200160002081905550565b600080670de0b6b3a764000060085461579e91906185b5565b9050600160009054906101000a900473ffffffffffffffffffffffffffffffffffffffff1673ffffffffffffffffffffffffffffffffffffffff166323b872dd33601160009054906101000a900473ffffffffffffffffffffffffffffffffffffffff16846040518463ffffffff1660e01b815260040161582193929190617f55565b602060405180830381600087803b15801561583b57600080fd5b505af115801561584f573d6000803e3d6000fd5b505050506040513d601f19601f820116820180604052508101906158739190617717565b6158b2576040517f08c379a00000000000000000000000000000000000000000000000000000000081526004016158a990618143565b60405180910390fd5b600191505090565b600060226000600954815260200190815260200160002060003373ffffffffffffffffffffffffffffffffffffffff1673ffffffffffffffffffffffffffffffffffffffff16815260200190815260200160002054601c600060095481526020019081526020016000206000828254615933919061860f565b92505081905550600d60009054906101000a900473ffffffffffffffffffffffffffffffffffffffff1673ffffffffffffffffffffffffffffffffffffffff16635364df49336040518263ffffffff1660e01b81526004016159959190617f11565b60206040518083038186803b1580156159ad57600080fd5b505afa1580156159c1573d6000803e3d6000fd5b505050506040513d601f19601f820116820180604052508101906159e5919061791b565b600e60009054906101000a900473ffffffffffffffffffffffffffffffffffffffff1673ffffffffffffffffffffffffffffffffffffffff16635364df49336040518263ffffffff1660e01b8152600401615a409190617f11565b60206040518083038186803b158015615a5857600080fd5b505afa158015615a6c573d6000803e3d6000fd5b505050506040513d601f19601f82011682018060405250810190615a90919061791b565b615a9a919061852e565b905080601c600060095481526020019081526020016000206000828254615ac1919061852e565b925050819055508060226000600954815260200190815260200160002060003373ffffffffffffffffffffffffffffffffffffffff1673ffffffffffffffffffffffffffffffffffffffff1681526020019081526020016000208190555090565b6000600282604051615b349190617efa565b602060405180830381855afa158015615b51573d6000803e3d6000fd5b5050506040513d601f19601f82011682018060405250810190615b749190617740565b600284604051615b849190617efa565b602060405180830381855afa158015615ba1573d6000803e3d6000fd5b5050506040513d601f19601f82011682018060405250810190615bc49190617740565b1415615bd35760019050615bd8565b600090505b92915050565b6000601b600060095481526020019081526020016000208054615c0090618897565b80601f0160208091040260200160405190810160405280929190818152602001828054615c2c90618897565b8015615c795780601f10615c4e57610100808354040283529160200191615c79565b820191906000526020600020905b815481529060010190602001808311615c5c57829003601f168201915b505050505090506001601e6000600954815260200190815260200160002060006101000a81548160ff02191690831515021790555042601d60006009548152602001908152602001600020819055506009543373ffffffffffffffffffffffffffffffffffffffff167f0f36aea5066f9f90a999260fe4ce8d7713f7f07f5ae61bf36d73cc51170a3a9e60035442615d11919061852e565b84604051615d20929190618349565b60405180910390a350565b600080600c60009054906101000a900473ffffffffffffffffffffffffffffffffffffffff1673ffffffffffffffffffffffffffffffffffffffff1663b80e44b885856040518363ffffffff1660e01b8152600401615d8b929190617f8c565b60206040518083038186803b158015615da357600080fd5b505afa158015615db7573d6000803e3d6000fd5b505050506040513d601f19601f82011682018060405250810190615ddb919061791b565b905080600160009054906101000a900473ffffffffffffffffffffffffffffffffffffffff1673ffffffffffffffffffffffffffffffffffffffff1663dd62ed3e30600b60009054906101000a900473ffffffffffffffffffffffffffffffffffffffff166040518363ffffffff1660e01b8152600401615e5d929190617f2c565b60206040518083038186803b158015615e7557600080fd5b505afa158015615e89573d6000803e3d6000fd5b505050506040513d601f19601f82011682018060405250810190615ead919061791b565b101561602557600160009054906101000a900473ffffffffffffffffffffffffffffffffffffffff1673ffffffffffffffffffffffffffffffffffffffff1663095ea7b3600b60009054906101000a900473ffffffffffffffffffffffffffffffffffffffff16600160009054906101000a900473ffffffffffffffffffffffffffffffffffffffff1673ffffffffffffffffffffffffffffffffffffffff166318160ddd6040518163ffffffff1660e01b815260040160206040518083038186803b158015615f7c57600080fd5b505afa158015615f90573d6000803e3d6000fd5b505050506040513d601f19601f82011682018060405250810190615fb4919061791b565b6040518363ffffffff1660e01b8152600401615fd1929190617f8c565b602060405180830381600087803b158015615feb57600080fd5b505af1158015615fff573d6000803e3d6000fd5b505050506040513d601f19601f820116820180604052508101906160239190617717565b505b600073ffffffffffffffffffffffffffffffffffffffff168473ffffffffffffffffffffffffffffffffffffffff1614156161795734831461609c576040517f08c379a000000000000000000000000000000000000000000000000000000000815260040161609390618263565b60405180910390fd5b600b60009054906101000a900473ffffffffffffffffffffffffffffffffffffffff1673ffffffffffffffffffffffffffffffffffffffff166393cac68584838688600d60009054906101000a900473ffffffffffffffffffffffffffffffffffffffff166040518663ffffffff1660e01b815260040161612094939291906183a2565b6020604051808303818588803b15801561613957600080fd5b505af115801561614d573d6000803e3d6000fd5b50505050506040513d601f19601f82011682018060405250810190616172919061791b565b91506164c9565b8373ffffffffffffffffffffffffffffffffffffffff166323b872dd3330866040518463ffffffff1660e01b81526004016161b693929190617f55565b602060405180830381600087803b1580156161d057600080fd5b505af11580156161e4573d6000803e3d6000fd5b505050506040513d601f19601f820116820180604052508101906162089190617717565b50828473ffffffffffffffffffffffffffffffffffffffff1663dd62ed3e30600b60009054906101000a900473ffffffffffffffffffffffffffffffffffffffff166040518363ffffffff1660e01b8152600401616267929190617f2c565b60206040518083038186803b15801561627f57600080fd5b505afa158015616293573d6000803e3d6000fd5b505050506040513d601f19601f820116820180604052508101906162b7919061791b565b10156163f15760008473ffffffffffffffffffffffffffffffffffffffff166318160ddd6040518163ffffffff1660e01b815260040160206040518083038186803b15801561630557600080fd5b505afa158015616319573d6000803e3d6000fd5b505050506040513d601f19601f8201168201806040525081019061633d919061791b565b90508473ffffffffffffffffffffffffffffffffffffffff1663095ea7b3600b60009054906101000a900473ffffffffffffffffffffffffffffffffffffffff16836040518363ffffffff1660e01b815260040161639c929190617f8c565b602060405180830381600087803b1580156163b657600080fd5b505af11580156163ca573d6000803e3d6000fd5b505050506040513d601f19601f820116820180604052508101906163ee9190617717565b50505b600b60009054906101000a900473ffffffffffffffffffffffffffffffffffffffff1673ffffffffffffffffffffffffffffffffffffffff166393cac685828587600d60009054906101000a900473ffffffffffffffffffffffffffffffffffffffff166040518563ffffffff1660e01b815260040161647494939291906183a2565b602060405180830381600087803b15801561648e57600080fd5b505af11580156164a2573d6000803e3d6000fd5b505050506040513d601f19601f820116820180604052508101906164c6919061791b565b91505b5092915050565b6000601a600083815260200190815260200160002060009054906101000a900473ffffffffffffffffffffffffffffffffffffffff169050600073ffffffffffffffffffffffffffffffffffffffff168173ffffffffffffffffffffffffffffffffffffffff161415616578576040517f08c379a000000000000000000000000000000000000000000000000000000000815260040161656f90618283565b60405180910390fd5b80600a60016101000a81548173ffffffffffffffffffffffffffffffffffffffff021916908373ffffffffffffffffffffffffffffffffffffffff160217905550600160009054906101000a900473ffffffffffffffffffffffffffffffffffffffff1673ffffffffffffffffffffffffffffffffffffffff16631d007f5f826040518263ffffffff1660e01b81526004016166149190617f11565b600060405180830381600087803b15801561662e57600080fd5b505af1158015616642573d6000803e3d6000fd5b505050506001600a60006101000a81548160ff02191690831515021790555061666a8261709e565b5050565b6000601a600083815260200190815260200160002060009054906101000a900473ffffffffffffffffffffffffffffffffffffffff169050600073ffffffffffffffffffffffffffffffffffffffff168173ffffffffffffffffffffffffffffffffffffffff161415616716576040517f08c379a000000000000000000000000000000000000000000000000000000000815260040161670d90618283565b60405180910390fd5b80600b60006101000a81548173ffffffffffffffffffffffffffffffffffffffff021916908373ffffffffffffffffffffffffffffffffffffffff1602179055506167608261709e565b5050565b6000601a600083815260200190815260200160002060009054906101000a900473ffffffffffffffffffffffffffffffffffffffff169050600073ffffffffffffffffffffffffffffffffffffffff168173ffffffffffffffffffffffffffffffffffffffff16141561680c576040517f08c379a000000000000000000000000000000000000000000000000000000000815260040161680390618283565b60405180910390fd5b80600c60006101000a81548173ffffffffffffffffffffffffffffffffffffffff021916908373ffffffffffffffffffffffffffffffffffffffff1602179055506168568261709e565b5050565b6000601a600083815260200190815260200160002060009054906101000a900473ffffffffffffffffffffffffffffffffffffffff169050600073ffffffffffffffffffffffffffffffffffffffff168173ffffffffffffffffffffffffffffffffffffffff161415616902576040517f08c379a00000000000000000000000000000000000000000000000000000000081526004016168f990618283565b60405180910390fd5b80601160006101000a81548173ffffffffffffffffffffffffffffffffffffffff021916908373ffffffffffffffffffffffffffffffffffffffff16021790555061694c8261709e565b5050565b600160009054906101000a900473ffffffffffffffffffffffffffffffffffffffff1673ffffffffffffffffffffffffffffffffffffffff1663fe1fa8fa6040518163ffffffff1660e01b8152600401600060405180830381600087803b1580156169ba57600080fd5b505af11580156169ce573d6000803e3d6000fd5b505050506169db8161709e565b50565b6000601960008381526020019081526020016000205490506000811415616a3a576040517f08c379a0000000000000000000000000000000000000000000000000000000008152600401616a3190618243565b60405180910390fd5b80600381905550616a4a8261709e565b5050565b6000601960008381526020019081526020016000205490506000811415616aaa576040517f08c379a0000000000000000000000000000000000000000000000000000000008152600401616aa190618243565b60405180910390fd5b80600681905550616aba8261709e565b5050565b6000601960008381526020019081526020016000205490506000601a600084815260200190815260200160002060009054906101000a900473ffffffffffffffffffffffffffffffffffffffff1690506000821415616b52576040517f08c379a0000000000000000000000000000000000000000000000000000000008152600401616b4990618243565b60405180910390fd5b600073ffffffffffffffffffffffffffffffffffffffff168173ffffffffffffffffffffffffffffffffffffffff161415616bc2576040517f08c379a0000000000000000000000000000000000000000000000000000000008152600401616bb990618283565b60405180910390fd5b601160009054906101000a900473ffffffffffffffffffffffffffffffffffffffff1673ffffffffffffffffffffffffffffffffffffffff16637d458baa83836040518363ffffffff1660e01b8152600401616c1f929190618320565b600060405180830381600087803b158015616c3957600080fd5b505af1158015616c4d573d6000803e3d6000fd5b50505050616c5a8361709e565b505050565b60006a02116545850052128000009050600160009054906101000a900473ffffffffffffffffffffffffffffffffffffffff1673ffffffffffffffffffffffffffffffffffffffff1663d01f6fba82306040518363ffffffff1660e01b8152600401616ccc929190618320565b600060405180830381600087803b158015616ce657600080fd5b505af1158015616cfa573d6000803e3d6000fd5b50505050616d078261709e565b5050565b6000601a600083815260200190815260200160002060009054906101000a900473ffffffffffffffffffffffffffffffffffffffff169050601760008273ffffffffffffffffffffffffffffffffffffffff1673ffffffffffffffffffffffffffffffffffffffff16815260200190815260200160002060009054906101000a900460ff16616e50576001601760008373ffffffffffffffffffffffffffffffffffffffff1673ffffffffffffffffffffffffffffffffffffffff16815260200190815260200160002060006101000a81548160ff0219169083151502179055506014819080600181540180825580915050600190039060005260206000200160009091909190916101000a81548173ffffffffffffffffffffffffffffffffffffffff021916908373ffffffffffffffffffffffffffffffffffffffff1602179055505b616e598261709e565b5050565b6000601a600083815260200190815260200160002060009054906101000a900473ffffffffffffffffffffffffffffffffffffffff1690506000601760008373ffffffffffffffffffffffffffffffffffffffff1673ffffffffffffffffffffffffffffffffffffffff16815260200190815260200160002060006101000a81548160ff021916908315150217905550616ef68261709e565b5050565b6000601a600083815260200190815260200160002060009054906101000a900473ffffffffffffffffffffffffffffffffffffffff169050600f60009054906101000a900473ffffffffffffffffffffffffffffffffffffffff1673ffffffffffffffffffffffffffffffffffffffff16632b2260a8826040518263ffffffff1660e01b8152600401616f8d9190617f11565b600060405180830381600087803b158015616fa757600080fd5b505af1158015616fbb573d6000803e3d6000fd5b50505050616fc88261709e565b5050565b6000601a600083815260200190815260200160002060009054906101000a900473ffffffffffffffffffffffffffffffffffffffff169050600f60009054906101000a900473ffffffffffffffffffffffffffffffffffffffff1673ffffffffffffffffffffffffffffffffffffffff16637ca51fbf826040518263ffffffff1660e01b815260040161705f9190617f11565b600060405180830381600087803b15801561707957600080fd5b505af115801561708d573d6000803e3d6000fd5b5050505061709a8261709e565b5050565b6000601b600083815260200190815260200160002080546170be90618897565b80601f01602080910402602001604051908101604052809291908181526020018280546170ea90618897565b80156171375780601f1061710c57610100808354040283529160200191617137565b820191906000526020600020905b81548152906001019060200180831161711a57829003601f168201915b50505050509050813373ffffffffffffffffffffffffffffffffffffffff167f28fca9bc3d4a734a707bd9396d50341c1f45e1d455c4aa4a58ceee0e09f64544601c600086815260200190815260200160002054600e60009054906101000a900473ffffffffffffffffffffffffffffffffffffffff1673ffffffffffffffffffffffffffffffffffffffff166396c82e576040518163ffffffff1660e01b815260040160206040518083038186803b1580156171f357600080fd5b505afa158015617207573d6000803e3d6000fd5b505050506040513d601f19601f8201168201806040525081019061722b919061791b565b8560405161723b939291906183e7565b60405180910390a36000601c6000848152602001908152602001600020819055506001601f600084815260200190815260200160002060006101000a81548160ff0219169083151502179055506000601e600084815260200190815260200160002060006101000a81548160ff02191690831515021790555060006020600084815260200190815260200160002060006101000a81548160ff0219169083151502179055505050565b8280546172f090618897565b90600052602060002090601f0160209004810192826173125760008555617359565b82601f1061732b57805160ff1916838001178555617359565b82800160010185558215617359579182015b8281111561735857825182559160200191906001019061733d565b5b50905061736691906173d9565b5090565b6040518061014001604052806000815260200160608152602001600081526020016000815260200160001515815260200160001515815260200160008152602001600073ffffffffffffffffffffffffffffffffffffffff168152602001600015158152602001600081525090565b5b808211156173f25760008160009055506001016173da565b5090565b600061740961740484618481565b61845c565b90508281526020810184848401111561742157600080fd5b61742c848285618855565b509392505050565b60008135905061744381618c4e565b92915050565b60008151905061745881618c65565b92915050565b60008151905061746d81618c7c565b92915050565b60008151905061748281618c93565b92915050565b60008151905061749781618caa565b92915050565b6000815190506174ac81618cc1565b92915050565b6000815190506174c181618cd8565b92915050565b6000815190506174d681618cef565b92915050565b6000815190506174eb81618d06565b92915050565b60008151905061750081618d1d565b92915050565b60008151905061751581618d34565b92915050565b600082601f83011261752c57600080fd5b813561753c8482602086016173f6565b91505092915050565b60008135905061755481618d4b565b92915050565b60008151905061756981618d4b565b92915050565b60008135905061757e81618d62565b92915050565b60006020828403121561759657600080fd5b60006175a484828501617434565b91505092915050565b600080604083850312156175c057600080fd5b60006175ce85828601617434565b92505060206175df85828601617434565b9150509250929050565b6000806000606084860312156175fe57600080fd5b600061760c86828701617434565b935050602061761d86828701617434565b925050604061762e86828701617434565b9150509250925092565b6000806040838503121561764b57600080fd5b600061765985828601617434565b925050602083013567ffffffffffffffff81111561767657600080fd5b6176828582860161751b565b9150509250929050565b6000806040838503121561769f57600080fd5b60006176ad85828601617434565b92505060206176be85828601617545565b9150509250929050565b6000806000606084860312156176dd57600080fd5b60006176eb86828701617434565b93505060206176fc86828701617545565b925050604061770d86828701617434565b9150509250925092565b60006020828403121561772957600080fd5b600061773784828501617449565b91505092915050565b60006020828403121561775257600080fd5b60006177608482850161745e565b91505092915050565b60006020828403121561777b57600080fd5b600061778984828501617473565b91505092915050565b6000602082840312156177a457600080fd5b60006177b284828501617488565b91505092915050565b6000602082840312156177cd57600080fd5b60006177db8482850161749d565b91505092915050565b6000602082840312156177f657600080fd5b6000617804848285016174b2565b91505092915050565b60006020828403121561781f57600080fd5b600061782d848285016174c7565b91505092915050565b60006020828403121561784857600080fd5b6000617856848285016174dc565b91505092915050565b60006020828403121561787157600080fd5b600061787f848285016174f1565b91505092915050565b60006020828403121561789a57600080fd5b60006178a884828501617506565b91505092915050565b6000602082840312156178c357600080fd5b600082013567ffffffffffffffff8111156178dd57600080fd5b6178e98482850161751b565b91505092915050565b60006020828403121561790457600080fd5b600061791284828501617545565b91505092915050565b60006020828403121561792d57600080fd5b600061793b8482850161755a565b91505092915050565b6000806040838503121561795757600080fd5b600061796585828601617545565b925050602061797685828601617434565b9150509250929050565b6000806040838503121561799357600080fd5b60006179a18582860161756f565b925050602083013567ffffffffffffffff8111156179be57600080fd5b6179ca8582860161751b565b9150509250929050565b600080600080600060a086880312156179ec57600080fd5b60006179fa8882890161756f565b9550506020617a0b8882890161756f565b9450506040617a1c8882890161756f565b9350506060617a2d8882890161756f565b9250506080617a3e8882890161756f565b9150509295509295909350565b6000617a578383617a63565b60208301905092915050565b617a6c81618643565b82525050565b617a7b81618643565b82525050565b6000617a8c826184c2565b617a9681856184f0565b9350617aa1836184b2565b8060005b83811015617ad2578151617ab98882617a4b565b9750617ac4836184e3565b925050600181019050617aa5565b5085935050505092915050565b617ae881618655565b82525050565b617af781618655565b82525050565b6000617b08826184cd565b617b128185618501565b9350617b22818560208601618864565b80840191505092915050565b617b3781618735565b82525050565b617b4681618759565b82525050565b617b558161877d565b82525050565b617b64816187a1565b82525050565b617b73816187c5565b82525050565b617b82816187e9565b82525050565b617b918161880d565b82525050565b617ba081618831565b82525050565b6000617bb1826184d8565b617bbb818561850c565b9350617bcb818560208601618864565b617bd4816189ff565b840191505092915050565b6000617bea826184d8565b617bf4818561851d565b9350617c04818560208601618864565b617c0d816189ff565b840191505092915050565b6000617c2560078361851d565b9150617c3082618a10565b602082019050919050565b6000617c4860048361851d565b9150617c5382618a39565b602082019050919050565b6000617c6b600a8361851d565b9150617c7682618a62565b602082019050919050565b6000617c8e60088361851d565b9150617c9982618a8b565b602082019050919050565b6000617cb1600b8361851d565b9150617cbc82618ab4565b602082019050919050565b6000617cd460078361851d565b9150617cdf82618add565b602082019050919050565b6000617cf760068361851d565b9150617d0282618b06565b602082019050919050565b6000617d1a60088361851d565b9150617d2582618b2f565b602082019050919050565b6000617d3d60098361851d565b9150617d4882618b58565b602082019050919050565b6000617d6060068361851d565b9150617d6b82618b81565b602082019050919050565b6000617d8360078361851d565b9150617d8e82618baa565b602082019050919050565b6000617da660088361851d565b9150617db182618bd3565b602082019050919050565b6000617dc960058361851d565b9150617dd482618bfc565b602082019050919050565b6000617dec60058361851d565b9150617df782618c25565b602082019050919050565b600061014083016000830151617e1b6000860182617edc565b5060208301518482036020860152617e338282617ba6565b9150506040830151617e486040860182617edc565b506060830151617e5b6060860182617edc565b506080830151617e6e6080860182617adf565b5060a0830151617e8160a0860182617adf565b5060c0830151617e9460c0860182617edc565b5060e0830151617ea760e0860182617a63565b50610100830151617ebc610100860182617adf565b50610120830151617ed1610120860182617edc565b508091505092915050565b617ee58161871b565b82525050565b617ef48161871b565b82525050565b6000617f068284617afd565b915081905092915050565b6000602082019050617f266000830184617a72565b92915050565b6000604082019050617f416000830185617a72565b617f4e6020830184617a72565b9392505050565b6000606082019050617f6a6000830186617a72565b617f776020830185617a72565b617f846040830184617eeb565b949350505050565b6000604082019050617fa16000830185617a72565b617fae6020830184617eeb565b9392505050565b6000606082019050617fca6000830186617a72565b617fd76020830185617eeb565b617fe46040830184617a72565b949350505050565b600060208201905081810360008301526180068184617a81565b905092915050565b60006020820190506180236000830184617aee565b92915050565b600060208201905061803e6000830184617b2e565b92915050565b60006020820190506180596000830184617b3d565b92915050565b60006020820190506180746000830184617b4c565b92915050565b600060208201905061808f6000830184617b5b565b92915050565b60006020820190506180aa6000830184617b6a565b92915050565b60006020820190506180c56000830184617b79565b92915050565b60006020820190506180e06000830184617b88565b92915050565b60006020820190506180fb6000830184617b97565b92915050565b6000602082019050818103600083015261811b8184617bdf565b905092915050565b6000602082019050818103600083015261813c81617c18565b9050919050565b6000602082019050818103600083015261815c81617c3b565b9050919050565b6000602082019050818103600083015261817c81617c5e565b9050919050565b6000602082019050818103600083015261819c81617c81565b9050919050565b600060208201905081810360008301526181bc81617ca4565b9050919050565b600060208201905081810360008301526181dc81617cc7565b9050919050565b600060208201905081810360008301526181fc81617cea565b9050919050565b6000602082019050818103600083015261821c81617d0d565b9050919050565b6000602082019050818103600083015261823c81617d30565b9050919050565b6000602082019050818103600083015261825c81617d53565b9050919050565b6000602082019050818103600083015261827c81617d76565b9050919050565b6000602082019050818103600083015261829c81617d99565b9050919050565b600060208201905081810360008301526182bc81617dbc565b9050919050565b600060208201905081810360008301526182dc81617ddf565b9050919050565b600060208201905081810360008301526182fd8184617e02565b905092915050565b600060208201905061831a6000830184617eeb565b92915050565b60006040820190506183356000830185617eeb565b6183426020830184617a72565b9392505050565b600060408201905061835e6000830185617eeb565b81810360208301526183708184617bdf565b90509392505050565b600060408201905061838e6000830185617eeb565b61839b6020830184617eeb565b9392505050565b60006080820190506183b76000830187617eeb565b6183c46020830186617eeb565b6183d16040830185617a72565b6183de6060830184617a72565b95945050505050565b60006060820190506183fc6000830186617eeb565b6184096020830185617eeb565b818103604083015261841b8184617bdf565b9050949350505050565b600060608201905061843a6000830186617eeb565b6184476020830185617eeb565b6184546040830184617eeb565b949350505050565b6000618466618477565b905061847282826188c9565b919050565b6000604051905090565b600067ffffffffffffffff82111561849c5761849b6189d0565b5b6184a5826189ff565b9050602081019050919050565b6000819050602082019050919050565b600081519050919050565b600081519050919050565b600081519050919050565b6000602082019050919050565b600082825260208201905092915050565b600081905092915050565b600082825260208201905092915050565b600082825260208201905092915050565b60006185398261871b565b91506185448361871b565b9250827fffffffffffffffffffffffffffffffffffffffffffffffffffffffffffffffff0382111561857957618578618943565b5b828201905092915050565b600061858f8261871b565b915061859a8361871b565b9250826185aa576185a9618972565b5b828204905092915050565b60006185c08261871b565b91506185cb8361871b565b9250817fffffffffffffffffffffffffffffffffffffffffffffffffffffffffffffffff048311821515161561860457618603618943565b5b828202905092915050565b600061861a8261871b565b91506186258361871b565b92508282101561863857618637618943565b5b828203905092915050565b600061864e826186fb565b9050919050565b60008115159050919050565b6000819050919050565b600061867682618643565b9050919050565b600061868882618643565b9050919050565b600061869a82618643565b9050919050565b60006186ac82618643565b9050919050565b60006186be82618643565b9050919050565b60006186d082618643565b9050919050565b60006186e282618643565b9050919050565b60006186f482618643565b9050919050565b600073ffffffffffffffffffffffffffffffffffffffff82169050919050565b6000819050919050565b600063ffffffff82169050919050565b600061874082618747565b9050919050565b6000618752826186fb565b9050919050565b60006187648261876b565b9050919050565b6000618776826186fb565b9050919050565b60006187888261878f565b9050919050565b600061879a826186fb565b9050919050565b60006187ac826187b3565b9050919050565b60006187be826186fb565b9050919050565b60006187d0826187d7565b9050919050565b60006187e2826186fb565b9050919050565b60006187f4826187fb565b9050919050565b6000618806826186fb565b9050919050565b60006188188261881f565b9050919050565b600061882a826186fb565b9050919050565b600061883c82618843565b9050919050565b600061884e826186fb565b9050919050565b82818337600083830152505050565b60005b83811015618882578082015181840152602081019050618867565b83811115618891576000848401525b50505050565b600060028204905060018216806188af57607f821691505b602082108114156188c3576188c26189a1565b5b50919050565b6188d2826189ff565b810181811067ffffffffffffffff821117156188f1576188f06189d0565b5b80604052505050565b60006189058261871b565b91507fffffffffffffffffffffffffffffffffffffffffffffffffffffffffffffffff82141561893857618937618943565b5b600182019050919050565b7f4e487b7100000000000000000000000000000000000000000000000000000000600052601160045260246000fd5b7f4e487b7100000000000000000000000000000000000000000000000000000000600052601260045260246000fd5b7f4e487b7100000000000000000000000000000000000000000000000000000000600052602260045260246000fd5b7f4e487b7100000000000000000000000000000000000000000000000000000000600052604160045260246000fd5b6000601f19601f8301169050919050565b7f216c697374656400000000000000000000000000000000000000000000000000600082015250565b7f2166656500000000000000000000000000000000000000000000000000000000600082015250565b7f21656d697373696f6e7300000000000000000000000000000000000000000000600082015250565b7f21636f6f6c6f6666000000000000000000000000000000000000000000000000600082015250565b7f2166696e616c6973696e67000000000000000000000000000000000000000000600082015250565b7f216d656d62657200000000000000000000000000000000000000000000000000600082015250565b7f2166756e64730000000000000000000000000000000000000000000000000000600082015250565b7f2163757261746564000000000000000000000000000000000000000000000000600082015250565b7f217472616e736665720000000000000000000000000000000000000000000000600082015250565b7f21706172616d0000000000000000000000000000000000000000000000000000600082015250565b7f21616d6f756e7400000000000000000000000000000000000000000000000000600082015250565b7f2161646472657373000000000000000000000000000000000000000000000000600082015250565b7f216f70656e000000000000000000000000000000000000000000000000000000600082015250565b7f2164617973000000000000000000000000000000000000000000000000000000600082015250565b618c5781618643565b8114618c6257600080fd5b50565b618c6e81618655565b8114618c7957600080fd5b50565b618c8581618661565b8114618c9057600080fd5b50565b618c9c8161866b565b8114618ca757600080fd5b50565b618cb38161867d565b8114618cbe57600080fd5b50565b618cca8161868f565b8114618cd557600080fd5b50565b618ce1816186a1565b8114618cec57600080fd5b50565b618cf8816186b3565b8114618d0357600080fd5b50565b618d0f816186c5565b8114618d1a57600080fd5b50565b618d26816186d7565b8114618d3157600080fd5b50565b618d3d816186e9565b8114618d4857600080fd5b50565b618d548161871b565b8114618d5f57600080fd5b50565b618d6b81618725565b8114618d7657600080fd5b5056fea264697066735822122008bfd1ebdcb78aa6622d4e92b92e07ee9a2936cafe3edf280509da9798f2596164736f6c63430008030033",
  "linkReferences": {},
  "deployedLinkReferences": {}
}