{
  "_format": "hh-sol-artifact-1",
  "contractName": "Dao",
  "sourceName": "contracts/Dao.sol",
  "abi": [
    {
      "inputs": [
        {
          "internalType": "address",
          "name": "_base",
          "type": "address"
        }
      ],
      "stateMutability": "nonpayable",
      "type": "constructor"
    },
    {
      "anonymous": false,
      "inputs": [
        {
          "indexed": true,
          "internalType": "address",
          "name": "member",
          "type": "address"
        },
        {
          "indexed": true,
          "internalType": "uint256",
          "name": "proposalID",
          "type": "uint256"
        }
      ],
      "name": "CancelProposal",
      "type": "event"
    },
    {
      "anonymous": false,
      "inputs": [
        {
          "indexed": true,
          "internalType": "address",
          "name": "DAO",
          "type": "address"
        },
        {
          "indexed": true,
          "internalType": "address",
          "name": "asset",
          "type": "address"
        }
      ],
      "name": "DelistedAsset",
      "type": "event"
    },
    {
      "anonymous": false,
      "inputs": [
        {
          "indexed": true,
          "internalType": "address",
          "name": "owner",
          "type": "address"
        },
        {
          "indexed": false,
          "internalType": "uint256",
          "name": "depositAmount",
          "type": "uint256"
        },
        {
          "indexed": false,
          "internalType": "uint256",
          "name": "bondedLP",
          "type": "uint256"
        }
      ],
      "name": "DepositAsset",
      "type": "event"
    },
    {
      "anonymous": false,
      "inputs": [
        {
          "indexed": true,
          "internalType": "address",
          "name": "member",
          "type": "address"
        },
        {
          "indexed": true,
          "internalType": "uint256",
          "name": "proposalID",
          "type": "uint256"
        },
        {
          "indexed": false,
          "internalType": "uint256",
          "name": "votesCast",
          "type": "uint256"
        },
        {
          "indexed": false,
          "internalType": "uint256",
          "name": "totalWeight",
          "type": "uint256"
        },
        {
          "indexed": false,
          "internalType": "string",
          "name": "proposalType",
          "type": "string"
        }
      ],
      "name": "FinalisedProposal",
      "type": "event"
    },
    {
      "anonymous": false,
      "inputs": [
        {
          "indexed": true,
          "internalType": "address",
          "name": "DAO",
          "type": "address"
        },
        {
          "indexed": true,
          "internalType": "address",
          "name": "asset",
          "type": "address"
        }
      ],
      "name": "ListedAsset",
      "type": "event"
    },
    {
      "anonymous": false,
      "inputs": [
        {
          "indexed": true,
          "internalType": "address",
          "name": "member",
          "type": "address"
        },
        {
          "indexed": true,
          "internalType": "address",
          "name": "pool",
          "type": "address"
        },
        {
          "indexed": false,
          "internalType": "uint256",
          "name": "amount",
          "type": "uint256"
        }
      ],
      "name": "MemberDeposits",
      "type": "event"
    },
    {
      "anonymous": false,
      "inputs": [
        {
          "indexed": true,
          "internalType": "address",
          "name": "member",
          "type": "address"
        },
        {
          "indexed": true,
          "internalType": "address",
          "name": "pool",
          "type": "address"
        },
        {
          "indexed": false,
          "internalType": "uint256",
          "name": "balance",
          "type": "uint256"
        }
      ],
      "name": "MemberWithdraws",
      "type": "event"
    },
    {
      "anonymous": false,
      "inputs": [
        {
          "indexed": true,
          "internalType": "address",
          "name": "member",
          "type": "address"
        },
        {
          "indexed": true,
          "internalType": "uint256",
          "name": "proposalID",
          "type": "uint256"
        },
        {
          "indexed": false,
          "internalType": "string",
          "name": "proposalType",
          "type": "string"
        }
      ],
      "name": "NewProposal",
      "type": "event"
    },
    {
      "anonymous": false,
      "inputs": [
        {
          "indexed": true,
          "internalType": "address",
          "name": "member",
          "type": "address"
        },
        {
          "indexed": true,
          "internalType": "uint256",
          "name": "proposalID",
          "type": "uint256"
        },
        {
          "indexed": false,
          "internalType": "uint256",
          "name": "voteWeight",
          "type": "uint256"
        },
        {
          "indexed": false,
          "internalType": "uint256",
          "name": "totalVotes",
          "type": "uint256"
        },
        {
          "indexed": false,
          "internalType": "string",
          "name": "proposalType",
          "type": "string"
        }
      ],
      "name": "NewVote",
      "type": "event"
    },
    {
      "anonymous": false,
      "inputs": [
        {
          "indexed": true,
          "internalType": "address",
          "name": "member",
          "type": "address"
        },
        {
          "indexed": true,
          "internalType": "uint256",
          "name": "proposalID",
          "type": "uint256"
        },
        {
          "indexed": false,
          "internalType": "uint256",
          "name": "timeFinalised",
          "type": "uint256"
        },
        {
          "indexed": false,
          "internalType": "string",
          "name": "proposalType",
          "type": "string"
        }
      ],
      "name": "ProposalFinalising",
      "type": "event"
    },
    {
      "anonymous": false,
      "inputs": [
        {
          "indexed": true,
          "internalType": "address",
          "name": "member",
          "type": "address"
        },
        {
          "indexed": true,
          "internalType": "uint256",
          "name": "proposalID",
          "type": "uint256"
        },
        {
          "indexed": false,
          "internalType": "uint256",
          "name": "voteWeight",
          "type": "uint256"
        },
        {
          "indexed": false,
          "internalType": "uint256",
          "name": "totalVotes",
          "type": "uint256"
        },
        {
          "indexed": false,
          "internalType": "string",
          "name": "proposalType",
          "type": "string"
        }
      ],
      "name": "RemovedVote",
      "type": "event"
    },
    {
      "inputs": [],
      "name": "BASE",
      "outputs": [
        {
          "internalType": "address",
          "name": "",
          "type": "address"
        }
      ],
      "stateMutability": "view",
      "type": "function"
    },
    {
      "inputs": [],
      "name": "BONDVAULT",
      "outputs": [
        {
          "internalType": "contract iBONDVAULT",
          "name": "",
          "type": "address"
        }
      ],
      "stateMutability": "view",
      "type": "function"
    },
    {
      "inputs": [],
      "name": "DAO",
      "outputs": [
        {
          "internalType": "address",
          "name": "",
          "type": "address"
        }
      ],
      "stateMutability": "view",
      "type": "function"
    },
    {
      "inputs": [],
      "name": "DAOVAULT",
      "outputs": [
        {
          "internalType": "contract iDAOVAULT",
          "name": "",
          "type": "address"
        }
      ],
      "stateMutability": "view",
      "type": "function"
    },
    {
      "inputs": [],
      "name": "DEPLOYER",
      "outputs": [
        {
          "internalType": "address",
          "name": "",
          "type": "address"
        }
      ],
      "stateMutability": "view",
      "type": "function"
    },
    {
      "inputs": [],
      "name": "LEND",
      "outputs": [
        {
          "internalType": "contract iLEND",
          "name": "",
          "type": "address"
        }
      ],
      "stateMutability": "view",
      "type": "function"
    },
    {
      "inputs": [],
      "name": "POOLFACTORY",
      "outputs": [
        {
          "internalType": "contract iPOOLFACTORY",
          "name": "",
          "type": "address"
        }
      ],
      "stateMutability": "view",
      "type": "function"
    },
    {
      "inputs": [],
      "name": "RESERVE",
      "outputs": [
        {
          "internalType": "contract iRESERVE",
          "name": "",
          "type": "address"
        }
      ],
      "stateMutability": "view",
      "type": "function"
    },
    {
      "inputs": [],
      "name": "ROUTER",
      "outputs": [
        {
          "internalType": "contract iROUTER",
          "name": "",
          "type": "address"
        }
      ],
      "stateMutability": "view",
      "type": "function"
    },
    {
      "inputs": [],
      "name": "SYNTHFACTORY",
      "outputs": [
        {
          "internalType": "contract iSYNTHFACTORY",
          "name": "",
          "type": "address"
        }
      ],
      "stateMutability": "view",
      "type": "function"
    },
    {
      "inputs": [],
      "name": "SYNTHVAULT",
      "outputs": [
        {
          "internalType": "contract iSYNTHVAULT",
          "name": "",
          "type": "address"
        }
      ],
      "stateMutability": "view",
      "type": "function"
    },
    {
      "inputs": [],
      "name": "UTILS",
      "outputs": [
        {
          "internalType": "contract iUTILS",
          "name": "",
          "type": "address"
        }
      ],
      "stateMutability": "view",
      "type": "function"
    },
    {
      "inputs": [],
      "name": "allListedAssets",
      "outputs": [
        {
          "internalType": "address[]",
          "name": "_allListedAssets",
          "type": "address[]"
        }
      ],
      "stateMutability": "view",
      "type": "function"
    },
    {
      "inputs": [
        {
          "internalType": "uint256",
          "name": "",
          "type": "uint256"
        }
      ],
      "name": "arrayMembers",
      "outputs": [
        {
          "internalType": "address",
          "name": "",
          "type": "address"
        }
      ],
      "stateMutability": "view",
      "type": "function"
    },
    {
      "inputs": [],
      "name": "assetListedCount",
      "outputs": [
        {
          "internalType": "uint256",
          "name": "count",
          "type": "uint256"
        }
      ],
      "stateMutability": "view",
      "type": "function"
    },
    {
      "inputs": [
        {
          "internalType": "address",
          "name": "asset",
          "type": "address"
        },
        {
          "internalType": "uint256",
          "name": "amount",
          "type": "uint256"
        }
      ],
      "name": "bond",
      "outputs": [
        {
          "internalType": "bool",
          "name": "success",
          "type": "bool"
        }
      ],
      "stateMutability": "payable",
      "type": "function"
    },
    {
      "inputs": [],
      "name": "bondingPeriodSeconds",
      "outputs": [
        {
          "internalType": "uint256",
          "name": "",
          "type": "uint256"
        }
      ],
      "stateMutability": "view",
      "type": "function"
    },
    {
      "inputs": [],
      "name": "burnBalance",
      "outputs": [
        {
          "internalType": "bool",
          "name": "",
          "type": "bool"
        }
      ],
      "stateMutability": "nonpayable",
      "type": "function"
    },
    {
      "inputs": [
        {
          "internalType": "address",
          "name": "bondedMember",
          "type": "address"
        },
        {
          "internalType": "address",
          "name": "asset",
          "type": "address"
        }
      ],
      "name": "calcClaimBondedLP",
      "outputs": [
        {
          "internalType": "uint256",
          "name": "",
          "type": "uint256"
        }
      ],
      "stateMutability": "view",
      "type": "function"
    },
    {
      "inputs": [
        {
          "internalType": "address",
          "name": "member",
          "type": "address"
        }
      ],
      "name": "calcCurrentReward",
      "outputs": [
        {
          "internalType": "uint256",
          "name": "",
          "type": "uint256"
        }
      ],
      "stateMutability": "view",
      "type": "function"
    },
    {
      "inputs": [
        {
          "internalType": "address",
          "name": "member",
          "type": "address"
        }
      ],
      "name": "calcReward",
      "outputs": [
        {
          "internalType": "uint256",
          "name": "",
          "type": "uint256"
        }
      ],
      "stateMutability": "view",
      "type": "function"
    },
    {
      "inputs": [],
      "name": "cancelProposal",
      "outputs": [],
      "stateMutability": "nonpayable",
      "type": "function"
    },
    {
      "inputs": [
        {
          "internalType": "uint256",
          "name": "bondingSeconds",
          "type": "uint256"
        }
      ],
      "name": "changeBondingPeriod",
      "outputs": [],
      "stateMutability": "nonpayable",
      "type": "function"
    },
    {
      "inputs": [
        {
          "internalType": "address",
          "name": "asset",
          "type": "address"
        }
      ],
      "name": "claim",
      "outputs": [
        {
          "internalType": "bool",
          "name": "",
          "type": "bool"
        }
      ],
      "stateMutability": "nonpayable",
      "type": "function"
    },
    {
      "inputs": [
        {
          "internalType": "address[]",
          "name": "bondAssets",
          "type": "address[]"
        }
      ],
      "name": "claimAll",
      "outputs": [
        {
          "internalType": "bool",
          "name": "",
          "type": "bool"
        }
      ],
      "stateMutability": "nonpayable",
      "type": "function"
    },
    {
      "inputs": [],
      "name": "coolOffPeriod",
      "outputs": [
        {
          "internalType": "uint256",
          "name": "",
          "type": "uint256"
        }
      ],
      "stateMutability": "view",
      "type": "function"
    },
    {
      "inputs": [],
      "name": "currentProposal",
      "outputs": [
        {
          "internalType": "uint256",
          "name": "",
          "type": "uint256"
        }
      ],
      "stateMutability": "view",
      "type": "function"
    },
    {
      "inputs": [],
      "name": "daoClaim",
      "outputs": [
        {
          "internalType": "uint256",
          "name": "",
          "type": "uint256"
        }
      ],
      "stateMutability": "view",
      "type": "function"
    },
    {
      "inputs": [],
      "name": "daoFee",
      "outputs": [
        {
          "internalType": "uint256",
          "name": "",
          "type": "uint256"
        }
      ],
      "stateMutability": "view",
      "type": "function"
    },
    {
      "inputs": [],
      "name": "daoHasMoved",
      "outputs": [
        {
          "internalType": "bool",
          "name": "",
          "type": "bool"
        }
      ],
      "stateMutability": "view",
      "type": "function"
    },
    {
      "inputs": [
        {
          "internalType": "address",
          "name": "asset",
          "type": "address"
        }
      ],
      "name": "delistBondAsset",
      "outputs": [],
      "stateMutability": "nonpayable",
      "type": "function"
    },
    {
      "inputs": [
        {
          "internalType": "address",
          "name": "pool",
          "type": "address"
        },
        {
          "internalType": "uint256",
          "name": "amount",
          "type": "uint256"
        }
      ],
      "name": "deposit",
      "outputs": [],
      "stateMutability": "nonpayable",
      "type": "function"
    },
    {
      "inputs": [],
      "name": "erasToEarn",
      "outputs": [
        {
          "internalType": "uint256",
          "name": "",
          "type": "uint256"
        }
      ],
      "stateMutability": "view",
      "type": "function"
    },
    {
      "inputs": [],
      "name": "finaliseProposal",
      "outputs": [],
      "stateMutability": "nonpayable",
      "type": "function"
    },
    {
      "inputs": [
        {
          "internalType": "uint256",
          "name": "proposalID",
          "type": "uint256"
        }
      ],
      "name": "getProposalDetails",
      "outputs": [
        {
          "components": [
            {
              "internalType": "uint256",
              "name": "id",
              "type": "uint256"
            },
            {
              "internalType": "string",
              "name": "proposalType",
              "type": "string"
            },
            {
              "internalType": "uint256",
              "name": "votes",
              "type": "uint256"
            },
            {
              "internalType": "uint256",
              "name": "coolOffTime",
              "type": "uint256"
            },
            {
              "internalType": "bool",
              "name": "finalising",
              "type": "bool"
            },
            {
              "internalType": "bool",
              "name": "finalised",
              "type": "bool"
            },
            {
              "internalType": "uint256",
              "name": "param",
              "type": "uint256"
            },
            {
              "internalType": "address",
              "name": "proposedAddress",
              "type": "address"
            },
            {
              "internalType": "bool",
              "name": "open",
              "type": "bool"
            },
            {
              "internalType": "uint256",
              "name": "startTime",
              "type": "uint256"
            }
          ],
          "internalType": "struct Dao.ProposalDetails",
          "name": "proposalDetails",
          "type": "tuple"
        }
      ],
      "stateMutability": "view",
      "type": "function"
    },
    {
      "inputs": [],
      "name": "harvest",
      "outputs": [],
      "stateMutability": "nonpayable",
      "type": "function"
    },
    {
      "inputs": [
        {
          "internalType": "uint256",
          "name": "_proposalID",
          "type": "uint256"
        }
      ],
      "name": "hasMajority",
      "outputs": [
        {
          "internalType": "bool",
          "name": "",
          "type": "bool"
        }
      ],
      "stateMutability": "view",
      "type": "function"
    },
    {
      "inputs": [
        {
          "internalType": "uint256",
          "name": "_proposalID",
          "type": "uint256"
        }
      ],
      "name": "hasQuorum",
      "outputs": [
        {
          "internalType": "bool",
          "name": "",
          "type": "bool"
        }
      ],
      "stateMutability": "view",
      "type": "function"
    },
    {
      "inputs": [
        {
          "internalType": "address",
          "name": "",
          "type": "address"
        }
      ],
      "name": "isListed",
      "outputs": [
        {
          "internalType": "bool",
          "name": "",
          "type": "bool"
        }
      ],
      "stateMutability": "view",
      "type": "function"
    },
    {
      "inputs": [
        {
          "internalType": "address",
          "name": "",
          "type": "address"
        }
      ],
      "name": "isMember",
      "outputs": [
        {
          "internalType": "bool",
          "name": "",
          "type": "bool"
        }
      ],
      "stateMutability": "view",
      "type": "function"
    },
    {
      "inputs": [
        {
          "internalType": "address",
          "name": "asset",
          "type": "address"
        }
      ],
      "name": "listBondAsset",
      "outputs": [],
      "stateMutability": "nonpayable",
      "type": "function"
    },
    {
      "inputs": [],
      "name": "majorityFactor",
      "outputs": [
        {
          "internalType": "uint256",
          "name": "",
          "type": "uint256"
        }
      ],
      "stateMutability": "view",
      "type": "function"
    },
    {
      "inputs": [
        {
          "internalType": "address",
          "name": "",
          "type": "address"
        }
      ],
      "name": "mapMember_lastTime",
      "outputs": [
        {
          "internalType": "uint256",
          "name": "",
          "type": "uint256"
        }
      ],
      "stateMutability": "view",
      "type": "function"
    },
    {
      "inputs": [
        {
          "internalType": "uint256",
          "name": "",
          "type": "uint256"
        },
        {
          "internalType": "address",
          "name": "",
          "type": "address"
        }
      ],
      "name": "mapPIDAsset_votes",
      "outputs": [
        {
          "internalType": "uint256",
          "name": "",
          "type": "uint256"
        }
      ],
      "stateMutability": "view",
      "type": "function"
    },
    {
      "inputs": [
        {
          "internalType": "uint256",
          "name": "",
          "type": "uint256"
        }
      ],
      "name": "mapPID_address",
      "outputs": [
        {
          "internalType": "address",
          "name": "",
          "type": "address"
        }
      ],
      "stateMutability": "view",
      "type": "function"
    },
    {
      "inputs": [
        {
          "internalType": "uint256",
          "name": "",
          "type": "uint256"
        }
      ],
      "name": "mapPID_coolOffTime",
      "outputs": [
        {
          "internalType": "uint256",
          "name": "",
          "type": "uint256"
        }
      ],
      "stateMutability": "view",
      "type": "function"
    },
    {
      "inputs": [
        {
          "internalType": "uint256",
          "name": "",
          "type": "uint256"
        }
      ],
      "name": "mapPID_finalised",
      "outputs": [
        {
          "internalType": "bool",
          "name": "",
          "type": "bool"
        }
      ],
      "stateMutability": "view",
      "type": "function"
    },
    {
      "inputs": [
        {
          "internalType": "uint256",
          "name": "",
          "type": "uint256"
        }
      ],
      "name": "mapPID_finalising",
      "outputs": [
        {
          "internalType": "bool",
          "name": "",
          "type": "bool"
        }
      ],
      "stateMutability": "view",
      "type": "function"
    },
    {
      "inputs": [
        {
          "internalType": "uint256",
          "name": "",
          "type": "uint256"
        }
      ],
      "name": "mapPID_open",
      "outputs": [
        {
          "internalType": "bool",
          "name": "",
          "type": "bool"
        }
      ],
      "stateMutability": "view",
      "type": "function"
    },
    {
      "inputs": [
        {
          "internalType": "uint256",
          "name": "",
          "type": "uint256"
        }
      ],
      "name": "mapPID_param",
      "outputs": [
        {
          "internalType": "uint256",
          "name": "",
          "type": "uint256"
        }
      ],
      "stateMutability": "view",
      "type": "function"
    },
    {
      "inputs": [
        {
          "internalType": "uint256",
          "name": "",
          "type": "uint256"
        }
      ],
      "name": "mapPID_startTime",
      "outputs": [
        {
          "internalType": "uint256",
          "name": "",
          "type": "uint256"
        }
      ],
      "stateMutability": "view",
      "type": "function"
    },
    {
      "inputs": [
        {
          "internalType": "uint256",
          "name": "",
          "type": "uint256"
        }
      ],
      "name": "mapPID_type",
      "outputs": [
        {
          "internalType": "string",
          "name": "",
          "type": "string"
        }
      ],
      "stateMutability": "view",
      "type": "function"
    },
    {
      "inputs": [],
      "name": "memberCount",
      "outputs": [
        {
          "internalType": "uint256",
          "name": "",
          "type": "uint256"
        }
      ],
      "stateMutability": "view",
      "type": "function"
    },
    {
      "inputs": [
        {
          "internalType": "address",
          "name": "newDAO",
          "type": "address"
        }
      ],
      "name": "moveBASEBalance",
      "outputs": [],
      "stateMutability": "nonpayable",
      "type": "function"
    },
    {
      "inputs": [
        {
          "internalType": "string",
          "name": "typeStr",
          "type": "string"
        }
      ],
      "name": "newActionProposal",
      "outputs": [
        {
          "internalType": "uint256",
          "name": "",
          "type": "uint256"
        }
      ],
      "stateMutability": "nonpayable",
      "type": "function"
    },
    {
      "inputs": [
        {
          "internalType": "address",
          "name": "proposedAddress",
          "type": "address"
        },
        {
          "internalType": "string",
          "name": "typeStr",
          "type": "string"
        }
      ],
      "name": "newAddressProposal",
      "outputs": [
        {
          "internalType": "uint256",
          "name": "",
          "type": "uint256"
        }
      ],
      "stateMutability": "nonpayable",
      "type": "function"
    },
    {
      "inputs": [
        {
          "internalType": "address",
          "name": "recipient",
          "type": "address"
        },
        {
          "internalType": "uint256",
          "name": "amount",
          "type": "uint256"
        }
      ],
      "name": "newGrantProposal",
      "outputs": [
        {
          "internalType": "uint256",
          "name": "",
          "type": "uint256"
        }
      ],
      "stateMutability": "nonpayable",
      "type": "function"
    },
    {
      "inputs": [
        {
          "internalType": "uint256",
          "name": "param",
          "type": "uint256"
        },
        {
          "internalType": "string",
          "name": "typeStr",
          "type": "string"
        }
      ],
      "name": "newParamProposal",
      "outputs": [
        {
          "internalType": "uint256",
          "name": "",
          "type": "uint256"
        }
      ],
      "stateMutability": "nonpayable",
      "type": "function"
    },
    {
      "inputs": [],
      "name": "proposalCount",
      "outputs": [
        {
          "internalType": "uint256",
          "name": "",
          "type": "uint256"
        }
      ],
      "stateMutability": "view",
      "type": "function"
    },
    {
      "inputs": [],
      "name": "purgeDeployer",
      "outputs": [],
      "stateMutability": "nonpayable",
      "type": "function"
    },
    {
      "inputs": [],
      "name": "removeVote",
      "outputs": [
        {
          "internalType": "uint256",
          "name": "voteWeightRemoved",
          "type": "uint256"
        }
      ],
      "stateMutability": "nonpayable",
      "type": "function"
    },
    {
      "inputs": [],
      "name": "retire",
      "outputs": [
        {
          "internalType": "bool",
          "name": "",
          "type": "bool"
        }
      ],
      "stateMutability": "view",
      "type": "function"
    },
    {
      "inputs": [],
      "name": "running",
      "outputs": [
        {
          "internalType": "bool",
          "name": "",
          "type": "bool"
        }
      ],
      "stateMutability": "view",
      "type": "function"
    },
    {
      "inputs": [],
      "name": "secondsPerEra",
      "outputs": [
        {
          "internalType": "uint256",
          "name": "",
          "type": "uint256"
        }
      ],
      "stateMutability": "view",
      "type": "function"
    },
    {
      "inputs": [
        {
          "internalType": "address",
          "name": "_poolFactory",
          "type": "address"
        },
        {
          "internalType": "address",
          "name": "_synthFactory",
          "type": "address"
        }
      ],
      "name": "setFactoryAddresses",
      "outputs": [],
      "stateMutability": "nonpayable",
      "type": "function"
    },
    {
      "inputs": [
        {
          "internalType": "address",
          "name": "_router",
          "type": "address"
        },
        {
          "internalType": "address",
          "name": "_utils",
          "type": "address"
        },
        {
          "internalType": "address",
          "name": "_reserve",
          "type": "address"
        },
        {
          "internalType": "address",
          "name": "_lend",
          "type": "address"
        }
      ],
      "name": "setGenesisAddresses",
      "outputs": [],
      "stateMutability": "nonpayable",
      "type": "function"
    },
    {
      "inputs": [
        {
          "internalType": "uint256",
          "name": "_coolOff",
          "type": "uint256"
        },
        {
          "internalType": "uint256",
          "name": "_erasToEarn",
          "type": "uint256"
        },
        {
          "internalType": "uint256",
          "name": "_majorityFactor",
          "type": "uint256"
        },
        {
          "internalType": "uint256",
          "name": "_daoClaim",
          "type": "uint256"
        },
        {
          "internalType": "uint256",
          "name": "_daoFee",
          "type": "uint256"
        }
      ],
      "name": "setGenesisFactors",
      "outputs": [],
      "stateMutability": "nonpayable",
      "type": "function"
    },
    {
      "inputs": [
        {
          "internalType": "address",
          "name": "_daovault",
          "type": "address"
        },
        {
          "internalType": "address",
          "name": "_bondvault",
          "type": "address"
        },
        {
          "internalType": "address",
          "name": "_synthVault",
          "type": "address"
        }
      ],
      "name": "setVaultAddresses",
      "outputs": [],
      "stateMutability": "nonpayable",
      "type": "function"
    },
    {
      "inputs": [],
      "name": "voteProposal",
      "outputs": [
        {
          "internalType": "uint256",
          "name": "voteWeight",
          "type": "uint256"
        }
      ],
      "stateMutability": "nonpayable",
      "type": "function"
    },
    {
      "inputs": [
        {
          "internalType": "uint256",
          "name": "",
          "type": "uint256"
        }
      ],
      "name": "votingAddresses",
      "outputs": [
        {
          "internalType": "address",
          "name": "",
          "type": "address"
        }
      ],
      "stateMutability": "view",
      "type": "function"
    },
    {
      "inputs": [
        {
          "internalType": "address",
          "name": "pool",
          "type": "address"
        }
      ],
      "name": "withdraw",
      "outputs": [],
      "stateMutability": "nonpayable",
      "type": "function"
    }
  ],
  "bytecode": "0x608060405262ed4e006017553480156200001857600080fd5b506040516200adc53803806200adc583398181016040528101906200003e919062000237565b600160008190555080600260006101000a81548173ffffffffffffffffffffffffffffffffffffffff021916908373ffffffffffffffffffffffffffffffffffffffff16021790555033600160006101000a81548173ffffffffffffffffffffffffffffffffffffffff021916908373ffffffffffffffffffffffffffffffffffffffff16021790555030600b60016101000a81548173ffffffffffffffffffffffffffffffffffffffff021916908373ffffffffffffffffffffffffffffffffffffffff1602179055506203f480600481905550601e600781905550611a0a6006819055506103e860088190555060646009819055506000600581905550600260009054906101000a900473ffffffffffffffffffffffffffffffffffffffff1673ffffffffffffffffffffffffffffffffffffffff16636b92a3b66040518163ffffffff1660e01b815260040160206040518083038186803b158015620001a657600080fd5b505afa158015620001bb573d6000803e3d6000fd5b505050506040513d601f19601f82011682018060405250810190620001e1919062000263565b6003819055506000600260156101000a81548160ff0219169083151502179055505062000301565b6000815190506200021a81620002cd565b92915050565b6000815190506200023181620002e7565b92915050565b6000602082840312156200024a57600080fd5b60006200025a8482850162000209565b91505092915050565b6000602082840312156200027657600080fd5b6000620002868482850162000220565b91505092915050565b60006200029c82620002a3565b9050919050565b600073ffffffffffffffffffffffffffffffffffffffff82169050919050565b6000819050919050565b620002d8816200028f565b8114620002e457600080fd5b50565b620002f281620002c3565b8114620002fe57600080fd5b50565b61aab480620003116000396000f3fe6080604052600436106104105760003560e01c806379b2dc4c1161021e578063ae887c8b11610123578063d1458363116100ab578063ec342ad01161007a578063ec342ad01461107c578063f135dcf8146110a7578063f301e781146110e4578063f794062e1461110f578063f7a79a371461114c57610410565b8063d145836314610fc0578063d85bd52614610ffd578063da35c66414611028578063db634d7c1461105357610410565b8063b99b0a0c116100f2578063b99b0a0c14610ec5578063bbf8cf8214610ef0578063bc68fad914610f2d578063c05fc17814610f58578063c1b8411a14610f9557610410565b8063ae887c8b14610df7578063af04598014610e34578063b826286914610e5d578063b93ec54b14610e9a57610410565b80639d2cc436116101a6578063a4874d7711610175578063a4874d7714610d1d578063a515366a14610d48578063a6c83fed14610d78578063ab2bd8fd14610db5578063abb6154f14610dcc57610410565b80639d2cc43614610c3b578063a230c52414610c66578063a299ecb214610ca3578063a320224614610ce057610410565b80638bebea89116101ed5780638bebea8914610b685780639070577f14610ba5578063956615be14610bbc57806398fabd3a14610be75780639cd99aa214610c1257610410565b806379b2dc4c14610aaa5780637b0e5c4514610ad55780637b21f03114610b005780638351739a14610b3d57610410565b806338da7dd61161032457806349aa4ee2116102ac5780635c7366d31161027b5780635c7366d3146109c557806365c71bbf14610a0257806368bb97b314610a2d5780636b92a3b614610a565780637375898814610a8157610410565b806349aa4ee2146108f75780634b4000341461092257806351cff8d91461095f5780635c120b371461098857610410565b806343b2116f116102f357806343b2116f1461082857806346350821146108515780634636279f1461087a5780634641257d146108b757806347e7ef24146108ce57610410565b806338da7dd6146107465780633a61738d146107715780633b4d01a7146107ae578063436f80be146107eb57610410565b80632957b839116103a75780632c07eebf116103765780632c07eebf1461065d5780632f7fa18014610688578063314604fe146106b357806332fe7b26146106f057806335cb5fe01461071b57610410565b80632957b8391461059f5780632ab24e49146105ca5780632b49d425146105f55780632bee11941461062057610410565b80631e83409a116103e35780631e83409a146104d157806320b1b45d1461050e57806324efb52814610537578063293cee7d1461056257610410565b806303a821381461041557806311aee3801461042c5780631b9a293d146104575780631e2de0d114610494575b600080fd5b34801561042157600080fd5b5061042a611177565b005b34801561043857600080fd5b50610441611215565b60405161044e9190619f4f565b60405180910390f35b34801561046357600080fd5b5061047e60048036038101906104799190619387565b611222565b60405161048b9190619aa0565b60405180910390f35b3480156104a057600080fd5b506104bb60048036038101906104b69190619101565b611261565b6040516104c89190619b9d565b60405180910390f35b3480156104dd57600080fd5b506104f860048036038101906104f39190618f31565b611326565b6040516105059190619b9d565b60405180910390f35b34801561051a57600080fd5b50610535600480360381019061053091906194a5565b611439565b005b34801561054357600080fd5b5061054c6114bd565b6040516105599190619b9d565b60405180910390f35b34801561056e57600080fd5b5061058960048036038101906105849190619071565b6114d0565b6040516105969190619f4f565b60405180910390f35b3480156105ab57600080fd5b506105b461175f565b6040516105c19190619f4f565b60405180910390f35b3480156105d657600080fd5b506105df611765565b6040516105ec9190619c75565b60405180910390f35b34801561060157600080fd5b5061060a61184c565b6040516106179190619f4f565b60405180910390f35b34801561062c57600080fd5b5061064760048036038101906106429190619387565b611852565b6040516106549190619b9d565b60405180910390f35b34801561066957600080fd5b50610672611872565b60405161067f9190619f4f565b60405180910390f35b34801561069457600080fd5b5061069d611878565b6040516106aa9190619bb8565b60405180910390f35b3480156106bf57600080fd5b506106da60048036038101906106d59190619387565b61195f565b6040516106e79190619f4f565b60405180910390f35b3480156106fc57600080fd5b50610705611977565b6040516107129190619c3f565b60405180910390f35b34801561072757600080fd5b50610730611a5e565b60405161073d9190619b7b565b60405180910390f35b34801561075257600080fd5b5061075b611aec565b6040516107689190619bd3565b60405180910390f35b34801561077d57600080fd5b5061079860048036038101906107939190618f31565b611bd3565b6040516107a59190619f4f565b60405180910390f35b3480156107ba57600080fd5b506107d560048036038101906107d09190619387565b611f62565b6040516107e29190619f2d565b60405180910390f35b3480156107f757600080fd5b50610812600480360381019061080d9190619387565b612171565b60405161081f9190619aa0565b60405180910390f35b34801561083457600080fd5b5061084f600480360381019061084a919061900e565b6121b0565b005b34801561085d57600080fd5b5061087860048036038101906108739190618f83565b612314565b005b34801561088657600080fd5b506108a1600480360381019061089c9190618f31565b6123f4565b6040516108ae9190619f4f565b60405180910390f35b3480156108c357600080fd5b506108cc6124ca565b005b3480156108da57600080fd5b506108f560048036038101906108f091906190c5565b6127dc565b005b34801561090357600080fd5b5061090c612ca2565b6040516109199190619f4f565b60405180910390f35b34801561092e57600080fd5b5061094960048036038101906109449190619387565b612dcb565b6040516109569190619b9d565b60405180910390f35b34801561096b57600080fd5b5061098660048036038101906109819190618f31565b612dea565b005b34801561099457600080fd5b506109af60048036038101906109aa9190619387565b613052565b6040516109bc9190619b9d565b60405180910390f35b3480156109d157600080fd5b506109ec60048036038101906109e79190618f31565b6135b5565b6040516109f99190619f4f565b60405180910390f35b348015610a0e57600080fd5b50610a176135cd565b604051610a249190619f4f565b60405180910390f35b348015610a3957600080fd5b50610a546004803603810190610a4f9190618f31565b6135d3565b005b348015610a6257600080fd5b50610a6b613790565b604051610a789190619f4f565b60405180910390f35b348015610a8d57600080fd5b50610aa86004803603810190610aa39190618fbf565b613796565b005b348015610ab657600080fd5b50610abf6138b8565b604051610acc9190619f4f565b60405180910390f35b348015610ae157600080fd5b50610aea6138be565b604051610af79190619c90565b60405180910390f35b348015610b0c57600080fd5b50610b276004803603810190610b2291906193d9565b6139a5565b604051610b349190619f4f565b60405180910390f35b348015610b4957600080fd5b50610b526139ca565b604051610b5f9190619f4f565b60405180910390f35b348015610b7457600080fd5b50610b8f6004803603810190610b8a9190619387565b613eb4565b604051610b9c9190619b9d565b60405180910390f35b348015610bb157600080fd5b50610bba613ed4565b005b348015610bc857600080fd5b50610bd1614161565b604051610bde9190619f4f565b60405180910390f35b348015610bf357600080fd5b50610bfc614167565b604051610c099190619aa0565b60405180910390f35b348015610c1e57600080fd5b50610c396004803603810190610c349190618f31565b61418d565b005b348015610c4757600080fd5b50610c5061443c565b604051610c5d9190619c24565b60405180910390f35b348015610c7257600080fd5b50610c8d6004803603810190610c889190618f31565b614523565b604051610c9a9190619b9d565b60405180910390f35b348015610caf57600080fd5b50610cca6004803603810190610cc59190619387565b614543565b604051610cd79190619f4f565b60405180910390f35b348015610cec57600080fd5b50610d076004803603810190610d029190619415565b61455b565b604051610d149190619f4f565b60405180910390f35b348015610d2957600080fd5b50610d32614666565b604051610d3f9190619b9d565b60405180910390f35b610d626004803603810190610d5d91906190c5565b614679565b604051610d6f9190619b9d565b60405180910390f35b348015610d8457600080fd5b50610d9f6004803603810190610d9a91906190c5565b614af2565b604051610dac9190619f4f565b60405180910390f35b348015610dc157600080fd5b50610dca614df9565b005b348015610dd857600080fd5b50610de16155f8565b604051610dee9190619f4f565b60405180910390f35b348015610e0357600080fd5b50610e1e6004803603810190610e199190619387565b6155fe565b604051610e2b9190619aa0565b60405180910390f35b348015610e4057600080fd5b50610e5b6004803603810190610e569190619387565b615631565b005b348015610e6957600080fd5b50610e846004803603810190610e7f9190619387565b615695565b604051610e919190619f4f565b60405180910390f35b348015610ea657600080fd5b50610eaf6156ad565b604051610ebc9190619c5a565b60405180910390f35b348015610ed157600080fd5b50610eda615794565b604051610ee79190619c09565b60405180910390f35b348015610efc57600080fd5b50610f176004803603810190610f129190619387565b61587b565b604051610f249190619b9d565b60405180910390f35b348015610f3957600080fd5b50610f42615dd0565b604051610f4f9190619b9d565b60405180910390f35b348015610f6457600080fd5b50610f7f6004803603810190610f7a9190619387565b615f70565b604051610f8c9190619cab565b60405180910390f35b348015610fa157600080fd5b50610faa616010565b604051610fb79190619aa0565b60405180910390f35b348015610fcc57600080fd5b50610fe76004803603810190610fe29190619346565b616036565b604051610ff49190619f4f565b60405180910390f35b34801561100957600080fd5b506110126160e4565b60405161101f9190619b9d565b60405180910390f35b34801561103457600080fd5b5061103d6160f7565b60405161104a9190619f4f565b60405180910390f35b34801561105f57600080fd5b5061107a60048036038101906110759190618f31565b6160fd565b005b34801561108857600080fd5b5061109161656a565b60405161109e9190619aa0565b60405180910390f35b3480156110b357600080fd5b506110ce60048036038101906110c99190618f83565b616590565b6040516110db9190619f4f565b60405180910390f35b3480156110f057600080fd5b506110f961664c565b6040516111069190619bee565b60405180910390f35b34801561111b57600080fd5b5061113660048036038101906111319190618f31565b616733565b6040516111439190619b9d565b60405180910390f35b34801561115857600080fd5b50611161616753565b60405161116e9190619f4f565b60405180910390f35b600160009054906101000a900473ffffffffffffffffffffffffffffffffffffffff1673ffffffffffffffffffffffffffffffffffffffff163373ffffffffffffffffffffffffffffffffffffffff16146111d157600080fd5b6000600160006101000a81548173ffffffffffffffffffffffffffffffffffffffff021916908373ffffffffffffffffffffffffffffffffffffffff160217905550565b6000601580549050905090565b6018818154811061123257600080fd5b906000526020600020016000915054906101000a900473ffffffffffffffffffffffffffffffffffffffff1681565b6000600260149054906101000a900460ff16156112b3576040517f08c379a00000000000000000000000000000000000000000000000000000000081526004016112aa90619ccd565b60405180910390fd5b60005b825181101561131c576113088382815181106112fb577f4e487b7100000000000000000000000000000000000000000000000000000000600052603260045260246000fd5b6020026020010151611326565b5080806113149061a558565b9150506112b6565b5060019050919050565b6000600260149054906101000a900460ff1615611378576040517f08c379a000000000000000000000000000000000000000000000000000000000815260040161136f90619ccd565b60405180910390fd5b60006113843384616590565b9050600081111561142f57611397616760565b600e60009054906101000a900473ffffffffffffffffffffffffffffffffffffffff1673ffffffffffffffffffffffffffffffffffffffff16635bc262be84336040518363ffffffff1660e01b81526004016113f4929190619abb565b600060405180830381600087803b15801561140e57600080fd5b505af1158015611422573d6000803e3d6000fd5b5050505061142e616ab8565b5b6001915050919050565b600160009054906101000a900473ffffffffffffffffffffffffffffffffffffffff1673ffffffffffffffffffffffffffffffffffffffff163373ffffffffffffffffffffffffffffffffffffffff161461149357600080fd5b84600481905550836007819055508260068190555081600881905550806009819055505050505050565b600b60009054906101000a900460ff1681565b600080829050611515816040518060400160405280600381526020017f44414f0000000000000000000000000000000000000000000000000000000000815250616e10565b8061155b575061155a816040518060400160405280600681526020017f524f555445520000000000000000000000000000000000000000000000000000815250616e10565b5b806115a157506115a0816040518060400160405280600581526020017f5554494c53000000000000000000000000000000000000000000000000000000815250616e10565b5b806115e757506115e6816040518060400160405280600781526020017f5245534552564500000000000000000000000000000000000000000000000000815250616e10565b5b1561165d57600073ffffffffffffffffffffffffffffffffffffffff168473ffffffffffffffffffffffffffffffffffffffff16141561165c576040517f08c379a000000000000000000000000000000000000000000000000000000000815260040161165390619ead565b60405180910390fd5b5b611665616ebb565b611683670de0b6b3a764000060095461167e919061a1ed565b617119565b5083601d6000600a54815260200190815260200160002060006101000a81548173ffffffffffffffffffffffffffffffffffffffff021916908373ffffffffffffffffffffffffffffffffffffffff16021790555082601e6000600a5481526020019081526020016000209080519060200190611701929190618b50565b50600a543373ffffffffffffffffffffffffffffffffffffffff167f8d500fcad86fc64a281b94ef64d6d66acbfc6862aa4ff2ee5fbbfb40736e803e8560405161174b9190619cab565b60405180910390a3600a5491505092915050565b60095481565b6000600b60009054906101000a900460ff161561182357600b60019054906101000a900473ffffffffffffffffffffffffffffffffffffffff1673ffffffffffffffffffffffffffffffffffffffff16632ab24e496040518163ffffffff1660e01b815260040160206040518083038186803b1580156117e457600080fd5b505afa1580156117f8573d6000803e3d6000fd5b505050506040513d601f19601f8201168201806040525081019061181c91906192f4565b9050611849565b601360009054906101000a900473ffffffffffffffffffffffffffffffffffffffff1690505b90565b600a5481565b60216020528060005260406000206000915054906101000a900460ff1681565b60075481565b6000600b60009054906101000a900460ff161561193657600b60019054906101000a900473ffffffffffffffffffffffffffffffffffffffff1673ffffffffffffffffffffffffffffffffffffffff16632f7fa1806040518163ffffffff1660e01b815260040160206040518083038186803b1580156118f757600080fd5b505afa15801561190b573d6000803e3d6000fd5b505050506040513d601f19601f8201168201806040525081019061192f91906191d5565b905061195c565b600e60009054906101000a900473ffffffffffffffffffffffffffffffffffffffff1690505b90565b601c6020528060005260406000206000915090505481565b6000600b60009054906101000a900460ff1615611a3557600b60019054906101000a900473ffffffffffffffffffffffffffffffffffffffff1673ffffffffffffffffffffffffffffffffffffffff166332fe7b266040518163ffffffff1660e01b815260040160206040518083038186803b1580156119f657600080fd5b505afa158015611a0a573d6000803e3d6000fd5b505050506040513d601f19601f82011682018060405250810190611a2e91906192a2565b9050611a5b565b600c60009054906101000a900473ffffffffffffffffffffffffffffffffffffffff1690505b90565b60606016805480602002602001604051908101604052809291908181526020018280548015611ae257602002820191906000526020600020905b8160009054906101000a900473ffffffffffffffffffffffffffffffffffffffff1673ffffffffffffffffffffffffffffffffffffffff1681526020019060010190808311611a98575b5050505050905090565b6000600b60009054906101000a900460ff1615611baa57600b60019054906101000a900473ffffffffffffffffffffffffffffffffffffffff1673ffffffffffffffffffffffffffffffffffffffff166338da7dd66040518163ffffffff1660e01b815260040160206040518083038186803b158015611b6b57600080fd5b505afa158015611b7f573d6000803e3d6000fd5b505050506040513d601f19601f82011682018060405250810190611ba391906191fe565b9050611bd0565b600f60009054906101000a900473ffffffffffffffffffffffffffffffffffffffff1690505b90565b6000600260149054906101000a900460ff1615611c25576040517f08c379a0000000000000000000000000000000000000000000000000000000008152600401611c1c90619ccd565b60405180910390fd5b600080600f60009054906101000a900473ffffffffffffffffffffffffffffffffffffffff1673ffffffffffffffffffffffffffffffffffffffff1663a477b804856040518263ffffffff1660e01b8152600401611c839190619aa0565b604080518083038186803b158015611c9a57600080fd5b505afa158015611cae573d6000803e3d6000fd5b505050506040513d601f19601f82011682018060405250810190611cd29190619469565b91509150600080600e60009054906101000a900473ffffffffffffffffffffffffffffffffffffffff1673ffffffffffffffffffffffffffffffffffffffff1663a477b804876040518263ffffffff1660e01b8152600401611d349190619aa0565b604080518083038186803b158015611d4b57600080fd5b505afa158015611d5f573d6000803e3d6000fd5b505050506040513d601f19601f82011682018060405250810190611d839190619469565b9150915060008285611d95919061a166565b905060008285611da5919061a166565b90506000600754600260009054906101000a900473ffffffffffffffffffffffffffffffffffffffff1673ffffffffffffffffffffffffffffffffffffffff166370a08231601260009054906101000a900473ffffffffffffffffffffffffffffffffffffffff166040518263ffffffff1660e01b8152600401611e299190619aa0565b60206040518083038186803b158015611e4157600080fd5b505afa158015611e55573d6000803e3d6000fd5b505050506040513d601f19601f82011682018060405250810190611e7991906193b0565b611e83919061a1bc565b9050600061271060085483611e98919061a1ed565b611ea2919061a1bc565b9050600d60009054906101000a900473ffffffffffffffffffffffffffffffffffffffff1673ffffffffffffffffffffffffffffffffffffffff16631ba326c48585846040518463ffffffff1660e01b8152600401611f039392919061a031565b60206040518083038186803b158015611f1b57600080fd5b505afa158015611f2f573d6000803e3d6000fd5b505050506040513d601f19601f82011682018060405250810190611f5391906193b0565b98505050505050505050919050565b611f6a618bd6565b81816000018181525050601e60008381526020019081526020016000208054611f929061a4f5565b80601f0160208091040260200160405190810160405280929190818152602001828054611fbe9061a4f5565b801561200b5780601f10611fe05761010080835404028352916020019161200b565b820191906000526020600020905b815481529060010190602001808311611fee57829003601f168201915b50505050508160200181905250601f6000838152602001908152602001600020548160600181815250506020600083815260200190815260200160002060009054906101000a900460ff168160800190151590811515815250506021600083815260200190815260200160002060009054906101000a900460ff168160a0019015159081151581525050601c6000838152602001908152602001600020548160c0018181525050601d600083815260200190815260200160002060009054906101000a900473ffffffffffffffffffffffffffffffffffffffff168160e0019073ffffffffffffffffffffffffffffffffffffffff16908173ffffffffffffffffffffffffffffffffffffffff16815250506022600083815260200190815260200160002060009054906101000a900460ff1681610100019015159081151581525050602360008381526020019081526020016000205481610120018181525050919050565b6015818154811061218157600080fd5b906000526020600020016000915054906101000a900473ffffffffffffffffffffffffffffffffffffffff1681565b600160009054906101000a900473ffffffffffffffffffffffffffffffffffffffff1673ffffffffffffffffffffffffffffffffffffffff163373ffffffffffffffffffffffffffffffffffffffff161461220a57600080fd5b83600c60006101000a81548173ffffffffffffffffffffffffffffffffffffffff021916908373ffffffffffffffffffffffffffffffffffffffff16021790555082600d60006101000a81548173ffffffffffffffffffffffffffffffffffffffff021916908373ffffffffffffffffffffffffffffffffffffffff16021790555081601260006101000a81548173ffffffffffffffffffffffffffffffffffffffff021916908373ffffffffffffffffffffffffffffffffffffffff16021790555080601460006101000a81548173ffffffffffffffffffffffffffffffffffffffff021916908373ffffffffffffffffffffffffffffffffffffffff16021790555050505050565b600160009054906101000a900473ffffffffffffffffffffffffffffffffffffffff1673ffffffffffffffffffffffffffffffffffffffff163373ffffffffffffffffffffffffffffffffffffffff161461236e57600080fd5b81601060006101000a81548173ffffffffffffffffffffffffffffffffffffffff021916908373ffffffffffffffffffffffffffffffffffffffff16021790555080601160006101000a81548173ffffffffffffffffffffffffffffffffffffffff021916908373ffffffffffffffffffffffffffffffffffffffff1602179055505050565b6000600260149054906101000a900460ff1615612446576040517f08c379a000000000000000000000000000000000000000000000000000000000815260040161243d90619ccd565b60405180910390fd5b6000601b60008473ffffffffffffffffffffffffffffffffffffffff1673ffffffffffffffffffffffffffffffffffffffff1681526020019081526020016000205442612493919061a247565b905060006124a084611bd3565b9050600060035483836124b3919061a1ed565b6124bd919061a1bc565b9050809350505050919050565b600260149054906101000a900460ff161561251a576040517f08c379a000000000000000000000000000000000000000000000000000000000815260040161251190619ccd565b60405180910390fd5b601260009054906101000a900473ffffffffffffffffffffffffffffffffffffffff1673ffffffffffffffffffffffffffffffffffffffff16632267716c6040518163ffffffff1660e01b8152600401602060405180830381600087803b15801561258457600080fd5b505af1158015612598573d6000803e3d6000fd5b505050506040513d601f19601f820116820180604052508101906125bc9190619183565b6125fb576040517f08c379a00000000000000000000000000000000000000000000000000000000081526004016125f290619d6d565b60405180910390fd5b6000612606336123f4565b905042601b60003373ffffffffffffffffffffffffffffffffffffffff1673ffffffffffffffffffffffffffffffffffffffff168152602001908152602001600020819055506000600260009054906101000a900473ffffffffffffffffffffffffffffffffffffffff1673ffffffffffffffffffffffffffffffffffffffff166370a08231601260009054906101000a900473ffffffffffffffffffffffffffffffffffffffff166040518263ffffffff1660e01b81526004016126cb9190619aa0565b60206040518083038186803b1580156126e357600080fd5b505afa1580156126f7573d6000803e3d6000fd5b505050506040513d601f19601f8201168201806040525081019061271b91906193b0565b9050600061271060085483612730919061a1ed565b61273a919061a1bc565b905080831115612748578092505b601260009054906101000a900473ffffffffffffffffffffffffffffffffffffffff1673ffffffffffffffffffffffffffffffffffffffff16637d458baa84336040518363ffffffff1660e01b81526004016127a5929190619f6a565b600060405180830381600087803b1580156127bf57600080fd5b505af11580156127d3573d6000803e3d6000fd5b50505050505050565b600260149054906101000a900460ff161561282c576040517f08c379a000000000000000000000000000000000000000000000000000000000815260040161282390619ccd565b60405180910390fd5b60011515601060009054906101000a900473ffffffffffffffffffffffffffffffffffffffff1673ffffffffffffffffffffffffffffffffffffffff16638dcb4c93846040518263ffffffff1660e01b815260040161288b9190619aa0565b60206040518083038186803b1580156128a357600080fd5b505afa1580156128b7573d6000803e3d6000fd5b505050506040513d601f19601f820116820180604052508101906128db9190619183565b15151461291d576040517f08c379a000000000000000000000000000000000000000000000000000000000815260040161291490619e0d565b60405180910390fd5b60008111612960576040517f08c379a000000000000000000000000000000000000000000000000000000000815260040161295790619e8d565b60405180910390fd5b60011515601960003373ffffffffffffffffffffffffffffffffffffffff1673ffffffffffffffffffffffffffffffffffffffff16815260200190815260200160002060009054906101000a900460ff16151514612a74576015339080600181540180825580915050600190039060005260206000200160009091909190916101000a81548173ffffffffffffffffffffffffffffffffffffffff021916908373ffffffffffffffffffffffffffffffffffffffff1602179055506001601960003373ffffffffffffffffffffffffffffffffffffffff1673ffffffffffffffffffffffffffffffffffffffff16815260200190815260200160002060006101000a81548160ff0219169083151502179055505b8173ffffffffffffffffffffffffffffffffffffffff166323b872dd33600f60009054906101000a900473ffffffffffffffffffffffffffffffffffffffff16846040518463ffffffff1660e01b8152600401612ad393929190619ae4565b602060405180830381600087803b158015612aed57600080fd5b505af1158015612b01573d6000803e3d6000fd5b505050506040513d601f19601f82011682018060405250810190612b259190619183565b612b64576040517f08c379a0000000000000000000000000000000000000000000000000000000008152600401612b5b90619ded565b60405180910390fd5b600f60009054906101000a900473ffffffffffffffffffffffffffffffffffffffff1673ffffffffffffffffffffffffffffffffffffffff166346dafa2f8383336040518463ffffffff1660e01b8152600401612bc393929190619b44565b600060405180830381600087803b158015612bdd57600080fd5b505af1158015612bf1573d6000803e3d6000fd5b5050505042601b60003373ffffffffffffffffffffffffffffffffffffffff1673ffffffffffffffffffffffffffffffffffffffff168152602001908152602001600020819055508173ffffffffffffffffffffffffffffffffffffffff163373ffffffffffffffffffffffffffffffffffffffff167f5f9b5a75581a29d72b32414a5df7f1ef124b7787b38616fb8fdcad76179127c283604051612c969190619f4f565b60405180910390a35050565b6000600260149054906101000a900460ff1615612cf4576040517f08c379a0000000000000000000000000000000000000000000000000000000008152600401612ceb90619ccd565b60405180910390fd5b6000601e6000600a5481526020019081526020016000208054612d169061a4f5565b80601f0160208091040260200160405190810160405280929190818152602001828054612d429061a4f5565b8015612d8f5780601f10612d6457610100808354040283529160200191612d8f565b820191906000526020600020905b815481529060010190602001808311612d7257829003601f168201915b5050505050905060226000600a54815260200190815260200160002060009054906101000a900460ff1615612dc757612dc6616760565b5b5090565b602080528060005260406000206000915054906101000a900460ff1681565b600260149054906101000a900460ff1615612e3a576040517f08c379a0000000000000000000000000000000000000000000000000000000008152600401612e3190619ccd565b60405180910390fd5b612e42616760565b6000600f60009054906101000a900473ffffffffffffffffffffffffffffffffffffffff1673ffffffffffffffffffffffffffffffffffffffff1663cca92d9c33846040518363ffffffff1660e01b8152600401612ea1929190619abb565b60206040518083038186803b158015612eb957600080fd5b505afa158015612ecd573d6000803e3d6000fd5b505050506040513d601f19601f82011682018060405250810190612ef191906193b0565b9050600f60009054906101000a900473ffffffffffffffffffffffffffffffffffffffff1673ffffffffffffffffffffffffffffffffffffffff1663f940e38583336040518363ffffffff1660e01b8152600401612f50929190619abb565b602060405180830381600087803b158015612f6a57600080fd5b505af1158015612f7e573d6000803e3d6000fd5b505050506040513d601f19601f82011682018060405250810190612fa29190619183565b612fe1576040517f08c379a0000000000000000000000000000000000000000000000000000000008152600401612fd890619e2d565b60405180910390fd5b8173ffffffffffffffffffffffffffffffffffffffff163373ffffffffffffffffffffffffffffffffffffffff167f12dcb5d4117cb4675d56c72f030db8f0f4dd34f875fe484eea4cf0790b5deaa38360405161303e9190619f4f565b60405180910390a361304e616ab8565b5050565b600080601060009054906101000a900473ffffffffffffffffffffffffffffffffffffffff1673ffffffffffffffffffffffffffffffffffffffff166351e596e06040518163ffffffff1660e01b815260040160006040518083038186803b1580156130bd57600080fd5b505afa1580156130d1573d6000803e3d6000fd5b505050506040513d6000823e3d601f19601f820116820180604052508101906130fa9190619142565b905060008060005b8351811015613587576000600e60009054906101000a900473ffffffffffffffffffffffffffffffffffffffff1673ffffffffffffffffffffffffffffffffffffffff166389bbd670868481518110613184577f4e487b7100000000000000000000000000000000000000000000000000000000600052603260045260246000fd5b60200260200101516040518263ffffffff1660e01b81526004016131a89190619aa0565b60206040518083038186803b1580156131c057600080fd5b505afa1580156131d4573d6000803e3d6000fd5b505050506040513d601f19601f820116820180604052508101906131f891906193b0565b600f60009054906101000a900473ffffffffffffffffffffffffffffffffffffffff1673ffffffffffffffffffffffffffffffffffffffff166389bbd67087858151811061326f577f4e487b7100000000000000000000000000000000000000000000000000000000600052603260045260246000fd5b60200260200101516040518263ffffffff1660e01b81526004016132939190619aa0565b60206040518083038186803b1580156132ab57600080fd5b505afa1580156132bf573d6000803e3d6000fd5b505050506040513d601f19601f820116820180604052508101906132e391906193b0565b6132ed919061a166565b9050600d60009054906101000a900473ffffffffffffffffffffffffffffffffffffffff1673ffffffffffffffffffffffffffffffffffffffff1663ca2e5b65868481518110613366577f4e487b7100000000000000000000000000000000000000000000000000000000600052603260045260246000fd5b6020026020010151602460008b815260200190815260200160002060008987815181106133bc577f4e487b7100000000000000000000000000000000000000000000000000000000600052603260045260246000fd5b602002602001015173ffffffffffffffffffffffffffffffffffffffff1673ffffffffffffffffffffffffffffffffffffffff168152602001908152602001600020546040518363ffffffff1660e01b815260040161341c929190619b1b565b60206040518083038186803b15801561343457600080fd5b505afa158015613448573d6000803e3d6000fd5b505050506040513d601f19601f8201168201806040525081019061346c91906193b0565b84613477919061a166565b9350600d60009054906101000a900473ffffffffffffffffffffffffffffffffffffffff1673ffffffffffffffffffffffffffffffffffffffff1663ca2e5b658684815181106134f0577f4e487b7100000000000000000000000000000000000000000000000000000000600052603260045260246000fd5b6020026020010151836040518363ffffffff1660e01b8152600401613516929190619b1b565b60206040518083038186803b15801561352e57600080fd5b505afa158015613542573d6000803e3d6000fd5b505050506040513d601f19601f8201168201806040525081019061356691906193b0565b83613571919061a166565b925050808061357f9061a558565b915050613102565b5060006127106006548361359b919061a1ed565b6135a5919061a1bc565b9050808311945050505050919050565b601b6020528060005260406000206000915090505481565b60175481565b600160009054906101000a900473ffffffffffffffffffffffffffffffffffffffff1673ffffffffffffffffffffffffffffffffffffffff163373ffffffffffffffffffffffffffffffffffffffff161461362d57600080fd5b6000600260009054906101000a900473ffffffffffffffffffffffffffffffffffffffff1673ffffffffffffffffffffffffffffffffffffffff166370a08231306040518263ffffffff1660e01b815260040161368a9190619aa0565b60206040518083038186803b1580156136a257600080fd5b505afa1580156136b6573d6000803e3d6000fd5b505050506040513d601f19601f820116820180604052508101906136da91906193b0565b9050600260009054906101000a900473ffffffffffffffffffffffffffffffffffffffff1673ffffffffffffffffffffffffffffffffffffffff1663a9059cbb83836040518363ffffffff1660e01b8152600401613739929190619b1b565b602060405180830381600087803b15801561375357600080fd5b505af1158015613767573d6000803e3d6000fd5b505050506040513d601f19601f8201168201806040525081019061378b9190619183565b505050565b60035481565b600160009054906101000a900473ffffffffffffffffffffffffffffffffffffffff1673ffffffffffffffffffffffffffffffffffffffff163373ffffffffffffffffffffffffffffffffffffffff16146137f057600080fd5b82600f60006101000a81548173ffffffffffffffffffffffffffffffffffffffff021916908373ffffffffffffffffffffffffffffffffffffffff16021790555081600e60006101000a81548173ffffffffffffffffffffffffffffffffffffffff021916908373ffffffffffffffffffffffffffffffffffffffff16021790555080601360006101000a81548173ffffffffffffffffffffffffffffffffffffffff021916908373ffffffffffffffffffffffffffffffffffffffff160217905550505050565b60085481565b6000600b60009054906101000a900460ff161561397c57600b60019054906101000a900473ffffffffffffffffffffffffffffffffffffffff1673ffffffffffffffffffffffffffffffffffffffff16637b0e5c456040518163ffffffff1660e01b815260040160206040518083038186803b15801561393d57600080fd5b505afa158015613951573d6000803e3d6000fd5b505050506040513d601f19601f82011682018060405250810190613975919061931d565b90506139a2565b600d60009054906101000a900473ffffffffffffffffffffffffffffffffffffffff1690505b90565b6024602052816000526040600020602052806000526040600020600091509150505481565b6000600260149054906101000a900460ff1615613a1c576040517f08c379a0000000000000000000000000000000000000000000000000000000008152600401613a1390619ccd565b60405180910390fd5b60011515601260009054906101000a900473ffffffffffffffffffffffffffffffffffffffff1673ffffffffffffffffffffffffffffffffffffffff1663194e22ce6040518163ffffffff1660e01b8152600401602060405180830381600087803b158015613a8a57600080fd5b505af1158015613a9e573d6000803e3d6000fd5b505050506040513d601f19601f82011682018060405250810190613ac29190619183565b15151415613b05576040517f08c379a0000000000000000000000000000000000000000000000000000000008152600401613afc90619e4d565b60405180910390fd5b6001151560226000600a54815260200190815260200160002060009054906101000a900460ff16151514613b6e576040517f08c379a0000000000000000000000000000000000000000000000000000000008152600401613b6590619ecd565b60405180910390fd5b6000601e6000600a5481526020019081526020016000208054613b909061a4f5565b80601f0160208091040260200160405190810160405280929190818152602001828054613bbc9061a4f5565b8015613c095780601f10613bde57610100808354040283529160200191613c09565b820191906000526020600020905b815481529060010190602001808311613bec57829003601f168201915b50505050509050613c18616ab8565b613c23600a5461587b565b8015613c5557506000151560206000600a54815260200190815260200160002060009054906101000a900460ff161515145b15613eb057613c99816040518060400160405280600381526020017f44414f0000000000000000000000000000000000000000000000000000000000815250616e10565b80613cdf5750613cde816040518060400160405280600581526020017f5554494c53000000000000000000000000000000000000000000000000000000815250616e10565b5b80613d255750613d24816040518060400160405280600781526020017f5245534552564500000000000000000000000000000000000000000000000000815250616e10565b5b80613d6b5750613d6a816040518060400160405280600a81526020017f4745545f53504152544100000000000000000000000000000000000000000000815250616e10565b5b80613db15750613db0816040518060400160405280600681526020017f524f555445520000000000000000000000000000000000000000000000000000815250616e10565b5b80613df75750613df6816040518060400160405280600981526020017f4c4953545f424f4e440000000000000000000000000000000000000000000000815250616e10565b5b80613e3d5750613e3c816040518060400160405280600581526020017f4752414e54000000000000000000000000000000000000000000000000000000815250616e10565b5b80613e835750613e82816040518060400160405280601081526020017f4144445f435552415445445f504f4f4c00000000000000000000000000000000815250616e10565b5b15613ea657613e93600a54613052565b15613ea157613ea0617246565b5b613eaf565b613eae617246565b5b5b5090565b60226020528060005260406000206000915054906101000a900460ff1681565b600260149054906101000a900460ff1615613f24576040517f08c379a0000000000000000000000000000000000000000000000000000000008152600401613f1b90619ccd565b60405180910390fd5b6213c68060236000600a54815260200190815260200160002054613f48919061a166565b4211613f89576040517f08c379a0000000000000000000000000000000000000000000000000000000008152600401613f8090619f0d565b60405180910390fd5b6000601060009054906101000a900473ffffffffffffffffffffffffffffffffffffffff1673ffffffffffffffffffffffffffffffffffffffff166351e596e06040518163ffffffff1660e01b815260040160006040518083038186803b158015613ff357600080fd5b505afa158015614007573d6000803e3d6000fd5b505050506040513d6000823e3d601f19601f820116820180604052508101906140309190619142565b905060005b81518110156140e957600060246000600a5481526020019081526020016000206000848481518110614090577f4e487b7100000000000000000000000000000000000000000000000000000000600052603260045260246000fd5b602002602001015173ffffffffffffffffffffffffffffffffffffffff1673ffffffffffffffffffffffffffffffffffffffff1681526020019081526020016000208190555080806140e19061a558565b915050614035565b50600060226000600a54815260200190815260200160002060006101000a81548160ff021916908315150217905550600a543373ffffffffffffffffffffffffffffffffffffffff167f6b4f340ccba70b829531b22cfbc4ad2defb3beac09f6149d584fe1031dedbf7c60405160405180910390a350565b60065481565b600b60019054906101000a900473ffffffffffffffffffffffffffffffffffffffff1681565b600160009054906101000a900473ffffffffffffffffffffffffffffffffffffffff1673ffffffffffffffffffffffffffffffffffffffff163373ffffffffffffffffffffffffffffffffffffffff16146141e757600080fd5b6000601060009054906101000a900473ffffffffffffffffffffffffffffffffffffffff1673ffffffffffffffffffffffffffffffffffffffff1663bbe4f6db836040518263ffffffff1660e01b81526004016142449190619aa0565b60206040518083038186803b15801561425c57600080fd5b505afa158015614270573d6000803e3d6000fd5b505050506040513d601f19601f820116820180604052508101906142949190618f5a565b9050601a60008273ffffffffffffffffffffffffffffffffffffffff1673ffffffffffffffffffffffffffffffffffffffff16815260200190815260200160002060009054906101000a900460ff1615614323576040517f08c379a000000000000000000000000000000000000000000000000000000000815260040161431a90619dad565b60405180910390fd5b6001601a60008373ffffffffffffffffffffffffffffffffffffffff1673ffffffffffffffffffffffffffffffffffffffff16815260200190815260200160002060006101000a81548160ff0219169083151502179055506016819080600181540180825580915050600190039060005260206000200160009091909190916101000a81548173ffffffffffffffffffffffffffffffffffffffff021916908373ffffffffffffffffffffffffffffffffffffffff1602179055508173ffffffffffffffffffffffffffffffffffffffff163373ffffffffffffffffffffffffffffffffffffffff167fa2c962e87fd75165c1496c9ea420ddb0231e124bf2625a77f828287c8050006860405160405180910390a35050565b6000600b60009054906101000a900460ff16156144fa57600b60019054906101000a900473ffffffffffffffffffffffffffffffffffffffff1673ffffffffffffffffffffffffffffffffffffffff16639d2cc4366040518163ffffffff1660e01b815260040160206040518083038186803b1580156144bb57600080fd5b505afa1580156144cf573d6000803e3d6000fd5b505050506040513d601f19601f820116820180604052508101906144f39190619279565b9050614520565b601260009054906101000a900473ffffffffffffffffffffffffffffffffffffffff1690505b90565b60196020528060005260406000206000915054906101000a900460ff1681565b601f6020528060005260406000206000915090505481565b600080831161459f576040517f08c379a000000000000000000000000000000000000000000000000000000000815260040161459690619e6d565b60405180910390fd5b6145a7616ebb565b6145c5670de0b6b3a76400006009546145c0919061a1ed565b617119565b5082601c6000600a5481526020019081526020016000208190555081601e6000600a5481526020019081526020016000209080519060200190614609929190618b50565b50600a543373ffffffffffffffffffffffffffffffffffffffff167f8d500fcad86fc64a281b94ef64d6d66acbfc6862aa4ff2ee5fbbfb40736e803e846040516146539190619cab565b60405180910390a3600a54905092915050565b600260149054906101000a900460ff1681565b6000600260149054906101000a900460ff16156146cb576040517f08c379a00000000000000000000000000000000000000000000000000000000081526004016146c290619ccd565b60405180910390fd5b60026000541415614711576040517f08c379a000000000000000000000000000000000000000000000000000000000815260040161470890619eed565b60405180910390fd5b60026000819055506000821161475c576040517f08c379a000000000000000000000000000000000000000000000000000000000815260040161475390619e8d565b60405180910390fd5b601a60008473ffffffffffffffffffffffffffffffffffffffff1673ffffffffffffffffffffffffffffffffffffffff16815260200190815260200160002060009054906101000a900460ff166147e8576040517f08c379a00000000000000000000000000000000000000000000000000000000081526004016147df90619ced565b60405180910390fd5b6000601060009054906101000a900473ffffffffffffffffffffffffffffffffffffffff1673ffffffffffffffffffffffffffffffffffffffff1663bbe4f6db856040518263ffffffff1660e01b81526004016148459190619aa0565b60206040518083038186803b15801561485d57600080fd5b505afa158015614871573d6000803e3d6000fd5b505050506040513d601f19601f820116820180604052508101906148959190618f5a565b905060011515601960003373ffffffffffffffffffffffffffffffffffffffff1673ffffffffffffffffffffffffffffffffffffffff16815260200190815260200160002060009054906101000a900460ff161515146149ab576015339080600181540180825580915050600190039060005260206000200160009091909190916101000a81548173ffffffffffffffffffffffffffffffffffffffff021916908373ffffffffffffffffffffffffffffffffffffffff1602179055506001601960003373ffffffffffffffffffffffffffffffffffffffff1673ffffffffffffffffffffffffffffffffffffffff16815260200190815260200160002060006101000a81548160ff0219169083151502179055505b60006149b78585617393565b905042601b60003373ffffffffffffffffffffffffffffffffffffffff1673ffffffffffffffffffffffffffffffffffffffff16815260200190815260200160002081905550600e60009054906101000a900473ffffffffffffffffffffffffffffffffffffffff1673ffffffffffffffffffffffffffffffffffffffff1663bf58d0ef8333846040518463ffffffff1660e01b8152600401614a5c93929190619ae4565b600060405180830381600087803b158015614a7657600080fd5b505af1158015614a8a573d6000803e3d6000fd5b505050503373ffffffffffffffffffffffffffffffffffffffff167fe4dd259ab128527fe8b5fdae0b44bda8db95a4de10b999d63dce142b1eb88d548583604051614ad6929190619fc3565b60405180910390a2600192505050600160008190555092915050565b60008073ffffffffffffffffffffffffffffffffffffffff168373ffffffffffffffffffffffffffffffffffffffff161415614b63576040517f08c379a0000000000000000000000000000000000000000000000000000000008152600401614b5a90619ead565b60405180910390fd5b6000600260009054906101000a900473ffffffffffffffffffffffffffffffffffffffff1673ffffffffffffffffffffffffffffffffffffffff166370a08231601260009054906101000a900473ffffffffffffffffffffffffffffffffffffffff166040518263ffffffff1660e01b8152600401614be29190619aa0565b60206040518083038186803b158015614bfa57600080fd5b505afa158015614c0e573d6000803e3d6000fd5b505050506040513d601f19601f82011682018060405250810190614c3291906193b0565b9050600061271060085483614c47919061a1ed565b614c51919061a1bc565b9050600084118015614c6257508084105b614ca1576040517f08c379a0000000000000000000000000000000000000000000000000000000008152600401614c9890619d0d565b60405180910390fd5b614ca9616ebb565b614cc7670de0b6b3a7640000600954614cc2919061a1ed565b617119565b5060006040518060400160405280600581526020017f4752414e54000000000000000000000000000000000000000000000000000000815250905080601e6000600a5481526020019081526020016000209080519060200190614d2b929190618b50565b5085601d6000600a54815260200190815260200160002060006101000a81548173ffffffffffffffffffffffffffffffffffffffff021916908373ffffffffffffffffffffffffffffffffffffffff16021790555084601c6000600a54815260200190815260200160002081905550600a543373ffffffffffffffffffffffffffffffffffffffff167f8d500fcad86fc64a281b94ef64d6d66acbfc6862aa4ff2ee5fbbfb40736e803e83604051614de39190619cab565b60405180910390a3600a54935050505092915050565b600260149054906101000a900460ff1615614e49576040517f08c379a0000000000000000000000000000000000000000000000000000000008152600401614e4090619ccd565b60405180910390fd5b600260159054906101000a900460ff16614e98576040517f08c379a0000000000000000000000000000000000000000000000000000000008152600401614e8f90619d4d565b60405180910390fd5b60011515601260009054906101000a900473ffffffffffffffffffffffffffffffffffffffff1673ffffffffffffffffffffffffffffffffffffffff1663194e22ce6040518163ffffffff1660e01b8152600401602060405180830381600087803b158015614f0657600080fd5b505af1158015614f1a573d6000803e3d6000fd5b505050506040513d601f19601f82011682018060405250810190614f3e9190619183565b15151415614f81576040517f08c379a0000000000000000000000000000000000000000000000000000000008152600401614f7890619e4d565b60405180910390fd5b600454601f6000600a5481526020019081526020016000205442614fa5919061a247565b11614fe5576040517f08c379a0000000000000000000000000000000000000000000000000000000008152600401614fdc90619d8d565b60405180910390fd5b6001151560206000600a54815260200190815260200160002060009054906101000a900460ff1615151461504e576040517f08c379a000000000000000000000000000000000000000000000000000000000815260040161504590619dcd565b60405180910390fd5b6001151560226000600a54815260200190815260200160002060009054906101000a900460ff1615151461508157600080fd5b6000151560216000600a54815260200190815260200160002060009054906101000a900460ff161515146150b457600080fd5b6150bf600a5461587b565b6150f657600060206000600a54815260200190815260200160002060006101000a81548160ff0219169083151502179055506155f6565b6000601e6000600a54815260200190815260200160002080546151189061a4f5565b80601f01602080910402602001604051908101604052809291908181526020018280546151449061a4f5565b80156151915780601f1061516657610100808354040283529160200191615191565b820191906000526020600020905b81548152906001019060200180831161517457829003601f168201915b505050505090506151d7816040518060400160405280600381526020017f44414f0000000000000000000000000000000000000000000000000000000000815250616e10565b156151ec576151e7600a54617c84565b6155f4565b61522b816040518060400160405280600681526020017f524f555445520000000000000000000000000000000000000000000000000000815250616e10565b156152405761523b600a54617db2565b6155f3565b61527f816040518060400160405280600581526020017f5554494c53000000000000000000000000000000000000000000000000000000815250616e10565b156152945761528f600a54617e38565b6155f2565b6152d3816040518060400160405280600781526020017f5245534552564500000000000000000000000000000000000000000000000000815250616e10565b156152e8576152e3600a54617ebe565b6155f1565b615327816040518060400160405280600e81526020017f464c49505f454d495353494f4e53000000000000000000000000000000000000815250616e10565b1561533c57615337600a54617f44565b6155f0565b61537b816040518060400160405280600881526020017f434f4f4c5f4f4646000000000000000000000000000000000000000000000000815250616e10565b156153905761538b600a54617fd2565b6155ef565b6153cf816040518060400160405280600c81526020017f455241535f544f5f4541524e0000000000000000000000000000000000000000815250616e10565b156153e4576153df600a54617ffe565b6155ee565b615423816040518060400160405280600581526020017f4752414e54000000000000000000000000000000000000000000000000000000815250616e10565b1561543857615433600a5461802a565b6155ed565b615477816040518060400160405280600a81526020017f4745545f53504152544100000000000000000000000000000000000000000000815250616e10565b1561548c57615487600a54618117565b6155ec565b6154cb816040518060400160405280600981526020017f4c4953545f424f4e440000000000000000000000000000000000000000000000815250616e10565b156154e0576154db600a546181c3565b6155eb565b61551f816040518060400160405280600b81526020017f44454c4953545f424f4e44000000000000000000000000000000000000000000815250616e10565b156155345761552f600a54618315565b6155ea565b615573816040518060400160405280601081526020017f4144445f435552415445445f504f4f4c00000000000000000000000000000000815250616e10565b1561558857615583600a54618627565b6155e9565b6155c7816040518060400160405280601381526020017f52454d4f56455f435552415445445f504f4f4c00000000000000000000000000815250616e10565b156155dc576155d7600a5461874b565b6155e8565b6155e7600a546188c8565b5b5b5b5b5b5b5b5b5b5b5b5b5b505b565b60045481565b601d6020528060005260406000206000915054906101000a900473ffffffffffffffffffffffffffffffffffffffff1681565b600160009054906101000a900473ffffffffffffffffffffffffffffffffffffffff1673ffffffffffffffffffffffffffffffffffffffff163373ffffffffffffffffffffffffffffffffffffffff161461568b57600080fd5b8060178190555050565b60236020528060005260406000206000915090505481565b6000600b60009054906101000a900460ff161561576b57600b60019054906101000a900473ffffffffffffffffffffffffffffffffffffffff1673ffffffffffffffffffffffffffffffffffffffff1663b93ec54b6040518163ffffffff1660e01b815260040160206040518083038186803b15801561572c57600080fd5b505afa158015615740573d6000803e3d6000fd5b505050506040513d601f19601f8201168201806040525081019061576491906192cb565b9050615791565b601160009054906101000a900473ffffffffffffffffffffffffffffffffffffffff1690505b90565b6000600b60009054906101000a900460ff161561585257600b60019054906101000a900473ffffffffffffffffffffffffffffffffffffffff1673ffffffffffffffffffffffffffffffffffffffff1663b99b0a0c6040518163ffffffff1660e01b815260040160206040518083038186803b15801561581357600080fd5b505afa158015615827573d6000803e3d6000fd5b505050506040513d601f19601f8201168201806040525081019061584b9190619250565b9050615878565b601060009054906101000a900473ffffffffffffffffffffffffffffffffffffffff1690505b90565b600080601060009054906101000a900473ffffffffffffffffffffffffffffffffffffffff1673ffffffffffffffffffffffffffffffffffffffff166351e596e06040518163ffffffff1660e01b815260040160006040518083038186803b1580156158e657600080fd5b505afa1580156158fa573d6000803e3d6000fd5b505050506040513d6000823e3d601f19601f820116820180604052508101906159239190619142565b905060008060005b8351811015615db0576000600e60009054906101000a900473ffffffffffffffffffffffffffffffffffffffff1673ffffffffffffffffffffffffffffffffffffffff166389bbd6708684815181106159ad577f4e487b7100000000000000000000000000000000000000000000000000000000600052603260045260246000fd5b60200260200101516040518263ffffffff1660e01b81526004016159d19190619aa0565b60206040518083038186803b1580156159e957600080fd5b505afa1580156159fd573d6000803e3d6000fd5b505050506040513d601f19601f82011682018060405250810190615a2191906193b0565b600f60009054906101000a900473ffffffffffffffffffffffffffffffffffffffff1673ffffffffffffffffffffffffffffffffffffffff166389bbd670878581518110615a98577f4e487b7100000000000000000000000000000000000000000000000000000000600052603260045260246000fd5b60200260200101516040518263ffffffff1660e01b8152600401615abc9190619aa0565b60206040518083038186803b158015615ad457600080fd5b505afa158015615ae8573d6000803e3d6000fd5b505050506040513d601f19601f82011682018060405250810190615b0c91906193b0565b615b16919061a166565b9050600d60009054906101000a900473ffffffffffffffffffffffffffffffffffffffff1673ffffffffffffffffffffffffffffffffffffffff1663ca2e5b65868481518110615b8f577f4e487b7100000000000000000000000000000000000000000000000000000000600052603260045260246000fd5b6020026020010151602460008b81526020019081526020016000206000898781518110615be5577f4e487b7100000000000000000000000000000000000000000000000000000000600052603260045260246000fd5b602002602001015173ffffffffffffffffffffffffffffffffffffffff1673ffffffffffffffffffffffffffffffffffffffff168152602001908152602001600020546040518363ffffffff1660e01b8152600401615c45929190619b1b565b60206040518083038186803b158015615c5d57600080fd5b505afa158015615c71573d6000803e3d6000fd5b505050506040513d601f19601f82011682018060405250810190615c9591906193b0565b84615ca0919061a166565b9350600d60009054906101000a900473ffffffffffffffffffffffffffffffffffffffff1673ffffffffffffffffffffffffffffffffffffffff1663ca2e5b65868481518110615d19577f4e487b7100000000000000000000000000000000000000000000000000000000600052603260045260246000fd5b6020026020010151836040518363ffffffff1660e01b8152600401615d3f929190619b1b565b60206040518083038186803b158015615d5757600080fd5b505afa158015615d6b573d6000803e3d6000fd5b505050506040513d601f19601f82011682018060405250810190615d8f91906193b0565b83615d9a919061a166565b9250508080615da89061a558565b91505061592b565b506000600282615dc0919061a1bc565b9050808311945050505050919050565b6000600160009054906101000a900473ffffffffffffffffffffffffffffffffffffffff1673ffffffffffffffffffffffffffffffffffffffff163373ffffffffffffffffffffffffffffffffffffffff1614615e2c57600080fd5b6000600260009054906101000a900473ffffffffffffffffffffffffffffffffffffffff1673ffffffffffffffffffffffffffffffffffffffff166370a08231306040518263ffffffff1660e01b8152600401615e899190619aa0565b60206040518083038186803b158015615ea157600080fd5b505afa158015615eb5573d6000803e3d6000fd5b505050506040513d601f19601f82011682018060405250810190615ed991906193b0565b9050600260009054906101000a900473ffffffffffffffffffffffffffffffffffffffff1673ffffffffffffffffffffffffffffffffffffffff166342966c68826040518263ffffffff1660e01b8152600401615f369190619f4f565b600060405180830381600087803b158015615f5057600080fd5b505af1158015615f64573d6000803e3d6000fd5b50505050600191505090565b601e6020528060005260406000206000915090508054615f8f9061a4f5565b80601f0160208091040260200160405190810160405280929190818152602001828054615fbb9061a4f5565b80156160085780601f10615fdd57610100808354040283529160200191616008565b820191906000526020600020905b815481529060010190602001808311615feb57829003601f168201915b505050505081565b600160009054906101000a900473ffffffffffffffffffffffffffffffffffffffff1681565b6000616040616ebb565b61605e670de0b6b3a7640000600954616059919061a1ed565b617119565b5081601e6000600a5481526020019081526020016000209080519060200190616088929190618b50565b50600a543373ffffffffffffffffffffffffffffffffffffffff167f8d500fcad86fc64a281b94ef64d6d66acbfc6862aa4ff2ee5fbbfb40736e803e846040516160d29190619cab565b60405180910390a3600a549050919050565b600260159054906101000a900460ff1681565b60055481565b600160009054906101000a900473ffffffffffffffffffffffffffffffffffffffff1673ffffffffffffffffffffffffffffffffffffffff163373ffffffffffffffffffffffffffffffffffffffff161461615757600080fd5b6000601060009054906101000a900473ffffffffffffffffffffffffffffffffffffffff1673ffffffffffffffffffffffffffffffffffffffff1663bbe4f6db836040518263ffffffff1660e01b81526004016161b49190619aa0565b60206040518083038186803b1580156161cc57600080fd5b505afa1580156161e0573d6000803e3d6000fd5b505050506040513d601f19601f820116820180604052508101906162049190618f5a565b9050601a60008273ffffffffffffffffffffffffffffffffffffffff1673ffffffffffffffffffffffffffffffffffffffff16815260200190815260200160002060009054906101000a900460ff16616292576040517f08c379a000000000000000000000000000000000000000000000000000000000815260040161628990619ced565b60405180910390fd5b6000601a60008373ffffffffffffffffffffffffffffffffffffffff1673ffffffffffffffffffffffffffffffffffffffff16815260200190815260200160002060006101000a81548160ff02191690831515021790555060005b60168054905081101561650b578173ffffffffffffffffffffffffffffffffffffffff166016828154811061634b577f4e487b7100000000000000000000000000000000000000000000000000000000600052603260045260246000fd5b9060005260206000200160009054906101000a900473ffffffffffffffffffffffffffffffffffffffff1673ffffffffffffffffffffffffffffffffffffffff1614156164f857601660016016805490506163a6919061a247565b815481106163dd577f4e487b7100000000000000000000000000000000000000000000000000000000600052603260045260246000fd5b9060005260206000200160009054906101000a900473ffffffffffffffffffffffffffffffffffffffff1660168281548110616442577f4e487b7100000000000000000000000000000000000000000000000000000000600052603260045260246000fd5b9060005260206000200160006101000a81548173ffffffffffffffffffffffffffffffffffffffff021916908373ffffffffffffffffffffffffffffffffffffffff16021790555060168054806164c2577f4e487b7100000000000000000000000000000000000000000000000000000000600052603160045260246000fd5b6001900381819060005260206000200160006101000a81549073ffffffffffffffffffffffffffffffffffffffff021916905590555b80806165039061a558565b9150506162ed565b508173ffffffffffffffffffffffffffffffffffffffff163373ffffffffffffffffffffffffffffffffffffffff167ff487c2322baa448cfa506b983134d9dd9f27d0bbfe0b48119a3908d4f0dde89f60405160405180910390a35050565b600260009054906101000a900473ffffffffffffffffffffffffffffffffffffffff1681565b600080600e60009054906101000a900473ffffffffffffffffffffffffffffffffffffffff1673ffffffffffffffffffffffffffffffffffffffff1663ba0ba54f85856040518363ffffffff1660e01b81526004016165f0929190619abb565b60206040518083038186803b15801561660857600080fd5b505afa15801561661c573d6000803e3d6000fd5b505050506040513d601f19601f8201168201806040525081019061664091906193b0565b90508091505092915050565b6000600b60009054906101000a900460ff161561670a57600b60019054906101000a900473ffffffffffffffffffffffffffffffffffffffff1673ffffffffffffffffffffffffffffffffffffffff1663f301e7816040518163ffffffff1660e01b815260040160206040518083038186803b1580156166cb57600080fd5b505afa1580156166df573d6000803e3d6000fd5b505050506040513d601f19601f820116820180604052508101906167039190619227565b9050616730565b601460009054906101000a900473ffffffffffffffffffffffffffffffffffffffff1690505b90565b601a6020528060005260406000206000915054906101000a900460ff1681565b6000601680549050905090565b6000601060009054906101000a900473ffffffffffffffffffffffffffffffffffffffff1673ffffffffffffffffffffffffffffffffffffffff166351e596e06040518163ffffffff1660e01b815260040160006040518083038186803b1580156167ca57600080fd5b505afa1580156167de573d6000803e3d6000fd5b505050506040513d6000823e3d601f19601f820116820180604052508101906168079190619142565b905060005b8151811015616ab457600e60009054906101000a900473ffffffffffffffffffffffffffffffffffffffff1673ffffffffffffffffffffffffffffffffffffffff1663aa9fd37483838151811061688c577f4e487b7100000000000000000000000000000000000000000000000000000000600052603260045260246000fd5b6020026020010151336040518363ffffffff1660e01b81526004016168b2929190619abb565b60206040518083038186803b1580156168ca57600080fd5b505afa1580156168de573d6000803e3d6000fd5b505050506040513d601f19601f8201168201806040525081019061690291906193b0565b600f60009054906101000a900473ffffffffffffffffffffffffffffffffffffffff1673ffffffffffffffffffffffffffffffffffffffff1663cca92d9c848481518110616979577f4e487b7100000000000000000000000000000000000000000000000000000000600052603260045260246000fd5b6020026020010151336040518363ffffffff1660e01b815260040161699f929190619abb565b60206040518083038186803b1580156169b757600080fd5b505afa1580156169cb573d6000803e3d6000fd5b505050506040513d601f19601f820116820180604052508101906169ef91906193b0565b6169f9919061a166565b60246000600a5481526020019081526020016000206000848481518110616a49577f4e487b7100000000000000000000000000000000000000000000000000000000600052603260045260246000fd5b602002602001015173ffffffffffffffffffffffffffffffffffffffff1673ffffffffffffffffffffffffffffffffffffffff1681526020019081526020016000206000828254616a9a919061a247565b925050819055508080616aac9061a558565b91505061680c565b5050565b6000601060009054906101000a900473ffffffffffffffffffffffffffffffffffffffff1673ffffffffffffffffffffffffffffffffffffffff166351e596e06040518163ffffffff1660e01b815260040160006040518083038186803b158015616b2257600080fd5b505afa158015616b36573d6000803e3d6000fd5b505050506040513d6000823e3d601f19601f82011682018060405250810190616b5f9190619142565b905060005b8151811015616e0c57600e60009054906101000a900473ffffffffffffffffffffffffffffffffffffffff1673ffffffffffffffffffffffffffffffffffffffff1663aa9fd374838381518110616be4577f4e487b7100000000000000000000000000000000000000000000000000000000600052603260045260246000fd5b6020026020010151336040518363ffffffff1660e01b8152600401616c0a929190619abb565b60206040518083038186803b158015616c2257600080fd5b505afa158015616c36573d6000803e3d6000fd5b505050506040513d601f19601f82011682018060405250810190616c5a91906193b0565b600f60009054906101000a900473ffffffffffffffffffffffffffffffffffffffff1673ffffffffffffffffffffffffffffffffffffffff1663cca92d9c848481518110616cd1577f4e487b7100000000000000000000000000000000000000000000000000000000600052603260045260246000fd5b6020026020010151336040518363ffffffff1660e01b8152600401616cf7929190619abb565b60206040518083038186803b158015616d0f57600080fd5b505afa158015616d23573d6000803e3d6000fd5b505050506040513d601f19601f82011682018060405250810190616d4791906193b0565b616d51919061a166565b60246000600a5481526020019081526020016000206000848481518110616da1577f4e487b7100000000000000000000000000000000000000000000000000000000600052603260045260246000fd5b602002602001015173ffffffffffffffffffffffffffffffffffffffff1673ffffffffffffffffffffffffffffffffffffffff1681526020019081526020016000206000828254616df2919061a166565b925050819055508080616e049061a558565b915050616b64565b5050565b6000600282604051616e229190619a89565b602060405180830381855afa158015616e3f573d6000803e3d6000fd5b5050506040513d601f19601f82011682018060405250810190616e6291906191ac565b600284604051616e729190619a89565b602060405180830381855afa158015616e8f573d6000803e3d6000fd5b5050506040513d601f19601f82011682018060405250810190616eb291906191ac565b14905092915050565b600260149054906101000a900460ff1615616f0b576040517f08c379a0000000000000000000000000000000000000000000000000000000008152600401616f0290619ccd565b60405180910390fd5b600260159054906101000a900460ff16616f5a576040517f08c379a0000000000000000000000000000000000000000000000000000000008152600401616f5190619d4d565b60405180910390fd5b60011515601260009054906101000a900473ffffffffffffffffffffffffffffffffffffffff1673ffffffffffffffffffffffffffffffffffffffff1663194e22ce6040518163ffffffff1660e01b8152600401602060405180830381600087803b158015616fc857600080fd5b505af1158015616fdc573d6000803e3d6000fd5b505050506040513d601f19601f820116820180604052508101906170009190619183565b15151415617043576040517f08c379a000000000000000000000000000000000000000000000000000000000815260040161703a90619e4d565b60405180910390fd5b6000151560226000600a54815260200190815260200160002060009054906101000a900460ff161515146170ac576040517f08c379a00000000000000000000000000000000000000000000000000000000081526004016170a390619ecd565b60405180910390fd5b6001600560008282546170bf919061a166565b92505081905550600554600a81905550600160226000600a54815260200190815260200160002060006101000a81548160ff0219169083151502179055504260236000600a54815260200190815260200160002081905550565b6000670de0b6b3a7640000821061723d57600260009054906101000a900473ffffffffffffffffffffffffffffffffffffffff1673ffffffffffffffffffffffffffffffffffffffff166323b872dd33601260009054906101000a900473ffffffffffffffffffffffffffffffffffffffff16856040518463ffffffff1660e01b81526004016171ab93929190619ae4565b602060405180830381600087803b1580156171c557600080fd5b505af11580156171d9573d6000803e3d6000fd5b505050506040513d601f19601f820116820180604052508101906171fd9190619183565b61723c576040517f08c379a000000000000000000000000000000000000000000000000000000000815260040161723390619d2d565b60405180910390fd5b5b60019050919050565b6000601e6000600a54815260200190815260200160002080546172689061a4f5565b80601f01602080910402602001604051908101604052809291908181526020018280546172949061a4f5565b80156172e15780601f106172b6576101008083540402835291602001916172e1565b820191906000526020600020905b8154815290600101906020018083116172c457829003601f168201915b50505050509050600160206000600a54815260200190815260200160002060006101000a81548160ff02191690831515021790555042601f6000600a54815260200190815260200160002081905550600a543373ffffffffffffffffffffffffffffffffffffffff167f0f36aea5066f9f90a999260fe4ce8d7713f7f07f5ae61bf36d73cc51170a3a9e60045442617379919061a166565b84604051617388929190619f93565b60405180910390a350565b60006a0211654585005212800000600260009054906101000a900473ffffffffffffffffffffffffffffffffffffffff1673ffffffffffffffffffffffffffffffffffffffff1663dd62ed3e30600c60009054906101000a900473ffffffffffffffffffffffffffffffffffffffff166040518363ffffffff1660e01b8152600401617420929190619abb565b60206040518083038186803b15801561743857600080fd5b505afa15801561744c573d6000803e3d6000fd5b505050506040513d601f19601f8201168201806040525081019061747091906193b0565b10156175e857600260009054906101000a900473ffffffffffffffffffffffffffffffffffffffff1673ffffffffffffffffffffffffffffffffffffffff1663095ea7b3600c60009054906101000a900473ffffffffffffffffffffffffffffffffffffffff16600260009054906101000a900473ffffffffffffffffffffffffffffffffffffffff1673ffffffffffffffffffffffffffffffffffffffff166318160ddd6040518163ffffffff1660e01b815260040160206040518083038186803b15801561753f57600080fd5b505afa158015617553573d6000803e3d6000fd5b505050506040513d601f19601f8201168201806040525081019061757791906193b0565b6040518363ffffffff1660e01b8152600401617594929190619b1b565b602060405180830381600087803b1580156175ae57600080fd5b505af11580156175c2573d6000803e3d6000fd5b505050506040513d601f19601f820116820180604052508101906175e69190619183565b505b600073ffffffffffffffffffffffffffffffffffffffff168373ffffffffffffffffffffffffffffffffffffffff1614156177ee5734821461765f576040517f08c379a000000000000000000000000000000000000000000000000000000000815260040161765690619e8d565b60405180910390fd5b6000600d60009054906101000a900473ffffffffffffffffffffffffffffffffffffffff1673ffffffffffffffffffffffffffffffffffffffff1663b80e44b885856040518363ffffffff1660e01b81526004016176be929190619b1b565b60206040518083038186803b1580156176d657600080fd5b505afa1580156176ea573d6000803e3d6000fd5b505050506040513d601f19601f8201168201806040525081019061770e91906193b0565b9050600c60009054906101000a900473ffffffffffffffffffffffffffffffffffffffff1673ffffffffffffffffffffffffffffffffffffffff166393cac68584838688600e60009054906101000a900473ffffffffffffffffffffffffffffffffffffffff166040518663ffffffff1660e01b81526004016177949493929190619fec565b6020604051808303818588803b1580156177ad57600080fd5b505af11580156177c1573d6000803e3d6000fd5b50505050506040513d601f19601f820116820180604052508101906177e691906193b0565b915050617c7e565b8273ffffffffffffffffffffffffffffffffffffffff166323b872dd3330856040518463ffffffff1660e01b815260040161782b93929190619ae4565b602060405180830381600087803b15801561784557600080fd5b505af1158015617859573d6000803e3d6000fd5b505050506040513d601f19601f8201168201806040525081019061787d9190619183565b5060008373ffffffffffffffffffffffffffffffffffffffff166370a08231306040518263ffffffff1660e01b81526004016178b99190619aa0565b60206040518083038186803b1580156178d157600080fd5b505afa1580156178e5573d6000803e3d6000fd5b505050506040513d601f19601f8201168201806040525081019061790991906193b0565b90506000600d60009054906101000a900473ffffffffffffffffffffffffffffffffffffffff1673ffffffffffffffffffffffffffffffffffffffff1663b80e44b886846040518363ffffffff1660e01b815260040161796a929190619b1b565b60206040518083038186803b15801561798257600080fd5b505afa158015617996573d6000803e3d6000fd5b505050506040513d601f19601f820116820180604052508101906179ba91906193b0565b9050818573ffffffffffffffffffffffffffffffffffffffff1663dd62ed3e30600c60009054906101000a900473ffffffffffffffffffffffffffffffffffffffff166040518363ffffffff1660e01b8152600401617a1a929190619abb565b60206040518083038186803b158015617a3257600080fd5b505afa158015617a46573d6000803e3d6000fd5b505050506040513d601f19601f82011682018060405250810190617a6a91906193b0565b1015617ba45760008573ffffffffffffffffffffffffffffffffffffffff166318160ddd6040518163ffffffff1660e01b815260040160206040518083038186803b158015617ab857600080fd5b505afa158015617acc573d6000803e3d6000fd5b505050506040513d601f19601f82011682018060405250810190617af091906193b0565b90508573ffffffffffffffffffffffffffffffffffffffff1663095ea7b3600c60009054906101000a900473ffffffffffffffffffffffffffffffffffffffff16836040518363ffffffff1660e01b8152600401617b4f929190619b1b565b602060405180830381600087803b158015617b6957600080fd5b505af1158015617b7d573d6000803e3d6000fd5b505050506040513d601f19601f82011682018060405250810190617ba19190619183565b50505b600c60009054906101000a900473ffffffffffffffffffffffffffffffffffffffff1673ffffffffffffffffffffffffffffffffffffffff166393cac685828488600e60009054906101000a900473ffffffffffffffffffffffffffffffffffffffff166040518563ffffffff1660e01b8152600401617c279493929190619fec565b602060405180830381600087803b158015617c4157600080fd5b505af1158015617c55573d6000803e3d6000fd5b505050506040513d601f19601f82011682018060405250810190617c7991906193b0565b925050505b92915050565b6000601d600083815260200190815260200160002060009054906101000a900473ffffffffffffffffffffffffffffffffffffffff16905080600b60016101000a81548173ffffffffffffffffffffffffffffffffffffffff021916908373ffffffffffffffffffffffffffffffffffffffff160217905550600260009054906101000a900473ffffffffffffffffffffffffffffffffffffffff1673ffffffffffffffffffffffffffffffffffffffff16631d007f5f826040518263ffffffff1660e01b8152600401617d589190619aa0565b600060405180830381600087803b158015617d7257600080fd5b505af1158015617d86573d6000803e3d6000fd5b505050506001600b60006101000a81548160ff021916908315150217905550617dae826188c8565b5050565b6000601d600083815260200190815260200160002060009054906101000a900473ffffffffffffffffffffffffffffffffffffffff16905080600c60006101000a81548173ffffffffffffffffffffffffffffffffffffffff021916908373ffffffffffffffffffffffffffffffffffffffff160217905550617e34826188c8565b5050565b6000601d600083815260200190815260200160002060009054906101000a900473ffffffffffffffffffffffffffffffffffffffff16905080600d60006101000a81548173ffffffffffffffffffffffffffffffffffffffff021916908373ffffffffffffffffffffffffffffffffffffffff160217905550617eba826188c8565b5050565b6000601d600083815260200190815260200160002060009054906101000a900473ffffffffffffffffffffffffffffffffffffffff16905080601260006101000a81548173ffffffffffffffffffffffffffffffffffffffff021916908373ffffffffffffffffffffffffffffffffffffffff160217905550617f40826188c8565b5050565b600260009054906101000a900473ffffffffffffffffffffffffffffffffffffffff1673ffffffffffffffffffffffffffffffffffffffff1663fe1fa8fa6040518163ffffffff1660e01b8152600401600060405180830381600087803b158015617fae57600080fd5b505af1158015617fc2573d6000803e3d6000fd5b50505050617fcf816188c8565b50565b6000601c600083815260200190815260200160002054905080600481905550617ffa826188c8565b5050565b6000601c600083815260200190815260200160002054905080600781905550618026826188c8565b5050565b6000601c60008381526020019081526020016000205490506000601d600084815260200190815260200160002060009054906101000a900473ffffffffffffffffffffffffffffffffffffffff169050601260009054906101000a900473ffffffffffffffffffffffffffffffffffffffff1673ffffffffffffffffffffffffffffffffffffffff16637d458baa83836040518363ffffffff1660e01b81526004016180d7929190619f6a565b600060405180830381600087803b1580156180f157600080fd5b505af1158015618105573d6000803e3d6000fd5b50505050618112836188c8565b505050565b60006a02116545850052128000009050600260009054906101000a900473ffffffffffffffffffffffffffffffffffffffff1673ffffffffffffffffffffffffffffffffffffffff1663d01f6fba82306040518363ffffffff1660e01b8152600401618184929190619f6a565b600060405180830381600087803b15801561819e57600080fd5b505af11580156181b2573d6000803e3d6000fd5b505050506181bf826188c8565b5050565b6000601d600083815260200190815260200160002060009054906101000a900473ffffffffffffffffffffffffffffffffffffffff169050601a60008273ffffffffffffffffffffffffffffffffffffffff1673ffffffffffffffffffffffffffffffffffffffff16815260200190815260200160002060009054906101000a900460ff16618308576001601a60008373ffffffffffffffffffffffffffffffffffffffff1673ffffffffffffffffffffffffffffffffffffffff16815260200190815260200160002060006101000a81548160ff0219169083151502179055506016819080600181540180825580915050600190039060005260206000200160009091909190916101000a81548173ffffffffffffffffffffffffffffffffffffffff021916908373ffffffffffffffffffffffffffffffffffffffff1602179055505b618311826188c8565b5050565b6000601d600083815260200190815260200160002060009054906101000a900473ffffffffffffffffffffffffffffffffffffffff169050601a60008273ffffffffffffffffffffffffffffffffffffffff1673ffffffffffffffffffffffffffffffffffffffff16815260200190815260200160002060009054906101000a900460ff161561861a576000601a60008373ffffffffffffffffffffffffffffffffffffffff1673ffffffffffffffffffffffffffffffffffffffff16815260200190815260200160002060006101000a81548160ff02191690831515021790555060005b601680549050811015618618578173ffffffffffffffffffffffffffffffffffffffff1660168281548110618458577f4e487b7100000000000000000000000000000000000000000000000000000000600052603260045260246000fd5b9060005260206000200160009054906101000a900473ffffffffffffffffffffffffffffffffffffffff1673ffffffffffffffffffffffffffffffffffffffff16141561860557601660016016805490506184b3919061a247565b815481106184ea577f4e487b7100000000000000000000000000000000000000000000000000000000600052603260045260246000fd5b9060005260206000200160009054906101000a900473ffffffffffffffffffffffffffffffffffffffff166016828154811061854f577f4e487b7100000000000000000000000000000000000000000000000000000000600052603260045260246000fd5b9060005260206000200160006101000a81548173ffffffffffffffffffffffffffffffffffffffff021916908373ffffffffffffffffffffffffffffffffffffffff16021790555060168054806185cf577f4e487b7100000000000000000000000000000000000000000000000000000000600052603160045260246000fd5b6001900381819060005260206000200160006101000a81549073ffffffffffffffffffffffffffffffffffffffff021916905590555b80806186109061a558565b9150506183fa565b505b618623826188c8565b5050565b6000601d600083815260200190815260200160002060009054906101000a900473ffffffffffffffffffffffffffffffffffffffff169050601a60008273ffffffffffffffffffffffffffffffffffffffff1673ffffffffffffffffffffffffffffffffffffffff16815260200190815260200160002060009054906101000a900460ff1661873e57601060009054906101000a900473ffffffffffffffffffffffffffffffffffffffff1673ffffffffffffffffffffffffffffffffffffffff16632b2260a8826040518263ffffffff1660e01b815260040161870b9190619aa0565b600060405180830381600087803b15801561872557600080fd5b505af1158015618739573d6000803e3d6000fd5b505050505b618747826188c8565b5050565b6000601d600083815260200190815260200160002060009054906101000a900473ffffffffffffffffffffffffffffffffffffffff169050601060009054906101000a900473ffffffffffffffffffffffffffffffffffffffff1673ffffffffffffffffffffffffffffffffffffffff16637ca51fbf826040518263ffffffff1660e01b81526004016187de9190619aa0565b600060405180830381600087803b1580156187f857600080fd5b505af115801561880c573d6000803e3d6000fd5b50505050601a60008273ffffffffffffffffffffffffffffffffffffffff1673ffffffffffffffffffffffffffffffffffffffff16815260200190815260200160002060009054906101000a900460ff16156188bb576000601a60008373ffffffffffffffffffffffffffffffffffffffff1673ffffffffffffffffffffffffffffffffffffffff16815260200190815260200160002060006101000a81548160ff0219169083151502179055505b6188c4826188c8565b5050565b6000601e600083815260200190815260200160002080546188e89061a4f5565b80601f01602080910402602001604051908101604052809291908181526020018280546189149061a4f5565b80156189615780601f1061893657610100808354040283529160200191618961565b820191906000526020600020905b81548152906001019060200180831161894457829003601f168201915b505050505090506000601060009054906101000a900473ffffffffffffffffffffffffffffffffffffffff1673ffffffffffffffffffffffffffffffffffffffff166351e596e06040518163ffffffff1660e01b815260040160006040518083038186803b1580156189d257600080fd5b505afa1580156189e6573d6000803e3d6000fd5b505050506040513d6000823e3d601f19601f82011682018060405250810190618a0f9190619142565b905060005b8151811015618ac6576000602460008681526020019081526020016000206000848481518110618a6d577f4e487b7100000000000000000000000000000000000000000000000000000000600052603260045260246000fd5b602002602001015173ffffffffffffffffffffffffffffffffffffffff1673ffffffffffffffffffffffffffffffffffffffff168152602001908152602001600020819055508080618abe9061a558565b915050618a14565b5060016021600085815260200190815260200160002060006101000a81548160ff02191690831515021790555060006020600085815260200190815260200160002060006101000a81548160ff02191690831515021790555060006022600085815260200190815260200160002060006101000a81548160ff021916908315150217905550505050565b828054618b5c9061a4f5565b90600052602060002090601f016020900481019282618b7e5760008555618bc5565b82601f10618b9757805160ff1916838001178555618bc5565b82800160010185558215618bc5579182015b82811115618bc4578251825591602001919060010190618ba9565b5b509050618bd29190618c45565b5090565b6040518061014001604052806000815260200160608152602001600081526020016000815260200160001515815260200160001515815260200160008152602001600073ffffffffffffffffffffffffffffffffffffffff168152602001600015158152602001600081525090565b5b80821115618c5e576000816000905550600101618c46565b5090565b6000618c75618c708461a08d565b61a068565b90508083825260208201905082856020860282011115618c9457600080fd5b60005b85811015618cc45781618caa8882618d78565b845260208401935060208301925050600181019050618c97565b5050509392505050565b6000618ce1618cdc8461a08d565b61a068565b90508083825260208201905082856020860282011115618d0057600080fd5b60005b85811015618d305781618d168882618d8d565b845260208401935060208301925050600181019050618d03565b5050509392505050565b6000618d4d618d488461a0b9565b61a068565b905082815260208101848484011115618d6557600080fd5b618d7084828561a4b3565b509392505050565b600081359050618d878161a953565b92915050565b600081519050618d9c8161a953565b92915050565b600082601f830112618db357600080fd5b8135618dc3848260208601618c62565b91505092915050565b600082601f830112618ddd57600080fd5b8151618ded848260208601618cce565b91505092915050565b600081519050618e058161a96a565b92915050565b600081519050618e1a8161a981565b92915050565b600081519050618e2f8161a998565b92915050565b600081519050618e448161a9af565b92915050565b600081519050618e598161a9c6565b92915050565b600081519050618e6e8161a9dd565b92915050565b600081519050618e838161a9f4565b92915050565b600081519050618e988161aa0b565b92915050565b600081519050618ead8161aa22565b92915050565b600081519050618ec28161aa39565b92915050565b600081519050618ed78161aa50565b92915050565b600082601f830112618eee57600080fd5b8135618efe848260208601618d3a565b91505092915050565b600081359050618f168161aa67565b92915050565b600081519050618f2b8161aa67565b92915050565b600060208284031215618f4357600080fd5b6000618f5184828501618d78565b91505092915050565b600060208284031215618f6c57600080fd5b6000618f7a84828501618d8d565b91505092915050565b60008060408385031215618f9657600080fd5b6000618fa485828601618d78565b9250506020618fb585828601618d78565b9150509250929050565b600080600060608486031215618fd457600080fd5b6000618fe286828701618d78565b9350506020618ff386828701618d78565b925050604061900486828701618d78565b9150509250925092565b6000806000806080858703121561902457600080fd5b600061903287828801618d78565b945050602061904387828801618d78565b935050604061905487828801618d78565b925050606061906587828801618d78565b91505092959194509250565b6000806040838503121561908457600080fd5b600061909285828601618d78565b925050602083013567ffffffffffffffff8111156190af57600080fd5b6190bb85828601618edd565b9150509250929050565b600080604083850312156190d857600080fd5b60006190e685828601618d78565b92505060206190f785828601618f07565b9150509250929050565b60006020828403121561911357600080fd5b600082013567ffffffffffffffff81111561912d57600080fd5b61913984828501618da2565b91505092915050565b60006020828403121561915457600080fd5b600082015167ffffffffffffffff81111561916e57600080fd5b61917a84828501618dcc565b91505092915050565b60006020828403121561919557600080fd5b60006191a384828501618df6565b91505092915050565b6000602082840312156191be57600080fd5b60006191cc84828501618e0b565b91505092915050565b6000602082840312156191e757600080fd5b60006191f584828501618e20565b91505092915050565b60006020828403121561921057600080fd5b600061921e84828501618e35565b91505092915050565b60006020828403121561923957600080fd5b600061924784828501618e4a565b91505092915050565b60006020828403121561926257600080fd5b600061927084828501618e5f565b91505092915050565b60006020828403121561928b57600080fd5b600061929984828501618e74565b91505092915050565b6000602082840312156192b457600080fd5b60006192c284828501618e89565b91505092915050565b6000602082840312156192dd57600080fd5b60006192eb84828501618e9e565b91505092915050565b60006020828403121561930657600080fd5b600061931484828501618eb3565b91505092915050565b60006020828403121561932f57600080fd5b600061933d84828501618ec8565b91505092915050565b60006020828403121561935857600080fd5b600082013567ffffffffffffffff81111561937257600080fd5b61937e84828501618edd565b91505092915050565b60006020828403121561939957600080fd5b60006193a784828501618f07565b91505092915050565b6000602082840312156193c257600080fd5b60006193d084828501618f1c565b91505092915050565b600080604083850312156193ec57600080fd5b60006193fa85828601618f07565b925050602061940b85828601618d78565b9150509250929050565b6000806040838503121561942857600080fd5b600061943685828601618f07565b925050602083013567ffffffffffffffff81111561945357600080fd5b61945f85828601618edd565b9150509250929050565b6000806040838503121561947c57600080fd5b600061948a85828601618f1c565b925050602061949b85828601618f1c565b9150509250929050565b600080600080600060a086880312156194bd57600080fd5b60006194cb88828901618f07565b95505060206194dc88828901618f07565b94505060406194ed88828901618f07565b93505060606194fe88828901618f07565b925050608061950f88828901618f07565b9150509295509295909350565b60006195288383619534565b60208301905092915050565b61953d8161a27b565b82525050565b61954c8161a27b565b82525050565b600061955d8261a0fa565b619567818561a128565b93506195728361a0ea565b8060005b838110156195a357815161958a888261951c565b97506195958361a11b565b925050600181019050619576565b5085935050505092915050565b6195b98161a28d565b82525050565b6195c88161a28d565b82525050565b60006195d98261a105565b6195e3818561a139565b93506195f381856020860161a4c2565b80840191505092915050565b6196088161a36f565b82525050565b6196178161a393565b82525050565b6196268161a3b7565b82525050565b6196358161a3db565b82525050565b6196448161a3ff565b82525050565b6196538161a423565b82525050565b6196628161a447565b82525050565b6196718161a46b565b82525050565b6196808161a48f565b82525050565b60006196918261a110565b61969b818561a144565b93506196ab81856020860161a4c2565b6196b48161a65d565b840191505092915050565b60006196ca8261a110565b6196d4818561a155565b93506196e481856020860161a4c2565b6196ed8161a65d565b840191505092915050565b600061970560048361a155565b91506197108261a66e565b602082019050919050565b600061972860078361a155565b91506197338261a697565b602082019050919050565b600061974b60078361a155565b91506197568261a6c0565b602082019050919050565b600061976e60048361a155565b91506197798261a6e9565b602082019050919050565b600061979160058361a155565b915061979c8261a712565b602082019050919050565b60006197b4600a8361a155565b91506197bf8261a73b565b602082019050919050565b60006197d760088361a155565b91506197e28261a764565b602082019050919050565b60006197fa60068361a155565b91506198058261a78d565b602082019050919050565b600061981d600b8361a155565b91506198288261a7b6565b602082019050919050565b600061984060068361a155565b915061984b8261a7df565b602082019050919050565b600061986360088361a155565b915061986e8261a808565b602082019050919050565b600061988660098361a155565b91506198918261a831565b602082019050919050565b60006198a960008361a155565b91506198b48261a85a565b600082019050919050565b60006198cc60068361a155565b91506198d78261a85d565b602082019050919050565b60006198ef60078361a155565b91506198fa8261a886565b602082019050919050565b600061991260088361a155565b915061991d8261a8af565b602082019050919050565b600061993560058361a155565b91506199408261a8d8565b602082019050919050565b6000619958601f8361a155565b91506199638261a901565b602082019050919050565b600061997b60058361a155565b91506199868261a92a565b602082019050919050565b6000610140830160008301516199aa6000860182619a6b565b50602083015184820360208601526199c28282619686565b91505060408301516199d76040860182619a6b565b5060608301516199ea6060860182619a6b565b5060808301516199fd60808601826195b0565b5060a0830151619a1060a08601826195b0565b5060c0830151619a2360c0860182619a6b565b5060e0830151619a3660e0860182619534565b50610100830151619a4b6101008601826195b0565b50610120830151619a60610120860182619a6b565b508091505092915050565b619a748161a365565b82525050565b619a838161a365565b82525050565b6000619a9582846195ce565b915081905092915050565b6000602082019050619ab56000830184619543565b92915050565b6000604082019050619ad06000830185619543565b619add6020830184619543565b9392505050565b6000606082019050619af96000830186619543565b619b066020830185619543565b619b136040830184619a7a565b949350505050565b6000604082019050619b306000830185619543565b619b3d6020830184619a7a565b9392505050565b6000606082019050619b596000830186619543565b619b666020830185619a7a565b619b736040830184619543565b949350505050565b60006020820190508181036000830152619b958184619552565b905092915050565b6000602082019050619bb260008301846195bf565b92915050565b6000602082019050619bcd60008301846195ff565b92915050565b6000602082019050619be8600083018461960e565b92915050565b6000602082019050619c03600083018461961d565b92915050565b6000602082019050619c1e600083018461962c565b92915050565b6000602082019050619c39600083018461963b565b92915050565b6000602082019050619c54600083018461964a565b92915050565b6000602082019050619c6f6000830184619659565b92915050565b6000602082019050619c8a6000830184619668565b92915050565b6000602082019050619ca56000830184619677565b92915050565b60006020820190508181036000830152619cc581846196bf565b905092915050565b60006020820190508181036000830152619ce6816196f8565b9050919050565b60006020820190508181036000830152619d068161971b565b9050919050565b60006020820190508181036000830152619d268161973e565b9050919050565b60006020820190508181036000830152619d4681619761565b9050919050565b60006020820190508181036000830152619d6681619784565b9050919050565b60006020820190508181036000830152619d86816197a7565b9050919050565b60006020820190508181036000830152619da6816197ca565b9050919050565b60006020820190508181036000830152619dc6816197ed565b9050919050565b60006020820190508181036000830152619de681619810565b9050919050565b60006020820190508181036000830152619e0681619833565b9050919050565b60006020820190508181036000830152619e2681619856565b9050919050565b60006020820190508181036000830152619e4681619879565b9050919050565b60006020820190508181036000830152619e668161989c565b9050919050565b60006020820190508181036000830152619e86816198bf565b9050919050565b60006020820190508181036000830152619ea6816198e2565b9050919050565b60006020820190508181036000830152619ec681619905565b9050919050565b60006020820190508181036000830152619ee681619928565b9050919050565b60006020820190508181036000830152619f068161994b565b9050919050565b60006020820190508181036000830152619f268161996e565b9050919050565b60006020820190508181036000830152619f478184619991565b905092915050565b6000602082019050619f646000830184619a7a565b92915050565b6000604082019050619f7f6000830185619a7a565b619f8c6020830184619543565b9392505050565b6000604082019050619fa86000830185619a7a565b8181036020830152619fba81846196bf565b90509392505050565b6000604082019050619fd86000830185619a7a565b619fe56020830184619a7a565b9392505050565b600060808201905061a0016000830187619a7a565b61a00e6020830186619a7a565b61a01b6040830185619543565b61a0286060830184619543565b95945050505050565b600060608201905061a0466000830186619a7a565b61a0536020830185619a7a565b61a0606040830184619a7a565b949350505050565b600061a07261a083565b905061a07e828261a527565b919050565b6000604051905090565b600067ffffffffffffffff82111561a0a85761a0a761a62e565b5b602082029050602081019050919050565b600067ffffffffffffffff82111561a0d45761a0d361a62e565b5b61a0dd8261a65d565b9050602081019050919050565b6000819050602082019050919050565b600081519050919050565b600081519050919050565b600081519050919050565b6000602082019050919050565b600082825260208201905092915050565b600081905092915050565b600082825260208201905092915050565b600082825260208201905092915050565b600061a1718261a365565b915061a17c8361a365565b9250827fffffffffffffffffffffffffffffffffffffffffffffffffffffffffffffffff0382111561a1b15761a1b061a5a1565b5b828201905092915050565b600061a1c78261a365565b915061a1d28361a365565b92508261a1e25761a1e161a5d0565b5b828204905092915050565b600061a1f88261a365565b915061a2038361a365565b9250817fffffffffffffffffffffffffffffffffffffffffffffffffffffffffffffffff048311821515161561a23c5761a23b61a5a1565b5b828202905092915050565b600061a2528261a365565b915061a25d8361a365565b92508282101561a2705761a26f61a5a1565b5b828203905092915050565b600061a2868261a345565b9050919050565b60008115159050919050565b6000819050919050565b600061a2ae8261a27b565b9050919050565b600061a2c08261a27b565b9050919050565b600061a2d28261a27b565b9050919050565b600061a2e48261a27b565b9050919050565b600061a2f68261a27b565b9050919050565b600061a3088261a27b565b9050919050565b600061a31a8261a27b565b9050919050565b600061a32c8261a27b565b9050919050565b600061a33e8261a27b565b9050919050565b600073ffffffffffffffffffffffffffffffffffffffff82169050919050565b6000819050919050565b600061a37a8261a381565b9050919050565b600061a38c8261a345565b9050919050565b600061a39e8261a3a5565b9050919050565b600061a3b08261a345565b9050919050565b600061a3c28261a3c9565b9050919050565b600061a3d48261a345565b9050919050565b600061a3e68261a3ed565b9050919050565b600061a3f88261a345565b9050919050565b600061a40a8261a411565b9050919050565b600061a41c8261a345565b9050919050565b600061a42e8261a435565b9050919050565b600061a4408261a345565b9050919050565b600061a4528261a459565b9050919050565b600061a4648261a345565b9050919050565b600061a4768261a47d565b9050919050565b600061a4888261a345565b9050919050565b600061a49a8261a4a1565b9050919050565b600061a4ac8261a345565b9050919050565b82818337600083830152505050565b60005b8381101561a4e057808201518184015260208101905061a4c5565b8381111561a4ef576000848401525b50505050565b6000600282049050600182168061a50d57607f821691505b6020821081141561a5215761a52061a5ff565b5b50919050565b61a5308261a65d565b810181811067ffffffffffffffff8211171561a54f5761a54e61a62e565b5b80604052505050565b600061a5638261a365565b91507fffffffffffffffffffffffffffffffffffffffffffffffffffffffffffffffff82141561a5965761a59561a5a1565b5b600182019050919050565b7f4e487b7100000000000000000000000000000000000000000000000000000000600052601160045260246000fd5b7f4e487b7100000000000000000000000000000000000000000000000000000000600052601260045260246000fd5b7f4e487b7100000000000000000000000000000000000000000000000000000000600052602260045260246000fd5b7f4e487b7100000000000000000000000000000000000000000000000000000000600052604160045260246000fd5b6000601f19601f8301169050919050565b7f434f4d4100000000000000000000000000000000000000000000000000000000600082015250565b7f216c697374656400000000000000000000000000000000000000000000000000600082015250565b7f21414d4f554e5400000000000000000000000000000000000000000000000000600082015250565b7f2166656500000000000000000000000000000000000000000000000000000000600082015250565b7f534c454550000000000000000000000000000000000000000000000000000000600082015250565b7f21656d697373696f6e7300000000000000000000000000000000000000000000600082015250565b7f21636f6f6c6f6666000000000000000000000000000000000000000000000000600082015250565b7f6c69737465640000000000000000000000000000000000000000000000000000600082015250565b7f2166696e616c6973696e67000000000000000000000000000000000000000000600082015250565b7f2166756e64730000000000000000000000000000000000000000000000000000600082015250565b7f2163757261746564000000000000000000000000000000000000000000000000600082015250565b7f217472616e736665720000000000000000000000000000000000000000000000600082015250565b50565b7f21706172616d0000000000000000000000000000000000000000000000000000600082015250565b7f21616d6f756e7400000000000000000000000000000000000000000000000000600082015250565b7f2161646472657373000000000000000000000000000000000000000000000000600082015250565b7f216f70656e000000000000000000000000000000000000000000000000000000600082015250565b7f5265656e7472616e637947756172643a207265656e7472616e742063616c6c00600082015250565b7f2164617973000000000000000000000000000000000000000000000000000000600082015250565b61a95c8161a27b565b811461a96757600080fd5b50565b61a9738161a28d565b811461a97e57600080fd5b50565b61a98a8161a299565b811461a99557600080fd5b50565b61a9a18161a2a3565b811461a9ac57600080fd5b50565b61a9b88161a2b5565b811461a9c357600080fd5b50565b61a9cf8161a2c7565b811461a9da57600080fd5b50565b61a9e68161a2d9565b811461a9f157600080fd5b50565b61a9fd8161a2eb565b811461aa0857600080fd5b50565b61aa148161a2fd565b811461aa1f57600080fd5b50565b61aa2b8161a30f565b811461aa3657600080fd5b50565b61aa428161a321565b811461aa4d57600080fd5b50565b61aa598161a333565b811461aa6457600080fd5b50565b61aa708161a365565b811461aa7b57600080fd5b5056fea2646970667358221220a77220b9618aacb63b9befd650c7fee58aea12ed622b25ce9b3113cad8f5f62564736f6c63430008030033",
  "linkReferences": {},
  "deployedLinkReferences": {}
}