{
  "_format": "hh-sol-artifact-1",
  "contractName": "Dao",
  "sourceName": "contracts/Dao.sol",
  "abi": [
    {
      "inputs": [
        {
          "internalType": "address",
          "name": "_base",
          "type": "address"
        }
      ],
      "stateMutability": "nonpayable",
      "type": "constructor"
    },
    {
      "anonymous": false,
      "inputs": [
        {
          "indexed": true,
          "internalType": "address",
          "name": "member",
          "type": "address"
        },
        {
          "indexed": true,
          "internalType": "uint256",
          "name": "oldProposalID",
          "type": "uint256"
        },
        {
          "indexed": false,
          "internalType": "uint256",
          "name": "oldVotes",
          "type": "uint256"
        },
        {
          "indexed": false,
          "internalType": "uint256",
          "name": "newVotes",
          "type": "uint256"
        },
        {
          "indexed": false,
          "internalType": "uint256",
          "name": "totalWeight",
          "type": "uint256"
        }
      ],
      "name": "CancelProposal",
      "type": "event"
    },
    {
      "anonymous": false,
      "inputs": [
        {
          "indexed": true,
          "internalType": "address",
          "name": "DAO",
          "type": "address"
        },
        {
          "indexed": true,
          "internalType": "address",
          "name": "asset",
          "type": "address"
        }
      ],
      "name": "DelistedAsset",
      "type": "event"
    },
    {
      "anonymous": false,
      "inputs": [
        {
          "indexed": true,
          "internalType": "address",
          "name": "owner",
          "type": "address"
        },
        {
          "indexed": false,
          "internalType": "uint256",
          "name": "depositAmount",
          "type": "uint256"
        },
        {
          "indexed": false,
          "internalType": "uint256",
          "name": "bondedLP",
          "type": "uint256"
        }
      ],
      "name": "DepositAsset",
      "type": "event"
    },
    {
      "anonymous": false,
      "inputs": [
        {
          "indexed": true,
          "internalType": "address",
          "name": "member",
          "type": "address"
        },
        {
          "indexed": true,
          "internalType": "uint256",
          "name": "proposalID",
          "type": "uint256"
        },
        {
          "indexed": false,
          "internalType": "uint256",
          "name": "votesCast",
          "type": "uint256"
        },
        {
          "indexed": false,
          "internalType": "uint256",
          "name": "totalWeight",
          "type": "uint256"
        },
        {
          "indexed": false,
          "internalType": "string",
          "name": "proposalType",
          "type": "string"
        }
      ],
      "name": "FinalisedProposal",
      "type": "event"
    },
    {
      "anonymous": false,
      "inputs": [
        {
          "indexed": true,
          "internalType": "address",
          "name": "DAO",
          "type": "address"
        },
        {
          "indexed": true,
          "internalType": "address",
          "name": "asset",
          "type": "address"
        }
      ],
      "name": "ListedAsset",
      "type": "event"
    },
    {
      "anonymous": false,
      "inputs": [
        {
          "indexed": true,
          "internalType": "address",
          "name": "member",
          "type": "address"
        },
        {
          "indexed": true,
          "internalType": "address",
          "name": "pool",
          "type": "address"
        },
        {
          "indexed": false,
          "internalType": "uint256",
          "name": "amount",
          "type": "uint256"
        }
      ],
      "name": "MemberDeposits",
      "type": "event"
    },
    {
      "anonymous": false,
      "inputs": [
        {
          "indexed": true,
          "internalType": "address",
          "name": "member",
          "type": "address"
        },
        {
          "indexed": true,
          "internalType": "address",
          "name": "pool",
          "type": "address"
        },
        {
          "indexed": false,
          "internalType": "uint256",
          "name": "balance",
          "type": "uint256"
        }
      ],
      "name": "MemberWithdraws",
      "type": "event"
    },
    {
      "anonymous": false,
      "inputs": [
        {
          "indexed": true,
          "internalType": "address",
          "name": "member",
          "type": "address"
        },
        {
          "indexed": true,
          "internalType": "uint256",
          "name": "proposalID",
          "type": "uint256"
        },
        {
          "indexed": false,
          "internalType": "string",
          "name": "proposalType",
          "type": "string"
        }
      ],
      "name": "NewProposal",
      "type": "event"
    },
    {
      "anonymous": false,
      "inputs": [
        {
          "indexed": true,
          "internalType": "address",
          "name": "member",
          "type": "address"
        },
        {
          "indexed": true,
          "internalType": "uint256",
          "name": "proposalID",
          "type": "uint256"
        },
        {
          "indexed": false,
          "internalType": "uint256",
          "name": "voteWeight",
          "type": "uint256"
        },
        {
          "indexed": false,
          "internalType": "uint256",
          "name": "totalVotes",
          "type": "uint256"
        },
        {
          "indexed": false,
          "internalType": "string",
          "name": "proposalType",
          "type": "string"
        }
      ],
      "name": "NewVote",
      "type": "event"
    },
    {
      "anonymous": false,
      "inputs": [
        {
          "indexed": true,
          "internalType": "address",
          "name": "member",
          "type": "address"
        },
        {
          "indexed": true,
          "internalType": "uint256",
          "name": "proposalID",
          "type": "uint256"
        },
        {
          "indexed": false,
          "internalType": "uint256",
          "name": "timeFinalised",
          "type": "uint256"
        },
        {
          "indexed": false,
          "internalType": "string",
          "name": "proposalType",
          "type": "string"
        }
      ],
      "name": "ProposalFinalising",
      "type": "event"
    },
    {
      "anonymous": false,
      "inputs": [
        {
          "indexed": true,
          "internalType": "address",
          "name": "member",
          "type": "address"
        },
        {
          "indexed": true,
          "internalType": "uint256",
          "name": "proposalID",
          "type": "uint256"
        },
        {
          "indexed": false,
          "internalType": "uint256",
          "name": "voteWeight",
          "type": "uint256"
        },
        {
          "indexed": false,
          "internalType": "uint256",
          "name": "totalVotes",
          "type": "uint256"
        },
        {
          "indexed": false,
          "internalType": "string",
          "name": "proposalType",
          "type": "string"
        }
      ],
      "name": "RemovedVote",
      "type": "event"
    },
    {
      "inputs": [],
      "name": "BASE",
      "outputs": [
        {
          "internalType": "address",
          "name": "",
          "type": "address"
        }
      ],
      "stateMutability": "view",
      "type": "function"
    },
    {
      "inputs": [],
      "name": "BONDVAULT",
      "outputs": [
        {
          "internalType": "contract iBONDVAULT",
          "name": "",
          "type": "address"
        }
      ],
      "stateMutability": "view",
      "type": "function"
    },
    {
      "inputs": [],
      "name": "DAO",
      "outputs": [
        {
          "internalType": "address",
          "name": "",
          "type": "address"
        }
      ],
      "stateMutability": "view",
      "type": "function"
    },
    {
      "inputs": [],
      "name": "DAOVAULT",
      "outputs": [
        {
          "internalType": "contract iDAOVAULT",
          "name": "",
          "type": "address"
        }
      ],
      "stateMutability": "view",
      "type": "function"
    },
    {
      "inputs": [],
      "name": "DEPLOYER",
      "outputs": [
        {
          "internalType": "address",
          "name": "",
          "type": "address"
        }
      ],
      "stateMutability": "view",
      "type": "function"
    },
    {
      "inputs": [],
      "name": "POOLFACTORY",
      "outputs": [
        {
          "internalType": "contract iPOOLFACTORY",
          "name": "",
          "type": "address"
        }
      ],
      "stateMutability": "view",
      "type": "function"
    },
    {
      "inputs": [],
      "name": "RESERVE",
      "outputs": [
        {
          "internalType": "contract iRESERVE",
          "name": "",
          "type": "address"
        }
      ],
      "stateMutability": "view",
      "type": "function"
    },
    {
      "inputs": [],
      "name": "ROUTER",
      "outputs": [
        {
          "internalType": "contract iROUTER",
          "name": "",
          "type": "address"
        }
      ],
      "stateMutability": "view",
      "type": "function"
    },
    {
      "inputs": [],
      "name": "SYNTHFACTORY",
      "outputs": [
        {
          "internalType": "contract iSYNTHFACTORY",
          "name": "",
          "type": "address"
        }
      ],
      "stateMutability": "view",
      "type": "function"
    },
    {
      "inputs": [],
      "name": "SYNTHVAULT",
      "outputs": [
        {
          "internalType": "contract iSYNTHVAULT",
          "name": "",
          "type": "address"
        }
      ],
      "stateMutability": "view",
      "type": "function"
    },
    {
      "inputs": [],
      "name": "UTILS",
      "outputs": [
        {
          "internalType": "contract iUTILS",
          "name": "",
          "type": "address"
        }
      ],
      "stateMutability": "view",
      "type": "function"
    },
    {
      "inputs": [],
      "name": "allListedAssets",
      "outputs": [
        {
          "internalType": "address[]",
          "name": "_allListedAssets",
          "type": "address[]"
        }
      ],
      "stateMutability": "view",
      "type": "function"
    },
    {
      "inputs": [
        {
          "internalType": "uint256",
          "name": "",
          "type": "uint256"
        }
      ],
      "name": "arrayMembers",
      "outputs": [
        {
          "internalType": "address",
          "name": "",
          "type": "address"
        }
      ],
      "stateMutability": "view",
      "type": "function"
    },
    {
      "inputs": [],
      "name": "assetListedCount",
      "outputs": [
        {
          "internalType": "uint256",
          "name": "count",
          "type": "uint256"
        }
      ],
      "stateMutability": "view",
      "type": "function"
    },
    {
      "inputs": [
        {
          "internalType": "address",
          "name": "asset",
          "type": "address"
        },
        {
          "internalType": "uint256",
          "name": "amount",
          "type": "uint256"
        }
      ],
      "name": "bond",
      "outputs": [
        {
          "internalType": "bool",
          "name": "success",
          "type": "bool"
        }
      ],
      "stateMutability": "payable",
      "type": "function"
    },
    {
      "inputs": [],
      "name": "bondingPeriodSeconds",
      "outputs": [
        {
          "internalType": "uint256",
          "name": "",
          "type": "uint256"
        }
      ],
      "stateMutability": "view",
      "type": "function"
    },
    {
      "inputs": [],
      "name": "burnBalance",
      "outputs": [
        {
          "internalType": "bool",
          "name": "",
          "type": "bool"
        }
      ],
      "stateMutability": "nonpayable",
      "type": "function"
    },
    {
      "inputs": [
        {
          "internalType": "address",
          "name": "bondedMember",
          "type": "address"
        },
        {
          "internalType": "address",
          "name": "asset",
          "type": "address"
        }
      ],
      "name": "calcClaimBondedLP",
      "outputs": [
        {
          "internalType": "uint256",
          "name": "",
          "type": "uint256"
        }
      ],
      "stateMutability": "nonpayable",
      "type": "function"
    },
    {
      "inputs": [
        {
          "internalType": "address",
          "name": "member",
          "type": "address"
        }
      ],
      "name": "calcCurrentReward",
      "outputs": [
        {
          "internalType": "uint256",
          "name": "",
          "type": "uint256"
        }
      ],
      "stateMutability": "view",
      "type": "function"
    },
    {
      "inputs": [
        {
          "internalType": "address",
          "name": "member",
          "type": "address"
        }
      ],
      "name": "calcReward",
      "outputs": [
        {
          "internalType": "uint256",
          "name": "",
          "type": "uint256"
        }
      ],
      "stateMutability": "view",
      "type": "function"
    },
    {
      "inputs": [],
      "name": "cancelProposal",
      "outputs": [],
      "stateMutability": "nonpayable",
      "type": "function"
    },
    {
      "inputs": [
        {
          "internalType": "uint256",
          "name": "bondingSeconds",
          "type": "uint256"
        }
      ],
      "name": "changeBondingPeriod",
      "outputs": [],
      "stateMutability": "nonpayable",
      "type": "function"
    },
    {
      "inputs": [
        {
          "internalType": "address",
          "name": "member",
          "type": "address"
        }
      ],
      "name": "claimAllForMember",
      "outputs": [
        {
          "internalType": "bool",
          "name": "",
          "type": "bool"
        }
      ],
      "stateMutability": "nonpayable",
      "type": "function"
    },
    {
      "inputs": [
        {
          "internalType": "address",
          "name": "asset",
          "type": "address"
        }
      ],
      "name": "claimForMember",
      "outputs": [
        {
          "internalType": "bool",
          "name": "",
          "type": "bool"
        }
      ],
      "stateMutability": "nonpayable",
      "type": "function"
    },
    {
      "inputs": [],
      "name": "coolOffPeriod",
      "outputs": [
        {
          "internalType": "uint256",
          "name": "",
          "type": "uint256"
        }
      ],
      "stateMutability": "view",
      "type": "function"
    },
    {
      "inputs": [],
      "name": "currentProposal",
      "outputs": [
        {
          "internalType": "uint256",
          "name": "",
          "type": "uint256"
        }
      ],
      "stateMutability": "view",
      "type": "function"
    },
    {
      "inputs": [],
      "name": "daoClaim",
      "outputs": [
        {
          "internalType": "uint256",
          "name": "",
          "type": "uint256"
        }
      ],
      "stateMutability": "view",
      "type": "function"
    },
    {
      "inputs": [],
      "name": "daoFee",
      "outputs": [
        {
          "internalType": "uint256",
          "name": "",
          "type": "uint256"
        }
      ],
      "stateMutability": "view",
      "type": "function"
    },
    {
      "inputs": [],
      "name": "daoHasMoved",
      "outputs": [
        {
          "internalType": "bool",
          "name": "",
          "type": "bool"
        }
      ],
      "stateMutability": "view",
      "type": "function"
    },
    {
      "inputs": [
        {
          "internalType": "address",
          "name": "asset",
          "type": "address"
        }
      ],
      "name": "delistBondAsset",
      "outputs": [
        {
          "internalType": "bool",
          "name": "",
          "type": "bool"
        }
      ],
      "stateMutability": "nonpayable",
      "type": "function"
    },
    {
      "inputs": [
        {
          "internalType": "address",
          "name": "pool",
          "type": "address"
        },
        {
          "internalType": "uint256",
          "name": "amount",
          "type": "uint256"
        }
      ],
      "name": "deposit",
      "outputs": [],
      "stateMutability": "nonpayable",
      "type": "function"
    },
    {
      "inputs": [
        {
          "internalType": "address",
          "name": "pool",
          "type": "address"
        },
        {
          "internalType": "uint256",
          "name": "amount",
          "type": "uint256"
        },
        {
          "internalType": "address",
          "name": "member",
          "type": "address"
        }
      ],
      "name": "depositLPForMember",
      "outputs": [],
      "stateMutability": "nonpayable",
      "type": "function"
    },
    {
      "inputs": [],
      "name": "erasToEarn",
      "outputs": [
        {
          "internalType": "uint256",
          "name": "",
          "type": "uint256"
        }
      ],
      "stateMutability": "view",
      "type": "function"
    },
    {
      "inputs": [],
      "name": "finaliseProposal",
      "outputs": [],
      "stateMutability": "nonpayable",
      "type": "function"
    },
    {
      "inputs": [
        {
          "internalType": "uint256",
          "name": "proposalID",
          "type": "uint256"
        }
      ],
      "name": "getProposalDetails",
      "outputs": [
        {
          "components": [
            {
              "internalType": "uint256",
              "name": "id",
              "type": "uint256"
            },
            {
              "internalType": "string",
              "name": "proposalType",
              "type": "string"
            },
            {
              "internalType": "uint256",
              "name": "votes",
              "type": "uint256"
            },
            {
              "internalType": "uint256",
              "name": "coolOffTime",
              "type": "uint256"
            },
            {
              "internalType": "bool",
              "name": "finalising",
              "type": "bool"
            },
            {
              "internalType": "bool",
              "name": "finalised",
              "type": "bool"
            },
            {
              "internalType": "uint256",
              "name": "param",
              "type": "uint256"
            },
            {
              "internalType": "address",
              "name": "proposedAddress",
              "type": "address"
            },
            {
              "internalType": "bool",
              "name": "open",
              "type": "bool"
            },
            {
              "internalType": "uint256",
              "name": "startTime",
              "type": "uint256"
            }
          ],
          "internalType": "struct Dao.ProposalDetails",
          "name": "proposalDetails",
          "type": "tuple"
        }
      ],
      "stateMutability": "view",
      "type": "function"
    },
    {
      "inputs": [],
      "name": "harvest",
      "outputs": [],
      "stateMutability": "nonpayable",
      "type": "function"
    },
    {
      "inputs": [
        {
          "internalType": "uint256",
          "name": "_proposalID",
          "type": "uint256"
        }
      ],
      "name": "hasMajority",
      "outputs": [
        {
          "internalType": "bool",
          "name": "",
          "type": "bool"
        }
      ],
      "stateMutability": "view",
      "type": "function"
    },
    {
      "inputs": [
        {
          "internalType": "uint256",
          "name": "_proposalID",
          "type": "uint256"
        }
      ],
      "name": "hasMinority",
      "outputs": [
        {
          "internalType": "bool",
          "name": "",
          "type": "bool"
        }
      ],
      "stateMutability": "view",
      "type": "function"
    },
    {
      "inputs": [
        {
          "internalType": "uint256",
          "name": "_proposalID",
          "type": "uint256"
        }
      ],
      "name": "hasQuorum",
      "outputs": [
        {
          "internalType": "bool",
          "name": "",
          "type": "bool"
        }
      ],
      "stateMutability": "view",
      "type": "function"
    },
    {
      "inputs": [
        {
          "internalType": "bytes",
          "name": "part1",
          "type": "bytes"
        },
        {
          "internalType": "bytes",
          "name": "part2",
          "type": "bytes"
        }
      ],
      "name": "isEqual",
      "outputs": [
        {
          "internalType": "bool",
          "name": "",
          "type": "bool"
        }
      ],
      "stateMutability": "pure",
      "type": "function"
    },
    {
      "inputs": [
        {
          "internalType": "address",
          "name": "",
          "type": "address"
        }
      ],
      "name": "isListed",
      "outputs": [
        {
          "internalType": "bool",
          "name": "",
          "type": "bool"
        }
      ],
      "stateMutability": "view",
      "type": "function"
    },
    {
      "inputs": [
        {
          "internalType": "address",
          "name": "",
          "type": "address"
        }
      ],
      "name": "isMember",
      "outputs": [
        {
          "internalType": "bool",
          "name": "",
          "type": "bool"
        }
      ],
      "stateMutability": "view",
      "type": "function"
    },
    {
      "inputs": [
        {
          "internalType": "address",
          "name": "asset",
          "type": "address"
        }
      ],
      "name": "listBondAsset",
      "outputs": [
        {
          "internalType": "bool",
          "name": "",
          "type": "bool"
        }
      ],
      "stateMutability": "nonpayable",
      "type": "function"
    },
    {
      "inputs": [],
      "name": "majorityFactor",
      "outputs": [
        {
          "internalType": "uint256",
          "name": "",
          "type": "uint256"
        }
      ],
      "stateMutability": "view",
      "type": "function"
    },
    {
      "inputs": [
        {
          "internalType": "address",
          "name": "",
          "type": "address"
        }
      ],
      "name": "mapMember_lastTime",
      "outputs": [
        {
          "internalType": "uint256",
          "name": "",
          "type": "uint256"
        }
      ],
      "stateMutability": "view",
      "type": "function"
    },
    {
      "inputs": [
        {
          "internalType": "uint256",
          "name": "",
          "type": "uint256"
        },
        {
          "internalType": "address",
          "name": "",
          "type": "address"
        }
      ],
      "name": "mapPIDMember_votes",
      "outputs": [
        {
          "internalType": "uint256",
          "name": "",
          "type": "uint256"
        }
      ],
      "stateMutability": "view",
      "type": "function"
    },
    {
      "inputs": [
        {
          "internalType": "uint256",
          "name": "",
          "type": "uint256"
        }
      ],
      "name": "mapPID_address",
      "outputs": [
        {
          "internalType": "address",
          "name": "",
          "type": "address"
        }
      ],
      "stateMutability": "view",
      "type": "function"
    },
    {
      "inputs": [
        {
          "internalType": "uint256",
          "name": "",
          "type": "uint256"
        }
      ],
      "name": "mapPID_coolOffTime",
      "outputs": [
        {
          "internalType": "uint256",
          "name": "",
          "type": "uint256"
        }
      ],
      "stateMutability": "view",
      "type": "function"
    },
    {
      "inputs": [
        {
          "internalType": "uint256",
          "name": "",
          "type": "uint256"
        }
      ],
      "name": "mapPID_finalised",
      "outputs": [
        {
          "internalType": "bool",
          "name": "",
          "type": "bool"
        }
      ],
      "stateMutability": "view",
      "type": "function"
    },
    {
      "inputs": [
        {
          "internalType": "uint256",
          "name": "",
          "type": "uint256"
        }
      ],
      "name": "mapPID_finalising",
      "outputs": [
        {
          "internalType": "bool",
          "name": "",
          "type": "bool"
        }
      ],
      "stateMutability": "view",
      "type": "function"
    },
    {
      "inputs": [
        {
          "internalType": "uint256",
          "name": "",
          "type": "uint256"
        }
      ],
      "name": "mapPID_open",
      "outputs": [
        {
          "internalType": "bool",
          "name": "",
          "type": "bool"
        }
      ],
      "stateMutability": "view",
      "type": "function"
    },
    {
      "inputs": [
        {
          "internalType": "uint256",
          "name": "",
          "type": "uint256"
        }
      ],
      "name": "mapPID_param",
      "outputs": [
        {
          "internalType": "uint256",
          "name": "",
          "type": "uint256"
        }
      ],
      "stateMutability": "view",
      "type": "function"
    },
    {
      "inputs": [
        {
          "internalType": "uint256",
          "name": "",
          "type": "uint256"
        }
      ],
      "name": "mapPID_startTime",
      "outputs": [
        {
          "internalType": "uint256",
          "name": "",
          "type": "uint256"
        }
      ],
      "stateMutability": "view",
      "type": "function"
    },
    {
      "inputs": [
        {
          "internalType": "uint256",
          "name": "",
          "type": "uint256"
        }
      ],
      "name": "mapPID_type",
      "outputs": [
        {
          "internalType": "string",
          "name": "",
          "type": "string"
        }
      ],
      "stateMutability": "view",
      "type": "function"
    },
    {
      "inputs": [
        {
          "internalType": "uint256",
          "name": "",
          "type": "uint256"
        }
      ],
      "name": "mapPID_votes",
      "outputs": [
        {
          "internalType": "uint256",
          "name": "",
          "type": "uint256"
        }
      ],
      "stateMutability": "view",
      "type": "function"
    },
    {
      "inputs": [],
      "name": "memberCount",
      "outputs": [
        {
          "internalType": "uint256",
          "name": "",
          "type": "uint256"
        }
      ],
      "stateMutability": "view",
      "type": "function"
    },
    {
      "inputs": [
        {
          "internalType": "address",
          "name": "newDAO",
          "type": "address"
        }
      ],
      "name": "moveBASEBalance",
      "outputs": [],
      "stateMutability": "nonpayable",
      "type": "function"
    },
    {
      "inputs": [
        {
          "internalType": "string",
          "name": "typeStr",
          "type": "string"
        }
      ],
      "name": "newActionProposal",
      "outputs": [
        {
          "internalType": "uint256",
          "name": "",
          "type": "uint256"
        }
      ],
      "stateMutability": "nonpayable",
      "type": "function"
    },
    {
      "inputs": [
        {
          "internalType": "address",
          "name": "proposedAddress",
          "type": "address"
        },
        {
          "internalType": "string",
          "name": "typeStr",
          "type": "string"
        }
      ],
      "name": "newAddressProposal",
      "outputs": [
        {
          "internalType": "uint256",
          "name": "",
          "type": "uint256"
        }
      ],
      "stateMutability": "nonpayable",
      "type": "function"
    },
    {
      "inputs": [
        {
          "internalType": "address",
          "name": "recipient",
          "type": "address"
        },
        {
          "internalType": "uint256",
          "name": "amount",
          "type": "uint256"
        }
      ],
      "name": "newGrantProposal",
      "outputs": [
        {
          "internalType": "uint256",
          "name": "",
          "type": "uint256"
        }
      ],
      "stateMutability": "nonpayable",
      "type": "function"
    },
    {
      "inputs": [
        {
          "internalType": "uint32",
          "name": "param",
          "type": "uint32"
        },
        {
          "internalType": "string",
          "name": "typeStr",
          "type": "string"
        }
      ],
      "name": "newParamProposal",
      "outputs": [
        {
          "internalType": "uint256",
          "name": "",
          "type": "uint256"
        }
      ],
      "stateMutability": "nonpayable",
      "type": "function"
    },
    {
      "inputs": [],
      "name": "proposalCount",
      "outputs": [
        {
          "internalType": "uint256",
          "name": "",
          "type": "uint256"
        }
      ],
      "stateMutability": "view",
      "type": "function"
    },
    {
      "inputs": [],
      "name": "purgeDeployer",
      "outputs": [],
      "stateMutability": "nonpayable",
      "type": "function"
    },
    {
      "inputs": [],
      "name": "removeVote",
      "outputs": [
        {
          "internalType": "uint256",
          "name": "voteWeightRemoved",
          "type": "uint256"
        }
      ],
      "stateMutability": "nonpayable",
      "type": "function"
    },
    {
      "inputs": [],
      "name": "secondsPerEra",
      "outputs": [
        {
          "internalType": "uint256",
          "name": "",
          "type": "uint256"
        }
      ],
      "stateMutability": "view",
      "type": "function"
    },
    {
      "inputs": [
        {
          "internalType": "address",
          "name": "_poolFactory",
          "type": "address"
        },
        {
          "internalType": "address",
          "name": "_synthFactory",
          "type": "address"
        }
      ],
      "name": "setFactoryAddresses",
      "outputs": [],
      "stateMutability": "nonpayable",
      "type": "function"
    },
    {
      "inputs": [
        {
          "internalType": "address",
          "name": "_router",
          "type": "address"
        },
        {
          "internalType": "address",
          "name": "_utils",
          "type": "address"
        },
        {
          "internalType": "address",
          "name": "_reserve",
          "type": "address"
        }
      ],
      "name": "setGenesisAddresses",
      "outputs": [],
      "stateMutability": "nonpayable",
      "type": "function"
    },
    {
      "inputs": [
        {
          "internalType": "uint32",
          "name": "_coolOff",
          "type": "uint32"
        },
        {
          "internalType": "uint32",
          "name": "_daysToEarn",
          "type": "uint32"
        },
        {
          "internalType": "uint32",
          "name": "_majorityFactor",
          "type": "uint32"
        },
        {
          "internalType": "uint32",
          "name": "_daoClaim",
          "type": "uint32"
        },
        {
          "internalType": "uint32",
          "name": "_daoFee",
          "type": "uint32"
        }
      ],
      "name": "setGenesisFactors",
      "outputs": [],
      "stateMutability": "nonpayable",
      "type": "function"
    },
    {
      "inputs": [
        {
          "internalType": "address",
          "name": "_daovault",
          "type": "address"
        },
        {
          "internalType": "address",
          "name": "_bondvault",
          "type": "address"
        },
        {
          "internalType": "address",
          "name": "_synthVault",
          "type": "address"
        }
      ],
      "name": "setVaultAddresses",
      "outputs": [],
      "stateMutability": "nonpayable",
      "type": "function"
    },
    {
      "inputs": [],
      "name": "voteProposal",
      "outputs": [
        {
          "internalType": "uint256",
          "name": "voteWeight",
          "type": "uint256"
        }
      ],
      "stateMutability": "nonpayable",
      "type": "function"
    },
    {
      "inputs": [
        {
          "internalType": "address",
          "name": "pool",
          "type": "address"
        }
      ],
      "name": "withdraw",
      "outputs": [],
      "stateMutability": "nonpayable",
      "type": "function"
    }
  ],
  "bytecode": "0x608060405262ed4e006015553480156200001857600080fd5b506040516200917a3803806200917a83398181016040528101906200003e919062000211565b80600160006101000a81548173ffffffffffffffffffffffffffffffffffffffff021916908373ffffffffffffffffffffffffffffffffffffffff160217905550336000806101000a81548173ffffffffffffffffffffffffffffffffffffffff021916908373ffffffffffffffffffffffffffffffffffffffff16021790555030600a60016101000a81548173ffffffffffffffffffffffffffffffffffffffff021916908373ffffffffffffffffffffffffffffffffffffffff1602179055506001600381905550601e600681905550611a0a6005819055506107d060078190555060646008819055506000600481905550600160009054906101000a900473ffffffffffffffffffffffffffffffffffffffff1673ffffffffffffffffffffffffffffffffffffffff16636b92a3b66040518163ffffffff1660e01b815260040160206040518083038186803b1580156200019b57600080fd5b505afa158015620001b0573d6000803e3d6000fd5b505050506040513d601f19601f82011682018060405250810190620001d691906200023d565b60028190555050620002db565b600081519050620001f481620002a7565b92915050565b6000815190506200020b81620002c1565b92915050565b6000602082840312156200022457600080fd5b60006200023484828501620001e3565b91505092915050565b6000602082840312156200025057600080fd5b60006200026084828501620001fa565b91505092915050565b600062000276826200027d565b9050919050565b600073ffffffffffffffffffffffffffffffffffffffff82169050919050565b6000819050919050565b620002b28162000269565b8114620002be57600080fd5b50565b620002cc816200029d565b8114620002d857600080fd5b50565b618e8f80620002eb6000396000f3fe6080604052600436106104105760003560e01c80637b0e5c451161021e578063b93ec54b11610123578063da35c664116100ab578063ec342ad01161007a578063ec342ad0146110b4578063f135dcf8146110df578063f38a2fa11461111c578063f794062e14611159578063f7a79a371461119657610410565b8063da35c66414610fd2578063dab249b314610ffd578063db634d7c1461103a578063e248260c1461107757610410565b8063c05fc178116100f2578063c05fc17814610eb3578063c1b8411a14610ef0578063c42b3f7d14610f1b578063d0ad170914610f58578063d145836314610f9557610410565b8063b93ec54b14610df5578063b99b0a0c14610e20578063bbf8cf8214610e4b578063bc68fad914610e8857610410565b8063a230c524116101a6578063ab2bd8fd11610175578063ab2bd8fd14610d10578063abb6154f14610d27578063ae887c8b14610d52578063af04598014610d8f578063b826286914610db857610410565b8063a230c52414610c29578063a299ecb214610c66578063a515366a14610ca3578063a6c83fed14610cd357610410565b80639070577f116101ed5780639070577f14610b54578063956615be14610b6b57806398fabd3a14610b965780639cd99aa214610bc15780639d2cc43614610bfe57610410565b80637b0e5c4514610a985780638351739a14610ac35780638601b9e614610aee5780638bebea8914610b1757610410565b80633b4d01a711610324578063572cf927116102ac57806368bb97b31161027b57806368bb97b3146109b35780636b92a3b6146109dc5780637375898814610a0757806379b2dc4c14610a305780637a8c72b514610a5b57610410565b8063572cf927146108e55780635c120b371461090e5780635c7366d31461094b57806365c71bbf1461098857610410565b80634641257d116102f35780634641257d1461081457806347e7ef241461082b57806349aa4ee2146108545780634b4000341461087f57806351cff8d9146108bc57610410565b80633b4d01a714610734578063436f80be1461077157806346350821146107ae5780634636279f146107d757610410565b80632bee1194116103a757806332fe7b261161037657806332fe7b2614610639578063343598081461066457806335cb5fe0146106a157806338da7dd6146106cc5780633a61738d146106f757610410565b80632bee1194146105695780632c07eebf146105a65780632f7fa180146105d1578063314604fe146105fc57610410565b8063293cee7d116103e3578063293cee7d146104ab5780632957b839146104e85780632ab24e49146105135780632b49d4251461053e57610410565b806303a821381461041557806311aee3801461042c57806324efb5281461045757806325a7f90814610482575b600080fd5b34801561042157600080fd5b5061042a6111c1565b005b34801561043857600080fd5b5061044161125c565b60405161044e9190618339565b60405180910390f35b34801561046357600080fd5b5061046c611269565b6040516104799190617fe2565b60405180910390f35b34801561048e57600080fd5b506104a960048036038101906104a491906175c7565b61127c565b005b3480156104b757600080fd5b506104d260048036038101906104cd9190617537565b611864565b6040516104df9190618339565b60405180910390f35b3480156104f457600080fd5b506104fd611951565b60405161050a9190618339565b60405180910390f35b34801561051f57600080fd5b50610528611957565b604051610535919061809f565b60405180910390f35b34801561054a57600080fd5b50610553611a3e565b6040516105609190618339565b60405180910390f35b34801561057557600080fd5b50610590600480360381019061058b919061785d565b611a44565b60405161059d9190617fe2565b60405180910390f35b3480156105b257600080fd5b506105bb611a64565b6040516105c89190618339565b60405180910390f35b3480156105dd57600080fd5b506105e6611a6a565b6040516105f39190617ffd565b60405180910390f35b34801561060857600080fd5b50610623600480360381019061061e919061785d565b611b51565b6040516106309190618339565b60405180910390f35b34801561064557600080fd5b5061064e611b69565b60405161065b9190618069565b60405180910390f35b34801561067057600080fd5b5061068b60048036038101906106869190617668565b611c50565b6040516106989190617fe2565b60405180910390f35b3480156106ad57600080fd5b506106b6611d0c565b6040516106c39190617fc0565b60405180910390f35b3480156106d857600080fd5b506106e1611d9a565b6040516106ee9190618018565b60405180910390f35b34801561070357600080fd5b5061071e60048036038101906107199190617483565b611e81565b60405161072b9190618339565b60405180910390f35b34801561074057600080fd5b5061075b6004803603810190610756919061785d565b6122eb565b6040516107689190618317565b60405180910390f35b34801561077d57600080fd5b506107986004803603810190610793919061785d565b612517565b6040516107a59190617ee5565b60405180910390f35b3480156107ba57600080fd5b506107d560048036038101906107d091906174ac565b612556565b005b3480156107e357600080fd5b506107fe60048036038101906107f99190617483565b612634565b60405161080b9190618339565b60405180910390f35b34801561082057600080fd5b50610829612746565b005b34801561083757600080fd5b50610852600480360381019061084d919061758b565b61290a565b005b34801561086057600080fd5b50610869612919565b6040516108769190618339565b60405180910390f35b34801561088b57600080fd5b506108a660048036038101906108a1919061785d565b612b2c565b6040516108b39190617fe2565b60405180910390f35b3480156108c857600080fd5b506108e360048036038101906108de9190617483565b612b4c565b005b3480156108f157600080fd5b5061090c6004803603810190610907919061793f565b612c46565b005b34801561091a57600080fd5b506109356004803603810190610930919061785d565b612ce6565b6040516109429190617fe2565b60405180910390f35b34801561095757600080fd5b50610972600480360381019061096d9190617483565b612e8d565b60405161097f9190618339565b60405180910390f35b34801561099457600080fd5b5061099d612ea5565b6040516109aa9190618339565b60405180910390f35b3480156109bf57600080fd5b506109da60048036038101906109d59190617483565b612eab565b005b3480156109e857600080fd5b506109f1613066565b6040516109fe9190618339565b60405180910390f35b348015610a1357600080fd5b50610a2e6004803603810190610a2991906174e8565b61306c565b005b348015610a3c57600080fd5b50610a4561318c565b604051610a529190618339565b60405180910390f35b348015610a6757600080fd5b50610a826004803603810190610a7d9190617483565b613192565b604051610a8f9190617fe2565b60405180910390f35b348015610aa457600080fd5b50610aad613370565b604051610aba91906180ba565b60405180910390f35b348015610acf57600080fd5b50610ad8613457565b604051610ae59190618339565b60405180910390f35b348015610afa57600080fd5b50610b156004803603810190610b1091906174e8565b613874565b005b348015610b2357600080fd5b50610b3e6004803603810190610b39919061785d565b613994565b604051610b4b9190617fe2565b60405180910390f35b348015610b6057600080fd5b50610b696139b3565b005b348015610b7757600080fd5b50610b80613b81565b604051610b8d9190618339565b60405180910390f35b348015610ba257600080fd5b50610bab613b87565b604051610bb89190617ee5565b60405180910390f35b348015610bcd57600080fd5b50610be86004803603810190610be39190617483565b613bad565b604051610bf59190617fe2565b60405180910390f35b348015610c0a57600080fd5b50610c13613d78565b604051610c20919061804e565b60405180910390f35b348015610c3557600080fd5b50610c506004803603810190610c4b9190617483565b613e5f565b604051610c5d9190617fe2565b60405180910390f35b348015610c7257600080fd5b50610c8d6004803603810190610c88919061785d565b613e7f565b604051610c9a9190618339565b60405180910390f35b610cbd6004803603810190610cb8919061758b565b613e97565b604051610cca9190617fe2565b60405180910390f35b348015610cdf57600080fd5b50610cfa6004803603810190610cf5919061758b565b61432a565b604051610d079190618339565b60405180910390f35b348015610d1c57600080fd5b50610d2561446c565b005b348015610d3357600080fd5b50610d3c614a6d565b604051610d499190618339565b60405180910390f35b348015610d5e57600080fd5b50610d796004803603810190610d74919061785d565b614a73565b604051610d869190617ee5565b60405180910390f35b348015610d9b57600080fd5b50610db66004803603810190610db1919061785d565b614aa6565b005b348015610dc457600080fd5b50610ddf6004803603810190610dda919061785d565b614b08565b604051610dec9190618339565b60405180910390f35b348015610e0157600080fd5b50610e0a614b20565b604051610e179190618084565b60405180910390f35b348015610e2c57600080fd5b50610e35614c07565b604051610e429190618033565b60405180910390f35b348015610e5757600080fd5b50610e726004803603810190610e6d919061785d565b614cee565b604051610e7f9190617fe2565b60405180910390f35b348015610e9457600080fd5b50610e9d614e87565b604051610eaa9190617fe2565b60405180910390f35b348015610ebf57600080fd5b50610eda6004803603810190610ed5919061785d565b615026565b604051610ee791906180d5565b60405180910390f35b348015610efc57600080fd5b50610f056150c6565b604051610f129190617ee5565b60405180910390f35b348015610f2757600080fd5b50610f426004803603810190610f3d91906178af565b6150ea565b604051610f4f9190618339565b60405180910390f35b348015610f6457600080fd5b50610f7f6004803603810190610f7a919061785d565b61510f565b604051610f8c9190617fe2565b60405180910390f35b348015610fa157600080fd5b50610fbc6004803603810190610fb7919061781c565b6152a8565b604051610fc99190618339565b60405180910390f35b348015610fde57600080fd5b50610fe7615340565b604051610ff49190618339565b60405180910390f35b34801561100957600080fd5b50611024600480360381019061101f919061785d565b615346565b6040516110319190618339565b60405180910390f35b34801561104657600080fd5b50611061600480360381019061105c9190617483565b61535e565b60405161106e9190617fe2565b60405180910390f35b34801561108357600080fd5b5061109e60048036038101906110999190617483565b615474565b6040516110ab9190617fe2565b60405180910390f35b3480156110c057600080fd5b506110c9615526565b6040516110d69190617ee5565b60405180910390f35b3480156110eb57600080fd5b50611106600480360381019061110191906174ac565b61554c565b6040516111139190618339565b60405180910390f35b34801561112857600080fd5b50611143600480360381019061113e91906178eb565b61560a565b6040516111509190618339565b60405180910390f35b34801561116557600080fd5b50611180600480360381019061117b9190617483565b6156c3565b60405161118d9190617fe2565b60405180910390f35b3480156111a257600080fd5b506111ab6156e3565b6040516111b89190618339565b60405180910390f35b60008054906101000a900473ffffffffffffffffffffffffffffffffffffffff1673ffffffffffffffffffffffffffffffffffffffff163373ffffffffffffffffffffffffffffffffffffffff161461121957600080fd5b60008060006101000a81548173ffffffffffffffffffffffffffffffffffffffff021916908373ffffffffffffffffffffffffffffffffffffffff160217905550565b6000601380549050905090565b600a60009054906101000a900460ff1681565b60011515600f60009054906101000a900473ffffffffffffffffffffffffffffffffffffffff1673ffffffffffffffffffffffffffffffffffffffff16638dcb4c93856040518263ffffffff1660e01b81526004016112db9190617ee5565b60206040518083038186803b1580156112f357600080fd5b505afa158015611307573d6000803e3d6000fd5b505050506040513d601f19601f8201168201806040525081019061132b9190617616565b15151461136d576040517f08c379a000000000000000000000000000000000000000000000000000000000815260040161136490618277565b60405180910390fd5b600082116113b0576040517f08c379a00000000000000000000000000000000000000000000000000000000081526004016113a790618157565b60405180910390fd5b60011515601660008373ffffffffffffffffffffffffffffffffffffffff1673ffffffffffffffffffffffffffffffffffffffff16815260200190815260200160002060009054906101000a900460ff161515146114c4576013819080600181540180825580915050600190039060005260206000200160009091909190916101000a81548173ffffffffffffffffffffffffffffffffffffffff021916908373ffffffffffffffffffffffffffffffffffffffff1602179055506001601660008373ffffffffffffffffffffffffffffffffffffffff1673ffffffffffffffffffffffffffffffffffffffff16815260200190815260200160002060006101000a81548160ff0219169083151502179055505b6000600d60009054906101000a900473ffffffffffffffffffffffffffffffffffffffff1673ffffffffffffffffffffffffffffffffffffffff16635364df49836040518263ffffffff1660e01b81526004016115219190617ee5565b60206040518083038186803b15801561153957600080fd5b505afa15801561154d573d6000803e3d6000fd5b505050506040513d601f19601f820116820180604052508101906115719190617886565b600e60009054906101000a900473ffffffffffffffffffffffffffffffffffffffff1673ffffffffffffffffffffffffffffffffffffffff16635364df49846040518263ffffffff1660e01b81526004016115cc9190617ee5565b60206040518083038186803b1580156115e457600080fd5b505afa1580156115f8573d6000803e3d6000fd5b505050506040513d601f19601f8201168201806040525081019061161c9190617886565b6116269190618593565b111561163557611634612746565b5b8273ffffffffffffffffffffffffffffffffffffffff166323b872dd33600e60009054906101000a900473ffffffffffffffffffffffffffffffffffffffff16856040518463ffffffff1660e01b815260040161169493929190617f29565b602060405180830381600087803b1580156116ae57600080fd5b505af11580156116c2573d6000803e3d6000fd5b505050506040513d601f19601f820116820180604052508101906116e69190617616565b611725576040517f08c379a000000000000000000000000000000000000000000000000000000000815260040161171c906180f7565b60405180910390fd5b600e60009054906101000a900473ffffffffffffffffffffffffffffffffffffffff1673ffffffffffffffffffffffffffffffffffffffff166346dafa2f8484846040518463ffffffff1660e01b815260040161178493929190617f89565b600060405180830381600087803b15801561179e57600080fd5b505af11580156117b2573d6000803e3d6000fd5b5050505042601860008373ffffffffffffffffffffffffffffffffffffffff1673ffffffffffffffffffffffffffffffffffffffff168152602001908152602001600020819055508273ffffffffffffffffffffffffffffffffffffffff168173ffffffffffffffffffffffffffffffffffffffff167f5f9b5a75581a29d72b32414a5df7f1ef124b7787b38616fb8fdcad76179127c2846040516118579190618339565b60405180910390a3505050565b600061186e6156f0565b6118766157c6565b5082601a6000600954815260200190815260200160002060006101000a81548173ffffffffffffffffffffffffffffffffffffffff021916908373ffffffffffffffffffffffffffffffffffffffff16021790555081601b6000600954815260200190815260200160002090805190602001906118f492919061717b565b506009543373ffffffffffffffffffffffffffffffffffffffff167f8d500fcad86fc64a281b94ef64d6d66acbfc6862aa4ff2ee5fbbfb40736e803e8460405161193e91906180d5565b60405180910390a3600954905092915050565b60085481565b6000600a60009054906101000a900460ff1615611a1557600a60019054906101000a900473ffffffffffffffffffffffffffffffffffffffff1673ffffffffffffffffffffffffffffffffffffffff16632ab24e496040518163ffffffff1660e01b815260040160206040518083038186803b1580156119d657600080fd5b505afa1580156119ea573d6000803e3d6000fd5b505050506040513d601f19601f82011682018060405250810190611a0e91906177ca565b9050611a3b565b601260009054906101000a900473ffffffffffffffffffffffffffffffffffffffff1690505b90565b60095481565b601f6020528060005260406000206000915054906101000a900460ff1681565b60065481565b6000600a60009054906101000a900460ff1615611b2857600a60019054906101000a900473ffffffffffffffffffffffffffffffffffffffff1673ffffffffffffffffffffffffffffffffffffffff16632f7fa1806040518163ffffffff1660e01b815260040160206040518083038186803b158015611ae957600080fd5b505afa158015611afd573d6000803e3d6000fd5b505050506040513d601f19601f82011682018060405250810190611b2191906176d4565b9050611b4e565b600d60009054906101000a900473ffffffffffffffffffffffffffffffffffffffff1690505b90565b60196020528060005260406000206000915090505481565b6000600a60009054906101000a900460ff1615611c2757600a60019054906101000a900473ffffffffffffffffffffffffffffffffffffffff1673ffffffffffffffffffffffffffffffffffffffff166332fe7b266040518163ffffffff1660e01b815260040160206040518083038186803b158015611be857600080fd5b505afa158015611bfc573d6000803e3d6000fd5b505050506040513d601f19601f82011682018060405250810190611c209190617778565b9050611c4d565b600b60009054906101000a900473ffffffffffffffffffffffffffffffffffffffff1690505b90565b6000600282604051611c629190617ece565b602060405180830381855afa158015611c7f573d6000803e3d6000fd5b5050506040513d601f19601f82011682018060405250810190611ca2919061763f565b600284604051611cb29190617ece565b602060405180830381855afa158015611ccf573d6000803e3d6000fd5b5050506040513d601f19601f82011682018060405250810190611cf2919061763f565b1415611d015760019050611d06565b600090505b92915050565b60606014805480602002602001604051908101604052809291908181526020018280548015611d9057602002820191906000526020600020905b8160009054906101000a900473ffffffffffffffffffffffffffffffffffffffff1673ffffffffffffffffffffffffffffffffffffffff1681526020019060010190808311611d46575b5050505050905090565b6000600a60009054906101000a900460ff1615611e5857600a60019054906101000a900473ffffffffffffffffffffffffffffffffffffffff1673ffffffffffffffffffffffffffffffffffffffff166338da7dd66040518163ffffffff1660e01b815260040160206040518083038186803b158015611e1957600080fd5b505afa158015611e2d573d6000803e3d6000fd5b505050506040513d601f19601f82011682018060405250810190611e5191906176fd565b9050611e7e565b600e60009054906101000a900473ffffffffffffffffffffffffffffffffffffffff1690505b90565b600080600d60009054906101000a900473ffffffffffffffffffffffffffffffffffffffff1673ffffffffffffffffffffffffffffffffffffffff16635364df49846040518263ffffffff1660e01b8152600401611edf9190617ee5565b60206040518083038186803b158015611ef757600080fd5b505afa158015611f0b573d6000803e3d6000fd5b505050506040513d601f19601f82011682018060405250810190611f2f9190617886565b600e60009054906101000a900473ffffffffffffffffffffffffffffffffffffffff1673ffffffffffffffffffffffffffffffffffffffff16635364df49856040518263ffffffff1660e01b8152600401611f8a9190617ee5565b60206040518083038186803b158015611fa257600080fd5b505afa158015611fb6573d6000803e3d6000fd5b505050506040513d601f19601f82011682018060405250810190611fda9190617886565b611fe49190618593565b90506000600d60009054906101000a900473ffffffffffffffffffffffffffffffffffffffff1673ffffffffffffffffffffffffffffffffffffffff166396c82e576040518163ffffffff1660e01b815260040160206040518083038186803b15801561205057600080fd5b505afa158015612064573d6000803e3d6000fd5b505050506040513d601f19601f820116820180604052508101906120889190617886565b600e60009054906101000a900473ffffffffffffffffffffffffffffffffffffffff1673ffffffffffffffffffffffffffffffffffffffff166396c82e576040518163ffffffff1660e01b815260040160206040518083038186803b1580156120f057600080fd5b505afa158015612104573d6000803e3d6000fd5b505050506040513d601f19601f820116820180604052508101906121289190617886565b6121329190618593565b90506000600654600160009054906101000a900473ffffffffffffffffffffffffffffffffffffffff1673ffffffffffffffffffffffffffffffffffffffff166370a08231601160009054906101000a900473ffffffffffffffffffffffffffffffffffffffff166040518263ffffffff1660e01b81526004016121b69190617ee5565b60206040518083038186803b1580156121ce57600080fd5b505afa1580156121e2573d6000803e3d6000fd5b505050506040513d601f19601f820116820180604052508101906122069190617886565b61221091906185e9565b9050600061271060075483612225919061861a565b61222f91906185e9565b9050600c60009054906101000a900473ffffffffffffffffffffffffffffffffffffffff1673ffffffffffffffffffffffffffffffffffffffff16631ba326c48585846040518463ffffffff1660e01b815260040161229093929190618459565b60206040518083038186803b1580156122a857600080fd5b505afa1580156122bc573d6000803e3d6000fd5b505050506040513d601f19601f820116820180604052508101906122e09190617886565b945050505050919050565b6122f3617201565b81816000018181525050601b6000838152602001908152602001600020805461231b906188fc565b80601f0160208091040260200160405190810160405280929190818152602001828054612347906188fc565b80156123945780601f1061236957610100808354040283529160200191612394565b820191906000526020600020905b81548152906001019060200180831161237757829003601f168201915b50505050508160200181905250601c600083815260200190815260200160002054816040018181525050601d600083815260200190815260200160002054816060018181525050601e600083815260200190815260200160002060009054906101000a900460ff16816080019015159081151581525050601f600083815260200190815260200160002060009054906101000a900460ff168160a001901515908115158152505060196000838152602001908152602001600020548160c0018181525050601a600083815260200190815260200160002060009054906101000a900473ffffffffffffffffffffffffffffffffffffffff168160e0019073ffffffffffffffffffffffffffffffffffffffff16908173ffffffffffffffffffffffffffffffffffffffff16815250506020600083815260200190815260200160002060009054906101000a900460ff1681610100019015159081151581525050602160008381526020019081526020016000205481610120018181525050919050565b6013818154811061252757600080fd5b906000526020600020016000915054906101000a900473ffffffffffffffffffffffffffffffffffffffff1681565b60008054906101000a900473ffffffffffffffffffffffffffffffffffffffff1673ffffffffffffffffffffffffffffffffffffffff163373ffffffffffffffffffffffffffffffffffffffff16146125ae57600080fd5b81600f60006101000a81548173ffffffffffffffffffffffffffffffffffffffff021916908373ffffffffffffffffffffffffffffffffffffffff16021790555080601060006101000a81548173ffffffffffffffffffffffffffffffffffffffff021916908373ffffffffffffffffffffffffffffffffffffffff1602179055505050565b6000601660008373ffffffffffffffffffffffffffffffffffffffff1673ffffffffffffffffffffffffffffffffffffffff16815260200190815260200160002060009054906101000a900460ff166126c2576040517f08c379a00000000000000000000000000000000000000000000000000000000081526004016126b990618257565b60405180910390fd5b6000601860008473ffffffffffffffffffffffffffffffffffffffff1673ffffffffffffffffffffffffffffffffffffffff168152602001908152602001600020544261270f9190618674565b9050600061271c84611e81565b90506000600254838361272f919061861a565b61273991906185e9565b9050809350505050919050565b601160009054906101000a900473ffffffffffffffffffffffffffffffffffffffff1673ffffffffffffffffffffffffffffffffffffffff16632267716c6040518163ffffffff1660e01b8152600401602060405180830381600087803b1580156127b057600080fd5b505af11580156127c4573d6000803e3d6000fd5b505050506040513d601f19601f820116820180604052508101906127e89190617616565b612827576040517f08c379a000000000000000000000000000000000000000000000000000000000815260040161281e90618217565b60405180910390fd5b600061283233612634565b905042601860003373ffffffffffffffffffffffffffffffffffffffff1673ffffffffffffffffffffffffffffffffffffffff16815260200190815260200160002081905550601160009054906101000a900473ffffffffffffffffffffffffffffffffffffffff1673ffffffffffffffffffffffffffffffffffffffff16637d458baa82336040518363ffffffff1660e01b81526004016128d5929190618354565b600060405180830381600087803b1580156128ef57600080fd5b505af1158015612903573d6000803e3d6000fd5b5050505050565b61291582823361127c565b5050565b600080601b60006009548152602001908152602001600020805461293c906188fc565b80601f0160208091040260200160405190810160405280929190818152602001828054612968906188fc565b80156129b55780601f1061298a576101008083540402835291602001916129b5565b820191906000526020600020905b81548152906001019060200180831161299857829003601f168201915b5050505050905060226000600954815260200190815260200160002060003373ffffffffffffffffffffffffffffffffffffffff1673ffffffffffffffffffffffffffffffffffffffff16815260200190815260200160002054915060206000600954815260200190815260200160002060009054906101000a900460ff1615612a665781601c600060095481526020019081526020016000206000828254612a5e9190618674565b925050819055505b600060226000600954815260200190815260200160002060003373ffffffffffffffffffffffffffffffffffffffff1673ffffffffffffffffffffffffffffffffffffffff168152602001908152602001600020819055506009543373ffffffffffffffffffffffffffffffffffffffff167f70a6ab6ed794c2ceb8df59b7bb4e317e9b215d9ce74b88161ca5af2a5a801d6f84601c600060095481526020019081526020016000205485604051612b209392919061841b565b60405180910390a35090565b601e6020528060005260406000206000915054906101000a900460ff1681565b612b54612919565b50600e60009054906101000a900473ffffffffffffffffffffffffffffffffffffffff1673ffffffffffffffffffffffffffffffffffffffff1663f940e38582336040518363ffffffff1660e01b8152600401612bb2929190617f00565b602060405180830381600087803b158015612bcc57600080fd5b505af1158015612be0573d6000803e3d6000fd5b505050506040513d601f19601f82011682018060405250810190612c049190617616565b612c43576040517f08c379a0000000000000000000000000000000000000000000000000000000008152600401612c3a90618297565b60405180910390fd5b50565b60008054906101000a900473ffffffffffffffffffffffffffffffffffffffff1673ffffffffffffffffffffffffffffffffffffffff163373ffffffffffffffffffffffffffffffffffffffff1614612c9e57600080fd5b8463ffffffff166003819055508363ffffffff166006819055508263ffffffff166005819055508163ffffffff166007819055508063ffffffff166008819055505050505050565b600080601c60008481526020019081526020016000205490506000600d60009054906101000a900473ffffffffffffffffffffffffffffffffffffffff1673ffffffffffffffffffffffffffffffffffffffff166396c82e576040518163ffffffff1660e01b815260040160206040518083038186803b158015612d6957600080fd5b505afa158015612d7d573d6000803e3d6000fd5b505050506040513d601f19601f82011682018060405250810190612da19190617886565b600e60009054906101000a900473ffffffffffffffffffffffffffffffffffffffff1673ffffffffffffffffffffffffffffffffffffffff166396c82e576040518163ffffffff1660e01b815260040160206040518083038186803b158015612e0957600080fd5b505afa158015612e1d573d6000803e3d6000fd5b505050506040513d601f19601f82011682018060405250810190612e419190617886565b612e4b9190618593565b9050600061271060055483612e60919061861a565b612e6a91906185e9565b905080831115612e805760019350505050612e88565b600093505050505b919050565b60186020528060005260406000206000915090505481565b60155481565b60008054906101000a900473ffffffffffffffffffffffffffffffffffffffff1673ffffffffffffffffffffffffffffffffffffffff163373ffffffffffffffffffffffffffffffffffffffff1614612f0357600080fd5b6000600160009054906101000a900473ffffffffffffffffffffffffffffffffffffffff1673ffffffffffffffffffffffffffffffffffffffff166370a08231306040518263ffffffff1660e01b8152600401612f609190617ee5565b60206040518083038186803b158015612f7857600080fd5b505afa158015612f8c573d6000803e3d6000fd5b505050506040513d601f19601f82011682018060405250810190612fb09190617886565b9050600160009054906101000a900473ffffffffffffffffffffffffffffffffffffffff1673ffffffffffffffffffffffffffffffffffffffff1663a9059cbb83836040518363ffffffff1660e01b815260040161300f929190617f60565b602060405180830381600087803b15801561302957600080fd5b505af115801561303d573d6000803e3d6000fd5b505050506040513d601f19601f820116820180604052508101906130619190617616565b505050565b60025481565b60008054906101000a900473ffffffffffffffffffffffffffffffffffffffff1673ffffffffffffffffffffffffffffffffffffffff163373ffffffffffffffffffffffffffffffffffffffff16146130c457600080fd5b82600e60006101000a81548173ffffffffffffffffffffffffffffffffffffffff021916908373ffffffffffffffffffffffffffffffffffffffff16021790555081600d60006101000a81548173ffffffffffffffffffffffffffffffffffffffff021916908373ffffffffffffffffffffffffffffffffffffffff16021790555080601260006101000a81548173ffffffffffffffffffffffffffffffffffffffff021916908373ffffffffffffffffffffffffffffffffffffffff160217905550505050565b60075481565b600080601480548060200260200160405190810160405280929190818152602001828054801561321757602002820191906000526020600020905b8160009054906101000a900473ffffffffffffffffffffffffffffffffffffffff1673ffffffffffffffffffffffffffffffffffffffff16815260200190600101908083116131cd575b5050505050905060005b815181101561336557600061327685848481518110613269577f4e487b7100000000000000000000000000000000000000000000000000000000600052603260045260246000fd5b602002602001015161554c565b9050600081111561335157600d60009054906101000a900473ffffffffffffffffffffffffffffffffffffffff1673ffffffffffffffffffffffffffffffffffffffff16635bc262be8484815181106132f8577f4e487b7100000000000000000000000000000000000000000000000000000000600052603260045260246000fd5b6020026020010151876040518363ffffffff1660e01b815260040161331e929190617f00565b600060405180830381600087803b15801561333857600080fd5b505af115801561334c573d6000803e3d6000fd5b505050505b50808061335d9061895f565b915050613221565b506001915050919050565b6000600a60009054906101000a900460ff161561342e57600a60019054906101000a900473ffffffffffffffffffffffffffffffffffffffff1673ffffffffffffffffffffffffffffffffffffffff16637b0e5c456040518163ffffffff1660e01b815260040160206040518083038186803b1580156133ef57600080fd5b505afa158015613403573d6000803e3d6000fd5b505050506040513d601f19601f8201168201806040525081019061342791906177f3565b9050613454565b600c60009054906101000a900473ffffffffffffffffffffffffffffffffffffffff1690505b90565b60006001151560206000600954815260200190815260200160002060009054906101000a900460ff161515146134c2576040517f08c379a00000000000000000000000000000000000000000000000000000000081526004016134b9906182f7565b60405180910390fd5b6000601b6000600954815260200190815260200160002080546134e4906188fc565b80601f0160208091040260200160405190810160405280929190818152602001828054613510906188fc565b801561355d5780601f106135325761010080835404028352916020019161355d565b820191906000526020600020905b81548152906001019060200180831161354057829003601f168201915b5050505050905061356c6158fb565b9150613579600954614cee565b80156135ab575060001515601e6000600954815260200190815260200160002060009054906101000a900460ff161515145b15613806576135ef816040518060400160405280600381526020017f44414f0000000000000000000000000000000000000000000000000000000000815250611c50565b806136355750613634816040518060400160405280600581526020017f5554494c53000000000000000000000000000000000000000000000000000000815250611c50565b5b8061367b575061367a816040518060400160405280600781526020017f5245534552564500000000000000000000000000000000000000000000000000815250611c50565b5b806136c157506136c0816040518060400160405280600a81526020017f4745545f53504152544100000000000000000000000000000000000000000000815250611c50565b5b806137075750613706816040518060400160405280600681526020017f524f555445520000000000000000000000000000000000000000000000000000815250611c50565b5b8061374d575061374c816040518060400160405280600981526020017f4c4953545f424f4e440000000000000000000000000000000000000000000000815250611c50565b5b806137935750613792816040518060400160405280600581526020017f4752414e54000000000000000000000000000000000000000000000000000000815250611c50565b5b806137d957506137d8816040518060400160405280601081526020017f4144445f435552415445445f504f4f4c00000000000000000000000000000000815250611c50565b5b156137fc576137e9600954612ce6565b156137f7576137f6615b63565b5b613805565b613804615b63565b5b5b6009543373ffffffffffffffffffffffffffffffffffffffff167f4d46d88c7e981a5bf4572a83b5d88bcfefbd5ee6ca8df0588e27c4221a43640784601c6000600954815260200190815260200160002054856040516138689392919061841b565b60405180910390a35090565b60008054906101000a900473ffffffffffffffffffffffffffffffffffffffff1673ffffffffffffffffffffffffffffffffffffffff163373ffffffffffffffffffffffffffffffffffffffff16146138cc57600080fd5b82600b60006101000a81548173ffffffffffffffffffffffffffffffffffffffff021916908373ffffffffffffffffffffffffffffffffffffffff16021790555081600c60006101000a81548173ffffffffffffffffffffffffffffffffffffffff021916908373ffffffffffffffffffffffffffffffffffffffff16021790555080601160006101000a81548173ffffffffffffffffffffffffffffffffffffffff021916908373ffffffffffffffffffffffffffffffffffffffff160217905550505050565b602080528060005260406000206000915054906101000a900460ff1681565b62127500602160006009548152602001908152602001600020546139d79190618593565b4211613a18576040517f08c379a0000000000000000000000000000000000000000000000000000000008152600401613a0f90618137565b60405180910390fd5b6000601c6000600954815260200190815260200160002081905550600060206000600954815260200190815260200160002060006101000a81548160ff0219169083151502179055506009543373ffffffffffffffffffffffffffffffffffffffff167f0e67c2e72a9ea22e5d163549aebce99ddc3d1fbbc58e7ed196b0e88f458847d9601c6000600954815260200190815260200160002054601c6000600954815260200190815260200160002054600e60009054906101000a900473ffffffffffffffffffffffffffffffffffffffff1673ffffffffffffffffffffffffffffffffffffffff166396c82e576040518163ffffffff1660e01b815260040160206040518083038186803b158015613b3057600080fd5b505afa158015613b44573d6000803e3d6000fd5b505050506040513d601f19601f82011682018060405250810190613b689190617886565b604051613b7793929190618459565b60405180910390a3565b60055481565b600a60019054906101000a900473ffffffffffffffffffffffffffffffffffffffff1681565b60008060009054906101000a900473ffffffffffffffffffffffffffffffffffffffff1673ffffffffffffffffffffffffffffffffffffffff163373ffffffffffffffffffffffffffffffffffffffff1614613c0857600080fd5b601760008373ffffffffffffffffffffffffffffffffffffffff1673ffffffffffffffffffffffffffffffffffffffff16815260200190815260200160002060009054906101000a900460ff16613d15576001601760008473ffffffffffffffffffffffffffffffffffffffff1673ffffffffffffffffffffffffffffffffffffffff16815260200190815260200160002060006101000a81548160ff0219169083151502179055506014829080600181540180825580915050600190039060005260206000200160009091909190916101000a81548173ffffffffffffffffffffffffffffffffffffffff021916908373ffffffffffffffffffffffffffffffffffffffff1602179055505b8173ffffffffffffffffffffffffffffffffffffffff163373ffffffffffffffffffffffffffffffffffffffff167fa2c962e87fd75165c1496c9ea420ddb0231e124bf2625a77f828287c8050006860405160405180910390a360019050919050565b6000600a60009054906101000a900460ff1615613e3657600a60019054906101000a900473ffffffffffffffffffffffffffffffffffffffff1673ffffffffffffffffffffffffffffffffffffffff16639d2cc4366040518163ffffffff1660e01b815260040160206040518083038186803b158015613df757600080fd5b505afa158015613e0b573d6000803e3d6000fd5b505050506040513d601f19601f82011682018060405250810190613e2f919061774f565b9050613e5c565b601160009054906101000a900473ffffffffffffffffffffffffffffffffffffffff1690505b90565b60166020528060005260406000206000915054906101000a900460ff1681565b601d6020528060005260406000206000915090505481565b6000808211613edb576040517f08c379a0000000000000000000000000000000000000000000000000000000008152600401613ed2906182d7565b60405180910390fd5b601760008473ffffffffffffffffffffffffffffffffffffffff1673ffffffffffffffffffffffffffffffffffffffff16815260200190815260200160002060009054906101000a900460ff16613f67576040517f08c379a0000000000000000000000000000000000000000000000000000000008152600401613f5e90618117565b60405180910390fd5b60011515601660003373ffffffffffffffffffffffffffffffffffffffff1673ffffffffffffffffffffffffffffffffffffffff16815260200190815260200160002060009054906101000a900460ff1615151461407b576013339080600181540180825580915050600190039060005260206000200160009091909190916101000a81548173ffffffffffffffffffffffffffffffffffffffff021916908373ffffffffffffffffffffffffffffffffffffffff1602179055506001601660003373ffffffffffffffffffffffffffffffffffffffff1673ffffffffffffffffffffffffffffffffffffffff16815260200190815260200160002060006101000a81548160ff0219169083151502179055505b6000600d60009054906101000a900473ffffffffffffffffffffffffffffffffffffffff1673ffffffffffffffffffffffffffffffffffffffff16635364df49336040518263ffffffff1660e01b81526004016140d89190617ee5565b60206040518083038186803b1580156140f057600080fd5b505afa158015614104573d6000803e3d6000fd5b505050506040513d601f19601f820116820180604052508101906141289190617886565b600e60009054906101000a900473ffffffffffffffffffffffffffffffffffffffff1673ffffffffffffffffffffffffffffffffffffffff16635364df49336040518263ffffffff1660e01b81526004016141839190617ee5565b60206040518083038186803b15801561419b57600080fd5b505afa1580156141af573d6000803e3d6000fd5b505050506040513d601f19601f820116820180604052508101906141d39190617886565b6141dd9190618593565b11156141ec576141eb612746565b5b60006141f88484615cb0565b9050600d60009054906101000a900473ffffffffffffffffffffffffffffffffffffffff1673ffffffffffffffffffffffffffffffffffffffff1663bf58d0ef8533846040518463ffffffff1660e01b815260040161425993929190617f29565b600060405180830381600087803b15801561427357600080fd5b505af1158015614287573d6000803e3d6000fd5b5050505042601860003373ffffffffffffffffffffffffffffffffffffffff1673ffffffffffffffffffffffffffffffffffffffff168152602001908152602001600020819055503373ffffffffffffffffffffffffffffffffffffffff167fe4dd259ab128527fe8b5fdae0b44bda8db95a4de10b999d63dce142b1eb88d5484836040516143179291906183ad565b60405180910390a2600191505092915050565b60006143346156f0565b61433c6157c6565b5060006040518060400160405280600581526020017f4752414e54000000000000000000000000000000000000000000000000000000815250905080601b6000600954815260200190815260200160002090805190602001906143a092919061717b565b5083601a6000600954815260200190815260200160002060006101000a81548173ffffffffffffffffffffffffffffffffffffffff021916908373ffffffffffffffffffffffffffffffffffffffff16021790555082601960006009548152602001908152602001600020819055506009543373ffffffffffffffffffffffffffffffffffffffff167f8d500fcad86fc64a281b94ef64d6d66acbfc6862aa4ff2ee5fbbfb40736e803e8360405161445891906180d5565b60405180910390a360095491505092915050565b600354601d6000600954815260200190815260200160002054426144909190618674565b116144d0576040517f08c379a00000000000000000000000000000000000000000000000000000000081526004016144c7906181d7565b60405180910390fd5b60011515601e6000600954815260200190815260200160002060009054906101000a900460ff16151514614539576040517f08c379a000000000000000000000000000000000000000000000000000000000815260040161453090618237565b60405180910390fd5b614544600954614cee565b61457b576000601e6000600954815260200190815260200160002060006101000a81548160ff021916908315150217905550614a6b565b6000601b60006009548152602001908152602001600020805461459d906188fc565b80601f01602080910402602001604051908101604052809291908181526020018280546145c9906188fc565b80156146165780601f106145eb57610100808354040283529160200191614616565b820191906000526020600020905b8154815290600101906020018083116145f957829003601f168201915b5050505050905061465c816040518060400160405280600381526020017f44414f0000000000000000000000000000000000000000000000000000000000815250611c50565b156146715761466c600954616455565b614a69565b6146b0816040518060400160405280600681526020017f524f555445520000000000000000000000000000000000000000000000000000815250611c50565b156146c5576146c06009546165f3565b614a68565b614704816040518060400160405280600581526020017f5554494c53000000000000000000000000000000000000000000000000000000815250611c50565b15614719576147146009546166e9565b614a67565b614758816040518060400160405280600781526020017f5245534552564500000000000000000000000000000000000000000000000000815250611c50565b1561476d576147686009546167df565b614a66565b6147ac816040518060400160405280600e81526020017f464c49505f454d495353494f4e53000000000000000000000000000000000000815250611c50565b156147c1576147bc6009546168d5565b614a65565b614800816040518060400160405280600881526020017f434f4f4c5f4f4646000000000000000000000000000000000000000000000000815250611c50565b1561481557614810600954616984565b614a64565b614854816040518060400160405280600c81526020017f455241535f544f5f4541524e0000000000000000000000000000000000000000815250611c50565b15614869576148646009546169f4565b614a63565b6148a8816040518060400160405280600581526020017f4752414e54000000000000000000000000000000000000000000000000000000815250611c50565b156148bd576148b8600954616a64565b614a62565b6148fc816040518060400160405280600a81526020017f4745545f53504152544100000000000000000000000000000000000000000000815250611c50565b156149115761490c600954616c05565b614a61565b614950816040518060400160405280600981526020017f4c4953545f424f4e440000000000000000000000000000000000000000000000815250611c50565b1561496557614960600954616cb1565b614a60565b6149a4816040518060400160405280600b81526020017f44454c4953545f424f4e44000000000000000000000000000000000000000000815250611c50565b156149b9576149b4600954616d00565b614a5f565b6149f8816040518060400160405280601081526020017f4144445f435552415445445f504f4f4c00000000000000000000000000000000815250611c50565b15614a0d57614a08600954616d4f565b614a5e565b614a4c816040518060400160405280601381526020017f52454d4f56455f435552415445445f504f4f4c00000000000000000000000000815250611c50565b15614a5d57614a5c600954616e42565b5b5b5b5b5b5b5b5b5b5b5b5b5b505b565b60035481565b601a6020528060005260406000206000915054906101000a900473ffffffffffffffffffffffffffffffffffffffff1681565b60008054906101000a900473ffffffffffffffffffffffffffffffffffffffff1673ffffffffffffffffffffffffffffffffffffffff163373ffffffffffffffffffffffffffffffffffffffff1614614afe57600080fd5b8060158190555050565b60216020528060005260406000206000915090505481565b6000600a60009054906101000a900460ff1615614bde57600a60019054906101000a900473ffffffffffffffffffffffffffffffffffffffff1673ffffffffffffffffffffffffffffffffffffffff1663b93ec54b6040518163ffffffff1660e01b815260040160206040518083038186803b158015614b9f57600080fd5b505afa158015614bb3573d6000803e3d6000fd5b505050506040513d601f19601f82011682018060405250810190614bd791906177a1565b9050614c04565b601060009054906101000a900473ffffffffffffffffffffffffffffffffffffffff1690505b90565b6000600a60009054906101000a900460ff1615614cc557600a60019054906101000a900473ffffffffffffffffffffffffffffffffffffffff1673ffffffffffffffffffffffffffffffffffffffff1663b99b0a0c6040518163ffffffff1660e01b815260040160206040518083038186803b158015614c8657600080fd5b505afa158015614c9a573d6000803e3d6000fd5b505050506040513d601f19601f82011682018060405250810190614cbe9190617726565b9050614ceb565b600f60009054906101000a900473ffffffffffffffffffffffffffffffffffffffff1690505b90565b600080601c60008481526020019081526020016000205490506000600d60009054906101000a900473ffffffffffffffffffffffffffffffffffffffff1673ffffffffffffffffffffffffffffffffffffffff166396c82e576040518163ffffffff1660e01b815260040160206040518083038186803b158015614d7157600080fd5b505afa158015614d85573d6000803e3d6000fd5b505050506040513d601f19601f82011682018060405250810190614da99190617886565b600e60009054906101000a900473ffffffffffffffffffffffffffffffffffffffff1673ffffffffffffffffffffffffffffffffffffffff166396c82e576040518163ffffffff1660e01b815260040160206040518083038186803b158015614e1157600080fd5b505afa158015614e25573d6000803e3d6000fd5b505050506040513d601f19601f82011682018060405250810190614e499190617886565b614e539190618593565b90506000600282614e6491906185e9565b905080831115614e7a5760019350505050614e82565b600093505050505b919050565b60008060009054906101000a900473ffffffffffffffffffffffffffffffffffffffff1673ffffffffffffffffffffffffffffffffffffffff163373ffffffffffffffffffffffffffffffffffffffff1614614ee257600080fd5b6000600160009054906101000a900473ffffffffffffffffffffffffffffffffffffffff1673ffffffffffffffffffffffffffffffffffffffff166370a08231306040518263ffffffff1660e01b8152600401614f3f9190617ee5565b60206040518083038186803b158015614f5757600080fd5b505afa158015614f6b573d6000803e3d6000fd5b505050506040513d601f19601f82011682018060405250810190614f8f9190617886565b9050600160009054906101000a900473ffffffffffffffffffffffffffffffffffffffff1673ffffffffffffffffffffffffffffffffffffffff166342966c68826040518263ffffffff1660e01b8152600401614fec9190618339565b600060405180830381600087803b15801561500657600080fd5b505af115801561501a573d6000803e3d6000fd5b50505050600191505090565b601b6020528060005260406000206000915090508054615045906188fc565b80601f0160208091040260200160405190810160405280929190818152602001828054615071906188fc565b80156150be5780601f10615093576101008083540402835291602001916150be565b820191906000526020600020905b8154815290600101906020018083116150a157829003601f168201915b505050505081565b60008054906101000a900473ffffffffffffffffffffffffffffffffffffffff1681565b6022602052816000526040600020602052806000526040600020600091509150505481565b600080601c60008481526020019081526020016000205490506000600d60009054906101000a900473ffffffffffffffffffffffffffffffffffffffff1673ffffffffffffffffffffffffffffffffffffffff166396c82e576040518163ffffffff1660e01b815260040160206040518083038186803b15801561519257600080fd5b505afa1580156151a6573d6000803e3d6000fd5b505050506040513d601f19601f820116820180604052508101906151ca9190617886565b600e60009054906101000a900473ffffffffffffffffffffffffffffffffffffffff1673ffffffffffffffffffffffffffffffffffffffff166396c82e576040518163ffffffff1660e01b815260040160206040518083038186803b15801561523257600080fd5b505afa158015615246573d6000803e3d6000fd5b505050506040513d601f19601f8201168201806040525081019061526a9190617886565b6152749190618593565b9050600060068261528591906185e9565b90508083111561529b57600193505050506152a3565b600093505050505b919050565b60006152b26156f0565b6152ba6157c6565b5081601b6000600954815260200190815260200160002090805190602001906152e492919061717b565b506009543373ffffffffffffffffffffffffffffffffffffffff167f8d500fcad86fc64a281b94ef64d6d66acbfc6862aa4ff2ee5fbbfb40736e803e8460405161532e91906180d5565b60405180910390a36009549050919050565b60045481565b601c6020528060005260406000206000915090505481565b60008060009054906101000a900473ffffffffffffffffffffffffffffffffffffffff1673ffffffffffffffffffffffffffffffffffffffff163373ffffffffffffffffffffffffffffffffffffffff16146153b957600080fd5b6000601760008473ffffffffffffffffffffffffffffffffffffffff1673ffffffffffffffffffffffffffffffffffffffff16815260200190815260200160002060006101000a81548160ff0219169083151502179055508173ffffffffffffffffffffffffffffffffffffffff163373ffffffffffffffffffffffffffffffffffffffff167ff487c2322baa448cfa506b983134d9dd9f27d0bbfe0b48119a3908d4f0dde89f60405160405180910390a360019050919050565b600080615481338461554c565b9050600081111561551c57600d60009054906101000a900473ffffffffffffffffffffffffffffffffffffffff1673ffffffffffffffffffffffffffffffffffffffff16635bc262be84336040518363ffffffff1660e01b81526004016154e9929190617f00565b600060405180830381600087803b15801561550357600080fd5b505af1158015615517573d6000803e3d6000fd5b505050505b6001915050919050565b600160009054906101000a900473ffffffffffffffffffffffffffffffffffffffff1681565b600080600d60009054906101000a900473ffffffffffffffffffffffffffffffffffffffff1673ffffffffffffffffffffffffffffffffffffffff1663ba0ba54f85856040518363ffffffff1660e01b81526004016155ac929190617f00565b602060405180830381600087803b1580156155c657600080fd5b505af11580156155da573d6000803e3d6000fd5b505050506040513d601f19601f820116820180604052508101906155fe9190617886565b90508091505092915050565b60006156146156f0565b61561c6157c6565b508263ffffffff166019600060095481526020019081526020016000208190555081601b60006009548152602001908152602001600020908051906020019061566692919061717b565b506009543373ffffffffffffffffffffffffffffffffffffffff167f8d500fcad86fc64a281b94ef64d6d66acbfc6862aa4ff2ee5fbbfb40736e803e846040516156b091906180d5565b60405180910390a3600954905092915050565b60176020528060005260406000206000915054906101000a900460ff1681565b6000601480549050905090565b6000151560206000600954815260200190815260200160002060009054906101000a900460ff16151514615759576040517f08c379a000000000000000000000000000000000000000000000000000000000815260040161575090618177565b60405180910390fd5b60016004600082825461576c9190618593565b92505081905550600454600981905550600160206000600954815260200190815260200160002060006101000a81548160ff0219169083151502179055504260216000600954815260200190815260200160002081905550565b600080670de0b6b3a76400006008546157df919061861a565b9050600160009054906101000a900473ffffffffffffffffffffffffffffffffffffffff1673ffffffffffffffffffffffffffffffffffffffff166323b872dd33601160009054906101000a900473ffffffffffffffffffffffffffffffffffffffff16846040518463ffffffff1660e01b815260040161586293929190617f29565b602060405180830381600087803b15801561587c57600080fd5b505af1158015615890573d6000803e3d6000fd5b505050506040513d601f19601f820116820180604052508101906158b49190617616565b6158f3576040517f08c379a00000000000000000000000000000000000000000000000000000000081526004016158ea90618197565b60405180910390fd5b600191505090565b600060226000600954815260200190815260200160002060003373ffffffffffffffffffffffffffffffffffffffff1673ffffffffffffffffffffffffffffffffffffffff16815260200190815260200160002054601c6000600954815260200190815260200160002060008282546159749190618674565b92505081905550600d60009054906101000a900473ffffffffffffffffffffffffffffffffffffffff1673ffffffffffffffffffffffffffffffffffffffff16635364df49336040518263ffffffff1660e01b81526004016159d69190617ee5565b60206040518083038186803b1580156159ee57600080fd5b505afa158015615a02573d6000803e3d6000fd5b505050506040513d601f19601f82011682018060405250810190615a269190617886565b600e60009054906101000a900473ffffffffffffffffffffffffffffffffffffffff1673ffffffffffffffffffffffffffffffffffffffff16635364df49336040518263ffffffff1660e01b8152600401615a819190617ee5565b60206040518083038186803b158015615a9957600080fd5b505afa158015615aad573d6000803e3d6000fd5b505050506040513d601f19601f82011682018060405250810190615ad19190617886565b615adb9190618593565b905080601c600060095481526020019081526020016000206000828254615b029190618593565b925050819055508060226000600954815260200190815260200160002060003373ffffffffffffffffffffffffffffffffffffffff1673ffffffffffffffffffffffffffffffffffffffff1681526020019081526020016000208190555090565b6000601b600060095481526020019081526020016000208054615b85906188fc565b80601f0160208091040260200160405190810160405280929190818152602001828054615bb1906188fc565b8015615bfe5780601f10615bd357610100808354040283529160200191615bfe565b820191906000526020600020905b815481529060010190602001808311615be157829003601f168201915b505050505090506001601e6000600954815260200190815260200160002060006101000a81548160ff02191690831515021790555042601d60006009548152602001908152602001600020819055506009543373ffffffffffffffffffffffffffffffffffffffff167f0f36aea5066f9f90a999260fe4ce8d7713f7f07f5ae61bf36d73cc51170a3a9e60035442615c969190618593565b84604051615ca592919061837d565b60405180910390a350565b600080600c60009054906101000a900473ffffffffffffffffffffffffffffffffffffffff1673ffffffffffffffffffffffffffffffffffffffff1663b80e44b885856040518363ffffffff1660e01b8152600401615d10929190617f60565b60206040518083038186803b158015615d2857600080fd5b505afa158015615d3c573d6000803e3d6000fd5b505050506040513d601f19601f82011682018060405250810190615d609190617886565b905080600160009054906101000a900473ffffffffffffffffffffffffffffffffffffffff1673ffffffffffffffffffffffffffffffffffffffff1663dd62ed3e30600b60009054906101000a900473ffffffffffffffffffffffffffffffffffffffff166040518363ffffffff1660e01b8152600401615de2929190617f00565b60206040518083038186803b158015615dfa57600080fd5b505afa158015615e0e573d6000803e3d6000fd5b505050506040513d601f19601f82011682018060405250810190615e329190617886565b1015615faa57600160009054906101000a900473ffffffffffffffffffffffffffffffffffffffff1673ffffffffffffffffffffffffffffffffffffffff1663095ea7b3600b60009054906101000a900473ffffffffffffffffffffffffffffffffffffffff16600160009054906101000a900473ffffffffffffffffffffffffffffffffffffffff1673ffffffffffffffffffffffffffffffffffffffff166318160ddd6040518163ffffffff1660e01b815260040160206040518083038186803b158015615f0157600080fd5b505afa158015615f15573d6000803e3d6000fd5b505050506040513d601f19601f82011682018060405250810190615f399190617886565b6040518363ffffffff1660e01b8152600401615f56929190617f60565b602060405180830381600087803b158015615f7057600080fd5b505af1158015615f84573d6000803e3d6000fd5b505050506040513d601f19601f82011682018060405250810190615fa89190617616565b505b600073ffffffffffffffffffffffffffffffffffffffff168473ffffffffffffffffffffffffffffffffffffffff1614156160fe57348314616021576040517f08c379a0000000000000000000000000000000000000000000000000000000008152600401616018906181f7565b60405180910390fd5b600b60009054906101000a900473ffffffffffffffffffffffffffffffffffffffff1673ffffffffffffffffffffffffffffffffffffffff166393cac68584838688600d60009054906101000a900473ffffffffffffffffffffffffffffffffffffffff166040518663ffffffff1660e01b81526004016160a594939291906183d6565b6020604051808303818588803b1580156160be57600080fd5b505af11580156160d2573d6000803e3d6000fd5b50505050506040513d601f19601f820116820180604052508101906160f79190617886565b915061644e565b8373ffffffffffffffffffffffffffffffffffffffff166323b872dd3330866040518463ffffffff1660e01b815260040161613b93929190617f29565b602060405180830381600087803b15801561615557600080fd5b505af1158015616169573d6000803e3d6000fd5b505050506040513d601f19601f8201168201806040525081019061618d9190617616565b50828473ffffffffffffffffffffffffffffffffffffffff1663dd62ed3e30600b60009054906101000a900473ffffffffffffffffffffffffffffffffffffffff166040518363ffffffff1660e01b81526004016161ec929190617f00565b60206040518083038186803b15801561620457600080fd5b505afa158015616218573d6000803e3d6000fd5b505050506040513d601f19601f8201168201806040525081019061623c9190617886565b10156163765760008473ffffffffffffffffffffffffffffffffffffffff166318160ddd6040518163ffffffff1660e01b815260040160206040518083038186803b15801561628a57600080fd5b505afa15801561629e573d6000803e3d6000fd5b505050506040513d601f19601f820116820180604052508101906162c29190617886565b90508473ffffffffffffffffffffffffffffffffffffffff1663095ea7b3600b60009054906101000a900473ffffffffffffffffffffffffffffffffffffffff16836040518363ffffffff1660e01b8152600401616321929190617f60565b602060405180830381600087803b15801561633b57600080fd5b505af115801561634f573d6000803e3d6000fd5b505050506040513d601f19601f820116820180604052508101906163739190617616565b50505b600b60009054906101000a900473ffffffffffffffffffffffffffffffffffffffff1673ffffffffffffffffffffffffffffffffffffffff166393cac685828587600d60009054906101000a900473ffffffffffffffffffffffffffffffffffffffff166040518563ffffffff1660e01b81526004016163f994939291906183d6565b602060405180830381600087803b15801561641357600080fd5b505af1158015616427573d6000803e3d6000fd5b505050506040513d601f19601f8201168201806040525081019061644b9190617886565b91505b5092915050565b6000601a600083815260200190815260200160002060009054906101000a900473ffffffffffffffffffffffffffffffffffffffff169050600073ffffffffffffffffffffffffffffffffffffffff168173ffffffffffffffffffffffffffffffffffffffff1614156164fd576040517f08c379a00000000000000000000000000000000000000000000000000000000081526004016164f4906182b7565b60405180910390fd5b80600a60016101000a81548173ffffffffffffffffffffffffffffffffffffffff021916908373ffffffffffffffffffffffffffffffffffffffff160217905550600160009054906101000a900473ffffffffffffffffffffffffffffffffffffffff1673ffffffffffffffffffffffffffffffffffffffff16631d007f5f826040518263ffffffff1660e01b81526004016165999190617ee5565b600060405180830381600087803b1580156165b357600080fd5b505af11580156165c7573d6000803e3d6000fd5b505050506001600a60006101000a81548160ff0219169083151502179055506165ef82616f35565b5050565b6000601a600083815260200190815260200160002060009054906101000a900473ffffffffffffffffffffffffffffffffffffffff169050600073ffffffffffffffffffffffffffffffffffffffff168173ffffffffffffffffffffffffffffffffffffffff16141561669b576040517f08c379a0000000000000000000000000000000000000000000000000000000008152600401616692906182b7565b60405180910390fd5b80600b60006101000a81548173ffffffffffffffffffffffffffffffffffffffff021916908373ffffffffffffffffffffffffffffffffffffffff1602179055506166e582616f35565b5050565b6000601a600083815260200190815260200160002060009054906101000a900473ffffffffffffffffffffffffffffffffffffffff169050600073ffffffffffffffffffffffffffffffffffffffff168173ffffffffffffffffffffffffffffffffffffffff161415616791576040517f08c379a0000000000000000000000000000000000000000000000000000000008152600401616788906182b7565b60405180910390fd5b80600c60006101000a81548173ffffffffffffffffffffffffffffffffffffffff021916908373ffffffffffffffffffffffffffffffffffffffff1602179055506167db82616f35565b5050565b6000601a600083815260200190815260200160002060009054906101000a900473ffffffffffffffffffffffffffffffffffffffff169050600073ffffffffffffffffffffffffffffffffffffffff168173ffffffffffffffffffffffffffffffffffffffff161415616887576040517f08c379a000000000000000000000000000000000000000000000000000000000815260040161687e906182b7565b60405180910390fd5b80601160006101000a81548173ffffffffffffffffffffffffffffffffffffffff021916908373ffffffffffffffffffffffffffffffffffffffff1602179055506168d182616f35565b5050565b600160009054906101000a900473ffffffffffffffffffffffffffffffffffffffff1673ffffffffffffffffffffffffffffffffffffffff1663fe1fa8fa6040518163ffffffff1660e01b8152600401602060405180830381600087803b15801561693f57600080fd5b505af1158015616953573d6000803e3d6000fd5b505050506040513d601f19601f820116820180604052508101906169779190617616565b5061698181616f35565b50565b60006019600083815260200190815260200160002054905060008114156169e0576040517f08c379a00000000000000000000000000000000000000000000000000000000081526004016169d7906181b7565b60405180910390fd5b806003819055506169f082616f35565b5050565b6000601960008381526020019081526020016000205490506000811415616a50576040517f08c379a0000000000000000000000000000000000000000000000000000000008152600401616a47906181b7565b60405180910390fd5b80600681905550616a6082616f35565b5050565b6000601960008381526020019081526020016000205490506000601a600084815260200190815260200160002060009054906101000a900473ffffffffffffffffffffffffffffffffffffffff1690506000821415616af8576040517f08c379a0000000000000000000000000000000000000000000000000000000008152600401616aef906181b7565b60405180910390fd5b600073ffffffffffffffffffffffffffffffffffffffff168173ffffffffffffffffffffffffffffffffffffffff161415616b68576040517f08c379a0000000000000000000000000000000000000000000000000000000008152600401616b5f906182b7565b60405180910390fd5b601160009054906101000a900473ffffffffffffffffffffffffffffffffffffffff1673ffffffffffffffffffffffffffffffffffffffff16637d458baa83836040518363ffffffff1660e01b8152600401616bc5929190618354565b600060405180830381600087803b158015616bdf57600080fd5b505af1158015616bf3573d6000803e3d6000fd5b50505050616c0083616f35565b505050565b60006a02116545850052128000009050600160009054906101000a900473ffffffffffffffffffffffffffffffffffffffff1673ffffffffffffffffffffffffffffffffffffffff1663d01f6fba82306040518363ffffffff1660e01b8152600401616c72929190618354565b600060405180830381600087803b158015616c8c57600080fd5b505af1158015616ca0573d6000803e3d6000fd5b50505050616cad82616f35565b5050565b6000601a600083815260200190815260200160002060009054906101000a900473ffffffffffffffffffffffffffffffffffffffff169050616cf281613bad565b50616cfc82616f35565b5050565b6000601a600083815260200190815260200160002060009054906101000a900473ffffffffffffffffffffffffffffffffffffffff169050616d418161535e565b50616d4b82616f35565b5050565b6000601a600083815260200190815260200160002060009054906101000a900473ffffffffffffffffffffffffffffffffffffffff169050600f60009054906101000a900473ffffffffffffffffffffffffffffffffffffffff1673ffffffffffffffffffffffffffffffffffffffff16632b2260a8826040518263ffffffff1660e01b8152600401616de29190617ee5565b602060405180830381600087803b158015616dfc57600080fd5b505af1158015616e10573d6000803e3d6000fd5b505050506040513d601f19601f82011682018060405250810190616e349190617616565b50616e3e82616f35565b5050565b6000601a600083815260200190815260200160002060009054906101000a900473ffffffffffffffffffffffffffffffffffffffff169050600f60009054906101000a900473ffffffffffffffffffffffffffffffffffffffff1673ffffffffffffffffffffffffffffffffffffffff16637ca51fbf826040518263ffffffff1660e01b8152600401616ed59190617ee5565b602060405180830381600087803b158015616eef57600080fd5b505af1158015616f03573d6000803e3d6000fd5b505050506040513d601f19601f82011682018060405250810190616f279190617616565b50616f3182616f35565b5050565b6000601b60008381526020019081526020016000208054616f55906188fc565b80601f0160208091040260200160405190810160405280929190818152602001828054616f81906188fc565b8015616fce5780601f10616fa357610100808354040283529160200191616fce565b820191906000526020600020905b815481529060010190602001808311616fb157829003601f168201915b50505050509050813373ffffffffffffffffffffffffffffffffffffffff167f28fca9bc3d4a734a707bd9396d50341c1f45e1d455c4aa4a58ceee0e09f64544601c600086815260200190815260200160002054600e60009054906101000a900473ffffffffffffffffffffffffffffffffffffffff1673ffffffffffffffffffffffffffffffffffffffff166396c82e576040518163ffffffff1660e01b815260040160206040518083038186803b15801561708a57600080fd5b505afa15801561709e573d6000803e3d6000fd5b505050506040513d601f19601f820116820180604052508101906170c29190617886565b856040516170d29392919061841b565b60405180910390a36000601c6000848152602001908152602001600020819055506001601f600084815260200190815260200160002060006101000a81548160ff0219169083151502179055506000601e600084815260200190815260200160002060006101000a81548160ff02191690831515021790555060006020600084815260200190815260200160002060006101000a81548160ff0219169083151502179055505050565b828054617187906188fc565b90600052602060002090601f0160209004810192826171a957600085556171f0565b82601f106171c257805160ff19168380011785556171f0565b828001600101855582156171f0579182015b828111156171ef5782518255916020019190600101906171d4565b5b5090506171fd9190617270565b5090565b6040518061014001604052806000815260200160608152602001600081526020016000815260200160001515815260200160001515815260200160008152602001600073ffffffffffffffffffffffffffffffffffffffff168152602001600015158152602001600081525090565b5b80821115617289576000816000905550600101617271565b5090565b60006172a061729b846184b5565b618490565b9050828152602081018484840111156172b857600080fd5b6172c38482856188ba565b509392505050565b60006172de6172d9846184e6565b618490565b9050828152602081018484840111156172f657600080fd5b6173018482856188ba565b509392505050565b60008135905061731881618d2e565b92915050565b60008151905061732d81618d45565b92915050565b60008151905061734281618d5c565b92915050565b600082601f83011261735957600080fd5b813561736984826020860161728d565b91505092915050565b60008151905061738181618d73565b92915050565b60008151905061739681618d8a565b92915050565b6000815190506173ab81618da1565b92915050565b6000815190506173c081618db8565b92915050565b6000815190506173d581618dcf565b92915050565b6000815190506173ea81618de6565b92915050565b6000815190506173ff81618dfd565b92915050565b60008151905061741481618e14565b92915050565b600082601f83011261742b57600080fd5b813561743b8482602086016172cb565b91505092915050565b60008135905061745381618e2b565b92915050565b60008151905061746881618e2b565b92915050565b60008135905061747d81618e42565b92915050565b60006020828403121561749557600080fd5b60006174a384828501617309565b91505092915050565b600080604083850312156174bf57600080fd5b60006174cd85828601617309565b92505060206174de85828601617309565b9150509250929050565b6000806000606084860312156174fd57600080fd5b600061750b86828701617309565b935050602061751c86828701617309565b925050604061752d86828701617309565b9150509250925092565b6000806040838503121561754a57600080fd5b600061755885828601617309565b925050602083013567ffffffffffffffff81111561757557600080fd5b6175818582860161741a565b9150509250929050565b6000806040838503121561759e57600080fd5b60006175ac85828601617309565b92505060206175bd85828601617444565b9150509250929050565b6000806000606084860312156175dc57600080fd5b60006175ea86828701617309565b93505060206175fb86828701617444565b925050604061760c86828701617309565b9150509250925092565b60006020828403121561762857600080fd5b60006176368482850161731e565b91505092915050565b60006020828403121561765157600080fd5b600061765f84828501617333565b91505092915050565b6000806040838503121561767b57600080fd5b600083013567ffffffffffffffff81111561769557600080fd5b6176a185828601617348565b925050602083013567ffffffffffffffff8111156176be57600080fd5b6176ca85828601617348565b9150509250929050565b6000602082840312156176e657600080fd5b60006176f484828501617372565b91505092915050565b60006020828403121561770f57600080fd5b600061771d84828501617387565b91505092915050565b60006020828403121561773857600080fd5b60006177468482850161739c565b91505092915050565b60006020828403121561776157600080fd5b600061776f848285016173b1565b91505092915050565b60006020828403121561778a57600080fd5b6000617798848285016173c6565b91505092915050565b6000602082840312156177b357600080fd5b60006177c1848285016173db565b91505092915050565b6000602082840312156177dc57600080fd5b60006177ea848285016173f0565b91505092915050565b60006020828403121561780557600080fd5b600061781384828501617405565b91505092915050565b60006020828403121561782e57600080fd5b600082013567ffffffffffffffff81111561784857600080fd5b6178548482850161741a565b91505092915050565b60006020828403121561786f57600080fd5b600061787d84828501617444565b91505092915050565b60006020828403121561789857600080fd5b60006178a684828501617459565b91505092915050565b600080604083850312156178c257600080fd5b60006178d085828601617444565b92505060206178e185828601617309565b9150509250929050565b600080604083850312156178fe57600080fd5b600061790c8582860161746e565b925050602083013567ffffffffffffffff81111561792957600080fd5b6179358582860161741a565b9150509250929050565b600080600080600060a0868803121561795757600080fd5b60006179658882890161746e565b95505060206179768882890161746e565b94505060406179878882890161746e565b93505060606179988882890161746e565b92505060806179a98882890161746e565b9150509295509295909350565b60006179c283836179ce565b60208301905092915050565b6179d7816186a8565b82525050565b6179e6816186a8565b82525050565b60006179f782618527565b617a018185618555565b9350617a0c83618517565b8060005b83811015617a3d578151617a2488826179b6565b9750617a2f83618548565b925050600181019050617a10565b5085935050505092915050565b617a53816186ba565b82525050565b617a62816186ba565b82525050565b6000617a7382618532565b617a7d8185618566565b9350617a8d8185602086016188c9565b80840191505092915050565b617aa28161879a565b82525050565b617ab1816187be565b82525050565b617ac0816187e2565b82525050565b617acf81618806565b82525050565b617ade8161882a565b82525050565b617aed8161884e565b82525050565b617afc81618872565b82525050565b617b0b81618896565b82525050565b6000617b1c8261853d565b617b268185618571565b9350617b368185602086016188c9565b617b3f81618a64565b840191505092915050565b6000617b558261853d565b617b5f8185618582565b9350617b6f8185602086016188c9565b617b7881618a64565b840191505092915050565b6000617b90600683618582565b9150617b9b82618a75565b602082019050919050565b6000617bb3600783618582565b9150617bbe82618a9e565b602082019050919050565b6000617bd6600783618582565b9150617be182618ac7565b602082019050919050565b6000617bf9600783618582565b9150617c0482618af0565b602082019050919050565b6000617c1c600583618582565b9150617c2782618b19565b602082019050919050565b6000617c3f600483618582565b9150617c4a82618b42565b602082019050919050565b6000617c62601183618582565b9150617c6d82618b6b565b602082019050919050565b6000617c85600883618582565b9150617c9082618b94565b602082019050919050565b6000617ca8600883618582565b9150617cb382618bbd565b602082019050919050565b6000617ccb600a83618582565b9150617cd682618be6565b602082019050919050565b6000617cee600b83618582565b9150617cf982618c0f565b602082019050919050565b6000617d11600783618582565b9150617d1c82618c38565b602082019050919050565b6000617d34600883618582565b9150617d3f82618c61565b602082019050919050565b6000617d57600983618582565b9150617d6282618c8a565b602082019050919050565b6000617d7a601383618582565b9150617d8582618cb3565b602082019050919050565b6000617d9d600683618582565b9150617da882618cdc565b602082019050919050565b6000617dc0600583618582565b9150617dcb82618d05565b602082019050919050565b600061014083016000830151617def6000860182617eb0565b5060208301518482036020860152617e078282617b11565b9150506040830151617e1c6040860182617eb0565b506060830151617e2f6060860182617eb0565b506080830151617e426080860182617a4a565b5060a0830151617e5560a0860182617a4a565b5060c0830151617e6860c0860182617eb0565b5060e0830151617e7b60e08601826179ce565b50610100830151617e90610100860182617a4a565b50610120830151617ea5610120860182617eb0565b508091505092915050565b617eb981618780565b82525050565b617ec881618780565b82525050565b6000617eda8284617a68565b915081905092915050565b6000602082019050617efa60008301846179dd565b92915050565b6000604082019050617f1560008301856179dd565b617f2260208301846179dd565b9392505050565b6000606082019050617f3e60008301866179dd565b617f4b60208301856179dd565b617f586040830184617ebf565b949350505050565b6000604082019050617f7560008301856179dd565b617f826020830184617ebf565b9392505050565b6000606082019050617f9e60008301866179dd565b617fab6020830185617ebf565b617fb860408301846179dd565b949350505050565b60006020820190508181036000830152617fda81846179ec565b905092915050565b6000602082019050617ff76000830184617a59565b92915050565b60006020820190506180126000830184617a99565b92915050565b600060208201905061802d6000830184617aa8565b92915050565b60006020820190506180486000830184617ab7565b92915050565b60006020820190506180636000830184617ac6565b92915050565b600060208201905061807e6000830184617ad5565b92915050565b60006020820190506180996000830184617ae4565b92915050565b60006020820190506180b46000830184617af3565b92915050565b60006020820190506180cf6000830184617b02565b92915050565b600060208201905081810360008301526180ef8184617b4a565b905092915050565b6000602082019050818103600083015261811081617b83565b9050919050565b6000602082019050818103600083015261813081617ba6565b9050919050565b6000602082019050818103600083015261815081617bc9565b9050919050565b6000602082019050818103600083015261817081617bec565b9050919050565b6000602082019050818103600083015261819081617c0f565b9050919050565b600060208201905081810360008301526181b081617c32565b9050919050565b600060208201905081810360008301526181d081617c55565b9050919050565b600060208201905081810360008301526181f081617c78565b9050919050565b6000602082019050818103600083015261821081617c9b565b9050919050565b6000602082019050818103600083015261823081617cbe565b9050919050565b6000602082019050818103600083015261825081617ce1565b9050919050565b6000602082019050818103600083015261827081617d04565b9050919050565b6000602082019050818103600083015261829081617d27565b9050919050565b600060208201905081810360008301526182b081617d4a565b9050919050565b600060208201905081810360008301526182d081617d6d565b9050919050565b600060208201905081810360008301526182f081617d90565b9050919050565b6000602082019050818103600083015261831081617db3565b9050919050565b600060208201905081810360008301526183318184617dd6565b905092915050565b600060208201905061834e6000830184617ebf565b92915050565b60006040820190506183696000830185617ebf565b61837660208301846179dd565b9392505050565b60006040820190506183926000830185617ebf565b81810360208301526183a48184617b4a565b90509392505050565b60006040820190506183c26000830185617ebf565b6183cf6020830184617ebf565b9392505050565b60006080820190506183eb6000830187617ebf565b6183f86020830186617ebf565b61840560408301856179dd565b61841260608301846179dd565b95945050505050565b60006060820190506184306000830186617ebf565b61843d6020830185617ebf565b818103604083015261844f8184617b4a565b9050949350505050565b600060608201905061846e6000830186617ebf565b61847b6020830185617ebf565b6184886040830184617ebf565b949350505050565b600061849a6184ab565b90506184a6828261892e565b919050565b6000604051905090565b600067ffffffffffffffff8211156184d0576184cf618a35565b5b6184d982618a64565b9050602081019050919050565b600067ffffffffffffffff82111561850157618500618a35565b5b61850a82618a64565b9050602081019050919050565b6000819050602082019050919050565b600081519050919050565b600081519050919050565b600081519050919050565b6000602082019050919050565b600082825260208201905092915050565b600081905092915050565b600082825260208201905092915050565b600082825260208201905092915050565b600061859e82618780565b91506185a983618780565b9250827fffffffffffffffffffffffffffffffffffffffffffffffffffffffffffffffff038211156185de576185dd6189a8565b5b828201905092915050565b60006185f482618780565b91506185ff83618780565b92508261860f5761860e6189d7565b5b828204905092915050565b600061862582618780565b915061863083618780565b9250817fffffffffffffffffffffffffffffffffffffffffffffffffffffffffffffffff0483118215151615618669576186686189a8565b5b828202905092915050565b600061867f82618780565b915061868a83618780565b92508282101561869d5761869c6189a8565b5b828203905092915050565b60006186b382618760565b9050919050565b60008115159050919050565b6000819050919050565b60006186db826186a8565b9050919050565b60006186ed826186a8565b9050919050565b60006186ff826186a8565b9050919050565b6000618711826186a8565b9050919050565b6000618723826186a8565b9050919050565b6000618735826186a8565b9050919050565b6000618747826186a8565b9050919050565b6000618759826186a8565b9050919050565b600073ffffffffffffffffffffffffffffffffffffffff82169050919050565b6000819050919050565b600063ffffffff82169050919050565b60006187a5826187ac565b9050919050565b60006187b782618760565b9050919050565b60006187c9826187d0565b9050919050565b60006187db82618760565b9050919050565b60006187ed826187f4565b9050919050565b60006187ff82618760565b9050919050565b600061881182618818565b9050919050565b600061882382618760565b9050919050565b60006188358261883c565b9050919050565b600061884782618760565b9050919050565b600061885982618860565b9050919050565b600061886b82618760565b9050919050565b600061887d82618884565b9050919050565b600061888f82618760565b9050919050565b60006188a1826188a8565b9050919050565b60006188b382618760565b9050919050565b82818337600083830152505050565b60005b838110156188e75780820151818401526020810190506188cc565b838111156188f6576000848401525b50505050565b6000600282049050600182168061891457607f821691505b6020821081141561892857618927618a06565b5b50919050565b61893782618a64565b810181811067ffffffffffffffff8211171561895657618955618a35565b5b80604052505050565b600061896a82618780565b91507fffffffffffffffffffffffffffffffffffffffffffffffffffffffffffffffff82141561899d5761899c6189a8565b5b600182019050919050565b7f4e487b7100000000000000000000000000000000000000000000000000000000600052601160045260246000fd5b7f4e487b7100000000000000000000000000000000000000000000000000000000600052601260045260246000fd5b7f4e487b7100000000000000000000000000000000000000000000000000000000600052602260045260246000fd5b7f4e487b7100000000000000000000000000000000000000000000000000000000600052604160045260246000fd5b6000601f19601f8301169050919050565b7f2146554e44530000000000000000000000000000000000000000000000000000600082015250565b7f216c697374656400000000000000000000000000000000000000000000000000600082015250565b7f2131354441595300000000000000000000000000000000000000000000000000600082015250565b7f21416d6f756e7400000000000000000000000000000000000000000000000000600082015250565b7f214f50454e000000000000000000000000000000000000000000000000000000600082015250565b7f2166656500000000000000000000000000000000000000000000000000000000600082015250565b7f4e6f20706172616d2070726f706f736564000000000000000000000000000000600082015250565b7f21636f6f6c6f6666000000000000000000000000000000000000000000000000600082015250565b7f496e707574457272000000000000000000000000000000000000000000000000600082015250565b7f21454d495353494f4e5300000000000000000000000000000000000000000000600082015250565b7f2166696e616c6973696e67000000000000000000000000000000000000000000600082015250565b7f216d656d62657200000000000000000000000000000000000000000000000000600082015250565b7f2143757261746564000000000000000000000000000000000000000000000000600082015250565b7f217472616e736665720000000000000000000000000000000000000000000000600082015250565b7f4e6f20616464726573732070726f706f73656400000000000000000000000000600082015250565b7f2161737365740000000000000000000000000000000000000000000000000000600082015250565b7f216f70656e000000000000000000000000000000000000000000000000000000600082015250565b618d37816186a8565b8114618d4257600080fd5b50565b618d4e816186ba565b8114618d5957600080fd5b50565b618d65816186c6565b8114618d7057600080fd5b50565b618d7c816186d0565b8114618d8757600080fd5b50565b618d93816186e2565b8114618d9e57600080fd5b50565b618daa816186f4565b8114618db557600080fd5b50565b618dc181618706565b8114618dcc57600080fd5b50565b618dd881618718565b8114618de357600080fd5b50565b618def8161872a565b8114618dfa57600080fd5b50565b618e068161873c565b8114618e1157600080fd5b50565b618e1d8161874e565b8114618e2857600080fd5b50565b618e3481618780565b8114618e3f57600080fd5b50565b618e4b8161878a565b8114618e5657600080fd5b5056fea26469706673582212207534c134ad6abda15e9ed313278250526bcb94e9d9527702baf7cf3d2a9db90564736f6c63430008030033",
  "linkReferences": {},
  "deployedLinkReferences": {}
}