{
  "_format": "hh-sol-artifact-1",
  "contractName": "Dao",
  "sourceName": "contracts/Dao.sol",
  "abi": [
    {
      "inputs": [
        {
          "internalType": "address",
          "name": "_base",
          "type": "address"
        }
      ],
      "stateMutability": "nonpayable",
      "type": "constructor"
    },
    {
      "anonymous": false,
      "inputs": [
        {
          "indexed": true,
          "internalType": "address",
          "name": "member",
          "type": "address"
        },
        {
          "indexed": true,
          "internalType": "uint256",
          "name": "oldProposalID",
          "type": "uint256"
        },
        {
          "indexed": false,
          "internalType": "uint256",
          "name": "oldVotes",
          "type": "uint256"
        },
        {
          "indexed": false,
          "internalType": "uint256",
          "name": "newVotes",
          "type": "uint256"
        },
        {
          "indexed": false,
          "internalType": "uint256",
          "name": "totalWeight",
          "type": "uint256"
        }
      ],
      "name": "CancelProposal",
      "type": "event"
    },
    {
      "anonymous": false,
      "inputs": [
        {
          "indexed": true,
          "internalType": "address",
          "name": "DAO",
          "type": "address"
        },
        {
          "indexed": true,
          "internalType": "address",
          "name": "asset",
          "type": "address"
        }
      ],
      "name": "DelistedAsset",
      "type": "event"
    },
    {
      "anonymous": false,
      "inputs": [
        {
          "indexed": true,
          "internalType": "address",
          "name": "owner",
          "type": "address"
        },
        {
          "indexed": false,
          "internalType": "uint256",
          "name": "depositAmount",
          "type": "uint256"
        },
        {
          "indexed": false,
          "internalType": "uint256",
          "name": "bondedLP",
          "type": "uint256"
        }
      ],
      "name": "DepositAsset",
      "type": "event"
    },
    {
      "anonymous": false,
      "inputs": [
        {
          "indexed": true,
          "internalType": "address",
          "name": "member",
          "type": "address"
        },
        {
          "indexed": true,
          "internalType": "uint256",
          "name": "proposalID",
          "type": "uint256"
        },
        {
          "indexed": false,
          "internalType": "uint256",
          "name": "votesCast",
          "type": "uint256"
        },
        {
          "indexed": false,
          "internalType": "uint256",
          "name": "totalWeight",
          "type": "uint256"
        },
        {
          "indexed": false,
          "internalType": "string",
          "name": "proposalType",
          "type": "string"
        }
      ],
      "name": "FinalisedProposal",
      "type": "event"
    },
    {
      "anonymous": false,
      "inputs": [
        {
          "indexed": true,
          "internalType": "address",
          "name": "DAO",
          "type": "address"
        },
        {
          "indexed": true,
          "internalType": "address",
          "name": "asset",
          "type": "address"
        }
      ],
      "name": "ListedAsset",
      "type": "event"
    },
    {
      "anonymous": false,
      "inputs": [
        {
          "indexed": true,
          "internalType": "address",
          "name": "member",
          "type": "address"
        },
        {
          "indexed": true,
          "internalType": "address",
          "name": "pool",
          "type": "address"
        },
        {
          "indexed": false,
          "internalType": "uint256",
          "name": "amount",
          "type": "uint256"
        }
      ],
      "name": "MemberDeposits",
      "type": "event"
    },
    {
      "anonymous": false,
      "inputs": [
        {
          "indexed": true,
          "internalType": "address",
          "name": "member",
          "type": "address"
        },
        {
          "indexed": true,
          "internalType": "address",
          "name": "pool",
          "type": "address"
        },
        {
          "indexed": false,
          "internalType": "uint256",
          "name": "balance",
          "type": "uint256"
        }
      ],
      "name": "MemberWithdraws",
      "type": "event"
    },
    {
      "anonymous": false,
      "inputs": [
        {
          "indexed": true,
          "internalType": "address",
          "name": "member",
          "type": "address"
        },
        {
          "indexed": true,
          "internalType": "uint256",
          "name": "proposalID",
          "type": "uint256"
        },
        {
          "indexed": false,
          "internalType": "string",
          "name": "proposalType",
          "type": "string"
        }
      ],
      "name": "NewProposal",
      "type": "event"
    },
    {
      "anonymous": false,
      "inputs": [
        {
          "indexed": true,
          "internalType": "address",
          "name": "member",
          "type": "address"
        },
        {
          "indexed": true,
          "internalType": "uint256",
          "name": "proposalID",
          "type": "uint256"
        },
        {
          "indexed": false,
          "internalType": "uint256",
          "name": "voteWeight",
          "type": "uint256"
        },
        {
          "indexed": false,
          "internalType": "uint256",
          "name": "totalVotes",
          "type": "uint256"
        },
        {
          "indexed": false,
          "internalType": "string",
          "name": "proposalType",
          "type": "string"
        }
      ],
      "name": "NewVote",
      "type": "event"
    },
    {
      "anonymous": false,
      "inputs": [
        {
          "indexed": true,
          "internalType": "address",
          "name": "member",
          "type": "address"
        },
        {
          "indexed": true,
          "internalType": "uint256",
          "name": "proposalID",
          "type": "uint256"
        },
        {
          "indexed": false,
          "internalType": "uint256",
          "name": "timeFinalised",
          "type": "uint256"
        },
        {
          "indexed": false,
          "internalType": "string",
          "name": "proposalType",
          "type": "string"
        }
      ],
      "name": "ProposalFinalising",
      "type": "event"
    },
    {
      "anonymous": false,
      "inputs": [
        {
          "indexed": true,
          "internalType": "address",
          "name": "member",
          "type": "address"
        },
        {
          "indexed": true,
          "internalType": "uint256",
          "name": "proposalID",
          "type": "uint256"
        },
        {
          "indexed": false,
          "internalType": "uint256",
          "name": "voteWeight",
          "type": "uint256"
        },
        {
          "indexed": false,
          "internalType": "uint256",
          "name": "totalVotes",
          "type": "uint256"
        },
        {
          "indexed": false,
          "internalType": "string",
          "name": "proposalType",
          "type": "string"
        }
      ],
      "name": "RemovedVote",
      "type": "event"
    },
    {
      "inputs": [],
      "name": "BASE",
      "outputs": [
        {
          "internalType": "address",
          "name": "",
          "type": "address"
        }
      ],
      "stateMutability": "view",
      "type": "function"
    },
    {
      "inputs": [],
      "name": "BONDVAULT",
      "outputs": [
        {
          "internalType": "contract iBONDVAULT",
          "name": "",
          "type": "address"
        }
      ],
      "stateMutability": "view",
      "type": "function"
    },
    {
      "inputs": [],
      "name": "DAO",
      "outputs": [
        {
          "internalType": "address",
          "name": "",
          "type": "address"
        }
      ],
      "stateMutability": "view",
      "type": "function"
    },
    {
      "inputs": [],
      "name": "DAOVAULT",
      "outputs": [
        {
          "internalType": "contract iDAOVAULT",
          "name": "",
          "type": "address"
        }
      ],
      "stateMutability": "view",
      "type": "function"
    },
    {
      "inputs": [],
      "name": "DEPLOYER",
      "outputs": [
        {
          "internalType": "address",
          "name": "",
          "type": "address"
        }
      ],
      "stateMutability": "view",
      "type": "function"
    },
    {
      "inputs": [],
      "name": "POOLFACTORY",
      "outputs": [
        {
          "internalType": "contract iPOOLFACTORY",
          "name": "",
          "type": "address"
        }
      ],
      "stateMutability": "view",
      "type": "function"
    },
    {
      "inputs": [],
      "name": "RESERVE",
      "outputs": [
        {
          "internalType": "contract iRESERVE",
          "name": "",
          "type": "address"
        }
      ],
      "stateMutability": "view",
      "type": "function"
    },
    {
      "inputs": [],
      "name": "ROUTER",
      "outputs": [
        {
          "internalType": "contract iROUTER",
          "name": "",
          "type": "address"
        }
      ],
      "stateMutability": "view",
      "type": "function"
    },
    {
      "inputs": [],
      "name": "SYNTHFACTORY",
      "outputs": [
        {
          "internalType": "contract iSYNTHFACTORY",
          "name": "",
          "type": "address"
        }
      ],
      "stateMutability": "view",
      "type": "function"
    },
    {
      "inputs": [],
      "name": "UTILS",
      "outputs": [
        {
          "internalType": "contract iUTILS",
          "name": "",
          "type": "address"
        }
      ],
      "stateMutability": "view",
      "type": "function"
    },
    {
      "inputs": [],
      "name": "_BONDVAULT",
      "outputs": [
        {
          "internalType": "contract iBONDVAULT",
          "name": "",
          "type": "address"
        }
      ],
      "stateMutability": "view",
      "type": "function"
    },
    {
      "inputs": [],
      "name": "_DAOVAULT",
      "outputs": [
        {
          "internalType": "contract iDAOVAULT",
          "name": "",
          "type": "address"
        }
      ],
      "stateMutability": "view",
      "type": "function"
    },
    {
      "inputs": [],
      "name": "_POOLFACTORY",
      "outputs": [
        {
          "internalType": "contract iPOOLFACTORY",
          "name": "",
          "type": "address"
        }
      ],
      "stateMutability": "view",
      "type": "function"
    },
    {
      "inputs": [],
      "name": "_RESERVE",
      "outputs": [
        {
          "internalType": "contract iRESERVE",
          "name": "",
          "type": "address"
        }
      ],
      "stateMutability": "view",
      "type": "function"
    },
    {
      "inputs": [],
      "name": "_ROUTER",
      "outputs": [
        {
          "internalType": "contract iROUTER",
          "name": "",
          "type": "address"
        }
      ],
      "stateMutability": "view",
      "type": "function"
    },
    {
      "inputs": [],
      "name": "_SYNTHFACTORY",
      "outputs": [
        {
          "internalType": "contract iSYNTHFACTORY",
          "name": "",
          "type": "address"
        }
      ],
      "stateMutability": "view",
      "type": "function"
    },
    {
      "inputs": [],
      "name": "_UTILS",
      "outputs": [
        {
          "internalType": "contract iUTILS",
          "name": "",
          "type": "address"
        }
      ],
      "stateMutability": "view",
      "type": "function"
    },
    {
      "inputs": [],
      "name": "allListedAssets",
      "outputs": [
        {
          "internalType": "address[]",
          "name": "_allListedAssets",
          "type": "address[]"
        }
      ],
      "stateMutability": "view",
      "type": "function"
    },
    {
      "inputs": [
        {
          "internalType": "uint256",
          "name": "",
          "type": "uint256"
        }
      ],
      "name": "arrayMembers",
      "outputs": [
        {
          "internalType": "address",
          "name": "",
          "type": "address"
        }
      ],
      "stateMutability": "view",
      "type": "function"
    },
    {
      "inputs": [],
      "name": "assetListedCount",
      "outputs": [
        {
          "internalType": "uint256",
          "name": "count",
          "type": "uint256"
        }
      ],
      "stateMutability": "view",
      "type": "function"
    },
    {
      "inputs": [
        {
          "internalType": "address",
          "name": "asset",
          "type": "address"
        },
        {
          "internalType": "uint256",
          "name": "amount",
          "type": "uint256"
        }
      ],
      "name": "bond",
      "outputs": [
        {
          "internalType": "bool",
          "name": "success",
          "type": "bool"
        }
      ],
      "stateMutability": "payable",
      "type": "function"
    },
    {
      "inputs": [],
      "name": "bondingPeriodSeconds",
      "outputs": [
        {
          "internalType": "uint256",
          "name": "",
          "type": "uint256"
        }
      ],
      "stateMutability": "view",
      "type": "function"
    },
    {
      "inputs": [],
      "name": "burnBalance",
      "outputs": [
        {
          "internalType": "bool",
          "name": "",
          "type": "bool"
        }
      ],
      "stateMutability": "nonpayable",
      "type": "function"
    },
    {
      "inputs": [
        {
          "internalType": "address",
          "name": "bondedMember",
          "type": "address"
        },
        {
          "internalType": "address",
          "name": "asset",
          "type": "address"
        }
      ],
      "name": "calcClaimBondedLP",
      "outputs": [
        {
          "internalType": "uint256",
          "name": "",
          "type": "uint256"
        }
      ],
      "stateMutability": "nonpayable",
      "type": "function"
    },
    {
      "inputs": [
        {
          "internalType": "address",
          "name": "member",
          "type": "address"
        }
      ],
      "name": "calcCurrentReward",
      "outputs": [
        {
          "internalType": "uint256",
          "name": "",
          "type": "uint256"
        }
      ],
      "stateMutability": "view",
      "type": "function"
    },
    {
      "inputs": [
        {
          "internalType": "address",
          "name": "member",
          "type": "address"
        }
      ],
      "name": "calcReward",
      "outputs": [
        {
          "internalType": "uint256",
          "name": "",
          "type": "uint256"
        }
      ],
      "stateMutability": "view",
      "type": "function"
    },
    {
      "inputs": [
        {
          "internalType": "uint256",
          "name": "oldProposalID",
          "type": "uint256"
        },
        {
          "internalType": "uint256",
          "name": "newProposalID",
          "type": "uint256"
        }
      ],
      "name": "cancelProposal",
      "outputs": [],
      "stateMutability": "nonpayable",
      "type": "function"
    },
    {
      "inputs": [
        {
          "internalType": "uint256",
          "name": "bondingSeconds",
          "type": "uint256"
        }
      ],
      "name": "changeBondingPeriod",
      "outputs": [],
      "stateMutability": "nonpayable",
      "type": "function"
    },
    {
      "inputs": [
        {
          "internalType": "address",
          "name": "member",
          "type": "address"
        }
      ],
      "name": "claimAllForMember",
      "outputs": [
        {
          "internalType": "bool",
          "name": "",
          "type": "bool"
        }
      ],
      "stateMutability": "nonpayable",
      "type": "function"
    },
    {
      "inputs": [
        {
          "internalType": "address",
          "name": "asset",
          "type": "address"
        }
      ],
      "name": "claimForMember",
      "outputs": [
        {
          "internalType": "bool",
          "name": "",
          "type": "bool"
        }
      ],
      "stateMutability": "nonpayable",
      "type": "function"
    },
    {
      "inputs": [],
      "name": "coolOffPeriod",
      "outputs": [
        {
          "internalType": "uint256",
          "name": "",
          "type": "uint256"
        }
      ],
      "stateMutability": "view",
      "type": "function"
    },
    {
      "inputs": [],
      "name": "daoClaim",
      "outputs": [
        {
          "internalType": "uint256",
          "name": "",
          "type": "uint256"
        }
      ],
      "stateMutability": "view",
      "type": "function"
    },
    {
      "inputs": [],
      "name": "daoFee",
      "outputs": [
        {
          "internalType": "uint256",
          "name": "",
          "type": "uint256"
        }
      ],
      "stateMutability": "view",
      "type": "function"
    },
    {
      "inputs": [],
      "name": "daoHasMoved",
      "outputs": [
        {
          "internalType": "bool",
          "name": "",
          "type": "bool"
        }
      ],
      "stateMutability": "view",
      "type": "function"
    },
    {
      "inputs": [
        {
          "internalType": "address",
          "name": "asset",
          "type": "address"
        }
      ],
      "name": "delistBondAsset",
      "outputs": [
        {
          "internalType": "bool",
          "name": "",
          "type": "bool"
        }
      ],
      "stateMutability": "nonpayable",
      "type": "function"
    },
    {
      "inputs": [
        {
          "internalType": "address",
          "name": "pool",
          "type": "address"
        },
        {
          "internalType": "uint256",
          "name": "amount",
          "type": "uint256"
        }
      ],
      "name": "deposit",
      "outputs": [],
      "stateMutability": "nonpayable",
      "type": "function"
    },
    {
      "inputs": [
        {
          "internalType": "address",
          "name": "pool",
          "type": "address"
        },
        {
          "internalType": "uint256",
          "name": "amount",
          "type": "uint256"
        },
        {
          "internalType": "address",
          "name": "member",
          "type": "address"
        }
      ],
      "name": "depositLPForMember",
      "outputs": [],
      "stateMutability": "nonpayable",
      "type": "function"
    },
    {
      "inputs": [],
      "name": "erasToEarn",
      "outputs": [
        {
          "internalType": "uint256",
          "name": "",
          "type": "uint256"
        }
      ],
      "stateMutability": "view",
      "type": "function"
    },
    {
      "inputs": [
        {
          "internalType": "uint256",
          "name": "proposalID",
          "type": "uint256"
        }
      ],
      "name": "finaliseProposal",
      "outputs": [],
      "stateMutability": "nonpayable",
      "type": "function"
    },
    {
      "inputs": [
        {
          "internalType": "uint256",
          "name": "proposalID",
          "type": "uint256"
        }
      ],
      "name": "getGrantDetails",
      "outputs": [
        {
          "components": [
            {
              "internalType": "address",
              "name": "recipient",
              "type": "address"
            },
            {
              "internalType": "uint256",
              "name": "amount",
              "type": "uint256"
            }
          ],
          "internalType": "struct Dao.GrantDetails",
          "name": "grantDetails",
          "type": "tuple"
        }
      ],
      "stateMutability": "view",
      "type": "function"
    },
    {
      "inputs": [
        {
          "internalType": "uint256",
          "name": "proposalID",
          "type": "uint256"
        }
      ],
      "name": "getProposalDetails",
      "outputs": [
        {
          "components": [
            {
              "internalType": "uint256",
              "name": "id",
              "type": "uint256"
            },
            {
              "internalType": "string",
              "name": "proposalType",
              "type": "string"
            },
            {
              "internalType": "uint256",
              "name": "votes",
              "type": "uint256"
            },
            {
              "internalType": "uint256",
              "name": "timeStart",
              "type": "uint256"
            },
            {
              "internalType": "bool",
              "name": "finalising",
              "type": "bool"
            },
            {
              "internalType": "bool",
              "name": "finalised",
              "type": "bool"
            },
            {
              "internalType": "uint256",
              "name": "param",
              "type": "uint256"
            },
            {
              "internalType": "address",
              "name": "proposedAddress",
              "type": "address"
            }
          ],
          "internalType": "struct Dao.ProposalDetails",
          "name": "proposalDetails",
          "type": "tuple"
        }
      ],
      "stateMutability": "view",
      "type": "function"
    },
    {
      "inputs": [],
      "name": "harvest",
      "outputs": [],
      "stateMutability": "nonpayable",
      "type": "function"
    },
    {
      "inputs": [
        {
          "internalType": "uint256",
          "name": "_proposalID",
          "type": "uint256"
        }
      ],
      "name": "hasMajority",
      "outputs": [
        {
          "internalType": "bool",
          "name": "",
          "type": "bool"
        }
      ],
      "stateMutability": "view",
      "type": "function"
    },
    {
      "inputs": [
        {
          "internalType": "uint256",
          "name": "_proposalID",
          "type": "uint256"
        }
      ],
      "name": "hasMinority",
      "outputs": [
        {
          "internalType": "bool",
          "name": "",
          "type": "bool"
        }
      ],
      "stateMutability": "view",
      "type": "function"
    },
    {
      "inputs": [
        {
          "internalType": "uint256",
          "name": "_proposalID",
          "type": "uint256"
        }
      ],
      "name": "hasQuorum",
      "outputs": [
        {
          "internalType": "bool",
          "name": "",
          "type": "bool"
        }
      ],
      "stateMutability": "view",
      "type": "function"
    },
    {
      "inputs": [
        {
          "internalType": "bytes",
          "name": "part1",
          "type": "bytes"
        },
        {
          "internalType": "bytes",
          "name": "part2",
          "type": "bytes"
        }
      ],
      "name": "isEqual",
      "outputs": [
        {
          "internalType": "bool",
          "name": "",
          "type": "bool"
        }
      ],
      "stateMutability": "pure",
      "type": "function"
    },
    {
      "inputs": [
        {
          "internalType": "address",
          "name": "",
          "type": "address"
        }
      ],
      "name": "isListed",
      "outputs": [
        {
          "internalType": "bool",
          "name": "",
          "type": "bool"
        }
      ],
      "stateMutability": "view",
      "type": "function"
    },
    {
      "inputs": [
        {
          "internalType": "address",
          "name": "",
          "type": "address"
        }
      ],
      "name": "isMember",
      "outputs": [
        {
          "internalType": "bool",
          "name": "",
          "type": "bool"
        }
      ],
      "stateMutability": "view",
      "type": "function"
    },
    {
      "inputs": [
        {
          "internalType": "address",
          "name": "asset",
          "type": "address"
        }
      ],
      "name": "listBondAsset",
      "outputs": [
        {
          "internalType": "bool",
          "name": "",
          "type": "bool"
        }
      ],
      "stateMutability": "nonpayable",
      "type": "function"
    },
    {
      "inputs": [],
      "name": "majorityFactor",
      "outputs": [
        {
          "internalType": "uint256",
          "name": "",
          "type": "uint256"
        }
      ],
      "stateMutability": "view",
      "type": "function"
    },
    {
      "inputs": [
        {
          "internalType": "address",
          "name": "",
          "type": "address"
        }
      ],
      "name": "mapMember_lastTime",
      "outputs": [
        {
          "internalType": "uint256",
          "name": "",
          "type": "uint256"
        }
      ],
      "stateMutability": "view",
      "type": "function"
    },
    {
      "inputs": [
        {
          "internalType": "uint256",
          "name": "",
          "type": "uint256"
        },
        {
          "internalType": "address",
          "name": "",
          "type": "address"
        }
      ],
      "name": "mapPIDMember_votes",
      "outputs": [
        {
          "internalType": "uint256",
          "name": "",
          "type": "uint256"
        }
      ],
      "stateMutability": "view",
      "type": "function"
    },
    {
      "inputs": [
        {
          "internalType": "uint256",
          "name": "",
          "type": "uint256"
        }
      ],
      "name": "mapPID_address",
      "outputs": [
        {
          "internalType": "address",
          "name": "",
          "type": "address"
        }
      ],
      "stateMutability": "view",
      "type": "function"
    },
    {
      "inputs": [
        {
          "internalType": "uint256",
          "name": "",
          "type": "uint256"
        }
      ],
      "name": "mapPID_finalised",
      "outputs": [
        {
          "internalType": "bool",
          "name": "",
          "type": "bool"
        }
      ],
      "stateMutability": "view",
      "type": "function"
    },
    {
      "inputs": [
        {
          "internalType": "uint256",
          "name": "",
          "type": "uint256"
        }
      ],
      "name": "mapPID_finalising",
      "outputs": [
        {
          "internalType": "bool",
          "name": "",
          "type": "bool"
        }
      ],
      "stateMutability": "view",
      "type": "function"
    },
    {
      "inputs": [
        {
          "internalType": "uint256",
          "name": "",
          "type": "uint256"
        }
      ],
      "name": "mapPID_grant",
      "outputs": [
        {
          "internalType": "address",
          "name": "recipient",
          "type": "address"
        },
        {
          "internalType": "uint256",
          "name": "amount",
          "type": "uint256"
        }
      ],
      "stateMutability": "view",
      "type": "function"
    },
    {
      "inputs": [
        {
          "internalType": "uint256",
          "name": "",
          "type": "uint256"
        }
      ],
      "name": "mapPID_param",
      "outputs": [
        {
          "internalType": "uint32",
          "name": "",
          "type": "uint32"
        }
      ],
      "stateMutability": "view",
      "type": "function"
    },
    {
      "inputs": [
        {
          "internalType": "uint256",
          "name": "",
          "type": "uint256"
        }
      ],
      "name": "mapPID_timeStart",
      "outputs": [
        {
          "internalType": "uint256",
          "name": "",
          "type": "uint256"
        }
      ],
      "stateMutability": "view",
      "type": "function"
    },
    {
      "inputs": [
        {
          "internalType": "uint256",
          "name": "",
          "type": "uint256"
        }
      ],
      "name": "mapPID_type",
      "outputs": [
        {
          "internalType": "string",
          "name": "",
          "type": "string"
        }
      ],
      "stateMutability": "view",
      "type": "function"
    },
    {
      "inputs": [
        {
          "internalType": "uint256",
          "name": "",
          "type": "uint256"
        }
      ],
      "name": "mapPID_votes",
      "outputs": [
        {
          "internalType": "uint256",
          "name": "",
          "type": "uint256"
        }
      ],
      "stateMutability": "view",
      "type": "function"
    },
    {
      "inputs": [],
      "name": "memberCount",
      "outputs": [
        {
          "internalType": "uint256",
          "name": "",
          "type": "uint256"
        }
      ],
      "stateMutability": "view",
      "type": "function"
    },
    {
      "inputs": [
        {
          "internalType": "address",
          "name": "newDAO",
          "type": "address"
        }
      ],
      "name": "moveBASEBalance",
      "outputs": [],
      "stateMutability": "nonpayable",
      "type": "function"
    },
    {
      "inputs": [
        {
          "internalType": "string",
          "name": "typeStr",
          "type": "string"
        }
      ],
      "name": "newActionProposal",
      "outputs": [
        {
          "internalType": "uint256",
          "name": "",
          "type": "uint256"
        }
      ],
      "stateMutability": "nonpayable",
      "type": "function"
    },
    {
      "inputs": [
        {
          "internalType": "address",
          "name": "proposedAddress",
          "type": "address"
        },
        {
          "internalType": "string",
          "name": "typeStr",
          "type": "string"
        }
      ],
      "name": "newAddressProposal",
      "outputs": [
        {
          "internalType": "uint256",
          "name": "",
          "type": "uint256"
        }
      ],
      "stateMutability": "nonpayable",
      "type": "function"
    },
    {
      "inputs": [
        {
          "internalType": "address",
          "name": "recipient",
          "type": "address"
        },
        {
          "internalType": "uint256",
          "name": "amount",
          "type": "uint256"
        }
      ],
      "name": "newGrantProposal",
      "outputs": [
        {
          "internalType": "uint256",
          "name": "",
          "type": "uint256"
        }
      ],
      "stateMutability": "nonpayable",
      "type": "function"
    },
    {
      "inputs": [
        {
          "internalType": "uint32",
          "name": "param",
          "type": "uint32"
        },
        {
          "internalType": "string",
          "name": "typeStr",
          "type": "string"
        }
      ],
      "name": "newParamProposal",
      "outputs": [
        {
          "internalType": "uint256",
          "name": "",
          "type": "uint256"
        }
      ],
      "stateMutability": "nonpayable",
      "type": "function"
    },
    {
      "inputs": [],
      "name": "proposalCount",
      "outputs": [
        {
          "internalType": "uint256",
          "name": "",
          "type": "uint256"
        }
      ],
      "stateMutability": "view",
      "type": "function"
    },
    {
      "inputs": [],
      "name": "purgeDeployer",
      "outputs": [],
      "stateMutability": "nonpayable",
      "type": "function"
    },
    {
      "inputs": [
        {
          "internalType": "uint256",
          "name": "proposalID",
          "type": "uint256"
        }
      ],
      "name": "removeVote",
      "outputs": [
        {
          "internalType": "uint256",
          "name": "voteWeightRemoved",
          "type": "uint256"
        }
      ],
      "stateMutability": "nonpayable",
      "type": "function"
    },
    {
      "inputs": [],
      "name": "secondsPerEra",
      "outputs": [
        {
          "internalType": "uint256",
          "name": "",
          "type": "uint256"
        }
      ],
      "stateMutability": "view",
      "type": "function"
    },
    {
      "inputs": [
        {
          "internalType": "address",
          "name": "_poolFactory",
          "type": "address"
        },
        {
          "internalType": "address",
          "name": "_synthFactory",
          "type": "address"
        }
      ],
      "name": "setFactoryAddresses",
      "outputs": [],
      "stateMutability": "nonpayable",
      "type": "function"
    },
    {
      "inputs": [
        {
          "internalType": "address",
          "name": "_router",
          "type": "address"
        },
        {
          "internalType": "address",
          "name": "_utils",
          "type": "address"
        },
        {
          "internalType": "address",
          "name": "_reserve",
          "type": "address"
        }
      ],
      "name": "setGenesisAddresses",
      "outputs": [],
      "stateMutability": "nonpayable",
      "type": "function"
    },
    {
      "inputs": [
        {
          "internalType": "uint32",
          "name": "_coolOff",
          "type": "uint32"
        },
        {
          "internalType": "uint32",
          "name": "_daysToEarn",
          "type": "uint32"
        },
        {
          "internalType": "uint32",
          "name": "_majorityFactor",
          "type": "uint32"
        },
        {
          "internalType": "uint32",
          "name": "_daoClaim",
          "type": "uint32"
        },
        {
          "internalType": "uint32",
          "name": "_daoFee",
          "type": "uint32"
        }
      ],
      "name": "setGenesisFactors",
      "outputs": [],
      "stateMutability": "nonpayable",
      "type": "function"
    },
    {
      "inputs": [
        {
          "internalType": "address",
          "name": "_daovault",
          "type": "address"
        },
        {
          "internalType": "address",
          "name": "_bondvault",
          "type": "address"
        }
      ],
      "name": "setVaultAddresses",
      "outputs": [],
      "stateMutability": "nonpayable",
      "type": "function"
    },
    {
      "inputs": [
        {
          "internalType": "uint256",
          "name": "proposalID",
          "type": "uint256"
        }
      ],
      "name": "voteProposal",
      "outputs": [
        {
          "internalType": "uint256",
          "name": "voteWeight",
          "type": "uint256"
        }
      ],
      "stateMutability": "nonpayable",
      "type": "function"
    },
    {
      "inputs": [
        {
          "internalType": "address",
          "name": "pool",
          "type": "address"
        }
      ],
      "name": "withdraw",
      "outputs": [],
      "stateMutability": "nonpayable",
      "type": "function"
    }
  ],
  "bytecode": "0x608060405262ed4e006013553480156200001857600080fd5b50604051620090d8380380620090d883398181016040528101906200003e919062000209565b80600160006101000a81548173ffffffffffffffffffffffffffffffffffffffff021916908373ffffffffffffffffffffffffffffffffffffffff160217905550336000806101000a81548173ffffffffffffffffffffffffffffffffffffffff021916908373ffffffffffffffffffffffffffffffffffffffff16021790555030600960016101000a81548173ffffffffffffffffffffffffffffffffffffffff021916908373ffffffffffffffffffffffffffffffffffffffff1602179055506001600381905550601e600681905550611a0a6005819055506107d06007819055506064600881905550600160009054906101000a900473ffffffffffffffffffffffffffffffffffffffff1673ffffffffffffffffffffffffffffffffffffffff16636b92a3b66040518163ffffffff1660e01b815260040160206040518083038186803b1580156200019357600080fd5b505afa158015620001a8573d6000803e3d6000fd5b505050506040513d601f19601f82011682018060405250810190620001ce919062000235565b60028190555050620002d3565b600081519050620001ec816200029f565b92915050565b6000815190506200020381620002b9565b92915050565b6000602082840312156200021c57600080fd5b60006200022c84828501620001db565b91505092915050565b6000602082840312156200024857600080fd5b60006200025884828501620001f2565b91505092915050565b60006200026e8262000275565b9050919050565b600073ffffffffffffffffffffffffffffffffffffffff82169050919050565b6000819050919050565b620002aa8162000261565b8114620002b657600080fd5b50565b620002c48162000295565b8114620002d057600080fd5b50565b618df580620002e36000396000f3fe6080604052600436106104475760003560e01c8063807896d511610234578063bc68fad91161012e578063db634d7c116100b6578063f135dcf81161007a578063f135dcf8146111f9578063f1b591d614611236578063f38a2fa114611273578063f794062e146112b0578063f7a79a37146112ed57610447565b8063db634d7c146110ec578063e248260c14611129578063e38c7dcc14611166578063e53bea97146111a3578063ec342ad0146111ce57610447565b8063cb7bdbc0116100fd578063cb7bdbc014610fcc578063d0ad17091461100a578063d145836314611047578063da35c66414611084578063dab249b3146110af57610447565b8063bc68fad914610efc578063c05fc17814610f27578063c1b8411a14610f64578063c42b3f7d14610f8f57610447565b8063a230c524116101bc578063af04598011610180578063af04598014610e15578063b93ec54b14610e3e578063b99b0a0c14610e69578063bb258e6b14610e94578063bbf8cf8214610ebf57610447565b8063a230c52414610d03578063a515366a14610d40578063a6c83fed14610d70578063abb6154f14610dad578063ae887c8b14610dd857610447565b806398e4439a1161020357806398e4439a14610c1a57806398fabd3a14610c455780639c552f0414610c705780639cd99aa214610c9b5780639d2cc43614610cd857610447565b8063807896d514610b5e5780638601b9e614610b9b578063929f60d014610bc4578063956615be14610bef57610447565b8063436f80be116103455780635c120b37116102cd57806368bb97b31161029157806368bb97b314610a775780636b92a3b614610aa057806379b2dc4c14610acb5780637a8c72b514610af65780637b0e5c4514610b3357610447565b80635c120b371461097e5780635c7366d3146109bb5780635ded8b06146109f857806365c71bbf14610a2157806367afe7e914610a4c57610447565b806347e7ef241161031457806347e7ef241461089d5780634b193e23146108c65780634b400034146108ef57806351cff8d91461092c578063572cf9271461095557610447565b8063436f80be146107e357806346350821146108205780634636279f146108495780634641257d1461088657610447565b80632f7fa180116103d357806338da7dd61161039757806338da7dd6146106d85780633a61738d146107035780633ae12308146107405780633b4d01a7146107695780633f68fde4146107a657610447565b80632f7fa180146105dd578063314604fe1461060857806332fe7b2614610645578063343598081461067057806335cb5fe0146106ad57610447565b806325a7f9081161041a57806325a7f908146104e4578063293cee7d1461050d5780632957b8391461054a5780632bee1194146105755780632c07eebf146105b257610447565b806303a821381461044c57806311aee3801461046357806312cf4c861461048e57806324efb528146104b9575b600080fd5b34801561045857600080fd5b50610461611318565b005b34801561046f57600080fd5b506104786113b3565b60405161048591906182fa565b60405180910390f35b34801561049a57600080fd5b506104a36113c0565b6040516104b09190617fde565b60405180910390f35b3480156104c557600080fd5b506104ce6113e6565b6040516104db9190617fc3565b60405180910390f35b3480156104f057600080fd5b5061050b600480360381019061050691906175b3565b6113f9565b005b34801561051957600080fd5b50610534600480360381019061052f9190617523565b61192c565b60405161054191906182fa565b60405180910390f35b34801561055657600080fd5b5061055f611a2b565b60405161056c91906182fa565b60405180910390f35b34801561058157600080fd5b5061059c60048036038101906105979190617820565b611a31565b6040516105a99190617fc3565b60405180910390f35b3480156105be57600080fd5b506105c7611a51565b6040516105d491906182fa565b60405180910390f35b3480156105e957600080fd5b506105f2611a57565b6040516105ff9190617fde565b60405180910390f35b34801561061457600080fd5b5061062f600480360381019061062a9190617820565b611b3e565b60405161063c9190618451565b60405180910390f35b34801561065157600080fd5b5061065a611b61565b604051610667919061804a565b60405180910390f35b34801561067c57600080fd5b5061069760048036038101906106929190617654565b611c48565b6040516106a49190617fc3565b60405180910390f35b3480156106b957600080fd5b506106c2611d04565b6040516106cf9190617fa1565b60405180910390f35b3480156106e457600080fd5b506106ed611d92565b6040516106fa9190617ff9565b60405180910390f35b34801561070f57600080fd5b5061072a6004803603810190610725919061746f565b611e79565b60405161073791906182fa565b60405180910390f35b34801561074c57600080fd5b5061076760048036038101906107629190617498565b6122e3565b005b34801561077557600080fd5b50610790600480360381019061078b9190617820565b6123c1565b60405161079d91906182d8565b60405180910390f35b3480156107b257600080fd5b506107cd60048036038101906107c89190617820565b6125b4565b6040516107da91906182fa565b60405180910390f35b3480156107ef57600080fd5b5061080a60048036038101906108059190617820565b612794565b6040516108179190617ec6565b60405180910390f35b34801561082c57600080fd5b5061084760048036038101906108429190617498565b6127d3565b005b34801561085557600080fd5b50610870600480360381019061086b919061746f565b6128b1565b60405161087d91906182fa565b60405180910390f35b34801561089257600080fd5b5061089b6129c3565b005b3480156108a957600080fd5b506108c460048036038101906108bf9190617577565b612b87565b005b3480156108d257600080fd5b506108ed60048036038101906108e89190617820565b612b96565b005b3480156108fb57600080fd5b5061091660048036038101906109119190617820565b613174565b6040516109239190617fc3565b60405180910390f35b34801561093857600080fd5b50610953600480360381019061094e919061746f565b613194565b005b34801561096157600080fd5b5061097c6004803603810190610977919061793e565b613285565b005b34801561098a57600080fd5b506109a560048036038101906109a09190617820565b613325565b6040516109b29190617fc3565b60405180910390f35b3480156109c757600080fd5b506109e260048036038101906109dd919061746f565b6134cc565b6040516109ef91906182fa565b60405180910390f35b348015610a0457600080fd5b50610a1f6004803603810190610a1a91906178ae565b6134e4565b005b348015610a2d57600080fd5b50610a36613840565b604051610a4391906182fa565b60405180910390f35b348015610a5857600080fd5b50610a61613846565b604051610a6e9190618014565b60405180910390f35b348015610a8357600080fd5b50610a9e6004803603810190610a99919061746f565b61386c565b005b348015610aac57600080fd5b50610ab5613a27565b604051610ac291906182fa565b60405180910390f35b348015610ad757600080fd5b50610ae0613a2d565b604051610aed91906182fa565b60405180910390f35b348015610b0257600080fd5b50610b1d6004803603810190610b18919061746f565b613a33565b604051610b2a9190617fc3565b60405180910390f35b348015610b3f57600080fd5b50610b48613c11565b604051610b559190618080565b60405180910390f35b348015610b6a57600080fd5b50610b856004803603810190610b809190617820565b613cf8565b604051610b9291906182fa565b60405180910390f35b348015610ba757600080fd5b50610bc26004803603810190610bbd91906174d4565b6140a4565b005b348015610bd057600080fd5b50610bd96141c4565b604051610be69190617ff9565b60405180910390f35b348015610bfb57600080fd5b50610c046141ea565b604051610c1191906182fa565b60405180910390f35b348015610c2657600080fd5b50610c2f6141f0565b604051610c3c919061804a565b60405180910390f35b348015610c5157600080fd5b50610c5a614216565b604051610c679190617ec6565b60405180910390f35b348015610c7c57600080fd5b50610c8561423c565b604051610c92919061802f565b60405180910390f35b348015610ca757600080fd5b50610cc26004803603810190610cbd919061746f565b614262565b604051610ccf9190617fc3565b60405180910390f35b348015610ce457600080fd5b50610ced61442d565b604051610cfa919061802f565b60405180910390f35b348015610d0f57600080fd5b50610d2a6004803603810190610d25919061746f565b614514565b604051610d379190617fc3565b60405180910390f35b610d5a6004803603810190610d559190617577565b614534565b604051610d679190617fc3565b60405180910390f35b348015610d7c57600080fd5b50610d976004803603810190610d929190617577565b6146fe565b604051610da491906182fa565b60405180910390f35b348015610db957600080fd5b50610dc2614899565b604051610dcf91906182fa565b60405180910390f35b348015610de457600080fd5b50610dff6004803603810190610dfa9190617820565b61489f565b604051610e0c9190617ec6565b60405180910390f35b348015610e2157600080fd5b50610e3c6004803603810190610e379190617820565b6148d2565b005b348015610e4a57600080fd5b50610e53614934565b604051610e609190618065565b60405180910390f35b348015610e7557600080fd5b50610e7e614a1b565b604051610e8b9190618014565b60405180910390f35b348015610ea057600080fd5b50610ea9614b02565b604051610eb69190618080565b60405180910390f35b348015610ecb57600080fd5b50610ee66004803603810190610ee19190617820565b614b28565b604051610ef39190617fc3565b60405180910390f35b348015610f0857600080fd5b50610f11614cc1565b604051610f1e9190617fc3565b60405180910390f35b348015610f3357600080fd5b50610f4e6004803603810190610f499190617820565b614e60565b604051610f5b919061809b565b60405180910390f35b348015610f7057600080fd5b50610f79614f00565b604051610f869190617ec6565b60405180910390f35b348015610f9b57600080fd5b50610fb66004803603810190610fb19190617872565b614f24565b604051610fc391906182fa565b60405180910390f35b348015610fd857600080fd5b50610ff36004803603810190610fee9190617820565b614f49565b604051611001929190617f41565b60405180910390f35b34801561101657600080fd5b50611031600480360381019061102c9190617820565b614f8d565b60405161103e9190617fc3565b60405180910390f35b34801561105357600080fd5b5061106e600480360381019061106991906177df565b615126565b60405161107b91906182fa565b60405180910390f35b34801561109057600080fd5b506110996151d0565b6040516110a691906182fa565b60405180910390f35b3480156110bb57600080fd5b506110d660048036038101906110d19190617820565b6151d6565b6040516110e391906182fa565b60405180910390f35b3480156110f857600080fd5b50611113600480360381019061110e919061746f565b6151ee565b6040516111209190617fc3565b60405180910390f35b34801561113557600080fd5b50611150600480360381019061114b919061746f565b615304565b60405161115d9190617fc3565b60405180910390f35b34801561117257600080fd5b5061118d60048036038101906111889190617820565b6153b6565b60405161119a91906182fa565b60405180910390f35b3480156111af57600080fd5b506111b86153ce565b6040516111c59190618065565b60405180910390f35b3480156111da57600080fd5b506111e36153f4565b6040516111f09190617ec6565b60405180910390f35b34801561120557600080fd5b50611220600480360381019061121b9190617498565b61541a565b60405161122d91906182fa565b60405180910390f35b34801561124257600080fd5b5061125d60048036038101906112589190617820565b6154d8565b60405161126a91906182bd565b60405180910390f35b34801561127f57600080fd5b5061129a600480360381019061129591906178ea565b615573565b6040516112a791906182fa565b60405180910390f35b3480156112bc57600080fd5b506112d760048036038101906112d2919061746f565b615652565b6040516112e49190617fc3565b60405180910390f35b3480156112f957600080fd5b50611302615672565b60405161130f91906182fa565b60405180910390f35b60008054906101000a900473ffffffffffffffffffffffffffffffffffffffff1673ffffffffffffffffffffffffffffffffffffffff163373ffffffffffffffffffffffffffffffffffffffff161461137057600080fd5b60008060006101000a81548173ffffffffffffffffffffffffffffffffffffffff021916908373ffffffffffffffffffffffffffffffffffffffff160217905550565b6000601180549050905090565b600c60009054906101000a900473ffffffffffffffffffffffffffffffffffffffff1681565b600960009054906101000a900460ff1681565b60011515600e60009054906101000a900473ffffffffffffffffffffffffffffffffffffffff1673ffffffffffffffffffffffffffffffffffffffff16638dcb4c93856040518263ffffffff1660e01b81526004016114589190617ec6565b60206040518083038186803b15801561147057600080fd5b505afa158015611484573d6000803e3d6000fd5b505050506040513d601f19601f820116820180604052508101906114a89190617602565b1515146114ea576040517f08c379a00000000000000000000000000000000000000000000000000000000081526004016114e1906181fd565b60405180910390fd5b6000821161152d576040517f08c379a0000000000000000000000000000000000000000000000000000000008152600401611524906180fd565b60405180910390fd5b60011515601460008373ffffffffffffffffffffffffffffffffffffffff1673ffffffffffffffffffffffffffffffffffffffff16815260200190815260200160002060009054906101000a900460ff16151514611641576011339080600181540180825580915050600190039060005260206000200160009091909190916101000a81548173ffffffffffffffffffffffffffffffffffffffff021916908373ffffffffffffffffffffffffffffffffffffffff1602179055506001601460008373ffffffffffffffffffffffffffffffffffffffff1673ffffffffffffffffffffffffffffffffffffffff16815260200190815260200160002060006101000a81548160ff0219169083151502179055505b6000600d60009054906101000a900473ffffffffffffffffffffffffffffffffffffffff1673ffffffffffffffffffffffffffffffffffffffff16635364df49836040518263ffffffff1660e01b815260040161169e9190617ec6565b60206040518083038186803b1580156116b657600080fd5b505afa1580156116ca573d6000803e3d6000fd5b505050506040513d601f19601f820116820180604052508101906116ee9190617849565b11156116fd576116fc6129c3565b5b8273ffffffffffffffffffffffffffffffffffffffff166323b872dd33600d60009054906101000a900473ffffffffffffffffffffffffffffffffffffffff16856040518463ffffffff1660e01b815260040161175c93929190617f0a565b602060405180830381600087803b15801561177657600080fd5b505af115801561178a573d6000803e3d6000fd5b505050506040513d601f19601f820116820180604052508101906117ae9190617602565b6117ed576040517f08c379a00000000000000000000000000000000000000000000000000000000081526004016117e4906180bd565b60405180910390fd5b600d60009054906101000a900473ffffffffffffffffffffffffffffffffffffffff1673ffffffffffffffffffffffffffffffffffffffff166346dafa2f8484846040518463ffffffff1660e01b815260040161184c93929190617f6a565b600060405180830381600087803b15801561186657600080fd5b505af115801561187a573d6000803e3d6000fd5b5050505042601660008373ffffffffffffffffffffffffffffffffffffffff1673ffffffffffffffffffffffffffffffffffffffff168152602001908152602001600020819055508273ffffffffffffffffffffffffffffffffffffffff168173ffffffffffffffffffffffffffffffffffffffff167f5f9b5a75581a29d72b32414a5df7f1ef124b7787b38616fb8fdcad76179127c28460405161191f91906182fa565b60405180910390a3505050565b600061193661567f565b5060016004600082825461194a919061856f565b925050819055508260186000600454815260200190815260200160002060006101000a81548173ffffffffffffffffffffffffffffffffffffffff021916908373ffffffffffffffffffffffffffffffffffffffff16021790555081601a6000600454815260200190815260200160002090805190602001906119ce92919061715c565b506004543373ffffffffffffffffffffffffffffffffffffffff167f8d500fcad86fc64a281b94ef64d6d66acbfc6862aa4ff2ee5fbbfb40736e803e84604051611a18919061809b565b60405180910390a3600454905092915050565b60085481565b601e6020528060005260406000206000915054906101000a900460ff1681565b60065481565b6000600960009054906101000a900460ff1615611b1557600960019054906101000a900473ffffffffffffffffffffffffffffffffffffffff1673ffffffffffffffffffffffffffffffffffffffff16632f7fa1806040518163ffffffff1660e01b815260040160206040518083038186803b158015611ad657600080fd5b505afa158015611aea573d6000803e3d6000fd5b505050506040513d601f19601f82011682018060405250810190611b0e91906176c0565b9050611b3b565b600c60009054906101000a900473ffffffffffffffffffffffffffffffffffffffff1690505b90565b60176020528060005260406000206000915054906101000a900463ffffffff1681565b6000600960009054906101000a900460ff1615611c1f57600960019054906101000a900473ffffffffffffffffffffffffffffffffffffffff1673ffffffffffffffffffffffffffffffffffffffff166332fe7b266040518163ffffffff1660e01b815260040160206040518083038186803b158015611be057600080fd5b505afa158015611bf4573d6000803e3d6000fd5b505050506040513d601f19601f82011682018060405250810190611c189190617764565b9050611c45565b600a60009054906101000a900473ffffffffffffffffffffffffffffffffffffffff1690505b90565b6000600282604051611c5a9190617eaf565b602060405180830381855afa158015611c77573d6000803e3d6000fd5b5050506040513d601f19601f82011682018060405250810190611c9a919061762b565b600284604051611caa9190617eaf565b602060405180830381855afa158015611cc7573d6000803e3d6000fd5b5050506040513d601f19601f82011682018060405250810190611cea919061762b565b1415611cf95760019050611cfe565b600090505b92915050565b60606012805480602002602001604051908101604052809291908181526020018280548015611d8857602002820191906000526020600020905b8160009054906101000a900473ffffffffffffffffffffffffffffffffffffffff1673ffffffffffffffffffffffffffffffffffffffff1681526020019060010190808311611d3e575b5050505050905090565b6000600960009054906101000a900460ff1615611e5057600960019054906101000a900473ffffffffffffffffffffffffffffffffffffffff1673ffffffffffffffffffffffffffffffffffffffff166338da7dd66040518163ffffffff1660e01b815260040160206040518083038186803b158015611e1157600080fd5b505afa158015611e25573d6000803e3d6000fd5b505050506040513d601f19601f82011682018060405250810190611e4991906176e9565b9050611e76565b600d60009054906101000a900473ffffffffffffffffffffffffffffffffffffffff1690505b90565b600080600c60009054906101000a900473ffffffffffffffffffffffffffffffffffffffff1673ffffffffffffffffffffffffffffffffffffffff16635364df49846040518263ffffffff1660e01b8152600401611ed79190617ec6565b60206040518083038186803b158015611eef57600080fd5b505afa158015611f03573d6000803e3d6000fd5b505050506040513d601f19601f82011682018060405250810190611f279190617849565b600d60009054906101000a900473ffffffffffffffffffffffffffffffffffffffff1673ffffffffffffffffffffffffffffffffffffffff16635364df49856040518263ffffffff1660e01b8152600401611f829190617ec6565b60206040518083038186803b158015611f9a57600080fd5b505afa158015611fae573d6000803e3d6000fd5b505050506040513d601f19601f82011682018060405250810190611fd29190617849565b611fdc919061856f565b90506000600c60009054906101000a900473ffffffffffffffffffffffffffffffffffffffff1673ffffffffffffffffffffffffffffffffffffffff166396c82e576040518163ffffffff1660e01b815260040160206040518083038186803b15801561204857600080fd5b505afa15801561205c573d6000803e3d6000fd5b505050506040513d601f19601f820116820180604052508101906120809190617849565b600d60009054906101000a900473ffffffffffffffffffffffffffffffffffffffff1673ffffffffffffffffffffffffffffffffffffffff166396c82e576040518163ffffffff1660e01b815260040160206040518083038186803b1580156120e857600080fd5b505afa1580156120fc573d6000803e3d6000fd5b505050506040513d601f19601f820116820180604052508101906121209190617849565b61212a919061856f565b90506000600654600160009054906101000a900473ffffffffffffffffffffffffffffffffffffffff1673ffffffffffffffffffffffffffffffffffffffff166370a08231601060009054906101000a900473ffffffffffffffffffffffffffffffffffffffff166040518263ffffffff1660e01b81526004016121ae9190617ec6565b60206040518083038186803b1580156121c657600080fd5b505afa1580156121da573d6000803e3d6000fd5b505050506040513d601f19601f820116820180604052508101906121fe9190617849565b61220891906185c5565b905060006127106007548361221d91906185f6565b61222791906185c5565b9050600b60009054906101000a900473ffffffffffffffffffffffffffffffffffffffff1673ffffffffffffffffffffffffffffffffffffffff16631ba326c48585846040518463ffffffff1660e01b81526004016122889392919061841a565b60206040518083038186803b1580156122a057600080fd5b505afa1580156122b4573d6000803e3d6000fd5b505050506040513d601f19601f820116820180604052508101906122d89190617849565b945050505050919050565b60008054906101000a900473ffffffffffffffffffffffffffffffffffffffff1673ffffffffffffffffffffffffffffffffffffffff163373ffffffffffffffffffffffffffffffffffffffff161461233b57600080fd5b81600d60006101000a81548173ffffffffffffffffffffffffffffffffffffffff021916908373ffffffffffffffffffffffffffffffffffffffff16021790555080600c60006101000a81548173ffffffffffffffffffffffffffffffffffffffff021916908373ffffffffffffffffffffffffffffffffffffffff1602179055505050565b6123c96171e2565b81816000018181525050601a600083815260200190815260200160002080546123f1906188a2565b80601f016020809104026020016040519081016040528092919081815260200182805461241d906188a2565b801561246a5780601f1061243f5761010080835404028352916020019161246a565b820191906000526020600020905b81548152906001019060200180831161244d57829003601f168201915b50505050508160200181905250601b600083815260200190815260200160002054816040018181525050601c600083815260200190815260200160002054816060018181525050601d600083815260200190815260200160002060009054906101000a900460ff16816080019015159081151581525050601e600083815260200190815260200160002060009054906101000a900460ff168160a00190151590811515815250506017600083815260200190815260200160002060009054906101000a900463ffffffff1663ffffffff168160c00181815250506018600083815260200190815260200160002060009054906101000a900473ffffffffffffffffffffffffffffffffffffffff168160e0019073ffffffffffffffffffffffffffffffffffffffff16908173ffffffffffffffffffffffffffffffffffffffff1681525050919050565b600080601a600084815260200190815260200160002080546125d5906188a2565b80601f0160208091040260200160405190810160405280929190818152602001828054612601906188a2565b801561264e5780601f106126235761010080835404028352916020019161264e565b820191906000526020600020905b81548152906001019060200180831161263157829003601f168201915b50505050509050601f600084815260200190815260200160002060003373ffffffffffffffffffffffffffffffffffffffff1673ffffffffffffffffffffffffffffffffffffffff16815260200190815260200160002054915081601b600085815260200190815260200160002060008282546126cb9190618650565b925050819055506000601f600085815260200190815260200160002060003373ffffffffffffffffffffffffffffffffffffffff1673ffffffffffffffffffffffffffffffffffffffff16815260200190815260200160002081905550823373ffffffffffffffffffffffffffffffffffffffff167f70a6ab6ed794c2ceb8df59b7bb4e317e9b215d9ce74b88161ca5af2a5a801d6f84601b60008881526020019081526020016000205485604051612786939291906183dc565b60405180910390a350919050565b601181815481106127a457600080fd5b906000526020600020016000915054906101000a900473ffffffffffffffffffffffffffffffffffffffff1681565b60008054906101000a900473ffffffffffffffffffffffffffffffffffffffff1673ffffffffffffffffffffffffffffffffffffffff163373ffffffffffffffffffffffffffffffffffffffff161461282b57600080fd5b81600e60006101000a81548173ffffffffffffffffffffffffffffffffffffffff021916908373ffffffffffffffffffffffffffffffffffffffff16021790555080600f60006101000a81548173ffffffffffffffffffffffffffffffffffffffff021916908373ffffffffffffffffffffffffffffffffffffffff1602179055505050565b6000601460008373ffffffffffffffffffffffffffffffffffffffff1673ffffffffffffffffffffffffffffffffffffffff16815260200190815260200160002060009054906101000a900460ff1661293f576040517f08c379a0000000000000000000000000000000000000000000000000000000008152600401612936906181bd565b60405180910390fd5b6000601660008473ffffffffffffffffffffffffffffffffffffffff1673ffffffffffffffffffffffffffffffffffffffff168152602001908152602001600020544261298c9190618650565b9050600061299984611e79565b9050600060025483836129ac91906185f6565b6129b691906185c5565b9050809350505050919050565b601060009054906101000a900473ffffffffffffffffffffffffffffffffffffffff1673ffffffffffffffffffffffffffffffffffffffff16632267716c6040518163ffffffff1660e01b8152600401602060405180830381600087803b158015612a2d57600080fd5b505af1158015612a41573d6000803e3d6000fd5b505050506040513d601f19601f82011682018060405250810190612a659190617602565b612aa4576040517f08c379a0000000000000000000000000000000000000000000000000000000008152600401612a9b9061817d565b60405180910390fd5b6000612aaf336128b1565b905042601660003373ffffffffffffffffffffffffffffffffffffffff1673ffffffffffffffffffffffffffffffffffffffff16815260200190815260200160002081905550601060009054906101000a900473ffffffffffffffffffffffffffffffffffffffff1673ffffffffffffffffffffffffffffffffffffffff16637d458baa82336040518363ffffffff1660e01b8152600401612b52929190618315565b600060405180830381600087803b158015612b6c57600080fd5b505af1158015612b80573d6000803e3d6000fd5b5050505050565b612b928282336113f9565b5050565b600354601c60008381526020019081526020016000205442612bb89190618650565b11612bf8576040517f08c379a0000000000000000000000000000000000000000000000000000000008152600401612bef906181dd565b60405180910390fd5b60011515601d600083815260200190815260200160002060009054906101000a900460ff16151514612c5f576040517f08c379a0000000000000000000000000000000000000000000000000000000008152600401612c569061819d565b60405180910390fd5b612c6881614b28565b612c9d576000601d600083815260200190815260200160002060006101000a81548160ff021916908315150217905550613171565b6000601a60008381526020019081526020016000208054612cbd906188a2565b80601f0160208091040260200160405190810160405280929190818152602001828054612ce9906188a2565b8015612d365780601f10612d0b57610100808354040283529160200191612d36565b820191906000526020600020905b815481529060010190602001808311612d1957829003601f168201915b50505050509050612d7c816040518060400160405280600381526020017f44414f0000000000000000000000000000000000000000000000000000000000815250611c48565b15612d8f57612d8a826157b4565b61316f565b612dce816040518060400160405280600681526020017f524f555445520000000000000000000000000000000000000000000000000000815250611c48565b15612de157612ddc826159a6565b61316e565b612e20816040518060400160405280600581526020017f5554494c53000000000000000000000000000000000000000000000000000000815250611c48565b15612e3357612e2e82615a9c565b61316d565b612e72816040518060400160405280600781526020017f5245534552564500000000000000000000000000000000000000000000000000815250611c48565b15612e8557612e8082615b92565b61316c565b612ec4816040518060400160405280600e81526020017f464c49505f454d495353494f4e53000000000000000000000000000000000000815250611c48565b15612ed757612ed282615c88565b61316b565b612f16816040518060400160405280600881526020017f434f4f4c5f4f4646000000000000000000000000000000000000000000000000815250611c48565b15612f2957612f2482615d37565b61316a565b612f68816040518060400160405280600c81526020017f455241535f544f5f4541524e0000000000000000000000000000000000000000815250611c48565b15612f7b57612f7682615dc3565b613169565b612fba816040518060400160405280600581526020017f4752414e54000000000000000000000000000000000000000000000000000000815250611c48565b15612fcd57612fc882615e4f565b613168565b61300c816040518060400160405280600a81526020017f4745545f53504152544100000000000000000000000000000000000000000000815250611c48565b1561301f5761301a82615f75565b613167565b61305e816040518060400160405280600981526020017f4c4953545f424f4e440000000000000000000000000000000000000000000000815250611c48565b156130715761306c82616021565b613166565b6130b0816040518060400160405280600b81526020017f44454c4953545f424f4e44000000000000000000000000000000000000000000815250611c48565b156130c3576130be82616070565b613165565b613102816040518060400160405280601081526020017f4144445f435552415445445f504f4f4c00000000000000000000000000000000815250611c48565b15613115576131108261612f565b613164565b613154816040518060400160405280601381526020017f52454d4f56455f435552415445445f504f4f4c00000000000000000000000000815250611c48565b156131635761316282616292565b5b5b5b5b5b5b5b5b5b5b5b5b5b505b50565b601d6020528060005260406000206000915054906101000a900460ff1681565b600d60009054906101000a900473ffffffffffffffffffffffffffffffffffffffff1673ffffffffffffffffffffffffffffffffffffffff1663f940e38582336040518363ffffffff1660e01b81526004016131f1929190617ee1565b602060405180830381600087803b15801561320b57600080fd5b505af115801561321f573d6000803e3d6000fd5b505050506040513d601f19601f820116820180604052508101906132439190617602565b613282576040517f08c379a00000000000000000000000000000000000000000000000000000000081526004016132799061823d565b60405180910390fd5b50565b60008054906101000a900473ffffffffffffffffffffffffffffffffffffffff1673ffffffffffffffffffffffffffffffffffffffff163373ffffffffffffffffffffffffffffffffffffffff16146132dd57600080fd5b8463ffffffff166003819055508363ffffffff166006819055508263ffffffff166005819055508163ffffffff166007819055508063ffffffff166008819055505050505050565b600080601b60008481526020019081526020016000205490506000600c60009054906101000a900473ffffffffffffffffffffffffffffffffffffffff1673ffffffffffffffffffffffffffffffffffffffff166396c82e576040518163ffffffff1660e01b815260040160206040518083038186803b1580156133a857600080fd5b505afa1580156133bc573d6000803e3d6000fd5b505050506040513d601f19601f820116820180604052508101906133e09190617849565b600d60009054906101000a900473ffffffffffffffffffffffffffffffffffffffff1673ffffffffffffffffffffffffffffffffffffffff166396c82e576040518163ffffffff1660e01b815260040160206040518083038186803b15801561344857600080fd5b505afa15801561345c573d6000803e3d6000fd5b505050506040513d601f19601f820116820180604052508101906134809190617849565b61348a919061856f565b905060006127106005548361349f91906185f6565b6134a991906185c5565b9050808311156134bf57600193505050506134c7565b600093505050505b919050565b60166020528060005260406000206000915090505481565b601d600083815260200190815260200160002060009054906101000a900460ff16613544576040517f08c379a000000000000000000000000000000000000000000000000000000000815260040161353b9061819d565b60405180910390fd5b61354d81614f8d565b61358c576040517f08c379a00000000000000000000000000000000000000000000000000000000081526004016135839061825d565b60405180910390fd5b6136cc601a600084815260200190815260200160002080546135ad906188a2565b80601f01602080910402602001604051908101604052809291908181526020018280546135d9906188a2565b80156136265780601f106135fb57610100808354040283529160200191613626565b820191906000526020600020905b81548152906001019060200180831161360957829003601f168201915b5050505050601a60008481526020019081526020016000208054613649906188a2565b80601f0160208091040260200160405190810160405280929190818152602001828054613675906188a2565b80156136c25780601f10613697576101008083540402835291602001916136c2565b820191906000526020600020905b8154815290600101906020018083116136a557829003601f168201915b5050505050611c48565b61370b576040517f08c379a00000000000000000000000000000000000000000000000000000000081526004016137029061821d565b60405180910390fd5b6000601b600084815260200190815260200160002081905550813373ffffffffffffffffffffffffffffffffffffffff167f0e67c2e72a9ea22e5d163549aebce99ddc3d1fbbc58e7ed196b0e88f458847d9601b600086815260200190815260200160002054601b600086815260200190815260200160002054600d60009054906101000a900473ffffffffffffffffffffffffffffffffffffffff1673ffffffffffffffffffffffffffffffffffffffff166396c82e576040518163ffffffff1660e01b815260040160206040518083038186803b1580156137ed57600080fd5b505afa158015613801573d6000803e3d6000fd5b505050506040513d601f19601f820116820180604052508101906138259190617849565b6040516138349392919061841a565b60405180910390a35050565b60135481565b600e60009054906101000a900473ffffffffffffffffffffffffffffffffffffffff1681565b60008054906101000a900473ffffffffffffffffffffffffffffffffffffffff1673ffffffffffffffffffffffffffffffffffffffff163373ffffffffffffffffffffffffffffffffffffffff16146138c457600080fd5b6000600160009054906101000a900473ffffffffffffffffffffffffffffffffffffffff1673ffffffffffffffffffffffffffffffffffffffff166370a08231306040518263ffffffff1660e01b81526004016139219190617ec6565b60206040518083038186803b15801561393957600080fd5b505afa15801561394d573d6000803e3d6000fd5b505050506040513d601f19601f820116820180604052508101906139719190617849565b9050600160009054906101000a900473ffffffffffffffffffffffffffffffffffffffff1673ffffffffffffffffffffffffffffffffffffffff1663a9059cbb83836040518363ffffffff1660e01b81526004016139d0929190617f41565b602060405180830381600087803b1580156139ea57600080fd5b505af11580156139fe573d6000803e3d6000fd5b505050506040513d601f19601f82011682018060405250810190613a229190617602565b505050565b60025481565b60075481565b6000806012805480602002602001604051908101604052809291908181526020018280548015613ab857602002820191906000526020600020905b8160009054906101000a900473ffffffffffffffffffffffffffffffffffffffff1673ffffffffffffffffffffffffffffffffffffffff1681526020019060010190808311613a6e575b5050505050905060005b8151811015613c06576000613b1785848481518110613b0a577f4e487b7100000000000000000000000000000000000000000000000000000000600052603260045260246000fd5b602002602001015161541a565b90506000811115613bf257600c60009054906101000a900473ffffffffffffffffffffffffffffffffffffffff1673ffffffffffffffffffffffffffffffffffffffff16635bc262be848481518110613b99577f4e487b7100000000000000000000000000000000000000000000000000000000600052603260045260246000fd5b6020026020010151876040518363ffffffff1660e01b8152600401613bbf929190617ee1565b600060405180830381600087803b158015613bd957600080fd5b505af1158015613bed573d6000803e3d6000fd5b505050505b508080613bfe90618905565b915050613ac2565b506001915050919050565b6000600960009054906101000a900460ff1615613ccf57600960019054906101000a900473ffffffffffffffffffffffffffffffffffffffff1673ffffffffffffffffffffffffffffffffffffffff16637b0e5c456040518163ffffffff1660e01b815260040160206040518083038186803b158015613c9057600080fd5b505afa158015613ca4573d6000803e3d6000fd5b505050506040513d601f19601f82011682018060405250810190613cc891906177b6565b9050613cf5565b600b60009054906101000a900473ffffffffffffffffffffffffffffffffffffffff1690505b90565b600080601a60008481526020019081526020016000208054613d19906188a2565b80601f0160208091040260200160405190810160405280929190818152602001828054613d45906188a2565b8015613d925780601f10613d6757610100808354040283529160200191613d92565b820191906000526020600020905b815481529060010190602001808311613d7557829003601f168201915b50505050509050613da2836163f5565b9150613dad83614b28565b8015613ddd575060001515601d600085815260200190815260200160002060009054906101000a900460ff161515145b1561403857613e21816040518060400160405280600381526020017f44414f0000000000000000000000000000000000000000000000000000000000815250611c48565b80613e675750613e66816040518060400160405280600581526020017f5554494c53000000000000000000000000000000000000000000000000000000815250611c48565b5b80613ead5750613eac816040518060400160405280600781526020017f5245534552564500000000000000000000000000000000000000000000000000815250611c48565b5b80613ef35750613ef2816040518060400160405280600a81526020017f4745545f53504152544100000000000000000000000000000000000000000000815250611c48565b5b80613f395750613f38816040518060400160405280600681526020017f524f555445520000000000000000000000000000000000000000000000000000815250611c48565b5b80613f7f5750613f7e816040518060400160405280600981526020017f4c4953545f424f4e440000000000000000000000000000000000000000000000815250611c48565b5b80613fc55750613fc4816040518060400160405280600581526020017f4752414e54000000000000000000000000000000000000000000000000000000815250611c48565b5b8061400b575061400a816040518060400160405280601081526020017f4144445f435552415445445f504f4f4c00000000000000000000000000000000815250611c48565b5b1561402d5761401983613325565b156140285761402783616657565b5b614037565b61403683616657565b5b5b823373ffffffffffffffffffffffffffffffffffffffff167f4d46d88c7e981a5bf4572a83b5d88bcfefbd5ee6ca8df0588e27c4221a43640784601b60008881526020019081526020016000205485604051614096939291906183dc565b60405180910390a350919050565b60008054906101000a900473ffffffffffffffffffffffffffffffffffffffff1673ffffffffffffffffffffffffffffffffffffffff163373ffffffffffffffffffffffffffffffffffffffff16146140fc57600080fd5b82600a60006101000a81548173ffffffffffffffffffffffffffffffffffffffff021916908373ffffffffffffffffffffffffffffffffffffffff16021790555081600b60006101000a81548173ffffffffffffffffffffffffffffffffffffffff021916908373ffffffffffffffffffffffffffffffffffffffff16021790555080601060006101000a81548173ffffffffffffffffffffffffffffffffffffffff021916908373ffffffffffffffffffffffffffffffffffffffff160217905550505050565b600d60009054906101000a900473ffffffffffffffffffffffffffffffffffffffff1681565b60055481565b600a60009054906101000a900473ffffffffffffffffffffffffffffffffffffffff1681565b600960019054906101000a900473ffffffffffffffffffffffffffffffffffffffff1681565b601060009054906101000a900473ffffffffffffffffffffffffffffffffffffffff1681565b60008060009054906101000a900473ffffffffffffffffffffffffffffffffffffffff1673ffffffffffffffffffffffffffffffffffffffff163373ffffffffffffffffffffffffffffffffffffffff16146142bd57600080fd5b601560008373ffffffffffffffffffffffffffffffffffffffff1673ffffffffffffffffffffffffffffffffffffffff16815260200190815260200160002060009054906101000a900460ff166143ca576001601560008473ffffffffffffffffffffffffffffffffffffffff1673ffffffffffffffffffffffffffffffffffffffff16815260200190815260200160002060006101000a81548160ff0219169083151502179055506012829080600181540180825580915050600190039060005260206000200160009091909190916101000a81548173ffffffffffffffffffffffffffffffffffffffff021916908373ffffffffffffffffffffffffffffffffffffffff1602179055505b8173ffffffffffffffffffffffffffffffffffffffff163373ffffffffffffffffffffffffffffffffffffffff167fa2c962e87fd75165c1496c9ea420ddb0231e124bf2625a77f828287c8050006860405160405180910390a360019050919050565b6000600960009054906101000a900460ff16156144eb57600960019054906101000a900473ffffffffffffffffffffffffffffffffffffffff1673ffffffffffffffffffffffffffffffffffffffff16639d2cc4366040518163ffffffff1660e01b815260040160206040518083038186803b1580156144ac57600080fd5b505afa1580156144c0573d6000803e3d6000fd5b505050506040513d601f19601f820116820180604052508101906144e4919061773b565b9050614511565b601060009054906101000a900473ffffffffffffffffffffffffffffffffffffffff1690505b90565b60146020528060005260406000206000915054906101000a900460ff1681565b6000808211614578576040517f08c379a000000000000000000000000000000000000000000000000000000000815260040161456f9061829d565b60405180910390fd5b601560008473ffffffffffffffffffffffffffffffffffffffff1673ffffffffffffffffffffffffffffffffffffffff16815260200190815260200160002060009054906101000a900460ff16614604576040517f08c379a00000000000000000000000000000000000000000000000000000000081526004016145fb906180dd565b60405180910390fd5b6000614610848461679d565b9050600c60009054906101000a900473ffffffffffffffffffffffffffffffffffffffff1673ffffffffffffffffffffffffffffffffffffffff1663bf58d0ef8533846040518463ffffffff1660e01b815260040161467193929190617f0a565b600060405180830381600087803b15801561468b57600080fd5b505af115801561469f573d6000803e3d6000fd5b505050503373ffffffffffffffffffffffffffffffffffffffff167fe4dd259ab128527fe8b5fdae0b44bda8db95a4de10b999d63dce142b1eb88d5484836040516146eb92919061836e565b60405180910390a2600191505092915050565b600061470861567f565b5060006040518060400160405280600581526020017f4752414e540000000000000000000000000000000000000000000000000000008152509050600160046000828254614756919061856f565b9250508190555080601a60006004548152602001908152602001600020908051906020019061478692919061715c565b5061478f617241565b84816000019073ffffffffffffffffffffffffffffffffffffffff16908173ffffffffffffffffffffffffffffffffffffffff1681525050838160200181815250508060196000600454815260200190815260200160002060008201518160000160006101000a81548173ffffffffffffffffffffffffffffffffffffffff021916908373ffffffffffffffffffffffffffffffffffffffff160217905550602082015181600101559050506004543373ffffffffffffffffffffffffffffffffffffffff167f8d500fcad86fc64a281b94ef64d6d66acbfc6862aa4ff2ee5fbbfb40736e803e84604051614884919061809b565b60405180910390a36004549250505092915050565b60035481565b60186020528060005260406000206000915054906101000a900473ffffffffffffffffffffffffffffffffffffffff1681565b60008054906101000a900473ffffffffffffffffffffffffffffffffffffffff1673ffffffffffffffffffffffffffffffffffffffff163373ffffffffffffffffffffffffffffffffffffffff161461492a57600080fd5b8060138190555050565b6000600960009054906101000a900460ff16156149f257600960019054906101000a900473ffffffffffffffffffffffffffffffffffffffff1673ffffffffffffffffffffffffffffffffffffffff1663b93ec54b6040518163ffffffff1660e01b815260040160206040518083038186803b1580156149b357600080fd5b505afa1580156149c7573d6000803e3d6000fd5b505050506040513d601f19601f820116820180604052508101906149eb919061778d565b9050614a18565b600f60009054906101000a900473ffffffffffffffffffffffffffffffffffffffff1690505b90565b6000600960009054906101000a900460ff1615614ad957600960019054906101000a900473ffffffffffffffffffffffffffffffffffffffff1673ffffffffffffffffffffffffffffffffffffffff1663b99b0a0c6040518163ffffffff1660e01b815260040160206040518083038186803b158015614a9a57600080fd5b505afa158015614aae573d6000803e3d6000fd5b505050506040513d601f19601f82011682018060405250810190614ad29190617712565b9050614aff565b600e60009054906101000a900473ffffffffffffffffffffffffffffffffffffffff1690505b90565b600b60009054906101000a900473ffffffffffffffffffffffffffffffffffffffff1681565b600080601b60008481526020019081526020016000205490506000600c60009054906101000a900473ffffffffffffffffffffffffffffffffffffffff1673ffffffffffffffffffffffffffffffffffffffff166396c82e576040518163ffffffff1660e01b815260040160206040518083038186803b158015614bab57600080fd5b505afa158015614bbf573d6000803e3d6000fd5b505050506040513d601f19601f82011682018060405250810190614be39190617849565b600d60009054906101000a900473ffffffffffffffffffffffffffffffffffffffff1673ffffffffffffffffffffffffffffffffffffffff166396c82e576040518163ffffffff1660e01b815260040160206040518083038186803b158015614c4b57600080fd5b505afa158015614c5f573d6000803e3d6000fd5b505050506040513d601f19601f82011682018060405250810190614c839190617849565b614c8d919061856f565b90506000600382614c9e91906185c5565b905080831115614cb45760019350505050614cbc565b600093505050505b919050565b60008060009054906101000a900473ffffffffffffffffffffffffffffffffffffffff1673ffffffffffffffffffffffffffffffffffffffff163373ffffffffffffffffffffffffffffffffffffffff1614614d1c57600080fd5b6000600160009054906101000a900473ffffffffffffffffffffffffffffffffffffffff1673ffffffffffffffffffffffffffffffffffffffff166370a08231306040518263ffffffff1660e01b8152600401614d799190617ec6565b60206040518083038186803b158015614d9157600080fd5b505afa158015614da5573d6000803e3d6000fd5b505050506040513d601f19601f82011682018060405250810190614dc99190617849565b9050600160009054906101000a900473ffffffffffffffffffffffffffffffffffffffff1673ffffffffffffffffffffffffffffffffffffffff166342966c68826040518263ffffffff1660e01b8152600401614e2691906182fa565b600060405180830381600087803b158015614e4057600080fd5b505af1158015614e54573d6000803e3d6000fd5b50505050600191505090565b601a6020528060005260406000206000915090508054614e7f906188a2565b80601f0160208091040260200160405190810160405280929190818152602001828054614eab906188a2565b8015614ef85780601f10614ecd57610100808354040283529160200191614ef8565b820191906000526020600020905b815481529060010190602001808311614edb57829003601f168201915b505050505081565b60008054906101000a900473ffffffffffffffffffffffffffffffffffffffff1681565b601f602052816000526040600020602052806000526040600020600091509150505481565b60196020528060005260406000206000915090508060000160009054906101000a900473ffffffffffffffffffffffffffffffffffffffff16908060010154905082565b600080601b60008481526020019081526020016000205490506000600c60009054906101000a900473ffffffffffffffffffffffffffffffffffffffff1673ffffffffffffffffffffffffffffffffffffffff166396c82e576040518163ffffffff1660e01b815260040160206040518083038186803b15801561501057600080fd5b505afa158015615024573d6000803e3d6000fd5b505050506040513d601f19601f820116820180604052508101906150489190617849565b600d60009054906101000a900473ffffffffffffffffffffffffffffffffffffffff1673ffffffffffffffffffffffffffffffffffffffff166396c82e576040518163ffffffff1660e01b815260040160206040518083038186803b1580156150b057600080fd5b505afa1580156150c4573d6000803e3d6000fd5b505050506040513d601f19601f820116820180604052508101906150e89190617849565b6150f2919061856f565b9050600060068261510391906185c5565b9050808311156151195760019350505050615121565b600093505050505b919050565b600061513061567f565b50600160046000828254615144919061856f565b9250508190555081601a60006004548152602001908152602001600020908051906020019061517492919061715c565b506004543373ffffffffffffffffffffffffffffffffffffffff167f8d500fcad86fc64a281b94ef64d6d66acbfc6862aa4ff2ee5fbbfb40736e803e846040516151be919061809b565b60405180910390a36004549050919050565b60045481565b601b6020528060005260406000206000915090505481565b60008060009054906101000a900473ffffffffffffffffffffffffffffffffffffffff1673ffffffffffffffffffffffffffffffffffffffff163373ffffffffffffffffffffffffffffffffffffffff161461524957600080fd5b6000601560008473ffffffffffffffffffffffffffffffffffffffff1673ffffffffffffffffffffffffffffffffffffffff16815260200190815260200160002060006101000a81548160ff0219169083151502179055508173ffffffffffffffffffffffffffffffffffffffff163373ffffffffffffffffffffffffffffffffffffffff167ff487c2322baa448cfa506b983134d9dd9f27d0bbfe0b48119a3908d4f0dde89f60405160405180910390a360019050919050565b600080615311338461541a565b905060008111156153ac57600c60009054906101000a900473ffffffffffffffffffffffffffffffffffffffff1673ffffffffffffffffffffffffffffffffffffffff16635bc262be84336040518363ffffffff1660e01b8152600401615379929190617ee1565b600060405180830381600087803b15801561539357600080fd5b505af11580156153a7573d6000803e3d6000fd5b505050505b6001915050919050565b601c6020528060005260406000206000915090505481565b600f60009054906101000a900473ffffffffffffffffffffffffffffffffffffffff1681565b600160009054906101000a900473ffffffffffffffffffffffffffffffffffffffff1681565b600080600c60009054906101000a900473ffffffffffffffffffffffffffffffffffffffff1673ffffffffffffffffffffffffffffffffffffffff1663ba0ba54f85856040518363ffffffff1660e01b815260040161547a929190617ee1565b602060405180830381600087803b15801561549457600080fd5b505af11580156154a8573d6000803e3d6000fd5b505050506040513d601f19601f820116820180604052508101906154cc9190617849565b90508091505092915050565b6154e0617241565b6019600083815260200190815260200160002060000160009054906101000a900473ffffffffffffffffffffffffffffffffffffffff16816000019073ffffffffffffffffffffffffffffffffffffffff16908173ffffffffffffffffffffffffffffffffffffffff16815250506019600083815260200190815260200160002060010154816020018181525050919050565b600061557d61567f565b50600160046000828254615591919061856f565b925050819055508260176000600454815260200190815260200160002060006101000a81548163ffffffff021916908363ffffffff16021790555081601a6000600454815260200190815260200160002090805190602001906155f592919061715c565b506004543373ffffffffffffffffffffffffffffffffffffffff167f8d500fcad86fc64a281b94ef64d6d66acbfc6862aa4ff2ee5fbbfb40736e803e8460405161563f919061809b565b60405180910390a3600454905092915050565b60156020528060005260406000206000915054906101000a900460ff1681565b6000601280549050905090565b600080670de0b6b3a764000060085461569891906185f6565b9050600160009054906101000a900473ffffffffffffffffffffffffffffffffffffffff1673ffffffffffffffffffffffffffffffffffffffff166323b872dd33601060009054906101000a900473ffffffffffffffffffffffffffffffffffffffff16846040518463ffffffff1660e01b815260040161571b93929190617f0a565b602060405180830381600087803b15801561573557600080fd5b505af1158015615749573d6000803e3d6000fd5b505050506040513d601f19601f8201168201806040525081019061576d9190617602565b6157ac576040517f08c379a00000000000000000000000000000000000000000000000000000000081526004016157a39061811d565b60405180910390fd5b600191505090565b60006018600083815260200190815260200160002060009054906101000a900473ffffffffffffffffffffffffffffffffffffffff169050600073ffffffffffffffffffffffffffffffffffffffff168173ffffffffffffffffffffffffffffffffffffffff16141561585c576040517f08c379a00000000000000000000000000000000000000000000000000000000081526004016158539061827d565b60405180910390fd5b6018600083815260200190815260200160002060009054906101000a900473ffffffffffffffffffffffffffffffffffffffff16600960016101000a81548173ffffffffffffffffffffffffffffffffffffffff021916908373ffffffffffffffffffffffffffffffffffffffff160217905550600160009054906101000a900473ffffffffffffffffffffffffffffffffffffffff1673ffffffffffffffffffffffffffffffffffffffff16631d007f5f826040518263ffffffff1660e01b815260040161592b9190617ec6565b602060405180830381600087803b15801561594557600080fd5b505af1158015615959573d6000803e3d6000fd5b505050506040513d601f19601f8201168201806040525081019061597d9190617602565b506001600960006101000a81548160ff0219169083151502179055506159a282616f42565b5050565b60006018600083815260200190815260200160002060009054906101000a900473ffffffffffffffffffffffffffffffffffffffff169050600073ffffffffffffffffffffffffffffffffffffffff168173ffffffffffffffffffffffffffffffffffffffff161415615a4e576040517f08c379a0000000000000000000000000000000000000000000000000000000008152600401615a459061827d565b60405180910390fd5b80600a60006101000a81548173ffffffffffffffffffffffffffffffffffffffff021916908373ffffffffffffffffffffffffffffffffffffffff160217905550615a9882616f42565b5050565b60006018600083815260200190815260200160002060009054906101000a900473ffffffffffffffffffffffffffffffffffffffff169050600073ffffffffffffffffffffffffffffffffffffffff168173ffffffffffffffffffffffffffffffffffffffff161415615b44576040517f08c379a0000000000000000000000000000000000000000000000000000000008152600401615b3b9061827d565b60405180910390fd5b80600b60006101000a81548173ffffffffffffffffffffffffffffffffffffffff021916908373ffffffffffffffffffffffffffffffffffffffff160217905550615b8e82616f42565b5050565b60006018600083815260200190815260200160002060009054906101000a900473ffffffffffffffffffffffffffffffffffffffff169050600073ffffffffffffffffffffffffffffffffffffffff168173ffffffffffffffffffffffffffffffffffffffff161415615c3a576040517f08c379a0000000000000000000000000000000000000000000000000000000008152600401615c319061827d565b60405180910390fd5b80601060006101000a81548173ffffffffffffffffffffffffffffffffffffffff021916908373ffffffffffffffffffffffffffffffffffffffff160217905550615c8482616f42565b5050565b600160009054906101000a900473ffffffffffffffffffffffffffffffffffffffff1673ffffffffffffffffffffffffffffffffffffffff1663fe1fa8fa6040518163ffffffff1660e01b8152600401602060405180830381600087803b158015615cf257600080fd5b505af1158015615d06573d6000803e3d6000fd5b505050506040513d601f19601f82011682018060405250810190615d2a9190617602565b50615d3481616f42565b50565b60006017600083815260200190815260200160002060009054906101000a900463ffffffff16905060008163ffffffff161415615da9576040517f08c379a0000000000000000000000000000000000000000000000000000000008152600401615da09061813d565b60405180910390fd5b8063ffffffff16600381905550615dbf82616f42565b5050565b60006017600083815260200190815260200160002060009054906101000a900463ffffffff16905060008163ffffffff161415615e35576040517f08c379a0000000000000000000000000000000000000000000000000000000008152600401615e2c9061813d565b60405180910390fd5b8063ffffffff16600681905550615e4b82616f42565b5050565b6000601960008381526020019081526020016000206040518060400160405290816000820160009054906101000a900473ffffffffffffffffffffffffffffffffffffffff1673ffffffffffffffffffffffffffffffffffffffff1673ffffffffffffffffffffffffffffffffffffffff1681526020016001820154815250509050601060009054906101000a900473ffffffffffffffffffffffffffffffffffffffff1673ffffffffffffffffffffffffffffffffffffffff16637d458baa826020015183600001516040518363ffffffff1660e01b8152600401615f36929190618315565b600060405180830381600087803b158015615f5057600080fd5b505af1158015615f64573d6000803e3d6000fd5b50505050615f7182616f42565b5050565b60006a02116545850052128000009050600160009054906101000a900473ffffffffffffffffffffffffffffffffffffffff1673ffffffffffffffffffffffffffffffffffffffff1663d01f6fba82306040518363ffffffff1660e01b8152600401615fe2929190618315565b600060405180830381600087803b158015615ffc57600080fd5b505af1158015616010573d6000803e3d6000fd5b5050505061601d82616f42565b5050565b60006018600083815260200190815260200160002060009054906101000a900473ffffffffffffffffffffffffffffffffffffffff16905061606281614262565b5061606c82616f42565b5050565b60006018600083815260200190815260200160002060009054906101000a900473ffffffffffffffffffffffffffffffffffffffff169050600073ffffffffffffffffffffffffffffffffffffffff168173ffffffffffffffffffffffffffffffffffffffff161415616118576040517f08c379a000000000000000000000000000000000000000000000000000000000815260040161610f9061827d565b60405180910390fd5b616121816151ee565b5061612b82616f42565b5050565b60006018600083815260200190815260200160002060009054906101000a900473ffffffffffffffffffffffffffffffffffffffff169050600073ffffffffffffffffffffffffffffffffffffffff168173ffffffffffffffffffffffffffffffffffffffff1614156161d7576040517f08c379a00000000000000000000000000000000000000000000000000000000081526004016161ce9061827d565b60405180910390fd5b600e60009054906101000a900473ffffffffffffffffffffffffffffffffffffffff1673ffffffffffffffffffffffffffffffffffffffff16632b2260a8826040518263ffffffff1660e01b81526004016162329190617ec6565b602060405180830381600087803b15801561624c57600080fd5b505af1158015616260573d6000803e3d6000fd5b505050506040513d601f19601f820116820180604052508101906162849190617602565b5061628e82616f42565b5050565b60006018600083815260200190815260200160002060009054906101000a900473ffffffffffffffffffffffffffffffffffffffff169050600073ffffffffffffffffffffffffffffffffffffffff168173ffffffffffffffffffffffffffffffffffffffff16141561633a576040517f08c379a00000000000000000000000000000000000000000000000000000000081526004016163319061827d565b60405180910390fd5b600e60009054906101000a900473ffffffffffffffffffffffffffffffffffffffff1673ffffffffffffffffffffffffffffffffffffffff16637ca51fbf826040518263ffffffff1660e01b81526004016163959190617ec6565b602060405180830381600087803b1580156163af57600080fd5b505af11580156163c3573d6000803e3d6000fd5b505050506040513d601f19601f820116820180604052508101906163e79190617602565b506163f182616f42565b5050565b6000601f600083815260200190815260200160002060003373ffffffffffffffffffffffffffffffffffffffff1673ffffffffffffffffffffffffffffffffffffffff16815260200190815260200160002054601b6000848152602001908152602001600020600082825461646a9190618650565b92505081905550600c60009054906101000a900473ffffffffffffffffffffffffffffffffffffffff1673ffffffffffffffffffffffffffffffffffffffff16635364df49336040518263ffffffff1660e01b81526004016164cc9190617ec6565b60206040518083038186803b1580156164e457600080fd5b505afa1580156164f8573d6000803e3d6000fd5b505050506040513d601f19601f8201168201806040525081019061651c9190617849565b600d60009054906101000a900473ffffffffffffffffffffffffffffffffffffffff1673ffffffffffffffffffffffffffffffffffffffff16635364df49336040518263ffffffff1660e01b81526004016165779190617ec6565b60206040518083038186803b15801561658f57600080fd5b505afa1580156165a3573d6000803e3d6000fd5b505050506040513d601f19601f820116820180604052508101906165c79190617849565b6165d1919061856f565b905080601b600084815260200190815260200160002060008282546165f6919061856f565b9250508190555080601f600084815260200190815260200160002060003373ffffffffffffffffffffffffffffffffffffffff1673ffffffffffffffffffffffffffffffffffffffff16815260200190815260200160002081905550919050565b6000601a60008381526020019081526020016000208054616677906188a2565b80601f01602080910402602001604051908101604052809291908181526020018280546166a3906188a2565b80156166f05780601f106166c5576101008083540402835291602001916166f0565b820191906000526020600020905b8154815290600101906020018083116166d357829003601f168201915b505050505090506001601d600084815260200190815260200160002060006101000a81548160ff02191690831515021790555042601c600084815260200190815260200160002081905550813373ffffffffffffffffffffffffffffffffffffffff167f0f36aea5066f9f90a999260fe4ce8d7713f7f07f5ae61bf36d73cc51170a3a9e60035442616782919061856f565b8460405161679192919061833e565b60405180910390a35050565b600080600b60009054906101000a900473ffffffffffffffffffffffffffffffffffffffff1673ffffffffffffffffffffffffffffffffffffffff1663b80e44b885856040518363ffffffff1660e01b81526004016167fd929190617f41565b60206040518083038186803b15801561681557600080fd5b505afa158015616829573d6000803e3d6000fd5b505050506040513d601f19601f8201168201806040525081019061684d9190617849565b9050600073ffffffffffffffffffffffffffffffffffffffff168473ffffffffffffffffffffffffffffffffffffffff161415616beb5780600160009054906101000a900473ffffffffffffffffffffffffffffffffffffffff1673ffffffffffffffffffffffffffffffffffffffff1663dd62ed3e30600a60009054906101000a900473ffffffffffffffffffffffffffffffffffffffff166040518363ffffffff1660e01b8152600401616904929190617ee1565b60206040518083038186803b15801561691c57600080fd5b505afa158015616930573d6000803e3d6000fd5b505050506040513d601f19601f820116820180604052508101906169549190617849565b1015616acc57600160009054906101000a900473ffffffffffffffffffffffffffffffffffffffff1673ffffffffffffffffffffffffffffffffffffffff1663095ea7b3600a60009054906101000a900473ffffffffffffffffffffffffffffffffffffffff16600160009054906101000a900473ffffffffffffffffffffffffffffffffffffffff1673ffffffffffffffffffffffffffffffffffffffff166318160ddd6040518163ffffffff1660e01b815260040160206040518083038186803b158015616a2357600080fd5b505afa158015616a37573d6000803e3d6000fd5b505050506040513d601f19601f82011682018060405250810190616a5b9190617849565b6040518363ffffffff1660e01b8152600401616a78929190617f41565b602060405180830381600087803b158015616a9257600080fd5b505af1158015616aa6573d6000803e3d6000fd5b505050506040513d601f19601f82011682018060405250810190616aca9190617602565b505b348314616b0e576040517f08c379a0000000000000000000000000000000000000000000000000000000008152600401616b059061815d565b60405180910390fd5b600a60009054906101000a900473ffffffffffffffffffffffffffffffffffffffff1673ffffffffffffffffffffffffffffffffffffffff166393cac68584838688600c60009054906101000a900473ffffffffffffffffffffffffffffffffffffffff166040518663ffffffff1660e01b8152600401616b929493929190618397565b6020604051808303818588803b158015616bab57600080fd5b505af1158015616bbf573d6000803e3d6000fd5b50505050506040513d601f19601f82011682018060405250810190616be49190617849565b9150616f3b565b8373ffffffffffffffffffffffffffffffffffffffff166323b872dd3330866040518463ffffffff1660e01b8152600401616c2893929190617f0a565b602060405180830381600087803b158015616c4257600080fd5b505af1158015616c56573d6000803e3d6000fd5b505050506040513d601f19601f82011682018060405250810190616c7a9190617602565b50828473ffffffffffffffffffffffffffffffffffffffff1663dd62ed3e30600a60009054906101000a900473ffffffffffffffffffffffffffffffffffffffff166040518363ffffffff1660e01b8152600401616cd9929190617ee1565b60206040518083038186803b158015616cf157600080fd5b505afa158015616d05573d6000803e3d6000fd5b505050506040513d601f19601f82011682018060405250810190616d299190617849565b1015616e635760008473ffffffffffffffffffffffffffffffffffffffff166318160ddd6040518163ffffffff1660e01b815260040160206040518083038186803b158015616d7757600080fd5b505afa158015616d8b573d6000803e3d6000fd5b505050506040513d601f19601f82011682018060405250810190616daf9190617849565b90508473ffffffffffffffffffffffffffffffffffffffff1663095ea7b3600a60009054906101000a900473ffffffffffffffffffffffffffffffffffffffff16836040518363ffffffff1660e01b8152600401616e0e929190617f41565b602060405180830381600087803b158015616e2857600080fd5b505af1158015616e3c573d6000803e3d6000fd5b505050506040513d601f19601f82011682018060405250810190616e609190617602565b50505b600a60009054906101000a900473ffffffffffffffffffffffffffffffffffffffff1673ffffffffffffffffffffffffffffffffffffffff166393cac685828587600c60009054906101000a900473ffffffffffffffffffffffffffffffffffffffff166040518563ffffffff1660e01b8152600401616ee69493929190618397565b602060405180830381600087803b158015616f0057600080fd5b505af1158015616f14573d6000803e3d6000fd5b505050506040513d601f19601f82011682018060405250810190616f389190617849565b91505b5092915050565b6000601a60008381526020019081526020016000208054616f62906188a2565b80601f0160208091040260200160405190810160405280929190818152602001828054616f8e906188a2565b8015616fdb5780601f10616fb057610100808354040283529160200191616fdb565b820191906000526020600020905b815481529060010190602001808311616fbe57829003601f168201915b50505050509050813373ffffffffffffffffffffffffffffffffffffffff167f28fca9bc3d4a734a707bd9396d50341c1f45e1d455c4aa4a58ceee0e09f64544601b600086815260200190815260200160002054600d60009054906101000a900473ffffffffffffffffffffffffffffffffffffffff1673ffffffffffffffffffffffffffffffffffffffff166396c82e576040518163ffffffff1660e01b815260040160206040518083038186803b15801561709757600080fd5b505afa1580156170ab573d6000803e3d6000fd5b505050506040513d601f19601f820116820180604052508101906170cf9190617849565b856040516170df939291906183dc565b60405180910390a36000601b6000848152602001908152602001600020819055506001601e600084815260200190815260200160002060006101000a81548160ff0219169083151502179055506000601d600084815260200190815260200160002060006101000a81548160ff0219169083151502179055505050565b828054617168906188a2565b90600052602060002090601f01602090048101928261718a57600085556171d1565b82601f106171a357805160ff19168380011785556171d1565b828001600101855582156171d1579182015b828111156171d05782518255916020019190600101906171b5565b5b5090506171de9190617271565b5090565b6040518061010001604052806000815260200160608152602001600081526020016000815260200160001515815260200160001515815260200160008152602001600073ffffffffffffffffffffffffffffffffffffffff1681525090565b6040518060400160405280600073ffffffffffffffffffffffffffffffffffffffff168152602001600081525090565b5b8082111561728a576000816000905550600101617272565b5090565b60006172a161729c84618491565b61846c565b9050828152602081018484840111156172b957600080fd5b6172c4848285618860565b509392505050565b60006172df6172da846184c2565b61846c565b9050828152602081018484840111156172f757600080fd5b617302848285618860565b509392505050565b60008135905061731981618cab565b92915050565b60008151905061732e81618cc2565b92915050565b60008151905061734381618cd9565b92915050565b600082601f83011261735a57600080fd5b813561736a84826020860161728e565b91505092915050565b60008151905061738281618cf0565b92915050565b60008151905061739781618d07565b92915050565b6000815190506173ac81618d1e565b92915050565b6000815190506173c181618d35565b92915050565b6000815190506173d681618d4c565b92915050565b6000815190506173eb81618d63565b92915050565b60008151905061740081618d7a565b92915050565b600082601f83011261741757600080fd5b81356174278482602086016172cc565b91505092915050565b60008135905061743f81618d91565b92915050565b60008151905061745481618d91565b92915050565b60008135905061746981618da8565b92915050565b60006020828403121561748157600080fd5b600061748f8482850161730a565b91505092915050565b600080604083850312156174ab57600080fd5b60006174b98582860161730a565b92505060206174ca8582860161730a565b9150509250929050565b6000806000606084860312156174e957600080fd5b60006174f78682870161730a565b93505060206175088682870161730a565b92505060406175198682870161730a565b9150509250925092565b6000806040838503121561753657600080fd5b60006175448582860161730a565b925050602083013567ffffffffffffffff81111561756157600080fd5b61756d85828601617406565b9150509250929050565b6000806040838503121561758a57600080fd5b60006175988582860161730a565b92505060206175a985828601617430565b9150509250929050565b6000806000606084860312156175c857600080fd5b60006175d68682870161730a565b93505060206175e786828701617430565b92505060406175f88682870161730a565b9150509250925092565b60006020828403121561761457600080fd5b60006176228482850161731f565b91505092915050565b60006020828403121561763d57600080fd5b600061764b84828501617334565b91505092915050565b6000806040838503121561766757600080fd5b600083013567ffffffffffffffff81111561768157600080fd5b61768d85828601617349565b925050602083013567ffffffffffffffff8111156176aa57600080fd5b6176b685828601617349565b9150509250929050565b6000602082840312156176d257600080fd5b60006176e084828501617373565b91505092915050565b6000602082840312156176fb57600080fd5b600061770984828501617388565b91505092915050565b60006020828403121561772457600080fd5b60006177328482850161739d565b91505092915050565b60006020828403121561774d57600080fd5b600061775b848285016173b2565b91505092915050565b60006020828403121561777657600080fd5b6000617784848285016173c7565b91505092915050565b60006020828403121561779f57600080fd5b60006177ad848285016173dc565b91505092915050565b6000602082840312156177c857600080fd5b60006177d6848285016173f1565b91505092915050565b6000602082840312156177f157600080fd5b600082013567ffffffffffffffff81111561780b57600080fd5b61781784828501617406565b91505092915050565b60006020828403121561783257600080fd5b600061784084828501617430565b91505092915050565b60006020828403121561785b57600080fd5b600061786984828501617445565b91505092915050565b6000806040838503121561788557600080fd5b600061789385828601617430565b92505060206178a48582860161730a565b9150509250929050565b600080604083850312156178c157600080fd5b60006178cf85828601617430565b92505060206178e085828601617430565b9150509250929050565b600080604083850312156178fd57600080fd5b600061790b8582860161745a565b925050602083013567ffffffffffffffff81111561792857600080fd5b61793485828601617406565b9150509250929050565b600080600080600060a0868803121561795657600080fd5b60006179648882890161745a565b95505060206179758882890161745a565b94505060406179868882890161745a565b93505060606179978882890161745a565b92505060806179a88882890161745a565b9150509295509295909350565b60006179c183836179cd565b60208301905092915050565b6179d681618684565b82525050565b6179e581618684565b82525050565b60006179f682618503565b617a008185618531565b9350617a0b836184f3565b8060005b83811015617a3c578151617a2388826179b5565b9750617a2e83618524565b925050600181019050617a0f565b5085935050505092915050565b617a5281618696565b82525050565b617a6181618696565b82525050565b6000617a728261850e565b617a7c8185618542565b9350617a8c81856020860161886f565b80840191505092915050565b617aa181618764565b82525050565b617ab081618788565b82525050565b617abf816187ac565b82525050565b617ace816187d0565b82525050565b617add816187f4565b82525050565b617aec81618818565b82525050565b617afb8161883c565b82525050565b6000617b0c82618519565b617b16818561854d565b9350617b2681856020860161886f565b617b2f81618a0a565b840191505092915050565b6000617b4582618519565b617b4f818561855e565b9350617b5f81856020860161886f565b617b6881618a0a565b840191505092915050565b6000617b8060068361855e565b9150617b8b82618a1b565b602082019050919050565b6000617ba360078361855e565b9150617bae82618a44565b602082019050919050565b6000617bc660078361855e565b9150617bd182618a6d565b602082019050919050565b6000617be960048361855e565b9150617bf482618a96565b602082019050919050565b6000617c0c60118361855e565b9150617c1782618abf565b602082019050919050565b6000617c2f60088361855e565b9150617c3a82618ae8565b602082019050919050565b6000617c52600a8361855e565b9150617c5d82618b11565b602082019050919050565b6000617c75600b8361855e565b9150617c8082618b3a565b602082019050919050565b6000617c9860078361855e565b9150617ca382618b63565b602082019050919050565b6000617cbb60098361855e565b9150617cc682618b8c565b602082019050919050565b6000617cde60088361855e565b9150617ce982618bb5565b602082019050919050565b6000617d0160058361855e565b9150617d0c82618bde565b602082019050919050565b6000617d2460098361855e565b9150617d2f82618c07565b602082019050919050565b6000617d4760098361855e565b9150617d5282618c30565b602082019050919050565b6000617d6a60138361855e565b9150617d7582618c59565b602082019050919050565b6000617d8d60068361855e565b9150617d9882618c82565b602082019050919050565b604082016000820151617db960008501826179cd565b506020820151617dcc6020850182617e82565b50505050565b600061010083016000830151617deb6000860182617e82565b5060208301518482036020860152617e038282617b01565b9150506040830151617e186040860182617e82565b506060830151617e2b6060860182617e82565b506080830151617e3e6080860182617a49565b5060a0830151617e5160a0860182617a49565b5060c0830151617e6460c0860182617e82565b5060e0830151617e7760e08601826179cd565b508091505092915050565b617e8b8161874a565b82525050565b617e9a8161874a565b82525050565b617ea981618754565b82525050565b6000617ebb8284617a67565b915081905092915050565b6000602082019050617edb60008301846179dc565b92915050565b6000604082019050617ef660008301856179dc565b617f0360208301846179dc565b9392505050565b6000606082019050617f1f60008301866179dc565b617f2c60208301856179dc565b617f396040830184617e91565b949350505050565b6000604082019050617f5660008301856179dc565b617f636020830184617e91565b9392505050565b6000606082019050617f7f60008301866179dc565b617f8c6020830185617e91565b617f9960408301846179dc565b949350505050565b60006020820190508181036000830152617fbb81846179eb565b905092915050565b6000602082019050617fd86000830184617a58565b92915050565b6000602082019050617ff36000830184617a98565b92915050565b600060208201905061800e6000830184617aa7565b92915050565b60006020820190506180296000830184617ab6565b92915050565b60006020820190506180446000830184617ac5565b92915050565b600060208201905061805f6000830184617ad4565b92915050565b600060208201905061807a6000830184617ae3565b92915050565b60006020820190506180956000830184617af2565b92915050565b600060208201905081810360008301526180b58184617b3a565b905092915050565b600060208201905081810360008301526180d681617b73565b9050919050565b600060208201905081810360008301526180f681617b96565b9050919050565b6000602082019050818103600083015261811681617bb9565b9050919050565b6000602082019050818103600083015261813681617bdc565b9050919050565b6000602082019050818103600083015261815681617bff565b9050919050565b6000602082019050818103600083015261817681617c22565b9050919050565b6000602082019050818103600083015261819681617c45565b9050919050565b600060208201905081810360008301526181b681617c68565b9050919050565b600060208201905081810360008301526181d681617c8b565b9050919050565b600060208201905081810360008301526181f681617cae565b9050919050565b6000602082019050818103600083015261821681617cd1565b9050919050565b6000602082019050818103600083015261823681617cf4565b9050919050565b6000602082019050818103600083015261825681617d17565b9050919050565b6000602082019050818103600083015261827681617d3a565b9050919050565b6000602082019050818103600083015261829681617d5d565b9050919050565b600060208201905081810360008301526182b681617d80565b9050919050565b60006040820190506182d26000830184617da3565b92915050565b600060208201905081810360008301526182f28184617dd2565b905092915050565b600060208201905061830f6000830184617e91565b92915050565b600060408201905061832a6000830185617e91565b61833760208301846179dc565b9392505050565b60006040820190506183536000830185617e91565b81810360208301526183658184617b3a565b90509392505050565b60006040820190506183836000830185617e91565b6183906020830184617e91565b9392505050565b60006080820190506183ac6000830187617e91565b6183b96020830186617e91565b6183c660408301856179dc565b6183d360608301846179dc565b95945050505050565b60006060820190506183f16000830186617e91565b6183fe6020830185617e91565b81810360408301526184108184617b3a565b9050949350505050565b600060608201905061842f6000830186617e91565b61843c6020830185617e91565b6184496040830184617e91565b949350505050565b60006020820190506184666000830184617ea0565b92915050565b6000618476618487565b905061848282826188d4565b919050565b6000604051905090565b600067ffffffffffffffff8211156184ac576184ab6189db565b5b6184b582618a0a565b9050602081019050919050565b600067ffffffffffffffff8211156184dd576184dc6189db565b5b6184e682618a0a565b9050602081019050919050565b6000819050602082019050919050565b600081519050919050565b600081519050919050565b600081519050919050565b6000602082019050919050565b600082825260208201905092915050565b600081905092915050565b600082825260208201905092915050565b600082825260208201905092915050565b600061857a8261874a565b91506185858361874a565b9250827fffffffffffffffffffffffffffffffffffffffffffffffffffffffffffffffff038211156185ba576185b961894e565b5b828201905092915050565b60006185d08261874a565b91506185db8361874a565b9250826185eb576185ea61897d565b5b828204905092915050565b60006186018261874a565b915061860c8361874a565b9250817fffffffffffffffffffffffffffffffffffffffffffffffffffffffffffffffff04831182151516156186455761864461894e565b5b828202905092915050565b600061865b8261874a565b91506186668361874a565b9250828210156186795761867861894e565b5b828203905092915050565b600061868f8261872a565b9050919050565b60008115159050919050565b6000819050919050565b60006186b782618684565b9050919050565b60006186c982618684565b9050919050565b60006186db82618684565b9050919050565b60006186ed82618684565b9050919050565b60006186ff82618684565b9050919050565b600061871182618684565b9050919050565b600061872382618684565b9050919050565b600073ffffffffffffffffffffffffffffffffffffffff82169050919050565b6000819050919050565b600063ffffffff82169050919050565b600061876f82618776565b9050919050565b60006187818261872a565b9050919050565b60006187938261879a565b9050919050565b60006187a58261872a565b9050919050565b60006187b7826187be565b9050919050565b60006187c98261872a565b9050919050565b60006187db826187e2565b9050919050565b60006187ed8261872a565b9050919050565b60006187ff82618806565b9050919050565b60006188118261872a565b9050919050565b60006188238261882a565b9050919050565b60006188358261872a565b9050919050565b60006188478261884e565b9050919050565b60006188598261872a565b9050919050565b82818337600083830152505050565b60005b8381101561888d578082015181840152602081019050618872565b8381111561889c576000848401525b50505050565b600060028204905060018216806188ba57607f821691505b602082108114156188ce576188cd6189ac565b5b50919050565b6188dd82618a0a565b810181811067ffffffffffffffff821117156188fc576188fb6189db565b5b80604052505050565b60006189108261874a565b91507fffffffffffffffffffffffffffffffffffffffffffffffffffffffffffffffff8214156189435761894261894e565b5b600182019050919050565b7f4e487b7100000000000000000000000000000000000000000000000000000000600052601160045260246000fd5b7f4e487b7100000000000000000000000000000000000000000000000000000000600052601260045260246000fd5b7f4e487b7100000000000000000000000000000000000000000000000000000000600052602260045260246000fd5b7f4e487b7100000000000000000000000000000000000000000000000000000000600052604160045260246000fd5b6000601f19601f8301169050919050565b7f2146554e44530000000000000000000000000000000000000000000000000000600082015250565b7f216c697374656400000000000000000000000000000000000000000000000000600082015250565b7f21416d6f756e7400000000000000000000000000000000000000000000000000600082015250565b7f2166656500000000000000000000000000000000000000000000000000000000600082015250565b7f4e6f20706172616d2070726f706f736564000000000000000000000000000000600082015250565b7f496e707574457272000000000000000000000000000000000000000000000000600082015250565b7f21454d495353494f4e5300000000000000000000000000000000000000000000600082015250565b7f2166696e616c6973696e67000000000000000000000000000000000000000000600082015250565b7f216d656d62657200000000000000000000000000000000000000000000000000600082015250565b7f21636f6f6c206f66660000000000000000000000000000000000000000000000600082015250565b7f2143757261746564000000000000000000000000000000000000000000000000600082015250565b7f2173616d65000000000000000000000000000000000000000000000000000000600082015250565b7f217472616e736665720000000000000000000000000000000000000000000000600082015250565b7f216d696e6f726974790000000000000000000000000000000000000000000000600082015250565b7f4e6f20616464726573732070726f706f73656400000000000000000000000000600082015250565b7f2161737365740000000000000000000000000000000000000000000000000000600082015250565b618cb481618684565b8114618cbf57600080fd5b50565b618ccb81618696565b8114618cd657600080fd5b50565b618ce2816186a2565b8114618ced57600080fd5b50565b618cf9816186ac565b8114618d0457600080fd5b50565b618d10816186be565b8114618d1b57600080fd5b50565b618d27816186d0565b8114618d3257600080fd5b50565b618d3e816186e2565b8114618d4957600080fd5b50565b618d55816186f4565b8114618d6057600080fd5b50565b618d6c81618706565b8114618d7757600080fd5b50565b618d8381618718565b8114618d8e57600080fd5b50565b618d9a8161874a565b8114618da557600080fd5b50565b618db181618754565b8114618dbc57600080fd5b5056fea2646970667358221220ac1522d52a88534400d42f1d058505b1ac8d8bb8c5522389282564dbde62f11f64736f6c63430008030033",
  "linkReferences": {},
  "deployedLinkReferences": {}
}