{
  "_format": "hh-sol-artifact-1",
  "contractName": "Dao",
  "sourceName": "contracts/Dao.sol",
  "abi": [
    {
      "inputs": [
        {
          "internalType": "address",
          "name": "_base",
          "type": "address"
        }
      ],
      "stateMutability": "nonpayable",
      "type": "constructor"
    },
    {
      "anonymous": false,
      "inputs": [
        {
          "indexed": true,
          "internalType": "address",
          "name": "member",
          "type": "address"
        },
        {
          "indexed": true,
          "internalType": "uint256",
          "name": "proposalID",
          "type": "uint256"
        }
      ],
      "name": "CancelProposal",
      "type": "event"
    },
    {
      "anonymous": false,
      "inputs": [
        {
          "indexed": true,
          "internalType": "address",
          "name": "DAO",
          "type": "address"
        },
        {
          "indexed": true,
          "internalType": "address",
          "name": "asset",
          "type": "address"
        }
      ],
      "name": "DelistedAsset",
      "type": "event"
    },
    {
      "anonymous": false,
      "inputs": [
        {
          "indexed": true,
          "internalType": "address",
          "name": "owner",
          "type": "address"
        },
        {
          "indexed": false,
          "internalType": "uint256",
          "name": "depositAmount",
          "type": "uint256"
        },
        {
          "indexed": false,
          "internalType": "uint256",
          "name": "bondedLP",
          "type": "uint256"
        }
      ],
      "name": "DepositAsset",
      "type": "event"
    },
    {
      "anonymous": false,
      "inputs": [
        {
          "indexed": true,
          "internalType": "address",
          "name": "member",
          "type": "address"
        },
        {
          "indexed": true,
          "internalType": "uint256",
          "name": "proposalID",
          "type": "uint256"
        },
        {
          "indexed": false,
          "internalType": "string",
          "name": "proposalType",
          "type": "string"
        }
      ],
      "name": "FinalisedProposal",
      "type": "event"
    },
    {
      "anonymous": false,
      "inputs": [
        {
          "indexed": true,
          "internalType": "address",
          "name": "DAO",
          "type": "address"
        },
        {
          "indexed": true,
          "internalType": "address",
          "name": "asset",
          "type": "address"
        }
      ],
      "name": "ListedAsset",
      "type": "event"
    },
    {
      "anonymous": false,
      "inputs": [
        {
          "indexed": true,
          "internalType": "address",
          "name": "member",
          "type": "address"
        },
        {
          "indexed": true,
          "internalType": "address",
          "name": "pool",
          "type": "address"
        },
        {
          "indexed": false,
          "internalType": "uint256",
          "name": "amount",
          "type": "uint256"
        }
      ],
      "name": "MemberDeposits",
      "type": "event"
    },
    {
      "anonymous": false,
      "inputs": [
        {
          "indexed": true,
          "internalType": "address",
          "name": "member",
          "type": "address"
        },
        {
          "indexed": true,
          "internalType": "address",
          "name": "pool",
          "type": "address"
        },
        {
          "indexed": false,
          "internalType": "uint256",
          "name": "balance",
          "type": "uint256"
        }
      ],
      "name": "MemberWithdraws",
      "type": "event"
    },
    {
      "anonymous": false,
      "inputs": [
        {
          "indexed": true,
          "internalType": "address",
          "name": "member",
          "type": "address"
        },
        {
          "indexed": true,
          "internalType": "uint256",
          "name": "proposalID",
          "type": "uint256"
        },
        {
          "indexed": false,
          "internalType": "string",
          "name": "proposalType",
          "type": "string"
        }
      ],
      "name": "NewProposal",
      "type": "event"
    },
    {
      "anonymous": false,
      "inputs": [
        {
          "indexed": true,
          "internalType": "address",
          "name": "member",
          "type": "address"
        },
        {
          "indexed": true,
          "internalType": "uint256",
          "name": "proposalID",
          "type": "uint256"
        },
        {
          "indexed": false,
          "internalType": "string",
          "name": "proposalType",
          "type": "string"
        }
      ],
      "name": "NewVote",
      "type": "event"
    },
    {
      "anonymous": false,
      "inputs": [
        {
          "indexed": true,
          "internalType": "address",
          "name": "member",
          "type": "address"
        },
        {
          "indexed": true,
          "internalType": "uint256",
          "name": "proposalID",
          "type": "uint256"
        },
        {
          "indexed": false,
          "internalType": "uint256",
          "name": "timeFinalised",
          "type": "uint256"
        },
        {
          "indexed": false,
          "internalType": "string",
          "name": "proposalType",
          "type": "string"
        }
      ],
      "name": "ProposalFinalising",
      "type": "event"
    },
    {
      "anonymous": false,
      "inputs": [
        {
          "indexed": true,
          "internalType": "address",
          "name": "member",
          "type": "address"
        },
        {
          "indexed": true,
          "internalType": "uint256",
          "name": "proposalID",
          "type": "uint256"
        },
        {
          "indexed": false,
          "internalType": "string",
          "name": "proposalType",
          "type": "string"
        }
      ],
      "name": "RemovedVote",
      "type": "event"
    },
    {
      "inputs": [],
      "name": "BASE",
      "outputs": [
        {
          "internalType": "address",
          "name": "",
          "type": "address"
        }
      ],
      "stateMutability": "view",
      "type": "function"
    },
    {
      "inputs": [],
      "name": "BONDVAULT",
      "outputs": [
        {
          "internalType": "contract iBONDVAULT",
          "name": "",
          "type": "address"
        }
      ],
      "stateMutability": "view",
      "type": "function"
    },
    {
      "inputs": [],
      "name": "DAO",
      "outputs": [
        {
          "internalType": "address",
          "name": "",
          "type": "address"
        }
      ],
      "stateMutability": "view",
      "type": "function"
    },
    {
      "inputs": [],
      "name": "DAOVAULT",
      "outputs": [
        {
          "internalType": "contract iDAOVAULT",
          "name": "",
          "type": "address"
        }
      ],
      "stateMutability": "view",
      "type": "function"
    },
    {
      "inputs": [],
      "name": "DEPLOYER",
      "outputs": [
        {
          "internalType": "address",
          "name": "",
          "type": "address"
        }
      ],
      "stateMutability": "view",
      "type": "function"
    },
    {
      "inputs": [],
      "name": "LEND",
      "outputs": [
        {
          "internalType": "contract iLEND",
          "name": "",
          "type": "address"
        }
      ],
      "stateMutability": "view",
      "type": "function"
    },
    {
      "inputs": [],
      "name": "POOLFACTORY",
      "outputs": [
        {
          "internalType": "contract iPOOLFACTORY",
          "name": "",
          "type": "address"
        }
      ],
      "stateMutability": "view",
      "type": "function"
    },
    {
      "inputs": [],
      "name": "RESERVE",
      "outputs": [
        {
          "internalType": "contract iRESERVE",
          "name": "",
          "type": "address"
        }
      ],
      "stateMutability": "view",
      "type": "function"
    },
    {
      "inputs": [],
      "name": "ROUTER",
      "outputs": [
        {
          "internalType": "contract iROUTER",
          "name": "",
          "type": "address"
        }
      ],
      "stateMutability": "view",
      "type": "function"
    },
    {
      "inputs": [],
      "name": "SYNTHFACTORY",
      "outputs": [
        {
          "internalType": "contract iSYNTHFACTORY",
          "name": "",
          "type": "address"
        }
      ],
      "stateMutability": "view",
      "type": "function"
    },
    {
      "inputs": [],
      "name": "SYNTHVAULT",
      "outputs": [
        {
          "internalType": "contract iSYNTHVAULT",
          "name": "",
          "type": "address"
        }
      ],
      "stateMutability": "view",
      "type": "function"
    },
    {
      "inputs": [],
      "name": "UTILS",
      "outputs": [
        {
          "internalType": "contract iUTILS",
          "name": "",
          "type": "address"
        }
      ],
      "stateMutability": "view",
      "type": "function"
    },
    {
      "inputs": [
        {
          "internalType": "address",
          "name": "asset",
          "type": "address"
        }
      ],
      "name": "_claim",
      "outputs": [
        {
          "internalType": "bool",
          "name": "",
          "type": "bool"
        }
      ],
      "stateMutability": "nonpayable",
      "type": "function"
    },
    {
      "inputs": [],
      "name": "allListedAssets",
      "outputs": [
        {
          "internalType": "address[]",
          "name": "_allListedAssets",
          "type": "address[]"
        }
      ],
      "stateMutability": "view",
      "type": "function"
    },
    {
      "inputs": [
        {
          "internalType": "uint256",
          "name": "",
          "type": "uint256"
        }
      ],
      "name": "arrayMembers",
      "outputs": [
        {
          "internalType": "address",
          "name": "",
          "type": "address"
        }
      ],
      "stateMutability": "view",
      "type": "function"
    },
    {
      "inputs": [],
      "name": "assetListedCount",
      "outputs": [
        {
          "internalType": "uint256",
          "name": "count",
          "type": "uint256"
        }
      ],
      "stateMutability": "view",
      "type": "function"
    },
    {
      "inputs": [
        {
          "internalType": "address",
          "name": "asset",
          "type": "address"
        },
        {
          "internalType": "uint256",
          "name": "amount",
          "type": "uint256"
        }
      ],
      "name": "bond",
      "outputs": [
        {
          "internalType": "bool",
          "name": "success",
          "type": "bool"
        }
      ],
      "stateMutability": "payable",
      "type": "function"
    },
    {
      "inputs": [],
      "name": "bondingPeriodSeconds",
      "outputs": [
        {
          "internalType": "uint256",
          "name": "",
          "type": "uint256"
        }
      ],
      "stateMutability": "view",
      "type": "function"
    },
    {
      "inputs": [],
      "name": "burnBalance",
      "outputs": [
        {
          "internalType": "bool",
          "name": "",
          "type": "bool"
        }
      ],
      "stateMutability": "nonpayable",
      "type": "function"
    },
    {
      "inputs": [
        {
          "internalType": "address",
          "name": "member",
          "type": "address"
        }
      ],
      "name": "calcCurrentReward",
      "outputs": [
        {
          "internalType": "uint256",
          "name": "",
          "type": "uint256"
        }
      ],
      "stateMutability": "view",
      "type": "function"
    },
    {
      "inputs": [
        {
          "internalType": "address",
          "name": "member",
          "type": "address"
        }
      ],
      "name": "calcReward",
      "outputs": [
        {
          "internalType": "uint256",
          "name": "",
          "type": "uint256"
        }
      ],
      "stateMutability": "view",
      "type": "function"
    },
    {
      "inputs": [],
      "name": "cancelPeriod",
      "outputs": [
        {
          "internalType": "uint256",
          "name": "",
          "type": "uint256"
        }
      ],
      "stateMutability": "view",
      "type": "function"
    },
    {
      "inputs": [],
      "name": "cancelProposal",
      "outputs": [],
      "stateMutability": "nonpayable",
      "type": "function"
    },
    {
      "inputs": [
        {
          "internalType": "uint256",
          "name": "bondingSeconds",
          "type": "uint256"
        }
      ],
      "name": "changeBondingPeriod",
      "outputs": [],
      "stateMutability": "nonpayable",
      "type": "function"
    },
    {
      "inputs": [
        {
          "internalType": "address[]",
          "name": "bondAssets",
          "type": "address[]"
        }
      ],
      "name": "claimAll",
      "outputs": [
        {
          "internalType": "bool",
          "name": "",
          "type": "bool"
        }
      ],
      "stateMutability": "nonpayable",
      "type": "function"
    },
    {
      "inputs": [],
      "name": "coolOffPeriod",
      "outputs": [
        {
          "internalType": "uint256",
          "name": "",
          "type": "uint256"
        }
      ],
      "stateMutability": "view",
      "type": "function"
    },
    {
      "inputs": [],
      "name": "currentProposal",
      "outputs": [
        {
          "internalType": "uint256",
          "name": "",
          "type": "uint256"
        }
      ],
      "stateMutability": "view",
      "type": "function"
    },
    {
      "inputs": [],
      "name": "daoClaim",
      "outputs": [
        {
          "internalType": "uint256",
          "name": "",
          "type": "uint256"
        }
      ],
      "stateMutability": "view",
      "type": "function"
    },
    {
      "inputs": [],
      "name": "daoFee",
      "outputs": [
        {
          "internalType": "uint256",
          "name": "",
          "type": "uint256"
        }
      ],
      "stateMutability": "view",
      "type": "function"
    },
    {
      "inputs": [],
      "name": "daoHasMoved",
      "outputs": [
        {
          "internalType": "bool",
          "name": "",
          "type": "bool"
        }
      ],
      "stateMutability": "view",
      "type": "function"
    },
    {
      "inputs": [
        {
          "internalType": "address",
          "name": "asset",
          "type": "address"
        }
      ],
      "name": "delistBondAsset",
      "outputs": [],
      "stateMutability": "nonpayable",
      "type": "function"
    },
    {
      "inputs": [
        {
          "internalType": "address",
          "name": "pool",
          "type": "address"
        },
        {
          "internalType": "uint256",
          "name": "amount",
          "type": "uint256"
        }
      ],
      "name": "deposit",
      "outputs": [],
      "stateMutability": "nonpayable",
      "type": "function"
    },
    {
      "inputs": [],
      "name": "erasToEarn",
      "outputs": [
        {
          "internalType": "uint256",
          "name": "",
          "type": "uint256"
        }
      ],
      "stateMutability": "view",
      "type": "function"
    },
    {
      "inputs": [],
      "name": "finaliseProposal",
      "outputs": [],
      "stateMutability": "nonpayable",
      "type": "function"
    },
    {
      "inputs": [
        {
          "internalType": "uint256",
          "name": "proposal",
          "type": "uint256"
        },
        {
          "internalType": "address",
          "name": "asset",
          "type": "address"
        }
      ],
      "name": "getProposalAssetVotes",
      "outputs": [
        {
          "internalType": "uint256",
          "name": "",
          "type": "uint256"
        }
      ],
      "stateMutability": "view",
      "type": "function"
    },
    {
      "inputs": [
        {
          "internalType": "uint256",
          "name": "proposalID",
          "type": "uint256"
        }
      ],
      "name": "getProposalDetails",
      "outputs": [
        {
          "components": [
            {
              "internalType": "uint256",
              "name": "id",
              "type": "uint256"
            },
            {
              "internalType": "string",
              "name": "proposalType",
              "type": "string"
            },
            {
              "internalType": "uint256",
              "name": "votes",
              "type": "uint256"
            },
            {
              "internalType": "uint256",
              "name": "coolOffTime",
              "type": "uint256"
            },
            {
              "internalType": "bool",
              "name": "finalising",
              "type": "bool"
            },
            {
              "internalType": "bool",
              "name": "finalised",
              "type": "bool"
            },
            {
              "internalType": "uint256",
              "name": "param",
              "type": "uint256"
            },
            {
              "internalType": "address",
              "name": "proposedAddress",
              "type": "address"
            },
            {
              "internalType": "bool",
              "name": "open",
              "type": "bool"
            },
            {
              "internalType": "uint256",
              "name": "startTime",
              "type": "uint256"
            }
          ],
          "internalType": "struct Dao.ProposalDetails",
          "name": "proposalDetails",
          "type": "tuple"
        }
      ],
      "stateMutability": "view",
      "type": "function"
    },
    {
      "inputs": [],
      "name": "harvest",
      "outputs": [],
      "stateMutability": "nonpayable",
      "type": "function"
    },
    {
      "inputs": [
        {
          "internalType": "uint256",
          "name": "_proposalID",
          "type": "uint256"
        }
      ],
      "name": "hasMajority",
      "outputs": [
        {
          "internalType": "bool",
          "name": "",
          "type": "bool"
        }
      ],
      "stateMutability": "view",
      "type": "function"
    },
    {
      "inputs": [
        {
          "internalType": "uint256",
          "name": "_proposalID",
          "type": "uint256"
        }
      ],
      "name": "hasQuorum",
      "outputs": [
        {
          "internalType": "bool",
          "name": "",
          "type": "bool"
        }
      ],
      "stateMutability": "view",
      "type": "function"
    },
    {
      "inputs": [
        {
          "internalType": "address",
          "name": "",
          "type": "address"
        }
      ],
      "name": "isListed",
      "outputs": [
        {
          "internalType": "bool",
          "name": "",
          "type": "bool"
        }
      ],
      "stateMutability": "view",
      "type": "function"
    },
    {
      "inputs": [
        {
          "internalType": "address",
          "name": "",
          "type": "address"
        }
      ],
      "name": "isMember",
      "outputs": [
        {
          "internalType": "bool",
          "name": "",
          "type": "bool"
        }
      ],
      "stateMutability": "view",
      "type": "function"
    },
    {
      "inputs": [
        {
          "internalType": "address",
          "name": "asset",
          "type": "address"
        }
      ],
      "name": "listBondAsset",
      "outputs": [],
      "stateMutability": "nonpayable",
      "type": "function"
    },
    {
      "inputs": [
        {
          "internalType": "uint256",
          "name": "",
          "type": "uint256"
        }
      ],
      "name": "listedBondPools",
      "outputs": [
        {
          "internalType": "address",
          "name": "",
          "type": "address"
        }
      ],
      "stateMutability": "view",
      "type": "function"
    },
    {
      "inputs": [],
      "name": "majorityFactor",
      "outputs": [
        {
          "internalType": "uint256",
          "name": "",
          "type": "uint256"
        }
      ],
      "stateMutability": "view",
      "type": "function"
    },
    {
      "inputs": [
        {
          "internalType": "address",
          "name": "",
          "type": "address"
        }
      ],
      "name": "mapMember_lastTime",
      "outputs": [
        {
          "internalType": "uint256",
          "name": "",
          "type": "uint256"
        }
      ],
      "stateMutability": "view",
      "type": "function"
    },
    {
      "inputs": [
        {
          "internalType": "uint256",
          "name": "",
          "type": "uint256"
        }
      ],
      "name": "mapPID_address",
      "outputs": [
        {
          "internalType": "address",
          "name": "",
          "type": "address"
        }
      ],
      "stateMutability": "view",
      "type": "function"
    },
    {
      "inputs": [
        {
          "internalType": "uint256",
          "name": "",
          "type": "uint256"
        }
      ],
      "name": "mapPID_coolOffTime",
      "outputs": [
        {
          "internalType": "uint256",
          "name": "",
          "type": "uint256"
        }
      ],
      "stateMutability": "view",
      "type": "function"
    },
    {
      "inputs": [
        {
          "internalType": "uint256",
          "name": "",
          "type": "uint256"
        }
      ],
      "name": "mapPID_finalised",
      "outputs": [
        {
          "internalType": "bool",
          "name": "",
          "type": "bool"
        }
      ],
      "stateMutability": "view",
      "type": "function"
    },
    {
      "inputs": [
        {
          "internalType": "uint256",
          "name": "",
          "type": "uint256"
        }
      ],
      "name": "mapPID_finalising",
      "outputs": [
        {
          "internalType": "bool",
          "name": "",
          "type": "bool"
        }
      ],
      "stateMutability": "view",
      "type": "function"
    },
    {
      "inputs": [
        {
          "internalType": "uint256",
          "name": "",
          "type": "uint256"
        }
      ],
      "name": "mapPID_open",
      "outputs": [
        {
          "internalType": "bool",
          "name": "",
          "type": "bool"
        }
      ],
      "stateMutability": "view",
      "type": "function"
    },
    {
      "inputs": [
        {
          "internalType": "uint256",
          "name": "",
          "type": "uint256"
        }
      ],
      "name": "mapPID_param",
      "outputs": [
        {
          "internalType": "uint256",
          "name": "",
          "type": "uint256"
        }
      ],
      "stateMutability": "view",
      "type": "function"
    },
    {
      "inputs": [
        {
          "internalType": "uint256",
          "name": "",
          "type": "uint256"
        }
      ],
      "name": "mapPID_startTime",
      "outputs": [
        {
          "internalType": "uint256",
          "name": "",
          "type": "uint256"
        }
      ],
      "stateMutability": "view",
      "type": "function"
    },
    {
      "inputs": [
        {
          "internalType": "uint256",
          "name": "",
          "type": "uint256"
        }
      ],
      "name": "mapPID_type",
      "outputs": [
        {
          "internalType": "string",
          "name": "",
          "type": "string"
        }
      ],
      "stateMutability": "view",
      "type": "function"
    },
    {
      "inputs": [],
      "name": "memberCount",
      "outputs": [
        {
          "internalType": "uint256",
          "name": "",
          "type": "uint256"
        }
      ],
      "stateMutability": "view",
      "type": "function"
    },
    {
      "inputs": [
        {
          "internalType": "uint256",
          "name": "proposal",
          "type": "uint256"
        },
        {
          "internalType": "address",
          "name": "member",
          "type": "address"
        }
      ],
      "name": "memberVoted",
      "outputs": [
        {
          "internalType": "bool",
          "name": "",
          "type": "bool"
        }
      ],
      "stateMutability": "view",
      "type": "function"
    },
    {
      "inputs": [
        {
          "internalType": "address",
          "name": "newDAO",
          "type": "address"
        }
      ],
      "name": "moveBASEBalance",
      "outputs": [],
      "stateMutability": "nonpayable",
      "type": "function"
    },
    {
      "inputs": [
        {
          "internalType": "string",
          "name": "typeStr",
          "type": "string"
        }
      ],
      "name": "newActionProposal",
      "outputs": [],
      "stateMutability": "nonpayable",
      "type": "function"
    },
    {
      "inputs": [
        {
          "internalType": "address",
          "name": "proposedAddress",
          "type": "address"
        },
        {
          "internalType": "string",
          "name": "typeStr",
          "type": "string"
        }
      ],
      "name": "newAddressProposal",
      "outputs": [],
      "stateMutability": "nonpayable",
      "type": "function"
    },
    {
      "inputs": [
        {
          "internalType": "address",
          "name": "recipient",
          "type": "address"
        },
        {
          "internalType": "uint256",
          "name": "amount",
          "type": "uint256"
        }
      ],
      "name": "newGrantProposal",
      "outputs": [],
      "stateMutability": "nonpayable",
      "type": "function"
    },
    {
      "inputs": [
        {
          "internalType": "uint256",
          "name": "param",
          "type": "uint256"
        },
        {
          "internalType": "string",
          "name": "typeStr",
          "type": "string"
        }
      ],
      "name": "newParamProposal",
      "outputs": [],
      "stateMutability": "nonpayable",
      "type": "function"
    },
    {
      "inputs": [],
      "name": "pollVotes",
      "outputs": [],
      "stateMutability": "nonpayable",
      "type": "function"
    },
    {
      "inputs": [],
      "name": "purgeDeployer",
      "outputs": [],
      "stateMutability": "nonpayable",
      "type": "function"
    },
    {
      "inputs": [],
      "name": "retire",
      "outputs": [
        {
          "internalType": "bool",
          "name": "",
          "type": "bool"
        }
      ],
      "stateMutability": "view",
      "type": "function"
    },
    {
      "inputs": [],
      "name": "running",
      "outputs": [
        {
          "internalType": "bool",
          "name": "",
          "type": "bool"
        }
      ],
      "stateMutability": "view",
      "type": "function"
    },
    {
      "inputs": [
        {
          "internalType": "uint256",
          "name": "_daoClaim",
          "type": "uint256"
        },
        {
          "internalType": "uint256",
          "name": "_daoFee",
          "type": "uint256"
        },
        {
          "internalType": "bool",
          "name": "_running",
          "type": "bool"
        },
        {
          "internalType": "uint256",
          "name": "_cancelPeriod",
          "type": "uint256"
        }
      ],
      "name": "setDaoFactors",
      "outputs": [],
      "stateMutability": "nonpayable",
      "type": "function"
    },
    {
      "inputs": [
        {
          "internalType": "address",
          "name": "_poolFactory",
          "type": "address"
        },
        {
          "internalType": "address",
          "name": "_synthFactory",
          "type": "address"
        }
      ],
      "name": "setFactoryAddresses",
      "outputs": [],
      "stateMutability": "nonpayable",
      "type": "function"
    },
    {
      "inputs": [
        {
          "internalType": "address",
          "name": "_router",
          "type": "address"
        },
        {
          "internalType": "address",
          "name": "_utils",
          "type": "address"
        },
        {
          "internalType": "address",
          "name": "_reserve",
          "type": "address"
        },
        {
          "internalType": "address",
          "name": "_lend",
          "type": "address"
        }
      ],
      "name": "setGenesisAddresses",
      "outputs": [],
      "stateMutability": "nonpayable",
      "type": "function"
    },
    {
      "inputs": [
        {
          "internalType": "uint256",
          "name": "_coolOff",
          "type": "uint256"
        },
        {
          "internalType": "uint256",
          "name": "_erasToEarn",
          "type": "uint256"
        },
        {
          "internalType": "uint256",
          "name": "_majorityFactor",
          "type": "uint256"
        }
      ],
      "name": "setGenesisFactors",
      "outputs": [],
      "stateMutability": "nonpayable",
      "type": "function"
    },
    {
      "inputs": [
        {
          "internalType": "address",
          "name": "_daovault",
          "type": "address"
        },
        {
          "internalType": "address",
          "name": "_bondvault",
          "type": "address"
        },
        {
          "internalType": "address",
          "name": "_synthVault",
          "type": "address"
        }
      ],
      "name": "setVaultAddresses",
      "outputs": [],
      "stateMutability": "nonpayable",
      "type": "function"
    },
    {
      "inputs": [],
      "name": "unvoteProposal",
      "outputs": [],
      "stateMutability": "nonpayable",
      "type": "function"
    },
    {
      "inputs": [],
      "name": "voteProposal",
      "outputs": [],
      "stateMutability": "nonpayable",
      "type": "function"
    },
    {
      "inputs": [
        {
          "internalType": "address",
          "name": "pool",
          "type": "address"
        }
      ],
      "name": "withdraw",
      "outputs": [],
      "stateMutability": "nonpayable",
      "type": "function"
    }
  ],
  "bytecode": "0x60a060405262ed4e006015553480156200001857600080fd5b506040516200bf6b3803806200bf6b83398181016040528101906200003e9190620001e0565b6001600081905550600073ffffffffffffffffffffffffffffffffffffffff168173ffffffffffffffffffffffffffffffffffffffff161415620000b9576040517f08c379a0000000000000000000000000000000000000000000000000000000008152600401620000b09062000233565b60405180910390fd5b8073ffffffffffffffffffffffffffffffffffffffff1660808173ffffffffffffffffffffffffffffffffffffffff1660601b8152505033600160006101000a81548173ffffffffffffffffffffffffffffffffffffffff021916908373ffffffffffffffffffffffffffffffffffffffff16021790555030600960016101000a81548173ffffffffffffffffffffffffffffffffffffffff021916908373ffffffffffffffffffffffffffffffffffffffff1602179055506203f480600281905550601e600481905550611a0a6003819055506103e86005819055506000600160156101000a81548160ff021916908315150217905550610190600681905550600560088190555050620002dd565b600081519050620001da81620002c3565b92915050565b600060208284031215620001f357600080fd5b60006200020384828501620001c9565b91505092915050565b60006200021b60058362000255565b915062000228826200029a565b602082019050919050565b600060208201905081810360008301526200024e816200020c565b9050919050565b600082825260208201905092915050565b600062000273826200027a565b9050919050565b600073ffffffffffffffffffffffffffffffffffffffff82169050919050565b7f215a45524f000000000000000000000000000000000000000000000000000000600082015250565b620002ce8162000266565b8114620002da57600080fd5b50565b60805160601c61bbff6200036c60003960008181611f66015281816126b7015281816128fc01528181613fe60152818161409101528181615594015281816168d30152818161697e01528181616fe701528181617b0101528181617d2f01528181617e0201528181617e61015281816186cb015281816188c401528181618a6f0152618c50015261bbff6000f3fe60806040526004361061041b5760003560e01c806379b2dc4c1161021e578063abb6154f11610123578063c05fc178116100ab578063db634d7c1161007a578063db634d7c14611038578063ec342ad014611061578063f301e7811461108c578063f794062e146110b7578063f7a79a37146110f45761041b565b8063c05fc17814610f7c578063c1b8411a14610fb9578063d145836314610fe4578063d85bd5261461100d5761041b565b8063b8262869116100f2578063b826286914610e81578063b93ec54b14610ebe578063b99b0a0c14610ee9578063bbf8cf8214610f14578063bc68fad914610f515761041b565b8063abb6154f14610db3578063ae887c8b14610dde578063af04598014610e1b578063b7407e6a14610e445761041b565b80639d2cc436116101a6578063a44c247211610175578063a44c247214610cef578063a4874d7714610d18578063a515366a14610d43578063a6c83fed14610d73578063ab2bd8fd14610d9c5761041b565b80639d2cc43614610c21578063a230c52414610c4c578063a299ecb214610c89578063a320224614610cc65761041b565b80638bebea89116101ed5780638bebea8914610b4e5780639070577f14610b8b578063956615be14610ba257806398fabd3a14610bcd5780639cd99aa214610bf85761041b565b806379b2dc4c14610ab65780637b0e5c4514610ae15780638351739a14610b0c57806385d2b91614610b235761041b565b80633a61738d116103245780634b400034116102ac5780635f9384fc1161027b5780635f9384fc14610a0b57806365c71bbf14610a22578063682454ed14610a4d57806368bb97b314610a645780637375898814610a8d5761041b565b80634b4000341461092b57806351cff8d9146109685780635c120b37146109915780635c7366d3146109ce5761041b565b806343b2116f116102f357806343b2116f1461085c57806346350821146108855780634636279f146108ae5780634641257d146108eb57806347e7ef24146109025761041b565b80633a61738d146107685780633b4d01a7146107a55780633f3fa336146107e2578063436f80be1461081f5761041b565b80632bee1194116103a757806332fe7b261161037657806332fe7b261461068157806334bc8f45146106ac57806335cb5fe0146106d557806338da7dd61461070057806338ed85b01461072b5761041b565b80632bee1194146105b15780632c07eebf146105ee5780632f7fa18014610619578063314604fe146106445761041b565b806324efb528116103ee57806324efb528146104dc578063293cee7d146105075780632957b839146105305780632ab24e491461055b5780632b49d425146105865761041b565b806303a821381461042057806303c06fbd1461043757806311aee380146104745780631e2de0d11461049f575b600080fd5b34801561042c57600080fd5b5061043561111f565b005b34801561044357600080fd5b5061045e6004803603810190610459919061a399565b6111bd565b60405161046b919061ab33565b60405180910390f35b34801561048057600080fd5b506104896111fc565b604051610496919061b022565b60405180910390f35b3480156104ab57600080fd5b506104c660048036038101906104c1919061a113565b611209565b6040516104d3919061ac30565b60405180910390f35b3480156104e857600080fd5b506104f1611384565b6040516104fe919061ac30565b60405180910390f35b34801561051357600080fd5b5061052e6004803603810190610529919061a083565b611397565b005b34801561053c57600080fd5b5061054561164d565b604051610552919061b022565b60405180910390f35b34801561056757600080fd5b50610570611653565b60405161057d919061ad08565b60405180910390f35b34801561059257600080fd5b5061059b61173a565b6040516105a8919061b022565b60405180910390f35b3480156105bd57600080fd5b506105d860048036038101906105d3919061a399565b611740565b6040516105e5919061ac30565b60405180910390f35b3480156105fa57600080fd5b50610603611760565b604051610610919061b022565b60405180910390f35b34801561062557600080fd5b5061062e611766565b60405161063b919061ac4b565b60405180910390f35b34801561065057600080fd5b5061066b6004803603810190610666919061a399565b61184d565b604051610678919061b022565b60405180910390f35b34801561068d57600080fd5b50610696611865565b6040516106a3919061acd2565b60405180910390f35b3480156106b857600080fd5b506106d360048036038101906106ce919061a51a565b61194c565b005b3480156106e157600080fd5b506106ea6119c0565b6040516106f7919061ac0e565b60405180910390f35b34801561070c57600080fd5b50610715611a4e565b604051610722919061ac66565b60405180910390f35b34801561073757600080fd5b50610752600480360381019061074d9190619f43565b611b35565b60405161075f919061ac30565b60405180910390f35b34801561077457600080fd5b5061078f600480360381019061078a9190619f43565b611d8b565b60405161079c919061b022565b60405180910390f35b3480156107b157600080fd5b506107cc60048036038101906107c7919061a399565b612118565b6040516107d9919061b000565b60405180910390f35b3480156107ee57600080fd5b506108096004803603810190610804919061a3eb565b612327565b604051610816919061b022565b60405180910390f35b34801561082b57600080fd5b506108466004803603810190610841919061a399565b612382565b604051610853919061ab33565b60405180910390f35b34801561086857600080fd5b50610883600480360381019061087e919061a020565b6123c1565b005b34801561089157600080fd5b506108ac60048036038101906108a79190619f95565b612525565b005b3480156108ba57600080fd5b506108d560048036038101906108d09190619f43565b612605565b6040516108e2919061b022565b60405180910390f35b3480156108f757600080fd5b50610900612776565b005b34801561090e57600080fd5b506109296004803603810190610924919061a0d7565b612a86565b005b34801561093757600080fd5b50610952600480360381019061094d919061a399565b61300e565b60405161095f919061ac30565b60405180910390f35b34801561097457600080fd5b5061098f600480360381019061098a9190619f43565b61302e565b005b34801561099d57600080fd5b506109b860048036038101906109b3919061a399565b61333c565b6040516109c5919061ac30565b60405180910390f35b3480156109da57600080fd5b506109f560048036038101906109f09190619f43565b61389f565b604051610a02919061b022565b60405180910390f35b348015610a1757600080fd5b50610a206138b7565b005b348015610a2e57600080fd5b50610a37613caf565b604051610a44919061b022565b60405180910390f35b348015610a5957600080fd5b50610a62613cb5565b005b348015610a7057600080fd5b50610a8b6004803603810190610a869190619f43565b613f88565b005b348015610a9957600080fd5b50610ab46004803603810190610aaf9190619fd1565b614141565b005b348015610ac257600080fd5b50610acb614263565b604051610ad8919061b022565b60405180910390f35b348015610aed57600080fd5b50610af6614269565b604051610b03919061ad23565b60405180910390f35b348015610b1857600080fd5b50610b21614350565b005b348015610b2f57600080fd5b50610b3861470c565b604051610b45919061b022565b60405180910390f35b348015610b5a57600080fd5b50610b756004803603810190610b70919061a399565b614712565b604051610b82919061ac30565b60405180910390f35b348015610b9757600080fd5b50610ba0614732565b005b348015610bae57600080fd5b50610bb7614a4a565b604051610bc4919061b022565b60405180910390f35b348015610bd957600080fd5b50610be2614a50565b604051610bef919061ab33565b60405180910390f35b348015610c0457600080fd5b50610c1f6004803603810190610c1a9190619f43565b614a76565b005b348015610c2d57600080fd5b50610c36614d8e565b604051610c43919061acb7565b60405180910390f35b348015610c5857600080fd5b50610c736004803603810190610c6e9190619f43565b614e75565b604051610c80919061ac30565b60405180910390f35b348015610c9557600080fd5b50610cb06004803603810190610cab919061a399565b614e95565b604051610cbd919061b022565b60405180910390f35b348015610cd257600080fd5b50610ced6004803603810190610ce8919061a427565b614ead565b005b348015610cfb57600080fd5b50610d166004803603810190610d11919061a4b7565b614f99565b005b348015610d2457600080fd5b50610d2d615028565b604051610d3a919061ac30565b60405180910390f35b610d5d6004803603810190610d58919061a0d7565b61503b565b604051610d6a919061ac30565b60405180910390f35b348015610d7f57600080fd5b50610d9a6004803603810190610d95919061a0d7565b615520565b005b348015610da857600080fd5b50610db1615804565b005b348015610dbf57600080fd5b50610dc8616034565b604051610dd5919061b022565b60405180910390f35b348015610dea57600080fd5b50610e056004803603810190610e00919061a399565b61603a565b604051610e12919061ab33565b60405180910390f35b348015610e2757600080fd5b50610e426004803603810190610e3d919061a399565b61606d565b005b348015610e5057600080fd5b50610e6b6004803603810190610e66919061a3eb565b6160d1565b604051610e78919061ac30565b60405180910390f35b348015610e8d57600080fd5b50610ea86004803603810190610ea3919061a399565b616139565b604051610eb5919061b022565b60405180910390f35b348015610eca57600080fd5b50610ed3616150565b604051610ee0919061aced565b60405180910390f35b348015610ef557600080fd5b50610efe616237565b604051610f0b919061ac9c565b60405180910390f35b348015610f2057600080fd5b50610f3b6004803603810190610f36919061a399565b61631e565b604051610f48919061ac30565b60405180910390f35b348015610f5d57600080fd5b50610f66616873565b604051610f73919061ac30565b60405180910390f35b348015610f8857600080fd5b50610fa36004803603810190610f9e919061a399565b616a0f565b604051610fb0919061ad3e565b60405180910390f35b348015610fc557600080fd5b50610fce616aaf565b604051610fdb919061ab33565b60405180910390f35b348015610ff057600080fd5b5061100b6004803603810190611006919061a358565b616ad5565b005b34801561101957600080fd5b50611022616b65565b60405161102f919061ac30565b60405180910390f35b34801561104457600080fd5b5061105f600480360381019061105a9190619f43565b616b78565b005b34801561106d57600080fd5b50611076616fe5565b604051611083919061ab33565b60405180910390f35b34801561109857600080fd5b506110a1617009565b6040516110ae919061ac81565b60405180910390f35b3480156110c357600080fd5b506110de60048036038101906110d99190619f43565b6170f0565b6040516110eb919061ac30565b60405180910390f35b34801561110057600080fd5b50611109617110565b604051611116919061b022565b60405180910390f35b600160009054906101000a900473ffffffffffffffffffffffffffffffffffffffff1673ffffffffffffffffffffffffffffffffffffffff163373ffffffffffffffffffffffffffffffffffffffff161461117957600080fd5b6000600160006101000a81548173ffffffffffffffffffffffffffffffffffffffff021916908373ffffffffffffffffffffffffffffffffffffffff160217905550565b601481815481106111cd57600080fd5b906000526020600020016000915054906101000a900473ffffffffffffffffffffffffffffffffffffffff1681565b6000601380549050905090565b6000600160149054906101000a900460ff161561125b576040517f08c379a00000000000000000000000000000000000000000000000000000000081526004016112529061ad80565b60405180910390fd5b600060075490506000601f600083815260200190815260200160002060009054906101000a900460ff1680156112eb57506022600083815260200190815260200160002060003373ffffffffffffffffffffffffffffffffffffffff1673ffffffffffffffffffffffffffffffffffffffff16815260200190815260200160002060009054906101000a900460ff165b905080156112fe576112fc8261711d565b505b60005b845181101561136757611353858281518110611346577f4e487b7100000000000000000000000000000000000000000000000000000000600052603260045260246000fd5b6020026020010151611b35565b50808061135f9061b62b565b915050611301565b5060019250801561137d5761137b8261748b565b505b5050919050565b600960009054906101000a900460ff1681565b60008190506113db816040518060400160405280600381526020017f44414f00000000000000000000000000000000000000000000000000000000008152506177f9565b806114215750611420816040518060400160405280600681526020017f524f5554455200000000000000000000000000000000000000000000000000008152506177f9565b5b806114675750611466816040518060400160405280600581526020017f5554494c530000000000000000000000000000000000000000000000000000008152506177f9565b5b806114ad57506114ac816040518060400160405280600781526020017f52455345525645000000000000000000000000000000000000000000000000008152506177f9565b5b806114f357506114f2816040518060400160405280600781526020017f5245414c495345000000000000000000000000000000000000000000000000008152506177f9565b5b1561156957600073ffffffffffffffffffffffffffffffffffffffff168373ffffffffffffffffffffffffffffffffffffffff161415611568576040517f08c379a000000000000000000000000000000000000000000000000000000000815260040161155f9061af40565b60405180910390fd5b5b60006115736178a4565b905061157d617afd565b5083601a600083815260200190815260200160002060006101000a81548173ffffffffffffffffffffffffffffffffffffffff021916908373ffffffffffffffffffffffffffffffffffffffff16021790555082601b600083815260200190815260200160002090805190602001906115f7929190619b4d565b50803373ffffffffffffffffffffffffffffffffffffffff167f8d500fcad86fc64a281b94ef64d6d66acbfc6862aa4ff2ee5fbbfb40736e803e8560405161163f919061ad3e565b60405180910390a350505050565b60065481565b6000600960009054906101000a900460ff161561171157600960019054906101000a900473ffffffffffffffffffffffffffffffffffffffff1673ffffffffffffffffffffffffffffffffffffffff16632ab24e496040518163ffffffff1660e01b815260040160206040518083038186803b1580156116d257600080fd5b505afa1580156116e6573d6000803e3d6000fd5b505050506040513d601f19601f8201168201806040525081019061170a919061a306565b9050611737565b601160009054906101000a900473ffffffffffffffffffffffffffffffffffffffff1690505b90565b60075481565b601e6020528060005260406000206000915054906101000a900460ff1681565b60045481565b6000600960009054906101000a900460ff161561182457600960019054906101000a900473ffffffffffffffffffffffffffffffffffffffff1673ffffffffffffffffffffffffffffffffffffffff16632f7fa1806040518163ffffffff1660e01b815260040160206040518083038186803b1580156117e557600080fd5b505afa1580156117f9573d6000803e3d6000fd5b505050506040513d601f19601f8201168201806040525081019061181d919061a1e7565b905061184a565b600c60009054906101000a900473ffffffffffffffffffffffffffffffffffffffff1690505b90565b60196020528060005260406000206000915090505481565b6000600960009054906101000a900460ff161561192357600960019054906101000a900473ffffffffffffffffffffffffffffffffffffffff1673ffffffffffffffffffffffffffffffffffffffff166332fe7b266040518163ffffffff1660e01b815260040160206040518083038186803b1580156118e457600080fd5b505afa1580156118f8573d6000803e3d6000fd5b505050506040513d601f19601f8201168201806040525081019061191c919061a2b4565b9050611949565b600a60009054906101000a900473ffffffffffffffffffffffffffffffffffffffff1690505b90565b600160009054906101000a900473ffffffffffffffffffffffffffffffffffffffff1673ffffffffffffffffffffffffffffffffffffffff163373ffffffffffffffffffffffffffffffffffffffff16146119a657600080fd5b826002819055508160048190555080600381905550505050565b60606014805480602002602001604051908101604052809291908181526020018280548015611a4457602002820191906000526020600020905b8160009054906101000a900473ffffffffffffffffffffffffffffffffffffffff1673ffffffffffffffffffffffffffffffffffffffff16815260200190600101908083116119fa575b5050505050905090565b6000600960009054906101000a900460ff1615611b0c57600960019054906101000a900473ffffffffffffffffffffffffffffffffffffffff1673ffffffffffffffffffffffffffffffffffffffff166338da7dd66040518163ffffffff1660e01b815260040160206040518083038186803b158015611acd57600080fd5b505afa158015611ae1573d6000803e3d6000fd5b505050506040513d601f19601f82011682018060405250810190611b05919061a210565b9050611b32565b600d60009054906101000a900473ffffffffffffffffffffffffffffffffffffffff1690505b90565b6000600160149054906101000a900460ff1615611b87576040517f08c379a0000000000000000000000000000000000000000000000000000000008152600401611b7e9061ad80565b60405180910390fd5b6000600e60009054906101000a900473ffffffffffffffffffffffffffffffffffffffff1673ffffffffffffffffffffffffffffffffffffffff1663bbe4f6db846040518263ffffffff1660e01b8152600401611be4919061ab33565b60206040518083038186803b158015611bfc57600080fd5b505afa158015611c10573d6000803e3d6000fd5b505050506040513d601f19601f82011682018060405250810190611c349190619f6c565b90506000600c60009054906101000a900473ffffffffffffffffffffffffffffffffffffffff1673ffffffffffffffffffffffffffffffffffffffff1663ba0ba54f33846040518363ffffffff1660e01b8152600401611c9592919061ab4e565b60206040518083038186803b158015611cad57600080fd5b505afa158015611cc1573d6000803e3d6000fd5b505050506040513d601f19601f82011682018060405250810190611ce5919061a3c2565b90506000811115611d8057600c60009054906101000a900473ffffffffffffffffffffffffffffffffffffffff1673ffffffffffffffffffffffffffffffffffffffff16635bc262be83336040518363ffffffff1660e01b8152600401611d4d92919061ab4e565b600060405180830381600087803b158015611d6757600080fd5b505af1158015611d7b573d6000803e3d6000fd5b505050505b600192505050919050565b6000600160149054906101000a900460ff1615611ddd576040517f08c379a0000000000000000000000000000000000000000000000000000000008152600401611dd49061ad80565b60405180910390fd5b600080600d60009054906101000a900473ffffffffffffffffffffffffffffffffffffffff1673ffffffffffffffffffffffffffffffffffffffff1663a477b804856040518263ffffffff1660e01b8152600401611e3b919061ab33565b604080518083038186803b158015611e5257600080fd5b505afa158015611e66573d6000803e3d6000fd5b505050506040513d601f19601f82011682018060405250810190611e8a919061a47b565b91509150600080600c60009054906101000a900473ffffffffffffffffffffffffffffffffffffffff1673ffffffffffffffffffffffffffffffffffffffff1663a477b804876040518263ffffffff1660e01b8152600401611eec919061ab33565b604080518083038186803b158015611f0357600080fd5b505afa158015611f17573d6000803e3d6000fd5b505050506040513d601f19601f82011682018060405250810190611f3b919061a47b565b9150915060008285611f4d919061b239565b905060008285611f5d919061b239565b905060006004547f000000000000000000000000000000000000000000000000000000000000000073ffffffffffffffffffffffffffffffffffffffff166370a08231601060009054906101000a900473ffffffffffffffffffffffffffffffffffffffff166040518263ffffffff1660e01b8152600401611fdf919061ab33565b60206040518083038186803b158015611ff757600080fd5b505afa15801561200b573d6000803e3d6000fd5b505050506040513d601f19601f8201168201806040525081019061202f919061a3c2565b612039919061b28f565b905060006127106005548361204e919061b2c0565b612058919061b28f565b9050600b60009054906101000a900473ffffffffffffffffffffffffffffffffffffffff1673ffffffffffffffffffffffffffffffffffffffff16631ba326c48585846040518463ffffffff1660e01b81526004016120b99392919061b104565b60206040518083038186803b1580156120d157600080fd5b505afa1580156120e5573d6000803e3d6000fd5b505050506040513d601f19601f82011682018060405250810190612109919061a3c2565b98505050505050505050919050565b612120619bd3565b81816000018181525050601b600083815260200190815260200160002080546121489061b5c8565b80601f01602080910402602001604051908101604052809291908181526020018280546121749061b5c8565b80156121c15780601f10612196576101008083540402835291602001916121c1565b820191906000526020600020905b8154815290600101906020018083116121a457829003601f168201915b50505050508160200181905250601c600083815260200190815260200160002054816060018181525050601d600083815260200190815260200160002060009054906101000a900460ff16816080019015159081151581525050601e600083815260200190815260200160002060009054906101000a900460ff168160a001901515908115158152505060196000838152602001908152602001600020548160c0018181525050601a600083815260200190815260200160002060009054906101000a900473ffffffffffffffffffffffffffffffffffffffff168160e0019073ffffffffffffffffffffffffffffffffffffffff16908173ffffffffffffffffffffffffffffffffffffffff1681525050601f600083815260200190815260200160002060009054906101000a900460ff1681610100019015159081151581525050602060008381526020019081526020016000205481610120018181525050919050565b60006021600084815260200190815260200160002060008373ffffffffffffffffffffffffffffffffffffffff1673ffffffffffffffffffffffffffffffffffffffff16815260200190815260200160002054905092915050565b6013818154811061239257600080fd5b906000526020600020016000915054906101000a900473ffffffffffffffffffffffffffffffffffffffff1681565b600160009054906101000a900473ffffffffffffffffffffffffffffffffffffffff1673ffffffffffffffffffffffffffffffffffffffff163373ffffffffffffffffffffffffffffffffffffffff161461241b57600080fd5b83600a60006101000a81548173ffffffffffffffffffffffffffffffffffffffff021916908373ffffffffffffffffffffffffffffffffffffffff16021790555082600b60006101000a81548173ffffffffffffffffffffffffffffffffffffffff021916908373ffffffffffffffffffffffffffffffffffffffff16021790555081601060006101000a81548173ffffffffffffffffffffffffffffffffffffffff021916908373ffffffffffffffffffffffffffffffffffffffff16021790555080601260006101000a81548173ffffffffffffffffffffffffffffffffffffffff021916908373ffffffffffffffffffffffffffffffffffffffff16021790555050505050565b600160009054906101000a900473ffffffffffffffffffffffffffffffffffffffff1673ffffffffffffffffffffffffffffffffffffffff163373ffffffffffffffffffffffffffffffffffffffff161461257f57600080fd5b81600e60006101000a81548173ffffffffffffffffffffffffffffffffffffffff021916908373ffffffffffffffffffffffffffffffffffffffff16021790555080600f60006101000a81548173ffffffffffffffffffffffffffffffffffffffff021916908373ffffffffffffffffffffffffffffffffffffffff1602179055505050565b6000600160149054906101000a900460ff1615612657576040517f08c379a000000000000000000000000000000000000000000000000000000000815260040161264e9061ad80565b60405180910390fd5b6000601860008473ffffffffffffffffffffffffffffffffffffffff1673ffffffffffffffffffffffffffffffffffffffff16815260200190815260200160002054426126a4919061b31a565b905060006126b184611d8b565b905060007f000000000000000000000000000000000000000000000000000000000000000073ffffffffffffffffffffffffffffffffffffffff16636b92a3b66040518163ffffffff1660e01b815260040160206040518083038186803b15801561271b57600080fd5b505afa15801561272f573d6000803e3d6000fd5b505050506040513d601f19601f82011682018060405250810190612753919061a3c2565b838361275f919061b2c0565b612769919061b28f565b9050809350505050919050565b600160149054906101000a900460ff16156127c6576040517f08c379a00000000000000000000000000000000000000000000000000000000081526004016127bd9061ad80565b60405180910390fd5b601060009054906101000a900473ffffffffffffffffffffffffffffffffffffffff1673ffffffffffffffffffffffffffffffffffffffff16632267716c6040518163ffffffff1660e01b8152600401602060405180830381600087803b15801561283057600080fd5b505af1158015612844573d6000803e3d6000fd5b505050506040513d601f19601f82011682018060405250810190612868919061a195565b6128a7576040517f08c379a000000000000000000000000000000000000000000000000000000000815260040161289e9061ae20565b60405180910390fd5b60006128b233612605565b905042601860003373ffffffffffffffffffffffffffffffffffffffff1673ffffffffffffffffffffffffffffffffffffffff1681526020019081526020016000208190555060007f000000000000000000000000000000000000000000000000000000000000000073ffffffffffffffffffffffffffffffffffffffff166370a08231601060009054906101000a900473ffffffffffffffffffffffffffffffffffffffff166040518263ffffffff1660e01b8152600401612975919061ab33565b60206040518083038186803b15801561298d57600080fd5b505afa1580156129a1573d6000803e3d6000fd5b505050506040513d601f19601f820116820180604052508101906129c5919061a3c2565b90506000612710600554836129da919061b2c0565b6129e4919061b28f565b9050808311156129f2578092505b601060009054906101000a900473ffffffffffffffffffffffffffffffffffffffff1673ffffffffffffffffffffffffffffffffffffffff16637d458baa84336040518363ffffffff1660e01b8152600401612a4f92919061b03d565b600060405180830381600087803b158015612a6957600080fd5b505af1158015612a7d573d6000803e3d6000fd5b50505050505050565b600160149054906101000a900460ff1615612ad6576040517f08c379a0000000000000000000000000000000000000000000000000000000008152600401612acd9061ad80565b60405180910390fd5b600060075490506000601f600083815260200190815260200160002060009054906101000a900460ff168015612b6657506022600083815260200190815260200160002060003373ffffffffffffffffffffffffffffffffffffffff1673ffffffffffffffffffffffffffffffffffffffff16815260200190815260200160002060009054906101000a900460ff165b90508015612b7957612b778261711d565b505b60011515600e60009054906101000a900473ffffffffffffffffffffffffffffffffffffffff1673ffffffffffffffffffffffffffffffffffffffff16638dcb4c93866040518263ffffffff1660e01b8152600401612bd8919061ab33565b60206040518083038186803b158015612bf057600080fd5b505afa158015612c04573d6000803e3d6000fd5b505050506040513d601f19601f82011682018060405250810190612c28919061a195565b151514612c6a576040517f08c379a0000000000000000000000000000000000000000000000000000000008152600401612c619061aec0565b60405180910390fd5b60008311612cad576040517f08c379a0000000000000000000000000000000000000000000000000000000008152600401612ca49061af20565b60405180910390fd5b60011515601660003373ffffffffffffffffffffffffffffffffffffffff1673ffffffffffffffffffffffffffffffffffffffff16815260200190815260200160002060009054906101000a900460ff16151514612dc1576013339080600181540180825580915050600190039060005260206000200160009091909190916101000a81548173ffffffffffffffffffffffffffffffffffffffff021916908373ffffffffffffffffffffffffffffffffffffffff1602179055506001601660003373ffffffffffffffffffffffffffffffffffffffff1673ffffffffffffffffffffffffffffffffffffffff16815260200190815260200160002060006101000a81548160ff0219169083151502179055505b8373ffffffffffffffffffffffffffffffffffffffff166323b872dd33600d60009054906101000a900473ffffffffffffffffffffffffffffffffffffffff16866040518463ffffffff1660e01b8152600401612e209392919061ab77565b602060405180830381600087803b158015612e3a57600080fd5b505af1158015612e4e573d6000803e3d6000fd5b505050506040513d601f19601f82011682018060405250810190612e72919061a195565b612eb1576040517f08c379a0000000000000000000000000000000000000000000000000000000008152600401612ea89061aee0565b60405180910390fd5b600d60009054906101000a900473ffffffffffffffffffffffffffffffffffffffff1673ffffffffffffffffffffffffffffffffffffffff166346dafa2f8585336040518463ffffffff1660e01b8152600401612f109392919061abd7565b600060405180830381600087803b158015612f2a57600080fd5b505af1158015612f3e573d6000803e3d6000fd5b50505050603c42612f4f919061b239565b601860003373ffffffffffffffffffffffffffffffffffffffff1673ffffffffffffffffffffffffffffffffffffffff168152602001908152602001600020819055508373ffffffffffffffffffffffffffffffffffffffff163373ffffffffffffffffffffffffffffffffffffffff167f5f9b5a75581a29d72b32414a5df7f1ef124b7787b38616fb8fdcad76179127c285604051612fef919061b022565b60405180910390a38015613008576130068261748b565b505b50505050565b601d6020528060005260406000206000915054906101000a900460ff1681565b600160149054906101000a900460ff161561307e576040517f08c379a00000000000000000000000000000000000000000000000000000000081526004016130759061ad80565b60405180910390fd5b600060075490506000601f600083815260200190815260200160002060009054906101000a900460ff16801561310e57506022600083815260200190815260200160002060003373ffffffffffffffffffffffffffffffffffffffff1673ffffffffffffffffffffffffffffffffffffffff16815260200190815260200160002060009054906101000a900460ff165b905080156131215761311f8261711d565b505b6000600d60009054906101000a900473ffffffffffffffffffffffffffffffffffffffff1673ffffffffffffffffffffffffffffffffffffffff1663aa9fd37433866040518363ffffffff1660e01b815260040161318092919061ab4e565b60206040518083038186803b15801561319857600080fd5b505afa1580156131ac573d6000803e3d6000fd5b505050506040513d601f19601f820116820180604052508101906131d0919061a3c2565b9050600d60009054906101000a900473ffffffffffffffffffffffffffffffffffffffff1673ffffffffffffffffffffffffffffffffffffffff1663f940e38585336040518363ffffffff1660e01b815260040161322f92919061ab4e565b602060405180830381600087803b15801561324957600080fd5b505af115801561325d573d6000803e3d6000fd5b505050506040513d601f19601f82011682018060405250810190613281919061a195565b6132c0576040517f08c379a00000000000000000000000000000000000000000000000000000000081526004016132b79061aee0565b60405180910390fd5b8373ffffffffffffffffffffffffffffffffffffffff163373ffffffffffffffffffffffffffffffffffffffff167f12dcb5d4117cb4675d56c72f030db8f0f4dd34f875fe484eea4cf0790b5deaa38360405161331d919061b022565b60405180910390a3508015613337576133358261748b565b505b505050565b600080600e60009054906101000a900473ffffffffffffffffffffffffffffffffffffffff1673ffffffffffffffffffffffffffffffffffffffff1663abc764da6040518163ffffffff1660e01b815260040160006040518083038186803b1580156133a757600080fd5b505afa1580156133bb573d6000803e3d6000fd5b505050506040513d6000823e3d601f19601f820116820180604052508101906133e4919061a154565b905060008060005b8351811015613871576000600c60009054906101000a900473ffffffffffffffffffffffffffffffffffffffff1673ffffffffffffffffffffffffffffffffffffffff166389bbd67086848151811061346e577f4e487b7100000000000000000000000000000000000000000000000000000000600052603260045260246000fd5b60200260200101516040518263ffffffff1660e01b8152600401613492919061ab33565b60206040518083038186803b1580156134aa57600080fd5b505afa1580156134be573d6000803e3d6000fd5b505050506040513d601f19601f820116820180604052508101906134e2919061a3c2565b600d60009054906101000a900473ffffffffffffffffffffffffffffffffffffffff1673ffffffffffffffffffffffffffffffffffffffff166389bbd670878581518110613559577f4e487b7100000000000000000000000000000000000000000000000000000000600052603260045260246000fd5b60200260200101516040518263ffffffff1660e01b815260040161357d919061ab33565b60206040518083038186803b15801561359557600080fd5b505afa1580156135a9573d6000803e3d6000fd5b505050506040513d601f19601f820116820180604052508101906135cd919061a3c2565b6135d7919061b239565b9050600b60009054906101000a900473ffffffffffffffffffffffffffffffffffffffff1673ffffffffffffffffffffffffffffffffffffffff1663ca2e5b65868481518110613650577f4e487b7100000000000000000000000000000000000000000000000000000000600052603260045260246000fd5b6020026020010151602160008b815260200190815260200160002060008987815181106136a6577f4e487b7100000000000000000000000000000000000000000000000000000000600052603260045260246000fd5b602002602001015173ffffffffffffffffffffffffffffffffffffffff1673ffffffffffffffffffffffffffffffffffffffff168152602001908152602001600020546040518363ffffffff1660e01b815260040161370692919061abae565b60206040518083038186803b15801561371e57600080fd5b505afa158015613732573d6000803e3d6000fd5b505050506040513d601f19601f82011682018060405250810190613756919061a3c2565b84613761919061b239565b9350600b60009054906101000a900473ffffffffffffffffffffffffffffffffffffffff1673ffffffffffffffffffffffffffffffffffffffff1663ca2e5b658684815181106137da577f4e487b7100000000000000000000000000000000000000000000000000000000600052603260045260246000fd5b6020026020010151836040518363ffffffff1660e01b815260040161380092919061abae565b60206040518083038186803b15801561381857600080fd5b505afa15801561382c573d6000803e3d6000fd5b505050506040513d601f19601f82011682018060405250810190613850919061a3c2565b8361385b919061b239565b92505080806138699061b62b565b9150506133ec565b50600061271060035483613885919061b2c0565b61388f919061b28f565b9050808311945050505050919050565b60186020528060005260406000206000915090505481565b600160149054906101000a900460ff1615613907576040517f08c379a00000000000000000000000000000000000000000000000000000000081526004016138fe9061ad80565b60405180910390fd5b6000600754905060011515601f600083815260200190815260200160002060009054906101000a900460ff16151514613975576040517f08c379a000000000000000000000000000000000000000000000000000000000815260040161396c9061af80565b60405180910390fd5b6000601b600083815260200190815260200160002080546139959061b5c8565b80601f01602080910402602001604051908101604052809291908181526020018280546139c19061b5c8565b8015613a0e5780601f106139e357610100808354040283529160200191613a0e565b820191906000526020600020905b8154815290600101906020018083116139f157829003601f168201915b50505050509050613a1e8261631e565b8015613a4e575060001515601d600084815260200190815260200160002060009054906101000a900460ff161515145b15613cab57613a92816040518060400160405280600381526020017f44414f00000000000000000000000000000000000000000000000000000000008152506177f9565b80613ad85750613ad7816040518060400160405280600581526020017f5554494c530000000000000000000000000000000000000000000000000000008152506177f9565b5b80613b1e5750613b1d816040518060400160405280600781526020017f52455345525645000000000000000000000000000000000000000000000000008152506177f9565b5b80613b645750613b63816040518060400160405280600a81526020017f4745545f535041525441000000000000000000000000000000000000000000008152506177f9565b5b80613baa5750613ba9816040518060400160405280600681526020017f524f5554455200000000000000000000000000000000000000000000000000008152506177f9565b5b80613bf05750613bef816040518060400160405280600981526020017f4c4953545f424f4e4400000000000000000000000000000000000000000000008152506177f9565b5b80613c365750613c35816040518060400160405280600581526020017f4752414e540000000000000000000000000000000000000000000000000000008152506177f9565b5b80613c7c5750613c7b816040518060400160405280601081526020017f4144445f435552415445445f504f4f4c000000000000000000000000000000008152506177f9565b5b15613c9f57613c8a8261333c565b15613c9a57613c998282617c2b565b5b613caa565b613ca98282617c2b565b5b5b5050565b60155481565b600160149054906101000a900460ff1615613d05576040517f08c379a0000000000000000000000000000000000000000000000000000000008152600401613cfc9061ad80565b60405180910390fd5b6000600754905060011515601f600083815260200190815260200160002060009054906101000a900460ff16151514613d73576040517f08c379a0000000000000000000000000000000000000000000000000000000008152600401613d6a9061af80565b60405180910390fd5b600115156022600083815260200190815260200160002060003373ffffffffffffffffffffffffffffffffffffffff1673ffffffffffffffffffffffffffffffffffffffff16815260200190815260200160002060009054906101000a900460ff16151514613e17576040517f08c379a0000000000000000000000000000000000000000000000000000000008152600401613e0e9061aea0565b60405180910390fd5b6000601b60008381526020019081526020016000208054613e379061b5c8565b80601f0160208091040260200160405190810160405280929190818152602001828054613e639061b5c8565b8015613eb05780601f10613e8557610100808354040283529160200191613eb0565b820191906000526020600020905b815481529060010190602001808311613e9357829003601f168201915b505050505090506000613ec28361711d565b905060006022600085815260200190815260200160002060003373ffffffffffffffffffffffffffffffffffffffff1673ffffffffffffffffffffffffffffffffffffffff16815260200190815260200160002060006101000a81548160ff0219169083151502179055508015613f8357823373ffffffffffffffffffffffffffffffffffffffff167fc47bced501ad257962522a3fba16532ae8ccbbe97f400da0bd120fc1b7443e1984604051613f7a919061ad3e565b60405180910390a35b505050565b600160009054906101000a900473ffffffffffffffffffffffffffffffffffffffff1673ffffffffffffffffffffffffffffffffffffffff163373ffffffffffffffffffffffffffffffffffffffff1614613fe257600080fd5b60007f000000000000000000000000000000000000000000000000000000000000000073ffffffffffffffffffffffffffffffffffffffff166370a08231306040518263ffffffff1660e01b815260040161403d919061ab33565b60206040518083038186803b15801561405557600080fd5b505afa158015614069573d6000803e3d6000fd5b505050506040513d601f19601f8201168201806040525081019061408d919061a3c2565b90507f000000000000000000000000000000000000000000000000000000000000000073ffffffffffffffffffffffffffffffffffffffff1663a9059cbb83836040518363ffffffff1660e01b81526004016140ea92919061abae565b602060405180830381600087803b15801561410457600080fd5b505af1158015614118573d6000803e3d6000fd5b505050506040513d601f19601f8201168201806040525081019061413c919061a195565b505050565b600160009054906101000a900473ffffffffffffffffffffffffffffffffffffffff1673ffffffffffffffffffffffffffffffffffffffff163373ffffffffffffffffffffffffffffffffffffffff161461419b57600080fd5b82600d60006101000a81548173ffffffffffffffffffffffffffffffffffffffff021916908373ffffffffffffffffffffffffffffffffffffffff16021790555081600c60006101000a81548173ffffffffffffffffffffffffffffffffffffffff021916908373ffffffffffffffffffffffffffffffffffffffff16021790555080601160006101000a81548173ffffffffffffffffffffffffffffffffffffffff021916908373ffffffffffffffffffffffffffffffffffffffff160217905550505050565b60055481565b6000600960009054906101000a900460ff161561432757600960019054906101000a900473ffffffffffffffffffffffffffffffffffffffff1673ffffffffffffffffffffffffffffffffffffffff16637b0e5c456040518163ffffffff1660e01b815260040160206040518083038186803b1580156142e857600080fd5b505afa1580156142fc573d6000803e3d6000fd5b505050506040513d601f19601f82011682018060405250810190614320919061a32f565b905061434d565b600b60009054906101000a900473ffffffffffffffffffffffffffffffffffffffff1690505b90565b600160149054906101000a900460ff16156143a0576040517f08c379a00000000000000000000000000000000000000000000000000000000081526004016143979061ad80565b60405180910390fd5b60011515601060009054906101000a900473ffffffffffffffffffffffffffffffffffffffff1673ffffffffffffffffffffffffffffffffffffffff1663194e22ce6040518163ffffffff1660e01b8152600401602060405180830381600087803b15801561440e57600080fd5b505af1158015614422573d6000803e3d6000fd5b505050506040513d601f19601f82011682018060405250810190614446919061a195565b15151415614489576040517f08c379a00000000000000000000000000000000000000000000000000000000081526004016144809061af60565b60405180910390fd5b6000600754905060011515601f600083815260200190815260200160002060009054906101000a900460ff161515146144f7576040517f08c379a00000000000000000000000000000000000000000000000000000000081526004016144ee9061af80565b60405180910390fd5b600015156022600083815260200190815260200160002060003373ffffffffffffffffffffffffffffffffffffffff1673ffffffffffffffffffffffffffffffffffffffff16815260200190815260200160002060009054906101000a900460ff1615151461459b576040517f08c379a00000000000000000000000000000000000000000000000000000000081526004016145929061ade0565b60405180910390fd5b6000601b600083815260200190815260200160002080546145bb9061b5c8565b80601f01602080910402602001604051908101604052809291908181526020018280546145e79061b5c8565b80156146345780601f1061460957610100808354040283529160200191614634565b820191906000526020600020905b81548152906001019060200180831161461757829003601f168201915b5050505050905060006146468361748b565b905060016022600085815260200190815260200160002060003373ffffffffffffffffffffffffffffffffffffffff1673ffffffffffffffffffffffffffffffffffffffff16815260200190815260200160002060006101000a81548160ff021916908315150217905550801561470757823373ffffffffffffffffffffffffffffffffffffffff167ff3bb4a59f9a41b07650fa6eb0aaaf8f6e78fe9a712e0c0989ee060358403a89c846040516146fe919061ad3e565b60405180910390a35b505050565b60085481565b601f6020528060005260406000206000915054906101000a900460ff1681565b600160149054906101000a900460ff1615614782576040517f08c379a00000000000000000000000000000000000000000000000000000000081526004016147799061ad80565b60405180910390fd5b60006007549050601f600082815260200190815260200160002060009054906101000a900460ff166147e9576040517f08c379a00000000000000000000000000000000000000000000000000000000081526004016147e09061ae00565b60405180910390fd5b600854602060008381526020019081526020016000205461480a919061b239565b421161484b576040517f08c379a00000000000000000000000000000000000000000000000000000000081526004016148429061afc0565b60405180910390fd5b6000600e60009054906101000a900473ffffffffffffffffffffffffffffffffffffffff1673ffffffffffffffffffffffffffffffffffffffff1663abc764da6040518163ffffffff1660e01b815260040160006040518083038186803b1580156148b557600080fd5b505afa1580156148c9573d6000803e3d6000fd5b505050506040513d6000823e3d601f19601f820116820180604052508101906148f2919061a154565b905060005b81518110156149a9576000602160008581526020019081526020016000206000848481518110614950577f4e487b7100000000000000000000000000000000000000000000000000000000600052603260045260246000fd5b602002602001015173ffffffffffffffffffffffffffffffffffffffff1673ffffffffffffffffffffffffffffffffffffffff1681526020019081526020016000208190555080806149a19061b62b565b9150506148f7565b506000601d600084815260200190815260200160002060006101000a81548160ff0219169083151502179055506000601f600084815260200190815260200160002060006101000a81548160ff021916908315150217905550813373ffffffffffffffffffffffffffffffffffffffff167f6b4f340ccba70b829531b22cfbc4ad2defb3beac09f6149d584fe1031dedbf7c60405160405180910390a35050565b60035481565b600960019054906101000a900473ffffffffffffffffffffffffffffffffffffffff1681565b600160009054906101000a900473ffffffffffffffffffffffffffffffffffffffff1673ffffffffffffffffffffffffffffffffffffffff163373ffffffffffffffffffffffffffffffffffffffff1614614ad057600080fd5b60001515601f6000600754815260200190815260200160002060009054906101000a900460ff16151514614b39576040517f08c379a0000000000000000000000000000000000000000000000000000000008152600401614b309061afe0565b60405180910390fd5b6000600e60009054906101000a900473ffffffffffffffffffffffffffffffffffffffff1673ffffffffffffffffffffffffffffffffffffffff1663bbe4f6db836040518263ffffffff1660e01b8152600401614b96919061ab33565b60206040518083038186803b158015614bae57600080fd5b505afa158015614bc2573d6000803e3d6000fd5b505050506040513d601f19601f82011682018060405250810190614be69190619f6c565b9050601760008273ffffffffffffffffffffffffffffffffffffffff1673ffffffffffffffffffffffffffffffffffffffff16815260200190815260200160002060009054906101000a900460ff1615614c75576040517f08c379a0000000000000000000000000000000000000000000000000000000008152600401614c6c9061ae60565b60405180910390fd5b6001601760008373ffffffffffffffffffffffffffffffffffffffff1673ffffffffffffffffffffffffffffffffffffffff16815260200190815260200160002060006101000a81548160ff0219169083151502179055506014819080600181540180825580915050600190039060005260206000200160009091909190916101000a81548173ffffffffffffffffffffffffffffffffffffffff021916908373ffffffffffffffffffffffffffffffffffffffff1602179055508173ffffffffffffffffffffffffffffffffffffffff163373ffffffffffffffffffffffffffffffffffffffff167fa2c962e87fd75165c1496c9ea420ddb0231e124bf2625a77f828287c8050006860405160405180910390a35050565b6000600960009054906101000a900460ff1615614e4c57600960019054906101000a900473ffffffffffffffffffffffffffffffffffffffff1673ffffffffffffffffffffffffffffffffffffffff16639d2cc4366040518163ffffffff1660e01b815260040160206040518083038186803b158015614e0d57600080fd5b505afa158015614e21573d6000803e3d6000fd5b505050506040513d601f19601f82011682018060405250810190614e45919061a28b565b9050614e72565b601060009054906101000a900473ffffffffffffffffffffffffffffffffffffffff1690505b90565b60166020528060005260406000206000915054906101000a900460ff1681565b601c6020528060005260406000206000915090505481565b60008211614ef0576040517f08c379a0000000000000000000000000000000000000000000000000000000008152600401614ee79061af00565b60405180910390fd5b6000614efa6178a4565b9050614f04617afd565b5082601960008381526020019081526020016000208190555081601b60008381526020019081526020016000209080519060200190614f44929190619b4d565b50803373ffffffffffffffffffffffffffffffffffffffff167f8d500fcad86fc64a281b94ef64d6d66acbfc6862aa4ff2ee5fbbfb40736e803e84604051614f8c919061ad3e565b60405180910390a3505050565b600160009054906101000a900473ffffffffffffffffffffffffffffffffffffffff1673ffffffffffffffffffffffffffffffffffffffff163373ffffffffffffffffffffffffffffffffffffffff1614614ff357600080fd5b836005819055508260068190555081600160156101000a81548160ff0219169083151502179055508060088190555050505050565b600160149054906101000a900460ff1681565b6000600160149054906101000a900460ff161561508d576040517f08c379a00000000000000000000000000000000000000000000000000000000081526004016150849061ad80565b60405180910390fd5b600060075490506000601f600083815260200190815260200160002060009054906101000a900460ff16801561511d57506022600083815260200190815260200160002060003373ffffffffffffffffffffffffffffffffffffffff1673ffffffffffffffffffffffffffffffffffffffff16815260200190815260200160002060009054906101000a900460ff165b905080156151305761512e8261711d565b505b60008411615173576040517f08c379a000000000000000000000000000000000000000000000000000000000815260040161516a9061af20565b60405180910390fd5b6000600e60009054906101000a900473ffffffffffffffffffffffffffffffffffffffff1673ffffffffffffffffffffffffffffffffffffffff1663bbe4f6db876040518263ffffffff1660e01b81526004016151d0919061ab33565b60206040518083038186803b1580156151e857600080fd5b505afa1580156151fc573d6000803e3d6000fd5b505050506040513d601f19601f820116820180604052508101906152209190619f6c565b9050601760008273ffffffffffffffffffffffffffffffffffffffff1673ffffffffffffffffffffffffffffffffffffffff16815260200190815260200160002060009054906101000a900460ff166152ae576040517f08c379a00000000000000000000000000000000000000000000000000000000081526004016152a59061ad60565b60405180910390fd5b60011515601660003373ffffffffffffffffffffffffffffffffffffffff1673ffffffffffffffffffffffffffffffffffffffff16815260200190815260200160002060009054906101000a900460ff161515146153c2576013339080600181540180825580915050600190039060005260206000200160009091909190916101000a81548173ffffffffffffffffffffffffffffffffffffffff021916908373ffffffffffffffffffffffffffffffffffffffff1602179055506001601660003373ffffffffffffffffffffffffffffffffffffffff1673ffffffffffffffffffffffffffffffffffffffff16815260200190815260200160002060006101000a81548160ff0219169083151502179055505b60006153ce8787617cd1565b9050603c426153dd919061b239565b601860003373ffffffffffffffffffffffffffffffffffffffff1673ffffffffffffffffffffffffffffffffffffffff16815260200190815260200160002081905550600c60009054906101000a900473ffffffffffffffffffffffffffffffffffffffff1673ffffffffffffffffffffffffffffffffffffffff1663bf58d0ef8333846040518463ffffffff1660e01b815260040161547f9392919061ab77565b600060405180830381600087803b15801561549957600080fd5b505af11580156154ad573d6000803e3d6000fd5b505050503373ffffffffffffffffffffffffffffffffffffffff167fe4dd259ab128527fe8b5fdae0b44bda8db95a4de10b999d63dce142b1eb88d5487836040516154f992919061b096565b60405180910390a26001945050508015615518576155168261748b565b505b505092915050565b600073ffffffffffffffffffffffffffffffffffffffff168273ffffffffffffffffffffffffffffffffffffffff161415615590576040517f08c379a00000000000000000000000000000000000000000000000000000000081526004016155879061af40565b60405180910390fd5b60007f000000000000000000000000000000000000000000000000000000000000000073ffffffffffffffffffffffffffffffffffffffff166370a08231601060009054906101000a900473ffffffffffffffffffffffffffffffffffffffff166040518263ffffffff1660e01b815260040161560d919061ab33565b60206040518083038186803b15801561562557600080fd5b505afa158015615639573d6000803e3d6000fd5b505050506040513d601f19601f8201168201806040525081019061565d919061a3c2565b9050600061271060055483615672919061b2c0565b61567c919061b28f565b905060008311801561568d57508083105b6156cc576040517f08c379a00000000000000000000000000000000000000000000000000000000081526004016156c39061adc0565b60405180910390fd5b60006156d66178a4565b90506156e0617afd565b5060006040518060400160405280600581526020017f4752414e54000000000000000000000000000000000000000000000000000000815250905080601b60008481526020019081526020016000209080519060200190615742929190619b4d565b5085601a600084815260200190815260200160002060006101000a81548173ffffffffffffffffffffffffffffffffffffffff021916908373ffffffffffffffffffffffffffffffffffffffff160217905550846019600084815260200190815260200160002081905550813373ffffffffffffffffffffffffffffffffffffffff167f8d500fcad86fc64a281b94ef64d6d66acbfc6862aa4ff2ee5fbbfb40736e803e836040516157f4919061ad3e565b60405180910390a3505050505050565b600160149054906101000a900460ff1615615854576040517f08c379a000000000000000000000000000000000000000000000000000000000815260040161584b9061ad80565b60405180910390fd5b600160159054906101000a900460ff166158a3576040517f08c379a000000000000000000000000000000000000000000000000000000000815260040161589a9061ada0565b60405180910390fd5b60011515601060009054906101000a900473ffffffffffffffffffffffffffffffffffffffff1673ffffffffffffffffffffffffffffffffffffffff1663194e22ce6040518163ffffffff1660e01b8152600401602060405180830381600087803b15801561591157600080fd5b505af1158015615925573d6000803e3d6000fd5b505050506040513d601f19601f82011682018060405250810190615949919061a195565b1515141561598c576040517f08c379a00000000000000000000000000000000000000000000000000000000081526004016159839061af60565b60405180910390fd5b60006007549050600254601c600083815260200190815260200160002054426159b5919061b31a565b116159f5576040517f08c379a00000000000000000000000000000000000000000000000000000000081526004016159ec9061ae40565b60405180910390fd5b60011515601d600083815260200190815260200160002060009054906101000a900460ff16151514615a5c576040517f08c379a0000000000000000000000000000000000000000000000000000000008152600401615a539061ae80565b60405180910390fd5b60011515601f600083815260200190815260200160002060009054906101000a900460ff16151514615a8d57600080fd5b60001515601e600083815260200190815260200160002060009054906101000a900460ff16151514615abe57600080fd5b615ac78161631e565b615afc576000601d600083815260200190815260200160002060006101000a81548160ff021916908315150217905550616031565b6000601b60008381526020019081526020016000208054615b1c9061b5c8565b80601f0160208091040260200160405190810160405280929190818152602001828054615b489061b5c8565b8015615b955780601f10615b6a57610100808354040283529160200191615b95565b820191906000526020600020905b815481529060010190602001808311615b7857829003601f168201915b50505050509050615bdb816040518060400160405280600381526020017f44414f00000000000000000000000000000000000000000000000000000000008152506177f9565b15615bee57615be982618650565b61602f565b615c2d816040518060400160405280600681526020017f524f5554455200000000000000000000000000000000000000000000000000008152506177f9565b15615c4057615c3b8261877c565b61602e565b615c7f816040518060400160405280600581526020017f5554494c530000000000000000000000000000000000000000000000000000008152506177f9565b15615c9257615c8d82618802565b61602d565b615cd1816040518060400160405280600781526020017f52455345525645000000000000000000000000000000000000000000000000008152506177f9565b15615ce457615cdf82618888565b61602c565b615d23816040518060400160405280600e81526020017f464c49505f454d495353494f4e530000000000000000000000000000000000008152506177f9565b15615d3657615d3182618a6d565b61602b565b615d75816040518060400160405280600881526020017f434f4f4c5f4f46460000000000000000000000000000000000000000000000008152506177f9565b15615d8857615d8382618af9565b61602a565b615dc7816040518060400160405280600c81526020017f455241535f544f5f4541524e00000000000000000000000000000000000000008152506177f9565b15615dda57615dd582618b25565b616029565b615e19816040518060400160405280600581526020017f4752414e540000000000000000000000000000000000000000000000000000008152506177f9565b15615e2c57615e2782618b51565b616028565b615e6b816040518060400160405280600a81526020017f4745545f535041525441000000000000000000000000000000000000000000008152506177f9565b15615e7e57615e7982618c3e565b616027565b615ebd816040518060400160405280600981526020017f4c4953545f424f4e4400000000000000000000000000000000000000000000008152506177f9565b15615ed057615ecb82618ce8565b616026565b615f0f816040518060400160405280600b81526020017f44454c4953545f424f4e440000000000000000000000000000000000000000008152506177f9565b15615f2257615f1d82618f44565b616025565b615f61816040518060400160405280601081526020017f4144445f435552415445445f504f4f4c000000000000000000000000000000008152506177f9565b15615f7457615f6f82619360565b616024565b615fb3816040518060400160405280601381526020017f52454d4f56455f435552415445445f504f4f4c000000000000000000000000008152506177f9565b15615fc657615fc182619432565b616023565b616005816040518060400160405280600781526020017f5245414c495345000000000000000000000000000000000000000000000000008152506177f9565b1561601857616013826197d1565b616022565b61602182619876565b5b5b5b5b5b5b5b5b5b5b5b5b5b5b505b50565b60025481565b601a6020528060005260406000206000915054906101000a900473ffffffffffffffffffffffffffffffffffffffff1681565b600160009054906101000a900473ffffffffffffffffffffffffffffffffffffffff1673ffffffffffffffffffffffffffffffffffffffff163373ffffffffffffffffffffffffffffffffffffffff16146160c757600080fd5b8060158190555050565b60006022600084815260200190815260200160002060008373ffffffffffffffffffffffffffffffffffffffff1673ffffffffffffffffffffffffffffffffffffffff16815260200190815260200160002060009054906101000a900460ff16905092915050565b602080528060005260406000206000915090505481565b6000600960009054906101000a900460ff161561620e57600960019054906101000a900473ffffffffffffffffffffffffffffffffffffffff1673ffffffffffffffffffffffffffffffffffffffff1663b93ec54b6040518163ffffffff1660e01b815260040160206040518083038186803b1580156161cf57600080fd5b505afa1580156161e3573d6000803e3d6000fd5b505050506040513d601f19601f82011682018060405250810190616207919061a2dd565b9050616234565b600f60009054906101000a900473ffffffffffffffffffffffffffffffffffffffff1690505b90565b6000600960009054906101000a900460ff16156162f557600960019054906101000a900473ffffffffffffffffffffffffffffffffffffffff1673ffffffffffffffffffffffffffffffffffffffff1663b99b0a0c6040518163ffffffff1660e01b815260040160206040518083038186803b1580156162b657600080fd5b505afa1580156162ca573d6000803e3d6000fd5b505050506040513d601f19601f820116820180604052508101906162ee919061a262565b905061631b565b600e60009054906101000a900473ffffffffffffffffffffffffffffffffffffffff1690505b90565b600080600e60009054906101000a900473ffffffffffffffffffffffffffffffffffffffff1673ffffffffffffffffffffffffffffffffffffffff1663abc764da6040518163ffffffff1660e01b815260040160006040518083038186803b15801561638957600080fd5b505afa15801561639d573d6000803e3d6000fd5b505050506040513d6000823e3d601f19601f820116820180604052508101906163c6919061a154565b905060008060005b8351811015616853576000600c60009054906101000a900473ffffffffffffffffffffffffffffffffffffffff1673ffffffffffffffffffffffffffffffffffffffff166389bbd670868481518110616450577f4e487b7100000000000000000000000000000000000000000000000000000000600052603260045260246000fd5b60200260200101516040518263ffffffff1660e01b8152600401616474919061ab33565b60206040518083038186803b15801561648c57600080fd5b505afa1580156164a0573d6000803e3d6000fd5b505050506040513d601f19601f820116820180604052508101906164c4919061a3c2565b600d60009054906101000a900473ffffffffffffffffffffffffffffffffffffffff1673ffffffffffffffffffffffffffffffffffffffff166389bbd67087858151811061653b577f4e487b7100000000000000000000000000000000000000000000000000000000600052603260045260246000fd5b60200260200101516040518263ffffffff1660e01b815260040161655f919061ab33565b60206040518083038186803b15801561657757600080fd5b505afa15801561658b573d6000803e3d6000fd5b505050506040513d601f19601f820116820180604052508101906165af919061a3c2565b6165b9919061b239565b9050600b60009054906101000a900473ffffffffffffffffffffffffffffffffffffffff1673ffffffffffffffffffffffffffffffffffffffff1663ca2e5b65868481518110616632577f4e487b7100000000000000000000000000000000000000000000000000000000600052603260045260246000fd5b6020026020010151602160008b81526020019081526020016000206000898781518110616688577f4e487b7100000000000000000000000000000000000000000000000000000000600052603260045260246000fd5b602002602001015173ffffffffffffffffffffffffffffffffffffffff1673ffffffffffffffffffffffffffffffffffffffff168152602001908152602001600020546040518363ffffffff1660e01b81526004016166e892919061abae565b60206040518083038186803b15801561670057600080fd5b505afa158015616714573d6000803e3d6000fd5b505050506040513d601f19601f82011682018060405250810190616738919061a3c2565b84616743919061b239565b9350600b60009054906101000a900473ffffffffffffffffffffffffffffffffffffffff1673ffffffffffffffffffffffffffffffffffffffff1663ca2e5b658684815181106167bc577f4e487b7100000000000000000000000000000000000000000000000000000000600052603260045260246000fd5b6020026020010151836040518363ffffffff1660e01b81526004016167e292919061abae565b60206040518083038186803b1580156167fa57600080fd5b505afa15801561680e573d6000803e3d6000fd5b505050506040513d601f19601f82011682018060405250810190616832919061a3c2565b8361683d919061b239565b925050808061684b9061b62b565b9150506163ce565b506000600282616863919061b28f565b9050808311945050505050919050565b6000600160009054906101000a900473ffffffffffffffffffffffffffffffffffffffff1673ffffffffffffffffffffffffffffffffffffffff163373ffffffffffffffffffffffffffffffffffffffff16146168cf57600080fd5b60007f000000000000000000000000000000000000000000000000000000000000000073ffffffffffffffffffffffffffffffffffffffff166370a08231306040518263ffffffff1660e01b815260040161692a919061ab33565b60206040518083038186803b15801561694257600080fd5b505afa158015616956573d6000803e3d6000fd5b505050506040513d601f19601f8201168201806040525081019061697a919061a3c2565b90507f000000000000000000000000000000000000000000000000000000000000000073ffffffffffffffffffffffffffffffffffffffff166342966c68826040518263ffffffff1660e01b81526004016169d5919061b022565b600060405180830381600087803b1580156169ef57600080fd5b505af1158015616a03573d6000803e3d6000fd5b50505050600191505090565b601b6020528060005260406000206000915090508054616a2e9061b5c8565b80601f0160208091040260200160405190810160405280929190818152602001828054616a5a9061b5c8565b8015616aa75780601f10616a7c57610100808354040283529160200191616aa7565b820191906000526020600020905b815481529060010190602001808311616a8a57829003601f168201915b505050505081565b600160009054906101000a900473ffffffffffffffffffffffffffffffffffffffff1681565b6000616adf6178a4565b9050616ae9617afd565b5081601b60008381526020019081526020016000209080519060200190616b11929190619b4d565b50803373ffffffffffffffffffffffffffffffffffffffff167f8d500fcad86fc64a281b94ef64d6d66acbfc6862aa4ff2ee5fbbfb40736e803e84604051616b59919061ad3e565b60405180910390a35050565b600160159054906101000a900460ff1681565b600160009054906101000a900473ffffffffffffffffffffffffffffffffffffffff1673ffffffffffffffffffffffffffffffffffffffff163373ffffffffffffffffffffffffffffffffffffffff1614616bd257600080fd5b6000600e60009054906101000a900473ffffffffffffffffffffffffffffffffffffffff1673ffffffffffffffffffffffffffffffffffffffff1663bbe4f6db836040518263ffffffff1660e01b8152600401616c2f919061ab33565b60206040518083038186803b158015616c4757600080fd5b505afa158015616c5b573d6000803e3d6000fd5b505050506040513d601f19601f82011682018060405250810190616c7f9190619f6c565b9050601760008273ffffffffffffffffffffffffffffffffffffffff1673ffffffffffffffffffffffffffffffffffffffff16815260200190815260200160002060009054906101000a900460ff16616d0d576040517f08c379a0000000000000000000000000000000000000000000000000000000008152600401616d049061ad60565b60405180910390fd5b6000601760008373ffffffffffffffffffffffffffffffffffffffff1673ffffffffffffffffffffffffffffffffffffffff16815260200190815260200160002060006101000a81548160ff02191690831515021790555060005b601480549050811015616f86578173ffffffffffffffffffffffffffffffffffffffff1660148281548110616dc6577f4e487b7100000000000000000000000000000000000000000000000000000000600052603260045260246000fd5b9060005260206000200160009054906101000a900473ffffffffffffffffffffffffffffffffffffffff1673ffffffffffffffffffffffffffffffffffffffff161415616f735760146001601480549050616e21919061b31a565b81548110616e58577f4e487b7100000000000000000000000000000000000000000000000000000000600052603260045260246000fd5b9060005260206000200160009054906101000a900473ffffffffffffffffffffffffffffffffffffffff1660148281548110616ebd577f4e487b7100000000000000000000000000000000000000000000000000000000600052603260045260246000fd5b9060005260206000200160006101000a81548173ffffffffffffffffffffffffffffffffffffffff021916908373ffffffffffffffffffffffffffffffffffffffff1602179055506014805480616f3d577f4e487b7100000000000000000000000000000000000000000000000000000000600052603160045260246000fd5b6001900381819060005260206000200160006101000a81549073ffffffffffffffffffffffffffffffffffffffff021916905590555b8080616f7e9061b62b565b915050616d68565b508173ffffffffffffffffffffffffffffffffffffffff163373ffffffffffffffffffffffffffffffffffffffff167ff487c2322baa448cfa506b983134d9dd9f27d0bbfe0b48119a3908d4f0dde89f60405160405180910390a35050565b7f000000000000000000000000000000000000000000000000000000000000000081565b6000600960009054906101000a900460ff16156170c757600960019054906101000a900473ffffffffffffffffffffffffffffffffffffffff1673ffffffffffffffffffffffffffffffffffffffff1663f301e7816040518163ffffffff1660e01b815260040160206040518083038186803b15801561708857600080fd5b505afa15801561709c573d6000803e3d6000fd5b505050506040513d601f19601f820116820180604052508101906170c0919061a239565b90506170ed565b601260009054906101000a900473ffffffffffffffffffffffffffffffffffffffff1690505b90565b60176020528060005260406000206000915054906101000a900460ff1681565b6000601480549050905090565b600080600e60009054906101000a900473ffffffffffffffffffffffffffffffffffffffff1673ffffffffffffffffffffffffffffffffffffffff1663abc764da6040518163ffffffff1660e01b815260040160006040518083038186803b15801561718857600080fd5b505afa15801561719c573d6000803e3d6000fd5b505050506040513d6000823e3d601f19601f820116820180604052508101906171c5919061a154565b905060005b8151811015617484576000600c60009054906101000a900473ffffffffffffffffffffffffffffffffffffffff1673ffffffffffffffffffffffffffffffffffffffff1663aa9fd37484848151811061724c577f4e487b7100000000000000000000000000000000000000000000000000000000600052603260045260246000fd5b6020026020010151336040518363ffffffff1660e01b815260040161727292919061ab4e565b60206040518083038186803b15801561728a57600080fd5b505afa15801561729e573d6000803e3d6000fd5b505050506040513d601f19601f820116820180604052508101906172c2919061a3c2565b600d60009054906101000a900473ffffffffffffffffffffffffffffffffffffffff1673ffffffffffffffffffffffffffffffffffffffff1663aa9fd374858581518110617339577f4e487b7100000000000000000000000000000000000000000000000000000000600052603260045260246000fd5b6020026020010151336040518363ffffffff1660e01b815260040161735f92919061ab4e565b60206040518083038186803b15801561737757600080fd5b505afa15801561738b573d6000803e3d6000fd5b505050506040513d601f19601f820116820180604052508101906173af919061a3c2565b6173b9919061b239565b905060008111156174705780602160008781526020019081526020016000206000858581518110617413577f4e487b7100000000000000000000000000000000000000000000000000000000600052603260045260246000fd5b602002602001015173ffffffffffffffffffffffffffffffffffffffff1673ffffffffffffffffffffffffffffffffffffffff1681526020019081526020016000206000828254617464919061b31a565b92505081905550600193505b50808061747c9061b62b565b9150506171ca565b5050919050565b600080600e60009054906101000a900473ffffffffffffffffffffffffffffffffffffffff1673ffffffffffffffffffffffffffffffffffffffff1663abc764da6040518163ffffffff1660e01b815260040160006040518083038186803b1580156174f657600080fd5b505afa15801561750a573d6000803e3d6000fd5b505050506040513d6000823e3d601f19601f82011682018060405250810190617533919061a154565b905060005b81518110156177f2576000600c60009054906101000a900473ffffffffffffffffffffffffffffffffffffffff1673ffffffffffffffffffffffffffffffffffffffff1663aa9fd3748484815181106175ba577f4e487b7100000000000000000000000000000000000000000000000000000000600052603260045260246000fd5b6020026020010151336040518363ffffffff1660e01b81526004016175e092919061ab4e565b60206040518083038186803b1580156175f857600080fd5b505afa15801561760c573d6000803e3d6000fd5b505050506040513d601f19601f82011682018060405250810190617630919061a3c2565b600d60009054906101000a900473ffffffffffffffffffffffffffffffffffffffff1673ffffffffffffffffffffffffffffffffffffffff1663aa9fd3748585815181106176a7577f4e487b7100000000000000000000000000000000000000000000000000000000600052603260045260246000fd5b6020026020010151336040518363ffffffff1660e01b81526004016176cd92919061ab4e565b60206040518083038186803b1580156176e557600080fd5b505afa1580156176f9573d6000803e3d6000fd5b505050506040513d601f19601f8201168201806040525081019061771d919061a3c2565b617727919061b239565b905060008111156177de5780602160008781526020019081526020016000206000858581518110617781577f4e487b7100000000000000000000000000000000000000000000000000000000600052603260045260246000fd5b602002602001015173ffffffffffffffffffffffffffffffffffffffff1673ffffffffffffffffffffffffffffffffffffffff16815260200190815260200160002060008282546177d2919061b239565b92505081905550600193505b5080806177ea9061b62b565b915050617538565b5050919050565b600060028260405161780b919061ab1c565b602060405180830381855afa158015617828573d6000803e3d6000fd5b5050506040513d601f19601f8201168201806040525081019061784b919061a1be565b60028460405161785b919061ab1c565b602060405180830381855afa158015617878573d6000803e3d6000fd5b5050506040513d601f19601f8201168201806040525081019061789b919061a1be565b14905092915050565b6000600160149054906101000a900460ff16156178f6576040517f08c379a00000000000000000000000000000000000000000000000000000000081526004016178ed9061ad80565b60405180910390fd5b600160159054906101000a900460ff16617945576040517f08c379a000000000000000000000000000000000000000000000000000000000815260040161793c9061ada0565b60405180910390fd5b60011515601060009054906101000a900473ffffffffffffffffffffffffffffffffffffffff1673ffffffffffffffffffffffffffffffffffffffff1663194e22ce6040518163ffffffff1660e01b8152600401602060405180830381600087803b1580156179b357600080fd5b505af11580156179c7573d6000803e3d6000fd5b505050506040513d601f19601f820116820180604052508101906179eb919061a195565b15151415617a2e576040517f08c379a0000000000000000000000000000000000000000000000000000000008152600401617a259061af60565b60405180910390fd5b6000600754905060001515601f600083815260200190815260200160002060009054906101000a900460ff16151514617a9c576040517f08c379a0000000000000000000000000000000000000000000000000000000008152600401617a939061af80565b60405180910390fd5b600181617aa9919061b239565b9050806007819055506001601f600083815260200190815260200160002060006101000a81548160ff0219169083151502179055504260206000838152602001908152602001600020819055508091505090565b60007f000000000000000000000000000000000000000000000000000000000000000073ffffffffffffffffffffffffffffffffffffffff166323b872dd33601060009054906101000a900473ffffffffffffffffffffffffffffffffffffffff16670de0b6b3a7640000600654617b75919061b2c0565b6040518463ffffffff1660e01b8152600401617b939392919061ab77565b602060405180830381600087803b158015617bad57600080fd5b505af1158015617bc1573d6000803e3d6000fd5b505050506040513d601f19601f82011682018060405250810190617be5919061a195565b617c24576040517f08c379a0000000000000000000000000000000000000000000000000000000008152600401617c1b9061aee0565b60405180910390fd5b6001905090565b6001601d600084815260200190815260200160002060006101000a81548160ff02191690831515021790555042601c600084815260200190815260200160002081905550813373ffffffffffffffffffffffffffffffffffffffff167f0f36aea5066f9f90a999260fe4ce8d7713f7f07f5ae61bf36d73cc51170a3a9e60025442617cb6919061b239565b84604051617cc592919061b066565b60405180910390a35050565b600060026000541415617d19576040517f08c379a0000000000000000000000000000000000000000000000000000000008152600401617d109061afa0565b60405180910390fd5b60026000819055506a02116545850052128000007f000000000000000000000000000000000000000000000000000000000000000073ffffffffffffffffffffffffffffffffffffffff1663dd62ed3e30600a60009054906101000a900473ffffffffffffffffffffffffffffffffffffffff166040518363ffffffff1660e01b8152600401617daa92919061ab4e565b60206040518083038186803b158015617dc257600080fd5b505afa158015617dd6573d6000803e3d6000fd5b505050506040513d601f19601f82011682018060405250810190617dfa919061a3c2565b1015617f6e577f000000000000000000000000000000000000000000000000000000000000000073ffffffffffffffffffffffffffffffffffffffff1663095ea7b3600a60009054906101000a900473ffffffffffffffffffffffffffffffffffffffff167f000000000000000000000000000000000000000000000000000000000000000073ffffffffffffffffffffffffffffffffffffffff166318160ddd6040518163ffffffff1660e01b815260040160206040518083038186803b158015617ec557600080fd5b505afa158015617ed9573d6000803e3d6000fd5b505050506040513d601f19601f82011682018060405250810190617efd919061a3c2565b6040518363ffffffff1660e01b8152600401617f1a92919061abae565b602060405180830381600087803b158015617f3457600080fd5b505af1158015617f48573d6000803e3d6000fd5b505050506040513d601f19601f82011682018060405250810190617f6c919061a195565b505b600073ffffffffffffffffffffffffffffffffffffffff168373ffffffffffffffffffffffffffffffffffffffff16141561817457348214617fe5576040517f08c379a0000000000000000000000000000000000000000000000000000000008152600401617fdc9061af20565b60405180910390fd5b6000600b60009054906101000a900473ffffffffffffffffffffffffffffffffffffffff1673ffffffffffffffffffffffffffffffffffffffff1663b80e44b885856040518363ffffffff1660e01b815260040161804492919061abae565b60206040518083038186803b15801561805c57600080fd5b505afa158015618070573d6000803e3d6000fd5b505050506040513d601f19601f82011682018060405250810190618094919061a3c2565b9050600a60009054906101000a900473ffffffffffffffffffffffffffffffffffffffff1673ffffffffffffffffffffffffffffffffffffffff166393cac68584858488600c60009054906101000a900473ffffffffffffffffffffffffffffffffffffffff166040518663ffffffff1660e01b815260040161811a949392919061b0bf565b6020604051808303818588803b15801561813357600080fd5b505af1158015618147573d6000803e3d6000fd5b50505050506040513d601f19601f8201168201806040525081019061816c919061a3c2565b915050618642565b8273ffffffffffffffffffffffffffffffffffffffff166323b872dd3330856040518463ffffffff1660e01b81526004016181b19392919061ab77565b602060405180830381600087803b1580156181cb57600080fd5b505af11580156181df573d6000803e3d6000fd5b505050506040513d601f19601f82011682018060405250810190618203919061a195565b618242576040517f08c379a00000000000000000000000000000000000000000000000000000000081526004016182399061aee0565b60405180910390fd5b60008373ffffffffffffffffffffffffffffffffffffffff166370a08231306040518263ffffffff1660e01b815260040161827d919061ab33565b60206040518083038186803b15801561829557600080fd5b505afa1580156182a9573d6000803e3d6000fd5b505050506040513d601f19601f820116820180604052508101906182cd919061a3c2565b90506000600b60009054906101000a900473ffffffffffffffffffffffffffffffffffffffff1673ffffffffffffffffffffffffffffffffffffffff1663b80e44b886846040518363ffffffff1660e01b815260040161832e92919061abae565b60206040518083038186803b15801561834657600080fd5b505afa15801561835a573d6000803e3d6000fd5b505050506040513d601f19601f8201168201806040525081019061837e919061a3c2565b9050818573ffffffffffffffffffffffffffffffffffffffff1663dd62ed3e30600a60009054906101000a900473ffffffffffffffffffffffffffffffffffffffff166040518363ffffffff1660e01b81526004016183de92919061ab4e565b60206040518083038186803b1580156183f657600080fd5b505afa15801561840a573d6000803e3d6000fd5b505050506040513d601f19601f8201168201806040525081019061842e919061a3c2565b10156185685760008573ffffffffffffffffffffffffffffffffffffffff166318160ddd6040518163ffffffff1660e01b815260040160206040518083038186803b15801561847c57600080fd5b505afa158015618490573d6000803e3d6000fd5b505050506040513d601f19601f820116820180604052508101906184b4919061a3c2565b90508573ffffffffffffffffffffffffffffffffffffffff1663095ea7b3600a60009054906101000a900473ffffffffffffffffffffffffffffffffffffffff16836040518363ffffffff1660e01b815260040161851392919061abae565b602060405180830381600087803b15801561852d57600080fd5b505af1158015618541573d6000803e3d6000fd5b505050506040513d601f19601f82011682018060405250810190618565919061a195565b50505b600a60009054906101000a900473ffffffffffffffffffffffffffffffffffffffff1673ffffffffffffffffffffffffffffffffffffffff166393cac685838388600c60009054906101000a900473ffffffffffffffffffffffffffffffffffffffff166040518563ffffffff1660e01b81526004016185eb949392919061b0bf565b602060405180830381600087803b15801561860557600080fd5b505af1158015618619573d6000803e3d6000fd5b505050506040513d601f19601f8201168201806040525081019061863d919061a3c2565b925050505b600160008190555092915050565b6000601a600083815260200190815260200160002060009054906101000a900473ffffffffffffffffffffffffffffffffffffffff16905080600960016101000a81548173ffffffffffffffffffffffffffffffffffffffff021916908373ffffffffffffffffffffffffffffffffffffffff1602179055507f000000000000000000000000000000000000000000000000000000000000000073ffffffffffffffffffffffffffffffffffffffff16631d007f5f826040518263ffffffff1660e01b8152600401618722919061ab33565b600060405180830381600087803b15801561873c57600080fd5b505af1158015618750573d6000803e3d6000fd5b505050506001600960006101000a81548160ff02191690831515021790555061877882619876565b5050565b6000601a600083815260200190815260200160002060009054906101000a900473ffffffffffffffffffffffffffffffffffffffff16905080600a60006101000a81548173ffffffffffffffffffffffffffffffffffffffff021916908373ffffffffffffffffffffffffffffffffffffffff1602179055506187fe82619876565b5050565b6000601a600083815260200190815260200160002060009054906101000a900473ffffffffffffffffffffffffffffffffffffffff16905080600b60006101000a81548173ffffffffffffffffffffffffffffffffffffffff021916908373ffffffffffffffffffffffffffffffffffffffff16021790555061888482619876565b5050565b6000601a600083815260200190815260200160002060009054906101000a900473ffffffffffffffffffffffffffffffffffffffff16905060007f000000000000000000000000000000000000000000000000000000000000000073ffffffffffffffffffffffffffffffffffffffff166370a08231601060009054906101000a900473ffffffffffffffffffffffffffffffffffffffff166040518263ffffffff1660e01b815260040161893d919061ab33565b60206040518083038186803b15801561895557600080fd5b505afa158015618969573d6000803e3d6000fd5b505050506040513d601f19601f8201168201806040525081019061898d919061a3c2565b9050601060009054906101000a900473ffffffffffffffffffffffffffffffffffffffff1673ffffffffffffffffffffffffffffffffffffffff16637d458baa82846040518363ffffffff1660e01b81526004016189ec92919061b03d565b600060405180830381600087803b158015618a0657600080fd5b505af1158015618a1a573d6000803e3d6000fd5b5050505081601060006101000a81548173ffffffffffffffffffffffffffffffffffffffff021916908373ffffffffffffffffffffffffffffffffffffffff160217905550618a6883619876565b505050565b7f000000000000000000000000000000000000000000000000000000000000000073ffffffffffffffffffffffffffffffffffffffff1663fe1fa8fa6040518163ffffffff1660e01b8152600401600060405180830381600087803b158015618ad557600080fd5b505af1158015618ae9573d6000803e3d6000fd5b50505050618af681619876565b50565b60006019600083815260200190815260200160002054905080600281905550618b2182619876565b5050565b60006019600083815260200190815260200160002054905080600481905550618b4d82619876565b5050565b6000601960008381526020019081526020016000205490506000601a600084815260200190815260200160002060009054906101000a900473ffffffffffffffffffffffffffffffffffffffff169050601060009054906101000a900473ffffffffffffffffffffffffffffffffffffffff1673ffffffffffffffffffffffffffffffffffffffff16637d458baa83836040518363ffffffff1660e01b8152600401618bfe92919061b03d565b600060405180830381600087803b158015618c1857600080fd5b505af1158015618c2c573d6000803e3d6000fd5b50505050618c3983619876565b505050565b60006a021165458500521280000090507f000000000000000000000000000000000000000000000000000000000000000073ffffffffffffffffffffffffffffffffffffffff1663d01f6fba82306040518363ffffffff1660e01b8152600401618ca992919061b03d565b600060405180830381600087803b158015618cc357600080fd5b505af1158015618cd7573d6000803e3d6000fd5b50505050618ce482619876565b5050565b6000601a600083815260200190815260200160002060009054906101000a900473ffffffffffffffffffffffffffffffffffffffff1690506000600e60009054906101000a900473ffffffffffffffffffffffffffffffffffffffff1673ffffffffffffffffffffffffffffffffffffffff1663bbe4f6db836040518263ffffffff1660e01b8152600401618d7d919061ab33565b60206040518083038186803b158015618d9557600080fd5b505afa158015618da9573d6000803e3d6000fd5b505050506040513d601f19601f82011682018060405250810190618dcd9190619f6c565b9050601760008273ffffffffffffffffffffffffffffffffffffffff1673ffffffffffffffffffffffffffffffffffffffff16815260200190815260200160002060009054906101000a900460ff16618edc576001601760008373ffffffffffffffffffffffffffffffffffffffff1673ffffffffffffffffffffffffffffffffffffffff16815260200190815260200160002060006101000a81548160ff0219169083151502179055506014819080600181540180825580915050600190039060005260206000200160009091909190916101000a81548173ffffffffffffffffffffffffffffffffffffffff021916908373ffffffffffffffffffffffffffffffffffffffff1602179055505b618ee583619876565b8173ffffffffffffffffffffffffffffffffffffffff163373ffffffffffffffffffffffffffffffffffffffff167fa2c962e87fd75165c1496c9ea420ddb0231e124bf2625a77f828287c8050006860405160405180910390a3505050565b6000601a600083815260200190815260200160002060009054906101000a900473ffffffffffffffffffffffffffffffffffffffff1690506000600e60009054906101000a900473ffffffffffffffffffffffffffffffffffffffff1673ffffffffffffffffffffffffffffffffffffffff1663bbe4f6db836040518263ffffffff1660e01b8152600401618fd9919061ab33565b60206040518083038186803b158015618ff157600080fd5b505afa158015619005573d6000803e3d6000fd5b505050506040513d601f19601f820116820180604052508101906190299190619f6c565b9050601760008273ffffffffffffffffffffffffffffffffffffffff1673ffffffffffffffffffffffffffffffffffffffff16815260200190815260200160002060009054906101000a900460ff16156192f8576000601760008373ffffffffffffffffffffffffffffffffffffffff1673ffffffffffffffffffffffffffffffffffffffff16815260200190815260200160002060006101000a81548160ff02191690831515021790555060005b6014805490508110156192f6578173ffffffffffffffffffffffffffffffffffffffff1660148281548110619136577f4e487b7100000000000000000000000000000000000000000000000000000000600052603260045260246000fd5b9060005260206000200160009054906101000a900473ffffffffffffffffffffffffffffffffffffffff1673ffffffffffffffffffffffffffffffffffffffff1614156192e35760146001601480549050619191919061b31a565b815481106191c8577f4e487b7100000000000000000000000000000000000000000000000000000000600052603260045260246000fd5b9060005260206000200160009054906101000a900473ffffffffffffffffffffffffffffffffffffffff166014828154811061922d577f4e487b7100000000000000000000000000000000000000000000000000000000600052603260045260246000fd5b9060005260206000200160006101000a81548173ffffffffffffffffffffffffffffffffffffffff021916908373ffffffffffffffffffffffffffffffffffffffff16021790555060148054806192ad577f4e487b7100000000000000000000000000000000000000000000000000000000600052603160045260246000fd5b6001900381819060005260206000200160006101000a81549073ffffffffffffffffffffffffffffffffffffffff021916905590555b80806192ee9061b62b565b9150506190d8565b505b61930183619876565b8173ffffffffffffffffffffffffffffffffffffffff163373ffffffffffffffffffffffffffffffffffffffff167ff487c2322baa448cfa506b983134d9dd9f27d0bbfe0b48119a3908d4f0dde89f60405160405180910390a3505050565b6000601a600083815260200190815260200160002060009054906101000a900473ffffffffffffffffffffffffffffffffffffffff1690506193a182619876565b600e60009054906101000a900473ffffffffffffffffffffffffffffffffffffffff1673ffffffffffffffffffffffffffffffffffffffff16632b2260a8826040518263ffffffff1660e01b81526004016193fc919061ab33565b600060405180830381600087803b15801561941657600080fd5b505af115801561942a573d6000803e3d6000fd5b505050505050565b6000601a600083815260200190815260200160002060009054906101000a900473ffffffffffffffffffffffffffffffffffffffff169050600e60009054906101000a900473ffffffffffffffffffffffffffffffffffffffff1673ffffffffffffffffffffffffffffffffffffffff16637ca51fbf826040518263ffffffff1660e01b81526004016194c5919061ab33565b600060405180830381600087803b1580156194df57600080fd5b505af11580156194f3573d6000803e3d6000fd5b50505050601760008273ffffffffffffffffffffffffffffffffffffffff1673ffffffffffffffffffffffffffffffffffffffff16815260200190815260200160002060009054906101000a900460ff16156197c4576000601760008373ffffffffffffffffffffffffffffffffffffffff1673ffffffffffffffffffffffffffffffffffffffff16815260200190815260200160002060006101000a81548160ff02191690831515021790555060005b6014805490508110156197c2578173ffffffffffffffffffffffffffffffffffffffff1660148281548110619602577f4e487b7100000000000000000000000000000000000000000000000000000000600052603260045260246000fd5b9060005260206000200160009054906101000a900473ffffffffffffffffffffffffffffffffffffffff1673ffffffffffffffffffffffffffffffffffffffff1614156197af576014600160148054905061965d919061b31a565b81548110619694577f4e487b7100000000000000000000000000000000000000000000000000000000600052603260045260246000fd5b9060005260206000200160009054906101000a900473ffffffffffffffffffffffffffffffffffffffff16601482815481106196f9577f4e487b7100000000000000000000000000000000000000000000000000000000600052603260045260246000fd5b9060005260206000200160006101000a81548173ffffffffffffffffffffffffffffffffffffffff021916908373ffffffffffffffffffffffffffffffffffffffff1602179055506014805480619779577f4e487b7100000000000000000000000000000000000000000000000000000000600052603160045260246000fd5b6001900381819060005260206000200160006101000a81549073ffffffffffffffffffffffffffffffffffffffff021916905590555b80806197ba9061b62b565b9150506195a4565b505b6197cd82619876565b5050565b6000601a600083815260200190815260200160002060009054906101000a900473ffffffffffffffffffffffffffffffffffffffff1690508073ffffffffffffffffffffffffffffffffffffffff1663224b2a5b6040518163ffffffff1660e01b8152600401600060405180830381600087803b15801561985157600080fd5b505af1158015619865573d6000803e3d6000fd5b5050505061987282619876565b5050565b6000601b600083815260200190815260200160002080546198969061b5c8565b80601f01602080910402602001604051908101604052809291908181526020018280546198c29061b5c8565b801561990f5780601f106198e45761010080835404028352916020019161990f565b820191906000526020600020905b8154815290600101906020018083116198f257829003601f168201915b505050505090506000600e60009054906101000a900473ffffffffffffffffffffffffffffffffffffffff1673ffffffffffffffffffffffffffffffffffffffff1663abc764da6040518163ffffffff1660e01b815260040160006040518083038186803b15801561998057600080fd5b505afa158015619994573d6000803e3d6000fd5b505050506040513d6000823e3d601f19601f820116820180604052508101906199bd919061a154565b905060005b8151811015619a74576000602160008681526020019081526020016000206000848481518110619a1b577f4e487b7100000000000000000000000000000000000000000000000000000000600052603260045260246000fd5b602002602001015173ffffffffffffffffffffffffffffffffffffffff1673ffffffffffffffffffffffffffffffffffffffff168152602001908152602001600020819055508080619a6c9061b62b565b9150506199c2565b506001601e600085815260200190815260200160002060006101000a81548160ff0219169083151502179055506000601d600085815260200190815260200160002060006101000a81548160ff0219169083151502179055506000601f600085815260200190815260200160002060006101000a81548160ff021916908315150217905550823373ffffffffffffffffffffffffffffffffffffffff167ffdbe656509abcebb25a94a9630376c43df21fd5f51077a0c0e20965cf5a0232784604051619b40919061ad3e565b60405180910390a3505050565b828054619b599061b5c8565b90600052602060002090601f016020900481019282619b7b5760008555619bc2565b82601f10619b9457805160ff1916838001178555619bc2565b82800160010185558215619bc2579182015b82811115619bc1578251825591602001919060010190619ba6565b5b509050619bcf9190619c42565b5090565b6040518061014001604052806000815260200160608152602001600081526020016000815260200160001515815260200160001515815260200160008152602001600073ffffffffffffffffffffffffffffffffffffffff168152602001600015158152602001600081525090565b5b80821115619c5b576000816000905550600101619c43565b5090565b6000619c72619c6d8461b160565b61b13b565b90508083825260208201905082856020860282011115619c9157600080fd5b60005b85811015619cc15781619ca78882619d75565b845260208401935060208301925050600181019050619c94565b5050509392505050565b6000619cde619cd98461b160565b61b13b565b90508083825260208201905082856020860282011115619cfd57600080fd5b60005b85811015619d2d5781619d138882619d8a565b845260208401935060208301925050600181019050619d00565b5050509392505050565b6000619d4a619d458461b18c565b61b13b565b905082815260208101848484011115619d6257600080fd5b619d6d84828561b586565b509392505050565b600081359050619d848161ba9e565b92915050565b600081519050619d998161ba9e565b92915050565b600082601f830112619db057600080fd5b8135619dc0848260208601619c5f565b91505092915050565b600082601f830112619dda57600080fd5b8151619dea848260208601619ccb565b91505092915050565b600081359050619e028161bab5565b92915050565b600081519050619e178161bab5565b92915050565b600081519050619e2c8161bacc565b92915050565b600081519050619e418161bae3565b92915050565b600081519050619e568161bafa565b92915050565b600081519050619e6b8161bb11565b92915050565b600081519050619e808161bb28565b92915050565b600081519050619e958161bb3f565b92915050565b600081519050619eaa8161bb56565b92915050565b600081519050619ebf8161bb6d565b92915050565b600081519050619ed48161bb84565b92915050565b600081519050619ee98161bb9b565b92915050565b600082601f830112619f0057600080fd5b8135619f10848260208601619d37565b91505092915050565b600081359050619f288161bbb2565b92915050565b600081519050619f3d8161bbb2565b92915050565b600060208284031215619f5557600080fd5b6000619f6384828501619d75565b91505092915050565b600060208284031215619f7e57600080fd5b6000619f8c84828501619d8a565b91505092915050565b60008060408385031215619fa857600080fd5b6000619fb685828601619d75565b9250506020619fc785828601619d75565b9150509250929050565b600080600060608486031215619fe657600080fd5b6000619ff486828701619d75565b935050602061a00586828701619d75565b925050604061a01686828701619d75565b9150509250925092565b6000806000806080858703121561a03657600080fd5b600061a04487828801619d75565b945050602061a05587828801619d75565b935050604061a06687828801619d75565b925050606061a07787828801619d75565b91505092959194509250565b6000806040838503121561a09657600080fd5b600061a0a485828601619d75565b925050602083013567ffffffffffffffff81111561a0c157600080fd5b61a0cd85828601619eef565b9150509250929050565b6000806040838503121561a0ea57600080fd5b600061a0f885828601619d75565b925050602061a10985828601619f19565b9150509250929050565b60006020828403121561a12557600080fd5b600082013567ffffffffffffffff81111561a13f57600080fd5b61a14b84828501619d9f565b91505092915050565b60006020828403121561a16657600080fd5b600082015167ffffffffffffffff81111561a18057600080fd5b61a18c84828501619dc9565b91505092915050565b60006020828403121561a1a757600080fd5b600061a1b584828501619e08565b91505092915050565b60006020828403121561a1d057600080fd5b600061a1de84828501619e1d565b91505092915050565b60006020828403121561a1f957600080fd5b600061a20784828501619e32565b91505092915050565b60006020828403121561a22257600080fd5b600061a23084828501619e47565b91505092915050565b60006020828403121561a24b57600080fd5b600061a25984828501619e5c565b91505092915050565b60006020828403121561a27457600080fd5b600061a28284828501619e71565b91505092915050565b60006020828403121561a29d57600080fd5b600061a2ab84828501619e86565b91505092915050565b60006020828403121561a2c657600080fd5b600061a2d484828501619e9b565b91505092915050565b60006020828403121561a2ef57600080fd5b600061a2fd84828501619eb0565b91505092915050565b60006020828403121561a31857600080fd5b600061a32684828501619ec5565b91505092915050565b60006020828403121561a34157600080fd5b600061a34f84828501619eda565b91505092915050565b60006020828403121561a36a57600080fd5b600082013567ffffffffffffffff81111561a38457600080fd5b61a39084828501619eef565b91505092915050565b60006020828403121561a3ab57600080fd5b600061a3b984828501619f19565b91505092915050565b60006020828403121561a3d457600080fd5b600061a3e284828501619f2e565b91505092915050565b6000806040838503121561a3fe57600080fd5b600061a40c85828601619f19565b925050602061a41d85828601619d75565b9150509250929050565b6000806040838503121561a43a57600080fd5b600061a44885828601619f19565b925050602083013567ffffffffffffffff81111561a46557600080fd5b61a47185828601619eef565b9150509250929050565b6000806040838503121561a48e57600080fd5b600061a49c85828601619f2e565b925050602061a4ad85828601619f2e565b9150509250929050565b6000806000806080858703121561a4cd57600080fd5b600061a4db87828801619f19565b945050602061a4ec87828801619f19565b935050604061a4fd87828801619df3565b925050606061a50e87828801619f19565b91505092959194509250565b60008060006060848603121561a52f57600080fd5b600061a53d86828701619f19565b935050602061a54e86828701619f19565b925050604061a55f86828701619f19565b9150509250925092565b600061a575838361a581565b60208301905092915050565b61a58a8161b34e565b82525050565b61a5998161b34e565b82525050565b600061a5aa8261b1cd565b61a5b4818561b1fb565b935061a5bf8361b1bd565b8060005b8381101561a5f057815161a5d7888261a569565b975061a5e28361b1ee565b92505060018101905061a5c3565b5085935050505092915050565b61a6068161b360565b82525050565b61a6158161b360565b82525050565b600061a6268261b1d8565b61a630818561b20c565b935061a64081856020860161b595565b80840191505092915050565b61a6558161b442565b82525050565b61a6648161b466565b82525050565b61a6738161b48a565b82525050565b61a6828161b4ae565b82525050565b61a6918161b4d2565b82525050565b61a6a08161b4f6565b82525050565b61a6af8161b51a565b82525050565b61a6be8161b53e565b82525050565b61a6cd8161b562565b82525050565b600061a6de8261b1e3565b61a6e8818561b217565b935061a6f881856020860161b595565b61a7018161b730565b840191505092915050565b600061a7178261b1e3565b61a721818561b228565b935061a73181856020860161b595565b61a73a8161b730565b840191505092915050565b600061a75260078361b228565b915061a75d8261b741565b602082019050919050565b600061a77560078361b228565b915061a7808261b76a565b602082019050919050565b600061a79860088361b228565b915061a7a38261b793565b602082019050919050565b600061a7bb60078361b228565b915061a7c68261b7bc565b602082019050919050565b600061a7de60058361b228565b915061a7e98261b7e5565b602082019050919050565b600061a80160058361b228565b915061a80c8261b80e565b602082019050919050565b600061a824600a8361b228565b915061a82f8261b837565b602082019050919050565b600061a84760088361b228565b915061a8528261b860565b602082019050919050565b600061a86a60068361b228565b915061a8758261b889565b602082019050919050565b600061a88d600b8361b228565b915061a8988261b8b2565b602082019050919050565b600061a8b060068361b228565b915061a8bb8261b8db565b602082019050919050565b600061a8d360088361b228565b915061a8de8261b904565b602082019050919050565b600061a8f660098361b228565b915061a9018261b92d565b602082019050919050565b600061a91960068361b228565b915061a9248261b956565b602082019050919050565b600061a93c60078361b228565b915061a9478261b97f565b602082019050919050565b600061a95f60088361b228565b915061a96a8261b9a8565b602082019050919050565b600061a98260058361b228565b915061a98d8261b9d1565b602082019050919050565b600061a9a560058361b228565b915061a9b08261b9fa565b602082019050919050565b600061a9c8601f8361b228565b915061a9d38261ba23565b602082019050919050565b600061a9eb60058361b228565b915061a9f68261ba4c565b602082019050919050565b600061aa0e60048361b228565b915061aa198261ba75565b602082019050919050565b60006101408301600083015161aa3d600086018261aafe565b506020830151848203602086015261aa55828261a6d3565b915050604083015161aa6a604086018261aafe565b50606083015161aa7d606086018261aafe565b50608083015161aa90608086018261a5fd565b5060a083015161aaa360a086018261a5fd565b5060c083015161aab660c086018261aafe565b5060e083015161aac960e086018261a581565b5061010083015161aade61010086018261a5fd565b5061012083015161aaf361012086018261aafe565b508091505092915050565b61ab078161b438565b82525050565b61ab168161b438565b82525050565b600061ab28828461a61b565b915081905092915050565b600060208201905061ab48600083018461a590565b92915050565b600060408201905061ab63600083018561a590565b61ab70602083018461a590565b9392505050565b600060608201905061ab8c600083018661a590565b61ab99602083018561a590565b61aba6604083018461ab0d565b949350505050565b600060408201905061abc3600083018561a590565b61abd0602083018461ab0d565b9392505050565b600060608201905061abec600083018661a590565b61abf9602083018561ab0d565b61ac06604083018461a590565b949350505050565b6000602082019050818103600083015261ac28818461a59f565b905092915050565b600060208201905061ac45600083018461a60c565b92915050565b600060208201905061ac60600083018461a64c565b92915050565b600060208201905061ac7b600083018461a65b565b92915050565b600060208201905061ac96600083018461a66a565b92915050565b600060208201905061acb1600083018461a679565b92915050565b600060208201905061accc600083018461a688565b92915050565b600060208201905061ace7600083018461a697565b92915050565b600060208201905061ad02600083018461a6a6565b92915050565b600060208201905061ad1d600083018461a6b5565b92915050565b600060208201905061ad38600083018461a6c4565b92915050565b6000602082019050818103600083015261ad58818461a70c565b905092915050565b6000602082019050818103600083015261ad798161a745565b9050919050565b6000602082019050818103600083015261ad998161a768565b9050919050565b6000602082019050818103600083015261adb98161a78b565b9050919050565b6000602082019050818103600083015261add98161a7ae565b9050919050565b6000602082019050818103600083015261adf98161a7d1565b9050919050565b6000602082019050818103600083015261ae198161a7f4565b9050919050565b6000602082019050818103600083015261ae398161a817565b9050919050565b6000602082019050818103600083015261ae598161a83a565b9050919050565b6000602082019050818103600083015261ae798161a85d565b9050919050565b6000602082019050818103600083015261ae998161a880565b9050919050565b6000602082019050818103600083015261aeb98161a8a3565b9050919050565b6000602082019050818103600083015261aed98161a8c6565b9050919050565b6000602082019050818103600083015261aef98161a8e9565b9050919050565b6000602082019050818103600083015261af198161a90c565b9050919050565b6000602082019050818103600083015261af398161a92f565b9050919050565b6000602082019050818103600083015261af598161a952565b9050919050565b6000602082019050818103600083015261af798161a975565b9050919050565b6000602082019050818103600083015261af998161a998565b9050919050565b6000602082019050818103600083015261afb98161a9bb565b9050919050565b6000602082019050818103600083015261afd98161a9de565b9050919050565b6000602082019050818103600083015261aff98161aa01565b9050919050565b6000602082019050818103600083015261b01a818461aa24565b905092915050565b600060208201905061b037600083018461ab0d565b92915050565b600060408201905061b052600083018561ab0d565b61b05f602083018461a590565b9392505050565b600060408201905061b07b600083018561ab0d565b818103602083015261b08d818461a70c565b90509392505050565b600060408201905061b0ab600083018561ab0d565b61b0b8602083018461ab0d565b9392505050565b600060808201905061b0d4600083018761ab0d565b61b0e1602083018661ab0d565b61b0ee604083018561a590565b61b0fb606083018461a590565b95945050505050565b600060608201905061b119600083018661ab0d565b61b126602083018561ab0d565b61b133604083018461ab0d565b949350505050565b600061b14561b156565b905061b151828261b5fa565b919050565b6000604051905090565b600067ffffffffffffffff82111561b17b5761b17a61b701565b5b602082029050602081019050919050565b600067ffffffffffffffff82111561b1a75761b1a661b701565b5b61b1b08261b730565b9050602081019050919050565b6000819050602082019050919050565b600081519050919050565b600081519050919050565b600081519050919050565b6000602082019050919050565b600082825260208201905092915050565b600081905092915050565b600082825260208201905092915050565b600082825260208201905092915050565b600061b2448261b438565b915061b24f8361b438565b9250827fffffffffffffffffffffffffffffffffffffffffffffffffffffffffffffffff0382111561b2845761b28361b674565b5b828201905092915050565b600061b29a8261b438565b915061b2a58361b438565b92508261b2b55761b2b461b6a3565b5b828204905092915050565b600061b2cb8261b438565b915061b2d68361b438565b9250817fffffffffffffffffffffffffffffffffffffffffffffffffffffffffffffffff048311821515161561b30f5761b30e61b674565b5b828202905092915050565b600061b3258261b438565b915061b3308361b438565b92508282101561b3435761b34261b674565b5b828203905092915050565b600061b3598261b418565b9050919050565b60008115159050919050565b6000819050919050565b600061b3818261b34e565b9050919050565b600061b3938261b34e565b9050919050565b600061b3a58261b34e565b9050919050565b600061b3b78261b34e565b9050919050565b600061b3c98261b34e565b9050919050565b600061b3db8261b34e565b9050919050565b600061b3ed8261b34e565b9050919050565b600061b3ff8261b34e565b9050919050565b600061b4118261b34e565b9050919050565b600073ffffffffffffffffffffffffffffffffffffffff82169050919050565b6000819050919050565b600061b44d8261b454565b9050919050565b600061b45f8261b418565b9050919050565b600061b4718261b478565b9050919050565b600061b4838261b418565b9050919050565b600061b4958261b49c565b9050919050565b600061b4a78261b418565b9050919050565b600061b4b98261b4c0565b9050919050565b600061b4cb8261b418565b9050919050565b600061b4dd8261b4e4565b9050919050565b600061b4ef8261b418565b9050919050565b600061b5018261b508565b9050919050565b600061b5138261b418565b9050919050565b600061b5258261b52c565b9050919050565b600061b5378261b418565b9050919050565b600061b5498261b550565b9050919050565b600061b55b8261b418565b9050919050565b600061b56d8261b574565b9050919050565b600061b57f8261b418565b9050919050565b82818337600083830152505050565b60005b8381101561b5b357808201518184015260208101905061b598565b8381111561b5c2576000848401525b50505050565b6000600282049050600182168061b5e057607f821691505b6020821081141561b5f45761b5f361b6d2565b5b50919050565b61b6038261b730565b810181811067ffffffffffffffff8211171561b6225761b62161b701565b5b80604052505050565b600061b6368261b438565b91507fffffffffffffffffffffffffffffffffffffffffffffffffffffffffffffffff82141561b6695761b66861b674565b5b600182019050919050565b7f4e487b7100000000000000000000000000000000000000000000000000000000600052601160045260246000fd5b7f4e487b7100000000000000000000000000000000000000000000000000000000600052601260045260246000fd5b7f4e487b7100000000000000000000000000000000000000000000000000000000600052602260045260246000fd5b7f4e487b7100000000000000000000000000000000000000000000000000000000600052604160045260246000fd5b6000601f19601f8301169050919050565b7f216c697374656400000000000000000000000000000000000000000000000000600082015250565b7f5245544952454400000000000000000000000000000000000000000000000000600082015250565b7f494e414354495645000000000000000000000000000000000000000000000000600082015250565b7f21414d4f554e5400000000000000000000000000000000000000000000000000600082015250565b7f564f544544000000000000000000000000000000000000000000000000000000600082015250565b7f214f50454e000000000000000000000000000000000000000000000000000000600082015250565b7f21656d697373696f6e7300000000000000000000000000000000000000000000600082015250565b7f21636f6f6c6f6666000000000000000000000000000000000000000000000000600082015250565b7f6c69737465640000000000000000000000000000000000000000000000000000600082015250565b7f2166696e616c6973696e67000000000000000000000000000000000000000000600082015250565b7f21564f5445440000000000000000000000000000000000000000000000000000600082015250565b7f2163757261746564000000000000000000000000000000000000000000000000600082015250565b7f217472616e736665720000000000000000000000000000000000000000000000600082015250565b7f21706172616d0000000000000000000000000000000000000000000000000000600082015250565b7f21616d6f756e7400000000000000000000000000000000000000000000000000600082015250565b7f2161646472657373000000000000000000000000000000000000000000000000600082015250565b7f2153414645000000000000000000000000000000000000000000000000000000600082015250565b7f216f70656e000000000000000000000000000000000000000000000000000000600082015250565b7f5265656e7472616e637947756172643a207265656e7472616e742063616c6c00600082015250565b7f2164617973000000000000000000000000000000000000000000000000000000600082015250565b7f4f50454e00000000000000000000000000000000000000000000000000000000600082015250565b61baa78161b34e565b811461bab257600080fd5b50565b61babe8161b360565b811461bac957600080fd5b50565b61bad58161b36c565b811461bae057600080fd5b50565b61baec8161b376565b811461baf757600080fd5b50565b61bb038161b388565b811461bb0e57600080fd5b50565b61bb1a8161b39a565b811461bb2557600080fd5b50565b61bb318161b3ac565b811461bb3c57600080fd5b50565b61bb488161b3be565b811461bb5357600080fd5b50565b61bb5f8161b3d0565b811461bb6a57600080fd5b50565b61bb768161b3e2565b811461bb8157600080fd5b50565b61bb8d8161b3f4565b811461bb9857600080fd5b50565b61bba48161b406565b811461bbaf57600080fd5b50565b61bbbb8161b438565b811461bbc657600080fd5b5056fea2646970667358221220ef853e7868e8744a4ca6019eb354d50d8bdd5fdd00b7458a20a4b59f396f1ec264736f6c63430008030033",
  "linkReferences": {},
  "deployedLinkReferences": {}
}