{
  "_format": "hh-sol-artifact-1",
  "contractName": "TestVault",
  "sourceName": "contracts/Vault.sol",
  "abi": [
    {
      "inputs": [
        {
          "internalType": "address",
          "name": "_base",
          "type": "address"
        }
      ],
      "stateMutability": "nonpayable",
      "type": "constructor"
    },
    {
      "inputs": [],
      "name": "BASE",
      "outputs": [
        {
          "internalType": "address",
          "name": "",
          "type": "address"
        }
      ],
      "stateMutability": "view",
      "type": "function"
    },
    {
      "inputs": [],
      "name": "DEPLOYER",
      "outputs": [
        {
          "internalType": "address",
          "name": "",
          "type": "address"
        }
      ],
      "stateMutability": "view",
      "type": "function"
    },
    {
      "inputs": [
        {
          "internalType": "address",
          "name": "token",
          "type": "address"
        },
        {
          "internalType": "uint256",
          "name": "amount",
          "type": "uint256"
        },
        {
          "internalType": "address",
          "name": "token2",
          "type": "address"
        },
        {
          "internalType": "uint256",
          "name": "amount2",
          "type": "uint256"
        },
        {
          "internalType": "address",
          "name": "member",
          "type": "address"
        }
      ],
      "name": "add",
      "outputs": [
        {
          "internalType": "bool",
          "name": "",
          "type": "bool"
        }
      ],
      "stateMutability": "nonpayable",
      "type": "function"
    },
    {
      "inputs": [
        {
          "internalType": "bytes",
          "name": "hw",
          "type": "bytes"
        }
      ],
      "name": "bytesToString",
      "outputs": [
        {
          "internalType": "string",
          "name": "",
          "type": "string"
        }
      ],
      "stateMutability": "pure",
      "type": "function"
    },
    {
      "inputs": [
        {
          "internalType": "address",
          "name": "token",
          "type": "address"
        },
        {
          "internalType": "uint256",
          "name": "amount",
          "type": "uint256"
        },
        {
          "internalType": "address",
          "name": "member",
          "type": "address"
        }
      ],
      "name": "deposit",
      "outputs": [
        {
          "internalType": "bool",
          "name": "",
          "type": "bool"
        }
      ],
      "stateMutability": "nonpayable",
      "type": "function"
    },
    {
      "inputs": [
        {
          "internalType": "bytes",
          "name": "part1",
          "type": "bytes"
        },
        {
          "internalType": "bytes",
          "name": "part2",
          "type": "bytes"
        }
      ],
      "name": "isEqual",
      "outputs": [
        {
          "internalType": "bool",
          "name": "equal",
          "type": "bool"
        }
      ],
      "stateMutability": "pure",
      "type": "function"
    },
    {
      "inputs": [
        {
          "internalType": "address",
          "name": "token",
          "type": "address"
        },
        {
          "internalType": "uint256",
          "name": "amount",
          "type": "uint256"
        },
        {
          "internalType": "address",
          "name": "member",
          "type": "address"
        },
        {
          "internalType": "bytes",
          "name": "data",
          "type": "bytes"
        }
      ],
      "name": "onTokenApproval",
      "outputs": [
        {
          "internalType": "bool",
          "name": "",
          "type": "bool"
        }
      ],
      "stateMutability": "nonpayable",
      "type": "function"
    },
    {
      "inputs": [
        {
          "internalType": "string",
          "name": "s",
          "type": "string"
        }
      ],
      "name": "stringToBytes",
      "outputs": [
        {
          "internalType": "bytes",
          "name": "",
          "type": "bytes"
        }
      ],
      "stateMutability": "pure",
      "type": "function"
    }
  ],
  "bytecode": "0x608060405234801561001057600080fd5b50604051610f54380380610f54833981810160405281019061003291906100ce565b806000806101000a81548173ffffffffffffffffffffffffffffffffffffffff021916908373ffffffffffffffffffffffffffffffffffffffff16021790555033600160006101000a81548173ffffffffffffffffffffffffffffffffffffffff021916908373ffffffffffffffffffffffffffffffffffffffff16021790555050610140565b6000815190506100c881610129565b92915050565b6000602082840312156100e057600080fd5b60006100ee848285016100b9565b91505092915050565b600061010282610109565b9050919050565b600073ffffffffffffffffffffffffffffffffffffffff82169050919050565b610132816100f7565b811461013d57600080fd5b50565b610e058061014f6000396000f3fe608060405234801561001057600080fd5b50600436106100885760003560e01c8063c1b8411a1161005b578063c1b8411a1461014d578063e106fb4b1461016b578063ec342ad01461019b578063f45346dc146101b957610088565b80631ac562a71461008d57806334359808146100bd57806339614e4f146100ed578063afbe3d6f1461011d575b600080fd5b6100a760048036038101906100a291906107ac565b6101e9565b6040516100b49190610b1c565b60405180910390f35b6100d760048036038101906100d29190610936565b6102bc565b6040516100e49190610b1c565b60405180910390f35b610107600480360381019061010291906108f5565b610374565b6040516101149190610b59565b60405180910390f35b6101376004803603810190610132919061082c565b61037e565b6040516101449190610b1c565b60405180910390f35b6101556104ad565b6040516101629190610aca565b60405180910390f35b610185600480360381019061018091906109a2565b6104d3565b6040516101929190610b37565b60405180910390f35b6101a36104dd565b6040516101b09190610aca565b60405180910390f35b6101d360048036038101906101ce919061075d565b610501565b6040516101e09190610b1c565b60405180910390f35b600061027683838080601f016020809104026020016040519081016040528093929190818152602001838380828437600081840152601f19601f820116905080830192505050505050506102716040518060400160405280600781526020017f4445504f534954000000000000000000000000000000000000000000000000008152506104d3565b6102bc565b1561028c57610286868686610501565b506102b3565b600080848481019061029e9190610721565b915091506102af888884848a61037e565b5050505b95945050505050565b60006002826040516102ce9190610ab3565b602060405180830381855afa1580156102eb573d6000803e3d6000fd5b5050506040513d601f19601f8201168201806040525081019061030e91906108cc565b60028460405161031e9190610ab3565b602060405180830381855afa15801561033b573d6000803e3d6000fd5b5050506040513d601f19601f8201168201806040525081019061035e91906108cc565b141561036d576001905061036e565b5b92915050565b6060819050919050565b60008573ffffffffffffffffffffffffffffffffffffffff166323b872dd8330886040518463ffffffff1660e01b81526004016103bd93929190610ae5565b602060405180830381600087803b1580156103d757600080fd5b505af11580156103eb573d6000803e3d6000fd5b505050506040513d601f19601f8201168201806040525081019061040f91906108a3565b508373ffffffffffffffffffffffffffffffffffffffff166323b872dd8330866040518463ffffffff1660e01b815260040161044d93929190610ae5565b602060405180830381600087803b15801561046757600080fd5b505af115801561047b573d6000803e3d6000fd5b505050506040513d601f19601f8201168201806040525081019061049f91906108a3565b506001905095945050505050565b600160009054906101000a900473ffffffffffffffffffffffffffffffffffffffff1681565b6060819050919050565b60008054906101000a900473ffffffffffffffffffffffffffffffffffffffff1681565b60008373ffffffffffffffffffffffffffffffffffffffff166323b872dd8330866040518463ffffffff1660e01b815260040161054093929190610ae5565b602060405180830381600087803b15801561055a57600080fd5b505af115801561056e573d6000803e3d6000fd5b505050506040513d601f19601f8201168201806040525081019061059291906108a3565b50600190509392505050565b60006105b16105ac84610ba0565b610b7b565b9050828152602081018484840111156105c957600080fd5b6105d4848285610ca9565b509392505050565b60006105ef6105ea84610bd1565b610b7b565b90508281526020810184848401111561060757600080fd5b610612848285610ca9565b509392505050565b60008135905061062981610d5c565b92915050565b60008135905061063e81610d73565b92915050565b60008151905061065381610d8a565b92915050565b60008151905061066881610da1565b92915050565b60008083601f84011261068057600080fd5b8235905067ffffffffffffffff81111561069957600080fd5b6020830191508360018202830111156106b157600080fd5b9250929050565b600082601f8301126106c957600080fd5b81356106d984826020860161059e565b91505092915050565b600082601f8301126106f357600080fd5b81356107038482602086016105dc565b91505092915050565b60008135905061071b81610db8565b92915050565b6000806040838503121561073457600080fd5b60006107428582860161062f565b92505060206107538582860161070c565b9150509250929050565b60008060006060848603121561077257600080fd5b60006107808682870161061a565b93505060206107918682870161070c565b92505060406107a28682870161061a565b9150509250925092565b6000806000806000608086880312156107c457600080fd5b60006107d28882890161061a565b95505060206107e38882890161070c565b94505060406107f48882890161061a565b935050606086013567ffffffffffffffff81111561081157600080fd5b61081d8882890161066e565b92509250509295509295909350565b600080600080600060a0868803121561084457600080fd5b60006108528882890161061a565b95505060206108638882890161070c565b94505060406108748882890161061a565b93505060606108858882890161070c565b92505060806108968882890161061a565b9150509295509295909350565b6000602082840312156108b557600080fd5b60006108c384828501610644565b91505092915050565b6000602082840312156108de57600080fd5b60006108ec84828501610659565b91505092915050565b60006020828403121561090757600080fd5b600082013567ffffffffffffffff81111561092157600080fd5b61092d848285016106b8565b91505092915050565b6000806040838503121561094957600080fd5b600083013567ffffffffffffffff81111561096357600080fd5b61096f858286016106b8565b925050602083013567ffffffffffffffff81111561098c57600080fd5b610998858286016106b8565b9150509250929050565b6000602082840312156109b457600080fd5b600082013567ffffffffffffffff8111156109ce57600080fd5b6109da848285016106e2565b91505092915050565b6109ec81610c45565b82525050565b6109fb81610c69565b82525050565b6000610a0c82610c02565b610a168185610c18565b9350610a26818560208601610cb8565b610a2f81610d4b565b840191505092915050565b6000610a4582610c02565b610a4f8185610c29565b9350610a5f818560208601610cb8565b80840191505092915050565b6000610a7682610c0d565b610a808185610c34565b9350610a90818560208601610cb8565b610a9981610d4b565b840191505092915050565b610aad81610c9f565b82525050565b6000610abf8284610a3a565b915081905092915050565b6000602082019050610adf60008301846109e3565b92915050565b6000606082019050610afa60008301866109e3565b610b0760208301856109e3565b610b146040830184610aa4565b949350505050565b6000602082019050610b3160008301846109f2565b92915050565b60006020820190508181036000830152610b518184610a01565b905092915050565b60006020820190508181036000830152610b738184610a6b565b905092915050565b6000610b85610b96565b9050610b918282610ceb565b919050565b6000604051905090565b600067ffffffffffffffff821115610bbb57610bba610d1c565b5b610bc482610d4b565b9050602081019050919050565b600067ffffffffffffffff821115610bec57610beb610d1c565b5b610bf582610d4b565b9050602081019050919050565b600081519050919050565b600081519050919050565b600082825260208201905092915050565b600081905092915050565b600082825260208201905092915050565b6000610c5082610c7f565b9050919050565b6000610c6282610c7f565b9050919050565b60008115159050919050565b6000819050919050565b600073ffffffffffffffffffffffffffffffffffffffff82169050919050565b6000819050919050565b82818337600083830152505050565b60005b83811015610cd6578082015181840152602081019050610cbb565b83811115610ce5576000848401525b50505050565b610cf482610d4b565b810181811067ffffffffffffffff82111715610d1357610d12610d1c565b5b80604052505050565b7f4e487b7100000000000000000000000000000000000000000000000000000000600052604160045260246000fd5b6000601f19601f8301169050919050565b610d6581610c45565b8114610d7057600080fd5b50565b610d7c81610c57565b8114610d8757600080fd5b50565b610d9381610c69565b8114610d9e57600080fd5b50565b610daa81610c75565b8114610db557600080fd5b50565b610dc181610c9f565b8114610dcc57600080fd5b5056fea2646970667358221220ee7a887a36c98afb6d4e1f3c529cff7543946775cccc4f888c3ee816475f423864736f6c63430008030033",
  "linkReferences": {},
  "deployedLinkReferences": {}
}