{
  "_format": "hh-sol-artifact-1",
  "contractName": "Router",
  "sourceName": "contracts/Router.sol",
  "abi": [
    {
      "inputs": [
        {
          "internalType": "address",
          "name": "_base",
          "type": "address"
        },
        {
          "internalType": "address",
          "name": "_wbnb",
          "type": "address"
        }
      ],
      "stateMutability": "nonpayable",
      "type": "constructor"
    },
    {
      "inputs": [],
      "name": "BASE",
      "outputs": [
        {
          "internalType": "address",
          "name": "",
          "type": "address"
        }
      ],
      "stateMutability": "view",
      "type": "function"
    },
    {
      "inputs": [],
      "name": "DEPLOYER",
      "outputs": [
        {
          "internalType": "address",
          "name": "",
          "type": "address"
        }
      ],
      "stateMutability": "view",
      "type": "function"
    },
    {
      "inputs": [
        {
          "internalType": "uint256",
          "name": "poolRTC",
          "type": "uint256"
        },
        {
          "internalType": "address",
          "name": "_pool",
          "type": "address"
        }
      ],
      "name": "RTC",
      "outputs": [],
      "stateMutability": "nonpayable",
      "type": "function"
    },
    {
      "inputs": [],
      "name": "WBNB",
      "outputs": [
        {
          "internalType": "address",
          "name": "",
          "type": "address"
        }
      ],
      "stateMutability": "view",
      "type": "function"
    },
    {
      "inputs": [
        {
          "internalType": "uint256",
          "name": "inputToken",
          "type": "uint256"
        },
        {
          "internalType": "uint256",
          "name": "baseAmount",
          "type": "uint256"
        },
        {
          "internalType": "address",
          "name": "token",
          "type": "address"
        }
      ],
      "name": "addLiquidity",
      "outputs": [],
      "stateMutability": "payable",
      "type": "function"
    },
    {
      "inputs": [
        {
          "internalType": "uint256",
          "name": "input",
          "type": "uint256"
        },
        {
          "internalType": "bool",
          "name": "fromBase",
          "type": "bool"
        },
        {
          "internalType": "address",
          "name": "token",
          "type": "address"
        }
      ],
      "name": "addLiquidityAsym",
      "outputs": [],
      "stateMutability": "payable",
      "type": "function"
    },
    {
      "inputs": [
        {
          "internalType": "uint256",
          "name": "_input",
          "type": "uint256"
        },
        {
          "internalType": "bool",
          "name": "_fromBase",
          "type": "bool"
        },
        {
          "internalType": "address",
          "name": "token",
          "type": "address"
        },
        {
          "internalType": "address",
          "name": "_member",
          "type": "address"
        }
      ],
      "name": "addLiquidityAsymForMember",
      "outputs": [],
      "stateMutability": "payable",
      "type": "function"
    },
    {
      "inputs": [
        {
          "internalType": "uint256",
          "name": "inputToken",
          "type": "uint256"
        },
        {
          "internalType": "uint256",
          "name": "baseAmount",
          "type": "uint256"
        },
        {
          "internalType": "address",
          "name": "token",
          "type": "address"
        },
        {
          "internalType": "address",
          "name": "member",
          "type": "address"
        }
      ],
      "name": "addLiquidityForMember",
      "outputs": [
        {
          "internalType": "uint256",
          "name": "LPsMinted",
          "type": "uint256"
        }
      ],
      "stateMutability": "payable",
      "type": "function"
    },
    {
      "inputs": [
        {
          "internalType": "uint256",
          "name": "amount",
          "type": "uint256"
        },
        {
          "internalType": "address",
          "name": "token",
          "type": "address"
        },
        {
          "internalType": "address",
          "name": "member",
          "type": "address"
        },
        {
          "internalType": "uint256",
          "name": "minAmount",
          "type": "uint256"
        }
      ],
      "name": "buyTo",
      "outputs": [],
      "stateMutability": "nonpayable",
      "type": "function"
    },
    {
      "inputs": [
        {
          "internalType": "uint256",
          "name": "_newDiviClaim",
          "type": "uint256"
        }
      ],
      "name": "changeDiviClaim",
      "outputs": [],
      "stateMutability": "nonpayable",
      "type": "function"
    },
    {
      "inputs": [
        {
          "internalType": "uint256",
          "name": "newMinimum",
          "type": "uint256"
        },
        {
          "internalType": "address",
          "name": "_pool",
          "type": "address"
        }
      ],
      "name": "changeMinimumSynth",
      "outputs": [],
      "stateMutability": "nonpayable",
      "type": "function"
    },
    {
      "inputs": [
        {
          "internalType": "uint256",
          "name": "synthCap",
          "type": "uint256"
        },
        {
          "internalType": "address",
          "name": "_pool",
          "type": "address"
        }
      ],
      "name": "changeSynthCap",
      "outputs": [],
      "stateMutability": "nonpayable",
      "type": "function"
    },
    {
      "inputs": [],
      "name": "curatedPoolsCount",
      "outputs": [
        {
          "internalType": "uint256",
          "name": "",
          "type": "uint256"
        }
      ],
      "stateMutability": "view",
      "type": "function"
    },
    {
      "inputs": [],
      "name": "diviClaim",
      "outputs": [
        {
          "internalType": "uint256",
          "name": "",
          "type": "uint256"
        }
      ],
      "stateMutability": "view",
      "type": "function"
    },
    {
      "inputs": [],
      "name": "lastMonth",
      "outputs": [
        {
          "internalType": "uint256",
          "name": "",
          "type": "uint256"
        }
      ],
      "stateMutability": "view",
      "type": "function"
    },
    {
      "inputs": [
        {
          "internalType": "address",
          "name": "",
          "type": "address"
        }
      ],
      "name": "mapAddress_30DayDividends",
      "outputs": [
        {
          "internalType": "uint256",
          "name": "",
          "type": "uint256"
        }
      ],
      "stateMutability": "view",
      "type": "function"
    },
    {
      "inputs": [
        {
          "internalType": "address",
          "name": "",
          "type": "address"
        }
      ],
      "name": "mapAddress_Past30DayPoolDividends",
      "outputs": [
        {
          "internalType": "uint256",
          "name": "",
          "type": "uint256"
        }
      ],
      "stateMutability": "view",
      "type": "function"
    },
    {
      "inputs": [],
      "name": "purgeDeployer",
      "outputs": [],
      "stateMutability": "nonpayable",
      "type": "function"
    },
    {
      "inputs": [
        {
          "internalType": "uint256",
          "name": "basisPoints",
          "type": "uint256"
        },
        {
          "internalType": "address",
          "name": "token",
          "type": "address"
        }
      ],
      "name": "removeLiquidity",
      "outputs": [],
      "stateMutability": "nonpayable",
      "type": "function"
    },
    {
      "inputs": [
        {
          "internalType": "uint256",
          "name": "basisPoints",
          "type": "uint256"
        },
        {
          "internalType": "bool",
          "name": "toBase",
          "type": "bool"
        },
        {
          "internalType": "address",
          "name": "token",
          "type": "address"
        }
      ],
      "name": "removeLiquidityAsym",
      "outputs": [],
      "stateMutability": "nonpayable",
      "type": "function"
    },
    {
      "inputs": [
        {
          "internalType": "uint256",
          "name": "units",
          "type": "uint256"
        },
        {
          "internalType": "address",
          "name": "token",
          "type": "address"
        }
      ],
      "name": "removeLiquidityExact",
      "outputs": [],
      "stateMutability": "nonpayable",
      "type": "function"
    },
    {
      "inputs": [
        {
          "internalType": "uint256",
          "name": "units",
          "type": "uint256"
        },
        {
          "internalType": "bool",
          "name": "toBase",
          "type": "bool"
        },
        {
          "internalType": "address",
          "name": "token",
          "type": "address"
        }
      ],
      "name": "removeLiquidityExactAsym",
      "outputs": [],
      "stateMutability": "nonpayable",
      "type": "function"
    },
    {
      "inputs": [
        {
          "internalType": "uint256",
          "name": "amount",
          "type": "uint256"
        },
        {
          "internalType": "address",
          "name": "token",
          "type": "address"
        },
        {
          "internalType": "address",
          "name": "member",
          "type": "address"
        },
        {
          "internalType": "uint256",
          "name": "minAmount",
          "type": "uint256"
        }
      ],
      "name": "sellTo",
      "outputs": [
        {
          "internalType": "uint256",
          "name": "",
          "type": "uint256"
        }
      ],
      "stateMutability": "payable",
      "type": "function"
    },
    {
      "inputs": [
        {
          "internalType": "uint256",
          "name": "inputAmount",
          "type": "uint256"
        },
        {
          "internalType": "address",
          "name": "fromToken",
          "type": "address"
        },
        {
          "internalType": "address",
          "name": "toToken",
          "type": "address"
        },
        {
          "internalType": "uint256",
          "name": "minAmount",
          "type": "uint256"
        }
      ],
      "name": "swap",
      "outputs": [],
      "stateMutability": "payable",
      "type": "function"
    },
    {
      "inputs": [
        {
          "internalType": "uint256",
          "name": "inputAmount",
          "type": "uint256"
        },
        {
          "internalType": "address",
          "name": "fromToken",
          "type": "address"
        },
        {
          "internalType": "address",
          "name": "toSynth",
          "type": "address"
        }
      ],
      "name": "swapAssetToSynth",
      "outputs": [],
      "stateMutability": "payable",
      "type": "function"
    },
    {
      "inputs": [
        {
          "internalType": "uint256",
          "name": "inputAmount",
          "type": "uint256"
        },
        {
          "internalType": "address",
          "name": "fromSynth",
          "type": "address"
        },
        {
          "internalType": "address",
          "name": "toToken",
          "type": "address"
        }
      ],
      "name": "swapSynthToAsset",
      "outputs": [],
      "stateMutability": "nonpayable",
      "type": "function"
    },
    {
      "inputs": [
        {
          "internalType": "uint256",
          "name": "inputAmount",
          "type": "uint256"
        },
        {
          "internalType": "address",
          "name": "fromToken",
          "type": "address"
        },
        {
          "internalType": "address",
          "name": "toToken",
          "type": "address"
        },
        {
          "internalType": "address",
          "name": "member",
          "type": "address"
        },
        {
          "internalType": "uint256",
          "name": "minAmount",
          "type": "uint256"
        }
      ],
      "name": "swapTo",
      "outputs": [],
      "stateMutability": "payable",
      "type": "function"
    },
    {
      "inputs": [
        {
          "internalType": "uint256",
          "name": "unitsInput",
          "type": "uint256"
        },
        {
          "internalType": "address",
          "name": "fromPool",
          "type": "address"
        },
        {
          "internalType": "address",
          "name": "toPool",
          "type": "address"
        }
      ],
      "name": "zapLiquidity",
      "outputs": [],
      "stateMutability": "nonpayable",
      "type": "function"
    },
    {
      "stateMutability": "payable",
      "type": "receive"
    }
  ],
  "bytecode": "0x60c06040523480156200001157600080fd5b50604051620080a4380380620080a48339818101604052810190620000379190620001fb565b6001600081905550600073ffffffffffffffffffffffffffffffffffffffff168273ffffffffffffffffffffffffffffffffffffffff161415620000b2576040517f08c379a0000000000000000000000000000000000000000000000000000000008152600401620000a99062000263565b60405180910390fd5b600073ffffffffffffffffffffffffffffffffffffffff168173ffffffffffffffffffffffffffffffffffffffff16141562000125576040517f08c379a00000000000000000000000000000000000000000000000000000000081526004016200011c9062000263565b60405180910390fd5b8173ffffffffffffffffffffffffffffffffffffffff1660808173ffffffffffffffffffffffffffffffffffffffff1660601b815250508073ffffffffffffffffffffffffffffffffffffffff1660a08173ffffffffffffffffffffffffffffffffffffffff1660601b81525050606460028190555033600160006101000a81548173ffffffffffffffffffffffffffffffffffffffff021916908373ffffffffffffffffffffffffffffffffffffffff16021790555050506200030d565b600081519050620001f581620002f3565b92915050565b600080604083850312156200020f57600080fd5b60006200021f85828601620001e4565b92505060206200023285828601620001e4565b9150509250929050565b60006200024b60058362000285565b91506200025882620002ca565b602082019050919050565b600060208201905081810360008301526200027e816200023c565b9050919050565b600082825260208201905092915050565b6000620002a382620002aa565b9050919050565b600073ffffffffffffffffffffffffffffffffffffffff82169050919050565b7f215a45524f000000000000000000000000000000000000000000000000000000600082015250565b620002fe8162000296565b81146200030a57600080fd5b50565b60805160601c60a05160601c617c456200045f600039600081816112770152818161271e01528181612b050152818161320701528181613f79015281816156e401528181615b6001528181615d950152818161675f01526168290152600081816113d50152818161146b015281816114a8015281816116040152818161164101528181611c3b01528181611c9c01528181611cd901528181611df7015281816122ec015281816124240152818161248901528181612b3201528181612b5d01528181612c2201528181612c4301528181612dc801528181612e5d01528181612e7e0152818161341601528181613ae501528181613dc201528181613de301528181614ae101528181614b7301528181614bb201528181614d6301528181614da0015281816156370152818161579d015281816157f001528181615a0401528181615c6601526169bb0152617c456000f3fe6080604052600436106101bb5760003560e01c80638dd95002116100ec578063b45e1dbc1161008a578063cbb3a14a11610064578063cbb3a14a14610569578063ec342ad0146105a6578063ee85eda4146105d1578063f48610f3146105fc576101c2565b8063b45e1dbc146104ec578063c1b8411a14610515578063c8c1fb7514610540576101c2565b80639ea5705a116100c65780639ea5705a14610455578063a1cd6aa51461047e578063aa62519b146104a7578063b3a14007146104c3576101c2565b80638dd95002146103cf57806393cac685146103fa57806399d786ca1461042a576101c2565b8063398ceaae116101595780636325681e116101335780636325681e1461035257806370085be01461036e57806387b21efc1461038a5780638b697c20146103a6576101c2565b8063398ceaae146102ce5780633e384a95146102f9578063451918db14610315576101c2565b806307f4d34c1161019557806307f4d34c146102305780631e2dd515146102595780633173ec3c14610282578063334ea1331461029e576101c2565b8063022c4437146101c757806303a82138146101f057806305fe138b14610207576101c2565b366101c257005b600080fd5b3480156101d357600080fd5b506101ee60048036038101906101e99190617205565b610625565b005b3480156101fc57600080fd5b506102056107a8565b005b34801561021357600080fd5b5061022e60048036038101906102299190617205565b610900565b005b34801561023c57600080fd5b50610257600480360381019061025291906171b3565b610bf9565b005b34801561026557600080fd5b50610280600480360381019061027b919061736a565b610d67565b005b61029c60048036038101906102979190617241565b61189b565b005b6102b860048036038101906102b39190617307565b6120d8565b6040516102c59190617846565b60405180910390f35b3480156102da57600080fd5b506102e36123e3565b6040516102f09190617846565b60405180910390f35b610313600480360381019061030e9190617290565b6123e9565b005b34801561032157600080fd5b5061033c6004803603810190610337919061710f565b6128ca565b6040516103499190617846565b60405180910390f35b61036c600480360381019061036791906173b9565b6128e2565b005b61038860048036038101906103839190617307565b61305d565b005b6103a4600480360381019061039f9190617458565b613070565b005b3480156103b257600080fd5b506103cd60048036038101906103c89190617205565b613082565b005b3480156103db57600080fd5b506103e4613205565b6040516103f19190617687565b60405180910390f35b610414600480360381019061040f91906174a7565b613229565b6040516104219190617846565b60405180910390f35b34801561043657600080fd5b5061043f6134e7565b60405161044c9190617846565b60405180910390f35b34801561046157600080fd5b5061047c60048036038101906104779190617205565b6134ed565b005b34801561048a57600080fd5b506104a560048036038101906104a09190617241565b613670565b005b6104c160048036038101906104bc919061736a565b614198565b005b3480156104cf57600080fd5b506104ea60048036038101906104e5919061736a565b6141a9565b005b3480156104f857600080fd5b50610513600480360381019061050e9190617241565b6144a4565b005b34801561052157600080fd5b5061052a615074565b6040516105379190617687565b60405180910390f35b34801561054c57600080fd5b5061056760048036038101906105629190617205565b61509a565b005b34801561057557600080fd5b50610590600480360381019061058b919061710f565b6157d6565b60405161059d9190617846565b60405180910390f35b3480156105b257600080fd5b506105bb6157ee565b6040516105c89190617687565b60405180910390f35b3480156105dd57600080fd5b506105e6615812565b6040516105f39190617846565b60405180910390f35b34801561060857600080fd5b50610623600480360381019061061e9190617307565b615818565b005b61062d615c62565b73ffffffffffffffffffffffffffffffffffffffff166398fabd3a6040518163ffffffff1660e01b815260040160206040518083038186803b15801561067257600080fd5b505afa158015610686573d6000803e3d6000fd5b505050506040513d601f19601f820116820180604052508101906106aa9190617138565b73ffffffffffffffffffffffffffffffffffffffff163373ffffffffffffffffffffffffffffffffffffffff1614806107305750600160009054906101000a900473ffffffffffffffffffffffffffffffffffffffff1673ffffffffffffffffffffffffffffffffffffffff163373ffffffffffffffffffffffffffffffffffffffff16145b61073957600080fd5b8073ffffffffffffffffffffffffffffffffffffffff1663308aca1d836040518263ffffffff1660e01b81526004016107729190617846565b600060405180830381600087803b15801561078c57600080fd5b505af11580156107a0573d6000803e3d6000fd5b505050505050565b6107b0615c62565b73ffffffffffffffffffffffffffffffffffffffff166398fabd3a6040518163ffffffff1660e01b815260040160206040518083038186803b1580156107f557600080fd5b505afa158015610809573d6000803e3d6000fd5b505050506040513d601f19601f8201168201806040525081019061082d9190617138565b73ffffffffffffffffffffffffffffffffffffffff163373ffffffffffffffffffffffffffffffffffffffff1614806108b35750600160009054906101000a900473ffffffffffffffffffffffffffffffffffffffff1673ffffffffffffffffffffffffffffffffffffffff163373ffffffffffffffffffffffffffffffffffffffff16145b6108bc57600080fd5b6000600160006101000a81548173ffffffffffffffffffffffffffffffffffffffff021916908373ffffffffffffffffffffffffffffffffffffffff160217905550565b60008211610943576040517f08c379a000000000000000000000000000000000000000000000000000000000815260040161093a90617786565b60405180910390fd5b600061094d615c62565b73ffffffffffffffffffffffffffffffffffffffff16637b0e5c456040518163ffffffff1660e01b815260040160206040518083038186803b15801561099257600080fd5b505afa1580156109a6573d6000803e3d6000fd5b505050506040513d601f19601f820116820180604052508101906109ca9190617138565b73ffffffffffffffffffffffffffffffffffffffff1663714270ab846109ee615c62565b73ffffffffffffffffffffffffffffffffffffffff1663b99b0a0c6040518163ffffffff1660e01b815260040160206040518083038186803b158015610a3357600080fd5b505afa158015610a47573d6000803e3d6000fd5b505050506040513d601f19601f82011682018060405250810190610a6b9190617138565b73ffffffffffffffffffffffffffffffffffffffff1663bbe4f6db866040518263ffffffff1660e01b8152600401610aa39190617687565b60206040518083038186803b158015610abb57600080fd5b505afa158015610acf573d6000803e3d6000fd5b505050506040513d601f19601f82011682018060405250810190610af39190617138565b73ffffffffffffffffffffffffffffffffffffffff166370a08231336040518263ffffffff1660e01b8152600401610b2b9190617687565b60206040518083038186803b158015610b4357600080fd5b505afa158015610b57573d6000803e3d6000fd5b505050506040513d601f19601f82011682018060405250810190610b7b91906171dc565b6040518363ffffffff1660e01b8152600401610b9892919061788a565b60206040518083038186803b158015610bb057600080fd5b505afa158015610bc4573d6000803e3d6000fd5b505050506040513d601f19601f82011682018060405250810190610be891906171dc565b9050610bf4818361509a565b505050565b610c01615c62565b73ffffffffffffffffffffffffffffffffffffffff166398fabd3a6040518163ffffffff1660e01b815260040160206040518083038186803b158015610c4657600080fd5b505afa158015610c5a573d6000803e3d6000fd5b505050506040513d601f19601f82011682018060405250810190610c7e9190617138565b73ffffffffffffffffffffffffffffffffffffffff163373ffffffffffffffffffffffffffffffffffffffff161480610d045750600160009054906101000a900473ffffffffffffffffffffffffffffffffffffffff1673ffffffffffffffffffffffffffffffffffffffff163373ffffffffffffffffffffffffffffffffffffffff16145b610d0d57600080fd5b600081118015610d1e575061138881105b610d5d576040517f08c379a0000000000000000000000000000000000000000000000000000000008152600401610d5490617786565b60405180910390fd5b8060028190555050565b60008311610daa576040517f08c379a0000000000000000000000000000000000000000000000000000000008152600401610da190617786565b60405180910390fd5b60011515610db6615c62565b73ffffffffffffffffffffffffffffffffffffffff16639d2cc4366040518163ffffffff1660e01b815260040160206040518083038186803b158015610dfb57600080fd5b505afa158015610e0f573d6000803e3d6000fd5b505050506040513d601f19601f82011682018060405250810190610e339190617138565b73ffffffffffffffffffffffffffffffffffffffff1663194e22ce6040518163ffffffff1660e01b8152600401602060405180830381600087803b158015610e7a57600080fd5b505af1158015610e8e573d6000803e3d6000fd5b505050506040513d601f19601f82011682018060405250810190610eb29190617161565b15151415610ef5576040517f08c379a0000000000000000000000000000000000000000000000000000000008152600401610eec906177e6565b60405180910390fd5b6000610eff615c62565b73ffffffffffffffffffffffffffffffffffffffff1663b99b0a0c6040518163ffffffff1660e01b815260040160206040518083038186803b158015610f4457600080fd5b505afa158015610f58573d6000803e3d6000fd5b505050506040513d601f19601f82011682018060405250810190610f7c9190617138565b905060008173ffffffffffffffffffffffffffffffffffffffff1663bbe4f6db846040518263ffffffff1660e01b8152600401610fb99190617687565b60206040518083038186803b158015610fd157600080fd5b505afa158015610fe5573d6000803e3d6000fd5b505050506040513d601f19601f820116820180604052508101906110099190617138565b9050600115158273ffffffffffffffffffffffffffffffffffffffff16635b16ebb7836040518263ffffffff1660e01b81526004016110489190617687565b602060405180830381600087803b15801561106257600080fd5b505af1158015611076573d6000803e3d6000fd5b505050506040513d601f19601f8201168201806040525081019061109a9190617161565b1515146110dc576040517f08c379a00000000000000000000000000000000000000000000000000000000081526004016110d390617746565b60405180910390fd5b60003390508173ffffffffffffffffffffffffffffffffffffffff166323b872dd8284896040518463ffffffff1660e01b815260040161111e939291906176cb565b602060405180830381600087803b15801561113857600080fd5b505af115801561114c573d6000803e3d6000fd5b505050506040513d601f19601f820116820180604052508101906111709190617161565b6111af576040517f08c379a00000000000000000000000000000000000000000000000000000000081526004016111a6906177c6565b60405180910390fd5b8173ffffffffffffffffffffffffffffffffffffffff1663bc5dedc9306040518263ffffffff1660e01b81526004016111e89190617687565b6040805180830381600087803b15801561120157600080fd5b505af1158015611215573d6000803e3d6000fd5b505050506040513d601f19601f82011682018060405250810190611239919061741c565b50506000849050600073ffffffffffffffffffffffffffffffffffffffff168573ffffffffffffffffffffffffffffffffffffffff161415611299577f000000000000000000000000000000000000000000000000000000000000000090505b60008615611602578173ffffffffffffffffffffffffffffffffffffffff1663a9059cbb858473ffffffffffffffffffffffffffffffffffffffff166370a08231306040518263ffffffff1660e01b81526004016112f79190617687565b60206040518083038186803b15801561130f57600080fd5b505afa158015611323573d6000803e3d6000fd5b505050506040513d601f19601f8201168201806040525081019061134791906171dc565b6040518363ffffffff1660e01b8152600401611364929190617702565b602060405180830381600087803b15801561137e57600080fd5b505af1158015611392573d6000803e3d6000fd5b505050506040513d601f19601f820116820180604052508101906113b69190617161565b508373ffffffffffffffffffffffffffffffffffffffff16632783e4a97f0000000000000000000000000000000000000000000000000000000000000000306040518363ffffffff1660e01b81526004016114129291906176a2565b6040805180830381600087803b15801561142b57600080fd5b505af115801561143f573d6000803e3d6000fd5b505050506040513d601f19601f82011682018060405250810190611463919061741c565b9050809150507f000000000000000000000000000000000000000000000000000000000000000073ffffffffffffffffffffffffffffffffffffffff1663a9059cbb847f000000000000000000000000000000000000000000000000000000000000000073ffffffffffffffffffffffffffffffffffffffff166370a08231306040518263ffffffff1660e01b81526004016114ff9190617687565b60206040518083038186803b15801561151757600080fd5b505afa15801561152b573d6000803e3d6000fd5b505050506040513d601f19601f8201168201806040525081019061154f91906171dc565b6040518363ffffffff1660e01b815260040161156c929190617702565b602060405180830381600087803b15801561158657600080fd5b505af115801561159a573d6000803e3d6000fd5b505050506040513d601f19601f820116820180604052508101906115be9190617161565b6115fd576040517f08c379a00000000000000000000000000000000000000000000000000000000081526004016115f4906177c6565b60405180910390fd5b61187e565b7f000000000000000000000000000000000000000000000000000000000000000073ffffffffffffffffffffffffffffffffffffffff1663a9059cbb857f000000000000000000000000000000000000000000000000000000000000000073ffffffffffffffffffffffffffffffffffffffff166370a08231306040518263ffffffff1660e01b81526004016116989190617687565b60206040518083038186803b1580156116b057600080fd5b505afa1580156116c4573d6000803e3d6000fd5b505050506040513d601f19601f820116820180604052508101906116e891906171dc565b6040518363ffffffff1660e01b8152600401611705929190617702565b602060405180830381600087803b15801561171f57600080fd5b505af1158015611733573d6000803e3d6000fd5b505050506040513d601f19601f820116820180604052508101906117579190617161565b508373ffffffffffffffffffffffffffffffffffffffff16632783e4a983306040518363ffffffff1660e01b81526004016117939291906176a2565b6040805180830381600087803b1580156117ac57600080fd5b505af11580156117c0573d6000803e3d6000fd5b505050506040513d601f19601f820116820180604052508101906117e4919061741c565b90508091505061187d868373ffffffffffffffffffffffffffffffffffffffff166370a08231306040518263ffffffff1660e01b81526004016118279190617687565b60206040518083038186803b15801561183f57600080fd5b505afa158015611853573d6000803e3d6000fd5b505050506040513d601f19601f8201168201806040525081019061187791906171dc565b85615d07565b5b61188784615fab565b611891848261654e565b5050505050505050565b600083116118de576040517f08c379a00000000000000000000000000000000000000000000000000000000081526004016118d590617786565b60405180910390fd5b8073ffffffffffffffffffffffffffffffffffffffff168273ffffffffffffffffffffffffffffffffffffffff16141561191757600080fd5b60011515611923615c62565b73ffffffffffffffffffffffffffffffffffffffff16639d2cc4366040518163ffffffff1660e01b815260040160206040518083038186803b15801561196857600080fd5b505afa15801561197c573d6000803e3d6000fd5b505050506040513d601f19601f820116820180604052508101906119a09190617138565b73ffffffffffffffffffffffffffffffffffffffff1663194e22ce6040518163ffffffff1660e01b8152600401602060405180830381600087803b1580156119e757600080fd5b505af11580156119fb573d6000803e3d6000fd5b505050506040513d601f19601f82011682018060405250810190611a1f9190617161565b15151415611a62576040517f08c379a0000000000000000000000000000000000000000000000000000000008152600401611a59906177e6565b60405180910390fd5b60008173ffffffffffffffffffffffffffffffffffffffff16637535d2466040518163ffffffff1660e01b815260040160206040518083038186803b158015611aaa57600080fd5b505afa158015611abe573d6000803e3d6000fd5b505050506040513d601f19601f82011682018060405250810190611ae29190617138565b905060011515611af0615c62565b73ffffffffffffffffffffffffffffffffffffffff1663b99b0a0c6040518163ffffffff1660e01b815260040160206040518083038186803b158015611b3557600080fd5b505afa158015611b49573d6000803e3d6000fd5b505050506040513d601f19601f82011682018060405250810190611b6d9190617138565b73ffffffffffffffffffffffffffffffffffffffff16635b16ebb7836040518263ffffffff1660e01b8152600401611ba59190617687565b602060405180830381600087803b158015611bbf57600080fd5b505af1158015611bd3573d6000803e3d6000fd5b505050506040513d601f19601f82011682018060405250810190611bf79190617161565b151514611c39576040517f08c379a0000000000000000000000000000000000000000000000000000000008152600401611c3090617746565b60405180910390fd5b7f000000000000000000000000000000000000000000000000000000000000000073ffffffffffffffffffffffffffffffffffffffff168373ffffffffffffffffffffffffffffffffffffffff1614611df557611c9984843060006120d8565b507f000000000000000000000000000000000000000000000000000000000000000073ffffffffffffffffffffffffffffffffffffffff1663a9059cbb827f000000000000000000000000000000000000000000000000000000000000000073ffffffffffffffffffffffffffffffffffffffff166370a08231306040518263ffffffff1660e01b8152600401611d309190617687565b60206040518083038186803b158015611d4857600080fd5b505afa158015611d5c573d6000803e3d6000fd5b505050506040513d601f19601f82011682018060405250810190611d8091906171dc565b6040518363ffffffff1660e01b8152600401611d9d929190617702565b602060405180830381600087803b158015611db757600080fd5b505af1158015611dcb573d6000803e3d6000fd5b505050506040513d601f19601f82011682018060405250810190611def9190617161565b50611ee4565b7f000000000000000000000000000000000000000000000000000000000000000073ffffffffffffffffffffffffffffffffffffffff166323b872dd3383876040518463ffffffff1660e01b8152600401611e52939291906176cb565b602060405180830381600087803b158015611e6c57600080fd5b505af1158015611e80573d6000803e3d6000fd5b505050506040513d601f19601f82011682018060405250810190611ea49190617161565b611ee3576040517f08c379a0000000000000000000000000000000000000000000000000000000008152600401611eda906177c6565b60405180910390fd5b5b60008173ffffffffffffffffffffffffffffffffffffffff1663f1bbdef2336040518263ffffffff1660e01b8152600401611f1f9190617687565b6040805180830381600087803b158015611f3857600080fd5b505af1158015611f4c573d6000803e3d6000fd5b505050506040513d601f19601f82011682018060405250810190611f70919061741c565b915050611f7c82615fab565b611f86828261654e565b60011515611f92615c62565b73ffffffffffffffffffffffffffffffffffffffff16639d2cc4366040518163ffffffff1660e01b815260040160206040518083038186803b158015611fd757600080fd5b505afa158015611feb573d6000803e3d6000fd5b505050506040513d601f19601f8201168201806040525081019061200f9190617138565b73ffffffffffffffffffffffffffffffffffffffff1663194e22ce6040518163ffffffff1660e01b8152600401602060405180830381600087803b15801561205657600080fd5b505af115801561206a573d6000803e3d6000fd5b505050506040513d601f19601f8201168201806040525081019061208e9190617161565b151514156120d1576040517f08c379a00000000000000000000000000000000000000000000000000000000081526004016120c8906177e6565b60405180910390fd5b5050505050565b6000806120e3615c62565b73ffffffffffffffffffffffffffffffffffffffff1663b99b0a0c6040518163ffffffff1660e01b815260040160206040518083038186803b15801561212857600080fd5b505afa15801561213c573d6000803e3d6000fd5b505050506040513d601f19601f820116820180604052508101906121609190617138565b905060008173ffffffffffffffffffffffffffffffffffffffff1663bbe4f6db876040518263ffffffff1660e01b815260040161219d9190617687565b60206040518083038186803b1580156121b557600080fd5b505afa1580156121c9573d6000803e3d6000fd5b505050506040513d601f19601f820116820180604052508101906121ed9190617138565b9050600115158273ffffffffffffffffffffffffffffffffffffffff16635b16ebb7836040518263ffffffff1660e01b815260040161222c9190617687565b602060405180830381600087803b15801561224657600080fd5b505af115801561225a573d6000803e3d6000fd5b505050506040513d601f19601f8201168201806040525081019061227e9190617161565b1515146122c0576040517f08c379a00000000000000000000000000000000000000000000000000000000081526004016122b790617746565b60405180910390fd5b6122cb868883616689565b6000808273ffffffffffffffffffffffffffffffffffffffff16632783e4a97f0000000000000000000000000000000000000000000000000000000000000000896040518363ffffffff1660e01b81526004016123299291906176a2565b6040805180830381600087803b15801561234257600080fd5b505af1158015612356573d6000803e3d6000fd5b505050506040513d601f19601f8201168201806040525081019061237a919061741c565b91509150858210156123c1576040517f08c379a00000000000000000000000000000000000000000000000000000000081526004016123b8906177a6565b60405180910390fd5b6123ca83615fab565b6123d4838261654e565b80945050505050949350505050565b60045481565b8273ffffffffffffffffffffffffffffffffffffffff168473ffffffffffffffffffffffffffffffffffffffff16141561242257600080fd5b7f000000000000000000000000000000000000000000000000000000000000000073ffffffffffffffffffffffffffffffffffffffff168473ffffffffffffffffffffffffffffffffffffffff1614156124875761248285848484615818565b6128c3565b7f000000000000000000000000000000000000000000000000000000000000000073ffffffffffffffffffffffffffffffffffffffff168373ffffffffffffffffffffffffffffffffffffffff1614156124ed576124e7858584846120d8565b506128c2565b60006124f7615c62565b73ffffffffffffffffffffffffffffffffffffffff1663b99b0a0c6040518163ffffffff1660e01b815260040160206040518083038186803b15801561253c57600080fd5b505afa158015612550573d6000803e3d6000fd5b505050506040513d601f19601f820116820180604052508101906125749190617138565b905060008173ffffffffffffffffffffffffffffffffffffffff1663bbe4f6db866040518263ffffffff1660e01b81526004016125b19190617687565b60206040518083038186803b1580156125c957600080fd5b505afa1580156125dd573d6000803e3d6000fd5b505050506040513d601f19601f820116820180604052508101906126019190617138565b9050600115158273ffffffffffffffffffffffffffffffffffffffff16635b16ebb7836040518263ffffffff1660e01b81526004016126409190617687565b602060405180830381600087803b15801561265a57600080fd5b505af115801561266e573d6000803e3d6000fd5b505050506040513d601f19601f820116820180604052508101906126929190617161565b1515146126d4576040517f08c379a00000000000000000000000000000000000000000000000000000000081526004016126cb90617746565b60405180910390fd5b6126e187878360006120d8565b506000859050600073ffffffffffffffffffffffffffffffffffffffff168673ffffffffffffffffffffffffffffffffffffffff161415612740577f000000000000000000000000000000000000000000000000000000000000000090505b6000808373ffffffffffffffffffffffffffffffffffffffff16632783e4a984306040518363ffffffff1660e01b815260040161277e9291906176a2565b6040805180830381600087803b15801561279757600080fd5b505af11580156127ab573d6000803e3d6000fd5b505050506040513d601f19601f820116820180604052508101906127cf919061741c565b9150915085821015612816576040517f08c379a000000000000000000000000000000000000000000000000000000000815260040161280d906177a6565b60405180910390fd5b61281f84615fab565b612829848261654e565b6128bc888473ffffffffffffffffffffffffffffffffffffffff166370a08231306040518263ffffffff1660e01b81526004016128669190617687565b60206040518083038186803b15801561287e57600080fd5b505afa158015612892573d6000803e3d6000fd5b505050506040513d601f19601f820116820180604052508101906128b691906171dc565b89615d07565b50505050505b5b5050505050565b60066020528060005260406000206000915090505481565b60006128ec615c62565b73ffffffffffffffffffffffffffffffffffffffff1663b99b0a0c6040518163ffffffff1660e01b815260040160206040518083038186803b15801561293157600080fd5b505afa158015612945573d6000803e3d6000fd5b505050506040513d601f19601f820116820180604052508101906129699190617138565b905060008173ffffffffffffffffffffffffffffffffffffffff1663bbe4f6db856040518263ffffffff1660e01b81526004016129a69190617687565b60206040518083038186803b1580156129be57600080fd5b505afa1580156129d2573d6000803e3d6000fd5b505050506040513d601f19601f820116820180604052508101906129f69190617138565b9050600115158273ffffffffffffffffffffffffffffffffffffffff16635b16ebb7836040518263ffffffff1660e01b8152600401612a359190617687565b602060405180830381600087803b158015612a4f57600080fd5b505af1158015612a63573d6000803e3d6000fd5b505050506040513d601f19601f82011682018060405250810190612a879190617161565b151514612ac9576040517f08c379a0000000000000000000000000000000000000000000000000000000008152600401612ac090617746565b60405180910390fd5b6000849050600073ffffffffffffffffffffffffffffffffffffffff168573ffffffffffffffffffffffffffffffffffffffff161415612b27577f000000000000000000000000000000000000000000000000000000000000000090505b8515612d8857612b587f00000000000000000000000000000000000000000000000000000000000000008830616689565b612b8f7f0000000000000000000000000000000000000000000000000000000000000000600289612b899190617925565b84615d07565b8173ffffffffffffffffffffffffffffffffffffffff16632783e4a982306040518363ffffffff1660e01b8152600401612bca9291906176a2565b6040805180830381600087803b158015612be357600080fd5b505af1158015612bf7573d6000803e3d6000fd5b505050506040513d601f19601f82011682018060405250810190612c1b919061741c565b5050612cf07f00000000000000000000000000000000000000000000000000000000000000007f000000000000000000000000000000000000000000000000000000000000000073ffffffffffffffffffffffffffffffffffffffff166370a08231306040518263ffffffff1660e01b8152600401612c9a9190617687565b60206040518083038186803b158015612cb257600080fd5b505afa158015612cc6573d6000803e3d6000fd5b505050506040513d601f19601f82011682018060405250810190612cea91906171dc565b84615d07565b612d83818273ffffffffffffffffffffffffffffffffffffffff166370a08231306040518263ffffffff1660e01b8152600401612d2d9190617687565b60206040518083038186803b158015612d4557600080fd5b505afa158015612d59573d6000803e3d6000fd5b505050506040513d601f19601f82011682018060405250810190612d7d91906171dc565b84615d07565b612fbf565b612d93858830616689565b612daa81600289612da49190617925565b84615d07565b8173ffffffffffffffffffffffffffffffffffffffff16632783e4a97f0000000000000000000000000000000000000000000000000000000000000000306040518363ffffffff1660e01b8152600401612e059291906176a2565b6040805180830381600087803b158015612e1e57600080fd5b505af1158015612e32573d6000803e3d6000fd5b505050506040513d601f19601f82011682018060405250810190612e56919061741c565b5050612f2b7f00000000000000000000000000000000000000000000000000000000000000007f000000000000000000000000000000000000000000000000000000000000000073ffffffffffffffffffffffffffffffffffffffff166370a08231306040518263ffffffff1660e01b8152600401612ed59190617687565b60206040518083038186803b158015612eed57600080fd5b505afa158015612f01573d6000803e3d6000fd5b505050506040513d601f19601f82011682018060405250810190612f2591906171dc565b84615d07565b612fbe818273ffffffffffffffffffffffffffffffffffffffff166370a08231306040518263ffffffff1660e01b8152600401612f689190617687565b60206040518083038186803b158015612f8057600080fd5b505afa158015612f94573d6000803e3d6000fd5b505050506040513d601f19601f82011682018060405250810190612fb891906171dc565b84615d07565b5b8173ffffffffffffffffffffffffffffffffffffffff166386d5f618856040518263ffffffff1660e01b8152600401612ff89190617687565b602060405180830381600087803b15801561301257600080fd5b505af1158015613026573d6000803e3d6000fd5b505050506040513d601f19601f8201168201806040525081019061304a91906171dc565b5061305482615fab565b50505050505050565b61306a84848433856123e9565b50505050565b61307c83838333613229565b50505050565b61308a615c62565b73ffffffffffffffffffffffffffffffffffffffff166398fabd3a6040518163ffffffff1660e01b815260040160206040518083038186803b1580156130cf57600080fd5b505afa1580156130e3573d6000803e3d6000fd5b505050506040513d601f19601f820116820180604052508101906131079190617138565b73ffffffffffffffffffffffffffffffffffffffff163373ffffffffffffffffffffffffffffffffffffffff16148061318d5750600160009054906101000a900473ffffffffffffffffffffffffffffffffffffffff1673ffffffffffffffffffffffffffffffffffffffff163373ffffffffffffffffffffffffffffffffffffffff16145b61319657600080fd5b8073ffffffffffffffffffffffffffffffffffffffff16637ec3eae5836040518263ffffffff1660e01b81526004016131cf9190617846565b600060405180830381600087803b1580156131e957600080fd5b505af11580156131fd573d6000803e3d6000fd5b505050505050565b7f000000000000000000000000000000000000000000000000000000000000000081565b600080613234615c62565b73ffffffffffffffffffffffffffffffffffffffff1663b99b0a0c6040518163ffffffff1660e01b815260040160206040518083038186803b15801561327957600080fd5b505afa15801561328d573d6000803e3d6000fd5b505050506040513d601f19601f820116820180604052508101906132b19190617138565b905060008173ffffffffffffffffffffffffffffffffffffffff1663bbe4f6db866040518263ffffffff1660e01b81526004016132ee9190617687565b60206040518083038186803b15801561330657600080fd5b505afa15801561331a573d6000803e3d6000fd5b505050506040513d601f19601f8201168201806040525081019061333e9190617138565b9050600115158273ffffffffffffffffffffffffffffffffffffffff16635b16ebb7836040518263ffffffff1660e01b815260040161337d9190617687565b602060405180830381600087803b15801561339757600080fd5b505af11580156133ab573d6000803e3d6000fd5b505050506040513d601f19601f820116820180604052508101906133cf9190617161565b151514613411576040517f08c379a000000000000000000000000000000000000000000000000000000000815260040161340890617746565b60405180910390fd5b61343c7f00000000000000000000000000000000000000000000000000000000000000008783616689565b613447858883616689565b8073ffffffffffffffffffffffffffffffffffffffff166386d5f618856040518263ffffffff1660e01b81526004016134809190617687565b602060405180830381600087803b15801561349a57600080fd5b505af11580156134ae573d6000803e3d6000fd5b505050506040513d601f19601f820116820180604052508101906134d291906171dc565b92506134dd81615fab565b5050949350505050565b60035481565b6134f5615c62565b73ffffffffffffffffffffffffffffffffffffffff166398fabd3a6040518163ffffffff1660e01b815260040160206040518083038186803b15801561353a57600080fd5b505afa15801561354e573d6000803e3d6000fd5b505050506040513d601f19601f820116820180604052508101906135729190617138565b73ffffffffffffffffffffffffffffffffffffffff163373ffffffffffffffffffffffffffffffffffffffff1614806135f85750600160009054906101000a900473ffffffffffffffffffffffffffffffffffffffff1673ffffffffffffffffffffffffffffffffffffffff163373ffffffffffffffffffffffffffffffffffffffff16145b61360157600080fd5b8073ffffffffffffffffffffffffffffffffffffffff1663474e7302836040518263ffffffff1660e01b815260040161363a9190617846565b600060405180830381600087803b15801561365457600080fd5b505af1158015613668573d6000803e3d6000fd5b505050505050565b600083116136b3576040517f08c379a00000000000000000000000000000000000000000000000000000000081526004016136aa90617786565b60405180910390fd5b8073ffffffffffffffffffffffffffffffffffffffff168273ffffffffffffffffffffffffffffffffffffffff1614156136ec57600080fd5b600115156136f8615c62565b73ffffffffffffffffffffffffffffffffffffffff16639d2cc4366040518163ffffffff1660e01b815260040160206040518083038186803b15801561373d57600080fd5b505afa158015613751573d6000803e3d6000fd5b505050506040513d601f19601f820116820180604052508101906137759190617138565b73ffffffffffffffffffffffffffffffffffffffff1663194e22ce6040518163ffffffff1660e01b8152600401602060405180830381600087803b1580156137bc57600080fd5b505af11580156137d0573d6000803e3d6000fd5b505050506040513d601f19601f820116820180604052508101906137f49190617161565b15151415613837576040517f08c379a000000000000000000000000000000000000000000000000000000000815260040161382e906177e6565b60405180910390fd5b6000613841615c62565b73ffffffffffffffffffffffffffffffffffffffff1663b99b0a0c6040518163ffffffff1660e01b815260040160206040518083038186803b15801561388657600080fd5b505afa15801561389a573d6000803e3d6000fd5b505050506040513d601f19601f820116820180604052508101906138be9190617138565b905060008373ffffffffffffffffffffffffffffffffffffffff16637535d2466040518163ffffffff1660e01b815260040160206040518083038186803b15801561390857600080fd5b505afa15801561391c573d6000803e3d6000fd5b505050506040513d601f19601f820116820180604052508101906139409190617138565b9050600115158273ffffffffffffffffffffffffffffffffffffffff16635b16ebb7836040518263ffffffff1660e01b815260040161397f9190617687565b602060405180830381600087803b15801561399957600080fd5b505af11580156139ad573d6000803e3d6000fd5b505050506040513d601f19601f820116820180604052508101906139d19190617161565b151514613a13576040517f08c379a0000000000000000000000000000000000000000000000000000000008152600401613a0a90617746565b60405180910390fd5b8373ffffffffffffffffffffffffffffffffffffffff166323b872dd3383886040518463ffffffff1660e01b8152600401613a50939291906176cb565b602060405180830381600087803b158015613a6a57600080fd5b505af1158015613a7e573d6000803e3d6000fd5b505050506040513d601f19601f82011682018060405250810190613aa29190617161565b613ae1576040517f08c379a0000000000000000000000000000000000000000000000000000000008152600401613ad8906177c6565b60405180910390fd5b60007f000000000000000000000000000000000000000000000000000000000000000073ffffffffffffffffffffffffffffffffffffffff168473ffffffffffffffffffffffffffffffffffffffff161415613bcc578173ffffffffffffffffffffffffffffffffffffffff1663dbfc5a04336040518263ffffffff1660e01b8152600401613b709190617687565b6040805180830381600087803b158015613b8957600080fd5b505af1158015613b9d573d6000803e3d6000fd5b505050506040513d601f19601f82011682018060405250810190613bc1919061741c565b905080915050614032565b60008373ffffffffffffffffffffffffffffffffffffffff1663bbe4f6db866040518263ffffffff1660e01b8152600401613c079190617687565b60206040518083038186803b158015613c1f57600080fd5b505afa158015613c33573d6000803e3d6000fd5b505050506040513d601f19601f82011682018060405250810190613c579190617138565b9050600115158473ffffffffffffffffffffffffffffffffffffffff16635b16ebb7836040518263ffffffff1660e01b8152600401613c969190617687565b602060405180830381600087803b158015613cb057600080fd5b505af1158015613cc4573d6000803e3d6000fd5b505050506040513d601f19601f82011682018060405250810190613ce89190617161565b151514613d2a576040517f08c379a0000000000000000000000000000000000000000000000000000000008152600401613d2190617746565b60405180910390fd5b6000808473ffffffffffffffffffffffffffffffffffffffff1663dbfc5a04306040518263ffffffff1660e01b8152600401613d669190617687565b6040805180830381600087803b158015613d7f57600080fd5b505af1158015613d93573d6000803e3d6000fd5b505050506040513d601f19601f82011682018060405250810190613db7919061741c565b905080945050613e907f00000000000000000000000000000000000000000000000000000000000000007f000000000000000000000000000000000000000000000000000000000000000073ffffffffffffffffffffffffffffffffffffffff166370a08231306040518263ffffffff1660e01b8152600401613e3a9190617687565b60206040518083038186803b158015613e5257600080fd5b505afa158015613e66573d6000803e3d6000fd5b505050506040513d601f19601f82011682018060405250810190613e8a91906171dc565b85615d07565b600073ffffffffffffffffffffffffffffffffffffffff168773ffffffffffffffffffffffffffffffffffffffff1614613f5b578273ffffffffffffffffffffffffffffffffffffffff16632783e4a988336040518363ffffffff1660e01b8152600401613eff9291906176a2565b6040805180830381600087803b158015613f1857600080fd5b505af1158015613f2c573d6000803e3d6000fd5b505050506040513d601f19601f82011682018060405250810190613f50919061741c565b90508092505061401b565b8273ffffffffffffffffffffffffffffffffffffffff16632783e4a97f0000000000000000000000000000000000000000000000000000000000000000306040518363ffffffff1660e01b8152600401613fb69291906176a2565b6040805180830381600087803b158015613fcf57600080fd5b505af1158015613fe3573d6000803e3d6000fd5b505050506040513d601f19601f82011682018060405250810190614007919061741c565b809350819250505061401a878233615d07565b5b61402483615fab565b61402e838361654e565b5050505b61403b82615fab565b614045828261654e565b60011515614051615c62565b73ffffffffffffffffffffffffffffffffffffffff16639d2cc4366040518163ffffffff1660e01b815260040160206040518083038186803b15801561409657600080fd5b505afa1580156140aa573d6000803e3d6000fd5b505050506040513d601f19601f820116820180604052508101906140ce9190617138565b73ffffffffffffffffffffffffffffffffffffffff1663194e22ce6040518163ffffffff1660e01b8152600401602060405180830381600087803b15801561411557600080fd5b505af1158015614129573d6000803e3d6000fd5b505050506040513d601f19601f8201168201806040525081019061414d9190617161565b15151415614190576040517f08c379a0000000000000000000000000000000000000000000000000000000008152600401614187906177e6565b60405180910390fd5b505050505050565b6141a4838383336128e2565b505050565b600083116141ec576040517f08c379a00000000000000000000000000000000000000000000000000000000081526004016141e390617786565b60405180910390fd5b60006141f6615c62565b73ffffffffffffffffffffffffffffffffffffffff16637b0e5c456040518163ffffffff1660e01b815260040160206040518083038186803b15801561423b57600080fd5b505afa15801561424f573d6000803e3d6000fd5b505050506040513d601f19601f820116820180604052508101906142739190617138565b73ffffffffffffffffffffffffffffffffffffffff1663714270ab85614297615c62565b73ffffffffffffffffffffffffffffffffffffffff1663b99b0a0c6040518163ffffffff1660e01b815260040160206040518083038186803b1580156142dc57600080fd5b505afa1580156142f0573d6000803e3d6000fd5b505050506040513d601f19601f820116820180604052508101906143149190617138565b73ffffffffffffffffffffffffffffffffffffffff1663bbe4f6db866040518263ffffffff1660e01b815260040161434c9190617687565b60206040518083038186803b15801561436457600080fd5b505afa158015614378573d6000803e3d6000fd5b505050506040513d601f19601f8201168201806040525081019061439c9190617138565b73ffffffffffffffffffffffffffffffffffffffff166370a08231336040518263ffffffff1660e01b81526004016143d49190617687565b60206040518083038186803b1580156143ec57600080fd5b505afa158015614400573d6000803e3d6000fd5b505050506040513d601f19601f8201168201806040525081019061442491906171dc565b6040518363ffffffff1660e01b815260040161444192919061788a565b60206040518083038186803b15801561445957600080fd5b505afa15801561446d573d6000803e3d6000fd5b505050506040513d601f19601f8201168201806040525081019061449191906171dc565b905061449e818484610d67565b50505050565b8073ffffffffffffffffffffffffffffffffffffffff168273ffffffffffffffffffffffffffffffffffffffff16141580156144e05750600083115b61451f576040517f08c379a000000000000000000000000000000000000000000000000000000000815260040161451690617786565b60405180910390fd5b6000614529615c62565b73ffffffffffffffffffffffffffffffffffffffff1663b99b0a0c6040518163ffffffff1660e01b815260040160206040518083038186803b15801561456e57600080fd5b505afa158015614582573d6000803e3d6000fd5b505050506040513d601f19601f820116820180604052508101906145a69190617138565b9050600115158173ffffffffffffffffffffffffffffffffffffffff16635b16ebb7856040518263ffffffff1660e01b81526004016145e59190617687565b602060405180830381600087803b1580156145ff57600080fd5b505af1158015614613573d6000803e3d6000fd5b505050506040513d601f19601f820116820180604052508101906146379190617161565b151514614679576040517f08c379a000000000000000000000000000000000000000000000000000000000815260040161467090617746565b60405180910390fd5b600115158173ffffffffffffffffffffffffffffffffffffffff16635b16ebb7846040518263ffffffff1660e01b81526004016146b69190617687565b602060405180830381600087803b1580156146d057600080fd5b505af11580156146e4573d6000803e3d6000fd5b505050506040513d601f19601f820116820180604052508101906147089190617161565b15151461474a576040517f08c379a000000000000000000000000000000000000000000000000000000000815260040161474190617746565b60405180910390fd5b60008373ffffffffffffffffffffffffffffffffffffffff166382bfefc86040518163ffffffff1660e01b815260040160206040518083038186803b15801561479257600080fd5b505afa1580156147a6573d6000803e3d6000fd5b505050506040513d601f19601f820116820180604052508101906147ca9190617138565b905060008373ffffffffffffffffffffffffffffffffffffffff166382bfefc86040518163ffffffff1660e01b815260040160206040518083038186803b15801561481457600080fd5b505afa158015614828573d6000803e3d6000fd5b505050506040513d601f19601f8201168201806040525081019061484c9190617138565b905060003390508573ffffffffffffffffffffffffffffffffffffffff166323b872dd82888a6040518463ffffffff1660e01b8152600401614890939291906176cb565b602060405180830381600087803b1580156148aa57600080fd5b505af11580156148be573d6000803e3d6000fd5b505050506040513d601f19601f820116820180604052508101906148e29190617161565b614921576040517f08c379a0000000000000000000000000000000000000000000000000000000008152600401614918906177c6565b60405180910390fd5b8573ffffffffffffffffffffffffffffffffffffffff1663bc5dedc9306040518263ffffffff1660e01b815260040161495a9190617687565b6040805180830381600087803b15801561497357600080fd5b505af1158015614987573d6000803e3d6000fd5b505050506040513d601f19601f820116820180604052508101906149ab919061741c565b50508273ffffffffffffffffffffffffffffffffffffffff1663a9059cbb878573ffffffffffffffffffffffffffffffffffffffff166370a08231306040518263ffffffff1660e01b8152600401614a039190617687565b60206040518083038186803b158015614a1b57600080fd5b505afa158015614a2f573d6000803e3d6000fd5b505050506040513d601f19601f82011682018060405250810190614a5391906171dc565b6040518363ffffffff1660e01b8152600401614a70929190617702565b602060405180830381600087803b158015614a8a57600080fd5b505af1158015614a9e573d6000803e3d6000fd5b505050506040513d601f19601f82011682018060405250810190614ac29190617161565b508573ffffffffffffffffffffffffffffffffffffffff16632783e4a97f0000000000000000000000000000000000000000000000000000000000000000306040518363ffffffff1660e01b8152600401614b1e9291906176a2565b6040805180830381600087803b158015614b3757600080fd5b505af1158015614b4b573d6000803e3d6000fd5b505050506040513d601f19601f82011682018060405250810190614b6f919061741c565b50507f000000000000000000000000000000000000000000000000000000000000000073ffffffffffffffffffffffffffffffffffffffff1663a9059cbb8660027f000000000000000000000000000000000000000000000000000000000000000073ffffffffffffffffffffffffffffffffffffffff166370a08231306040518263ffffffff1660e01b8152600401614c099190617687565b60206040518083038186803b158015614c2157600080fd5b505afa158015614c35573d6000803e3d6000fd5b505050506040513d601f19601f82011682018060405250810190614c5991906171dc565b614c639190617925565b6040518363ffffffff1660e01b8152600401614c80929190617702565b602060405180830381600087803b158015614c9a57600080fd5b505af1158015614cae573d6000803e3d6000fd5b505050506040513d601f19601f82011682018060405250810190614cd29190617161565b508473ffffffffffffffffffffffffffffffffffffffff16632783e4a983306040518363ffffffff1660e01b8152600401614d0e9291906176a2565b6040805180830381600087803b158015614d2757600080fd5b505af1158015614d3b573d6000803e3d6000fd5b505050506040513d601f19601f82011682018060405250810190614d5f919061741c565b50507f000000000000000000000000000000000000000000000000000000000000000073ffffffffffffffffffffffffffffffffffffffff1663a9059cbb867f000000000000000000000000000000000000000000000000000000000000000073ffffffffffffffffffffffffffffffffffffffff166370a08231306040518263ffffffff1660e01b8152600401614df79190617687565b60206040518083038186803b158015614e0f57600080fd5b505afa158015614e23573d6000803e3d6000fd5b505050506040513d601f19601f82011682018060405250810190614e4791906171dc565b6040518363ffffffff1660e01b8152600401614e64929190617702565b602060405180830381600087803b158015614e7e57600080fd5b505af1158015614e92573d6000803e3d6000fd5b505050506040513d601f19601f82011682018060405250810190614eb69190617161565b508173ffffffffffffffffffffffffffffffffffffffff1663a9059cbb868473ffffffffffffffffffffffffffffffffffffffff166370a08231306040518263ffffffff1660e01b8152600401614f0d9190617687565b60206040518083038186803b158015614f2557600080fd5b505afa158015614f39573d6000803e3d6000fd5b505050506040513d601f19601f82011682018060405250810190614f5d91906171dc565b6040518363ffffffff1660e01b8152600401614f7a929190617702565b602060405180830381600087803b158015614f9457600080fd5b505af1158015614fa8573d6000803e3d6000fd5b505050506040513d601f19601f82011682018060405250810190614fcc9190617161565b508473ffffffffffffffffffffffffffffffffffffffff166386d5f618826040518263ffffffff1660e01b81526004016150069190617687565b602060405180830381600087803b15801561502057600080fd5b505af1158015615034573d6000803e3d6000fd5b505050506040513d601f19601f8201168201806040525081019061505891906171dc565b5061506286615fab565b61506b85615fab565b50505050505050565b600160009054906101000a900473ffffffffffffffffffffffffffffffffffffffff1681565b600082116150dd576040517f08c379a00000000000000000000000000000000000000000000000000000000081526004016150d490617786565b60405180910390fd5b60006150e7615c62565b73ffffffffffffffffffffffffffffffffffffffff1663b99b0a0c6040518163ffffffff1660e01b815260040160206040518083038186803b15801561512c57600080fd5b505afa158015615140573d6000803e3d6000fd5b505050506040513d601f19601f820116820180604052508101906151649190617138565b905060011515615172615c62565b73ffffffffffffffffffffffffffffffffffffffff16639d2cc4366040518163ffffffff1660e01b815260040160206040518083038186803b1580156151b757600080fd5b505afa1580156151cb573d6000803e3d6000fd5b505050506040513d601f19601f820116820180604052508101906151ef9190617138565b73ffffffffffffffffffffffffffffffffffffffff1663194e22ce6040518163ffffffff1660e01b8152600401602060405180830381600087803b15801561523657600080fd5b505af115801561524a573d6000803e3d6000fd5b505050506040513d601f19601f8201168201806040525081019061526e9190617161565b151514156152b1576040517f08c379a00000000000000000000000000000000000000000000000000000000081526004016152a8906177e6565b60405180910390fd5b60008173ffffffffffffffffffffffffffffffffffffffff1663bbe4f6db846040518263ffffffff1660e01b81526004016152ec9190617687565b60206040518083038186803b15801561530457600080fd5b505afa158015615318573d6000803e3d6000fd5b505050506040513d601f19601f8201168201806040525081019061533c9190617138565b9050600115158273ffffffffffffffffffffffffffffffffffffffff16635b16ebb7836040518263ffffffff1660e01b815260040161537b9190617687565b602060405180830381600087803b15801561539557600080fd5b505af11580156153a9573d6000803e3d6000fd5b505050506040513d601f19601f820116820180604052508101906153cd9190617161565b15151461540f576040517f08c379a000000000000000000000000000000000000000000000000000000000815260040161540690617746565b60405180910390fd5b60003390508173ffffffffffffffffffffffffffffffffffffffff166323b872dd8284886040518463ffffffff1660e01b8152600401615451939291906176cb565b602060405180830381600087803b15801561546b57600080fd5b505af115801561547f573d6000803e3d6000fd5b505050506040513d601f19601f820116820180604052508101906154a39190617161565b6154e2576040517f08c379a00000000000000000000000000000000000000000000000000000000081526004016154d9906177c6565b60405180910390fd5b600073ffffffffffffffffffffffffffffffffffffffff168473ffffffffffffffffffffffffffffffffffffffff16146155a7578173ffffffffffffffffffffffffffffffffffffffff1663bc5dedc9826040518263ffffffff1660e01b815260040161554f9190617687565b6040805180830381600087803b15801561556857600080fd5b505af115801561557c573d6000803e3d6000fd5b505050506040513d601f19601f820116820180604052508101906155a0919061741c565b50506157c6565b8173ffffffffffffffffffffffffffffffffffffffff1663bc5dedc9306040518263ffffffff1660e01b81526004016155e09190617687565b6040805180830381600087803b1580156155f957600080fd5b505af115801561560d573d6000803e3d6000fd5b505050506040513d601f19601f82011682018060405250810190615631919061741c565b505060007f000000000000000000000000000000000000000000000000000000000000000073ffffffffffffffffffffffffffffffffffffffff166370a08231306040518263ffffffff1660e01b815260040161568e9190617687565b60206040518083038186803b1580156156a657600080fd5b505afa1580156156ba573d6000803e3d6000fd5b505050506040513d601f19601f820116820180604052508101906156de91906171dc565b905060007f000000000000000000000000000000000000000000000000000000000000000073ffffffffffffffffffffffffffffffffffffffff166370a08231306040518263ffffffff1660e01b815260040161573b9190617687565b60206040518083038186803b15801561575357600080fd5b505afa158015615767573d6000803e3d6000fd5b505050506040513d601f19601f8201168201806040525081019061578b91906171dc565b9050615798868285615d07565b6157c37f00000000000000000000000000000000000000000000000000000000000000008385615d07565b50505b6157cf82615fab565b5050505050565b60056020528060005260406000206000915090505481565b7f000000000000000000000000000000000000000000000000000000000000000081565b60025481565b6000615822615c62565b73ffffffffffffffffffffffffffffffffffffffff1663b99b0a0c6040518163ffffffff1660e01b815260040160206040518083038186803b15801561586757600080fd5b505afa15801561587b573d6000803e3d6000fd5b505050506040513d601f19601f8201168201806040525081019061589f9190617138565b905060008173ffffffffffffffffffffffffffffffffffffffff1663bbe4f6db866040518263ffffffff1660e01b81526004016158dc9190617687565b60206040518083038186803b1580156158f457600080fd5b505afa158015615908573d6000803e3d6000fd5b505050506040513d601f19601f8201168201806040525081019061592c9190617138565b9050600115158273ffffffffffffffffffffffffffffffffffffffff16635b16ebb7836040518263ffffffff1660e01b815260040161596b9190617687565b602060405180830381600087803b15801561598557600080fd5b505af1158015615999573d6000803e3d6000fd5b505050506040513d601f19601f820116820180604052508101906159bd9190617161565b1515146159ff576040517f08c379a00000000000000000000000000000000000000000000000000000000081526004016159f690617746565b60405180910390fd5b615a2a7f00000000000000000000000000000000000000000000000000000000000000008783616689565b60008073ffffffffffffffffffffffffffffffffffffffff168673ffffffffffffffffffffffffffffffffffffffff1614615b3f576000808373ffffffffffffffffffffffffffffffffffffffff16632783e4a989896040518363ffffffff1660e01b8152600401615a9d9291906176a2565b6040805180830381600087803b158015615ab657600080fd5b505af1158015615aca573d6000803e3d6000fd5b505050506040513d601f19601f82011682018060405250810190615aee919061741c565b9150915085821015615b35576040517f08c379a0000000000000000000000000000000000000000000000000000000008152600401615b2c906177a6565b60405180910390fd5b8092505050615c46565b6000808373ffffffffffffffffffffffffffffffffffffffff16632783e4a97f0000000000000000000000000000000000000000000000000000000000000000306040518363ffffffff1660e01b8152600401615b9d9291906176a2565b6040805180830381600087803b158015615bb657600080fd5b505af1158015615bca573d6000803e3d6000fd5b505050506040513d601f19601f82011682018060405250810190615bee919061741c565b9150915085821015615c35576040517f08c379a0000000000000000000000000000000000000000000000000000000008152600401615c2c906177a6565b60405180910390fd5b615c40888389615d07565b80925050505b615c4f82615fab565b615c59828261654e565b50505050505050565b60007f000000000000000000000000000000000000000000000000000000000000000073ffffffffffffffffffffffffffffffffffffffff166398fabd3a6040518163ffffffff1660e01b815260040160206040518083038186803b158015615cca57600080fd5b505afa158015615cde573d6000803e3d6000fd5b505050506040513d601f19601f82011682018060405250810190615d02919061718a565b905090565b60026000541415615d4d576040517f08c379a0000000000000000000000000000000000000000000000000000000008152600401615d4490617826565b60405180910390fd5b60026000819055506000821115615f9e57600073ffffffffffffffffffffffffffffffffffffffff168373ffffffffffffffffffffffffffffffffffffffff161415615ed0577f000000000000000000000000000000000000000000000000000000000000000073ffffffffffffffffffffffffffffffffffffffff16632e1a7d4d836040518263ffffffff1660e01b8152600401615dec9190617846565b600060405180830381600087803b158015615e0657600080fd5b505af1158015615e1a573d6000803e3d6000fd5b5050505060008173ffffffffffffffffffffffffffffffffffffffff1683604051615e4490617672565b60006040518083038185875af1925050503d8060008114615e81576040519150601f19603f3d011682016040523d82523d6000602084013e615e86565b606091505b5050905080615eca576040517f08c379a0000000000000000000000000000000000000000000000000000000008152600401615ec190617766565b60405180910390fd5b50615f9d565b8273ffffffffffffffffffffffffffffffffffffffff1663a9059cbb82846040518363ffffffff1660e01b8152600401615f0b929190617702565b602060405180830381600087803b158015615f2557600080fd5b505af1158015615f39573d6000803e3d6000fd5b505050506040513d601f19601f82011682018060405250810190615f5d9190617161565b615f9c576040517f08c379a0000000000000000000000000000000000000000000000000000000008152600401615f93906177c6565b60405180910390fd5b5b5b6001600081905550505050565b615fb3615c62565b73ffffffffffffffffffffffffffffffffffffffff1663b99b0a0c6040518163ffffffff1660e01b815260040160206040518083038186803b158015615ff857600080fd5b505afa15801561600c573d6000803e3d6000fd5b505050506040513d601f19601f820116820180604052508101906160309190617138565b73ffffffffffffffffffffffffffffffffffffffff16638dcb4c93826040518263ffffffff1660e01b81526004016160689190617687565b60206040518083038186803b15801561608057600080fd5b505afa158015616094573d6000803e3d6000fd5b505050506040513d601f19601f820116820180604052508101906160b89190617161565b1561654b578073ffffffffffffffffffffffffffffffffffffffff166362a5af3b6040518163ffffffff1660e01b815260040160206040518083038186803b15801561610357600080fd5b505afa158015616117573d6000803e3d6000fd5b505050506040513d601f19601f8201168201806040525081019061613b9190617161565b1561623157616148615c62565b73ffffffffffffffffffffffffffffffffffffffff16639d2cc4366040518163ffffffff1660e01b815260040160206040518083038186803b15801561618d57600080fd5b505afa1580156161a1573d6000803e3d6000fd5b505050506040513d601f19601f820116820180604052508101906161c59190617138565b73ffffffffffffffffffffffffffffffffffffffff16637828c71760016040518263ffffffff1660e01b81526004016161fe919061772b565b600060405180830381600087803b15801561621857600080fd5b505af115801561622c573d6000803e3d6000fd5b505050505b616239615c62565b73ffffffffffffffffffffffffffffffffffffffff16639d2cc4366040518163ffffffff1660e01b815260040160206040518083038186803b15801561627e57600080fd5b505afa158015616292573d6000803e3d6000fd5b505050506040513d601f19601f820116820180604052508101906162b69190617138565b73ffffffffffffffffffffffffffffffffffffffff1663194e22ce6040518163ffffffff1660e01b8152600401602060405180830381600087803b1580156162fd57600080fd5b505af1158015616311573d6000803e3d6000fd5b505050506040513d601f19601f820116820180604052508101906163359190617161565b1561654a576000616344615c62565b73ffffffffffffffffffffffffffffffffffffffff16639d2cc4366040518163ffffffff1660e01b815260040160206040518083038186803b15801561638957600080fd5b505afa15801561639d573d6000803e3d6000fd5b505050506040513d601f19601f820116820180604052508101906163c19190617138565b73ffffffffffffffffffffffffffffffffffffffff1663fd7e1bee6040518163ffffffff1660e01b8152600401602060405180830381600087803b15801561640857600080fd5b505af115801561641c573d6000803e3d6000fd5b505050506040513d601f19601f8201168201806040525081019061644091906171dc565b9050610e108161645091906178cf565b4211156165485761645f615c62565b73ffffffffffffffffffffffffffffffffffffffff16639d2cc4366040518163ffffffff1660e01b815260040160206040518083038186803b1580156164a457600080fd5b505afa1580156164b8573d6000803e3d6000fd5b505050506040513d601f19601f820116820180604052508101906164dc9190617138565b73ffffffffffffffffffffffffffffffffffffffff16637828c71760006040518263ffffffff1660e01b8152600401616515919061772b565b600060405180830381600087803b15801561652f57600080fd5b505af1158015616543573d6000803e3d6000fd5b505050505b505b5b50565b670de0b6b3a76400008111801561667557506001151561656c615c62565b73ffffffffffffffffffffffffffffffffffffffff1663b99b0a0c6040518163ffffffff1660e01b815260040160206040518083038186803b1580156165b157600080fd5b505afa1580156165c5573d6000803e3d6000fd5b505050506040513d601f19601f820116820180604052508101906165e99190617138565b73ffffffffffffffffffffffffffffffffffffffff16638dcb4c93846040518263ffffffff1660e01b81526004016166219190617687565b60206040518083038186803b15801561663957600080fd5b505afa15801561664d573d6000803e3d6000fd5b505050506040513d601f19601f820116820180604052508101906166719190617161565b1515145b156166855761668482826169b7565b5b5050565b600260005414156166cf576040517f08c379a00000000000000000000000000000000000000000000000000000000081526004016166c690617826565b60405180910390fd5b60026000819055506000821161671a576040517f08c379a000000000000000000000000000000000000000000000000000000000815260040161671190617806565b60405180910390fd5b600073ffffffffffffffffffffffffffffffffffffffff168373ffffffffffffffffffffffffffffffffffffffff1614156168db5734821461675b57600080fd5b60007f000000000000000000000000000000000000000000000000000000000000000073ffffffffffffffffffffffffffffffffffffffff16836040516167a190617672565b60006040518083038185875af1925050503d80600081146167de576040519150601f19603f3d011682016040523d82523d6000602084013e6167e3565b606091505b5050905080616827576040517f08c379a000000000000000000000000000000000000000000000000000000000815260040161681e90617766565b60405180910390fd5b7f000000000000000000000000000000000000000000000000000000000000000073ffffffffffffffffffffffffffffffffffffffff1663a9059cbb83856040518363ffffffff1660e01b8152600401616882929190617702565b602060405180830381600087803b15801561689c57600080fd5b505af11580156168b0573d6000803e3d6000fd5b505050506040513d601f19601f820116820180604052508101906168d49190617161565b50506169aa565b8273ffffffffffffffffffffffffffffffffffffffff166323b872dd3383856040518463ffffffff1660e01b8152600401616918939291906176cb565b602060405180830381600087803b15801561693257600080fd5b505af1158015616946573d6000803e3d6000fd5b505050506040513d601f19601f8201168201806040525081019061696a9190617161565b6169a9576040517f08c379a00000000000000000000000000000000000000000000000000000000081526004016169a0906177c6565b60405180910390fd5b5b6001600081905550505050565b60007f000000000000000000000000000000000000000000000000000000000000000073ffffffffffffffffffffffffffffffffffffffff166370a082316169fd615c62565b73ffffffffffffffffffffffffffffffffffffffff16639d2cc4366040518163ffffffff1660e01b815260040160206040518083038186803b158015616a4257600080fd5b505afa158015616a56573d6000803e3d6000fd5b505050506040513d601f19601f82011682018060405250810190616a7a9190617138565b6040518263ffffffff1660e01b8152600401616a969190617687565b60206040518083038186803b158015616aae57600080fd5b505afa158015616ac2573d6000803e3d6000fd5b505050506040513d601f19601f82011682018060405250810190616ae691906171dc565b90506000616af2615c62565b73ffffffffffffffffffffffffffffffffffffffff16639d2cc4366040518163ffffffff1660e01b815260040160206040518083038186803b158015616b3757600080fd5b505afa158015616b4b573d6000803e3d6000fd5b505050506040513d601f19601f82011682018060405250810190616b6f9190617138565b73ffffffffffffffffffffffffffffffffffffffff16632267716c6040518163ffffffff1660e01b8152600401602060405180830381600087803b158015616bb657600080fd5b505af1158015616bca573d6000803e3d6000fd5b505050506040513d601f19601f82011682018060405250810190616bee9190617161565b9050600082118015616bfd5750805b15616ee657616c0a615c62565b73ffffffffffffffffffffffffffffffffffffffff1663b99b0a0c6040518163ffffffff1660e01b815260040160206040518083038186803b158015616c4f57600080fd5b505afa158015616c63573d6000803e3d6000fd5b505050506040513d601f19601f82011682018060405250810190616c879190617138565b73ffffffffffffffffffffffffffffffffffffffff16638bc51e366040518163ffffffff1660e01b815260040160206040518083038186803b158015616ccc57600080fd5b505afa158015616ce0573d6000803e3d6000fd5b505050506040513d601f19601f82011682018060405250810190616d0491906171dc565b600481905550600061271060045460025485616d209190617956565b616d2a9190617925565b616d349190617925565b90508084600560008873ffffffffffffffffffffffffffffffffffffffff1673ffffffffffffffffffffffffffffffffffffffff16815260200190815260200160002054616d8291906178cf565b1015616ee457616d928486616eec565b616d9a615c62565b73ffffffffffffffffffffffffffffffffffffffff16639d2cc4366040518163ffffffff1660e01b815260040160206040518083038186803b158015616ddf57600080fd5b505afa158015616df3573d6000803e3d6000fd5b505050506040513d601f19601f82011682018060405250810190616e179190617138565b73ffffffffffffffffffffffffffffffffffffffff16637d458baa85876040518363ffffffff1660e01b8152600401616e51929190617861565b600060405180830381600087803b158015616e6b57600080fd5b505af1158015616e7f573d6000803e3d6000fd5b505050508473ffffffffffffffffffffffffffffffffffffffff1663fff6cae96040518163ffffffff1660e01b8152600401600060405180830381600087803b158015616ecb57600080fd5b505af1158015616edf573d6000803e3d6000fd5b505050505b505b50505050565b60006003541415616eff57426003819055505b62278d00600354616f1091906178cf565b4211616fa95781600560008373ffffffffffffffffffffffffffffffffffffffff1673ffffffffffffffffffffffffffffffffffffffff16815260200190815260200160002054616f6191906178cf565b600560008373ffffffffffffffffffffffffffffffffffffffff1673ffffffffffffffffffffffffffffffffffffffff16815260200190815260200160002081905550617078565b42600381905550600560008273ffffffffffffffffffffffffffffffffffffffff1673ffffffffffffffffffffffffffffffffffffffff16815260200190815260200160002054600660008373ffffffffffffffffffffffffffffffffffffffff1673ffffffffffffffffffffffffffffffffffffffff1681526020019081526020016000208190555081600560008373ffffffffffffffffffffffffffffffffffffffff1673ffffffffffffffffffffffffffffffffffffffff168152602001908152602001600020819055505b5050565b60008135905061708b81617bb3565b92915050565b6000815190506170a081617bb3565b92915050565b6000813590506170b581617bca565b92915050565b6000815190506170ca81617bca565b92915050565b6000815190506170df81617be1565b92915050565b6000813590506170f481617bf8565b92915050565b60008151905061710981617bf8565b92915050565b60006020828403121561712157600080fd5b600061712f8482850161707c565b91505092915050565b60006020828403121561714a57600080fd5b600061715884828501617091565b91505092915050565b60006020828403121561717357600080fd5b6000617181848285016170bb565b91505092915050565b60006020828403121561719c57600080fd5b60006171aa848285016170d0565b91505092915050565b6000602082840312156171c557600080fd5b60006171d3848285016170e5565b91505092915050565b6000602082840312156171ee57600080fd5b60006171fc848285016170fa565b91505092915050565b6000806040838503121561721857600080fd5b6000617226858286016170e5565b92505060206172378582860161707c565b9150509250929050565b60008060006060848603121561725657600080fd5b6000617264868287016170e5565b93505060206172758682870161707c565b92505060406172868682870161707c565b9150509250925092565b600080600080600060a086880312156172a857600080fd5b60006172b6888289016170e5565b95505060206172c78882890161707c565b94505060406172d88882890161707c565b93505060606172e98882890161707c565b92505060806172fa888289016170e5565b9150509295509295909350565b6000806000806080858703121561731d57600080fd5b600061732b878288016170e5565b945050602061733c8782880161707c565b935050604061734d8782880161707c565b925050606061735e878288016170e5565b91505092959194509250565b60008060006060848603121561737f57600080fd5b600061738d868287016170e5565b935050602061739e868287016170a6565b92505060406173af8682870161707c565b9150509250925092565b600080600080608085870312156173cf57600080fd5b60006173dd878288016170e5565b94505060206173ee878288016170a6565b93505060406173ff8782880161707c565b92505060606174108782880161707c565b91505092959194509250565b6000806040838503121561742f57600080fd5b600061743d858286016170fa565b925050602061744e858286016170fa565b9150509250929050565b60008060006060848603121561746d57600080fd5b600061747b868287016170e5565b935050602061748c868287016170e5565b925050604061749d8682870161707c565b9150509250925092565b600080600080608085870312156174bd57600080fd5b60006174cb878288016170e5565b94505060206174dc878288016170e5565b93505060406174ed8782880161707c565b92505060606174fe8782880161707c565b91505092959194509250565b617513816179b0565b82525050565b617522816179c2565b82525050565b60006175356005836178be565b915061754082617a68565b602082019050919050565b60006175586005836178be565b915061756382617a91565b602082019050919050565b600061757b6006836178be565b915061758682617aba565b602082019050919050565b600061759e6005836178be565b91506175a982617ae3565b602082019050919050565b60006175c16009836178be565b91506175cc82617b0c565b602082019050919050565b60006175e46000836178b3565b91506175ef82617b35565b600082019050919050565b60006176076005836178be565b915061761282617b38565b602082019050919050565b600061762a6004836178be565b915061763582617b61565b602082019050919050565b600061764d601f836178be565b915061765882617b8a565b602082019050919050565b61766c81617a00565b82525050565b600061767d826175d7565b9150819050919050565b600060208201905061769c600083018461750a565b92915050565b60006040820190506176b7600083018561750a565b6176c4602083018461750a565b9392505050565b60006060820190506176e0600083018661750a565b6176ed602083018561750a565b6176fa6040830184617663565b949350505050565b6000604082019050617717600083018561750a565b6177246020830184617663565b9392505050565b60006020820190506177406000830184617519565b92915050565b6000602082019050818103600083015261775f81617528565b9050919050565b6000602082019050818103600083015261777f8161754b565b9050919050565b6000602082019050818103600083015261779f8161756e565b9050919050565b600060208201905081810360008301526177bf81617591565b9050919050565b600060208201905081810360008301526177df816175b4565b9050919050565b600060208201905081810360008301526177ff816175fa565b9050919050565b6000602082019050818103600083015261781f8161761d565b9050919050565b6000602082019050818103600083015261783f81617640565b9050919050565b600060208201905061785b6000830184617663565b92915050565b60006040820190506178766000830185617663565b617883602083018461750a565b9392505050565b600060408201905061789f6000830185617663565b6178ac6020830184617663565b9392505050565b600081905092915050565b600082825260208201905092915050565b60006178da82617a00565b91506178e583617a00565b9250827fffffffffffffffffffffffffffffffffffffffffffffffffffffffffffffffff0382111561791a57617919617a0a565b5b828201905092915050565b600061793082617a00565b915061793b83617a00565b92508261794b5761794a617a39565b5b828204905092915050565b600061796182617a00565b915061796c83617a00565b9250817fffffffffffffffffffffffffffffffffffffffffffffffffffffffffffffffff04831182151516156179a5576179a4617a0a565b5b828202905092915050565b60006179bb826179e0565b9050919050565b60008115159050919050565b60006179d9826179b0565b9050919050565b600073ffffffffffffffffffffffffffffffffffffffff82169050919050565b6000819050919050565b7f4e487b7100000000000000000000000000000000000000000000000000000000600052601160045260246000fd5b7f4e487b7100000000000000000000000000000000000000000000000000000000600052601260045260246000fd5b7f21504f4f4c000000000000000000000000000000000000000000000000000000600082015250565b7f2173656e64000000000000000000000000000000000000000000000000000000600082015250565b7f2156414c49440000000000000000000000000000000000000000000000000000600082015250565b7f2152415445000000000000000000000000000000000000000000000000000000600082015250565b7f217472616e736665720000000000000000000000000000000000000000000000600082015250565b50565b7f2153414645000000000000000000000000000000000000000000000000000000600082015250565b7f2147415300000000000000000000000000000000000000000000000000000000600082015250565b7f5265656e7472616e637947756172643a207265656e7472616e742063616c6c00600082015250565b617bbc816179b0565b8114617bc757600080fd5b50565b617bd3816179c2565b8114617bde57600080fd5b50565b617bea816179ce565b8114617bf557600080fd5b50565b617c0181617a00565b8114617c0c57600080fd5b5056fea264697066735822122008a7c38a212c69fbb6d7fb1bdb020eb3b2dcbd92ce0edb5fd5486e859e5bfca364736f6c63430008030033",
  "linkReferences": {},
  "deployedLinkReferences": {}
}