{
  "_format": "hh-sol-artifact-1",
  "contractName": "Router",
  "sourceName": "contracts/Router.sol",
  "abi": [
    {
      "inputs": [
        {
          "internalType": "address",
          "name": "_base",
          "type": "address"
        },
        {
          "internalType": "address",
          "name": "_wbnb",
          "type": "address"
        }
      ],
      "stateMutability": "nonpayable",
      "type": "constructor"
    },
    {
      "inputs": [],
      "name": "BASE",
      "outputs": [
        {
          "internalType": "address",
          "name": "",
          "type": "address"
        }
      ],
      "stateMutability": "view",
      "type": "function"
    },
    {
      "inputs": [],
      "name": "DEPLOYER",
      "outputs": [
        {
          "internalType": "address",
          "name": "",
          "type": "address"
        }
      ],
      "stateMutability": "view",
      "type": "function"
    },
    {
      "inputs": [
        {
          "internalType": "uint256",
          "name": "poolRTC",
          "type": "uint256"
        },
        {
          "internalType": "address",
          "name": "_pool",
          "type": "address"
        }
      ],
      "name": "RTC",
      "outputs": [],
      "stateMutability": "nonpayable",
      "type": "function"
    },
    {
      "inputs": [],
      "name": "WBNB",
      "outputs": [
        {
          "internalType": "address",
          "name": "",
          "type": "address"
        }
      ],
      "stateMutability": "view",
      "type": "function"
    },
    {
      "inputs": [
        {
          "internalType": "uint256",
          "name": "inputBase",
          "type": "uint256"
        },
        {
          "internalType": "uint256",
          "name": "inputToken",
          "type": "uint256"
        },
        {
          "internalType": "address",
          "name": "token",
          "type": "address"
        }
      ],
      "name": "addLiquidity",
      "outputs": [],
      "stateMutability": "payable",
      "type": "function"
    },
    {
      "inputs": [
        {
          "internalType": "uint256",
          "name": "inputBase",
          "type": "uint256"
        },
        {
          "internalType": "uint256",
          "name": "inputToken",
          "type": "uint256"
        },
        {
          "internalType": "address",
          "name": "token",
          "type": "address"
        },
        {
          "internalType": "address",
          "name": "member",
          "type": "address"
        }
      ],
      "name": "addLiquidityForMember",
      "outputs": [],
      "stateMutability": "payable",
      "type": "function"
    },
    {
      "inputs": [
        {
          "internalType": "uint256",
          "name": "amount",
          "type": "uint256"
        },
        {
          "internalType": "address",
          "name": "token",
          "type": "address"
        },
        {
          "internalType": "address",
          "name": "member",
          "type": "address"
        },
        {
          "internalType": "uint256",
          "name": "minAmount",
          "type": "uint256"
        }
      ],
      "name": "buyTo",
      "outputs": [],
      "stateMutability": "nonpayable",
      "type": "function"
    },
    {
      "inputs": [
        {
          "internalType": "uint256",
          "name": "_newDiviClaim",
          "type": "uint256"
        }
      ],
      "name": "changeDiviClaim",
      "outputs": [],
      "stateMutability": "nonpayable",
      "type": "function"
    },
    {
      "inputs": [
        {
          "internalType": "uint256",
          "name": "_globalCap",
          "type": "uint256"
        }
      ],
      "name": "changeGlobalCap",
      "outputs": [],
      "stateMutability": "nonpayable",
      "type": "function"
    },
    {
      "inputs": [
        {
          "internalType": "uint256",
          "name": "poolCAP",
          "type": "uint256"
        },
        {
          "internalType": "address",
          "name": "_pool",
          "type": "address"
        }
      ],
      "name": "changePoolCap",
      "outputs": [],
      "stateMutability": "nonpayable",
      "type": "function"
    },
    {
      "inputs": [],
      "name": "curatedPoolsCount",
      "outputs": [
        {
          "internalType": "uint256",
          "name": "",
          "type": "uint256"
        }
      ],
      "stateMutability": "view",
      "type": "function"
    },
    {
      "inputs": [
        {
          "internalType": "address",
          "name": "pool",
          "type": "address"
        }
      ],
      "name": "currentPoolRevenue",
      "outputs": [
        {
          "internalType": "uint256",
          "name": "",
          "type": "uint256"
        }
      ],
      "stateMutability": "view",
      "type": "function"
    },
    {
      "inputs": [],
      "name": "diviClaim",
      "outputs": [
        {
          "internalType": "uint256",
          "name": "",
          "type": "uint256"
        }
      ],
      "stateMutability": "view",
      "type": "function"
    },
    {
      "inputs": [],
      "name": "globalCAP",
      "outputs": [
        {
          "internalType": "uint256",
          "name": "",
          "type": "uint256"
        }
      ],
      "stateMutability": "view",
      "type": "function"
    },
    {
      "inputs": [],
      "name": "lastMonth",
      "outputs": [
        {
          "internalType": "uint256",
          "name": "",
          "type": "uint256"
        }
      ],
      "stateMutability": "view",
      "type": "function"
    },
    {
      "inputs": [
        {
          "internalType": "address",
          "name": "",
          "type": "address"
        }
      ],
      "name": "mapAddress_30DayDividends",
      "outputs": [
        {
          "internalType": "uint256",
          "name": "",
          "type": "uint256"
        }
      ],
      "stateMutability": "view",
      "type": "function"
    },
    {
      "inputs": [
        {
          "internalType": "address",
          "name": "",
          "type": "address"
        }
      ],
      "name": "mapAddress_Past30DayPoolDividends",
      "outputs": [
        {
          "internalType": "uint256",
          "name": "",
          "type": "uint256"
        }
      ],
      "stateMutability": "view",
      "type": "function"
    },
    {
      "inputs": [
        {
          "internalType": "address",
          "name": "pool",
          "type": "address"
        }
      ],
      "name": "pastPoolRevenue",
      "outputs": [
        {
          "internalType": "uint256",
          "name": "",
          "type": "uint256"
        }
      ],
      "stateMutability": "view",
      "type": "function"
    },
    {
      "inputs": [
        {
          "internalType": "uint256",
          "name": "basisPoints",
          "type": "uint256"
        },
        {
          "internalType": "address",
          "name": "token",
          "type": "address"
        }
      ],
      "name": "removeLiquidity",
      "outputs": [],
      "stateMutability": "nonpayable",
      "type": "function"
    },
    {
      "inputs": [
        {
          "internalType": "uint256",
          "name": "units",
          "type": "uint256"
        },
        {
          "internalType": "address",
          "name": "token",
          "type": "address"
        }
      ],
      "name": "removeLiquidityExact",
      "outputs": [],
      "stateMutability": "nonpayable",
      "type": "function"
    },
    {
      "inputs": [
        {
          "internalType": "uint256",
          "name": "amount",
          "type": "uint256"
        },
        {
          "internalType": "address",
          "name": "token",
          "type": "address"
        },
        {
          "internalType": "address",
          "name": "member",
          "type": "address"
        },
        {
          "internalType": "uint256",
          "name": "minAmount",
          "type": "uint256"
        }
      ],
      "name": "sellTo",
      "outputs": [
        {
          "internalType": "uint256",
          "name": "",
          "type": "uint256"
        }
      ],
      "stateMutability": "payable",
      "type": "function"
    },
    {
      "inputs": [
        {
          "internalType": "uint256",
          "name": "inputAmount",
          "type": "uint256"
        },
        {
          "internalType": "address",
          "name": "fromToken",
          "type": "address"
        },
        {
          "internalType": "address",
          "name": "toToken",
          "type": "address"
        },
        {
          "internalType": "uint256",
          "name": "minAmount",
          "type": "uint256"
        }
      ],
      "name": "swap",
      "outputs": [],
      "stateMutability": "payable",
      "type": "function"
    },
    {
      "inputs": [
        {
          "internalType": "uint256",
          "name": "inputAmount",
          "type": "uint256"
        },
        {
          "internalType": "address",
          "name": "fromToken",
          "type": "address"
        },
        {
          "internalType": "address",
          "name": "toSynth",
          "type": "address"
        }
      ],
      "name": "swapAssetToSynth",
      "outputs": [],
      "stateMutability": "payable",
      "type": "function"
    },
    {
      "inputs": [
        {
          "internalType": "uint256",
          "name": "inputAmount",
          "type": "uint256"
        },
        {
          "internalType": "address",
          "name": "fromSynth",
          "type": "address"
        },
        {
          "internalType": "address",
          "name": "toToken",
          "type": "address"
        }
      ],
      "name": "swapSynthToAsset",
      "outputs": [],
      "stateMutability": "nonpayable",
      "type": "function"
    },
    {
      "inputs": [
        {
          "internalType": "uint256",
          "name": "inputAmount",
          "type": "uint256"
        },
        {
          "internalType": "address",
          "name": "fromToken",
          "type": "address"
        },
        {
          "internalType": "address",
          "name": "toToken",
          "type": "address"
        },
        {
          "internalType": "address",
          "name": "member",
          "type": "address"
        },
        {
          "internalType": "uint256",
          "name": "minAmount",
          "type": "uint256"
        }
      ],
      "name": "swapTo",
      "outputs": [],
      "stateMutability": "payable",
      "type": "function"
    },
    {
      "inputs": [
        {
          "internalType": "uint256",
          "name": "unitsInput",
          "type": "uint256"
        },
        {
          "internalType": "address",
          "name": "fromPool",
          "type": "address"
        },
        {
          "internalType": "address",
          "name": "toPool",
          "type": "address"
        }
      ],
      "name": "zapLiquidity",
      "outputs": [],
      "stateMutability": "nonpayable",
      "type": "function"
    },
    {
      "stateMutability": "payable",
      "type": "receive"
    }
  ],
  "bytecode": "0x60806040523480156200001157600080fd5b506040516200543a3803806200543a833981810160405281019062000037919062000142565b600160008190555081600160006101000a81548173ffffffffffffffffffffffffffffffffffffffff021916908373ffffffffffffffffffffffffffffffffffffffff16021790555080600260006101000a81548173ffffffffffffffffffffffffffffffffffffffff021916908373ffffffffffffffffffffffffffffffffffffffff160217905550606460068190555060006007819055506107d0600581905550606460048190555033600360006101000a81548173ffffffffffffffffffffffffffffffffffffffff021916908373ffffffffffffffffffffffffffffffffffffffff1602179055505050620001d1565b6000815190506200013c81620001b7565b92915050565b600080604083850312156200015657600080fd5b600062000166858286016200012b565b925050602062000179858286016200012b565b9150509250929050565b6000620001908262000197565b9050919050565b600073ffffffffffffffffffffffffffffffffffffffff82169050919050565b620001c28162000183565b8114620001ce57600080fd5b50565b61525980620001e16000396000f3fe6080604052600436106101855760003560e01c80638dd95002116100d1578063c11a18f41161008a578063cbb3a14a11610064578063cbb3a14a14610523578063ec342ad014610560578063ee85eda41461058b578063f48610f3146105b65761018c565b8063c11a18f4146104a4578063c1b8411a146104cf578063c8c1fb75146104fa5761018c565b80638dd95002146103a357806393cac685146103ce5780639921c266146103ea57806399d786ca14610427578063a1cd6aa514610452578063b45e1dbc1461047b5761018c565b8063398ceaae1161013e5780635777646711610118578063577764671461031957806370085be01461034257806387b21efc1461035e5780638b697c201461037a5761018c565b8063398ceaae146102955780633e384a95146102c0578063451918db146102dc5761018c565b806305fe138b1461019157806307f4d34c146101ba5780632a47793e146101e35780632ac274821461020c5780633173ec3c14610249578063334ea133146102655761018c565b3661018c57005b600080fd5b34801561019d57600080fd5b506101b860048036038101906101b391906148f4565b6105df565b005b3480156101c657600080fd5b506101e160048036038101906101dc91906148a2565b6108a2565b005b3480156101ef57600080fd5b5061020a600480360381019061020591906148f4565b610a10565b005b34801561021857600080fd5b50610233600480360381019061022e91906147fe565b610b93565b6040516102409190614e83565b60405180910390f35b610263600480360381019061025e9190614930565b610bdc565b005b61027f600480360381019061027a91906149f6565b611170565b60405161028c9190614e83565b60405180910390f35b3480156102a157600080fd5b506102aa611415565b6040516102b79190614e83565b60405180910390f35b6102da60048036038101906102d5919061497f565b61141b565b005b3480156102e857600080fd5b5061030360048036038101906102fe91906147fe565b6118af565b6040516103109190614e83565b60405180910390f35b34801561032557600080fd5b50610340600480360381019061033b91906148a2565b6118c7565b005b61035c600480360381019061035791906149f6565b6119e5565b005b61037860048036038101906103739190614a95565b6119f8565b005b34801561038657600080fd5b506103a1600480360381019061039c91906148f4565b611a09565b005b3480156103af57600080fd5b506103b8611b8c565b6040516103c59190614cc4565b60405180910390f35b6103e860048036038101906103e39190614ae4565b611bb2565b005b3480156103f657600080fd5b50610411600480360381019061040c91906147fe565b611e55565b60405161041e9190614e83565b60405180910390f35b34801561043357600080fd5b5061043c611e9e565b6040516104499190614e83565b60405180910390f35b34801561045e57600080fd5b5061047960048036038101906104749190614930565b611ea4565b005b34801561048757600080fd5b506104a2600480360381019061049d9190614930565b612607565b005b3480156104b057600080fd5b506104b9612daa565b6040516104c69190614e83565b60405180910390f35b3480156104db57600080fd5b506104e4612db0565b6040516104f19190614cc4565b60405180910390f35b34801561050657600080fd5b50610521600480360381019061051c91906148f4565b612dd6565b005b34801561052f57600080fd5b5061054a600480360381019061054591906147fe565b613430565b6040516105579190614e83565b60405180910390f35b34801561056c57600080fd5b50610575613448565b6040516105829190614cc4565b60405180910390f35b34801561059757600080fd5b506105a061346e565b6040516105ad9190614e83565b60405180910390f35b3480156105c257600080fd5b506105dd60048036038101906105d891906149f6565b613474565b005b600082116105ec57600080fd5b60006105f6613859565b73ffffffffffffffffffffffffffffffffffffffff16637b0e5c456040518163ffffffff1660e01b815260040160206040518083038186803b15801561063b57600080fd5b505afa15801561064f573d6000803e3d6000fd5b505050506040513d601f19601f820116820180604052508101906106739190614827565b73ffffffffffffffffffffffffffffffffffffffff1663714270ab84610697613859565b73ffffffffffffffffffffffffffffffffffffffff1663b99b0a0c6040518163ffffffff1660e01b815260040160206040518083038186803b1580156106dc57600080fd5b505afa1580156106f0573d6000803e3d6000fd5b505050506040513d601f19601f820116820180604052508101906107149190614827565b73ffffffffffffffffffffffffffffffffffffffff1663bbe4f6db866040518263ffffffff1660e01b815260040161074c9190614cc4565b60206040518083038186803b15801561076457600080fd5b505afa158015610778573d6000803e3d6000fd5b505050506040513d601f19601f8201168201806040525081019061079c9190614827565b73ffffffffffffffffffffffffffffffffffffffff166370a08231336040518263ffffffff1660e01b81526004016107d49190614cc4565b60206040518083038186803b1580156107ec57600080fd5b505afa158015610800573d6000803e3d6000fd5b505050506040513d601f19601f8201168201806040525081019061082491906148cb565b6040518363ffffffff1660e01b8152600401610841929190614ec7565b60206040518083038186803b15801561085957600080fd5b505afa15801561086d573d6000803e3d6000fd5b505050506040513d601f19601f8201168201806040525081019061089191906148cb565b905061089d8183612dd6565b505050565b6108aa613859565b73ffffffffffffffffffffffffffffffffffffffff166398fabd3a6040518163ffffffff1660e01b815260040160206040518083038186803b1580156108ef57600080fd5b505afa158015610903573d6000803e3d6000fd5b505050506040513d601f19601f820116820180604052508101906109279190614827565b73ffffffffffffffffffffffffffffffffffffffff163373ffffffffffffffffffffffffffffffffffffffff1614806109ad5750600360009054906101000a900473ffffffffffffffffffffffffffffffffffffffff1673ffffffffffffffffffffffffffffffffffffffff163373ffffffffffffffffffffffffffffffffffffffff16145b6109b657600080fd5b6000811180156109c7575061138881105b610a06576040517f08c379a00000000000000000000000000000000000000000000000000000000081526004016109fd90614da3565b60405180910390fd5b8060048190555050565b610a18613859565b73ffffffffffffffffffffffffffffffffffffffff166398fabd3a6040518163ffffffff1660e01b815260040160206040518083038186803b158015610a5d57600080fd5b505afa158015610a71573d6000803e3d6000fd5b505050506040513d601f19601f82011682018060405250810190610a959190614827565b73ffffffffffffffffffffffffffffffffffffffff163373ffffffffffffffffffffffffffffffffffffffff161480610b1b5750600360009054906101000a900473ffffffffffffffffffffffffffffffffffffffff1673ffffffffffffffffffffffffffffffffffffffff163373ffffffffffffffffffffffffffffffffffffffff16145b610b2457600080fd5b8073ffffffffffffffffffffffffffffffffffffffff1663b98ac04b836040518263ffffffff1660e01b8152600401610b5d9190614e83565b600060405180830381600087803b158015610b7757600080fd5b505af1158015610b8b573d6000803e3d6000fd5b505050505050565b6000600960008373ffffffffffffffffffffffffffffffffffffffff1673ffffffffffffffffffffffffffffffffffffffff168152602001908152602001600020549050919050565b8073ffffffffffffffffffffffffffffffffffffffff168273ffffffffffffffffffffffffffffffffffffffff161415610c1557600080fd5b60011515610c21613859565b73ffffffffffffffffffffffffffffffffffffffff16639d2cc4366040518163ffffffff1660e01b815260040160206040518083038186803b158015610c6657600080fd5b505afa158015610c7a573d6000803e3d6000fd5b505050506040513d601f19601f82011682018060405250810190610c9e9190614827565b73ffffffffffffffffffffffffffffffffffffffff1663194e22ce6040518163ffffffff1660e01b8152600401602060405180830381600087803b158015610ce557600080fd5b505af1158015610cf9573d6000803e3d6000fd5b505050506040513d601f19601f82011682018060405250810190610d1d9190614850565b15151415610d60576040517f08c379a0000000000000000000000000000000000000000000000000000000008152600401610d5790614e23565b60405180910390fd5b60008173ffffffffffffffffffffffffffffffffffffffff16637535d2466040518163ffffffff1660e01b815260040160206040518083038186803b158015610da857600080fd5b505afa158015610dbc573d6000803e3d6000fd5b505050506040513d601f19601f82011682018060405250810190610de09190614827565b9050600073ffffffffffffffffffffffffffffffffffffffff168173ffffffffffffffffffffffffffffffffffffffff161415610e52576040517f08c379a0000000000000000000000000000000000000000000000000000000008152600401610e4990614d83565b60405180910390fd5b600160009054906101000a900473ffffffffffffffffffffffffffffffffffffffff1673ffffffffffffffffffffffffffffffffffffffff168373ffffffffffffffffffffffffffffffffffffffff161461101457610eb48484306000611170565b50600160009054906101000a900473ffffffffffffffffffffffffffffffffffffffff1673ffffffffffffffffffffffffffffffffffffffff1663a9059cbb82600160009054906101000a900473ffffffffffffffffffffffffffffffffffffffff1673ffffffffffffffffffffffffffffffffffffffff166370a08231306040518263ffffffff1660e01b8152600401610f4f9190614cc4565b60206040518083038186803b158015610f6757600080fd5b505afa158015610f7b573d6000803e3d6000fd5b505050506040513d601f19601f82011682018060405250810190610f9f91906148cb565b6040518363ffffffff1660e01b8152600401610fbc929190614d3f565b602060405180830381600087803b158015610fd657600080fd5b505af1158015610fea573d6000803e3d6000fd5b505050506040513d601f19601f8201168201806040525081019061100e9190614850565b506110c7565b600160009054906101000a900473ffffffffffffffffffffffffffffffffffffffff1673ffffffffffffffffffffffffffffffffffffffff166323b872dd3383876040518463ffffffff1660e01b815260040161107393929190614d08565b602060405180830381600087803b15801561108d57600080fd5b505af11580156110a1573d6000803e3d6000fd5b505050506040513d601f19601f820116820180604052508101906110c59190614850565b505b60008173ffffffffffffffffffffffffffffffffffffffff1663f1bbdef2336040518263ffffffff1660e01b81526004016111029190614cc4565b6040805180830381600087803b15801561111b57600080fd5b505af115801561112f573d6000803e3d6000fd5b505050506040513d601f19601f820116820180604052508101906111539190614a59565b91505061115f82613900565b6111698282613b8a565b5050505050565b60008061117b613859565b73ffffffffffffffffffffffffffffffffffffffff1663b99b0a0c6040518163ffffffff1660e01b815260040160206040518083038186803b1580156111c057600080fd5b505afa1580156111d4573d6000803e3d6000fd5b505050506040513d601f19601f820116820180604052508101906111f89190614827565b73ffffffffffffffffffffffffffffffffffffffff1663bbe4f6db866040518263ffffffff1660e01b81526004016112309190614cc4565b60206040518083038186803b15801561124857600080fd5b505afa15801561125c573d6000803e3d6000fd5b505050506040513d601f19601f820116820180604052508101906112809190614827565b9050600073ffffffffffffffffffffffffffffffffffffffff168173ffffffffffffffffffffffffffffffffffffffff1614156112f2576040517f08c379a00000000000000000000000000000000000000000000000000000000081526004016112e990614d83565b60405180910390fd5b6112fd858783613cc5565b6000808273ffffffffffffffffffffffffffffffffffffffff16632783e4a9600160009054906101000a900473ffffffffffffffffffffffffffffffffffffffff16886040518363ffffffff1660e01b815260040161135d929190614cdf565b6040805180830381600087803b15801561137657600080fd5b505af115801561138a573d6000803e3d6000fd5b505050506040513d601f19601f820116820180604052508101906113ae9190614a59565b915091508482116113f4576040517f08c379a00000000000000000000000000000000000000000000000000000000081526004016113eb90614e03565b60405180910390fd5b6113fd83613900565b6114078382613b8a565b809350505050949350505050565b60085481565b8273ffffffffffffffffffffffffffffffffffffffff168473ffffffffffffffffffffffffffffffffffffffff16141561145457600080fd5b600160009054906101000a900473ffffffffffffffffffffffffffffffffffffffff1673ffffffffffffffffffffffffffffffffffffffff168473ffffffffffffffffffffffffffffffffffffffff1614156114bb576114b685848484613474565b6118a8565b600160009054906101000a900473ffffffffffffffffffffffffffffffffffffffff1673ffffffffffffffffffffffffffffffffffffffff168373ffffffffffffffffffffffffffffffffffffffff1614156115235761151d85858484611170565b506118a7565b600061152d613859565b73ffffffffffffffffffffffffffffffffffffffff1663b99b0a0c6040518163ffffffff1660e01b815260040160206040518083038186803b15801561157257600080fd5b505afa158015611586573d6000803e3d6000fd5b505050506040513d601f19601f820116820180604052508101906115aa9190614827565b73ffffffffffffffffffffffffffffffffffffffff1663bbe4f6db856040518263ffffffff1660e01b81526004016115e29190614cc4565b60206040518083038186803b1580156115fa57600080fd5b505afa15801561160e573d6000803e3d6000fd5b505050506040513d601f19601f820116820180604052508101906116329190614827565b9050600073ffffffffffffffffffffffffffffffffffffffff168173ffffffffffffffffffffffffffffffffffffffff1614156116a4576040517f08c379a000000000000000000000000000000000000000000000000000000000815260040161169b90614d83565b60405180910390fd5b60006116b38787846000611170565b90506000859050600073ffffffffffffffffffffffffffffffffffffffff168673ffffffffffffffffffffffffffffffffffffffff16141561171557600260009054906101000a900473ffffffffffffffffffffffffffffffffffffffff1690505b6000808473ffffffffffffffffffffffffffffffffffffffff16632783e4a984306040518363ffffffff1660e01b8152600401611753929190614cdf565b6040805180830381600087803b15801561176c57600080fd5b505af1158015611780573d6000803e3d6000fd5b505050506040513d601f19601f820116820180604052508101906117a49190614a59565b915091508582116117ea576040517f08c379a00000000000000000000000000000000000000000000000000000000081526004016117e190614e03565b60405180910390fd5b600081856117f89190614f0c565b905061180386613900565b61180d8682613b8a565b6118a0898573ffffffffffffffffffffffffffffffffffffffff166370a08231306040518263ffffffff1660e01b815260040161184a9190614cc4565b60206040518083038186803b15801561186257600080fd5b505afa158015611876573d6000803e3d6000fd5b505050506040513d601f19601f8201168201806040525081019061189a91906148cb565b8a613f63565b5050505050505b5b5050505050565b600a6020528060005260406000206000915090505481565b6118cf613859565b73ffffffffffffffffffffffffffffffffffffffff166398fabd3a6040518163ffffffff1660e01b815260040160206040518083038186803b15801561191457600080fd5b505afa158015611928573d6000803e3d6000fd5b505050506040513d601f19601f8201168201806040525081019061194c9190614827565b73ffffffffffffffffffffffffffffffffffffffff163373ffffffffffffffffffffffffffffffffffffffff1614806119d25750600360009054906101000a900473ffffffffffffffffffffffffffffffffffffffff1673ffffffffffffffffffffffffffffffffffffffff163373ffffffffffffffffffffffffffffffffffffffff16145b6119db57600080fd5b8060058190555050565b6119f2848484338561141b565b50505050565b611a0483838333611bb2565b505050565b611a11613859565b73ffffffffffffffffffffffffffffffffffffffff166398fabd3a6040518163ffffffff1660e01b815260040160206040518083038186803b158015611a5657600080fd5b505afa158015611a6a573d6000803e3d6000fd5b505050506040513d601f19601f82011682018060405250810190611a8e9190614827565b73ffffffffffffffffffffffffffffffffffffffff163373ffffffffffffffffffffffffffffffffffffffff161480611b145750600360009054906101000a900473ffffffffffffffffffffffffffffffffffffffff1673ffffffffffffffffffffffffffffffffffffffff163373ffffffffffffffffffffffffffffffffffffffff16145b611b1d57600080fd5b8073ffffffffffffffffffffffffffffffffffffffff16637ec3eae5836040518263ffffffff1660e01b8152600401611b569190614e83565b600060405180830381600087803b158015611b7057600080fd5b505af1158015611b84573d6000803e3d6000fd5b505050505050565b600260009054906101000a900473ffffffffffffffffffffffffffffffffffffffff1681565b6000611bbc613859565b73ffffffffffffffffffffffffffffffffffffffff1663b99b0a0c6040518163ffffffff1660e01b815260040160206040518083038186803b158015611c0157600080fd5b505afa158015611c15573d6000803e3d6000fd5b505050506040513d601f19601f82011682018060405250810190611c399190614827565b73ffffffffffffffffffffffffffffffffffffffff1663bbe4f6db846040518263ffffffff1660e01b8152600401611c719190614cc4565b60206040518083038186803b158015611c8957600080fd5b505afa158015611c9d573d6000803e3d6000fd5b505050506040513d601f19601f82011682018060405250810190611cc19190614827565b90506000851180611cd25750600084115b611d11576040517f08c379a0000000000000000000000000000000000000000000000000000000008152600401611d0890614de3565b60405180910390fd5b600073ffffffffffffffffffffffffffffffffffffffff168173ffffffffffffffffffffffffffffffffffffffff161415611d81576040517f08c379a0000000000000000000000000000000000000000000000000000000008152600401611d7890614d83565b60405180910390fd5b611dae600160009054906101000a900473ffffffffffffffffffffffffffffffffffffffff168683613cc5565b611db9838583613cc5565b8073ffffffffffffffffffffffffffffffffffffffff166386d5f618836040518263ffffffff1660e01b8152600401611df29190614cc4565b602060405180830381600087803b158015611e0c57600080fd5b505af1158015611e20573d6000803e3d6000fd5b505050506040513d601f19601f82011682018060405250810190611e4491906148cb565b50611e4e81613900565b5050505050565b6000600a60008373ffffffffffffffffffffffffffffffffffffffff1673ffffffffffffffffffffffffffffffffffffffff168152602001908152602001600020549050919050565b60075481565b8073ffffffffffffffffffffffffffffffffffffffff168273ffffffffffffffffffffffffffffffffffffffff161415611edd57600080fd5b60011515611ee9613859565b73ffffffffffffffffffffffffffffffffffffffff16639d2cc4366040518163ffffffff1660e01b815260040160206040518083038186803b158015611f2e57600080fd5b505afa158015611f42573d6000803e3d6000fd5b505050506040513d601f19601f82011682018060405250810190611f669190614827565b73ffffffffffffffffffffffffffffffffffffffff1663194e22ce6040518163ffffffff1660e01b8152600401602060405180830381600087803b158015611fad57600080fd5b505af1158015611fc1573d6000803e3d6000fd5b505050506040513d601f19601f82011682018060405250810190611fe59190614850565b15151415612028576040517f08c379a000000000000000000000000000000000000000000000000000000000815260040161201f90614e23565b60405180910390fd5b60008273ffffffffffffffffffffffffffffffffffffffff16637535d2466040518163ffffffff1660e01b815260040160206040518083038186803b15801561207057600080fd5b505afa158015612084573d6000803e3d6000fd5b505050506040513d601f19601f820116820180604052508101906120a89190614827565b905060006120b4613859565b73ffffffffffffffffffffffffffffffffffffffff1663b99b0a0c6040518163ffffffff1660e01b815260040160206040518083038186803b1580156120f957600080fd5b505afa15801561210d573d6000803e3d6000fd5b505050506040513d601f19601f820116820180604052508101906121319190614827565b73ffffffffffffffffffffffffffffffffffffffff1663bbe4f6db846040518263ffffffff1660e01b81526004016121699190614cc4565b60206040518083038186803b15801561218157600080fd5b505afa158015612195573d6000803e3d6000fd5b505050506040513d601f19601f820116820180604052508101906121b99190614827565b9050600073ffffffffffffffffffffffffffffffffffffffff168173ffffffffffffffffffffffffffffffffffffffff16141561222b576040517f08c379a000000000000000000000000000000000000000000000000000000000815260040161222290614d83565b60405180910390fd5b8373ffffffffffffffffffffffffffffffffffffffff166323b872dd3384886040518463ffffffff1660e01b815260040161226893929190614d08565b602060405180830381600087803b15801561228257600080fd5b505af1158015612296573d6000803e3d6000fd5b505050506040513d601f19601f820116820180604052508101906122ba9190614850565b50600080600160009054906101000a900473ffffffffffffffffffffffffffffffffffffffff1673ffffffffffffffffffffffffffffffffffffffff168573ffffffffffffffffffffffffffffffffffffffff1614156123a5578373ffffffffffffffffffffffffffffffffffffffff1663dbfc5a04336040518263ffffffff1660e01b815260040161234d9190614cc4565b6040805180830381600087803b15801561236657600080fd5b505af115801561237a573d6000803e3d6000fd5b505050506040513d601f19601f8201168201806040525081019061239e9190614a59565b50506125e2565b8373ffffffffffffffffffffffffffffffffffffffff1663dbfc5a04306040518263ffffffff1660e01b81526004016123de9190614cc4565b6040805180830381600087803b1580156123f757600080fd5b505af115801561240b573d6000803e3d6000fd5b505050506040513d601f19601f8201168201806040525081019061242f9190614a59565b8092508193505050600073ffffffffffffffffffffffffffffffffffffffff168573ffffffffffffffffffffffffffffffffffffffff16146125105760008373ffffffffffffffffffffffffffffffffffffffff16632783e4a987336040518363ffffffff1660e01b81526004016124a8929190614cdf565b6040805180830381600087803b1580156124c157600080fd5b505af11580156124d5573d6000803e3d6000fd5b505050506040513d601f19601f820116820180604052508101906124f99190614a59565b91505081816125089190614f0c565b9150506125e1565b6000808473ffffffffffffffffffffffffffffffffffffffff16632783e4a9600260009054906101000a900473ffffffffffffffffffffffffffffffffffffffff16306040518363ffffffff1660e01b8152600401612570929190614cdf565b6040805180830381600087803b15801561258957600080fd5b505af115801561259d573d6000803e3d6000fd5b505050506040513d601f19601f820116820180604052508101906125c19190614a59565b915091506125d0878333613f63565b82816125dc9190614f0c565b925050505b5b6125eb84613900565b6125f483613900565b6125fe8382613b8a565b50505050505050565b8073ffffffffffffffffffffffffffffffffffffffff168273ffffffffffffffffffffffffffffffffffffffff16141580156126435750600083115b612682576040517f08c379a000000000000000000000000000000000000000000000000000000000815260040161267990614de3565b60405180910390fd5b600061268c613859565b73ffffffffffffffffffffffffffffffffffffffff1663b99b0a0c6040518163ffffffff1660e01b815260040160206040518083038186803b1580156126d157600080fd5b505afa1580156126e5573d6000803e3d6000fd5b505050506040513d601f19601f820116820180604052508101906127099190614827565b9050600115158173ffffffffffffffffffffffffffffffffffffffff16635b16ebb7856040518263ffffffff1660e01b81526004016127489190614cc4565b602060405180830381600087803b15801561276257600080fd5b505af1158015612776573d6000803e3d6000fd5b505050506040513d601f19601f8201168201806040525081019061279a9190614850565b1515146127a657600080fd5b600115158173ffffffffffffffffffffffffffffffffffffffff16635b16ebb7846040518263ffffffff1660e01b81526004016127e39190614cc4565b602060405180830381600087803b1580156127fd57600080fd5b505af1158015612811573d6000803e3d6000fd5b505050506040513d601f19601f820116820180604052508101906128359190614850565b15151461284157600080fd5b60008373ffffffffffffffffffffffffffffffffffffffff166382bfefc86040518163ffffffff1660e01b815260040160206040518083038186803b15801561288957600080fd5b505afa15801561289d573d6000803e3d6000fd5b505050506040513d601f19601f820116820180604052508101906128c19190614827565b905060003390508473ffffffffffffffffffffffffffffffffffffffff166323b872dd8287896040518463ffffffff1660e01b815260040161290593929190614d08565b602060405180830381600087803b15801561291f57600080fd5b505af1158015612933573d6000803e3d6000fd5b505050506040513d601f19601f820116820180604052508101906129579190614850565b508473ffffffffffffffffffffffffffffffffffffffff1663bc5dedc9306040518263ffffffff1660e01b81526004016129919190614cc4565b6040805180830381600087803b1580156129aa57600080fd5b505af11580156129be573d6000803e3d6000fd5b505050506040513d601f19601f820116820180604052508101906129e29190614a59565b50508173ffffffffffffffffffffffffffffffffffffffff1663a9059cbb868473ffffffffffffffffffffffffffffffffffffffff166370a08231306040518263ffffffff1660e01b8152600401612a3a9190614cc4565b60206040518083038186803b158015612a5257600080fd5b505afa158015612a66573d6000803e3d6000fd5b505050506040513d601f19601f82011682018060405250810190612a8a91906148cb565b6040518363ffffffff1660e01b8152600401612aa7929190614d3f565b602060405180830381600087803b158015612ac157600080fd5b505af1158015612ad5573d6000803e3d6000fd5b505050506040513d601f19601f82011682018060405250810190612af99190614850565b508473ffffffffffffffffffffffffffffffffffffffff16632783e4a9600160009054906101000a900473ffffffffffffffffffffffffffffffffffffffff16866040518363ffffffff1660e01b8152600401612b57929190614cdf565b6040805180830381600087803b158015612b7057600080fd5b505af1158015612b84573d6000803e3d6000fd5b505050506040513d601f19601f82011682018060405250810190612ba89190614a59565b5050600160009054906101000a900473ffffffffffffffffffffffffffffffffffffffff1673ffffffffffffffffffffffffffffffffffffffff1663a9059cbb85600160009054906101000a900473ffffffffffffffffffffffffffffffffffffffff1673ffffffffffffffffffffffffffffffffffffffff166370a08231306040518263ffffffff1660e01b8152600401612c449190614cc4565b60206040518083038186803b158015612c5c57600080fd5b505afa158015612c70573d6000803e3d6000fd5b505050506040513d601f19601f82011682018060405250810190612c9491906148cb565b6040518363ffffffff1660e01b8152600401612cb1929190614d3f565b602060405180830381600087803b158015612ccb57600080fd5b505af1158015612cdf573d6000803e3d6000fd5b505050506040513d601f19601f82011682018060405250810190612d039190614850565b508373ffffffffffffffffffffffffffffffffffffffff166386d5f618826040518263ffffffff1660e01b8152600401612d3d9190614cc4565b602060405180830381600087803b158015612d5757600080fd5b505af1158015612d6b573d6000803e3d6000fd5b505050506040513d601f19601f82011682018060405250810190612d8f91906148cb565b50612d9985613900565b612da284613900565b505050505050565b60055481565b600360009054906101000a900473ffffffffffffffffffffffffffffffffffffffff1681565b6000612de0613859565b73ffffffffffffffffffffffffffffffffffffffff1663b99b0a0c6040518163ffffffff1660e01b815260040160206040518083038186803b158015612e2557600080fd5b505afa158015612e39573d6000803e3d6000fd5b505050506040513d601f19601f82011682018060405250810190612e5d9190614827565b73ffffffffffffffffffffffffffffffffffffffff1663bbe4f6db836040518263ffffffff1660e01b8152600401612e959190614cc4565b60206040518083038186803b158015612ead57600080fd5b505afa158015612ec1573d6000803e3d6000fd5b505050506040513d601f19601f82011682018060405250810190612ee59190614827565b905060011515612ef3613859565b73ffffffffffffffffffffffffffffffffffffffff16639d2cc4366040518163ffffffff1660e01b815260040160206040518083038186803b158015612f3857600080fd5b505afa158015612f4c573d6000803e3d6000fd5b505050506040513d601f19601f82011682018060405250810190612f709190614827565b73ffffffffffffffffffffffffffffffffffffffff1663194e22ce6040518163ffffffff1660e01b8152600401602060405180830381600087803b158015612fb757600080fd5b505af1158015612fcb573d6000803e3d6000fd5b505050506040513d601f19601f82011682018060405250810190612fef9190614850565b15151415613032576040517f08c379a000000000000000000000000000000000000000000000000000000000815260040161302990614e23565b60405180910390fd5b600073ffffffffffffffffffffffffffffffffffffffff168173ffffffffffffffffffffffffffffffffffffffff1614156130a2576040517f08c379a000000000000000000000000000000000000000000000000000000000815260040161309990614d83565b60405180910390fd5b60003390508173ffffffffffffffffffffffffffffffffffffffff166323b872dd8284876040518463ffffffff1660e01b81526004016130e493929190614d08565b602060405180830381600087803b1580156130fe57600080fd5b505af1158015613112573d6000803e3d6000fd5b505050506040513d601f19601f820116820180604052508101906131369190614850565b50600073ffffffffffffffffffffffffffffffffffffffff168373ffffffffffffffffffffffffffffffffffffffff16146131fc578173ffffffffffffffffffffffffffffffffffffffff1663bc5dedc9826040518263ffffffff1660e01b81526004016131a49190614cc4565b6040805180830381600087803b1580156131bd57600080fd5b505af11580156131d1573d6000803e3d6000fd5b505050506040513d601f19601f820116820180604052508101906131f59190614a59565b5050613421565b8173ffffffffffffffffffffffffffffffffffffffff1663bc5dedc9306040518263ffffffff1660e01b81526004016132359190614cc4565b6040805180830381600087803b15801561324e57600080fd5b505af1158015613262573d6000803e3d6000fd5b505050506040513d601f19601f820116820180604052508101906132869190614a59565b50506000600160009054906101000a900473ffffffffffffffffffffffffffffffffffffffff1673ffffffffffffffffffffffffffffffffffffffff166370a08231306040518263ffffffff1660e01b81526004016132e59190614cc4565b60206040518083038186803b1580156132fd57600080fd5b505afa158015613311573d6000803e3d6000fd5b505050506040513d601f19601f8201168201806040525081019061333591906148cb565b90506000600260009054906101000a900473ffffffffffffffffffffffffffffffffffffffff1673ffffffffffffffffffffffffffffffffffffffff166370a08231306040518263ffffffff1660e01b81526004016133949190614cc4565b60206040518083038186803b1580156133ac57600080fd5b505afa1580156133c0573d6000803e3d6000fd5b505050506040513d601f19601f820116820180604052508101906133e491906148cb565b90506133f1858285613f63565b61341e600160009054906101000a900473ffffffffffffffffffffffffffffffffffffffff168385613f63565b50505b61342a82613900565b50505050565b60096020528060005260406000206000915090505481565b600160009054906101000a900473ffffffffffffffffffffffffffffffffffffffff1681565b60045481565b600061347e613859565b73ffffffffffffffffffffffffffffffffffffffff1663b99b0a0c6040518163ffffffff1660e01b815260040160206040518083038186803b1580156134c357600080fd5b505afa1580156134d7573d6000803e3d6000fd5b505050506040513d601f19601f820116820180604052508101906134fb9190614827565b73ffffffffffffffffffffffffffffffffffffffff1663bbe4f6db856040518263ffffffff1660e01b81526004016135339190614cc4565b60206040518083038186803b15801561354b57600080fd5b505afa15801561355f573d6000803e3d6000fd5b505050506040513d601f19601f820116820180604052508101906135839190614827565b9050600073ffffffffffffffffffffffffffffffffffffffff168173ffffffffffffffffffffffffffffffffffffffff1614156135f5576040517f08c379a00000000000000000000000000000000000000000000000000000000081526004016135ec90614d83565b60405180910390fd5b613622600160009054906101000a900473ffffffffffffffffffffffffffffffffffffffff168683613cc5565b60008073ffffffffffffffffffffffffffffffffffffffff168573ffffffffffffffffffffffffffffffffffffffff1614613736576000808373ffffffffffffffffffffffffffffffffffffffff16632783e4a988886040518363ffffffff1660e01b8152600401613695929190614cdf565b6040805180830381600087803b1580156136ae57600080fd5b505af11580156136c2573d6000803e3d6000fd5b505050506040513d601f19601f820116820180604052508101906136e69190614a59565b9150915084821161372c576040517f08c379a000000000000000000000000000000000000000000000000000000000815260040161372390614e03565b60405180910390fd5b809250505061383e565b6000808373ffffffffffffffffffffffffffffffffffffffff16632783e4a9600260009054906101000a900473ffffffffffffffffffffffffffffffffffffffff16306040518363ffffffff1660e01b8152600401613796929190614cdf565b6040805180830381600087803b1580156137af57600080fd5b505af11580156137c3573d6000803e3d6000fd5b505050506040513d601f19601f820116820180604052508101906137e79190614a59565b9150915084821161382d576040517f08c379a000000000000000000000000000000000000000000000000000000000815260040161382490614e03565b60405180910390fd5b613838878388613f63565b80925050505b61384782613900565b6138518282613b8a565b505050505050565b6000600160009054906101000a900473ffffffffffffffffffffffffffffffffffffffff1673ffffffffffffffffffffffffffffffffffffffff166398fabd3a6040518163ffffffff1660e01b815260040160206040518083038186803b1580156138c357600080fd5b505afa1580156138d7573d6000803e3d6000fd5b505050506040513d601f19601f820116820180604052508101906138fb9190614879565b905090565b613908613859565b73ffffffffffffffffffffffffffffffffffffffff1663b99b0a0c6040518163ffffffff1660e01b815260040160206040518083038186803b15801561394d57600080fd5b505afa158015613961573d6000803e3d6000fd5b505050506040513d601f19601f820116820180604052508101906139859190614827565b73ffffffffffffffffffffffffffffffffffffffff16638dcb4c93826040518263ffffffff1660e01b81526004016139bd9190614cc4565b60206040518083038186803b1580156139d557600080fd5b505afa1580156139e9573d6000803e3d6000fd5b505050506040513d601f19601f82011682018060405250810190613a0d9190614850565b15613b87578073ffffffffffffffffffffffffffffffffffffffff166362a5af3b6040518163ffffffff1660e01b815260040160206040518083038186803b158015613a5857600080fd5b505afa158015613a6c573d6000803e3d6000fd5b505050506040513d601f19601f82011682018060405250810190613a909190614850565b15613b8657613a9d613859565b73ffffffffffffffffffffffffffffffffffffffff16639d2cc4366040518163ffffffff1660e01b815260040160206040518083038186803b158015613ae257600080fd5b505afa158015613af6573d6000803e3d6000fd5b505050506040513d601f19601f82011682018060405250810190613b1a9190614827565b73ffffffffffffffffffffffffffffffffffffffff16637828c71760016040518263ffffffff1660e01b8152600401613b539190614d68565b600060405180830381600087803b158015613b6d57600080fd5b505af1158015613b81573d6000803e3d6000fd5b505050505b5b50565b670de0b6b3a764000081118015613cb1575060011515613ba8613859565b73ffffffffffffffffffffffffffffffffffffffff1663b99b0a0c6040518163ffffffff1660e01b815260040160206040518083038186803b158015613bed57600080fd5b505afa158015613c01573d6000803e3d6000fd5b505050506040513d601f19601f82011682018060405250810190613c259190614827565b73ffffffffffffffffffffffffffffffffffffffff16638dcb4c93846040518263ffffffff1660e01b8152600401613c5d9190614cc4565b60206040518083038186803b158015613c7557600080fd5b505afa158015613c89573d6000803e3d6000fd5b505050506040513d601f19601f82011682018060405250810190613cad9190614850565b1515145b15613cc157613cc082826141cb565b5b5050565b60008211613d08576040517f08c379a0000000000000000000000000000000000000000000000000000000008152600401613cff90614e43565b60405180910390fd5b600073ffffffffffffffffffffffffffffffffffffffff168373ffffffffffffffffffffffffffffffffffffffff161415613ecd57348214613d4957600080fd5b6000600260009054906101000a900473ffffffffffffffffffffffffffffffffffffffff1673ffffffffffffffffffffffffffffffffffffffff1683604051613d9190614caf565b60006040518083038185875af1925050503d8060008114613dce576040519150601f19603f3d011682016040523d82523d6000602084013e613dd3565b606091505b5050905080613e17576040517f08c379a0000000000000000000000000000000000000000000000000000000008152600401613e0e90614dc3565b60405180910390fd5b600260009054906101000a900473ffffffffffffffffffffffffffffffffffffffff1673ffffffffffffffffffffffffffffffffffffffff1663a9059cbb83856040518363ffffffff1660e01b8152600401613e74929190614d3f565b602060405180830381600087803b158015613e8e57600080fd5b505af1158015613ea2573d6000803e3d6000fd5b505050506040513d601f19601f82011682018060405250810190613ec69190614850565b5050613f5e565b8273ffffffffffffffffffffffffffffffffffffffff166323b872dd3383856040518463ffffffff1660e01b8152600401613f0a93929190614d08565b602060405180830381600087803b158015613f2457600080fd5b505af1158015613f38573d6000803e3d6000fd5b505050506040513d601f19601f82011682018060405250810190613f5c9190614850565b505b505050565b60026000541415613fa9576040517f08c379a0000000000000000000000000000000000000000000000000000000008152600401613fa090614e63565b60405180910390fd5b600260008190555060008211156141be57600073ffffffffffffffffffffffffffffffffffffffff168373ffffffffffffffffffffffffffffffffffffffff16141561412e57600260009054906101000a900473ffffffffffffffffffffffffffffffffffffffff1673ffffffffffffffffffffffffffffffffffffffff16632e1a7d4d836040518263ffffffff1660e01b815260040161404a9190614e83565b600060405180830381600087803b15801561406457600080fd5b505af1158015614078573d6000803e3d6000fd5b5050505060008173ffffffffffffffffffffffffffffffffffffffff16836040516140a290614caf565b60006040518083038185875af1925050503d80600081146140df576040519150601f19603f3d011682016040523d82523d6000602084013e6140e4565b606091505b5050905080614128576040517f08c379a000000000000000000000000000000000000000000000000000000000815260040161411f90614dc3565b60405180910390fd5b506141bd565b8273ffffffffffffffffffffffffffffffffffffffff1663a9059cbb82846040518363ffffffff1660e01b8152600401614169929190614d3f565b602060405180830381600087803b15801561418357600080fd5b505af1158015614197573d6000803e3d6000fd5b505050506040513d601f19601f820116820180604052508101906141bb9190614850565b505b5b6001600081905550505050565b6000600160009054906101000a900473ffffffffffffffffffffffffffffffffffffffff1673ffffffffffffffffffffffffffffffffffffffff166370a08231614213613859565b73ffffffffffffffffffffffffffffffffffffffff16639d2cc4366040518163ffffffff1660e01b815260040160206040518083038186803b15801561425857600080fd5b505afa15801561426c573d6000803e3d6000fd5b505050506040513d601f19601f820116820180604052508101906142909190614827565b6040518263ffffffff1660e01b81526004016142ac9190614cc4565b60206040518083038186803b1580156142c457600080fd5b505afa1580156142d8573d6000803e3d6000fd5b505050506040513d601f19601f820116820180604052508101906142fc91906148cb565b905060008111156144e35760006127106008546004548461431d9190614f93565b6143279190614f62565b6143319190614f62565b90508083600960008773ffffffffffffffffffffffffffffffffffffffff1673ffffffffffffffffffffffffffffffffffffffff1681526020019081526020016000205461437f9190614f0c565b10156144e15761438f83856144e8565b614397613859565b73ffffffffffffffffffffffffffffffffffffffff16639d2cc4366040518163ffffffff1660e01b815260040160206040518083038186803b1580156143dc57600080fd5b505afa1580156143f0573d6000803e3d6000fd5b505050506040513d601f19601f820116820180604052508101906144149190614827565b73ffffffffffffffffffffffffffffffffffffffff16637d458baa84866040518363ffffffff1660e01b815260040161444e929190614e9e565b600060405180830381600087803b15801561446857600080fd5b505af115801561447c573d6000803e3d6000fd5b505050508373ffffffffffffffffffffffffffffffffffffffff1663fff6cae96040518163ffffffff1660e01b8152600401600060405180830381600087803b1580156144c857600080fd5b505af11580156144dc573d6000803e3d6000fd5b505050505b505b505050565b600060075414156144fb57426007819055505b62278d0060075461450c9190614f0c565b42116145a55781600960008373ffffffffffffffffffffffffffffffffffffffff1673ffffffffffffffffffffffffffffffffffffffff1681526020019081526020016000205461455d9190614f0c565b600960008373ffffffffffffffffffffffffffffffffffffffff1673ffffffffffffffffffffffffffffffffffffffff1681526020019081526020016000208190555061477c565b42600781905550600960008273ffffffffffffffffffffffffffffffffffffffff1673ffffffffffffffffffffffffffffffffffffffff16815260200190815260200160002054600a60008373ffffffffffffffffffffffffffffffffffffffff1673ffffffffffffffffffffffffffffffffffffffff1681526020019081526020016000208190555081600960008373ffffffffffffffffffffffffffffffffffffffff1673ffffffffffffffffffffffffffffffffffffffff1681526020019081526020016000208190555061467b613859565b73ffffffffffffffffffffffffffffffffffffffff1663b99b0a0c6040518163ffffffff1660e01b815260040160206040518083038186803b1580156146c057600080fd5b505afa1580156146d4573d6000803e3d6000fd5b505050506040513d601f19601f820116820180604052508101906146f89190614827565b73ffffffffffffffffffffffffffffffffffffffff16638bc51e366040518163ffffffff1660e01b815260040160206040518083038186803b15801561473d57600080fd5b505afa158015614751573d6000803e3d6000fd5b505050506040513d601f19601f8201168201806040525081019061477591906148cb565b6008819055505b5050565b60008135905061478f816151c7565b92915050565b6000815190506147a4816151c7565b92915050565b6000815190506147b9816151de565b92915050565b6000815190506147ce816151f5565b92915050565b6000813590506147e38161520c565b92915050565b6000815190506147f88161520c565b92915050565b60006020828403121561481057600080fd5b600061481e84828501614780565b91505092915050565b60006020828403121561483957600080fd5b600061484784828501614795565b91505092915050565b60006020828403121561486257600080fd5b6000614870848285016147aa565b91505092915050565b60006020828403121561488b57600080fd5b6000614899848285016147bf565b91505092915050565b6000602082840312156148b457600080fd5b60006148c2848285016147d4565b91505092915050565b6000602082840312156148dd57600080fd5b60006148eb848285016147e9565b91505092915050565b6000806040838503121561490757600080fd5b6000614915858286016147d4565b925050602061492685828601614780565b9150509250929050565b60008060006060848603121561494557600080fd5b6000614953868287016147d4565b935050602061496486828701614780565b925050604061497586828701614780565b9150509250925092565b600080600080600060a0868803121561499757600080fd5b60006149a5888289016147d4565b95505060206149b688828901614780565b94505060406149c788828901614780565b93505060606149d888828901614780565b92505060806149e9888289016147d4565b9150509295509295909350565b60008060008060808587031215614a0c57600080fd5b6000614a1a878288016147d4565b9450506020614a2b87828801614780565b9350506040614a3c87828801614780565b9250506060614a4d878288016147d4565b91505092959194509250565b60008060408385031215614a6c57600080fd5b6000614a7a858286016147e9565b9250506020614a8b858286016147e9565b9150509250929050565b600080600060608486031215614aaa57600080fd5b6000614ab8868287016147d4565b9350506020614ac9868287016147d4565b9250506040614ada86828701614780565b9150509250925092565b60008060008060808587031215614afa57600080fd5b6000614b08878288016147d4565b9450506020614b19878288016147d4565b9350506040614b2a87828801614780565b9250506060614b3b87828801614780565b91505092959194509250565b614b5081614fed565b82525050565b614b5f81614fff565b82525050565b6000614b72600583614efb565b9150614b7d826150a5565b602082019050919050565b6000614b95600483614efb565b9150614ba0826150ce565b602082019050919050565b6000614bb8600583614efb565b9150614bc3826150f7565b602082019050919050565b6000614bdb600683614efb565b9150614be682615120565b602082019050919050565b6000614bfe600583614efb565b9150614c0982615149565b602082019050919050565b6000614c21600083614ef0565b9150614c2c82615172565b600082019050919050565b6000614c44600083614efb565b9150614c4f82615172565b600082019050919050565b6000614c67600483614efb565b9150614c7282615175565b602082019050919050565b6000614c8a601f83614efb565b9150614c958261519e565b602082019050919050565b614ca98161503d565b82525050565b6000614cba82614c14565b9150819050919050565b6000602082019050614cd96000830184614b47565b92915050565b6000604082019050614cf46000830185614b47565b614d016020830184614b47565b9392505050565b6000606082019050614d1d6000830186614b47565b614d2a6020830185614b47565b614d376040830184614ca0565b949350505050565b6000604082019050614d546000830185614b47565b614d616020830184614ca0565b9392505050565b6000602082019050614d7d6000830184614b56565b92915050565b60006020820190508181036000830152614d9c81614b65565b9050919050565b60006020820190508181036000830152614dbc81614b88565b9050919050565b60006020820190508181036000830152614ddc81614bab565b9050919050565b60006020820190508181036000830152614dfc81614bce565b9050919050565b60006020820190508181036000830152614e1c81614bf1565b9050919050565b60006020820190508181036000830152614e3c81614c37565b9050919050565b60006020820190508181036000830152614e5c81614c5a565b9050919050565b60006020820190508181036000830152614e7c81614c7d565b9050919050565b6000602082019050614e986000830184614ca0565b92915050565b6000604082019050614eb36000830185614ca0565b614ec06020830184614b47565b9392505050565b6000604082019050614edc6000830185614ca0565b614ee96020830184614ca0565b9392505050565b600081905092915050565b600082825260208201905092915050565b6000614f178261503d565b9150614f228361503d565b9250827fffffffffffffffffffffffffffffffffffffffffffffffffffffffffffffffff03821115614f5757614f56615047565b5b828201905092915050565b6000614f6d8261503d565b9150614f788361503d565b925082614f8857614f87615076565b5b828204905092915050565b6000614f9e8261503d565b9150614fa98361503d565b9250817fffffffffffffffffffffffffffffffffffffffffffffffffffffffffffffffff0483118215151615614fe257614fe1615047565b5b828202905092915050565b6000614ff88261501d565b9050919050565b60008115159050919050565b600061501682614fed565b9050919050565b600073ffffffffffffffffffffffffffffffffffffffff82169050919050565b6000819050919050565b7f4e487b7100000000000000000000000000000000000000000000000000000000600052601160045260246000fd5b7f4e487b7100000000000000000000000000000000000000000000000000000000600052601260045260246000fd5b7f21504f4f4c000000000000000000000000000000000000000000000000000000600082015250565b7f5a45524f00000000000000000000000000000000000000000000000000000000600082015250565b7f2173656e64000000000000000000000000000000000000000000000000000000600082015250565b7f2156414c49440000000000000000000000000000000000000000000000000000600082015250565b7f2152415445000000000000000000000000000000000000000000000000000000600082015250565b50565b7f2147415300000000000000000000000000000000000000000000000000000000600082015250565b7f5265656e7472616e637947756172643a207265656e7472616e742063616c6c00600082015250565b6151d081614fed565b81146151db57600080fd5b50565b6151e781614fff565b81146151f257600080fd5b50565b6151fe8161500b565b811461520957600080fd5b50565b6152158161503d565b811461522057600080fd5b5056fea26469706673582212208f4aabbc58ae8c9585a9729b424c72c3ec615cd23caff49d482a4f576df360a964736f6c63430008030033",
  "linkReferences": {},
  "deployedLinkReferences": {}
}