{
  "_format": "hh-sol-artifact-1",
  "contractName": "Router",
  "sourceName": "contracts/Router.sol",
  "abi": [
    {
      "inputs": [
        {
          "internalType": "address",
          "name": "_base",
          "type": "address"
        },
        {
          "internalType": "address",
          "name": "_wbnb",
          "type": "address"
        }
      ],
      "stateMutability": "nonpayable",
      "type": "constructor"
    },
    {
      "inputs": [],
      "name": "BASE",
      "outputs": [
        {
          "internalType": "address",
          "name": "",
          "type": "address"
        }
      ],
      "stateMutability": "view",
      "type": "function"
    },
    {
      "inputs": [],
      "name": "DEPLOYER",
      "outputs": [
        {
          "internalType": "address",
          "name": "",
          "type": "address"
        }
      ],
      "stateMutability": "view",
      "type": "function"
    },
    {
      "inputs": [],
      "name": "WBNB",
      "outputs": [
        {
          "internalType": "address",
          "name": "",
          "type": "address"
        }
      ],
      "stateMutability": "view",
      "type": "function"
    },
    {
      "inputs": [
        {
          "internalType": "uint256",
          "name": "inputBase",
          "type": "uint256"
        },
        {
          "internalType": "uint256",
          "name": "inputToken",
          "type": "uint256"
        },
        {
          "internalType": "address",
          "name": "token",
          "type": "address"
        }
      ],
      "name": "addLiquidity",
      "outputs": [
        {
          "internalType": "uint256",
          "name": "units",
          "type": "uint256"
        }
      ],
      "stateMutability": "payable",
      "type": "function"
    },
    {
      "inputs": [
        {
          "internalType": "uint256",
          "name": "inputBase",
          "type": "uint256"
        },
        {
          "internalType": "uint256",
          "name": "inputToken",
          "type": "uint256"
        },
        {
          "internalType": "address",
          "name": "token",
          "type": "address"
        },
        {
          "internalType": "address",
          "name": "member",
          "type": "address"
        }
      ],
      "name": "addLiquidityForMember",
      "outputs": [
        {
          "internalType": "uint256",
          "name": "units",
          "type": "uint256"
        }
      ],
      "stateMutability": "payable",
      "type": "function"
    },
    {
      "inputs": [
        {
          "internalType": "uint256",
          "name": "inputToken",
          "type": "uint256"
        },
        {
          "internalType": "bool",
          "name": "fromBase",
          "type": "bool"
        },
        {
          "internalType": "address",
          "name": "token",
          "type": "address"
        }
      ],
      "name": "addLiquiditySingle",
      "outputs": [
        {
          "internalType": "uint256",
          "name": "units",
          "type": "uint256"
        }
      ],
      "stateMutability": "payable",
      "type": "function"
    },
    {
      "inputs": [
        {
          "internalType": "uint256",
          "name": "inputToken",
          "type": "uint256"
        },
        {
          "internalType": "bool",
          "name": "fromBase",
          "type": "bool"
        },
        {
          "internalType": "address",
          "name": "token",
          "type": "address"
        },
        {
          "internalType": "address",
          "name": "member",
          "type": "address"
        }
      ],
      "name": "addLiquiditySingleForMember",
      "outputs": [
        {
          "internalType": "uint256",
          "name": "units",
          "type": "uint256"
        }
      ],
      "stateMutability": "payable",
      "type": "function"
    },
    {
      "inputs": [
        {
          "internalType": "uint256",
          "name": "amount",
          "type": "uint256"
        },
        {
          "internalType": "address",
          "name": "token",
          "type": "address"
        },
        {
          "internalType": "address",
          "name": "member",
          "type": "address"
        }
      ],
      "name": "buyTo",
      "outputs": [
        {
          "internalType": "uint256",
          "name": "",
          "type": "uint256"
        }
      ],
      "stateMutability": "nonpayable",
      "type": "function"
    },
    {
      "inputs": [
        {
          "internalType": "uint256",
          "name": "_size",
          "type": "uint256"
        }
      ],
      "name": "changeArrayFeeSize",
      "outputs": [],
      "stateMutability": "nonpayable",
      "type": "function"
    },
    {
      "inputs": [
        {
          "internalType": "uint256",
          "name": "_eraLength",
          "type": "uint256"
        }
      ],
      "name": "changeEraLength",
      "outputs": [],
      "stateMutability": "nonpayable",
      "type": "function"
    },
    {
      "inputs": [
        {
          "internalType": "uint256",
          "name": "_maxtrades",
          "type": "uint256"
        }
      ],
      "name": "changeMaxTrades",
      "outputs": [],
      "stateMutability": "nonpayable",
      "type": "function"
    },
    {
      "inputs": [
        {
          "internalType": "address",
          "name": "pool",
          "type": "address"
        }
      ],
      "name": "currentPoolRevenue",
      "outputs": [
        {
          "internalType": "uint256",
          "name": "",
          "type": "uint256"
        }
      ],
      "stateMutability": "view",
      "type": "function"
    },
    {
      "inputs": [
        {
          "internalType": "bytes",
          "name": "part1",
          "type": "bytes"
        },
        {
          "internalType": "bytes",
          "name": "part2",
          "type": "bytes"
        }
      ],
      "name": "isEqual",
      "outputs": [
        {
          "internalType": "bool",
          "name": "equal",
          "type": "bool"
        }
      ],
      "stateMutability": "pure",
      "type": "function"
    },
    {
      "inputs": [
        {
          "internalType": "address",
          "name": "",
          "type": "address"
        }
      ],
      "name": "mapAddress_30DayDividends",
      "outputs": [
        {
          "internalType": "uint256",
          "name": "",
          "type": "uint256"
        }
      ],
      "stateMutability": "view",
      "type": "function"
    },
    {
      "inputs": [
        {
          "internalType": "address",
          "name": "",
          "type": "address"
        }
      ],
      "name": "mapAddress_Past30DayPoolDividends",
      "outputs": [
        {
          "internalType": "uint256",
          "name": "",
          "type": "uint256"
        }
      ],
      "stateMutability": "view",
      "type": "function"
    },
    {
      "inputs": [],
      "name": "nextEraTime",
      "outputs": [
        {
          "internalType": "uint256",
          "name": "",
          "type": "uint256"
        }
      ],
      "stateMutability": "view",
      "type": "function"
    },
    {
      "inputs": [],
      "name": "normalAverageFee",
      "outputs": [
        {
          "internalType": "uint256",
          "name": "",
          "type": "uint256"
        }
      ],
      "stateMutability": "view",
      "type": "function"
    },
    {
      "inputs": [
        {
          "internalType": "address",
          "name": "pool",
          "type": "address"
        }
      ],
      "name": "pastPoolRevenue",
      "outputs": [
        {
          "internalType": "uint256",
          "name": "",
          "type": "uint256"
        }
      ],
      "stateMutability": "view",
      "type": "function"
    },
    {
      "inputs": [
        {
          "internalType": "uint256",
          "name": "basisPoints",
          "type": "uint256"
        },
        {
          "internalType": "address",
          "name": "token",
          "type": "address"
        }
      ],
      "name": "removeLiquidity",
      "outputs": [
        {
          "internalType": "uint256",
          "name": "outputBase",
          "type": "uint256"
        },
        {
          "internalType": "uint256",
          "name": "outputToken",
          "type": "uint256"
        }
      ],
      "stateMutability": "nonpayable",
      "type": "function"
    },
    {
      "inputs": [
        {
          "internalType": "uint256",
          "name": "units",
          "type": "uint256"
        },
        {
          "internalType": "address",
          "name": "token",
          "type": "address"
        }
      ],
      "name": "removeLiquidityExact",
      "outputs": [
        {
          "internalType": "uint256",
          "name": "outputBase",
          "type": "uint256"
        },
        {
          "internalType": "uint256",
          "name": "outputToken",
          "type": "uint256"
        }
      ],
      "stateMutability": "nonpayable",
      "type": "function"
    },
    {
      "inputs": [
        {
          "internalType": "uint256",
          "name": "units",
          "type": "uint256"
        },
        {
          "internalType": "bool",
          "name": "toBase",
          "type": "bool"
        },
        {
          "internalType": "address",
          "name": "token",
          "type": "address"
        }
      ],
      "name": "removeLiquiditySingle",
      "outputs": [
        {
          "internalType": "uint256",
          "name": "fee",
          "type": "uint256"
        }
      ],
      "stateMutability": "nonpayable",
      "type": "function"
    },
    {
      "inputs": [],
      "name": "secondsPerEra",
      "outputs": [
        {
          "internalType": "uint256",
          "name": "",
          "type": "uint256"
        }
      ],
      "stateMutability": "view",
      "type": "function"
    },
    {
      "inputs": [
        {
          "internalType": "uint256",
          "name": "amount",
          "type": "uint256"
        },
        {
          "internalType": "address",
          "name": "token",
          "type": "address"
        },
        {
          "internalType": "address",
          "name": "member",
          "type": "address"
        }
      ],
      "name": "sellTo",
      "outputs": [
        {
          "internalType": "uint256",
          "name": "",
          "type": "uint256"
        }
      ],
      "stateMutability": "payable",
      "type": "function"
    },
    {
      "inputs": [
        {
          "internalType": "string",
          "name": "s",
          "type": "string"
        }
      ],
      "name": "stringToBytes",
      "outputs": [
        {
          "internalType": "bytes",
          "name": "",
          "type": "bytes"
        }
      ],
      "stateMutability": "pure",
      "type": "function"
    },
    {
      "inputs": [
        {
          "internalType": "uint256",
          "name": "inputAmount",
          "type": "uint256"
        },
        {
          "internalType": "address",
          "name": "fromToken",
          "type": "address"
        },
        {
          "internalType": "address",
          "name": "toToken",
          "type": "address"
        }
      ],
      "name": "swap",
      "outputs": [],
      "stateMutability": "payable",
      "type": "function"
    },
    {
      "inputs": [
        {
          "internalType": "uint256",
          "name": "inputAmount",
          "type": "uint256"
        },
        {
          "internalType": "address",
          "name": "fromToken",
          "type": "address"
        },
        {
          "internalType": "address",
          "name": "toSynth",
          "type": "address"
        }
      ],
      "name": "swapAssetToSynth",
      "outputs": [
        {
          "internalType": "uint256",
          "name": "outputSynth",
          "type": "uint256"
        },
        {
          "internalType": "uint256",
          "name": "fee",
          "type": "uint256"
        }
      ],
      "stateMutability": "payable",
      "type": "function"
    },
    {
      "inputs": [
        {
          "internalType": "uint256",
          "name": "inputAmount",
          "type": "uint256"
        },
        {
          "internalType": "address",
          "name": "fromSynth",
          "type": "address"
        },
        {
          "internalType": "address",
          "name": "toToken",
          "type": "address"
        }
      ],
      "name": "swapSynthToAsset",
      "outputs": [
        {
          "internalType": "uint256",
          "name": "outputAmount",
          "type": "uint256"
        },
        {
          "internalType": "uint256",
          "name": "fee",
          "type": "uint256"
        }
      ],
      "stateMutability": "nonpayable",
      "type": "function"
    },
    {
      "inputs": [
        {
          "internalType": "uint256",
          "name": "inputAmount",
          "type": "uint256"
        },
        {
          "internalType": "address",
          "name": "fromToken",
          "type": "address"
        },
        {
          "internalType": "address",
          "name": "toToken",
          "type": "address"
        },
        {
          "internalType": "address",
          "name": "member",
          "type": "address"
        }
      ],
      "name": "swapTo",
      "outputs": [],
      "stateMutability": "payable",
      "type": "function"
    },
    {
      "inputs": [
        {
          "internalType": "uint256",
          "name": "unitsInput",
          "type": "uint256"
        },
        {
          "internalType": "address",
          "name": "fromPool",
          "type": "address"
        },
        {
          "internalType": "address",
          "name": "toPool",
          "type": "address"
        }
      ],
      "name": "zapLiquidity",
      "outputs": [
        {
          "internalType": "uint256",
          "name": "unitsOutput",
          "type": "uint256"
        }
      ],
      "stateMutability": "nonpayable",
      "type": "function"
    },
    {
      "stateMutability": "payable",
      "type": "receive"
    }
  ],
  "bytecode": "0x60806040523480156200001157600080fd5b506040516200587c3803806200587c833981810160405281019062000037919062000138565b816000806101000a81548173ffffffffffffffffffffffffffffffffffffffff021916908373ffffffffffffffffffffffffffffffffffffffff16021790555080600160006101000a81548173ffffffffffffffffffffffffffffffffffffffff021916908373ffffffffffffffffffffffffffffffffffffffff1602179055506014600881905550601e60068190555060646005819055506000600a8190555033600260006101000a81548173ffffffffffffffffffffffffffffffffffffffff021916908373ffffffffffffffffffffffffffffffffffffffff1602179055505050620001c7565b6000815190506200013281620001ad565b92915050565b600080604083850312156200014c57600080fd5b60006200015c8582860162000121565b92505060206200016f8582860162000121565b9150509250929050565b600062000186826200018d565b9050919050565b600073ffffffffffffffffffffffffffffffffffffffff82169050919050565b620001b88162000179565b8114620001c457600080fd5b50565b6156a580620001d76000396000f3fe6080604052600436106101c65760003560e01c80638dd95002116100f7578063b45e1dbc11610095578063e106fb4b11610064578063e106fb4b146106b7578063eb116111146106f4578063ec342ad01461071f578063ecf3ef921461074a576101cd565b8063b45e1dbc146105d4578063c1b8411a14610611578063c8c1fb751461063c578063cbb3a14a1461067a576101cd565b8063a1cd6aa5116100d1578063a1cd6aa514610528578063ab1485ec14610566578063ab87d7be14610582578063b02d247a146105ab576101cd565b80638dd950021461049057806393cac685146104bb5780639921c266146104eb576101cd565b8063451918db1161016457806369ab0a8e1161013e57806369ab0a8e146103d55780636b92a3b6146104055780636d54435d1461043057806387b21efc14610460576101cd565b8063451918db14610332578063519fc9c91461036f57806352e5c5c714610398576101cd565b80632b7f0923116101a05780632b7f0923146102785780633173ec3c14610294578063331813ee146102c557806334359808146102f5576101cd565b806305fe138b146101d2578063090bbb01146102105780632ac274821461023b576101cd565b366101cd57005b600080fd5b3480156101de57600080fd5b506101f960048036038101906101f49190614d8c565b610787565b604051610207929190615225565b60405180910390f35b34801561021c57600080fd5b50610225610a62565b60405161023291906151e1565b60405180910390f35b34801561024757600080fd5b50610262600480360381019061025d9190614bc0565b610a68565b60405161026f91906151e1565b60405180910390f35b610292600480360381019061028d9190614dc8565b610ab1565b005b6102ae60048036038101906102a99190614dc8565b610ac2565b6040516102bc929190615225565b60405180910390f35b6102df60048036038101906102da9190614ec9565b610fa4565b6040516102ec91906151e1565b60405180910390f35b34801561030157600080fd5b5061031c60048036038101906103179190614c64565b61128b565b60405161032991906151a4565b60405180910390f35b34801561033e57600080fd5b5061035960048036038101906103549190614bc0565b611343565b60405161036691906151e1565b60405180910390f35b34801561037b57600080fd5b5061039660048036038101906103919190614d3a565b61135b565b005b3480156103a457600080fd5b506103bf60048036038101906103ba9190614e7a565b611479565b6040516103cc91906151e1565b60405180910390f35b6103ef60048036038101906103ea9190614dc8565b611c50565b6040516103fc91906151e1565b60405180910390f35b34801561041157600080fd5b5061041a611e35565b60405161042791906151e1565b60405180910390f35b61044a60048036038101906104459190614e7a565b611e3b565b60405161045791906151e1565b60405180910390f35b61047a60048036038101906104759190614f68565b611e52565b60405161048791906151e1565b60405180910390f35b34801561049c57600080fd5b506104a5611e69565b6040516104b29190615100565b60405180910390f35b6104d560048036038101906104d09190614fb7565b611e8f565b6040516104e291906151e1565b60405180910390f35b3480156104f757600080fd5b50610512600480360381019061050d9190614bc0565b61206f565b60405161051f91906151e1565b60405180910390f35b34801561053457600080fd5b5061054f600480360381019061054a9190614dc8565b6120b8565b60405161055d929190615225565b60405180910390f35b610580600480360381019061057b9190614e17565b61280c565b005b34801561058e57600080fd5b506105a960048036038101906105a49190614d3a565b612b53565b005b3480156105b757600080fd5b506105d260048036038101906105cd9190614d3a565b612c71565b005b3480156105e057600080fd5b506105fb60048036038101906105f69190614dc8565b612d8f565b60405161060891906151e1565b60405180910390f35b34801561061d57600080fd5b5061062661351d565b6040516106339190615100565b60405180910390f35b34801561064857600080fd5b50610663600480360381019061065e9190614d8c565b613543565b604051610671929190615225565b60405180910390f35b34801561068657600080fd5b506106a1600480360381019061069c9190614bc0565b613921565b6040516106ae91906151e1565b60405180910390f35b3480156106c357600080fd5b506106de60048036038101906106d99190614cf9565b613939565b6040516106eb91906151bf565b60405180910390f35b34801561070057600080fd5b50610709613943565b60405161071691906151e1565b60405180910390f35b34801561072b57600080fd5b50610734613949565b6040516107419190615100565b60405180910390f35b34801561075657600080fd5b50610771600480360381019061076c9190614dc8565b61396d565b60405161077e91906151e1565b60405180910390f35b60008060008411801561079c57506127108411155b6107a557600080fd5b60006107af613bbf565b73ffffffffffffffffffffffffffffffffffffffff16637b0e5c456040518163ffffffff1660e01b815260040160206040518083038186803b1580156107f457600080fd5b505afa158015610808573d6000803e3d6000fd5b505050506040513d601f19601f8201168201806040525081019061082c9190614be9565b73ffffffffffffffffffffffffffffffffffffffff1663714270ab86610850613bbf565b73ffffffffffffffffffffffffffffffffffffffff1663b99b0a0c6040518163ffffffff1660e01b815260040160206040518083038186803b15801561089557600080fd5b505afa1580156108a9573d6000803e3d6000fd5b505050506040513d601f19601f820116820180604052508101906108cd9190614be9565b73ffffffffffffffffffffffffffffffffffffffff1663bbe4f6db886040518263ffffffff1660e01b81526004016109059190615100565b60206040518083038186803b15801561091d57600080fd5b505afa158015610931573d6000803e3d6000fd5b505050506040513d601f19601f820116820180604052508101906109559190614be9565b73ffffffffffffffffffffffffffffffffffffffff166370a08231336040518263ffffffff1660e01b815260040161098d9190615100565b60206040518083038186803b1580156109a557600080fd5b505afa1580156109b9573d6000803e3d6000fd5b505050506040513d601f19601f820116820180604052508101906109dd9190614d63565b6040518363ffffffff1660e01b81526004016109fa929190615225565b60206040518083038186803b158015610a1257600080fd5b505afa158015610a26573d6000803e3d6000fd5b505050506040513d601f19601f82011682018060405250810190610a4a9190614d63565b9050610a568185613543565b92509250509250929050565b60045481565b6000600b60008373ffffffffffffffffffffffffffffffffffffffff1673ffffffffffffffffffffffffffffffffffffffff168152602001908152602001600020549050919050565b610abd8383833361280c565b505050565b6000808273ffffffffffffffffffffffffffffffffffffffff168473ffffffffffffffffffffffffffffffffffffffff161415610afe57600080fd5b60008373ffffffffffffffffffffffffffffffffffffffff1663484920316040518163ffffffff1660e01b815260040160206040518083038186803b158015610b4657600080fd5b505afa158015610b5a573d6000803e3d6000fd5b505050506040513d601f19601f82011682018060405250810190610b7e9190614be9565b90506000610b8a613bbf565b73ffffffffffffffffffffffffffffffffffffffff1663b99b0a0c6040518163ffffffff1660e01b815260040160206040518083038186803b158015610bcf57600080fd5b505afa158015610be3573d6000803e3d6000fd5b505050506040513d601f19601f82011682018060405250810190610c079190614be9565b73ffffffffffffffffffffffffffffffffffffffff1663bbe4f6db836040518263ffffffff1660e01b8152600401610c3f9190615100565b60206040518083038186803b158015610c5757600080fd5b505afa158015610c6b573d6000803e3d6000fd5b505050506040513d601f19601f82011682018060405250810190610c8f9190614be9565b905060008054906101000a900473ffffffffffffffffffffffffffffffffffffffff1673ffffffffffffffffffffffffffffffffffffffff168673ffffffffffffffffffffffffffffffffffffffff1614610e4b57610cef878730611c50565b5060008054906101000a900473ffffffffffffffffffffffffffffffffffffffff1673ffffffffffffffffffffffffffffffffffffffff1663a9059cbb8260008054906101000a900473ffffffffffffffffffffffffffffffffffffffff1673ffffffffffffffffffffffffffffffffffffffff166370a08231306040518263ffffffff1660e01b8152600401610d869190615100565b60206040518083038186803b158015610d9e57600080fd5b505afa158015610db2573d6000803e3d6000fd5b505050506040513d601f19601f82011682018060405250810190610dd69190614d63565b6040518363ffffffff1660e01b8152600401610df392919061517b565b602060405180830381600087803b158015610e0d57600080fd5b505af1158015610e21573d6000803e3d6000fd5b505050506040513d601f19601f82011682018060405250810190610e459190614c12565b50610efc565b60008054906101000a900473ffffffffffffffffffffffffffffffffffffffff1673ffffffffffffffffffffffffffffffffffffffff166323b872dd33838a6040518463ffffffff1660e01b8152600401610ea893929190615144565b602060405180830381600087803b158015610ec257600080fd5b505af1158015610ed6573d6000803e3d6000fd5b505050506040513d601f19601f82011682018060405250810190610efa9190614c12565b505b8073ffffffffffffffffffffffffffffffffffffffff16635c53738686336040518363ffffffff1660e01b8152600401610f3792919061511b565b6040805180830381600087803b158015610f5057600080fd5b505af1158015610f64573d6000803e3d6000fd5b505050506040513d601f19601f82011682018060405250810190610f889190614f2c565b8094508195505050610f9a8184613c65565b5050935093915050565b6000808511610fb257600080fd5b6000610fbc613bbf565b73ffffffffffffffffffffffffffffffffffffffff1663b99b0a0c6040518163ffffffff1660e01b815260040160206040518083038186803b15801561100157600080fd5b505afa158015611015573d6000803e3d6000fd5b505050506040513d601f19601f820116820180604052508101906110399190614be9565b73ffffffffffffffffffffffffffffffffffffffff1663bbe4f6db856040518263ffffffff1660e01b81526004016110719190615100565b60206040518083038186803b15801561108957600080fd5b505afa15801561109d573d6000803e3d6000fd5b505050506040513d601f19601f820116820180604052508101906110c19190614be9565b90506000849050600073ffffffffffffffffffffffffffffffffffffffff168573ffffffffffffffffffffffffffffffffffffffff16141561112357600160009054906101000a900473ffffffffffffffffffffffffffffffffffffffff1690505b85156111e75761115460008054906101000a900473ffffffffffffffffffffffffffffffffffffffff168884613d96565b508173ffffffffffffffffffffffffffffffffffffffff166386d5f618856040518263ffffffff1660e01b815260040161118e9190615100565b602060405180830381600087803b1580156111a857600080fd5b505af11580156111bc573d6000803e3d6000fd5b505050506040513d601f19601f820116820180604052508101906111e09190614d63565b9250611281565b6111f2858884613d96565b508173ffffffffffffffffffffffffffffffffffffffff166386d5f618856040518263ffffffff1660e01b815260040161122c9190615100565b602060405180830381600087803b15801561124657600080fd5b505af115801561125a573d6000803e3d6000fd5b505050506040513d601f19601f8201168201806040525081019061127e9190614d63565b92505b5050949350505050565b600060028260405161129d91906150d4565b602060405180830381855afa1580156112ba573d6000803e3d6000fd5b5050506040513d601f19601f820116820180604052508101906112dd9190614c3b565b6002846040516112ed91906150d4565b602060405180830381855afa15801561130a573d6000803e3d6000fd5b5050506040513d601f19601f8201168201806040525081019061132d9190614c3b565b141561133c576001905061133d565b5b92915050565b600c6020528060005260406000206000915090505481565b611363613bbf565b73ffffffffffffffffffffffffffffffffffffffff166398fabd3a6040518163ffffffff1660e01b815260040160206040518083038186803b1580156113a857600080fd5b505afa1580156113bc573d6000803e3d6000fd5b505050506040513d601f19601f820116820180604052508101906113e09190614be9565b73ffffffffffffffffffffffffffffffffffffffff163373ffffffffffffffffffffffffffffffffffffffff1614806114665750600260009054906101000a900473ffffffffffffffffffffffffffffffffffffffff1673ffffffffffffffffffffffffffffffffffffffff163373ffffffffffffffffffffffffffffffffffffffff16145b61146f57600080fd5b8060058190555050565b600080611484613bbf565b73ffffffffffffffffffffffffffffffffffffffff1663b99b0a0c6040518163ffffffff1660e01b815260040160206040518083038186803b1580156114c957600080fd5b505afa1580156114dd573d6000803e3d6000fd5b505050506040513d601f19601f820116820180604052508101906115019190614be9565b73ffffffffffffffffffffffffffffffffffffffff1663bbe4f6db846040518263ffffffff1660e01b81526004016115399190615100565b60206040518083038186803b15801561155157600080fd5b505afa158015611565573d6000803e3d6000fd5b505050506040513d601f19601f820116820180604052508101906115899190614be9565b905060011515611597613bbf565b73ffffffffffffffffffffffffffffffffffffffff1663b99b0a0c6040518163ffffffff1660e01b815260040160206040518083038186803b1580156115dc57600080fd5b505afa1580156115f0573d6000803e3d6000fd5b505050506040513d601f19601f820116820180604052508101906116149190614be9565b73ffffffffffffffffffffffffffffffffffffffff16635b16ebb7836040518263ffffffff1660e01b815260040161164c9190615100565b602060405180830381600087803b15801561166657600080fd5b505af115801561167a573d6000803e3d6000fd5b505050506040513d601f19601f8201168201806040525081019061169e9190614c12565b1515146116aa57600080fd5b60003390508173ffffffffffffffffffffffffffffffffffffffff166323b872dd8284896040518463ffffffff1660e01b81526004016116ec93929190615144565b602060405180830381600087803b15801561170657600080fd5b505af115801561171a573d6000803e3d6000fd5b505050506040513d601f19601f8201168201806040525081019061173e9190614c12565b5060008273ffffffffffffffffffffffffffffffffffffffff1663a7f437796040518163ffffffff1660e01b81526004016040805180830381600087803b15801561178857600080fd5b505af115801561179c573d6000803e3d6000fd5b505050506040513d601f19601f820116820180604052508101906117c09190614f2c565b9150506000859050600073ffffffffffffffffffffffffffffffffffffffff168673ffffffffffffffffffffffffffffffffffffffff16141561182357600160009054906101000a900473ffffffffffffffffffffffffffffffffffffffff1690505b8615611a42578073ffffffffffffffffffffffffffffffffffffffff1663a9059cbb85846040518363ffffffff1660e01b815260040161186492919061517b565b602060405180830381600087803b15801561187e57600080fd5b505af1158015611892573d6000803e3d6000fd5b505050506040513d601f19601f820116820180604052508101906118b69190614c12565b5060008473ffffffffffffffffffffffffffffffffffffffff166303438dd060008054906101000a900473ffffffffffffffffffffffffffffffffffffffff166040518263ffffffff1660e01b81526004016119129190615100565b6040805180830381600087803b15801561192b57600080fd5b505af115801561193f573d6000803e3d6000fd5b505050506040513d601f19601f820116820180604052508101906119639190614f2c565b915050809550611a3c60008054906101000a900473ffffffffffffffffffffffffffffffffffffffff1660008054906101000a900473ffffffffffffffffffffffffffffffffffffffff1673ffffffffffffffffffffffffffffffffffffffff166370a08231306040518263ffffffff1660e01b81526004016119e69190615100565b60206040518083038186803b1580156119fe57600080fd5b505afa158015611a12573d6000803e3d6000fd5b505050506040513d601f19601f82011682018060405250810190611a369190614d63565b866140e1565b50611c45565b60008054906101000a900473ffffffffffffffffffffffffffffffffffffffff1673ffffffffffffffffffffffffffffffffffffffff1663a9059cbb8560008054906101000a900473ffffffffffffffffffffffffffffffffffffffff1673ffffffffffffffffffffffffffffffffffffffff166370a08231306040518263ffffffff1660e01b8152600401611ad89190615100565b60206040518083038186803b158015611af057600080fd5b505afa158015611b04573d6000803e3d6000fd5b505050506040513d601f19601f82011682018060405250810190611b289190614d63565b6040518363ffffffff1660e01b8152600401611b4592919061517b565b602060405180830381600087803b158015611b5f57600080fd5b505af1158015611b73573d6000803e3d6000fd5b505050506040513d601f19601f82011682018060405250810190611b979190614c12565b506000808573ffffffffffffffffffffffffffffffffffffffff166303438dd0846040518263ffffffff1660e01b8152600401611bd49190615100565b6040805180830381600087803b158015611bed57600080fd5b505af1158015611c01573d6000803e3d6000fd5b505050506040513d601f19601f82011682018060405250810190611c259190614f2c565b91509150809650611c42888584611c3c91906152fc565b876140e1565b50505b505050509392505050565b600080611c5b613bbf565b73ffffffffffffffffffffffffffffffffffffffff1663b99b0a0c6040518163ffffffff1660e01b815260040160206040518083038186803b158015611ca057600080fd5b505afa158015611cb4573d6000803e3d6000fd5b505050506040513d601f19601f82011682018060405250810190611cd89190614be9565b73ffffffffffffffffffffffffffffffffffffffff1663bbe4f6db856040518263ffffffff1660e01b8152600401611d109190615100565b60206040518083038186803b158015611d2857600080fd5b505afa158015611d3c573d6000803e3d6000fd5b505050506040513d601f19601f82011682018060405250810190611d609190614be9565b9050611d6d848683613d96565b5060008173ffffffffffffffffffffffffffffffffffffffff16632783e4a960008054906101000a900473ffffffffffffffffffffffffffffffffffffffff16866040518363ffffffff1660e01b8152600401611dcb92919061511b565b6040805180830381600087803b158015611de457600080fd5b505af1158015611df8573d6000803e3d6000fd5b505050506040513d601f19601f82011682018060405250810190611e1c9190614f2c565b915050611e298282613c65565b80925050509392505050565b60035481565b6000611e4984848433610fa4565b90509392505050565b6000611e6084848433611e8f565b90509392505050565b600160009054906101000a900473ffffffffffffffffffffffffffffffffffffffff1681565b600080611e9a613bbf565b73ffffffffffffffffffffffffffffffffffffffff1663b99b0a0c6040518163ffffffff1660e01b815260040160206040518083038186803b158015611edf57600080fd5b505afa158015611ef3573d6000803e3d6000fd5b505050506040513d601f19601f82011682018060405250810190611f179190614be9565b73ffffffffffffffffffffffffffffffffffffffff1663bbe4f6db856040518263ffffffff1660e01b8152600401611f4f9190615100565b60206040518083038186803b158015611f6757600080fd5b505afa158015611f7b573d6000803e3d6000fd5b505050506040513d601f19601f82011682018060405250810190611f9f9190614be9565b9050611fcc60008054906101000a900473ffffffffffffffffffffffffffffffffffffffff168783613d96565b50611fd8848683613d96565b508073ffffffffffffffffffffffffffffffffffffffff166386d5f618846040518263ffffffff1660e01b81526004016120129190615100565b602060405180830381600087803b15801561202c57600080fd5b505af1158015612040573d6000803e3d6000fd5b505050506040513d601f19601f820116820180604052508101906120649190614d63565b915050949350505050565b6000600c60008373ffffffffffffffffffffffffffffffffffffffff1673ffffffffffffffffffffffffffffffffffffffff168152602001908152602001600020549050919050565b6000808273ffffffffffffffffffffffffffffffffffffffff168473ffffffffffffffffffffffffffffffffffffffff1614156120f457600080fd5b60008473ffffffffffffffffffffffffffffffffffffffff1663484920316040518163ffffffff1660e01b815260040160206040518083038186803b15801561213c57600080fd5b505afa158015612150573d6000803e3d6000fd5b505050506040513d601f19601f820116820180604052508101906121749190614be9565b90506000612180613bbf565b73ffffffffffffffffffffffffffffffffffffffff1663b99b0a0c6040518163ffffffff1660e01b815260040160206040518083038186803b1580156121c557600080fd5b505afa1580156121d9573d6000803e3d6000fd5b505050506040513d601f19601f820116820180604052508101906121fd9190614be9565b73ffffffffffffffffffffffffffffffffffffffff1663bbe4f6db836040518263ffffffff1660e01b81526004016122359190615100565b60206040518083038186803b15801561224d57600080fd5b505afa158015612261573d6000803e3d6000fd5b505050506040513d601f19601f820116820180604052508101906122859190614be9565b90506000859050600073ffffffffffffffffffffffffffffffffffffffff168673ffffffffffffffffffffffffffffffffffffffff1614156122e757600160009054906101000a900473ffffffffffffffffffffffffffffffffffffffff1690505b60006122f1613bbf565b73ffffffffffffffffffffffffffffffffffffffff1663b99b0a0c6040518163ffffffff1660e01b815260040160206040518083038186803b15801561233657600080fd5b505afa15801561234a573d6000803e3d6000fd5b505050506040513d601f19601f8201168201806040525081019061236e9190614be9565b73ffffffffffffffffffffffffffffffffffffffff1663bbe4f6db836040518263ffffffff1660e01b81526004016123a69190615100565b60206040518083038186803b1580156123be57600080fd5b505afa1580156123d2573d6000803e3d6000fd5b505050506040513d601f19601f820116820180604052508101906123f69190614be9565b90508773ffffffffffffffffffffffffffffffffffffffff166323b872dd33858c6040518463ffffffff1660e01b815260040161243593929190615144565b602060405180830381600087803b15801561244f57600080fd5b505af1158015612463573d6000803e3d6000fd5b505050506040513d601f19601f820116820180604052508101906124879190614c12565b5060008054906101000a900473ffffffffffffffffffffffffffffffffffffffff1673ffffffffffffffffffffffffffffffffffffffff168273ffffffffffffffffffffffffffffffffffffffff1614612761578273ffffffffffffffffffffffffffffffffffffffff16636aff945489306040518363ffffffff1660e01b815260040161251692919061511b565b6040805180830381600087803b15801561252f57600080fd5b505af1158015612543573d6000803e3d6000fd5b505050506040513d601f19601f820116820180604052508101906125679190614f2c565b505060008054906101000a900473ffffffffffffffffffffffffffffffffffffffff1673ffffffffffffffffffffffffffffffffffffffff1663a9059cbb8260008054906101000a900473ffffffffffffffffffffffffffffffffffffffff1673ffffffffffffffffffffffffffffffffffffffff166370a08231306040518263ffffffff1660e01b81526004016125ff9190615100565b60206040518083038186803b15801561261757600080fd5b505afa15801561262b573d6000803e3d6000fd5b505050506040513d601f19601f8201168201806040525081019061264f9190614d63565b6040518363ffffffff1660e01b815260040161266c92919061517b565b602060405180830381600087803b15801561268657600080fd5b505af115801561269a573d6000803e3d6000fd5b505050506040513d601f19601f820116820180604052508101906126be9190614c12565b508073ffffffffffffffffffffffffffffffffffffffff166303438dd0836040518263ffffffff1660e01b81526004016126f89190615100565b6040805180830381600087803b15801561271157600080fd5b505af1158015612725573d6000803e3d6000fd5b505050506040513d601f19601f820116820180604052508101906127499190614f2c565b809650819750505061275c8787336140e1565b6127f6565b8273ffffffffffffffffffffffffffffffffffffffff16636aff945489336040518363ffffffff1660e01b815260040161279c92919061511b565b6040805180830381600087803b1580156127b557600080fd5b505af11580156127c9573d6000803e3d6000fd5b505050506040513d601f19601f820116820180604052508101906127ed9190614f2c565b80965081975050505b6128008186613c65565b50505050935093915050565b8173ffffffffffffffffffffffffffffffffffffffff168373ffffffffffffffffffffffffffffffffffffffff16141561284557600080fd5b60008054906101000a900473ffffffffffffffffffffffffffffffffffffffff1673ffffffffffffffffffffffffffffffffffffffff168373ffffffffffffffffffffffffffffffffffffffff1614156128aa576128a484838361396d565b50612b4d565b60008054906101000a900473ffffffffffffffffffffffffffffffffffffffff1673ffffffffffffffffffffffffffffffffffffffff168273ffffffffffffffffffffffffffffffffffffffff16141561290f57612909848483611c50565b50612b4c565b6000612919613bbf565b73ffffffffffffffffffffffffffffffffffffffff1663b99b0a0c6040518163ffffffff1660e01b815260040160206040518083038186803b15801561295e57600080fd5b505afa158015612972573d6000803e3d6000fd5b505050506040513d601f19601f820116820180604052508101906129969190614be9565b73ffffffffffffffffffffffffffffffffffffffff1663bbe4f6db846040518263ffffffff1660e01b81526004016129ce9190615100565b60206040518083038186803b1580156129e657600080fd5b505afa1580156129fa573d6000803e3d6000fd5b505050506040513d601f19601f82011682018060405250810190612a1e9190614be9565b90506000612a2d868684611c50565b90506000849050600073ffffffffffffffffffffffffffffffffffffffff168573ffffffffffffffffffffffffffffffffffffffff161415612a8f57600160009054906101000a900473ffffffffffffffffffffffffffffffffffffffff1690505b6000808473ffffffffffffffffffffffffffffffffffffffff166303438dd0846040518263ffffffff1660e01b8152600401612acb9190615100565b6040805180830381600087803b158015612ae457600080fd5b505af1158015612af8573d6000803e3d6000fd5b505050506040513d601f19601f82011682018060405250810190612b1c9190614f2c565b9150915060008185612b2e91906152fc565b9050612b3a8682613c65565b612b458884896140e1565b5050505050505b5b50505050565b612b5b613bbf565b73ffffffffffffffffffffffffffffffffffffffff166398fabd3a6040518163ffffffff1660e01b815260040160206040518083038186803b158015612ba057600080fd5b505afa158015612bb4573d6000803e3d6000fd5b505050506040513d601f19601f82011682018060405250810190612bd89190614be9565b73ffffffffffffffffffffffffffffffffffffffff163373ffffffffffffffffffffffffffffffffffffffff161480612c5e5750600260009054906101000a900473ffffffffffffffffffffffffffffffffffffffff1673ffffffffffffffffffffffffffffffffffffffff163373ffffffffffffffffffffffffffffffffffffffff16145b612c6757600080fd5b8060088190555050565b612c79613bbf565b73ffffffffffffffffffffffffffffffffffffffff166398fabd3a6040518163ffffffff1660e01b815260040160206040518083038186803b158015612cbe57600080fd5b505afa158015612cd2573d6000803e3d6000fd5b505050506040513d601f19601f82011682018060405250810190612cf69190614be9565b73ffffffffffffffffffffffffffffffffffffffff163373ffffffffffffffffffffffffffffffffffffffff161480612d7c5750600260009054906101000a900473ffffffffffffffffffffffffffffffffffffffff1673ffffffffffffffffffffffffffffffffffffffff163373ffffffffffffffffffffffffffffffffffffffff16145b612d8557600080fd5b8060068190555050565b600060011515612d9d613bbf565b73ffffffffffffffffffffffffffffffffffffffff1663b99b0a0c6040518163ffffffff1660e01b815260040160206040518083038186803b158015612de257600080fd5b505afa158015612df6573d6000803e3d6000fd5b505050506040513d601f19601f82011682018060405250810190612e1a9190614be9565b73ffffffffffffffffffffffffffffffffffffffff16635b16ebb7856040518263ffffffff1660e01b8152600401612e529190615100565b602060405180830381600087803b158015612e6c57600080fd5b505af1158015612e80573d6000803e3d6000fd5b505050506040513d601f19601f82011682018060405250810190612ea49190614c12565b151514612eb057600080fd5b60011515612ebc613bbf565b73ffffffffffffffffffffffffffffffffffffffff1663b99b0a0c6040518163ffffffff1660e01b815260040160206040518083038186803b158015612f0157600080fd5b505afa158015612f15573d6000803e3d6000fd5b505050506040513d601f19601f82011682018060405250810190612f399190614be9565b73ffffffffffffffffffffffffffffffffffffffff16635b16ebb7846040518263ffffffff1660e01b8152600401612f719190615100565b602060405180830381600087803b158015612f8b57600080fd5b505af1158015612f9f573d6000803e3d6000fd5b505050506040513d601f19601f82011682018060405250810190612fc39190614c12565b151514612fcf57600080fd5b60008373ffffffffffffffffffffffffffffffffffffffff166382bfefc86040518163ffffffff1660e01b815260040160206040518083038186803b15801561301757600080fd5b505afa15801561302b573d6000803e3d6000fd5b505050506040513d601f19601f8201168201806040525081019061304f9190614be9565b905060003390508473ffffffffffffffffffffffffffffffffffffffff166318160ddd6040518163ffffffff1660e01b815260040160206040518083038186803b15801561309c57600080fd5b505afa1580156130b0573d6000803e3d6000fd5b505050506040513d601f19601f820116820180604052508101906130d49190614d63565b8611156130e057600080fd5b8473ffffffffffffffffffffffffffffffffffffffff166323b872dd8287896040518463ffffffff1660e01b815260040161311d93929190615144565b602060405180830381600087803b15801561313757600080fd5b505af115801561314b573d6000803e3d6000fd5b505050506040513d601f19601f8201168201806040525081019061316f9190614c12565b5060008573ffffffffffffffffffffffffffffffffffffffff1663a7f437796040518163ffffffff1660e01b81526004016040805180830381600087803b1580156131b957600080fd5b505af11580156131cd573d6000803e3d6000fd5b505050506040513d601f19601f820116820180604052508101906131f19190614f2c565b9150508273ffffffffffffffffffffffffffffffffffffffff1663a9059cbb87836040518363ffffffff1660e01b815260040161322f92919061517b565b602060405180830381600087803b15801561324957600080fd5b505af115801561325d573d6000803e3d6000fd5b505050506040513d601f19601f820116820180604052508101906132819190614c12565b508573ffffffffffffffffffffffffffffffffffffffff16632783e4a960008054906101000a900473ffffffffffffffffffffffffffffffffffffffff16876040518363ffffffff1660e01b81526004016132dd92919061511b565b6040805180830381600087803b1580156132f657600080fd5b505af115801561330a573d6000803e3d6000fd5b505050506040513d601f19601f8201168201806040525081019061332e9190614f2c565b505060008054906101000a900473ffffffffffffffffffffffffffffffffffffffff1673ffffffffffffffffffffffffffffffffffffffff1663a9059cbb8660008054906101000a900473ffffffffffffffffffffffffffffffffffffffff1673ffffffffffffffffffffffffffffffffffffffff166370a08231306040518263ffffffff1660e01b81526004016133c69190615100565b60206040518083038186803b1580156133de57600080fd5b505afa1580156133f2573d6000803e3d6000fd5b505050506040513d601f19601f820116820180604052508101906134169190614d63565b6040518363ffffffff1660e01b815260040161343392919061517b565b602060405180830381600087803b15801561344d57600080fd5b505af1158015613461573d6000803e3d6000fd5b505050506040513d601f19601f820116820180604052508101906134859190614c12565b508473ffffffffffffffffffffffffffffffffffffffff166386d5f618836040518263ffffffff1660e01b81526004016134bf9190615100565b602060405180830381600087803b1580156134d957600080fd5b505af11580156134ed573d6000803e3d6000fd5b505050506040513d601f19601f820116820180604052508101906135119190614d63565b93505050509392505050565b600260009054906101000a900473ffffffffffffffffffffffffffffffffffffffff1681565b6000806000613550613bbf565b73ffffffffffffffffffffffffffffffffffffffff1663b99b0a0c6040518163ffffffff1660e01b815260040160206040518083038186803b15801561359557600080fd5b505afa1580156135a9573d6000803e3d6000fd5b505050506040513d601f19601f820116820180604052508101906135cd9190614be9565b73ffffffffffffffffffffffffffffffffffffffff1663bbe4f6db856040518263ffffffff1660e01b81526004016136059190615100565b60206040518083038186803b15801561361d57600080fd5b505afa158015613631573d6000803e3d6000fd5b505050506040513d601f19601f820116820180604052508101906136559190614be9565b905060003390508173ffffffffffffffffffffffffffffffffffffffff166323b872dd8284896040518463ffffffff1660e01b815260040161369993929190615144565b602060405180830381600087803b1580156136b357600080fd5b505af11580156136c7573d6000803e3d6000fd5b505050506040513d601f19601f820116820180604052508101906136eb9190614c12565b50600073ffffffffffffffffffffffffffffffffffffffff168573ffffffffffffffffffffffffffffffffffffffff16146137b1578173ffffffffffffffffffffffffffffffffffffffff1663bc5dedc9826040518263ffffffff1660e01b81526004016137599190615100565b6040805180830381600087803b15801561377257600080fd5b505af1158015613786573d6000803e3d6000fd5b505050506040513d601f19601f820116820180604052508101906137aa9190614f2c565b5050613918565b8173ffffffffffffffffffffffffffffffffffffffff1663a7f437796040518163ffffffff1660e01b81526004016040805180830381600087803b1580156137f857600080fd5b505af115801561380c573d6000803e3d6000fd5b505050506040513d601f19601f820116820180604052508101906138309190614f2c565b90508093505060008054906101000a900473ffffffffffffffffffffffffffffffffffffffff1673ffffffffffffffffffffffffffffffffffffffff166370a08231306040518263ffffffff1660e01b815260040161388f9190615100565b60206040518083038186803b1580156138a757600080fd5b505afa1580156138bb573d6000803e3d6000fd5b505050506040513d601f19601f820116820180604052508101906138df9190614d63565b93506138ec8584836140e1565b61391760008054906101000a900473ffffffffffffffffffffffffffffffffffffffff1685836140e1565b5b50509250929050565b600b6020528060005260406000206000915090505481565b6060819050919050565b60075481565b60008054906101000a900473ffffffffffffffffffffffffffffffffffffffff1681565b600080839050600073ffffffffffffffffffffffffffffffffffffffff168473ffffffffffffffffffffffffffffffffffffffff1614156139ce57600160009054906101000a900473ffffffffffffffffffffffffffffffffffffffff1690505b60006139d8613bbf565b73ffffffffffffffffffffffffffffffffffffffff1663b99b0a0c6040518163ffffffff1660e01b815260040160206040518083038186803b158015613a1d57600080fd5b505afa158015613a31573d6000803e3d6000fd5b505050506040513d601f19601f82011682018060405250810190613a559190614be9565b73ffffffffffffffffffffffffffffffffffffffff1663bbe4f6db866040518263ffffffff1660e01b8152600401613a8d9190615100565b60206040518083038186803b158015613aa557600080fd5b505afa158015613ab9573d6000803e3d6000fd5b505050506040513d601f19601f82011682018060405250810190613add9190614be9565b9050613b0a60008054906101000a900473ffffffffffffffffffffffffffffffffffffffff168783613d96565b506000808273ffffffffffffffffffffffffffffffffffffffff166303438dd0856040518263ffffffff1660e01b8152600401613b479190615100565b6040805180830381600087803b158015613b6057600080fd5b505af1158015613b74573d6000803e3d6000fd5b505050506040513d601f19601f82011682018060405250810190613b989190614f2c565b91509150613ba78783886140e1565b613bb18382613c65565b809450505050509392505050565b60008060009054906101000a900473ffffffffffffffffffffffffffffffffffffffff1673ffffffffffffffffffffffffffffffffffffffff166398fabd3a6040518163ffffffff1660e01b815260040160206040518083038186803b158015613c2857600080fd5b505afa158015613c3c573d6000803e3d6000fd5b505050506040513d601f19601f82011682018060405250810190613c609190614cd0565b905090565b60011515613c71613bbf565b73ffffffffffffffffffffffffffffffffffffffff1663b99b0a0c6040518163ffffffff1660e01b815260040160206040518083038186803b158015613cb657600080fd5b505afa158015613cca573d6000803e3d6000fd5b505050506040513d601f19601f82011682018060405250810190613cee9190614be9565b73ffffffffffffffffffffffffffffffffffffffff16638dcb4c93846040518263ffffffff1660e01b8152600401613d269190615100565b60206040518083038186803b158015613d3e57600080fd5b505afa158015613d52573d6000803e3d6000fd5b505050506040513d601f19601f82011682018060405250810190613d769190614c12565b15151415613d9257613d87816142af565b613d918282614387565b5b5050565b6000808311156140da57600073ffffffffffffffffffffffffffffffffffffffff168473ffffffffffffffffffffffffffffffffffffffff161415613f2457348314613de157600080fd5b600160009054906101000a900473ffffffffffffffffffffffffffffffffffffffff1673ffffffffffffffffffffffffffffffffffffffff1683604051613e27906150eb565b60006040518083038185875af1925050503d8060008114613e64576040519150601f19603f3d011682016040523d82523d6000602084013e613e69565b606091505b505050600160009054906101000a900473ffffffffffffffffffffffffffffffffffffffff1673ffffffffffffffffffffffffffffffffffffffff1663a9059cbb83856040518363ffffffff1660e01b8152600401613ec992919061517b565b602060405180830381600087803b158015613ee357600080fd5b505af1158015613ef7573d6000803e3d6000fd5b505050506040513d601f19601f82011682018060405250810190613f1b9190614c12565b508290506140d9565b60008473ffffffffffffffffffffffffffffffffffffffff166370a08231846040518263ffffffff1660e01b8152600401613f5f9190615100565b60206040518083038186803b158015613f7757600080fd5b505afa158015613f8b573d6000803e3d6000fd5b505050506040513d601f19601f82011682018060405250810190613faf9190614d63565b90508473ffffffffffffffffffffffffffffffffffffffff166323b872dd3385876040518463ffffffff1660e01b8152600401613fee93929190615144565b602060405180830381600087803b15801561400857600080fd5b505af115801561401c573d6000803e3d6000fd5b505050506040513d601f19601f820116820180604052508101906140409190614c12565b50808573ffffffffffffffffffffffffffffffffffffffff166370a08231856040518263ffffffff1660e01b815260040161407b9190615100565b60206040518083038186803b15801561409357600080fd5b505afa1580156140a7573d6000803e3d6000fd5b505050506040513d601f19601f820116820180604052508101906140cb9190614d63565b6140d591906153dd565b9150505b5b9392505050565b60008211156142aa57600073ffffffffffffffffffffffffffffffffffffffff168373ffffffffffffffffffffffffffffffffffffffff16141561421a57600160009054906101000a900473ffffffffffffffffffffffffffffffffffffffff1673ffffffffffffffffffffffffffffffffffffffff16632e1a7d4d836040518263ffffffff1660e01b815260040161417a91906151e1565b600060405180830381600087803b15801561419457600080fd5b505af11580156141a8573d6000803e3d6000fd5b505050508073ffffffffffffffffffffffffffffffffffffffff16826040516141d0906150eb565b60006040518083038185875af1925050503d806000811461420d576040519150601f19603f3d011682016040523d82523d6000602084013e614212565b606091505b5050506142a9565b8273ffffffffffffffffffffffffffffffffffffffff1663a9059cbb82846040518363ffffffff1660e01b815260040161425592919061517b565b602060405180830381600087803b15801561426f57600080fd5b505af1158015614283573d6000803e3d6000fd5b505050506040513d601f19601f820116820180604052508101906142a79190614c12565b505b5b505050565b600080600980549050905060085481146142f157600983908060018154018082558091505060019003906000526020600020016000909190919091505561436e565b6142fa8361467c565b60005b60085481101561436c5760098181548110614341577f4e487b7100000000000000000000000000000000000000000000000000000000600052603260045260246000fd5b90600052602060002001548361435791906152fc565b9250808061436490615512565b9150506142fd565b505b6008548261437c9190615352565b600781905550505050565b6000600754146146785760008060009054906101000a900473ffffffffffffffffffffffffffffffffffffffff1673ffffffffffffffffffffffffffffffffffffffff166370a082316143d8613bbf565b73ffffffffffffffffffffffffffffffffffffffff16639d2cc4366040518163ffffffff1660e01b815260040160206040518083038186803b15801561441d57600080fd5b505afa158015614431573d6000803e3d6000fd5b505050506040513d601f19601f820116820180604052508101906144559190614be9565b6040518263ffffffff1660e01b81526004016144719190615100565b60206040518083038186803b15801561448957600080fd5b505afa15801561449d573d6000803e3d6000fd5b505050506040513d601f19601f820116820180604052508101906144c19190614d63565b905060008114614676576000600554600654836144de9190615352565b6144e89190615352565b9050600081846144f89190615383565b905060006007548561450a91906152fc565b826145159190615352565b9050614521818761479c565b614529613bbf565b73ffffffffffffffffffffffffffffffffffffffff16639d2cc4366040518163ffffffff1660e01b815260040160206040518083038186803b15801561456e57600080fd5b505afa158015614582573d6000803e3d6000fd5b505050506040513d601f19601f820116820180604052508101906145a69190614be9565b73ffffffffffffffffffffffffffffffffffffffff16637d458baa82886040518363ffffffff1660e01b81526004016145e09291906151fc565b600060405180830381600087803b1580156145fa57600080fd5b505af115801561460e573d6000803e3d6000fd5b505050508573ffffffffffffffffffffffffffffffffffffffff1663fff6cae96040518163ffffffff1660e01b8152600401600060405180830381600087803b15801561465a57600080fd5b505af115801561466e573d6000803e3d6000fd5b505050505050505b505b5050565b60006009805490509050600060018261469591906153dd565b90505b600081111561474d5760096001826146b091906153dd565b815481106146e7577f4e487b7100000000000000000000000000000000000000000000000000000000600052603260045260246000fd5b90600052602060002001546009828154811061472c577f4e487b7100000000000000000000000000000000000000000000000000000000600052603260045260246000fd5b90600052602060002001819055508080614745906154b7565b915050614698565b5081600960008154811061478a577f4e487b7100000000000000000000000000000000000000000000000000000000600052603260045260246000fd5b90600052602060002001819055505050565b6000600a54141561482c578073ffffffffffffffffffffffffffffffffffffffff1663a7f0b3de6040518163ffffffff1660e01b815260040160206040518083038186803b1580156147ed57600080fd5b505afa158015614801573d6000803e3d6000fd5b505050506040513d601f19601f820116820180604052508101906148259190614d63565b600a819055505b62278d00600a5461483d91906152fc565b42116148d65781600b60008373ffffffffffffffffffffffffffffffffffffffff1673ffffffffffffffffffffffffffffffffffffffff1681526020019081526020016000205461488e91906152fc565b600b60008373ffffffffffffffffffffffffffffffffffffffff1673ffffffffffffffffffffffffffffffffffffffff16815260200190815260200160002081905550614a44565b62278d00600a546148e791906152fc565b600a81905550600b60008273ffffffffffffffffffffffffffffffffffffffff1673ffffffffffffffffffffffffffffffffffffffff16815260200190815260200160002054600c60008373ffffffffffffffffffffffffffffffffffffffff1673ffffffffffffffffffffffffffffffffffffffff168152602001908152602001600020819055506000600b60008373ffffffffffffffffffffffffffffffffffffffff1673ffffffffffffffffffffffffffffffffffffffff1681526020019081526020016000208190555081600b60008373ffffffffffffffffffffffffffffffffffffffff1673ffffffffffffffffffffffffffffffffffffffff16815260200190815260200160002054614a0091906152fc565b600b60008373ffffffffffffffffffffffffffffffffffffffff1673ffffffffffffffffffffffffffffffffffffffff168152602001908152602001600020819055505b5050565b6000614a5b614a5684615273565b61524e565b905082815260208101848484011115614a7357600080fd5b614a7e848285615475565b509392505050565b6000614a99614a94846152a4565b61524e565b905082815260208101848484011115614ab157600080fd5b614abc848285615475565b509392505050565b600081359050614ad3816155fc565b92915050565b600081519050614ae8816155fc565b92915050565b600081359050614afd81615613565b92915050565b600081519050614b1281615613565b92915050565b600081519050614b278161562a565b92915050565b600082601f830112614b3e57600080fd5b8135614b4e848260208601614a48565b91505092915050565b600081519050614b6681615641565b92915050565b600082601f830112614b7d57600080fd5b8135614b8d848260208601614a86565b91505092915050565b600081359050614ba581615658565b92915050565b600081519050614bba81615658565b92915050565b600060208284031215614bd257600080fd5b6000614be084828501614ac4565b91505092915050565b600060208284031215614bfb57600080fd5b6000614c0984828501614ad9565b91505092915050565b600060208284031215614c2457600080fd5b6000614c3284828501614b03565b91505092915050565b600060208284031215614c4d57600080fd5b6000614c5b84828501614b18565b91505092915050565b60008060408385031215614c7757600080fd5b600083013567ffffffffffffffff811115614c9157600080fd5b614c9d85828601614b2d565b925050602083013567ffffffffffffffff811115614cba57600080fd5b614cc685828601614b2d565b9150509250929050565b600060208284031215614ce257600080fd5b6000614cf084828501614b57565b91505092915050565b600060208284031215614d0b57600080fd5b600082013567ffffffffffffffff811115614d2557600080fd5b614d3184828501614b6c565b91505092915050565b600060208284031215614d4c57600080fd5b6000614d5a84828501614b96565b91505092915050565b600060208284031215614d7557600080fd5b6000614d8384828501614bab565b91505092915050565b60008060408385031215614d9f57600080fd5b6000614dad85828601614b96565b9250506020614dbe85828601614ac4565b9150509250929050565b600080600060608486031215614ddd57600080fd5b6000614deb86828701614b96565b9350506020614dfc86828701614ac4565b9250506040614e0d86828701614ac4565b9150509250925092565b60008060008060808587031215614e2d57600080fd5b6000614e3b87828801614b96565b9450506020614e4c87828801614ac4565b9350506040614e5d87828801614ac4565b9250506060614e6e87828801614ac4565b91505092959194509250565b600080600060608486031215614e8f57600080fd5b6000614e9d86828701614b96565b9350506020614eae86828701614aee565b9250506040614ebf86828701614ac4565b9150509250925092565b60008060008060808587031215614edf57600080fd5b6000614eed87828801614b96565b9450506020614efe87828801614aee565b9350506040614f0f87828801614ac4565b9250506060614f2087828801614ac4565b91505092959194509250565b60008060408385031215614f3f57600080fd5b6000614f4d85828601614bab565b9250506020614f5e85828601614bab565b9150509250929050565b600080600060608486031215614f7d57600080fd5b6000614f8b86828701614b96565b9350506020614f9c86828701614b96565b9250506040614fad86828701614ac4565b9150509250925092565b60008060008060808587031215614fcd57600080fd5b6000614fdb87828801614b96565b9450506020614fec87828801614b96565b9350506040614ffd87828801614ac4565b925050606061500e87828801614ac4565b91505092959194509250565b61502381615411565b82525050565b61503281615423565b82525050565b6000615043826152d5565b61504d81856152e0565b935061505d818560208601615484565b615066816155e8565b840191505092915050565b600061507c826152d5565b61508681856152f1565b9350615096818560208601615484565b80840191505092915050565b60006150af6000836152f1565b91506150ba826155f9565b600082019050919050565b6150ce8161546b565b82525050565b60006150e08284615071565b915081905092915050565b60006150f6826150a2565b9150819050919050565b6000602082019050615115600083018461501a565b92915050565b6000604082019050615130600083018561501a565b61513d602083018461501a565b9392505050565b6000606082019050615159600083018661501a565b615166602083018561501a565b61517360408301846150c5565b949350505050565b6000604082019050615190600083018561501a565b61519d60208301846150c5565b9392505050565b60006020820190506151b96000830184615029565b92915050565b600060208201905081810360008301526151d98184615038565b905092915050565b60006020820190506151f660008301846150c5565b92915050565b600060408201905061521160008301856150c5565b61521e602083018461501a565b9392505050565b600060408201905061523a60008301856150c5565b61524760208301846150c5565b9392505050565b6000615258615269565b905061526482826154e1565b919050565b6000604051905090565b600067ffffffffffffffff82111561528e5761528d6155b9565b5b615297826155e8565b9050602081019050919050565b600067ffffffffffffffff8211156152bf576152be6155b9565b5b6152c8826155e8565b9050602081019050919050565b600081519050919050565b600082825260208201905092915050565b600081905092915050565b60006153078261546b565b91506153128361546b565b9250827fffffffffffffffffffffffffffffffffffffffffffffffffffffffffffffffff038211156153475761534661555b565b5b828201905092915050565b600061535d8261546b565b91506153688361546b565b9250826153785761537761558a565b5b828204905092915050565b600061538e8261546b565b91506153998361546b565b9250817fffffffffffffffffffffffffffffffffffffffffffffffffffffffffffffffff04831182151516156153d2576153d161555b565b5b828202905092915050565b60006153e88261546b565b91506153f38361546b565b9250828210156154065761540561555b565b5b828203905092915050565b600061541c8261544b565b9050919050565b60008115159050919050565b6000819050919050565b600061544482615411565b9050919050565b600073ffffffffffffffffffffffffffffffffffffffff82169050919050565b6000819050919050565b82818337600083830152505050565b60005b838110156154a2578082015181840152602081019050615487565b838111156154b1576000848401525b50505050565b60006154c28261546b565b915060008214156154d6576154d561555b565b5b600182039050919050565b6154ea826155e8565b810181811067ffffffffffffffff82111715615509576155086155b9565b5b80604052505050565b600061551d8261546b565b91507fffffffffffffffffffffffffffffffffffffffffffffffffffffffffffffffff8214156155505761554f61555b565b5b600182019050919050565b7f4e487b7100000000000000000000000000000000000000000000000000000000600052601160045260246000fd5b7f4e487b7100000000000000000000000000000000000000000000000000000000600052601260045260246000fd5b7f4e487b7100000000000000000000000000000000000000000000000000000000600052604160045260246000fd5b6000601f19601f8301169050919050565b50565b61560581615411565b811461561057600080fd5b50565b61561c81615423565b811461562757600080fd5b50565b6156338161542f565b811461563e57600080fd5b50565b61564a81615439565b811461565557600080fd5b50565b6156618161546b565b811461566c57600080fd5b5056fea26469706673582212206b68949b7d8354511008bcd0958119c29be415f95bd7335c574a29c0ca3ca51164736f6c63430008030033",
  "linkReferences": {},
  "deployedLinkReferences": {}
}