{
  "_format": "hh-sol-artifact-1",
  "contractName": "Router",
  "sourceName": "contracts/Router.sol",
  "abi": [
    {
      "inputs": [
        {
          "internalType": "address",
          "name": "_base",
          "type": "address"
        },
        {
          "internalType": "address",
          "name": "_wbnb",
          "type": "address"
        }
      ],
      "stateMutability": "nonpayable",
      "type": "constructor"
    },
    {
      "inputs": [],
      "name": "BASE",
      "outputs": [
        {
          "internalType": "address",
          "name": "",
          "type": "address"
        }
      ],
      "stateMutability": "view",
      "type": "function"
    },
    {
      "inputs": [],
      "name": "DEPLOYER",
      "outputs": [
        {
          "internalType": "address",
          "name": "",
          "type": "address"
        }
      ],
      "stateMutability": "view",
      "type": "function"
    },
    {
      "inputs": [
        {
          "internalType": "uint256",
          "name": "poolRTC",
          "type": "uint256"
        },
        {
          "internalType": "address",
          "name": "_pool",
          "type": "address"
        }
      ],
      "name": "RTC",
      "outputs": [],
      "stateMutability": "nonpayable",
      "type": "function"
    },
    {
      "inputs": [],
      "name": "WBNB",
      "outputs": [
        {
          "internalType": "address",
          "name": "",
          "type": "address"
        }
      ],
      "stateMutability": "view",
      "type": "function"
    },
    {
      "inputs": [
        {
          "internalType": "uint256",
          "name": "inputToken",
          "type": "uint256"
        },
        {
          "internalType": "uint256",
          "name": "baseAmount",
          "type": "uint256"
        },
        {
          "internalType": "address",
          "name": "token",
          "type": "address"
        }
      ],
      "name": "addLiquidity",
      "outputs": [],
      "stateMutability": "payable",
      "type": "function"
    },
    {
      "inputs": [
        {
          "internalType": "uint256",
          "name": "input",
          "type": "uint256"
        },
        {
          "internalType": "bool",
          "name": "fromBase",
          "type": "bool"
        },
        {
          "internalType": "address",
          "name": "token",
          "type": "address"
        }
      ],
      "name": "addLiquidityAsym",
      "outputs": [],
      "stateMutability": "payable",
      "type": "function"
    },
    {
      "inputs": [
        {
          "internalType": "uint256",
          "name": "_input",
          "type": "uint256"
        },
        {
          "internalType": "bool",
          "name": "_fromBase",
          "type": "bool"
        },
        {
          "internalType": "address",
          "name": "token",
          "type": "address"
        },
        {
          "internalType": "address",
          "name": "_member",
          "type": "address"
        }
      ],
      "name": "addLiquidityAsymForMember",
      "outputs": [],
      "stateMutability": "payable",
      "type": "function"
    },
    {
      "inputs": [
        {
          "internalType": "uint256",
          "name": "inputToken",
          "type": "uint256"
        },
        {
          "internalType": "uint256",
          "name": "baseAmount",
          "type": "uint256"
        },
        {
          "internalType": "address",
          "name": "token",
          "type": "address"
        },
        {
          "internalType": "address",
          "name": "member",
          "type": "address"
        }
      ],
      "name": "addLiquidityForMember",
      "outputs": [
        {
          "internalType": "uint256",
          "name": "LPsMinted",
          "type": "uint256"
        }
      ],
      "stateMutability": "payable",
      "type": "function"
    },
    {
      "inputs": [
        {
          "internalType": "uint256",
          "name": "amount",
          "type": "uint256"
        },
        {
          "internalType": "address",
          "name": "token",
          "type": "address"
        },
        {
          "internalType": "address",
          "name": "member",
          "type": "address"
        },
        {
          "internalType": "uint256",
          "name": "minAmount",
          "type": "uint256"
        }
      ],
      "name": "buyTo",
      "outputs": [],
      "stateMutability": "nonpayable",
      "type": "function"
    },
    {
      "inputs": [
        {
          "internalType": "uint256",
          "name": "_newDiviClaim",
          "type": "uint256"
        }
      ],
      "name": "changeDiviClaim",
      "outputs": [],
      "stateMutability": "nonpayable",
      "type": "function"
    },
    {
      "inputs": [
        {
          "internalType": "uint256",
          "name": "synthCap",
          "type": "uint256"
        },
        {
          "internalType": "address",
          "name": "_pool",
          "type": "address"
        }
      ],
      "name": "changeSynthCap",
      "outputs": [],
      "stateMutability": "nonpayable",
      "type": "function"
    },
    {
      "inputs": [],
      "name": "curatedPoolsCount",
      "outputs": [
        {
          "internalType": "uint256",
          "name": "",
          "type": "uint256"
        }
      ],
      "stateMutability": "view",
      "type": "function"
    },
    {
      "inputs": [],
      "name": "diviClaim",
      "outputs": [
        {
          "internalType": "uint256",
          "name": "",
          "type": "uint256"
        }
      ],
      "stateMutability": "view",
      "type": "function"
    },
    {
      "inputs": [],
      "name": "lastMonth",
      "outputs": [
        {
          "internalType": "uint256",
          "name": "",
          "type": "uint256"
        }
      ],
      "stateMutability": "view",
      "type": "function"
    },
    {
      "inputs": [
        {
          "internalType": "address",
          "name": "",
          "type": "address"
        }
      ],
      "name": "mapAddress_30DayDividends",
      "outputs": [
        {
          "internalType": "uint256",
          "name": "",
          "type": "uint256"
        }
      ],
      "stateMutability": "view",
      "type": "function"
    },
    {
      "inputs": [
        {
          "internalType": "address",
          "name": "",
          "type": "address"
        }
      ],
      "name": "mapAddress_Past30DayPoolDividends",
      "outputs": [
        {
          "internalType": "uint256",
          "name": "",
          "type": "uint256"
        }
      ],
      "stateMutability": "view",
      "type": "function"
    },
    {
      "inputs": [],
      "name": "purgeDeployer",
      "outputs": [],
      "stateMutability": "nonpayable",
      "type": "function"
    },
    {
      "inputs": [
        {
          "internalType": "uint256",
          "name": "basisPoints",
          "type": "uint256"
        },
        {
          "internalType": "address",
          "name": "token",
          "type": "address"
        }
      ],
      "name": "removeLiquidity",
      "outputs": [],
      "stateMutability": "nonpayable",
      "type": "function"
    },
    {
      "inputs": [
        {
          "internalType": "uint256",
          "name": "basisPoints",
          "type": "uint256"
        },
        {
          "internalType": "bool",
          "name": "toBase",
          "type": "bool"
        },
        {
          "internalType": "address",
          "name": "token",
          "type": "address"
        }
      ],
      "name": "removeLiquidityAsym",
      "outputs": [],
      "stateMutability": "nonpayable",
      "type": "function"
    },
    {
      "inputs": [
        {
          "internalType": "uint256",
          "name": "units",
          "type": "uint256"
        },
        {
          "internalType": "address",
          "name": "token",
          "type": "address"
        }
      ],
      "name": "removeLiquidityExact",
      "outputs": [],
      "stateMutability": "nonpayable",
      "type": "function"
    },
    {
      "inputs": [
        {
          "internalType": "uint256",
          "name": "units",
          "type": "uint256"
        },
        {
          "internalType": "bool",
          "name": "toBase",
          "type": "bool"
        },
        {
          "internalType": "address",
          "name": "token",
          "type": "address"
        }
      ],
      "name": "removeLiquidityExactAsym",
      "outputs": [],
      "stateMutability": "nonpayable",
      "type": "function"
    },
    {
      "inputs": [
        {
          "internalType": "uint256",
          "name": "amount",
          "type": "uint256"
        },
        {
          "internalType": "address",
          "name": "token",
          "type": "address"
        },
        {
          "internalType": "address",
          "name": "member",
          "type": "address"
        },
        {
          "internalType": "uint256",
          "name": "minAmount",
          "type": "uint256"
        }
      ],
      "name": "sellTo",
      "outputs": [
        {
          "internalType": "uint256",
          "name": "",
          "type": "uint256"
        }
      ],
      "stateMutability": "payable",
      "type": "function"
    },
    {
      "inputs": [
        {
          "internalType": "uint256",
          "name": "inputAmount",
          "type": "uint256"
        },
        {
          "internalType": "address",
          "name": "fromToken",
          "type": "address"
        },
        {
          "internalType": "address",
          "name": "toToken",
          "type": "address"
        },
        {
          "internalType": "uint256",
          "name": "minAmount",
          "type": "uint256"
        }
      ],
      "name": "swap",
      "outputs": [],
      "stateMutability": "payable",
      "type": "function"
    },
    {
      "inputs": [
        {
          "internalType": "uint256",
          "name": "inputAmount",
          "type": "uint256"
        },
        {
          "internalType": "address",
          "name": "fromToken",
          "type": "address"
        },
        {
          "internalType": "address",
          "name": "toSynth",
          "type": "address"
        }
      ],
      "name": "swapAssetToSynth",
      "outputs": [],
      "stateMutability": "payable",
      "type": "function"
    },
    {
      "inputs": [
        {
          "internalType": "uint256",
          "name": "inputAmount",
          "type": "uint256"
        },
        {
          "internalType": "address",
          "name": "fromSynth",
          "type": "address"
        },
        {
          "internalType": "address",
          "name": "toToken",
          "type": "address"
        }
      ],
      "name": "swapSynthToAsset",
      "outputs": [],
      "stateMutability": "nonpayable",
      "type": "function"
    },
    {
      "inputs": [
        {
          "internalType": "uint256",
          "name": "inputAmount",
          "type": "uint256"
        },
        {
          "internalType": "address",
          "name": "fromToken",
          "type": "address"
        },
        {
          "internalType": "address",
          "name": "toToken",
          "type": "address"
        },
        {
          "internalType": "address",
          "name": "member",
          "type": "address"
        },
        {
          "internalType": "uint256",
          "name": "minAmount",
          "type": "uint256"
        }
      ],
      "name": "swapTo",
      "outputs": [],
      "stateMutability": "payable",
      "type": "function"
    },
    {
      "inputs": [],
      "name": "updatePoolStatus",
      "outputs": [],
      "stateMutability": "nonpayable",
      "type": "function"
    },
    {
      "inputs": [
        {
          "internalType": "uint256",
          "name": "unitsInput",
          "type": "uint256"
        },
        {
          "internalType": "address",
          "name": "fromPool",
          "type": "address"
        },
        {
          "internalType": "address",
          "name": "toPool",
          "type": "address"
        }
      ],
      "name": "zapLiquidity",
      "outputs": [],
      "stateMutability": "nonpayable",
      "type": "function"
    },
    {
      "stateMutability": "payable",
      "type": "receive"
    }
  ],
  "bytecode": "0x60c06040523480156200001157600080fd5b50604051620084fc380380620084fc8339818101604052810190620000379190620001fb565b6001600081905550600073ffffffffffffffffffffffffffffffffffffffff168273ffffffffffffffffffffffffffffffffffffffff161415620000b2576040517f08c379a0000000000000000000000000000000000000000000000000000000008152600401620000a99062000263565b60405180910390fd5b600073ffffffffffffffffffffffffffffffffffffffff168173ffffffffffffffffffffffffffffffffffffffff16141562000125576040517f08c379a00000000000000000000000000000000000000000000000000000000081526004016200011c9062000263565b60405180910390fd5b8173ffffffffffffffffffffffffffffffffffffffff1660808173ffffffffffffffffffffffffffffffffffffffff1660601b815250508073ffffffffffffffffffffffffffffffffffffffff1660a08173ffffffffffffffffffffffffffffffffffffffff1660601b81525050606460028190555033600160006101000a81548173ffffffffffffffffffffffffffffffffffffffff021916908373ffffffffffffffffffffffffffffffffffffffff16021790555050506200030d565b600081519050620001f581620002f3565b92915050565b600080604083850312156200020f57600080fd5b60006200021f85828601620001e4565b92505060206200023285828601620001e4565b9150509250929050565b60006200024b60058362000285565b91506200025882620002ca565b602082019050919050565b600060208201905081810360008301526200027e816200023c565b9050919050565b600082825260208201905092915050565b6000620002a382620002aa565b9050919050565b600073ffffffffffffffffffffffffffffffffffffffff82169050919050565b7f215a45524f000000000000000000000000000000000000000000000000000000600082015250565b620002fe8162000296565b81146200030a57600080fd5b50565b60805160601c60a05160601c61809d6200045f600039600081816110e201528181612589015281816129700152818161307201528181613de40152818161554f01528181615dc801528181615ffd015281816169c70152616a91015260008181611240015281816112d6015281816113130152818161146f015281816114ac01528181611aa601528181611b0701528181611b4401528181611c62015281816121570152818161228f015281816122f40152818161299d015281816129c801528181612a8d01528181612aae01528181612c3301528181612cc801528181612ce9015281816132810152818161395001528181613c2d01528181613c4e0152818161494c015281816149de01528181614a1d01528181614bce01528181614c0b015281816154a20152818161560801528181615a5801528181615c6c01528181615ece0152616c23015261809d6000f3fe6080604052600436106101bb5760003560e01c806393cac685116100ec578063c1b8411a1161008a578063dd845cb911610064578063dd845cb91461057d578063ec342ad014610594578063ee85eda4146105bf578063f48610f3146105ea576101c2565b8063c1b8411a146104ec578063c8c1fb7514610517578063cbb3a14a14610540576101c2565b8063a1cd6aa5116100c6578063a1cd6aa514610455578063aa62519b1461047e578063b3a140071461049a578063b45e1dbc146104c3576101c2565b806393cac685146103d157806399d786ca146104015780639ea5705a1461042c576101c2565b80633e384a951161015957806370085be01161013357806370085be01461034557806387b21efc146103615780638b697c201461037d5780638dd95002146103a6576101c2565b80633e384a95146102d0578063451918db146102ec5780636325681e14610329576101c2565b80631e2dd515116101955780631e2dd515146102305780633173ec3c14610259578063334ea13314610275578063398ceaae146102a5576101c2565b806303a82138146101c757806305fe138b146101de57806307f4d34c14610207576101c2565b366101c257005b600080fd5b3480156101d357600080fd5b506101dc610613565b005b3480156101ea57600080fd5b5061020560048036038101906102009190617552565b61076b565b005b34801561021357600080fd5b5061022e60048036038101906102299190617500565b610a64565b005b34801561023c57600080fd5b50610257600480360381019061025291906176b7565b610bd2565b005b610273600480360381019061026e919061758e565b611706565b005b61028f600480360381019061028a9190617654565b611f43565b60405161029c9190617b93565b60405180910390f35b3480156102b157600080fd5b506102ba61224e565b6040516102c79190617b93565b60405180910390f35b6102ea60048036038101906102e591906175dd565b612254565b005b3480156102f857600080fd5b50610313600480360381019061030e919061741b565b612735565b6040516103209190617b93565b60405180910390f35b610343600480360381019061033e9190617706565b61274d565b005b61035f600480360381019061035a9190617654565b612ec8565b005b61037b600480360381019061037691906177a5565b612edb565b005b34801561038957600080fd5b506103a4600480360381019061039f9190617552565b612eed565b005b3480156103b257600080fd5b506103bb613070565b6040516103c891906179d4565b60405180910390f35b6103eb60048036038101906103e691906177f4565b613094565b6040516103f89190617b93565b60405180910390f35b34801561040d57600080fd5b50610416613352565b6040516104239190617b93565b60405180910390f35b34801561043857600080fd5b50610453600480360381019061044e9190617552565b613358565b005b34801561046157600080fd5b5061047c6004803603810190610477919061758e565b6134db565b005b610498600480360381019061049391906176b7565b614003565b005b3480156104a657600080fd5b506104c160048036038101906104bc91906176b7565b614014565b005b3480156104cf57600080fd5b506104ea60048036038101906104e5919061758e565b61430f565b005b3480156104f857600080fd5b50610501614edf565b60405161050e91906179d4565b60405180910390f35b34801561052357600080fd5b5061053e60048036038101906105399190617552565b614f05565b005b34801561054c57600080fd5b506105676004803603810190610562919061741b565b615641565b6040516105749190617b93565b60405180910390f35b34801561058957600080fd5b50610592615659565b005b3480156105a057600080fd5b506105a9615a56565b6040516105b691906179d4565b60405180910390f35b3480156105cb57600080fd5b506105d4615a7a565b6040516105e19190617b93565b60405180910390f35b3480156105f657600080fd5b50610611600480360381019061060c9190617654565b615a80565b005b61061b615eca565b73ffffffffffffffffffffffffffffffffffffffff166398fabd3a6040518163ffffffff1660e01b815260040160206040518083038186803b15801561066057600080fd5b505afa158015610674573d6000803e3d6000fd5b505050506040513d601f19601f820116820180604052508101906106989190617444565b73ffffffffffffffffffffffffffffffffffffffff163373ffffffffffffffffffffffffffffffffffffffff16148061071e5750600160009054906101000a900473ffffffffffffffffffffffffffffffffffffffff1673ffffffffffffffffffffffffffffffffffffffff163373ffffffffffffffffffffffffffffffffffffffff16145b61072757600080fd5b6000600160006101000a81548173ffffffffffffffffffffffffffffffffffffffff021916908373ffffffffffffffffffffffffffffffffffffffff160217905550565b600082116107ae576040517f08c379a00000000000000000000000000000000000000000000000000000000081526004016107a590617ad3565b60405180910390fd5b60006107b8615eca565b73ffffffffffffffffffffffffffffffffffffffff16637b0e5c456040518163ffffffff1660e01b815260040160206040518083038186803b1580156107fd57600080fd5b505afa158015610811573d6000803e3d6000fd5b505050506040513d601f19601f820116820180604052508101906108359190617444565b73ffffffffffffffffffffffffffffffffffffffff1663714270ab84610859615eca565b73ffffffffffffffffffffffffffffffffffffffff1663b99b0a0c6040518163ffffffff1660e01b815260040160206040518083038186803b15801561089e57600080fd5b505afa1580156108b2573d6000803e3d6000fd5b505050506040513d601f19601f820116820180604052508101906108d69190617444565b73ffffffffffffffffffffffffffffffffffffffff1663bbe4f6db866040518263ffffffff1660e01b815260040161090e91906179d4565b60206040518083038186803b15801561092657600080fd5b505afa15801561093a573d6000803e3d6000fd5b505050506040513d601f19601f8201168201806040525081019061095e9190617444565b73ffffffffffffffffffffffffffffffffffffffff166370a08231336040518263ffffffff1660e01b815260040161099691906179d4565b60206040518083038186803b1580156109ae57600080fd5b505afa1580156109c2573d6000803e3d6000fd5b505050506040513d601f19601f820116820180604052508101906109e69190617529565b6040518363ffffffff1660e01b8152600401610a03929190617bd7565b60206040518083038186803b158015610a1b57600080fd5b505afa158015610a2f573d6000803e3d6000fd5b505050506040513d601f19601f82011682018060405250810190610a539190617529565b9050610a5f8183614f05565b505050565b610a6c615eca565b73ffffffffffffffffffffffffffffffffffffffff166398fabd3a6040518163ffffffff1660e01b815260040160206040518083038186803b158015610ab157600080fd5b505afa158015610ac5573d6000803e3d6000fd5b505050506040513d601f19601f82011682018060405250810190610ae99190617444565b73ffffffffffffffffffffffffffffffffffffffff163373ffffffffffffffffffffffffffffffffffffffff161480610b6f5750600160009054906101000a900473ffffffffffffffffffffffffffffffffffffffff1673ffffffffffffffffffffffffffffffffffffffff163373ffffffffffffffffffffffffffffffffffffffff16145b610b7857600080fd5b600081118015610b89575061138881105b610bc8576040517f08c379a0000000000000000000000000000000000000000000000000000000008152600401610bbf90617ad3565b60405180910390fd5b8060028190555050565b60008311610c15576040517f08c379a0000000000000000000000000000000000000000000000000000000008152600401610c0c90617ad3565b60405180910390fd5b60011515610c21615eca565b73ffffffffffffffffffffffffffffffffffffffff16639d2cc4366040518163ffffffff1660e01b815260040160206040518083038186803b158015610c6657600080fd5b505afa158015610c7a573d6000803e3d6000fd5b505050506040513d601f19601f82011682018060405250810190610c9e9190617444565b73ffffffffffffffffffffffffffffffffffffffff1663194e22ce6040518163ffffffff1660e01b8152600401602060405180830381600087803b158015610ce557600080fd5b505af1158015610cf9573d6000803e3d6000fd5b505050506040513d601f19601f82011682018060405250810190610d1d91906174ae565b15151415610d60576040517f08c379a0000000000000000000000000000000000000000000000000000000008152600401610d5790617b33565b60405180910390fd5b6000610d6a615eca565b73ffffffffffffffffffffffffffffffffffffffff1663b99b0a0c6040518163ffffffff1660e01b815260040160206040518083038186803b158015610daf57600080fd5b505afa158015610dc3573d6000803e3d6000fd5b505050506040513d601f19601f82011682018060405250810190610de79190617444565b905060008173ffffffffffffffffffffffffffffffffffffffff1663bbe4f6db846040518263ffffffff1660e01b8152600401610e2491906179d4565b60206040518083038186803b158015610e3c57600080fd5b505afa158015610e50573d6000803e3d6000fd5b505050506040513d601f19601f82011682018060405250810190610e749190617444565b9050600115158273ffffffffffffffffffffffffffffffffffffffff16635b16ebb7836040518263ffffffff1660e01b8152600401610eb391906179d4565b602060405180830381600087803b158015610ecd57600080fd5b505af1158015610ee1573d6000803e3d6000fd5b505050506040513d601f19601f82011682018060405250810190610f0591906174ae565b151514610f47576040517f08c379a0000000000000000000000000000000000000000000000000000000008152600401610f3e90617a93565b60405180910390fd5b60003390508173ffffffffffffffffffffffffffffffffffffffff166323b872dd8284896040518463ffffffff1660e01b8152600401610f8993929190617a18565b602060405180830381600087803b158015610fa357600080fd5b505af1158015610fb7573d6000803e3d6000fd5b505050506040513d601f19601f82011682018060405250810190610fdb91906174ae565b61101a576040517f08c379a000000000000000000000000000000000000000000000000000000000815260040161101190617b13565b60405180910390fd5b8173ffffffffffffffffffffffffffffffffffffffff1663bc5dedc9306040518263ffffffff1660e01b815260040161105391906179d4565b6040805180830381600087803b15801561106c57600080fd5b505af1158015611080573d6000803e3d6000fd5b505050506040513d601f19601f820116820180604052508101906110a49190617769565b50506000849050600073ffffffffffffffffffffffffffffffffffffffff168573ffffffffffffffffffffffffffffffffffffffff161415611104577f000000000000000000000000000000000000000000000000000000000000000090505b6000861561146d578173ffffffffffffffffffffffffffffffffffffffff1663a9059cbb858473ffffffffffffffffffffffffffffffffffffffff166370a08231306040518263ffffffff1660e01b815260040161116291906179d4565b60206040518083038186803b15801561117a57600080fd5b505afa15801561118e573d6000803e3d6000fd5b505050506040513d601f19601f820116820180604052508101906111b29190617529565b6040518363ffffffff1660e01b81526004016111cf929190617a4f565b602060405180830381600087803b1580156111e957600080fd5b505af11580156111fd573d6000803e3d6000fd5b505050506040513d601f19601f8201168201806040525081019061122191906174ae565b508373ffffffffffffffffffffffffffffffffffffffff16632783e4a97f0000000000000000000000000000000000000000000000000000000000000000306040518363ffffffff1660e01b815260040161127d9291906179ef565b6040805180830381600087803b15801561129657600080fd5b505af11580156112aa573d6000803e3d6000fd5b505050506040513d601f19601f820116820180604052508101906112ce9190617769565b9050809150507f000000000000000000000000000000000000000000000000000000000000000073ffffffffffffffffffffffffffffffffffffffff1663a9059cbb847f000000000000000000000000000000000000000000000000000000000000000073ffffffffffffffffffffffffffffffffffffffff166370a08231306040518263ffffffff1660e01b815260040161136a91906179d4565b60206040518083038186803b15801561138257600080fd5b505afa158015611396573d6000803e3d6000fd5b505050506040513d601f19601f820116820180604052508101906113ba9190617529565b6040518363ffffffff1660e01b81526004016113d7929190617a4f565b602060405180830381600087803b1580156113f157600080fd5b505af1158015611405573d6000803e3d6000fd5b505050506040513d601f19601f8201168201806040525081019061142991906174ae565b611468576040517f08c379a000000000000000000000000000000000000000000000000000000000815260040161145f90617b13565b60405180910390fd5b6116e9565b7f000000000000000000000000000000000000000000000000000000000000000073ffffffffffffffffffffffffffffffffffffffff1663a9059cbb857f000000000000000000000000000000000000000000000000000000000000000073ffffffffffffffffffffffffffffffffffffffff166370a08231306040518263ffffffff1660e01b815260040161150391906179d4565b60206040518083038186803b15801561151b57600080fd5b505afa15801561152f573d6000803e3d6000fd5b505050506040513d601f19601f820116820180604052508101906115539190617529565b6040518363ffffffff1660e01b8152600401611570929190617a4f565b602060405180830381600087803b15801561158a57600080fd5b505af115801561159e573d6000803e3d6000fd5b505050506040513d601f19601f820116820180604052508101906115c291906174ae565b508373ffffffffffffffffffffffffffffffffffffffff16632783e4a983306040518363ffffffff1660e01b81526004016115fe9291906179ef565b6040805180830381600087803b15801561161757600080fd5b505af115801561162b573d6000803e3d6000fd5b505050506040513d601f19601f8201168201806040525081019061164f9190617769565b9050809150506116e8868373ffffffffffffffffffffffffffffffffffffffff166370a08231306040518263ffffffff1660e01b815260040161169291906179d4565b60206040518083038186803b1580156116aa57600080fd5b505afa1580156116be573d6000803e3d6000fd5b505050506040513d601f19601f820116820180604052508101906116e29190617529565b85615f6f565b5b6116f284616213565b6116fc84826167b6565b5050505050505050565b60008311611749576040517f08c379a000000000000000000000000000000000000000000000000000000000815260040161174090617ad3565b60405180910390fd5b8073ffffffffffffffffffffffffffffffffffffffff168273ffffffffffffffffffffffffffffffffffffffff16141561178257600080fd5b6001151561178e615eca565b73ffffffffffffffffffffffffffffffffffffffff16639d2cc4366040518163ffffffff1660e01b815260040160206040518083038186803b1580156117d357600080fd5b505afa1580156117e7573d6000803e3d6000fd5b505050506040513d601f19601f8201168201806040525081019061180b9190617444565b73ffffffffffffffffffffffffffffffffffffffff1663194e22ce6040518163ffffffff1660e01b8152600401602060405180830381600087803b15801561185257600080fd5b505af1158015611866573d6000803e3d6000fd5b505050506040513d601f19601f8201168201806040525081019061188a91906174ae565b151514156118cd576040517f08c379a00000000000000000000000000000000000000000000000000000000081526004016118c490617b33565b60405180910390fd5b60008173ffffffffffffffffffffffffffffffffffffffff16637535d2466040518163ffffffff1660e01b815260040160206040518083038186803b15801561191557600080fd5b505afa158015611929573d6000803e3d6000fd5b505050506040513d601f19601f8201168201806040525081019061194d9190617444565b90506001151561195b615eca565b73ffffffffffffffffffffffffffffffffffffffff1663b99b0a0c6040518163ffffffff1660e01b815260040160206040518083038186803b1580156119a057600080fd5b505afa1580156119b4573d6000803e3d6000fd5b505050506040513d601f19601f820116820180604052508101906119d89190617444565b73ffffffffffffffffffffffffffffffffffffffff16635b16ebb7836040518263ffffffff1660e01b8152600401611a1091906179d4565b602060405180830381600087803b158015611a2a57600080fd5b505af1158015611a3e573d6000803e3d6000fd5b505050506040513d601f19601f82011682018060405250810190611a6291906174ae565b151514611aa4576040517f08c379a0000000000000000000000000000000000000000000000000000000008152600401611a9b90617a93565b60405180910390fd5b7f000000000000000000000000000000000000000000000000000000000000000073ffffffffffffffffffffffffffffffffffffffff168373ffffffffffffffffffffffffffffffffffffffff1614611c6057611b048484306000611f43565b507f000000000000000000000000000000000000000000000000000000000000000073ffffffffffffffffffffffffffffffffffffffff1663a9059cbb827f000000000000000000000000000000000000000000000000000000000000000073ffffffffffffffffffffffffffffffffffffffff166370a08231306040518263ffffffff1660e01b8152600401611b9b91906179d4565b60206040518083038186803b158015611bb357600080fd5b505afa158015611bc7573d6000803e3d6000fd5b505050506040513d601f19601f82011682018060405250810190611beb9190617529565b6040518363ffffffff1660e01b8152600401611c08929190617a4f565b602060405180830381600087803b158015611c2257600080fd5b505af1158015611c36573d6000803e3d6000fd5b505050506040513d601f19601f82011682018060405250810190611c5a91906174ae565b50611d4f565b7f000000000000000000000000000000000000000000000000000000000000000073ffffffffffffffffffffffffffffffffffffffff166323b872dd3383876040518463ffffffff1660e01b8152600401611cbd93929190617a18565b602060405180830381600087803b158015611cd757600080fd5b505af1158015611ceb573d6000803e3d6000fd5b505050506040513d601f19601f82011682018060405250810190611d0f91906174ae565b611d4e576040517f08c379a0000000000000000000000000000000000000000000000000000000008152600401611d4590617b13565b60405180910390fd5b5b60008173ffffffffffffffffffffffffffffffffffffffff1663f1bbdef2336040518263ffffffff1660e01b8152600401611d8a91906179d4565b6040805180830381600087803b158015611da357600080fd5b505af1158015611db7573d6000803e3d6000fd5b505050506040513d601f19601f82011682018060405250810190611ddb9190617769565b915050611de782616213565b611df182826167b6565b60011515611dfd615eca565b73ffffffffffffffffffffffffffffffffffffffff16639d2cc4366040518163ffffffff1660e01b815260040160206040518083038186803b158015611e4257600080fd5b505afa158015611e56573d6000803e3d6000fd5b505050506040513d601f19601f82011682018060405250810190611e7a9190617444565b73ffffffffffffffffffffffffffffffffffffffff1663194e22ce6040518163ffffffff1660e01b8152600401602060405180830381600087803b158015611ec157600080fd5b505af1158015611ed5573d6000803e3d6000fd5b505050506040513d601f19601f82011682018060405250810190611ef991906174ae565b15151415611f3c576040517f08c379a0000000000000000000000000000000000000000000000000000000008152600401611f3390617b33565b60405180910390fd5b5050505050565b600080611f4e615eca565b73ffffffffffffffffffffffffffffffffffffffff1663b99b0a0c6040518163ffffffff1660e01b815260040160206040518083038186803b158015611f9357600080fd5b505afa158015611fa7573d6000803e3d6000fd5b505050506040513d601f19601f82011682018060405250810190611fcb9190617444565b905060008173ffffffffffffffffffffffffffffffffffffffff1663bbe4f6db876040518263ffffffff1660e01b815260040161200891906179d4565b60206040518083038186803b15801561202057600080fd5b505afa158015612034573d6000803e3d6000fd5b505050506040513d601f19601f820116820180604052508101906120589190617444565b9050600115158273ffffffffffffffffffffffffffffffffffffffff16635b16ebb7836040518263ffffffff1660e01b815260040161209791906179d4565b602060405180830381600087803b1580156120b157600080fd5b505af11580156120c5573d6000803e3d6000fd5b505050506040513d601f19601f820116820180604052508101906120e991906174ae565b15151461212b576040517f08c379a000000000000000000000000000000000000000000000000000000000815260040161212290617a93565b60405180910390fd5b6121368688836168f1565b6000808273ffffffffffffffffffffffffffffffffffffffff16632783e4a97f0000000000000000000000000000000000000000000000000000000000000000896040518363ffffffff1660e01b81526004016121949291906179ef565b6040805180830381600087803b1580156121ad57600080fd5b505af11580156121c1573d6000803e3d6000fd5b505050506040513d601f19601f820116820180604052508101906121e59190617769565b915091508582101561222c576040517f08c379a000000000000000000000000000000000000000000000000000000000815260040161222390617af3565b60405180910390fd5b61223583616213565b61223f83826167b6565b80945050505050949350505050565b60045481565b8273ffffffffffffffffffffffffffffffffffffffff168473ffffffffffffffffffffffffffffffffffffffff16141561228d57600080fd5b7f000000000000000000000000000000000000000000000000000000000000000073ffffffffffffffffffffffffffffffffffffffff168473ffffffffffffffffffffffffffffffffffffffff1614156122f2576122ed85848484615a80565b61272e565b7f000000000000000000000000000000000000000000000000000000000000000073ffffffffffffffffffffffffffffffffffffffff168373ffffffffffffffffffffffffffffffffffffffff1614156123585761235285858484611f43565b5061272d565b6000612362615eca565b73ffffffffffffffffffffffffffffffffffffffff1663b99b0a0c6040518163ffffffff1660e01b815260040160206040518083038186803b1580156123a757600080fd5b505afa1580156123bb573d6000803e3d6000fd5b505050506040513d601f19601f820116820180604052508101906123df9190617444565b905060008173ffffffffffffffffffffffffffffffffffffffff1663bbe4f6db866040518263ffffffff1660e01b815260040161241c91906179d4565b60206040518083038186803b15801561243457600080fd5b505afa158015612448573d6000803e3d6000fd5b505050506040513d601f19601f8201168201806040525081019061246c9190617444565b9050600115158273ffffffffffffffffffffffffffffffffffffffff16635b16ebb7836040518263ffffffff1660e01b81526004016124ab91906179d4565b602060405180830381600087803b1580156124c557600080fd5b505af11580156124d9573d6000803e3d6000fd5b505050506040513d601f19601f820116820180604052508101906124fd91906174ae565b15151461253f576040517f08c379a000000000000000000000000000000000000000000000000000000000815260040161253690617a93565b60405180910390fd5b61254c8787836000611f43565b506000859050600073ffffffffffffffffffffffffffffffffffffffff168673ffffffffffffffffffffffffffffffffffffffff1614156125ab577f000000000000000000000000000000000000000000000000000000000000000090505b6000808373ffffffffffffffffffffffffffffffffffffffff16632783e4a984306040518363ffffffff1660e01b81526004016125e99291906179ef565b6040805180830381600087803b15801561260257600080fd5b505af1158015612616573d6000803e3d6000fd5b505050506040513d601f19601f8201168201806040525081019061263a9190617769565b9150915085821015612681576040517f08c379a000000000000000000000000000000000000000000000000000000000815260040161267890617af3565b60405180910390fd5b61268a84616213565b61269484826167b6565b612727888473ffffffffffffffffffffffffffffffffffffffff166370a08231306040518263ffffffff1660e01b81526004016126d191906179d4565b60206040518083038186803b1580156126e957600080fd5b505afa1580156126fd573d6000803e3d6000fd5b505050506040513d601f19601f820116820180604052508101906127219190617529565b89615f6f565b50505050505b5b5050505050565b60066020528060005260406000206000915090505481565b6000612757615eca565b73ffffffffffffffffffffffffffffffffffffffff1663b99b0a0c6040518163ffffffff1660e01b815260040160206040518083038186803b15801561279c57600080fd5b505afa1580156127b0573d6000803e3d6000fd5b505050506040513d601f19601f820116820180604052508101906127d49190617444565b905060008173ffffffffffffffffffffffffffffffffffffffff1663bbe4f6db856040518263ffffffff1660e01b815260040161281191906179d4565b60206040518083038186803b15801561282957600080fd5b505afa15801561283d573d6000803e3d6000fd5b505050506040513d601f19601f820116820180604052508101906128619190617444565b9050600115158273ffffffffffffffffffffffffffffffffffffffff16635b16ebb7836040518263ffffffff1660e01b81526004016128a091906179d4565b602060405180830381600087803b1580156128ba57600080fd5b505af11580156128ce573d6000803e3d6000fd5b505050506040513d601f19601f820116820180604052508101906128f291906174ae565b151514612934576040517f08c379a000000000000000000000000000000000000000000000000000000000815260040161292b90617a93565b60405180910390fd5b6000849050600073ffffffffffffffffffffffffffffffffffffffff168573ffffffffffffffffffffffffffffffffffffffff161415612992577f000000000000000000000000000000000000000000000000000000000000000090505b8515612bf3576129c37f000000000000000000000000000000000000000000000000000000000000000088306168f1565b6129fa7f00000000000000000000000000000000000000000000000000000000000000006002896129f49190617cc3565b84615f6f565b8173ffffffffffffffffffffffffffffffffffffffff16632783e4a982306040518363ffffffff1660e01b8152600401612a359291906179ef565b6040805180830381600087803b158015612a4e57600080fd5b505af1158015612a62573d6000803e3d6000fd5b505050506040513d601f19601f82011682018060405250810190612a869190617769565b5050612b5b7f00000000000000000000000000000000000000000000000000000000000000007f000000000000000000000000000000000000000000000000000000000000000073ffffffffffffffffffffffffffffffffffffffff166370a08231306040518263ffffffff1660e01b8152600401612b0591906179d4565b60206040518083038186803b158015612b1d57600080fd5b505afa158015612b31573d6000803e3d6000fd5b505050506040513d601f19601f82011682018060405250810190612b559190617529565b84615f6f565b612bee818273ffffffffffffffffffffffffffffffffffffffff166370a08231306040518263ffffffff1660e01b8152600401612b9891906179d4565b60206040518083038186803b158015612bb057600080fd5b505afa158015612bc4573d6000803e3d6000fd5b505050506040513d601f19601f82011682018060405250810190612be89190617529565b84615f6f565b612e2a565b612bfe8588306168f1565b612c1581600289612c0f9190617cc3565b84615f6f565b8173ffffffffffffffffffffffffffffffffffffffff16632783e4a97f0000000000000000000000000000000000000000000000000000000000000000306040518363ffffffff1660e01b8152600401612c709291906179ef565b6040805180830381600087803b158015612c8957600080fd5b505af1158015612c9d573d6000803e3d6000fd5b505050506040513d601f19601f82011682018060405250810190612cc19190617769565b5050612d967f00000000000000000000000000000000000000000000000000000000000000007f000000000000000000000000000000000000000000000000000000000000000073ffffffffffffffffffffffffffffffffffffffff166370a08231306040518263ffffffff1660e01b8152600401612d4091906179d4565b60206040518083038186803b158015612d5857600080fd5b505afa158015612d6c573d6000803e3d6000fd5b505050506040513d601f19601f82011682018060405250810190612d909190617529565b84615f6f565b612e29818273ffffffffffffffffffffffffffffffffffffffff166370a08231306040518263ffffffff1660e01b8152600401612dd391906179d4565b60206040518083038186803b158015612deb57600080fd5b505afa158015612dff573d6000803e3d6000fd5b505050506040513d601f19601f82011682018060405250810190612e239190617529565b84615f6f565b5b8173ffffffffffffffffffffffffffffffffffffffff166386d5f618856040518263ffffffff1660e01b8152600401612e6391906179d4565b602060405180830381600087803b158015612e7d57600080fd5b505af1158015612e91573d6000803e3d6000fd5b505050506040513d601f19601f82011682018060405250810190612eb59190617529565b50612ebf82616213565b50505050505050565b612ed58484843385612254565b50505050565b612ee783838333613094565b50505050565b612ef5615eca565b73ffffffffffffffffffffffffffffffffffffffff166398fabd3a6040518163ffffffff1660e01b815260040160206040518083038186803b158015612f3a57600080fd5b505afa158015612f4e573d6000803e3d6000fd5b505050506040513d601f19601f82011682018060405250810190612f729190617444565b73ffffffffffffffffffffffffffffffffffffffff163373ffffffffffffffffffffffffffffffffffffffff161480612ff85750600160009054906101000a900473ffffffffffffffffffffffffffffffffffffffff1673ffffffffffffffffffffffffffffffffffffffff163373ffffffffffffffffffffffffffffffffffffffff16145b61300157600080fd5b8073ffffffffffffffffffffffffffffffffffffffff16637ec3eae5836040518263ffffffff1660e01b815260040161303a9190617b93565b600060405180830381600087803b15801561305457600080fd5b505af1158015613068573d6000803e3d6000fd5b505050505050565b7f000000000000000000000000000000000000000000000000000000000000000081565b60008061309f615eca565b73ffffffffffffffffffffffffffffffffffffffff1663b99b0a0c6040518163ffffffff1660e01b815260040160206040518083038186803b1580156130e457600080fd5b505afa1580156130f8573d6000803e3d6000fd5b505050506040513d601f19601f8201168201806040525081019061311c9190617444565b905060008173ffffffffffffffffffffffffffffffffffffffff1663bbe4f6db866040518263ffffffff1660e01b815260040161315991906179d4565b60206040518083038186803b15801561317157600080fd5b505afa158015613185573d6000803e3d6000fd5b505050506040513d601f19601f820116820180604052508101906131a99190617444565b9050600115158273ffffffffffffffffffffffffffffffffffffffff16635b16ebb7836040518263ffffffff1660e01b81526004016131e891906179d4565b602060405180830381600087803b15801561320257600080fd5b505af1158015613216573d6000803e3d6000fd5b505050506040513d601f19601f8201168201806040525081019061323a91906174ae565b15151461327c576040517f08c379a000000000000000000000000000000000000000000000000000000000815260040161327390617a93565b60405180910390fd5b6132a77f000000000000000000000000000000000000000000000000000000000000000087836168f1565b6132b28588836168f1565b8073ffffffffffffffffffffffffffffffffffffffff166386d5f618856040518263ffffffff1660e01b81526004016132eb91906179d4565b602060405180830381600087803b15801561330557600080fd5b505af1158015613319573d6000803e3d6000fd5b505050506040513d601f19601f8201168201806040525081019061333d9190617529565b925061334881616213565b5050949350505050565b60035481565b613360615eca565b73ffffffffffffffffffffffffffffffffffffffff166398fabd3a6040518163ffffffff1660e01b815260040160206040518083038186803b1580156133a557600080fd5b505afa1580156133b9573d6000803e3d6000fd5b505050506040513d601f19601f820116820180604052508101906133dd9190617444565b73ffffffffffffffffffffffffffffffffffffffff163373ffffffffffffffffffffffffffffffffffffffff1614806134635750600160009054906101000a900473ffffffffffffffffffffffffffffffffffffffff1673ffffffffffffffffffffffffffffffffffffffff163373ffffffffffffffffffffffffffffffffffffffff16145b61346c57600080fd5b8073ffffffffffffffffffffffffffffffffffffffff1663474e7302836040518263ffffffff1660e01b81526004016134a59190617b93565b600060405180830381600087803b1580156134bf57600080fd5b505af11580156134d3573d6000803e3d6000fd5b505050505050565b6000831161351e576040517f08c379a000000000000000000000000000000000000000000000000000000000815260040161351590617ad3565b60405180910390fd5b8073ffffffffffffffffffffffffffffffffffffffff168273ffffffffffffffffffffffffffffffffffffffff16141561355757600080fd5b60011515613563615eca565b73ffffffffffffffffffffffffffffffffffffffff16639d2cc4366040518163ffffffff1660e01b815260040160206040518083038186803b1580156135a857600080fd5b505afa1580156135bc573d6000803e3d6000fd5b505050506040513d601f19601f820116820180604052508101906135e09190617444565b73ffffffffffffffffffffffffffffffffffffffff1663194e22ce6040518163ffffffff1660e01b8152600401602060405180830381600087803b15801561362757600080fd5b505af115801561363b573d6000803e3d6000fd5b505050506040513d601f19601f8201168201806040525081019061365f91906174ae565b151514156136a2576040517f08c379a000000000000000000000000000000000000000000000000000000000815260040161369990617b33565b60405180910390fd5b60006136ac615eca565b73ffffffffffffffffffffffffffffffffffffffff1663b99b0a0c6040518163ffffffff1660e01b815260040160206040518083038186803b1580156136f157600080fd5b505afa158015613705573d6000803e3d6000fd5b505050506040513d601f19601f820116820180604052508101906137299190617444565b905060008373ffffffffffffffffffffffffffffffffffffffff16637535d2466040518163ffffffff1660e01b815260040160206040518083038186803b15801561377357600080fd5b505afa158015613787573d6000803e3d6000fd5b505050506040513d601f19601f820116820180604052508101906137ab9190617444565b9050600115158273ffffffffffffffffffffffffffffffffffffffff16635b16ebb7836040518263ffffffff1660e01b81526004016137ea91906179d4565b602060405180830381600087803b15801561380457600080fd5b505af1158015613818573d6000803e3d6000fd5b505050506040513d601f19601f8201168201806040525081019061383c91906174ae565b15151461387e576040517f08c379a000000000000000000000000000000000000000000000000000000000815260040161387590617a93565b60405180910390fd5b8373ffffffffffffffffffffffffffffffffffffffff166323b872dd3383886040518463ffffffff1660e01b81526004016138bb93929190617a18565b602060405180830381600087803b1580156138d557600080fd5b505af11580156138e9573d6000803e3d6000fd5b505050506040513d601f19601f8201168201806040525081019061390d91906174ae565b61394c576040517f08c379a000000000000000000000000000000000000000000000000000000000815260040161394390617b13565b60405180910390fd5b60007f000000000000000000000000000000000000000000000000000000000000000073ffffffffffffffffffffffffffffffffffffffff168473ffffffffffffffffffffffffffffffffffffffff161415613a37578173ffffffffffffffffffffffffffffffffffffffff1663dbfc5a04336040518263ffffffff1660e01b81526004016139db91906179d4565b6040805180830381600087803b1580156139f457600080fd5b505af1158015613a08573d6000803e3d6000fd5b505050506040513d601f19601f82011682018060405250810190613a2c9190617769565b905080915050613e9d565b60008373ffffffffffffffffffffffffffffffffffffffff1663bbe4f6db866040518263ffffffff1660e01b8152600401613a7291906179d4565b60206040518083038186803b158015613a8a57600080fd5b505afa158015613a9e573d6000803e3d6000fd5b505050506040513d601f19601f82011682018060405250810190613ac29190617444565b9050600115158473ffffffffffffffffffffffffffffffffffffffff16635b16ebb7836040518263ffffffff1660e01b8152600401613b0191906179d4565b602060405180830381600087803b158015613b1b57600080fd5b505af1158015613b2f573d6000803e3d6000fd5b505050506040513d601f19601f82011682018060405250810190613b5391906174ae565b151514613b95576040517f08c379a0000000000000000000000000000000000000000000000000000000008152600401613b8c90617a93565b60405180910390fd5b6000808473ffffffffffffffffffffffffffffffffffffffff1663dbfc5a04306040518263ffffffff1660e01b8152600401613bd191906179d4565b6040805180830381600087803b158015613bea57600080fd5b505af1158015613bfe573d6000803e3d6000fd5b505050506040513d601f19601f82011682018060405250810190613c229190617769565b905080945050613cfb7f00000000000000000000000000000000000000000000000000000000000000007f000000000000000000000000000000000000000000000000000000000000000073ffffffffffffffffffffffffffffffffffffffff166370a08231306040518263ffffffff1660e01b8152600401613ca591906179d4565b60206040518083038186803b158015613cbd57600080fd5b505afa158015613cd1573d6000803e3d6000fd5b505050506040513d601f19601f82011682018060405250810190613cf59190617529565b85615f6f565b600073ffffffffffffffffffffffffffffffffffffffff168773ffffffffffffffffffffffffffffffffffffffff1614613dc6578273ffffffffffffffffffffffffffffffffffffffff16632783e4a988336040518363ffffffff1660e01b8152600401613d6a9291906179ef565b6040805180830381600087803b158015613d8357600080fd5b505af1158015613d97573d6000803e3d6000fd5b505050506040513d601f19601f82011682018060405250810190613dbb9190617769565b905080925050613e86565b8273ffffffffffffffffffffffffffffffffffffffff16632783e4a97f0000000000000000000000000000000000000000000000000000000000000000306040518363ffffffff1660e01b8152600401613e219291906179ef565b6040805180830381600087803b158015613e3a57600080fd5b505af1158015613e4e573d6000803e3d6000fd5b505050506040513d601f19601f82011682018060405250810190613e729190617769565b8093508192505050613e85878233615f6f565b5b613e8f83616213565b613e9983836167b6565b5050505b613ea682616213565b613eb082826167b6565b60011515613ebc615eca565b73ffffffffffffffffffffffffffffffffffffffff16639d2cc4366040518163ffffffff1660e01b815260040160206040518083038186803b158015613f0157600080fd5b505afa158015613f15573d6000803e3d6000fd5b505050506040513d601f19601f82011682018060405250810190613f399190617444565b73ffffffffffffffffffffffffffffffffffffffff1663194e22ce6040518163ffffffff1660e01b8152600401602060405180830381600087803b158015613f8057600080fd5b505af1158015613f94573d6000803e3d6000fd5b505050506040513d601f19601f82011682018060405250810190613fb891906174ae565b15151415613ffb576040517f08c379a0000000000000000000000000000000000000000000000000000000008152600401613ff290617b33565b60405180910390fd5b505050505050565b61400f8383833361274d565b505050565b60008311614057576040517f08c379a000000000000000000000000000000000000000000000000000000000815260040161404e90617ad3565b60405180910390fd5b6000614061615eca565b73ffffffffffffffffffffffffffffffffffffffff16637b0e5c456040518163ffffffff1660e01b815260040160206040518083038186803b1580156140a657600080fd5b505afa1580156140ba573d6000803e3d6000fd5b505050506040513d601f19601f820116820180604052508101906140de9190617444565b73ffffffffffffffffffffffffffffffffffffffff1663714270ab85614102615eca565b73ffffffffffffffffffffffffffffffffffffffff1663b99b0a0c6040518163ffffffff1660e01b815260040160206040518083038186803b15801561414757600080fd5b505afa15801561415b573d6000803e3d6000fd5b505050506040513d601f19601f8201168201806040525081019061417f9190617444565b73ffffffffffffffffffffffffffffffffffffffff1663bbe4f6db866040518263ffffffff1660e01b81526004016141b791906179d4565b60206040518083038186803b1580156141cf57600080fd5b505afa1580156141e3573d6000803e3d6000fd5b505050506040513d601f19601f820116820180604052508101906142079190617444565b73ffffffffffffffffffffffffffffffffffffffff166370a08231336040518263ffffffff1660e01b815260040161423f91906179d4565b60206040518083038186803b15801561425757600080fd5b505afa15801561426b573d6000803e3d6000fd5b505050506040513d601f19601f8201168201806040525081019061428f9190617529565b6040518363ffffffff1660e01b81526004016142ac929190617bd7565b60206040518083038186803b1580156142c457600080fd5b505afa1580156142d8573d6000803e3d6000fd5b505050506040513d601f19601f820116820180604052508101906142fc9190617529565b9050614309818484610bd2565b50505050565b8073ffffffffffffffffffffffffffffffffffffffff168273ffffffffffffffffffffffffffffffffffffffff161415801561434b5750600083115b61438a576040517f08c379a000000000000000000000000000000000000000000000000000000000815260040161438190617ad3565b60405180910390fd5b6000614394615eca565b73ffffffffffffffffffffffffffffffffffffffff1663b99b0a0c6040518163ffffffff1660e01b815260040160206040518083038186803b1580156143d957600080fd5b505afa1580156143ed573d6000803e3d6000fd5b505050506040513d601f19601f820116820180604052508101906144119190617444565b9050600115158173ffffffffffffffffffffffffffffffffffffffff16635b16ebb7856040518263ffffffff1660e01b815260040161445091906179d4565b602060405180830381600087803b15801561446a57600080fd5b505af115801561447e573d6000803e3d6000fd5b505050506040513d601f19601f820116820180604052508101906144a291906174ae565b1515146144e4576040517f08c379a00000000000000000000000000000000000000000000000000000000081526004016144db90617a93565b60405180910390fd5b600115158173ffffffffffffffffffffffffffffffffffffffff16635b16ebb7846040518263ffffffff1660e01b815260040161452191906179d4565b602060405180830381600087803b15801561453b57600080fd5b505af115801561454f573d6000803e3d6000fd5b505050506040513d601f19601f8201168201806040525081019061457391906174ae565b1515146145b5576040517f08c379a00000000000000000000000000000000000000000000000000000000081526004016145ac90617a93565b60405180910390fd5b60008373ffffffffffffffffffffffffffffffffffffffff166382bfefc86040518163ffffffff1660e01b815260040160206040518083038186803b1580156145fd57600080fd5b505afa158015614611573d6000803e3d6000fd5b505050506040513d601f19601f820116820180604052508101906146359190617444565b905060008373ffffffffffffffffffffffffffffffffffffffff166382bfefc86040518163ffffffff1660e01b815260040160206040518083038186803b15801561467f57600080fd5b505afa158015614693573d6000803e3d6000fd5b505050506040513d601f19601f820116820180604052508101906146b79190617444565b905060003390508573ffffffffffffffffffffffffffffffffffffffff166323b872dd82888a6040518463ffffffff1660e01b81526004016146fb93929190617a18565b602060405180830381600087803b15801561471557600080fd5b505af1158015614729573d6000803e3d6000fd5b505050506040513d601f19601f8201168201806040525081019061474d91906174ae565b61478c576040517f08c379a000000000000000000000000000000000000000000000000000000000815260040161478390617b13565b60405180910390fd5b8573ffffffffffffffffffffffffffffffffffffffff1663bc5dedc9306040518263ffffffff1660e01b81526004016147c591906179d4565b6040805180830381600087803b1580156147de57600080fd5b505af11580156147f2573d6000803e3d6000fd5b505050506040513d601f19601f820116820180604052508101906148169190617769565b50508273ffffffffffffffffffffffffffffffffffffffff1663a9059cbb878573ffffffffffffffffffffffffffffffffffffffff166370a08231306040518263ffffffff1660e01b815260040161486e91906179d4565b60206040518083038186803b15801561488657600080fd5b505afa15801561489a573d6000803e3d6000fd5b505050506040513d601f19601f820116820180604052508101906148be9190617529565b6040518363ffffffff1660e01b81526004016148db929190617a4f565b602060405180830381600087803b1580156148f557600080fd5b505af1158015614909573d6000803e3d6000fd5b505050506040513d601f19601f8201168201806040525081019061492d91906174ae565b508573ffffffffffffffffffffffffffffffffffffffff16632783e4a97f0000000000000000000000000000000000000000000000000000000000000000306040518363ffffffff1660e01b81526004016149899291906179ef565b6040805180830381600087803b1580156149a257600080fd5b505af11580156149b6573d6000803e3d6000fd5b505050506040513d601f19601f820116820180604052508101906149da9190617769565b50507f000000000000000000000000000000000000000000000000000000000000000073ffffffffffffffffffffffffffffffffffffffff1663a9059cbb8660027f000000000000000000000000000000000000000000000000000000000000000073ffffffffffffffffffffffffffffffffffffffff166370a08231306040518263ffffffff1660e01b8152600401614a7491906179d4565b60206040518083038186803b158015614a8c57600080fd5b505afa158015614aa0573d6000803e3d6000fd5b505050506040513d601f19601f82011682018060405250810190614ac49190617529565b614ace9190617cc3565b6040518363ffffffff1660e01b8152600401614aeb929190617a4f565b602060405180830381600087803b158015614b0557600080fd5b505af1158015614b19573d6000803e3d6000fd5b505050506040513d601f19601f82011682018060405250810190614b3d91906174ae565b508473ffffffffffffffffffffffffffffffffffffffff16632783e4a983306040518363ffffffff1660e01b8152600401614b799291906179ef565b6040805180830381600087803b158015614b9257600080fd5b505af1158015614ba6573d6000803e3d6000fd5b505050506040513d601f19601f82011682018060405250810190614bca9190617769565b50507f000000000000000000000000000000000000000000000000000000000000000073ffffffffffffffffffffffffffffffffffffffff1663a9059cbb867f000000000000000000000000000000000000000000000000000000000000000073ffffffffffffffffffffffffffffffffffffffff166370a08231306040518263ffffffff1660e01b8152600401614c6291906179d4565b60206040518083038186803b158015614c7a57600080fd5b505afa158015614c8e573d6000803e3d6000fd5b505050506040513d601f19601f82011682018060405250810190614cb29190617529565b6040518363ffffffff1660e01b8152600401614ccf929190617a4f565b602060405180830381600087803b158015614ce957600080fd5b505af1158015614cfd573d6000803e3d6000fd5b505050506040513d601f19601f82011682018060405250810190614d2191906174ae565b508173ffffffffffffffffffffffffffffffffffffffff1663a9059cbb868473ffffffffffffffffffffffffffffffffffffffff166370a08231306040518263ffffffff1660e01b8152600401614d7891906179d4565b60206040518083038186803b158015614d9057600080fd5b505afa158015614da4573d6000803e3d6000fd5b505050506040513d601f19601f82011682018060405250810190614dc89190617529565b6040518363ffffffff1660e01b8152600401614de5929190617a4f565b602060405180830381600087803b158015614dff57600080fd5b505af1158015614e13573d6000803e3d6000fd5b505050506040513d601f19601f82011682018060405250810190614e3791906174ae565b508473ffffffffffffffffffffffffffffffffffffffff166386d5f618826040518263ffffffff1660e01b8152600401614e7191906179d4565b602060405180830381600087803b158015614e8b57600080fd5b505af1158015614e9f573d6000803e3d6000fd5b505050506040513d601f19601f82011682018060405250810190614ec39190617529565b50614ecd86616213565b614ed685616213565b50505050505050565b600160009054906101000a900473ffffffffffffffffffffffffffffffffffffffff1681565b60008211614f48576040517f08c379a0000000000000000000000000000000000000000000000000000000008152600401614f3f90617ad3565b60405180910390fd5b6000614f52615eca565b73ffffffffffffffffffffffffffffffffffffffff1663b99b0a0c6040518163ffffffff1660e01b815260040160206040518083038186803b158015614f9757600080fd5b505afa158015614fab573d6000803e3d6000fd5b505050506040513d601f19601f82011682018060405250810190614fcf9190617444565b905060011515614fdd615eca565b73ffffffffffffffffffffffffffffffffffffffff16639d2cc4366040518163ffffffff1660e01b815260040160206040518083038186803b15801561502257600080fd5b505afa158015615036573d6000803e3d6000fd5b505050506040513d601f19601f8201168201806040525081019061505a9190617444565b73ffffffffffffffffffffffffffffffffffffffff1663194e22ce6040518163ffffffff1660e01b8152600401602060405180830381600087803b1580156150a157600080fd5b505af11580156150b5573d6000803e3d6000fd5b505050506040513d601f19601f820116820180604052508101906150d991906174ae565b1515141561511c576040517f08c379a000000000000000000000000000000000000000000000000000000000815260040161511390617b33565b60405180910390fd5b60008173ffffffffffffffffffffffffffffffffffffffff1663bbe4f6db846040518263ffffffff1660e01b815260040161515791906179d4565b60206040518083038186803b15801561516f57600080fd5b505afa158015615183573d6000803e3d6000fd5b505050506040513d601f19601f820116820180604052508101906151a79190617444565b9050600115158273ffffffffffffffffffffffffffffffffffffffff16635b16ebb7836040518263ffffffff1660e01b81526004016151e691906179d4565b602060405180830381600087803b15801561520057600080fd5b505af1158015615214573d6000803e3d6000fd5b505050506040513d601f19601f8201168201806040525081019061523891906174ae565b15151461527a576040517f08c379a000000000000000000000000000000000000000000000000000000000815260040161527190617a93565b60405180910390fd5b60003390508173ffffffffffffffffffffffffffffffffffffffff166323b872dd8284886040518463ffffffff1660e01b81526004016152bc93929190617a18565b602060405180830381600087803b1580156152d657600080fd5b505af11580156152ea573d6000803e3d6000fd5b505050506040513d601f19601f8201168201806040525081019061530e91906174ae565b61534d576040517f08c379a000000000000000000000000000000000000000000000000000000000815260040161534490617b13565b60405180910390fd5b600073ffffffffffffffffffffffffffffffffffffffff168473ffffffffffffffffffffffffffffffffffffffff1614615412578173ffffffffffffffffffffffffffffffffffffffff1663bc5dedc9826040518263ffffffff1660e01b81526004016153ba91906179d4565b6040805180830381600087803b1580156153d357600080fd5b505af11580156153e7573d6000803e3d6000fd5b505050506040513d601f19601f8201168201806040525081019061540b9190617769565b5050615631565b8173ffffffffffffffffffffffffffffffffffffffff1663bc5dedc9306040518263ffffffff1660e01b815260040161544b91906179d4565b6040805180830381600087803b15801561546457600080fd5b505af1158015615478573d6000803e3d6000fd5b505050506040513d601f19601f8201168201806040525081019061549c9190617769565b505060007f000000000000000000000000000000000000000000000000000000000000000073ffffffffffffffffffffffffffffffffffffffff166370a08231306040518263ffffffff1660e01b81526004016154f991906179d4565b60206040518083038186803b15801561551157600080fd5b505afa158015615525573d6000803e3d6000fd5b505050506040513d601f19601f820116820180604052508101906155499190617529565b905060007f000000000000000000000000000000000000000000000000000000000000000073ffffffffffffffffffffffffffffffffffffffff166370a08231306040518263ffffffff1660e01b81526004016155a691906179d4565b60206040518083038186803b1580156155be57600080fd5b505afa1580156155d2573d6000803e3d6000fd5b505050506040513d601f19601f820116820180604052508101906155f69190617529565b9050615603868285615f6f565b61562e7f00000000000000000000000000000000000000000000000000000000000000008385615f6f565b50505b61563a82616213565b5050505050565b60056020528060005260406000206000915090505481565b615661615eca565b73ffffffffffffffffffffffffffffffffffffffff16639d2cc4366040518163ffffffff1660e01b815260040160206040518083038186803b1580156156a657600080fd5b505afa1580156156ba573d6000803e3d6000fd5b505050506040513d601f19601f820116820180604052508101906156de9190617444565b73ffffffffffffffffffffffffffffffffffffffff1663194e22ce6040518163ffffffff1660e01b8152600401602060405180830381600087803b15801561572557600080fd5b505af1158015615739573d6000803e3d6000fd5b505050506040513d601f19601f8201168201806040525081019061575d91906174ae565b15615a5457600061576c615eca565b73ffffffffffffffffffffffffffffffffffffffff1663b99b0a0c6040518163ffffffff1660e01b815260040160206040518083038186803b1580156157b157600080fd5b505afa1580156157c5573d6000803e3d6000fd5b505050506040513d601f19601f820116820180604052508101906157e99190617444565b73ffffffffffffffffffffffffffffffffffffffff1663abc764da6040518163ffffffff1660e01b815260040160006040518083038186803b15801561582e57600080fd5b505afa158015615842573d6000803e3d6000fd5b505050506040513d6000823e3d601f19601f8201168201806040525081019061586b919061746d565b9050600080600090505b8251811015615959578281815181106158b7577f4e487b7100000000000000000000000000000000000000000000000000000000600052603260045260246000fd5b602002602001015173ffffffffffffffffffffffffffffffffffffffff166362a5af3b6040518163ffffffff1660e01b815260040160206040518083038186803b15801561590457600080fd5b505afa158015615918573d6000803e3d6000fd5b505050506040513d601f19601f8201168201806040525081019061593c91906174ae565b1561594657600091505b808061595190617dd9565b915050615875565b508015615a5157615968615eca565b73ffffffffffffffffffffffffffffffffffffffff16639d2cc4366040518163ffffffff1660e01b815260040160206040518083038186803b1580156159ad57600080fd5b505afa1580156159c1573d6000803e3d6000fd5b505050506040513d601f19601f820116820180604052508101906159e59190617444565b73ffffffffffffffffffffffffffffffffffffffff16637828c71760006040518263ffffffff1660e01b8152600401615a1e9190617a78565b600060405180830381600087803b158015615a3857600080fd5b505af1158015615a4c573d6000803e3d6000fd5b505050505b50505b565b7f000000000000000000000000000000000000000000000000000000000000000081565b60025481565b6000615a8a615eca565b73ffffffffffffffffffffffffffffffffffffffff1663b99b0a0c6040518163ffffffff1660e01b815260040160206040518083038186803b158015615acf57600080fd5b505afa158015615ae3573d6000803e3d6000fd5b505050506040513d601f19601f82011682018060405250810190615b079190617444565b905060008173ffffffffffffffffffffffffffffffffffffffff1663bbe4f6db866040518263ffffffff1660e01b8152600401615b4491906179d4565b60206040518083038186803b158015615b5c57600080fd5b505afa158015615b70573d6000803e3d6000fd5b505050506040513d601f19601f82011682018060405250810190615b949190617444565b9050600115158273ffffffffffffffffffffffffffffffffffffffff16635b16ebb7836040518263ffffffff1660e01b8152600401615bd391906179d4565b602060405180830381600087803b158015615bed57600080fd5b505af1158015615c01573d6000803e3d6000fd5b505050506040513d601f19601f82011682018060405250810190615c2591906174ae565b151514615c67576040517f08c379a0000000000000000000000000000000000000000000000000000000008152600401615c5e90617a93565b60405180910390fd5b615c927f000000000000000000000000000000000000000000000000000000000000000087836168f1565b60008073ffffffffffffffffffffffffffffffffffffffff168673ffffffffffffffffffffffffffffffffffffffff1614615da7576000808373ffffffffffffffffffffffffffffffffffffffff16632783e4a989896040518363ffffffff1660e01b8152600401615d059291906179ef565b6040805180830381600087803b158015615d1e57600080fd5b505af1158015615d32573d6000803e3d6000fd5b505050506040513d601f19601f82011682018060405250810190615d569190617769565b9150915085821015615d9d576040517f08c379a0000000000000000000000000000000000000000000000000000000008152600401615d9490617af3565b60405180910390fd5b8092505050615eae565b6000808373ffffffffffffffffffffffffffffffffffffffff16632783e4a97f0000000000000000000000000000000000000000000000000000000000000000306040518363ffffffff1660e01b8152600401615e059291906179ef565b6040805180830381600087803b158015615e1e57600080fd5b505af1158015615e32573d6000803e3d6000fd5b505050506040513d601f19601f82011682018060405250810190615e569190617769565b9150915085821015615e9d576040517f08c379a0000000000000000000000000000000000000000000000000000000008152600401615e9490617af3565b60405180910390fd5b615ea8888389615f6f565b80925050505b615eb782616213565b615ec182826167b6565b50505050505050565b60007f000000000000000000000000000000000000000000000000000000000000000073ffffffffffffffffffffffffffffffffffffffff166398fabd3a6040518163ffffffff1660e01b815260040160206040518083038186803b158015615f3257600080fd5b505afa158015615f46573d6000803e3d6000fd5b505050506040513d601f19601f82011682018060405250810190615f6a91906174d7565b905090565b60026000541415615fb5576040517f08c379a0000000000000000000000000000000000000000000000000000000008152600401615fac90617b73565b60405180910390fd5b6002600081905550600082111561620657600073ffffffffffffffffffffffffffffffffffffffff168373ffffffffffffffffffffffffffffffffffffffff161415616138577f000000000000000000000000000000000000000000000000000000000000000073ffffffffffffffffffffffffffffffffffffffff16632e1a7d4d836040518263ffffffff1660e01b81526004016160549190617b93565b600060405180830381600087803b15801561606e57600080fd5b505af1158015616082573d6000803e3d6000fd5b5050505060008173ffffffffffffffffffffffffffffffffffffffff16836040516160ac906179bf565b60006040518083038185875af1925050503d80600081146160e9576040519150601f19603f3d011682016040523d82523d6000602084013e6160ee565b606091505b5050905080616132576040517f08c379a000000000000000000000000000000000000000000000000000000000815260040161612990617ab3565b60405180910390fd5b50616205565b8273ffffffffffffffffffffffffffffffffffffffff1663a9059cbb82846040518363ffffffff1660e01b8152600401616173929190617a4f565b602060405180830381600087803b15801561618d57600080fd5b505af11580156161a1573d6000803e3d6000fd5b505050506040513d601f19601f820116820180604052508101906161c591906174ae565b616204576040517f08c379a00000000000000000000000000000000000000000000000000000000081526004016161fb90617b13565b60405180910390fd5b5b5b6001600081905550505050565b61621b615eca565b73ffffffffffffffffffffffffffffffffffffffff1663b99b0a0c6040518163ffffffff1660e01b815260040160206040518083038186803b15801561626057600080fd5b505afa158015616274573d6000803e3d6000fd5b505050506040513d601f19601f820116820180604052508101906162989190617444565b73ffffffffffffffffffffffffffffffffffffffff16638dcb4c93826040518263ffffffff1660e01b81526004016162d091906179d4565b60206040518083038186803b1580156162e857600080fd5b505afa1580156162fc573d6000803e3d6000fd5b505050506040513d601f19601f8201168201806040525081019061632091906174ae565b156167b3578073ffffffffffffffffffffffffffffffffffffffff166362a5af3b6040518163ffffffff1660e01b815260040160206040518083038186803b15801561636b57600080fd5b505afa15801561637f573d6000803e3d6000fd5b505050506040513d601f19601f820116820180604052508101906163a391906174ae565b15616499576163b0615eca565b73ffffffffffffffffffffffffffffffffffffffff16639d2cc4366040518163ffffffff1660e01b815260040160206040518083038186803b1580156163f557600080fd5b505afa158015616409573d6000803e3d6000fd5b505050506040513d601f19601f8201168201806040525081019061642d9190617444565b73ffffffffffffffffffffffffffffffffffffffff16637828c71760016040518263ffffffff1660e01b81526004016164669190617a78565b600060405180830381600087803b15801561648057600080fd5b505af1158015616494573d6000803e3d6000fd5b505050505b6164a1615eca565b73ffffffffffffffffffffffffffffffffffffffff16639d2cc4366040518163ffffffff1660e01b815260040160206040518083038186803b1580156164e657600080fd5b505afa1580156164fa573d6000803e3d6000fd5b505050506040513d601f19601f8201168201806040525081019061651e9190617444565b73ffffffffffffffffffffffffffffffffffffffff1663194e22ce6040518163ffffffff1660e01b8152600401602060405180830381600087803b15801561656557600080fd5b505af1158015616579573d6000803e3d6000fd5b505050506040513d601f19601f8201168201806040525081019061659d91906174ae565b156167b25760006165ac615eca565b73ffffffffffffffffffffffffffffffffffffffff16639d2cc4366040518163ffffffff1660e01b815260040160206040518083038186803b1580156165f157600080fd5b505afa158015616605573d6000803e3d6000fd5b505050506040513d601f19601f820116820180604052508101906166299190617444565b73ffffffffffffffffffffffffffffffffffffffff1663fd7e1bee6040518163ffffffff1660e01b8152600401602060405180830381600087803b15801561667057600080fd5b505af1158015616684573d6000803e3d6000fd5b505050506040513d601f19601f820116820180604052508101906166a89190617529565b9050610e10816166b89190617c6d565b4211156167b0576166c7615eca565b73ffffffffffffffffffffffffffffffffffffffff16639d2cc4366040518163ffffffff1660e01b815260040160206040518083038186803b15801561670c57600080fd5b505afa158015616720573d6000803e3d6000fd5b505050506040513d601f19601f820116820180604052508101906167449190617444565b73ffffffffffffffffffffffffffffffffffffffff16637828c71760006040518263ffffffff1660e01b815260040161677d9190617a78565b600060405180830381600087803b15801561679757600080fd5b505af11580156167ab573d6000803e3d6000fd5b505050505b505b5b50565b670de0b6b3a7640000811180156168dd5750600115156167d4615eca565b73ffffffffffffffffffffffffffffffffffffffff1663b99b0a0c6040518163ffffffff1660e01b815260040160206040518083038186803b15801561681957600080fd5b505afa15801561682d573d6000803e3d6000fd5b505050506040513d601f19601f820116820180604052508101906168519190617444565b73ffffffffffffffffffffffffffffffffffffffff16638dcb4c93846040518263ffffffff1660e01b815260040161688991906179d4565b60206040518083038186803b1580156168a157600080fd5b505afa1580156168b5573d6000803e3d6000fd5b505050506040513d601f19601f820116820180604052508101906168d991906174ae565b1515145b156168ed576168ec8282616c1f565b5b5050565b60026000541415616937576040517f08c379a000000000000000000000000000000000000000000000000000000000815260040161692e90617b73565b60405180910390fd5b600260008190555060008211616982576040517f08c379a000000000000000000000000000000000000000000000000000000000815260040161697990617b53565b60405180910390fd5b600073ffffffffffffffffffffffffffffffffffffffff168373ffffffffffffffffffffffffffffffffffffffff161415616b43573482146169c357600080fd5b60007f000000000000000000000000000000000000000000000000000000000000000073ffffffffffffffffffffffffffffffffffffffff1683604051616a09906179bf565b60006040518083038185875af1925050503d8060008114616a46576040519150601f19603f3d011682016040523d82523d6000602084013e616a4b565b606091505b5050905080616a8f576040517f08c379a0000000000000000000000000000000000000000000000000000000008152600401616a8690617ab3565b60405180910390fd5b7f000000000000000000000000000000000000000000000000000000000000000073ffffffffffffffffffffffffffffffffffffffff1663a9059cbb83856040518363ffffffff1660e01b8152600401616aea929190617a4f565b602060405180830381600087803b158015616b0457600080fd5b505af1158015616b18573d6000803e3d6000fd5b505050506040513d601f19601f82011682018060405250810190616b3c91906174ae565b5050616c12565b8273ffffffffffffffffffffffffffffffffffffffff166323b872dd3383856040518463ffffffff1660e01b8152600401616b8093929190617a18565b602060405180830381600087803b158015616b9a57600080fd5b505af1158015616bae573d6000803e3d6000fd5b505050506040513d601f19601f82011682018060405250810190616bd291906174ae565b616c11576040517f08c379a0000000000000000000000000000000000000000000000000000000008152600401616c0890617b13565b60405180910390fd5b5b6001600081905550505050565b60007f000000000000000000000000000000000000000000000000000000000000000073ffffffffffffffffffffffffffffffffffffffff166370a08231616c65615eca565b73ffffffffffffffffffffffffffffffffffffffff16639d2cc4366040518163ffffffff1660e01b815260040160206040518083038186803b158015616caa57600080fd5b505afa158015616cbe573d6000803e3d6000fd5b505050506040513d601f19601f82011682018060405250810190616ce29190617444565b6040518263ffffffff1660e01b8152600401616cfe91906179d4565b60206040518083038186803b158015616d1657600080fd5b505afa158015616d2a573d6000803e3d6000fd5b505050506040513d601f19601f82011682018060405250810190616d4e9190617529565b90506000616d5a615eca565b73ffffffffffffffffffffffffffffffffffffffff16639d2cc4366040518163ffffffff1660e01b815260040160206040518083038186803b158015616d9f57600080fd5b505afa158015616db3573d6000803e3d6000fd5b505050506040513d601f19601f82011682018060405250810190616dd79190617444565b73ffffffffffffffffffffffffffffffffffffffff16632267716c6040518163ffffffff1660e01b8152600401602060405180830381600087803b158015616e1e57600080fd5b505af1158015616e32573d6000803e3d6000fd5b505050506040513d601f19601f82011682018060405250810190616e5691906174ae565b9050600082118015616e655750805b1561715c576000616e74615eca565b73ffffffffffffffffffffffffffffffffffffffff1663b99b0a0c6040518163ffffffff1660e01b815260040160206040518083038186803b158015616eb957600080fd5b505afa158015616ecd573d6000803e3d6000fd5b505050506040513d601f19601f82011682018060405250810190616ef19190617444565b73ffffffffffffffffffffffffffffffffffffffff16638bc51e366040518163ffffffff1660e01b815260040160206040518083038186803b158015616f3657600080fd5b505afa158015616f4a573d6000803e3d6000fd5b505050506040513d601f19601f82011682018060405250810190616f6e9190617529565b90506004548114616f8157806004819055505b60006127108260025486616f959190617cf4565b616f9f9190617cc3565b616fa99190617cc3565b90508085600560008973ffffffffffffffffffffffffffffffffffffffff1673ffffffffffffffffffffffffffffffffffffffff16815260200190815260200160002054616ff79190617c6d565b1015617159576170078587617162565b61700f615eca565b73ffffffffffffffffffffffffffffffffffffffff16639d2cc4366040518163ffffffff1660e01b815260040160206040518083038186803b15801561705457600080fd5b505afa158015617068573d6000803e3d6000fd5b505050506040513d601f19601f8201168201806040525081019061708c9190617444565b73ffffffffffffffffffffffffffffffffffffffff16637d458baa86886040518363ffffffff1660e01b81526004016170c6929190617bae565b600060405180830381600087803b1580156170e057600080fd5b505af11580156170f4573d6000803e3d6000fd5b505050508573ffffffffffffffffffffffffffffffffffffffff1663fff6cae96040518163ffffffff1660e01b8152600401600060405180830381600087803b15801561714057600080fd5b505af1158015617154573d6000803e3d6000fd5b505050505b50505b50505050565b6000600354141561717557426003819055505b62278d006003546171869190617c6d565b421161721f5781600560008373ffffffffffffffffffffffffffffffffffffffff1673ffffffffffffffffffffffffffffffffffffffff168152602001908152602001600020546171d79190617c6d565b600560008373ffffffffffffffffffffffffffffffffffffffff1673ffffffffffffffffffffffffffffffffffffffff168152602001908152602001600020819055506172ee565b42600381905550600560008273ffffffffffffffffffffffffffffffffffffffff1673ffffffffffffffffffffffffffffffffffffffff16815260200190815260200160002054600660008373ffffffffffffffffffffffffffffffffffffffff1673ffffffffffffffffffffffffffffffffffffffff1681526020019081526020016000208190555081600560008373ffffffffffffffffffffffffffffffffffffffff1673ffffffffffffffffffffffffffffffffffffffff168152602001908152602001600020819055505b5050565b600061730561730084617c25565b617c00565b9050808382526020820190508285602086028201111561732457600080fd5b60005b85811015617354578161733a8882617373565b845260208401935060208301925050600181019050617327565b5050509392505050565b60008135905061736d8161800b565b92915050565b6000815190506173828161800b565b92915050565b600082601f83011261739957600080fd5b81516173a98482602086016172f2565b91505092915050565b6000813590506173c181618022565b92915050565b6000815190506173d681618022565b92915050565b6000815190506173eb81618039565b92915050565b60008135905061740081618050565b92915050565b60008151905061741581618050565b92915050565b60006020828403121561742d57600080fd5b600061743b8482850161735e565b91505092915050565b60006020828403121561745657600080fd5b600061746484828501617373565b91505092915050565b60006020828403121561747f57600080fd5b600082015167ffffffffffffffff81111561749957600080fd5b6174a584828501617388565b91505092915050565b6000602082840312156174c057600080fd5b60006174ce848285016173c7565b91505092915050565b6000602082840312156174e957600080fd5b60006174f7848285016173dc565b91505092915050565b60006020828403121561751257600080fd5b6000617520848285016173f1565b91505092915050565b60006020828403121561753b57600080fd5b600061754984828501617406565b91505092915050565b6000806040838503121561756557600080fd5b6000617573858286016173f1565b92505060206175848582860161735e565b9150509250929050565b6000806000606084860312156175a357600080fd5b60006175b1868287016173f1565b93505060206175c28682870161735e565b92505060406175d38682870161735e565b9150509250925092565b600080600080600060a086880312156175f557600080fd5b6000617603888289016173f1565b95505060206176148882890161735e565b94505060406176258882890161735e565b93505060606176368882890161735e565b9250506080617647888289016173f1565b9150509295509295909350565b6000806000806080858703121561766a57600080fd5b6000617678878288016173f1565b94505060206176898782880161735e565b935050604061769a8782880161735e565b92505060606176ab878288016173f1565b91505092959194509250565b6000806000606084860312156176cc57600080fd5b60006176da868287016173f1565b93505060206176eb868287016173b2565b92505060406176fc8682870161735e565b9150509250925092565b6000806000806080858703121561771c57600080fd5b600061772a878288016173f1565b945050602061773b878288016173b2565b935050604061774c8782880161735e565b925050606061775d8782880161735e565b91505092959194509250565b6000806040838503121561777c57600080fd5b600061778a85828601617406565b925050602061779b85828601617406565b9150509250929050565b6000806000606084860312156177ba57600080fd5b60006177c8868287016173f1565b93505060206177d9868287016173f1565b92505060406177ea8682870161735e565b9150509250925092565b6000806000806080858703121561780a57600080fd5b6000617818878288016173f1565b9450506020617829878288016173f1565b935050604061783a8782880161735e565b925050606061784b8782880161735e565b91505092959194509250565b61786081617d4e565b82525050565b61786f81617d60565b82525050565b6000617882600583617c5c565b915061788d82617ec0565b602082019050919050565b60006178a5600583617c5c565b91506178b082617ee9565b602082019050919050565b60006178c8600683617c5c565b91506178d382617f12565b602082019050919050565b60006178eb600583617c5c565b91506178f682617f3b565b602082019050919050565b600061790e600983617c5c565b915061791982617f64565b602082019050919050565b6000617931600083617c51565b915061793c82617f8d565b600082019050919050565b6000617954600583617c5c565b915061795f82617f90565b602082019050919050565b6000617977600483617c5c565b915061798282617fb9565b602082019050919050565b600061799a601f83617c5c565b91506179a582617fe2565b602082019050919050565b6179b981617d9e565b82525050565b60006179ca82617924565b9150819050919050565b60006020820190506179e96000830184617857565b92915050565b6000604082019050617a046000830185617857565b617a116020830184617857565b9392505050565b6000606082019050617a2d6000830186617857565b617a3a6020830185617857565b617a4760408301846179b0565b949350505050565b6000604082019050617a646000830185617857565b617a7160208301846179b0565b9392505050565b6000602082019050617a8d6000830184617866565b92915050565b60006020820190508181036000830152617aac81617875565b9050919050565b60006020820190508181036000830152617acc81617898565b9050919050565b60006020820190508181036000830152617aec816178bb565b9050919050565b60006020820190508181036000830152617b0c816178de565b9050919050565b60006020820190508181036000830152617b2c81617901565b9050919050565b60006020820190508181036000830152617b4c81617947565b9050919050565b60006020820190508181036000830152617b6c8161796a565b9050919050565b60006020820190508181036000830152617b8c8161798d565b9050919050565b6000602082019050617ba860008301846179b0565b92915050565b6000604082019050617bc360008301856179b0565b617bd06020830184617857565b9392505050565b6000604082019050617bec60008301856179b0565b617bf960208301846179b0565b9392505050565b6000617c0a617c1b565b9050617c168282617da8565b919050565b6000604051905090565b600067ffffffffffffffff821115617c4057617c3f617e80565b5b602082029050602081019050919050565b600081905092915050565b600082825260208201905092915050565b6000617c7882617d9e565b9150617c8383617d9e565b9250827fffffffffffffffffffffffffffffffffffffffffffffffffffffffffffffffff03821115617cb857617cb7617e22565b5b828201905092915050565b6000617cce82617d9e565b9150617cd983617d9e565b925082617ce957617ce8617e51565b5b828204905092915050565b6000617cff82617d9e565b9150617d0a83617d9e565b9250817fffffffffffffffffffffffffffffffffffffffffffffffffffffffffffffffff0483118215151615617d4357617d42617e22565b5b828202905092915050565b6000617d5982617d7e565b9050919050565b60008115159050919050565b6000617d7782617d4e565b9050919050565b600073ffffffffffffffffffffffffffffffffffffffff82169050919050565b6000819050919050565b617db182617eaf565b810181811067ffffffffffffffff82111715617dd057617dcf617e80565b5b80604052505050565b6000617de482617d9e565b91507fffffffffffffffffffffffffffffffffffffffffffffffffffffffffffffffff821415617e1757617e16617e22565b5b600182019050919050565b7f4e487b7100000000000000000000000000000000000000000000000000000000600052601160045260246000fd5b7f4e487b7100000000000000000000000000000000000000000000000000000000600052601260045260246000fd5b7f4e487b7100000000000000000000000000000000000000000000000000000000600052604160045260246000fd5b6000601f19601f8301169050919050565b7f21504f4f4c000000000000000000000000000000000000000000000000000000600082015250565b7f2173656e64000000000000000000000000000000000000000000000000000000600082015250565b7f2156414c49440000000000000000000000000000000000000000000000000000600082015250565b7f2152415445000000000000000000000000000000000000000000000000000000600082015250565b7f217472616e736665720000000000000000000000000000000000000000000000600082015250565b50565b7f2153414645000000000000000000000000000000000000000000000000000000600082015250565b7f2147415300000000000000000000000000000000000000000000000000000000600082015250565b7f5265656e7472616e637947756172643a207265656e7472616e742063616c6c00600082015250565b61801481617d4e565b811461801f57600080fd5b50565b61802b81617d60565b811461803657600080fd5b50565b61804281617d6c565b811461804d57600080fd5b50565b61805981617d9e565b811461806457600080fd5b5056fea264697066735822122051fcd0067e70f74aad9dd833dcf42b3b04e0b27ba76332b3c555f92584b9d3c864736f6c63430008030033",
  "linkReferences": {},
  "deployedLinkReferences": {}
}