{
  "_format": "hh-sol-artifact-1",
  "contractName": "Router",
  "sourceName": "contracts/Router.sol",
  "abi": [
    {
      "inputs": [
        {
          "internalType": "address",
          "name": "_base",
          "type": "address"
        },
        {
          "internalType": "address",
          "name": "_wbnb",
          "type": "address"
        }
      ],
      "stateMutability": "nonpayable",
      "type": "constructor"
    },
    {
      "inputs": [],
      "name": "BASE",
      "outputs": [
        {
          "internalType": "address",
          "name": "",
          "type": "address"
        }
      ],
      "stateMutability": "view",
      "type": "function"
    },
    {
      "inputs": [],
      "name": "DEPLOYER",
      "outputs": [
        {
          "internalType": "address",
          "name": "",
          "type": "address"
        }
      ],
      "stateMutability": "view",
      "type": "function"
    },
    {
      "inputs": [],
      "name": "WBNB",
      "outputs": [
        {
          "internalType": "address",
          "name": "",
          "type": "address"
        }
      ],
      "stateMutability": "view",
      "type": "function"
    },
    {
      "inputs": [
        {
          "internalType": "uint256",
          "name": "inputBase",
          "type": "uint256"
        },
        {
          "internalType": "uint256",
          "name": "inputToken",
          "type": "uint256"
        },
        {
          "internalType": "address",
          "name": "token",
          "type": "address"
        }
      ],
      "name": "addLiquidity",
      "outputs": [],
      "stateMutability": "payable",
      "type": "function"
    },
    {
      "inputs": [
        {
          "internalType": "uint256",
          "name": "inputBase",
          "type": "uint256"
        },
        {
          "internalType": "uint256",
          "name": "inputToken",
          "type": "uint256"
        },
        {
          "internalType": "address",
          "name": "token",
          "type": "address"
        },
        {
          "internalType": "address",
          "name": "member",
          "type": "address"
        }
      ],
      "name": "addLiquidityForMember",
      "outputs": [],
      "stateMutability": "payable",
      "type": "function"
    },
    {
      "inputs": [
        {
          "internalType": "uint256",
          "name": "inputToken",
          "type": "uint256"
        },
        {
          "internalType": "bool",
          "name": "fromBase",
          "type": "bool"
        },
        {
          "internalType": "address",
          "name": "token",
          "type": "address"
        }
      ],
      "name": "addLiquiditySingle",
      "outputs": [],
      "stateMutability": "payable",
      "type": "function"
    },
    {
      "inputs": [
        {
          "internalType": "uint256",
          "name": "inputToken",
          "type": "uint256"
        },
        {
          "internalType": "bool",
          "name": "fromBase",
          "type": "bool"
        },
        {
          "internalType": "address",
          "name": "token",
          "type": "address"
        },
        {
          "internalType": "address",
          "name": "member",
          "type": "address"
        }
      ],
      "name": "addLiquiditySingleForMember",
      "outputs": [],
      "stateMutability": "payable",
      "type": "function"
    },
    {
      "inputs": [
        {
          "internalType": "uint256",
          "name": "amount",
          "type": "uint256"
        },
        {
          "internalType": "address",
          "name": "token",
          "type": "address"
        },
        {
          "internalType": "address",
          "name": "member",
          "type": "address"
        }
      ],
      "name": "buyTo",
      "outputs": [],
      "stateMutability": "nonpayable",
      "type": "function"
    },
    {
      "inputs": [
        {
          "internalType": "uint256",
          "name": "_size",
          "type": "uint256"
        }
      ],
      "name": "changeArrayFeeSize",
      "outputs": [],
      "stateMutability": "nonpayable",
      "type": "function"
    },
    {
      "inputs": [
        {
          "internalType": "uint256",
          "name": "_eraLength",
          "type": "uint256"
        }
      ],
      "name": "changeEraLength",
      "outputs": [],
      "stateMutability": "nonpayable",
      "type": "function"
    },
    {
      "inputs": [
        {
          "internalType": "uint256",
          "name": "_maxtrades",
          "type": "uint256"
        }
      ],
      "name": "changeMaxTrades",
      "outputs": [],
      "stateMutability": "nonpayable",
      "type": "function"
    },
    {
      "inputs": [
        {
          "internalType": "address",
          "name": "pool",
          "type": "address"
        }
      ],
      "name": "currentPoolRevenue",
      "outputs": [
        {
          "internalType": "uint256",
          "name": "",
          "type": "uint256"
        }
      ],
      "stateMutability": "view",
      "type": "function"
    },
    {
      "inputs": [
        {
          "internalType": "bytes",
          "name": "part1",
          "type": "bytes"
        },
        {
          "internalType": "bytes",
          "name": "part2",
          "type": "bytes"
        }
      ],
      "name": "isEqual",
      "outputs": [
        {
          "internalType": "bool",
          "name": "equal",
          "type": "bool"
        }
      ],
      "stateMutability": "pure",
      "type": "function"
    },
    {
      "inputs": [
        {
          "internalType": "address",
          "name": "",
          "type": "address"
        }
      ],
      "name": "mapAddress_30DayDividends",
      "outputs": [
        {
          "internalType": "uint256",
          "name": "",
          "type": "uint256"
        }
      ],
      "stateMutability": "view",
      "type": "function"
    },
    {
      "inputs": [
        {
          "internalType": "address",
          "name": "",
          "type": "address"
        }
      ],
      "name": "mapAddress_Past30DayPoolDividends",
      "outputs": [
        {
          "internalType": "uint256",
          "name": "",
          "type": "uint256"
        }
      ],
      "stateMutability": "view",
      "type": "function"
    },
    {
      "inputs": [],
      "name": "normalAverageFee",
      "outputs": [
        {
          "internalType": "uint256",
          "name": "",
          "type": "uint256"
        }
      ],
      "stateMutability": "view",
      "type": "function"
    },
    {
      "inputs": [
        {
          "internalType": "address",
          "name": "pool",
          "type": "address"
        }
      ],
      "name": "pastPoolRevenue",
      "outputs": [
        {
          "internalType": "uint256",
          "name": "",
          "type": "uint256"
        }
      ],
      "stateMutability": "view",
      "type": "function"
    },
    {
      "inputs": [
        {
          "internalType": "uint256",
          "name": "basisPoints",
          "type": "uint256"
        },
        {
          "internalType": "address",
          "name": "token",
          "type": "address"
        }
      ],
      "name": "removeLiquidity",
      "outputs": [],
      "stateMutability": "nonpayable",
      "type": "function"
    },
    {
      "inputs": [
        {
          "internalType": "uint256",
          "name": "units",
          "type": "uint256"
        },
        {
          "internalType": "address",
          "name": "token",
          "type": "address"
        }
      ],
      "name": "removeLiquidityExact",
      "outputs": [],
      "stateMutability": "nonpayable",
      "type": "function"
    },
    {
      "inputs": [
        {
          "internalType": "uint256",
          "name": "units",
          "type": "uint256"
        },
        {
          "internalType": "bool",
          "name": "toBase",
          "type": "bool"
        },
        {
          "internalType": "address",
          "name": "token",
          "type": "address"
        }
      ],
      "name": "removeLiquiditySingle",
      "outputs": [],
      "stateMutability": "nonpayable",
      "type": "function"
    },
    {
      "inputs": [
        {
          "internalType": "uint256",
          "name": "amount",
          "type": "uint256"
        },
        {
          "internalType": "address",
          "name": "token",
          "type": "address"
        },
        {
          "internalType": "address",
          "name": "member",
          "type": "address"
        }
      ],
      "name": "sellTo",
      "outputs": [
        {
          "internalType": "uint256",
          "name": "",
          "type": "uint256"
        }
      ],
      "stateMutability": "payable",
      "type": "function"
    },
    {
      "inputs": [
        {
          "internalType": "string",
          "name": "s",
          "type": "string"
        }
      ],
      "name": "stringToBytes",
      "outputs": [
        {
          "internalType": "bytes",
          "name": "",
          "type": "bytes"
        }
      ],
      "stateMutability": "pure",
      "type": "function"
    },
    {
      "inputs": [
        {
          "internalType": "uint256",
          "name": "inputAmount",
          "type": "uint256"
        },
        {
          "internalType": "address",
          "name": "fromToken",
          "type": "address"
        },
        {
          "internalType": "address",
          "name": "toToken",
          "type": "address"
        }
      ],
      "name": "swap",
      "outputs": [],
      "stateMutability": "payable",
      "type": "function"
    },
    {
      "inputs": [
        {
          "internalType": "uint256",
          "name": "inputAmount",
          "type": "uint256"
        },
        {
          "internalType": "address",
          "name": "fromToken",
          "type": "address"
        },
        {
          "internalType": "address",
          "name": "toSynth",
          "type": "address"
        }
      ],
      "name": "swapAssetToSynth",
      "outputs": [],
      "stateMutability": "payable",
      "type": "function"
    },
    {
      "inputs": [
        {
          "internalType": "uint256",
          "name": "inputAmount",
          "type": "uint256"
        },
        {
          "internalType": "address",
          "name": "fromSynth",
          "type": "address"
        },
        {
          "internalType": "address",
          "name": "toToken",
          "type": "address"
        }
      ],
      "name": "swapSynthToAsset",
      "outputs": [],
      "stateMutability": "nonpayable",
      "type": "function"
    },
    {
      "inputs": [
        {
          "internalType": "uint256",
          "name": "inputAmount",
          "type": "uint256"
        },
        {
          "internalType": "address",
          "name": "fromToken",
          "type": "address"
        },
        {
          "internalType": "address",
          "name": "toToken",
          "type": "address"
        },
        {
          "internalType": "address",
          "name": "member",
          "type": "address"
        }
      ],
      "name": "swapTo",
      "outputs": [],
      "stateMutability": "payable",
      "type": "function"
    },
    {
      "inputs": [
        {
          "internalType": "uint256",
          "name": "unitsInput",
          "type": "uint256"
        },
        {
          "internalType": "address",
          "name": "fromPool",
          "type": "address"
        },
        {
          "internalType": "address",
          "name": "toPool",
          "type": "address"
        }
      ],
      "name": "zapLiquidity",
      "outputs": [],
      "stateMutability": "nonpayable",
      "type": "function"
    },
    {
      "stateMutability": "payable",
      "type": "receive"
    }
  ],
  "bytecode": "0x60806040523480156200001157600080fd5b50604051620059a4380380620059a4833981810160405281019062000037919062000138565b816000806101000a81548173ffffffffffffffffffffffffffffffffffffffff021916908373ffffffffffffffffffffffffffffffffffffffff16021790555080600160006101000a81548173ffffffffffffffffffffffffffffffffffffffff021916908373ffffffffffffffffffffffffffffffffffffffff1602179055506014600681905550601e6004819055506064600381905550600060088190555033600260006101000a81548173ffffffffffffffffffffffffffffffffffffffff021916908373ffffffffffffffffffffffffffffffffffffffff1602179055505050620001c7565b6000815190506200013281620001ad565b92915050565b600080604083850312156200014c57600080fd5b60006200015c8582860162000121565b92505060206200016f8582860162000121565b9150509250929050565b600062000186826200018d565b9050919050565b600073ffffffffffffffffffffffffffffffffffffffff82169050919050565b620001b88162000179565b8114620001c457600080fd5b50565b6157cd80620001d76000396000f3fe6080604052600436106101a05760003560e01c806393cac685116100ec578063c1b8411a1161008a578063e106fb4b11610064578063e106fb4b1461056f578063eb116111146105ac578063ec342ad0146105d7578063ecf3ef9214610602576101a7565b8063c1b8411a146104de578063c8c1fb7514610509578063cbb3a14a14610532576101a7565b8063ab1485ec116100c6578063ab1485ec14610447578063ab87d7be14610463578063b02d247a1461048c578063b45e1dbc146104b5576101a7565b806393cac685146103c55780639921c266146103e1578063a1cd6aa51461041e576101a7565b8063451918db1161015957806369ab0a8e1161013357806369ab0a8e146103325780636d54435d1461036257806387b21efc1461037e5780638dd950021461039a576101a7565b8063451918db146102a3578063519fc9c9146102e057806352e5c5c714610309576101a7565b806305fe138b146101ac5780632ac27482146101d55780632b7f0923146102125780633173ec3c1461022e578063331813ee1461024a5780633435980814610266576101a7565b366101a757005b600080fd5b3480156101b857600080fd5b506101d360048036038101906101ce9190614e37565b61062b565b005b3480156101e157600080fd5b506101fc60048036038101906101f79190614c6b565b6108fc565b60405161020991906152cf565b60405180910390f35b61022c60048036038101906102279190614e73565b610945565b005b61024860048036038101906102439190614e73565b610956565b005b610264600480360381019061025f9190614f74565b610e30565b005b34801561027257600080fd5b5061028d60048036038101906102889190614d0f565b611112565b60405161029a9190615272565b60405180910390f35b3480156102af57600080fd5b506102ca60048036038101906102c59190614c6b565b6111ca565b6040516102d791906152cf565b60405180910390f35b3480156102ec57600080fd5b5061030760048036038101906103029190614de5565b6111e2565b005b34801561031557600080fd5b50610330600480360381019061032b9190614f25565b611300565b005b61034c60048036038101906103479190614e73565b611af3565b60405161035991906152cf565b60405180910390f35b61037c60048036038101906103779190614f25565b611cd8565b005b61039860048036038101906103939190615013565b611ce9565b005b3480156103a657600080fd5b506103af611cfa565b6040516103bc91906151ce565b60405180910390f35b6103df60048036038101906103da9190615062565b611d20565b005b3480156103ed57600080fd5b5061040860048036038101906104039190614c6b565b611f05565b60405161041591906152cf565b60405180910390f35b34801561042a57600080fd5b5061044560048036038101906104409190614e73565b611f4e565b005b610461600480360381019061045c9190614ec2565b6125f6565b005b34801561046f57600080fd5b5061048a60048036038101906104859190614de5565b61293c565b005b34801561049857600080fd5b506104b360048036038101906104ae9190614de5565b612a68565b005b3480156104c157600080fd5b506104dc60048036038101906104d79190614e73565b612b86565b005b3480156104ea57600080fd5b506104f3613393565b60405161050091906151ce565b60405180910390f35b34801561051557600080fd5b50610530600480360381019061052b9190614e37565b6133b9565b005b34801561053e57600080fd5b5061055960048036038101906105549190614c6b565b613841565b60405161056691906152cf565b60405180910390f35b34801561057b57600080fd5b5061059660048036038101906105919190614da4565b613859565b6040516105a3919061528d565b60405180910390f35b3480156105b857600080fd5b506105c1613863565b6040516105ce91906152cf565b60405180910390f35b3480156105e357600080fd5b506105ec613869565b6040516105f991906151ce565b60405180910390f35b34801561060e57600080fd5b5061062960048036038101906106249190614e73565b61388d565b005b60008211801561063d57506127108211155b61064657600080fd5b6000610650613b6e565b73ffffffffffffffffffffffffffffffffffffffff16637b0e5c456040518163ffffffff1660e01b815260040160206040518083038186803b15801561069557600080fd5b505afa1580156106a9573d6000803e3d6000fd5b505050506040513d601f19601f820116820180604052508101906106cd9190614c94565b73ffffffffffffffffffffffffffffffffffffffff1663714270ab846106f1613b6e565b73ffffffffffffffffffffffffffffffffffffffff1663b99b0a0c6040518163ffffffff1660e01b815260040160206040518083038186803b15801561073657600080fd5b505afa15801561074a573d6000803e3d6000fd5b505050506040513d601f19601f8201168201806040525081019061076e9190614c94565b73ffffffffffffffffffffffffffffffffffffffff1663bbe4f6db866040518263ffffffff1660e01b81526004016107a691906151ce565b60206040518083038186803b1580156107be57600080fd5b505afa1580156107d2573d6000803e3d6000fd5b505050506040513d601f19601f820116820180604052508101906107f69190614c94565b73ffffffffffffffffffffffffffffffffffffffff166370a08231336040518263ffffffff1660e01b815260040161082e91906151ce565b60206040518083038186803b15801561084657600080fd5b505afa15801561085a573d6000803e3d6000fd5b505050506040513d601f19601f8201168201806040525081019061087e9190614e0e565b6040518363ffffffff1660e01b815260040161089b929190615313565b60206040518083038186803b1580156108b357600080fd5b505afa1580156108c7573d6000803e3d6000fd5b505050506040513d601f19601f820116820180604052508101906108eb9190614e0e565b90506108f781836133b9565b505050565b6000600960008373ffffffffffffffffffffffffffffffffffffffff1673ffffffffffffffffffffffffffffffffffffffff168152602001908152602001600020549050919050565b610951838383336125f6565b505050565b8073ffffffffffffffffffffffffffffffffffffffff168273ffffffffffffffffffffffffffffffffffffffff16141561098f57600080fd5b60008173ffffffffffffffffffffffffffffffffffffffff1663484920316040518163ffffffff1660e01b815260040160206040518083038186803b1580156109d757600080fd5b505afa1580156109eb573d6000803e3d6000fd5b505050506040513d601f19601f82011682018060405250810190610a0f9190614c94565b90506000610a1b613b6e565b73ffffffffffffffffffffffffffffffffffffffff1663b99b0a0c6040518163ffffffff1660e01b815260040160206040518083038186803b158015610a6057600080fd5b505afa158015610a74573d6000803e3d6000fd5b505050506040513d601f19601f82011682018060405250810190610a989190614c94565b73ffffffffffffffffffffffffffffffffffffffff1663bbe4f6db836040518263ffffffff1660e01b8152600401610ad091906151ce565b60206040518083038186803b158015610ae857600080fd5b505afa158015610afc573d6000803e3d6000fd5b505050506040513d601f19601f82011682018060405250810190610b209190614c94565b905060008054906101000a900473ffffffffffffffffffffffffffffffffffffffff1673ffffffffffffffffffffffffffffffffffffffff168473ffffffffffffffffffffffffffffffffffffffff1614610cdc57610b80858530611af3565b5060008054906101000a900473ffffffffffffffffffffffffffffffffffffffff1673ffffffffffffffffffffffffffffffffffffffff1663a9059cbb8260008054906101000a900473ffffffffffffffffffffffffffffffffffffffff1673ffffffffffffffffffffffffffffffffffffffff166370a08231306040518263ffffffff1660e01b8152600401610c1791906151ce565b60206040518083038186803b158015610c2f57600080fd5b505afa158015610c43573d6000803e3d6000fd5b505050506040513d601f19601f82011682018060405250810190610c679190614e0e565b6040518363ffffffff1660e01b8152600401610c84929190615249565b602060405180830381600087803b158015610c9e57600080fd5b505af1158015610cb2573d6000803e3d6000fd5b505050506040513d601f19601f82011682018060405250810190610cd69190614cbd565b50610d8d565b60008054906101000a900473ffffffffffffffffffffffffffffffffffffffff1673ffffffffffffffffffffffffffffffffffffffff166323b872dd3383886040518463ffffffff1660e01b8152600401610d3993929190615212565b602060405180830381600087803b158015610d5357600080fd5b505af1158015610d67573d6000803e3d6000fd5b505050506040513d601f19601f82011682018060405250810190610d8b9190614cbd565b505b60008173ffffffffffffffffffffffffffffffffffffffff16635c53738685336040518363ffffffff1660e01b8152600401610dca9291906151e9565b6040805180830381600087803b158015610de357600080fd5b505af1158015610df7573d6000803e3d6000fd5b505050506040513d601f19601f82011682018060405250810190610e1b9190614fd7565b915050610e288282613c14565b505050505050565b60008411610e3d57600080fd5b6000610e47613b6e565b73ffffffffffffffffffffffffffffffffffffffff1663b99b0a0c6040518163ffffffff1660e01b815260040160206040518083038186803b158015610e8c57600080fd5b505afa158015610ea0573d6000803e3d6000fd5b505050506040513d601f19601f82011682018060405250810190610ec49190614c94565b73ffffffffffffffffffffffffffffffffffffffff1663bbe4f6db846040518263ffffffff1660e01b8152600401610efc91906151ce565b60206040518083038186803b158015610f1457600080fd5b505afa158015610f28573d6000803e3d6000fd5b505050506040513d601f19601f82011682018060405250810190610f4c9190614c94565b90506000839050600073ffffffffffffffffffffffffffffffffffffffff168473ffffffffffffffffffffffffffffffffffffffff161415610fae57600160009054906101000a900473ffffffffffffffffffffffffffffffffffffffff1690505b841561107157610fdf60008054906101000a900473ffffffffffffffffffffffffffffffffffffffff168784613d45565b508173ffffffffffffffffffffffffffffffffffffffff166386d5f618846040518263ffffffff1660e01b815260040161101991906151ce565b602060405180830381600087803b15801561103357600080fd5b505af1158015611047573d6000803e3d6000fd5b505050506040513d601f19601f8201168201806040525081019061106b9190614e0e565b5061110a565b61107c848784613d45565b508173ffffffffffffffffffffffffffffffffffffffff166386d5f618846040518263ffffffff1660e01b81526004016110b691906151ce565b602060405180830381600087803b1580156110d057600080fd5b505af11580156110e4573d6000803e3d6000fd5b505050506040513d601f19601f820116820180604052508101906111089190614e0e565b505b505050505050565b600060028260405161112491906151a2565b602060405180830381855afa158015611141573d6000803e3d6000fd5b5050506040513d601f19601f820116820180604052508101906111649190614ce6565b60028460405161117491906151a2565b602060405180830381855afa158015611191573d6000803e3d6000fd5b5050506040513d601f19601f820116820180604052508101906111b49190614ce6565b14156111c357600190506111c4565b5b92915050565b600a6020528060005260406000206000915090505481565b6111ea613b6e565b73ffffffffffffffffffffffffffffffffffffffff166398fabd3a6040518163ffffffff1660e01b815260040160206040518083038186803b15801561122f57600080fd5b505afa158015611243573d6000803e3d6000fd5b505050506040513d601f19601f820116820180604052508101906112679190614c94565b73ffffffffffffffffffffffffffffffffffffffff163373ffffffffffffffffffffffffffffffffffffffff1614806112ed5750600260009054906101000a900473ffffffffffffffffffffffffffffffffffffffff1673ffffffffffffffffffffffffffffffffffffffff163373ffffffffffffffffffffffffffffffffffffffff16145b6112f657600080fd5b8060038190555050565b600061130a613b6e565b73ffffffffffffffffffffffffffffffffffffffff1663b99b0a0c6040518163ffffffff1660e01b815260040160206040518083038186803b15801561134f57600080fd5b505afa158015611363573d6000803e3d6000fd5b505050506040513d601f19601f820116820180604052508101906113879190614c94565b73ffffffffffffffffffffffffffffffffffffffff1663bbe4f6db836040518263ffffffff1660e01b81526004016113bf91906151ce565b60206040518083038186803b1580156113d757600080fd5b505afa1580156113eb573d6000803e3d6000fd5b505050506040513d601f19601f8201168201806040525081019061140f9190614c94565b90506001151561141d613b6e565b73ffffffffffffffffffffffffffffffffffffffff1663b99b0a0c6040518163ffffffff1660e01b815260040160206040518083038186803b15801561146257600080fd5b505afa158015611476573d6000803e3d6000fd5b505050506040513d601f19601f8201168201806040525081019061149a9190614c94565b73ffffffffffffffffffffffffffffffffffffffff16635b16ebb7836040518263ffffffff1660e01b81526004016114d291906151ce565b602060405180830381600087803b1580156114ec57600080fd5b505af1158015611500573d6000803e3d6000fd5b505050506040513d601f19601f820116820180604052508101906115249190614cbd565b15151461153057600080fd5b60003390508173ffffffffffffffffffffffffffffffffffffffff166323b872dd8284886040518463ffffffff1660e01b815260040161157293929190615212565b602060405180830381600087803b15801561158c57600080fd5b505af11580156115a0573d6000803e3d6000fd5b505050506040513d601f19601f820116820180604052508101906115c49190614cbd565b508173ffffffffffffffffffffffffffffffffffffffff1663a7f437796040518163ffffffff1660e01b81526004016040805180830381600087803b15801561160c57600080fd5b505af1158015611620573d6000803e3d6000fd5b505050506040513d601f19601f820116820180604052508101906116449190614fd7565b50506000839050600073ffffffffffffffffffffffffffffffffffffffff168473ffffffffffffffffffffffffffffffffffffffff1614156116a657600160009054906101000a900473ffffffffffffffffffffffffffffffffffffffff1690505b8415611875578073ffffffffffffffffffffffffffffffffffffffff1663a9059cbb848373ffffffffffffffffffffffffffffffffffffffff166370a08231306040518263ffffffff1660e01b815260040161170291906151ce565b60206040518083038186803b15801561171a57600080fd5b505afa15801561172e573d6000803e3d6000fd5b505050506040513d601f19601f820116820180604052508101906117529190614e0e565b6040518363ffffffff1660e01b815260040161176f929190615249565b602060405180830381600087803b15801561178957600080fd5b505af115801561179d573d6000803e3d6000fd5b505050506040513d601f19601f820116820180604052508101906117c19190614cbd565b508273ffffffffffffffffffffffffffffffffffffffff16632783e4a960008054906101000a900473ffffffffffffffffffffffffffffffffffffffff16846040518363ffffffff1660e01b815260040161181d9291906151e9565b6040805180830381600087803b15801561183657600080fd5b505af115801561184a573d6000803e3d6000fd5b505050506040513d601f19601f8201168201806040525081019061186e9190614fd7565b5050611aeb565b60008054906101000a900473ffffffffffffffffffffffffffffffffffffffff1673ffffffffffffffffffffffffffffffffffffffff1663a9059cbb8460008054906101000a900473ffffffffffffffffffffffffffffffffffffffff1673ffffffffffffffffffffffffffffffffffffffff166370a08231306040518263ffffffff1660e01b815260040161190b91906151ce565b60206040518083038186803b15801561192357600080fd5b505afa158015611937573d6000803e3d6000fd5b505050506040513d601f19601f8201168201806040525081019061195b9190614e0e565b6040518363ffffffff1660e01b8152600401611978929190615249565b602060405180830381600087803b15801561199257600080fd5b505af11580156119a6573d6000803e3d6000fd5b505050506040513d601f19601f820116820180604052508101906119ca9190614cbd565b508273ffffffffffffffffffffffffffffffffffffffff166303438dd0826040518263ffffffff1660e01b8152600401611a0491906151ce565b6040805180830381600087803b158015611a1d57600080fd5b505af1158015611a31573d6000803e3d6000fd5b505050506040513d601f19601f82011682018060405250810190611a559190614fd7565b5050611aea848273ffffffffffffffffffffffffffffffffffffffff166370a08231306040518263ffffffff1660e01b8152600401611a9491906151ce565b60206040518083038186803b158015611aac57600080fd5b505afa158015611ac0573d6000803e3d6000fd5b505050506040513d601f19601f82011682018060405250810190611ae49190614e0e565b846140d4565b5b505050505050565b600080611afe613b6e565b73ffffffffffffffffffffffffffffffffffffffff1663b99b0a0c6040518163ffffffff1660e01b815260040160206040518083038186803b158015611b4357600080fd5b505afa158015611b57573d6000803e3d6000fd5b505050506040513d601f19601f82011682018060405250810190611b7b9190614c94565b73ffffffffffffffffffffffffffffffffffffffff1663bbe4f6db856040518263ffffffff1660e01b8152600401611bb391906151ce565b60206040518083038186803b158015611bcb57600080fd5b505afa158015611bdf573d6000803e3d6000fd5b505050506040513d601f19601f82011682018060405250810190611c039190614c94565b9050611c10848683613d45565b5060008173ffffffffffffffffffffffffffffffffffffffff16632783e4a960008054906101000a900473ffffffffffffffffffffffffffffffffffffffff16866040518363ffffffff1660e01b8152600401611c6e9291906151e9565b6040805180830381600087803b158015611c8757600080fd5b505af1158015611c9b573d6000803e3d6000fd5b505050506040513d601f19601f82011682018060405250810190611cbf9190614fd7565b915050611ccc8282613c14565b80925050509392505050565b611ce483838333610e30565b505050565b611cf583838333611d20565b505050565b600160009054906101000a900473ffffffffffffffffffffffffffffffffffffffff1681565b6000611d2a613b6e565b73ffffffffffffffffffffffffffffffffffffffff1663b99b0a0c6040518163ffffffff1660e01b815260040160206040518083038186803b158015611d6f57600080fd5b505afa158015611d83573d6000803e3d6000fd5b505050506040513d601f19601f82011682018060405250810190611da79190614c94565b73ffffffffffffffffffffffffffffffffffffffff1663bbe4f6db846040518263ffffffff1660e01b8152600401611ddf91906151ce565b60206040518083038186803b158015611df757600080fd5b505afa158015611e0b573d6000803e3d6000fd5b505050506040513d601f19601f82011682018060405250810190611e2f9190614c94565b9050611e3a816142e6565b611e6560008054906101000a900473ffffffffffffffffffffffffffffffffffffffff168683613d45565b50611e71838583613d45565b508073ffffffffffffffffffffffffffffffffffffffff166386d5f618836040518263ffffffff1660e01b8152600401611eab91906151ce565b602060405180830381600087803b158015611ec557600080fd5b505af1158015611ed9573d6000803e3d6000fd5b505050506040513d601f19601f82011682018060405250810190611efd9190614e0e565b505050505050565b6000600a60008373ffffffffffffffffffffffffffffffffffffffff1673ffffffffffffffffffffffffffffffffffffffff168152602001908152602001600020549050919050565b8073ffffffffffffffffffffffffffffffffffffffff168273ffffffffffffffffffffffffffffffffffffffff161415611f8757600080fd5b60008273ffffffffffffffffffffffffffffffffffffffff1663484920316040518163ffffffff1660e01b815260040160206040518083038186803b158015611fcf57600080fd5b505afa158015611fe3573d6000803e3d6000fd5b505050506040513d601f19601f820116820180604052508101906120079190614c94565b90506000612013613b6e565b73ffffffffffffffffffffffffffffffffffffffff1663b99b0a0c6040518163ffffffff1660e01b815260040160206040518083038186803b15801561205857600080fd5b505afa15801561206c573d6000803e3d6000fd5b505050506040513d601f19601f820116820180604052508101906120909190614c94565b73ffffffffffffffffffffffffffffffffffffffff1663bbe4f6db836040518263ffffffff1660e01b81526004016120c891906151ce565b60206040518083038186803b1580156120e057600080fd5b505afa1580156120f4573d6000803e3d6000fd5b505050506040513d601f19601f820116820180604052508101906121189190614c94565b90506000612124613b6e565b73ffffffffffffffffffffffffffffffffffffffff1663b99b0a0c6040518163ffffffff1660e01b815260040160206040518083038186803b15801561216957600080fd5b505afa15801561217d573d6000803e3d6000fd5b505050506040513d601f19601f820116820180604052508101906121a19190614c94565b73ffffffffffffffffffffffffffffffffffffffff1663bbe4f6db856040518263ffffffff1660e01b81526004016121d991906151ce565b60206040518083038186803b1580156121f157600080fd5b505afa158015612205573d6000803e3d6000fd5b505050506040513d601f19601f820116820180604052508101906122299190614c94565b90508473ffffffffffffffffffffffffffffffffffffffff166323b872dd3384896040518463ffffffff1660e01b815260040161226893929190615212565b602060405180830381600087803b15801561228257600080fd5b505af1158015612296573d6000803e3d6000fd5b505050506040513d601f19601f820116820180604052508101906122ba9190614cbd565b5060008060008054906101000a900473ffffffffffffffffffffffffffffffffffffffff1673ffffffffffffffffffffffffffffffffffffffff168673ffffffffffffffffffffffffffffffffffffffff1614156123a5578373ffffffffffffffffffffffffffffffffffffffff16636aff945488336040518363ffffffff1660e01b815260040161234d9291906151e9565b6040805180830381600087803b15801561236657600080fd5b505af115801561237a573d6000803e3d6000fd5b505050506040513d601f19601f8201168201806040525081019061239e9190614fd7565b50506125e2565b8373ffffffffffffffffffffffffffffffffffffffff16636aff945488306040518363ffffffff1660e01b81526004016123e09291906151e9565b6040805180830381600087803b1580156123f957600080fd5b505af115801561240d573d6000803e3d6000fd5b505050506040513d601f19601f820116820180604052508101906124319190614fd7565b8092508193505050600073ffffffffffffffffffffffffffffffffffffffff168673ffffffffffffffffffffffffffffffffffffffff16146125125760008373ffffffffffffffffffffffffffffffffffffffff16632783e4a988336040518363ffffffff1660e01b81526004016124aa9291906151e9565b6040805180830381600087803b1580156124c357600080fd5b505af11580156124d7573d6000803e3d6000fd5b505050506040513d601f19601f820116820180604052508101906124fb9190614fd7565b915050818161250a91906153fb565b9150506125e1565b6000808473ffffffffffffffffffffffffffffffffffffffff166303438dd0600160009054906101000a900473ffffffffffffffffffffffffffffffffffffffff166040518263ffffffff1660e01b815260040161257091906151ce565b6040805180830381600087803b15801561258957600080fd5b505af115801561259d573d6000803e3d6000fd5b505050506040513d601f19601f820116820180604052508101906125c19190614fd7565b915091506125d08883336140d4565b82816125dc91906153fb565b925050505b5b6125ec8382613c14565b5050505050505050565b8173ffffffffffffffffffffffffffffffffffffffff168373ffffffffffffffffffffffffffffffffffffffff16141561262f57600080fd5b60008054906101000a900473ffffffffffffffffffffffffffffffffffffffff1673ffffffffffffffffffffffffffffffffffffffff168373ffffffffffffffffffffffffffffffffffffffff1614156126935761268e84838361388d565b612936565b60008054906101000a900473ffffffffffffffffffffffffffffffffffffffff1673ffffffffffffffffffffffffffffffffffffffff168273ffffffffffffffffffffffffffffffffffffffff1614156126f8576126f2848483611af3565b50612935565b6000612702613b6e565b73ffffffffffffffffffffffffffffffffffffffff1663b99b0a0c6040518163ffffffff1660e01b815260040160206040518083038186803b15801561274757600080fd5b505afa15801561275b573d6000803e3d6000fd5b505050506040513d601f19601f8201168201806040525081019061277f9190614c94565b73ffffffffffffffffffffffffffffffffffffffff1663bbe4f6db846040518263ffffffff1660e01b81526004016127b791906151ce565b60206040518083038186803b1580156127cf57600080fd5b505afa1580156127e3573d6000803e3d6000fd5b505050506040513d601f19601f820116820180604052508101906128079190614c94565b90506000612816868684611af3565b90506000849050600073ffffffffffffffffffffffffffffffffffffffff168573ffffffffffffffffffffffffffffffffffffffff16141561287857600160009054906101000a900473ffffffffffffffffffffffffffffffffffffffff1690505b6000808473ffffffffffffffffffffffffffffffffffffffff166303438dd0846040518263ffffffff1660e01b81526004016128b491906151ce565b6040805180830381600087803b1580156128cd57600080fd5b505af11580156128e1573d6000803e3d6000fd5b505050506040513d601f19601f820116820180604052508101906129059190614fd7565b915091506000818561291791906153fb565b90506129238682613c14565b61292e8884896140d4565b5050505050505b5b50505050565b612944613b6e565b73ffffffffffffffffffffffffffffffffffffffff166398fabd3a6040518163ffffffff1660e01b815260040160206040518083038186803b15801561298957600080fd5b505afa15801561299d573d6000803e3d6000fd5b505050506040513d601f19601f820116820180604052508101906129c19190614c94565b73ffffffffffffffffffffffffffffffffffffffff163373ffffffffffffffffffffffffffffffffffffffff161480612a475750600260009054906101000a900473ffffffffffffffffffffffffffffffffffffffff1673ffffffffffffffffffffffffffffffffffffffff163373ffffffffffffffffffffffffffffffffffffffff16145b612a5057600080fd5b8060068190555060076000612a659190614ab5565b50565b612a70613b6e565b73ffffffffffffffffffffffffffffffffffffffff166398fabd3a6040518163ffffffff1660e01b815260040160206040518083038186803b158015612ab557600080fd5b505afa158015612ac9573d6000803e3d6000fd5b505050506040513d601f19601f82011682018060405250810190612aed9190614c94565b73ffffffffffffffffffffffffffffffffffffffff163373ffffffffffffffffffffffffffffffffffffffff161480612b735750600260009054906101000a900473ffffffffffffffffffffffffffffffffffffffff1673ffffffffffffffffffffffffffffffffffffffff163373ffffffffffffffffffffffffffffffffffffffff16145b612b7c57600080fd5b8060048190555050565b60011515612b92613b6e565b73ffffffffffffffffffffffffffffffffffffffff1663b99b0a0c6040518163ffffffff1660e01b815260040160206040518083038186803b158015612bd757600080fd5b505afa158015612beb573d6000803e3d6000fd5b505050506040513d601f19601f82011682018060405250810190612c0f9190614c94565b73ffffffffffffffffffffffffffffffffffffffff16635b16ebb7846040518263ffffffff1660e01b8152600401612c4791906151ce565b602060405180830381600087803b158015612c6157600080fd5b505af1158015612c75573d6000803e3d6000fd5b505050506040513d601f19601f82011682018060405250810190612c999190614cbd565b151514612ca557600080fd5b60011515612cb1613b6e565b73ffffffffffffffffffffffffffffffffffffffff1663b99b0a0c6040518163ffffffff1660e01b815260040160206040518083038186803b158015612cf657600080fd5b505afa158015612d0a573d6000803e3d6000fd5b505050506040513d601f19601f82011682018060405250810190612d2e9190614c94565b73ffffffffffffffffffffffffffffffffffffffff16635b16ebb7836040518263ffffffff1660e01b8152600401612d6691906151ce565b602060405180830381600087803b158015612d8057600080fd5b505af1158015612d94573d6000803e3d6000fd5b505050506040513d601f19601f82011682018060405250810190612db89190614cbd565b151514612dc457600080fd5b60008273ffffffffffffffffffffffffffffffffffffffff166382bfefc86040518163ffffffff1660e01b815260040160206040518083038186803b158015612e0c57600080fd5b505afa158015612e20573d6000803e3d6000fd5b505050506040513d601f19601f82011682018060405250810190612e449190614c94565b905060003390508373ffffffffffffffffffffffffffffffffffffffff166318160ddd6040518163ffffffff1660e01b815260040160206040518083038186803b158015612e9157600080fd5b505afa158015612ea5573d6000803e3d6000fd5b505050506040513d601f19601f82011682018060405250810190612ec99190614e0e565b851115612ed557600080fd5b8373ffffffffffffffffffffffffffffffffffffffff166323b872dd8286886040518463ffffffff1660e01b8152600401612f1293929190615212565b602060405180830381600087803b158015612f2c57600080fd5b505af1158015612f40573d6000803e3d6000fd5b505050506040513d601f19601f82011682018060405250810190612f649190614cbd565b508373ffffffffffffffffffffffffffffffffffffffff1663a7f437796040518163ffffffff1660e01b81526004016040805180830381600087803b158015612fac57600080fd5b505af1158015612fc0573d6000803e3d6000fd5b505050506040513d601f19601f82011682018060405250810190612fe49190614fd7565b50508173ffffffffffffffffffffffffffffffffffffffff1663a9059cbb858473ffffffffffffffffffffffffffffffffffffffff166370a08231306040518263ffffffff1660e01b815260040161303c91906151ce565b60206040518083038186803b15801561305457600080fd5b505afa158015613068573d6000803e3d6000fd5b505050506040513d601f19601f8201168201806040525081019061308c9190614e0e565b6040518363ffffffff1660e01b81526004016130a9929190615249565b602060405180830381600087803b1580156130c357600080fd5b505af11580156130d7573d6000803e3d6000fd5b505050506040513d601f19601f820116820180604052508101906130fb9190614cbd565b508373ffffffffffffffffffffffffffffffffffffffff16632783e4a960008054906101000a900473ffffffffffffffffffffffffffffffffffffffff16856040518363ffffffff1660e01b81526004016131579291906151e9565b6040805180830381600087803b15801561317057600080fd5b505af1158015613184573d6000803e3d6000fd5b505050506040513d601f19601f820116820180604052508101906131a89190614fd7565b505060008054906101000a900473ffffffffffffffffffffffffffffffffffffffff1673ffffffffffffffffffffffffffffffffffffffff1663a9059cbb8460008054906101000a900473ffffffffffffffffffffffffffffffffffffffff1673ffffffffffffffffffffffffffffffffffffffff166370a08231306040518263ffffffff1660e01b815260040161324091906151ce565b60206040518083038186803b15801561325857600080fd5b505afa15801561326c573d6000803e3d6000fd5b505050506040513d601f19601f820116820180604052508101906132909190614e0e565b6040518363ffffffff1660e01b81526004016132ad929190615249565b602060405180830381600087803b1580156132c757600080fd5b505af11580156132db573d6000803e3d6000fd5b505050506040513d601f19601f820116820180604052508101906132ff9190614cbd565b508273ffffffffffffffffffffffffffffffffffffffff166386d5f618826040518263ffffffff1660e01b815260040161333991906151ce565b602060405180830381600087803b15801561335357600080fd5b505af1158015613367573d6000803e3d6000fd5b505050506040513d601f19601f8201168201806040525081019061338b9190614e0e565b505050505050565b600260009054906101000a900473ffffffffffffffffffffffffffffffffffffffff1681565b60006133c3613b6e565b73ffffffffffffffffffffffffffffffffffffffff1663b99b0a0c6040518163ffffffff1660e01b815260040160206040518083038186803b15801561340857600080fd5b505afa15801561341c573d6000803e3d6000fd5b505050506040513d601f19601f820116820180604052508101906134409190614c94565b73ffffffffffffffffffffffffffffffffffffffff1663bbe4f6db836040518263ffffffff1660e01b815260040161347891906151ce565b60206040518083038186803b15801561349057600080fd5b505afa1580156134a4573d6000803e3d6000fd5b505050506040513d601f19601f820116820180604052508101906134c89190614c94565b905060003390508173ffffffffffffffffffffffffffffffffffffffff166323b872dd8284876040518463ffffffff1660e01b815260040161350c93929190615212565b602060405180830381600087803b15801561352657600080fd5b505af115801561353a573d6000803e3d6000fd5b505050506040513d601f19601f8201168201806040525081019061355e9190614cbd565b50600073ffffffffffffffffffffffffffffffffffffffff168373ffffffffffffffffffffffffffffffffffffffff1614613624578173ffffffffffffffffffffffffffffffffffffffff1663bc5dedc9826040518263ffffffff1660e01b81526004016135cc91906151ce565b6040805180830381600087803b1580156135e557600080fd5b505af11580156135f9573d6000803e3d6000fd5b505050506040513d601f19601f8201168201806040525081019061361d9190614fd7565b505061383b565b8173ffffffffffffffffffffffffffffffffffffffff1663a7f437796040518163ffffffff1660e01b81526004016040805180830381600087803b15801561366b57600080fd5b505af115801561367f573d6000803e3d6000fd5b505050506040513d601f19601f820116820180604052508101906136a39190614fd7565b505060008060009054906101000a900473ffffffffffffffffffffffffffffffffffffffff1673ffffffffffffffffffffffffffffffffffffffff166370a08231306040518263ffffffff1660e01b815260040161370191906151ce565b60206040518083038186803b15801561371957600080fd5b505afa15801561372d573d6000803e3d6000fd5b505050506040513d601f19601f820116820180604052508101906137519190614e0e565b90506000600160009054906101000a900473ffffffffffffffffffffffffffffffffffffffff1673ffffffffffffffffffffffffffffffffffffffff166370a08231306040518263ffffffff1660e01b81526004016137b091906151ce565b60206040518083038186803b1580156137c857600080fd5b505afa1580156137dc573d6000803e3d6000fd5b505050506040513d601f19601f820116820180604052508101906138009190614e0e565b905061380d8582856140d4565b61383860008054906101000a900473ffffffffffffffffffffffffffffffffffffffff1683856140d4565b50505b50505050565b60096020528060005260406000206000915090505481565b6060819050919050565b60055481565b60008054906101000a900473ffffffffffffffffffffffffffffffffffffffff1681565b6000613897613b6e565b73ffffffffffffffffffffffffffffffffffffffff1663b99b0a0c6040518163ffffffff1660e01b815260040160206040518083038186803b1580156138dc57600080fd5b505afa1580156138f0573d6000803e3d6000fd5b505050506040513d601f19601f820116820180604052508101906139149190614c94565b73ffffffffffffffffffffffffffffffffffffffff1663bbe4f6db846040518263ffffffff1660e01b815260040161394c91906151ce565b60206040518083038186803b15801561396457600080fd5b505afa158015613978573d6000803e3d6000fd5b505050506040513d601f19601f8201168201806040525081019061399c9190614c94565b90506139c960008054906101000a900473ffffffffffffffffffffffffffffffffffffffff168583613d45565b5060008073ffffffffffffffffffffffffffffffffffffffff168473ffffffffffffffffffffffffffffffffffffffff1614613a995760008273ffffffffffffffffffffffffffffffffffffffff16632783e4a986866040518363ffffffff1660e01b8152600401613a3c9291906151e9565b6040805180830381600087803b158015613a5557600080fd5b505af1158015613a69573d6000803e3d6000fd5b505050506040513d601f19601f82011682018060405250810190613a8d9190614fd7565b91505080915050613b5d565b6000808373ffffffffffffffffffffffffffffffffffffffff166303438dd0600160009054906101000a900473ffffffffffffffffffffffffffffffffffffffff166040518263ffffffff1660e01b8152600401613af791906151ce565b6040805180830381600087803b158015613b1057600080fd5b505af1158015613b24573d6000803e3d6000fd5b505050506040513d601f19601f82011682018060405250810190613b489190614fd7565b91509150613b578683876140d4565b80925050505b613b678282613c14565b5050505050565b60008060009054906101000a900473ffffffffffffffffffffffffffffffffffffffff1673ffffffffffffffffffffffffffffffffffffffff166398fabd3a6040518163ffffffff1660e01b815260040160206040518083038186803b158015613bd757600080fd5b505afa158015613beb573d6000803e3d6000fd5b505050506040513d601f19601f82011682018060405250810190613c0f9190614d7b565b905090565b60011515613c20613b6e565b73ffffffffffffffffffffffffffffffffffffffff1663b99b0a0c6040518163ffffffff1660e01b815260040160206040518083038186803b158015613c6557600080fd5b505afa158015613c79573d6000803e3d6000fd5b505050506040513d601f19601f82011682018060405250810190613c9d9190614c94565b73ffffffffffffffffffffffffffffffffffffffff16638dcb4c93846040518263ffffffff1660e01b8152600401613cd591906151ce565b60206040518083038186803b158015613ced57600080fd5b505afa158015613d01573d6000803e3d6000fd5b505050506040513d601f19601f82011682018060405250810190613d259190614cbd565b15151415613d4157613d368161437f565b613d408282614458565b5b5050565b6000808311156140cd57600073ffffffffffffffffffffffffffffffffffffffff168473ffffffffffffffffffffffffffffffffffffffff161415613f1757348314613d9057600080fd5b6000600160009054906101000a900473ffffffffffffffffffffffffffffffffffffffff1673ffffffffffffffffffffffffffffffffffffffff1684604051613dd8906151b9565b60006040518083038185875af1925050503d8060008114613e15576040519150601f19603f3d011682016040523d82523d6000602084013e613e1a565b606091505b5050905080613e5e576040517f08c379a0000000000000000000000000000000000000000000000000000000008152600401613e55906152af565b60405180910390fd5b600160009054906101000a900473ffffffffffffffffffffffffffffffffffffffff1673ffffffffffffffffffffffffffffffffffffffff1663a9059cbb84866040518363ffffffff1660e01b8152600401613ebb929190615249565b602060405180830381600087803b158015613ed557600080fd5b505af1158015613ee9573d6000803e3d6000fd5b505050506040513d601f19601f82011682018060405250810190613f0d9190614cbd565b50839150506140cc565b60008473ffffffffffffffffffffffffffffffffffffffff166370a08231846040518263ffffffff1660e01b8152600401613f5291906151ce565b60206040518083038186803b158015613f6a57600080fd5b505afa158015613f7e573d6000803e3d6000fd5b505050506040513d601f19601f82011682018060405250810190613fa29190614e0e565b90508473ffffffffffffffffffffffffffffffffffffffff166323b872dd3385876040518463ffffffff1660e01b8152600401613fe193929190615212565b602060405180830381600087803b158015613ffb57600080fd5b505af115801561400f573d6000803e3d6000fd5b505050506040513d601f19601f820116820180604052508101906140339190614cbd565b50808573ffffffffffffffffffffffffffffffffffffffff166370a08231856040518263ffffffff1660e01b815260040161406e91906151ce565b60206040518083038186803b15801561408657600080fd5b505afa15801561409a573d6000803e3d6000fd5b505050506040513d601f19601f820116820180604052508101906140be9190614e0e565b6140c891906154dc565b9150505b5b9392505050565b60008211156142e157600073ffffffffffffffffffffffffffffffffffffffff168373ffffffffffffffffffffffffffffffffffffffff16141561425157600160009054906101000a900473ffffffffffffffffffffffffffffffffffffffff1673ffffffffffffffffffffffffffffffffffffffff16632e1a7d4d836040518263ffffffff1660e01b815260040161416d91906152cf565b600060405180830381600087803b15801561418757600080fd5b505af115801561419b573d6000803e3d6000fd5b5050505060008173ffffffffffffffffffffffffffffffffffffffff16836040516141c5906151b9565b60006040518083038185875af1925050503d8060008114614202576040519150601f19603f3d011682016040523d82523d6000602084013e614207565b606091505b505090508061424b576040517f08c379a0000000000000000000000000000000000000000000000000000000008152600401614242906152af565b60405180910390fd5b506142e0565b8273ffffffffffffffffffffffffffffffffffffffff1663a9059cbb82846040518363ffffffff1660e01b815260040161428c929190615249565b602060405180830381600087803b1580156142a657600080fd5b505af11580156142ba573d6000803e3d6000fd5b505050506040513d601f19601f820116820180604052508101906142de9190614cbd565b505b5b505050565b61437c816040516024016142fa91906151ce565b6040516020818303038152906040527f2c2ecbc2000000000000000000000000000000000000000000000000000000007bffffffffffffffffffffffffffffffffffffffffffffffffffffffff19166020820180517bffffffffffffffffffffffffffffffffffffffffffffffffffffffff838183161783525050505061474d565b50565b60008060078054905090506006548110156143c257600783908060018154018082558091505060019003906000526020600020016000909190919091505561443f565b6143cb83614776565b60005b60065481101561443d5760078181548110614412577f4e487b7100000000000000000000000000000000000000000000000000000000600052603260045260246000fd5b90600052602060002001548361442891906153fb565b9250808061443590615611565b9150506143ce565b505b6006548261444d9190615451565b600581905550505050565b6000600554146147495760008060009054906101000a900473ffffffffffffffffffffffffffffffffffffffff1673ffffffffffffffffffffffffffffffffffffffff166370a082316144a9613b6e565b73ffffffffffffffffffffffffffffffffffffffff16639d2cc4366040518163ffffffff1660e01b815260040160206040518083038186803b1580156144ee57600080fd5b505afa158015614502573d6000803e3d6000fd5b505050506040513d601f19601f820116820180604052508101906145269190614c94565b6040518263ffffffff1660e01b815260040161454291906151ce565b60206040518083038186803b15801561455a57600080fd5b505afa15801561456e573d6000803e3d6000fd5b505050506040513d601f19601f820116820180604052508101906145929190614e0e565b905060008114614747576000600354600454836145af9190615451565b6145b99190615451565b9050600081846145c99190615482565b90506000600554856145db91906153fb565b826145e69190615451565b90506145f28187614896565b6145fa613b6e565b73ffffffffffffffffffffffffffffffffffffffff16639d2cc4366040518163ffffffff1660e01b815260040160206040518083038186803b15801561463f57600080fd5b505afa158015614653573d6000803e3d6000fd5b505050506040513d601f19601f820116820180604052508101906146779190614c94565b73ffffffffffffffffffffffffffffffffffffffff16637d458baa82886040518363ffffffff1660e01b81526004016146b19291906152ea565b600060405180830381600087803b1580156146cb57600080fd5b505af11580156146df573d6000803e3d6000fd5b505050508573ffffffffffffffffffffffffffffffffffffffff1663fff6cae96040518163ffffffff1660e01b8152600401600060405180830381600087803b15801561472b57600080fd5b505af115801561473f573d6000803e3d6000fd5b505050505050505b505b5050565b60008151905060006a636f6e736f6c652e6c6f679050602083016000808483855afa5050505050565b60006007805490509050600060018261478f91906154dc565b90505b60008111156148475760076001826147aa91906154dc565b815481106147e1577f4e487b7100000000000000000000000000000000000000000000000000000000600052603260045260246000fd5b906000526020600020015460078281548110614826577f4e487b7100000000000000000000000000000000000000000000000000000000600052603260045260246000fd5b9060005260206000200181905550808061483f906155b6565b915050614792565b50816007600081548110614884577f4e487b7100000000000000000000000000000000000000000000000000000000600052603260045260246000fd5b90600052602060002001819055505050565b600060085414156148a957426008819055505b62278d006008546148ba91906153fb565b42116149535781600960008373ffffffffffffffffffffffffffffffffffffffff1673ffffffffffffffffffffffffffffffffffffffff1681526020019081526020016000205461490b91906153fb565b600960008373ffffffffffffffffffffffffffffffffffffffff1673ffffffffffffffffffffffffffffffffffffffff16815260200190815260200160002081905550614ab1565b42600881905550600960008273ffffffffffffffffffffffffffffffffffffffff1673ffffffffffffffffffffffffffffffffffffffff16815260200190815260200160002054600a60008373ffffffffffffffffffffffffffffffffffffffff1673ffffffffffffffffffffffffffffffffffffffff168152602001908152602001600020819055506000600960008373ffffffffffffffffffffffffffffffffffffffff1673ffffffffffffffffffffffffffffffffffffffff1681526020019081526020016000208190555081600960008373ffffffffffffffffffffffffffffffffffffffff1673ffffffffffffffffffffffffffffffffffffffff16815260200190815260200160002054614a6d91906153fb565b600960008373ffffffffffffffffffffffffffffffffffffffff1673ffffffffffffffffffffffffffffffffffffffff168152602001908152602001600020819055505b5050565b5080546000825590600052602060002090810190614ad39190614ad6565b50565b5b80821115614aef576000816000905550600101614ad7565b5090565b6000614b06614b0184615361565b61533c565b905082815260208101848484011115614b1e57600080fd5b614b29848285615574565b509392505050565b6000614b44614b3f84615392565b61533c565b905082815260208101848484011115614b5c57600080fd5b614b67848285615574565b509392505050565b600081359050614b7e81615724565b92915050565b600081519050614b9381615724565b92915050565b600081359050614ba88161573b565b92915050565b600081519050614bbd8161573b565b92915050565b600081519050614bd281615752565b92915050565b600082601f830112614be957600080fd5b8135614bf9848260208601614af3565b91505092915050565b600081519050614c1181615769565b92915050565b600082601f830112614c2857600080fd5b8135614c38848260208601614b31565b91505092915050565b600081359050614c5081615780565b92915050565b600081519050614c6581615780565b92915050565b600060208284031215614c7d57600080fd5b6000614c8b84828501614b6f565b91505092915050565b600060208284031215614ca657600080fd5b6000614cb484828501614b84565b91505092915050565b600060208284031215614ccf57600080fd5b6000614cdd84828501614bae565b91505092915050565b600060208284031215614cf857600080fd5b6000614d0684828501614bc3565b91505092915050565b60008060408385031215614d2257600080fd5b600083013567ffffffffffffffff811115614d3c57600080fd5b614d4885828601614bd8565b925050602083013567ffffffffffffffff811115614d6557600080fd5b614d7185828601614bd8565b9150509250929050565b600060208284031215614d8d57600080fd5b6000614d9b84828501614c02565b91505092915050565b600060208284031215614db657600080fd5b600082013567ffffffffffffffff811115614dd057600080fd5b614ddc84828501614c17565b91505092915050565b600060208284031215614df757600080fd5b6000614e0584828501614c41565b91505092915050565b600060208284031215614e2057600080fd5b6000614e2e84828501614c56565b91505092915050565b60008060408385031215614e4a57600080fd5b6000614e5885828601614c41565b9250506020614e6985828601614b6f565b9150509250929050565b600080600060608486031215614e8857600080fd5b6000614e9686828701614c41565b9350506020614ea786828701614b6f565b9250506040614eb886828701614b6f565b9150509250925092565b60008060008060808587031215614ed857600080fd5b6000614ee687828801614c41565b9450506020614ef787828801614b6f565b9350506040614f0887828801614b6f565b9250506060614f1987828801614b6f565b91505092959194509250565b600080600060608486031215614f3a57600080fd5b6000614f4886828701614c41565b9350506020614f5986828701614b99565b9250506040614f6a86828701614b6f565b9150509250925092565b60008060008060808587031215614f8a57600080fd5b6000614f9887828801614c41565b9450506020614fa987828801614b99565b9350506040614fba87828801614b6f565b9250506060614fcb87828801614b6f565b91505092959194509250565b60008060408385031215614fea57600080fd5b6000614ff885828601614c56565b925050602061500985828601614c56565b9150509250929050565b60008060006060848603121561502857600080fd5b600061503686828701614c41565b935050602061504786828701614c41565b925050604061505886828701614b6f565b9150509250925092565b6000806000806080858703121561507857600080fd5b600061508687828801614c41565b945050602061509787828801614c41565b93505060406150a887828801614b6f565b92505060606150b987828801614b6f565b91505092959194509250565b6150ce81615510565b82525050565b6150dd81615522565b82525050565b60006150ee826153c3565b6150f881856153ce565b9350615108818560208601615583565b615111816156e7565b840191505092915050565b6000615127826153c3565b61513181856153df565b9350615141818560208601615583565b80840191505092915050565b600061515a6005836153ea565b9150615165826156f8565b602082019050919050565b600061517d6000836153df565b915061518882615721565b600082019050919050565b61519c8161556a565b82525050565b60006151ae828461511c565b915081905092915050565b60006151c482615170565b9150819050919050565b60006020820190506151e360008301846150c5565b92915050565b60006040820190506151fe60008301856150c5565b61520b60208301846150c5565b9392505050565b600060608201905061522760008301866150c5565b61523460208301856150c5565b6152416040830184615193565b949350505050565b600060408201905061525e60008301856150c5565b61526b6020830184615193565b9392505050565b600060208201905061528760008301846150d4565b92915050565b600060208201905081810360008301526152a781846150e3565b905092915050565b600060208201905081810360008301526152c88161514d565b9050919050565b60006020820190506152e46000830184615193565b92915050565b60006040820190506152ff6000830185615193565b61530c60208301846150c5565b9392505050565b60006040820190506153286000830185615193565b6153356020830184615193565b9392505050565b6000615346615357565b905061535282826155e0565b919050565b6000604051905090565b600067ffffffffffffffff82111561537c5761537b6156b8565b5b615385826156e7565b9050602081019050919050565b600067ffffffffffffffff8211156153ad576153ac6156b8565b5b6153b6826156e7565b9050602081019050919050565b600081519050919050565b600082825260208201905092915050565b600081905092915050565b600082825260208201905092915050565b60006154068261556a565b91506154118361556a565b9250827fffffffffffffffffffffffffffffffffffffffffffffffffffffffffffffffff038211156154465761544561565a565b5b828201905092915050565b600061545c8261556a565b91506154678361556a565b92508261547757615476615689565b5b828204905092915050565b600061548d8261556a565b91506154988361556a565b9250817fffffffffffffffffffffffffffffffffffffffffffffffffffffffffffffffff04831182151516156154d1576154d061565a565b5b828202905092915050565b60006154e78261556a565b91506154f28361556a565b9250828210156155055761550461565a565b5b828203905092915050565b600061551b8261554a565b9050919050565b60008115159050919050565b6000819050919050565b600061554382615510565b9050919050565b600073ffffffffffffffffffffffffffffffffffffffff82169050919050565b6000819050919050565b82818337600083830152505050565b60005b838110156155a1578082015181840152602081019050615586565b838111156155b0576000848401525b50505050565b60006155c18261556a565b915060008214156155d5576155d461565a565b5b600182039050919050565b6155e9826156e7565b810181811067ffffffffffffffff82111715615608576156076156b8565b5b80604052505050565b600061561c8261556a565b91507fffffffffffffffffffffffffffffffffffffffffffffffffffffffffffffffff82141561564f5761564e61565a565b5b600182019050919050565b7f4e487b7100000000000000000000000000000000000000000000000000000000600052601160045260246000fd5b7f4e487b7100000000000000000000000000000000000000000000000000000000600052601260045260246000fd5b7f4e487b7100000000000000000000000000000000000000000000000000000000600052604160045260246000fd5b6000601f19601f8301169050919050565b7f2173656e64000000000000000000000000000000000000000000000000000000600082015250565b50565b61572d81615510565b811461573857600080fd5b50565b61574481615522565b811461574f57600080fd5b50565b61575b8161552e565b811461576657600080fd5b50565b61577281615538565b811461577d57600080fd5b50565b6157898161556a565b811461579457600080fd5b5056fea2646970667358221220d05e9ebefe5e6eeaac3d1b7e81adfcc722e9e9ae6dea41d5e8d68d52909242d664736f6c63430008030033",
  "linkReferences": {},
  "deployedLinkReferences": {}
}