{
  "_format": "hh-sol-artifact-1",
  "contractName": "Router",
  "sourceName": "contracts/Router.sol",
  "abi": [
    {
      "inputs": [
        {
          "internalType": "address",
          "name": "_base",
          "type": "address"
        },
        {
          "internalType": "address",
          "name": "_wbnb",
          "type": "address"
        }
      ],
      "stateMutability": "nonpayable",
      "type": "constructor"
    },
    {
      "inputs": [],
      "name": "BASE",
      "outputs": [
        {
          "internalType": "address",
          "name": "",
          "type": "address"
        }
      ],
      "stateMutability": "view",
      "type": "function"
    },
    {
      "inputs": [],
      "name": "DEPLOYER",
      "outputs": [
        {
          "internalType": "address",
          "name": "",
          "type": "address"
        }
      ],
      "stateMutability": "view",
      "type": "function"
    },
    {
      "inputs": [],
      "name": "WBNB",
      "outputs": [
        {
          "internalType": "address",
          "name": "",
          "type": "address"
        }
      ],
      "stateMutability": "view",
      "type": "function"
    },
    {
      "inputs": [
        {
          "internalType": "uint256",
          "name": "inputBase",
          "type": "uint256"
        },
        {
          "internalType": "uint256",
          "name": "inputToken",
          "type": "uint256"
        },
        {
          "internalType": "address",
          "name": "token",
          "type": "address"
        }
      ],
      "name": "addLiquidity",
      "outputs": [
        {
          "internalType": "uint256",
          "name": "units",
          "type": "uint256"
        }
      ],
      "stateMutability": "payable",
      "type": "function"
    },
    {
      "inputs": [
        {
          "internalType": "uint256",
          "name": "inputBase",
          "type": "uint256"
        },
        {
          "internalType": "uint256",
          "name": "inputToken",
          "type": "uint256"
        },
        {
          "internalType": "address",
          "name": "token",
          "type": "address"
        },
        {
          "internalType": "address",
          "name": "member",
          "type": "address"
        }
      ],
      "name": "addLiquidityForMember",
      "outputs": [
        {
          "internalType": "uint256",
          "name": "units",
          "type": "uint256"
        }
      ],
      "stateMutability": "payable",
      "type": "function"
    },
    {
      "inputs": [
        {
          "internalType": "uint256",
          "name": "inputToken",
          "type": "uint256"
        },
        {
          "internalType": "bool",
          "name": "fromBase",
          "type": "bool"
        },
        {
          "internalType": "address",
          "name": "token",
          "type": "address"
        }
      ],
      "name": "addLiquiditySingle",
      "outputs": [
        {
          "internalType": "uint256",
          "name": "units",
          "type": "uint256"
        }
      ],
      "stateMutability": "payable",
      "type": "function"
    },
    {
      "inputs": [
        {
          "internalType": "uint256",
          "name": "inputToken",
          "type": "uint256"
        },
        {
          "internalType": "bool",
          "name": "fromBase",
          "type": "bool"
        },
        {
          "internalType": "address",
          "name": "token",
          "type": "address"
        },
        {
          "internalType": "address",
          "name": "member",
          "type": "address"
        }
      ],
      "name": "addLiquiditySingleForMember",
      "outputs": [
        {
          "internalType": "uint256",
          "name": "units",
          "type": "uint256"
        }
      ],
      "stateMutability": "payable",
      "type": "function"
    },
    {
      "inputs": [
        {
          "internalType": "uint256",
          "name": "amount",
          "type": "uint256"
        },
        {
          "internalType": "address",
          "name": "token",
          "type": "address"
        },
        {
          "internalType": "address",
          "name": "member",
          "type": "address"
        }
      ],
      "name": "buyTo",
      "outputs": [
        {
          "internalType": "uint256",
          "name": "",
          "type": "uint256"
        }
      ],
      "stateMutability": "nonpayable",
      "type": "function"
    },
    {
      "inputs": [
        {
          "internalType": "uint256",
          "name": "_size",
          "type": "uint256"
        }
      ],
      "name": "changeArrayFeeSize",
      "outputs": [],
      "stateMutability": "nonpayable",
      "type": "function"
    },
    {
      "inputs": [
        {
          "internalType": "uint256",
          "name": "_eraLength",
          "type": "uint256"
        }
      ],
      "name": "changeEraLength",
      "outputs": [],
      "stateMutability": "nonpayable",
      "type": "function"
    },
    {
      "inputs": [
        {
          "internalType": "uint256",
          "name": "_maxtrades",
          "type": "uint256"
        }
      ],
      "name": "changeMaxTrades",
      "outputs": [],
      "stateMutability": "nonpayable",
      "type": "function"
    },
    {
      "inputs": [
        {
          "internalType": "address",
          "name": "pool",
          "type": "address"
        }
      ],
      "name": "currentPoolRevenue",
      "outputs": [
        {
          "internalType": "uint256",
          "name": "",
          "type": "uint256"
        }
      ],
      "stateMutability": "view",
      "type": "function"
    },
    {
      "inputs": [
        {
          "internalType": "uint256",
          "name": "",
          "type": "uint256"
        }
      ],
      "name": "feeArray",
      "outputs": [
        {
          "internalType": "uint256",
          "name": "",
          "type": "uint256"
        }
      ],
      "stateMutability": "view",
      "type": "function"
    },
    {
      "inputs": [],
      "name": "feeLength",
      "outputs": [
        {
          "internalType": "uint256",
          "name": "",
          "type": "uint256"
        }
      ],
      "stateMutability": "view",
      "type": "function"
    },
    {
      "inputs": [
        {
          "internalType": "bytes",
          "name": "part1",
          "type": "bytes"
        },
        {
          "internalType": "bytes",
          "name": "part2",
          "type": "bytes"
        }
      ],
      "name": "isEqual",
      "outputs": [
        {
          "internalType": "bool",
          "name": "equal",
          "type": "bool"
        }
      ],
      "stateMutability": "pure",
      "type": "function"
    },
    {
      "inputs": [
        {
          "internalType": "address",
          "name": "",
          "type": "address"
        }
      ],
      "name": "mapAddress_30DayDividends",
      "outputs": [
        {
          "internalType": "uint256",
          "name": "",
          "type": "uint256"
        }
      ],
      "stateMutability": "view",
      "type": "function"
    },
    {
      "inputs": [
        {
          "internalType": "address",
          "name": "",
          "type": "address"
        }
      ],
      "name": "mapAddress_Past30DayPoolDividends",
      "outputs": [
        {
          "internalType": "uint256",
          "name": "",
          "type": "uint256"
        }
      ],
      "stateMutability": "view",
      "type": "function"
    },
    {
      "inputs": [],
      "name": "normalAverageFee",
      "outputs": [
        {
          "internalType": "uint256",
          "name": "",
          "type": "uint256"
        }
      ],
      "stateMutability": "view",
      "type": "function"
    },
    {
      "inputs": [
        {
          "internalType": "address",
          "name": "pool",
          "type": "address"
        }
      ],
      "name": "pastPoolRevenue",
      "outputs": [
        {
          "internalType": "uint256",
          "name": "",
          "type": "uint256"
        }
      ],
      "stateMutability": "view",
      "type": "function"
    },
    {
      "inputs": [
        {
          "internalType": "uint256",
          "name": "basisPoints",
          "type": "uint256"
        },
        {
          "internalType": "address",
          "name": "token",
          "type": "address"
        }
      ],
      "name": "removeLiquidity",
      "outputs": [
        {
          "internalType": "uint256",
          "name": "outputBase",
          "type": "uint256"
        },
        {
          "internalType": "uint256",
          "name": "outputToken",
          "type": "uint256"
        }
      ],
      "stateMutability": "nonpayable",
      "type": "function"
    },
    {
      "inputs": [
        {
          "internalType": "uint256",
          "name": "units",
          "type": "uint256"
        },
        {
          "internalType": "address",
          "name": "token",
          "type": "address"
        }
      ],
      "name": "removeLiquidityExact",
      "outputs": [
        {
          "internalType": "uint256",
          "name": "outputBase",
          "type": "uint256"
        },
        {
          "internalType": "uint256",
          "name": "outputToken",
          "type": "uint256"
        }
      ],
      "stateMutability": "nonpayable",
      "type": "function"
    },
    {
      "inputs": [
        {
          "internalType": "uint256",
          "name": "units",
          "type": "uint256"
        },
        {
          "internalType": "bool",
          "name": "toBase",
          "type": "bool"
        },
        {
          "internalType": "address",
          "name": "token",
          "type": "address"
        }
      ],
      "name": "removeLiquiditySingle",
      "outputs": [
        {
          "internalType": "uint256",
          "name": "fee",
          "type": "uint256"
        }
      ],
      "stateMutability": "nonpayable",
      "type": "function"
    },
    {
      "inputs": [
        {
          "internalType": "uint256",
          "name": "amount",
          "type": "uint256"
        },
        {
          "internalType": "address",
          "name": "token",
          "type": "address"
        },
        {
          "internalType": "address",
          "name": "member",
          "type": "address"
        }
      ],
      "name": "sellTo",
      "outputs": [
        {
          "internalType": "uint256",
          "name": "",
          "type": "uint256"
        }
      ],
      "stateMutability": "payable",
      "type": "function"
    },
    {
      "inputs": [
        {
          "internalType": "string",
          "name": "s",
          "type": "string"
        }
      ],
      "name": "stringToBytes",
      "outputs": [
        {
          "internalType": "bytes",
          "name": "",
          "type": "bytes"
        }
      ],
      "stateMutability": "pure",
      "type": "function"
    },
    {
      "inputs": [
        {
          "internalType": "uint256",
          "name": "inputAmount",
          "type": "uint256"
        },
        {
          "internalType": "address",
          "name": "fromToken",
          "type": "address"
        },
        {
          "internalType": "address",
          "name": "toToken",
          "type": "address"
        }
      ],
      "name": "swap",
      "outputs": [],
      "stateMutability": "payable",
      "type": "function"
    },
    {
      "inputs": [
        {
          "internalType": "uint256",
          "name": "inputAmount",
          "type": "uint256"
        },
        {
          "internalType": "address",
          "name": "fromToken",
          "type": "address"
        },
        {
          "internalType": "address",
          "name": "toSynth",
          "type": "address"
        }
      ],
      "name": "swapAssetToSynth",
      "outputs": [
        {
          "internalType": "uint256",
          "name": "outputSynth",
          "type": "uint256"
        },
        {
          "internalType": "uint256",
          "name": "fee",
          "type": "uint256"
        }
      ],
      "stateMutability": "payable",
      "type": "function"
    },
    {
      "inputs": [
        {
          "internalType": "uint256",
          "name": "inputAmount",
          "type": "uint256"
        },
        {
          "internalType": "address",
          "name": "fromSynth",
          "type": "address"
        },
        {
          "internalType": "address",
          "name": "toToken",
          "type": "address"
        }
      ],
      "name": "swapSynthToAsset",
      "outputs": [
        {
          "internalType": "uint256",
          "name": "outputAmount",
          "type": "uint256"
        },
        {
          "internalType": "uint256",
          "name": "fee",
          "type": "uint256"
        }
      ],
      "stateMutability": "nonpayable",
      "type": "function"
    },
    {
      "inputs": [
        {
          "internalType": "uint256",
          "name": "inputAmount",
          "type": "uint256"
        },
        {
          "internalType": "address",
          "name": "fromToken",
          "type": "address"
        },
        {
          "internalType": "address",
          "name": "toToken",
          "type": "address"
        },
        {
          "internalType": "address",
          "name": "member",
          "type": "address"
        }
      ],
      "name": "swapTo",
      "outputs": [],
      "stateMutability": "payable",
      "type": "function"
    },
    {
      "inputs": [
        {
          "internalType": "uint256",
          "name": "unitsInput",
          "type": "uint256"
        },
        {
          "internalType": "address",
          "name": "fromPool",
          "type": "address"
        },
        {
          "internalType": "address",
          "name": "toPool",
          "type": "address"
        }
      ],
      "name": "zapLiquidity",
      "outputs": [
        {
          "internalType": "uint256",
          "name": "unitsOutput",
          "type": "uint256"
        }
      ],
      "stateMutability": "nonpayable",
      "type": "function"
    },
    {
      "stateMutability": "payable",
      "type": "receive"
    }
  ],
  "bytecode": "0x60806040523480156200001157600080fd5b5060405162005a2838038062005a28833981810160405281019062000037919062000138565b816000806101000a81548173ffffffffffffffffffffffffffffffffffffffff021916908373ffffffffffffffffffffffffffffffffffffffff16021790555080600160006101000a81548173ffffffffffffffffffffffffffffffffffffffff021916908373ffffffffffffffffffffffffffffffffffffffff1602179055506014600681905550601e6004819055506064600381905550600060088190555033600260006101000a81548173ffffffffffffffffffffffffffffffffffffffff021916908373ffffffffffffffffffffffffffffffffffffffff1602179055505050620001c7565b6000815190506200013281620001ad565b92915050565b600080604083850312156200014c57600080fd5b60006200015c8582860162000121565b92505060206200016f8582860162000121565b9150509250929050565b600062000186826200018d565b9050919050565b600073ffffffffffffffffffffffffffffffffffffffff82169050919050565b620001b88162000179565b8114620001c457600080fd5b50565b61585180620001d76000396000f3fe6080604052600436106101c65760003560e01c80639921c266116100f7578063b45e1dbc11610095578063e106fb4b11610064578063e106fb4b146106c9578063eb11611114610706578063ec342ad014610731578063ecf3ef921461075c576101cd565b8063b45e1dbc146105e6578063c1b8411a14610623578063c8c1fb751461064e578063cbb3a14a1461068c576101cd565b8063a578409c116100d1578063a578409c1461054d578063ab1485ec14610578578063ab87d7be14610594578063b02d247a146105bd576101cd565b80639921c266146104955780639d5d46b5146104d2578063a1cd6aa51461050f576101cd565b8063519fc9c9116101645780636d54435d1161013e5780636d54435d146103da57806387b21efc1461040a5780638dd950021461043a57806393cac68514610465576101cd565b8063519fc9c91461034457806352e5c5c71461036d57806369ab0a8e146103aa576101cd565b80633173ec3c116101a05780633173ec3c14610269578063331813ee1461029a57806334359808146102ca578063451918db14610307576101cd565b806305fe138b146101d25780632ac27482146102105780632b7f09231461024d576101cd565b366101cd57005b600080fd5b3480156101de57600080fd5b506101f960048036038101906101f49190614ebb565b610799565b604051610207929190615397565b60405180910390f35b34801561021c57600080fd5b5061023760048036038101906102329190614cef565b610a74565b6040516102449190615353565b60405180910390f35b61026760048036038101906102629190614ef7565b610abd565b005b610283600480360381019061027e9190614ef7565b610ace565b604051610291929190615397565b60405180910390f35b6102b460048036038101906102af9190614ff8565b610fb0565b6040516102c19190615353565b60405180910390f35b3480156102d657600080fd5b506102f160048036038101906102ec9190614d93565b611297565b6040516102fe91906152f6565b60405180910390f35b34801561031357600080fd5b5061032e60048036038101906103299190614cef565b61134f565b60405161033b9190615353565b60405180910390f35b34801561035057600080fd5b5061036b60048036038101906103669190614e69565b611367565b005b34801561037957600080fd5b50610394600480360381019061038f9190614fa9565b611485565b6040516103a19190615353565b60405180910390f35b6103c460048036038101906103bf9190614ef7565b611c5c565b6040516103d19190615353565b60405180910390f35b6103f460048036038101906103ef9190614fa9565b611e41565b6040516104019190615353565b60405180910390f35b610424600480360381019061041f9190615097565b611e58565b6040516104319190615353565b60405180910390f35b34801561044657600080fd5b5061044f611e6f565b60405161045c9190615252565b60405180910390f35b61047f600480360381019061047a91906150e6565b611e95565b60405161048c9190615353565b60405180910390f35b3480156104a157600080fd5b506104bc60048036038101906104b79190614cef565b612075565b6040516104c99190615353565b60405180910390f35b3480156104de57600080fd5b506104f960048036038101906104f49190614e69565b6120be565b6040516105069190615353565b60405180910390f35b34801561051b57600080fd5b5061053660048036038101906105319190614ef7565b6120e2565b604051610544929190615397565b60405180910390f35b34801561055957600080fd5b50610562612836565b60405161056f9190615353565b60405180910390f35b610592600480360381019061058d9190614f46565b612843565b005b3480156105a057600080fd5b506105bb60048036038101906105b69190614e69565b612b8a565b005b3480156105c957600080fd5b506105e460048036038101906105df9190614e69565b612cb6565b005b3480156105f257600080fd5b5061060d60048036038101906106089190614ef7565b612dd4565b60405161061a9190615353565b60405180910390f35b34801561062f57600080fd5b50610638613562565b6040516106459190615252565b60405180910390f35b34801561065a57600080fd5b5061067560048036038101906106709190614ebb565b613588565b604051610683929190615397565b60405180910390f35b34801561069857600080fd5b506106b360048036038101906106ae9190614cef565b613966565b6040516106c09190615353565b60405180910390f35b3480156106d557600080fd5b506106f060048036038101906106eb9190614e28565b61397e565b6040516106fd9190615311565b60405180910390f35b34801561071257600080fd5b5061071b613988565b6040516107289190615353565b60405180910390f35b34801561073d57600080fd5b5061074661398e565b6040516107539190615252565b60405180910390f35b34801561076857600080fd5b50610783600480360381019061077e9190614ef7565b6139b2565b6040516107909190615353565b60405180910390f35b6000806000841180156107ae57506127108411155b6107b757600080fd5b60006107c1613c04565b73ffffffffffffffffffffffffffffffffffffffff16637b0e5c456040518163ffffffff1660e01b815260040160206040518083038186803b15801561080657600080fd5b505afa15801561081a573d6000803e3d6000fd5b505050506040513d601f19601f8201168201806040525081019061083e9190614d18565b73ffffffffffffffffffffffffffffffffffffffff1663714270ab86610862613c04565b73ffffffffffffffffffffffffffffffffffffffff1663b99b0a0c6040518163ffffffff1660e01b815260040160206040518083038186803b1580156108a757600080fd5b505afa1580156108bb573d6000803e3d6000fd5b505050506040513d601f19601f820116820180604052508101906108df9190614d18565b73ffffffffffffffffffffffffffffffffffffffff1663bbe4f6db886040518263ffffffff1660e01b81526004016109179190615252565b60206040518083038186803b15801561092f57600080fd5b505afa158015610943573d6000803e3d6000fd5b505050506040513d601f19601f820116820180604052508101906109679190614d18565b73ffffffffffffffffffffffffffffffffffffffff166370a08231336040518263ffffffff1660e01b815260040161099f9190615252565b60206040518083038186803b1580156109b757600080fd5b505afa1580156109cb573d6000803e3d6000fd5b505050506040513d601f19601f820116820180604052508101906109ef9190614e92565b6040518363ffffffff1660e01b8152600401610a0c929190615397565b60206040518083038186803b158015610a2457600080fd5b505afa158015610a38573d6000803e3d6000fd5b505050506040513d601f19601f82011682018060405250810190610a5c9190614e92565b9050610a688185613588565b92509250509250929050565b6000600960008373ffffffffffffffffffffffffffffffffffffffff1673ffffffffffffffffffffffffffffffffffffffff168152602001908152602001600020549050919050565b610ac983838333612843565b505050565b6000808273ffffffffffffffffffffffffffffffffffffffff168473ffffffffffffffffffffffffffffffffffffffff161415610b0a57600080fd5b60008373ffffffffffffffffffffffffffffffffffffffff1663484920316040518163ffffffff1660e01b815260040160206040518083038186803b158015610b5257600080fd5b505afa158015610b66573d6000803e3d6000fd5b505050506040513d601f19601f82011682018060405250810190610b8a9190614d18565b90506000610b96613c04565b73ffffffffffffffffffffffffffffffffffffffff1663b99b0a0c6040518163ffffffff1660e01b815260040160206040518083038186803b158015610bdb57600080fd5b505afa158015610bef573d6000803e3d6000fd5b505050506040513d601f19601f82011682018060405250810190610c139190614d18565b73ffffffffffffffffffffffffffffffffffffffff1663bbe4f6db836040518263ffffffff1660e01b8152600401610c4b9190615252565b60206040518083038186803b158015610c6357600080fd5b505afa158015610c77573d6000803e3d6000fd5b505050506040513d601f19601f82011682018060405250810190610c9b9190614d18565b905060008054906101000a900473ffffffffffffffffffffffffffffffffffffffff1673ffffffffffffffffffffffffffffffffffffffff168673ffffffffffffffffffffffffffffffffffffffff1614610e5757610cfb878730611c5c565b5060008054906101000a900473ffffffffffffffffffffffffffffffffffffffff1673ffffffffffffffffffffffffffffffffffffffff1663a9059cbb8260008054906101000a900473ffffffffffffffffffffffffffffffffffffffff1673ffffffffffffffffffffffffffffffffffffffff166370a08231306040518263ffffffff1660e01b8152600401610d929190615252565b60206040518083038186803b158015610daa57600080fd5b505afa158015610dbe573d6000803e3d6000fd5b505050506040513d601f19601f82011682018060405250810190610de29190614e92565b6040518363ffffffff1660e01b8152600401610dff9291906152cd565b602060405180830381600087803b158015610e1957600080fd5b505af1158015610e2d573d6000803e3d6000fd5b505050506040513d601f19601f82011682018060405250810190610e519190614d41565b50610f08565b60008054906101000a900473ffffffffffffffffffffffffffffffffffffffff1673ffffffffffffffffffffffffffffffffffffffff166323b872dd33838a6040518463ffffffff1660e01b8152600401610eb493929190615296565b602060405180830381600087803b158015610ece57600080fd5b505af1158015610ee2573d6000803e3d6000fd5b505050506040513d601f19601f82011682018060405250810190610f069190614d41565b505b8073ffffffffffffffffffffffffffffffffffffffff16635c53738686336040518363ffffffff1660e01b8152600401610f4392919061526d565b6040805180830381600087803b158015610f5c57600080fd5b505af1158015610f70573d6000803e3d6000fd5b505050506040513d601f19601f82011682018060405250810190610f94919061505b565b8094508195505050610fa68184613caa565b5050935093915050565b6000808511610fbe57600080fd5b6000610fc8613c04565b73ffffffffffffffffffffffffffffffffffffffff1663b99b0a0c6040518163ffffffff1660e01b815260040160206040518083038186803b15801561100d57600080fd5b505afa158015611021573d6000803e3d6000fd5b505050506040513d601f19601f820116820180604052508101906110459190614d18565b73ffffffffffffffffffffffffffffffffffffffff1663bbe4f6db856040518263ffffffff1660e01b815260040161107d9190615252565b60206040518083038186803b15801561109557600080fd5b505afa1580156110a9573d6000803e3d6000fd5b505050506040513d601f19601f820116820180604052508101906110cd9190614d18565b90506000849050600073ffffffffffffffffffffffffffffffffffffffff168573ffffffffffffffffffffffffffffffffffffffff16141561112f57600160009054906101000a900473ffffffffffffffffffffffffffffffffffffffff1690505b85156111f35761116060008054906101000a900473ffffffffffffffffffffffffffffffffffffffff168884613ddb565b508173ffffffffffffffffffffffffffffffffffffffff166386d5f618856040518263ffffffff1660e01b815260040161119a9190615252565b602060405180830381600087803b1580156111b457600080fd5b505af11580156111c8573d6000803e3d6000fd5b505050506040513d601f19601f820116820180604052508101906111ec9190614e92565b925061128d565b6111fe858884613ddb565b508173ffffffffffffffffffffffffffffffffffffffff166386d5f618856040518263ffffffff1660e01b81526004016112389190615252565b602060405180830381600087803b15801561125257600080fd5b505af1158015611266573d6000803e3d6000fd5b505050506040513d601f19601f8201168201806040525081019061128a9190614e92565b92505b5050949350505050565b60006002826040516112a99190615226565b602060405180830381855afa1580156112c6573d6000803e3d6000fd5b5050506040513d601f19601f820116820180604052508101906112e99190614d6a565b6002846040516112f99190615226565b602060405180830381855afa158015611316573d6000803e3d6000fd5b5050506040513d601f19601f820116820180604052508101906113399190614d6a565b14156113485760019050611349565b5b92915050565b600a6020528060005260406000206000915090505481565b61136f613c04565b73ffffffffffffffffffffffffffffffffffffffff166398fabd3a6040518163ffffffff1660e01b815260040160206040518083038186803b1580156113b457600080fd5b505afa1580156113c8573d6000803e3d6000fd5b505050506040513d601f19601f820116820180604052508101906113ec9190614d18565b73ffffffffffffffffffffffffffffffffffffffff163373ffffffffffffffffffffffffffffffffffffffff1614806114725750600260009054906101000a900473ffffffffffffffffffffffffffffffffffffffff1673ffffffffffffffffffffffffffffffffffffffff163373ffffffffffffffffffffffffffffffffffffffff16145b61147b57600080fd5b8060038190555050565b600080611490613c04565b73ffffffffffffffffffffffffffffffffffffffff1663b99b0a0c6040518163ffffffff1660e01b815260040160206040518083038186803b1580156114d557600080fd5b505afa1580156114e9573d6000803e3d6000fd5b505050506040513d601f19601f8201168201806040525081019061150d9190614d18565b73ffffffffffffffffffffffffffffffffffffffff1663bbe4f6db846040518263ffffffff1660e01b81526004016115459190615252565b60206040518083038186803b15801561155d57600080fd5b505afa158015611571573d6000803e3d6000fd5b505050506040513d601f19601f820116820180604052508101906115959190614d18565b9050600115156115a3613c04565b73ffffffffffffffffffffffffffffffffffffffff1663b99b0a0c6040518163ffffffff1660e01b815260040160206040518083038186803b1580156115e857600080fd5b505afa1580156115fc573d6000803e3d6000fd5b505050506040513d601f19601f820116820180604052508101906116209190614d18565b73ffffffffffffffffffffffffffffffffffffffff16635b16ebb7836040518263ffffffff1660e01b81526004016116589190615252565b602060405180830381600087803b15801561167257600080fd5b505af1158015611686573d6000803e3d6000fd5b505050506040513d601f19601f820116820180604052508101906116aa9190614d41565b1515146116b657600080fd5b60003390508173ffffffffffffffffffffffffffffffffffffffff166323b872dd8284896040518463ffffffff1660e01b81526004016116f893929190615296565b602060405180830381600087803b15801561171257600080fd5b505af1158015611726573d6000803e3d6000fd5b505050506040513d601f19601f8201168201806040525081019061174a9190614d41565b5060008273ffffffffffffffffffffffffffffffffffffffff1663a7f437796040518163ffffffff1660e01b81526004016040805180830381600087803b15801561179457600080fd5b505af11580156117a8573d6000803e3d6000fd5b505050506040513d601f19601f820116820180604052508101906117cc919061505b565b9150506000859050600073ffffffffffffffffffffffffffffffffffffffff168673ffffffffffffffffffffffffffffffffffffffff16141561182f57600160009054906101000a900473ffffffffffffffffffffffffffffffffffffffff1690505b8615611a4e578073ffffffffffffffffffffffffffffffffffffffff1663a9059cbb85846040518363ffffffff1660e01b81526004016118709291906152cd565b602060405180830381600087803b15801561188a57600080fd5b505af115801561189e573d6000803e3d6000fd5b505050506040513d601f19601f820116820180604052508101906118c29190614d41565b5060008473ffffffffffffffffffffffffffffffffffffffff166303438dd060008054906101000a900473ffffffffffffffffffffffffffffffffffffffff166040518263ffffffff1660e01b815260040161191e9190615252565b6040805180830381600087803b15801561193757600080fd5b505af115801561194b573d6000803e3d6000fd5b505050506040513d601f19601f8201168201806040525081019061196f919061505b565b915050809550611a4860008054906101000a900473ffffffffffffffffffffffffffffffffffffffff1660008054906101000a900473ffffffffffffffffffffffffffffffffffffffff1673ffffffffffffffffffffffffffffffffffffffff166370a08231306040518263ffffffff1660e01b81526004016119f29190615252565b60206040518083038186803b158015611a0a57600080fd5b505afa158015611a1e573d6000803e3d6000fd5b505050506040513d601f19601f82011682018060405250810190611a429190614e92565b8661416a565b50611c51565b60008054906101000a900473ffffffffffffffffffffffffffffffffffffffff1673ffffffffffffffffffffffffffffffffffffffff1663a9059cbb8560008054906101000a900473ffffffffffffffffffffffffffffffffffffffff1673ffffffffffffffffffffffffffffffffffffffff166370a08231306040518263ffffffff1660e01b8152600401611ae49190615252565b60206040518083038186803b158015611afc57600080fd5b505afa158015611b10573d6000803e3d6000fd5b505050506040513d601f19601f82011682018060405250810190611b349190614e92565b6040518363ffffffff1660e01b8152600401611b519291906152cd565b602060405180830381600087803b158015611b6b57600080fd5b505af1158015611b7f573d6000803e3d6000fd5b505050506040513d601f19601f82011682018060405250810190611ba39190614d41565b506000808573ffffffffffffffffffffffffffffffffffffffff166303438dd0846040518263ffffffff1660e01b8152600401611be09190615252565b6040805180830381600087803b158015611bf957600080fd5b505af1158015611c0d573d6000803e3d6000fd5b505050506040513d601f19601f82011682018060405250810190611c31919061505b565b91509150809650611c4e888584611c48919061547f565b8761416a565b50505b505050509392505050565b600080611c67613c04565b73ffffffffffffffffffffffffffffffffffffffff1663b99b0a0c6040518163ffffffff1660e01b815260040160206040518083038186803b158015611cac57600080fd5b505afa158015611cc0573d6000803e3d6000fd5b505050506040513d601f19601f82011682018060405250810190611ce49190614d18565b73ffffffffffffffffffffffffffffffffffffffff1663bbe4f6db856040518263ffffffff1660e01b8152600401611d1c9190615252565b60206040518083038186803b158015611d3457600080fd5b505afa158015611d48573d6000803e3d6000fd5b505050506040513d601f19601f82011682018060405250810190611d6c9190614d18565b9050611d79848683613ddb565b5060008173ffffffffffffffffffffffffffffffffffffffff16632783e4a960008054906101000a900473ffffffffffffffffffffffffffffffffffffffff16866040518363ffffffff1660e01b8152600401611dd792919061526d565b6040805180830381600087803b158015611df057600080fd5b505af1158015611e04573d6000803e3d6000fd5b505050506040513d601f19601f82011682018060405250810190611e28919061505b565b915050611e358282613caa565b80925050509392505050565b6000611e4f84848433610fb0565b90509392505050565b6000611e6684848433611e95565b90509392505050565b600160009054906101000a900473ffffffffffffffffffffffffffffffffffffffff1681565b600080611ea0613c04565b73ffffffffffffffffffffffffffffffffffffffff1663b99b0a0c6040518163ffffffff1660e01b815260040160206040518083038186803b158015611ee557600080fd5b505afa158015611ef9573d6000803e3d6000fd5b505050506040513d601f19601f82011682018060405250810190611f1d9190614d18565b73ffffffffffffffffffffffffffffffffffffffff1663bbe4f6db856040518263ffffffff1660e01b8152600401611f559190615252565b60206040518083038186803b158015611f6d57600080fd5b505afa158015611f81573d6000803e3d6000fd5b505050506040513d601f19601f82011682018060405250810190611fa59190614d18565b9050611fd260008054906101000a900473ffffffffffffffffffffffffffffffffffffffff168783613ddb565b50611fde848683613ddb565b508073ffffffffffffffffffffffffffffffffffffffff166386d5f618846040518263ffffffff1660e01b81526004016120189190615252565b602060405180830381600087803b15801561203257600080fd5b505af1158015612046573d6000803e3d6000fd5b505050506040513d601f19601f8201168201806040525081019061206a9190614e92565b915050949350505050565b6000600a60008373ffffffffffffffffffffffffffffffffffffffff1673ffffffffffffffffffffffffffffffffffffffff168152602001908152602001600020549050919050565b600781815481106120ce57600080fd5b906000526020600020016000915090505481565b6000808273ffffffffffffffffffffffffffffffffffffffff168473ffffffffffffffffffffffffffffffffffffffff16141561211e57600080fd5b60008473ffffffffffffffffffffffffffffffffffffffff1663484920316040518163ffffffff1660e01b815260040160206040518083038186803b15801561216657600080fd5b505afa15801561217a573d6000803e3d6000fd5b505050506040513d601f19601f8201168201806040525081019061219e9190614d18565b905060006121aa613c04565b73ffffffffffffffffffffffffffffffffffffffff1663b99b0a0c6040518163ffffffff1660e01b815260040160206040518083038186803b1580156121ef57600080fd5b505afa158015612203573d6000803e3d6000fd5b505050506040513d601f19601f820116820180604052508101906122279190614d18565b73ffffffffffffffffffffffffffffffffffffffff1663bbe4f6db836040518263ffffffff1660e01b815260040161225f9190615252565b60206040518083038186803b15801561227757600080fd5b505afa15801561228b573d6000803e3d6000fd5b505050506040513d601f19601f820116820180604052508101906122af9190614d18565b90506000859050600073ffffffffffffffffffffffffffffffffffffffff168673ffffffffffffffffffffffffffffffffffffffff16141561231157600160009054906101000a900473ffffffffffffffffffffffffffffffffffffffff1690505b600061231b613c04565b73ffffffffffffffffffffffffffffffffffffffff1663b99b0a0c6040518163ffffffff1660e01b815260040160206040518083038186803b15801561236057600080fd5b505afa158015612374573d6000803e3d6000fd5b505050506040513d601f19601f820116820180604052508101906123989190614d18565b73ffffffffffffffffffffffffffffffffffffffff1663bbe4f6db836040518263ffffffff1660e01b81526004016123d09190615252565b60206040518083038186803b1580156123e857600080fd5b505afa1580156123fc573d6000803e3d6000fd5b505050506040513d601f19601f820116820180604052508101906124209190614d18565b90508773ffffffffffffffffffffffffffffffffffffffff166323b872dd33858c6040518463ffffffff1660e01b815260040161245f93929190615296565b602060405180830381600087803b15801561247957600080fd5b505af115801561248d573d6000803e3d6000fd5b505050506040513d601f19601f820116820180604052508101906124b19190614d41565b5060008054906101000a900473ffffffffffffffffffffffffffffffffffffffff1673ffffffffffffffffffffffffffffffffffffffff168273ffffffffffffffffffffffffffffffffffffffff161461278b578273ffffffffffffffffffffffffffffffffffffffff16636aff945489306040518363ffffffff1660e01b815260040161254092919061526d565b6040805180830381600087803b15801561255957600080fd5b505af115801561256d573d6000803e3d6000fd5b505050506040513d601f19601f82011682018060405250810190612591919061505b565b505060008054906101000a900473ffffffffffffffffffffffffffffffffffffffff1673ffffffffffffffffffffffffffffffffffffffff1663a9059cbb8260008054906101000a900473ffffffffffffffffffffffffffffffffffffffff1673ffffffffffffffffffffffffffffffffffffffff166370a08231306040518263ffffffff1660e01b81526004016126299190615252565b60206040518083038186803b15801561264157600080fd5b505afa158015612655573d6000803e3d6000fd5b505050506040513d601f19601f820116820180604052508101906126799190614e92565b6040518363ffffffff1660e01b81526004016126969291906152cd565b602060405180830381600087803b1580156126b057600080fd5b505af11580156126c4573d6000803e3d6000fd5b505050506040513d601f19601f820116820180604052508101906126e89190614d41565b508073ffffffffffffffffffffffffffffffffffffffff166303438dd0836040518263ffffffff1660e01b81526004016127229190615252565b6040805180830381600087803b15801561273b57600080fd5b505af115801561274f573d6000803e3d6000fd5b505050506040513d601f19601f82011682018060405250810190612773919061505b565b809650819750505061278687873361416a565b612820565b8273ffffffffffffffffffffffffffffffffffffffff16636aff945489336040518363ffffffff1660e01b81526004016127c692919061526d565b6040805180830381600087803b1580156127df57600080fd5b505af11580156127f3573d6000803e3d6000fd5b505050506040513d601f19601f82011682018060405250810190612817919061505b565b80965081975050505b61282a8186613caa565b50505050935093915050565b6000600780549050905090565b8173ffffffffffffffffffffffffffffffffffffffff168373ffffffffffffffffffffffffffffffffffffffff16141561287c57600080fd5b60008054906101000a900473ffffffffffffffffffffffffffffffffffffffff1673ffffffffffffffffffffffffffffffffffffffff168373ffffffffffffffffffffffffffffffffffffffff1614156128e1576128db8483836139b2565b50612b84565b60008054906101000a900473ffffffffffffffffffffffffffffffffffffffff1673ffffffffffffffffffffffffffffffffffffffff168273ffffffffffffffffffffffffffffffffffffffff16141561294657612940848483611c5c565b50612b83565b6000612950613c04565b73ffffffffffffffffffffffffffffffffffffffff1663b99b0a0c6040518163ffffffff1660e01b815260040160206040518083038186803b15801561299557600080fd5b505afa1580156129a9573d6000803e3d6000fd5b505050506040513d601f19601f820116820180604052508101906129cd9190614d18565b73ffffffffffffffffffffffffffffffffffffffff1663bbe4f6db846040518263ffffffff1660e01b8152600401612a059190615252565b60206040518083038186803b158015612a1d57600080fd5b505afa158015612a31573d6000803e3d6000fd5b505050506040513d601f19601f82011682018060405250810190612a559190614d18565b90506000612a64868684611c5c565b90506000849050600073ffffffffffffffffffffffffffffffffffffffff168573ffffffffffffffffffffffffffffffffffffffff161415612ac657600160009054906101000a900473ffffffffffffffffffffffffffffffffffffffff1690505b6000808473ffffffffffffffffffffffffffffffffffffffff166303438dd0846040518263ffffffff1660e01b8152600401612b029190615252565b6040805180830381600087803b158015612b1b57600080fd5b505af1158015612b2f573d6000803e3d6000fd5b505050506040513d601f19601f82011682018060405250810190612b53919061505b565b9150915060008185612b65919061547f565b9050612b718682613caa565b612b7c88848961416a565b5050505050505b5b50505050565b612b92613c04565b73ffffffffffffffffffffffffffffffffffffffff166398fabd3a6040518163ffffffff1660e01b815260040160206040518083038186803b158015612bd757600080fd5b505afa158015612beb573d6000803e3d6000fd5b505050506040513d601f19601f82011682018060405250810190612c0f9190614d18565b73ffffffffffffffffffffffffffffffffffffffff163373ffffffffffffffffffffffffffffffffffffffff161480612c955750600260009054906101000a900473ffffffffffffffffffffffffffffffffffffffff1673ffffffffffffffffffffffffffffffffffffffff163373ffffffffffffffffffffffffffffffffffffffff16145b612c9e57600080fd5b8060068190555060076000612cb39190614aec565b50565b612cbe613c04565b73ffffffffffffffffffffffffffffffffffffffff166398fabd3a6040518163ffffffff1660e01b815260040160206040518083038186803b158015612d0357600080fd5b505afa158015612d17573d6000803e3d6000fd5b505050506040513d601f19601f82011682018060405250810190612d3b9190614d18565b73ffffffffffffffffffffffffffffffffffffffff163373ffffffffffffffffffffffffffffffffffffffff161480612dc15750600260009054906101000a900473ffffffffffffffffffffffffffffffffffffffff1673ffffffffffffffffffffffffffffffffffffffff163373ffffffffffffffffffffffffffffffffffffffff16145b612dca57600080fd5b8060048190555050565b600060011515612de2613c04565b73ffffffffffffffffffffffffffffffffffffffff1663b99b0a0c6040518163ffffffff1660e01b815260040160206040518083038186803b158015612e2757600080fd5b505afa158015612e3b573d6000803e3d6000fd5b505050506040513d601f19601f82011682018060405250810190612e5f9190614d18565b73ffffffffffffffffffffffffffffffffffffffff16635b16ebb7856040518263ffffffff1660e01b8152600401612e979190615252565b602060405180830381600087803b158015612eb157600080fd5b505af1158015612ec5573d6000803e3d6000fd5b505050506040513d601f19601f82011682018060405250810190612ee99190614d41565b151514612ef557600080fd5b60011515612f01613c04565b73ffffffffffffffffffffffffffffffffffffffff1663b99b0a0c6040518163ffffffff1660e01b815260040160206040518083038186803b158015612f4657600080fd5b505afa158015612f5a573d6000803e3d6000fd5b505050506040513d601f19601f82011682018060405250810190612f7e9190614d18565b73ffffffffffffffffffffffffffffffffffffffff16635b16ebb7846040518263ffffffff1660e01b8152600401612fb69190615252565b602060405180830381600087803b158015612fd057600080fd5b505af1158015612fe4573d6000803e3d6000fd5b505050506040513d601f19601f820116820180604052508101906130089190614d41565b15151461301457600080fd5b60008373ffffffffffffffffffffffffffffffffffffffff166382bfefc86040518163ffffffff1660e01b815260040160206040518083038186803b15801561305c57600080fd5b505afa158015613070573d6000803e3d6000fd5b505050506040513d601f19601f820116820180604052508101906130949190614d18565b905060003390508473ffffffffffffffffffffffffffffffffffffffff166318160ddd6040518163ffffffff1660e01b815260040160206040518083038186803b1580156130e157600080fd5b505afa1580156130f5573d6000803e3d6000fd5b505050506040513d601f19601f820116820180604052508101906131199190614e92565b86111561312557600080fd5b8473ffffffffffffffffffffffffffffffffffffffff166323b872dd8287896040518463ffffffff1660e01b815260040161316293929190615296565b602060405180830381600087803b15801561317c57600080fd5b505af1158015613190573d6000803e3d6000fd5b505050506040513d601f19601f820116820180604052508101906131b49190614d41565b5060008573ffffffffffffffffffffffffffffffffffffffff1663a7f437796040518163ffffffff1660e01b81526004016040805180830381600087803b1580156131fe57600080fd5b505af1158015613212573d6000803e3d6000fd5b505050506040513d601f19601f82011682018060405250810190613236919061505b565b9150508273ffffffffffffffffffffffffffffffffffffffff1663a9059cbb87836040518363ffffffff1660e01b81526004016132749291906152cd565b602060405180830381600087803b15801561328e57600080fd5b505af11580156132a2573d6000803e3d6000fd5b505050506040513d601f19601f820116820180604052508101906132c69190614d41565b508573ffffffffffffffffffffffffffffffffffffffff16632783e4a960008054906101000a900473ffffffffffffffffffffffffffffffffffffffff16876040518363ffffffff1660e01b815260040161332292919061526d565b6040805180830381600087803b15801561333b57600080fd5b505af115801561334f573d6000803e3d6000fd5b505050506040513d601f19601f82011682018060405250810190613373919061505b565b505060008054906101000a900473ffffffffffffffffffffffffffffffffffffffff1673ffffffffffffffffffffffffffffffffffffffff1663a9059cbb8660008054906101000a900473ffffffffffffffffffffffffffffffffffffffff1673ffffffffffffffffffffffffffffffffffffffff166370a08231306040518263ffffffff1660e01b815260040161340b9190615252565b60206040518083038186803b15801561342357600080fd5b505afa158015613437573d6000803e3d6000fd5b505050506040513d601f19601f8201168201806040525081019061345b9190614e92565b6040518363ffffffff1660e01b81526004016134789291906152cd565b602060405180830381600087803b15801561349257600080fd5b505af11580156134a6573d6000803e3d6000fd5b505050506040513d601f19601f820116820180604052508101906134ca9190614d41565b508473ffffffffffffffffffffffffffffffffffffffff166386d5f618836040518263ffffffff1660e01b81526004016135049190615252565b602060405180830381600087803b15801561351e57600080fd5b505af1158015613532573d6000803e3d6000fd5b505050506040513d601f19601f820116820180604052508101906135569190614e92565b93505050509392505050565b600260009054906101000a900473ffffffffffffffffffffffffffffffffffffffff1681565b6000806000613595613c04565b73ffffffffffffffffffffffffffffffffffffffff1663b99b0a0c6040518163ffffffff1660e01b815260040160206040518083038186803b1580156135da57600080fd5b505afa1580156135ee573d6000803e3d6000fd5b505050506040513d601f19601f820116820180604052508101906136129190614d18565b73ffffffffffffffffffffffffffffffffffffffff1663bbe4f6db856040518263ffffffff1660e01b815260040161364a9190615252565b60206040518083038186803b15801561366257600080fd5b505afa158015613676573d6000803e3d6000fd5b505050506040513d601f19601f8201168201806040525081019061369a9190614d18565b905060003390508173ffffffffffffffffffffffffffffffffffffffff166323b872dd8284896040518463ffffffff1660e01b81526004016136de93929190615296565b602060405180830381600087803b1580156136f857600080fd5b505af115801561370c573d6000803e3d6000fd5b505050506040513d601f19601f820116820180604052508101906137309190614d41565b50600073ffffffffffffffffffffffffffffffffffffffff168573ffffffffffffffffffffffffffffffffffffffff16146137f6578173ffffffffffffffffffffffffffffffffffffffff1663bc5dedc9826040518263ffffffff1660e01b815260040161379e9190615252565b6040805180830381600087803b1580156137b757600080fd5b505af11580156137cb573d6000803e3d6000fd5b505050506040513d601f19601f820116820180604052508101906137ef919061505b565b505061395d565b8173ffffffffffffffffffffffffffffffffffffffff1663a7f437796040518163ffffffff1660e01b81526004016040805180830381600087803b15801561383d57600080fd5b505af1158015613851573d6000803e3d6000fd5b505050506040513d601f19601f82011682018060405250810190613875919061505b565b90508093505060008054906101000a900473ffffffffffffffffffffffffffffffffffffffff1673ffffffffffffffffffffffffffffffffffffffff166370a08231306040518263ffffffff1660e01b81526004016138d49190615252565b60206040518083038186803b1580156138ec57600080fd5b505afa158015613900573d6000803e3d6000fd5b505050506040513d601f19601f820116820180604052508101906139249190614e92565b935061393185848361416a565b61395c60008054906101000a900473ffffffffffffffffffffffffffffffffffffffff16858361416a565b5b50509250929050565b60096020528060005260406000206000915090505481565b6060819050919050565b60055481565b60008054906101000a900473ffffffffffffffffffffffffffffffffffffffff1681565b600080839050600073ffffffffffffffffffffffffffffffffffffffff168473ffffffffffffffffffffffffffffffffffffffff161415613a1357600160009054906101000a900473ffffffffffffffffffffffffffffffffffffffff1690505b6000613a1d613c04565b73ffffffffffffffffffffffffffffffffffffffff1663b99b0a0c6040518163ffffffff1660e01b815260040160206040518083038186803b158015613a6257600080fd5b505afa158015613a76573d6000803e3d6000fd5b505050506040513d601f19601f82011682018060405250810190613a9a9190614d18565b73ffffffffffffffffffffffffffffffffffffffff1663bbe4f6db866040518263ffffffff1660e01b8152600401613ad29190615252565b60206040518083038186803b158015613aea57600080fd5b505afa158015613afe573d6000803e3d6000fd5b505050506040513d601f19601f82011682018060405250810190613b229190614d18565b9050613b4f60008054906101000a900473ffffffffffffffffffffffffffffffffffffffff168783613ddb565b506000808273ffffffffffffffffffffffffffffffffffffffff166303438dd0856040518263ffffffff1660e01b8152600401613b8c9190615252565b6040805180830381600087803b158015613ba557600080fd5b505af1158015613bb9573d6000803e3d6000fd5b505050506040513d601f19601f82011682018060405250810190613bdd919061505b565b91509150613bec87838861416a565b613bf68382613caa565b809450505050509392505050565b60008060009054906101000a900473ffffffffffffffffffffffffffffffffffffffff1673ffffffffffffffffffffffffffffffffffffffff166398fabd3a6040518163ffffffff1660e01b815260040160206040518083038186803b158015613c6d57600080fd5b505afa158015613c81573d6000803e3d6000fd5b505050506040513d601f19601f82011682018060405250810190613ca59190614dff565b905090565b60011515613cb6613c04565b73ffffffffffffffffffffffffffffffffffffffff1663b99b0a0c6040518163ffffffff1660e01b815260040160206040518083038186803b158015613cfb57600080fd5b505afa158015613d0f573d6000803e3d6000fd5b505050506040513d601f19601f82011682018060405250810190613d339190614d18565b73ffffffffffffffffffffffffffffffffffffffff16638dcb4c93846040518263ffffffff1660e01b8152600401613d6b9190615252565b60206040518083038186803b158015613d8357600080fd5b505afa158015613d97573d6000803e3d6000fd5b505050506040513d601f19601f82011682018060405250810190613dbb9190614d41565b15151415613dd757613dcc8161437c565b613dd68282614455565b5b5050565b60008083111561416357600073ffffffffffffffffffffffffffffffffffffffff168473ffffffffffffffffffffffffffffffffffffffff161415613fad57348314613e2657600080fd5b6000600160009054906101000a900473ffffffffffffffffffffffffffffffffffffffff1673ffffffffffffffffffffffffffffffffffffffff1684604051613e6e9061523d565b60006040518083038185875af1925050503d8060008114613eab576040519150601f19603f3d011682016040523d82523d6000602084013e613eb0565b606091505b5050905080613ef4576040517f08c379a0000000000000000000000000000000000000000000000000000000008152600401613eeb90615333565b60405180910390fd5b600160009054906101000a900473ffffffffffffffffffffffffffffffffffffffff1673ffffffffffffffffffffffffffffffffffffffff1663a9059cbb84866040518363ffffffff1660e01b8152600401613f519291906152cd565b602060405180830381600087803b158015613f6b57600080fd5b505af1158015613f7f573d6000803e3d6000fd5b505050506040513d601f19601f82011682018060405250810190613fa39190614d41565b5083915050614162565b60008473ffffffffffffffffffffffffffffffffffffffff166370a08231846040518263ffffffff1660e01b8152600401613fe89190615252565b60206040518083038186803b15801561400057600080fd5b505afa158015614014573d6000803e3d6000fd5b505050506040513d601f19601f820116820180604052508101906140389190614e92565b90508473ffffffffffffffffffffffffffffffffffffffff166323b872dd3385876040518463ffffffff1660e01b815260040161407793929190615296565b602060405180830381600087803b15801561409157600080fd5b505af11580156140a5573d6000803e3d6000fd5b505050506040513d601f19601f820116820180604052508101906140c99190614d41565b50808573ffffffffffffffffffffffffffffffffffffffff166370a08231856040518263ffffffff1660e01b81526004016141049190615252565b60206040518083038186803b15801561411c57600080fd5b505afa158015614130573d6000803e3d6000fd5b505050506040513d601f19601f820116820180604052508101906141549190614e92565b61415e9190615560565b9150505b5b9392505050565b600082111561437757600073ffffffffffffffffffffffffffffffffffffffff168373ffffffffffffffffffffffffffffffffffffffff1614156142e757600160009054906101000a900473ffffffffffffffffffffffffffffffffffffffff1673ffffffffffffffffffffffffffffffffffffffff16632e1a7d4d836040518263ffffffff1660e01b81526004016142039190615353565b600060405180830381600087803b15801561421d57600080fd5b505af1158015614231573d6000803e3d6000fd5b5050505060008173ffffffffffffffffffffffffffffffffffffffff168360405161425b9061523d565b60006040518083038185875af1925050503d8060008114614298576040519150601f19603f3d011682016040523d82523d6000602084013e61429d565b606091505b50509050806142e1576040517f08c379a00000000000000000000000000000000000000000000000000000000081526004016142d890615333565b60405180910390fd5b50614376565b8273ffffffffffffffffffffffffffffffffffffffff1663a9059cbb82846040518363ffffffff1660e01b81526004016143229291906152cd565b602060405180830381600087803b15801561433c57600080fd5b505af1158015614350573d6000803e3d6000fd5b505050506040513d601f19601f820116820180604052508101906143749190614d41565b505b5b505050565b60008060078054905090506006548110156143bf57600783908060018154018082558091505060019003906000526020600020016000909190919091505561443c565b6143c88361474a565b60005b60065481101561443a576007818154811061440f577f4e487b7100000000000000000000000000000000000000000000000000000000600052603260045260246000fd5b906000526020600020015483614425919061547f565b9250808061443290615695565b9150506143cb565b505b6006548261444a91906154d5565b600581905550505050565b6000600554146147465760008060009054906101000a900473ffffffffffffffffffffffffffffffffffffffff1673ffffffffffffffffffffffffffffffffffffffff166370a082316144a6613c04565b73ffffffffffffffffffffffffffffffffffffffff16639d2cc4366040518163ffffffff1660e01b815260040160206040518083038186803b1580156144eb57600080fd5b505afa1580156144ff573d6000803e3d6000fd5b505050506040513d601f19601f820116820180604052508101906145239190614d18565b6040518263ffffffff1660e01b815260040161453f9190615252565b60206040518083038186803b15801561455757600080fd5b505afa15801561456b573d6000803e3d6000fd5b505050506040513d601f19601f8201168201806040525081019061458f9190614e92565b905060008114614744576000600354600454836145ac91906154d5565b6145b691906154d5565b9050600081846145c69190615506565b90506000600554856145d8919061547f565b826145e391906154d5565b90506145ef81876148cd565b6145f7613c04565b73ffffffffffffffffffffffffffffffffffffffff16639d2cc4366040518163ffffffff1660e01b815260040160206040518083038186803b15801561463c57600080fd5b505afa158015614650573d6000803e3d6000fd5b505050506040513d601f19601f820116820180604052508101906146749190614d18565b73ffffffffffffffffffffffffffffffffffffffff16637d458baa82886040518363ffffffff1660e01b81526004016146ae92919061536e565b600060405180830381600087803b1580156146c857600080fd5b505af11580156146dc573d6000803e3d6000fd5b505050508573ffffffffffffffffffffffffffffffffffffffff1663fff6cae96040518163ffffffff1660e01b8152600401600060405180830381600087803b15801561472857600080fd5b505af115801561473c573d6000803e3d6000fd5b505050505050505b505b5050565b60006007805490509050600060078054806020026020016040519081016040528092919081815260200182805480156147a257602002820191906000526020600020905b81548152602001906001019080831161478e575b5050505050905060006001836147b89190615560565b90505b600081111561486957816001826147d29190615560565b81518110614809577f4e487b7100000000000000000000000000000000000000000000000000000000600052603260045260246000fd5b602002602001015182828151811061484a577f4e487b7100000000000000000000000000000000000000000000000000000000600052603260045260246000fd5b60200260200101818152505080806148619061563a565b9150506147bb565b5082816000815181106148a5577f4e487b7100000000000000000000000000000000000000000000000000000000600052603260045260246000fd5b60200260200101818152505080600790805190602001906148c7929190614b0d565b50505050565b600060085414156148e057426008819055505b62278d006008546148f1919061547f565b421161498a5781600960008373ffffffffffffffffffffffffffffffffffffffff1673ffffffffffffffffffffffffffffffffffffffff16815260200190815260200160002054614942919061547f565b600960008373ffffffffffffffffffffffffffffffffffffffff1673ffffffffffffffffffffffffffffffffffffffff16815260200190815260200160002081905550614ae8565b42600881905550600960008273ffffffffffffffffffffffffffffffffffffffff1673ffffffffffffffffffffffffffffffffffffffff16815260200190815260200160002054600a60008373ffffffffffffffffffffffffffffffffffffffff1673ffffffffffffffffffffffffffffffffffffffff168152602001908152602001600020819055506000600960008373ffffffffffffffffffffffffffffffffffffffff1673ffffffffffffffffffffffffffffffffffffffff1681526020019081526020016000208190555081600960008373ffffffffffffffffffffffffffffffffffffffff1673ffffffffffffffffffffffffffffffffffffffff16815260200190815260200160002054614aa4919061547f565b600960008373ffffffffffffffffffffffffffffffffffffffff1673ffffffffffffffffffffffffffffffffffffffff168152602001908152602001600020819055505b5050565b5080546000825590600052602060002090810190614b0a9190614b5a565b50565b828054828255906000526020600020908101928215614b49579160200282015b82811115614b48578251825591602001919060010190614b2d565b5b509050614b569190614b5a565b5090565b5b80821115614b73576000816000905550600101614b5b565b5090565b6000614b8a614b85846153e5565b6153c0565b905082815260208101848484011115614ba257600080fd5b614bad8482856155f8565b509392505050565b6000614bc8614bc384615416565b6153c0565b905082815260208101848484011115614be057600080fd5b614beb8482856155f8565b509392505050565b600081359050614c02816157a8565b92915050565b600081519050614c17816157a8565b92915050565b600081359050614c2c816157bf565b92915050565b600081519050614c41816157bf565b92915050565b600081519050614c56816157d6565b92915050565b600082601f830112614c6d57600080fd5b8135614c7d848260208601614b77565b91505092915050565b600081519050614c95816157ed565b92915050565b600082601f830112614cac57600080fd5b8135614cbc848260208601614bb5565b91505092915050565b600081359050614cd481615804565b92915050565b600081519050614ce981615804565b92915050565b600060208284031215614d0157600080fd5b6000614d0f84828501614bf3565b91505092915050565b600060208284031215614d2a57600080fd5b6000614d3884828501614c08565b91505092915050565b600060208284031215614d5357600080fd5b6000614d6184828501614c32565b91505092915050565b600060208284031215614d7c57600080fd5b6000614d8a84828501614c47565b91505092915050565b60008060408385031215614da657600080fd5b600083013567ffffffffffffffff811115614dc057600080fd5b614dcc85828601614c5c565b925050602083013567ffffffffffffffff811115614de957600080fd5b614df585828601614c5c565b9150509250929050565b600060208284031215614e1157600080fd5b6000614e1f84828501614c86565b91505092915050565b600060208284031215614e3a57600080fd5b600082013567ffffffffffffffff811115614e5457600080fd5b614e6084828501614c9b565b91505092915050565b600060208284031215614e7b57600080fd5b6000614e8984828501614cc5565b91505092915050565b600060208284031215614ea457600080fd5b6000614eb284828501614cda565b91505092915050565b60008060408385031215614ece57600080fd5b6000614edc85828601614cc5565b9250506020614eed85828601614bf3565b9150509250929050565b600080600060608486031215614f0c57600080fd5b6000614f1a86828701614cc5565b9350506020614f2b86828701614bf3565b9250506040614f3c86828701614bf3565b9150509250925092565b60008060008060808587031215614f5c57600080fd5b6000614f6a87828801614cc5565b9450506020614f7b87828801614bf3565b9350506040614f8c87828801614bf3565b9250506060614f9d87828801614bf3565b91505092959194509250565b600080600060608486031215614fbe57600080fd5b6000614fcc86828701614cc5565b9350506020614fdd86828701614c1d565b9250506040614fee86828701614bf3565b9150509250925092565b6000806000806080858703121561500e57600080fd5b600061501c87828801614cc5565b945050602061502d87828801614c1d565b935050604061503e87828801614bf3565b925050606061504f87828801614bf3565b91505092959194509250565b6000806040838503121561506e57600080fd5b600061507c85828601614cda565b925050602061508d85828601614cda565b9150509250929050565b6000806000606084860312156150ac57600080fd5b60006150ba86828701614cc5565b93505060206150cb86828701614cc5565b92505060406150dc86828701614bf3565b9150509250925092565b600080600080608085870312156150fc57600080fd5b600061510a87828801614cc5565b945050602061511b87828801614cc5565b935050604061512c87828801614bf3565b925050606061513d87828801614bf3565b91505092959194509250565b61515281615594565b82525050565b615161816155a6565b82525050565b600061517282615447565b61517c8185615452565b935061518c818560208601615607565b6151958161576b565b840191505092915050565b60006151ab82615447565b6151b58185615463565b93506151c5818560208601615607565b80840191505092915050565b60006151de60058361546e565b91506151e98261577c565b602082019050919050565b6000615201600083615463565b915061520c826157a5565b600082019050919050565b615220816155ee565b82525050565b600061523282846151a0565b915081905092915050565b6000615248826151f4565b9150819050919050565b60006020820190506152676000830184615149565b92915050565b60006040820190506152826000830185615149565b61528f6020830184615149565b9392505050565b60006060820190506152ab6000830186615149565b6152b86020830185615149565b6152c56040830184615217565b949350505050565b60006040820190506152e26000830185615149565b6152ef6020830184615217565b9392505050565b600060208201905061530b6000830184615158565b92915050565b6000602082019050818103600083015261532b8184615167565b905092915050565b6000602082019050818103600083015261534c816151d1565b9050919050565b60006020820190506153686000830184615217565b92915050565b60006040820190506153836000830185615217565b6153906020830184615149565b9392505050565b60006040820190506153ac6000830185615217565b6153b96020830184615217565b9392505050565b60006153ca6153db565b90506153d68282615664565b919050565b6000604051905090565b600067ffffffffffffffff821115615400576153ff61573c565b5b6154098261576b565b9050602081019050919050565b600067ffffffffffffffff8211156154315761543061573c565b5b61543a8261576b565b9050602081019050919050565b600081519050919050565b600082825260208201905092915050565b600081905092915050565b600082825260208201905092915050565b600061548a826155ee565b9150615495836155ee565b9250827fffffffffffffffffffffffffffffffffffffffffffffffffffffffffffffffff038211156154ca576154c96156de565b5b828201905092915050565b60006154e0826155ee565b91506154eb836155ee565b9250826154fb576154fa61570d565b5b828204905092915050565b6000615511826155ee565b915061551c836155ee565b9250817fffffffffffffffffffffffffffffffffffffffffffffffffffffffffffffffff0483118215151615615555576155546156de565b5b828202905092915050565b600061556b826155ee565b9150615576836155ee565b925082821015615589576155886156de565b5b828203905092915050565b600061559f826155ce565b9050919050565b60008115159050919050565b6000819050919050565b60006155c782615594565b9050919050565b600073ffffffffffffffffffffffffffffffffffffffff82169050919050565b6000819050919050565b82818337600083830152505050565b60005b8381101561562557808201518184015260208101905061560a565b83811115615634576000848401525b50505050565b6000615645826155ee565b91506000821415615659576156586156de565b5b600182039050919050565b61566d8261576b565b810181811067ffffffffffffffff8211171561568c5761568b61573c565b5b80604052505050565b60006156a0826155ee565b91507fffffffffffffffffffffffffffffffffffffffffffffffffffffffffffffffff8214156156d3576156d26156de565b5b600182019050919050565b7f4e487b7100000000000000000000000000000000000000000000000000000000600052601160045260246000fd5b7f4e487b7100000000000000000000000000000000000000000000000000000000600052601260045260246000fd5b7f4e487b7100000000000000000000000000000000000000000000000000000000600052604160045260246000fd5b6000601f19601f8301169050919050565b7f2173656e64000000000000000000000000000000000000000000000000000000600082015250565b50565b6157b181615594565b81146157bc57600080fd5b50565b6157c8816155a6565b81146157d357600080fd5b50565b6157df816155b2565b81146157ea57600080fd5b50565b6157f6816155bc565b811461580157600080fd5b50565b61580d816155ee565b811461581857600080fd5b5056fea2646970667358221220ee587569b8bcea906b7067491352667ae4786837db71817cafb5baecd67b8f2164736f6c63430008030033",
  "linkReferences": {},
  "deployedLinkReferences": {}
}