{
  "_format": "hh-sol-artifact-1",
  "contractName": "Router",
  "sourceName": "contracts/Router.sol",
  "abi": [
    {
      "inputs": [
        {
          "internalType": "address",
          "name": "_base",
          "type": "address"
        },
        {
          "internalType": "address",
          "name": "_wbnb",
          "type": "address"
        }
      ],
      "stateMutability": "nonpayable",
      "type": "constructor"
    },
    {
      "inputs": [],
      "name": "BASE",
      "outputs": [
        {
          "internalType": "address",
          "name": "",
          "type": "address"
        }
      ],
      "stateMutability": "view",
      "type": "function"
    },
    {
      "inputs": [],
      "name": "DEPLOYER",
      "outputs": [
        {
          "internalType": "address",
          "name": "",
          "type": "address"
        }
      ],
      "stateMutability": "view",
      "type": "function"
    },
    {
      "inputs": [],
      "name": "WBNB",
      "outputs": [
        {
          "internalType": "address",
          "name": "",
          "type": "address"
        }
      ],
      "stateMutability": "view",
      "type": "function"
    },
    {
      "inputs": [
        {
          "internalType": "uint256",
          "name": "inputBase",
          "type": "uint256"
        },
        {
          "internalType": "uint256",
          "name": "inputToken",
          "type": "uint256"
        },
        {
          "internalType": "address",
          "name": "token",
          "type": "address"
        }
      ],
      "name": "addLiquidity",
      "outputs": [],
      "stateMutability": "payable",
      "type": "function"
    },
    {
      "inputs": [
        {
          "internalType": "uint256",
          "name": "inputBase",
          "type": "uint256"
        },
        {
          "internalType": "uint256",
          "name": "inputToken",
          "type": "uint256"
        },
        {
          "internalType": "address",
          "name": "token",
          "type": "address"
        },
        {
          "internalType": "address",
          "name": "member",
          "type": "address"
        }
      ],
      "name": "addLiquidityForMember",
      "outputs": [],
      "stateMutability": "payable",
      "type": "function"
    },
    {
      "inputs": [
        {
          "internalType": "uint256",
          "name": "inputToken",
          "type": "uint256"
        },
        {
          "internalType": "bool",
          "name": "fromBase",
          "type": "bool"
        },
        {
          "internalType": "address",
          "name": "token",
          "type": "address"
        }
      ],
      "name": "addLiquiditySingle",
      "outputs": [],
      "stateMutability": "payable",
      "type": "function"
    },
    {
      "inputs": [
        {
          "internalType": "uint256",
          "name": "inputToken",
          "type": "uint256"
        },
        {
          "internalType": "bool",
          "name": "fromBase",
          "type": "bool"
        },
        {
          "internalType": "address",
          "name": "token",
          "type": "address"
        },
        {
          "internalType": "address",
          "name": "member",
          "type": "address"
        }
      ],
      "name": "addLiquiditySingleForMember",
      "outputs": [],
      "stateMutability": "payable",
      "type": "function"
    },
    {
      "inputs": [
        {
          "internalType": "uint256",
          "name": "amount",
          "type": "uint256"
        },
        {
          "internalType": "address",
          "name": "token",
          "type": "address"
        },
        {
          "internalType": "address",
          "name": "member",
          "type": "address"
        }
      ],
      "name": "buyTo",
      "outputs": [],
      "stateMutability": "nonpayable",
      "type": "function"
    },
    {
      "inputs": [
        {
          "internalType": "uint256",
          "name": "_size",
          "type": "uint256"
        }
      ],
      "name": "changeArrayFeeSize",
      "outputs": [],
      "stateMutability": "nonpayable",
      "type": "function"
    },
    {
      "inputs": [
        {
          "internalType": "uint256",
          "name": "_eraLength",
          "type": "uint256"
        }
      ],
      "name": "changeEraLength",
      "outputs": [],
      "stateMutability": "nonpayable",
      "type": "function"
    },
    {
      "inputs": [
        {
          "internalType": "uint256",
          "name": "_maxtrades",
          "type": "uint256"
        }
      ],
      "name": "changeMaxTrades",
      "outputs": [],
      "stateMutability": "nonpayable",
      "type": "function"
    },
    {
      "inputs": [
        {
          "internalType": "address",
          "name": "pool",
          "type": "address"
        }
      ],
      "name": "currentPoolRevenue",
      "outputs": [
        {
          "internalType": "uint256",
          "name": "",
          "type": "uint256"
        }
      ],
      "stateMutability": "view",
      "type": "function"
    },
    {
      "inputs": [
        {
          "internalType": "bytes",
          "name": "part1",
          "type": "bytes"
        },
        {
          "internalType": "bytes",
          "name": "part2",
          "type": "bytes"
        }
      ],
      "name": "isEqual",
      "outputs": [
        {
          "internalType": "bool",
          "name": "equal",
          "type": "bool"
        }
      ],
      "stateMutability": "pure",
      "type": "function"
    },
    {
      "inputs": [
        {
          "internalType": "address",
          "name": "",
          "type": "address"
        }
      ],
      "name": "mapAddress_30DayDividends",
      "outputs": [
        {
          "internalType": "uint256",
          "name": "",
          "type": "uint256"
        }
      ],
      "stateMutability": "view",
      "type": "function"
    },
    {
      "inputs": [
        {
          "internalType": "address",
          "name": "",
          "type": "address"
        }
      ],
      "name": "mapAddress_Past30DayPoolDividends",
      "outputs": [
        {
          "internalType": "uint256",
          "name": "",
          "type": "uint256"
        }
      ],
      "stateMutability": "view",
      "type": "function"
    },
    {
      "inputs": [],
      "name": "normalAverageFee",
      "outputs": [
        {
          "internalType": "uint256",
          "name": "",
          "type": "uint256"
        }
      ],
      "stateMutability": "view",
      "type": "function"
    },
    {
      "inputs": [
        {
          "internalType": "address",
          "name": "pool",
          "type": "address"
        }
      ],
      "name": "pastPoolRevenue",
      "outputs": [
        {
          "internalType": "uint256",
          "name": "",
          "type": "uint256"
        }
      ],
      "stateMutability": "view",
      "type": "function"
    },
    {
      "inputs": [
        {
          "internalType": "uint256",
          "name": "basisPoints",
          "type": "uint256"
        },
        {
          "internalType": "address",
          "name": "token",
          "type": "address"
        }
      ],
      "name": "removeLiquidity",
      "outputs": [],
      "stateMutability": "nonpayable",
      "type": "function"
    },
    {
      "inputs": [
        {
          "internalType": "uint256",
          "name": "units",
          "type": "uint256"
        },
        {
          "internalType": "address",
          "name": "token",
          "type": "address"
        }
      ],
      "name": "removeLiquidityExact",
      "outputs": [],
      "stateMutability": "nonpayable",
      "type": "function"
    },
    {
      "inputs": [
        {
          "internalType": "uint256",
          "name": "units",
          "type": "uint256"
        },
        {
          "internalType": "bool",
          "name": "toBase",
          "type": "bool"
        },
        {
          "internalType": "address",
          "name": "token",
          "type": "address"
        }
      ],
      "name": "removeLiquiditySingle",
      "outputs": [],
      "stateMutability": "nonpayable",
      "type": "function"
    },
    {
      "inputs": [
        {
          "internalType": "uint256",
          "name": "amount",
          "type": "uint256"
        },
        {
          "internalType": "address",
          "name": "token",
          "type": "address"
        },
        {
          "internalType": "address",
          "name": "member",
          "type": "address"
        }
      ],
      "name": "sellTo",
      "outputs": [
        {
          "internalType": "uint256",
          "name": "",
          "type": "uint256"
        }
      ],
      "stateMutability": "payable",
      "type": "function"
    },
    {
      "inputs": [
        {
          "internalType": "string",
          "name": "s",
          "type": "string"
        }
      ],
      "name": "stringToBytes",
      "outputs": [
        {
          "internalType": "bytes",
          "name": "",
          "type": "bytes"
        }
      ],
      "stateMutability": "pure",
      "type": "function"
    },
    {
      "inputs": [
        {
          "internalType": "uint256",
          "name": "inputAmount",
          "type": "uint256"
        },
        {
          "internalType": "address",
          "name": "fromToken",
          "type": "address"
        },
        {
          "internalType": "address",
          "name": "toToken",
          "type": "address"
        }
      ],
      "name": "swap",
      "outputs": [],
      "stateMutability": "payable",
      "type": "function"
    },
    {
      "inputs": [
        {
          "internalType": "uint256",
          "name": "inputAmount",
          "type": "uint256"
        },
        {
          "internalType": "address",
          "name": "fromToken",
          "type": "address"
        },
        {
          "internalType": "address",
          "name": "toSynth",
          "type": "address"
        }
      ],
      "name": "swapAssetToSynth",
      "outputs": [],
      "stateMutability": "payable",
      "type": "function"
    },
    {
      "inputs": [
        {
          "internalType": "uint256",
          "name": "inputAmount",
          "type": "uint256"
        },
        {
          "internalType": "address",
          "name": "fromSynth",
          "type": "address"
        },
        {
          "internalType": "address",
          "name": "toToken",
          "type": "address"
        }
      ],
      "name": "swapSynthToAsset",
      "outputs": [],
      "stateMutability": "nonpayable",
      "type": "function"
    },
    {
      "inputs": [
        {
          "internalType": "uint256",
          "name": "inputAmount",
          "type": "uint256"
        },
        {
          "internalType": "address",
          "name": "fromToken",
          "type": "address"
        },
        {
          "internalType": "address",
          "name": "toToken",
          "type": "address"
        },
        {
          "internalType": "address",
          "name": "member",
          "type": "address"
        }
      ],
      "name": "swapTo",
      "outputs": [],
      "stateMutability": "payable",
      "type": "function"
    },
    {
      "inputs": [
        {
          "internalType": "uint256",
          "name": "unitsInput",
          "type": "uint256"
        },
        {
          "internalType": "address",
          "name": "fromPool",
          "type": "address"
        },
        {
          "internalType": "address",
          "name": "toPool",
          "type": "address"
        }
      ],
      "name": "zapLiquidity",
      "outputs": [],
      "stateMutability": "nonpayable",
      "type": "function"
    },
    {
      "stateMutability": "payable",
      "type": "receive"
    }
  ],
  "bytecode": "0x60806040523480156200001157600080fd5b50604051620058d9380380620058d9833981810160405281019062000037919062000138565b816000806101000a81548173ffffffffffffffffffffffffffffffffffffffff021916908373ffffffffffffffffffffffffffffffffffffffff16021790555080600160006101000a81548173ffffffffffffffffffffffffffffffffffffffff021916908373ffffffffffffffffffffffffffffffffffffffff1602179055506014600681905550601e6004819055506064600381905550600060088190555033600260006101000a81548173ffffffffffffffffffffffffffffffffffffffff021916908373ffffffffffffffffffffffffffffffffffffffff1602179055505050620001c7565b6000815190506200013281620001ad565b92915050565b600080604083850312156200014c57600080fd5b60006200015c8582860162000121565b92505060206200016f8582860162000121565b9150509250929050565b600062000186826200018d565b9050919050565b600073ffffffffffffffffffffffffffffffffffffffff82169050919050565b620001b88162000179565b8114620001c457600080fd5b50565b61570280620001d76000396000f3fe6080604052600436106101a05760003560e01c806393cac685116100ec578063c1b8411a1161008a578063e106fb4b11610064578063e106fb4b1461056f578063eb116111146105ac578063ec342ad0146105d7578063ecf3ef9214610602576101a7565b8063c1b8411a146104de578063c8c1fb7514610509578063cbb3a14a14610532576101a7565b8063ab1485ec116100c6578063ab1485ec14610447578063ab87d7be14610463578063b02d247a1461048c578063b45e1dbc146104b5576101a7565b806393cac685146103c55780639921c266146103e1578063a1cd6aa51461041e576101a7565b8063451918db1161015957806369ab0a8e1161013357806369ab0a8e146103325780636d54435d1461036257806387b21efc1461037e5780638dd950021461039a576101a7565b8063451918db146102a3578063519fc9c9146102e057806352e5c5c714610309576101a7565b806305fe138b146101ac5780632ac27482146101d55780632b7f0923146102125780633173ec3c1461022e578063331813ee1461024a5780633435980814610266576101a7565b366101a757005b600080fd5b3480156101b857600080fd5b506101d360048036038101906101ce9190614d6c565b61062b565b005b3480156101e157600080fd5b506101fc60048036038101906101f79190614ba0565b6108fc565b6040516102099190615204565b60405180910390f35b61022c60048036038101906102279190614da8565b610945565b005b61024860048036038101906102439190614da8565b610956565b005b610264600480360381019061025f9190614ea9565b610e30565b005b34801561027257600080fd5b5061028d60048036038101906102889190614c44565b611112565b60405161029a91906151a7565b60405180910390f35b3480156102af57600080fd5b506102ca60048036038101906102c59190614ba0565b6111ca565b6040516102d79190615204565b60405180910390f35b3480156102ec57600080fd5b5061030760048036038101906103029190614d1a565b6111e2565b005b34801561031557600080fd5b50610330600480360381019061032b9190614e5a565b611300565b005b61034c60048036038101906103479190614da8565b611af3565b6040516103599190615204565b60405180910390f35b61037c60048036038101906103779190614e5a565b611cd8565b005b61039860048036038101906103939190614f48565b611ce9565b005b3480156103a657600080fd5b506103af611cfa565b6040516103bc9190615103565b60405180910390f35b6103df60048036038101906103da9190614f97565b611d20565b005b3480156103ed57600080fd5b5061040860048036038101906104039190614ba0565b611efc565b6040516104159190615204565b60405180910390f35b34801561042a57600080fd5b5061044560048036038101906104409190614da8565b611f45565b005b610461600480360381019061045c9190614df7565b6125ed565b005b34801561046f57600080fd5b5061048a60048036038101906104859190614d1a565b612933565b005b34801561049857600080fd5b506104b360048036038101906104ae9190614d1a565b612a5f565b005b3480156104c157600080fd5b506104dc60048036038101906104d79190614da8565b612b7d565b005b3480156104ea57600080fd5b506104f361338a565b6040516105009190615103565b60405180910390f35b34801561051557600080fd5b50610530600480360381019061052b9190614d6c565b6133b0565b005b34801561053e57600080fd5b5061055960048036038101906105549190614ba0565b613838565b6040516105669190615204565b60405180910390f35b34801561057b57600080fd5b5061059660048036038101906105919190614cd9565b613850565b6040516105a391906151c2565b60405180910390f35b3480156105b857600080fd5b506105c161385a565b6040516105ce9190615204565b60405180910390f35b3480156105e357600080fd5b506105ec613860565b6040516105f99190615103565b60405180910390f35b34801561060e57600080fd5b5061062960048036038101906106249190614da8565b613884565b005b60008211801561063d57506127108211155b61064657600080fd5b6000610650613b65565b73ffffffffffffffffffffffffffffffffffffffff16637b0e5c456040518163ffffffff1660e01b815260040160206040518083038186803b15801561069557600080fd5b505afa1580156106a9573d6000803e3d6000fd5b505050506040513d601f19601f820116820180604052508101906106cd9190614bc9565b73ffffffffffffffffffffffffffffffffffffffff1663714270ab846106f1613b65565b73ffffffffffffffffffffffffffffffffffffffff1663b99b0a0c6040518163ffffffff1660e01b815260040160206040518083038186803b15801561073657600080fd5b505afa15801561074a573d6000803e3d6000fd5b505050506040513d601f19601f8201168201806040525081019061076e9190614bc9565b73ffffffffffffffffffffffffffffffffffffffff1663bbe4f6db866040518263ffffffff1660e01b81526004016107a69190615103565b60206040518083038186803b1580156107be57600080fd5b505afa1580156107d2573d6000803e3d6000fd5b505050506040513d601f19601f820116820180604052508101906107f69190614bc9565b73ffffffffffffffffffffffffffffffffffffffff166370a08231336040518263ffffffff1660e01b815260040161082e9190615103565b60206040518083038186803b15801561084657600080fd5b505afa15801561085a573d6000803e3d6000fd5b505050506040513d601f19601f8201168201806040525081019061087e9190614d43565b6040518363ffffffff1660e01b815260040161089b929190615248565b60206040518083038186803b1580156108b357600080fd5b505afa1580156108c7573d6000803e3d6000fd5b505050506040513d601f19601f820116820180604052508101906108eb9190614d43565b90506108f781836133b0565b505050565b6000600960008373ffffffffffffffffffffffffffffffffffffffff1673ffffffffffffffffffffffffffffffffffffffff168152602001908152602001600020549050919050565b610951838383336125ed565b505050565b8073ffffffffffffffffffffffffffffffffffffffff168273ffffffffffffffffffffffffffffffffffffffff16141561098f57600080fd5b60008173ffffffffffffffffffffffffffffffffffffffff1663484920316040518163ffffffff1660e01b815260040160206040518083038186803b1580156109d757600080fd5b505afa1580156109eb573d6000803e3d6000fd5b505050506040513d601f19601f82011682018060405250810190610a0f9190614bc9565b90506000610a1b613b65565b73ffffffffffffffffffffffffffffffffffffffff1663b99b0a0c6040518163ffffffff1660e01b815260040160206040518083038186803b158015610a6057600080fd5b505afa158015610a74573d6000803e3d6000fd5b505050506040513d601f19601f82011682018060405250810190610a989190614bc9565b73ffffffffffffffffffffffffffffffffffffffff1663bbe4f6db836040518263ffffffff1660e01b8152600401610ad09190615103565b60206040518083038186803b158015610ae857600080fd5b505afa158015610afc573d6000803e3d6000fd5b505050506040513d601f19601f82011682018060405250810190610b209190614bc9565b905060008054906101000a900473ffffffffffffffffffffffffffffffffffffffff1673ffffffffffffffffffffffffffffffffffffffff168473ffffffffffffffffffffffffffffffffffffffff1614610cdc57610b80858530611af3565b5060008054906101000a900473ffffffffffffffffffffffffffffffffffffffff1673ffffffffffffffffffffffffffffffffffffffff1663a9059cbb8260008054906101000a900473ffffffffffffffffffffffffffffffffffffffff1673ffffffffffffffffffffffffffffffffffffffff166370a08231306040518263ffffffff1660e01b8152600401610c179190615103565b60206040518083038186803b158015610c2f57600080fd5b505afa158015610c43573d6000803e3d6000fd5b505050506040513d601f19601f82011682018060405250810190610c679190614d43565b6040518363ffffffff1660e01b8152600401610c8492919061517e565b602060405180830381600087803b158015610c9e57600080fd5b505af1158015610cb2573d6000803e3d6000fd5b505050506040513d601f19601f82011682018060405250810190610cd69190614bf2565b50610d8d565b60008054906101000a900473ffffffffffffffffffffffffffffffffffffffff1673ffffffffffffffffffffffffffffffffffffffff166323b872dd3383886040518463ffffffff1660e01b8152600401610d3993929190615147565b602060405180830381600087803b158015610d5357600080fd5b505af1158015610d67573d6000803e3d6000fd5b505050506040513d601f19601f82011682018060405250810190610d8b9190614bf2565b505b60008173ffffffffffffffffffffffffffffffffffffffff16635c53738685336040518363ffffffff1660e01b8152600401610dca92919061511e565b6040805180830381600087803b158015610de357600080fd5b505af1158015610df7573d6000803e3d6000fd5b505050506040513d601f19601f82011682018060405250810190610e1b9190614f0c565b915050610e288282613c0b565b505050505050565b60008411610e3d57600080fd5b6000610e47613b65565b73ffffffffffffffffffffffffffffffffffffffff1663b99b0a0c6040518163ffffffff1660e01b815260040160206040518083038186803b158015610e8c57600080fd5b505afa158015610ea0573d6000803e3d6000fd5b505050506040513d601f19601f82011682018060405250810190610ec49190614bc9565b73ffffffffffffffffffffffffffffffffffffffff1663bbe4f6db846040518263ffffffff1660e01b8152600401610efc9190615103565b60206040518083038186803b158015610f1457600080fd5b505afa158015610f28573d6000803e3d6000fd5b505050506040513d601f19601f82011682018060405250810190610f4c9190614bc9565b90506000839050600073ffffffffffffffffffffffffffffffffffffffff168473ffffffffffffffffffffffffffffffffffffffff161415610fae57600160009054906101000a900473ffffffffffffffffffffffffffffffffffffffff1690505b841561107157610fdf60008054906101000a900473ffffffffffffffffffffffffffffffffffffffff168784613d3c565b508173ffffffffffffffffffffffffffffffffffffffff166386d5f618846040518263ffffffff1660e01b81526004016110199190615103565b602060405180830381600087803b15801561103357600080fd5b505af1158015611047573d6000803e3d6000fd5b505050506040513d601f19601f8201168201806040525081019061106b9190614d43565b5061110a565b61107c848784613d3c565b508173ffffffffffffffffffffffffffffffffffffffff166386d5f618846040518263ffffffff1660e01b81526004016110b69190615103565b602060405180830381600087803b1580156110d057600080fd5b505af11580156110e4573d6000803e3d6000fd5b505050506040513d601f19601f820116820180604052508101906111089190614d43565b505b505050505050565b600060028260405161112491906150d7565b602060405180830381855afa158015611141573d6000803e3d6000fd5b5050506040513d601f19601f820116820180604052508101906111649190614c1b565b60028460405161117491906150d7565b602060405180830381855afa158015611191573d6000803e3d6000fd5b5050506040513d601f19601f820116820180604052508101906111b49190614c1b565b14156111c357600190506111c4565b5b92915050565b600a6020528060005260406000206000915090505481565b6111ea613b65565b73ffffffffffffffffffffffffffffffffffffffff166398fabd3a6040518163ffffffff1660e01b815260040160206040518083038186803b15801561122f57600080fd5b505afa158015611243573d6000803e3d6000fd5b505050506040513d601f19601f820116820180604052508101906112679190614bc9565b73ffffffffffffffffffffffffffffffffffffffff163373ffffffffffffffffffffffffffffffffffffffff1614806112ed5750600260009054906101000a900473ffffffffffffffffffffffffffffffffffffffff1673ffffffffffffffffffffffffffffffffffffffff163373ffffffffffffffffffffffffffffffffffffffff16145b6112f657600080fd5b8060038190555050565b600061130a613b65565b73ffffffffffffffffffffffffffffffffffffffff1663b99b0a0c6040518163ffffffff1660e01b815260040160206040518083038186803b15801561134f57600080fd5b505afa158015611363573d6000803e3d6000fd5b505050506040513d601f19601f820116820180604052508101906113879190614bc9565b73ffffffffffffffffffffffffffffffffffffffff1663bbe4f6db836040518263ffffffff1660e01b81526004016113bf9190615103565b60206040518083038186803b1580156113d757600080fd5b505afa1580156113eb573d6000803e3d6000fd5b505050506040513d601f19601f8201168201806040525081019061140f9190614bc9565b90506001151561141d613b65565b73ffffffffffffffffffffffffffffffffffffffff1663b99b0a0c6040518163ffffffff1660e01b815260040160206040518083038186803b15801561146257600080fd5b505afa158015611476573d6000803e3d6000fd5b505050506040513d601f19601f8201168201806040525081019061149a9190614bc9565b73ffffffffffffffffffffffffffffffffffffffff16635b16ebb7836040518263ffffffff1660e01b81526004016114d29190615103565b602060405180830381600087803b1580156114ec57600080fd5b505af1158015611500573d6000803e3d6000fd5b505050506040513d601f19601f820116820180604052508101906115249190614bf2565b15151461153057600080fd5b60003390508173ffffffffffffffffffffffffffffffffffffffff166323b872dd8284886040518463ffffffff1660e01b815260040161157293929190615147565b602060405180830381600087803b15801561158c57600080fd5b505af11580156115a0573d6000803e3d6000fd5b505050506040513d601f19601f820116820180604052508101906115c49190614bf2565b508173ffffffffffffffffffffffffffffffffffffffff1663a7f437796040518163ffffffff1660e01b81526004016040805180830381600087803b15801561160c57600080fd5b505af1158015611620573d6000803e3d6000fd5b505050506040513d601f19601f820116820180604052508101906116449190614f0c565b50506000839050600073ffffffffffffffffffffffffffffffffffffffff168473ffffffffffffffffffffffffffffffffffffffff1614156116a657600160009054906101000a900473ffffffffffffffffffffffffffffffffffffffff1690505b8415611875578073ffffffffffffffffffffffffffffffffffffffff1663a9059cbb848373ffffffffffffffffffffffffffffffffffffffff166370a08231306040518263ffffffff1660e01b81526004016117029190615103565b60206040518083038186803b15801561171a57600080fd5b505afa15801561172e573d6000803e3d6000fd5b505050506040513d601f19601f820116820180604052508101906117529190614d43565b6040518363ffffffff1660e01b815260040161176f92919061517e565b602060405180830381600087803b15801561178957600080fd5b505af115801561179d573d6000803e3d6000fd5b505050506040513d601f19601f820116820180604052508101906117c19190614bf2565b508273ffffffffffffffffffffffffffffffffffffffff16632783e4a960008054906101000a900473ffffffffffffffffffffffffffffffffffffffff16846040518363ffffffff1660e01b815260040161181d92919061511e565b6040805180830381600087803b15801561183657600080fd5b505af115801561184a573d6000803e3d6000fd5b505050506040513d601f19601f8201168201806040525081019061186e9190614f0c565b5050611aeb565b60008054906101000a900473ffffffffffffffffffffffffffffffffffffffff1673ffffffffffffffffffffffffffffffffffffffff1663a9059cbb8460008054906101000a900473ffffffffffffffffffffffffffffffffffffffff1673ffffffffffffffffffffffffffffffffffffffff166370a08231306040518263ffffffff1660e01b815260040161190b9190615103565b60206040518083038186803b15801561192357600080fd5b505afa158015611937573d6000803e3d6000fd5b505050506040513d601f19601f8201168201806040525081019061195b9190614d43565b6040518363ffffffff1660e01b815260040161197892919061517e565b602060405180830381600087803b15801561199257600080fd5b505af11580156119a6573d6000803e3d6000fd5b505050506040513d601f19601f820116820180604052508101906119ca9190614bf2565b508273ffffffffffffffffffffffffffffffffffffffff166303438dd0826040518263ffffffff1660e01b8152600401611a049190615103565b6040805180830381600087803b158015611a1d57600080fd5b505af1158015611a31573d6000803e3d6000fd5b505050506040513d601f19601f82011682018060405250810190611a559190614f0c565b5050611aea848273ffffffffffffffffffffffffffffffffffffffff166370a08231306040518263ffffffff1660e01b8152600401611a949190615103565b60206040518083038186803b158015611aac57600080fd5b505afa158015611ac0573d6000803e3d6000fd5b505050506040513d601f19601f82011682018060405250810190611ae49190614d43565b846140cb565b5b505050505050565b600080611afe613b65565b73ffffffffffffffffffffffffffffffffffffffff1663b99b0a0c6040518163ffffffff1660e01b815260040160206040518083038186803b158015611b4357600080fd5b505afa158015611b57573d6000803e3d6000fd5b505050506040513d601f19601f82011682018060405250810190611b7b9190614bc9565b73ffffffffffffffffffffffffffffffffffffffff1663bbe4f6db856040518263ffffffff1660e01b8152600401611bb39190615103565b60206040518083038186803b158015611bcb57600080fd5b505afa158015611bdf573d6000803e3d6000fd5b505050506040513d601f19601f82011682018060405250810190611c039190614bc9565b9050611c10848683613d3c565b5060008173ffffffffffffffffffffffffffffffffffffffff16632783e4a960008054906101000a900473ffffffffffffffffffffffffffffffffffffffff16866040518363ffffffff1660e01b8152600401611c6e92919061511e565b6040805180830381600087803b158015611c8757600080fd5b505af1158015611c9b573d6000803e3d6000fd5b505050506040513d601f19601f82011682018060405250810190611cbf9190614f0c565b915050611ccc8282613c0b565b80925050509392505050565b611ce483838333610e30565b505050565b611cf583838333611d20565b505050565b600160009054906101000a900473ffffffffffffffffffffffffffffffffffffffff1681565b6000611d2a613b65565b73ffffffffffffffffffffffffffffffffffffffff1663b99b0a0c6040518163ffffffff1660e01b815260040160206040518083038186803b158015611d6f57600080fd5b505afa158015611d83573d6000803e3d6000fd5b505050506040513d601f19601f82011682018060405250810190611da79190614bc9565b73ffffffffffffffffffffffffffffffffffffffff1663bbe4f6db846040518263ffffffff1660e01b8152600401611ddf9190615103565b60206040518083038186803b158015611df757600080fd5b505afa158015611e0b573d6000803e3d6000fd5b505050506040513d601f19601f82011682018060405250810190611e2f9190614bc9565b9050611e5c60008054906101000a900473ffffffffffffffffffffffffffffffffffffffff168683613d3c565b50611e68838583613d3c565b508073ffffffffffffffffffffffffffffffffffffffff166386d5f618836040518263ffffffff1660e01b8152600401611ea29190615103565b602060405180830381600087803b158015611ebc57600080fd5b505af1158015611ed0573d6000803e3d6000fd5b505050506040513d601f19601f82011682018060405250810190611ef49190614d43565b505050505050565b6000600a60008373ffffffffffffffffffffffffffffffffffffffff1673ffffffffffffffffffffffffffffffffffffffff168152602001908152602001600020549050919050565b8073ffffffffffffffffffffffffffffffffffffffff168273ffffffffffffffffffffffffffffffffffffffff161415611f7e57600080fd5b60008273ffffffffffffffffffffffffffffffffffffffff1663484920316040518163ffffffff1660e01b815260040160206040518083038186803b158015611fc657600080fd5b505afa158015611fda573d6000803e3d6000fd5b505050506040513d601f19601f82011682018060405250810190611ffe9190614bc9565b9050600061200a613b65565b73ffffffffffffffffffffffffffffffffffffffff1663b99b0a0c6040518163ffffffff1660e01b815260040160206040518083038186803b15801561204f57600080fd5b505afa158015612063573d6000803e3d6000fd5b505050506040513d601f19601f820116820180604052508101906120879190614bc9565b73ffffffffffffffffffffffffffffffffffffffff1663bbe4f6db836040518263ffffffff1660e01b81526004016120bf9190615103565b60206040518083038186803b1580156120d757600080fd5b505afa1580156120eb573d6000803e3d6000fd5b505050506040513d601f19601f8201168201806040525081019061210f9190614bc9565b9050600061211b613b65565b73ffffffffffffffffffffffffffffffffffffffff1663b99b0a0c6040518163ffffffff1660e01b815260040160206040518083038186803b15801561216057600080fd5b505afa158015612174573d6000803e3d6000fd5b505050506040513d601f19601f820116820180604052508101906121989190614bc9565b73ffffffffffffffffffffffffffffffffffffffff1663bbe4f6db856040518263ffffffff1660e01b81526004016121d09190615103565b60206040518083038186803b1580156121e857600080fd5b505afa1580156121fc573d6000803e3d6000fd5b505050506040513d601f19601f820116820180604052508101906122209190614bc9565b90508473ffffffffffffffffffffffffffffffffffffffff166323b872dd3384896040518463ffffffff1660e01b815260040161225f93929190615147565b602060405180830381600087803b15801561227957600080fd5b505af115801561228d573d6000803e3d6000fd5b505050506040513d601f19601f820116820180604052508101906122b19190614bf2565b5060008060008054906101000a900473ffffffffffffffffffffffffffffffffffffffff1673ffffffffffffffffffffffffffffffffffffffff168673ffffffffffffffffffffffffffffffffffffffff16141561239c578373ffffffffffffffffffffffffffffffffffffffff16636aff945488336040518363ffffffff1660e01b815260040161234492919061511e565b6040805180830381600087803b15801561235d57600080fd5b505af1158015612371573d6000803e3d6000fd5b505050506040513d601f19601f820116820180604052508101906123959190614f0c565b50506125d9565b8373ffffffffffffffffffffffffffffffffffffffff16636aff945488306040518363ffffffff1660e01b81526004016123d792919061511e565b6040805180830381600087803b1580156123f057600080fd5b505af1158015612404573d6000803e3d6000fd5b505050506040513d601f19601f820116820180604052508101906124289190614f0c565b8092508193505050600073ffffffffffffffffffffffffffffffffffffffff168673ffffffffffffffffffffffffffffffffffffffff16146125095760008373ffffffffffffffffffffffffffffffffffffffff16632783e4a988336040518363ffffffff1660e01b81526004016124a192919061511e565b6040805180830381600087803b1580156124ba57600080fd5b505af11580156124ce573d6000803e3d6000fd5b505050506040513d601f19601f820116820180604052508101906124f29190614f0c565b91505081816125019190615330565b9150506125d8565b6000808473ffffffffffffffffffffffffffffffffffffffff166303438dd0600160009054906101000a900473ffffffffffffffffffffffffffffffffffffffff166040518263ffffffff1660e01b81526004016125679190615103565b6040805180830381600087803b15801561258057600080fd5b505af1158015612594573d6000803e3d6000fd5b505050506040513d601f19601f820116820180604052508101906125b89190614f0c565b915091506125c78883336140cb565b82816125d39190615330565b925050505b5b6125e38382613c0b565b5050505050505050565b8173ffffffffffffffffffffffffffffffffffffffff168373ffffffffffffffffffffffffffffffffffffffff16141561262657600080fd5b60008054906101000a900473ffffffffffffffffffffffffffffffffffffffff1673ffffffffffffffffffffffffffffffffffffffff168373ffffffffffffffffffffffffffffffffffffffff16141561268a57612685848383613884565b61292d565b60008054906101000a900473ffffffffffffffffffffffffffffffffffffffff1673ffffffffffffffffffffffffffffffffffffffff168273ffffffffffffffffffffffffffffffffffffffff1614156126ef576126e9848483611af3565b5061292c565b60006126f9613b65565b73ffffffffffffffffffffffffffffffffffffffff1663b99b0a0c6040518163ffffffff1660e01b815260040160206040518083038186803b15801561273e57600080fd5b505afa158015612752573d6000803e3d6000fd5b505050506040513d601f19601f820116820180604052508101906127769190614bc9565b73ffffffffffffffffffffffffffffffffffffffff1663bbe4f6db846040518263ffffffff1660e01b81526004016127ae9190615103565b60206040518083038186803b1580156127c657600080fd5b505afa1580156127da573d6000803e3d6000fd5b505050506040513d601f19601f820116820180604052508101906127fe9190614bc9565b9050600061280d868684611af3565b90506000849050600073ffffffffffffffffffffffffffffffffffffffff168573ffffffffffffffffffffffffffffffffffffffff16141561286f57600160009054906101000a900473ffffffffffffffffffffffffffffffffffffffff1690505b6000808473ffffffffffffffffffffffffffffffffffffffff166303438dd0846040518263ffffffff1660e01b81526004016128ab9190615103565b6040805180830381600087803b1580156128c457600080fd5b505af11580156128d8573d6000803e3d6000fd5b505050506040513d601f19601f820116820180604052508101906128fc9190614f0c565b915091506000818561290e9190615330565b905061291a8682613c0b565b6129258884896140cb565b5050505050505b5b50505050565b61293b613b65565b73ffffffffffffffffffffffffffffffffffffffff166398fabd3a6040518163ffffffff1660e01b815260040160206040518083038186803b15801561298057600080fd5b505afa158015612994573d6000803e3d6000fd5b505050506040513d601f19601f820116820180604052508101906129b89190614bc9565b73ffffffffffffffffffffffffffffffffffffffff163373ffffffffffffffffffffffffffffffffffffffff161480612a3e5750600260009054906101000a900473ffffffffffffffffffffffffffffffffffffffff1673ffffffffffffffffffffffffffffffffffffffff163373ffffffffffffffffffffffffffffffffffffffff16145b612a4757600080fd5b8060068190555060076000612a5c91906149ea565b50565b612a67613b65565b73ffffffffffffffffffffffffffffffffffffffff166398fabd3a6040518163ffffffff1660e01b815260040160206040518083038186803b158015612aac57600080fd5b505afa158015612ac0573d6000803e3d6000fd5b505050506040513d601f19601f82011682018060405250810190612ae49190614bc9565b73ffffffffffffffffffffffffffffffffffffffff163373ffffffffffffffffffffffffffffffffffffffff161480612b6a5750600260009054906101000a900473ffffffffffffffffffffffffffffffffffffffff1673ffffffffffffffffffffffffffffffffffffffff163373ffffffffffffffffffffffffffffffffffffffff16145b612b7357600080fd5b8060048190555050565b60011515612b89613b65565b73ffffffffffffffffffffffffffffffffffffffff1663b99b0a0c6040518163ffffffff1660e01b815260040160206040518083038186803b158015612bce57600080fd5b505afa158015612be2573d6000803e3d6000fd5b505050506040513d601f19601f82011682018060405250810190612c069190614bc9565b73ffffffffffffffffffffffffffffffffffffffff16635b16ebb7846040518263ffffffff1660e01b8152600401612c3e9190615103565b602060405180830381600087803b158015612c5857600080fd5b505af1158015612c6c573d6000803e3d6000fd5b505050506040513d601f19601f82011682018060405250810190612c909190614bf2565b151514612c9c57600080fd5b60011515612ca8613b65565b73ffffffffffffffffffffffffffffffffffffffff1663b99b0a0c6040518163ffffffff1660e01b815260040160206040518083038186803b158015612ced57600080fd5b505afa158015612d01573d6000803e3d6000fd5b505050506040513d601f19601f82011682018060405250810190612d259190614bc9565b73ffffffffffffffffffffffffffffffffffffffff16635b16ebb7836040518263ffffffff1660e01b8152600401612d5d9190615103565b602060405180830381600087803b158015612d7757600080fd5b505af1158015612d8b573d6000803e3d6000fd5b505050506040513d601f19601f82011682018060405250810190612daf9190614bf2565b151514612dbb57600080fd5b60008273ffffffffffffffffffffffffffffffffffffffff166382bfefc86040518163ffffffff1660e01b815260040160206040518083038186803b158015612e0357600080fd5b505afa158015612e17573d6000803e3d6000fd5b505050506040513d601f19601f82011682018060405250810190612e3b9190614bc9565b905060003390508373ffffffffffffffffffffffffffffffffffffffff166318160ddd6040518163ffffffff1660e01b815260040160206040518083038186803b158015612e8857600080fd5b505afa158015612e9c573d6000803e3d6000fd5b505050506040513d601f19601f82011682018060405250810190612ec09190614d43565b851115612ecc57600080fd5b8373ffffffffffffffffffffffffffffffffffffffff166323b872dd8286886040518463ffffffff1660e01b8152600401612f0993929190615147565b602060405180830381600087803b158015612f2357600080fd5b505af1158015612f37573d6000803e3d6000fd5b505050506040513d601f19601f82011682018060405250810190612f5b9190614bf2565b508373ffffffffffffffffffffffffffffffffffffffff1663a7f437796040518163ffffffff1660e01b81526004016040805180830381600087803b158015612fa357600080fd5b505af1158015612fb7573d6000803e3d6000fd5b505050506040513d601f19601f82011682018060405250810190612fdb9190614f0c565b50508173ffffffffffffffffffffffffffffffffffffffff1663a9059cbb858473ffffffffffffffffffffffffffffffffffffffff166370a08231306040518263ffffffff1660e01b81526004016130339190615103565b60206040518083038186803b15801561304b57600080fd5b505afa15801561305f573d6000803e3d6000fd5b505050506040513d601f19601f820116820180604052508101906130839190614d43565b6040518363ffffffff1660e01b81526004016130a092919061517e565b602060405180830381600087803b1580156130ba57600080fd5b505af11580156130ce573d6000803e3d6000fd5b505050506040513d601f19601f820116820180604052508101906130f29190614bf2565b508373ffffffffffffffffffffffffffffffffffffffff16632783e4a960008054906101000a900473ffffffffffffffffffffffffffffffffffffffff16856040518363ffffffff1660e01b815260040161314e92919061511e565b6040805180830381600087803b15801561316757600080fd5b505af115801561317b573d6000803e3d6000fd5b505050506040513d601f19601f8201168201806040525081019061319f9190614f0c565b505060008054906101000a900473ffffffffffffffffffffffffffffffffffffffff1673ffffffffffffffffffffffffffffffffffffffff1663a9059cbb8460008054906101000a900473ffffffffffffffffffffffffffffffffffffffff1673ffffffffffffffffffffffffffffffffffffffff166370a08231306040518263ffffffff1660e01b81526004016132379190615103565b60206040518083038186803b15801561324f57600080fd5b505afa158015613263573d6000803e3d6000fd5b505050506040513d601f19601f820116820180604052508101906132879190614d43565b6040518363ffffffff1660e01b81526004016132a492919061517e565b602060405180830381600087803b1580156132be57600080fd5b505af11580156132d2573d6000803e3d6000fd5b505050506040513d601f19601f820116820180604052508101906132f69190614bf2565b508273ffffffffffffffffffffffffffffffffffffffff166386d5f618826040518263ffffffff1660e01b81526004016133309190615103565b602060405180830381600087803b15801561334a57600080fd5b505af115801561335e573d6000803e3d6000fd5b505050506040513d601f19601f820116820180604052508101906133829190614d43565b505050505050565b600260009054906101000a900473ffffffffffffffffffffffffffffffffffffffff1681565b60006133ba613b65565b73ffffffffffffffffffffffffffffffffffffffff1663b99b0a0c6040518163ffffffff1660e01b815260040160206040518083038186803b1580156133ff57600080fd5b505afa158015613413573d6000803e3d6000fd5b505050506040513d601f19601f820116820180604052508101906134379190614bc9565b73ffffffffffffffffffffffffffffffffffffffff1663bbe4f6db836040518263ffffffff1660e01b815260040161346f9190615103565b60206040518083038186803b15801561348757600080fd5b505afa15801561349b573d6000803e3d6000fd5b505050506040513d601f19601f820116820180604052508101906134bf9190614bc9565b905060003390508173ffffffffffffffffffffffffffffffffffffffff166323b872dd8284876040518463ffffffff1660e01b815260040161350393929190615147565b602060405180830381600087803b15801561351d57600080fd5b505af1158015613531573d6000803e3d6000fd5b505050506040513d601f19601f820116820180604052508101906135559190614bf2565b50600073ffffffffffffffffffffffffffffffffffffffff168373ffffffffffffffffffffffffffffffffffffffff161461361b578173ffffffffffffffffffffffffffffffffffffffff1663bc5dedc9826040518263ffffffff1660e01b81526004016135c39190615103565b6040805180830381600087803b1580156135dc57600080fd5b505af11580156135f0573d6000803e3d6000fd5b505050506040513d601f19601f820116820180604052508101906136149190614f0c565b5050613832565b8173ffffffffffffffffffffffffffffffffffffffff1663a7f437796040518163ffffffff1660e01b81526004016040805180830381600087803b15801561366257600080fd5b505af1158015613676573d6000803e3d6000fd5b505050506040513d601f19601f8201168201806040525081019061369a9190614f0c565b505060008060009054906101000a900473ffffffffffffffffffffffffffffffffffffffff1673ffffffffffffffffffffffffffffffffffffffff166370a08231306040518263ffffffff1660e01b81526004016136f89190615103565b60206040518083038186803b15801561371057600080fd5b505afa158015613724573d6000803e3d6000fd5b505050506040513d601f19601f820116820180604052508101906137489190614d43565b90506000600160009054906101000a900473ffffffffffffffffffffffffffffffffffffffff1673ffffffffffffffffffffffffffffffffffffffff166370a08231306040518263ffffffff1660e01b81526004016137a79190615103565b60206040518083038186803b1580156137bf57600080fd5b505afa1580156137d3573d6000803e3d6000fd5b505050506040513d601f19601f820116820180604052508101906137f79190614d43565b90506138048582856140cb565b61382f60008054906101000a900473ffffffffffffffffffffffffffffffffffffffff1683856140cb565b50505b50505050565b60096020528060005260406000206000915090505481565b6060819050919050565b60055481565b60008054906101000a900473ffffffffffffffffffffffffffffffffffffffff1681565b600061388e613b65565b73ffffffffffffffffffffffffffffffffffffffff1663b99b0a0c6040518163ffffffff1660e01b815260040160206040518083038186803b1580156138d357600080fd5b505afa1580156138e7573d6000803e3d6000fd5b505050506040513d601f19601f8201168201806040525081019061390b9190614bc9565b73ffffffffffffffffffffffffffffffffffffffff1663bbe4f6db846040518263ffffffff1660e01b81526004016139439190615103565b60206040518083038186803b15801561395b57600080fd5b505afa15801561396f573d6000803e3d6000fd5b505050506040513d601f19601f820116820180604052508101906139939190614bc9565b90506139c060008054906101000a900473ffffffffffffffffffffffffffffffffffffffff168583613d3c565b5060008073ffffffffffffffffffffffffffffffffffffffff168473ffffffffffffffffffffffffffffffffffffffff1614613a905760008273ffffffffffffffffffffffffffffffffffffffff16632783e4a986866040518363ffffffff1660e01b8152600401613a3392919061511e565b6040805180830381600087803b158015613a4c57600080fd5b505af1158015613a60573d6000803e3d6000fd5b505050506040513d601f19601f82011682018060405250810190613a849190614f0c565b91505080915050613b54565b6000808373ffffffffffffffffffffffffffffffffffffffff166303438dd0600160009054906101000a900473ffffffffffffffffffffffffffffffffffffffff166040518263ffffffff1660e01b8152600401613aee9190615103565b6040805180830381600087803b158015613b0757600080fd5b505af1158015613b1b573d6000803e3d6000fd5b505050506040513d601f19601f82011682018060405250810190613b3f9190614f0c565b91509150613b4e8683876140cb565b80925050505b613b5e8282613c0b565b5050505050565b60008060009054906101000a900473ffffffffffffffffffffffffffffffffffffffff1673ffffffffffffffffffffffffffffffffffffffff166398fabd3a6040518163ffffffff1660e01b815260040160206040518083038186803b158015613bce57600080fd5b505afa158015613be2573d6000803e3d6000fd5b505050506040513d601f19601f82011682018060405250810190613c069190614cb0565b905090565b60011515613c17613b65565b73ffffffffffffffffffffffffffffffffffffffff1663b99b0a0c6040518163ffffffff1660e01b815260040160206040518083038186803b158015613c5c57600080fd5b505afa158015613c70573d6000803e3d6000fd5b505050506040513d601f19601f82011682018060405250810190613c949190614bc9565b73ffffffffffffffffffffffffffffffffffffffff16638dcb4c93846040518263ffffffff1660e01b8152600401613ccc9190615103565b60206040518083038186803b158015613ce457600080fd5b505afa158015613cf8573d6000803e3d6000fd5b505050506040513d601f19601f82011682018060405250810190613d1c9190614bf2565b15151415613d3857613d2d816142dd565b613d3782826143b6565b5b5050565b6000808311156140c457600073ffffffffffffffffffffffffffffffffffffffff168473ffffffffffffffffffffffffffffffffffffffff161415613f0e57348314613d8757600080fd5b6000600160009054906101000a900473ffffffffffffffffffffffffffffffffffffffff1673ffffffffffffffffffffffffffffffffffffffff1684604051613dcf906150ee565b60006040518083038185875af1925050503d8060008114613e0c576040519150601f19603f3d011682016040523d82523d6000602084013e613e11565b606091505b5050905080613e55576040517f08c379a0000000000000000000000000000000000000000000000000000000008152600401613e4c906151e4565b60405180910390fd5b600160009054906101000a900473ffffffffffffffffffffffffffffffffffffffff1673ffffffffffffffffffffffffffffffffffffffff1663a9059cbb84866040518363ffffffff1660e01b8152600401613eb292919061517e565b602060405180830381600087803b158015613ecc57600080fd5b505af1158015613ee0573d6000803e3d6000fd5b505050506040513d601f19601f82011682018060405250810190613f049190614bf2565b50839150506140c3565b60008473ffffffffffffffffffffffffffffffffffffffff166370a08231846040518263ffffffff1660e01b8152600401613f499190615103565b60206040518083038186803b158015613f6157600080fd5b505afa158015613f75573d6000803e3d6000fd5b505050506040513d601f19601f82011682018060405250810190613f999190614d43565b90508473ffffffffffffffffffffffffffffffffffffffff166323b872dd3385876040518463ffffffff1660e01b8152600401613fd893929190615147565b602060405180830381600087803b158015613ff257600080fd5b505af1158015614006573d6000803e3d6000fd5b505050506040513d601f19601f8201168201806040525081019061402a9190614bf2565b50808573ffffffffffffffffffffffffffffffffffffffff166370a08231856040518263ffffffff1660e01b81526004016140659190615103565b60206040518083038186803b15801561407d57600080fd5b505afa158015614091573d6000803e3d6000fd5b505050506040513d601f19601f820116820180604052508101906140b59190614d43565b6140bf9190615411565b9150505b5b9392505050565b60008211156142d857600073ffffffffffffffffffffffffffffffffffffffff168373ffffffffffffffffffffffffffffffffffffffff16141561424857600160009054906101000a900473ffffffffffffffffffffffffffffffffffffffff1673ffffffffffffffffffffffffffffffffffffffff16632e1a7d4d836040518263ffffffff1660e01b81526004016141649190615204565b600060405180830381600087803b15801561417e57600080fd5b505af1158015614192573d6000803e3d6000fd5b5050505060008173ffffffffffffffffffffffffffffffffffffffff16836040516141bc906150ee565b60006040518083038185875af1925050503d80600081146141f9576040519150601f19603f3d011682016040523d82523d6000602084013e6141fe565b606091505b5050905080614242576040517f08c379a0000000000000000000000000000000000000000000000000000000008152600401614239906151e4565b60405180910390fd5b506142d7565b8273ffffffffffffffffffffffffffffffffffffffff1663a9059cbb82846040518363ffffffff1660e01b815260040161428392919061517e565b602060405180830381600087803b15801561429d57600080fd5b505af11580156142b1573d6000803e3d6000fd5b505050506040513d601f19601f820116820180604052508101906142d59190614bf2565b505b5b505050565b600080600780549050905060065481101561432057600783908060018154018082558091505060019003906000526020600020016000909190919091505561439d565b614329836146ab565b60005b60065481101561439b5760078181548110614370577f4e487b7100000000000000000000000000000000000000000000000000000000600052603260045260246000fd5b9060005260206000200154836143869190615330565b9250808061439390615546565b91505061432c565b505b600654826143ab9190615386565b600581905550505050565b6000600554146146a75760008060009054906101000a900473ffffffffffffffffffffffffffffffffffffffff1673ffffffffffffffffffffffffffffffffffffffff166370a08231614407613b65565b73ffffffffffffffffffffffffffffffffffffffff16639d2cc4366040518163ffffffff1660e01b815260040160206040518083038186803b15801561444c57600080fd5b505afa158015614460573d6000803e3d6000fd5b505050506040513d601f19601f820116820180604052508101906144849190614bc9565b6040518263ffffffff1660e01b81526004016144a09190615103565b60206040518083038186803b1580156144b857600080fd5b505afa1580156144cc573d6000803e3d6000fd5b505050506040513d601f19601f820116820180604052508101906144f09190614d43565b9050600081146146a55760006003546004548361450d9190615386565b6145179190615386565b90506000818461452791906153b7565b90506000600554856145399190615330565b826145449190615386565b905061455081876147cb565b614558613b65565b73ffffffffffffffffffffffffffffffffffffffff16639d2cc4366040518163ffffffff1660e01b815260040160206040518083038186803b15801561459d57600080fd5b505afa1580156145b1573d6000803e3d6000fd5b505050506040513d601f19601f820116820180604052508101906145d59190614bc9565b73ffffffffffffffffffffffffffffffffffffffff16637d458baa82886040518363ffffffff1660e01b815260040161460f92919061521f565b600060405180830381600087803b15801561462957600080fd5b505af115801561463d573d6000803e3d6000fd5b505050508573ffffffffffffffffffffffffffffffffffffffff1663fff6cae96040518163ffffffff1660e01b8152600401600060405180830381600087803b15801561468957600080fd5b505af115801561469d573d6000803e3d6000fd5b505050505050505b505b5050565b6000600780549050905060006001826146c49190615411565b90505b600081111561477c5760076001826146df9190615411565b81548110614716577f4e487b7100000000000000000000000000000000000000000000000000000000600052603260045260246000fd5b90600052602060002001546007828154811061475b577f4e487b7100000000000000000000000000000000000000000000000000000000600052603260045260246000fd5b90600052602060002001819055508080614774906154eb565b9150506146c7565b508160076000815481106147b9577f4e487b7100000000000000000000000000000000000000000000000000000000600052603260045260246000fd5b90600052602060002001819055505050565b600060085414156147de57426008819055505b62278d006008546147ef9190615330565b42116148885781600960008373ffffffffffffffffffffffffffffffffffffffff1673ffffffffffffffffffffffffffffffffffffffff168152602001908152602001600020546148409190615330565b600960008373ffffffffffffffffffffffffffffffffffffffff1673ffffffffffffffffffffffffffffffffffffffff168152602001908152602001600020819055506149e6565b42600881905550600960008273ffffffffffffffffffffffffffffffffffffffff1673ffffffffffffffffffffffffffffffffffffffff16815260200190815260200160002054600a60008373ffffffffffffffffffffffffffffffffffffffff1673ffffffffffffffffffffffffffffffffffffffff168152602001908152602001600020819055506000600960008373ffffffffffffffffffffffffffffffffffffffff1673ffffffffffffffffffffffffffffffffffffffff1681526020019081526020016000208190555081600960008373ffffffffffffffffffffffffffffffffffffffff1673ffffffffffffffffffffffffffffffffffffffff168152602001908152602001600020546149a29190615330565b600960008373ffffffffffffffffffffffffffffffffffffffff1673ffffffffffffffffffffffffffffffffffffffff168152602001908152602001600020819055505b5050565b5080546000825590600052602060002090810190614a089190614a0b565b50565b5b80821115614a24576000816000905550600101614a0c565b5090565b6000614a3b614a3684615296565b615271565b905082815260208101848484011115614a5357600080fd5b614a5e8482856154a9565b509392505050565b6000614a79614a74846152c7565b615271565b905082815260208101848484011115614a9157600080fd5b614a9c8482856154a9565b509392505050565b600081359050614ab381615659565b92915050565b600081519050614ac881615659565b92915050565b600081359050614add81615670565b92915050565b600081519050614af281615670565b92915050565b600081519050614b0781615687565b92915050565b600082601f830112614b1e57600080fd5b8135614b2e848260208601614a28565b91505092915050565b600081519050614b468161569e565b92915050565b600082601f830112614b5d57600080fd5b8135614b6d848260208601614a66565b91505092915050565b600081359050614b85816156b5565b92915050565b600081519050614b9a816156b5565b92915050565b600060208284031215614bb257600080fd5b6000614bc084828501614aa4565b91505092915050565b600060208284031215614bdb57600080fd5b6000614be984828501614ab9565b91505092915050565b600060208284031215614c0457600080fd5b6000614c1284828501614ae3565b91505092915050565b600060208284031215614c2d57600080fd5b6000614c3b84828501614af8565b91505092915050565b60008060408385031215614c5757600080fd5b600083013567ffffffffffffffff811115614c7157600080fd5b614c7d85828601614b0d565b925050602083013567ffffffffffffffff811115614c9a57600080fd5b614ca685828601614b0d565b9150509250929050565b600060208284031215614cc257600080fd5b6000614cd084828501614b37565b91505092915050565b600060208284031215614ceb57600080fd5b600082013567ffffffffffffffff811115614d0557600080fd5b614d1184828501614b4c565b91505092915050565b600060208284031215614d2c57600080fd5b6000614d3a84828501614b76565b91505092915050565b600060208284031215614d5557600080fd5b6000614d6384828501614b8b565b91505092915050565b60008060408385031215614d7f57600080fd5b6000614d8d85828601614b76565b9250506020614d9e85828601614aa4565b9150509250929050565b600080600060608486031215614dbd57600080fd5b6000614dcb86828701614b76565b9350506020614ddc86828701614aa4565b9250506040614ded86828701614aa4565b9150509250925092565b60008060008060808587031215614e0d57600080fd5b6000614e1b87828801614b76565b9450506020614e2c87828801614aa4565b9350506040614e3d87828801614aa4565b9250506060614e4e87828801614aa4565b91505092959194509250565b600080600060608486031215614e6f57600080fd5b6000614e7d86828701614b76565b9350506020614e8e86828701614ace565b9250506040614e9f86828701614aa4565b9150509250925092565b60008060008060808587031215614ebf57600080fd5b6000614ecd87828801614b76565b9450506020614ede87828801614ace565b9350506040614eef87828801614aa4565b9250506060614f0087828801614aa4565b91505092959194509250565b60008060408385031215614f1f57600080fd5b6000614f2d85828601614b8b565b9250506020614f3e85828601614b8b565b9150509250929050565b600080600060608486031215614f5d57600080fd5b6000614f6b86828701614b76565b9350506020614f7c86828701614b76565b9250506040614f8d86828701614aa4565b9150509250925092565b60008060008060808587031215614fad57600080fd5b6000614fbb87828801614b76565b9450506020614fcc87828801614b76565b9350506040614fdd87828801614aa4565b9250506060614fee87828801614aa4565b91505092959194509250565b61500381615445565b82525050565b61501281615457565b82525050565b6000615023826152f8565b61502d8185615303565b935061503d8185602086016154b8565b6150468161561c565b840191505092915050565b600061505c826152f8565b6150668185615314565b93506150768185602086016154b8565b80840191505092915050565b600061508f60058361531f565b915061509a8261562d565b602082019050919050565b60006150b2600083615314565b91506150bd82615656565b600082019050919050565b6150d18161549f565b82525050565b60006150e38284615051565b915081905092915050565b60006150f9826150a5565b9150819050919050565b60006020820190506151186000830184614ffa565b92915050565b60006040820190506151336000830185614ffa565b6151406020830184614ffa565b9392505050565b600060608201905061515c6000830186614ffa565b6151696020830185614ffa565b61517660408301846150c8565b949350505050565b60006040820190506151936000830185614ffa565b6151a060208301846150c8565b9392505050565b60006020820190506151bc6000830184615009565b92915050565b600060208201905081810360008301526151dc8184615018565b905092915050565b600060208201905081810360008301526151fd81615082565b9050919050565b600060208201905061521960008301846150c8565b92915050565b600060408201905061523460008301856150c8565b6152416020830184614ffa565b9392505050565b600060408201905061525d60008301856150c8565b61526a60208301846150c8565b9392505050565b600061527b61528c565b90506152878282615515565b919050565b6000604051905090565b600067ffffffffffffffff8211156152b1576152b06155ed565b5b6152ba8261561c565b9050602081019050919050565b600067ffffffffffffffff8211156152e2576152e16155ed565b5b6152eb8261561c565b9050602081019050919050565b600081519050919050565b600082825260208201905092915050565b600081905092915050565b600082825260208201905092915050565b600061533b8261549f565b91506153468361549f565b9250827fffffffffffffffffffffffffffffffffffffffffffffffffffffffffffffffff0382111561537b5761537a61558f565b5b828201905092915050565b60006153918261549f565b915061539c8361549f565b9250826153ac576153ab6155be565b5b828204905092915050565b60006153c28261549f565b91506153cd8361549f565b9250817fffffffffffffffffffffffffffffffffffffffffffffffffffffffffffffffff04831182151516156154065761540561558f565b5b828202905092915050565b600061541c8261549f565b91506154278361549f565b92508282101561543a5761543961558f565b5b828203905092915050565b60006154508261547f565b9050919050565b60008115159050919050565b6000819050919050565b600061547882615445565b9050919050565b600073ffffffffffffffffffffffffffffffffffffffff82169050919050565b6000819050919050565b82818337600083830152505050565b60005b838110156154d65780820151818401526020810190506154bb565b838111156154e5576000848401525b50505050565b60006154f68261549f565b9150600082141561550a5761550961558f565b5b600182039050919050565b61551e8261561c565b810181811067ffffffffffffffff8211171561553d5761553c6155ed565b5b80604052505050565b60006155518261549f565b91507fffffffffffffffffffffffffffffffffffffffffffffffffffffffffffffffff8214156155845761558361558f565b5b600182019050919050565b7f4e487b7100000000000000000000000000000000000000000000000000000000600052601160045260246000fd5b7f4e487b7100000000000000000000000000000000000000000000000000000000600052601260045260246000fd5b7f4e487b7100000000000000000000000000000000000000000000000000000000600052604160045260246000fd5b6000601f19601f8301169050919050565b7f2173656e64000000000000000000000000000000000000000000000000000000600082015250565b50565b61566281615445565b811461566d57600080fd5b50565b61567981615457565b811461568457600080fd5b50565b61569081615463565b811461569b57600080fd5b50565b6156a78161546d565b81146156b257600080fd5b50565b6156be8161549f565b81146156c957600080fd5b5056fea26469706673582212208468c4a5694060c2bce344b0b7148d67a38d2906ae725e75992be52312f7291164736f6c63430008030033",
  "linkReferences": {},
  "deployedLinkReferences": {}
}