{
  "_format": "hh-sol-artifact-1",
  "contractName": "Router",
  "sourceName": "contracts/Router.sol",
  "abi": [
    {
      "inputs": [
        {
          "internalType": "address",
          "name": "_base",
          "type": "address"
        },
        {
          "internalType": "address",
          "name": "_wbnb",
          "type": "address"
        }
      ],
      "stateMutability": "nonpayable",
      "type": "constructor"
    },
    {
      "inputs": [],
      "name": "BASE",
      "outputs": [
        {
          "internalType": "address",
          "name": "",
          "type": "address"
        }
      ],
      "stateMutability": "view",
      "type": "function"
    },
    {
      "inputs": [],
      "name": "DEPLOYER",
      "outputs": [
        {
          "internalType": "address",
          "name": "",
          "type": "address"
        }
      ],
      "stateMutability": "view",
      "type": "function"
    },
    {
      "inputs": [],
      "name": "WBNB",
      "outputs": [
        {
          "internalType": "address",
          "name": "",
          "type": "address"
        }
      ],
      "stateMutability": "view",
      "type": "function"
    },
    {
      "inputs": [
        {
          "internalType": "uint256",
          "name": "inputBase",
          "type": "uint256"
        },
        {
          "internalType": "uint256",
          "name": "inputToken",
          "type": "uint256"
        },
        {
          "internalType": "address",
          "name": "token",
          "type": "address"
        }
      ],
      "name": "addLiquidity",
      "outputs": [
        {
          "internalType": "uint256",
          "name": "units",
          "type": "uint256"
        }
      ],
      "stateMutability": "payable",
      "type": "function"
    },
    {
      "inputs": [
        {
          "internalType": "uint256",
          "name": "inputBase",
          "type": "uint256"
        },
        {
          "internalType": "uint256",
          "name": "inputToken",
          "type": "uint256"
        },
        {
          "internalType": "address",
          "name": "token",
          "type": "address"
        },
        {
          "internalType": "address",
          "name": "member",
          "type": "address"
        }
      ],
      "name": "addLiquidityForMember",
      "outputs": [
        {
          "internalType": "uint256",
          "name": "units",
          "type": "uint256"
        }
      ],
      "stateMutability": "payable",
      "type": "function"
    },
    {
      "inputs": [
        {
          "internalType": "uint256",
          "name": "inputToken",
          "type": "uint256"
        },
        {
          "internalType": "bool",
          "name": "fromBase",
          "type": "bool"
        },
        {
          "internalType": "address",
          "name": "token",
          "type": "address"
        }
      ],
      "name": "addLiquiditySingle",
      "outputs": [
        {
          "internalType": "uint256",
          "name": "units",
          "type": "uint256"
        }
      ],
      "stateMutability": "payable",
      "type": "function"
    },
    {
      "inputs": [
        {
          "internalType": "uint256",
          "name": "inputToken",
          "type": "uint256"
        },
        {
          "internalType": "bool",
          "name": "fromBase",
          "type": "bool"
        },
        {
          "internalType": "address",
          "name": "token",
          "type": "address"
        },
        {
          "internalType": "address",
          "name": "member",
          "type": "address"
        }
      ],
      "name": "addLiquiditySingleForMember",
      "outputs": [
        {
          "internalType": "uint256",
          "name": "units",
          "type": "uint256"
        }
      ],
      "stateMutability": "payable",
      "type": "function"
    },
    {
      "inputs": [
        {
          "internalType": "uint256",
          "name": "amount",
          "type": "uint256"
        },
        {
          "internalType": "address",
          "name": "token",
          "type": "address"
        },
        {
          "internalType": "address",
          "name": "member",
          "type": "address"
        }
      ],
      "name": "buyTo",
      "outputs": [
        {
          "internalType": "uint256",
          "name": "",
          "type": "uint256"
        }
      ],
      "stateMutability": "nonpayable",
      "type": "function"
    },
    {
      "inputs": [
        {
          "internalType": "uint256",
          "name": "_size",
          "type": "uint256"
        }
      ],
      "name": "changeArrayFeeSize",
      "outputs": [],
      "stateMutability": "nonpayable",
      "type": "function"
    },
    {
      "inputs": [
        {
          "internalType": "uint256",
          "name": "_eraLength",
          "type": "uint256"
        }
      ],
      "name": "changeEraLength",
      "outputs": [],
      "stateMutability": "nonpayable",
      "type": "function"
    },
    {
      "inputs": [
        {
          "internalType": "uint256",
          "name": "_maxtrades",
          "type": "uint256"
        }
      ],
      "name": "changeMaxTrades",
      "outputs": [],
      "stateMutability": "nonpayable",
      "type": "function"
    },
    {
      "inputs": [
        {
          "internalType": "address",
          "name": "pool",
          "type": "address"
        }
      ],
      "name": "currentPoolRevenue",
      "outputs": [
        {
          "internalType": "uint256",
          "name": "",
          "type": "uint256"
        }
      ],
      "stateMutability": "view",
      "type": "function"
    },
    {
      "inputs": [
        {
          "internalType": "bytes",
          "name": "part1",
          "type": "bytes"
        },
        {
          "internalType": "bytes",
          "name": "part2",
          "type": "bytes"
        }
      ],
      "name": "isEqual",
      "outputs": [
        {
          "internalType": "bool",
          "name": "equal",
          "type": "bool"
        }
      ],
      "stateMutability": "pure",
      "type": "function"
    },
    {
      "inputs": [
        {
          "internalType": "address",
          "name": "",
          "type": "address"
        }
      ],
      "name": "mapAddress_30DayDividends",
      "outputs": [
        {
          "internalType": "uint256",
          "name": "",
          "type": "uint256"
        }
      ],
      "stateMutability": "view",
      "type": "function"
    },
    {
      "inputs": [
        {
          "internalType": "address",
          "name": "",
          "type": "address"
        }
      ],
      "name": "mapAddress_Past30DayPoolDividends",
      "outputs": [
        {
          "internalType": "uint256",
          "name": "",
          "type": "uint256"
        }
      ],
      "stateMutability": "view",
      "type": "function"
    },
    {
      "inputs": [],
      "name": "nextEraTime",
      "outputs": [
        {
          "internalType": "uint256",
          "name": "",
          "type": "uint256"
        }
      ],
      "stateMutability": "view",
      "type": "function"
    },
    {
      "inputs": [],
      "name": "normalAverageFee",
      "outputs": [
        {
          "internalType": "uint256",
          "name": "",
          "type": "uint256"
        }
      ],
      "stateMutability": "view",
      "type": "function"
    },
    {
      "inputs": [
        {
          "internalType": "address",
          "name": "pool",
          "type": "address"
        }
      ],
      "name": "pastPoolRevenue",
      "outputs": [
        {
          "internalType": "uint256",
          "name": "",
          "type": "uint256"
        }
      ],
      "stateMutability": "view",
      "type": "function"
    },
    {
      "inputs": [
        {
          "internalType": "uint256",
          "name": "basisPoints",
          "type": "uint256"
        },
        {
          "internalType": "address",
          "name": "token",
          "type": "address"
        }
      ],
      "name": "removeLiquidity",
      "outputs": [
        {
          "internalType": "uint256",
          "name": "outputBase",
          "type": "uint256"
        },
        {
          "internalType": "uint256",
          "name": "outputToken",
          "type": "uint256"
        }
      ],
      "stateMutability": "nonpayable",
      "type": "function"
    },
    {
      "inputs": [
        {
          "internalType": "uint256",
          "name": "units",
          "type": "uint256"
        },
        {
          "internalType": "address",
          "name": "token",
          "type": "address"
        }
      ],
      "name": "removeLiquidityExact",
      "outputs": [
        {
          "internalType": "uint256",
          "name": "outputBase",
          "type": "uint256"
        },
        {
          "internalType": "uint256",
          "name": "outputToken",
          "type": "uint256"
        }
      ],
      "stateMutability": "nonpayable",
      "type": "function"
    },
    {
      "inputs": [
        {
          "internalType": "uint256",
          "name": "units",
          "type": "uint256"
        },
        {
          "internalType": "bool",
          "name": "toBase",
          "type": "bool"
        },
        {
          "internalType": "address",
          "name": "token",
          "type": "address"
        }
      ],
      "name": "removeLiquiditySingle",
      "outputs": [
        {
          "internalType": "uint256",
          "name": "fee",
          "type": "uint256"
        }
      ],
      "stateMutability": "nonpayable",
      "type": "function"
    },
    {
      "inputs": [],
      "name": "secondsPerEra",
      "outputs": [
        {
          "internalType": "uint256",
          "name": "",
          "type": "uint256"
        }
      ],
      "stateMutability": "view",
      "type": "function"
    },
    {
      "inputs": [
        {
          "internalType": "uint256",
          "name": "amount",
          "type": "uint256"
        },
        {
          "internalType": "address",
          "name": "token",
          "type": "address"
        },
        {
          "internalType": "address",
          "name": "member",
          "type": "address"
        }
      ],
      "name": "sellTo",
      "outputs": [
        {
          "internalType": "uint256",
          "name": "",
          "type": "uint256"
        }
      ],
      "stateMutability": "payable",
      "type": "function"
    },
    {
      "inputs": [
        {
          "internalType": "string",
          "name": "s",
          "type": "string"
        }
      ],
      "name": "stringToBytes",
      "outputs": [
        {
          "internalType": "bytes",
          "name": "",
          "type": "bytes"
        }
      ],
      "stateMutability": "pure",
      "type": "function"
    },
    {
      "inputs": [
        {
          "internalType": "uint256",
          "name": "inputAmount",
          "type": "uint256"
        },
        {
          "internalType": "address",
          "name": "fromToken",
          "type": "address"
        },
        {
          "internalType": "address",
          "name": "toToken",
          "type": "address"
        }
      ],
      "name": "swap",
      "outputs": [],
      "stateMutability": "payable",
      "type": "function"
    },
    {
      "inputs": [
        {
          "internalType": "uint256",
          "name": "inputAmount",
          "type": "uint256"
        },
        {
          "internalType": "address",
          "name": "fromToken",
          "type": "address"
        },
        {
          "internalType": "address",
          "name": "toSynth",
          "type": "address"
        }
      ],
      "name": "swapAssetToSynth",
      "outputs": [
        {
          "internalType": "uint256",
          "name": "outputSynth",
          "type": "uint256"
        },
        {
          "internalType": "uint256",
          "name": "fee",
          "type": "uint256"
        }
      ],
      "stateMutability": "payable",
      "type": "function"
    },
    {
      "inputs": [
        {
          "internalType": "uint256",
          "name": "inputAmount",
          "type": "uint256"
        },
        {
          "internalType": "address",
          "name": "fromSynth",
          "type": "address"
        },
        {
          "internalType": "address",
          "name": "toToken",
          "type": "address"
        }
      ],
      "name": "swapSynthToAsset",
      "outputs": [
        {
          "internalType": "uint256",
          "name": "outputAmount",
          "type": "uint256"
        },
        {
          "internalType": "uint256",
          "name": "fee",
          "type": "uint256"
        }
      ],
      "stateMutability": "nonpayable",
      "type": "function"
    },
    {
      "inputs": [
        {
          "internalType": "uint256",
          "name": "inputAmount",
          "type": "uint256"
        },
        {
          "internalType": "address",
          "name": "fromToken",
          "type": "address"
        },
        {
          "internalType": "address",
          "name": "toToken",
          "type": "address"
        },
        {
          "internalType": "address",
          "name": "member",
          "type": "address"
        }
      ],
      "name": "swapTo",
      "outputs": [],
      "stateMutability": "payable",
      "type": "function"
    },
    {
      "inputs": [
        {
          "internalType": "uint256",
          "name": "unitsInput",
          "type": "uint256"
        },
        {
          "internalType": "address",
          "name": "fromPool",
          "type": "address"
        },
        {
          "internalType": "address",
          "name": "toPool",
          "type": "address"
        }
      ],
      "name": "zapLiquidity",
      "outputs": [
        {
          "internalType": "uint256",
          "name": "unitsOutput",
          "type": "uint256"
        }
      ],
      "stateMutability": "nonpayable",
      "type": "function"
    }
  ],
  "bytecode": "0x60806040523480156200001157600080fd5b50604051620058e9380380620058e9833981810160405281019062000037919062000138565b816000806101000a81548173ffffffffffffffffffffffffffffffffffffffff021916908373ffffffffffffffffffffffffffffffffffffffff16021790555080600160006101000a81548173ffffffffffffffffffffffffffffffffffffffff021916908373ffffffffffffffffffffffffffffffffffffffff1602179055506014600881905550601e60068190555060646005819055506000600a8190555033600260006101000a81548173ffffffffffffffffffffffffffffffffffffffff021916908373ffffffffffffffffffffffffffffffffffffffff1602179055505050620001c7565b6000815190506200013281620001ad565b92915050565b600080604083850312156200014c57600080fd5b60006200015c8582860162000121565b92505060206200016f8582860162000121565b9150509250929050565b600062000186826200018d565b9050919050565b600073ffffffffffffffffffffffffffffffffffffffff82169050919050565b620001b88162000179565b8114620001c457600080fd5b50565b61571280620001d76000396000f3fe6080604052600436106101c25760003560e01c80638dd95002116100f7578063b45e1dbc11610095578063e106fb4b11610064578063e106fb4b146106ac578063eb116111146106e9578063ec342ad014610714578063ecf3ef921461073f576101c2565b8063b45e1dbc146105c9578063c1b8411a14610606578063c8c1fb7514610631578063cbb3a14a1461066f576101c2565b8063a1cd6aa5116100d1578063a1cd6aa51461051d578063ab1485ec1461055b578063ab87d7be14610577578063b02d247a146105a0576101c2565b80638dd950021461048557806393cac685146104b05780639921c266146104e0576101c2565b8063451918db1161016457806369ab0a8e1161013e57806369ab0a8e146103ca5780636b92a3b6146103fa5780636d54435d1461042557806387b21efc14610455576101c2565b8063451918db14610327578063519fc9c91461036457806352e5c5c71461038d576101c2565b80632b7f0923116101a05780632b7f09231461026d5780633173ec3c14610289578063331813ee146102ba57806334359808146102ea576101c2565b806305fe138b146101c7578063090bbb01146102055780632ac2748214610230575b600080fd5b3480156101d357600080fd5b506101ee60048036038101906101e99190614df9565b61077c565b6040516101fc929190615292565b60405180910390f35b34801561021157600080fd5b5061021a610a57565b604051610227919061524e565b60405180910390f35b34801561023c57600080fd5b5061025760048036038101906102529190614c2d565b610a5d565b604051610264919061524e565b60405180910390f35b61028760048036038101906102829190614e35565b610aa6565b005b6102a3600480360381019061029e9190614e35565b610ab7565b6040516102b1929190615292565b60405180910390f35b6102d460048036038101906102cf9190614f36565b610f99565b6040516102e1919061524e565b60405180910390f35b3480156102f657600080fd5b50610311600480360381019061030c9190614cd1565b6113bc565b60405161031e9190615211565b60405180910390f35b34801561033357600080fd5b5061034e60048036038101906103499190614c2d565b611474565b60405161035b919061524e565b60405180910390f35b34801561037057600080fd5b5061038b60048036038101906103869190614da7565b61148c565b005b34801561039957600080fd5b506103b460048036038101906103af9190614ee7565b6115aa565b6040516103c1919061524e565b60405180910390f35b6103e460048036038101906103df9190614e35565b611d81565b6040516103f1919061524e565b60405180910390f35b34801561040657600080fd5b5061040f611f66565b60405161041c919061524e565b60405180910390f35b61043f600480360381019061043a9190614ee7565b611f6c565b60405161044c919061524e565b60405180910390f35b61046f600480360381019061046a9190614fd5565b611f83565b60405161047c919061524e565b60405180910390f35b34801561049157600080fd5b5061049a611f9a565b6040516104a7919061516d565b60405180910390f35b6104ca60048036038101906104c59190615024565b611fc0565b6040516104d7919061524e565b60405180910390f35b3480156104ec57600080fd5b5061050760048036038101906105029190614c2d565b6121a0565b604051610514919061524e565b60405180910390f35b34801561052957600080fd5b50610544600480360381019061053f9190614e35565b6121e9565b604051610552929190615292565b60405180910390f35b61057560048036038101906105709190614e84565b612899565b005b34801561058357600080fd5b5061059e60048036038101906105999190614da7565b612be0565b005b3480156105ac57600080fd5b506105c760048036038101906105c29190614da7565b612cfe565b005b3480156105d557600080fd5b506105f060048036038101906105eb9190614e35565b612e1c565b6040516105fd919061524e565b60405180910390f35b34801561061257600080fd5b5061061b613454565b604051610628919061516d565b60405180910390f35b34801561063d57600080fd5b5061065860048036038101906106539190614df9565b61347a565b604051610666929190615292565b60405180910390f35b34801561067b57600080fd5b5061069660048036038101906106919190614c2d565b613972565b6040516106a3919061524e565b60405180910390f35b3480156106b857600080fd5b506106d360048036038101906106ce9190614d66565b61398a565b6040516106e0919061522c565b60405180910390f35b3480156106f557600080fd5b506106fe613994565b60405161070b919061524e565b60405180910390f35b34801561072057600080fd5b5061072961399a565b604051610736919061516d565b60405180910390f35b34801561074b57600080fd5b5061076660048036038101906107619190614e35565b6139be565b604051610773919061524e565b60405180910390f35b60008060008411801561079157506127108411155b61079a57600080fd5b60006107a4613c10565b73ffffffffffffffffffffffffffffffffffffffff16637b0e5c456040518163ffffffff1660e01b815260040160206040518083038186803b1580156107e957600080fd5b505afa1580156107fd573d6000803e3d6000fd5b505050506040513d601f19601f820116820180604052508101906108219190614c56565b73ffffffffffffffffffffffffffffffffffffffff1663714270ab86610845613c10565b73ffffffffffffffffffffffffffffffffffffffff1663b99b0a0c6040518163ffffffff1660e01b815260040160206040518083038186803b15801561088a57600080fd5b505afa15801561089e573d6000803e3d6000fd5b505050506040513d601f19601f820116820180604052508101906108c29190614c56565b73ffffffffffffffffffffffffffffffffffffffff1663bbe4f6db886040518263ffffffff1660e01b81526004016108fa919061516d565b60206040518083038186803b15801561091257600080fd5b505afa158015610926573d6000803e3d6000fd5b505050506040513d601f19601f8201168201806040525081019061094a9190614c56565b73ffffffffffffffffffffffffffffffffffffffff166370a08231336040518263ffffffff1660e01b8152600401610982919061516d565b60206040518083038186803b15801561099a57600080fd5b505afa1580156109ae573d6000803e3d6000fd5b505050506040513d601f19601f820116820180604052508101906109d29190614dd0565b6040518363ffffffff1660e01b81526004016109ef929190615292565b60206040518083038186803b158015610a0757600080fd5b505afa158015610a1b573d6000803e3d6000fd5b505050506040513d601f19601f82011682018060405250810190610a3f9190614dd0565b9050610a4b818561347a565b92509250509250929050565b60045481565b6000600b60008373ffffffffffffffffffffffffffffffffffffffff1673ffffffffffffffffffffffffffffffffffffffff168152602001908152602001600020549050919050565b610ab283838333612899565b505050565b6000808273ffffffffffffffffffffffffffffffffffffffff168473ffffffffffffffffffffffffffffffffffffffff161415610af357600080fd5b60008373ffffffffffffffffffffffffffffffffffffffff1663484920316040518163ffffffff1660e01b815260040160206040518083038186803b158015610b3b57600080fd5b505afa158015610b4f573d6000803e3d6000fd5b505050506040513d601f19601f82011682018060405250810190610b739190614c56565b90506000610b7f613c10565b73ffffffffffffffffffffffffffffffffffffffff1663b99b0a0c6040518163ffffffff1660e01b815260040160206040518083038186803b158015610bc457600080fd5b505afa158015610bd8573d6000803e3d6000fd5b505050506040513d601f19601f82011682018060405250810190610bfc9190614c56565b73ffffffffffffffffffffffffffffffffffffffff1663bbe4f6db836040518263ffffffff1660e01b8152600401610c34919061516d565b60206040518083038186803b158015610c4c57600080fd5b505afa158015610c60573d6000803e3d6000fd5b505050506040513d601f19601f82011682018060405250810190610c849190614c56565b905060008054906101000a900473ffffffffffffffffffffffffffffffffffffffff1673ffffffffffffffffffffffffffffffffffffffff168673ffffffffffffffffffffffffffffffffffffffff1614610e4057610ce4878730611d81565b5060008054906101000a900473ffffffffffffffffffffffffffffffffffffffff1673ffffffffffffffffffffffffffffffffffffffff1663a9059cbb8260008054906101000a900473ffffffffffffffffffffffffffffffffffffffff1673ffffffffffffffffffffffffffffffffffffffff166370a08231306040518263ffffffff1660e01b8152600401610d7b919061516d565b60206040518083038186803b158015610d9357600080fd5b505afa158015610da7573d6000803e3d6000fd5b505050506040513d601f19601f82011682018060405250810190610dcb9190614dd0565b6040518363ffffffff1660e01b8152600401610de89291906151e8565b602060405180830381600087803b158015610e0257600080fd5b505af1158015610e16573d6000803e3d6000fd5b505050506040513d601f19601f82011682018060405250810190610e3a9190614c7f565b50610ef1565b60008054906101000a900473ffffffffffffffffffffffffffffffffffffffff1673ffffffffffffffffffffffffffffffffffffffff166323b872dd33838a6040518463ffffffff1660e01b8152600401610e9d939291906151b1565b602060405180830381600087803b158015610eb757600080fd5b505af1158015610ecb573d6000803e3d6000fd5b505050506040513d601f19601f82011682018060405250810190610eef9190614c7f565b505b8073ffffffffffffffffffffffffffffffffffffffff16635c53738686336040518363ffffffff1660e01b8152600401610f2c929190615188565b6040805180830381600087803b158015610f4557600080fd5b505af1158015610f59573d6000803e3d6000fd5b505050506040513d601f19601f82011682018060405250810190610f7d9190614f99565b8094508195505050610f8f8184613cb6565b5050935093915050565b6000808511610fa757600080fd5b6000610fb1613c10565b73ffffffffffffffffffffffffffffffffffffffff1663b99b0a0c6040518163ffffffff1660e01b815260040160206040518083038186803b158015610ff657600080fd5b505afa15801561100a573d6000803e3d6000fd5b505050506040513d601f19601f8201168201806040525081019061102e9190614c56565b73ffffffffffffffffffffffffffffffffffffffff1663bbe4f6db856040518263ffffffff1660e01b8152600401611066919061516d565b60206040518083038186803b15801561107e57600080fd5b505afa158015611092573d6000803e3d6000fd5b505050506040513d601f19601f820116820180604052508101906110b69190614c56565b90506000849050600073ffffffffffffffffffffffffffffffffffffffff168573ffffffffffffffffffffffffffffffffffffffff16141561111857600160009054906101000a900473ffffffffffffffffffffffffffffffffffffffff1690505b851561128a5761114960008054906101000a900473ffffffffffffffffffffffffffffffffffffffff168830613de7565b5060008054906101000a900473ffffffffffffffffffffffffffffffffffffffff1673ffffffffffffffffffffffffffffffffffffffff1663a9059cbb83896040518363ffffffff1660e01b81526004016111a59291906151e8565b602060405180830381600087803b1580156111bf57600080fd5b505af11580156111d3573d6000803e3d6000fd5b505050506040513d601f19601f820116820180604052508101906111f79190614c7f565b508173ffffffffffffffffffffffffffffffffffffffff166386d5f618856040518263ffffffff1660e01b8152600401611231919061516d565b602060405180830381600087803b15801561124b57600080fd5b505af115801561125f573d6000803e3d6000fd5b505050506040513d601f19601f820116820180604052508101906112839190614dd0565b92506113b2565b611295858830613de7565b508073ffffffffffffffffffffffffffffffffffffffff1663a9059cbb83896040518363ffffffff1660e01b81526004016112d19291906151e8565b602060405180830381600087803b1580156112eb57600080fd5b505af11580156112ff573d6000803e3d6000fd5b505050506040513d601f19601f820116820180604052508101906113239190614c7f565b508173ffffffffffffffffffffffffffffffffffffffff166386d5f618856040518263ffffffff1660e01b815260040161135d919061516d565b602060405180830381600087803b15801561137757600080fd5b505af115801561138b573d6000803e3d6000fd5b505050506040513d601f19601f820116820180604052508101906113af9190614dd0565b92505b5050949350505050565b60006002826040516113ce9190615141565b602060405180830381855afa1580156113eb573d6000803e3d6000fd5b5050506040513d601f19601f8201168201806040525081019061140e9190614ca8565b60028460405161141e9190615141565b602060405180830381855afa15801561143b573d6000803e3d6000fd5b5050506040513d601f19601f8201168201806040525081019061145e9190614ca8565b141561146d576001905061146e565b5b92915050565b600c6020528060005260406000206000915090505481565b611494613c10565b73ffffffffffffffffffffffffffffffffffffffff166398fabd3a6040518163ffffffff1660e01b815260040160206040518083038186803b1580156114d957600080fd5b505afa1580156114ed573d6000803e3d6000fd5b505050506040513d601f19601f820116820180604052508101906115119190614c56565b73ffffffffffffffffffffffffffffffffffffffff163373ffffffffffffffffffffffffffffffffffffffff1614806115975750600260009054906101000a900473ffffffffffffffffffffffffffffffffffffffff1673ffffffffffffffffffffffffffffffffffffffff163373ffffffffffffffffffffffffffffffffffffffff16145b6115a057600080fd5b8060058190555050565b6000806115b5613c10565b73ffffffffffffffffffffffffffffffffffffffff1663b99b0a0c6040518163ffffffff1660e01b815260040160206040518083038186803b1580156115fa57600080fd5b505afa15801561160e573d6000803e3d6000fd5b505050506040513d601f19601f820116820180604052508101906116329190614c56565b73ffffffffffffffffffffffffffffffffffffffff1663bbe4f6db846040518263ffffffff1660e01b815260040161166a919061516d565b60206040518083038186803b15801561168257600080fd5b505afa158015611696573d6000803e3d6000fd5b505050506040513d601f19601f820116820180604052508101906116ba9190614c56565b9050600115156116c8613c10565b73ffffffffffffffffffffffffffffffffffffffff1663b99b0a0c6040518163ffffffff1660e01b815260040160206040518083038186803b15801561170d57600080fd5b505afa158015611721573d6000803e3d6000fd5b505050506040513d601f19601f820116820180604052508101906117459190614c56565b73ffffffffffffffffffffffffffffffffffffffff16635b16ebb7836040518263ffffffff1660e01b815260040161177d919061516d565b602060405180830381600087803b15801561179757600080fd5b505af11580156117ab573d6000803e3d6000fd5b505050506040513d601f19601f820116820180604052508101906117cf9190614c7f565b1515146117db57600080fd5b60003390508173ffffffffffffffffffffffffffffffffffffffff166323b872dd8284896040518463ffffffff1660e01b815260040161181d939291906151b1565b602060405180830381600087803b15801561183757600080fd5b505af115801561184b573d6000803e3d6000fd5b505050506040513d601f19601f8201168201806040525081019061186f9190614c7f565b5060008273ffffffffffffffffffffffffffffffffffffffff1663a7f437796040518163ffffffff1660e01b81526004016040805180830381600087803b1580156118b957600080fd5b505af11580156118cd573d6000803e3d6000fd5b505050506040513d601f19601f820116820180604052508101906118f19190614f99565b9150506000859050600073ffffffffffffffffffffffffffffffffffffffff168673ffffffffffffffffffffffffffffffffffffffff16141561195457600160009054906101000a900473ffffffffffffffffffffffffffffffffffffffff1690505b8615611b73578073ffffffffffffffffffffffffffffffffffffffff1663a9059cbb85846040518363ffffffff1660e01b81526004016119959291906151e8565b602060405180830381600087803b1580156119af57600080fd5b505af11580156119c3573d6000803e3d6000fd5b505050506040513d601f19601f820116820180604052508101906119e79190614c7f565b5060008473ffffffffffffffffffffffffffffffffffffffff166303438dd060008054906101000a900473ffffffffffffffffffffffffffffffffffffffff166040518263ffffffff1660e01b8152600401611a43919061516d565b6040805180830381600087803b158015611a5c57600080fd5b505af1158015611a70573d6000803e3d6000fd5b505050506040513d601f19601f82011682018060405250810190611a949190614f99565b915050809550611b6d60008054906101000a900473ffffffffffffffffffffffffffffffffffffffff1660008054906101000a900473ffffffffffffffffffffffffffffffffffffffff1673ffffffffffffffffffffffffffffffffffffffff166370a08231306040518263ffffffff1660e01b8152600401611b17919061516d565b60206040518083038186803b158015611b2f57600080fd5b505afa158015611b43573d6000803e3d6000fd5b505050506040513d601f19601f82011682018060405250810190611b679190614dd0565b86614140565b50611d76565b60008054906101000a900473ffffffffffffffffffffffffffffffffffffffff1673ffffffffffffffffffffffffffffffffffffffff1663a9059cbb8560008054906101000a900473ffffffffffffffffffffffffffffffffffffffff1673ffffffffffffffffffffffffffffffffffffffff166370a08231306040518263ffffffff1660e01b8152600401611c09919061516d565b60206040518083038186803b158015611c2157600080fd5b505afa158015611c35573d6000803e3d6000fd5b505050506040513d601f19601f82011682018060405250810190611c599190614dd0565b6040518363ffffffff1660e01b8152600401611c769291906151e8565b602060405180830381600087803b158015611c9057600080fd5b505af1158015611ca4573d6000803e3d6000fd5b505050506040513d601f19601f82011682018060405250810190611cc89190614c7f565b506000808573ffffffffffffffffffffffffffffffffffffffff166303438dd0846040518263ffffffff1660e01b8152600401611d05919061516d565b6040805180830381600087803b158015611d1e57600080fd5b505af1158015611d32573d6000803e3d6000fd5b505050506040513d601f19601f82011682018060405250810190611d569190614f99565b91509150809650611d73888584611d6d9190615369565b87614140565b50505b505050509392505050565b600080611d8c613c10565b73ffffffffffffffffffffffffffffffffffffffff1663b99b0a0c6040518163ffffffff1660e01b815260040160206040518083038186803b158015611dd157600080fd5b505afa158015611de5573d6000803e3d6000fd5b505050506040513d601f19601f82011682018060405250810190611e099190614c56565b73ffffffffffffffffffffffffffffffffffffffff1663bbe4f6db856040518263ffffffff1660e01b8152600401611e41919061516d565b60206040518083038186803b158015611e5957600080fd5b505afa158015611e6d573d6000803e3d6000fd5b505050506040513d601f19601f82011682018060405250810190611e919190614c56565b9050611e9e848683613de7565b5060008173ffffffffffffffffffffffffffffffffffffffff16632783e4a960008054906101000a900473ffffffffffffffffffffffffffffffffffffffff16866040518363ffffffff1660e01b8152600401611efc929190615188565b6040805180830381600087803b158015611f1557600080fd5b505af1158015611f29573d6000803e3d6000fd5b505050506040513d601f19601f82011682018060405250810190611f4d9190614f99565b915050611f5a8282613cb6565b80925050509392505050565b60035481565b6000611f7a84848433610f99565b90509392505050565b6000611f9184848433611fc0565b90509392505050565b600160009054906101000a900473ffffffffffffffffffffffffffffffffffffffff1681565b600080611fcb613c10565b73ffffffffffffffffffffffffffffffffffffffff1663b99b0a0c6040518163ffffffff1660e01b815260040160206040518083038186803b15801561201057600080fd5b505afa158015612024573d6000803e3d6000fd5b505050506040513d601f19601f820116820180604052508101906120489190614c56565b73ffffffffffffffffffffffffffffffffffffffff1663bbe4f6db856040518263ffffffff1660e01b8152600401612080919061516d565b60206040518083038186803b15801561209857600080fd5b505afa1580156120ac573d6000803e3d6000fd5b505050506040513d601f19601f820116820180604052508101906120d09190614c56565b90506120fd60008054906101000a900473ffffffffffffffffffffffffffffffffffffffff168783613de7565b50612109848683613de7565b508073ffffffffffffffffffffffffffffffffffffffff166386d5f618846040518263ffffffff1660e01b8152600401612143919061516d565b602060405180830381600087803b15801561215d57600080fd5b505af1158015612171573d6000803e3d6000fd5b505050506040513d601f19601f820116820180604052508101906121959190614dd0565b915050949350505050565b6000600c60008373ffffffffffffffffffffffffffffffffffffffff1673ffffffffffffffffffffffffffffffffffffffff168152602001908152602001600020549050919050565b6000808273ffffffffffffffffffffffffffffffffffffffff168473ffffffffffffffffffffffffffffffffffffffff16141561222557600080fd5b60008473ffffffffffffffffffffffffffffffffffffffff1663484920316040518163ffffffff1660e01b815260040160206040518083038186803b15801561226d57600080fd5b505afa158015612281573d6000803e3d6000fd5b505050506040513d601f19601f820116820180604052508101906122a59190614c56565b905060006122b1613c10565b73ffffffffffffffffffffffffffffffffffffffff1663b99b0a0c6040518163ffffffff1660e01b815260040160206040518083038186803b1580156122f657600080fd5b505afa15801561230a573d6000803e3d6000fd5b505050506040513d601f19601f8201168201806040525081019061232e9190614c56565b73ffffffffffffffffffffffffffffffffffffffff1663bbe4f6db836040518263ffffffff1660e01b8152600401612366919061516d565b60206040518083038186803b15801561237e57600080fd5b505afa158015612392573d6000803e3d6000fd5b505050506040513d601f19601f820116820180604052508101906123b69190614c56565b90506000859050600073ffffffffffffffffffffffffffffffffffffffff168673ffffffffffffffffffffffffffffffffffffffff16141561241857600160009054906101000a900473ffffffffffffffffffffffffffffffffffffffff1690505b6000612422613c10565b73ffffffffffffffffffffffffffffffffffffffff1663b99b0a0c6040518163ffffffff1660e01b815260040160206040518083038186803b15801561246757600080fd5b505afa15801561247b573d6000803e3d6000fd5b505050506040513d601f19601f8201168201806040525081019061249f9190614c56565b73ffffffffffffffffffffffffffffffffffffffff1663bbe4f6db836040518263ffffffff1660e01b81526004016124d7919061516d565b60206040518083038186803b1580156124ef57600080fd5b505afa158015612503573d6000803e3d6000fd5b505050506040513d601f19601f820116820180604052508101906125279190614c56565b90508773ffffffffffffffffffffffffffffffffffffffff166323b872dd33858c6040518463ffffffff1660e01b8152600401612566939291906151b1565b602060405180830381600087803b15801561258057600080fd5b505af1158015612594573d6000803e3d6000fd5b505050506040513d601f19601f820116820180604052508101906125b89190614c7f565b5060008054906101000a900473ffffffffffffffffffffffffffffffffffffffff1673ffffffffffffffffffffffffffffffffffffffff168273ffffffffffffffffffffffffffffffffffffffff16146127ee5760008373ffffffffffffffffffffffffffffffffffffffff16636aff94548a306040518363ffffffff1660e01b8152600401612649929190615188565b6040805180830381600087803b15801561266257600080fd5b505af1158015612676573d6000803e3d6000fd5b505050506040513d601f19601f8201168201806040525081019061269a9190614f99565b50905060008054906101000a900473ffffffffffffffffffffffffffffffffffffffff1673ffffffffffffffffffffffffffffffffffffffff1663a9059cbb83836040518363ffffffff1660e01b81526004016126f89291906151e8565b602060405180830381600087803b15801561271257600080fd5b505af1158015612726573d6000803e3d6000fd5b505050506040513d601f19601f8201168201806040525081019061274a9190614c7f565b508173ffffffffffffffffffffffffffffffffffffffff166303438dd0846040518263ffffffff1660e01b8152600401612784919061516d565b6040805180830381600087803b15801561279d57600080fd5b505af11580156127b1573d6000803e3d6000fd5b505050506040513d601f19601f820116820180604052508101906127d59190614f99565b80975081985050506127e8888833614140565b50612883565b8273ffffffffffffffffffffffffffffffffffffffff16636aff945489336040518363ffffffff1660e01b8152600401612829929190615188565b6040805180830381600087803b15801561284257600080fd5b505af1158015612856573d6000803e3d6000fd5b505050506040513d601f19601f8201168201806040525081019061287a9190614f99565b80965081975050505b61288d8186613cb6565b50505050935093915050565b8173ffffffffffffffffffffffffffffffffffffffff168373ffffffffffffffffffffffffffffffffffffffff1614156128d257600080fd5b60008054906101000a900473ffffffffffffffffffffffffffffffffffffffff1673ffffffffffffffffffffffffffffffffffffffff168373ffffffffffffffffffffffffffffffffffffffff161415612937576129318483836139be565b50612bda565b60008054906101000a900473ffffffffffffffffffffffffffffffffffffffff1673ffffffffffffffffffffffffffffffffffffffff168273ffffffffffffffffffffffffffffffffffffffff16141561299c57612996848483611d81565b50612bd9565b60006129a6613c10565b73ffffffffffffffffffffffffffffffffffffffff1663b99b0a0c6040518163ffffffff1660e01b815260040160206040518083038186803b1580156129eb57600080fd5b505afa1580156129ff573d6000803e3d6000fd5b505050506040513d601f19601f82011682018060405250810190612a239190614c56565b73ffffffffffffffffffffffffffffffffffffffff1663bbe4f6db846040518263ffffffff1660e01b8152600401612a5b919061516d565b60206040518083038186803b158015612a7357600080fd5b505afa158015612a87573d6000803e3d6000fd5b505050506040513d601f19601f82011682018060405250810190612aab9190614c56565b90506000612aba868684611d81565b90506000849050600073ffffffffffffffffffffffffffffffffffffffff168573ffffffffffffffffffffffffffffffffffffffff161415612b1c57600160009054906101000a900473ffffffffffffffffffffffffffffffffffffffff1690505b6000808473ffffffffffffffffffffffffffffffffffffffff166303438dd0846040518263ffffffff1660e01b8152600401612b58919061516d565b6040805180830381600087803b158015612b7157600080fd5b505af1158015612b85573d6000803e3d6000fd5b505050506040513d601f19601f82011682018060405250810190612ba99190614f99565b9150915060008185612bbb9190615369565b9050612bc78682613cb6565b612bd2888489614140565b5050505050505b5b50505050565b612be8613c10565b73ffffffffffffffffffffffffffffffffffffffff166398fabd3a6040518163ffffffff1660e01b815260040160206040518083038186803b158015612c2d57600080fd5b505afa158015612c41573d6000803e3d6000fd5b505050506040513d601f19601f82011682018060405250810190612c659190614c56565b73ffffffffffffffffffffffffffffffffffffffff163373ffffffffffffffffffffffffffffffffffffffff161480612ceb5750600260009054906101000a900473ffffffffffffffffffffffffffffffffffffffff1673ffffffffffffffffffffffffffffffffffffffff163373ffffffffffffffffffffffffffffffffffffffff16145b612cf457600080fd5b8060088190555050565b612d06613c10565b73ffffffffffffffffffffffffffffffffffffffff166398fabd3a6040518163ffffffff1660e01b815260040160206040518083038186803b158015612d4b57600080fd5b505afa158015612d5f573d6000803e3d6000fd5b505050506040513d601f19601f82011682018060405250810190612d839190614c56565b73ffffffffffffffffffffffffffffffffffffffff163373ffffffffffffffffffffffffffffffffffffffff161480612e095750600260009054906101000a900473ffffffffffffffffffffffffffffffffffffffff1673ffffffffffffffffffffffffffffffffffffffff163373ffffffffffffffffffffffffffffffffffffffff16145b612e1257600080fd5b8060068190555050565b600060011515612e2a613c10565b73ffffffffffffffffffffffffffffffffffffffff1663b99b0a0c6040518163ffffffff1660e01b815260040160206040518083038186803b158015612e6f57600080fd5b505afa158015612e83573d6000803e3d6000fd5b505050506040513d601f19601f82011682018060405250810190612ea79190614c56565b73ffffffffffffffffffffffffffffffffffffffff16635b16ebb7856040518263ffffffff1660e01b8152600401612edf919061516d565b602060405180830381600087803b158015612ef957600080fd5b505af1158015612f0d573d6000803e3d6000fd5b505050506040513d601f19601f82011682018060405250810190612f319190614c7f565b151514612f3d57600080fd5b60011515612f49613c10565b73ffffffffffffffffffffffffffffffffffffffff1663b99b0a0c6040518163ffffffff1660e01b815260040160206040518083038186803b158015612f8e57600080fd5b505afa158015612fa2573d6000803e3d6000fd5b505050506040513d601f19601f82011682018060405250810190612fc69190614c56565b73ffffffffffffffffffffffffffffffffffffffff16635b16ebb7846040518263ffffffff1660e01b8152600401612ffe919061516d565b602060405180830381600087803b15801561301857600080fd5b505af115801561302c573d6000803e3d6000fd5b505050506040513d601f19601f820116820180604052508101906130509190614c7f565b15151461305c57600080fd5b60008373ffffffffffffffffffffffffffffffffffffffff166382bfefc86040518163ffffffff1660e01b815260040160206040518083038186803b1580156130a457600080fd5b505afa1580156130b8573d6000803e3d6000fd5b505050506040513d601f19601f820116820180604052508101906130dc9190614c56565b905060003390508473ffffffffffffffffffffffffffffffffffffffff166318160ddd6040518163ffffffff1660e01b815260040160206040518083038186803b15801561312957600080fd5b505afa15801561313d573d6000803e3d6000fd5b505050506040513d601f19601f820116820180604052508101906131619190614dd0565b86111561316d57600080fd5b8473ffffffffffffffffffffffffffffffffffffffff166323b872dd8287896040518463ffffffff1660e01b81526004016131aa939291906151b1565b602060405180830381600087803b1580156131c457600080fd5b505af11580156131d8573d6000803e3d6000fd5b505050506040513d601f19601f820116820180604052508101906131fc9190614c7f565b5060008573ffffffffffffffffffffffffffffffffffffffff1663a7f437796040518163ffffffff1660e01b81526004016040805180830381600087803b15801561324657600080fd5b505af115801561325a573d6000803e3d6000fd5b505050506040513d601f19601f8201168201806040525081019061327e9190614f99565b9150508273ffffffffffffffffffffffffffffffffffffffff1663a9059cbb87836040518363ffffffff1660e01b81526004016132bc9291906151e8565b602060405180830381600087803b1580156132d657600080fd5b505af11580156132ea573d6000803e3d6000fd5b505050506040513d601f19601f8201168201806040525081019061330e9190614c7f565b508573ffffffffffffffffffffffffffffffffffffffff16632783e4a960008054906101000a900473ffffffffffffffffffffffffffffffffffffffff16876040518363ffffffff1660e01b815260040161336a929190615188565b6040805180830381600087803b15801561338357600080fd5b505af1158015613397573d6000803e3d6000fd5b505050506040513d601f19601f820116820180604052508101906133bb9190614f99565b50508473ffffffffffffffffffffffffffffffffffffffff166386d5f618836040518263ffffffff1660e01b81526004016133f6919061516d565b602060405180830381600087803b15801561341057600080fd5b505af1158015613424573d6000803e3d6000fd5b505050506040513d601f19601f820116820180604052508101906134489190614dd0565b93505050509392505050565b600260009054906101000a900473ffffffffffffffffffffffffffffffffffffffff1681565b6000806000613487613c10565b73ffffffffffffffffffffffffffffffffffffffff1663b99b0a0c6040518163ffffffff1660e01b815260040160206040518083038186803b1580156134cc57600080fd5b505afa1580156134e0573d6000803e3d6000fd5b505050506040513d601f19601f820116820180604052508101906135049190614c56565b73ffffffffffffffffffffffffffffffffffffffff1663bbe4f6db856040518263ffffffff1660e01b815260040161353c919061516d565b60206040518083038186803b15801561355457600080fd5b505afa158015613568573d6000803e3d6000fd5b505050506040513d601f19601f8201168201806040525081019061358c9190614c56565b90506001151561359a613c10565b73ffffffffffffffffffffffffffffffffffffffff1663b99b0a0c6040518163ffffffff1660e01b815260040160206040518083038186803b1580156135df57600080fd5b505afa1580156135f3573d6000803e3d6000fd5b505050506040513d601f19601f820116820180604052508101906136179190614c56565b73ffffffffffffffffffffffffffffffffffffffff16635b16ebb7836040518263ffffffff1660e01b815260040161364f919061516d565b602060405180830381600087803b15801561366957600080fd5b505af115801561367d573d6000803e3d6000fd5b505050506040513d601f19601f820116820180604052508101906136a19190614c7f565b1515146136ad57600080fd5b8073ffffffffffffffffffffffffffffffffffffffff166323b872dd3383886040518463ffffffff1660e01b81526004016136ea939291906151b1565b602060405180830381600087803b15801561370457600080fd5b505af1158015613718573d6000803e3d6000fd5b505050506040513d601f19601f8201168201806040525081019061373c9190614c7f565b50600073ffffffffffffffffffffffffffffffffffffffff168473ffffffffffffffffffffffffffffffffffffffff1614156138dd578073ffffffffffffffffffffffffffffffffffffffff1663a7f437796040518163ffffffff1660e01b81526004016040805180830381600087803b1580156137b957600080fd5b505af11580156137cd573d6000803e3d6000fd5b505050506040513d601f19601f820116820180604052508101906137f19190614f99565b90508092505060008054906101000a900473ffffffffffffffffffffffffffffffffffffffff1673ffffffffffffffffffffffffffffffffffffffff166370a08231306040518263ffffffff1660e01b8152600401613850919061516d565b60206040518083038186803b15801561386857600080fd5b505afa15801561387c573d6000803e3d6000fd5b505050506040513d601f19601f820116820180604052508101906138a09190614dd0565b92506138ad848333614140565b6138d860008054906101000a900473ffffffffffffffffffffffffffffffffffffffff168433614140565b61396a565b8073ffffffffffffffffffffffffffffffffffffffff1663bc5dedc9336040518263ffffffff1660e01b8152600401613916919061516d565b6040805180830381600087803b15801561392f57600080fd5b505af1158015613943573d6000803e3d6000fd5b505050506040513d601f19601f820116820180604052508101906139679190614f99565b50505b509250929050565b600b6020528060005260406000206000915090505481565b6060819050919050565b60075481565b60008054906101000a900473ffffffffffffffffffffffffffffffffffffffff1681565b600080839050600073ffffffffffffffffffffffffffffffffffffffff168473ffffffffffffffffffffffffffffffffffffffff161415613a1f57600160009054906101000a900473ffffffffffffffffffffffffffffffffffffffff1690505b6000613a29613c10565b73ffffffffffffffffffffffffffffffffffffffff1663b99b0a0c6040518163ffffffff1660e01b815260040160206040518083038186803b158015613a6e57600080fd5b505afa158015613a82573d6000803e3d6000fd5b505050506040513d601f19601f82011682018060405250810190613aa69190614c56565b73ffffffffffffffffffffffffffffffffffffffff1663bbe4f6db866040518263ffffffff1660e01b8152600401613ade919061516d565b60206040518083038186803b158015613af657600080fd5b505afa158015613b0a573d6000803e3d6000fd5b505050506040513d601f19601f82011682018060405250810190613b2e9190614c56565b9050613b5b60008054906101000a900473ffffffffffffffffffffffffffffffffffffffff168783613de7565b506000808273ffffffffffffffffffffffffffffffffffffffff166303438dd0856040518263ffffffff1660e01b8152600401613b98919061516d565b6040805180830381600087803b158015613bb157600080fd5b505af1158015613bc5573d6000803e3d6000fd5b505050506040513d601f19601f82011682018060405250810190613be99190614f99565b91509150613bf8878388614140565b613c028382613cb6565b809450505050509392505050565b60008060009054906101000a900473ffffffffffffffffffffffffffffffffffffffff1673ffffffffffffffffffffffffffffffffffffffff166398fabd3a6040518163ffffffff1660e01b815260040160206040518083038186803b158015613c7957600080fd5b505afa158015613c8d573d6000803e3d6000fd5b505050506040513d601f19601f82011682018060405250810190613cb19190614d3d565b905090565b60011515613cc2613c10565b73ffffffffffffffffffffffffffffffffffffffff1663b99b0a0c6040518163ffffffff1660e01b815260040160206040518083038186803b158015613d0757600080fd5b505afa158015613d1b573d6000803e3d6000fd5b505050506040513d601f19601f82011682018060405250810190613d3f9190614c56565b73ffffffffffffffffffffffffffffffffffffffff16638dcb4c93846040518263ffffffff1660e01b8152600401613d77919061516d565b60206040518083038186803b158015613d8f57600080fd5b505afa158015613da3573d6000803e3d6000fd5b505050506040513d601f19601f82011682018060405250810190613dc79190614c7f565b15151415613de357613dd88161431c565b613de282826143f4565b5b5050565b60008083111561413957600073ffffffffffffffffffffffffffffffffffffffff168473ffffffffffffffffffffffffffffffffffffffff161415613f8357348314613e3257600080fd5b6000600160009054906101000a900473ffffffffffffffffffffffffffffffffffffffff1673ffffffffffffffffffffffffffffffffffffffff1684604051613e7a90615158565b60006040518083038185875af1925050503d8060008114613eb7576040519150601f19603f3d011682016040523d82523d6000602084013e613ebc565b606091505b5050905080613eca57600080fd5b600160009054906101000a900473ffffffffffffffffffffffffffffffffffffffff1673ffffffffffffffffffffffffffffffffffffffff1663a9059cbb84866040518363ffffffff1660e01b8152600401613f279291906151e8565b602060405180830381600087803b158015613f4157600080fd5b505af1158015613f55573d6000803e3d6000fd5b505050506040513d601f19601f82011682018060405250810190613f799190614c7f565b5083915050614138565b60008473ffffffffffffffffffffffffffffffffffffffff166370a08231846040518263ffffffff1660e01b8152600401613fbe919061516d565b60206040518083038186803b158015613fd657600080fd5b505afa158015613fea573d6000803e3d6000fd5b505050506040513d601f19601f8201168201806040525081019061400e9190614dd0565b90508473ffffffffffffffffffffffffffffffffffffffff166323b872dd3385876040518463ffffffff1660e01b815260040161404d939291906151b1565b602060405180830381600087803b15801561406757600080fd5b505af115801561407b573d6000803e3d6000fd5b505050506040513d601f19601f8201168201806040525081019061409f9190614c7f565b50808573ffffffffffffffffffffffffffffffffffffffff166370a08231856040518263ffffffff1660e01b81526004016140da919061516d565b60206040518083038186803b1580156140f257600080fd5b505afa158015614106573d6000803e3d6000fd5b505050506040513d601f19601f8201168201806040525081019061412a9190614dd0565b614134919061544a565b9150505b5b9392505050565b600082111561431757600073ffffffffffffffffffffffffffffffffffffffff168373ffffffffffffffffffffffffffffffffffffffff16141561428757600160009054906101000a900473ffffffffffffffffffffffffffffffffffffffff1673ffffffffffffffffffffffffffffffffffffffff16632e1a7d4d836040518263ffffffff1660e01b81526004016141d9919061524e565b600060405180830381600087803b1580156141f357600080fd5b505af1158015614207573d6000803e3d6000fd5b5050505060008173ffffffffffffffffffffffffffffffffffffffff168360405161423190615158565b60006040518083038185875af1925050503d806000811461426e576040519150601f19603f3d011682016040523d82523d6000602084013e614273565b606091505b505090508061428157600080fd5b50614316565b8273ffffffffffffffffffffffffffffffffffffffff1663a9059cbb82846040518363ffffffff1660e01b81526004016142c29291906151e8565b602060405180830381600087803b1580156142dc57600080fd5b505af11580156142f0573d6000803e3d6000fd5b505050506040513d601f19601f820116820180604052508101906143149190614c7f565b505b5b505050565b6000806009805490509050600854811461435e5760098390806001815401808255809150506001900390600052602060002001600090919091909150556143db565b614367836146e9565b60005b6008548110156143d957600981815481106143ae577f4e487b7100000000000000000000000000000000000000000000000000000000600052603260045260246000fd5b9060005260206000200154836143c49190615369565b925080806143d19061557f565b91505061436a565b505b600854826143e991906153bf565b600781905550505050565b6000600754146146e55760008060009054906101000a900473ffffffffffffffffffffffffffffffffffffffff1673ffffffffffffffffffffffffffffffffffffffff166370a08231614445613c10565b73ffffffffffffffffffffffffffffffffffffffff16639d2cc4366040518163ffffffff1660e01b815260040160206040518083038186803b15801561448a57600080fd5b505afa15801561449e573d6000803e3d6000fd5b505050506040513d601f19601f820116820180604052508101906144c29190614c56565b6040518263ffffffff1660e01b81526004016144de919061516d565b60206040518083038186803b1580156144f657600080fd5b505afa15801561450a573d6000803e3d6000fd5b505050506040513d601f19601f8201168201806040525081019061452e9190614dd0565b9050600081146146e35760006005546006548361454b91906153bf565b61455591906153bf565b90506000818461456591906153f0565b90506000600754856145779190615369565b8261458291906153bf565b905061458e8187614809565b614596613c10565b73ffffffffffffffffffffffffffffffffffffffff16639d2cc4366040518163ffffffff1660e01b815260040160206040518083038186803b1580156145db57600080fd5b505afa1580156145ef573d6000803e3d6000fd5b505050506040513d601f19601f820116820180604052508101906146139190614c56565b73ffffffffffffffffffffffffffffffffffffffff16637d458baa82886040518363ffffffff1660e01b815260040161464d929190615269565b600060405180830381600087803b15801561466757600080fd5b505af115801561467b573d6000803e3d6000fd5b505050508573ffffffffffffffffffffffffffffffffffffffff1663fff6cae96040518163ffffffff1660e01b8152600401600060405180830381600087803b1580156146c757600080fd5b505af11580156146db573d6000803e3d6000fd5b505050505050505b505b5050565b600060098054905090506000600182614702919061544a565b90505b60008111156147ba57600960018261471d919061544a565b81548110614754577f4e487b7100000000000000000000000000000000000000000000000000000000600052603260045260246000fd5b906000526020600020015460098281548110614799577f4e487b7100000000000000000000000000000000000000000000000000000000600052603260045260246000fd5b906000526020600020018190555080806147b290615524565b915050614705565b508160096000815481106147f7577f4e487b7100000000000000000000000000000000000000000000000000000000600052603260045260246000fd5b90600052602060002001819055505050565b6000600a541415614899578073ffffffffffffffffffffffffffffffffffffffff1663a7f0b3de6040518163ffffffff1660e01b815260040160206040518083038186803b15801561485a57600080fd5b505afa15801561486e573d6000803e3d6000fd5b505050506040513d601f19601f820116820180604052508101906148929190614dd0565b600a819055505b62278d00600a546148aa9190615369565b42116149435781600b60008373ffffffffffffffffffffffffffffffffffffffff1673ffffffffffffffffffffffffffffffffffffffff168152602001908152602001600020546148fb9190615369565b600b60008373ffffffffffffffffffffffffffffffffffffffff1673ffffffffffffffffffffffffffffffffffffffff16815260200190815260200160002081905550614ab1565b62278d00600a546149549190615369565b600a81905550600b60008273ffffffffffffffffffffffffffffffffffffffff1673ffffffffffffffffffffffffffffffffffffffff16815260200190815260200160002054600c60008373ffffffffffffffffffffffffffffffffffffffff1673ffffffffffffffffffffffffffffffffffffffff168152602001908152602001600020819055506000600b60008373ffffffffffffffffffffffffffffffffffffffff1673ffffffffffffffffffffffffffffffffffffffff1681526020019081526020016000208190555081600b60008373ffffffffffffffffffffffffffffffffffffffff1673ffffffffffffffffffffffffffffffffffffffff16815260200190815260200160002054614a6d9190615369565b600b60008373ffffffffffffffffffffffffffffffffffffffff1673ffffffffffffffffffffffffffffffffffffffff168152602001908152602001600020819055505b5050565b6000614ac8614ac3846152e0565b6152bb565b905082815260208101848484011115614ae057600080fd5b614aeb8482856154e2565b509392505050565b6000614b06614b0184615311565b6152bb565b905082815260208101848484011115614b1e57600080fd5b614b298482856154e2565b509392505050565b600081359050614b4081615669565b92915050565b600081519050614b5581615669565b92915050565b600081359050614b6a81615680565b92915050565b600081519050614b7f81615680565b92915050565b600081519050614b9481615697565b92915050565b600082601f830112614bab57600080fd5b8135614bbb848260208601614ab5565b91505092915050565b600081519050614bd3816156ae565b92915050565b600082601f830112614bea57600080fd5b8135614bfa848260208601614af3565b91505092915050565b600081359050614c12816156c5565b92915050565b600081519050614c27816156c5565b92915050565b600060208284031215614c3f57600080fd5b6000614c4d84828501614b31565b91505092915050565b600060208284031215614c6857600080fd5b6000614c7684828501614b46565b91505092915050565b600060208284031215614c9157600080fd5b6000614c9f84828501614b70565b91505092915050565b600060208284031215614cba57600080fd5b6000614cc884828501614b85565b91505092915050565b60008060408385031215614ce457600080fd5b600083013567ffffffffffffffff811115614cfe57600080fd5b614d0a85828601614b9a565b925050602083013567ffffffffffffffff811115614d2757600080fd5b614d3385828601614b9a565b9150509250929050565b600060208284031215614d4f57600080fd5b6000614d5d84828501614bc4565b91505092915050565b600060208284031215614d7857600080fd5b600082013567ffffffffffffffff811115614d9257600080fd5b614d9e84828501614bd9565b91505092915050565b600060208284031215614db957600080fd5b6000614dc784828501614c03565b91505092915050565b600060208284031215614de257600080fd5b6000614df084828501614c18565b91505092915050565b60008060408385031215614e0c57600080fd5b6000614e1a85828601614c03565b9250506020614e2b85828601614b31565b9150509250929050565b600080600060608486031215614e4a57600080fd5b6000614e5886828701614c03565b9350506020614e6986828701614b31565b9250506040614e7a86828701614b31565b9150509250925092565b60008060008060808587031215614e9a57600080fd5b6000614ea887828801614c03565b9450506020614eb987828801614b31565b9350506040614eca87828801614b31565b9250506060614edb87828801614b31565b91505092959194509250565b600080600060608486031215614efc57600080fd5b6000614f0a86828701614c03565b9350506020614f1b86828701614b5b565b9250506040614f2c86828701614b31565b9150509250925092565b60008060008060808587031215614f4c57600080fd5b6000614f5a87828801614c03565b9450506020614f6b87828801614b5b565b9350506040614f7c87828801614b31565b9250506060614f8d87828801614b31565b91505092959194509250565b60008060408385031215614fac57600080fd5b6000614fba85828601614c18565b9250506020614fcb85828601614c18565b9150509250929050565b600080600060608486031215614fea57600080fd5b6000614ff886828701614c03565b935050602061500986828701614c03565b925050604061501a86828701614b31565b9150509250925092565b6000806000806080858703121561503a57600080fd5b600061504887828801614c03565b945050602061505987828801614c03565b935050604061506a87828801614b31565b925050606061507b87828801614b31565b91505092959194509250565b6150908161547e565b82525050565b61509f81615490565b82525050565b60006150b082615342565b6150ba818561534d565b93506150ca8185602086016154f1565b6150d381615655565b840191505092915050565b60006150e982615342565b6150f3818561535e565b93506151038185602086016154f1565b80840191505092915050565b600061511c60008361535e565b915061512782615666565b600082019050919050565b61513b816154d8565b82525050565b600061514d82846150de565b915081905092915050565b60006151638261510f565b9150819050919050565b60006020820190506151826000830184615087565b92915050565b600060408201905061519d6000830185615087565b6151aa6020830184615087565b9392505050565b60006060820190506151c66000830186615087565b6151d36020830185615087565b6151e06040830184615132565b949350505050565b60006040820190506151fd6000830185615087565b61520a6020830184615132565b9392505050565b60006020820190506152266000830184615096565b92915050565b6000602082019050818103600083015261524681846150a5565b905092915050565b60006020820190506152636000830184615132565b92915050565b600060408201905061527e6000830185615132565b61528b6020830184615087565b9392505050565b60006040820190506152a76000830185615132565b6152b46020830184615132565b9392505050565b60006152c56152d6565b90506152d1828261554e565b919050565b6000604051905090565b600067ffffffffffffffff8211156152fb576152fa615626565b5b61530482615655565b9050602081019050919050565b600067ffffffffffffffff82111561532c5761532b615626565b5b61533582615655565b9050602081019050919050565b600081519050919050565b600082825260208201905092915050565b600081905092915050565b6000615374826154d8565b915061537f836154d8565b9250827fffffffffffffffffffffffffffffffffffffffffffffffffffffffffffffffff038211156153b4576153b36155c8565b5b828201905092915050565b60006153ca826154d8565b91506153d5836154d8565b9250826153e5576153e46155f7565b5b828204905092915050565b60006153fb826154d8565b9150615406836154d8565b9250817fffffffffffffffffffffffffffffffffffffffffffffffffffffffffffffffff048311821515161561543f5761543e6155c8565b5b828202905092915050565b6000615455826154d8565b9150615460836154d8565b925082821015615473576154726155c8565b5b828203905092915050565b6000615489826154b8565b9050919050565b60008115159050919050565b6000819050919050565b60006154b18261547e565b9050919050565b600073ffffffffffffffffffffffffffffffffffffffff82169050919050565b6000819050919050565b82818337600083830152505050565b60005b8381101561550f5780820151818401526020810190506154f4565b8381111561551e576000848401525b50505050565b600061552f826154d8565b91506000821415615543576155426155c8565b5b600182039050919050565b61555782615655565b810181811067ffffffffffffffff8211171561557657615575615626565b5b80604052505050565b600061558a826154d8565b91507fffffffffffffffffffffffffffffffffffffffffffffffffffffffffffffffff8214156155bd576155bc6155c8565b5b600182019050919050565b7f4e487b7100000000000000000000000000000000000000000000000000000000600052601160045260246000fd5b7f4e487b7100000000000000000000000000000000000000000000000000000000600052601260045260246000fd5b7f4e487b7100000000000000000000000000000000000000000000000000000000600052604160045260246000fd5b6000601f19601f8301169050919050565b50565b6156728161547e565b811461567d57600080fd5b50565b61568981615490565b811461569457600080fd5b50565b6156a08161549c565b81146156ab57600080fd5b50565b6156b7816154a6565b81146156c257600080fd5b50565b6156ce816154d8565b81146156d957600080fd5b5056fea2646970667358221220b059bb253681cfb1626a5c27201ffe935e8c5bd921559d63c7c4d64cdbd31faa64736f6c63430008030033",
  "linkReferences": {},
  "deployedLinkReferences": {}
}