{
  "_format": "hh-sol-artifact-1",
  "contractName": "Router",
  "sourceName": "contracts/Router.sol",
  "abi": [
    {
      "inputs": [
        {
          "internalType": "address",
          "name": "_base",
          "type": "address"
        },
        {
          "internalType": "address",
          "name": "_wbnb",
          "type": "address"
        }
      ],
      "stateMutability": "nonpayable",
      "type": "constructor"
    },
    {
      "anonymous": false,
      "inputs": [
        {
          "indexed": false,
          "internalType": "address",
          "name": "Pool",
          "type": "address"
        },
        {
          "indexed": false,
          "internalType": "uint256",
          "name": "amount",
          "type": "uint256"
        }
      ],
      "name": "Dividend",
      "type": "event"
    },
    {
      "inputs": [
        {
          "internalType": "uint256",
          "name": "poolRTC",
          "type": "uint256"
        },
        {
          "internalType": "address",
          "name": "_pool",
          "type": "address"
        }
      ],
      "name": "RTC",
      "outputs": [],
      "stateMutability": "nonpayable",
      "type": "function"
    },
    {
      "inputs": [
        {
          "internalType": "address",
          "name": "oldRouter",
          "type": "address"
        }
      ],
      "name": "_migrateRevenue",
      "outputs": [],
      "stateMutability": "nonpayable",
      "type": "function"
    },
    {
      "inputs": [
        {
          "internalType": "uint256",
          "name": "inputToken",
          "type": "uint256"
        },
        {
          "internalType": "uint256",
          "name": "baseAmount",
          "type": "uint256"
        },
        {
          "internalType": "address",
          "name": "token",
          "type": "address"
        }
      ],
      "name": "addLiquidity",
      "outputs": [],
      "stateMutability": "payable",
      "type": "function"
    },
    {
      "inputs": [
        {
          "internalType": "uint256",
          "name": "input",
          "type": "uint256"
        },
        {
          "internalType": "bool",
          "name": "fromBase",
          "type": "bool"
        },
        {
          "internalType": "address",
          "name": "token",
          "type": "address"
        }
      ],
      "name": "addLiquidityAsym",
      "outputs": [],
      "stateMutability": "payable",
      "type": "function"
    },
    {
      "inputs": [
        {
          "internalType": "uint256",
          "name": "_input",
          "type": "uint256"
        },
        {
          "internalType": "bool",
          "name": "_fromBase",
          "type": "bool"
        },
        {
          "internalType": "address",
          "name": "token",
          "type": "address"
        },
        {
          "internalType": "address",
          "name": "_member",
          "type": "address"
        }
      ],
      "name": "addLiquidityAsymForMember",
      "outputs": [],
      "stateMutability": "payable",
      "type": "function"
    },
    {
      "inputs": [
        {
          "internalType": "uint256",
          "name": "inputToken",
          "type": "uint256"
        },
        {
          "internalType": "uint256",
          "name": "baseAmount",
          "type": "uint256"
        },
        {
          "internalType": "address",
          "name": "token",
          "type": "address"
        },
        {
          "internalType": "address",
          "name": "member",
          "type": "address"
        }
      ],
      "name": "addLiquidityForMember",
      "outputs": [
        {
          "internalType": "uint256",
          "name": "LPsMinted",
          "type": "uint256"
        }
      ],
      "stateMutability": "payable",
      "type": "function"
    },
    {
      "inputs": [
        {
          "internalType": "uint256",
          "name": "amount",
          "type": "uint256"
        },
        {
          "internalType": "address",
          "name": "token",
          "type": "address"
        },
        {
          "internalType": "address",
          "name": "member",
          "type": "address"
        },
        {
          "internalType": "uint256",
          "name": "minAmount",
          "type": "uint256"
        }
      ],
      "name": "buyTo",
      "outputs": [],
      "stateMutability": "nonpayable",
      "type": "function"
    },
    {
      "inputs": [
        {
          "internalType": "uint256",
          "name": "_newDiviClaim",
          "type": "uint256"
        },
        {
          "internalType": "uint256",
          "name": "_newDivFee",
          "type": "uint256"
        }
      ],
      "name": "changeDiviClaim",
      "outputs": [],
      "stateMutability": "nonpayable",
      "type": "function"
    },
    {
      "inputs": [
        {
          "internalType": "uint256",
          "name": "synthCap",
          "type": "uint256"
        },
        {
          "internalType": "address",
          "name": "_pool",
          "type": "address"
        }
      ],
      "name": "changeSynthCap",
      "outputs": [],
      "stateMutability": "nonpayable",
      "type": "function"
    },
    {
      "inputs": [],
      "name": "diviClaim",
      "outputs": [
        {
          "internalType": "uint256",
          "name": "",
          "type": "uint256"
        }
      ],
      "stateMutability": "view",
      "type": "function"
    },
    {
      "inputs": [],
      "name": "flipSynthMinting",
      "outputs": [],
      "stateMutability": "nonpayable",
      "type": "function"
    },
    {
      "inputs": [],
      "name": "lastMonth",
      "outputs": [
        {
          "internalType": "uint256",
          "name": "",
          "type": "uint256"
        }
      ],
      "stateMutability": "view",
      "type": "function"
    },
    {
      "inputs": [
        {
          "internalType": "address",
          "name": "",
          "type": "address"
        }
      ],
      "name": "mapAddress_30DayDividends",
      "outputs": [
        {
          "internalType": "uint256",
          "name": "",
          "type": "uint256"
        }
      ],
      "stateMutability": "view",
      "type": "function"
    },
    {
      "inputs": [
        {
          "internalType": "address",
          "name": "",
          "type": "address"
        }
      ],
      "name": "mapAddress_Past30DayPoolDividends",
      "outputs": [
        {
          "internalType": "uint256",
          "name": "",
          "type": "uint256"
        }
      ],
      "stateMutability": "view",
      "type": "function"
    },
    {
      "inputs": [],
      "name": "minDiv",
      "outputs": [
        {
          "internalType": "uint256",
          "name": "",
          "type": "uint256"
        }
      ],
      "stateMutability": "view",
      "type": "function"
    },
    {
      "inputs": [],
      "name": "purgeDeployer",
      "outputs": [],
      "stateMutability": "nonpayable",
      "type": "function"
    },
    {
      "inputs": [
        {
          "internalType": "uint256",
          "name": "units",
          "type": "uint256"
        },
        {
          "internalType": "address",
          "name": "token",
          "type": "address"
        }
      ],
      "name": "removeLiquidityExact",
      "outputs": [],
      "stateMutability": "nonpayable",
      "type": "function"
    },
    {
      "inputs": [
        {
          "internalType": "uint256",
          "name": "units",
          "type": "uint256"
        },
        {
          "internalType": "bool",
          "name": "toBase",
          "type": "bool"
        },
        {
          "internalType": "address",
          "name": "token",
          "type": "address"
        }
      ],
      "name": "removeLiquidityExactAsym",
      "outputs": [],
      "stateMutability": "nonpayable",
      "type": "function"
    },
    {
      "inputs": [
        {
          "internalType": "uint256",
          "name": "amount",
          "type": "uint256"
        },
        {
          "internalType": "address",
          "name": "token",
          "type": "address"
        },
        {
          "internalType": "address",
          "name": "member",
          "type": "address"
        },
        {
          "internalType": "uint256",
          "name": "minAmount",
          "type": "uint256"
        }
      ],
      "name": "sellTo",
      "outputs": [
        {
          "internalType": "uint256",
          "name": "",
          "type": "uint256"
        }
      ],
      "stateMutability": "payable",
      "type": "function"
    },
    {
      "inputs": [
        {
          "internalType": "uint256",
          "name": "inputAmount",
          "type": "uint256"
        },
        {
          "internalType": "address",
          "name": "fromToken",
          "type": "address"
        },
        {
          "internalType": "address",
          "name": "toToken",
          "type": "address"
        },
        {
          "internalType": "uint256",
          "name": "minAmount",
          "type": "uint256"
        }
      ],
      "name": "swap",
      "outputs": [],
      "stateMutability": "payable",
      "type": "function"
    },
    {
      "inputs": [
        {
          "internalType": "uint256",
          "name": "inputAmount",
          "type": "uint256"
        },
        {
          "internalType": "address",
          "name": "fromToken",
          "type": "address"
        },
        {
          "internalType": "address",
          "name": "toSynth",
          "type": "address"
        }
      ],
      "name": "swapAssetToSynth",
      "outputs": [],
      "stateMutability": "payable",
      "type": "function"
    },
    {
      "inputs": [
        {
          "internalType": "uint256",
          "name": "inputAmount",
          "type": "uint256"
        },
        {
          "internalType": "address",
          "name": "fromSynth",
          "type": "address"
        },
        {
          "internalType": "address",
          "name": "toToken",
          "type": "address"
        }
      ],
      "name": "swapSynthToAsset",
      "outputs": [],
      "stateMutability": "nonpayable",
      "type": "function"
    },
    {
      "inputs": [
        {
          "internalType": "uint256",
          "name": "inputAmount",
          "type": "uint256"
        },
        {
          "internalType": "address",
          "name": "fromToken",
          "type": "address"
        },
        {
          "internalType": "address",
          "name": "toToken",
          "type": "address"
        },
        {
          "internalType": "address",
          "name": "member",
          "type": "address"
        },
        {
          "internalType": "uint256",
          "name": "minAmount",
          "type": "uint256"
        }
      ],
      "name": "swapTo",
      "outputs": [],
      "stateMutability": "payable",
      "type": "function"
    },
    {
      "inputs": [
        {
          "internalType": "address",
          "name": "_pool",
          "type": "address"
        },
        {
          "internalType": "uint256",
          "name": "amount",
          "type": "uint256"
        }
      ],
      "name": "syncPool",
      "outputs": [],
      "stateMutability": "nonpayable",
      "type": "function"
    },
    {
      "inputs": [],
      "name": "synthMinting",
      "outputs": [
        {
          "internalType": "bool",
          "name": "",
          "type": "bool"
        }
      ],
      "stateMutability": "view",
      "type": "function"
    },
    {
      "inputs": [],
      "name": "updatePoolStatus",
      "outputs": [],
      "stateMutability": "nonpayable",
      "type": "function"
    },
    {
      "inputs": [
        {
          "internalType": "uint256",
          "name": "unitsInput",
          "type": "uint256"
        },
        {
          "internalType": "address",
          "name": "fromPool",
          "type": "address"
        },
        {
          "internalType": "address",
          "name": "toPool",
          "type": "address"
        }
      ],
      "name": "zapLiquidity",
      "outputs": [],
      "stateMutability": "nonpayable",
      "type": "function"
    },
    {
      "stateMutability": "payable",
      "type": "receive"
    }
  ],
  "bytecode": "0x60c06040523480156200001157600080fd5b50604051620080e3380380620080e3833981810160405281019062000037919062000140565b60016000819055508173ffffffffffffffffffffffffffffffffffffffff1660808173ffffffffffffffffffffffffffffffffffffffff1660601b815250508073ffffffffffffffffffffffffffffffffffffffff1660a08173ffffffffffffffffffffffffffffffffffffffff1660601b815250506101f46002819055506000600560006101000a81548160ff02191690831515021790555033600160006101000a81548173ffffffffffffffffffffffffffffffffffffffff021916908373ffffffffffffffffffffffffffffffffffffffff160217905550670de0b6b3a76400006006819055505050620001cf565b6000815190506200013a81620001b5565b92915050565b600080604083850312156200015457600080fd5b6000620001648582860162000129565b9250506020620001778582860162000129565b9150509250929050565b60006200018e8262000195565b9050919050565b600073ffffffffffffffffffffffffffffffffffffffff82169050919050565b620001c08162000181565b8114620001cc57600080fd5b50565b60805160601c60a05160601c617dd06200031360003960008181610d640152818161245c0152818161284301528181613be801528181614fbd0152818161595301528181615f87015281816167eb0152616815015260008181610e3f01528181610ed801528181610efa01528181610fb001528181610fd201528181611ac401528181611b2801528181611b4a01528181611c000152818161203001528181612162015281816121c7015281816128700152818161289b015281816129600152818161298101528181612b0601528181612b9b01528181612bbc015281816131300152818161375001528181613a3101528181613a520152818161464f015281816146e401528181614708015281816148510152818161487301528181614f1001528181615076015281816157f701528181615a5901526169840152617dd06000f3fe6080604052600436106101a05760003560e01c8063940c4abc116100ec578063b45e1dbc1161008a578063dd845cb911610064578063dd845cb914610537578063ee85eda41461054e578063f2db620d14610579578063f48610f314610590576101a7565b8063b45e1dbc146104a8578063c8c1fb75146104d1578063cbb3a14a146104fa576101a7565b8063a1cd6aa5116100c6578063a1cd6aa51461040f578063a2cdfd3b14610438578063aa62519b14610461578063aaa20d941461047d576101a7565b8063940c4abc1461039057806399d786ca146103bb5780639ea5705a146103e6576101a7565b80633e384a951161015957806370085be01161013357806370085be0146102ff57806387b21efc1461031b5780638b697c201461033757806393cac68514610360576101a7565b80633e384a951461028a578063451918db146102a65780636325681e146102e3576101a7565b806303a82138146101ac5780630e4256b0146101c35780631e2dd515146101ec57806321259fc3146102155780633173ec3c1461023e578063334ea1331461025a576101a7565b366101a757005b600080fd5b3480156101b857600080fd5b506101c16105b9565b005b3480156101cf57600080fd5b506101ea60048036038101906101e59190617077565b610711565b005b3480156101f857600080fd5b50610213600480360381019061020e91906172d4565b6109d2565b005b34801561022157600080fd5b5061023c60048036038101906102379190617025565b6111c1565b005b610258600480360381019061025391906171ab565b611724565b005b610274600480360381019061026f9190617271565b611e1c565b604051610281919061783f565b60405180910390f35b6102a4600480360381019061029f91906171fa565b612127565b005b3480156102b257600080fd5b506102cd60048036038101906102c89190617025565b612608565b6040516102da919061783f565b60405180910390f35b6102fd60048036038101906102f89190617323565b612620565b005b61031960048036038101906103149190617271565b612d9b565b005b610335600480360381019061033091906173fe565b612dae565b005b34801561034357600080fd5b5061035e6004803603810190610359919061716f565b612dc0565b005b61037a6004803603810190610375919061744d565b612f43565b604051610387919061783f565b60405180910390f35b34801561039c57600080fd5b506103a5613201565b6040516103b29190617704565b60405180910390f35b3480156103c757600080fd5b506103d0613214565b6040516103dd919061783f565b60405180910390f35b3480156103f257600080fd5b5061040d6004803603810190610408919061716f565b61321a565b005b34801561041b57600080fd5b50610436600480360381019061043191906171ab565b61339d565b005b34801561044457600080fd5b5061045f600480360381019061045a9190617386565b613e07565b005b61047b600480360381019061047691906172d4565b613fd4565b005b34801561048957600080fd5b50610492613fe5565b60405161049f919061783f565b60405180910390f35b3480156104b457600080fd5b506104cf60048036038101906104ca91906171ab565b613feb565b005b3480156104dd57600080fd5b506104f860048036038101906104f3919061716f565b614a61565b005b34801561050657600080fd5b50610521600480360381019061051c9190617025565b6150af565b60405161052e919061783f565b60405180910390f35b34801561054357600080fd5b5061054c6150c7565b005b34801561055a57600080fd5b506105636154c5565b604051610570919061783f565b60405180910390f35b34801561058557600080fd5b5061058e6154cb565b005b34801561059c57600080fd5b506105b760048036038101906105b29190617271565b61560b565b005b6105c1615a55565b73ffffffffffffffffffffffffffffffffffffffff166398fabd3a6040518163ffffffff1660e01b815260040160206040518083038186803b15801561060657600080fd5b505afa15801561061a573d6000803e3d6000fd5b505050506040513d601f19601f8201168201806040525081019061063e919061704e565b73ffffffffffffffffffffffffffffffffffffffff163373ffffffffffffffffffffffffffffffffffffffff1614806106c45750600160009054906101000a900473ffffffffffffffffffffffffffffffffffffffff1673ffffffffffffffffffffffffffffffffffffffff163373ffffffffffffffffffffffffffffffffffffffff16145b6106cd57600080fd5b6000600160006101000a81548173ffffffffffffffffffffffffffffffffffffffff021916908373ffffffffffffffffffffffffffffffffffffffff160217905550565b610719615a55565b73ffffffffffffffffffffffffffffffffffffffff16639d2cc4366040518163ffffffff1660e01b815260040160206040518083038186803b15801561075e57600080fd5b505afa158015610772573d6000803e3d6000fd5b505050506040513d601f19601f82011682018060405250810190610796919061704e565b73ffffffffffffffffffffffffffffffffffffffff163373ffffffffffffffffffffffffffffffffffffffff16146107cd57600080fd5b60008273ffffffffffffffffffffffffffffffffffffffff166382bfefc86040518163ffffffff1660e01b815260040160206040518083038186803b15801561081557600080fd5b505afa158015610829573d6000803e3d6000fd5b505050506040513d601f19601f8201168201806040525081019061084d919061704e565b90506000610859615a55565b73ffffffffffffffffffffffffffffffffffffffff16637b0e5c456040518163ffffffff1660e01b815260040160206040518083038186803b15801561089e57600080fd5b505afa1580156108b2573d6000803e3d6000fd5b505050506040513d601f19601f820116820180604052508101906108d6919061704e565b73ffffffffffffffffffffffffffffffffffffffff1663c19387df83856040518363ffffffff1660e01b81526004016109109291906176db565b60206040518083038186803b15801561092857600080fd5b505afa15801561093c573d6000803e3d6000fd5b505050506040513d601f19601f820116820180604052508101906109609190617146565b905061096c8185615afa565b8373ffffffffffffffffffffffffffffffffffffffff1663fff6cae96040518163ffffffff1660e01b8152600401600060405180830381600087803b1580156109b457600080fd5b505af11580156109c8573d6000803e3d6000fd5b5050505050505050565b60008311610a15576040517f08c379a0000000000000000000000000000000000000000000000000000000008152600401610a0c9061775f565b60405180910390fd5b6000610a1f615a55565b73ffffffffffffffffffffffffffffffffffffffff1663b99b0a0c6040518163ffffffff1660e01b815260040160206040518083038186803b158015610a6457600080fd5b505afa158015610a78573d6000803e3d6000fd5b505050506040513d601f19601f82011682018060405250810190610a9c919061704e565b905060008173ffffffffffffffffffffffffffffffffffffffff1663bbe4f6db846040518263ffffffff1660e01b8152600401610ad99190617660565b60206040518083038186803b158015610af157600080fd5b505afa158015610b05573d6000803e3d6000fd5b505050506040513d601f19601f82011682018060405250810190610b29919061704e565b9050600115158273ffffffffffffffffffffffffffffffffffffffff16635b16ebb7836040518263ffffffff1660e01b8152600401610b689190617660565b602060405180830381600087803b158015610b8257600080fd5b505af1158015610b96573d6000803e3d6000fd5b505050506040513d601f19601f82011682018060405250810190610bba91906170f4565b151514610bfc576040517f08c379a0000000000000000000000000000000000000000000000000000000008152600401610bf39061771f565b60405180910390fd5b600015158173ffffffffffffffffffffffffffffffffffffffff166362a5af3b6040518163ffffffff1660e01b815260040160206040518083038186803b158015610c4657600080fd5b505afa158015610c5a573d6000803e3d6000fd5b505050506040513d601f19601f82011682018060405250810190610c7e91906170f4565b151514610c8a57600080fd5b6000339050610c9b82828489615c8a565b8173ffffffffffffffffffffffffffffffffffffffff166286cb0e30836040518363ffffffff1660e01b8152600401610cd592919061767b565b6040805180830381600087803b158015610cee57600080fd5b505af1158015610d02573d6000803e3d6000fd5b505050506040513d601f19601f82011682018060405250810190610d2691906173c2565b50506000849050600073ffffffffffffffffffffffffffffffffffffffff168573ffffffffffffffffffffffffffffffffffffffff161415610d86577f000000000000000000000000000000000000000000000000000000000000000090505b60008615610fab57610e2182858473ffffffffffffffffffffffffffffffffffffffff166370a08231306040518263ffffffff1660e01b8152600401610dcc9190617660565b60206040518083038186803b158015610de457600080fd5b505afa158015610df8573d6000803e3d6000fd5b505050506040513d601f19601f82011682018060405250810190610e1c9190617146565b615dc3565b8373ffffffffffffffffffffffffffffffffffffffff16632783e4a97f0000000000000000000000000000000000000000000000000000000000000000306040518363ffffffff1660e01b8152600401610e7c92919061767b565b6040805180830381600087803b158015610e9557600080fd5b505af1158015610ea9573d6000803e3d6000fd5b505050506040513d601f19601f82011682018060405250810190610ecd91906173c2565b905080915050610fa67f0000000000000000000000000000000000000000000000000000000000000000847f000000000000000000000000000000000000000000000000000000000000000073ffffffffffffffffffffffffffffffffffffffff166370a08231306040518263ffffffff1660e01b8152600401610f519190617660565b60206040518083038186803b158015610f6957600080fd5b505afa158015610f7d573d6000803e3d6000fd5b505050506040513d601f19601f82011682018060405250810190610fa19190617146565b615dc3565b6111a4565b61107e7f0000000000000000000000000000000000000000000000000000000000000000857f000000000000000000000000000000000000000000000000000000000000000073ffffffffffffffffffffffffffffffffffffffff166370a08231306040518263ffffffff1660e01b81526004016110299190617660565b60206040518083038186803b15801561104157600080fd5b505afa158015611055573d6000803e3d6000fd5b505050506040513d601f19601f820116820180604052508101906110799190617146565b615dc3565b8373ffffffffffffffffffffffffffffffffffffffff16632783e4a983306040518363ffffffff1660e01b81526004016110b992919061767b565b6040805180830381600087803b1580156110d257600080fd5b505af11580156110e6573d6000803e3d6000fd5b505050506040513d601f19601f8201168201806040525081019061110a91906173c2565b9050809150506111a3868373ffffffffffffffffffffffffffffffffffffffff166370a08231306040518263ffffffff1660e01b815260040161114d9190617660565b60206040518083038186803b15801561116557600080fd5b505afa158015611179573d6000803e3d6000fd5b505050506040513d601f19601f8201168201806040525081019061119d9190617146565b85615ef9565b5b6111ad84616039565b6111b784826165dc565b5050505050505050565b6111c9615a55565b73ffffffffffffffffffffffffffffffffffffffff166398fabd3a6040518163ffffffff1660e01b815260040160206040518083038186803b15801561120e57600080fd5b505afa158015611222573d6000803e3d6000fd5b505050506040513d601f19601f82011682018060405250810190611246919061704e565b73ffffffffffffffffffffffffffffffffffffffff163373ffffffffffffffffffffffffffffffffffffffff1614806112cc5750600160009054906101000a900473ffffffffffffffffffffffffffffffffffffffff1673ffffffffffffffffffffffffffffffffffffffff163373ffffffffffffffffffffffffffffffffffffffff16145b6112d557600080fd5b8073ffffffffffffffffffffffffffffffffffffffff166399d786ca6040518163ffffffff1660e01b815260040160206040518083038186803b15801561131b57600080fd5b505afa15801561132f573d6000803e3d6000fd5b505050506040513d601f19601f820116820180604052508101906113539190617146565b6003819055506000611363615a55565b73ffffffffffffffffffffffffffffffffffffffff1663b99b0a0c6040518163ffffffff1660e01b815260040160206040518083038186803b1580156113a857600080fd5b505afa1580156113bc573d6000803e3d6000fd5b505050506040513d601f19601f820116820180604052508101906113e0919061704e565b73ffffffffffffffffffffffffffffffffffffffff166345f6e4606040518163ffffffff1660e01b815260040160006040518083038186803b15801561142557600080fd5b505afa158015611439573d6000803e3d6000fd5b505050506040513d6000823e3d601f19601f8201168201806040525081019061146291906170b3565b905060005b815181101561171f578273ffffffffffffffffffffffffffffffffffffffff1663cbb3a14a8383815181106114c5577f4e487b7100000000000000000000000000000000000000000000000000000000600052603260045260246000fd5b60200260200101516040518263ffffffff1660e01b81526004016114e99190617660565b602060405180830381600087803b15801561150357600080fd5b505af1158015611517573d6000803e3d6000fd5b505050506040513d601f19601f8201168201806040525081019061153b9190617146565b60076000848481518110611578577f4e487b7100000000000000000000000000000000000000000000000000000000600052603260045260246000fd5b602002602001015173ffffffffffffffffffffffffffffffffffffffff1673ffffffffffffffffffffffffffffffffffffffff168152602001908152602001600020819055508273ffffffffffffffffffffffffffffffffffffffff1663451918db838381518110611613577f4e487b7100000000000000000000000000000000000000000000000000000000600052603260045260246000fd5b60200260200101516040518263ffffffff1660e01b81526004016116379190617660565b602060405180830381600087803b15801561165157600080fd5b505af1158015611665573d6000803e3d6000fd5b505050506040513d601f19601f820116820180604052508101906116899190617146565b600860008484815181106116c6577f4e487b7100000000000000000000000000000000000000000000000000000000600052603260045260246000fd5b602002602001015173ffffffffffffffffffffffffffffffffffffffff1673ffffffffffffffffffffffffffffffffffffffff16815260200190815260200160002081905550808061171790617a9a565b915050611467565b505050565b60008311611767576040517f08c379a000000000000000000000000000000000000000000000000000000000815260040161175e9061775f565b60405180910390fd5b8073ffffffffffffffffffffffffffffffffffffffff168273ffffffffffffffffffffffffffffffffffffffff1614156117a057600080fd5b600115156117ac615a55565b73ffffffffffffffffffffffffffffffffffffffff16639d2cc4366040518163ffffffff1660e01b815260040160206040518083038186803b1580156117f157600080fd5b505afa158015611805573d6000803e3d6000fd5b505050506040513d601f19601f82011682018060405250810190611829919061704e565b73ffffffffffffffffffffffffffffffffffffffff1663194e22ce6040518163ffffffff1660e01b8152600401602060405180830381600087803b15801561187057600080fd5b505af1158015611884573d6000803e3d6000fd5b505050506040513d601f19601f820116820180604052508101906118a891906170f4565b151514156118eb576040517f08c379a00000000000000000000000000000000000000000000000000000000081526004016118e2906177bf565b60405180910390fd5b60008173ffffffffffffffffffffffffffffffffffffffff16637535d2466040518163ffffffff1660e01b815260040160206040518083038186803b15801561193357600080fd5b505afa158015611947573d6000803e3d6000fd5b505050506040513d601f19601f8201168201806040525081019061196b919061704e565b905060011515611979615a55565b73ffffffffffffffffffffffffffffffffffffffff1663b99b0a0c6040518163ffffffff1660e01b815260040160206040518083038186803b1580156119be57600080fd5b505afa1580156119d2573d6000803e3d6000fd5b505050506040513d601f19601f820116820180604052508101906119f6919061704e565b73ffffffffffffffffffffffffffffffffffffffff16635b16ebb7836040518263ffffffff1660e01b8152600401611a2e9190617660565b602060405180830381600087803b158015611a4857600080fd5b505af1158015611a5c573d6000803e3d6000fd5b505050506040513d601f19601f82011682018060405250810190611a8091906170f4565b151514611ac2576040517f08c379a0000000000000000000000000000000000000000000000000000000008152600401611ab99061771f565b60405180910390fd5b7f000000000000000000000000000000000000000000000000000000000000000073ffffffffffffffffffffffffffffffffffffffff168373ffffffffffffffffffffffffffffffffffffffff1614611bfb57611b228484306000611e1c565b50611bf67f0000000000000000000000000000000000000000000000000000000000000000827f000000000000000000000000000000000000000000000000000000000000000073ffffffffffffffffffffffffffffffffffffffff166370a08231306040518263ffffffff1660e01b8152600401611ba19190617660565b60206040518083038186803b158015611bb957600080fd5b505afa158015611bcd573d6000803e3d6000fd5b505050506040513d601f19601f82011682018060405250810190611bf19190617146565b615dc3565b611c28565b611c277f0000000000000000000000000000000000000000000000000000000000000000338387615c8a565b5b60008173ffffffffffffffffffffffffffffffffffffffff1663f1bbdef2336040518263ffffffff1660e01b8152600401611c639190617660565b6040805180830381600087803b158015611c7c57600080fd5b505af1158015611c90573d6000803e3d6000fd5b505050506040513d601f19601f82011682018060405250810190611cb491906173c2565b915050611cc082616039565b611cca82826165dc565b60011515611cd6615a55565b73ffffffffffffffffffffffffffffffffffffffff16639d2cc4366040518163ffffffff1660e01b815260040160206040518083038186803b158015611d1b57600080fd5b505afa158015611d2f573d6000803e3d6000fd5b505050506040513d601f19601f82011682018060405250810190611d53919061704e565b73ffffffffffffffffffffffffffffffffffffffff1663194e22ce6040518163ffffffff1660e01b8152600401602060405180830381600087803b158015611d9a57600080fd5b505af1158015611dae573d6000803e3d6000fd5b505050506040513d601f19601f82011682018060405250810190611dd291906170f4565b15151415611e15576040517f08c379a0000000000000000000000000000000000000000000000000000000008152600401611e0c906177bf565b60405180910390fd5b5050505050565b600080611e27615a55565b73ffffffffffffffffffffffffffffffffffffffff1663b99b0a0c6040518163ffffffff1660e01b815260040160206040518083038186803b158015611e6c57600080fd5b505afa158015611e80573d6000803e3d6000fd5b505050506040513d601f19601f82011682018060405250810190611ea4919061704e565b905060008173ffffffffffffffffffffffffffffffffffffffff1663bbe4f6db876040518263ffffffff1660e01b8152600401611ee19190617660565b60206040518083038186803b158015611ef957600080fd5b505afa158015611f0d573d6000803e3d6000fd5b505050506040513d601f19601f82011682018060405250810190611f31919061704e565b9050600115158273ffffffffffffffffffffffffffffffffffffffff16635b16ebb7836040518263ffffffff1660e01b8152600401611f709190617660565b602060405180830381600087803b158015611f8a57600080fd5b505af1158015611f9e573d6000803e3d6000fd5b505050506040513d601f19601f82011682018060405250810190611fc291906170f4565b151514612004576040517f08c379a0000000000000000000000000000000000000000000000000000000008152600401611ffb9061771f565b60405180910390fd5b61200f868883616714565b6000808273ffffffffffffffffffffffffffffffffffffffff16632783e4a97f0000000000000000000000000000000000000000000000000000000000000000896040518363ffffffff1660e01b815260040161206d92919061767b565b6040805180830381600087803b15801561208657600080fd5b505af115801561209a573d6000803e3d6000fd5b505050506040513d601f19601f820116820180604052508101906120be91906173c2565b9150915085821015612105576040517f08c379a00000000000000000000000000000000000000000000000000000000081526004016120fc9061777f565b60405180910390fd5b61210e83616039565b61211883826165dc565b80945050505050949350505050565b8273ffffffffffffffffffffffffffffffffffffffff168473ffffffffffffffffffffffffffffffffffffffff16141561216057600080fd5b7f000000000000000000000000000000000000000000000000000000000000000073ffffffffffffffffffffffffffffffffffffffff168473ffffffffffffffffffffffffffffffffffffffff1614156121c5576121c08584848461560b565b612601565b7f000000000000000000000000000000000000000000000000000000000000000073ffffffffffffffffffffffffffffffffffffffff168373ffffffffffffffffffffffffffffffffffffffff16141561222b5761222585858484611e1c565b50612600565b6000612235615a55565b73ffffffffffffffffffffffffffffffffffffffff1663b99b0a0c6040518163ffffffff1660e01b815260040160206040518083038186803b15801561227a57600080fd5b505afa15801561228e573d6000803e3d6000fd5b505050506040513d601f19601f820116820180604052508101906122b2919061704e565b905060008173ffffffffffffffffffffffffffffffffffffffff1663bbe4f6db866040518263ffffffff1660e01b81526004016122ef9190617660565b60206040518083038186803b15801561230757600080fd5b505afa15801561231b573d6000803e3d6000fd5b505050506040513d601f19601f8201168201806040525081019061233f919061704e565b9050600115158273ffffffffffffffffffffffffffffffffffffffff16635b16ebb7836040518263ffffffff1660e01b815260040161237e9190617660565b602060405180830381600087803b15801561239857600080fd5b505af11580156123ac573d6000803e3d6000fd5b505050506040513d601f19601f820116820180604052508101906123d091906170f4565b151514612412576040517f08c379a00000000000000000000000000000000000000000000000000000000081526004016124099061771f565b60405180910390fd5b61241f8787836000611e1c565b506000859050600073ffffffffffffffffffffffffffffffffffffffff168673ffffffffffffffffffffffffffffffffffffffff16141561247e577f000000000000000000000000000000000000000000000000000000000000000090505b6000808373ffffffffffffffffffffffffffffffffffffffff16632783e4a984306040518363ffffffff1660e01b81526004016124bc92919061767b565b6040805180830381600087803b1580156124d557600080fd5b505af11580156124e9573d6000803e3d6000fd5b505050506040513d601f19601f8201168201806040525081019061250d91906173c2565b9150915085821015612554576040517f08c379a000000000000000000000000000000000000000000000000000000000815260040161254b9061777f565b60405180910390fd5b61255d84616039565b61256784826165dc565b6125fa888473ffffffffffffffffffffffffffffffffffffffff166370a08231306040518263ffffffff1660e01b81526004016125a49190617660565b60206040518083038186803b1580156125bc57600080fd5b505afa1580156125d0573d6000803e3d6000fd5b505050506040513d601f19601f820116820180604052508101906125f49190617146565b89615ef9565b50505050505b5b5050505050565b60086020528060005260406000206000915090505481565b600061262a615a55565b73ffffffffffffffffffffffffffffffffffffffff1663b99b0a0c6040518163ffffffff1660e01b815260040160206040518083038186803b15801561266f57600080fd5b505afa158015612683573d6000803e3d6000fd5b505050506040513d601f19601f820116820180604052508101906126a7919061704e565b905060008173ffffffffffffffffffffffffffffffffffffffff1663bbe4f6db856040518263ffffffff1660e01b81526004016126e49190617660565b60206040518083038186803b1580156126fc57600080fd5b505afa158015612710573d6000803e3d6000fd5b505050506040513d601f19601f82011682018060405250810190612734919061704e565b9050600115158273ffffffffffffffffffffffffffffffffffffffff16635b16ebb7836040518263ffffffff1660e01b81526004016127739190617660565b602060405180830381600087803b15801561278d57600080fd5b505af11580156127a1573d6000803e3d6000fd5b505050506040513d601f19601f820116820180604052508101906127c591906170f4565b151514612807576040517f08c379a00000000000000000000000000000000000000000000000000000000081526004016127fe9061771f565b60405180910390fd5b6000849050600073ffffffffffffffffffffffffffffffffffffffff168573ffffffffffffffffffffffffffffffffffffffff161415612865577f000000000000000000000000000000000000000000000000000000000000000090505b8515612ac6576128967f00000000000000000000000000000000000000000000000000000000000000008830616714565b6128cd7f00000000000000000000000000000000000000000000000000000000000000006002896128c79190617951565b84615ef9565b8173ffffffffffffffffffffffffffffffffffffffff16632783e4a982306040518363ffffffff1660e01b815260040161290892919061767b565b6040805180830381600087803b15801561292157600080fd5b505af1158015612935573d6000803e3d6000fd5b505050506040513d601f19601f8201168201806040525081019061295991906173c2565b5050612a2e7f00000000000000000000000000000000000000000000000000000000000000007f000000000000000000000000000000000000000000000000000000000000000073ffffffffffffffffffffffffffffffffffffffff166370a08231306040518263ffffffff1660e01b81526004016129d89190617660565b60206040518083038186803b1580156129f057600080fd5b505afa158015612a04573d6000803e3d6000fd5b505050506040513d601f19601f82011682018060405250810190612a289190617146565b84615ef9565b612ac1818273ffffffffffffffffffffffffffffffffffffffff166370a08231306040518263ffffffff1660e01b8152600401612a6b9190617660565b60206040518083038186803b158015612a8357600080fd5b505afa158015612a97573d6000803e3d6000fd5b505050506040513d601f19601f82011682018060405250810190612abb9190617146565b84615ef9565b612cfd565b612ad1858830616714565b612ae881600289612ae29190617951565b84615ef9565b8173ffffffffffffffffffffffffffffffffffffffff16632783e4a97f0000000000000000000000000000000000000000000000000000000000000000306040518363ffffffff1660e01b8152600401612b4392919061767b565b6040805180830381600087803b158015612b5c57600080fd5b505af1158015612b70573d6000803e3d6000fd5b505050506040513d601f19601f82011682018060405250810190612b9491906173c2565b5050612c697f00000000000000000000000000000000000000000000000000000000000000007f000000000000000000000000000000000000000000000000000000000000000073ffffffffffffffffffffffffffffffffffffffff166370a08231306040518263ffffffff1660e01b8152600401612c139190617660565b60206040518083038186803b158015612c2b57600080fd5b505afa158015612c3f573d6000803e3d6000fd5b505050506040513d601f19601f82011682018060405250810190612c639190617146565b84615ef9565b612cfc818273ffffffffffffffffffffffffffffffffffffffff166370a08231306040518263ffffffff1660e01b8152600401612ca69190617660565b60206040518083038186803b158015612cbe57600080fd5b505afa158015612cd2573d6000803e3d6000fd5b505050506040513d601f19601f82011682018060405250810190612cf69190617146565b84615ef9565b5b8173ffffffffffffffffffffffffffffffffffffffff166386d5f618856040518263ffffffff1660e01b8152600401612d369190617660565b602060405180830381600087803b158015612d5057600080fd5b505af1158015612d64573d6000803e3d6000fd5b505050506040513d601f19601f82011682018060405250810190612d889190617146565b50612d9282616039565b50505050505050565b612da88484843385612127565b50505050565b612dba83838333612f43565b50505050565b612dc8615a55565b73ffffffffffffffffffffffffffffffffffffffff166398fabd3a6040518163ffffffff1660e01b815260040160206040518083038186803b158015612e0d57600080fd5b505afa158015612e21573d6000803e3d6000fd5b505050506040513d601f19601f82011682018060405250810190612e45919061704e565b73ffffffffffffffffffffffffffffffffffffffff163373ffffffffffffffffffffffffffffffffffffffff161480612ecb5750600160009054906101000a900473ffffffffffffffffffffffffffffffffffffffff1673ffffffffffffffffffffffffffffffffffffffff163373ffffffffffffffffffffffffffffffffffffffff16145b612ed457600080fd5b8073ffffffffffffffffffffffffffffffffffffffff16637ec3eae5836040518263ffffffff1660e01b8152600401612f0d919061783f565b600060405180830381600087803b158015612f2757600080fd5b505af1158015612f3b573d6000803e3d6000fd5b505050505050565b600080612f4e615a55565b73ffffffffffffffffffffffffffffffffffffffff1663b99b0a0c6040518163ffffffff1660e01b815260040160206040518083038186803b158015612f9357600080fd5b505afa158015612fa7573d6000803e3d6000fd5b505050506040513d601f19601f82011682018060405250810190612fcb919061704e565b905060008173ffffffffffffffffffffffffffffffffffffffff1663bbe4f6db866040518263ffffffff1660e01b81526004016130089190617660565b60206040518083038186803b15801561302057600080fd5b505afa158015613034573d6000803e3d6000fd5b505050506040513d601f19601f82011682018060405250810190613058919061704e565b9050600115158273ffffffffffffffffffffffffffffffffffffffff16635b16ebb7836040518263ffffffff1660e01b81526004016130979190617660565b602060405180830381600087803b1580156130b157600080fd5b505af11580156130c5573d6000803e3d6000fd5b505050506040513d601f19601f820116820180604052508101906130e991906170f4565b15151461312b576040517f08c379a00000000000000000000000000000000000000000000000000000000081526004016131229061771f565b60405180910390fd5b6131567f00000000000000000000000000000000000000000000000000000000000000008783616714565b613161858883616714565b8073ffffffffffffffffffffffffffffffffffffffff166386d5f618856040518263ffffffff1660e01b815260040161319a9190617660565b602060405180830381600087803b1580156131b457600080fd5b505af11580156131c8573d6000803e3d6000fd5b505050506040513d601f19601f820116820180604052508101906131ec9190617146565b92506131f781616039565b5050949350505050565b600560009054906101000a900460ff1681565b60035481565b613222615a55565b73ffffffffffffffffffffffffffffffffffffffff166398fabd3a6040518163ffffffff1660e01b815260040160206040518083038186803b15801561326757600080fd5b505afa15801561327b573d6000803e3d6000fd5b505050506040513d601f19601f8201168201806040525081019061329f919061704e565b73ffffffffffffffffffffffffffffffffffffffff163373ffffffffffffffffffffffffffffffffffffffff1614806133255750600160009054906101000a900473ffffffffffffffffffffffffffffffffffffffff1673ffffffffffffffffffffffffffffffffffffffff163373ffffffffffffffffffffffffffffffffffffffff16145b61332e57600080fd5b8073ffffffffffffffffffffffffffffffffffffffff1663474e7302836040518263ffffffff1660e01b8152600401613367919061783f565b600060405180830381600087803b15801561338157600080fd5b505af1158015613395573d6000803e3d6000fd5b505050505050565b600083116133e0576040517f08c379a00000000000000000000000000000000000000000000000000000000081526004016133d79061775f565b60405180910390fd5b8073ffffffffffffffffffffffffffffffffffffffff168273ffffffffffffffffffffffffffffffffffffffff16141561341957600080fd5b60011515613425615a55565b73ffffffffffffffffffffffffffffffffffffffff16639d2cc4366040518163ffffffff1660e01b815260040160206040518083038186803b15801561346a57600080fd5b505afa15801561347e573d6000803e3d6000fd5b505050506040513d601f19601f820116820180604052508101906134a2919061704e565b73ffffffffffffffffffffffffffffffffffffffff1663194e22ce6040518163ffffffff1660e01b8152600401602060405180830381600087803b1580156134e957600080fd5b505af11580156134fd573d6000803e3d6000fd5b505050506040513d601f19601f8201168201806040525081019061352191906170f4565b15151415613564576040517f08c379a000000000000000000000000000000000000000000000000000000000815260040161355b906177bf565b60405180910390fd5b600061356e615a55565b73ffffffffffffffffffffffffffffffffffffffff1663b99b0a0c6040518163ffffffff1660e01b815260040160206040518083038186803b1580156135b357600080fd5b505afa1580156135c7573d6000803e3d6000fd5b505050506040513d601f19601f820116820180604052508101906135eb919061704e565b905060008373ffffffffffffffffffffffffffffffffffffffff16637535d2466040518163ffffffff1660e01b815260040160206040518083038186803b15801561363557600080fd5b505afa158015613649573d6000803e3d6000fd5b505050506040513d601f19601f8201168201806040525081019061366d919061704e565b9050600115158273ffffffffffffffffffffffffffffffffffffffff16635b16ebb7836040518263ffffffff1660e01b81526004016136ac9190617660565b602060405180830381600087803b1580156136c657600080fd5b505af11580156136da573d6000803e3d6000fd5b505050506040513d601f19601f820116820180604052508101906136fe91906170f4565b151514613740576040517f08c379a00000000000000000000000000000000000000000000000000000000081526004016137379061771f565b60405180910390fd5b61374c84338388615c8a565b60007f000000000000000000000000000000000000000000000000000000000000000073ffffffffffffffffffffffffffffffffffffffff168473ffffffffffffffffffffffffffffffffffffffff161415613839578173ffffffffffffffffffffffffffffffffffffffff16636aff945433336040518363ffffffff1660e01b81526004016137dd92919061767b565b6040805180830381600087803b1580156137f657600080fd5b505af115801561380a573d6000803e3d6000fd5b505050506040513d601f19601f8201168201806040525081019061382e91906173c2565b905080915050613ca1565b60008373ffffffffffffffffffffffffffffffffffffffff1663bbe4f6db866040518263ffffffff1660e01b81526004016138749190617660565b60206040518083038186803b15801561388c57600080fd5b505afa1580156138a0573d6000803e3d6000fd5b505050506040513d601f19601f820116820180604052508101906138c4919061704e565b9050600115158473ffffffffffffffffffffffffffffffffffffffff16635b16ebb7836040518263ffffffff1660e01b81526004016139039190617660565b602060405180830381600087803b15801561391d57600080fd5b505af1158015613931573d6000803e3d6000fd5b505050506040513d601f19601f8201168201806040525081019061395591906170f4565b151514613997576040517f08c379a000000000000000000000000000000000000000000000000000000000815260040161398e9061771f565b60405180910390fd5b6000808473ffffffffffffffffffffffffffffffffffffffff16636aff945430336040518363ffffffff1660e01b81526004016139d592919061767b565b6040805180830381600087803b1580156139ee57600080fd5b505af1158015613a02573d6000803e3d6000fd5b505050506040513d601f19601f82011682018060405250810190613a2691906173c2565b905080945050613aff7f00000000000000000000000000000000000000000000000000000000000000007f000000000000000000000000000000000000000000000000000000000000000073ffffffffffffffffffffffffffffffffffffffff166370a08231306040518263ffffffff1660e01b8152600401613aa99190617660565b60206040518083038186803b158015613ac157600080fd5b505afa158015613ad5573d6000803e3d6000fd5b505050506040513d601f19601f82011682018060405250810190613af99190617146565b85615ef9565b600073ffffffffffffffffffffffffffffffffffffffff168773ffffffffffffffffffffffffffffffffffffffff1614613bca578273ffffffffffffffffffffffffffffffffffffffff16632783e4a988336040518363ffffffff1660e01b8152600401613b6e92919061767b565b6040805180830381600087803b158015613b8757600080fd5b505af1158015613b9b573d6000803e3d6000fd5b505050506040513d601f19601f82011682018060405250810190613bbf91906173c2565b905080925050613c8a565b8273ffffffffffffffffffffffffffffffffffffffff16632783e4a97f0000000000000000000000000000000000000000000000000000000000000000306040518363ffffffff1660e01b8152600401613c2592919061767b565b6040805180830381600087803b158015613c3e57600080fd5b505af1158015613c52573d6000803e3d6000fd5b505050506040513d601f19601f82011682018060405250810190613c7691906173c2565b8093508192505050613c89878233615ef9565b5b613c9383616039565b613c9d83836165dc565b5050505b613caa82616039565b613cb482826165dc565b60011515613cc0615a55565b73ffffffffffffffffffffffffffffffffffffffff16639d2cc4366040518163ffffffff1660e01b815260040160206040518083038186803b158015613d0557600080fd5b505afa158015613d19573d6000803e3d6000fd5b505050506040513d601f19601f82011682018060405250810190613d3d919061704e565b73ffffffffffffffffffffffffffffffffffffffff1663194e22ce6040518163ffffffff1660e01b8152600401602060405180830381600087803b158015613d8457600080fd5b505af1158015613d98573d6000803e3d6000fd5b505050506040513d601f19601f82011682018060405250810190613dbc91906170f4565b15151415613dff576040517f08c379a0000000000000000000000000000000000000000000000000000000008152600401613df6906177bf565b60405180910390fd5b505050505050565b613e0f615a55565b73ffffffffffffffffffffffffffffffffffffffff166398fabd3a6040518163ffffffff1660e01b815260040160206040518083038186803b158015613e5457600080fd5b505afa158015613e68573d6000803e3d6000fd5b505050506040513d601f19601f82011682018060405250810190613e8c919061704e565b73ffffffffffffffffffffffffffffffffffffffff163373ffffffffffffffffffffffffffffffffffffffff161480613f125750600160009054906101000a900473ffffffffffffffffffffffffffffffffffffffff1673ffffffffffffffffffffffffffffffffffffffff163373ffffffffffffffffffffffffffffffffffffffff16145b613f1b57600080fd5b600082118015613f2c575061138882105b613f6b576040517f08c379a0000000000000000000000000000000000000000000000000000000008152600401613f629061775f565b60405180910390fd5b6103e88110613faf576040517f08c379a0000000000000000000000000000000000000000000000000000000008152600401613fa69061775f565b60405180910390fd5b81600281905550670de0b6b3a764000081613fca9190617982565b6006819055505050565b613fe083838333612620565b505050565b60065481565b60026000541415614031576040517f08c379a00000000000000000000000000000000000000000000000000000000081526004016140289061781f565b60405180910390fd5b60026000819055508073ffffffffffffffffffffffffffffffffffffffff168273ffffffffffffffffffffffffffffffffffffffff16141580156140755750600083115b6140b4576040517f08c379a00000000000000000000000000000000000000000000000000000000081526004016140ab9061775f565b60405180910390fd5b60006140be615a55565b73ffffffffffffffffffffffffffffffffffffffff1663b99b0a0c6040518163ffffffff1660e01b815260040160206040518083038186803b15801561410357600080fd5b505afa158015614117573d6000803e3d6000fd5b505050506040513d601f19601f8201168201806040525081019061413b919061704e565b9050600115158173ffffffffffffffffffffffffffffffffffffffff16635b16ebb7856040518263ffffffff1660e01b815260040161417a9190617660565b602060405180830381600087803b15801561419457600080fd5b505af11580156141a8573d6000803e3d6000fd5b505050506040513d601f19601f820116820180604052508101906141cc91906170f4565b15151461420e576040517f08c379a00000000000000000000000000000000000000000000000000000000081526004016142059061771f565b60405180910390fd5b8073ffffffffffffffffffffffffffffffffffffffff16638dcb4c93846040518263ffffffff1660e01b81526004016142479190617660565b60206040518083038186803b15801561425f57600080fd5b505afa158015614273573d6000803e3d6000fd5b505050506040513d601f19601f8201168201806040525081019061429791906170f4565b1561432b57600015158373ffffffffffffffffffffffffffffffffffffffff166362a5af3b6040518163ffffffff1660e01b815260040160206040518083038186803b1580156142e657600080fd5b505afa1580156142fa573d6000803e3d6000fd5b505050506040513d601f19601f8201168201806040525081019061431e91906170f4565b15151461432a57600080fd5b5b600115158173ffffffffffffffffffffffffffffffffffffffff16635b16ebb7846040518263ffffffff1660e01b81526004016143689190617660565b602060405180830381600087803b15801561438257600080fd5b505af1158015614396573d6000803e3d6000fd5b505050506040513d601f19601f820116820180604052508101906143ba91906170f4565b1515146143fc576040517f08c379a00000000000000000000000000000000000000000000000000000000081526004016143f39061771f565b60405180910390fd5b60008373ffffffffffffffffffffffffffffffffffffffff166382bfefc86040518163ffffffff1660e01b815260040160206040518083038186803b15801561444457600080fd5b505afa158015614458573d6000803e3d6000fd5b505050506040513d601f19601f8201168201806040525081019061447c919061704e565b905060008373ffffffffffffffffffffffffffffffffffffffff166382bfefc86040518163ffffffff1660e01b815260040160206040518083038186803b1580156144c657600080fd5b505afa1580156144da573d6000803e3d6000fd5b505050506040513d601f19601f820116820180604052508101906144fe919061704e565b905060003390506145118682888a615c8a565b8573ffffffffffffffffffffffffffffffffffffffff166286cb0e30836040518363ffffffff1660e01b815260040161454b92919061767b565b6040805180830381600087803b15801561456457600080fd5b505af1158015614578573d6000803e3d6000fd5b505050506040513d601f19601f8201168201806040525081019061459c91906173c2565b505061463183878573ffffffffffffffffffffffffffffffffffffffff166370a08231306040518263ffffffff1660e01b81526004016145dc9190617660565b60206040518083038186803b1580156145f457600080fd5b505afa158015614608573d6000803e3d6000fd5b505050506040513d601f19601f8201168201806040525081019061462c9190617146565b615dc3565b8573ffffffffffffffffffffffffffffffffffffffff16632783e4a97f0000000000000000000000000000000000000000000000000000000000000000306040518363ffffffff1660e01b815260040161468c92919061767b565b6040805180830381600087803b1580156146a557600080fd5b505af11580156146b9573d6000803e3d6000fd5b505050506040513d601f19601f820116820180604052508101906146dd91906173c2565b50506147be7f00000000000000000000000000000000000000000000000000000000000000008660027f000000000000000000000000000000000000000000000000000000000000000073ffffffffffffffffffffffffffffffffffffffff166370a08231306040518263ffffffff1660e01b815260040161475f9190617660565b60206040518083038186803b15801561477757600080fd5b505afa15801561478b573d6000803e3d6000fd5b505050506040513d601f19601f820116820180604052508101906147af9190617146565b6147b99190617951565b615dc3565b8473ffffffffffffffffffffffffffffffffffffffff16632783e4a983306040518363ffffffff1660e01b81526004016147f992919061767b565b6040805180830381600087803b15801561481257600080fd5b505af1158015614826573d6000803e3d6000fd5b505050506040513d601f19601f8201168201806040525081019061484a91906173c2565b505061491f7f0000000000000000000000000000000000000000000000000000000000000000867f000000000000000000000000000000000000000000000000000000000000000073ffffffffffffffffffffffffffffffffffffffff166370a08231306040518263ffffffff1660e01b81526004016148ca9190617660565b60206040518083038186803b1580156148e257600080fd5b505afa1580156148f6573d6000803e3d6000fd5b505050506040513d601f19601f8201168201806040525081019061491a9190617146565b615dc3565b6149b282868473ffffffffffffffffffffffffffffffffffffffff166370a08231306040518263ffffffff1660e01b815260040161495d9190617660565b60206040518083038186803b15801561497557600080fd5b505afa158015614989573d6000803e3d6000fd5b505050506040513d601f19601f820116820180604052508101906149ad9190617146565b615dc3565b8473ffffffffffffffffffffffffffffffffffffffff166386d5f618826040518263ffffffff1660e01b81526004016149eb9190617660565b602060405180830381600087803b158015614a0557600080fd5b505af1158015614a19573d6000803e3d6000fd5b505050506040513d601f19601f82011682018060405250810190614a3d9190617146565b50614a4786616039565b614a5085616039565b505050506001600081905550505050565b60008211614aa4576040517f08c379a0000000000000000000000000000000000000000000000000000000008152600401614a9b9061775f565b60405180910390fd5b6000614aae615a55565b73ffffffffffffffffffffffffffffffffffffffff1663b99b0a0c6040518163ffffffff1660e01b815260040160206040518083038186803b158015614af357600080fd5b505afa158015614b07573d6000803e3d6000fd5b505050506040513d601f19601f82011682018060405250810190614b2b919061704e565b905060008173ffffffffffffffffffffffffffffffffffffffff1663bbe4f6db846040518263ffffffff1660e01b8152600401614b689190617660565b60206040518083038186803b158015614b8057600080fd5b505afa158015614b94573d6000803e3d6000fd5b505050506040513d601f19601f82011682018060405250810190614bb8919061704e565b90508173ffffffffffffffffffffffffffffffffffffffff16638dcb4c93826040518263ffffffff1660e01b8152600401614bf39190617660565b60206040518083038186803b158015614c0b57600080fd5b505afa158015614c1f573d6000803e3d6000fd5b505050506040513d601f19601f82011682018060405250810190614c4391906170f4565b15614cd757600015158173ffffffffffffffffffffffffffffffffffffffff166362a5af3b6040518163ffffffff1660e01b815260040160206040518083038186803b158015614c9257600080fd5b505afa158015614ca6573d6000803e3d6000fd5b505050506040513d601f19601f82011682018060405250810190614cca91906170f4565b151514614cd657600080fd5b5b600115158273ffffffffffffffffffffffffffffffffffffffff16635b16ebb7836040518263ffffffff1660e01b8152600401614d149190617660565b602060405180830381600087803b158015614d2e57600080fd5b505af1158015614d42573d6000803e3d6000fd5b505050506040513d601f19601f82011682018060405250810190614d6691906170f4565b151514614da8576040517f08c379a0000000000000000000000000000000000000000000000000000000008152600401614d9f9061771f565b60405180910390fd5b6000339050614db982828488615c8a565b600073ffffffffffffffffffffffffffffffffffffffff168473ffffffffffffffffffffffffffffffffffffffff1614614e7f578173ffffffffffffffffffffffffffffffffffffffff166286cb0e82836040518363ffffffff1660e01b8152600401614e2792919061767b565b6040805180830381600087803b158015614e4057600080fd5b505af1158015614e54573d6000803e3d6000fd5b505050506040513d601f19601f82011682018060405250810190614e7891906173c2565b505061509f565b8173ffffffffffffffffffffffffffffffffffffffff166286cb0e30836040518363ffffffff1660e01b8152600401614eb992919061767b565b6040805180830381600087803b158015614ed257600080fd5b505af1158015614ee6573d6000803e3d6000fd5b505050506040513d601f19601f82011682018060405250810190614f0a91906173c2565b505060007f000000000000000000000000000000000000000000000000000000000000000073ffffffffffffffffffffffffffffffffffffffff166370a08231306040518263ffffffff1660e01b8152600401614f679190617660565b60206040518083038186803b158015614f7f57600080fd5b505afa158015614f93573d6000803e3d6000fd5b505050506040513d601f19601f82011682018060405250810190614fb79190617146565b905060007f000000000000000000000000000000000000000000000000000000000000000073ffffffffffffffffffffffffffffffffffffffff166370a08231306040518263ffffffff1660e01b81526004016150149190617660565b60206040518083038186803b15801561502c57600080fd5b505afa158015615040573d6000803e3d6000fd5b505050506040513d601f19601f820116820180604052508101906150649190617146565b9050615071868285615ef9565b61509c7f00000000000000000000000000000000000000000000000000000000000000008385615ef9565b50505b6150a882616039565b5050505050565b60076020528060005260406000206000915090505481565b6150cf615a55565b73ffffffffffffffffffffffffffffffffffffffff16639d2cc4366040518163ffffffff1660e01b815260040160206040518083038186803b15801561511457600080fd5b505afa158015615128573d6000803e3d6000fd5b505050506040513d601f19601f8201168201806040525081019061514c919061704e565b73ffffffffffffffffffffffffffffffffffffffff1663194e22ce6040518163ffffffff1660e01b8152600401602060405180830381600087803b15801561519357600080fd5b505af11580156151a7573d6000803e3d6000fd5b505050506040513d601f19601f820116820180604052508101906151cb91906170f4565b156154c35760006151da615a55565b73ffffffffffffffffffffffffffffffffffffffff1663b99b0a0c6040518163ffffffff1660e01b815260040160206040518083038186803b15801561521f57600080fd5b505afa158015615233573d6000803e3d6000fd5b505050506040513d601f19601f82011682018060405250810190615257919061704e565b73ffffffffffffffffffffffffffffffffffffffff1663abc764da6040518163ffffffff1660e01b815260040160006040518083038186803b15801561529c57600080fd5b505afa1580156152b0573d6000803e3d6000fd5b505050506040513d6000823e3d601f19601f820116820180604052508101906152d991906170b3565b905060006001905060005b82518110156153c857828181518110615326577f4e487b7100000000000000000000000000000000000000000000000000000000600052603260045260246000fd5b602002602001015173ffffffffffffffffffffffffffffffffffffffff166362a5af3b6040518163ffffffff1660e01b815260040160206040518083038186803b15801561537357600080fd5b505afa158015615387573d6000803e3d6000fd5b505050506040513d601f19601f820116820180604052508101906153ab91906170f4565b156153b557600091505b80806153c090617a9a565b9150506152e4565b5080156154c0576153d7615a55565b73ffffffffffffffffffffffffffffffffffffffff16639d2cc4366040518163ffffffff1660e01b815260040160206040518083038186803b15801561541c57600080fd5b505afa158015615430573d6000803e3d6000fd5b505050506040513d601f19601f82011682018060405250810190615454919061704e565b73ffffffffffffffffffffffffffffffffffffffff16637828c71760006040518263ffffffff1660e01b815260040161548d9190617704565b600060405180830381600087803b1580156154a757600080fd5b505af11580156154bb573d6000803e3d6000fd5b505050505b50505b565b60025481565b6154d3615a55565b73ffffffffffffffffffffffffffffffffffffffff166398fabd3a6040518163ffffffff1660e01b815260040160206040518083038186803b15801561551857600080fd5b505afa15801561552c573d6000803e3d6000fd5b505050506040513d601f19601f82011682018060405250810190615550919061704e565b73ffffffffffffffffffffffffffffffffffffffff163373ffffffffffffffffffffffffffffffffffffffff1614806155d65750600160009054906101000a900473ffffffffffffffffffffffffffffffffffffffff1673ffffffffffffffffffffffffffffffffffffffff163373ffffffffffffffffffffffffffffffffffffffff16145b6155df57600080fd5b600560009054906101000a900460ff1615600560006101000a81548160ff021916908315150217905550565b6000615615615a55565b73ffffffffffffffffffffffffffffffffffffffff1663b99b0a0c6040518163ffffffff1660e01b815260040160206040518083038186803b15801561565a57600080fd5b505afa15801561566e573d6000803e3d6000fd5b505050506040513d601f19601f82011682018060405250810190615692919061704e565b905060008173ffffffffffffffffffffffffffffffffffffffff1663bbe4f6db866040518263ffffffff1660e01b81526004016156cf9190617660565b60206040518083038186803b1580156156e757600080fd5b505afa1580156156fb573d6000803e3d6000fd5b505050506040513d601f19601f8201168201806040525081019061571f919061704e565b9050600115158273ffffffffffffffffffffffffffffffffffffffff16635b16ebb7836040518263ffffffff1660e01b815260040161575e9190617660565b602060405180830381600087803b15801561577857600080fd5b505af115801561578c573d6000803e3d6000fd5b505050506040513d601f19601f820116820180604052508101906157b091906170f4565b1515146157f2576040517f08c379a00000000000000000000000000000000000000000000000000000000081526004016157e99061771f565b60405180910390fd5b61581d7f00000000000000000000000000000000000000000000000000000000000000008783616714565b60008073ffffffffffffffffffffffffffffffffffffffff168673ffffffffffffffffffffffffffffffffffffffff1614615932576000808373ffffffffffffffffffffffffffffffffffffffff16632783e4a989896040518363ffffffff1660e01b815260040161589092919061767b565b6040805180830381600087803b1580156158a957600080fd5b505af11580156158bd573d6000803e3d6000fd5b505050506040513d601f19601f820116820180604052508101906158e191906173c2565b9150915085821015615928576040517f08c379a000000000000000000000000000000000000000000000000000000000815260040161591f9061777f565b60405180910390fd5b8092505050615a39565b6000808373ffffffffffffffffffffffffffffffffffffffff16632783e4a97f0000000000000000000000000000000000000000000000000000000000000000306040518363ffffffff1660e01b815260040161599092919061767b565b6040805180830381600087803b1580156159a957600080fd5b505af11580156159bd573d6000803e3d6000fd5b505050506040513d601f19601f820116820180604052508101906159e191906173c2565b9150915085821015615a28576040517f08c379a0000000000000000000000000000000000000000000000000000000008152600401615a1f9061777f565b60405180910390fd5b615a33888389615ef9565b80925050505b615a4282616039565b615a4c82826165dc565b50505050505050565b60007f000000000000000000000000000000000000000000000000000000000000000073ffffffffffffffffffffffffffffffffffffffff166398fabd3a6040518163ffffffff1660e01b815260040160206040518083038186803b158015615abd57600080fd5b505afa158015615ad1573d6000803e3d6000fd5b505050506040513d601f19601f82011682018060405250810190615af5919061711d565b905090565b60006003541415615b0d57426003819055505b62278d00600354615b1e91906178fb565b4211615bb75781600760008373ffffffffffffffffffffffffffffffffffffffff1673ffffffffffffffffffffffffffffffffffffffff16815260200190815260200160002054615b6f91906178fb565b600760008373ffffffffffffffffffffffffffffffffffffffff1673ffffffffffffffffffffffffffffffffffffffff16815260200190815260200160002081905550615c86565b42600381905550600760008273ffffffffffffffffffffffffffffffffffffffff1673ffffffffffffffffffffffffffffffffffffffff16815260200190815260200160002054600860008373ffffffffffffffffffffffffffffffffffffffff1673ffffffffffffffffffffffffffffffffffffffff1681526020019081526020016000208190555081600760008373ffffffffffffffffffffffffffffffffffffffff1673ffffffffffffffffffffffffffffffffffffffff168152602001908152602001600020819055505b5050565b6000808573ffffffffffffffffffffffffffffffffffffffff166323b872dd868686604051602401615cbe939291906176a4565b6040516020818303038152906040529060e01b6020820180517bffffffffffffffffffffffffffffffffffffffffffffffffffffffff8381831617835250505050604051615d0c9190617649565b6000604051808303816000865af19150503d8060008114615d49576040519150601f19603f3d011682016040523d82523d6000602084013e615d4e565b606091505b5091509150818015615d7c5750600081511480615d7b575080806020019051810190615d7a91906170f4565b5b5b615dbb576040517f08c379a0000000000000000000000000000000000000000000000000000000008152600401615db2906177ff565b60405180910390fd5b505050505050565b6000808473ffffffffffffffffffffffffffffffffffffffff1663a9059cbb8585604051602401615df59291906176db565b6040516020818303038152906040529060e01b6020820180517bffffffffffffffffffffffffffffffffffffffffffffffffffffffff8381831617835250505050604051615e439190617649565b6000604051808303816000865af19150503d8060008114615e80576040519150601f19603f3d011682016040523d82523d6000602084013e615e85565b606091505b5091509150818015615eb35750600081511480615eb2575080806020019051810190615eb191906170f4565b5b5b615ef2576040517f08c379a0000000000000000000000000000000000000000000000000000000008152600401615ee99061773f565b60405180910390fd5b5050505050565b60026000541415615f3f576040517f08c379a0000000000000000000000000000000000000000000000000000000008152600401615f369061781f565b60405180910390fd5b6002600081905550600082111561602c57600073ffffffffffffffffffffffffffffffffffffffff168373ffffffffffffffffffffffffffffffffffffffff16141561601f577f000000000000000000000000000000000000000000000000000000000000000073ffffffffffffffffffffffffffffffffffffffff16632e1a7d4d836040518263ffffffff1660e01b8152600401615fde919061783f565b600060405180830381600087803b158015615ff857600080fd5b505af115801561600c573d6000803e3d6000fd5b5050505061601a818361685a565b61602b565b61602a838284615dc3565b5b5b6001600081905550505050565b616041615a55565b73ffffffffffffffffffffffffffffffffffffffff1663b99b0a0c6040518163ffffffff1660e01b815260040160206040518083038186803b15801561608657600080fd5b505afa15801561609a573d6000803e3d6000fd5b505050506040513d601f19601f820116820180604052508101906160be919061704e565b73ffffffffffffffffffffffffffffffffffffffff16638dcb4c93826040518263ffffffff1660e01b81526004016160f69190617660565b60206040518083038186803b15801561610e57600080fd5b505afa158015616122573d6000803e3d6000fd5b505050506040513d601f19601f8201168201806040525081019061614691906170f4565b156165d9578073ffffffffffffffffffffffffffffffffffffffff166362a5af3b6040518163ffffffff1660e01b815260040160206040518083038186803b15801561619157600080fd5b505afa1580156161a5573d6000803e3d6000fd5b505050506040513d601f19601f820116820180604052508101906161c991906170f4565b156162bf576161d6615a55565b73ffffffffffffffffffffffffffffffffffffffff16639d2cc4366040518163ffffffff1660e01b815260040160206040518083038186803b15801561621b57600080fd5b505afa15801561622f573d6000803e3d6000fd5b505050506040513d601f19601f82011682018060405250810190616253919061704e565b73ffffffffffffffffffffffffffffffffffffffff16637828c71760016040518263ffffffff1660e01b815260040161628c9190617704565b600060405180830381600087803b1580156162a657600080fd5b505af11580156162ba573d6000803e3d6000fd5b505050505b6162c7615a55565b73ffffffffffffffffffffffffffffffffffffffff16639d2cc4366040518163ffffffff1660e01b815260040160206040518083038186803b15801561630c57600080fd5b505afa158015616320573d6000803e3d6000fd5b505050506040513d601f19601f82011682018060405250810190616344919061704e565b73ffffffffffffffffffffffffffffffffffffffff1663194e22ce6040518163ffffffff1660e01b8152600401602060405180830381600087803b15801561638b57600080fd5b505af115801561639f573d6000803e3d6000fd5b505050506040513d601f19601f820116820180604052508101906163c391906170f4565b156165d85760006163d2615a55565b73ffffffffffffffffffffffffffffffffffffffff16639d2cc4366040518163ffffffff1660e01b815260040160206040518083038186803b15801561641757600080fd5b505afa15801561642b573d6000803e3d6000fd5b505050506040513d601f19601f8201168201806040525081019061644f919061704e565b73ffffffffffffffffffffffffffffffffffffffff1663fd7e1bee6040518163ffffffff1660e01b8152600401602060405180830381600087803b15801561649657600080fd5b505af11580156164aa573d6000803e3d6000fd5b505050506040513d601f19601f820116820180604052508101906164ce9190617146565b9050610e10816164de91906178fb565b4211156165d6576164ed615a55565b73ffffffffffffffffffffffffffffffffffffffff16639d2cc4366040518163ffffffff1660e01b815260040160206040518083038186803b15801561653257600080fd5b505afa158015616546573d6000803e3d6000fd5b505050506040513d601f19601f8201168201806040525081019061656a919061704e565b73ffffffffffffffffffffffffffffffffffffffff16637828c71760006040518263ffffffff1660e01b81526004016165a39190617704565b600060405180830381600087803b1580156165bd57600080fd5b505af11580156165d1573d6000803e3d6000fd5b505050505b505b5b50565b600115156165e8615a55565b73ffffffffffffffffffffffffffffffffffffffff1663b99b0a0c6040518163ffffffff1660e01b815260040160206040518083038186803b15801561662d57600080fd5b505afa158015616641573d6000803e3d6000fd5b505050506040513d601f19601f82011682018060405250810190616665919061704e565b73ffffffffffffffffffffffffffffffffffffffff16638dcb4c93846040518263ffffffff1660e01b815260040161669d9190617660565b60206040518083038186803b1580156166b557600080fd5b505afa1580156166c9573d6000803e3d6000fd5b505050506040513d601f19601f820116820180604052508101906166ed91906170f4565b15151415616710576006548110156167055760065490505b61670f8282616980565b5b5050565b6002600054141561675a576040517f08c379a00000000000000000000000000000000000000000000000000000000081526004016167519061781f565b60405180910390fd5b6002600081905550600082116167a5576040517f08c379a000000000000000000000000000000000000000000000000000000000815260040161679c906177df565b60405180910390fd5b600073ffffffffffffffffffffffffffffffffffffffff168373ffffffffffffffffffffffffffffffffffffffff161415616840573482146167e657600080fd5b6168107f00000000000000000000000000000000000000000000000000000000000000008361685a565b61683b7f00000000000000000000000000000000000000000000000000000000000000008284615dc3565b61684d565b61684c83338385615c8a565b5b6001600081905550505050565b60008273ffffffffffffffffffffffffffffffffffffffff1682600067ffffffffffffffff8111156168b5577f4e487b7100000000000000000000000000000000000000000000000000000000600052604160045260246000fd5b6040519080825280601f01601f1916602001820160405280156168e75781602001600182028036833780820191505090505b506040516168f59190617649565b60006040518083038185875af1925050503d8060008114616932576040519150601f19603f3d011682016040523d82523d6000602084013e616937565b606091505b505090508061697b576040517f08c379a00000000000000000000000000000000000000000000000000000000081526004016169729061779f565b60405180910390fd5b505050565b60007f000000000000000000000000000000000000000000000000000000000000000073ffffffffffffffffffffffffffffffffffffffff166370a082316169c6615a55565b73ffffffffffffffffffffffffffffffffffffffff16639d2cc4366040518163ffffffff1660e01b815260040160206040518083038186803b158015616a0b57600080fd5b505afa158015616a1f573d6000803e3d6000fd5b505050506040513d601f19601f82011682018060405250810190616a43919061704e565b6040518263ffffffff1660e01b8152600401616a5f9190617660565b60206040518083038186803b158015616a7757600080fd5b505afa158015616a8b573d6000803e3d6000fd5b505050506040513d601f19601f82011682018060405250810190616aaf9190617146565b90506000616abb615a55565b73ffffffffffffffffffffffffffffffffffffffff16639d2cc4366040518163ffffffff1660e01b815260040160206040518083038186803b158015616b0057600080fd5b505afa158015616b14573d6000803e3d6000fd5b505050506040513d601f19601f82011682018060405250810190616b38919061704e565b73ffffffffffffffffffffffffffffffffffffffff16632267716c6040518163ffffffff1660e01b8152600401602060405180830381600087803b158015616b7f57600080fd5b505af1158015616b93573d6000803e3d6000fd5b505050506040513d601f19601f82011682018060405250810190616bb791906170f4565b9050600082118015616bc65750805b15616ef6576000616bd5615a55565b73ffffffffffffffffffffffffffffffffffffffff1663b99b0a0c6040518163ffffffff1660e01b815260040160206040518083038186803b158015616c1a57600080fd5b505afa158015616c2e573d6000803e3d6000fd5b505050506040513d601f19601f82011682018060405250810190616c52919061704e565b73ffffffffffffffffffffffffffffffffffffffff16638bc51e366040518163ffffffff1660e01b815260040160206040518083038186803b158015616c9757600080fd5b505afa158015616cab573d6000803e3d6000fd5b505050506040513d601f19601f82011682018060405250810190616ccf9190617146565b90506004548114616ce257806004819055505b60006127108260025486616cf69190617982565b616d009190617951565b616d0a9190617951565b90508085600760008973ffffffffffffffffffffffffffffffffffffffff1673ffffffffffffffffffffffffffffffffffffffff16815260200190815260200160002054616d5891906178fb565b1015616ef357616d688587615afa565b616d70615a55565b73ffffffffffffffffffffffffffffffffffffffff16639d2cc4366040518163ffffffff1660e01b815260040160206040518083038186803b158015616db557600080fd5b505afa158015616dc9573d6000803e3d6000fd5b505050506040513d601f19601f82011682018060405250810190616ded919061704e565b73ffffffffffffffffffffffffffffffffffffffff16637d458baa86886040518363ffffffff1660e01b8152600401616e2792919061785a565b600060405180830381600087803b158015616e4157600080fd5b505af1158015616e55573d6000803e3d6000fd5b505050508573ffffffffffffffffffffffffffffffffffffffff1663fff6cae96040518163ffffffff1660e01b8152600401600060405180830381600087803b158015616ea157600080fd5b505af1158015616eb5573d6000803e3d6000fd5b505050507ff6a7e669306918b018d1eb595a21c8180bdecc0c90847daef23f9cf5fbd4902a8686604051616eea9291906176db565b60405180910390a15b50505b50505050565b6000616f0f616f0a846178a8565b617883565b90508083825260208201905082856020860282011115616f2e57600080fd5b60005b85811015616f5e5781616f448882616f7d565b845260208401935060208301925050600181019050616f31565b5050509392505050565b600081359050616f7781617d3e565b92915050565b600081519050616f8c81617d3e565b92915050565b600082601f830112616fa357600080fd5b8151616fb3848260208601616efc565b91505092915050565b600081359050616fcb81617d55565b92915050565b600081519050616fe081617d55565b92915050565b600081519050616ff581617d6c565b92915050565b60008135905061700a81617d83565b92915050565b60008151905061701f81617d83565b92915050565b60006020828403121561703757600080fd5b600061704584828501616f68565b91505092915050565b60006020828403121561706057600080fd5b600061706e84828501616f7d565b91505092915050565b6000806040838503121561708a57600080fd5b600061709885828601616f68565b92505060206170a985828601616ffb565b9150509250929050565b6000602082840312156170c557600080fd5b600082015167ffffffffffffffff8111156170df57600080fd5b6170eb84828501616f92565b91505092915050565b60006020828403121561710657600080fd5b600061711484828501616fd1565b91505092915050565b60006020828403121561712f57600080fd5b600061713d84828501616fe6565b91505092915050565b60006020828403121561715857600080fd5b600061716684828501617010565b91505092915050565b6000806040838503121561718257600080fd5b600061719085828601616ffb565b92505060206171a185828601616f68565b9150509250929050565b6000806000606084860312156171c057600080fd5b60006171ce86828701616ffb565b93505060206171df86828701616f68565b92505060406171f086828701616f68565b9150509250925092565b600080600080600060a0868803121561721257600080fd5b600061722088828901616ffb565b955050602061723188828901616f68565b945050604061724288828901616f68565b935050606061725388828901616f68565b925050608061726488828901616ffb565b9150509295509295909350565b6000806000806080858703121561728757600080fd5b600061729587828801616ffb565b94505060206172a687828801616f68565b93505060406172b787828801616f68565b92505060606172c887828801616ffb565b91505092959194509250565b6000806000606084860312156172e957600080fd5b60006172f786828701616ffb565b935050602061730886828701616fbc565b925050604061731986828701616f68565b9150509250925092565b6000806000806080858703121561733957600080fd5b600061734787828801616ffb565b945050602061735887828801616fbc565b935050604061736987828801616f68565b925050606061737a87828801616f68565b91505092959194509250565b6000806040838503121561739957600080fd5b60006173a785828601616ffb565b92505060206173b885828601616ffb565b9150509250929050565b600080604083850312156173d557600080fd5b60006173e385828601617010565b92505060206173f485828601617010565b9150509250929050565b60008060006060848603121561741357600080fd5b600061742186828701616ffb565b935050602061743286828701616ffb565b925050604061744386828701616f68565b9150509250925092565b6000806000806080858703121561746357600080fd5b600061747187828801616ffb565b945050602061748287828801616ffb565b935050604061749387828801616f68565b92505060606174a487828801616f68565b91505092959194509250565b6174b9816179dc565b82525050565b6174c8816179ee565b82525050565b60006174d9826178d4565b6174e381856178df565b93506174f3818560208601617a36565b80840191505092915050565b600061750c6005836178ea565b915061751782617b81565b602082019050919050565b600061752f601f836178ea565b915061753a82617baa565b602082019050919050565b60006175526006836178ea565b915061755d82617bd3565b602082019050919050565b60006175756005836178ea565b915061758082617bfc565b602082019050919050565b60006175986023836178ea565b91506175a382617c25565b604082019050919050565b60006175bb6005836178ea565b91506175c682617c74565b602082019050919050565b60006175de6004836178ea565b91506175e982617c9d565b602082019050919050565b60006176016024836178ea565b915061760c82617cc6565b604082019050919050565b6000617624601f836178ea565b915061762f82617d15565b602082019050919050565b61764381617a2c565b82525050565b600061765582846174ce565b915081905092915050565b600060208201905061767560008301846174b0565b92915050565b600060408201905061769060008301856174b0565b61769d60208301846174b0565b9392505050565b60006060820190506176b960008301866174b0565b6176c660208301856174b0565b6176d3604083018461763a565b949350505050565b60006040820190506176f060008301856174b0565b6176fd602083018461763a565b9392505050565b600060208201905061771960008301846174bf565b92915050565b60006020820190508181036000830152617738816174ff565b9050919050565b6000602082019050818103600083015261775881617522565b9050919050565b6000602082019050818103600083015261777881617545565b9050919050565b6000602082019050818103600083015261779881617568565b9050919050565b600060208201905081810360008301526177b88161758b565b9050919050565b600060208201905081810360008301526177d8816175ae565b9050919050565b600060208201905081810360008301526177f8816175d1565b9050919050565b60006020820190508181036000830152617818816175f4565b9050919050565b6000602082019050818103600083015261783881617617565b9050919050565b6000602082019050617854600083018461763a565b92915050565b600060408201905061786f600083018561763a565b61787c60208301846174b0565b9392505050565b600061788d61789e565b90506178998282617a69565b919050565b6000604051905090565b600067ffffffffffffffff8211156178c3576178c2617b41565b5b602082029050602081019050919050565b600081519050919050565b600081905092915050565b600082825260208201905092915050565b600061790682617a2c565b915061791183617a2c565b9250827fffffffffffffffffffffffffffffffffffffffffffffffffffffffffffffffff0382111561794657617945617ae3565b5b828201905092915050565b600061795c82617a2c565b915061796783617a2c565b92508261797757617976617b12565b5b828204905092915050565b600061798d82617a2c565b915061799883617a2c565b9250817fffffffffffffffffffffffffffffffffffffffffffffffffffffffffffffffff04831182151516156179d1576179d0617ae3565b5b828202905092915050565b60006179e782617a0c565b9050919050565b60008115159050919050565b6000617a05826179dc565b9050919050565b600073ffffffffffffffffffffffffffffffffffffffff82169050919050565b6000819050919050565b60005b83811015617a54578082015181840152602081019050617a39565b83811115617a63576000848401525b50505050565b617a7282617b70565b810181811067ffffffffffffffff82111715617a9157617a90617b41565b5b80604052505050565b6000617aa582617a2c565b91507fffffffffffffffffffffffffffffffffffffffffffffffffffffffffffffffff821415617ad857617ad7617ae3565b5b600182019050919050565b7f4e487b7100000000000000000000000000000000000000000000000000000000600052601160045260246000fd5b7f4e487b7100000000000000000000000000000000000000000000000000000000600052601260045260246000fd5b7f4e487b7100000000000000000000000000000000000000000000000000000000600052604160045260246000fd5b6000601f19601f8301169050919050565b7f21504f4f4c000000000000000000000000000000000000000000000000000000600082015250565b7f5472616e7366657248656c7065723a205452414e534645525f4641494c454400600082015250565b7f2156414c49440000000000000000000000000000000000000000000000000000600082015250565b7f2152415445000000000000000000000000000000000000000000000000000000600082015250565b7f5472616e7366657248656c7065723a20424e425f5452414e534645525f46414960008201527f4c45440000000000000000000000000000000000000000000000000000000000602082015250565b7f2153414645000000000000000000000000000000000000000000000000000000600082015250565b7f2147415300000000000000000000000000000000000000000000000000000000600082015250565b7f5472616e7366657248656c7065723a205452414e534645525f46524f4d5f464160008201527f494c454400000000000000000000000000000000000000000000000000000000602082015250565b7f5265656e7472616e637947756172643a207265656e7472616e742063616c6c00600082015250565b617d47816179dc565b8114617d5257600080fd5b50565b617d5e816179ee565b8114617d6957600080fd5b50565b617d75816179fa565b8114617d8057600080fd5b50565b617d8c81617a2c565b8114617d9757600080fd5b5056fea264697066735822122076e65681e93793d77fbcd4068c7934a1c1884b6de9536c351e1d25a5f074156d64736f6c63430008030033",
  "linkReferences": {},
  "deployedLinkReferences": {}
}