{
  "_format": "hh-sol-artifact-1",
  "contractName": "Router",
  "sourceName": "contracts/Router.sol",
  "abi": [
    {
      "inputs": [
        {
          "internalType": "address",
          "name": "_base",
          "type": "address"
        },
        {
          "internalType": "address",
          "name": "_wbnb",
          "type": "address"
        }
      ],
      "stateMutability": "nonpayable",
      "type": "constructor"
    },
    {
      "inputs": [],
      "name": "BASE",
      "outputs": [
        {
          "internalType": "address",
          "name": "",
          "type": "address"
        }
      ],
      "stateMutability": "view",
      "type": "function"
    },
    {
      "inputs": [],
      "name": "DEPLOYER",
      "outputs": [
        {
          "internalType": "address",
          "name": "",
          "type": "address"
        }
      ],
      "stateMutability": "view",
      "type": "function"
    },
    {
      "inputs": [
        {
          "internalType": "uint256",
          "name": "poolRTC",
          "type": "uint256"
        },
        {
          "internalType": "address",
          "name": "_pool",
          "type": "address"
        }
      ],
      "name": "RTC",
      "outputs": [],
      "stateMutability": "nonpayable",
      "type": "function"
    },
    {
      "inputs": [],
      "name": "WBNB",
      "outputs": [
        {
          "internalType": "address",
          "name": "",
          "type": "address"
        }
      ],
      "stateMutability": "view",
      "type": "function"
    },
    {
      "inputs": [
        {
          "internalType": "uint256",
          "name": "inputToken",
          "type": "uint256"
        },
        {
          "internalType": "address",
          "name": "token",
          "type": "address"
        }
      ],
      "name": "addLiquidity",
      "outputs": [],
      "stateMutability": "payable",
      "type": "function"
    },
    {
      "inputs": [
        {
          "internalType": "uint256",
          "name": "input",
          "type": "uint256"
        },
        {
          "internalType": "bool",
          "name": "fromBase",
          "type": "bool"
        },
        {
          "internalType": "address",
          "name": "token",
          "type": "address"
        }
      ],
      "name": "addLiquidityAsym",
      "outputs": [],
      "stateMutability": "payable",
      "type": "function"
    },
    {
      "inputs": [
        {
          "internalType": "uint256",
          "name": "_input",
          "type": "uint256"
        },
        {
          "internalType": "bool",
          "name": "_fromBase",
          "type": "bool"
        },
        {
          "internalType": "address",
          "name": "token",
          "type": "address"
        },
        {
          "internalType": "address",
          "name": "_member",
          "type": "address"
        }
      ],
      "name": "addLiquidityAsymForMember",
      "outputs": [],
      "stateMutability": "payable",
      "type": "function"
    },
    {
      "inputs": [
        {
          "internalType": "uint256",
          "name": "inputToken",
          "type": "uint256"
        },
        {
          "internalType": "address",
          "name": "token",
          "type": "address"
        },
        {
          "internalType": "address",
          "name": "member",
          "type": "address"
        }
      ],
      "name": "addLiquidityForMember",
      "outputs": [],
      "stateMutability": "payable",
      "type": "function"
    },
    {
      "inputs": [
        {
          "internalType": "uint256",
          "name": "amount",
          "type": "uint256"
        },
        {
          "internalType": "address",
          "name": "token",
          "type": "address"
        },
        {
          "internalType": "address",
          "name": "member",
          "type": "address"
        },
        {
          "internalType": "uint256",
          "name": "minAmount",
          "type": "uint256"
        }
      ],
      "name": "buyTo",
      "outputs": [],
      "stateMutability": "nonpayable",
      "type": "function"
    },
    {
      "inputs": [
        {
          "internalType": "uint256",
          "name": "_newDiviClaim",
          "type": "uint256"
        }
      ],
      "name": "changeDiviClaim",
      "outputs": [],
      "stateMutability": "nonpayable",
      "type": "function"
    },
    {
      "inputs": [
        {
          "internalType": "uint256",
          "name": "_globalCap",
          "type": "uint256"
        }
      ],
      "name": "changeGlobalCap",
      "outputs": [],
      "stateMutability": "nonpayable",
      "type": "function"
    },
    {
      "inputs": [
        {
          "internalType": "uint256",
          "name": "newMinimum",
          "type": "uint256"
        },
        {
          "internalType": "address",
          "name": "_pool",
          "type": "address"
        }
      ],
      "name": "changeMinimumSynth",
      "outputs": [],
      "stateMutability": "nonpayable",
      "type": "function"
    },
    {
      "inputs": [
        {
          "internalType": "uint256",
          "name": "synthCap",
          "type": "uint256"
        },
        {
          "internalType": "address",
          "name": "_pool",
          "type": "address"
        }
      ],
      "name": "changeSynthCap",
      "outputs": [],
      "stateMutability": "nonpayable",
      "type": "function"
    },
    {
      "inputs": [],
      "name": "curatedPoolsCount",
      "outputs": [
        {
          "internalType": "uint256",
          "name": "",
          "type": "uint256"
        }
      ],
      "stateMutability": "view",
      "type": "function"
    },
    {
      "inputs": [],
      "name": "diviClaim",
      "outputs": [
        {
          "internalType": "uint256",
          "name": "",
          "type": "uint256"
        }
      ],
      "stateMutability": "view",
      "type": "function"
    },
    {
      "inputs": [],
      "name": "globalCap",
      "outputs": [
        {
          "internalType": "uint256",
          "name": "",
          "type": "uint256"
        }
      ],
      "stateMutability": "view",
      "type": "function"
    },
    {
      "inputs": [],
      "name": "lastMonth",
      "outputs": [
        {
          "internalType": "uint256",
          "name": "",
          "type": "uint256"
        }
      ],
      "stateMutability": "view",
      "type": "function"
    },
    {
      "inputs": [
        {
          "internalType": "address",
          "name": "",
          "type": "address"
        }
      ],
      "name": "mapAddress_30DayDividends",
      "outputs": [
        {
          "internalType": "uint256",
          "name": "",
          "type": "uint256"
        }
      ],
      "stateMutability": "view",
      "type": "function"
    },
    {
      "inputs": [
        {
          "internalType": "address",
          "name": "",
          "type": "address"
        }
      ],
      "name": "mapAddress_Past30DayPoolDividends",
      "outputs": [
        {
          "internalType": "uint256",
          "name": "",
          "type": "uint256"
        }
      ],
      "stateMutability": "view",
      "type": "function"
    },
    {
      "inputs": [],
      "name": "purgeDeployer",
      "outputs": [],
      "stateMutability": "nonpayable",
      "type": "function"
    },
    {
      "inputs": [
        {
          "internalType": "uint256",
          "name": "basisPoints",
          "type": "uint256"
        },
        {
          "internalType": "address",
          "name": "token",
          "type": "address"
        }
      ],
      "name": "removeLiquidity",
      "outputs": [],
      "stateMutability": "nonpayable",
      "type": "function"
    },
    {
      "inputs": [
        {
          "internalType": "uint256",
          "name": "basisPoints",
          "type": "uint256"
        },
        {
          "internalType": "bool",
          "name": "toBase",
          "type": "bool"
        },
        {
          "internalType": "address",
          "name": "token",
          "type": "address"
        }
      ],
      "name": "removeLiquidityAsym",
      "outputs": [],
      "stateMutability": "nonpayable",
      "type": "function"
    },
    {
      "inputs": [
        {
          "internalType": "uint256",
          "name": "units",
          "type": "uint256"
        },
        {
          "internalType": "address",
          "name": "token",
          "type": "address"
        }
      ],
      "name": "removeLiquidityExact",
      "outputs": [],
      "stateMutability": "nonpayable",
      "type": "function"
    },
    {
      "inputs": [
        {
          "internalType": "uint256",
          "name": "units",
          "type": "uint256"
        },
        {
          "internalType": "bool",
          "name": "toBase",
          "type": "bool"
        },
        {
          "internalType": "address",
          "name": "token",
          "type": "address"
        }
      ],
      "name": "removeLiquidityExactAsym",
      "outputs": [],
      "stateMutability": "nonpayable",
      "type": "function"
    },
    {
      "inputs": [
        {
          "internalType": "uint256",
          "name": "amount",
          "type": "uint256"
        },
        {
          "internalType": "address",
          "name": "token",
          "type": "address"
        },
        {
          "internalType": "address",
          "name": "member",
          "type": "address"
        },
        {
          "internalType": "uint256",
          "name": "minAmount",
          "type": "uint256"
        }
      ],
      "name": "sellTo",
      "outputs": [
        {
          "internalType": "uint256",
          "name": "",
          "type": "uint256"
        }
      ],
      "stateMutability": "payable",
      "type": "function"
    },
    {
      "inputs": [
        {
          "internalType": "uint256",
          "name": "inputAmount",
          "type": "uint256"
        },
        {
          "internalType": "address",
          "name": "fromToken",
          "type": "address"
        },
        {
          "internalType": "address",
          "name": "toToken",
          "type": "address"
        },
        {
          "internalType": "uint256",
          "name": "minAmount",
          "type": "uint256"
        }
      ],
      "name": "swap",
      "outputs": [],
      "stateMutability": "payable",
      "type": "function"
    },
    {
      "inputs": [
        {
          "internalType": "uint256",
          "name": "inputAmount",
          "type": "uint256"
        },
        {
          "internalType": "address",
          "name": "fromToken",
          "type": "address"
        },
        {
          "internalType": "address",
          "name": "toSynth",
          "type": "address"
        }
      ],
      "name": "swapAssetToSynth",
      "outputs": [],
      "stateMutability": "payable",
      "type": "function"
    },
    {
      "inputs": [
        {
          "internalType": "uint256",
          "name": "inputAmount",
          "type": "uint256"
        },
        {
          "internalType": "address",
          "name": "fromSynth",
          "type": "address"
        },
        {
          "internalType": "address",
          "name": "toToken",
          "type": "address"
        }
      ],
      "name": "swapSynthToAsset",
      "outputs": [],
      "stateMutability": "nonpayable",
      "type": "function"
    },
    {
      "inputs": [
        {
          "internalType": "uint256",
          "name": "inputAmount",
          "type": "uint256"
        },
        {
          "internalType": "address",
          "name": "fromToken",
          "type": "address"
        },
        {
          "internalType": "address",
          "name": "toToken",
          "type": "address"
        },
        {
          "internalType": "address",
          "name": "member",
          "type": "address"
        },
        {
          "internalType": "uint256",
          "name": "minAmount",
          "type": "uint256"
        }
      ],
      "name": "swapTo",
      "outputs": [],
      "stateMutability": "payable",
      "type": "function"
    },
    {
      "inputs": [
        {
          "internalType": "uint256",
          "name": "unitsInput",
          "type": "uint256"
        },
        {
          "internalType": "address",
          "name": "fromPool",
          "type": "address"
        },
        {
          "internalType": "address",
          "name": "toPool",
          "type": "address"
        }
      ],
      "name": "zapLiquidity",
      "outputs": [],
      "stateMutability": "nonpayable",
      "type": "function"
    },
    {
      "stateMutability": "payable",
      "type": "receive"
    }
  ],
  "bytecode": "0x60c06040523480156200001157600080fd5b506040516200816f3803806200816f833981810160405281019062000037919062000204565b6001600081905550600073ffffffffffffffffffffffffffffffffffffffff168273ffffffffffffffffffffffffffffffffffffffff161415620000b2576040517f08c379a0000000000000000000000000000000000000000000000000000000008152600401620000a9906200026c565b60405180910390fd5b600073ffffffffffffffffffffffffffffffffffffffff168173ffffffffffffffffffffffffffffffffffffffff16141562000125576040517f08c379a00000000000000000000000000000000000000000000000000000000081526004016200011c906200026c565b60405180910390fd5b8173ffffffffffffffffffffffffffffffffffffffff1660808173ffffffffffffffffffffffffffffffffffffffff1660601b815250508073ffffffffffffffffffffffffffffffffffffffff1660a08173ffffffffffffffffffffffffffffffffffffffff1660601b815250506107d0600381905550606460028190555033600160006101000a81548173ffffffffffffffffffffffffffffffffffffffff021916908373ffffffffffffffffffffffffffffffffffffffff160217905550505062000316565b600081519050620001fe81620002fc565b92915050565b600080604083850312156200021857600080fd5b60006200022885828601620001ed565b92505060206200023b85828601620001ed565b9150509250929050565b6000620002546005836200028e565b91506200026182620002d3565b602082019050919050565b60006020820190508181036000830152620002878162000245565b9050919050565b600082825260208201905092915050565b6000620002ac82620002b3565b9050919050565b600073ffffffffffffffffffffffffffffffffffffffff82169050919050565b7f215a45524f000000000000000000000000000000000000000000000000000000600082015250565b62000307816200029f565b81146200031357600080fd5b50565b60805160601c60a05160601c617d0762000468600039600081816112cd0152818161277401528181612c790152818161336901528181613e230152818161558e01528181615de60152818161601b015281816169e50152616aaf01526000818161142b015281816114c1015281816114fe0152818161165a0152818161169701528181611c9101528181611cf201528181611d2f01528181611e4d015281816123420152818161247a015281816124df01528181612ca601528181612cd101528181612d9601528181612db701528181612f3c01528181612fd101528181612ff20152818161398f01528181613c6c01528181613c8d0152818161498b01528181614a1d01528181614a5c01528181614c0d01528181614c4a015281816154e101528181615647015281816156a9015281816159d001528181615c8a01528181615eec0152616c410152617d076000f3fe6080604052600436106101d15760003560e01c806399a2af75116100f7578063c1b8411a11610095578063ec342ad011610064578063ec342ad0146105e0578063ee85eda41461060b578063f475570214610636578063f48610f314610652576101d8565b8063c1b8411a14610533578063c8c1fb751461055e578063c95f9d0e14610587578063cbb3a14a146105a3576101d8565b8063a1cd6aa5116100d1578063a1cd6aa51461049c578063aa62519b146104c5578063b3a14007146104e1578063b45e1dbc1461050a576101d8565b806399a2af751461041d57806399d786ca146104485780639ea5705a14610473576101d8565b8063398ceaae1161016f5780636325681e1161013e5780636325681e1461039157806370085be0146103ad5780638b697c20146103c95780638dd95002146103f2576101d8565b8063398ceaae146102e45780633e384a951461030f578063451918db1461032b5780635777646714610368576101d8565b806307f4d34c116101ab57806307f4d34c146102465780631e2dd5151461026f5780633173ec3c14610298578063334ea133146102b4576101d8565b8063022c4437146101dd57806303a821381461020657806305fe138b1461021d576101d8565b366101d857005b600080fd5b3480156101e957600080fd5b5061020460048036038101906101ff9190617379565b61067b565b005b34801561021257600080fd5b5061021b6107fe565b005b34801561022957600080fd5b50610244600480360381019061023f9190617379565b610956565b005b34801561025257600080fd5b5061026d60048036038101906102689190617327565b610c4f565b005b34801561027b57600080fd5b50610296600480360381019061029191906174de565b610dbd565b005b6102b260048036038101906102ad91906173b5565b6118f1565b005b6102ce60048036038101906102c9919061747b565b61212e565b6040516102db9190617908565b60405180910390f35b3480156102f057600080fd5b506102f9612439565b6040516103069190617908565b60405180910390f35b61032960048036038101906103249190617404565b61243f565b005b34801561033757600080fd5b50610352600480360381019061034d9190617283565b612920565b60405161035f9190617908565b60405180910390f35b34801561037457600080fd5b5061038f600480360381019061038a9190617327565b612938565b005b6103ab60048036038101906103a6919061752d565b612a56565b005b6103c760048036038101906103c2919061747b565b6131d1565b005b3480156103d557600080fd5b506103f060048036038101906103eb9190617379565b6131e4565b005b3480156103fe57600080fd5b50610407613367565b6040516104149190617749565b60405180910390f35b34801561042957600080fd5b5061043261338b565b60405161043f9190617908565b60405180910390f35b34801561045457600080fd5b5061045d613391565b60405161046a9190617908565b60405180910390f35b34801561047f57600080fd5b5061049a60048036038101906104959190617379565b613397565b005b3480156104a857600080fd5b506104c360048036038101906104be91906173b5565b61351a565b005b6104df60048036038101906104da91906174de565b614042565b005b3480156104ed57600080fd5b50610508600480360381019061050391906174de565b614053565b005b34801561051657600080fd5b50610531600480360381019061052c91906173b5565b61434e565b005b34801561053f57600080fd5b50610548614f1e565b6040516105559190617749565b60405180910390f35b34801561056a57600080fd5b5061058560048036038101906105809190617379565b614f44565b005b6105a1600480360381019061059c9190617379565b615680565b005b3480156105af57600080fd5b506105ca60048036038101906105c59190617283565b61568f565b6040516105d79190617908565b60405180910390f35b3480156105ec57600080fd5b506105f56156a7565b6040516106029190617749565b60405180910390f35b34801561061757600080fd5b506106206156cb565b60405161062d9190617908565b60405180910390f35b610650600480360381019061064b91906173b5565b6156d1565b005b34801561065e57600080fd5b506106796004803603810190610674919061747b565b615a9e565b005b610683615ee8565b73ffffffffffffffffffffffffffffffffffffffff166398fabd3a6040518163ffffffff1660e01b815260040160206040518083038186803b1580156106c857600080fd5b505afa1580156106dc573d6000803e3d6000fd5b505050506040513d601f19601f8201168201806040525081019061070091906172ac565b73ffffffffffffffffffffffffffffffffffffffff163373ffffffffffffffffffffffffffffffffffffffff1614806107865750600160009054906101000a900473ffffffffffffffffffffffffffffffffffffffff1673ffffffffffffffffffffffffffffffffffffffff163373ffffffffffffffffffffffffffffffffffffffff16145b61078f57600080fd5b8073ffffffffffffffffffffffffffffffffffffffff1663308aca1d836040518263ffffffff1660e01b81526004016107c89190617908565b600060405180830381600087803b1580156107e257600080fd5b505af11580156107f6573d6000803e3d6000fd5b505050505050565b610806615ee8565b73ffffffffffffffffffffffffffffffffffffffff166398fabd3a6040518163ffffffff1660e01b815260040160206040518083038186803b15801561084b57600080fd5b505afa15801561085f573d6000803e3d6000fd5b505050506040513d601f19601f8201168201806040525081019061088391906172ac565b73ffffffffffffffffffffffffffffffffffffffff163373ffffffffffffffffffffffffffffffffffffffff1614806109095750600160009054906101000a900473ffffffffffffffffffffffffffffffffffffffff1673ffffffffffffffffffffffffffffffffffffffff163373ffffffffffffffffffffffffffffffffffffffff16145b61091257600080fd5b6000600160006101000a81548173ffffffffffffffffffffffffffffffffffffffff021916908373ffffffffffffffffffffffffffffffffffffffff160217905550565b60008211610999576040517f08c379a000000000000000000000000000000000000000000000000000000000815260040161099090617848565b60405180910390fd5b60006109a3615ee8565b73ffffffffffffffffffffffffffffffffffffffff16637b0e5c456040518163ffffffff1660e01b815260040160206040518083038186803b1580156109e857600080fd5b505afa1580156109fc573d6000803e3d6000fd5b505050506040513d601f19601f82011682018060405250810190610a2091906172ac565b73ffffffffffffffffffffffffffffffffffffffff1663714270ab84610a44615ee8565b73ffffffffffffffffffffffffffffffffffffffff1663b99b0a0c6040518163ffffffff1660e01b815260040160206040518083038186803b158015610a8957600080fd5b505afa158015610a9d573d6000803e3d6000fd5b505050506040513d601f19601f82011682018060405250810190610ac191906172ac565b73ffffffffffffffffffffffffffffffffffffffff1663bbe4f6db866040518263ffffffff1660e01b8152600401610af99190617749565b60206040518083038186803b158015610b1157600080fd5b505afa158015610b25573d6000803e3d6000fd5b505050506040513d601f19601f82011682018060405250810190610b4991906172ac565b73ffffffffffffffffffffffffffffffffffffffff166370a08231336040518263ffffffff1660e01b8152600401610b819190617749565b60206040518083038186803b158015610b9957600080fd5b505afa158015610bad573d6000803e3d6000fd5b505050506040513d601f19601f82011682018060405250810190610bd19190617350565b6040518363ffffffff1660e01b8152600401610bee92919061794c565b60206040518083038186803b158015610c0657600080fd5b505afa158015610c1a573d6000803e3d6000fd5b505050506040513d601f19601f82011682018060405250810190610c3e9190617350565b9050610c4a8183614f44565b505050565b610c57615ee8565b73ffffffffffffffffffffffffffffffffffffffff166398fabd3a6040518163ffffffff1660e01b815260040160206040518083038186803b158015610c9c57600080fd5b505afa158015610cb0573d6000803e3d6000fd5b505050506040513d601f19601f82011682018060405250810190610cd491906172ac565b73ffffffffffffffffffffffffffffffffffffffff163373ffffffffffffffffffffffffffffffffffffffff161480610d5a5750600160009054906101000a900473ffffffffffffffffffffffffffffffffffffffff1673ffffffffffffffffffffffffffffffffffffffff163373ffffffffffffffffffffffffffffffffffffffff16145b610d6357600080fd5b600081118015610d74575061138881105b610db3576040517f08c379a0000000000000000000000000000000000000000000000000000000008152600401610daa90617848565b60405180910390fd5b8060028190555050565b60008311610e00576040517f08c379a0000000000000000000000000000000000000000000000000000000008152600401610df790617848565b60405180910390fd5b60011515610e0c615ee8565b73ffffffffffffffffffffffffffffffffffffffff16639d2cc4366040518163ffffffff1660e01b815260040160206040518083038186803b158015610e5157600080fd5b505afa158015610e65573d6000803e3d6000fd5b505050506040513d601f19601f82011682018060405250810190610e8991906172ac565b73ffffffffffffffffffffffffffffffffffffffff1663194e22ce6040518163ffffffff1660e01b8152600401602060405180830381600087803b158015610ed057600080fd5b505af1158015610ee4573d6000803e3d6000fd5b505050506040513d601f19601f82011682018060405250810190610f0891906172d5565b15151415610f4b576040517f08c379a0000000000000000000000000000000000000000000000000000000008152600401610f42906178a8565b60405180910390fd5b6000610f55615ee8565b73ffffffffffffffffffffffffffffffffffffffff1663b99b0a0c6040518163ffffffff1660e01b815260040160206040518083038186803b158015610f9a57600080fd5b505afa158015610fae573d6000803e3d6000fd5b505050506040513d601f19601f82011682018060405250810190610fd291906172ac565b905060008173ffffffffffffffffffffffffffffffffffffffff1663bbe4f6db846040518263ffffffff1660e01b815260040161100f9190617749565b60206040518083038186803b15801561102757600080fd5b505afa15801561103b573d6000803e3d6000fd5b505050506040513d601f19601f8201168201806040525081019061105f91906172ac565b9050600115158273ffffffffffffffffffffffffffffffffffffffff16635b16ebb7836040518263ffffffff1660e01b815260040161109e9190617749565b602060405180830381600087803b1580156110b857600080fd5b505af11580156110cc573d6000803e3d6000fd5b505050506040513d601f19601f820116820180604052508101906110f091906172d5565b151514611132576040517f08c379a000000000000000000000000000000000000000000000000000000000815260040161112990617808565b60405180910390fd5b60003390508173ffffffffffffffffffffffffffffffffffffffff166323b872dd8284896040518463ffffffff1660e01b81526004016111749392919061778d565b602060405180830381600087803b15801561118e57600080fd5b505af11580156111a2573d6000803e3d6000fd5b505050506040513d601f19601f820116820180604052508101906111c691906172d5565b611205576040517f08c379a00000000000000000000000000000000000000000000000000000000081526004016111fc90617888565b60405180910390fd5b8173ffffffffffffffffffffffffffffffffffffffff1663bc5dedc9306040518263ffffffff1660e01b815260040161123e9190617749565b6040805180830381600087803b15801561125757600080fd5b505af115801561126b573d6000803e3d6000fd5b505050506040513d601f19601f8201168201806040525081019061128f9190617590565b50506000849050600073ffffffffffffffffffffffffffffffffffffffff168573ffffffffffffffffffffffffffffffffffffffff1614156112ef577f000000000000000000000000000000000000000000000000000000000000000090505b60008615611658578173ffffffffffffffffffffffffffffffffffffffff1663a9059cbb858473ffffffffffffffffffffffffffffffffffffffff166370a08231306040518263ffffffff1660e01b815260040161134d9190617749565b60206040518083038186803b15801561136557600080fd5b505afa158015611379573d6000803e3d6000fd5b505050506040513d601f19601f8201168201806040525081019061139d9190617350565b6040518363ffffffff1660e01b81526004016113ba9291906177c4565b602060405180830381600087803b1580156113d457600080fd5b505af11580156113e8573d6000803e3d6000fd5b505050506040513d601f19601f8201168201806040525081019061140c91906172d5565b508373ffffffffffffffffffffffffffffffffffffffff16632783e4a97f0000000000000000000000000000000000000000000000000000000000000000306040518363ffffffff1660e01b8152600401611468929190617764565b6040805180830381600087803b15801561148157600080fd5b505af1158015611495573d6000803e3d6000fd5b505050506040513d601f19601f820116820180604052508101906114b99190617590565b9050809150507f000000000000000000000000000000000000000000000000000000000000000073ffffffffffffffffffffffffffffffffffffffff1663a9059cbb847f000000000000000000000000000000000000000000000000000000000000000073ffffffffffffffffffffffffffffffffffffffff166370a08231306040518263ffffffff1660e01b81526004016115559190617749565b60206040518083038186803b15801561156d57600080fd5b505afa158015611581573d6000803e3d6000fd5b505050506040513d601f19601f820116820180604052508101906115a59190617350565b6040518363ffffffff1660e01b81526004016115c29291906177c4565b602060405180830381600087803b1580156115dc57600080fd5b505af11580156115f0573d6000803e3d6000fd5b505050506040513d601f19601f8201168201806040525081019061161491906172d5565b611653576040517f08c379a000000000000000000000000000000000000000000000000000000000815260040161164a90617888565b60405180910390fd5b6118d4565b7f000000000000000000000000000000000000000000000000000000000000000073ffffffffffffffffffffffffffffffffffffffff1663a9059cbb857f000000000000000000000000000000000000000000000000000000000000000073ffffffffffffffffffffffffffffffffffffffff166370a08231306040518263ffffffff1660e01b81526004016116ee9190617749565b60206040518083038186803b15801561170657600080fd5b505afa15801561171a573d6000803e3d6000fd5b505050506040513d601f19601f8201168201806040525081019061173e9190617350565b6040518363ffffffff1660e01b815260040161175b9291906177c4565b602060405180830381600087803b15801561177557600080fd5b505af1158015611789573d6000803e3d6000fd5b505050506040513d601f19601f820116820180604052508101906117ad91906172d5565b508373ffffffffffffffffffffffffffffffffffffffff16632783e4a983306040518363ffffffff1660e01b81526004016117e9929190617764565b6040805180830381600087803b15801561180257600080fd5b505af1158015611816573d6000803e3d6000fd5b505050506040513d601f19601f8201168201806040525081019061183a9190617590565b9050809150506118d3868373ffffffffffffffffffffffffffffffffffffffff166370a08231306040518263ffffffff1660e01b815260040161187d9190617749565b60206040518083038186803b15801561189557600080fd5b505afa1580156118a9573d6000803e3d6000fd5b505050506040513d601f19601f820116820180604052508101906118cd9190617350565b85615f8d565b5b6118dd84616231565b6118e784826167d4565b5050505050505050565b60008311611934576040517f08c379a000000000000000000000000000000000000000000000000000000000815260040161192b90617848565b60405180910390fd5b8073ffffffffffffffffffffffffffffffffffffffff168273ffffffffffffffffffffffffffffffffffffffff16141561196d57600080fd5b60011515611979615ee8565b73ffffffffffffffffffffffffffffffffffffffff16639d2cc4366040518163ffffffff1660e01b815260040160206040518083038186803b1580156119be57600080fd5b505afa1580156119d2573d6000803e3d6000fd5b505050506040513d601f19601f820116820180604052508101906119f691906172ac565b73ffffffffffffffffffffffffffffffffffffffff1663194e22ce6040518163ffffffff1660e01b8152600401602060405180830381600087803b158015611a3d57600080fd5b505af1158015611a51573d6000803e3d6000fd5b505050506040513d601f19601f82011682018060405250810190611a7591906172d5565b15151415611ab8576040517f08c379a0000000000000000000000000000000000000000000000000000000008152600401611aaf906178a8565b60405180910390fd5b60008173ffffffffffffffffffffffffffffffffffffffff16637535d2466040518163ffffffff1660e01b815260040160206040518083038186803b158015611b0057600080fd5b505afa158015611b14573d6000803e3d6000fd5b505050506040513d601f19601f82011682018060405250810190611b3891906172ac565b905060011515611b46615ee8565b73ffffffffffffffffffffffffffffffffffffffff1663b99b0a0c6040518163ffffffff1660e01b815260040160206040518083038186803b158015611b8b57600080fd5b505afa158015611b9f573d6000803e3d6000fd5b505050506040513d601f19601f82011682018060405250810190611bc391906172ac565b73ffffffffffffffffffffffffffffffffffffffff16635b16ebb7836040518263ffffffff1660e01b8152600401611bfb9190617749565b602060405180830381600087803b158015611c1557600080fd5b505af1158015611c29573d6000803e3d6000fd5b505050506040513d601f19601f82011682018060405250810190611c4d91906172d5565b151514611c8f576040517f08c379a0000000000000000000000000000000000000000000000000000000008152600401611c8690617808565b60405180910390fd5b7f000000000000000000000000000000000000000000000000000000000000000073ffffffffffffffffffffffffffffffffffffffff168373ffffffffffffffffffffffffffffffffffffffff1614611e4b57611cef848430600061212e565b507f000000000000000000000000000000000000000000000000000000000000000073ffffffffffffffffffffffffffffffffffffffff1663a9059cbb827f000000000000000000000000000000000000000000000000000000000000000073ffffffffffffffffffffffffffffffffffffffff166370a08231306040518263ffffffff1660e01b8152600401611d869190617749565b60206040518083038186803b158015611d9e57600080fd5b505afa158015611db2573d6000803e3d6000fd5b505050506040513d601f19601f82011682018060405250810190611dd69190617350565b6040518363ffffffff1660e01b8152600401611df39291906177c4565b602060405180830381600087803b158015611e0d57600080fd5b505af1158015611e21573d6000803e3d6000fd5b505050506040513d601f19601f82011682018060405250810190611e4591906172d5565b50611f3a565b7f000000000000000000000000000000000000000000000000000000000000000073ffffffffffffffffffffffffffffffffffffffff166323b872dd3383876040518463ffffffff1660e01b8152600401611ea89392919061778d565b602060405180830381600087803b158015611ec257600080fd5b505af1158015611ed6573d6000803e3d6000fd5b505050506040513d601f19601f82011682018060405250810190611efa91906172d5565b611f39576040517f08c379a0000000000000000000000000000000000000000000000000000000008152600401611f3090617888565b60405180910390fd5b5b60008173ffffffffffffffffffffffffffffffffffffffff1663f1bbdef2336040518263ffffffff1660e01b8152600401611f759190617749565b6040805180830381600087803b158015611f8e57600080fd5b505af1158015611fa2573d6000803e3d6000fd5b505050506040513d601f19601f82011682018060405250810190611fc69190617590565b915050611fd282616231565b611fdc82826167d4565b60011515611fe8615ee8565b73ffffffffffffffffffffffffffffffffffffffff16639d2cc4366040518163ffffffff1660e01b815260040160206040518083038186803b15801561202d57600080fd5b505afa158015612041573d6000803e3d6000fd5b505050506040513d601f19601f8201168201806040525081019061206591906172ac565b73ffffffffffffffffffffffffffffffffffffffff1663194e22ce6040518163ffffffff1660e01b8152600401602060405180830381600087803b1580156120ac57600080fd5b505af11580156120c0573d6000803e3d6000fd5b505050506040513d601f19601f820116820180604052508101906120e491906172d5565b15151415612127576040517f08c379a000000000000000000000000000000000000000000000000000000000815260040161211e906178a8565b60405180910390fd5b5050505050565b600080612139615ee8565b73ffffffffffffffffffffffffffffffffffffffff1663b99b0a0c6040518163ffffffff1660e01b815260040160206040518083038186803b15801561217e57600080fd5b505afa158015612192573d6000803e3d6000fd5b505050506040513d601f19601f820116820180604052508101906121b691906172ac565b905060008173ffffffffffffffffffffffffffffffffffffffff1663bbe4f6db876040518263ffffffff1660e01b81526004016121f39190617749565b60206040518083038186803b15801561220b57600080fd5b505afa15801561221f573d6000803e3d6000fd5b505050506040513d601f19601f8201168201806040525081019061224391906172ac565b9050600115158273ffffffffffffffffffffffffffffffffffffffff16635b16ebb7836040518263ffffffff1660e01b81526004016122829190617749565b602060405180830381600087803b15801561229c57600080fd5b505af11580156122b0573d6000803e3d6000fd5b505050506040513d601f19601f820116820180604052508101906122d491906172d5565b151514612316576040517f08c379a000000000000000000000000000000000000000000000000000000000815260040161230d90617808565b60405180910390fd5b61232186888361690f565b6000808273ffffffffffffffffffffffffffffffffffffffff16632783e4a97f0000000000000000000000000000000000000000000000000000000000000000896040518363ffffffff1660e01b815260040161237f929190617764565b6040805180830381600087803b15801561239857600080fd5b505af11580156123ac573d6000803e3d6000fd5b505050506040513d601f19601f820116820180604052508101906123d09190617590565b9150915085821015612417576040517f08c379a000000000000000000000000000000000000000000000000000000000815260040161240e90617868565b60405180910390fd5b61242083616231565b61242a83826167d4565b80945050505050949350505050565b60055481565b8273ffffffffffffffffffffffffffffffffffffffff168473ffffffffffffffffffffffffffffffffffffffff16141561247857600080fd5b7f000000000000000000000000000000000000000000000000000000000000000073ffffffffffffffffffffffffffffffffffffffff168473ffffffffffffffffffffffffffffffffffffffff1614156124dd576124d885848484615a9e565b612919565b7f000000000000000000000000000000000000000000000000000000000000000073ffffffffffffffffffffffffffffffffffffffff168373ffffffffffffffffffffffffffffffffffffffff1614156125435761253d8585848461212e565b50612918565b600061254d615ee8565b73ffffffffffffffffffffffffffffffffffffffff1663b99b0a0c6040518163ffffffff1660e01b815260040160206040518083038186803b15801561259257600080fd5b505afa1580156125a6573d6000803e3d6000fd5b505050506040513d601f19601f820116820180604052508101906125ca91906172ac565b905060008173ffffffffffffffffffffffffffffffffffffffff1663bbe4f6db866040518263ffffffff1660e01b81526004016126079190617749565b60206040518083038186803b15801561261f57600080fd5b505afa158015612633573d6000803e3d6000fd5b505050506040513d601f19601f8201168201806040525081019061265791906172ac565b9050600115158273ffffffffffffffffffffffffffffffffffffffff16635b16ebb7836040518263ffffffff1660e01b81526004016126969190617749565b602060405180830381600087803b1580156126b057600080fd5b505af11580156126c4573d6000803e3d6000fd5b505050506040513d601f19601f820116820180604052508101906126e891906172d5565b15151461272a576040517f08c379a000000000000000000000000000000000000000000000000000000000815260040161272190617808565b60405180910390fd5b612737878783600061212e565b506000859050600073ffffffffffffffffffffffffffffffffffffffff168673ffffffffffffffffffffffffffffffffffffffff161415612796577f000000000000000000000000000000000000000000000000000000000000000090505b6000808373ffffffffffffffffffffffffffffffffffffffff16632783e4a984306040518363ffffffff1660e01b81526004016127d4929190617764565b6040805180830381600087803b1580156127ed57600080fd5b505af1158015612801573d6000803e3d6000fd5b505050506040513d601f19601f820116820180604052508101906128259190617590565b915091508582101561286c576040517f08c379a000000000000000000000000000000000000000000000000000000000815260040161286390617868565b60405180910390fd5b61287584616231565b61287f84826167d4565b612912888473ffffffffffffffffffffffffffffffffffffffff166370a08231306040518263ffffffff1660e01b81526004016128bc9190617749565b60206040518083038186803b1580156128d457600080fd5b505afa1580156128e8573d6000803e3d6000fd5b505050506040513d601f19601f8201168201806040525081019061290c9190617350565b89615f8d565b50505050505b5b5050505050565b60076020528060005260406000206000915090505481565b612940615ee8565b73ffffffffffffffffffffffffffffffffffffffff166398fabd3a6040518163ffffffff1660e01b815260040160206040518083038186803b15801561298557600080fd5b505afa158015612999573d6000803e3d6000fd5b505050506040513d601f19601f820116820180604052508101906129bd91906172ac565b73ffffffffffffffffffffffffffffffffffffffff163373ffffffffffffffffffffffffffffffffffffffff161480612a435750600160009054906101000a900473ffffffffffffffffffffffffffffffffffffffff1673ffffffffffffffffffffffffffffffffffffffff163373ffffffffffffffffffffffffffffffffffffffff16145b612a4c57600080fd5b8060038190555050565b6000612a60615ee8565b73ffffffffffffffffffffffffffffffffffffffff1663b99b0a0c6040518163ffffffff1660e01b815260040160206040518083038186803b158015612aa557600080fd5b505afa158015612ab9573d6000803e3d6000fd5b505050506040513d601f19601f82011682018060405250810190612add91906172ac565b905060008173ffffffffffffffffffffffffffffffffffffffff1663bbe4f6db856040518263ffffffff1660e01b8152600401612b1a9190617749565b60206040518083038186803b158015612b3257600080fd5b505afa158015612b46573d6000803e3d6000fd5b505050506040513d601f19601f82011682018060405250810190612b6a91906172ac565b9050600115158273ffffffffffffffffffffffffffffffffffffffff16635b16ebb7836040518263ffffffff1660e01b8152600401612ba99190617749565b602060405180830381600087803b158015612bc357600080fd5b505af1158015612bd7573d6000803e3d6000fd5b505050506040513d601f19601f82011682018060405250810190612bfb91906172d5565b151514612c3d576040517f08c379a0000000000000000000000000000000000000000000000000000000008152600401612c3490617808565b60405180910390fd5b6000849050600073ffffffffffffffffffffffffffffffffffffffff168573ffffffffffffffffffffffffffffffffffffffff161415612c9b577f000000000000000000000000000000000000000000000000000000000000000090505b8515612efc57612ccc7f0000000000000000000000000000000000000000000000000000000000000000883061690f565b612d037f0000000000000000000000000000000000000000000000000000000000000000600289612cfd91906179e7565b84615f8d565b8173ffffffffffffffffffffffffffffffffffffffff16632783e4a982306040518363ffffffff1660e01b8152600401612d3e929190617764565b6040805180830381600087803b158015612d5757600080fd5b505af1158015612d6b573d6000803e3d6000fd5b505050506040513d601f19601f82011682018060405250810190612d8f9190617590565b5050612e647f00000000000000000000000000000000000000000000000000000000000000007f000000000000000000000000000000000000000000000000000000000000000073ffffffffffffffffffffffffffffffffffffffff166370a08231306040518263ffffffff1660e01b8152600401612e0e9190617749565b60206040518083038186803b158015612e2657600080fd5b505afa158015612e3a573d6000803e3d6000fd5b505050506040513d601f19601f82011682018060405250810190612e5e9190617350565b84615f8d565b612ef7818273ffffffffffffffffffffffffffffffffffffffff166370a08231306040518263ffffffff1660e01b8152600401612ea19190617749565b60206040518083038186803b158015612eb957600080fd5b505afa158015612ecd573d6000803e3d6000fd5b505050506040513d601f19601f82011682018060405250810190612ef19190617350565b84615f8d565b613133565b612f0785883061690f565b612f1e81600289612f1891906179e7565b84615f8d565b8173ffffffffffffffffffffffffffffffffffffffff16632783e4a97f0000000000000000000000000000000000000000000000000000000000000000306040518363ffffffff1660e01b8152600401612f79929190617764565b6040805180830381600087803b158015612f9257600080fd5b505af1158015612fa6573d6000803e3d6000fd5b505050506040513d601f19601f82011682018060405250810190612fca9190617590565b505061309f7f00000000000000000000000000000000000000000000000000000000000000007f000000000000000000000000000000000000000000000000000000000000000073ffffffffffffffffffffffffffffffffffffffff166370a08231306040518263ffffffff1660e01b81526004016130499190617749565b60206040518083038186803b15801561306157600080fd5b505afa158015613075573d6000803e3d6000fd5b505050506040513d601f19601f820116820180604052508101906130999190617350565b84615f8d565b613132818273ffffffffffffffffffffffffffffffffffffffff166370a08231306040518263ffffffff1660e01b81526004016130dc9190617749565b60206040518083038186803b1580156130f457600080fd5b505afa158015613108573d6000803e3d6000fd5b505050506040513d601f19601f8201168201806040525081019061312c9190617350565b84615f8d565b5b8173ffffffffffffffffffffffffffffffffffffffff166386d5f618856040518263ffffffff1660e01b815260040161316c9190617749565b602060405180830381600087803b15801561318657600080fd5b505af115801561319a573d6000803e3d6000fd5b505050506040513d601f19601f820116820180604052508101906131be9190617350565b506131c882616231565b50505050505050565b6131de848484338561243f565b50505050565b6131ec615ee8565b73ffffffffffffffffffffffffffffffffffffffff166398fabd3a6040518163ffffffff1660e01b815260040160206040518083038186803b15801561323157600080fd5b505afa158015613245573d6000803e3d6000fd5b505050506040513d601f19601f8201168201806040525081019061326991906172ac565b73ffffffffffffffffffffffffffffffffffffffff163373ffffffffffffffffffffffffffffffffffffffff1614806132ef5750600160009054906101000a900473ffffffffffffffffffffffffffffffffffffffff1673ffffffffffffffffffffffffffffffffffffffff163373ffffffffffffffffffffffffffffffffffffffff16145b6132f857600080fd5b8073ffffffffffffffffffffffffffffffffffffffff16637ec3eae5836040518263ffffffff1660e01b81526004016133319190617908565b600060405180830381600087803b15801561334b57600080fd5b505af115801561335f573d6000803e3d6000fd5b505050505050565b7f000000000000000000000000000000000000000000000000000000000000000081565b60035481565b60045481565b61339f615ee8565b73ffffffffffffffffffffffffffffffffffffffff166398fabd3a6040518163ffffffff1660e01b815260040160206040518083038186803b1580156133e457600080fd5b505afa1580156133f8573d6000803e3d6000fd5b505050506040513d601f19601f8201168201806040525081019061341c91906172ac565b73ffffffffffffffffffffffffffffffffffffffff163373ffffffffffffffffffffffffffffffffffffffff1614806134a25750600160009054906101000a900473ffffffffffffffffffffffffffffffffffffffff1673ffffffffffffffffffffffffffffffffffffffff163373ffffffffffffffffffffffffffffffffffffffff16145b6134ab57600080fd5b8073ffffffffffffffffffffffffffffffffffffffff1663474e7302836040518263ffffffff1660e01b81526004016134e49190617908565b600060405180830381600087803b1580156134fe57600080fd5b505af1158015613512573d6000803e3d6000fd5b505050505050565b6000831161355d576040517f08c379a000000000000000000000000000000000000000000000000000000000815260040161355490617848565b60405180910390fd5b8073ffffffffffffffffffffffffffffffffffffffff168273ffffffffffffffffffffffffffffffffffffffff16141561359657600080fd5b600115156135a2615ee8565b73ffffffffffffffffffffffffffffffffffffffff16639d2cc4366040518163ffffffff1660e01b815260040160206040518083038186803b1580156135e757600080fd5b505afa1580156135fb573d6000803e3d6000fd5b505050506040513d601f19601f8201168201806040525081019061361f91906172ac565b73ffffffffffffffffffffffffffffffffffffffff1663194e22ce6040518163ffffffff1660e01b8152600401602060405180830381600087803b15801561366657600080fd5b505af115801561367a573d6000803e3d6000fd5b505050506040513d601f19601f8201168201806040525081019061369e91906172d5565b151514156136e1576040517f08c379a00000000000000000000000000000000000000000000000000000000081526004016136d8906178a8565b60405180910390fd5b60006136eb615ee8565b73ffffffffffffffffffffffffffffffffffffffff1663b99b0a0c6040518163ffffffff1660e01b815260040160206040518083038186803b15801561373057600080fd5b505afa158015613744573d6000803e3d6000fd5b505050506040513d601f19601f8201168201806040525081019061376891906172ac565b905060008373ffffffffffffffffffffffffffffffffffffffff16637535d2466040518163ffffffff1660e01b815260040160206040518083038186803b1580156137b257600080fd5b505afa1580156137c6573d6000803e3d6000fd5b505050506040513d601f19601f820116820180604052508101906137ea91906172ac565b9050600115158273ffffffffffffffffffffffffffffffffffffffff16635b16ebb7836040518263ffffffff1660e01b81526004016138299190617749565b602060405180830381600087803b15801561384357600080fd5b505af1158015613857573d6000803e3d6000fd5b505050506040513d601f19601f8201168201806040525081019061387b91906172d5565b1515146138bd576040517f08c379a00000000000000000000000000000000000000000000000000000000081526004016138b490617808565b60405180910390fd5b8373ffffffffffffffffffffffffffffffffffffffff166323b872dd3383886040518463ffffffff1660e01b81526004016138fa9392919061778d565b602060405180830381600087803b15801561391457600080fd5b505af1158015613928573d6000803e3d6000fd5b505050506040513d601f19601f8201168201806040525081019061394c91906172d5565b61398b576040517f08c379a000000000000000000000000000000000000000000000000000000000815260040161398290617888565b60405180910390fd5b60007f000000000000000000000000000000000000000000000000000000000000000073ffffffffffffffffffffffffffffffffffffffff168473ffffffffffffffffffffffffffffffffffffffff161415613a76578173ffffffffffffffffffffffffffffffffffffffff1663dbfc5a04336040518263ffffffff1660e01b8152600401613a1a9190617749565b6040805180830381600087803b158015613a3357600080fd5b505af1158015613a47573d6000803e3d6000fd5b505050506040513d601f19601f82011682018060405250810190613a6b9190617590565b905080915050613edc565b60008373ffffffffffffffffffffffffffffffffffffffff1663bbe4f6db866040518263ffffffff1660e01b8152600401613ab19190617749565b60206040518083038186803b158015613ac957600080fd5b505afa158015613add573d6000803e3d6000fd5b505050506040513d601f19601f82011682018060405250810190613b0191906172ac565b9050600115158473ffffffffffffffffffffffffffffffffffffffff16635b16ebb7836040518263ffffffff1660e01b8152600401613b409190617749565b602060405180830381600087803b158015613b5a57600080fd5b505af1158015613b6e573d6000803e3d6000fd5b505050506040513d601f19601f82011682018060405250810190613b9291906172d5565b151514613bd4576040517f08c379a0000000000000000000000000000000000000000000000000000000008152600401613bcb90617808565b60405180910390fd5b6000808473ffffffffffffffffffffffffffffffffffffffff1663dbfc5a04306040518263ffffffff1660e01b8152600401613c109190617749565b6040805180830381600087803b158015613c2957600080fd5b505af1158015613c3d573d6000803e3d6000fd5b505050506040513d601f19601f82011682018060405250810190613c619190617590565b905080945050613d3a7f00000000000000000000000000000000000000000000000000000000000000007f000000000000000000000000000000000000000000000000000000000000000073ffffffffffffffffffffffffffffffffffffffff166370a08231306040518263ffffffff1660e01b8152600401613ce49190617749565b60206040518083038186803b158015613cfc57600080fd5b505afa158015613d10573d6000803e3d6000fd5b505050506040513d601f19601f82011682018060405250810190613d349190617350565b85615f8d565b600073ffffffffffffffffffffffffffffffffffffffff168773ffffffffffffffffffffffffffffffffffffffff1614613e05578273ffffffffffffffffffffffffffffffffffffffff16632783e4a988336040518363ffffffff1660e01b8152600401613da9929190617764565b6040805180830381600087803b158015613dc257600080fd5b505af1158015613dd6573d6000803e3d6000fd5b505050506040513d601f19601f82011682018060405250810190613dfa9190617590565b905080925050613ec5565b8273ffffffffffffffffffffffffffffffffffffffff16632783e4a97f0000000000000000000000000000000000000000000000000000000000000000306040518363ffffffff1660e01b8152600401613e60929190617764565b6040805180830381600087803b158015613e7957600080fd5b505af1158015613e8d573d6000803e3d6000fd5b505050506040513d601f19601f82011682018060405250810190613eb19190617590565b8093508192505050613ec4878233615f8d565b5b613ece83616231565b613ed883836167d4565b5050505b613ee582616231565b613eef82826167d4565b60011515613efb615ee8565b73ffffffffffffffffffffffffffffffffffffffff16639d2cc4366040518163ffffffff1660e01b815260040160206040518083038186803b158015613f4057600080fd5b505afa158015613f54573d6000803e3d6000fd5b505050506040513d601f19601f82011682018060405250810190613f7891906172ac565b73ffffffffffffffffffffffffffffffffffffffff1663194e22ce6040518163ffffffff1660e01b8152600401602060405180830381600087803b158015613fbf57600080fd5b505af1158015613fd3573d6000803e3d6000fd5b505050506040513d601f19601f82011682018060405250810190613ff791906172d5565b1515141561403a576040517f08c379a0000000000000000000000000000000000000000000000000000000008152600401614031906178a8565b60405180910390fd5b505050505050565b61404e83838333612a56565b505050565b60008311614096576040517f08c379a000000000000000000000000000000000000000000000000000000000815260040161408d90617848565b60405180910390fd5b60006140a0615ee8565b73ffffffffffffffffffffffffffffffffffffffff16637b0e5c456040518163ffffffff1660e01b815260040160206040518083038186803b1580156140e557600080fd5b505afa1580156140f9573d6000803e3d6000fd5b505050506040513d601f19601f8201168201806040525081019061411d91906172ac565b73ffffffffffffffffffffffffffffffffffffffff1663714270ab85614141615ee8565b73ffffffffffffffffffffffffffffffffffffffff1663b99b0a0c6040518163ffffffff1660e01b815260040160206040518083038186803b15801561418657600080fd5b505afa15801561419a573d6000803e3d6000fd5b505050506040513d601f19601f820116820180604052508101906141be91906172ac565b73ffffffffffffffffffffffffffffffffffffffff1663bbe4f6db866040518263ffffffff1660e01b81526004016141f69190617749565b60206040518083038186803b15801561420e57600080fd5b505afa158015614222573d6000803e3d6000fd5b505050506040513d601f19601f8201168201806040525081019061424691906172ac565b73ffffffffffffffffffffffffffffffffffffffff166370a08231336040518263ffffffff1660e01b815260040161427e9190617749565b60206040518083038186803b15801561429657600080fd5b505afa1580156142aa573d6000803e3d6000fd5b505050506040513d601f19601f820116820180604052508101906142ce9190617350565b6040518363ffffffff1660e01b81526004016142eb92919061794c565b60206040518083038186803b15801561430357600080fd5b505afa158015614317573d6000803e3d6000fd5b505050506040513d601f19601f8201168201806040525081019061433b9190617350565b9050614348818484610dbd565b50505050565b8073ffffffffffffffffffffffffffffffffffffffff168273ffffffffffffffffffffffffffffffffffffffff161415801561438a5750600083115b6143c9576040517f08c379a00000000000000000000000000000000000000000000000000000000081526004016143c090617848565b60405180910390fd5b60006143d3615ee8565b73ffffffffffffffffffffffffffffffffffffffff1663b99b0a0c6040518163ffffffff1660e01b815260040160206040518083038186803b15801561441857600080fd5b505afa15801561442c573d6000803e3d6000fd5b505050506040513d601f19601f8201168201806040525081019061445091906172ac565b9050600115158173ffffffffffffffffffffffffffffffffffffffff16635b16ebb7856040518263ffffffff1660e01b815260040161448f9190617749565b602060405180830381600087803b1580156144a957600080fd5b505af11580156144bd573d6000803e3d6000fd5b505050506040513d601f19601f820116820180604052508101906144e191906172d5565b151514614523576040517f08c379a000000000000000000000000000000000000000000000000000000000815260040161451a90617808565b60405180910390fd5b600115158173ffffffffffffffffffffffffffffffffffffffff16635b16ebb7846040518263ffffffff1660e01b81526004016145609190617749565b602060405180830381600087803b15801561457a57600080fd5b505af115801561458e573d6000803e3d6000fd5b505050506040513d601f19601f820116820180604052508101906145b291906172d5565b1515146145f4576040517f08c379a00000000000000000000000000000000000000000000000000000000081526004016145eb90617808565b60405180910390fd5b60008373ffffffffffffffffffffffffffffffffffffffff166382bfefc86040518163ffffffff1660e01b815260040160206040518083038186803b15801561463c57600080fd5b505afa158015614650573d6000803e3d6000fd5b505050506040513d601f19601f8201168201806040525081019061467491906172ac565b905060008373ffffffffffffffffffffffffffffffffffffffff166382bfefc86040518163ffffffff1660e01b815260040160206040518083038186803b1580156146be57600080fd5b505afa1580156146d2573d6000803e3d6000fd5b505050506040513d601f19601f820116820180604052508101906146f691906172ac565b905060003390508573ffffffffffffffffffffffffffffffffffffffff166323b872dd82888a6040518463ffffffff1660e01b815260040161473a9392919061778d565b602060405180830381600087803b15801561475457600080fd5b505af1158015614768573d6000803e3d6000fd5b505050506040513d601f19601f8201168201806040525081019061478c91906172d5565b6147cb576040517f08c379a00000000000000000000000000000000000000000000000000000000081526004016147c290617888565b60405180910390fd5b8573ffffffffffffffffffffffffffffffffffffffff1663bc5dedc9306040518263ffffffff1660e01b81526004016148049190617749565b6040805180830381600087803b15801561481d57600080fd5b505af1158015614831573d6000803e3d6000fd5b505050506040513d601f19601f820116820180604052508101906148559190617590565b50508273ffffffffffffffffffffffffffffffffffffffff1663a9059cbb878573ffffffffffffffffffffffffffffffffffffffff166370a08231306040518263ffffffff1660e01b81526004016148ad9190617749565b60206040518083038186803b1580156148c557600080fd5b505afa1580156148d9573d6000803e3d6000fd5b505050506040513d601f19601f820116820180604052508101906148fd9190617350565b6040518363ffffffff1660e01b815260040161491a9291906177c4565b602060405180830381600087803b15801561493457600080fd5b505af1158015614948573d6000803e3d6000fd5b505050506040513d601f19601f8201168201806040525081019061496c91906172d5565b508573ffffffffffffffffffffffffffffffffffffffff16632783e4a97f0000000000000000000000000000000000000000000000000000000000000000306040518363ffffffff1660e01b81526004016149c8929190617764565b6040805180830381600087803b1580156149e157600080fd5b505af11580156149f5573d6000803e3d6000fd5b505050506040513d601f19601f82011682018060405250810190614a199190617590565b50507f000000000000000000000000000000000000000000000000000000000000000073ffffffffffffffffffffffffffffffffffffffff1663a9059cbb8660027f000000000000000000000000000000000000000000000000000000000000000073ffffffffffffffffffffffffffffffffffffffff166370a08231306040518263ffffffff1660e01b8152600401614ab39190617749565b60206040518083038186803b158015614acb57600080fd5b505afa158015614adf573d6000803e3d6000fd5b505050506040513d601f19601f82011682018060405250810190614b039190617350565b614b0d91906179e7565b6040518363ffffffff1660e01b8152600401614b2a9291906177c4565b602060405180830381600087803b158015614b4457600080fd5b505af1158015614b58573d6000803e3d6000fd5b505050506040513d601f19601f82011682018060405250810190614b7c91906172d5565b508473ffffffffffffffffffffffffffffffffffffffff16632783e4a983306040518363ffffffff1660e01b8152600401614bb8929190617764565b6040805180830381600087803b158015614bd157600080fd5b505af1158015614be5573d6000803e3d6000fd5b505050506040513d601f19601f82011682018060405250810190614c099190617590565b50507f000000000000000000000000000000000000000000000000000000000000000073ffffffffffffffffffffffffffffffffffffffff1663a9059cbb867f000000000000000000000000000000000000000000000000000000000000000073ffffffffffffffffffffffffffffffffffffffff166370a08231306040518263ffffffff1660e01b8152600401614ca19190617749565b60206040518083038186803b158015614cb957600080fd5b505afa158015614ccd573d6000803e3d6000fd5b505050506040513d601f19601f82011682018060405250810190614cf19190617350565b6040518363ffffffff1660e01b8152600401614d0e9291906177c4565b602060405180830381600087803b158015614d2857600080fd5b505af1158015614d3c573d6000803e3d6000fd5b505050506040513d601f19601f82011682018060405250810190614d6091906172d5565b508173ffffffffffffffffffffffffffffffffffffffff1663a9059cbb868473ffffffffffffffffffffffffffffffffffffffff166370a08231306040518263ffffffff1660e01b8152600401614db79190617749565b60206040518083038186803b158015614dcf57600080fd5b505afa158015614de3573d6000803e3d6000fd5b505050506040513d601f19601f82011682018060405250810190614e079190617350565b6040518363ffffffff1660e01b8152600401614e249291906177c4565b602060405180830381600087803b158015614e3e57600080fd5b505af1158015614e52573d6000803e3d6000fd5b505050506040513d601f19601f82011682018060405250810190614e7691906172d5565b508473ffffffffffffffffffffffffffffffffffffffff166386d5f618826040518263ffffffff1660e01b8152600401614eb09190617749565b602060405180830381600087803b158015614eca57600080fd5b505af1158015614ede573d6000803e3d6000fd5b505050506040513d601f19601f82011682018060405250810190614f029190617350565b50614f0c86616231565b614f1585616231565b50505050505050565b600160009054906101000a900473ffffffffffffffffffffffffffffffffffffffff1681565b60008211614f87576040517f08c379a0000000000000000000000000000000000000000000000000000000008152600401614f7e90617848565b60405180910390fd5b6000614f91615ee8565b73ffffffffffffffffffffffffffffffffffffffff1663b99b0a0c6040518163ffffffff1660e01b815260040160206040518083038186803b158015614fd657600080fd5b505afa158015614fea573d6000803e3d6000fd5b505050506040513d601f19601f8201168201806040525081019061500e91906172ac565b90506001151561501c615ee8565b73ffffffffffffffffffffffffffffffffffffffff16639d2cc4366040518163ffffffff1660e01b815260040160206040518083038186803b15801561506157600080fd5b505afa158015615075573d6000803e3d6000fd5b505050506040513d601f19601f8201168201806040525081019061509991906172ac565b73ffffffffffffffffffffffffffffffffffffffff1663194e22ce6040518163ffffffff1660e01b8152600401602060405180830381600087803b1580156150e057600080fd5b505af11580156150f4573d6000803e3d6000fd5b505050506040513d601f19601f8201168201806040525081019061511891906172d5565b1515141561515b576040517f08c379a0000000000000000000000000000000000000000000000000000000008152600401615152906178a8565b60405180910390fd5b60008173ffffffffffffffffffffffffffffffffffffffff1663bbe4f6db846040518263ffffffff1660e01b81526004016151969190617749565b60206040518083038186803b1580156151ae57600080fd5b505afa1580156151c2573d6000803e3d6000fd5b505050506040513d601f19601f820116820180604052508101906151e691906172ac565b9050600115158273ffffffffffffffffffffffffffffffffffffffff16635b16ebb7836040518263ffffffff1660e01b81526004016152259190617749565b602060405180830381600087803b15801561523f57600080fd5b505af1158015615253573d6000803e3d6000fd5b505050506040513d601f19601f8201168201806040525081019061527791906172d5565b1515146152b9576040517f08c379a00000000000000000000000000000000000000000000000000000000081526004016152b090617808565b60405180910390fd5b60003390508173ffffffffffffffffffffffffffffffffffffffff166323b872dd8284886040518463ffffffff1660e01b81526004016152fb9392919061778d565b602060405180830381600087803b15801561531557600080fd5b505af1158015615329573d6000803e3d6000fd5b505050506040513d601f19601f8201168201806040525081019061534d91906172d5565b61538c576040517f08c379a000000000000000000000000000000000000000000000000000000000815260040161538390617888565b60405180910390fd5b600073ffffffffffffffffffffffffffffffffffffffff168473ffffffffffffffffffffffffffffffffffffffff1614615451578173ffffffffffffffffffffffffffffffffffffffff1663bc5dedc9826040518263ffffffff1660e01b81526004016153f99190617749565b6040805180830381600087803b15801561541257600080fd5b505af1158015615426573d6000803e3d6000fd5b505050506040513d601f19601f8201168201806040525081019061544a9190617590565b5050615670565b8173ffffffffffffffffffffffffffffffffffffffff1663bc5dedc9306040518263ffffffff1660e01b815260040161548a9190617749565b6040805180830381600087803b1580156154a357600080fd5b505af11580156154b7573d6000803e3d6000fd5b505050506040513d601f19601f820116820180604052508101906154db9190617590565b505060007f000000000000000000000000000000000000000000000000000000000000000073ffffffffffffffffffffffffffffffffffffffff166370a08231306040518263ffffffff1660e01b81526004016155389190617749565b60206040518083038186803b15801561555057600080fd5b505afa158015615564573d6000803e3d6000fd5b505050506040513d601f19601f820116820180604052508101906155889190617350565b905060007f000000000000000000000000000000000000000000000000000000000000000073ffffffffffffffffffffffffffffffffffffffff166370a08231306040518263ffffffff1660e01b81526004016155e59190617749565b60206040518083038186803b1580156155fd57600080fd5b505afa158015615611573d6000803e3d6000fd5b505050506040513d601f19601f820116820180604052508101906156359190617350565b9050615642868285615f8d565b61566d7f00000000000000000000000000000000000000000000000000000000000000008385615f8d565b50505b61567982616231565b5050505050565b61568b8282336156d1565b5050565b60066020528060005260406000206000915090505481565b7f000000000000000000000000000000000000000000000000000000000000000081565b60025481565b60006156db615ee8565b73ffffffffffffffffffffffffffffffffffffffff1663b99b0a0c6040518163ffffffff1660e01b815260040160206040518083038186803b15801561572057600080fd5b505afa158015615734573d6000803e3d6000fd5b505050506040513d601f19601f8201168201806040525081019061575891906172ac565b905060008173ffffffffffffffffffffffffffffffffffffffff1663bbe4f6db856040518263ffffffff1660e01b81526004016157959190617749565b60206040518083038186803b1580156157ad57600080fd5b505afa1580156157c1573d6000803e3d6000fd5b505050506040513d601f19601f820116820180604052508101906157e591906172ac565b9050600115158273ffffffffffffffffffffffffffffffffffffffff16635b16ebb7836040518263ffffffff1660e01b81526004016158249190617749565b602060405180830381600087803b15801561583e57600080fd5b505af1158015615852573d6000803e3d6000fd5b505050506040513d601f19601f8201168201806040525081019061587691906172d5565b1515146158b8576040517f08c379a00000000000000000000000000000000000000000000000000000000081526004016158af90617808565b60405180910390fd5b60006158c2615ee8565b73ffffffffffffffffffffffffffffffffffffffff16637b0e5c456040518163ffffffff1660e01b815260040160206040518083038186803b15801561590757600080fd5b505afa15801561591b573d6000803e3d6000fd5b505050506040513d601f19601f8201168201806040525081019061593f91906172ac565b73ffffffffffffffffffffffffffffffffffffffff1663c19387df86886040518363ffffffff1660e01b81526004016159799291906177c4565b60206040518083038186803b15801561599157600080fd5b505afa1580156159a5573d6000803e3d6000fd5b505050506040513d601f19601f820116820180604052508101906159c99190617350565b90506159f67f0000000000000000000000000000000000000000000000000000000000000000828461690f565b615a0185878461690f565b8173ffffffffffffffffffffffffffffffffffffffff166386d5f618856040518263ffffffff1660e01b8152600401615a3a9190617749565b602060405180830381600087803b158015615a5457600080fd5b505af1158015615a68573d6000803e3d6000fd5b505050506040513d601f19601f82011682018060405250810190615a8c9190617350565b50615a9682616231565b505050505050565b6000615aa8615ee8565b73ffffffffffffffffffffffffffffffffffffffff1663b99b0a0c6040518163ffffffff1660e01b815260040160206040518083038186803b158015615aed57600080fd5b505afa158015615b01573d6000803e3d6000fd5b505050506040513d601f19601f82011682018060405250810190615b2591906172ac565b905060008173ffffffffffffffffffffffffffffffffffffffff1663bbe4f6db866040518263ffffffff1660e01b8152600401615b629190617749565b60206040518083038186803b158015615b7a57600080fd5b505afa158015615b8e573d6000803e3d6000fd5b505050506040513d601f19601f82011682018060405250810190615bb291906172ac565b9050600115158273ffffffffffffffffffffffffffffffffffffffff16635b16ebb7836040518263ffffffff1660e01b8152600401615bf19190617749565b602060405180830381600087803b158015615c0b57600080fd5b505af1158015615c1f573d6000803e3d6000fd5b505050506040513d601f19601f82011682018060405250810190615c4391906172d5565b151514615c85576040517f08c379a0000000000000000000000000000000000000000000000000000000008152600401615c7c90617808565b60405180910390fd5b615cb07f0000000000000000000000000000000000000000000000000000000000000000878361690f565b60008073ffffffffffffffffffffffffffffffffffffffff168673ffffffffffffffffffffffffffffffffffffffff1614615dc5576000808373ffffffffffffffffffffffffffffffffffffffff16632783e4a989896040518363ffffffff1660e01b8152600401615d23929190617764565b6040805180830381600087803b158015615d3c57600080fd5b505af1158015615d50573d6000803e3d6000fd5b505050506040513d601f19601f82011682018060405250810190615d749190617590565b9150915085821015615dbb576040517f08c379a0000000000000000000000000000000000000000000000000000000008152600401615db290617868565b60405180910390fd5b8092505050615ecc565b6000808373ffffffffffffffffffffffffffffffffffffffff16632783e4a97f0000000000000000000000000000000000000000000000000000000000000000306040518363ffffffff1660e01b8152600401615e23929190617764565b6040805180830381600087803b158015615e3c57600080fd5b505af1158015615e50573d6000803e3d6000fd5b505050506040513d601f19601f82011682018060405250810190615e749190617590565b9150915085821015615ebb576040517f08c379a0000000000000000000000000000000000000000000000000000000008152600401615eb290617868565b60405180910390fd5b615ec6888389615f8d565b80925050505b615ed582616231565b615edf82826167d4565b50505050505050565b60007f000000000000000000000000000000000000000000000000000000000000000073ffffffffffffffffffffffffffffffffffffffff166398fabd3a6040518163ffffffff1660e01b815260040160206040518083038186803b158015615f5057600080fd5b505afa158015615f64573d6000803e3d6000fd5b505050506040513d601f19601f82011682018060405250810190615f8891906172fe565b905090565b60026000541415615fd3576040517f08c379a0000000000000000000000000000000000000000000000000000000008152600401615fca906178e8565b60405180910390fd5b6002600081905550600082111561622457600073ffffffffffffffffffffffffffffffffffffffff168373ffffffffffffffffffffffffffffffffffffffff161415616156577f000000000000000000000000000000000000000000000000000000000000000073ffffffffffffffffffffffffffffffffffffffff16632e1a7d4d836040518263ffffffff1660e01b81526004016160729190617908565b600060405180830381600087803b15801561608c57600080fd5b505af11580156160a0573d6000803e3d6000fd5b5050505060008173ffffffffffffffffffffffffffffffffffffffff16836040516160ca90617734565b60006040518083038185875af1925050503d8060008114616107576040519150601f19603f3d011682016040523d82523d6000602084013e61610c565b606091505b5050905080616150576040517f08c379a000000000000000000000000000000000000000000000000000000000815260040161614790617828565b60405180910390fd5b50616223565b8273ffffffffffffffffffffffffffffffffffffffff1663a9059cbb82846040518363ffffffff1660e01b81526004016161919291906177c4565b602060405180830381600087803b1580156161ab57600080fd5b505af11580156161bf573d6000803e3d6000fd5b505050506040513d601f19601f820116820180604052508101906161e391906172d5565b616222576040517f08c379a000000000000000000000000000000000000000000000000000000000815260040161621990617888565b60405180910390fd5b5b5b6001600081905550505050565b616239615ee8565b73ffffffffffffffffffffffffffffffffffffffff1663b99b0a0c6040518163ffffffff1660e01b815260040160206040518083038186803b15801561627e57600080fd5b505afa158015616292573d6000803e3d6000fd5b505050506040513d601f19601f820116820180604052508101906162b691906172ac565b73ffffffffffffffffffffffffffffffffffffffff16638dcb4c93826040518263ffffffff1660e01b81526004016162ee9190617749565b60206040518083038186803b15801561630657600080fd5b505afa15801561631a573d6000803e3d6000fd5b505050506040513d601f19601f8201168201806040525081019061633e91906172d5565b156167d1578073ffffffffffffffffffffffffffffffffffffffff166362a5af3b6040518163ffffffff1660e01b815260040160206040518083038186803b15801561638957600080fd5b505afa15801561639d573d6000803e3d6000fd5b505050506040513d601f19601f820116820180604052508101906163c191906172d5565b156164b7576163ce615ee8565b73ffffffffffffffffffffffffffffffffffffffff16639d2cc4366040518163ffffffff1660e01b815260040160206040518083038186803b15801561641357600080fd5b505afa158015616427573d6000803e3d6000fd5b505050506040513d601f19601f8201168201806040525081019061644b91906172ac565b73ffffffffffffffffffffffffffffffffffffffff16637828c71760016040518263ffffffff1660e01b815260040161648491906177ed565b600060405180830381600087803b15801561649e57600080fd5b505af11580156164b2573d6000803e3d6000fd5b505050505b6164bf615ee8565b73ffffffffffffffffffffffffffffffffffffffff16639d2cc4366040518163ffffffff1660e01b815260040160206040518083038186803b15801561650457600080fd5b505afa158015616518573d6000803e3d6000fd5b505050506040513d601f19601f8201168201806040525081019061653c91906172ac565b73ffffffffffffffffffffffffffffffffffffffff1663194e22ce6040518163ffffffff1660e01b8152600401602060405180830381600087803b15801561658357600080fd5b505af1158015616597573d6000803e3d6000fd5b505050506040513d601f19601f820116820180604052508101906165bb91906172d5565b156167d05760006165ca615ee8565b73ffffffffffffffffffffffffffffffffffffffff16639d2cc4366040518163ffffffff1660e01b815260040160206040518083038186803b15801561660f57600080fd5b505afa158015616623573d6000803e3d6000fd5b505050506040513d601f19601f8201168201806040525081019061664791906172ac565b73ffffffffffffffffffffffffffffffffffffffff1663fd7e1bee6040518163ffffffff1660e01b8152600401602060405180830381600087803b15801561668e57600080fd5b505af11580156166a2573d6000803e3d6000fd5b505050506040513d601f19601f820116820180604052508101906166c69190617350565b9050610e10816166d69190617991565b4211156167ce576166e5615ee8565b73ffffffffffffffffffffffffffffffffffffffff16639d2cc4366040518163ffffffff1660e01b815260040160206040518083038186803b15801561672a57600080fd5b505afa15801561673e573d6000803e3d6000fd5b505050506040513d601f19601f8201168201806040525081019061676291906172ac565b73ffffffffffffffffffffffffffffffffffffffff16637828c71760006040518263ffffffff1660e01b815260040161679b91906177ed565b600060405180830381600087803b1580156167b557600080fd5b505af11580156167c9573d6000803e3d6000fd5b505050505b505b5b50565b670de0b6b3a7640000811180156168fb5750600115156167f2615ee8565b73ffffffffffffffffffffffffffffffffffffffff1663b99b0a0c6040518163ffffffff1660e01b815260040160206040518083038186803b15801561683757600080fd5b505afa15801561684b573d6000803e3d6000fd5b505050506040513d601f19601f8201168201806040525081019061686f91906172ac565b73ffffffffffffffffffffffffffffffffffffffff16638dcb4c93846040518263ffffffff1660e01b81526004016168a79190617749565b60206040518083038186803b1580156168bf57600080fd5b505afa1580156168d3573d6000803e3d6000fd5b505050506040513d601f19601f820116820180604052508101906168f791906172d5565b1515145b1561690b5761690a8282616c3d565b5b5050565b60026000541415616955576040517f08c379a000000000000000000000000000000000000000000000000000000000815260040161694c906178e8565b60405180910390fd5b6002600081905550600082116169a0576040517f08c379a0000000000000000000000000000000000000000000000000000000008152600401616997906178c8565b60405180910390fd5b600073ffffffffffffffffffffffffffffffffffffffff168373ffffffffffffffffffffffffffffffffffffffff161415616b61573482146169e157600080fd5b60007f000000000000000000000000000000000000000000000000000000000000000073ffffffffffffffffffffffffffffffffffffffff1683604051616a2790617734565b60006040518083038185875af1925050503d8060008114616a64576040519150601f19603f3d011682016040523d82523d6000602084013e616a69565b606091505b5050905080616aad576040517f08c379a0000000000000000000000000000000000000000000000000000000008152600401616aa490617828565b60405180910390fd5b7f000000000000000000000000000000000000000000000000000000000000000073ffffffffffffffffffffffffffffffffffffffff1663a9059cbb83856040518363ffffffff1660e01b8152600401616b089291906177c4565b602060405180830381600087803b158015616b2257600080fd5b505af1158015616b36573d6000803e3d6000fd5b505050506040513d601f19601f82011682018060405250810190616b5a91906172d5565b5050616c30565b8273ffffffffffffffffffffffffffffffffffffffff166323b872dd3383856040518463ffffffff1660e01b8152600401616b9e9392919061778d565b602060405180830381600087803b158015616bb857600080fd5b505af1158015616bcc573d6000803e3d6000fd5b505050506040513d601f19601f82011682018060405250810190616bf091906172d5565b616c2f576040517f08c379a0000000000000000000000000000000000000000000000000000000008152600401616c2690617888565b60405180910390fd5b5b6001600081905550505050565b60007f000000000000000000000000000000000000000000000000000000000000000073ffffffffffffffffffffffffffffffffffffffff166370a08231616c83615ee8565b73ffffffffffffffffffffffffffffffffffffffff16639d2cc4366040518163ffffffff1660e01b815260040160206040518083038186803b158015616cc857600080fd5b505afa158015616cdc573d6000803e3d6000fd5b505050506040513d601f19601f82011682018060405250810190616d0091906172ac565b6040518263ffffffff1660e01b8152600401616d1c9190617749565b60206040518083038186803b158015616d3457600080fd5b505afa158015616d48573d6000803e3d6000fd5b505050506040513d601f19601f82011682018060405250810190616d6c9190617350565b90506000811115616f5357600061271060055460025484616d8d9190617a18565b616d9791906179e7565b616da191906179e7565b90508083600660008773ffffffffffffffffffffffffffffffffffffffff1673ffffffffffffffffffffffffffffffffffffffff16815260200190815260200160002054616def9190617991565b1015616f5157616dff8385616f58565b616e07615ee8565b73ffffffffffffffffffffffffffffffffffffffff16639d2cc4366040518163ffffffff1660e01b815260040160206040518083038186803b158015616e4c57600080fd5b505afa158015616e60573d6000803e3d6000fd5b505050506040513d601f19601f82011682018060405250810190616e8491906172ac565b73ffffffffffffffffffffffffffffffffffffffff16637d458baa84866040518363ffffffff1660e01b8152600401616ebe929190617923565b600060405180830381600087803b158015616ed857600080fd5b505af1158015616eec573d6000803e3d6000fd5b505050508373ffffffffffffffffffffffffffffffffffffffff1663fff6cae96040518163ffffffff1660e01b8152600401600060405180830381600087803b158015616f3857600080fd5b505af1158015616f4c573d6000803e3d6000fd5b505050505b505b505050565b60006004541415616f6b57426004819055505b62278d00600454616f7c9190617991565b42116170155781600660008373ffffffffffffffffffffffffffffffffffffffff1673ffffffffffffffffffffffffffffffffffffffff16815260200190815260200160002054616fcd9190617991565b600660008373ffffffffffffffffffffffffffffffffffffffff1673ffffffffffffffffffffffffffffffffffffffff168152602001908152602001600020819055506171ec565b42600481905550600660008273ffffffffffffffffffffffffffffffffffffffff1673ffffffffffffffffffffffffffffffffffffffff16815260200190815260200160002054600760008373ffffffffffffffffffffffffffffffffffffffff1673ffffffffffffffffffffffffffffffffffffffff1681526020019081526020016000208190555081600660008373ffffffffffffffffffffffffffffffffffffffff1673ffffffffffffffffffffffffffffffffffffffff168152602001908152602001600020819055506170eb615ee8565b73ffffffffffffffffffffffffffffffffffffffff1663b99b0a0c6040518163ffffffff1660e01b815260040160206040518083038186803b15801561713057600080fd5b505afa158015617144573d6000803e3d6000fd5b505050506040513d601f19601f8201168201806040525081019061716891906172ac565b73ffffffffffffffffffffffffffffffffffffffff16638bc51e366040518163ffffffff1660e01b815260040160206040518083038186803b1580156171ad57600080fd5b505afa1580156171c1573d6000803e3d6000fd5b505050506040513d601f19601f820116820180604052508101906171e59190617350565b6005819055505b5050565b6000813590506171ff81617c75565b92915050565b60008151905061721481617c75565b92915050565b60008135905061722981617c8c565b92915050565b60008151905061723e81617c8c565b92915050565b60008151905061725381617ca3565b92915050565b60008135905061726881617cba565b92915050565b60008151905061727d81617cba565b92915050565b60006020828403121561729557600080fd5b60006172a3848285016171f0565b91505092915050565b6000602082840312156172be57600080fd5b60006172cc84828501617205565b91505092915050565b6000602082840312156172e757600080fd5b60006172f58482850161722f565b91505092915050565b60006020828403121561731057600080fd5b600061731e84828501617244565b91505092915050565b60006020828403121561733957600080fd5b600061734784828501617259565b91505092915050565b60006020828403121561736257600080fd5b60006173708482850161726e565b91505092915050565b6000806040838503121561738c57600080fd5b600061739a85828601617259565b92505060206173ab858286016171f0565b9150509250929050565b6000806000606084860312156173ca57600080fd5b60006173d886828701617259565b93505060206173e9868287016171f0565b92505060406173fa868287016171f0565b9150509250925092565b600080600080600060a0868803121561741c57600080fd5b600061742a88828901617259565b955050602061743b888289016171f0565b945050604061744c888289016171f0565b935050606061745d888289016171f0565b925050608061746e88828901617259565b9150509295509295909350565b6000806000806080858703121561749157600080fd5b600061749f87828801617259565b94505060206174b0878288016171f0565b93505060406174c1878288016171f0565b92505060606174d287828801617259565b91505092959194509250565b6000806000606084860312156174f357600080fd5b600061750186828701617259565b93505060206175128682870161721a565b9250506040617523868287016171f0565b9150509250925092565b6000806000806080858703121561754357600080fd5b600061755187828801617259565b94505060206175628782880161721a565b9350506040617573878288016171f0565b9250506060617584878288016171f0565b91505092959194509250565b600080604083850312156175a357600080fd5b60006175b18582860161726e565b92505060206175c28582860161726e565b9150509250929050565b6175d581617a72565b82525050565b6175e481617a84565b82525050565b60006175f7600583617980565b915061760282617b2a565b602082019050919050565b600061761a600583617980565b915061762582617b53565b602082019050919050565b600061763d600683617980565b915061764882617b7c565b602082019050919050565b6000617660600583617980565b915061766b82617ba5565b602082019050919050565b6000617683600983617980565b915061768e82617bce565b602082019050919050565b60006176a6600083617975565b91506176b182617bf7565b600082019050919050565b60006176c9600583617980565b91506176d482617bfa565b602082019050919050565b60006176ec600483617980565b91506176f782617c23565b602082019050919050565b600061770f601f83617980565b915061771a82617c4c565b602082019050919050565b61772e81617ac2565b82525050565b600061773f82617699565b9150819050919050565b600060208201905061775e60008301846175cc565b92915050565b600060408201905061777960008301856175cc565b61778660208301846175cc565b9392505050565b60006060820190506177a260008301866175cc565b6177af60208301856175cc565b6177bc6040830184617725565b949350505050565b60006040820190506177d960008301856175cc565b6177e66020830184617725565b9392505050565b600060208201905061780260008301846175db565b92915050565b60006020820190508181036000830152617821816175ea565b9050919050565b600060208201905081810360008301526178418161760d565b9050919050565b6000602082019050818103600083015261786181617630565b9050919050565b6000602082019050818103600083015261788181617653565b9050919050565b600060208201905081810360008301526178a181617676565b9050919050565b600060208201905081810360008301526178c1816176bc565b9050919050565b600060208201905081810360008301526178e1816176df565b9050919050565b6000602082019050818103600083015261790181617702565b9050919050565b600060208201905061791d6000830184617725565b92915050565b60006040820190506179386000830185617725565b61794560208301846175cc565b9392505050565b60006040820190506179616000830185617725565b61796e6020830184617725565b9392505050565b600081905092915050565b600082825260208201905092915050565b600061799c82617ac2565b91506179a783617ac2565b9250827fffffffffffffffffffffffffffffffffffffffffffffffffffffffffffffffff038211156179dc576179db617acc565b5b828201905092915050565b60006179f282617ac2565b91506179fd83617ac2565b925082617a0d57617a0c617afb565b5b828204905092915050565b6000617a2382617ac2565b9150617a2e83617ac2565b9250817fffffffffffffffffffffffffffffffffffffffffffffffffffffffffffffffff0483118215151615617a6757617a66617acc565b5b828202905092915050565b6000617a7d82617aa2565b9050919050565b60008115159050919050565b6000617a9b82617a72565b9050919050565b600073ffffffffffffffffffffffffffffffffffffffff82169050919050565b6000819050919050565b7f4e487b7100000000000000000000000000000000000000000000000000000000600052601160045260246000fd5b7f4e487b7100000000000000000000000000000000000000000000000000000000600052601260045260246000fd5b7f21504f4f4c000000000000000000000000000000000000000000000000000000600082015250565b7f2173656e64000000000000000000000000000000000000000000000000000000600082015250565b7f2156414c49440000000000000000000000000000000000000000000000000000600082015250565b7f2152415445000000000000000000000000000000000000000000000000000000600082015250565b7f217472616e736665720000000000000000000000000000000000000000000000600082015250565b50565b7f2153414645000000000000000000000000000000000000000000000000000000600082015250565b7f2147415300000000000000000000000000000000000000000000000000000000600082015250565b7f5265656e7472616e637947756172643a207265656e7472616e742063616c6c00600082015250565b617c7e81617a72565b8114617c8957600080fd5b50565b617c9581617a84565b8114617ca057600080fd5b50565b617cac81617a90565b8114617cb757600080fd5b50565b617cc381617ac2565b8114617cce57600080fd5b5056fea2646970667358221220961915a54c82c9d38f6beaebe8ba487df64559d02cec16cd7eae582fd8460b3464736f6c63430008030033",
  "linkReferences": {},
  "deployedLinkReferences": {}
}