{
  "_format": "hh-sol-artifact-1",
  "contractName": "Router",
  "sourceName": "contracts/Router.sol",
  "abi": [
    {
      "inputs": [
        {
          "internalType": "address",
          "name": "_base",
          "type": "address"
        },
        {
          "internalType": "address",
          "name": "_wbnb",
          "type": "address"
        }
      ],
      "stateMutability": "nonpayable",
      "type": "constructor"
    },
    {
      "inputs": [],
      "name": "BASE",
      "outputs": [
        {
          "internalType": "address",
          "name": "",
          "type": "address"
        }
      ],
      "stateMutability": "view",
      "type": "function"
    },
    {
      "inputs": [],
      "name": "DEPLOYER",
      "outputs": [
        {
          "internalType": "address",
          "name": "",
          "type": "address"
        }
      ],
      "stateMutability": "view",
      "type": "function"
    },
    {
      "inputs": [
        {
          "internalType": "uint256",
          "name": "poolRTC",
          "type": "uint256"
        },
        {
          "internalType": "address",
          "name": "_pool",
          "type": "address"
        }
      ],
      "name": "RTC",
      "outputs": [],
      "stateMutability": "nonpayable",
      "type": "function"
    },
    {
      "inputs": [],
      "name": "WBNB",
      "outputs": [
        {
          "internalType": "address",
          "name": "",
          "type": "address"
        }
      ],
      "stateMutability": "view",
      "type": "function"
    },
    {
      "inputs": [
        {
          "internalType": "uint256",
          "name": "inputToken",
          "type": "uint256"
        },
        {
          "internalType": "uint256",
          "name": "baseAmount",
          "type": "uint256"
        },
        {
          "internalType": "address",
          "name": "token",
          "type": "address"
        }
      ],
      "name": "addLiquidity",
      "outputs": [],
      "stateMutability": "payable",
      "type": "function"
    },
    {
      "inputs": [
        {
          "internalType": "uint256",
          "name": "input",
          "type": "uint256"
        },
        {
          "internalType": "bool",
          "name": "fromBase",
          "type": "bool"
        },
        {
          "internalType": "address",
          "name": "token",
          "type": "address"
        }
      ],
      "name": "addLiquidityAsym",
      "outputs": [],
      "stateMutability": "payable",
      "type": "function"
    },
    {
      "inputs": [
        {
          "internalType": "uint256",
          "name": "_input",
          "type": "uint256"
        },
        {
          "internalType": "bool",
          "name": "_fromBase",
          "type": "bool"
        },
        {
          "internalType": "address",
          "name": "token",
          "type": "address"
        },
        {
          "internalType": "address",
          "name": "_member",
          "type": "address"
        }
      ],
      "name": "addLiquidityAsymForMember",
      "outputs": [],
      "stateMutability": "payable",
      "type": "function"
    },
    {
      "inputs": [
        {
          "internalType": "uint256",
          "name": "inputToken",
          "type": "uint256"
        },
        {
          "internalType": "uint256",
          "name": "baseAmount",
          "type": "uint256"
        },
        {
          "internalType": "address",
          "name": "token",
          "type": "address"
        },
        {
          "internalType": "address",
          "name": "member",
          "type": "address"
        }
      ],
      "name": "addLiquidityForMember",
      "outputs": [
        {
          "internalType": "uint256",
          "name": "LPsMinted",
          "type": "uint256"
        }
      ],
      "stateMutability": "payable",
      "type": "function"
    },
    {
      "inputs": [
        {
          "internalType": "uint256",
          "name": "amount",
          "type": "uint256"
        },
        {
          "internalType": "address",
          "name": "token",
          "type": "address"
        },
        {
          "internalType": "address",
          "name": "member",
          "type": "address"
        },
        {
          "internalType": "uint256",
          "name": "minAmount",
          "type": "uint256"
        }
      ],
      "name": "buyTo",
      "outputs": [],
      "stateMutability": "nonpayable",
      "type": "function"
    },
    {
      "inputs": [
        {
          "internalType": "uint256",
          "name": "_newDiviClaim",
          "type": "uint256"
        }
      ],
      "name": "changeDiviClaim",
      "outputs": [],
      "stateMutability": "nonpayable",
      "type": "function"
    },
    {
      "inputs": [
        {
          "internalType": "uint256",
          "name": "_globalCap",
          "type": "uint256"
        }
      ],
      "name": "changeGlobalCap",
      "outputs": [],
      "stateMutability": "nonpayable",
      "type": "function"
    },
    {
      "inputs": [
        {
          "internalType": "uint256",
          "name": "newMinimum",
          "type": "uint256"
        },
        {
          "internalType": "address",
          "name": "_pool",
          "type": "address"
        }
      ],
      "name": "changeMinimumSynth",
      "outputs": [],
      "stateMutability": "nonpayable",
      "type": "function"
    },
    {
      "inputs": [
        {
          "internalType": "uint256",
          "name": "synthCap",
          "type": "uint256"
        },
        {
          "internalType": "address",
          "name": "_pool",
          "type": "address"
        }
      ],
      "name": "changeSynthCap",
      "outputs": [],
      "stateMutability": "nonpayable",
      "type": "function"
    },
    {
      "inputs": [],
      "name": "curatedPoolsCount",
      "outputs": [
        {
          "internalType": "uint256",
          "name": "",
          "type": "uint256"
        }
      ],
      "stateMutability": "view",
      "type": "function"
    },
    {
      "inputs": [],
      "name": "diviClaim",
      "outputs": [
        {
          "internalType": "uint256",
          "name": "",
          "type": "uint256"
        }
      ],
      "stateMutability": "view",
      "type": "function"
    },
    {
      "inputs": [],
      "name": "globalCap",
      "outputs": [
        {
          "internalType": "uint256",
          "name": "",
          "type": "uint256"
        }
      ],
      "stateMutability": "view",
      "type": "function"
    },
    {
      "inputs": [],
      "name": "lastMonth",
      "outputs": [
        {
          "internalType": "uint256",
          "name": "",
          "type": "uint256"
        }
      ],
      "stateMutability": "view",
      "type": "function"
    },
    {
      "inputs": [
        {
          "internalType": "address",
          "name": "",
          "type": "address"
        }
      ],
      "name": "mapAddress_30DayDividends",
      "outputs": [
        {
          "internalType": "uint256",
          "name": "",
          "type": "uint256"
        }
      ],
      "stateMutability": "view",
      "type": "function"
    },
    {
      "inputs": [
        {
          "internalType": "address",
          "name": "",
          "type": "address"
        }
      ],
      "name": "mapAddress_Past30DayPoolDividends",
      "outputs": [
        {
          "internalType": "uint256",
          "name": "",
          "type": "uint256"
        }
      ],
      "stateMutability": "view",
      "type": "function"
    },
    {
      "inputs": [],
      "name": "purgeDeployer",
      "outputs": [],
      "stateMutability": "nonpayable",
      "type": "function"
    },
    {
      "inputs": [
        {
          "internalType": "uint256",
          "name": "basisPoints",
          "type": "uint256"
        },
        {
          "internalType": "address",
          "name": "token",
          "type": "address"
        }
      ],
      "name": "removeLiquidity",
      "outputs": [],
      "stateMutability": "nonpayable",
      "type": "function"
    },
    {
      "inputs": [
        {
          "internalType": "uint256",
          "name": "basisPoints",
          "type": "uint256"
        },
        {
          "internalType": "bool",
          "name": "toBase",
          "type": "bool"
        },
        {
          "internalType": "address",
          "name": "token",
          "type": "address"
        }
      ],
      "name": "removeLiquidityAsym",
      "outputs": [],
      "stateMutability": "nonpayable",
      "type": "function"
    },
    {
      "inputs": [
        {
          "internalType": "uint256",
          "name": "units",
          "type": "uint256"
        },
        {
          "internalType": "address",
          "name": "token",
          "type": "address"
        }
      ],
      "name": "removeLiquidityExact",
      "outputs": [],
      "stateMutability": "nonpayable",
      "type": "function"
    },
    {
      "inputs": [
        {
          "internalType": "uint256",
          "name": "units",
          "type": "uint256"
        },
        {
          "internalType": "bool",
          "name": "toBase",
          "type": "bool"
        },
        {
          "internalType": "address",
          "name": "token",
          "type": "address"
        }
      ],
      "name": "removeLiquidityExactAsym",
      "outputs": [],
      "stateMutability": "nonpayable",
      "type": "function"
    },
    {
      "inputs": [
        {
          "internalType": "uint256",
          "name": "amount",
          "type": "uint256"
        },
        {
          "internalType": "address",
          "name": "token",
          "type": "address"
        },
        {
          "internalType": "address",
          "name": "member",
          "type": "address"
        },
        {
          "internalType": "uint256",
          "name": "minAmount",
          "type": "uint256"
        }
      ],
      "name": "sellTo",
      "outputs": [
        {
          "internalType": "uint256",
          "name": "",
          "type": "uint256"
        }
      ],
      "stateMutability": "payable",
      "type": "function"
    },
    {
      "inputs": [
        {
          "internalType": "uint256",
          "name": "inputAmount",
          "type": "uint256"
        },
        {
          "internalType": "address",
          "name": "fromToken",
          "type": "address"
        },
        {
          "internalType": "address",
          "name": "toToken",
          "type": "address"
        },
        {
          "internalType": "uint256",
          "name": "minAmount",
          "type": "uint256"
        }
      ],
      "name": "swap",
      "outputs": [],
      "stateMutability": "payable",
      "type": "function"
    },
    {
      "inputs": [
        {
          "internalType": "uint256",
          "name": "inputAmount",
          "type": "uint256"
        },
        {
          "internalType": "address",
          "name": "fromToken",
          "type": "address"
        },
        {
          "internalType": "address",
          "name": "toSynth",
          "type": "address"
        }
      ],
      "name": "swapAssetToSynth",
      "outputs": [],
      "stateMutability": "payable",
      "type": "function"
    },
    {
      "inputs": [
        {
          "internalType": "uint256",
          "name": "inputAmount",
          "type": "uint256"
        },
        {
          "internalType": "address",
          "name": "fromSynth",
          "type": "address"
        },
        {
          "internalType": "address",
          "name": "toToken",
          "type": "address"
        }
      ],
      "name": "swapSynthToAsset",
      "outputs": [],
      "stateMutability": "nonpayable",
      "type": "function"
    },
    {
      "inputs": [
        {
          "internalType": "uint256",
          "name": "inputAmount",
          "type": "uint256"
        },
        {
          "internalType": "address",
          "name": "fromToken",
          "type": "address"
        },
        {
          "internalType": "address",
          "name": "toToken",
          "type": "address"
        },
        {
          "internalType": "address",
          "name": "member",
          "type": "address"
        },
        {
          "internalType": "uint256",
          "name": "minAmount",
          "type": "uint256"
        }
      ],
      "name": "swapTo",
      "outputs": [],
      "stateMutability": "payable",
      "type": "function"
    },
    {
      "inputs": [
        {
          "internalType": "uint256",
          "name": "unitsInput",
          "type": "uint256"
        },
        {
          "internalType": "address",
          "name": "fromPool",
          "type": "address"
        },
        {
          "internalType": "address",
          "name": "toPool",
          "type": "address"
        }
      ],
      "name": "zapLiquidity",
      "outputs": [],
      "stateMutability": "nonpayable",
      "type": "function"
    },
    {
      "stateMutability": "payable",
      "type": "receive"
    }
  ],
  "bytecode": "0x60c06040523480156200001157600080fd5b506040516200823b3803806200823b833981810160405281019062000037919062000204565b6001600081905550600073ffffffffffffffffffffffffffffffffffffffff168273ffffffffffffffffffffffffffffffffffffffff161415620000b2576040517f08c379a0000000000000000000000000000000000000000000000000000000008152600401620000a9906200026c565b60405180910390fd5b600073ffffffffffffffffffffffffffffffffffffffff168173ffffffffffffffffffffffffffffffffffffffff16141562000125576040517f08c379a00000000000000000000000000000000000000000000000000000000081526004016200011c906200026c565b60405180910390fd5b8173ffffffffffffffffffffffffffffffffffffffff1660808173ffffffffffffffffffffffffffffffffffffffff1660601b815250508073ffffffffffffffffffffffffffffffffffffffff1660a08173ffffffffffffffffffffffffffffffffffffffff1660601b815250506107d0600381905550606460028190555033600160006101000a81548173ffffffffffffffffffffffffffffffffffffffff021916908373ffffffffffffffffffffffffffffffffffffffff160217905550505062000316565b600081519050620001fe81620002fc565b92915050565b600080604083850312156200021857600080fd5b60006200022885828601620001ed565b92505060206200023b85828601620001ed565b9150509250929050565b6000620002546005836200028e565b91506200026182620002d3565b602082019050919050565b60006020820190508181036000830152620002878162000245565b9050919050565b600082825260208201905092915050565b6000620002ac82620002b3565b9050919050565b600073ffffffffffffffffffffffffffffffffffffffff82169050919050565b7f215a45524f000000000000000000000000000000000000000000000000000000600082015250565b62000307816200029f565b81146200031357600080fd5b50565b60805160601c60a05160601c617dd362000468600039600081816112e10152818161278801528181612c8d0152818161338f015281816141070152818161587201528181615cee01528181615f23015281816168ed01526169b701526000818161143f015281816114d5015281816115120152818161166e015281816116ab01528181611ca501528181611d0601528181611d4301528181611e61015281816123560152818161248e015281816124f301528181612cba01528181612ce501528181612daa01528181612dcb01528181612f5001528181612fe5015281816130060152818161359e01528181613c7301528181613f5001528181613f7101528181614c6f01528181614d0101528181614d4001528181614ef101528181614f2e015281816157c50152818161592b0152818161597e01528181615b9201528181615df40152616b490152617dd36000f3fe6080604052600436106101d15760003560e01c80638dd95002116100f7578063b3a1400711610095578063cbb3a14a11610064578063cbb3a14a146105d3578063ec342ad014610610578063ee85eda41461063b578063f48610f314610666576101d8565b8063b3a140071461052d578063b45e1dbc14610556578063c1b8411a1461057f578063c8c1fb75146105aa576101d8565b806399d786ca116100d157806399d786ca146104945780639ea5705a146104bf578063a1cd6aa5146104e8578063aa62519b14610511576101d8565b80638dd950021461040e57806393cac6851461043957806399a2af7514610469576101d8565b8063398ceaae1161016f5780636325681e1161013e5780636325681e1461039157806370085be0146103ad57806387b21efc146103c95780638b697c20146103e5576101d8565b8063398ceaae146102e45780633e384a951461030f578063451918db1461032b5780635777646714610368576101d8565b806307f4d34c116101ab57806307f4d34c146102465780631e2dd5151461026f5780633173ec3c14610298578063334ea133146102b4576101d8565b8063022c4437146101dd57806303a821381461020657806305fe138b1461021d576101d8565b366101d857005b600080fd5b3480156101e957600080fd5b5061020460048036038101906101ff9190617393565b61068f565b005b34801561021257600080fd5b5061021b610812565b005b34801561022957600080fd5b50610244600480360381019061023f9190617393565b61096a565b005b34801561025257600080fd5b5061026d60048036038101906102689190617341565b610c63565b005b34801561027b57600080fd5b50610296600480360381019061029191906174f8565b610dd1565b005b6102b260048036038101906102ad91906173cf565b611905565b005b6102ce60048036038101906102c99190617495565b612142565b6040516102db91906179d4565b60405180910390f35b3480156102f057600080fd5b506102f961244d565b60405161030691906179d4565b60405180910390f35b6103296004803603810190610324919061741e565b612453565b005b34801561033757600080fd5b50610352600480360381019061034d919061729d565b612934565b60405161035f91906179d4565b60405180910390f35b34801561037457600080fd5b5061038f600480360381019061038a9190617341565b61294c565b005b6103ab60048036038101906103a69190617547565b612a6a565b005b6103c760048036038101906103c29190617495565b6131e5565b005b6103e360048036038101906103de91906175e6565b6131f8565b005b3480156103f157600080fd5b5061040c60048036038101906104079190617393565b61320a565b005b34801561041a57600080fd5b5061042361338d565b6040516104309190617815565b60405180910390f35b610453600480360381019061044e9190617635565b6133b1565b60405161046091906179d4565b60405180910390f35b34801561047557600080fd5b5061047e61366f565b60405161048b91906179d4565b60405180910390f35b3480156104a057600080fd5b506104a9613675565b6040516104b691906179d4565b60405180910390f35b3480156104cb57600080fd5b506104e660048036038101906104e19190617393565b61367b565b005b3480156104f457600080fd5b5061050f600480360381019061050a91906173cf565b6137fe565b005b61052b600480360381019061052691906174f8565b614326565b005b34801561053957600080fd5b50610554600480360381019061054f91906174f8565b614337565b005b34801561056257600080fd5b5061057d600480360381019061057891906173cf565b614632565b005b34801561058b57600080fd5b50610594615202565b6040516105a19190617815565b60405180910390f35b3480156105b657600080fd5b506105d160048036038101906105cc9190617393565b615228565b005b3480156105df57600080fd5b506105fa60048036038101906105f5919061729d565b615964565b60405161060791906179d4565b60405180910390f35b34801561061c57600080fd5b5061062561597c565b6040516106329190617815565b60405180910390f35b34801561064757600080fd5b506106506159a0565b60405161065d91906179d4565b60405180910390f35b34801561067257600080fd5b5061068d60048036038101906106889190617495565b6159a6565b005b610697615df0565b73ffffffffffffffffffffffffffffffffffffffff166398fabd3a6040518163ffffffff1660e01b815260040160206040518083038186803b1580156106dc57600080fd5b505afa1580156106f0573d6000803e3d6000fd5b505050506040513d601f19601f8201168201806040525081019061071491906172c6565b73ffffffffffffffffffffffffffffffffffffffff163373ffffffffffffffffffffffffffffffffffffffff16148061079a5750600160009054906101000a900473ffffffffffffffffffffffffffffffffffffffff1673ffffffffffffffffffffffffffffffffffffffff163373ffffffffffffffffffffffffffffffffffffffff16145b6107a357600080fd5b8073ffffffffffffffffffffffffffffffffffffffff1663308aca1d836040518263ffffffff1660e01b81526004016107dc91906179d4565b600060405180830381600087803b1580156107f657600080fd5b505af115801561080a573d6000803e3d6000fd5b505050505050565b61081a615df0565b73ffffffffffffffffffffffffffffffffffffffff166398fabd3a6040518163ffffffff1660e01b815260040160206040518083038186803b15801561085f57600080fd5b505afa158015610873573d6000803e3d6000fd5b505050506040513d601f19601f8201168201806040525081019061089791906172c6565b73ffffffffffffffffffffffffffffffffffffffff163373ffffffffffffffffffffffffffffffffffffffff16148061091d5750600160009054906101000a900473ffffffffffffffffffffffffffffffffffffffff1673ffffffffffffffffffffffffffffffffffffffff163373ffffffffffffffffffffffffffffffffffffffff16145b61092657600080fd5b6000600160006101000a81548173ffffffffffffffffffffffffffffffffffffffff021916908373ffffffffffffffffffffffffffffffffffffffff160217905550565b600082116109ad576040517f08c379a00000000000000000000000000000000000000000000000000000000081526004016109a490617914565b60405180910390fd5b60006109b7615df0565b73ffffffffffffffffffffffffffffffffffffffff16637b0e5c456040518163ffffffff1660e01b815260040160206040518083038186803b1580156109fc57600080fd5b505afa158015610a10573d6000803e3d6000fd5b505050506040513d601f19601f82011682018060405250810190610a3491906172c6565b73ffffffffffffffffffffffffffffffffffffffff1663714270ab84610a58615df0565b73ffffffffffffffffffffffffffffffffffffffff1663b99b0a0c6040518163ffffffff1660e01b815260040160206040518083038186803b158015610a9d57600080fd5b505afa158015610ab1573d6000803e3d6000fd5b505050506040513d601f19601f82011682018060405250810190610ad591906172c6565b73ffffffffffffffffffffffffffffffffffffffff1663bbe4f6db866040518263ffffffff1660e01b8152600401610b0d9190617815565b60206040518083038186803b158015610b2557600080fd5b505afa158015610b39573d6000803e3d6000fd5b505050506040513d601f19601f82011682018060405250810190610b5d91906172c6565b73ffffffffffffffffffffffffffffffffffffffff166370a08231336040518263ffffffff1660e01b8152600401610b959190617815565b60206040518083038186803b158015610bad57600080fd5b505afa158015610bc1573d6000803e3d6000fd5b505050506040513d601f19601f82011682018060405250810190610be5919061736a565b6040518363ffffffff1660e01b8152600401610c02929190617a18565b60206040518083038186803b158015610c1a57600080fd5b505afa158015610c2e573d6000803e3d6000fd5b505050506040513d601f19601f82011682018060405250810190610c52919061736a565b9050610c5e8183615228565b505050565b610c6b615df0565b73ffffffffffffffffffffffffffffffffffffffff166398fabd3a6040518163ffffffff1660e01b815260040160206040518083038186803b158015610cb057600080fd5b505afa158015610cc4573d6000803e3d6000fd5b505050506040513d601f19601f82011682018060405250810190610ce891906172c6565b73ffffffffffffffffffffffffffffffffffffffff163373ffffffffffffffffffffffffffffffffffffffff161480610d6e5750600160009054906101000a900473ffffffffffffffffffffffffffffffffffffffff1673ffffffffffffffffffffffffffffffffffffffff163373ffffffffffffffffffffffffffffffffffffffff16145b610d7757600080fd5b600081118015610d88575061138881105b610dc7576040517f08c379a0000000000000000000000000000000000000000000000000000000008152600401610dbe90617914565b60405180910390fd5b8060028190555050565b60008311610e14576040517f08c379a0000000000000000000000000000000000000000000000000000000008152600401610e0b90617914565b60405180910390fd5b60011515610e20615df0565b73ffffffffffffffffffffffffffffffffffffffff16639d2cc4366040518163ffffffff1660e01b815260040160206040518083038186803b158015610e6557600080fd5b505afa158015610e79573d6000803e3d6000fd5b505050506040513d601f19601f82011682018060405250810190610e9d91906172c6565b73ffffffffffffffffffffffffffffffffffffffff1663194e22ce6040518163ffffffff1660e01b8152600401602060405180830381600087803b158015610ee457600080fd5b505af1158015610ef8573d6000803e3d6000fd5b505050506040513d601f19601f82011682018060405250810190610f1c91906172ef565b15151415610f5f576040517f08c379a0000000000000000000000000000000000000000000000000000000008152600401610f5690617974565b60405180910390fd5b6000610f69615df0565b73ffffffffffffffffffffffffffffffffffffffff1663b99b0a0c6040518163ffffffff1660e01b815260040160206040518083038186803b158015610fae57600080fd5b505afa158015610fc2573d6000803e3d6000fd5b505050506040513d601f19601f82011682018060405250810190610fe691906172c6565b905060008173ffffffffffffffffffffffffffffffffffffffff1663bbe4f6db846040518263ffffffff1660e01b81526004016110239190617815565b60206040518083038186803b15801561103b57600080fd5b505afa15801561104f573d6000803e3d6000fd5b505050506040513d601f19601f8201168201806040525081019061107391906172c6565b9050600115158273ffffffffffffffffffffffffffffffffffffffff16635b16ebb7836040518263ffffffff1660e01b81526004016110b29190617815565b602060405180830381600087803b1580156110cc57600080fd5b505af11580156110e0573d6000803e3d6000fd5b505050506040513d601f19601f8201168201806040525081019061110491906172ef565b151514611146576040517f08c379a000000000000000000000000000000000000000000000000000000000815260040161113d906178d4565b60405180910390fd5b60003390508173ffffffffffffffffffffffffffffffffffffffff166323b872dd8284896040518463ffffffff1660e01b815260040161118893929190617859565b602060405180830381600087803b1580156111a257600080fd5b505af11580156111b6573d6000803e3d6000fd5b505050506040513d601f19601f820116820180604052508101906111da91906172ef565b611219576040517f08c379a000000000000000000000000000000000000000000000000000000000815260040161121090617954565b60405180910390fd5b8173ffffffffffffffffffffffffffffffffffffffff1663bc5dedc9306040518263ffffffff1660e01b81526004016112529190617815565b6040805180830381600087803b15801561126b57600080fd5b505af115801561127f573d6000803e3d6000fd5b505050506040513d601f19601f820116820180604052508101906112a391906175aa565b50506000849050600073ffffffffffffffffffffffffffffffffffffffff168573ffffffffffffffffffffffffffffffffffffffff161415611303577f000000000000000000000000000000000000000000000000000000000000000090505b6000861561166c578173ffffffffffffffffffffffffffffffffffffffff1663a9059cbb858473ffffffffffffffffffffffffffffffffffffffff166370a08231306040518263ffffffff1660e01b81526004016113619190617815565b60206040518083038186803b15801561137957600080fd5b505afa15801561138d573d6000803e3d6000fd5b505050506040513d601f19601f820116820180604052508101906113b1919061736a565b6040518363ffffffff1660e01b81526004016113ce929190617890565b602060405180830381600087803b1580156113e857600080fd5b505af11580156113fc573d6000803e3d6000fd5b505050506040513d601f19601f8201168201806040525081019061142091906172ef565b508373ffffffffffffffffffffffffffffffffffffffff16632783e4a97f0000000000000000000000000000000000000000000000000000000000000000306040518363ffffffff1660e01b815260040161147c929190617830565b6040805180830381600087803b15801561149557600080fd5b505af11580156114a9573d6000803e3d6000fd5b505050506040513d601f19601f820116820180604052508101906114cd91906175aa565b9050809150507f000000000000000000000000000000000000000000000000000000000000000073ffffffffffffffffffffffffffffffffffffffff1663a9059cbb847f000000000000000000000000000000000000000000000000000000000000000073ffffffffffffffffffffffffffffffffffffffff166370a08231306040518263ffffffff1660e01b81526004016115699190617815565b60206040518083038186803b15801561158157600080fd5b505afa158015611595573d6000803e3d6000fd5b505050506040513d601f19601f820116820180604052508101906115b9919061736a565b6040518363ffffffff1660e01b81526004016115d6929190617890565b602060405180830381600087803b1580156115f057600080fd5b505af1158015611604573d6000803e3d6000fd5b505050506040513d601f19601f8201168201806040525081019061162891906172ef565b611667576040517f08c379a000000000000000000000000000000000000000000000000000000000815260040161165e90617954565b60405180910390fd5b6118e8565b7f000000000000000000000000000000000000000000000000000000000000000073ffffffffffffffffffffffffffffffffffffffff1663a9059cbb857f000000000000000000000000000000000000000000000000000000000000000073ffffffffffffffffffffffffffffffffffffffff166370a08231306040518263ffffffff1660e01b81526004016117029190617815565b60206040518083038186803b15801561171a57600080fd5b505afa15801561172e573d6000803e3d6000fd5b505050506040513d601f19601f82011682018060405250810190611752919061736a565b6040518363ffffffff1660e01b815260040161176f929190617890565b602060405180830381600087803b15801561178957600080fd5b505af115801561179d573d6000803e3d6000fd5b505050506040513d601f19601f820116820180604052508101906117c191906172ef565b508373ffffffffffffffffffffffffffffffffffffffff16632783e4a983306040518363ffffffff1660e01b81526004016117fd929190617830565b6040805180830381600087803b15801561181657600080fd5b505af115801561182a573d6000803e3d6000fd5b505050506040513d601f19601f8201168201806040525081019061184e91906175aa565b9050809150506118e7868373ffffffffffffffffffffffffffffffffffffffff166370a08231306040518263ffffffff1660e01b81526004016118919190617815565b60206040518083038186803b1580156118a957600080fd5b505afa1580156118bd573d6000803e3d6000fd5b505050506040513d601f19601f820116820180604052508101906118e1919061736a565b85615e95565b5b6118f184616139565b6118fb84826166dc565b5050505050505050565b60008311611948576040517f08c379a000000000000000000000000000000000000000000000000000000000815260040161193f90617914565b60405180910390fd5b8073ffffffffffffffffffffffffffffffffffffffff168273ffffffffffffffffffffffffffffffffffffffff16141561198157600080fd5b6001151561198d615df0565b73ffffffffffffffffffffffffffffffffffffffff16639d2cc4366040518163ffffffff1660e01b815260040160206040518083038186803b1580156119d257600080fd5b505afa1580156119e6573d6000803e3d6000fd5b505050506040513d601f19601f82011682018060405250810190611a0a91906172c6565b73ffffffffffffffffffffffffffffffffffffffff1663194e22ce6040518163ffffffff1660e01b8152600401602060405180830381600087803b158015611a5157600080fd5b505af1158015611a65573d6000803e3d6000fd5b505050506040513d601f19601f82011682018060405250810190611a8991906172ef565b15151415611acc576040517f08c379a0000000000000000000000000000000000000000000000000000000008152600401611ac390617974565b60405180910390fd5b60008173ffffffffffffffffffffffffffffffffffffffff16637535d2466040518163ffffffff1660e01b815260040160206040518083038186803b158015611b1457600080fd5b505afa158015611b28573d6000803e3d6000fd5b505050506040513d601f19601f82011682018060405250810190611b4c91906172c6565b905060011515611b5a615df0565b73ffffffffffffffffffffffffffffffffffffffff1663b99b0a0c6040518163ffffffff1660e01b815260040160206040518083038186803b158015611b9f57600080fd5b505afa158015611bb3573d6000803e3d6000fd5b505050506040513d601f19601f82011682018060405250810190611bd791906172c6565b73ffffffffffffffffffffffffffffffffffffffff16635b16ebb7836040518263ffffffff1660e01b8152600401611c0f9190617815565b602060405180830381600087803b158015611c2957600080fd5b505af1158015611c3d573d6000803e3d6000fd5b505050506040513d601f19601f82011682018060405250810190611c6191906172ef565b151514611ca3576040517f08c379a0000000000000000000000000000000000000000000000000000000008152600401611c9a906178d4565b60405180910390fd5b7f000000000000000000000000000000000000000000000000000000000000000073ffffffffffffffffffffffffffffffffffffffff168373ffffffffffffffffffffffffffffffffffffffff1614611e5f57611d038484306000612142565b507f000000000000000000000000000000000000000000000000000000000000000073ffffffffffffffffffffffffffffffffffffffff1663a9059cbb827f000000000000000000000000000000000000000000000000000000000000000073ffffffffffffffffffffffffffffffffffffffff166370a08231306040518263ffffffff1660e01b8152600401611d9a9190617815565b60206040518083038186803b158015611db257600080fd5b505afa158015611dc6573d6000803e3d6000fd5b505050506040513d601f19601f82011682018060405250810190611dea919061736a565b6040518363ffffffff1660e01b8152600401611e07929190617890565b602060405180830381600087803b158015611e2157600080fd5b505af1158015611e35573d6000803e3d6000fd5b505050506040513d601f19601f82011682018060405250810190611e5991906172ef565b50611f4e565b7f000000000000000000000000000000000000000000000000000000000000000073ffffffffffffffffffffffffffffffffffffffff166323b872dd3383876040518463ffffffff1660e01b8152600401611ebc93929190617859565b602060405180830381600087803b158015611ed657600080fd5b505af1158015611eea573d6000803e3d6000fd5b505050506040513d601f19601f82011682018060405250810190611f0e91906172ef565b611f4d576040517f08c379a0000000000000000000000000000000000000000000000000000000008152600401611f4490617954565b60405180910390fd5b5b60008173ffffffffffffffffffffffffffffffffffffffff1663f1bbdef2336040518263ffffffff1660e01b8152600401611f899190617815565b6040805180830381600087803b158015611fa257600080fd5b505af1158015611fb6573d6000803e3d6000fd5b505050506040513d601f19601f82011682018060405250810190611fda91906175aa565b915050611fe682616139565b611ff082826166dc565b60011515611ffc615df0565b73ffffffffffffffffffffffffffffffffffffffff16639d2cc4366040518163ffffffff1660e01b815260040160206040518083038186803b15801561204157600080fd5b505afa158015612055573d6000803e3d6000fd5b505050506040513d601f19601f8201168201806040525081019061207991906172c6565b73ffffffffffffffffffffffffffffffffffffffff1663194e22ce6040518163ffffffff1660e01b8152600401602060405180830381600087803b1580156120c057600080fd5b505af11580156120d4573d6000803e3d6000fd5b505050506040513d601f19601f820116820180604052508101906120f891906172ef565b1515141561213b576040517f08c379a000000000000000000000000000000000000000000000000000000000815260040161213290617974565b60405180910390fd5b5050505050565b60008061214d615df0565b73ffffffffffffffffffffffffffffffffffffffff1663b99b0a0c6040518163ffffffff1660e01b815260040160206040518083038186803b15801561219257600080fd5b505afa1580156121a6573d6000803e3d6000fd5b505050506040513d601f19601f820116820180604052508101906121ca91906172c6565b905060008173ffffffffffffffffffffffffffffffffffffffff1663bbe4f6db876040518263ffffffff1660e01b81526004016122079190617815565b60206040518083038186803b15801561221f57600080fd5b505afa158015612233573d6000803e3d6000fd5b505050506040513d601f19601f8201168201806040525081019061225791906172c6565b9050600115158273ffffffffffffffffffffffffffffffffffffffff16635b16ebb7836040518263ffffffff1660e01b81526004016122969190617815565b602060405180830381600087803b1580156122b057600080fd5b505af11580156122c4573d6000803e3d6000fd5b505050506040513d601f19601f820116820180604052508101906122e891906172ef565b15151461232a576040517f08c379a0000000000000000000000000000000000000000000000000000000008152600401612321906178d4565b60405180910390fd5b612335868883616817565b6000808273ffffffffffffffffffffffffffffffffffffffff16632783e4a97f0000000000000000000000000000000000000000000000000000000000000000896040518363ffffffff1660e01b8152600401612393929190617830565b6040805180830381600087803b1580156123ac57600080fd5b505af11580156123c0573d6000803e3d6000fd5b505050506040513d601f19601f820116820180604052508101906123e491906175aa565b915091508582101561242b576040517f08c379a000000000000000000000000000000000000000000000000000000000815260040161242290617934565b60405180910390fd5b61243483616139565b61243e83826166dc565b80945050505050949350505050565b60055481565b8273ffffffffffffffffffffffffffffffffffffffff168473ffffffffffffffffffffffffffffffffffffffff16141561248c57600080fd5b7f000000000000000000000000000000000000000000000000000000000000000073ffffffffffffffffffffffffffffffffffffffff168473ffffffffffffffffffffffffffffffffffffffff1614156124f1576124ec858484846159a6565b61292d565b7f000000000000000000000000000000000000000000000000000000000000000073ffffffffffffffffffffffffffffffffffffffff168373ffffffffffffffffffffffffffffffffffffffff1614156125575761255185858484612142565b5061292c565b6000612561615df0565b73ffffffffffffffffffffffffffffffffffffffff1663b99b0a0c6040518163ffffffff1660e01b815260040160206040518083038186803b1580156125a657600080fd5b505afa1580156125ba573d6000803e3d6000fd5b505050506040513d601f19601f820116820180604052508101906125de91906172c6565b905060008173ffffffffffffffffffffffffffffffffffffffff1663bbe4f6db866040518263ffffffff1660e01b815260040161261b9190617815565b60206040518083038186803b15801561263357600080fd5b505afa158015612647573d6000803e3d6000fd5b505050506040513d601f19601f8201168201806040525081019061266b91906172c6565b9050600115158273ffffffffffffffffffffffffffffffffffffffff16635b16ebb7836040518263ffffffff1660e01b81526004016126aa9190617815565b602060405180830381600087803b1580156126c457600080fd5b505af11580156126d8573d6000803e3d6000fd5b505050506040513d601f19601f820116820180604052508101906126fc91906172ef565b15151461273e576040517f08c379a0000000000000000000000000000000000000000000000000000000008152600401612735906178d4565b60405180910390fd5b61274b8787836000612142565b506000859050600073ffffffffffffffffffffffffffffffffffffffff168673ffffffffffffffffffffffffffffffffffffffff1614156127aa577f000000000000000000000000000000000000000000000000000000000000000090505b6000808373ffffffffffffffffffffffffffffffffffffffff16632783e4a984306040518363ffffffff1660e01b81526004016127e8929190617830565b6040805180830381600087803b15801561280157600080fd5b505af1158015612815573d6000803e3d6000fd5b505050506040513d601f19601f8201168201806040525081019061283991906175aa565b9150915085821015612880576040517f08c379a000000000000000000000000000000000000000000000000000000000815260040161287790617934565b60405180910390fd5b61288984616139565b61289384826166dc565b612926888473ffffffffffffffffffffffffffffffffffffffff166370a08231306040518263ffffffff1660e01b81526004016128d09190617815565b60206040518083038186803b1580156128e857600080fd5b505afa1580156128fc573d6000803e3d6000fd5b505050506040513d601f19601f82011682018060405250810190612920919061736a565b89615e95565b50505050505b5b5050505050565b60076020528060005260406000206000915090505481565b612954615df0565b73ffffffffffffffffffffffffffffffffffffffff166398fabd3a6040518163ffffffff1660e01b815260040160206040518083038186803b15801561299957600080fd5b505afa1580156129ad573d6000803e3d6000fd5b505050506040513d601f19601f820116820180604052508101906129d191906172c6565b73ffffffffffffffffffffffffffffffffffffffff163373ffffffffffffffffffffffffffffffffffffffff161480612a575750600160009054906101000a900473ffffffffffffffffffffffffffffffffffffffff1673ffffffffffffffffffffffffffffffffffffffff163373ffffffffffffffffffffffffffffffffffffffff16145b612a6057600080fd5b8060038190555050565b6000612a74615df0565b73ffffffffffffffffffffffffffffffffffffffff1663b99b0a0c6040518163ffffffff1660e01b815260040160206040518083038186803b158015612ab957600080fd5b505afa158015612acd573d6000803e3d6000fd5b505050506040513d601f19601f82011682018060405250810190612af191906172c6565b905060008173ffffffffffffffffffffffffffffffffffffffff1663bbe4f6db856040518263ffffffff1660e01b8152600401612b2e9190617815565b60206040518083038186803b158015612b4657600080fd5b505afa158015612b5a573d6000803e3d6000fd5b505050506040513d601f19601f82011682018060405250810190612b7e91906172c6565b9050600115158273ffffffffffffffffffffffffffffffffffffffff16635b16ebb7836040518263ffffffff1660e01b8152600401612bbd9190617815565b602060405180830381600087803b158015612bd757600080fd5b505af1158015612beb573d6000803e3d6000fd5b505050506040513d601f19601f82011682018060405250810190612c0f91906172ef565b151514612c51576040517f08c379a0000000000000000000000000000000000000000000000000000000008152600401612c48906178d4565b60405180910390fd5b6000849050600073ffffffffffffffffffffffffffffffffffffffff168573ffffffffffffffffffffffffffffffffffffffff161415612caf577f000000000000000000000000000000000000000000000000000000000000000090505b8515612f1057612ce07f00000000000000000000000000000000000000000000000000000000000000008830616817565b612d177f0000000000000000000000000000000000000000000000000000000000000000600289612d119190617ab3565b84615e95565b8173ffffffffffffffffffffffffffffffffffffffff16632783e4a982306040518363ffffffff1660e01b8152600401612d52929190617830565b6040805180830381600087803b158015612d6b57600080fd5b505af1158015612d7f573d6000803e3d6000fd5b505050506040513d601f19601f82011682018060405250810190612da391906175aa565b5050612e787f00000000000000000000000000000000000000000000000000000000000000007f000000000000000000000000000000000000000000000000000000000000000073ffffffffffffffffffffffffffffffffffffffff166370a08231306040518263ffffffff1660e01b8152600401612e229190617815565b60206040518083038186803b158015612e3a57600080fd5b505afa158015612e4e573d6000803e3d6000fd5b505050506040513d601f19601f82011682018060405250810190612e72919061736a565b84615e95565b612f0b818273ffffffffffffffffffffffffffffffffffffffff166370a08231306040518263ffffffff1660e01b8152600401612eb59190617815565b60206040518083038186803b158015612ecd57600080fd5b505afa158015612ee1573d6000803e3d6000fd5b505050506040513d601f19601f82011682018060405250810190612f05919061736a565b84615e95565b613147565b612f1b858830616817565b612f3281600289612f2c9190617ab3565b84615e95565b8173ffffffffffffffffffffffffffffffffffffffff16632783e4a97f0000000000000000000000000000000000000000000000000000000000000000306040518363ffffffff1660e01b8152600401612f8d929190617830565b6040805180830381600087803b158015612fa657600080fd5b505af1158015612fba573d6000803e3d6000fd5b505050506040513d601f19601f82011682018060405250810190612fde91906175aa565b50506130b37f00000000000000000000000000000000000000000000000000000000000000007f000000000000000000000000000000000000000000000000000000000000000073ffffffffffffffffffffffffffffffffffffffff166370a08231306040518263ffffffff1660e01b815260040161305d9190617815565b60206040518083038186803b15801561307557600080fd5b505afa158015613089573d6000803e3d6000fd5b505050506040513d601f19601f820116820180604052508101906130ad919061736a565b84615e95565b613146818273ffffffffffffffffffffffffffffffffffffffff166370a08231306040518263ffffffff1660e01b81526004016130f09190617815565b60206040518083038186803b15801561310857600080fd5b505afa15801561311c573d6000803e3d6000fd5b505050506040513d601f19601f82011682018060405250810190613140919061736a565b84615e95565b5b8173ffffffffffffffffffffffffffffffffffffffff166386d5f618856040518263ffffffff1660e01b81526004016131809190617815565b602060405180830381600087803b15801561319a57600080fd5b505af11580156131ae573d6000803e3d6000fd5b505050506040513d601f19601f820116820180604052508101906131d2919061736a565b506131dc82616139565b50505050505050565b6131f28484843385612453565b50505050565b613204838383336133b1565b50505050565b613212615df0565b73ffffffffffffffffffffffffffffffffffffffff166398fabd3a6040518163ffffffff1660e01b815260040160206040518083038186803b15801561325757600080fd5b505afa15801561326b573d6000803e3d6000fd5b505050506040513d601f19601f8201168201806040525081019061328f91906172c6565b73ffffffffffffffffffffffffffffffffffffffff163373ffffffffffffffffffffffffffffffffffffffff1614806133155750600160009054906101000a900473ffffffffffffffffffffffffffffffffffffffff1673ffffffffffffffffffffffffffffffffffffffff163373ffffffffffffffffffffffffffffffffffffffff16145b61331e57600080fd5b8073ffffffffffffffffffffffffffffffffffffffff16637ec3eae5836040518263ffffffff1660e01b815260040161335791906179d4565b600060405180830381600087803b15801561337157600080fd5b505af1158015613385573d6000803e3d6000fd5b505050505050565b7f000000000000000000000000000000000000000000000000000000000000000081565b6000806133bc615df0565b73ffffffffffffffffffffffffffffffffffffffff1663b99b0a0c6040518163ffffffff1660e01b815260040160206040518083038186803b15801561340157600080fd5b505afa158015613415573d6000803e3d6000fd5b505050506040513d601f19601f8201168201806040525081019061343991906172c6565b905060008173ffffffffffffffffffffffffffffffffffffffff1663bbe4f6db866040518263ffffffff1660e01b81526004016134769190617815565b60206040518083038186803b15801561348e57600080fd5b505afa1580156134a2573d6000803e3d6000fd5b505050506040513d601f19601f820116820180604052508101906134c691906172c6565b9050600115158273ffffffffffffffffffffffffffffffffffffffff16635b16ebb7836040518263ffffffff1660e01b81526004016135059190617815565b602060405180830381600087803b15801561351f57600080fd5b505af1158015613533573d6000803e3d6000fd5b505050506040513d601f19601f8201168201806040525081019061355791906172ef565b151514613599576040517f08c379a0000000000000000000000000000000000000000000000000000000008152600401613590906178d4565b60405180910390fd5b6135c47f00000000000000000000000000000000000000000000000000000000000000008783616817565b6135cf858883616817565b8073ffffffffffffffffffffffffffffffffffffffff166386d5f618856040518263ffffffff1660e01b81526004016136089190617815565b602060405180830381600087803b15801561362257600080fd5b505af1158015613636573d6000803e3d6000fd5b505050506040513d601f19601f8201168201806040525081019061365a919061736a565b925061366581616139565b5050949350505050565b60035481565b60045481565b613683615df0565b73ffffffffffffffffffffffffffffffffffffffff166398fabd3a6040518163ffffffff1660e01b815260040160206040518083038186803b1580156136c857600080fd5b505afa1580156136dc573d6000803e3d6000fd5b505050506040513d601f19601f8201168201806040525081019061370091906172c6565b73ffffffffffffffffffffffffffffffffffffffff163373ffffffffffffffffffffffffffffffffffffffff1614806137865750600160009054906101000a900473ffffffffffffffffffffffffffffffffffffffff1673ffffffffffffffffffffffffffffffffffffffff163373ffffffffffffffffffffffffffffffffffffffff16145b61378f57600080fd5b8073ffffffffffffffffffffffffffffffffffffffff1663474e7302836040518263ffffffff1660e01b81526004016137c891906179d4565b600060405180830381600087803b1580156137e257600080fd5b505af11580156137f6573d6000803e3d6000fd5b505050505050565b60008311613841576040517f08c379a000000000000000000000000000000000000000000000000000000000815260040161383890617914565b60405180910390fd5b8073ffffffffffffffffffffffffffffffffffffffff168273ffffffffffffffffffffffffffffffffffffffff16141561387a57600080fd5b60011515613886615df0565b73ffffffffffffffffffffffffffffffffffffffff16639d2cc4366040518163ffffffff1660e01b815260040160206040518083038186803b1580156138cb57600080fd5b505afa1580156138df573d6000803e3d6000fd5b505050506040513d601f19601f8201168201806040525081019061390391906172c6565b73ffffffffffffffffffffffffffffffffffffffff1663194e22ce6040518163ffffffff1660e01b8152600401602060405180830381600087803b15801561394a57600080fd5b505af115801561395e573d6000803e3d6000fd5b505050506040513d601f19601f8201168201806040525081019061398291906172ef565b151514156139c5576040517f08c379a00000000000000000000000000000000000000000000000000000000081526004016139bc90617974565b60405180910390fd5b60006139cf615df0565b73ffffffffffffffffffffffffffffffffffffffff1663b99b0a0c6040518163ffffffff1660e01b815260040160206040518083038186803b158015613a1457600080fd5b505afa158015613a28573d6000803e3d6000fd5b505050506040513d601f19601f82011682018060405250810190613a4c91906172c6565b905060008373ffffffffffffffffffffffffffffffffffffffff16637535d2466040518163ffffffff1660e01b815260040160206040518083038186803b158015613a9657600080fd5b505afa158015613aaa573d6000803e3d6000fd5b505050506040513d601f19601f82011682018060405250810190613ace91906172c6565b9050600115158273ffffffffffffffffffffffffffffffffffffffff16635b16ebb7836040518263ffffffff1660e01b8152600401613b0d9190617815565b602060405180830381600087803b158015613b2757600080fd5b505af1158015613b3b573d6000803e3d6000fd5b505050506040513d601f19601f82011682018060405250810190613b5f91906172ef565b151514613ba1576040517f08c379a0000000000000000000000000000000000000000000000000000000008152600401613b98906178d4565b60405180910390fd5b8373ffffffffffffffffffffffffffffffffffffffff166323b872dd3383886040518463ffffffff1660e01b8152600401613bde93929190617859565b602060405180830381600087803b158015613bf857600080fd5b505af1158015613c0c573d6000803e3d6000fd5b505050506040513d601f19601f82011682018060405250810190613c3091906172ef565b613c6f576040517f08c379a0000000000000000000000000000000000000000000000000000000008152600401613c6690617954565b60405180910390fd5b60007f000000000000000000000000000000000000000000000000000000000000000073ffffffffffffffffffffffffffffffffffffffff168473ffffffffffffffffffffffffffffffffffffffff161415613d5a578173ffffffffffffffffffffffffffffffffffffffff1663dbfc5a04336040518263ffffffff1660e01b8152600401613cfe9190617815565b6040805180830381600087803b158015613d1757600080fd5b505af1158015613d2b573d6000803e3d6000fd5b505050506040513d601f19601f82011682018060405250810190613d4f91906175aa565b9050809150506141c0565b60008373ffffffffffffffffffffffffffffffffffffffff1663bbe4f6db866040518263ffffffff1660e01b8152600401613d959190617815565b60206040518083038186803b158015613dad57600080fd5b505afa158015613dc1573d6000803e3d6000fd5b505050506040513d601f19601f82011682018060405250810190613de591906172c6565b9050600115158473ffffffffffffffffffffffffffffffffffffffff16635b16ebb7836040518263ffffffff1660e01b8152600401613e249190617815565b602060405180830381600087803b158015613e3e57600080fd5b505af1158015613e52573d6000803e3d6000fd5b505050506040513d601f19601f82011682018060405250810190613e7691906172ef565b151514613eb8576040517f08c379a0000000000000000000000000000000000000000000000000000000008152600401613eaf906178d4565b60405180910390fd5b6000808473ffffffffffffffffffffffffffffffffffffffff1663dbfc5a04306040518263ffffffff1660e01b8152600401613ef49190617815565b6040805180830381600087803b158015613f0d57600080fd5b505af1158015613f21573d6000803e3d6000fd5b505050506040513d601f19601f82011682018060405250810190613f4591906175aa565b90508094505061401e7f00000000000000000000000000000000000000000000000000000000000000007f000000000000000000000000000000000000000000000000000000000000000073ffffffffffffffffffffffffffffffffffffffff166370a08231306040518263ffffffff1660e01b8152600401613fc89190617815565b60206040518083038186803b158015613fe057600080fd5b505afa158015613ff4573d6000803e3d6000fd5b505050506040513d601f19601f82011682018060405250810190614018919061736a565b85615e95565b600073ffffffffffffffffffffffffffffffffffffffff168773ffffffffffffffffffffffffffffffffffffffff16146140e9578273ffffffffffffffffffffffffffffffffffffffff16632783e4a988336040518363ffffffff1660e01b815260040161408d929190617830565b6040805180830381600087803b1580156140a657600080fd5b505af11580156140ba573d6000803e3d6000fd5b505050506040513d601f19601f820116820180604052508101906140de91906175aa565b9050809250506141a9565b8273ffffffffffffffffffffffffffffffffffffffff16632783e4a97f0000000000000000000000000000000000000000000000000000000000000000306040518363ffffffff1660e01b8152600401614144929190617830565b6040805180830381600087803b15801561415d57600080fd5b505af1158015614171573d6000803e3d6000fd5b505050506040513d601f19601f8201168201806040525081019061419591906175aa565b80935081925050506141a8878233615e95565b5b6141b283616139565b6141bc83836166dc565b5050505b6141c982616139565b6141d382826166dc565b600115156141df615df0565b73ffffffffffffffffffffffffffffffffffffffff16639d2cc4366040518163ffffffff1660e01b815260040160206040518083038186803b15801561422457600080fd5b505afa158015614238573d6000803e3d6000fd5b505050506040513d601f19601f8201168201806040525081019061425c91906172c6565b73ffffffffffffffffffffffffffffffffffffffff1663194e22ce6040518163ffffffff1660e01b8152600401602060405180830381600087803b1580156142a357600080fd5b505af11580156142b7573d6000803e3d6000fd5b505050506040513d601f19601f820116820180604052508101906142db91906172ef565b1515141561431e576040517f08c379a000000000000000000000000000000000000000000000000000000000815260040161431590617974565b60405180910390fd5b505050505050565b61433283838333612a6a565b505050565b6000831161437a576040517f08c379a000000000000000000000000000000000000000000000000000000000815260040161437190617914565b60405180910390fd5b6000614384615df0565b73ffffffffffffffffffffffffffffffffffffffff16637b0e5c456040518163ffffffff1660e01b815260040160206040518083038186803b1580156143c957600080fd5b505afa1580156143dd573d6000803e3d6000fd5b505050506040513d601f19601f8201168201806040525081019061440191906172c6565b73ffffffffffffffffffffffffffffffffffffffff1663714270ab85614425615df0565b73ffffffffffffffffffffffffffffffffffffffff1663b99b0a0c6040518163ffffffff1660e01b815260040160206040518083038186803b15801561446a57600080fd5b505afa15801561447e573d6000803e3d6000fd5b505050506040513d601f19601f820116820180604052508101906144a291906172c6565b73ffffffffffffffffffffffffffffffffffffffff1663bbe4f6db866040518263ffffffff1660e01b81526004016144da9190617815565b60206040518083038186803b1580156144f257600080fd5b505afa158015614506573d6000803e3d6000fd5b505050506040513d601f19601f8201168201806040525081019061452a91906172c6565b73ffffffffffffffffffffffffffffffffffffffff166370a08231336040518263ffffffff1660e01b81526004016145629190617815565b60206040518083038186803b15801561457a57600080fd5b505afa15801561458e573d6000803e3d6000fd5b505050506040513d601f19601f820116820180604052508101906145b2919061736a565b6040518363ffffffff1660e01b81526004016145cf929190617a18565b60206040518083038186803b1580156145e757600080fd5b505afa1580156145fb573d6000803e3d6000fd5b505050506040513d601f19601f8201168201806040525081019061461f919061736a565b905061462c818484610dd1565b50505050565b8073ffffffffffffffffffffffffffffffffffffffff168273ffffffffffffffffffffffffffffffffffffffff161415801561466e5750600083115b6146ad576040517f08c379a00000000000000000000000000000000000000000000000000000000081526004016146a490617914565b60405180910390fd5b60006146b7615df0565b73ffffffffffffffffffffffffffffffffffffffff1663b99b0a0c6040518163ffffffff1660e01b815260040160206040518083038186803b1580156146fc57600080fd5b505afa158015614710573d6000803e3d6000fd5b505050506040513d601f19601f8201168201806040525081019061473491906172c6565b9050600115158173ffffffffffffffffffffffffffffffffffffffff16635b16ebb7856040518263ffffffff1660e01b81526004016147739190617815565b602060405180830381600087803b15801561478d57600080fd5b505af11580156147a1573d6000803e3d6000fd5b505050506040513d601f19601f820116820180604052508101906147c591906172ef565b151514614807576040517f08c379a00000000000000000000000000000000000000000000000000000000081526004016147fe906178d4565b60405180910390fd5b600115158173ffffffffffffffffffffffffffffffffffffffff16635b16ebb7846040518263ffffffff1660e01b81526004016148449190617815565b602060405180830381600087803b15801561485e57600080fd5b505af1158015614872573d6000803e3d6000fd5b505050506040513d601f19601f8201168201806040525081019061489691906172ef565b1515146148d8576040517f08c379a00000000000000000000000000000000000000000000000000000000081526004016148cf906178d4565b60405180910390fd5b60008373ffffffffffffffffffffffffffffffffffffffff166382bfefc86040518163ffffffff1660e01b815260040160206040518083038186803b15801561492057600080fd5b505afa158015614934573d6000803e3d6000fd5b505050506040513d601f19601f8201168201806040525081019061495891906172c6565b905060008373ffffffffffffffffffffffffffffffffffffffff166382bfefc86040518163ffffffff1660e01b815260040160206040518083038186803b1580156149a257600080fd5b505afa1580156149b6573d6000803e3d6000fd5b505050506040513d601f19601f820116820180604052508101906149da91906172c6565b905060003390508573ffffffffffffffffffffffffffffffffffffffff166323b872dd82888a6040518463ffffffff1660e01b8152600401614a1e93929190617859565b602060405180830381600087803b158015614a3857600080fd5b505af1158015614a4c573d6000803e3d6000fd5b505050506040513d601f19601f82011682018060405250810190614a7091906172ef565b614aaf576040517f08c379a0000000000000000000000000000000000000000000000000000000008152600401614aa690617954565b60405180910390fd5b8573ffffffffffffffffffffffffffffffffffffffff1663bc5dedc9306040518263ffffffff1660e01b8152600401614ae89190617815565b6040805180830381600087803b158015614b0157600080fd5b505af1158015614b15573d6000803e3d6000fd5b505050506040513d601f19601f82011682018060405250810190614b3991906175aa565b50508273ffffffffffffffffffffffffffffffffffffffff1663a9059cbb878573ffffffffffffffffffffffffffffffffffffffff166370a08231306040518263ffffffff1660e01b8152600401614b919190617815565b60206040518083038186803b158015614ba957600080fd5b505afa158015614bbd573d6000803e3d6000fd5b505050506040513d601f19601f82011682018060405250810190614be1919061736a565b6040518363ffffffff1660e01b8152600401614bfe929190617890565b602060405180830381600087803b158015614c1857600080fd5b505af1158015614c2c573d6000803e3d6000fd5b505050506040513d601f19601f82011682018060405250810190614c5091906172ef565b508573ffffffffffffffffffffffffffffffffffffffff16632783e4a97f0000000000000000000000000000000000000000000000000000000000000000306040518363ffffffff1660e01b8152600401614cac929190617830565b6040805180830381600087803b158015614cc557600080fd5b505af1158015614cd9573d6000803e3d6000fd5b505050506040513d601f19601f82011682018060405250810190614cfd91906175aa565b50507f000000000000000000000000000000000000000000000000000000000000000073ffffffffffffffffffffffffffffffffffffffff1663a9059cbb8660027f000000000000000000000000000000000000000000000000000000000000000073ffffffffffffffffffffffffffffffffffffffff166370a08231306040518263ffffffff1660e01b8152600401614d979190617815565b60206040518083038186803b158015614daf57600080fd5b505afa158015614dc3573d6000803e3d6000fd5b505050506040513d601f19601f82011682018060405250810190614de7919061736a565b614df19190617ab3565b6040518363ffffffff1660e01b8152600401614e0e929190617890565b602060405180830381600087803b158015614e2857600080fd5b505af1158015614e3c573d6000803e3d6000fd5b505050506040513d601f19601f82011682018060405250810190614e6091906172ef565b508473ffffffffffffffffffffffffffffffffffffffff16632783e4a983306040518363ffffffff1660e01b8152600401614e9c929190617830565b6040805180830381600087803b158015614eb557600080fd5b505af1158015614ec9573d6000803e3d6000fd5b505050506040513d601f19601f82011682018060405250810190614eed91906175aa565b50507f000000000000000000000000000000000000000000000000000000000000000073ffffffffffffffffffffffffffffffffffffffff1663a9059cbb867f000000000000000000000000000000000000000000000000000000000000000073ffffffffffffffffffffffffffffffffffffffff166370a08231306040518263ffffffff1660e01b8152600401614f859190617815565b60206040518083038186803b158015614f9d57600080fd5b505afa158015614fb1573d6000803e3d6000fd5b505050506040513d601f19601f82011682018060405250810190614fd5919061736a565b6040518363ffffffff1660e01b8152600401614ff2929190617890565b602060405180830381600087803b15801561500c57600080fd5b505af1158015615020573d6000803e3d6000fd5b505050506040513d601f19601f8201168201806040525081019061504491906172ef565b508173ffffffffffffffffffffffffffffffffffffffff1663a9059cbb868473ffffffffffffffffffffffffffffffffffffffff166370a08231306040518263ffffffff1660e01b815260040161509b9190617815565b60206040518083038186803b1580156150b357600080fd5b505afa1580156150c7573d6000803e3d6000fd5b505050506040513d601f19601f820116820180604052508101906150eb919061736a565b6040518363ffffffff1660e01b8152600401615108929190617890565b602060405180830381600087803b15801561512257600080fd5b505af1158015615136573d6000803e3d6000fd5b505050506040513d601f19601f8201168201806040525081019061515a91906172ef565b508473ffffffffffffffffffffffffffffffffffffffff166386d5f618826040518263ffffffff1660e01b81526004016151949190617815565b602060405180830381600087803b1580156151ae57600080fd5b505af11580156151c2573d6000803e3d6000fd5b505050506040513d601f19601f820116820180604052508101906151e6919061736a565b506151f086616139565b6151f985616139565b50505050505050565b600160009054906101000a900473ffffffffffffffffffffffffffffffffffffffff1681565b6000821161526b576040517f08c379a000000000000000000000000000000000000000000000000000000000815260040161526290617914565b60405180910390fd5b6000615275615df0565b73ffffffffffffffffffffffffffffffffffffffff1663b99b0a0c6040518163ffffffff1660e01b815260040160206040518083038186803b1580156152ba57600080fd5b505afa1580156152ce573d6000803e3d6000fd5b505050506040513d601f19601f820116820180604052508101906152f291906172c6565b905060011515615300615df0565b73ffffffffffffffffffffffffffffffffffffffff16639d2cc4366040518163ffffffff1660e01b815260040160206040518083038186803b15801561534557600080fd5b505afa158015615359573d6000803e3d6000fd5b505050506040513d601f19601f8201168201806040525081019061537d91906172c6565b73ffffffffffffffffffffffffffffffffffffffff1663194e22ce6040518163ffffffff1660e01b8152600401602060405180830381600087803b1580156153c457600080fd5b505af11580156153d8573d6000803e3d6000fd5b505050506040513d601f19601f820116820180604052508101906153fc91906172ef565b1515141561543f576040517f08c379a000000000000000000000000000000000000000000000000000000000815260040161543690617974565b60405180910390fd5b60008173ffffffffffffffffffffffffffffffffffffffff1663bbe4f6db846040518263ffffffff1660e01b815260040161547a9190617815565b60206040518083038186803b15801561549257600080fd5b505afa1580156154a6573d6000803e3d6000fd5b505050506040513d601f19601f820116820180604052508101906154ca91906172c6565b9050600115158273ffffffffffffffffffffffffffffffffffffffff16635b16ebb7836040518263ffffffff1660e01b81526004016155099190617815565b602060405180830381600087803b15801561552357600080fd5b505af1158015615537573d6000803e3d6000fd5b505050506040513d601f19601f8201168201806040525081019061555b91906172ef565b15151461559d576040517f08c379a0000000000000000000000000000000000000000000000000000000008152600401615594906178d4565b60405180910390fd5b60003390508173ffffffffffffffffffffffffffffffffffffffff166323b872dd8284886040518463ffffffff1660e01b81526004016155df93929190617859565b602060405180830381600087803b1580156155f957600080fd5b505af115801561560d573d6000803e3d6000fd5b505050506040513d601f19601f8201168201806040525081019061563191906172ef565b615670576040517f08c379a000000000000000000000000000000000000000000000000000000000815260040161566790617954565b60405180910390fd5b600073ffffffffffffffffffffffffffffffffffffffff168473ffffffffffffffffffffffffffffffffffffffff1614615735578173ffffffffffffffffffffffffffffffffffffffff1663bc5dedc9826040518263ffffffff1660e01b81526004016156dd9190617815565b6040805180830381600087803b1580156156f657600080fd5b505af115801561570a573d6000803e3d6000fd5b505050506040513d601f19601f8201168201806040525081019061572e91906175aa565b5050615954565b8173ffffffffffffffffffffffffffffffffffffffff1663bc5dedc9306040518263ffffffff1660e01b815260040161576e9190617815565b6040805180830381600087803b15801561578757600080fd5b505af115801561579b573d6000803e3d6000fd5b505050506040513d601f19601f820116820180604052508101906157bf91906175aa565b505060007f000000000000000000000000000000000000000000000000000000000000000073ffffffffffffffffffffffffffffffffffffffff166370a08231306040518263ffffffff1660e01b815260040161581c9190617815565b60206040518083038186803b15801561583457600080fd5b505afa158015615848573d6000803e3d6000fd5b505050506040513d601f19601f8201168201806040525081019061586c919061736a565b905060007f000000000000000000000000000000000000000000000000000000000000000073ffffffffffffffffffffffffffffffffffffffff166370a08231306040518263ffffffff1660e01b81526004016158c99190617815565b60206040518083038186803b1580156158e157600080fd5b505afa1580156158f5573d6000803e3d6000fd5b505050506040513d601f19601f82011682018060405250810190615919919061736a565b9050615926868285615e95565b6159517f00000000000000000000000000000000000000000000000000000000000000008385615e95565b50505b61595d82616139565b5050505050565b60066020528060005260406000206000915090505481565b7f000000000000000000000000000000000000000000000000000000000000000081565b60025481565b60006159b0615df0565b73ffffffffffffffffffffffffffffffffffffffff1663b99b0a0c6040518163ffffffff1660e01b815260040160206040518083038186803b1580156159f557600080fd5b505afa158015615a09573d6000803e3d6000fd5b505050506040513d601f19601f82011682018060405250810190615a2d91906172c6565b905060008173ffffffffffffffffffffffffffffffffffffffff1663bbe4f6db866040518263ffffffff1660e01b8152600401615a6a9190617815565b60206040518083038186803b158015615a8257600080fd5b505afa158015615a96573d6000803e3d6000fd5b505050506040513d601f19601f82011682018060405250810190615aba91906172c6565b9050600115158273ffffffffffffffffffffffffffffffffffffffff16635b16ebb7836040518263ffffffff1660e01b8152600401615af99190617815565b602060405180830381600087803b158015615b1357600080fd5b505af1158015615b27573d6000803e3d6000fd5b505050506040513d601f19601f82011682018060405250810190615b4b91906172ef565b151514615b8d576040517f08c379a0000000000000000000000000000000000000000000000000000000008152600401615b84906178d4565b60405180910390fd5b615bb87f00000000000000000000000000000000000000000000000000000000000000008783616817565b60008073ffffffffffffffffffffffffffffffffffffffff168673ffffffffffffffffffffffffffffffffffffffff1614615ccd576000808373ffffffffffffffffffffffffffffffffffffffff16632783e4a989896040518363ffffffff1660e01b8152600401615c2b929190617830565b6040805180830381600087803b158015615c4457600080fd5b505af1158015615c58573d6000803e3d6000fd5b505050506040513d601f19601f82011682018060405250810190615c7c91906175aa565b9150915085821015615cc3576040517f08c379a0000000000000000000000000000000000000000000000000000000008152600401615cba90617934565b60405180910390fd5b8092505050615dd4565b6000808373ffffffffffffffffffffffffffffffffffffffff16632783e4a97f0000000000000000000000000000000000000000000000000000000000000000306040518363ffffffff1660e01b8152600401615d2b929190617830565b6040805180830381600087803b158015615d4457600080fd5b505af1158015615d58573d6000803e3d6000fd5b505050506040513d601f19601f82011682018060405250810190615d7c91906175aa565b9150915085821015615dc3576040517f08c379a0000000000000000000000000000000000000000000000000000000008152600401615dba90617934565b60405180910390fd5b615dce888389615e95565b80925050505b615ddd82616139565b615de782826166dc565b50505050505050565b60007f000000000000000000000000000000000000000000000000000000000000000073ffffffffffffffffffffffffffffffffffffffff166398fabd3a6040518163ffffffff1660e01b815260040160206040518083038186803b158015615e5857600080fd5b505afa158015615e6c573d6000803e3d6000fd5b505050506040513d601f19601f82011682018060405250810190615e909190617318565b905090565b60026000541415615edb576040517f08c379a0000000000000000000000000000000000000000000000000000000008152600401615ed2906179b4565b60405180910390fd5b6002600081905550600082111561612c57600073ffffffffffffffffffffffffffffffffffffffff168373ffffffffffffffffffffffffffffffffffffffff16141561605e577f000000000000000000000000000000000000000000000000000000000000000073ffffffffffffffffffffffffffffffffffffffff16632e1a7d4d836040518263ffffffff1660e01b8152600401615f7a91906179d4565b600060405180830381600087803b158015615f9457600080fd5b505af1158015615fa8573d6000803e3d6000fd5b5050505060008173ffffffffffffffffffffffffffffffffffffffff1683604051615fd290617800565b60006040518083038185875af1925050503d806000811461600f576040519150601f19603f3d011682016040523d82523d6000602084013e616014565b606091505b5050905080616058576040517f08c379a000000000000000000000000000000000000000000000000000000000815260040161604f906178f4565b60405180910390fd5b5061612b565b8273ffffffffffffffffffffffffffffffffffffffff1663a9059cbb82846040518363ffffffff1660e01b8152600401616099929190617890565b602060405180830381600087803b1580156160b357600080fd5b505af11580156160c7573d6000803e3d6000fd5b505050506040513d601f19601f820116820180604052508101906160eb91906172ef565b61612a576040517f08c379a000000000000000000000000000000000000000000000000000000000815260040161612190617954565b60405180910390fd5b5b5b6001600081905550505050565b616141615df0565b73ffffffffffffffffffffffffffffffffffffffff1663b99b0a0c6040518163ffffffff1660e01b815260040160206040518083038186803b15801561618657600080fd5b505afa15801561619a573d6000803e3d6000fd5b505050506040513d601f19601f820116820180604052508101906161be91906172c6565b73ffffffffffffffffffffffffffffffffffffffff16638dcb4c93826040518263ffffffff1660e01b81526004016161f69190617815565b60206040518083038186803b15801561620e57600080fd5b505afa158015616222573d6000803e3d6000fd5b505050506040513d601f19601f8201168201806040525081019061624691906172ef565b156166d9578073ffffffffffffffffffffffffffffffffffffffff166362a5af3b6040518163ffffffff1660e01b815260040160206040518083038186803b15801561629157600080fd5b505afa1580156162a5573d6000803e3d6000fd5b505050506040513d601f19601f820116820180604052508101906162c991906172ef565b156163bf576162d6615df0565b73ffffffffffffffffffffffffffffffffffffffff16639d2cc4366040518163ffffffff1660e01b815260040160206040518083038186803b15801561631b57600080fd5b505afa15801561632f573d6000803e3d6000fd5b505050506040513d601f19601f8201168201806040525081019061635391906172c6565b73ffffffffffffffffffffffffffffffffffffffff16637828c71760016040518263ffffffff1660e01b815260040161638c91906178b9565b600060405180830381600087803b1580156163a657600080fd5b505af11580156163ba573d6000803e3d6000fd5b505050505b6163c7615df0565b73ffffffffffffffffffffffffffffffffffffffff16639d2cc4366040518163ffffffff1660e01b815260040160206040518083038186803b15801561640c57600080fd5b505afa158015616420573d6000803e3d6000fd5b505050506040513d601f19601f8201168201806040525081019061644491906172c6565b73ffffffffffffffffffffffffffffffffffffffff1663194e22ce6040518163ffffffff1660e01b8152600401602060405180830381600087803b15801561648b57600080fd5b505af115801561649f573d6000803e3d6000fd5b505050506040513d601f19601f820116820180604052508101906164c391906172ef565b156166d85760006164d2615df0565b73ffffffffffffffffffffffffffffffffffffffff16639d2cc4366040518163ffffffff1660e01b815260040160206040518083038186803b15801561651757600080fd5b505afa15801561652b573d6000803e3d6000fd5b505050506040513d601f19601f8201168201806040525081019061654f91906172c6565b73ffffffffffffffffffffffffffffffffffffffff1663fd7e1bee6040518163ffffffff1660e01b8152600401602060405180830381600087803b15801561659657600080fd5b505af11580156165aa573d6000803e3d6000fd5b505050506040513d601f19601f820116820180604052508101906165ce919061736a565b9050610e10816165de9190617a5d565b4211156166d6576165ed615df0565b73ffffffffffffffffffffffffffffffffffffffff16639d2cc4366040518163ffffffff1660e01b815260040160206040518083038186803b15801561663257600080fd5b505afa158015616646573d6000803e3d6000fd5b505050506040513d601f19601f8201168201806040525081019061666a91906172c6565b73ffffffffffffffffffffffffffffffffffffffff16637828c71760006040518263ffffffff1660e01b81526004016166a391906178b9565b600060405180830381600087803b1580156166bd57600080fd5b505af11580156166d1573d6000803e3d6000fd5b505050505b505b5b50565b670de0b6b3a7640000811180156168035750600115156166fa615df0565b73ffffffffffffffffffffffffffffffffffffffff1663b99b0a0c6040518163ffffffff1660e01b815260040160206040518083038186803b15801561673f57600080fd5b505afa158015616753573d6000803e3d6000fd5b505050506040513d601f19601f8201168201806040525081019061677791906172c6565b73ffffffffffffffffffffffffffffffffffffffff16638dcb4c93846040518263ffffffff1660e01b81526004016167af9190617815565b60206040518083038186803b1580156167c757600080fd5b505afa1580156167db573d6000803e3d6000fd5b505050506040513d601f19601f820116820180604052508101906167ff91906172ef565b1515145b15616813576168128282616b45565b5b5050565b6002600054141561685d576040517f08c379a0000000000000000000000000000000000000000000000000000000008152600401616854906179b4565b60405180910390fd5b6002600081905550600082116168a8576040517f08c379a000000000000000000000000000000000000000000000000000000000815260040161689f90617994565b60405180910390fd5b600073ffffffffffffffffffffffffffffffffffffffff168373ffffffffffffffffffffffffffffffffffffffff161415616a69573482146168e957600080fd5b60007f000000000000000000000000000000000000000000000000000000000000000073ffffffffffffffffffffffffffffffffffffffff168360405161692f90617800565b60006040518083038185875af1925050503d806000811461696c576040519150601f19603f3d011682016040523d82523d6000602084013e616971565b606091505b50509050806169b5576040517f08c379a00000000000000000000000000000000000000000000000000000000081526004016169ac906178f4565b60405180910390fd5b7f000000000000000000000000000000000000000000000000000000000000000073ffffffffffffffffffffffffffffffffffffffff1663a9059cbb83856040518363ffffffff1660e01b8152600401616a10929190617890565b602060405180830381600087803b158015616a2a57600080fd5b505af1158015616a3e573d6000803e3d6000fd5b505050506040513d601f19601f82011682018060405250810190616a6291906172ef565b5050616b38565b8273ffffffffffffffffffffffffffffffffffffffff166323b872dd3383856040518463ffffffff1660e01b8152600401616aa693929190617859565b602060405180830381600087803b158015616ac057600080fd5b505af1158015616ad4573d6000803e3d6000fd5b505050506040513d601f19601f82011682018060405250810190616af891906172ef565b616b37576040517f08c379a0000000000000000000000000000000000000000000000000000000008152600401616b2e90617954565b60405180910390fd5b5b6001600081905550505050565b60007f000000000000000000000000000000000000000000000000000000000000000073ffffffffffffffffffffffffffffffffffffffff166370a08231616b8b615df0565b73ffffffffffffffffffffffffffffffffffffffff16639d2cc4366040518163ffffffff1660e01b815260040160206040518083038186803b158015616bd057600080fd5b505afa158015616be4573d6000803e3d6000fd5b505050506040513d601f19601f82011682018060405250810190616c0891906172c6565b6040518263ffffffff1660e01b8152600401616c249190617815565b60206040518083038186803b158015616c3c57600080fd5b505afa158015616c50573d6000803e3d6000fd5b505050506040513d601f19601f82011682018060405250810190616c74919061736a565b90506000616c80615df0565b73ffffffffffffffffffffffffffffffffffffffff16639d2cc4366040518163ffffffff1660e01b815260040160206040518083038186803b158015616cc557600080fd5b505afa158015616cd9573d6000803e3d6000fd5b505050506040513d601f19601f82011682018060405250810190616cfd91906172c6565b73ffffffffffffffffffffffffffffffffffffffff16632267716c6040518163ffffffff1660e01b8152600401602060405180830381600087803b158015616d4457600080fd5b505af1158015616d58573d6000803e3d6000fd5b505050506040513d601f19601f82011682018060405250810190616d7c91906172ef565b9050600082118015616d8b5750805b1561707457616d98615df0565b73ffffffffffffffffffffffffffffffffffffffff1663b99b0a0c6040518163ffffffff1660e01b815260040160206040518083038186803b158015616ddd57600080fd5b505afa158015616df1573d6000803e3d6000fd5b505050506040513d601f19601f82011682018060405250810190616e1591906172c6565b73ffffffffffffffffffffffffffffffffffffffff16638bc51e366040518163ffffffff1660e01b815260040160206040518083038186803b158015616e5a57600080fd5b505afa158015616e6e573d6000803e3d6000fd5b505050506040513d601f19601f82011682018060405250810190616e92919061736a565b600581905550600061271060055460025485616eae9190617ae4565b616eb89190617ab3565b616ec29190617ab3565b90508084600660008873ffffffffffffffffffffffffffffffffffffffff1673ffffffffffffffffffffffffffffffffffffffff16815260200190815260200160002054616f109190617a5d565b101561707257616f20848661707a565b616f28615df0565b73ffffffffffffffffffffffffffffffffffffffff16639d2cc4366040518163ffffffff1660e01b815260040160206040518083038186803b158015616f6d57600080fd5b505afa158015616f81573d6000803e3d6000fd5b505050506040513d601f19601f82011682018060405250810190616fa591906172c6565b73ffffffffffffffffffffffffffffffffffffffff16637d458baa85876040518363ffffffff1660e01b8152600401616fdf9291906179ef565b600060405180830381600087803b158015616ff957600080fd5b505af115801561700d573d6000803e3d6000fd5b505050508473ffffffffffffffffffffffffffffffffffffffff1663fff6cae96040518163ffffffff1660e01b8152600401600060405180830381600087803b15801561705957600080fd5b505af115801561706d573d6000803e3d6000fd5b505050505b505b50505050565b6000600454141561708d57426004819055505b62278d0060045461709e9190617a5d565b42116171375781600660008373ffffffffffffffffffffffffffffffffffffffff1673ffffffffffffffffffffffffffffffffffffffff168152602001908152602001600020546170ef9190617a5d565b600660008373ffffffffffffffffffffffffffffffffffffffff1673ffffffffffffffffffffffffffffffffffffffff16815260200190815260200160002081905550617206565b42600481905550600660008273ffffffffffffffffffffffffffffffffffffffff1673ffffffffffffffffffffffffffffffffffffffff16815260200190815260200160002054600760008373ffffffffffffffffffffffffffffffffffffffff1673ffffffffffffffffffffffffffffffffffffffff1681526020019081526020016000208190555081600660008373ffffffffffffffffffffffffffffffffffffffff1673ffffffffffffffffffffffffffffffffffffffff168152602001908152602001600020819055505b5050565b60008135905061721981617d41565b92915050565b60008151905061722e81617d41565b92915050565b60008135905061724381617d58565b92915050565b60008151905061725881617d58565b92915050565b60008151905061726d81617d6f565b92915050565b60008135905061728281617d86565b92915050565b60008151905061729781617d86565b92915050565b6000602082840312156172af57600080fd5b60006172bd8482850161720a565b91505092915050565b6000602082840312156172d857600080fd5b60006172e68482850161721f565b91505092915050565b60006020828403121561730157600080fd5b600061730f84828501617249565b91505092915050565b60006020828403121561732a57600080fd5b60006173388482850161725e565b91505092915050565b60006020828403121561735357600080fd5b600061736184828501617273565b91505092915050565b60006020828403121561737c57600080fd5b600061738a84828501617288565b91505092915050565b600080604083850312156173a657600080fd5b60006173b485828601617273565b92505060206173c58582860161720a565b9150509250929050565b6000806000606084860312156173e457600080fd5b60006173f286828701617273565b93505060206174038682870161720a565b92505060406174148682870161720a565b9150509250925092565b600080600080600060a0868803121561743657600080fd5b600061744488828901617273565b95505060206174558882890161720a565b94505060406174668882890161720a565b93505060606174778882890161720a565b925050608061748888828901617273565b9150509295509295909350565b600080600080608085870312156174ab57600080fd5b60006174b987828801617273565b94505060206174ca8782880161720a565b93505060406174db8782880161720a565b92505060606174ec87828801617273565b91505092959194509250565b60008060006060848603121561750d57600080fd5b600061751b86828701617273565b935050602061752c86828701617234565b925050604061753d8682870161720a565b9150509250925092565b6000806000806080858703121561755d57600080fd5b600061756b87828801617273565b945050602061757c87828801617234565b935050604061758d8782880161720a565b925050606061759e8782880161720a565b91505092959194509250565b600080604083850312156175bd57600080fd5b60006175cb85828601617288565b92505060206175dc85828601617288565b9150509250929050565b6000806000606084860312156175fb57600080fd5b600061760986828701617273565b935050602061761a86828701617273565b925050604061762b8682870161720a565b9150509250925092565b6000806000806080858703121561764b57600080fd5b600061765987828801617273565b945050602061766a87828801617273565b935050604061767b8782880161720a565b925050606061768c8782880161720a565b91505092959194509250565b6176a181617b3e565b82525050565b6176b081617b50565b82525050565b60006176c3600583617a4c565b91506176ce82617bf6565b602082019050919050565b60006176e6600583617a4c565b91506176f182617c1f565b602082019050919050565b6000617709600683617a4c565b915061771482617c48565b602082019050919050565b600061772c600583617a4c565b915061773782617c71565b602082019050919050565b600061774f600983617a4c565b915061775a82617c9a565b602082019050919050565b6000617772600083617a41565b915061777d82617cc3565b600082019050919050565b6000617795600583617a4c565b91506177a082617cc6565b602082019050919050565b60006177b8600483617a4c565b91506177c382617cef565b602082019050919050565b60006177db601f83617a4c565b91506177e682617d18565b602082019050919050565b6177fa81617b8e565b82525050565b600061780b82617765565b9150819050919050565b600060208201905061782a6000830184617698565b92915050565b60006040820190506178456000830185617698565b6178526020830184617698565b9392505050565b600060608201905061786e6000830186617698565b61787b6020830185617698565b61788860408301846177f1565b949350505050565b60006040820190506178a56000830185617698565b6178b260208301846177f1565b9392505050565b60006020820190506178ce60008301846176a7565b92915050565b600060208201905081810360008301526178ed816176b6565b9050919050565b6000602082019050818103600083015261790d816176d9565b9050919050565b6000602082019050818103600083015261792d816176fc565b9050919050565b6000602082019050818103600083015261794d8161771f565b9050919050565b6000602082019050818103600083015261796d81617742565b9050919050565b6000602082019050818103600083015261798d81617788565b9050919050565b600060208201905081810360008301526179ad816177ab565b9050919050565b600060208201905081810360008301526179cd816177ce565b9050919050565b60006020820190506179e960008301846177f1565b92915050565b6000604082019050617a0460008301856177f1565b617a116020830184617698565b9392505050565b6000604082019050617a2d60008301856177f1565b617a3a60208301846177f1565b9392505050565b600081905092915050565b600082825260208201905092915050565b6000617a6882617b8e565b9150617a7383617b8e565b9250827fffffffffffffffffffffffffffffffffffffffffffffffffffffffffffffffff03821115617aa857617aa7617b98565b5b828201905092915050565b6000617abe82617b8e565b9150617ac983617b8e565b925082617ad957617ad8617bc7565b5b828204905092915050565b6000617aef82617b8e565b9150617afa83617b8e565b9250817fffffffffffffffffffffffffffffffffffffffffffffffffffffffffffffffff0483118215151615617b3357617b32617b98565b5b828202905092915050565b6000617b4982617b6e565b9050919050565b60008115159050919050565b6000617b6782617b3e565b9050919050565b600073ffffffffffffffffffffffffffffffffffffffff82169050919050565b6000819050919050565b7f4e487b7100000000000000000000000000000000000000000000000000000000600052601160045260246000fd5b7f4e487b7100000000000000000000000000000000000000000000000000000000600052601260045260246000fd5b7f21504f4f4c000000000000000000000000000000000000000000000000000000600082015250565b7f2173656e64000000000000000000000000000000000000000000000000000000600082015250565b7f2156414c49440000000000000000000000000000000000000000000000000000600082015250565b7f2152415445000000000000000000000000000000000000000000000000000000600082015250565b7f217472616e736665720000000000000000000000000000000000000000000000600082015250565b50565b7f2153414645000000000000000000000000000000000000000000000000000000600082015250565b7f2147415300000000000000000000000000000000000000000000000000000000600082015250565b7f5265656e7472616e637947756172643a207265656e7472616e742063616c6c00600082015250565b617d4a81617b3e565b8114617d5557600080fd5b50565b617d6181617b50565b8114617d6c57600080fd5b50565b617d7881617b5c565b8114617d8357600080fd5b50565b617d8f81617b8e565b8114617d9a57600080fd5b5056fea2646970667358221220a02642e4db4467504aa9db1af401121ae7684bcd2e4a81340a1b54e52594bdfb64736f6c63430008030033",
  "linkReferences": {},
  "deployedLinkReferences": {}
}