{
  "_format": "hh-sol-artifact-1",
  "contractName": "Router",
  "sourceName": "contracts/Router.sol",
  "abi": [
    {
      "inputs": [
        {
          "internalType": "address",
          "name": "_base",
          "type": "address"
        },
        {
          "internalType": "address",
          "name": "_wbnb",
          "type": "address"
        }
      ],
      "stateMutability": "nonpayable",
      "type": "constructor"
    },
    {
      "inputs": [
        {
          "internalType": "uint256",
          "name": "poolRTC",
          "type": "uint256"
        },
        {
          "internalType": "address",
          "name": "_pool",
          "type": "address"
        }
      ],
      "name": "RTC",
      "outputs": [],
      "stateMutability": "nonpayable",
      "type": "function"
    },
    {
      "inputs": [
        {
          "internalType": "uint256",
          "name": "inputToken",
          "type": "uint256"
        },
        {
          "internalType": "uint256",
          "name": "baseAmount",
          "type": "uint256"
        },
        {
          "internalType": "address",
          "name": "token",
          "type": "address"
        }
      ],
      "name": "addLiquidity",
      "outputs": [],
      "stateMutability": "payable",
      "type": "function"
    },
    {
      "inputs": [
        {
          "internalType": "uint256",
          "name": "input",
          "type": "uint256"
        },
        {
          "internalType": "bool",
          "name": "fromBase",
          "type": "bool"
        },
        {
          "internalType": "address",
          "name": "token",
          "type": "address"
        }
      ],
      "name": "addLiquidityAsym",
      "outputs": [],
      "stateMutability": "payable",
      "type": "function"
    },
    {
      "inputs": [
        {
          "internalType": "uint256",
          "name": "_input",
          "type": "uint256"
        },
        {
          "internalType": "bool",
          "name": "_fromBase",
          "type": "bool"
        },
        {
          "internalType": "address",
          "name": "token",
          "type": "address"
        },
        {
          "internalType": "address",
          "name": "_member",
          "type": "address"
        }
      ],
      "name": "addLiquidityAsymForMember",
      "outputs": [],
      "stateMutability": "payable",
      "type": "function"
    },
    {
      "inputs": [
        {
          "internalType": "uint256",
          "name": "inputToken",
          "type": "uint256"
        },
        {
          "internalType": "uint256",
          "name": "baseAmount",
          "type": "uint256"
        },
        {
          "internalType": "address",
          "name": "token",
          "type": "address"
        },
        {
          "internalType": "address",
          "name": "member",
          "type": "address"
        }
      ],
      "name": "addLiquidityForMember",
      "outputs": [
        {
          "internalType": "uint256",
          "name": "LPsMinted",
          "type": "uint256"
        }
      ],
      "stateMutability": "payable",
      "type": "function"
    },
    {
      "inputs": [
        {
          "internalType": "uint256",
          "name": "amount",
          "type": "uint256"
        },
        {
          "internalType": "address",
          "name": "token",
          "type": "address"
        },
        {
          "internalType": "address",
          "name": "member",
          "type": "address"
        },
        {
          "internalType": "uint256",
          "name": "minAmount",
          "type": "uint256"
        }
      ],
      "name": "buyTo",
      "outputs": [],
      "stateMutability": "nonpayable",
      "type": "function"
    },
    {
      "inputs": [
        {
          "internalType": "uint256",
          "name": "_newDiviClaim",
          "type": "uint256"
        }
      ],
      "name": "changeDiviClaim",
      "outputs": [],
      "stateMutability": "nonpayable",
      "type": "function"
    },
    {
      "inputs": [
        {
          "internalType": "uint256",
          "name": "synthCap",
          "type": "uint256"
        },
        {
          "internalType": "address",
          "name": "_pool",
          "type": "address"
        }
      ],
      "name": "changeSynthCap",
      "outputs": [],
      "stateMutability": "nonpayable",
      "type": "function"
    },
    {
      "inputs": [],
      "name": "diviClaim",
      "outputs": [
        {
          "internalType": "uint256",
          "name": "",
          "type": "uint256"
        }
      ],
      "stateMutability": "view",
      "type": "function"
    },
    {
      "inputs": [],
      "name": "flipSynthMinting",
      "outputs": [],
      "stateMutability": "nonpayable",
      "type": "function"
    },
    {
      "inputs": [],
      "name": "lastMonth",
      "outputs": [
        {
          "internalType": "uint256",
          "name": "",
          "type": "uint256"
        }
      ],
      "stateMutability": "view",
      "type": "function"
    },
    {
      "inputs": [
        {
          "internalType": "address",
          "name": "",
          "type": "address"
        }
      ],
      "name": "mapAddress_30DayDividends",
      "outputs": [
        {
          "internalType": "uint256",
          "name": "",
          "type": "uint256"
        }
      ],
      "stateMutability": "view",
      "type": "function"
    },
    {
      "inputs": [
        {
          "internalType": "address",
          "name": "",
          "type": "address"
        }
      ],
      "name": "mapAddress_Past30DayPoolDividends",
      "outputs": [
        {
          "internalType": "uint256",
          "name": "",
          "type": "uint256"
        }
      ],
      "stateMutability": "view",
      "type": "function"
    },
    {
      "inputs": [],
      "name": "purgeDeployer",
      "outputs": [],
      "stateMutability": "nonpayable",
      "type": "function"
    },
    {
      "inputs": [
        {
          "internalType": "uint256",
          "name": "basisPoints",
          "type": "uint256"
        },
        {
          "internalType": "address",
          "name": "token",
          "type": "address"
        }
      ],
      "name": "removeLiquidity",
      "outputs": [],
      "stateMutability": "nonpayable",
      "type": "function"
    },
    {
      "inputs": [
        {
          "internalType": "uint256",
          "name": "basisPoints",
          "type": "uint256"
        },
        {
          "internalType": "bool",
          "name": "toBase",
          "type": "bool"
        },
        {
          "internalType": "address",
          "name": "token",
          "type": "address"
        }
      ],
      "name": "removeLiquidityAsym",
      "outputs": [],
      "stateMutability": "nonpayable",
      "type": "function"
    },
    {
      "inputs": [
        {
          "internalType": "uint256",
          "name": "units",
          "type": "uint256"
        },
        {
          "internalType": "address",
          "name": "token",
          "type": "address"
        }
      ],
      "name": "removeLiquidityExact",
      "outputs": [],
      "stateMutability": "nonpayable",
      "type": "function"
    },
    {
      "inputs": [
        {
          "internalType": "uint256",
          "name": "units",
          "type": "uint256"
        },
        {
          "internalType": "bool",
          "name": "toBase",
          "type": "bool"
        },
        {
          "internalType": "address",
          "name": "token",
          "type": "address"
        }
      ],
      "name": "removeLiquidityExactAsym",
      "outputs": [],
      "stateMutability": "nonpayable",
      "type": "function"
    },
    {
      "inputs": [
        {
          "internalType": "uint256",
          "name": "amount",
          "type": "uint256"
        },
        {
          "internalType": "address",
          "name": "token",
          "type": "address"
        },
        {
          "internalType": "address",
          "name": "member",
          "type": "address"
        },
        {
          "internalType": "uint256",
          "name": "minAmount",
          "type": "uint256"
        }
      ],
      "name": "sellTo",
      "outputs": [
        {
          "internalType": "uint256",
          "name": "",
          "type": "uint256"
        }
      ],
      "stateMutability": "payable",
      "type": "function"
    },
    {
      "inputs": [
        {
          "internalType": "uint256",
          "name": "inputAmount",
          "type": "uint256"
        },
        {
          "internalType": "address",
          "name": "fromToken",
          "type": "address"
        },
        {
          "internalType": "address",
          "name": "toToken",
          "type": "address"
        },
        {
          "internalType": "uint256",
          "name": "minAmount",
          "type": "uint256"
        }
      ],
      "name": "swap",
      "outputs": [],
      "stateMutability": "payable",
      "type": "function"
    },
    {
      "inputs": [
        {
          "internalType": "uint256",
          "name": "inputAmount",
          "type": "uint256"
        },
        {
          "internalType": "address",
          "name": "fromToken",
          "type": "address"
        },
        {
          "internalType": "address",
          "name": "toSynth",
          "type": "address"
        }
      ],
      "name": "swapAssetToSynth",
      "outputs": [],
      "stateMutability": "payable",
      "type": "function"
    },
    {
      "inputs": [
        {
          "internalType": "uint256",
          "name": "inputAmount",
          "type": "uint256"
        },
        {
          "internalType": "address",
          "name": "fromSynth",
          "type": "address"
        },
        {
          "internalType": "address",
          "name": "toToken",
          "type": "address"
        }
      ],
      "name": "swapSynthToAsset",
      "outputs": [],
      "stateMutability": "nonpayable",
      "type": "function"
    },
    {
      "inputs": [
        {
          "internalType": "uint256",
          "name": "inputAmount",
          "type": "uint256"
        },
        {
          "internalType": "address",
          "name": "fromToken",
          "type": "address"
        },
        {
          "internalType": "address",
          "name": "toToken",
          "type": "address"
        },
        {
          "internalType": "address",
          "name": "member",
          "type": "address"
        },
        {
          "internalType": "uint256",
          "name": "minAmount",
          "type": "uint256"
        }
      ],
      "name": "swapTo",
      "outputs": [],
      "stateMutability": "payable",
      "type": "function"
    },
    {
      "inputs": [],
      "name": "synthMinting",
      "outputs": [
        {
          "internalType": "bool",
          "name": "",
          "type": "bool"
        }
      ],
      "stateMutability": "view",
      "type": "function"
    },
    {
      "inputs": [],
      "name": "updatePoolStatus",
      "outputs": [],
      "stateMutability": "nonpayable",
      "type": "function"
    },
    {
      "inputs": [
        {
          "internalType": "uint256",
          "name": "unitsInput",
          "type": "uint256"
        },
        {
          "internalType": "address",
          "name": "fromPool",
          "type": "address"
        },
        {
          "internalType": "address",
          "name": "toPool",
          "type": "address"
        }
      ],
      "name": "zapLiquidity",
      "outputs": [],
      "stateMutability": "nonpayable",
      "type": "function"
    },
    {
      "stateMutability": "payable",
      "type": "receive"
    }
  ],
  "bytecode": "0x60c06040523480156200001157600080fd5b50604051620083df380380620083df833981810160405281019062000037919062000130565b60016000819055508173ffffffffffffffffffffffffffffffffffffffff1660808173ffffffffffffffffffffffffffffffffffffffff1660601b815250508073ffffffffffffffffffffffffffffffffffffffff1660a08173ffffffffffffffffffffffffffffffffffffffff1660601b8152505060646002819055506000600560006101000a81548160ff02191690831515021790555033600160006101000a81548173ffffffffffffffffffffffffffffffffffffffff021916908373ffffffffffffffffffffffffffffffffffffffff1602179055505050620001bf565b6000815190506200012a81620001a5565b92915050565b600080604083850312156200014457600080fd5b6000620001548582860162000119565b9250506020620001678582860162000119565b9150509250929050565b60006200017e8262000185565b9050919050565b600073ffffffffffffffffffffffffffffffffffffffff82169050919050565b620001b08162000171565b8114620001bc57600080fd5b50565b60805160601c60a05160601c6180dc6200030360003960008181611042015281816124e3015281816128ca01528181613d2d0152818161547201528181615e070152818161603c01528181616a060152616ad00152600081816111a00152818161123601528181611273015281816113cf0152818161140c01528181611a0601528181611a6701528181611aa401528181611bc2015281816120b7015281816121e90152818161224e015281816128f701528181612922015281816129e701528181612a0801528181612b8d01528181612c2201528181612c43015281816131b70152818161389901528181613b7601528181613b9701528181614895015281816149270152818161496601528181614b1701528181614b54015281816153c50152818161552b01528181615cab01528181615f0d0152616c6201526180dc6000f3fe6080604052600436106101855760003560e01c8063940c4abc116100d1578063b45e1dbc1161008a578063dd845cb911610064578063dd845cb9146104f1578063ee85eda414610508578063f2db620d14610533578063f48610f31461054a5761018c565b8063b45e1dbc14610462578063c8c1fb751461048b578063cbb3a14a146104b45761018c565b8063940c4abc1461037557806399d786ca146103a05780639ea5705a146103cb578063a1cd6aa5146103f4578063aa62519b1461041d578063b3a14007146104395761018c565b80633e384a951161013e57806370085be01161011857806370085be0146102e457806387b21efc146103005780638b697c201461031c57806393cac685146103455761018c565b80633e384a951461026f578063451918db1461028b5780636325681e146102c85761018c565b806303a821381461019157806305fe138b146101a857806307f4d34c146101d15780631e2dd515146101fa5780633173ec3c14610223578063334ea1331461023f5761018c565b3661018c57005b600080fd5b34801561019d57600080fd5b506101a6610573565b005b3480156101b457600080fd5b506101cf60048036038101906101ca9190617591565b6106cb565b005b3480156101dd57600080fd5b506101f860048036038101906101f3919061753f565b6109c4565b005b34801561020657600080fd5b50610221600480360381019061021c91906176f6565b610b32565b005b61023d600480360381019061023891906175cd565b611666565b005b61025960048036038101906102549190617693565b611ea3565b6040516102669190617bd2565b60405180910390f35b6102896004803603810190610284919061761c565b6121ae565b005b34801561029757600080fd5b506102b260048036038101906102ad919061745a565b61268f565b6040516102bf9190617bd2565b60405180910390f35b6102e260048036038101906102dd9190617745565b6126a7565b005b6102fe60048036038101906102f99190617693565b612e22565b005b61031a600480360381019061031591906177e4565b612e35565b005b34801561032857600080fd5b50610343600480360381019061033e9190617591565b612e47565b005b61035f600480360381019061035a9190617833565b612fca565b60405161036c9190617bd2565b60405180910390f35b34801561038157600080fd5b5061038a613288565b6040516103979190617ab7565b60405180910390f35b3480156103ac57600080fd5b506103b561329b565b6040516103c29190617bd2565b60405180910390f35b3480156103d757600080fd5b506103f260048036038101906103ed9190617591565b6132a1565b005b34801561040057600080fd5b5061041b600480360381019061041691906175cd565b613424565b005b610437600480360381019061043291906176f6565b613f4c565b005b34801561044557600080fd5b50610460600480360381019061045b91906176f6565b613f5d565b005b34801561046e57600080fd5b50610489600480360381019061048491906175cd565b614258565b005b34801561049757600080fd5b506104b260048036038101906104ad9190617591565b614e28565b005b3480156104c057600080fd5b506104db60048036038101906104d6919061745a565b615564565b6040516104e89190617bd2565b60405180910390f35b3480156104fd57600080fd5b5061050661557c565b005b34801561051457600080fd5b5061051d615979565b60405161052a9190617bd2565b60405180910390f35b34801561053f57600080fd5b5061054861597f565b005b34801561055657600080fd5b50610571600480360381019061056c9190617693565b615abf565b005b61057b615f09565b73ffffffffffffffffffffffffffffffffffffffff166398fabd3a6040518163ffffffff1660e01b815260040160206040518083038186803b1580156105c057600080fd5b505afa1580156105d4573d6000803e3d6000fd5b505050506040513d601f19601f820116820180604052508101906105f89190617483565b73ffffffffffffffffffffffffffffffffffffffff163373ffffffffffffffffffffffffffffffffffffffff16148061067e5750600160009054906101000a900473ffffffffffffffffffffffffffffffffffffffff1673ffffffffffffffffffffffffffffffffffffffff163373ffffffffffffffffffffffffffffffffffffffff16145b61068757600080fd5b6000600160006101000a81548173ffffffffffffffffffffffffffffffffffffffff021916908373ffffffffffffffffffffffffffffffffffffffff160217905550565b6000821161070e576040517f08c379a000000000000000000000000000000000000000000000000000000000815260040161070590617b12565b60405180910390fd5b6000610718615f09565b73ffffffffffffffffffffffffffffffffffffffff16637b0e5c456040518163ffffffff1660e01b815260040160206040518083038186803b15801561075d57600080fd5b505afa158015610771573d6000803e3d6000fd5b505050506040513d601f19601f820116820180604052508101906107959190617483565b73ffffffffffffffffffffffffffffffffffffffff1663714270ab846107b9615f09565b73ffffffffffffffffffffffffffffffffffffffff1663b99b0a0c6040518163ffffffff1660e01b815260040160206040518083038186803b1580156107fe57600080fd5b505afa158015610812573d6000803e3d6000fd5b505050506040513d601f19601f820116820180604052508101906108369190617483565b73ffffffffffffffffffffffffffffffffffffffff1663bbe4f6db866040518263ffffffff1660e01b815260040161086e9190617a13565b60206040518083038186803b15801561088657600080fd5b505afa15801561089a573d6000803e3d6000fd5b505050506040513d601f19601f820116820180604052508101906108be9190617483565b73ffffffffffffffffffffffffffffffffffffffff166370a08231336040518263ffffffff1660e01b81526004016108f69190617a13565b60206040518083038186803b15801561090e57600080fd5b505afa158015610922573d6000803e3d6000fd5b505050506040513d601f19601f820116820180604052508101906109469190617568565b6040518363ffffffff1660e01b8152600401610963929190617c16565b60206040518083038186803b15801561097b57600080fd5b505afa15801561098f573d6000803e3d6000fd5b505050506040513d601f19601f820116820180604052508101906109b39190617568565b90506109bf8183614e28565b505050565b6109cc615f09565b73ffffffffffffffffffffffffffffffffffffffff166398fabd3a6040518163ffffffff1660e01b815260040160206040518083038186803b158015610a1157600080fd5b505afa158015610a25573d6000803e3d6000fd5b505050506040513d601f19601f82011682018060405250810190610a499190617483565b73ffffffffffffffffffffffffffffffffffffffff163373ffffffffffffffffffffffffffffffffffffffff161480610acf5750600160009054906101000a900473ffffffffffffffffffffffffffffffffffffffff1673ffffffffffffffffffffffffffffffffffffffff163373ffffffffffffffffffffffffffffffffffffffff16145b610ad857600080fd5b600081118015610ae9575061138881105b610b28576040517f08c379a0000000000000000000000000000000000000000000000000000000008152600401610b1f90617b12565b60405180910390fd5b8060028190555050565b60008311610b75576040517f08c379a0000000000000000000000000000000000000000000000000000000008152600401610b6c90617b12565b60405180910390fd5b60011515610b81615f09565b73ffffffffffffffffffffffffffffffffffffffff16639d2cc4366040518163ffffffff1660e01b815260040160206040518083038186803b158015610bc657600080fd5b505afa158015610bda573d6000803e3d6000fd5b505050506040513d601f19601f82011682018060405250810190610bfe9190617483565b73ffffffffffffffffffffffffffffffffffffffff1663194e22ce6040518163ffffffff1660e01b8152600401602060405180830381600087803b158015610c4557600080fd5b505af1158015610c59573d6000803e3d6000fd5b505050506040513d601f19601f82011682018060405250810190610c7d91906174ed565b15151415610cc0576040517f08c379a0000000000000000000000000000000000000000000000000000000008152600401610cb790617b72565b60405180910390fd5b6000610cca615f09565b73ffffffffffffffffffffffffffffffffffffffff1663b99b0a0c6040518163ffffffff1660e01b815260040160206040518083038186803b158015610d0f57600080fd5b505afa158015610d23573d6000803e3d6000fd5b505050506040513d601f19601f82011682018060405250810190610d479190617483565b905060008173ffffffffffffffffffffffffffffffffffffffff1663bbe4f6db846040518263ffffffff1660e01b8152600401610d849190617a13565b60206040518083038186803b158015610d9c57600080fd5b505afa158015610db0573d6000803e3d6000fd5b505050506040513d601f19601f82011682018060405250810190610dd49190617483565b9050600115158273ffffffffffffffffffffffffffffffffffffffff16635b16ebb7836040518263ffffffff1660e01b8152600401610e139190617a13565b602060405180830381600087803b158015610e2d57600080fd5b505af1158015610e41573d6000803e3d6000fd5b505050506040513d601f19601f82011682018060405250810190610e6591906174ed565b151514610ea7576040517f08c379a0000000000000000000000000000000000000000000000000000000008152600401610e9e90617ad2565b60405180910390fd5b60003390508173ffffffffffffffffffffffffffffffffffffffff166323b872dd8284896040518463ffffffff1660e01b8152600401610ee993929190617a57565b602060405180830381600087803b158015610f0357600080fd5b505af1158015610f17573d6000803e3d6000fd5b505050506040513d601f19601f82011682018060405250810190610f3b91906174ed565b610f7a576040517f08c379a0000000000000000000000000000000000000000000000000000000008152600401610f7190617b52565b60405180910390fd5b8173ffffffffffffffffffffffffffffffffffffffff1663bc5dedc9306040518263ffffffff1660e01b8152600401610fb39190617a13565b6040805180830381600087803b158015610fcc57600080fd5b505af1158015610fe0573d6000803e3d6000fd5b505050506040513d601f19601f8201168201806040525081019061100491906177a8565b50506000849050600073ffffffffffffffffffffffffffffffffffffffff168573ffffffffffffffffffffffffffffffffffffffff161415611064577f000000000000000000000000000000000000000000000000000000000000000090505b600086156113cd578173ffffffffffffffffffffffffffffffffffffffff1663a9059cbb858473ffffffffffffffffffffffffffffffffffffffff166370a08231306040518263ffffffff1660e01b81526004016110c29190617a13565b60206040518083038186803b1580156110da57600080fd5b505afa1580156110ee573d6000803e3d6000fd5b505050506040513d601f19601f820116820180604052508101906111129190617568565b6040518363ffffffff1660e01b815260040161112f929190617a8e565b602060405180830381600087803b15801561114957600080fd5b505af115801561115d573d6000803e3d6000fd5b505050506040513d601f19601f8201168201806040525081019061118191906174ed565b508373ffffffffffffffffffffffffffffffffffffffff16632783e4a97f0000000000000000000000000000000000000000000000000000000000000000306040518363ffffffff1660e01b81526004016111dd929190617a2e565b6040805180830381600087803b1580156111f657600080fd5b505af115801561120a573d6000803e3d6000fd5b505050506040513d601f19601f8201168201806040525081019061122e91906177a8565b9050809150507f000000000000000000000000000000000000000000000000000000000000000073ffffffffffffffffffffffffffffffffffffffff1663a9059cbb847f000000000000000000000000000000000000000000000000000000000000000073ffffffffffffffffffffffffffffffffffffffff166370a08231306040518263ffffffff1660e01b81526004016112ca9190617a13565b60206040518083038186803b1580156112e257600080fd5b505afa1580156112f6573d6000803e3d6000fd5b505050506040513d601f19601f8201168201806040525081019061131a9190617568565b6040518363ffffffff1660e01b8152600401611337929190617a8e565b602060405180830381600087803b15801561135157600080fd5b505af1158015611365573d6000803e3d6000fd5b505050506040513d601f19601f8201168201806040525081019061138991906174ed565b6113c8576040517f08c379a00000000000000000000000000000000000000000000000000000000081526004016113bf90617b52565b60405180910390fd5b611649565b7f000000000000000000000000000000000000000000000000000000000000000073ffffffffffffffffffffffffffffffffffffffff1663a9059cbb857f000000000000000000000000000000000000000000000000000000000000000073ffffffffffffffffffffffffffffffffffffffff166370a08231306040518263ffffffff1660e01b81526004016114639190617a13565b60206040518083038186803b15801561147b57600080fd5b505afa15801561148f573d6000803e3d6000fd5b505050506040513d601f19601f820116820180604052508101906114b39190617568565b6040518363ffffffff1660e01b81526004016114d0929190617a8e565b602060405180830381600087803b1580156114ea57600080fd5b505af11580156114fe573d6000803e3d6000fd5b505050506040513d601f19601f8201168201806040525081019061152291906174ed565b508373ffffffffffffffffffffffffffffffffffffffff16632783e4a983306040518363ffffffff1660e01b815260040161155e929190617a2e565b6040805180830381600087803b15801561157757600080fd5b505af115801561158b573d6000803e3d6000fd5b505050506040513d601f19601f820116820180604052508101906115af91906177a8565b905080915050611648868373ffffffffffffffffffffffffffffffffffffffff166370a08231306040518263ffffffff1660e01b81526004016115f29190617a13565b60206040518083038186803b15801561160a57600080fd5b505afa15801561161e573d6000803e3d6000fd5b505050506040513d601f19601f820116820180604052508101906116429190617568565b85615fae565b5b61165284616252565b61165c84826167f5565b5050505050505050565b600083116116a9576040517f08c379a00000000000000000000000000000000000000000000000000000000081526004016116a090617b12565b60405180910390fd5b8073ffffffffffffffffffffffffffffffffffffffff168273ffffffffffffffffffffffffffffffffffffffff1614156116e257600080fd5b600115156116ee615f09565b73ffffffffffffffffffffffffffffffffffffffff16639d2cc4366040518163ffffffff1660e01b815260040160206040518083038186803b15801561173357600080fd5b505afa158015611747573d6000803e3d6000fd5b505050506040513d601f19601f8201168201806040525081019061176b9190617483565b73ffffffffffffffffffffffffffffffffffffffff1663194e22ce6040518163ffffffff1660e01b8152600401602060405180830381600087803b1580156117b257600080fd5b505af11580156117c6573d6000803e3d6000fd5b505050506040513d601f19601f820116820180604052508101906117ea91906174ed565b1515141561182d576040517f08c379a000000000000000000000000000000000000000000000000000000000815260040161182490617b72565b60405180910390fd5b60008173ffffffffffffffffffffffffffffffffffffffff16637535d2466040518163ffffffff1660e01b815260040160206040518083038186803b15801561187557600080fd5b505afa158015611889573d6000803e3d6000fd5b505050506040513d601f19601f820116820180604052508101906118ad9190617483565b9050600115156118bb615f09565b73ffffffffffffffffffffffffffffffffffffffff1663b99b0a0c6040518163ffffffff1660e01b815260040160206040518083038186803b15801561190057600080fd5b505afa158015611914573d6000803e3d6000fd5b505050506040513d601f19601f820116820180604052508101906119389190617483565b73ffffffffffffffffffffffffffffffffffffffff16635b16ebb7836040518263ffffffff1660e01b81526004016119709190617a13565b602060405180830381600087803b15801561198a57600080fd5b505af115801561199e573d6000803e3d6000fd5b505050506040513d601f19601f820116820180604052508101906119c291906174ed565b151514611a04576040517f08c379a00000000000000000000000000000000000000000000000000000000081526004016119fb90617ad2565b60405180910390fd5b7f000000000000000000000000000000000000000000000000000000000000000073ffffffffffffffffffffffffffffffffffffffff168373ffffffffffffffffffffffffffffffffffffffff1614611bc057611a648484306000611ea3565b507f000000000000000000000000000000000000000000000000000000000000000073ffffffffffffffffffffffffffffffffffffffff1663a9059cbb827f000000000000000000000000000000000000000000000000000000000000000073ffffffffffffffffffffffffffffffffffffffff166370a08231306040518263ffffffff1660e01b8152600401611afb9190617a13565b60206040518083038186803b158015611b1357600080fd5b505afa158015611b27573d6000803e3d6000fd5b505050506040513d601f19601f82011682018060405250810190611b4b9190617568565b6040518363ffffffff1660e01b8152600401611b68929190617a8e565b602060405180830381600087803b158015611b8257600080fd5b505af1158015611b96573d6000803e3d6000fd5b505050506040513d601f19601f82011682018060405250810190611bba91906174ed565b50611caf565b7f000000000000000000000000000000000000000000000000000000000000000073ffffffffffffffffffffffffffffffffffffffff166323b872dd3383876040518463ffffffff1660e01b8152600401611c1d93929190617a57565b602060405180830381600087803b158015611c3757600080fd5b505af1158015611c4b573d6000803e3d6000fd5b505050506040513d601f19601f82011682018060405250810190611c6f91906174ed565b611cae576040517f08c379a0000000000000000000000000000000000000000000000000000000008152600401611ca590617b52565b60405180910390fd5b5b60008173ffffffffffffffffffffffffffffffffffffffff1663f1bbdef2336040518263ffffffff1660e01b8152600401611cea9190617a13565b6040805180830381600087803b158015611d0357600080fd5b505af1158015611d17573d6000803e3d6000fd5b505050506040513d601f19601f82011682018060405250810190611d3b91906177a8565b915050611d4782616252565b611d5182826167f5565b60011515611d5d615f09565b73ffffffffffffffffffffffffffffffffffffffff16639d2cc4366040518163ffffffff1660e01b815260040160206040518083038186803b158015611da257600080fd5b505afa158015611db6573d6000803e3d6000fd5b505050506040513d601f19601f82011682018060405250810190611dda9190617483565b73ffffffffffffffffffffffffffffffffffffffff1663194e22ce6040518163ffffffff1660e01b8152600401602060405180830381600087803b158015611e2157600080fd5b505af1158015611e35573d6000803e3d6000fd5b505050506040513d601f19601f82011682018060405250810190611e5991906174ed565b15151415611e9c576040517f08c379a0000000000000000000000000000000000000000000000000000000008152600401611e9390617b72565b60405180910390fd5b5050505050565b600080611eae615f09565b73ffffffffffffffffffffffffffffffffffffffff1663b99b0a0c6040518163ffffffff1660e01b815260040160206040518083038186803b158015611ef357600080fd5b505afa158015611f07573d6000803e3d6000fd5b505050506040513d601f19601f82011682018060405250810190611f2b9190617483565b905060008173ffffffffffffffffffffffffffffffffffffffff1663bbe4f6db876040518263ffffffff1660e01b8152600401611f689190617a13565b60206040518083038186803b158015611f8057600080fd5b505afa158015611f94573d6000803e3d6000fd5b505050506040513d601f19601f82011682018060405250810190611fb89190617483565b9050600115158273ffffffffffffffffffffffffffffffffffffffff16635b16ebb7836040518263ffffffff1660e01b8152600401611ff79190617a13565b602060405180830381600087803b15801561201157600080fd5b505af1158015612025573d6000803e3d6000fd5b505050506040513d601f19601f8201168201806040525081019061204991906174ed565b15151461208b576040517f08c379a000000000000000000000000000000000000000000000000000000000815260040161208290617ad2565b60405180910390fd5b612096868883616930565b6000808273ffffffffffffffffffffffffffffffffffffffff16632783e4a97f0000000000000000000000000000000000000000000000000000000000000000896040518363ffffffff1660e01b81526004016120f4929190617a2e565b6040805180830381600087803b15801561210d57600080fd5b505af1158015612121573d6000803e3d6000fd5b505050506040513d601f19601f8201168201806040525081019061214591906177a8565b915091508582101561218c576040517f08c379a000000000000000000000000000000000000000000000000000000000815260040161218390617b32565b60405180910390fd5b61219583616252565b61219f83826167f5565b80945050505050949350505050565b8273ffffffffffffffffffffffffffffffffffffffff168473ffffffffffffffffffffffffffffffffffffffff1614156121e757600080fd5b7f000000000000000000000000000000000000000000000000000000000000000073ffffffffffffffffffffffffffffffffffffffff168473ffffffffffffffffffffffffffffffffffffffff16141561224c5761224785848484615abf565b612688565b7f000000000000000000000000000000000000000000000000000000000000000073ffffffffffffffffffffffffffffffffffffffff168373ffffffffffffffffffffffffffffffffffffffff1614156122b2576122ac85858484611ea3565b50612687565b60006122bc615f09565b73ffffffffffffffffffffffffffffffffffffffff1663b99b0a0c6040518163ffffffff1660e01b815260040160206040518083038186803b15801561230157600080fd5b505afa158015612315573d6000803e3d6000fd5b505050506040513d601f19601f820116820180604052508101906123399190617483565b905060008173ffffffffffffffffffffffffffffffffffffffff1663bbe4f6db866040518263ffffffff1660e01b81526004016123769190617a13565b60206040518083038186803b15801561238e57600080fd5b505afa1580156123a2573d6000803e3d6000fd5b505050506040513d601f19601f820116820180604052508101906123c69190617483565b9050600115158273ffffffffffffffffffffffffffffffffffffffff16635b16ebb7836040518263ffffffff1660e01b81526004016124059190617a13565b602060405180830381600087803b15801561241f57600080fd5b505af1158015612433573d6000803e3d6000fd5b505050506040513d601f19601f8201168201806040525081019061245791906174ed565b151514612499576040517f08c379a000000000000000000000000000000000000000000000000000000000815260040161249090617ad2565b60405180910390fd5b6124a68787836000611ea3565b506000859050600073ffffffffffffffffffffffffffffffffffffffff168673ffffffffffffffffffffffffffffffffffffffff161415612505577f000000000000000000000000000000000000000000000000000000000000000090505b6000808373ffffffffffffffffffffffffffffffffffffffff16632783e4a984306040518363ffffffff1660e01b8152600401612543929190617a2e565b6040805180830381600087803b15801561255c57600080fd5b505af1158015612570573d6000803e3d6000fd5b505050506040513d601f19601f8201168201806040525081019061259491906177a8565b91509150858210156125db576040517f08c379a00000000000000000000000000000000000000000000000000000000081526004016125d290617b32565b60405180910390fd5b6125e484616252565b6125ee84826167f5565b612681888473ffffffffffffffffffffffffffffffffffffffff166370a08231306040518263ffffffff1660e01b815260040161262b9190617a13565b60206040518083038186803b15801561264357600080fd5b505afa158015612657573d6000803e3d6000fd5b505050506040513d601f19601f8201168201806040525081019061267b9190617568565b89615fae565b50505050505b5b5050505050565b60076020528060005260406000206000915090505481565b60006126b1615f09565b73ffffffffffffffffffffffffffffffffffffffff1663b99b0a0c6040518163ffffffff1660e01b815260040160206040518083038186803b1580156126f657600080fd5b505afa15801561270a573d6000803e3d6000fd5b505050506040513d601f19601f8201168201806040525081019061272e9190617483565b905060008173ffffffffffffffffffffffffffffffffffffffff1663bbe4f6db856040518263ffffffff1660e01b815260040161276b9190617a13565b60206040518083038186803b15801561278357600080fd5b505afa158015612797573d6000803e3d6000fd5b505050506040513d601f19601f820116820180604052508101906127bb9190617483565b9050600115158273ffffffffffffffffffffffffffffffffffffffff16635b16ebb7836040518263ffffffff1660e01b81526004016127fa9190617a13565b602060405180830381600087803b15801561281457600080fd5b505af1158015612828573d6000803e3d6000fd5b505050506040513d601f19601f8201168201806040525081019061284c91906174ed565b15151461288e576040517f08c379a000000000000000000000000000000000000000000000000000000000815260040161288590617ad2565b60405180910390fd5b6000849050600073ffffffffffffffffffffffffffffffffffffffff168573ffffffffffffffffffffffffffffffffffffffff1614156128ec577f000000000000000000000000000000000000000000000000000000000000000090505b8515612b4d5761291d7f00000000000000000000000000000000000000000000000000000000000000008830616930565b6129547f000000000000000000000000000000000000000000000000000000000000000060028961294e9190617d02565b84615fae565b8173ffffffffffffffffffffffffffffffffffffffff16632783e4a982306040518363ffffffff1660e01b815260040161298f929190617a2e565b6040805180830381600087803b1580156129a857600080fd5b505af11580156129bc573d6000803e3d6000fd5b505050506040513d601f19601f820116820180604052508101906129e091906177a8565b5050612ab57f00000000000000000000000000000000000000000000000000000000000000007f000000000000000000000000000000000000000000000000000000000000000073ffffffffffffffffffffffffffffffffffffffff166370a08231306040518263ffffffff1660e01b8152600401612a5f9190617a13565b60206040518083038186803b158015612a7757600080fd5b505afa158015612a8b573d6000803e3d6000fd5b505050506040513d601f19601f82011682018060405250810190612aaf9190617568565b84615fae565b612b48818273ffffffffffffffffffffffffffffffffffffffff166370a08231306040518263ffffffff1660e01b8152600401612af29190617a13565b60206040518083038186803b158015612b0a57600080fd5b505afa158015612b1e573d6000803e3d6000fd5b505050506040513d601f19601f82011682018060405250810190612b429190617568565b84615fae565b612d84565b612b58858830616930565b612b6f81600289612b699190617d02565b84615fae565b8173ffffffffffffffffffffffffffffffffffffffff16632783e4a97f0000000000000000000000000000000000000000000000000000000000000000306040518363ffffffff1660e01b8152600401612bca929190617a2e565b6040805180830381600087803b158015612be357600080fd5b505af1158015612bf7573d6000803e3d6000fd5b505050506040513d601f19601f82011682018060405250810190612c1b91906177a8565b5050612cf07f00000000000000000000000000000000000000000000000000000000000000007f000000000000000000000000000000000000000000000000000000000000000073ffffffffffffffffffffffffffffffffffffffff166370a08231306040518263ffffffff1660e01b8152600401612c9a9190617a13565b60206040518083038186803b158015612cb257600080fd5b505afa158015612cc6573d6000803e3d6000fd5b505050506040513d601f19601f82011682018060405250810190612cea9190617568565b84615fae565b612d83818273ffffffffffffffffffffffffffffffffffffffff166370a08231306040518263ffffffff1660e01b8152600401612d2d9190617a13565b60206040518083038186803b158015612d4557600080fd5b505afa158015612d59573d6000803e3d6000fd5b505050506040513d601f19601f82011682018060405250810190612d7d9190617568565b84615fae565b5b8173ffffffffffffffffffffffffffffffffffffffff166386d5f618856040518263ffffffff1660e01b8152600401612dbd9190617a13565b602060405180830381600087803b158015612dd757600080fd5b505af1158015612deb573d6000803e3d6000fd5b505050506040513d601f19601f82011682018060405250810190612e0f9190617568565b50612e1982616252565b50505050505050565b612e2f84848433856121ae565b50505050565b612e4183838333612fca565b50505050565b612e4f615f09565b73ffffffffffffffffffffffffffffffffffffffff166398fabd3a6040518163ffffffff1660e01b815260040160206040518083038186803b158015612e9457600080fd5b505afa158015612ea8573d6000803e3d6000fd5b505050506040513d601f19601f82011682018060405250810190612ecc9190617483565b73ffffffffffffffffffffffffffffffffffffffff163373ffffffffffffffffffffffffffffffffffffffff161480612f525750600160009054906101000a900473ffffffffffffffffffffffffffffffffffffffff1673ffffffffffffffffffffffffffffffffffffffff163373ffffffffffffffffffffffffffffffffffffffff16145b612f5b57600080fd5b8073ffffffffffffffffffffffffffffffffffffffff16637ec3eae5836040518263ffffffff1660e01b8152600401612f949190617bd2565b600060405180830381600087803b158015612fae57600080fd5b505af1158015612fc2573d6000803e3d6000fd5b505050505050565b600080612fd5615f09565b73ffffffffffffffffffffffffffffffffffffffff1663b99b0a0c6040518163ffffffff1660e01b815260040160206040518083038186803b15801561301a57600080fd5b505afa15801561302e573d6000803e3d6000fd5b505050506040513d601f19601f820116820180604052508101906130529190617483565b905060008173ffffffffffffffffffffffffffffffffffffffff1663bbe4f6db866040518263ffffffff1660e01b815260040161308f9190617a13565b60206040518083038186803b1580156130a757600080fd5b505afa1580156130bb573d6000803e3d6000fd5b505050506040513d601f19601f820116820180604052508101906130df9190617483565b9050600115158273ffffffffffffffffffffffffffffffffffffffff16635b16ebb7836040518263ffffffff1660e01b815260040161311e9190617a13565b602060405180830381600087803b15801561313857600080fd5b505af115801561314c573d6000803e3d6000fd5b505050506040513d601f19601f8201168201806040525081019061317091906174ed565b1515146131b2576040517f08c379a00000000000000000000000000000000000000000000000000000000081526004016131a990617ad2565b60405180910390fd5b6131dd7f00000000000000000000000000000000000000000000000000000000000000008783616930565b6131e8858883616930565b8073ffffffffffffffffffffffffffffffffffffffff166386d5f618856040518263ffffffff1660e01b81526004016132219190617a13565b602060405180830381600087803b15801561323b57600080fd5b505af115801561324f573d6000803e3d6000fd5b505050506040513d601f19601f820116820180604052508101906132739190617568565b925061327e81616252565b5050949350505050565b600560009054906101000a900460ff1681565b60035481565b6132a9615f09565b73ffffffffffffffffffffffffffffffffffffffff166398fabd3a6040518163ffffffff1660e01b815260040160206040518083038186803b1580156132ee57600080fd5b505afa158015613302573d6000803e3d6000fd5b505050506040513d601f19601f820116820180604052508101906133269190617483565b73ffffffffffffffffffffffffffffffffffffffff163373ffffffffffffffffffffffffffffffffffffffff1614806133ac5750600160009054906101000a900473ffffffffffffffffffffffffffffffffffffffff1673ffffffffffffffffffffffffffffffffffffffff163373ffffffffffffffffffffffffffffffffffffffff16145b6133b557600080fd5b8073ffffffffffffffffffffffffffffffffffffffff1663474e7302836040518263ffffffff1660e01b81526004016133ee9190617bd2565b600060405180830381600087803b15801561340857600080fd5b505af115801561341c573d6000803e3d6000fd5b505050505050565b60008311613467576040517f08c379a000000000000000000000000000000000000000000000000000000000815260040161345e90617b12565b60405180910390fd5b8073ffffffffffffffffffffffffffffffffffffffff168273ffffffffffffffffffffffffffffffffffffffff1614156134a057600080fd5b600115156134ac615f09565b73ffffffffffffffffffffffffffffffffffffffff16639d2cc4366040518163ffffffff1660e01b815260040160206040518083038186803b1580156134f157600080fd5b505afa158015613505573d6000803e3d6000fd5b505050506040513d601f19601f820116820180604052508101906135299190617483565b73ffffffffffffffffffffffffffffffffffffffff1663194e22ce6040518163ffffffff1660e01b8152600401602060405180830381600087803b15801561357057600080fd5b505af1158015613584573d6000803e3d6000fd5b505050506040513d601f19601f820116820180604052508101906135a891906174ed565b151514156135eb576040517f08c379a00000000000000000000000000000000000000000000000000000000081526004016135e290617b72565b60405180910390fd5b60006135f5615f09565b73ffffffffffffffffffffffffffffffffffffffff1663b99b0a0c6040518163ffffffff1660e01b815260040160206040518083038186803b15801561363a57600080fd5b505afa15801561364e573d6000803e3d6000fd5b505050506040513d601f19601f820116820180604052508101906136729190617483565b905060008373ffffffffffffffffffffffffffffffffffffffff16637535d2466040518163ffffffff1660e01b815260040160206040518083038186803b1580156136bc57600080fd5b505afa1580156136d0573d6000803e3d6000fd5b505050506040513d601f19601f820116820180604052508101906136f49190617483565b9050600115158273ffffffffffffffffffffffffffffffffffffffff16635b16ebb7836040518263ffffffff1660e01b81526004016137339190617a13565b602060405180830381600087803b15801561374d57600080fd5b505af1158015613761573d6000803e3d6000fd5b505050506040513d601f19601f8201168201806040525081019061378591906174ed565b1515146137c7576040517f08c379a00000000000000000000000000000000000000000000000000000000081526004016137be90617ad2565b60405180910390fd5b8373ffffffffffffffffffffffffffffffffffffffff166323b872dd3383886040518463ffffffff1660e01b815260040161380493929190617a57565b602060405180830381600087803b15801561381e57600080fd5b505af1158015613832573d6000803e3d6000fd5b505050506040513d601f19601f8201168201806040525081019061385691906174ed565b613895576040517f08c379a000000000000000000000000000000000000000000000000000000000815260040161388c90617b52565b60405180910390fd5b60007f000000000000000000000000000000000000000000000000000000000000000073ffffffffffffffffffffffffffffffffffffffff168473ffffffffffffffffffffffffffffffffffffffff161415613980578173ffffffffffffffffffffffffffffffffffffffff1663dbfc5a04336040518263ffffffff1660e01b81526004016139249190617a13565b6040805180830381600087803b15801561393d57600080fd5b505af1158015613951573d6000803e3d6000fd5b505050506040513d601f19601f8201168201806040525081019061397591906177a8565b905080915050613de6565b60008373ffffffffffffffffffffffffffffffffffffffff1663bbe4f6db866040518263ffffffff1660e01b81526004016139bb9190617a13565b60206040518083038186803b1580156139d357600080fd5b505afa1580156139e7573d6000803e3d6000fd5b505050506040513d601f19601f82011682018060405250810190613a0b9190617483565b9050600115158473ffffffffffffffffffffffffffffffffffffffff16635b16ebb7836040518263ffffffff1660e01b8152600401613a4a9190617a13565b602060405180830381600087803b158015613a6457600080fd5b505af1158015613a78573d6000803e3d6000fd5b505050506040513d601f19601f82011682018060405250810190613a9c91906174ed565b151514613ade576040517f08c379a0000000000000000000000000000000000000000000000000000000008152600401613ad590617ad2565b60405180910390fd5b6000808473ffffffffffffffffffffffffffffffffffffffff1663dbfc5a04306040518263ffffffff1660e01b8152600401613b1a9190617a13565b6040805180830381600087803b158015613b3357600080fd5b505af1158015613b47573d6000803e3d6000fd5b505050506040513d601f19601f82011682018060405250810190613b6b91906177a8565b905080945050613c447f00000000000000000000000000000000000000000000000000000000000000007f000000000000000000000000000000000000000000000000000000000000000073ffffffffffffffffffffffffffffffffffffffff166370a08231306040518263ffffffff1660e01b8152600401613bee9190617a13565b60206040518083038186803b158015613c0657600080fd5b505afa158015613c1a573d6000803e3d6000fd5b505050506040513d601f19601f82011682018060405250810190613c3e9190617568565b85615fae565b600073ffffffffffffffffffffffffffffffffffffffff168773ffffffffffffffffffffffffffffffffffffffff1614613d0f578273ffffffffffffffffffffffffffffffffffffffff16632783e4a988336040518363ffffffff1660e01b8152600401613cb3929190617a2e565b6040805180830381600087803b158015613ccc57600080fd5b505af1158015613ce0573d6000803e3d6000fd5b505050506040513d601f19601f82011682018060405250810190613d0491906177a8565b905080925050613dcf565b8273ffffffffffffffffffffffffffffffffffffffff16632783e4a97f0000000000000000000000000000000000000000000000000000000000000000306040518363ffffffff1660e01b8152600401613d6a929190617a2e565b6040805180830381600087803b158015613d8357600080fd5b505af1158015613d97573d6000803e3d6000fd5b505050506040513d601f19601f82011682018060405250810190613dbb91906177a8565b8093508192505050613dce878233615fae565b5b613dd883616252565b613de283836167f5565b5050505b613def82616252565b613df982826167f5565b60011515613e05615f09565b73ffffffffffffffffffffffffffffffffffffffff16639d2cc4366040518163ffffffff1660e01b815260040160206040518083038186803b158015613e4a57600080fd5b505afa158015613e5e573d6000803e3d6000fd5b505050506040513d601f19601f82011682018060405250810190613e829190617483565b73ffffffffffffffffffffffffffffffffffffffff1663194e22ce6040518163ffffffff1660e01b8152600401602060405180830381600087803b158015613ec957600080fd5b505af1158015613edd573d6000803e3d6000fd5b505050506040513d601f19601f82011682018060405250810190613f0191906174ed565b15151415613f44576040517f08c379a0000000000000000000000000000000000000000000000000000000008152600401613f3b90617b72565b60405180910390fd5b505050505050565b613f58838383336126a7565b505050565b60008311613fa0576040517f08c379a0000000000000000000000000000000000000000000000000000000008152600401613f9790617b12565b60405180910390fd5b6000613faa615f09565b73ffffffffffffffffffffffffffffffffffffffff16637b0e5c456040518163ffffffff1660e01b815260040160206040518083038186803b158015613fef57600080fd5b505afa158015614003573d6000803e3d6000fd5b505050506040513d601f19601f820116820180604052508101906140279190617483565b73ffffffffffffffffffffffffffffffffffffffff1663714270ab8561404b615f09565b73ffffffffffffffffffffffffffffffffffffffff1663b99b0a0c6040518163ffffffff1660e01b815260040160206040518083038186803b15801561409057600080fd5b505afa1580156140a4573d6000803e3d6000fd5b505050506040513d601f19601f820116820180604052508101906140c89190617483565b73ffffffffffffffffffffffffffffffffffffffff1663bbe4f6db866040518263ffffffff1660e01b81526004016141009190617a13565b60206040518083038186803b15801561411857600080fd5b505afa15801561412c573d6000803e3d6000fd5b505050506040513d601f19601f820116820180604052508101906141509190617483565b73ffffffffffffffffffffffffffffffffffffffff166370a08231336040518263ffffffff1660e01b81526004016141889190617a13565b60206040518083038186803b1580156141a057600080fd5b505afa1580156141b4573d6000803e3d6000fd5b505050506040513d601f19601f820116820180604052508101906141d89190617568565b6040518363ffffffff1660e01b81526004016141f5929190617c16565b60206040518083038186803b15801561420d57600080fd5b505afa158015614221573d6000803e3d6000fd5b505050506040513d601f19601f820116820180604052508101906142459190617568565b9050614252818484610b32565b50505050565b8073ffffffffffffffffffffffffffffffffffffffff168273ffffffffffffffffffffffffffffffffffffffff16141580156142945750600083115b6142d3576040517f08c379a00000000000000000000000000000000000000000000000000000000081526004016142ca90617b12565b60405180910390fd5b60006142dd615f09565b73ffffffffffffffffffffffffffffffffffffffff1663b99b0a0c6040518163ffffffff1660e01b815260040160206040518083038186803b15801561432257600080fd5b505afa158015614336573d6000803e3d6000fd5b505050506040513d601f19601f8201168201806040525081019061435a9190617483565b9050600115158173ffffffffffffffffffffffffffffffffffffffff16635b16ebb7856040518263ffffffff1660e01b81526004016143999190617a13565b602060405180830381600087803b1580156143b357600080fd5b505af11580156143c7573d6000803e3d6000fd5b505050506040513d601f19601f820116820180604052508101906143eb91906174ed565b15151461442d576040517f08c379a000000000000000000000000000000000000000000000000000000000815260040161442490617ad2565b60405180910390fd5b600115158173ffffffffffffffffffffffffffffffffffffffff16635b16ebb7846040518263ffffffff1660e01b815260040161446a9190617a13565b602060405180830381600087803b15801561448457600080fd5b505af1158015614498573d6000803e3d6000fd5b505050506040513d601f19601f820116820180604052508101906144bc91906174ed565b1515146144fe576040517f08c379a00000000000000000000000000000000000000000000000000000000081526004016144f590617ad2565b60405180910390fd5b60008373ffffffffffffffffffffffffffffffffffffffff166382bfefc86040518163ffffffff1660e01b815260040160206040518083038186803b15801561454657600080fd5b505afa15801561455a573d6000803e3d6000fd5b505050506040513d601f19601f8201168201806040525081019061457e9190617483565b905060008373ffffffffffffffffffffffffffffffffffffffff166382bfefc86040518163ffffffff1660e01b815260040160206040518083038186803b1580156145c857600080fd5b505afa1580156145dc573d6000803e3d6000fd5b505050506040513d601f19601f820116820180604052508101906146009190617483565b905060003390508573ffffffffffffffffffffffffffffffffffffffff166323b872dd82888a6040518463ffffffff1660e01b815260040161464493929190617a57565b602060405180830381600087803b15801561465e57600080fd5b505af1158015614672573d6000803e3d6000fd5b505050506040513d601f19601f8201168201806040525081019061469691906174ed565b6146d5576040517f08c379a00000000000000000000000000000000000000000000000000000000081526004016146cc90617b52565b60405180910390fd5b8573ffffffffffffffffffffffffffffffffffffffff1663bc5dedc9306040518263ffffffff1660e01b815260040161470e9190617a13565b6040805180830381600087803b15801561472757600080fd5b505af115801561473b573d6000803e3d6000fd5b505050506040513d601f19601f8201168201806040525081019061475f91906177a8565b50508273ffffffffffffffffffffffffffffffffffffffff1663a9059cbb878573ffffffffffffffffffffffffffffffffffffffff166370a08231306040518263ffffffff1660e01b81526004016147b79190617a13565b60206040518083038186803b1580156147cf57600080fd5b505afa1580156147e3573d6000803e3d6000fd5b505050506040513d601f19601f820116820180604052508101906148079190617568565b6040518363ffffffff1660e01b8152600401614824929190617a8e565b602060405180830381600087803b15801561483e57600080fd5b505af1158015614852573d6000803e3d6000fd5b505050506040513d601f19601f8201168201806040525081019061487691906174ed565b508573ffffffffffffffffffffffffffffffffffffffff16632783e4a97f0000000000000000000000000000000000000000000000000000000000000000306040518363ffffffff1660e01b81526004016148d2929190617a2e565b6040805180830381600087803b1580156148eb57600080fd5b505af11580156148ff573d6000803e3d6000fd5b505050506040513d601f19601f8201168201806040525081019061492391906177a8565b50507f000000000000000000000000000000000000000000000000000000000000000073ffffffffffffffffffffffffffffffffffffffff1663a9059cbb8660027f000000000000000000000000000000000000000000000000000000000000000073ffffffffffffffffffffffffffffffffffffffff166370a08231306040518263ffffffff1660e01b81526004016149bd9190617a13565b60206040518083038186803b1580156149d557600080fd5b505afa1580156149e9573d6000803e3d6000fd5b505050506040513d601f19601f82011682018060405250810190614a0d9190617568565b614a179190617d02565b6040518363ffffffff1660e01b8152600401614a34929190617a8e565b602060405180830381600087803b158015614a4e57600080fd5b505af1158015614a62573d6000803e3d6000fd5b505050506040513d601f19601f82011682018060405250810190614a8691906174ed565b508473ffffffffffffffffffffffffffffffffffffffff16632783e4a983306040518363ffffffff1660e01b8152600401614ac2929190617a2e565b6040805180830381600087803b158015614adb57600080fd5b505af1158015614aef573d6000803e3d6000fd5b505050506040513d601f19601f82011682018060405250810190614b1391906177a8565b50507f000000000000000000000000000000000000000000000000000000000000000073ffffffffffffffffffffffffffffffffffffffff1663a9059cbb867f000000000000000000000000000000000000000000000000000000000000000073ffffffffffffffffffffffffffffffffffffffff166370a08231306040518263ffffffff1660e01b8152600401614bab9190617a13565b60206040518083038186803b158015614bc357600080fd5b505afa158015614bd7573d6000803e3d6000fd5b505050506040513d601f19601f82011682018060405250810190614bfb9190617568565b6040518363ffffffff1660e01b8152600401614c18929190617a8e565b602060405180830381600087803b158015614c3257600080fd5b505af1158015614c46573d6000803e3d6000fd5b505050506040513d601f19601f82011682018060405250810190614c6a91906174ed565b508173ffffffffffffffffffffffffffffffffffffffff1663a9059cbb868473ffffffffffffffffffffffffffffffffffffffff166370a08231306040518263ffffffff1660e01b8152600401614cc19190617a13565b60206040518083038186803b158015614cd957600080fd5b505afa158015614ced573d6000803e3d6000fd5b505050506040513d601f19601f82011682018060405250810190614d119190617568565b6040518363ffffffff1660e01b8152600401614d2e929190617a8e565b602060405180830381600087803b158015614d4857600080fd5b505af1158015614d5c573d6000803e3d6000fd5b505050506040513d601f19601f82011682018060405250810190614d8091906174ed565b508473ffffffffffffffffffffffffffffffffffffffff166386d5f618826040518263ffffffff1660e01b8152600401614dba9190617a13565b602060405180830381600087803b158015614dd457600080fd5b505af1158015614de8573d6000803e3d6000fd5b505050506040513d601f19601f82011682018060405250810190614e0c9190617568565b50614e1686616252565b614e1f85616252565b50505050505050565b60008211614e6b576040517f08c379a0000000000000000000000000000000000000000000000000000000008152600401614e6290617b12565b60405180910390fd5b6000614e75615f09565b73ffffffffffffffffffffffffffffffffffffffff1663b99b0a0c6040518163ffffffff1660e01b815260040160206040518083038186803b158015614eba57600080fd5b505afa158015614ece573d6000803e3d6000fd5b505050506040513d601f19601f82011682018060405250810190614ef29190617483565b905060011515614f00615f09565b73ffffffffffffffffffffffffffffffffffffffff16639d2cc4366040518163ffffffff1660e01b815260040160206040518083038186803b158015614f4557600080fd5b505afa158015614f59573d6000803e3d6000fd5b505050506040513d601f19601f82011682018060405250810190614f7d9190617483565b73ffffffffffffffffffffffffffffffffffffffff1663194e22ce6040518163ffffffff1660e01b8152600401602060405180830381600087803b158015614fc457600080fd5b505af1158015614fd8573d6000803e3d6000fd5b505050506040513d601f19601f82011682018060405250810190614ffc91906174ed565b1515141561503f576040517f08c379a000000000000000000000000000000000000000000000000000000000815260040161503690617b72565b60405180910390fd5b60008173ffffffffffffffffffffffffffffffffffffffff1663bbe4f6db846040518263ffffffff1660e01b815260040161507a9190617a13565b60206040518083038186803b15801561509257600080fd5b505afa1580156150a6573d6000803e3d6000fd5b505050506040513d601f19601f820116820180604052508101906150ca9190617483565b9050600115158273ffffffffffffffffffffffffffffffffffffffff16635b16ebb7836040518263ffffffff1660e01b81526004016151099190617a13565b602060405180830381600087803b15801561512357600080fd5b505af1158015615137573d6000803e3d6000fd5b505050506040513d601f19601f8201168201806040525081019061515b91906174ed565b15151461519d576040517f08c379a000000000000000000000000000000000000000000000000000000000815260040161519490617ad2565b60405180910390fd5b60003390508173ffffffffffffffffffffffffffffffffffffffff166323b872dd8284886040518463ffffffff1660e01b81526004016151df93929190617a57565b602060405180830381600087803b1580156151f957600080fd5b505af115801561520d573d6000803e3d6000fd5b505050506040513d601f19601f8201168201806040525081019061523191906174ed565b615270576040517f08c379a000000000000000000000000000000000000000000000000000000000815260040161526790617b52565b60405180910390fd5b600073ffffffffffffffffffffffffffffffffffffffff168473ffffffffffffffffffffffffffffffffffffffff1614615335578173ffffffffffffffffffffffffffffffffffffffff1663bc5dedc9826040518263ffffffff1660e01b81526004016152dd9190617a13565b6040805180830381600087803b1580156152f657600080fd5b505af115801561530a573d6000803e3d6000fd5b505050506040513d601f19601f8201168201806040525081019061532e91906177a8565b5050615554565b8173ffffffffffffffffffffffffffffffffffffffff1663bc5dedc9306040518263ffffffff1660e01b815260040161536e9190617a13565b6040805180830381600087803b15801561538757600080fd5b505af115801561539b573d6000803e3d6000fd5b505050506040513d601f19601f820116820180604052508101906153bf91906177a8565b505060007f000000000000000000000000000000000000000000000000000000000000000073ffffffffffffffffffffffffffffffffffffffff166370a08231306040518263ffffffff1660e01b815260040161541c9190617a13565b60206040518083038186803b15801561543457600080fd5b505afa158015615448573d6000803e3d6000fd5b505050506040513d601f19601f8201168201806040525081019061546c9190617568565b905060007f000000000000000000000000000000000000000000000000000000000000000073ffffffffffffffffffffffffffffffffffffffff166370a08231306040518263ffffffff1660e01b81526004016154c99190617a13565b60206040518083038186803b1580156154e157600080fd5b505afa1580156154f5573d6000803e3d6000fd5b505050506040513d601f19601f820116820180604052508101906155199190617568565b9050615526868285615fae565b6155517f00000000000000000000000000000000000000000000000000000000000000008385615fae565b50505b61555d82616252565b5050505050565b60066020528060005260406000206000915090505481565b615584615f09565b73ffffffffffffffffffffffffffffffffffffffff16639d2cc4366040518163ffffffff1660e01b815260040160206040518083038186803b1580156155c957600080fd5b505afa1580156155dd573d6000803e3d6000fd5b505050506040513d601f19601f820116820180604052508101906156019190617483565b73ffffffffffffffffffffffffffffffffffffffff1663194e22ce6040518163ffffffff1660e01b8152600401602060405180830381600087803b15801561564857600080fd5b505af115801561565c573d6000803e3d6000fd5b505050506040513d601f19601f8201168201806040525081019061568091906174ed565b1561597757600061568f615f09565b73ffffffffffffffffffffffffffffffffffffffff1663b99b0a0c6040518163ffffffff1660e01b815260040160206040518083038186803b1580156156d457600080fd5b505afa1580156156e8573d6000803e3d6000fd5b505050506040513d601f19601f8201168201806040525081019061570c9190617483565b73ffffffffffffffffffffffffffffffffffffffff1663abc764da6040518163ffffffff1660e01b815260040160006040518083038186803b15801561575157600080fd5b505afa158015615765573d6000803e3d6000fd5b505050506040513d6000823e3d601f19601f8201168201806040525081019061578e91906174ac565b9050600080600090505b825181101561587c578281815181106157da577f4e487b7100000000000000000000000000000000000000000000000000000000600052603260045260246000fd5b602002602001015173ffffffffffffffffffffffffffffffffffffffff166362a5af3b6040518163ffffffff1660e01b815260040160206040518083038186803b15801561582757600080fd5b505afa15801561583b573d6000803e3d6000fd5b505050506040513d601f19601f8201168201806040525081019061585f91906174ed565b1561586957600091505b808061587490617e18565b915050615798565b5080156159745761588b615f09565b73ffffffffffffffffffffffffffffffffffffffff16639d2cc4366040518163ffffffff1660e01b815260040160206040518083038186803b1580156158d057600080fd5b505afa1580156158e4573d6000803e3d6000fd5b505050506040513d601f19601f820116820180604052508101906159089190617483565b73ffffffffffffffffffffffffffffffffffffffff16637828c71760006040518263ffffffff1660e01b81526004016159419190617ab7565b600060405180830381600087803b15801561595b57600080fd5b505af115801561596f573d6000803e3d6000fd5b505050505b50505b565b60025481565b615987615f09565b73ffffffffffffffffffffffffffffffffffffffff166398fabd3a6040518163ffffffff1660e01b815260040160206040518083038186803b1580156159cc57600080fd5b505afa1580156159e0573d6000803e3d6000fd5b505050506040513d601f19601f82011682018060405250810190615a049190617483565b73ffffffffffffffffffffffffffffffffffffffff163373ffffffffffffffffffffffffffffffffffffffff161480615a8a5750600160009054906101000a900473ffffffffffffffffffffffffffffffffffffffff1673ffffffffffffffffffffffffffffffffffffffff163373ffffffffffffffffffffffffffffffffffffffff16145b615a9357600080fd5b600560009054906101000a900460ff1615600560006101000a81548160ff021916908315150217905550565b6000615ac9615f09565b73ffffffffffffffffffffffffffffffffffffffff1663b99b0a0c6040518163ffffffff1660e01b815260040160206040518083038186803b158015615b0e57600080fd5b505afa158015615b22573d6000803e3d6000fd5b505050506040513d601f19601f82011682018060405250810190615b469190617483565b905060008173ffffffffffffffffffffffffffffffffffffffff1663bbe4f6db866040518263ffffffff1660e01b8152600401615b839190617a13565b60206040518083038186803b158015615b9b57600080fd5b505afa158015615baf573d6000803e3d6000fd5b505050506040513d601f19601f82011682018060405250810190615bd39190617483565b9050600115158273ffffffffffffffffffffffffffffffffffffffff16635b16ebb7836040518263ffffffff1660e01b8152600401615c129190617a13565b602060405180830381600087803b158015615c2c57600080fd5b505af1158015615c40573d6000803e3d6000fd5b505050506040513d601f19601f82011682018060405250810190615c6491906174ed565b151514615ca6576040517f08c379a0000000000000000000000000000000000000000000000000000000008152600401615c9d90617ad2565b60405180910390fd5b615cd17f00000000000000000000000000000000000000000000000000000000000000008783616930565b60008073ffffffffffffffffffffffffffffffffffffffff168673ffffffffffffffffffffffffffffffffffffffff1614615de6576000808373ffffffffffffffffffffffffffffffffffffffff16632783e4a989896040518363ffffffff1660e01b8152600401615d44929190617a2e565b6040805180830381600087803b158015615d5d57600080fd5b505af1158015615d71573d6000803e3d6000fd5b505050506040513d601f19601f82011682018060405250810190615d9591906177a8565b9150915085821015615ddc576040517f08c379a0000000000000000000000000000000000000000000000000000000008152600401615dd390617b32565b60405180910390fd5b8092505050615eed565b6000808373ffffffffffffffffffffffffffffffffffffffff16632783e4a97f0000000000000000000000000000000000000000000000000000000000000000306040518363ffffffff1660e01b8152600401615e44929190617a2e565b6040805180830381600087803b158015615e5d57600080fd5b505af1158015615e71573d6000803e3d6000fd5b505050506040513d601f19601f82011682018060405250810190615e9591906177a8565b9150915085821015615edc576040517f08c379a0000000000000000000000000000000000000000000000000000000008152600401615ed390617b32565b60405180910390fd5b615ee7888389615fae565b80925050505b615ef682616252565b615f0082826167f5565b50505050505050565b60007f000000000000000000000000000000000000000000000000000000000000000073ffffffffffffffffffffffffffffffffffffffff166398fabd3a6040518163ffffffff1660e01b815260040160206040518083038186803b158015615f7157600080fd5b505afa158015615f85573d6000803e3d6000fd5b505050506040513d601f19601f82011682018060405250810190615fa99190617516565b905090565b60026000541415615ff4576040517f08c379a0000000000000000000000000000000000000000000000000000000008152600401615feb90617bb2565b60405180910390fd5b6002600081905550600082111561624557600073ffffffffffffffffffffffffffffffffffffffff168373ffffffffffffffffffffffffffffffffffffffff161415616177577f000000000000000000000000000000000000000000000000000000000000000073ffffffffffffffffffffffffffffffffffffffff16632e1a7d4d836040518263ffffffff1660e01b81526004016160939190617bd2565b600060405180830381600087803b1580156160ad57600080fd5b505af11580156160c1573d6000803e3d6000fd5b5050505060008173ffffffffffffffffffffffffffffffffffffffff16836040516160eb906179fe565b60006040518083038185875af1925050503d8060008114616128576040519150601f19603f3d011682016040523d82523d6000602084013e61612d565b606091505b5050905080616171576040517f08c379a000000000000000000000000000000000000000000000000000000000815260040161616890617af2565b60405180910390fd5b50616244565b8273ffffffffffffffffffffffffffffffffffffffff1663a9059cbb82846040518363ffffffff1660e01b81526004016161b2929190617a8e565b602060405180830381600087803b1580156161cc57600080fd5b505af11580156161e0573d6000803e3d6000fd5b505050506040513d601f19601f8201168201806040525081019061620491906174ed565b616243576040517f08c379a000000000000000000000000000000000000000000000000000000000815260040161623a90617b52565b60405180910390fd5b5b5b6001600081905550505050565b61625a615f09565b73ffffffffffffffffffffffffffffffffffffffff1663b99b0a0c6040518163ffffffff1660e01b815260040160206040518083038186803b15801561629f57600080fd5b505afa1580156162b3573d6000803e3d6000fd5b505050506040513d601f19601f820116820180604052508101906162d79190617483565b73ffffffffffffffffffffffffffffffffffffffff16638dcb4c93826040518263ffffffff1660e01b815260040161630f9190617a13565b60206040518083038186803b15801561632757600080fd5b505afa15801561633b573d6000803e3d6000fd5b505050506040513d601f19601f8201168201806040525081019061635f91906174ed565b156167f2578073ffffffffffffffffffffffffffffffffffffffff166362a5af3b6040518163ffffffff1660e01b815260040160206040518083038186803b1580156163aa57600080fd5b505afa1580156163be573d6000803e3d6000fd5b505050506040513d601f19601f820116820180604052508101906163e291906174ed565b156164d8576163ef615f09565b73ffffffffffffffffffffffffffffffffffffffff16639d2cc4366040518163ffffffff1660e01b815260040160206040518083038186803b15801561643457600080fd5b505afa158015616448573d6000803e3d6000fd5b505050506040513d601f19601f8201168201806040525081019061646c9190617483565b73ffffffffffffffffffffffffffffffffffffffff16637828c71760016040518263ffffffff1660e01b81526004016164a59190617ab7565b600060405180830381600087803b1580156164bf57600080fd5b505af11580156164d3573d6000803e3d6000fd5b505050505b6164e0615f09565b73ffffffffffffffffffffffffffffffffffffffff16639d2cc4366040518163ffffffff1660e01b815260040160206040518083038186803b15801561652557600080fd5b505afa158015616539573d6000803e3d6000fd5b505050506040513d601f19601f8201168201806040525081019061655d9190617483565b73ffffffffffffffffffffffffffffffffffffffff1663194e22ce6040518163ffffffff1660e01b8152600401602060405180830381600087803b1580156165a457600080fd5b505af11580156165b8573d6000803e3d6000fd5b505050506040513d601f19601f820116820180604052508101906165dc91906174ed565b156167f15760006165eb615f09565b73ffffffffffffffffffffffffffffffffffffffff16639d2cc4366040518163ffffffff1660e01b815260040160206040518083038186803b15801561663057600080fd5b505afa158015616644573d6000803e3d6000fd5b505050506040513d601f19601f820116820180604052508101906166689190617483565b73ffffffffffffffffffffffffffffffffffffffff1663fd7e1bee6040518163ffffffff1660e01b8152600401602060405180830381600087803b1580156166af57600080fd5b505af11580156166c3573d6000803e3d6000fd5b505050506040513d601f19601f820116820180604052508101906166e79190617568565b9050610e10816166f79190617cac565b4211156167ef57616706615f09565b73ffffffffffffffffffffffffffffffffffffffff16639d2cc4366040518163ffffffff1660e01b815260040160206040518083038186803b15801561674b57600080fd5b505afa15801561675f573d6000803e3d6000fd5b505050506040513d601f19601f820116820180604052508101906167839190617483565b73ffffffffffffffffffffffffffffffffffffffff16637828c71760006040518263ffffffff1660e01b81526004016167bc9190617ab7565b600060405180830381600087803b1580156167d657600080fd5b505af11580156167ea573d6000803e3d6000fd5b505050505b505b5b50565b670de0b6b3a76400008111801561691c575060011515616813615f09565b73ffffffffffffffffffffffffffffffffffffffff1663b99b0a0c6040518163ffffffff1660e01b815260040160206040518083038186803b15801561685857600080fd5b505afa15801561686c573d6000803e3d6000fd5b505050506040513d601f19601f820116820180604052508101906168909190617483565b73ffffffffffffffffffffffffffffffffffffffff16638dcb4c93846040518263ffffffff1660e01b81526004016168c89190617a13565b60206040518083038186803b1580156168e057600080fd5b505afa1580156168f4573d6000803e3d6000fd5b505050506040513d601f19601f8201168201806040525081019061691891906174ed565b1515145b1561692c5761692b8282616c5e565b5b5050565b60026000541415616976576040517f08c379a000000000000000000000000000000000000000000000000000000000815260040161696d90617bb2565b60405180910390fd5b6002600081905550600082116169c1576040517f08c379a00000000000000000000000000000000000000000000000000000000081526004016169b890617b92565b60405180910390fd5b600073ffffffffffffffffffffffffffffffffffffffff168373ffffffffffffffffffffffffffffffffffffffff161415616b8257348214616a0257600080fd5b60007f000000000000000000000000000000000000000000000000000000000000000073ffffffffffffffffffffffffffffffffffffffff1683604051616a48906179fe565b60006040518083038185875af1925050503d8060008114616a85576040519150601f19603f3d011682016040523d82523d6000602084013e616a8a565b606091505b5050905080616ace576040517f08c379a0000000000000000000000000000000000000000000000000000000008152600401616ac590617af2565b60405180910390fd5b7f000000000000000000000000000000000000000000000000000000000000000073ffffffffffffffffffffffffffffffffffffffff1663a9059cbb83856040518363ffffffff1660e01b8152600401616b29929190617a8e565b602060405180830381600087803b158015616b4357600080fd5b505af1158015616b57573d6000803e3d6000fd5b505050506040513d601f19601f82011682018060405250810190616b7b91906174ed565b5050616c51565b8273ffffffffffffffffffffffffffffffffffffffff166323b872dd3383856040518463ffffffff1660e01b8152600401616bbf93929190617a57565b602060405180830381600087803b158015616bd957600080fd5b505af1158015616bed573d6000803e3d6000fd5b505050506040513d601f19601f82011682018060405250810190616c1191906174ed565b616c50576040517f08c379a0000000000000000000000000000000000000000000000000000000008152600401616c4790617b52565b60405180910390fd5b5b6001600081905550505050565b60007f000000000000000000000000000000000000000000000000000000000000000073ffffffffffffffffffffffffffffffffffffffff166370a08231616ca4615f09565b73ffffffffffffffffffffffffffffffffffffffff16639d2cc4366040518163ffffffff1660e01b815260040160206040518083038186803b158015616ce957600080fd5b505afa158015616cfd573d6000803e3d6000fd5b505050506040513d601f19601f82011682018060405250810190616d219190617483565b6040518263ffffffff1660e01b8152600401616d3d9190617a13565b60206040518083038186803b158015616d5557600080fd5b505afa158015616d69573d6000803e3d6000fd5b505050506040513d601f19601f82011682018060405250810190616d8d9190617568565b90506000616d99615f09565b73ffffffffffffffffffffffffffffffffffffffff16639d2cc4366040518163ffffffff1660e01b815260040160206040518083038186803b158015616dde57600080fd5b505afa158015616df2573d6000803e3d6000fd5b505050506040513d601f19601f82011682018060405250810190616e169190617483565b73ffffffffffffffffffffffffffffffffffffffff16632267716c6040518163ffffffff1660e01b8152600401602060405180830381600087803b158015616e5d57600080fd5b505af1158015616e71573d6000803e3d6000fd5b505050506040513d601f19601f82011682018060405250810190616e9591906174ed565b9050600082118015616ea45750805b1561719b576000616eb3615f09565b73ffffffffffffffffffffffffffffffffffffffff1663b99b0a0c6040518163ffffffff1660e01b815260040160206040518083038186803b158015616ef857600080fd5b505afa158015616f0c573d6000803e3d6000fd5b505050506040513d601f19601f82011682018060405250810190616f309190617483565b73ffffffffffffffffffffffffffffffffffffffff16638bc51e366040518163ffffffff1660e01b815260040160206040518083038186803b158015616f7557600080fd5b505afa158015616f89573d6000803e3d6000fd5b505050506040513d601f19601f82011682018060405250810190616fad9190617568565b90506004548114616fc057806004819055505b60006127108260025486616fd49190617d33565b616fde9190617d02565b616fe89190617d02565b90508085600660008973ffffffffffffffffffffffffffffffffffffffff1673ffffffffffffffffffffffffffffffffffffffff168152602001908152602001600020546170369190617cac565b10156171985761704685876171a1565b61704e615f09565b73ffffffffffffffffffffffffffffffffffffffff16639d2cc4366040518163ffffffff1660e01b815260040160206040518083038186803b15801561709357600080fd5b505afa1580156170a7573d6000803e3d6000fd5b505050506040513d601f19601f820116820180604052508101906170cb9190617483565b73ffffffffffffffffffffffffffffffffffffffff16637d458baa86886040518363ffffffff1660e01b8152600401617105929190617bed565b600060405180830381600087803b15801561711f57600080fd5b505af1158015617133573d6000803e3d6000fd5b505050508573ffffffffffffffffffffffffffffffffffffffff1663fff6cae96040518163ffffffff1660e01b8152600401600060405180830381600087803b15801561717f57600080fd5b505af1158015617193573d6000803e3d6000fd5b505050505b50505b50505050565b600060035414156171b457426003819055505b62278d006003546171c59190617cac565b421161725e5781600660008373ffffffffffffffffffffffffffffffffffffffff1673ffffffffffffffffffffffffffffffffffffffff168152602001908152602001600020546172169190617cac565b600660008373ffffffffffffffffffffffffffffffffffffffff1673ffffffffffffffffffffffffffffffffffffffff1681526020019081526020016000208190555061732d565b42600381905550600660008273ffffffffffffffffffffffffffffffffffffffff1673ffffffffffffffffffffffffffffffffffffffff16815260200190815260200160002054600760008373ffffffffffffffffffffffffffffffffffffffff1673ffffffffffffffffffffffffffffffffffffffff1681526020019081526020016000208190555081600660008373ffffffffffffffffffffffffffffffffffffffff1673ffffffffffffffffffffffffffffffffffffffff168152602001908152602001600020819055505b5050565b600061734461733f84617c64565b617c3f565b9050808382526020820190508285602086028201111561736357600080fd5b60005b85811015617393578161737988826173b2565b845260208401935060208301925050600181019050617366565b5050509392505050565b6000813590506173ac8161804a565b92915050565b6000815190506173c18161804a565b92915050565b600082601f8301126173d857600080fd5b81516173e8848260208601617331565b91505092915050565b60008135905061740081618061565b92915050565b60008151905061741581618061565b92915050565b60008151905061742a81618078565b92915050565b60008135905061743f8161808f565b92915050565b6000815190506174548161808f565b92915050565b60006020828403121561746c57600080fd5b600061747a8482850161739d565b91505092915050565b60006020828403121561749557600080fd5b60006174a3848285016173b2565b91505092915050565b6000602082840312156174be57600080fd5b600082015167ffffffffffffffff8111156174d857600080fd5b6174e4848285016173c7565b91505092915050565b6000602082840312156174ff57600080fd5b600061750d84828501617406565b91505092915050565b60006020828403121561752857600080fd5b60006175368482850161741b565b91505092915050565b60006020828403121561755157600080fd5b600061755f84828501617430565b91505092915050565b60006020828403121561757a57600080fd5b600061758884828501617445565b91505092915050565b600080604083850312156175a457600080fd5b60006175b285828601617430565b92505060206175c38582860161739d565b9150509250929050565b6000806000606084860312156175e257600080fd5b60006175f086828701617430565b93505060206176018682870161739d565b92505060406176128682870161739d565b9150509250925092565b600080600080600060a0868803121561763457600080fd5b600061764288828901617430565b95505060206176538882890161739d565b94505060406176648882890161739d565b93505060606176758882890161739d565b925050608061768688828901617430565b9150509295509295909350565b600080600080608085870312156176a957600080fd5b60006176b787828801617430565b94505060206176c88782880161739d565b93505060406176d98782880161739d565b92505060606176ea87828801617430565b91505092959194509250565b60008060006060848603121561770b57600080fd5b600061771986828701617430565b935050602061772a868287016173f1565b925050604061773b8682870161739d565b9150509250925092565b6000806000806080858703121561775b57600080fd5b600061776987828801617430565b945050602061777a878288016173f1565b935050604061778b8782880161739d565b925050606061779c8782880161739d565b91505092959194509250565b600080604083850312156177bb57600080fd5b60006177c985828601617445565b92505060206177da85828601617445565b9150509250929050565b6000806000606084860312156177f957600080fd5b600061780786828701617430565b935050602061781886828701617430565b92505060406178298682870161739d565b9150509250925092565b6000806000806080858703121561784957600080fd5b600061785787828801617430565b945050602061786887828801617430565b93505060406178798782880161739d565b925050606061788a8782880161739d565b91505092959194509250565b61789f81617d8d565b82525050565b6178ae81617d9f565b82525050565b60006178c1600583617c9b565b91506178cc82617eff565b602082019050919050565b60006178e4600583617c9b565b91506178ef82617f28565b602082019050919050565b6000617907600683617c9b565b915061791282617f51565b602082019050919050565b600061792a600583617c9b565b915061793582617f7a565b602082019050919050565b600061794d600983617c9b565b915061795882617fa3565b602082019050919050565b6000617970600083617c90565b915061797b82617fcc565b600082019050919050565b6000617993600583617c9b565b915061799e82617fcf565b602082019050919050565b60006179b6600483617c9b565b91506179c182617ff8565b602082019050919050565b60006179d9601f83617c9b565b91506179e482618021565b602082019050919050565b6179f881617ddd565b82525050565b6000617a0982617963565b9150819050919050565b6000602082019050617a286000830184617896565b92915050565b6000604082019050617a436000830185617896565b617a506020830184617896565b9392505050565b6000606082019050617a6c6000830186617896565b617a796020830185617896565b617a8660408301846179ef565b949350505050565b6000604082019050617aa36000830185617896565b617ab060208301846179ef565b9392505050565b6000602082019050617acc60008301846178a5565b92915050565b60006020820190508181036000830152617aeb816178b4565b9050919050565b60006020820190508181036000830152617b0b816178d7565b9050919050565b60006020820190508181036000830152617b2b816178fa565b9050919050565b60006020820190508181036000830152617b4b8161791d565b9050919050565b60006020820190508181036000830152617b6b81617940565b9050919050565b60006020820190508181036000830152617b8b81617986565b9050919050565b60006020820190508181036000830152617bab816179a9565b9050919050565b60006020820190508181036000830152617bcb816179cc565b9050919050565b6000602082019050617be760008301846179ef565b92915050565b6000604082019050617c0260008301856179ef565b617c0f6020830184617896565b9392505050565b6000604082019050617c2b60008301856179ef565b617c3860208301846179ef565b9392505050565b6000617c49617c5a565b9050617c558282617de7565b919050565b6000604051905090565b600067ffffffffffffffff821115617c7f57617c7e617ebf565b5b602082029050602081019050919050565b600081905092915050565b600082825260208201905092915050565b6000617cb782617ddd565b9150617cc283617ddd565b9250827fffffffffffffffffffffffffffffffffffffffffffffffffffffffffffffffff03821115617cf757617cf6617e61565b5b828201905092915050565b6000617d0d82617ddd565b9150617d1883617ddd565b925082617d2857617d27617e90565b5b828204905092915050565b6000617d3e82617ddd565b9150617d4983617ddd565b9250817fffffffffffffffffffffffffffffffffffffffffffffffffffffffffffffffff0483118215151615617d8257617d81617e61565b5b828202905092915050565b6000617d9882617dbd565b9050919050565b60008115159050919050565b6000617db682617d8d565b9050919050565b600073ffffffffffffffffffffffffffffffffffffffff82169050919050565b6000819050919050565b617df082617eee565b810181811067ffffffffffffffff82111715617e0f57617e0e617ebf565b5b80604052505050565b6000617e2382617ddd565b91507fffffffffffffffffffffffffffffffffffffffffffffffffffffffffffffffff821415617e5657617e55617e61565b5b600182019050919050565b7f4e487b7100000000000000000000000000000000000000000000000000000000600052601160045260246000fd5b7f4e487b7100000000000000000000000000000000000000000000000000000000600052601260045260246000fd5b7f4e487b7100000000000000000000000000000000000000000000000000000000600052604160045260246000fd5b6000601f19601f8301169050919050565b7f21504f4f4c000000000000000000000000000000000000000000000000000000600082015250565b7f2173656e64000000000000000000000000000000000000000000000000000000600082015250565b7f2156414c49440000000000000000000000000000000000000000000000000000600082015250565b7f2152415445000000000000000000000000000000000000000000000000000000600082015250565b7f217472616e736665720000000000000000000000000000000000000000000000600082015250565b50565b7f2153414645000000000000000000000000000000000000000000000000000000600082015250565b7f2147415300000000000000000000000000000000000000000000000000000000600082015250565b7f5265656e7472616e637947756172643a207265656e7472616e742063616c6c00600082015250565b61805381617d8d565b811461805e57600080fd5b50565b61806a81617d9f565b811461807557600080fd5b50565b61808181617dab565b811461808c57600080fd5b50565b61809881617ddd565b81146180a357600080fd5b5056fea2646970667358221220894c48bc768a4b3bb09c861dc7de4f86e81a7f4f0a09c136e2a72d51721679a064736f6c63430008030033",
  "linkReferences": {},
  "deployedLinkReferences": {}
}