{
  "_format": "hh-sol-artifact-1",
  "contractName": "Router",
  "sourceName": "contracts/Router.sol",
  "abi": [
    {
      "inputs": [
        {
          "internalType": "address",
          "name": "_base",
          "type": "address"
        },
        {
          "internalType": "address",
          "name": "_wbnb",
          "type": "address"
        }
      ],
      "stateMutability": "nonpayable",
      "type": "constructor"
    },
    {
      "inputs": [
        {
          "internalType": "uint256",
          "name": "poolRTC",
          "type": "uint256"
        },
        {
          "internalType": "address",
          "name": "_pool",
          "type": "address"
        }
      ],
      "name": "RTC",
      "outputs": [],
      "stateMutability": "nonpayable",
      "type": "function"
    },
    {
      "inputs": [
        {
          "internalType": "uint256",
          "name": "inputToken",
          "type": "uint256"
        },
        {
          "internalType": "uint256",
          "name": "baseAmount",
          "type": "uint256"
        },
        {
          "internalType": "address",
          "name": "token",
          "type": "address"
        }
      ],
      "name": "addLiquidity",
      "outputs": [],
      "stateMutability": "payable",
      "type": "function"
    },
    {
      "inputs": [
        {
          "internalType": "uint256",
          "name": "input",
          "type": "uint256"
        },
        {
          "internalType": "bool",
          "name": "fromBase",
          "type": "bool"
        },
        {
          "internalType": "address",
          "name": "token",
          "type": "address"
        }
      ],
      "name": "addLiquidityAsym",
      "outputs": [],
      "stateMutability": "payable",
      "type": "function"
    },
    {
      "inputs": [
        {
          "internalType": "uint256",
          "name": "_input",
          "type": "uint256"
        },
        {
          "internalType": "bool",
          "name": "_fromBase",
          "type": "bool"
        },
        {
          "internalType": "address",
          "name": "token",
          "type": "address"
        },
        {
          "internalType": "address",
          "name": "_member",
          "type": "address"
        }
      ],
      "name": "addLiquidityAsymForMember",
      "outputs": [],
      "stateMutability": "payable",
      "type": "function"
    },
    {
      "inputs": [
        {
          "internalType": "uint256",
          "name": "inputToken",
          "type": "uint256"
        },
        {
          "internalType": "uint256",
          "name": "baseAmount",
          "type": "uint256"
        },
        {
          "internalType": "address",
          "name": "token",
          "type": "address"
        },
        {
          "internalType": "address",
          "name": "member",
          "type": "address"
        }
      ],
      "name": "addLiquidityForMember",
      "outputs": [
        {
          "internalType": "uint256",
          "name": "LPsMinted",
          "type": "uint256"
        }
      ],
      "stateMutability": "payable",
      "type": "function"
    },
    {
      "inputs": [
        {
          "internalType": "uint256",
          "name": "amount",
          "type": "uint256"
        },
        {
          "internalType": "address",
          "name": "token",
          "type": "address"
        },
        {
          "internalType": "address",
          "name": "member",
          "type": "address"
        },
        {
          "internalType": "uint256",
          "name": "minAmount",
          "type": "uint256"
        }
      ],
      "name": "buyTo",
      "outputs": [],
      "stateMutability": "nonpayable",
      "type": "function"
    },
    {
      "inputs": [
        {
          "internalType": "uint256",
          "name": "_newDiviClaim",
          "type": "uint256"
        }
      ],
      "name": "changeDiviClaim",
      "outputs": [],
      "stateMutability": "nonpayable",
      "type": "function"
    },
    {
      "inputs": [
        {
          "internalType": "uint256",
          "name": "synthCap",
          "type": "uint256"
        },
        {
          "internalType": "address",
          "name": "_pool",
          "type": "address"
        }
      ],
      "name": "changeSynthCap",
      "outputs": [],
      "stateMutability": "nonpayable",
      "type": "function"
    },
    {
      "inputs": [],
      "name": "diviClaim",
      "outputs": [
        {
          "internalType": "uint256",
          "name": "",
          "type": "uint256"
        }
      ],
      "stateMutability": "view",
      "type": "function"
    },
    {
      "inputs": [],
      "name": "flipSynthMinting",
      "outputs": [],
      "stateMutability": "nonpayable",
      "type": "function"
    },
    {
      "inputs": [],
      "name": "lastMonth",
      "outputs": [
        {
          "internalType": "uint256",
          "name": "",
          "type": "uint256"
        }
      ],
      "stateMutability": "view",
      "type": "function"
    },
    {
      "inputs": [
        {
          "internalType": "address",
          "name": "",
          "type": "address"
        }
      ],
      "name": "mapAddress_30DayDividends",
      "outputs": [
        {
          "internalType": "uint256",
          "name": "",
          "type": "uint256"
        }
      ],
      "stateMutability": "view",
      "type": "function"
    },
    {
      "inputs": [
        {
          "internalType": "address",
          "name": "",
          "type": "address"
        }
      ],
      "name": "mapAddress_Past30DayPoolDividends",
      "outputs": [
        {
          "internalType": "uint256",
          "name": "",
          "type": "uint256"
        }
      ],
      "stateMutability": "view",
      "type": "function"
    },
    {
      "inputs": [],
      "name": "purgeDeployer",
      "outputs": [],
      "stateMutability": "nonpayable",
      "type": "function"
    },
    {
      "inputs": [
        {
          "internalType": "uint256",
          "name": "units",
          "type": "uint256"
        },
        {
          "internalType": "address",
          "name": "token",
          "type": "address"
        }
      ],
      "name": "removeLiquidityExact",
      "outputs": [],
      "stateMutability": "nonpayable",
      "type": "function"
    },
    {
      "inputs": [
        {
          "internalType": "uint256",
          "name": "units",
          "type": "uint256"
        },
        {
          "internalType": "bool",
          "name": "toBase",
          "type": "bool"
        },
        {
          "internalType": "address",
          "name": "token",
          "type": "address"
        }
      ],
      "name": "removeLiquidityExactAsym",
      "outputs": [],
      "stateMutability": "nonpayable",
      "type": "function"
    },
    {
      "inputs": [
        {
          "internalType": "uint256",
          "name": "amount",
          "type": "uint256"
        },
        {
          "internalType": "address",
          "name": "token",
          "type": "address"
        },
        {
          "internalType": "address",
          "name": "member",
          "type": "address"
        },
        {
          "internalType": "uint256",
          "name": "minAmount",
          "type": "uint256"
        }
      ],
      "name": "sellTo",
      "outputs": [
        {
          "internalType": "uint256",
          "name": "",
          "type": "uint256"
        }
      ],
      "stateMutability": "payable",
      "type": "function"
    },
    {
      "inputs": [
        {
          "internalType": "uint256",
          "name": "inputAmount",
          "type": "uint256"
        },
        {
          "internalType": "address",
          "name": "fromToken",
          "type": "address"
        },
        {
          "internalType": "address",
          "name": "toToken",
          "type": "address"
        },
        {
          "internalType": "uint256",
          "name": "minAmount",
          "type": "uint256"
        }
      ],
      "name": "swap",
      "outputs": [],
      "stateMutability": "payable",
      "type": "function"
    },
    {
      "inputs": [
        {
          "internalType": "uint256",
          "name": "inputAmount",
          "type": "uint256"
        },
        {
          "internalType": "address",
          "name": "fromToken",
          "type": "address"
        },
        {
          "internalType": "address",
          "name": "toSynth",
          "type": "address"
        }
      ],
      "name": "swapAssetToSynth",
      "outputs": [],
      "stateMutability": "payable",
      "type": "function"
    },
    {
      "inputs": [
        {
          "internalType": "uint256",
          "name": "inputAmount",
          "type": "uint256"
        },
        {
          "internalType": "address",
          "name": "fromSynth",
          "type": "address"
        },
        {
          "internalType": "address",
          "name": "toToken",
          "type": "address"
        }
      ],
      "name": "swapSynthToAsset",
      "outputs": [],
      "stateMutability": "nonpayable",
      "type": "function"
    },
    {
      "inputs": [
        {
          "internalType": "uint256",
          "name": "inputAmount",
          "type": "uint256"
        },
        {
          "internalType": "address",
          "name": "fromToken",
          "type": "address"
        },
        {
          "internalType": "address",
          "name": "toToken",
          "type": "address"
        },
        {
          "internalType": "address",
          "name": "member",
          "type": "address"
        },
        {
          "internalType": "uint256",
          "name": "minAmount",
          "type": "uint256"
        }
      ],
      "name": "swapTo",
      "outputs": [],
      "stateMutability": "payable",
      "type": "function"
    },
    {
      "inputs": [],
      "name": "synthMinting",
      "outputs": [
        {
          "internalType": "bool",
          "name": "",
          "type": "bool"
        }
      ],
      "stateMutability": "view",
      "type": "function"
    },
    {
      "inputs": [],
      "name": "updatePoolStatus",
      "outputs": [],
      "stateMutability": "nonpayable",
      "type": "function"
    },
    {
      "inputs": [
        {
          "internalType": "uint256",
          "name": "unitsInput",
          "type": "uint256"
        },
        {
          "internalType": "address",
          "name": "fromPool",
          "type": "address"
        },
        {
          "internalType": "address",
          "name": "toPool",
          "type": "address"
        }
      ],
      "name": "zapLiquidity",
      "outputs": [],
      "stateMutability": "nonpayable",
      "type": "function"
    },
    {
      "stateMutability": "payable",
      "type": "receive"
    }
  ],
  "bytecode": "0x60c06040523480156200001157600080fd5b506040516200781438038062007814833981810160405281019062000037919062000130565b60016000819055508173ffffffffffffffffffffffffffffffffffffffff1660808173ffffffffffffffffffffffffffffffffffffffff1660601b815250508073ffffffffffffffffffffffffffffffffffffffff1660a08173ffffffffffffffffffffffffffffffffffffffff1660601b8152505060646002819055506000600560006101000a81548160ff02191690831515021790555033600160006101000a81548173ffffffffffffffffffffffffffffffffffffffff021916908373ffffffffffffffffffffffffffffffffffffffff1602179055505050620001bf565b6000815190506200012a81620001a5565b92915050565b600080604083850312156200014457600080fd5b6000620001548582860162000119565b9250506020620001678582860162000119565b9150509250929050565b60006200017e8262000185565b9050919050565b600073ffffffffffffffffffffffffffffffffffffffff82169050919050565b620001b08162000171565b8114620001bc57600080fd5b50565b60805160601c60a05160601c6175116200030360003960008181610c4d01528181611e4001528181612227015281816136160152818161477c01528181615119015281816155bd01528181615e240152615e4e015260008181610d2801528181610dc101528181610de301528181610e9901528181610ebb015281816114a00152818161150401528181611526015281816115dc01528181611a1401528181611b4601528181611bab015281816122540152818161227f0152818161234401528181612365015281816124ea0152818161257f015281816125a001528181612b14015281816131820152818161345f0152818161348001528181613d9401528181613e2901528181613e4d01528181613f9601528181613fb8015281816146cf0152818161483501528181614fbd0152818161521f0152615fbd01526175116000f3fe60806040526004361061014f5760003560e01c8063940c4abc116100b6578063c8c1fb751161006f578063c8c1fb7514610403578063cbb3a14a1461042c578063dd845cb914610469578063ee85eda414610480578063f2db620d146104ab578063f48610f3146104c257610156565b8063940c4abc1461031657806399d786ca146103415780639ea5705a1461036c578063a1cd6aa514610395578063aa62519b146103be578063b45e1dbc146103da57610156565b8063451918db11610108578063451918db1461022c5780636325681e1461026957806370085be01461028557806387b21efc146102a15780638b697c20146102bd57806393cac685146102e657610156565b806303a821381461015b57806307f4d34c146101725780631e2dd5151461019b5780633173ec3c146101c4578063334ea133146101e05780633e384a951461021057610156565b3661015657005b600080fd5b34801561016757600080fd5b506101706104eb565b005b34801561017e57600080fd5b506101996004803603810190610194919061689a565b610643565b005b3480156101a757600080fd5b506101c260048036038101906101bd9190616a51565b6107b1565b005b6101de60048036038101906101d99190616928565b6110b2565b005b6101fa60048036038101906101f591906169ee565b611800565b6040516102079190616f80565b60405180910390f35b61022a60048036038101906102259190616977565b611b0b565b005b34801561023857600080fd5b50610253600480360381019061024e91906167b5565b611fec565b6040516102609190616f80565b60405180910390f35b610283600480360381019061027e9190616aa0565b612004565b005b61029f600480360381019061029a91906169ee565b61277f565b005b6102bb60048036038101906102b69190616b3f565b612792565b005b3480156102c957600080fd5b506102e460048036038101906102df91906168ec565b6127a4565b005b61030060048036038101906102fb9190616b8e565b612927565b60405161030d9190616f80565b60405180910390f35b34801561032257600080fd5b5061032b612be5565b6040516103389190616e45565b60405180910390f35b34801561034d57600080fd5b50610356612bf8565b6040516103639190616f80565b60405180910390f35b34801561037857600080fd5b50610393600480360381019061038e91906168ec565b612bfe565b005b3480156103a157600080fd5b506103bc60048036038101906103b79190616928565b612d81565b005b6103d860048036038101906103d39190616a51565b61383d565b005b3480156103e657600080fd5b5061040160048036038101906103fc9190616928565b61384e565b005b34801561040f57600080fd5b5061042a600480360381019061042591906168ec565b6141a6565b005b34801561043857600080fd5b50610453600480360381019061044e91906167b5565b614876565b6040516104609190616f80565b60405180910390f35b34801561047557600080fd5b5061047e61488e565b005b34801561048c57600080fd5b50610495614c8b565b6040516104a29190616f80565b60405180910390f35b3480156104b757600080fd5b506104c0614c91565b005b3480156104ce57600080fd5b506104e960048036038101906104e491906169ee565b614dd1565b005b6104f361521b565b73ffffffffffffffffffffffffffffffffffffffff166398fabd3a6040518163ffffffff1660e01b815260040160206040518083038186803b15801561053857600080fd5b505afa15801561054c573d6000803e3d6000fd5b505050506040513d601f19601f8201168201806040525081019061057091906167de565b73ffffffffffffffffffffffffffffffffffffffff163373ffffffffffffffffffffffffffffffffffffffff1614806105f65750600160009054906101000a900473ffffffffffffffffffffffffffffffffffffffff1673ffffffffffffffffffffffffffffffffffffffff163373ffffffffffffffffffffffffffffffffffffffff16145b6105ff57600080fd5b6000600160006101000a81548173ffffffffffffffffffffffffffffffffffffffff021916908373ffffffffffffffffffffffffffffffffffffffff160217905550565b61064b61521b565b73ffffffffffffffffffffffffffffffffffffffff166398fabd3a6040518163ffffffff1660e01b815260040160206040518083038186803b15801561069057600080fd5b505afa1580156106a4573d6000803e3d6000fd5b505050506040513d601f19601f820116820180604052508101906106c891906167de565b73ffffffffffffffffffffffffffffffffffffffff163373ffffffffffffffffffffffffffffffffffffffff16148061074e5750600160009054906101000a900473ffffffffffffffffffffffffffffffffffffffff1673ffffffffffffffffffffffffffffffffffffffff163373ffffffffffffffffffffffffffffffffffffffff16145b61075757600080fd5b600081118015610768575061138881105b6107a7576040517f08c379a000000000000000000000000000000000000000000000000000000000815260040161079e90616ea0565b60405180910390fd5b8060028190555050565b600260005414156107f7576040517f08c379a00000000000000000000000000000000000000000000000000000000081526004016107ee90616f60565b60405180910390fd5b600260008190555060008311610842576040517f08c379a000000000000000000000000000000000000000000000000000000000815260040161083990616ea0565b60405180910390fd5b6001151561084e61521b565b73ffffffffffffffffffffffffffffffffffffffff16639d2cc4366040518163ffffffff1660e01b815260040160206040518083038186803b15801561089357600080fd5b505afa1580156108a7573d6000803e3d6000fd5b505050506040513d601f19601f820116820180604052508101906108cb91906167de565b73ffffffffffffffffffffffffffffffffffffffff1663194e22ce6040518163ffffffff1660e01b8152600401602060405180830381600087803b15801561091257600080fd5b505af1158015610926573d6000803e3d6000fd5b505050506040513d601f19601f8201168201806040525081019061094a9190616848565b1515141561098d576040517f08c379a000000000000000000000000000000000000000000000000000000000815260040161098490616f00565b60405180910390fd5b600061099761521b565b73ffffffffffffffffffffffffffffffffffffffff1663b99b0a0c6040518163ffffffff1660e01b815260040160206040518083038186803b1580156109dc57600080fd5b505afa1580156109f0573d6000803e3d6000fd5b505050506040513d601f19601f82011682018060405250810190610a1491906167de565b905060008173ffffffffffffffffffffffffffffffffffffffff1663bbe4f6db846040518263ffffffff1660e01b8152600401610a519190616da1565b60206040518083038186803b158015610a6957600080fd5b505afa158015610a7d573d6000803e3d6000fd5b505050506040513d601f19601f82011682018060405250810190610aa191906167de565b9050600115158273ffffffffffffffffffffffffffffffffffffffff16635b16ebb7836040518263ffffffff1660e01b8152600401610ae09190616da1565b602060405180830381600087803b158015610afa57600080fd5b505af1158015610b0e573d6000803e3d6000fd5b505050506040513d601f19601f82011682018060405250810190610b329190616848565b151514610b74576040517f08c379a0000000000000000000000000000000000000000000000000000000008152600401610b6b90616e60565b60405180910390fd5b6000339050610b85828284896152c0565b8173ffffffffffffffffffffffffffffffffffffffff1663bc5dedc9306040518263ffffffff1660e01b8152600401610bbe9190616da1565b6040805180830381600087803b158015610bd757600080fd5b505af1158015610beb573d6000803e3d6000fd5b505050506040513d601f19601f82011682018060405250810190610c0f9190616b03565b50506000849050600073ffffffffffffffffffffffffffffffffffffffff168573ffffffffffffffffffffffffffffffffffffffff161415610c6f577f000000000000000000000000000000000000000000000000000000000000000090505b60008615610e9457610d0a82858473ffffffffffffffffffffffffffffffffffffffff166370a08231306040518263ffffffff1660e01b8152600401610cb59190616da1565b60206040518083038186803b158015610ccd57600080fd5b505afa158015610ce1573d6000803e3d6000fd5b505050506040513d601f19601f82011682018060405250810190610d0591906168c3565b6153f9565b8373ffffffffffffffffffffffffffffffffffffffff16632783e4a97f0000000000000000000000000000000000000000000000000000000000000000306040518363ffffffff1660e01b8152600401610d65929190616dbc565b6040805180830381600087803b158015610d7e57600080fd5b505af1158015610d92573d6000803e3d6000fd5b505050506040513d601f19601f82011682018060405250810190610db69190616b03565b905080915050610e8f7f0000000000000000000000000000000000000000000000000000000000000000847f000000000000000000000000000000000000000000000000000000000000000073ffffffffffffffffffffffffffffffffffffffff166370a08231306040518263ffffffff1660e01b8152600401610e3a9190616da1565b60206040518083038186803b158015610e5257600080fd5b505afa158015610e66573d6000803e3d6000fd5b505050506040513d601f19601f82011682018060405250810190610e8a91906168c3565b6153f9565b61108d565b610f677f0000000000000000000000000000000000000000000000000000000000000000857f000000000000000000000000000000000000000000000000000000000000000073ffffffffffffffffffffffffffffffffffffffff166370a08231306040518263ffffffff1660e01b8152600401610f129190616da1565b60206040518083038186803b158015610f2a57600080fd5b505afa158015610f3e573d6000803e3d6000fd5b505050506040513d601f19601f82011682018060405250810190610f6291906168c3565b6153f9565b8373ffffffffffffffffffffffffffffffffffffffff16632783e4a983306040518363ffffffff1660e01b8152600401610fa2929190616dbc565b6040805180830381600087803b158015610fbb57600080fd5b505af1158015610fcf573d6000803e3d6000fd5b505050506040513d601f19601f82011682018060405250810190610ff39190616b03565b90508091505061108c868373ffffffffffffffffffffffffffffffffffffffff166370a08231306040518263ffffffff1660e01b81526004016110369190616da1565b60206040518083038186803b15801561104e57600080fd5b505afa158015611062573d6000803e3d6000fd5b505050506040513d601f19601f8201168201806040525081019061108691906168c3565b8561552f565b5b6110968461566f565b6110a08482615c12565b50505050506001600081905550505050565b600260005414156110f8576040517f08c379a00000000000000000000000000000000000000000000000000000000081526004016110ef90616f60565b60405180910390fd5b600260008190555060008311611143576040517f08c379a000000000000000000000000000000000000000000000000000000000815260040161113a90616ea0565b60405180910390fd5b8073ffffffffffffffffffffffffffffffffffffffff168273ffffffffffffffffffffffffffffffffffffffff16141561117c57600080fd5b6001151561118861521b565b73ffffffffffffffffffffffffffffffffffffffff16639d2cc4366040518163ffffffff1660e01b815260040160206040518083038186803b1580156111cd57600080fd5b505afa1580156111e1573d6000803e3d6000fd5b505050506040513d601f19601f8201168201806040525081019061120591906167de565b73ffffffffffffffffffffffffffffffffffffffff1663194e22ce6040518163ffffffff1660e01b8152600401602060405180830381600087803b15801561124c57600080fd5b505af1158015611260573d6000803e3d6000fd5b505050506040513d601f19601f820116820180604052508101906112849190616848565b151514156112c7576040517f08c379a00000000000000000000000000000000000000000000000000000000081526004016112be90616f00565b60405180910390fd5b60008173ffffffffffffffffffffffffffffffffffffffff16637535d2466040518163ffffffff1660e01b815260040160206040518083038186803b15801561130f57600080fd5b505afa158015611323573d6000803e3d6000fd5b505050506040513d601f19601f8201168201806040525081019061134791906167de565b90506001151561135561521b565b73ffffffffffffffffffffffffffffffffffffffff1663b99b0a0c6040518163ffffffff1660e01b815260040160206040518083038186803b15801561139a57600080fd5b505afa1580156113ae573d6000803e3d6000fd5b505050506040513d601f19601f820116820180604052508101906113d291906167de565b73ffffffffffffffffffffffffffffffffffffffff16635b16ebb7836040518263ffffffff1660e01b815260040161140a9190616da1565b602060405180830381600087803b15801561142457600080fd5b505af1158015611438573d6000803e3d6000fd5b505050506040513d601f19601f8201168201806040525081019061145c9190616848565b15151461149e576040517f08c379a000000000000000000000000000000000000000000000000000000000815260040161149590616e60565b60405180910390fd5b7f000000000000000000000000000000000000000000000000000000000000000073ffffffffffffffffffffffffffffffffffffffff168373ffffffffffffffffffffffffffffffffffffffff16146115d7576114fe8484306000611800565b506115d27f0000000000000000000000000000000000000000000000000000000000000000827f000000000000000000000000000000000000000000000000000000000000000073ffffffffffffffffffffffffffffffffffffffff166370a08231306040518263ffffffff1660e01b815260040161157d9190616da1565b60206040518083038186803b15801561159557600080fd5b505afa1580156115a9573d6000803e3d6000fd5b505050506040513d601f19601f820116820180604052508101906115cd91906168c3565b6153f9565b611604565b6116037f00000000000000000000000000000000000000000000000000000000000000003383876152c0565b5b60008173ffffffffffffffffffffffffffffffffffffffff1663f1bbdef2336040518263ffffffff1660e01b815260040161163f9190616da1565b6040805180830381600087803b15801561165857600080fd5b505af115801561166c573d6000803e3d6000fd5b505050506040513d601f19601f820116820180604052508101906116909190616b03565b91505061169c8261566f565b6116a68282615c12565b600115156116b261521b565b73ffffffffffffffffffffffffffffffffffffffff16639d2cc4366040518163ffffffff1660e01b815260040160206040518083038186803b1580156116f757600080fd5b505afa15801561170b573d6000803e3d6000fd5b505050506040513d601f19601f8201168201806040525081019061172f91906167de565b73ffffffffffffffffffffffffffffffffffffffff1663194e22ce6040518163ffffffff1660e01b8152600401602060405180830381600087803b15801561177657600080fd5b505af115801561178a573d6000803e3d6000fd5b505050506040513d601f19601f820116820180604052508101906117ae9190616848565b151514156117f1576040517f08c379a00000000000000000000000000000000000000000000000000000000081526004016117e890616f00565b60405180910390fd5b50506001600081905550505050565b60008061180b61521b565b73ffffffffffffffffffffffffffffffffffffffff1663b99b0a0c6040518163ffffffff1660e01b815260040160206040518083038186803b15801561185057600080fd5b505afa158015611864573d6000803e3d6000fd5b505050506040513d601f19601f8201168201806040525081019061188891906167de565b905060008173ffffffffffffffffffffffffffffffffffffffff1663bbe4f6db876040518263ffffffff1660e01b81526004016118c59190616da1565b60206040518083038186803b1580156118dd57600080fd5b505afa1580156118f1573d6000803e3d6000fd5b505050506040513d601f19601f8201168201806040525081019061191591906167de565b9050600115158273ffffffffffffffffffffffffffffffffffffffff16635b16ebb7836040518263ffffffff1660e01b81526004016119549190616da1565b602060405180830381600087803b15801561196e57600080fd5b505af1158015611982573d6000803e3d6000fd5b505050506040513d601f19601f820116820180604052508101906119a69190616848565b1515146119e8576040517f08c379a00000000000000000000000000000000000000000000000000000000081526004016119df90616e60565b60405180910390fd5b6119f3868883615d4d565b6000808273ffffffffffffffffffffffffffffffffffffffff16632783e4a97f0000000000000000000000000000000000000000000000000000000000000000896040518363ffffffff1660e01b8152600401611a51929190616dbc565b6040805180830381600087803b158015611a6a57600080fd5b505af1158015611a7e573d6000803e3d6000fd5b505050506040513d601f19601f82011682018060405250810190611aa29190616b03565b9150915085821015611ae9576040517f08c379a0000000000000000000000000000000000000000000000000000000008152600401611ae090616ec0565b60405180910390fd5b611af28361566f565b611afc8382615c12565b80945050505050949350505050565b8273ffffffffffffffffffffffffffffffffffffffff168473ffffffffffffffffffffffffffffffffffffffff161415611b4457600080fd5b7f000000000000000000000000000000000000000000000000000000000000000073ffffffffffffffffffffffffffffffffffffffff168473ffffffffffffffffffffffffffffffffffffffff161415611ba957611ba485848484614dd1565b611fe5565b7f000000000000000000000000000000000000000000000000000000000000000073ffffffffffffffffffffffffffffffffffffffff168373ffffffffffffffffffffffffffffffffffffffff161415611c0f57611c0985858484611800565b50611fe4565b6000611c1961521b565b73ffffffffffffffffffffffffffffffffffffffff1663b99b0a0c6040518163ffffffff1660e01b815260040160206040518083038186803b158015611c5e57600080fd5b505afa158015611c72573d6000803e3d6000fd5b505050506040513d601f19601f82011682018060405250810190611c9691906167de565b905060008173ffffffffffffffffffffffffffffffffffffffff1663bbe4f6db866040518263ffffffff1660e01b8152600401611cd39190616da1565b60206040518083038186803b158015611ceb57600080fd5b505afa158015611cff573d6000803e3d6000fd5b505050506040513d601f19601f82011682018060405250810190611d2391906167de565b9050600115158273ffffffffffffffffffffffffffffffffffffffff16635b16ebb7836040518263ffffffff1660e01b8152600401611d629190616da1565b602060405180830381600087803b158015611d7c57600080fd5b505af1158015611d90573d6000803e3d6000fd5b505050506040513d601f19601f82011682018060405250810190611db49190616848565b151514611df6576040517f08c379a0000000000000000000000000000000000000000000000000000000008152600401611ded90616e60565b60405180910390fd5b611e038787836000611800565b506000859050600073ffffffffffffffffffffffffffffffffffffffff168673ffffffffffffffffffffffffffffffffffffffff161415611e62577f000000000000000000000000000000000000000000000000000000000000000090505b6000808373ffffffffffffffffffffffffffffffffffffffff16632783e4a984306040518363ffffffff1660e01b8152600401611ea0929190616dbc565b6040805180830381600087803b158015611eb957600080fd5b505af1158015611ecd573d6000803e3d6000fd5b505050506040513d601f19601f82011682018060405250810190611ef19190616b03565b9150915085821015611f38576040517f08c379a0000000000000000000000000000000000000000000000000000000008152600401611f2f90616ec0565b60405180910390fd5b611f418461566f565b611f4b8482615c12565b611fde888473ffffffffffffffffffffffffffffffffffffffff166370a08231306040518263ffffffff1660e01b8152600401611f889190616da1565b60206040518083038186803b158015611fa057600080fd5b505afa158015611fb4573d6000803e3d6000fd5b505050506040513d601f19601f82011682018060405250810190611fd891906168c3565b8961552f565b50505050505b5b5050505050565b60076020528060005260406000206000915090505481565b600061200e61521b565b73ffffffffffffffffffffffffffffffffffffffff1663b99b0a0c6040518163ffffffff1660e01b815260040160206040518083038186803b15801561205357600080fd5b505afa158015612067573d6000803e3d6000fd5b505050506040513d601f19601f8201168201806040525081019061208b91906167de565b905060008173ffffffffffffffffffffffffffffffffffffffff1663bbe4f6db856040518263ffffffff1660e01b81526004016120c89190616da1565b60206040518083038186803b1580156120e057600080fd5b505afa1580156120f4573d6000803e3d6000fd5b505050506040513d601f19601f8201168201806040525081019061211891906167de565b9050600115158273ffffffffffffffffffffffffffffffffffffffff16635b16ebb7836040518263ffffffff1660e01b81526004016121579190616da1565b602060405180830381600087803b15801561217157600080fd5b505af1158015612185573d6000803e3d6000fd5b505050506040513d601f19601f820116820180604052508101906121a99190616848565b1515146121eb576040517f08c379a00000000000000000000000000000000000000000000000000000000081526004016121e290616e60565b60405180910390fd5b6000849050600073ffffffffffffffffffffffffffffffffffffffff168573ffffffffffffffffffffffffffffffffffffffff161415612249577f000000000000000000000000000000000000000000000000000000000000000090505b85156124aa5761227a7f00000000000000000000000000000000000000000000000000000000000000008830615d4d565b6122b17f00000000000000000000000000000000000000000000000000000000000000006002896122ab9190617092565b8461552f565b8173ffffffffffffffffffffffffffffffffffffffff16632783e4a982306040518363ffffffff1660e01b81526004016122ec929190616dbc565b6040805180830381600087803b15801561230557600080fd5b505af1158015612319573d6000803e3d6000fd5b505050506040513d601f19601f8201168201806040525081019061233d9190616b03565b50506124127f00000000000000000000000000000000000000000000000000000000000000007f000000000000000000000000000000000000000000000000000000000000000073ffffffffffffffffffffffffffffffffffffffff166370a08231306040518263ffffffff1660e01b81526004016123bc9190616da1565b60206040518083038186803b1580156123d457600080fd5b505afa1580156123e8573d6000803e3d6000fd5b505050506040513d601f19601f8201168201806040525081019061240c91906168c3565b8461552f565b6124a5818273ffffffffffffffffffffffffffffffffffffffff166370a08231306040518263ffffffff1660e01b815260040161244f9190616da1565b60206040518083038186803b15801561246757600080fd5b505afa15801561247b573d6000803e3d6000fd5b505050506040513d601f19601f8201168201806040525081019061249f91906168c3565b8461552f565b6126e1565b6124b5858830615d4d565b6124cc816002896124c69190617092565b8461552f565b8173ffffffffffffffffffffffffffffffffffffffff16632783e4a97f0000000000000000000000000000000000000000000000000000000000000000306040518363ffffffff1660e01b8152600401612527929190616dbc565b6040805180830381600087803b15801561254057600080fd5b505af1158015612554573d6000803e3d6000fd5b505050506040513d601f19601f820116820180604052508101906125789190616b03565b505061264d7f00000000000000000000000000000000000000000000000000000000000000007f000000000000000000000000000000000000000000000000000000000000000073ffffffffffffffffffffffffffffffffffffffff166370a08231306040518263ffffffff1660e01b81526004016125f79190616da1565b60206040518083038186803b15801561260f57600080fd5b505afa158015612623573d6000803e3d6000fd5b505050506040513d601f19601f8201168201806040525081019061264791906168c3565b8461552f565b6126e0818273ffffffffffffffffffffffffffffffffffffffff166370a08231306040518263ffffffff1660e01b815260040161268a9190616da1565b60206040518083038186803b1580156126a257600080fd5b505afa1580156126b6573d6000803e3d6000fd5b505050506040513d601f19601f820116820180604052508101906126da91906168c3565b8461552f565b5b8173ffffffffffffffffffffffffffffffffffffffff166386d5f618856040518263ffffffff1660e01b815260040161271a9190616da1565b602060405180830381600087803b15801561273457600080fd5b505af1158015612748573d6000803e3d6000fd5b505050506040513d601f19601f8201168201806040525081019061276c91906168c3565b506127768261566f565b50505050505050565b61278c8484843385611b0b565b50505050565b61279e83838333612927565b50505050565b6127ac61521b565b73ffffffffffffffffffffffffffffffffffffffff166398fabd3a6040518163ffffffff1660e01b815260040160206040518083038186803b1580156127f157600080fd5b505afa158015612805573d6000803e3d6000fd5b505050506040513d601f19601f8201168201806040525081019061282991906167de565b73ffffffffffffffffffffffffffffffffffffffff163373ffffffffffffffffffffffffffffffffffffffff1614806128af5750600160009054906101000a900473ffffffffffffffffffffffffffffffffffffffff1673ffffffffffffffffffffffffffffffffffffffff163373ffffffffffffffffffffffffffffffffffffffff16145b6128b857600080fd5b8073ffffffffffffffffffffffffffffffffffffffff16637ec3eae5836040518263ffffffff1660e01b81526004016128f19190616f80565b600060405180830381600087803b15801561290b57600080fd5b505af115801561291f573d6000803e3d6000fd5b505050505050565b60008061293261521b565b73ffffffffffffffffffffffffffffffffffffffff1663b99b0a0c6040518163ffffffff1660e01b815260040160206040518083038186803b15801561297757600080fd5b505afa15801561298b573d6000803e3d6000fd5b505050506040513d601f19601f820116820180604052508101906129af91906167de565b905060008173ffffffffffffffffffffffffffffffffffffffff1663bbe4f6db866040518263ffffffff1660e01b81526004016129ec9190616da1565b60206040518083038186803b158015612a0457600080fd5b505afa158015612a18573d6000803e3d6000fd5b505050506040513d601f19601f82011682018060405250810190612a3c91906167de565b9050600115158273ffffffffffffffffffffffffffffffffffffffff16635b16ebb7836040518263ffffffff1660e01b8152600401612a7b9190616da1565b602060405180830381600087803b158015612a9557600080fd5b505af1158015612aa9573d6000803e3d6000fd5b505050506040513d601f19601f82011682018060405250810190612acd9190616848565b151514612b0f576040517f08c379a0000000000000000000000000000000000000000000000000000000008152600401612b0690616e60565b60405180910390fd5b612b3a7f00000000000000000000000000000000000000000000000000000000000000008783615d4d565b612b45858883615d4d565b8073ffffffffffffffffffffffffffffffffffffffff166386d5f618856040518263ffffffff1660e01b8152600401612b7e9190616da1565b602060405180830381600087803b158015612b9857600080fd5b505af1158015612bac573d6000803e3d6000fd5b505050506040513d601f19601f82011682018060405250810190612bd091906168c3565b9250612bdb8161566f565b5050949350505050565b600560009054906101000a900460ff1681565b60035481565b612c0661521b565b73ffffffffffffffffffffffffffffffffffffffff166398fabd3a6040518163ffffffff1660e01b815260040160206040518083038186803b158015612c4b57600080fd5b505afa158015612c5f573d6000803e3d6000fd5b505050506040513d601f19601f82011682018060405250810190612c8391906167de565b73ffffffffffffffffffffffffffffffffffffffff163373ffffffffffffffffffffffffffffffffffffffff161480612d095750600160009054906101000a900473ffffffffffffffffffffffffffffffffffffffff1673ffffffffffffffffffffffffffffffffffffffff163373ffffffffffffffffffffffffffffffffffffffff16145b612d1257600080fd5b8073ffffffffffffffffffffffffffffffffffffffff1663474e7302836040518263ffffffff1660e01b8152600401612d4b9190616f80565b600060405180830381600087803b158015612d6557600080fd5b505af1158015612d79573d6000803e3d6000fd5b505050505050565b60026000541415612dc7576040517f08c379a0000000000000000000000000000000000000000000000000000000008152600401612dbe90616f60565b60405180910390fd5b600260008190555060008311612e12576040517f08c379a0000000000000000000000000000000000000000000000000000000008152600401612e0990616ea0565b60405180910390fd5b8073ffffffffffffffffffffffffffffffffffffffff168273ffffffffffffffffffffffffffffffffffffffff161415612e4b57600080fd5b60011515612e5761521b565b73ffffffffffffffffffffffffffffffffffffffff16639d2cc4366040518163ffffffff1660e01b815260040160206040518083038186803b158015612e9c57600080fd5b505afa158015612eb0573d6000803e3d6000fd5b505050506040513d601f19601f82011682018060405250810190612ed491906167de565b73ffffffffffffffffffffffffffffffffffffffff1663194e22ce6040518163ffffffff1660e01b8152600401602060405180830381600087803b158015612f1b57600080fd5b505af1158015612f2f573d6000803e3d6000fd5b505050506040513d601f19601f82011682018060405250810190612f539190616848565b15151415612f96576040517f08c379a0000000000000000000000000000000000000000000000000000000008152600401612f8d90616f00565b60405180910390fd5b6000612fa061521b565b73ffffffffffffffffffffffffffffffffffffffff1663b99b0a0c6040518163ffffffff1660e01b815260040160206040518083038186803b158015612fe557600080fd5b505afa158015612ff9573d6000803e3d6000fd5b505050506040513d601f19601f8201168201806040525081019061301d91906167de565b905060008373ffffffffffffffffffffffffffffffffffffffff16637535d2466040518163ffffffff1660e01b815260040160206040518083038186803b15801561306757600080fd5b505afa15801561307b573d6000803e3d6000fd5b505050506040513d601f19601f8201168201806040525081019061309f91906167de565b9050600115158273ffffffffffffffffffffffffffffffffffffffff16635b16ebb7836040518263ffffffff1660e01b81526004016130de9190616da1565b602060405180830381600087803b1580156130f857600080fd5b505af115801561310c573d6000803e3d6000fd5b505050506040513d601f19601f820116820180604052508101906131309190616848565b151514613172576040517f08c379a000000000000000000000000000000000000000000000000000000000815260040161316990616e60565b60405180910390fd5b61317e843383886152c0565b60007f000000000000000000000000000000000000000000000000000000000000000073ffffffffffffffffffffffffffffffffffffffff168473ffffffffffffffffffffffffffffffffffffffff161415613269578173ffffffffffffffffffffffffffffffffffffffff1663dbfc5a04336040518263ffffffff1660e01b815260040161320d9190616da1565b6040805180830381600087803b15801561322657600080fd5b505af115801561323a573d6000803e3d6000fd5b505050506040513d601f19601f8201168201806040525081019061325e9190616b03565b9050809150506136cf565b60008373ffffffffffffffffffffffffffffffffffffffff1663bbe4f6db866040518263ffffffff1660e01b81526004016132a49190616da1565b60206040518083038186803b1580156132bc57600080fd5b505afa1580156132d0573d6000803e3d6000fd5b505050506040513d601f19601f820116820180604052508101906132f491906167de565b9050600115158473ffffffffffffffffffffffffffffffffffffffff16635b16ebb7836040518263ffffffff1660e01b81526004016133339190616da1565b602060405180830381600087803b15801561334d57600080fd5b505af1158015613361573d6000803e3d6000fd5b505050506040513d601f19601f820116820180604052508101906133859190616848565b1515146133c7576040517f08c379a00000000000000000000000000000000000000000000000000000000081526004016133be90616e60565b60405180910390fd5b6000808473ffffffffffffffffffffffffffffffffffffffff1663dbfc5a04306040518263ffffffff1660e01b81526004016134039190616da1565b6040805180830381600087803b15801561341c57600080fd5b505af1158015613430573d6000803e3d6000fd5b505050506040513d601f19601f820116820180604052508101906134549190616b03565b90508094505061352d7f00000000000000000000000000000000000000000000000000000000000000007f000000000000000000000000000000000000000000000000000000000000000073ffffffffffffffffffffffffffffffffffffffff166370a08231306040518263ffffffff1660e01b81526004016134d79190616da1565b60206040518083038186803b1580156134ef57600080fd5b505afa158015613503573d6000803e3d6000fd5b505050506040513d601f19601f8201168201806040525081019061352791906168c3565b8561552f565b600073ffffffffffffffffffffffffffffffffffffffff168773ffffffffffffffffffffffffffffffffffffffff16146135f8578273ffffffffffffffffffffffffffffffffffffffff16632783e4a988336040518363ffffffff1660e01b815260040161359c929190616dbc565b6040805180830381600087803b1580156135b557600080fd5b505af11580156135c9573d6000803e3d6000fd5b505050506040513d601f19601f820116820180604052508101906135ed9190616b03565b9050809250506136b8565b8273ffffffffffffffffffffffffffffffffffffffff16632783e4a97f0000000000000000000000000000000000000000000000000000000000000000306040518363ffffffff1660e01b8152600401613653929190616dbc565b6040805180830381600087803b15801561366c57600080fd5b505af1158015613680573d6000803e3d6000fd5b505050506040513d601f19601f820116820180604052508101906136a49190616b03565b80935081925050506136b787823361552f565b5b6136c18361566f565b6136cb8383615c12565b5050505b6136d88261566f565b6136e28282615c12565b600115156136ee61521b565b73ffffffffffffffffffffffffffffffffffffffff16639d2cc4366040518163ffffffff1660e01b815260040160206040518083038186803b15801561373357600080fd5b505afa158015613747573d6000803e3d6000fd5b505050506040513d601f19601f8201168201806040525081019061376b91906167de565b73ffffffffffffffffffffffffffffffffffffffff1663194e22ce6040518163ffffffff1660e01b8152600401602060405180830381600087803b1580156137b257600080fd5b505af11580156137c6573d6000803e3d6000fd5b505050506040513d601f19601f820116820180604052508101906137ea9190616848565b1515141561382d576040517f08c379a000000000000000000000000000000000000000000000000000000000815260040161382490616f00565b60405180910390fd5b5050506001600081905550505050565b61384983838333612004565b505050565b60026000541415613894576040517f08c379a000000000000000000000000000000000000000000000000000000000815260040161388b90616f60565b60405180910390fd5b60026000819055508073ffffffffffffffffffffffffffffffffffffffff168273ffffffffffffffffffffffffffffffffffffffff16141580156138d85750600083115b613917576040517f08c379a000000000000000000000000000000000000000000000000000000000815260040161390e90616ea0565b60405180910390fd5b600061392161521b565b73ffffffffffffffffffffffffffffffffffffffff1663b99b0a0c6040518163ffffffff1660e01b815260040160206040518083038186803b15801561396657600080fd5b505afa15801561397a573d6000803e3d6000fd5b505050506040513d601f19601f8201168201806040525081019061399e91906167de565b9050600115158173ffffffffffffffffffffffffffffffffffffffff16635b16ebb7856040518263ffffffff1660e01b81526004016139dd9190616da1565b602060405180830381600087803b1580156139f757600080fd5b505af1158015613a0b573d6000803e3d6000fd5b505050506040513d601f19601f82011682018060405250810190613a2f9190616848565b151514613a71576040517f08c379a0000000000000000000000000000000000000000000000000000000008152600401613a6890616e60565b60405180910390fd5b600115158173ffffffffffffffffffffffffffffffffffffffff16635b16ebb7846040518263ffffffff1660e01b8152600401613aae9190616da1565b602060405180830381600087803b158015613ac857600080fd5b505af1158015613adc573d6000803e3d6000fd5b505050506040513d601f19601f82011682018060405250810190613b009190616848565b151514613b42576040517f08c379a0000000000000000000000000000000000000000000000000000000008152600401613b3990616e60565b60405180910390fd5b60008373ffffffffffffffffffffffffffffffffffffffff166382bfefc86040518163ffffffff1660e01b815260040160206040518083038186803b158015613b8a57600080fd5b505afa158015613b9e573d6000803e3d6000fd5b505050506040513d601f19601f82011682018060405250810190613bc291906167de565b905060008373ffffffffffffffffffffffffffffffffffffffff166382bfefc86040518163ffffffff1660e01b815260040160206040518083038186803b158015613c0c57600080fd5b505afa158015613c20573d6000803e3d6000fd5b505050506040513d601f19601f82011682018060405250810190613c4491906167de565b90506000339050613c578682888a6152c0565b8573ffffffffffffffffffffffffffffffffffffffff1663bc5dedc9306040518263ffffffff1660e01b8152600401613c909190616da1565b6040805180830381600087803b158015613ca957600080fd5b505af1158015613cbd573d6000803e3d6000fd5b505050506040513d601f19601f82011682018060405250810190613ce19190616b03565b5050613d7683878573ffffffffffffffffffffffffffffffffffffffff166370a08231306040518263ffffffff1660e01b8152600401613d219190616da1565b60206040518083038186803b158015613d3957600080fd5b505afa158015613d4d573d6000803e3d6000fd5b505050506040513d601f19601f82011682018060405250810190613d7191906168c3565b6153f9565b8573ffffffffffffffffffffffffffffffffffffffff16632783e4a97f0000000000000000000000000000000000000000000000000000000000000000306040518363ffffffff1660e01b8152600401613dd1929190616dbc565b6040805180830381600087803b158015613dea57600080fd5b505af1158015613dfe573d6000803e3d6000fd5b505050506040513d601f19601f82011682018060405250810190613e229190616b03565b5050613f037f00000000000000000000000000000000000000000000000000000000000000008660027f000000000000000000000000000000000000000000000000000000000000000073ffffffffffffffffffffffffffffffffffffffff166370a08231306040518263ffffffff1660e01b8152600401613ea49190616da1565b60206040518083038186803b158015613ebc57600080fd5b505afa158015613ed0573d6000803e3d6000fd5b505050506040513d601f19601f82011682018060405250810190613ef491906168c3565b613efe9190617092565b6153f9565b8473ffffffffffffffffffffffffffffffffffffffff16632783e4a983306040518363ffffffff1660e01b8152600401613f3e929190616dbc565b6040805180830381600087803b158015613f5757600080fd5b505af1158015613f6b573d6000803e3d6000fd5b505050506040513d601f19601f82011682018060405250810190613f8f9190616b03565b50506140647f0000000000000000000000000000000000000000000000000000000000000000867f000000000000000000000000000000000000000000000000000000000000000073ffffffffffffffffffffffffffffffffffffffff166370a08231306040518263ffffffff1660e01b815260040161400f9190616da1565b60206040518083038186803b15801561402757600080fd5b505afa15801561403b573d6000803e3d6000fd5b505050506040513d601f19601f8201168201806040525081019061405f91906168c3565b6153f9565b6140f782868473ffffffffffffffffffffffffffffffffffffffff166370a08231306040518263ffffffff1660e01b81526004016140a29190616da1565b60206040518083038186803b1580156140ba57600080fd5b505afa1580156140ce573d6000803e3d6000fd5b505050506040513d601f19601f820116820180604052508101906140f291906168c3565b6153f9565b8473ffffffffffffffffffffffffffffffffffffffff166386d5f618826040518263ffffffff1660e01b81526004016141309190616da1565b602060405180830381600087803b15801561414a57600080fd5b505af115801561415e573d6000803e3d6000fd5b505050506040513d601f19601f8201168201806040525081019061418291906168c3565b5061418c8661566f565b6141958561566f565b505050506001600081905550505050565b600260005414156141ec576040517f08c379a00000000000000000000000000000000000000000000000000000000081526004016141e390616f60565b60405180910390fd5b600260008190555060008211614237576040517f08c379a000000000000000000000000000000000000000000000000000000000815260040161422e90616ea0565b60405180910390fd5b600061424161521b565b73ffffffffffffffffffffffffffffffffffffffff1663b99b0a0c6040518163ffffffff1660e01b815260040160206040518083038186803b15801561428657600080fd5b505afa15801561429a573d6000803e3d6000fd5b505050506040513d601f19601f820116820180604052508101906142be91906167de565b9050600115156142cc61521b565b73ffffffffffffffffffffffffffffffffffffffff16639d2cc4366040518163ffffffff1660e01b815260040160206040518083038186803b15801561431157600080fd5b505afa158015614325573d6000803e3d6000fd5b505050506040513d601f19601f8201168201806040525081019061434991906167de565b73ffffffffffffffffffffffffffffffffffffffff1663194e22ce6040518163ffffffff1660e01b8152600401602060405180830381600087803b15801561439057600080fd5b505af11580156143a4573d6000803e3d6000fd5b505050506040513d601f19601f820116820180604052508101906143c89190616848565b1515141561440b576040517f08c379a000000000000000000000000000000000000000000000000000000000815260040161440290616f00565b60405180910390fd5b60008173ffffffffffffffffffffffffffffffffffffffff1663bbe4f6db846040518263ffffffff1660e01b81526004016144469190616da1565b60206040518083038186803b15801561445e57600080fd5b505afa158015614472573d6000803e3d6000fd5b505050506040513d601f19601f8201168201806040525081019061449691906167de565b9050600115158273ffffffffffffffffffffffffffffffffffffffff16635b16ebb7836040518263ffffffff1660e01b81526004016144d59190616da1565b602060405180830381600087803b1580156144ef57600080fd5b505af1158015614503573d6000803e3d6000fd5b505050506040513d601f19601f820116820180604052508101906145279190616848565b151514614569576040517f08c379a000000000000000000000000000000000000000000000000000000000815260040161456090616e60565b60405180910390fd5b600033905061457a828284886152c0565b600073ffffffffffffffffffffffffffffffffffffffff168473ffffffffffffffffffffffffffffffffffffffff161461463f578173ffffffffffffffffffffffffffffffffffffffff1663bc5dedc9826040518263ffffffff1660e01b81526004016145e79190616da1565b6040805180830381600087803b15801561460057600080fd5b505af1158015614614573d6000803e3d6000fd5b505050506040513d601f19601f820116820180604052508101906146389190616b03565b505061485e565b8173ffffffffffffffffffffffffffffffffffffffff1663bc5dedc9306040518263ffffffff1660e01b81526004016146789190616da1565b6040805180830381600087803b15801561469157600080fd5b505af11580156146a5573d6000803e3d6000fd5b505050506040513d601f19601f820116820180604052508101906146c99190616b03565b505060007f000000000000000000000000000000000000000000000000000000000000000073ffffffffffffffffffffffffffffffffffffffff166370a08231306040518263ffffffff1660e01b81526004016147269190616da1565b60206040518083038186803b15801561473e57600080fd5b505afa158015614752573d6000803e3d6000fd5b505050506040513d601f19601f8201168201806040525081019061477691906168c3565b905060007f000000000000000000000000000000000000000000000000000000000000000073ffffffffffffffffffffffffffffffffffffffff166370a08231306040518263ffffffff1660e01b81526004016147d39190616da1565b60206040518083038186803b1580156147eb57600080fd5b505afa1580156147ff573d6000803e3d6000fd5b505050506040513d601f19601f8201168201806040525081019061482391906168c3565b905061483086828561552f565b61485b7f0000000000000000000000000000000000000000000000000000000000000000838561552f565b50505b6148678261566f565b50505060016000819055505050565b60066020528060005260406000206000915090505481565b61489661521b565b73ffffffffffffffffffffffffffffffffffffffff16639d2cc4366040518163ffffffff1660e01b815260040160206040518083038186803b1580156148db57600080fd5b505afa1580156148ef573d6000803e3d6000fd5b505050506040513d601f19601f8201168201806040525081019061491391906167de565b73ffffffffffffffffffffffffffffffffffffffff1663194e22ce6040518163ffffffff1660e01b8152600401602060405180830381600087803b15801561495a57600080fd5b505af115801561496e573d6000803e3d6000fd5b505050506040513d601f19601f820116820180604052508101906149929190616848565b15614c895760006149a161521b565b73ffffffffffffffffffffffffffffffffffffffff1663b99b0a0c6040518163ffffffff1660e01b815260040160206040518083038186803b1580156149e657600080fd5b505afa1580156149fa573d6000803e3d6000fd5b505050506040513d601f19601f82011682018060405250810190614a1e91906167de565b73ffffffffffffffffffffffffffffffffffffffff1663abc764da6040518163ffffffff1660e01b815260040160006040518083038186803b158015614a6357600080fd5b505afa158015614a77573d6000803e3d6000fd5b505050506040513d6000823e3d601f19601f82011682018060405250810190614aa09190616807565b9050600080600090505b8251811015614b8e57828181518110614aec577f4e487b7100000000000000000000000000000000000000000000000000000000600052603260045260246000fd5b602002602001015173ffffffffffffffffffffffffffffffffffffffff166362a5af3b6040518163ffffffff1660e01b815260040160206040518083038186803b158015614b3957600080fd5b505afa158015614b4d573d6000803e3d6000fd5b505050506040513d601f19601f82011682018060405250810190614b719190616848565b15614b7b57600091505b8080614b86906171db565b915050614aaa565b508015614c8657614b9d61521b565b73ffffffffffffffffffffffffffffffffffffffff16639d2cc4366040518163ffffffff1660e01b815260040160206040518083038186803b158015614be257600080fd5b505afa158015614bf6573d6000803e3d6000fd5b505050506040513d601f19601f82011682018060405250810190614c1a91906167de565b73ffffffffffffffffffffffffffffffffffffffff16637828c71760006040518263ffffffff1660e01b8152600401614c539190616e45565b600060405180830381600087803b158015614c6d57600080fd5b505af1158015614c81573d6000803e3d6000fd5b505050505b50505b565b60025481565b614c9961521b565b73ffffffffffffffffffffffffffffffffffffffff166398fabd3a6040518163ffffffff1660e01b815260040160206040518083038186803b158015614cde57600080fd5b505afa158015614cf2573d6000803e3d6000fd5b505050506040513d601f19601f82011682018060405250810190614d1691906167de565b73ffffffffffffffffffffffffffffffffffffffff163373ffffffffffffffffffffffffffffffffffffffff161480614d9c5750600160009054906101000a900473ffffffffffffffffffffffffffffffffffffffff1673ffffffffffffffffffffffffffffffffffffffff163373ffffffffffffffffffffffffffffffffffffffff16145b614da557600080fd5b600560009054906101000a900460ff1615600560006101000a81548160ff021916908315150217905550565b6000614ddb61521b565b73ffffffffffffffffffffffffffffffffffffffff1663b99b0a0c6040518163ffffffff1660e01b815260040160206040518083038186803b158015614e2057600080fd5b505afa158015614e34573d6000803e3d6000fd5b505050506040513d601f19601f82011682018060405250810190614e5891906167de565b905060008173ffffffffffffffffffffffffffffffffffffffff1663bbe4f6db866040518263ffffffff1660e01b8152600401614e959190616da1565b60206040518083038186803b158015614ead57600080fd5b505afa158015614ec1573d6000803e3d6000fd5b505050506040513d601f19601f82011682018060405250810190614ee591906167de565b9050600115158273ffffffffffffffffffffffffffffffffffffffff16635b16ebb7836040518263ffffffff1660e01b8152600401614f249190616da1565b602060405180830381600087803b158015614f3e57600080fd5b505af1158015614f52573d6000803e3d6000fd5b505050506040513d601f19601f82011682018060405250810190614f769190616848565b151514614fb8576040517f08c379a0000000000000000000000000000000000000000000000000000000008152600401614faf90616e60565b60405180910390fd5b614fe37f00000000000000000000000000000000000000000000000000000000000000008783615d4d565b60008073ffffffffffffffffffffffffffffffffffffffff168673ffffffffffffffffffffffffffffffffffffffff16146150f8576000808373ffffffffffffffffffffffffffffffffffffffff16632783e4a989896040518363ffffffff1660e01b8152600401615056929190616dbc565b6040805180830381600087803b15801561506f57600080fd5b505af1158015615083573d6000803e3d6000fd5b505050506040513d601f19601f820116820180604052508101906150a79190616b03565b91509150858210156150ee576040517f08c379a00000000000000000000000000000000000000000000000000000000081526004016150e590616ec0565b60405180910390fd5b80925050506151ff565b6000808373ffffffffffffffffffffffffffffffffffffffff16632783e4a97f0000000000000000000000000000000000000000000000000000000000000000306040518363ffffffff1660e01b8152600401615156929190616dbc565b6040805180830381600087803b15801561516f57600080fd5b505af1158015615183573d6000803e3d6000fd5b505050506040513d601f19601f820116820180604052508101906151a79190616b03565b91509150858210156151ee576040517f08c379a00000000000000000000000000000000000000000000000000000000081526004016151e590616ec0565b60405180910390fd5b6151f988838961552f565b80925050505b6152088261566f565b6152128282615c12565b50505050505050565b60007f000000000000000000000000000000000000000000000000000000000000000073ffffffffffffffffffffffffffffffffffffffff166398fabd3a6040518163ffffffff1660e01b815260040160206040518083038186803b15801561528357600080fd5b505afa158015615297573d6000803e3d6000fd5b505050506040513d601f19601f820116820180604052508101906152bb9190616871565b905090565b6000808573ffffffffffffffffffffffffffffffffffffffff166323b872dd8686866040516024016152f493929190616de5565b6040516020818303038152906040529060e01b6020820180517bffffffffffffffffffffffffffffffffffffffffffffffffffffffff83818316178352505050506040516153429190616d8a565b6000604051808303816000865af19150503d806000811461537f576040519150601f19603f3d011682016040523d82523d6000602084013e615384565b606091505b50915091508180156153b257506000815114806153b15750808060200190518101906153b09190616848565b5b5b6153f1576040517f08c379a00000000000000000000000000000000000000000000000000000000081526004016153e890616f40565b60405180910390fd5b505050505050565b6000808473ffffffffffffffffffffffffffffffffffffffff1663a9059cbb858560405160240161542b929190616e1c565b6040516020818303038152906040529060e01b6020820180517bffffffffffffffffffffffffffffffffffffffffffffffffffffffff83818316178352505050506040516154799190616d8a565b6000604051808303816000865af19150503d80600081146154b6576040519150601f19603f3d011682016040523d82523d6000602084013e6154bb565b606091505b50915091508180156154e957506000815114806154e85750808060200190518101906154e79190616848565b5b5b615528576040517f08c379a000000000000000000000000000000000000000000000000000000000815260040161551f90616e80565b60405180910390fd5b5050505050565b60026000541415615575576040517f08c379a000000000000000000000000000000000000000000000000000000000815260040161556c90616f60565b60405180910390fd5b6002600081905550600082111561566257600073ffffffffffffffffffffffffffffffffffffffff168373ffffffffffffffffffffffffffffffffffffffff161415615655577f000000000000000000000000000000000000000000000000000000000000000073ffffffffffffffffffffffffffffffffffffffff16632e1a7d4d836040518263ffffffff1660e01b81526004016156149190616f80565b600060405180830381600087803b15801561562e57600080fd5b505af1158015615642573d6000803e3d6000fd5b505050506156508183615e93565b615661565b6156608382846153f9565b5b5b6001600081905550505050565b61567761521b565b73ffffffffffffffffffffffffffffffffffffffff1663b99b0a0c6040518163ffffffff1660e01b815260040160206040518083038186803b1580156156bc57600080fd5b505afa1580156156d0573d6000803e3d6000fd5b505050506040513d601f19601f820116820180604052508101906156f491906167de565b73ffffffffffffffffffffffffffffffffffffffff16638dcb4c93826040518263ffffffff1660e01b815260040161572c9190616da1565b60206040518083038186803b15801561574457600080fd5b505afa158015615758573d6000803e3d6000fd5b505050506040513d601f19601f8201168201806040525081019061577c9190616848565b15615c0f578073ffffffffffffffffffffffffffffffffffffffff166362a5af3b6040518163ffffffff1660e01b815260040160206040518083038186803b1580156157c757600080fd5b505afa1580156157db573d6000803e3d6000fd5b505050506040513d601f19601f820116820180604052508101906157ff9190616848565b156158f55761580c61521b565b73ffffffffffffffffffffffffffffffffffffffff16639d2cc4366040518163ffffffff1660e01b815260040160206040518083038186803b15801561585157600080fd5b505afa158015615865573d6000803e3d6000fd5b505050506040513d601f19601f8201168201806040525081019061588991906167de565b73ffffffffffffffffffffffffffffffffffffffff16637828c71760016040518263ffffffff1660e01b81526004016158c29190616e45565b600060405180830381600087803b1580156158dc57600080fd5b505af11580156158f0573d6000803e3d6000fd5b505050505b6158fd61521b565b73ffffffffffffffffffffffffffffffffffffffff16639d2cc4366040518163ffffffff1660e01b815260040160206040518083038186803b15801561594257600080fd5b505afa158015615956573d6000803e3d6000fd5b505050506040513d601f19601f8201168201806040525081019061597a91906167de565b73ffffffffffffffffffffffffffffffffffffffff1663194e22ce6040518163ffffffff1660e01b8152600401602060405180830381600087803b1580156159c157600080fd5b505af11580156159d5573d6000803e3d6000fd5b505050506040513d601f19601f820116820180604052508101906159f99190616848565b15615c0e576000615a0861521b565b73ffffffffffffffffffffffffffffffffffffffff16639d2cc4366040518163ffffffff1660e01b815260040160206040518083038186803b158015615a4d57600080fd5b505afa158015615a61573d6000803e3d6000fd5b505050506040513d601f19601f82011682018060405250810190615a8591906167de565b73ffffffffffffffffffffffffffffffffffffffff1663fd7e1bee6040518163ffffffff1660e01b8152600401602060405180830381600087803b158015615acc57600080fd5b505af1158015615ae0573d6000803e3d6000fd5b505050506040513d601f19601f82011682018060405250810190615b0491906168c3565b9050610e1081615b14919061703c565b421115615c0c57615b2361521b565b73ffffffffffffffffffffffffffffffffffffffff16639d2cc4366040518163ffffffff1660e01b815260040160206040518083038186803b158015615b6857600080fd5b505afa158015615b7c573d6000803e3d6000fd5b505050506040513d601f19601f82011682018060405250810190615ba091906167de565b73ffffffffffffffffffffffffffffffffffffffff16637828c71760006040518263ffffffff1660e01b8152600401615bd99190616e45565b600060405180830381600087803b158015615bf357600080fd5b505af1158015615c07573d6000803e3d6000fd5b505050505b505b5b50565b670de0b6b3a764000081118015615d39575060011515615c3061521b565b73ffffffffffffffffffffffffffffffffffffffff1663b99b0a0c6040518163ffffffff1660e01b815260040160206040518083038186803b158015615c7557600080fd5b505afa158015615c89573d6000803e3d6000fd5b505050506040513d601f19601f82011682018060405250810190615cad91906167de565b73ffffffffffffffffffffffffffffffffffffffff16638dcb4c93846040518263ffffffff1660e01b8152600401615ce59190616da1565b60206040518083038186803b158015615cfd57600080fd5b505afa158015615d11573d6000803e3d6000fd5b505050506040513d601f19601f82011682018060405250810190615d359190616848565b1515145b15615d4957615d488282615fb9565b5b5050565b60026000541415615d93576040517f08c379a0000000000000000000000000000000000000000000000000000000008152600401615d8a90616f60565b60405180910390fd5b600260008190555060008211615dde576040517f08c379a0000000000000000000000000000000000000000000000000000000008152600401615dd590616f20565b60405180910390fd5b600073ffffffffffffffffffffffffffffffffffffffff168373ffffffffffffffffffffffffffffffffffffffff161415615e7957348214615e1f57600080fd5b615e497f000000000000000000000000000000000000000000000000000000000000000083615e93565b615e747f000000000000000000000000000000000000000000000000000000000000000082846153f9565b615e86565b615e85833383856152c0565b5b6001600081905550505050565b60008273ffffffffffffffffffffffffffffffffffffffff1682600067ffffffffffffffff811115615eee577f4e487b7100000000000000000000000000000000000000000000000000000000600052604160045260246000fd5b6040519080825280601f01601f191660200182016040528015615f205781602001600182028036833780820191505090505b50604051615f2e9190616d8a565b60006040518083038185875af1925050503d8060008114615f6b576040519150601f19603f3d011682016040523d82523d6000602084013e615f70565b606091505b5050905080615fb4576040517f08c379a0000000000000000000000000000000000000000000000000000000008152600401615fab90616ee0565b60405180910390fd5b505050565b60007f000000000000000000000000000000000000000000000000000000000000000073ffffffffffffffffffffffffffffffffffffffff166370a08231615fff61521b565b73ffffffffffffffffffffffffffffffffffffffff16639d2cc4366040518163ffffffff1660e01b815260040160206040518083038186803b15801561604457600080fd5b505afa158015616058573d6000803e3d6000fd5b505050506040513d601f19601f8201168201806040525081019061607c91906167de565b6040518263ffffffff1660e01b81526004016160989190616da1565b60206040518083038186803b1580156160b057600080fd5b505afa1580156160c4573d6000803e3d6000fd5b505050506040513d601f19601f820116820180604052508101906160e891906168c3565b905060006160f461521b565b73ffffffffffffffffffffffffffffffffffffffff16639d2cc4366040518163ffffffff1660e01b815260040160206040518083038186803b15801561613957600080fd5b505afa15801561614d573d6000803e3d6000fd5b505050506040513d601f19601f8201168201806040525081019061617191906167de565b73ffffffffffffffffffffffffffffffffffffffff16632267716c6040518163ffffffff1660e01b8152600401602060405180830381600087803b1580156161b857600080fd5b505af11580156161cc573d6000803e3d6000fd5b505050506040513d601f19601f820116820180604052508101906161f09190616848565b90506000821180156161ff5750805b156164f657600061620e61521b565b73ffffffffffffffffffffffffffffffffffffffff1663b99b0a0c6040518163ffffffff1660e01b815260040160206040518083038186803b15801561625357600080fd5b505afa158015616267573d6000803e3d6000fd5b505050506040513d601f19601f8201168201806040525081019061628b91906167de565b73ffffffffffffffffffffffffffffffffffffffff16638bc51e366040518163ffffffff1660e01b815260040160206040518083038186803b1580156162d057600080fd5b505afa1580156162e4573d6000803e3d6000fd5b505050506040513d601f19601f8201168201806040525081019061630891906168c3565b9050600454811461631b57806004819055505b6000612710826002548661632f91906170c3565b6163399190617092565b6163439190617092565b90508085600660008973ffffffffffffffffffffffffffffffffffffffff1673ffffffffffffffffffffffffffffffffffffffff16815260200190815260200160002054616391919061703c565b10156164f3576163a185876164fc565b6163a961521b565b73ffffffffffffffffffffffffffffffffffffffff16639d2cc4366040518163ffffffff1660e01b815260040160206040518083038186803b1580156163ee57600080fd5b505afa158015616402573d6000803e3d6000fd5b505050506040513d601f19601f8201168201806040525081019061642691906167de565b73ffffffffffffffffffffffffffffffffffffffff16637d458baa86886040518363ffffffff1660e01b8152600401616460929190616f9b565b600060405180830381600087803b15801561647a57600080fd5b505af115801561648e573d6000803e3d6000fd5b505050508573ffffffffffffffffffffffffffffffffffffffff1663fff6cae96040518163ffffffff1660e01b8152600401600060405180830381600087803b1580156164da57600080fd5b505af11580156164ee573d6000803e3d6000fd5b505050505b50505b50505050565b6000600354141561650f57426003819055505b62278d00600354616520919061703c565b42116165b95781600660008373ffffffffffffffffffffffffffffffffffffffff1673ffffffffffffffffffffffffffffffffffffffff16815260200190815260200160002054616571919061703c565b600660008373ffffffffffffffffffffffffffffffffffffffff1673ffffffffffffffffffffffffffffffffffffffff16815260200190815260200160002081905550616688565b42600381905550600660008273ffffffffffffffffffffffffffffffffffffffff1673ffffffffffffffffffffffffffffffffffffffff16815260200190815260200160002054600760008373ffffffffffffffffffffffffffffffffffffffff1673ffffffffffffffffffffffffffffffffffffffff1681526020019081526020016000208190555081600660008373ffffffffffffffffffffffffffffffffffffffff1673ffffffffffffffffffffffffffffffffffffffff168152602001908152602001600020819055505b5050565b600061669f61669a84616fe9565b616fc4565b905080838252602082019050828560208602820111156166be57600080fd5b60005b858110156166ee57816166d4888261670d565b8452602084019350602083019250506001810190506166c1565b5050509392505050565b6000813590506167078161747f565b92915050565b60008151905061671c8161747f565b92915050565b600082601f83011261673357600080fd5b815161674384826020860161668c565b91505092915050565b60008135905061675b81617496565b92915050565b60008151905061677081617496565b92915050565b600081519050616785816174ad565b92915050565b60008135905061679a816174c4565b92915050565b6000815190506167af816174c4565b92915050565b6000602082840312156167c757600080fd5b60006167d5848285016166f8565b91505092915050565b6000602082840312156167f057600080fd5b60006167fe8482850161670d565b91505092915050565b60006020828403121561681957600080fd5b600082015167ffffffffffffffff81111561683357600080fd5b61683f84828501616722565b91505092915050565b60006020828403121561685a57600080fd5b600061686884828501616761565b91505092915050565b60006020828403121561688357600080fd5b600061689184828501616776565b91505092915050565b6000602082840312156168ac57600080fd5b60006168ba8482850161678b565b91505092915050565b6000602082840312156168d557600080fd5b60006168e3848285016167a0565b91505092915050565b600080604083850312156168ff57600080fd5b600061690d8582860161678b565b925050602061691e858286016166f8565b9150509250929050565b60008060006060848603121561693d57600080fd5b600061694b8682870161678b565b935050602061695c868287016166f8565b925050604061696d868287016166f8565b9150509250925092565b600080600080600060a0868803121561698f57600080fd5b600061699d8882890161678b565b95505060206169ae888289016166f8565b94505060406169bf888289016166f8565b93505060606169d0888289016166f8565b92505060806169e18882890161678b565b9150509295509295909350565b60008060008060808587031215616a0457600080fd5b6000616a128782880161678b565b9450506020616a23878288016166f8565b9350506040616a34878288016166f8565b9250506060616a458782880161678b565b91505092959194509250565b600080600060608486031215616a6657600080fd5b6000616a748682870161678b565b9350506020616a858682870161674c565b9250506040616a96868287016166f8565b9150509250925092565b60008060008060808587031215616ab657600080fd5b6000616ac48782880161678b565b9450506020616ad58782880161674c565b9350506040616ae6878288016166f8565b9250506060616af7878288016166f8565b91505092959194509250565b60008060408385031215616b1657600080fd5b6000616b24858286016167a0565b9250506020616b35858286016167a0565b9150509250929050565b600080600060608486031215616b5457600080fd5b6000616b628682870161678b565b9350506020616b738682870161678b565b9250506040616b84868287016166f8565b9150509250925092565b60008060008060808587031215616ba457600080fd5b6000616bb28782880161678b565b9450506020616bc38782880161678b565b9350506040616bd4878288016166f8565b9250506060616be5878288016166f8565b91505092959194509250565b616bfa8161711d565b82525050565b616c098161712f565b82525050565b6000616c1a82617015565b616c248185617020565b9350616c34818560208601617177565b80840191505092915050565b6000616c4d60058361702b565b9150616c58826172c2565b602082019050919050565b6000616c70601f8361702b565b9150616c7b826172eb565b602082019050919050565b6000616c9360068361702b565b9150616c9e82617314565b602082019050919050565b6000616cb660058361702b565b9150616cc18261733d565b602082019050919050565b6000616cd960238361702b565b9150616ce482617366565b604082019050919050565b6000616cfc60058361702b565b9150616d07826173b5565b602082019050919050565b6000616d1f60048361702b565b9150616d2a826173de565b602082019050919050565b6000616d4260248361702b565b9150616d4d82617407565b604082019050919050565b6000616d65601f8361702b565b9150616d7082617456565b602082019050919050565b616d848161716d565b82525050565b6000616d968284616c0f565b915081905092915050565b6000602082019050616db66000830184616bf1565b92915050565b6000604082019050616dd16000830185616bf1565b616dde6020830184616bf1565b9392505050565b6000606082019050616dfa6000830186616bf1565b616e076020830185616bf1565b616e146040830184616d7b565b949350505050565b6000604082019050616e316000830185616bf1565b616e3e6020830184616d7b565b9392505050565b6000602082019050616e5a6000830184616c00565b92915050565b60006020820190508181036000830152616e7981616c40565b9050919050565b60006020820190508181036000830152616e9981616c63565b9050919050565b60006020820190508181036000830152616eb981616c86565b9050919050565b60006020820190508181036000830152616ed981616ca9565b9050919050565b60006020820190508181036000830152616ef981616ccc565b9050919050565b60006020820190508181036000830152616f1981616cef565b9050919050565b60006020820190508181036000830152616f3981616d12565b9050919050565b60006020820190508181036000830152616f5981616d35565b9050919050565b60006020820190508181036000830152616f7981616d58565b9050919050565b6000602082019050616f956000830184616d7b565b92915050565b6000604082019050616fb06000830185616d7b565b616fbd6020830184616bf1565b9392505050565b6000616fce616fdf565b9050616fda82826171aa565b919050565b6000604051905090565b600067ffffffffffffffff82111561700457617003617282565b5b602082029050602081019050919050565b600081519050919050565b600081905092915050565b600082825260208201905092915050565b60006170478261716d565b91506170528361716d565b9250827fffffffffffffffffffffffffffffffffffffffffffffffffffffffffffffffff0382111561708757617086617224565b5b828201905092915050565b600061709d8261716d565b91506170a88361716d565b9250826170b8576170b7617253565b5b828204905092915050565b60006170ce8261716d565b91506170d98361716d565b9250817fffffffffffffffffffffffffffffffffffffffffffffffffffffffffffffffff048311821515161561711257617111617224565b5b828202905092915050565b60006171288261714d565b9050919050565b60008115159050919050565b60006171468261711d565b9050919050565b600073ffffffffffffffffffffffffffffffffffffffff82169050919050565b6000819050919050565b60005b8381101561719557808201518184015260208101905061717a565b838111156171a4576000848401525b50505050565b6171b3826172b1565b810181811067ffffffffffffffff821117156171d2576171d1617282565b5b80604052505050565b60006171e68261716d565b91507fffffffffffffffffffffffffffffffffffffffffffffffffffffffffffffffff82141561721957617218617224565b5b600182019050919050565b7f4e487b7100000000000000000000000000000000000000000000000000000000600052601160045260246000fd5b7f4e487b7100000000000000000000000000000000000000000000000000000000600052601260045260246000fd5b7f4e487b7100000000000000000000000000000000000000000000000000000000600052604160045260246000fd5b6000601f19601f8301169050919050565b7f21504f4f4c000000000000000000000000000000000000000000000000000000600082015250565b7f5472616e7366657248656c7065723a205452414e534645525f4641494c454400600082015250565b7f2156414c49440000000000000000000000000000000000000000000000000000600082015250565b7f2152415445000000000000000000000000000000000000000000000000000000600082015250565b7f5472616e7366657248656c7065723a20424e425f5452414e534645525f46414960008201527f4c45440000000000000000000000000000000000000000000000000000000000602082015250565b7f2153414645000000000000000000000000000000000000000000000000000000600082015250565b7f2147415300000000000000000000000000000000000000000000000000000000600082015250565b7f5472616e7366657248656c7065723a205452414e534645525f46524f4d5f464160008201527f494c454400000000000000000000000000000000000000000000000000000000602082015250565b7f5265656e7472616e637947756172643a207265656e7472616e742063616c6c00600082015250565b6174888161711d565b811461749357600080fd5b50565b61749f8161712f565b81146174aa57600080fd5b50565b6174b68161713b565b81146174c157600080fd5b50565b6174cd8161716d565b81146174d857600080fd5b5056fea26469706673582212203fe4e62b601d041757af9645b3bcda12830877cb604d286a12fbd73c2c8e7f3f64736f6c63430008030033",
  "linkReferences": {},
  "deployedLinkReferences": {}
}