{
  "_format": "hh-sol-artifact-1",
  "contractName": "Router",
  "sourceName": "contracts/Router.sol",
  "abi": [
    {
      "inputs": [
        {
          "internalType": "address",
          "name": "_base",
          "type": "address"
        },
        {
          "internalType": "address",
          "name": "_wbnb",
          "type": "address"
        }
      ],
      "stateMutability": "nonpayable",
      "type": "constructor"
    },
    {
      "inputs": [],
      "name": "BASE",
      "outputs": [
        {
          "internalType": "address",
          "name": "",
          "type": "address"
        }
      ],
      "stateMutability": "view",
      "type": "function"
    },
    {
      "inputs": [],
      "name": "DEPLOYER",
      "outputs": [
        {
          "internalType": "address",
          "name": "",
          "type": "address"
        }
      ],
      "stateMutability": "view",
      "type": "function"
    },
    {
      "inputs": [
        {
          "internalType": "uint256",
          "name": "poolRTC",
          "type": "uint256"
        },
        {
          "internalType": "address",
          "name": "_pool",
          "type": "address"
        }
      ],
      "name": "RTC",
      "outputs": [],
      "stateMutability": "nonpayable",
      "type": "function"
    },
    {
      "inputs": [],
      "name": "WBNB",
      "outputs": [
        {
          "internalType": "address",
          "name": "",
          "type": "address"
        }
      ],
      "stateMutability": "view",
      "type": "function"
    },
    {
      "inputs": [
        {
          "internalType": "uint256",
          "name": "inputToken",
          "type": "uint256"
        },
        {
          "internalType": "uint256",
          "name": "baseAmount",
          "type": "uint256"
        },
        {
          "internalType": "address",
          "name": "token",
          "type": "address"
        }
      ],
      "name": "addLiquidity",
      "outputs": [],
      "stateMutability": "payable",
      "type": "function"
    },
    {
      "inputs": [
        {
          "internalType": "uint256",
          "name": "input",
          "type": "uint256"
        },
        {
          "internalType": "bool",
          "name": "fromBase",
          "type": "bool"
        },
        {
          "internalType": "address",
          "name": "token",
          "type": "address"
        }
      ],
      "name": "addLiquidityAsym",
      "outputs": [],
      "stateMutability": "payable",
      "type": "function"
    },
    {
      "inputs": [
        {
          "internalType": "uint256",
          "name": "_input",
          "type": "uint256"
        },
        {
          "internalType": "bool",
          "name": "_fromBase",
          "type": "bool"
        },
        {
          "internalType": "address",
          "name": "token",
          "type": "address"
        },
        {
          "internalType": "address",
          "name": "_member",
          "type": "address"
        }
      ],
      "name": "addLiquidityAsymForMember",
      "outputs": [],
      "stateMutability": "payable",
      "type": "function"
    },
    {
      "inputs": [
        {
          "internalType": "uint256",
          "name": "inputToken",
          "type": "uint256"
        },
        {
          "internalType": "uint256",
          "name": "baseAmount",
          "type": "uint256"
        },
        {
          "internalType": "address",
          "name": "token",
          "type": "address"
        },
        {
          "internalType": "address",
          "name": "member",
          "type": "address"
        }
      ],
      "name": "addLiquidityForMember",
      "outputs": [
        {
          "internalType": "uint256",
          "name": "LPsMinted",
          "type": "uint256"
        }
      ],
      "stateMutability": "payable",
      "type": "function"
    },
    {
      "inputs": [
        {
          "internalType": "uint256",
          "name": "amount",
          "type": "uint256"
        },
        {
          "internalType": "address",
          "name": "token",
          "type": "address"
        },
        {
          "internalType": "address",
          "name": "member",
          "type": "address"
        },
        {
          "internalType": "uint256",
          "name": "minAmount",
          "type": "uint256"
        }
      ],
      "name": "buyTo",
      "outputs": [],
      "stateMutability": "nonpayable",
      "type": "function"
    },
    {
      "inputs": [
        {
          "internalType": "uint256",
          "name": "_newDiviClaim",
          "type": "uint256"
        }
      ],
      "name": "changeDiviClaim",
      "outputs": [],
      "stateMutability": "nonpayable",
      "type": "function"
    },
    {
      "inputs": [
        {
          "internalType": "uint256",
          "name": "synthCap",
          "type": "uint256"
        },
        {
          "internalType": "address",
          "name": "_pool",
          "type": "address"
        }
      ],
      "name": "changeSynthCap",
      "outputs": [],
      "stateMutability": "nonpayable",
      "type": "function"
    },
    {
      "inputs": [],
      "name": "curatedPoolsCount",
      "outputs": [
        {
          "internalType": "uint256",
          "name": "",
          "type": "uint256"
        }
      ],
      "stateMutability": "view",
      "type": "function"
    },
    {
      "inputs": [],
      "name": "diviClaim",
      "outputs": [
        {
          "internalType": "uint256",
          "name": "",
          "type": "uint256"
        }
      ],
      "stateMutability": "view",
      "type": "function"
    },
    {
      "inputs": [],
      "name": "flipSynthMinting",
      "outputs": [],
      "stateMutability": "nonpayable",
      "type": "function"
    },
    {
      "inputs": [],
      "name": "lastMonth",
      "outputs": [
        {
          "internalType": "uint256",
          "name": "",
          "type": "uint256"
        }
      ],
      "stateMutability": "view",
      "type": "function"
    },
    {
      "inputs": [
        {
          "internalType": "address",
          "name": "",
          "type": "address"
        }
      ],
      "name": "mapAddress_30DayDividends",
      "outputs": [
        {
          "internalType": "uint256",
          "name": "",
          "type": "uint256"
        }
      ],
      "stateMutability": "view",
      "type": "function"
    },
    {
      "inputs": [
        {
          "internalType": "address",
          "name": "",
          "type": "address"
        }
      ],
      "name": "mapAddress_Past30DayPoolDividends",
      "outputs": [
        {
          "internalType": "uint256",
          "name": "",
          "type": "uint256"
        }
      ],
      "stateMutability": "view",
      "type": "function"
    },
    {
      "inputs": [],
      "name": "purgeDeployer",
      "outputs": [],
      "stateMutability": "nonpayable",
      "type": "function"
    },
    {
      "inputs": [
        {
          "internalType": "uint256",
          "name": "basisPoints",
          "type": "uint256"
        },
        {
          "internalType": "address",
          "name": "token",
          "type": "address"
        }
      ],
      "name": "removeLiquidity",
      "outputs": [],
      "stateMutability": "nonpayable",
      "type": "function"
    },
    {
      "inputs": [
        {
          "internalType": "uint256",
          "name": "basisPoints",
          "type": "uint256"
        },
        {
          "internalType": "bool",
          "name": "toBase",
          "type": "bool"
        },
        {
          "internalType": "address",
          "name": "token",
          "type": "address"
        }
      ],
      "name": "removeLiquidityAsym",
      "outputs": [],
      "stateMutability": "nonpayable",
      "type": "function"
    },
    {
      "inputs": [
        {
          "internalType": "uint256",
          "name": "units",
          "type": "uint256"
        },
        {
          "internalType": "address",
          "name": "token",
          "type": "address"
        }
      ],
      "name": "removeLiquidityExact",
      "outputs": [],
      "stateMutability": "nonpayable",
      "type": "function"
    },
    {
      "inputs": [
        {
          "internalType": "uint256",
          "name": "units",
          "type": "uint256"
        },
        {
          "internalType": "bool",
          "name": "toBase",
          "type": "bool"
        },
        {
          "internalType": "address",
          "name": "token",
          "type": "address"
        }
      ],
      "name": "removeLiquidityExactAsym",
      "outputs": [],
      "stateMutability": "nonpayable",
      "type": "function"
    },
    {
      "inputs": [
        {
          "internalType": "uint256",
          "name": "amount",
          "type": "uint256"
        },
        {
          "internalType": "address",
          "name": "token",
          "type": "address"
        },
        {
          "internalType": "address",
          "name": "member",
          "type": "address"
        },
        {
          "internalType": "uint256",
          "name": "minAmount",
          "type": "uint256"
        }
      ],
      "name": "sellTo",
      "outputs": [
        {
          "internalType": "uint256",
          "name": "",
          "type": "uint256"
        }
      ],
      "stateMutability": "payable",
      "type": "function"
    },
    {
      "inputs": [
        {
          "internalType": "uint256",
          "name": "inputAmount",
          "type": "uint256"
        },
        {
          "internalType": "address",
          "name": "fromToken",
          "type": "address"
        },
        {
          "internalType": "address",
          "name": "toToken",
          "type": "address"
        },
        {
          "internalType": "uint256",
          "name": "minAmount",
          "type": "uint256"
        }
      ],
      "name": "swap",
      "outputs": [],
      "stateMutability": "payable",
      "type": "function"
    },
    {
      "inputs": [
        {
          "internalType": "uint256",
          "name": "inputAmount",
          "type": "uint256"
        },
        {
          "internalType": "address",
          "name": "fromToken",
          "type": "address"
        },
        {
          "internalType": "address",
          "name": "toSynth",
          "type": "address"
        }
      ],
      "name": "swapAssetToSynth",
      "outputs": [],
      "stateMutability": "payable",
      "type": "function"
    },
    {
      "inputs": [
        {
          "internalType": "uint256",
          "name": "inputAmount",
          "type": "uint256"
        },
        {
          "internalType": "address",
          "name": "fromSynth",
          "type": "address"
        },
        {
          "internalType": "address",
          "name": "toToken",
          "type": "address"
        }
      ],
      "name": "swapSynthToAsset",
      "outputs": [],
      "stateMutability": "nonpayable",
      "type": "function"
    },
    {
      "inputs": [
        {
          "internalType": "uint256",
          "name": "inputAmount",
          "type": "uint256"
        },
        {
          "internalType": "address",
          "name": "fromToken",
          "type": "address"
        },
        {
          "internalType": "address",
          "name": "toToken",
          "type": "address"
        },
        {
          "internalType": "address",
          "name": "member",
          "type": "address"
        },
        {
          "internalType": "uint256",
          "name": "minAmount",
          "type": "uint256"
        }
      ],
      "name": "swapTo",
      "outputs": [],
      "stateMutability": "payable",
      "type": "function"
    },
    {
      "inputs": [],
      "name": "synthMinting",
      "outputs": [
        {
          "internalType": "bool",
          "name": "",
          "type": "bool"
        }
      ],
      "stateMutability": "view",
      "type": "function"
    },
    {
      "inputs": [],
      "name": "updatePoolStatus",
      "outputs": [],
      "stateMutability": "nonpayable",
      "type": "function"
    },
    {
      "inputs": [
        {
          "internalType": "uint256",
          "name": "unitsInput",
          "type": "uint256"
        },
        {
          "internalType": "address",
          "name": "fromPool",
          "type": "address"
        },
        {
          "internalType": "address",
          "name": "toPool",
          "type": "address"
        }
      ],
      "name": "zapLiquidity",
      "outputs": [],
      "stateMutability": "nonpayable",
      "type": "function"
    },
    {
      "stateMutability": "payable",
      "type": "receive"
    }
  ],
  "bytecode": "0x60c06040523480156200001157600080fd5b506040516200855938038062008559833981810160405281019062000037919062000130565b60016000819055508173ffffffffffffffffffffffffffffffffffffffff1660808173ffffffffffffffffffffffffffffffffffffffff1660601b815250508073ffffffffffffffffffffffffffffffffffffffff1660a08173ffffffffffffffffffffffffffffffffffffffff1660601b8152505060646002819055506000600560006101000a81548160ff02191690831515021790555033600160006101000a81548173ffffffffffffffffffffffffffffffffffffffff021916908373ffffffffffffffffffffffffffffffffffffffff1602179055505050620001bf565b6000815190506200012a81620001a5565b92915050565b600080604083850312156200014457600080fd5b6000620001548582860162000119565b9250506020620001678582860162000119565b9150509250929050565b60006200017e8262000185565b9050919050565b600073ffffffffffffffffffffffffffffffffffffffff82169050919050565b620001b08162000171565b8114620001bc57600080fd5b50565b60805160601c60a05160601c618248620003116000396000818161113a015281816125e1015281816129c8015281816130ca01528181613e4f015281816155ba01528181615f73015281816161a801528181616b720152616c3c0152600081816112980152818161132e0152818161136b015281816114c70152818161150401528181611afe01528181611b5f01528181611b9c01528181611cba015281816121af015281816122e70152818161234c015281816129f501528181612a2001528181612ae501528181612b0601528181612c8b01528181612d2001528181612d41015281816132d9015281816139bb01528181613c9801528181613cb9015281816149b701528181614a4901528181614a8801528181614c3901528181614c760152818161550d0152818161567301528181615ac301528181615e17015281816160790152616dce01526182486000f3fe6080604052600436106101d15760003560e01c8063940c4abc116100f7578063c1b8411a11610095578063ec342ad011610064578063ec342ad0146105d5578063ee85eda414610600578063f2db620d1461062b578063f48610f314610642576101d8565b8063c1b8411a1461052d578063c8c1fb7514610558578063cbb3a14a14610581578063dd845cb9146105be576101d8565b8063a1cd6aa5116100d1578063a1cd6aa514610496578063aa62519b146104bf578063b3a14007146104db578063b45e1dbc14610504576101d8565b8063940c4abc1461041757806399d786ca146104425780639ea5705a1461046d576101d8565b80633e384a951161016f57806387b21efc1161013e57806387b21efc146103775780638b697c20146103935780638dd95002146103bc57806393cac685146103e7576101d8565b80633e384a95146102e6578063451918db146103025780636325681e1461033f57806370085be01461035b576101d8565b80631e2dd515116101ab5780631e2dd515146102465780633173ec3c1461026f578063334ea1331461028b578063398ceaae146102bb576101d8565b806303a82138146101dd57806305fe138b146101f457806307f4d34c1461021d576101d8565b366101d857005b600080fd5b3480156101e957600080fd5b506101f261066b565b005b34801561020057600080fd5b5061021b600480360381019061021691906176fd565b6107c3565b005b34801561022957600080fd5b50610244600480360381019061023f91906176ab565b610abc565b005b34801561025257600080fd5b5061026d60048036038101906102689190617862565b610c2a565b005b61028960048036038101906102849190617739565b61175e565b005b6102a560048036038101906102a091906177ff565b611f9b565b6040516102b29190617d3e565b60405180910390f35b3480156102c757600080fd5b506102d06122a6565b6040516102dd9190617d3e565b60405180910390f35b61030060048036038101906102fb9190617788565b6122ac565b005b34801561030e57600080fd5b50610329600480360381019061032491906175c6565b61278d565b6040516103369190617d3e565b60405180910390f35b610359600480360381019061035491906178b1565b6127a5565b005b610375600480360381019061037091906177ff565b612f20565b005b610391600480360381019061038c9190617950565b612f33565b005b34801561039f57600080fd5b506103ba60048036038101906103b591906176fd565b612f45565b005b3480156103c857600080fd5b506103d16130c8565b6040516103de9190617b7f565b60405180910390f35b61040160048036038101906103fc919061799f565b6130ec565b60405161040e9190617d3e565b60405180910390f35b34801561042357600080fd5b5061042c6133aa565b6040516104399190617c23565b60405180910390f35b34801561044e57600080fd5b506104576133bd565b6040516104649190617d3e565b60405180910390f35b34801561047957600080fd5b50610494600480360381019061048f91906176fd565b6133c3565b005b3480156104a257600080fd5b506104bd60048036038101906104b89190617739565b613546565b005b6104d960048036038101906104d49190617862565b61406e565b005b3480156104e757600080fd5b5061050260048036038101906104fd9190617862565b61407f565b005b34801561051057600080fd5b5061052b60048036038101906105269190617739565b61437a565b005b34801561053957600080fd5b50610542614f4a565b60405161054f9190617b7f565b60405180910390f35b34801561056457600080fd5b5061057f600480360381019061057a91906176fd565b614f70565b005b34801561058d57600080fd5b506105a860048036038101906105a391906175c6565b6156ac565b6040516105b59190617d3e565b60405180910390f35b3480156105ca57600080fd5b506105d36156c4565b005b3480156105e157600080fd5b506105ea615ac1565b6040516105f79190617b7f565b60405180910390f35b34801561060c57600080fd5b50610615615ae5565b6040516106229190617d3e565b60405180910390f35b34801561063757600080fd5b50610640615aeb565b005b34801561064e57600080fd5b50610669600480360381019061066491906177ff565b615c2b565b005b610673616075565b73ffffffffffffffffffffffffffffffffffffffff166398fabd3a6040518163ffffffff1660e01b815260040160206040518083038186803b1580156106b857600080fd5b505afa1580156106cc573d6000803e3d6000fd5b505050506040513d601f19601f820116820180604052508101906106f091906175ef565b73ffffffffffffffffffffffffffffffffffffffff163373ffffffffffffffffffffffffffffffffffffffff1614806107765750600160009054906101000a900473ffffffffffffffffffffffffffffffffffffffff1673ffffffffffffffffffffffffffffffffffffffff163373ffffffffffffffffffffffffffffffffffffffff16145b61077f57600080fd5b6000600160006101000a81548173ffffffffffffffffffffffffffffffffffffffff021916908373ffffffffffffffffffffffffffffffffffffffff160217905550565b60008211610806576040517f08c379a00000000000000000000000000000000000000000000000000000000081526004016107fd90617c7e565b60405180910390fd5b6000610810616075565b73ffffffffffffffffffffffffffffffffffffffff16637b0e5c456040518163ffffffff1660e01b815260040160206040518083038186803b15801561085557600080fd5b505afa158015610869573d6000803e3d6000fd5b505050506040513d601f19601f8201168201806040525081019061088d91906175ef565b73ffffffffffffffffffffffffffffffffffffffff1663714270ab846108b1616075565b73ffffffffffffffffffffffffffffffffffffffff1663b99b0a0c6040518163ffffffff1660e01b815260040160206040518083038186803b1580156108f657600080fd5b505afa15801561090a573d6000803e3d6000fd5b505050506040513d601f19601f8201168201806040525081019061092e91906175ef565b73ffffffffffffffffffffffffffffffffffffffff1663bbe4f6db866040518263ffffffff1660e01b81526004016109669190617b7f565b60206040518083038186803b15801561097e57600080fd5b505afa158015610992573d6000803e3d6000fd5b505050506040513d601f19601f820116820180604052508101906109b691906175ef565b73ffffffffffffffffffffffffffffffffffffffff166370a08231336040518263ffffffff1660e01b81526004016109ee9190617b7f565b60206040518083038186803b158015610a0657600080fd5b505afa158015610a1a573d6000803e3d6000fd5b505050506040513d601f19601f82011682018060405250810190610a3e91906176d4565b6040518363ffffffff1660e01b8152600401610a5b929190617d82565b60206040518083038186803b158015610a7357600080fd5b505afa158015610a87573d6000803e3d6000fd5b505050506040513d601f19601f82011682018060405250810190610aab91906176d4565b9050610ab78183614f70565b505050565b610ac4616075565b73ffffffffffffffffffffffffffffffffffffffff166398fabd3a6040518163ffffffff1660e01b815260040160206040518083038186803b158015610b0957600080fd5b505afa158015610b1d573d6000803e3d6000fd5b505050506040513d601f19601f82011682018060405250810190610b4191906175ef565b73ffffffffffffffffffffffffffffffffffffffff163373ffffffffffffffffffffffffffffffffffffffff161480610bc75750600160009054906101000a900473ffffffffffffffffffffffffffffffffffffffff1673ffffffffffffffffffffffffffffffffffffffff163373ffffffffffffffffffffffffffffffffffffffff16145b610bd057600080fd5b600081118015610be1575061138881105b610c20576040517f08c379a0000000000000000000000000000000000000000000000000000000008152600401610c1790617c7e565b60405180910390fd5b8060028190555050565b60008311610c6d576040517f08c379a0000000000000000000000000000000000000000000000000000000008152600401610c6490617c7e565b60405180910390fd5b60011515610c79616075565b73ffffffffffffffffffffffffffffffffffffffff16639d2cc4366040518163ffffffff1660e01b815260040160206040518083038186803b158015610cbe57600080fd5b505afa158015610cd2573d6000803e3d6000fd5b505050506040513d601f19601f82011682018060405250810190610cf691906175ef565b73ffffffffffffffffffffffffffffffffffffffff1663194e22ce6040518163ffffffff1660e01b8152600401602060405180830381600087803b158015610d3d57600080fd5b505af1158015610d51573d6000803e3d6000fd5b505050506040513d601f19601f82011682018060405250810190610d759190617659565b15151415610db8576040517f08c379a0000000000000000000000000000000000000000000000000000000008152600401610daf90617cde565b60405180910390fd5b6000610dc2616075565b73ffffffffffffffffffffffffffffffffffffffff1663b99b0a0c6040518163ffffffff1660e01b815260040160206040518083038186803b158015610e0757600080fd5b505afa158015610e1b573d6000803e3d6000fd5b505050506040513d601f19601f82011682018060405250810190610e3f91906175ef565b905060008173ffffffffffffffffffffffffffffffffffffffff1663bbe4f6db846040518263ffffffff1660e01b8152600401610e7c9190617b7f565b60206040518083038186803b158015610e9457600080fd5b505afa158015610ea8573d6000803e3d6000fd5b505050506040513d601f19601f82011682018060405250810190610ecc91906175ef565b9050600115158273ffffffffffffffffffffffffffffffffffffffff16635b16ebb7836040518263ffffffff1660e01b8152600401610f0b9190617b7f565b602060405180830381600087803b158015610f2557600080fd5b505af1158015610f39573d6000803e3d6000fd5b505050506040513d601f19601f82011682018060405250810190610f5d9190617659565b151514610f9f576040517f08c379a0000000000000000000000000000000000000000000000000000000008152600401610f9690617c3e565b60405180910390fd5b60003390508173ffffffffffffffffffffffffffffffffffffffff166323b872dd8284896040518463ffffffff1660e01b8152600401610fe193929190617bc3565b602060405180830381600087803b158015610ffb57600080fd5b505af115801561100f573d6000803e3d6000fd5b505050506040513d601f19601f820116820180604052508101906110339190617659565b611072576040517f08c379a000000000000000000000000000000000000000000000000000000000815260040161106990617cbe565b60405180910390fd5b8173ffffffffffffffffffffffffffffffffffffffff1663bc5dedc9306040518263ffffffff1660e01b81526004016110ab9190617b7f565b6040805180830381600087803b1580156110c457600080fd5b505af11580156110d8573d6000803e3d6000fd5b505050506040513d601f19601f820116820180604052508101906110fc9190617914565b50506000849050600073ffffffffffffffffffffffffffffffffffffffff168573ffffffffffffffffffffffffffffffffffffffff16141561115c577f000000000000000000000000000000000000000000000000000000000000000090505b600086156114c5578173ffffffffffffffffffffffffffffffffffffffff1663a9059cbb858473ffffffffffffffffffffffffffffffffffffffff166370a08231306040518263ffffffff1660e01b81526004016111ba9190617b7f565b60206040518083038186803b1580156111d257600080fd5b505afa1580156111e6573d6000803e3d6000fd5b505050506040513d601f19601f8201168201806040525081019061120a91906176d4565b6040518363ffffffff1660e01b8152600401611227929190617bfa565b602060405180830381600087803b15801561124157600080fd5b505af1158015611255573d6000803e3d6000fd5b505050506040513d601f19601f820116820180604052508101906112799190617659565b508373ffffffffffffffffffffffffffffffffffffffff16632783e4a97f0000000000000000000000000000000000000000000000000000000000000000306040518363ffffffff1660e01b81526004016112d5929190617b9a565b6040805180830381600087803b1580156112ee57600080fd5b505af1158015611302573d6000803e3d6000fd5b505050506040513d601f19601f820116820180604052508101906113269190617914565b9050809150507f000000000000000000000000000000000000000000000000000000000000000073ffffffffffffffffffffffffffffffffffffffff1663a9059cbb847f000000000000000000000000000000000000000000000000000000000000000073ffffffffffffffffffffffffffffffffffffffff166370a08231306040518263ffffffff1660e01b81526004016113c29190617b7f565b60206040518083038186803b1580156113da57600080fd5b505afa1580156113ee573d6000803e3d6000fd5b505050506040513d601f19601f8201168201806040525081019061141291906176d4565b6040518363ffffffff1660e01b815260040161142f929190617bfa565b602060405180830381600087803b15801561144957600080fd5b505af115801561145d573d6000803e3d6000fd5b505050506040513d601f19601f820116820180604052508101906114819190617659565b6114c0576040517f08c379a00000000000000000000000000000000000000000000000000000000081526004016114b790617cbe565b60405180910390fd5b611741565b7f000000000000000000000000000000000000000000000000000000000000000073ffffffffffffffffffffffffffffffffffffffff1663a9059cbb857f000000000000000000000000000000000000000000000000000000000000000073ffffffffffffffffffffffffffffffffffffffff166370a08231306040518263ffffffff1660e01b815260040161155b9190617b7f565b60206040518083038186803b15801561157357600080fd5b505afa158015611587573d6000803e3d6000fd5b505050506040513d601f19601f820116820180604052508101906115ab91906176d4565b6040518363ffffffff1660e01b81526004016115c8929190617bfa565b602060405180830381600087803b1580156115e257600080fd5b505af11580156115f6573d6000803e3d6000fd5b505050506040513d601f19601f8201168201806040525081019061161a9190617659565b508373ffffffffffffffffffffffffffffffffffffffff16632783e4a983306040518363ffffffff1660e01b8152600401611656929190617b9a565b6040805180830381600087803b15801561166f57600080fd5b505af1158015611683573d6000803e3d6000fd5b505050506040513d601f19601f820116820180604052508101906116a79190617914565b905080915050611740868373ffffffffffffffffffffffffffffffffffffffff166370a08231306040518263ffffffff1660e01b81526004016116ea9190617b7f565b60206040518083038186803b15801561170257600080fd5b505afa158015611716573d6000803e3d6000fd5b505050506040513d601f19601f8201168201806040525081019061173a91906176d4565b8561611a565b5b61174a846163be565b6117548482616961565b5050505050505050565b600083116117a1576040517f08c379a000000000000000000000000000000000000000000000000000000000815260040161179890617c7e565b60405180910390fd5b8073ffffffffffffffffffffffffffffffffffffffff168273ffffffffffffffffffffffffffffffffffffffff1614156117da57600080fd5b600115156117e6616075565b73ffffffffffffffffffffffffffffffffffffffff16639d2cc4366040518163ffffffff1660e01b815260040160206040518083038186803b15801561182b57600080fd5b505afa15801561183f573d6000803e3d6000fd5b505050506040513d601f19601f8201168201806040525081019061186391906175ef565b73ffffffffffffffffffffffffffffffffffffffff1663194e22ce6040518163ffffffff1660e01b8152600401602060405180830381600087803b1580156118aa57600080fd5b505af11580156118be573d6000803e3d6000fd5b505050506040513d601f19601f820116820180604052508101906118e29190617659565b15151415611925576040517f08c379a000000000000000000000000000000000000000000000000000000000815260040161191c90617cde565b60405180910390fd5b60008173ffffffffffffffffffffffffffffffffffffffff16637535d2466040518163ffffffff1660e01b815260040160206040518083038186803b15801561196d57600080fd5b505afa158015611981573d6000803e3d6000fd5b505050506040513d601f19601f820116820180604052508101906119a591906175ef565b9050600115156119b3616075565b73ffffffffffffffffffffffffffffffffffffffff1663b99b0a0c6040518163ffffffff1660e01b815260040160206040518083038186803b1580156119f857600080fd5b505afa158015611a0c573d6000803e3d6000fd5b505050506040513d601f19601f82011682018060405250810190611a3091906175ef565b73ffffffffffffffffffffffffffffffffffffffff16635b16ebb7836040518263ffffffff1660e01b8152600401611a689190617b7f565b602060405180830381600087803b158015611a8257600080fd5b505af1158015611a96573d6000803e3d6000fd5b505050506040513d601f19601f82011682018060405250810190611aba9190617659565b151514611afc576040517f08c379a0000000000000000000000000000000000000000000000000000000008152600401611af390617c3e565b60405180910390fd5b7f000000000000000000000000000000000000000000000000000000000000000073ffffffffffffffffffffffffffffffffffffffff168373ffffffffffffffffffffffffffffffffffffffff1614611cb857611b5c8484306000611f9b565b507f000000000000000000000000000000000000000000000000000000000000000073ffffffffffffffffffffffffffffffffffffffff1663a9059cbb827f000000000000000000000000000000000000000000000000000000000000000073ffffffffffffffffffffffffffffffffffffffff166370a08231306040518263ffffffff1660e01b8152600401611bf39190617b7f565b60206040518083038186803b158015611c0b57600080fd5b505afa158015611c1f573d6000803e3d6000fd5b505050506040513d601f19601f82011682018060405250810190611c4391906176d4565b6040518363ffffffff1660e01b8152600401611c60929190617bfa565b602060405180830381600087803b158015611c7a57600080fd5b505af1158015611c8e573d6000803e3d6000fd5b505050506040513d601f19601f82011682018060405250810190611cb29190617659565b50611da7565b7f000000000000000000000000000000000000000000000000000000000000000073ffffffffffffffffffffffffffffffffffffffff166323b872dd3383876040518463ffffffff1660e01b8152600401611d1593929190617bc3565b602060405180830381600087803b158015611d2f57600080fd5b505af1158015611d43573d6000803e3d6000fd5b505050506040513d601f19601f82011682018060405250810190611d679190617659565b611da6576040517f08c379a0000000000000000000000000000000000000000000000000000000008152600401611d9d90617cbe565b60405180910390fd5b5b60008173ffffffffffffffffffffffffffffffffffffffff1663f1bbdef2336040518263ffffffff1660e01b8152600401611de29190617b7f565b6040805180830381600087803b158015611dfb57600080fd5b505af1158015611e0f573d6000803e3d6000fd5b505050506040513d601f19601f82011682018060405250810190611e339190617914565b915050611e3f826163be565b611e498282616961565b60011515611e55616075565b73ffffffffffffffffffffffffffffffffffffffff16639d2cc4366040518163ffffffff1660e01b815260040160206040518083038186803b158015611e9a57600080fd5b505afa158015611eae573d6000803e3d6000fd5b505050506040513d601f19601f82011682018060405250810190611ed291906175ef565b73ffffffffffffffffffffffffffffffffffffffff1663194e22ce6040518163ffffffff1660e01b8152600401602060405180830381600087803b158015611f1957600080fd5b505af1158015611f2d573d6000803e3d6000fd5b505050506040513d601f19601f82011682018060405250810190611f519190617659565b15151415611f94576040517f08c379a0000000000000000000000000000000000000000000000000000000008152600401611f8b90617cde565b60405180910390fd5b5050505050565b600080611fa6616075565b73ffffffffffffffffffffffffffffffffffffffff1663b99b0a0c6040518163ffffffff1660e01b815260040160206040518083038186803b158015611feb57600080fd5b505afa158015611fff573d6000803e3d6000fd5b505050506040513d601f19601f8201168201806040525081019061202391906175ef565b905060008173ffffffffffffffffffffffffffffffffffffffff1663bbe4f6db876040518263ffffffff1660e01b81526004016120609190617b7f565b60206040518083038186803b15801561207857600080fd5b505afa15801561208c573d6000803e3d6000fd5b505050506040513d601f19601f820116820180604052508101906120b091906175ef565b9050600115158273ffffffffffffffffffffffffffffffffffffffff16635b16ebb7836040518263ffffffff1660e01b81526004016120ef9190617b7f565b602060405180830381600087803b15801561210957600080fd5b505af115801561211d573d6000803e3d6000fd5b505050506040513d601f19601f820116820180604052508101906121419190617659565b151514612183576040517f08c379a000000000000000000000000000000000000000000000000000000000815260040161217a90617c3e565b60405180910390fd5b61218e868883616a9c565b6000808273ffffffffffffffffffffffffffffffffffffffff16632783e4a97f0000000000000000000000000000000000000000000000000000000000000000896040518363ffffffff1660e01b81526004016121ec929190617b9a565b6040805180830381600087803b15801561220557600080fd5b505af1158015612219573d6000803e3d6000fd5b505050506040513d601f19601f8201168201806040525081019061223d9190617914565b9150915085821015612284576040517f08c379a000000000000000000000000000000000000000000000000000000000815260040161227b90617c9e565b60405180910390fd5b61228d836163be565b6122978382616961565b80945050505050949350505050565b60045481565b8273ffffffffffffffffffffffffffffffffffffffff168473ffffffffffffffffffffffffffffffffffffffff1614156122e557600080fd5b7f000000000000000000000000000000000000000000000000000000000000000073ffffffffffffffffffffffffffffffffffffffff168473ffffffffffffffffffffffffffffffffffffffff16141561234a5761234585848484615c2b565b612786565b7f000000000000000000000000000000000000000000000000000000000000000073ffffffffffffffffffffffffffffffffffffffff168373ffffffffffffffffffffffffffffffffffffffff1614156123b0576123aa85858484611f9b565b50612785565b60006123ba616075565b73ffffffffffffffffffffffffffffffffffffffff1663b99b0a0c6040518163ffffffff1660e01b815260040160206040518083038186803b1580156123ff57600080fd5b505afa158015612413573d6000803e3d6000fd5b505050506040513d601f19601f8201168201806040525081019061243791906175ef565b905060008173ffffffffffffffffffffffffffffffffffffffff1663bbe4f6db866040518263ffffffff1660e01b81526004016124749190617b7f565b60206040518083038186803b15801561248c57600080fd5b505afa1580156124a0573d6000803e3d6000fd5b505050506040513d601f19601f820116820180604052508101906124c491906175ef565b9050600115158273ffffffffffffffffffffffffffffffffffffffff16635b16ebb7836040518263ffffffff1660e01b81526004016125039190617b7f565b602060405180830381600087803b15801561251d57600080fd5b505af1158015612531573d6000803e3d6000fd5b505050506040513d601f19601f820116820180604052508101906125559190617659565b151514612597576040517f08c379a000000000000000000000000000000000000000000000000000000000815260040161258e90617c3e565b60405180910390fd5b6125a48787836000611f9b565b506000859050600073ffffffffffffffffffffffffffffffffffffffff168673ffffffffffffffffffffffffffffffffffffffff161415612603577f000000000000000000000000000000000000000000000000000000000000000090505b6000808373ffffffffffffffffffffffffffffffffffffffff16632783e4a984306040518363ffffffff1660e01b8152600401612641929190617b9a565b6040805180830381600087803b15801561265a57600080fd5b505af115801561266e573d6000803e3d6000fd5b505050506040513d601f19601f820116820180604052508101906126929190617914565b91509150858210156126d9576040517f08c379a00000000000000000000000000000000000000000000000000000000081526004016126d090617c9e565b60405180910390fd5b6126e2846163be565b6126ec8482616961565b61277f888473ffffffffffffffffffffffffffffffffffffffff166370a08231306040518263ffffffff1660e01b81526004016127299190617b7f565b60206040518083038186803b15801561274157600080fd5b505afa158015612755573d6000803e3d6000fd5b505050506040513d601f19601f8201168201806040525081019061277991906176d4565b8961611a565b50505050505b5b5050505050565b60076020528060005260406000206000915090505481565b60006127af616075565b73ffffffffffffffffffffffffffffffffffffffff1663b99b0a0c6040518163ffffffff1660e01b815260040160206040518083038186803b1580156127f457600080fd5b505afa158015612808573d6000803e3d6000fd5b505050506040513d601f19601f8201168201806040525081019061282c91906175ef565b905060008173ffffffffffffffffffffffffffffffffffffffff1663bbe4f6db856040518263ffffffff1660e01b81526004016128699190617b7f565b60206040518083038186803b15801561288157600080fd5b505afa158015612895573d6000803e3d6000fd5b505050506040513d601f19601f820116820180604052508101906128b991906175ef565b9050600115158273ffffffffffffffffffffffffffffffffffffffff16635b16ebb7836040518263ffffffff1660e01b81526004016128f89190617b7f565b602060405180830381600087803b15801561291257600080fd5b505af1158015612926573d6000803e3d6000fd5b505050506040513d601f19601f8201168201806040525081019061294a9190617659565b15151461298c576040517f08c379a000000000000000000000000000000000000000000000000000000000815260040161298390617c3e565b60405180910390fd5b6000849050600073ffffffffffffffffffffffffffffffffffffffff168573ffffffffffffffffffffffffffffffffffffffff1614156129ea577f000000000000000000000000000000000000000000000000000000000000000090505b8515612c4b57612a1b7f00000000000000000000000000000000000000000000000000000000000000008830616a9c565b612a527f0000000000000000000000000000000000000000000000000000000000000000600289612a4c9190617e6e565b8461611a565b8173ffffffffffffffffffffffffffffffffffffffff16632783e4a982306040518363ffffffff1660e01b8152600401612a8d929190617b9a565b6040805180830381600087803b158015612aa657600080fd5b505af1158015612aba573d6000803e3d6000fd5b505050506040513d601f19601f82011682018060405250810190612ade9190617914565b5050612bb37f00000000000000000000000000000000000000000000000000000000000000007f000000000000000000000000000000000000000000000000000000000000000073ffffffffffffffffffffffffffffffffffffffff166370a08231306040518263ffffffff1660e01b8152600401612b5d9190617b7f565b60206040518083038186803b158015612b7557600080fd5b505afa158015612b89573d6000803e3d6000fd5b505050506040513d601f19601f82011682018060405250810190612bad91906176d4565b8461611a565b612c46818273ffffffffffffffffffffffffffffffffffffffff166370a08231306040518263ffffffff1660e01b8152600401612bf09190617b7f565b60206040518083038186803b158015612c0857600080fd5b505afa158015612c1c573d6000803e3d6000fd5b505050506040513d601f19601f82011682018060405250810190612c4091906176d4565b8461611a565b612e82565b612c56858830616a9c565b612c6d81600289612c679190617e6e565b8461611a565b8173ffffffffffffffffffffffffffffffffffffffff16632783e4a97f0000000000000000000000000000000000000000000000000000000000000000306040518363ffffffff1660e01b8152600401612cc8929190617b9a565b6040805180830381600087803b158015612ce157600080fd5b505af1158015612cf5573d6000803e3d6000fd5b505050506040513d601f19601f82011682018060405250810190612d199190617914565b5050612dee7f00000000000000000000000000000000000000000000000000000000000000007f000000000000000000000000000000000000000000000000000000000000000073ffffffffffffffffffffffffffffffffffffffff166370a08231306040518263ffffffff1660e01b8152600401612d989190617b7f565b60206040518083038186803b158015612db057600080fd5b505afa158015612dc4573d6000803e3d6000fd5b505050506040513d601f19601f82011682018060405250810190612de891906176d4565b8461611a565b612e81818273ffffffffffffffffffffffffffffffffffffffff166370a08231306040518263ffffffff1660e01b8152600401612e2b9190617b7f565b60206040518083038186803b158015612e4357600080fd5b505afa158015612e57573d6000803e3d6000fd5b505050506040513d601f19601f82011682018060405250810190612e7b91906176d4565b8461611a565b5b8173ffffffffffffffffffffffffffffffffffffffff166386d5f618856040518263ffffffff1660e01b8152600401612ebb9190617b7f565b602060405180830381600087803b158015612ed557600080fd5b505af1158015612ee9573d6000803e3d6000fd5b505050506040513d601f19601f82011682018060405250810190612f0d91906176d4565b50612f17826163be565b50505050505050565b612f2d84848433856122ac565b50505050565b612f3f838383336130ec565b50505050565b612f4d616075565b73ffffffffffffffffffffffffffffffffffffffff166398fabd3a6040518163ffffffff1660e01b815260040160206040518083038186803b158015612f9257600080fd5b505afa158015612fa6573d6000803e3d6000fd5b505050506040513d601f19601f82011682018060405250810190612fca91906175ef565b73ffffffffffffffffffffffffffffffffffffffff163373ffffffffffffffffffffffffffffffffffffffff1614806130505750600160009054906101000a900473ffffffffffffffffffffffffffffffffffffffff1673ffffffffffffffffffffffffffffffffffffffff163373ffffffffffffffffffffffffffffffffffffffff16145b61305957600080fd5b8073ffffffffffffffffffffffffffffffffffffffff16637ec3eae5836040518263ffffffff1660e01b81526004016130929190617d3e565b600060405180830381600087803b1580156130ac57600080fd5b505af11580156130c0573d6000803e3d6000fd5b505050505050565b7f000000000000000000000000000000000000000000000000000000000000000081565b6000806130f7616075565b73ffffffffffffffffffffffffffffffffffffffff1663b99b0a0c6040518163ffffffff1660e01b815260040160206040518083038186803b15801561313c57600080fd5b505afa158015613150573d6000803e3d6000fd5b505050506040513d601f19601f8201168201806040525081019061317491906175ef565b905060008173ffffffffffffffffffffffffffffffffffffffff1663bbe4f6db866040518263ffffffff1660e01b81526004016131b19190617b7f565b60206040518083038186803b1580156131c957600080fd5b505afa1580156131dd573d6000803e3d6000fd5b505050506040513d601f19601f8201168201806040525081019061320191906175ef565b9050600115158273ffffffffffffffffffffffffffffffffffffffff16635b16ebb7836040518263ffffffff1660e01b81526004016132409190617b7f565b602060405180830381600087803b15801561325a57600080fd5b505af115801561326e573d6000803e3d6000fd5b505050506040513d601f19601f820116820180604052508101906132929190617659565b1515146132d4576040517f08c379a00000000000000000000000000000000000000000000000000000000081526004016132cb90617c3e565b60405180910390fd5b6132ff7f00000000000000000000000000000000000000000000000000000000000000008783616a9c565b61330a858883616a9c565b8073ffffffffffffffffffffffffffffffffffffffff166386d5f618856040518263ffffffff1660e01b81526004016133439190617b7f565b602060405180830381600087803b15801561335d57600080fd5b505af1158015613371573d6000803e3d6000fd5b505050506040513d601f19601f8201168201806040525081019061339591906176d4565b92506133a0816163be565b5050949350505050565b600560009054906101000a900460ff1681565b60035481565b6133cb616075565b73ffffffffffffffffffffffffffffffffffffffff166398fabd3a6040518163ffffffff1660e01b815260040160206040518083038186803b15801561341057600080fd5b505afa158015613424573d6000803e3d6000fd5b505050506040513d601f19601f8201168201806040525081019061344891906175ef565b73ffffffffffffffffffffffffffffffffffffffff163373ffffffffffffffffffffffffffffffffffffffff1614806134ce5750600160009054906101000a900473ffffffffffffffffffffffffffffffffffffffff1673ffffffffffffffffffffffffffffffffffffffff163373ffffffffffffffffffffffffffffffffffffffff16145b6134d757600080fd5b8073ffffffffffffffffffffffffffffffffffffffff1663474e7302836040518263ffffffff1660e01b81526004016135109190617d3e565b600060405180830381600087803b15801561352a57600080fd5b505af115801561353e573d6000803e3d6000fd5b505050505050565b60008311613589576040517f08c379a000000000000000000000000000000000000000000000000000000000815260040161358090617c7e565b60405180910390fd5b8073ffffffffffffffffffffffffffffffffffffffff168273ffffffffffffffffffffffffffffffffffffffff1614156135c257600080fd5b600115156135ce616075565b73ffffffffffffffffffffffffffffffffffffffff16639d2cc4366040518163ffffffff1660e01b815260040160206040518083038186803b15801561361357600080fd5b505afa158015613627573d6000803e3d6000fd5b505050506040513d601f19601f8201168201806040525081019061364b91906175ef565b73ffffffffffffffffffffffffffffffffffffffff1663194e22ce6040518163ffffffff1660e01b8152600401602060405180830381600087803b15801561369257600080fd5b505af11580156136a6573d6000803e3d6000fd5b505050506040513d601f19601f820116820180604052508101906136ca9190617659565b1515141561370d576040517f08c379a000000000000000000000000000000000000000000000000000000000815260040161370490617cde565b60405180910390fd5b6000613717616075565b73ffffffffffffffffffffffffffffffffffffffff1663b99b0a0c6040518163ffffffff1660e01b815260040160206040518083038186803b15801561375c57600080fd5b505afa158015613770573d6000803e3d6000fd5b505050506040513d601f19601f8201168201806040525081019061379491906175ef565b905060008373ffffffffffffffffffffffffffffffffffffffff16637535d2466040518163ffffffff1660e01b815260040160206040518083038186803b1580156137de57600080fd5b505afa1580156137f2573d6000803e3d6000fd5b505050506040513d601f19601f8201168201806040525081019061381691906175ef565b9050600115158273ffffffffffffffffffffffffffffffffffffffff16635b16ebb7836040518263ffffffff1660e01b81526004016138559190617b7f565b602060405180830381600087803b15801561386f57600080fd5b505af1158015613883573d6000803e3d6000fd5b505050506040513d601f19601f820116820180604052508101906138a79190617659565b1515146138e9576040517f08c379a00000000000000000000000000000000000000000000000000000000081526004016138e090617c3e565b60405180910390fd5b8373ffffffffffffffffffffffffffffffffffffffff166323b872dd3383886040518463ffffffff1660e01b815260040161392693929190617bc3565b602060405180830381600087803b15801561394057600080fd5b505af1158015613954573d6000803e3d6000fd5b505050506040513d601f19601f820116820180604052508101906139789190617659565b6139b7576040517f08c379a00000000000000000000000000000000000000000000000000000000081526004016139ae90617cbe565b60405180910390fd5b60007f000000000000000000000000000000000000000000000000000000000000000073ffffffffffffffffffffffffffffffffffffffff168473ffffffffffffffffffffffffffffffffffffffff161415613aa2578173ffffffffffffffffffffffffffffffffffffffff1663dbfc5a04336040518263ffffffff1660e01b8152600401613a469190617b7f565b6040805180830381600087803b158015613a5f57600080fd5b505af1158015613a73573d6000803e3d6000fd5b505050506040513d601f19601f82011682018060405250810190613a979190617914565b905080915050613f08565b60008373ffffffffffffffffffffffffffffffffffffffff1663bbe4f6db866040518263ffffffff1660e01b8152600401613add9190617b7f565b60206040518083038186803b158015613af557600080fd5b505afa158015613b09573d6000803e3d6000fd5b505050506040513d601f19601f82011682018060405250810190613b2d91906175ef565b9050600115158473ffffffffffffffffffffffffffffffffffffffff16635b16ebb7836040518263ffffffff1660e01b8152600401613b6c9190617b7f565b602060405180830381600087803b158015613b8657600080fd5b505af1158015613b9a573d6000803e3d6000fd5b505050506040513d601f19601f82011682018060405250810190613bbe9190617659565b151514613c00576040517f08c379a0000000000000000000000000000000000000000000000000000000008152600401613bf790617c3e565b60405180910390fd5b6000808473ffffffffffffffffffffffffffffffffffffffff1663dbfc5a04306040518263ffffffff1660e01b8152600401613c3c9190617b7f565b6040805180830381600087803b158015613c5557600080fd5b505af1158015613c69573d6000803e3d6000fd5b505050506040513d601f19601f82011682018060405250810190613c8d9190617914565b905080945050613d667f00000000000000000000000000000000000000000000000000000000000000007f000000000000000000000000000000000000000000000000000000000000000073ffffffffffffffffffffffffffffffffffffffff166370a08231306040518263ffffffff1660e01b8152600401613d109190617b7f565b60206040518083038186803b158015613d2857600080fd5b505afa158015613d3c573d6000803e3d6000fd5b505050506040513d601f19601f82011682018060405250810190613d6091906176d4565b8561611a565b600073ffffffffffffffffffffffffffffffffffffffff168773ffffffffffffffffffffffffffffffffffffffff1614613e31578273ffffffffffffffffffffffffffffffffffffffff16632783e4a988336040518363ffffffff1660e01b8152600401613dd5929190617b9a565b6040805180830381600087803b158015613dee57600080fd5b505af1158015613e02573d6000803e3d6000fd5b505050506040513d601f19601f82011682018060405250810190613e269190617914565b905080925050613ef1565b8273ffffffffffffffffffffffffffffffffffffffff16632783e4a97f0000000000000000000000000000000000000000000000000000000000000000306040518363ffffffff1660e01b8152600401613e8c929190617b9a565b6040805180830381600087803b158015613ea557600080fd5b505af1158015613eb9573d6000803e3d6000fd5b505050506040513d601f19601f82011682018060405250810190613edd9190617914565b8093508192505050613ef087823361611a565b5b613efa836163be565b613f048383616961565b5050505b613f11826163be565b613f1b8282616961565b60011515613f27616075565b73ffffffffffffffffffffffffffffffffffffffff16639d2cc4366040518163ffffffff1660e01b815260040160206040518083038186803b158015613f6c57600080fd5b505afa158015613f80573d6000803e3d6000fd5b505050506040513d601f19601f82011682018060405250810190613fa491906175ef565b73ffffffffffffffffffffffffffffffffffffffff1663194e22ce6040518163ffffffff1660e01b8152600401602060405180830381600087803b158015613feb57600080fd5b505af1158015613fff573d6000803e3d6000fd5b505050506040513d601f19601f820116820180604052508101906140239190617659565b15151415614066576040517f08c379a000000000000000000000000000000000000000000000000000000000815260040161405d90617cde565b60405180910390fd5b505050505050565b61407a838383336127a5565b505050565b600083116140c2576040517f08c379a00000000000000000000000000000000000000000000000000000000081526004016140b990617c7e565b60405180910390fd5b60006140cc616075565b73ffffffffffffffffffffffffffffffffffffffff16637b0e5c456040518163ffffffff1660e01b815260040160206040518083038186803b15801561411157600080fd5b505afa158015614125573d6000803e3d6000fd5b505050506040513d601f19601f8201168201806040525081019061414991906175ef565b73ffffffffffffffffffffffffffffffffffffffff1663714270ab8561416d616075565b73ffffffffffffffffffffffffffffffffffffffff1663b99b0a0c6040518163ffffffff1660e01b815260040160206040518083038186803b1580156141b257600080fd5b505afa1580156141c6573d6000803e3d6000fd5b505050506040513d601f19601f820116820180604052508101906141ea91906175ef565b73ffffffffffffffffffffffffffffffffffffffff1663bbe4f6db866040518263ffffffff1660e01b81526004016142229190617b7f565b60206040518083038186803b15801561423a57600080fd5b505afa15801561424e573d6000803e3d6000fd5b505050506040513d601f19601f8201168201806040525081019061427291906175ef565b73ffffffffffffffffffffffffffffffffffffffff166370a08231336040518263ffffffff1660e01b81526004016142aa9190617b7f565b60206040518083038186803b1580156142c257600080fd5b505afa1580156142d6573d6000803e3d6000fd5b505050506040513d601f19601f820116820180604052508101906142fa91906176d4565b6040518363ffffffff1660e01b8152600401614317929190617d82565b60206040518083038186803b15801561432f57600080fd5b505afa158015614343573d6000803e3d6000fd5b505050506040513d601f19601f8201168201806040525081019061436791906176d4565b9050614374818484610c2a565b50505050565b8073ffffffffffffffffffffffffffffffffffffffff168273ffffffffffffffffffffffffffffffffffffffff16141580156143b65750600083115b6143f5576040517f08c379a00000000000000000000000000000000000000000000000000000000081526004016143ec90617c7e565b60405180910390fd5b60006143ff616075565b73ffffffffffffffffffffffffffffffffffffffff1663b99b0a0c6040518163ffffffff1660e01b815260040160206040518083038186803b15801561444457600080fd5b505afa158015614458573d6000803e3d6000fd5b505050506040513d601f19601f8201168201806040525081019061447c91906175ef565b9050600115158173ffffffffffffffffffffffffffffffffffffffff16635b16ebb7856040518263ffffffff1660e01b81526004016144bb9190617b7f565b602060405180830381600087803b1580156144d557600080fd5b505af11580156144e9573d6000803e3d6000fd5b505050506040513d601f19601f8201168201806040525081019061450d9190617659565b15151461454f576040517f08c379a000000000000000000000000000000000000000000000000000000000815260040161454690617c3e565b60405180910390fd5b600115158173ffffffffffffffffffffffffffffffffffffffff16635b16ebb7846040518263ffffffff1660e01b815260040161458c9190617b7f565b602060405180830381600087803b1580156145a657600080fd5b505af11580156145ba573d6000803e3d6000fd5b505050506040513d601f19601f820116820180604052508101906145de9190617659565b151514614620576040517f08c379a000000000000000000000000000000000000000000000000000000000815260040161461790617c3e565b60405180910390fd5b60008373ffffffffffffffffffffffffffffffffffffffff166382bfefc86040518163ffffffff1660e01b815260040160206040518083038186803b15801561466857600080fd5b505afa15801561467c573d6000803e3d6000fd5b505050506040513d601f19601f820116820180604052508101906146a091906175ef565b905060008373ffffffffffffffffffffffffffffffffffffffff166382bfefc86040518163ffffffff1660e01b815260040160206040518083038186803b1580156146ea57600080fd5b505afa1580156146fe573d6000803e3d6000fd5b505050506040513d601f19601f8201168201806040525081019061472291906175ef565b905060003390508573ffffffffffffffffffffffffffffffffffffffff166323b872dd82888a6040518463ffffffff1660e01b815260040161476693929190617bc3565b602060405180830381600087803b15801561478057600080fd5b505af1158015614794573d6000803e3d6000fd5b505050506040513d601f19601f820116820180604052508101906147b89190617659565b6147f7576040517f08c379a00000000000000000000000000000000000000000000000000000000081526004016147ee90617cbe565b60405180910390fd5b8573ffffffffffffffffffffffffffffffffffffffff1663bc5dedc9306040518263ffffffff1660e01b81526004016148309190617b7f565b6040805180830381600087803b15801561484957600080fd5b505af115801561485d573d6000803e3d6000fd5b505050506040513d601f19601f820116820180604052508101906148819190617914565b50508273ffffffffffffffffffffffffffffffffffffffff1663a9059cbb878573ffffffffffffffffffffffffffffffffffffffff166370a08231306040518263ffffffff1660e01b81526004016148d99190617b7f565b60206040518083038186803b1580156148f157600080fd5b505afa158015614905573d6000803e3d6000fd5b505050506040513d601f19601f8201168201806040525081019061492991906176d4565b6040518363ffffffff1660e01b8152600401614946929190617bfa565b602060405180830381600087803b15801561496057600080fd5b505af1158015614974573d6000803e3d6000fd5b505050506040513d601f19601f820116820180604052508101906149989190617659565b508573ffffffffffffffffffffffffffffffffffffffff16632783e4a97f0000000000000000000000000000000000000000000000000000000000000000306040518363ffffffff1660e01b81526004016149f4929190617b9a565b6040805180830381600087803b158015614a0d57600080fd5b505af1158015614a21573d6000803e3d6000fd5b505050506040513d601f19601f82011682018060405250810190614a459190617914565b50507f000000000000000000000000000000000000000000000000000000000000000073ffffffffffffffffffffffffffffffffffffffff1663a9059cbb8660027f000000000000000000000000000000000000000000000000000000000000000073ffffffffffffffffffffffffffffffffffffffff166370a08231306040518263ffffffff1660e01b8152600401614adf9190617b7f565b60206040518083038186803b158015614af757600080fd5b505afa158015614b0b573d6000803e3d6000fd5b505050506040513d601f19601f82011682018060405250810190614b2f91906176d4565b614b399190617e6e565b6040518363ffffffff1660e01b8152600401614b56929190617bfa565b602060405180830381600087803b158015614b7057600080fd5b505af1158015614b84573d6000803e3d6000fd5b505050506040513d601f19601f82011682018060405250810190614ba89190617659565b508473ffffffffffffffffffffffffffffffffffffffff16632783e4a983306040518363ffffffff1660e01b8152600401614be4929190617b9a565b6040805180830381600087803b158015614bfd57600080fd5b505af1158015614c11573d6000803e3d6000fd5b505050506040513d601f19601f82011682018060405250810190614c359190617914565b50507f000000000000000000000000000000000000000000000000000000000000000073ffffffffffffffffffffffffffffffffffffffff1663a9059cbb867f000000000000000000000000000000000000000000000000000000000000000073ffffffffffffffffffffffffffffffffffffffff166370a08231306040518263ffffffff1660e01b8152600401614ccd9190617b7f565b60206040518083038186803b158015614ce557600080fd5b505afa158015614cf9573d6000803e3d6000fd5b505050506040513d601f19601f82011682018060405250810190614d1d91906176d4565b6040518363ffffffff1660e01b8152600401614d3a929190617bfa565b602060405180830381600087803b158015614d5457600080fd5b505af1158015614d68573d6000803e3d6000fd5b505050506040513d601f19601f82011682018060405250810190614d8c9190617659565b508173ffffffffffffffffffffffffffffffffffffffff1663a9059cbb868473ffffffffffffffffffffffffffffffffffffffff166370a08231306040518263ffffffff1660e01b8152600401614de39190617b7f565b60206040518083038186803b158015614dfb57600080fd5b505afa158015614e0f573d6000803e3d6000fd5b505050506040513d601f19601f82011682018060405250810190614e3391906176d4565b6040518363ffffffff1660e01b8152600401614e50929190617bfa565b602060405180830381600087803b158015614e6a57600080fd5b505af1158015614e7e573d6000803e3d6000fd5b505050506040513d601f19601f82011682018060405250810190614ea29190617659565b508473ffffffffffffffffffffffffffffffffffffffff166386d5f618826040518263ffffffff1660e01b8152600401614edc9190617b7f565b602060405180830381600087803b158015614ef657600080fd5b505af1158015614f0a573d6000803e3d6000fd5b505050506040513d601f19601f82011682018060405250810190614f2e91906176d4565b50614f38866163be565b614f41856163be565b50505050505050565b600160009054906101000a900473ffffffffffffffffffffffffffffffffffffffff1681565b60008211614fb3576040517f08c379a0000000000000000000000000000000000000000000000000000000008152600401614faa90617c7e565b60405180910390fd5b6000614fbd616075565b73ffffffffffffffffffffffffffffffffffffffff1663b99b0a0c6040518163ffffffff1660e01b815260040160206040518083038186803b15801561500257600080fd5b505afa158015615016573d6000803e3d6000fd5b505050506040513d601f19601f8201168201806040525081019061503a91906175ef565b905060011515615048616075565b73ffffffffffffffffffffffffffffffffffffffff16639d2cc4366040518163ffffffff1660e01b815260040160206040518083038186803b15801561508d57600080fd5b505afa1580156150a1573d6000803e3d6000fd5b505050506040513d601f19601f820116820180604052508101906150c591906175ef565b73ffffffffffffffffffffffffffffffffffffffff1663194e22ce6040518163ffffffff1660e01b8152600401602060405180830381600087803b15801561510c57600080fd5b505af1158015615120573d6000803e3d6000fd5b505050506040513d601f19601f820116820180604052508101906151449190617659565b15151415615187576040517f08c379a000000000000000000000000000000000000000000000000000000000815260040161517e90617cde565b60405180910390fd5b60008173ffffffffffffffffffffffffffffffffffffffff1663bbe4f6db846040518263ffffffff1660e01b81526004016151c29190617b7f565b60206040518083038186803b1580156151da57600080fd5b505afa1580156151ee573d6000803e3d6000fd5b505050506040513d601f19601f8201168201806040525081019061521291906175ef565b9050600115158273ffffffffffffffffffffffffffffffffffffffff16635b16ebb7836040518263ffffffff1660e01b81526004016152519190617b7f565b602060405180830381600087803b15801561526b57600080fd5b505af115801561527f573d6000803e3d6000fd5b505050506040513d601f19601f820116820180604052508101906152a39190617659565b1515146152e5576040517f08c379a00000000000000000000000000000000000000000000000000000000081526004016152dc90617c3e565b60405180910390fd5b60003390508173ffffffffffffffffffffffffffffffffffffffff166323b872dd8284886040518463ffffffff1660e01b815260040161532793929190617bc3565b602060405180830381600087803b15801561534157600080fd5b505af1158015615355573d6000803e3d6000fd5b505050506040513d601f19601f820116820180604052508101906153799190617659565b6153b8576040517f08c379a00000000000000000000000000000000000000000000000000000000081526004016153af90617cbe565b60405180910390fd5b600073ffffffffffffffffffffffffffffffffffffffff168473ffffffffffffffffffffffffffffffffffffffff161461547d578173ffffffffffffffffffffffffffffffffffffffff1663bc5dedc9826040518263ffffffff1660e01b81526004016154259190617b7f565b6040805180830381600087803b15801561543e57600080fd5b505af1158015615452573d6000803e3d6000fd5b505050506040513d601f19601f820116820180604052508101906154769190617914565b505061569c565b8173ffffffffffffffffffffffffffffffffffffffff1663bc5dedc9306040518263ffffffff1660e01b81526004016154b69190617b7f565b6040805180830381600087803b1580156154cf57600080fd5b505af11580156154e3573d6000803e3d6000fd5b505050506040513d601f19601f820116820180604052508101906155079190617914565b505060007f000000000000000000000000000000000000000000000000000000000000000073ffffffffffffffffffffffffffffffffffffffff166370a08231306040518263ffffffff1660e01b81526004016155649190617b7f565b60206040518083038186803b15801561557c57600080fd5b505afa158015615590573d6000803e3d6000fd5b505050506040513d601f19601f820116820180604052508101906155b491906176d4565b905060007f000000000000000000000000000000000000000000000000000000000000000073ffffffffffffffffffffffffffffffffffffffff166370a08231306040518263ffffffff1660e01b81526004016156119190617b7f565b60206040518083038186803b15801561562957600080fd5b505afa15801561563d573d6000803e3d6000fd5b505050506040513d601f19601f8201168201806040525081019061566191906176d4565b905061566e86828561611a565b6156997f0000000000000000000000000000000000000000000000000000000000000000838561611a565b50505b6156a5826163be565b5050505050565b60066020528060005260406000206000915090505481565b6156cc616075565b73ffffffffffffffffffffffffffffffffffffffff16639d2cc4366040518163ffffffff1660e01b815260040160206040518083038186803b15801561571157600080fd5b505afa158015615725573d6000803e3d6000fd5b505050506040513d601f19601f8201168201806040525081019061574991906175ef565b73ffffffffffffffffffffffffffffffffffffffff1663194e22ce6040518163ffffffff1660e01b8152600401602060405180830381600087803b15801561579057600080fd5b505af11580156157a4573d6000803e3d6000fd5b505050506040513d601f19601f820116820180604052508101906157c89190617659565b15615abf5760006157d7616075565b73ffffffffffffffffffffffffffffffffffffffff1663b99b0a0c6040518163ffffffff1660e01b815260040160206040518083038186803b15801561581c57600080fd5b505afa158015615830573d6000803e3d6000fd5b505050506040513d601f19601f8201168201806040525081019061585491906175ef565b73ffffffffffffffffffffffffffffffffffffffff1663abc764da6040518163ffffffff1660e01b815260040160006040518083038186803b15801561589957600080fd5b505afa1580156158ad573d6000803e3d6000fd5b505050506040513d6000823e3d601f19601f820116820180604052508101906158d69190617618565b9050600080600090505b82518110156159c457828181518110615922577f4e487b7100000000000000000000000000000000000000000000000000000000600052603260045260246000fd5b602002602001015173ffffffffffffffffffffffffffffffffffffffff166362a5af3b6040518163ffffffff1660e01b815260040160206040518083038186803b15801561596f57600080fd5b505afa158015615983573d6000803e3d6000fd5b505050506040513d601f19601f820116820180604052508101906159a79190617659565b156159b157600091505b80806159bc90617f84565b9150506158e0565b508015615abc576159d3616075565b73ffffffffffffffffffffffffffffffffffffffff16639d2cc4366040518163ffffffff1660e01b815260040160206040518083038186803b158015615a1857600080fd5b505afa158015615a2c573d6000803e3d6000fd5b505050506040513d601f19601f82011682018060405250810190615a5091906175ef565b73ffffffffffffffffffffffffffffffffffffffff16637828c71760006040518263ffffffff1660e01b8152600401615a899190617c23565b600060405180830381600087803b158015615aa357600080fd5b505af1158015615ab7573d6000803e3d6000fd5b505050505b50505b565b7f000000000000000000000000000000000000000000000000000000000000000081565b60025481565b615af3616075565b73ffffffffffffffffffffffffffffffffffffffff166398fabd3a6040518163ffffffff1660e01b815260040160206040518083038186803b158015615b3857600080fd5b505afa158015615b4c573d6000803e3d6000fd5b505050506040513d601f19601f82011682018060405250810190615b7091906175ef565b73ffffffffffffffffffffffffffffffffffffffff163373ffffffffffffffffffffffffffffffffffffffff161480615bf65750600160009054906101000a900473ffffffffffffffffffffffffffffffffffffffff1673ffffffffffffffffffffffffffffffffffffffff163373ffffffffffffffffffffffffffffffffffffffff16145b615bff57600080fd5b600560009054906101000a900460ff1615600560006101000a81548160ff021916908315150217905550565b6000615c35616075565b73ffffffffffffffffffffffffffffffffffffffff1663b99b0a0c6040518163ffffffff1660e01b815260040160206040518083038186803b158015615c7a57600080fd5b505afa158015615c8e573d6000803e3d6000fd5b505050506040513d601f19601f82011682018060405250810190615cb291906175ef565b905060008173ffffffffffffffffffffffffffffffffffffffff1663bbe4f6db866040518263ffffffff1660e01b8152600401615cef9190617b7f565b60206040518083038186803b158015615d0757600080fd5b505afa158015615d1b573d6000803e3d6000fd5b505050506040513d601f19601f82011682018060405250810190615d3f91906175ef565b9050600115158273ffffffffffffffffffffffffffffffffffffffff16635b16ebb7836040518263ffffffff1660e01b8152600401615d7e9190617b7f565b602060405180830381600087803b158015615d9857600080fd5b505af1158015615dac573d6000803e3d6000fd5b505050506040513d601f19601f82011682018060405250810190615dd09190617659565b151514615e12576040517f08c379a0000000000000000000000000000000000000000000000000000000008152600401615e0990617c3e565b60405180910390fd5b615e3d7f00000000000000000000000000000000000000000000000000000000000000008783616a9c565b60008073ffffffffffffffffffffffffffffffffffffffff168673ffffffffffffffffffffffffffffffffffffffff1614615f52576000808373ffffffffffffffffffffffffffffffffffffffff16632783e4a989896040518363ffffffff1660e01b8152600401615eb0929190617b9a565b6040805180830381600087803b158015615ec957600080fd5b505af1158015615edd573d6000803e3d6000fd5b505050506040513d601f19601f82011682018060405250810190615f019190617914565b9150915085821015615f48576040517f08c379a0000000000000000000000000000000000000000000000000000000008152600401615f3f90617c9e565b60405180910390fd5b8092505050616059565b6000808373ffffffffffffffffffffffffffffffffffffffff16632783e4a97f0000000000000000000000000000000000000000000000000000000000000000306040518363ffffffff1660e01b8152600401615fb0929190617b9a565b6040805180830381600087803b158015615fc957600080fd5b505af1158015615fdd573d6000803e3d6000fd5b505050506040513d601f19601f820116820180604052508101906160019190617914565b9150915085821015616048576040517f08c379a000000000000000000000000000000000000000000000000000000000815260040161603f90617c9e565b60405180910390fd5b61605388838961611a565b80925050505b616062826163be565b61606c8282616961565b50505050505050565b60007f000000000000000000000000000000000000000000000000000000000000000073ffffffffffffffffffffffffffffffffffffffff166398fabd3a6040518163ffffffff1660e01b815260040160206040518083038186803b1580156160dd57600080fd5b505afa1580156160f1573d6000803e3d6000fd5b505050506040513d601f19601f820116820180604052508101906161159190617682565b905090565b60026000541415616160576040517f08c379a000000000000000000000000000000000000000000000000000000000815260040161615790617d1e565b60405180910390fd5b600260008190555060008211156163b157600073ffffffffffffffffffffffffffffffffffffffff168373ffffffffffffffffffffffffffffffffffffffff1614156162e3577f000000000000000000000000000000000000000000000000000000000000000073ffffffffffffffffffffffffffffffffffffffff16632e1a7d4d836040518263ffffffff1660e01b81526004016161ff9190617d3e565b600060405180830381600087803b15801561621957600080fd5b505af115801561622d573d6000803e3d6000fd5b5050505060008173ffffffffffffffffffffffffffffffffffffffff168360405161625790617b6a565b60006040518083038185875af1925050503d8060008114616294576040519150601f19603f3d011682016040523d82523d6000602084013e616299565b606091505b50509050806162dd576040517f08c379a00000000000000000000000000000000000000000000000000000000081526004016162d490617c5e565b60405180910390fd5b506163b0565b8273ffffffffffffffffffffffffffffffffffffffff1663a9059cbb82846040518363ffffffff1660e01b815260040161631e929190617bfa565b602060405180830381600087803b15801561633857600080fd5b505af115801561634c573d6000803e3d6000fd5b505050506040513d601f19601f820116820180604052508101906163709190617659565b6163af576040517f08c379a00000000000000000000000000000000000000000000000000000000081526004016163a690617cbe565b60405180910390fd5b5b5b6001600081905550505050565b6163c6616075565b73ffffffffffffffffffffffffffffffffffffffff1663b99b0a0c6040518163ffffffff1660e01b815260040160206040518083038186803b15801561640b57600080fd5b505afa15801561641f573d6000803e3d6000fd5b505050506040513d601f19601f8201168201806040525081019061644391906175ef565b73ffffffffffffffffffffffffffffffffffffffff16638dcb4c93826040518263ffffffff1660e01b815260040161647b9190617b7f565b60206040518083038186803b15801561649357600080fd5b505afa1580156164a7573d6000803e3d6000fd5b505050506040513d601f19601f820116820180604052508101906164cb9190617659565b1561695e578073ffffffffffffffffffffffffffffffffffffffff166362a5af3b6040518163ffffffff1660e01b815260040160206040518083038186803b15801561651657600080fd5b505afa15801561652a573d6000803e3d6000fd5b505050506040513d601f19601f8201168201806040525081019061654e9190617659565b156166445761655b616075565b73ffffffffffffffffffffffffffffffffffffffff16639d2cc4366040518163ffffffff1660e01b815260040160206040518083038186803b1580156165a057600080fd5b505afa1580156165b4573d6000803e3d6000fd5b505050506040513d601f19601f820116820180604052508101906165d891906175ef565b73ffffffffffffffffffffffffffffffffffffffff16637828c71760016040518263ffffffff1660e01b81526004016166119190617c23565b600060405180830381600087803b15801561662b57600080fd5b505af115801561663f573d6000803e3d6000fd5b505050505b61664c616075565b73ffffffffffffffffffffffffffffffffffffffff16639d2cc4366040518163ffffffff1660e01b815260040160206040518083038186803b15801561669157600080fd5b505afa1580156166a5573d6000803e3d6000fd5b505050506040513d601f19601f820116820180604052508101906166c991906175ef565b73ffffffffffffffffffffffffffffffffffffffff1663194e22ce6040518163ffffffff1660e01b8152600401602060405180830381600087803b15801561671057600080fd5b505af1158015616724573d6000803e3d6000fd5b505050506040513d601f19601f820116820180604052508101906167489190617659565b1561695d576000616757616075565b73ffffffffffffffffffffffffffffffffffffffff16639d2cc4366040518163ffffffff1660e01b815260040160206040518083038186803b15801561679c57600080fd5b505afa1580156167b0573d6000803e3d6000fd5b505050506040513d601f19601f820116820180604052508101906167d491906175ef565b73ffffffffffffffffffffffffffffffffffffffff1663fd7e1bee6040518163ffffffff1660e01b8152600401602060405180830381600087803b15801561681b57600080fd5b505af115801561682f573d6000803e3d6000fd5b505050506040513d601f19601f8201168201806040525081019061685391906176d4565b9050610e10816168639190617e18565b42111561695b57616872616075565b73ffffffffffffffffffffffffffffffffffffffff16639d2cc4366040518163ffffffff1660e01b815260040160206040518083038186803b1580156168b757600080fd5b505afa1580156168cb573d6000803e3d6000fd5b505050506040513d601f19601f820116820180604052508101906168ef91906175ef565b73ffffffffffffffffffffffffffffffffffffffff16637828c71760006040518263ffffffff1660e01b81526004016169289190617c23565b600060405180830381600087803b15801561694257600080fd5b505af1158015616956573d6000803e3d6000fd5b505050505b505b5b50565b670de0b6b3a764000081118015616a8857506001151561697f616075565b73ffffffffffffffffffffffffffffffffffffffff1663b99b0a0c6040518163ffffffff1660e01b815260040160206040518083038186803b1580156169c457600080fd5b505afa1580156169d8573d6000803e3d6000fd5b505050506040513d601f19601f820116820180604052508101906169fc91906175ef565b73ffffffffffffffffffffffffffffffffffffffff16638dcb4c93846040518263ffffffff1660e01b8152600401616a349190617b7f565b60206040518083038186803b158015616a4c57600080fd5b505afa158015616a60573d6000803e3d6000fd5b505050506040513d601f19601f82011682018060405250810190616a849190617659565b1515145b15616a9857616a978282616dca565b5b5050565b60026000541415616ae2576040517f08c379a0000000000000000000000000000000000000000000000000000000008152600401616ad990617d1e565b60405180910390fd5b600260008190555060008211616b2d576040517f08c379a0000000000000000000000000000000000000000000000000000000008152600401616b2490617cfe565b60405180910390fd5b600073ffffffffffffffffffffffffffffffffffffffff168373ffffffffffffffffffffffffffffffffffffffff161415616cee57348214616b6e57600080fd5b60007f000000000000000000000000000000000000000000000000000000000000000073ffffffffffffffffffffffffffffffffffffffff1683604051616bb490617b6a565b60006040518083038185875af1925050503d8060008114616bf1576040519150601f19603f3d011682016040523d82523d6000602084013e616bf6565b606091505b5050905080616c3a576040517f08c379a0000000000000000000000000000000000000000000000000000000008152600401616c3190617c5e565b60405180910390fd5b7f000000000000000000000000000000000000000000000000000000000000000073ffffffffffffffffffffffffffffffffffffffff1663a9059cbb83856040518363ffffffff1660e01b8152600401616c95929190617bfa565b602060405180830381600087803b158015616caf57600080fd5b505af1158015616cc3573d6000803e3d6000fd5b505050506040513d601f19601f82011682018060405250810190616ce79190617659565b5050616dbd565b8273ffffffffffffffffffffffffffffffffffffffff166323b872dd3383856040518463ffffffff1660e01b8152600401616d2b93929190617bc3565b602060405180830381600087803b158015616d4557600080fd5b505af1158015616d59573d6000803e3d6000fd5b505050506040513d601f19601f82011682018060405250810190616d7d9190617659565b616dbc576040517f08c379a0000000000000000000000000000000000000000000000000000000008152600401616db390617cbe565b60405180910390fd5b5b6001600081905550505050565b60007f000000000000000000000000000000000000000000000000000000000000000073ffffffffffffffffffffffffffffffffffffffff166370a08231616e10616075565b73ffffffffffffffffffffffffffffffffffffffff16639d2cc4366040518163ffffffff1660e01b815260040160206040518083038186803b158015616e5557600080fd5b505afa158015616e69573d6000803e3d6000fd5b505050506040513d601f19601f82011682018060405250810190616e8d91906175ef565b6040518263ffffffff1660e01b8152600401616ea99190617b7f565b60206040518083038186803b158015616ec157600080fd5b505afa158015616ed5573d6000803e3d6000fd5b505050506040513d601f19601f82011682018060405250810190616ef991906176d4565b90506000616f05616075565b73ffffffffffffffffffffffffffffffffffffffff16639d2cc4366040518163ffffffff1660e01b815260040160206040518083038186803b158015616f4a57600080fd5b505afa158015616f5e573d6000803e3d6000fd5b505050506040513d601f19601f82011682018060405250810190616f8291906175ef565b73ffffffffffffffffffffffffffffffffffffffff16632267716c6040518163ffffffff1660e01b8152600401602060405180830381600087803b158015616fc957600080fd5b505af1158015616fdd573d6000803e3d6000fd5b505050506040513d601f19601f820116820180604052508101906170019190617659565b90506000821180156170105750805b1561730757600061701f616075565b73ffffffffffffffffffffffffffffffffffffffff1663b99b0a0c6040518163ffffffff1660e01b815260040160206040518083038186803b15801561706457600080fd5b505afa158015617078573d6000803e3d6000fd5b505050506040513d601f19601f8201168201806040525081019061709c91906175ef565b73ffffffffffffffffffffffffffffffffffffffff16638bc51e366040518163ffffffff1660e01b815260040160206040518083038186803b1580156170e157600080fd5b505afa1580156170f5573d6000803e3d6000fd5b505050506040513d601f19601f8201168201806040525081019061711991906176d4565b9050600454811461712c57806004819055505b600061271082600254866171409190617e9f565b61714a9190617e6e565b6171549190617e6e565b90508085600660008973ffffffffffffffffffffffffffffffffffffffff1673ffffffffffffffffffffffffffffffffffffffff168152602001908152602001600020546171a29190617e18565b1015617304576171b2858761730d565b6171ba616075565b73ffffffffffffffffffffffffffffffffffffffff16639d2cc4366040518163ffffffff1660e01b815260040160206040518083038186803b1580156171ff57600080fd5b505afa158015617213573d6000803e3d6000fd5b505050506040513d601f19601f8201168201806040525081019061723791906175ef565b73ffffffffffffffffffffffffffffffffffffffff16637d458baa86886040518363ffffffff1660e01b8152600401617271929190617d59565b600060405180830381600087803b15801561728b57600080fd5b505af115801561729f573d6000803e3d6000fd5b505050508573ffffffffffffffffffffffffffffffffffffffff1663fff6cae96040518163ffffffff1660e01b8152600401600060405180830381600087803b1580156172eb57600080fd5b505af11580156172ff573d6000803e3d6000fd5b505050505b50505b50505050565b6000600354141561732057426003819055505b62278d006003546173319190617e18565b42116173ca5781600660008373ffffffffffffffffffffffffffffffffffffffff1673ffffffffffffffffffffffffffffffffffffffff168152602001908152602001600020546173829190617e18565b600660008373ffffffffffffffffffffffffffffffffffffffff1673ffffffffffffffffffffffffffffffffffffffff16815260200190815260200160002081905550617499565b42600381905550600660008273ffffffffffffffffffffffffffffffffffffffff1673ffffffffffffffffffffffffffffffffffffffff16815260200190815260200160002054600760008373ffffffffffffffffffffffffffffffffffffffff1673ffffffffffffffffffffffffffffffffffffffff1681526020019081526020016000208190555081600660008373ffffffffffffffffffffffffffffffffffffffff1673ffffffffffffffffffffffffffffffffffffffff168152602001908152602001600020819055505b5050565b60006174b06174ab84617dd0565b617dab565b905080838252602082019050828560208602820111156174cf57600080fd5b60005b858110156174ff57816174e5888261751e565b8452602084019350602083019250506001810190506174d2565b5050509392505050565b600081359050617518816181b6565b92915050565b60008151905061752d816181b6565b92915050565b600082601f83011261754457600080fd5b815161755484826020860161749d565b91505092915050565b60008135905061756c816181cd565b92915050565b600081519050617581816181cd565b92915050565b600081519050617596816181e4565b92915050565b6000813590506175ab816181fb565b92915050565b6000815190506175c0816181fb565b92915050565b6000602082840312156175d857600080fd5b60006175e684828501617509565b91505092915050565b60006020828403121561760157600080fd5b600061760f8482850161751e565b91505092915050565b60006020828403121561762a57600080fd5b600082015167ffffffffffffffff81111561764457600080fd5b61765084828501617533565b91505092915050565b60006020828403121561766b57600080fd5b600061767984828501617572565b91505092915050565b60006020828403121561769457600080fd5b60006176a284828501617587565b91505092915050565b6000602082840312156176bd57600080fd5b60006176cb8482850161759c565b91505092915050565b6000602082840312156176e657600080fd5b60006176f4848285016175b1565b91505092915050565b6000806040838503121561771057600080fd5b600061771e8582860161759c565b925050602061772f85828601617509565b9150509250929050565b60008060006060848603121561774e57600080fd5b600061775c8682870161759c565b935050602061776d86828701617509565b925050604061777e86828701617509565b9150509250925092565b600080600080600060a086880312156177a057600080fd5b60006177ae8882890161759c565b95505060206177bf88828901617509565b94505060406177d088828901617509565b93505060606177e188828901617509565b92505060806177f28882890161759c565b9150509295509295909350565b6000806000806080858703121561781557600080fd5b60006178238782880161759c565b945050602061783487828801617509565b935050604061784587828801617509565b92505060606178568782880161759c565b91505092959194509250565b60008060006060848603121561787757600080fd5b60006178858682870161759c565b93505060206178968682870161755d565b92505060406178a786828701617509565b9150509250925092565b600080600080608085870312156178c757600080fd5b60006178d58782880161759c565b94505060206178e68782880161755d565b93505060406178f787828801617509565b925050606061790887828801617509565b91505092959194509250565b6000806040838503121561792757600080fd5b6000617935858286016175b1565b9250506020617946858286016175b1565b9150509250929050565b60008060006060848603121561796557600080fd5b60006179738682870161759c565b93505060206179848682870161759c565b925050604061799586828701617509565b9150509250925092565b600080600080608085870312156179b557600080fd5b60006179c38782880161759c565b94505060206179d48782880161759c565b93505060406179e587828801617509565b92505060606179f687828801617509565b91505092959194509250565b617a0b81617ef9565b82525050565b617a1a81617f0b565b82525050565b6000617a2d600583617e07565b9150617a388261806b565b602082019050919050565b6000617a50600583617e07565b9150617a5b82618094565b602082019050919050565b6000617a73600683617e07565b9150617a7e826180bd565b602082019050919050565b6000617a96600583617e07565b9150617aa1826180e6565b602082019050919050565b6000617ab9600983617e07565b9150617ac48261810f565b602082019050919050565b6000617adc600083617dfc565b9150617ae782618138565b600082019050919050565b6000617aff600583617e07565b9150617b0a8261813b565b602082019050919050565b6000617b22600483617e07565b9150617b2d82618164565b602082019050919050565b6000617b45601f83617e07565b9150617b508261818d565b602082019050919050565b617b6481617f49565b82525050565b6000617b7582617acf565b9150819050919050565b6000602082019050617b946000830184617a02565b92915050565b6000604082019050617baf6000830185617a02565b617bbc6020830184617a02565b9392505050565b6000606082019050617bd86000830186617a02565b617be56020830185617a02565b617bf26040830184617b5b565b949350505050565b6000604082019050617c0f6000830185617a02565b617c1c6020830184617b5b565b9392505050565b6000602082019050617c386000830184617a11565b92915050565b60006020820190508181036000830152617c5781617a20565b9050919050565b60006020820190508181036000830152617c7781617a43565b9050919050565b60006020820190508181036000830152617c9781617a66565b9050919050565b60006020820190508181036000830152617cb781617a89565b9050919050565b60006020820190508181036000830152617cd781617aac565b9050919050565b60006020820190508181036000830152617cf781617af2565b9050919050565b60006020820190508181036000830152617d1781617b15565b9050919050565b60006020820190508181036000830152617d3781617b38565b9050919050565b6000602082019050617d536000830184617b5b565b92915050565b6000604082019050617d6e6000830185617b5b565b617d7b6020830184617a02565b9392505050565b6000604082019050617d976000830185617b5b565b617da46020830184617b5b565b9392505050565b6000617db5617dc6565b9050617dc18282617f53565b919050565b6000604051905090565b600067ffffffffffffffff821115617deb57617dea61802b565b5b602082029050602081019050919050565b600081905092915050565b600082825260208201905092915050565b6000617e2382617f49565b9150617e2e83617f49565b9250827fffffffffffffffffffffffffffffffffffffffffffffffffffffffffffffffff03821115617e6357617e62617fcd565b5b828201905092915050565b6000617e7982617f49565b9150617e8483617f49565b925082617e9457617e93617ffc565b5b828204905092915050565b6000617eaa82617f49565b9150617eb583617f49565b9250817fffffffffffffffffffffffffffffffffffffffffffffffffffffffffffffffff0483118215151615617eee57617eed617fcd565b5b828202905092915050565b6000617f0482617f29565b9050919050565b60008115159050919050565b6000617f2282617ef9565b9050919050565b600073ffffffffffffffffffffffffffffffffffffffff82169050919050565b6000819050919050565b617f5c8261805a565b810181811067ffffffffffffffff82111715617f7b57617f7a61802b565b5b80604052505050565b6000617f8f82617f49565b91507fffffffffffffffffffffffffffffffffffffffffffffffffffffffffffffffff821415617fc257617fc1617fcd565b5b600182019050919050565b7f4e487b7100000000000000000000000000000000000000000000000000000000600052601160045260246000fd5b7f4e487b7100000000000000000000000000000000000000000000000000000000600052601260045260246000fd5b7f4e487b7100000000000000000000000000000000000000000000000000000000600052604160045260246000fd5b6000601f19601f8301169050919050565b7f21504f4f4c000000000000000000000000000000000000000000000000000000600082015250565b7f2173656e64000000000000000000000000000000000000000000000000000000600082015250565b7f2156414c49440000000000000000000000000000000000000000000000000000600082015250565b7f2152415445000000000000000000000000000000000000000000000000000000600082015250565b7f217472616e736665720000000000000000000000000000000000000000000000600082015250565b50565b7f2153414645000000000000000000000000000000000000000000000000000000600082015250565b7f2147415300000000000000000000000000000000000000000000000000000000600082015250565b7f5265656e7472616e637947756172643a207265656e7472616e742063616c6c00600082015250565b6181bf81617ef9565b81146181ca57600080fd5b50565b6181d681617f0b565b81146181e157600080fd5b50565b6181ed81617f17565b81146181f857600080fd5b50565b61820481617f49565b811461820f57600080fd5b5056fea26469706673582212202ce2b4a8b230f10d7510b1f8bc68b3a75d05051806e17747ff8354aff34e3f2f64736f6c63430008030033",
  "linkReferences": {},
  "deployedLinkReferences": {}
}