{
  "_format": "hh-sol-artifact-1",
  "contractName": "Router",
  "sourceName": "contracts/Router.sol",
  "abi": [
    {
      "inputs": [
        {
          "internalType": "address",
          "name": "_base",
          "type": "address"
        },
        {
          "internalType": "address",
          "name": "_wbnb",
          "type": "address"
        }
      ],
      "stateMutability": "nonpayable",
      "type": "constructor"
    },
    {
      "inputs": [],
      "name": "BASE",
      "outputs": [
        {
          "internalType": "address",
          "name": "",
          "type": "address"
        }
      ],
      "stateMutability": "view",
      "type": "function"
    },
    {
      "inputs": [],
      "name": "DEPLOYER",
      "outputs": [
        {
          "internalType": "address",
          "name": "",
          "type": "address"
        }
      ],
      "stateMutability": "view",
      "type": "function"
    },
    {
      "inputs": [
        {
          "internalType": "uint256",
          "name": "poolRTC",
          "type": "uint256"
        },
        {
          "internalType": "address",
          "name": "_pool",
          "type": "address"
        }
      ],
      "name": "RTC",
      "outputs": [],
      "stateMutability": "nonpayable",
      "type": "function"
    },
    {
      "inputs": [],
      "name": "WBNB",
      "outputs": [
        {
          "internalType": "address",
          "name": "",
          "type": "address"
        }
      ],
      "stateMutability": "view",
      "type": "function"
    },
    {
      "inputs": [
        {
          "internalType": "uint256",
          "name": "inputToken",
          "type": "uint256"
        },
        {
          "internalType": "address",
          "name": "token",
          "type": "address"
        }
      ],
      "name": "addLiquidity",
      "outputs": [],
      "stateMutability": "payable",
      "type": "function"
    },
    {
      "inputs": [
        {
          "internalType": "uint256",
          "name": "input",
          "type": "uint256"
        },
        {
          "internalType": "bool",
          "name": "fromBase",
          "type": "bool"
        },
        {
          "internalType": "address",
          "name": "token",
          "type": "address"
        }
      ],
      "name": "addLiquidityAsym",
      "outputs": [],
      "stateMutability": "payable",
      "type": "function"
    },
    {
      "inputs": [
        {
          "internalType": "uint256",
          "name": "_input",
          "type": "uint256"
        },
        {
          "internalType": "bool",
          "name": "_fromBase",
          "type": "bool"
        },
        {
          "internalType": "address",
          "name": "token",
          "type": "address"
        },
        {
          "internalType": "address",
          "name": "_member",
          "type": "address"
        }
      ],
      "name": "addLiquidityAsymForMember",
      "outputs": [],
      "stateMutability": "payable",
      "type": "function"
    },
    {
      "inputs": [
        {
          "internalType": "uint256",
          "name": "inputToken",
          "type": "uint256"
        },
        {
          "internalType": "address",
          "name": "token",
          "type": "address"
        },
        {
          "internalType": "address",
          "name": "member",
          "type": "address"
        }
      ],
      "name": "addLiquidityForMember",
      "outputs": [],
      "stateMutability": "payable",
      "type": "function"
    },
    {
      "inputs": [
        {
          "internalType": "uint256",
          "name": "amount",
          "type": "uint256"
        },
        {
          "internalType": "address",
          "name": "token",
          "type": "address"
        },
        {
          "internalType": "address",
          "name": "member",
          "type": "address"
        },
        {
          "internalType": "uint256",
          "name": "minAmount",
          "type": "uint256"
        }
      ],
      "name": "buyTo",
      "outputs": [],
      "stateMutability": "nonpayable",
      "type": "function"
    },
    {
      "inputs": [
        {
          "internalType": "uint256",
          "name": "_newDiviClaim",
          "type": "uint256"
        }
      ],
      "name": "changeDiviClaim",
      "outputs": [],
      "stateMutability": "nonpayable",
      "type": "function"
    },
    {
      "inputs": [
        {
          "internalType": "uint256",
          "name": "_globalCap",
          "type": "uint256"
        }
      ],
      "name": "changeGlobalCap",
      "outputs": [],
      "stateMutability": "nonpayable",
      "type": "function"
    },
    {
      "inputs": [
        {
          "internalType": "uint256",
          "name": "newMinimum",
          "type": "uint256"
        },
        {
          "internalType": "address",
          "name": "_pool",
          "type": "address"
        }
      ],
      "name": "changeMinimumSynth",
      "outputs": [],
      "stateMutability": "nonpayable",
      "type": "function"
    },
    {
      "inputs": [
        {
          "internalType": "uint256",
          "name": "synthCap",
          "type": "uint256"
        },
        {
          "internalType": "address",
          "name": "_pool",
          "type": "address"
        }
      ],
      "name": "changeSynthCap",
      "outputs": [],
      "stateMutability": "nonpayable",
      "type": "function"
    },
    {
      "inputs": [],
      "name": "curatedPoolsCount",
      "outputs": [
        {
          "internalType": "uint256",
          "name": "",
          "type": "uint256"
        }
      ],
      "stateMutability": "view",
      "type": "function"
    },
    {
      "inputs": [],
      "name": "diviClaim",
      "outputs": [
        {
          "internalType": "uint256",
          "name": "",
          "type": "uint256"
        }
      ],
      "stateMutability": "view",
      "type": "function"
    },
    {
      "inputs": [],
      "name": "globalCap",
      "outputs": [
        {
          "internalType": "uint256",
          "name": "",
          "type": "uint256"
        }
      ],
      "stateMutability": "view",
      "type": "function"
    },
    {
      "inputs": [],
      "name": "lastMonth",
      "outputs": [
        {
          "internalType": "uint256",
          "name": "",
          "type": "uint256"
        }
      ],
      "stateMutability": "view",
      "type": "function"
    },
    {
      "inputs": [
        {
          "internalType": "address",
          "name": "",
          "type": "address"
        }
      ],
      "name": "mapAddress_30DayDividends",
      "outputs": [
        {
          "internalType": "uint256",
          "name": "",
          "type": "uint256"
        }
      ],
      "stateMutability": "view",
      "type": "function"
    },
    {
      "inputs": [
        {
          "internalType": "address",
          "name": "",
          "type": "address"
        }
      ],
      "name": "mapAddress_Past30DayPoolDividends",
      "outputs": [
        {
          "internalType": "uint256",
          "name": "",
          "type": "uint256"
        }
      ],
      "stateMutability": "view",
      "type": "function"
    },
    {
      "inputs": [],
      "name": "purgeDeployer",
      "outputs": [],
      "stateMutability": "nonpayable",
      "type": "function"
    },
    {
      "inputs": [
        {
          "internalType": "uint256",
          "name": "basisPoints",
          "type": "uint256"
        },
        {
          "internalType": "address",
          "name": "token",
          "type": "address"
        }
      ],
      "name": "removeLiquidity",
      "outputs": [],
      "stateMutability": "nonpayable",
      "type": "function"
    },
    {
      "inputs": [
        {
          "internalType": "uint256",
          "name": "units",
          "type": "uint256"
        },
        {
          "internalType": "bool",
          "name": "toBase",
          "type": "bool"
        },
        {
          "internalType": "address",
          "name": "token",
          "type": "address"
        }
      ],
      "name": "removeLiquidityAsym",
      "outputs": [],
      "stateMutability": "nonpayable",
      "type": "function"
    },
    {
      "inputs": [
        {
          "internalType": "uint256",
          "name": "units",
          "type": "uint256"
        },
        {
          "internalType": "address",
          "name": "token",
          "type": "address"
        }
      ],
      "name": "removeLiquidityExact",
      "outputs": [],
      "stateMutability": "nonpayable",
      "type": "function"
    },
    {
      "inputs": [
        {
          "internalType": "uint256",
          "name": "amount",
          "type": "uint256"
        },
        {
          "internalType": "address",
          "name": "token",
          "type": "address"
        },
        {
          "internalType": "address",
          "name": "member",
          "type": "address"
        },
        {
          "internalType": "uint256",
          "name": "minAmount",
          "type": "uint256"
        }
      ],
      "name": "sellTo",
      "outputs": [
        {
          "internalType": "uint256",
          "name": "",
          "type": "uint256"
        }
      ],
      "stateMutability": "payable",
      "type": "function"
    },
    {
      "inputs": [
        {
          "internalType": "uint256",
          "name": "inputAmount",
          "type": "uint256"
        },
        {
          "internalType": "address",
          "name": "fromToken",
          "type": "address"
        },
        {
          "internalType": "address",
          "name": "toToken",
          "type": "address"
        },
        {
          "internalType": "uint256",
          "name": "minAmount",
          "type": "uint256"
        }
      ],
      "name": "swap",
      "outputs": [],
      "stateMutability": "payable",
      "type": "function"
    },
    {
      "inputs": [
        {
          "internalType": "uint256",
          "name": "inputAmount",
          "type": "uint256"
        },
        {
          "internalType": "address",
          "name": "fromToken",
          "type": "address"
        },
        {
          "internalType": "address",
          "name": "toSynth",
          "type": "address"
        }
      ],
      "name": "swapAssetToSynth",
      "outputs": [],
      "stateMutability": "payable",
      "type": "function"
    },
    {
      "inputs": [
        {
          "internalType": "uint256",
          "name": "inputAmount",
          "type": "uint256"
        },
        {
          "internalType": "address",
          "name": "fromSynth",
          "type": "address"
        },
        {
          "internalType": "address",
          "name": "toToken",
          "type": "address"
        }
      ],
      "name": "swapSynthToAsset",
      "outputs": [],
      "stateMutability": "nonpayable",
      "type": "function"
    },
    {
      "inputs": [
        {
          "internalType": "uint256",
          "name": "inputAmount",
          "type": "uint256"
        },
        {
          "internalType": "address",
          "name": "fromToken",
          "type": "address"
        },
        {
          "internalType": "address",
          "name": "toToken",
          "type": "address"
        },
        {
          "internalType": "address",
          "name": "member",
          "type": "address"
        },
        {
          "internalType": "uint256",
          "name": "minAmount",
          "type": "uint256"
        }
      ],
      "name": "swapTo",
      "outputs": [],
      "stateMutability": "payable",
      "type": "function"
    },
    {
      "inputs": [
        {
          "internalType": "uint256",
          "name": "unitsInput",
          "type": "uint256"
        },
        {
          "internalType": "address",
          "name": "fromPool",
          "type": "address"
        },
        {
          "internalType": "address",
          "name": "toPool",
          "type": "address"
        }
      ],
      "name": "zapLiquidity",
      "outputs": [],
      "stateMutability": "nonpayable",
      "type": "function"
    },
    {
      "stateMutability": "payable",
      "type": "receive"
    }
  ],
  "bytecode": "0x60c06040523480156200001157600080fd5b506040516200761b3803806200761b833981810160405281019062000037919062000204565b6001600081905550600073ffffffffffffffffffffffffffffffffffffffff168273ffffffffffffffffffffffffffffffffffffffff161415620000b2576040517f08c379a0000000000000000000000000000000000000000000000000000000008152600401620000a9906200026c565b60405180910390fd5b600073ffffffffffffffffffffffffffffffffffffffff168173ffffffffffffffffffffffffffffffffffffffff16141562000125576040517f08c379a00000000000000000000000000000000000000000000000000000000081526004016200011c906200026c565b60405180910390fd5b8173ffffffffffffffffffffffffffffffffffffffff1660808173ffffffffffffffffffffffffffffffffffffffff1660601b815250508073ffffffffffffffffffffffffffffffffffffffff1660a08173ffffffffffffffffffffffffffffffffffffffff1660601b815250506107d0600381905550606460028190555033600160006101000a81548173ffffffffffffffffffffffffffffffffffffffff021916908373ffffffffffffffffffffffffffffffffffffffff160217905550505062000316565b600081519050620001fe81620002fc565b92915050565b600080604083850312156200021857600080fd5b60006200022885828601620001ed565b92505060206200023b85828601620001ed565b9150509250929050565b6000620002546005836200028e565b91506200026182620002d3565b602082019050919050565b60006020820190508181036000830152620002878162000245565b9050919050565b600082825260208201905092915050565b6000620002ac82620002b3565b9050919050565b600073ffffffffffffffffffffffffffffffffffffffff82169050919050565b7f215a45524f000000000000000000000000000000000000000000000000000000600082015250565b62000307816200029f565b81146200031357600080fd5b50565b60805160601c60a05160601c6171c16200045a60003960008181611ac001528181611fc40152818161245001528181612f0a015281816134ff01528181614d63015281816155ba01528181615bfb01528181615cc50152615ee10152600081816111290152818161118a015281816111c7015281816112e50152818161168f015281816117c60152818161182b01528181611ffe015281816120be01528181612108015281816121340152818161215501528181612bd401528181612d5301528181612d740152818161365d015281816136f3015281816137300152818161388c015281816138c901528181614160015281816141f201528181614231015281816143e20152818161441f01528181614cb601528181614e1c01528181614e7e015281816151a50152818161545f015281816156bf01526160fb01526171c16000f3fe6080604052600436106101c65760003560e01c806399a2af75116100f7578063c1b8411a11610095578063ec342ad011610064578063ec342ad0146105ac578063ee85eda4146105d7578063f475570214610602578063f48610f31461061e576101cd565b8063c1b8411a146104ff578063c8c1fb751461052a578063c95f9d0e14610553578063cbb3a14a1461056f576101cd565b8063a1cd6aa5116100d1578063a1cd6aa514610468578063aa62519b14610491578063b3a14007146104ad578063b45e1dbc146104d6576101cd565b806399a2af75146103e957806399d786ca146104145780639ea5705a1461043f576101cd565b80633e384a95116101645780636325681e1161013e5780636325681e1461035d57806370085be0146103795780638b697c20146103955780638dd95002146103be576101cd565b80633e384a95146102db578063451918db146102f75780635777646714610334576101cd565b806307f4d34c116101a057806307f4d34c1461023b5780633173ec3c14610264578063334ea13314610280578063398ceaae146102b0576101cd565b8063022c4437146101d257806303a82138146101fb57806305fe138b14610212576101cd565b366101cd57005b600080fd5b3480156101de57600080fd5b506101f960048036038101906101f49190616833565b610647565b005b34801561020757600080fd5b506102106107ca565b005b34801561021e57600080fd5b5061023960048036038101906102349190616833565b610922565b005b34801561024757600080fd5b50610262600480360381019061025d91906167e1565b610c1b565b005b61027e6004803603810190610279919061686f565b610d89565b005b61029a60048036038101906102959190616935565b61147b565b6040516102a79190616dc2565b60405180910390f35b3480156102bc57600080fd5b506102c5611785565b6040516102d29190616dc2565b60405180910390f35b6102f560048036038101906102f091906168be565b61178b565b005b34801561030357600080fd5b5061031e6004803603810190610319919061673d565b611c6b565b60405161032b9190616dc2565b60405180910390f35b34801561034057600080fd5b5061035b600480360381019061035691906167e1565b611c83565b005b610377600480360381019061037291906169e7565b611da1565b005b610393600480360381019061038e9190616935565b6122b8565b005b3480156103a157600080fd5b506103bc60048036038101906103b79190616833565b6122cb565b005b3480156103ca57600080fd5b506103d361244e565b6040516103e09190616c03565b60405180910390f35b3480156103f557600080fd5b506103fe612472565b60405161040b9190616dc2565b60405180910390f35b34801561042057600080fd5b50610429612478565b6040516104369190616dc2565b60405180910390f35b34801561044b57600080fd5b5061046660048036038101906104619190616833565b61247e565b005b34801561047457600080fd5b5061048f600480360381019061048a919061686f565b612601565b005b6104ab60048036038101906104a69190616998565b612fde565b005b3480156104b957600080fd5b506104d460048036038101906104cf9190616998565b612fef565b005b3480156104e257600080fd5b506104fd60048036038101906104f8919061686f565b613b23565b005b34801561050b57600080fd5b506105146146f3565b6040516105219190616c03565b60405180910390f35b34801561053657600080fd5b50610551600480360381019061054c9190616833565b614719565b005b61056d60048036038101906105689190616833565b614e55565b005b34801561057b57600080fd5b506105966004803603810190610591919061673d565b614e64565b6040516105a39190616dc2565b60405180910390f35b3480156105b857600080fd5b506105c1614e7c565b6040516105ce9190616c03565b60405180910390f35b3480156105e357600080fd5b506105ec614ea0565b6040516105f99190616dc2565b60405180910390f35b61061c6004803603810190610617919061686f565b614ea6565b005b34801561062a57600080fd5b5061064560048036038101906106409190616935565b615273565b005b61064f6156bb565b73ffffffffffffffffffffffffffffffffffffffff166398fabd3a6040518163ffffffff1660e01b815260040160206040518083038186803b15801561069457600080fd5b505afa1580156106a8573d6000803e3d6000fd5b505050506040513d601f19601f820116820180604052508101906106cc9190616766565b73ffffffffffffffffffffffffffffffffffffffff163373ffffffffffffffffffffffffffffffffffffffff1614806107525750600160009054906101000a900473ffffffffffffffffffffffffffffffffffffffff1673ffffffffffffffffffffffffffffffffffffffff163373ffffffffffffffffffffffffffffffffffffffff16145b61075b57600080fd5b8073ffffffffffffffffffffffffffffffffffffffff1663308aca1d836040518263ffffffff1660e01b81526004016107949190616dc2565b600060405180830381600087803b1580156107ae57600080fd5b505af11580156107c2573d6000803e3d6000fd5b505050505050565b6107d26156bb565b73ffffffffffffffffffffffffffffffffffffffff166398fabd3a6040518163ffffffff1660e01b815260040160206040518083038186803b15801561081757600080fd5b505afa15801561082b573d6000803e3d6000fd5b505050506040513d601f19601f8201168201806040525081019061084f9190616766565b73ffffffffffffffffffffffffffffffffffffffff163373ffffffffffffffffffffffffffffffffffffffff1614806108d55750600160009054906101000a900473ffffffffffffffffffffffffffffffffffffffff1673ffffffffffffffffffffffffffffffffffffffff163373ffffffffffffffffffffffffffffffffffffffff16145b6108de57600080fd5b6000600160006101000a81548173ffffffffffffffffffffffffffffffffffffffff021916908373ffffffffffffffffffffffffffffffffffffffff160217905550565b60008211610965576040517f08c379a000000000000000000000000000000000000000000000000000000000815260040161095c90616d02565b60405180910390fd5b600061096f6156bb565b73ffffffffffffffffffffffffffffffffffffffff16637b0e5c456040518163ffffffff1660e01b815260040160206040518083038186803b1580156109b457600080fd5b505afa1580156109c8573d6000803e3d6000fd5b505050506040513d601f19601f820116820180604052508101906109ec9190616766565b73ffffffffffffffffffffffffffffffffffffffff1663714270ab84610a106156bb565b73ffffffffffffffffffffffffffffffffffffffff1663b99b0a0c6040518163ffffffff1660e01b815260040160206040518083038186803b158015610a5557600080fd5b505afa158015610a69573d6000803e3d6000fd5b505050506040513d601f19601f82011682018060405250810190610a8d9190616766565b73ffffffffffffffffffffffffffffffffffffffff1663bbe4f6db866040518263ffffffff1660e01b8152600401610ac59190616c03565b60206040518083038186803b158015610add57600080fd5b505afa158015610af1573d6000803e3d6000fd5b505050506040513d601f19601f82011682018060405250810190610b159190616766565b73ffffffffffffffffffffffffffffffffffffffff166370a08231336040518263ffffffff1660e01b8152600401610b4d9190616c03565b60206040518083038186803b158015610b6557600080fd5b505afa158015610b79573d6000803e3d6000fd5b505050506040513d601f19601f82011682018060405250810190610b9d919061680a565b6040518363ffffffff1660e01b8152600401610bba929190616e06565b60206040518083038186803b158015610bd257600080fd5b505afa158015610be6573d6000803e3d6000fd5b505050506040513d601f19601f82011682018060405250810190610c0a919061680a565b9050610c168183614719565b505050565b610c236156bb565b73ffffffffffffffffffffffffffffffffffffffff166398fabd3a6040518163ffffffff1660e01b815260040160206040518083038186803b158015610c6857600080fd5b505afa158015610c7c573d6000803e3d6000fd5b505050506040513d601f19601f82011682018060405250810190610ca09190616766565b73ffffffffffffffffffffffffffffffffffffffff163373ffffffffffffffffffffffffffffffffffffffff161480610d265750600160009054906101000a900473ffffffffffffffffffffffffffffffffffffffff1673ffffffffffffffffffffffffffffffffffffffff163373ffffffffffffffffffffffffffffffffffffffff16145b610d2f57600080fd5b600081118015610d40575061138881105b610d7f576040517f08c379a0000000000000000000000000000000000000000000000000000000008152600401610d7690616d02565b60405180910390fd5b8060028190555050565b60008311610dcc576040517f08c379a0000000000000000000000000000000000000000000000000000000008152600401610dc390616d02565b60405180910390fd5b8073ffffffffffffffffffffffffffffffffffffffff168273ffffffffffffffffffffffffffffffffffffffff161415610e0557600080fd5b60011515610e116156bb565b73ffffffffffffffffffffffffffffffffffffffff16639d2cc4366040518163ffffffff1660e01b815260040160206040518083038186803b158015610e5657600080fd5b505afa158015610e6a573d6000803e3d6000fd5b505050506040513d601f19601f82011682018060405250810190610e8e9190616766565b73ffffffffffffffffffffffffffffffffffffffff1663194e22ce6040518163ffffffff1660e01b8152600401602060405180830381600087803b158015610ed557600080fd5b505af1158015610ee9573d6000803e3d6000fd5b505050506040513d601f19601f82011682018060405250810190610f0d919061678f565b15151415610f50576040517f08c379a0000000000000000000000000000000000000000000000000000000008152600401610f4790616d62565b60405180910390fd5b60008173ffffffffffffffffffffffffffffffffffffffff16637535d2466040518163ffffffff1660e01b815260040160206040518083038186803b158015610f9857600080fd5b505afa158015610fac573d6000803e3d6000fd5b505050506040513d601f19601f82011682018060405250810190610fd09190616766565b905060011515610fde6156bb565b73ffffffffffffffffffffffffffffffffffffffff1663b99b0a0c6040518163ffffffff1660e01b815260040160206040518083038186803b15801561102357600080fd5b505afa158015611037573d6000803e3d6000fd5b505050506040513d601f19601f8201168201806040525081019061105b9190616766565b73ffffffffffffffffffffffffffffffffffffffff16635b16ebb7836040518263ffffffff1660e01b81526004016110939190616c03565b602060405180830381600087803b1580156110ad57600080fd5b505af11580156110c1573d6000803e3d6000fd5b505050506040513d601f19601f820116820180604052508101906110e5919061678f565b151514611127576040517f08c379a000000000000000000000000000000000000000000000000000000000815260040161111e90616cc2565b60405180910390fd5b7f000000000000000000000000000000000000000000000000000000000000000073ffffffffffffffffffffffffffffffffffffffff168373ffffffffffffffffffffffffffffffffffffffff16146112e357611187848430600061147b565b507f000000000000000000000000000000000000000000000000000000000000000073ffffffffffffffffffffffffffffffffffffffff1663a9059cbb827f000000000000000000000000000000000000000000000000000000000000000073ffffffffffffffffffffffffffffffffffffffff166370a08231306040518263ffffffff1660e01b815260040161121e9190616c03565b60206040518083038186803b15801561123657600080fd5b505afa15801561124a573d6000803e3d6000fd5b505050506040513d601f19601f8201168201806040525081019061126e919061680a565b6040518363ffffffff1660e01b815260040161128b929190616c7e565b602060405180830381600087803b1580156112a557600080fd5b505af11580156112b9573d6000803e3d6000fd5b505050506040513d601f19601f820116820180604052508101906112dd919061678f565b506113d2565b7f000000000000000000000000000000000000000000000000000000000000000073ffffffffffffffffffffffffffffffffffffffff166323b872dd3383876040518463ffffffff1660e01b815260040161134093929190616c47565b602060405180830381600087803b15801561135a57600080fd5b505af115801561136e573d6000803e3d6000fd5b505050506040513d601f19601f82011682018060405250810190611392919061678f565b6113d1576040517f08c379a00000000000000000000000000000000000000000000000000000000081526004016113c890616d42565b60405180910390fd5b5b60008173ffffffffffffffffffffffffffffffffffffffff1663f1bbdef2336040518263ffffffff1660e01b815260040161140d9190616c03565b6040805180830381600087803b15801561142657600080fd5b505af115801561143a573d6000803e3d6000fd5b505050506040513d601f19601f8201168201806040525081019061145e9190616a4a565b91505061146a82615760565b61147482826159ea565b5050505050565b6000806114866156bb565b73ffffffffffffffffffffffffffffffffffffffff1663b99b0a0c6040518163ffffffff1660e01b815260040160206040518083038186803b1580156114cb57600080fd5b505afa1580156114df573d6000803e3d6000fd5b505050506040513d601f19601f820116820180604052508101906115039190616766565b905060008173ffffffffffffffffffffffffffffffffffffffff1663bbe4f6db876040518263ffffffff1660e01b81526004016115409190616c03565b60206040518083038186803b15801561155857600080fd5b505afa15801561156c573d6000803e3d6000fd5b505050506040513d601f19601f820116820180604052508101906115909190616766565b9050600115158273ffffffffffffffffffffffffffffffffffffffff16635b16ebb7836040518263ffffffff1660e01b81526004016115cf9190616c03565b602060405180830381600087803b1580156115e957600080fd5b505af11580156115fd573d6000803e3d6000fd5b505050506040513d601f19601f82011682018060405250810190611621919061678f565b151514611663576040517f08c379a000000000000000000000000000000000000000000000000000000000815260040161165a90616cc2565b60405180910390fd5b61166e868883615b25565b6000808273ffffffffffffffffffffffffffffffffffffffff16632783e4a97f0000000000000000000000000000000000000000000000000000000000000000896040518363ffffffff1660e01b81526004016116cc929190616c1e565b6040805180830381600087803b1580156116e557600080fd5b505af11580156116f9573d6000803e3d6000fd5b505050506040513d601f19601f8201168201806040525081019061171d9190616a4a565b91509150858211611763576040517f08c379a000000000000000000000000000000000000000000000000000000000815260040161175a90616d22565b60405180910390fd5b61176c83615760565b61177683826159ea565b80945050505050949350505050565b60055481565b8273ffffffffffffffffffffffffffffffffffffffff168473ffffffffffffffffffffffffffffffffffffffff1614156117c457600080fd5b7f000000000000000000000000000000000000000000000000000000000000000073ffffffffffffffffffffffffffffffffffffffff168473ffffffffffffffffffffffffffffffffffffffff1614156118295761182485848484615273565b611c64565b7f000000000000000000000000000000000000000000000000000000000000000073ffffffffffffffffffffffffffffffffffffffff168373ffffffffffffffffffffffffffffffffffffffff16141561188f576118898585848461147b565b50611c63565b60006118996156bb565b73ffffffffffffffffffffffffffffffffffffffff1663b99b0a0c6040518163ffffffff1660e01b815260040160206040518083038186803b1580156118de57600080fd5b505afa1580156118f2573d6000803e3d6000fd5b505050506040513d601f19601f820116820180604052508101906119169190616766565b905060008173ffffffffffffffffffffffffffffffffffffffff1663bbe4f6db866040518263ffffffff1660e01b81526004016119539190616c03565b60206040518083038186803b15801561196b57600080fd5b505afa15801561197f573d6000803e3d6000fd5b505050506040513d601f19601f820116820180604052508101906119a39190616766565b9050600115158273ffffffffffffffffffffffffffffffffffffffff16635b16ebb7836040518263ffffffff1660e01b81526004016119e29190616c03565b602060405180830381600087803b1580156119fc57600080fd5b505af1158015611a10573d6000803e3d6000fd5b505050506040513d601f19601f82011682018060405250810190611a34919061678f565b151514611a76576040517f08c379a0000000000000000000000000000000000000000000000000000000008152600401611a6d90616cc2565b60405180910390fd5b611a83878783600061147b565b506000859050600073ffffffffffffffffffffffffffffffffffffffff168673ffffffffffffffffffffffffffffffffffffffff161415611ae2577f000000000000000000000000000000000000000000000000000000000000000090505b6000808373ffffffffffffffffffffffffffffffffffffffff16632783e4a984306040518363ffffffff1660e01b8152600401611b20929190616c1e565b6040805180830381600087803b158015611b3957600080fd5b505af1158015611b4d573d6000803e3d6000fd5b505050506040513d601f19601f82011682018060405250810190611b719190616a4a565b91509150858211611bb7576040517f08c379a0000000000000000000000000000000000000000000000000000000008152600401611bae90616d22565b60405180910390fd5b611bc084615760565b611bca84826159ea565b611c5d888473ffffffffffffffffffffffffffffffffffffffff166370a08231306040518263ffffffff1660e01b8152600401611c079190616c03565b60206040518083038186803b158015611c1f57600080fd5b505afa158015611c33573d6000803e3d6000fd5b505050506040513d601f19601f82011682018060405250810190611c57919061680a565b89615e53565b50505050505b5b5050505050565b60076020528060005260406000206000915090505481565b611c8b6156bb565b73ffffffffffffffffffffffffffffffffffffffff166398fabd3a6040518163ffffffff1660e01b815260040160206040518083038186803b158015611cd057600080fd5b505afa158015611ce4573d6000803e3d6000fd5b505050506040513d601f19601f82011682018060405250810190611d089190616766565b73ffffffffffffffffffffffffffffffffffffffff163373ffffffffffffffffffffffffffffffffffffffff161480611d8e5750600160009054906101000a900473ffffffffffffffffffffffffffffffffffffffff1673ffffffffffffffffffffffffffffffffffffffff163373ffffffffffffffffffffffffffffffffffffffff16145b611d9757600080fd5b8060038190555050565b6000611dab6156bb565b73ffffffffffffffffffffffffffffffffffffffff1663b99b0a0c6040518163ffffffff1660e01b815260040160206040518083038186803b158015611df057600080fd5b505afa158015611e04573d6000803e3d6000fd5b505050506040513d601f19601f82011682018060405250810190611e289190616766565b905060008173ffffffffffffffffffffffffffffffffffffffff1663bbe4f6db856040518263ffffffff1660e01b8152600401611e659190616c03565b60206040518083038186803b158015611e7d57600080fd5b505afa158015611e91573d6000803e3d6000fd5b505050506040513d601f19601f82011682018060405250810190611eb59190616766565b9050600115158273ffffffffffffffffffffffffffffffffffffffff16635b16ebb7836040518263ffffffff1660e01b8152600401611ef49190616c03565b602060405180830381600087803b158015611f0e57600080fd5b505af1158015611f22573d6000803e3d6000fd5b505050506040513d601f19601f82011682018060405250810190611f46919061678f565b151514611f88576040517f08c379a0000000000000000000000000000000000000000000000000000000008152600401611f7f90616cc2565b60405180910390fd5b6000849050600073ffffffffffffffffffffffffffffffffffffffff168573ffffffffffffffffffffffffffffffffffffffff161415611fe6577f000000000000000000000000000000000000000000000000000000000000000090505b85156120f557612026600288611ffc9190616ea1565b7f00000000000000000000000000000000000000000000000000000000000000008730600061178b565b6120b9818273ffffffffffffffffffffffffffffffffffffffff166370a08231306040518263ffffffff1660e01b81526004016120639190616c03565b60206040518083038186803b15801561207b57600080fd5b505afa15801561208f573d6000803e3d6000fd5b505050506040513d601f19601f820116820180604052508101906120b3919061680a565b84615e53565b6120f07f00000000000000000000000000000000000000000000000000000000000000006002896120ea9190616ea1565b84615b25565b61221a565b61212f6002886121059190616ea1565b867f000000000000000000000000000000000000000000000000000000000000000030600061178b565b6122027f00000000000000000000000000000000000000000000000000000000000000007f000000000000000000000000000000000000000000000000000000000000000073ffffffffffffffffffffffffffffffffffffffff166370a08231306040518263ffffffff1660e01b81526004016121ac9190616c03565b60206040518083038186803b1580156121c457600080fd5b505afa1580156121d8573d6000803e3d6000fd5b505050506040513d601f19601f820116820180604052508101906121fc919061680a565b84615e53565b612219856002896122139190616ea1565b84615b25565b5b8173ffffffffffffffffffffffffffffffffffffffff166386d5f618856040518263ffffffff1660e01b81526004016122539190616c03565b602060405180830381600087803b15801561226d57600080fd5b505af1158015612281573d6000803e3d6000fd5b505050506040513d601f19601f820116820180604052508101906122a5919061680a565b506122af82615760565b50505050505050565b6122c5848484338561178b565b50505050565b6122d36156bb565b73ffffffffffffffffffffffffffffffffffffffff166398fabd3a6040518163ffffffff1660e01b815260040160206040518083038186803b15801561231857600080fd5b505afa15801561232c573d6000803e3d6000fd5b505050506040513d601f19601f820116820180604052508101906123509190616766565b73ffffffffffffffffffffffffffffffffffffffff163373ffffffffffffffffffffffffffffffffffffffff1614806123d65750600160009054906101000a900473ffffffffffffffffffffffffffffffffffffffff1673ffffffffffffffffffffffffffffffffffffffff163373ffffffffffffffffffffffffffffffffffffffff16145b6123df57600080fd5b8073ffffffffffffffffffffffffffffffffffffffff16637ec3eae5836040518263ffffffff1660e01b81526004016124189190616dc2565b600060405180830381600087803b15801561243257600080fd5b505af1158015612446573d6000803e3d6000fd5b505050505050565b7f000000000000000000000000000000000000000000000000000000000000000081565b60035481565b60045481565b6124866156bb565b73ffffffffffffffffffffffffffffffffffffffff166398fabd3a6040518163ffffffff1660e01b815260040160206040518083038186803b1580156124cb57600080fd5b505afa1580156124df573d6000803e3d6000fd5b505050506040513d601f19601f820116820180604052508101906125039190616766565b73ffffffffffffffffffffffffffffffffffffffff163373ffffffffffffffffffffffffffffffffffffffff1614806125895750600160009054906101000a900473ffffffffffffffffffffffffffffffffffffffff1673ffffffffffffffffffffffffffffffffffffffff163373ffffffffffffffffffffffffffffffffffffffff16145b61259257600080fd5b8073ffffffffffffffffffffffffffffffffffffffff1663474e7302836040518263ffffffff1660e01b81526004016125cb9190616dc2565b600060405180830381600087803b1580156125e557600080fd5b505af11580156125f9573d6000803e3d6000fd5b505050505050565b60008311612644576040517f08c379a000000000000000000000000000000000000000000000000000000000815260040161263b90616d02565b60405180910390fd5b8073ffffffffffffffffffffffffffffffffffffffff168273ffffffffffffffffffffffffffffffffffffffff16141561267d57600080fd5b600115156126896156bb565b73ffffffffffffffffffffffffffffffffffffffff16639d2cc4366040518163ffffffff1660e01b815260040160206040518083038186803b1580156126ce57600080fd5b505afa1580156126e2573d6000803e3d6000fd5b505050506040513d601f19601f820116820180604052508101906127069190616766565b73ffffffffffffffffffffffffffffffffffffffff1663194e22ce6040518163ffffffff1660e01b8152600401602060405180830381600087803b15801561274d57600080fd5b505af1158015612761573d6000803e3d6000fd5b505050506040513d601f19601f82011682018060405250810190612785919061678f565b151514156127c8576040517f08c379a00000000000000000000000000000000000000000000000000000000081526004016127bf90616d62565b60405180910390fd5b60006127d26156bb565b73ffffffffffffffffffffffffffffffffffffffff1663b99b0a0c6040518163ffffffff1660e01b815260040160206040518083038186803b15801561281757600080fd5b505afa15801561282b573d6000803e3d6000fd5b505050506040513d601f19601f8201168201806040525081019061284f9190616766565b905060008373ffffffffffffffffffffffffffffffffffffffff16637535d2466040518163ffffffff1660e01b815260040160206040518083038186803b15801561289957600080fd5b505afa1580156128ad573d6000803e3d6000fd5b505050506040513d601f19601f820116820180604052508101906128d19190616766565b9050600115158273ffffffffffffffffffffffffffffffffffffffff16635b16ebb7836040518263ffffffff1660e01b81526004016129109190616c03565b602060405180830381600087803b15801561292a57600080fd5b505af115801561293e573d6000803e3d6000fd5b505050506040513d601f19601f82011682018060405250810190612962919061678f565b1515146129a4576040517f08c379a000000000000000000000000000000000000000000000000000000000815260040161299b90616cc2565b60405180910390fd5b60008273ffffffffffffffffffffffffffffffffffffffff1663bbe4f6db856040518263ffffffff1660e01b81526004016129df9190616c03565b60206040518083038186803b1580156129f757600080fd5b505afa158015612a0b573d6000803e3d6000fd5b505050506040513d601f19601f82011682018060405250810190612a2f9190616766565b9050600115158373ffffffffffffffffffffffffffffffffffffffff16635b16ebb7836040518263ffffffff1660e01b8152600401612a6e9190616c03565b602060405180830381600087803b158015612a8857600080fd5b505af1158015612a9c573d6000803e3d6000fd5b505050506040513d601f19601f82011682018060405250810190612ac0919061678f565b151514612b02576040517f08c379a0000000000000000000000000000000000000000000000000000000008152600401612af990616cc2565b60405180910390fd5b8473ffffffffffffffffffffffffffffffffffffffff166323b872dd3384896040518463ffffffff1660e01b8152600401612b3f93929190616c47565b602060405180830381600087803b158015612b5957600080fd5b505af1158015612b6d573d6000803e3d6000fd5b505050506040513d601f19601f82011682018060405250810190612b91919061678f565b612bd0576040517f08c379a0000000000000000000000000000000000000000000000000000000008152600401612bc790616d42565b60405180910390fd5b60007f000000000000000000000000000000000000000000000000000000000000000073ffffffffffffffffffffffffffffffffffffffff168573ffffffffffffffffffffffffffffffffffffffff161415612cbb578273ffffffffffffffffffffffffffffffffffffffff1663dbfc5a04336040518263ffffffff1660e01b8152600401612c5f9190616c03565b6040805180830381600087803b158015612c7857600080fd5b505af1158015612c8c573d6000803e3d6000fd5b505050506040513d601f19601f82011682018060405250810190612cb09190616a4a565b905080915050612fc2565b6000808473ffffffffffffffffffffffffffffffffffffffff1663dbfc5a04306040518263ffffffff1660e01b8152600401612cf79190616c03565b6040805180830381600087803b158015612d1057600080fd5b505af1158015612d24573d6000803e3d6000fd5b505050506040513d601f19601f82011682018060405250810190612d489190616a4a565b905080935050612e217f00000000000000000000000000000000000000000000000000000000000000007f000000000000000000000000000000000000000000000000000000000000000073ffffffffffffffffffffffffffffffffffffffff166370a08231306040518263ffffffff1660e01b8152600401612dcb9190616c03565b60206040518083038186803b158015612de357600080fd5b505afa158015612df7573d6000803e3d6000fd5b505050506040513d601f19601f82011682018060405250810190612e1b919061680a565b86615e53565b600073ffffffffffffffffffffffffffffffffffffffff168773ffffffffffffffffffffffffffffffffffffffff1614612eec578373ffffffffffffffffffffffffffffffffffffffff16632783e4a988336040518363ffffffff1660e01b8152600401612e90929190616c1e565b6040805180830381600087803b158015612ea957600080fd5b505af1158015612ebd573d6000803e3d6000fd5b505050506040513d601f19601f82011682018060405250810190612ee19190616a4a565b905080925050612fac565b8373ffffffffffffffffffffffffffffffffffffffff16632783e4a97f0000000000000000000000000000000000000000000000000000000000000000306040518363ffffffff1660e01b8152600401612f47929190616c1e565b6040805180830381600087803b158015612f6057600080fd5b505af1158015612f74573d6000803e3d6000fd5b505050506040513d601f19601f82011682018060405250810190612f989190616a4a565b8093508192505050612fab878233615e53565b5b612fb584615760565b612fbf84836159ea565b50505b612fcb83615760565b612fd583826159ea565b50505050505050565b612fea83838333611da1565b505050565b60008311613032576040517f08c379a000000000000000000000000000000000000000000000000000000000815260040161302990616d02565b60405180910390fd5b6001151561303e6156bb565b73ffffffffffffffffffffffffffffffffffffffff16639d2cc4366040518163ffffffff1660e01b815260040160206040518083038186803b15801561308357600080fd5b505afa158015613097573d6000803e3d6000fd5b505050506040513d601f19601f820116820180604052508101906130bb9190616766565b73ffffffffffffffffffffffffffffffffffffffff1663194e22ce6040518163ffffffff1660e01b8152600401602060405180830381600087803b15801561310257600080fd5b505af1158015613116573d6000803e3d6000fd5b505050506040513d601f19601f8201168201806040525081019061313a919061678f565b1515141561317d576040517f08c379a000000000000000000000000000000000000000000000000000000000815260040161317490616d62565b60405180910390fd5b60006131876156bb565b73ffffffffffffffffffffffffffffffffffffffff1663b99b0a0c6040518163ffffffff1660e01b815260040160206040518083038186803b1580156131cc57600080fd5b505afa1580156131e0573d6000803e3d6000fd5b505050506040513d601f19601f820116820180604052508101906132049190616766565b905060008173ffffffffffffffffffffffffffffffffffffffff1663bbe4f6db846040518263ffffffff1660e01b81526004016132419190616c03565b60206040518083038186803b15801561325957600080fd5b505afa15801561326d573d6000803e3d6000fd5b505050506040513d601f19601f820116820180604052508101906132919190616766565b9050600115158273ffffffffffffffffffffffffffffffffffffffff16635b16ebb7836040518263ffffffff1660e01b81526004016132d09190616c03565b602060405180830381600087803b1580156132ea57600080fd5b505af11580156132fe573d6000803e3d6000fd5b505050506040513d601f19601f82011682018060405250810190613322919061678f565b151514613364576040517f08c379a000000000000000000000000000000000000000000000000000000000815260040161335b90616cc2565b60405180910390fd5b60003390508173ffffffffffffffffffffffffffffffffffffffff166323b872dd8284896040518463ffffffff1660e01b81526004016133a693929190616c47565b602060405180830381600087803b1580156133c057600080fd5b505af11580156133d4573d6000803e3d6000fd5b505050506040513d601f19601f820116820180604052508101906133f8919061678f565b613437576040517f08c379a000000000000000000000000000000000000000000000000000000000815260040161342e90616d42565b60405180910390fd5b8173ffffffffffffffffffffffffffffffffffffffff1663bc5dedc9306040518263ffffffff1660e01b81526004016134709190616c03565b6040805180830381600087803b15801561348957600080fd5b505af115801561349d573d6000803e3d6000fd5b505050506040513d601f19601f820116820180604052508101906134c19190616a4a565b50506000849050600073ffffffffffffffffffffffffffffffffffffffff168573ffffffffffffffffffffffffffffffffffffffff161415613521577f000000000000000000000000000000000000000000000000000000000000000090505b6000861561388a578173ffffffffffffffffffffffffffffffffffffffff1663a9059cbb858473ffffffffffffffffffffffffffffffffffffffff166370a08231306040518263ffffffff1660e01b815260040161357f9190616c03565b60206040518083038186803b15801561359757600080fd5b505afa1580156135ab573d6000803e3d6000fd5b505050506040513d601f19601f820116820180604052508101906135cf919061680a565b6040518363ffffffff1660e01b81526004016135ec929190616c7e565b602060405180830381600087803b15801561360657600080fd5b505af115801561361a573d6000803e3d6000fd5b505050506040513d601f19601f8201168201806040525081019061363e919061678f565b508373ffffffffffffffffffffffffffffffffffffffff16632783e4a97f0000000000000000000000000000000000000000000000000000000000000000306040518363ffffffff1660e01b815260040161369a929190616c1e565b6040805180830381600087803b1580156136b357600080fd5b505af11580156136c7573d6000803e3d6000fd5b505050506040513d601f19601f820116820180604052508101906136eb9190616a4a565b9050809150507f000000000000000000000000000000000000000000000000000000000000000073ffffffffffffffffffffffffffffffffffffffff1663a9059cbb847f000000000000000000000000000000000000000000000000000000000000000073ffffffffffffffffffffffffffffffffffffffff166370a08231306040518263ffffffff1660e01b81526004016137879190616c03565b60206040518083038186803b15801561379f57600080fd5b505afa1580156137b3573d6000803e3d6000fd5b505050506040513d601f19601f820116820180604052508101906137d7919061680a565b6040518363ffffffff1660e01b81526004016137f4929190616c7e565b602060405180830381600087803b15801561380e57600080fd5b505af1158015613822573d6000803e3d6000fd5b505050506040513d601f19601f82011682018060405250810190613846919061678f565b613885576040517f08c379a000000000000000000000000000000000000000000000000000000000815260040161387c90616d42565b60405180910390fd5b613b06565b7f000000000000000000000000000000000000000000000000000000000000000073ffffffffffffffffffffffffffffffffffffffff1663a9059cbb857f000000000000000000000000000000000000000000000000000000000000000073ffffffffffffffffffffffffffffffffffffffff166370a08231306040518263ffffffff1660e01b81526004016139209190616c03565b60206040518083038186803b15801561393857600080fd5b505afa15801561394c573d6000803e3d6000fd5b505050506040513d601f19601f82011682018060405250810190613970919061680a565b6040518363ffffffff1660e01b815260040161398d929190616c7e565b602060405180830381600087803b1580156139a757600080fd5b505af11580156139bb573d6000803e3d6000fd5b505050506040513d601f19601f820116820180604052508101906139df919061678f565b508373ffffffffffffffffffffffffffffffffffffffff16632783e4a983306040518363ffffffff1660e01b8152600401613a1b929190616c1e565b6040805180830381600087803b158015613a3457600080fd5b505af1158015613a48573d6000803e3d6000fd5b505050506040513d601f19601f82011682018060405250810190613a6c9190616a4a565b905080915050613b05868373ffffffffffffffffffffffffffffffffffffffff166370a08231306040518263ffffffff1660e01b8152600401613aaf9190616c03565b60206040518083038186803b158015613ac757600080fd5b505afa158015613adb573d6000803e3d6000fd5b505050506040513d601f19601f82011682018060405250810190613aff919061680a565b85615e53565b5b613b0f84615760565b613b1984826159ea565b5050505050505050565b8073ffffffffffffffffffffffffffffffffffffffff168273ffffffffffffffffffffffffffffffffffffffff1614158015613b5f5750600083115b613b9e576040517f08c379a0000000000000000000000000000000000000000000000000000000008152600401613b9590616d02565b60405180910390fd5b6000613ba86156bb565b73ffffffffffffffffffffffffffffffffffffffff1663b99b0a0c6040518163ffffffff1660e01b815260040160206040518083038186803b158015613bed57600080fd5b505afa158015613c01573d6000803e3d6000fd5b505050506040513d601f19601f82011682018060405250810190613c259190616766565b9050600115158173ffffffffffffffffffffffffffffffffffffffff16635b16ebb7856040518263ffffffff1660e01b8152600401613c649190616c03565b602060405180830381600087803b158015613c7e57600080fd5b505af1158015613c92573d6000803e3d6000fd5b505050506040513d601f19601f82011682018060405250810190613cb6919061678f565b151514613cf8576040517f08c379a0000000000000000000000000000000000000000000000000000000008152600401613cef90616cc2565b60405180910390fd5b600115158173ffffffffffffffffffffffffffffffffffffffff16635b16ebb7846040518263ffffffff1660e01b8152600401613d359190616c03565b602060405180830381600087803b158015613d4f57600080fd5b505af1158015613d63573d6000803e3d6000fd5b505050506040513d601f19601f82011682018060405250810190613d87919061678f565b151514613dc9576040517f08c379a0000000000000000000000000000000000000000000000000000000008152600401613dc090616cc2565b60405180910390fd5b60008373ffffffffffffffffffffffffffffffffffffffff166382bfefc86040518163ffffffff1660e01b815260040160206040518083038186803b158015613e1157600080fd5b505afa158015613e25573d6000803e3d6000fd5b505050506040513d601f19601f82011682018060405250810190613e499190616766565b905060008373ffffffffffffffffffffffffffffffffffffffff166382bfefc86040518163ffffffff1660e01b815260040160206040518083038186803b158015613e9357600080fd5b505afa158015613ea7573d6000803e3d6000fd5b505050506040513d601f19601f82011682018060405250810190613ecb9190616766565b905060003390508573ffffffffffffffffffffffffffffffffffffffff166323b872dd82888a6040518463ffffffff1660e01b8152600401613f0f93929190616c47565b602060405180830381600087803b158015613f2957600080fd5b505af1158015613f3d573d6000803e3d6000fd5b505050506040513d601f19601f82011682018060405250810190613f61919061678f565b613fa0576040517f08c379a0000000000000000000000000000000000000000000000000000000008152600401613f9790616d42565b60405180910390fd5b8573ffffffffffffffffffffffffffffffffffffffff1663bc5dedc9306040518263ffffffff1660e01b8152600401613fd99190616c03565b6040805180830381600087803b158015613ff257600080fd5b505af1158015614006573d6000803e3d6000fd5b505050506040513d601f19601f8201168201806040525081019061402a9190616a4a565b50508273ffffffffffffffffffffffffffffffffffffffff1663a9059cbb878573ffffffffffffffffffffffffffffffffffffffff166370a08231306040518263ffffffff1660e01b81526004016140829190616c03565b60206040518083038186803b15801561409a57600080fd5b505afa1580156140ae573d6000803e3d6000fd5b505050506040513d601f19601f820116820180604052508101906140d2919061680a565b6040518363ffffffff1660e01b81526004016140ef929190616c7e565b602060405180830381600087803b15801561410957600080fd5b505af115801561411d573d6000803e3d6000fd5b505050506040513d601f19601f82011682018060405250810190614141919061678f565b508573ffffffffffffffffffffffffffffffffffffffff16632783e4a97f0000000000000000000000000000000000000000000000000000000000000000306040518363ffffffff1660e01b815260040161419d929190616c1e565b6040805180830381600087803b1580156141b657600080fd5b505af11580156141ca573d6000803e3d6000fd5b505050506040513d601f19601f820116820180604052508101906141ee9190616a4a565b50507f000000000000000000000000000000000000000000000000000000000000000073ffffffffffffffffffffffffffffffffffffffff1663a9059cbb8660027f000000000000000000000000000000000000000000000000000000000000000073ffffffffffffffffffffffffffffffffffffffff166370a08231306040518263ffffffff1660e01b81526004016142889190616c03565b60206040518083038186803b1580156142a057600080fd5b505afa1580156142b4573d6000803e3d6000fd5b505050506040513d601f19601f820116820180604052508101906142d8919061680a565b6142e29190616ea1565b6040518363ffffffff1660e01b81526004016142ff929190616c7e565b602060405180830381600087803b15801561431957600080fd5b505af115801561432d573d6000803e3d6000fd5b505050506040513d601f19601f82011682018060405250810190614351919061678f565b508473ffffffffffffffffffffffffffffffffffffffff16632783e4a983306040518363ffffffff1660e01b815260040161438d929190616c1e565b6040805180830381600087803b1580156143a657600080fd5b505af11580156143ba573d6000803e3d6000fd5b505050506040513d601f19601f820116820180604052508101906143de9190616a4a565b50507f000000000000000000000000000000000000000000000000000000000000000073ffffffffffffffffffffffffffffffffffffffff1663a9059cbb867f000000000000000000000000000000000000000000000000000000000000000073ffffffffffffffffffffffffffffffffffffffff166370a08231306040518263ffffffff1660e01b81526004016144769190616c03565b60206040518083038186803b15801561448e57600080fd5b505afa1580156144a2573d6000803e3d6000fd5b505050506040513d601f19601f820116820180604052508101906144c6919061680a565b6040518363ffffffff1660e01b81526004016144e3929190616c7e565b602060405180830381600087803b1580156144fd57600080fd5b505af1158015614511573d6000803e3d6000fd5b505050506040513d601f19601f82011682018060405250810190614535919061678f565b508173ffffffffffffffffffffffffffffffffffffffff1663a9059cbb868473ffffffffffffffffffffffffffffffffffffffff166370a08231306040518263ffffffff1660e01b815260040161458c9190616c03565b60206040518083038186803b1580156145a457600080fd5b505afa1580156145b8573d6000803e3d6000fd5b505050506040513d601f19601f820116820180604052508101906145dc919061680a565b6040518363ffffffff1660e01b81526004016145f9929190616c7e565b602060405180830381600087803b15801561461357600080fd5b505af1158015614627573d6000803e3d6000fd5b505050506040513d601f19601f8201168201806040525081019061464b919061678f565b508473ffffffffffffffffffffffffffffffffffffffff166386d5f618826040518263ffffffff1660e01b81526004016146859190616c03565b602060405180830381600087803b15801561469f57600080fd5b505af11580156146b3573d6000803e3d6000fd5b505050506040513d601f19601f820116820180604052508101906146d7919061680a565b506146e186615760565b6146ea85615760565b50505050505050565b600160009054906101000a900473ffffffffffffffffffffffffffffffffffffffff1681565b6000821161475c576040517f08c379a000000000000000000000000000000000000000000000000000000000815260040161475390616d02565b60405180910390fd5b600115156147686156bb565b73ffffffffffffffffffffffffffffffffffffffff16639d2cc4366040518163ffffffff1660e01b815260040160206040518083038186803b1580156147ad57600080fd5b505afa1580156147c1573d6000803e3d6000fd5b505050506040513d601f19601f820116820180604052508101906147e59190616766565b73ffffffffffffffffffffffffffffffffffffffff1663194e22ce6040518163ffffffff1660e01b8152600401602060405180830381600087803b15801561482c57600080fd5b505af1158015614840573d6000803e3d6000fd5b505050506040513d601f19601f82011682018060405250810190614864919061678f565b151514156148a7576040517f08c379a000000000000000000000000000000000000000000000000000000000815260040161489e90616d62565b60405180910390fd5b60006148b16156bb565b73ffffffffffffffffffffffffffffffffffffffff1663b99b0a0c6040518163ffffffff1660e01b815260040160206040518083038186803b1580156148f657600080fd5b505afa15801561490a573d6000803e3d6000fd5b505050506040513d601f19601f8201168201806040525081019061492e9190616766565b905060008173ffffffffffffffffffffffffffffffffffffffff1663bbe4f6db846040518263ffffffff1660e01b815260040161496b9190616c03565b60206040518083038186803b15801561498357600080fd5b505afa158015614997573d6000803e3d6000fd5b505050506040513d601f19601f820116820180604052508101906149bb9190616766565b9050600115158273ffffffffffffffffffffffffffffffffffffffff16635b16ebb7836040518263ffffffff1660e01b81526004016149fa9190616c03565b602060405180830381600087803b158015614a1457600080fd5b505af1158015614a28573d6000803e3d6000fd5b505050506040513d601f19601f82011682018060405250810190614a4c919061678f565b151514614a8e576040517f08c379a0000000000000000000000000000000000000000000000000000000008152600401614a8590616cc2565b60405180910390fd5b60003390508173ffffffffffffffffffffffffffffffffffffffff166323b872dd8284886040518463ffffffff1660e01b8152600401614ad093929190616c47565b602060405180830381600087803b158015614aea57600080fd5b505af1158015614afe573d6000803e3d6000fd5b505050506040513d601f19601f82011682018060405250810190614b22919061678f565b614b61576040517f08c379a0000000000000000000000000000000000000000000000000000000008152600401614b5890616d42565b60405180910390fd5b600073ffffffffffffffffffffffffffffffffffffffff168473ffffffffffffffffffffffffffffffffffffffff1614614c26578173ffffffffffffffffffffffffffffffffffffffff1663bc5dedc9826040518263ffffffff1660e01b8152600401614bce9190616c03565b6040805180830381600087803b158015614be757600080fd5b505af1158015614bfb573d6000803e3d6000fd5b505050506040513d601f19601f82011682018060405250810190614c1f9190616a4a565b5050614e45565b8173ffffffffffffffffffffffffffffffffffffffff1663bc5dedc9306040518263ffffffff1660e01b8152600401614c5f9190616c03565b6040805180830381600087803b158015614c7857600080fd5b505af1158015614c8c573d6000803e3d6000fd5b505050506040513d601f19601f82011682018060405250810190614cb09190616a4a565b505060007f000000000000000000000000000000000000000000000000000000000000000073ffffffffffffffffffffffffffffffffffffffff166370a08231306040518263ffffffff1660e01b8152600401614d0d9190616c03565b60206040518083038186803b158015614d2557600080fd5b505afa158015614d39573d6000803e3d6000fd5b505050506040513d601f19601f82011682018060405250810190614d5d919061680a565b905060007f000000000000000000000000000000000000000000000000000000000000000073ffffffffffffffffffffffffffffffffffffffff166370a08231306040518263ffffffff1660e01b8152600401614dba9190616c03565b60206040518083038186803b158015614dd257600080fd5b505afa158015614de6573d6000803e3d6000fd5b505050506040513d601f19601f82011682018060405250810190614e0a919061680a565b9050614e17868285615e53565b614e427f00000000000000000000000000000000000000000000000000000000000000008385615e53565b50505b614e4e82615760565b5050505050565b614e60828233614ea6565b5050565b60066020528060005260406000206000915090505481565b7f000000000000000000000000000000000000000000000000000000000000000081565b60025481565b6000614eb06156bb565b73ffffffffffffffffffffffffffffffffffffffff1663b99b0a0c6040518163ffffffff1660e01b815260040160206040518083038186803b158015614ef557600080fd5b505afa158015614f09573d6000803e3d6000fd5b505050506040513d601f19601f82011682018060405250810190614f2d9190616766565b905060008173ffffffffffffffffffffffffffffffffffffffff1663bbe4f6db856040518263ffffffff1660e01b8152600401614f6a9190616c03565b60206040518083038186803b158015614f8257600080fd5b505afa158015614f96573d6000803e3d6000fd5b505050506040513d601f19601f82011682018060405250810190614fba9190616766565b9050600115158273ffffffffffffffffffffffffffffffffffffffff16635b16ebb7836040518263ffffffff1660e01b8152600401614ff99190616c03565b602060405180830381600087803b15801561501357600080fd5b505af1158015615027573d6000803e3d6000fd5b505050506040513d601f19601f8201168201806040525081019061504b919061678f565b15151461508d576040517f08c379a000000000000000000000000000000000000000000000000000000000815260040161508490616cc2565b60405180910390fd5b60006150976156bb565b73ffffffffffffffffffffffffffffffffffffffff16637b0e5c456040518163ffffffff1660e01b815260040160206040518083038186803b1580156150dc57600080fd5b505afa1580156150f0573d6000803e3d6000fd5b505050506040513d601f19601f820116820180604052508101906151149190616766565b73ffffffffffffffffffffffffffffffffffffffff1663c19387df86886040518363ffffffff1660e01b815260040161514e929190616c7e565b60206040518083038186803b15801561516657600080fd5b505afa15801561517a573d6000803e3d6000fd5b505050506040513d601f19601f8201168201806040525081019061519e919061680a565b90506151cb7f00000000000000000000000000000000000000000000000000000000000000008284615b25565b6151d6858784615b25565b8173ffffffffffffffffffffffffffffffffffffffff166386d5f618856040518263ffffffff1660e01b815260040161520f9190616c03565b602060405180830381600087803b15801561522957600080fd5b505af115801561523d573d6000803e3d6000fd5b505050506040513d601f19601f82011682018060405250810190615261919061680a565b5061526b82615760565b505050505050565b600061527d6156bb565b73ffffffffffffffffffffffffffffffffffffffff1663b99b0a0c6040518163ffffffff1660e01b815260040160206040518083038186803b1580156152c257600080fd5b505afa1580156152d6573d6000803e3d6000fd5b505050506040513d601f19601f820116820180604052508101906152fa9190616766565b905060008173ffffffffffffffffffffffffffffffffffffffff1663bbe4f6db866040518263ffffffff1660e01b81526004016153379190616c03565b60206040518083038186803b15801561534f57600080fd5b505afa158015615363573d6000803e3d6000fd5b505050506040513d601f19601f820116820180604052508101906153879190616766565b9050600115158273ffffffffffffffffffffffffffffffffffffffff16635b16ebb7836040518263ffffffff1660e01b81526004016153c69190616c03565b602060405180830381600087803b1580156153e057600080fd5b505af11580156153f4573d6000803e3d6000fd5b505050506040513d601f19601f82011682018060405250810190615418919061678f565b15151461545a576040517f08c379a000000000000000000000000000000000000000000000000000000000815260040161545190616cc2565b60405180910390fd5b6154857f00000000000000000000000000000000000000000000000000000000000000008783615b25565b60008073ffffffffffffffffffffffffffffffffffffffff168673ffffffffffffffffffffffffffffffffffffffff1614615599576000808373ffffffffffffffffffffffffffffffffffffffff16632783e4a989896040518363ffffffff1660e01b81526004016154f8929190616c1e565b6040805180830381600087803b15801561551157600080fd5b505af1158015615525573d6000803e3d6000fd5b505050506040513d601f19601f820116820180604052508101906155499190616a4a565b9150915085821161558f576040517f08c379a000000000000000000000000000000000000000000000000000000000815260040161558690616d22565b60405180910390fd5b809250505061569f565b6000808373ffffffffffffffffffffffffffffffffffffffff16632783e4a97f0000000000000000000000000000000000000000000000000000000000000000306040518363ffffffff1660e01b81526004016155f7929190616c1e565b6040805180830381600087803b15801561561057600080fd5b505af1158015615624573d6000803e3d6000fd5b505050506040513d601f19601f820116820180604052508101906156489190616a4a565b9150915085821161568e576040517f08c379a000000000000000000000000000000000000000000000000000000000815260040161568590616d22565b60405180910390fd5b615699888389615e53565b80925050505b6156a882615760565b6156b282826159ea565b50505050505050565b60007f000000000000000000000000000000000000000000000000000000000000000073ffffffffffffffffffffffffffffffffffffffff166398fabd3a6040518163ffffffff1660e01b815260040160206040518083038186803b15801561572357600080fd5b505afa158015615737573d6000803e3d6000fd5b505050506040513d601f19601f8201168201806040525081019061575b91906167b8565b905090565b6157686156bb565b73ffffffffffffffffffffffffffffffffffffffff1663b99b0a0c6040518163ffffffff1660e01b815260040160206040518083038186803b1580156157ad57600080fd5b505afa1580156157c1573d6000803e3d6000fd5b505050506040513d601f19601f820116820180604052508101906157e59190616766565b73ffffffffffffffffffffffffffffffffffffffff16638dcb4c93826040518263ffffffff1660e01b815260040161581d9190616c03565b60206040518083038186803b15801561583557600080fd5b505afa158015615849573d6000803e3d6000fd5b505050506040513d601f19601f8201168201806040525081019061586d919061678f565b156159e7578073ffffffffffffffffffffffffffffffffffffffff166362a5af3b6040518163ffffffff1660e01b815260040160206040518083038186803b1580156158b857600080fd5b505afa1580156158cc573d6000803e3d6000fd5b505050506040513d601f19601f820116820180604052508101906158f0919061678f565b156159e6576158fd6156bb565b73ffffffffffffffffffffffffffffffffffffffff16639d2cc4366040518163ffffffff1660e01b815260040160206040518083038186803b15801561594257600080fd5b505afa158015615956573d6000803e3d6000fd5b505050506040513d601f19601f8201168201806040525081019061597a9190616766565b73ffffffffffffffffffffffffffffffffffffffff16637828c71760016040518263ffffffff1660e01b81526004016159b39190616ca7565b600060405180830381600087803b1580156159cd57600080fd5b505af11580156159e1573d6000803e3d6000fd5b505050505b5b50565b670de0b6b3a764000081118015615b11575060011515615a086156bb565b73ffffffffffffffffffffffffffffffffffffffff1663b99b0a0c6040518163ffffffff1660e01b815260040160206040518083038186803b158015615a4d57600080fd5b505afa158015615a61573d6000803e3d6000fd5b505050506040513d601f19601f82011682018060405250810190615a859190616766565b73ffffffffffffffffffffffffffffffffffffffff16638dcb4c93846040518263ffffffff1660e01b8152600401615abd9190616c03565b60206040518083038186803b158015615ad557600080fd5b505afa158015615ae9573d6000803e3d6000fd5b505050506040513d601f19601f82011682018060405250810190615b0d919061678f565b1515145b15615b2157615b2082826160f7565b5b5050565b60026000541415615b6b576040517f08c379a0000000000000000000000000000000000000000000000000000000008152600401615b6290616da2565b60405180910390fd5b600260008190555060008211615bb6576040517f08c379a0000000000000000000000000000000000000000000000000000000008152600401615bad90616d82565b60405180910390fd5b600073ffffffffffffffffffffffffffffffffffffffff168373ffffffffffffffffffffffffffffffffffffffff161415615d7757348214615bf757600080fd5b60007f000000000000000000000000000000000000000000000000000000000000000073ffffffffffffffffffffffffffffffffffffffff1683604051615c3d90616bee565b60006040518083038185875af1925050503d8060008114615c7a576040519150601f19603f3d011682016040523d82523d6000602084013e615c7f565b606091505b5050905080615cc3576040517f08c379a0000000000000000000000000000000000000000000000000000000008152600401615cba90616ce2565b60405180910390fd5b7f000000000000000000000000000000000000000000000000000000000000000073ffffffffffffffffffffffffffffffffffffffff1663a9059cbb83856040518363ffffffff1660e01b8152600401615d1e929190616c7e565b602060405180830381600087803b158015615d3857600080fd5b505af1158015615d4c573d6000803e3d6000fd5b505050506040513d601f19601f82011682018060405250810190615d70919061678f565b5050615e46565b8273ffffffffffffffffffffffffffffffffffffffff166323b872dd3383856040518463ffffffff1660e01b8152600401615db493929190616c47565b602060405180830381600087803b158015615dce57600080fd5b505af1158015615de2573d6000803e3d6000fd5b505050506040513d601f19601f82011682018060405250810190615e06919061678f565b615e45576040517f08c379a0000000000000000000000000000000000000000000000000000000008152600401615e3c90616d42565b60405180910390fd5b5b6001600081905550505050565b60026000541415615e99576040517f08c379a0000000000000000000000000000000000000000000000000000000008152600401615e9090616da2565b60405180910390fd5b600260008190555060008211156160ea57600073ffffffffffffffffffffffffffffffffffffffff168373ffffffffffffffffffffffffffffffffffffffff16141561601c577f000000000000000000000000000000000000000000000000000000000000000073ffffffffffffffffffffffffffffffffffffffff16632e1a7d4d836040518263ffffffff1660e01b8152600401615f389190616dc2565b600060405180830381600087803b158015615f5257600080fd5b505af1158015615f66573d6000803e3d6000fd5b5050505060008173ffffffffffffffffffffffffffffffffffffffff1683604051615f9090616bee565b60006040518083038185875af1925050503d8060008114615fcd576040519150601f19603f3d011682016040523d82523d6000602084013e615fd2565b606091505b5050905080616016576040517f08c379a000000000000000000000000000000000000000000000000000000000815260040161600d90616ce2565b60405180910390fd5b506160e9565b8273ffffffffffffffffffffffffffffffffffffffff1663a9059cbb82846040518363ffffffff1660e01b8152600401616057929190616c7e565b602060405180830381600087803b15801561607157600080fd5b505af1158015616085573d6000803e3d6000fd5b505050506040513d601f19601f820116820180604052508101906160a9919061678f565b6160e8576040517f08c379a00000000000000000000000000000000000000000000000000000000081526004016160df90616d42565b60405180910390fd5b5b5b6001600081905550505050565b60007f000000000000000000000000000000000000000000000000000000000000000073ffffffffffffffffffffffffffffffffffffffff166370a0823161613d6156bb565b73ffffffffffffffffffffffffffffffffffffffff16639d2cc4366040518163ffffffff1660e01b815260040160206040518083038186803b15801561618257600080fd5b505afa158015616196573d6000803e3d6000fd5b505050506040513d601f19601f820116820180604052508101906161ba9190616766565b6040518263ffffffff1660e01b81526004016161d69190616c03565b60206040518083038186803b1580156161ee57600080fd5b505afa158015616202573d6000803e3d6000fd5b505050506040513d601f19601f82011682018060405250810190616226919061680a565b9050600081111561640d576000612710600554600254846162479190616ed2565b6162519190616ea1565b61625b9190616ea1565b90508083600660008773ffffffffffffffffffffffffffffffffffffffff1673ffffffffffffffffffffffffffffffffffffffff168152602001908152602001600020546162a99190616e4b565b101561640b576162b98385616412565b6162c16156bb565b73ffffffffffffffffffffffffffffffffffffffff16639d2cc4366040518163ffffffff1660e01b815260040160206040518083038186803b15801561630657600080fd5b505afa15801561631a573d6000803e3d6000fd5b505050506040513d601f19601f8201168201806040525081019061633e9190616766565b73ffffffffffffffffffffffffffffffffffffffff16637d458baa84866040518363ffffffff1660e01b8152600401616378929190616ddd565b600060405180830381600087803b15801561639257600080fd5b505af11580156163a6573d6000803e3d6000fd5b505050508373ffffffffffffffffffffffffffffffffffffffff1663fff6cae96040518163ffffffff1660e01b8152600401600060405180830381600087803b1580156163f257600080fd5b505af1158015616406573d6000803e3d6000fd5b505050505b505b505050565b6000600454141561642557426004819055505b62278d006004546164369190616e4b565b42116164cf5781600660008373ffffffffffffffffffffffffffffffffffffffff1673ffffffffffffffffffffffffffffffffffffffff168152602001908152602001600020546164879190616e4b565b600660008373ffffffffffffffffffffffffffffffffffffffff1673ffffffffffffffffffffffffffffffffffffffff168152602001908152602001600020819055506166a6565b42600481905550600660008273ffffffffffffffffffffffffffffffffffffffff1673ffffffffffffffffffffffffffffffffffffffff16815260200190815260200160002054600760008373ffffffffffffffffffffffffffffffffffffffff1673ffffffffffffffffffffffffffffffffffffffff1681526020019081526020016000208190555081600660008373ffffffffffffffffffffffffffffffffffffffff1673ffffffffffffffffffffffffffffffffffffffff168152602001908152602001600020819055506165a56156bb565b73ffffffffffffffffffffffffffffffffffffffff1663b99b0a0c6040518163ffffffff1660e01b815260040160206040518083038186803b1580156165ea57600080fd5b505afa1580156165fe573d6000803e3d6000fd5b505050506040513d601f19601f820116820180604052508101906166229190616766565b73ffffffffffffffffffffffffffffffffffffffff16638bc51e366040518163ffffffff1660e01b815260040160206040518083038186803b15801561666757600080fd5b505afa15801561667b573d6000803e3d6000fd5b505050506040513d601f19601f8201168201806040525081019061669f919061680a565b6005819055505b5050565b6000813590506166b98161712f565b92915050565b6000815190506166ce8161712f565b92915050565b6000813590506166e381617146565b92915050565b6000815190506166f881617146565b92915050565b60008151905061670d8161715d565b92915050565b60008135905061672281617174565b92915050565b60008151905061673781617174565b92915050565b60006020828403121561674f57600080fd5b600061675d848285016166aa565b91505092915050565b60006020828403121561677857600080fd5b6000616786848285016166bf565b91505092915050565b6000602082840312156167a157600080fd5b60006167af848285016166e9565b91505092915050565b6000602082840312156167ca57600080fd5b60006167d8848285016166fe565b91505092915050565b6000602082840312156167f357600080fd5b600061680184828501616713565b91505092915050565b60006020828403121561681c57600080fd5b600061682a84828501616728565b91505092915050565b6000806040838503121561684657600080fd5b600061685485828601616713565b9250506020616865858286016166aa565b9150509250929050565b60008060006060848603121561688457600080fd5b600061689286828701616713565b93505060206168a3868287016166aa565b92505060406168b4868287016166aa565b9150509250925092565b600080600080600060a086880312156168d657600080fd5b60006168e488828901616713565b95505060206168f5888289016166aa565b9450506040616906888289016166aa565b9350506060616917888289016166aa565b925050608061692888828901616713565b9150509295509295909350565b6000806000806080858703121561694b57600080fd5b600061695987828801616713565b945050602061696a878288016166aa565b935050604061697b878288016166aa565b925050606061698c87828801616713565b91505092959194509250565b6000806000606084860312156169ad57600080fd5b60006169bb86828701616713565b93505060206169cc868287016166d4565b92505060406169dd868287016166aa565b9150509250925092565b600080600080608085870312156169fd57600080fd5b6000616a0b87828801616713565b9450506020616a1c878288016166d4565b9350506040616a2d878288016166aa565b9250506060616a3e878288016166aa565b91505092959194509250565b60008060408385031215616a5d57600080fd5b6000616a6b85828601616728565b9250506020616a7c85828601616728565b9150509250929050565b616a8f81616f2c565b82525050565b616a9e81616f3e565b82525050565b6000616ab1600583616e3a565b9150616abc82616fe4565b602082019050919050565b6000616ad4600583616e3a565b9150616adf8261700d565b602082019050919050565b6000616af7600683616e3a565b9150616b0282617036565b602082019050919050565b6000616b1a600583616e3a565b9150616b258261705f565b602082019050919050565b6000616b3d600983616e3a565b9150616b4882617088565b602082019050919050565b6000616b60600083616e2f565b9150616b6b826170b1565b600082019050919050565b6000616b83600583616e3a565b9150616b8e826170b4565b602082019050919050565b6000616ba6600483616e3a565b9150616bb1826170dd565b602082019050919050565b6000616bc9601f83616e3a565b9150616bd482617106565b602082019050919050565b616be881616f7c565b82525050565b6000616bf982616b53565b9150819050919050565b6000602082019050616c186000830184616a86565b92915050565b6000604082019050616c336000830185616a86565b616c406020830184616a86565b9392505050565b6000606082019050616c5c6000830186616a86565b616c696020830185616a86565b616c766040830184616bdf565b949350505050565b6000604082019050616c936000830185616a86565b616ca06020830184616bdf565b9392505050565b6000602082019050616cbc6000830184616a95565b92915050565b60006020820190508181036000830152616cdb81616aa4565b9050919050565b60006020820190508181036000830152616cfb81616ac7565b9050919050565b60006020820190508181036000830152616d1b81616aea565b9050919050565b60006020820190508181036000830152616d3b81616b0d565b9050919050565b60006020820190508181036000830152616d5b81616b30565b9050919050565b60006020820190508181036000830152616d7b81616b76565b9050919050565b60006020820190508181036000830152616d9b81616b99565b9050919050565b60006020820190508181036000830152616dbb81616bbc565b9050919050565b6000602082019050616dd76000830184616bdf565b92915050565b6000604082019050616df26000830185616bdf565b616dff6020830184616a86565b9392505050565b6000604082019050616e1b6000830185616bdf565b616e286020830184616bdf565b9392505050565b600081905092915050565b600082825260208201905092915050565b6000616e5682616f7c565b9150616e6183616f7c565b9250827fffffffffffffffffffffffffffffffffffffffffffffffffffffffffffffffff03821115616e9657616e95616f86565b5b828201905092915050565b6000616eac82616f7c565b9150616eb783616f7c565b925082616ec757616ec6616fb5565b5b828204905092915050565b6000616edd82616f7c565b9150616ee883616f7c565b9250817fffffffffffffffffffffffffffffffffffffffffffffffffffffffffffffffff0483118215151615616f2157616f20616f86565b5b828202905092915050565b6000616f3782616f5c565b9050919050565b60008115159050919050565b6000616f5582616f2c565b9050919050565b600073ffffffffffffffffffffffffffffffffffffffff82169050919050565b6000819050919050565b7f4e487b7100000000000000000000000000000000000000000000000000000000600052601160045260246000fd5b7f4e487b7100000000000000000000000000000000000000000000000000000000600052601260045260246000fd5b7f21504f4f4c000000000000000000000000000000000000000000000000000000600082015250565b7f2173656e64000000000000000000000000000000000000000000000000000000600082015250565b7f2156414c49440000000000000000000000000000000000000000000000000000600082015250565b7f2152415445000000000000000000000000000000000000000000000000000000600082015250565b7f217472616e736665720000000000000000000000000000000000000000000000600082015250565b50565b7f2153414645000000000000000000000000000000000000000000000000000000600082015250565b7f2147415300000000000000000000000000000000000000000000000000000000600082015250565b7f5265656e7472616e637947756172643a207265656e7472616e742063616c6c00600082015250565b61713881616f2c565b811461714357600080fd5b50565b61714f81616f3e565b811461715a57600080fd5b50565b61716681616f4a565b811461717157600080fd5b50565b61717d81616f7c565b811461718857600080fd5b5056fea26469706673582212201e4745a2caa8a305881e411c65082dbaadfab4b6ecd83cd6dc4722a6aa4eaba164736f6c63430008030033",
  "linkReferences": {},
  "deployedLinkReferences": {}
}