{
  "_format": "hh-sol-artifact-1",
  "contractName": "Router",
  "sourceName": "contracts/Router.sol",
  "abi": [
    {
      "inputs": [
        {
          "internalType": "address",
          "name": "_base",
          "type": "address"
        },
        {
          "internalType": "address",
          "name": "_wbnb",
          "type": "address"
        }
      ],
      "stateMutability": "nonpayable",
      "type": "constructor"
    },
    {
      "inputs": [
        {
          "internalType": "uint256",
          "name": "poolRTC",
          "type": "uint256"
        },
        {
          "internalType": "address",
          "name": "_pool",
          "type": "address"
        }
      ],
      "name": "RTC",
      "outputs": [],
      "stateMutability": "nonpayable",
      "type": "function"
    },
    {
      "inputs": [
        {
          "internalType": "uint256",
          "name": "inputToken",
          "type": "uint256"
        },
        {
          "internalType": "uint256",
          "name": "baseAmount",
          "type": "uint256"
        },
        {
          "internalType": "address",
          "name": "token",
          "type": "address"
        }
      ],
      "name": "addLiquidity",
      "outputs": [],
      "stateMutability": "payable",
      "type": "function"
    },
    {
      "inputs": [
        {
          "internalType": "uint256",
          "name": "input",
          "type": "uint256"
        },
        {
          "internalType": "bool",
          "name": "fromBase",
          "type": "bool"
        },
        {
          "internalType": "address",
          "name": "token",
          "type": "address"
        }
      ],
      "name": "addLiquidityAsym",
      "outputs": [],
      "stateMutability": "payable",
      "type": "function"
    },
    {
      "inputs": [
        {
          "internalType": "uint256",
          "name": "_input",
          "type": "uint256"
        },
        {
          "internalType": "bool",
          "name": "_fromBase",
          "type": "bool"
        },
        {
          "internalType": "address",
          "name": "token",
          "type": "address"
        },
        {
          "internalType": "address",
          "name": "_member",
          "type": "address"
        }
      ],
      "name": "addLiquidityAsymForMember",
      "outputs": [],
      "stateMutability": "payable",
      "type": "function"
    },
    {
      "inputs": [
        {
          "internalType": "uint256",
          "name": "inputToken",
          "type": "uint256"
        },
        {
          "internalType": "uint256",
          "name": "baseAmount",
          "type": "uint256"
        },
        {
          "internalType": "address",
          "name": "token",
          "type": "address"
        },
        {
          "internalType": "address",
          "name": "member",
          "type": "address"
        }
      ],
      "name": "addLiquidityForMember",
      "outputs": [
        {
          "internalType": "uint256",
          "name": "LPsMinted",
          "type": "uint256"
        }
      ],
      "stateMutability": "payable",
      "type": "function"
    },
    {
      "inputs": [
        {
          "internalType": "uint256",
          "name": "amount",
          "type": "uint256"
        },
        {
          "internalType": "address",
          "name": "token",
          "type": "address"
        },
        {
          "internalType": "address",
          "name": "member",
          "type": "address"
        },
        {
          "internalType": "uint256",
          "name": "minAmount",
          "type": "uint256"
        }
      ],
      "name": "buyTo",
      "outputs": [],
      "stateMutability": "nonpayable",
      "type": "function"
    },
    {
      "inputs": [
        {
          "internalType": "uint256",
          "name": "_newDiviClaim",
          "type": "uint256"
        }
      ],
      "name": "changeDiviClaim",
      "outputs": [],
      "stateMutability": "nonpayable",
      "type": "function"
    },
    {
      "inputs": [
        {
          "internalType": "uint256",
          "name": "synthCap",
          "type": "uint256"
        },
        {
          "internalType": "address",
          "name": "_pool",
          "type": "address"
        }
      ],
      "name": "changeSynthCap",
      "outputs": [],
      "stateMutability": "nonpayable",
      "type": "function"
    },
    {
      "inputs": [],
      "name": "diviClaim",
      "outputs": [
        {
          "internalType": "uint256",
          "name": "",
          "type": "uint256"
        }
      ],
      "stateMutability": "view",
      "type": "function"
    },
    {
      "inputs": [],
      "name": "flipSynthMinting",
      "outputs": [],
      "stateMutability": "nonpayable",
      "type": "function"
    },
    {
      "inputs": [],
      "name": "lastMonth",
      "outputs": [
        {
          "internalType": "uint256",
          "name": "",
          "type": "uint256"
        }
      ],
      "stateMutability": "view",
      "type": "function"
    },
    {
      "inputs": [
        {
          "internalType": "address",
          "name": "",
          "type": "address"
        }
      ],
      "name": "mapAddress_30DayDividends",
      "outputs": [
        {
          "internalType": "uint256",
          "name": "",
          "type": "uint256"
        }
      ],
      "stateMutability": "view",
      "type": "function"
    },
    {
      "inputs": [
        {
          "internalType": "address",
          "name": "",
          "type": "address"
        }
      ],
      "name": "mapAddress_Past30DayPoolDividends",
      "outputs": [
        {
          "internalType": "uint256",
          "name": "",
          "type": "uint256"
        }
      ],
      "stateMutability": "view",
      "type": "function"
    },
    {
      "inputs": [],
      "name": "purgeDeployer",
      "outputs": [],
      "stateMutability": "nonpayable",
      "type": "function"
    },
    {
      "inputs": [
        {
          "internalType": "uint256",
          "name": "units",
          "type": "uint256"
        },
        {
          "internalType": "address",
          "name": "token",
          "type": "address"
        }
      ],
      "name": "removeLiquidityExact",
      "outputs": [],
      "stateMutability": "nonpayable",
      "type": "function"
    },
    {
      "inputs": [
        {
          "internalType": "uint256",
          "name": "units",
          "type": "uint256"
        },
        {
          "internalType": "bool",
          "name": "toBase",
          "type": "bool"
        },
        {
          "internalType": "address",
          "name": "token",
          "type": "address"
        }
      ],
      "name": "removeLiquidityExactAsym",
      "outputs": [],
      "stateMutability": "nonpayable",
      "type": "function"
    },
    {
      "inputs": [
        {
          "internalType": "uint256",
          "name": "amount",
          "type": "uint256"
        },
        {
          "internalType": "address",
          "name": "token",
          "type": "address"
        },
        {
          "internalType": "address",
          "name": "member",
          "type": "address"
        },
        {
          "internalType": "uint256",
          "name": "minAmount",
          "type": "uint256"
        }
      ],
      "name": "sellTo",
      "outputs": [
        {
          "internalType": "uint256",
          "name": "",
          "type": "uint256"
        }
      ],
      "stateMutability": "payable",
      "type": "function"
    },
    {
      "inputs": [
        {
          "internalType": "uint256",
          "name": "inputAmount",
          "type": "uint256"
        },
        {
          "internalType": "address",
          "name": "fromToken",
          "type": "address"
        },
        {
          "internalType": "address",
          "name": "toToken",
          "type": "address"
        },
        {
          "internalType": "uint256",
          "name": "minAmount",
          "type": "uint256"
        }
      ],
      "name": "swap",
      "outputs": [],
      "stateMutability": "payable",
      "type": "function"
    },
    {
      "inputs": [
        {
          "internalType": "uint256",
          "name": "inputAmount",
          "type": "uint256"
        },
        {
          "internalType": "address",
          "name": "fromToken",
          "type": "address"
        },
        {
          "internalType": "address",
          "name": "toSynth",
          "type": "address"
        }
      ],
      "name": "swapAssetToSynth",
      "outputs": [],
      "stateMutability": "payable",
      "type": "function"
    },
    {
      "inputs": [
        {
          "internalType": "uint256",
          "name": "inputAmount",
          "type": "uint256"
        },
        {
          "internalType": "address",
          "name": "fromSynth",
          "type": "address"
        },
        {
          "internalType": "address",
          "name": "toToken",
          "type": "address"
        }
      ],
      "name": "swapSynthToAsset",
      "outputs": [],
      "stateMutability": "nonpayable",
      "type": "function"
    },
    {
      "inputs": [
        {
          "internalType": "uint256",
          "name": "inputAmount",
          "type": "uint256"
        },
        {
          "internalType": "address",
          "name": "fromToken",
          "type": "address"
        },
        {
          "internalType": "address",
          "name": "toToken",
          "type": "address"
        },
        {
          "internalType": "address",
          "name": "member",
          "type": "address"
        },
        {
          "internalType": "uint256",
          "name": "minAmount",
          "type": "uint256"
        }
      ],
      "name": "swapTo",
      "outputs": [],
      "stateMutability": "payable",
      "type": "function"
    },
    {
      "inputs": [],
      "name": "synthMinting",
      "outputs": [
        {
          "internalType": "bool",
          "name": "",
          "type": "bool"
        }
      ],
      "stateMutability": "view",
      "type": "function"
    },
    {
      "inputs": [],
      "name": "updatePoolStatus",
      "outputs": [],
      "stateMutability": "nonpayable",
      "type": "function"
    },
    {
      "inputs": [
        {
          "internalType": "uint256",
          "name": "unitsInput",
          "type": "uint256"
        },
        {
          "internalType": "address",
          "name": "fromPool",
          "type": "address"
        },
        {
          "internalType": "address",
          "name": "toPool",
          "type": "address"
        }
      ],
      "name": "zapLiquidity",
      "outputs": [],
      "stateMutability": "nonpayable",
      "type": "function"
    },
    {
      "stateMutability": "payable",
      "type": "receive"
    }
  ],
  "bytecode": "0x60c06040523480156200001157600080fd5b50604051620075d1380380620075d1833981810160405281019062000037919062000130565b60016000819055508173ffffffffffffffffffffffffffffffffffffffff1660808173ffffffffffffffffffffffffffffffffffffffff1660601b815250508073ffffffffffffffffffffffffffffffffffffffff1660a08173ffffffffffffffffffffffffffffffffffffffff1660601b8152505060646002819055506000600560006101000a81548160ff02191690831515021790555033600160006101000a81548173ffffffffffffffffffffffffffffffffffffffff021916908373ffffffffffffffffffffffffffffffffffffffff1602179055505050620001bf565b6000815190506200012a81620001a5565b92915050565b600080604083850312156200014457600080fd5b6000620001548582860162000119565b9250506020620001678582860162000119565b9150509250929050565b60006200017e8262000185565b9050919050565b600073ffffffffffffffffffffffffffffffffffffffff82169050919050565b620001b08162000171565b8114620001bc57600080fd5b50565b60805160601c60a05160601c6172ce6200030360003960008181610b4201528181611cd7015281816120be0152818161345f0152818161454001528181614ed60152818161537a01528181615be10152615c0b015260008181610c1d01528181610cb601528181610cd801528181610d8e01528181610db00152818161133f015281816113a3015281816113c50152818161147b015281816118ab015281816119dd01528181611a42015281816120eb01528181612116015281816121db015281816121fc015281816123810152818161241601528181612437015281816129ab01528181612fcb015281816132a8015281816132c901528181613c6301528181613cf801528181613d1c01528181613e6501528181613e8701528181614493015281816145f901528181614d7a01528181614fdc0152615d7a01526172ce6000f3fe60806040526004361061014f5760003560e01c8063940c4abc116100b6578063c8c1fb751161006f578063c8c1fb7514610403578063cbb3a14a1461042c578063dd845cb914610469578063ee85eda414610480578063f2db620d146104ab578063f48610f3146104c257610156565b8063940c4abc1461031657806399d786ca146103415780639ea5705a1461036c578063a1cd6aa514610395578063aa62519b146103be578063b45e1dbc146103da57610156565b8063451918db11610108578063451918db1461022c5780636325681e1461026957806370085be01461028557806387b21efc146102a15780638b697c20146102bd57806393cac685146102e657610156565b806303a821381461015b57806307f4d34c146101725780631e2dd5151461019b5780633173ec3c146101c4578063334ea133146101e05780633e384a951461021057610156565b3661015657005b600080fd5b34801561016757600080fd5b506101706104eb565b005b34801561017e57600080fd5b5061019960048036038101906101949190616657565b610643565b005b3480156101a757600080fd5b506101c260048036038101906101bd919061680e565b6107b1565b005b6101de60048036038101906101d991906166e5565b610f9f565b005b6101fa60048036038101906101f591906167ab565b611697565b6040516102079190616d3d565b60405180910390f35b61022a60048036038101906102259190616734565b6119a2565b005b34801561023857600080fd5b50610253600480360381019061024e9190616572565b611e83565b6040516102609190616d3d565b60405180910390f35b610283600480360381019061027e919061685d565b611e9b565b005b61029f600480360381019061029a91906167ab565b612616565b005b6102bb60048036038101906102b691906168fc565b612629565b005b3480156102c957600080fd5b506102e460048036038101906102df91906166a9565b61263b565b005b61030060048036038101906102fb919061694b565b6127be565b60405161030d9190616d3d565b60405180910390f35b34801561032257600080fd5b5061032b612a7c565b6040516103389190616c02565b60405180910390f35b34801561034d57600080fd5b50610356612a8f565b6040516103639190616d3d565b60405180910390f35b34801561037857600080fd5b50610393600480360381019061038e91906166a9565b612a95565b005b3480156103a157600080fd5b506103bc60048036038101906103b791906166e5565b612c18565b005b6103d860048036038101906103d3919061680e565b61367e565b005b3480156103e657600080fd5b5061040160048036038101906103fc91906166e5565b61368f565b005b34801561040f57600080fd5b5061042a600480360381019061042591906166a9565b614075565b005b34801561043857600080fd5b50610453600480360381019061044e9190616572565b614632565b6040516104609190616d3d565b60405180910390f35b34801561047557600080fd5b5061047e61464a565b005b34801561048c57600080fd5b50610495614a48565b6040516104a29190616d3d565b60405180910390f35b3480156104b757600080fd5b506104c0614a4e565b005b3480156104ce57600080fd5b506104e960048036038101906104e491906167ab565b614b8e565b005b6104f3614fd8565b73ffffffffffffffffffffffffffffffffffffffff166398fabd3a6040518163ffffffff1660e01b815260040160206040518083038186803b15801561053857600080fd5b505afa15801561054c573d6000803e3d6000fd5b505050506040513d601f19601f82011682018060405250810190610570919061659b565b73ffffffffffffffffffffffffffffffffffffffff163373ffffffffffffffffffffffffffffffffffffffff1614806105f65750600160009054906101000a900473ffffffffffffffffffffffffffffffffffffffff1673ffffffffffffffffffffffffffffffffffffffff163373ffffffffffffffffffffffffffffffffffffffff16145b6105ff57600080fd5b6000600160006101000a81548173ffffffffffffffffffffffffffffffffffffffff021916908373ffffffffffffffffffffffffffffffffffffffff160217905550565b61064b614fd8565b73ffffffffffffffffffffffffffffffffffffffff166398fabd3a6040518163ffffffff1660e01b815260040160206040518083038186803b15801561069057600080fd5b505afa1580156106a4573d6000803e3d6000fd5b505050506040513d601f19601f820116820180604052508101906106c8919061659b565b73ffffffffffffffffffffffffffffffffffffffff163373ffffffffffffffffffffffffffffffffffffffff16148061074e5750600160009054906101000a900473ffffffffffffffffffffffffffffffffffffffff1673ffffffffffffffffffffffffffffffffffffffff163373ffffffffffffffffffffffffffffffffffffffff16145b61075757600080fd5b600081118015610768575061138881105b6107a7576040517f08c379a000000000000000000000000000000000000000000000000000000000815260040161079e90616c5d565b60405180910390fd5b8060028190555050565b600083116107f4576040517f08c379a00000000000000000000000000000000000000000000000000000000081526004016107eb90616c5d565b60405180910390fd5b60006107fe614fd8565b73ffffffffffffffffffffffffffffffffffffffff1663b99b0a0c6040518163ffffffff1660e01b815260040160206040518083038186803b15801561084357600080fd5b505afa158015610857573d6000803e3d6000fd5b505050506040513d601f19601f8201168201806040525081019061087b919061659b565b905060008173ffffffffffffffffffffffffffffffffffffffff1663bbe4f6db846040518263ffffffff1660e01b81526004016108b89190616b5e565b60206040518083038186803b1580156108d057600080fd5b505afa1580156108e4573d6000803e3d6000fd5b505050506040513d601f19601f82011682018060405250810190610908919061659b565b9050600115158273ffffffffffffffffffffffffffffffffffffffff16635b16ebb7836040518263ffffffff1660e01b81526004016109479190616b5e565b602060405180830381600087803b15801561096157600080fd5b505af1158015610975573d6000803e3d6000fd5b505050506040513d601f19601f820116820180604052508101906109999190616605565b1515146109db576040517f08c379a00000000000000000000000000000000000000000000000000000000081526004016109d290616c1d565b60405180910390fd5b600015158173ffffffffffffffffffffffffffffffffffffffff166362a5af3b6040518163ffffffff1660e01b815260040160206040518083038186803b158015610a2557600080fd5b505afa158015610a39573d6000803e3d6000fd5b505050506040513d601f19601f82011682018060405250810190610a5d9190616605565b151514610a6957600080fd5b6000339050610a7a8282848961507d565b8173ffffffffffffffffffffffffffffffffffffffff1663bc5dedc9306040518263ffffffff1660e01b8152600401610ab39190616b5e565b6040805180830381600087803b158015610acc57600080fd5b505af1158015610ae0573d6000803e3d6000fd5b505050506040513d601f19601f82011682018060405250810190610b0491906168c0565b50506000849050600073ffffffffffffffffffffffffffffffffffffffff168573ffffffffffffffffffffffffffffffffffffffff161415610b64577f000000000000000000000000000000000000000000000000000000000000000090505b60008615610d8957610bff82858473ffffffffffffffffffffffffffffffffffffffff166370a08231306040518263ffffffff1660e01b8152600401610baa9190616b5e565b60206040518083038186803b158015610bc257600080fd5b505afa158015610bd6573d6000803e3d6000fd5b505050506040513d601f19601f82011682018060405250810190610bfa9190616680565b6151b6565b8373ffffffffffffffffffffffffffffffffffffffff16632783e4a97f0000000000000000000000000000000000000000000000000000000000000000306040518363ffffffff1660e01b8152600401610c5a929190616b79565b6040805180830381600087803b158015610c7357600080fd5b505af1158015610c87573d6000803e3d6000fd5b505050506040513d601f19601f82011682018060405250810190610cab91906168c0565b905080915050610d847f0000000000000000000000000000000000000000000000000000000000000000847f000000000000000000000000000000000000000000000000000000000000000073ffffffffffffffffffffffffffffffffffffffff166370a08231306040518263ffffffff1660e01b8152600401610d2f9190616b5e565b60206040518083038186803b158015610d4757600080fd5b505afa158015610d5b573d6000803e3d6000fd5b505050506040513d601f19601f82011682018060405250810190610d7f9190616680565b6151b6565b610f82565b610e5c7f0000000000000000000000000000000000000000000000000000000000000000857f000000000000000000000000000000000000000000000000000000000000000073ffffffffffffffffffffffffffffffffffffffff166370a08231306040518263ffffffff1660e01b8152600401610e079190616b5e565b60206040518083038186803b158015610e1f57600080fd5b505afa158015610e33573d6000803e3d6000fd5b505050506040513d601f19601f82011682018060405250810190610e579190616680565b6151b6565b8373ffffffffffffffffffffffffffffffffffffffff16632783e4a983306040518363ffffffff1660e01b8152600401610e97929190616b79565b6040805180830381600087803b158015610eb057600080fd5b505af1158015610ec4573d6000803e3d6000fd5b505050506040513d601f19601f82011682018060405250810190610ee891906168c0565b905080915050610f81868373ffffffffffffffffffffffffffffffffffffffff166370a08231306040518263ffffffff1660e01b8152600401610f2b9190616b5e565b60206040518083038186803b158015610f4357600080fd5b505afa158015610f57573d6000803e3d6000fd5b505050506040513d601f19601f82011682018060405250810190610f7b9190616680565b856152ec565b5b610f8b8461542c565b610f9584826159cf565b5050505050505050565b60008311610fe2576040517f08c379a0000000000000000000000000000000000000000000000000000000008152600401610fd990616c5d565b60405180910390fd5b8073ffffffffffffffffffffffffffffffffffffffff168273ffffffffffffffffffffffffffffffffffffffff16141561101b57600080fd5b60011515611027614fd8565b73ffffffffffffffffffffffffffffffffffffffff16639d2cc4366040518163ffffffff1660e01b815260040160206040518083038186803b15801561106c57600080fd5b505afa158015611080573d6000803e3d6000fd5b505050506040513d601f19601f820116820180604052508101906110a4919061659b565b73ffffffffffffffffffffffffffffffffffffffff1663194e22ce6040518163ffffffff1660e01b8152600401602060405180830381600087803b1580156110eb57600080fd5b505af11580156110ff573d6000803e3d6000fd5b505050506040513d601f19601f820116820180604052508101906111239190616605565b15151415611166576040517f08c379a000000000000000000000000000000000000000000000000000000000815260040161115d90616cbd565b60405180910390fd5b60008173ffffffffffffffffffffffffffffffffffffffff16637535d2466040518163ffffffff1660e01b815260040160206040518083038186803b1580156111ae57600080fd5b505afa1580156111c2573d6000803e3d6000fd5b505050506040513d601f19601f820116820180604052508101906111e6919061659b565b9050600115156111f4614fd8565b73ffffffffffffffffffffffffffffffffffffffff1663b99b0a0c6040518163ffffffff1660e01b815260040160206040518083038186803b15801561123957600080fd5b505afa15801561124d573d6000803e3d6000fd5b505050506040513d601f19601f82011682018060405250810190611271919061659b565b73ffffffffffffffffffffffffffffffffffffffff16635b16ebb7836040518263ffffffff1660e01b81526004016112a99190616b5e565b602060405180830381600087803b1580156112c357600080fd5b505af11580156112d7573d6000803e3d6000fd5b505050506040513d601f19601f820116820180604052508101906112fb9190616605565b15151461133d576040517f08c379a000000000000000000000000000000000000000000000000000000000815260040161133490616c1d565b60405180910390fd5b7f000000000000000000000000000000000000000000000000000000000000000073ffffffffffffffffffffffffffffffffffffffff168373ffffffffffffffffffffffffffffffffffffffff16146114765761139d8484306000611697565b506114717f0000000000000000000000000000000000000000000000000000000000000000827f000000000000000000000000000000000000000000000000000000000000000073ffffffffffffffffffffffffffffffffffffffff166370a08231306040518263ffffffff1660e01b815260040161141c9190616b5e565b60206040518083038186803b15801561143457600080fd5b505afa158015611448573d6000803e3d6000fd5b505050506040513d601f19601f8201168201806040525081019061146c9190616680565b6151b6565b6114a3565b6114a27f000000000000000000000000000000000000000000000000000000000000000033838761507d565b5b60008173ffffffffffffffffffffffffffffffffffffffff1663f1bbdef2336040518263ffffffff1660e01b81526004016114de9190616b5e565b6040805180830381600087803b1580156114f757600080fd5b505af115801561150b573d6000803e3d6000fd5b505050506040513d601f19601f8201168201806040525081019061152f91906168c0565b91505061153b8261542c565b61154582826159cf565b60011515611551614fd8565b73ffffffffffffffffffffffffffffffffffffffff16639d2cc4366040518163ffffffff1660e01b815260040160206040518083038186803b15801561159657600080fd5b505afa1580156115aa573d6000803e3d6000fd5b505050506040513d601f19601f820116820180604052508101906115ce919061659b565b73ffffffffffffffffffffffffffffffffffffffff1663194e22ce6040518163ffffffff1660e01b8152600401602060405180830381600087803b15801561161557600080fd5b505af1158015611629573d6000803e3d6000fd5b505050506040513d601f19601f8201168201806040525081019061164d9190616605565b15151415611690576040517f08c379a000000000000000000000000000000000000000000000000000000000815260040161168790616cbd565b60405180910390fd5b5050505050565b6000806116a2614fd8565b73ffffffffffffffffffffffffffffffffffffffff1663b99b0a0c6040518163ffffffff1660e01b815260040160206040518083038186803b1580156116e757600080fd5b505afa1580156116fb573d6000803e3d6000fd5b505050506040513d601f19601f8201168201806040525081019061171f919061659b565b905060008173ffffffffffffffffffffffffffffffffffffffff1663bbe4f6db876040518263ffffffff1660e01b815260040161175c9190616b5e565b60206040518083038186803b15801561177457600080fd5b505afa158015611788573d6000803e3d6000fd5b505050506040513d601f19601f820116820180604052508101906117ac919061659b565b9050600115158273ffffffffffffffffffffffffffffffffffffffff16635b16ebb7836040518263ffffffff1660e01b81526004016117eb9190616b5e565b602060405180830381600087803b15801561180557600080fd5b505af1158015611819573d6000803e3d6000fd5b505050506040513d601f19601f8201168201806040525081019061183d9190616605565b15151461187f576040517f08c379a000000000000000000000000000000000000000000000000000000000815260040161187690616c1d565b60405180910390fd5b61188a868883615b0a565b6000808273ffffffffffffffffffffffffffffffffffffffff16632783e4a97f0000000000000000000000000000000000000000000000000000000000000000896040518363ffffffff1660e01b81526004016118e8929190616b79565b6040805180830381600087803b15801561190157600080fd5b505af1158015611915573d6000803e3d6000fd5b505050506040513d601f19601f8201168201806040525081019061193991906168c0565b9150915085821015611980576040517f08c379a000000000000000000000000000000000000000000000000000000000815260040161197790616c7d565b60405180910390fd5b6119898361542c565b61199383826159cf565b80945050505050949350505050565b8273ffffffffffffffffffffffffffffffffffffffff168473ffffffffffffffffffffffffffffffffffffffff1614156119db57600080fd5b7f000000000000000000000000000000000000000000000000000000000000000073ffffffffffffffffffffffffffffffffffffffff168473ffffffffffffffffffffffffffffffffffffffff161415611a4057611a3b85848484614b8e565b611e7c565b7f000000000000000000000000000000000000000000000000000000000000000073ffffffffffffffffffffffffffffffffffffffff168373ffffffffffffffffffffffffffffffffffffffff161415611aa657611aa085858484611697565b50611e7b565b6000611ab0614fd8565b73ffffffffffffffffffffffffffffffffffffffff1663b99b0a0c6040518163ffffffff1660e01b815260040160206040518083038186803b158015611af557600080fd5b505afa158015611b09573d6000803e3d6000fd5b505050506040513d601f19601f82011682018060405250810190611b2d919061659b565b905060008173ffffffffffffffffffffffffffffffffffffffff1663bbe4f6db866040518263ffffffff1660e01b8152600401611b6a9190616b5e565b60206040518083038186803b158015611b8257600080fd5b505afa158015611b96573d6000803e3d6000fd5b505050506040513d601f19601f82011682018060405250810190611bba919061659b565b9050600115158273ffffffffffffffffffffffffffffffffffffffff16635b16ebb7836040518263ffffffff1660e01b8152600401611bf99190616b5e565b602060405180830381600087803b158015611c1357600080fd5b505af1158015611c27573d6000803e3d6000fd5b505050506040513d601f19601f82011682018060405250810190611c4b9190616605565b151514611c8d576040517f08c379a0000000000000000000000000000000000000000000000000000000008152600401611c8490616c1d565b60405180910390fd5b611c9a8787836000611697565b506000859050600073ffffffffffffffffffffffffffffffffffffffff168673ffffffffffffffffffffffffffffffffffffffff161415611cf9577f000000000000000000000000000000000000000000000000000000000000000090505b6000808373ffffffffffffffffffffffffffffffffffffffff16632783e4a984306040518363ffffffff1660e01b8152600401611d37929190616b79565b6040805180830381600087803b158015611d5057600080fd5b505af1158015611d64573d6000803e3d6000fd5b505050506040513d601f19601f82011682018060405250810190611d8891906168c0565b9150915085821015611dcf576040517f08c379a0000000000000000000000000000000000000000000000000000000008152600401611dc690616c7d565b60405180910390fd5b611dd88461542c565b611de284826159cf565b611e75888473ffffffffffffffffffffffffffffffffffffffff166370a08231306040518263ffffffff1660e01b8152600401611e1f9190616b5e565b60206040518083038186803b158015611e3757600080fd5b505afa158015611e4b573d6000803e3d6000fd5b505050506040513d601f19601f82011682018060405250810190611e6f9190616680565b896152ec565b50505050505b5b5050505050565b60076020528060005260406000206000915090505481565b6000611ea5614fd8565b73ffffffffffffffffffffffffffffffffffffffff1663b99b0a0c6040518163ffffffff1660e01b815260040160206040518083038186803b158015611eea57600080fd5b505afa158015611efe573d6000803e3d6000fd5b505050506040513d601f19601f82011682018060405250810190611f22919061659b565b905060008173ffffffffffffffffffffffffffffffffffffffff1663bbe4f6db856040518263ffffffff1660e01b8152600401611f5f9190616b5e565b60206040518083038186803b158015611f7757600080fd5b505afa158015611f8b573d6000803e3d6000fd5b505050506040513d601f19601f82011682018060405250810190611faf919061659b565b9050600115158273ffffffffffffffffffffffffffffffffffffffff16635b16ebb7836040518263ffffffff1660e01b8152600401611fee9190616b5e565b602060405180830381600087803b15801561200857600080fd5b505af115801561201c573d6000803e3d6000fd5b505050506040513d601f19601f820116820180604052508101906120409190616605565b151514612082576040517f08c379a000000000000000000000000000000000000000000000000000000000815260040161207990616c1d565b60405180910390fd5b6000849050600073ffffffffffffffffffffffffffffffffffffffff168573ffffffffffffffffffffffffffffffffffffffff1614156120e0577f000000000000000000000000000000000000000000000000000000000000000090505b8515612341576121117f00000000000000000000000000000000000000000000000000000000000000008830615b0a565b6121487f00000000000000000000000000000000000000000000000000000000000000006002896121429190616e4f565b846152ec565b8173ffffffffffffffffffffffffffffffffffffffff16632783e4a982306040518363ffffffff1660e01b8152600401612183929190616b79565b6040805180830381600087803b15801561219c57600080fd5b505af11580156121b0573d6000803e3d6000fd5b505050506040513d601f19601f820116820180604052508101906121d491906168c0565b50506122a97f00000000000000000000000000000000000000000000000000000000000000007f000000000000000000000000000000000000000000000000000000000000000073ffffffffffffffffffffffffffffffffffffffff166370a08231306040518263ffffffff1660e01b81526004016122539190616b5e565b60206040518083038186803b15801561226b57600080fd5b505afa15801561227f573d6000803e3d6000fd5b505050506040513d601f19601f820116820180604052508101906122a39190616680565b846152ec565b61233c818273ffffffffffffffffffffffffffffffffffffffff166370a08231306040518263ffffffff1660e01b81526004016122e69190616b5e565b60206040518083038186803b1580156122fe57600080fd5b505afa158015612312573d6000803e3d6000fd5b505050506040513d601f19601f820116820180604052508101906123369190616680565b846152ec565b612578565b61234c858830615b0a565b6123638160028961235d9190616e4f565b846152ec565b8173ffffffffffffffffffffffffffffffffffffffff16632783e4a97f0000000000000000000000000000000000000000000000000000000000000000306040518363ffffffff1660e01b81526004016123be929190616b79565b6040805180830381600087803b1580156123d757600080fd5b505af11580156123eb573d6000803e3d6000fd5b505050506040513d601f19601f8201168201806040525081019061240f91906168c0565b50506124e47f00000000000000000000000000000000000000000000000000000000000000007f000000000000000000000000000000000000000000000000000000000000000073ffffffffffffffffffffffffffffffffffffffff166370a08231306040518263ffffffff1660e01b815260040161248e9190616b5e565b60206040518083038186803b1580156124a657600080fd5b505afa1580156124ba573d6000803e3d6000fd5b505050506040513d601f19601f820116820180604052508101906124de9190616680565b846152ec565b612577818273ffffffffffffffffffffffffffffffffffffffff166370a08231306040518263ffffffff1660e01b81526004016125219190616b5e565b60206040518083038186803b15801561253957600080fd5b505afa15801561254d573d6000803e3d6000fd5b505050506040513d601f19601f820116820180604052508101906125719190616680565b846152ec565b5b8173ffffffffffffffffffffffffffffffffffffffff166386d5f618856040518263ffffffff1660e01b81526004016125b19190616b5e565b602060405180830381600087803b1580156125cb57600080fd5b505af11580156125df573d6000803e3d6000fd5b505050506040513d601f19601f820116820180604052508101906126039190616680565b5061260d8261542c565b50505050505050565b61262384848433856119a2565b50505050565b612635838383336127be565b50505050565b612643614fd8565b73ffffffffffffffffffffffffffffffffffffffff166398fabd3a6040518163ffffffff1660e01b815260040160206040518083038186803b15801561268857600080fd5b505afa15801561269c573d6000803e3d6000fd5b505050506040513d601f19601f820116820180604052508101906126c0919061659b565b73ffffffffffffffffffffffffffffffffffffffff163373ffffffffffffffffffffffffffffffffffffffff1614806127465750600160009054906101000a900473ffffffffffffffffffffffffffffffffffffffff1673ffffffffffffffffffffffffffffffffffffffff163373ffffffffffffffffffffffffffffffffffffffff16145b61274f57600080fd5b8073ffffffffffffffffffffffffffffffffffffffff16637ec3eae5836040518263ffffffff1660e01b81526004016127889190616d3d565b600060405180830381600087803b1580156127a257600080fd5b505af11580156127b6573d6000803e3d6000fd5b505050505050565b6000806127c9614fd8565b73ffffffffffffffffffffffffffffffffffffffff1663b99b0a0c6040518163ffffffff1660e01b815260040160206040518083038186803b15801561280e57600080fd5b505afa158015612822573d6000803e3d6000fd5b505050506040513d601f19601f82011682018060405250810190612846919061659b565b905060008173ffffffffffffffffffffffffffffffffffffffff1663bbe4f6db866040518263ffffffff1660e01b81526004016128839190616b5e565b60206040518083038186803b15801561289b57600080fd5b505afa1580156128af573d6000803e3d6000fd5b505050506040513d601f19601f820116820180604052508101906128d3919061659b565b9050600115158273ffffffffffffffffffffffffffffffffffffffff16635b16ebb7836040518263ffffffff1660e01b81526004016129129190616b5e565b602060405180830381600087803b15801561292c57600080fd5b505af1158015612940573d6000803e3d6000fd5b505050506040513d601f19601f820116820180604052508101906129649190616605565b1515146129a6576040517f08c379a000000000000000000000000000000000000000000000000000000000815260040161299d90616c1d565b60405180910390fd5b6129d17f00000000000000000000000000000000000000000000000000000000000000008783615b0a565b6129dc858883615b0a565b8073ffffffffffffffffffffffffffffffffffffffff166386d5f618856040518263ffffffff1660e01b8152600401612a159190616b5e565b602060405180830381600087803b158015612a2f57600080fd5b505af1158015612a43573d6000803e3d6000fd5b505050506040513d601f19601f82011682018060405250810190612a679190616680565b9250612a728161542c565b5050949350505050565b600560009054906101000a900460ff1681565b60035481565b612a9d614fd8565b73ffffffffffffffffffffffffffffffffffffffff166398fabd3a6040518163ffffffff1660e01b815260040160206040518083038186803b158015612ae257600080fd5b505afa158015612af6573d6000803e3d6000fd5b505050506040513d601f19601f82011682018060405250810190612b1a919061659b565b73ffffffffffffffffffffffffffffffffffffffff163373ffffffffffffffffffffffffffffffffffffffff161480612ba05750600160009054906101000a900473ffffffffffffffffffffffffffffffffffffffff1673ffffffffffffffffffffffffffffffffffffffff163373ffffffffffffffffffffffffffffffffffffffff16145b612ba957600080fd5b8073ffffffffffffffffffffffffffffffffffffffff1663474e7302836040518263ffffffff1660e01b8152600401612be29190616d3d565b600060405180830381600087803b158015612bfc57600080fd5b505af1158015612c10573d6000803e3d6000fd5b505050505050565b60008311612c5b576040517f08c379a0000000000000000000000000000000000000000000000000000000008152600401612c5290616c5d565b60405180910390fd5b8073ffffffffffffffffffffffffffffffffffffffff168273ffffffffffffffffffffffffffffffffffffffff161415612c9457600080fd5b60011515612ca0614fd8565b73ffffffffffffffffffffffffffffffffffffffff16639d2cc4366040518163ffffffff1660e01b815260040160206040518083038186803b158015612ce557600080fd5b505afa158015612cf9573d6000803e3d6000fd5b505050506040513d601f19601f82011682018060405250810190612d1d919061659b565b73ffffffffffffffffffffffffffffffffffffffff1663194e22ce6040518163ffffffff1660e01b8152600401602060405180830381600087803b158015612d6457600080fd5b505af1158015612d78573d6000803e3d6000fd5b505050506040513d601f19601f82011682018060405250810190612d9c9190616605565b15151415612ddf576040517f08c379a0000000000000000000000000000000000000000000000000000000008152600401612dd690616cbd565b60405180910390fd5b6000612de9614fd8565b73ffffffffffffffffffffffffffffffffffffffff1663b99b0a0c6040518163ffffffff1660e01b815260040160206040518083038186803b158015612e2e57600080fd5b505afa158015612e42573d6000803e3d6000fd5b505050506040513d601f19601f82011682018060405250810190612e66919061659b565b905060008373ffffffffffffffffffffffffffffffffffffffff16637535d2466040518163ffffffff1660e01b815260040160206040518083038186803b158015612eb057600080fd5b505afa158015612ec4573d6000803e3d6000fd5b505050506040513d601f19601f82011682018060405250810190612ee8919061659b565b9050600115158273ffffffffffffffffffffffffffffffffffffffff16635b16ebb7836040518263ffffffff1660e01b8152600401612f279190616b5e565b602060405180830381600087803b158015612f4157600080fd5b505af1158015612f55573d6000803e3d6000fd5b505050506040513d601f19601f82011682018060405250810190612f799190616605565b151514612fbb576040517f08c379a0000000000000000000000000000000000000000000000000000000008152600401612fb290616c1d565b60405180910390fd5b612fc78433838861507d565b60007f000000000000000000000000000000000000000000000000000000000000000073ffffffffffffffffffffffffffffffffffffffff168473ffffffffffffffffffffffffffffffffffffffff1614156130b2578173ffffffffffffffffffffffffffffffffffffffff1663dbfc5a04336040518263ffffffff1660e01b81526004016130569190616b5e565b6040805180830381600087803b15801561306f57600080fd5b505af1158015613083573d6000803e3d6000fd5b505050506040513d601f19601f820116820180604052508101906130a791906168c0565b905080915050613518565b60008373ffffffffffffffffffffffffffffffffffffffff1663bbe4f6db866040518263ffffffff1660e01b81526004016130ed9190616b5e565b60206040518083038186803b15801561310557600080fd5b505afa158015613119573d6000803e3d6000fd5b505050506040513d601f19601f8201168201806040525081019061313d919061659b565b9050600115158473ffffffffffffffffffffffffffffffffffffffff16635b16ebb7836040518263ffffffff1660e01b815260040161317c9190616b5e565b602060405180830381600087803b15801561319657600080fd5b505af11580156131aa573d6000803e3d6000fd5b505050506040513d601f19601f820116820180604052508101906131ce9190616605565b151514613210576040517f08c379a000000000000000000000000000000000000000000000000000000000815260040161320790616c1d565b60405180910390fd5b6000808473ffffffffffffffffffffffffffffffffffffffff1663dbfc5a04306040518263ffffffff1660e01b815260040161324c9190616b5e565b6040805180830381600087803b15801561326557600080fd5b505af1158015613279573d6000803e3d6000fd5b505050506040513d601f19601f8201168201806040525081019061329d91906168c0565b9050809450506133767f00000000000000000000000000000000000000000000000000000000000000007f000000000000000000000000000000000000000000000000000000000000000073ffffffffffffffffffffffffffffffffffffffff166370a08231306040518263ffffffff1660e01b81526004016133209190616b5e565b60206040518083038186803b15801561333857600080fd5b505afa15801561334c573d6000803e3d6000fd5b505050506040513d601f19601f820116820180604052508101906133709190616680565b856152ec565b600073ffffffffffffffffffffffffffffffffffffffff168773ffffffffffffffffffffffffffffffffffffffff1614613441578273ffffffffffffffffffffffffffffffffffffffff16632783e4a988336040518363ffffffff1660e01b81526004016133e5929190616b79565b6040805180830381600087803b1580156133fe57600080fd5b505af1158015613412573d6000803e3d6000fd5b505050506040513d601f19601f8201168201806040525081019061343691906168c0565b905080925050613501565b8273ffffffffffffffffffffffffffffffffffffffff16632783e4a97f0000000000000000000000000000000000000000000000000000000000000000306040518363ffffffff1660e01b815260040161349c929190616b79565b6040805180830381600087803b1580156134b557600080fd5b505af11580156134c9573d6000803e3d6000fd5b505050506040513d601f19601f820116820180604052508101906134ed91906168c0565b80935081925050506135008782336152ec565b5b61350a8361542c565b61351483836159cf565b5050505b6135218261542c565b61352b82826159cf565b60011515613537614fd8565b73ffffffffffffffffffffffffffffffffffffffff16639d2cc4366040518163ffffffff1660e01b815260040160206040518083038186803b15801561357c57600080fd5b505afa158015613590573d6000803e3d6000fd5b505050506040513d601f19601f820116820180604052508101906135b4919061659b565b73ffffffffffffffffffffffffffffffffffffffff1663194e22ce6040518163ffffffff1660e01b8152600401602060405180830381600087803b1580156135fb57600080fd5b505af115801561360f573d6000803e3d6000fd5b505050506040513d601f19601f820116820180604052508101906136339190616605565b15151415613676576040517f08c379a000000000000000000000000000000000000000000000000000000000815260040161366d90616cbd565b60405180910390fd5b505050505050565b61368a83838333611e9b565b505050565b600260005414156136d5576040517f08c379a00000000000000000000000000000000000000000000000000000000081526004016136cc90616d1d565b60405180910390fd5b60026000819055508073ffffffffffffffffffffffffffffffffffffffff168273ffffffffffffffffffffffffffffffffffffffff16141580156137195750600083115b613758576040517f08c379a000000000000000000000000000000000000000000000000000000000815260040161374f90616c5d565b60405180910390fd5b6000613762614fd8565b73ffffffffffffffffffffffffffffffffffffffff1663b99b0a0c6040518163ffffffff1660e01b815260040160206040518083038186803b1580156137a757600080fd5b505afa1580156137bb573d6000803e3d6000fd5b505050506040513d601f19601f820116820180604052508101906137df919061659b565b9050600115158173ffffffffffffffffffffffffffffffffffffffff16635b16ebb7856040518263ffffffff1660e01b815260040161381e9190616b5e565b602060405180830381600087803b15801561383857600080fd5b505af115801561384c573d6000803e3d6000fd5b505050506040513d601f19601f820116820180604052508101906138709190616605565b1515146138b2576040517f08c379a00000000000000000000000000000000000000000000000000000000081526004016138a990616c1d565b60405180910390fd5b600015158373ffffffffffffffffffffffffffffffffffffffff166362a5af3b6040518163ffffffff1660e01b815260040160206040518083038186803b1580156138fc57600080fd5b505afa158015613910573d6000803e3d6000fd5b505050506040513d601f19601f820116820180604052508101906139349190616605565b15151461394057600080fd5b600115158173ffffffffffffffffffffffffffffffffffffffff16635b16ebb7846040518263ffffffff1660e01b815260040161397d9190616b5e565b602060405180830381600087803b15801561399757600080fd5b505af11580156139ab573d6000803e3d6000fd5b505050506040513d601f19601f820116820180604052508101906139cf9190616605565b151514613a11576040517f08c379a0000000000000000000000000000000000000000000000000000000008152600401613a0890616c1d565b60405180910390fd5b60008373ffffffffffffffffffffffffffffffffffffffff166382bfefc86040518163ffffffff1660e01b815260040160206040518083038186803b158015613a5957600080fd5b505afa158015613a6d573d6000803e3d6000fd5b505050506040513d601f19601f82011682018060405250810190613a91919061659b565b905060008373ffffffffffffffffffffffffffffffffffffffff166382bfefc86040518163ffffffff1660e01b815260040160206040518083038186803b158015613adb57600080fd5b505afa158015613aef573d6000803e3d6000fd5b505050506040513d601f19601f82011682018060405250810190613b13919061659b565b90506000339050613b268682888a61507d565b8573ffffffffffffffffffffffffffffffffffffffff1663bc5dedc9306040518263ffffffff1660e01b8152600401613b5f9190616b5e565b6040805180830381600087803b158015613b7857600080fd5b505af1158015613b8c573d6000803e3d6000fd5b505050506040513d601f19601f82011682018060405250810190613bb091906168c0565b5050613c4583878573ffffffffffffffffffffffffffffffffffffffff166370a08231306040518263ffffffff1660e01b8152600401613bf09190616b5e565b60206040518083038186803b158015613c0857600080fd5b505afa158015613c1c573d6000803e3d6000fd5b505050506040513d601f19601f82011682018060405250810190613c409190616680565b6151b6565b8573ffffffffffffffffffffffffffffffffffffffff16632783e4a97f0000000000000000000000000000000000000000000000000000000000000000306040518363ffffffff1660e01b8152600401613ca0929190616b79565b6040805180830381600087803b158015613cb957600080fd5b505af1158015613ccd573d6000803e3d6000fd5b505050506040513d601f19601f82011682018060405250810190613cf191906168c0565b5050613dd27f00000000000000000000000000000000000000000000000000000000000000008660027f000000000000000000000000000000000000000000000000000000000000000073ffffffffffffffffffffffffffffffffffffffff166370a08231306040518263ffffffff1660e01b8152600401613d739190616b5e565b60206040518083038186803b158015613d8b57600080fd5b505afa158015613d9f573d6000803e3d6000fd5b505050506040513d601f19601f82011682018060405250810190613dc39190616680565b613dcd9190616e4f565b6151b6565b8473ffffffffffffffffffffffffffffffffffffffff16632783e4a983306040518363ffffffff1660e01b8152600401613e0d929190616b79565b6040805180830381600087803b158015613e2657600080fd5b505af1158015613e3a573d6000803e3d6000fd5b505050506040513d601f19601f82011682018060405250810190613e5e91906168c0565b5050613f337f0000000000000000000000000000000000000000000000000000000000000000867f000000000000000000000000000000000000000000000000000000000000000073ffffffffffffffffffffffffffffffffffffffff166370a08231306040518263ffffffff1660e01b8152600401613ede9190616b5e565b60206040518083038186803b158015613ef657600080fd5b505afa158015613f0a573d6000803e3d6000fd5b505050506040513d601f19601f82011682018060405250810190613f2e9190616680565b6151b6565b613fc682868473ffffffffffffffffffffffffffffffffffffffff166370a08231306040518263ffffffff1660e01b8152600401613f719190616b5e565b60206040518083038186803b158015613f8957600080fd5b505afa158015613f9d573d6000803e3d6000fd5b505050506040513d601f19601f82011682018060405250810190613fc19190616680565b6151b6565b8473ffffffffffffffffffffffffffffffffffffffff166386d5f618826040518263ffffffff1660e01b8152600401613fff9190616b5e565b602060405180830381600087803b15801561401957600080fd5b505af115801561402d573d6000803e3d6000fd5b505050506040513d601f19601f820116820180604052508101906140519190616680565b5061405b8661542c565b6140648561542c565b505050506001600081905550505050565b600082116140b8576040517f08c379a00000000000000000000000000000000000000000000000000000000081526004016140af90616c5d565b60405180910390fd5b60006140c2614fd8565b73ffffffffffffffffffffffffffffffffffffffff1663b99b0a0c6040518163ffffffff1660e01b815260040160206040518083038186803b15801561410757600080fd5b505afa15801561411b573d6000803e3d6000fd5b505050506040513d601f19601f8201168201806040525081019061413f919061659b565b905060008173ffffffffffffffffffffffffffffffffffffffff1663bbe4f6db846040518263ffffffff1660e01b815260040161417c9190616b5e565b60206040518083038186803b15801561419457600080fd5b505afa1580156141a8573d6000803e3d6000fd5b505050506040513d601f19601f820116820180604052508101906141cc919061659b565b9050600015158173ffffffffffffffffffffffffffffffffffffffff166362a5af3b6040518163ffffffff1660e01b815260040160206040518083038186803b15801561421857600080fd5b505afa15801561422c573d6000803e3d6000fd5b505050506040513d601f19601f820116820180604052508101906142509190616605565b15151461425c57600080fd5b600115158273ffffffffffffffffffffffffffffffffffffffff16635b16ebb7836040518263ffffffff1660e01b81526004016142999190616b5e565b602060405180830381600087803b1580156142b357600080fd5b505af11580156142c7573d6000803e3d6000fd5b505050506040513d601f19601f820116820180604052508101906142eb9190616605565b15151461432d576040517f08c379a000000000000000000000000000000000000000000000000000000000815260040161432490616c1d565b60405180910390fd5b600033905061433e8282848861507d565b600073ffffffffffffffffffffffffffffffffffffffff168473ffffffffffffffffffffffffffffffffffffffff1614614403578173ffffffffffffffffffffffffffffffffffffffff1663bc5dedc9826040518263ffffffff1660e01b81526004016143ab9190616b5e565b6040805180830381600087803b1580156143c457600080fd5b505af11580156143d8573d6000803e3d6000fd5b505050506040513d601f19601f820116820180604052508101906143fc91906168c0565b5050614622565b8173ffffffffffffffffffffffffffffffffffffffff1663bc5dedc9306040518263ffffffff1660e01b815260040161443c9190616b5e565b6040805180830381600087803b15801561445557600080fd5b505af1158015614469573d6000803e3d6000fd5b505050506040513d601f19601f8201168201806040525081019061448d91906168c0565b505060007f000000000000000000000000000000000000000000000000000000000000000073ffffffffffffffffffffffffffffffffffffffff166370a08231306040518263ffffffff1660e01b81526004016144ea9190616b5e565b60206040518083038186803b15801561450257600080fd5b505afa158015614516573d6000803e3d6000fd5b505050506040513d601f19601f8201168201806040525081019061453a9190616680565b905060007f000000000000000000000000000000000000000000000000000000000000000073ffffffffffffffffffffffffffffffffffffffff166370a08231306040518263ffffffff1660e01b81526004016145979190616b5e565b60206040518083038186803b1580156145af57600080fd5b505afa1580156145c3573d6000803e3d6000fd5b505050506040513d601f19601f820116820180604052508101906145e79190616680565b90506145f48682856152ec565b61461f7f000000000000000000000000000000000000000000000000000000000000000083856152ec565b50505b61462b8261542c565b5050505050565b60066020528060005260406000206000915090505481565b614652614fd8565b73ffffffffffffffffffffffffffffffffffffffff16639d2cc4366040518163ffffffff1660e01b815260040160206040518083038186803b15801561469757600080fd5b505afa1580156146ab573d6000803e3d6000fd5b505050506040513d601f19601f820116820180604052508101906146cf919061659b565b73ffffffffffffffffffffffffffffffffffffffff1663194e22ce6040518163ffffffff1660e01b8152600401602060405180830381600087803b15801561471657600080fd5b505af115801561472a573d6000803e3d6000fd5b505050506040513d601f19601f8201168201806040525081019061474e9190616605565b15614a4657600061475d614fd8565b73ffffffffffffffffffffffffffffffffffffffff1663b99b0a0c6040518163ffffffff1660e01b815260040160206040518083038186803b1580156147a257600080fd5b505afa1580156147b6573d6000803e3d6000fd5b505050506040513d601f19601f820116820180604052508101906147da919061659b565b73ffffffffffffffffffffffffffffffffffffffff1663abc764da6040518163ffffffff1660e01b815260040160006040518083038186803b15801561481f57600080fd5b505afa158015614833573d6000803e3d6000fd5b505050506040513d6000823e3d601f19601f8201168201806040525081019061485c91906165c4565b905060006001905060005b825181101561494b578281815181106148a9577f4e487b7100000000000000000000000000000000000000000000000000000000600052603260045260246000fd5b602002602001015173ffffffffffffffffffffffffffffffffffffffff166362a5af3b6040518163ffffffff1660e01b815260040160206040518083038186803b1580156148f657600080fd5b505afa15801561490a573d6000803e3d6000fd5b505050506040513d601f19601f8201168201806040525081019061492e9190616605565b1561493857600091505b808061494390616f98565b915050614867565b508015614a435761495a614fd8565b73ffffffffffffffffffffffffffffffffffffffff16639d2cc4366040518163ffffffff1660e01b815260040160206040518083038186803b15801561499f57600080fd5b505afa1580156149b3573d6000803e3d6000fd5b505050506040513d601f19601f820116820180604052508101906149d7919061659b565b73ffffffffffffffffffffffffffffffffffffffff16637828c71760006040518263ffffffff1660e01b8152600401614a109190616c02565b600060405180830381600087803b158015614a2a57600080fd5b505af1158015614a3e573d6000803e3d6000fd5b505050505b50505b565b60025481565b614a56614fd8565b73ffffffffffffffffffffffffffffffffffffffff166398fabd3a6040518163ffffffff1660e01b815260040160206040518083038186803b158015614a9b57600080fd5b505afa158015614aaf573d6000803e3d6000fd5b505050506040513d601f19601f82011682018060405250810190614ad3919061659b565b73ffffffffffffffffffffffffffffffffffffffff163373ffffffffffffffffffffffffffffffffffffffff161480614b595750600160009054906101000a900473ffffffffffffffffffffffffffffffffffffffff1673ffffffffffffffffffffffffffffffffffffffff163373ffffffffffffffffffffffffffffffffffffffff16145b614b6257600080fd5b600560009054906101000a900460ff1615600560006101000a81548160ff021916908315150217905550565b6000614b98614fd8565b73ffffffffffffffffffffffffffffffffffffffff1663b99b0a0c6040518163ffffffff1660e01b815260040160206040518083038186803b158015614bdd57600080fd5b505afa158015614bf1573d6000803e3d6000fd5b505050506040513d601f19601f82011682018060405250810190614c15919061659b565b905060008173ffffffffffffffffffffffffffffffffffffffff1663bbe4f6db866040518263ffffffff1660e01b8152600401614c529190616b5e565b60206040518083038186803b158015614c6a57600080fd5b505afa158015614c7e573d6000803e3d6000fd5b505050506040513d601f19601f82011682018060405250810190614ca2919061659b565b9050600115158273ffffffffffffffffffffffffffffffffffffffff16635b16ebb7836040518263ffffffff1660e01b8152600401614ce19190616b5e565b602060405180830381600087803b158015614cfb57600080fd5b505af1158015614d0f573d6000803e3d6000fd5b505050506040513d601f19601f82011682018060405250810190614d339190616605565b151514614d75576040517f08c379a0000000000000000000000000000000000000000000000000000000008152600401614d6c90616c1d565b60405180910390fd5b614da07f00000000000000000000000000000000000000000000000000000000000000008783615b0a565b60008073ffffffffffffffffffffffffffffffffffffffff168673ffffffffffffffffffffffffffffffffffffffff1614614eb5576000808373ffffffffffffffffffffffffffffffffffffffff16632783e4a989896040518363ffffffff1660e01b8152600401614e13929190616b79565b6040805180830381600087803b158015614e2c57600080fd5b505af1158015614e40573d6000803e3d6000fd5b505050506040513d601f19601f82011682018060405250810190614e6491906168c0565b9150915085821015614eab576040517f08c379a0000000000000000000000000000000000000000000000000000000008152600401614ea290616c7d565b60405180910390fd5b8092505050614fbc565b6000808373ffffffffffffffffffffffffffffffffffffffff16632783e4a97f0000000000000000000000000000000000000000000000000000000000000000306040518363ffffffff1660e01b8152600401614f13929190616b79565b6040805180830381600087803b158015614f2c57600080fd5b505af1158015614f40573d6000803e3d6000fd5b505050506040513d601f19601f82011682018060405250810190614f6491906168c0565b9150915085821015614fab576040517f08c379a0000000000000000000000000000000000000000000000000000000008152600401614fa290616c7d565b60405180910390fd5b614fb68883896152ec565b80925050505b614fc58261542c565b614fcf82826159cf565b50505050505050565b60007f000000000000000000000000000000000000000000000000000000000000000073ffffffffffffffffffffffffffffffffffffffff166398fabd3a6040518163ffffffff1660e01b815260040160206040518083038186803b15801561504057600080fd5b505afa158015615054573d6000803e3d6000fd5b505050506040513d601f19601f82011682018060405250810190615078919061662e565b905090565b6000808573ffffffffffffffffffffffffffffffffffffffff166323b872dd8686866040516024016150b193929190616ba2565b6040516020818303038152906040529060e01b6020820180517bffffffffffffffffffffffffffffffffffffffffffffffffffffffff83818316178352505050506040516150ff9190616b47565b6000604051808303816000865af19150503d806000811461513c576040519150601f19603f3d011682016040523d82523d6000602084013e615141565b606091505b509150915081801561516f575060008151148061516e57508080602001905181019061516d9190616605565b5b5b6151ae576040517f08c379a00000000000000000000000000000000000000000000000000000000081526004016151a590616cfd565b60405180910390fd5b505050505050565b6000808473ffffffffffffffffffffffffffffffffffffffff1663a9059cbb85856040516024016151e8929190616bd9565b6040516020818303038152906040529060e01b6020820180517bffffffffffffffffffffffffffffffffffffffffffffffffffffffff83818316178352505050506040516152369190616b47565b6000604051808303816000865af19150503d8060008114615273576040519150601f19603f3d011682016040523d82523d6000602084013e615278565b606091505b50915091508180156152a657506000815114806152a55750808060200190518101906152a49190616605565b5b5b6152e5576040517f08c379a00000000000000000000000000000000000000000000000000000000081526004016152dc90616c3d565b60405180910390fd5b5050505050565b60026000541415615332576040517f08c379a000000000000000000000000000000000000000000000000000000000815260040161532990616d1d565b60405180910390fd5b6002600081905550600082111561541f57600073ffffffffffffffffffffffffffffffffffffffff168373ffffffffffffffffffffffffffffffffffffffff161415615412577f000000000000000000000000000000000000000000000000000000000000000073ffffffffffffffffffffffffffffffffffffffff16632e1a7d4d836040518263ffffffff1660e01b81526004016153d19190616d3d565b600060405180830381600087803b1580156153eb57600080fd5b505af11580156153ff573d6000803e3d6000fd5b5050505061540d8183615c50565b61541e565b61541d8382846151b6565b5b5b6001600081905550505050565b615434614fd8565b73ffffffffffffffffffffffffffffffffffffffff1663b99b0a0c6040518163ffffffff1660e01b815260040160206040518083038186803b15801561547957600080fd5b505afa15801561548d573d6000803e3d6000fd5b505050506040513d601f19601f820116820180604052508101906154b1919061659b565b73ffffffffffffffffffffffffffffffffffffffff16638dcb4c93826040518263ffffffff1660e01b81526004016154e99190616b5e565b60206040518083038186803b15801561550157600080fd5b505afa158015615515573d6000803e3d6000fd5b505050506040513d601f19601f820116820180604052508101906155399190616605565b156159cc578073ffffffffffffffffffffffffffffffffffffffff166362a5af3b6040518163ffffffff1660e01b815260040160206040518083038186803b15801561558457600080fd5b505afa158015615598573d6000803e3d6000fd5b505050506040513d601f19601f820116820180604052508101906155bc9190616605565b156156b2576155c9614fd8565b73ffffffffffffffffffffffffffffffffffffffff16639d2cc4366040518163ffffffff1660e01b815260040160206040518083038186803b15801561560e57600080fd5b505afa158015615622573d6000803e3d6000fd5b505050506040513d601f19601f82011682018060405250810190615646919061659b565b73ffffffffffffffffffffffffffffffffffffffff16637828c71760016040518263ffffffff1660e01b815260040161567f9190616c02565b600060405180830381600087803b15801561569957600080fd5b505af11580156156ad573d6000803e3d6000fd5b505050505b6156ba614fd8565b73ffffffffffffffffffffffffffffffffffffffff16639d2cc4366040518163ffffffff1660e01b815260040160206040518083038186803b1580156156ff57600080fd5b505afa158015615713573d6000803e3d6000fd5b505050506040513d601f19601f82011682018060405250810190615737919061659b565b73ffffffffffffffffffffffffffffffffffffffff1663194e22ce6040518163ffffffff1660e01b8152600401602060405180830381600087803b15801561577e57600080fd5b505af1158015615792573d6000803e3d6000fd5b505050506040513d601f19601f820116820180604052508101906157b69190616605565b156159cb5760006157c5614fd8565b73ffffffffffffffffffffffffffffffffffffffff16639d2cc4366040518163ffffffff1660e01b815260040160206040518083038186803b15801561580a57600080fd5b505afa15801561581e573d6000803e3d6000fd5b505050506040513d601f19601f82011682018060405250810190615842919061659b565b73ffffffffffffffffffffffffffffffffffffffff1663fd7e1bee6040518163ffffffff1660e01b8152600401602060405180830381600087803b15801561588957600080fd5b505af115801561589d573d6000803e3d6000fd5b505050506040513d601f19601f820116820180604052508101906158c19190616680565b9050610e10816158d19190616df9565b4211156159c9576158e0614fd8565b73ffffffffffffffffffffffffffffffffffffffff16639d2cc4366040518163ffffffff1660e01b815260040160206040518083038186803b15801561592557600080fd5b505afa158015615939573d6000803e3d6000fd5b505050506040513d601f19601f8201168201806040525081019061595d919061659b565b73ffffffffffffffffffffffffffffffffffffffff16637828c71760006040518263ffffffff1660e01b81526004016159969190616c02565b600060405180830381600087803b1580156159b057600080fd5b505af11580156159c4573d6000803e3d6000fd5b505050505b505b5b50565b670de0b6b3a764000081118015615af65750600115156159ed614fd8565b73ffffffffffffffffffffffffffffffffffffffff1663b99b0a0c6040518163ffffffff1660e01b815260040160206040518083038186803b158015615a3257600080fd5b505afa158015615a46573d6000803e3d6000fd5b505050506040513d601f19601f82011682018060405250810190615a6a919061659b565b73ffffffffffffffffffffffffffffffffffffffff16638dcb4c93846040518263ffffffff1660e01b8152600401615aa29190616b5e565b60206040518083038186803b158015615aba57600080fd5b505afa158015615ace573d6000803e3d6000fd5b505050506040513d601f19601f82011682018060405250810190615af29190616605565b1515145b15615b0657615b058282615d76565b5b5050565b60026000541415615b50576040517f08c379a0000000000000000000000000000000000000000000000000000000008152600401615b4790616d1d565b60405180910390fd5b600260008190555060008211615b9b576040517f08c379a0000000000000000000000000000000000000000000000000000000008152600401615b9290616cdd565b60405180910390fd5b600073ffffffffffffffffffffffffffffffffffffffff168373ffffffffffffffffffffffffffffffffffffffff161415615c3657348214615bdc57600080fd5b615c067f000000000000000000000000000000000000000000000000000000000000000083615c50565b615c317f000000000000000000000000000000000000000000000000000000000000000082846151b6565b615c43565b615c428333838561507d565b5b6001600081905550505050565b60008273ffffffffffffffffffffffffffffffffffffffff1682600067ffffffffffffffff811115615cab577f4e487b7100000000000000000000000000000000000000000000000000000000600052604160045260246000fd5b6040519080825280601f01601f191660200182016040528015615cdd5781602001600182028036833780820191505090505b50604051615ceb9190616b47565b60006040518083038185875af1925050503d8060008114615d28576040519150601f19603f3d011682016040523d82523d6000602084013e615d2d565b606091505b5050905080615d71576040517f08c379a0000000000000000000000000000000000000000000000000000000008152600401615d6890616c9d565b60405180910390fd5b505050565b60007f000000000000000000000000000000000000000000000000000000000000000073ffffffffffffffffffffffffffffffffffffffff166370a08231615dbc614fd8565b73ffffffffffffffffffffffffffffffffffffffff16639d2cc4366040518163ffffffff1660e01b815260040160206040518083038186803b158015615e0157600080fd5b505afa158015615e15573d6000803e3d6000fd5b505050506040513d601f19601f82011682018060405250810190615e39919061659b565b6040518263ffffffff1660e01b8152600401615e559190616b5e565b60206040518083038186803b158015615e6d57600080fd5b505afa158015615e81573d6000803e3d6000fd5b505050506040513d601f19601f82011682018060405250810190615ea59190616680565b90506000615eb1614fd8565b73ffffffffffffffffffffffffffffffffffffffff16639d2cc4366040518163ffffffff1660e01b815260040160206040518083038186803b158015615ef657600080fd5b505afa158015615f0a573d6000803e3d6000fd5b505050506040513d601f19601f82011682018060405250810190615f2e919061659b565b73ffffffffffffffffffffffffffffffffffffffff16632267716c6040518163ffffffff1660e01b8152600401602060405180830381600087803b158015615f7557600080fd5b505af1158015615f89573d6000803e3d6000fd5b505050506040513d601f19601f82011682018060405250810190615fad9190616605565b9050600082118015615fbc5750805b156162b3576000615fcb614fd8565b73ffffffffffffffffffffffffffffffffffffffff1663b99b0a0c6040518163ffffffff1660e01b815260040160206040518083038186803b15801561601057600080fd5b505afa158015616024573d6000803e3d6000fd5b505050506040513d601f19601f82011682018060405250810190616048919061659b565b73ffffffffffffffffffffffffffffffffffffffff16638bc51e366040518163ffffffff1660e01b815260040160206040518083038186803b15801561608d57600080fd5b505afa1580156160a1573d6000803e3d6000fd5b505050506040513d601f19601f820116820180604052508101906160c59190616680565b905060045481146160d857806004819055505b600061271082600254866160ec9190616e80565b6160f69190616e4f565b6161009190616e4f565b90508085600660008973ffffffffffffffffffffffffffffffffffffffff1673ffffffffffffffffffffffffffffffffffffffff1681526020019081526020016000205461614e9190616df9565b10156162b05761615e85876162b9565b616166614fd8565b73ffffffffffffffffffffffffffffffffffffffff16639d2cc4366040518163ffffffff1660e01b815260040160206040518083038186803b1580156161ab57600080fd5b505afa1580156161bf573d6000803e3d6000fd5b505050506040513d601f19601f820116820180604052508101906161e3919061659b565b73ffffffffffffffffffffffffffffffffffffffff16637d458baa86886040518363ffffffff1660e01b815260040161621d929190616d58565b600060405180830381600087803b15801561623757600080fd5b505af115801561624b573d6000803e3d6000fd5b505050508573ffffffffffffffffffffffffffffffffffffffff1663fff6cae96040518163ffffffff1660e01b8152600401600060405180830381600087803b15801561629757600080fd5b505af11580156162ab573d6000803e3d6000fd5b505050505b50505b50505050565b600060035414156162cc57426003819055505b62278d006003546162dd9190616df9565b42116163765781600660008373ffffffffffffffffffffffffffffffffffffffff1673ffffffffffffffffffffffffffffffffffffffff1681526020019081526020016000205461632e9190616df9565b600660008373ffffffffffffffffffffffffffffffffffffffff1673ffffffffffffffffffffffffffffffffffffffff16815260200190815260200160002081905550616445565b42600381905550600660008273ffffffffffffffffffffffffffffffffffffffff1673ffffffffffffffffffffffffffffffffffffffff16815260200190815260200160002054600760008373ffffffffffffffffffffffffffffffffffffffff1673ffffffffffffffffffffffffffffffffffffffff1681526020019081526020016000208190555081600660008373ffffffffffffffffffffffffffffffffffffffff1673ffffffffffffffffffffffffffffffffffffffff168152602001908152602001600020819055505b5050565b600061645c61645784616da6565b616d81565b9050808382526020820190508285602086028201111561647b57600080fd5b60005b858110156164ab578161649188826164ca565b84526020840193506020830192505060018101905061647e565b5050509392505050565b6000813590506164c48161723c565b92915050565b6000815190506164d98161723c565b92915050565b600082601f8301126164f057600080fd5b8151616500848260208601616449565b91505092915050565b60008135905061651881617253565b92915050565b60008151905061652d81617253565b92915050565b6000815190506165428161726a565b92915050565b60008135905061655781617281565b92915050565b60008151905061656c81617281565b92915050565b60006020828403121561658457600080fd5b6000616592848285016164b5565b91505092915050565b6000602082840312156165ad57600080fd5b60006165bb848285016164ca565b91505092915050565b6000602082840312156165d657600080fd5b600082015167ffffffffffffffff8111156165f057600080fd5b6165fc848285016164df565b91505092915050565b60006020828403121561661757600080fd5b60006166258482850161651e565b91505092915050565b60006020828403121561664057600080fd5b600061664e84828501616533565b91505092915050565b60006020828403121561666957600080fd5b600061667784828501616548565b91505092915050565b60006020828403121561669257600080fd5b60006166a08482850161655d565b91505092915050565b600080604083850312156166bc57600080fd5b60006166ca85828601616548565b92505060206166db858286016164b5565b9150509250929050565b6000806000606084860312156166fa57600080fd5b600061670886828701616548565b9350506020616719868287016164b5565b925050604061672a868287016164b5565b9150509250925092565b600080600080600060a0868803121561674c57600080fd5b600061675a88828901616548565b955050602061676b888289016164b5565b945050604061677c888289016164b5565b935050606061678d888289016164b5565b925050608061679e88828901616548565b9150509295509295909350565b600080600080608085870312156167c157600080fd5b60006167cf87828801616548565b94505060206167e0878288016164b5565b93505060406167f1878288016164b5565b925050606061680287828801616548565b91505092959194509250565b60008060006060848603121561682357600080fd5b600061683186828701616548565b935050602061684286828701616509565b9250506040616853868287016164b5565b9150509250925092565b6000806000806080858703121561687357600080fd5b600061688187828801616548565b945050602061689287828801616509565b93505060406168a3878288016164b5565b92505060606168b4878288016164b5565b91505092959194509250565b600080604083850312156168d357600080fd5b60006168e18582860161655d565b92505060206168f28582860161655d565b9150509250929050565b60008060006060848603121561691157600080fd5b600061691f86828701616548565b935050602061693086828701616548565b9250506040616941868287016164b5565b9150509250925092565b6000806000806080858703121561696157600080fd5b600061696f87828801616548565b945050602061698087828801616548565b9350506040616991878288016164b5565b92505060606169a2878288016164b5565b91505092959194509250565b6169b781616eda565b82525050565b6169c681616eec565b82525050565b60006169d782616dd2565b6169e18185616ddd565b93506169f1818560208601616f34565b80840191505092915050565b6000616a0a600583616de8565b9150616a158261707f565b602082019050919050565b6000616a2d601f83616de8565b9150616a38826170a8565b602082019050919050565b6000616a50600683616de8565b9150616a5b826170d1565b602082019050919050565b6000616a73600583616de8565b9150616a7e826170fa565b602082019050919050565b6000616a96602383616de8565b9150616aa182617123565b604082019050919050565b6000616ab9600583616de8565b9150616ac482617172565b602082019050919050565b6000616adc600483616de8565b9150616ae78261719b565b602082019050919050565b6000616aff602483616de8565b9150616b0a826171c4565b604082019050919050565b6000616b22601f83616de8565b9150616b2d82617213565b602082019050919050565b616b4181616f2a565b82525050565b6000616b5382846169cc565b915081905092915050565b6000602082019050616b7360008301846169ae565b92915050565b6000604082019050616b8e60008301856169ae565b616b9b60208301846169ae565b9392505050565b6000606082019050616bb760008301866169ae565b616bc460208301856169ae565b616bd16040830184616b38565b949350505050565b6000604082019050616bee60008301856169ae565b616bfb6020830184616b38565b9392505050565b6000602082019050616c1760008301846169bd565b92915050565b60006020820190508181036000830152616c36816169fd565b9050919050565b60006020820190508181036000830152616c5681616a20565b9050919050565b60006020820190508181036000830152616c7681616a43565b9050919050565b60006020820190508181036000830152616c9681616a66565b9050919050565b60006020820190508181036000830152616cb681616a89565b9050919050565b60006020820190508181036000830152616cd681616aac565b9050919050565b60006020820190508181036000830152616cf681616acf565b9050919050565b60006020820190508181036000830152616d1681616af2565b9050919050565b60006020820190508181036000830152616d3681616b15565b9050919050565b6000602082019050616d526000830184616b38565b92915050565b6000604082019050616d6d6000830185616b38565b616d7a60208301846169ae565b9392505050565b6000616d8b616d9c565b9050616d978282616f67565b919050565b6000604051905090565b600067ffffffffffffffff821115616dc157616dc061703f565b5b602082029050602081019050919050565b600081519050919050565b600081905092915050565b600082825260208201905092915050565b6000616e0482616f2a565b9150616e0f83616f2a565b9250827fffffffffffffffffffffffffffffffffffffffffffffffffffffffffffffffff03821115616e4457616e43616fe1565b5b828201905092915050565b6000616e5a82616f2a565b9150616e6583616f2a565b925082616e7557616e74617010565b5b828204905092915050565b6000616e8b82616f2a565b9150616e9683616f2a565b9250817fffffffffffffffffffffffffffffffffffffffffffffffffffffffffffffffff0483118215151615616ecf57616ece616fe1565b5b828202905092915050565b6000616ee582616f0a565b9050919050565b60008115159050919050565b6000616f0382616eda565b9050919050565b600073ffffffffffffffffffffffffffffffffffffffff82169050919050565b6000819050919050565b60005b83811015616f52578082015181840152602081019050616f37565b83811115616f61576000848401525b50505050565b616f708261706e565b810181811067ffffffffffffffff82111715616f8f57616f8e61703f565b5b80604052505050565b6000616fa382616f2a565b91507fffffffffffffffffffffffffffffffffffffffffffffffffffffffffffffffff821415616fd657616fd5616fe1565b5b600182019050919050565b7f4e487b7100000000000000000000000000000000000000000000000000000000600052601160045260246000fd5b7f4e487b7100000000000000000000000000000000000000000000000000000000600052601260045260246000fd5b7f4e487b7100000000000000000000000000000000000000000000000000000000600052604160045260246000fd5b6000601f19601f8301169050919050565b7f21504f4f4c000000000000000000000000000000000000000000000000000000600082015250565b7f5472616e7366657248656c7065723a205452414e534645525f4641494c454400600082015250565b7f2156414c49440000000000000000000000000000000000000000000000000000600082015250565b7f2152415445000000000000000000000000000000000000000000000000000000600082015250565b7f5472616e7366657248656c7065723a20424e425f5452414e534645525f46414960008201527f4c45440000000000000000000000000000000000000000000000000000000000602082015250565b7f2153414645000000000000000000000000000000000000000000000000000000600082015250565b7f2147415300000000000000000000000000000000000000000000000000000000600082015250565b7f5472616e7366657248656c7065723a205452414e534645525f46524f4d5f464160008201527f494c454400000000000000000000000000000000000000000000000000000000602082015250565b7f5265656e7472616e637947756172643a207265656e7472616e742063616c6c00600082015250565b61724581616eda565b811461725057600080fd5b50565b61725c81616eec565b811461726757600080fd5b50565b61727381616ef8565b811461727e57600080fd5b50565b61728a81616f2a565b811461729557600080fd5b5056fea2646970667358221220362c76ff694f1231b904230e84f24335997f1a7948755947d42711047b4e704864736f6c63430008030033",
  "linkReferences": {},
  "deployedLinkReferences": {}
}