{
  "_format": "hh-sol-artifact-1",
  "contractName": "RouterD",
  "sourceName": "contracts/routerD.sol",
  "abi": [
    {
      "inputs": [],
      "stateMutability": "nonpayable",
      "type": "constructor"
    },
    {
      "inputs": [],
      "name": "lastMonth",
      "outputs": [
        {
          "internalType": "uint256",
          "name": "",
          "type": "uint256"
        }
      ],
      "stateMutability": "view",
      "type": "function"
    },
    {
      "inputs": [
        {
          "internalType": "address",
          "name": "",
          "type": "address"
        }
      ],
      "name": "mapAddress_30DayDividends",
      "outputs": [
        {
          "internalType": "uint256",
          "name": "",
          "type": "uint256"
        }
      ],
      "stateMutability": "view",
      "type": "function"
    },
    {
      "inputs": [
        {
          "internalType": "address",
          "name": "",
          "type": "address"
        }
      ],
      "name": "mapAddress_Past30DayPoolDividends",
      "outputs": [
        {
          "internalType": "uint256",
          "name": "",
          "type": "uint256"
        }
      ],
      "stateMutability": "view",
      "type": "function"
    }
  ],
  "bytecode": "0x60806040526000805534801561001457600080fd5b506101eb806100246000396000f3fe608060405234801561001057600080fd5b50600436106100415760003560e01c8063451918db1461004657806399d786ca14610076578063cbb3a14a14610094575b600080fd5b610060600480360381019061005b919061010f565b6100c4565b60405161006d9190610147565b60405180910390f35b61007e6100dc565b60405161008b9190610147565b60405180910390f35b6100ae60048036038101906100a9919061010f565b6100e2565b6040516100bb9190610147565b60405180910390f35b60026020528060005260406000206000915090505481565b60005481565b60016020528060005260406000206000915090505481565b6000813590506101098161019e565b92915050565b60006020828403121561012157600080fd5b600061012f848285016100fa565b91505092915050565b61014181610194565b82525050565b600060208201905061015c6000830184610138565b92915050565b600061016d82610174565b9050919050565b600073ffffffffffffffffffffffffffffffffffffffff82169050919050565b6000819050919050565b6101a781610162565b81146101b257600080fd5b5056fea2646970667358221220877aa1926e244079708c893cfbc268b4f4284bb09840a54ca8378964d4cd85a464736f6c63430008030033",
  "linkReferences": {},
  "deployedLinkReferences": {}
}