{
  "_format": "hh-sol-artifact-1",
  "contractName": "FallenSpartans",
  "sourceName": "contracts/FallenSpartans.sol",
  "abi": [
    {
      "inputs": [
        {
          "internalType": "address",
          "name": "_sparta",
          "type": "address"
        }
      ],
      "stateMutability": "nonpayable",
      "type": "constructor"
    },
    {
      "anonymous": false,
      "inputs": [
        {
          "indexed": true,
          "internalType": "address",
          "name": "spartanAddress",
          "type": "address"
        },
        {
          "indexed": false,
          "internalType": "uint256",
          "name": "amount",
          "type": "uint256"
        }
      ],
      "name": "SpartanAllocated",
      "type": "event"
    },
    {
      "anonymous": false,
      "inputs": [
        {
          "indexed": true,
          "internalType": "address",
          "name": "spartanAddress",
          "type": "address"
        },
        {
          "indexed": false,
          "internalType": "uint256",
          "name": "amount",
          "type": "uint256"
        }
      ],
      "name": "SpartanClaimed",
      "type": "event"
    },
    {
      "inputs": [],
      "name": "DEPLOYER",
      "outputs": [
        {
          "internalType": "address",
          "name": "",
          "type": "address"
        }
      ],
      "stateMutability": "view",
      "type": "function"
    },
    {
      "inputs": [],
      "name": "SPARTA",
      "outputs": [
        {
          "internalType": "address",
          "name": "",
          "type": "address"
        }
      ],
      "stateMutability": "view",
      "type": "function"
    },
    {
      "inputs": [
        {
          "internalType": "address[]",
          "name": "_fallenSpartans",
          "type": "address[]"
        },
        {
          "internalType": "uint256[]",
          "name": "_claims",
          "type": "uint256[]"
        }
      ],
      "name": "allocate",
      "outputs": [],
      "stateMutability": "nonpayable",
      "type": "function"
    },
    {
      "inputs": [],
      "name": "claim",
      "outputs": [],
      "stateMutability": "nonpayable",
      "type": "function"
    },
    {
      "inputs": [],
      "name": "expire",
      "outputs": [],
      "stateMutability": "nonpayable",
      "type": "function"
    },
    {
      "inputs": [],
      "name": "genesis",
      "outputs": [
        {
          "internalType": "uint256",
          "name": "",
          "type": "uint256"
        }
      ],
      "stateMutability": "view",
      "type": "function"
    },
    {
      "inputs": [
        {
          "internalType": "address",
          "name": "spartan",
          "type": "address"
        }
      ],
      "name": "getClaim",
      "outputs": [
        {
          "internalType": "uint256",
          "name": "",
          "type": "uint256"
        }
      ],
      "stateMutability": "view",
      "type": "function"
    }
  ],
  "bytecode": "0x608060405234801561001057600080fd5b50604051610fcc380380610fcc833981810160405281019061003291906100d5565b806000806101000a81548173ffffffffffffffffffffffffffffffffffffffff021916908373ffffffffffffffffffffffffffffffffffffffff16021790555033600160006101000a81548173ffffffffffffffffffffffffffffffffffffffff021916908373ffffffffffffffffffffffffffffffffffffffff1602179055504260028190555050610147565b6000815190506100cf81610130565b92915050565b6000602082840312156100e757600080fd5b60006100f5848285016100c0565b91505092915050565b600061010982610110565b9050919050565b600073ffffffffffffffffffffffffffffffffffffffff82169050919050565b610139816100fe565b811461014457600080fd5b50565b610e76806101566000396000f3fe608060405234801561001057600080fd5b506004361061007d5760003560e01c806379599f961161005b57806379599f96146100da578063a7f0b3de146100e4578063bdad4dc314610102578063c1b8411a1461011e5761007d565b806307c54b49146100825780634cd3723a146100a05780634e71d92d146100d0575b600080fd5b61008a61013c565b6040516100979190610b6f565b60405180910390f35b6100ba60048036038101906100b59190610a18565b610160565b6040516100c79190610bb3565b60405180910390f35b6100d86101a9565b005b6100e2610339565b005b6100ec61058c565b6040516100f99190610bb3565b60405180910390f35b61011c60048036038101906101179190610a6a565b610592565b005b6101266107a2565b6040516101339190610b6f565b60405180910390f35b60008054906101000a900473ffffffffffffffffffffffffffffffffffffffff1681565b6000600360008373ffffffffffffffffffffffffffffffffffffffff1673ffffffffffffffffffffffffffffffffffffffff168152602001908152602001600020549050919050565b6000600360003373ffffffffffffffffffffffffffffffffffffffff1673ffffffffffffffffffffffffffffffffffffffff1681526020019081526020016000205490506000600360003373ffffffffffffffffffffffffffffffffffffffff1673ffffffffffffffffffffffffffffffffffffffff1681526020019081526020016000208190555060008054906101000a900473ffffffffffffffffffffffffffffffffffffffff1673ffffffffffffffffffffffffffffffffffffffff1663a9059cbb33836040518363ffffffff1660e01b815260040161028d929190610b8a565b602060405180830381600087803b1580156102a757600080fd5b505af11580156102bb573d6000803e3d6000fd5b505050506040513d601f19601f820116820180604052508101906102df9190610ad6565b6102e857600080fd5b3373ffffffffffffffffffffffffffffffffffffffff167f38a9ac6490d41d70210e511dadbba8c5c6f71bb6ab49b6018334d1e4ac75255b8260405161032e9190610bb3565b60405180910390a250565b600160009054906101000a900473ffffffffffffffffffffffffffffffffffffffff1673ffffffffffffffffffffffffffffffffffffffff163373ffffffffffffffffffffffffffffffffffffffff161461039357600080fd5b62ed4e006002546103a49190610c4b565b4210156103b057600080fd5b60008054906101000a900473ffffffffffffffffffffffffffffffffffffffff1673ffffffffffffffffffffffffffffffffffffffff1663a9059cbb6103f46107c8565b73ffffffffffffffffffffffffffffffffffffffff16639d2cc4366040518163ffffffff1660e01b815260040160206040518083038186803b15801561043957600080fd5b505afa15801561044d573d6000803e3d6000fd5b505050506040513d601f19601f820116820180604052508101906104719190610a41565b60008054906101000a900473ffffffffffffffffffffffffffffffffffffffff1673ffffffffffffffffffffffffffffffffffffffff166370a08231306040518263ffffffff1660e01b81526004016104ca9190610b6f565b60206040518083038186803b1580156104e257600080fd5b505afa1580156104f6573d6000803e3d6000fd5b505050506040513d601f19601f8201168201806040525081019061051a9190610b28565b6040518363ffffffff1660e01b8152600401610537929190610b8a565b602060405180830381600087803b15801561055157600080fd5b505af1158015610565573d6000803e3d6000fd5b505050506040513d601f19601f820116820180604052508101906105899190610ad6565b50565b60025481565b600160009054906101000a900473ffffffffffffffffffffffffffffffffffffffff1673ffffffffffffffffffffffffffffffffffffffff163373ffffffffffffffffffffffffffffffffffffffff16146105ec57600080fd5b60005b825181101561079d57818181518110610631577f4e487b7100000000000000000000000000000000000000000000000000000000600052603260045260246000fd5b602002602001015160036000858481518110610676577f4e487b7100000000000000000000000000000000000000000000000000000000600052603260045260246000fd5b602002602001015173ffffffffffffffffffffffffffffffffffffffff1673ffffffffffffffffffffffffffffffffffffffff168152602001908152602001600020819055508281815181106106f5577f4e487b7100000000000000000000000000000000000000000000000000000000600052603260045260246000fd5b602002602001015173ffffffffffffffffffffffffffffffffffffffff167feb5ef24614325bd2a414e6b46c21e32a12f776bdc4f67424a74203afaa0f8c0983838151811061076d577f4e487b7100000000000000000000000000000000000000000000000000000000600052603260045260246000fd5b60200260200101516040516107829190610bb3565b60405180910390a2808061079590610d2c565b9150506105ef565b505050565b600160009054906101000a900473ffffffffffffffffffffffffffffffffffffffff1681565b60008060009054906101000a900473ffffffffffffffffffffffffffffffffffffffff1673ffffffffffffffffffffffffffffffffffffffff166398fabd3a6040518163ffffffff1660e01b815260040160206040518083038186803b15801561083157600080fd5b505afa158015610845573d6000803e3d6000fd5b505050506040513d601f19601f820116820180604052508101906108699190610aff565b905090565b600061088161087c84610bf3565b610bce565b905080838252602082019050828560208602820111156108a057600080fd5b60005b858110156108d057816108b68882610946565b8452602084019350602083019250506001810190506108a3565b5050509392505050565b60006108ed6108e884610c1f565b610bce565b9050808382526020820190508285602086028201111561090c57600080fd5b60005b8581101561093c578161092288826109ee565b84526020840193506020830192505060018101905061090f565b5050509392505050565b60008135905061095581610de4565b92915050565b60008151905061096a81610de4565b92915050565b600082601f83011261098157600080fd5b813561099184826020860161086e565b91505092915050565b600082601f8301126109ab57600080fd5b81356109bb8482602086016108da565b91505092915050565b6000815190506109d381610dfb565b92915050565b6000815190506109e881610e12565b92915050565b6000813590506109fd81610e29565b92915050565b600081519050610a1281610e29565b92915050565b600060208284031215610a2a57600080fd5b6000610a3884828501610946565b91505092915050565b600060208284031215610a5357600080fd5b6000610a618482850161095b565b91505092915050565b60008060408385031215610a7d57600080fd5b600083013567ffffffffffffffff811115610a9757600080fd5b610aa385828601610970565b925050602083013567ffffffffffffffff811115610ac057600080fd5b610acc8582860161099a565b9150509250929050565b600060208284031215610ae857600080fd5b6000610af6848285016109c4565b91505092915050565b600060208284031215610b1157600080fd5b6000610b1f848285016109d9565b91505092915050565b600060208284031215610b3a57600080fd5b6000610b4884828501610a03565b91505092915050565b610b5a81610ca1565b82525050565b610b6981610cf1565b82525050565b6000602082019050610b846000830184610b51565b92915050565b6000604082019050610b9f6000830185610b51565b610bac6020830184610b60565b9392505050565b6000602082019050610bc86000830184610b60565b92915050565b6000610bd8610be9565b9050610be48282610cfb565b919050565b6000604051905090565b600067ffffffffffffffff821115610c0e57610c0d610da4565b5b602082029050602081019050919050565b600067ffffffffffffffff821115610c3a57610c39610da4565b5b602082029050602081019050919050565b6000610c5682610cf1565b9150610c6183610cf1565b9250827fffffffffffffffffffffffffffffffffffffffffffffffffffffffffffffffff03821115610c9657610c95610d75565b5b828201905092915050565b6000610cac82610cd1565b9050919050565b60008115159050919050565b6000610cca82610ca1565b9050919050565b600073ffffffffffffffffffffffffffffffffffffffff82169050919050565b6000819050919050565b610d0482610dd3565b810181811067ffffffffffffffff82111715610d2357610d22610da4565b5b80604052505050565b6000610d3782610cf1565b91507fffffffffffffffffffffffffffffffffffffffffffffffffffffffffffffffff821415610d6a57610d69610d75565b5b600182019050919050565b7f4e487b7100000000000000000000000000000000000000000000000000000000600052601160045260246000fd5b7f4e487b7100000000000000000000000000000000000000000000000000000000600052604160045260246000fd5b6000601f19601f8301169050919050565b610ded81610ca1565b8114610df857600080fd5b50565b610e0481610cb3565b8114610e0f57600080fd5b50565b610e1b81610cbf565b8114610e2657600080fd5b50565b610e3281610cf1565b8114610e3d57600080fd5b5056fea2646970667358221220acbf0d0e5843be23ea43bc2a9f35dc3281737c14c2cccdde8379fbf06f5214e564736f6c63430008030033",
  "linkReferences": {},
  "deployedLinkReferences": {}
}