{
  "_format": "hh-sol-artifact-1",
  "contractName": "FallenSpartans",
  "sourceName": "contracts/FallenSpartans.sol",
  "abi": [
    {
      "inputs": [
        {
          "internalType": "address",
          "name": "_sparta",
          "type": "address"
        }
      ],
      "stateMutability": "nonpayable",
      "type": "constructor"
    },
    {
      "anonymous": false,
      "inputs": [
        {
          "indexed": true,
          "internalType": "address",
          "name": "spartanAddress",
          "type": "address"
        },
        {
          "indexed": false,
          "internalType": "uint256",
          "name": "amount",
          "type": "uint256"
        }
      ],
      "name": "SpartanAllocated",
      "type": "event"
    },
    {
      "anonymous": false,
      "inputs": [
        {
          "indexed": true,
          "internalType": "address",
          "name": "spartanAddress",
          "type": "address"
        },
        {
          "indexed": false,
          "internalType": "uint256",
          "name": "amount",
          "type": "uint256"
        }
      ],
      "name": "SpartanClaimed",
      "type": "event"
    },
    {
      "inputs": [],
      "name": "DEPLOYER",
      "outputs": [
        {
          "internalType": "address",
          "name": "",
          "type": "address"
        }
      ],
      "stateMutability": "view",
      "type": "function"
    },
    {
      "inputs": [],
      "name": "SPARTA",
      "outputs": [
        {
          "internalType": "address",
          "name": "",
          "type": "address"
        }
      ],
      "stateMutability": "view",
      "type": "function"
    },
    {
      "inputs": [
        {
          "internalType": "address[]",
          "name": "_fallenSpartan",
          "type": "address[]"
        },
        {
          "internalType": "uint256[]",
          "name": "_claim",
          "type": "uint256[]"
        }
      ],
      "name": "allocate",
      "outputs": [],
      "stateMutability": "nonpayable",
      "type": "function"
    },
    {
      "inputs": [],
      "name": "claim",
      "outputs": [],
      "stateMutability": "nonpayable",
      "type": "function"
    },
    {
      "inputs": [],
      "name": "expire",
      "outputs": [],
      "stateMutability": "nonpayable",
      "type": "function"
    },
    {
      "inputs": [],
      "name": "genesis",
      "outputs": [
        {
          "internalType": "uint256",
          "name": "",
          "type": "uint256"
        }
      ],
      "stateMutability": "view",
      "type": "function"
    },
    {
      "inputs": [
        {
          "internalType": "address",
          "name": "spartan",
          "type": "address"
        }
      ],
      "name": "getClaim",
      "outputs": [
        {
          "internalType": "uint256",
          "name": "",
          "type": "uint256"
        }
      ],
      "stateMutability": "view",
      "type": "function"
    }
  ],
  "bytecode": "0x608060405234801561001057600080fd5b50604051610fc3380380610fc3833981810160405281019061003291906100ce565b806000806101000a81548173ffffffffffffffffffffffffffffffffffffffff021916908373ffffffffffffffffffffffffffffffffffffffff16021790555033600160006101000a81548173ffffffffffffffffffffffffffffffffffffffff021916908373ffffffffffffffffffffffffffffffffffffffff16021790555050610140565b6000815190506100c881610129565b92915050565b6000602082840312156100e057600080fd5b60006100ee848285016100b9565b91505092915050565b600061010282610109565b9050919050565b600073ffffffffffffffffffffffffffffffffffffffff82169050919050565b610132816100f7565b811461013d57600080fd5b50565b610e748061014f6000396000f3fe608060405234801561001057600080fd5b506004361061007d5760003560e01c806379599f961161005b57806379599f96146100da578063a7f0b3de146100e4578063bdad4dc314610102578063c1b8411a1461011e5761007d565b806307c54b49146100825780634cd3723a146100a05780634e71d92d146100d0575b600080fd5b61008a61013c565b6040516100979190610b6d565b60405180910390f35b6100ba60048036038101906100b59190610a16565b610160565b6040516100c79190610bb1565b60405180910390f35b6100d86101a9565b005b6100e2610339565b005b6100ec61058a565b6040516100f99190610bb1565b60405180910390f35b61011c60048036038101906101179190610a68565b610590565b005b6101266107a0565b6040516101339190610b6d565b60405180910390f35b60008054906101000a900473ffffffffffffffffffffffffffffffffffffffff1681565b6000600360008373ffffffffffffffffffffffffffffffffffffffff1673ffffffffffffffffffffffffffffffffffffffff168152602001908152602001600020549050919050565b6000600360003373ffffffffffffffffffffffffffffffffffffffff1673ffffffffffffffffffffffffffffffffffffffff1681526020019081526020016000205490506000600360003373ffffffffffffffffffffffffffffffffffffffff1673ffffffffffffffffffffffffffffffffffffffff1681526020019081526020016000208190555060008054906101000a900473ffffffffffffffffffffffffffffffffffffffff1673ffffffffffffffffffffffffffffffffffffffff1663a9059cbb33836040518363ffffffff1660e01b815260040161028d929190610b88565b602060405180830381600087803b1580156102a757600080fd5b505af11580156102bb573d6000803e3d6000fd5b505050506040513d601f19601f820116820180604052508101906102df9190610ad4565b6102e857600080fd5b3373ffffffffffffffffffffffffffffffffffffffff167f38a9ac6490d41d70210e511dadbba8c5c6f71bb6ab49b6018334d1e4ac75255b8260405161032e9190610bb1565b60405180910390a250565b600160009054906101000a900473ffffffffffffffffffffffffffffffffffffffff1673ffffffffffffffffffffffffffffffffffffffff163373ffffffffffffffffffffffffffffffffffffffff161461039357600080fd5b600f6002546103a29190610c49565b4210156103ae57600080fd5b60008054906101000a900473ffffffffffffffffffffffffffffffffffffffff1673ffffffffffffffffffffffffffffffffffffffff1663a9059cbb6103f26107c6565b73ffffffffffffffffffffffffffffffffffffffff16639d2cc4366040518163ffffffff1660e01b815260040160206040518083038186803b15801561043757600080fd5b505afa15801561044b573d6000803e3d6000fd5b505050506040513d601f19601f8201168201806040525081019061046f9190610a3f565b60008054906101000a900473ffffffffffffffffffffffffffffffffffffffff1673ffffffffffffffffffffffffffffffffffffffff166370a08231306040518263ffffffff1660e01b81526004016104c89190610b6d565b60206040518083038186803b1580156104e057600080fd5b505afa1580156104f4573d6000803e3d6000fd5b505050506040513d601f19601f820116820180604052508101906105189190610b26565b6040518363ffffffff1660e01b8152600401610535929190610b88565b602060405180830381600087803b15801561054f57600080fd5b505af1158015610563573d6000803e3d6000fd5b505050506040513d601f19601f820116820180604052508101906105879190610ad4565b50565b60025481565b600160009054906101000a900473ffffffffffffffffffffffffffffffffffffffff1673ffffffffffffffffffffffffffffffffffffffff163373ffffffffffffffffffffffffffffffffffffffff16146105ea57600080fd5b60005b825181101561079b5781818151811061062f577f4e487b7100000000000000000000000000000000000000000000000000000000600052603260045260246000fd5b602002602001015160036000858481518110610674577f4e487b7100000000000000000000000000000000000000000000000000000000600052603260045260246000fd5b602002602001015173ffffffffffffffffffffffffffffffffffffffff1673ffffffffffffffffffffffffffffffffffffffff168152602001908152602001600020819055508281815181106106f3577f4e487b7100000000000000000000000000000000000000000000000000000000600052603260045260246000fd5b602002602001015173ffffffffffffffffffffffffffffffffffffffff167feb5ef24614325bd2a414e6b46c21e32a12f776bdc4f67424a74203afaa0f8c0983838151811061076b577f4e487b7100000000000000000000000000000000000000000000000000000000600052603260045260246000fd5b60200260200101516040516107809190610bb1565b60405180910390a2808061079390610d2a565b9150506105ed565b505050565b600160009054906101000a900473ffffffffffffffffffffffffffffffffffffffff1681565b60008060009054906101000a900473ffffffffffffffffffffffffffffffffffffffff1673ffffffffffffffffffffffffffffffffffffffff166398fabd3a6040518163ffffffff1660e01b815260040160206040518083038186803b15801561082f57600080fd5b505afa158015610843573d6000803e3d6000fd5b505050506040513d601f19601f820116820180604052508101906108679190610afd565b905090565b600061087f61087a84610bf1565b610bcc565b9050808382526020820190508285602086028201111561089e57600080fd5b60005b858110156108ce57816108b48882610944565b8452602084019350602083019250506001810190506108a1565b5050509392505050565b60006108eb6108e684610c1d565b610bcc565b9050808382526020820190508285602086028201111561090a57600080fd5b60005b8581101561093a578161092088826109ec565b84526020840193506020830192505060018101905061090d565b5050509392505050565b60008135905061095381610de2565b92915050565b60008151905061096881610de2565b92915050565b600082601f83011261097f57600080fd5b813561098f84826020860161086c565b91505092915050565b600082601f8301126109a957600080fd5b81356109b98482602086016108d8565b91505092915050565b6000815190506109d181610df9565b92915050565b6000815190506109e681610e10565b92915050565b6000813590506109fb81610e27565b92915050565b600081519050610a1081610e27565b92915050565b600060208284031215610a2857600080fd5b6000610a3684828501610944565b91505092915050565b600060208284031215610a5157600080fd5b6000610a5f84828501610959565b91505092915050565b60008060408385031215610a7b57600080fd5b600083013567ffffffffffffffff811115610a9557600080fd5b610aa18582860161096e565b925050602083013567ffffffffffffffff811115610abe57600080fd5b610aca85828601610998565b9150509250929050565b600060208284031215610ae657600080fd5b6000610af4848285016109c2565b91505092915050565b600060208284031215610b0f57600080fd5b6000610b1d848285016109d7565b91505092915050565b600060208284031215610b3857600080fd5b6000610b4684828501610a01565b91505092915050565b610b5881610c9f565b82525050565b610b6781610cef565b82525050565b6000602082019050610b826000830184610b4f565b92915050565b6000604082019050610b9d6000830185610b4f565b610baa6020830184610b5e565b9392505050565b6000602082019050610bc66000830184610b5e565b92915050565b6000610bd6610be7565b9050610be28282610cf9565b919050565b6000604051905090565b600067ffffffffffffffff821115610c0c57610c0b610da2565b5b602082029050602081019050919050565b600067ffffffffffffffff821115610c3857610c37610da2565b5b602082029050602081019050919050565b6000610c5482610cef565b9150610c5f83610cef565b9250827fffffffffffffffffffffffffffffffffffffffffffffffffffffffffffffffff03821115610c9457610c93610d73565b5b828201905092915050565b6000610caa82610ccf565b9050919050565b60008115159050919050565b6000610cc882610c9f565b9050919050565b600073ffffffffffffffffffffffffffffffffffffffff82169050919050565b6000819050919050565b610d0282610dd1565b810181811067ffffffffffffffff82111715610d2157610d20610da2565b5b80604052505050565b6000610d3582610cef565b91507fffffffffffffffffffffffffffffffffffffffffffffffffffffffffffffffff821415610d6857610d67610d73565b5b600182019050919050565b7f4e487b7100000000000000000000000000000000000000000000000000000000600052601160045260246000fd5b7f4e487b7100000000000000000000000000000000000000000000000000000000600052604160045260246000fd5b6000601f19601f8301169050919050565b610deb81610c9f565b8114610df657600080fd5b50565b610e0281610cb1565b8114610e0d57600080fd5b50565b610e1981610cbd565b8114610e2457600080fd5b50565b610e3081610cef565b8114610e3b57600080fd5b5056fea26469706673582212205875de9c1be55cb8ff0106b2d12fd17e232047e93061239582b154d27ede85ba64736f6c63430008030033",
  "linkReferences": {},
  "deployedLinkReferences": {}
}