{
  "_format": "hh-sol-artifact-1",
  "contractName": "FallenSpartans",
  "sourceName": "contracts/FallenSpartans.sol",
  "abi": [
    {
      "inputs": [
        {
          "internalType": "address",
          "name": "_sparta",
          "type": "address"
        }
      ],
      "stateMutability": "nonpayable",
      "type": "constructor"
    },
    {
      "anonymous": false,
      "inputs": [
        {
          "indexed": true,
          "internalType": "address",
          "name": "spartanAddress",
          "type": "address"
        },
        {
          "indexed": false,
          "internalType": "uint256",
          "name": "amount",
          "type": "uint256"
        }
      ],
      "name": "SpartanAllocated",
      "type": "event"
    },
    {
      "inputs": [],
      "name": "DEPLOYER",
      "outputs": [
        {
          "internalType": "address",
          "name": "",
          "type": "address"
        }
      ],
      "stateMutability": "view",
      "type": "function"
    },
    {
      "inputs": [],
      "name": "SPARTA",
      "outputs": [
        {
          "internalType": "address",
          "name": "",
          "type": "address"
        }
      ],
      "stateMutability": "view",
      "type": "function"
    },
    {
      "inputs": [
        {
          "internalType": "address[]",
          "name": "_fallenSpartan",
          "type": "address[]"
        },
        {
          "internalType": "uint256[]",
          "name": "_claim",
          "type": "uint256[]"
        }
      ],
      "name": "allocate",
      "outputs": [],
      "stateMutability": "nonpayable",
      "type": "function"
    },
    {
      "inputs": [],
      "name": "claim",
      "outputs": [],
      "stateMutability": "nonpayable",
      "type": "function"
    },
    {
      "inputs": [],
      "name": "expire",
      "outputs": [],
      "stateMutability": "nonpayable",
      "type": "function"
    },
    {
      "inputs": [],
      "name": "genesis",
      "outputs": [
        {
          "internalType": "uint256",
          "name": "",
          "type": "uint256"
        }
      ],
      "stateMutability": "view",
      "type": "function"
    },
    {
      "inputs": [
        {
          "internalType": "uint256",
          "name": "_totalSparta",
          "type": "uint256"
        }
      ],
      "name": "setParams",
      "outputs": [],
      "stateMutability": "nonpayable",
      "type": "function"
    },
    {
      "inputs": [],
      "name": "totalSparta",
      "outputs": [
        {
          "internalType": "uint256",
          "name": "",
          "type": "uint256"
        }
      ],
      "stateMutability": "view",
      "type": "function"
    },
    {
      "inputs": [],
      "name": "totalToClaim",
      "outputs": [
        {
          "internalType": "uint256",
          "name": "",
          "type": "uint256"
        }
      ],
      "stateMutability": "view",
      "type": "function"
    }
  ],
  "bytecode": "0x608060405234801561001057600080fd5b50604051610fee380380610fee833981810160405281019061003291906100e0565b806000806101000a81548173ffffffffffffffffffffffffffffffffffffffff021916908373ffffffffffffffffffffffffffffffffffffffff16021790555033600160006101000a81548173ffffffffffffffffffffffffffffffffffffffff021916908373ffffffffffffffffffffffffffffffffffffffff1602179055506a108b2a2c2802909400000060038190555050610152565b6000815190506100da8161013b565b92915050565b6000602082840312156100f257600080fd5b6000610100848285016100cb565b91505092915050565b60006101148261011b565b9050919050565b600073ffffffffffffffffffffffffffffffffffffffff82169050919050565b61014481610109565b811461014f57600080fd5b50565b610e8d806101616000396000f3fe608060405234801561001057600080fd5b50600436106100935760003560e01c8063a7f0b3de11610066578063a7f0b3de146100e6578063bdad4dc314610104578063c1b8411a14610120578063d4d6e0d91461013e578063f223ae2c1461015c57610093565b806307c54b49146100985780634e71d92d146100b657806359ded210146100c057806379599f96146100dc575b600080fd5b6100a061017a565b6040516100ad9190610b86565b60405180910390f35b6100be61019e565b005b6100da60048036038101906100d59190610b16565b6102e0565b005b6100e4610344565b005b6100ee610597565b6040516100fb9190610bca565b60405180910390f35b61011e60048036038101906101199190610a58565b61059d565b005b6101286107ad565b6040516101359190610b86565b60405180910390f35b6101466107d3565b6040516101539190610bca565b60405180910390f35b6101646107d9565b6040516101719190610bca565b60405180910390f35b60008054906101000a900473ffffffffffffffffffffffffffffffffffffffff1681565b6000600560003373ffffffffffffffffffffffffffffffffffffffff1673ffffffffffffffffffffffffffffffffffffffff1681526020019081526020016000205490506000600560003373ffffffffffffffffffffffffffffffffffffffff1673ffffffffffffffffffffffffffffffffffffffff1681526020019081526020016000208190555060008054906101000a900473ffffffffffffffffffffffffffffffffffffffff1673ffffffffffffffffffffffffffffffffffffffff1663a9059cbb33836040518363ffffffff1660e01b8152600401610282929190610ba1565b602060405180830381600087803b15801561029c57600080fd5b505af11580156102b0573d6000803e3d6000fd5b505050506040513d601f19601f820116820180604052508101906102d49190610ac4565b6102dd57600080fd5b50565b600160009054906101000a900473ffffffffffffffffffffffffffffffffffffffff1673ffffffffffffffffffffffffffffffffffffffff163373ffffffffffffffffffffffffffffffffffffffff161461033a57600080fd5b8060028190555050565b600160009054906101000a900473ffffffffffffffffffffffffffffffffffffffff1673ffffffffffffffffffffffffffffffffffffffff163373ffffffffffffffffffffffffffffffffffffffff161461039e57600080fd5b62ed4e006004546103af9190610c62565b4210156103bb57600080fd5b60008054906101000a900473ffffffffffffffffffffffffffffffffffffffff1673ffffffffffffffffffffffffffffffffffffffff1663a9059cbb6103ff6107df565b73ffffffffffffffffffffffffffffffffffffffff166398fabd3a6040518163ffffffff1660e01b815260040160206040518083038186803b15801561044457600080fd5b505afa158015610458573d6000803e3d6000fd5b505050506040513d601f19601f8201168201806040525081019061047c9190610a2f565b60008054906101000a900473ffffffffffffffffffffffffffffffffffffffff1673ffffffffffffffffffffffffffffffffffffffff166370a08231306040518263ffffffff1660e01b81526004016104d59190610b86565b60206040518083038186803b1580156104ed57600080fd5b505afa158015610501573d6000803e3d6000fd5b505050506040513d601f19601f820116820180604052508101906105259190610b3f565b6040518363ffffffff1660e01b8152600401610542929190610ba1565b602060405180830381600087803b15801561055c57600080fd5b505af1158015610570573d6000803e3d6000fd5b505050506040513d601f19601f820116820180604052508101906105949190610ac4565b50565b60045481565b600160009054906101000a900473ffffffffffffffffffffffffffffffffffffffff1673ffffffffffffffffffffffffffffffffffffffff163373ffffffffffffffffffffffffffffffffffffffff16146105f757600080fd5b60005b82518110156107a85781818151811061063c577f4e487b7100000000000000000000000000000000000000000000000000000000600052603260045260246000fd5b602002602001015160056000858481518110610681577f4e487b7100000000000000000000000000000000000000000000000000000000600052603260045260246000fd5b602002602001015173ffffffffffffffffffffffffffffffffffffffff1673ffffffffffffffffffffffffffffffffffffffff16815260200190815260200160002081905550828181518110610700577f4e487b7100000000000000000000000000000000000000000000000000000000600052603260045260246000fd5b602002602001015173ffffffffffffffffffffffffffffffffffffffff167feb5ef24614325bd2a414e6b46c21e32a12f776bdc4f67424a74203afaa0f8c09838381518110610778577f4e487b7100000000000000000000000000000000000000000000000000000000600052603260045260246000fd5b602002602001015160405161078d9190610bca565b60405180910390a280806107a090610d43565b9150506105fa565b505050565b600160009054906101000a900473ffffffffffffffffffffffffffffffffffffffff1681565b60025481565b60035481565b60008060009054906101000a900473ffffffffffffffffffffffffffffffffffffffff1673ffffffffffffffffffffffffffffffffffffffff166398fabd3a6040518163ffffffff1660e01b815260040160206040518083038186803b15801561084857600080fd5b505afa15801561085c573d6000803e3d6000fd5b505050506040513d601f19601f820116820180604052508101906108809190610aed565b905090565b600061089861089384610c0a565b610be5565b905080838252602082019050828560208602820111156108b757600080fd5b60005b858110156108e757816108cd888261095d565b8452602084019350602083019250506001810190506108ba565b5050509392505050565b60006109046108ff84610c36565b610be5565b9050808382526020820190508285602086028201111561092357600080fd5b60005b8581101561095357816109398882610a05565b845260208401935060208301925050600181019050610926565b5050509392505050565b60008135905061096c81610dfb565b92915050565b60008151905061098181610dfb565b92915050565b600082601f83011261099857600080fd5b81356109a8848260208601610885565b91505092915050565b600082601f8301126109c257600080fd5b81356109d28482602086016108f1565b91505092915050565b6000815190506109ea81610e12565b92915050565b6000815190506109ff81610e29565b92915050565b600081359050610a1481610e40565b92915050565b600081519050610a2981610e40565b92915050565b600060208284031215610a4157600080fd5b6000610a4f84828501610972565b91505092915050565b60008060408385031215610a6b57600080fd5b600083013567ffffffffffffffff811115610a8557600080fd5b610a9185828601610987565b925050602083013567ffffffffffffffff811115610aae57600080fd5b610aba858286016109b1565b9150509250929050565b600060208284031215610ad657600080fd5b6000610ae4848285016109db565b91505092915050565b600060208284031215610aff57600080fd5b6000610b0d848285016109f0565b91505092915050565b600060208284031215610b2857600080fd5b6000610b3684828501610a05565b91505092915050565b600060208284031215610b5157600080fd5b6000610b5f84828501610a1a565b91505092915050565b610b7181610cb8565b82525050565b610b8081610d08565b82525050565b6000602082019050610b9b6000830184610b68565b92915050565b6000604082019050610bb66000830185610b68565b610bc36020830184610b77565b9392505050565b6000602082019050610bdf6000830184610b77565b92915050565b6000610bef610c00565b9050610bfb8282610d12565b919050565b6000604051905090565b600067ffffffffffffffff821115610c2557610c24610dbb565b5b602082029050602081019050919050565b600067ffffffffffffffff821115610c5157610c50610dbb565b5b602082029050602081019050919050565b6000610c6d82610d08565b9150610c7883610d08565b9250827fffffffffffffffffffffffffffffffffffffffffffffffffffffffffffffffff03821115610cad57610cac610d8c565b5b828201905092915050565b6000610cc382610ce8565b9050919050565b60008115159050919050565b6000610ce182610cb8565b9050919050565b600073ffffffffffffffffffffffffffffffffffffffff82169050919050565b6000819050919050565b610d1b82610dea565b810181811067ffffffffffffffff82111715610d3a57610d39610dbb565b5b80604052505050565b6000610d4e82610d08565b91507fffffffffffffffffffffffffffffffffffffffffffffffffffffffffffffffff821415610d8157610d80610d8c565b5b600182019050919050565b7f4e487b7100000000000000000000000000000000000000000000000000000000600052601160045260246000fd5b7f4e487b7100000000000000000000000000000000000000000000000000000000600052604160045260246000fd5b6000601f19601f8301169050919050565b610e0481610cb8565b8114610e0f57600080fd5b50565b610e1b81610cca565b8114610e2657600080fd5b50565b610e3281610cd6565b8114610e3d57600080fd5b50565b610e4981610d08565b8114610e5457600080fd5b5056fea2646970667358221220a93cd86cf53e9374165259f7d54bf8e75bea7d4af694a9d8f288fa47573f92f564736f6c63430008030033",
  "linkReferences": {},
  "deployedLinkReferences": {}
}