{
  "_format": "hh-sol-artifact-1",
  "contractName": "FallenSpartans",
  "sourceName": "contracts/FallenSpartans.sol",
  "abi": [
    {
      "inputs": [
        {
          "internalType": "address",
          "name": "_sparta",
          "type": "address"
        }
      ],
      "stateMutability": "nonpayable",
      "type": "constructor"
    },
    {
      "inputs": [],
      "name": "DEPLOYER",
      "outputs": [
        {
          "internalType": "address",
          "name": "",
          "type": "address"
        }
      ],
      "stateMutability": "view",
      "type": "function"
    },
    {
      "inputs": [],
      "name": "SPARTA",
      "outputs": [
        {
          "internalType": "address",
          "name": "",
          "type": "address"
        }
      ],
      "stateMutability": "view",
      "type": "function"
    },
    {
      "inputs": [
        {
          "internalType": "address",
          "name": "_fallenSpartan",
          "type": "address"
        },
        {
          "internalType": "uint256",
          "name": "_claim",
          "type": "uint256"
        }
      ],
      "name": "allocate",
      "outputs": [],
      "stateMutability": "nonpayable",
      "type": "function"
    },
    {
      "inputs": [],
      "name": "claim",
      "outputs": [],
      "stateMutability": "nonpayable",
      "type": "function"
    },
    {
      "inputs": [],
      "name": "expire",
      "outputs": [],
      "stateMutability": "nonpayable",
      "type": "function"
    },
    {
      "inputs": [],
      "name": "genesis",
      "outputs": [
        {
          "internalType": "uint256",
          "name": "",
          "type": "uint256"
        }
      ],
      "stateMutability": "view",
      "type": "function"
    },
    {
      "inputs": [
        {
          "internalType": "uint256",
          "name": "_totalSparta",
          "type": "uint256"
        }
      ],
      "name": "setParams",
      "outputs": [],
      "stateMutability": "nonpayable",
      "type": "function"
    },
    {
      "inputs": [],
      "name": "totalSparta",
      "outputs": [
        {
          "internalType": "uint256",
          "name": "",
          "type": "uint256"
        }
      ],
      "stateMutability": "view",
      "type": "function"
    },
    {
      "inputs": [],
      "name": "totalToClaim",
      "outputs": [
        {
          "internalType": "uint256",
          "name": "",
          "type": "uint256"
        }
      ],
      "stateMutability": "view",
      "type": "function"
    }
  ],
  "bytecode": "0x608060405234801561001057600080fd5b50604051610cc7380380610cc7833981810160405281019061003291906100e0565b806000806101000a81548173ffffffffffffffffffffffffffffffffffffffff021916908373ffffffffffffffffffffffffffffffffffffffff16021790555033600160006101000a81548173ffffffffffffffffffffffffffffffffffffffff021916908373ffffffffffffffffffffffffffffffffffffffff1602179055506a108b2a2c2802909400000060038190555050610152565b6000815190506100da8161013b565b92915050565b6000602082840312156100f257600080fd5b6000610100848285016100cb565b91505092915050565b60006101148261011b565b9050919050565b600073ffffffffffffffffffffffffffffffffffffffff82169050919050565b61014481610109565b811461014f57600080fd5b50565b610b66806101616000396000f3fe608060405234801561001057600080fd5b50600436106100935760003560e01c8063a7f0b3de11610066578063a7f0b3de146100e6578063b78b52df14610104578063c1b8411a14610120578063d4d6e0d91461013e578063f223ae2c1461015c57610093565b806307c54b49146100985780634e71d92d146100b657806359ded210146100c057806379599f96146100dc575b600080fd5b6100a061017a565b6040516100ad91906108dc565b60405180910390f35b6100be61019e565b005b6100da60048036038101906100d5919061086c565b6102e0565b005b6100e4610344565b005b6100ee610597565b6040516100fb9190610920565b60405180910390f35b61011e600480360381019061011991906107de565b61059d565b005b61012861065f565b60405161013591906108dc565b60405180910390f35b610146610685565b6040516101539190610920565b60405180910390f35b61016461068b565b6040516101719190610920565b60405180910390f35b60008054906101000a900473ffffffffffffffffffffffffffffffffffffffff1681565b6000600560003373ffffffffffffffffffffffffffffffffffffffff1673ffffffffffffffffffffffffffffffffffffffff1681526020019081526020016000205490506000600560003373ffffffffffffffffffffffffffffffffffffffff1673ffffffffffffffffffffffffffffffffffffffff1681526020019081526020016000208190555060008054906101000a900473ffffffffffffffffffffffffffffffffffffffff1673ffffffffffffffffffffffffffffffffffffffff1663a9059cbb33836040518363ffffffff1660e01b81526004016102829291906108f7565b602060405180830381600087803b15801561029c57600080fd5b505af11580156102b0573d6000803e3d6000fd5b505050506040513d601f19601f820116820180604052508101906102d4919061081a565b6102dd57600080fd5b50565b600160009054906101000a900473ffffffffffffffffffffffffffffffffffffffff1673ffffffffffffffffffffffffffffffffffffffff163373ffffffffffffffffffffffffffffffffffffffff161461033a57600080fd5b8060028190555050565b600160009054906101000a900473ffffffffffffffffffffffffffffffffffffffff1673ffffffffffffffffffffffffffffffffffffffff163373ffffffffffffffffffffffffffffffffffffffff161461039e57600080fd5b62ed4e006004546103af919061093b565b4210156103bb57600080fd5b60008054906101000a900473ffffffffffffffffffffffffffffffffffffffff1673ffffffffffffffffffffffffffffffffffffffff1663a9059cbb6103ff610691565b73ffffffffffffffffffffffffffffffffffffffff166398fabd3a6040518163ffffffff1660e01b815260040160206040518083038186803b15801561044457600080fd5b505afa158015610458573d6000803e3d6000fd5b505050506040513d601f19601f8201168201806040525081019061047c91906107b5565b60008054906101000a900473ffffffffffffffffffffffffffffffffffffffff1673ffffffffffffffffffffffffffffffffffffffff166370a08231306040518263ffffffff1660e01b81526004016104d591906108dc565b60206040518083038186803b1580156104ed57600080fd5b505afa158015610501573d6000803e3d6000fd5b505050506040513d601f19601f820116820180604052508101906105259190610895565b6040518363ffffffff1660e01b81526004016105429291906108f7565b602060405180830381600087803b15801561055c57600080fd5b505af1158015610570573d6000803e3d6000fd5b505050506040513d601f19601f82011682018060405250810190610594919061081a565b50565b60045481565b600160009054906101000a900473ffffffffffffffffffffffffffffffffffffffff1673ffffffffffffffffffffffffffffffffffffffff163373ffffffffffffffffffffffffffffffffffffffff16146105f757600080fd5b60006002546003548361060a91906109c2565b6106149190610991565b905080600560008573ffffffffffffffffffffffffffffffffffffffff1673ffffffffffffffffffffffffffffffffffffffff16815260200190815260200160002081905550505050565b600160009054906101000a900473ffffffffffffffffffffffffffffffffffffffff1681565b60025481565b60035481565b60008060009054906101000a900473ffffffffffffffffffffffffffffffffffffffff1673ffffffffffffffffffffffffffffffffffffffff166398fabd3a6040518163ffffffff1660e01b815260040160206040518083038186803b1580156106fa57600080fd5b505afa15801561070e573d6000803e3d6000fd5b505050506040513d601f19601f820116820180604052508101906107329190610843565b905090565b60008135905061074681610ad4565b92915050565b60008151905061075b81610ad4565b92915050565b60008151905061077081610aeb565b92915050565b60008151905061078581610b02565b92915050565b60008135905061079a81610b19565b92915050565b6000815190506107af81610b19565b92915050565b6000602082840312156107c757600080fd5b60006107d58482850161074c565b91505092915050565b600080604083850312156107f157600080fd5b60006107ff85828601610737565b92505060206108108582860161078b565b9150509250929050565b60006020828403121561082c57600080fd5b600061083a84828501610761565b91505092915050565b60006020828403121561085557600080fd5b600061086384828501610776565b91505092915050565b60006020828403121561087e57600080fd5b600061088c8482850161078b565b91505092915050565b6000602082840312156108a757600080fd5b60006108b5848285016107a0565b91505092915050565b6108c781610a1c565b82525050565b6108d681610a6c565b82525050565b60006020820190506108f160008301846108be565b92915050565b600060408201905061090c60008301856108be565b61091960208301846108cd565b9392505050565b600060208201905061093560008301846108cd565b92915050565b600061094682610a6c565b915061095183610a6c565b9250827fffffffffffffffffffffffffffffffffffffffffffffffffffffffffffffffff0382111561098657610985610a76565b5b828201905092915050565b600061099c82610a6c565b91506109a783610a6c565b9250826109b7576109b6610aa5565b5b828204905092915050565b60006109cd82610a6c565b91506109d883610a6c565b9250817fffffffffffffffffffffffffffffffffffffffffffffffffffffffffffffffff0483118215151615610a1157610a10610a76565b5b828202905092915050565b6000610a2782610a4c565b9050919050565b60008115159050919050565b6000610a4582610a1c565b9050919050565b600073ffffffffffffffffffffffffffffffffffffffff82169050919050565b6000819050919050565b7f4e487b7100000000000000000000000000000000000000000000000000000000600052601160045260246000fd5b7f4e487b7100000000000000000000000000000000000000000000000000000000600052601260045260246000fd5b610add81610a1c565b8114610ae857600080fd5b50565b610af481610a2e565b8114610aff57600080fd5b50565b610b0b81610a3a565b8114610b1657600080fd5b50565b610b2281610a6c565b8114610b2d57600080fd5b5056fea26469706673582212203b601b2d1210136f45838e210cbee57bc5e2afa5a8b82c9cb0061514bea897dc64736f6c63430008030033",
  "linkReferences": {},
  "deployedLinkReferences": {}
}