{
  "_format": "hh-sol-artifact-1",
  "contractName": "LendVault",
  "sourceName": "contracts/lendVault.sol",
  "abi": [
    {
      "inputs": [
        {
          "internalType": "address",
          "name": "_base",
          "type": "address"
        }
      ],
      "stateMutability": "nonpayable",
      "type": "constructor"
    },
    {
      "inputs": [],
      "name": "BASE",
      "outputs": [
        {
          "internalType": "address",
          "name": "",
          "type": "address"
        }
      ],
      "stateMutability": "view",
      "type": "function"
    },
    {
      "inputs": [],
      "name": "DEPLOYER",
      "outputs": [
        {
          "internalType": "address",
          "name": "",
          "type": "address"
        }
      ],
      "stateMutability": "view",
      "type": "function"
    },
    {
      "inputs": [],
      "name": "Lend",
      "outputs": [
        {
          "internalType": "address",
          "name": "",
          "type": "address"
        }
      ],
      "stateMutability": "view",
      "type": "function"
    },
    {
      "inputs": [
        {
          "internalType": "address",
          "name": "_poolDebt",
          "type": "address"
        },
        {
          "internalType": "uint256",
          "name": "amount",
          "type": "uint256"
        }
      ],
      "name": "borrowFunds",
      "outputs": [],
      "stateMutability": "nonpayable",
      "type": "function"
    },
    {
      "inputs": [
        {
          "internalType": "address",
          "name": "pool",
          "type": "address"
        },
        {
          "internalType": "address",
          "name": "member",
          "type": "address"
        }
      ],
      "name": "getMemberPoolBalance",
      "outputs": [
        {
          "internalType": "uint256",
          "name": "",
          "type": "uint256"
        }
      ],
      "stateMutability": "view",
      "type": "function"
    },
    {
      "inputs": [
        {
          "internalType": "address",
          "name": "pool",
          "type": "address"
        },
        {
          "internalType": "address",
          "name": "member",
          "type": "address"
        }
      ],
      "name": "getMemberPoolDepositTime",
      "outputs": [
        {
          "internalType": "uint256",
          "name": "",
          "type": "uint256"
        }
      ],
      "stateMutability": "view",
      "type": "function"
    },
    {
      "inputs": [
        {
          "internalType": "address",
          "name": "_lend",
          "type": "address"
        }
      ],
      "name": "initialize",
      "outputs": [],
      "stateMutability": "nonpayable",
      "type": "function"
    },
    {
      "inputs": [
        {
          "internalType": "address",
          "name": "_pool",
          "type": "address"
        },
        {
          "internalType": "uint256",
          "name": "amount",
          "type": "uint256"
        }
      ],
      "name": "lendLP",
      "outputs": [],
      "stateMutability": "nonpayable",
      "type": "function"
    },
    {
      "inputs": [
        {
          "internalType": "address",
          "name": "",
          "type": "address"
        }
      ],
      "name": "mapTotalPool_balance",
      "outputs": [
        {
          "internalType": "uint256",
          "name": "",
          "type": "uint256"
        }
      ],
      "stateMutability": "view",
      "type": "function"
    },
    {
      "inputs": [],
      "name": "purgeDeployer",
      "outputs": [],
      "stateMutability": "nonpayable",
      "type": "function"
    },
    {
      "inputs": [
        {
          "internalType": "address",
          "name": "_pool",
          "type": "address"
        }
      ],
      "name": "removeLP",
      "outputs": [],
      "stateMutability": "nonpayable",
      "type": "function"
    },
    {
      "inputs": [
        {
          "internalType": "address",
          "name": "_poolDebt",
          "type": "address"
        },
        {
          "internalType": "uint256",
          "name": "amount",
          "type": "uint256"
        }
      ],
      "name": "returnFunds",
      "outputs": [],
      "stateMutability": "nonpayable",
      "type": "function"
    }
  ],
  "bytecode": "0x60a06040523480156200001157600080fd5b5060405162001725380380620017258339818101604052810190620000379190620000cc565b8073ffffffffffffffffffffffffffffffffffffffff1660808173ffffffffffffffffffffffffffffffffffffffff1660601b81525050336000806101000a81548173ffffffffffffffffffffffffffffffffffffffff021916908373ffffffffffffffffffffffffffffffffffffffff1602179055505062000146565b600081519050620000c6816200012c565b92915050565b600060208284031215620000df57600080fd5b6000620000ef84828501620000b5565b91505092915050565b600062000105826200010c565b9050919050565b600073ffffffffffffffffffffffffffffffffffffffff82169050919050565b6200013781620000f8565b81146200014357600080fd5b50565b60805160601c6115b96200016c60003960008181610c2d0152610c5301526115b96000f3fe608060405234801561001057600080fd5b50600436106100b45760003560e01c806389da7deb1161007157806389da7deb1461017957806390d9b80414610195578063aa9fd374146101b1578063c1b8411a146101e1578063c4d66de8146101ff578063ec342ad01461021b576100b4565b806303a82138146100b957806306109ac9146100c357806339ab8316146100f357806353abe5cb1461010f578063701af5061461012d57806389bbd67014610149575b600080fd5b6100c1610239565b005b6100dd60048036038101906100d8919061101e565b61038e565b6040516100ea91906112d5565b60405180910390f35b61010d6004803603810190610108919061105a565b610415565b005b6101176106b9565b60405161012491906111da565b60405180910390f35b6101476004803603810190610142919061105a565b6106df565b005b610163600480360381019061015e9190610fcc565b61073d565b60405161017091906112d5565b60405180910390f35b610193600480360381019061018e9190610fcc565b610755565b005b6101af60048036038101906101aa919061105a565b6109cc565b005b6101cb60048036038101906101c6919061101e565b610a2a565b6040516101d891906112d5565b60405180910390f35b6101e9610ab1565b6040516101f691906111da565b60405180910390f35b61021960048036038101906102149190610fcc565b610ad5565b005b610223610c2b565b60405161023091906111da565b60405180910390f35b610241610c4f565b73ffffffffffffffffffffffffffffffffffffffff166398fabd3a6040518163ffffffff1660e01b815260040160206040518083038186803b15801561028657600080fd5b505afa15801561029a573d6000803e3d6000fd5b505050506040513d601f19601f820116820180604052508101906102be9190610ff5565b73ffffffffffffffffffffffffffffffffffffffff163373ffffffffffffffffffffffffffffffffffffffff161480610342575060008054906101000a900473ffffffffffffffffffffffffffffffffffffffff1673ffffffffffffffffffffffffffffffffffffffff163373ffffffffffffffffffffffffffffffffffffffff16145b61034b57600080fd5b60008060006101000a81548173ffffffffffffffffffffffffffffffffffffffff021916908373ffffffffffffffffffffffffffffffffffffffff160217905550565b6000600460008373ffffffffffffffffffffffffffffffffffffffff1673ffffffffffffffffffffffffffffffffffffffff16815260200190815260200160002060008473ffffffffffffffffffffffffffffffffffffffff1673ffffffffffffffffffffffffffffffffffffffff16815260200190815260200160002054905092915050565b60011515610421610c4f565b73ffffffffffffffffffffffffffffffffffffffff1663b99b0a0c6040518163ffffffff1660e01b815260040160206040518083038186803b15801561046657600080fd5b505afa15801561047a573d6000803e3d6000fd5b505050506040513d601f19601f8201168201806040525081019061049e9190610ff5565b73ffffffffffffffffffffffffffffffffffffffff16638dcb4c93846040518263ffffffff1660e01b81526004016104d691906111da565b60206040518083038186803b1580156104ee57600080fd5b505afa158015610502573d6000803e3d6000fd5b505050506040513d601f19601f820116820180604052508101906105269190611096565b15151461053257600080fd5b6000811161053f57600080fd5b61054b82333084610cf4565b80600360003373ffffffffffffffffffffffffffffffffffffffff1673ffffffffffffffffffffffffffffffffffffffff16815260200190815260200160002060008473ffffffffffffffffffffffffffffffffffffffff1673ffffffffffffffffffffffffffffffffffffffff16815260200190815260200160002060008282546105d79190611317565b9250508190555080600260008473ffffffffffffffffffffffffffffffffffffffff1673ffffffffffffffffffffffffffffffffffffffff168152602001908152602001600020600082825461062d9190611317565b9250508190555042600460003373ffffffffffffffffffffffffffffffffffffffff1673ffffffffffffffffffffffffffffffffffffffff16815260200190815260200160002060008473ffffffffffffffffffffffffffffffffffffffff1673ffffffffffffffffffffffffffffffffffffffff168152602001908152602001600020819055505050565b600160009054906101000a900473ffffffffffffffffffffffffffffffffffffffff1681565b600160009054906101000a900473ffffffffffffffffffffffffffffffffffffffff1673ffffffffffffffffffffffffffffffffffffffff163373ffffffffffffffffffffffffffffffffffffffff161461073957600080fd5b5050565b60026020528060005260406000206000915090505481565b62015180600460003373ffffffffffffffffffffffffffffffffffffffff1673ffffffffffffffffffffffffffffffffffffffff16815260200190815260200160002060008373ffffffffffffffffffffffffffffffffffffffff1673ffffffffffffffffffffffffffffffffffffffff168152602001908152602001600020546107e09190611317565b4211610821576040517f08c379a000000000000000000000000000000000000000000000000000000000815260040161081890611295565b60405180910390fd5b6000600360003373ffffffffffffffffffffffffffffffffffffffff1673ffffffffffffffffffffffffffffffffffffffff16815260200190815260200160002060008373ffffffffffffffffffffffffffffffffffffffff1673ffffffffffffffffffffffffffffffffffffffff168152602001908152602001600020549050600081116108e5576040517f08c379a00000000000000000000000000000000000000000000000000000000081526004016108dc90611275565b60405180910390fd5b80600260008473ffffffffffffffffffffffffffffffffffffffff1673ffffffffffffffffffffffffffffffffffffffff1681526020019081526020016000206000828254610934919061136d565b925050819055506000600360003373ffffffffffffffffffffffffffffffffffffffff1673ffffffffffffffffffffffffffffffffffffffff16815260200190815260200160002060008473ffffffffffffffffffffffffffffffffffffffff1673ffffffffffffffffffffffffffffffffffffffff168152602001908152602001600020819055506109c8823383610e2d565b5050565b600160009054906101000a900473ffffffffffffffffffffffffffffffffffffffff1673ffffffffffffffffffffffffffffffffffffffff163373ffffffffffffffffffffffffffffffffffffffff1614610a2657600080fd5b5050565b6000600360008373ffffffffffffffffffffffffffffffffffffffff1673ffffffffffffffffffffffffffffffffffffffff16815260200190815260200160002060008473ffffffffffffffffffffffffffffffffffffffff1673ffffffffffffffffffffffffffffffffffffffff16815260200190815260200160002054905092915050565b60008054906101000a900473ffffffffffffffffffffffffffffffffffffffff1681565b610add610c4f565b73ffffffffffffffffffffffffffffffffffffffff166398fabd3a6040518163ffffffff1660e01b815260040160206040518083038186803b158015610b2257600080fd5b505afa158015610b36573d6000803e3d6000fd5b505050506040513d601f19601f82011682018060405250810190610b5a9190610ff5565b73ffffffffffffffffffffffffffffffffffffffff163373ffffffffffffffffffffffffffffffffffffffff161480610bde575060008054906101000a900473ffffffffffffffffffffffffffffffffffffffff1673ffffffffffffffffffffffffffffffffffffffff163373ffffffffffffffffffffffffffffffffffffffff16145b610be757600080fd5b80600160006101000a81548173ffffffffffffffffffffffffffffffffffffffff021916908373ffffffffffffffffffffffffffffffffffffffff16021790555050565b7f000000000000000000000000000000000000000000000000000000000000000081565b60007f000000000000000000000000000000000000000000000000000000000000000073ffffffffffffffffffffffffffffffffffffffff166398fabd3a6040518163ffffffff1660e01b815260040160206040518083038186803b158015610cb757600080fd5b505afa158015610ccb573d6000803e3d6000fd5b505050506040513d601f19601f82011682018060405250810190610cef91906110bf565b905090565b6000808573ffffffffffffffffffffffffffffffffffffffff166323b872dd868686604051602401610d28939291906111f5565b6040516020818303038152906040529060e01b6020820180517bffffffffffffffffffffffffffffffffffffffffffffffffffffffff8381831617835250505050604051610d7691906111c3565b6000604051808303816000865af19150503d8060008114610db3576040519150601f19603f3d011682016040523d82523d6000602084013e610db8565b606091505b5091509150818015610de65750600081511480610de5575080806020019051810190610de49190611096565b5b5b610e25576040517f08c379a0000000000000000000000000000000000000000000000000000000008152600401610e1c906112b5565b60405180910390fd5b505050505050565b6000808473ffffffffffffffffffffffffffffffffffffffff1663a9059cbb8585604051602401610e5f92919061122c565b6040516020818303038152906040529060e01b6020820180517bffffffffffffffffffffffffffffffffffffffffffffffffffffffff8381831617835250505050604051610ead91906111c3565b6000604051808303816000865af19150503d8060008114610eea576040519150601f19603f3d011682016040523d82523d6000602084013e610eef565b606091505b5091509150818015610f1d5750600081511480610f1c575080806020019051810190610f1b9190611096565b5b5b610f5c576040517f08c379a0000000000000000000000000000000000000000000000000000000008152600401610f5390611255565b60405180910390fd5b5050505050565b600081359050610f7281611527565b92915050565b600081519050610f8781611527565b92915050565b600081519050610f9c8161153e565b92915050565b600081519050610fb181611555565b92915050565b600081359050610fc68161156c565b92915050565b600060208284031215610fde57600080fd5b6000610fec84828501610f63565b91505092915050565b60006020828403121561100757600080fd5b600061101584828501610f78565b91505092915050565b6000806040838503121561103157600080fd5b600061103f85828601610f63565b925050602061105085828601610f63565b9150509250929050565b6000806040838503121561106d57600080fd5b600061107b85828601610f63565b925050602061108c85828601610fb7565b9150509250929050565b6000602082840312156110a857600080fd5b60006110b684828501610f8d565b91505092915050565b6000602082840312156110d157600080fd5b60006110df84828501610fa2565b91505092915050565b6110f1816113a1565b82525050565b6000611102826112f0565b61110c81856112fb565b935061111c8185602086016113fb565b80840191505092915050565b6000611135601f83611306565b91506111408261145d565b602082019050919050565b6000611158600883611306565b915061116382611486565b602082019050919050565b600061117b600983611306565b9150611186826114af565b602082019050919050565b600061119e602483611306565b91506111a9826114d8565b604082019050919050565b6111bd816113f1565b82525050565b60006111cf82846110f7565b915081905092915050565b60006020820190506111ef60008301846110e8565b92915050565b600060608201905061120a60008301866110e8565b61121760208301856110e8565b61122460408301846111b4565b949350505050565b600060408201905061124160008301856110e8565b61124e60208301846111b4565b9392505050565b6000602082019050818103600083015261126e81611128565b9050919050565b6000602082019050818103600083015261128e8161114b565b9050919050565b600060208201905081810360008301526112ae8161116e565b9050919050565b600060208201905081810360008301526112ce81611191565b9050919050565b60006020820190506112ea60008301846111b4565b92915050565b600081519050919050565b600081905092915050565b600082825260208201905092915050565b6000611322826113f1565b915061132d836113f1565b9250827fffffffffffffffffffffffffffffffffffffffffffffffffffffffffffffffff038211156113625761136161142e565b5b828201905092915050565b6000611378826113f1565b9150611383836113f1565b9250828210156113965761139561142e565b5b828203905092915050565b60006113ac826113d1565b9050919050565b60008115159050919050565b60006113ca826113a1565b9050919050565b600073ffffffffffffffffffffffffffffffffffffffff82169050919050565b6000819050919050565b60005b838110156114195780820151818401526020810190506113fe565b83811115611428576000848401525b50505050565b7f4e487b7100000000000000000000000000000000000000000000000000000000600052601160045260246000fd5b7f5472616e7366657248656c7065723a205452414e534645525f4641494c454400600082015250565b7f2162616c616e6365000000000000000000000000000000000000000000000000600082015250565b7f21756e6c6f636b65640000000000000000000000000000000000000000000000600082015250565b7f5472616e7366657248656c7065723a205452414e534645525f46524f4d5f464160008201527f494c454400000000000000000000000000000000000000000000000000000000602082015250565b611530816113a1565b811461153b57600080fd5b50565b611547816113b3565b811461155257600080fd5b50565b61155e816113bf565b811461156957600080fd5b50565b611575816113f1565b811461158057600080fd5b5056fea264697066735822122011553b5b1691f0f3435ce5b05ba1d94d8ca1b7c8f46c8a848e7ba6d8a1d77f0864736f6c63430008030033",
  "linkReferences": {},
  "deployedLinkReferences": {}
}