{
  "_format": "hh-sol-artifact-1",
  "contractName": "DaoVault",
  "sourceName": "contracts/DaoVault.sol",
  "abi": [
    {
      "inputs": [
        {
          "internalType": "address",
          "name": "_base",
          "type": "address"
        }
      ],
      "stateMutability": "nonpayable",
      "type": "constructor"
    },
    {
      "inputs": [],
      "name": "BASE",
      "outputs": [
        {
          "internalType": "address",
          "name": "",
          "type": "address"
        }
      ],
      "stateMutability": "view",
      "type": "function"
    },
    {
      "inputs": [],
      "name": "DEPLOYER",
      "outputs": [
        {
          "internalType": "address",
          "name": "",
          "type": "address"
        }
      ],
      "stateMutability": "view",
      "type": "function"
    },
    {
      "inputs": [
        {
          "internalType": "address",
          "name": "pool",
          "type": "address"
        },
        {
          "internalType": "uint256",
          "name": "amount",
          "type": "uint256"
        },
        {
          "internalType": "address",
          "name": "member",
          "type": "address"
        }
      ],
      "name": "depositLP",
      "outputs": [
        {
          "internalType": "bool",
          "name": "",
          "type": "bool"
        }
      ],
      "stateMutability": "nonpayable",
      "type": "function"
    },
    {
      "inputs": [
        {
          "internalType": "address",
          "name": "member",
          "type": "address"
        }
      ],
      "name": "getMemberLPWeight",
      "outputs": [
        {
          "internalType": "uint256",
          "name": "memberWeight",
          "type": "uint256"
        },
        {
          "internalType": "uint256",
          "name": "totalWeight",
          "type": "uint256"
        }
      ],
      "stateMutability": "nonpayable",
      "type": "function"
    },
    {
      "inputs": [
        {
          "internalType": "address",
          "name": "pool",
          "type": "address"
        },
        {
          "internalType": "address",
          "name": "member",
          "type": "address"
        }
      ],
      "name": "getMemberPoolBalance",
      "outputs": [
        {
          "internalType": "uint256",
          "name": "",
          "type": "uint256"
        }
      ],
      "stateMutability": "view",
      "type": "function"
    },
    {
      "inputs": [
        {
          "internalType": "address",
          "name": "pool",
          "type": "address"
        },
        {
          "internalType": "address",
          "name": "member",
          "type": "address"
        }
      ],
      "name": "getMemberPoolDepositTime",
      "outputs": [
        {
          "internalType": "uint256",
          "name": "",
          "type": "uint256"
        }
      ],
      "stateMutability": "view",
      "type": "function"
    },
    {
      "inputs": [
        {
          "internalType": "address",
          "name": "",
          "type": "address"
        }
      ],
      "name": "mapTotalPool_balance",
      "outputs": [
        {
          "internalType": "uint256",
          "name": "",
          "type": "uint256"
        }
      ],
      "stateMutability": "view",
      "type": "function"
    },
    {
      "inputs": [],
      "name": "purgeDeployer",
      "outputs": [],
      "stateMutability": "nonpayable",
      "type": "function"
    },
    {
      "inputs": [
        {
          "internalType": "address",
          "name": "pool",
          "type": "address"
        },
        {
          "internalType": "address",
          "name": "member",
          "type": "address"
        }
      ],
      "name": "withdraw",
      "outputs": [
        {
          "internalType": "bool",
          "name": "",
          "type": "bool"
        }
      ],
      "stateMutability": "nonpayable",
      "type": "function"
    }
  ],
  "bytecode": "0x60a06040523480156200001157600080fd5b5060405162001e6538038062001e658339818101604052810190620000379190620000cc565b8073ffffffffffffffffffffffffffffffffffffffff1660808173ffffffffffffffffffffffffffffffffffffffff1660601b81525050336000806101000a81548173ffffffffffffffffffffffffffffffffffffffff021916908373ffffffffffffffffffffffffffffffffffffffff1602179055505062000146565b600081519050620000c6816200012c565b92915050565b600060208284031215620000df57600080fd5b6000620000ef84828501620000b5565b91505092915050565b600062000105826200010c565b9050919050565b600073ffffffffffffffffffffffffffffffffffffffff82169050919050565b6200013781620000f8565b81146200014357600080fd5b50565b60805160601c611cf96200016c60003960008181610f4f01526113fe0152611cf96000f3fe608060405234801561001057600080fd5b50600436106100935760003560e01c8063a477b80411610066578063a477b80414610132578063aa9fd37414610163578063c1b8411a14610193578063ec342ad0146101b1578063f940e385146101cf57610093565b806303a821381461009857806306109ac9146100a257806346dafa2f146100d257806389bbd67014610102575b600080fd5b6100a06101ff565b005b6100bc60048036038101906100b79190611605565b61038a565b6040516100c99190611927565b60405180910390f35b6100ec60048036038101906100e79190611641565b610411565b6040516100f9919061186c565b60405180910390f35b61011c600480360381019061011791906115b3565b6106d0565b6040516101299190611927565b60405180910390f35b61014c600480360381019061014791906115b3565b6106e8565b60405161015a929190611942565b60405180910390f35b61017d60048036038101906101789190611605565b610ea2565b60405161018a9190611927565b60405180910390f35b61019b610f29565b6040516101a89190611828565b60405180910390f35b6101b9610f4d565b6040516101c69190611828565b60405180910390f35b6101e960048036038101906101e49190611605565b610f71565b6040516101f6919061186c565b60405180910390f35b6102076113fa565b73ffffffffffffffffffffffffffffffffffffffff166398fabd3a6040518163ffffffff1660e01b815260040160206040518083038186803b15801561024c57600080fd5b505afa158015610260573d6000803e3d6000fd5b505050506040513d601f19601f8201168201806040525081019061028491906115dc565b73ffffffffffffffffffffffffffffffffffffffff163373ffffffffffffffffffffffffffffffffffffffff161480610308575060008054906101000a900473ffffffffffffffffffffffffffffffffffffffff1673ffffffffffffffffffffffffffffffffffffffff163373ffffffffffffffffffffffffffffffffffffffff16145b610347576040517f08c379a000000000000000000000000000000000000000000000000000000000815260040161033e90611887565b60405180910390fd5b60008060006101000a81548173ffffffffffffffffffffffffffffffffffffffff021916908373ffffffffffffffffffffffffffffffffffffffff160217905550565b6000600360008373ffffffffffffffffffffffffffffffffffffffff1673ffffffffffffffffffffffffffffffffffffffff16815260200190815260200160002060008473ffffffffffffffffffffffffffffffffffffffff1673ffffffffffffffffffffffffffffffffffffffff16815260200190815260200160002054905092915050565b600061041b6113fa565b73ffffffffffffffffffffffffffffffffffffffff166398fabd3a6040518163ffffffff1660e01b815260040160206040518083038186803b15801561046057600080fd5b505afa158015610474573d6000803e3d6000fd5b505050506040513d601f19601f8201168201806040525081019061049891906115dc565b73ffffffffffffffffffffffffffffffffffffffff163373ffffffffffffffffffffffffffffffffffffffff16148061051c575060008054906101000a900473ffffffffffffffffffffffffffffffffffffffff1673ffffffffffffffffffffffffffffffffffffffff163373ffffffffffffffffffffffffffffffffffffffff16145b61055b576040517f08c379a000000000000000000000000000000000000000000000000000000000815260040161055290611887565b60405180910390fd5b82600260008473ffffffffffffffffffffffffffffffffffffffff1673ffffffffffffffffffffffffffffffffffffffff16815260200190815260200160002060008673ffffffffffffffffffffffffffffffffffffffff1673ffffffffffffffffffffffffffffffffffffffff16815260200190815260200160002060008282546105e791906119cd565b9250508190555082600160008673ffffffffffffffffffffffffffffffffffffffff1673ffffffffffffffffffffffffffffffffffffffff168152602001908152602001600020600082825461063d91906119cd565b9250508190555042600360008473ffffffffffffffffffffffffffffffffffffffff1673ffffffffffffffffffffffffffffffffffffffff16815260200190815260200160002060008673ffffffffffffffffffffffffffffffffffffffff1673ffffffffffffffffffffffffffffffffffffffff16815260200190815260200160002081905550600190509392505050565b60016020528060005260406000206000915090505481565b6000806106f36113fa565b73ffffffffffffffffffffffffffffffffffffffff166398fabd3a6040518163ffffffff1660e01b815260040160206040518083038186803b15801561073857600080fd5b505afa15801561074c573d6000803e3d6000fd5b505050506040513d601f19601f8201168201806040525081019061077091906115dc565b73ffffffffffffffffffffffffffffffffffffffff163373ffffffffffffffffffffffffffffffffffffffff1614806107f4575060008054906101000a900473ffffffffffffffffffffffffffffffffffffffff1673ffffffffffffffffffffffffffffffffffffffff163373ffffffffffffffffffffffffffffffffffffffff16145b610833576040517f08c379a000000000000000000000000000000000000000000000000000000000815260040161082a90611887565b60405180910390fd5b6001151561083f6113fa565b73ffffffffffffffffffffffffffffffffffffffff16639d2cc4366040518163ffffffff1660e01b815260040160206040518083038186803b15801561088457600080fd5b505afa158015610898573d6000803e3d6000fd5b505050506040513d601f19601f820116820180604052508101906108bc91906115dc565b73ffffffffffffffffffffffffffffffffffffffff1663194e22ce6040518163ffffffff1660e01b8152600401602060405180830381600087803b15801561090357600080fd5b505af1158015610917573d6000803e3d6000fd5b505050506040513d601f19601f8201168201806040525081019061093b91906116d1565b1515141561097e576040517f08c379a000000000000000000000000000000000000000000000000000000000815260040161097590611907565b60405180910390fd5b60006109886113fa565b73ffffffffffffffffffffffffffffffffffffffff1663b99b0a0c6040518163ffffffff1660e01b815260040160206040518083038186803b1580156109cd57600080fd5b505afa1580156109e1573d6000803e3d6000fd5b505050506040513d601f19601f82011682018060405250810190610a0591906115dc565b73ffffffffffffffffffffffffffffffffffffffff1663abc764da6040518163ffffffff1660e01b815260040160006040518083038186803b158015610a4a57600080fd5b505afa158015610a5e573d6000803e3d6000fd5b505050506040513d6000823e3d601f19601f82011682018060405250810190610a879190611690565b905060005b8151811015610e9b57610a9d6113fa565b73ffffffffffffffffffffffffffffffffffffffff16637b0e5c456040518163ffffffff1660e01b815260040160206040518083038186803b158015610ae257600080fd5b505afa158015610af6573d6000803e3d6000fd5b505050506040513d601f19601f82011682018060405250810190610b1a91906115dc565b73ffffffffffffffffffffffffffffffffffffffff1663ca2e5b65838381518110610b6e577f4e487b7100000000000000000000000000000000000000000000000000000000600052603260045260246000fd5b6020026020010151600260008973ffffffffffffffffffffffffffffffffffffffff1673ffffffffffffffffffffffffffffffffffffffff1681526020019081526020016000206000868681518110610bf0577f4e487b7100000000000000000000000000000000000000000000000000000000600052603260045260246000fd5b602002602001015173ffffffffffffffffffffffffffffffffffffffff1673ffffffffffffffffffffffffffffffffffffffff168152602001908152602001600020546040518363ffffffff1660e01b8152600401610c50929190611843565b60206040518083038186803b158015610c6857600080fd5b505afa158015610c7c573d6000803e3d6000fd5b505050506040513d601f19601f82011682018060405250810190610ca09190611723565b84610cab91906119cd565b9350610cb56113fa565b73ffffffffffffffffffffffffffffffffffffffff16637b0e5c456040518163ffffffff1660e01b815260040160206040518083038186803b158015610cfa57600080fd5b505afa158015610d0e573d6000803e3d6000fd5b505050506040513d601f19601f82011682018060405250810190610d3291906115dc565b73ffffffffffffffffffffffffffffffffffffffff1663ca2e5b65838381518110610d86577f4e487b7100000000000000000000000000000000000000000000000000000000600052603260045260246000fd5b602002602001015160016000868681518110610dcb577f4e487b7100000000000000000000000000000000000000000000000000000000600052603260045260246000fd5b602002602001015173ffffffffffffffffffffffffffffffffffffffff1673ffffffffffffffffffffffffffffffffffffffff168152602001908152602001600020546040518363ffffffff1660e01b8152600401610e2b929190611843565b60206040518083038186803b158015610e4357600080fd5b505afa158015610e57573d6000803e3d6000fd5b505050506040513d601f19601f82011682018060405250810190610e7b9190611723565b83610e8691906119cd565b92508080610e9390611ae2565b915050610a8c565b5050915091565b6000600260008373ffffffffffffffffffffffffffffffffffffffff1673ffffffffffffffffffffffffffffffffffffffff16815260200190815260200160002060008473ffffffffffffffffffffffffffffffffffffffff1673ffffffffffffffffffffffffffffffffffffffff16815260200190815260200160002054905092915050565b60008054906101000a900473ffffffffffffffffffffffffffffffffffffffff1681565b7f000000000000000000000000000000000000000000000000000000000000000081565b6000610f7b6113fa565b73ffffffffffffffffffffffffffffffffffffffff166398fabd3a6040518163ffffffff1660e01b815260040160206040518083038186803b158015610fc057600080fd5b505afa158015610fd4573d6000803e3d6000fd5b505050506040513d601f19601f82011682018060405250810190610ff891906115dc565b73ffffffffffffffffffffffffffffffffffffffff163373ffffffffffffffffffffffffffffffffffffffff16148061107c575060008054906101000a900473ffffffffffffffffffffffffffffffffffffffff1673ffffffffffffffffffffffffffffffffffffffff163373ffffffffffffffffffffffffffffffffffffffff16145b6110bb576040517f08c379a00000000000000000000000000000000000000000000000000000000081526004016110b290611887565b60405180910390fd5b62015180600360008473ffffffffffffffffffffffffffffffffffffffff1673ffffffffffffffffffffffffffffffffffffffff16815260200190815260200160002060008573ffffffffffffffffffffffffffffffffffffffff1673ffffffffffffffffffffffffffffffffffffffff1681526020019081526020016000205461114691906119cd565b4211611187576040517f08c379a000000000000000000000000000000000000000000000000000000000815260040161117e906118c7565b60405180910390fd5b6000600260008473ffffffffffffffffffffffffffffffffffffffff1673ffffffffffffffffffffffffffffffffffffffff16815260200190815260200160002060008573ffffffffffffffffffffffffffffffffffffffff1673ffffffffffffffffffffffffffffffffffffffff1681526020019081526020016000205490506000811161124b576040517f08c379a0000000000000000000000000000000000000000000000000000000008152600401611242906118a7565b60405180910390fd5b80600160008673ffffffffffffffffffffffffffffffffffffffff1673ffffffffffffffffffffffffffffffffffffffff168152602001908152602001600020600082825461129a9190611a23565b925050819055506000600260008573ffffffffffffffffffffffffffffffffffffffff1673ffffffffffffffffffffffffffffffffffffffff16815260200190815260200160002060008673ffffffffffffffffffffffffffffffffffffffff1673ffffffffffffffffffffffffffffffffffffffff168152602001908152602001600020819055508373ffffffffffffffffffffffffffffffffffffffff1663a9059cbb84836040518363ffffffff1660e01b815260040161135e929190611843565b602060405180830381600087803b15801561137857600080fd5b505af115801561138c573d6000803e3d6000fd5b505050506040513d601f19601f820116820180604052508101906113b091906116d1565b6113ef576040517f08c379a00000000000000000000000000000000000000000000000000000000081526004016113e6906118e7565b60405180910390fd5b600191505092915050565b60007f000000000000000000000000000000000000000000000000000000000000000073ffffffffffffffffffffffffffffffffffffffff166398fabd3a6040518163ffffffff1660e01b815260040160206040518083038186803b15801561146257600080fd5b505afa158015611476573d6000803e3d6000fd5b505050506040513d601f19601f8201168201806040525081019061149a91906116fa565b905090565b60006114b26114ad84611990565b61196b565b905080838252602082019050828560208602820111156114d157600080fd5b60005b8581101561150157816114e78882611520565b8452602084019350602083019250506001810190506114d4565b5050509392505050565b60008135905061151a81611c67565b92915050565b60008151905061152f81611c67565b92915050565b600082601f83011261154657600080fd5b815161155684826020860161149f565b91505092915050565b60008151905061156e81611c7e565b92915050565b60008151905061158381611c95565b92915050565b60008135905061159881611cac565b92915050565b6000815190506115ad81611cac565b92915050565b6000602082840312156115c557600080fd5b60006115d38482850161150b565b91505092915050565b6000602082840312156115ee57600080fd5b60006115fc84828501611520565b91505092915050565b6000806040838503121561161857600080fd5b60006116268582860161150b565b92505060206116378582860161150b565b9150509250929050565b60008060006060848603121561165657600080fd5b60006116648682870161150b565b935050602061167586828701611589565b92505060406116868682870161150b565b9150509250925092565b6000602082840312156116a257600080fd5b600082015167ffffffffffffffff8111156116bc57600080fd5b6116c884828501611535565b91505092915050565b6000602082840312156116e357600080fd5b60006116f18482850161155f565b91505092915050565b60006020828403121561170c57600080fd5b600061171a84828501611574565b91505092915050565b60006020828403121561173557600080fd5b60006117438482850161159e565b91505092915050565b61175581611a57565b82525050565b61176481611a69565b82525050565b60006117776004836119bc565b915061178282611b9a565b602082019050919050565b600061179a6008836119bc565b91506117a582611bc3565b602082019050919050565b60006117bd6009836119bc565b91506117c882611bec565b602082019050919050565b60006117e06009836119bc565b91506117eb82611c15565b602082019050919050565b60006118036005836119bc565b915061180e82611c3e565b602082019050919050565b61182281611aa7565b82525050565b600060208201905061183d600083018461174c565b92915050565b6000604082019050611858600083018561174c565b6118656020830184611819565b9392505050565b6000602082019050611881600083018461175b565b92915050565b600060208201905081810360008301526118a08161176a565b9050919050565b600060208201905081810360008301526118c08161178d565b9050919050565b600060208201905081810360008301526118e0816117b0565b9050919050565b60006020820190508181036000830152611900816117d3565b9050919050565b60006020820190508181036000830152611920816117f6565b9050919050565b600060208201905061193c6000830184611819565b92915050565b60006040820190506119576000830185611819565b6119646020830184611819565b9392505050565b6000611975611986565b90506119818282611ab1565b919050565b6000604051905090565b600067ffffffffffffffff8211156119ab576119aa611b5a565b5b602082029050602081019050919050565b600082825260208201905092915050565b60006119d882611aa7565b91506119e383611aa7565b9250827fffffffffffffffffffffffffffffffffffffffffffffffffffffffffffffffff03821115611a1857611a17611b2b565b5b828201905092915050565b6000611a2e82611aa7565b9150611a3983611aa7565b925082821015611a4c57611a4b611b2b565b5b828203905092915050565b6000611a6282611a87565b9050919050565b60008115159050919050565b6000611a8082611a57565b9050919050565b600073ffffffffffffffffffffffffffffffffffffffff82169050919050565b6000819050919050565b611aba82611b89565b810181811067ffffffffffffffff82111715611ad957611ad8611b5a565b5b80604052505050565b6000611aed82611aa7565b91507fffffffffffffffffffffffffffffffffffffffffffffffffffffffffffffffff821415611b2057611b1f611b2b565b5b600182019050919050565b7f4e487b7100000000000000000000000000000000000000000000000000000000600052601160045260246000fd5b7f4e487b7100000000000000000000000000000000000000000000000000000000600052604160045260246000fd5b6000601f19601f8301169050919050565b7f2144414f00000000000000000000000000000000000000000000000000000000600082015250565b7f2162616c616e6365000000000000000000000000000000000000000000000000600082015250565b7f21756e6c6f636b65640000000000000000000000000000000000000000000000600082015250565b7f217472616e736665720000000000000000000000000000000000000000000000600082015250565b7f2153414645000000000000000000000000000000000000000000000000000000600082015250565b611c7081611a57565b8114611c7b57600080fd5b50565b611c8781611a69565b8114611c9257600080fd5b50565b611c9e81611a75565b8114611ca957600080fd5b50565b611cb581611aa7565b8114611cc057600080fd5b5056fea2646970667358221220480982d98d8e16b9991fffbf7d15ad96ced243b36c4a658edb04bb2b4ed8de1464736f6c63430008030033",
  "linkReferences": {},
  "deployedLinkReferences": {}
}