{
  "_format": "hh-sol-artifact-1",
  "contractName": "DaoVault",
  "sourceName": "contracts/DaoVault.sol",
  "abi": [
    {
      "inputs": [
        {
          "internalType": "address",
          "name": "_base",
          "type": "address"
        }
      ],
      "stateMutability": "nonpayable",
      "type": "constructor"
    },
    {
      "inputs": [],
      "name": "BASE",
      "outputs": [
        {
          "internalType": "address",
          "name": "",
          "type": "address"
        }
      ],
      "stateMutability": "view",
      "type": "function"
    },
    {
      "inputs": [],
      "name": "DEPLOYER",
      "outputs": [
        {
          "internalType": "address",
          "name": "",
          "type": "address"
        }
      ],
      "stateMutability": "view",
      "type": "function"
    },
    {
      "inputs": [
        {
          "internalType": "address",
          "name": "pool",
          "type": "address"
        },
        {
          "internalType": "uint256",
          "name": "amount",
          "type": "uint256"
        },
        {
          "internalType": "address",
          "name": "member",
          "type": "address"
        }
      ],
      "name": "depositLP",
      "outputs": [
        {
          "internalType": "bool",
          "name": "",
          "type": "bool"
        }
      ],
      "stateMutability": "nonpayable",
      "type": "function"
    },
    {
      "inputs": [
        {
          "internalType": "address",
          "name": "member",
          "type": "address"
        }
      ],
      "name": "getMemberLPWeight",
      "outputs": [
        {
          "internalType": "uint256",
          "name": "memberWeight",
          "type": "uint256"
        },
        {
          "internalType": "uint256",
          "name": "totalWeight",
          "type": "uint256"
        }
      ],
      "stateMutability": "nonpayable",
      "type": "function"
    },
    {
      "inputs": [
        {
          "internalType": "address",
          "name": "pool",
          "type": "address"
        },
        {
          "internalType": "address",
          "name": "member",
          "type": "address"
        }
      ],
      "name": "getMemberPoolBalance",
      "outputs": [
        {
          "internalType": "uint256",
          "name": "",
          "type": "uint256"
        }
      ],
      "stateMutability": "view",
      "type": "function"
    },
    {
      "inputs": [
        {
          "internalType": "address",
          "name": "pool",
          "type": "address"
        },
        {
          "internalType": "address",
          "name": "member",
          "type": "address"
        }
      ],
      "name": "getMemberPoolDepositTime",
      "outputs": [
        {
          "internalType": "uint256",
          "name": "",
          "type": "uint256"
        }
      ],
      "stateMutability": "view",
      "type": "function"
    },
    {
      "inputs": [
        {
          "internalType": "address",
          "name": "",
          "type": "address"
        }
      ],
      "name": "mapTotalPool_balance",
      "outputs": [
        {
          "internalType": "uint256",
          "name": "",
          "type": "uint256"
        }
      ],
      "stateMutability": "view",
      "type": "function"
    },
    {
      "inputs": [],
      "name": "purgeDeployer",
      "outputs": [],
      "stateMutability": "nonpayable",
      "type": "function"
    },
    {
      "inputs": [
        {
          "internalType": "address",
          "name": "pool",
          "type": "address"
        },
        {
          "internalType": "address",
          "name": "member",
          "type": "address"
        }
      ],
      "name": "withdraw",
      "outputs": [
        {
          "internalType": "bool",
          "name": "",
          "type": "bool"
        }
      ],
      "stateMutability": "nonpayable",
      "type": "function"
    }
  ],
  "bytecode": "0x60a06040523480156200001157600080fd5b5060405162001f5938038062001f5983398181016040528101906200003791906200013f565b600073ffffffffffffffffffffffffffffffffffffffff168173ffffffffffffffffffffffffffffffffffffffff161415620000aa576040517f08c379a0000000000000000000000000000000000000000000000000000000008152600401620000a19062000192565b60405180910390fd5b8073ffffffffffffffffffffffffffffffffffffffff1660808173ffffffffffffffffffffffffffffffffffffffff1660601b81525050336000806101000a81548173ffffffffffffffffffffffffffffffffffffffff021916908373ffffffffffffffffffffffffffffffffffffffff160217905550506200023c565b600081519050620001398162000222565b92915050565b6000602082840312156200015257600080fd5b6000620001628482850162000128565b91505092915050565b60006200017a600583620001b4565b91506200018782620001f9565b602082019050919050565b60006020820190508181036000830152620001ad816200016b565b9050919050565b600082825260208201905092915050565b6000620001d282620001d9565b9050919050565b600073ffffffffffffffffffffffffffffffffffffffff82169050919050565b7f215a45524f000000000000000000000000000000000000000000000000000000600082015250565b6200022d81620001c5565b81146200023957600080fd5b50565b60805160601c611cf76200026260003960008181610f4f01526113fc0152611cf76000f3fe608060405234801561001057600080fd5b50600436106100935760003560e01c8063a477b80411610066578063a477b80414610132578063aa9fd37414610163578063c1b8411a14610193578063ec342ad0146101b1578063f940e385146101cf57610093565b806303a821381461009857806306109ac9146100a257806346dafa2f146100d257806389bbd67014610102575b600080fd5b6100a06101ff565b005b6100bc60048036038101906100b79190611603565b61038a565b6040516100c99190611925565b60405180910390f35b6100ec60048036038101906100e7919061163f565b610411565b6040516100f9919061186a565b60405180910390f35b61011c600480360381019061011791906115b1565b6106d0565b6040516101299190611925565b60405180910390f35b61014c600480360381019061014791906115b1565b6106e8565b60405161015a929190611940565b60405180910390f35b61017d60048036038101906101789190611603565b610ea2565b60405161018a9190611925565b60405180910390f35b61019b610f29565b6040516101a89190611826565b60405180910390f35b6101b9610f4d565b6040516101c69190611826565b60405180910390f35b6101e960048036038101906101e49190611603565b610f71565b6040516101f6919061186a565b60405180910390f35b6102076113f8565b73ffffffffffffffffffffffffffffffffffffffff166398fabd3a6040518163ffffffff1660e01b815260040160206040518083038186803b15801561024c57600080fd5b505afa158015610260573d6000803e3d6000fd5b505050506040513d601f19601f8201168201806040525081019061028491906115da565b73ffffffffffffffffffffffffffffffffffffffff163373ffffffffffffffffffffffffffffffffffffffff161480610308575060008054906101000a900473ffffffffffffffffffffffffffffffffffffffff1673ffffffffffffffffffffffffffffffffffffffff163373ffffffffffffffffffffffffffffffffffffffff16145b610347576040517f08c379a000000000000000000000000000000000000000000000000000000000815260040161033e90611885565b60405180910390fd5b60008060006101000a81548173ffffffffffffffffffffffffffffffffffffffff021916908373ffffffffffffffffffffffffffffffffffffffff160217905550565b6000600360008373ffffffffffffffffffffffffffffffffffffffff1673ffffffffffffffffffffffffffffffffffffffff16815260200190815260200160002060008473ffffffffffffffffffffffffffffffffffffffff1673ffffffffffffffffffffffffffffffffffffffff16815260200190815260200160002054905092915050565b600061041b6113f8565b73ffffffffffffffffffffffffffffffffffffffff166398fabd3a6040518163ffffffff1660e01b815260040160206040518083038186803b15801561046057600080fd5b505afa158015610474573d6000803e3d6000fd5b505050506040513d601f19601f8201168201806040525081019061049891906115da565b73ffffffffffffffffffffffffffffffffffffffff163373ffffffffffffffffffffffffffffffffffffffff16148061051c575060008054906101000a900473ffffffffffffffffffffffffffffffffffffffff1673ffffffffffffffffffffffffffffffffffffffff163373ffffffffffffffffffffffffffffffffffffffff16145b61055b576040517f08c379a000000000000000000000000000000000000000000000000000000000815260040161055290611885565b60405180910390fd5b82600260008473ffffffffffffffffffffffffffffffffffffffff1673ffffffffffffffffffffffffffffffffffffffff16815260200190815260200160002060008673ffffffffffffffffffffffffffffffffffffffff1673ffffffffffffffffffffffffffffffffffffffff16815260200190815260200160002060008282546105e791906119cb565b9250508190555082600160008673ffffffffffffffffffffffffffffffffffffffff1673ffffffffffffffffffffffffffffffffffffffff168152602001908152602001600020600082825461063d91906119cb565b9250508190555042600360008473ffffffffffffffffffffffffffffffffffffffff1673ffffffffffffffffffffffffffffffffffffffff16815260200190815260200160002060008673ffffffffffffffffffffffffffffffffffffffff1673ffffffffffffffffffffffffffffffffffffffff16815260200190815260200160002081905550600190509392505050565b60016020528060005260406000206000915090505481565b6000806106f36113f8565b73ffffffffffffffffffffffffffffffffffffffff166398fabd3a6040518163ffffffff1660e01b815260040160206040518083038186803b15801561073857600080fd5b505afa15801561074c573d6000803e3d6000fd5b505050506040513d601f19601f8201168201806040525081019061077091906115da565b73ffffffffffffffffffffffffffffffffffffffff163373ffffffffffffffffffffffffffffffffffffffff1614806107f4575060008054906101000a900473ffffffffffffffffffffffffffffffffffffffff1673ffffffffffffffffffffffffffffffffffffffff163373ffffffffffffffffffffffffffffffffffffffff16145b610833576040517f08c379a000000000000000000000000000000000000000000000000000000000815260040161082a90611885565b60405180910390fd5b6001151561083f6113f8565b73ffffffffffffffffffffffffffffffffffffffff16639d2cc4366040518163ffffffff1660e01b815260040160206040518083038186803b15801561088457600080fd5b505afa158015610898573d6000803e3d6000fd5b505050506040513d601f19601f820116820180604052508101906108bc91906115da565b73ffffffffffffffffffffffffffffffffffffffff1663194e22ce6040518163ffffffff1660e01b8152600401602060405180830381600087803b15801561090357600080fd5b505af1158015610917573d6000803e3d6000fd5b505050506040513d601f19601f8201168201806040525081019061093b91906116cf565b1515141561097e576040517f08c379a000000000000000000000000000000000000000000000000000000000815260040161097590611905565b60405180910390fd5b60006109886113f8565b73ffffffffffffffffffffffffffffffffffffffff1663b99b0a0c6040518163ffffffff1660e01b815260040160206040518083038186803b1580156109cd57600080fd5b505afa1580156109e1573d6000803e3d6000fd5b505050506040513d601f19601f82011682018060405250810190610a0591906115da565b73ffffffffffffffffffffffffffffffffffffffff1663abc764da6040518163ffffffff1660e01b815260040160006040518083038186803b158015610a4a57600080fd5b505afa158015610a5e573d6000803e3d6000fd5b505050506040513d6000823e3d601f19601f82011682018060405250810190610a87919061168e565b905060005b8151811015610e9b57610a9d6113f8565b73ffffffffffffffffffffffffffffffffffffffff16637b0e5c456040518163ffffffff1660e01b815260040160206040518083038186803b158015610ae257600080fd5b505afa158015610af6573d6000803e3d6000fd5b505050506040513d601f19601f82011682018060405250810190610b1a91906115da565b73ffffffffffffffffffffffffffffffffffffffff1663ca2e5b65838381518110610b6e577f4e487b7100000000000000000000000000000000000000000000000000000000600052603260045260246000fd5b6020026020010151600260008973ffffffffffffffffffffffffffffffffffffffff1673ffffffffffffffffffffffffffffffffffffffff1681526020019081526020016000206000868681518110610bf0577f4e487b7100000000000000000000000000000000000000000000000000000000600052603260045260246000fd5b602002602001015173ffffffffffffffffffffffffffffffffffffffff1673ffffffffffffffffffffffffffffffffffffffff168152602001908152602001600020546040518363ffffffff1660e01b8152600401610c50929190611841565b60206040518083038186803b158015610c6857600080fd5b505afa158015610c7c573d6000803e3d6000fd5b505050506040513d601f19601f82011682018060405250810190610ca09190611721565b84610cab91906119cb565b9350610cb56113f8565b73ffffffffffffffffffffffffffffffffffffffff16637b0e5c456040518163ffffffff1660e01b815260040160206040518083038186803b158015610cfa57600080fd5b505afa158015610d0e573d6000803e3d6000fd5b505050506040513d601f19601f82011682018060405250810190610d3291906115da565b73ffffffffffffffffffffffffffffffffffffffff1663ca2e5b65838381518110610d86577f4e487b7100000000000000000000000000000000000000000000000000000000600052603260045260246000fd5b602002602001015160016000868681518110610dcb577f4e487b7100000000000000000000000000000000000000000000000000000000600052603260045260246000fd5b602002602001015173ffffffffffffffffffffffffffffffffffffffff1673ffffffffffffffffffffffffffffffffffffffff168152602001908152602001600020546040518363ffffffff1660e01b8152600401610e2b929190611841565b60206040518083038186803b158015610e4357600080fd5b505afa158015610e57573d6000803e3d6000fd5b505050506040513d601f19601f82011682018060405250810190610e7b9190611721565b83610e8691906119cb565b92508080610e9390611ae0565b915050610a8c565b5050915091565b6000600260008373ffffffffffffffffffffffffffffffffffffffff1673ffffffffffffffffffffffffffffffffffffffff16815260200190815260200160002060008473ffffffffffffffffffffffffffffffffffffffff1673ffffffffffffffffffffffffffffffffffffffff16815260200190815260200160002054905092915050565b60008054906101000a900473ffffffffffffffffffffffffffffffffffffffff1681565b7f000000000000000000000000000000000000000000000000000000000000000081565b6000610f7b6113f8565b73ffffffffffffffffffffffffffffffffffffffff166398fabd3a6040518163ffffffff1660e01b815260040160206040518083038186803b158015610fc057600080fd5b505afa158015610fd4573d6000803e3d6000fd5b505050506040513d601f19601f82011682018060405250810190610ff891906115da565b73ffffffffffffffffffffffffffffffffffffffff163373ffffffffffffffffffffffffffffffffffffffff16148061107c575060008054906101000a900473ffffffffffffffffffffffffffffffffffffffff1673ffffffffffffffffffffffffffffffffffffffff163373ffffffffffffffffffffffffffffffffffffffff16145b6110bb576040517f08c379a00000000000000000000000000000000000000000000000000000000081526004016110b290611885565b60405180910390fd5b6000600360008473ffffffffffffffffffffffffffffffffffffffff1673ffffffffffffffffffffffffffffffffffffffff16815260200190815260200160002060008573ffffffffffffffffffffffffffffffffffffffff1673ffffffffffffffffffffffffffffffffffffffff1681526020019081526020016000205461114491906119cb565b4211611185576040517f08c379a000000000000000000000000000000000000000000000000000000000815260040161117c906118c5565b60405180910390fd5b6000600260008473ffffffffffffffffffffffffffffffffffffffff1673ffffffffffffffffffffffffffffffffffffffff16815260200190815260200160002060008573ffffffffffffffffffffffffffffffffffffffff1673ffffffffffffffffffffffffffffffffffffffff16815260200190815260200160002054905060008111611249576040517f08c379a0000000000000000000000000000000000000000000000000000000008152600401611240906118a5565b60405180910390fd5b80600160008673ffffffffffffffffffffffffffffffffffffffff1673ffffffffffffffffffffffffffffffffffffffff16815260200190815260200160002060008282546112989190611a21565b925050819055506000600260008573ffffffffffffffffffffffffffffffffffffffff1673ffffffffffffffffffffffffffffffffffffffff16815260200190815260200160002060008673ffffffffffffffffffffffffffffffffffffffff1673ffffffffffffffffffffffffffffffffffffffff168152602001908152602001600020819055508373ffffffffffffffffffffffffffffffffffffffff1663a9059cbb84836040518363ffffffff1660e01b815260040161135c929190611841565b602060405180830381600087803b15801561137657600080fd5b505af115801561138a573d6000803e3d6000fd5b505050506040513d601f19601f820116820180604052508101906113ae91906116cf565b6113ed576040517f08c379a00000000000000000000000000000000000000000000000000000000081526004016113e4906118e5565b60405180910390fd5b600191505092915050565b60007f000000000000000000000000000000000000000000000000000000000000000073ffffffffffffffffffffffffffffffffffffffff166398fabd3a6040518163ffffffff1660e01b815260040160206040518083038186803b15801561146057600080fd5b505afa158015611474573d6000803e3d6000fd5b505050506040513d601f19601f8201168201806040525081019061149891906116f8565b905090565b60006114b06114ab8461198e565b611969565b905080838252602082019050828560208602820111156114cf57600080fd5b60005b858110156114ff57816114e5888261151e565b8452602084019350602083019250506001810190506114d2565b5050509392505050565b60008135905061151881611c65565b92915050565b60008151905061152d81611c65565b92915050565b600082601f83011261154457600080fd5b815161155484826020860161149d565b91505092915050565b60008151905061156c81611c7c565b92915050565b60008151905061158181611c93565b92915050565b60008135905061159681611caa565b92915050565b6000815190506115ab81611caa565b92915050565b6000602082840312156115c357600080fd5b60006115d184828501611509565b91505092915050565b6000602082840312156115ec57600080fd5b60006115fa8482850161151e565b91505092915050565b6000806040838503121561161657600080fd5b600061162485828601611509565b925050602061163585828601611509565b9150509250929050565b60008060006060848603121561165457600080fd5b600061166286828701611509565b935050602061167386828701611587565b925050604061168486828701611509565b9150509250925092565b6000602082840312156116a057600080fd5b600082015167ffffffffffffffff8111156116ba57600080fd5b6116c684828501611533565b91505092915050565b6000602082840312156116e157600080fd5b60006116ef8482850161155d565b91505092915050565b60006020828403121561170a57600080fd5b600061171884828501611572565b91505092915050565b60006020828403121561173357600080fd5b60006117418482850161159c565b91505092915050565b61175381611a55565b82525050565b61176281611a67565b82525050565b60006117756004836119ba565b915061178082611b98565b602082019050919050565b60006117986008836119ba565b91506117a382611bc1565b602082019050919050565b60006117bb6009836119ba565b91506117c682611bea565b602082019050919050565b60006117de6009836119ba565b91506117e982611c13565b602082019050919050565b60006118016005836119ba565b915061180c82611c3c565b602082019050919050565b61182081611aa5565b82525050565b600060208201905061183b600083018461174a565b92915050565b6000604082019050611856600083018561174a565b6118636020830184611817565b9392505050565b600060208201905061187f6000830184611759565b92915050565b6000602082019050818103600083015261189e81611768565b9050919050565b600060208201905081810360008301526118be8161178b565b9050919050565b600060208201905081810360008301526118de816117ae565b9050919050565b600060208201905081810360008301526118fe816117d1565b9050919050565b6000602082019050818103600083015261191e816117f4565b9050919050565b600060208201905061193a6000830184611817565b92915050565b60006040820190506119556000830185611817565b6119626020830184611817565b9392505050565b6000611973611984565b905061197f8282611aaf565b919050565b6000604051905090565b600067ffffffffffffffff8211156119a9576119a8611b58565b5b602082029050602081019050919050565b600082825260208201905092915050565b60006119d682611aa5565b91506119e183611aa5565b9250827fffffffffffffffffffffffffffffffffffffffffffffffffffffffffffffffff03821115611a1657611a15611b29565b5b828201905092915050565b6000611a2c82611aa5565b9150611a3783611aa5565b925082821015611a4a57611a49611b29565b5b828203905092915050565b6000611a6082611a85565b9050919050565b60008115159050919050565b6000611a7e82611a55565b9050919050565b600073ffffffffffffffffffffffffffffffffffffffff82169050919050565b6000819050919050565b611ab882611b87565b810181811067ffffffffffffffff82111715611ad757611ad6611b58565b5b80604052505050565b6000611aeb82611aa5565b91507fffffffffffffffffffffffffffffffffffffffffffffffffffffffffffffffff821415611b1e57611b1d611b29565b5b600182019050919050565b7f4e487b7100000000000000000000000000000000000000000000000000000000600052601160045260246000fd5b7f4e487b7100000000000000000000000000000000000000000000000000000000600052604160045260246000fd5b6000601f19601f8301169050919050565b7f2144414f00000000000000000000000000000000000000000000000000000000600082015250565b7f2162616c616e6365000000000000000000000000000000000000000000000000600082015250565b7f21756e6c6f636b65640000000000000000000000000000000000000000000000600082015250565b7f217472616e736665720000000000000000000000000000000000000000000000600082015250565b7f2153414645000000000000000000000000000000000000000000000000000000600082015250565b611c6e81611a55565b8114611c7957600080fd5b50565b611c8581611a67565b8114611c9057600080fd5b50565b611c9c81611a73565b8114611ca757600080fd5b50565b611cb381611aa5565b8114611cbe57600080fd5b5056fea26469706673582212208d2a5db36dd9b3d502a97c37939b3ee6d5ba521f82a5d675748bd23d9660744c64736f6c63430008030033",
  "linkReferences": {},
  "deployedLinkReferences": {}
}