{
  "_format": "hh-sol-artifact-1",
  "contractName": "DaoVault",
  "sourceName": "contracts/DaoVault.sol",
  "abi": [
    {
      "inputs": [
        {
          "internalType": "address",
          "name": "_base",
          "type": "address"
        }
      ],
      "stateMutability": "nonpayable",
      "type": "constructor"
    },
    {
      "inputs": [],
      "name": "BASE",
      "outputs": [
        {
          "internalType": "address",
          "name": "",
          "type": "address"
        }
      ],
      "stateMutability": "view",
      "type": "function"
    },
    {
      "inputs": [],
      "name": "DEPLOYER",
      "outputs": [
        {
          "internalType": "address",
          "name": "",
          "type": "address"
        }
      ],
      "stateMutability": "view",
      "type": "function"
    },
    {
      "inputs": [
        {
          "internalType": "address",
          "name": "pool",
          "type": "address"
        },
        {
          "internalType": "uint256",
          "name": "amount",
          "type": "uint256"
        },
        {
          "internalType": "address",
          "name": "member",
          "type": "address"
        }
      ],
      "name": "depositLP",
      "outputs": [
        {
          "internalType": "bool",
          "name": "",
          "type": "bool"
        }
      ],
      "stateMutability": "nonpayable",
      "type": "function"
    },
    {
      "inputs": [
        {
          "internalType": "address",
          "name": "member",
          "type": "address"
        }
      ],
      "name": "getMemberLPWeight",
      "outputs": [
        {
          "internalType": "uint256",
          "name": "memberWeight",
          "type": "uint256"
        },
        {
          "internalType": "uint256",
          "name": "totalWeight",
          "type": "uint256"
        }
      ],
      "stateMutability": "nonpayable",
      "type": "function"
    },
    {
      "inputs": [
        {
          "internalType": "address",
          "name": "pool",
          "type": "address"
        },
        {
          "internalType": "address",
          "name": "member",
          "type": "address"
        }
      ],
      "name": "getMemberPoolBalance",
      "outputs": [
        {
          "internalType": "uint256",
          "name": "",
          "type": "uint256"
        }
      ],
      "stateMutability": "view",
      "type": "function"
    },
    {
      "inputs": [
        {
          "internalType": "address",
          "name": "",
          "type": "address"
        },
        {
          "internalType": "address",
          "name": "",
          "type": "address"
        }
      ],
      "name": "mapMemberPool_balance",
      "outputs": [
        {
          "internalType": "uint256",
          "name": "",
          "type": "uint256"
        }
      ],
      "stateMutability": "view",
      "type": "function"
    },
    {
      "inputs": [
        {
          "internalType": "address",
          "name": "",
          "type": "address"
        },
        {
          "internalType": "address",
          "name": "",
          "type": "address"
        }
      ],
      "name": "mapMember_depositTime",
      "outputs": [
        {
          "internalType": "uint256",
          "name": "",
          "type": "uint256"
        }
      ],
      "stateMutability": "view",
      "type": "function"
    },
    {
      "inputs": [
        {
          "internalType": "address",
          "name": "",
          "type": "address"
        }
      ],
      "name": "mapTotalPool_balance",
      "outputs": [
        {
          "internalType": "uint256",
          "name": "",
          "type": "uint256"
        }
      ],
      "stateMutability": "view",
      "type": "function"
    },
    {
      "inputs": [
        {
          "internalType": "address",
          "name": "pool",
          "type": "address"
        },
        {
          "internalType": "address",
          "name": "member",
          "type": "address"
        }
      ],
      "name": "withdraw",
      "outputs": [
        {
          "internalType": "bool",
          "name": "",
          "type": "bool"
        }
      ],
      "stateMutability": "nonpayable",
      "type": "function"
    }
  ],
  "bytecode": "0x60806040523480156200001157600080fd5b5060405162001cf038038062001cf0833981810160405281019062000037919062000149565b600073ffffffffffffffffffffffffffffffffffffffff168173ffffffffffffffffffffffffffffffffffffffff161415620000aa576040517f08c379a0000000000000000000000000000000000000000000000000000000008152600401620000a1906200019c565b60405180910390fd5b806000806101000a81548173ffffffffffffffffffffffffffffffffffffffff021916908373ffffffffffffffffffffffffffffffffffffffff16021790555033600160006101000a81548173ffffffffffffffffffffffffffffffffffffffff021916908373ffffffffffffffffffffffffffffffffffffffff1602179055505062000246565b60008151905062000143816200022c565b92915050565b6000602082840312156200015c57600080fd5b60006200016c8482850162000132565b91505092915050565b600062000184600583620001be565b9150620001918262000203565b602082019050919050565b60006020820190508181036000830152620001b78162000175565b9050919050565b600082825260208201905092915050565b6000620001dc82620001e3565b9050919050565b600073ffffffffffffffffffffffffffffffffffffffff82169050919050565b7f215a45524f000000000000000000000000000000000000000000000000000000600082015250565b6200023781620001cf565b81146200024357600080fd5b50565b611a9a80620002566000396000f3fe608060405234801561001057600080fd5b50600436106100935760003560e01c8063aa9fd37411610066578063aa9fd37414610159578063c1b8411a14610189578063cca92d9c146101a7578063ec342ad0146101d7578063f940e385146101f557610093565b806346dafa2f14610098578063489d822d146100c857806389bbd670146100f8578063a477b80414610128575b600080fd5b6100b260048036038101906100ad919061143c565b610225565b6040516100bf9190611667565b60405180910390f35b6100e260048036038101906100dd9190611400565b6104e6565b6040516100ef9190611722565b60405180910390f35b610112600480360381019061010d91906113ae565b61050b565b60405161011f9190611722565b60405180910390f35b610142600480360381019061013d91906113ae565b610523565b60405161015092919061173d565b60405180910390f35b610173600480360381019061016e9190611400565b610cc9565b6040516101809190611722565b60405180910390f35b610191610d50565b60405161019e9190611623565b60405180910390f35b6101c160048036038101906101bc9190611400565b610d76565b6040516101ce9190611722565b60405180910390f35b6101df610d9b565b6040516101ec9190611623565b60405180910390f35b61020f600480360381019061020a9190611400565b610dbf565b60405161021c9190611667565b60405180910390f35b600061022f6111f4565b73ffffffffffffffffffffffffffffffffffffffff166398fabd3a6040518163ffffffff1660e01b815260040160206040518083038186803b15801561027457600080fd5b505afa158015610288573d6000803e3d6000fd5b505050506040513d601f19601f820116820180604052508101906102ac91906113d7565b73ffffffffffffffffffffffffffffffffffffffff163373ffffffffffffffffffffffffffffffffffffffff1614806103325750600160009054906101000a900473ffffffffffffffffffffffffffffffffffffffff1673ffffffffffffffffffffffffffffffffffffffff163373ffffffffffffffffffffffffffffffffffffffff16145b610371576040517f08c379a000000000000000000000000000000000000000000000000000000000815260040161036890611682565b60405180910390fd5b82600260008473ffffffffffffffffffffffffffffffffffffffff1673ffffffffffffffffffffffffffffffffffffffff16815260200190815260200160002060008673ffffffffffffffffffffffffffffffffffffffff1673ffffffffffffffffffffffffffffffffffffffff16815260200190815260200160002060008282546103fd91906117c8565b9250508190555082600360008673ffffffffffffffffffffffffffffffffffffffff1673ffffffffffffffffffffffffffffffffffffffff168152602001908152602001600020600082825461045391906117c8565b9250508190555042600460008473ffffffffffffffffffffffffffffffffffffffff1673ffffffffffffffffffffffffffffffffffffffff16815260200190815260200160002060008673ffffffffffffffffffffffffffffffffffffffff1673ffffffffffffffffffffffffffffffffffffffff16815260200190815260200160002081905550600190509392505050565b6004602052816000526040600020602052806000526040600020600091509150505481565b60036020528060005260406000206000915090505481565b60008061052e6111f4565b73ffffffffffffffffffffffffffffffffffffffff166398fabd3a6040518163ffffffff1660e01b815260040160206040518083038186803b15801561057357600080fd5b505afa158015610587573d6000803e3d6000fd5b505050506040513d601f19601f820116820180604052508101906105ab91906113d7565b73ffffffffffffffffffffffffffffffffffffffff163373ffffffffffffffffffffffffffffffffffffffff1614806106315750600160009054906101000a900473ffffffffffffffffffffffffffffffffffffffff1673ffffffffffffffffffffffffffffffffffffffff163373ffffffffffffffffffffffffffffffffffffffff16145b610670576040517f08c379a000000000000000000000000000000000000000000000000000000000815260040161066790611682565b60405180910390fd5b6001151561067c6111f4565b73ffffffffffffffffffffffffffffffffffffffff16639d2cc4366040518163ffffffff1660e01b815260040160206040518083038186803b1580156106c157600080fd5b505afa1580156106d5573d6000803e3d6000fd5b505050506040513d601f19601f820116820180604052508101906106f991906113d7565b73ffffffffffffffffffffffffffffffffffffffff1663194e22ce6040518163ffffffff1660e01b8152600401602060405180830381600087803b15801561074057600080fd5b505af1158015610754573d6000803e3d6000fd5b505050506040513d601f19601f8201168201806040525081019061077891906114cc565b151514156107bb576040517f08c379a00000000000000000000000000000000000000000000000000000000081526004016107b290611702565b60405180910390fd5b60006107c56111f4565b73ffffffffffffffffffffffffffffffffffffffff1663b99b0a0c6040518163ffffffff1660e01b815260040160206040518083038186803b15801561080a57600080fd5b505afa15801561081e573d6000803e3d6000fd5b505050506040513d601f19601f8201168201806040525081019061084291906113d7565b73ffffffffffffffffffffffffffffffffffffffff166351e596e06040518163ffffffff1660e01b815260040160006040518083038186803b15801561088757600080fd5b505afa15801561089b573d6000803e3d6000fd5b505050506040513d6000823e3d601f19601f820116820180604052508101906108c4919061148b565b905060005b8151811015610cc2576108da6111f4565b73ffffffffffffffffffffffffffffffffffffffff16637b0e5c456040518163ffffffff1660e01b815260040160206040518083038186803b15801561091f57600080fd5b505afa158015610933573d6000803e3d6000fd5b505050506040513d601f19601f8201168201806040525081019061095791906113d7565b73ffffffffffffffffffffffffffffffffffffffff1663ca2e5b658383815181106109ab577f4e487b7100000000000000000000000000000000000000000000000000000000600052603260045260246000fd5b6020026020010151600260008973ffffffffffffffffffffffffffffffffffffffff1673ffffffffffffffffffffffffffffffffffffffff1681526020019081526020016000206000868681518110610a2d577f4e487b7100000000000000000000000000000000000000000000000000000000600052603260045260246000fd5b602002602001015173ffffffffffffffffffffffffffffffffffffffff1673ffffffffffffffffffffffffffffffffffffffff168152602001908152602001600020546040518363ffffffff1660e01b8152600401610a8d92919061163e565b60206040518083038186803b158015610aa557600080fd5b505afa158015610ab9573d6000803e3d6000fd5b505050506040513d601f19601f82011682018060405250810190610add919061151e565b9350610ae76111f4565b73ffffffffffffffffffffffffffffffffffffffff16637b0e5c456040518163ffffffff1660e01b815260040160206040518083038186803b158015610b2c57600080fd5b505afa158015610b40573d6000803e3d6000fd5b505050506040513d601f19601f82011682018060405250810190610b6491906113d7565b73ffffffffffffffffffffffffffffffffffffffff1663ca2e5b65838381518110610bb8577f4e487b7100000000000000000000000000000000000000000000000000000000600052603260045260246000fd5b602002602001015160036000868681518110610bfd577f4e487b7100000000000000000000000000000000000000000000000000000000600052603260045260246000fd5b602002602001015173ffffffffffffffffffffffffffffffffffffffff1673ffffffffffffffffffffffffffffffffffffffff168152602001908152602001600020546040518363ffffffff1660e01b8152600401610c5d92919061163e565b60206040518083038186803b158015610c7557600080fd5b505afa158015610c89573d6000803e3d6000fd5b505050506040513d601f19601f82011682018060405250810190610cad919061151e565b92508080610cba906118a9565b9150506108c9565b5050915091565b6000600260008373ffffffffffffffffffffffffffffffffffffffff1673ffffffffffffffffffffffffffffffffffffffff16815260200190815260200160002060008473ffffffffffffffffffffffffffffffffffffffff1673ffffffffffffffffffffffffffffffffffffffff16815260200190815260200160002054905092915050565b600160009054906101000a900473ffffffffffffffffffffffffffffffffffffffff1681565b6002602052816000526040600020602052806000526040600020600091509150505481565b60008054906101000a900473ffffffffffffffffffffffffffffffffffffffff1681565b6000610dc96111f4565b73ffffffffffffffffffffffffffffffffffffffff166398fabd3a6040518163ffffffff1660e01b815260040160206040518083038186803b158015610e0e57600080fd5b505afa158015610e22573d6000803e3d6000fd5b505050506040513d601f19601f82011682018060405250810190610e4691906113d7565b73ffffffffffffffffffffffffffffffffffffffff163373ffffffffffffffffffffffffffffffffffffffff161480610ecc5750600160009054906101000a900473ffffffffffffffffffffffffffffffffffffffff1673ffffffffffffffffffffffffffffffffffffffff163373ffffffffffffffffffffffffffffffffffffffff16145b610f0b576040517f08c379a0000000000000000000000000000000000000000000000000000000008152600401610f0290611682565b60405180910390fd5b62015180600460008473ffffffffffffffffffffffffffffffffffffffff1673ffffffffffffffffffffffffffffffffffffffff16815260200190815260200160002060008573ffffffffffffffffffffffffffffffffffffffff1673ffffffffffffffffffffffffffffffffffffffff16815260200190815260200160002054610f9691906117c8565b4211610fd7576040517f08c379a0000000000000000000000000000000000000000000000000000000008152600401610fce906116c2565b60405180910390fd5b6000600260008473ffffffffffffffffffffffffffffffffffffffff1673ffffffffffffffffffffffffffffffffffffffff16815260200190815260200160002060008573ffffffffffffffffffffffffffffffffffffffff1673ffffffffffffffffffffffffffffffffffffffff1681526020019081526020016000205490506000811161109b576040517f08c379a0000000000000000000000000000000000000000000000000000000008152600401611092906116a2565b60405180910390fd5b6000600260008573ffffffffffffffffffffffffffffffffffffffff1673ffffffffffffffffffffffffffffffffffffffff16815260200190815260200160002060008673ffffffffffffffffffffffffffffffffffffffff1673ffffffffffffffffffffffffffffffffffffffff168152602001908152602001600020819055508373ffffffffffffffffffffffffffffffffffffffff1663a9059cbb84836040518363ffffffff1660e01b815260040161115892919061163e565b602060405180830381600087803b15801561117257600080fd5b505af1158015611186573d6000803e3d6000fd5b505050506040513d601f19601f820116820180604052508101906111aa91906114cc565b6111e9576040517f08c379a00000000000000000000000000000000000000000000000000000000081526004016111e0906116e2565b60405180910390fd5b600191505092915050565b60008060009054906101000a900473ffffffffffffffffffffffffffffffffffffffff1673ffffffffffffffffffffffffffffffffffffffff166398fabd3a6040518163ffffffff1660e01b815260040160206040518083038186803b15801561125d57600080fd5b505afa158015611271573d6000803e3d6000fd5b505050506040513d601f19601f8201168201806040525081019061129591906114f5565b905090565b60006112ad6112a88461178b565b611766565b905080838252602082019050828560208602820111156112cc57600080fd5b60005b858110156112fc57816112e2888261131b565b8452602084019350602083019250506001810190506112cf565b5050509392505050565b60008135905061131581611a08565b92915050565b60008151905061132a81611a08565b92915050565b600082601f83011261134157600080fd5b815161135184826020860161129a565b91505092915050565b60008151905061136981611a1f565b92915050565b60008151905061137e81611a36565b92915050565b60008135905061139381611a4d565b92915050565b6000815190506113a881611a4d565b92915050565b6000602082840312156113c057600080fd5b60006113ce84828501611306565b91505092915050565b6000602082840312156113e957600080fd5b60006113f78482850161131b565b91505092915050565b6000806040838503121561141357600080fd5b600061142185828601611306565b925050602061143285828601611306565b9150509250929050565b60008060006060848603121561145157600080fd5b600061145f86828701611306565b935050602061147086828701611384565b925050604061148186828701611306565b9150509250925092565b60006020828403121561149d57600080fd5b600082015167ffffffffffffffff8111156114b757600080fd5b6114c384828501611330565b91505092915050565b6000602082840312156114de57600080fd5b60006114ec8482850161135a565b91505092915050565b60006020828403121561150757600080fd5b60006115158482850161136f565b91505092915050565b60006020828403121561153057600080fd5b600061153e84828501611399565b91505092915050565b6115508161181e565b82525050565b61155f81611830565b82525050565b60006115726004836117b7565b915061157d82611961565b602082019050919050565b60006115956008836117b7565b91506115a08261198a565b602082019050919050565b60006115b86009836117b7565b91506115c3826119b3565b602082019050919050565b60006115db6009836117b7565b91506115e6826119dc565b602082019050919050565b60006115fe6000836117b7565b915061160982611a05565b600082019050919050565b61161d8161186e565b82525050565b60006020820190506116386000830184611547565b92915050565b60006040820190506116536000830185611547565b6116606020830184611614565b9392505050565b600060208201905061167c6000830184611556565b92915050565b6000602082019050818103600083015261169b81611565565b9050919050565b600060208201905081810360008301526116bb81611588565b9050919050565b600060208201905081810360008301526116db816115ab565b9050919050565b600060208201905081810360008301526116fb816115ce565b9050919050565b6000602082019050818103600083015261171b816115f1565b9050919050565b60006020820190506117376000830184611614565b92915050565b60006040820190506117526000830185611614565b61175f6020830184611614565b9392505050565b6000611770611781565b905061177c8282611878565b919050565b6000604051905090565b600067ffffffffffffffff8211156117a6576117a5611921565b5b602082029050602081019050919050565b600082825260208201905092915050565b60006117d38261186e565b91506117de8361186e565b9250827fffffffffffffffffffffffffffffffffffffffffffffffffffffffffffffffff03821115611813576118126118f2565b5b828201905092915050565b60006118298261184e565b9050919050565b60008115159050919050565b60006118478261181e565b9050919050565b600073ffffffffffffffffffffffffffffffffffffffff82169050919050565b6000819050919050565b61188182611950565b810181811067ffffffffffffffff821117156118a05761189f611921565b5b80604052505050565b60006118b48261186e565b91507fffffffffffffffffffffffffffffffffffffffffffffffffffffffffffffffff8214156118e7576118e66118f2565b5b600182019050919050565b7f4e487b7100000000000000000000000000000000000000000000000000000000600052601160045260246000fd5b7f4e487b7100000000000000000000000000000000000000000000000000000000600052604160045260246000fd5b6000601f19601f8301169050919050565b7f2144414f00000000000000000000000000000000000000000000000000000000600082015250565b7f2162616c616e6365000000000000000000000000000000000000000000000000600082015250565b7f21756e6c6f636b65640000000000000000000000000000000000000000000000600082015250565b7f217472616e736665720000000000000000000000000000000000000000000000600082015250565b50565b611a118161181e565b8114611a1c57600080fd5b50565b611a2881611830565b8114611a3357600080fd5b50565b611a3f8161183c565b8114611a4a57600080fd5b50565b611a568161186e565b8114611a6157600080fd5b5056fea2646970667358221220f4ff08ea70042473758a4352a34f9dc07a17e8f827f854477cf7a3018aecee7064736f6c63430008030033",
  "linkReferences": {},
  "deployedLinkReferences": {}
}