{
  "_format": "hh-sol-artifact-1",
  "contractName": "DaoVault",
  "sourceName": "contracts/DaoVault.sol",
  "abi": [
    {
      "inputs": [
        {
          "internalType": "address",
          "name": "_base",
          "type": "address"
        }
      ],
      "stateMutability": "nonpayable",
      "type": "constructor"
    },
    {
      "inputs": [],
      "name": "BASE",
      "outputs": [
        {
          "internalType": "address",
          "name": "",
          "type": "address"
        }
      ],
      "stateMutability": "view",
      "type": "function"
    },
    {
      "inputs": [],
      "name": "DEPLOYER",
      "outputs": [
        {
          "internalType": "address",
          "name": "",
          "type": "address"
        }
      ],
      "stateMutability": "view",
      "type": "function"
    },
    {
      "inputs": [
        {
          "internalType": "address",
          "name": "pool",
          "type": "address"
        },
        {
          "internalType": "uint256",
          "name": "amount",
          "type": "uint256"
        },
        {
          "internalType": "address",
          "name": "member",
          "type": "address"
        }
      ],
      "name": "depositLP",
      "outputs": [
        {
          "internalType": "bool",
          "name": "",
          "type": "bool"
        }
      ],
      "stateMutability": "nonpayable",
      "type": "function"
    },
    {
      "inputs": [
        {
          "internalType": "address",
          "name": "pool",
          "type": "address"
        },
        {
          "internalType": "address",
          "name": "member",
          "type": "address"
        }
      ],
      "name": "getMemberPoolBalance",
      "outputs": [
        {
          "internalType": "uint256",
          "name": "",
          "type": "uint256"
        }
      ],
      "stateMutability": "view",
      "type": "function"
    },
    {
      "inputs": [
        {
          "internalType": "address",
          "name": "pool",
          "type": "address"
        },
        {
          "internalType": "address",
          "name": "member",
          "type": "address"
        }
      ],
      "name": "getMemberPoolWeight",
      "outputs": [
        {
          "internalType": "uint256",
          "name": "",
          "type": "uint256"
        }
      ],
      "stateMutability": "view",
      "type": "function"
    },
    {
      "inputs": [
        {
          "internalType": "address",
          "name": "member",
          "type": "address"
        }
      ],
      "name": "getMemberWeight",
      "outputs": [
        {
          "internalType": "uint256",
          "name": "",
          "type": "uint256"
        }
      ],
      "stateMutability": "view",
      "type": "function"
    },
    {
      "inputs": [],
      "name": "totalWeight",
      "outputs": [
        {
          "internalType": "uint256",
          "name": "",
          "type": "uint256"
        }
      ],
      "stateMutability": "view",
      "type": "function"
    },
    {
      "inputs": [
        {
          "internalType": "address",
          "name": "pool",
          "type": "address"
        },
        {
          "internalType": "address",
          "name": "member",
          "type": "address"
        }
      ],
      "name": "withdraw",
      "outputs": [
        {
          "internalType": "bool",
          "name": "",
          "type": "bool"
        }
      ],
      "stateMutability": "nonpayable",
      "type": "function"
    }
  ],
  "bytecode": "0x60806040523480156200001157600080fd5b50604051620017a1380380620017a18339818101604052810190620000379190620000d6565b806000806101000a81548173ffffffffffffffffffffffffffffffffffffffff021916908373ffffffffffffffffffffffffffffffffffffffff16021790555033600160006101000a81548173ffffffffffffffffffffffffffffffffffffffff021916908373ffffffffffffffffffffffffffffffffffffffff1602179055505062000150565b600081519050620000d08162000136565b92915050565b600060208284031215620000e957600080fd5b6000620000f984828501620000bf565b91505092915050565b60006200010f8262000116565b9050919050565b600073ffffffffffffffffffffffffffffffffffffffff82169050919050565b620001418162000102565b81146200014d57600080fd5b50565b61164180620001606000396000f3fe608060405234801561001057600080fd5b50600436106100885760003560e01c8063aa9fd3741161005b578063aa9fd3741461013b578063c1b8411a1461016b578063ec342ad014610189578063f940e385146101a757610088565b806346dafa2f1461008d5780635364df49146100bd5780637e31447c146100ed57806396c82e571461011d575b600080fd5b6100a760048036038101906100a291906111d6565b6101d7565b6040516100b4919061137a565b60405180910390f35b6100d760048036038101906100d29190611148565b6103cc565b6040516100e491906113f5565b60405180910390f35b6101076004803603810190610102919061119a565b610466565b60405161011491906113f5565b60405180910390f35b6101256104ed565b60405161013291906113f5565b60405180910390f35b6101556004803603810190610150919061119a565b6104f3565b60405161016291906113f5565b60405180910390f35b61017361057a565b6040516101809190611336565b60405180910390f35b6101916105a0565b60405161019e9190611336565b60405180910390f35b6101c160048036038101906101bc919061119a565b6105c4565b6040516101ce919061137a565b60405180910390f35b60006101e16108b5565b73ffffffffffffffffffffffffffffffffffffffff166398fabd3a6040518163ffffffff1660e01b815260040160206040518083038186803b15801561022657600080fd5b505afa15801561023a573d6000803e3d6000fd5b505050506040513d601f19601f8201168201806040525081019061025e9190611171565b73ffffffffffffffffffffffffffffffffffffffff163373ffffffffffffffffffffffffffffffffffffffff1614806102e45750600160009054906101000a900473ffffffffffffffffffffffffffffffffffffffff1673ffffffffffffffffffffffffffffffffffffffff163373ffffffffffffffffffffffffffffffffffffffff16145b610323576040517f08c379a000000000000000000000000000000000000000000000000000000000815260040161031a90611395565b60405180910390fd5b82600360008473ffffffffffffffffffffffffffffffffffffffff1673ffffffffffffffffffffffffffffffffffffffff16815260200190815260200160002060008673ffffffffffffffffffffffffffffffffffffffff1673ffffffffffffffffffffffffffffffffffffffff16815260200190815260200160002060008282546103af9190611421565b925050819055506103c0848361095b565b50600190509392505050565b600080600460008473ffffffffffffffffffffffffffffffffffffffff1673ffffffffffffffffffffffffffffffffffffffff16815260200190815260200160002054111561045c57600460008373ffffffffffffffffffffffffffffffffffffffff1673ffffffffffffffffffffffffffffffffffffffff168152602001908152602001600020549050610461565b600090505b919050565b6000600560008373ffffffffffffffffffffffffffffffffffffffff1673ffffffffffffffffffffffffffffffffffffffff16815260200190815260200160002060008473ffffffffffffffffffffffffffffffffffffffff1673ffffffffffffffffffffffffffffffffffffffff16815260200190815260200160002054905092915050565b60025481565b6000600360008373ffffffffffffffffffffffffffffffffffffffff1673ffffffffffffffffffffffffffffffffffffffff16815260200190815260200160002060008473ffffffffffffffffffffffffffffffffffffffff1673ffffffffffffffffffffffffffffffffffffffff16815260200190815260200160002054905092915050565b600160009054906101000a900473ffffffffffffffffffffffffffffffffffffffff1681565b60008054906101000a900473ffffffffffffffffffffffffffffffffffffffff1681565b60006105ce6108b5565b73ffffffffffffffffffffffffffffffffffffffff166398fabd3a6040518163ffffffff1660e01b815260040160206040518083038186803b15801561061357600080fd5b505afa158015610627573d6000803e3d6000fd5b505050506040513d601f19601f8201168201806040525081019061064b9190611171565b73ffffffffffffffffffffffffffffffffffffffff163373ffffffffffffffffffffffffffffffffffffffff1614806106d15750600160009054906101000a900473ffffffffffffffffffffffffffffffffffffffff1673ffffffffffffffffffffffffffffffffffffffff163373ffffffffffffffffffffffffffffffffffffffff16145b610710576040517f08c379a000000000000000000000000000000000000000000000000000000000815260040161070790611395565b60405180910390fd5b6000600360008473ffffffffffffffffffffffffffffffffffffffff1673ffffffffffffffffffffffffffffffffffffffff16815260200190815260200160002060008573ffffffffffffffffffffffffffffffffffffffff1673ffffffffffffffffffffffffffffffffffffffff168152602001908152602001600020549050600081116107d4576040517f08c379a00000000000000000000000000000000000000000000000000000000081526004016107cb906113b5565b60405180910390fd5b6107de8484610ed1565b8373ffffffffffffffffffffffffffffffffffffffff1663a9059cbb84836040518363ffffffff1660e01b8152600401610819929190611351565b602060405180830381600087803b15801561083357600080fd5b505af1158015610847573d6000803e3d6000fd5b505050506040513d601f19601f8201168201806040525081019061086b9190611225565b6108aa576040517f08c379a00000000000000000000000000000000000000000000000000000000081526004016108a1906113d5565b60405180910390fd5b600191505092915050565b60008060009054906101000a900473ffffffffffffffffffffffffffffffffffffffff1673ffffffffffffffffffffffffffffffffffffffff166398fabd3a6040518163ffffffff1660e01b815260040160206040518083038186803b15801561091e57600080fd5b505afa158015610932573d6000803e3d6000fd5b505050506040513d601f19601f82011682018060405250810190610956919061124e565b905090565b600080600560008473ffffffffffffffffffffffffffffffffffffffff1673ffffffffffffffffffffffffffffffffffffffff16815260200190815260200160002060008573ffffffffffffffffffffffffffffffffffffffff1673ffffffffffffffffffffffffffffffffffffffff168152602001908152602001600020541115610bcb57600560008373ffffffffffffffffffffffffffffffffffffffff1673ffffffffffffffffffffffffffffffffffffffff16815260200190815260200160002060008473ffffffffffffffffffffffffffffffffffffffff1673ffffffffffffffffffffffffffffffffffffffff1681526020019081526020016000205460026000828254610a6f9190611477565b92505081905550600560008373ffffffffffffffffffffffffffffffffffffffff1673ffffffffffffffffffffffffffffffffffffffff16815260200190815260200160002060008473ffffffffffffffffffffffffffffffffffffffff1673ffffffffffffffffffffffffffffffffffffffff16815260200190815260200160002054600460008473ffffffffffffffffffffffffffffffffffffffff1673ffffffffffffffffffffffffffffffffffffffff1681526020019081526020016000206000828254610b419190611477565b925050819055506000600560008473ffffffffffffffffffffffffffffffffffffffff1673ffffffffffffffffffffffffffffffffffffffff16815260200190815260200160002060008573ffffffffffffffffffffffffffffffffffffffff1673ffffffffffffffffffffffffffffffffffffffff168152602001908152602001600020819055505b6000610bd56108b5565b73ffffffffffffffffffffffffffffffffffffffff16637b0e5c456040518163ffffffff1660e01b815260040160206040518083038186803b158015610c1a57600080fd5b505afa158015610c2e573d6000803e3d6000fd5b505050506040513d601f19601f82011682018060405250810190610c529190611171565b73ffffffffffffffffffffffffffffffffffffffff1663ca2e5b658573ffffffffffffffffffffffffffffffffffffffff166382bfefc86040518163ffffffff1660e01b815260040160206040518083038186803b158015610cb357600080fd5b505afa158015610cc7573d6000803e3d6000fd5b505050506040513d601f19601f82011682018060405250810190610ceb9190611171565b600360008773ffffffffffffffffffffffffffffffffffffffff1673ffffffffffffffffffffffffffffffffffffffff16815260200190815260200160002060008873ffffffffffffffffffffffffffffffffffffffff1673ffffffffffffffffffffffffffffffffffffffff168152602001908152602001600020546040518363ffffffff1660e01b8152600401610d85929190611351565b60206040518083038186803b158015610d9d57600080fd5b505afa158015610db1573d6000803e3d6000fd5b505050506040513d601f19601f82011682018060405250810190610dd59190611277565b905080600560008573ffffffffffffffffffffffffffffffffffffffff1673ffffffffffffffffffffffffffffffffffffffff16815260200190815260200160002060008673ffffffffffffffffffffffffffffffffffffffff1673ffffffffffffffffffffffffffffffffffffffff1681526020019081526020016000208190555080600460008573ffffffffffffffffffffffffffffffffffffffff1673ffffffffffffffffffffffffffffffffffffffff1681526020019081526020016000206000828254610ea79190611421565b925050819055508060026000828254610ec09190611421565b925050819055508091505092915050565b6000600560008373ffffffffffffffffffffffffffffffffffffffff1673ffffffffffffffffffffffffffffffffffffffff16815260200190815260200160002060008473ffffffffffffffffffffffffffffffffffffffff1673ffffffffffffffffffffffffffffffffffffffff1681526020019081526020016000205490506000600360008473ffffffffffffffffffffffffffffffffffffffff1673ffffffffffffffffffffffffffffffffffffffff16815260200190815260200160002060008573ffffffffffffffffffffffffffffffffffffffff1673ffffffffffffffffffffffffffffffffffffffff168152602001908152602001600020819055506000600560008473ffffffffffffffffffffffffffffffffffffffff1673ffffffffffffffffffffffffffffffffffffffff16815260200190815260200160002060008573ffffffffffffffffffffffffffffffffffffffff1673ffffffffffffffffffffffffffffffffffffffff1681526020019081526020016000208190555080600260008282546110689190611477565b9250508190555080600460008473ffffffffffffffffffffffffffffffffffffffff1673ffffffffffffffffffffffffffffffffffffffff16815260200190815260200160002060008282546110be9190611477565b92505081905550505050565b6000813590506110d9816115af565b92915050565b6000815190506110ee816115af565b92915050565b600081519050611103816115c6565b92915050565b600081519050611118816115dd565b92915050565b60008135905061112d816115f4565b92915050565b600081519050611142816115f4565b92915050565b60006020828403121561115a57600080fd5b6000611168848285016110ca565b91505092915050565b60006020828403121561118357600080fd5b6000611191848285016110df565b91505092915050565b600080604083850312156111ad57600080fd5b60006111bb858286016110ca565b92505060206111cc858286016110ca565b9150509250929050565b6000806000606084860312156111eb57600080fd5b60006111f9868287016110ca565b935050602061120a8682870161111e565b925050604061121b868287016110ca565b9150509250925092565b60006020828403121561123757600080fd5b6000611245848285016110f4565b91505092915050565b60006020828403121561126057600080fd5b600061126e84828501611109565b91505092915050565b60006020828403121561128957600080fd5b600061129784828501611133565b91505092915050565b6112a9816114ab565b82525050565b6112b8816114bd565b82525050565b60006112cb600483611410565b91506112d682611534565b602082019050919050565b60006112ee600883611410565b91506112f98261155d565b602082019050919050565b6000611311600983611410565b915061131c82611586565b602082019050919050565b611330816114fb565b82525050565b600060208201905061134b60008301846112a0565b92915050565b600060408201905061136660008301856112a0565b6113736020830184611327565b9392505050565b600060208201905061138f60008301846112af565b92915050565b600060208201905081810360008301526113ae816112be565b9050919050565b600060208201905081810360008301526113ce816112e1565b9050919050565b600060208201905081810360008301526113ee81611304565b9050919050565b600060208201905061140a6000830184611327565b92915050565b600082825260208201905092915050565b600061142c826114fb565b9150611437836114fb565b9250827fffffffffffffffffffffffffffffffffffffffffffffffffffffffffffffffff0382111561146c5761146b611505565b5b828201905092915050565b6000611482826114fb565b915061148d836114fb565b9250828210156114a05761149f611505565b5b828203905092915050565b60006114b6826114db565b9050919050565b60008115159050919050565b60006114d4826114ab565b9050919050565b600073ffffffffffffffffffffffffffffffffffffffff82169050919050565b6000819050919050565b7f4e487b7100000000000000000000000000000000000000000000000000000000600052601160045260246000fd5b7f2144414f00000000000000000000000000000000000000000000000000000000600082015250565b7f2162616c616e6365000000000000000000000000000000000000000000000000600082015250565b7f217472616e736665720000000000000000000000000000000000000000000000600082015250565b6115b8816114ab565b81146115c357600080fd5b50565b6115cf816114bd565b81146115da57600080fd5b50565b6115e6816114c9565b81146115f157600080fd5b50565b6115fd816114fb565b811461160857600080fd5b5056fea26469706673582212207aa3afaef41028e972cc8a2c52981fae255974b89b31e581e8cb18a64837b48f64736f6c63430008030033",
  "linkReferences": {},
  "deployedLinkReferences": {}
}