{
  "_format": "hh-sol-artifact-1",
  "contractName": "DaoVault",
  "sourceName": "contracts/DaoVault.sol",
  "abi": [
    {
      "inputs": [
        {
          "internalType": "address",
          "name": "_base",
          "type": "address"
        }
      ],
      "stateMutability": "nonpayable",
      "type": "constructor"
    },
    {
      "inputs": [],
      "name": "BASE",
      "outputs": [
        {
          "internalType": "address",
          "name": "",
          "type": "address"
        }
      ],
      "stateMutability": "view",
      "type": "function"
    },
    {
      "inputs": [],
      "name": "DEPLOYER",
      "outputs": [
        {
          "internalType": "address",
          "name": "",
          "type": "address"
        }
      ],
      "stateMutability": "view",
      "type": "function"
    },
    {
      "inputs": [
        {
          "internalType": "address",
          "name": "pool",
          "type": "address"
        },
        {
          "internalType": "uint256",
          "name": "amount",
          "type": "uint256"
        },
        {
          "internalType": "address",
          "name": "member",
          "type": "address"
        }
      ],
      "name": "depositLP",
      "outputs": [
        {
          "internalType": "bool",
          "name": "",
          "type": "bool"
        }
      ],
      "stateMutability": "nonpayable",
      "type": "function"
    },
    {
      "inputs": [
        {
          "internalType": "address",
          "name": "pool",
          "type": "address"
        },
        {
          "internalType": "address",
          "name": "member",
          "type": "address"
        }
      ],
      "name": "getMemberPoolBalance",
      "outputs": [
        {
          "internalType": "uint256",
          "name": "",
          "type": "uint256"
        }
      ],
      "stateMutability": "view",
      "type": "function"
    },
    {
      "inputs": [
        {
          "internalType": "address",
          "name": "pool",
          "type": "address"
        },
        {
          "internalType": "address",
          "name": "member",
          "type": "address"
        }
      ],
      "name": "getMemberPoolWeight",
      "outputs": [
        {
          "internalType": "uint256",
          "name": "",
          "type": "uint256"
        }
      ],
      "stateMutability": "view",
      "type": "function"
    },
    {
      "inputs": [
        {
          "internalType": "address",
          "name": "member",
          "type": "address"
        }
      ],
      "name": "getMemberWeight",
      "outputs": [
        {
          "internalType": "uint256",
          "name": "",
          "type": "uint256"
        }
      ],
      "stateMutability": "view",
      "type": "function"
    },
    {
      "inputs": [],
      "name": "totalWeight",
      "outputs": [
        {
          "internalType": "uint256",
          "name": "",
          "type": "uint256"
        }
      ],
      "stateMutability": "view",
      "type": "function"
    },
    {
      "inputs": [
        {
          "internalType": "address",
          "name": "pool",
          "type": "address"
        },
        {
          "internalType": "address",
          "name": "member",
          "type": "address"
        }
      ],
      "name": "withdraw",
      "outputs": [
        {
          "internalType": "bool",
          "name": "",
          "type": "bool"
        }
      ],
      "stateMutability": "nonpayable",
      "type": "function"
    }
  ],
  "bytecode": "0x60806040523480156200001157600080fd5b5060405162001912380380620019128339818101604052810190620000379190620000d6565b806000806101000a81548173ffffffffffffffffffffffffffffffffffffffff021916908373ffffffffffffffffffffffffffffffffffffffff16021790555033600160006101000a81548173ffffffffffffffffffffffffffffffffffffffff021916908373ffffffffffffffffffffffffffffffffffffffff1602179055505062000150565b600081519050620000d08162000136565b92915050565b600060208284031215620000e957600080fd5b6000620000f984828501620000bf565b91505092915050565b60006200010f8262000116565b9050919050565b600073ffffffffffffffffffffffffffffffffffffffff82169050919050565b620001418162000102565b81146200014d57600080fd5b50565b6117b280620001606000396000f3fe608060405234801561001057600080fd5b50600436106100885760003560e01c8063aa9fd3741161005b578063aa9fd3741461013b578063c1b8411a1461016b578063ec342ad014610189578063f940e385146101a757610088565b806346dafa2f1461008d5780635364df49146100bd5780637e31447c146100ed57806396c82e571461011d575b600080fd5b6100a760048036038101906100a291906112a4565b6101d7565b6040516100b491906114a2565b60405180910390f35b6100d760048036038101906100d29190611216565b61049a565b6040516100e4919061153d565b60405180910390f35b61010760048036038101906101029190611268565b610534565b604051610114919061153d565b60405180910390f35b6101256105bb565b604051610132919061153d565b60405180910390f35b61015560048036038101906101509190611268565b6105c1565b604051610162919061153d565b60405180910390f35b610173610648565b6040516101809190611427565b60405180910390f35b61019161066e565b60405161019e9190611427565b60405180910390f35b6101c160048036038101906101bc9190611268565b610692565b6040516101ce91906114a2565b60405180910390f35b60006101e1610983565b73ffffffffffffffffffffffffffffffffffffffff166398fabd3a6040518163ffffffff1660e01b815260040160206040518083038186803b15801561022657600080fd5b505afa15801561023a573d6000803e3d6000fd5b505050506040513d601f19601f8201168201806040525081019061025e919061123f565b73ffffffffffffffffffffffffffffffffffffffff163373ffffffffffffffffffffffffffffffffffffffff1614806102e45750600160009054906101000a900473ffffffffffffffffffffffffffffffffffffffff1673ffffffffffffffffffffffffffffffffffffffff163373ffffffffffffffffffffffffffffffffffffffff16145b610323576040517f08c379a000000000000000000000000000000000000000000000000000000000815260040161031a906114fd565b60405180910390fd5b8373ffffffffffffffffffffffffffffffffffffffff166323b872dd8330866040518463ffffffff1660e01b815260040161036093929190611442565b602060405180830381600087803b15801561037a57600080fd5b505af115801561038e573d6000803e3d6000fd5b505050506040513d601f19601f820116820180604052508101906103b291906112f3565b6103f1576040517f08c379a00000000000000000000000000000000000000000000000000000000081526004016103e8906114dd565b60405180910390fd5b82600360008473ffffffffffffffffffffffffffffffffffffffff1673ffffffffffffffffffffffffffffffffffffffff16815260200190815260200160002060008673ffffffffffffffffffffffffffffffffffffffff1673ffffffffffffffffffffffffffffffffffffffff168152602001908152602001600020600082825461047d9190611569565b9250508190555061048e8483610a29565b50600190509392505050565b600080600460008473ffffffffffffffffffffffffffffffffffffffff1673ffffffffffffffffffffffffffffffffffffffff16815260200190815260200160002054111561052a57600460008373ffffffffffffffffffffffffffffffffffffffff1673ffffffffffffffffffffffffffffffffffffffff16815260200190815260200160002054905061052f565b600090505b919050565b6000600560008373ffffffffffffffffffffffffffffffffffffffff1673ffffffffffffffffffffffffffffffffffffffff16815260200190815260200160002060008473ffffffffffffffffffffffffffffffffffffffff1673ffffffffffffffffffffffffffffffffffffffff16815260200190815260200160002054905092915050565b60025481565b6000600360008373ffffffffffffffffffffffffffffffffffffffff1673ffffffffffffffffffffffffffffffffffffffff16815260200190815260200160002060008473ffffffffffffffffffffffffffffffffffffffff1673ffffffffffffffffffffffffffffffffffffffff16815260200190815260200160002054905092915050565b600160009054906101000a900473ffffffffffffffffffffffffffffffffffffffff1681565b60008054906101000a900473ffffffffffffffffffffffffffffffffffffffff1681565b600061069c610983565b73ffffffffffffffffffffffffffffffffffffffff166398fabd3a6040518163ffffffff1660e01b815260040160206040518083038186803b1580156106e157600080fd5b505afa1580156106f5573d6000803e3d6000fd5b505050506040513d601f19601f82011682018060405250810190610719919061123f565b73ffffffffffffffffffffffffffffffffffffffff163373ffffffffffffffffffffffffffffffffffffffff16148061079f5750600160009054906101000a900473ffffffffffffffffffffffffffffffffffffffff1673ffffffffffffffffffffffffffffffffffffffff163373ffffffffffffffffffffffffffffffffffffffff16145b6107de576040517f08c379a00000000000000000000000000000000000000000000000000000000081526004016107d5906114fd565b60405180910390fd5b6000600360008473ffffffffffffffffffffffffffffffffffffffff1673ffffffffffffffffffffffffffffffffffffffff16815260200190815260200160002060008573ffffffffffffffffffffffffffffffffffffffff1673ffffffffffffffffffffffffffffffffffffffff168152602001908152602001600020549050600081116108a2576040517f08c379a0000000000000000000000000000000000000000000000000000000008152600401610899906114bd565b60405180910390fd5b6108ac8484610f9f565b8373ffffffffffffffffffffffffffffffffffffffff1663a9059cbb84836040518363ffffffff1660e01b81526004016108e7929190611479565b602060405180830381600087803b15801561090157600080fd5b505af1158015610915573d6000803e3d6000fd5b505050506040513d601f19601f8201168201806040525081019061093991906112f3565b610978576040517f08c379a000000000000000000000000000000000000000000000000000000000815260040161096f9061151d565b60405180910390fd5b600191505092915050565b60008060009054906101000a900473ffffffffffffffffffffffffffffffffffffffff1673ffffffffffffffffffffffffffffffffffffffff166398fabd3a6040518163ffffffff1660e01b815260040160206040518083038186803b1580156109ec57600080fd5b505afa158015610a00573d6000803e3d6000fd5b505050506040513d601f19601f82011682018060405250810190610a24919061131c565b905090565b600080600560008473ffffffffffffffffffffffffffffffffffffffff1673ffffffffffffffffffffffffffffffffffffffff16815260200190815260200160002060008573ffffffffffffffffffffffffffffffffffffffff1673ffffffffffffffffffffffffffffffffffffffff168152602001908152602001600020541115610c9957600560008373ffffffffffffffffffffffffffffffffffffffff1673ffffffffffffffffffffffffffffffffffffffff16815260200190815260200160002060008473ffffffffffffffffffffffffffffffffffffffff1673ffffffffffffffffffffffffffffffffffffffff1681526020019081526020016000205460026000828254610b3d91906115bf565b92505081905550600560008373ffffffffffffffffffffffffffffffffffffffff1673ffffffffffffffffffffffffffffffffffffffff16815260200190815260200160002060008473ffffffffffffffffffffffffffffffffffffffff1673ffffffffffffffffffffffffffffffffffffffff16815260200190815260200160002054600460008473ffffffffffffffffffffffffffffffffffffffff1673ffffffffffffffffffffffffffffffffffffffff1681526020019081526020016000206000828254610c0f91906115bf565b925050819055506000600560008473ffffffffffffffffffffffffffffffffffffffff1673ffffffffffffffffffffffffffffffffffffffff16815260200190815260200160002060008573ffffffffffffffffffffffffffffffffffffffff1673ffffffffffffffffffffffffffffffffffffffff168152602001908152602001600020819055505b6000610ca3610983565b73ffffffffffffffffffffffffffffffffffffffff16637b0e5c456040518163ffffffff1660e01b815260040160206040518083038186803b158015610ce857600080fd5b505afa158015610cfc573d6000803e3d6000fd5b505050506040513d601f19601f82011682018060405250810190610d20919061123f565b73ffffffffffffffffffffffffffffffffffffffff1663ca2e5b658573ffffffffffffffffffffffffffffffffffffffff166382bfefc86040518163ffffffff1660e01b815260040160206040518083038186803b158015610d8157600080fd5b505afa158015610d95573d6000803e3d6000fd5b505050506040513d601f19601f82011682018060405250810190610db9919061123f565b600360008773ffffffffffffffffffffffffffffffffffffffff1673ffffffffffffffffffffffffffffffffffffffff16815260200190815260200160002060008873ffffffffffffffffffffffffffffffffffffffff1673ffffffffffffffffffffffffffffffffffffffff168152602001908152602001600020546040518363ffffffff1660e01b8152600401610e53929190611479565b60206040518083038186803b158015610e6b57600080fd5b505afa158015610e7f573d6000803e3d6000fd5b505050506040513d601f19601f82011682018060405250810190610ea39190611345565b905080600560008573ffffffffffffffffffffffffffffffffffffffff1673ffffffffffffffffffffffffffffffffffffffff16815260200190815260200160002060008673ffffffffffffffffffffffffffffffffffffffff1673ffffffffffffffffffffffffffffffffffffffff1681526020019081526020016000208190555080600460008573ffffffffffffffffffffffffffffffffffffffff1673ffffffffffffffffffffffffffffffffffffffff1681526020019081526020016000206000828254610f759190611569565b925050819055508060026000828254610f8e9190611569565b925050819055508091505092915050565b6000600560008373ffffffffffffffffffffffffffffffffffffffff1673ffffffffffffffffffffffffffffffffffffffff16815260200190815260200160002060008473ffffffffffffffffffffffffffffffffffffffff1673ffffffffffffffffffffffffffffffffffffffff1681526020019081526020016000205490506000600360008473ffffffffffffffffffffffffffffffffffffffff1673ffffffffffffffffffffffffffffffffffffffff16815260200190815260200160002060008573ffffffffffffffffffffffffffffffffffffffff1673ffffffffffffffffffffffffffffffffffffffff168152602001908152602001600020819055506000600560008473ffffffffffffffffffffffffffffffffffffffff1673ffffffffffffffffffffffffffffffffffffffff16815260200190815260200160002060008573ffffffffffffffffffffffffffffffffffffffff1673ffffffffffffffffffffffffffffffffffffffff16815260200190815260200160002081905550806002600082825461113691906115bf565b9250508190555080600460008473ffffffffffffffffffffffffffffffffffffffff1673ffffffffffffffffffffffffffffffffffffffff168152602001908152602001600020600082825461118c91906115bf565b92505081905550505050565b6000813590506111a781611720565b92915050565b6000815190506111bc81611720565b92915050565b6000815190506111d181611737565b92915050565b6000815190506111e68161174e565b92915050565b6000813590506111fb81611765565b92915050565b60008151905061121081611765565b92915050565b60006020828403121561122857600080fd5b600061123684828501611198565b91505092915050565b60006020828403121561125157600080fd5b600061125f848285016111ad565b91505092915050565b6000806040838503121561127b57600080fd5b600061128985828601611198565b925050602061129a85828601611198565b9150509250929050565b6000806000606084860312156112b957600080fd5b60006112c786828701611198565b93505060206112d8868287016111ec565b92505060406112e986828701611198565b9150509250925092565b60006020828403121561130557600080fd5b6000611313848285016111c2565b91505092915050565b60006020828403121561132e57600080fd5b600061133c848285016111d7565b91505092915050565b60006020828403121561135757600080fd5b600061136584828501611201565b91505092915050565b611377816115f3565b82525050565b61138681611605565b82525050565b6000611399600883611558565b91506113a48261167c565b602082019050919050565b60006113bc600783611558565b91506113c7826116a5565b602082019050919050565b60006113df600b83611558565b91506113ea826116ce565b602082019050919050565b6000611402600d83611558565b915061140d826116f7565b602082019050919050565b61142181611643565b82525050565b600060208201905061143c600083018461136e565b92915050565b6000606082019050611457600083018661136e565b611464602083018561136e565b6114716040830184611418565b949350505050565b600060408201905061148e600083018561136e565b61149b6020830184611418565b9392505050565b60006020820190506114b7600083018461137d565b92915050565b600060208201905081810360008301526114d68161138c565b9050919050565b600060208201905081810360008301526114f6816113af565b9050919050565b60006020820190508181036000830152611516816113d2565b9050919050565b60006020820190508181036000830152611536816113f5565b9050919050565b60006020820190506115526000830184611418565b92915050565b600082825260208201905092915050565b600061157482611643565b915061157f83611643565b9250827fffffffffffffffffffffffffffffffffffffffffffffffffffffffffffffffff038211156115b4576115b361164d565b5b828201905092915050565b60006115ca82611643565b91506115d583611643565b9250828210156115e8576115e761164d565b5b828203905092915050565b60006115fe82611623565b9050919050565b60008115159050919050565b600061161c826115f3565b9050919050565b600073ffffffffffffffffffffffffffffffffffffffff82169050919050565b6000819050919050565b7f4e487b7100000000000000000000000000000000000000000000000000000000600052601160045260246000fd5b7f2162616c616e6365000000000000000000000000000000000000000000000000600082015250565b7f73656e646c707300000000000000000000000000000000000000000000000000600082015250565b7f4d7573742062652044414f000000000000000000000000000000000000000000600082015250565b7f4d757374207472616e7366657200000000000000000000000000000000000000600082015250565b611729816115f3565b811461173457600080fd5b50565b61174081611605565b811461174b57600080fd5b50565b61175781611611565b811461176257600080fd5b50565b61176e81611643565b811461177957600080fd5b5056fea26469706673582212205499d64714499c4dae9f5bce6a8a003258facac96adee7cb17a8603b18d395fc64736f6c63430008030033",
  "linkReferences": {},
  "deployedLinkReferences": {}
}