{
  "_format": "hh-sol-artifact-1",
  "contractName": "Pool",
  "sourceName": "contracts/Pool.sol",
  "abi": [
    {
      "inputs": [
        {
          "internalType": "address",
          "name": "_base",
          "type": "address"
        },
        {
          "internalType": "address",
          "name": "_token",
          "type": "address"
        }
      ],
      "stateMutability": "nonpayable",
      "type": "constructor"
    },
    {
      "anonymous": false,
      "inputs": [
        {
          "indexed": true,
          "internalType": "address",
          "name": "member",
          "type": "address"
        },
        {
          "indexed": false,
          "internalType": "uint256",
          "name": "inputBase",
          "type": "uint256"
        },
        {
          "indexed": false,
          "internalType": "uint256",
          "name": "inputToken",
          "type": "uint256"
        },
        {
          "indexed": false,
          "internalType": "uint256",
          "name": "unitsIssued",
          "type": "uint256"
        }
      ],
      "name": "AddLiquidity",
      "type": "event"
    },
    {
      "anonymous": false,
      "inputs": [
        {
          "indexed": true,
          "internalType": "address",
          "name": "owner",
          "type": "address"
        },
        {
          "indexed": true,
          "internalType": "address",
          "name": "spender",
          "type": "address"
        },
        {
          "indexed": false,
          "internalType": "uint256",
          "name": "value",
          "type": "uint256"
        }
      ],
      "name": "Approval",
      "type": "event"
    },
    {
      "anonymous": false,
      "inputs": [
        {
          "indexed": true,
          "internalType": "address",
          "name": "member",
          "type": "address"
        },
        {
          "indexed": false,
          "internalType": "uint256",
          "name": "outputBase",
          "type": "uint256"
        },
        {
          "indexed": false,
          "internalType": "uint256",
          "name": "outputToken",
          "type": "uint256"
        },
        {
          "indexed": false,
          "internalType": "uint256",
          "name": "unitsClaimed",
          "type": "uint256"
        }
      ],
      "name": "RemoveLiquidity",
      "type": "event"
    },
    {
      "anonymous": false,
      "inputs": [
        {
          "indexed": true,
          "internalType": "address",
          "name": "tokenFrom",
          "type": "address"
        },
        {
          "indexed": true,
          "internalType": "address",
          "name": "tokenTo",
          "type": "address"
        },
        {
          "indexed": true,
          "internalType": "address",
          "name": "recipient",
          "type": "address"
        },
        {
          "indexed": false,
          "internalType": "uint256",
          "name": "inputAmount",
          "type": "uint256"
        },
        {
          "indexed": false,
          "internalType": "uint256",
          "name": "outputAmount",
          "type": "uint256"
        },
        {
          "indexed": false,
          "internalType": "uint256",
          "name": "fee",
          "type": "uint256"
        }
      ],
      "name": "Swapped",
      "type": "event"
    },
    {
      "anonymous": false,
      "inputs": [
        {
          "indexed": true,
          "internalType": "address",
          "name": "from",
          "type": "address"
        },
        {
          "indexed": true,
          "internalType": "address",
          "name": "to",
          "type": "address"
        },
        {
          "indexed": false,
          "internalType": "uint256",
          "name": "value",
          "type": "uint256"
        }
      ],
      "name": "Transfer",
      "type": "event"
    },
    {
      "inputs": [],
      "name": "BASE",
      "outputs": [
        {
          "internalType": "address",
          "name": "",
          "type": "address"
        }
      ],
      "stateMutability": "view",
      "type": "function"
    },
    {
      "inputs": [],
      "name": "DEPLOYER",
      "outputs": [
        {
          "internalType": "address",
          "name": "",
          "type": "address"
        }
      ],
      "stateMutability": "view",
      "type": "function"
    },
    {
      "inputs": [],
      "name": "TOKEN",
      "outputs": [
        {
          "internalType": "address",
          "name": "",
          "type": "address"
        }
      ],
      "stateMutability": "view",
      "type": "function"
    },
    {
      "inputs": [],
      "name": "add",
      "outputs": [
        {
          "internalType": "uint256",
          "name": "liquidityUnits",
          "type": "uint256"
        }
      ],
      "stateMutability": "nonpayable",
      "type": "function"
    },
    {
      "inputs": [
        {
          "internalType": "address",
          "name": "member",
          "type": "address"
        }
      ],
      "name": "addForMember",
      "outputs": [
        {
          "internalType": "uint256",
          "name": "liquidityUnits",
          "type": "uint256"
        }
      ],
      "stateMutability": "nonpayable",
      "type": "function"
    },
    {
      "inputs": [
        {
          "internalType": "address",
          "name": "owner",
          "type": "address"
        },
        {
          "internalType": "address",
          "name": "spender",
          "type": "address"
        }
      ],
      "name": "allowance",
      "outputs": [
        {
          "internalType": "uint256",
          "name": "",
          "type": "uint256"
        }
      ],
      "stateMutability": "view",
      "type": "function"
    },
    {
      "inputs": [
        {
          "internalType": "address",
          "name": "spender",
          "type": "address"
        },
        {
          "internalType": "uint256",
          "name": "amount",
          "type": "uint256"
        }
      ],
      "name": "approve",
      "outputs": [
        {
          "internalType": "bool",
          "name": "",
          "type": "bool"
        }
      ],
      "stateMutability": "nonpayable",
      "type": "function"
    },
    {
      "inputs": [
        {
          "internalType": "address",
          "name": "recipient",
          "type": "address"
        },
        {
          "internalType": "uint256",
          "name": "amount",
          "type": "uint256"
        },
        {
          "internalType": "bytes",
          "name": "data",
          "type": "bytes"
        }
      ],
      "name": "approveAndCall",
      "outputs": [
        {
          "internalType": "bool",
          "name": "",
          "type": "bool"
        }
      ],
      "stateMutability": "nonpayable",
      "type": "function"
    },
    {
      "inputs": [
        {
          "internalType": "address",
          "name": "account",
          "type": "address"
        }
      ],
      "name": "balanceOf",
      "outputs": [
        {
          "internalType": "uint256",
          "name": "",
          "type": "uint256"
        }
      ],
      "stateMutability": "view",
      "type": "function"
    },
    {
      "inputs": [],
      "name": "baseAmount",
      "outputs": [
        {
          "internalType": "uint256",
          "name": "",
          "type": "uint256"
        }
      ],
      "stateMutability": "view",
      "type": "function"
    },
    {
      "inputs": [
        {
          "internalType": "uint256",
          "name": "amount",
          "type": "uint256"
        }
      ],
      "name": "burn",
      "outputs": [],
      "stateMutability": "nonpayable",
      "type": "function"
    },
    {
      "inputs": [
        {
          "internalType": "address",
          "name": "account",
          "type": "address"
        },
        {
          "internalType": "uint256",
          "name": "amount",
          "type": "uint256"
        }
      ],
      "name": "burnFrom",
      "outputs": [],
      "stateMutability": "nonpayable",
      "type": "function"
    },
    {
      "inputs": [
        {
          "internalType": "address",
          "name": "synthIN",
          "type": "address"
        },
        {
          "internalType": "address",
          "name": "member",
          "type": "address"
        }
      ],
      "name": "burnSynth",
      "outputs": [
        {
          "internalType": "uint256",
          "name": "outputAmount",
          "type": "uint256"
        },
        {
          "internalType": "uint256",
          "name": "fee",
          "type": "uint256"
        }
      ],
      "stateMutability": "nonpayable",
      "type": "function"
    },
    {
      "inputs": [],
      "name": "decimals",
      "outputs": [
        {
          "internalType": "uint8",
          "name": "",
          "type": "uint8"
        }
      ],
      "stateMutability": "view",
      "type": "function"
    },
    {
      "inputs": [
        {
          "internalType": "address",
          "name": "spender",
          "type": "address"
        },
        {
          "internalType": "uint256",
          "name": "subtractedValue",
          "type": "uint256"
        }
      ],
      "name": "decreaseAllowance",
      "outputs": [
        {
          "internalType": "bool",
          "name": "",
          "type": "bool"
        }
      ],
      "stateMutability": "nonpayable",
      "type": "function"
    },
    {
      "inputs": [],
      "name": "genesis",
      "outputs": [
        {
          "internalType": "uint256",
          "name": "",
          "type": "uint256"
        }
      ],
      "stateMutability": "view",
      "type": "function"
    },
    {
      "inputs": [
        {
          "internalType": "address",
          "name": "spender",
          "type": "address"
        },
        {
          "internalType": "uint256",
          "name": "addedValue",
          "type": "uint256"
        }
      ],
      "name": "increaseAllowance",
      "outputs": [
        {
          "internalType": "bool",
          "name": "",
          "type": "bool"
        }
      ],
      "stateMutability": "nonpayable",
      "type": "function"
    },
    {
      "inputs": [],
      "name": "map30DPoolRevenue",
      "outputs": [
        {
          "internalType": "uint256",
          "name": "",
          "type": "uint256"
        }
      ],
      "stateMutability": "view",
      "type": "function"
    },
    {
      "inputs": [],
      "name": "mapPast30DPoolRevenue",
      "outputs": [
        {
          "internalType": "uint256",
          "name": "",
          "type": "uint256"
        }
      ],
      "stateMutability": "view",
      "type": "function"
    },
    {
      "inputs": [
        {
          "internalType": "address",
          "name": "synthOut",
          "type": "address"
        },
        {
          "internalType": "address",
          "name": "member",
          "type": "address"
        }
      ],
      "name": "mintSynth",
      "outputs": [
        {
          "internalType": "uint256",
          "name": "outputAmount",
          "type": "uint256"
        },
        {
          "internalType": "uint256",
          "name": "fee",
          "type": "uint256"
        }
      ],
      "stateMutability": "nonpayable",
      "type": "function"
    },
    {
      "inputs": [],
      "name": "name",
      "outputs": [
        {
          "internalType": "string",
          "name": "",
          "type": "string"
        }
      ],
      "stateMutability": "view",
      "type": "function"
    },
    {
      "inputs": [],
      "name": "remove",
      "outputs": [
        {
          "internalType": "uint256",
          "name": "outputBase",
          "type": "uint256"
        },
        {
          "internalType": "uint256",
          "name": "outputToken",
          "type": "uint256"
        }
      ],
      "stateMutability": "nonpayable",
      "type": "function"
    },
    {
      "inputs": [
        {
          "internalType": "address",
          "name": "member",
          "type": "address"
        }
      ],
      "name": "removeForMember",
      "outputs": [
        {
          "internalType": "uint256",
          "name": "outputBase",
          "type": "uint256"
        },
        {
          "internalType": "uint256",
          "name": "outputToken",
          "type": "uint256"
        }
      ],
      "stateMutability": "nonpayable",
      "type": "function"
    },
    {
      "inputs": [
        {
          "internalType": "uint256",
          "name": "",
          "type": "uint256"
        }
      ],
      "name": "revenueArray",
      "outputs": [
        {
          "internalType": "uint256",
          "name": "",
          "type": "uint256"
        }
      ],
      "stateMutability": "view",
      "type": "function"
    },
    {
      "inputs": [
        {
          "internalType": "address",
          "name": "token",
          "type": "address"
        }
      ],
      "name": "swap",
      "outputs": [
        {
          "internalType": "uint256",
          "name": "outputAmount",
          "type": "uint256"
        },
        {
          "internalType": "uint256",
          "name": "fee",
          "type": "uint256"
        }
      ],
      "stateMutability": "nonpayable",
      "type": "function"
    },
    {
      "inputs": [
        {
          "internalType": "address",
          "name": "token",
          "type": "address"
        },
        {
          "internalType": "address",
          "name": "member",
          "type": "address"
        }
      ],
      "name": "swapTo",
      "outputs": [
        {
          "internalType": "uint256",
          "name": "outputAmount",
          "type": "uint256"
        },
        {
          "internalType": "uint256",
          "name": "fee",
          "type": "uint256"
        }
      ],
      "stateMutability": "payable",
      "type": "function"
    },
    {
      "inputs": [],
      "name": "symbol",
      "outputs": [
        {
          "internalType": "string",
          "name": "",
          "type": "string"
        }
      ],
      "stateMutability": "view",
      "type": "function"
    },
    {
      "inputs": [],
      "name": "sync",
      "outputs": [],
      "stateMutability": "nonpayable",
      "type": "function"
    },
    {
      "inputs": [],
      "name": "tokenAmount",
      "outputs": [
        {
          "internalType": "uint256",
          "name": "",
          "type": "uint256"
        }
      ],
      "stateMutability": "view",
      "type": "function"
    },
    {
      "inputs": [],
      "name": "totalSupply",
      "outputs": [
        {
          "internalType": "uint256",
          "name": "",
          "type": "uint256"
        }
      ],
      "stateMutability": "view",
      "type": "function"
    },
    {
      "inputs": [
        {
          "internalType": "address",
          "name": "recipient",
          "type": "address"
        },
        {
          "internalType": "uint256",
          "name": "amount",
          "type": "uint256"
        }
      ],
      "name": "transfer",
      "outputs": [
        {
          "internalType": "bool",
          "name": "",
          "type": "bool"
        }
      ],
      "stateMutability": "nonpayable",
      "type": "function"
    },
    {
      "inputs": [
        {
          "internalType": "address",
          "name": "recipient",
          "type": "address"
        },
        {
          "internalType": "uint256",
          "name": "amount",
          "type": "uint256"
        },
        {
          "internalType": "bytes",
          "name": "data",
          "type": "bytes"
        }
      ],
      "name": "transferAndCall",
      "outputs": [
        {
          "internalType": "bool",
          "name": "",
          "type": "bool"
        }
      ],
      "stateMutability": "nonpayable",
      "type": "function"
    },
    {
      "inputs": [
        {
          "internalType": "address",
          "name": "sender",
          "type": "address"
        },
        {
          "internalType": "address",
          "name": "recipient",
          "type": "address"
        },
        {
          "internalType": "uint256",
          "name": "amount",
          "type": "uint256"
        }
      ],
      "name": "transferFrom",
      "outputs": [
        {
          "internalType": "bool",
          "name": "",
          "type": "bool"
        }
      ],
      "stateMutability": "nonpayable",
      "type": "function"
    }
  ],
  "bytecode": "0x60806040523480156200001157600080fd5b5060405162004b2a38038062004b2a833981810160405281019062000037919062000457565b816000806101000a81548173ffffffffffffffffffffffffffffffffffffffff021916908373ffffffffffffffffffffffffffffffffffffffff16021790555080600160006101000a81548173ffffffffffffffffffffffffffffffffffffffff021916908373ffffffffffffffffffffffffffffffffffffffff16021790555060006040518060400160405280601481526020017f2d5370617274616e50726f746f636f6c506f6f6c000000000000000000000000815250905060006040518060400160405280600481526020017f2d5350500000000000000000000000000000000000000000000000000000000081525090508273ffffffffffffffffffffffffffffffffffffffff166306fdde036040518163ffffffff1660e01b815260040160006040518083038186803b1580156200017357600080fd5b505afa15801562000188573d6000803e3d6000fd5b505050506040513d6000823e3d601f19601f82011682018060405250810190620001b3919062000498565b82604051602001620001c792919062000514565b60405160208183030381529060405260039080519060200190620001ed9291906200031e565b508273ffffffffffffffffffffffffffffffffffffffff166395d89b416040518163ffffffff1660e01b815260040160006040518083038186803b1580156200023557600080fd5b505afa1580156200024a573d6000803e3d6000fd5b505050506040513d6000823e3d601f19601f8201168201806040525081019062000275919062000498565b816040516020016200028992919062000514565b60405160208183030381529060405260049080519060200190620002af9291906200031e565b506012600560006101000a81548160ff021916908360ff16021790555042600c8190555033600260006101000a81548173ffffffffffffffffffffffffffffffffffffffff021916908373ffffffffffffffffffffffffffffffffffffffff1602179055505050505062000710565b8280546200032c906200061b565b90600052602060002090601f0160209004810192826200035057600085556200039c565b82601f106200036b57805160ff19168380011785556200039c565b828001600101855582156200039c579182015b828111156200039b5782518255916020019190600101906200037e565b5b509050620003ab9190620003af565b5090565b5b80821115620003ca576000816000905550600101620003b0565b5090565b6000620003e5620003df8462000565565b6200053c565b905082815260208101848484011115620003fe57600080fd5b6200040b848285620005e5565b509392505050565b6000815190506200042481620006f6565b92915050565b600082601f8301126200043c57600080fd5b81516200044e848260208601620003ce565b91505092915050565b600080604083850312156200046b57600080fd5b60006200047b8582860162000413565b92505060206200048e8582860162000413565b9150509250929050565b600060208284031215620004ab57600080fd5b600082015167ffffffffffffffff811115620004c657600080fd5b620004d4848285016200042a565b91505092915050565b6000620004ea826200059b565b620004f68185620005a6565b935062000508818560208601620005e5565b80840191505092915050565b6000620005228285620004dd565b9150620005308284620004dd565b91508190509392505050565b6000620005486200055b565b905062000556828262000651565b919050565b6000604051905090565b600067ffffffffffffffff821115620005835762000582620006b6565b5b6200058e82620006e5565b9050602081019050919050565b600081519050919050565b600081905092915050565b6000620005be82620005c5565b9050919050565b600073ffffffffffffffffffffffffffffffffffffffff82169050919050565b60005b8381101562000605578082015181840152602081019050620005e8565b8381111562000615576000848401525b50505050565b600060028204905060018216806200063457607f821691505b602082108114156200064b576200064a62000687565b5b50919050565b6200065c82620006e5565b810181811067ffffffffffffffff821117156200067e576200067d620006b6565b5b80604052505050565b7f4e487b7100000000000000000000000000000000000000000000000000000000600052602260045260246000fd5b7f4e487b7100000000000000000000000000000000000000000000000000000000600052604160045260246000fd5b6000601f19601f8301169050919050565b6200070181620005b1565b81146200070d57600080fd5b50565b61440a80620007206000396000f3fe6080604052600436106101ee5760003560e01c8063752d77931161010d578063a9059cbb116100a0578063dd62ed3e1161006f578063dd62ed3e14610798578063ec342ad0146107d5578063eec7faa114610800578063f0337cdc1461082b578063fff6cae914610868576101ee565b8063a9059cbb146106b5578063bc5dedc9146106f2578063c1b8411a14610730578063cae9ca511461075b576101ee565b806395d89b41116100dc57806395d89b41146105f6578063a457c2d714610621578063a7f0b3de1461065e578063a7f4377914610689576101ee565b8063752d77931461053a57806379cc67901461056557806382bfefc81461058e57806386d5f618146105b9576101ee565b80634000aea0116101855780635c537386116101545780635c537386146104565780635f83e5d5146104945780636aff9454146104bf57806370a08231146104fd576101ee565b80634000aea01461039a57806342966c68146103d75780634864d140146104005780634f2be91f1461042b576101ee565b806323b872dd116101c157806323b872dd146102c45780632783e4a914610301578063313ce56714610332578063395093511461035d576101ee565b806303438dd0146101f357806306fdde0314610231578063095ea7b31461025c57806318160ddd14610299575b600080fd5b3480156101ff57600080fd5b5061021a6004803603810190610215919061390a565b61087f565b604051610228929190613f37565b60405180910390f35b34801561023d57600080fd5b50610246610899565b6040516102539190613d9a565b60405180910390f35b34801561026857600080fd5b50610283600480360381019061027e91906139e7565b61092b565b6040516102909190613d7f565b60405180910390f35b3480156102a557600080fd5b506102ae610942565b6040516102bb9190613ebc565b60405180910390f35b3480156102d057600080fd5b506102eb60048036038101906102e69190613998565b610948565b6040516102f89190613d7f565b60405180910390f35b61031b6004803603810190610316919061395c565b610ae0565b604051610329929190613f37565b60405180910390f35b34801561033e57600080fd5b50610347610dbb565b6040516103549190613fea565b60405180910390f35b34801561036957600080fd5b50610384600480360381019061037f91906139e7565b610dce565b6040516103919190613d7f565b60405180910390f35b3480156103a657600080fd5b506103c160048036038101906103bc9190613a23565b610e6c565b6040516103ce9190613d7f565b60405180910390f35b3480156103e357600080fd5b506103fe60048036038101906103f99190613ae1565b610ef8565b005b34801561040c57600080fd5b50610415610f05565b6040516104229190613ebc565b60405180910390f35b34801561043757600080fd5b50610440610f0b565b60405161044d9190613ebc565b60405180910390f35b34801561046257600080fd5b5061047d6004803603810190610478919061395c565b610f1b565b60405161048b929190613f37565b60405180910390f35b3480156104a057600080fd5b506104a9611491565b6040516104b69190613ebc565b60405180910390f35b3480156104cb57600080fd5b506104e660048036038101906104e1919061395c565b611497565b6040516104f4929190613f37565b60405180910390f35b34801561050957600080fd5b50610524600480360381019061051f919061390a565b611aa3565b6040516105319190613ebc565b60405180910390f35b34801561054657600080fd5b5061054f611aec565b60405161055c9190613ebc565b60405180910390f35b34801561057157600080fd5b5061058c600480360381019061058791906139e7565b611af2565b005b34801561059a57600080fd5b506105a3611b25565b6040516105b09190613ced565b60405180910390f35b3480156105c557600080fd5b506105e060048036038101906105db919061390a565b611b4b565b6040516105ed9190613ebc565b60405180910390f35b34801561060257600080fd5b5061060b611cee565b6040516106189190613d9a565b60405180910390f35b34801561062d57600080fd5b50610648600480360381019061064391906139e7565b611d80565b6040516106559190613d7f565b60405180910390f35b34801561066a57600080fd5b50610673611e66565b6040516106809190613ebc565b60405180910390f35b34801561069557600080fd5b5061069e611e6c565b6040516106ac929190613f37565b60405180910390f35b3480156106c157600080fd5b506106dc60048036038101906106d791906139e7565b611e80565b6040516106e99190613d7f565b60405180910390f35b3480156106fe57600080fd5b506107196004803603810190610714919061390a565b611e97565b604051610727929190613f37565b60405180910390f35b34801561073c57600080fd5b506107456122d9565b6040516107529190613ced565b60405180910390f35b34801561076757600080fd5b50610782600480360381019061077d9190613a23565b6122ff565b60405161078f9190613d7f565b60405180910390f35b3480156107a457600080fd5b506107bf60048036038101906107ba919061395c565b6123ab565b6040516107cc9190613ebc565b60405180910390f35b3480156107e157600080fd5b506107ea612432565b6040516107f79190613ced565b60405180910390f35b34801561080c57600080fd5b50610815612456565b6040516108229190613ebc565b60405180910390f35b34801561083757600080fd5b50610852600480360381019061084d9190613ae1565b61245c565b60405161085f9190613ebc565b60405180910390f35b34801561087457600080fd5b5061087d612480565b005b60008061088c8333610ae0565b8092508193505050915091565b6060600380546108a89061418f565b80601f01602080910402602001604051908101604052809291908181526020018280546108d49061418f565b80156109215780601f106108f657610100808354040283529160200191610921565b820191906000526020600020905b81548152906001019060200180831161090457829003601f168201915b5050505050905090565b60006109383384846125e2565b6001905092915050565b60065481565b6000610955848484612852565b7fffffffffffffffffffffffffffffffffffffffffffffffffffffffffffffffff600860008673ffffffffffffffffffffffffffffffffffffffff1673ffffffffffffffffffffffffffffffffffffffff16815260200190815260200160002060003373ffffffffffffffffffffffffffffffffffffffff1673ffffffffffffffffffffffffffffffffffffffff168152602001908152602001600020541015610ad5576000600860008673ffffffffffffffffffffffffffffffffffffffff1673ffffffffffffffffffffffffffffffffffffffff16815260200190815260200160002060003373ffffffffffffffffffffffffffffffffffffffff1673ffffffffffffffffffffffffffffffffffffffff16815260200190815260200160002054905082811015610abd576040517f08c379a0000000000000000000000000000000000000000000000000000000008152600401610ab490613dfc565b60405180910390fd5b610ad385338584610ace9190614088565b6125e2565b505b600190509392505050565b60008060008054906101000a900473ffffffffffffffffffffffffffffffffffffffff1673ffffffffffffffffffffffffffffffffffffffff168473ffffffffffffffffffffffffffffffffffffffff161480610b8a5750600160009054906101000a900473ffffffffffffffffffffffffffffffffffffffff1673ffffffffffffffffffffffffffffffffffffffff168473ffffffffffffffffffffffffffffffffffffffff16145b610bc9576040517f08c379a0000000000000000000000000000000000000000000000000000000008152600401610bc090613e9c565b60405180910390fd5b60008060008054906101000a900473ffffffffffffffffffffffffffffffffffffffff1673ffffffffffffffffffffffffffffffffffffffff168673ffffffffffffffffffffffffffffffffffffffff161415610c6557600160009054906101000a900473ffffffffffffffffffffffffffffffffffffffff169150610c4d612a60565b9050610c5881612b38565b8094508195505050610ca4565b60008054906101000a900473ffffffffffffffffffffffffffffffffffffffff169150610c90612d9f565b9050610c9b81612e75565b80945081955050505b8473ffffffffffffffffffffffffffffffffffffffff168673ffffffffffffffffffffffffffffffffffffffff168373ffffffffffffffffffffffffffffffffffffffff167fc9163c3bdf7263acf1bb3d24072cc7da025f7181c31e2edc7e1673edf5e0ca32848888604051610d1c93929190613f60565b60405180910390a48573ffffffffffffffffffffffffffffffffffffffff1663a9059cbb86866040518363ffffffff1660e01b8152600401610d5f929190613d08565b602060405180830381600087803b158015610d7957600080fd5b505af1158015610d8d573d6000803e3d6000fd5b505050506040513d601f19601f82011682018060405250810190610db19190613a8f565b5050509250929050565b600560009054906101000a900460ff1681565b6000610e62338484600860003373ffffffffffffffffffffffffffffffffffffffff1673ffffffffffffffffffffffffffffffffffffffff16815260200190815260200160002060008873ffffffffffffffffffffffffffffffffffffffff1673ffffffffffffffffffffffffffffffffffffffff16815260200190815260200160002054610e5d9190614032565b6125e2565b6001905092915050565b6000610e79338686612852565b8473ffffffffffffffffffffffffffffffffffffffff1663cf4d253530863387876040518663ffffffff1660e01b8152600401610eba959493929190613d31565b600060405180830381600087803b158015610ed457600080fd5b505af1158015610ee8573d6000803e3d6000fd5b5050505060019050949350505050565b610f023382613212565b50565b60095481565b6000610f1633611b4b565b905090565b60008060011515610f2a6133dd565b73ffffffffffffffffffffffffffffffffffffffff1663b93ec54b6040518163ffffffff1660e01b815260040160206040518083038186803b158015610f6f57600080fd5b505afa158015610f83573d6000803e3d6000fd5b505050506040513d601f19601f82011682018060405250810190610fa79190613933565b73ffffffffffffffffffffffffffffffffffffffff16635e0237ea866040518263ffffffff1660e01b8152600401610fdf9190613ced565b60206040518083038186803b158015610ff757600080fd5b505afa15801561100b573d6000803e3d6000fd5b505050506040513d601f19601f8201168201806040525081019061102f9190613a8f565b151514611071576040517f08c379a000000000000000000000000000000000000000000000000000000000815260040161106890613e5c565b60405180910390fd5b600061107b612d9f565b905060006110876133dd565b73ffffffffffffffffffffffffffffffffffffffff16637b0e5c456040518163ffffffff1660e01b815260040160206040518083038186803b1580156110cc57600080fd5b505afa1580156110e0573d6000803e3d6000fd5b505050506040513d601f19601f820116820180604052508101906111049190613933565b73ffffffffffffffffffffffffffffffffffffffff1663b86a82ef83306040518363ffffffff1660e01b815260040161113e929190613ed7565b60206040518083038186803b15801561115657600080fd5b505afa15801561116a573d6000803e3d6000fd5b505050506040513d601f19601f8201168201806040525081019061118e9190613b0a565b905061119b826000613483565b60006111a56133dd565b73ffffffffffffffffffffffffffffffffffffffff16637b0e5c456040518163ffffffff1660e01b815260040160206040518083038186803b1580156111ea57600080fd5b505afa1580156111fe573d6000803e3d6000fd5b505050506040513d601f19601f820116820180604052508101906112229190613933565b73ffffffffffffffffffffffffffffffffffffffff1663896a708c84600954600a546040518463ffffffff1660e01b815260040161126293929190613f60565b60206040518083038186803b15801561127a57600080fd5b505afa15801561128e573d6000803e3d6000fd5b505050506040513d601f19601f820116820180604052508101906112b29190613b0a565b90506112bc6133dd565b73ffffffffffffffffffffffffffffffffffffffff16637b0e5c456040518163ffffffff1660e01b815260040160206040518083038186803b15801561130157600080fd5b505afa158015611315573d6000803e3d6000fd5b505050506040513d601f19601f820116820180604052508101906113399190613933565b73ffffffffffffffffffffffffffffffffffffffff1663c19387df600160009054906101000a900473ffffffffffffffffffffffffffffffffffffffff16836040518363ffffffff1660e01b8152600401611395929190613d08565b60206040518083038186803b1580156113ad57600080fd5b505afa1580156113c1573d6000803e3d6000fd5b505050506040513d601f19601f820116820180604052508101906113e59190613b0a565b93506113f187836134b9565b8673ffffffffffffffffffffffffffffffffffffffff1663f1bbdef2876040518263ffffffff1660e01b815260040161142a9190613ced565b602060405180830381600087803b15801561144457600080fd5b505af1158015611458573d6000803e3d6000fd5b505050506040513d601f19601f8201168201806040525081019061147c9190613b0a565b945061148784613602565b5050509250929050565b600d5481565b600080600115156114a66133dd565b73ffffffffffffffffffffffffffffffffffffffff1663b93ec54b6040518163ffffffff1660e01b815260040160206040518083038186803b1580156114eb57600080fd5b505afa1580156114ff573d6000803e3d6000fd5b505050506040513d601f19601f820116820180604052508101906115239190613933565b73ffffffffffffffffffffffffffffffffffffffff16635e0237ea866040518263ffffffff1660e01b815260040161155b9190613ced565b60206040518083038186803b15801561157357600080fd5b505afa158015611587573d6000803e3d6000fd5b505050506040513d601f19601f820116820180604052508101906115ab9190613a8f565b1515146115ed576040517f08c379a00000000000000000000000000000000000000000000000000000000081526004016115e490613e5c565b60405180910390fd5b60008473ffffffffffffffffffffffffffffffffffffffff166370a08231306040518263ffffffff1660e01b81526004016116289190613ced565b60206040518083038186803b15801561164057600080fd5b505afa158015611654573d6000803e3d6000fd5b505050506040513d601f19601f820116820180604052508101906116789190613b0a565b905060006116846133dd565b73ffffffffffffffffffffffffffffffffffffffff16637b0e5c456040518163ffffffff1660e01b815260040160206040518083038186803b1580156116c957600080fd5b505afa1580156116dd573d6000803e3d6000fd5b505050506040513d601f19601f820116820180604052508101906117019190613933565b73ffffffffffffffffffffffffffffffffffffffff1663b80e44b8600160009054906101000a900473ffffffffffffffffffffffffffffffffffffffff16846040518363ffffffff1660e01b815260040161175d929190613d08565b60206040518083038186803b15801561177557600080fd5b505afa158015611789573d6000803e3d6000fd5b505050506040513d601f19601f820116820180604052508101906117ad9190613b0a565b90506117b76133dd565b73ffffffffffffffffffffffffffffffffffffffff16637b0e5c456040518163ffffffff1660e01b815260040160206040518083038186803b1580156117fc57600080fd5b505afa158015611810573d6000803e3d6000fd5b505050506040513d601f19601f820116820180604052508101906118349190613933565b73ffffffffffffffffffffffffffffffffffffffff1663896a708c83600a546009546040518463ffffffff1660e01b815260040161187493929190613f60565b60206040518083038186803b15801561188c57600080fd5b505afa1580156118a0573d6000803e3d6000fd5b505050506040513d601f19601f820116820180604052508101906118c49190613b0a565b92508573ffffffffffffffffffffffffffffffffffffffff1663a9059cbb87846040518363ffffffff1660e01b8152600401611901929190613d08565b602060405180830381600087803b15801561191b57600080fd5b505af115801561192f573d6000803e3d6000fd5b505050506040513d601f19601f820116820180604052508101906119539190613a8f565b508573ffffffffffffffffffffffffffffffffffffffff1663d950b6f36040518163ffffffff1660e01b8152600401602060405180830381600087803b15801561199c57600080fd5b505af11580156119b0573d6000803e3d6000fd5b505050506040513d601f19601f820116820180604052508101906119d49190613b0a565b506119e0816000613692565b60008054906101000a900473ffffffffffffffffffffffffffffffffffffffff1673ffffffffffffffffffffffffffffffffffffffff1663a9059cbb86836040518363ffffffff1660e01b8152600401611a3b929190613d08565b602060405180830381600087803b158015611a5557600080fd5b505af1158015611a69573d6000803e3d6000fd5b505050506040513d601f19601f82011682018060405250810190611a8d9190613a8f565b50611a9783613602565b80935050509250929050565b6000600760008373ffffffffffffffffffffffffffffffffffffffff1673ffffffffffffffffffffffffffffffffffffffff168152602001908152602001600020549050919050565b600e5481565b600081611aff84336123ab565b611b099190614088565b9050611b168333836125e2565b611b208383613212565b505050565b600160009054906101000a900473ffffffffffffffffffffffffffffffffffffffff1681565b600080611b56612d9f565b90506000611b62612a60565b9050611b6c6133dd565b73ffffffffffffffffffffffffffffffffffffffff16637b0e5c456040518163ffffffff1660e01b815260040160206040518083038186803b158015611bb157600080fd5b505afa158015611bc5573d6000803e3d6000fd5b505050506040513d601f19601f82011682018060405250810190611be99190613933565b73ffffffffffffffffffffffffffffffffffffffff1663c5c11ee98360095484600a546006546040518663ffffffff1660e01b8152600401611c2f959493929190613f97565b60206040518083038186803b158015611c4757600080fd5b505afa158015611c5b573d6000803e3d6000fd5b505050506040513d601f19601f82011682018060405250810190611c7f9190613b0a565b9250611c8b8282613483565b611c9584846134b9565b8373ffffffffffffffffffffffffffffffffffffffff167fbeb3885786d637a474cbc287c0a44587231633a077f0bd30354d5a4b18996fce838386604051611cdf93929190613f60565b60405180910390a25050919050565b606060048054611cfd9061418f565b80601f0160208091040260200160405190810160405280929190818152602001828054611d299061418f565b8015611d765780601f10611d4b57610100808354040283529160200191611d76565b820191906000526020600020905b815481529060010190602001808311611d5957829003601f168201915b5050505050905090565b600080600860003373ffffffffffffffffffffffffffffffffffffffff1673ffffffffffffffffffffffffffffffffffffffff16815260200190815260200160002060008573ffffffffffffffffffffffffffffffffffffffff1673ffffffffffffffffffffffffffffffffffffffff16815260200190815260200160002054905082811015611e45576040517f08c379a0000000000000000000000000000000000000000000000000000000008152600401611e3c90613dfc565b60405180910390fd5b611e5b33858584611e569190614088565b6125e2565b600191505092915050565b600c5481565b600080611e7833611e97565b915091509091565b6000611e8d338484612852565b6001905092915050565b6000806000611ea530611aa3565b9050611eaf6133dd565b73ffffffffffffffffffffffffffffffffffffffff16637b0e5c456040518163ffffffff1660e01b815260040160206040518083038186803b158015611ef457600080fd5b505afa158015611f08573d6000803e3d6000fd5b505050506040513d601f19601f82011682018060405250810190611f2c9190613933565b73ffffffffffffffffffffffffffffffffffffffff16635a7b2ed38260008054906101000a900473ffffffffffffffffffffffffffffffffffffffff16306040518463ffffffff1660e01b8152600401611f8893929190613f00565b60206040518083038186803b158015611fa057600080fd5b505afa158015611fb4573d6000803e3d6000fd5b505050506040513d601f19601f82011682018060405250810190611fd89190613b0a565b9250611fe26133dd565b73ffffffffffffffffffffffffffffffffffffffff16637b0e5c456040518163ffffffff1660e01b815260040160206040518083038186803b15801561202757600080fd5b505afa15801561203b573d6000803e3d6000fd5b505050506040513d601f19601f8201168201806040525081019061205f9190613933565b73ffffffffffffffffffffffffffffffffffffffff16635a7b2ed382600160009054906101000a900473ffffffffffffffffffffffffffffffffffffffff16306040518463ffffffff1660e01b81526004016120bd93929190613f00565b60206040518083038186803b1580156120d557600080fd5b505afa1580156120e9573d6000803e3d6000fd5b505050506040513d601f19601f8201168201806040525081019061210d9190613b0a565b91506121198383613692565b6121233082613212565b60008054906101000a900473ffffffffffffffffffffffffffffffffffffffff1673ffffffffffffffffffffffffffffffffffffffff1663a9059cbb85856040518363ffffffff1660e01b815260040161217e929190613d08565b602060405180830381600087803b15801561219857600080fd5b505af11580156121ac573d6000803e3d6000fd5b505050506040513d601f19601f820116820180604052508101906121d09190613a8f565b50600160009054906101000a900473ffffffffffffffffffffffffffffffffffffffff1673ffffffffffffffffffffffffffffffffffffffff1663a9059cbb85846040518363ffffffff1660e01b815260040161222e929190613d08565b602060405180830381600087803b15801561224857600080fd5b505af115801561225c573d6000803e3d6000fd5b505050506040513d601f19601f820116820180604052508101906122809190613a8f565b508373ffffffffffffffffffffffffffffffffffffffff167f59c3a0b60c6ab7deb62e1440c9e72441db6db7dfe514dba8cb18e60c0d896efa8484846040516122cb93929190613f60565b60405180910390a250915091565b600260009054906101000a900473ffffffffffffffffffffffffffffffffffffffff1681565b600061232c33867fffffffffffffffffffffffffffffffffffffffffffffffffffffffffffffffff6125e2565b8473ffffffffffffffffffffffffffffffffffffffff16631ac562a730863387876040518663ffffffff1660e01b815260040161236d959493929190613d31565b600060405180830381600087803b15801561238757600080fd5b505af115801561239b573d6000803e3d6000fd5b5050505060019050949350505050565b6000600860008473ffffffffffffffffffffffffffffffffffffffff1673ffffffffffffffffffffffffffffffffffffffff16815260200190815260200160002060008373ffffffffffffffffffffffffffffffffffffffff1673ffffffffffffffffffffffffffffffffffffffff16815260200190815260200160002054905092915050565b60008054906101000a900473ffffffffffffffffffffffffffffffffffffffff1681565b600a5481565b600f818154811061246c57600080fd5b906000526020600020016000915090505481565b60008054906101000a900473ffffffffffffffffffffffffffffffffffffffff1673ffffffffffffffffffffffffffffffffffffffff166370a08231306040518263ffffffff1660e01b81526004016124d99190613ced565b60206040518083038186803b1580156124f157600080fd5b505afa158015612505573d6000803e3d6000fd5b505050506040513d601f19601f820116820180604052508101906125299190613b0a565b600981905550600160009054906101000a900473ffffffffffffffffffffffffffffffffffffffff1673ffffffffffffffffffffffffffffffffffffffff166370a08231306040518263ffffffff1660e01b815260040161258a9190613ced565b60206040518083038186803b1580156125a257600080fd5b505afa1580156125b6573d6000803e3d6000fd5b505050506040513d601f19601f820116820180604052508101906125da9190613b0a565b600a81905550565b600073ffffffffffffffffffffffffffffffffffffffff168373ffffffffffffffffffffffffffffffffffffffff161415612652576040517f08c379a000000000000000000000000000000000000000000000000000000000815260040161264990613ddc565b60405180910390fd5b600073ffffffffffffffffffffffffffffffffffffffff168273ffffffffffffffffffffffffffffffffffffffff1614156126c2576040517f08c379a00000000000000000000000000000000000000000000000000000000081526004016126b990613e3c565b60405180910390fd5b7fffffffffffffffffffffffffffffffffffffffffffffffffffffffffffffffff600860008573ffffffffffffffffffffffffffffffffffffffff1673ffffffffffffffffffffffffffffffffffffffff16815260200190815260200160002060008473ffffffffffffffffffffffffffffffffffffffff1673ffffffffffffffffffffffffffffffffffffffff16815260200190815260200160002054101561284d5780600860008573ffffffffffffffffffffffffffffffffffffffff1673ffffffffffffffffffffffffffffffffffffffff16815260200190815260200160002060008473ffffffffffffffffffffffffffffffffffffffff1673ffffffffffffffffffffffffffffffffffffffff168152602001908152602001600020819055508173ffffffffffffffffffffffffffffffffffffffff168373ffffffffffffffffffffffffffffffffffffffff167f8c5be1e5ebec7d5bd14f71427d1e84f3dd0314c0f7b2291e5b200ac8c7c3b925836040516128449190613ebc565b60405180910390a35b505050565b600073ffffffffffffffffffffffffffffffffffffffff168373ffffffffffffffffffffffffffffffffffffffff1614156128c2576040517f08c379a00000000000000000000000000000000000000000000000000000000081526004016128b990613dbc565b60405180910390fd5b6000600760008573ffffffffffffffffffffffffffffffffffffffff1673ffffffffffffffffffffffffffffffffffffffff16815260200190815260200160002054905081811015612949576040517f08c379a000000000000000000000000000000000000000000000000000000000815260040161294090613e1c565b60405180910390fd5b81600760008673ffffffffffffffffffffffffffffffffffffffff1673ffffffffffffffffffffffffffffffffffffffff16815260200190815260200160002060008282546129989190614088565b9250508190555081600760008573ffffffffffffffffffffffffffffffffffffffff1673ffffffffffffffffffffffffffffffffffffffff16815260200190815260200160002060008282546129ee9190614032565b925050819055508273ffffffffffffffffffffffffffffffffffffffff168473ffffffffffffffffffffffffffffffffffffffff167fddf252ad1be2c89b69c2b068fc378daa952ba7f163c4a11628f55a4df523b3ef84604051612a529190613ebc565b60405180910390a350505050565b600080600160009054906101000a900473ffffffffffffffffffffffffffffffffffffffff1673ffffffffffffffffffffffffffffffffffffffff166370a08231306040518263ffffffff1660e01b8152600401612abe9190613ced565b60206040518083038186803b158015612ad657600080fd5b505afa158015612aea573d6000803e3d6000fd5b505050506040513d601f19601f82011682018060405250810190612b0e9190613b0a565b9050600a54811115612b2f57600a5481612b289190614088565b9150612b34565b600091505b5090565b6000806000600a54905060006009549050612b516133dd565b73ffffffffffffffffffffffffffffffffffffffff16637b0e5c456040518163ffffffff1660e01b815260040160206040518083038186803b158015612b9657600080fd5b505afa158015612baa573d6000803e3d6000fd5b505050506040513d601f19601f82011682018060405250810190612bce9190613933565b73ffffffffffffffffffffffffffffffffffffffff1663701baaf38684846040518463ffffffff1660e01b8152600401612c0a93929190613f60565b60206040518083038186803b158015612c2257600080fd5b505afa158015612c36573d6000803e3d6000fd5b505050506040513d601f19601f82011682018060405250810190612c5a9190613b0a565b9350612c646133dd565b73ffffffffffffffffffffffffffffffffffffffff16637b0e5c456040518163ffffffff1660e01b815260040160206040518083038186803b158015612ca957600080fd5b505afa158015612cbd573d6000803e3d6000fd5b505050506040513d601f19601f82011682018060405250810190612ce19190613933565b73ffffffffffffffffffffffffffffffffffffffff1663896a708c8684846040518463ffffffff1660e01b8152600401612d1d93929190613f60565b60206040518083038186803b158015612d3557600080fd5b505afa158015612d49573d6000803e3d6000fd5b505050506040513d601f19601f82011682018060405250810190612d6d9190613b0a565b9250612d8f8482612d7e9190614088565b8684612d8a9190614032565b6136c8565b612d9883613602565b5050915091565b60008060008054906101000a900473ffffffffffffffffffffffffffffffffffffffff1673ffffffffffffffffffffffffffffffffffffffff166370a08231306040518263ffffffff1660e01b8152600401612dfb9190613ced565b60206040518083038186803b158015612e1357600080fd5b505afa158015612e27573d6000803e3d6000fd5b505050506040513d601f19601f82011682018060405250810190612e4b9190613b0a565b9050600954811115612e6c5760095481612e659190614088565b9150612e71565b600091505b5090565b600080600060095490506000600a549050612e8e6133dd565b73ffffffffffffffffffffffffffffffffffffffff16637b0e5c456040518163ffffffff1660e01b815260040160206040518083038186803b158015612ed357600080fd5b505afa158015612ee7573d6000803e3d6000fd5b505050506040513d601f19601f82011682018060405250810190612f0b9190613933565b73ffffffffffffffffffffffffffffffffffffffff1663701baaf38684846040518463ffffffff1660e01b8152600401612f4793929190613f60565b60206040518083038186803b158015612f5f57600080fd5b505afa158015612f73573d6000803e3d6000fd5b505050506040513d601f19601f82011682018060405250810190612f979190613b0a565b93506000612fa36133dd565b73ffffffffffffffffffffffffffffffffffffffff16637b0e5c456040518163ffffffff1660e01b815260040160206040518083038186803b158015612fe857600080fd5b505afa158015612ffc573d6000803e3d6000fd5b505050506040513d601f19601f820116820180604052508101906130209190613933565b73ffffffffffffffffffffffffffffffffffffffff1663896a708c8785856040518463ffffffff1660e01b815260040161305c93929190613f60565b60206040518083038186803b15801561307457600080fd5b505afa158015613088573d6000803e3d6000fd5b505050506040513d601f19601f820116820180604052508101906130ac9190613b0a565b90506130b66133dd565b73ffffffffffffffffffffffffffffffffffffffff16637b0e5c456040518163ffffffff1660e01b815260040160206040518083038186803b1580156130fb57600080fd5b505afa15801561310f573d6000803e3d6000fd5b505050506040513d601f19601f820116820180604052508101906131339190613933565b73ffffffffffffffffffffffffffffffffffffffff1663c19387df600160009054906101000a900473ffffffffffffffffffffffffffffffffffffffff16836040518363ffffffff1660e01b815260040161318f929190613d08565b60206040518083038186803b1580156131a757600080fd5b505afa1580156131bb573d6000803e3d6000fd5b505050506040513d601f19601f820116820180604052508101906131df9190613b0a565b935061320186846131f09190614032565b86846131fc9190614088565b6136c8565b61320a84613602565b505050915091565b600073ffffffffffffffffffffffffffffffffffffffff168273ffffffffffffffffffffffffffffffffffffffff161415613282576040517f08c379a000000000000000000000000000000000000000000000000000000000815260040161327990613e7c565b60405180910390fd5b80600760008473ffffffffffffffffffffffffffffffffffffffff1673ffffffffffffffffffffffffffffffffffffffff168152602001908152602001600020541015613304576040517f08c379a00000000000000000000000000000000000000000000000000000000081526004016132fb90613e1c565b60405180910390fd5b80600760008473ffffffffffffffffffffffffffffffffffffffff1673ffffffffffffffffffffffffffffffffffffffff16815260200190815260200160002060008282546133539190614088565b92505081905550806006600082825461336c9190614088565b92505081905550600073ffffffffffffffffffffffffffffffffffffffff168273ffffffffffffffffffffffffffffffffffffffff167fddf252ad1be2c89b69c2b068fc378daa952ba7f163c4a11628f55a4df523b3ef836040516133d19190613ebc565b60405180910390a35050565b60008060009054906101000a900473ffffffffffffffffffffffffffffffffffffffff1673ffffffffffffffffffffffffffffffffffffffff166398fabd3a6040518163ffffffff1660e01b815260040160206040518083038186803b15801561344657600080fd5b505afa15801561345a573d6000803e3d6000fd5b505050506040513d601f19601f8201168201806040525081019061347e9190613ab8565b905090565b81600960008282546134959190614032565b9250508190555080600a60008282546134ae9190614032565b925050819055505050565b600073ffffffffffffffffffffffffffffffffffffffff168273ffffffffffffffffffffffffffffffffffffffff161415613529576040517f08c379a000000000000000000000000000000000000000000000000000000000815260040161352090613e7c565b60405180910390fd5b806006600082825461353b9190614032565b9250508190555080600760008473ffffffffffffffffffffffffffffffffffffffff1673ffffffffffffffffffffffffffffffffffffffff16815260200190815260200160002060008282546135919190614032565b925050819055508173ffffffffffffffffffffffffffffffffffffffff16600073ffffffffffffffffffffffffffffffffffffffff167fddf252ad1be2c89b69c2b068fc378daa952ba7f163c4a11628f55a4df523b3ef836040516135f69190613ebc565b60405180910390a35050565b6000600b54141561361757600c54600b819055505b62278d00600b546136289190614032565b42116136475780600d5461363c9190614032565b600d8190555061368f565b62278d00600b546136589190614032565b600b81905550600d54600e81905550613672600e546136da565b6000600d8190555080600d546136889190614032565b600d819055505b50565b81600960008282546136a49190614088565b9250508190555080600a60008282546136bd9190614088565b925050819055505050565b8160098190555080600a819055505050565b6002600f805490501461371557600f81908060018154018082558091505060019003906000526020600020016000909190919091505561371f565b61371e81613722565b5b50565b6000600f805490509050600060018261373b9190614088565b90505b60008111156137f357600f6001826137569190614088565b8154811061378d577f4e487b7100000000000000000000000000000000000000000000000000000000600052603260045260246000fd5b9060005260206000200154600f82815481106137d2577f4e487b7100000000000000000000000000000000000000000000000000000000600052603260045260246000fd5b906000526020600020018190555080806137eb90614165565b91505061373e565b5081600f600081548110613830577f4e487b7100000000000000000000000000000000000000000000000000000000600052603260045260246000fd5b90600052602060002001819055505050565b60008135905061385181614378565b92915050565b60008151905061386681614378565b92915050565b60008151905061387b8161438f565b92915050565b60008083601f84011261389357600080fd5b8235905067ffffffffffffffff8111156138ac57600080fd5b6020830191508360018202830111156138c457600080fd5b9250929050565b6000815190506138da816143a6565b92915050565b6000813590506138ef816143bd565b92915050565b600081519050613904816143bd565b92915050565b60006020828403121561391c57600080fd5b600061392a84828501613842565b91505092915050565b60006020828403121561394557600080fd5b600061395384828501613857565b91505092915050565b6000806040838503121561396f57600080fd5b600061397d85828601613842565b925050602061398e85828601613842565b9150509250929050565b6000806000606084860312156139ad57600080fd5b60006139bb86828701613842565b93505060206139cc86828701613842565b92505060406139dd868287016138e0565b9150509250925092565b600080604083850312156139fa57600080fd5b6000613a0885828601613842565b9250506020613a19858286016138e0565b9150509250929050565b60008060008060608587031215613a3957600080fd5b6000613a4787828801613842565b9450506020613a58878288016138e0565b935050604085013567ffffffffffffffff811115613a7557600080fd5b613a8187828801613881565b925092505092959194509250565b600060208284031215613aa157600080fd5b6000613aaf8482850161386c565b91505092915050565b600060208284031215613aca57600080fd5b6000613ad8848285016138cb565b91505092915050565b600060208284031215613af357600080fd5b6000613b01848285016138e0565b91505092915050565b600060208284031215613b1c57600080fd5b6000613b2a848285016138f5565b91505092915050565b613b3c816140bc565b82525050565b613b4b816140ce565b82525050565b6000613b5d8385614010565b9350613b6a838584614123565b613b738361421f565b840190509392505050565b6000613b8982614005565b613b938185614021565b9350613ba3818560208601614132565b613bac8161421f565b840191505092915050565b6000613bc4600c83614021565b9150613bcf82614230565b602082019050919050565b6000613be7600683614021565b9150613bf282614259565b602082019050919050565b6000613c0a600d83614021565b9150613c1582614282565b602082019050919050565b6000613c2d600b83614021565b9150613c38826142ab565b602082019050919050565b6000613c50600783614021565b9150613c5b826142d4565b602082019050919050565b6000613c73600683614021565b9150613c7e826142fd565b602082019050919050565b6000613c96600b83614021565b9150613ca182614326565b602082019050919050565b6000613cb9601583614021565b9150613cc48261434f565b602082019050919050565b613cd88161410c565b82525050565b613ce781614116565b82525050565b6000602082019050613d026000830184613b33565b92915050565b6000604082019050613d1d6000830185613b33565b613d2a6020830184613ccf565b9392505050565b6000608082019050613d466000830188613b33565b613d536020830187613ccf565b613d606040830186613b33565b8181036060830152613d73818486613b51565b90509695505050505050565b6000602082019050613d946000830184613b42565b92915050565b60006020820190508181036000830152613db48184613b7e565b905092915050565b60006020820190508181036000830152613dd581613bb7565b9050919050565b60006020820190508181036000830152613df581613bda565b9050919050565b60006020820190508181036000830152613e1581613bfd565b9050919050565b60006020820190508181036000830152613e3581613c20565b9050919050565b60006020820190508181036000830152613e5581613c43565b9050919050565b60006020820190508181036000830152613e7581613c66565b9050919050565b60006020820190508181036000830152613e9581613c89565b9050919050565b60006020820190508181036000830152613eb581613cac565b9050919050565b6000602082019050613ed16000830184613ccf565b92915050565b6000604082019050613eec6000830185613ccf565b613ef96020830184613b33565b9392505050565b6000606082019050613f156000830186613ccf565b613f226020830185613b33565b613f2f6040830184613b33565b949350505050565b6000604082019050613f4c6000830185613ccf565b613f596020830184613ccf565b9392505050565b6000606082019050613f756000830186613ccf565b613f826020830185613ccf565b613f8f6040830184613ccf565b949350505050565b600060a082019050613fac6000830188613ccf565b613fb96020830187613ccf565b613fc66040830186613ccf565b613fd36060830185613ccf565b613fe06080830184613ccf565b9695505050505050565b6000602082019050613fff6000830184613cde565b92915050565b600081519050919050565b600082825260208201905092915050565b600082825260208201905092915050565b600061403d8261410c565b91506140488361410c565b9250827fffffffffffffffffffffffffffffffffffffffffffffffffffffffffffffffff0382111561407d5761407c6141c1565b5b828201905092915050565b60006140938261410c565b915061409e8361410c565b9250828210156140b1576140b06141c1565b5b828203905092915050565b60006140c7826140ec565b9050919050565b60008115159050919050565b60006140e5826140bc565b9050919050565b600073ffffffffffffffffffffffffffffffffffffffff82169050919050565b6000819050919050565b600060ff82169050919050565b82818337600083830152505050565b60005b83811015614150578082015181840152602081019050614135565b8381111561415f576000848401525b50505050565b60006141708261410c565b91506000821415614184576141836141c1565b5b600182039050919050565b600060028204905060018216806141a757607f821691505b602082108114156141bb576141ba6141f0565b5b50919050565b7f4e487b7100000000000000000000000000000000000000000000000000000000600052601160045260246000fd5b7f4e487b7100000000000000000000000000000000000000000000000000000000600052602260045260246000fd5b6000601f19601f8301169050919050565b7f7472616e73666572206572720000000000000000000000000000000000000000600082015250565b7f73656e6465720000000000000000000000000000000000000000000000000000600082015250565b7f616c6c6f77616e63652065727200000000000000000000000000000000000000600082015250565b7f62616c616e636520657272000000000000000000000000000000000000000000600082015250565b7f7370656e64657200000000000000000000000000000000000000000000000000600082015250565b7f2173796e74680000000000000000000000000000000000000000000000000000600082015250565b7f6164647265737320657272000000000000000000000000000000000000000000600082015250565b7f4d7573742062652042415345206f7220544f4b454e0000000000000000000000600082015250565b614381816140bc565b811461438c57600080fd5b50565b614398816140ce565b81146143a357600080fd5b50565b6143af816140da565b81146143ba57600080fd5b50565b6143c68161410c565b81146143d157600080fd5b5056fea26469706673582212208184179d5f88eaca8862463a384c24c9101ae6cc9905e0a18d5c31b3ed3a293f64736f6c63430008030033",
  "linkReferences": {},
  "deployedLinkReferences": {}
}