{
  "_format": "hh-sol-artifact-1",
  "contractName": "Pool",
  "sourceName": "contracts/Pool.sol",
  "abi": [
    {
      "inputs": [
        {
          "internalType": "address",
          "name": "_base",
          "type": "address"
        },
        {
          "internalType": "address",
          "name": "_token",
          "type": "address"
        }
      ],
      "stateMutability": "nonpayable",
      "type": "constructor"
    },
    {
      "anonymous": false,
      "inputs": [
        {
          "indexed": true,
          "internalType": "address",
          "name": "member",
          "type": "address"
        },
        {
          "indexed": false,
          "internalType": "uint256",
          "name": "inputBase",
          "type": "uint256"
        },
        {
          "indexed": false,
          "internalType": "uint256",
          "name": "inputToken",
          "type": "uint256"
        },
        {
          "indexed": false,
          "internalType": "uint256",
          "name": "unitsIssued",
          "type": "uint256"
        }
      ],
      "name": "AddLiquidity",
      "type": "event"
    },
    {
      "anonymous": false,
      "inputs": [
        {
          "indexed": true,
          "internalType": "address",
          "name": "owner",
          "type": "address"
        },
        {
          "indexed": true,
          "internalType": "address",
          "name": "spender",
          "type": "address"
        },
        {
          "indexed": false,
          "internalType": "uint256",
          "name": "value",
          "type": "uint256"
        }
      ],
      "name": "Approval",
      "type": "event"
    },
    {
      "anonymous": false,
      "inputs": [
        {
          "indexed": true,
          "internalType": "address",
          "name": "member",
          "type": "address"
        },
        {
          "indexed": false,
          "internalType": "uint256",
          "name": "baseAmount",
          "type": "uint256"
        },
        {
          "indexed": false,
          "internalType": "uint256",
          "name": "liqUnits",
          "type": "uint256"
        },
        {
          "indexed": false,
          "internalType": "uint256",
          "name": "synthAmount",
          "type": "uint256"
        },
        {
          "indexed": false,
          "internalType": "uint256",
          "name": "fee",
          "type": "uint256"
        }
      ],
      "name": "BurnSynth",
      "type": "event"
    },
    {
      "anonymous": false,
      "inputs": [
        {
          "indexed": true,
          "internalType": "address",
          "name": "member",
          "type": "address"
        },
        {
          "indexed": false,
          "internalType": "uint256",
          "name": "baseAmount",
          "type": "uint256"
        },
        {
          "indexed": false,
          "internalType": "uint256",
          "name": "liqUnits",
          "type": "uint256"
        },
        {
          "indexed": false,
          "internalType": "uint256",
          "name": "synthAmount",
          "type": "uint256"
        },
        {
          "indexed": false,
          "internalType": "uint256",
          "name": "fee",
          "type": "uint256"
        }
      ],
      "name": "MintSynth",
      "type": "event"
    },
    {
      "anonymous": false,
      "inputs": [
        {
          "indexed": true,
          "internalType": "address",
          "name": "member",
          "type": "address"
        },
        {
          "indexed": false,
          "internalType": "uint256",
          "name": "outputBase",
          "type": "uint256"
        },
        {
          "indexed": false,
          "internalType": "uint256",
          "name": "outputToken",
          "type": "uint256"
        },
        {
          "indexed": false,
          "internalType": "uint256",
          "name": "unitsClaimed",
          "type": "uint256"
        }
      ],
      "name": "RemoveLiquidity",
      "type": "event"
    },
    {
      "anonymous": false,
      "inputs": [
        {
          "indexed": true,
          "internalType": "address",
          "name": "tokenFrom",
          "type": "address"
        },
        {
          "indexed": true,
          "internalType": "address",
          "name": "tokenTo",
          "type": "address"
        },
        {
          "indexed": true,
          "internalType": "address",
          "name": "recipient",
          "type": "address"
        },
        {
          "indexed": false,
          "internalType": "uint256",
          "name": "inputAmount",
          "type": "uint256"
        },
        {
          "indexed": false,
          "internalType": "uint256",
          "name": "outputAmount",
          "type": "uint256"
        },
        {
          "indexed": false,
          "internalType": "uint256",
          "name": "fee",
          "type": "uint256"
        }
      ],
      "name": "Swapped",
      "type": "event"
    },
    {
      "anonymous": false,
      "inputs": [
        {
          "indexed": true,
          "internalType": "address",
          "name": "from",
          "type": "address"
        },
        {
          "indexed": true,
          "internalType": "address",
          "name": "to",
          "type": "address"
        },
        {
          "indexed": false,
          "internalType": "uint256",
          "name": "value",
          "type": "uint256"
        }
      ],
      "name": "Transfer",
      "type": "event"
    },
    {
      "inputs": [],
      "name": "BASE",
      "outputs": [
        {
          "internalType": "address",
          "name": "",
          "type": "address"
        }
      ],
      "stateMutability": "view",
      "type": "function"
    },
    {
      "inputs": [
        {
          "internalType": "uint256",
          "name": "_newRTC",
          "type": "uint256"
        }
      ],
      "name": "RTC",
      "outputs": [],
      "stateMutability": "nonpayable",
      "type": "function"
    },
    {
      "inputs": [],
      "name": "SYNTH",
      "outputs": [
        {
          "internalType": "address",
          "name": "",
          "type": "address"
        }
      ],
      "stateMutability": "view",
      "type": "function"
    },
    {
      "inputs": [],
      "name": "TOKEN",
      "outputs": [
        {
          "internalType": "address",
          "name": "",
          "type": "address"
        }
      ],
      "stateMutability": "view",
      "type": "function"
    },
    {
      "inputs": [
        {
          "internalType": "address",
          "name": "member",
          "type": "address"
        }
      ],
      "name": "addForMember",
      "outputs": [
        {
          "internalType": "uint256",
          "name": "liquidityUnits",
          "type": "uint256"
        }
      ],
      "stateMutability": "nonpayable",
      "type": "function"
    },
    {
      "inputs": [
        {
          "internalType": "address",
          "name": "owner",
          "type": "address"
        },
        {
          "internalType": "address",
          "name": "spender",
          "type": "address"
        }
      ],
      "name": "allowance",
      "outputs": [
        {
          "internalType": "uint256",
          "name": "",
          "type": "uint256"
        }
      ],
      "stateMutability": "view",
      "type": "function"
    },
    {
      "inputs": [
        {
          "internalType": "address",
          "name": "spender",
          "type": "address"
        },
        {
          "internalType": "uint256",
          "name": "amount",
          "type": "uint256"
        }
      ],
      "name": "approve",
      "outputs": [
        {
          "internalType": "bool",
          "name": "",
          "type": "bool"
        }
      ],
      "stateMutability": "nonpayable",
      "type": "function"
    },
    {
      "inputs": [
        {
          "internalType": "address",
          "name": "account",
          "type": "address"
        }
      ],
      "name": "balanceOf",
      "outputs": [
        {
          "internalType": "uint256",
          "name": "",
          "type": "uint256"
        }
      ],
      "stateMutability": "view",
      "type": "function"
    },
    {
      "inputs": [],
      "name": "baseAmount",
      "outputs": [
        {
          "internalType": "uint256",
          "name": "",
          "type": "uint256"
        }
      ],
      "stateMutability": "view",
      "type": "function"
    },
    {
      "inputs": [
        {
          "internalType": "uint256",
          "name": "amount",
          "type": "uint256"
        }
      ],
      "name": "burn",
      "outputs": [],
      "stateMutability": "nonpayable",
      "type": "function"
    },
    {
      "inputs": [
        {
          "internalType": "address",
          "name": "member",
          "type": "address"
        }
      ],
      "name": "burnSynth",
      "outputs": [
        {
          "internalType": "uint256",
          "name": "outputAmount",
          "type": "uint256"
        },
        {
          "internalType": "uint256",
          "name": "fee",
          "type": "uint256"
        }
      ],
      "stateMutability": "nonpayable",
      "type": "function"
    },
    {
      "inputs": [],
      "name": "decimals",
      "outputs": [
        {
          "internalType": "uint8",
          "name": "",
          "type": "uint8"
        }
      ],
      "stateMutability": "view",
      "type": "function"
    },
    {
      "inputs": [
        {
          "internalType": "address",
          "name": "spender",
          "type": "address"
        },
        {
          "internalType": "uint256",
          "name": "subtractedValue",
          "type": "uint256"
        }
      ],
      "name": "decreaseAllowance",
      "outputs": [
        {
          "internalType": "bool",
          "name": "",
          "type": "bool"
        }
      ],
      "stateMutability": "nonpayable",
      "type": "function"
    },
    {
      "inputs": [
        {
          "internalType": "uint256",
          "name": "newPeriod",
          "type": "uint256"
        }
      ],
      "name": "flipFreeze",
      "outputs": [],
      "stateMutability": "nonpayable",
      "type": "function"
    },
    {
      "inputs": [],
      "name": "freeze",
      "outputs": [
        {
          "internalType": "bool",
          "name": "",
          "type": "bool"
        }
      ],
      "stateMutability": "view",
      "type": "function"
    },
    {
      "inputs": [],
      "name": "genesis",
      "outputs": [
        {
          "internalType": "uint256",
          "name": "",
          "type": "uint256"
        }
      ],
      "stateMutability": "view",
      "type": "function"
    },
    {
      "inputs": [
        {
          "internalType": "address",
          "name": "spender",
          "type": "address"
        },
        {
          "internalType": "uint256",
          "name": "addedValue",
          "type": "uint256"
        }
      ],
      "name": "increaseAllowance",
      "outputs": [
        {
          "internalType": "bool",
          "name": "",
          "type": "bool"
        }
      ],
      "stateMutability": "nonpayable",
      "type": "function"
    },
    {
      "inputs": [],
      "name": "map30DPoolRevenue",
      "outputs": [
        {
          "internalType": "uint256",
          "name": "",
          "type": "uint256"
        }
      ],
      "stateMutability": "view",
      "type": "function"
    },
    {
      "inputs": [],
      "name": "mapPast30DPoolRevenue",
      "outputs": [
        {
          "internalType": "uint256",
          "name": "",
          "type": "uint256"
        }
      ],
      "stateMutability": "view",
      "type": "function"
    },
    {
      "inputs": [
        {
          "internalType": "address",
          "name": "member",
          "type": "address"
        }
      ],
      "name": "mintSynth",
      "outputs": [
        {
          "internalType": "uint256",
          "name": "outputAmount",
          "type": "uint256"
        },
        {
          "internalType": "uint256",
          "name": "fee",
          "type": "uint256"
        }
      ],
      "stateMutability": "nonpayable",
      "type": "function"
    },
    {
      "inputs": [],
      "name": "name",
      "outputs": [
        {
          "internalType": "string",
          "name": "",
          "type": "string"
        }
      ],
      "stateMutability": "view",
      "type": "function"
    },
    {
      "inputs": [
        {
          "internalType": "address",
          "name": "member",
          "type": "address"
        }
      ],
      "name": "removeForMember",
      "outputs": [
        {
          "internalType": "uint256",
          "name": "outputBase",
          "type": "uint256"
        },
        {
          "internalType": "uint256",
          "name": "outputToken",
          "type": "uint256"
        }
      ],
      "stateMutability": "nonpayable",
      "type": "function"
    },
    {
      "inputs": [
        {
          "internalType": "uint256",
          "name": "_newFreezePoint",
          "type": "uint256"
        }
      ],
      "name": "setFreezePoint",
      "outputs": [],
      "stateMutability": "nonpayable",
      "type": "function"
    },
    {
      "inputs": [
        {
          "internalType": "uint256",
          "name": "newInitiation",
          "type": "uint256"
        }
      ],
      "name": "setInitiation",
      "outputs": [],
      "stateMutability": "nonpayable",
      "type": "function"
    },
    {
      "inputs": [
        {
          "internalType": "uint256",
          "name": "_synthCap",
          "type": "uint256"
        }
      ],
      "name": "setSynthCap",
      "outputs": [],
      "stateMutability": "nonpayable",
      "type": "function"
    },
    {
      "inputs": [
        {
          "internalType": "address",
          "name": "token",
          "type": "address"
        },
        {
          "internalType": "address",
          "name": "member",
          "type": "address"
        }
      ],
      "name": "swapTo",
      "outputs": [
        {
          "internalType": "uint256",
          "name": "outputAmount",
          "type": "uint256"
        },
        {
          "internalType": "uint256",
          "name": "fee",
          "type": "uint256"
        }
      ],
      "stateMutability": "nonpayable",
      "type": "function"
    },
    {
      "inputs": [],
      "name": "symbol",
      "outputs": [
        {
          "internalType": "string",
          "name": "",
          "type": "string"
        }
      ],
      "stateMutability": "view",
      "type": "function"
    },
    {
      "inputs": [],
      "name": "sync",
      "outputs": [],
      "stateMutability": "nonpayable",
      "type": "function"
    },
    {
      "inputs": [],
      "name": "tokenAmount",
      "outputs": [
        {
          "internalType": "uint256",
          "name": "",
          "type": "uint256"
        }
      ],
      "stateMutability": "view",
      "type": "function"
    },
    {
      "inputs": [],
      "name": "totalSupply",
      "outputs": [
        {
          "internalType": "uint256",
          "name": "",
          "type": "uint256"
        }
      ],
      "stateMutability": "view",
      "type": "function"
    },
    {
      "inputs": [
        {
          "internalType": "address",
          "name": "recipient",
          "type": "address"
        },
        {
          "internalType": "uint256",
          "name": "amount",
          "type": "uint256"
        }
      ],
      "name": "transfer",
      "outputs": [
        {
          "internalType": "bool",
          "name": "",
          "type": "bool"
        }
      ],
      "stateMutability": "nonpayable",
      "type": "function"
    },
    {
      "inputs": [
        {
          "internalType": "address",
          "name": "sender",
          "type": "address"
        },
        {
          "internalType": "address",
          "name": "recipient",
          "type": "address"
        },
        {
          "internalType": "uint256",
          "name": "amount",
          "type": "uint256"
        }
      ],
      "name": "transferFrom",
      "outputs": [
        {
          "internalType": "bool",
          "name": "",
          "type": "bool"
        }
      ],
      "stateMutability": "nonpayable",
      "type": "function"
    }
  ],
  "bytecode": "0x6101006040523480156200001257600080fd5b506040516200644e3803806200644e833981810160405281019062000038919062000446565b8173ffffffffffffffffffffffffffffffffffffffff1660808173ffffffffffffffffffffffffffffffffffffffff1660601b815250508073ffffffffffffffffffffffffffffffffffffffff1660a08173ffffffffffffffffffffffffffffffffffffffff1660601b8152505060006040518060400160405280601481526020017f2d5370617274616e50726f746f636f6c506f6f6c000000000000000000000000815250905060006040518060400160405280600481526020017f2d5350500000000000000000000000000000000000000000000000000000000081525090508273ffffffffffffffffffffffffffffffffffffffff166306fdde036040518163ffffffff1660e01b815260040160006040518083038186803b1580156200016157600080fd5b505afa15801562000176573d6000803e3d6000fd5b505050506040513d6000823e3d601f19601f82011682018060405250810190620001a1919062000487565b82604051602001620001b592919062000503565b604051602081830303815290604052600c9080519060200190620001db9291906200030d565b508273ffffffffffffffffffffffffffffffffffffffff166395d89b416040518163ffffffff1660e01b815260040160006040518083038186803b1580156200022357600080fd5b505afa15801562000238573d6000803e3d6000fd5b505050506040513d6000823e3d601f19601f8201168201806040525081019062000263919062000487565b816040516020016200027792919062000503565b604051602081830303815290604052600d90805190602001906200029d9291906200030d565b50601260ff1660c08160ff1660f81b815250504260e08181525050426003819055506109c4600081905550610bb860048190555069152d02c7e14af680000060018190555060006006819055506000600981905550603c600781905550613840600a8190555050505050620006ff565b8280546200031b906200060a565b90600052602060002090601f0160209004810192826200033f57600085556200038b565b82601f106200035a57805160ff19168380011785556200038b565b828001600101855582156200038b579182015b828111156200038a5782518255916020019190600101906200036d565b5b5090506200039a91906200039e565b5090565b5b80821115620003b95760008160009055506001016200039f565b5090565b6000620003d4620003ce8462000554565b6200052b565b905082815260208101848484011115620003ed57600080fd5b620003fa848285620005d4565b509392505050565b6000815190506200041381620006e5565b92915050565b600082601f8301126200042b57600080fd5b81516200043d848260208601620003bd565b91505092915050565b600080604083850312156200045a57600080fd5b60006200046a8582860162000402565b92505060206200047d8582860162000402565b9150509250929050565b6000602082840312156200049a57600080fd5b600082015167ffffffffffffffff811115620004b557600080fd5b620004c38482850162000419565b91505092915050565b6000620004d9826200058a565b620004e5818562000595565b9350620004f7818560208601620005d4565b80840191505092915050565b6000620005118285620004cc565b91506200051f8284620004cc565b91508190509392505050565b6000620005376200054a565b905062000545828262000640565b919050565b6000604051905090565b600067ffffffffffffffff821115620005725762000571620006a5565b5b6200057d82620006d4565b9050602081019050919050565b600081519050919050565b600081905092915050565b6000620005ad82620005b4565b9050919050565b600073ffffffffffffffffffffffffffffffffffffffff82169050919050565b60005b83811015620005f4578082015181840152602081019050620005d7565b8381111562000604576000848401525b50505050565b600060028204905060018216806200062357607f821691505b602082108114156200063a576200063962000676565b5b50919050565b6200064b82620006d4565b810181811067ffffffffffffffff821117156200066d576200066c620006a5565b5b80604052505050565b7f4e487b7100000000000000000000000000000000000000000000000000000000600052602260045260246000fd5b7f4e487b7100000000000000000000000000000000000000000000000000000000600052604160045260246000fd5b6000601f19601f8301169050919050565b620006f081620005a0565b8114620006fc57600080fd5b50565b60805160601c60a05160601c60c05160f81c60e051615c80620007ce60003960008181611c5c015261211601526000610cee015260008181610a9d01528181610b4d01528181611425015281816122ae0152818161240a01528181612cdd0152818161348d01528181613cef0152818161428a01526147f2015260008181610a4801528181610af901528181610b90015281816117f7015281816121ff0152818161235401528181612a9c01528181612d6f01528181613c40015281816141e401526145490152615c806000f3fe608060405234801561001057600080fd5b50600436106101f05760003560e01c806386d5f6181161010f578063dbfc5a04116100a2578063eec7faa111610071578063eec7faa1146105fc578063f1bbdef21461061a578063fb1953631461064b578063fff6cae914610667576101f0565b8063dbfc5a041461055f578063dd62ed3e14610590578063e1eddde3146105c0578063ec342ad0146105de576101f0565b8063a7f0b3de116100de578063a7f0b3de146104c4578063a9059cbb146104e2578063ba8e3edd14610512578063bc5dedc91461052e576101f0565b806386d5f6181461042a57806395d89b411461045a5780639d3f87e214610478578063a457c2d714610494576101f0565b8063474e73021161018757806370a082311161015657806370a08231146103a2578063752d7793146103d25780637ec3eae5146103f057806382bfefc81461040c576101f0565b8063474e73021461032c5780634864d140146103485780635f83e5d51461036657806362a5af3b14610384576101f0565b80632783e4a9116101c35780632783e4a914610291578063313ce567146102c257806339509351146102e057806342966c6814610310576101f0565b806306fdde03146101f5578063095ea7b31461021357806318160ddd1461024357806323b872dd14610261575b600080fd5b6101fd610671565b60405161020a91906155a4565b60405180910390f35b61022d600480360381019061022891906152d2565b610703565b60405161023a9190615589565b60405180910390f35b61024b61071a565b60405161025891906156a6565b60405180910390f35b61027b60048036038101906102769190615283565b610720565b6040516102889190615589565b60405180910390f35b6102ab60048036038101906102a69190615247565b610813565b6040516102b9929190615721565b60405180910390f35b6102ca610cec565b6040516102d79190615819565b60405180910390f35b6102fa60048036038101906102f591906152d2565b610d10565b6040516103079190615589565b60405180910390f35b61032a60048036038101906103259190615360565b610dae565b005b61034660048036038101906103419190615360565b610f17565b005b610350611160565b60405161035d91906156a6565b60405180910390f35b61036e611166565b60405161037b91906156a6565b60405180910390f35b61038c61116c565b6040516103999190615589565b60405180910390f35b6103bc60048036038101906103b791906151f5565b61117f565b6040516103c991906156a6565b60405180910390f35b6103da6111c8565b6040516103e791906156a6565b60405180910390f35b61040a60048036038101906104059190615360565b6111ce565b005b610414611423565b604051610421919061551c565b60405180910390f35b610444600480360381019061043f91906151f5565b611447565b60405161045191906156a6565b60405180910390f35b6104626118a8565b60405161046f91906155a4565b60405180910390f35b610492600480360381019061048d9190615360565b61193a565b005b6104ae60048036038101906104a991906152d2565b611b74565b6040516104bb9190615589565b60405180910390f35b6104cc611c5a565b6040516104d991906156a6565b60405180910390f35b6104fc60048036038101906104f791906152d2565b611c7e565b6040516105099190615589565b60405180910390f35b61052c60048036038101906105279190615360565b611c95565b005b610548600480360381019061054391906151f5565b611ede565b604051610556929190615721565b60405180910390f35b610579600480360381019061057491906151f5565b612517565b604051610587929190615721565b60405180910390f35b6105aa60048036038101906105a59190615247565b612bb2565b6040516105b791906156a6565b60405180910390f35b6105c8612c39565b6040516105d5919061551c565b60405180910390f35b6105e6612d6d565b6040516105f3919061551c565b60405180910390f35b610604612d91565b60405161061191906156a6565b60405180910390f35b610634600480360381019061062f91906151f5565b612d97565b604051610642929190615721565b60405180910390f35b61066560048036038101906106609190615360565b613791565b005b61066f613a0e565b005b6060600c8054610680906159ff565b80601f01602080910402602001604051908101604052809291908181526020018280546106ac906159ff565b80156106f95780601f106106ce576101008083540402835291602001916106f9565b820191906000526020600020905b8154815290600101906020018083116106dc57829003601f168201915b5050505050905090565b6000610710338484613d9e565b6001905092915050565b600e5481565b600061072d848484613f69565b6000601060008673ffffffffffffffffffffffffffffffffffffffff1673ffffffffffffffffffffffffffffffffffffffff16815260200190815260200160002060003373ffffffffffffffffffffffffffffffffffffffff1673ffffffffffffffffffffffffffffffffffffffff168152602001908152602001600020549050828110156107f1576040517f08c379a00000000000000000000000000000000000000000000000000000000081526004016107e8906155e6565b60405180910390fd5b610807853385846108029190615931565b613d9e565b60019150509392505050565b60008061081e6141e0565b73ffffffffffffffffffffffffffffffffffffffff166332fe7b266040518163ffffffff1660e01b815260040160206040518083038186803b15801561086357600080fd5b505afa158015610877573d6000803e3d6000fd5b505050506040513d601f19601f8201168201806040525081019061089b919061521e565b73ffffffffffffffffffffffffffffffffffffffff163373ffffffffffffffffffffffffffffffffffffffff16148061098357506108d76141e0565b73ffffffffffffffffffffffffffffffffffffffff16632ab24e496040518163ffffffff1660e01b815260040160206040518083038186803b15801561091c57600080fd5b505afa158015610930573d6000803e3d6000fd5b505050506040513d601f19601f82011682018060405250810190610954919061521e565b73ffffffffffffffffffffffffffffffffffffffff163373ffffffffffffffffffffffffffffffffffffffff16145b80610a3d57506109916141e0565b73ffffffffffffffffffffffffffffffffffffffff1663b99b0a0c6040518163ffffffff1660e01b815260040160206040518083038186803b1580156109d657600080fd5b505afa1580156109ea573d6000803e3d6000fd5b505050506040513d601f19601f82011682018060405250810190610a0e919061521e565b73ffffffffffffffffffffffffffffffffffffffff163373ffffffffffffffffffffffffffffffffffffffff16145b610a4657600080fd5b7f000000000000000000000000000000000000000000000000000000000000000073ffffffffffffffffffffffffffffffffffffffff168473ffffffffffffffffffffffffffffffffffffffff161480610aeb57507f000000000000000000000000000000000000000000000000000000000000000073ffffffffffffffffffffffffffffffffffffffff168473ffffffffffffffffffffffffffffffffffffffff16145b610af457600080fd5b6000807f000000000000000000000000000000000000000000000000000000000000000073ffffffffffffffffffffffffffffffffffffffff168673ffffffffffffffffffffffffffffffffffffffff161415610b8e577f00000000000000000000000000000000000000000000000000000000000000009150610b76614285565b9050610b818161435b565b8094508195505050610bcd565b7f00000000000000000000000000000000000000000000000000000000000000009150610bb9614544565b9050610bc48161461a565b80945081955050505b8473ffffffffffffffffffffffffffffffffffffffff168673ffffffffffffffffffffffffffffffffffffffff168373ffffffffffffffffffffffffffffffffffffffff167fc9163c3bdf7263acf1bb3d24072cc7da025f7181c31e2edc7e1673edf5e0ca32848888604051610c459392919061574a565b60405180910390a48573ffffffffffffffffffffffffffffffffffffffff1663a9059cbb86866040518363ffffffff1660e01b8152600401610c88929190615560565b602060405180830381600087803b158015610ca257600080fd5b505af1158015610cb6573d6000803e3d6000fd5b505050506040513d601f19601f82011682018060405250810190610cda919061530e565b610ce357600080fd5b50509250929050565b7f000000000000000000000000000000000000000000000000000000000000000081565b6000610da4338484601060003373ffffffffffffffffffffffffffffffffffffffff1673ffffffffffffffffffffffffffffffffffffffff16815260200190815260200160002060008873ffffffffffffffffffffffffffffffffffffffff1673ffffffffffffffffffffffffffffffffffffffff16815260200190815260200160002054610d9f9190615850565b613d9e565b6001905092915050565b610db6612c39565b73ffffffffffffffffffffffffffffffffffffffff163373ffffffffffffffffffffffffffffffffffffffff1614610ded57600080fd5b610df56141e0565b73ffffffffffffffffffffffffffffffffffffffff1663b93ec54b6040518163ffffffff1660e01b815260040160206040518083038186803b158015610e3a57600080fd5b505afa158015610e4e573d6000803e3d6000fd5b505050506040513d601f19601f82011682018060405250810190610e72919061521e565b73ffffffffffffffffffffffffffffffffffffffff16635e0237ea610e95612c39565b6040518263ffffffff1660e01b8152600401610eb1919061551c565b60206040518083038186803b158015610ec957600080fd5b505afa158015610edd573d6000803e3d6000fd5b505050506040513d601f19601f82011682018060405250810190610f01919061530e565b610f0a57600080fd5b610f1433826148b3565b50565b610f1f6141e0565b73ffffffffffffffffffffffffffffffffffffffff166332fe7b266040518163ffffffff1660e01b815260040160206040518083038186803b158015610f6457600080fd5b505afa158015610f78573d6000803e3d6000fd5b505050506040513d601f19601f82011682018060405250810190610f9c919061521e565b73ffffffffffffffffffffffffffffffffffffffff163373ffffffffffffffffffffffffffffffffffffffff1614806110845750610fd86141e0565b73ffffffffffffffffffffffffffffffffffffffff16632ab24e496040518163ffffffff1660e01b815260040160206040518083038186803b15801561101d57600080fd5b505afa158015611031573d6000803e3d6000fd5b505050506040513d601f19601f82011682018060405250810190611055919061521e565b73ffffffffffffffffffffffffffffffffffffffff163373ffffffffffffffffffffffffffffffffffffffff16145b8061113e57506110926141e0565b73ffffffffffffffffffffffffffffffffffffffff1663b99b0a0c6040518163ffffffff1660e01b815260040160206040518083038186803b1580156110d757600080fd5b505afa1580156110eb573d6000803e3d6000fd5b505050506040513d601f19601f8201168201806040525081019061110f919061521e565b73ffffffffffffffffffffffffffffffffffffffff163373ffffffffffffffffffffffffffffffffffffffff16145b61114757600080fd5b610bb881111561115657600080fd5b8060008190555050565b60115481565b60145481565b600560009054906101000a900460ff1681565b6000600f60008373ffffffffffffffffffffffffffffffffffffffff1673ffffffffffffffffffffffffffffffffffffffff168152602001908152602001600020549050919050565b60155481565b6111d66141e0565b73ffffffffffffffffffffffffffffffffffffffff166332fe7b266040518163ffffffff1660e01b815260040160206040518083038186803b15801561121b57600080fd5b505afa15801561122f573d6000803e3d6000fd5b505050506040513d601f19601f82011682018060405250810190611253919061521e565b73ffffffffffffffffffffffffffffffffffffffff163373ffffffffffffffffffffffffffffffffffffffff16148061133b575061128f6141e0565b73ffffffffffffffffffffffffffffffffffffffff16632ab24e496040518163ffffffff1660e01b815260040160206040518083038186803b1580156112d457600080fd5b505afa1580156112e8573d6000803e3d6000fd5b505050506040513d601f19601f8201168201806040525081019061130c919061521e565b73ffffffffffffffffffffffffffffffffffffffff163373ffffffffffffffffffffffffffffffffffffffff16145b806113f557506113496141e0565b73ffffffffffffffffffffffffffffffffffffffff1663b99b0a0c6040518163ffffffff1660e01b815260040160206040518083038186803b15801561138e57600080fd5b505afa1580156113a2573d6000803e3d6000fd5b505050506040513d601f19601f820116820180604052508101906113c6919061521e565b73ffffffffffffffffffffffffffffffffffffffff163373ffffffffffffffffffffffffffffffffffffffff16145b6113fe57600080fd5b600260015461140d91906158d7565b81111561141957600080fd5b8060018190555050565b7f000000000000000000000000000000000000000000000000000000000000000081565b60006114516141e0565b73ffffffffffffffffffffffffffffffffffffffff166332fe7b266040518163ffffffff1660e01b815260040160206040518083038186803b15801561149657600080fd5b505afa1580156114aa573d6000803e3d6000fd5b505050506040513d601f19601f820116820180604052508101906114ce919061521e565b73ffffffffffffffffffffffffffffffffffffffff163373ffffffffffffffffffffffffffffffffffffffff1614806115b6575061150a6141e0565b73ffffffffffffffffffffffffffffffffffffffff16632ab24e496040518163ffffffff1660e01b815260040160206040518083038186803b15801561154f57600080fd5b505afa158015611563573d6000803e3d6000fd5b505050506040513d601f19601f82011682018060405250810190611587919061521e565b73ffffffffffffffffffffffffffffffffffffffff163373ffffffffffffffffffffffffffffffffffffffff16145b8061167057506115c46141e0565b73ffffffffffffffffffffffffffffffffffffffff1663b99b0a0c6040518163ffffffff1660e01b815260040160206040518083038186803b15801561160957600080fd5b505afa15801561161d573d6000803e3d6000fd5b505050506040513d601f19601f82011682018060405250810190611641919061521e565b73ffffffffffffffffffffffffffffffffffffffff163373ffffffffffffffffffffffffffffffffffffffff16145b61167957600080fd5b6000611683614544565b9050600061168f614285565b90506116996141e0565b73ffffffffffffffffffffffffffffffffffffffff16637b0e5c456040518163ffffffff1660e01b815260040160206040518083038186803b1580156116de57600080fd5b505afa1580156116f2573d6000803e3d6000fd5b505050506040513d601f19601f82011682018060405250810190611716919061521e565b73ffffffffffffffffffffffffffffffffffffffff1663c5c11ee98360115484601254600e546040518663ffffffff1660e01b815260040161175c9594939291906157c6565b60206040518083038186803b15801561177457600080fd5b505afa158015611788573d6000803e3d6000fd5b505050506040513d601f19601f820116820180604052508101906117ac9190615389565b9250600060115414806117c157506000601254145b1561183b5760006127108460646117d891906158d7565b6117e291906158a6565b905080846117f09190615931565b935061181c7f000000000000000000000000000000000000000000000000000000000000000082614a7d565b81838461182991906158d7565b61183391906158a6565b600281905550505b6118458282614bc6565b61184f8484614a7d565b8373ffffffffffffffffffffffffffffffffffffffff167fbeb3885786d637a474cbc287c0a44587231633a077f0bd30354d5a4b18996fce8383866040516118999392919061574a565b60405180910390a25050919050565b6060600d80546118b7906159ff565b80601f01602080910402602001604051908101604052809291908181526020018280546118e3906159ff565b80156119305780601f1061190557610100808354040283529160200191611930565b820191906000526020600020905b81548152906001019060200180831161191357829003601f168201915b5050505050905090565b6119426141e0565b73ffffffffffffffffffffffffffffffffffffffff166332fe7b266040518163ffffffff1660e01b815260040160206040518083038186803b15801561198757600080fd5b505afa15801561199b573d6000803e3d6000fd5b505050506040513d601f19601f820116820180604052508101906119bf919061521e565b73ffffffffffffffffffffffffffffffffffffffff163373ffffffffffffffffffffffffffffffffffffffff161480611aa757506119fb6141e0565b73ffffffffffffffffffffffffffffffffffffffff16632ab24e496040518163ffffffff1660e01b815260040160206040518083038186803b158015611a4057600080fd5b505afa158015611a54573d6000803e3d6000fd5b505050506040513d601f19601f82011682018060405250810190611a78919061521e565b73ffffffffffffffffffffffffffffffffffffffff163373ffffffffffffffffffffffffffffffffffffffff16145b80611b615750611ab56141e0565b73ffffffffffffffffffffffffffffffffffffffff1663b99b0a0c6040518163ffffffff1660e01b815260040160206040518083038186803b158015611afa57600080fd5b505afa158015611b0e573d6000803e3d6000fd5b505050506040513d601f19601f82011682018060405250810190611b32919061521e565b73ffffffffffffffffffffffffffffffffffffffff163373ffffffffffffffffffffffffffffffffffffffff16145b611b6a57600080fd5b8060048190555050565b600080601060003373ffffffffffffffffffffffffffffffffffffffff1673ffffffffffffffffffffffffffffffffffffffff16815260200190815260200160002060008573ffffffffffffffffffffffffffffffffffffffff1673ffffffffffffffffffffffffffffffffffffffff16815260200190815260200160002054905082811015611c39576040517f08c379a0000000000000000000000000000000000000000000000000000000008152600401611c30906155e6565b60405180910390fd5b611c4f33858584611c4a9190615931565b613d9e565b600191505092915050565b7f000000000000000000000000000000000000000000000000000000000000000081565b6000611c8b338484613f69565b6001905092915050565b611c9d6141e0565b73ffffffffffffffffffffffffffffffffffffffff166332fe7b266040518163ffffffff1660e01b815260040160206040518083038186803b158015611ce257600080fd5b505afa158015611cf6573d6000803e3d6000fd5b505050506040513d601f19601f82011682018060405250810190611d1a919061521e565b73ffffffffffffffffffffffffffffffffffffffff163373ffffffffffffffffffffffffffffffffffffffff161480611e025750611d566141e0565b73ffffffffffffffffffffffffffffffffffffffff16632ab24e496040518163ffffffff1660e01b815260040160206040518083038186803b158015611d9b57600080fd5b505afa158015611daf573d6000803e3d6000fd5b505050506040513d601f19601f82011682018060405250810190611dd3919061521e565b73ffffffffffffffffffffffffffffffffffffffff163373ffffffffffffffffffffffffffffffffffffffff16145b80611ebc5750611e106141e0565b73ffffffffffffffffffffffffffffffffffffffff1663b99b0a0c6040518163ffffffff1660e01b815260040160206040518083038186803b158015611e5557600080fd5b505afa158015611e69573d6000803e3d6000fd5b505050506040513d601f19601f82011682018060405250810190611e8d919061521e565b73ffffffffffffffffffffffffffffffffffffffff163373ffffffffffffffffffffffffffffffffffffffff16145b611ec557600080fd5b62093a808110611ed457600080fd5b8060068190555050565b600080611ee96141e0565b73ffffffffffffffffffffffffffffffffffffffff166332fe7b266040518163ffffffff1660e01b815260040160206040518083038186803b158015611f2e57600080fd5b505afa158015611f42573d6000803e3d6000fd5b505050506040513d601f19601f82011682018060405250810190611f66919061521e565b73ffffffffffffffffffffffffffffffffffffffff163373ffffffffffffffffffffffffffffffffffffffff16148061204e5750611fa26141e0565b73ffffffffffffffffffffffffffffffffffffffff16632ab24e496040518163ffffffff1660e01b815260040160206040518083038186803b158015611fe757600080fd5b505afa158015611ffb573d6000803e3d6000fd5b505050506040513d601f19601f8201168201806040525081019061201f919061521e565b73ffffffffffffffffffffffffffffffffffffffff163373ffffffffffffffffffffffffffffffffffffffff16145b80612108575061205c6141e0565b73ffffffffffffffffffffffffffffffffffffffff1663b99b0a0c6040518163ffffffff1660e01b815260040160206040518083038186803b1580156120a157600080fd5b505afa1580156120b5573d6000803e3d6000fd5b505050506040513d601f19601f820116820180604052508101906120d9919061521e565b73ffffffffffffffffffffffffffffffffffffffff163373ffffffffffffffffffffffffffffffffffffffff16145b61211157600080fd5b6006547f000000000000000000000000000000000000000000000000000000000000000061213f9190615850565b421161214a57600080fd5b60006121553061117f565b905060006121616141e0565b73ffffffffffffffffffffffffffffffffffffffff16637b0e5c456040518163ffffffff1660e01b815260040160206040518083038186803b1580156121a657600080fd5b505afa1580156121ba573d6000803e3d6000fd5b505050506040513d601f19601f820116820180604052508101906121de919061521e565b90508073ffffffffffffffffffffffffffffffffffffffff16635a7b2ed3837f0000000000000000000000000000000000000000000000000000000000000000306040518463ffffffff1660e01b815260040161223d939291906156ea565b60206040518083038186803b15801561225557600080fd5b505afa158015612269573d6000803e3d6000fd5b505050506040513d601f19601f8201168201806040525081019061228d9190615389565b93508073ffffffffffffffffffffffffffffffffffffffff16635a7b2ed3837f0000000000000000000000000000000000000000000000000000000000000000306040518463ffffffff1660e01b81526004016122ec939291906156ea565b60206040518083038186803b15801561230457600080fd5b505afa158015612318573d6000803e3d6000fd5b505050506040513d601f19601f8201168201806040525081019061233c9190615389565b92506123488484614c1f565b61235230836148b3565b7f000000000000000000000000000000000000000000000000000000000000000073ffffffffffffffffffffffffffffffffffffffff1663a9059cbb86866040518363ffffffff1660e01b81526004016123ad929190615560565b602060405180830381600087803b1580156123c757600080fd5b505af11580156123db573d6000803e3d6000fd5b505050506040513d601f19601f820116820180604052508101906123ff919061530e565b61240857600080fd5b7f000000000000000000000000000000000000000000000000000000000000000073ffffffffffffffffffffffffffffffffffffffff1663a9059cbb86856040518363ffffffff1660e01b8152600401612463929190615560565b602060405180830381600087803b15801561247d57600080fd5b505af1158015612491573d6000803e3d6000fd5b505050506040513d601f19601f820116820180604052508101906124b5919061530e565b6124be57600080fd5b8473ffffffffffffffffffffffffffffffffffffffff167f59c3a0b60c6ab7deb62e1440c9e72441db6db7dfe514dba8cb18e60c0d896efa8585856040516125089392919061574a565b60405180910390a25050915091565b6000806125226141e0565b73ffffffffffffffffffffffffffffffffffffffff166332fe7b266040518163ffffffff1660e01b815260040160206040518083038186803b15801561256757600080fd5b505afa15801561257b573d6000803e3d6000fd5b505050506040513d601f19601f8201168201806040525081019061259f919061521e565b73ffffffffffffffffffffffffffffffffffffffff163373ffffffffffffffffffffffffffffffffffffffff16148061268757506125db6141e0565b73ffffffffffffffffffffffffffffffffffffffff16632ab24e496040518163ffffffff1660e01b815260040160206040518083038186803b15801561262057600080fd5b505afa158015612634573d6000803e3d6000fd5b505050506040513d601f19601f82011682018060405250810190612658919061521e565b73ffffffffffffffffffffffffffffffffffffffff163373ffffffffffffffffffffffffffffffffffffffff16145b8061274157506126956141e0565b73ffffffffffffffffffffffffffffffffffffffff1663b99b0a0c6040518163ffffffff1660e01b815260040160206040518083038186803b1580156126da57600080fd5b505afa1580156126ee573d6000803e3d6000fd5b505050506040513d601f19601f82011682018060405250810190612712919061521e565b73ffffffffffffffffffffffffffffffffffffffff163373ffffffffffffffffffffffffffffffffffffffff16145b61274a57600080fd5b6000612754612c39565b9050600073ffffffffffffffffffffffffffffffffffffffff168173ffffffffffffffffffffffffffffffffffffffff16141561279057600080fd5b600061279a6141e0565b73ffffffffffffffffffffffffffffffffffffffff16637b0e5c456040518163ffffffff1660e01b815260040160206040518083038186803b1580156127df57600080fd5b505afa1580156127f3573d6000803e3d6000fd5b505050506040513d601f19601f82011682018060405250810190612817919061521e565b905060008273ffffffffffffffffffffffffffffffffffffffff166370a08231306040518263ffffffff1660e01b8152600401612854919061551c565b60206040518083038186803b15801561286c57600080fd5b505afa158015612880573d6000803e3d6000fd5b505050506040513d601f19601f820116820180604052508101906128a49190615389565b905060008273ffffffffffffffffffffffffffffffffffffffff1663701baaf3836012546011546040518463ffffffff1660e01b81526004016128e99392919061574a565b60206040518083038186803b15801561290157600080fd5b505afa158015612915573d6000803e3d6000fd5b505050506040513d601f19601f820116820180604052508101906129399190615389565b9050600061271061251c8361294e91906158d7565b61295891906158a6565b90508373ffffffffffffffffffffffffffffffffffffffff1663896a708c846012546011546040518463ffffffff1660e01b815260040161299b9392919061574a565b60206040518083038186803b1580156129b357600080fd5b505afa1580156129c7573d6000803e3d6000fd5b505050506040513d601f19601f820116820180604052508101906129eb9190615389565b95506129f8816000614c1f565b612a0186614c5d565b60008573ffffffffffffffffffffffffffffffffffffffff166386450495856040518263ffffffff1660e01b8152600401612a3c91906156a6565b602060405180830381600087803b158015612a5657600080fd5b505af1158015612a6a573d6000803e3d6000fd5b505050506040513d601f19601f82011682018060405250810190612a8e9190615389565b9050612a9a86826148b3565b7f000000000000000000000000000000000000000000000000000000000000000073ffffffffffffffffffffffffffffffffffffffff1663a9059cbb8a846040518363ffffffff1660e01b8152600401612af5929190615560565b602060405180830381600087803b158015612b0f57600080fd5b505af1158015612b23573d6000803e3d6000fd5b505050506040513d601f19601f82011682018060405250810190612b47919061530e565b612b5057600080fd5b8873ffffffffffffffffffffffffffffffffffffffff167f6f3ac8cc4850a948dddb5c85957bbaadcbea6e4b2cef3f02f6af53fcf2596f568383878b604051612b9c9493929190615781565b60405180910390a2819750505050505050915091565b6000601060008473ffffffffffffffffffffffffffffffffffffffff1673ffffffffffffffffffffffffffffffffffffffff16815260200190815260200160002060008373ffffffffffffffffffffffffffffffffffffffff1673ffffffffffffffffffffffffffffffffffffffff16815260200190815260200160002054905092915050565b6000612c436141e0565b73ffffffffffffffffffffffffffffffffffffffff1663b93ec54b6040518163ffffffff1660e01b815260040160206040518083038186803b158015612c8857600080fd5b505afa158015612c9c573d6000803e3d6000fd5b505050506040513d601f19601f82011682018060405250810190612cc0919061521e565b73ffffffffffffffffffffffffffffffffffffffff1663dcec81167f00000000000000000000000000000000000000000000000000000000000000006040518263ffffffff1660e01b8152600401612d18919061551c565b60206040518083038186803b158015612d3057600080fd5b505afa158015612d44573d6000803e3d6000fd5b505050506040513d601f19601f82011682018060405250810190612d68919061521e565b905090565b7f000000000000000000000000000000000000000000000000000000000000000081565b60125481565b600080612da26141e0565b73ffffffffffffffffffffffffffffffffffffffff166332fe7b266040518163ffffffff1660e01b815260040160206040518083038186803b158015612de757600080fd5b505afa158015612dfb573d6000803e3d6000fd5b505050506040513d601f19601f82011682018060405250810190612e1f919061521e565b73ffffffffffffffffffffffffffffffffffffffff163373ffffffffffffffffffffffffffffffffffffffff161480612f075750612e5b6141e0565b73ffffffffffffffffffffffffffffffffffffffff16632ab24e496040518163ffffffff1660e01b815260040160206040518083038186803b158015612ea057600080fd5b505afa158015612eb4573d6000803e3d6000fd5b505050506040513d601f19601f82011682018060405250810190612ed8919061521e565b73ffffffffffffffffffffffffffffffffffffffff163373ffffffffffffffffffffffffffffffffffffffff16145b80612fc15750612f156141e0565b73ffffffffffffffffffffffffffffffffffffffff1663b99b0a0c6040518163ffffffff1660e01b815260040160206040518083038186803b158015612f5a57600080fd5b505afa158015612f6e573d6000803e3d6000fd5b505050506040513d601f19601f82011682018060405250810190612f92919061521e565b73ffffffffffffffffffffffffffffffffffffffff163373ffffffffffffffffffffffffffffffffffffffff16145b612fca57600080fd5b6000612fd4612c39565b9050612fde6141e0565b73ffffffffffffffffffffffffffffffffffffffff166332fe7b266040518163ffffffff1660e01b815260040160206040518083038186803b15801561302357600080fd5b505afa158015613037573d6000803e3d6000fd5b505050506040513d601f19601f8201168201806040525081019061305b919061521e565b73ffffffffffffffffffffffffffffffffffffffff1663940c4abc6040518163ffffffff1660e01b815260040160206040518083038186803b1580156130a057600080fd5b505afa1580156130b4573d6000803e3d6000fd5b505050506040513d601f19601f820116820180604052508101906130d8919061530e565b6130e157600080fd5b6130e96141e0565b73ffffffffffffffffffffffffffffffffffffffff1663b93ec54b6040518163ffffffff1660e01b815260040160206040518083038186803b15801561312e57600080fd5b505afa158015613142573d6000803e3d6000fd5b505050506040513d601f19601f82011682018060405250810190613166919061521e565b73ffffffffffffffffffffffffffffffffffffffff16635e0237ea826040518263ffffffff1660e01b815260040161319e919061551c565b60206040518083038186803b1580156131b657600080fd5b505afa1580156131ca573d6000803e3d6000fd5b505050506040513d601f19601f820116820180604052508101906131ee919061530e565b6131f757600080fd5b60006132016141e0565b73ffffffffffffffffffffffffffffffffffffffff16637b0e5c456040518163ffffffff1660e01b815260040160206040518083038186803b15801561324657600080fd5b505afa15801561325a573d6000803e3d6000fd5b505050506040513d601f19601f8201168201806040525081019061327e919061521e565b9050600061328a614544565b9050600061329784614cc6565b90508273ffffffffffffffffffffffffffffffffffffffff1663701baaf3836011546012546040518463ffffffff1660e01b81526004016132da9392919061574a565b60206040518083038186803b1580156132f257600080fd5b505afa158015613306573d6000803e3d6000fd5b505050506040513d601f19601f8201168201806040525081019061332a9190615389565b95508086111561333957600080fd5b4260098190555060008373ffffffffffffffffffffffffffffffffffffffff1663b86a82ef84306040518363ffffffff1660e01b815260040161337d9291906156c1565b60206040518083038186803b15801561339557600080fd5b505afa1580156133a9573d6000803e3d6000fd5b505050506040513d601f19601f820116820180604052508101906133cd9190615389565b90506133da836000614bc6565b60008473ffffffffffffffffffffffffffffffffffffffff1663896a708c856011546012546040518463ffffffff1660e01b815260040161341d9392919061574a565b60206040518083038186803b15801561343557600080fd5b505afa158015613449573d6000803e3d6000fd5b505050506040513d601f19601f8201168201806040525081019061346d9190615389565b90508473ffffffffffffffffffffffffffffffffffffffff1663c19387df7f0000000000000000000000000000000000000000000000000000000000000000836040518363ffffffff1660e01b81526004016134ca929190615560565b60206040518083038186803b1580156134e257600080fd5b505afa1580156134f6573d6000803e3d6000fd5b505050506040513d601f19601f8201168201806040525081019061351a9190615389565b96506135268683614a7d565b8573ffffffffffffffffffffffffffffffffffffffff166332f302e361354a6141e0565b73ffffffffffffffffffffffffffffffffffffffff16632ab24e496040518163ffffffff1660e01b815260040160206040518083038186803b15801561358f57600080fd5b505afa1580156135a3573d6000803e3d6000fd5b505050506040513d601f19601f820116820180604052508101906135c7919061521e565b8a6040518363ffffffff1660e01b81526004016135e5929190615560565b602060405180830381600087803b1580156135ff57600080fd5b505af1158015613613573d6000803e3d6000fd5b505050506040513d601f19601f820116820180604052508101906136379190615389565b506136406141e0565b73ffffffffffffffffffffffffffffffffffffffff16632ab24e496040518163ffffffff1660e01b815260040160206040518083038186803b15801561368557600080fd5b505afa158015613699573d6000803e3d6000fd5b505050506040513d601f19601f820116820180604052508101906136bd919061521e565b73ffffffffffffffffffffffffffffffffffffffff16634335a95c878b6040518363ffffffff1660e01b81526004016136f7929190615537565b600060405180830381600087803b15801561371157600080fd5b505af1158015613725573d6000803e3d6000fd5b5050505061373287614c5d565b8873ffffffffffffffffffffffffffffffffffffffff167fbaff1e38597e99ccc6d6abf0e271a32ee3dc24114ea5bec3f05afd9bbb19f1f585848b8b60405161377e9493929190615781565b60405180910390a2505050505050915091565b6137996141e0565b73ffffffffffffffffffffffffffffffffffffffff166332fe7b266040518163ffffffff1660e01b815260040160206040518083038186803b1580156137de57600080fd5b505afa1580156137f2573d6000803e3d6000fd5b505050506040513d601f19601f82011682018060405250810190613816919061521e565b73ffffffffffffffffffffffffffffffffffffffff163373ffffffffffffffffffffffffffffffffffffffff1614806138fe57506138526141e0565b73ffffffffffffffffffffffffffffffffffffffff16632ab24e496040518163ffffffff1660e01b815260040160206040518083038186803b15801561389757600080fd5b505afa1580156138ab573d6000803e3d6000fd5b505050506040513d601f19601f820116820180604052508101906138cf919061521e565b73ffffffffffffffffffffffffffffffffffffffff163373ffffffffffffffffffffffffffffffffffffffff16145b806139b8575061390c6141e0565b73ffffffffffffffffffffffffffffffffffffffff1663b99b0a0c6040518163ffffffff1660e01b815260040160206040518083038186803b15801561395157600080fd5b505afa158015613965573d6000803e3d6000fd5b505050506040513d601f19601f82011682018060405250810190613989919061521e565b73ffffffffffffffffffffffffffffffffffffffff163373ffffffffffffffffffffffffffffffffffffffff16145b6139c157600080fd5b61024481106139cf57600080fd5b600560009054906101000a900460ff1615600560006101000a81548160ff0219169083151502179055508042613a059190615850565b60038190555050565b613a166141e0565b73ffffffffffffffffffffffffffffffffffffffff166398fabd3a6040518163ffffffff1660e01b815260040160206040518083038186803b158015613a5b57600080fd5b505afa158015613a6f573d6000803e3d6000fd5b505050506040513d601f19601f82011682018060405250810190613a93919061521e565b73ffffffffffffffffffffffffffffffffffffffff163373ffffffffffffffffffffffffffffffffffffffff161480613b7b5750613acf6141e0565b73ffffffffffffffffffffffffffffffffffffffff166332fe7b266040518163ffffffff1660e01b815260040160206040518083038186803b158015613b1457600080fd5b505afa158015613b28573d6000803e3d6000fd5b505050506040513d601f19601f82011682018060405250810190613b4c919061521e565b73ffffffffffffffffffffffffffffffffffffffff163373ffffffffffffffffffffffffffffffffffffffff16145b80613c355750613b896141e0565b73ffffffffffffffffffffffffffffffffffffffff16632ab24e496040518163ffffffff1660e01b815260040160206040518083038186803b158015613bce57600080fd5b505afa158015613be2573d6000803e3d6000fd5b505050506040513d601f19601f82011682018060405250810190613c06919061521e565b73ffffffffffffffffffffffffffffffffffffffff163373ffffffffffffffffffffffffffffffffffffffff16145b613c3e57600080fd5b7f000000000000000000000000000000000000000000000000000000000000000073ffffffffffffffffffffffffffffffffffffffff166370a08231306040518263ffffffff1660e01b8152600401613c97919061551c565b60206040518083038186803b158015613caf57600080fd5b505afa158015613cc3573d6000803e3d6000fd5b505050506040513d601f19601f82011682018060405250810190613ce79190615389565b6011819055507f000000000000000000000000000000000000000000000000000000000000000073ffffffffffffffffffffffffffffffffffffffff166370a08231306040518263ffffffff1660e01b8152600401613d46919061551c565b60206040518083038186803b158015613d5e57600080fd5b505afa158015613d72573d6000803e3d6000fd5b505050506040513d601f19601f82011682018060405250810190613d969190615389565b601281905550565b600073ffffffffffffffffffffffffffffffffffffffff168373ffffffffffffffffffffffffffffffffffffffff161415613e0e576040517f08c379a0000000000000000000000000000000000000000000000000000000008152600401613e0590615686565b60405180910390fd5b600073ffffffffffffffffffffffffffffffffffffffff168273ffffffffffffffffffffffffffffffffffffffff161415613e7e576040517f08c379a0000000000000000000000000000000000000000000000000000000008152600401613e7590615646565b60405180910390fd5b80601060008573ffffffffffffffffffffffffffffffffffffffff1673ffffffffffffffffffffffffffffffffffffffff16815260200190815260200160002060008473ffffffffffffffffffffffffffffffffffffffff1673ffffffffffffffffffffffffffffffffffffffff168152602001908152602001600020819055508173ffffffffffffffffffffffffffffffffffffffff168373ffffffffffffffffffffffffffffffffffffffff167f8c5be1e5ebec7d5bd14f71427d1e84f3dd0314c0f7b2291e5b200ac8c7c3b92583604051613f5c91906156a6565b60405180910390a3505050565b600073ffffffffffffffffffffffffffffffffffffffff168373ffffffffffffffffffffffffffffffffffffffff161415613fd9576040517f08c379a0000000000000000000000000000000000000000000000000000000008152600401613fd090615666565b60405180910390fd5b600073ffffffffffffffffffffffffffffffffffffffff168273ffffffffffffffffffffffffffffffffffffffff161415614049576040517f08c379a000000000000000000000000000000000000000000000000000000000815260040161404090615626565b60405180910390fd5b6000600f60008573ffffffffffffffffffffffffffffffffffffffff1673ffffffffffffffffffffffffffffffffffffffff168152602001908152602001600020549050818110156140d0576040517f08c379a00000000000000000000000000000000000000000000000000000000081526004016140c790615606565b60405180910390fd5b81816140dc9190615931565b600f60008673ffffffffffffffffffffffffffffffffffffffff1673ffffffffffffffffffffffffffffffffffffffff1681526020019081526020016000208190555081600f60008573ffffffffffffffffffffffffffffffffffffffff1673ffffffffffffffffffffffffffffffffffffffff168152602001908152602001600020600082825461416e9190615850565b925050819055508273ffffffffffffffffffffffffffffffffffffffff168473ffffffffffffffffffffffffffffffffffffffff167fddf252ad1be2c89b69c2b068fc378daa952ba7f163c4a11628f55a4df523b3ef846040516141d291906156a6565b60405180910390a350505050565b60007f000000000000000000000000000000000000000000000000000000000000000073ffffffffffffffffffffffffffffffffffffffff166398fabd3a6040518163ffffffff1660e01b815260040160206040518083038186803b15801561424857600080fd5b505afa15801561425c573d6000803e3d6000fd5b505050506040513d601f19601f820116820180604052508101906142809190615337565b905090565b6000807f000000000000000000000000000000000000000000000000000000000000000073ffffffffffffffffffffffffffffffffffffffff166370a08231306040518263ffffffff1660e01b81526004016142e1919061551c565b60206040518083038186803b1580156142f957600080fd5b505afa15801561430d573d6000803e3d6000fd5b505050506040513d601f19601f820116820180604052508101906143319190615389565b9050601254811115614352576012548161434b9190615931565b9150614357565b600091505b5090565b600080600060125490506000601154905060006143766141e0565b73ffffffffffffffffffffffffffffffffffffffff16637b0e5c456040518163ffffffff1660e01b815260040160206040518083038186803b1580156143bb57600080fd5b505afa1580156143cf573d6000803e3d6000fd5b505050506040513d601f19601f820116820180604052508101906143f3919061521e565b90508073ffffffffffffffffffffffffffffffffffffffff1663701baaf38785856040518463ffffffff1660e01b81526004016144329392919061574a565b60206040518083038186803b15801561444a57600080fd5b505afa15801561445e573d6000803e3d6000fd5b505050506040513d601f19601f820116820180604052508101906144829190615389565b94508073ffffffffffffffffffffffffffffffffffffffff1663896a708c8785856040518463ffffffff1660e01b81526004016144c19392919061574a565b60206040518083038186803b1580156144d957600080fd5b505afa1580156144ed573d6000803e3d6000fd5b505050506040513d601f19601f820116820180604052508101906145119190615389565b935061453385836145229190615931565b878561452e9190615850565b614e2d565b61453c84614c5d565b505050915091565b6000807f000000000000000000000000000000000000000000000000000000000000000073ffffffffffffffffffffffffffffffffffffffff166370a08231306040518263ffffffff1660e01b81526004016145a0919061551c565b60206040518083038186803b1580156145b857600080fd5b505afa1580156145cc573d6000803e3d6000fd5b505050506040513d601f19601f820116820180604052508101906145f09190615389565b9050601154811115614611576011548161460a9190615931565b9150614616565b600091505b5090565b600080600060115490506000601254905060006146356141e0565b73ffffffffffffffffffffffffffffffffffffffff16637b0e5c456040518163ffffffff1660e01b815260040160206040518083038186803b15801561467a57600080fd5b505afa15801561468e573d6000803e3d6000fd5b505050506040513d601f19601f820116820180604052508101906146b2919061521e565b90508073ffffffffffffffffffffffffffffffffffffffff1663701baaf38785856040518463ffffffff1660e01b81526004016146f19392919061574a565b60206040518083038186803b15801561470957600080fd5b505afa15801561471d573d6000803e3d6000fd5b505050506040513d601f19601f820116820180604052508101906147419190615389565b945060008173ffffffffffffffffffffffffffffffffffffffff1663896a708c8886866040518463ffffffff1660e01b81526004016147829392919061574a565b60206040518083038186803b15801561479a57600080fd5b505afa1580156147ae573d6000803e3d6000fd5b505050506040513d601f19601f820116820180604052508101906147d29190615389565b90508173ffffffffffffffffffffffffffffffffffffffff1663c19387df7f0000000000000000000000000000000000000000000000000000000000000000836040518363ffffffff1660e01b815260040161482f929190615560565b60206040518083038186803b15801561484757600080fd5b505afa15801561485b573d6000803e3d6000fd5b505050506040513d601f19601f8201168201806040525081019061487f9190615389565b94506148a187856148909190615850565b878561489c9190615931565b614e2d565b6148aa85614c5d565b50505050915091565b600073ffffffffffffffffffffffffffffffffffffffff168273ffffffffffffffffffffffffffffffffffffffff161415614923576040517f08c379a000000000000000000000000000000000000000000000000000000000815260040161491a906155c6565b60405180910390fd5b6000600f60008473ffffffffffffffffffffffffffffffffffffffff1673ffffffffffffffffffffffffffffffffffffffff168152602001908152602001600020549050818110156149aa576040517f08c379a00000000000000000000000000000000000000000000000000000000081526004016149a190615606565b60405180910390fd5b81816149b69190615931565b600f60008573ffffffffffffffffffffffffffffffffffffffff1673ffffffffffffffffffffffffffffffffffffffff1681526020019081526020016000208190555081600e6000828254614a0b9190615931565b92505081905550600073ffffffffffffffffffffffffffffffffffffffff168373ffffffffffffffffffffffffffffffffffffffff167fddf252ad1be2c89b69c2b068fc378daa952ba7f163c4a11628f55a4df523b3ef84604051614a7091906156a6565b60405180910390a3505050565b600073ffffffffffffffffffffffffffffffffffffffff168273ffffffffffffffffffffffffffffffffffffffff161415614aed576040517f08c379a0000000000000000000000000000000000000000000000000000000008152600401614ae4906155c6565b60405180910390fd5b80600e6000828254614aff9190615850565b9250508190555080600f60008473ffffffffffffffffffffffffffffffffffffffff1673ffffffffffffffffffffffffffffffffffffffff1681526020019081526020016000206000828254614b559190615850565b925050819055508173ffffffffffffffffffffffffffffffffffffffff16600073ffffffffffffffffffffffffffffffffffffffff167fddf252ad1be2c89b69c2b068fc378daa952ba7f163c4a11628f55a4df523b3ef83604051614bba91906156a6565b60405180910390a35050565b60015482601154614bd79190615850565b10614be157600080fd5b8160116000828254614bf39190615850565b925050819055508060126000828254614c0c9190615850565b92505081905550614c1b614e47565b5050565b8160116000828254614c319190615931565b925050819055508060126000828254614c4a9190615931565b92505081905550614c59614e47565b5050565b60006013541415614c7057426013819055505b62278d00601354614c819190615850565b4211614ca05780601454614c959190615850565b601481905550614cc3565b42601381905550601454601581905550614cbb601554614f95565b806014819055505b50565b600080612710600054601254614cdc91906158d7565b614ce691906158a6565b90506000808473ffffffffffffffffffffffffffffffffffffffff166318160ddd6040518163ffffffff1660e01b815260040160206040518083038186803b158015614d3157600080fd5b505afa158015614d45573d6000803e3d6000fd5b505050506040513d601f19601f82011682018060405250810190614d699190615389565b9050828110614d7b5760009350614d8a565b8083614d879190615931565b91505b60006009541415614dce574260098190555042600b8190555060075482614db191906158a6565b600881905550600854600a54614dc791906158d7565b9350614df2565b600060095442614dde9190615931565b905060085481614dee91906158d7565b9450505b600754600b54614e029190615850565b421115614e255760075482614e1791906158a6565b60088190555042600b819055505b505050919050565b8160118190555080601281905550614e43614e47565b5050565b6000601254601154601154614e5c91906158d7565b614e6691906158a6565b90506000600254821115614e895760025482614e829190615931565b9050614e9a565b81600254614e979190615931565b90505b8161271082614ea991906158d7565b614eb391906158a6565b90506004548110614ede576001600560006101000a81548160ff021916908315150217905550614f05565b600354421115614f0457610e1042614ef69190615850565b600381905550816002819055505b5b600560009054906101000a900460ff1615614f91576004548111614f3f576000600560006101000a81548160ff0219169083151502179055505b600354421115614f9057610e1042614f579190615850565b600381905550600060046003600254614f7091906158d7565b84614f7b9190615850565b614f8591906158a6565b905080600281905550505b5b5050565b60006016805480602002602001604051908101604052809291908181526020018280548015614fe357602002820191906000526020600020905b815481526020019060010190808311614fcf575b505050505090506002815114156150df578060018151811061502e577f4e487b7100000000000000000000000000000000000000000000000000000000600052603260045260246000fd5b602002602001015181600081518110615070577f4e487b7100000000000000000000000000000000000000000000000000000000600052603260045260246000fd5b60200260200101818152505081816001815181106150b7577f4e487b7100000000000000000000000000000000000000000000000000000000600052603260045260246000fd5b60200260200101818152505080601690805190602001906150d992919061510d565b50615109565b60168290806001815401808255809150506001900390600052602060002001600090919091909150555b5050565b828054828255906000526020600020908101928215615149579160200282015b8281111561514857825182559160200191906001019061512d565b5b509050615156919061515a565b5090565b5b8082111561517357600081600090555060010161515b565b5090565b60008135905061518681615bee565b92915050565b60008151905061519b81615bee565b92915050565b6000815190506151b081615c05565b92915050565b6000815190506151c581615c1c565b92915050565b6000813590506151da81615c33565b92915050565b6000815190506151ef81615c33565b92915050565b60006020828403121561520757600080fd5b600061521584828501615177565b91505092915050565b60006020828403121561523057600080fd5b600061523e8482850161518c565b91505092915050565b6000806040838503121561525a57600080fd5b600061526885828601615177565b925050602061527985828601615177565b9150509250929050565b60008060006060848603121561529857600080fd5b60006152a686828701615177565b93505060206152b786828701615177565b92505060406152c8868287016151cb565b9150509250925092565b600080604083850312156152e557600080fd5b60006152f385828601615177565b9250506020615304858286016151cb565b9150509250929050565b60006020828403121561532057600080fd5b600061532e848285016151a1565b91505092915050565b60006020828403121561534957600080fd5b6000615357848285016151b6565b91505092915050565b60006020828403121561537257600080fd5b6000615380848285016151cb565b91505092915050565b60006020828403121561539b57600080fd5b60006153a9848285016151e0565b91505092915050565b6153bb81615965565b82525050565b6153ca81615977565b82525050565b60006153db82615834565b6153e5818561583f565b93506153f58185602086016159cc565b6153fe81615abe565b840191505092915050565b600061541660088361583f565b915061542182615acf565b602082019050919050565b600061543960098361583f565b915061544482615af8565b602082019050919050565b600061545c60088361583f565b915061546782615b21565b602082019050919050565b600061547f60058361583f565b915061548a82615b4a565b602082019050919050565b60006154a260088361583f565b91506154ad82615b73565b602082019050919050565b60006154c560078361583f565b91506154d082615b9c565b602082019050919050565b60006154e860068361583f565b91506154f382615bc5565b602082019050919050565b615507816159b5565b82525050565b615516816159bf565b82525050565b600060208201905061553160008301846153b2565b92915050565b600060408201905061554c60008301856153b2565b61555960208301846153b2565b9392505050565b600060408201905061557560008301856153b2565b61558260208301846154fe565b9392505050565b600060208201905061559e60008301846153c1565b92915050565b600060208201905081810360008301526155be81846153d0565b905092915050565b600060208201905081810360008301526155df81615409565b9050919050565b600060208201905081810360008301526155ff8161542c565b9050919050565b6000602082019050818103600083015261561f8161544f565b9050919050565b6000602082019050818103600083015261563f81615472565b9050919050565b6000602082019050818103600083015261565f81615495565b9050919050565b6000602082019050818103600083015261567f816154b8565b9050919050565b6000602082019050818103600083015261569f816154db565b9050919050565b60006020820190506156bb60008301846154fe565b92915050565b60006040820190506156d660008301856154fe565b6156e360208301846153b2565b9392505050565b60006060820190506156ff60008301866154fe565b61570c60208301856153b2565b61571960408301846153b2565b949350505050565b600060408201905061573660008301856154fe565b61574360208301846154fe565b9392505050565b600060608201905061575f60008301866154fe565b61576c60208301856154fe565b61577960408301846154fe565b949350505050565b600060808201905061579660008301876154fe565b6157a360208301866154fe565b6157b060408301856154fe565b6157bd60608301846154fe565b95945050505050565b600060a0820190506157db60008301886154fe565b6157e860208301876154fe565b6157f560408301866154fe565b61580260608301856154fe565b61580f60808301846154fe565b9695505050505050565b600060208201905061582e600083018461550d565b92915050565b600081519050919050565b600082825260208201905092915050565b600061585b826159b5565b9150615866836159b5565b9250827fffffffffffffffffffffffffffffffffffffffffffffffffffffffffffffffff0382111561589b5761589a615a31565b5b828201905092915050565b60006158b1826159b5565b91506158bc836159b5565b9250826158cc576158cb615a60565b5b828204905092915050565b60006158e2826159b5565b91506158ed836159b5565b9250817fffffffffffffffffffffffffffffffffffffffffffffffffffffffffffffffff048311821515161561592657615925615a31565b5b828202905092915050565b600061593c826159b5565b9150615947836159b5565b92508282101561595a57615959615a31565b5b828203905092915050565b600061597082615995565b9050919050565b60008115159050919050565b600061598e82615965565b9050919050565b600073ffffffffffffffffffffffffffffffffffffffff82169050919050565b6000819050919050565b600060ff82169050919050565b60005b838110156159ea5780820151818401526020810190506159cf565b838111156159f9576000848401525b50505050565b60006002820490506001821680615a1757607f821691505b60208210811415615a2b57615a2a615a8f565b5b50919050565b7f4e487b7100000000000000000000000000000000000000000000000000000000600052601160045260246000fd5b7f4e487b7100000000000000000000000000000000000000000000000000000000600052601260045260246000fd5b7f4e487b7100000000000000000000000000000000000000000000000000000000600052602260045260246000fd5b6000601f19601f8301169050919050565b7f216163636f756e74000000000000000000000000000000000000000000000000600082015250565b7f21617070726f76616c0000000000000000000000000000000000000000000000600082015250565b7f2162616c616e6365000000000000000000000000000000000000000000000000600082015250565b7f214255524e000000000000000000000000000000000000000000000000000000600082015250565b7f217370656e646572000000000000000000000000000000000000000000000000600082015250565b7f2173656e64657200000000000000000000000000000000000000000000000000600082015250565b7f216f776e65720000000000000000000000000000000000000000000000000000600082015250565b615bf781615965565b8114615c0257600080fd5b50565b615c0e81615977565b8114615c1957600080fd5b50565b615c2581615983565b8114615c3057600080fd5b50565b615c3c816159b5565b8114615c4757600080fd5b5056fea264697066735822122043dec527a2ecb275a3d98661c083ebae974720f80863a8e1ed9d7329ffbd60b364736f6c63430008030033",
  "linkReferences": {},
  "deployedLinkReferences": {}
}