{
  "_format": "hh-sol-artifact-1",
  "contractName": "Pool",
  "sourceName": "contracts/Pool.sol",
  "abi": [
    {
      "inputs": [
        {
          "internalType": "address",
          "name": "_base",
          "type": "address"
        },
        {
          "internalType": "address",
          "name": "_token",
          "type": "address"
        }
      ],
      "stateMutability": "nonpayable",
      "type": "constructor"
    },
    {
      "anonymous": false,
      "inputs": [
        {
          "indexed": true,
          "internalType": "address",
          "name": "member",
          "type": "address"
        },
        {
          "indexed": false,
          "internalType": "uint256",
          "name": "inputBase",
          "type": "uint256"
        },
        {
          "indexed": false,
          "internalType": "uint256",
          "name": "inputToken",
          "type": "uint256"
        },
        {
          "indexed": false,
          "internalType": "uint256",
          "name": "unitsIssued",
          "type": "uint256"
        }
      ],
      "name": "AddLiquidity",
      "type": "event"
    },
    {
      "anonymous": false,
      "inputs": [
        {
          "indexed": true,
          "internalType": "address",
          "name": "owner",
          "type": "address"
        },
        {
          "indexed": true,
          "internalType": "address",
          "name": "spender",
          "type": "address"
        },
        {
          "indexed": false,
          "internalType": "uint256",
          "name": "value",
          "type": "uint256"
        }
      ],
      "name": "Approval",
      "type": "event"
    },
    {
      "anonymous": false,
      "inputs": [
        {
          "indexed": true,
          "internalType": "address",
          "name": "member",
          "type": "address"
        },
        {
          "indexed": false,
          "internalType": "uint256",
          "name": "baseAmount",
          "type": "uint256"
        },
        {
          "indexed": false,
          "internalType": "uint256",
          "name": "liqUnits",
          "type": "uint256"
        },
        {
          "indexed": false,
          "internalType": "uint256",
          "name": "synthAmount",
          "type": "uint256"
        },
        {
          "indexed": false,
          "internalType": "uint256",
          "name": "fee",
          "type": "uint256"
        }
      ],
      "name": "BurnSynth",
      "type": "event"
    },
    {
      "anonymous": false,
      "inputs": [
        {
          "indexed": true,
          "internalType": "address",
          "name": "member",
          "type": "address"
        },
        {
          "indexed": false,
          "internalType": "uint256",
          "name": "baseAmount",
          "type": "uint256"
        },
        {
          "indexed": false,
          "internalType": "uint256",
          "name": "liqUnits",
          "type": "uint256"
        },
        {
          "indexed": false,
          "internalType": "uint256",
          "name": "synthAmount",
          "type": "uint256"
        },
        {
          "indexed": false,
          "internalType": "uint256",
          "name": "fee",
          "type": "uint256"
        }
      ],
      "name": "MintSynth",
      "type": "event"
    },
    {
      "anonymous": false,
      "inputs": [
        {
          "indexed": true,
          "internalType": "address",
          "name": "member",
          "type": "address"
        },
        {
          "indexed": false,
          "internalType": "uint256",
          "name": "outputBase",
          "type": "uint256"
        },
        {
          "indexed": false,
          "internalType": "uint256",
          "name": "outputToken",
          "type": "uint256"
        },
        {
          "indexed": false,
          "internalType": "uint256",
          "name": "unitsClaimed",
          "type": "uint256"
        }
      ],
      "name": "RemoveLiquidity",
      "type": "event"
    },
    {
      "anonymous": false,
      "inputs": [
        {
          "indexed": true,
          "internalType": "address",
          "name": "tokenFrom",
          "type": "address"
        },
        {
          "indexed": true,
          "internalType": "address",
          "name": "tokenTo",
          "type": "address"
        },
        {
          "indexed": true,
          "internalType": "address",
          "name": "recipient",
          "type": "address"
        },
        {
          "indexed": false,
          "internalType": "uint256",
          "name": "inputAmount",
          "type": "uint256"
        },
        {
          "indexed": false,
          "internalType": "uint256",
          "name": "outputAmount",
          "type": "uint256"
        },
        {
          "indexed": false,
          "internalType": "uint256",
          "name": "fee",
          "type": "uint256"
        }
      ],
      "name": "Swapped",
      "type": "event"
    },
    {
      "anonymous": false,
      "inputs": [
        {
          "indexed": true,
          "internalType": "address",
          "name": "from",
          "type": "address"
        },
        {
          "indexed": true,
          "internalType": "address",
          "name": "to",
          "type": "address"
        },
        {
          "indexed": false,
          "internalType": "uint256",
          "name": "value",
          "type": "uint256"
        }
      ],
      "name": "Transfer",
      "type": "event"
    },
    {
      "inputs": [],
      "name": "BASE",
      "outputs": [
        {
          "internalType": "address",
          "name": "",
          "type": "address"
        }
      ],
      "stateMutability": "view",
      "type": "function"
    },
    {
      "inputs": [
        {
          "internalType": "uint256",
          "name": "_newRTC",
          "type": "uint256"
        }
      ],
      "name": "RTC",
      "outputs": [],
      "stateMutability": "nonpayable",
      "type": "function"
    },
    {
      "inputs": [],
      "name": "SYNTH",
      "outputs": [
        {
          "internalType": "address",
          "name": "",
          "type": "address"
        }
      ],
      "stateMutability": "view",
      "type": "function"
    },
    {
      "inputs": [],
      "name": "TOKEN",
      "outputs": [
        {
          "internalType": "address",
          "name": "",
          "type": "address"
        }
      ],
      "stateMutability": "view",
      "type": "function"
    },
    {
      "inputs": [
        {
          "internalType": "address",
          "name": "member",
          "type": "address"
        }
      ],
      "name": "addForMember",
      "outputs": [
        {
          "internalType": "uint256",
          "name": "liquidityUnits",
          "type": "uint256"
        }
      ],
      "stateMutability": "nonpayable",
      "type": "function"
    },
    {
      "inputs": [
        {
          "internalType": "address",
          "name": "owner",
          "type": "address"
        },
        {
          "internalType": "address",
          "name": "spender",
          "type": "address"
        }
      ],
      "name": "allowance",
      "outputs": [
        {
          "internalType": "uint256",
          "name": "",
          "type": "uint256"
        }
      ],
      "stateMutability": "view",
      "type": "function"
    },
    {
      "inputs": [
        {
          "internalType": "address",
          "name": "spender",
          "type": "address"
        },
        {
          "internalType": "uint256",
          "name": "amount",
          "type": "uint256"
        }
      ],
      "name": "approve",
      "outputs": [
        {
          "internalType": "bool",
          "name": "",
          "type": "bool"
        }
      ],
      "stateMutability": "nonpayable",
      "type": "function"
    },
    {
      "inputs": [
        {
          "internalType": "address",
          "name": "account",
          "type": "address"
        }
      ],
      "name": "balanceOf",
      "outputs": [
        {
          "internalType": "uint256",
          "name": "",
          "type": "uint256"
        }
      ],
      "stateMutability": "view",
      "type": "function"
    },
    {
      "inputs": [],
      "name": "baseAmount",
      "outputs": [
        {
          "internalType": "uint256",
          "name": "",
          "type": "uint256"
        }
      ],
      "stateMutability": "view",
      "type": "function"
    },
    {
      "inputs": [],
      "name": "baseCap",
      "outputs": [
        {
          "internalType": "uint256",
          "name": "",
          "type": "uint256"
        }
      ],
      "stateMutability": "view",
      "type": "function"
    },
    {
      "inputs": [
        {
          "internalType": "uint256",
          "name": "amount",
          "type": "uint256"
        }
      ],
      "name": "burn",
      "outputs": [],
      "stateMutability": "nonpayable",
      "type": "function"
    },
    {
      "inputs": [
        {
          "internalType": "address",
          "name": "member",
          "type": "address"
        }
      ],
      "name": "burnSynth",
      "outputs": [
        {
          "internalType": "uint256",
          "name": "outputAmount",
          "type": "uint256"
        },
        {
          "internalType": "uint256",
          "name": "fee",
          "type": "uint256"
        }
      ],
      "stateMutability": "nonpayable",
      "type": "function"
    },
    {
      "inputs": [],
      "name": "collateral",
      "outputs": [
        {
          "internalType": "uint256",
          "name": "",
          "type": "uint256"
        }
      ],
      "stateMutability": "view",
      "type": "function"
    },
    {
      "inputs": [],
      "name": "decimals",
      "outputs": [
        {
          "internalType": "uint8",
          "name": "",
          "type": "uint8"
        }
      ],
      "stateMutability": "view",
      "type": "function"
    },
    {
      "inputs": [
        {
          "internalType": "address",
          "name": "spender",
          "type": "address"
        },
        {
          "internalType": "uint256",
          "name": "subtractedValue",
          "type": "uint256"
        }
      ],
      "name": "decreaseAllowance",
      "outputs": [
        {
          "internalType": "bool",
          "name": "",
          "type": "bool"
        }
      ],
      "stateMutability": "nonpayable",
      "type": "function"
    },
    {
      "inputs": [
        {
          "internalType": "uint256",
          "name": "newPeriod",
          "type": "uint256"
        }
      ],
      "name": "flipFreeze",
      "outputs": [],
      "stateMutability": "nonpayable",
      "type": "function"
    },
    {
      "inputs": [],
      "name": "freeze",
      "outputs": [
        {
          "internalType": "bool",
          "name": "",
          "type": "bool"
        }
      ],
      "stateMutability": "view",
      "type": "function"
    },
    {
      "inputs": [],
      "name": "genesis",
      "outputs": [
        {
          "internalType": "uint256",
          "name": "",
          "type": "uint256"
        }
      ],
      "stateMutability": "view",
      "type": "function"
    },
    {
      "inputs": [
        {
          "internalType": "address",
          "name": "spender",
          "type": "address"
        },
        {
          "internalType": "uint256",
          "name": "addedValue",
          "type": "uint256"
        }
      ],
      "name": "increaseAllowance",
      "outputs": [
        {
          "internalType": "bool",
          "name": "",
          "type": "bool"
        }
      ],
      "stateMutability": "nonpayable",
      "type": "function"
    },
    {
      "inputs": [],
      "name": "initiationPeriod",
      "outputs": [
        {
          "internalType": "uint256",
          "name": "",
          "type": "uint256"
        }
      ],
      "stateMutability": "view",
      "type": "function"
    },
    {
      "inputs": [],
      "name": "lastMonth",
      "outputs": [
        {
          "internalType": "uint256",
          "name": "",
          "type": "uint256"
        }
      ],
      "stateMutability": "view",
      "type": "function"
    },
    {
      "inputs": [],
      "name": "map30DPoolRevenue",
      "outputs": [
        {
          "internalType": "uint256",
          "name": "",
          "type": "uint256"
        }
      ],
      "stateMutability": "view",
      "type": "function"
    },
    {
      "inputs": [],
      "name": "mapPast30DPoolRevenue",
      "outputs": [
        {
          "internalType": "uint256",
          "name": "",
          "type": "uint256"
        }
      ],
      "stateMutability": "view",
      "type": "function"
    },
    {
      "inputs": [],
      "name": "minSynth",
      "outputs": [
        {
          "internalType": "uint256",
          "name": "",
          "type": "uint256"
        }
      ],
      "stateMutability": "view",
      "type": "function"
    },
    {
      "inputs": [
        {
          "internalType": "uint256",
          "name": "_newMinimum",
          "type": "uint256"
        }
      ],
      "name": "minimumSynth",
      "outputs": [],
      "stateMutability": "nonpayable",
      "type": "function"
    },
    {
      "inputs": [
        {
          "internalType": "address",
          "name": "member",
          "type": "address"
        }
      ],
      "name": "mintSynth",
      "outputs": [
        {
          "internalType": "uint256",
          "name": "outputAmount",
          "type": "uint256"
        },
        {
          "internalType": "uint256",
          "name": "fee",
          "type": "uint256"
        }
      ],
      "stateMutability": "nonpayable",
      "type": "function"
    },
    {
      "inputs": [],
      "name": "name",
      "outputs": [
        {
          "internalType": "string",
          "name": "",
          "type": "string"
        }
      ],
      "stateMutability": "view",
      "type": "function"
    },
    {
      "inputs": [
        {
          "internalType": "address",
          "name": "member",
          "type": "address"
        }
      ],
      "name": "removeForMember",
      "outputs": [
        {
          "internalType": "uint256",
          "name": "outputBase",
          "type": "uint256"
        },
        {
          "internalType": "uint256",
          "name": "outputToken",
          "type": "uint256"
        }
      ],
      "stateMutability": "nonpayable",
      "type": "function"
    },
    {
      "inputs": [
        {
          "internalType": "uint256",
          "name": "",
          "type": "uint256"
        }
      ],
      "name": "revenueArray",
      "outputs": [
        {
          "internalType": "uint256",
          "name": "",
          "type": "uint256"
        }
      ],
      "stateMutability": "view",
      "type": "function"
    },
    {
      "inputs": [
        {
          "internalType": "uint256",
          "name": "_newFreezePoint",
          "type": "uint256"
        }
      ],
      "name": "setFreezePoint",
      "outputs": [],
      "stateMutability": "nonpayable",
      "type": "function"
    },
    {
      "inputs": [
        {
          "internalType": "uint256",
          "name": "newInitiation",
          "type": "uint256"
        }
      ],
      "name": "setInitiation",
      "outputs": [],
      "stateMutability": "nonpayable",
      "type": "function"
    },
    {
      "inputs": [
        {
          "internalType": "uint256",
          "name": "_synthCap",
          "type": "uint256"
        }
      ],
      "name": "setSynthCap",
      "outputs": [],
      "stateMutability": "nonpayable",
      "type": "function"
    },
    {
      "inputs": [
        {
          "internalType": "address",
          "name": "token",
          "type": "address"
        },
        {
          "internalType": "address",
          "name": "member",
          "type": "address"
        }
      ],
      "name": "swapTo",
      "outputs": [
        {
          "internalType": "uint256",
          "name": "outputAmount",
          "type": "uint256"
        },
        {
          "internalType": "uint256",
          "name": "fee",
          "type": "uint256"
        }
      ],
      "stateMutability": "nonpayable",
      "type": "function"
    },
    {
      "inputs": [],
      "name": "symbol",
      "outputs": [
        {
          "internalType": "string",
          "name": "",
          "type": "string"
        }
      ],
      "stateMutability": "view",
      "type": "function"
    },
    {
      "inputs": [],
      "name": "sync",
      "outputs": [],
      "stateMutability": "nonpayable",
      "type": "function"
    },
    {
      "inputs": [],
      "name": "synthCap",
      "outputs": [
        {
          "internalType": "uint256",
          "name": "",
          "type": "uint256"
        }
      ],
      "stateMutability": "view",
      "type": "function"
    },
    {
      "inputs": [],
      "name": "tokenAmount",
      "outputs": [
        {
          "internalType": "uint256",
          "name": "",
          "type": "uint256"
        }
      ],
      "stateMutability": "view",
      "type": "function"
    },
    {
      "inputs": [],
      "name": "totalSupply",
      "outputs": [
        {
          "internalType": "uint256",
          "name": "",
          "type": "uint256"
        }
      ],
      "stateMutability": "view",
      "type": "function"
    },
    {
      "inputs": [
        {
          "internalType": "address",
          "name": "recipient",
          "type": "address"
        },
        {
          "internalType": "uint256",
          "name": "amount",
          "type": "uint256"
        }
      ],
      "name": "transfer",
      "outputs": [
        {
          "internalType": "bool",
          "name": "",
          "type": "bool"
        }
      ],
      "stateMutability": "nonpayable",
      "type": "function"
    },
    {
      "inputs": [
        {
          "internalType": "address",
          "name": "sender",
          "type": "address"
        },
        {
          "internalType": "address",
          "name": "recipient",
          "type": "address"
        },
        {
          "internalType": "uint256",
          "name": "amount",
          "type": "uint256"
        }
      ],
      "name": "transferFrom",
      "outputs": [
        {
          "internalType": "bool",
          "name": "",
          "type": "bool"
        }
      ],
      "stateMutability": "nonpayable",
      "type": "function"
    }
  ],
  "bytecode": "0x6101006040523480156200001257600080fd5b5060405162006fff38038062006fff833981810160405281019062000038919062000524565b6001600081905550600073ffffffffffffffffffffffffffffffffffffffff168273ffffffffffffffffffffffffffffffffffffffff161415620000b3576040517f08c379a0000000000000000000000000000000000000000000000000000000008152600401620000aa9062000630565b60405180910390fd5b600073ffffffffffffffffffffffffffffffffffffffff168173ffffffffffffffffffffffffffffffffffffffff16141562000126576040517f08c379a00000000000000000000000000000000000000000000000000000000081526004016200011d9062000630565b60405180910390fd5b8173ffffffffffffffffffffffffffffffffffffffff1660808173ffffffffffffffffffffffffffffffffffffffff1660601b815250508073ffffffffffffffffffffffffffffffffffffffff1660a08173ffffffffffffffffffffffffffffffffffffffff1660601b8152505060006040518060400160405280601481526020017f2d5370617274616e50726f746f636f6c506f6f6c000000000000000000000000815250905060006040518060400160405280600481526020017f2d5350500000000000000000000000000000000000000000000000000000000081525090508273ffffffffffffffffffffffffffffffffffffffff166306fdde036040518163ffffffff1660e01b815260040160006040518083038186803b1580156200024f57600080fd5b505afa15801562000264573d6000803e3d6000fd5b505050506040513d6000823e3d601f19601f820116820180604052508101906200028f919062000565565b82604051602001620002a392919062000608565b604051602081830303815290604052600a9080519060200190620002c9929190620003eb565b508273ffffffffffffffffffffffffffffffffffffffff166395d89b416040518163ffffffff1660e01b815260040160006040518083038186803b1580156200031157600080fd5b505afa15801562000326573d6000803e3d6000fd5b505050506040513d6000823e3d601f19601f8201168201806040525081019062000351919062000565565b816040516020016200036592919062000608565b604051602081830303815290604052600b90805190602001906200038b929190620003eb565b50601260ff1660c08160ff1660f81b815250504260e08181525050610bb8600181905550610bb860058190555069152d02c7e14af68000006002819055504260048190555060016007819055506101f46009819055505050505062000860565b828054620003f99062000742565b90600052602060002090601f0160209004810192826200041d576000855562000469565b82601f106200043857805160ff191683800117855562000469565b8280016001018555821562000469579182015b82811115620004685782518255916020019190600101906200044b565b5b5090506200047891906200047c565b5090565b5b80821115620004975760008160009055506001016200047d565b5090565b6000620004b2620004ac846200067b565b62000652565b905082815260208101848484011115620004cb57600080fd5b620004d88482856200070c565b509392505050565b600081519050620004f18162000846565b92915050565b600082601f8301126200050957600080fd5b81516200051b8482602086016200049b565b91505092915050565b600080604083850312156200053857600080fd5b60006200054885828601620004e0565b92505060206200055b85828601620004e0565b9150509250929050565b6000602082840312156200057857600080fd5b600082015167ffffffffffffffff8111156200059357600080fd5b620005a184828501620004f7565b91505092915050565b6000620005b782620006b1565b620005c38185620006cd565b9350620005d58185602086016200070c565b80840191505092915050565b6000620005f0600583620006bc565b9150620005fd826200081d565b602082019050919050565b6000620006168285620005aa565b9150620006248284620005aa565b91508190509392505050565b600060208201905081810360008301526200064b81620005e1565b9050919050565b60006200065e62000671565b90506200066c828262000778565b919050565b6000604051905090565b600067ffffffffffffffff821115620006995762000698620007dd565b5b620006a4826200080c565b9050602081019050919050565b600081519050919050565b600082825260208201905092915050565b600081905092915050565b6000620006e582620006ec565b9050919050565b600073ffffffffffffffffffffffffffffffffffffffff82169050919050565b60005b838110156200072c5780820151818401526020810190506200070f565b838111156200073c576000848401525b50505050565b600060028204905060018216806200075b57607f821691505b60208210811415620007725762000771620007ae565b5b50919050565b62000783826200080c565b810181811067ffffffffffffffff82111715620007a557620007a4620007dd565b5b80604052505050565b7f4e487b7100000000000000000000000000000000000000000000000000000000600052602260045260246000fd5b7f4e487b7100000000000000000000000000000000000000000000000000000000600052604160045260246000fd5b6000601f19601f8301169050919050565b7f215a45524f000000000000000000000000000000000000000000000000000000600082015250565b6200085181620006d8565b81146200085d57600080fd5b50565b60805160601c60a05160601c60c05160f81c60e0516166d06200092f6000396000818161220f01526126ff01526000611143015260008181610bfb01528181610ce101528181611927015281816128cd01528181612a5f0152818161350401528181613e46015281816144b301528181614a4e0152614fb6015260008181610ba601528181610c8d01528181610d2401528181611da40152818161281e015281816129730152818161328a0152818161359601528181614404015281816149a80152614d0d01526166d06000f3fe608060405234801561001057600080fd5b50600436106102485760003560e01c806386d5f6181161013b578063d8dfeb45116100b8578063eec7faa11161007c578063eec7faa114610724578063f0337cdc14610742578063f1bbdef214610772578063fb195363146107a3578063fff6cae9146107bf57610248565b8063d8dfeb4514610669578063dbfc5a0414610687578063dd62ed3e146106b8578063e1eddde3146106e8578063ec342ad01461070657610248565b8063a7f0b3de116100ff578063a7f0b3de146105b0578063a9059cbb146105ce578063ba8e3edd146105fe578063bc5dedc91461061a578063cbbcf8021461064b57610248565b806386d5f618146104f857806395d89b411461052857806399d786ca146105465780639d3f87e214610564578063a457c2d71461058057610248565b806342966c68116101c957806370a082311161018d57806370a082311461045257806370f93cdf14610482578063752d7793146104a05780637ec3eae5146104be57806382bfefc8146104da57610248565b806342966c68146103c0578063474e7302146103dc5780634864d140146103f85780635f83e5d51461041657806362a5af3b1461043457610248565b80632783e4a9116102105780632783e4a914610307578063308aca1d14610338578063313ce5671461035457806333ca78e414610372578063395093511461039057610248565b806306fdde031461024d578063095ea7b31461026b57806314c025c61461029b57806318160ddd146102b957806323b872dd146102d7575b600080fd5b6102556107c9565b6040516102629190615d1a565b60405180910390f35b61028560048036038101906102809190615913565b61085b565b6040516102929190615cff565b60405180910390f35b6102a3610872565b6040516102b09190615f5c565b60405180910390f35b6102c1610878565b6040516102ce9190615f5c565b60405180910390f35b6102f160048036038101906102ec91906158c4565b61087e565b6040516102fe9190615cff565b60405180910390f35b610321600480360381019061031c9190615888565b610971565b60405161032f929190615fd7565b60405180910390f35b610352600480360381019061034d91906159a1565b610eb6565b005b61035c611141565b60405161036991906160cf565b60405180910390f35b61037a611165565b6040516103879190615f5c565b60405180910390f35b6103aa60048036038101906103a59190615913565b61116b565b6040516103b79190615cff565b60405180910390f35b6103da60048036038101906103d591906159a1565b611209565b005b6103f660048036038101906103f191906159a1565b6113a8565b005b610400611627565b60405161040d9190615f5c565b60405180910390f35b61041e61162d565b60405161042b9190615f5c565b60405180910390f35b61043c611633565b6040516104499190615cff565b60405180910390f35b61046c60048036038101906104679190615836565b611646565b6040516104799190615f5c565b60405180910390f35b61048a61168f565b6040516104979190615f5c565b60405180910390f35b6104a8611695565b6040516104b59190615f5c565b60405180910390f35b6104d860048036038101906104d391906159a1565b61169b565b005b6104e2611925565b6040516104ef9190615cbb565b60405180910390f35b610512600480360381019061050d9190615836565b611949565b60405161051f9190615f5c565b60405180910390f35b610530611e55565b60405161053d9190615d1a565b60405180910390f35b61054e611ee7565b60405161055b9190615f5c565b60405180910390f35b61057e600480360381019061057991906159a1565b611eed565b005b61059a60048036038101906105959190615913565b612127565b6040516105a79190615cff565b60405180910390f35b6105b861220d565b6040516105c59190615f5c565b60405180910390f35b6105e860048036038101906105e39190615913565b612231565b6040516105f59190615cff565b60405180910390f35b610618600480360381019061061391906159a1565b612248565b005b610634600480360381019061062f9190615836565b6124c7565b604051610642929190615fd7565b60405180910390f35b610653612ba2565b6040516106609190615f5c565b60405180910390f35b610671612ba8565b60405161067e9190615f5c565b60405180910390f35b6106a1600480360381019061069c9190615836565b612bae565b6040516106af929190615fd7565b60405180910390f35b6106d260048036038101906106cd9190615888565b6133d9565b6040516106df9190615f5c565b60405180910390f35b6106f0613460565b6040516106fd9190615cbb565b60405180910390f35b61070e613594565b60405161071b9190615cbb565b60405180910390f35b61072c6135b8565b6040516107399190615f5c565b60405180910390f35b61075c600480360381019061075791906159a1565b6135be565b6040516107699190615f5c565b60405180910390f35b61078c60048036038101906107879190615836565b6135e2565b60405161079a929190615fd7565b60405180910390f35b6107bd60048036038101906107b891906159a1565b613fd9565b005b6107c761428c565b005b6060600a80546107d8906162b5565b80601f0160208091040260200160405190810160405280929190818152602001828054610804906162b5565b80156108515780601f1061082657610100808354040283529160200191610851565b820191906000526020600020905b81548152906001019060200180831161083457829003601f168201915b5050505050905090565b6000610868338484614562565b6001905092915050565b60095481565b600c5481565b600061088b84848461472d565b6000600e60008673ffffffffffffffffffffffffffffffffffffffff1673ffffffffffffffffffffffffffffffffffffffff16815260200190815260200160002060003373ffffffffffffffffffffffffffffffffffffffff1673ffffffffffffffffffffffffffffffffffffffff1681526020019081526020016000205490508281101561094f576040517f08c379a000000000000000000000000000000000000000000000000000000000815260040161094690615d7c565b60405180910390fd5b6109658533858461096091906161e7565b614562565b60019150509392505050565b60008061097c6149a4565b73ffffffffffffffffffffffffffffffffffffffff166332fe7b266040518163ffffffff1660e01b815260040160206040518083038186803b1580156109c157600080fd5b505afa1580156109d5573d6000803e3d6000fd5b505050506040513d601f19601f820116820180604052508101906109f9919061585f565b73ffffffffffffffffffffffffffffffffffffffff163373ffffffffffffffffffffffffffffffffffffffff161480610ae15750610a356149a4565b73ffffffffffffffffffffffffffffffffffffffff16632ab24e496040518163ffffffff1660e01b815260040160206040518083038186803b158015610a7a57600080fd5b505afa158015610a8e573d6000803e3d6000fd5b505050506040513d601f19601f82011682018060405250810190610ab2919061585f565b73ffffffffffffffffffffffffffffffffffffffff163373ffffffffffffffffffffffffffffffffffffffff16145b80610b9b5750610aef6149a4565b73ffffffffffffffffffffffffffffffffffffffff1663b99b0a0c6040518163ffffffff1660e01b815260040160206040518083038186803b158015610b3457600080fd5b505afa158015610b48573d6000803e3d6000fd5b505050506040513d601f19601f82011682018060405250810190610b6c919061585f565b73ffffffffffffffffffffffffffffffffffffffff163373ffffffffffffffffffffffffffffffffffffffff16145b610ba457600080fd5b7f000000000000000000000000000000000000000000000000000000000000000073ffffffffffffffffffffffffffffffffffffffff168473ffffffffffffffffffffffffffffffffffffffff161480610c4957507f000000000000000000000000000000000000000000000000000000000000000073ffffffffffffffffffffffffffffffffffffffff168473ffffffffffffffffffffffffffffffffffffffff16145b610c88576040517f08c379a0000000000000000000000000000000000000000000000000000000008152600401610c7f90615ddc565b60405180910390fd5b6000807f000000000000000000000000000000000000000000000000000000000000000073ffffffffffffffffffffffffffffffffffffffff168673ffffffffffffffffffffffffffffffffffffffff161415610d22577f00000000000000000000000000000000000000000000000000000000000000009150610d0a614a49565b9050610d1581614b1f565b8094508195505050610d61565b7f00000000000000000000000000000000000000000000000000000000000000009150610d4d614d08565b9050610d5881614dde565b80945081955050505b8473ffffffffffffffffffffffffffffffffffffffff168673ffffffffffffffffffffffffffffffffffffffff168373ffffffffffffffffffffffffffffffffffffffff167fc9163c3bdf7263acf1bb3d24072cc7da025f7181c31e2edc7e1673edf5e0ca32848888604051610dd993929190616000565b60405180910390a48573ffffffffffffffffffffffffffffffffffffffff1663a9059cbb86866040518363ffffffff1660e01b8152600401610e1c929190615cd6565b602060405180830381600087803b158015610e3657600080fd5b505af1158015610e4a573d6000803e3d6000fd5b505050506040513d601f19601f82011682018060405250810190610e6e919061594f565b610ead576040517f08c379a0000000000000000000000000000000000000000000000000000000008152600401610ea490615e9c565b60405180910390fd5b50509250929050565b610ebe6149a4565b73ffffffffffffffffffffffffffffffffffffffff166332fe7b266040518163ffffffff1660e01b815260040160206040518083038186803b158015610f0357600080fd5b505afa158015610f17573d6000803e3d6000fd5b505050506040513d601f19601f82011682018060405250810190610f3b919061585f565b73ffffffffffffffffffffffffffffffffffffffff163373ffffffffffffffffffffffffffffffffffffffff1614806110235750610f776149a4565b73ffffffffffffffffffffffffffffffffffffffff16632ab24e496040518163ffffffff1660e01b815260040160206040518083038186803b158015610fbc57600080fd5b505afa158015610fd0573d6000803e3d6000fd5b505050506040513d601f19601f82011682018060405250810190610ff4919061585f565b73ffffffffffffffffffffffffffffffffffffffff163373ffffffffffffffffffffffffffffffffffffffff16145b806110dd57506110316149a4565b73ffffffffffffffffffffffffffffffffffffffff1663b99b0a0c6040518163ffffffff1660e01b815260040160206040518083038186803b15801561107657600080fd5b505afa15801561108a573d6000803e3d6000fd5b505050506040513d601f19601f820116820180604052508101906110ae919061585f565b73ffffffffffffffffffffffffffffffffffffffff163373ffffffffffffffffffffffffffffffffffffffff16145b6110e657600080fd5b60fa811015806110f85750610bb88111155b611137576040517f08c379a000000000000000000000000000000000000000000000000000000000815260040161112e90615e7c565b60405180910390fd5b8060098190555050565b7f000000000000000000000000000000000000000000000000000000000000000081565b60015481565b60006111ff338484600e60003373ffffffffffffffffffffffffffffffffffffffff1673ffffffffffffffffffffffffffffffffffffffff16815260200190815260200160002060008873ffffffffffffffffffffffffffffffffffffffff1673ffffffffffffffffffffffffffffffffffffffff168152602001908152602001600020546111fa9190616106565b614562565b6001905092915050565b611211613460565b73ffffffffffffffffffffffffffffffffffffffff163373ffffffffffffffffffffffffffffffffffffffff161461124857600080fd5b6112506149a4565b73ffffffffffffffffffffffffffffffffffffffff1663b93ec54b6040518163ffffffff1660e01b815260040160206040518083038186803b15801561129557600080fd5b505afa1580156112a9573d6000803e3d6000fd5b505050506040513d601f19601f820116820180604052508101906112cd919061585f565b73ffffffffffffffffffffffffffffffffffffffff16635e0237ea6112f0613460565b6040518263ffffffff1660e01b815260040161130c9190615cbb565b60206040518083038186803b15801561132457600080fd5b505afa158015611338573d6000803e3d6000fd5b505050506040513d601f19601f8201168201806040525081019061135c919061594f565b61139b576040517f08c379a000000000000000000000000000000000000000000000000000000000815260040161139290615dfc565b60405180910390fd5b6113a53382615077565b50565b6113b06149a4565b73ffffffffffffffffffffffffffffffffffffffff166332fe7b266040518163ffffffff1660e01b815260040160206040518083038186803b1580156113f557600080fd5b505afa158015611409573d6000803e3d6000fd5b505050506040513d601f19601f8201168201806040525081019061142d919061585f565b73ffffffffffffffffffffffffffffffffffffffff163373ffffffffffffffffffffffffffffffffffffffff16148061151557506114696149a4565b73ffffffffffffffffffffffffffffffffffffffff16632ab24e496040518163ffffffff1660e01b815260040160206040518083038186803b1580156114ae57600080fd5b505afa1580156114c2573d6000803e3d6000fd5b505050506040513d601f19601f820116820180604052508101906114e6919061585f565b73ffffffffffffffffffffffffffffffffffffffff163373ffffffffffffffffffffffffffffffffffffffff16145b806115cf57506115236149a4565b73ffffffffffffffffffffffffffffffffffffffff1663b99b0a0c6040518163ffffffff1660e01b815260040160206040518083038186803b15801561156857600080fd5b505afa15801561157c573d6000803e3d6000fd5b505050506040513d601f19601f820116820180604052508101906115a0919061585f565b73ffffffffffffffffffffffffffffffffffffffff163373ffffffffffffffffffffffffffffffffffffffff16145b6115d857600080fd5b610bb881111561161d576040517f08c379a000000000000000000000000000000000000000000000000000000000815260040161161490615d5c565b60405180910390fd5b8060018190555050565b600f5481565b60125481565b600660009054906101000a900460ff1681565b6000600d60008373ffffffffffffffffffffffffffffffffffffffff1673ffffffffffffffffffffffffffffffffffffffff168152602001908152602001600020549050919050565b60075481565b60135481565b6116a36149a4565b73ffffffffffffffffffffffffffffffffffffffff166332fe7b266040518163ffffffff1660e01b815260040160206040518083038186803b1580156116e857600080fd5b505afa1580156116fc573d6000803e3d6000fd5b505050506040513d601f19601f82011682018060405250810190611720919061585f565b73ffffffffffffffffffffffffffffffffffffffff163373ffffffffffffffffffffffffffffffffffffffff161480611808575061175c6149a4565b73ffffffffffffffffffffffffffffffffffffffff16632ab24e496040518163ffffffff1660e01b815260040160206040518083038186803b1580156117a157600080fd5b505afa1580156117b5573d6000803e3d6000fd5b505050506040513d601f19601f820116820180604052508101906117d9919061585f565b73ffffffffffffffffffffffffffffffffffffffff163373ffffffffffffffffffffffffffffffffffffffff16145b806118c257506118166149a4565b73ffffffffffffffffffffffffffffffffffffffff1663b99b0a0c6040518163ffffffff1660e01b815260040160206040518083038186803b15801561185b57600080fd5b505afa15801561186f573d6000803e3d6000fd5b505050506040513d601f19601f82011682018060405250810190611893919061585f565b73ffffffffffffffffffffffffffffffffffffffff163373ffffffffffffffffffffffffffffffffffffffff16145b6118cb57600080fd5b600280546118d9919061618d565b81111561191b576040517f08c379a000000000000000000000000000000000000000000000000000000000815260040161191290615d5c565b60405180910390fd5b8060028190555050565b7f000000000000000000000000000000000000000000000000000000000000000081565b60006119536149a4565b73ffffffffffffffffffffffffffffffffffffffff166332fe7b266040518163ffffffff1660e01b815260040160206040518083038186803b15801561199857600080fd5b505afa1580156119ac573d6000803e3d6000fd5b505050506040513d601f19601f820116820180604052508101906119d0919061585f565b73ffffffffffffffffffffffffffffffffffffffff163373ffffffffffffffffffffffffffffffffffffffff161480611ab85750611a0c6149a4565b73ffffffffffffffffffffffffffffffffffffffff16632ab24e496040518163ffffffff1660e01b815260040160206040518083038186803b158015611a5157600080fd5b505afa158015611a65573d6000803e3d6000fd5b505050506040513d601f19601f82011682018060405250810190611a89919061585f565b73ffffffffffffffffffffffffffffffffffffffff163373ffffffffffffffffffffffffffffffffffffffff16145b80611b725750611ac66149a4565b73ffffffffffffffffffffffffffffffffffffffff1663b99b0a0c6040518163ffffffff1660e01b815260040160206040518083038186803b158015611b0b57600080fd5b505afa158015611b1f573d6000803e3d6000fd5b505050506040513d601f19601f82011682018060405250810190611b43919061585f565b73ffffffffffffffffffffffffffffffffffffffff163373ffffffffffffffffffffffffffffffffffffffff16145b611b7b57600080fd5b6000611b85614d08565b905060025481600f54611b989190616106565b10611bd8576040517f08c379a0000000000000000000000000000000000000000000000000000000008152600401611bcf90615ebc565b60405180910390fd5b6000611be2614a49565b9050611bec6149a4565b73ffffffffffffffffffffffffffffffffffffffff16637b0e5c456040518163ffffffff1660e01b815260040160206040518083038186803b158015611c3157600080fd5b505afa158015611c45573d6000803e3d6000fd5b505050506040513d601f19601f82011682018060405250810190611c69919061585f565b73ffffffffffffffffffffffffffffffffffffffff1663c5c11ee983600f5484601054600c546040518663ffffffff1660e01b8152600401611caf95949392919061607c565b60206040518083038186803b158015611cc757600080fd5b505afa158015611cdb573d6000803e3d6000fd5b505050506040513d601f19601f82011682018060405250810190611cff91906159ca565b92506000600f541480611d1457506000601054145b15611de85768056bc75e2d631000008210158015611d3457506127108110155b611d73576040517f08c379a0000000000000000000000000000000000000000000000000000000008152600401611d6a90615d9c565b60405180910390fd5b6000612710846064611d85919061618d565b611d8f919061615c565b90508084611d9d91906161e7565b9350611dc97f000000000000000000000000000000000000000000000000000000000000000082615241565b818384611dd6919061618d565b611de0919061615c565b600381905550505b611df2828261538a565b611dfc8484615241565b8373ffffffffffffffffffffffffffffffffffffffff167fbeb3885786d637a474cbc287c0a44587231633a077f0bd30354d5a4b18996fce838386604051611e4693929190616000565b60405180910390a25050919050565b6060600b8054611e64906162b5565b80601f0160208091040260200160405190810160405280929190818152602001828054611e90906162b5565b8015611edd5780601f10611eb257610100808354040283529160200191611edd565b820191906000526020600020905b815481529060010190602001808311611ec057829003601f168201915b5050505050905090565b60115481565b611ef56149a4565b73ffffffffffffffffffffffffffffffffffffffff166332fe7b266040518163ffffffff1660e01b815260040160206040518083038186803b158015611f3a57600080fd5b505afa158015611f4e573d6000803e3d6000fd5b505050506040513d601f19601f82011682018060405250810190611f72919061585f565b73ffffffffffffffffffffffffffffffffffffffff163373ffffffffffffffffffffffffffffffffffffffff16148061205a5750611fae6149a4565b73ffffffffffffffffffffffffffffffffffffffff16632ab24e496040518163ffffffff1660e01b815260040160206040518083038186803b158015611ff357600080fd5b505afa158015612007573d6000803e3d6000fd5b505050506040513d601f19601f8201168201806040525081019061202b919061585f565b73ffffffffffffffffffffffffffffffffffffffff163373ffffffffffffffffffffffffffffffffffffffff16145b8061211457506120686149a4565b73ffffffffffffffffffffffffffffffffffffffff1663b99b0a0c6040518163ffffffff1660e01b815260040160206040518083038186803b1580156120ad57600080fd5b505afa1580156120c1573d6000803e3d6000fd5b505050506040513d601f19601f820116820180604052508101906120e5919061585f565b73ffffffffffffffffffffffffffffffffffffffff163373ffffffffffffffffffffffffffffffffffffffff16145b61211d57600080fd5b8060058190555050565b600080600e60003373ffffffffffffffffffffffffffffffffffffffff1673ffffffffffffffffffffffffffffffffffffffff16815260200190815260200160002060008573ffffffffffffffffffffffffffffffffffffffff1673ffffffffffffffffffffffffffffffffffffffff168152602001908152602001600020549050828110156121ec576040517f08c379a00000000000000000000000000000000000000000000000000000000081526004016121e390615d7c565b60405180910390fd5b612202338585846121fd91906161e7565b614562565b600191505092915050565b7f000000000000000000000000000000000000000000000000000000000000000081565b600061223e33848461472d565b6001905092915050565b6122506149a4565b73ffffffffffffffffffffffffffffffffffffffff166332fe7b266040518163ffffffff1660e01b815260040160206040518083038186803b15801561229557600080fd5b505afa1580156122a9573d6000803e3d6000fd5b505050506040513d601f19601f820116820180604052508101906122cd919061585f565b73ffffffffffffffffffffffffffffffffffffffff163373ffffffffffffffffffffffffffffffffffffffff1614806123b557506123096149a4565b73ffffffffffffffffffffffffffffffffffffffff16632ab24e496040518163ffffffff1660e01b815260040160206040518083038186803b15801561234e57600080fd5b505afa158015612362573d6000803e3d6000fd5b505050506040513d601f19601f82011682018060405250810190612386919061585f565b73ffffffffffffffffffffffffffffffffffffffff163373ffffffffffffffffffffffffffffffffffffffff16145b8061246f57506123c36149a4565b73ffffffffffffffffffffffffffffffffffffffff1663b99b0a0c6040518163ffffffff1660e01b815260040160206040518083038186803b15801561240857600080fd5b505afa15801561241c573d6000803e3d6000fd5b505050506040513d601f19601f82011682018060405250810190612440919061585f565b73ffffffffffffffffffffffffffffffffffffffff163373ffffffffffffffffffffffffffffffffffffffff16145b61247857600080fd5b62093a8081106124bd576040517f08c379a00000000000000000000000000000000000000000000000000000000081526004016124b490615e7c565b60405180910390fd5b8060078190555050565b6000806124d26149a4565b73ffffffffffffffffffffffffffffffffffffffff166332fe7b266040518163ffffffff1660e01b815260040160206040518083038186803b15801561251757600080fd5b505afa15801561252b573d6000803e3d6000fd5b505050506040513d601f19601f8201168201806040525081019061254f919061585f565b73ffffffffffffffffffffffffffffffffffffffff163373ffffffffffffffffffffffffffffffffffffffff161480612637575061258b6149a4565b73ffffffffffffffffffffffffffffffffffffffff16632ab24e496040518163ffffffff1660e01b815260040160206040518083038186803b1580156125d057600080fd5b505afa1580156125e4573d6000803e3d6000fd5b505050506040513d601f19601f82011682018060405250810190612608919061585f565b73ffffffffffffffffffffffffffffffffffffffff163373ffffffffffffffffffffffffffffffffffffffff16145b806126f157506126456149a4565b73ffffffffffffffffffffffffffffffffffffffff1663b99b0a0c6040518163ffffffff1660e01b815260040160206040518083038186803b15801561268a57600080fd5b505afa15801561269e573d6000803e3d6000fd5b505050506040513d601f19601f820116820180604052508101906126c2919061585f565b73ffffffffffffffffffffffffffffffffffffffff163373ffffffffffffffffffffffffffffffffffffffff16145b6126fa57600080fd5b6007547f00000000000000000000000000000000000000000000000000000000000000006127289190616106565b4211612769576040517f08c379a000000000000000000000000000000000000000000000000000000000815260040161276090615f1c565b60405180910390fd5b600061277430611646565b905060006127806149a4565b73ffffffffffffffffffffffffffffffffffffffff16637b0e5c456040518163ffffffff1660e01b815260040160206040518083038186803b1580156127c557600080fd5b505afa1580156127d9573d6000803e3d6000fd5b505050506040513d601f19601f820116820180604052508101906127fd919061585f565b90508073ffffffffffffffffffffffffffffffffffffffff16635a7b2ed3837f0000000000000000000000000000000000000000000000000000000000000000306040518463ffffffff1660e01b815260040161285c93929190615fa0565b60206040518083038186803b15801561287457600080fd5b505afa158015612888573d6000803e3d6000fd5b505050506040513d601f19601f820116820180604052508101906128ac91906159ca565b93508073ffffffffffffffffffffffffffffffffffffffff16635a7b2ed3837f0000000000000000000000000000000000000000000000000000000000000000306040518463ffffffff1660e01b815260040161290b93929190615fa0565b60206040518083038186803b15801561292357600080fd5b505afa158015612937573d6000803e3d6000fd5b505050506040513d601f19601f8201168201806040525081019061295b91906159ca565b925061296784846153c8565b6129713083615077565b7f000000000000000000000000000000000000000000000000000000000000000073ffffffffffffffffffffffffffffffffffffffff1663a9059cbb86866040518363ffffffff1660e01b81526004016129cc929190615cd6565b602060405180830381600087803b1580156129e657600080fd5b505af11580156129fa573d6000803e3d6000fd5b505050506040513d601f19601f82011682018060405250810190612a1e919061594f565b612a5d576040517f08c379a0000000000000000000000000000000000000000000000000000000008152600401612a5490615e9c565b60405180910390fd5b7f000000000000000000000000000000000000000000000000000000000000000073ffffffffffffffffffffffffffffffffffffffff1663a9059cbb86856040518363ffffffff1660e01b8152600401612ab8929190615cd6565b602060405180830381600087803b158015612ad257600080fd5b505af1158015612ae6573d6000803e3d6000fd5b505050506040513d601f19601f82011682018060405250810190612b0a919061594f565b612b49576040517f08c379a0000000000000000000000000000000000000000000000000000000008152600401612b4090615e9c565b60405180910390fd5b8473ffffffffffffffffffffffffffffffffffffffff167f59c3a0b60c6ab7deb62e1440c9e72441db6db7dfe514dba8cb18e60c0d896efa858585604051612b9393929190616000565b60405180910390a25050915091565b60025481565b60085481565b600080612bb96149a4565b73ffffffffffffffffffffffffffffffffffffffff166332fe7b266040518163ffffffff1660e01b815260040160206040518083038186803b158015612bfe57600080fd5b505afa158015612c12573d6000803e3d6000fd5b505050506040513d601f19601f82011682018060405250810190612c36919061585f565b73ffffffffffffffffffffffffffffffffffffffff163373ffffffffffffffffffffffffffffffffffffffff161480612d1e5750612c726149a4565b73ffffffffffffffffffffffffffffffffffffffff16632ab24e496040518163ffffffff1660e01b815260040160206040518083038186803b158015612cb757600080fd5b505afa158015612ccb573d6000803e3d6000fd5b505050506040513d601f19601f82011682018060405250810190612cef919061585f565b73ffffffffffffffffffffffffffffffffffffffff163373ffffffffffffffffffffffffffffffffffffffff16145b80612dd85750612d2c6149a4565b73ffffffffffffffffffffffffffffffffffffffff1663b99b0a0c6040518163ffffffff1660e01b815260040160206040518083038186803b158015612d7157600080fd5b505afa158015612d85573d6000803e3d6000fd5b505050506040513d601f19601f82011682018060405250810190612da9919061585f565b73ffffffffffffffffffffffffffffffffffffffff163373ffffffffffffffffffffffffffffffffffffffff16145b612de157600080fd5b6000612deb613460565b9050600073ffffffffffffffffffffffffffffffffffffffff168173ffffffffffffffffffffffffffffffffffffffff161415612e5d576040517f08c379a0000000000000000000000000000000000000000000000000000000008152600401612e5490615e5c565b60405180910390fd5b6000612e676149a4565b73ffffffffffffffffffffffffffffffffffffffff16637b0e5c456040518163ffffffff1660e01b815260040160206040518083038186803b158015612eac57600080fd5b505afa158015612ec0573d6000803e3d6000fd5b505050506040513d601f19601f82011682018060405250810190612ee4919061585f565b905060008273ffffffffffffffffffffffffffffffffffffffff166318160ddd6040518163ffffffff1660e01b815260040160206040518083038186803b158015612f2e57600080fd5b505afa158015612f42573d6000803e3d6000fd5b505050506040513d601f19601f82011682018060405250810190612f6691906159ca565b905060008373ffffffffffffffffffffffffffffffffffffffff166370a08231306040518263ffffffff1660e01b8152600401612fa39190615cbb565b60206040518083038186803b158015612fbb57600080fd5b505afa158015612fcf573d6000803e3d6000fd5b505050506040513d601f19601f82011682018060405250810190612ff391906159ca565b9050600061271060105460095461300a919061618d565b613014919061615c565b90506000612710600f5460095461302b919061618d565b613035919061615c565b9050600060085490508285101561304a578294505b81811015613056578190505b60008673ffffffffffffffffffffffffffffffffffffffff1663701baaf3868860105461308391906161e7565b85600f546130919190616106565b6040518463ffffffff1660e01b81526004016130af93929190616000565b60206040518083038186803b1580156130c757600080fd5b505afa1580156130db573d6000803e3d6000fd5b505050506040513d601f19601f820116820180604052508101906130ff91906159ca565b90508673ffffffffffffffffffffffffffffffffffffffff1663896a708c868860105461312c91906161e7565b85600f5461313a9190616106565b6040518463ffffffff1660e01b815260040161315893929190616000565b60206040518083038186803b15801561317057600080fd5b505afa158015613184573d6000803e3d6000fd5b505050506040513d601f19601f820116820180604052508101906131a891906159ca565b985085600854866131b9919061618d565b6131c3919061615c565b600860008282546131d491906161e7565b925050819055506131e68160006153c8565b6131ef89615406565b60008873ffffffffffffffffffffffffffffffffffffffff166386450495876040518263ffffffff1660e01b815260040161322a9190615f5c565b602060405180830381600087803b15801561324457600080fd5b505af1158015613258573d6000803e3d6000fd5b505050506040513d601f19601f8201168201806040525081019061327c91906159ca565b90506132888982615077565b7f000000000000000000000000000000000000000000000000000000000000000073ffffffffffffffffffffffffffffffffffffffff1663a9059cbb8d846040518363ffffffff1660e01b81526004016132e3929190615cd6565b602060405180830381600087803b1580156132fd57600080fd5b505af1158015613311573d6000803e3d6000fd5b505050506040513d601f19601f82011682018060405250810190613335919061594f565b613374576040517f08c379a000000000000000000000000000000000000000000000000000000000815260040161336b90615e9c565b60405180910390fd5b8b73ffffffffffffffffffffffffffffffffffffffff167f6f3ac8cc4850a948dddb5c85957bbaadcbea6e4b2cef3f02f6af53fcf2596f568383898e6040516133c09493929190616037565b60405180910390a2819a50505050505050505050915091565b6000600e60008473ffffffffffffffffffffffffffffffffffffffff1673ffffffffffffffffffffffffffffffffffffffff16815260200190815260200160002060008373ffffffffffffffffffffffffffffffffffffffff1673ffffffffffffffffffffffffffffffffffffffff16815260200190815260200160002054905092915050565b600061346a6149a4565b73ffffffffffffffffffffffffffffffffffffffff1663b93ec54b6040518163ffffffff1660e01b815260040160206040518083038186803b1580156134af57600080fd5b505afa1580156134c3573d6000803e3d6000fd5b505050506040513d601f19601f820116820180604052508101906134e7919061585f565b73ffffffffffffffffffffffffffffffffffffffff1663dcec81167f00000000000000000000000000000000000000000000000000000000000000006040518263ffffffff1660e01b815260040161353f9190615cbb565b60206040518083038186803b15801561355757600080fd5b505afa15801561356b573d6000803e3d6000fd5b505050506040513d601f19601f8201168201806040525081019061358f919061585f565b905090565b7f000000000000000000000000000000000000000000000000000000000000000081565b60105481565b601481815481106135ce57600080fd5b906000526020600020016000915090505481565b6000806135ed6149a4565b73ffffffffffffffffffffffffffffffffffffffff166332fe7b266040518163ffffffff1660e01b815260040160206040518083038186803b15801561363257600080fd5b505afa158015613646573d6000803e3d6000fd5b505050506040513d601f19601f8201168201806040525081019061366a919061585f565b73ffffffffffffffffffffffffffffffffffffffff163373ffffffffffffffffffffffffffffffffffffffff16148061375257506136a66149a4565b73ffffffffffffffffffffffffffffffffffffffff16632ab24e496040518163ffffffff1660e01b815260040160206040518083038186803b1580156136eb57600080fd5b505afa1580156136ff573d6000803e3d6000fd5b505050506040513d601f19601f82011682018060405250810190613723919061585f565b73ffffffffffffffffffffffffffffffffffffffff163373ffffffffffffffffffffffffffffffffffffffff16145b8061380c57506137606149a4565b73ffffffffffffffffffffffffffffffffffffffff1663b99b0a0c6040518163ffffffff1660e01b815260040160206040518083038186803b1580156137a557600080fd5b505afa1580156137b9573d6000803e3d6000fd5b505050506040513d601f19601f820116820180604052508101906137dd919061585f565b73ffffffffffffffffffffffffffffffffffffffff163373ffffffffffffffffffffffffffffffffffffffff16145b61381557600080fd5b600061381f613460565b90506138296149a4565b73ffffffffffffffffffffffffffffffffffffffff1663b93ec54b6040518163ffffffff1660e01b815260040160206040518083038186803b15801561386e57600080fd5b505afa158015613882573d6000803e3d6000fd5b505050506040513d601f19601f820116820180604052508101906138a6919061585f565b73ffffffffffffffffffffffffffffffffffffffff16635e0237ea826040518263ffffffff1660e01b81526004016138de9190615cbb565b60206040518083038186803b1580156138f657600080fd5b505afa15801561390a573d6000803e3d6000fd5b505050506040513d601f19601f8201168201806040525081019061392e919061594f565b61396d576040517f08c379a000000000000000000000000000000000000000000000000000000000815260040161396490615e5c565b60405180910390fd5b60006139776149a4565b73ffffffffffffffffffffffffffffffffffffffff16637b0e5c456040518163ffffffff1660e01b815260040160206040518083038186803b1580156139bc57600080fd5b505afa1580156139d0573d6000803e3d6000fd5b505050506040513d601f19601f820116820180604052508101906139f4919061585f565b90506000613a00614d08565b905060025481600f54613a139190616106565b10613a53576040517f08c379a0000000000000000000000000000000000000000000000000000000008152600401613a4a90615ebc565b60405180910390fd5b60008373ffffffffffffffffffffffffffffffffffffffff166318160ddd6040518163ffffffff1660e01b815260040160206040518083038186803b158015613a9b57600080fd5b505afa158015613aaf573d6000803e3d6000fd5b505050506040513d601f19601f82011682018060405250810190613ad391906159ca565b90506000612710601054600954613aea919061618d565b613af4919061615c565b90506000612710600f54600954613b0b919061618d565b613b15919061615c565b90506000600854905082841015613b2a578293505b81811015613b36578190505b8573ffffffffffffffffffffffffffffffffffffffff1663701baaf38683600f54613b619190616106565b87601054613b6f91906161e7565b6040518463ffffffff1660e01b8152600401613b8d93929190616000565b60206040518083038186803b158015613ba557600080fd5b505afa158015613bb9573d6000803e3d6000fd5b505050506040513d601f19601f82011682018060405250810190613bdd91906159ca565b98506000612710600154601054613bf4919061618d565b613bfe919061615c565b90508560086000828254613c129190616106565b92505081905550808873ffffffffffffffffffffffffffffffffffffffff166318160ddd6040518163ffffffff1660e01b815260040160206040518083038186803b158015613c6057600080fd5b505afa158015613c74573d6000803e3d6000fd5b505050506040513d601f19601f82011682018060405250810190613c9891906159ca565b8b613ca39190616106565b10613ce3576040517f08c379a0000000000000000000000000000000000000000000000000000000008152600401613cda90615efc565b60405180910390fd5b60008773ffffffffffffffffffffffffffffffffffffffff1663b86a82ef88306040518363ffffffff1660e01b8152600401613d20929190615f77565b60206040518083038186803b158015613d3857600080fd5b505afa158015613d4c573d6000803e3d6000fd5b505050506040513d601f19601f82011682018060405250810190613d7091906159ca565b9050613d7d87600061538a565b60008873ffffffffffffffffffffffffffffffffffffffff1663896a708c8986600f54613daa9190616106565b8a601054613db891906161e7565b6040518463ffffffff1660e01b8152600401613dd693929190616000565b60206040518083038186803b158015613dee57600080fd5b505afa158015613e02573d6000803e3d6000fd5b505050506040513d601f19601f82011682018060405250810190613e2691906159ca565b90508873ffffffffffffffffffffffffffffffffffffffff1663c19387df7f0000000000000000000000000000000000000000000000000000000000000000836040518363ffffffff1660e01b8152600401613e83929190615cd6565b60206040518083038186803b158015613e9b57600080fd5b505afa158015613eaf573d6000803e3d6000fd5b505050506040513d601f19601f82011682018060405250810190613ed391906159ca565b9a50613edf8a83615241565b8973ffffffffffffffffffffffffffffffffffffffff166332f302e38e8e6040518363ffffffff1660e01b8152600401613f1a929190615cd6565b602060405180830381600087803b158015613f3457600080fd5b505af1158015613f48573d6000803e3d6000fd5b505050506040513d601f19601f82011682018060405250810190613f6c91906159ca565b50613f768b615406565b8c73ffffffffffffffffffffffffffffffffffffffff167fbaff1e38597e99ccc6d6abf0e271a32ee3dc24114ea5bec3f05afd9bbb19f1f589848f8f604051613fc29493929190616037565b60405180910390a250505050505050505050915091565b613fe16149a4565b73ffffffffffffffffffffffffffffffffffffffff166332fe7b266040518163ffffffff1660e01b815260040160206040518083038186803b15801561402657600080fd5b505afa15801561403a573d6000803e3d6000fd5b505050506040513d601f19601f8201168201806040525081019061405e919061585f565b73ffffffffffffffffffffffffffffffffffffffff163373ffffffffffffffffffffffffffffffffffffffff161480614146575061409a6149a4565b73ffffffffffffffffffffffffffffffffffffffff16632ab24e496040518163ffffffff1660e01b815260040160206040518083038186803b1580156140df57600080fd5b505afa1580156140f3573d6000803e3d6000fd5b505050506040513d601f19601f82011682018060405250810190614117919061585f565b73ffffffffffffffffffffffffffffffffffffffff163373ffffffffffffffffffffffffffffffffffffffff16145b8061420057506141546149a4565b73ffffffffffffffffffffffffffffffffffffffff1663b99b0a0c6040518163ffffffff1660e01b815260040160206040518083038186803b15801561419957600080fd5b505afa1580156141ad573d6000803e3d6000fd5b505050506040513d601f19601f820116820180604052508101906141d1919061585f565b73ffffffffffffffffffffffffffffffffffffffff163373ffffffffffffffffffffffffffffffffffffffff16145b61420957600080fd5b610244811061424d576040517f08c379a000000000000000000000000000000000000000000000000000000000815260040161424490615e7c565b60405180910390fd5b600660009054906101000a900460ff1615600660006101000a81548160ff02191690831515021790555080426142839190616106565b60048190555050565b6142946149a4565b73ffffffffffffffffffffffffffffffffffffffff166398fabd3a6040518163ffffffff1660e01b815260040160206040518083038186803b1580156142d957600080fd5b505afa1580156142ed573d6000803e3d6000fd5b505050506040513d601f19601f82011682018060405250810190614311919061585f565b73ffffffffffffffffffffffffffffffffffffffff163373ffffffffffffffffffffffffffffffffffffffff1614806143f9575061434d6149a4565b73ffffffffffffffffffffffffffffffffffffffff166332fe7b266040518163ffffffff1660e01b815260040160206040518083038186803b15801561439257600080fd5b505afa1580156143a6573d6000803e3d6000fd5b505050506040513d601f19601f820116820180604052508101906143ca919061585f565b73ffffffffffffffffffffffffffffffffffffffff163373ffffffffffffffffffffffffffffffffffffffff16145b61440257600080fd5b7f000000000000000000000000000000000000000000000000000000000000000073ffffffffffffffffffffffffffffffffffffffff166370a08231306040518263ffffffff1660e01b815260040161445b9190615cbb565b60206040518083038186803b15801561447357600080fd5b505afa158015614487573d6000803e3d6000fd5b505050506040513d601f19601f820116820180604052508101906144ab91906159ca565b600f819055507f000000000000000000000000000000000000000000000000000000000000000073ffffffffffffffffffffffffffffffffffffffff166370a08231306040518263ffffffff1660e01b815260040161450a9190615cbb565b60206040518083038186803b15801561452257600080fd5b505afa158015614536573d6000803e3d6000fd5b505050506040513d601f19601f8201168201806040525081019061455a91906159ca565b601081905550565b600073ffffffffffffffffffffffffffffffffffffffff168373ffffffffffffffffffffffffffffffffffffffff1614156145d2576040517f08c379a00000000000000000000000000000000000000000000000000000000081526004016145c990615f3c565b60405180910390fd5b600073ffffffffffffffffffffffffffffffffffffffff168273ffffffffffffffffffffffffffffffffffffffff161415614642576040517f08c379a000000000000000000000000000000000000000000000000000000000815260040161463990615e3c565b60405180910390fd5b80600e60008573ffffffffffffffffffffffffffffffffffffffff1673ffffffffffffffffffffffffffffffffffffffff16815260200190815260200160002060008473ffffffffffffffffffffffffffffffffffffffff1673ffffffffffffffffffffffffffffffffffffffff168152602001908152602001600020819055508173ffffffffffffffffffffffffffffffffffffffff168373ffffffffffffffffffffffffffffffffffffffff167f8c5be1e5ebec7d5bd14f71427d1e84f3dd0314c0f7b2291e5b200ac8c7c3b925836040516147209190615f5c565b60405180910390a3505050565b600073ffffffffffffffffffffffffffffffffffffffff168373ffffffffffffffffffffffffffffffffffffffff16141561479d576040517f08c379a000000000000000000000000000000000000000000000000000000000815260040161479490615edc565b60405180910390fd5b600073ffffffffffffffffffffffffffffffffffffffff168273ffffffffffffffffffffffffffffffffffffffff16141561480d576040517f08c379a000000000000000000000000000000000000000000000000000000000815260040161480490615e1c565b60405180910390fd5b6000600d60008573ffffffffffffffffffffffffffffffffffffffff1673ffffffffffffffffffffffffffffffffffffffff16815260200190815260200160002054905081811015614894576040517f08c379a000000000000000000000000000000000000000000000000000000000815260040161488b90615dbc565b60405180910390fd5b81816148a091906161e7565b600d60008673ffffffffffffffffffffffffffffffffffffffff1673ffffffffffffffffffffffffffffffffffffffff1681526020019081526020016000208190555081600d60008573ffffffffffffffffffffffffffffffffffffffff1673ffffffffffffffffffffffffffffffffffffffff16815260200190815260200160002060008282546149329190616106565b925050819055508273ffffffffffffffffffffffffffffffffffffffff168473ffffffffffffffffffffffffffffffffffffffff167fddf252ad1be2c89b69c2b068fc378daa952ba7f163c4a11628f55a4df523b3ef846040516149969190615f5c565b60405180910390a350505050565b60007f000000000000000000000000000000000000000000000000000000000000000073ffffffffffffffffffffffffffffffffffffffff166398fabd3a6040518163ffffffff1660e01b815260040160206040518083038186803b158015614a0c57600080fd5b505afa158015614a20573d6000803e3d6000fd5b505050506040513d601f19601f82011682018060405250810190614a449190615978565b905090565b6000807f000000000000000000000000000000000000000000000000000000000000000073ffffffffffffffffffffffffffffffffffffffff166370a08231306040518263ffffffff1660e01b8152600401614aa59190615cbb565b60206040518083038186803b158015614abd57600080fd5b505afa158015614ad1573d6000803e3d6000fd5b505050506040513d601f19601f82011682018060405250810190614af591906159ca565b9050601054811115614b165760105481614b0f91906161e7565b9150614b1b565b600091505b5090565b600080600060105490506000600f5490506000614b3a6149a4565b73ffffffffffffffffffffffffffffffffffffffff16637b0e5c456040518163ffffffff1660e01b815260040160206040518083038186803b158015614b7f57600080fd5b505afa158015614b93573d6000803e3d6000fd5b505050506040513d601f19601f82011682018060405250810190614bb7919061585f565b90508073ffffffffffffffffffffffffffffffffffffffff1663701baaf38785856040518463ffffffff1660e01b8152600401614bf693929190616000565b60206040518083038186803b158015614c0e57600080fd5b505afa158015614c22573d6000803e3d6000fd5b505050506040513d601f19601f82011682018060405250810190614c4691906159ca565b94508073ffffffffffffffffffffffffffffffffffffffff1663896a708c8785856040518463ffffffff1660e01b8152600401614c8593929190616000565b60206040518083038186803b158015614c9d57600080fd5b505afa158015614cb1573d6000803e3d6000fd5b505050506040513d601f19601f82011682018060405250810190614cd591906159ca565b9350614cf78583614ce691906161e7565b8785614cf29190616106565b61546f565b614d0084615406565b505050915091565b6000807f000000000000000000000000000000000000000000000000000000000000000073ffffffffffffffffffffffffffffffffffffffff166370a08231306040518263ffffffff1660e01b8152600401614d649190615cbb565b60206040518083038186803b158015614d7c57600080fd5b505afa158015614d90573d6000803e3d6000fd5b505050506040513d601f19601f82011682018060405250810190614db491906159ca565b9050600f54811115614dd557600f5481614dce91906161e7565b9150614dda565b600091505b5090565b6000806000600f549050600060105490506000614df96149a4565b73ffffffffffffffffffffffffffffffffffffffff16637b0e5c456040518163ffffffff1660e01b815260040160206040518083038186803b158015614e3e57600080fd5b505afa158015614e52573d6000803e3d6000fd5b505050506040513d601f19601f82011682018060405250810190614e76919061585f565b90508073ffffffffffffffffffffffffffffffffffffffff1663701baaf38785856040518463ffffffff1660e01b8152600401614eb593929190616000565b60206040518083038186803b158015614ecd57600080fd5b505afa158015614ee1573d6000803e3d6000fd5b505050506040513d601f19601f82011682018060405250810190614f0591906159ca565b945060008173ffffffffffffffffffffffffffffffffffffffff1663896a708c8886866040518463ffffffff1660e01b8152600401614f4693929190616000565b60206040518083038186803b158015614f5e57600080fd5b505afa158015614f72573d6000803e3d6000fd5b505050506040513d601f19601f82011682018060405250810190614f9691906159ca565b90508173ffffffffffffffffffffffffffffffffffffffff1663c19387df7f0000000000000000000000000000000000000000000000000000000000000000836040518363ffffffff1660e01b8152600401614ff3929190615cd6565b60206040518083038186803b15801561500b57600080fd5b505afa15801561501f573d6000803e3d6000fd5b505050506040513d601f19601f8201168201806040525081019061504391906159ca565b945061506587856150549190616106565b878561506091906161e7565b61546f565b61506e85615406565b50505050915091565b600073ffffffffffffffffffffffffffffffffffffffff168273ffffffffffffffffffffffffffffffffffffffff1614156150e7576040517f08c379a00000000000000000000000000000000000000000000000000000000081526004016150de90615d3c565b60405180910390fd5b6000600d60008473ffffffffffffffffffffffffffffffffffffffff1673ffffffffffffffffffffffffffffffffffffffff1681526020019081526020016000205490508181101561516e576040517f08c379a000000000000000000000000000000000000000000000000000000000815260040161516590615dbc565b60405180910390fd5b818161517a91906161e7565b600d60008573ffffffffffffffffffffffffffffffffffffffff1673ffffffffffffffffffffffffffffffffffffffff1681526020019081526020016000208190555081600c60008282546151cf91906161e7565b92505081905550600073ffffffffffffffffffffffffffffffffffffffff168373ffffffffffffffffffffffffffffffffffffffff167fddf252ad1be2c89b69c2b068fc378daa952ba7f163c4a11628f55a4df523b3ef846040516152349190615f5c565b60405180910390a3505050565b600073ffffffffffffffffffffffffffffffffffffffff168273ffffffffffffffffffffffffffffffffffffffff1614156152b1576040517f08c379a00000000000000000000000000000000000000000000000000000000081526004016152a890615d3c565b60405180910390fd5b80600c60008282546152c39190616106565b9250508190555080600d60008473ffffffffffffffffffffffffffffffffffffffff1673ffffffffffffffffffffffffffffffffffffffff16815260200190815260200160002060008282546153199190616106565b925050819055508173ffffffffffffffffffffffffffffffffffffffff16600073ffffffffffffffffffffffffffffffffffffffff167fddf252ad1be2c89b69c2b068fc378daa952ba7f163c4a11628f55a4df523b3ef8360405161537e9190615f5c565b60405180910390a35050565b81600f600082825461539c9190616106565b9250508190555080601060008282546153b59190616106565b925050819055506153c4615489565b5050565b81600f60008282546153da91906161e7565b9250508190555080601060008282546153f391906161e7565b92505081905550615402615489565b5050565b6000601154141561541957426011819055505b62278d0060115461542a9190616106565b4211615449578060125461543e9190616106565b60128190555061546c565b426011819055506012546013819055506154646013546155d6565b806012819055505b50565b81600f8190555080601081905550615485615489565b5050565b6000601054600f54600f5461549e919061618d565b6154a8919061615c565b905060006003548211156154cb57600354826154c491906161e7565b90506154dc565b816003546154d991906161e7565b90505b81612710826154eb919061618d565b6154f5919061615c565b90506005548110615520576001600660006101000a81548160ff021916908315150217905550615547565b60045442111561554657610e10426155389190616106565b600481905550816003819055505b5b600660009054906101000a900460ff16156155d2576005548111615581576000600660006101000a81548160ff0219169083151502179055505b6004544211156155d157610e10426155999190616106565b60048190555060006004600380546155b1919061618d565b846155bc9190616106565b6155c6919061615c565b905080600381905550505b5b5050565b6000601480548060200260200160405190810160405280929190818152602001828054801561562457602002820191906000526020600020905b815481526020019060010190808311615610575b50505050509050600281511415615720578060018151811061566f577f4e487b7100000000000000000000000000000000000000000000000000000000600052603260045260246000fd5b6020026020010151816000815181106156b1577f4e487b7100000000000000000000000000000000000000000000000000000000600052603260045260246000fd5b60200260200101818152505081816001815181106156f8577f4e487b7100000000000000000000000000000000000000000000000000000000600052603260045260246000fd5b602002602001018181525050806014908051906020019061571a92919061574e565b5061574a565b60148290806001815401808255809150506001900390600052602060002001600090919091909150555b5050565b82805482825590600052602060002090810192821561578a579160200282015b8281111561578957825182559160200191906001019061576e565b5b509050615797919061579b565b5090565b5b808211156157b457600081600090555060010161579c565b5090565b6000813590506157c78161663e565b92915050565b6000815190506157dc8161663e565b92915050565b6000815190506157f181616655565b92915050565b6000815190506158068161666c565b92915050565b60008135905061581b81616683565b92915050565b60008151905061583081616683565b92915050565b60006020828403121561584857600080fd5b6000615856848285016157b8565b91505092915050565b60006020828403121561587157600080fd5b600061587f848285016157cd565b91505092915050565b6000806040838503121561589b57600080fd5b60006158a9858286016157b8565b92505060206158ba858286016157b8565b9150509250929050565b6000806000606084860312156158d957600080fd5b60006158e7868287016157b8565b93505060206158f8868287016157b8565b92505060406159098682870161580c565b9150509250925092565b6000806040838503121561592657600080fd5b6000615934858286016157b8565b92505060206159458582860161580c565b9150509250929050565b60006020828403121561596157600080fd5b600061596f848285016157e2565b91505092915050565b60006020828403121561598a57600080fd5b6000615998848285016157f7565b91505092915050565b6000602082840312156159b357600080fd5b60006159c18482850161580c565b91505092915050565b6000602082840312156159dc57600080fd5b60006159ea84828501615821565b91505092915050565b6159fc8161621b565b82525050565b615a0b8161622d565b82525050565b6000615a1c826160ea565b615a2681856160f5565b9350615a36818560208601616282565b615a3f81616374565b840191505092915050565b6000615a576008836160f5565b9150615a6282616385565b602082019050919050565b6000615a7a6004836160f5565b9150615a85826163ae565b602082019050919050565b6000615a9d6009836160f5565b9150615aa8826163d7565b602082019050919050565b6000615ac06009836160f5565b9150615acb82616400565b602082019050919050565b6000615ae36008836160f5565b9150615aee82616429565b602082019050919050565b6000615b06600c836160f5565b9150615b1182616452565b602082019050919050565b6000615b296006836160f5565b9150615b348261647b565b602082019050919050565b6000615b4c6005836160f5565b9150615b57826164a4565b602082019050919050565b6000615b6f6008836160f5565b9150615b7a826164cd565b602082019050919050565b6000615b926006836160f5565b9150615b9d826164f6565b602082019050919050565b6000615bb56006836160f5565b9150615bc08261651f565b602082019050919050565b6000615bd86009836160f5565b9150615be382616548565b602082019050919050565b6000615bfb6003836160f5565b9150615c0682616571565b602082019050919050565b6000615c1e6007836160f5565b9150615c298261659a565b602082019050919050565b6000615c416006836160f5565b9150615c4c826165c3565b602082019050919050565b6000615c64600a836160f5565b9150615c6f826165ec565b602082019050919050565b6000615c876006836160f5565b9150615c9282616615565b602082019050919050565b615ca68161626b565b82525050565b615cb581616275565b82525050565b6000602082019050615cd060008301846159f3565b92915050565b6000604082019050615ceb60008301856159f3565b615cf86020830184615c9d565b9392505050565b6000602082019050615d146000830184615a02565b92915050565b60006020820190508181036000830152615d348184615a11565b905092915050565b60006020820190508181036000830152615d5581615a4a565b9050919050565b60006020820190508181036000830152615d7581615a6d565b9050919050565b60006020820190508181036000830152615d9581615a90565b9050919050565b60006020820190508181036000830152615db581615ab3565b9050919050565b60006020820190508181036000830152615dd581615ad6565b9050919050565b60006020820190508181036000830152615df581615af9565b9050919050565b60006020820190508181036000830152615e1581615b1c565b9050919050565b60006020820190508181036000830152615e3581615b3f565b9050919050565b60006020820190508181036000830152615e5581615b62565b9050919050565b60006020820190508181036000830152615e7581615b85565b9050919050565b60006020820190508181036000830152615e9581615ba8565b9050919050565b60006020820190508181036000830152615eb581615bcb565b9050919050565b60006020820190508181036000830152615ed581615bee565b9050919050565b60006020820190508181036000830152615ef581615c11565b9050919050565b60006020820190508181036000830152615f1581615c34565b9050919050565b60006020820190508181036000830152615f3581615c57565b9050919050565b60006020820190508181036000830152615f5581615c7a565b9050919050565b6000602082019050615f716000830184615c9d565b92915050565b6000604082019050615f8c6000830185615c9d565b615f9960208301846159f3565b9392505050565b6000606082019050615fb56000830186615c9d565b615fc260208301856159f3565b615fcf60408301846159f3565b949350505050565b6000604082019050615fec6000830185615c9d565b615ff96020830184615c9d565b9392505050565b60006060820190506160156000830186615c9d565b6160226020830185615c9d565b61602f6040830184615c9d565b949350505050565b600060808201905061604c6000830187615c9d565b6160596020830186615c9d565b6160666040830185615c9d565b6160736060830184615c9d565b95945050505050565b600060a0820190506160916000830188615c9d565b61609e6020830187615c9d565b6160ab6040830186615c9d565b6160b86060830185615c9d565b6160c56080830184615c9d565b9695505050505050565b60006020820190506160e46000830184615cac565b92915050565b600081519050919050565b600082825260208201905092915050565b60006161118261626b565b915061611c8361626b565b9250827fffffffffffffffffffffffffffffffffffffffffffffffffffffffffffffffff03821115616151576161506162e7565b5b828201905092915050565b60006161678261626b565b91506161728361626b565b92508261618257616181616316565b5b828204905092915050565b60006161988261626b565b91506161a38361626b565b9250817fffffffffffffffffffffffffffffffffffffffffffffffffffffffffffffffff04831182151516156161dc576161db6162e7565b5b828202905092915050565b60006161f28261626b565b91506161fd8361626b565b9250828210156162105761620f6162e7565b5b828203905092915050565b60006162268261624b565b9050919050565b60008115159050919050565b60006162448261621b565b9050919050565b600073ffffffffffffffffffffffffffffffffffffffff82169050919050565b6000819050919050565b600060ff82169050919050565b60005b838110156162a0578082015181840152602081019050616285565b838111156162af576000848401525b50505050565b600060028204905060018216806162cd57607f821691505b602082108114156162e1576162e0616345565b5b50919050565b7f4e487b7100000000000000000000000000000000000000000000000000000000600052601160045260246000fd5b7f4e487b7100000000000000000000000000000000000000000000000000000000600052601260045260246000fd5b7f4e487b7100000000000000000000000000000000000000000000000000000000600052602260045260246000fd5b6000601f19601f8301169050919050565b7f216163636f756e74000000000000000000000000000000000000000000000000600082015250565b7f214d415800000000000000000000000000000000000000000000000000000000600082015250565b7f21617070726f76616c0000000000000000000000000000000000000000000000600082015250565b7f2142616c616e6365640000000000000000000000000000000000000000000000600082015250565b7f2162616c616e6365000000000000000000000000000000000000000000000000600082015250565b7f21424153457c7c544f4b454e0000000000000000000000000000000000000000600082015250565b7f2153594e54480000000000000000000000000000000000000000000000000000600082015250565b7f214255524e000000000000000000000000000000000000000000000000000000600082015250565b7f217370656e646572000000000000000000000000000000000000000000000000600082015250565b7f2173796e74680000000000000000000000000000000000000000000000000000600082015250565b7f2156414c49440000000000000000000000000000000000000000000000000000600082015250565b7f217472616e736665720000000000000000000000000000000000000000000000600082015250565b7f5254430000000000000000000000000000000000000000000000000000000000600082015250565b7f2173656e64657200000000000000000000000000000000000000000000000000600082015250565b7f4341505045440000000000000000000000000000000000000000000000000000600082015250565b7f21494e4954494154454400000000000000000000000000000000000000000000600082015250565b7f216f776e65720000000000000000000000000000000000000000000000000000600082015250565b6166478161621b565b811461665257600080fd5b50565b61665e8161622d565b811461666957600080fd5b50565b61667581616239565b811461668057600080fd5b50565b61668c8161626b565b811461669757600080fd5b5056fea26469706673582212208f262a29f87ab987908c66464affb026ad8bd192e47e79a68d6b45b58258eb5764736f6c63430008030033",
  "linkReferences": {},
  "deployedLinkReferences": {}
}