{
  "_format": "hh-sol-artifact-1",
  "contractName": "Pool",
  "sourceName": "contracts/Pool.sol",
  "abi": [
    {
      "inputs": [
        {
          "internalType": "address",
          "name": "_base",
          "type": "address"
        },
        {
          "internalType": "address",
          "name": "_token",
          "type": "address"
        }
      ],
      "stateMutability": "nonpayable",
      "type": "constructor"
    },
    {
      "anonymous": false,
      "inputs": [
        {
          "indexed": true,
          "internalType": "address",
          "name": "member",
          "type": "address"
        },
        {
          "indexed": false,
          "internalType": "uint256",
          "name": "inputBase",
          "type": "uint256"
        },
        {
          "indexed": false,
          "internalType": "uint256",
          "name": "inputToken",
          "type": "uint256"
        },
        {
          "indexed": false,
          "internalType": "uint256",
          "name": "unitsIssued",
          "type": "uint256"
        }
      ],
      "name": "AddLiquidity",
      "type": "event"
    },
    {
      "anonymous": false,
      "inputs": [
        {
          "indexed": true,
          "internalType": "address",
          "name": "owner",
          "type": "address"
        },
        {
          "indexed": true,
          "internalType": "address",
          "name": "spender",
          "type": "address"
        },
        {
          "indexed": false,
          "internalType": "uint256",
          "name": "value",
          "type": "uint256"
        }
      ],
      "name": "Approval",
      "type": "event"
    },
    {
      "anonymous": false,
      "inputs": [
        {
          "indexed": true,
          "internalType": "address",
          "name": "member",
          "type": "address"
        },
        {
          "indexed": false,
          "internalType": "uint256",
          "name": "baseAmount",
          "type": "uint256"
        },
        {
          "indexed": false,
          "internalType": "uint256",
          "name": "liqUnits",
          "type": "uint256"
        },
        {
          "indexed": false,
          "internalType": "uint256",
          "name": "synthAmount",
          "type": "uint256"
        },
        {
          "indexed": false,
          "internalType": "uint256",
          "name": "fee",
          "type": "uint256"
        }
      ],
      "name": "BurnSynth",
      "type": "event"
    },
    {
      "anonymous": false,
      "inputs": [
        {
          "indexed": true,
          "internalType": "address",
          "name": "member",
          "type": "address"
        },
        {
          "indexed": false,
          "internalType": "uint256",
          "name": "baseAmount",
          "type": "uint256"
        },
        {
          "indexed": false,
          "internalType": "uint256",
          "name": "liqUnits",
          "type": "uint256"
        },
        {
          "indexed": false,
          "internalType": "uint256",
          "name": "synthAmount",
          "type": "uint256"
        },
        {
          "indexed": false,
          "internalType": "uint256",
          "name": "fee",
          "type": "uint256"
        }
      ],
      "name": "MintSynth",
      "type": "event"
    },
    {
      "anonymous": false,
      "inputs": [
        {
          "indexed": true,
          "internalType": "address",
          "name": "member",
          "type": "address"
        },
        {
          "indexed": false,
          "internalType": "uint256",
          "name": "outputBase",
          "type": "uint256"
        },
        {
          "indexed": false,
          "internalType": "uint256",
          "name": "outputToken",
          "type": "uint256"
        },
        {
          "indexed": false,
          "internalType": "uint256",
          "name": "unitsClaimed",
          "type": "uint256"
        }
      ],
      "name": "RemoveLiquidity",
      "type": "event"
    },
    {
      "anonymous": false,
      "inputs": [
        {
          "indexed": true,
          "internalType": "address",
          "name": "tokenFrom",
          "type": "address"
        },
        {
          "indexed": true,
          "internalType": "address",
          "name": "tokenTo",
          "type": "address"
        },
        {
          "indexed": true,
          "internalType": "address",
          "name": "recipient",
          "type": "address"
        },
        {
          "indexed": false,
          "internalType": "uint256",
          "name": "inputAmount",
          "type": "uint256"
        },
        {
          "indexed": false,
          "internalType": "uint256",
          "name": "outputAmount",
          "type": "uint256"
        },
        {
          "indexed": false,
          "internalType": "uint256",
          "name": "fee",
          "type": "uint256"
        }
      ],
      "name": "Swapped",
      "type": "event"
    },
    {
      "anonymous": false,
      "inputs": [
        {
          "indexed": true,
          "internalType": "address",
          "name": "from",
          "type": "address"
        },
        {
          "indexed": true,
          "internalType": "address",
          "name": "to",
          "type": "address"
        },
        {
          "indexed": false,
          "internalType": "uint256",
          "name": "value",
          "type": "uint256"
        }
      ],
      "name": "Transfer",
      "type": "event"
    },
    {
      "inputs": [],
      "name": "BASE",
      "outputs": [
        {
          "internalType": "address",
          "name": "",
          "type": "address"
        }
      ],
      "stateMutability": "view",
      "type": "function"
    },
    {
      "inputs": [
        {
          "internalType": "uint256",
          "name": "_newRTC",
          "type": "uint256"
        }
      ],
      "name": "RTC",
      "outputs": [],
      "stateMutability": "nonpayable",
      "type": "function"
    },
    {
      "inputs": [],
      "name": "SYNTH",
      "outputs": [
        {
          "internalType": "address",
          "name": "",
          "type": "address"
        }
      ],
      "stateMutability": "view",
      "type": "function"
    },
    {
      "inputs": [],
      "name": "TOKEN",
      "outputs": [
        {
          "internalType": "address",
          "name": "",
          "type": "address"
        }
      ],
      "stateMutability": "view",
      "type": "function"
    },
    {
      "inputs": [
        {
          "internalType": "address",
          "name": "member",
          "type": "address"
        }
      ],
      "name": "addForMember",
      "outputs": [
        {
          "internalType": "uint256",
          "name": "liquidityUnits",
          "type": "uint256"
        }
      ],
      "stateMutability": "nonpayable",
      "type": "function"
    },
    {
      "inputs": [
        {
          "internalType": "address",
          "name": "owner",
          "type": "address"
        },
        {
          "internalType": "address",
          "name": "spender",
          "type": "address"
        }
      ],
      "name": "allowance",
      "outputs": [
        {
          "internalType": "uint256",
          "name": "",
          "type": "uint256"
        }
      ],
      "stateMutability": "view",
      "type": "function"
    },
    {
      "inputs": [
        {
          "internalType": "address",
          "name": "spender",
          "type": "address"
        },
        {
          "internalType": "uint256",
          "name": "amount",
          "type": "uint256"
        }
      ],
      "name": "approve",
      "outputs": [
        {
          "internalType": "bool",
          "name": "",
          "type": "bool"
        }
      ],
      "stateMutability": "nonpayable",
      "type": "function"
    },
    {
      "inputs": [
        {
          "internalType": "address",
          "name": "account",
          "type": "address"
        }
      ],
      "name": "balanceOf",
      "outputs": [
        {
          "internalType": "uint256",
          "name": "",
          "type": "uint256"
        }
      ],
      "stateMutability": "view",
      "type": "function"
    },
    {
      "inputs": [],
      "name": "baseAmount",
      "outputs": [
        {
          "internalType": "uint256",
          "name": "",
          "type": "uint256"
        }
      ],
      "stateMutability": "view",
      "type": "function"
    },
    {
      "inputs": [],
      "name": "baseCap",
      "outputs": [
        {
          "internalType": "uint256",
          "name": "",
          "type": "uint256"
        }
      ],
      "stateMutability": "view",
      "type": "function"
    },
    {
      "inputs": [
        {
          "internalType": "uint256",
          "name": "amount",
          "type": "uint256"
        }
      ],
      "name": "burn",
      "outputs": [],
      "stateMutability": "nonpayable",
      "type": "function"
    },
    {
      "inputs": [
        {
          "internalType": "address",
          "name": "member",
          "type": "address"
        }
      ],
      "name": "burnSynth",
      "outputs": [
        {
          "internalType": "uint256",
          "name": "outputAmount",
          "type": "uint256"
        },
        {
          "internalType": "uint256",
          "name": "fee",
          "type": "uint256"
        }
      ],
      "stateMutability": "nonpayable",
      "type": "function"
    },
    {
      "inputs": [],
      "name": "decimals",
      "outputs": [
        {
          "internalType": "uint8",
          "name": "",
          "type": "uint8"
        }
      ],
      "stateMutability": "view",
      "type": "function"
    },
    {
      "inputs": [
        {
          "internalType": "address",
          "name": "spender",
          "type": "address"
        },
        {
          "internalType": "uint256",
          "name": "subtractedValue",
          "type": "uint256"
        }
      ],
      "name": "decreaseAllowance",
      "outputs": [
        {
          "internalType": "bool",
          "name": "",
          "type": "bool"
        }
      ],
      "stateMutability": "nonpayable",
      "type": "function"
    },
    {
      "inputs": [
        {
          "internalType": "uint256",
          "name": "newPeriod",
          "type": "uint256"
        }
      ],
      "name": "flipFreeze",
      "outputs": [],
      "stateMutability": "nonpayable",
      "type": "function"
    },
    {
      "inputs": [],
      "name": "freeze",
      "outputs": [
        {
          "internalType": "bool",
          "name": "",
          "type": "bool"
        }
      ],
      "stateMutability": "view",
      "type": "function"
    },
    {
      "inputs": [],
      "name": "genesis",
      "outputs": [
        {
          "internalType": "uint256",
          "name": "",
          "type": "uint256"
        }
      ],
      "stateMutability": "view",
      "type": "function"
    },
    {
      "inputs": [
        {
          "internalType": "address",
          "name": "spender",
          "type": "address"
        },
        {
          "internalType": "uint256",
          "name": "addedValue",
          "type": "uint256"
        }
      ],
      "name": "increaseAllowance",
      "outputs": [
        {
          "internalType": "bool",
          "name": "",
          "type": "bool"
        }
      ],
      "stateMutability": "nonpayable",
      "type": "function"
    },
    {
      "inputs": [],
      "name": "initialPeriod",
      "outputs": [
        {
          "internalType": "uint256",
          "name": "",
          "type": "uint256"
        }
      ],
      "stateMutability": "view",
      "type": "function"
    },
    {
      "inputs": [],
      "name": "initiationPeriod",
      "outputs": [
        {
          "internalType": "uint256",
          "name": "",
          "type": "uint256"
        }
      ],
      "stateMutability": "view",
      "type": "function"
    },
    {
      "inputs": [],
      "name": "lastMonth",
      "outputs": [
        {
          "internalType": "uint256",
          "name": "",
          "type": "uint256"
        }
      ],
      "stateMutability": "view",
      "type": "function"
    },
    {
      "inputs": [],
      "name": "lastStirred",
      "outputs": [
        {
          "internalType": "uint256",
          "name": "",
          "type": "uint256"
        }
      ],
      "stateMutability": "view",
      "type": "function"
    },
    {
      "inputs": [],
      "name": "map30DPoolRevenue",
      "outputs": [
        {
          "internalType": "uint256",
          "name": "",
          "type": "uint256"
        }
      ],
      "stateMutability": "view",
      "type": "function"
    },
    {
      "inputs": [],
      "name": "mapPast30DPoolRevenue",
      "outputs": [
        {
          "internalType": "uint256",
          "name": "",
          "type": "uint256"
        }
      ],
      "stateMutability": "view",
      "type": "function"
    },
    {
      "inputs": [],
      "name": "minSynth",
      "outputs": [
        {
          "internalType": "uint256",
          "name": "",
          "type": "uint256"
        }
      ],
      "stateMutability": "view",
      "type": "function"
    },
    {
      "inputs": [
        {
          "internalType": "uint256",
          "name": "_newMinimum",
          "type": "uint256"
        }
      ],
      "name": "minimumSynth",
      "outputs": [],
      "stateMutability": "nonpayable",
      "type": "function"
    },
    {
      "inputs": [
        {
          "internalType": "address",
          "name": "member",
          "type": "address"
        }
      ],
      "name": "mintSynth",
      "outputs": [
        {
          "internalType": "uint256",
          "name": "outputAmount",
          "type": "uint256"
        },
        {
          "internalType": "uint256",
          "name": "fee",
          "type": "uint256"
        }
      ],
      "stateMutability": "nonpayable",
      "type": "function"
    },
    {
      "inputs": [],
      "name": "name",
      "outputs": [
        {
          "internalType": "string",
          "name": "",
          "type": "string"
        }
      ],
      "stateMutability": "view",
      "type": "function"
    },
    {
      "inputs": [],
      "name": "oneWeek",
      "outputs": [
        {
          "internalType": "uint256",
          "name": "",
          "type": "uint256"
        }
      ],
      "stateMutability": "view",
      "type": "function"
    },
    {
      "inputs": [
        {
          "internalType": "address",
          "name": "member",
          "type": "address"
        }
      ],
      "name": "removeForMember",
      "outputs": [
        {
          "internalType": "uint256",
          "name": "outputBase",
          "type": "uint256"
        },
        {
          "internalType": "uint256",
          "name": "outputToken",
          "type": "uint256"
        }
      ],
      "stateMutability": "nonpayable",
      "type": "function"
    },
    {
      "inputs": [
        {
          "internalType": "uint256",
          "name": "",
          "type": "uint256"
        }
      ],
      "name": "revenueArray",
      "outputs": [
        {
          "internalType": "uint256",
          "name": "",
          "type": "uint256"
        }
      ],
      "stateMutability": "view",
      "type": "function"
    },
    {
      "inputs": [
        {
          "internalType": "uint256",
          "name": "_newFreezePoint",
          "type": "uint256"
        }
      ],
      "name": "setFreezePoint",
      "outputs": [],
      "stateMutability": "nonpayable",
      "type": "function"
    },
    {
      "inputs": [
        {
          "internalType": "uint256",
          "name": "newInitiation",
          "type": "uint256"
        }
      ],
      "name": "setInitiation",
      "outputs": [],
      "stateMutability": "nonpayable",
      "type": "function"
    },
    {
      "inputs": [
        {
          "internalType": "uint256",
          "name": "_synthCap",
          "type": "uint256"
        }
      ],
      "name": "setSynthCap",
      "outputs": [],
      "stateMutability": "nonpayable",
      "type": "function"
    },
    {
      "inputs": [
        {
          "internalType": "address",
          "name": "synth",
          "type": "address"
        }
      ],
      "name": "stirCauldron",
      "outputs": [
        {
          "internalType": "uint256",
          "name": "steamedSynths",
          "type": "uint256"
        }
      ],
      "stateMutability": "nonpayable",
      "type": "function"
    },
    {
      "inputs": [],
      "name": "stirRate",
      "outputs": [
        {
          "internalType": "uint256",
          "name": "",
          "type": "uint256"
        }
      ],
      "stateMutability": "view",
      "type": "function"
    },
    {
      "inputs": [
        {
          "internalType": "address",
          "name": "token",
          "type": "address"
        },
        {
          "internalType": "address",
          "name": "member",
          "type": "address"
        }
      ],
      "name": "swapTo",
      "outputs": [
        {
          "internalType": "uint256",
          "name": "outputAmount",
          "type": "uint256"
        },
        {
          "internalType": "uint256",
          "name": "fee",
          "type": "uint256"
        }
      ],
      "stateMutability": "nonpayable",
      "type": "function"
    },
    {
      "inputs": [],
      "name": "symbol",
      "outputs": [
        {
          "internalType": "string",
          "name": "",
          "type": "string"
        }
      ],
      "stateMutability": "view",
      "type": "function"
    },
    {
      "inputs": [],
      "name": "sync",
      "outputs": [],
      "stateMutability": "nonpayable",
      "type": "function"
    },
    {
      "inputs": [],
      "name": "synthCap",
      "outputs": [
        {
          "internalType": "uint256",
          "name": "",
          "type": "uint256"
        }
      ],
      "stateMutability": "view",
      "type": "function"
    },
    {
      "inputs": [],
      "name": "tokenAmount",
      "outputs": [
        {
          "internalType": "uint256",
          "name": "",
          "type": "uint256"
        }
      ],
      "stateMutability": "view",
      "type": "function"
    },
    {
      "inputs": [],
      "name": "totalSupply",
      "outputs": [
        {
          "internalType": "uint256",
          "name": "",
          "type": "uint256"
        }
      ],
      "stateMutability": "view",
      "type": "function"
    },
    {
      "inputs": [
        {
          "internalType": "address",
          "name": "recipient",
          "type": "address"
        },
        {
          "internalType": "uint256",
          "name": "amount",
          "type": "uint256"
        }
      ],
      "name": "transfer",
      "outputs": [
        {
          "internalType": "bool",
          "name": "",
          "type": "bool"
        }
      ],
      "stateMutability": "nonpayable",
      "type": "function"
    },
    {
      "inputs": [
        {
          "internalType": "address",
          "name": "sender",
          "type": "address"
        },
        {
          "internalType": "address",
          "name": "recipient",
          "type": "address"
        },
        {
          "internalType": "uint256",
          "name": "amount",
          "type": "uint256"
        }
      ],
      "name": "transferFrom",
      "outputs": [
        {
          "internalType": "bool",
          "name": "",
          "type": "bool"
        }
      ],
      "stateMutability": "nonpayable",
      "type": "function"
    }
  ],
  "bytecode": "0x6101006040523480156200001257600080fd5b5060405162006fd338038062006fd383398181016040528101906200003891906200053d565b6001600081905550600073ffffffffffffffffffffffffffffffffffffffff168273ffffffffffffffffffffffffffffffffffffffff161415620000b3576040517f08c379a0000000000000000000000000000000000000000000000000000000008152600401620000aa9062000649565b60405180910390fd5b600073ffffffffffffffffffffffffffffffffffffffff168173ffffffffffffffffffffffffffffffffffffffff16141562000126576040517f08c379a00000000000000000000000000000000000000000000000000000000081526004016200011d9062000649565b60405180910390fd5b8173ffffffffffffffffffffffffffffffffffffffff1660808173ffffffffffffffffffffffffffffffffffffffff1660601b815250508073ffffffffffffffffffffffffffffffffffffffff1660a08173ffffffffffffffffffffffffffffffffffffffff1660601b8152505060006040518060400160405280601481526020017f2d5370617274616e50726f746f636f6c506f6f6c000000000000000000000000815250905060006040518060400160405280600481526020017f2d5350500000000000000000000000000000000000000000000000000000000081525090508273ffffffffffffffffffffffffffffffffffffffff166306fdde036040518163ffffffff1660e01b815260040160006040518083038186803b1580156200024f57600080fd5b505afa15801562000264573d6000803e3d6000fd5b505050506040513d6000823e3d601f19601f820116820180604052508101906200028f91906200057e565b82604051602001620002a392919062000621565b604051602081830303815290604052600d9080519060200190620002c992919062000404565b508273ffffffffffffffffffffffffffffffffffffffff166395d89b416040518163ffffffff1660e01b815260040160006040518083038186803b1580156200031157600080fd5b505afa15801562000326573d6000803e3d6000fd5b505050506040513d6000823e3d601f19601f820116820180604052508101906200035191906200057e565b816040516020016200036592919062000621565b604051602081830303815290604052600e90805190602001906200038b92919062000404565b50601260ff1660c08160ff1660f81b815250504260e08181525050610bb8600181905550610bb860058190555069152d02c7e14af68000006002819055504260048190555060016007819055506101f4600a819055506000600b81905550603c600881905550613840600c819055505050505062000879565b82805462000412906200075b565b90600052602060002090601f01602090048101928262000436576000855562000482565b82601f106200045157805160ff191683800117855562000482565b8280016001018555821562000482579182015b828111156200048157825182559160200191906001019062000464565b5b50905062000491919062000495565b5090565b5b80821115620004b057600081600090555060010162000496565b5090565b6000620004cb620004c58462000694565b6200066b565b905082815260208101848484011115620004e457600080fd5b620004f184828562000725565b509392505050565b6000815190506200050a816200085f565b92915050565b600082601f8301126200052257600080fd5b815162000534848260208601620004b4565b91505092915050565b600080604083850312156200055157600080fd5b60006200056185828601620004f9565b92505060206200057485828601620004f9565b9150509250929050565b6000602082840312156200059157600080fd5b600082015167ffffffffffffffff811115620005ac57600080fd5b620005ba8482850162000510565b91505092915050565b6000620005d082620006ca565b620005dc8185620006e6565b9350620005ee81856020860162000725565b80840191505092915050565b600062000609600583620006d5565b9150620006168262000836565b602082019050919050565b60006200062f8285620005c3565b91506200063d8284620005c3565b91508190509392505050565b600060208201905081810360008301526200066481620005fa565b9050919050565b6000620006776200068a565b905062000685828262000791565b919050565b6000604051905090565b600067ffffffffffffffff821115620006b257620006b1620007f6565b5b620006bd8262000825565b9050602081019050919050565b600081519050919050565b600082825260208201905092915050565b600081905092915050565b6000620006fe8262000705565b9050919050565b600073ffffffffffffffffffffffffffffffffffffffff82169050919050565b60005b838110156200074557808201518184015260208101905062000728565b8381111562000755576000848401525b50505050565b600060028204905060018216806200077457607f821691505b602082108114156200078b576200078a620007c7565b5b50919050565b6200079c8262000825565b810181811067ffffffffffffffff82111715620007be57620007bd620007f6565b5b80604052505050565b7f4e487b7100000000000000000000000000000000000000000000000000000000600052602260045260246000fd5b7f4e487b7100000000000000000000000000000000000000000000000000000000600052604160045260246000fd5b6000601f19601f8301169050919050565b7f215a45524f000000000000000000000000000000000000000000000000000000600082015250565b6200086a81620006f1565b81146200087657600080fd5b50565b60805160601c60a05160601c60c05160f81c60e05161668b62000948600039600081816124ae015261299e015260006111fe015260008181610cb601528181610d9c01528181611bc601528181612b6c01528181612cfe0152818161367f01528181613e050152818161446e01528181614a090152614f71015260008181610c6101528181610d4801528181610ddf0152818161204301528181612abd01528181612c120152818161340801528181613711015281816143bf015281816149630152614cc8015261668b6000f3fe608060405234801561001057600080fd5b50600436106102735760003560e01c80637ec3eae511610151578063cbbcf802116100c3578063ec342ad011610087578063ec342ad0146107bb578063eec7faa1146107d9578063f0337cdc146107f7578063f1bbdef214610827578063fb19536314610858578063fff6cae91461087457610273565b8063cbbcf80214610700578063d98c4a461461071e578063dbfc5a041461073c578063dd62ed3e1461076d578063e1eddde31461079d57610273565b80639d3f87e2116101155780639d3f87e214610619578063a457c2d714610635578063a7f0b3de14610665578063a9059cbb14610683578063ba8e3edd146106b3578063bc5dedc9146106cf57610273565b80637ec3eae51461057357806382bfefc81461058f57806386d5f618146105ad57806395d89b41146105dd57806399d786ca146105fb57610273565b806342966c68116101ea5780635f83e5d5116101ae5780635f83e5d51461049b57806361cc24bb146104b957806362a5af3b146104e957806370a082311461050757806370f93cdf14610537578063752d77931461055557610273565b806342966c681461040957806346c6784314610425578063474e7302146104435780634864d1401461045f57806350f9844a1461047d57610273565b806323b872dd1161023c57806323b872dd146103205780632783e4a914610350578063308aca1d14610381578063313ce5671461039d57806333ca78e4146103bb57806339509351146103d957610273565b8062aea7451461027857806306fdde0314610296578063095ea7b3146102b457806314c025c6146102e457806318160ddd14610302575b600080fd5b61028061087e565b60405161028d9190615f17565b60405180910390f35b61029e610884565b6040516102ab9190615cd5565b60405180910390f35b6102ce60048036038101906102c991906158ce565b610916565b6040516102db9190615cba565b60405180910390f35b6102ec61092d565b6040516102f99190615f17565b60405180910390f35b61030a610933565b6040516103179190615f17565b60405180910390f35b61033a6004803603810190610335919061587f565b610939565b6040516103479190615cba565b60405180910390f35b61036a60048036038101906103659190615843565b610a2c565b604051610378929190615f92565b60405180910390f35b61039b6004803603810190610396919061595c565b610f71565b005b6103a56111fc565b6040516103b2919061608a565b60405180910390f35b6103c3611220565b6040516103d09190615f17565b60405180910390f35b6103f360048036038101906103ee91906158ce565b611226565b6040516104009190615cba565b60405180910390f35b610423600480360381019061041e919061595c565b6112c4565b005b61042d611463565b60405161043a9190615f17565b60405180910390f35b61045d6004803603810190610458919061595c565b611469565b005b6104676116e8565b6040516104749190615f17565b60405180910390f35b6104856116ee565b6040516104929190615f17565b60405180910390f35b6104a36116f4565b6040516104b09190615f17565b60405180910390f35b6104d360048036038101906104ce91906157f1565b6116fa565b6040516104e09190615f17565b60405180910390f35b6104f16118d2565b6040516104fe9190615cba565b60405180910390f35b610521600480360381019061051c91906157f1565b6118e5565b60405161052e9190615f17565b60405180910390f35b61053f61192e565b60405161054c9190615f17565b60405180910390f35b61055d611934565b60405161056a9190615f17565b60405180910390f35b61058d6004803603810190610588919061595c565b61193a565b005b610597611bc4565b6040516105a49190615c76565b60405180910390f35b6105c760048036038101906105c291906157f1565b611be8565b6040516105d49190615f17565b60405180910390f35b6105e56120f4565b6040516105f29190615cd5565b60405180910390f35b610603612186565b6040516106109190615f17565b60405180910390f35b610633600480360381019061062e919061595c565b61218c565b005b61064f600480360381019061064a91906158ce565b6123c6565b60405161065c9190615cba565b60405180910390f35b61066d6124ac565b60405161067a9190615f17565b60405180910390f35b61069d600480360381019061069891906158ce565b6124d0565b6040516106aa9190615cba565b60405180910390f35b6106cd60048036038101906106c8919061595c565b6124e7565b005b6106e960048036038101906106e491906157f1565b612766565b6040516106f7929190615f92565b60405180910390f35b610708612e41565b6040516107159190615f17565b60405180910390f35b610726612e47565b6040516107339190615f17565b60405180910390f35b610756600480360381019061075191906157f1565b612e4d565b604051610764929190615f92565b60405180910390f35b61078760048036038101906107829190615843565b613554565b6040516107949190615f17565b60405180910390f35b6107a56135db565b6040516107b29190615c76565b60405180910390f35b6107c361370f565b6040516107d09190615c76565b60405180910390f35b6107e1613733565b6040516107ee9190615f17565b60405180910390f35b610811600480360381019061080c919061595c565b613739565b60405161081e9190615f17565b60405180910390f35b610841600480360381019061083c91906157f1565b61375d565b60405161084f929190615f92565b60405180910390f35b610872600480360381019061086d919061595c565b613f94565b005b61087c614247565b005b600b5481565b6060600d805461089390616270565b80601f01602080910402602001604051908101604052809291908181526020018280546108bf90616270565b801561090c5780601f106108e15761010080835404028352916020019161090c565b820191906000526020600020905b8154815290600101906020018083116108ef57829003601f168201915b5050505050905090565b600061092333848461451d565b6001905092915050565b600a5481565b600f5481565b60006109468484846146e8565b6000601160008673ffffffffffffffffffffffffffffffffffffffff1673ffffffffffffffffffffffffffffffffffffffff16815260200190815260200160002060003373ffffffffffffffffffffffffffffffffffffffff1673ffffffffffffffffffffffffffffffffffffffff16815260200190815260200160002054905082811015610a0a576040517f08c379a0000000000000000000000000000000000000000000000000000000008152600401610a0190615d37565b60405180910390fd5b610a2085338584610a1b91906161a2565b61451d565b60019150509392505050565b600080610a3761495f565b73ffffffffffffffffffffffffffffffffffffffff166332fe7b266040518163ffffffff1660e01b815260040160206040518083038186803b158015610a7c57600080fd5b505afa158015610a90573d6000803e3d6000fd5b505050506040513d601f19601f82011682018060405250810190610ab4919061581a565b73ffffffffffffffffffffffffffffffffffffffff163373ffffffffffffffffffffffffffffffffffffffff161480610b9c5750610af061495f565b73ffffffffffffffffffffffffffffffffffffffff16632ab24e496040518163ffffffff1660e01b815260040160206040518083038186803b158015610b3557600080fd5b505afa158015610b49573d6000803e3d6000fd5b505050506040513d601f19601f82011682018060405250810190610b6d919061581a565b73ffffffffffffffffffffffffffffffffffffffff163373ffffffffffffffffffffffffffffffffffffffff16145b80610c565750610baa61495f565b73ffffffffffffffffffffffffffffffffffffffff1663b99b0a0c6040518163ffffffff1660e01b815260040160206040518083038186803b158015610bef57600080fd5b505afa158015610c03573d6000803e3d6000fd5b505050506040513d601f19601f82011682018060405250810190610c27919061581a565b73ffffffffffffffffffffffffffffffffffffffff163373ffffffffffffffffffffffffffffffffffffffff16145b610c5f57600080fd5b7f000000000000000000000000000000000000000000000000000000000000000073ffffffffffffffffffffffffffffffffffffffff168473ffffffffffffffffffffffffffffffffffffffff161480610d0457507f000000000000000000000000000000000000000000000000000000000000000073ffffffffffffffffffffffffffffffffffffffff168473ffffffffffffffffffffffffffffffffffffffff16145b610d43576040517f08c379a0000000000000000000000000000000000000000000000000000000008152600401610d3a90615d97565b60405180910390fd5b6000807f000000000000000000000000000000000000000000000000000000000000000073ffffffffffffffffffffffffffffffffffffffff168673ffffffffffffffffffffffffffffffffffffffff161415610ddd577f00000000000000000000000000000000000000000000000000000000000000009150610dc5614a04565b9050610dd081614ada565b8094508195505050610e1c565b7f00000000000000000000000000000000000000000000000000000000000000009150610e08614cc3565b9050610e1381614d99565b80945081955050505b8473ffffffffffffffffffffffffffffffffffffffff168673ffffffffffffffffffffffffffffffffffffffff168373ffffffffffffffffffffffffffffffffffffffff167fc9163c3bdf7263acf1bb3d24072cc7da025f7181c31e2edc7e1673edf5e0ca32848888604051610e9493929190615fbb565b60405180910390a48573ffffffffffffffffffffffffffffffffffffffff1663a9059cbb86866040518363ffffffff1660e01b8152600401610ed7929190615c91565b602060405180830381600087803b158015610ef157600080fd5b505af1158015610f05573d6000803e3d6000fd5b505050506040513d601f19601f82011682018060405250810190610f29919061590a565b610f68576040517f08c379a0000000000000000000000000000000000000000000000000000000008152600401610f5f90615e77565b60405180910390fd5b50509250929050565b610f7961495f565b73ffffffffffffffffffffffffffffffffffffffff166332fe7b266040518163ffffffff1660e01b815260040160206040518083038186803b158015610fbe57600080fd5b505afa158015610fd2573d6000803e3d6000fd5b505050506040513d601f19601f82011682018060405250810190610ff6919061581a565b73ffffffffffffffffffffffffffffffffffffffff163373ffffffffffffffffffffffffffffffffffffffff1614806110de575061103261495f565b73ffffffffffffffffffffffffffffffffffffffff16632ab24e496040518163ffffffff1660e01b815260040160206040518083038186803b15801561107757600080fd5b505afa15801561108b573d6000803e3d6000fd5b505050506040513d601f19601f820116820180604052508101906110af919061581a565b73ffffffffffffffffffffffffffffffffffffffff163373ffffffffffffffffffffffffffffffffffffffff16145b8061119857506110ec61495f565b73ffffffffffffffffffffffffffffffffffffffff1663b99b0a0c6040518163ffffffff1660e01b815260040160206040518083038186803b15801561113157600080fd5b505afa158015611145573d6000803e3d6000fd5b505050506040513d601f19601f82011682018060405250810190611169919061581a565b73ffffffffffffffffffffffffffffffffffffffff163373ffffffffffffffffffffffffffffffffffffffff16145b6111a157600080fd5b60fa811015806111b35750610bb88111155b6111f2576040517f08c379a00000000000000000000000000000000000000000000000000000000081526004016111e990615e57565b60405180910390fd5b80600a8190555050565b7f000000000000000000000000000000000000000000000000000000000000000081565b60015481565b60006112ba338484601160003373ffffffffffffffffffffffffffffffffffffffff1673ffffffffffffffffffffffffffffffffffffffff16815260200190815260200160002060008873ffffffffffffffffffffffffffffffffffffffff1673ffffffffffffffffffffffffffffffffffffffff168152602001908152602001600020546112b591906160c1565b61451d565b6001905092915050565b6112cc6135db565b73ffffffffffffffffffffffffffffffffffffffff163373ffffffffffffffffffffffffffffffffffffffff161461130357600080fd5b61130b61495f565b73ffffffffffffffffffffffffffffffffffffffff1663b93ec54b6040518163ffffffff1660e01b815260040160206040518083038186803b15801561135057600080fd5b505afa158015611364573d6000803e3d6000fd5b505050506040513d601f19601f82011682018060405250810190611388919061581a565b73ffffffffffffffffffffffffffffffffffffffff16635e0237ea6113ab6135db565b6040518263ffffffff1660e01b81526004016113c79190615c76565b60206040518083038186803b1580156113df57600080fd5b505afa1580156113f3573d6000803e3d6000fd5b505050506040513d601f19601f82011682018060405250810190611417919061590a565b611456576040517f08c379a000000000000000000000000000000000000000000000000000000000815260040161144d90615db7565b60405180910390fd5b6114603382615032565b50565b60085481565b61147161495f565b73ffffffffffffffffffffffffffffffffffffffff166332fe7b266040518163ffffffff1660e01b815260040160206040518083038186803b1580156114b657600080fd5b505afa1580156114ca573d6000803e3d6000fd5b505050506040513d601f19601f820116820180604052508101906114ee919061581a565b73ffffffffffffffffffffffffffffffffffffffff163373ffffffffffffffffffffffffffffffffffffffff1614806115d6575061152a61495f565b73ffffffffffffffffffffffffffffffffffffffff16632ab24e496040518163ffffffff1660e01b815260040160206040518083038186803b15801561156f57600080fd5b505afa158015611583573d6000803e3d6000fd5b505050506040513d601f19601f820116820180604052508101906115a7919061581a565b73ffffffffffffffffffffffffffffffffffffffff163373ffffffffffffffffffffffffffffffffffffffff16145b8061169057506115e461495f565b73ffffffffffffffffffffffffffffffffffffffff1663b99b0a0c6040518163ffffffff1660e01b815260040160206040518083038186803b15801561162957600080fd5b505afa15801561163d573d6000803e3d6000fd5b505050506040513d601f19601f82011682018060405250810190611661919061581a565b73ffffffffffffffffffffffffffffffffffffffff163373ffffffffffffffffffffffffffffffffffffffff16145b61169957600080fd5b610bb88111156116de576040517f08c379a00000000000000000000000000000000000000000000000000000000081526004016116d590615d17565b60405180910390fd5b8060018190555050565b60125481565b60095481565b60155481565b6000806127106001546013546117109190616148565b61171a9190616117565b90506000818473ffffffffffffffffffffffffffffffffffffffff166318160ddd6040518163ffffffff1660e01b815260040160206040518083038186803b15801561176557600080fd5b505afa158015611779573d6000803e3d6000fd5b505050506040513d601f19601f8201168201806040525081019061179d9190615985565b106117ab5760009250611837565b8373ffffffffffffffffffffffffffffffffffffffff166318160ddd6040518163ffffffff1660e01b815260040160206040518083038186803b1580156117f157600080fd5b505afa158015611805573d6000803e3d6000fd5b505050506040513d601f19601f820116820180604052508101906118299190615985565b8261183491906161a2565b90505b6000600b5414156118745742600b81905550600854816118579190616117565b600981905550600954600c5461186d9190616148565b9250611898565b6000600b544261188491906161a2565b9050600954816118949190616148565b9350505b600854600b546118a891906160c1565b4211156118cb57600854816118bd9190616117565b60098190555042600b819055505b5050919050565b600660009054906101000a900460ff1681565b6000601060008373ffffffffffffffffffffffffffffffffffffffff1673ffffffffffffffffffffffffffffffffffffffff168152602001908152602001600020549050919050565b60075481565b60165481565b61194261495f565b73ffffffffffffffffffffffffffffffffffffffff166332fe7b266040518163ffffffff1660e01b815260040160206040518083038186803b15801561198757600080fd5b505afa15801561199b573d6000803e3d6000fd5b505050506040513d601f19601f820116820180604052508101906119bf919061581a565b73ffffffffffffffffffffffffffffffffffffffff163373ffffffffffffffffffffffffffffffffffffffff161480611aa757506119fb61495f565b73ffffffffffffffffffffffffffffffffffffffff16632ab24e496040518163ffffffff1660e01b815260040160206040518083038186803b158015611a4057600080fd5b505afa158015611a54573d6000803e3d6000fd5b505050506040513d601f19601f82011682018060405250810190611a78919061581a565b73ffffffffffffffffffffffffffffffffffffffff163373ffffffffffffffffffffffffffffffffffffffff16145b80611b615750611ab561495f565b73ffffffffffffffffffffffffffffffffffffffff1663b99b0a0c6040518163ffffffff1660e01b815260040160206040518083038186803b158015611afa57600080fd5b505afa158015611b0e573d6000803e3d6000fd5b505050506040513d601f19601f82011682018060405250810190611b32919061581a565b73ffffffffffffffffffffffffffffffffffffffff163373ffffffffffffffffffffffffffffffffffffffff16145b611b6a57600080fd5b60028054611b789190616148565b811115611bba576040517f08c379a0000000000000000000000000000000000000000000000000000000008152600401611bb190615d17565b60405180910390fd5b8060028190555050565b7f000000000000000000000000000000000000000000000000000000000000000081565b6000611bf261495f565b73ffffffffffffffffffffffffffffffffffffffff166332fe7b266040518163ffffffff1660e01b815260040160206040518083038186803b158015611c3757600080fd5b505afa158015611c4b573d6000803e3d6000fd5b505050506040513d601f19601f82011682018060405250810190611c6f919061581a565b73ffffffffffffffffffffffffffffffffffffffff163373ffffffffffffffffffffffffffffffffffffffff161480611d575750611cab61495f565b73ffffffffffffffffffffffffffffffffffffffff16632ab24e496040518163ffffffff1660e01b815260040160206040518083038186803b158015611cf057600080fd5b505afa158015611d04573d6000803e3d6000fd5b505050506040513d601f19601f82011682018060405250810190611d28919061581a565b73ffffffffffffffffffffffffffffffffffffffff163373ffffffffffffffffffffffffffffffffffffffff16145b80611e115750611d6561495f565b73ffffffffffffffffffffffffffffffffffffffff1663b99b0a0c6040518163ffffffff1660e01b815260040160206040518083038186803b158015611daa57600080fd5b505afa158015611dbe573d6000803e3d6000fd5b505050506040513d601f19601f82011682018060405250810190611de2919061581a565b73ffffffffffffffffffffffffffffffffffffffff163373ffffffffffffffffffffffffffffffffffffffff16145b611e1a57600080fd5b6000611e24614cc3565b905060025481601254611e3791906160c1565b10611e77576040517f08c379a0000000000000000000000000000000000000000000000000000000008152600401611e6e90615e97565b60405180910390fd5b6000611e81614a04565b9050611e8b61495f565b73ffffffffffffffffffffffffffffffffffffffff16637b0e5c456040518163ffffffff1660e01b815260040160206040518083038186803b158015611ed057600080fd5b505afa158015611ee4573d6000803e3d6000fd5b505050506040513d601f19601f82011682018060405250810190611f08919061581a565b73ffffffffffffffffffffffffffffffffffffffff1663c5c11ee98360125484601354600f546040518663ffffffff1660e01b8152600401611f4e959493929190616037565b60206040518083038186803b158015611f6657600080fd5b505afa158015611f7a573d6000803e3d6000fd5b505050506040513d601f19601f82011682018060405250810190611f9e9190615985565b925060006012541480611fb357506000601354145b156120875768056bc75e2d631000008210158015611fd357506127108110155b612012576040517f08c379a000000000000000000000000000000000000000000000000000000000815260040161200990615d57565b60405180910390fd5b60006127108460646120249190616148565b61202e9190616117565b9050808461203c91906161a2565b93506120687f0000000000000000000000000000000000000000000000000000000000000000826151fc565b8183846120759190616148565b61207f9190616117565b600381905550505b6120918282615345565b61209b84846151fc565b8373ffffffffffffffffffffffffffffffffffffffff167fbeb3885786d637a474cbc287c0a44587231633a077f0bd30354d5a4b18996fce8383866040516120e593929190615fbb565b60405180910390a25050919050565b6060600e805461210390616270565b80601f016020809104026020016040519081016040528092919081815260200182805461212f90616270565b801561217c5780601f106121515761010080835404028352916020019161217c565b820191906000526020600020905b81548152906001019060200180831161215f57829003601f168201915b5050505050905090565b60145481565b61219461495f565b73ffffffffffffffffffffffffffffffffffffffff166332fe7b266040518163ffffffff1660e01b815260040160206040518083038186803b1580156121d957600080fd5b505afa1580156121ed573d6000803e3d6000fd5b505050506040513d601f19601f82011682018060405250810190612211919061581a565b73ffffffffffffffffffffffffffffffffffffffff163373ffffffffffffffffffffffffffffffffffffffff1614806122f9575061224d61495f565b73ffffffffffffffffffffffffffffffffffffffff16632ab24e496040518163ffffffff1660e01b815260040160206040518083038186803b15801561229257600080fd5b505afa1580156122a6573d6000803e3d6000fd5b505050506040513d601f19601f820116820180604052508101906122ca919061581a565b73ffffffffffffffffffffffffffffffffffffffff163373ffffffffffffffffffffffffffffffffffffffff16145b806123b3575061230761495f565b73ffffffffffffffffffffffffffffffffffffffff1663b99b0a0c6040518163ffffffff1660e01b815260040160206040518083038186803b15801561234c57600080fd5b505afa158015612360573d6000803e3d6000fd5b505050506040513d601f19601f82011682018060405250810190612384919061581a565b73ffffffffffffffffffffffffffffffffffffffff163373ffffffffffffffffffffffffffffffffffffffff16145b6123bc57600080fd5b8060058190555050565b600080601160003373ffffffffffffffffffffffffffffffffffffffff1673ffffffffffffffffffffffffffffffffffffffff16815260200190815260200160002060008573ffffffffffffffffffffffffffffffffffffffff1673ffffffffffffffffffffffffffffffffffffffff1681526020019081526020016000205490508281101561248b576040517f08c379a000000000000000000000000000000000000000000000000000000000815260040161248290615d37565b60405180910390fd5b6124a13385858461249c91906161a2565b61451d565b600191505092915050565b7f000000000000000000000000000000000000000000000000000000000000000081565b60006124dd3384846146e8565b6001905092915050565b6124ef61495f565b73ffffffffffffffffffffffffffffffffffffffff166332fe7b266040518163ffffffff1660e01b815260040160206040518083038186803b15801561253457600080fd5b505afa158015612548573d6000803e3d6000fd5b505050506040513d601f19601f8201168201806040525081019061256c919061581a565b73ffffffffffffffffffffffffffffffffffffffff163373ffffffffffffffffffffffffffffffffffffffff16148061265457506125a861495f565b73ffffffffffffffffffffffffffffffffffffffff16632ab24e496040518163ffffffff1660e01b815260040160206040518083038186803b1580156125ed57600080fd5b505afa158015612601573d6000803e3d6000fd5b505050506040513d601f19601f82011682018060405250810190612625919061581a565b73ffffffffffffffffffffffffffffffffffffffff163373ffffffffffffffffffffffffffffffffffffffff16145b8061270e575061266261495f565b73ffffffffffffffffffffffffffffffffffffffff1663b99b0a0c6040518163ffffffff1660e01b815260040160206040518083038186803b1580156126a757600080fd5b505afa1580156126bb573d6000803e3d6000fd5b505050506040513d601f19601f820116820180604052508101906126df919061581a565b73ffffffffffffffffffffffffffffffffffffffff163373ffffffffffffffffffffffffffffffffffffffff16145b61271757600080fd5b62093a80811061275c576040517f08c379a000000000000000000000000000000000000000000000000000000000815260040161275390615e57565b60405180910390fd5b8060078190555050565b60008061277161495f565b73ffffffffffffffffffffffffffffffffffffffff166332fe7b266040518163ffffffff1660e01b815260040160206040518083038186803b1580156127b657600080fd5b505afa1580156127ca573d6000803e3d6000fd5b505050506040513d601f19601f820116820180604052508101906127ee919061581a565b73ffffffffffffffffffffffffffffffffffffffff163373ffffffffffffffffffffffffffffffffffffffff1614806128d6575061282a61495f565b73ffffffffffffffffffffffffffffffffffffffff16632ab24e496040518163ffffffff1660e01b815260040160206040518083038186803b15801561286f57600080fd5b505afa158015612883573d6000803e3d6000fd5b505050506040513d601f19601f820116820180604052508101906128a7919061581a565b73ffffffffffffffffffffffffffffffffffffffff163373ffffffffffffffffffffffffffffffffffffffff16145b8061299057506128e461495f565b73ffffffffffffffffffffffffffffffffffffffff1663b99b0a0c6040518163ffffffff1660e01b815260040160206040518083038186803b15801561292957600080fd5b505afa15801561293d573d6000803e3d6000fd5b505050506040513d601f19601f82011682018060405250810190612961919061581a565b73ffffffffffffffffffffffffffffffffffffffff163373ffffffffffffffffffffffffffffffffffffffff16145b61299957600080fd5b6007547f00000000000000000000000000000000000000000000000000000000000000006129c791906160c1565b4211612a08576040517f08c379a00000000000000000000000000000000000000000000000000000000081526004016129ff90615ed7565b60405180910390fd5b6000612a13306118e5565b90506000612a1f61495f565b73ffffffffffffffffffffffffffffffffffffffff16637b0e5c456040518163ffffffff1660e01b815260040160206040518083038186803b158015612a6457600080fd5b505afa158015612a78573d6000803e3d6000fd5b505050506040513d601f19601f82011682018060405250810190612a9c919061581a565b90508073ffffffffffffffffffffffffffffffffffffffff16635a7b2ed3837f0000000000000000000000000000000000000000000000000000000000000000306040518463ffffffff1660e01b8152600401612afb93929190615f5b565b60206040518083038186803b158015612b1357600080fd5b505afa158015612b27573d6000803e3d6000fd5b505050506040513d601f19601f82011682018060405250810190612b4b9190615985565b93508073ffffffffffffffffffffffffffffffffffffffff16635a7b2ed3837f0000000000000000000000000000000000000000000000000000000000000000306040518463ffffffff1660e01b8152600401612baa93929190615f5b565b60206040518083038186803b158015612bc257600080fd5b505afa158015612bd6573d6000803e3d6000fd5b505050506040513d601f19601f82011682018060405250810190612bfa9190615985565b9250612c068484615383565b612c103083615032565b7f000000000000000000000000000000000000000000000000000000000000000073ffffffffffffffffffffffffffffffffffffffff1663a9059cbb86866040518363ffffffff1660e01b8152600401612c6b929190615c91565b602060405180830381600087803b158015612c8557600080fd5b505af1158015612c99573d6000803e3d6000fd5b505050506040513d601f19601f82011682018060405250810190612cbd919061590a565b612cfc576040517f08c379a0000000000000000000000000000000000000000000000000000000008152600401612cf390615e77565b60405180910390fd5b7f000000000000000000000000000000000000000000000000000000000000000073ffffffffffffffffffffffffffffffffffffffff1663a9059cbb86856040518363ffffffff1660e01b8152600401612d57929190615c91565b602060405180830381600087803b158015612d7157600080fd5b505af1158015612d85573d6000803e3d6000fd5b505050506040513d601f19601f82011682018060405250810190612da9919061590a565b612de8576040517f08c379a0000000000000000000000000000000000000000000000000000000008152600401612ddf90615e77565b60405180910390fd5b8473ffffffffffffffffffffffffffffffffffffffff167f59c3a0b60c6ab7deb62e1440c9e72441db6db7dfe514dba8cb18e60c0d896efa858585604051612e3293929190615fbb565b60405180910390a25050915091565b60025481565b600c5481565b600080612e5861495f565b73ffffffffffffffffffffffffffffffffffffffff166332fe7b266040518163ffffffff1660e01b815260040160206040518083038186803b158015612e9d57600080fd5b505afa158015612eb1573d6000803e3d6000fd5b505050506040513d601f19601f82011682018060405250810190612ed5919061581a565b73ffffffffffffffffffffffffffffffffffffffff163373ffffffffffffffffffffffffffffffffffffffff161480612fbd5750612f1161495f565b73ffffffffffffffffffffffffffffffffffffffff16632ab24e496040518163ffffffff1660e01b815260040160206040518083038186803b158015612f5657600080fd5b505afa158015612f6a573d6000803e3d6000fd5b505050506040513d601f19601f82011682018060405250810190612f8e919061581a565b73ffffffffffffffffffffffffffffffffffffffff163373ffffffffffffffffffffffffffffffffffffffff16145b806130775750612fcb61495f565b73ffffffffffffffffffffffffffffffffffffffff1663b99b0a0c6040518163ffffffff1660e01b815260040160206040518083038186803b15801561301057600080fd5b505afa158015613024573d6000803e3d6000fd5b505050506040513d601f19601f82011682018060405250810190613048919061581a565b73ffffffffffffffffffffffffffffffffffffffff163373ffffffffffffffffffffffffffffffffffffffff16145b61308057600080fd5b600061308a6135db565b9050600073ffffffffffffffffffffffffffffffffffffffff168173ffffffffffffffffffffffffffffffffffffffff1614156130fc576040517f08c379a00000000000000000000000000000000000000000000000000000000081526004016130f390615e37565b60405180910390fd5b600061310661495f565b73ffffffffffffffffffffffffffffffffffffffff16637b0e5c456040518163ffffffff1660e01b815260040160206040518083038186803b15801561314b57600080fd5b505afa15801561315f573d6000803e3d6000fd5b505050506040513d601f19601f82011682018060405250810190613183919061581a565b905060008273ffffffffffffffffffffffffffffffffffffffff166370a08231306040518263ffffffff1660e01b81526004016131c09190615c76565b60206040518083038186803b1580156131d857600080fd5b505afa1580156131ec573d6000803e3d6000fd5b505050506040513d601f19601f820116820180604052508101906132109190615985565b905060008273ffffffffffffffffffffffffffffffffffffffff1663701baaf3836013546012546040518463ffffffff1660e01b815260040161325593929190615fbb565b60206040518083038186803b15801561326d57600080fd5b505afa158015613281573d6000803e3d6000fd5b505050506040513d601f19601f820116820180604052508101906132a59190615985565b9050600061271061251c836132ba9190616148565b6132c49190616117565b90508373ffffffffffffffffffffffffffffffffffffffff1663896a708c846013546012546040518463ffffffff1660e01b815260040161330793929190615fbb565b60206040518083038186803b15801561331f57600080fd5b505afa158015613333573d6000803e3d6000fd5b505050506040513d601f19601f820116820180604052508101906133579190615985565b9550613364816000615383565b61336d866153c1565b60008573ffffffffffffffffffffffffffffffffffffffff166386450495856040518263ffffffff1660e01b81526004016133a89190615f17565b602060405180830381600087803b1580156133c257600080fd5b505af11580156133d6573d6000803e3d6000fd5b505050506040513d601f19601f820116820180604052508101906133fa9190615985565b90506134068682615032565b7f000000000000000000000000000000000000000000000000000000000000000073ffffffffffffffffffffffffffffffffffffffff1663a9059cbb8a846040518363ffffffff1660e01b8152600401613461929190615c91565b602060405180830381600087803b15801561347b57600080fd5b505af115801561348f573d6000803e3d6000fd5b505050506040513d601f19601f820116820180604052508101906134b3919061590a565b6134f2576040517f08c379a00000000000000000000000000000000000000000000000000000000081526004016134e990615e77565b60405180910390fd5b8873ffffffffffffffffffffffffffffffffffffffff167f6f3ac8cc4850a948dddb5c85957bbaadcbea6e4b2cef3f02f6af53fcf2596f568383878b60405161353e9493929190615ff2565b60405180910390a2819750505050505050915091565b6000601160008473ffffffffffffffffffffffffffffffffffffffff1673ffffffffffffffffffffffffffffffffffffffff16815260200190815260200160002060008373ffffffffffffffffffffffffffffffffffffffff1673ffffffffffffffffffffffffffffffffffffffff16815260200190815260200160002054905092915050565b60006135e561495f565b73ffffffffffffffffffffffffffffffffffffffff1663b93ec54b6040518163ffffffff1660e01b815260040160206040518083038186803b15801561362a57600080fd5b505afa15801561363e573d6000803e3d6000fd5b505050506040513d601f19601f82011682018060405250810190613662919061581a565b73ffffffffffffffffffffffffffffffffffffffff1663dcec81167f00000000000000000000000000000000000000000000000000000000000000006040518263ffffffff1660e01b81526004016136ba9190615c76565b60206040518083038186803b1580156136d257600080fd5b505afa1580156136e6573d6000803e3d6000fd5b505050506040513d601f19601f8201168201806040525081019061370a919061581a565b905090565b7f000000000000000000000000000000000000000000000000000000000000000081565b60135481565b6017818154811061374957600080fd5b906000526020600020016000915090505481565b60008061376861495f565b73ffffffffffffffffffffffffffffffffffffffff166332fe7b266040518163ffffffff1660e01b815260040160206040518083038186803b1580156137ad57600080fd5b505afa1580156137c1573d6000803e3d6000fd5b505050506040513d601f19601f820116820180604052508101906137e5919061581a565b73ffffffffffffffffffffffffffffffffffffffff163373ffffffffffffffffffffffffffffffffffffffff1614806138cd575061382161495f565b73ffffffffffffffffffffffffffffffffffffffff16632ab24e496040518163ffffffff1660e01b815260040160206040518083038186803b15801561386657600080fd5b505afa15801561387a573d6000803e3d6000fd5b505050506040513d601f19601f8201168201806040525081019061389e919061581a565b73ffffffffffffffffffffffffffffffffffffffff163373ffffffffffffffffffffffffffffffffffffffff16145b8061398757506138db61495f565b73ffffffffffffffffffffffffffffffffffffffff1663b99b0a0c6040518163ffffffff1660e01b815260040160206040518083038186803b15801561392057600080fd5b505afa158015613934573d6000803e3d6000fd5b505050506040513d601f19601f82011682018060405250810190613958919061581a565b73ffffffffffffffffffffffffffffffffffffffff163373ffffffffffffffffffffffffffffffffffffffff16145b61399057600080fd5b600061399a6135db565b90506139a461495f565b73ffffffffffffffffffffffffffffffffffffffff1663b93ec54b6040518163ffffffff1660e01b815260040160206040518083038186803b1580156139e957600080fd5b505afa1580156139fd573d6000803e3d6000fd5b505050506040513d601f19601f82011682018060405250810190613a21919061581a565b73ffffffffffffffffffffffffffffffffffffffff16635e0237ea826040518263ffffffff1660e01b8152600401613a599190615c76565b60206040518083038186803b158015613a7157600080fd5b505afa158015613a85573d6000803e3d6000fd5b505050506040513d601f19601f82011682018060405250810190613aa9919061590a565b613ae8576040517f08c379a0000000000000000000000000000000000000000000000000000000008152600401613adf90615e37565b60405180910390fd5b6000613af261495f565b73ffffffffffffffffffffffffffffffffffffffff16637b0e5c456040518163ffffffff1660e01b815260040160206040518083038186803b158015613b3757600080fd5b505afa158015613b4b573d6000803e3d6000fd5b505050506040513d601f19601f82011682018060405250810190613b6f919061581a565b90506000613b7b614cc3565b905060025481601254613b8e91906160c1565b10613bce576040517f08c379a0000000000000000000000000000000000000000000000000000000008152600401613bc590615e97565b60405180910390fd5b6000613bd9846116fa565b90508273ffffffffffffffffffffffffffffffffffffffff1663701baaf3836012546013546040518463ffffffff1660e01b8152600401613c1c93929190615fbb565b60206040518083038186803b158015613c3457600080fd5b505afa158015613c48573d6000803e3d6000fd5b505050506040513d601f19601f82011682018060405250810190613c6c9190615985565b955080861115613cb1576040517f08c379a0000000000000000000000000000000000000000000000000000000008152600401613ca890615dd7565b60405180910390fd5b42600b8190555060008373ffffffffffffffffffffffffffffffffffffffff1663b86a82ef84306040518363ffffffff1660e01b8152600401613cf5929190615f32565b60206040518083038186803b158015613d0d57600080fd5b505afa158015613d21573d6000803e3d6000fd5b505050506040513d601f19601f82011682018060405250810190613d459190615985565b9050613d52836000615345565b60008473ffffffffffffffffffffffffffffffffffffffff1663896a708c856012546013546040518463ffffffff1660e01b8152600401613d9593929190615fbb565b60206040518083038186803b158015613dad57600080fd5b505afa158015613dc1573d6000803e3d6000fd5b505050506040513d601f19601f82011682018060405250810190613de59190615985565b90508473ffffffffffffffffffffffffffffffffffffffff1663c19387df7f0000000000000000000000000000000000000000000000000000000000000000836040518363ffffffff1660e01b8152600401613e42929190615c91565b60206040518083038186803b158015613e5a57600080fd5b505afa158015613e6e573d6000803e3d6000fd5b505050506040513d601f19601f82011682018060405250810190613e929190615985565b9650613e9e86836151fc565b8573ffffffffffffffffffffffffffffffffffffffff166332f302e38a8a6040518363ffffffff1660e01b8152600401613ed9929190615c91565b602060405180830381600087803b158015613ef357600080fd5b505af1158015613f07573d6000803e3d6000fd5b505050506040513d601f19601f82011682018060405250810190613f2b9190615985565b50613f35876153c1565b8873ffffffffffffffffffffffffffffffffffffffff167fbaff1e38597e99ccc6d6abf0e271a32ee3dc24114ea5bec3f05afd9bbb19f1f585848b8b604051613f819493929190615ff2565b60405180910390a2505050505050915091565b613f9c61495f565b73ffffffffffffffffffffffffffffffffffffffff166332fe7b266040518163ffffffff1660e01b815260040160206040518083038186803b158015613fe157600080fd5b505afa158015613ff5573d6000803e3d6000fd5b505050506040513d601f19601f82011682018060405250810190614019919061581a565b73ffffffffffffffffffffffffffffffffffffffff163373ffffffffffffffffffffffffffffffffffffffff161480614101575061405561495f565b73ffffffffffffffffffffffffffffffffffffffff16632ab24e496040518163ffffffff1660e01b815260040160206040518083038186803b15801561409a57600080fd5b505afa1580156140ae573d6000803e3d6000fd5b505050506040513d601f19601f820116820180604052508101906140d2919061581a565b73ffffffffffffffffffffffffffffffffffffffff163373ffffffffffffffffffffffffffffffffffffffff16145b806141bb575061410f61495f565b73ffffffffffffffffffffffffffffffffffffffff1663b99b0a0c6040518163ffffffff1660e01b815260040160206040518083038186803b15801561415457600080fd5b505afa158015614168573d6000803e3d6000fd5b505050506040513d601f19601f8201168201806040525081019061418c919061581a565b73ffffffffffffffffffffffffffffffffffffffff163373ffffffffffffffffffffffffffffffffffffffff16145b6141c457600080fd5b6102448110614208576040517f08c379a00000000000000000000000000000000000000000000000000000000081526004016141ff90615e57565b60405180910390fd5b600660009054906101000a900460ff1615600660006101000a81548160ff021916908315150217905550804261423e91906160c1565b60048190555050565b61424f61495f565b73ffffffffffffffffffffffffffffffffffffffff166398fabd3a6040518163ffffffff1660e01b815260040160206040518083038186803b15801561429457600080fd5b505afa1580156142a8573d6000803e3d6000fd5b505050506040513d601f19601f820116820180604052508101906142cc919061581a565b73ffffffffffffffffffffffffffffffffffffffff163373ffffffffffffffffffffffffffffffffffffffff1614806143b4575061430861495f565b73ffffffffffffffffffffffffffffffffffffffff166332fe7b266040518163ffffffff1660e01b815260040160206040518083038186803b15801561434d57600080fd5b505afa158015614361573d6000803e3d6000fd5b505050506040513d601f19601f82011682018060405250810190614385919061581a565b73ffffffffffffffffffffffffffffffffffffffff163373ffffffffffffffffffffffffffffffffffffffff16145b6143bd57600080fd5b7f000000000000000000000000000000000000000000000000000000000000000073ffffffffffffffffffffffffffffffffffffffff166370a08231306040518263ffffffff1660e01b81526004016144169190615c76565b60206040518083038186803b15801561442e57600080fd5b505afa158015614442573d6000803e3d6000fd5b505050506040513d601f19601f820116820180604052508101906144669190615985565b6012819055507f000000000000000000000000000000000000000000000000000000000000000073ffffffffffffffffffffffffffffffffffffffff166370a08231306040518263ffffffff1660e01b81526004016144c59190615c76565b60206040518083038186803b1580156144dd57600080fd5b505afa1580156144f1573d6000803e3d6000fd5b505050506040513d601f19601f820116820180604052508101906145159190615985565b601381905550565b600073ffffffffffffffffffffffffffffffffffffffff168373ffffffffffffffffffffffffffffffffffffffff16141561458d576040517f08c379a000000000000000000000000000000000000000000000000000000000815260040161458490615ef7565b60405180910390fd5b600073ffffffffffffffffffffffffffffffffffffffff168273ffffffffffffffffffffffffffffffffffffffff1614156145fd576040517f08c379a00000000000000000000000000000000000000000000000000000000081526004016145f490615e17565b60405180910390fd5b80601160008573ffffffffffffffffffffffffffffffffffffffff1673ffffffffffffffffffffffffffffffffffffffff16815260200190815260200160002060008473ffffffffffffffffffffffffffffffffffffffff1673ffffffffffffffffffffffffffffffffffffffff168152602001908152602001600020819055508173ffffffffffffffffffffffffffffffffffffffff168373ffffffffffffffffffffffffffffffffffffffff167f8c5be1e5ebec7d5bd14f71427d1e84f3dd0314c0f7b2291e5b200ac8c7c3b925836040516146db9190615f17565b60405180910390a3505050565b600073ffffffffffffffffffffffffffffffffffffffff168373ffffffffffffffffffffffffffffffffffffffff161415614758576040517f08c379a000000000000000000000000000000000000000000000000000000000815260040161474f90615eb7565b60405180910390fd5b600073ffffffffffffffffffffffffffffffffffffffff168273ffffffffffffffffffffffffffffffffffffffff1614156147c8576040517f08c379a00000000000000000000000000000000000000000000000000000000081526004016147bf90615df7565b60405180910390fd5b6000601060008573ffffffffffffffffffffffffffffffffffffffff1673ffffffffffffffffffffffffffffffffffffffff1681526020019081526020016000205490508181101561484f576040517f08c379a000000000000000000000000000000000000000000000000000000000815260040161484690615d77565b60405180910390fd5b818161485b91906161a2565b601060008673ffffffffffffffffffffffffffffffffffffffff1673ffffffffffffffffffffffffffffffffffffffff1681526020019081526020016000208190555081601060008573ffffffffffffffffffffffffffffffffffffffff1673ffffffffffffffffffffffffffffffffffffffff16815260200190815260200160002060008282546148ed91906160c1565b925050819055508273ffffffffffffffffffffffffffffffffffffffff168473ffffffffffffffffffffffffffffffffffffffff167fddf252ad1be2c89b69c2b068fc378daa952ba7f163c4a11628f55a4df523b3ef846040516149519190615f17565b60405180910390a350505050565b60007f000000000000000000000000000000000000000000000000000000000000000073ffffffffffffffffffffffffffffffffffffffff166398fabd3a6040518163ffffffff1660e01b815260040160206040518083038186803b1580156149c757600080fd5b505afa1580156149db573d6000803e3d6000fd5b505050506040513d601f19601f820116820180604052508101906149ff9190615933565b905090565b6000807f000000000000000000000000000000000000000000000000000000000000000073ffffffffffffffffffffffffffffffffffffffff166370a08231306040518263ffffffff1660e01b8152600401614a609190615c76565b60206040518083038186803b158015614a7857600080fd5b505afa158015614a8c573d6000803e3d6000fd5b505050506040513d601f19601f82011682018060405250810190614ab09190615985565b9050601354811115614ad15760135481614aca91906161a2565b9150614ad6565b600091505b5090565b60008060006013549050600060125490506000614af561495f565b73ffffffffffffffffffffffffffffffffffffffff16637b0e5c456040518163ffffffff1660e01b815260040160206040518083038186803b158015614b3a57600080fd5b505afa158015614b4e573d6000803e3d6000fd5b505050506040513d601f19601f82011682018060405250810190614b72919061581a565b90508073ffffffffffffffffffffffffffffffffffffffff1663701baaf38785856040518463ffffffff1660e01b8152600401614bb193929190615fbb565b60206040518083038186803b158015614bc957600080fd5b505afa158015614bdd573d6000803e3d6000fd5b505050506040513d601f19601f82011682018060405250810190614c019190615985565b94508073ffffffffffffffffffffffffffffffffffffffff1663896a708c8785856040518463ffffffff1660e01b8152600401614c4093929190615fbb565b60206040518083038186803b158015614c5857600080fd5b505afa158015614c6c573d6000803e3d6000fd5b505050506040513d601f19601f82011682018060405250810190614c909190615985565b9350614cb28583614ca191906161a2565b8785614cad91906160c1565b61542a565b614cbb846153c1565b505050915091565b6000807f000000000000000000000000000000000000000000000000000000000000000073ffffffffffffffffffffffffffffffffffffffff166370a08231306040518263ffffffff1660e01b8152600401614d1f9190615c76565b60206040518083038186803b158015614d3757600080fd5b505afa158015614d4b573d6000803e3d6000fd5b505050506040513d601f19601f82011682018060405250810190614d6f9190615985565b9050601254811115614d905760125481614d8991906161a2565b9150614d95565b600091505b5090565b60008060006012549050600060135490506000614db461495f565b73ffffffffffffffffffffffffffffffffffffffff16637b0e5c456040518163ffffffff1660e01b815260040160206040518083038186803b158015614df957600080fd5b505afa158015614e0d573d6000803e3d6000fd5b505050506040513d601f19601f82011682018060405250810190614e31919061581a565b90508073ffffffffffffffffffffffffffffffffffffffff1663701baaf38785856040518463ffffffff1660e01b8152600401614e7093929190615fbb565b60206040518083038186803b158015614e8857600080fd5b505afa158015614e9c573d6000803e3d6000fd5b505050506040513d601f19601f82011682018060405250810190614ec09190615985565b945060008173ffffffffffffffffffffffffffffffffffffffff1663896a708c8886866040518463ffffffff1660e01b8152600401614f0193929190615fbb565b60206040518083038186803b158015614f1957600080fd5b505afa158015614f2d573d6000803e3d6000fd5b505050506040513d601f19601f82011682018060405250810190614f519190615985565b90508173ffffffffffffffffffffffffffffffffffffffff1663c19387df7f0000000000000000000000000000000000000000000000000000000000000000836040518363ffffffff1660e01b8152600401614fae929190615c91565b60206040518083038186803b158015614fc657600080fd5b505afa158015614fda573d6000803e3d6000fd5b505050506040513d601f19601f82011682018060405250810190614ffe9190615985565b9450615020878561500f91906160c1565b878561501b91906161a2565b61542a565b615029856153c1565b50505050915091565b600073ffffffffffffffffffffffffffffffffffffffff168273ffffffffffffffffffffffffffffffffffffffff1614156150a2576040517f08c379a000000000000000000000000000000000000000000000000000000000815260040161509990615cf7565b60405180910390fd5b6000601060008473ffffffffffffffffffffffffffffffffffffffff1673ffffffffffffffffffffffffffffffffffffffff16815260200190815260200160002054905081811015615129576040517f08c379a000000000000000000000000000000000000000000000000000000000815260040161512090615d77565b60405180910390fd5b818161513591906161a2565b601060008573ffffffffffffffffffffffffffffffffffffffff1673ffffffffffffffffffffffffffffffffffffffff1681526020019081526020016000208190555081600f600082825461518a91906161a2565b92505081905550600073ffffffffffffffffffffffffffffffffffffffff168373ffffffffffffffffffffffffffffffffffffffff167fddf252ad1be2c89b69c2b068fc378daa952ba7f163c4a11628f55a4df523b3ef846040516151ef9190615f17565b60405180910390a3505050565b600073ffffffffffffffffffffffffffffffffffffffff168273ffffffffffffffffffffffffffffffffffffffff16141561526c576040517f08c379a000000000000000000000000000000000000000000000000000000000815260040161526390615cf7565b60405180910390fd5b80600f600082825461527e91906160c1565b9250508190555080601060008473ffffffffffffffffffffffffffffffffffffffff1673ffffffffffffffffffffffffffffffffffffffff16815260200190815260200160002060008282546152d491906160c1565b925050819055508173ffffffffffffffffffffffffffffffffffffffff16600073ffffffffffffffffffffffffffffffffffffffff167fddf252ad1be2c89b69c2b068fc378daa952ba7f163c4a11628f55a4df523b3ef836040516153399190615f17565b60405180910390a35050565b816012600082825461535791906160c1565b92505081905550806013600082825461537091906160c1565b9250508190555061537f615444565b5050565b816012600082825461539591906161a2565b9250508190555080601360008282546153ae91906161a2565b925050819055506153bd615444565b5050565b600060145414156153d457426014819055505b62278d006014546153e591906160c1565b421161540457806015546153f991906160c1565b601581905550615427565b4260148190555060155460168190555061541f601654615591565b806015819055505b50565b8160128190555080601381905550615440615444565b5050565b60006013546012546012546154599190616148565b6154639190616117565b90506000600354821115615486576003548261547f91906161a2565b9050615497565b8160035461549491906161a2565b90505b81612710826154a69190616148565b6154b09190616117565b905060055481106154db576001600660006101000a81548160ff021916908315150217905550615502565b60045442111561550157610e10426154f391906160c1565b600481905550816003819055505b5b600660009054906101000a900460ff161561558d57600554811161553c576000600660006101000a81548160ff0219169083151502179055505b60045442111561558c57610e104261555491906160c1565b600481905550600060046003805461556c9190616148565b8461557791906160c1565b6155819190616117565b905080600381905550505b5b5050565b600060178054806020026020016040519081016040528092919081815260200182805480156155df57602002820191906000526020600020905b8154815260200190600101908083116155cb575b505050505090506002815114156156db578060018151811061562a577f4e487b7100000000000000000000000000000000000000000000000000000000600052603260045260246000fd5b60200260200101518160008151811061566c577f4e487b7100000000000000000000000000000000000000000000000000000000600052603260045260246000fd5b60200260200101818152505081816001815181106156b3577f4e487b7100000000000000000000000000000000000000000000000000000000600052603260045260246000fd5b60200260200101818152505080601790805190602001906156d5929190615709565b50615705565b60178290806001815401808255809150506001900390600052602060002001600090919091909150555b5050565b828054828255906000526020600020908101928215615745579160200282015b82811115615744578251825591602001919060010190615729565b5b5090506157529190615756565b5090565b5b8082111561576f576000816000905550600101615757565b5090565b600081359050615782816165f9565b92915050565b600081519050615797816165f9565b92915050565b6000815190506157ac81616610565b92915050565b6000815190506157c181616627565b92915050565b6000813590506157d68161663e565b92915050565b6000815190506157eb8161663e565b92915050565b60006020828403121561580357600080fd5b600061581184828501615773565b91505092915050565b60006020828403121561582c57600080fd5b600061583a84828501615788565b91505092915050565b6000806040838503121561585657600080fd5b600061586485828601615773565b925050602061587585828601615773565b9150509250929050565b60008060006060848603121561589457600080fd5b60006158a286828701615773565b93505060206158b386828701615773565b92505060406158c4868287016157c7565b9150509250925092565b600080604083850312156158e157600080fd5b60006158ef85828601615773565b9250506020615900858286016157c7565b9150509250929050565b60006020828403121561591c57600080fd5b600061592a8482850161579d565b91505092915050565b60006020828403121561594557600080fd5b6000615953848285016157b2565b91505092915050565b60006020828403121561596e57600080fd5b600061597c848285016157c7565b91505092915050565b60006020828403121561599757600080fd5b60006159a5848285016157dc565b91505092915050565b6159b7816161d6565b82525050565b6159c6816161e8565b82525050565b60006159d7826160a5565b6159e181856160b0565b93506159f181856020860161623d565b6159fa8161632f565b840191505092915050565b6000615a126008836160b0565b9150615a1d82616340565b602082019050919050565b6000615a356004836160b0565b9150615a4082616369565b602082019050919050565b6000615a586009836160b0565b9150615a6382616392565b602082019050919050565b6000615a7b6009836160b0565b9150615a86826163bb565b602082019050919050565b6000615a9e6008836160b0565b9150615aa9826163e4565b602082019050919050565b6000615ac1600c836160b0565b9150615acc8261640d565b602082019050919050565b6000615ae46006836160b0565b9150615aef82616436565b602082019050919050565b6000615b076008836160b0565b9150615b128261645f565b602082019050919050565b6000615b2a6005836160b0565b9150615b3582616488565b602082019050919050565b6000615b4d6008836160b0565b9150615b58826164b1565b602082019050919050565b6000615b706006836160b0565b9150615b7b826164da565b602082019050919050565b6000615b936006836160b0565b9150615b9e82616503565b602082019050919050565b6000615bb66009836160b0565b9150615bc18261652c565b602082019050919050565b6000615bd96003836160b0565b9150615be482616555565b602082019050919050565b6000615bfc6007836160b0565b9150615c078261657e565b602082019050919050565b6000615c1f600a836160b0565b9150615c2a826165a7565b602082019050919050565b6000615c426006836160b0565b9150615c4d826165d0565b602082019050919050565b615c6181616226565b82525050565b615c7081616230565b82525050565b6000602082019050615c8b60008301846159ae565b92915050565b6000604082019050615ca660008301856159ae565b615cb36020830184615c58565b9392505050565b6000602082019050615ccf60008301846159bd565b92915050565b60006020820190508181036000830152615cef81846159cc565b905092915050565b60006020820190508181036000830152615d1081615a05565b9050919050565b60006020820190508181036000830152615d3081615a28565b9050919050565b60006020820190508181036000830152615d5081615a4b565b9050919050565b60006020820190508181036000830152615d7081615a6e565b9050919050565b60006020820190508181036000830152615d9081615a91565b9050919050565b60006020820190508181036000830152615db081615ab4565b9050919050565b60006020820190508181036000830152615dd081615ad7565b9050919050565b60006020820190508181036000830152615df081615afa565b9050919050565b60006020820190508181036000830152615e1081615b1d565b9050919050565b60006020820190508181036000830152615e3081615b40565b9050919050565b60006020820190508181036000830152615e5081615b63565b9050919050565b60006020820190508181036000830152615e7081615b86565b9050919050565b60006020820190508181036000830152615e9081615ba9565b9050919050565b60006020820190508181036000830152615eb081615bcc565b9050919050565b60006020820190508181036000830152615ed081615bef565b9050919050565b60006020820190508181036000830152615ef081615c12565b9050919050565b60006020820190508181036000830152615f1081615c35565b9050919050565b6000602082019050615f2c6000830184615c58565b92915050565b6000604082019050615f476000830185615c58565b615f5460208301846159ae565b9392505050565b6000606082019050615f706000830186615c58565b615f7d60208301856159ae565b615f8a60408301846159ae565b949350505050565b6000604082019050615fa76000830185615c58565b615fb46020830184615c58565b9392505050565b6000606082019050615fd06000830186615c58565b615fdd6020830185615c58565b615fea6040830184615c58565b949350505050565b60006080820190506160076000830187615c58565b6160146020830186615c58565b6160216040830185615c58565b61602e6060830184615c58565b95945050505050565b600060a08201905061604c6000830188615c58565b6160596020830187615c58565b6160666040830186615c58565b6160736060830185615c58565b6160806080830184615c58565b9695505050505050565b600060208201905061609f6000830184615c67565b92915050565b600081519050919050565b600082825260208201905092915050565b60006160cc82616226565b91506160d783616226565b9250827fffffffffffffffffffffffffffffffffffffffffffffffffffffffffffffffff0382111561610c5761610b6162a2565b5b828201905092915050565b600061612282616226565b915061612d83616226565b92508261613d5761613c6162d1565b5b828204905092915050565b600061615382616226565b915061615e83616226565b9250817fffffffffffffffffffffffffffffffffffffffffffffffffffffffffffffffff0483118215151615616197576161966162a2565b5b828202905092915050565b60006161ad82616226565b91506161b883616226565b9250828210156161cb576161ca6162a2565b5b828203905092915050565b60006161e182616206565b9050919050565b60008115159050919050565b60006161ff826161d6565b9050919050565b600073ffffffffffffffffffffffffffffffffffffffff82169050919050565b6000819050919050565b600060ff82169050919050565b60005b8381101561625b578082015181840152602081019050616240565b8381111561626a576000848401525b50505050565b6000600282049050600182168061628857607f821691505b6020821081141561629c5761629b616300565b5b50919050565b7f4e487b7100000000000000000000000000000000000000000000000000000000600052601160045260246000fd5b7f4e487b7100000000000000000000000000000000000000000000000000000000600052601260045260246000fd5b7f4e487b7100000000000000000000000000000000000000000000000000000000600052602260045260246000fd5b6000601f19601f8301169050919050565b7f216163636f756e74000000000000000000000000000000000000000000000000600082015250565b7f214d415800000000000000000000000000000000000000000000000000000000600082015250565b7f21617070726f76616c0000000000000000000000000000000000000000000000600082015250565b7f2142616c616e6365640000000000000000000000000000000000000000000000600082015250565b7f2162616c616e6365000000000000000000000000000000000000000000000000600082015250565b7f21424153457c7c544f4b454e0000000000000000000000000000000000000000600082015250565b7f2153594e54480000000000000000000000000000000000000000000000000000600082015250565b7f2173746972726564000000000000000000000000000000000000000000000000600082015250565b7f214255524e000000000000000000000000000000000000000000000000000000600082015250565b7f217370656e646572000000000000000000000000000000000000000000000000600082015250565b7f2173796e74680000000000000000000000000000000000000000000000000000600082015250565b7f2156414c49440000000000000000000000000000000000000000000000000000600082015250565b7f217472616e736665720000000000000000000000000000000000000000000000600082015250565b7f5254430000000000000000000000000000000000000000000000000000000000600082015250565b7f2173656e64657200000000000000000000000000000000000000000000000000600082015250565b7f21494e4954494154454400000000000000000000000000000000000000000000600082015250565b7f216f776e65720000000000000000000000000000000000000000000000000000600082015250565b616602816161d6565b811461660d57600080fd5b50565b616619816161e8565b811461662457600080fd5b50565b616630816161f4565b811461663b57600080fd5b50565b61664781616226565b811461665257600080fd5b5056fea2646970667358221220f9cce3b270716481f516193347e76843024980d94fb6ce7c2ea9ff77c3791f9b64736f6c63430008030033",
  "linkReferences": {},
  "deployedLinkReferences": {}
}