{
  "_format": "hh-sol-artifact-1",
  "contractName": "Pool",
  "sourceName": "contracts/Pool.sol",
  "abi": [
    {
      "inputs": [
        {
          "internalType": "address",
          "name": "_base",
          "type": "address"
        },
        {
          "internalType": "address",
          "name": "_token",
          "type": "address"
        }
      ],
      "stateMutability": "nonpayable",
      "type": "constructor"
    },
    {
      "anonymous": false,
      "inputs": [
        {
          "indexed": true,
          "internalType": "address",
          "name": "member",
          "type": "address"
        },
        {
          "indexed": false,
          "internalType": "uint256",
          "name": "inputBase",
          "type": "uint256"
        },
        {
          "indexed": false,
          "internalType": "uint256",
          "name": "inputToken",
          "type": "uint256"
        },
        {
          "indexed": false,
          "internalType": "uint256",
          "name": "unitsIssued",
          "type": "uint256"
        }
      ],
      "name": "AddLiquidity",
      "type": "event"
    },
    {
      "anonymous": false,
      "inputs": [
        {
          "indexed": true,
          "internalType": "address",
          "name": "owner",
          "type": "address"
        },
        {
          "indexed": true,
          "internalType": "address",
          "name": "spender",
          "type": "address"
        },
        {
          "indexed": false,
          "internalType": "uint256",
          "name": "value",
          "type": "uint256"
        }
      ],
      "name": "Approval",
      "type": "event"
    },
    {
      "anonymous": false,
      "inputs": [
        {
          "indexed": true,
          "internalType": "address",
          "name": "member",
          "type": "address"
        },
        {
          "indexed": false,
          "internalType": "uint256",
          "name": "baseAmount",
          "type": "uint256"
        },
        {
          "indexed": false,
          "internalType": "uint256",
          "name": "liqUnits",
          "type": "uint256"
        },
        {
          "indexed": false,
          "internalType": "uint256",
          "name": "synthAmount",
          "type": "uint256"
        },
        {
          "indexed": false,
          "internalType": "uint256",
          "name": "fee",
          "type": "uint256"
        }
      ],
      "name": "BurnSynth",
      "type": "event"
    },
    {
      "anonymous": false,
      "inputs": [
        {
          "indexed": true,
          "internalType": "address",
          "name": "member",
          "type": "address"
        },
        {
          "indexed": false,
          "internalType": "uint256",
          "name": "baseAmount",
          "type": "uint256"
        },
        {
          "indexed": false,
          "internalType": "uint256",
          "name": "liqUnits",
          "type": "uint256"
        },
        {
          "indexed": false,
          "internalType": "uint256",
          "name": "synthAmount",
          "type": "uint256"
        },
        {
          "indexed": false,
          "internalType": "uint256",
          "name": "fee",
          "type": "uint256"
        }
      ],
      "name": "MintSynth",
      "type": "event"
    },
    {
      "anonymous": false,
      "inputs": [
        {
          "indexed": true,
          "internalType": "address",
          "name": "member",
          "type": "address"
        },
        {
          "indexed": false,
          "internalType": "uint256",
          "name": "outputBase",
          "type": "uint256"
        },
        {
          "indexed": false,
          "internalType": "uint256",
          "name": "outputToken",
          "type": "uint256"
        },
        {
          "indexed": false,
          "internalType": "uint256",
          "name": "unitsClaimed",
          "type": "uint256"
        }
      ],
      "name": "RemoveLiquidity",
      "type": "event"
    },
    {
      "anonymous": false,
      "inputs": [
        {
          "indexed": true,
          "internalType": "address",
          "name": "tokenFrom",
          "type": "address"
        },
        {
          "indexed": true,
          "internalType": "address",
          "name": "tokenTo",
          "type": "address"
        },
        {
          "indexed": true,
          "internalType": "address",
          "name": "recipient",
          "type": "address"
        },
        {
          "indexed": false,
          "internalType": "uint256",
          "name": "inputAmount",
          "type": "uint256"
        },
        {
          "indexed": false,
          "internalType": "uint256",
          "name": "outputAmount",
          "type": "uint256"
        },
        {
          "indexed": false,
          "internalType": "uint256",
          "name": "fee",
          "type": "uint256"
        }
      ],
      "name": "Swapped",
      "type": "event"
    },
    {
      "anonymous": false,
      "inputs": [
        {
          "indexed": true,
          "internalType": "address",
          "name": "from",
          "type": "address"
        },
        {
          "indexed": true,
          "internalType": "address",
          "name": "to",
          "type": "address"
        },
        {
          "indexed": false,
          "internalType": "uint256",
          "name": "value",
          "type": "uint256"
        }
      ],
      "name": "Transfer",
      "type": "event"
    },
    {
      "inputs": [],
      "name": "BASE",
      "outputs": [
        {
          "internalType": "address",
          "name": "",
          "type": "address"
        }
      ],
      "stateMutability": "view",
      "type": "function"
    },
    {
      "inputs": [
        {
          "internalType": "uint256",
          "name": "_newRTC",
          "type": "uint256"
        }
      ],
      "name": "RTC",
      "outputs": [],
      "stateMutability": "nonpayable",
      "type": "function"
    },
    {
      "inputs": [],
      "name": "SYNTH",
      "outputs": [
        {
          "internalType": "address",
          "name": "",
          "type": "address"
        }
      ],
      "stateMutability": "view",
      "type": "function"
    },
    {
      "inputs": [],
      "name": "TOKEN",
      "outputs": [
        {
          "internalType": "address",
          "name": "",
          "type": "address"
        }
      ],
      "stateMutability": "view",
      "type": "function"
    },
    {
      "inputs": [
        {
          "internalType": "address",
          "name": "member",
          "type": "address"
        }
      ],
      "name": "addForMember",
      "outputs": [
        {
          "internalType": "uint256",
          "name": "liquidityUnits",
          "type": "uint256"
        }
      ],
      "stateMutability": "nonpayable",
      "type": "function"
    },
    {
      "inputs": [
        {
          "internalType": "address",
          "name": "owner",
          "type": "address"
        },
        {
          "internalType": "address",
          "name": "spender",
          "type": "address"
        }
      ],
      "name": "allowance",
      "outputs": [
        {
          "internalType": "uint256",
          "name": "",
          "type": "uint256"
        }
      ],
      "stateMutability": "view",
      "type": "function"
    },
    {
      "inputs": [
        {
          "internalType": "address",
          "name": "spender",
          "type": "address"
        },
        {
          "internalType": "uint256",
          "name": "amount",
          "type": "uint256"
        }
      ],
      "name": "approve",
      "outputs": [
        {
          "internalType": "bool",
          "name": "",
          "type": "bool"
        }
      ],
      "stateMutability": "nonpayable",
      "type": "function"
    },
    {
      "inputs": [
        {
          "internalType": "address",
          "name": "account",
          "type": "address"
        }
      ],
      "name": "balanceOf",
      "outputs": [
        {
          "internalType": "uint256",
          "name": "",
          "type": "uint256"
        }
      ],
      "stateMutability": "view",
      "type": "function"
    },
    {
      "inputs": [],
      "name": "baseAmount",
      "outputs": [
        {
          "internalType": "uint256",
          "name": "",
          "type": "uint256"
        }
      ],
      "stateMutability": "view",
      "type": "function"
    },
    {
      "inputs": [],
      "name": "baseCap",
      "outputs": [
        {
          "internalType": "uint256",
          "name": "",
          "type": "uint256"
        }
      ],
      "stateMutability": "view",
      "type": "function"
    },
    {
      "inputs": [
        {
          "internalType": "uint256",
          "name": "amount",
          "type": "uint256"
        }
      ],
      "name": "burn",
      "outputs": [],
      "stateMutability": "nonpayable",
      "type": "function"
    },
    {
      "inputs": [
        {
          "internalType": "address",
          "name": "member",
          "type": "address"
        }
      ],
      "name": "burnSynth",
      "outputs": [
        {
          "internalType": "uint256",
          "name": "outputAmount",
          "type": "uint256"
        },
        {
          "internalType": "uint256",
          "name": "fee",
          "type": "uint256"
        }
      ],
      "stateMutability": "nonpayable",
      "type": "function"
    },
    {
      "inputs": [],
      "name": "collateral",
      "outputs": [
        {
          "internalType": "uint256",
          "name": "",
          "type": "uint256"
        }
      ],
      "stateMutability": "view",
      "type": "function"
    },
    {
      "inputs": [],
      "name": "decimals",
      "outputs": [
        {
          "internalType": "uint8",
          "name": "",
          "type": "uint8"
        }
      ],
      "stateMutability": "view",
      "type": "function"
    },
    {
      "inputs": [
        {
          "internalType": "address",
          "name": "spender",
          "type": "address"
        },
        {
          "internalType": "uint256",
          "name": "subtractedValue",
          "type": "uint256"
        }
      ],
      "name": "decreaseAllowance",
      "outputs": [
        {
          "internalType": "bool",
          "name": "",
          "type": "bool"
        }
      ],
      "stateMutability": "nonpayable",
      "type": "function"
    },
    {
      "inputs": [
        {
          "internalType": "uint256",
          "name": "newPeriod",
          "type": "uint256"
        }
      ],
      "name": "flipFreeze",
      "outputs": [],
      "stateMutability": "nonpayable",
      "type": "function"
    },
    {
      "inputs": [],
      "name": "freeze",
      "outputs": [
        {
          "internalType": "bool",
          "name": "",
          "type": "bool"
        }
      ],
      "stateMutability": "view",
      "type": "function"
    },
    {
      "inputs": [],
      "name": "genesis",
      "outputs": [
        {
          "internalType": "uint256",
          "name": "",
          "type": "uint256"
        }
      ],
      "stateMutability": "view",
      "type": "function"
    },
    {
      "inputs": [
        {
          "internalType": "address",
          "name": "spender",
          "type": "address"
        },
        {
          "internalType": "uint256",
          "name": "addedValue",
          "type": "uint256"
        }
      ],
      "name": "increaseAllowance",
      "outputs": [
        {
          "internalType": "bool",
          "name": "",
          "type": "bool"
        }
      ],
      "stateMutability": "nonpayable",
      "type": "function"
    },
    {
      "inputs": [],
      "name": "initiationPeriod",
      "outputs": [
        {
          "internalType": "uint256",
          "name": "",
          "type": "uint256"
        }
      ],
      "stateMutability": "view",
      "type": "function"
    },
    {
      "inputs": [],
      "name": "lastMonth",
      "outputs": [
        {
          "internalType": "uint256",
          "name": "",
          "type": "uint256"
        }
      ],
      "stateMutability": "view",
      "type": "function"
    },
    {
      "inputs": [],
      "name": "map30DPoolRevenue",
      "outputs": [
        {
          "internalType": "uint256",
          "name": "",
          "type": "uint256"
        }
      ],
      "stateMutability": "view",
      "type": "function"
    },
    {
      "inputs": [],
      "name": "mapPast30DPoolRevenue",
      "outputs": [
        {
          "internalType": "uint256",
          "name": "",
          "type": "uint256"
        }
      ],
      "stateMutability": "view",
      "type": "function"
    },
    {
      "inputs": [],
      "name": "minSynth",
      "outputs": [
        {
          "internalType": "uint256",
          "name": "",
          "type": "uint256"
        }
      ],
      "stateMutability": "view",
      "type": "function"
    },
    {
      "inputs": [
        {
          "internalType": "uint256",
          "name": "_newMinimum",
          "type": "uint256"
        }
      ],
      "name": "minimumSynth",
      "outputs": [],
      "stateMutability": "nonpayable",
      "type": "function"
    },
    {
      "inputs": [
        {
          "internalType": "address",
          "name": "member",
          "type": "address"
        }
      ],
      "name": "mintSynth",
      "outputs": [
        {
          "internalType": "uint256",
          "name": "outputAmount",
          "type": "uint256"
        },
        {
          "internalType": "uint256",
          "name": "fee",
          "type": "uint256"
        }
      ],
      "stateMutability": "nonpayable",
      "type": "function"
    },
    {
      "inputs": [],
      "name": "name",
      "outputs": [
        {
          "internalType": "string",
          "name": "",
          "type": "string"
        }
      ],
      "stateMutability": "view",
      "type": "function"
    },
    {
      "inputs": [
        {
          "internalType": "address",
          "name": "member",
          "type": "address"
        }
      ],
      "name": "removeForMember",
      "outputs": [
        {
          "internalType": "uint256",
          "name": "outputBase",
          "type": "uint256"
        },
        {
          "internalType": "uint256",
          "name": "outputToken",
          "type": "uint256"
        }
      ],
      "stateMutability": "nonpayable",
      "type": "function"
    },
    {
      "inputs": [
        {
          "internalType": "uint256",
          "name": "",
          "type": "uint256"
        }
      ],
      "name": "revenueArray",
      "outputs": [
        {
          "internalType": "uint256",
          "name": "",
          "type": "uint256"
        }
      ],
      "stateMutability": "view",
      "type": "function"
    },
    {
      "inputs": [
        {
          "internalType": "uint256",
          "name": "_newFreezePoint",
          "type": "uint256"
        }
      ],
      "name": "setFreezePoint",
      "outputs": [],
      "stateMutability": "nonpayable",
      "type": "function"
    },
    {
      "inputs": [
        {
          "internalType": "uint256",
          "name": "newInitiation",
          "type": "uint256"
        }
      ],
      "name": "setInitiation",
      "outputs": [],
      "stateMutability": "nonpayable",
      "type": "function"
    },
    {
      "inputs": [
        {
          "internalType": "uint256",
          "name": "_synthCap",
          "type": "uint256"
        }
      ],
      "name": "setSynthCap",
      "outputs": [],
      "stateMutability": "nonpayable",
      "type": "function"
    },
    {
      "inputs": [
        {
          "internalType": "address",
          "name": "token",
          "type": "address"
        },
        {
          "internalType": "address",
          "name": "member",
          "type": "address"
        }
      ],
      "name": "swapTo",
      "outputs": [
        {
          "internalType": "uint256",
          "name": "outputAmount",
          "type": "uint256"
        },
        {
          "internalType": "uint256",
          "name": "fee",
          "type": "uint256"
        }
      ],
      "stateMutability": "nonpayable",
      "type": "function"
    },
    {
      "inputs": [],
      "name": "symbol",
      "outputs": [
        {
          "internalType": "string",
          "name": "",
          "type": "string"
        }
      ],
      "stateMutability": "view",
      "type": "function"
    },
    {
      "inputs": [],
      "name": "sync",
      "outputs": [],
      "stateMutability": "nonpayable",
      "type": "function"
    },
    {
      "inputs": [],
      "name": "synthCap",
      "outputs": [
        {
          "internalType": "uint256",
          "name": "",
          "type": "uint256"
        }
      ],
      "stateMutability": "view",
      "type": "function"
    },
    {
      "inputs": [],
      "name": "tokenAmount",
      "outputs": [
        {
          "internalType": "uint256",
          "name": "",
          "type": "uint256"
        }
      ],
      "stateMutability": "view",
      "type": "function"
    },
    {
      "inputs": [],
      "name": "totalSupply",
      "outputs": [
        {
          "internalType": "uint256",
          "name": "",
          "type": "uint256"
        }
      ],
      "stateMutability": "view",
      "type": "function"
    },
    {
      "inputs": [
        {
          "internalType": "address",
          "name": "recipient",
          "type": "address"
        },
        {
          "internalType": "uint256",
          "name": "amount",
          "type": "uint256"
        }
      ],
      "name": "transfer",
      "outputs": [
        {
          "internalType": "bool",
          "name": "",
          "type": "bool"
        }
      ],
      "stateMutability": "nonpayable",
      "type": "function"
    },
    {
      "inputs": [
        {
          "internalType": "address",
          "name": "sender",
          "type": "address"
        },
        {
          "internalType": "address",
          "name": "recipient",
          "type": "address"
        },
        {
          "internalType": "uint256",
          "name": "amount",
          "type": "uint256"
        }
      ],
      "name": "transferFrom",
      "outputs": [
        {
          "internalType": "bool",
          "name": "",
          "type": "bool"
        }
      ],
      "stateMutability": "nonpayable",
      "type": "function"
    }
  ],
  "bytecode": "0x6101006040523480156200001257600080fd5b5060405162006e4d38038062006e4d833981810160405281019062000038919062000524565b6001600081905550600073ffffffffffffffffffffffffffffffffffffffff168273ffffffffffffffffffffffffffffffffffffffff161415620000b3576040517f08c379a0000000000000000000000000000000000000000000000000000000008152600401620000aa9062000630565b60405180910390fd5b600073ffffffffffffffffffffffffffffffffffffffff168173ffffffffffffffffffffffffffffffffffffffff16141562000126576040517f08c379a00000000000000000000000000000000000000000000000000000000081526004016200011d9062000630565b60405180910390fd5b8173ffffffffffffffffffffffffffffffffffffffff1660808173ffffffffffffffffffffffffffffffffffffffff1660601b815250508073ffffffffffffffffffffffffffffffffffffffff1660a08173ffffffffffffffffffffffffffffffffffffffff1660601b8152505060006040518060400160405280601481526020017f2d5370617274616e50726f746f636f6c506f6f6c000000000000000000000000815250905060006040518060400160405280600481526020017f2d5350500000000000000000000000000000000000000000000000000000000081525090508273ffffffffffffffffffffffffffffffffffffffff166306fdde036040518163ffffffff1660e01b815260040160006040518083038186803b1580156200024f57600080fd5b505afa15801562000264573d6000803e3d6000fd5b505050506040513d6000823e3d601f19601f820116820180604052508101906200028f919062000565565b82604051602001620002a392919062000608565b604051602081830303815290604052600a9080519060200190620002c9929190620003eb565b508273ffffffffffffffffffffffffffffffffffffffff166395d89b416040518163ffffffff1660e01b815260040160006040518083038186803b1580156200031157600080fd5b505afa15801562000326573d6000803e3d6000fd5b505050506040513d6000823e3d601f19601f8201168201806040525081019062000351919062000565565b816040516020016200036592919062000608565b604051602081830303815290604052600b90805190602001906200038b929190620003eb565b50601260ff1660c08160ff1660f81b815250504260e08181525050610bb8600181905550610bb860058190555069152d02c7e14af68000006002819055504260048190555060016007819055506101f46009819055505050505062000860565b828054620003f99062000742565b90600052602060002090601f0160209004810192826200041d576000855562000469565b82601f106200043857805160ff191683800117855562000469565b8280016001018555821562000469579182015b82811115620004685782518255916020019190600101906200044b565b5b5090506200047891906200047c565b5090565b5b80821115620004975760008160009055506001016200047d565b5090565b6000620004b2620004ac846200067b565b62000652565b905082815260208101848484011115620004cb57600080fd5b620004d88482856200070c565b509392505050565b600081519050620004f18162000846565b92915050565b600082601f8301126200050957600080fd5b81516200051b8482602086016200049b565b91505092915050565b600080604083850312156200053857600080fd5b60006200054885828601620004e0565b92505060206200055b85828601620004e0565b9150509250929050565b6000602082840312156200057857600080fd5b600082015167ffffffffffffffff8111156200059357600080fd5b620005a184828501620004f7565b91505092915050565b6000620005b782620006b1565b620005c38185620006cd565b9350620005d58185602086016200070c565b80840191505092915050565b6000620005f0600583620006bc565b9150620005fd826200081d565b602082019050919050565b6000620006168285620005aa565b9150620006248284620005aa565b91508190509392505050565b600060208201905081810360008301526200064b81620005e1565b9050919050565b60006200065e62000671565b90506200066c828262000778565b919050565b6000604051905090565b600067ffffffffffffffff821115620006995762000698620007dd565b5b620006a4826200080c565b9050602081019050919050565b600081519050919050565b600082825260208201905092915050565b600081905092915050565b6000620006e582620006ec565b9050919050565b600073ffffffffffffffffffffffffffffffffffffffff82169050919050565b60005b838110156200072c5780820151818401526020810190506200070f565b838111156200073c576000848401525b50505050565b600060028204905060018216806200075b57607f821691505b60208210811415620007725762000771620007ae565b5b50919050565b62000783826200080c565b810181811067ffffffffffffffff82111715620007a557620007a4620007dd565b5b80604052505050565b7f4e487b7100000000000000000000000000000000000000000000000000000000600052602260045260246000fd5b7f4e487b7100000000000000000000000000000000000000000000000000000000600052604160045260246000fd5b6000601f19601f8301169050919050565b7f215a45524f000000000000000000000000000000000000000000000000000000600082015250565b6200085181620006d8565b81146200085d57600080fd5b50565b60805160601c60a05160601c60c05160f81c60e05161651e6200092f6000396000818161220f01526126ff01526000611143015260008181610bfb01528181610ce101528181611927015281816128cd01528181612a5f0152818161350401528181613dc90152818161437c015281816149170152614e7f015260008181610ba601528181610c8d01528181610d2401528181611da40152818161281e015281816129730152818161328a01528181613596015281816142cd015281816148710152614bd6015261651e6000f3fe608060405234801561001057600080fd5b50600436106102485760003560e01c806386d5f6181161013b578063d8dfeb45116100b8578063eec7faa11161007c578063eec7faa114610724578063f0337cdc14610742578063f1bbdef214610772578063fb195363146107a3578063fff6cae9146107bf57610248565b8063d8dfeb4514610669578063dbfc5a0414610687578063dd62ed3e146106b8578063e1eddde3146106e8578063ec342ad01461070657610248565b8063a7f0b3de116100ff578063a7f0b3de146105b0578063a9059cbb146105ce578063ba8e3edd146105fe578063bc5dedc91461061a578063cbbcf8021461064b57610248565b806386d5f618146104f857806395d89b411461052857806399d786ca146105465780639d3f87e214610564578063a457c2d71461058057610248565b806342966c68116101c957806370a082311161018d57806370a082311461045257806370f93cdf14610482578063752d7793146104a05780637ec3eae5146104be57806382bfefc8146104da57610248565b806342966c68146103c0578063474e7302146103dc5780634864d140146103f85780635f83e5d51461041657806362a5af3b1461043457610248565b80632783e4a9116102105780632783e4a914610307578063308aca1d14610338578063313ce5671461035457806333ca78e414610372578063395093511461039057610248565b806306fdde031461024d578063095ea7b31461026b57806314c025c61461029b57806318160ddd146102b957806323b872dd146102d7575b600080fd5b6102556107c9565b6040516102629190615b68565b60405180910390f35b61028560048036038101906102809190615761565b61085b565b6040516102929190615b4d565b60405180910390f35b6102a3610872565b6040516102b09190615daa565b60405180910390f35b6102c1610878565b6040516102ce9190615daa565b60405180910390f35b6102f160048036038101906102ec9190615712565b61087e565b6040516102fe9190615b4d565b60405180910390f35b610321600480360381019061031c91906156d6565b610971565b60405161032f929190615e25565b60405180910390f35b610352600480360381019061034d91906157ef565b610eb6565b005b61035c611141565b6040516103699190615f1d565b60405180910390f35b61037a611165565b6040516103879190615daa565b60405180910390f35b6103aa60048036038101906103a59190615761565b61116b565b6040516103b79190615b4d565b60405180910390f35b6103da60048036038101906103d591906157ef565b611209565b005b6103f660048036038101906103f191906157ef565b6113a8565b005b610400611627565b60405161040d9190615daa565b60405180910390f35b61041e61162d565b60405161042b9190615daa565b60405180910390f35b61043c611633565b6040516104499190615b4d565b60405180910390f35b61046c60048036038101906104679190615684565b611646565b6040516104799190615daa565b60405180910390f35b61048a61168f565b6040516104979190615daa565b60405180910390f35b6104a8611695565b6040516104b59190615daa565b60405180910390f35b6104d860048036038101906104d391906157ef565b61169b565b005b6104e2611925565b6040516104ef9190615b09565b60405180910390f35b610512600480360381019061050d9190615684565b611949565b60405161051f9190615daa565b60405180910390f35b610530611e55565b60405161053d9190615b68565b60405180910390f35b61054e611ee7565b60405161055b9190615daa565b60405180910390f35b61057e600480360381019061057991906157ef565b611eed565b005b61059a60048036038101906105959190615761565b612127565b6040516105a79190615b4d565b60405180910390f35b6105b861220d565b6040516105c59190615daa565b60405180910390f35b6105e860048036038101906105e39190615761565b612231565b6040516105f59190615b4d565b60405180910390f35b610618600480360381019061061391906157ef565b612248565b005b610634600480360381019061062f9190615684565b6124c7565b604051610642929190615e25565b60405180910390f35b610653612ba2565b6040516106609190615daa565b60405180910390f35b610671612ba8565b60405161067e9190615daa565b60405180910390f35b6106a1600480360381019061069c9190615684565b612bae565b6040516106af929190615e25565b60405180910390f35b6106d260048036038101906106cd91906156d6565b6133d9565b6040516106df9190615daa565b60405180910390f35b6106f0613460565b6040516106fd9190615b09565b60405180910390f35b61070e613594565b60405161071b9190615b09565b60405180910390f35b61072c6135b8565b6040516107399190615daa565b60405180910390f35b61075c600480360381019061075791906157ef565b6135be565b6040516107699190615daa565b60405180910390f35b61078c60048036038101906107879190615684565b6135e2565b60405161079a929190615e25565b60405180910390f35b6107bd60048036038101906107b891906157ef565b613f5c565b005b6107c761420f565b005b6060600a80546107d890616103565b80601f016020809104026020016040519081016040528092919081815260200182805461080490616103565b80156108515780601f1061082657610100808354040283529160200191610851565b820191906000526020600020905b81548152906001019060200180831161083457829003601f168201915b5050505050905090565b600061086833848461442b565b6001905092915050565b60095481565b600c5481565b600061088b8484846145f6565b6000600e60008673ffffffffffffffffffffffffffffffffffffffff1673ffffffffffffffffffffffffffffffffffffffff16815260200190815260200160002060003373ffffffffffffffffffffffffffffffffffffffff1673ffffffffffffffffffffffffffffffffffffffff1681526020019081526020016000205490508281101561094f576040517f08c379a000000000000000000000000000000000000000000000000000000000815260040161094690615bca565b60405180910390fd5b610965853385846109609190616035565b61442b565b60019150509392505050565b60008061097c61486d565b73ffffffffffffffffffffffffffffffffffffffff166332fe7b266040518163ffffffff1660e01b815260040160206040518083038186803b1580156109c157600080fd5b505afa1580156109d5573d6000803e3d6000fd5b505050506040513d601f19601f820116820180604052508101906109f991906156ad565b73ffffffffffffffffffffffffffffffffffffffff163373ffffffffffffffffffffffffffffffffffffffff161480610ae15750610a3561486d565b73ffffffffffffffffffffffffffffffffffffffff16632ab24e496040518163ffffffff1660e01b815260040160206040518083038186803b158015610a7a57600080fd5b505afa158015610a8e573d6000803e3d6000fd5b505050506040513d601f19601f82011682018060405250810190610ab291906156ad565b73ffffffffffffffffffffffffffffffffffffffff163373ffffffffffffffffffffffffffffffffffffffff16145b80610b9b5750610aef61486d565b73ffffffffffffffffffffffffffffffffffffffff1663b99b0a0c6040518163ffffffff1660e01b815260040160206040518083038186803b158015610b3457600080fd5b505afa158015610b48573d6000803e3d6000fd5b505050506040513d601f19601f82011682018060405250810190610b6c91906156ad565b73ffffffffffffffffffffffffffffffffffffffff163373ffffffffffffffffffffffffffffffffffffffff16145b610ba457600080fd5b7f000000000000000000000000000000000000000000000000000000000000000073ffffffffffffffffffffffffffffffffffffffff168473ffffffffffffffffffffffffffffffffffffffff161480610c4957507f000000000000000000000000000000000000000000000000000000000000000073ffffffffffffffffffffffffffffffffffffffff168473ffffffffffffffffffffffffffffffffffffffff16145b610c88576040517f08c379a0000000000000000000000000000000000000000000000000000000008152600401610c7f90615c2a565b60405180910390fd5b6000807f000000000000000000000000000000000000000000000000000000000000000073ffffffffffffffffffffffffffffffffffffffff168673ffffffffffffffffffffffffffffffffffffffff161415610d22577f00000000000000000000000000000000000000000000000000000000000000009150610d0a614912565b9050610d15816149e8565b8094508195505050610d61565b7f00000000000000000000000000000000000000000000000000000000000000009150610d4d614bd1565b9050610d5881614ca7565b80945081955050505b8473ffffffffffffffffffffffffffffffffffffffff168673ffffffffffffffffffffffffffffffffffffffff168373ffffffffffffffffffffffffffffffffffffffff167fc9163c3bdf7263acf1bb3d24072cc7da025f7181c31e2edc7e1673edf5e0ca32848888604051610dd993929190615e4e565b60405180910390a48573ffffffffffffffffffffffffffffffffffffffff1663a9059cbb86866040518363ffffffff1660e01b8152600401610e1c929190615b24565b602060405180830381600087803b158015610e3657600080fd5b505af1158015610e4a573d6000803e3d6000fd5b505050506040513d601f19601f82011682018060405250810190610e6e919061579d565b610ead576040517f08c379a0000000000000000000000000000000000000000000000000000000008152600401610ea490615cea565b60405180910390fd5b50509250929050565b610ebe61486d565b73ffffffffffffffffffffffffffffffffffffffff166332fe7b266040518163ffffffff1660e01b815260040160206040518083038186803b158015610f0357600080fd5b505afa158015610f17573d6000803e3d6000fd5b505050506040513d601f19601f82011682018060405250810190610f3b91906156ad565b73ffffffffffffffffffffffffffffffffffffffff163373ffffffffffffffffffffffffffffffffffffffff1614806110235750610f7761486d565b73ffffffffffffffffffffffffffffffffffffffff16632ab24e496040518163ffffffff1660e01b815260040160206040518083038186803b158015610fbc57600080fd5b505afa158015610fd0573d6000803e3d6000fd5b505050506040513d601f19601f82011682018060405250810190610ff491906156ad565b73ffffffffffffffffffffffffffffffffffffffff163373ffffffffffffffffffffffffffffffffffffffff16145b806110dd575061103161486d565b73ffffffffffffffffffffffffffffffffffffffff1663b99b0a0c6040518163ffffffff1660e01b815260040160206040518083038186803b15801561107657600080fd5b505afa15801561108a573d6000803e3d6000fd5b505050506040513d601f19601f820116820180604052508101906110ae91906156ad565b73ffffffffffffffffffffffffffffffffffffffff163373ffffffffffffffffffffffffffffffffffffffff16145b6110e657600080fd5b60fa811015806110f85750610bb88111155b611137576040517f08c379a000000000000000000000000000000000000000000000000000000000815260040161112e90615cca565b60405180910390fd5b8060098190555050565b7f000000000000000000000000000000000000000000000000000000000000000081565b60015481565b60006111ff338484600e60003373ffffffffffffffffffffffffffffffffffffffff1673ffffffffffffffffffffffffffffffffffffffff16815260200190815260200160002060008873ffffffffffffffffffffffffffffffffffffffff1673ffffffffffffffffffffffffffffffffffffffff168152602001908152602001600020546111fa9190615f54565b61442b565b6001905092915050565b611211613460565b73ffffffffffffffffffffffffffffffffffffffff163373ffffffffffffffffffffffffffffffffffffffff161461124857600080fd5b61125061486d565b73ffffffffffffffffffffffffffffffffffffffff1663b93ec54b6040518163ffffffff1660e01b815260040160206040518083038186803b15801561129557600080fd5b505afa1580156112a9573d6000803e3d6000fd5b505050506040513d601f19601f820116820180604052508101906112cd91906156ad565b73ffffffffffffffffffffffffffffffffffffffff16635e0237ea6112f0613460565b6040518263ffffffff1660e01b815260040161130c9190615b09565b60206040518083038186803b15801561132457600080fd5b505afa158015611338573d6000803e3d6000fd5b505050506040513d601f19601f8201168201806040525081019061135c919061579d565b61139b576040517f08c379a000000000000000000000000000000000000000000000000000000000815260040161139290615c4a565b60405180910390fd5b6113a53382614f40565b50565b6113b061486d565b73ffffffffffffffffffffffffffffffffffffffff166332fe7b266040518163ffffffff1660e01b815260040160206040518083038186803b1580156113f557600080fd5b505afa158015611409573d6000803e3d6000fd5b505050506040513d601f19601f8201168201806040525081019061142d91906156ad565b73ffffffffffffffffffffffffffffffffffffffff163373ffffffffffffffffffffffffffffffffffffffff161480611515575061146961486d565b73ffffffffffffffffffffffffffffffffffffffff16632ab24e496040518163ffffffff1660e01b815260040160206040518083038186803b1580156114ae57600080fd5b505afa1580156114c2573d6000803e3d6000fd5b505050506040513d601f19601f820116820180604052508101906114e691906156ad565b73ffffffffffffffffffffffffffffffffffffffff163373ffffffffffffffffffffffffffffffffffffffff16145b806115cf575061152361486d565b73ffffffffffffffffffffffffffffffffffffffff1663b99b0a0c6040518163ffffffff1660e01b815260040160206040518083038186803b15801561156857600080fd5b505afa15801561157c573d6000803e3d6000fd5b505050506040513d601f19601f820116820180604052508101906115a091906156ad565b73ffffffffffffffffffffffffffffffffffffffff163373ffffffffffffffffffffffffffffffffffffffff16145b6115d857600080fd5b610bb881111561161d576040517f08c379a000000000000000000000000000000000000000000000000000000000815260040161161490615baa565b60405180910390fd5b8060018190555050565b600f5481565b60125481565b600660009054906101000a900460ff1681565b6000600d60008373ffffffffffffffffffffffffffffffffffffffff1673ffffffffffffffffffffffffffffffffffffffff168152602001908152602001600020549050919050565b60075481565b60135481565b6116a361486d565b73ffffffffffffffffffffffffffffffffffffffff166332fe7b266040518163ffffffff1660e01b815260040160206040518083038186803b1580156116e857600080fd5b505afa1580156116fc573d6000803e3d6000fd5b505050506040513d601f19601f8201168201806040525081019061172091906156ad565b73ffffffffffffffffffffffffffffffffffffffff163373ffffffffffffffffffffffffffffffffffffffff161480611808575061175c61486d565b73ffffffffffffffffffffffffffffffffffffffff16632ab24e496040518163ffffffff1660e01b815260040160206040518083038186803b1580156117a157600080fd5b505afa1580156117b5573d6000803e3d6000fd5b505050506040513d601f19601f820116820180604052508101906117d991906156ad565b73ffffffffffffffffffffffffffffffffffffffff163373ffffffffffffffffffffffffffffffffffffffff16145b806118c2575061181661486d565b73ffffffffffffffffffffffffffffffffffffffff1663b99b0a0c6040518163ffffffff1660e01b815260040160206040518083038186803b15801561185b57600080fd5b505afa15801561186f573d6000803e3d6000fd5b505050506040513d601f19601f8201168201806040525081019061189391906156ad565b73ffffffffffffffffffffffffffffffffffffffff163373ffffffffffffffffffffffffffffffffffffffff16145b6118cb57600080fd5b600280546118d99190615fdb565b81111561191b576040517f08c379a000000000000000000000000000000000000000000000000000000000815260040161191290615baa565b60405180910390fd5b8060028190555050565b7f000000000000000000000000000000000000000000000000000000000000000081565b600061195361486d565b73ffffffffffffffffffffffffffffffffffffffff166332fe7b266040518163ffffffff1660e01b815260040160206040518083038186803b15801561199857600080fd5b505afa1580156119ac573d6000803e3d6000fd5b505050506040513d601f19601f820116820180604052508101906119d091906156ad565b73ffffffffffffffffffffffffffffffffffffffff163373ffffffffffffffffffffffffffffffffffffffff161480611ab85750611a0c61486d565b73ffffffffffffffffffffffffffffffffffffffff16632ab24e496040518163ffffffff1660e01b815260040160206040518083038186803b158015611a5157600080fd5b505afa158015611a65573d6000803e3d6000fd5b505050506040513d601f19601f82011682018060405250810190611a8991906156ad565b73ffffffffffffffffffffffffffffffffffffffff163373ffffffffffffffffffffffffffffffffffffffff16145b80611b725750611ac661486d565b73ffffffffffffffffffffffffffffffffffffffff1663b99b0a0c6040518163ffffffff1660e01b815260040160206040518083038186803b158015611b0b57600080fd5b505afa158015611b1f573d6000803e3d6000fd5b505050506040513d601f19601f82011682018060405250810190611b4391906156ad565b73ffffffffffffffffffffffffffffffffffffffff163373ffffffffffffffffffffffffffffffffffffffff16145b611b7b57600080fd5b6000611b85614bd1565b905060025481600f54611b989190615f54565b10611bd8576040517f08c379a0000000000000000000000000000000000000000000000000000000008152600401611bcf90615d0a565b60405180910390fd5b6000611be2614912565b9050611bec61486d565b73ffffffffffffffffffffffffffffffffffffffff16637b0e5c456040518163ffffffff1660e01b815260040160206040518083038186803b158015611c3157600080fd5b505afa158015611c45573d6000803e3d6000fd5b505050506040513d601f19601f82011682018060405250810190611c6991906156ad565b73ffffffffffffffffffffffffffffffffffffffff1663c5c11ee983600f5484601054600c546040518663ffffffff1660e01b8152600401611caf959493929190615eca565b60206040518083038186803b158015611cc757600080fd5b505afa158015611cdb573d6000803e3d6000fd5b505050506040513d601f19601f82011682018060405250810190611cff9190615818565b92506000600f541480611d1457506000601054145b15611de85768056bc75e2d631000008210158015611d3457506127108110155b611d73576040517f08c379a0000000000000000000000000000000000000000000000000000000008152600401611d6a90615bea565b60405180910390fd5b6000612710846064611d859190615fdb565b611d8f9190615faa565b90508084611d9d9190616035565b9350611dc97f00000000000000000000000000000000000000000000000000000000000000008261510a565b818384611dd69190615fdb565b611de09190615faa565b600381905550505b611df28282615253565b611dfc848461510a565b8373ffffffffffffffffffffffffffffffffffffffff167fbeb3885786d637a474cbc287c0a44587231633a077f0bd30354d5a4b18996fce838386604051611e4693929190615e4e565b60405180910390a25050919050565b6060600b8054611e6490616103565b80601f0160208091040260200160405190810160405280929190818152602001828054611e9090616103565b8015611edd5780601f10611eb257610100808354040283529160200191611edd565b820191906000526020600020905b815481529060010190602001808311611ec057829003601f168201915b5050505050905090565b60115481565b611ef561486d565b73ffffffffffffffffffffffffffffffffffffffff166332fe7b266040518163ffffffff1660e01b815260040160206040518083038186803b158015611f3a57600080fd5b505afa158015611f4e573d6000803e3d6000fd5b505050506040513d601f19601f82011682018060405250810190611f7291906156ad565b73ffffffffffffffffffffffffffffffffffffffff163373ffffffffffffffffffffffffffffffffffffffff16148061205a5750611fae61486d565b73ffffffffffffffffffffffffffffffffffffffff16632ab24e496040518163ffffffff1660e01b815260040160206040518083038186803b158015611ff357600080fd5b505afa158015612007573d6000803e3d6000fd5b505050506040513d601f19601f8201168201806040525081019061202b91906156ad565b73ffffffffffffffffffffffffffffffffffffffff163373ffffffffffffffffffffffffffffffffffffffff16145b80612114575061206861486d565b73ffffffffffffffffffffffffffffffffffffffff1663b99b0a0c6040518163ffffffff1660e01b815260040160206040518083038186803b1580156120ad57600080fd5b505afa1580156120c1573d6000803e3d6000fd5b505050506040513d601f19601f820116820180604052508101906120e591906156ad565b73ffffffffffffffffffffffffffffffffffffffff163373ffffffffffffffffffffffffffffffffffffffff16145b61211d57600080fd5b8060058190555050565b600080600e60003373ffffffffffffffffffffffffffffffffffffffff1673ffffffffffffffffffffffffffffffffffffffff16815260200190815260200160002060008573ffffffffffffffffffffffffffffffffffffffff1673ffffffffffffffffffffffffffffffffffffffff168152602001908152602001600020549050828110156121ec576040517f08c379a00000000000000000000000000000000000000000000000000000000081526004016121e390615bca565b60405180910390fd5b612202338585846121fd9190616035565b61442b565b600191505092915050565b7f000000000000000000000000000000000000000000000000000000000000000081565b600061223e3384846145f6565b6001905092915050565b61225061486d565b73ffffffffffffffffffffffffffffffffffffffff166332fe7b266040518163ffffffff1660e01b815260040160206040518083038186803b15801561229557600080fd5b505afa1580156122a9573d6000803e3d6000fd5b505050506040513d601f19601f820116820180604052508101906122cd91906156ad565b73ffffffffffffffffffffffffffffffffffffffff163373ffffffffffffffffffffffffffffffffffffffff1614806123b5575061230961486d565b73ffffffffffffffffffffffffffffffffffffffff16632ab24e496040518163ffffffff1660e01b815260040160206040518083038186803b15801561234e57600080fd5b505afa158015612362573d6000803e3d6000fd5b505050506040513d601f19601f8201168201806040525081019061238691906156ad565b73ffffffffffffffffffffffffffffffffffffffff163373ffffffffffffffffffffffffffffffffffffffff16145b8061246f57506123c361486d565b73ffffffffffffffffffffffffffffffffffffffff1663b99b0a0c6040518163ffffffff1660e01b815260040160206040518083038186803b15801561240857600080fd5b505afa15801561241c573d6000803e3d6000fd5b505050506040513d601f19601f8201168201806040525081019061244091906156ad565b73ffffffffffffffffffffffffffffffffffffffff163373ffffffffffffffffffffffffffffffffffffffff16145b61247857600080fd5b62093a8081106124bd576040517f08c379a00000000000000000000000000000000000000000000000000000000081526004016124b490615cca565b60405180910390fd5b8060078190555050565b6000806124d261486d565b73ffffffffffffffffffffffffffffffffffffffff166332fe7b266040518163ffffffff1660e01b815260040160206040518083038186803b15801561251757600080fd5b505afa15801561252b573d6000803e3d6000fd5b505050506040513d601f19601f8201168201806040525081019061254f91906156ad565b73ffffffffffffffffffffffffffffffffffffffff163373ffffffffffffffffffffffffffffffffffffffff161480612637575061258b61486d565b73ffffffffffffffffffffffffffffffffffffffff16632ab24e496040518163ffffffff1660e01b815260040160206040518083038186803b1580156125d057600080fd5b505afa1580156125e4573d6000803e3d6000fd5b505050506040513d601f19601f8201168201806040525081019061260891906156ad565b73ffffffffffffffffffffffffffffffffffffffff163373ffffffffffffffffffffffffffffffffffffffff16145b806126f1575061264561486d565b73ffffffffffffffffffffffffffffffffffffffff1663b99b0a0c6040518163ffffffff1660e01b815260040160206040518083038186803b15801561268a57600080fd5b505afa15801561269e573d6000803e3d6000fd5b505050506040513d601f19601f820116820180604052508101906126c291906156ad565b73ffffffffffffffffffffffffffffffffffffffff163373ffffffffffffffffffffffffffffffffffffffff16145b6126fa57600080fd5b6007547f00000000000000000000000000000000000000000000000000000000000000006127289190615f54565b4211612769576040517f08c379a000000000000000000000000000000000000000000000000000000000815260040161276090615d6a565b60405180910390fd5b600061277430611646565b9050600061278061486d565b73ffffffffffffffffffffffffffffffffffffffff16637b0e5c456040518163ffffffff1660e01b815260040160206040518083038186803b1580156127c557600080fd5b505afa1580156127d9573d6000803e3d6000fd5b505050506040513d601f19601f820116820180604052508101906127fd91906156ad565b90508073ffffffffffffffffffffffffffffffffffffffff16635a7b2ed3837f0000000000000000000000000000000000000000000000000000000000000000306040518463ffffffff1660e01b815260040161285c93929190615dee565b60206040518083038186803b15801561287457600080fd5b505afa158015612888573d6000803e3d6000fd5b505050506040513d601f19601f820116820180604052508101906128ac9190615818565b93508073ffffffffffffffffffffffffffffffffffffffff16635a7b2ed3837f0000000000000000000000000000000000000000000000000000000000000000306040518463ffffffff1660e01b815260040161290b93929190615dee565b60206040518083038186803b15801561292357600080fd5b505afa158015612937573d6000803e3d6000fd5b505050506040513d601f19601f8201168201806040525081019061295b9190615818565b92506129678484615291565b6129713083614f40565b7f000000000000000000000000000000000000000000000000000000000000000073ffffffffffffffffffffffffffffffffffffffff1663a9059cbb86866040518363ffffffff1660e01b81526004016129cc929190615b24565b602060405180830381600087803b1580156129e657600080fd5b505af11580156129fa573d6000803e3d6000fd5b505050506040513d601f19601f82011682018060405250810190612a1e919061579d565b612a5d576040517f08c379a0000000000000000000000000000000000000000000000000000000008152600401612a5490615cea565b60405180910390fd5b7f000000000000000000000000000000000000000000000000000000000000000073ffffffffffffffffffffffffffffffffffffffff1663a9059cbb86856040518363ffffffff1660e01b8152600401612ab8929190615b24565b602060405180830381600087803b158015612ad257600080fd5b505af1158015612ae6573d6000803e3d6000fd5b505050506040513d601f19601f82011682018060405250810190612b0a919061579d565b612b49576040517f08c379a0000000000000000000000000000000000000000000000000000000008152600401612b4090615cea565b60405180910390fd5b8473ffffffffffffffffffffffffffffffffffffffff167f59c3a0b60c6ab7deb62e1440c9e72441db6db7dfe514dba8cb18e60c0d896efa858585604051612b9393929190615e4e565b60405180910390a25050915091565b60025481565b60085481565b600080612bb961486d565b73ffffffffffffffffffffffffffffffffffffffff166332fe7b266040518163ffffffff1660e01b815260040160206040518083038186803b158015612bfe57600080fd5b505afa158015612c12573d6000803e3d6000fd5b505050506040513d601f19601f82011682018060405250810190612c3691906156ad565b73ffffffffffffffffffffffffffffffffffffffff163373ffffffffffffffffffffffffffffffffffffffff161480612d1e5750612c7261486d565b73ffffffffffffffffffffffffffffffffffffffff16632ab24e496040518163ffffffff1660e01b815260040160206040518083038186803b158015612cb757600080fd5b505afa158015612ccb573d6000803e3d6000fd5b505050506040513d601f19601f82011682018060405250810190612cef91906156ad565b73ffffffffffffffffffffffffffffffffffffffff163373ffffffffffffffffffffffffffffffffffffffff16145b80612dd85750612d2c61486d565b73ffffffffffffffffffffffffffffffffffffffff1663b99b0a0c6040518163ffffffff1660e01b815260040160206040518083038186803b158015612d7157600080fd5b505afa158015612d85573d6000803e3d6000fd5b505050506040513d601f19601f82011682018060405250810190612da991906156ad565b73ffffffffffffffffffffffffffffffffffffffff163373ffffffffffffffffffffffffffffffffffffffff16145b612de157600080fd5b6000612deb613460565b9050600073ffffffffffffffffffffffffffffffffffffffff168173ffffffffffffffffffffffffffffffffffffffff161415612e5d576040517f08c379a0000000000000000000000000000000000000000000000000000000008152600401612e5490615caa565b60405180910390fd5b6000612e6761486d565b73ffffffffffffffffffffffffffffffffffffffff16637b0e5c456040518163ffffffff1660e01b815260040160206040518083038186803b158015612eac57600080fd5b505afa158015612ec0573d6000803e3d6000fd5b505050506040513d601f19601f82011682018060405250810190612ee491906156ad565b905060008273ffffffffffffffffffffffffffffffffffffffff166318160ddd6040518163ffffffff1660e01b815260040160206040518083038186803b158015612f2e57600080fd5b505afa158015612f42573d6000803e3d6000fd5b505050506040513d601f19601f82011682018060405250810190612f669190615818565b905060008373ffffffffffffffffffffffffffffffffffffffff166370a08231306040518263ffffffff1660e01b8152600401612fa39190615b09565b60206040518083038186803b158015612fbb57600080fd5b505afa158015612fcf573d6000803e3d6000fd5b505050506040513d601f19601f82011682018060405250810190612ff39190615818565b9050600061271060105460095461300a9190615fdb565b6130149190615faa565b90506000612710600f5460095461302b9190615fdb565b6130359190615faa565b9050600060085490508285101561304a578294505b81811015613056578190505b60008673ffffffffffffffffffffffffffffffffffffffff1663701baaf386886010546130839190616035565b85600f546130919190615f54565b6040518463ffffffff1660e01b81526004016130af93929190615e4e565b60206040518083038186803b1580156130c757600080fd5b505afa1580156130db573d6000803e3d6000fd5b505050506040513d601f19601f820116820180604052508101906130ff9190615818565b90508673ffffffffffffffffffffffffffffffffffffffff1663896a708c868860105461312c9190616035565b85600f5461313a9190615f54565b6040518463ffffffff1660e01b815260040161315893929190615e4e565b60206040518083038186803b15801561317057600080fd5b505afa158015613184573d6000803e3d6000fd5b505050506040513d601f19601f820116820180604052508101906131a89190615818565b985085600854866131b99190615fdb565b6131c39190615faa565b600860008282546131d49190616035565b925050819055506131e6816000615291565b6131ef896152cf565b60008873ffffffffffffffffffffffffffffffffffffffff166386450495876040518263ffffffff1660e01b815260040161322a9190615daa565b602060405180830381600087803b15801561324457600080fd5b505af1158015613258573d6000803e3d6000fd5b505050506040513d601f19601f8201168201806040525081019061327c9190615818565b90506132888982614f40565b7f000000000000000000000000000000000000000000000000000000000000000073ffffffffffffffffffffffffffffffffffffffff1663a9059cbb8d846040518363ffffffff1660e01b81526004016132e3929190615b24565b602060405180830381600087803b1580156132fd57600080fd5b505af1158015613311573d6000803e3d6000fd5b505050506040513d601f19601f82011682018060405250810190613335919061579d565b613374576040517f08c379a000000000000000000000000000000000000000000000000000000000815260040161336b90615cea565b60405180910390fd5b8b73ffffffffffffffffffffffffffffffffffffffff167f6f3ac8cc4850a948dddb5c85957bbaadcbea6e4b2cef3f02f6af53fcf2596f568383898e6040516133c09493929190615e85565b60405180910390a2819a50505050505050505050915091565b6000600e60008473ffffffffffffffffffffffffffffffffffffffff1673ffffffffffffffffffffffffffffffffffffffff16815260200190815260200160002060008373ffffffffffffffffffffffffffffffffffffffff1673ffffffffffffffffffffffffffffffffffffffff16815260200190815260200160002054905092915050565b600061346a61486d565b73ffffffffffffffffffffffffffffffffffffffff1663b93ec54b6040518163ffffffff1660e01b815260040160206040518083038186803b1580156134af57600080fd5b505afa1580156134c3573d6000803e3d6000fd5b505050506040513d601f19601f820116820180604052508101906134e791906156ad565b73ffffffffffffffffffffffffffffffffffffffff1663dcec81167f00000000000000000000000000000000000000000000000000000000000000006040518263ffffffff1660e01b815260040161353f9190615b09565b60206040518083038186803b15801561355757600080fd5b505afa15801561356b573d6000803e3d6000fd5b505050506040513d601f19601f8201168201806040525081019061358f91906156ad565b905090565b7f000000000000000000000000000000000000000000000000000000000000000081565b60105481565b601481815481106135ce57600080fd5b906000526020600020016000915090505481565b6000806135ed61486d565b73ffffffffffffffffffffffffffffffffffffffff166332fe7b266040518163ffffffff1660e01b815260040160206040518083038186803b15801561363257600080fd5b505afa158015613646573d6000803e3d6000fd5b505050506040513d601f19601f8201168201806040525081019061366a91906156ad565b73ffffffffffffffffffffffffffffffffffffffff163373ffffffffffffffffffffffffffffffffffffffff16148061375257506136a661486d565b73ffffffffffffffffffffffffffffffffffffffff16632ab24e496040518163ffffffff1660e01b815260040160206040518083038186803b1580156136eb57600080fd5b505afa1580156136ff573d6000803e3d6000fd5b505050506040513d601f19601f8201168201806040525081019061372391906156ad565b73ffffffffffffffffffffffffffffffffffffffff163373ffffffffffffffffffffffffffffffffffffffff16145b8061380c575061376061486d565b73ffffffffffffffffffffffffffffffffffffffff1663b99b0a0c6040518163ffffffff1660e01b815260040160206040518083038186803b1580156137a557600080fd5b505afa1580156137b9573d6000803e3d6000fd5b505050506040513d601f19601f820116820180604052508101906137dd91906156ad565b73ffffffffffffffffffffffffffffffffffffffff163373ffffffffffffffffffffffffffffffffffffffff16145b61381557600080fd5b600061381f613460565b905061382961486d565b73ffffffffffffffffffffffffffffffffffffffff1663b93ec54b6040518163ffffffff1660e01b815260040160206040518083038186803b15801561386e57600080fd5b505afa158015613882573d6000803e3d6000fd5b505050506040513d601f19601f820116820180604052508101906138a691906156ad565b73ffffffffffffffffffffffffffffffffffffffff16635e0237ea826040518263ffffffff1660e01b81526004016138de9190615b09565b60206040518083038186803b1580156138f657600080fd5b505afa15801561390a573d6000803e3d6000fd5b505050506040513d601f19601f8201168201806040525081019061392e919061579d565b61396d576040517f08c379a000000000000000000000000000000000000000000000000000000000815260040161396490615caa565b60405180910390fd5b600061397761486d565b73ffffffffffffffffffffffffffffffffffffffff16637b0e5c456040518163ffffffff1660e01b815260040160206040518083038186803b1580156139bc57600080fd5b505afa1580156139d0573d6000803e3d6000fd5b505050506040513d601f19601f820116820180604052508101906139f491906156ad565b90506000613a00614bd1565b905060025481600f54613a139190615f54565b10613a53576040517f08c379a0000000000000000000000000000000000000000000000000000000008152600401613a4a90615d0a565b60405180910390fd5b60008373ffffffffffffffffffffffffffffffffffffffff166318160ddd6040518163ffffffff1660e01b815260040160206040518083038186803b158015613a9b57600080fd5b505afa158015613aaf573d6000803e3d6000fd5b505050506040513d601f19601f82011682018060405250810190613ad39190615818565b90506000612710601054600954613aea9190615fdb565b613af49190615faa565b90506000612710600f54600954613b0b9190615fdb565b613b159190615faa565b90506000600854905082841015613b2a578293505b81811015613b36578190505b8573ffffffffffffffffffffffffffffffffffffffff1663701baaf38683600f54613b619190615f54565b87601054613b6f9190616035565b6040518463ffffffff1660e01b8152600401613b8d93929190615e4e565b60206040518083038186803b158015613ba557600080fd5b505afa158015613bb9573d6000803e3d6000fd5b505050506040513d601f19601f82011682018060405250810190613bdd9190615818565b98506000612710600154601054613bf49190615fdb565b613bfe9190615faa565b90508560086000828254613c129190615f54565b9250508190555080858b613c269190615f54565b10613c66576040517f08c379a0000000000000000000000000000000000000000000000000000000008152600401613c5d90615d4a565b60405180910390fd5b60008773ffffffffffffffffffffffffffffffffffffffff1663b86a82ef88306040518363ffffffff1660e01b8152600401613ca3929190615dc5565b60206040518083038186803b158015613cbb57600080fd5b505afa158015613ccf573d6000803e3d6000fd5b505050506040513d601f19601f82011682018060405250810190613cf39190615818565b9050613d00876000615253565b60008873ffffffffffffffffffffffffffffffffffffffff1663896a708c8986600f54613d2d9190615f54565b8a601054613d3b9190616035565b6040518463ffffffff1660e01b8152600401613d5993929190615e4e565b60206040518083038186803b158015613d7157600080fd5b505afa158015613d85573d6000803e3d6000fd5b505050506040513d601f19601f82011682018060405250810190613da99190615818565b90508873ffffffffffffffffffffffffffffffffffffffff1663c19387df7f0000000000000000000000000000000000000000000000000000000000000000836040518363ffffffff1660e01b8152600401613e06929190615b24565b60206040518083038186803b158015613e1e57600080fd5b505afa158015613e32573d6000803e3d6000fd5b505050506040513d601f19601f82011682018060405250810190613e569190615818565b9a50613e628a8361510a565b8973ffffffffffffffffffffffffffffffffffffffff166332f302e38e8e6040518363ffffffff1660e01b8152600401613e9d929190615b24565b602060405180830381600087803b158015613eb757600080fd5b505af1158015613ecb573d6000803e3d6000fd5b505050506040513d601f19601f82011682018060405250810190613eef9190615818565b50613ef98b6152cf565b8c73ffffffffffffffffffffffffffffffffffffffff167fbaff1e38597e99ccc6d6abf0e271a32ee3dc24114ea5bec3f05afd9bbb19f1f589848f8f604051613f459493929190615e85565b60405180910390a250505050505050505050915091565b613f6461486d565b73ffffffffffffffffffffffffffffffffffffffff166332fe7b266040518163ffffffff1660e01b815260040160206040518083038186803b158015613fa957600080fd5b505afa158015613fbd573d6000803e3d6000fd5b505050506040513d601f19601f82011682018060405250810190613fe191906156ad565b73ffffffffffffffffffffffffffffffffffffffff163373ffffffffffffffffffffffffffffffffffffffff1614806140c9575061401d61486d565b73ffffffffffffffffffffffffffffffffffffffff16632ab24e496040518163ffffffff1660e01b815260040160206040518083038186803b15801561406257600080fd5b505afa158015614076573d6000803e3d6000fd5b505050506040513d601f19601f8201168201806040525081019061409a91906156ad565b73ffffffffffffffffffffffffffffffffffffffff163373ffffffffffffffffffffffffffffffffffffffff16145b8061418357506140d761486d565b73ffffffffffffffffffffffffffffffffffffffff1663b99b0a0c6040518163ffffffff1660e01b815260040160206040518083038186803b15801561411c57600080fd5b505afa158015614130573d6000803e3d6000fd5b505050506040513d601f19601f8201168201806040525081019061415491906156ad565b73ffffffffffffffffffffffffffffffffffffffff163373ffffffffffffffffffffffffffffffffffffffff16145b61418c57600080fd5b61024481106141d0576040517f08c379a00000000000000000000000000000000000000000000000000000000081526004016141c790615cca565b60405180910390fd5b600660009054906101000a900460ff1615600660006101000a81548160ff02191690831515021790555080426142069190615f54565b60048190555050565b61421761486d565b73ffffffffffffffffffffffffffffffffffffffff166398fabd3a6040518163ffffffff1660e01b815260040160206040518083038186803b15801561425c57600080fd5b505afa158015614270573d6000803e3d6000fd5b505050506040513d601f19601f8201168201806040525081019061429491906156ad565b73ffffffffffffffffffffffffffffffffffffffff163373ffffffffffffffffffffffffffffffffffffffff16146142cb57600080fd5b7f000000000000000000000000000000000000000000000000000000000000000073ffffffffffffffffffffffffffffffffffffffff166370a08231306040518263ffffffff1660e01b81526004016143249190615b09565b60206040518083038186803b15801561433c57600080fd5b505afa158015614350573d6000803e3d6000fd5b505050506040513d601f19601f820116820180604052508101906143749190615818565b600f819055507f000000000000000000000000000000000000000000000000000000000000000073ffffffffffffffffffffffffffffffffffffffff166370a08231306040518263ffffffff1660e01b81526004016143d39190615b09565b60206040518083038186803b1580156143eb57600080fd5b505afa1580156143ff573d6000803e3d6000fd5b505050506040513d601f19601f820116820180604052508101906144239190615818565b601081905550565b600073ffffffffffffffffffffffffffffffffffffffff168373ffffffffffffffffffffffffffffffffffffffff16141561449b576040517f08c379a000000000000000000000000000000000000000000000000000000000815260040161449290615d8a565b60405180910390fd5b600073ffffffffffffffffffffffffffffffffffffffff168273ffffffffffffffffffffffffffffffffffffffff16141561450b576040517f08c379a000000000000000000000000000000000000000000000000000000000815260040161450290615c8a565b60405180910390fd5b80600e60008573ffffffffffffffffffffffffffffffffffffffff1673ffffffffffffffffffffffffffffffffffffffff16815260200190815260200160002060008473ffffffffffffffffffffffffffffffffffffffff1673ffffffffffffffffffffffffffffffffffffffff168152602001908152602001600020819055508173ffffffffffffffffffffffffffffffffffffffff168373ffffffffffffffffffffffffffffffffffffffff167f8c5be1e5ebec7d5bd14f71427d1e84f3dd0314c0f7b2291e5b200ac8c7c3b925836040516145e99190615daa565b60405180910390a3505050565b600073ffffffffffffffffffffffffffffffffffffffff168373ffffffffffffffffffffffffffffffffffffffff161415614666576040517f08c379a000000000000000000000000000000000000000000000000000000000815260040161465d90615d2a565b60405180910390fd5b600073ffffffffffffffffffffffffffffffffffffffff168273ffffffffffffffffffffffffffffffffffffffff1614156146d6576040517f08c379a00000000000000000000000000000000000000000000000000000000081526004016146cd90615c6a565b60405180910390fd5b6000600d60008573ffffffffffffffffffffffffffffffffffffffff1673ffffffffffffffffffffffffffffffffffffffff1681526020019081526020016000205490508181101561475d576040517f08c379a000000000000000000000000000000000000000000000000000000000815260040161475490615c0a565b60405180910390fd5b81816147699190616035565b600d60008673ffffffffffffffffffffffffffffffffffffffff1673ffffffffffffffffffffffffffffffffffffffff1681526020019081526020016000208190555081600d60008573ffffffffffffffffffffffffffffffffffffffff1673ffffffffffffffffffffffffffffffffffffffff16815260200190815260200160002060008282546147fb9190615f54565b925050819055508273ffffffffffffffffffffffffffffffffffffffff168473ffffffffffffffffffffffffffffffffffffffff167fddf252ad1be2c89b69c2b068fc378daa952ba7f163c4a11628f55a4df523b3ef8460405161485f9190615daa565b60405180910390a350505050565b60007f000000000000000000000000000000000000000000000000000000000000000073ffffffffffffffffffffffffffffffffffffffff166398fabd3a6040518163ffffffff1660e01b815260040160206040518083038186803b1580156148d557600080fd5b505afa1580156148e9573d6000803e3d6000fd5b505050506040513d601f19601f8201168201806040525081019061490d91906157c6565b905090565b6000807f000000000000000000000000000000000000000000000000000000000000000073ffffffffffffffffffffffffffffffffffffffff166370a08231306040518263ffffffff1660e01b815260040161496e9190615b09565b60206040518083038186803b15801561498657600080fd5b505afa15801561499a573d6000803e3d6000fd5b505050506040513d601f19601f820116820180604052508101906149be9190615818565b90506010548111156149df57601054816149d89190616035565b91506149e4565b600091505b5090565b600080600060105490506000600f5490506000614a0361486d565b73ffffffffffffffffffffffffffffffffffffffff16637b0e5c456040518163ffffffff1660e01b815260040160206040518083038186803b158015614a4857600080fd5b505afa158015614a5c573d6000803e3d6000fd5b505050506040513d601f19601f82011682018060405250810190614a8091906156ad565b90508073ffffffffffffffffffffffffffffffffffffffff1663701baaf38785856040518463ffffffff1660e01b8152600401614abf93929190615e4e565b60206040518083038186803b158015614ad757600080fd5b505afa158015614aeb573d6000803e3d6000fd5b505050506040513d601f19601f82011682018060405250810190614b0f9190615818565b94508073ffffffffffffffffffffffffffffffffffffffff1663896a708c8785856040518463ffffffff1660e01b8152600401614b4e93929190615e4e565b60206040518083038186803b158015614b6657600080fd5b505afa158015614b7a573d6000803e3d6000fd5b505050506040513d601f19601f82011682018060405250810190614b9e9190615818565b9350614bc08583614baf9190616035565b8785614bbb9190615f54565b615338565b614bc9846152cf565b505050915091565b6000807f000000000000000000000000000000000000000000000000000000000000000073ffffffffffffffffffffffffffffffffffffffff166370a08231306040518263ffffffff1660e01b8152600401614c2d9190615b09565b60206040518083038186803b158015614c4557600080fd5b505afa158015614c59573d6000803e3d6000fd5b505050506040513d601f19601f82011682018060405250810190614c7d9190615818565b9050600f54811115614c9e57600f5481614c979190616035565b9150614ca3565b600091505b5090565b6000806000600f549050600060105490506000614cc261486d565b73ffffffffffffffffffffffffffffffffffffffff16637b0e5c456040518163ffffffff1660e01b815260040160206040518083038186803b158015614d0757600080fd5b505afa158015614d1b573d6000803e3d6000fd5b505050506040513d601f19601f82011682018060405250810190614d3f91906156ad565b90508073ffffffffffffffffffffffffffffffffffffffff1663701baaf38785856040518463ffffffff1660e01b8152600401614d7e93929190615e4e565b60206040518083038186803b158015614d9657600080fd5b505afa158015614daa573d6000803e3d6000fd5b505050506040513d601f19601f82011682018060405250810190614dce9190615818565b945060008173ffffffffffffffffffffffffffffffffffffffff1663896a708c8886866040518463ffffffff1660e01b8152600401614e0f93929190615e4e565b60206040518083038186803b158015614e2757600080fd5b505afa158015614e3b573d6000803e3d6000fd5b505050506040513d601f19601f82011682018060405250810190614e5f9190615818565b90508173ffffffffffffffffffffffffffffffffffffffff1663c19387df7f0000000000000000000000000000000000000000000000000000000000000000836040518363ffffffff1660e01b8152600401614ebc929190615b24565b60206040518083038186803b158015614ed457600080fd5b505afa158015614ee8573d6000803e3d6000fd5b505050506040513d601f19601f82011682018060405250810190614f0c9190615818565b9450614f2e8785614f1d9190615f54565b8785614f299190616035565b615338565b614f37856152cf565b50505050915091565b600073ffffffffffffffffffffffffffffffffffffffff168273ffffffffffffffffffffffffffffffffffffffff161415614fb0576040517f08c379a0000000000000000000000000000000000000000000000000000000008152600401614fa790615b8a565b60405180910390fd5b6000600d60008473ffffffffffffffffffffffffffffffffffffffff1673ffffffffffffffffffffffffffffffffffffffff16815260200190815260200160002054905081811015615037576040517f08c379a000000000000000000000000000000000000000000000000000000000815260040161502e90615c0a565b60405180910390fd5b81816150439190616035565b600d60008573ffffffffffffffffffffffffffffffffffffffff1673ffffffffffffffffffffffffffffffffffffffff1681526020019081526020016000208190555081600c60008282546150989190616035565b92505081905550600073ffffffffffffffffffffffffffffffffffffffff168373ffffffffffffffffffffffffffffffffffffffff167fddf252ad1be2c89b69c2b068fc378daa952ba7f163c4a11628f55a4df523b3ef846040516150fd9190615daa565b60405180910390a3505050565b600073ffffffffffffffffffffffffffffffffffffffff168273ffffffffffffffffffffffffffffffffffffffff16141561517a576040517f08c379a000000000000000000000000000000000000000000000000000000000815260040161517190615b8a565b60405180910390fd5b80600c600082825461518c9190615f54565b9250508190555080600d60008473ffffffffffffffffffffffffffffffffffffffff1673ffffffffffffffffffffffffffffffffffffffff16815260200190815260200160002060008282546151e29190615f54565b925050819055508173ffffffffffffffffffffffffffffffffffffffff16600073ffffffffffffffffffffffffffffffffffffffff167fddf252ad1be2c89b69c2b068fc378daa952ba7f163c4a11628f55a4df523b3ef836040516152479190615daa565b60405180910390a35050565b81600f60008282546152659190615f54565b92505081905550806010600082825461527e9190615f54565b9250508190555061528d615352565b5050565b81600f60008282546152a39190616035565b9250508190555080601060008282546152bc9190616035565b925050819055506152cb615352565b5050565b600060115414156152e257426011819055505b62278d006011546152f39190615f54565b421161531257806012546153079190615f54565b601281905550615335565b4260118190555060125460138190555061532d601354615424565b806012819055505b50565b81600f819055508060108190555061534e615352565b5050565b600660009054906101000a900460ff16615422576000601054600f54600f5461537b9190615fdb565b6153859190615faa565b905060006003548211156153a857600354826153a19190616035565b90506153b9565b816003546153b69190616035565b90505b81612710826153c89190615fdb565b6153d29190615faa565b905060055481106153f9576001600660006101000a81548160ff0219169083151502179055505b60045442111561541f57610e10426154119190615f54565b600481905550816003819055505b50505b565b6000601480548060200260200160405190810160405280929190818152602001828054801561547257602002820191906000526020600020905b81548152602001906001019080831161545e575b5050505050905060028151141561556e57806001815181106154bd577f4e487b7100000000000000000000000000000000000000000000000000000000600052603260045260246000fd5b6020026020010151816000815181106154ff577f4e487b7100000000000000000000000000000000000000000000000000000000600052603260045260246000fd5b6020026020010181815250508181600181518110615546577f4e487b7100000000000000000000000000000000000000000000000000000000600052603260045260246000fd5b602002602001018181525050806014908051906020019061556892919061559c565b50615598565b60148290806001815401808255809150506001900390600052602060002001600090919091909150555b5050565b8280548282559060005260206000209081019282156155d8579160200282015b828111156155d75782518255916020019190600101906155bc565b5b5090506155e591906155e9565b5090565b5b808211156156025760008160009055506001016155ea565b5090565b6000813590506156158161648c565b92915050565b60008151905061562a8161648c565b92915050565b60008151905061563f816164a3565b92915050565b600081519050615654816164ba565b92915050565b600081359050615669816164d1565b92915050565b60008151905061567e816164d1565b92915050565b60006020828403121561569657600080fd5b60006156a484828501615606565b91505092915050565b6000602082840312156156bf57600080fd5b60006156cd8482850161561b565b91505092915050565b600080604083850312156156e957600080fd5b60006156f785828601615606565b925050602061570885828601615606565b9150509250929050565b60008060006060848603121561572757600080fd5b600061573586828701615606565b935050602061574686828701615606565b92505060406157578682870161565a565b9150509250925092565b6000806040838503121561577457600080fd5b600061578285828601615606565b92505060206157938582860161565a565b9150509250929050565b6000602082840312156157af57600080fd5b60006157bd84828501615630565b91505092915050565b6000602082840312156157d857600080fd5b60006157e684828501615645565b91505092915050565b60006020828403121561580157600080fd5b600061580f8482850161565a565b91505092915050565b60006020828403121561582a57600080fd5b60006158388482850161566f565b91505092915050565b61584a81616069565b82525050565b6158598161607b565b82525050565b600061586a82615f38565b6158748185615f43565b93506158848185602086016160d0565b61588d816161c2565b840191505092915050565b60006158a5600883615f43565b91506158b0826161d3565b602082019050919050565b60006158c8600483615f43565b91506158d3826161fc565b602082019050919050565b60006158eb600983615f43565b91506158f682616225565b602082019050919050565b600061590e600983615f43565b91506159198261624e565b602082019050919050565b6000615931600883615f43565b915061593c82616277565b602082019050919050565b6000615954600c83615f43565b915061595f826162a0565b602082019050919050565b6000615977600683615f43565b9150615982826162c9565b602082019050919050565b600061599a600583615f43565b91506159a5826162f2565b602082019050919050565b60006159bd600883615f43565b91506159c88261631b565b602082019050919050565b60006159e0600683615f43565b91506159eb82616344565b602082019050919050565b6000615a03600683615f43565b9150615a0e8261636d565b602082019050919050565b6000615a26600983615f43565b9150615a3182616396565b602082019050919050565b6000615a49600383615f43565b9150615a54826163bf565b602082019050919050565b6000615a6c600783615f43565b9150615a77826163e8565b602082019050919050565b6000615a8f600683615f43565b9150615a9a82616411565b602082019050919050565b6000615ab2600a83615f43565b9150615abd8261643a565b602082019050919050565b6000615ad5600683615f43565b9150615ae082616463565b602082019050919050565b615af4816160b9565b82525050565b615b03816160c3565b82525050565b6000602082019050615b1e6000830184615841565b92915050565b6000604082019050615b396000830185615841565b615b466020830184615aeb565b9392505050565b6000602082019050615b626000830184615850565b92915050565b60006020820190508181036000830152615b82818461585f565b905092915050565b60006020820190508181036000830152615ba381615898565b9050919050565b60006020820190508181036000830152615bc3816158bb565b9050919050565b60006020820190508181036000830152615be3816158de565b9050919050565b60006020820190508181036000830152615c0381615901565b9050919050565b60006020820190508181036000830152615c2381615924565b9050919050565b60006020820190508181036000830152615c4381615947565b9050919050565b60006020820190508181036000830152615c638161596a565b9050919050565b60006020820190508181036000830152615c838161598d565b9050919050565b60006020820190508181036000830152615ca3816159b0565b9050919050565b60006020820190508181036000830152615cc3816159d3565b9050919050565b60006020820190508181036000830152615ce3816159f6565b9050919050565b60006020820190508181036000830152615d0381615a19565b9050919050565b60006020820190508181036000830152615d2381615a3c565b9050919050565b60006020820190508181036000830152615d4381615a5f565b9050919050565b60006020820190508181036000830152615d6381615a82565b9050919050565b60006020820190508181036000830152615d8381615aa5565b9050919050565b60006020820190508181036000830152615da381615ac8565b9050919050565b6000602082019050615dbf6000830184615aeb565b92915050565b6000604082019050615dda6000830185615aeb565b615de76020830184615841565b9392505050565b6000606082019050615e036000830186615aeb565b615e106020830185615841565b615e1d6040830184615841565b949350505050565b6000604082019050615e3a6000830185615aeb565b615e476020830184615aeb565b9392505050565b6000606082019050615e636000830186615aeb565b615e706020830185615aeb565b615e7d6040830184615aeb565b949350505050565b6000608082019050615e9a6000830187615aeb565b615ea76020830186615aeb565b615eb46040830185615aeb565b615ec16060830184615aeb565b95945050505050565b600060a082019050615edf6000830188615aeb565b615eec6020830187615aeb565b615ef96040830186615aeb565b615f066060830185615aeb565b615f136080830184615aeb565b9695505050505050565b6000602082019050615f326000830184615afa565b92915050565b600081519050919050565b600082825260208201905092915050565b6000615f5f826160b9565b9150615f6a836160b9565b9250827fffffffffffffffffffffffffffffffffffffffffffffffffffffffffffffffff03821115615f9f57615f9e616135565b5b828201905092915050565b6000615fb5826160b9565b9150615fc0836160b9565b925082615fd057615fcf616164565b5b828204905092915050565b6000615fe6826160b9565b9150615ff1836160b9565b9250817fffffffffffffffffffffffffffffffffffffffffffffffffffffffffffffffff048311821515161561602a57616029616135565b5b828202905092915050565b6000616040826160b9565b915061604b836160b9565b92508282101561605e5761605d616135565b5b828203905092915050565b600061607482616099565b9050919050565b60008115159050919050565b600061609282616069565b9050919050565b600073ffffffffffffffffffffffffffffffffffffffff82169050919050565b6000819050919050565b600060ff82169050919050565b60005b838110156160ee5780820151818401526020810190506160d3565b838111156160fd576000848401525b50505050565b6000600282049050600182168061611b57607f821691505b6020821081141561612f5761612e616193565b5b50919050565b7f4e487b7100000000000000000000000000000000000000000000000000000000600052601160045260246000fd5b7f4e487b7100000000000000000000000000000000000000000000000000000000600052601260045260246000fd5b7f4e487b7100000000000000000000000000000000000000000000000000000000600052602260045260246000fd5b6000601f19601f8301169050919050565b7f216163636f756e74000000000000000000000000000000000000000000000000600082015250565b7f214d415800000000000000000000000000000000000000000000000000000000600082015250565b7f21617070726f76616c0000000000000000000000000000000000000000000000600082015250565b7f2142616c616e6365640000000000000000000000000000000000000000000000600082015250565b7f2162616c616e6365000000000000000000000000000000000000000000000000600082015250565b7f21424153457c7c544f4b454e0000000000000000000000000000000000000000600082015250565b7f2153594e54480000000000000000000000000000000000000000000000000000600082015250565b7f214255524e000000000000000000000000000000000000000000000000000000600082015250565b7f217370656e646572000000000000000000000000000000000000000000000000600082015250565b7f2173796e74680000000000000000000000000000000000000000000000000000600082015250565b7f2156414c49440000000000000000000000000000000000000000000000000000600082015250565b7f217472616e736665720000000000000000000000000000000000000000000000600082015250565b7f5254430000000000000000000000000000000000000000000000000000000000600082015250565b7f2173656e64657200000000000000000000000000000000000000000000000000600082015250565b7f4341505045440000000000000000000000000000000000000000000000000000600082015250565b7f21494e4954494154454400000000000000000000000000000000000000000000600082015250565b7f216f776e65720000000000000000000000000000000000000000000000000000600082015250565b61649581616069565b81146164a057600080fd5b50565b6164ac8161607b565b81146164b757600080fd5b50565b6164c381616087565b81146164ce57600080fd5b50565b6164da816160b9565b81146164e557600080fd5b5056fea26469706673582212207d38ef1591215a95755403be76dab46292a0ae474f233f8c27cbe69c4fd7f38864736f6c63430008030033",
  "linkReferences": {},
  "deployedLinkReferences": {}
}