{
  "_format": "hh-sol-artifact-1",
  "contractName": "Pool",
  "sourceName": "contracts/Pool.sol",
  "abi": [
    {
      "inputs": [
        {
          "internalType": "address",
          "name": "_base",
          "type": "address"
        },
        {
          "internalType": "address",
          "name": "_token",
          "type": "address"
        }
      ],
      "stateMutability": "nonpayable",
      "type": "constructor"
    },
    {
      "anonymous": false,
      "inputs": [
        {
          "indexed": true,
          "internalType": "address",
          "name": "member",
          "type": "address"
        },
        {
          "indexed": false,
          "internalType": "uint256",
          "name": "inputBase",
          "type": "uint256"
        },
        {
          "indexed": false,
          "internalType": "uint256",
          "name": "inputToken",
          "type": "uint256"
        },
        {
          "indexed": false,
          "internalType": "uint256",
          "name": "unitsIssued",
          "type": "uint256"
        }
      ],
      "name": "AddLiquidity",
      "type": "event"
    },
    {
      "anonymous": false,
      "inputs": [
        {
          "indexed": true,
          "internalType": "address",
          "name": "owner",
          "type": "address"
        },
        {
          "indexed": true,
          "internalType": "address",
          "name": "spender",
          "type": "address"
        },
        {
          "indexed": false,
          "internalType": "uint256",
          "name": "value",
          "type": "uint256"
        }
      ],
      "name": "Approval",
      "type": "event"
    },
    {
      "anonymous": false,
      "inputs": [
        {
          "indexed": true,
          "internalType": "address",
          "name": "member",
          "type": "address"
        },
        {
          "indexed": false,
          "internalType": "uint256",
          "name": "baseAmount",
          "type": "uint256"
        },
        {
          "indexed": false,
          "internalType": "uint256",
          "name": "liqUnits",
          "type": "uint256"
        },
        {
          "indexed": false,
          "internalType": "uint256",
          "name": "synthAmount",
          "type": "uint256"
        },
        {
          "indexed": false,
          "internalType": "uint256",
          "name": "fee",
          "type": "uint256"
        }
      ],
      "name": "BurnSynth",
      "type": "event"
    },
    {
      "anonymous": false,
      "inputs": [
        {
          "indexed": true,
          "internalType": "address",
          "name": "member",
          "type": "address"
        },
        {
          "indexed": false,
          "internalType": "uint256",
          "name": "baseAmount",
          "type": "uint256"
        },
        {
          "indexed": false,
          "internalType": "uint256",
          "name": "liqUnits",
          "type": "uint256"
        },
        {
          "indexed": false,
          "internalType": "uint256",
          "name": "synthAmount",
          "type": "uint256"
        },
        {
          "indexed": false,
          "internalType": "uint256",
          "name": "fee",
          "type": "uint256"
        }
      ],
      "name": "MintSynth",
      "type": "event"
    },
    {
      "anonymous": false,
      "inputs": [
        {
          "indexed": true,
          "internalType": "address",
          "name": "member",
          "type": "address"
        },
        {
          "indexed": false,
          "internalType": "uint256",
          "name": "outputBase",
          "type": "uint256"
        },
        {
          "indexed": false,
          "internalType": "uint256",
          "name": "outputToken",
          "type": "uint256"
        },
        {
          "indexed": false,
          "internalType": "uint256",
          "name": "unitsClaimed",
          "type": "uint256"
        }
      ],
      "name": "RemoveLiquidity",
      "type": "event"
    },
    {
      "anonymous": false,
      "inputs": [
        {
          "indexed": true,
          "internalType": "address",
          "name": "tokenFrom",
          "type": "address"
        },
        {
          "indexed": true,
          "internalType": "address",
          "name": "tokenTo",
          "type": "address"
        },
        {
          "indexed": true,
          "internalType": "address",
          "name": "recipient",
          "type": "address"
        },
        {
          "indexed": false,
          "internalType": "uint256",
          "name": "inputAmount",
          "type": "uint256"
        },
        {
          "indexed": false,
          "internalType": "uint256",
          "name": "outputAmount",
          "type": "uint256"
        },
        {
          "indexed": false,
          "internalType": "uint256",
          "name": "fee",
          "type": "uint256"
        }
      ],
      "name": "Swapped",
      "type": "event"
    },
    {
      "anonymous": false,
      "inputs": [
        {
          "indexed": true,
          "internalType": "address",
          "name": "from",
          "type": "address"
        },
        {
          "indexed": true,
          "internalType": "address",
          "name": "to",
          "type": "address"
        },
        {
          "indexed": false,
          "internalType": "uint256",
          "name": "value",
          "type": "uint256"
        }
      ],
      "name": "Transfer",
      "type": "event"
    },
    {
      "inputs": [],
      "name": "BASE",
      "outputs": [
        {
          "internalType": "address",
          "name": "",
          "type": "address"
        }
      ],
      "stateMutability": "view",
      "type": "function"
    },
    {
      "inputs": [
        {
          "internalType": "uint256",
          "name": "_newRTC",
          "type": "uint256"
        }
      ],
      "name": "RTC",
      "outputs": [],
      "stateMutability": "nonpayable",
      "type": "function"
    },
    {
      "inputs": [],
      "name": "SYNTH",
      "outputs": [
        {
          "internalType": "address",
          "name": "",
          "type": "address"
        }
      ],
      "stateMutability": "view",
      "type": "function"
    },
    {
      "inputs": [],
      "name": "TOKEN",
      "outputs": [
        {
          "internalType": "address",
          "name": "",
          "type": "address"
        }
      ],
      "stateMutability": "view",
      "type": "function"
    },
    {
      "inputs": [
        {
          "internalType": "address",
          "name": "member",
          "type": "address"
        }
      ],
      "name": "addForMember",
      "outputs": [
        {
          "internalType": "uint256",
          "name": "liquidityUnits",
          "type": "uint256"
        }
      ],
      "stateMutability": "nonpayable",
      "type": "function"
    },
    {
      "inputs": [
        {
          "internalType": "address",
          "name": "owner",
          "type": "address"
        },
        {
          "internalType": "address",
          "name": "spender",
          "type": "address"
        }
      ],
      "name": "allowance",
      "outputs": [
        {
          "internalType": "uint256",
          "name": "",
          "type": "uint256"
        }
      ],
      "stateMutability": "view",
      "type": "function"
    },
    {
      "inputs": [
        {
          "internalType": "address",
          "name": "spender",
          "type": "address"
        },
        {
          "internalType": "uint256",
          "name": "amount",
          "type": "uint256"
        }
      ],
      "name": "approve",
      "outputs": [
        {
          "internalType": "bool",
          "name": "",
          "type": "bool"
        }
      ],
      "stateMutability": "nonpayable",
      "type": "function"
    },
    {
      "inputs": [
        {
          "internalType": "address",
          "name": "account",
          "type": "address"
        }
      ],
      "name": "balanceOf",
      "outputs": [
        {
          "internalType": "uint256",
          "name": "",
          "type": "uint256"
        }
      ],
      "stateMutability": "view",
      "type": "function"
    },
    {
      "inputs": [],
      "name": "baseAmount",
      "outputs": [
        {
          "internalType": "uint256",
          "name": "",
          "type": "uint256"
        }
      ],
      "stateMutability": "view",
      "type": "function"
    },
    {
      "inputs": [],
      "name": "baseCap",
      "outputs": [
        {
          "internalType": "uint256",
          "name": "",
          "type": "uint256"
        }
      ],
      "stateMutability": "view",
      "type": "function"
    },
    {
      "inputs": [
        {
          "internalType": "uint256",
          "name": "amount",
          "type": "uint256"
        }
      ],
      "name": "burn",
      "outputs": [],
      "stateMutability": "nonpayable",
      "type": "function"
    },
    {
      "inputs": [
        {
          "internalType": "address",
          "name": "member",
          "type": "address"
        }
      ],
      "name": "burnSynth",
      "outputs": [
        {
          "internalType": "uint256",
          "name": "outputAmount",
          "type": "uint256"
        },
        {
          "internalType": "uint256",
          "name": "fee",
          "type": "uint256"
        }
      ],
      "stateMutability": "nonpayable",
      "type": "function"
    },
    {
      "inputs": [],
      "name": "decimals",
      "outputs": [
        {
          "internalType": "uint8",
          "name": "",
          "type": "uint8"
        }
      ],
      "stateMutability": "view",
      "type": "function"
    },
    {
      "inputs": [
        {
          "internalType": "address",
          "name": "spender",
          "type": "address"
        },
        {
          "internalType": "uint256",
          "name": "subtractedValue",
          "type": "uint256"
        }
      ],
      "name": "decreaseAllowance",
      "outputs": [
        {
          "internalType": "bool",
          "name": "",
          "type": "bool"
        }
      ],
      "stateMutability": "nonpayable",
      "type": "function"
    },
    {
      "inputs": [
        {
          "internalType": "uint256",
          "name": "newPeriod",
          "type": "uint256"
        }
      ],
      "name": "flipFreeze",
      "outputs": [],
      "stateMutability": "nonpayable",
      "type": "function"
    },
    {
      "inputs": [
        {
          "internalType": "address",
          "name": "synth",
          "type": "address"
        }
      ],
      "name": "flipMinting",
      "outputs": [],
      "stateMutability": "nonpayable",
      "type": "function"
    },
    {
      "inputs": [],
      "name": "freeze",
      "outputs": [
        {
          "internalType": "bool",
          "name": "",
          "type": "bool"
        }
      ],
      "stateMutability": "view",
      "type": "function"
    },
    {
      "inputs": [],
      "name": "genesis",
      "outputs": [
        {
          "internalType": "uint256",
          "name": "",
          "type": "uint256"
        }
      ],
      "stateMutability": "view",
      "type": "function"
    },
    {
      "inputs": [
        {
          "internalType": "address",
          "name": "spender",
          "type": "address"
        },
        {
          "internalType": "uint256",
          "name": "addedValue",
          "type": "uint256"
        }
      ],
      "name": "increaseAllowance",
      "outputs": [
        {
          "internalType": "bool",
          "name": "",
          "type": "bool"
        }
      ],
      "stateMutability": "nonpayable",
      "type": "function"
    },
    {
      "inputs": [],
      "name": "initialPeriod",
      "outputs": [
        {
          "internalType": "uint256",
          "name": "",
          "type": "uint256"
        }
      ],
      "stateMutability": "view",
      "type": "function"
    },
    {
      "inputs": [],
      "name": "initiationPeriod",
      "outputs": [
        {
          "internalType": "uint256",
          "name": "",
          "type": "uint256"
        }
      ],
      "stateMutability": "view",
      "type": "function"
    },
    {
      "inputs": [],
      "name": "lastMonth",
      "outputs": [
        {
          "internalType": "uint256",
          "name": "",
          "type": "uint256"
        }
      ],
      "stateMutability": "view",
      "type": "function"
    },
    {
      "inputs": [],
      "name": "lastStirred",
      "outputs": [
        {
          "internalType": "uint256",
          "name": "",
          "type": "uint256"
        }
      ],
      "stateMutability": "view",
      "type": "function"
    },
    {
      "inputs": [],
      "name": "map30DPoolRevenue",
      "outputs": [
        {
          "internalType": "uint256",
          "name": "",
          "type": "uint256"
        }
      ],
      "stateMutability": "view",
      "type": "function"
    },
    {
      "inputs": [],
      "name": "mapPast30DPoolRevenue",
      "outputs": [
        {
          "internalType": "uint256",
          "name": "",
          "type": "uint256"
        }
      ],
      "stateMutability": "view",
      "type": "function"
    },
    {
      "inputs": [],
      "name": "minSynth",
      "outputs": [
        {
          "internalType": "uint256",
          "name": "",
          "type": "uint256"
        }
      ],
      "stateMutability": "view",
      "type": "function"
    },
    {
      "inputs": [
        {
          "internalType": "uint256",
          "name": "_newMinimum",
          "type": "uint256"
        }
      ],
      "name": "minimumSynth",
      "outputs": [],
      "stateMutability": "nonpayable",
      "type": "function"
    },
    {
      "inputs": [
        {
          "internalType": "address",
          "name": "member",
          "type": "address"
        }
      ],
      "name": "mintSynth",
      "outputs": [
        {
          "internalType": "uint256",
          "name": "outputAmount",
          "type": "uint256"
        },
        {
          "internalType": "uint256",
          "name": "fee",
          "type": "uint256"
        }
      ],
      "stateMutability": "nonpayable",
      "type": "function"
    },
    {
      "inputs": [
        {
          "internalType": "address",
          "name": "",
          "type": "address"
        }
      ],
      "name": "minting",
      "outputs": [
        {
          "internalType": "bool",
          "name": "",
          "type": "bool"
        }
      ],
      "stateMutability": "view",
      "type": "function"
    },
    {
      "inputs": [],
      "name": "name",
      "outputs": [
        {
          "internalType": "string",
          "name": "",
          "type": "string"
        }
      ],
      "stateMutability": "view",
      "type": "function"
    },
    {
      "inputs": [],
      "name": "oneWeek",
      "outputs": [
        {
          "internalType": "uint256",
          "name": "",
          "type": "uint256"
        }
      ],
      "stateMutability": "view",
      "type": "function"
    },
    {
      "inputs": [
        {
          "internalType": "address",
          "name": "member",
          "type": "address"
        }
      ],
      "name": "removeForMember",
      "outputs": [
        {
          "internalType": "uint256",
          "name": "outputBase",
          "type": "uint256"
        },
        {
          "internalType": "uint256",
          "name": "outputToken",
          "type": "uint256"
        }
      ],
      "stateMutability": "nonpayable",
      "type": "function"
    },
    {
      "inputs": [
        {
          "internalType": "uint256",
          "name": "",
          "type": "uint256"
        }
      ],
      "name": "revenueArray",
      "outputs": [
        {
          "internalType": "uint256",
          "name": "",
          "type": "uint256"
        }
      ],
      "stateMutability": "view",
      "type": "function"
    },
    {
      "inputs": [
        {
          "internalType": "uint256",
          "name": "_newFreezePoint",
          "type": "uint256"
        }
      ],
      "name": "setFreezePoint",
      "outputs": [],
      "stateMutability": "nonpayable",
      "type": "function"
    },
    {
      "inputs": [
        {
          "internalType": "uint256",
          "name": "newInitiation",
          "type": "uint256"
        }
      ],
      "name": "setInitiation",
      "outputs": [],
      "stateMutability": "nonpayable",
      "type": "function"
    },
    {
      "inputs": [
        {
          "internalType": "uint256",
          "name": "_synthCap",
          "type": "uint256"
        }
      ],
      "name": "setSynthCap",
      "outputs": [],
      "stateMutability": "nonpayable",
      "type": "function"
    },
    {
      "inputs": [
        {
          "internalType": "address",
          "name": "synth",
          "type": "address"
        }
      ],
      "name": "stirCauldron",
      "outputs": [
        {
          "internalType": "uint256",
          "name": "steamedSynths",
          "type": "uint256"
        }
      ],
      "stateMutability": "nonpayable",
      "type": "function"
    },
    {
      "inputs": [],
      "name": "stirRate",
      "outputs": [
        {
          "internalType": "uint256",
          "name": "",
          "type": "uint256"
        }
      ],
      "stateMutability": "view",
      "type": "function"
    },
    {
      "inputs": [],
      "name": "stirStamp",
      "outputs": [
        {
          "internalType": "uint256",
          "name": "",
          "type": "uint256"
        }
      ],
      "stateMutability": "view",
      "type": "function"
    },
    {
      "inputs": [
        {
          "internalType": "address",
          "name": "token",
          "type": "address"
        },
        {
          "internalType": "address",
          "name": "member",
          "type": "address"
        }
      ],
      "name": "swapTo",
      "outputs": [
        {
          "internalType": "uint256",
          "name": "outputAmount",
          "type": "uint256"
        },
        {
          "internalType": "uint256",
          "name": "fee",
          "type": "uint256"
        }
      ],
      "stateMutability": "nonpayable",
      "type": "function"
    },
    {
      "inputs": [],
      "name": "symbol",
      "outputs": [
        {
          "internalType": "string",
          "name": "",
          "type": "string"
        }
      ],
      "stateMutability": "view",
      "type": "function"
    },
    {
      "inputs": [],
      "name": "sync",
      "outputs": [],
      "stateMutability": "nonpayable",
      "type": "function"
    },
    {
      "inputs": [],
      "name": "synthCap",
      "outputs": [
        {
          "internalType": "uint256",
          "name": "",
          "type": "uint256"
        }
      ],
      "stateMutability": "view",
      "type": "function"
    },
    {
      "inputs": [],
      "name": "tokenAmount",
      "outputs": [
        {
          "internalType": "uint256",
          "name": "",
          "type": "uint256"
        }
      ],
      "stateMutability": "view",
      "type": "function"
    },
    {
      "inputs": [],
      "name": "totalSupply",
      "outputs": [
        {
          "internalType": "uint256",
          "name": "",
          "type": "uint256"
        }
      ],
      "stateMutability": "view",
      "type": "function"
    },
    {
      "inputs": [
        {
          "internalType": "address",
          "name": "recipient",
          "type": "address"
        },
        {
          "internalType": "uint256",
          "name": "amount",
          "type": "uint256"
        }
      ],
      "name": "transfer",
      "outputs": [
        {
          "internalType": "bool",
          "name": "",
          "type": "bool"
        }
      ],
      "stateMutability": "nonpayable",
      "type": "function"
    },
    {
      "inputs": [
        {
          "internalType": "address",
          "name": "sender",
          "type": "address"
        },
        {
          "internalType": "address",
          "name": "recipient",
          "type": "address"
        },
        {
          "internalType": "uint256",
          "name": "amount",
          "type": "uint256"
        }
      ],
      "name": "transferFrom",
      "outputs": [
        {
          "internalType": "bool",
          "name": "",
          "type": "bool"
        }
      ],
      "stateMutability": "nonpayable",
      "type": "function"
    }
  ],
  "bytecode": "0x6101006040523480156200001257600080fd5b50604051620076b2380380620076b283398181016040528101906200003891906200053d565b6001600081905550600073ffffffffffffffffffffffffffffffffffffffff168273ffffffffffffffffffffffffffffffffffffffff161415620000b3576040517f08c379a0000000000000000000000000000000000000000000000000000000008152600401620000aa9062000649565b60405180910390fd5b600073ffffffffffffffffffffffffffffffffffffffff168173ffffffffffffffffffffffffffffffffffffffff16141562000126576040517f08c379a00000000000000000000000000000000000000000000000000000000081526004016200011d9062000649565b60405180910390fd5b8173ffffffffffffffffffffffffffffffffffffffff1660808173ffffffffffffffffffffffffffffffffffffffff1660601b815250508073ffffffffffffffffffffffffffffffffffffffff1660a08173ffffffffffffffffffffffffffffffffffffffff1660601b8152505060006040518060400160405280601481526020017f2d5370617274616e50726f746f636f6c506f6f6c000000000000000000000000815250905060006040518060400160405280600481526020017f2d5350500000000000000000000000000000000000000000000000000000000081525090508273ffffffffffffffffffffffffffffffffffffffff166306fdde036040518163ffffffff1660e01b815260040160006040518083038186803b1580156200024f57600080fd5b505afa15801562000264573d6000803e3d6000fd5b505050506040513d6000823e3d601f19601f820116820180604052508101906200028f91906200057e565b82604051602001620002a392919062000621565b604051602081830303815290604052600e9080519060200190620002c992919062000404565b508273ffffffffffffffffffffffffffffffffffffffff166395d89b416040518163ffffffff1660e01b815260040160006040518083038186803b1580156200031157600080fd5b505afa15801562000326573d6000803e3d6000fd5b505050506040513d6000823e3d601f19601f820116820180604052508101906200035191906200057e565b816040516020016200036592919062000621565b604051602081830303815290604052600f90805190602001906200038b92919062000404565b50601260ff1660c08160ff1660f81b815250504260e081815250506109c4600181905550610bb860058190555069152d02c7e14af68000006002819055504260048190555060016007819055506101f4600a819055506000600b81905550603c600881905550613840600c819055505050505062000879565b82805462000412906200075b565b90600052602060002090601f01602090048101928262000436576000855562000482565b82601f106200045157805160ff191683800117855562000482565b8280016001018555821562000482579182015b828111156200048157825182559160200191906001019062000464565b5b50905062000491919062000495565b5090565b5b80821115620004b057600081600090555060010162000496565b5090565b6000620004cb620004c58462000694565b6200066b565b905082815260208101848484011115620004e457600080fd5b620004f184828562000725565b509392505050565b6000815190506200050a816200085f565b92915050565b600082601f8301126200052257600080fd5b815162000534848260208601620004b4565b91505092915050565b600080604083850312156200055157600080fd5b60006200056185828601620004f9565b92505060206200057485828601620004f9565b9150509250929050565b6000602082840312156200059157600080fd5b600082015167ffffffffffffffff811115620005ac57600080fd5b620005ba8482850162000510565b91505092915050565b6000620005d082620006ca565b620005dc8185620006e6565b9350620005ee81856020860162000725565b80840191505092915050565b600062000609600583620006d5565b9150620006168262000836565b602082019050919050565b60006200062f8285620005c3565b91506200063d8284620005c3565b91508190509392505050565b600060208201905081810360008301526200066481620005fa565b9050919050565b6000620006776200068a565b905062000685828262000791565b919050565b6000604051905090565b600067ffffffffffffffff821115620006b257620006b1620007f6565b5b620006bd8262000825565b9050602081019050919050565b600081519050919050565b600082825260208201905092915050565b600081905092915050565b6000620006fe8262000705565b9050919050565b600073ffffffffffffffffffffffffffffffffffffffff82169050919050565b60005b838110156200074557808201518184015260208101905062000728565b8381111562000755576000848401525b50505050565b600060028204905060018216806200077457607f821691505b602082108114156200078b576200078a620007c7565b5b50919050565b6200079c8262000825565b810181811067ffffffffffffffff82111715620007be57620007bd620007f6565b5b80604052505050565b7f4e487b7100000000000000000000000000000000000000000000000000000000600052602260045260246000fd5b7f4e487b7100000000000000000000000000000000000000000000000000000000600052604160045260246000fd5b6000601f19601f8301169050919050565b7f215a45524f000000000000000000000000000000000000000000000000000000600082015250565b6200086a81620006f1565b81146200087657600080fd5b50565b60805160601c60a05160601c60c05160f81c60e051616d6a620009486000396000818161283d0152612d2d0152600061128f015260008181610d4101528181610e2701528181611f5501528181612efb0152818161308d01528181613a0e0152818161422001528181614ab80152818161505301526155bb015260008181610cec01528181610dd301528181610e6a015281816123d201528181612e4c01528181612fa10152818161379701528181613aa001528181614a0901528181614fad01526153120152616d6a6000f3fe608060405234801561001057600080fd5b50600436106102945760003560e01c806370f93cdf11610167578063bc5dedc9116100ce578063ec342ad011610087578063ec342ad014610846578063eec7faa114610864578063f0337cdc14610882578063f1bbdef2146108b2578063fb195363146108e3578063fff6cae9146108ff57610294565b8063bc5dedc91461075a578063cbbcf8021461078b578063d98c4a46146107a9578063dbfc5a04146107c7578063dd62ed3e146107f8578063e1eddde31461082857610294565b806399d786ca1161012057806399d786ca146106865780639d3f87e2146106a4578063a457c2d7146106c0578063a7f0b3de146106f0578063a9059cbb1461070e578063ba8e3edd1461073e57610294565b806370f93cdf146105c2578063752d7793146105e05780637ec3eae5146105fe57806382bfefc81461061a57806386d5f6181461063857806395d89b411461066857610294565b8063395093511161020b57806350e04598116101c457806350e04598146104d857806350f9844a146105085780635f83e5d51461052657806361cc24bb1461054457806362a5af3b1461057457806370a082311461059257610294565b8063395093511461041857806342966c681461044857806346c6784314610464578063474e7302146104825780634864d1401461049e5780635022989b146104bc57610294565b806323b872dd1161025d57806323b872dd146103415780632783e4a91461037157806328ea0adc146103a2578063308aca1d146103c0578063313ce567146103dc57806333ca78e4146103fa57610294565b8062aea7451461029957806306fdde03146102b7578063095ea7b3146102d557806314c025c61461030557806318160ddd14610323575b600080fd5b6102a1610909565b6040516102ae91906165cd565b60405180910390f35b6102bf61090f565b6040516102cc919061636b565b60405180910390f35b6102ef60048036038101906102ea9190615f18565b6109a1565b6040516102fc9190616350565b60405180910390f35b61030d6109b8565b60405161031a91906165cd565b60405180910390f35b61032b6109be565b60405161033891906165cd565b60405180910390f35b61035b60048036038101906103569190615ec9565b6109c4565b6040516103689190616350565b60405180910390f35b61038b60048036038101906103869190615e8d565b610ab7565b604051610399929190616648565b60405180910390f35b6103aa610ffc565b6040516103b791906165cd565b60405180910390f35b6103da60048036038101906103d59190615fa6565b611002565b005b6103e461128d565b6040516103f19190616740565b60405180910390f35b6104026112b1565b60405161040f91906165cd565b60405180910390f35b610432600480360381019061042d9190615f18565b6112b7565b60405161043f9190616350565b60405180910390f35b610462600480360381019061045d9190615fa6565b611355565b005b61046c6114f4565b60405161047991906165cd565b60405180910390f35b61049c60048036038101906104979190615fa6565b6114fa565b005b6104a6611779565b6040516104b391906165cd565b60405180910390f35b6104d660048036038101906104d19190615e3b565b61177f565b005b6104f260048036038101906104ed9190615e3b565b611a56565b6040516104ff9190616350565b60405180910390f35b610510611a76565b60405161051d91906165cd565b60405180910390f35b61052e611a7c565b60405161053b91906165cd565b60405180910390f35b61055e60048036038101906105599190615e3b565b611a82565b60405161056b91906165cd565b60405180910390f35b61057c611c61565b6040516105899190616350565b60405180910390f35b6105ac60048036038101906105a79190615e3b565b611c74565b6040516105b991906165cd565b60405180910390f35b6105ca611cbd565b6040516105d791906165cd565b60405180910390f35b6105e8611cc3565b6040516105f591906165cd565b60405180910390f35b61061860048036038101906106139190615fa6565b611cc9565b005b610622611f53565b60405161062f91906162e3565b60405180910390f35b610652600480360381019061064d9190615e3b565b611f77565b60405161065f91906165cd565b60405180910390f35b610670612483565b60405161067d919061636b565b60405180910390f35b61068e612515565b60405161069b91906165cd565b60405180910390f35b6106be60048036038101906106b99190615fa6565b61251b565b005b6106da60048036038101906106d59190615f18565b612755565b6040516106e79190616350565b60405180910390f35b6106f861283b565b60405161070591906165cd565b60405180910390f35b61072860048036038101906107239190615f18565b61285f565b6040516107359190616350565b60405180910390f35b61075860048036038101906107539190615fa6565b612876565b005b610774600480360381019061076f9190615e3b565b612af5565b604051610782929190616648565b60405180910390f35b6107936131d0565b6040516107a091906165cd565b60405180910390f35b6107b16131d6565b6040516107be91906165cd565b60405180910390f35b6107e160048036038101906107dc9190615e3b565b6131dc565b6040516107ef929190616648565b60405180910390f35b610812600480360381019061080d9190615e8d565b6138e3565b60405161081f91906165cd565b60405180910390f35b61083061396a565b60405161083d91906162e3565b60405180910390f35b61084e613a9e565b60405161085b91906162e3565b60405180910390f35b61086c613ac2565b60405161087991906165cd565b60405180910390f35b61089c60048036038101906108979190615fa6565b613ac8565b6040516108a991906165cd565b60405180910390f35b6108cc60048036038101906108c79190615e3b565b613aec565b6040516108da929190616648565b60405180910390f35b6108fd60048036038101906108f89190615fa6565b614524565b005b6109076147d7565b005b600b5481565b6060600e805461091e90616926565b80601f016020809104026020016040519081016040528092919081815260200182805461094a90616926565b80156109975780601f1061096c57610100808354040283529160200191610997565b820191906000526020600020905b81548152906001019060200180831161097a57829003601f168201915b5050505050905090565b60006109ae338484614b67565b6001905092915050565b600a5481565b60105481565b60006109d1848484614d32565b6000601260008673ffffffffffffffffffffffffffffffffffffffff1673ffffffffffffffffffffffffffffffffffffffff16815260200190815260200160002060003373ffffffffffffffffffffffffffffffffffffffff1673ffffffffffffffffffffffffffffffffffffffff16815260200190815260200160002054905082811015610a95576040517f08c379a0000000000000000000000000000000000000000000000000000000008152600401610a8c906163cd565b60405180910390fd5b610aab85338584610aa69190616858565b614b67565b60019150509392505050565b600080610ac2614fa9565b73ffffffffffffffffffffffffffffffffffffffff166332fe7b266040518163ffffffff1660e01b815260040160206040518083038186803b158015610b0757600080fd5b505afa158015610b1b573d6000803e3d6000fd5b505050506040513d601f19601f82011682018060405250810190610b3f9190615e64565b73ffffffffffffffffffffffffffffffffffffffff163373ffffffffffffffffffffffffffffffffffffffff161480610c275750610b7b614fa9565b73ffffffffffffffffffffffffffffffffffffffff16632ab24e496040518163ffffffff1660e01b815260040160206040518083038186803b158015610bc057600080fd5b505afa158015610bd4573d6000803e3d6000fd5b505050506040513d601f19601f82011682018060405250810190610bf89190615e64565b73ffffffffffffffffffffffffffffffffffffffff163373ffffffffffffffffffffffffffffffffffffffff16145b80610ce15750610c35614fa9565b73ffffffffffffffffffffffffffffffffffffffff1663b99b0a0c6040518163ffffffff1660e01b815260040160206040518083038186803b158015610c7a57600080fd5b505afa158015610c8e573d6000803e3d6000fd5b505050506040513d601f19601f82011682018060405250810190610cb29190615e64565b73ffffffffffffffffffffffffffffffffffffffff163373ffffffffffffffffffffffffffffffffffffffff16145b610cea57600080fd5b7f000000000000000000000000000000000000000000000000000000000000000073ffffffffffffffffffffffffffffffffffffffff168473ffffffffffffffffffffffffffffffffffffffff161480610d8f57507f000000000000000000000000000000000000000000000000000000000000000073ffffffffffffffffffffffffffffffffffffffff168473ffffffffffffffffffffffffffffffffffffffff16145b610dce576040517f08c379a0000000000000000000000000000000000000000000000000000000008152600401610dc59061642d565b60405180910390fd5b6000807f000000000000000000000000000000000000000000000000000000000000000073ffffffffffffffffffffffffffffffffffffffff168673ffffffffffffffffffffffffffffffffffffffff161415610e68577f00000000000000000000000000000000000000000000000000000000000000009150610e5061504e565b9050610e5b81615124565b8094508195505050610ea7565b7f00000000000000000000000000000000000000000000000000000000000000009150610e9361530d565b9050610e9e816153e3565b80945081955050505b8473ffffffffffffffffffffffffffffffffffffffff168673ffffffffffffffffffffffffffffffffffffffff168373ffffffffffffffffffffffffffffffffffffffff167fc9163c3bdf7263acf1bb3d24072cc7da025f7181c31e2edc7e1673edf5e0ca32848888604051610f1f93929190616671565b60405180910390a48573ffffffffffffffffffffffffffffffffffffffff1663a9059cbb86866040518363ffffffff1660e01b8152600401610f62929190616327565b602060405180830381600087803b158015610f7c57600080fd5b505af1158015610f90573d6000803e3d6000fd5b505050506040513d601f19601f82011682018060405250810190610fb49190615f54565b610ff3576040517f08c379a0000000000000000000000000000000000000000000000000000000008152600401610fea9061650d565b60405180910390fd5b50509250929050565b600d5481565b61100a614fa9565b73ffffffffffffffffffffffffffffffffffffffff166332fe7b266040518163ffffffff1660e01b815260040160206040518083038186803b15801561104f57600080fd5b505afa158015611063573d6000803e3d6000fd5b505050506040513d601f19601f820116820180604052508101906110879190615e64565b73ffffffffffffffffffffffffffffffffffffffff163373ffffffffffffffffffffffffffffffffffffffff16148061116f57506110c3614fa9565b73ffffffffffffffffffffffffffffffffffffffff16632ab24e496040518163ffffffff1660e01b815260040160206040518083038186803b15801561110857600080fd5b505afa15801561111c573d6000803e3d6000fd5b505050506040513d601f19601f820116820180604052508101906111409190615e64565b73ffffffffffffffffffffffffffffffffffffffff163373ffffffffffffffffffffffffffffffffffffffff16145b80611229575061117d614fa9565b73ffffffffffffffffffffffffffffffffffffffff1663b99b0a0c6040518163ffffffff1660e01b815260040160206040518083038186803b1580156111c257600080fd5b505afa1580156111d6573d6000803e3d6000fd5b505050506040513d601f19601f820116820180604052508101906111fa9190615e64565b73ffffffffffffffffffffffffffffffffffffffff163373ffffffffffffffffffffffffffffffffffffffff16145b61123257600080fd5b60fa811015806112445750610bb88111155b611283576040517f08c379a000000000000000000000000000000000000000000000000000000000815260040161127a906164ed565b60405180910390fd5b80600a8190555050565b7f000000000000000000000000000000000000000000000000000000000000000081565b60015481565b600061134b338484601260003373ffffffffffffffffffffffffffffffffffffffff1673ffffffffffffffffffffffffffffffffffffffff16815260200190815260200160002060008873ffffffffffffffffffffffffffffffffffffffff1673ffffffffffffffffffffffffffffffffffffffff168152602001908152602001600020546113469190616777565b614b67565b6001905092915050565b61135d61396a565b73ffffffffffffffffffffffffffffffffffffffff163373ffffffffffffffffffffffffffffffffffffffff161461139457600080fd5b61139c614fa9565b73ffffffffffffffffffffffffffffffffffffffff1663b93ec54b6040518163ffffffff1660e01b815260040160206040518083038186803b1580156113e157600080fd5b505afa1580156113f5573d6000803e3d6000fd5b505050506040513d601f19601f820116820180604052508101906114199190615e64565b73ffffffffffffffffffffffffffffffffffffffff16635e0237ea61143c61396a565b6040518263ffffffff1660e01b815260040161145891906162e3565b60206040518083038186803b15801561147057600080fd5b505afa158015611484573d6000803e3d6000fd5b505050506040513d601f19601f820116820180604052508101906114a89190615f54565b6114e7576040517f08c379a00000000000000000000000000000000000000000000000000000000081526004016114de9061644d565b60405180910390fd5b6114f1338261567c565b50565b60085481565b611502614fa9565b73ffffffffffffffffffffffffffffffffffffffff166332fe7b266040518163ffffffff1660e01b815260040160206040518083038186803b15801561154757600080fd5b505afa15801561155b573d6000803e3d6000fd5b505050506040513d601f19601f8201168201806040525081019061157f9190615e64565b73ffffffffffffffffffffffffffffffffffffffff163373ffffffffffffffffffffffffffffffffffffffff16148061166757506115bb614fa9565b73ffffffffffffffffffffffffffffffffffffffff16632ab24e496040518163ffffffff1660e01b815260040160206040518083038186803b15801561160057600080fd5b505afa158015611614573d6000803e3d6000fd5b505050506040513d601f19601f820116820180604052508101906116389190615e64565b73ffffffffffffffffffffffffffffffffffffffff163373ffffffffffffffffffffffffffffffffffffffff16145b806117215750611675614fa9565b73ffffffffffffffffffffffffffffffffffffffff1663b99b0a0c6040518163ffffffff1660e01b815260040160206040518083038186803b1580156116ba57600080fd5b505afa1580156116ce573d6000803e3d6000fd5b505050506040513d601f19601f820116820180604052508101906116f29190615e64565b73ffffffffffffffffffffffffffffffffffffffff163373ffffffffffffffffffffffffffffffffffffffff16145b61172a57600080fd5b610bb881111561176f576040517f08c379a0000000000000000000000000000000000000000000000000000000008152600401611766906163ad565b60405180910390fd5b8060018190555050565b60145481565b611787614fa9565b73ffffffffffffffffffffffffffffffffffffffff166398fabd3a6040518163ffffffff1660e01b815260040160206040518083038186803b1580156117cc57600080fd5b505afa1580156117e0573d6000803e3d6000fd5b505050506040513d601f19601f820116820180604052508101906118049190615e64565b73ffffffffffffffffffffffffffffffffffffffff163373ffffffffffffffffffffffffffffffffffffffff1614806118ec5750611840614fa9565b73ffffffffffffffffffffffffffffffffffffffff166332fe7b266040518163ffffffff1660e01b815260040160206040518083038186803b15801561188557600080fd5b505afa158015611899573d6000803e3d6000fd5b505050506040513d601f19601f820116820180604052508101906118bd9190615e64565b73ffffffffffffffffffffffffffffffffffffffff163373ffffffffffffffffffffffffffffffffffffffff16145b806119a657506118fa614fa9565b73ffffffffffffffffffffffffffffffffffffffff16632ab24e496040518163ffffffff1660e01b815260040160206040518083038186803b15801561193f57600080fd5b505afa158015611953573d6000803e3d6000fd5b505050506040513d601f19601f820116820180604052508101906119779190615e64565b73ffffffffffffffffffffffffffffffffffffffff163373ffffffffffffffffffffffffffffffffffffffff16145b6119af57600080fd5b601360008273ffffffffffffffffffffffffffffffffffffffff1673ffffffffffffffffffffffffffffffffffffffff16815260200190815260200160002060009054906101000a900460ff1615601360008373ffffffffffffffffffffffffffffffffffffffff1673ffffffffffffffffffffffffffffffffffffffff16815260200190815260200160002060006101000a81548160ff02191690831515021790555050565b60136020528060005260406000206000915054906101000a900460ff1681565b60095481565b60175481565b600080612710600154601554611a9891906167fe565b611aa291906167cd565b90506000818473ffffffffffffffffffffffffffffffffffffffff166318160ddd6040518163ffffffff1660e01b815260040160206040518083038186803b158015611aed57600080fd5b505afa158015611b01573d6000803e3d6000fd5b505050506040513d601f19601f82011682018060405250810190611b259190615fcf565b10611b335760009250611bbf565b8373ffffffffffffffffffffffffffffffffffffffff166318160ddd6040518163ffffffff1660e01b815260040160206040518083038186803b158015611b7957600080fd5b505afa158015611b8d573d6000803e3d6000fd5b505050506040513d601f19601f82011682018060405250810190611bb19190615fcf565b82611bbc9190616858565b90505b6000600b541415611c035742600b8190555042600d8190555060085481611be691906167cd565b600981905550600954600c54611bfc91906167fe565b9250611c27565b6000600b5442611c139190616858565b905060095481611c2391906167fe565b9350505b600854600d54611c379190616777565b421115611c5a5760085481611c4c91906167cd565b60098190555042600d819055505b5050919050565b600660009054906101000a900460ff1681565b6000601160008373ffffffffffffffffffffffffffffffffffffffff1673ffffffffffffffffffffffffffffffffffffffff168152602001908152602001600020549050919050565b60075481565b60185481565b611cd1614fa9565b73ffffffffffffffffffffffffffffffffffffffff166332fe7b266040518163ffffffff1660e01b815260040160206040518083038186803b158015611d1657600080fd5b505afa158015611d2a573d6000803e3d6000fd5b505050506040513d601f19601f82011682018060405250810190611d4e9190615e64565b73ffffffffffffffffffffffffffffffffffffffff163373ffffffffffffffffffffffffffffffffffffffff161480611e365750611d8a614fa9565b73ffffffffffffffffffffffffffffffffffffffff16632ab24e496040518163ffffffff1660e01b815260040160206040518083038186803b158015611dcf57600080fd5b505afa158015611de3573d6000803e3d6000fd5b505050506040513d601f19601f82011682018060405250810190611e079190615e64565b73ffffffffffffffffffffffffffffffffffffffff163373ffffffffffffffffffffffffffffffffffffffff16145b80611ef05750611e44614fa9565b73ffffffffffffffffffffffffffffffffffffffff1663b99b0a0c6040518163ffffffff1660e01b815260040160206040518083038186803b158015611e8957600080fd5b505afa158015611e9d573d6000803e3d6000fd5b505050506040513d601f19601f82011682018060405250810190611ec19190615e64565b73ffffffffffffffffffffffffffffffffffffffff163373ffffffffffffffffffffffffffffffffffffffff16145b611ef957600080fd5b60028054611f0791906167fe565b811115611f49576040517f08c379a0000000000000000000000000000000000000000000000000000000008152600401611f40906163ad565b60405180910390fd5b8060028190555050565b7f000000000000000000000000000000000000000000000000000000000000000081565b6000611f81614fa9565b73ffffffffffffffffffffffffffffffffffffffff166332fe7b266040518163ffffffff1660e01b815260040160206040518083038186803b158015611fc657600080fd5b505afa158015611fda573d6000803e3d6000fd5b505050506040513d601f19601f82011682018060405250810190611ffe9190615e64565b73ffffffffffffffffffffffffffffffffffffffff163373ffffffffffffffffffffffffffffffffffffffff1614806120e6575061203a614fa9565b73ffffffffffffffffffffffffffffffffffffffff16632ab24e496040518163ffffffff1660e01b815260040160206040518083038186803b15801561207f57600080fd5b505afa158015612093573d6000803e3d6000fd5b505050506040513d601f19601f820116820180604052508101906120b79190615e64565b73ffffffffffffffffffffffffffffffffffffffff163373ffffffffffffffffffffffffffffffffffffffff16145b806121a057506120f4614fa9565b73ffffffffffffffffffffffffffffffffffffffff1663b99b0a0c6040518163ffffffff1660e01b815260040160206040518083038186803b15801561213957600080fd5b505afa15801561214d573d6000803e3d6000fd5b505050506040513d601f19601f820116820180604052508101906121719190615e64565b73ffffffffffffffffffffffffffffffffffffffff163373ffffffffffffffffffffffffffffffffffffffff16145b6121a957600080fd5b60006121b361530d565b9050600254816014546121c69190616777565b10612206576040517f08c379a00000000000000000000000000000000000000000000000000000000081526004016121fd9061652d565b60405180910390fd5b600061221061504e565b905061221a614fa9565b73ffffffffffffffffffffffffffffffffffffffff16637b0e5c456040518163ffffffff1660e01b815260040160206040518083038186803b15801561225f57600080fd5b505afa158015612273573d6000803e3d6000fd5b505050506040513d601f19601f820116820180604052508101906122979190615e64565b73ffffffffffffffffffffffffffffffffffffffff1663c5c11ee983601454846015546010546040518663ffffffff1660e01b81526004016122dd9594939291906166ed565b60206040518083038186803b1580156122f557600080fd5b505afa158015612309573d6000803e3d6000fd5b505050506040513d601f19601f8201168201806040525081019061232d9190615fcf565b92506000601454148061234257506000601554145b156124165768056bc75e2d63100000821015801561236257506127108110155b6123a1576040517f08c379a0000000000000000000000000000000000000000000000000000000008152600401612398906163ed565b60405180910390fd5b60006127108460646123b391906167fe565b6123bd91906167cd565b905080846123cb9190616858565b93506123f77f000000000000000000000000000000000000000000000000000000000000000082615846565b81838461240491906167fe565b61240e91906167cd565b600381905550505b612420828261598f565b61242a8484615846565b8373ffffffffffffffffffffffffffffffffffffffff167fbeb3885786d637a474cbc287c0a44587231633a077f0bd30354d5a4b18996fce83838660405161247493929190616671565b60405180910390a25050919050565b6060600f805461249290616926565b80601f01602080910402602001604051908101604052809291908181526020018280546124be90616926565b801561250b5780601f106124e05761010080835404028352916020019161250b565b820191906000526020600020905b8154815290600101906020018083116124ee57829003601f168201915b5050505050905090565b60165481565b612523614fa9565b73ffffffffffffffffffffffffffffffffffffffff166332fe7b266040518163ffffffff1660e01b815260040160206040518083038186803b15801561256857600080fd5b505afa15801561257c573d6000803e3d6000fd5b505050506040513d601f19601f820116820180604052508101906125a09190615e64565b73ffffffffffffffffffffffffffffffffffffffff163373ffffffffffffffffffffffffffffffffffffffff16148061268857506125dc614fa9565b73ffffffffffffffffffffffffffffffffffffffff16632ab24e496040518163ffffffff1660e01b815260040160206040518083038186803b15801561262157600080fd5b505afa158015612635573d6000803e3d6000fd5b505050506040513d601f19601f820116820180604052508101906126599190615e64565b73ffffffffffffffffffffffffffffffffffffffff163373ffffffffffffffffffffffffffffffffffffffff16145b806127425750612696614fa9565b73ffffffffffffffffffffffffffffffffffffffff1663b99b0a0c6040518163ffffffff1660e01b815260040160206040518083038186803b1580156126db57600080fd5b505afa1580156126ef573d6000803e3d6000fd5b505050506040513d601f19601f820116820180604052508101906127139190615e64565b73ffffffffffffffffffffffffffffffffffffffff163373ffffffffffffffffffffffffffffffffffffffff16145b61274b57600080fd5b8060058190555050565b600080601260003373ffffffffffffffffffffffffffffffffffffffff1673ffffffffffffffffffffffffffffffffffffffff16815260200190815260200160002060008573ffffffffffffffffffffffffffffffffffffffff1673ffffffffffffffffffffffffffffffffffffffff1681526020019081526020016000205490508281101561281a576040517f08c379a0000000000000000000000000000000000000000000000000000000008152600401612811906163cd565b60405180910390fd5b6128303385858461282b9190616858565b614b67565b600191505092915050565b7f000000000000000000000000000000000000000000000000000000000000000081565b600061286c338484614d32565b6001905092915050565b61287e614fa9565b73ffffffffffffffffffffffffffffffffffffffff166332fe7b266040518163ffffffff1660e01b815260040160206040518083038186803b1580156128c357600080fd5b505afa1580156128d7573d6000803e3d6000fd5b505050506040513d601f19601f820116820180604052508101906128fb9190615e64565b73ffffffffffffffffffffffffffffffffffffffff163373ffffffffffffffffffffffffffffffffffffffff1614806129e35750612937614fa9565b73ffffffffffffffffffffffffffffffffffffffff16632ab24e496040518163ffffffff1660e01b815260040160206040518083038186803b15801561297c57600080fd5b505afa158015612990573d6000803e3d6000fd5b505050506040513d601f19601f820116820180604052508101906129b49190615e64565b73ffffffffffffffffffffffffffffffffffffffff163373ffffffffffffffffffffffffffffffffffffffff16145b80612a9d57506129f1614fa9565b73ffffffffffffffffffffffffffffffffffffffff1663b99b0a0c6040518163ffffffff1660e01b815260040160206040518083038186803b158015612a3657600080fd5b505afa158015612a4a573d6000803e3d6000fd5b505050506040513d601f19601f82011682018060405250810190612a6e9190615e64565b73ffffffffffffffffffffffffffffffffffffffff163373ffffffffffffffffffffffffffffffffffffffff16145b612aa657600080fd5b62093a808110612aeb576040517f08c379a0000000000000000000000000000000000000000000000000000000008152600401612ae2906164ed565b60405180910390fd5b8060078190555050565b600080612b00614fa9565b73ffffffffffffffffffffffffffffffffffffffff166332fe7b266040518163ffffffff1660e01b815260040160206040518083038186803b158015612b4557600080fd5b505afa158015612b59573d6000803e3d6000fd5b505050506040513d601f19601f82011682018060405250810190612b7d9190615e64565b73ffffffffffffffffffffffffffffffffffffffff163373ffffffffffffffffffffffffffffffffffffffff161480612c655750612bb9614fa9565b73ffffffffffffffffffffffffffffffffffffffff16632ab24e496040518163ffffffff1660e01b815260040160206040518083038186803b158015612bfe57600080fd5b505afa158015612c12573d6000803e3d6000fd5b505050506040513d601f19601f82011682018060405250810190612c369190615e64565b73ffffffffffffffffffffffffffffffffffffffff163373ffffffffffffffffffffffffffffffffffffffff16145b80612d1f5750612c73614fa9565b73ffffffffffffffffffffffffffffffffffffffff1663b99b0a0c6040518163ffffffff1660e01b815260040160206040518083038186803b158015612cb857600080fd5b505afa158015612ccc573d6000803e3d6000fd5b505050506040513d601f19601f82011682018060405250810190612cf09190615e64565b73ffffffffffffffffffffffffffffffffffffffff163373ffffffffffffffffffffffffffffffffffffffff16145b612d2857600080fd5b6007547f0000000000000000000000000000000000000000000000000000000000000000612d569190616777565b4211612d97576040517f08c379a0000000000000000000000000000000000000000000000000000000008152600401612d8e9061658d565b60405180910390fd5b6000612da230611c74565b90506000612dae614fa9565b73ffffffffffffffffffffffffffffffffffffffff16637b0e5c456040518163ffffffff1660e01b815260040160206040518083038186803b158015612df357600080fd5b505afa158015612e07573d6000803e3d6000fd5b505050506040513d601f19601f82011682018060405250810190612e2b9190615e64565b90508073ffffffffffffffffffffffffffffffffffffffff16635a7b2ed3837f0000000000000000000000000000000000000000000000000000000000000000306040518463ffffffff1660e01b8152600401612e8a93929190616611565b60206040518083038186803b158015612ea257600080fd5b505afa158015612eb6573d6000803e3d6000fd5b505050506040513d601f19601f82011682018060405250810190612eda9190615fcf565b93508073ffffffffffffffffffffffffffffffffffffffff16635a7b2ed3837f0000000000000000000000000000000000000000000000000000000000000000306040518463ffffffff1660e01b8152600401612f3993929190616611565b60206040518083038186803b158015612f5157600080fd5b505afa158015612f65573d6000803e3d6000fd5b505050506040513d601f19601f82011682018060405250810190612f899190615fcf565b9250612f9584846159cd565b612f9f308361567c565b7f000000000000000000000000000000000000000000000000000000000000000073ffffffffffffffffffffffffffffffffffffffff1663a9059cbb86866040518363ffffffff1660e01b8152600401612ffa929190616327565b602060405180830381600087803b15801561301457600080fd5b505af1158015613028573d6000803e3d6000fd5b505050506040513d601f19601f8201168201806040525081019061304c9190615f54565b61308b576040517f08c379a00000000000000000000000000000000000000000000000000000000081526004016130829061650d565b60405180910390fd5b7f000000000000000000000000000000000000000000000000000000000000000073ffffffffffffffffffffffffffffffffffffffff1663a9059cbb86856040518363ffffffff1660e01b81526004016130e6929190616327565b602060405180830381600087803b15801561310057600080fd5b505af1158015613114573d6000803e3d6000fd5b505050506040513d601f19601f820116820180604052508101906131389190615f54565b613177576040517f08c379a000000000000000000000000000000000000000000000000000000000815260040161316e9061650d565b60405180910390fd5b8473ffffffffffffffffffffffffffffffffffffffff167f59c3a0b60c6ab7deb62e1440c9e72441db6db7dfe514dba8cb18e60c0d896efa8585856040516131c193929190616671565b60405180910390a25050915091565b60025481565b600c5481565b6000806131e7614fa9565b73ffffffffffffffffffffffffffffffffffffffff166332fe7b266040518163ffffffff1660e01b815260040160206040518083038186803b15801561322c57600080fd5b505afa158015613240573d6000803e3d6000fd5b505050506040513d601f19601f820116820180604052508101906132649190615e64565b73ffffffffffffffffffffffffffffffffffffffff163373ffffffffffffffffffffffffffffffffffffffff16148061334c57506132a0614fa9565b73ffffffffffffffffffffffffffffffffffffffff16632ab24e496040518163ffffffff1660e01b815260040160206040518083038186803b1580156132e557600080fd5b505afa1580156132f9573d6000803e3d6000fd5b505050506040513d601f19601f8201168201806040525081019061331d9190615e64565b73ffffffffffffffffffffffffffffffffffffffff163373ffffffffffffffffffffffffffffffffffffffff16145b80613406575061335a614fa9565b73ffffffffffffffffffffffffffffffffffffffff1663b99b0a0c6040518163ffffffff1660e01b815260040160206040518083038186803b15801561339f57600080fd5b505afa1580156133b3573d6000803e3d6000fd5b505050506040513d601f19601f820116820180604052508101906133d79190615e64565b73ffffffffffffffffffffffffffffffffffffffff163373ffffffffffffffffffffffffffffffffffffffff16145b61340f57600080fd5b600061341961396a565b9050600073ffffffffffffffffffffffffffffffffffffffff168173ffffffffffffffffffffffffffffffffffffffff16141561348b576040517f08c379a0000000000000000000000000000000000000000000000000000000008152600401613482906164cd565b60405180910390fd5b6000613495614fa9565b73ffffffffffffffffffffffffffffffffffffffff16637b0e5c456040518163ffffffff1660e01b815260040160206040518083038186803b1580156134da57600080fd5b505afa1580156134ee573d6000803e3d6000fd5b505050506040513d601f19601f820116820180604052508101906135129190615e64565b905060008273ffffffffffffffffffffffffffffffffffffffff166370a08231306040518263ffffffff1660e01b815260040161354f91906162e3565b60206040518083038186803b15801561356757600080fd5b505afa15801561357b573d6000803e3d6000fd5b505050506040513d601f19601f8201168201806040525081019061359f9190615fcf565b905060008273ffffffffffffffffffffffffffffffffffffffff1663701baaf3836015546014546040518463ffffffff1660e01b81526004016135e493929190616671565b60206040518083038186803b1580156135fc57600080fd5b505afa158015613610573d6000803e3d6000fd5b505050506040513d601f19601f820116820180604052508101906136349190615fcf565b9050600061271061251c8361364991906167fe565b61365391906167cd565b90508373ffffffffffffffffffffffffffffffffffffffff1663896a708c846015546014546040518463ffffffff1660e01b815260040161369693929190616671565b60206040518083038186803b1580156136ae57600080fd5b505afa1580156136c2573d6000803e3d6000fd5b505050506040513d601f19601f820116820180604052508101906136e69190615fcf565b95506136f38160006159cd565b6136fc86615a0b565b60008573ffffffffffffffffffffffffffffffffffffffff166386450495856040518263ffffffff1660e01b815260040161373791906165cd565b602060405180830381600087803b15801561375157600080fd5b505af1158015613765573d6000803e3d6000fd5b505050506040513d601f19601f820116820180604052508101906137899190615fcf565b9050613795868261567c565b7f000000000000000000000000000000000000000000000000000000000000000073ffffffffffffffffffffffffffffffffffffffff1663a9059cbb8a846040518363ffffffff1660e01b81526004016137f0929190616327565b602060405180830381600087803b15801561380a57600080fd5b505af115801561381e573d6000803e3d6000fd5b505050506040513d601f19601f820116820180604052508101906138429190615f54565b613881576040517f08c379a00000000000000000000000000000000000000000000000000000000081526004016138789061650d565b60405180910390fd5b8873ffffffffffffffffffffffffffffffffffffffff167f6f3ac8cc4850a948dddb5c85957bbaadcbea6e4b2cef3f02f6af53fcf2596f568383878b6040516138cd94939291906166a8565b60405180910390a2819750505050505050915091565b6000601260008473ffffffffffffffffffffffffffffffffffffffff1673ffffffffffffffffffffffffffffffffffffffff16815260200190815260200160002060008373ffffffffffffffffffffffffffffffffffffffff1673ffffffffffffffffffffffffffffffffffffffff16815260200190815260200160002054905092915050565b6000613974614fa9565b73ffffffffffffffffffffffffffffffffffffffff1663b93ec54b6040518163ffffffff1660e01b815260040160206040518083038186803b1580156139b957600080fd5b505afa1580156139cd573d6000803e3d6000fd5b505050506040513d601f19601f820116820180604052508101906139f19190615e64565b73ffffffffffffffffffffffffffffffffffffffff1663dcec81167f00000000000000000000000000000000000000000000000000000000000000006040518263ffffffff1660e01b8152600401613a4991906162e3565b60206040518083038186803b158015613a6157600080fd5b505afa158015613a75573d6000803e3d6000fd5b505050506040513d601f19601f82011682018060405250810190613a999190615e64565b905090565b7f000000000000000000000000000000000000000000000000000000000000000081565b60155481565b60198181548110613ad857600080fd5b906000526020600020016000915090505481565b600080613af7614fa9565b73ffffffffffffffffffffffffffffffffffffffff166332fe7b266040518163ffffffff1660e01b815260040160206040518083038186803b158015613b3c57600080fd5b505afa158015613b50573d6000803e3d6000fd5b505050506040513d601f19601f82011682018060405250810190613b749190615e64565b73ffffffffffffffffffffffffffffffffffffffff163373ffffffffffffffffffffffffffffffffffffffff161480613c5c5750613bb0614fa9565b73ffffffffffffffffffffffffffffffffffffffff16632ab24e496040518163ffffffff1660e01b815260040160206040518083038186803b158015613bf557600080fd5b505afa158015613c09573d6000803e3d6000fd5b505050506040513d601f19601f82011682018060405250810190613c2d9190615e64565b73ffffffffffffffffffffffffffffffffffffffff163373ffffffffffffffffffffffffffffffffffffffff16145b80613d165750613c6a614fa9565b73ffffffffffffffffffffffffffffffffffffffff1663b99b0a0c6040518163ffffffff1660e01b815260040160206040518083038186803b158015613caf57600080fd5b505afa158015613cc3573d6000803e3d6000fd5b505050506040513d601f19601f82011682018060405250810190613ce79190615e64565b73ffffffffffffffffffffffffffffffffffffffff163373ffffffffffffffffffffffffffffffffffffffff16145b613d1f57600080fd5b6000613d2961396a565b9050601360008273ffffffffffffffffffffffffffffffffffffffff1673ffffffffffffffffffffffffffffffffffffffff16815260200190815260200160002060009054906101000a900460ff16613db7576040517f08c379a0000000000000000000000000000000000000000000000000000000008152600401613dae9061656d565b60405180910390fd5b613dbf614fa9565b73ffffffffffffffffffffffffffffffffffffffff1663b93ec54b6040518163ffffffff1660e01b815260040160206040518083038186803b158015613e0457600080fd5b505afa158015613e18573d6000803e3d6000fd5b505050506040513d601f19601f82011682018060405250810190613e3c9190615e64565b73ffffffffffffffffffffffffffffffffffffffff16635e0237ea826040518263ffffffff1660e01b8152600401613e7491906162e3565b60206040518083038186803b158015613e8c57600080fd5b505afa158015613ea0573d6000803e3d6000fd5b505050506040513d601f19601f82011682018060405250810190613ec49190615f54565b613f03576040517f08c379a0000000000000000000000000000000000000000000000000000000008152600401613efa906164cd565b60405180910390fd5b6000613f0d614fa9565b73ffffffffffffffffffffffffffffffffffffffff16637b0e5c456040518163ffffffff1660e01b815260040160206040518083038186803b158015613f5257600080fd5b505afa158015613f66573d6000803e3d6000fd5b505050506040513d601f19601f82011682018060405250810190613f8a9190615e64565b90506000613f9661530d565b905060025481601454613fa99190616777565b10613fe9576040517f08c379a0000000000000000000000000000000000000000000000000000000008152600401613fe09061652d565b60405180910390fd5b6000613ff484611a82565b90508273ffffffffffffffffffffffffffffffffffffffff1663701baaf3836014546015546040518463ffffffff1660e01b815260040161403793929190616671565b60206040518083038186803b15801561404f57600080fd5b505afa158015614063573d6000803e3d6000fd5b505050506040513d601f19601f820116820180604052508101906140879190615fcf565b9550808611156140cc576040517f08c379a00000000000000000000000000000000000000000000000000000000081526004016140c39061646d565b60405180910390fd5b42600b8190555060008373ffffffffffffffffffffffffffffffffffffffff1663b86a82ef84306040518363ffffffff1660e01b81526004016141109291906165e8565b60206040518083038186803b15801561412857600080fd5b505afa15801561413c573d6000803e3d6000fd5b505050506040513d601f19601f820116820180604052508101906141609190615fcf565b905061416d83600061598f565b60008473ffffffffffffffffffffffffffffffffffffffff1663896a708c856014546015546040518463ffffffff1660e01b81526004016141b093929190616671565b60206040518083038186803b1580156141c857600080fd5b505afa1580156141dc573d6000803e3d6000fd5b505050506040513d601f19601f820116820180604052508101906142009190615fcf565b90508473ffffffffffffffffffffffffffffffffffffffff1663c19387df7f0000000000000000000000000000000000000000000000000000000000000000836040518363ffffffff1660e01b815260040161425d929190616327565b60206040518083038186803b15801561427557600080fd5b505afa158015614289573d6000803e3d6000fd5b505050506040513d601f19601f820116820180604052508101906142ad9190615fcf565b96506142b98683615846565b8573ffffffffffffffffffffffffffffffffffffffff166332f302e36142dd614fa9565b73ffffffffffffffffffffffffffffffffffffffff16632ab24e496040518163ffffffff1660e01b815260040160206040518083038186803b15801561432257600080fd5b505afa158015614336573d6000803e3d6000fd5b505050506040513d601f19601f8201168201806040525081019061435a9190615e64565b8a6040518363ffffffff1660e01b8152600401614378929190616327565b602060405180830381600087803b15801561439257600080fd5b505af11580156143a6573d6000803e3d6000fd5b505050506040513d601f19601f820116820180604052508101906143ca9190615fcf565b506143d3614fa9565b73ffffffffffffffffffffffffffffffffffffffff16632ab24e496040518163ffffffff1660e01b815260040160206040518083038186803b15801561441857600080fd5b505afa15801561442c573d6000803e3d6000fd5b505050506040513d601f19601f820116820180604052508101906144509190615e64565b73ffffffffffffffffffffffffffffffffffffffff16634335a95c878b6040518363ffffffff1660e01b815260040161448a9291906162fe565b600060405180830381600087803b1580156144a457600080fd5b505af11580156144b8573d6000803e3d6000fd5b505050506144c587615a0b565b8873ffffffffffffffffffffffffffffffffffffffff167fbaff1e38597e99ccc6d6abf0e271a32ee3dc24114ea5bec3f05afd9bbb19f1f585848b8b60405161451194939291906166a8565b60405180910390a2505050505050915091565b61452c614fa9565b73ffffffffffffffffffffffffffffffffffffffff166332fe7b266040518163ffffffff1660e01b815260040160206040518083038186803b15801561457157600080fd5b505afa158015614585573d6000803e3d6000fd5b505050506040513d601f19601f820116820180604052508101906145a99190615e64565b73ffffffffffffffffffffffffffffffffffffffff163373ffffffffffffffffffffffffffffffffffffffff16148061469157506145e5614fa9565b73ffffffffffffffffffffffffffffffffffffffff16632ab24e496040518163ffffffff1660e01b815260040160206040518083038186803b15801561462a57600080fd5b505afa15801561463e573d6000803e3d6000fd5b505050506040513d601f19601f820116820180604052508101906146629190615e64565b73ffffffffffffffffffffffffffffffffffffffff163373ffffffffffffffffffffffffffffffffffffffff16145b8061474b575061469f614fa9565b73ffffffffffffffffffffffffffffffffffffffff1663b99b0a0c6040518163ffffffff1660e01b815260040160206040518083038186803b1580156146e457600080fd5b505afa1580156146f8573d6000803e3d6000fd5b505050506040513d601f19601f8201168201806040525081019061471c9190615e64565b73ffffffffffffffffffffffffffffffffffffffff163373ffffffffffffffffffffffffffffffffffffffff16145b61475457600080fd5b6102448110614798576040517f08c379a000000000000000000000000000000000000000000000000000000000815260040161478f906164ed565b60405180910390fd5b600660009054906101000a900460ff1615600660006101000a81548160ff02191690831515021790555080426147ce9190616777565b60048190555050565b6147df614fa9565b73ffffffffffffffffffffffffffffffffffffffff166398fabd3a6040518163ffffffff1660e01b815260040160206040518083038186803b15801561482457600080fd5b505afa158015614838573d6000803e3d6000fd5b505050506040513d601f19601f8201168201806040525081019061485c9190615e64565b73ffffffffffffffffffffffffffffffffffffffff163373ffffffffffffffffffffffffffffffffffffffff1614806149445750614898614fa9565b73ffffffffffffffffffffffffffffffffffffffff166332fe7b266040518163ffffffff1660e01b815260040160206040518083038186803b1580156148dd57600080fd5b505afa1580156148f1573d6000803e3d6000fd5b505050506040513d601f19601f820116820180604052508101906149159190615e64565b73ffffffffffffffffffffffffffffffffffffffff163373ffffffffffffffffffffffffffffffffffffffff16145b806149fe5750614952614fa9565b73ffffffffffffffffffffffffffffffffffffffff16632ab24e496040518163ffffffff1660e01b815260040160206040518083038186803b15801561499757600080fd5b505afa1580156149ab573d6000803e3d6000fd5b505050506040513d601f19601f820116820180604052508101906149cf9190615e64565b73ffffffffffffffffffffffffffffffffffffffff163373ffffffffffffffffffffffffffffffffffffffff16145b614a0757600080fd5b7f000000000000000000000000000000000000000000000000000000000000000073ffffffffffffffffffffffffffffffffffffffff166370a08231306040518263ffffffff1660e01b8152600401614a6091906162e3565b60206040518083038186803b158015614a7857600080fd5b505afa158015614a8c573d6000803e3d6000fd5b505050506040513d601f19601f82011682018060405250810190614ab09190615fcf565b6014819055507f000000000000000000000000000000000000000000000000000000000000000073ffffffffffffffffffffffffffffffffffffffff166370a08231306040518263ffffffff1660e01b8152600401614b0f91906162e3565b60206040518083038186803b158015614b2757600080fd5b505afa158015614b3b573d6000803e3d6000fd5b505050506040513d601f19601f82011682018060405250810190614b5f9190615fcf565b601581905550565b600073ffffffffffffffffffffffffffffffffffffffff168373ffffffffffffffffffffffffffffffffffffffff161415614bd7576040517f08c379a0000000000000000000000000000000000000000000000000000000008152600401614bce906165ad565b60405180910390fd5b600073ffffffffffffffffffffffffffffffffffffffff168273ffffffffffffffffffffffffffffffffffffffff161415614c47576040517f08c379a0000000000000000000000000000000000000000000000000000000008152600401614c3e906164ad565b60405180910390fd5b80601260008573ffffffffffffffffffffffffffffffffffffffff1673ffffffffffffffffffffffffffffffffffffffff16815260200190815260200160002060008473ffffffffffffffffffffffffffffffffffffffff1673ffffffffffffffffffffffffffffffffffffffff168152602001908152602001600020819055508173ffffffffffffffffffffffffffffffffffffffff168373ffffffffffffffffffffffffffffffffffffffff167f8c5be1e5ebec7d5bd14f71427d1e84f3dd0314c0f7b2291e5b200ac8c7c3b92583604051614d2591906165cd565b60405180910390a3505050565b600073ffffffffffffffffffffffffffffffffffffffff168373ffffffffffffffffffffffffffffffffffffffff161415614da2576040517f08c379a0000000000000000000000000000000000000000000000000000000008152600401614d999061654d565b60405180910390fd5b600073ffffffffffffffffffffffffffffffffffffffff168273ffffffffffffffffffffffffffffffffffffffff161415614e12576040517f08c379a0000000000000000000000000000000000000000000000000000000008152600401614e099061648d565b60405180910390fd5b6000601160008573ffffffffffffffffffffffffffffffffffffffff1673ffffffffffffffffffffffffffffffffffffffff16815260200190815260200160002054905081811015614e99576040517f08c379a0000000000000000000000000000000000000000000000000000000008152600401614e909061640d565b60405180910390fd5b8181614ea59190616858565b601160008673ffffffffffffffffffffffffffffffffffffffff1673ffffffffffffffffffffffffffffffffffffffff1681526020019081526020016000208190555081601160008573ffffffffffffffffffffffffffffffffffffffff1673ffffffffffffffffffffffffffffffffffffffff1681526020019081526020016000206000828254614f379190616777565b925050819055508273ffffffffffffffffffffffffffffffffffffffff168473ffffffffffffffffffffffffffffffffffffffff167fddf252ad1be2c89b69c2b068fc378daa952ba7f163c4a11628f55a4df523b3ef84604051614f9b91906165cd565b60405180910390a350505050565b60007f000000000000000000000000000000000000000000000000000000000000000073ffffffffffffffffffffffffffffffffffffffff166398fabd3a6040518163ffffffff1660e01b815260040160206040518083038186803b15801561501157600080fd5b505afa158015615025573d6000803e3d6000fd5b505050506040513d601f19601f820116820180604052508101906150499190615f7d565b905090565b6000807f000000000000000000000000000000000000000000000000000000000000000073ffffffffffffffffffffffffffffffffffffffff166370a08231306040518263ffffffff1660e01b81526004016150aa91906162e3565b60206040518083038186803b1580156150c257600080fd5b505afa1580156150d6573d6000803e3d6000fd5b505050506040513d601f19601f820116820180604052508101906150fa9190615fcf565b905060155481111561511b57601554816151149190616858565b9150615120565b600091505b5090565b6000806000601554905060006014549050600061513f614fa9565b73ffffffffffffffffffffffffffffffffffffffff16637b0e5c456040518163ffffffff1660e01b815260040160206040518083038186803b15801561518457600080fd5b505afa158015615198573d6000803e3d6000fd5b505050506040513d601f19601f820116820180604052508101906151bc9190615e64565b90508073ffffffffffffffffffffffffffffffffffffffff1663701baaf38785856040518463ffffffff1660e01b81526004016151fb93929190616671565b60206040518083038186803b15801561521357600080fd5b505afa158015615227573d6000803e3d6000fd5b505050506040513d601f19601f8201168201806040525081019061524b9190615fcf565b94508073ffffffffffffffffffffffffffffffffffffffff1663896a708c8785856040518463ffffffff1660e01b815260040161528a93929190616671565b60206040518083038186803b1580156152a257600080fd5b505afa1580156152b6573d6000803e3d6000fd5b505050506040513d601f19601f820116820180604052508101906152da9190615fcf565b93506152fc85836152eb9190616858565b87856152f79190616777565b615a74565b61530584615a0b565b505050915091565b6000807f000000000000000000000000000000000000000000000000000000000000000073ffffffffffffffffffffffffffffffffffffffff166370a08231306040518263ffffffff1660e01b815260040161536991906162e3565b60206040518083038186803b15801561538157600080fd5b505afa158015615395573d6000803e3d6000fd5b505050506040513d601f19601f820116820180604052508101906153b99190615fcf565b90506014548111156153da57601454816153d39190616858565b91506153df565b600091505b5090565b600080600060145490506000601554905060006153fe614fa9565b73ffffffffffffffffffffffffffffffffffffffff16637b0e5c456040518163ffffffff1660e01b815260040160206040518083038186803b15801561544357600080fd5b505afa158015615457573d6000803e3d6000fd5b505050506040513d601f19601f8201168201806040525081019061547b9190615e64565b90508073ffffffffffffffffffffffffffffffffffffffff1663701baaf38785856040518463ffffffff1660e01b81526004016154ba93929190616671565b60206040518083038186803b1580156154d257600080fd5b505afa1580156154e6573d6000803e3d6000fd5b505050506040513d601f19601f8201168201806040525081019061550a9190615fcf565b945060008173ffffffffffffffffffffffffffffffffffffffff1663896a708c8886866040518463ffffffff1660e01b815260040161554b93929190616671565b60206040518083038186803b15801561556357600080fd5b505afa158015615577573d6000803e3d6000fd5b505050506040513d601f19601f8201168201806040525081019061559b9190615fcf565b90508173ffffffffffffffffffffffffffffffffffffffff1663c19387df7f0000000000000000000000000000000000000000000000000000000000000000836040518363ffffffff1660e01b81526004016155f8929190616327565b60206040518083038186803b15801561561057600080fd5b505afa158015615624573d6000803e3d6000fd5b505050506040513d601f19601f820116820180604052508101906156489190615fcf565b945061566a87856156599190616777565b87856156659190616858565b615a74565b61567385615a0b565b50505050915091565b600073ffffffffffffffffffffffffffffffffffffffff168273ffffffffffffffffffffffffffffffffffffffff1614156156ec576040517f08c379a00000000000000000000000000000000000000000000000000000000081526004016156e39061638d565b60405180910390fd5b6000601160008473ffffffffffffffffffffffffffffffffffffffff1673ffffffffffffffffffffffffffffffffffffffff16815260200190815260200160002054905081811015615773576040517f08c379a000000000000000000000000000000000000000000000000000000000815260040161576a9061640d565b60405180910390fd5b818161577f9190616858565b601160008573ffffffffffffffffffffffffffffffffffffffff1673ffffffffffffffffffffffffffffffffffffffff1681526020019081526020016000208190555081601060008282546157d49190616858565b92505081905550600073ffffffffffffffffffffffffffffffffffffffff168373ffffffffffffffffffffffffffffffffffffffff167fddf252ad1be2c89b69c2b068fc378daa952ba7f163c4a11628f55a4df523b3ef8460405161583991906165cd565b60405180910390a3505050565b600073ffffffffffffffffffffffffffffffffffffffff168273ffffffffffffffffffffffffffffffffffffffff1614156158b6576040517f08c379a00000000000000000000000000000000000000000000000000000000081526004016158ad9061638d565b60405180910390fd5b80601060008282546158c89190616777565b9250508190555080601160008473ffffffffffffffffffffffffffffffffffffffff1673ffffffffffffffffffffffffffffffffffffffff168152602001908152602001600020600082825461591e9190616777565b925050819055508173ffffffffffffffffffffffffffffffffffffffff16600073ffffffffffffffffffffffffffffffffffffffff167fddf252ad1be2c89b69c2b068fc378daa952ba7f163c4a11628f55a4df523b3ef8360405161598391906165cd565b60405180910390a35050565b81601460008282546159a19190616777565b9250508190555080601560008282546159ba9190616777565b925050819055506159c9615a8e565b5050565b81601460008282546159df9190616858565b9250508190555080601560008282546159f89190616858565b92505081905550615a07615a8e565b5050565b60006016541415615a1e57426016819055505b62278d00601654615a2f9190616777565b4211615a4e5780601754615a439190616777565b601781905550615a71565b42601681905550601754601881905550615a69601854615bdb565b806017819055505b50565b8160148190555080601581905550615a8a615a8e565b5050565b6000601554601454601454615aa391906167fe565b615aad91906167cd565b90506000600354821115615ad05760035482615ac99190616858565b9050615ae1565b81600354615ade9190616858565b90505b8161271082615af091906167fe565b615afa91906167cd565b90506005548110615b25576001600660006101000a81548160ff021916908315150217905550615b4c565b600454421115615b4b57610e1042615b3d9190616777565b600481905550816003819055505b5b600660009054906101000a900460ff1615615bd7576005548111615b86576000600660006101000a81548160ff0219169083151502179055505b600454421115615bd657610e1042615b9e9190616777565b6004819055506000600460038054615bb691906167fe565b84615bc19190616777565b615bcb91906167cd565b905080600381905550505b5b5050565b60006019805480602002602001604051908101604052809291908181526020018280548015615c2957602002820191906000526020600020905b815481526020019060010190808311615c15575b50505050509050600281511415615d255780600181518110615c74577f4e487b7100000000000000000000000000000000000000000000000000000000600052603260045260246000fd5b602002602001015181600081518110615cb6577f4e487b7100000000000000000000000000000000000000000000000000000000600052603260045260246000fd5b6020026020010181815250508181600181518110615cfd577f4e487b7100000000000000000000000000000000000000000000000000000000600052603260045260246000fd5b6020026020010181815250508060199080519060200190615d1f929190615d53565b50615d4f565b60198290806001815401808255809150506001900390600052602060002001600090919091909150555b5050565b828054828255906000526020600020908101928215615d8f579160200282015b82811115615d8e578251825591602001919060010190615d73565b5b509050615d9c9190615da0565b5090565b5b80821115615db9576000816000905550600101615da1565b5090565b600081359050615dcc81616cd8565b92915050565b600081519050615de181616cd8565b92915050565b600081519050615df681616cef565b92915050565b600081519050615e0b81616d06565b92915050565b600081359050615e2081616d1d565b92915050565b600081519050615e3581616d1d565b92915050565b600060208284031215615e4d57600080fd5b6000615e5b84828501615dbd565b91505092915050565b600060208284031215615e7657600080fd5b6000615e8484828501615dd2565b91505092915050565b60008060408385031215615ea057600080fd5b6000615eae85828601615dbd565b9250506020615ebf85828601615dbd565b9150509250929050565b600080600060608486031215615ede57600080fd5b6000615eec86828701615dbd565b9350506020615efd86828701615dbd565b9250506040615f0e86828701615e11565b9150509250925092565b60008060408385031215615f2b57600080fd5b6000615f3985828601615dbd565b9250506020615f4a85828601615e11565b9150509250929050565b600060208284031215615f6657600080fd5b6000615f7484828501615de7565b91505092915050565b600060208284031215615f8f57600080fd5b6000615f9d84828501615dfc565b91505092915050565b600060208284031215615fb857600080fd5b6000615fc684828501615e11565b91505092915050565b600060208284031215615fe157600080fd5b6000615fef84828501615e26565b91505092915050565b6160018161688c565b82525050565b6160108161689e565b82525050565b60006160218261675b565b61602b8185616766565b935061603b8185602086016168f3565b616044816169e5565b840191505092915050565b600061605c600883616766565b9150616067826169f6565b602082019050919050565b600061607f600483616766565b915061608a82616a1f565b602082019050919050565b60006160a2600983616766565b91506160ad82616a48565b602082019050919050565b60006160c5600983616766565b91506160d082616a71565b602082019050919050565b60006160e8600883616766565b91506160f382616a9a565b602082019050919050565b600061610b600c83616766565b915061611682616ac3565b602082019050919050565b600061612e600683616766565b915061613982616aec565b602082019050919050565b6000616151600883616766565b915061615c82616b15565b602082019050919050565b6000616174600583616766565b915061617f82616b3e565b602082019050919050565b6000616197600883616766565b91506161a282616b67565b602082019050919050565b60006161ba600683616766565b91506161c582616b90565b602082019050919050565b60006161dd600683616766565b91506161e882616bb9565b602082019050919050565b6000616200600983616766565b915061620b82616be2565b602082019050919050565b6000616223600383616766565b915061622e82616c0b565b602082019050919050565b6000616246600783616766565b915061625182616c34565b602082019050919050565b6000616269600883616766565b915061627482616c5d565b602082019050919050565b600061628c600a83616766565b915061629782616c86565b602082019050919050565b60006162af600683616766565b91506162ba82616caf565b602082019050919050565b6162ce816168dc565b82525050565b6162dd816168e6565b82525050565b60006020820190506162f86000830184615ff8565b92915050565b60006040820190506163136000830185615ff8565b6163206020830184615ff8565b9392505050565b600060408201905061633c6000830185615ff8565b61634960208301846162c5565b9392505050565b60006020820190506163656000830184616007565b92915050565b600060208201905081810360008301526163858184616016565b905092915050565b600060208201905081810360008301526163a68161604f565b9050919050565b600060208201905081810360008301526163c681616072565b9050919050565b600060208201905081810360008301526163e681616095565b9050919050565b60006020820190508181036000830152616406816160b8565b9050919050565b60006020820190508181036000830152616426816160db565b9050919050565b60006020820190508181036000830152616446816160fe565b9050919050565b6000602082019050818103600083015261646681616121565b9050919050565b6000602082019050818103600083015261648681616144565b9050919050565b600060208201905081810360008301526164a681616167565b9050919050565b600060208201905081810360008301526164c68161618a565b9050919050565b600060208201905081810360008301526164e6816161ad565b9050919050565b60006020820190508181036000830152616506816161d0565b9050919050565b60006020820190508181036000830152616526816161f3565b9050919050565b6000602082019050818103600083015261654681616216565b9050919050565b6000602082019050818103600083015261656681616239565b9050919050565b600060208201905081810360008301526165868161625c565b9050919050565b600060208201905081810360008301526165a68161627f565b9050919050565b600060208201905081810360008301526165c6816162a2565b9050919050565b60006020820190506165e260008301846162c5565b92915050565b60006040820190506165fd60008301856162c5565b61660a6020830184615ff8565b9392505050565b600060608201905061662660008301866162c5565b6166336020830185615ff8565b6166406040830184615ff8565b949350505050565b600060408201905061665d60008301856162c5565b61666a60208301846162c5565b9392505050565b600060608201905061668660008301866162c5565b61669360208301856162c5565b6166a060408301846162c5565b949350505050565b60006080820190506166bd60008301876162c5565b6166ca60208301866162c5565b6166d760408301856162c5565b6166e460608301846162c5565b95945050505050565b600060a08201905061670260008301886162c5565b61670f60208301876162c5565b61671c60408301866162c5565b61672960608301856162c5565b61673660808301846162c5565b9695505050505050565b600060208201905061675560008301846162d4565b92915050565b600081519050919050565b600082825260208201905092915050565b6000616782826168dc565b915061678d836168dc565b9250827fffffffffffffffffffffffffffffffffffffffffffffffffffffffffffffffff038211156167c2576167c1616958565b5b828201905092915050565b60006167d8826168dc565b91506167e3836168dc565b9250826167f3576167f2616987565b5b828204905092915050565b6000616809826168dc565b9150616814836168dc565b9250817fffffffffffffffffffffffffffffffffffffffffffffffffffffffffffffffff048311821515161561684d5761684c616958565b5b828202905092915050565b6000616863826168dc565b915061686e836168dc565b92508282101561688157616880616958565b5b828203905092915050565b6000616897826168bc565b9050919050565b60008115159050919050565b60006168b58261688c565b9050919050565b600073ffffffffffffffffffffffffffffffffffffffff82169050919050565b6000819050919050565b600060ff82169050919050565b60005b838110156169115780820151818401526020810190506168f6565b83811115616920576000848401525b50505050565b6000600282049050600182168061693e57607f821691505b60208210811415616952576169516169b6565b5b50919050565b7f4e487b7100000000000000000000000000000000000000000000000000000000600052601160045260246000fd5b7f4e487b7100000000000000000000000000000000000000000000000000000000600052601260045260246000fd5b7f4e487b7100000000000000000000000000000000000000000000000000000000600052602260045260246000fd5b6000601f19601f8301169050919050565b7f216163636f756e74000000000000000000000000000000000000000000000000600082015250565b7f214d415800000000000000000000000000000000000000000000000000000000600082015250565b7f21617070726f76616c0000000000000000000000000000000000000000000000600082015250565b7f2142616c616e6365640000000000000000000000000000000000000000000000600082015250565b7f2162616c616e6365000000000000000000000000000000000000000000000000600082015250565b7f21424153457c7c544f4b454e0000000000000000000000000000000000000000600082015250565b7f2153594e54480000000000000000000000000000000000000000000000000000600082015250565b7f2173746972726564000000000000000000000000000000000000000000000000600082015250565b7f214255524e000000000000000000000000000000000000000000000000000000600082015250565b7f217370656e646572000000000000000000000000000000000000000000000000600082015250565b7f2173796e74680000000000000000000000000000000000000000000000000000600082015250565b7f2156414c49440000000000000000000000000000000000000000000000000000600082015250565b7f217472616e736665720000000000000000000000000000000000000000000000600082015250565b7f5254430000000000000000000000000000000000000000000000000000000000600082015250565b7f2173656e64657200000000000000000000000000000000000000000000000000600082015250565b7f214d494e54494e47000000000000000000000000000000000000000000000000600082015250565b7f21494e4954494154454400000000000000000000000000000000000000000000600082015250565b7f216f776e65720000000000000000000000000000000000000000000000000000600082015250565b616ce18161688c565b8114616cec57600080fd5b50565b616cf88161689e565b8114616d0357600080fd5b50565b616d0f816168aa565b8114616d1a57600080fd5b50565b616d26816168dc565b8114616d3157600080fd5b5056fea2646970667358221220c0ec7fe54bfc5ed4d06ea4a60afea79838a8f3372e98d10b430e043913b4406764736f6c63430008030033",
  "linkReferences": {},
  "deployedLinkReferences": {}
}