{
  "_format": "hh-sol-artifact-1",
  "contractName": "Pool",
  "sourceName": "contracts/Pool.sol",
  "abi": [
    {
      "inputs": [
        {
          "internalType": "address",
          "name": "_base",
          "type": "address"
        },
        {
          "internalType": "address",
          "name": "_token",
          "type": "address"
        }
      ],
      "stateMutability": "nonpayable",
      "type": "constructor"
    },
    {
      "anonymous": false,
      "inputs": [
        {
          "indexed": true,
          "internalType": "address",
          "name": "member",
          "type": "address"
        },
        {
          "indexed": false,
          "internalType": "uint256",
          "name": "inputBase",
          "type": "uint256"
        },
        {
          "indexed": false,
          "internalType": "uint256",
          "name": "inputToken",
          "type": "uint256"
        },
        {
          "indexed": false,
          "internalType": "uint256",
          "name": "unitsIssued",
          "type": "uint256"
        }
      ],
      "name": "AddLiquidity",
      "type": "event"
    },
    {
      "anonymous": false,
      "inputs": [
        {
          "indexed": true,
          "internalType": "address",
          "name": "owner",
          "type": "address"
        },
        {
          "indexed": true,
          "internalType": "address",
          "name": "spender",
          "type": "address"
        },
        {
          "indexed": false,
          "internalType": "uint256",
          "name": "value",
          "type": "uint256"
        }
      ],
      "name": "Approval",
      "type": "event"
    },
    {
      "anonymous": false,
      "inputs": [
        {
          "indexed": true,
          "internalType": "address",
          "name": "member",
          "type": "address"
        },
        {
          "indexed": true,
          "internalType": "address",
          "name": "base",
          "type": "address"
        },
        {
          "indexed": false,
          "internalType": "uint256",
          "name": "baseAmount",
          "type": "uint256"
        },
        {
          "indexed": true,
          "internalType": "address",
          "name": "token",
          "type": "address"
        },
        {
          "indexed": false,
          "internalType": "uint256",
          "name": "synthAmount",
          "type": "uint256"
        }
      ],
      "name": "BurnSynth",
      "type": "event"
    },
    {
      "anonymous": false,
      "inputs": [
        {
          "indexed": true,
          "internalType": "address",
          "name": "member",
          "type": "address"
        },
        {
          "indexed": true,
          "internalType": "address",
          "name": "base",
          "type": "address"
        },
        {
          "indexed": false,
          "internalType": "uint256",
          "name": "baseAmount",
          "type": "uint256"
        },
        {
          "indexed": true,
          "internalType": "address",
          "name": "token",
          "type": "address"
        },
        {
          "indexed": false,
          "internalType": "uint256",
          "name": "synthAmount",
          "type": "uint256"
        }
      ],
      "name": "MintSynth",
      "type": "event"
    },
    {
      "anonymous": false,
      "inputs": [
        {
          "indexed": true,
          "internalType": "address",
          "name": "member",
          "type": "address"
        },
        {
          "indexed": false,
          "internalType": "uint256",
          "name": "outputBase",
          "type": "uint256"
        },
        {
          "indexed": false,
          "internalType": "uint256",
          "name": "outputToken",
          "type": "uint256"
        },
        {
          "indexed": false,
          "internalType": "uint256",
          "name": "unitsClaimed",
          "type": "uint256"
        }
      ],
      "name": "RemoveLiquidity",
      "type": "event"
    },
    {
      "anonymous": false,
      "inputs": [
        {
          "indexed": true,
          "internalType": "address",
          "name": "tokenFrom",
          "type": "address"
        },
        {
          "indexed": true,
          "internalType": "address",
          "name": "tokenTo",
          "type": "address"
        },
        {
          "indexed": true,
          "internalType": "address",
          "name": "recipient",
          "type": "address"
        },
        {
          "indexed": false,
          "internalType": "uint256",
          "name": "inputAmount",
          "type": "uint256"
        },
        {
          "indexed": false,
          "internalType": "uint256",
          "name": "outputAmount",
          "type": "uint256"
        },
        {
          "indexed": false,
          "internalType": "uint256",
          "name": "fee",
          "type": "uint256"
        }
      ],
      "name": "Swapped",
      "type": "event"
    },
    {
      "anonymous": false,
      "inputs": [
        {
          "indexed": true,
          "internalType": "address",
          "name": "from",
          "type": "address"
        },
        {
          "indexed": true,
          "internalType": "address",
          "name": "to",
          "type": "address"
        },
        {
          "indexed": false,
          "internalType": "uint256",
          "name": "value",
          "type": "uint256"
        }
      ],
      "name": "Transfer",
      "type": "event"
    },
    {
      "inputs": [],
      "name": "BASE",
      "outputs": [
        {
          "internalType": "address",
          "name": "",
          "type": "address"
        }
      ],
      "stateMutability": "view",
      "type": "function"
    },
    {
      "inputs": [],
      "name": "DEPLOYER",
      "outputs": [
        {
          "internalType": "address",
          "name": "",
          "type": "address"
        }
      ],
      "stateMutability": "view",
      "type": "function"
    },
    {
      "inputs": [],
      "name": "TOKEN",
      "outputs": [
        {
          "internalType": "address",
          "name": "",
          "type": "address"
        }
      ],
      "stateMutability": "view",
      "type": "function"
    },
    {
      "inputs": [],
      "name": "add",
      "outputs": [
        {
          "internalType": "uint256",
          "name": "liquidityUnits",
          "type": "uint256"
        }
      ],
      "stateMutability": "nonpayable",
      "type": "function"
    },
    {
      "inputs": [
        {
          "internalType": "address",
          "name": "member",
          "type": "address"
        }
      ],
      "name": "addForMember",
      "outputs": [
        {
          "internalType": "uint256",
          "name": "liquidityUnits",
          "type": "uint256"
        }
      ],
      "stateMutability": "nonpayable",
      "type": "function"
    },
    {
      "inputs": [
        {
          "internalType": "address",
          "name": "owner",
          "type": "address"
        },
        {
          "internalType": "address",
          "name": "spender",
          "type": "address"
        }
      ],
      "name": "allowance",
      "outputs": [
        {
          "internalType": "uint256",
          "name": "",
          "type": "uint256"
        }
      ],
      "stateMutability": "view",
      "type": "function"
    },
    {
      "inputs": [
        {
          "internalType": "address",
          "name": "spender",
          "type": "address"
        },
        {
          "internalType": "uint256",
          "name": "amount",
          "type": "uint256"
        }
      ],
      "name": "approve",
      "outputs": [
        {
          "internalType": "bool",
          "name": "",
          "type": "bool"
        }
      ],
      "stateMutability": "nonpayable",
      "type": "function"
    },
    {
      "inputs": [
        {
          "internalType": "address",
          "name": "recipient",
          "type": "address"
        },
        {
          "internalType": "uint256",
          "name": "amount",
          "type": "uint256"
        },
        {
          "internalType": "bytes",
          "name": "data",
          "type": "bytes"
        }
      ],
      "name": "approveAndCall",
      "outputs": [
        {
          "internalType": "bool",
          "name": "",
          "type": "bool"
        }
      ],
      "stateMutability": "nonpayable",
      "type": "function"
    },
    {
      "inputs": [
        {
          "internalType": "address",
          "name": "account",
          "type": "address"
        }
      ],
      "name": "balanceOf",
      "outputs": [
        {
          "internalType": "uint256",
          "name": "",
          "type": "uint256"
        }
      ],
      "stateMutability": "view",
      "type": "function"
    },
    {
      "inputs": [],
      "name": "baseAmount",
      "outputs": [
        {
          "internalType": "uint256",
          "name": "",
          "type": "uint256"
        }
      ],
      "stateMutability": "view",
      "type": "function"
    },
    {
      "inputs": [
        {
          "internalType": "uint256",
          "name": "amount",
          "type": "uint256"
        }
      ],
      "name": "burn",
      "outputs": [],
      "stateMutability": "nonpayable",
      "type": "function"
    },
    {
      "inputs": [
        {
          "internalType": "address",
          "name": "account",
          "type": "address"
        },
        {
          "internalType": "uint256",
          "name": "amount",
          "type": "uint256"
        }
      ],
      "name": "burnFrom",
      "outputs": [],
      "stateMutability": "nonpayable",
      "type": "function"
    },
    {
      "inputs": [
        {
          "internalType": "address",
          "name": "synthIN",
          "type": "address"
        },
        {
          "internalType": "address",
          "name": "member",
          "type": "address"
        }
      ],
      "name": "burnSynth",
      "outputs": [
        {
          "internalType": "uint256",
          "name": "outputAmount",
          "type": "uint256"
        },
        {
          "internalType": "uint256",
          "name": "fee",
          "type": "uint256"
        }
      ],
      "stateMutability": "nonpayable",
      "type": "function"
    },
    {
      "inputs": [],
      "name": "decimals",
      "outputs": [
        {
          "internalType": "uint8",
          "name": "",
          "type": "uint8"
        }
      ],
      "stateMutability": "view",
      "type": "function"
    },
    {
      "inputs": [
        {
          "internalType": "address",
          "name": "spender",
          "type": "address"
        },
        {
          "internalType": "uint256",
          "name": "subtractedValue",
          "type": "uint256"
        }
      ],
      "name": "decreaseAllowance",
      "outputs": [
        {
          "internalType": "bool",
          "name": "",
          "type": "bool"
        }
      ],
      "stateMutability": "nonpayable",
      "type": "function"
    },
    {
      "inputs": [],
      "name": "genesis",
      "outputs": [
        {
          "internalType": "uint256",
          "name": "",
          "type": "uint256"
        }
      ],
      "stateMutability": "view",
      "type": "function"
    },
    {
      "inputs": [
        {
          "internalType": "address",
          "name": "spender",
          "type": "address"
        },
        {
          "internalType": "uint256",
          "name": "addedValue",
          "type": "uint256"
        }
      ],
      "name": "increaseAllowance",
      "outputs": [
        {
          "internalType": "bool",
          "name": "",
          "type": "bool"
        }
      ],
      "stateMutability": "nonpayable",
      "type": "function"
    },
    {
      "inputs": [],
      "name": "map30DPoolRevenue",
      "outputs": [
        {
          "internalType": "uint256",
          "name": "",
          "type": "uint256"
        }
      ],
      "stateMutability": "view",
      "type": "function"
    },
    {
      "inputs": [],
      "name": "mapPast30DPoolRevenue",
      "outputs": [
        {
          "internalType": "uint256",
          "name": "",
          "type": "uint256"
        }
      ],
      "stateMutability": "view",
      "type": "function"
    },
    {
      "inputs": [
        {
          "internalType": "address",
          "name": "synthOut",
          "type": "address"
        },
        {
          "internalType": "address",
          "name": "member",
          "type": "address"
        }
      ],
      "name": "mintSynth",
      "outputs": [
        {
          "internalType": "uint256",
          "name": "outputAmount",
          "type": "uint256"
        },
        {
          "internalType": "uint256",
          "name": "fee",
          "type": "uint256"
        }
      ],
      "stateMutability": "nonpayable",
      "type": "function"
    },
    {
      "inputs": [],
      "name": "name",
      "outputs": [
        {
          "internalType": "string",
          "name": "",
          "type": "string"
        }
      ],
      "stateMutability": "view",
      "type": "function"
    },
    {
      "inputs": [],
      "name": "remove",
      "outputs": [
        {
          "internalType": "uint256",
          "name": "outputBase",
          "type": "uint256"
        },
        {
          "internalType": "uint256",
          "name": "outputToken",
          "type": "uint256"
        }
      ],
      "stateMutability": "nonpayable",
      "type": "function"
    },
    {
      "inputs": [
        {
          "internalType": "address",
          "name": "member",
          "type": "address"
        }
      ],
      "name": "removeForMember",
      "outputs": [
        {
          "internalType": "uint256",
          "name": "outputBase",
          "type": "uint256"
        },
        {
          "internalType": "uint256",
          "name": "outputToken",
          "type": "uint256"
        }
      ],
      "stateMutability": "nonpayable",
      "type": "function"
    },
    {
      "inputs": [
        {
          "internalType": "uint256",
          "name": "",
          "type": "uint256"
        }
      ],
      "name": "revenueArray",
      "outputs": [
        {
          "internalType": "uint256",
          "name": "",
          "type": "uint256"
        }
      ],
      "stateMutability": "view",
      "type": "function"
    },
    {
      "inputs": [
        {
          "internalType": "address",
          "name": "token",
          "type": "address"
        }
      ],
      "name": "swap",
      "outputs": [
        {
          "internalType": "uint256",
          "name": "outputAmount",
          "type": "uint256"
        },
        {
          "internalType": "uint256",
          "name": "fee",
          "type": "uint256"
        }
      ],
      "stateMutability": "nonpayable",
      "type": "function"
    },
    {
      "inputs": [
        {
          "internalType": "address",
          "name": "token",
          "type": "address"
        },
        {
          "internalType": "address",
          "name": "member",
          "type": "address"
        }
      ],
      "name": "swapTo",
      "outputs": [
        {
          "internalType": "uint256",
          "name": "outputAmount",
          "type": "uint256"
        },
        {
          "internalType": "uint256",
          "name": "fee",
          "type": "uint256"
        }
      ],
      "stateMutability": "payable",
      "type": "function"
    },
    {
      "inputs": [],
      "name": "symbol",
      "outputs": [
        {
          "internalType": "string",
          "name": "",
          "type": "string"
        }
      ],
      "stateMutability": "view",
      "type": "function"
    },
    {
      "inputs": [],
      "name": "sync",
      "outputs": [],
      "stateMutability": "nonpayable",
      "type": "function"
    },
    {
      "inputs": [],
      "name": "tokenAmount",
      "outputs": [
        {
          "internalType": "uint256",
          "name": "",
          "type": "uint256"
        }
      ],
      "stateMutability": "view",
      "type": "function"
    },
    {
      "inputs": [],
      "name": "totalSupply",
      "outputs": [
        {
          "internalType": "uint256",
          "name": "",
          "type": "uint256"
        }
      ],
      "stateMutability": "view",
      "type": "function"
    },
    {
      "inputs": [
        {
          "internalType": "address",
          "name": "recipient",
          "type": "address"
        },
        {
          "internalType": "uint256",
          "name": "amount",
          "type": "uint256"
        }
      ],
      "name": "transfer",
      "outputs": [
        {
          "internalType": "bool",
          "name": "",
          "type": "bool"
        }
      ],
      "stateMutability": "nonpayable",
      "type": "function"
    },
    {
      "inputs": [
        {
          "internalType": "address",
          "name": "recipient",
          "type": "address"
        },
        {
          "internalType": "uint256",
          "name": "amount",
          "type": "uint256"
        },
        {
          "internalType": "bytes",
          "name": "data",
          "type": "bytes"
        }
      ],
      "name": "transferAndCall",
      "outputs": [
        {
          "internalType": "bool",
          "name": "",
          "type": "bool"
        }
      ],
      "stateMutability": "nonpayable",
      "type": "function"
    },
    {
      "inputs": [
        {
          "internalType": "address",
          "name": "sender",
          "type": "address"
        },
        {
          "internalType": "address",
          "name": "recipient",
          "type": "address"
        },
        {
          "internalType": "uint256",
          "name": "amount",
          "type": "uint256"
        }
      ],
      "name": "transferFrom",
      "outputs": [
        {
          "internalType": "bool",
          "name": "",
          "type": "bool"
        }
      ],
      "stateMutability": "nonpayable",
      "type": "function"
    }
  ],
  "bytecode": "0x60806040523480156200001157600080fd5b5060405162004e7838038062004e7883398181016040528101906200003791906200045f565b816000806101000a81548173ffffffffffffffffffffffffffffffffffffffff021916908373ffffffffffffffffffffffffffffffffffffffff16021790555080600160006101000a81548173ffffffffffffffffffffffffffffffffffffffff021916908373ffffffffffffffffffffffffffffffffffffffff16021790555060006040518060400160405280601481526020017f2d5370617274616e50726f746f636f6c506f6f6c000000000000000000000000815250905060006040518060400160405280600481526020017f2d5350500000000000000000000000000000000000000000000000000000000081525090508273ffffffffffffffffffffffffffffffffffffffff166306fdde036040518163ffffffff1660e01b815260040160006040518083038186803b1580156200017357600080fd5b505afa15801562000188573d6000803e3d6000fd5b505050506040513d6000823e3d601f19601f82011682018060405250810190620001b39190620004a0565b82604051602001620001c79291906200051c565b60405160208183030381529060405260039080519060200190620001ed92919062000326565b508273ffffffffffffffffffffffffffffffffffffffff166395d89b416040518163ffffffff1660e01b815260040160006040518083038186803b1580156200023557600080fd5b505afa1580156200024a573d6000803e3d6000fd5b505050506040513d6000823e3d601f19601f82011682018060405250810190620002759190620004a0565b81604051602001620002899291906200051c565b60405160208183030381529060405260049080519060200190620002af92919062000326565b506012600560006101000a81548160ff021916908360ff16021790555042600c8190555033600260006101000a81548173ffffffffffffffffffffffffffffffffffffffff021916908373ffffffffffffffffffffffffffffffffffffffff1602179055506000600b819055505050505062000718565b828054620003349062000623565b90600052602060002090601f016020900481019282620003585760008555620003a4565b82601f106200037357805160ff1916838001178555620003a4565b82800160010185558215620003a4579182015b82811115620003a357825182559160200191906001019062000386565b5b509050620003b39190620003b7565b5090565b5b80821115620003d2576000816000905550600101620003b8565b5090565b6000620003ed620003e7846200056d565b62000544565b9050828152602081018484840111156200040657600080fd5b62000413848285620005ed565b509392505050565b6000815190506200042c81620006fe565b92915050565b600082601f8301126200044457600080fd5b815162000456848260208601620003d6565b91505092915050565b600080604083850312156200047357600080fd5b600062000483858286016200041b565b925050602062000496858286016200041b565b9150509250929050565b600060208284031215620004b357600080fd5b600082015167ffffffffffffffff811115620004ce57600080fd5b620004dc8482850162000432565b91505092915050565b6000620004f282620005a3565b620004fe8185620005ae565b935062000510818560208601620005ed565b80840191505092915050565b60006200052a8285620004e5565b9150620005388284620004e5565b91508190509392505050565b60006200055062000563565b90506200055e828262000659565b919050565b6000604051905090565b600067ffffffffffffffff8211156200058b576200058a620006be565b5b6200059682620006ed565b9050602081019050919050565b600081519050919050565b600081905092915050565b6000620005c682620005cd565b9050919050565b600073ffffffffffffffffffffffffffffffffffffffff82169050919050565b60005b838110156200060d578082015181840152602081019050620005f0565b838111156200061d576000848401525b50505050565b600060028204905060018216806200063c57607f821691505b602082108114156200065357620006526200068f565b5b50919050565b6200066482620006ed565b810181811067ffffffffffffffff82111715620006865762000685620006be565b5b80604052505050565b7f4e487b7100000000000000000000000000000000000000000000000000000000600052602260045260246000fd5b7f4e487b7100000000000000000000000000000000000000000000000000000000600052604160045260246000fd5b6000601f19601f8301169050919050565b6200070981620005b9565b81146200071557600080fd5b50565b61475080620007286000396000f3fe6080604052600436106101ee5760003560e01c8063752d77931161010d578063a9059cbb116100a0578063dd62ed3e1161006f578063dd62ed3e14610798578063ec342ad0146107d5578063eec7faa114610800578063f0337cdc1461082b578063fff6cae914610868576101ee565b8063a9059cbb146106b5578063bc5dedc9146106f2578063c1b8411a14610730578063cae9ca511461075b576101ee565b806395d89b41116100dc57806395d89b41146105f6578063a457c2d714610621578063a7f0b3de1461065e578063a7f4377914610689576101ee565b8063752d77931461053a57806379cc67901461056557806382bfefc81461058e57806386d5f618146105b9576101ee565b80634000aea0116101855780635c537386116101545780635c537386146104565780635f83e5d5146104945780636aff9454146104bf57806370a08231146104fd576101ee565b80634000aea01461039a57806342966c68146103d75780634864d140146104005780634f2be91f1461042b576101ee565b806323b872dd116101c157806323b872dd146102c45780632783e4a914610301578063313ce56714610332578063395093511461035d576101ee565b806303438dd0146101f357806306fdde0314610231578063095ea7b31461025c57806318160ddd14610299575b600080fd5b3480156101ff57600080fd5b5061021a60048036038101906102159190613be4565b61087f565b604051610228929190614254565b60405180910390f35b34801561023d57600080fd5b50610246610899565b6040516102539190614097565b60405180910390f35b34801561026857600080fd5b50610283600480360381019061027e9190613cc1565b61092b565b604051610290919061407c565b60405180910390f35b3480156102a557600080fd5b506102ae610942565b6040516102bb91906141d9565b60405180910390f35b3480156102d057600080fd5b506102eb60048036038101906102e69190613c72565b610948565b6040516102f8919061407c565b60405180910390f35b61031b60048036038101906103169190613c36565b610ae0565b604051610329929190614254565b60405180910390f35b34801561033e57600080fd5b50610347610dbb565b6040516103549190614307565b60405180910390f35b34801561036957600080fd5b50610384600480360381019061037f9190613cc1565b610dce565b604051610391919061407c565b60405180910390f35b3480156103a657600080fd5b506103c160048036038101906103bc9190613cfd565b610e6c565b6040516103ce919061407c565b60405180910390f35b3480156103e357600080fd5b506103fe60048036038101906103f99190613dbb565b610ef8565b005b34801561040c57600080fd5b50610415610f05565b60405161042291906141d9565b60405180910390f35b34801561043757600080fd5b50610440610f0b565b60405161044d91906141d9565b60405180910390f35b34801561046257600080fd5b5061047d60048036038101906104789190613c36565b610f1b565b60405161048b929190614254565b60405180910390f35b3480156104a057600080fd5b506104a961166f565b6040516104b691906141d9565b60405180910390f35b3480156104cb57600080fd5b506104e660048036038101906104e19190613c36565b611675565b6040516104f4929190614254565b60405180910390f35b34801561050957600080fd5b50610524600480360381019061051f9190613be4565b611d25565b60405161053191906141d9565b60405180910390f35b34801561054657600080fd5b5061054f611d6e565b60405161055c91906141d9565b60405180910390f35b34801561057157600080fd5b5061058c60048036038101906105879190613cc1565b611d74565b005b34801561059a57600080fd5b506105a3611da7565b6040516105b09190613fea565b60405180910390f35b3480156105c557600080fd5b506105e060048036038101906105db9190613be4565b611dcd565b6040516105ed91906141d9565b60405180910390f35b34801561060257600080fd5b5061060b611fda565b6040516106189190614097565b60405180910390f35b34801561062d57600080fd5b5061064860048036038101906106439190613cc1565b61206c565b604051610655919061407c565b60405180910390f35b34801561066a57600080fd5b50610673612152565b60405161068091906141d9565b60405180910390f35b34801561069557600080fd5b5061069e612158565b6040516106ac929190614254565b60405180910390f35b3480156106c157600080fd5b506106dc60048036038101906106d79190613cc1565b61216c565b6040516106e9919061407c565b60405180910390f35b3480156106fe57600080fd5b5061071960048036038101906107149190613be4565b612183565b604051610727929190614254565b60405180910390f35b34801561073c57600080fd5b506107456125c5565b6040516107529190613fea565b60405180910390f35b34801561076757600080fd5b50610782600480360381019061077d9190613cfd565b6125eb565b60405161078f919061407c565b60405180910390f35b3480156107a457600080fd5b506107bf60048036038101906107ba9190613c36565b612697565b6040516107cc91906141d9565b60405180910390f35b3480156107e157600080fd5b506107ea61271e565b6040516107f79190613fea565b60405180910390f35b34801561080c57600080fd5b50610815612742565b60405161082291906141d9565b60405180910390f35b34801561083757600080fd5b50610852600480360381019061084d9190613dbb565b612748565b60405161085f91906141d9565b60405180910390f35b34801561087457600080fd5b5061087d61276c565b005b60008061088c8333610ae0565b8092508193505050915091565b6060600380546108a8906144ac565b80601f01602080910402602001604051908101604052809291908181526020018280546108d4906144ac565b80156109215780601f106108f657610100808354040283529160200191610921565b820191906000526020600020905b81548152906001019060200180831161090457829003601f168201915b5050505050905090565b60006109383384846128ce565b6001905092915050565b60065481565b6000610955848484612b3e565b7fffffffffffffffffffffffffffffffffffffffffffffffffffffffffffffffff600860008673ffffffffffffffffffffffffffffffffffffffff1673ffffffffffffffffffffffffffffffffffffffff16815260200190815260200160002060003373ffffffffffffffffffffffffffffffffffffffff1673ffffffffffffffffffffffffffffffffffffffff168152602001908152602001600020541015610ad5576000600860008673ffffffffffffffffffffffffffffffffffffffff1673ffffffffffffffffffffffffffffffffffffffff16815260200190815260200160002060003373ffffffffffffffffffffffffffffffffffffffff1673ffffffffffffffffffffffffffffffffffffffff16815260200190815260200160002054905082811015610abd576040517f08c379a0000000000000000000000000000000000000000000000000000000008152600401610ab4906140d9565b60405180910390fd5b610ad385338584610ace91906143a5565b6128ce565b505b600190509392505050565b60008060008054906101000a900473ffffffffffffffffffffffffffffffffffffffff1673ffffffffffffffffffffffffffffffffffffffff168473ffffffffffffffffffffffffffffffffffffffff161480610b8a5750600160009054906101000a900473ffffffffffffffffffffffffffffffffffffffff1673ffffffffffffffffffffffffffffffffffffffff168473ffffffffffffffffffffffffffffffffffffffff16145b610bc9576040517f08c379a0000000000000000000000000000000000000000000000000000000008152600401610bc090614139565b60405180910390fd5b60008060008054906101000a900473ffffffffffffffffffffffffffffffffffffffff1673ffffffffffffffffffffffffffffffffffffffff168673ffffffffffffffffffffffffffffffffffffffff161415610c6557600160009054906101000a900473ffffffffffffffffffffffffffffffffffffffff169150610c4d612d4c565b9050610c5881612e24565b8094508195505050610ca4565b60008054906101000a900473ffffffffffffffffffffffffffffffffffffffff169150610c9061308b565b9050610c9b81613161565b80945081955050505b8473ffffffffffffffffffffffffffffffffffffffff168673ffffffffffffffffffffffffffffffffffffffff168373ffffffffffffffffffffffffffffffffffffffff167fc9163c3bdf7263acf1bb3d24072cc7da025f7181c31e2edc7e1673edf5e0ca32848888604051610d1c9392919061427d565b60405180910390a48573ffffffffffffffffffffffffffffffffffffffff1663a9059cbb86866040518363ffffffff1660e01b8152600401610d5f929190614005565b602060405180830381600087803b158015610d7957600080fd5b505af1158015610d8d573d6000803e3d6000fd5b505050506040513d601f19601f82011682018060405250810190610db19190613d69565b5050509250929050565b600560009054906101000a900460ff1681565b6000610e62338484600860003373ffffffffffffffffffffffffffffffffffffffff1673ffffffffffffffffffffffffffffffffffffffff16815260200190815260200160002060008873ffffffffffffffffffffffffffffffffffffffff1673ffffffffffffffffffffffffffffffffffffffff16815260200190815260200160002054610e5d919061434f565b6128ce565b6001905092915050565b6000610e79338686612b3e565b8473ffffffffffffffffffffffffffffffffffffffff1663cf4d253530863387876040518663ffffffff1660e01b8152600401610eba95949392919061402e565b600060405180830381600087803b158015610ed457600080fd5b505af1158015610ee8573d6000803e3d6000fd5b5050505060019050949350505050565b610f0233826134fe565b50565b60095481565b6000610f1633611dcd565b905090565b60008060011515610f2a6136c9565b73ffffffffffffffffffffffffffffffffffffffff1663b93ec54b6040518163ffffffff1660e01b815260040160206040518083038186803b158015610f6f57600080fd5b505afa158015610f83573d6000803e3d6000fd5b505050506040513d601f19601f82011682018060405250810190610fa79190613c0d565b73ffffffffffffffffffffffffffffffffffffffff16635e0237ea866040518263ffffffff1660e01b8152600401610fdf9190613fea565b60206040518083038186803b158015610ff757600080fd5b505afa15801561100b573d6000803e3d6000fd5b505050506040513d601f19601f8201168201806040525081019061102f9190613d69565b151514611071576040517f08c379a000000000000000000000000000000000000000000000000000000000815260040161106890614179565b60405180910390fd5b600061107b61308b565b905060006110876136c9565b73ffffffffffffffffffffffffffffffffffffffff16637b0e5c456040518163ffffffff1660e01b815260040160206040518083038186803b1580156110cc57600080fd5b505afa1580156110e0573d6000803e3d6000fd5b505050506040513d601f19601f820116820180604052508101906111049190613c0d565b73ffffffffffffffffffffffffffffffffffffffff1663701baaf383600954600a546040518463ffffffff1660e01b81526004016111449392919061427d565b60206040518083038186803b15801561115c57600080fd5b505afa158015611170573d6000803e3d6000fd5b505050506040513d601f19601f820116820180604052508101906111949190613de4565b905060006111a06136c9565b73ffffffffffffffffffffffffffffffffffffffff16637b0e5c456040518163ffffffff1660e01b815260040160206040518083038186803b1580156111e557600080fd5b505afa1580156111f9573d6000803e3d6000fd5b505050506040513d601f19601f8201168201806040525081019061121d9190613c0d565b73ffffffffffffffffffffffffffffffffffffffff1663b86a82ef84306040518363ffffffff1660e01b81526004016112579291906141f4565b60206040518083038186803b15801561126f57600080fd5b505afa158015611283573d6000803e3d6000fd5b505050506040513d601f19601f820116820180604052508101906112a79190613de4565b90506112b483600061376f565b60006112be6136c9565b73ffffffffffffffffffffffffffffffffffffffff16637b0e5c456040518163ffffffff1660e01b815260040160206040518083038186803b15801561130357600080fd5b505afa158015611317573d6000803e3d6000fd5b505050506040513d601f19601f8201168201806040525081019061133b9190613c0d565b73ffffffffffffffffffffffffffffffffffffffff1663896a708c85600954600a546040518463ffffffff1660e01b815260040161137b9392919061427d565b60206040518083038186803b15801561139357600080fd5b505afa1580156113a7573d6000803e3d6000fd5b505050506040513d601f19601f820116820180604052508101906113cb9190613de4565b90506113d56136c9565b73ffffffffffffffffffffffffffffffffffffffff16637b0e5c456040518163ffffffff1660e01b815260040160206040518083038186803b15801561141a57600080fd5b505afa15801561142e573d6000803e3d6000fd5b505050506040513d601f19601f820116820180604052508101906114529190613c0d565b73ffffffffffffffffffffffffffffffffffffffff1663c19387df600160009054906101000a900473ffffffffffffffffffffffffffffffffffffffff16836040518363ffffffff1660e01b81526004016114ae929190614005565b60206040518083038186803b1580156114c657600080fd5b505afa1580156114da573d6000803e3d6000fd5b505050506040513d601f19601f820116820180604052508101906114fe9190613de4565b945061150a88836137a5565b8773ffffffffffffffffffffffffffffffffffffffff166332f302e388856040518363ffffffff1660e01b8152600401611545929190614005565b602060405180830381600087803b15801561155f57600080fd5b505af1158015611573573d6000803e3d6000fd5b505050506040513d601f19601f820116820180604052508101906115979190613de4565b506115a1856138ee565b600160009054906101000a900473ffffffffffffffffffffffffffffffffffffffff1673ffffffffffffffffffffffffffffffffffffffff1660008054906101000a900473ffffffffffffffffffffffffffffffffffffffff1673ffffffffffffffffffffffffffffffffffffffff168873ffffffffffffffffffffffffffffffffffffffff167fdce3fe53a2f7f31b00a24020bb4cef6c1d877f1ad4d43153c48d2ebe79eab50a878a604051611659929190614254565b60405180910390a4829550505050509250929050565b600d5481565b600080600115156116846136c9565b73ffffffffffffffffffffffffffffffffffffffff1663b93ec54b6040518163ffffffff1660e01b815260040160206040518083038186803b1580156116c957600080fd5b505afa1580156116dd573d6000803e3d6000fd5b505050506040513d601f19601f820116820180604052508101906117019190613c0d565b73ffffffffffffffffffffffffffffffffffffffff16635e0237ea866040518263ffffffff1660e01b81526004016117399190613fea565b60206040518083038186803b15801561175157600080fd5b505afa158015611765573d6000803e3d6000fd5b505050506040513d601f19601f820116820180604052508101906117899190613d69565b1515146117cb576040517f08c379a00000000000000000000000000000000000000000000000000000000081526004016117c290614179565b60405180910390fd5b60008473ffffffffffffffffffffffffffffffffffffffff166370a08231306040518263ffffffff1660e01b81526004016118069190613fea565b60206040518083038186803b15801561181e57600080fd5b505afa158015611832573d6000803e3d6000fd5b505050506040513d601f19601f820116820180604052508101906118569190613de4565b905060006118626136c9565b73ffffffffffffffffffffffffffffffffffffffff16637b0e5c456040518163ffffffff1660e01b815260040160206040518083038186803b1580156118a757600080fd5b505afa1580156118bb573d6000803e3d6000fd5b505050506040513d601f19601f820116820180604052508101906118df9190613c0d565b73ffffffffffffffffffffffffffffffffffffffff1663701baaf383600a546009546040518463ffffffff1660e01b815260040161191f9392919061427d565b60206040518083038186803b15801561193757600080fd5b505afa15801561194b573d6000803e3d6000fd5b505050506040513d601f19601f8201168201806040525081019061196f9190613de4565b90506119796136c9565b73ffffffffffffffffffffffffffffffffffffffff16637b0e5c456040518163ffffffff1660e01b815260040160206040518083038186803b1580156119be57600080fd5b505afa1580156119d2573d6000803e3d6000fd5b505050506040513d601f19601f820116820180604052508101906119f69190613c0d565b73ffffffffffffffffffffffffffffffffffffffff1663896a708c83600a546009546040518463ffffffff1660e01b8152600401611a369392919061427d565b60206040518083038186803b158015611a4e57600080fd5b505afa158015611a62573d6000803e3d6000fd5b505050506040513d601f19601f82011682018060405250810190611a869190613de4565b92508573ffffffffffffffffffffffffffffffffffffffff1663a9059cbb87846040518363ffffffff1660e01b8152600401611ac3929190614005565b602060405180830381600087803b158015611add57600080fd5b505af1158015611af1573d6000803e3d6000fd5b505050506040513d601f19601f82011682018060405250810190611b159190613d69565b508573ffffffffffffffffffffffffffffffffffffffff1663d950b6f36040518163ffffffff1660e01b8152600401602060405180830381600087803b158015611b5e57600080fd5b505af1158015611b72573d6000803e3d6000fd5b505050506040513d601f19601f82011682018060405250810190611b969190613de4565b50611ba281600061396c565b60008054906101000a900473ffffffffffffffffffffffffffffffffffffffff1673ffffffffffffffffffffffffffffffffffffffff1663a9059cbb86836040518363ffffffff1660e01b8152600401611bfd929190614005565b602060405180830381600087803b158015611c1757600080fd5b505af1158015611c2b573d6000803e3d6000fd5b505050506040513d601f19601f82011682018060405250810190611c4f9190613d69565b50611c59836138ee565b600160009054906101000a900473ffffffffffffffffffffffffffffffffffffffff1673ffffffffffffffffffffffffffffffffffffffff1660008054906101000a900473ffffffffffffffffffffffffffffffffffffffff1673ffffffffffffffffffffffffffffffffffffffff168673ffffffffffffffffffffffffffffffffffffffff167f63fc4d3cae2d0c437e2e9528b5ebad6a1236217cfae2fc54a8819fd8f626f0728486604051611d11929190614254565b60405180910390a480935050509250929050565b6000600760008373ffffffffffffffffffffffffffffffffffffffff1673ffffffffffffffffffffffffffffffffffffffff168152602001908152602001600020549050919050565b600e5481565b600081611d818433612697565b611d8b91906143a5565b9050611d988333836128ce565b611da283836134fe565b505050565b600160009054906101000a900473ffffffffffffffffffffffffffffffffffffffff1681565b600080611dd861308b565b90506000611de4612d4c565b905060006009541480611df957506000600a54145b15611e505760008214158015611e10575060008114155b611e4f576040517f08c379a0000000000000000000000000000000000000000000000000000000008152600401611e46906140f9565b60405180910390fd5b5b611e586136c9565b73ffffffffffffffffffffffffffffffffffffffff16637b0e5c456040518163ffffffff1660e01b815260040160206040518083038186803b158015611e9d57600080fd5b505afa158015611eb1573d6000803e3d6000fd5b505050506040513d601f19601f82011682018060405250810190611ed59190613c0d565b73ffffffffffffffffffffffffffffffffffffffff1663c5c11ee98360095484600a546006546040518663ffffffff1660e01b8152600401611f1b9594939291906142b4565b60206040518083038186803b158015611f3357600080fd5b505afa158015611f47573d6000803e3d6000fd5b505050506040513d601f19601f82011682018060405250810190611f6b9190613de4565b9250611f77828261376f565b611f8184846137a5565b8373ffffffffffffffffffffffffffffffffffffffff167fbeb3885786d637a474cbc287c0a44587231633a077f0bd30354d5a4b18996fce838386604051611fcb9392919061427d565b60405180910390a25050919050565b606060048054611fe9906144ac565b80601f0160208091040260200160405190810160405280929190818152602001828054612015906144ac565b80156120625780601f1061203757610100808354040283529160200191612062565b820191906000526020600020905b81548152906001019060200180831161204557829003601f168201915b5050505050905090565b600080600860003373ffffffffffffffffffffffffffffffffffffffff1673ffffffffffffffffffffffffffffffffffffffff16815260200190815260200160002060008573ffffffffffffffffffffffffffffffffffffffff1673ffffffffffffffffffffffffffffffffffffffff16815260200190815260200160002054905082811015612131576040517f08c379a0000000000000000000000000000000000000000000000000000000008152600401612128906140d9565b60405180910390fd5b6121473385858461214291906143a5565b6128ce565b600191505092915050565b600c5481565b60008061216433612183565b915091509091565b6000612179338484612b3e565b6001905092915050565b600080600061219130611d25565b905061219b6136c9565b73ffffffffffffffffffffffffffffffffffffffff16637b0e5c456040518163ffffffff1660e01b815260040160206040518083038186803b1580156121e057600080fd5b505afa1580156121f4573d6000803e3d6000fd5b505050506040513d601f19601f820116820180604052508101906122189190613c0d565b73ffffffffffffffffffffffffffffffffffffffff16635a7b2ed38260008054906101000a900473ffffffffffffffffffffffffffffffffffffffff16306040518463ffffffff1660e01b81526004016122749392919061421d565b60206040518083038186803b15801561228c57600080fd5b505afa1580156122a0573d6000803e3d6000fd5b505050506040513d601f19601f820116820180604052508101906122c49190613de4565b92506122ce6136c9565b73ffffffffffffffffffffffffffffffffffffffff16637b0e5c456040518163ffffffff1660e01b815260040160206040518083038186803b15801561231357600080fd5b505afa158015612327573d6000803e3d6000fd5b505050506040513d601f19601f8201168201806040525081019061234b9190613c0d565b73ffffffffffffffffffffffffffffffffffffffff16635a7b2ed382600160009054906101000a900473ffffffffffffffffffffffffffffffffffffffff16306040518463ffffffff1660e01b81526004016123a99392919061421d565b60206040518083038186803b1580156123c157600080fd5b505afa1580156123d5573d6000803e3d6000fd5b505050506040513d601f19601f820116820180604052508101906123f99190613de4565b9150612405838361396c565b61240f30826134fe565b60008054906101000a900473ffffffffffffffffffffffffffffffffffffffff1673ffffffffffffffffffffffffffffffffffffffff1663a9059cbb85856040518363ffffffff1660e01b815260040161246a929190614005565b602060405180830381600087803b15801561248457600080fd5b505af1158015612498573d6000803e3d6000fd5b505050506040513d601f19601f820116820180604052508101906124bc9190613d69565b50600160009054906101000a900473ffffffffffffffffffffffffffffffffffffffff1673ffffffffffffffffffffffffffffffffffffffff1663a9059cbb85846040518363ffffffff1660e01b815260040161251a929190614005565b602060405180830381600087803b15801561253457600080fd5b505af1158015612548573d6000803e3d6000fd5b505050506040513d601f19601f8201168201806040525081019061256c9190613d69565b508373ffffffffffffffffffffffffffffffffffffffff167f59c3a0b60c6ab7deb62e1440c9e72441db6db7dfe514dba8cb18e60c0d896efa8484846040516125b79392919061427d565b60405180910390a250915091565b600260009054906101000a900473ffffffffffffffffffffffffffffffffffffffff1681565b600061261833867fffffffffffffffffffffffffffffffffffffffffffffffffffffffffffffffff6128ce565b8473ffffffffffffffffffffffffffffffffffffffff16631ac562a730863387876040518663ffffffff1660e01b815260040161265995949392919061402e565b600060405180830381600087803b15801561267357600080fd5b505af1158015612687573d6000803e3d6000fd5b5050505060019050949350505050565b6000600860008473ffffffffffffffffffffffffffffffffffffffff1673ffffffffffffffffffffffffffffffffffffffff16815260200190815260200160002060008373ffffffffffffffffffffffffffffffffffffffff1673ffffffffffffffffffffffffffffffffffffffff16815260200190815260200160002054905092915050565b60008054906101000a900473ffffffffffffffffffffffffffffffffffffffff1681565b600a5481565b600f818154811061275857600080fd5b906000526020600020016000915090505481565b60008054906101000a900473ffffffffffffffffffffffffffffffffffffffff1673ffffffffffffffffffffffffffffffffffffffff166370a08231306040518263ffffffff1660e01b81526004016127c59190613fea565b60206040518083038186803b1580156127dd57600080fd5b505afa1580156127f1573d6000803e3d6000fd5b505050506040513d601f19601f820116820180604052508101906128159190613de4565b600981905550600160009054906101000a900473ffffffffffffffffffffffffffffffffffffffff1673ffffffffffffffffffffffffffffffffffffffff166370a08231306040518263ffffffff1660e01b81526004016128769190613fea565b60206040518083038186803b15801561288e57600080fd5b505afa1580156128a2573d6000803e3d6000fd5b505050506040513d601f19601f820116820180604052508101906128c69190613de4565b600a81905550565b600073ffffffffffffffffffffffffffffffffffffffff168373ffffffffffffffffffffffffffffffffffffffff16141561293e576040517f08c379a0000000000000000000000000000000000000000000000000000000008152600401612935906141b9565b60405180910390fd5b600073ffffffffffffffffffffffffffffffffffffffff168273ffffffffffffffffffffffffffffffffffffffff1614156129ae576040517f08c379a00000000000000000000000000000000000000000000000000000000081526004016129a590614159565b60405180910390fd5b7fffffffffffffffffffffffffffffffffffffffffffffffffffffffffffffffff600860008573ffffffffffffffffffffffffffffffffffffffff1673ffffffffffffffffffffffffffffffffffffffff16815260200190815260200160002060008473ffffffffffffffffffffffffffffffffffffffff1673ffffffffffffffffffffffffffffffffffffffff168152602001908152602001600020541015612b395780600860008573ffffffffffffffffffffffffffffffffffffffff1673ffffffffffffffffffffffffffffffffffffffff16815260200190815260200160002060008473ffffffffffffffffffffffffffffffffffffffff1673ffffffffffffffffffffffffffffffffffffffff168152602001908152602001600020819055508173ffffffffffffffffffffffffffffffffffffffff168373ffffffffffffffffffffffffffffffffffffffff167f8c5be1e5ebec7d5bd14f71427d1e84f3dd0314c0f7b2291e5b200ac8c7c3b92583604051612b3091906141d9565b60405180910390a35b505050565b600073ffffffffffffffffffffffffffffffffffffffff168373ffffffffffffffffffffffffffffffffffffffff161415612bae576040517f08c379a0000000000000000000000000000000000000000000000000000000008152600401612ba590614199565b60405180910390fd5b6000600760008573ffffffffffffffffffffffffffffffffffffffff1673ffffffffffffffffffffffffffffffffffffffff16815260200190815260200160002054905081811015612c35576040517f08c379a0000000000000000000000000000000000000000000000000000000008152600401612c2c90614119565b60405180910390fd5b81600760008673ffffffffffffffffffffffffffffffffffffffff1673ffffffffffffffffffffffffffffffffffffffff1681526020019081526020016000206000828254612c8491906143a5565b9250508190555081600760008573ffffffffffffffffffffffffffffffffffffffff1673ffffffffffffffffffffffffffffffffffffffff1681526020019081526020016000206000828254612cda919061434f565b925050819055508273ffffffffffffffffffffffffffffffffffffffff168473ffffffffffffffffffffffffffffffffffffffff167fddf252ad1be2c89b69c2b068fc378daa952ba7f163c4a11628f55a4df523b3ef84604051612d3e91906141d9565b60405180910390a350505050565b600080600160009054906101000a900473ffffffffffffffffffffffffffffffffffffffff1673ffffffffffffffffffffffffffffffffffffffff166370a08231306040518263ffffffff1660e01b8152600401612daa9190613fea565b60206040518083038186803b158015612dc257600080fd5b505afa158015612dd6573d6000803e3d6000fd5b505050506040513d601f19601f82011682018060405250810190612dfa9190613de4565b9050600a54811115612e1b57600a5481612e1491906143a5565b9150612e20565b600091505b5090565b6000806000600a54905060006009549050612e3d6136c9565b73ffffffffffffffffffffffffffffffffffffffff16637b0e5c456040518163ffffffff1660e01b815260040160206040518083038186803b158015612e8257600080fd5b505afa158015612e96573d6000803e3d6000fd5b505050506040513d601f19601f82011682018060405250810190612eba9190613c0d565b73ffffffffffffffffffffffffffffffffffffffff1663701baaf38684846040518463ffffffff1660e01b8152600401612ef69392919061427d565b60206040518083038186803b158015612f0e57600080fd5b505afa158015612f22573d6000803e3d6000fd5b505050506040513d601f19601f82011682018060405250810190612f469190613de4565b9350612f506136c9565b73ffffffffffffffffffffffffffffffffffffffff16637b0e5c456040518163ffffffff1660e01b815260040160206040518083038186803b158015612f9557600080fd5b505afa158015612fa9573d6000803e3d6000fd5b505050506040513d601f19601f82011682018060405250810190612fcd9190613c0d565b73ffffffffffffffffffffffffffffffffffffffff1663896a708c8684846040518463ffffffff1660e01b81526004016130099392919061427d565b60206040518083038186803b15801561302157600080fd5b505afa158015613035573d6000803e3d6000fd5b505050506040513d601f19601f820116820180604052508101906130599190613de4565b925061307b848261306a91906143a5565b8684613076919061434f565b6139a2565b613084836138ee565b5050915091565b60008060008054906101000a900473ffffffffffffffffffffffffffffffffffffffff1673ffffffffffffffffffffffffffffffffffffffff166370a08231306040518263ffffffff1660e01b81526004016130e79190613fea565b60206040518083038186803b1580156130ff57600080fd5b505afa158015613113573d6000803e3d6000fd5b505050506040513d601f19601f820116820180604052508101906131379190613de4565b9050600954811115613158576009548161315191906143a5565b915061315d565b600091505b5090565b600080600060095490506000600a54905061317a6136c9565b73ffffffffffffffffffffffffffffffffffffffff16637b0e5c456040518163ffffffff1660e01b815260040160206040518083038186803b1580156131bf57600080fd5b505afa1580156131d3573d6000803e3d6000fd5b505050506040513d601f19601f820116820180604052508101906131f79190613c0d565b73ffffffffffffffffffffffffffffffffffffffff1663701baaf38684846040518463ffffffff1660e01b81526004016132339392919061427d565b60206040518083038186803b15801561324b57600080fd5b505afa15801561325f573d6000803e3d6000fd5b505050506040513d601f19601f820116820180604052508101906132839190613de4565b9350600061328f6136c9565b73ffffffffffffffffffffffffffffffffffffffff16637b0e5c456040518163ffffffff1660e01b815260040160206040518083038186803b1580156132d457600080fd5b505afa1580156132e8573d6000803e3d6000fd5b505050506040513d601f19601f8201168201806040525081019061330c9190613c0d565b73ffffffffffffffffffffffffffffffffffffffff1663896a708c8785856040518463ffffffff1660e01b81526004016133489392919061427d565b60206040518083038186803b15801561336057600080fd5b505afa158015613374573d6000803e3d6000fd5b505050506040513d601f19601f820116820180604052508101906133989190613de4565b90506133a26136c9565b73ffffffffffffffffffffffffffffffffffffffff16637b0e5c456040518163ffffffff1660e01b815260040160206040518083038186803b1580156133e757600080fd5b505afa1580156133fb573d6000803e3d6000fd5b505050506040513d601f19601f8201168201806040525081019061341f9190613c0d565b73ffffffffffffffffffffffffffffffffffffffff1663c19387df600160009054906101000a900473ffffffffffffffffffffffffffffffffffffffff16836040518363ffffffff1660e01b815260040161347b929190614005565b60206040518083038186803b15801561349357600080fd5b505afa1580156134a7573d6000803e3d6000fd5b505050506040513d601f19601f820116820180604052508101906134cb9190613de4565b93506134ed86846134dc919061434f565b86846134e891906143a5565b6139a2565b6134f6846138ee565b505050915091565b600073ffffffffffffffffffffffffffffffffffffffff168273ffffffffffffffffffffffffffffffffffffffff16141561356e576040517f08c379a0000000000000000000000000000000000000000000000000000000008152600401613565906140b9565b60405180910390fd5b80600760008473ffffffffffffffffffffffffffffffffffffffff1673ffffffffffffffffffffffffffffffffffffffff1681526020019081526020016000205410156135f0576040517f08c379a00000000000000000000000000000000000000000000000000000000081526004016135e790614119565b60405180910390fd5b80600760008473ffffffffffffffffffffffffffffffffffffffff1673ffffffffffffffffffffffffffffffffffffffff168152602001908152602001600020600082825461363f91906143a5565b92505081905550806006600082825461365891906143a5565b92505081905550600073ffffffffffffffffffffffffffffffffffffffff168273ffffffffffffffffffffffffffffffffffffffff167fddf252ad1be2c89b69c2b068fc378daa952ba7f163c4a11628f55a4df523b3ef836040516136bd91906141d9565b60405180910390a35050565b60008060009054906101000a900473ffffffffffffffffffffffffffffffffffffffff1673ffffffffffffffffffffffffffffffffffffffff166398fabd3a6040518163ffffffff1660e01b815260040160206040518083038186803b15801561373257600080fd5b505afa158015613746573d6000803e3d6000fd5b505050506040513d601f19601f8201168201806040525081019061376a9190613d92565b905090565b8160096000828254613781919061434f565b9250508190555080600a600082825461379a919061434f565b925050819055505050565b600073ffffffffffffffffffffffffffffffffffffffff168273ffffffffffffffffffffffffffffffffffffffff161415613815576040517f08c379a000000000000000000000000000000000000000000000000000000000815260040161380c906140b9565b60405180910390fd5b8060066000828254613827919061434f565b9250508190555080600760008473ffffffffffffffffffffffffffffffffffffffff1673ffffffffffffffffffffffffffffffffffffffff168152602001908152602001600020600082825461387d919061434f565b925050819055508173ffffffffffffffffffffffffffffffffffffffff16600073ffffffffffffffffffffffffffffffffffffffff167fddf252ad1be2c89b69c2b068fc378daa952ba7f163c4a11628f55a4df523b3ef836040516138e291906141d9565b60405180910390a35050565b6000600b5414156139015742600b819055505b62278d00600b54613912919061434f565b42116139315780600d54613926919061434f565b600d81905550613969565b42600b81905550600d54600e8190555061394c600e546139b4565b6000600d8190555080600d54613962919061434f565b600d819055505b50565b816009600082825461397e91906143a5565b9250508190555080600a600082825461399791906143a5565b925050819055505050565b8160098190555080600a819055505050565b6002600f80549050146139ef57600f8190806001815401808255809150506001900390600052602060002001600090919091909150556139f9565b6139f8816139fc565b5b50565b6000600f8054905090506000600182613a1591906143a5565b90505b6000811115613acd57600f600182613a3091906143a5565b81548110613a67577f4e487b7100000000000000000000000000000000000000000000000000000000600052603260045260246000fd5b9060005260206000200154600f8281548110613aac577f4e487b7100000000000000000000000000000000000000000000000000000000600052603260045260246000fd5b90600052602060002001819055508080613ac590614482565b915050613a18565b5081600f600081548110613b0a577f4e487b7100000000000000000000000000000000000000000000000000000000600052603260045260246000fd5b90600052602060002001819055505050565b600081359050613b2b816146be565b92915050565b600081519050613b40816146be565b92915050565b600081519050613b55816146d5565b92915050565b60008083601f840112613b6d57600080fd5b8235905067ffffffffffffffff811115613b8657600080fd5b602083019150836001820283011115613b9e57600080fd5b9250929050565b600081519050613bb4816146ec565b92915050565b600081359050613bc981614703565b92915050565b600081519050613bde81614703565b92915050565b600060208284031215613bf657600080fd5b6000613c0484828501613b1c565b91505092915050565b600060208284031215613c1f57600080fd5b6000613c2d84828501613b31565b91505092915050565b60008060408385031215613c4957600080fd5b6000613c5785828601613b1c565b9250506020613c6885828601613b1c565b9150509250929050565b600080600060608486031215613c8757600080fd5b6000613c9586828701613b1c565b9350506020613ca686828701613b1c565b9250506040613cb786828701613bba565b9150509250925092565b60008060408385031215613cd457600080fd5b6000613ce285828601613b1c565b9250506020613cf385828601613bba565b9150509250929050565b60008060008060608587031215613d1357600080fd5b6000613d2187828801613b1c565b9450506020613d3287828801613bba565b935050604085013567ffffffffffffffff811115613d4f57600080fd5b613d5b87828801613b5b565b925092505092959194509250565b600060208284031215613d7b57600080fd5b6000613d8984828501613b46565b91505092915050565b600060208284031215613da457600080fd5b6000613db284828501613ba5565b91505092915050565b600060208284031215613dcd57600080fd5b6000613ddb84828501613bba565b91505092915050565b600060208284031215613df657600080fd5b6000613e0484828501613bcf565b91505092915050565b613e16816143d9565b82525050565b613e25816143eb565b82525050565b6000613e37838561432d565b9350613e44838584614440565b613e4d8361453c565b840190509392505050565b6000613e6382614322565b613e6d818561433e565b9350613e7d81856020860161444f565b613e868161453c565b840191505092915050565b6000613e9e60088361433e565b9150613ea98261454d565b602082019050919050565b6000613ec160098361433e565b9150613ecc82614576565b602082019050919050565b6000613ee460098361433e565b9150613eef8261459f565b602082019050919050565b6000613f0760088361433e565b9150613f12826145c8565b602082019050919050565b6000613f2a600c8361433e565b9150613f35826145f1565b602082019050919050565b6000613f4d60088361433e565b9150613f588261461a565b602082019050919050565b6000613f7060068361433e565b9150613f7b82614643565b602082019050919050565b6000613f9360078361433e565b9150613f9e8261466c565b602082019050919050565b6000613fb660068361433e565b9150613fc182614695565b602082019050919050565b613fd581614429565b82525050565b613fe481614433565b82525050565b6000602082019050613fff6000830184613e0d565b92915050565b600060408201905061401a6000830185613e0d565b6140276020830184613fcc565b9392505050565b60006080820190506140436000830188613e0d565b6140506020830187613fcc565b61405d6040830186613e0d565b8181036060830152614070818486613e2b565b90509695505050505050565b60006020820190506140916000830184613e1c565b92915050565b600060208201905081810360008301526140b18184613e58565b905092915050565b600060208201905081810360008301526140d281613e91565b9050919050565b600060208201905081810360008301526140f281613eb4565b9050919050565b6000602082019050818103600083015261411281613ed7565b9050919050565b6000602082019050818103600083015261413281613efa565b9050919050565b6000602082019050818103600083015261415281613f1d565b9050919050565b6000602082019050818103600083015261417281613f40565b9050919050565b6000602082019050818103600083015261419281613f63565b9050919050565b600060208201905081810360008301526141b281613f86565b9050919050565b600060208201905081810360008301526141d281613fa9565b9050919050565b60006020820190506141ee6000830184613fcc565b92915050565b60006040820190506142096000830185613fcc565b6142166020830184613e0d565b9392505050565b60006060820190506142326000830186613fcc565b61423f6020830185613e0d565b61424c6040830184613e0d565b949350505050565b60006040820190506142696000830185613fcc565b6142766020830184613fcc565b9392505050565b60006060820190506142926000830186613fcc565b61429f6020830185613fcc565b6142ac6040830184613fcc565b949350505050565b600060a0820190506142c96000830188613fcc565b6142d66020830187613fcc565b6142e36040830186613fcc565b6142f06060830185613fcc565b6142fd6080830184613fcc565b9695505050505050565b600060208201905061431c6000830184613fdb565b92915050565b600081519050919050565b600082825260208201905092915050565b600082825260208201905092915050565b600061435a82614429565b915061436583614429565b9250827fffffffffffffffffffffffffffffffffffffffffffffffffffffffffffffffff0382111561439a576143996144de565b5b828201905092915050565b60006143b082614429565b91506143bb83614429565b9250828210156143ce576143cd6144de565b5b828203905092915050565b60006143e482614409565b9050919050565b60008115159050919050565b6000614402826143d9565b9050919050565b600073ffffffffffffffffffffffffffffffffffffffff82169050919050565b6000819050919050565b600060ff82169050919050565b82818337600083830152505050565b60005b8381101561446d578082015181840152602081019050614452565b8381111561447c576000848401525b50505050565b600061448d82614429565b915060008214156144a1576144a06144de565b5b600182039050919050565b600060028204905060018216806144c457607f821691505b602082108114156144d8576144d761450d565b5b50919050565b7f4e487b7100000000000000000000000000000000000000000000000000000000600052601160045260246000fd5b7f4e487b7100000000000000000000000000000000000000000000000000000000600052602260045260246000fd5b6000601f19601f8301169050919050565b7f216163636f756e74000000000000000000000000000000000000000000000000600082015250565b7f21617070726f76616c0000000000000000000000000000000000000000000000600082015250565b7f2142616c616e6365640000000000000000000000000000000000000000000000600082015250565b7f2162616c616e6365000000000000000000000000000000000000000000000000600082015250565b7f21424153457c7c544f4b454e0000000000000000000000000000000000000000600082015250565b7f217370656e646572000000000000000000000000000000000000000000000000600082015250565b7f2173796e74680000000000000000000000000000000000000000000000000000600082015250565b7f2173656e64657200000000000000000000000000000000000000000000000000600082015250565b7f216f776e65720000000000000000000000000000000000000000000000000000600082015250565b6146c7816143d9565b81146146d257600080fd5b50565b6146de816143eb565b81146146e957600080fd5b50565b6146f5816143f7565b811461470057600080fd5b50565b61470c81614429565b811461471757600080fd5b5056fea26469706673582212208b20dfab075e61f13e221af09e96a226a05e2a4d8fa060ddd21989259788d97064736f6c63430008030033",
  "linkReferences": {},
  "deployedLinkReferences": {}
}