{
  "_format": "hh-sol-artifact-1",
  "contractName": "Pool",
  "sourceName": "contracts/Pool.sol",
  "abi": [
    {
      "inputs": [
        {
          "internalType": "address",
          "name": "_base",
          "type": "address"
        },
        {
          "internalType": "address",
          "name": "_token",
          "type": "address"
        }
      ],
      "stateMutability": "nonpayable",
      "type": "constructor"
    },
    {
      "anonymous": false,
      "inputs": [
        {
          "indexed": true,
          "internalType": "address",
          "name": "member",
          "type": "address"
        },
        {
          "indexed": false,
          "internalType": "uint256",
          "name": "inputBase",
          "type": "uint256"
        },
        {
          "indexed": false,
          "internalType": "uint256",
          "name": "inputToken",
          "type": "uint256"
        },
        {
          "indexed": false,
          "internalType": "uint256",
          "name": "unitsIssued",
          "type": "uint256"
        }
      ],
      "name": "AddLiquidity",
      "type": "event"
    },
    {
      "anonymous": false,
      "inputs": [
        {
          "indexed": true,
          "internalType": "address",
          "name": "owner",
          "type": "address"
        },
        {
          "indexed": true,
          "internalType": "address",
          "name": "spender",
          "type": "address"
        },
        {
          "indexed": false,
          "internalType": "uint256",
          "name": "value",
          "type": "uint256"
        }
      ],
      "name": "Approval",
      "type": "event"
    },
    {
      "anonymous": false,
      "inputs": [
        {
          "indexed": true,
          "internalType": "address",
          "name": "member",
          "type": "address"
        },
        {
          "indexed": false,
          "internalType": "uint256",
          "name": "baseAmount",
          "type": "uint256"
        },
        {
          "indexed": false,
          "internalType": "uint256",
          "name": "liqUnits",
          "type": "uint256"
        },
        {
          "indexed": false,
          "internalType": "uint256",
          "name": "synthAmount",
          "type": "uint256"
        },
        {
          "indexed": false,
          "internalType": "uint256",
          "name": "fee",
          "type": "uint256"
        }
      ],
      "name": "BurnSynth",
      "type": "event"
    },
    {
      "anonymous": false,
      "inputs": [
        {
          "indexed": true,
          "internalType": "address",
          "name": "member",
          "type": "address"
        },
        {
          "indexed": false,
          "internalType": "uint256",
          "name": "baseAmount",
          "type": "uint256"
        },
        {
          "indexed": false,
          "internalType": "uint256",
          "name": "liqUnits",
          "type": "uint256"
        },
        {
          "indexed": false,
          "internalType": "uint256",
          "name": "synthAmount",
          "type": "uint256"
        },
        {
          "indexed": false,
          "internalType": "uint256",
          "name": "fee",
          "type": "uint256"
        }
      ],
      "name": "MintSynth",
      "type": "event"
    },
    {
      "anonymous": false,
      "inputs": [
        {
          "indexed": true,
          "internalType": "address",
          "name": "member",
          "type": "address"
        },
        {
          "indexed": false,
          "internalType": "uint256",
          "name": "outputBase",
          "type": "uint256"
        },
        {
          "indexed": false,
          "internalType": "uint256",
          "name": "outputToken",
          "type": "uint256"
        },
        {
          "indexed": false,
          "internalType": "uint256",
          "name": "unitsClaimed",
          "type": "uint256"
        }
      ],
      "name": "RemoveLiquidity",
      "type": "event"
    },
    {
      "anonymous": false,
      "inputs": [
        {
          "indexed": true,
          "internalType": "address",
          "name": "tokenFrom",
          "type": "address"
        },
        {
          "indexed": true,
          "internalType": "address",
          "name": "tokenTo",
          "type": "address"
        },
        {
          "indexed": true,
          "internalType": "address",
          "name": "recipient",
          "type": "address"
        },
        {
          "indexed": false,
          "internalType": "uint256",
          "name": "inputAmount",
          "type": "uint256"
        },
        {
          "indexed": false,
          "internalType": "uint256",
          "name": "outputAmount",
          "type": "uint256"
        },
        {
          "indexed": false,
          "internalType": "uint256",
          "name": "fee",
          "type": "uint256"
        }
      ],
      "name": "Swapped",
      "type": "event"
    },
    {
      "anonymous": false,
      "inputs": [
        {
          "indexed": true,
          "internalType": "address",
          "name": "from",
          "type": "address"
        },
        {
          "indexed": true,
          "internalType": "address",
          "name": "to",
          "type": "address"
        },
        {
          "indexed": false,
          "internalType": "uint256",
          "name": "value",
          "type": "uint256"
        }
      ],
      "name": "Transfer",
      "type": "event"
    },
    {
      "inputs": [],
      "name": "BASE",
      "outputs": [
        {
          "internalType": "address",
          "name": "",
          "type": "address"
        }
      ],
      "stateMutability": "view",
      "type": "function"
    },
    {
      "inputs": [
        {
          "internalType": "uint256",
          "name": "_newRTC",
          "type": "uint256"
        }
      ],
      "name": "RTC",
      "outputs": [],
      "stateMutability": "nonpayable",
      "type": "function"
    },
    {
      "inputs": [],
      "name": "TOKEN",
      "outputs": [
        {
          "internalType": "address",
          "name": "",
          "type": "address"
        }
      ],
      "stateMutability": "view",
      "type": "function"
    },
    {
      "inputs": [
        {
          "internalType": "address",
          "name": "member",
          "type": "address"
        }
      ],
      "name": "addForMember",
      "outputs": [
        {
          "internalType": "uint256",
          "name": "liquidityUnits",
          "type": "uint256"
        }
      ],
      "stateMutability": "nonpayable",
      "type": "function"
    },
    {
      "inputs": [
        {
          "internalType": "address",
          "name": "owner",
          "type": "address"
        },
        {
          "internalType": "address",
          "name": "spender",
          "type": "address"
        }
      ],
      "name": "allowance",
      "outputs": [
        {
          "internalType": "uint256",
          "name": "",
          "type": "uint256"
        }
      ],
      "stateMutability": "view",
      "type": "function"
    },
    {
      "inputs": [
        {
          "internalType": "address",
          "name": "spender",
          "type": "address"
        },
        {
          "internalType": "uint256",
          "name": "amount",
          "type": "uint256"
        }
      ],
      "name": "approve",
      "outputs": [
        {
          "internalType": "bool",
          "name": "",
          "type": "bool"
        }
      ],
      "stateMutability": "nonpayable",
      "type": "function"
    },
    {
      "inputs": [
        {
          "internalType": "address",
          "name": "account",
          "type": "address"
        }
      ],
      "name": "balanceOf",
      "outputs": [
        {
          "internalType": "uint256",
          "name": "",
          "type": "uint256"
        }
      ],
      "stateMutability": "view",
      "type": "function"
    },
    {
      "inputs": [],
      "name": "baseAmount",
      "outputs": [
        {
          "internalType": "uint256",
          "name": "",
          "type": "uint256"
        }
      ],
      "stateMutability": "view",
      "type": "function"
    },
    {
      "inputs": [],
      "name": "baseCAP",
      "outputs": [
        {
          "internalType": "uint256",
          "name": "",
          "type": "uint256"
        }
      ],
      "stateMutability": "view",
      "type": "function"
    },
    {
      "inputs": [
        {
          "internalType": "uint256",
          "name": "amount",
          "type": "uint256"
        }
      ],
      "name": "burn",
      "outputs": [],
      "stateMutability": "nonpayable",
      "type": "function"
    },
    {
      "inputs": [
        {
          "internalType": "address",
          "name": "member",
          "type": "address"
        }
      ],
      "name": "burnSynth",
      "outputs": [
        {
          "internalType": "uint256",
          "name": "outputAmount",
          "type": "uint256"
        },
        {
          "internalType": "uint256",
          "name": "fee",
          "type": "uint256"
        }
      ],
      "stateMutability": "nonpayable",
      "type": "function"
    },
    {
      "inputs": [],
      "name": "decimals",
      "outputs": [
        {
          "internalType": "uint8",
          "name": "",
          "type": "uint8"
        }
      ],
      "stateMutability": "view",
      "type": "function"
    },
    {
      "inputs": [
        {
          "internalType": "address",
          "name": "spender",
          "type": "address"
        },
        {
          "internalType": "uint256",
          "name": "subtractedValue",
          "type": "uint256"
        }
      ],
      "name": "decreaseAllowance",
      "outputs": [
        {
          "internalType": "bool",
          "name": "",
          "type": "bool"
        }
      ],
      "stateMutability": "nonpayable",
      "type": "function"
    },
    {
      "inputs": [
        {
          "internalType": "uint256",
          "name": "newPeriod",
          "type": "uint256"
        }
      ],
      "name": "flipFreeze",
      "outputs": [],
      "stateMutability": "nonpayable",
      "type": "function"
    },
    {
      "inputs": [],
      "name": "freeze",
      "outputs": [
        {
          "internalType": "bool",
          "name": "",
          "type": "bool"
        }
      ],
      "stateMutability": "view",
      "type": "function"
    },
    {
      "inputs": [],
      "name": "genesis",
      "outputs": [
        {
          "internalType": "uint256",
          "name": "",
          "type": "uint256"
        }
      ],
      "stateMutability": "view",
      "type": "function"
    },
    {
      "inputs": [
        {
          "internalType": "address",
          "name": "spender",
          "type": "address"
        },
        {
          "internalType": "uint256",
          "name": "addedValue",
          "type": "uint256"
        }
      ],
      "name": "increaseAllowance",
      "outputs": [
        {
          "internalType": "bool",
          "name": "",
          "type": "bool"
        }
      ],
      "stateMutability": "nonpayable",
      "type": "function"
    },
    {
      "inputs": [],
      "name": "initiationPeriod",
      "outputs": [
        {
          "internalType": "uint256",
          "name": "",
          "type": "uint256"
        }
      ],
      "stateMutability": "view",
      "type": "function"
    },
    {
      "inputs": [],
      "name": "map30DPoolRevenue",
      "outputs": [
        {
          "internalType": "uint256",
          "name": "",
          "type": "uint256"
        }
      ],
      "stateMutability": "view",
      "type": "function"
    },
    {
      "inputs": [],
      "name": "mapPast30DPoolRevenue",
      "outputs": [
        {
          "internalType": "uint256",
          "name": "",
          "type": "uint256"
        }
      ],
      "stateMutability": "view",
      "type": "function"
    },
    {
      "inputs": [
        {
          "internalType": "address",
          "name": "member",
          "type": "address"
        }
      ],
      "name": "mintSynth",
      "outputs": [
        {
          "internalType": "uint256",
          "name": "outputAmount",
          "type": "uint256"
        },
        {
          "internalType": "uint256",
          "name": "fee",
          "type": "uint256"
        }
      ],
      "stateMutability": "nonpayable",
      "type": "function"
    },
    {
      "inputs": [],
      "name": "name",
      "outputs": [
        {
          "internalType": "string",
          "name": "",
          "type": "string"
        }
      ],
      "stateMutability": "view",
      "type": "function"
    },
    {
      "inputs": [],
      "name": "poolCAP",
      "outputs": [
        {
          "internalType": "uint256",
          "name": "",
          "type": "uint256"
        }
      ],
      "stateMutability": "view",
      "type": "function"
    },
    {
      "inputs": [
        {
          "internalType": "address",
          "name": "member",
          "type": "address"
        }
      ],
      "name": "removeForMember",
      "outputs": [
        {
          "internalType": "uint256",
          "name": "outputBase",
          "type": "uint256"
        },
        {
          "internalType": "uint256",
          "name": "outputToken",
          "type": "uint256"
        }
      ],
      "stateMutability": "nonpayable",
      "type": "function"
    },
    {
      "inputs": [
        {
          "internalType": "uint256",
          "name": "",
          "type": "uint256"
        }
      ],
      "name": "revenueArray",
      "outputs": [
        {
          "internalType": "uint256",
          "name": "",
          "type": "uint256"
        }
      ],
      "stateMutability": "view",
      "type": "function"
    },
    {
      "inputs": [
        {
          "internalType": "uint256",
          "name": "_poolCap",
          "type": "uint256"
        }
      ],
      "name": "setCAP",
      "outputs": [],
      "stateMutability": "nonpayable",
      "type": "function"
    },
    {
      "inputs": [
        {
          "internalType": "uint256",
          "name": "_newFreezePoint",
          "type": "uint256"
        }
      ],
      "name": "setFreezePoint",
      "outputs": [],
      "stateMutability": "nonpayable",
      "type": "function"
    },
    {
      "inputs": [
        {
          "internalType": "uint256",
          "name": "newInitiation",
          "type": "uint256"
        }
      ],
      "name": "setInitiation",
      "outputs": [],
      "stateMutability": "nonpayable",
      "type": "function"
    },
    {
      "inputs": [
        {
          "internalType": "address",
          "name": "token",
          "type": "address"
        },
        {
          "internalType": "address",
          "name": "member",
          "type": "address"
        }
      ],
      "name": "swapTo",
      "outputs": [
        {
          "internalType": "uint256",
          "name": "outputAmount",
          "type": "uint256"
        },
        {
          "internalType": "uint256",
          "name": "fee",
          "type": "uint256"
        }
      ],
      "stateMutability": "nonpayable",
      "type": "function"
    },
    {
      "inputs": [],
      "name": "symbol",
      "outputs": [
        {
          "internalType": "string",
          "name": "",
          "type": "string"
        }
      ],
      "stateMutability": "view",
      "type": "function"
    },
    {
      "inputs": [],
      "name": "sync",
      "outputs": [],
      "stateMutability": "nonpayable",
      "type": "function"
    },
    {
      "inputs": [],
      "name": "tokenAmount",
      "outputs": [
        {
          "internalType": "uint256",
          "name": "",
          "type": "uint256"
        }
      ],
      "stateMutability": "view",
      "type": "function"
    },
    {
      "inputs": [],
      "name": "totalSupply",
      "outputs": [
        {
          "internalType": "uint256",
          "name": "",
          "type": "uint256"
        }
      ],
      "stateMutability": "view",
      "type": "function"
    },
    {
      "inputs": [
        {
          "internalType": "address",
          "name": "recipient",
          "type": "address"
        },
        {
          "internalType": "uint256",
          "name": "amount",
          "type": "uint256"
        }
      ],
      "name": "transfer",
      "outputs": [
        {
          "internalType": "bool",
          "name": "",
          "type": "bool"
        }
      ],
      "stateMutability": "nonpayable",
      "type": "function"
    },
    {
      "inputs": [
        {
          "internalType": "address",
          "name": "sender",
          "type": "address"
        },
        {
          "internalType": "address",
          "name": "recipient",
          "type": "address"
        },
        {
          "internalType": "uint256",
          "name": "amount",
          "type": "uint256"
        }
      ],
      "name": "transferFrom",
      "outputs": [
        {
          "internalType": "bool",
          "name": "",
          "type": "bool"
        }
      ],
      "stateMutability": "nonpayable",
      "type": "function"
    }
  ],
  "bytecode": "0x60c06040523480156200001157600080fd5b506040516200606d3803806200606d833981810160405281019062000037919062000443565b600160008190555081600160006101000a81548173ffffffffffffffffffffffffffffffffffffffff021916908373ffffffffffffffffffffffffffffffffffffffff16021790555080600260006101000a81548173ffffffffffffffffffffffffffffffffffffffff021916908373ffffffffffffffffffffffffffffffffffffffff16021790555060006040518060400160405280601481526020017f2d5370617274616e50726f746f636f6c506f6f6c000000000000000000000000815250905060006040518060400160405280600481526020017f2d5350500000000000000000000000000000000000000000000000000000000081525090508273ffffffffffffffffffffffffffffffffffffffff166306fdde036040518163ffffffff1660e01b815260040160006040518083038186803b1580156200017c57600080fd5b505afa15801562000191573d6000803e3d6000fd5b505050506040513d6000823e3d601f19601f82011682018060405250810190620001bc919062000484565b82604051602001620001d092919062000500565b604051602081830303815290604052600a9080519060200190620001f69291906200030a565b508273ffffffffffffffffffffffffffffffffffffffff166395d89b416040518163ffffffff1660e01b815260040160006040518083038186803b1580156200023e57600080fd5b505afa15801562000253573d6000803e3d6000fd5b505050506040513d6000823e3d601f19601f820116820180604052508101906200027e919062000484565b816040516020016200029292919062000500565b604051602081830303815290604052600b9080519060200190620002b89291906200030a565b50601260ff1660808160ff1660f81b815250504260a08181525050610bb8600381905550610bb8600781905550620186a06004819055504260068190555062093a8060098190555050505050620006fc565b828054620003189062000607565b90600052602060002090601f0160209004810192826200033c576000855562000388565b82601f106200035757805160ff191683800117855562000388565b8280016001018555821562000388579182015b82811115620003875782518255916020019190600101906200036a565b5b5090506200039791906200039b565b5090565b5b80821115620003b65760008160009055506001016200039c565b5090565b6000620003d1620003cb8462000551565b62000528565b905082815260208101848484011115620003ea57600080fd5b620003f7848285620005d1565b509392505050565b6000815190506200041081620006e2565b92915050565b600082601f8301126200042857600080fd5b81516200043a848260208601620003ba565b91505092915050565b600080604083850312156200045757600080fd5b60006200046785828601620003ff565b92505060206200047a85828601620003ff565b9150509250929050565b6000602082840312156200049757600080fd5b600082015167ffffffffffffffff811115620004b257600080fd5b620004c08482850162000416565b91505092915050565b6000620004d68262000587565b620004e2818562000592565b9350620004f4818560208601620005d1565b80840191505092915050565b60006200050e8285620004c9565b91506200051c8284620004c9565b91508190509392505050565b60006200053462000547565b90506200054282826200063d565b919050565b6000604051905090565b600067ffffffffffffffff8211156200056f576200056e620006a2565b5b6200057a82620006d1565b9050602081019050919050565b600081519050919050565b600081905092915050565b6000620005aa82620005b1565b9050919050565b600073ffffffffffffffffffffffffffffffffffffffff82169050919050565b60005b83811015620005f1578082015181840152602081019050620005d4565b8381111562000601576000848401525b50505050565b600060028204905060018216806200062057607f821691505b6020821081141562000637576200063662000673565b5b50919050565b6200064882620006d1565b810181811067ffffffffffffffff821117156200066a5762000669620006a2565b5b80604052505050565b7f4e487b7100000000000000000000000000000000000000000000000000000000600052602260045260246000fd5b7f4e487b7100000000000000000000000000000000000000000000000000000000600052604160045260246000fd5b6000601f19601f8301169050919050565b620006ed816200059d565b8114620006f957600080fd5b50565b60805160f81c60a0516159486200072560003960006118c601526000610cff01526159486000f3fe608060405234801561001057600080fd5b50600436106102115760003560e01c806386d5f61811610125578063dbfc5a04116100ad578063eec7faa11161007c578063eec7faa114610659578063f0337cdc14610677578063f1bbdef2146106a7578063fb195363146106d8578063fff6cae9146106f457610211565b8063dbfc5a04146105bc578063dd62ed3e146105ed578063ec342ad01461061d578063ee2305011461063b57610211565b8063a7f0b3de116100f4578063a7f0b3de14610505578063a9059cbb14610523578063b98ac04b14610553578063ba8e3edd1461056f578063bc5dedc91461058b57610211565b806386d5f6181461046b57806395d89b411461049b5780639d3f87e2146104b9578063a457c2d7146104d557610211565b806342966c68116101a857806370a082311161017757806370a08231146103c557806370f93cdf146103f5578063752d7793146104135780637ec3eae51461043157806382bfefc81461044d57610211565b806342966c681461034f5780634864d1401461036b5780635f83e5d51461038957806362a5af3b146103a757610211565b806323b872dd116101e457806323b872dd146102a05780632783e4a9146102d0578063313ce56714610301578063395093511461031f57610211565b806306fdde0314610216578063095ea7b3146102345780630adba4ec1461026457806318160ddd14610282575b600080fd5b61021e6106fe565b60405161022b9190614ff4565b60405180910390f35b61024e60048036038101906102499190614c33565b610790565b60405161025b9190614fd9565b60405180910390f35b61026c6107a7565b6040516102799190615226565b60405180910390f35b61028a6107ad565b6040516102979190615226565b60405180910390f35b6102ba60048036038101906102b59190614be4565b6107b3565b6040516102c79190614fd9565b60405180910390f35b6102ea60048036038101906102e59190614ba8565b6108a6565b6040516102f89291906152a1565b60405180910390f35b610309610cfd565b6040516103169190615399565b60405180910390f35b61033960048036038101906103349190614c33565b610d21565b6040516103469190614fd9565b60405180910390f35b61036960048036038101906103649190614cc1565b610dbf565b005b610373610f5e565b6040516103809190615226565b60405180910390f35b610391610f64565b60405161039e9190615226565b60405180910390f35b6103af610f6a565b6040516103bc9190614fd9565b60405180910390f35b6103df60048036038101906103da9190614b56565b610f7d565b6040516103ec9190615226565b60405180910390f35b6103fd610fc6565b60405161040a9190615226565b60405180910390f35b61041b610fcc565b6040516104289190615226565b60405180910390f35b61044b60048036038101906104469190614cc1565b610fd2565b005b6104556111a3565b6040516104629190614f95565b60405180910390f35b61048560048036038101906104809190614b56565b6111c9565b6040516104929190615226565b60405180910390f35b6104a36115cc565b6040516104b09190614ff4565b60405180910390f35b6104d360048036038101906104ce9190614cc1565b61165e565b005b6104ef60048036038101906104ea9190614c33565b6117de565b6040516104fc9190614fd9565b60405180910390f35b61050d6118c4565b60405161051a9190615226565b60405180910390f35b61053d60048036038101906105389190614c33565b6118e8565b60405161054a9190614fd9565b60405180910390f35b61056d60048036038101906105689190614cc1565b6118ff565b005b61058960048036038101906105849190614cc1565b611ac4565b005b6105a560048036038101906105a09190614b56565b611c89565b6040516105b39291906152a1565b60405180910390f35b6105d660048036038101906105d19190614b56565b61226b565b6040516105e49291906152a1565b60405180910390f35b61060760048036038101906106029190614ba8565b6128f5565b6040516106149190615226565b60405180910390f35b61062561297c565b6040516106329190614f95565b60405180910390f35b6106436129a2565b6040516106509190615226565b60405180910390f35b6106616129a8565b60405161066e9190615226565b60405180910390f35b610691600480360381019061068c9190614cc1565b6129ae565b60405161069e9190615226565b60405180910390f35b6106c160048036038101906106bc9190614b56565b6129d2565b6040516106cf9291906152a1565b60405180910390f35b6106f260048036038101906106ed9190614cc1565b613125565b005b6106fc61331e565b005b6060600a805461070d9061557f565b80601f01602080910402602001604051908101604052809291908181526020018280546107399061557f565b80156107865780601f1061075b57610100808354040283529160200191610786565b820191906000526020600020905b81548152906001019060200180831161076957829003601f168201915b5050505050905090565b600061079d33848461353e565b6001905092915050565b60035481565b600c5481565b60006107c0848484613709565b6000600e60008673ffffffffffffffffffffffffffffffffffffffff1673ffffffffffffffffffffffffffffffffffffffff16815260200190815260200160002060003373ffffffffffffffffffffffffffffffffffffffff1673ffffffffffffffffffffffffffffffffffffffff16815260200190815260200160002054905082811015610884576040517f08c379a000000000000000000000000000000000000000000000000000000000815260040161087b90615086565b60405180910390fd5b61089a8533858461089591906154b1565b61353e565b60019150509392505050565b6000806108b1613987565b73ffffffffffffffffffffffffffffffffffffffff166332fe7b266040518163ffffffff1660e01b815260040160206040518083038186803b1580156108f657600080fd5b505afa15801561090a573d6000803e3d6000fd5b505050506040513d601f19601f8201168201806040525081019061092e9190614b7f565b73ffffffffffffffffffffffffffffffffffffffff163373ffffffffffffffffffffffffffffffffffffffff161480610a16575061096a613987565b73ffffffffffffffffffffffffffffffffffffffff16632ab24e496040518163ffffffff1660e01b815260040160206040518083038186803b1580156109af57600080fd5b505afa1580156109c3573d6000803e3d6000fd5b505050506040513d601f19601f820116820180604052508101906109e79190614b7f565b73ffffffffffffffffffffffffffffffffffffffff163373ffffffffffffffffffffffffffffffffffffffff16145b610a1f57600080fd5b600160009054906101000a900473ffffffffffffffffffffffffffffffffffffffff1673ffffffffffffffffffffffffffffffffffffffff168473ffffffffffffffffffffffffffffffffffffffff161480610ac85750600260009054906101000a900473ffffffffffffffffffffffffffffffffffffffff1673ffffffffffffffffffffffffffffffffffffffff168473ffffffffffffffffffffffffffffffffffffffff16145b610b07576040517f08c379a0000000000000000000000000000000000000000000000000000000008152600401610afe906150e6565b60405180910390fd5b600080600160009054906101000a900473ffffffffffffffffffffffffffffffffffffffff1673ffffffffffffffffffffffffffffffffffffffff168673ffffffffffffffffffffffffffffffffffffffff161415610ba557600260009054906101000a900473ffffffffffffffffffffffffffffffffffffffff169150610b8d613a2e565b9050610b9881613b06565b8094508195505050610be6565b600160009054906101000a900473ffffffffffffffffffffffffffffffffffffffff169150610bd2613dc9565b9050610bdd81613ea1565b80945081955050505b8473ffffffffffffffffffffffffffffffffffffffff168673ffffffffffffffffffffffffffffffffffffffff168373ffffffffffffffffffffffffffffffffffffffff167fc9163c3bdf7263acf1bb3d24072cc7da025f7181c31e2edc7e1673edf5e0ca32848888604051610c5e939291906152ca565b60405180910390a48573ffffffffffffffffffffffffffffffffffffffff1663a9059cbb86866040518363ffffffff1660e01b8152600401610ca1929190614fb0565b602060405180830381600087803b158015610cbb57600080fd5b505af1158015610ccf573d6000803e3d6000fd5b505050506040513d601f19601f82011682018060405250810190610cf39190614c6f565b5050509250929050565b7f000000000000000000000000000000000000000000000000000000000000000081565b6000610db5338484600e60003373ffffffffffffffffffffffffffffffffffffffff1673ffffffffffffffffffffffffffffffffffffffff16815260200190815260200160002060008873ffffffffffffffffffffffffffffffffffffffff1673ffffffffffffffffffffffffffffffffffffffff16815260200190815260200160002054610db091906153d0565b61353e565b6001905092915050565b610dc7614216565b73ffffffffffffffffffffffffffffffffffffffff163373ffffffffffffffffffffffffffffffffffffffff1614610dfe57600080fd5b610e06613987565b73ffffffffffffffffffffffffffffffffffffffff1663b93ec54b6040518163ffffffff1660e01b815260040160206040518083038186803b158015610e4b57600080fd5b505afa158015610e5f573d6000803e3d6000fd5b505050506040513d601f19601f82011682018060405250810190610e839190614b7f565b73ffffffffffffffffffffffffffffffffffffffff16635e0237ea610ea6614216565b6040518263ffffffff1660e01b8152600401610ec29190614f95565b60206040518083038186803b158015610eda57600080fd5b505afa158015610eee573d6000803e3d6000fd5b505050506040513d601f19601f82011682018060405250810190610f129190614c6f565b610f51576040517f08c379a0000000000000000000000000000000000000000000000000000000008152600401610f4890615106565b60405180910390fd5b610f5b338261434c565b50565b600f5481565b60125481565b600860009054906101000a900460ff1681565b6000600d60008373ffffffffffffffffffffffffffffffffffffffff1673ffffffffffffffffffffffffffffffffffffffff168152602001908152602001600020549050919050565b60095481565b60135481565b610fda613987565b73ffffffffffffffffffffffffffffffffffffffff166332fe7b266040518163ffffffff1660e01b815260040160206040518083038186803b15801561101f57600080fd5b505afa158015611033573d6000803e3d6000fd5b505050506040513d601f19601f820116820180604052508101906110579190614b7f565b73ffffffffffffffffffffffffffffffffffffffff163373ffffffffffffffffffffffffffffffffffffffff16148061113f5750611093613987565b73ffffffffffffffffffffffffffffffffffffffff16632ab24e496040518163ffffffff1660e01b815260040160206040518083038186803b1580156110d857600080fd5b505afa1580156110ec573d6000803e3d6000fd5b505050506040513d601f19601f820116820180604052508101906111109190614b7f565b73ffffffffffffffffffffffffffffffffffffffff163373ffffffffffffffffffffffffffffffffffffffff16145b61114857600080fd5b60026004546111579190615457565b811115611199576040517f08c379a000000000000000000000000000000000000000000000000000000000815260040161119090615066565b60405180910390fd5b8060048190555050565b600260009054906101000a900473ffffffffffffffffffffffffffffffffffffffff1681565b60006111d3613987565b73ffffffffffffffffffffffffffffffffffffffff166332fe7b266040518163ffffffff1660e01b815260040160206040518083038186803b15801561121857600080fd5b505afa15801561122c573d6000803e3d6000fd5b505050506040513d601f19601f820116820180604052508101906112509190614b7f565b73ffffffffffffffffffffffffffffffffffffffff163373ffffffffffffffffffffffffffffffffffffffff161480611338575061128c613987565b73ffffffffffffffffffffffffffffffffffffffff16632ab24e496040518163ffffffff1660e01b815260040160206040518083038186803b1580156112d157600080fd5b505afa1580156112e5573d6000803e3d6000fd5b505050506040513d601f19601f820116820180604052508101906113099190614b7f565b73ffffffffffffffffffffffffffffffffffffffff163373ffffffffffffffffffffffffffffffffffffffff16145b61134157600080fd5b600061134b613dc9565b90506000611357613a2e565b9050611361613987565b73ffffffffffffffffffffffffffffffffffffffff16637b0e5c456040518163ffffffff1660e01b815260040160206040518083038186803b1580156113a657600080fd5b505afa1580156113ba573d6000803e3d6000fd5b505050506040513d601f19601f820116820180604052508101906113de9190614b7f565b73ffffffffffffffffffffffffffffffffffffffff1663c5c11ee983600f5484601054600c546040518663ffffffff1660e01b8152600401611424959493929190615346565b60206040518083038186803b15801561143c57600080fd5b505afa158015611450573d6000803e3d6000fd5b505050506040513d601f19601f820116820180604052508101906114749190614cea565b92506000600f54148061148957506000601054145b1561155f5768056bc75e2d6310000082101580156114a957506127108110155b6114e8576040517f08c379a00000000000000000000000000000000000000000000000000000000081526004016114df906150a6565b60405180910390fd5b60006127108460646114fa9190615457565b6115049190615426565b9050808461151291906154b1565b9350611540600160009054906101000a900473ffffffffffffffffffffffffffffffffffffffff1682614517565b81838461154d9190615457565b6115579190615426565b600581905550505b6115698282614660565b6115738484614517565b8373ffffffffffffffffffffffffffffffffffffffff167fbeb3885786d637a474cbc287c0a44587231633a077f0bd30354d5a4b18996fce8383866040516115bd939291906152ca565b60405180910390a25050919050565b6060600b80546115db9061557f565b80601f01602080910402602001604051908101604052809291908181526020018280546116079061557f565b80156116545780601f1061162957610100808354040283529160200191611654565b820191906000526020600020905b81548152906001019060200180831161163757829003601f168201915b5050505050905090565b611666613987565b73ffffffffffffffffffffffffffffffffffffffff166332fe7b266040518163ffffffff1660e01b815260040160206040518083038186803b1580156116ab57600080fd5b505afa1580156116bf573d6000803e3d6000fd5b505050506040513d601f19601f820116820180604052508101906116e39190614b7f565b73ffffffffffffffffffffffffffffffffffffffff163373ffffffffffffffffffffffffffffffffffffffff1614806117cb575061171f613987565b73ffffffffffffffffffffffffffffffffffffffff16632ab24e496040518163ffffffff1660e01b815260040160206040518083038186803b15801561176457600080fd5b505afa158015611778573d6000803e3d6000fd5b505050506040513d601f19601f8201168201806040525081019061179c9190614b7f565b73ffffffffffffffffffffffffffffffffffffffff163373ffffffffffffffffffffffffffffffffffffffff16145b6117d457600080fd5b8060078190555050565b600080600e60003373ffffffffffffffffffffffffffffffffffffffff1673ffffffffffffffffffffffffffffffffffffffff16815260200190815260200160002060008573ffffffffffffffffffffffffffffffffffffffff1673ffffffffffffffffffffffffffffffffffffffff168152602001908152602001600020549050828110156118a3576040517f08c379a000000000000000000000000000000000000000000000000000000000815260040161189a90615086565b60405180910390fd5b6118b9338585846118b491906154b1565b61353e565b600191505092915050565b7f000000000000000000000000000000000000000000000000000000000000000081565b60006118f5338484613709565b6001905092915050565b611907613987565b73ffffffffffffffffffffffffffffffffffffffff166332fe7b266040518163ffffffff1660e01b815260040160206040518083038186803b15801561194c57600080fd5b505afa158015611960573d6000803e3d6000fd5b505050506040513d601f19601f820116820180604052508101906119849190614b7f565b73ffffffffffffffffffffffffffffffffffffffff163373ffffffffffffffffffffffffffffffffffffffff161480611a6c57506119c0613987565b73ffffffffffffffffffffffffffffffffffffffff16632ab24e496040518163ffffffff1660e01b815260040160206040518083038186803b158015611a0557600080fd5b505afa158015611a19573d6000803e3d6000fd5b505050506040513d601f19601f82011682018060405250810190611a3d9190614b7f565b73ffffffffffffffffffffffffffffffffffffffff163373ffffffffffffffffffffffffffffffffffffffff16145b611a7557600080fd5b610bb8811115611aba576040517f08c379a0000000000000000000000000000000000000000000000000000000008152600401611ab190615066565b60405180910390fd5b8060038190555050565b611acc613987565b73ffffffffffffffffffffffffffffffffffffffff166332fe7b266040518163ffffffff1660e01b815260040160206040518083038186803b158015611b1157600080fd5b505afa158015611b25573d6000803e3d6000fd5b505050506040513d601f19601f82011682018060405250810190611b499190614b7f565b73ffffffffffffffffffffffffffffffffffffffff163373ffffffffffffffffffffffffffffffffffffffff161480611c315750611b85613987565b73ffffffffffffffffffffffffffffffffffffffff16632ab24e496040518163ffffffff1660e01b815260040160206040518083038186803b158015611bca57600080fd5b505afa158015611bde573d6000803e3d6000fd5b505050506040513d601f19601f82011682018060405250810190611c029190614b7f565b73ffffffffffffffffffffffffffffffffffffffff163373ffffffffffffffffffffffffffffffffffffffff16145b611c3a57600080fd5b62093a808110611c7f576040517f08c379a0000000000000000000000000000000000000000000000000000000008152600401611c7690615186565b60405180910390fd5b8060098190555050565b600080611c94613987565b73ffffffffffffffffffffffffffffffffffffffff166332fe7b266040518163ffffffff1660e01b815260040160206040518083038186803b158015611cd957600080fd5b505afa158015611ced573d6000803e3d6000fd5b505050506040513d601f19601f82011682018060405250810190611d119190614b7f565b73ffffffffffffffffffffffffffffffffffffffff163373ffffffffffffffffffffffffffffffffffffffff161480611df95750611d4d613987565b73ffffffffffffffffffffffffffffffffffffffff16632ab24e496040518163ffffffff1660e01b815260040160206040518083038186803b158015611d9257600080fd5b505afa158015611da6573d6000803e3d6000fd5b505050506040513d601f19601f82011682018060405250810190611dca9190614b7f565b73ffffffffffffffffffffffffffffffffffffffff163373ffffffffffffffffffffffffffffffffffffffff16145b611e0257600080fd5b6000611e0d30610f7d565b90506000611e19613987565b73ffffffffffffffffffffffffffffffffffffffff16637b0e5c456040518163ffffffff1660e01b815260040160206040518083038186803b158015611e5e57600080fd5b505afa158015611e72573d6000803e3d6000fd5b505050506040513d601f19601f82011682018060405250810190611e969190614b7f565b90508073ffffffffffffffffffffffffffffffffffffffff16635a7b2ed383600160009054906101000a900473ffffffffffffffffffffffffffffffffffffffff16306040518463ffffffff1660e01b8152600401611ef79392919061526a565b60206040518083038186803b158015611f0f57600080fd5b505afa158015611f23573d6000803e3d6000fd5b505050506040513d601f19601f82011682018060405250810190611f479190614cea565b93508073ffffffffffffffffffffffffffffffffffffffff16635a7b2ed383600260009054906101000a900473ffffffffffffffffffffffffffffffffffffffff16306040518463ffffffff1660e01b8152600401611fa89392919061526a565b60206040518083038186803b158015611fc057600080fd5b505afa158015611fd4573d6000803e3d6000fd5b505050506040513d601f19601f82011682018060405250810190611ff89190614cea565b9250612004848461469e565b61200e308361434c565b6120606040518060400160405280600581526020017f4241534520000000000000000000000000000000000000000000000000000000815250670de0b6b3a76400008661205b9190615426565b6146dc565b6120b26040518060400160405280600481526020017f544b4e2000000000000000000000000000000000000000000000000000000000815250670de0b6b3a7640000856120ad9190615426565b6146dc565b600160009054906101000a900473ffffffffffffffffffffffffffffffffffffffff1673ffffffffffffffffffffffffffffffffffffffff1663a9059cbb86866040518363ffffffff1660e01b815260040161210f929190614fb0565b602060405180830381600087803b15801561212957600080fd5b505af115801561213d573d6000803e3d6000fd5b505050506040513d601f19601f820116820180604052508101906121619190614c6f565b50600260009054906101000a900473ffffffffffffffffffffffffffffffffffffffff1673ffffffffffffffffffffffffffffffffffffffff1663a9059cbb86856040518363ffffffff1660e01b81526004016121bf929190614fb0565b602060405180830381600087803b1580156121d957600080fd5b505af11580156121ed573d6000803e3d6000fd5b505050506040513d601f19601f820116820180604052508101906122119190614c6f565b508473ffffffffffffffffffffffffffffffffffffffff167f59c3a0b60c6ab7deb62e1440c9e72441db6db7dfe514dba8cb18e60c0d896efa85858560405161225c939291906152ca565b60405180910390a25050915091565b600080612276613987565b73ffffffffffffffffffffffffffffffffffffffff166332fe7b266040518163ffffffff1660e01b815260040160206040518083038186803b1580156122bb57600080fd5b505afa1580156122cf573d6000803e3d6000fd5b505050506040513d601f19601f820116820180604052508101906122f39190614b7f565b73ffffffffffffffffffffffffffffffffffffffff163373ffffffffffffffffffffffffffffffffffffffff1614806123db575061232f613987565b73ffffffffffffffffffffffffffffffffffffffff16632ab24e496040518163ffffffff1660e01b815260040160206040518083038186803b15801561237457600080fd5b505afa158015612388573d6000803e3d6000fd5b505050506040513d601f19601f820116820180604052508101906123ac9190614b7f565b73ffffffffffffffffffffffffffffffffffffffff163373ffffffffffffffffffffffffffffffffffffffff16145b6123e457600080fd5b60006123ee614216565b9050600073ffffffffffffffffffffffffffffffffffffffff168173ffffffffffffffffffffffffffffffffffffffff161415612460576040517f08c379a000000000000000000000000000000000000000000000000000000000815260040161245790615166565b60405180910390fd5b600061246a613987565b73ffffffffffffffffffffffffffffffffffffffff16637b0e5c456040518163ffffffff1660e01b815260040160206040518083038186803b1580156124af57600080fd5b505afa1580156124c3573d6000803e3d6000fd5b505050506040513d601f19601f820116820180604052508101906124e79190614b7f565b905060008273ffffffffffffffffffffffffffffffffffffffff166318160ddd6040518163ffffffff1660e01b815260040160206040518083038186803b15801561253157600080fd5b505afa158015612545573d6000803e3d6000fd5b505050506040513d601f19601f820116820180604052508101906125699190614cea565b905060008373ffffffffffffffffffffffffffffffffffffffff166370a08231306040518263ffffffff1660e01b81526004016125a69190614f95565b60206040518083038186803b1580156125be57600080fd5b505afa1580156125d2573d6000803e3d6000fd5b505050506040513d601f19601f820116820180604052508101906125f69190614cea565b905060008373ffffffffffffffffffffffffffffffffffffffff1663701baaf3838560105461262591906154b1565b600f546040518463ffffffff1660e01b8152600401612646939291906152ca565b60206040518083038186803b15801561265e57600080fd5b505afa158015612672573d6000803e3d6000fd5b505050506040513d601f19601f820116820180604052508101906126969190614cea565b90508373ffffffffffffffffffffffffffffffffffffffff1663896a708c83856010546126c391906154b1565b600f546040518463ffffffff1660e01b81526004016126e4939291906152ca565b60206040518083038186803b1580156126fc57600080fd5b505afa158015612710573d6000803e3d6000fd5b505050506040513d601f19601f820116820180604052508101906127349190614cea565b955061274181600061469e565b61274a86614778565b60008573ffffffffffffffffffffffffffffffffffffffff166386450495846040518263ffffffff1660e01b81526004016127859190615226565b602060405180830381600087803b15801561279f57600080fd5b505af11580156127b3573d6000803e3d6000fd5b505050506040513d601f19601f820116820180604052508101906127d79190614cea565b90506127e3868261434c565b600160009054906101000a900473ffffffffffffffffffffffffffffffffffffffff1673ffffffffffffffffffffffffffffffffffffffff1663a9059cbb8a846040518363ffffffff1660e01b8152600401612840929190614fb0565b602060405180830381600087803b15801561285a57600080fd5b505af115801561286e573d6000803e3d6000fd5b505050506040513d601f19601f820116820180604052508101906128929190614c6f565b508873ffffffffffffffffffffffffffffffffffffffff167f6f3ac8cc4850a948dddb5c85957bbaadcbea6e4b2cef3f02f6af53fcf2596f568383868b6040516128df9493929190615301565b60405180910390a2819750505050505050915091565b6000600e60008473ffffffffffffffffffffffffffffffffffffffff1673ffffffffffffffffffffffffffffffffffffffff16815260200190815260200160002060008373ffffffffffffffffffffffffffffffffffffffff1673ffffffffffffffffffffffffffffffffffffffff16815260200190815260200160002054905092915050565b600160009054906101000a900473ffffffffffffffffffffffffffffffffffffffff1681565b60045481565b60105481565b601481815481106129be57600080fd5b906000526020600020016000915090505481565b6000806129dd613987565b73ffffffffffffffffffffffffffffffffffffffff166332fe7b266040518163ffffffff1660e01b815260040160206040518083038186803b158015612a2257600080fd5b505afa158015612a36573d6000803e3d6000fd5b505050506040513d601f19601f82011682018060405250810190612a5a9190614b7f565b73ffffffffffffffffffffffffffffffffffffffff163373ffffffffffffffffffffffffffffffffffffffff161480612b425750612a96613987565b73ffffffffffffffffffffffffffffffffffffffff16632ab24e496040518163ffffffff1660e01b815260040160206040518083038186803b158015612adb57600080fd5b505afa158015612aef573d6000803e3d6000fd5b505050506040513d601f19601f82011682018060405250810190612b139190614b7f565b73ffffffffffffffffffffffffffffffffffffffff163373ffffffffffffffffffffffffffffffffffffffff16145b612b4b57600080fd5b6000612b55614216565b9050600073ffffffffffffffffffffffffffffffffffffffff168173ffffffffffffffffffffffffffffffffffffffff161415612bc7576040517f08c379a0000000000000000000000000000000000000000000000000000000008152600401612bbe90615166565b60405180910390fd5b6000612bd1613987565b73ffffffffffffffffffffffffffffffffffffffff16637b0e5c456040518163ffffffff1660e01b815260040160206040518083038186803b158015612c1657600080fd5b505afa158015612c2a573d6000803e3d6000fd5b505050506040513d601f19601f82011682018060405250810190612c4e9190614b7f565b90506000612c5a613dc9565b905060045481600f54612c6d91906153d0565b10612cad576040517f08c379a0000000000000000000000000000000000000000000000000000000008152600401612ca4906151a6565b60405180910390fd5b60008373ffffffffffffffffffffffffffffffffffffffff166318160ddd6040518163ffffffff1660e01b815260040160206040518083038186803b158015612cf557600080fd5b505afa158015612d09573d6000803e3d6000fd5b505050506040513d601f19601f82011682018060405250810190612d2d9190614cea565b90508273ffffffffffffffffffffffffffffffffffffffff1663701baaf383600f5484601054612d5d91906154b1565b6040518463ffffffff1660e01b8152600401612d7b939291906152ca565b60206040518083038186803b158015612d9357600080fd5b505afa158015612da7573d6000803e3d6000fd5b505050506040513d601f19601f82011682018060405250810190612dcb9190614cea565b95506000612710600354601054612de29190615457565b612dec9190615426565b9050808288612dfb91906153d0565b10612e3b576040517f08c379a0000000000000000000000000000000000000000000000000000000008152600401612e32906151e6565b60405180910390fd5b60008473ffffffffffffffffffffffffffffffffffffffff1663b86a82ef85306040518363ffffffff1660e01b8152600401612e78929190615241565b60206040518083038186803b158015612e9057600080fd5b505afa158015612ea4573d6000803e3d6000fd5b505050506040513d601f19601f82011682018060405250810190612ec89190614cea565b9050612ed5846000614660565b60008573ffffffffffffffffffffffffffffffffffffffff1663896a708c86600f5487601054612f0591906154b1565b6040518463ffffffff1660e01b8152600401612f23939291906152ca565b60206040518083038186803b158015612f3b57600080fd5b505afa158015612f4f573d6000803e3d6000fd5b505050506040513d601f19601f82011682018060405250810190612f739190614cea565b90508573ffffffffffffffffffffffffffffffffffffffff1663c19387df600260009054906101000a900473ffffffffffffffffffffffffffffffffffffffff16836040518363ffffffff1660e01b8152600401612fd2929190614fb0565b60206040518083038186803b158015612fea57600080fd5b505afa158015612ffe573d6000803e3d6000fd5b505050506040513d601f19601f820116820180604052508101906130229190614cea565b975061302e8783614517565b8673ffffffffffffffffffffffffffffffffffffffff166332f302e38b8b6040518363ffffffff1660e01b8152600401613069929190614fb0565b602060405180830381600087803b15801561308357600080fd5b505af1158015613097573d6000803e3d6000fd5b505050506040513d601f19601f820116820180604052508101906130bb9190614cea565b506130c588614778565b8973ffffffffffffffffffffffffffffffffffffffff167fbaff1e38597e99ccc6d6abf0e271a32ee3dc24114ea5bec3f05afd9bbb19f1f586848c8c6040516131119493929190615301565b60405180910390a250505050505050915091565b61312d613987565b73ffffffffffffffffffffffffffffffffffffffff166332fe7b266040518163ffffffff1660e01b815260040160206040518083038186803b15801561317257600080fd5b505afa158015613186573d6000803e3d6000fd5b505050506040513d601f19601f820116820180604052508101906131aa9190614b7f565b73ffffffffffffffffffffffffffffffffffffffff163373ffffffffffffffffffffffffffffffffffffffff16148061329257506131e6613987565b73ffffffffffffffffffffffffffffffffffffffff16632ab24e496040518163ffffffff1660e01b815260040160206040518083038186803b15801561322b57600080fd5b505afa15801561323f573d6000803e3d6000fd5b505050506040513d601f19601f820116820180604052508101906132639190614b7f565b73ffffffffffffffffffffffffffffffffffffffff163373ffffffffffffffffffffffffffffffffffffffff16145b61329b57600080fd5b61024481106132df576040517f08c379a00000000000000000000000000000000000000000000000000000000081526004016132d690615186565b60405180910390fd5b600860009054906101000a900460ff1615600860006101000a81548160ff021916908315150217905550804261331591906153d0565b60068190555050565b613326613987565b73ffffffffffffffffffffffffffffffffffffffff166398fabd3a6040518163ffffffff1660e01b815260040160206040518083038186803b15801561336b57600080fd5b505afa15801561337f573d6000803e3d6000fd5b505050506040513d601f19601f820116820180604052508101906133a39190614b7f565b73ffffffffffffffffffffffffffffffffffffffff163373ffffffffffffffffffffffffffffffffffffffff16146133da57600080fd5b600160009054906101000a900473ffffffffffffffffffffffffffffffffffffffff1673ffffffffffffffffffffffffffffffffffffffff166370a08231306040518263ffffffff1660e01b81526004016134359190614f95565b60206040518083038186803b15801561344d57600080fd5b505afa158015613461573d6000803e3d6000fd5b505050506040513d601f19601f820116820180604052508101906134859190614cea565b600f81905550600260009054906101000a900473ffffffffffffffffffffffffffffffffffffffff1673ffffffffffffffffffffffffffffffffffffffff166370a08231306040518263ffffffff1660e01b81526004016134e69190614f95565b60206040518083038186803b1580156134fe57600080fd5b505afa158015613512573d6000803e3d6000fd5b505050506040513d601f19601f820116820180604052508101906135369190614cea565b601081905550565b600073ffffffffffffffffffffffffffffffffffffffff168373ffffffffffffffffffffffffffffffffffffffff1614156135ae576040517f08c379a00000000000000000000000000000000000000000000000000000000081526004016135a590615206565b60405180910390fd5b600073ffffffffffffffffffffffffffffffffffffffff168273ffffffffffffffffffffffffffffffffffffffff16141561361e576040517f08c379a000000000000000000000000000000000000000000000000000000000815260040161361590615146565b60405180910390fd5b80600e60008573ffffffffffffffffffffffffffffffffffffffff1673ffffffffffffffffffffffffffffffffffffffff16815260200190815260200160002060008473ffffffffffffffffffffffffffffffffffffffff1673ffffffffffffffffffffffffffffffffffffffff168152602001908152602001600020819055508173ffffffffffffffffffffffffffffffffffffffff168373ffffffffffffffffffffffffffffffffffffffff167f8c5be1e5ebec7d5bd14f71427d1e84f3dd0314c0f7b2291e5b200ac8c7c3b925836040516136fc9190615226565b60405180910390a3505050565b600073ffffffffffffffffffffffffffffffffffffffff168373ffffffffffffffffffffffffffffffffffffffff161415613779576040517f08c379a0000000000000000000000000000000000000000000000000000000008152600401613770906151c6565b60405180910390fd5b600073ffffffffffffffffffffffffffffffffffffffff168273ffffffffffffffffffffffffffffffffffffffff1614156137e9576040517f08c379a00000000000000000000000000000000000000000000000000000000081526004016137e090615126565b60405180910390fd5b6000600d60008573ffffffffffffffffffffffffffffffffffffffff1673ffffffffffffffffffffffffffffffffffffffff16815260200190815260200160002054905081811015613870576040517f08c379a0000000000000000000000000000000000000000000000000000000008152600401613867906150c6565b60405180910390fd5b81600d60008673ffffffffffffffffffffffffffffffffffffffff1673ffffffffffffffffffffffffffffffffffffffff16815260200190815260200160002060008282546138bf91906154b1565b9250508190555081600d60008573ffffffffffffffffffffffffffffffffffffffff1673ffffffffffffffffffffffffffffffffffffffff168152602001908152602001600020600082825461391591906153d0565b925050819055508273ffffffffffffffffffffffffffffffffffffffff168473ffffffffffffffffffffffffffffffffffffffff167fddf252ad1be2c89b69c2b068fc378daa952ba7f163c4a11628f55a4df523b3ef846040516139799190615226565b60405180910390a350505050565b6000600160009054906101000a900473ffffffffffffffffffffffffffffffffffffffff1673ffffffffffffffffffffffffffffffffffffffff166398fabd3a6040518163ffffffff1660e01b815260040160206040518083038186803b1580156139f157600080fd5b505afa158015613a05573d6000803e3d6000fd5b505050506040513d601f19601f82011682018060405250810190613a299190614c98565b905090565b600080600260009054906101000a900473ffffffffffffffffffffffffffffffffffffffff1673ffffffffffffffffffffffffffffffffffffffff166370a08231306040518263ffffffff1660e01b8152600401613a8c9190614f95565b60206040518083038186803b158015613aa457600080fd5b505afa158015613ab8573d6000803e3d6000fd5b505050506040513d601f19601f82011682018060405250810190613adc9190614cea565b9050601054811115613afd5760105481613af691906154b1565b9150613b02565b600091505b5090565b6000806000613b13614216565b905060008060105490506000600f549050600073ffffffffffffffffffffffffffffffffffffffff168473ffffffffffffffffffffffffffffffffffffffff1614613bd9578373ffffffffffffffffffffffffffffffffffffffff166318160ddd6040518163ffffffff1660e01b815260040160206040518083038186803b158015613b9e57600080fd5b505afa158015613bb2573d6000803e3d6000fd5b505050506040513d601f19601f82011682018060405250810190613bd69190614cea565b92505b6000613be3613987565b73ffffffffffffffffffffffffffffffffffffffff16637b0e5c456040518163ffffffff1660e01b815260040160206040518083038186803b158015613c2857600080fd5b505afa158015613c3c573d6000803e3d6000fd5b505050506040513d601f19601f82011682018060405250810190613c609190614b7f565b90508073ffffffffffffffffffffffffffffffffffffffff1663701baaf3898686613c8b91906154b1565b856040518463ffffffff1660e01b8152600401613caa939291906152ca565b60206040518083038186803b158015613cc257600080fd5b505afa158015613cd6573d6000803e3d6000fd5b505050506040513d601f19601f82011682018060405250810190613cfa9190614cea565b96508073ffffffffffffffffffffffffffffffffffffffff1663896a708c898686613d2591906154b1565b856040518463ffffffff1660e01b8152600401613d44939291906152ca565b60206040518083038186803b158015613d5c57600080fd5b505afa158015613d70573d6000803e3d6000fd5b505050506040513d601f19601f82011682018060405250810190613d949190614cea565b9550613db68783613da591906154b1565b8985613db191906153d0565b6147e1565b613dbf86614778565b5050505050915091565b600080600160009054906101000a900473ffffffffffffffffffffffffffffffffffffffff1673ffffffffffffffffffffffffffffffffffffffff166370a08231306040518263ffffffff1660e01b8152600401613e279190614f95565b60206040518083038186803b158015613e3f57600080fd5b505afa158015613e53573d6000803e3d6000fd5b505050506040513d601f19601f82011682018060405250810190613e779190614cea565b9050600f54811115613e9857600f5481613e9191906154b1565b9150613e9d565b600091505b5090565b6000806000613eae614216565b9050600080600f54905060006010549050600073ffffffffffffffffffffffffffffffffffffffff168473ffffffffffffffffffffffffffffffffffffffff1614613f74578373ffffffffffffffffffffffffffffffffffffffff166318160ddd6040518163ffffffff1660e01b815260040160206040518083038186803b158015613f3957600080fd5b505afa158015613f4d573d6000803e3d6000fd5b505050506040513d601f19601f82011682018060405250810190613f719190614cea565b92505b6000613f7e613987565b73ffffffffffffffffffffffffffffffffffffffff16637b0e5c456040518163ffffffff1660e01b815260040160206040518083038186803b158015613fc357600080fd5b505afa158015613fd7573d6000803e3d6000fd5b505050506040513d601f19601f82011682018060405250810190613ffb9190614b7f565b90508073ffffffffffffffffffffffffffffffffffffffff1663701baaf38985878661402791906154b1565b6040518463ffffffff1660e01b8152600401614045939291906152ca565b60206040518083038186803b15801561405d57600080fd5b505afa158015614071573d6000803e3d6000fd5b505050506040513d601f19601f820116820180604052508101906140959190614cea565b965060008173ffffffffffffffffffffffffffffffffffffffff1663896a708c8a8688876140c391906154b1565b6040518463ffffffff1660e01b81526004016140e1939291906152ca565b60206040518083038186803b1580156140f957600080fd5b505afa15801561410d573d6000803e3d6000fd5b505050506040513d601f19601f820116820180604052508101906141319190614cea565b90508173ffffffffffffffffffffffffffffffffffffffff1663c19387df600260009054906101000a900473ffffffffffffffffffffffffffffffffffffffff16836040518363ffffffff1660e01b8152600401614190929190614fb0565b60206040518083038186803b1580156141a857600080fd5b505afa1580156141bc573d6000803e3d6000fd5b505050506040513d601f19601f820116820180604052508101906141e09190614cea565b965061420289856141f191906153d0565b89856141fd91906154b1565b6147e1565b61420b87614778565b505050505050915091565b6000614220613987565b73ffffffffffffffffffffffffffffffffffffffff1663b93ec54b6040518163ffffffff1660e01b815260040160206040518083038186803b15801561426557600080fd5b505afa158015614279573d6000803e3d6000fd5b505050506040513d601f19601f8201168201806040525081019061429d9190614b7f565b73ffffffffffffffffffffffffffffffffffffffff1663dcec8116600260009054906101000a900473ffffffffffffffffffffffffffffffffffffffff166040518263ffffffff1660e01b81526004016142f79190614f95565b60206040518083038186803b15801561430f57600080fd5b505afa158015614323573d6000803e3d6000fd5b505050506040513d601f19601f820116820180604052508101906143479190614b7f565b905090565b600073ffffffffffffffffffffffffffffffffffffffff168273ffffffffffffffffffffffffffffffffffffffff1614156143bc576040517f08c379a00000000000000000000000000000000000000000000000000000000081526004016143b390615046565b60405180910390fd5b80600d60008473ffffffffffffffffffffffffffffffffffffffff1673ffffffffffffffffffffffffffffffffffffffff16815260200190815260200160002054101561443e576040517f08c379a0000000000000000000000000000000000000000000000000000000008152600401614435906150c6565b60405180910390fd5b80600d60008473ffffffffffffffffffffffffffffffffffffffff1673ffffffffffffffffffffffffffffffffffffffff168152602001908152602001600020600082825461448d91906154b1565b9250508190555080600c60008282546144a691906154b1565b92505081905550600073ffffffffffffffffffffffffffffffffffffffff168273ffffffffffffffffffffffffffffffffffffffff167fddf252ad1be2c89b69c2b068fc378daa952ba7f163c4a11628f55a4df523b3ef8360405161450b9190615226565b60405180910390a35050565b600073ffffffffffffffffffffffffffffffffffffffff168273ffffffffffffffffffffffffffffffffffffffff161415614587576040517f08c379a000000000000000000000000000000000000000000000000000000000815260040161457e90615046565b60405180910390fd5b80600c600082825461459991906153d0565b9250508190555080600d60008473ffffffffffffffffffffffffffffffffffffffff1673ffffffffffffffffffffffffffffffffffffffff16815260200190815260200160002060008282546145ef91906153d0565b925050819055508173ffffffffffffffffffffffffffffffffffffffff16600073ffffffffffffffffffffffffffffffffffffffff167fddf252ad1be2c89b69c2b068fc378daa952ba7f163c4a11628f55a4df523b3ef836040516146549190615226565b60405180910390a35050565b81600f600082825461467291906153d0565b92505081905550806010600082825461468b91906153d0565b9250508190555061469a6147fb565b5050565b81600f60008282546146b091906154b1565b9250508190555080601060008282546146c991906154b1565b925050819055506146d86147fb565b5050565b61477482826040516024016146f2929190615016565b6040516020818303038152906040527f9710a9d0000000000000000000000000000000000000000000000000000000007bffffffffffffffffffffffffffffffffffffffffffffffffffffffff19166020820180517bffffffffffffffffffffffffffffffffffffffffffffffffffffffff83818316178352505050506148cd565b5050565b6000601154141561478b57426011819055505b62278d0060115461479c91906153d0565b42116147bb57806012546147b091906153d0565b6012819055506147de565b426011819055506012546013819055506147d66013546148f6565b806012819055505b50565b81600f81905550806010819055506147f76147fb565b5050565b600860009054906101000a900460ff166148cb576000601054600f54600f546148249190615457565b61482e9190615426565b90506000600554821115614851576005548261484a91906154b1565b9050614862565b8160055461485f91906154b1565b90505b81612710826148719190615457565b61487b9190615426565b905060075481106148a2576001600860006101000a81548160ff0219169083151502179055505b6006544211156148c857610e10426148ba91906153d0565b600681905550816005819055505b50505b565b60008151905060006a636f6e736f6c652e6c6f679050602083016000808483855afa5050505050565b6000601480548060200260200160405190810160405280929190818152602001828054801561494457602002820191906000526020600020905b815481526020019060010190808311614930575b50505050509050600281511415614a40578060018151811061498f577f4e487b7100000000000000000000000000000000000000000000000000000000600052603260045260246000fd5b6020026020010151816000815181106149d1577f4e487b7100000000000000000000000000000000000000000000000000000000600052603260045260246000fd5b6020026020010181815250508181600181518110614a18577f4e487b7100000000000000000000000000000000000000000000000000000000600052603260045260246000fd5b6020026020010181815250508060149080519060200190614a3a929190614a6e565b50614a6a565b60148290806001815401808255809150506001900390600052602060002001600090919091909150555b5050565b828054828255906000526020600020908101928215614aaa579160200282015b82811115614aa9578251825591602001919060010190614a8e565b5b509050614ab79190614abb565b5090565b5b80821115614ad4576000816000905550600101614abc565b5090565b600081359050614ae7816158b6565b92915050565b600081519050614afc816158b6565b92915050565b600081519050614b11816158cd565b92915050565b600081519050614b26816158e4565b92915050565b600081359050614b3b816158fb565b92915050565b600081519050614b50816158fb565b92915050565b600060208284031215614b6857600080fd5b6000614b7684828501614ad8565b91505092915050565b600060208284031215614b9157600080fd5b6000614b9f84828501614aed565b91505092915050565b60008060408385031215614bbb57600080fd5b6000614bc985828601614ad8565b9250506020614bda85828601614ad8565b9150509250929050565b600080600060608486031215614bf957600080fd5b6000614c0786828701614ad8565b9350506020614c1886828701614ad8565b9250506040614c2986828701614b2c565b9150509250925092565b60008060408385031215614c4657600080fd5b6000614c5485828601614ad8565b9250506020614c6585828601614b2c565b9150509250929050565b600060208284031215614c8157600080fd5b6000614c8f84828501614b02565b91505092915050565b600060208284031215614caa57600080fd5b6000614cb884828501614b17565b91505092915050565b600060208284031215614cd357600080fd5b6000614ce184828501614b2c565b91505092915050565b600060208284031215614cfc57600080fd5b6000614d0a84828501614b41565b91505092915050565b614d1c816154e5565b82525050565b614d2b816154f7565b82525050565b6000614d3c826153b4565b614d4681856153bf565b9350614d5681856020860161554c565b614d5f8161563e565b840191505092915050565b6000614d776008836153bf565b9150614d828261564f565b602082019050919050565b6000614d9a6004836153bf565b9150614da582615678565b602082019050919050565b6000614dbd6009836153bf565b9150614dc8826156a1565b602082019050919050565b6000614de06009836153bf565b9150614deb826156ca565b602082019050919050565b6000614e036008836153bf565b9150614e0e826156f3565b602082019050919050565b6000614e26600c836153bf565b9150614e318261571c565b602082019050919050565b6000614e496006836153bf565b9150614e5482615745565b602082019050919050565b6000614e6c6005836153bf565b9150614e778261576e565b602082019050919050565b6000614e8f6008836153bf565b9150614e9a82615797565b602082019050919050565b6000614eb26006836153bf565b9150614ebd826157c0565b602082019050919050565b6000614ed56006836153bf565b9150614ee0826157e9565b602082019050919050565b6000614ef86003836153bf565b9150614f0382615812565b602082019050919050565b6000614f1b6007836153bf565b9150614f268261583b565b602082019050919050565b6000614f3e6006836153bf565b9150614f4982615864565b602082019050919050565b6000614f616006836153bf565b9150614f6c8261588d565b602082019050919050565b614f8081615535565b82525050565b614f8f8161553f565b82525050565b6000602082019050614faa6000830184614d13565b92915050565b6000604082019050614fc56000830185614d13565b614fd26020830184614f77565b9392505050565b6000602082019050614fee6000830184614d22565b92915050565b6000602082019050818103600083015261500e8184614d31565b905092915050565b600060408201905081810360008301526150308185614d31565b905061503f6020830184614f77565b9392505050565b6000602082019050818103600083015261505f81614d6a565b9050919050565b6000602082019050818103600083015261507f81614d8d565b9050919050565b6000602082019050818103600083015261509f81614db0565b9050919050565b600060208201905081810360008301526150bf81614dd3565b9050919050565b600060208201905081810360008301526150df81614df6565b9050919050565b600060208201905081810360008301526150ff81614e19565b9050919050565b6000602082019050818103600083015261511f81614e3c565b9050919050565b6000602082019050818103600083015261513f81614e5f565b9050919050565b6000602082019050818103600083015261515f81614e82565b9050919050565b6000602082019050818103600083015261517f81614ea5565b9050919050565b6000602082019050818103600083015261519f81614ec8565b9050919050565b600060208201905081810360008301526151bf81614eeb565b9050919050565b600060208201905081810360008301526151df81614f0e565b9050919050565b600060208201905081810360008301526151ff81614f31565b9050919050565b6000602082019050818103600083015261521f81614f54565b9050919050565b600060208201905061523b6000830184614f77565b92915050565b60006040820190506152566000830185614f77565b6152636020830184614d13565b9392505050565b600060608201905061527f6000830186614f77565b61528c6020830185614d13565b6152996040830184614d13565b949350505050565b60006040820190506152b66000830185614f77565b6152c36020830184614f77565b9392505050565b60006060820190506152df6000830186614f77565b6152ec6020830185614f77565b6152f96040830184614f77565b949350505050565b60006080820190506153166000830187614f77565b6153236020830186614f77565b6153306040830185614f77565b61533d6060830184614f77565b95945050505050565b600060a08201905061535b6000830188614f77565b6153686020830187614f77565b6153756040830186614f77565b6153826060830185614f77565b61538f6080830184614f77565b9695505050505050565b60006020820190506153ae6000830184614f86565b92915050565b600081519050919050565b600082825260208201905092915050565b60006153db82615535565b91506153e683615535565b9250827fffffffffffffffffffffffffffffffffffffffffffffffffffffffffffffffff0382111561541b5761541a6155b1565b5b828201905092915050565b600061543182615535565b915061543c83615535565b92508261544c5761544b6155e0565b5b828204905092915050565b600061546282615535565b915061546d83615535565b9250817fffffffffffffffffffffffffffffffffffffffffffffffffffffffffffffffff04831182151516156154a6576154a56155b1565b5b828202905092915050565b60006154bc82615535565b91506154c783615535565b9250828210156154da576154d96155b1565b5b828203905092915050565b60006154f082615515565b9050919050565b60008115159050919050565b600061550e826154e5565b9050919050565b600073ffffffffffffffffffffffffffffffffffffffff82169050919050565b6000819050919050565b600060ff82169050919050565b60005b8381101561556a57808201518184015260208101905061554f565b83811115615579576000848401525b50505050565b6000600282049050600182168061559757607f821691505b602082108114156155ab576155aa61560f565b5b50919050565b7f4e487b7100000000000000000000000000000000000000000000000000000000600052601160045260246000fd5b7f4e487b7100000000000000000000000000000000000000000000000000000000600052601260045260246000fd5b7f4e487b7100000000000000000000000000000000000000000000000000000000600052602260045260246000fd5b6000601f19601f8301169050919050565b7f216163636f756e74000000000000000000000000000000000000000000000000600082015250565b7f214d415800000000000000000000000000000000000000000000000000000000600082015250565b7f21617070726f76616c0000000000000000000000000000000000000000000000600082015250565b7f2142616c616e6365640000000000000000000000000000000000000000000000600082015250565b7f2162616c616e6365000000000000000000000000000000000000000000000000600082015250565b7f21424153457c7c544f4b454e0000000000000000000000000000000000000000600082015250565b7f2153594e54480000000000000000000000000000000000000000000000000000600082015250565b7f214255524e000000000000000000000000000000000000000000000000000000600082015250565b7f217370656e646572000000000000000000000000000000000000000000000000600082015250565b7f2173796e74680000000000000000000000000000000000000000000000000000600082015250565b7f2156414c49440000000000000000000000000000000000000000000000000000600082015250565b7f5254430000000000000000000000000000000000000000000000000000000000600082015250565b7f2173656e64657200000000000000000000000000000000000000000000000000600082015250565b7f4341505045440000000000000000000000000000000000000000000000000000600082015250565b7f216f776e65720000000000000000000000000000000000000000000000000000600082015250565b6158bf816154e5565b81146158ca57600080fd5b50565b6158d6816154f7565b81146158e157600080fd5b50565b6158ed81615503565b81146158f857600080fd5b50565b61590481615535565b811461590f57600080fd5b5056fea2646970667358221220f283d960d6c1d660aa82d5c801f0c3e08698c95ef963af12a8ecf11d0095aca364736f6c63430008030033",
  "linkReferences": {},
  "deployedLinkReferences": {}
}