{
  "_format": "hh-sol-artifact-1",
  "contractName": "Pool",
  "sourceName": "contracts/Pool.sol",
  "abi": [
    {
      "inputs": [
        {
          "internalType": "address",
          "name": "_base",
          "type": "address"
        },
        {
          "internalType": "address",
          "name": "_token",
          "type": "address"
        }
      ],
      "stateMutability": "nonpayable",
      "type": "constructor"
    },
    {
      "anonymous": false,
      "inputs": [
        {
          "indexed": true,
          "internalType": "address",
          "name": "member",
          "type": "address"
        },
        {
          "indexed": false,
          "internalType": "uint256",
          "name": "inputBase",
          "type": "uint256"
        },
        {
          "indexed": false,
          "internalType": "uint256",
          "name": "inputToken",
          "type": "uint256"
        },
        {
          "indexed": false,
          "internalType": "uint256",
          "name": "unitsIssued",
          "type": "uint256"
        }
      ],
      "name": "AddLiquidity",
      "type": "event"
    },
    {
      "anonymous": false,
      "inputs": [
        {
          "indexed": true,
          "internalType": "address",
          "name": "owner",
          "type": "address"
        },
        {
          "indexed": true,
          "internalType": "address",
          "name": "spender",
          "type": "address"
        },
        {
          "indexed": false,
          "internalType": "uint256",
          "name": "value",
          "type": "uint256"
        }
      ],
      "name": "Approval",
      "type": "event"
    },
    {
      "anonymous": false,
      "inputs": [
        {
          "indexed": true,
          "internalType": "address",
          "name": "member",
          "type": "address"
        },
        {
          "indexed": false,
          "internalType": "uint256",
          "name": "baseAmount",
          "type": "uint256"
        },
        {
          "indexed": false,
          "internalType": "uint256",
          "name": "liqUnits",
          "type": "uint256"
        },
        {
          "indexed": false,
          "internalType": "uint256",
          "name": "synthAmount",
          "type": "uint256"
        },
        {
          "indexed": false,
          "internalType": "uint256",
          "name": "fee",
          "type": "uint256"
        }
      ],
      "name": "BurnSynth",
      "type": "event"
    },
    {
      "anonymous": false,
      "inputs": [
        {
          "indexed": true,
          "internalType": "address",
          "name": "member",
          "type": "address"
        },
        {
          "indexed": false,
          "internalType": "uint256",
          "name": "baseAmount",
          "type": "uint256"
        },
        {
          "indexed": false,
          "internalType": "uint256",
          "name": "liqUnits",
          "type": "uint256"
        },
        {
          "indexed": false,
          "internalType": "uint256",
          "name": "synthAmount",
          "type": "uint256"
        },
        {
          "indexed": false,
          "internalType": "uint256",
          "name": "fee",
          "type": "uint256"
        }
      ],
      "name": "MintSynth",
      "type": "event"
    },
    {
      "anonymous": false,
      "inputs": [
        {
          "indexed": true,
          "internalType": "address",
          "name": "member",
          "type": "address"
        },
        {
          "indexed": false,
          "internalType": "uint256",
          "name": "outputBase",
          "type": "uint256"
        },
        {
          "indexed": false,
          "internalType": "uint256",
          "name": "outputToken",
          "type": "uint256"
        },
        {
          "indexed": false,
          "internalType": "uint256",
          "name": "unitsClaimed",
          "type": "uint256"
        }
      ],
      "name": "RemoveLiquidity",
      "type": "event"
    },
    {
      "anonymous": false,
      "inputs": [
        {
          "indexed": true,
          "internalType": "address",
          "name": "tokenFrom",
          "type": "address"
        },
        {
          "indexed": true,
          "internalType": "address",
          "name": "tokenTo",
          "type": "address"
        },
        {
          "indexed": true,
          "internalType": "address",
          "name": "recipient",
          "type": "address"
        },
        {
          "indexed": false,
          "internalType": "uint256",
          "name": "inputAmount",
          "type": "uint256"
        },
        {
          "indexed": false,
          "internalType": "uint256",
          "name": "outputAmount",
          "type": "uint256"
        },
        {
          "indexed": false,
          "internalType": "uint256",
          "name": "fee",
          "type": "uint256"
        }
      ],
      "name": "Swapped",
      "type": "event"
    },
    {
      "anonymous": false,
      "inputs": [
        {
          "indexed": true,
          "internalType": "address",
          "name": "from",
          "type": "address"
        },
        {
          "indexed": true,
          "internalType": "address",
          "name": "to",
          "type": "address"
        },
        {
          "indexed": false,
          "internalType": "uint256",
          "name": "value",
          "type": "uint256"
        }
      ],
      "name": "Transfer",
      "type": "event"
    },
    {
      "inputs": [],
      "name": "BASE",
      "outputs": [
        {
          "internalType": "address",
          "name": "",
          "type": "address"
        }
      ],
      "stateMutability": "view",
      "type": "function"
    },
    {
      "inputs": [
        {
          "internalType": "uint256",
          "name": "_newRTC",
          "type": "uint256"
        }
      ],
      "name": "RTC",
      "outputs": [],
      "stateMutability": "nonpayable",
      "type": "function"
    },
    {
      "inputs": [],
      "name": "TOKEN",
      "outputs": [
        {
          "internalType": "address",
          "name": "",
          "type": "address"
        }
      ],
      "stateMutability": "view",
      "type": "function"
    },
    {
      "inputs": [
        {
          "internalType": "address",
          "name": "member",
          "type": "address"
        }
      ],
      "name": "addForMember",
      "outputs": [
        {
          "internalType": "uint256",
          "name": "liquidityUnits",
          "type": "uint256"
        }
      ],
      "stateMutability": "nonpayable",
      "type": "function"
    },
    {
      "inputs": [
        {
          "internalType": "address",
          "name": "owner",
          "type": "address"
        },
        {
          "internalType": "address",
          "name": "spender",
          "type": "address"
        }
      ],
      "name": "allowance",
      "outputs": [
        {
          "internalType": "uint256",
          "name": "",
          "type": "uint256"
        }
      ],
      "stateMutability": "view",
      "type": "function"
    },
    {
      "inputs": [
        {
          "internalType": "address",
          "name": "spender",
          "type": "address"
        },
        {
          "internalType": "uint256",
          "name": "amount",
          "type": "uint256"
        }
      ],
      "name": "approve",
      "outputs": [
        {
          "internalType": "bool",
          "name": "",
          "type": "bool"
        }
      ],
      "stateMutability": "nonpayable",
      "type": "function"
    },
    {
      "inputs": [
        {
          "internalType": "address",
          "name": "account",
          "type": "address"
        }
      ],
      "name": "balanceOf",
      "outputs": [
        {
          "internalType": "uint256",
          "name": "",
          "type": "uint256"
        }
      ],
      "stateMutability": "view",
      "type": "function"
    },
    {
      "inputs": [],
      "name": "baseAmount",
      "outputs": [
        {
          "internalType": "uint256",
          "name": "",
          "type": "uint256"
        }
      ],
      "stateMutability": "view",
      "type": "function"
    },
    {
      "inputs": [],
      "name": "baseCAP",
      "outputs": [
        {
          "internalType": "uint256",
          "name": "",
          "type": "uint256"
        }
      ],
      "stateMutability": "view",
      "type": "function"
    },
    {
      "inputs": [
        {
          "internalType": "uint256",
          "name": "amount",
          "type": "uint256"
        }
      ],
      "name": "burn",
      "outputs": [],
      "stateMutability": "nonpayable",
      "type": "function"
    },
    {
      "inputs": [
        {
          "internalType": "address",
          "name": "member",
          "type": "address"
        }
      ],
      "name": "burnSynth",
      "outputs": [
        {
          "internalType": "uint256",
          "name": "outputAmount",
          "type": "uint256"
        },
        {
          "internalType": "uint256",
          "name": "fee",
          "type": "uint256"
        }
      ],
      "stateMutability": "nonpayable",
      "type": "function"
    },
    {
      "inputs": [],
      "name": "decimals",
      "outputs": [
        {
          "internalType": "uint8",
          "name": "",
          "type": "uint8"
        }
      ],
      "stateMutability": "view",
      "type": "function"
    },
    {
      "inputs": [
        {
          "internalType": "address",
          "name": "spender",
          "type": "address"
        },
        {
          "internalType": "uint256",
          "name": "subtractedValue",
          "type": "uint256"
        }
      ],
      "name": "decreaseAllowance",
      "outputs": [
        {
          "internalType": "bool",
          "name": "",
          "type": "bool"
        }
      ],
      "stateMutability": "nonpayable",
      "type": "function"
    },
    {
      "inputs": [
        {
          "internalType": "uint256",
          "name": "newPeriod",
          "type": "uint256"
        }
      ],
      "name": "flipFreeze",
      "outputs": [],
      "stateMutability": "nonpayable",
      "type": "function"
    },
    {
      "inputs": [],
      "name": "freeze",
      "outputs": [
        {
          "internalType": "bool",
          "name": "",
          "type": "bool"
        }
      ],
      "stateMutability": "view",
      "type": "function"
    },
    {
      "inputs": [],
      "name": "genesis",
      "outputs": [
        {
          "internalType": "uint256",
          "name": "",
          "type": "uint256"
        }
      ],
      "stateMutability": "view",
      "type": "function"
    },
    {
      "inputs": [
        {
          "internalType": "address",
          "name": "spender",
          "type": "address"
        },
        {
          "internalType": "uint256",
          "name": "addedValue",
          "type": "uint256"
        }
      ],
      "name": "increaseAllowance",
      "outputs": [
        {
          "internalType": "bool",
          "name": "",
          "type": "bool"
        }
      ],
      "stateMutability": "nonpayable",
      "type": "function"
    },
    {
      "inputs": [],
      "name": "initiationPeriod",
      "outputs": [
        {
          "internalType": "uint256",
          "name": "",
          "type": "uint256"
        }
      ],
      "stateMutability": "view",
      "type": "function"
    },
    {
      "inputs": [],
      "name": "map30DPoolRevenue",
      "outputs": [
        {
          "internalType": "uint256",
          "name": "",
          "type": "uint256"
        }
      ],
      "stateMutability": "view",
      "type": "function"
    },
    {
      "inputs": [],
      "name": "mapPast30DPoolRevenue",
      "outputs": [
        {
          "internalType": "uint256",
          "name": "",
          "type": "uint256"
        }
      ],
      "stateMutability": "view",
      "type": "function"
    },
    {
      "inputs": [
        {
          "internalType": "address",
          "name": "member",
          "type": "address"
        }
      ],
      "name": "mintSynth",
      "outputs": [
        {
          "internalType": "uint256",
          "name": "outputAmount",
          "type": "uint256"
        },
        {
          "internalType": "uint256",
          "name": "fee",
          "type": "uint256"
        }
      ],
      "stateMutability": "nonpayable",
      "type": "function"
    },
    {
      "inputs": [],
      "name": "name",
      "outputs": [
        {
          "internalType": "string",
          "name": "",
          "type": "string"
        }
      ],
      "stateMutability": "view",
      "type": "function"
    },
    {
      "inputs": [],
      "name": "poolCAP",
      "outputs": [
        {
          "internalType": "uint256",
          "name": "",
          "type": "uint256"
        }
      ],
      "stateMutability": "view",
      "type": "function"
    },
    {
      "inputs": [
        {
          "internalType": "address",
          "name": "member",
          "type": "address"
        }
      ],
      "name": "removeForMember",
      "outputs": [
        {
          "internalType": "uint256",
          "name": "outputBase",
          "type": "uint256"
        },
        {
          "internalType": "uint256",
          "name": "outputToken",
          "type": "uint256"
        }
      ],
      "stateMutability": "nonpayable",
      "type": "function"
    },
    {
      "inputs": [
        {
          "internalType": "uint256",
          "name": "",
          "type": "uint256"
        }
      ],
      "name": "revenueArray",
      "outputs": [
        {
          "internalType": "uint256",
          "name": "",
          "type": "uint256"
        }
      ],
      "stateMutability": "view",
      "type": "function"
    },
    {
      "inputs": [
        {
          "internalType": "uint256",
          "name": "_poolCap",
          "type": "uint256"
        }
      ],
      "name": "setCAP",
      "outputs": [],
      "stateMutability": "nonpayable",
      "type": "function"
    },
    {
      "inputs": [
        {
          "internalType": "uint256",
          "name": "_newFreezePoint",
          "type": "uint256"
        }
      ],
      "name": "setFreezePoint",
      "outputs": [],
      "stateMutability": "nonpayable",
      "type": "function"
    },
    {
      "inputs": [
        {
          "internalType": "uint256",
          "name": "newInitiation",
          "type": "uint256"
        }
      ],
      "name": "setInitiation",
      "outputs": [],
      "stateMutability": "nonpayable",
      "type": "function"
    },
    {
      "inputs": [
        {
          "internalType": "address",
          "name": "token",
          "type": "address"
        },
        {
          "internalType": "address",
          "name": "member",
          "type": "address"
        }
      ],
      "name": "swapTo",
      "outputs": [
        {
          "internalType": "uint256",
          "name": "outputAmount",
          "type": "uint256"
        },
        {
          "internalType": "uint256",
          "name": "fee",
          "type": "uint256"
        }
      ],
      "stateMutability": "nonpayable",
      "type": "function"
    },
    {
      "inputs": [],
      "name": "symbol",
      "outputs": [
        {
          "internalType": "string",
          "name": "",
          "type": "string"
        }
      ],
      "stateMutability": "view",
      "type": "function"
    },
    {
      "inputs": [],
      "name": "sync",
      "outputs": [],
      "stateMutability": "nonpayable",
      "type": "function"
    },
    {
      "inputs": [],
      "name": "tokenAmount",
      "outputs": [
        {
          "internalType": "uint256",
          "name": "",
          "type": "uint256"
        }
      ],
      "stateMutability": "view",
      "type": "function"
    },
    {
      "inputs": [],
      "name": "totalSupply",
      "outputs": [
        {
          "internalType": "uint256",
          "name": "",
          "type": "uint256"
        }
      ],
      "stateMutability": "view",
      "type": "function"
    },
    {
      "inputs": [
        {
          "internalType": "address",
          "name": "recipient",
          "type": "address"
        },
        {
          "internalType": "uint256",
          "name": "amount",
          "type": "uint256"
        }
      ],
      "name": "transfer",
      "outputs": [
        {
          "internalType": "bool",
          "name": "",
          "type": "bool"
        }
      ],
      "stateMutability": "nonpayable",
      "type": "function"
    },
    {
      "inputs": [
        {
          "internalType": "address",
          "name": "sender",
          "type": "address"
        },
        {
          "internalType": "address",
          "name": "recipient",
          "type": "address"
        },
        {
          "internalType": "uint256",
          "name": "amount",
          "type": "uint256"
        }
      ],
      "name": "transferFrom",
      "outputs": [
        {
          "internalType": "bool",
          "name": "",
          "type": "bool"
        }
      ],
      "stateMutability": "nonpayable",
      "type": "function"
    }
  ],
  "bytecode": "0x60c06040523480156200001157600080fd5b506040516200615538038062006155833981810160405281019062000037919062000443565b600160008190555081600160006101000a81548173ffffffffffffffffffffffffffffffffffffffff021916908373ffffffffffffffffffffffffffffffffffffffff16021790555080600260006101000a81548173ffffffffffffffffffffffffffffffffffffffff021916908373ffffffffffffffffffffffffffffffffffffffff16021790555060006040518060400160405280601481526020017f2d5370617274616e50726f746f636f6c506f6f6c000000000000000000000000815250905060006040518060400160405280600481526020017f2d5350500000000000000000000000000000000000000000000000000000000081525090508273ffffffffffffffffffffffffffffffffffffffff166306fdde036040518163ffffffff1660e01b815260040160006040518083038186803b1580156200017c57600080fd5b505afa15801562000191573d6000803e3d6000fd5b505050506040513d6000823e3d601f19601f82011682018060405250810190620001bc919062000484565b82604051602001620001d092919062000500565b604051602081830303815290604052600a9080519060200190620001f69291906200030a565b508273ffffffffffffffffffffffffffffffffffffffff166395d89b416040518163ffffffff1660e01b815260040160006040518083038186803b1580156200023e57600080fd5b505afa15801562000253573d6000803e3d6000fd5b505050506040513d6000823e3d601f19601f820116820180604052508101906200027e919062000484565b816040516020016200029292919062000500565b604051602081830303815290604052600b9080519060200190620002b89291906200030a565b50601260ff1660808160ff1660f81b815250504260a08181525050610bb8600381905550610bb8600781905550620186a06004819055504260068190555062093a8060098190555050505050620006fc565b828054620003189062000607565b90600052602060002090601f0160209004810192826200033c576000855562000388565b82601f106200035757805160ff191683800117855562000388565b8280016001018555821562000388579182015b82811115620003875782518255916020019190600101906200036a565b5b5090506200039791906200039b565b5090565b5b80821115620003b65760008160009055506001016200039c565b5090565b6000620003d1620003cb8462000551565b62000528565b905082815260208101848484011115620003ea57600080fd5b620003f7848285620005d1565b509392505050565b6000815190506200041081620006e2565b92915050565b600082601f8301126200042857600080fd5b81516200043a848260208601620003ba565b91505092915050565b600080604083850312156200045757600080fd5b60006200046785828601620003ff565b92505060206200047a85828601620003ff565b9150509250929050565b6000602082840312156200049757600080fd5b600082015167ffffffffffffffff811115620004b257600080fd5b620004c08482850162000416565b91505092915050565b6000620004d68262000587565b620004e2818562000592565b9350620004f4818560208601620005d1565b80840191505092915050565b60006200050e8285620004c9565b91506200051c8284620004c9565b91508190509392505050565b60006200053462000547565b90506200054282826200063d565b919050565b6000604051905090565b600067ffffffffffffffff8211156200056f576200056e620006a2565b5b6200057a82620006d1565b9050602081019050919050565b600081519050919050565b600081905092915050565b6000620005aa82620005b1565b9050919050565b600073ffffffffffffffffffffffffffffffffffffffff82169050919050565b60005b83811015620005f1578082015181840152602081019050620005d4565b8381111562000601576000848401525b50505050565b600060028204905060018216806200062057607f821691505b6020821081141562000637576200063662000673565b5b50919050565b6200064882620006d1565b810181811067ffffffffffffffff821117156200066a5762000669620006a2565b5b80604052505050565b7f4e487b7100000000000000000000000000000000000000000000000000000000600052602260045260246000fd5b7f4e487b7100000000000000000000000000000000000000000000000000000000600052604160045260246000fd5b6000601f19601f8301169050919050565b620006ed816200059d565b8114620006f957600080fd5b50565b60805160f81c60a051615a296200072c600039600081816118c60152611e0701526000610cff0152615a296000f3fe608060405234801561001057600080fd5b50600436106102115760003560e01c806386d5f61811610125578063dbfc5a04116100ad578063eec7faa11161007c578063eec7faa114610659578063f0337cdc14610677578063f1bbdef2146106a7578063fb195363146106d8578063fff6cae9146106f457610211565b8063dbfc5a04146105bc578063dd62ed3e146105ed578063ec342ad01461061d578063ee2305011461063b57610211565b8063a7f0b3de116100f4578063a7f0b3de14610505578063a9059cbb14610523578063b98ac04b14610553578063ba8e3edd1461056f578063bc5dedc91461058b57610211565b806386d5f6181461046b57806395d89b411461049b5780639d3f87e2146104b9578063a457c2d7146104d557610211565b806342966c68116101a857806370a082311161017757806370a08231146103c557806370f93cdf146103f5578063752d7793146104135780637ec3eae51461043157806382bfefc81461044d57610211565b806342966c681461034f5780634864d1401461036b5780635f83e5d51461038957806362a5af3b146103a757610211565b806323b872dd116101e457806323b872dd146102a05780632783e4a9146102d0578063313ce56714610301578063395093511461031f57610211565b806306fdde0314610216578063095ea7b3146102345780630adba4ec1461026457806318160ddd14610282575b600080fd5b61021e6106fe565b60405161022b919061508c565b60405180910390f35b61024e60048036038101906102499190614ca8565b610790565b60405161025b9190615071565b60405180910390f35b61026c6107a7565b60405161027991906152de565b60405180910390f35b61028a6107ad565b60405161029791906152de565b60405180910390f35b6102ba60048036038101906102b59190614c59565b6107b3565b6040516102c79190615071565b60405180910390f35b6102ea60048036038101906102e59190614c1d565b6108a6565b6040516102f8929190615359565b60405180910390f35b610309610cfd565b6040516103169190615451565b60405180910390f35b61033960048036038101906103349190614ca8565b610d21565b6040516103469190615071565b60405180910390f35b61036960048036038101906103649190614d36565b610dbf565b005b610373610f5e565b60405161038091906152de565b60405180910390f35b610391610f64565b60405161039e91906152de565b60405180910390f35b6103af610f6a565b6040516103bc9190615071565b60405180910390f35b6103df60048036038101906103da9190614bcb565b610f7d565b6040516103ec91906152de565b60405180910390f35b6103fd610fc6565b60405161040a91906152de565b60405180910390f35b61041b610fcc565b60405161042891906152de565b60405180910390f35b61044b60048036038101906104469190614d36565b610fd2565b005b6104556111a3565b604051610462919061502d565b60405180910390f35b61048560048036038101906104809190614bcb565b6111c9565b60405161049291906152de565b60405180910390f35b6104a36115cc565b6040516104b0919061508c565b60405180910390f35b6104d360048036038101906104ce9190614d36565b61165e565b005b6104ef60048036038101906104ea9190614ca8565b6117de565b6040516104fc9190615071565b60405180910390f35b61050d6118c4565b60405161051a91906152de565b60405180910390f35b61053d60048036038101906105389190614ca8565b6118e8565b60405161054a9190615071565b60405180910390f35b61056d60048036038101906105689190614d36565b6118ff565b005b61058960048036038101906105849190614d36565b611ac4565b005b6105a560048036038101906105a09190614bcb565b611c89565b6040516105b3929190615359565b60405180910390f35b6105d660048036038101906105d19190614bcb565b6122da565b6040516105e4929190615359565b60405180910390f35b61060760048036038101906106029190614c1d565b612975565b60405161061491906152de565b60405180910390f35b6106256129fc565b604051610632919061502d565b60405180910390f35b610643612a22565b60405161065091906152de565b60405180910390f35b610661612a28565b60405161066e91906152de565b60405180910390f35b610691600480360381019061068c9190614d36565b612a2e565b60405161069e91906152de565b60405180910390f35b6106c160048036038101906106bc9190614bcb565b612a52565b6040516106cf929190615359565b60405180910390f35b6106f260048036038101906106ed9190614d36565b61319a565b005b6106fc613393565b005b6060600a805461070d90615637565b80601f016020809104026020016040519081016040528092919081815260200182805461073990615637565b80156107865780601f1061075b57610100808354040283529160200191610786565b820191906000526020600020905b81548152906001019060200180831161076957829003601f168201915b5050505050905090565b600061079d3384846135b3565b6001905092915050565b60035481565b600c5481565b60006107c084848461377e565b6000600e60008673ffffffffffffffffffffffffffffffffffffffff1673ffffffffffffffffffffffffffffffffffffffff16815260200190815260200160002060003373ffffffffffffffffffffffffffffffffffffffff1673ffffffffffffffffffffffffffffffffffffffff16815260200190815260200160002054905082811015610884576040517f08c379a000000000000000000000000000000000000000000000000000000000815260040161087b9061511e565b60405180910390fd5b61089a853385846108959190615569565b6135b3565b60019150509392505050565b6000806108b16139fc565b73ffffffffffffffffffffffffffffffffffffffff166332fe7b266040518163ffffffff1660e01b815260040160206040518083038186803b1580156108f657600080fd5b505afa15801561090a573d6000803e3d6000fd5b505050506040513d601f19601f8201168201806040525081019061092e9190614bf4565b73ffffffffffffffffffffffffffffffffffffffff163373ffffffffffffffffffffffffffffffffffffffff161480610a16575061096a6139fc565b73ffffffffffffffffffffffffffffffffffffffff16632ab24e496040518163ffffffff1660e01b815260040160206040518083038186803b1580156109af57600080fd5b505afa1580156109c3573d6000803e3d6000fd5b505050506040513d601f19601f820116820180604052508101906109e79190614bf4565b73ffffffffffffffffffffffffffffffffffffffff163373ffffffffffffffffffffffffffffffffffffffff16145b610a1f57600080fd5b600160009054906101000a900473ffffffffffffffffffffffffffffffffffffffff1673ffffffffffffffffffffffffffffffffffffffff168473ffffffffffffffffffffffffffffffffffffffff161480610ac85750600260009054906101000a900473ffffffffffffffffffffffffffffffffffffffff1673ffffffffffffffffffffffffffffffffffffffff168473ffffffffffffffffffffffffffffffffffffffff16145b610b07576040517f08c379a0000000000000000000000000000000000000000000000000000000008152600401610afe9061517e565b60405180910390fd5b600080600160009054906101000a900473ffffffffffffffffffffffffffffffffffffffff1673ffffffffffffffffffffffffffffffffffffffff168673ffffffffffffffffffffffffffffffffffffffff161415610ba557600260009054906101000a900473ffffffffffffffffffffffffffffffffffffffff169150610b8d613aa3565b9050610b9881613b7b565b8094508195505050610be6565b600160009054906101000a900473ffffffffffffffffffffffffffffffffffffffff169150610bd2613e3e565b9050610bdd81613f16565b80945081955050505b8473ffffffffffffffffffffffffffffffffffffffff168673ffffffffffffffffffffffffffffffffffffffff168373ffffffffffffffffffffffffffffffffffffffff167fc9163c3bdf7263acf1bb3d24072cc7da025f7181c31e2edc7e1673edf5e0ca32848888604051610c5e93929190615382565b60405180910390a48573ffffffffffffffffffffffffffffffffffffffff1663a9059cbb86866040518363ffffffff1660e01b8152600401610ca1929190615048565b602060405180830381600087803b158015610cbb57600080fd5b505af1158015610ccf573d6000803e3d6000fd5b505050506040513d601f19601f82011682018060405250810190610cf39190614ce4565b5050509250929050565b7f000000000000000000000000000000000000000000000000000000000000000081565b6000610db5338484600e60003373ffffffffffffffffffffffffffffffffffffffff1673ffffffffffffffffffffffffffffffffffffffff16815260200190815260200160002060008873ffffffffffffffffffffffffffffffffffffffff1673ffffffffffffffffffffffffffffffffffffffff16815260200190815260200160002054610db09190615488565b6135b3565b6001905092915050565b610dc761428b565b73ffffffffffffffffffffffffffffffffffffffff163373ffffffffffffffffffffffffffffffffffffffff1614610dfe57600080fd5b610e066139fc565b73ffffffffffffffffffffffffffffffffffffffff1663b93ec54b6040518163ffffffff1660e01b815260040160206040518083038186803b158015610e4b57600080fd5b505afa158015610e5f573d6000803e3d6000fd5b505050506040513d601f19601f82011682018060405250810190610e839190614bf4565b73ffffffffffffffffffffffffffffffffffffffff16635e0237ea610ea661428b565b6040518263ffffffff1660e01b8152600401610ec2919061502d565b60206040518083038186803b158015610eda57600080fd5b505afa158015610eee573d6000803e3d6000fd5b505050506040513d601f19601f82011682018060405250810190610f129190614ce4565b610f51576040517f08c379a0000000000000000000000000000000000000000000000000000000008152600401610f489061519e565b60405180910390fd5b610f5b33826143c1565b50565b600f5481565b60125481565b600860009054906101000a900460ff1681565b6000600d60008373ffffffffffffffffffffffffffffffffffffffff1673ffffffffffffffffffffffffffffffffffffffff168152602001908152602001600020549050919050565b60095481565b60135481565b610fda6139fc565b73ffffffffffffffffffffffffffffffffffffffff166332fe7b266040518163ffffffff1660e01b815260040160206040518083038186803b15801561101f57600080fd5b505afa158015611033573d6000803e3d6000fd5b505050506040513d601f19601f820116820180604052508101906110579190614bf4565b73ffffffffffffffffffffffffffffffffffffffff163373ffffffffffffffffffffffffffffffffffffffff16148061113f57506110936139fc565b73ffffffffffffffffffffffffffffffffffffffff16632ab24e496040518163ffffffff1660e01b815260040160206040518083038186803b1580156110d857600080fd5b505afa1580156110ec573d6000803e3d6000fd5b505050506040513d601f19601f820116820180604052508101906111109190614bf4565b73ffffffffffffffffffffffffffffffffffffffff163373ffffffffffffffffffffffffffffffffffffffff16145b61114857600080fd5b6002600454611157919061550f565b811115611199576040517f08c379a0000000000000000000000000000000000000000000000000000000008152600401611190906150fe565b60405180910390fd5b8060048190555050565b600260009054906101000a900473ffffffffffffffffffffffffffffffffffffffff1681565b60006111d36139fc565b73ffffffffffffffffffffffffffffffffffffffff166332fe7b266040518163ffffffff1660e01b815260040160206040518083038186803b15801561121857600080fd5b505afa15801561122c573d6000803e3d6000fd5b505050506040513d601f19601f820116820180604052508101906112509190614bf4565b73ffffffffffffffffffffffffffffffffffffffff163373ffffffffffffffffffffffffffffffffffffffff161480611338575061128c6139fc565b73ffffffffffffffffffffffffffffffffffffffff16632ab24e496040518163ffffffff1660e01b815260040160206040518083038186803b1580156112d157600080fd5b505afa1580156112e5573d6000803e3d6000fd5b505050506040513d601f19601f820116820180604052508101906113099190614bf4565b73ffffffffffffffffffffffffffffffffffffffff163373ffffffffffffffffffffffffffffffffffffffff16145b61134157600080fd5b600061134b613e3e565b90506000611357613aa3565b90506113616139fc565b73ffffffffffffffffffffffffffffffffffffffff16637b0e5c456040518163ffffffff1660e01b815260040160206040518083038186803b1580156113a657600080fd5b505afa1580156113ba573d6000803e3d6000fd5b505050506040513d601f19601f820116820180604052508101906113de9190614bf4565b73ffffffffffffffffffffffffffffffffffffffff1663c5c11ee983600f5484601054600c546040518663ffffffff1660e01b81526004016114249594939291906153fe565b60206040518083038186803b15801561143c57600080fd5b505afa158015611450573d6000803e3d6000fd5b505050506040513d601f19601f820116820180604052508101906114749190614d5f565b92506000600f54148061148957506000601054145b1561155f5768056bc75e2d6310000082101580156114a957506127108110155b6114e8576040517f08c379a00000000000000000000000000000000000000000000000000000000081526004016114df9061513e565b60405180910390fd5b60006127108460646114fa919061550f565b61150491906154de565b905080846115129190615569565b9350611540600160009054906101000a900473ffffffffffffffffffffffffffffffffffffffff168261458c565b81838461154d919061550f565b61155791906154de565b600581905550505b61156982826146d5565b611573848461458c565b8373ffffffffffffffffffffffffffffffffffffffff167fbeb3885786d637a474cbc287c0a44587231633a077f0bd30354d5a4b18996fce8383866040516115bd93929190615382565b60405180910390a25050919050565b6060600b80546115db90615637565b80601f016020809104026020016040519081016040528092919081815260200182805461160790615637565b80156116545780601f1061162957610100808354040283529160200191611654565b820191906000526020600020905b81548152906001019060200180831161163757829003601f168201915b5050505050905090565b6116666139fc565b73ffffffffffffffffffffffffffffffffffffffff166332fe7b266040518163ffffffff1660e01b815260040160206040518083038186803b1580156116ab57600080fd5b505afa1580156116bf573d6000803e3d6000fd5b505050506040513d601f19601f820116820180604052508101906116e39190614bf4565b73ffffffffffffffffffffffffffffffffffffffff163373ffffffffffffffffffffffffffffffffffffffff1614806117cb575061171f6139fc565b73ffffffffffffffffffffffffffffffffffffffff16632ab24e496040518163ffffffff1660e01b815260040160206040518083038186803b15801561176457600080fd5b505afa158015611778573d6000803e3d6000fd5b505050506040513d601f19601f8201168201806040525081019061179c9190614bf4565b73ffffffffffffffffffffffffffffffffffffffff163373ffffffffffffffffffffffffffffffffffffffff16145b6117d457600080fd5b8060078190555050565b600080600e60003373ffffffffffffffffffffffffffffffffffffffff1673ffffffffffffffffffffffffffffffffffffffff16815260200190815260200160002060008573ffffffffffffffffffffffffffffffffffffffff1673ffffffffffffffffffffffffffffffffffffffff168152602001908152602001600020549050828110156118a3576040517f08c379a000000000000000000000000000000000000000000000000000000000815260040161189a9061511e565b60405180910390fd5b6118b9338585846118b49190615569565b6135b3565b600191505092915050565b7f000000000000000000000000000000000000000000000000000000000000000081565b60006118f533848461377e565b6001905092915050565b6119076139fc565b73ffffffffffffffffffffffffffffffffffffffff166332fe7b266040518163ffffffff1660e01b815260040160206040518083038186803b15801561194c57600080fd5b505afa158015611960573d6000803e3d6000fd5b505050506040513d601f19601f820116820180604052508101906119849190614bf4565b73ffffffffffffffffffffffffffffffffffffffff163373ffffffffffffffffffffffffffffffffffffffff161480611a6c57506119c06139fc565b73ffffffffffffffffffffffffffffffffffffffff16632ab24e496040518163ffffffff1660e01b815260040160206040518083038186803b158015611a0557600080fd5b505afa158015611a19573d6000803e3d6000fd5b505050506040513d601f19601f82011682018060405250810190611a3d9190614bf4565b73ffffffffffffffffffffffffffffffffffffffff163373ffffffffffffffffffffffffffffffffffffffff16145b611a7557600080fd5b610bb8811115611aba576040517f08c379a0000000000000000000000000000000000000000000000000000000008152600401611ab1906150fe565b60405180910390fd5b8060038190555050565b611acc6139fc565b73ffffffffffffffffffffffffffffffffffffffff166332fe7b266040518163ffffffff1660e01b815260040160206040518083038186803b158015611b1157600080fd5b505afa158015611b25573d6000803e3d6000fd5b505050506040513d601f19601f82011682018060405250810190611b499190614bf4565b73ffffffffffffffffffffffffffffffffffffffff163373ffffffffffffffffffffffffffffffffffffffff161480611c315750611b856139fc565b73ffffffffffffffffffffffffffffffffffffffff16632ab24e496040518163ffffffff1660e01b815260040160206040518083038186803b158015611bca57600080fd5b505afa158015611bde573d6000803e3d6000fd5b505050506040513d601f19601f82011682018060405250810190611c029190614bf4565b73ffffffffffffffffffffffffffffffffffffffff163373ffffffffffffffffffffffffffffffffffffffff16145b611c3a57600080fd5b62093a808110611c7f576040517f08c379a0000000000000000000000000000000000000000000000000000000008152600401611c769061521e565b60405180910390fd5b8060098190555050565b600080611c946139fc565b73ffffffffffffffffffffffffffffffffffffffff166332fe7b266040518163ffffffff1660e01b815260040160206040518083038186803b158015611cd957600080fd5b505afa158015611ced573d6000803e3d6000fd5b505050506040513d601f19601f82011682018060405250810190611d119190614bf4565b73ffffffffffffffffffffffffffffffffffffffff163373ffffffffffffffffffffffffffffffffffffffff161480611df95750611d4d6139fc565b73ffffffffffffffffffffffffffffffffffffffff16632ab24e496040518163ffffffff1660e01b815260040160206040518083038186803b158015611d9257600080fd5b505afa158015611da6573d6000803e3d6000fd5b505050506040513d601f19601f82011682018060405250810190611dca9190614bf4565b73ffffffffffffffffffffffffffffffffffffffff163373ffffffffffffffffffffffffffffffffffffffff16145b611e0257600080fd5b6009547f0000000000000000000000000000000000000000000000000000000000000000611e309190615488565b4211611e71576040517f08c379a0000000000000000000000000000000000000000000000000000000008152600401611e689061529e565b60405180910390fd5b6000611e7c30610f7d565b90506000611e886139fc565b73ffffffffffffffffffffffffffffffffffffffff16637b0e5c456040518163ffffffff1660e01b815260040160206040518083038186803b158015611ecd57600080fd5b505afa158015611ee1573d6000803e3d6000fd5b505050506040513d601f19601f82011682018060405250810190611f059190614bf4565b90508073ffffffffffffffffffffffffffffffffffffffff16635a7b2ed383600160009054906101000a900473ffffffffffffffffffffffffffffffffffffffff16306040518463ffffffff1660e01b8152600401611f6693929190615322565b60206040518083038186803b158015611f7e57600080fd5b505afa158015611f92573d6000803e3d6000fd5b505050506040513d601f19601f82011682018060405250810190611fb69190614d5f565b93508073ffffffffffffffffffffffffffffffffffffffff16635a7b2ed383600260009054906101000a900473ffffffffffffffffffffffffffffffffffffffff16306040518463ffffffff1660e01b815260040161201793929190615322565b60206040518083038186803b15801561202f57600080fd5b505afa158015612043573d6000803e3d6000fd5b505050506040513d601f19601f820116820180604052508101906120679190614d5f565b92506120738484614713565b61207d30836143c1565b6120cf6040518060400160405280600581526020017f4241534520000000000000000000000000000000000000000000000000000000815250670de0b6b3a7640000866120ca91906154de565b614751565b6121216040518060400160405280600481526020017f544b4e2000000000000000000000000000000000000000000000000000000000815250670de0b6b3a76400008561211c91906154de565b614751565b600160009054906101000a900473ffffffffffffffffffffffffffffffffffffffff1673ffffffffffffffffffffffffffffffffffffffff1663a9059cbb86866040518363ffffffff1660e01b815260040161217e929190615048565b602060405180830381600087803b15801561219857600080fd5b505af11580156121ac573d6000803e3d6000fd5b505050506040513d601f19601f820116820180604052508101906121d09190614ce4565b50600260009054906101000a900473ffffffffffffffffffffffffffffffffffffffff1673ffffffffffffffffffffffffffffffffffffffff1663a9059cbb86856040518363ffffffff1660e01b815260040161222e929190615048565b602060405180830381600087803b15801561224857600080fd5b505af115801561225c573d6000803e3d6000fd5b505050506040513d601f19601f820116820180604052508101906122809190614ce4565b508473ffffffffffffffffffffffffffffffffffffffff167f59c3a0b60c6ab7deb62e1440c9e72441db6db7dfe514dba8cb18e60c0d896efa8585856040516122cb93929190615382565b60405180910390a25050915091565b6000806122e56139fc565b73ffffffffffffffffffffffffffffffffffffffff166332fe7b266040518163ffffffff1660e01b815260040160206040518083038186803b15801561232a57600080fd5b505afa15801561233e573d6000803e3d6000fd5b505050506040513d601f19601f820116820180604052508101906123629190614bf4565b73ffffffffffffffffffffffffffffffffffffffff163373ffffffffffffffffffffffffffffffffffffffff16148061244a575061239e6139fc565b73ffffffffffffffffffffffffffffffffffffffff16632ab24e496040518163ffffffff1660e01b815260040160206040518083038186803b1580156123e357600080fd5b505afa1580156123f7573d6000803e3d6000fd5b505050506040513d601f19601f8201168201806040525081019061241b9190614bf4565b73ffffffffffffffffffffffffffffffffffffffff163373ffffffffffffffffffffffffffffffffffffffff16145b61245357600080fd5b600061245d61428b565b9050600073ffffffffffffffffffffffffffffffffffffffff168173ffffffffffffffffffffffffffffffffffffffff1614156124cf576040517f08c379a00000000000000000000000000000000000000000000000000000000081526004016124c6906151fe565b60405180910390fd5b60006124d96139fc565b73ffffffffffffffffffffffffffffffffffffffff16637b0e5c456040518163ffffffff1660e01b815260040160206040518083038186803b15801561251e57600080fd5b505afa158015612532573d6000803e3d6000fd5b505050506040513d601f19601f820116820180604052508101906125569190614bf4565b905060008273ffffffffffffffffffffffffffffffffffffffff166318160ddd6040518163ffffffff1660e01b815260040160206040518083038186803b1580156125a057600080fd5b505afa1580156125b4573d6000803e3d6000fd5b505050506040513d601f19601f820116820180604052508101906125d89190614d5f565b905060008373ffffffffffffffffffffffffffffffffffffffff166370a08231306040518263ffffffff1660e01b8152600401612615919061502d565b60206040518083038186803b15801561262d57600080fd5b505afa158015612641573d6000803e3d6000fd5b505050506040513d601f19601f820116820180604052508101906126659190614d5f565b9050600081836126759190615569565b6010546126829190615488565b905060008473ffffffffffffffffffffffffffffffffffffffff1663701baaf38484600f546040518463ffffffff1660e01b81526004016126c593929190615382565b60206040518083038186803b1580156126dd57600080fd5b505afa1580156126f1573d6000803e3d6000fd5b505050506040513d601f19601f820116820180604052508101906127159190614d5f565b90508473ffffffffffffffffffffffffffffffffffffffff1663896a708c84866010546127429190615569565b600f546040518463ffffffff1660e01b815260040161276393929190615382565b60206040518083038186803b15801561277b57600080fd5b505afa15801561278f573d6000803e3d6000fd5b505050506040513d601f19601f820116820180604052508101906127b39190614d5f565b96506127c0816000614713565b6127c9876147ed565b60008673ffffffffffffffffffffffffffffffffffffffff166386450495856040518263ffffffff1660e01b815260040161280491906152de565b602060405180830381600087803b15801561281e57600080fd5b505af1158015612832573d6000803e3d6000fd5b505050506040513d601f19601f820116820180604052508101906128569190614d5f565b905061286287826143c1565b600160009054906101000a900473ffffffffffffffffffffffffffffffffffffffff1673ffffffffffffffffffffffffffffffffffffffff1663a9059cbb8b846040518363ffffffff1660e01b81526004016128bf929190615048565b602060405180830381600087803b1580156128d957600080fd5b505af11580156128ed573d6000803e3d6000fd5b505050506040513d601f19601f820116820180604052508101906129119190614ce4565b508973ffffffffffffffffffffffffffffffffffffffff167f6f3ac8cc4850a948dddb5c85957bbaadcbea6e4b2cef3f02f6af53fcf2596f568383878c60405161295e94939291906153b9565b60405180910390a281985050505050505050915091565b6000600e60008473ffffffffffffffffffffffffffffffffffffffff1673ffffffffffffffffffffffffffffffffffffffff16815260200190815260200160002060008373ffffffffffffffffffffffffffffffffffffffff1673ffffffffffffffffffffffffffffffffffffffff16815260200190815260200160002054905092915050565b600160009054906101000a900473ffffffffffffffffffffffffffffffffffffffff1681565b60045481565b60105481565b60148181548110612a3e57600080fd5b906000526020600020016000915090505481565b600080612a5d6139fc565b73ffffffffffffffffffffffffffffffffffffffff166332fe7b266040518163ffffffff1660e01b815260040160206040518083038186803b158015612aa257600080fd5b505afa158015612ab6573d6000803e3d6000fd5b505050506040513d601f19601f82011682018060405250810190612ada9190614bf4565b73ffffffffffffffffffffffffffffffffffffffff163373ffffffffffffffffffffffffffffffffffffffff161480612bc25750612b166139fc565b73ffffffffffffffffffffffffffffffffffffffff16632ab24e496040518163ffffffff1660e01b815260040160206040518083038186803b158015612b5b57600080fd5b505afa158015612b6f573d6000803e3d6000fd5b505050506040513d601f19601f82011682018060405250810190612b939190614bf4565b73ffffffffffffffffffffffffffffffffffffffff163373ffffffffffffffffffffffffffffffffffffffff16145b612bcb57600080fd5b6000612bd561428b565b9050600073ffffffffffffffffffffffffffffffffffffffff168173ffffffffffffffffffffffffffffffffffffffff161415612c47576040517f08c379a0000000000000000000000000000000000000000000000000000000008152600401612c3e906151fe565b60405180910390fd5b6000612c516139fc565b73ffffffffffffffffffffffffffffffffffffffff16637b0e5c456040518163ffffffff1660e01b815260040160206040518083038186803b158015612c9657600080fd5b505afa158015612caa573d6000803e3d6000fd5b505050506040513d601f19601f82011682018060405250810190612cce9190614bf4565b90506000612cda613e3e565b905060045481600f54612ced9190615488565b10612d2d576040517f08c379a0000000000000000000000000000000000000000000000000000000008152600401612d249061523e565b60405180910390fd5b6000612710600354601054612d42919061550f565b612d4c91906154de565b905060008473ffffffffffffffffffffffffffffffffffffffff166318160ddd6040518163ffffffff1660e01b815260040160206040518083038186803b158015612d9657600080fd5b505afa158015612daa573d6000803e3d6000fd5b505050506040513d601f19601f82011682018060405250810190612dce9190614d5f565b90508373ffffffffffffffffffffffffffffffffffffffff1663701baaf384600f546010546040518463ffffffff1660e01b8152600401612e1193929190615382565b60206040518083038186803b158015612e2957600080fd5b505afa158015612e3d573d6000803e3d6000fd5b505050506040513d601f19601f82011682018060405250810190612e619190614d5f565b9650818188612e709190615488565b10612eb0576040517f08c379a0000000000000000000000000000000000000000000000000000000008152600401612ea79061527e565b60405180910390fd5b60008473ffffffffffffffffffffffffffffffffffffffff1663b86a82ef85306040518363ffffffff1660e01b8152600401612eed9291906152f9565b60206040518083038186803b158015612f0557600080fd5b505afa158015612f19573d6000803e3d6000fd5b505050506040513d601f19601f82011682018060405250810190612f3d9190614d5f565b9050612f4a8460006146d5565b60008573ffffffffffffffffffffffffffffffffffffffff1663896a708c86600f5486601054612f7a9190615569565b6040518463ffffffff1660e01b8152600401612f9893929190615382565b60206040518083038186803b158015612fb057600080fd5b505afa158015612fc4573d6000803e3d6000fd5b505050506040513d601f19601f82011682018060405250810190612fe89190614d5f565b90508573ffffffffffffffffffffffffffffffffffffffff1663c19387df600260009054906101000a900473ffffffffffffffffffffffffffffffffffffffff16836040518363ffffffff1660e01b8152600401613047929190615048565b60206040518083038186803b15801561305f57600080fd5b505afa158015613073573d6000803e3d6000fd5b505050506040513d601f19601f820116820180604052508101906130979190614d5f565b97506130a3878361458c565b8673ffffffffffffffffffffffffffffffffffffffff166332f302e38b8b6040518363ffffffff1660e01b81526004016130de929190615048565b602060405180830381600087803b1580156130f857600080fd5b505af115801561310c573d6000803e3d6000fd5b505050506040513d601f19601f820116820180604052508101906131309190614d5f565b5061313a886147ed565b8973ffffffffffffffffffffffffffffffffffffffff167fbaff1e38597e99ccc6d6abf0e271a32ee3dc24114ea5bec3f05afd9bbb19f1f586848c8c60405161318694939291906153b9565b60405180910390a250505050505050915091565b6131a26139fc565b73ffffffffffffffffffffffffffffffffffffffff166332fe7b266040518163ffffffff1660e01b815260040160206040518083038186803b1580156131e757600080fd5b505afa1580156131fb573d6000803e3d6000fd5b505050506040513d601f19601f8201168201806040525081019061321f9190614bf4565b73ffffffffffffffffffffffffffffffffffffffff163373ffffffffffffffffffffffffffffffffffffffff161480613307575061325b6139fc565b73ffffffffffffffffffffffffffffffffffffffff16632ab24e496040518163ffffffff1660e01b815260040160206040518083038186803b1580156132a057600080fd5b505afa1580156132b4573d6000803e3d6000fd5b505050506040513d601f19601f820116820180604052508101906132d89190614bf4565b73ffffffffffffffffffffffffffffffffffffffff163373ffffffffffffffffffffffffffffffffffffffff16145b61331057600080fd5b6102448110613354576040517f08c379a000000000000000000000000000000000000000000000000000000000815260040161334b9061521e565b60405180910390fd5b600860009054906101000a900460ff1615600860006101000a81548160ff021916908315150217905550804261338a9190615488565b60068190555050565b61339b6139fc565b73ffffffffffffffffffffffffffffffffffffffff166398fabd3a6040518163ffffffff1660e01b815260040160206040518083038186803b1580156133e057600080fd5b505afa1580156133f4573d6000803e3d6000fd5b505050506040513d601f19601f820116820180604052508101906134189190614bf4565b73ffffffffffffffffffffffffffffffffffffffff163373ffffffffffffffffffffffffffffffffffffffff161461344f57600080fd5b600160009054906101000a900473ffffffffffffffffffffffffffffffffffffffff1673ffffffffffffffffffffffffffffffffffffffff166370a08231306040518263ffffffff1660e01b81526004016134aa919061502d565b60206040518083038186803b1580156134c257600080fd5b505afa1580156134d6573d6000803e3d6000fd5b505050506040513d601f19601f820116820180604052508101906134fa9190614d5f565b600f81905550600260009054906101000a900473ffffffffffffffffffffffffffffffffffffffff1673ffffffffffffffffffffffffffffffffffffffff166370a08231306040518263ffffffff1660e01b815260040161355b919061502d565b60206040518083038186803b15801561357357600080fd5b505afa158015613587573d6000803e3d6000fd5b505050506040513d601f19601f820116820180604052508101906135ab9190614d5f565b601081905550565b600073ffffffffffffffffffffffffffffffffffffffff168373ffffffffffffffffffffffffffffffffffffffff161415613623576040517f08c379a000000000000000000000000000000000000000000000000000000000815260040161361a906152be565b60405180910390fd5b600073ffffffffffffffffffffffffffffffffffffffff168273ffffffffffffffffffffffffffffffffffffffff161415613693576040517f08c379a000000000000000000000000000000000000000000000000000000000815260040161368a906151de565b60405180910390fd5b80600e60008573ffffffffffffffffffffffffffffffffffffffff1673ffffffffffffffffffffffffffffffffffffffff16815260200190815260200160002060008473ffffffffffffffffffffffffffffffffffffffff1673ffffffffffffffffffffffffffffffffffffffff168152602001908152602001600020819055508173ffffffffffffffffffffffffffffffffffffffff168373ffffffffffffffffffffffffffffffffffffffff167f8c5be1e5ebec7d5bd14f71427d1e84f3dd0314c0f7b2291e5b200ac8c7c3b9258360405161377191906152de565b60405180910390a3505050565b600073ffffffffffffffffffffffffffffffffffffffff168373ffffffffffffffffffffffffffffffffffffffff1614156137ee576040517f08c379a00000000000000000000000000000000000000000000000000000000081526004016137e59061525e565b60405180910390fd5b600073ffffffffffffffffffffffffffffffffffffffff168273ffffffffffffffffffffffffffffffffffffffff16141561385e576040517f08c379a0000000000000000000000000000000000000000000000000000000008152600401613855906151be565b60405180910390fd5b6000600d60008573ffffffffffffffffffffffffffffffffffffffff1673ffffffffffffffffffffffffffffffffffffffff168152602001908152602001600020549050818110156138e5576040517f08c379a00000000000000000000000000000000000000000000000000000000081526004016138dc9061515e565b60405180910390fd5b81600d60008673ffffffffffffffffffffffffffffffffffffffff1673ffffffffffffffffffffffffffffffffffffffff16815260200190815260200160002060008282546139349190615569565b9250508190555081600d60008573ffffffffffffffffffffffffffffffffffffffff1673ffffffffffffffffffffffffffffffffffffffff168152602001908152602001600020600082825461398a9190615488565b925050819055508273ffffffffffffffffffffffffffffffffffffffff168473ffffffffffffffffffffffffffffffffffffffff167fddf252ad1be2c89b69c2b068fc378daa952ba7f163c4a11628f55a4df523b3ef846040516139ee91906152de565b60405180910390a350505050565b6000600160009054906101000a900473ffffffffffffffffffffffffffffffffffffffff1673ffffffffffffffffffffffffffffffffffffffff166398fabd3a6040518163ffffffff1660e01b815260040160206040518083038186803b158015613a6657600080fd5b505afa158015613a7a573d6000803e3d6000fd5b505050506040513d601f19601f82011682018060405250810190613a9e9190614d0d565b905090565b600080600260009054906101000a900473ffffffffffffffffffffffffffffffffffffffff1673ffffffffffffffffffffffffffffffffffffffff166370a08231306040518263ffffffff1660e01b8152600401613b01919061502d565b60206040518083038186803b158015613b1957600080fd5b505afa158015613b2d573d6000803e3d6000fd5b505050506040513d601f19601f82011682018060405250810190613b519190614d5f565b9050601054811115613b725760105481613b6b9190615569565b9150613b77565b600091505b5090565b6000806000613b8861428b565b905060008060105490506000600f549050600073ffffffffffffffffffffffffffffffffffffffff168473ffffffffffffffffffffffffffffffffffffffff1614613c4e578373ffffffffffffffffffffffffffffffffffffffff166318160ddd6040518163ffffffff1660e01b815260040160206040518083038186803b158015613c1357600080fd5b505afa158015613c27573d6000803e3d6000fd5b505050506040513d601f19601f82011682018060405250810190613c4b9190614d5f565b92505b6000613c586139fc565b73ffffffffffffffffffffffffffffffffffffffff16637b0e5c456040518163ffffffff1660e01b815260040160206040518083038186803b158015613c9d57600080fd5b505afa158015613cb1573d6000803e3d6000fd5b505050506040513d601f19601f82011682018060405250810190613cd59190614bf4565b90508073ffffffffffffffffffffffffffffffffffffffff1663701baaf3898686613d009190615569565b856040518463ffffffff1660e01b8152600401613d1f93929190615382565b60206040518083038186803b158015613d3757600080fd5b505afa158015613d4b573d6000803e3d6000fd5b505050506040513d601f19601f82011682018060405250810190613d6f9190614d5f565b96508073ffffffffffffffffffffffffffffffffffffffff1663896a708c898686613d9a9190615569565b856040518463ffffffff1660e01b8152600401613db993929190615382565b60206040518083038186803b158015613dd157600080fd5b505afa158015613de5573d6000803e3d6000fd5b505050506040513d601f19601f82011682018060405250810190613e099190614d5f565b9550613e2b8783613e1a9190615569565b8985613e269190615488565b614856565b613e34866147ed565b5050505050915091565b600080600160009054906101000a900473ffffffffffffffffffffffffffffffffffffffff1673ffffffffffffffffffffffffffffffffffffffff166370a08231306040518263ffffffff1660e01b8152600401613e9c919061502d565b60206040518083038186803b158015613eb457600080fd5b505afa158015613ec8573d6000803e3d6000fd5b505050506040513d601f19601f82011682018060405250810190613eec9190614d5f565b9050600f54811115613f0d57600f5481613f069190615569565b9150613f12565b600091505b5090565b6000806000613f2361428b565b9050600080600f54905060006010549050600073ffffffffffffffffffffffffffffffffffffffff168473ffffffffffffffffffffffffffffffffffffffff1614613fe9578373ffffffffffffffffffffffffffffffffffffffff166318160ddd6040518163ffffffff1660e01b815260040160206040518083038186803b158015613fae57600080fd5b505afa158015613fc2573d6000803e3d6000fd5b505050506040513d601f19601f82011682018060405250810190613fe69190614d5f565b92505b6000613ff36139fc565b73ffffffffffffffffffffffffffffffffffffffff16637b0e5c456040518163ffffffff1660e01b815260040160206040518083038186803b15801561403857600080fd5b505afa15801561404c573d6000803e3d6000fd5b505050506040513d601f19601f820116820180604052508101906140709190614bf4565b90508073ffffffffffffffffffffffffffffffffffffffff1663701baaf38985878661409c9190615569565b6040518463ffffffff1660e01b81526004016140ba93929190615382565b60206040518083038186803b1580156140d257600080fd5b505afa1580156140e6573d6000803e3d6000fd5b505050506040513d601f19601f8201168201806040525081019061410a9190614d5f565b965060008173ffffffffffffffffffffffffffffffffffffffff1663896a708c8a8688876141389190615569565b6040518463ffffffff1660e01b815260040161415693929190615382565b60206040518083038186803b15801561416e57600080fd5b505afa158015614182573d6000803e3d6000fd5b505050506040513d601f19601f820116820180604052508101906141a69190614d5f565b90508173ffffffffffffffffffffffffffffffffffffffff1663c19387df600260009054906101000a900473ffffffffffffffffffffffffffffffffffffffff16836040518363ffffffff1660e01b8152600401614205929190615048565b60206040518083038186803b15801561421d57600080fd5b505afa158015614231573d6000803e3d6000fd5b505050506040513d601f19601f820116820180604052508101906142559190614d5f565b965061427789856142669190615488565b89856142729190615569565b614856565b614280876147ed565b505050505050915091565b60006142956139fc565b73ffffffffffffffffffffffffffffffffffffffff1663b93ec54b6040518163ffffffff1660e01b815260040160206040518083038186803b1580156142da57600080fd5b505afa1580156142ee573d6000803e3d6000fd5b505050506040513d601f19601f820116820180604052508101906143129190614bf4565b73ffffffffffffffffffffffffffffffffffffffff1663dcec8116600260009054906101000a900473ffffffffffffffffffffffffffffffffffffffff166040518263ffffffff1660e01b815260040161436c919061502d565b60206040518083038186803b15801561438457600080fd5b505afa158015614398573d6000803e3d6000fd5b505050506040513d601f19601f820116820180604052508101906143bc9190614bf4565b905090565b600073ffffffffffffffffffffffffffffffffffffffff168273ffffffffffffffffffffffffffffffffffffffff161415614431576040517f08c379a0000000000000000000000000000000000000000000000000000000008152600401614428906150de565b60405180910390fd5b80600d60008473ffffffffffffffffffffffffffffffffffffffff1673ffffffffffffffffffffffffffffffffffffffff1681526020019081526020016000205410156144b3576040517f08c379a00000000000000000000000000000000000000000000000000000000081526004016144aa9061515e565b60405180910390fd5b80600d60008473ffffffffffffffffffffffffffffffffffffffff1673ffffffffffffffffffffffffffffffffffffffff16815260200190815260200160002060008282546145029190615569565b9250508190555080600c600082825461451b9190615569565b92505081905550600073ffffffffffffffffffffffffffffffffffffffff168273ffffffffffffffffffffffffffffffffffffffff167fddf252ad1be2c89b69c2b068fc378daa952ba7f163c4a11628f55a4df523b3ef8360405161458091906152de565b60405180910390a35050565b600073ffffffffffffffffffffffffffffffffffffffff168273ffffffffffffffffffffffffffffffffffffffff1614156145fc576040517f08c379a00000000000000000000000000000000000000000000000000000000081526004016145f3906150de565b60405180910390fd5b80600c600082825461460e9190615488565b9250508190555080600d60008473ffffffffffffffffffffffffffffffffffffffff1673ffffffffffffffffffffffffffffffffffffffff16815260200190815260200160002060008282546146649190615488565b925050819055508173ffffffffffffffffffffffffffffffffffffffff16600073ffffffffffffffffffffffffffffffffffffffff167fddf252ad1be2c89b69c2b068fc378daa952ba7f163c4a11628f55a4df523b3ef836040516146c991906152de565b60405180910390a35050565b81600f60008282546146e79190615488565b9250508190555080601060008282546147009190615488565b9250508190555061470f614870565b5050565b81600f60008282546147259190615569565b92505081905550806010600082825461473e9190615569565b9250508190555061474d614870565b5050565b6147e982826040516024016147679291906150ae565b6040516020818303038152906040527f9710a9d0000000000000000000000000000000000000000000000000000000007bffffffffffffffffffffffffffffffffffffffffffffffffffffffff19166020820180517bffffffffffffffffffffffffffffffffffffffffffffffffffffffff8381831617835250505050614942565b5050565b6000601154141561480057426011819055505b62278d006011546148119190615488565b421161483057806012546148259190615488565b601281905550614853565b4260118190555060125460138190555061484b60135461496b565b806012819055505b50565b81600f819055508060108190555061486c614870565b5050565b600860009054906101000a900460ff16614940576000601054600f54600f54614899919061550f565b6148a391906154de565b905060006005548211156148c657600554826148bf9190615569565b90506148d7565b816005546148d49190615569565b90505b81612710826148e6919061550f565b6148f091906154de565b90506007548110614917576001600860006101000a81548160ff0219169083151502179055505b60065442111561493d57610e104261492f9190615488565b600681905550816005819055505b50505b565b60008151905060006a636f6e736f6c652e6c6f679050602083016000808483855afa5050505050565b600060148054806020026020016040519081016040528092919081815260200182805480156149b957602002820191906000526020600020905b8154815260200190600101908083116149a5575b50505050509050600281511415614ab55780600181518110614a04577f4e487b7100000000000000000000000000000000000000000000000000000000600052603260045260246000fd5b602002602001015181600081518110614a46577f4e487b7100000000000000000000000000000000000000000000000000000000600052603260045260246000fd5b6020026020010181815250508181600181518110614a8d577f4e487b7100000000000000000000000000000000000000000000000000000000600052603260045260246000fd5b6020026020010181815250508060149080519060200190614aaf929190614ae3565b50614adf565b60148290806001815401808255809150506001900390600052602060002001600090919091909150555b5050565b828054828255906000526020600020908101928215614b1f579160200282015b82811115614b1e578251825591602001919060010190614b03565b5b509050614b2c9190614b30565b5090565b5b80821115614b49576000816000905550600101614b31565b5090565b600081359050614b5c81615997565b92915050565b600081519050614b7181615997565b92915050565b600081519050614b86816159ae565b92915050565b600081519050614b9b816159c5565b92915050565b600081359050614bb0816159dc565b92915050565b600081519050614bc5816159dc565b92915050565b600060208284031215614bdd57600080fd5b6000614beb84828501614b4d565b91505092915050565b600060208284031215614c0657600080fd5b6000614c1484828501614b62565b91505092915050565b60008060408385031215614c3057600080fd5b6000614c3e85828601614b4d565b9250506020614c4f85828601614b4d565b9150509250929050565b600080600060608486031215614c6e57600080fd5b6000614c7c86828701614b4d565b9350506020614c8d86828701614b4d565b9250506040614c9e86828701614ba1565b9150509250925092565b60008060408385031215614cbb57600080fd5b6000614cc985828601614b4d565b9250506020614cda85828601614ba1565b9150509250929050565b600060208284031215614cf657600080fd5b6000614d0484828501614b77565b91505092915050565b600060208284031215614d1f57600080fd5b6000614d2d84828501614b8c565b91505092915050565b600060208284031215614d4857600080fd5b6000614d5684828501614ba1565b91505092915050565b600060208284031215614d7157600080fd5b6000614d7f84828501614bb6565b91505092915050565b614d918161559d565b82525050565b614da0816155af565b82525050565b6000614db18261546c565b614dbb8185615477565b9350614dcb818560208601615604565b614dd4816156f6565b840191505092915050565b6000614dec600883615477565b9150614df782615707565b602082019050919050565b6000614e0f600483615477565b9150614e1a82615730565b602082019050919050565b6000614e32600983615477565b9150614e3d82615759565b602082019050919050565b6000614e55600983615477565b9150614e6082615782565b602082019050919050565b6000614e78600883615477565b9150614e83826157ab565b602082019050919050565b6000614e9b600c83615477565b9150614ea6826157d4565b602082019050919050565b6000614ebe600683615477565b9150614ec9826157fd565b602082019050919050565b6000614ee1600583615477565b9150614eec82615826565b602082019050919050565b6000614f04600883615477565b9150614f0f8261584f565b602082019050919050565b6000614f27600683615477565b9150614f3282615878565b602082019050919050565b6000614f4a600683615477565b9150614f55826158a1565b602082019050919050565b6000614f6d600383615477565b9150614f78826158ca565b602082019050919050565b6000614f90600783615477565b9150614f9b826158f3565b602082019050919050565b6000614fb3600683615477565b9150614fbe8261591c565b602082019050919050565b6000614fd6600a83615477565b9150614fe182615945565b602082019050919050565b6000614ff9600683615477565b91506150048261596e565b602082019050919050565b615018816155ed565b82525050565b615027816155f7565b82525050565b60006020820190506150426000830184614d88565b92915050565b600060408201905061505d6000830185614d88565b61506a602083018461500f565b9392505050565b60006020820190506150866000830184614d97565b92915050565b600060208201905081810360008301526150a68184614da6565b905092915050565b600060408201905081810360008301526150c88185614da6565b90506150d7602083018461500f565b9392505050565b600060208201905081810360008301526150f781614ddf565b9050919050565b6000602082019050818103600083015261511781614e02565b9050919050565b6000602082019050818103600083015261513781614e25565b9050919050565b6000602082019050818103600083015261515781614e48565b9050919050565b6000602082019050818103600083015261517781614e6b565b9050919050565b6000602082019050818103600083015261519781614e8e565b9050919050565b600060208201905081810360008301526151b781614eb1565b9050919050565b600060208201905081810360008301526151d781614ed4565b9050919050565b600060208201905081810360008301526151f781614ef7565b9050919050565b6000602082019050818103600083015261521781614f1a565b9050919050565b6000602082019050818103600083015261523781614f3d565b9050919050565b6000602082019050818103600083015261525781614f60565b9050919050565b6000602082019050818103600083015261527781614f83565b9050919050565b6000602082019050818103600083015261529781614fa6565b9050919050565b600060208201905081810360008301526152b781614fc9565b9050919050565b600060208201905081810360008301526152d781614fec565b9050919050565b60006020820190506152f3600083018461500f565b92915050565b600060408201905061530e600083018561500f565b61531b6020830184614d88565b9392505050565b6000606082019050615337600083018661500f565b6153446020830185614d88565b6153516040830184614d88565b949350505050565b600060408201905061536e600083018561500f565b61537b602083018461500f565b9392505050565b6000606082019050615397600083018661500f565b6153a4602083018561500f565b6153b1604083018461500f565b949350505050565b60006080820190506153ce600083018761500f565b6153db602083018661500f565b6153e8604083018561500f565b6153f5606083018461500f565b95945050505050565b600060a082019050615413600083018861500f565b615420602083018761500f565b61542d604083018661500f565b61543a606083018561500f565b615447608083018461500f565b9695505050505050565b6000602082019050615466600083018461501e565b92915050565b600081519050919050565b600082825260208201905092915050565b6000615493826155ed565b915061549e836155ed565b9250827fffffffffffffffffffffffffffffffffffffffffffffffffffffffffffffffff038211156154d3576154d2615669565b5b828201905092915050565b60006154e9826155ed565b91506154f4836155ed565b92508261550457615503615698565b5b828204905092915050565b600061551a826155ed565b9150615525836155ed565b9250817fffffffffffffffffffffffffffffffffffffffffffffffffffffffffffffffff048311821515161561555e5761555d615669565b5b828202905092915050565b6000615574826155ed565b915061557f836155ed565b92508282101561559257615591615669565b5b828203905092915050565b60006155a8826155cd565b9050919050565b60008115159050919050565b60006155c68261559d565b9050919050565b600073ffffffffffffffffffffffffffffffffffffffff82169050919050565b6000819050919050565b600060ff82169050919050565b60005b83811015615622578082015181840152602081019050615607565b83811115615631576000848401525b50505050565b6000600282049050600182168061564f57607f821691505b60208210811415615663576156626156c7565b5b50919050565b7f4e487b7100000000000000000000000000000000000000000000000000000000600052601160045260246000fd5b7f4e487b7100000000000000000000000000000000000000000000000000000000600052601260045260246000fd5b7f4e487b7100000000000000000000000000000000000000000000000000000000600052602260045260246000fd5b6000601f19601f8301169050919050565b7f216163636f756e74000000000000000000000000000000000000000000000000600082015250565b7f214d415800000000000000000000000000000000000000000000000000000000600082015250565b7f21617070726f76616c0000000000000000000000000000000000000000000000600082015250565b7f2142616c616e6365640000000000000000000000000000000000000000000000600082015250565b7f2162616c616e6365000000000000000000000000000000000000000000000000600082015250565b7f21424153457c7c544f4b454e0000000000000000000000000000000000000000600082015250565b7f2153594e54480000000000000000000000000000000000000000000000000000600082015250565b7f214255524e000000000000000000000000000000000000000000000000000000600082015250565b7f217370656e646572000000000000000000000000000000000000000000000000600082015250565b7f2173796e74680000000000000000000000000000000000000000000000000000600082015250565b7f2156414c49440000000000000000000000000000000000000000000000000000600082015250565b7f5254430000000000000000000000000000000000000000000000000000000000600082015250565b7f2173656e64657200000000000000000000000000000000000000000000000000600082015250565b7f4341505045440000000000000000000000000000000000000000000000000000600082015250565b7f21494e4954494154454400000000000000000000000000000000000000000000600082015250565b7f216f776e65720000000000000000000000000000000000000000000000000000600082015250565b6159a08161559d565b81146159ab57600080fd5b50565b6159b7816155af565b81146159c257600080fd5b50565b6159ce816155bb565b81146159d957600080fd5b50565b6159e5816155ed565b81146159f057600080fd5b5056fea2646970667358221220c65ffbeda7be4af2a7f6137db100ac078ddfd5b1c260d4bf5e16d69b54277d3c64736f6c63430008030033",
  "linkReferences": {},
  "deployedLinkReferences": {}
}