{
  "_format": "hh-sol-artifact-1",
  "contractName": "Pool",
  "sourceName": "contracts/Pool.sol",
  "abi": [
    {
      "inputs": [
        {
          "internalType": "address",
          "name": "_base",
          "type": "address"
        },
        {
          "internalType": "address",
          "name": "_token",
          "type": "address"
        }
      ],
      "stateMutability": "nonpayable",
      "type": "constructor"
    },
    {
      "anonymous": false,
      "inputs": [
        {
          "indexed": true,
          "internalType": "address",
          "name": "member",
          "type": "address"
        },
        {
          "indexed": false,
          "internalType": "uint256",
          "name": "inputBase",
          "type": "uint256"
        },
        {
          "indexed": false,
          "internalType": "uint256",
          "name": "inputToken",
          "type": "uint256"
        },
        {
          "indexed": false,
          "internalType": "uint256",
          "name": "unitsIssued",
          "type": "uint256"
        }
      ],
      "name": "AddLiquidity",
      "type": "event"
    },
    {
      "anonymous": false,
      "inputs": [
        {
          "indexed": true,
          "internalType": "address",
          "name": "owner",
          "type": "address"
        },
        {
          "indexed": true,
          "internalType": "address",
          "name": "spender",
          "type": "address"
        },
        {
          "indexed": false,
          "internalType": "uint256",
          "name": "value",
          "type": "uint256"
        }
      ],
      "name": "Approval",
      "type": "event"
    },
    {
      "anonymous": false,
      "inputs": [
        {
          "indexed": true,
          "internalType": "address",
          "name": "member",
          "type": "address"
        },
        {
          "indexed": false,
          "internalType": "uint256",
          "name": "baseAmount",
          "type": "uint256"
        },
        {
          "indexed": false,
          "internalType": "uint256",
          "name": "liqUnits",
          "type": "uint256"
        },
        {
          "indexed": false,
          "internalType": "uint256",
          "name": "synthAmount",
          "type": "uint256"
        },
        {
          "indexed": false,
          "internalType": "uint256",
          "name": "fee",
          "type": "uint256"
        }
      ],
      "name": "BurnSynth",
      "type": "event"
    },
    {
      "anonymous": false,
      "inputs": [
        {
          "indexed": true,
          "internalType": "address",
          "name": "member",
          "type": "address"
        },
        {
          "indexed": false,
          "internalType": "uint256",
          "name": "baseAmount",
          "type": "uint256"
        },
        {
          "indexed": false,
          "internalType": "uint256",
          "name": "liqUnits",
          "type": "uint256"
        },
        {
          "indexed": false,
          "internalType": "uint256",
          "name": "synthAmount",
          "type": "uint256"
        },
        {
          "indexed": false,
          "internalType": "uint256",
          "name": "fee",
          "type": "uint256"
        }
      ],
      "name": "MintSynth",
      "type": "event"
    },
    {
      "anonymous": false,
      "inputs": [
        {
          "indexed": true,
          "internalType": "address",
          "name": "member",
          "type": "address"
        },
        {
          "indexed": false,
          "internalType": "uint256",
          "name": "outputBase",
          "type": "uint256"
        },
        {
          "indexed": false,
          "internalType": "uint256",
          "name": "outputToken",
          "type": "uint256"
        },
        {
          "indexed": false,
          "internalType": "uint256",
          "name": "unitsClaimed",
          "type": "uint256"
        }
      ],
      "name": "RemoveLiquidity",
      "type": "event"
    },
    {
      "anonymous": false,
      "inputs": [
        {
          "indexed": true,
          "internalType": "address",
          "name": "tokenFrom",
          "type": "address"
        },
        {
          "indexed": true,
          "internalType": "address",
          "name": "tokenTo",
          "type": "address"
        },
        {
          "indexed": true,
          "internalType": "address",
          "name": "recipient",
          "type": "address"
        },
        {
          "indexed": false,
          "internalType": "uint256",
          "name": "inputAmount",
          "type": "uint256"
        },
        {
          "indexed": false,
          "internalType": "uint256",
          "name": "outputAmount",
          "type": "uint256"
        },
        {
          "indexed": false,
          "internalType": "uint256",
          "name": "fee",
          "type": "uint256"
        }
      ],
      "name": "Swapped",
      "type": "event"
    },
    {
      "anonymous": false,
      "inputs": [
        {
          "indexed": true,
          "internalType": "address",
          "name": "from",
          "type": "address"
        },
        {
          "indexed": true,
          "internalType": "address",
          "name": "to",
          "type": "address"
        },
        {
          "indexed": false,
          "internalType": "uint256",
          "name": "value",
          "type": "uint256"
        }
      ],
      "name": "Transfer",
      "type": "event"
    },
    {
      "inputs": [],
      "name": "BASE",
      "outputs": [
        {
          "internalType": "address",
          "name": "",
          "type": "address"
        }
      ],
      "stateMutability": "view",
      "type": "function"
    },
    {
      "inputs": [
        {
          "internalType": "uint256",
          "name": "_newRTC",
          "type": "uint256"
        }
      ],
      "name": "RTC",
      "outputs": [],
      "stateMutability": "nonpayable",
      "type": "function"
    },
    {
      "inputs": [],
      "name": "SYNTH",
      "outputs": [
        {
          "internalType": "address",
          "name": "",
          "type": "address"
        }
      ],
      "stateMutability": "view",
      "type": "function"
    },
    {
      "inputs": [],
      "name": "TOKEN",
      "outputs": [
        {
          "internalType": "address",
          "name": "",
          "type": "address"
        }
      ],
      "stateMutability": "view",
      "type": "function"
    },
    {
      "inputs": [
        {
          "internalType": "address",
          "name": "member",
          "type": "address"
        }
      ],
      "name": "addForMember",
      "outputs": [
        {
          "internalType": "uint256",
          "name": "liquidityUnits",
          "type": "uint256"
        }
      ],
      "stateMutability": "nonpayable",
      "type": "function"
    },
    {
      "inputs": [
        {
          "internalType": "address",
          "name": "owner",
          "type": "address"
        },
        {
          "internalType": "address",
          "name": "spender",
          "type": "address"
        }
      ],
      "name": "allowance",
      "outputs": [
        {
          "internalType": "uint256",
          "name": "",
          "type": "uint256"
        }
      ],
      "stateMutability": "view",
      "type": "function"
    },
    {
      "inputs": [
        {
          "internalType": "address",
          "name": "spender",
          "type": "address"
        },
        {
          "internalType": "uint256",
          "name": "amount",
          "type": "uint256"
        }
      ],
      "name": "approve",
      "outputs": [
        {
          "internalType": "bool",
          "name": "",
          "type": "bool"
        }
      ],
      "stateMutability": "nonpayable",
      "type": "function"
    },
    {
      "inputs": [
        {
          "internalType": "address",
          "name": "account",
          "type": "address"
        }
      ],
      "name": "balanceOf",
      "outputs": [
        {
          "internalType": "uint256",
          "name": "",
          "type": "uint256"
        }
      ],
      "stateMutability": "view",
      "type": "function"
    },
    {
      "inputs": [],
      "name": "baseAmount",
      "outputs": [
        {
          "internalType": "uint256",
          "name": "",
          "type": "uint256"
        }
      ],
      "stateMutability": "view",
      "type": "function"
    },
    {
      "inputs": [],
      "name": "baseCap",
      "outputs": [
        {
          "internalType": "uint256",
          "name": "",
          "type": "uint256"
        }
      ],
      "stateMutability": "view",
      "type": "function"
    },
    {
      "inputs": [
        {
          "internalType": "uint256",
          "name": "amount",
          "type": "uint256"
        }
      ],
      "name": "burn",
      "outputs": [],
      "stateMutability": "nonpayable",
      "type": "function"
    },
    {
      "inputs": [
        {
          "internalType": "address",
          "name": "member",
          "type": "address"
        }
      ],
      "name": "burnSynth",
      "outputs": [
        {
          "internalType": "uint256",
          "name": "outputAmount",
          "type": "uint256"
        },
        {
          "internalType": "uint256",
          "name": "fee",
          "type": "uint256"
        }
      ],
      "stateMutability": "nonpayable",
      "type": "function"
    },
    {
      "inputs": [],
      "name": "decimals",
      "outputs": [
        {
          "internalType": "uint8",
          "name": "",
          "type": "uint8"
        }
      ],
      "stateMutability": "view",
      "type": "function"
    },
    {
      "inputs": [
        {
          "internalType": "address",
          "name": "spender",
          "type": "address"
        },
        {
          "internalType": "uint256",
          "name": "subtractedValue",
          "type": "uint256"
        }
      ],
      "name": "decreaseAllowance",
      "outputs": [
        {
          "internalType": "bool",
          "name": "",
          "type": "bool"
        }
      ],
      "stateMutability": "nonpayable",
      "type": "function"
    },
    {
      "inputs": [],
      "name": "freeze",
      "outputs": [
        {
          "internalType": "bool",
          "name": "",
          "type": "bool"
        }
      ],
      "stateMutability": "view",
      "type": "function"
    },
    {
      "inputs": [],
      "name": "genesis",
      "outputs": [
        {
          "internalType": "uint256",
          "name": "",
          "type": "uint256"
        }
      ],
      "stateMutability": "view",
      "type": "function"
    },
    {
      "inputs": [
        {
          "internalType": "address",
          "name": "spender",
          "type": "address"
        },
        {
          "internalType": "uint256",
          "name": "addedValue",
          "type": "uint256"
        }
      ],
      "name": "increaseAllowance",
      "outputs": [
        {
          "internalType": "bool",
          "name": "",
          "type": "bool"
        }
      ],
      "stateMutability": "nonpayable",
      "type": "function"
    },
    {
      "inputs": [],
      "name": "lastStirred",
      "outputs": [
        {
          "internalType": "uint256",
          "name": "",
          "type": "uint256"
        }
      ],
      "stateMutability": "view",
      "type": "function"
    },
    {
      "inputs": [],
      "name": "map30DPoolRevenue",
      "outputs": [
        {
          "internalType": "uint256",
          "name": "",
          "type": "uint256"
        }
      ],
      "stateMutability": "view",
      "type": "function"
    },
    {
      "inputs": [],
      "name": "mapPast30DPoolRevenue",
      "outputs": [
        {
          "internalType": "uint256",
          "name": "",
          "type": "uint256"
        }
      ],
      "stateMutability": "view",
      "type": "function"
    },
    {
      "inputs": [
        {
          "internalType": "address",
          "name": "member",
          "type": "address"
        }
      ],
      "name": "mintSynth",
      "outputs": [
        {
          "internalType": "uint256",
          "name": "outputAmount",
          "type": "uint256"
        },
        {
          "internalType": "uint256",
          "name": "fee",
          "type": "uint256"
        }
      ],
      "stateMutability": "nonpayable",
      "type": "function"
    },
    {
      "inputs": [],
      "name": "name",
      "outputs": [
        {
          "internalType": "string",
          "name": "",
          "type": "string"
        }
      ],
      "stateMutability": "view",
      "type": "function"
    },
    {
      "inputs": [],
      "name": "oldRate",
      "outputs": [
        {
          "internalType": "uint256",
          "name": "",
          "type": "uint256"
        }
      ],
      "stateMutability": "view",
      "type": "function"
    },
    {
      "inputs": [
        {
          "internalType": "address",
          "name": "member",
          "type": "address"
        }
      ],
      "name": "removeForMember",
      "outputs": [
        {
          "internalType": "uint256",
          "name": "outputBase",
          "type": "uint256"
        },
        {
          "internalType": "uint256",
          "name": "outputToken",
          "type": "uint256"
        }
      ],
      "stateMutability": "nonpayable",
      "type": "function"
    },
    {
      "inputs": [
        {
          "internalType": "uint256",
          "name": "_newFreezePoint",
          "type": "uint256"
        }
      ],
      "name": "setFreezePoint",
      "outputs": [],
      "stateMutability": "nonpayable",
      "type": "function"
    },
    {
      "inputs": [
        {
          "internalType": "uint256",
          "name": "_synthCap",
          "type": "uint256"
        }
      ],
      "name": "setSynthCap",
      "outputs": [],
      "stateMutability": "nonpayable",
      "type": "function"
    },
    {
      "inputs": [
        {
          "internalType": "address",
          "name": "synth",
          "type": "address"
        }
      ],
      "name": "stirCauldron",
      "outputs": [
        {
          "internalType": "uint256",
          "name": "steamedSynths",
          "type": "uint256"
        }
      ],
      "stateMutability": "nonpayable",
      "type": "function"
    },
    {
      "inputs": [],
      "name": "stirRate",
      "outputs": [
        {
          "internalType": "uint256",
          "name": "",
          "type": "uint256"
        }
      ],
      "stateMutability": "view",
      "type": "function"
    },
    {
      "inputs": [],
      "name": "stirStamp",
      "outputs": [
        {
          "internalType": "uint256",
          "name": "",
          "type": "uint256"
        }
      ],
      "stateMutability": "view",
      "type": "function"
    },
    {
      "inputs": [
        {
          "internalType": "address",
          "name": "token",
          "type": "address"
        },
        {
          "internalType": "address",
          "name": "member",
          "type": "address"
        }
      ],
      "name": "swapTo",
      "outputs": [
        {
          "internalType": "uint256",
          "name": "outputAmount",
          "type": "uint256"
        },
        {
          "internalType": "uint256",
          "name": "fee",
          "type": "uint256"
        }
      ],
      "stateMutability": "nonpayable",
      "type": "function"
    },
    {
      "inputs": [],
      "name": "symbol",
      "outputs": [
        {
          "internalType": "string",
          "name": "",
          "type": "string"
        }
      ],
      "stateMutability": "view",
      "type": "function"
    },
    {
      "inputs": [],
      "name": "sync",
      "outputs": [],
      "stateMutability": "nonpayable",
      "type": "function"
    },
    {
      "inputs": [],
      "name": "synthCap",
      "outputs": [
        {
          "internalType": "uint256",
          "name": "",
          "type": "uint256"
        }
      ],
      "stateMutability": "view",
      "type": "function"
    },
    {
      "inputs": [],
      "name": "tokenAmount",
      "outputs": [
        {
          "internalType": "uint256",
          "name": "",
          "type": "uint256"
        }
      ],
      "stateMutability": "view",
      "type": "function"
    },
    {
      "inputs": [],
      "name": "totalSupply",
      "outputs": [
        {
          "internalType": "uint256",
          "name": "",
          "type": "uint256"
        }
      ],
      "stateMutability": "view",
      "type": "function"
    },
    {
      "inputs": [
        {
          "internalType": "address",
          "name": "recipient",
          "type": "address"
        },
        {
          "internalType": "uint256",
          "name": "amount",
          "type": "uint256"
        }
      ],
      "name": "transfer",
      "outputs": [
        {
          "internalType": "bool",
          "name": "",
          "type": "bool"
        }
      ],
      "stateMutability": "nonpayable",
      "type": "function"
    },
    {
      "inputs": [
        {
          "internalType": "address",
          "name": "sender",
          "type": "address"
        },
        {
          "internalType": "address",
          "name": "recipient",
          "type": "address"
        },
        {
          "internalType": "uint256",
          "name": "amount",
          "type": "uint256"
        }
      ],
      "name": "transferFrom",
      "outputs": [
        {
          "internalType": "bool",
          "name": "",
          "type": "bool"
        }
      ],
      "stateMutability": "nonpayable",
      "type": "function"
    }
  ],
  "bytecode": "0x6101006040523480156200001257600080fd5b50604051620060a8380380620060a883398181016040528101906200003891906200044a565b8173ffffffffffffffffffffffffffffffffffffffff1660808173ffffffffffffffffffffffffffffffffffffffff1660601b815250508073ffffffffffffffffffffffffffffffffffffffff1660a08173ffffffffffffffffffffffffffffffffffffffff1660601b8152505060006040518060400160405280601481526020017f2d5370617274616e50726f746f636f6c506f6f6c000000000000000000000000815250905060006040518060400160405280600481526020017f2d5350500000000000000000000000000000000000000000000000000000000081525090508273ffffffffffffffffffffffffffffffffffffffff166306fdde036040518163ffffffff1660e01b815260040160006040518083038186803b1580156200016157600080fd5b505afa15801562000176573d6000803e3d6000fd5b505050506040513d6000823e3d601f19601f82011682018060405250810190620001a191906200048b565b82604051602001620001b592919062000507565b604051602081830303815290604052600a9080519060200190620001db92919062000311565b508273ffffffffffffffffffffffffffffffffffffffff166395d89b416040518163ffffffff1660e01b815260040160006040518083038186803b1580156200022357600080fd5b505afa15801562000238573d6000803e3d6000fd5b505050506040513d6000823e3d601f19601f820116820180604052508101906200026391906200048b565b816040516020016200027792919062000507565b604051602081830303815290604052600b90805190602001906200029d92919062000311565b50601260ff1660c08160ff1660f81b815250504260e08181525050603c42620002c79190620005a4565b600381905550426011819055506109c4600081905550610bb860048190555069152d02c7e14af6800000600181905550600060088190555060016006819055505050505062000799565b8280546200031f9062000675565b90600052602060002090601f0160209004810192826200034357600085556200038f565b82601f106200035e57805160ff19168380011785556200038f565b828001600101855582156200038f579182015b828111156200038e57825182559160200191906001019062000371565b5b5090506200039e9190620003a2565b5090565b5b80821115620003bd576000816000905550600101620003a3565b5090565b6000620003d8620003d28462000558565b6200052f565b905082815260208101848484011115620003f157600080fd5b620003fe8482856200063f565b509392505050565b60008151905062000417816200077f565b92915050565b600082601f8301126200042f57600080fd5b815162000441848260208601620003c1565b91505092915050565b600080604083850312156200045e57600080fd5b60006200046e8582860162000406565b9250506020620004818582860162000406565b9150509250929050565b6000602082840312156200049e57600080fd5b600082015167ffffffffffffffff811115620004b957600080fd5b620004c7848285016200041d565b91505092915050565b6000620004dd826200058e565b620004e9818562000599565b9350620004fb8185602086016200063f565b80840191505092915050565b6000620005158285620004d0565b9150620005238284620004d0565b91508190509392505050565b60006200053b6200054e565b9050620005498282620006ab565b919050565b6000604051905090565b600067ffffffffffffffff8211156200057657620005756200073f565b5b62000581826200076e565b9050602081019050919050565b600081519050919050565b600081905092915050565b6000620005b18262000635565b9150620005be8362000635565b9250827fffffffffffffffffffffffffffffffffffffffffffffffffffffffffffffffff03821115620005f657620005f5620006e1565b5b828201905092915050565b60006200060e8262000615565b9050919050565b600073ffffffffffffffffffffffffffffffffffffffff82169050919050565b6000819050919050565b60005b838110156200065f57808201518184015260208101905062000642565b838111156200066f576000848401525b50505050565b600060028204905060018216806200068e57607f821691505b60208210811415620006a557620006a462000710565b5b50919050565b620006b6826200076e565b810181811067ffffffffffffffff82111715620006d857620006d76200073f565b5b80604052505050565b7f4e487b7100000000000000000000000000000000000000000000000000000000600052601160045260246000fd5b7f4e487b7100000000000000000000000000000000000000000000000000000000600052602260045260246000fd5b7f4e487b7100000000000000000000000000000000000000000000000000000000600052604160045260246000fd5b6000601f19601f8301169050919050565b6200078a8162000601565b81146200079657600080fd5b50565b60805160601c60a05160601c60c05160f81c60e0516158406200086860003960008181611e3401526120ab01526000610d51015260008181610b8501528181610c35015281816115f5015281816122430152818161231701528181612ad7015281816132a60152818161388c01528181613e27015261438f015260008181610b3001528181610be101528181610c78015281816119c701528181612194015281816122ec0152818161292401528181612b69015281816137dd01528181613d8101526140e601526158406000f3fe608060405234801561001057600080fd5b50600436106102265760003560e01c8063752d779311610130578063a9059cbb116100b8578063e1eddde31161007c578063e1eddde3146106be578063ec342ad0146106dc578063eec7faa1146106fa578063f1bbdef214610718578063fff6cae91461074957610226565b8063a9059cbb146105de578063bc5dedc91461060e578063cbbcf8021461063f578063dbfc5a041461065d578063dd62ed3e1461068e57610226565b806395d89b41116100ff57806395d89b41146105385780639d3f87e214610556578063a457c2d714610572578063a7f0b3de146105a2578063a861ad29146105c057610226565b8063752d7793146104b05780637ec3eae5146104ce57806382bfefc8146104ea57806386d5f6181461050857610226565b806339509351116101b357806350f9844a1161018257806350f9844a146103f65780635f83e5d51461041457806361cc24bb1461043257806362a5af3b1461046257806370a082311461048057610226565b8063395093511461037057806342966c68146103a0578063474e7302146103bc5780634864d140146103d857610226565b806323b872dd116101fa57806323b872dd146102b55780632783e4a9146102e557806328ea0adc14610316578063313ce5671461033457806333ca78e41461035257610226565b8062aea7451461022b57806306fdde0314610249578063095ea7b31461026757806318160ddd14610297575b600080fd5b610233610753565b6040516102409190615227565b60405180910390f35b610251610759565b60405161025e9190615105565b60405180910390f35b610281600480360381019061027c9190614dc8565b6107eb565b60405161028e91906150ea565b60405180910390f35b61029f610802565b6040516102ac9190615227565b60405180910390f35b6102cf60048036038101906102ca9190614d79565b610808565b6040516102dc91906150ea565b60405180910390f35b6102ff60048036038101906102fa9190614d3d565b6108fb565b60405161030d9291906152a2565b60405180910390f35b61031e610d49565b60405161032b9190615227565b60405180910390f35b61033c610d4f565b604051610349919061539a565b60405180910390f35b61035a610d73565b6040516103679190615227565b60405180910390f35b61038a60048036038101906103859190614dc8565b610d79565b60405161039791906150ea565b60405180910390f35b6103ba60048036038101906103b59190614e56565b610e17565b005b6103d660048036038101906103d19190614e56565b610f80565b005b6103e06111c9565b6040516103ed9190615227565b60405180910390f35b6103fe6111cf565b60405161040b9190615227565b60405180910390f35b61041c6111d5565b6040516104299190615227565b60405180910390f35b61044c60048036038101906104479190614ceb565b6111db565b6040516104599190615227565b60405180910390f35b61046a61133c565b60405161047791906150ea565b60405180910390f35b61049a60048036038101906104959190614ceb565b61134f565b6040516104a79190615227565b60405180910390f35b6104b8611398565b6040516104c59190615227565b60405180910390f35b6104e860048036038101906104e39190614e56565b61139e565b005b6104f26115f3565b6040516104ff919061507d565b60405180910390f35b610522600480360381019061051d9190614ceb565b611617565b60405161052f9190615227565b60405180910390f35b610540611a80565b60405161054d9190615105565b60405180910390f35b610570600480360381019061056b9190614e56565b611b12565b005b61058c60048036038101906105879190614dc8565b611d4c565b60405161059991906150ea565b60405180910390f35b6105aa611e32565b6040516105b79190615227565b60405180910390f35b6105c8611e56565b6040516105d59190615227565b60405180910390f35b6105f860048036038101906105f39190614dc8565b611e5c565b60405161060591906150ea565b60405180910390f35b61062860048036038101906106239190614ceb565b611e73565b6040516106369291906152a2565b60405180910390f35b610647612396565b6040516106549190615227565b60405180910390f35b61067760048036038101906106729190614ceb565b61239c565b6040516106859291906152a2565b60405180910390f35b6106a860048036038101906106a39190614d3d565b6129ac565b6040516106b59190615227565b60405180910390f35b6106c6612a33565b6040516106d3919061507d565b60405180910390f35b6106e4612b67565b6040516106f1919061507d565b60405180910390f35b610702612b8b565b60405161070f9190615227565b60405180910390f35b610732600480360381019061072d9190614ceb565b612b91565b6040516107409291906152a2565b60405180910390f35b6107516135ab565b005b60085481565b6060600a805461076890615596565b80601f016020809104026020016040519081016040528092919081815260200182805461079490615596565b80156107e15780601f106107b6576101008083540402835291602001916107e1565b820191906000526020600020905b8154815290600101906020018083116107c457829003601f168201915b5050505050905090565b60006107f833848461393b565b6001905092915050565b600c5481565b6000610815848484613b06565b6000600e60008673ffffffffffffffffffffffffffffffffffffffff1673ffffffffffffffffffffffffffffffffffffffff16815260200190815260200160002060003373ffffffffffffffffffffffffffffffffffffffff1673ffffffffffffffffffffffffffffffffffffffff168152602001908152602001600020549050828110156108d9576040517f08c379a00000000000000000000000000000000000000000000000000000000081526004016108d090615147565b60405180910390fd5b6108ef853385846108ea91906154c8565b61393b565b60019150509392505050565b600080610906613d7d565b73ffffffffffffffffffffffffffffffffffffffff166332fe7b266040518163ffffffff1660e01b815260040160206040518083038186803b15801561094b57600080fd5b505afa15801561095f573d6000803e3d6000fd5b505050506040513d601f19601f820116820180604052508101906109839190614d14565b73ffffffffffffffffffffffffffffffffffffffff163373ffffffffffffffffffffffffffffffffffffffff161480610a6b57506109bf613d7d565b73ffffffffffffffffffffffffffffffffffffffff16632ab24e496040518163ffffffff1660e01b815260040160206040518083038186803b158015610a0457600080fd5b505afa158015610a18573d6000803e3d6000fd5b505050506040513d601f19601f82011682018060405250810190610a3c9190614d14565b73ffffffffffffffffffffffffffffffffffffffff163373ffffffffffffffffffffffffffffffffffffffff16145b80610b255750610a79613d7d565b73ffffffffffffffffffffffffffffffffffffffff1663b99b0a0c6040518163ffffffff1660e01b815260040160206040518083038186803b158015610abe57600080fd5b505afa158015610ad2573d6000803e3d6000fd5b505050506040513d601f19601f82011682018060405250810190610af69190614d14565b73ffffffffffffffffffffffffffffffffffffffff163373ffffffffffffffffffffffffffffffffffffffff16145b610b2e57600080fd5b7f000000000000000000000000000000000000000000000000000000000000000073ffffffffffffffffffffffffffffffffffffffff168473ffffffffffffffffffffffffffffffffffffffff161480610bd357507f000000000000000000000000000000000000000000000000000000000000000073ffffffffffffffffffffffffffffffffffffffff168473ffffffffffffffffffffffffffffffffffffffff16145b610bdc57600080fd5b6000807f000000000000000000000000000000000000000000000000000000000000000073ffffffffffffffffffffffffffffffffffffffff168673ffffffffffffffffffffffffffffffffffffffff161415610c76577f00000000000000000000000000000000000000000000000000000000000000009150610c5e613e22565b9050610c6981613ef8565b8094508195505050610cb5565b7f00000000000000000000000000000000000000000000000000000000000000009150610ca16140e1565b9050610cac816141b7565b80945081955050505b8473ffffffffffffffffffffffffffffffffffffffff168673ffffffffffffffffffffffffffffffffffffffff168373ffffffffffffffffffffffffffffffffffffffff167fc9163c3bdf7263acf1bb3d24072cc7da025f7181c31e2edc7e1673edf5e0ca32848888604051610d2d939291906152cb565b60405180910390a4610d40868686614450565b50509250929050565b60095481565b7f000000000000000000000000000000000000000000000000000000000000000081565b60005481565b6000610e0d338484600e60003373ffffffffffffffffffffffffffffffffffffffff1673ffffffffffffffffffffffffffffffffffffffff16815260200190815260200160002060008873ffffffffffffffffffffffffffffffffffffffff1673ffffffffffffffffffffffffffffffffffffffff16815260200190815260200160002054610e0891906153e7565b61393b565b6001905092915050565b610e1f612a33565b73ffffffffffffffffffffffffffffffffffffffff163373ffffffffffffffffffffffffffffffffffffffff1614610e5657600080fd5b610e5e613d7d565b73ffffffffffffffffffffffffffffffffffffffff1663b93ec54b6040518163ffffffff1660e01b815260040160206040518083038186803b158015610ea357600080fd5b505afa158015610eb7573d6000803e3d6000fd5b505050506040513d601f19601f82011682018060405250810190610edb9190614d14565b73ffffffffffffffffffffffffffffffffffffffff16635e0237ea610efe612a33565b6040518263ffffffff1660e01b8152600401610f1a919061507d565b60206040518083038186803b158015610f3257600080fd5b505afa158015610f46573d6000803e3d6000fd5b505050506040513d601f19601f82011682018060405250810190610f6a9190614e04565b610f7357600080fd5b610f7d33826145da565b50565b610f88613d7d565b73ffffffffffffffffffffffffffffffffffffffff166332fe7b266040518163ffffffff1660e01b815260040160206040518083038186803b158015610fcd57600080fd5b505afa158015610fe1573d6000803e3d6000fd5b505050506040513d601f19601f820116820180604052508101906110059190614d14565b73ffffffffffffffffffffffffffffffffffffffff163373ffffffffffffffffffffffffffffffffffffffff1614806110ed5750611041613d7d565b73ffffffffffffffffffffffffffffffffffffffff16632ab24e496040518163ffffffff1660e01b815260040160206040518083038186803b15801561108657600080fd5b505afa15801561109a573d6000803e3d6000fd5b505050506040513d601f19601f820116820180604052508101906110be9190614d14565b73ffffffffffffffffffffffffffffffffffffffff163373ffffffffffffffffffffffffffffffffffffffff16145b806111a757506110fb613d7d565b73ffffffffffffffffffffffffffffffffffffffff1663b99b0a0c6040518163ffffffff1660e01b815260040160206040518083038186803b15801561114057600080fd5b505afa158015611154573d6000803e3d6000fd5b505050506040513d601f19601f820116820180604052508101906111789190614d14565b73ffffffffffffffffffffffffffffffffffffffff163373ffffffffffffffffffffffffffffffffffffffff16145b6111b057600080fd5b610bb88111156111bf57600080fd5b8060008190555050565b600f5481565b60075481565b60125481565b6000806127106000546010546111f1919061546e565b6111fb919061543d565b90506000808473ffffffffffffffffffffffffffffffffffffffff166318160ddd6040518163ffffffff1660e01b815260040160206040518083038186803b15801561124657600080fd5b505afa15801561125a573d6000803e3d6000fd5b505050506040513d601f19601f8201168201806040525081019061127e9190614e7f565b90506000935080831061129a57808361129791906154c8565b91505b6000600854146112cc576000600854426112b491906154c8565b9050600754816112c4919061546e565b945050611301565b4260088190555042600981905550600654826112e8919061543d565b6007819055506007546138406112fe919061546e565b93505b60065460095461131191906153e7565b4211156113345760065482611326919061543d565b600781905550426009819055505b505050919050565b600560009054906101000a900460ff1681565b6000600d60008373ffffffffffffffffffffffffffffffffffffffff1673ffffffffffffffffffffffffffffffffffffffff168152602001908152602001600020549050919050565b60135481565b6113a6613d7d565b73ffffffffffffffffffffffffffffffffffffffff166332fe7b266040518163ffffffff1660e01b815260040160206040518083038186803b1580156113eb57600080fd5b505afa1580156113ff573d6000803e3d6000fd5b505050506040513d601f19601f820116820180604052508101906114239190614d14565b73ffffffffffffffffffffffffffffffffffffffff163373ffffffffffffffffffffffffffffffffffffffff16148061150b575061145f613d7d565b73ffffffffffffffffffffffffffffffffffffffff16632ab24e496040518163ffffffff1660e01b815260040160206040518083038186803b1580156114a457600080fd5b505afa1580156114b8573d6000803e3d6000fd5b505050506040513d601f19601f820116820180604052508101906114dc9190614d14565b73ffffffffffffffffffffffffffffffffffffffff163373ffffffffffffffffffffffffffffffffffffffff16145b806115c55750611519613d7d565b73ffffffffffffffffffffffffffffffffffffffff1663b99b0a0c6040518163ffffffff1660e01b815260040160206040518083038186803b15801561155e57600080fd5b505afa158015611572573d6000803e3d6000fd5b505050506040513d601f19601f820116820180604052508101906115969190614d14565b73ffffffffffffffffffffffffffffffffffffffff163373ffffffffffffffffffffffffffffffffffffffff16145b6115ce57600080fd5b60026001546115dd919061546e565b8111156115e957600080fd5b8060018190555050565b7f000000000000000000000000000000000000000000000000000000000000000081565b6000611621613d7d565b73ffffffffffffffffffffffffffffffffffffffff166332fe7b266040518163ffffffff1660e01b815260040160206040518083038186803b15801561166657600080fd5b505afa15801561167a573d6000803e3d6000fd5b505050506040513d601f19601f8201168201806040525081019061169e9190614d14565b73ffffffffffffffffffffffffffffffffffffffff163373ffffffffffffffffffffffffffffffffffffffff16148061178657506116da613d7d565b73ffffffffffffffffffffffffffffffffffffffff16632ab24e496040518163ffffffff1660e01b815260040160206040518083038186803b15801561171f57600080fd5b505afa158015611733573d6000803e3d6000fd5b505050506040513d601f19601f820116820180604052508101906117579190614d14565b73ffffffffffffffffffffffffffffffffffffffff163373ffffffffffffffffffffffffffffffffffffffff16145b806118405750611794613d7d565b73ffffffffffffffffffffffffffffffffffffffff1663b99b0a0c6040518163ffffffff1660e01b815260040160206040518083038186803b1580156117d957600080fd5b505afa1580156117ed573d6000803e3d6000fd5b505050506040513d601f19601f820116820180604052508101906118119190614d14565b73ffffffffffffffffffffffffffffffffffffffff163373ffffffffffffffffffffffffffffffffffffffff16145b61184957600080fd5b60006118536140e1565b9050600061185f613e22565b9050611869613d7d565b73ffffffffffffffffffffffffffffffffffffffff16637b0e5c456040518163ffffffff1660e01b815260040160206040518083038186803b1580156118ae57600080fd5b505afa1580156118c2573d6000803e3d6000fd5b505050506040513d601f19601f820116820180604052508101906118e69190614d14565b73ffffffffffffffffffffffffffffffffffffffff1663c5c11ee983600f5484601054600c546040518663ffffffff1660e01b815260040161192c959493929190615347565b60206040518083038186803b15801561194457600080fd5b505afa158015611958573d6000803e3d6000fd5b505050506040513d601f19601f8201168201806040525081019061197c9190614e7f565b92506000600f54148061199157506000601054145b15611a135760006127108460646119a8919061546e565b6119b2919061543d565b905080846119c091906154c8565b93506119ec7f0000000000000000000000000000000000000000000000000000000000000000826147a4565b8183670de0b6b3a7640000611a01919061546e565b611a0b919061543d565b600281905550505b611a1d82826148ed565b611a2784846147a4565b8373ffffffffffffffffffffffffffffffffffffffff167fbeb3885786d637a474cbc287c0a44587231633a077f0bd30354d5a4b18996fce838386604051611a71939291906152cb565b60405180910390a25050919050565b6060600b8054611a8f90615596565b80601f0160208091040260200160405190810160405280929190818152602001828054611abb90615596565b8015611b085780601f10611add57610100808354040283529160200191611b08565b820191906000526020600020905b815481529060010190602001808311611aeb57829003601f168201915b5050505050905090565b611b1a613d7d565b73ffffffffffffffffffffffffffffffffffffffff166332fe7b266040518163ffffffff1660e01b815260040160206040518083038186803b158015611b5f57600080fd5b505afa158015611b73573d6000803e3d6000fd5b505050506040513d601f19601f82011682018060405250810190611b979190614d14565b73ffffffffffffffffffffffffffffffffffffffff163373ffffffffffffffffffffffffffffffffffffffff161480611c7f5750611bd3613d7d565b73ffffffffffffffffffffffffffffffffffffffff16632ab24e496040518163ffffffff1660e01b815260040160206040518083038186803b158015611c1857600080fd5b505afa158015611c2c573d6000803e3d6000fd5b505050506040513d601f19601f82011682018060405250810190611c509190614d14565b73ffffffffffffffffffffffffffffffffffffffff163373ffffffffffffffffffffffffffffffffffffffff16145b80611d395750611c8d613d7d565b73ffffffffffffffffffffffffffffffffffffffff1663b99b0a0c6040518163ffffffff1660e01b815260040160206040518083038186803b158015611cd257600080fd5b505afa158015611ce6573d6000803e3d6000fd5b505050506040513d601f19601f82011682018060405250810190611d0a9190614d14565b73ffffffffffffffffffffffffffffffffffffffff163373ffffffffffffffffffffffffffffffffffffffff16145b611d4257600080fd5b8060048190555050565b600080600e60003373ffffffffffffffffffffffffffffffffffffffff1673ffffffffffffffffffffffffffffffffffffffff16815260200190815260200160002060008573ffffffffffffffffffffffffffffffffffffffff1673ffffffffffffffffffffffffffffffffffffffff16815260200190815260200160002054905082811015611e11576040517f08c379a0000000000000000000000000000000000000000000000000000000008152600401611e0890615147565b60405180910390fd5b611e2733858584611e2291906154c8565b61393b565b600191505092915050565b7f000000000000000000000000000000000000000000000000000000000000000081565b60025481565b6000611e69338484613b06565b6001905092915050565b600080611e7e613d7d565b73ffffffffffffffffffffffffffffffffffffffff166332fe7b266040518163ffffffff1660e01b815260040160206040518083038186803b158015611ec357600080fd5b505afa158015611ed7573d6000803e3d6000fd5b505050506040513d601f19601f82011682018060405250810190611efb9190614d14565b73ffffffffffffffffffffffffffffffffffffffff163373ffffffffffffffffffffffffffffffffffffffff161480611fe35750611f37613d7d565b73ffffffffffffffffffffffffffffffffffffffff16632ab24e496040518163ffffffff1660e01b815260040160206040518083038186803b158015611f7c57600080fd5b505afa158015611f90573d6000803e3d6000fd5b505050506040513d601f19601f82011682018060405250810190611fb49190614d14565b73ffffffffffffffffffffffffffffffffffffffff163373ffffffffffffffffffffffffffffffffffffffff16145b8061209d5750611ff1613d7d565b73ffffffffffffffffffffffffffffffffffffffff1663b99b0a0c6040518163ffffffff1660e01b815260040160206040518083038186803b15801561203657600080fd5b505afa15801561204a573d6000803e3d6000fd5b505050506040513d601f19601f8201168201806040525081019061206e9190614d14565b73ffffffffffffffffffffffffffffffffffffffff163373ffffffffffffffffffffffffffffffffffffffff16145b6120a657600080fd5b6006547f00000000000000000000000000000000000000000000000000000000000000006120d491906153e7565b42116120df57600080fd5b60006120ea3061134f565b905060006120f6613d7d565b73ffffffffffffffffffffffffffffffffffffffff16637b0e5c456040518163ffffffff1660e01b815260040160206040518083038186803b15801561213b57600080fd5b505afa15801561214f573d6000803e3d6000fd5b505050506040513d601f19601f820116820180604052508101906121739190614d14565b90508073ffffffffffffffffffffffffffffffffffffffff16635a7b2ed3837f0000000000000000000000000000000000000000000000000000000000000000306040518463ffffffff1660e01b81526004016121d29392919061526b565b60206040518083038186803b1580156121ea57600080fd5b505afa1580156121fe573d6000803e3d6000fd5b505050506040513d601f19601f820116820180604052508101906122229190614e7f565b93508073ffffffffffffffffffffffffffffffffffffffff16635a7b2ed3837f0000000000000000000000000000000000000000000000000000000000000000306040518463ffffffff1660e01b81526004016122819392919061526b565b60206040518083038186803b15801561229957600080fd5b505afa1580156122ad573d6000803e3d6000fd5b505050506040513d601f19601f820116820180604052508101906122d19190614e7f565b92506122dd8484614946565b6122e730836145da565b6123127f00000000000000000000000000000000000000000000000000000000000000008686614450565b61233d7f00000000000000000000000000000000000000000000000000000000000000008685614450565b8473ffffffffffffffffffffffffffffffffffffffff167f59c3a0b60c6ab7deb62e1440c9e72441db6db7dfe514dba8cb18e60c0d896efa858585604051612387939291906152cb565b60405180910390a25050915091565b60015481565b6000806123a7613d7d565b73ffffffffffffffffffffffffffffffffffffffff166332fe7b266040518163ffffffff1660e01b815260040160206040518083038186803b1580156123ec57600080fd5b505afa158015612400573d6000803e3d6000fd5b505050506040513d601f19601f820116820180604052508101906124249190614d14565b73ffffffffffffffffffffffffffffffffffffffff163373ffffffffffffffffffffffffffffffffffffffff16148061250c5750612460613d7d565b73ffffffffffffffffffffffffffffffffffffffff16632ab24e496040518163ffffffff1660e01b815260040160206040518083038186803b1580156124a557600080fd5b505afa1580156124b9573d6000803e3d6000fd5b505050506040513d601f19601f820116820180604052508101906124dd9190614d14565b73ffffffffffffffffffffffffffffffffffffffff163373ffffffffffffffffffffffffffffffffffffffff16145b806125c6575061251a613d7d565b73ffffffffffffffffffffffffffffffffffffffff1663b99b0a0c6040518163ffffffff1660e01b815260040160206040518083038186803b15801561255f57600080fd5b505afa158015612573573d6000803e3d6000fd5b505050506040513d601f19601f820116820180604052508101906125979190614d14565b73ffffffffffffffffffffffffffffffffffffffff163373ffffffffffffffffffffffffffffffffffffffff16145b6125cf57600080fd5b60006125d9612a33565b9050600073ffffffffffffffffffffffffffffffffffffffff168173ffffffffffffffffffffffffffffffffffffffff16141561261557600080fd5b600061261f613d7d565b73ffffffffffffffffffffffffffffffffffffffff16637b0e5c456040518163ffffffff1660e01b815260040160206040518083038186803b15801561266457600080fd5b505afa158015612678573d6000803e3d6000fd5b505050506040513d601f19601f8201168201806040525081019061269c9190614d14565b905060008273ffffffffffffffffffffffffffffffffffffffff166370a08231306040518263ffffffff1660e01b81526004016126d9919061507d565b60206040518083038186803b1580156126f157600080fd5b505afa158015612705573d6000803e3d6000fd5b505050506040513d601f19601f820116820180604052508101906127299190614e7f565b905060008273ffffffffffffffffffffffffffffffffffffffff1663701baaf383601054600f546040518463ffffffff1660e01b815260040161276e939291906152cb565b60206040518083038186803b15801561278657600080fd5b505afa15801561279a573d6000803e3d6000fd5b505050506040513d601f19601f820116820180604052508101906127be9190614e7f565b9050600061271061251c836127d3919061546e565b6127dd919061543d565b90508373ffffffffffffffffffffffffffffffffffffffff1663896a708c84601054600f546040518463ffffffff1660e01b8152600401612820939291906152cb565b60206040518083038186803b15801561283857600080fd5b505afa15801561284c573d6000803e3d6000fd5b505050506040513d601f19601f820116820180604052508101906128709190614e7f565b955061287d816000614946565b61288686614984565b60008573ffffffffffffffffffffffffffffffffffffffff166386450495856040518263ffffffff1660e01b81526004016128c19190615227565b602060405180830381600087803b1580156128db57600080fd5b505af11580156128ef573d6000803e3d6000fd5b505050506040513d601f19601f820116820180604052508101906129139190614e7f565b905061291f86826145da565b61294a7f00000000000000000000000000000000000000000000000000000000000000008a84614450565b8873ffffffffffffffffffffffffffffffffffffffff167f6f3ac8cc4850a948dddb5c85957bbaadcbea6e4b2cef3f02f6af53fcf2596f568383878b6040516129969493929190615302565b60405180910390a2819750505050505050915091565b6000600e60008473ffffffffffffffffffffffffffffffffffffffff1673ffffffffffffffffffffffffffffffffffffffff16815260200190815260200160002060008373ffffffffffffffffffffffffffffffffffffffff1673ffffffffffffffffffffffffffffffffffffffff16815260200190815260200160002054905092915050565b6000612a3d613d7d565b73ffffffffffffffffffffffffffffffffffffffff1663b93ec54b6040518163ffffffff1660e01b815260040160206040518083038186803b158015612a8257600080fd5b505afa158015612a96573d6000803e3d6000fd5b505050506040513d601f19601f82011682018060405250810190612aba9190614d14565b73ffffffffffffffffffffffffffffffffffffffff1663dcec81167f00000000000000000000000000000000000000000000000000000000000000006040518263ffffffff1660e01b8152600401612b12919061507d565b60206040518083038186803b158015612b2a57600080fd5b505afa158015612b3e573d6000803e3d6000fd5b505050506040513d601f19601f82011682018060405250810190612b629190614d14565b905090565b7f000000000000000000000000000000000000000000000000000000000000000081565b60105481565b600080612b9c613d7d565b73ffffffffffffffffffffffffffffffffffffffff166332fe7b266040518163ffffffff1660e01b815260040160206040518083038186803b158015612be157600080fd5b505afa158015612bf5573d6000803e3d6000fd5b505050506040513d601f19601f82011682018060405250810190612c199190614d14565b73ffffffffffffffffffffffffffffffffffffffff163373ffffffffffffffffffffffffffffffffffffffff161480612d015750612c55613d7d565b73ffffffffffffffffffffffffffffffffffffffff16632ab24e496040518163ffffffff1660e01b815260040160206040518083038186803b158015612c9a57600080fd5b505afa158015612cae573d6000803e3d6000fd5b505050506040513d601f19601f82011682018060405250810190612cd29190614d14565b73ffffffffffffffffffffffffffffffffffffffff163373ffffffffffffffffffffffffffffffffffffffff16145b80612dbb5750612d0f613d7d565b73ffffffffffffffffffffffffffffffffffffffff1663b99b0a0c6040518163ffffffff1660e01b815260040160206040518083038186803b158015612d5457600080fd5b505afa158015612d68573d6000803e3d6000fd5b505050506040513d601f19601f82011682018060405250810190612d8c9190614d14565b73ffffffffffffffffffffffffffffffffffffffff163373ffffffffffffffffffffffffffffffffffffffff16145b612dc457600080fd5b6000612dce612a33565b9050612dd8613d7d565b73ffffffffffffffffffffffffffffffffffffffff166332fe7b266040518163ffffffff1660e01b815260040160206040518083038186803b158015612e1d57600080fd5b505afa158015612e31573d6000803e3d6000fd5b505050506040513d601f19601f82011682018060405250810190612e559190614d14565b73ffffffffffffffffffffffffffffffffffffffff1663940c4abc6040518163ffffffff1660e01b815260040160206040518083038186803b158015612e9a57600080fd5b505afa158015612eae573d6000803e3d6000fd5b505050506040513d601f19601f82011682018060405250810190612ed29190614e04565b612edb57600080fd5b612ee3613d7d565b73ffffffffffffffffffffffffffffffffffffffff1663b93ec54b6040518163ffffffff1660e01b815260040160206040518083038186803b158015612f2857600080fd5b505afa158015612f3c573d6000803e3d6000fd5b505050506040513d601f19601f82011682018060405250810190612f609190614d14565b73ffffffffffffffffffffffffffffffffffffffff16635e0237ea826040518263ffffffff1660e01b8152600401612f98919061507d565b60206040518083038186803b158015612fb057600080fd5b505afa158015612fc4573d6000803e3d6000fd5b505050506040513d601f19601f82011682018060405250810190612fe89190614e04565b612ff157600080fd5b6000612ffb613d7d565b73ffffffffffffffffffffffffffffffffffffffff16637b0e5c456040518163ffffffff1660e01b815260040160206040518083038186803b15801561304057600080fd5b505afa158015613054573d6000803e3d6000fd5b505050506040513d601f19601f820116820180604052508101906130789190614d14565b905060006130846140e1565b90506000613091846111db565b905060008373ffffffffffffffffffffffffffffffffffffffff1663701baaf384600f546010546040518463ffffffff1660e01b81526004016130d6939291906152cb565b60206040518083038186803b1580156130ee57600080fd5b505afa158015613102573d6000803e3d6000fd5b505050506040513d601f19601f820116820180604052508101906131269190614e7f565b9050426008819055506127106126ac82613140919061546e565b61314a919061543d565b96508187111561315957600080fd5b60008473ffffffffffffffffffffffffffffffffffffffff1663b86a82ef85306040518363ffffffff1660e01b8152600401613196929190615242565b60206040518083038186803b1580156131ae57600080fd5b505afa1580156131c2573d6000803e3d6000fd5b505050506040513d601f19601f820116820180604052508101906131e69190614e7f565b90506131f38460006148ed565b60008573ffffffffffffffffffffffffffffffffffffffff1663896a708c86600f546010546040518463ffffffff1660e01b8152600401613236939291906152cb565b60206040518083038186803b15801561324e57600080fd5b505afa158015613262573d6000803e3d6000fd5b505050506040513d601f19601f820116820180604052508101906132869190614e7f565b90508573ffffffffffffffffffffffffffffffffffffffff1663c19387df7f0000000000000000000000000000000000000000000000000000000000000000836040518363ffffffff1660e01b81526004016132e39291906150c1565b60206040518083038186803b1580156132fb57600080fd5b505afa15801561330f573d6000803e3d6000fd5b505050506040513d601f19601f820116820180604052508101906133339190614e7f565b975061333f87836147a4565b8673ffffffffffffffffffffffffffffffffffffffff166332f302e3613363613d7d565b73ffffffffffffffffffffffffffffffffffffffff16632ab24e496040518163ffffffff1660e01b815260040160206040518083038186803b1580156133a857600080fd5b505afa1580156133bc573d6000803e3d6000fd5b505050506040513d601f19601f820116820180604052508101906133e09190614d14565b8b6040518363ffffffff1660e01b81526004016133fe9291906150c1565b602060405180830381600087803b15801561341857600080fd5b505af115801561342c573d6000803e3d6000fd5b505050506040513d601f19601f820116820180604052508101906134509190614e7f565b50613459613d7d565b73ffffffffffffffffffffffffffffffffffffffff16632ab24e496040518163ffffffff1660e01b815260040160206040518083038186803b15801561349e57600080fd5b505afa1580156134b2573d6000803e3d6000fd5b505050506040513d601f19601f820116820180604052508101906134d69190614d14565b73ffffffffffffffffffffffffffffffffffffffff16634335a95c888c6040518363ffffffff1660e01b8152600401613510929190615098565b600060405180830381600087803b15801561352a57600080fd5b505af115801561353e573d6000803e3d6000fd5b5050505061354b88614984565b8973ffffffffffffffffffffffffffffffffffffffff167fbaff1e38597e99ccc6d6abf0e271a32ee3dc24114ea5bec3f05afd9bbb19f1f586848c8c6040516135979493929190615302565b60405180910390a250505050505050915091565b6135b3613d7d565b73ffffffffffffffffffffffffffffffffffffffff166398fabd3a6040518163ffffffff1660e01b815260040160206040518083038186803b1580156135f857600080fd5b505afa15801561360c573d6000803e3d6000fd5b505050506040513d601f19601f820116820180604052508101906136309190614d14565b73ffffffffffffffffffffffffffffffffffffffff163373ffffffffffffffffffffffffffffffffffffffff161480613718575061366c613d7d565b73ffffffffffffffffffffffffffffffffffffffff166332fe7b266040518163ffffffff1660e01b815260040160206040518083038186803b1580156136b157600080fd5b505afa1580156136c5573d6000803e3d6000fd5b505050506040513d601f19601f820116820180604052508101906136e99190614d14565b73ffffffffffffffffffffffffffffffffffffffff163373ffffffffffffffffffffffffffffffffffffffff16145b806137d25750613726613d7d565b73ffffffffffffffffffffffffffffffffffffffff16632ab24e496040518163ffffffff1660e01b815260040160206040518083038186803b15801561376b57600080fd5b505afa15801561377f573d6000803e3d6000fd5b505050506040513d601f19601f820116820180604052508101906137a39190614d14565b73ffffffffffffffffffffffffffffffffffffffff163373ffffffffffffffffffffffffffffffffffffffff16145b6137db57600080fd5b7f000000000000000000000000000000000000000000000000000000000000000073ffffffffffffffffffffffffffffffffffffffff166370a08231306040518263ffffffff1660e01b8152600401613834919061507d565b60206040518083038186803b15801561384c57600080fd5b505afa158015613860573d6000803e3d6000fd5b505050506040513d601f19601f820116820180604052508101906138849190614e7f565b600f819055507f000000000000000000000000000000000000000000000000000000000000000073ffffffffffffffffffffffffffffffffffffffff166370a08231306040518263ffffffff1660e01b81526004016138e3919061507d565b60206040518083038186803b1580156138fb57600080fd5b505afa15801561390f573d6000803e3d6000fd5b505050506040513d601f19601f820116820180604052508101906139339190614e7f565b601081905550565b600073ffffffffffffffffffffffffffffffffffffffff168373ffffffffffffffffffffffffffffffffffffffff1614156139ab576040517f08c379a00000000000000000000000000000000000000000000000000000000081526004016139a290615207565b60405180910390fd5b600073ffffffffffffffffffffffffffffffffffffffff168273ffffffffffffffffffffffffffffffffffffffff161415613a1b576040517f08c379a0000000000000000000000000000000000000000000000000000000008152600401613a12906151a7565b60405180910390fd5b80600e60008573ffffffffffffffffffffffffffffffffffffffff1673ffffffffffffffffffffffffffffffffffffffff16815260200190815260200160002060008473ffffffffffffffffffffffffffffffffffffffff1673ffffffffffffffffffffffffffffffffffffffff168152602001908152602001600020819055508173ffffffffffffffffffffffffffffffffffffffff168373ffffffffffffffffffffffffffffffffffffffff167f8c5be1e5ebec7d5bd14f71427d1e84f3dd0314c0f7b2291e5b200ac8c7c3b92583604051613af99190615227565b60405180910390a3505050565b600073ffffffffffffffffffffffffffffffffffffffff168373ffffffffffffffffffffffffffffffffffffffff161415613b76576040517f08c379a0000000000000000000000000000000000000000000000000000000008152600401613b6d906151e7565b60405180910390fd5b600073ffffffffffffffffffffffffffffffffffffffff168273ffffffffffffffffffffffffffffffffffffffff161415613be6576040517f08c379a0000000000000000000000000000000000000000000000000000000008152600401613bdd90615187565b60405180910390fd5b6000600d60008573ffffffffffffffffffffffffffffffffffffffff1673ffffffffffffffffffffffffffffffffffffffff16815260200190815260200160002054905081811015613c6d576040517f08c379a0000000000000000000000000000000000000000000000000000000008152600401613c6490615167565b60405180910390fd5b8181613c7991906154c8565b600d60008673ffffffffffffffffffffffffffffffffffffffff1673ffffffffffffffffffffffffffffffffffffffff1681526020019081526020016000208190555081600d60008573ffffffffffffffffffffffffffffffffffffffff1673ffffffffffffffffffffffffffffffffffffffff1681526020019081526020016000206000828254613d0b91906153e7565b925050819055508273ffffffffffffffffffffffffffffffffffffffff168473ffffffffffffffffffffffffffffffffffffffff167fddf252ad1be2c89b69c2b068fc378daa952ba7f163c4a11628f55a4df523b3ef84604051613d6f9190615227565b60405180910390a350505050565b60007f000000000000000000000000000000000000000000000000000000000000000073ffffffffffffffffffffffffffffffffffffffff166398fabd3a6040518163ffffffff1660e01b815260040160206040518083038186803b158015613de557600080fd5b505afa158015613df9573d6000803e3d6000fd5b505050506040513d601f19601f82011682018060405250810190613e1d9190614e2d565b905090565b6000807f000000000000000000000000000000000000000000000000000000000000000073ffffffffffffffffffffffffffffffffffffffff166370a08231306040518263ffffffff1660e01b8152600401613e7e919061507d565b60206040518083038186803b158015613e9657600080fd5b505afa158015613eaa573d6000803e3d6000fd5b505050506040513d601f19601f82011682018060405250810190613ece9190614e7f565b9050601054811115613eef5760105481613ee891906154c8565b9150613ef4565b600091505b5090565b600080600060105490506000600f5490506000613f13613d7d565b73ffffffffffffffffffffffffffffffffffffffff16637b0e5c456040518163ffffffff1660e01b815260040160206040518083038186803b158015613f5857600080fd5b505afa158015613f6c573d6000803e3d6000fd5b505050506040513d601f19601f82011682018060405250810190613f909190614d14565b90508073ffffffffffffffffffffffffffffffffffffffff1663701baaf38785856040518463ffffffff1660e01b8152600401613fcf939291906152cb565b60206040518083038186803b158015613fe757600080fd5b505afa158015613ffb573d6000803e3d6000fd5b505050506040513d601f19601f8201168201806040525081019061401f9190614e7f565b94508073ffffffffffffffffffffffffffffffffffffffff1663896a708c8785856040518463ffffffff1660e01b815260040161405e939291906152cb565b60206040518083038186803b15801561407657600080fd5b505afa15801561408a573d6000803e3d6000fd5b505050506040513d601f19601f820116820180604052508101906140ae9190614e7f565b93506140d085836140bf91906154c8565b87856140cb91906153e7565b6149da565b6140d984614984565b505050915091565b6000807f000000000000000000000000000000000000000000000000000000000000000073ffffffffffffffffffffffffffffffffffffffff166370a08231306040518263ffffffff1660e01b815260040161413d919061507d565b60206040518083038186803b15801561415557600080fd5b505afa158015614169573d6000803e3d6000fd5b505050506040513d601f19601f8201168201806040525081019061418d9190614e7f565b9050600f548111156141ae57600f54816141a791906154c8565b91506141b3565b600091505b5090565b6000806000600f5490506000601054905060006141d2613d7d565b73ffffffffffffffffffffffffffffffffffffffff16637b0e5c456040518163ffffffff1660e01b815260040160206040518083038186803b15801561421757600080fd5b505afa15801561422b573d6000803e3d6000fd5b505050506040513d601f19601f8201168201806040525081019061424f9190614d14565b90508073ffffffffffffffffffffffffffffffffffffffff1663701baaf38785856040518463ffffffff1660e01b815260040161428e939291906152cb565b60206040518083038186803b1580156142a657600080fd5b505afa1580156142ba573d6000803e3d6000fd5b505050506040513d601f19601f820116820180604052508101906142de9190614e7f565b945060008173ffffffffffffffffffffffffffffffffffffffff1663896a708c8886866040518463ffffffff1660e01b815260040161431f939291906152cb565b60206040518083038186803b15801561433757600080fd5b505afa15801561434b573d6000803e3d6000fd5b505050506040513d601f19601f8201168201806040525081019061436f9190614e7f565b90508173ffffffffffffffffffffffffffffffffffffffff1663c19387df7f0000000000000000000000000000000000000000000000000000000000000000836040518363ffffffff1660e01b81526004016143cc9291906150c1565b60206040518083038186803b1580156143e457600080fd5b505afa1580156143f8573d6000803e3d6000fd5b505050506040513d601f19601f8201168201806040525081019061441c9190614e7f565b945061443e878561442d91906153e7565b878561443991906154c8565b6149da565b61444785614984565b50505050915091565b6000808473ffffffffffffffffffffffffffffffffffffffff166040518060400160405280601981526020017f7472616e7366657228616464726573732c75696e7432353629000000000000008152508051906020012085856040516024016144ba9291906150c1565b604051602081830303815290604052907bffffffffffffffffffffffffffffffffffffffffffffffffffffffff19166020820180517bffffffffffffffffffffffffffffffffffffffffffffffffffffffff83818316178352505050506040516145249190615066565b6000604051808303816000865af19150503d8060008114614561576040519150601f19603f3d011682016040523d82523d6000602084013e614566565b606091505b509150915081801561459457506000815114806145935750808060200190518101906145929190614e04565b5b5b6145d3576040517f08c379a00000000000000000000000000000000000000000000000000000000081526004016145ca906151c7565b60405180910390fd5b5050505050565b600073ffffffffffffffffffffffffffffffffffffffff168273ffffffffffffffffffffffffffffffffffffffff16141561464a576040517f08c379a000000000000000000000000000000000000000000000000000000000815260040161464190615127565b60405180910390fd5b6000600d60008473ffffffffffffffffffffffffffffffffffffffff1673ffffffffffffffffffffffffffffffffffffffff168152602001908152602001600020549050818110156146d1576040517f08c379a00000000000000000000000000000000000000000000000000000000081526004016146c890615167565b60405180910390fd5b81816146dd91906154c8565b600d60008573ffffffffffffffffffffffffffffffffffffffff1673ffffffffffffffffffffffffffffffffffffffff1681526020019081526020016000208190555081600c600082825461473291906154c8565b92505081905550600073ffffffffffffffffffffffffffffffffffffffff168373ffffffffffffffffffffffffffffffffffffffff167fddf252ad1be2c89b69c2b068fc378daa952ba7f163c4a11628f55a4df523b3ef846040516147979190615227565b60405180910390a3505050565b600073ffffffffffffffffffffffffffffffffffffffff168273ffffffffffffffffffffffffffffffffffffffff161415614814576040517f08c379a000000000000000000000000000000000000000000000000000000000815260040161480b90615127565b60405180910390fd5b80600c600082825461482691906153e7565b9250508190555080600d60008473ffffffffffffffffffffffffffffffffffffffff1673ffffffffffffffffffffffffffffffffffffffff168152602001908152602001600020600082825461487c91906153e7565b925050819055508173ffffffffffffffffffffffffffffffffffffffff16600073ffffffffffffffffffffffffffffffffffffffff167fddf252ad1be2c89b69c2b068fc378daa952ba7f163c4a11628f55a4df523b3ef836040516148e19190615227565b60405180910390a35050565b60015482600f546148fe91906153e7565b1061490857600080fd5b81600f600082825461491a91906153e7565b92505081905550806010600082825461493391906153e7565b925050819055506149426149f4565b5050565b81600f600082825461495891906154c8565b92505081905550806010600082825461497191906154c8565b925050819055506149806149f4565b5050565b62278d0060115461499591906153e7565b42116149b457806012546149a991906153e7565b6012819055506149d7565b426011819055506012546013819055506149cf601354614b54565b806012819055505b50565b81600f81905550806010819055506149f06149f4565b5050565b6000601054600f54670de0b6b3a7640000614a0f919061546e565b614a19919061543d565b9050600080600254831115614a585760025483614a3691906154c8565b91508261271083614a47919061546e565b614a51919061543d565b9050614a86565b82600254614a6691906154c8565b915060025461271083614a79919061546e565b614a83919061543d565b90505b6004548110614aaf576001600560006101000a81548160ff021916908315150217905550614ad6565b600354421115614ad557610e1042614ac791906153e7565b600381905550826002819055505b5b600560009054906101000a900460ff1615614b4f576004548111614b10576000600560006101000a81548160ff0219169083151502179055505b600354421115614b4e57610e1042614b2891906153e7565b6003819055506002805484614b3d91906153e7565b614b47919061543d565b6002819055505b5b505050565b60026014805490501415614c40576014600181548110614b9d577f4e487b7100000000000000000000000000000000000000000000000000000000600052603260045260246000fd5b90600052602060002001546014600081548110614be3577f4e487b7100000000000000000000000000000000000000000000000000000000600052603260045260246000fd5b9060005260206000200181905550806014600181548110614c2d577f4e487b7100000000000000000000000000000000000000000000000000000000600052603260045260246000fd5b9060005260206000200181905550614c6a565b60148190806001815401808255809150506001900390600052602060002001600090919091909150555b50565b600081359050614c7c816157ae565b92915050565b600081519050614c91816157ae565b92915050565b600081519050614ca6816157c5565b92915050565b600081519050614cbb816157dc565b92915050565b600081359050614cd0816157f3565b92915050565b600081519050614ce5816157f3565b92915050565b600060208284031215614cfd57600080fd5b6000614d0b84828501614c6d565b91505092915050565b600060208284031215614d2657600080fd5b6000614d3484828501614c82565b91505092915050565b60008060408385031215614d5057600080fd5b6000614d5e85828601614c6d565b9250506020614d6f85828601614c6d565b9150509250929050565b600080600060608486031215614d8e57600080fd5b6000614d9c86828701614c6d565b9350506020614dad86828701614c6d565b9250506040614dbe86828701614cc1565b9150509250925092565b60008060408385031215614ddb57600080fd5b6000614de985828601614c6d565b9250506020614dfa85828601614cc1565b9150509250929050565b600060208284031215614e1657600080fd5b6000614e2484828501614c97565b91505092915050565b600060208284031215614e3f57600080fd5b6000614e4d84828501614cac565b91505092915050565b600060208284031215614e6857600080fd5b6000614e7684828501614cc1565b91505092915050565b600060208284031215614e9157600080fd5b6000614e9f84828501614cd6565b91505092915050565b614eb1816154fc565b82525050565b614ec08161550e565b82525050565b6000614ed1826153b5565b614edb81856153cb565b9350614eeb818560208601615563565b80840191505092915050565b6000614f02826153c0565b614f0c81856153d6565b9350614f1c818560208601615563565b614f2581615655565b840191505092915050565b6000614f3d6008836153d6565b9150614f4882615666565b602082019050919050565b6000614f606009836153d6565b9150614f6b8261568f565b602082019050919050565b6000614f836008836153d6565b9150614f8e826156b8565b602082019050919050565b6000614fa66005836153d6565b9150614fb1826156e1565b602082019050919050565b6000614fc96008836153d6565b9150614fd48261570a565b602082019050919050565b6000614fec600f836153d6565b9150614ff782615733565b602082019050919050565b600061500f6007836153d6565b915061501a8261575c565b602082019050919050565b60006150326006836153d6565b915061503d82615785565b602082019050919050565b6150518161554c565b82525050565b61506081615556565b82525050565b60006150728284614ec6565b915081905092915050565b60006020820190506150926000830184614ea8565b92915050565b60006040820190506150ad6000830185614ea8565b6150ba6020830184614ea8565b9392505050565b60006040820190506150d66000830185614ea8565b6150e36020830184615048565b9392505050565b60006020820190506150ff6000830184614eb7565b92915050565b6000602082019050818103600083015261511f8184614ef7565b905092915050565b6000602082019050818103600083015261514081614f30565b9050919050565b6000602082019050818103600083015261516081614f53565b9050919050565b6000602082019050818103600083015261518081614f76565b9050919050565b600060208201905081810360008301526151a081614f99565b9050919050565b600060208201905081810360008301526151c081614fbc565b9050919050565b600060208201905081810360008301526151e081614fdf565b9050919050565b6000602082019050818103600083015261520081615002565b9050919050565b6000602082019050818103600083015261522081615025565b9050919050565b600060208201905061523c6000830184615048565b92915050565b60006040820190506152576000830185615048565b6152646020830184614ea8565b9392505050565b60006060820190506152806000830186615048565b61528d6020830185614ea8565b61529a6040830184614ea8565b949350505050565b60006040820190506152b76000830185615048565b6152c46020830184615048565b9392505050565b60006060820190506152e06000830186615048565b6152ed6020830185615048565b6152fa6040830184615048565b949350505050565b60006080820190506153176000830187615048565b6153246020830186615048565b6153316040830185615048565b61533e6060830184615048565b95945050505050565b600060a08201905061535c6000830188615048565b6153696020830187615048565b6153766040830186615048565b6153836060830185615048565b6153906080830184615048565b9695505050505050565b60006020820190506153af6000830184615057565b92915050565b600081519050919050565b600081519050919050565b600081905092915050565b600082825260208201905092915050565b60006153f28261554c565b91506153fd8361554c565b9250827fffffffffffffffffffffffffffffffffffffffffffffffffffffffffffffffff03821115615432576154316155c8565b5b828201905092915050565b60006154488261554c565b91506154538361554c565b925082615463576154626155f7565b5b828204905092915050565b60006154798261554c565b91506154848361554c565b9250817fffffffffffffffffffffffffffffffffffffffffffffffffffffffffffffffff04831182151516156154bd576154bc6155c8565b5b828202905092915050565b60006154d38261554c565b91506154de8361554c565b9250828210156154f1576154f06155c8565b5b828203905092915050565b60006155078261552c565b9050919050565b60008115159050919050565b6000615525826154fc565b9050919050565b600073ffffffffffffffffffffffffffffffffffffffff82169050919050565b6000819050919050565b600060ff82169050919050565b60005b83811015615581578082015181840152602081019050615566565b83811115615590576000848401525b50505050565b600060028204905060018216806155ae57607f821691505b602082108114156155c2576155c1615626565b5b50919050565b7f4e487b7100000000000000000000000000000000000000000000000000000000600052601160045260246000fd5b7f4e487b7100000000000000000000000000000000000000000000000000000000600052601260045260246000fd5b7f4e487b7100000000000000000000000000000000000000000000000000000000600052602260045260246000fd5b6000601f19601f8301169050919050565b7f216163636f756e74000000000000000000000000000000000000000000000000600082015250565b7f21617070726f76616c0000000000000000000000000000000000000000000000600082015250565b7f2162616c616e6365000000000000000000000000000000000000000000000000600082015250565b7f214255524e000000000000000000000000000000000000000000000000000000600082015250565b7f217370656e646572000000000000000000000000000000000000000000000000600082015250565b7f5452414e534645525f4641494c45440000000000000000000000000000000000600082015250565b7f2173656e64657200000000000000000000000000000000000000000000000000600082015250565b7f216f776e65720000000000000000000000000000000000000000000000000000600082015250565b6157b7816154fc565b81146157c257600080fd5b50565b6157ce8161550e565b81146157d957600080fd5b50565b6157e58161551a565b81146157f057600080fd5b50565b6157fc8161554c565b811461580757600080fd5b5056fea2646970667358221220b757138f76fc2e62af362bdd7b569fd74425843b263e13957e90a5c60d300f8764736f6c63430008030033",
  "linkReferences": {},
  "deployedLinkReferences": {}
}