{
  "_format": "hh-sol-artifact-1",
  "contractName": "Pool",
  "sourceName": "contracts/Pool.sol",
  "abi": [
    {
      "inputs": [
        {
          "internalType": "address",
          "name": "_base",
          "type": "address"
        },
        {
          "internalType": "address",
          "name": "_token",
          "type": "address"
        }
      ],
      "stateMutability": "nonpayable",
      "type": "constructor"
    },
    {
      "anonymous": false,
      "inputs": [
        {
          "indexed": true,
          "internalType": "address",
          "name": "member",
          "type": "address"
        },
        {
          "indexed": false,
          "internalType": "uint256",
          "name": "inputBase",
          "type": "uint256"
        },
        {
          "indexed": false,
          "internalType": "uint256",
          "name": "inputToken",
          "type": "uint256"
        },
        {
          "indexed": false,
          "internalType": "uint256",
          "name": "unitsIssued",
          "type": "uint256"
        }
      ],
      "name": "AddLiquidity",
      "type": "event"
    },
    {
      "anonymous": false,
      "inputs": [
        {
          "indexed": true,
          "internalType": "address",
          "name": "owner",
          "type": "address"
        },
        {
          "indexed": true,
          "internalType": "address",
          "name": "spender",
          "type": "address"
        },
        {
          "indexed": false,
          "internalType": "uint256",
          "name": "value",
          "type": "uint256"
        }
      ],
      "name": "Approval",
      "type": "event"
    },
    {
      "anonymous": false,
      "inputs": [
        {
          "indexed": true,
          "internalType": "address",
          "name": "member",
          "type": "address"
        },
        {
          "indexed": false,
          "internalType": "uint256",
          "name": "baseAmount",
          "type": "uint256"
        },
        {
          "indexed": false,
          "internalType": "uint256",
          "name": "liqUnits",
          "type": "uint256"
        },
        {
          "indexed": false,
          "internalType": "uint256",
          "name": "synthAmount",
          "type": "uint256"
        },
        {
          "indexed": false,
          "internalType": "uint256",
          "name": "fee",
          "type": "uint256"
        }
      ],
      "name": "BurnSynth",
      "type": "event"
    },
    {
      "anonymous": false,
      "inputs": [
        {
          "indexed": true,
          "internalType": "address",
          "name": "member",
          "type": "address"
        },
        {
          "indexed": false,
          "internalType": "uint256",
          "name": "baseAmount",
          "type": "uint256"
        },
        {
          "indexed": false,
          "internalType": "uint256",
          "name": "liqUnits",
          "type": "uint256"
        },
        {
          "indexed": false,
          "internalType": "uint256",
          "name": "synthAmount",
          "type": "uint256"
        },
        {
          "indexed": false,
          "internalType": "uint256",
          "name": "fee",
          "type": "uint256"
        }
      ],
      "name": "MintSynth",
      "type": "event"
    },
    {
      "anonymous": false,
      "inputs": [
        {
          "indexed": true,
          "internalType": "address",
          "name": "member",
          "type": "address"
        },
        {
          "indexed": false,
          "internalType": "uint256",
          "name": "outputBase",
          "type": "uint256"
        },
        {
          "indexed": false,
          "internalType": "uint256",
          "name": "outputToken",
          "type": "uint256"
        },
        {
          "indexed": false,
          "internalType": "uint256",
          "name": "unitsClaimed",
          "type": "uint256"
        }
      ],
      "name": "RemoveLiquidity",
      "type": "event"
    },
    {
      "anonymous": false,
      "inputs": [
        {
          "indexed": true,
          "internalType": "address",
          "name": "tokenFrom",
          "type": "address"
        },
        {
          "indexed": true,
          "internalType": "address",
          "name": "tokenTo",
          "type": "address"
        },
        {
          "indexed": true,
          "internalType": "address",
          "name": "recipient",
          "type": "address"
        },
        {
          "indexed": false,
          "internalType": "uint256",
          "name": "inputAmount",
          "type": "uint256"
        },
        {
          "indexed": false,
          "internalType": "uint256",
          "name": "outputAmount",
          "type": "uint256"
        },
        {
          "indexed": false,
          "internalType": "uint256",
          "name": "fee",
          "type": "uint256"
        }
      ],
      "name": "Swapped",
      "type": "event"
    },
    {
      "anonymous": false,
      "inputs": [
        {
          "indexed": true,
          "internalType": "address",
          "name": "from",
          "type": "address"
        },
        {
          "indexed": true,
          "internalType": "address",
          "name": "to",
          "type": "address"
        },
        {
          "indexed": false,
          "internalType": "uint256",
          "name": "value",
          "type": "uint256"
        }
      ],
      "name": "Transfer",
      "type": "event"
    },
    {
      "inputs": [],
      "name": "BASE",
      "outputs": [
        {
          "internalType": "address",
          "name": "",
          "type": "address"
        }
      ],
      "stateMutability": "view",
      "type": "function"
    },
    {
      "inputs": [
        {
          "internalType": "uint256",
          "name": "_newRTC",
          "type": "uint256"
        }
      ],
      "name": "RTC",
      "outputs": [],
      "stateMutability": "nonpayable",
      "type": "function"
    },
    {
      "inputs": [],
      "name": "SYNTH",
      "outputs": [
        {
          "internalType": "address",
          "name": "",
          "type": "address"
        }
      ],
      "stateMutability": "view",
      "type": "function"
    },
    {
      "inputs": [],
      "name": "TOKEN",
      "outputs": [
        {
          "internalType": "address",
          "name": "",
          "type": "address"
        }
      ],
      "stateMutability": "view",
      "type": "function"
    },
    {
      "inputs": [
        {
          "internalType": "address",
          "name": "member",
          "type": "address"
        }
      ],
      "name": "addForMember",
      "outputs": [
        {
          "internalType": "uint256",
          "name": "liquidityUnits",
          "type": "uint256"
        }
      ],
      "stateMutability": "nonpayable",
      "type": "function"
    },
    {
      "inputs": [
        {
          "internalType": "address",
          "name": "owner",
          "type": "address"
        },
        {
          "internalType": "address",
          "name": "spender",
          "type": "address"
        }
      ],
      "name": "allowance",
      "outputs": [
        {
          "internalType": "uint256",
          "name": "",
          "type": "uint256"
        }
      ],
      "stateMutability": "view",
      "type": "function"
    },
    {
      "inputs": [
        {
          "internalType": "address",
          "name": "spender",
          "type": "address"
        },
        {
          "internalType": "uint256",
          "name": "amount",
          "type": "uint256"
        }
      ],
      "name": "approve",
      "outputs": [
        {
          "internalType": "bool",
          "name": "",
          "type": "bool"
        }
      ],
      "stateMutability": "nonpayable",
      "type": "function"
    },
    {
      "inputs": [
        {
          "internalType": "address",
          "name": "account",
          "type": "address"
        }
      ],
      "name": "balanceOf",
      "outputs": [
        {
          "internalType": "uint256",
          "name": "",
          "type": "uint256"
        }
      ],
      "stateMutability": "view",
      "type": "function"
    },
    {
      "inputs": [],
      "name": "baseAmount",
      "outputs": [
        {
          "internalType": "uint256",
          "name": "",
          "type": "uint256"
        }
      ],
      "stateMutability": "view",
      "type": "function"
    },
    {
      "inputs": [],
      "name": "baseCap",
      "outputs": [
        {
          "internalType": "uint256",
          "name": "",
          "type": "uint256"
        }
      ],
      "stateMutability": "view",
      "type": "function"
    },
    {
      "inputs": [
        {
          "internalType": "uint256",
          "name": "amount",
          "type": "uint256"
        }
      ],
      "name": "burn",
      "outputs": [],
      "stateMutability": "nonpayable",
      "type": "function"
    },
    {
      "inputs": [
        {
          "internalType": "address",
          "name": "member",
          "type": "address"
        }
      ],
      "name": "burnSynth",
      "outputs": [
        {
          "internalType": "uint256",
          "name": "outputAmount",
          "type": "uint256"
        },
        {
          "internalType": "uint256",
          "name": "fee",
          "type": "uint256"
        }
      ],
      "stateMutability": "nonpayable",
      "type": "function"
    },
    {
      "inputs": [],
      "name": "decimals",
      "outputs": [
        {
          "internalType": "uint8",
          "name": "",
          "type": "uint8"
        }
      ],
      "stateMutability": "view",
      "type": "function"
    },
    {
      "inputs": [
        {
          "internalType": "address",
          "name": "spender",
          "type": "address"
        },
        {
          "internalType": "uint256",
          "name": "subtractedValue",
          "type": "uint256"
        }
      ],
      "name": "decreaseAllowance",
      "outputs": [
        {
          "internalType": "bool",
          "name": "",
          "type": "bool"
        }
      ],
      "stateMutability": "nonpayable",
      "type": "function"
    },
    {
      "inputs": [
        {
          "internalType": "uint256",
          "name": "newPeriod",
          "type": "uint256"
        }
      ],
      "name": "flipFreeze",
      "outputs": [],
      "stateMutability": "nonpayable",
      "type": "function"
    },
    {
      "inputs": [],
      "name": "freeze",
      "outputs": [
        {
          "internalType": "bool",
          "name": "",
          "type": "bool"
        }
      ],
      "stateMutability": "view",
      "type": "function"
    },
    {
      "inputs": [],
      "name": "genesis",
      "outputs": [
        {
          "internalType": "uint256",
          "name": "",
          "type": "uint256"
        }
      ],
      "stateMutability": "view",
      "type": "function"
    },
    {
      "inputs": [
        {
          "internalType": "address",
          "name": "spender",
          "type": "address"
        },
        {
          "internalType": "uint256",
          "name": "addedValue",
          "type": "uint256"
        }
      ],
      "name": "increaseAllowance",
      "outputs": [
        {
          "internalType": "bool",
          "name": "",
          "type": "bool"
        }
      ],
      "stateMutability": "nonpayable",
      "type": "function"
    },
    {
      "inputs": [],
      "name": "lastStirred",
      "outputs": [
        {
          "internalType": "uint256",
          "name": "",
          "type": "uint256"
        }
      ],
      "stateMutability": "view",
      "type": "function"
    },
    {
      "inputs": [],
      "name": "map30DPoolRevenue",
      "outputs": [
        {
          "internalType": "uint256",
          "name": "",
          "type": "uint256"
        }
      ],
      "stateMutability": "view",
      "type": "function"
    },
    {
      "inputs": [],
      "name": "mapPast30DPoolRevenue",
      "outputs": [
        {
          "internalType": "uint256",
          "name": "",
          "type": "uint256"
        }
      ],
      "stateMutability": "view",
      "type": "function"
    },
    {
      "inputs": [
        {
          "internalType": "address",
          "name": "member",
          "type": "address"
        }
      ],
      "name": "mintSynth",
      "outputs": [
        {
          "internalType": "uint256",
          "name": "outputAmount",
          "type": "uint256"
        },
        {
          "internalType": "uint256",
          "name": "fee",
          "type": "uint256"
        }
      ],
      "stateMutability": "nonpayable",
      "type": "function"
    },
    {
      "inputs": [],
      "name": "name",
      "outputs": [
        {
          "internalType": "string",
          "name": "",
          "type": "string"
        }
      ],
      "stateMutability": "view",
      "type": "function"
    },
    {
      "inputs": [
        {
          "internalType": "address",
          "name": "member",
          "type": "address"
        }
      ],
      "name": "removeForMember",
      "outputs": [
        {
          "internalType": "uint256",
          "name": "outputBase",
          "type": "uint256"
        },
        {
          "internalType": "uint256",
          "name": "outputToken",
          "type": "uint256"
        }
      ],
      "stateMutability": "nonpayable",
      "type": "function"
    },
    {
      "inputs": [
        {
          "internalType": "uint256",
          "name": "_newFreezePoint",
          "type": "uint256"
        }
      ],
      "name": "setFreezePoint",
      "outputs": [],
      "stateMutability": "nonpayable",
      "type": "function"
    },
    {
      "inputs": [
        {
          "internalType": "uint256",
          "name": "_synthCap",
          "type": "uint256"
        }
      ],
      "name": "setSynthCap",
      "outputs": [],
      "stateMutability": "nonpayable",
      "type": "function"
    },
    {
      "inputs": [],
      "name": "stirRate",
      "outputs": [
        {
          "internalType": "uint256",
          "name": "",
          "type": "uint256"
        }
      ],
      "stateMutability": "view",
      "type": "function"
    },
    {
      "inputs": [],
      "name": "stirStamp",
      "outputs": [
        {
          "internalType": "uint256",
          "name": "",
          "type": "uint256"
        }
      ],
      "stateMutability": "view",
      "type": "function"
    },
    {
      "inputs": [
        {
          "internalType": "address",
          "name": "token",
          "type": "address"
        },
        {
          "internalType": "address",
          "name": "member",
          "type": "address"
        }
      ],
      "name": "swapTo",
      "outputs": [
        {
          "internalType": "uint256",
          "name": "outputAmount",
          "type": "uint256"
        },
        {
          "internalType": "uint256",
          "name": "fee",
          "type": "uint256"
        }
      ],
      "stateMutability": "nonpayable",
      "type": "function"
    },
    {
      "inputs": [],
      "name": "symbol",
      "outputs": [
        {
          "internalType": "string",
          "name": "",
          "type": "string"
        }
      ],
      "stateMutability": "view",
      "type": "function"
    },
    {
      "inputs": [],
      "name": "sync",
      "outputs": [],
      "stateMutability": "nonpayable",
      "type": "function"
    },
    {
      "inputs": [],
      "name": "synthCap",
      "outputs": [
        {
          "internalType": "uint256",
          "name": "",
          "type": "uint256"
        }
      ],
      "stateMutability": "view",
      "type": "function"
    },
    {
      "inputs": [],
      "name": "tokenAmount",
      "outputs": [
        {
          "internalType": "uint256",
          "name": "",
          "type": "uint256"
        }
      ],
      "stateMutability": "view",
      "type": "function"
    },
    {
      "inputs": [],
      "name": "totalSupply",
      "outputs": [
        {
          "internalType": "uint256",
          "name": "",
          "type": "uint256"
        }
      ],
      "stateMutability": "view",
      "type": "function"
    },
    {
      "inputs": [
        {
          "internalType": "address",
          "name": "recipient",
          "type": "address"
        },
        {
          "internalType": "uint256",
          "name": "amount",
          "type": "uint256"
        }
      ],
      "name": "transfer",
      "outputs": [
        {
          "internalType": "bool",
          "name": "",
          "type": "bool"
        }
      ],
      "stateMutability": "nonpayable",
      "type": "function"
    },
    {
      "inputs": [
        {
          "internalType": "address",
          "name": "sender",
          "type": "address"
        },
        {
          "internalType": "address",
          "name": "recipient",
          "type": "address"
        },
        {
          "internalType": "uint256",
          "name": "amount",
          "type": "uint256"
        }
      ],
      "name": "transferFrom",
      "outputs": [
        {
          "internalType": "bool",
          "name": "",
          "type": "bool"
        }
      ],
      "stateMutability": "nonpayable",
      "type": "function"
    }
  ],
  "bytecode": "0x6101006040523480156200001257600080fd5b50604051620061d9380380620061d983398181016040528101906200003891906200043c565b8173ffffffffffffffffffffffffffffffffffffffff1660808173ffffffffffffffffffffffffffffffffffffffff1660601b815250508073ffffffffffffffffffffffffffffffffffffffff1660a08173ffffffffffffffffffffffffffffffffffffffff1660601b8152505060006040518060400160405280601481526020017f2d5370617274616e50726f746f636f6c506f6f6c000000000000000000000000815250905060006040518060400160405280600481526020017f2d5350500000000000000000000000000000000000000000000000000000000081525090508273ffffffffffffffffffffffffffffffffffffffff166306fdde036040518163ffffffff1660e01b815260040160006040518083038186803b1580156200016157600080fd5b505afa15801562000176573d6000803e3d6000fd5b505050506040513d6000823e3d601f19601f82011682018060405250810190620001a191906200047d565b82604051602001620001b5929190620004f9565b604051602081830303815290604052600a9080519060200190620001db92919062000303565b508273ffffffffffffffffffffffffffffffffffffffff166395d89b416040518163ffffffff1660e01b815260040160006040518083038186803b1580156200022357600080fd5b505afa15801562000238573d6000803e3d6000fd5b505050506040513d6000823e3d601f19601f820116820180604052508101906200026391906200047d565b8160405160200162000277929190620004f9565b604051602081830303815290604052600b90805190602001906200029d92919062000303565b50601260ff1660c08160ff1660f81b815250504260e0818152505042600381905550426011819055506109c4600081905550610bb860048190555069152d02c7e14af68000006001819055506000600881905550600060068190555050505050620006f5565b828054620003119062000600565b90600052602060002090601f01602090048101928262000335576000855562000381565b82601f106200035057805160ff191683800117855562000381565b8280016001018555821562000381579182015b828111156200038057825182559160200191906001019062000363565b5b50905062000390919062000394565b5090565b5b80821115620003af57600081600090555060010162000395565b5090565b6000620003ca620003c4846200054a565b62000521565b905082815260208101848484011115620003e357600080fd5b620003f0848285620005ca565b509392505050565b6000815190506200040981620006db565b92915050565b600082601f8301126200042157600080fd5b815162000433848260208601620003b3565b91505092915050565b600080604083850312156200045057600080fd5b60006200046085828601620003f8565b92505060206200047385828601620003f8565b9150509250929050565b6000602082840312156200049057600080fd5b600082015167ffffffffffffffff811115620004ab57600080fd5b620004b9848285016200040f565b91505092915050565b6000620004cf8262000580565b620004db81856200058b565b9350620004ed818560208601620005ca565b80840191505092915050565b6000620005078285620004c2565b9150620005158284620004c2565b91508190509392505050565b60006200052d62000540565b90506200053b828262000636565b919050565b6000604051905090565b600067ffffffffffffffff8211156200056857620005676200069b565b5b6200057382620006ca565b9050602081019050919050565b600081519050919050565b600081905092915050565b6000620005a382620005aa565b9050919050565b600073ffffffffffffffffffffffffffffffffffffffff82169050919050565b60005b83811015620005ea578082015181840152602081019050620005cd565b83811115620005fa576000848401525b50505050565b600060028204905060018216806200061957607f821691505b6020821081141562000630576200062f6200066c565b5b50919050565b6200064182620006ca565b810181811067ffffffffffffffff821117156200066357620006626200069b565b5b80604052505050565b7f4e487b7100000000000000000000000000000000000000000000000000000000600052602260045260246000fd5b7f4e487b7100000000000000000000000000000000000000000000000000000000600052604160045260246000fd5b6000601f19601f8301169050919050565b620006e68162000596565b8114620006f257600080fd5b50565b60805160601c60a05160601c60c05160f81c60e051615a15620007c460003960008181611d190152611f8a01526000610d9f015260008181610b4801528181610bf8015281816114e2015281816121220152818161227e01528181612b570152818161330701528181613b6901528181614104015261466c015260008181610af301528181610ba401528181610c3b015281816118b401528181612073015281816121c80152818161291601528181612be901528181613aba0152818161405e01526143c30152615a156000f3fe608060405234801561001057600080fd5b506004361061021b5760003560e01c80637ec3eae511610125578063cbbcf802116100ad578063ec342ad01161007c578063ec342ad014610683578063eec7faa1146106a1578063f1bbdef2146106bf578063fb195363146106f0578063fff6cae91461070c5761021b565b8063cbbcf802146105e6578063dbfc5a0414610604578063dd62ed3e14610635578063e1eddde3146106655761021b565b80639d3f87e2116100f45780639d3f87e21461051b578063a457c2d714610537578063a7f0b3de14610567578063a9059cbb14610585578063bc5dedc9146105b55761021b565b80637ec3eae51461049357806382bfefc8146104af57806386d5f618146104cd57806395d89b41146104fd5761021b565b806339509351116101a857806350f9844a1161017757806350f9844a146103eb5780635f83e5d51461040957806362a5af3b1461042757806370a0823114610445578063752d7793146104755761021b565b8063395093511461036557806342966c6814610395578063474e7302146103b15780634864d140146103cd5761021b565b806323b872dd116101ef57806323b872dd146102aa5780632783e4a9146102da57806328ea0adc1461030b578063313ce5671461032957806333ca78e4146103475761021b565b8062aea7451461022057806306fdde031461023e578063095ea7b31461025c57806318160ddd1461028c575b600080fd5b610228610716565b604051610235919061543b565b60405180910390f35b61024661071c565b6040516102539190615339565b60405180910390f35b61027660048036038101906102719190615067565b6107ae565b604051610283919061531e565b60405180910390f35b6102946107c5565b6040516102a1919061543b565b60405180910390f35b6102c460048036038101906102bf9190615018565b6107cb565b6040516102d1919061531e565b60405180910390f35b6102f460048036038101906102ef9190614fdc565b6108be565b6040516103029291906154b6565b60405180910390f35b610313610d97565b604051610320919061543b565b60405180910390f35b610331610d9d565b60405161033e91906155ae565b60405180910390f35b61034f610dc1565b60405161035c919061543b565b60405180910390f35b61037f600480360381019061037a9190615067565b610dc7565b60405161038c919061531e565b60405180910390f35b6103af60048036038101906103aa91906150f5565b610e65565b005b6103cb60048036038101906103c691906150f5565b610fce565b005b6103d5611217565b6040516103e2919061543b565b60405180910390f35b6103f361121d565b604051610400919061543b565b60405180910390f35b610411611223565b60405161041e919061543b565b60405180910390f35b61042f611229565b60405161043c919061531e565b60405180910390f35b61045f600480360381019061045a9190614f8a565b61123c565b60405161046c919061543b565b60405180910390f35b61047d611285565b60405161048a919061543b565b60405180910390f35b6104ad60048036038101906104a891906150f5565b61128b565b005b6104b76114e0565b6040516104c491906152b1565b60405180910390f35b6104e760048036038101906104e29190614f8a565b611504565b6040516104f4919061543b565b60405180910390f35b610505611965565b6040516105129190615339565b60405180910390f35b610535600480360381019061053091906150f5565b6119f7565b005b610551600480360381019061054c9190615067565b611c31565b60405161055e919061531e565b60405180910390f35b61056f611d17565b60405161057c919061543b565b60405180910390f35b61059f600480360381019061059a9190615067565b611d3b565b6040516105ac919061531e565b60405180910390f35b6105cf60048036038101906105ca9190614f8a565b611d52565b6040516105dd9291906154b6565b60405180910390f35b6105ee61238b565b6040516105fb919061543b565b60405180910390f35b61061e60048036038101906106199190614f8a565b612391565b60405161062c9291906154b6565b60405180910390f35b61064f600480360381019061064a9190614fdc565b612a2c565b60405161065c919061543b565b60405180910390f35b61066d612ab3565b60405161067a91906152b1565b60405180910390f35b61068b612be7565b60405161069891906152b1565b60405180910390f35b6106a9612c0b565b6040516106b6919061543b565b60405180910390f35b6106d960048036038101906106d49190614f8a565b612c11565b6040516106e79291906154b6565b60405180910390f35b61070a600480360381019061070591906150f5565b61360b565b005b610714613888565b005b60085481565b6060600a805461072b90615794565b80601f016020809104026020016040519081016040528092919081815260200182805461075790615794565b80156107a45780601f10610779576101008083540402835291602001916107a4565b820191906000526020600020905b81548152906001019060200180831161078757829003601f168201915b5050505050905090565b60006107bb338484613c18565b6001905092915050565b600c5481565b60006107d8848484613de3565b6000600e60008673ffffffffffffffffffffffffffffffffffffffff1673ffffffffffffffffffffffffffffffffffffffff16815260200190815260200160002060003373ffffffffffffffffffffffffffffffffffffffff1673ffffffffffffffffffffffffffffffffffffffff1681526020019081526020016000205490508281101561089c576040517f08c379a00000000000000000000000000000000000000000000000000000000081526004016108939061537b565b60405180910390fd5b6108b2853385846108ad91906156c6565b613c18565b60019150509392505050565b6000806108c961405a565b73ffffffffffffffffffffffffffffffffffffffff166332fe7b266040518163ffffffff1660e01b815260040160206040518083038186803b15801561090e57600080fd5b505afa158015610922573d6000803e3d6000fd5b505050506040513d601f19601f820116820180604052508101906109469190614fb3565b73ffffffffffffffffffffffffffffffffffffffff163373ffffffffffffffffffffffffffffffffffffffff161480610a2e575061098261405a565b73ffffffffffffffffffffffffffffffffffffffff16632ab24e496040518163ffffffff1660e01b815260040160206040518083038186803b1580156109c757600080fd5b505afa1580156109db573d6000803e3d6000fd5b505050506040513d601f19601f820116820180604052508101906109ff9190614fb3565b73ffffffffffffffffffffffffffffffffffffffff163373ffffffffffffffffffffffffffffffffffffffff16145b80610ae85750610a3c61405a565b73ffffffffffffffffffffffffffffffffffffffff1663b99b0a0c6040518163ffffffff1660e01b815260040160206040518083038186803b158015610a8157600080fd5b505afa158015610a95573d6000803e3d6000fd5b505050506040513d601f19601f82011682018060405250810190610ab99190614fb3565b73ffffffffffffffffffffffffffffffffffffffff163373ffffffffffffffffffffffffffffffffffffffff16145b610af157600080fd5b7f000000000000000000000000000000000000000000000000000000000000000073ffffffffffffffffffffffffffffffffffffffff168473ffffffffffffffffffffffffffffffffffffffff161480610b9657507f000000000000000000000000000000000000000000000000000000000000000073ffffffffffffffffffffffffffffffffffffffff168473ffffffffffffffffffffffffffffffffffffffff16145b610b9f57600080fd5b6000807f000000000000000000000000000000000000000000000000000000000000000073ffffffffffffffffffffffffffffffffffffffff168673ffffffffffffffffffffffffffffffffffffffff161415610c39577f00000000000000000000000000000000000000000000000000000000000000009150610c216140ff565b9050610c2c816141d5565b8094508195505050610c78565b7f00000000000000000000000000000000000000000000000000000000000000009150610c646143be565b9050610c6f81614494565b80945081955050505b8473ffffffffffffffffffffffffffffffffffffffff168673ffffffffffffffffffffffffffffffffffffffff168373ffffffffffffffffffffffffffffffffffffffff167fc9163c3bdf7263acf1bb3d24072cc7da025f7181c31e2edc7e1673edf5e0ca32848888604051610cf0939291906154df565b60405180910390a48573ffffffffffffffffffffffffffffffffffffffff1663a9059cbb86866040518363ffffffff1660e01b8152600401610d339291906152f5565b602060405180830381600087803b158015610d4d57600080fd5b505af1158015610d61573d6000803e3d6000fd5b505050506040513d601f19601f82011682018060405250810190610d8591906150a3565b610d8e57600080fd5b50509250929050565b60095481565b7f000000000000000000000000000000000000000000000000000000000000000081565b60005481565b6000610e5b338484600e60003373ffffffffffffffffffffffffffffffffffffffff1673ffffffffffffffffffffffffffffffffffffffff16815260200190815260200160002060008873ffffffffffffffffffffffffffffffffffffffff1673ffffffffffffffffffffffffffffffffffffffff16815260200190815260200160002054610e5691906155e5565b613c18565b6001905092915050565b610e6d612ab3565b73ffffffffffffffffffffffffffffffffffffffff163373ffffffffffffffffffffffffffffffffffffffff1614610ea457600080fd5b610eac61405a565b73ffffffffffffffffffffffffffffffffffffffff1663b93ec54b6040518163ffffffff1660e01b815260040160206040518083038186803b158015610ef157600080fd5b505afa158015610f05573d6000803e3d6000fd5b505050506040513d601f19601f82011682018060405250810190610f299190614fb3565b73ffffffffffffffffffffffffffffffffffffffff16635e0237ea610f4c612ab3565b6040518263ffffffff1660e01b8152600401610f6891906152b1565b60206040518083038186803b158015610f8057600080fd5b505afa158015610f94573d6000803e3d6000fd5b505050506040513d601f19601f82011682018060405250810190610fb891906150a3565b610fc157600080fd5b610fcb338261472d565b50565b610fd661405a565b73ffffffffffffffffffffffffffffffffffffffff166332fe7b266040518163ffffffff1660e01b815260040160206040518083038186803b15801561101b57600080fd5b505afa15801561102f573d6000803e3d6000fd5b505050506040513d601f19601f820116820180604052508101906110539190614fb3565b73ffffffffffffffffffffffffffffffffffffffff163373ffffffffffffffffffffffffffffffffffffffff16148061113b575061108f61405a565b73ffffffffffffffffffffffffffffffffffffffff16632ab24e496040518163ffffffff1660e01b815260040160206040518083038186803b1580156110d457600080fd5b505afa1580156110e8573d6000803e3d6000fd5b505050506040513d601f19601f8201168201806040525081019061110c9190614fb3565b73ffffffffffffffffffffffffffffffffffffffff163373ffffffffffffffffffffffffffffffffffffffff16145b806111f5575061114961405a565b73ffffffffffffffffffffffffffffffffffffffff1663b99b0a0c6040518163ffffffff1660e01b815260040160206040518083038186803b15801561118e57600080fd5b505afa1580156111a2573d6000803e3d6000fd5b505050506040513d601f19601f820116820180604052508101906111c69190614fb3565b73ffffffffffffffffffffffffffffffffffffffff163373ffffffffffffffffffffffffffffffffffffffff16145b6111fe57600080fd5b610bb881111561120d57600080fd5b8060008190555050565b600f5481565b60075481565b60125481565b600560009054906101000a900460ff1681565b6000600d60008373ffffffffffffffffffffffffffffffffffffffff1673ffffffffffffffffffffffffffffffffffffffff168152602001908152602001600020549050919050565b60135481565b61129361405a565b73ffffffffffffffffffffffffffffffffffffffff166332fe7b266040518163ffffffff1660e01b815260040160206040518083038186803b1580156112d857600080fd5b505afa1580156112ec573d6000803e3d6000fd5b505050506040513d601f19601f820116820180604052508101906113109190614fb3565b73ffffffffffffffffffffffffffffffffffffffff163373ffffffffffffffffffffffffffffffffffffffff1614806113f8575061134c61405a565b73ffffffffffffffffffffffffffffffffffffffff16632ab24e496040518163ffffffff1660e01b815260040160206040518083038186803b15801561139157600080fd5b505afa1580156113a5573d6000803e3d6000fd5b505050506040513d601f19601f820116820180604052508101906113c99190614fb3565b73ffffffffffffffffffffffffffffffffffffffff163373ffffffffffffffffffffffffffffffffffffffff16145b806114b2575061140661405a565b73ffffffffffffffffffffffffffffffffffffffff1663b99b0a0c6040518163ffffffff1660e01b815260040160206040518083038186803b15801561144b57600080fd5b505afa15801561145f573d6000803e3d6000fd5b505050506040513d601f19601f820116820180604052508101906114839190614fb3565b73ffffffffffffffffffffffffffffffffffffffff163373ffffffffffffffffffffffffffffffffffffffff16145b6114bb57600080fd5b60026001546114ca919061566c565b8111156114d657600080fd5b8060018190555050565b7f000000000000000000000000000000000000000000000000000000000000000081565b600061150e61405a565b73ffffffffffffffffffffffffffffffffffffffff166332fe7b266040518163ffffffff1660e01b815260040160206040518083038186803b15801561155357600080fd5b505afa158015611567573d6000803e3d6000fd5b505050506040513d601f19601f8201168201806040525081019061158b9190614fb3565b73ffffffffffffffffffffffffffffffffffffffff163373ffffffffffffffffffffffffffffffffffffffff16148061167357506115c761405a565b73ffffffffffffffffffffffffffffffffffffffff16632ab24e496040518163ffffffff1660e01b815260040160206040518083038186803b15801561160c57600080fd5b505afa158015611620573d6000803e3d6000fd5b505050506040513d601f19601f820116820180604052508101906116449190614fb3565b73ffffffffffffffffffffffffffffffffffffffff163373ffffffffffffffffffffffffffffffffffffffff16145b8061172d575061168161405a565b73ffffffffffffffffffffffffffffffffffffffff1663b99b0a0c6040518163ffffffff1660e01b815260040160206040518083038186803b1580156116c657600080fd5b505afa1580156116da573d6000803e3d6000fd5b505050506040513d601f19601f820116820180604052508101906116fe9190614fb3565b73ffffffffffffffffffffffffffffffffffffffff163373ffffffffffffffffffffffffffffffffffffffff16145b61173657600080fd5b60006117406143be565b9050600061174c6140ff565b905061175661405a565b73ffffffffffffffffffffffffffffffffffffffff16637b0e5c456040518163ffffffff1660e01b815260040160206040518083038186803b15801561179b57600080fd5b505afa1580156117af573d6000803e3d6000fd5b505050506040513d601f19601f820116820180604052508101906117d39190614fb3565b73ffffffffffffffffffffffffffffffffffffffff1663c5c11ee983600f5484601054600c546040518663ffffffff1660e01b815260040161181995949392919061555b565b60206040518083038186803b15801561183157600080fd5b505afa158015611845573d6000803e3d6000fd5b505050506040513d601f19601f82011682018060405250810190611869919061511e565b92506000600f54148061187e57506000601054145b156118f8576000612710846064611895919061566c565b61189f919061563b565b905080846118ad91906156c6565b93506118d97f0000000000000000000000000000000000000000000000000000000000000000826148f7565b8183846118e6919061566c565b6118f0919061563b565b600281905550505b6119028282614a40565b61190c84846148f7565b8373ffffffffffffffffffffffffffffffffffffffff167fbeb3885786d637a474cbc287c0a44587231633a077f0bd30354d5a4b18996fce838386604051611956939291906154df565b60405180910390a25050919050565b6060600b805461197490615794565b80601f01602080910402602001604051908101604052809291908181526020018280546119a090615794565b80156119ed5780601f106119c2576101008083540402835291602001916119ed565b820191906000526020600020905b8154815290600101906020018083116119d057829003601f168201915b5050505050905090565b6119ff61405a565b73ffffffffffffffffffffffffffffffffffffffff166332fe7b266040518163ffffffff1660e01b815260040160206040518083038186803b158015611a4457600080fd5b505afa158015611a58573d6000803e3d6000fd5b505050506040513d601f19601f82011682018060405250810190611a7c9190614fb3565b73ffffffffffffffffffffffffffffffffffffffff163373ffffffffffffffffffffffffffffffffffffffff161480611b645750611ab861405a565b73ffffffffffffffffffffffffffffffffffffffff16632ab24e496040518163ffffffff1660e01b815260040160206040518083038186803b158015611afd57600080fd5b505afa158015611b11573d6000803e3d6000fd5b505050506040513d601f19601f82011682018060405250810190611b359190614fb3565b73ffffffffffffffffffffffffffffffffffffffff163373ffffffffffffffffffffffffffffffffffffffff16145b80611c1e5750611b7261405a565b73ffffffffffffffffffffffffffffffffffffffff1663b99b0a0c6040518163ffffffff1660e01b815260040160206040518083038186803b158015611bb757600080fd5b505afa158015611bcb573d6000803e3d6000fd5b505050506040513d601f19601f82011682018060405250810190611bef9190614fb3565b73ffffffffffffffffffffffffffffffffffffffff163373ffffffffffffffffffffffffffffffffffffffff16145b611c2757600080fd5b8060048190555050565b600080600e60003373ffffffffffffffffffffffffffffffffffffffff1673ffffffffffffffffffffffffffffffffffffffff16815260200190815260200160002060008573ffffffffffffffffffffffffffffffffffffffff1673ffffffffffffffffffffffffffffffffffffffff16815260200190815260200160002054905082811015611cf6576040517f08c379a0000000000000000000000000000000000000000000000000000000008152600401611ced9061537b565b60405180910390fd5b611d0c33858584611d0791906156c6565b613c18565b600191505092915050565b7f000000000000000000000000000000000000000000000000000000000000000081565b6000611d48338484613de3565b6001905092915050565b600080611d5d61405a565b73ffffffffffffffffffffffffffffffffffffffff166332fe7b266040518163ffffffff1660e01b815260040160206040518083038186803b158015611da257600080fd5b505afa158015611db6573d6000803e3d6000fd5b505050506040513d601f19601f82011682018060405250810190611dda9190614fb3565b73ffffffffffffffffffffffffffffffffffffffff163373ffffffffffffffffffffffffffffffffffffffff161480611ec25750611e1661405a565b73ffffffffffffffffffffffffffffffffffffffff16632ab24e496040518163ffffffff1660e01b815260040160206040518083038186803b158015611e5b57600080fd5b505afa158015611e6f573d6000803e3d6000fd5b505050506040513d601f19601f82011682018060405250810190611e939190614fb3565b73ffffffffffffffffffffffffffffffffffffffff163373ffffffffffffffffffffffffffffffffffffffff16145b80611f7c5750611ed061405a565b73ffffffffffffffffffffffffffffffffffffffff1663b99b0a0c6040518163ffffffff1660e01b815260040160206040518083038186803b158015611f1557600080fd5b505afa158015611f29573d6000803e3d6000fd5b505050506040513d601f19601f82011682018060405250810190611f4d9190614fb3565b73ffffffffffffffffffffffffffffffffffffffff163373ffffffffffffffffffffffffffffffffffffffff16145b611f8557600080fd5b6006547f0000000000000000000000000000000000000000000000000000000000000000611fb391906155e5565b4211611fbe57600080fd5b6000611fc93061123c565b90506000611fd561405a565b73ffffffffffffffffffffffffffffffffffffffff16637b0e5c456040518163ffffffff1660e01b815260040160206040518083038186803b15801561201a57600080fd5b505afa15801561202e573d6000803e3d6000fd5b505050506040513d601f19601f820116820180604052508101906120529190614fb3565b90508073ffffffffffffffffffffffffffffffffffffffff16635a7b2ed3837f0000000000000000000000000000000000000000000000000000000000000000306040518463ffffffff1660e01b81526004016120b19392919061547f565b60206040518083038186803b1580156120c957600080fd5b505afa1580156120dd573d6000803e3d6000fd5b505050506040513d601f19601f82011682018060405250810190612101919061511e565b93508073ffffffffffffffffffffffffffffffffffffffff16635a7b2ed3837f0000000000000000000000000000000000000000000000000000000000000000306040518463ffffffff1660e01b81526004016121609392919061547f565b60206040518083038186803b15801561217857600080fd5b505afa15801561218c573d6000803e3d6000fd5b505050506040513d601f19601f820116820180604052508101906121b0919061511e565b92506121bc8484614a99565b6121c6308361472d565b7f000000000000000000000000000000000000000000000000000000000000000073ffffffffffffffffffffffffffffffffffffffff1663a9059cbb86866040518363ffffffff1660e01b81526004016122219291906152f5565b602060405180830381600087803b15801561223b57600080fd5b505af115801561224f573d6000803e3d6000fd5b505050506040513d601f19601f8201168201806040525081019061227391906150a3565b61227c57600080fd5b7f000000000000000000000000000000000000000000000000000000000000000073ffffffffffffffffffffffffffffffffffffffff1663a9059cbb86856040518363ffffffff1660e01b81526004016122d79291906152f5565b602060405180830381600087803b1580156122f157600080fd5b505af1158015612305573d6000803e3d6000fd5b505050506040513d601f19601f8201168201806040525081019061232991906150a3565b61233257600080fd5b8473ffffffffffffffffffffffffffffffffffffffff167f59c3a0b60c6ab7deb62e1440c9e72441db6db7dfe514dba8cb18e60c0d896efa85858560405161237c939291906154df565b60405180910390a25050915091565b60015481565b60008061239c61405a565b73ffffffffffffffffffffffffffffffffffffffff166332fe7b266040518163ffffffff1660e01b815260040160206040518083038186803b1580156123e157600080fd5b505afa1580156123f5573d6000803e3d6000fd5b505050506040513d601f19601f820116820180604052508101906124199190614fb3565b73ffffffffffffffffffffffffffffffffffffffff163373ffffffffffffffffffffffffffffffffffffffff161480612501575061245561405a565b73ffffffffffffffffffffffffffffffffffffffff16632ab24e496040518163ffffffff1660e01b815260040160206040518083038186803b15801561249a57600080fd5b505afa1580156124ae573d6000803e3d6000fd5b505050506040513d601f19601f820116820180604052508101906124d29190614fb3565b73ffffffffffffffffffffffffffffffffffffffff163373ffffffffffffffffffffffffffffffffffffffff16145b806125bb575061250f61405a565b73ffffffffffffffffffffffffffffffffffffffff1663b99b0a0c6040518163ffffffff1660e01b815260040160206040518083038186803b15801561255457600080fd5b505afa158015612568573d6000803e3d6000fd5b505050506040513d601f19601f8201168201806040525081019061258c9190614fb3565b73ffffffffffffffffffffffffffffffffffffffff163373ffffffffffffffffffffffffffffffffffffffff16145b6125c457600080fd5b60006125ce612ab3565b9050600073ffffffffffffffffffffffffffffffffffffffff168173ffffffffffffffffffffffffffffffffffffffff16141561260a57600080fd5b600061261461405a565b73ffffffffffffffffffffffffffffffffffffffff16637b0e5c456040518163ffffffff1660e01b815260040160206040518083038186803b15801561265957600080fd5b505afa15801561266d573d6000803e3d6000fd5b505050506040513d601f19601f820116820180604052508101906126919190614fb3565b905060008273ffffffffffffffffffffffffffffffffffffffff166370a08231306040518263ffffffff1660e01b81526004016126ce91906152b1565b60206040518083038186803b1580156126e657600080fd5b505afa1580156126fa573d6000803e3d6000fd5b505050506040513d601f19601f8201168201806040525081019061271e919061511e565b905060008273ffffffffffffffffffffffffffffffffffffffff1663701baaf383601054600f546040518463ffffffff1660e01b8152600401612763939291906154df565b60206040518083038186803b15801561277b57600080fd5b505afa15801561278f573d6000803e3d6000fd5b505050506040513d601f19601f820116820180604052508101906127b3919061511e565b9050600061271061251c836127c8919061566c565b6127d2919061563b565b90508373ffffffffffffffffffffffffffffffffffffffff1663896a708c84601054600f546040518463ffffffff1660e01b8152600401612815939291906154df565b60206040518083038186803b15801561282d57600080fd5b505afa158015612841573d6000803e3d6000fd5b505050506040513d601f19601f82011682018060405250810190612865919061511e565b9550612872816000614a99565b61287b86614ad7565b60008573ffffffffffffffffffffffffffffffffffffffff166386450495856040518263ffffffff1660e01b81526004016128b6919061543b565b602060405180830381600087803b1580156128d057600080fd5b505af11580156128e4573d6000803e3d6000fd5b505050506040513d601f19601f82011682018060405250810190612908919061511e565b9050612914868261472d565b7f000000000000000000000000000000000000000000000000000000000000000073ffffffffffffffffffffffffffffffffffffffff1663a9059cbb8a846040518363ffffffff1660e01b815260040161296f9291906152f5565b602060405180830381600087803b15801561298957600080fd5b505af115801561299d573d6000803e3d6000fd5b505050506040513d601f19601f820116820180604052508101906129c191906150a3565b6129ca57600080fd5b8873ffffffffffffffffffffffffffffffffffffffff167f6f3ac8cc4850a948dddb5c85957bbaadcbea6e4b2cef3f02f6af53fcf2596f568383878b604051612a169493929190615516565b60405180910390a2819750505050505050915091565b6000600e60008473ffffffffffffffffffffffffffffffffffffffff1673ffffffffffffffffffffffffffffffffffffffff16815260200190815260200160002060008373ffffffffffffffffffffffffffffffffffffffff1673ffffffffffffffffffffffffffffffffffffffff16815260200190815260200160002054905092915050565b6000612abd61405a565b73ffffffffffffffffffffffffffffffffffffffff1663b93ec54b6040518163ffffffff1660e01b815260040160206040518083038186803b158015612b0257600080fd5b505afa158015612b16573d6000803e3d6000fd5b505050506040513d601f19601f82011682018060405250810190612b3a9190614fb3565b73ffffffffffffffffffffffffffffffffffffffff1663dcec81167f00000000000000000000000000000000000000000000000000000000000000006040518263ffffffff1660e01b8152600401612b9291906152b1565b60206040518083038186803b158015612baa57600080fd5b505afa158015612bbe573d6000803e3d6000fd5b505050506040513d601f19601f82011682018060405250810190612be29190614fb3565b905090565b7f000000000000000000000000000000000000000000000000000000000000000081565b60105481565b600080612c1c61405a565b73ffffffffffffffffffffffffffffffffffffffff166332fe7b266040518163ffffffff1660e01b815260040160206040518083038186803b158015612c6157600080fd5b505afa158015612c75573d6000803e3d6000fd5b505050506040513d601f19601f82011682018060405250810190612c999190614fb3565b73ffffffffffffffffffffffffffffffffffffffff163373ffffffffffffffffffffffffffffffffffffffff161480612d815750612cd561405a565b73ffffffffffffffffffffffffffffffffffffffff16632ab24e496040518163ffffffff1660e01b815260040160206040518083038186803b158015612d1a57600080fd5b505afa158015612d2e573d6000803e3d6000fd5b505050506040513d601f19601f82011682018060405250810190612d529190614fb3565b73ffffffffffffffffffffffffffffffffffffffff163373ffffffffffffffffffffffffffffffffffffffff16145b80612e3b5750612d8f61405a565b73ffffffffffffffffffffffffffffffffffffffff1663b99b0a0c6040518163ffffffff1660e01b815260040160206040518083038186803b158015612dd457600080fd5b505afa158015612de8573d6000803e3d6000fd5b505050506040513d601f19601f82011682018060405250810190612e0c9190614fb3565b73ffffffffffffffffffffffffffffffffffffffff163373ffffffffffffffffffffffffffffffffffffffff16145b612e4457600080fd5b6000612e4e612ab3565b9050612e5861405a565b73ffffffffffffffffffffffffffffffffffffffff166332fe7b266040518163ffffffff1660e01b815260040160206040518083038186803b158015612e9d57600080fd5b505afa158015612eb1573d6000803e3d6000fd5b505050506040513d601f19601f82011682018060405250810190612ed59190614fb3565b73ffffffffffffffffffffffffffffffffffffffff1663940c4abc6040518163ffffffff1660e01b815260040160206040518083038186803b158015612f1a57600080fd5b505afa158015612f2e573d6000803e3d6000fd5b505050506040513d601f19601f82011682018060405250810190612f5291906150a3565b612f5b57600080fd5b612f6361405a565b73ffffffffffffffffffffffffffffffffffffffff1663b93ec54b6040518163ffffffff1660e01b815260040160206040518083038186803b158015612fa857600080fd5b505afa158015612fbc573d6000803e3d6000fd5b505050506040513d601f19601f82011682018060405250810190612fe09190614fb3565b73ffffffffffffffffffffffffffffffffffffffff16635e0237ea826040518263ffffffff1660e01b815260040161301891906152b1565b60206040518083038186803b15801561303057600080fd5b505afa158015613044573d6000803e3d6000fd5b505050506040513d601f19601f8201168201806040525081019061306891906150a3565b61307157600080fd5b600061307b61405a565b73ffffffffffffffffffffffffffffffffffffffff16637b0e5c456040518163ffffffff1660e01b815260040160206040518083038186803b1580156130c057600080fd5b505afa1580156130d4573d6000803e3d6000fd5b505050506040513d601f19601f820116820180604052508101906130f89190614fb3565b905060006131046143be565b9050600061311184614b2d565b90508273ffffffffffffffffffffffffffffffffffffffff1663701baaf383600f546010546040518463ffffffff1660e01b8152600401613154939291906154df565b60206040518083038186803b15801561316c57600080fd5b505afa158015613180573d6000803e3d6000fd5b505050506040513d601f19601f820116820180604052508101906131a4919061511e565b9550808611156131b357600080fd5b4260088190555060008373ffffffffffffffffffffffffffffffffffffffff1663b86a82ef84306040518363ffffffff1660e01b81526004016131f7929190615456565b60206040518083038186803b15801561320f57600080fd5b505afa158015613223573d6000803e3d6000fd5b505050506040513d601f19601f82011682018060405250810190613247919061511e565b9050613254836000614a40565b60008473ffffffffffffffffffffffffffffffffffffffff1663896a708c85600f546010546040518463ffffffff1660e01b8152600401613297939291906154df565b60206040518083038186803b1580156132af57600080fd5b505afa1580156132c3573d6000803e3d6000fd5b505050506040513d601f19601f820116820180604052508101906132e7919061511e565b90508473ffffffffffffffffffffffffffffffffffffffff1663c19387df7f0000000000000000000000000000000000000000000000000000000000000000836040518363ffffffff1660e01b81526004016133449291906152f5565b60206040518083038186803b15801561335c57600080fd5b505afa158015613370573d6000803e3d6000fd5b505050506040513d601f19601f82011682018060405250810190613394919061511e565b96506133a086836148f7565b8573ffffffffffffffffffffffffffffffffffffffff166332f302e36133c461405a565b73ffffffffffffffffffffffffffffffffffffffff16632ab24e496040518163ffffffff1660e01b815260040160206040518083038186803b15801561340957600080fd5b505afa15801561341d573d6000803e3d6000fd5b505050506040513d601f19601f820116820180604052508101906134419190614fb3565b8a6040518363ffffffff1660e01b815260040161345f9291906152f5565b602060405180830381600087803b15801561347957600080fd5b505af115801561348d573d6000803e3d6000fd5b505050506040513d601f19601f820116820180604052508101906134b1919061511e565b506134ba61405a565b73ffffffffffffffffffffffffffffffffffffffff16632ab24e496040518163ffffffff1660e01b815260040160206040518083038186803b1580156134ff57600080fd5b505afa158015613513573d6000803e3d6000fd5b505050506040513d601f19601f820116820180604052508101906135379190614fb3565b73ffffffffffffffffffffffffffffffffffffffff16634335a95c878b6040518363ffffffff1660e01b81526004016135719291906152cc565b600060405180830381600087803b15801561358b57600080fd5b505af115801561359f573d6000803e3d6000fd5b505050506135ac87614ad7565b8873ffffffffffffffffffffffffffffffffffffffff167fbaff1e38597e99ccc6d6abf0e271a32ee3dc24114ea5bec3f05afd9bbb19f1f585848b8b6040516135f89493929190615516565b60405180910390a2505050505050915091565b61361361405a565b73ffffffffffffffffffffffffffffffffffffffff166332fe7b266040518163ffffffff1660e01b815260040160206040518083038186803b15801561365857600080fd5b505afa15801561366c573d6000803e3d6000fd5b505050506040513d601f19601f820116820180604052508101906136909190614fb3565b73ffffffffffffffffffffffffffffffffffffffff163373ffffffffffffffffffffffffffffffffffffffff16148061377857506136cc61405a565b73ffffffffffffffffffffffffffffffffffffffff16632ab24e496040518163ffffffff1660e01b815260040160206040518083038186803b15801561371157600080fd5b505afa158015613725573d6000803e3d6000fd5b505050506040513d601f19601f820116820180604052508101906137499190614fb3565b73ffffffffffffffffffffffffffffffffffffffff163373ffffffffffffffffffffffffffffffffffffffff16145b80613832575061378661405a565b73ffffffffffffffffffffffffffffffffffffffff1663b99b0a0c6040518163ffffffff1660e01b815260040160206040518083038186803b1580156137cb57600080fd5b505afa1580156137df573d6000803e3d6000fd5b505050506040513d601f19601f820116820180604052508101906138039190614fb3565b73ffffffffffffffffffffffffffffffffffffffff163373ffffffffffffffffffffffffffffffffffffffff16145b61383b57600080fd5b610244811061384957600080fd5b600560009054906101000a900460ff1615600560006101000a81548160ff021916908315150217905550804261387f91906155e5565b60038190555050565b61389061405a565b73ffffffffffffffffffffffffffffffffffffffff166398fabd3a6040518163ffffffff1660e01b815260040160206040518083038186803b1580156138d557600080fd5b505afa1580156138e9573d6000803e3d6000fd5b505050506040513d601f19601f8201168201806040525081019061390d9190614fb3565b73ffffffffffffffffffffffffffffffffffffffff163373ffffffffffffffffffffffffffffffffffffffff1614806139f5575061394961405a565b73ffffffffffffffffffffffffffffffffffffffff166332fe7b266040518163ffffffff1660e01b815260040160206040518083038186803b15801561398e57600080fd5b505afa1580156139a2573d6000803e3d6000fd5b505050506040513d601f19601f820116820180604052508101906139c69190614fb3565b73ffffffffffffffffffffffffffffffffffffffff163373ffffffffffffffffffffffffffffffffffffffff16145b80613aaf5750613a0361405a565b73ffffffffffffffffffffffffffffffffffffffff16632ab24e496040518163ffffffff1660e01b815260040160206040518083038186803b158015613a4857600080fd5b505afa158015613a5c573d6000803e3d6000fd5b505050506040513d601f19601f82011682018060405250810190613a809190614fb3565b73ffffffffffffffffffffffffffffffffffffffff163373ffffffffffffffffffffffffffffffffffffffff16145b613ab857600080fd5b7f000000000000000000000000000000000000000000000000000000000000000073ffffffffffffffffffffffffffffffffffffffff166370a08231306040518263ffffffff1660e01b8152600401613b1191906152b1565b60206040518083038186803b158015613b2957600080fd5b505afa158015613b3d573d6000803e3d6000fd5b505050506040513d601f19601f82011682018060405250810190613b61919061511e565b600f819055507f000000000000000000000000000000000000000000000000000000000000000073ffffffffffffffffffffffffffffffffffffffff166370a08231306040518263ffffffff1660e01b8152600401613bc091906152b1565b60206040518083038186803b158015613bd857600080fd5b505afa158015613bec573d6000803e3d6000fd5b505050506040513d601f19601f82011682018060405250810190613c10919061511e565b601081905550565b600073ffffffffffffffffffffffffffffffffffffffff168373ffffffffffffffffffffffffffffffffffffffff161415613c88576040517f08c379a0000000000000000000000000000000000000000000000000000000008152600401613c7f9061541b565b60405180910390fd5b600073ffffffffffffffffffffffffffffffffffffffff168273ffffffffffffffffffffffffffffffffffffffff161415613cf8576040517f08c379a0000000000000000000000000000000000000000000000000000000008152600401613cef906153db565b60405180910390fd5b80600e60008573ffffffffffffffffffffffffffffffffffffffff1673ffffffffffffffffffffffffffffffffffffffff16815260200190815260200160002060008473ffffffffffffffffffffffffffffffffffffffff1673ffffffffffffffffffffffffffffffffffffffff168152602001908152602001600020819055508173ffffffffffffffffffffffffffffffffffffffff168373ffffffffffffffffffffffffffffffffffffffff167f8c5be1e5ebec7d5bd14f71427d1e84f3dd0314c0f7b2291e5b200ac8c7c3b92583604051613dd6919061543b565b60405180910390a3505050565b600073ffffffffffffffffffffffffffffffffffffffff168373ffffffffffffffffffffffffffffffffffffffff161415613e53576040517f08c379a0000000000000000000000000000000000000000000000000000000008152600401613e4a906153fb565b60405180910390fd5b600073ffffffffffffffffffffffffffffffffffffffff168273ffffffffffffffffffffffffffffffffffffffff161415613ec3576040517f08c379a0000000000000000000000000000000000000000000000000000000008152600401613eba906153bb565b60405180910390fd5b6000600d60008573ffffffffffffffffffffffffffffffffffffffff1673ffffffffffffffffffffffffffffffffffffffff16815260200190815260200160002054905081811015613f4a576040517f08c379a0000000000000000000000000000000000000000000000000000000008152600401613f419061539b565b60405180910390fd5b8181613f5691906156c6565b600d60008673ffffffffffffffffffffffffffffffffffffffff1673ffffffffffffffffffffffffffffffffffffffff1681526020019081526020016000208190555081600d60008573ffffffffffffffffffffffffffffffffffffffff1673ffffffffffffffffffffffffffffffffffffffff1681526020019081526020016000206000828254613fe891906155e5565b925050819055508273ffffffffffffffffffffffffffffffffffffffff168473ffffffffffffffffffffffffffffffffffffffff167fddf252ad1be2c89b69c2b068fc378daa952ba7f163c4a11628f55a4df523b3ef8460405161404c919061543b565b60405180910390a350505050565b60007f000000000000000000000000000000000000000000000000000000000000000073ffffffffffffffffffffffffffffffffffffffff166398fabd3a6040518163ffffffff1660e01b815260040160206040518083038186803b1580156140c257600080fd5b505afa1580156140d6573d6000803e3d6000fd5b505050506040513d601f19601f820116820180604052508101906140fa91906150cc565b905090565b6000807f000000000000000000000000000000000000000000000000000000000000000073ffffffffffffffffffffffffffffffffffffffff166370a08231306040518263ffffffff1660e01b815260040161415b91906152b1565b60206040518083038186803b15801561417357600080fd5b505afa158015614187573d6000803e3d6000fd5b505050506040513d601f19601f820116820180604052508101906141ab919061511e565b90506010548111156141cc57601054816141c591906156c6565b91506141d1565b600091505b5090565b600080600060105490506000600f54905060006141f061405a565b73ffffffffffffffffffffffffffffffffffffffff16637b0e5c456040518163ffffffff1660e01b815260040160206040518083038186803b15801561423557600080fd5b505afa158015614249573d6000803e3d6000fd5b505050506040513d601f19601f8201168201806040525081019061426d9190614fb3565b90508073ffffffffffffffffffffffffffffffffffffffff1663701baaf38785856040518463ffffffff1660e01b81526004016142ac939291906154df565b60206040518083038186803b1580156142c457600080fd5b505afa1580156142d8573d6000803e3d6000fd5b505050506040513d601f19601f820116820180604052508101906142fc919061511e565b94508073ffffffffffffffffffffffffffffffffffffffff1663896a708c8785856040518463ffffffff1660e01b815260040161433b939291906154df565b60206040518083038186803b15801561435357600080fd5b505afa158015614367573d6000803e3d6000fd5b505050506040513d601f19601f8201168201806040525081019061438b919061511e565b93506143ad858361439c91906156c6565b87856143a891906155e5565b614c8e565b6143b684614ad7565b505050915091565b6000807f000000000000000000000000000000000000000000000000000000000000000073ffffffffffffffffffffffffffffffffffffffff166370a08231306040518263ffffffff1660e01b815260040161441a91906152b1565b60206040518083038186803b15801561443257600080fd5b505afa158015614446573d6000803e3d6000fd5b505050506040513d601f19601f8201168201806040525081019061446a919061511e565b9050600f5481111561448b57600f548161448491906156c6565b9150614490565b600091505b5090565b6000806000600f5490506000601054905060006144af61405a565b73ffffffffffffffffffffffffffffffffffffffff16637b0e5c456040518163ffffffff1660e01b815260040160206040518083038186803b1580156144f457600080fd5b505afa158015614508573d6000803e3d6000fd5b505050506040513d601f19601f8201168201806040525081019061452c9190614fb3565b90508073ffffffffffffffffffffffffffffffffffffffff1663701baaf38785856040518463ffffffff1660e01b815260040161456b939291906154df565b60206040518083038186803b15801561458357600080fd5b505afa158015614597573d6000803e3d6000fd5b505050506040513d601f19601f820116820180604052508101906145bb919061511e565b945060008173ffffffffffffffffffffffffffffffffffffffff1663896a708c8886866040518463ffffffff1660e01b81526004016145fc939291906154df565b60206040518083038186803b15801561461457600080fd5b505afa158015614628573d6000803e3d6000fd5b505050506040513d601f19601f8201168201806040525081019061464c919061511e565b90508173ffffffffffffffffffffffffffffffffffffffff1663c19387df7f0000000000000000000000000000000000000000000000000000000000000000836040518363ffffffff1660e01b81526004016146a99291906152f5565b60206040518083038186803b1580156146c157600080fd5b505afa1580156146d5573d6000803e3d6000fd5b505050506040513d601f19601f820116820180604052508101906146f9919061511e565b945061471b878561470a91906155e5565b878561471691906156c6565b614c8e565b61472485614ad7565b50505050915091565b600073ffffffffffffffffffffffffffffffffffffffff168273ffffffffffffffffffffffffffffffffffffffff16141561479d576040517f08c379a00000000000000000000000000000000000000000000000000000000081526004016147949061535b565b60405180910390fd5b6000600d60008473ffffffffffffffffffffffffffffffffffffffff1673ffffffffffffffffffffffffffffffffffffffff16815260200190815260200160002054905081811015614824576040517f08c379a000000000000000000000000000000000000000000000000000000000815260040161481b9061539b565b60405180910390fd5b818161483091906156c6565b600d60008573ffffffffffffffffffffffffffffffffffffffff1673ffffffffffffffffffffffffffffffffffffffff1681526020019081526020016000208190555081600c600082825461488591906156c6565b92505081905550600073ffffffffffffffffffffffffffffffffffffffff168373ffffffffffffffffffffffffffffffffffffffff167fddf252ad1be2c89b69c2b068fc378daa952ba7f163c4a11628f55a4df523b3ef846040516148ea919061543b565b60405180910390a3505050565b600073ffffffffffffffffffffffffffffffffffffffff168273ffffffffffffffffffffffffffffffffffffffff161415614967576040517f08c379a000000000000000000000000000000000000000000000000000000000815260040161495e9061535b565b60405180910390fd5b80600c600082825461497991906155e5565b9250508190555080600d60008473ffffffffffffffffffffffffffffffffffffffff1673ffffffffffffffffffffffffffffffffffffffff16815260200190815260200160002060008282546149cf91906155e5565b925050819055508173ffffffffffffffffffffffffffffffffffffffff16600073ffffffffffffffffffffffffffffffffffffffff167fddf252ad1be2c89b69c2b068fc378daa952ba7f163c4a11628f55a4df523b3ef83604051614a34919061543b565b60405180910390a35050565b60015482600f54614a5191906155e5565b10614a5b57600080fd5b81600f6000828254614a6d91906155e5565b925050819055508060106000828254614a8691906155e5565b92505081905550614a95614ca8565b5050565b81600f6000828254614aab91906156c6565b925050819055508060106000828254614ac491906156c6565b92505081905550614ad3614ca8565b5050565b62278d00601154614ae891906155e5565b4211614b075780601254614afc91906155e5565b601281905550614b2a565b42601181905550601254601381905550614b22601354614df3565b806012819055505b50565b600080612710600054601054614b43919061566c565b614b4d919061563b565b90506000808473ffffffffffffffffffffffffffffffffffffffff166318160ddd6040518163ffffffff1660e01b815260040160206040518083038186803b158015614b9857600080fd5b505afa158015614bac573d6000803e3d6000fd5b505050506040513d601f19601f82011682018060405250810190614bd0919061511e565b905060009350808310614bec578083614be991906156c6565b91505b600060085414614c1e57600060085442614c0691906156c6565b905060075481614c16919061566c565b945050614c53565b426008819055504260098190555060065482614c3a919061563b565b600781905550600754613840614c50919061566c565b93505b600654600954614c6391906155e5565b421115614c865760065482614c78919061563b565b600781905550426009819055505b505050919050565b81600f8190555080601081905550614ca4614ca8565b5050565b6000601054600f54600f54614cbd919061566c565b614cc7919061563b565b90506000600254821115614cea5760025482614ce391906156c6565b9050614cfb565b81600254614cf891906156c6565b90505b60008261271083614d0c919061566c565b614d16919061563b565b90506004548110614d41576001600560006101000a81548160ff021916908315150217905550614d68565b600354421115614d6757610e1042614d5991906155e5565b600381905550826002819055505b5b600560009054906101000a900460ff1615614dee576004548111614da2576000600560006101000a81548160ff0219169083151502179055505b600354421115614ded57610e1042614dba91906155e5565b60038190555060046003600254614dd1919061566c565b84614ddc91906155e5565b614de6919061563b565b6002819055505b5b505050565b60026014805490501415614edf576014600181548110614e3c577f4e487b7100000000000000000000000000000000000000000000000000000000600052603260045260246000fd5b90600052602060002001546014600081548110614e82577f4e487b7100000000000000000000000000000000000000000000000000000000600052603260045260246000fd5b9060005260206000200181905550806014600181548110614ecc577f4e487b7100000000000000000000000000000000000000000000000000000000600052603260045260246000fd5b9060005260206000200181905550614f09565b60148190806001815401808255809150506001900390600052602060002001600090919091909150555b50565b600081359050614f1b81615983565b92915050565b600081519050614f3081615983565b92915050565b600081519050614f458161599a565b92915050565b600081519050614f5a816159b1565b92915050565b600081359050614f6f816159c8565b92915050565b600081519050614f84816159c8565b92915050565b600060208284031215614f9c57600080fd5b6000614faa84828501614f0c565b91505092915050565b600060208284031215614fc557600080fd5b6000614fd384828501614f21565b91505092915050565b60008060408385031215614fef57600080fd5b6000614ffd85828601614f0c565b925050602061500e85828601614f0c565b9150509250929050565b60008060006060848603121561502d57600080fd5b600061503b86828701614f0c565b935050602061504c86828701614f0c565b925050604061505d86828701614f60565b9150509250925092565b6000806040838503121561507a57600080fd5b600061508885828601614f0c565b925050602061509985828601614f60565b9150509250929050565b6000602082840312156150b557600080fd5b60006150c384828501614f36565b91505092915050565b6000602082840312156150de57600080fd5b60006150ec84828501614f4b565b91505092915050565b60006020828403121561510757600080fd5b600061511584828501614f60565b91505092915050565b60006020828403121561513057600080fd5b600061513e84828501614f75565b91505092915050565b615150816156fa565b82525050565b61515f8161570c565b82525050565b6000615170826155c9565b61517a81856155d4565b935061518a818560208601615761565b61519381615853565b840191505092915050565b60006151ab6008836155d4565b91506151b682615864565b602082019050919050565b60006151ce6009836155d4565b91506151d98261588d565b602082019050919050565b60006151f16008836155d4565b91506151fc826158b6565b602082019050919050565b60006152146005836155d4565b915061521f826158df565b602082019050919050565b60006152376008836155d4565b915061524282615908565b602082019050919050565b600061525a6007836155d4565b915061526582615931565b602082019050919050565b600061527d6006836155d4565b91506152888261595a565b602082019050919050565b61529c8161574a565b82525050565b6152ab81615754565b82525050565b60006020820190506152c66000830184615147565b92915050565b60006040820190506152e16000830185615147565b6152ee6020830184615147565b9392505050565b600060408201905061530a6000830185615147565b6153176020830184615293565b9392505050565b60006020820190506153336000830184615156565b92915050565b600060208201905081810360008301526153538184615165565b905092915050565b600060208201905081810360008301526153748161519e565b9050919050565b60006020820190508181036000830152615394816151c1565b9050919050565b600060208201905081810360008301526153b4816151e4565b9050919050565b600060208201905081810360008301526153d481615207565b9050919050565b600060208201905081810360008301526153f48161522a565b9050919050565b600060208201905081810360008301526154148161524d565b9050919050565b6000602082019050818103600083015261543481615270565b9050919050565b60006020820190506154506000830184615293565b92915050565b600060408201905061546b6000830185615293565b6154786020830184615147565b9392505050565b60006060820190506154946000830186615293565b6154a16020830185615147565b6154ae6040830184615147565b949350505050565b60006040820190506154cb6000830185615293565b6154d86020830184615293565b9392505050565b60006060820190506154f46000830186615293565b6155016020830185615293565b61550e6040830184615293565b949350505050565b600060808201905061552b6000830187615293565b6155386020830186615293565b6155456040830185615293565b6155526060830184615293565b95945050505050565b600060a0820190506155706000830188615293565b61557d6020830187615293565b61558a6040830186615293565b6155976060830185615293565b6155a46080830184615293565b9695505050505050565b60006020820190506155c360008301846152a2565b92915050565b600081519050919050565b600082825260208201905092915050565b60006155f08261574a565b91506155fb8361574a565b9250827fffffffffffffffffffffffffffffffffffffffffffffffffffffffffffffffff038211156156305761562f6157c6565b5b828201905092915050565b60006156468261574a565b91506156518361574a565b925082615661576156606157f5565b5b828204905092915050565b60006156778261574a565b91506156828361574a565b9250817fffffffffffffffffffffffffffffffffffffffffffffffffffffffffffffffff04831182151516156156bb576156ba6157c6565b5b828202905092915050565b60006156d18261574a565b91506156dc8361574a565b9250828210156156ef576156ee6157c6565b5b828203905092915050565b60006157058261572a565b9050919050565b60008115159050919050565b6000615723826156fa565b9050919050565b600073ffffffffffffffffffffffffffffffffffffffff82169050919050565b6000819050919050565b600060ff82169050919050565b60005b8381101561577f578082015181840152602081019050615764565b8381111561578e576000848401525b50505050565b600060028204905060018216806157ac57607f821691505b602082108114156157c0576157bf615824565b5b50919050565b7f4e487b7100000000000000000000000000000000000000000000000000000000600052601160045260246000fd5b7f4e487b7100000000000000000000000000000000000000000000000000000000600052601260045260246000fd5b7f4e487b7100000000000000000000000000000000000000000000000000000000600052602260045260246000fd5b6000601f19601f8301169050919050565b7f216163636f756e74000000000000000000000000000000000000000000000000600082015250565b7f21617070726f76616c0000000000000000000000000000000000000000000000600082015250565b7f2162616c616e6365000000000000000000000000000000000000000000000000600082015250565b7f214255524e000000000000000000000000000000000000000000000000000000600082015250565b7f217370656e646572000000000000000000000000000000000000000000000000600082015250565b7f2173656e64657200000000000000000000000000000000000000000000000000600082015250565b7f216f776e65720000000000000000000000000000000000000000000000000000600082015250565b61598c816156fa565b811461599757600080fd5b50565b6159a38161570c565b81146159ae57600080fd5b50565b6159ba81615718565b81146159c557600080fd5b50565b6159d18161574a565b81146159dc57600080fd5b5056fea2646970667358221220143d7c262b666176af20a1739dd51a89f9bc9106997a78e55e491d0c8ce621e164736f6c63430008030033",
  "linkReferences": {},
  "deployedLinkReferences": {}
}