{
  "_format": "hh-sol-artifact-1",
  "contractName": "SpartanLend",
  "sourceName": "contracts/Lend.sol",
  "abi": [
    {
      "inputs": [
        {
          "internalType": "address",
          "name": "_base",
          "type": "address"
        }
      ],
      "stateMutability": "nonpayable",
      "type": "constructor"
    },
    {
      "inputs": [],
      "name": "BASE",
      "outputs": [
        {
          "internalType": "address",
          "name": "",
          "type": "address"
        }
      ],
      "stateMutability": "view",
      "type": "function"
    },
    {
      "inputs": [],
      "name": "DEPLOYER",
      "outputs": [
        {
          "internalType": "address",
          "name": "",
          "type": "address"
        }
      ],
      "stateMutability": "view",
      "type": "function"
    },
    {
      "inputs": [],
      "name": "LendRouter",
      "outputs": [
        {
          "internalType": "address",
          "name": "",
          "type": "address"
        }
      ],
      "stateMutability": "view",
      "type": "function"
    },
    {
      "inputs": [],
      "name": "LendVault",
      "outputs": [
        {
          "internalType": "address",
          "name": "",
          "type": "address"
        }
      ],
      "stateMutability": "view",
      "type": "function"
    },
    {
      "inputs": [
        {
          "internalType": "uint256",
          "name": "amount",
          "type": "uint256"
        },
        {
          "internalType": "address",
          "name": "assetC",
          "type": "address"
        },
        {
          "internalType": "address",
          "name": "assetD",
          "type": "address"
        },
        {
          "internalType": "address",
          "name": "member",
          "type": "address"
        }
      ],
      "name": "borrow",
      "outputs": [
        {
          "internalType": "uint256",
          "name": "assetDebtIssued",
          "type": "uint256"
        }
      ],
      "stateMutability": "nonpayable",
      "type": "function"
    },
    {
      "inputs": [
        {
          "internalType": "address",
          "name": "assetC",
          "type": "address"
        }
      ],
      "name": "checkliquidate",
      "outputs": [
        {
          "internalType": "uint256",
          "name": "fee",
          "type": "uint256"
        }
      ],
      "stateMutability": "nonpayable",
      "type": "function"
    },
    {
      "inputs": [
        {
          "internalType": "uint256",
          "name": "amount",
          "type": "uint256"
        },
        {
          "internalType": "address",
          "name": "assetC",
          "type": "address"
        },
        {
          "internalType": "address",
          "name": "assetD",
          "type": "address"
        },
        {
          "internalType": "address",
          "name": "member",
          "type": "address"
        }
      ],
      "name": "payBack",
      "outputs": [
        {
          "internalType": "uint256",
          "name": "_assetCollateralRemoved",
          "type": "uint256"
        }
      ],
      "stateMutability": "nonpayable",
      "type": "function"
    },
    {
      "inputs": [
        {
          "internalType": "address",
          "name": "_lendRouter",
          "type": "address"
        },
        {
          "internalType": "address",
          "name": "_lendVault",
          "type": "address"
        }
      ],
      "name": "setGenesisAddresses",
      "outputs": [],
      "stateMutability": "nonpayable",
      "type": "function"
    }
  ],
  "bytecode": "0x608060405234801561001057600080fd5b5060405161092f38038061092f833981810160405281019061003291906100ce565b806000806101000a81548173ffffffffffffffffffffffffffffffffffffffff021916908373ffffffffffffffffffffffffffffffffffffffff16021790555033600160006101000a81548173ffffffffffffffffffffffffffffffffffffffff021916908373ffffffffffffffffffffffffffffffffffffffff16021790555050610140565b6000815190506100c881610129565b92915050565b6000602082840312156100e057600080fd5b60006100ee848285016100b9565b91505092915050565b600061010282610109565b9050919050565b600073ffffffffffffffffffffffffffffffffffffffff82169050919050565b610132816100f7565b811461013d57600080fd5b50565b6107e08061014f6000396000f3fe608060405234801561001057600080fd5b50600436106100885760003560e01c8063c1b8411a1161005b578063c1b8411a14610115578063dc90618a14610133578063ec342ad014610163578063ee5d0c661461018157610088565b80632af6c9851461008d5780638838cf16146100bd5780638c7b1f12146100db578063ad306485146100f9575b600080fd5b6100a760048036038101906100a291906105e3565b6101b1565b6040516100b491906106c2565b60405180910390f35b6100c56101bb565b6040516100d29190610687565b60405180910390f35b6100e36101e1565b6040516100f09190610687565b60405180910390f35b610113600480360381019061010e919061057e565b610207565b005b61011d6103d7565b60405161012a9190610687565b60405180910390f35b61014d600480360381019061014891906105e3565b6103fd565b60405161015a91906106c2565b60405180910390f35b61016b610407565b6040516101789190610687565b60405180910390f35b61019b6004803603810190610196919061052c565b61042b565b6040516101a891906106c2565b60405180910390f35b6000949350505050565b600260009054906101000a900473ffffffffffffffffffffffffffffffffffffffff1681565b600360009054906101000a900473ffffffffffffffffffffffffffffffffffffffff1681565b61020f610432565b73ffffffffffffffffffffffffffffffffffffffff166398fabd3a6040518163ffffffff1660e01b815260040160206040518083038186803b15801561025457600080fd5b505afa158015610268573d6000803e3d6000fd5b505050506040513d601f19601f8201168201806040525081019061028c9190610555565b73ffffffffffffffffffffffffffffffffffffffff163373ffffffffffffffffffffffffffffffffffffffff1614806103125750600160009054906101000a900473ffffffffffffffffffffffffffffffffffffffff1673ffffffffffffffffffffffffffffffffffffffff163373ffffffffffffffffffffffffffffffffffffffff16145b610351576040517f08c379a0000000000000000000000000000000000000000000000000000000008152600401610348906106a2565b60405180910390fd5b81600260006101000a81548173ffffffffffffffffffffffffffffffffffffffff021916908373ffffffffffffffffffffffffffffffffffffffff16021790555080600360006101000a81548173ffffffffffffffffffffffffffffffffffffffff021916908373ffffffffffffffffffffffffffffffffffffffff1602179055505050565b600160009054906101000a900473ffffffffffffffffffffffffffffffffffffffff1681565b6000949350505050565b60008054906101000a900473ffffffffffffffffffffffffffffffffffffffff1681565b6000919050565b60008060009054906101000a900473ffffffffffffffffffffffffffffffffffffffff1673ffffffffffffffffffffffffffffffffffffffff166398fabd3a6040518163ffffffff1660e01b815260040160206040518083038186803b15801561049b57600080fd5b505afa1580156104af573d6000803e3d6000fd5b505050506040513d601f19601f820116820180604052508101906104d391906105ba565b905090565b6000813590506104e781610765565b92915050565b6000815190506104fc81610765565b92915050565b6000815190506105118161077c565b92915050565b60008135905061052681610793565b92915050565b60006020828403121561053e57600080fd5b600061054c848285016104d8565b91505092915050565b60006020828403121561056757600080fd5b6000610575848285016104ed565b91505092915050565b6000806040838503121561059157600080fd5b600061059f858286016104d8565b92505060206105b0858286016104d8565b9150509250929050565b6000602082840312156105cc57600080fd5b60006105da84828501610502565b91505092915050565b600080600080608085870312156105f957600080fd5b600061060787828801610517565b9450506020610618878288016104d8565b9350506040610629878288016104d8565b925050606061063a878288016104d8565b91505092959194509250565b61064f816106ee565b82525050565b6000610662600b836106dd565b915061066d8261073c565b602082019050919050565b61068181610732565b82525050565b600060208201905061069c6000830184610646565b92915050565b600060208201905081810360008301526106bb81610655565b9050919050565b60006020820190506106d76000830184610678565b92915050565b600082825260208201905092915050565b60006106f982610712565b9050919050565b600061070b826106ee565b9050919050565b600073ffffffffffffffffffffffffffffffffffffffff82169050919050565b6000819050919050565b7f4d7573742062652044414f000000000000000000000000000000000000000000600082015250565b61076e816106ee565b811461077957600080fd5b50565b61078581610700565b811461079057600080fd5b50565b61079c81610732565b81146107a757600080fd5b5056fea26469706673582212204887b23d07eba5fc7e414df26a91169c5faea986deed21bdb7cdd9b4b1625d8464736f6c63430008030033",
  "linkReferences": {},
  "deployedLinkReferences": {}
}