{
  "_format": "hh-sol-artifact-1",
  "contractName": "Sparta",
  "sourceName": "contracts/Sparta.sol",
  "abi": [
    {
      "inputs": [
        {
          "internalType": "address",
          "name": "_baseV1",
          "type": "address"
        }
      ],
      "stateMutability": "nonpayable",
      "type": "constructor"
    },
    {
      "anonymous": false,
      "inputs": [
        {
          "indexed": true,
          "internalType": "address",
          "name": "owner",
          "type": "address"
        },
        {
          "indexed": true,
          "internalType": "address",
          "name": "spender",
          "type": "address"
        },
        {
          "indexed": false,
          "internalType": "uint256",
          "name": "value",
          "type": "uint256"
        }
      ],
      "name": "Approval",
      "type": "event"
    },
    {
      "anonymous": false,
      "inputs": [
        {
          "indexed": false,
          "internalType": "uint256",
          "name": "nextEraTime",
          "type": "uint256"
        },
        {
          "indexed": false,
          "internalType": "uint256",
          "name": "emission",
          "type": "uint256"
        }
      ],
      "name": "NewEra",
      "type": "event"
    },
    {
      "anonymous": false,
      "inputs": [
        {
          "indexed": true,
          "internalType": "address",
          "name": "from",
          "type": "address"
        },
        {
          "indexed": true,
          "internalType": "address",
          "name": "to",
          "type": "address"
        },
        {
          "indexed": false,
          "internalType": "uint256",
          "name": "value",
          "type": "uint256"
        }
      ],
      "name": "Transfer",
      "type": "event"
    },
    {
      "inputs": [],
      "name": "BASEv1",
      "outputs": [
        {
          "internalType": "address",
          "name": "",
          "type": "address"
        }
      ],
      "stateMutability": "view",
      "type": "function"
    },
    {
      "inputs": [],
      "name": "DAO",
      "outputs": [
        {
          "internalType": "address",
          "name": "",
          "type": "address"
        }
      ],
      "stateMutability": "view",
      "type": "function"
    },
    {
      "inputs": [],
      "name": "DEPLOYER",
      "outputs": [
        {
          "internalType": "address",
          "name": "",
          "type": "address"
        }
      ],
      "stateMutability": "view",
      "type": "function"
    },
    {
      "inputs": [
        {
          "internalType": "address",
          "name": "owner",
          "type": "address"
        },
        {
          "internalType": "address",
          "name": "spender",
          "type": "address"
        }
      ],
      "name": "allowance",
      "outputs": [
        {
          "internalType": "uint256",
          "name": "",
          "type": "uint256"
        }
      ],
      "stateMutability": "view",
      "type": "function"
    },
    {
      "inputs": [
        {
          "internalType": "address",
          "name": "spender",
          "type": "address"
        },
        {
          "internalType": "uint256",
          "name": "amount",
          "type": "uint256"
        }
      ],
      "name": "approve",
      "outputs": [
        {
          "internalType": "bool",
          "name": "",
          "type": "bool"
        }
      ],
      "stateMutability": "nonpayable",
      "type": "function"
    },
    {
      "inputs": [
        {
          "internalType": "address",
          "name": "recipient",
          "type": "address"
        },
        {
          "internalType": "uint256",
          "name": "amount",
          "type": "uint256"
        },
        {
          "internalType": "bytes",
          "name": "data",
          "type": "bytes"
        }
      ],
      "name": "approveAndCall",
      "outputs": [
        {
          "internalType": "bool",
          "name": "",
          "type": "bool"
        }
      ],
      "stateMutability": "nonpayable",
      "type": "function"
    },
    {
      "inputs": [
        {
          "internalType": "address",
          "name": "account",
          "type": "address"
        }
      ],
      "name": "balanceOf",
      "outputs": [
        {
          "internalType": "uint256",
          "name": "",
          "type": "uint256"
        }
      ],
      "stateMutability": "view",
      "type": "function"
    },
    {
      "inputs": [
        {
          "internalType": "uint256",
          "name": "amount",
          "type": "uint256"
        }
      ],
      "name": "burn",
      "outputs": [],
      "stateMutability": "nonpayable",
      "type": "function"
    },
    {
      "inputs": [
        {
          "internalType": "address",
          "name": "account",
          "type": "address"
        },
        {
          "internalType": "uint256",
          "name": "amount",
          "type": "uint256"
        }
      ],
      "name": "burnFrom",
      "outputs": [],
      "stateMutability": "nonpayable",
      "type": "function"
    },
    {
      "inputs": [
        {
          "internalType": "address",
          "name": "newDAO",
          "type": "address"
        }
      ],
      "name": "changeDAO",
      "outputs": [],
      "stateMutability": "nonpayable",
      "type": "function"
    },
    {
      "inputs": [],
      "name": "decimals",
      "outputs": [
        {
          "internalType": "uint8",
          "name": "",
          "type": "uint8"
        }
      ],
      "stateMutability": "view",
      "type": "function"
    },
    {
      "inputs": [
        {
          "internalType": "address",
          "name": "spender",
          "type": "address"
        },
        {
          "internalType": "uint256",
          "name": "subtractedValue",
          "type": "uint256"
        }
      ],
      "name": "decreaseAllowance",
      "outputs": [
        {
          "internalType": "bool",
          "name": "",
          "type": "bool"
        }
      ],
      "stateMutability": "nonpayable",
      "type": "function"
    },
    {
      "inputs": [],
      "name": "emissionCurve",
      "outputs": [
        {
          "internalType": "uint256",
          "name": "",
          "type": "uint256"
        }
      ],
      "stateMutability": "view",
      "type": "function"
    },
    {
      "inputs": [],
      "name": "emitting",
      "outputs": [
        {
          "internalType": "bool",
          "name": "",
          "type": "bool"
        }
      ],
      "stateMutability": "view",
      "type": "function"
    },
    {
      "inputs": [],
      "name": "feeOnTransfer",
      "outputs": [
        {
          "internalType": "uint256",
          "name": "",
          "type": "uint256"
        }
      ],
      "stateMutability": "view",
      "type": "function"
    },
    {
      "inputs": [],
      "name": "flipEmissions",
      "outputs": [],
      "stateMutability": "nonpayable",
      "type": "function"
    },
    {
      "inputs": [],
      "name": "flipMinting",
      "outputs": [],
      "stateMutability": "nonpayable",
      "type": "function"
    },
    {
      "inputs": [],
      "name": "getDailyEmission",
      "outputs": [
        {
          "internalType": "uint256",
          "name": "",
          "type": "uint256"
        }
      ],
      "stateMutability": "view",
      "type": "function"
    },
    {
      "inputs": [
        {
          "internalType": "address",
          "name": "spender",
          "type": "address"
        },
        {
          "internalType": "uint256",
          "name": "addedValue",
          "type": "uint256"
        }
      ],
      "name": "increaseAllowance",
      "outputs": [
        {
          "internalType": "bool",
          "name": "",
          "type": "bool"
        }
      ],
      "stateMutability": "nonpayable",
      "type": "function"
    },
    {
      "inputs": [],
      "name": "maxSupply",
      "outputs": [
        {
          "internalType": "uint256",
          "name": "",
          "type": "uint256"
        }
      ],
      "stateMutability": "view",
      "type": "function"
    },
    {
      "inputs": [
        {
          "internalType": "uint256",
          "name": "amount",
          "type": "uint256"
        },
        {
          "internalType": "address",
          "name": "recipient",
          "type": "address"
        }
      ],
      "name": "mintFromDAO",
      "outputs": [],
      "stateMutability": "nonpayable",
      "type": "function"
    },
    {
      "inputs": [],
      "name": "minting",
      "outputs": [
        {
          "internalType": "bool",
          "name": "",
          "type": "bool"
        }
      ],
      "stateMutability": "view",
      "type": "function"
    },
    {
      "inputs": [],
      "name": "name",
      "outputs": [
        {
          "internalType": "string",
          "name": "",
          "type": "string"
        }
      ],
      "stateMutability": "view",
      "type": "function"
    },
    {
      "inputs": [],
      "name": "nextEraTime",
      "outputs": [
        {
          "internalType": "uint256",
          "name": "",
          "type": "uint256"
        }
      ],
      "stateMutability": "view",
      "type": "function"
    },
    {
      "inputs": [],
      "name": "purgeDAO",
      "outputs": [],
      "stateMutability": "nonpayable",
      "type": "function"
    },
    {
      "inputs": [],
      "name": "purgeDeployer",
      "outputs": [],
      "stateMutability": "nonpayable",
      "type": "function"
    },
    {
      "inputs": [
        {
          "internalType": "address",
          "name": "_savedSpartans",
          "type": "address"
        },
        {
          "internalType": "uint256",
          "name": "_saveAmount",
          "type": "uint256"
        }
      ],
      "name": "saveFallenSpartans",
      "outputs": [],
      "stateMutability": "nonpayable",
      "type": "function"
    },
    {
      "inputs": [],
      "name": "secondsPerEra",
      "outputs": [
        {
          "internalType": "uint256",
          "name": "",
          "type": "uint256"
        }
      ],
      "stateMutability": "view",
      "type": "function"
    },
    {
      "inputs": [
        {
          "internalType": "uint256",
          "name": "newTime",
          "type": "uint256"
        },
        {
          "internalType": "uint256",
          "name": "newCurve",
          "type": "uint256"
        }
      ],
      "name": "setParams",
      "outputs": [],
      "stateMutability": "nonpayable",
      "type": "function"
    },
    {
      "inputs": [],
      "name": "symbol",
      "outputs": [
        {
          "internalType": "string",
          "name": "",
          "type": "string"
        }
      ],
      "stateMutability": "view",
      "type": "function"
    },
    {
      "inputs": [],
      "name": "totalSupply",
      "outputs": [
        {
          "internalType": "uint256",
          "name": "",
          "type": "uint256"
        }
      ],
      "stateMutability": "view",
      "type": "function"
    },
    {
      "inputs": [
        {
          "internalType": "address",
          "name": "recipient",
          "type": "address"
        },
        {
          "internalType": "uint256",
          "name": "amount",
          "type": "uint256"
        }
      ],
      "name": "transfer",
      "outputs": [
        {
          "internalType": "bool",
          "name": "",
          "type": "bool"
        }
      ],
      "stateMutability": "nonpayable",
      "type": "function"
    },
    {
      "inputs": [
        {
          "internalType": "address",
          "name": "recipient",
          "type": "address"
        },
        {
          "internalType": "uint256",
          "name": "amount",
          "type": "uint256"
        },
        {
          "internalType": "bytes",
          "name": "data",
          "type": "bytes"
        }
      ],
      "name": "transferAndCall",
      "outputs": [
        {
          "internalType": "bool",
          "name": "",
          "type": "bool"
        }
      ],
      "stateMutability": "nonpayable",
      "type": "function"
    },
    {
      "inputs": [
        {
          "internalType": "address",
          "name": "sender",
          "type": "address"
        },
        {
          "internalType": "address",
          "name": "recipient",
          "type": "address"
        },
        {
          "internalType": "uint256",
          "name": "amount",
          "type": "uint256"
        }
      ],
      "name": "transferFrom",
      "outputs": [
        {
          "internalType": "bool",
          "name": "",
          "type": "bool"
        }
      ],
      "stateMutability": "nonpayable",
      "type": "function"
    },
    {
      "inputs": [],
      "name": "upgrade",
      "outputs": [],
      "stateMutability": "nonpayable",
      "type": "function"
    }
  ],
  "bytecode": "0x60806040523480156200001157600080fd5b50604051620038a8380380620038a8833981810160405281019062000037919062000241565b6012600a62000047919062000353565b6305f5e10062000058919062000490565b6006819055506012600a6200006e919062000353565b6311e1a3006200007f919062000490565b60078190555061080060058190555080600c60006101000a81548173ffffffffffffffffffffffffffffffffffffffff021916908373ffffffffffffffffffffffffffffffffffffffff1602179055506201518060088190555060085442620000e991906200029b565b60098190555033600b60006101000a81548173ffffffffffffffffffffffffffffffffffffffff021916908373ffffffffffffffffffffffffffffffffffffffff1602179055506012600a62000140919062000353565b6298968062000150919062000490565b600160003373ffffffffffffffffffffffffffffffffffffffff1673ffffffffffffffffffffffffffffffffffffffff168152602001908152602001600020819055506012600a620001a3919062000353565b620f4240620001b3919062000490565b6000819055503373ffffffffffffffffffffffffffffffffffffffff16600073ffffffffffffffffffffffffffffffffffffffff167fddf252ad1be2c89b69c2b068fc378daa952ba7f163c4a11628f55a4df523b3ef6000546040516200021b91906200027e565b60405180910390a35062000592565b6000815190506200023b8162000578565b92915050565b6000602082840312156200025457600080fd5b600062000264848285016200022a565b91505092915050565b620002788162000525565b82525050565b60006020820190506200029560008301846200026d565b92915050565b6000620002a88262000525565b9150620002b58362000525565b9250827fffffffffffffffffffffffffffffffffffffffffffffffffffffffffffffffff03821115620002ed57620002ec6200053c565b5b828201905092915050565b6000808291508390505b60018511156200034a578086048111156200032257620003216200053c565b5b6001851615620003325780820291505b808102905062000342856200056b565b945062000302565b94509492505050565b6000620003608262000525565b91506200036d836200052f565b92506200039c7fffffffffffffffffffffffffffffffffffffffffffffffffffffffffffffffff8484620003a4565b905092915050565b600082620003b6576001905062000489565b81620003c6576000905062000489565b8160018114620003df5760028114620003ea5762000420565b600191505062000489565b60ff841115620003ff57620003fe6200053c565b5b8360020a9150848211156200041957620004186200053c565b5b5062000489565b5060208310610133831016604e8410600b84101617156200045a5782820a9050838111156200045457620004536200053c565b5b62000489565b620004698484846001620002f8565b925090508184048111156200048357620004826200053c565b5b81810290505b9392505050565b60006200049d8262000525565b9150620004aa8362000525565b9250817fffffffffffffffffffffffffffffffffffffffffffffffffffffffffffffffff0483118215151615620004e657620004e56200053c565b5b828202905092915050565b6000620004fe8262000505565b9050919050565b600073ffffffffffffffffffffffffffffffffffffffff82169050919050565b6000819050919050565b600060ff82169050919050565b7f4e487b7100000000000000000000000000000000000000000000000000000000600052601160045260246000fd5b60008160011c9050919050565b6200058381620004f1565b81146200058f57600080fd5b50565b61330680620005a26000396000f3fe608060405234801561001057600080fd5b50600436106102115760003560e01c806379cc679011610125578063c1b8411a116100ad578063d55ec6971161007c578063d55ec697146105e2578063d5abeb01146105ec578063dd62ed3e1461060a578063f293e6751461063a578063fe1fa8fa1461065857610211565b8063c1b8411a1461056e578063c91b6b461461058c578063cae9ca5114610596578063d01f6fba146105c657610211565b80639a67759b116100f45780639a67759b146104b8578063a457c2d7146104d6578063a59f170c14610506578063a9059cbb14610522578063c0324c771461055257610211565b806379cc6790146104425780637dc2268c1461045e57806395d89b411461047c57806398fabd3a1461049a57610211565b806323b872dd116101a85780634000aea0116101775780634000aea01461038a57806342966c68146103ba57806358e4b934146103d65780636b92a3b6146103f457806370a082311461041257610211565b806323b872dd146103025780632deaa11614610332578063313ce5671461033c578063395093511461035a57610211565b8063095ea7b3116101e4578063095ea7b31461027a5780630fa1eeab146102aa57806318160ddd146102c85780631d007f5f146102e657610211565b806303a821381461021657806306fdde03146102205780630781f4d21461023e578063090bbb011461025c575b600080fd5b61021e610662565b005b61022861078e565b6040516102359190612b21565b60405180910390f35b6102466107c7565b6040516102539190612b06565b60405180910390f35b6102646107da565b6040516102719190612ca3565b60405180910390f35b610294600480360381019061028f91906126b6565b6107e0565b6040516102a19190612b06565b60405180910390f35b6102b26107f7565b6040516102bf9190612ca3565b60405180910390f35b6102d06107fd565b6040516102dd9190612ca3565b60405180910390f35b61030060048036038101906102fb91906125d9565b610803565b005b61031c60048036038101906103179190612667565b61099f565b6040516103299190612b06565b60405180910390f35b61033a610b37565b005b610344610c4b565b6040516103519190612ce7565b60405180910390f35b610374600480360381019061036f91906126b6565b610c50565b6040516103819190612b06565b60405180910390f35b6103a4600480360381019061039f91906126f2565b610cee565b6040516103b19190612b06565b60405180910390f35b6103d460048036038101906103cf9190612787565b610d7a565b005b6103de610d87565b6040516103eb9190612a74565b60405180910390f35b6103fc610dad565b6040516104099190612ca3565b60405180910390f35b61042c600480360381019061042791906125d9565b610db3565b6040516104399190612ca3565b60405180910390f35b61045c600480360381019061045791906126b6565b610dfc565b005b610466610e2f565b6040516104739190612b06565b60405180910390f35b610484610e42565b6040516104919190612b21565b60405180910390f35b6104a2610e7b565b6040516104af9190612a74565b60405180910390f35b6104c0610ea1565b6040516104cd9190612ca3565b60405180910390f35b6104f060048036038101906104eb91906126b6565b610ea7565b6040516104fd9190612b06565b60405180910390f35b610520600480360381019061051b91906126b6565b610f8d565b005b61053c600480360381019061053791906126b6565b6110ee565b6040516105499190612b06565b60405180910390f35b61056c60048036038101906105679190612815565b611105565b005b6105766111ff565b6040516105839190612a74565b60405180910390f35b610594611225565b005b6105b060048036038101906105ab91906126f2565b611351565b6040516105bd9190612b06565b60405180910390f35b6105e060048036038101906105db91906127d9565b6113fd565b005b6105ea611591565b005b6105f4611792565b6040516106019190612ca3565b60405180910390f35b610624600480360381019061061f919061262b565b611798565b6040516106319190612ca3565b60405180910390f35b61064261181f565b60405161064f9190612ca3565b60405180910390f35b610660611878565b005b600a60009054906101000a900473ffffffffffffffffffffffffffffffffffffffff1673ffffffffffffffffffffffffffffffffffffffff163373ffffffffffffffffffffffffffffffffffffffff16148061070b5750600b60009054906101000a900473ffffffffffffffffffffffffffffffffffffffff1673ffffffffffffffffffffffffffffffffffffffff163373ffffffffffffffffffffffffffffffffffffffff16145b61074a576040517f08c379a000000000000000000000000000000000000000000000000000000000815260040161074190612b43565b60405180910390fd5b6000600b60006101000a81548173ffffffffffffffffffffffffffffffffffffffff021916908373ffffffffffffffffffffffffffffffffffffffff160217905550565b6040518060400160405280601981526020017f5370617274616e2050726f746f636f6c20546f6b656e2056320000000000000081525081565b600360009054906101000a900460ff1681565b60095481565b60006107ed33848461198c565b6001905092915050565b60045481565b60005481565b600a60009054906101000a900473ffffffffffffffffffffffffffffffffffffffff1673ffffffffffffffffffffffffffffffffffffffff163373ffffffffffffffffffffffffffffffffffffffff1614806108ac5750600b60009054906101000a900473ffffffffffffffffffffffffffffffffffffffff1673ffffffffffffffffffffffffffffffffffffffff163373ffffffffffffffffffffffffffffffffffffffff16145b6108eb576040517f08c379a00000000000000000000000000000000000000000000000000000000081526004016108e290612b43565b60405180910390fd5b600073ffffffffffffffffffffffffffffffffffffffff168173ffffffffffffffffffffffffffffffffffffffff16141561095b576040517f08c379a000000000000000000000000000000000000000000000000000000000815260040161095290612c63565b60405180910390fd5b80600a60006101000a81548173ffffffffffffffffffffffffffffffffffffffff021916908373ffffffffffffffffffffffffffffffffffffffff16021790555050565b60006109ac848484611bfc565b7fffffffffffffffffffffffffffffffffffffffffffffffffffffffffffffffff600260008673ffffffffffffffffffffffffffffffffffffffff1673ffffffffffffffffffffffffffffffffffffffff16815260200190815260200160002060003373ffffffffffffffffffffffffffffffffffffffff1673ffffffffffffffffffffffffffffffffffffffff168152602001908152602001600020541015610b2c576000600260008673ffffffffffffffffffffffffffffffffffffffff1673ffffffffffffffffffffffffffffffffffffffff16815260200190815260200160002060003373ffffffffffffffffffffffffffffffffffffffff1673ffffffffffffffffffffffffffffffffffffffff16815260200190815260200160002054905082811015610b14576040517f08c379a0000000000000000000000000000000000000000000000000000000008152600401610b0b90612ba3565b60405180910390fd5b610b2a85338584610b259190612f81565b61198c565b505b600190509392505050565b600a60009054906101000a900473ffffffffffffffffffffffffffffffffffffffff1673ffffffffffffffffffffffffffffffffffffffff163373ffffffffffffffffffffffffffffffffffffffff161480610be05750600b60009054906101000a900473ffffffffffffffffffffffffffffffffffffffff1673ffffffffffffffffffffffffffffffffffffffff163373ffffffffffffffffffffffffffffffffffffffff16145b610c1f576040517f08c379a0000000000000000000000000000000000000000000000000000000008152600401610c1690612b43565b60405180910390fd5b600360019054906101000a900460ff1615600360016101000a81548160ff021916908315150217905550565b601281565b6000610ce4338484600260003373ffffffffffffffffffffffffffffffffffffffff1673ffffffffffffffffffffffffffffffffffffffff16815260200190815260200160002060008873ffffffffffffffffffffffffffffffffffffffff1673ffffffffffffffffffffffffffffffffffffffff16815260200190815260200160002054610cdf9190612d2f565b61198c565b6001905092915050565b6000610cfb338686611bfc565b8473ffffffffffffffffffffffffffffffffffffffff1663cf4d253530863387876040518663ffffffff1660e01b8152600401610d3c959493929190612ab8565b600060405180830381600087803b158015610d5657600080fd5b505af1158015610d6a573d6000803e3d6000fd5b5050505060019050949350505050565b610d843382611f3a565b50565b600c60009054906101000a900473ffffffffffffffffffffffffffffffffffffffff1681565b60085481565b6000600160008373ffffffffffffffffffffffffffffffffffffffff1673ffffffffffffffffffffffffffffffffffffffff168152602001908152602001600020549050919050565b600081610e098433611798565b610e139190612f81565b9050610e2083338361198c565b610e2a8383611f3a565b505050565b600360019054906101000a900460ff1681565b6040518060400160405280600681526020017f535041525441000000000000000000000000000000000000000000000000000081525081565b600a60009054906101000a900473ffffffffffffffffffffffffffffffffffffffff1681565b60055481565b600080600260003373ffffffffffffffffffffffffffffffffffffffff1673ffffffffffffffffffffffffffffffffffffffff16815260200190815260200160002060008573ffffffffffffffffffffffffffffffffffffffff1673ffffffffffffffffffffffffffffffffffffffff16815260200190815260200160002054905082811015610f6c576040517f08c379a0000000000000000000000000000000000000000000000000000000008152600401610f6390612ba3565b60405180910390fd5b610f8233858584610f7d9190612f81565b61198c565b600191505092915050565b600a60009054906101000a900473ffffffffffffffffffffffffffffffffffffffff1673ffffffffffffffffffffffffffffffffffffffff163373ffffffffffffffffffffffffffffffffffffffff1614806110365750600b60009054906101000a900473ffffffffffffffffffffffffffffffffffffffff1673ffffffffffffffffffffffffffffffffffffffff163373ffffffffffffffffffffffffffffffffffffffff16145b611075576040517f08c379a000000000000000000000000000000000000000000000000000000000815260040161106c90612b43565b60405180910390fd5b600360029054906101000a900460ff16156110c5576040517f08c379a00000000000000000000000000000000000000000000000000000000081526004016110bc90612c83565b60405180910390fd5b6001600360026101000a81548160ff0219169083151502179055506110ea8282612104565b5050565b60006110fb338484611bfc565b6001905092915050565b600a60009054906101000a900473ffffffffffffffffffffffffffffffffffffffff1673ffffffffffffffffffffffffffffffffffffffff163373ffffffffffffffffffffffffffffffffffffffff1614806111ae5750600b60009054906101000a900473ffffffffffffffffffffffffffffffffffffffff1673ffffffffffffffffffffffffffffffffffffffff163373ffffffffffffffffffffffffffffffffffffffff16145b6111ed576040517f08c379a00000000000000000000000000000000000000000000000000000000081526004016111e490612b43565b60405180910390fd5b81600881905550806005819055505050565b600b60009054906101000a900473ffffffffffffffffffffffffffffffffffffffff1681565b600a60009054906101000a900473ffffffffffffffffffffffffffffffffffffffff1673ffffffffffffffffffffffffffffffffffffffff163373ffffffffffffffffffffffffffffffffffffffff1614806112ce5750600b60009054906101000a900473ffffffffffffffffffffffffffffffffffffffff1673ffffffffffffffffffffffffffffffffffffffff163373ffffffffffffffffffffffffffffffffffffffff16145b61130d576040517f08c379a000000000000000000000000000000000000000000000000000000000815260040161130490612b43565b60405180910390fd5b6000600a60006101000a81548173ffffffffffffffffffffffffffffffffffffffff021916908373ffffffffffffffffffffffffffffffffffffffff160217905550565b600061137e33867fffffffffffffffffffffffffffffffffffffffffffffffffffffffffffffffff61198c565b8473ffffffffffffffffffffffffffffffffffffffff16631ac562a730863387876040518663ffffffff1660e01b81526004016113bf959493929190612ab8565b600060405180830381600087803b1580156113d957600080fd5b505af11580156113ed573d6000803e3d6000fd5b5050505060019050949350505050565b600a60009054906101000a900473ffffffffffffffffffffffffffffffffffffffff1673ffffffffffffffffffffffffffffffffffffffff163373ffffffffffffffffffffffffffffffffffffffff1614806114a65750600b60009054906101000a900473ffffffffffffffffffffffffffffffffffffffff1673ffffffffffffffffffffffffffffffffffffffff163373ffffffffffffffffffffffffffffffffffffffff16145b6114e5576040517f08c379a00000000000000000000000000000000000000000000000000000000081526004016114dc90612b43565b60405180910390fd5b6012600a6114f39190612e09565b624c4b406115019190612f27565b821115611543576040517f08c379a000000000000000000000000000000000000000000000000000000000815260040161153a90612c43565b60405180910390fd5b600360019054906101000a900460ff16801561157d57506012600a6115689190612e09565b6308f0d1806115779190612f27565b60005411155b1561158d5761158c8183612104565b5b5050565b6000600c60009054906101000a900473ffffffffffffffffffffffffffffffffffffffff1673ffffffffffffffffffffffffffffffffffffffff166370a08231336040518263ffffffff1660e01b81526004016115ee9190612a74565b60206040518083038186803b15801561160657600080fd5b505afa15801561161a573d6000803e3d6000fd5b505050506040513d601f19601f8201168201806040525081019061163e91906127b0565b9050600c60009054906101000a900473ffffffffffffffffffffffffffffffffffffffff1673ffffffffffffffffffffffffffffffffffffffff16632ccb1b3030836040518363ffffffff1660e01b815260040161169d929190612a8f565b602060405180830381600087803b1580156116b757600080fd5b505af11580156116cb573d6000803e3d6000fd5b505050506040513d601f19601f820116820180604052508101906116ef919061275e565b6116f857600080fd5b600c60009054906101000a900473ffffffffffffffffffffffffffffffffffffffff1673ffffffffffffffffffffffffffffffffffffffff166342966c68826040518263ffffffff1660e01b81526004016117539190612ca3565b600060405180830381600087803b15801561176d57600080fd5b505af1158015611781573d6000803e3d6000fd5b5050505061178f3382612104565b50565b60075481565b6000600260008473ffffffffffffffffffffffffffffffffffffffff1673ffffffffffffffffffffffffffffffffffffffff16815260200190815260200160002060008373ffffffffffffffffffffffffffffffffffffffff1673ffffffffffffffffffffffffffffffffffffffff16815260200190815260200160002054905092915050565b60008060065460005411611851576006546000546007546118409190612f27565b61184a9190612d85565b9050611857565b60075490505b600554600054826118689190612f81565b6118729190612d85565b91505090565b600a60009054906101000a900473ffffffffffffffffffffffffffffffffffffffff1673ffffffffffffffffffffffffffffffffffffffff163373ffffffffffffffffffffffffffffffffffffffff1614806119215750600b60009054906101000a900473ffffffffffffffffffffffffffffffffffffffff1673ffffffffffffffffffffffffffffffffffffffff163373ffffffffffffffffffffffffffffffffffffffff16145b611960576040517f08c379a000000000000000000000000000000000000000000000000000000000815260040161195790612b43565b60405180910390fd5b600360009054906101000a900460ff1615600360006101000a81548160ff021916908315150217905550565b600073ffffffffffffffffffffffffffffffffffffffff168373ffffffffffffffffffffffffffffffffffffffff1614156119fc576040517f08c379a00000000000000000000000000000000000000000000000000000000081526004016119f390612b83565b60405180910390fd5b600073ffffffffffffffffffffffffffffffffffffffff168273ffffffffffffffffffffffffffffffffffffffff161415611a6c576040517f08c379a0000000000000000000000000000000000000000000000000000000008152600401611a6390612be3565b60405180910390fd5b7fffffffffffffffffffffffffffffffffffffffffffffffffffffffffffffffff600260008573ffffffffffffffffffffffffffffffffffffffff1673ffffffffffffffffffffffffffffffffffffffff16815260200190815260200160002060008473ffffffffffffffffffffffffffffffffffffffff1673ffffffffffffffffffffffffffffffffffffffff168152602001908152602001600020541015611bf75780600260008573ffffffffffffffffffffffffffffffffffffffff1673ffffffffffffffffffffffffffffffffffffffff16815260200190815260200160002060008473ffffffffffffffffffffffffffffffffffffffff1673ffffffffffffffffffffffffffffffffffffffff168152602001908152602001600020819055508173ffffffffffffffffffffffffffffffffffffffff168373ffffffffffffffffffffffffffffffffffffffff167f8c5be1e5ebec7d5bd14f71427d1e84f3dd0314c0f7b2291e5b200ac8c7c3b92583604051611bee9190612ca3565b60405180910390a35b505050565b600073ffffffffffffffffffffffffffffffffffffffff168373ffffffffffffffffffffffffffffffffffffffff161415611c6c576040517f08c379a0000000000000000000000000000000000000000000000000000000008152600401611c6390612b63565b60405180910390fd5b3073ffffffffffffffffffffffffffffffffffffffff168273ffffffffffffffffffffffffffffffffffffffff161415611cdb576040517f08c379a0000000000000000000000000000000000000000000000000000000008152600401611cd290612c23565b60405180910390fd5b6000600160008573ffffffffffffffffffffffffffffffffffffffff1673ffffffffffffffffffffffffffffffffffffffff16815260200190815260200160002054905081811015611d62576040517f08c379a0000000000000000000000000000000000000000000000000000000008152600401611d5990612bc3565b60405180910390fd5b6000611d6c612293565b73ffffffffffffffffffffffffffffffffffffffff1663714270ab600454856040518363ffffffff1660e01b8152600401611da8929190612cbe565b60206040518083038186803b158015611dc057600080fd5b505afa158015611dd4573d6000803e3d6000fd5b505050506040513d601f19601f82011682018060405250810190611df891906127b0565b9050828111611e1a578083611e0d9190612f81565b9250611e198582611f3a565b5b82600160008773ffffffffffffffffffffffffffffffffffffffff1673ffffffffffffffffffffffffffffffffffffffff1681526020019081526020016000206000828254611e699190612f81565b9250508190555082600160008673ffffffffffffffffffffffffffffffffffffffff1673ffffffffffffffffffffffffffffffffffffffff1681526020019081526020016000206000828254611ebf9190612d2f565b925050819055508373ffffffffffffffffffffffffffffffffffffffff168573ffffffffffffffffffffffffffffffffffffffff167fddf252ad1be2c89b69c2b068fc378daa952ba7f163c4a11628f55a4df523b3ef85604051611f239190612ca3565b60405180910390a3611f3361233a565b5050505050565b600073ffffffffffffffffffffffffffffffffffffffff168273ffffffffffffffffffffffffffffffffffffffff161415611faa576040517f08c379a0000000000000000000000000000000000000000000000000000000008152600401611fa190612c63565b60405180910390fd5b80600160008473ffffffffffffffffffffffffffffffffffffffff1673ffffffffffffffffffffffffffffffffffffffff16815260200190815260200160002054101561202c576040517f08c379a000000000000000000000000000000000000000000000000000000000815260040161202390612bc3565b60405180910390fd5b80600160008473ffffffffffffffffffffffffffffffffffffffff1673ffffffffffffffffffffffffffffffffffffffff168152602001908152602001600020600082825461207b9190612f81565b92505081905550806000808282546120939190612f81565b92505081905550600073ffffffffffffffffffffffffffffffffffffffff168273ffffffffffffffffffffffffffffffffffffffff167fddf252ad1be2c89b69c2b068fc378daa952ba7f163c4a11628f55a4df523b3ef836040516120f89190612ca3565b60405180910390a35050565b600073ffffffffffffffffffffffffffffffffffffffff168273ffffffffffffffffffffffffffffffffffffffff161415612174576040517f08c379a000000000000000000000000000000000000000000000000000000000815260040161216b90612c63565b60405180910390fd5b806000808282546121859190612d2f565b9250508190555060075460005411156121d3576040517f08c379a00000000000000000000000000000000000000000000000000000000081526004016121ca90612c03565b60405180910390fd5b80600160008473ffffffffffffffffffffffffffffffffffffffff1673ffffffffffffffffffffffffffffffffffffffff16815260200190815260200160002060008282546122229190612d2f565b925050819055508173ffffffffffffffffffffffffffffffffffffffff16600073ffffffffffffffffffffffffffffffffffffffff167fddf252ad1be2c89b69c2b068fc378daa952ba7f163c4a11628f55a4df523b3ef836040516122879190612ca3565b60405180910390a35050565b6000600a60009054906101000a900473ffffffffffffffffffffffffffffffffffffffff1673ffffffffffffffffffffffffffffffffffffffff16637b0e5c456040518163ffffffff1660e01b815260040160206040518083038186803b1580156122fd57600080fd5b505afa158015612311573d6000803e3d6000fd5b505050506040513d601f19601f820116820180604052508101906123359190612602565b905090565b60095442101580156123585750600360009054906101000a900460ff165b1561247d576008544261236b9190612d2f565b600981905550600061237b61181f565b905061238e61238861247f565b82612104565b612396612293565b73ffffffffffffffffffffffffffffffffffffffff16638b18b1156000546007546040518363ffffffff1660e01b81526004016123d4929190612cbe565b60206040518083038186803b1580156123ec57600080fd5b505afa158015612400573d6000803e3d6000fd5b505050506040513d601f19601f8201168201806040525081019061242491906127b0565b6004819055506101f46004541115612440576101f46004819055505b7fb46eeb115d9875d9d717a1b1dd704bc9a45fdeb55eecc9c6c4f777ffa5698fe560095482604051612473929190612cbe565b60405180910390a1505b565b6000600a60009054906101000a900473ffffffffffffffffffffffffffffffffffffffff1673ffffffffffffffffffffffffffffffffffffffff16639d2cc4366040518163ffffffff1660e01b815260040160206040518083038186803b1580156124e957600080fd5b505afa1580156124fd573d6000803e3d6000fd5b505050506040513d601f19601f820116820180604052508101906125219190612602565b905090565b6000813590506125358161328b565b92915050565b60008151905061254a8161328b565b92915050565b60008151905061255f816132a2565b92915050565b60008083601f84011261257757600080fd5b8235905067ffffffffffffffff81111561259057600080fd5b6020830191508360018202830111156125a857600080fd5b9250929050565b6000813590506125be816132b9565b92915050565b6000815190506125d3816132b9565b92915050565b6000602082840312156125eb57600080fd5b60006125f984828501612526565b91505092915050565b60006020828403121561261457600080fd5b60006126228482850161253b565b91505092915050565b6000806040838503121561263e57600080fd5b600061264c85828601612526565b925050602061265d85828601612526565b9150509250929050565b60008060006060848603121561267c57600080fd5b600061268a86828701612526565b935050602061269b86828701612526565b92505060406126ac868287016125af565b9150509250925092565b600080604083850312156126c957600080fd5b60006126d785828601612526565b92505060206126e8858286016125af565b9150509250929050565b6000806000806060858703121561270857600080fd5b600061271687828801612526565b9450506020612727878288016125af565b935050604085013567ffffffffffffffff81111561274457600080fd5b61275087828801612565565b925092505092959194509250565b60006020828403121561277057600080fd5b600061277e84828501612550565b91505092915050565b60006020828403121561279957600080fd5b60006127a7848285016125af565b91505092915050565b6000602082840312156127c257600080fd5b60006127d0848285016125c4565b91505092915050565b600080604083850312156127ec57600080fd5b60006127fa858286016125af565b925050602061280b85828601612526565b9150509250929050565b6000806040838503121561282857600080fd5b6000612836858286016125af565b9250506020612847858286016125af565b9150509250929050565b61285a81612fb5565b82525050565b61286981612fc7565b82525050565b600061287b8385612d0d565b935061288883858461300a565b612891836130aa565b840190509392505050565b60006128a782612d02565b6128b18185612d1e565b93506128c1818560208601613019565b6128ca816130aa565b840191505092915050565b60006128e2600483612d1e565b91506128ed826130c8565b602082019050919050565b6000612905600c83612d1e565b9150612910826130f1565b602082019050919050565b6000612928600683612d1e565b91506129338261311a565b602082019050919050565b600061294b600d83612d1e565b915061295682613143565b602082019050919050565b600061296e600b83612d1e565b91506129798261316c565b602082019050919050565b6000612991600783612d1e565b915061299c82613195565b602082019050919050565b60006129b4600683612d1e565b91506129bf826131be565b602082019050919050565b60006129d7600983612d1e565b91506129e2826131e7565b602082019050919050565b60006129fa600383612d1e565b9150612a0582613210565b602082019050919050565b6000612a1d600b83612d1e565b9150612a2882613239565b602082019050919050565b6000612a40600e83612d1e565b9150612a4b82613262565b602082019050919050565b612a5f81612ff3565b82525050565b612a6e81612ffd565b82525050565b6000602082019050612a896000830184612851565b92915050565b6000604082019050612aa46000830185612851565b612ab16020830184612a56565b9392505050565b6000608082019050612acd6000830188612851565b612ada6020830187612a56565b612ae76040830186612851565b8181036060830152612afa81848661286f565b90509695505050505050565b6000602082019050612b1b6000830184612860565b92915050565b60006020820190508181036000830152612b3b818461289c565b905092915050565b60006020820190508181036000830152612b5c816128d5565b9050919050565b60006020820190508181036000830152612b7c816128f8565b9050919050565b60006020820190508181036000830152612b9c8161291b565b9050919050565b60006020820190508181036000830152612bbc8161293e565b9050919050565b60006020820190508181036000830152612bdc81612961565b9050919050565b60006020820190508181036000830152612bfc81612984565b9050919050565b60006020820190508181036000830152612c1c816129a7565b9050919050565b60006020820190508181036000830152612c3c816129ca565b9050919050565b60006020820190508181036000830152612c5c816129ed565b9050919050565b60006020820190508181036000830152612c7c81612a10565b9050919050565b60006020820190508181036000830152612c9c81612a33565b9050919050565b6000602082019050612cb86000830184612a56565b92915050565b6000604082019050612cd36000830185612a56565b612ce06020830184612a56565b9392505050565b6000602082019050612cfc6000830184612a65565b92915050565b600081519050919050565b600082825260208201905092915050565b600082825260208201905092915050565b6000612d3a82612ff3565b9150612d4583612ff3565b9250827fffffffffffffffffffffffffffffffffffffffffffffffffffffffffffffffff03821115612d7a57612d7961304c565b5b828201905092915050565b6000612d9082612ff3565b9150612d9b83612ff3565b925082612dab57612daa61307b565b5b828204905092915050565b6000808291508390505b6001851115612e0057808604811115612ddc57612ddb61304c565b5b6001851615612deb5780820291505b8081029050612df9856130bb565b9450612dc0565b94509492505050565b6000612e1482612ff3565b9150612e1f83612ffd565b9250612e4c7fffffffffffffffffffffffffffffffffffffffffffffffffffffffffffffffff8484612e54565b905092915050565b600082612e645760019050612f20565b81612e725760009050612f20565b8160018114612e885760028114612e9257612ec1565b6001915050612f20565b60ff841115612ea457612ea361304c565b5b8360020a915084821115612ebb57612eba61304c565b5b50612f20565b5060208310610133831016604e8410600b8410161715612ef65782820a905083811115612ef157612ef061304c565b5b612f20565b612f038484846001612db6565b92509050818404811115612f1a57612f1961304c565b5b81810290505b9392505050565b6000612f3282612ff3565b9150612f3d83612ff3565b9250817fffffffffffffffffffffffffffffffffffffffffffffffffffffffffffffffff0483118215151615612f7657612f7561304c565b5b828202905092915050565b6000612f8c82612ff3565b9150612f9783612ff3565b925082821015612faa57612fa961304c565b5b828203905092915050565b6000612fc082612fd3565b9050919050565b60008115159050919050565b600073ffffffffffffffffffffffffffffffffffffffff82169050919050565b6000819050919050565b600060ff82169050919050565b82818337600083830152505050565b60005b8381101561303757808201518184015260208101905061301c565b83811115613046576000848401525b50505050565b7f4e487b7100000000000000000000000000000000000000000000000000000000600052601160045260246000fd5b7f4e487b7100000000000000000000000000000000000000000000000000000000600052601260045260246000fd5b6000601f19601f8301169050919050565b60008160011c9050919050565b7f2144414f00000000000000000000000000000000000000000000000000000000600082015250565b7f7472616e73666572206572720000000000000000000000000000000000000000600082015250565b7f73656e6465720000000000000000000000000000000000000000000000000000600082015250565b7f616c6c6f77616e63652065727200000000000000000000000000000000000000600082015250565b7f62616c616e636520657272000000000000000000000000000000000000000000600082015250565b7f7370656e64657200000000000000000000000000000000000000000000000000600082015250565b7f4d61787865640000000000000000000000000000000000000000000000000000600082015250565b7f726563697069656e740000000000000000000000000000000000000000000000600082015250565b7f21356d0000000000000000000000000000000000000000000000000000000000600082015250565b7f6164647265737320657272000000000000000000000000000000000000000000600082015250565b7f7370617274616e73207361766564000000000000000000000000000000000000600082015250565b61329481612fb5565b811461329f57600080fd5b50565b6132ab81612fc7565b81146132b657600080fd5b50565b6132c281612ff3565b81146132cd57600080fd5b5056fea2646970667358221220d25c48664183a10cc37936534d2a0d65ea6634dd35cf97d8c754295e221c50da64736f6c63430008030033",
  "linkReferences": {},
  "deployedLinkReferences": {}
}