{
  "_format": "hh-sol-artifact-1",
  "contractName": "Sparta",
  "sourceName": "contracts/Sparta.sol",
  "abi": [
    {
      "inputs": [
        {
          "internalType": "address",
          "name": "_baseV1",
          "type": "address"
        }
      ],
      "stateMutability": "nonpayable",
      "type": "constructor"
    },
    {
      "anonymous": false,
      "inputs": [
        {
          "indexed": true,
          "internalType": "address",
          "name": "owner",
          "type": "address"
        },
        {
          "indexed": true,
          "internalType": "address",
          "name": "spender",
          "type": "address"
        },
        {
          "indexed": false,
          "internalType": "uint256",
          "name": "value",
          "type": "uint256"
        }
      ],
      "name": "Approval",
      "type": "event"
    },
    {
      "anonymous": false,
      "inputs": [
        {
          "indexed": false,
          "internalType": "uint256",
          "name": "nextEraTime",
          "type": "uint256"
        },
        {
          "indexed": false,
          "internalType": "uint256",
          "name": "emission",
          "type": "uint256"
        }
      ],
      "name": "NewEra",
      "type": "event"
    },
    {
      "anonymous": false,
      "inputs": [
        {
          "indexed": true,
          "internalType": "address",
          "name": "from",
          "type": "address"
        },
        {
          "indexed": true,
          "internalType": "address",
          "name": "to",
          "type": "address"
        },
        {
          "indexed": false,
          "internalType": "uint256",
          "name": "value",
          "type": "uint256"
        }
      ],
      "name": "Transfer",
      "type": "event"
    },
    {
      "inputs": [],
      "name": "BASEv1",
      "outputs": [
        {
          "internalType": "address",
          "name": "",
          "type": "address"
        }
      ],
      "stateMutability": "view",
      "type": "function"
    },
    {
      "inputs": [],
      "name": "DAO",
      "outputs": [
        {
          "internalType": "address",
          "name": "",
          "type": "address"
        }
      ],
      "stateMutability": "view",
      "type": "function"
    },
    {
      "inputs": [],
      "name": "DEPLOYER",
      "outputs": [
        {
          "internalType": "address",
          "name": "",
          "type": "address"
        }
      ],
      "stateMutability": "view",
      "type": "function"
    },
    {
      "inputs": [],
      "name": "_100m",
      "outputs": [
        {
          "internalType": "uint256",
          "name": "",
          "type": "uint256"
        }
      ],
      "stateMutability": "view",
      "type": "function"
    },
    {
      "inputs": [
        {
          "internalType": "address",
          "name": "owner",
          "type": "address"
        },
        {
          "internalType": "address",
          "name": "spender",
          "type": "address"
        }
      ],
      "name": "allowance",
      "outputs": [
        {
          "internalType": "uint256",
          "name": "",
          "type": "uint256"
        }
      ],
      "stateMutability": "view",
      "type": "function"
    },
    {
      "inputs": [
        {
          "internalType": "address",
          "name": "spender",
          "type": "address"
        },
        {
          "internalType": "uint256",
          "name": "amount",
          "type": "uint256"
        }
      ],
      "name": "approve",
      "outputs": [
        {
          "internalType": "bool",
          "name": "",
          "type": "bool"
        }
      ],
      "stateMutability": "nonpayable",
      "type": "function"
    },
    {
      "inputs": [
        {
          "internalType": "address",
          "name": "recipient",
          "type": "address"
        },
        {
          "internalType": "uint256",
          "name": "amount",
          "type": "uint256"
        },
        {
          "internalType": "bytes",
          "name": "data",
          "type": "bytes"
        }
      ],
      "name": "approveAndCall",
      "outputs": [
        {
          "internalType": "bool",
          "name": "",
          "type": "bool"
        }
      ],
      "stateMutability": "nonpayable",
      "type": "function"
    },
    {
      "inputs": [
        {
          "internalType": "address",
          "name": "account",
          "type": "address"
        }
      ],
      "name": "balanceOf",
      "outputs": [
        {
          "internalType": "uint256",
          "name": "",
          "type": "uint256"
        }
      ],
      "stateMutability": "view",
      "type": "function"
    },
    {
      "inputs": [
        {
          "internalType": "uint256",
          "name": "amount",
          "type": "uint256"
        }
      ],
      "name": "burn",
      "outputs": [],
      "stateMutability": "nonpayable",
      "type": "function"
    },
    {
      "inputs": [
        {
          "internalType": "address",
          "name": "account",
          "type": "address"
        },
        {
          "internalType": "uint256",
          "name": "amount",
          "type": "uint256"
        }
      ],
      "name": "burnFrom",
      "outputs": [],
      "stateMutability": "nonpayable",
      "type": "function"
    },
    {
      "inputs": [
        {
          "internalType": "address",
          "name": "newDAO",
          "type": "address"
        }
      ],
      "name": "changeDAO",
      "outputs": [],
      "stateMutability": "nonpayable",
      "type": "function"
    },
    {
      "inputs": [
        {
          "internalType": "uint256",
          "name": "amount",
          "type": "uint256"
        },
        {
          "internalType": "address",
          "name": "recipient",
          "type": "address"
        }
      ],
      "name": "daoMint",
      "outputs": [],
      "stateMutability": "nonpayable",
      "type": "function"
    },
    {
      "inputs": [],
      "name": "decimals",
      "outputs": [
        {
          "internalType": "uint8",
          "name": "",
          "type": "uint8"
        }
      ],
      "stateMutability": "view",
      "type": "function"
    },
    {
      "inputs": [
        {
          "internalType": "address",
          "name": "spender",
          "type": "address"
        },
        {
          "internalType": "uint256",
          "name": "subtractedValue",
          "type": "uint256"
        }
      ],
      "name": "decreaseAllowance",
      "outputs": [
        {
          "internalType": "bool",
          "name": "",
          "type": "bool"
        }
      ],
      "stateMutability": "nonpayable",
      "type": "function"
    },
    {
      "inputs": [],
      "name": "emissionCurve",
      "outputs": [
        {
          "internalType": "uint256",
          "name": "",
          "type": "uint256"
        }
      ],
      "stateMutability": "view",
      "type": "function"
    },
    {
      "inputs": [],
      "name": "emitting",
      "outputs": [
        {
          "internalType": "bool",
          "name": "",
          "type": "bool"
        }
      ],
      "stateMutability": "view",
      "type": "function"
    },
    {
      "inputs": [],
      "name": "feeOnTransfer",
      "outputs": [
        {
          "internalType": "uint256",
          "name": "",
          "type": "uint256"
        }
      ],
      "stateMutability": "view",
      "type": "function"
    },
    {
      "inputs": [],
      "name": "flipEmissions",
      "outputs": [],
      "stateMutability": "nonpayable",
      "type": "function"
    },
    {
      "inputs": [],
      "name": "flipMinting",
      "outputs": [],
      "stateMutability": "nonpayable",
      "type": "function"
    },
    {
      "inputs": [],
      "name": "getDailyEmission",
      "outputs": [
        {
          "internalType": "uint256",
          "name": "",
          "type": "uint256"
        }
      ],
      "stateMutability": "view",
      "type": "function"
    },
    {
      "inputs": [
        {
          "internalType": "address",
          "name": "spender",
          "type": "address"
        },
        {
          "internalType": "uint256",
          "name": "addedValue",
          "type": "uint256"
        }
      ],
      "name": "increaseAllowance",
      "outputs": [
        {
          "internalType": "bool",
          "name": "",
          "type": "bool"
        }
      ],
      "stateMutability": "nonpayable",
      "type": "function"
    },
    {
      "inputs": [],
      "name": "maxSupply",
      "outputs": [
        {
          "internalType": "uint256",
          "name": "",
          "type": "uint256"
        }
      ],
      "stateMutability": "view",
      "type": "function"
    },
    {
      "inputs": [],
      "name": "minting",
      "outputs": [
        {
          "internalType": "bool",
          "name": "",
          "type": "bool"
        }
      ],
      "stateMutability": "view",
      "type": "function"
    },
    {
      "inputs": [],
      "name": "name",
      "outputs": [
        {
          "internalType": "string",
          "name": "",
          "type": "string"
        }
      ],
      "stateMutability": "view",
      "type": "function"
    },
    {
      "inputs": [],
      "name": "nextEraTime",
      "outputs": [
        {
          "internalType": "uint256",
          "name": "",
          "type": "uint256"
        }
      ],
      "stateMutability": "view",
      "type": "function"
    },
    {
      "inputs": [],
      "name": "purgeDAO",
      "outputs": [],
      "stateMutability": "nonpayable",
      "type": "function"
    },
    {
      "inputs": [],
      "name": "purgeDeployer",
      "outputs": [
        {
          "internalType": "bool",
          "name": "",
          "type": "bool"
        }
      ],
      "stateMutability": "nonpayable",
      "type": "function"
    },
    {
      "inputs": [
        {
          "internalType": "address",
          "name": "_savedSpartans",
          "type": "address"
        },
        {
          "internalType": "uint256",
          "name": "_saveAmount",
          "type": "uint256"
        }
      ],
      "name": "saveFallenSpartans",
      "outputs": [],
      "stateMutability": "nonpayable",
      "type": "function"
    },
    {
      "inputs": [],
      "name": "savedSpartans",
      "outputs": [
        {
          "internalType": "bool",
          "name": "",
          "type": "bool"
        }
      ],
      "stateMutability": "view",
      "type": "function"
    },
    {
      "inputs": [],
      "name": "secondsPerEra",
      "outputs": [
        {
          "internalType": "uint256",
          "name": "",
          "type": "uint256"
        }
      ],
      "stateMutability": "view",
      "type": "function"
    },
    {
      "inputs": [
        {
          "internalType": "uint256",
          "name": "newTime",
          "type": "uint256"
        },
        {
          "internalType": "uint256",
          "name": "newCurve",
          "type": "uint256"
        }
      ],
      "name": "setParams",
      "outputs": [],
      "stateMutability": "nonpayable",
      "type": "function"
    },
    {
      "inputs": [],
      "name": "symbol",
      "outputs": [
        {
          "internalType": "string",
          "name": "",
          "type": "string"
        }
      ],
      "stateMutability": "view",
      "type": "function"
    },
    {
      "inputs": [],
      "name": "totalSupply",
      "outputs": [
        {
          "internalType": "uint256",
          "name": "",
          "type": "uint256"
        }
      ],
      "stateMutability": "view",
      "type": "function"
    },
    {
      "inputs": [
        {
          "internalType": "address",
          "name": "recipient",
          "type": "address"
        },
        {
          "internalType": "uint256",
          "name": "amount",
          "type": "uint256"
        }
      ],
      "name": "transfer",
      "outputs": [
        {
          "internalType": "bool",
          "name": "",
          "type": "bool"
        }
      ],
      "stateMutability": "nonpayable",
      "type": "function"
    },
    {
      "inputs": [
        {
          "internalType": "address",
          "name": "recipient",
          "type": "address"
        },
        {
          "internalType": "uint256",
          "name": "amount",
          "type": "uint256"
        },
        {
          "internalType": "bytes",
          "name": "data",
          "type": "bytes"
        }
      ],
      "name": "transferAndCall",
      "outputs": [
        {
          "internalType": "bool",
          "name": "",
          "type": "bool"
        }
      ],
      "stateMutability": "nonpayable",
      "type": "function"
    },
    {
      "inputs": [
        {
          "internalType": "address",
          "name": "sender",
          "type": "address"
        },
        {
          "internalType": "address",
          "name": "recipient",
          "type": "address"
        },
        {
          "internalType": "uint256",
          "name": "amount",
          "type": "uint256"
        }
      ],
      "name": "transferFrom",
      "outputs": [
        {
          "internalType": "bool",
          "name": "",
          "type": "bool"
        }
      ],
      "stateMutability": "nonpayable",
      "type": "function"
    },
    {
      "inputs": [],
      "name": "upgrade",
      "outputs": [],
      "stateMutability": "nonpayable",
      "type": "function"
    }
  ],
  "bytecode": "0x60806040523480156200001157600080fd5b50604051620039803803806200398083398181016040528101906200003791906200014c565b6012600a62000047919062000230565b6305f5e1006200005891906200036d565b6006819055506012600a6200006e919062000230565b6311e1a3006200007f91906200036d565b60078190555061080060058190555080600c60006101000a81548173ffffffffffffffffffffffffffffffffffffffff021916908373ffffffffffffffffffffffffffffffffffffffff160217905550600a60088190555060085442620000e7919062000178565b60098190555033600b60006101000a81548173ffffffffffffffffffffffffffffffffffffffff021916908373ffffffffffffffffffffffffffffffffffffffff160217905550506200046f565b600081519050620001468162000455565b92915050565b6000602082840312156200015f57600080fd5b60006200016f8482850162000135565b91505092915050565b6000620001858262000402565b9150620001928362000402565b9250827fffffffffffffffffffffffffffffffffffffffffffffffffffffffffffffffff03821115620001ca57620001c962000419565b5b828201905092915050565b6000808291508390505b60018511156200022757808604811115620001ff57620001fe62000419565b5b60018516156200020f5780820291505b80810290506200021f8562000448565b9450620001df565b94509492505050565b60006200023d8262000402565b91506200024a836200040c565b9250620002797fffffffffffffffffffffffffffffffffffffffffffffffffffffffffffffffff848462000281565b905092915050565b60008262000293576001905062000366565b81620002a3576000905062000366565b8160018114620002bc5760028114620002c757620002fd565b600191505062000366565b60ff841115620002dc57620002db62000419565b5b8360020a915084821115620002f657620002f562000419565b5b5062000366565b5060208310610133831016604e8410600b8410161715620003375782820a90508381111562000331576200033062000419565b5b62000366565b620003468484846001620001d5565b9250905081840481111562000360576200035f62000419565b5b81810290505b9392505050565b60006200037a8262000402565b9150620003878362000402565b9250817fffffffffffffffffffffffffffffffffffffffffffffffffffffffffffffffff0483118215151615620003c357620003c262000419565b5b828202905092915050565b6000620003db82620003e2565b9050919050565b600073ffffffffffffffffffffffffffffffffffffffff82169050919050565b6000819050919050565b600060ff82169050919050565b7f4e487b7100000000000000000000000000000000000000000000000000000000600052601160045260246000fd5b60008160011c9050919050565b6200046081620003ce565b81146200046c57600080fd5b50565b613501806200047f6000396000f3fe608060405234801561001057600080fd5b50600436106102275760003560e01c806370a0823111610130578063a9059cbb116100b8578063d55ec6971161007c578063d55ec69714610648578063d5abeb0114610652578063dd62ed3e14610670578063f293e675146106a0578063fe1fa8fa146106be57610227565b8063a9059cbb146105a4578063c0324c77146105d4578063c1b8411a146105f0578063c91b6b461461060e578063cae9ca511461061857610227565b806398fabd3a116100ff57806398fabd3a146104fe5780639a67759b1461051c5780639bdd257c1461053a578063a457c2d714610558578063a59f170c1461058857610227565b806370a082311461047657806379cc6790146104a65780637dc2268c146104c257806395d89b41146104e057610227565b80632deaa116116101b35780634000aea0116101825780634000aea0146103d0578063405b65871461040057806342966c681461041e57806358e4b9341461043a5780636b92a3b61461045857610227565b80632deaa1161461035c578063313ce5671461036657806339509351146103845780633ccafe23146103b457610227565b8063095ea7b3116101fa578063095ea7b3146102a45780630fa1eeab146102d457806318160ddd146102f25780631d007f5f1461031057806323b872dd1461032c57610227565b806303a821381461022c57806306fdde031461024a5780630781f4d214610268578063090bbb0114610286575b600080fd5b6102346106c8565b6040516102419190612cd1565b60405180910390f35b6102526107fb565b60405161025f9190612cec565b60405180910390f35b610270610834565b60405161027d9190612cd1565b60405180910390f35b61028e610847565b60405161029b9190612e9e565b60405180910390f35b6102be60048036038101906102b99190612881565b61084d565b6040516102cb9190612cd1565b60405180910390f35b6102dc610864565b6040516102e99190612e9e565b60405180910390f35b6102fa61086a565b6040516103079190612e9e565b60405180910390f35b61032a600480360381019061032591906127a4565b610870565b005b61034660048036038101906103419190612832565b610a0c565b6040516103539190612cd1565b60405180910390f35b610364610ba4565b005b61036e610cb8565b60405161037b9190612ee2565b60405180910390f35b61039e60048036038101906103999190612881565b610cbd565b6040516103ab9190612cd1565b60405180910390f35b6103ce60048036038101906103c991906129a4565b610d5b565b005b6103ea60048036038101906103e591906128bd565b610eef565b6040516103f79190612cd1565b60405180910390f35b610408610f7b565b6040516104159190612e9e565b60405180910390f35b61043860048036038101906104339190612952565b610f81565b005b610442610f8e565b60405161044f9190612c3f565b60405180910390f35b610460610fb4565b60405161046d9190612e9e565b60405180910390f35b610490600480360381019061048b91906127a4565b610fba565b60405161049d9190612e9e565b60405180910390f35b6104c060048036038101906104bb9190612881565b611003565b005b6104ca611036565b6040516104d79190612cd1565b60405180910390f35b6104e8611049565b6040516104f59190612cec565b60405180910390f35b610506611082565b6040516105139190612c3f565b60405180910390f35b6105246110a8565b6040516105319190612e9e565b60405180910390f35b6105426110ae565b60405161054f9190612cd1565b60405180910390f35b610572600480360381019061056d9190612881565b6110c1565b60405161057f9190612cd1565b60405180910390f35b6105a2600480360381019061059d9190612881565b6111a7565b005b6105be60048036038101906105b99190612881565b611308565b6040516105cb9190612cd1565b60405180910390f35b6105ee60048036038101906105e991906129e0565b61131f565b005b6105f8611419565b6040516106059190612c3f565b60405180910390f35b61061661143f565b005b610632600480360381019061062d91906128bd565b61156b565b60405161063f9190612cd1565b60405180910390f35b610650611617565b005b61065a611818565b6040516106679190612e9e565b60405180910390f35b61068a600480360381019061068591906127f6565b61181e565b6040516106979190612e9e565b60405180910390f35b6106a86118a5565b6040516106b59190612e9e565b60405180910390f35b6106c66118fe565b005b6000600a60009054906101000a900473ffffffffffffffffffffffffffffffffffffffff1673ffffffffffffffffffffffffffffffffffffffff163373ffffffffffffffffffffffffffffffffffffffff1614806107735750600b60009054906101000a900473ffffffffffffffffffffffffffffffffffffffff1673ffffffffffffffffffffffffffffffffffffffff163373ffffffffffffffffffffffffffffffffffffffff16145b6107b2576040517f08c379a00000000000000000000000000000000000000000000000000000000081526004016107a990612d3e565b60405180910390fd5b6000600b60006101000a81548173ffffffffffffffffffffffffffffffffffffffff021916908373ffffffffffffffffffffffffffffffffffffffff1602179055506001905090565b6040518060400160405280601981526020017f5370617274616e2050726f746f636f6c20546f6b656e2056320000000000000081525081565b600360009054906101000a900460ff1681565b60095481565b600061085a338484611a12565b6001905092915050565b60045481565b60005481565b600a60009054906101000a900473ffffffffffffffffffffffffffffffffffffffff1673ffffffffffffffffffffffffffffffffffffffff163373ffffffffffffffffffffffffffffffffffffffff1614806109195750600b60009054906101000a900473ffffffffffffffffffffffffffffffffffffffff1673ffffffffffffffffffffffffffffffffffffffff163373ffffffffffffffffffffffffffffffffffffffff16145b610958576040517f08c379a000000000000000000000000000000000000000000000000000000000815260040161094f90612d3e565b60405180910390fd5b600073ffffffffffffffffffffffffffffffffffffffff168173ffffffffffffffffffffffffffffffffffffffff1614156109c8576040517f08c379a00000000000000000000000000000000000000000000000000000000081526004016109bf90612e5e565b60405180910390fd5b80600a60006101000a81548173ffffffffffffffffffffffffffffffffffffffff021916908373ffffffffffffffffffffffffffffffffffffffff16021790555050565b6000610a19848484611c82565b7fffffffffffffffffffffffffffffffffffffffffffffffffffffffffffffffff600260008673ffffffffffffffffffffffffffffffffffffffff1673ffffffffffffffffffffffffffffffffffffffff16815260200190815260200160002060003373ffffffffffffffffffffffffffffffffffffffff1673ffffffffffffffffffffffffffffffffffffffff168152602001908152602001600020541015610b99576000600260008673ffffffffffffffffffffffffffffffffffffffff1673ffffffffffffffffffffffffffffffffffffffff16815260200190815260200160002060003373ffffffffffffffffffffffffffffffffffffffff1673ffffffffffffffffffffffffffffffffffffffff16815260200190815260200160002054905082811015610b81576040517f08c379a0000000000000000000000000000000000000000000000000000000008152600401610b7890612d9e565b60405180910390fd5b610b9785338584610b92919061317c565b611a12565b505b600190509392505050565b600a60009054906101000a900473ffffffffffffffffffffffffffffffffffffffff1673ffffffffffffffffffffffffffffffffffffffff163373ffffffffffffffffffffffffffffffffffffffff161480610c4d5750600b60009054906101000a900473ffffffffffffffffffffffffffffffffffffffff1673ffffffffffffffffffffffffffffffffffffffff163373ffffffffffffffffffffffffffffffffffffffff16145b610c8c576040517f08c379a0000000000000000000000000000000000000000000000000000000008152600401610c8390612d3e565b60405180910390fd5b600360019054906101000a900460ff1615600360016101000a81548160ff021916908315150217905550565b601281565b6000610d51338484600260003373ffffffffffffffffffffffffffffffffffffffff1673ffffffffffffffffffffffffffffffffffffffff16815260200190815260200160002060008873ffffffffffffffffffffffffffffffffffffffff1673ffffffffffffffffffffffffffffffffffffffff16815260200190815260200160002054610d4c9190612f2a565b611a12565b6001905092915050565b600a60009054906101000a900473ffffffffffffffffffffffffffffffffffffffff1673ffffffffffffffffffffffffffffffffffffffff163373ffffffffffffffffffffffffffffffffffffffff161480610e045750600b60009054906101000a900473ffffffffffffffffffffffffffffffffffffffff1673ffffffffffffffffffffffffffffffffffffffff163373ffffffffffffffffffffffffffffffffffffffff16145b610e43576040517f08c379a0000000000000000000000000000000000000000000000000000000008152600401610e3a90612d3e565b60405180910390fd5b6012600a610e519190613004565b624c4b40610e5f9190613122565b821115610ea1576040517f08c379a0000000000000000000000000000000000000000000000000000000008152600401610e9890612e3e565b60405180910390fd5b600360019054906101000a900460ff168015610edb57506012600a610ec69190613004565b6308f0d180610ed59190613122565b60005411155b15610eeb57610eea8183611fc0565b5b5050565b6000610efc338686611c82565b8473ffffffffffffffffffffffffffffffffffffffff1663cf4d253530863387876040518663ffffffff1660e01b8152600401610f3d959493929190612c83565b600060405180830381600087803b158015610f5757600080fd5b505af1158015610f6b573d6000803e3d6000fd5b5050505060019050949350505050565b60065481565b610f8b338261214f565b50565b600c60009054906101000a900473ffffffffffffffffffffffffffffffffffffffff1681565b60085481565b6000600160008373ffffffffffffffffffffffffffffffffffffffff1673ffffffffffffffffffffffffffffffffffffffff168152602001908152602001600020549050919050565b600081611010843361181e565b61101a919061317c565b9050611027833383611a12565b611031838361214f565b505050565b600360019054906101000a900460ff1681565b6040518060400160405280600681526020017f535041525441000000000000000000000000000000000000000000000000000081525081565b600a60009054906101000a900473ffffffffffffffffffffffffffffffffffffffff1681565b60055481565b600360029054906101000a900460ff1681565b600080600260003373ffffffffffffffffffffffffffffffffffffffff1673ffffffffffffffffffffffffffffffffffffffff16815260200190815260200160002060008573ffffffffffffffffffffffffffffffffffffffff1673ffffffffffffffffffffffffffffffffffffffff16815260200190815260200160002054905082811015611186576040517f08c379a000000000000000000000000000000000000000000000000000000000815260040161117d90612d9e565b60405180910390fd5b61119c33858584611197919061317c565b611a12565b600191505092915050565b600a60009054906101000a900473ffffffffffffffffffffffffffffffffffffffff1673ffffffffffffffffffffffffffffffffffffffff163373ffffffffffffffffffffffffffffffffffffffff1614806112505750600b60009054906101000a900473ffffffffffffffffffffffffffffffffffffffff1673ffffffffffffffffffffffffffffffffffffffff163373ffffffffffffffffffffffffffffffffffffffff16145b61128f576040517f08c379a000000000000000000000000000000000000000000000000000000000815260040161128690612d3e565b60405180910390fd5b600360029054906101000a900460ff16156112df576040517f08c379a00000000000000000000000000000000000000000000000000000000081526004016112d690612e7e565b60405180910390fd5b6001600360026101000a81548160ff0219169083151502179055506113048282611fc0565b5050565b6000611315338484611c82565b6001905092915050565b600a60009054906101000a900473ffffffffffffffffffffffffffffffffffffffff1673ffffffffffffffffffffffffffffffffffffffff163373ffffffffffffffffffffffffffffffffffffffff1614806113c85750600b60009054906101000a900473ffffffffffffffffffffffffffffffffffffffff1673ffffffffffffffffffffffffffffffffffffffff163373ffffffffffffffffffffffffffffffffffffffff16145b611407576040517f08c379a00000000000000000000000000000000000000000000000000000000081526004016113fe90612d3e565b60405180910390fd5b81600881905550806005819055505050565b600b60009054906101000a900473ffffffffffffffffffffffffffffffffffffffff1681565b600a60009054906101000a900473ffffffffffffffffffffffffffffffffffffffff1673ffffffffffffffffffffffffffffffffffffffff163373ffffffffffffffffffffffffffffffffffffffff1614806114e85750600b60009054906101000a900473ffffffffffffffffffffffffffffffffffffffff1673ffffffffffffffffffffffffffffffffffffffff163373ffffffffffffffffffffffffffffffffffffffff16145b611527576040517f08c379a000000000000000000000000000000000000000000000000000000000815260040161151e90612d3e565b60405180910390fd5b6000600a60006101000a81548173ffffffffffffffffffffffffffffffffffffffff021916908373ffffffffffffffffffffffffffffffffffffffff160217905550565b600061159833867fffffffffffffffffffffffffffffffffffffffffffffffffffffffffffffffff611a12565b8473ffffffffffffffffffffffffffffffffffffffff16631ac562a730863387876040518663ffffffff1660e01b81526004016115d9959493929190612c83565b600060405180830381600087803b1580156115f357600080fd5b505af1158015611607573d6000803e3d6000fd5b5050505060019050949350505050565b6000600c60009054906101000a900473ffffffffffffffffffffffffffffffffffffffff1673ffffffffffffffffffffffffffffffffffffffff166370a08231336040518263ffffffff1660e01b81526004016116749190612c3f565b60206040518083038186803b15801561168c57600080fd5b505afa1580156116a0573d6000803e3d6000fd5b505050506040513d601f19601f820116820180604052508101906116c4919061297b565b9050600c60009054906101000a900473ffffffffffffffffffffffffffffffffffffffff1673ffffffffffffffffffffffffffffffffffffffff16632ccb1b3030836040518363ffffffff1660e01b8152600401611723929190612c5a565b602060405180830381600087803b15801561173d57600080fd5b505af1158015611751573d6000803e3d6000fd5b505050506040513d601f19601f820116820180604052508101906117759190612929565b61177e57600080fd5b600c60009054906101000a900473ffffffffffffffffffffffffffffffffffffffff1673ffffffffffffffffffffffffffffffffffffffff166342966c68826040518263ffffffff1660e01b81526004016117d99190612e9e565b600060405180830381600087803b1580156117f357600080fd5b505af1158015611807573d6000803e3d6000fd5b505050506118153382611fc0565b50565b60075481565b6000600260008473ffffffffffffffffffffffffffffffffffffffff1673ffffffffffffffffffffffffffffffffffffffff16815260200190815260200160002060008373ffffffffffffffffffffffffffffffffffffffff1673ffffffffffffffffffffffffffffffffffffffff16815260200190815260200160002054905092915050565b600080600654600054116118d7576006546000546007546118c69190613122565b6118d09190612f80565b90506118dd565b60075490505b600554600054826118ee919061317c565b6118f89190612f80565b91505090565b600a60009054906101000a900473ffffffffffffffffffffffffffffffffffffffff1673ffffffffffffffffffffffffffffffffffffffff163373ffffffffffffffffffffffffffffffffffffffff1614806119a75750600b60009054906101000a900473ffffffffffffffffffffffffffffffffffffffff1673ffffffffffffffffffffffffffffffffffffffff163373ffffffffffffffffffffffffffffffffffffffff16145b6119e6576040517f08c379a00000000000000000000000000000000000000000000000000000000081526004016119dd90612d3e565b60405180910390fd5b600360009054906101000a900460ff1615600360006101000a81548160ff021916908315150217905550565b600073ffffffffffffffffffffffffffffffffffffffff168373ffffffffffffffffffffffffffffffffffffffff161415611a82576040517f08c379a0000000000000000000000000000000000000000000000000000000008152600401611a7990612d7e565b60405180910390fd5b600073ffffffffffffffffffffffffffffffffffffffff168273ffffffffffffffffffffffffffffffffffffffff161415611af2576040517f08c379a0000000000000000000000000000000000000000000000000000000008152600401611ae990612dde565b60405180910390fd5b7fffffffffffffffffffffffffffffffffffffffffffffffffffffffffffffffff600260008573ffffffffffffffffffffffffffffffffffffffff1673ffffffffffffffffffffffffffffffffffffffff16815260200190815260200160002060008473ffffffffffffffffffffffffffffffffffffffff1673ffffffffffffffffffffffffffffffffffffffff168152602001908152602001600020541015611c7d5780600260008573ffffffffffffffffffffffffffffffffffffffff1673ffffffffffffffffffffffffffffffffffffffff16815260200190815260200160002060008473ffffffffffffffffffffffffffffffffffffffff1673ffffffffffffffffffffffffffffffffffffffff168152602001908152602001600020819055508173ffffffffffffffffffffffffffffffffffffffff168373ffffffffffffffffffffffffffffffffffffffff167f8c5be1e5ebec7d5bd14f71427d1e84f3dd0314c0f7b2291e5b200ac8c7c3b92583604051611c749190612e9e565b60405180910390a35b505050565b600073ffffffffffffffffffffffffffffffffffffffff168373ffffffffffffffffffffffffffffffffffffffff161415611cf2576040517f08c379a0000000000000000000000000000000000000000000000000000000008152600401611ce990612d5e565b60405180910390fd5b3073ffffffffffffffffffffffffffffffffffffffff168273ffffffffffffffffffffffffffffffffffffffff161415611d61576040517f08c379a0000000000000000000000000000000000000000000000000000000008152600401611d5890612e1e565b60405180910390fd5b6000600160008573ffffffffffffffffffffffffffffffffffffffff1673ffffffffffffffffffffffffffffffffffffffff16815260200190815260200160002054905081811015611de8576040517f08c379a0000000000000000000000000000000000000000000000000000000008152600401611ddf90612dbe565b60405180910390fd5b6000611df2612319565b73ffffffffffffffffffffffffffffffffffffffff1663714270ab600454856040518363ffffffff1660e01b8152600401611e2e929190612eb9565b60206040518083038186803b158015611e4657600080fd5b505afa158015611e5a573d6000803e3d6000fd5b505050506040513d601f19601f82011682018060405250810190611e7e919061297b565b9050828111611ea0578083611e93919061317c565b9250611e9f858261214f565b5b82600160008773ffffffffffffffffffffffffffffffffffffffff1673ffffffffffffffffffffffffffffffffffffffff1681526020019081526020016000206000828254611eef919061317c565b9250508190555082600160008673ffffffffffffffffffffffffffffffffffffffff1673ffffffffffffffffffffffffffffffffffffffff1681526020019081526020016000206000828254611f459190612f2a565b925050819055508373ffffffffffffffffffffffffffffffffffffffff168573ffffffffffffffffffffffffffffffffffffffff167fddf252ad1be2c89b69c2b068fc378daa952ba7f163c4a11628f55a4df523b3ef85604051611fa99190612e9e565b60405180910390a3611fb96123c0565b5050505050565b600073ffffffffffffffffffffffffffffffffffffffff168273ffffffffffffffffffffffffffffffffffffffff161415612030576040517f08c379a000000000000000000000000000000000000000000000000000000000815260040161202790612e5e565b60405180910390fd5b806000808282546120419190612f2a565b92505081905550600754600054111561208f576040517f08c379a000000000000000000000000000000000000000000000000000000000815260040161208690612dfe565b60405180910390fd5b80600160008473ffffffffffffffffffffffffffffffffffffffff1673ffffffffffffffffffffffffffffffffffffffff16815260200190815260200160002060008282546120de9190612f2a565b925050819055508173ffffffffffffffffffffffffffffffffffffffff16600073ffffffffffffffffffffffffffffffffffffffff167fddf252ad1be2c89b69c2b068fc378daa952ba7f163c4a11628f55a4df523b3ef836040516121439190612e9e565b60405180910390a35050565b600073ffffffffffffffffffffffffffffffffffffffff168273ffffffffffffffffffffffffffffffffffffffff1614156121bf576040517f08c379a00000000000000000000000000000000000000000000000000000000081526004016121b690612e5e565b60405180910390fd5b80600160008473ffffffffffffffffffffffffffffffffffffffff1673ffffffffffffffffffffffffffffffffffffffff168152602001908152602001600020541015612241576040517f08c379a000000000000000000000000000000000000000000000000000000000815260040161223890612dbe565b60405180910390fd5b80600160008473ffffffffffffffffffffffffffffffffffffffff1673ffffffffffffffffffffffffffffffffffffffff1681526020019081526020016000206000828254612290919061317c565b92505081905550806000808282546122a8919061317c565b92505081905550600073ffffffffffffffffffffffffffffffffffffffff168273ffffffffffffffffffffffffffffffffffffffff167fddf252ad1be2c89b69c2b068fc378daa952ba7f163c4a11628f55a4df523b3ef8360405161230d9190612e9e565b60405180910390a35050565b6000600a60009054906101000a900473ffffffffffffffffffffffffffffffffffffffff1673ffffffffffffffffffffffffffffffffffffffff16637b0e5c456040518163ffffffff1660e01b815260040160206040518083038186803b15801561238357600080fd5b505afa158015612397573d6000803e3d6000fd5b505050506040513d601f19601f820116820180604052508101906123bb91906127cd565b905090565b60095442101580156123de5750600360009054906101000a900460ff165b1561258357600854426123f19190612f2a565b60098190555060006124016118a5565b905061241461240e612585565b82611fc0565b6124536040518060400160405280600d81526020017f696e742d5f656d697373696f6e000000000000000000000000000000000000008152508261262c565b6124946040518060400160405280601081526020017f696e742d746f74616c537570706c79200000000000000000000000000000000081525060005461262c565b61249c612319565b73ffffffffffffffffffffffffffffffffffffffff16638b18b1156000546007546040518363ffffffff1660e01b81526004016124da929190612eb9565b60206040518083038186803b1580156124f257600080fd5b505afa158015612506573d6000803e3d6000fd5b505050506040513d601f19601f8201168201806040525081019061252a919061297b565b6004819055506103e86004541115612546576103e86004819055505b7fb46eeb115d9875d9d717a1b1dd704bc9a45fdeb55eecc9c6c4f777ffa5698fe560095482604051612579929190612eb9565b60405180910390a1505b565b6000600a60009054906101000a900473ffffffffffffffffffffffffffffffffffffffff1673ffffffffffffffffffffffffffffffffffffffff16639d2cc4366040518163ffffffff1660e01b815260040160206040518083038186803b1580156125ef57600080fd5b505afa158015612603573d6000803e3d6000fd5b505050506040513d601f19601f8201168201806040525081019061262791906127cd565b905090565b6126c48282604051602401612642929190612d0e565b6040516020818303038152906040527f9710a9d0000000000000000000000000000000000000000000000000000000007bffffffffffffffffffffffffffffffffffffffffffffffffffffffff19166020820180517bffffffffffffffffffffffffffffffffffffffffffffffffffffffff83818316178352505050506126c8565b5050565b60008151905060006a636f6e736f6c652e6c6f679050602083016000808483855afa5050505050565b60008135905061270081613486565b92915050565b60008151905061271581613486565b92915050565b60008151905061272a8161349d565b92915050565b60008083601f84011261274257600080fd5b8235905067ffffffffffffffff81111561275b57600080fd5b60208301915083600182028301111561277357600080fd5b9250929050565b600081359050612789816134b4565b92915050565b60008151905061279e816134b4565b92915050565b6000602082840312156127b657600080fd5b60006127c4848285016126f1565b91505092915050565b6000602082840312156127df57600080fd5b60006127ed84828501612706565b91505092915050565b6000806040838503121561280957600080fd5b6000612817858286016126f1565b9250506020612828858286016126f1565b9150509250929050565b60008060006060848603121561284757600080fd5b6000612855868287016126f1565b9350506020612866868287016126f1565b92505060406128778682870161277a565b9150509250925092565b6000806040838503121561289457600080fd5b60006128a2858286016126f1565b92505060206128b38582860161277a565b9150509250929050565b600080600080606085870312156128d357600080fd5b60006128e1878288016126f1565b94505060206128f28782880161277a565b935050604085013567ffffffffffffffff81111561290f57600080fd5b61291b87828801612730565b925092505092959194509250565b60006020828403121561293b57600080fd5b60006129498482850161271b565b91505092915050565b60006020828403121561296457600080fd5b60006129728482850161277a565b91505092915050565b60006020828403121561298d57600080fd5b600061299b8482850161278f565b91505092915050565b600080604083850312156129b757600080fd5b60006129c58582860161277a565b92505060206129d6858286016126f1565b9150509250929050565b600080604083850312156129f357600080fd5b6000612a018582860161277a565b9250506020612a128582860161277a565b9150509250929050565b612a25816131b0565b82525050565b612a34816131c2565b82525050565b6000612a468385612f08565b9350612a53838584613205565b612a5c836132a5565b840190509392505050565b6000612a7282612efd565b612a7c8185612f19565b9350612a8c818560208601613214565b612a95816132a5565b840191505092915050565b6000612aad600483612f19565b9150612ab8826132c3565b602082019050919050565b6000612ad0600c83612f19565b9150612adb826132ec565b602082019050919050565b6000612af3600683612f19565b9150612afe82613315565b602082019050919050565b6000612b16600d83612f19565b9150612b218261333e565b602082019050919050565b6000612b39600b83612f19565b9150612b4482613367565b602082019050919050565b6000612b5c600783612f19565b9150612b6782613390565b602082019050919050565b6000612b7f600683612f19565b9150612b8a826133b9565b602082019050919050565b6000612ba2600983612f19565b9150612bad826133e2565b602082019050919050565b6000612bc5600383612f19565b9150612bd08261340b565b602082019050919050565b6000612be8600b83612f19565b9150612bf382613434565b602082019050919050565b6000612c0b600e83612f19565b9150612c168261345d565b602082019050919050565b612c2a816131ee565b82525050565b612c39816131f8565b82525050565b6000602082019050612c546000830184612a1c565b92915050565b6000604082019050612c6f6000830185612a1c565b612c7c6020830184612c21565b9392505050565b6000608082019050612c986000830188612a1c565b612ca56020830187612c21565b612cb26040830186612a1c565b8181036060830152612cc5818486612a3a565b90509695505050505050565b6000602082019050612ce66000830184612a2b565b92915050565b60006020820190508181036000830152612d068184612a67565b905092915050565b60006040820190508181036000830152612d288185612a67565b9050612d376020830184612c21565b9392505050565b60006020820190508181036000830152612d5781612aa0565b9050919050565b60006020820190508181036000830152612d7781612ac3565b9050919050565b60006020820190508181036000830152612d9781612ae6565b9050919050565b60006020820190508181036000830152612db781612b09565b9050919050565b60006020820190508181036000830152612dd781612b2c565b9050919050565b60006020820190508181036000830152612df781612b4f565b9050919050565b60006020820190508181036000830152612e1781612b72565b9050919050565b60006020820190508181036000830152612e3781612b95565b9050919050565b60006020820190508181036000830152612e5781612bb8565b9050919050565b60006020820190508181036000830152612e7781612bdb565b9050919050565b60006020820190508181036000830152612e9781612bfe565b9050919050565b6000602082019050612eb36000830184612c21565b92915050565b6000604082019050612ece6000830185612c21565b612edb6020830184612c21565b9392505050565b6000602082019050612ef76000830184612c30565b92915050565b600081519050919050565b600082825260208201905092915050565b600082825260208201905092915050565b6000612f35826131ee565b9150612f40836131ee565b9250827fffffffffffffffffffffffffffffffffffffffffffffffffffffffffffffffff03821115612f7557612f74613247565b5b828201905092915050565b6000612f8b826131ee565b9150612f96836131ee565b925082612fa657612fa5613276565b5b828204905092915050565b6000808291508390505b6001851115612ffb57808604811115612fd757612fd6613247565b5b6001851615612fe65780820291505b8081029050612ff4856132b6565b9450612fbb565b94509492505050565b600061300f826131ee565b915061301a836131f8565b92506130477fffffffffffffffffffffffffffffffffffffffffffffffffffffffffffffffff848461304f565b905092915050565b60008261305f576001905061311b565b8161306d576000905061311b565b8160018114613083576002811461308d576130bc565b600191505061311b565b60ff84111561309f5761309e613247565b5b8360020a9150848211156130b6576130b5613247565b5b5061311b565b5060208310610133831016604e8410600b84101617156130f15782820a9050838111156130ec576130eb613247565b5b61311b565b6130fe8484846001612fb1565b9250905081840481111561311557613114613247565b5b81810290505b9392505050565b600061312d826131ee565b9150613138836131ee565b9250817fffffffffffffffffffffffffffffffffffffffffffffffffffffffffffffffff048311821515161561317157613170613247565b5b828202905092915050565b6000613187826131ee565b9150613192836131ee565b9250828210156131a5576131a4613247565b5b828203905092915050565b60006131bb826131ce565b9050919050565b60008115159050919050565b600073ffffffffffffffffffffffffffffffffffffffff82169050919050565b6000819050919050565b600060ff82169050919050565b82818337600083830152505050565b60005b83811015613232578082015181840152602081019050613217565b83811115613241576000848401525b50505050565b7f4e487b7100000000000000000000000000000000000000000000000000000000600052601160045260246000fd5b7f4e487b7100000000000000000000000000000000000000000000000000000000600052601260045260246000fd5b6000601f19601f8301169050919050565b60008160011c9050919050565b7f2144414f00000000000000000000000000000000000000000000000000000000600082015250565b7f7472616e73666572206572720000000000000000000000000000000000000000600082015250565b7f73656e6465720000000000000000000000000000000000000000000000000000600082015250565b7f616c6c6f77616e63652065727200000000000000000000000000000000000000600082015250565b7f62616c616e636520657272000000000000000000000000000000000000000000600082015250565b7f7370656e64657200000000000000000000000000000000000000000000000000600082015250565b7f4d61787865640000000000000000000000000000000000000000000000000000600082015250565b7f726563697069656e740000000000000000000000000000000000000000000000600082015250565b7f21356d0000000000000000000000000000000000000000000000000000000000600082015250565b7f6164647265737320657272000000000000000000000000000000000000000000600082015250565b7f7370617274616e73207361766564000000000000000000000000000000000000600082015250565b61348f816131b0565b811461349a57600080fd5b50565b6134a6816131c2565b81146134b157600080fd5b50565b6134bd816131ee565b81146134c857600080fd5b5056fea26469706673582212203fef53504f793e58a6262f75dc97490fe787c3329ab8fae140ed04aca5a3c72164736f6c63430008030033",
  "linkReferences": {},
  "deployedLinkReferences": {}
}