{
  "_format": "hh-sol-artifact-1",
  "contractName": "Sparta",
  "sourceName": "contracts/Sparta.sol",
  "abi": [
    {
      "inputs": [
        {
          "internalType": "address",
          "name": "_baseV1",
          "type": "address"
        }
      ],
      "stateMutability": "nonpayable",
      "type": "constructor"
    },
    {
      "anonymous": false,
      "inputs": [
        {
          "indexed": true,
          "internalType": "address",
          "name": "owner",
          "type": "address"
        },
        {
          "indexed": true,
          "internalType": "address",
          "name": "spender",
          "type": "address"
        },
        {
          "indexed": false,
          "internalType": "uint256",
          "name": "value",
          "type": "uint256"
        }
      ],
      "name": "Approval",
      "type": "event"
    },
    {
      "anonymous": false,
      "inputs": [
        {
          "indexed": false,
          "internalType": "uint256",
          "name": "nextEraTime",
          "type": "uint256"
        },
        {
          "indexed": false,
          "internalType": "uint256",
          "name": "emission",
          "type": "uint256"
        }
      ],
      "name": "NewEra",
      "type": "event"
    },
    {
      "anonymous": false,
      "inputs": [
        {
          "indexed": true,
          "internalType": "address",
          "name": "from",
          "type": "address"
        },
        {
          "indexed": true,
          "internalType": "address",
          "name": "to",
          "type": "address"
        },
        {
          "indexed": false,
          "internalType": "uint256",
          "name": "value",
          "type": "uint256"
        }
      ],
      "name": "Transfer",
      "type": "event"
    },
    {
      "inputs": [],
      "name": "BASEv1",
      "outputs": [
        {
          "internalType": "address",
          "name": "",
          "type": "address"
        }
      ],
      "stateMutability": "view",
      "type": "function"
    },
    {
      "inputs": [],
      "name": "DAO",
      "outputs": [
        {
          "internalType": "address",
          "name": "",
          "type": "address"
        }
      ],
      "stateMutability": "view",
      "type": "function"
    },
    {
      "inputs": [],
      "name": "DEPLOYER",
      "outputs": [
        {
          "internalType": "address",
          "name": "",
          "type": "address"
        }
      ],
      "stateMutability": "view",
      "type": "function"
    },
    {
      "inputs": [
        {
          "internalType": "address",
          "name": "owner",
          "type": "address"
        },
        {
          "internalType": "address",
          "name": "spender",
          "type": "address"
        }
      ],
      "name": "allowance",
      "outputs": [
        {
          "internalType": "uint256",
          "name": "",
          "type": "uint256"
        }
      ],
      "stateMutability": "view",
      "type": "function"
    },
    {
      "inputs": [
        {
          "internalType": "address",
          "name": "spender",
          "type": "address"
        },
        {
          "internalType": "uint256",
          "name": "amount",
          "type": "uint256"
        }
      ],
      "name": "approve",
      "outputs": [
        {
          "internalType": "bool",
          "name": "",
          "type": "bool"
        }
      ],
      "stateMutability": "nonpayable",
      "type": "function"
    },
    {
      "inputs": [
        {
          "internalType": "address",
          "name": "recipient",
          "type": "address"
        },
        {
          "internalType": "uint256",
          "name": "amount",
          "type": "uint256"
        },
        {
          "internalType": "bytes",
          "name": "data",
          "type": "bytes"
        }
      ],
      "name": "approveAndCall",
      "outputs": [
        {
          "internalType": "bool",
          "name": "",
          "type": "bool"
        }
      ],
      "stateMutability": "nonpayable",
      "type": "function"
    },
    {
      "inputs": [
        {
          "internalType": "address",
          "name": "account",
          "type": "address"
        }
      ],
      "name": "balanceOf",
      "outputs": [
        {
          "internalType": "uint256",
          "name": "",
          "type": "uint256"
        }
      ],
      "stateMutability": "view",
      "type": "function"
    },
    {
      "inputs": [
        {
          "internalType": "uint256",
          "name": "amount",
          "type": "uint256"
        }
      ],
      "name": "burn",
      "outputs": [],
      "stateMutability": "nonpayable",
      "type": "function"
    },
    {
      "inputs": [
        {
          "internalType": "address",
          "name": "account",
          "type": "address"
        },
        {
          "internalType": "uint256",
          "name": "amount",
          "type": "uint256"
        }
      ],
      "name": "burnFrom",
      "outputs": [],
      "stateMutability": "nonpayable",
      "type": "function"
    },
    {
      "inputs": [
        {
          "internalType": "address",
          "name": "newDAO",
          "type": "address"
        }
      ],
      "name": "changeDAO",
      "outputs": [],
      "stateMutability": "nonpayable",
      "type": "function"
    },
    {
      "inputs": [],
      "name": "decimals",
      "outputs": [
        {
          "internalType": "uint8",
          "name": "",
          "type": "uint8"
        }
      ],
      "stateMutability": "view",
      "type": "function"
    },
    {
      "inputs": [
        {
          "internalType": "address",
          "name": "spender",
          "type": "address"
        },
        {
          "internalType": "uint256",
          "name": "subtractedValue",
          "type": "uint256"
        }
      ],
      "name": "decreaseAllowance",
      "outputs": [
        {
          "internalType": "bool",
          "name": "",
          "type": "bool"
        }
      ],
      "stateMutability": "nonpayable",
      "type": "function"
    },
    {
      "inputs": [],
      "name": "emissionCurve",
      "outputs": [
        {
          "internalType": "uint256",
          "name": "",
          "type": "uint256"
        }
      ],
      "stateMutability": "view",
      "type": "function"
    },
    {
      "inputs": [],
      "name": "emitting",
      "outputs": [
        {
          "internalType": "bool",
          "name": "",
          "type": "bool"
        }
      ],
      "stateMutability": "view",
      "type": "function"
    },
    {
      "inputs": [],
      "name": "feeOnTransfer",
      "outputs": [
        {
          "internalType": "uint256",
          "name": "",
          "type": "uint256"
        }
      ],
      "stateMutability": "view",
      "type": "function"
    },
    {
      "inputs": [],
      "name": "flipEmissions",
      "outputs": [],
      "stateMutability": "nonpayable",
      "type": "function"
    },
    {
      "inputs": [],
      "name": "flipMinting",
      "outputs": [],
      "stateMutability": "nonpayable",
      "type": "function"
    },
    {
      "inputs": [],
      "name": "getDailyEmission",
      "outputs": [
        {
          "internalType": "uint256",
          "name": "",
          "type": "uint256"
        }
      ],
      "stateMutability": "view",
      "type": "function"
    },
    {
      "inputs": [
        {
          "internalType": "address",
          "name": "spender",
          "type": "address"
        },
        {
          "internalType": "uint256",
          "name": "addedValue",
          "type": "uint256"
        }
      ],
      "name": "increaseAllowance",
      "outputs": [
        {
          "internalType": "bool",
          "name": "",
          "type": "bool"
        }
      ],
      "stateMutability": "nonpayable",
      "type": "function"
    },
    {
      "inputs": [],
      "name": "maxSupply",
      "outputs": [
        {
          "internalType": "uint256",
          "name": "",
          "type": "uint256"
        }
      ],
      "stateMutability": "view",
      "type": "function"
    },
    {
      "inputs": [
        {
          "internalType": "uint256",
          "name": "amount",
          "type": "uint256"
        },
        {
          "internalType": "address",
          "name": "recipient",
          "type": "address"
        }
      ],
      "name": "mintFromDAO",
      "outputs": [],
      "stateMutability": "nonpayable",
      "type": "function"
    },
    {
      "inputs": [],
      "name": "minting",
      "outputs": [
        {
          "internalType": "bool",
          "name": "",
          "type": "bool"
        }
      ],
      "stateMutability": "view",
      "type": "function"
    },
    {
      "inputs": [],
      "name": "name",
      "outputs": [
        {
          "internalType": "string",
          "name": "",
          "type": "string"
        }
      ],
      "stateMutability": "view",
      "type": "function"
    },
    {
      "inputs": [],
      "name": "nextEraTime",
      "outputs": [
        {
          "internalType": "uint256",
          "name": "",
          "type": "uint256"
        }
      ],
      "stateMutability": "view",
      "type": "function"
    },
    {
      "inputs": [],
      "name": "purgeDAO",
      "outputs": [],
      "stateMutability": "nonpayable",
      "type": "function"
    },
    {
      "inputs": [],
      "name": "purgeDeployer",
      "outputs": [
        {
          "internalType": "bool",
          "name": "",
          "type": "bool"
        }
      ],
      "stateMutability": "nonpayable",
      "type": "function"
    },
    {
      "inputs": [
        {
          "internalType": "address",
          "name": "_savedSpartans",
          "type": "address"
        },
        {
          "internalType": "uint256",
          "name": "_saveAmount",
          "type": "uint256"
        }
      ],
      "name": "saveFallenSpartans",
      "outputs": [],
      "stateMutability": "nonpayable",
      "type": "function"
    },
    {
      "inputs": [],
      "name": "secondsPerEra",
      "outputs": [
        {
          "internalType": "uint256",
          "name": "",
          "type": "uint256"
        }
      ],
      "stateMutability": "view",
      "type": "function"
    },
    {
      "inputs": [
        {
          "internalType": "uint256",
          "name": "newTime",
          "type": "uint256"
        },
        {
          "internalType": "uint256",
          "name": "newCurve",
          "type": "uint256"
        }
      ],
      "name": "setParams",
      "outputs": [],
      "stateMutability": "nonpayable",
      "type": "function"
    },
    {
      "inputs": [],
      "name": "symbol",
      "outputs": [
        {
          "internalType": "string",
          "name": "",
          "type": "string"
        }
      ],
      "stateMutability": "view",
      "type": "function"
    },
    {
      "inputs": [],
      "name": "totalSupply",
      "outputs": [
        {
          "internalType": "uint256",
          "name": "",
          "type": "uint256"
        }
      ],
      "stateMutability": "view",
      "type": "function"
    },
    {
      "inputs": [
        {
          "internalType": "address",
          "name": "recipient",
          "type": "address"
        },
        {
          "internalType": "uint256",
          "name": "amount",
          "type": "uint256"
        }
      ],
      "name": "transfer",
      "outputs": [
        {
          "internalType": "bool",
          "name": "",
          "type": "bool"
        }
      ],
      "stateMutability": "nonpayable",
      "type": "function"
    },
    {
      "inputs": [
        {
          "internalType": "address",
          "name": "recipient",
          "type": "address"
        },
        {
          "internalType": "uint256",
          "name": "amount",
          "type": "uint256"
        },
        {
          "internalType": "bytes",
          "name": "data",
          "type": "bytes"
        }
      ],
      "name": "transferAndCall",
      "outputs": [
        {
          "internalType": "bool",
          "name": "",
          "type": "bool"
        }
      ],
      "stateMutability": "nonpayable",
      "type": "function"
    },
    {
      "inputs": [
        {
          "internalType": "address",
          "name": "sender",
          "type": "address"
        },
        {
          "internalType": "address",
          "name": "recipient",
          "type": "address"
        },
        {
          "internalType": "uint256",
          "name": "amount",
          "type": "uint256"
        }
      ],
      "name": "transferFrom",
      "outputs": [
        {
          "internalType": "bool",
          "name": "",
          "type": "bool"
        }
      ],
      "stateMutability": "nonpayable",
      "type": "function"
    },
    {
      "inputs": [],
      "name": "upgrade",
      "outputs": [],
      "stateMutability": "nonpayable",
      "type": "function"
    }
  ],
  "bytecode": "0x60806040523480156200001157600080fd5b50604051620037a0380380620037a083398181016040528101906200003791906200014c565b6012600a62000047919062000230565b6305f5e1006200005891906200036d565b6006819055506012600a6200006e919062000230565b6311e1a3006200007f91906200036d565b60078190555061080060058190555080600c60006101000a81548173ffffffffffffffffffffffffffffffffffffffff021916908373ffffffffffffffffffffffffffffffffffffffff160217905550600a60088190555060085442620000e7919062000178565b60098190555033600b60006101000a81548173ffffffffffffffffffffffffffffffffffffffff021916908373ffffffffffffffffffffffffffffffffffffffff160217905550506200046f565b600081519050620001468162000455565b92915050565b6000602082840312156200015f57600080fd5b60006200016f8482850162000135565b91505092915050565b6000620001858262000402565b9150620001928362000402565b9250827fffffffffffffffffffffffffffffffffffffffffffffffffffffffffffffffff03821115620001ca57620001c962000419565b5b828201905092915050565b6000808291508390505b60018511156200022757808604811115620001ff57620001fe62000419565b5b60018516156200020f5780820291505b80810290506200021f8562000448565b9450620001df565b94509492505050565b60006200023d8262000402565b91506200024a836200040c565b9250620002797fffffffffffffffffffffffffffffffffffffffffffffffffffffffffffffffff848462000281565b905092915050565b60008262000293576001905062000366565b81620002a3576000905062000366565b8160018114620002bc5760028114620002c757620002fd565b600191505062000366565b60ff841115620002dc57620002db62000419565b5b8360020a915084821115620002f657620002f562000419565b5b5062000366565b5060208310610133831016604e8410600b8410161715620003375782820a90508381111562000331576200033062000419565b5b62000366565b620003468484846001620001d5565b9250905081840481111562000360576200035f62000419565b5b81810290505b9392505050565b60006200037a8262000402565b9150620003878362000402565b9250817fffffffffffffffffffffffffffffffffffffffffffffffffffffffffffffffff0483118215151615620003c357620003c262000419565b5b828202905092915050565b6000620003db82620003e2565b9050919050565b600073ffffffffffffffffffffffffffffffffffffffff82169050919050565b6000819050919050565b600060ff82169050919050565b7f4e487b7100000000000000000000000000000000000000000000000000000000600052601160045260246000fd5b60008160011c9050919050565b6200046081620003ce565b81146200046c57600080fd5b50565b613321806200047f6000396000f3fe608060405234801561001057600080fd5b50600436106102115760003560e01c806379cc679011610125578063c1b8411a116100ad578063d55ec6971161007c578063d55ec697146105f6578063d5abeb0114610600578063dd62ed3e1461061e578063f293e6751461064e578063fe1fa8fa1461066c57610211565b8063c1b8411a14610582578063c91b6b46146105a0578063cae9ca51146105aa578063d01f6fba146105da57610211565b80639a67759b116100f45780639a67759b146104cc578063a457c2d7146104ea578063a59f170c1461051a578063a9059cbb14610536578063c0324c771461056657610211565b806379cc6790146104565780637dc2268c1461047257806395d89b411461049057806398fabd3a146104ae57610211565b806323b872dd116101a85780634000aea0116101775780634000aea01461039e57806342966c68146103ce57806358e4b934146103ea5780636b92a3b61461040857806370a082311461042657610211565b806323b872dd146103165780632deaa11614610346578063313ce56714610350578063395093511461036e57610211565b8063095ea7b3116101e4578063095ea7b31461028e5780630fa1eeab146102be57806318160ddd146102dc5780631d007f5f146102fa57610211565b806303a821381461021657806306fdde03146102345780630781f4d214610252578063090bbb0114610270575b600080fd5b61021e610676565b60405161022b9190612b21565b60405180910390f35b61023c6107a9565b6040516102499190612b3c565b60405180910390f35b61025a6107e2565b6040516102679190612b21565b60405180910390f35b6102786107f5565b6040516102859190612cbe565b60405180910390f35b6102a860048036038101906102a391906126d1565b6107fb565b6040516102b59190612b21565b60405180910390f35b6102c6610812565b6040516102d39190612cbe565b60405180910390f35b6102e4610818565b6040516102f19190612cbe565b60405180910390f35b610314600480360381019061030f91906125f4565b61081e565b005b610330600480360381019061032b9190612682565b6109ba565b60405161033d9190612b21565b60405180910390f35b61034e610b52565b005b610358610c66565b6040516103659190612d02565b60405180910390f35b610388600480360381019061038391906126d1565b610c6b565b6040516103959190612b21565b60405180910390f35b6103b860048036038101906103b3919061270d565b610d09565b6040516103c59190612b21565b60405180910390f35b6103e860048036038101906103e391906127a2565b610d95565b005b6103f2610da2565b6040516103ff9190612a8f565b60405180910390f35b610410610dc8565b60405161041d9190612cbe565b60405180910390f35b610440600480360381019061043b91906125f4565b610dce565b60405161044d9190612cbe565b60405180910390f35b610470600480360381019061046b91906126d1565b610e17565b005b61047a610e4a565b6040516104879190612b21565b60405180910390f35b610498610e5d565b6040516104a59190612b3c565b60405180910390f35b6104b6610e96565b6040516104c39190612a8f565b60405180910390f35b6104d4610ebc565b6040516104e19190612cbe565b60405180910390f35b61050460048036038101906104ff91906126d1565b610ec2565b6040516105119190612b21565b60405180910390f35b610534600480360381019061052f91906126d1565b610fa8565b005b610550600480360381019061054b91906126d1565b611109565b60405161055d9190612b21565b60405180910390f35b610580600480360381019061057b9190612830565b611120565b005b61058a61121a565b6040516105979190612a8f565b60405180910390f35b6105a8611240565b005b6105c460048036038101906105bf919061270d565b61136c565b6040516105d19190612b21565b60405180910390f35b6105f460048036038101906105ef91906127f4565b611418565b005b6105fe6115ac565b005b6106086117ad565b6040516106159190612cbe565b60405180910390f35b61063860048036038101906106339190612646565b6117b3565b6040516106459190612cbe565b60405180910390f35b61065661183a565b6040516106639190612cbe565b60405180910390f35b610674611893565b005b6000600a60009054906101000a900473ffffffffffffffffffffffffffffffffffffffff1673ffffffffffffffffffffffffffffffffffffffff163373ffffffffffffffffffffffffffffffffffffffff1614806107215750600b60009054906101000a900473ffffffffffffffffffffffffffffffffffffffff1673ffffffffffffffffffffffffffffffffffffffff163373ffffffffffffffffffffffffffffffffffffffff16145b610760576040517f08c379a000000000000000000000000000000000000000000000000000000000815260040161075790612b5e565b60405180910390fd5b6000600b60006101000a81548173ffffffffffffffffffffffffffffffffffffffff021916908373ffffffffffffffffffffffffffffffffffffffff1602179055506001905090565b6040518060400160405280601981526020017f5370617274616e2050726f746f636f6c20546f6b656e2056320000000000000081525081565b600360009054906101000a900460ff1681565b60095481565b60006108083384846119a7565b6001905092915050565b60045481565b60005481565b600a60009054906101000a900473ffffffffffffffffffffffffffffffffffffffff1673ffffffffffffffffffffffffffffffffffffffff163373ffffffffffffffffffffffffffffffffffffffff1614806108c75750600b60009054906101000a900473ffffffffffffffffffffffffffffffffffffffff1673ffffffffffffffffffffffffffffffffffffffff163373ffffffffffffffffffffffffffffffffffffffff16145b610906576040517f08c379a00000000000000000000000000000000000000000000000000000000081526004016108fd90612b5e565b60405180910390fd5b600073ffffffffffffffffffffffffffffffffffffffff168173ffffffffffffffffffffffffffffffffffffffff161415610976576040517f08c379a000000000000000000000000000000000000000000000000000000000815260040161096d90612c7e565b60405180910390fd5b80600a60006101000a81548173ffffffffffffffffffffffffffffffffffffffff021916908373ffffffffffffffffffffffffffffffffffffffff16021790555050565b60006109c7848484611c17565b7fffffffffffffffffffffffffffffffffffffffffffffffffffffffffffffffff600260008673ffffffffffffffffffffffffffffffffffffffff1673ffffffffffffffffffffffffffffffffffffffff16815260200190815260200160002060003373ffffffffffffffffffffffffffffffffffffffff1673ffffffffffffffffffffffffffffffffffffffff168152602001908152602001600020541015610b47576000600260008673ffffffffffffffffffffffffffffffffffffffff1673ffffffffffffffffffffffffffffffffffffffff16815260200190815260200160002060003373ffffffffffffffffffffffffffffffffffffffff1673ffffffffffffffffffffffffffffffffffffffff16815260200190815260200160002054905082811015610b2f576040517f08c379a0000000000000000000000000000000000000000000000000000000008152600401610b2690612bbe565b60405180910390fd5b610b4585338584610b409190612f9c565b6119a7565b505b600190509392505050565b600a60009054906101000a900473ffffffffffffffffffffffffffffffffffffffff1673ffffffffffffffffffffffffffffffffffffffff163373ffffffffffffffffffffffffffffffffffffffff161480610bfb5750600b60009054906101000a900473ffffffffffffffffffffffffffffffffffffffff1673ffffffffffffffffffffffffffffffffffffffff163373ffffffffffffffffffffffffffffffffffffffff16145b610c3a576040517f08c379a0000000000000000000000000000000000000000000000000000000008152600401610c3190612b5e565b60405180910390fd5b600360019054906101000a900460ff1615600360016101000a81548160ff021916908315150217905550565b601281565b6000610cff338484600260003373ffffffffffffffffffffffffffffffffffffffff1673ffffffffffffffffffffffffffffffffffffffff16815260200190815260200160002060008873ffffffffffffffffffffffffffffffffffffffff1673ffffffffffffffffffffffffffffffffffffffff16815260200190815260200160002054610cfa9190612d4a565b6119a7565b6001905092915050565b6000610d16338686611c17565b8473ffffffffffffffffffffffffffffffffffffffff1663cf4d253530863387876040518663ffffffff1660e01b8152600401610d57959493929190612ad3565b600060405180830381600087803b158015610d7157600080fd5b505af1158015610d85573d6000803e3d6000fd5b5050505060019050949350505050565b610d9f3382611f55565b50565b600c60009054906101000a900473ffffffffffffffffffffffffffffffffffffffff1681565b60085481565b6000600160008373ffffffffffffffffffffffffffffffffffffffff1673ffffffffffffffffffffffffffffffffffffffff168152602001908152602001600020549050919050565b600081610e2484336117b3565b610e2e9190612f9c565b9050610e3b8333836119a7565b610e458383611f55565b505050565b600360019054906101000a900460ff1681565b6040518060400160405280600681526020017f535041525441000000000000000000000000000000000000000000000000000081525081565b600a60009054906101000a900473ffffffffffffffffffffffffffffffffffffffff1681565b60055481565b600080600260003373ffffffffffffffffffffffffffffffffffffffff1673ffffffffffffffffffffffffffffffffffffffff16815260200190815260200160002060008573ffffffffffffffffffffffffffffffffffffffff1673ffffffffffffffffffffffffffffffffffffffff16815260200190815260200160002054905082811015610f87576040517f08c379a0000000000000000000000000000000000000000000000000000000008152600401610f7e90612bbe565b60405180910390fd5b610f9d33858584610f989190612f9c565b6119a7565b600191505092915050565b600a60009054906101000a900473ffffffffffffffffffffffffffffffffffffffff1673ffffffffffffffffffffffffffffffffffffffff163373ffffffffffffffffffffffffffffffffffffffff1614806110515750600b60009054906101000a900473ffffffffffffffffffffffffffffffffffffffff1673ffffffffffffffffffffffffffffffffffffffff163373ffffffffffffffffffffffffffffffffffffffff16145b611090576040517f08c379a000000000000000000000000000000000000000000000000000000000815260040161108790612b5e565b60405180910390fd5b600360029054906101000a900460ff16156110e0576040517f08c379a00000000000000000000000000000000000000000000000000000000081526004016110d790612c9e565b60405180910390fd5b6001600360026101000a81548160ff021916908315150217905550611105828261211f565b5050565b6000611116338484611c17565b6001905092915050565b600a60009054906101000a900473ffffffffffffffffffffffffffffffffffffffff1673ffffffffffffffffffffffffffffffffffffffff163373ffffffffffffffffffffffffffffffffffffffff1614806111c95750600b60009054906101000a900473ffffffffffffffffffffffffffffffffffffffff1673ffffffffffffffffffffffffffffffffffffffff163373ffffffffffffffffffffffffffffffffffffffff16145b611208576040517f08c379a00000000000000000000000000000000000000000000000000000000081526004016111ff90612b5e565b60405180910390fd5b81600881905550806005819055505050565b600b60009054906101000a900473ffffffffffffffffffffffffffffffffffffffff1681565b600a60009054906101000a900473ffffffffffffffffffffffffffffffffffffffff1673ffffffffffffffffffffffffffffffffffffffff163373ffffffffffffffffffffffffffffffffffffffff1614806112e95750600b60009054906101000a900473ffffffffffffffffffffffffffffffffffffffff1673ffffffffffffffffffffffffffffffffffffffff163373ffffffffffffffffffffffffffffffffffffffff16145b611328576040517f08c379a000000000000000000000000000000000000000000000000000000000815260040161131f90612b5e565b60405180910390fd5b6000600a60006101000a81548173ffffffffffffffffffffffffffffffffffffffff021916908373ffffffffffffffffffffffffffffffffffffffff160217905550565b600061139933867fffffffffffffffffffffffffffffffffffffffffffffffffffffffffffffffff6119a7565b8473ffffffffffffffffffffffffffffffffffffffff16631ac562a730863387876040518663ffffffff1660e01b81526004016113da959493929190612ad3565b600060405180830381600087803b1580156113f457600080fd5b505af1158015611408573d6000803e3d6000fd5b5050505060019050949350505050565b600a60009054906101000a900473ffffffffffffffffffffffffffffffffffffffff1673ffffffffffffffffffffffffffffffffffffffff163373ffffffffffffffffffffffffffffffffffffffff1614806114c15750600b60009054906101000a900473ffffffffffffffffffffffffffffffffffffffff1673ffffffffffffffffffffffffffffffffffffffff163373ffffffffffffffffffffffffffffffffffffffff16145b611500576040517f08c379a00000000000000000000000000000000000000000000000000000000081526004016114f790612b5e565b60405180910390fd5b6012600a61150e9190612e24565b624c4b4061151c9190612f42565b82111561155e576040517f08c379a000000000000000000000000000000000000000000000000000000000815260040161155590612c5e565b60405180910390fd5b600360019054906101000a900460ff16801561159857506012600a6115839190612e24565b6308f0d1806115929190612f42565b60005411155b156115a8576115a7818361211f565b5b5050565b6000600c60009054906101000a900473ffffffffffffffffffffffffffffffffffffffff1673ffffffffffffffffffffffffffffffffffffffff166370a08231336040518263ffffffff1660e01b81526004016116099190612a8f565b60206040518083038186803b15801561162157600080fd5b505afa158015611635573d6000803e3d6000fd5b505050506040513d601f19601f8201168201806040525081019061165991906127cb565b9050600c60009054906101000a900473ffffffffffffffffffffffffffffffffffffffff1673ffffffffffffffffffffffffffffffffffffffff16632ccb1b3030836040518363ffffffff1660e01b81526004016116b8929190612aaa565b602060405180830381600087803b1580156116d257600080fd5b505af11580156116e6573d6000803e3d6000fd5b505050506040513d601f19601f8201168201806040525081019061170a9190612779565b61171357600080fd5b600c60009054906101000a900473ffffffffffffffffffffffffffffffffffffffff1673ffffffffffffffffffffffffffffffffffffffff166342966c68826040518263ffffffff1660e01b815260040161176e9190612cbe565b600060405180830381600087803b15801561178857600080fd5b505af115801561179c573d6000803e3d6000fd5b505050506117aa338261211f565b50565b60075481565b6000600260008473ffffffffffffffffffffffffffffffffffffffff1673ffffffffffffffffffffffffffffffffffffffff16815260200190815260200160002060008373ffffffffffffffffffffffffffffffffffffffff1673ffffffffffffffffffffffffffffffffffffffff16815260200190815260200160002054905092915050565b6000806006546000541161186c5760065460005460075461185b9190612f42565b6118659190612da0565b9050611872565b60075490505b600554600054826118839190612f9c565b61188d9190612da0565b91505090565b600a60009054906101000a900473ffffffffffffffffffffffffffffffffffffffff1673ffffffffffffffffffffffffffffffffffffffff163373ffffffffffffffffffffffffffffffffffffffff16148061193c5750600b60009054906101000a900473ffffffffffffffffffffffffffffffffffffffff1673ffffffffffffffffffffffffffffffffffffffff163373ffffffffffffffffffffffffffffffffffffffff16145b61197b576040517f08c379a000000000000000000000000000000000000000000000000000000000815260040161197290612b5e565b60405180910390fd5b600360009054906101000a900460ff1615600360006101000a81548160ff021916908315150217905550565b600073ffffffffffffffffffffffffffffffffffffffff168373ffffffffffffffffffffffffffffffffffffffff161415611a17576040517f08c379a0000000000000000000000000000000000000000000000000000000008152600401611a0e90612b9e565b60405180910390fd5b600073ffffffffffffffffffffffffffffffffffffffff168273ffffffffffffffffffffffffffffffffffffffff161415611a87576040517f08c379a0000000000000000000000000000000000000000000000000000000008152600401611a7e90612bfe565b60405180910390fd5b7fffffffffffffffffffffffffffffffffffffffffffffffffffffffffffffffff600260008573ffffffffffffffffffffffffffffffffffffffff1673ffffffffffffffffffffffffffffffffffffffff16815260200190815260200160002060008473ffffffffffffffffffffffffffffffffffffffff1673ffffffffffffffffffffffffffffffffffffffff168152602001908152602001600020541015611c125780600260008573ffffffffffffffffffffffffffffffffffffffff1673ffffffffffffffffffffffffffffffffffffffff16815260200190815260200160002060008473ffffffffffffffffffffffffffffffffffffffff1673ffffffffffffffffffffffffffffffffffffffff168152602001908152602001600020819055508173ffffffffffffffffffffffffffffffffffffffff168373ffffffffffffffffffffffffffffffffffffffff167f8c5be1e5ebec7d5bd14f71427d1e84f3dd0314c0f7b2291e5b200ac8c7c3b92583604051611c099190612cbe565b60405180910390a35b505050565b600073ffffffffffffffffffffffffffffffffffffffff168373ffffffffffffffffffffffffffffffffffffffff161415611c87576040517f08c379a0000000000000000000000000000000000000000000000000000000008152600401611c7e90612b7e565b60405180910390fd5b3073ffffffffffffffffffffffffffffffffffffffff168273ffffffffffffffffffffffffffffffffffffffff161415611cf6576040517f08c379a0000000000000000000000000000000000000000000000000000000008152600401611ced90612c3e565b60405180910390fd5b6000600160008573ffffffffffffffffffffffffffffffffffffffff1673ffffffffffffffffffffffffffffffffffffffff16815260200190815260200160002054905081811015611d7d576040517f08c379a0000000000000000000000000000000000000000000000000000000008152600401611d7490612bde565b60405180910390fd5b6000611d876122ae565b73ffffffffffffffffffffffffffffffffffffffff1663714270ab600454856040518363ffffffff1660e01b8152600401611dc3929190612cd9565b60206040518083038186803b158015611ddb57600080fd5b505afa158015611def573d6000803e3d6000fd5b505050506040513d601f19601f82011682018060405250810190611e1391906127cb565b9050828111611e35578083611e289190612f9c565b9250611e348582611f55565b5b82600160008773ffffffffffffffffffffffffffffffffffffffff1673ffffffffffffffffffffffffffffffffffffffff1681526020019081526020016000206000828254611e849190612f9c565b9250508190555082600160008673ffffffffffffffffffffffffffffffffffffffff1673ffffffffffffffffffffffffffffffffffffffff1681526020019081526020016000206000828254611eda9190612d4a565b925050819055508373ffffffffffffffffffffffffffffffffffffffff168573ffffffffffffffffffffffffffffffffffffffff167fddf252ad1be2c89b69c2b068fc378daa952ba7f163c4a11628f55a4df523b3ef85604051611f3e9190612cbe565b60405180910390a3611f4e612355565b5050505050565b600073ffffffffffffffffffffffffffffffffffffffff168273ffffffffffffffffffffffffffffffffffffffff161415611fc5576040517f08c379a0000000000000000000000000000000000000000000000000000000008152600401611fbc90612c7e565b60405180910390fd5b80600160008473ffffffffffffffffffffffffffffffffffffffff1673ffffffffffffffffffffffffffffffffffffffff168152602001908152602001600020541015612047576040517f08c379a000000000000000000000000000000000000000000000000000000000815260040161203e90612bde565b60405180910390fd5b80600160008473ffffffffffffffffffffffffffffffffffffffff1673ffffffffffffffffffffffffffffffffffffffff16815260200190815260200160002060008282546120969190612f9c565b92505081905550806000808282546120ae9190612f9c565b92505081905550600073ffffffffffffffffffffffffffffffffffffffff168273ffffffffffffffffffffffffffffffffffffffff167fddf252ad1be2c89b69c2b068fc378daa952ba7f163c4a11628f55a4df523b3ef836040516121139190612cbe565b60405180910390a35050565b600073ffffffffffffffffffffffffffffffffffffffff168273ffffffffffffffffffffffffffffffffffffffff16141561218f576040517f08c379a000000000000000000000000000000000000000000000000000000000815260040161218690612c7e565b60405180910390fd5b806000808282546121a09190612d4a565b9250508190555060075460005411156121ee576040517f08c379a00000000000000000000000000000000000000000000000000000000081526004016121e590612c1e565b60405180910390fd5b80600160008473ffffffffffffffffffffffffffffffffffffffff1673ffffffffffffffffffffffffffffffffffffffff168152602001908152602001600020600082825461223d9190612d4a565b925050819055508173ffffffffffffffffffffffffffffffffffffffff16600073ffffffffffffffffffffffffffffffffffffffff167fddf252ad1be2c89b69c2b068fc378daa952ba7f163c4a11628f55a4df523b3ef836040516122a29190612cbe565b60405180910390a35050565b6000600a60009054906101000a900473ffffffffffffffffffffffffffffffffffffffff1673ffffffffffffffffffffffffffffffffffffffff16637b0e5c456040518163ffffffff1660e01b815260040160206040518083038186803b15801561231857600080fd5b505afa15801561232c573d6000803e3d6000fd5b505050506040513d601f19601f82011682018060405250810190612350919061261d565b905090565b60095442101580156123735750600360009054906101000a900460ff165b1561249857600854426123869190612d4a565b600981905550600061239661183a565b90506123a96123a361249a565b8261211f565b6123b16122ae565b73ffffffffffffffffffffffffffffffffffffffff16638b18b1156000546007546040518363ffffffff1660e01b81526004016123ef929190612cd9565b60206040518083038186803b15801561240757600080fd5b505afa15801561241b573d6000803e3d6000fd5b505050506040513d601f19601f8201168201806040525081019061243f91906127cb565b6004819055506103e8600454111561245b576103e86004819055505b7fb46eeb115d9875d9d717a1b1dd704bc9a45fdeb55eecc9c6c4f777ffa5698fe56009548260405161248e929190612cd9565b60405180910390a1505b565b6000600a60009054906101000a900473ffffffffffffffffffffffffffffffffffffffff1673ffffffffffffffffffffffffffffffffffffffff16639d2cc4366040518163ffffffff1660e01b815260040160206040518083038186803b15801561250457600080fd5b505afa158015612518573d6000803e3d6000fd5b505050506040513d601f19601f8201168201806040525081019061253c919061261d565b905090565b600081359050612550816132a6565b92915050565b600081519050612565816132a6565b92915050565b60008151905061257a816132bd565b92915050565b60008083601f84011261259257600080fd5b8235905067ffffffffffffffff8111156125ab57600080fd5b6020830191508360018202830111156125c357600080fd5b9250929050565b6000813590506125d9816132d4565b92915050565b6000815190506125ee816132d4565b92915050565b60006020828403121561260657600080fd5b600061261484828501612541565b91505092915050565b60006020828403121561262f57600080fd5b600061263d84828501612556565b91505092915050565b6000806040838503121561265957600080fd5b600061266785828601612541565b925050602061267885828601612541565b9150509250929050565b60008060006060848603121561269757600080fd5b60006126a586828701612541565b93505060206126b686828701612541565b92505060406126c7868287016125ca565b9150509250925092565b600080604083850312156126e457600080fd5b60006126f285828601612541565b9250506020612703858286016125ca565b9150509250929050565b6000806000806060858703121561272357600080fd5b600061273187828801612541565b9450506020612742878288016125ca565b935050604085013567ffffffffffffffff81111561275f57600080fd5b61276b87828801612580565b925092505092959194509250565b60006020828403121561278b57600080fd5b60006127998482850161256b565b91505092915050565b6000602082840312156127b457600080fd5b60006127c2848285016125ca565b91505092915050565b6000602082840312156127dd57600080fd5b60006127eb848285016125df565b91505092915050565b6000806040838503121561280757600080fd5b6000612815858286016125ca565b925050602061282685828601612541565b9150509250929050565b6000806040838503121561284357600080fd5b6000612851858286016125ca565b9250506020612862858286016125ca565b9150509250929050565b61287581612fd0565b82525050565b61288481612fe2565b82525050565b60006128968385612d28565b93506128a3838584613025565b6128ac836130c5565b840190509392505050565b60006128c282612d1d565b6128cc8185612d39565b93506128dc818560208601613034565b6128e5816130c5565b840191505092915050565b60006128fd600483612d39565b9150612908826130e3565b602082019050919050565b6000612920600c83612d39565b915061292b8261310c565b602082019050919050565b6000612943600683612d39565b915061294e82613135565b602082019050919050565b6000612966600d83612d39565b91506129718261315e565b602082019050919050565b6000612989600b83612d39565b915061299482613187565b602082019050919050565b60006129ac600783612d39565b91506129b7826131b0565b602082019050919050565b60006129cf600683612d39565b91506129da826131d9565b602082019050919050565b60006129f2600983612d39565b91506129fd82613202565b602082019050919050565b6000612a15600383612d39565b9150612a208261322b565b602082019050919050565b6000612a38600b83612d39565b9150612a4382613254565b602082019050919050565b6000612a5b600e83612d39565b9150612a668261327d565b602082019050919050565b612a7a8161300e565b82525050565b612a8981613018565b82525050565b6000602082019050612aa4600083018461286c565b92915050565b6000604082019050612abf600083018561286c565b612acc6020830184612a71565b9392505050565b6000608082019050612ae8600083018861286c565b612af56020830187612a71565b612b02604083018661286c565b8181036060830152612b1581848661288a565b90509695505050505050565b6000602082019050612b36600083018461287b565b92915050565b60006020820190508181036000830152612b5681846128b7565b905092915050565b60006020820190508181036000830152612b77816128f0565b9050919050565b60006020820190508181036000830152612b9781612913565b9050919050565b60006020820190508181036000830152612bb781612936565b9050919050565b60006020820190508181036000830152612bd781612959565b9050919050565b60006020820190508181036000830152612bf78161297c565b9050919050565b60006020820190508181036000830152612c178161299f565b9050919050565b60006020820190508181036000830152612c37816129c2565b9050919050565b60006020820190508181036000830152612c57816129e5565b9050919050565b60006020820190508181036000830152612c7781612a08565b9050919050565b60006020820190508181036000830152612c9781612a2b565b9050919050565b60006020820190508181036000830152612cb781612a4e565b9050919050565b6000602082019050612cd36000830184612a71565b92915050565b6000604082019050612cee6000830185612a71565b612cfb6020830184612a71565b9392505050565b6000602082019050612d176000830184612a80565b92915050565b600081519050919050565b600082825260208201905092915050565b600082825260208201905092915050565b6000612d558261300e565b9150612d608361300e565b9250827fffffffffffffffffffffffffffffffffffffffffffffffffffffffffffffffff03821115612d9557612d94613067565b5b828201905092915050565b6000612dab8261300e565b9150612db68361300e565b925082612dc657612dc5613096565b5b828204905092915050565b6000808291508390505b6001851115612e1b57808604811115612df757612df6613067565b5b6001851615612e065780820291505b8081029050612e14856130d6565b9450612ddb565b94509492505050565b6000612e2f8261300e565b9150612e3a83613018565b9250612e677fffffffffffffffffffffffffffffffffffffffffffffffffffffffffffffffff8484612e6f565b905092915050565b600082612e7f5760019050612f3b565b81612e8d5760009050612f3b565b8160018114612ea35760028114612ead57612edc565b6001915050612f3b565b60ff841115612ebf57612ebe613067565b5b8360020a915084821115612ed657612ed5613067565b5b50612f3b565b5060208310610133831016604e8410600b8410161715612f115782820a905083811115612f0c57612f0b613067565b5b612f3b565b612f1e8484846001612dd1565b92509050818404811115612f3557612f34613067565b5b81810290505b9392505050565b6000612f4d8261300e565b9150612f588361300e565b9250817fffffffffffffffffffffffffffffffffffffffffffffffffffffffffffffffff0483118215151615612f9157612f90613067565b5b828202905092915050565b6000612fa78261300e565b9150612fb28361300e565b925082821015612fc557612fc4613067565b5b828203905092915050565b6000612fdb82612fee565b9050919050565b60008115159050919050565b600073ffffffffffffffffffffffffffffffffffffffff82169050919050565b6000819050919050565b600060ff82169050919050565b82818337600083830152505050565b60005b83811015613052578082015181840152602081019050613037565b83811115613061576000848401525b50505050565b7f4e487b7100000000000000000000000000000000000000000000000000000000600052601160045260246000fd5b7f4e487b7100000000000000000000000000000000000000000000000000000000600052601260045260246000fd5b6000601f19601f8301169050919050565b60008160011c9050919050565b7f2144414f00000000000000000000000000000000000000000000000000000000600082015250565b7f7472616e73666572206572720000000000000000000000000000000000000000600082015250565b7f73656e6465720000000000000000000000000000000000000000000000000000600082015250565b7f616c6c6f77616e63652065727200000000000000000000000000000000000000600082015250565b7f62616c616e636520657272000000000000000000000000000000000000000000600082015250565b7f7370656e64657200000000000000000000000000000000000000000000000000600082015250565b7f4d61787865640000000000000000000000000000000000000000000000000000600082015250565b7f726563697069656e740000000000000000000000000000000000000000000000600082015250565b7f21356d0000000000000000000000000000000000000000000000000000000000600082015250565b7f6164647265737320657272000000000000000000000000000000000000000000600082015250565b7f7370617274616e73207361766564000000000000000000000000000000000000600082015250565b6132af81612fd0565b81146132ba57600080fd5b50565b6132c681612fe2565b81146132d157600080fd5b50565b6132dd8161300e565b81146132e857600080fd5b5056fea2646970667358221220a5b0edb2b5f7641e2342e0036aeffa66bcfb44e467132c7ec25363b3756f3f2d64736f6c63430008030033",
  "linkReferences": {},
  "deployedLinkReferences": {}
}