{
  "_format": "hh-sol-artifact-1",
  "contractName": "Sparta",
  "sourceName": "contracts/Sparta.sol",
  "abi": [
    {
      "inputs": [
        {
          "internalType": "address",
          "name": "_baseV1",
          "type": "address"
        }
      ],
      "stateMutability": "nonpayable",
      "type": "constructor"
    },
    {
      "anonymous": false,
      "inputs": [
        {
          "indexed": true,
          "internalType": "address",
          "name": "owner",
          "type": "address"
        },
        {
          "indexed": true,
          "internalType": "address",
          "name": "spender",
          "type": "address"
        },
        {
          "indexed": false,
          "internalType": "uint256",
          "name": "value",
          "type": "uint256"
        }
      ],
      "name": "Approval",
      "type": "event"
    },
    {
      "anonymous": false,
      "inputs": [
        {
          "indexed": false,
          "internalType": "uint256",
          "name": "currentEra",
          "type": "uint256"
        },
        {
          "indexed": false,
          "internalType": "uint256",
          "name": "nextEraTime",
          "type": "uint256"
        },
        {
          "indexed": false,
          "internalType": "uint256",
          "name": "emission",
          "type": "uint256"
        }
      ],
      "name": "NewEra",
      "type": "event"
    },
    {
      "anonymous": false,
      "inputs": [
        {
          "indexed": true,
          "internalType": "address",
          "name": "from",
          "type": "address"
        },
        {
          "indexed": true,
          "internalType": "address",
          "name": "to",
          "type": "address"
        },
        {
          "indexed": false,
          "internalType": "uint256",
          "name": "value",
          "type": "uint256"
        }
      ],
      "name": "Transfer",
      "type": "event"
    },
    {
      "inputs": [],
      "name": "BASEv1",
      "outputs": [
        {
          "internalType": "address",
          "name": "",
          "type": "address"
        }
      ],
      "stateMutability": "view",
      "type": "function"
    },
    {
      "inputs": [],
      "name": "DAO",
      "outputs": [
        {
          "internalType": "address",
          "name": "",
          "type": "address"
        }
      ],
      "stateMutability": "view",
      "type": "function"
    },
    {
      "inputs": [],
      "name": "DEPLOYER",
      "outputs": [
        {
          "internalType": "address",
          "name": "",
          "type": "address"
        }
      ],
      "stateMutability": "view",
      "type": "function"
    },
    {
      "inputs": [],
      "name": "_100m",
      "outputs": [
        {
          "internalType": "uint256",
          "name": "",
          "type": "uint256"
        }
      ],
      "stateMutability": "view",
      "type": "function"
    },
    {
      "inputs": [
        {
          "internalType": "address",
          "name": "owner",
          "type": "address"
        },
        {
          "internalType": "address",
          "name": "spender",
          "type": "address"
        }
      ],
      "name": "allowance",
      "outputs": [
        {
          "internalType": "uint256",
          "name": "",
          "type": "uint256"
        }
      ],
      "stateMutability": "view",
      "type": "function"
    },
    {
      "inputs": [
        {
          "internalType": "address",
          "name": "spender",
          "type": "address"
        },
        {
          "internalType": "uint256",
          "name": "amount",
          "type": "uint256"
        }
      ],
      "name": "approve",
      "outputs": [
        {
          "internalType": "bool",
          "name": "",
          "type": "bool"
        }
      ],
      "stateMutability": "nonpayable",
      "type": "function"
    },
    {
      "inputs": [
        {
          "internalType": "address",
          "name": "recipient",
          "type": "address"
        },
        {
          "internalType": "uint256",
          "name": "amount",
          "type": "uint256"
        },
        {
          "internalType": "bytes",
          "name": "data",
          "type": "bytes"
        }
      ],
      "name": "approveAndCall",
      "outputs": [
        {
          "internalType": "bool",
          "name": "",
          "type": "bool"
        }
      ],
      "stateMutability": "nonpayable",
      "type": "function"
    },
    {
      "inputs": [
        {
          "internalType": "address",
          "name": "account",
          "type": "address"
        }
      ],
      "name": "balanceOf",
      "outputs": [
        {
          "internalType": "uint256",
          "name": "",
          "type": "uint256"
        }
      ],
      "stateMutability": "view",
      "type": "function"
    },
    {
      "inputs": [
        {
          "internalType": "uint256",
          "name": "amount",
          "type": "uint256"
        }
      ],
      "name": "burn",
      "outputs": [],
      "stateMutability": "nonpayable",
      "type": "function"
    },
    {
      "inputs": [
        {
          "internalType": "address",
          "name": "account",
          "type": "address"
        },
        {
          "internalType": "uint256",
          "name": "amount",
          "type": "uint256"
        }
      ],
      "name": "burnFrom",
      "outputs": [],
      "stateMutability": "nonpayable",
      "type": "function"
    },
    {
      "inputs": [
        {
          "internalType": "address",
          "name": "newDAO",
          "type": "address"
        }
      ],
      "name": "changeDAO",
      "outputs": [],
      "stateMutability": "nonpayable",
      "type": "function"
    },
    {
      "inputs": [],
      "name": "currentEra",
      "outputs": [
        {
          "internalType": "uint256",
          "name": "",
          "type": "uint256"
        }
      ],
      "stateMutability": "view",
      "type": "function"
    },
    {
      "inputs": [
        {
          "internalType": "uint256",
          "name": "amount",
          "type": "uint256"
        },
        {
          "internalType": "address",
          "name": "recipient",
          "type": "address"
        }
      ],
      "name": "daoMint",
      "outputs": [],
      "stateMutability": "nonpayable",
      "type": "function"
    },
    {
      "inputs": [],
      "name": "decimals",
      "outputs": [
        {
          "internalType": "uint8",
          "name": "",
          "type": "uint8"
        }
      ],
      "stateMutability": "view",
      "type": "function"
    },
    {
      "inputs": [
        {
          "internalType": "address",
          "name": "spender",
          "type": "address"
        },
        {
          "internalType": "uint256",
          "name": "subtractedValue",
          "type": "uint256"
        }
      ],
      "name": "decreaseAllowance",
      "outputs": [
        {
          "internalType": "bool",
          "name": "",
          "type": "bool"
        }
      ],
      "stateMutability": "nonpayable",
      "type": "function"
    },
    {
      "inputs": [],
      "name": "emissionCurve",
      "outputs": [
        {
          "internalType": "uint256",
          "name": "",
          "type": "uint256"
        }
      ],
      "stateMutability": "view",
      "type": "function"
    },
    {
      "inputs": [],
      "name": "emitting",
      "outputs": [
        {
          "internalType": "bool",
          "name": "",
          "type": "bool"
        }
      ],
      "stateMutability": "view",
      "type": "function"
    },
    {
      "inputs": [],
      "name": "feeOnTransfer",
      "outputs": [
        {
          "internalType": "uint256",
          "name": "",
          "type": "uint256"
        }
      ],
      "stateMutability": "view",
      "type": "function"
    },
    {
      "inputs": [],
      "name": "flipEmissions",
      "outputs": [],
      "stateMutability": "nonpayable",
      "type": "function"
    },
    {
      "inputs": [],
      "name": "flipMinting",
      "outputs": [],
      "stateMutability": "nonpayable",
      "type": "function"
    },
    {
      "inputs": [],
      "name": "getDailyEmission",
      "outputs": [
        {
          "internalType": "uint256",
          "name": "",
          "type": "uint256"
        }
      ],
      "stateMutability": "view",
      "type": "function"
    },
    {
      "inputs": [
        {
          "internalType": "address",
          "name": "spender",
          "type": "address"
        },
        {
          "internalType": "uint256",
          "name": "addedValue",
          "type": "uint256"
        }
      ],
      "name": "increaseAllowance",
      "outputs": [
        {
          "internalType": "bool",
          "name": "",
          "type": "bool"
        }
      ],
      "stateMutability": "nonpayable",
      "type": "function"
    },
    {
      "inputs": [],
      "name": "maxSupply",
      "outputs": [
        {
          "internalType": "uint256",
          "name": "",
          "type": "uint256"
        }
      ],
      "stateMutability": "view",
      "type": "function"
    },
    {
      "inputs": [],
      "name": "minting",
      "outputs": [
        {
          "internalType": "bool",
          "name": "",
          "type": "bool"
        }
      ],
      "stateMutability": "view",
      "type": "function"
    },
    {
      "inputs": [],
      "name": "name",
      "outputs": [
        {
          "internalType": "string",
          "name": "",
          "type": "string"
        }
      ],
      "stateMutability": "view",
      "type": "function"
    },
    {
      "inputs": [],
      "name": "nextEraTime",
      "outputs": [
        {
          "internalType": "uint256",
          "name": "",
          "type": "uint256"
        }
      ],
      "stateMutability": "view",
      "type": "function"
    },
    {
      "inputs": [],
      "name": "purgeDAO",
      "outputs": [],
      "stateMutability": "nonpayable",
      "type": "function"
    },
    {
      "inputs": [],
      "name": "purgeDeployer",
      "outputs": [
        {
          "internalType": "bool",
          "name": "",
          "type": "bool"
        }
      ],
      "stateMutability": "nonpayable",
      "type": "function"
    },
    {
      "inputs": [
        {
          "internalType": "address",
          "name": "_savedSpartans",
          "type": "address"
        },
        {
          "internalType": "uint256",
          "name": "_saveAmount",
          "type": "uint256"
        }
      ],
      "name": "saveFallenSpartans",
      "outputs": [],
      "stateMutability": "nonpayable",
      "type": "function"
    },
    {
      "inputs": [],
      "name": "savedSpartans",
      "outputs": [
        {
          "internalType": "bool",
          "name": "",
          "type": "bool"
        }
      ],
      "stateMutability": "view",
      "type": "function"
    },
    {
      "inputs": [],
      "name": "secondsPerEra",
      "outputs": [
        {
          "internalType": "uint256",
          "name": "",
          "type": "uint256"
        }
      ],
      "stateMutability": "view",
      "type": "function"
    },
    {
      "inputs": [
        {
          "internalType": "uint256",
          "name": "newEra",
          "type": "uint256"
        },
        {
          "internalType": "uint256",
          "name": "newCurve",
          "type": "uint256"
        }
      ],
      "name": "setParams",
      "outputs": [],
      "stateMutability": "nonpayable",
      "type": "function"
    },
    {
      "inputs": [],
      "name": "symbol",
      "outputs": [
        {
          "internalType": "string",
          "name": "",
          "type": "string"
        }
      ],
      "stateMutability": "view",
      "type": "function"
    },
    {
      "inputs": [],
      "name": "totalSupply",
      "outputs": [
        {
          "internalType": "uint256",
          "name": "",
          "type": "uint256"
        }
      ],
      "stateMutability": "view",
      "type": "function"
    },
    {
      "inputs": [
        {
          "internalType": "address",
          "name": "recipient",
          "type": "address"
        },
        {
          "internalType": "uint256",
          "name": "amount",
          "type": "uint256"
        }
      ],
      "name": "transfer",
      "outputs": [
        {
          "internalType": "bool",
          "name": "",
          "type": "bool"
        }
      ],
      "stateMutability": "nonpayable",
      "type": "function"
    },
    {
      "inputs": [
        {
          "internalType": "address",
          "name": "recipient",
          "type": "address"
        },
        {
          "internalType": "uint256",
          "name": "amount",
          "type": "uint256"
        },
        {
          "internalType": "bytes",
          "name": "data",
          "type": "bytes"
        }
      ],
      "name": "transferAndCall",
      "outputs": [
        {
          "internalType": "bool",
          "name": "",
          "type": "bool"
        }
      ],
      "stateMutability": "nonpayable",
      "type": "function"
    },
    {
      "inputs": [
        {
          "internalType": "address",
          "name": "sender",
          "type": "address"
        },
        {
          "internalType": "address",
          "name": "recipient",
          "type": "address"
        },
        {
          "internalType": "uint256",
          "name": "amount",
          "type": "uint256"
        }
      ],
      "name": "transferFrom",
      "outputs": [
        {
          "internalType": "bool",
          "name": "",
          "type": "bool"
        }
      ],
      "stateMutability": "nonpayable",
      "type": "function"
    },
    {
      "inputs": [],
      "name": "upgrade",
      "outputs": [],
      "stateMutability": "nonpayable",
      "type": "function"
    }
  ],
  "bytecode": "0x60806040523480156200001157600080fd5b506040516200389738038062003897833981810160405281019062000037919062000154565b6012600a62000047919062000238565b6305f5e10062000058919062000375565b6006819055506012600a6200006e919062000238565b6311e1a3006200007f919062000375565b600781905550610800600581905550600160098190555080600d60006101000a81548173ffffffffffffffffffffffffffffffffffffffff021916908373ffffffffffffffffffffffffffffffffffffffff160217905550600160088190555060085442620000ef919062000180565b600a8190555033600c60006101000a81548173ffffffffffffffffffffffffffffffffffffffff021916908373ffffffffffffffffffffffffffffffffffffffff1602179055505062000477565b6000815190506200014e816200045d565b92915050565b6000602082840312156200016757600080fd5b600062000177848285016200013d565b91505092915050565b60006200018d826200040a565b91506200019a836200040a565b9250827fffffffffffffffffffffffffffffffffffffffffffffffffffffffffffffffff03821115620001d257620001d162000421565b5b828201905092915050565b6000808291508390505b60018511156200022f5780860481111562000207576200020662000421565b5b6001851615620002175780820291505b8081029050620002278562000450565b9450620001e7565b94509492505050565b600062000245826200040a565b9150620002528362000414565b9250620002817fffffffffffffffffffffffffffffffffffffffffffffffffffffffffffffffff848462000289565b905092915050565b6000826200029b57600190506200036e565b81620002ab57600090506200036e565b8160018114620002c45760028114620002cf5762000305565b60019150506200036e565b60ff841115620002e457620002e362000421565b5b8360020a915084821115620002fe57620002fd62000421565b5b506200036e565b5060208310610133831016604e8410600b84101617156200033f5782820a90508381111562000339576200033862000421565b5b6200036e565b6200034e8484846001620001dd565b9250905081840481111562000368576200036762000421565b5b81810290505b9392505050565b600062000382826200040a565b91506200038f836200040a565b9250817fffffffffffffffffffffffffffffffffffffffffffffffffffffffffffffffff0483118215151615620003cb57620003ca62000421565b5b828202905092915050565b6000620003e382620003ea565b9050919050565b600073ffffffffffffffffffffffffffffffffffffffff82169050919050565b6000819050919050565b600060ff82169050919050565b7f4e487b7100000000000000000000000000000000000000000000000000000000600052601160045260246000fd5b60008160011c9050919050565b6200046881620003d6565b81146200047457600080fd5b50565b61341080620004876000396000f3fe608060405234801561001057600080fd5b50600436106102325760003560e01c806379cc679011610130578063a9059cbb116100b8578063d55ec6971161007c578063d55ec69714610671578063d5abeb011461067b578063dd62ed3e14610699578063f293e675146106c9578063fe1fa8fa146106e757610232565b8063a9059cbb146105cd578063c0324c77146105fd578063c1b8411a14610619578063c91b6b4614610637578063cae9ca511461064157610232565b806398fabd3a116100ff57806398fabd3a146105275780639a67759b146105455780639bdd257c14610563578063a457c2d714610581578063a59f170c146105b157610232565b806379cc6790146104b15780637dc2268c146104cd57806395d89b41146104eb578063973628f61461050957610232565b80632deaa116116101be578063405b658711610182578063405b65871461040b57806342966c681461042957806358e4b934146104455780636b92a3b61461046357806370a082311461048157610232565b80632deaa11614610367578063313ce56714610371578063395093511461038f5780633ccafe23146103bf5780634000aea0146103db57610232565b8063095ea7b311610205578063095ea7b3146102af5780630fa1eeab146102df57806318160ddd146102fd5780631d007f5f1461031b57806323b872dd1461033757610232565b806303a821381461023757806306fdde03146102555780630781f4d214610273578063090bbb0114610291575b600080fd5b61023f6106f1565b60405161024c9190612bd9565b60405180910390f35b61025d610824565b60405161026a9190612bf4565b60405180910390f35b61027b61085d565b6040516102889190612bd9565b60405180910390f35b610299610870565b6040516102a69190612d76565b60405180910390f35b6102c960048036038101906102c49190612789565b610876565b6040516102d69190612bd9565b60405180910390f35b6102e761088d565b6040516102f49190612d76565b60405180910390f35b610305610893565b6040516103129190612d76565b60405180910390f35b610335600480360381019061033091906126ac565b610899565b005b610351600480360381019061034c919061273a565b610a35565b60405161035e9190612bd9565b60405180910390f35b61036f610bcd565b005b610379610ce1565b6040516103869190612df1565b60405180910390f35b6103a960048036038101906103a49190612789565b610ce6565b6040516103b69190612bd9565b60405180910390f35b6103d960048036038101906103d491906128ac565b610d84565b005b6103f560048036038101906103f091906127c5565b610f18565b6040516104029190612bd9565b60405180910390f35b610413610fa4565b6040516104209190612d76565b60405180910390f35b610443600480360381019061043e919061285a565b610faa565b005b61044d610fb7565b60405161045a9190612b47565b60405180910390f35b61046b610fdd565b6040516104789190612d76565b60405180910390f35b61049b600480360381019061049691906126ac565b610fe3565b6040516104a89190612d76565b60405180910390f35b6104cb60048036038101906104c69190612789565b61102c565b005b6104d561105f565b6040516104e29190612bd9565b60405180910390f35b6104f3611072565b6040516105009190612bf4565b60405180910390f35b6105116110ab565b60405161051e9190612d76565b60405180910390f35b61052f6110b1565b60405161053c9190612b47565b60405180910390f35b61054d6110d7565b60405161055a9190612d76565b60405180910390f35b61056b6110dd565b6040516105789190612bd9565b60405180910390f35b61059b60048036038101906105969190612789565b6110f0565b6040516105a89190612bd9565b60405180910390f35b6105cb60048036038101906105c69190612789565b6111d6565b005b6105e760048036038101906105e29190612789565b611337565b6040516105f49190612bd9565b60405180910390f35b610617600480360381019061061291906128e8565b61134e565b005b610621611448565b60405161062e9190612b47565b60405180910390f35b61063f61146e565b005b61065b600480360381019061065691906127c5565b61159a565b6040516106689190612bd9565b60405180910390f35b610679611646565b005b610683611847565b6040516106909190612d76565b60405180910390f35b6106b360048036038101906106ae91906126fe565b61184d565b6040516106c09190612d76565b60405180910390f35b6106d16118d4565b6040516106de9190612d76565b60405180910390f35b6106ef61192d565b005b6000600b60009054906101000a900473ffffffffffffffffffffffffffffffffffffffff1673ffffffffffffffffffffffffffffffffffffffff163373ffffffffffffffffffffffffffffffffffffffff16148061079c5750600c60009054906101000a900473ffffffffffffffffffffffffffffffffffffffff1673ffffffffffffffffffffffffffffffffffffffff163373ffffffffffffffffffffffffffffffffffffffff16145b6107db576040517f08c379a00000000000000000000000000000000000000000000000000000000081526004016107d290612c16565b60405180910390fd5b6000600c60006101000a81548173ffffffffffffffffffffffffffffffffffffffff021916908373ffffffffffffffffffffffffffffffffffffffff1602179055506001905090565b6040518060400160405280601981526020017f5370617274616e2050726f746f636f6c20546f6b656e2056320000000000000081525081565b600360009054906101000a900460ff1681565b600a5481565b6000610883338484611a41565b6001905092915050565b60045481565b60005481565b600b60009054906101000a900473ffffffffffffffffffffffffffffffffffffffff1673ffffffffffffffffffffffffffffffffffffffff163373ffffffffffffffffffffffffffffffffffffffff1614806109425750600c60009054906101000a900473ffffffffffffffffffffffffffffffffffffffff1673ffffffffffffffffffffffffffffffffffffffff163373ffffffffffffffffffffffffffffffffffffffff16145b610981576040517f08c379a000000000000000000000000000000000000000000000000000000000815260040161097890612c16565b60405180910390fd5b600073ffffffffffffffffffffffffffffffffffffffff168173ffffffffffffffffffffffffffffffffffffffff1614156109f1576040517f08c379a00000000000000000000000000000000000000000000000000000000081526004016109e890612d36565b60405180910390fd5b80600b60006101000a81548173ffffffffffffffffffffffffffffffffffffffff021916908373ffffffffffffffffffffffffffffffffffffffff16021790555050565b6000610a42848484611cb1565b7fffffffffffffffffffffffffffffffffffffffffffffffffffffffffffffffff600260008673ffffffffffffffffffffffffffffffffffffffff1673ffffffffffffffffffffffffffffffffffffffff16815260200190815260200160002060003373ffffffffffffffffffffffffffffffffffffffff1673ffffffffffffffffffffffffffffffffffffffff168152602001908152602001600020541015610bc2576000600260008673ffffffffffffffffffffffffffffffffffffffff1673ffffffffffffffffffffffffffffffffffffffff16815260200190815260200160002060003373ffffffffffffffffffffffffffffffffffffffff1673ffffffffffffffffffffffffffffffffffffffff16815260200190815260200160002054905082811015610baa576040517f08c379a0000000000000000000000000000000000000000000000000000000008152600401610ba190612c76565b60405180910390fd5b610bc085338584610bbb919061308b565b611a41565b505b600190509392505050565b600b60009054906101000a900473ffffffffffffffffffffffffffffffffffffffff1673ffffffffffffffffffffffffffffffffffffffff163373ffffffffffffffffffffffffffffffffffffffff161480610c765750600c60009054906101000a900473ffffffffffffffffffffffffffffffffffffffff1673ffffffffffffffffffffffffffffffffffffffff163373ffffffffffffffffffffffffffffffffffffffff16145b610cb5576040517f08c379a0000000000000000000000000000000000000000000000000000000008152600401610cac90612c16565b60405180910390fd5b600360019054906101000a900460ff1615600360016101000a81548160ff021916908315150217905550565b601281565b6000610d7a338484600260003373ffffffffffffffffffffffffffffffffffffffff1673ffffffffffffffffffffffffffffffffffffffff16815260200190815260200160002060008873ffffffffffffffffffffffffffffffffffffffff1673ffffffffffffffffffffffffffffffffffffffff16815260200190815260200160002054610d759190612e39565b611a41565b6001905092915050565b600b60009054906101000a900473ffffffffffffffffffffffffffffffffffffffff1673ffffffffffffffffffffffffffffffffffffffff163373ffffffffffffffffffffffffffffffffffffffff161480610e2d5750600c60009054906101000a900473ffffffffffffffffffffffffffffffffffffffff1673ffffffffffffffffffffffffffffffffffffffff163373ffffffffffffffffffffffffffffffffffffffff16145b610e6c576040517f08c379a0000000000000000000000000000000000000000000000000000000008152600401610e6390612c16565b60405180910390fd5b6012600a610e7a9190612f13565b624c4b40610e889190613031565b821115610eca576040517f08c379a0000000000000000000000000000000000000000000000000000000008152600401610ec190612d16565b60405180910390fd5b600360019054906101000a900460ff168015610f0457506012600a610eef9190612f13565b6308f0d180610efe9190613031565b60005411155b15610f1457610f138183611fef565b5b5050565b6000610f25338686611cb1565b8473ffffffffffffffffffffffffffffffffffffffff1663cf4d253530863387876040518663ffffffff1660e01b8152600401610f66959493929190612b8b565b600060405180830381600087803b158015610f8057600080fd5b505af1158015610f94573d6000803e3d6000fd5b5050505060019050949350505050565b60065481565b610fb4338261217e565b50565b600d60009054906101000a900473ffffffffffffffffffffffffffffffffffffffff1681565b60085481565b6000600160008373ffffffffffffffffffffffffffffffffffffffff1673ffffffffffffffffffffffffffffffffffffffff168152602001908152602001600020549050919050565b600081611039843361184d565b611043919061308b565b9050611050833383611a41565b61105a838361217e565b505050565b600360019054906101000a900460ff1681565b6040518060400160405280600681526020017f535041525441000000000000000000000000000000000000000000000000000081525081565b60095481565b600b60009054906101000a900473ffffffffffffffffffffffffffffffffffffffff1681565b60055481565b600360029054906101000a900460ff1681565b600080600260003373ffffffffffffffffffffffffffffffffffffffff1673ffffffffffffffffffffffffffffffffffffffff16815260200190815260200160002060008573ffffffffffffffffffffffffffffffffffffffff1673ffffffffffffffffffffffffffffffffffffffff168152602001908152602001600020549050828110156111b5576040517f08c379a00000000000000000000000000000000000000000000000000000000081526004016111ac90612c76565b60405180910390fd5b6111cb338585846111c6919061308b565b611a41565b600191505092915050565b600b60009054906101000a900473ffffffffffffffffffffffffffffffffffffffff1673ffffffffffffffffffffffffffffffffffffffff163373ffffffffffffffffffffffffffffffffffffffff16148061127f5750600c60009054906101000a900473ffffffffffffffffffffffffffffffffffffffff1673ffffffffffffffffffffffffffffffffffffffff163373ffffffffffffffffffffffffffffffffffffffff16145b6112be576040517f08c379a00000000000000000000000000000000000000000000000000000000081526004016112b590612c16565b60405180910390fd5b600360029054906101000a900460ff161561130e576040517f08c379a000000000000000000000000000000000000000000000000000000000815260040161130590612d56565b60405180910390fd5b6001600360026101000a81548160ff0219169083151502179055506113338282611fef565b5050565b6000611344338484611cb1565b6001905092915050565b600b60009054906101000a900473ffffffffffffffffffffffffffffffffffffffff1673ffffffffffffffffffffffffffffffffffffffff163373ffffffffffffffffffffffffffffffffffffffff1614806113f75750600c60009054906101000a900473ffffffffffffffffffffffffffffffffffffffff1673ffffffffffffffffffffffffffffffffffffffff163373ffffffffffffffffffffffffffffffffffffffff16145b611436576040517f08c379a000000000000000000000000000000000000000000000000000000000815260040161142d90612c16565b60405180910390fd5b81600881905550806005819055505050565b600c60009054906101000a900473ffffffffffffffffffffffffffffffffffffffff1681565b600b60009054906101000a900473ffffffffffffffffffffffffffffffffffffffff1673ffffffffffffffffffffffffffffffffffffffff163373ffffffffffffffffffffffffffffffffffffffff1614806115175750600c60009054906101000a900473ffffffffffffffffffffffffffffffffffffffff1673ffffffffffffffffffffffffffffffffffffffff163373ffffffffffffffffffffffffffffffffffffffff16145b611556576040517f08c379a000000000000000000000000000000000000000000000000000000000815260040161154d90612c16565b60405180910390fd5b6000600b60006101000a81548173ffffffffffffffffffffffffffffffffffffffff021916908373ffffffffffffffffffffffffffffffffffffffff160217905550565b60006115c733867fffffffffffffffffffffffffffffffffffffffffffffffffffffffffffffffff611a41565b8473ffffffffffffffffffffffffffffffffffffffff16631ac562a730863387876040518663ffffffff1660e01b8152600401611608959493929190612b8b565b600060405180830381600087803b15801561162257600080fd5b505af1158015611636573d6000803e3d6000fd5b5050505060019050949350505050565b6000600d60009054906101000a900473ffffffffffffffffffffffffffffffffffffffff1673ffffffffffffffffffffffffffffffffffffffff166370a08231336040518263ffffffff1660e01b81526004016116a39190612b47565b60206040518083038186803b1580156116bb57600080fd5b505afa1580156116cf573d6000803e3d6000fd5b505050506040513d601f19601f820116820180604052508101906116f39190612883565b9050600d60009054906101000a900473ffffffffffffffffffffffffffffffffffffffff1673ffffffffffffffffffffffffffffffffffffffff16632ccb1b3030836040518363ffffffff1660e01b8152600401611752929190612b62565b602060405180830381600087803b15801561176c57600080fd5b505af1158015611780573d6000803e3d6000fd5b505050506040513d601f19601f820116820180604052508101906117a49190612831565b6117ad57600080fd5b600d60009054906101000a900473ffffffffffffffffffffffffffffffffffffffff1673ffffffffffffffffffffffffffffffffffffffff166342966c68826040518263ffffffff1660e01b81526004016118089190612d76565b600060405180830381600087803b15801561182257600080fd5b505af1158015611836573d6000803e3d6000fd5b505050506118443382611fef565b50565b60075481565b6000600260008473ffffffffffffffffffffffffffffffffffffffff1673ffffffffffffffffffffffffffffffffffffffff16815260200190815260200160002060008373ffffffffffffffffffffffffffffffffffffffff1673ffffffffffffffffffffffffffffffffffffffff16815260200190815260200160002054905092915050565b60008060065460005411611906576006546000546007546118f59190613031565b6118ff9190612e8f565b905061190c565b60075490505b6005546000548261191d919061308b565b6119279190612e8f565b91505090565b600b60009054906101000a900473ffffffffffffffffffffffffffffffffffffffff1673ffffffffffffffffffffffffffffffffffffffff163373ffffffffffffffffffffffffffffffffffffffff1614806119d65750600c60009054906101000a900473ffffffffffffffffffffffffffffffffffffffff1673ffffffffffffffffffffffffffffffffffffffff163373ffffffffffffffffffffffffffffffffffffffff16145b611a15576040517f08c379a0000000000000000000000000000000000000000000000000000000008152600401611a0c90612c16565b60405180910390fd5b600360009054906101000a900460ff1615600360006101000a81548160ff021916908315150217905550565b600073ffffffffffffffffffffffffffffffffffffffff168373ffffffffffffffffffffffffffffffffffffffff161415611ab1576040517f08c379a0000000000000000000000000000000000000000000000000000000008152600401611aa890612c56565b60405180910390fd5b600073ffffffffffffffffffffffffffffffffffffffff168273ffffffffffffffffffffffffffffffffffffffff161415611b21576040517f08c379a0000000000000000000000000000000000000000000000000000000008152600401611b1890612cb6565b60405180910390fd5b7fffffffffffffffffffffffffffffffffffffffffffffffffffffffffffffffff600260008573ffffffffffffffffffffffffffffffffffffffff1673ffffffffffffffffffffffffffffffffffffffff16815260200190815260200160002060008473ffffffffffffffffffffffffffffffffffffffff1673ffffffffffffffffffffffffffffffffffffffff168152602001908152602001600020541015611cac5780600260008573ffffffffffffffffffffffffffffffffffffffff1673ffffffffffffffffffffffffffffffffffffffff16815260200190815260200160002060008473ffffffffffffffffffffffffffffffffffffffff1673ffffffffffffffffffffffffffffffffffffffff168152602001908152602001600020819055508173ffffffffffffffffffffffffffffffffffffffff168373ffffffffffffffffffffffffffffffffffffffff167f8c5be1e5ebec7d5bd14f71427d1e84f3dd0314c0f7b2291e5b200ac8c7c3b92583604051611ca39190612d76565b60405180910390a35b505050565b600073ffffffffffffffffffffffffffffffffffffffff168373ffffffffffffffffffffffffffffffffffffffff161415611d21576040517f08c379a0000000000000000000000000000000000000000000000000000000008152600401611d1890612c36565b60405180910390fd5b3073ffffffffffffffffffffffffffffffffffffffff168273ffffffffffffffffffffffffffffffffffffffff161415611d90576040517f08c379a0000000000000000000000000000000000000000000000000000000008152600401611d8790612cf6565b60405180910390fd5b6000600160008573ffffffffffffffffffffffffffffffffffffffff1673ffffffffffffffffffffffffffffffffffffffff16815260200190815260200160002054905081811015611e17576040517f08c379a0000000000000000000000000000000000000000000000000000000008152600401611e0e90612c96565b60405180910390fd5b6000611e21612348565b73ffffffffffffffffffffffffffffffffffffffff1663714270ab600454856040518363ffffffff1660e01b8152600401611e5d929190612d91565b60206040518083038186803b158015611e7557600080fd5b505afa158015611e89573d6000803e3d6000fd5b505050506040513d601f19601f82011682018060405250810190611ead9190612883565b9050828111611ecf578083611ec2919061308b565b9250611ece858261217e565b5b82600160008773ffffffffffffffffffffffffffffffffffffffff1673ffffffffffffffffffffffffffffffffffffffff1681526020019081526020016000206000828254611f1e919061308b565b9250508190555082600160008673ffffffffffffffffffffffffffffffffffffffff1673ffffffffffffffffffffffffffffffffffffffff1681526020019081526020016000206000828254611f749190612e39565b925050819055508373ffffffffffffffffffffffffffffffffffffffff168573ffffffffffffffffffffffffffffffffffffffff167fddf252ad1be2c89b69c2b068fc378daa952ba7f163c4a11628f55a4df523b3ef85604051611fd89190612d76565b60405180910390a3611fe86123ef565b5050505050565b600073ffffffffffffffffffffffffffffffffffffffff168273ffffffffffffffffffffffffffffffffffffffff16141561205f576040517f08c379a000000000000000000000000000000000000000000000000000000000815260040161205690612d36565b60405180910390fd5b806000808282546120709190612e39565b9250508190555060075460005411156120be576040517f08c379a00000000000000000000000000000000000000000000000000000000081526004016120b590612cd6565b60405180910390fd5b80600160008473ffffffffffffffffffffffffffffffffffffffff1673ffffffffffffffffffffffffffffffffffffffff168152602001908152602001600020600082825461210d9190612e39565b925050819055508173ffffffffffffffffffffffffffffffffffffffff16600073ffffffffffffffffffffffffffffffffffffffff167fddf252ad1be2c89b69c2b068fc378daa952ba7f163c4a11628f55a4df523b3ef836040516121729190612d76565b60405180910390a35050565b600073ffffffffffffffffffffffffffffffffffffffff168273ffffffffffffffffffffffffffffffffffffffff1614156121ee576040517f08c379a00000000000000000000000000000000000000000000000000000000081526004016121e590612d36565b60405180910390fd5b80600160008473ffffffffffffffffffffffffffffffffffffffff1673ffffffffffffffffffffffffffffffffffffffff168152602001908152602001600020541015612270576040517f08c379a000000000000000000000000000000000000000000000000000000000815260040161226790612c96565b60405180910390fd5b80600160008473ffffffffffffffffffffffffffffffffffffffff1673ffffffffffffffffffffffffffffffffffffffff16815260200190815260200160002060008282546122bf919061308b565b92505081905550806000808282546122d7919061308b565b92505081905550600073ffffffffffffffffffffffffffffffffffffffff168273ffffffffffffffffffffffffffffffffffffffff167fddf252ad1be2c89b69c2b068fc378daa952ba7f163c4a11628f55a4df523b3ef8360405161233c9190612d76565b60405180910390a35050565b6000600b60009054906101000a900473ffffffffffffffffffffffffffffffffffffffff1673ffffffffffffffffffffffffffffffffffffffff16637b0e5c456040518163ffffffff1660e01b815260040160206040518083038186803b1580156123b257600080fd5b505afa1580156123c6573d6000803e3d6000fd5b505050506040513d601f19601f820116820180604052508101906123ea91906126d5565b905090565b600a54421015801561240d5750600360009054906101000a900460ff165b15612550576001600960008282546124259190612e39565b925050819055506008544261243a9190612e39565b600a81905550600061244a6118d4565b905061245d612457612552565b82611fef565b612465612348565b73ffffffffffffffffffffffffffffffffffffffff16638b18b1156000546007546040518363ffffffff1660e01b81526004016124a3929190612d91565b60206040518083038186803b1580156124bb57600080fd5b505afa1580156124cf573d6000803e3d6000fd5b505050506040513d601f19601f820116820180604052508101906124f39190612883565b6004819055506103e8600454111561250f576103e86004819055505b7f9d472bcf372fce01fd875c3296e8e5ae0a08bfca42dedac19e202271ce8f39c5600954600a548360405161254693929190612dba565b60405180910390a1505b565b6000600b60009054906101000a900473ffffffffffffffffffffffffffffffffffffffff1673ffffffffffffffffffffffffffffffffffffffff16639d2cc4366040518163ffffffff1660e01b815260040160206040518083038186803b1580156125bc57600080fd5b505afa1580156125d0573d6000803e3d6000fd5b505050506040513d601f19601f820116820180604052508101906125f491906126d5565b905090565b60008135905061260881613395565b92915050565b60008151905061261d81613395565b92915050565b600081519050612632816133ac565b92915050565b60008083601f84011261264a57600080fd5b8235905067ffffffffffffffff81111561266357600080fd5b60208301915083600182028301111561267b57600080fd5b9250929050565b600081359050612691816133c3565b92915050565b6000815190506126a6816133c3565b92915050565b6000602082840312156126be57600080fd5b60006126cc848285016125f9565b91505092915050565b6000602082840312156126e757600080fd5b60006126f58482850161260e565b91505092915050565b6000806040838503121561271157600080fd5b600061271f858286016125f9565b9250506020612730858286016125f9565b9150509250929050565b60008060006060848603121561274f57600080fd5b600061275d868287016125f9565b935050602061276e868287016125f9565b925050604061277f86828701612682565b9150509250925092565b6000806040838503121561279c57600080fd5b60006127aa858286016125f9565b92505060206127bb85828601612682565b9150509250929050565b600080600080606085870312156127db57600080fd5b60006127e9878288016125f9565b94505060206127fa87828801612682565b935050604085013567ffffffffffffffff81111561281757600080fd5b61282387828801612638565b925092505092959194509250565b60006020828403121561284357600080fd5b600061285184828501612623565b91505092915050565b60006020828403121561286c57600080fd5b600061287a84828501612682565b91505092915050565b60006020828403121561289557600080fd5b60006128a384828501612697565b91505092915050565b600080604083850312156128bf57600080fd5b60006128cd85828601612682565b92505060206128de858286016125f9565b9150509250929050565b600080604083850312156128fb57600080fd5b600061290985828601612682565b925050602061291a85828601612682565b9150509250929050565b61292d816130bf565b82525050565b61293c816130d1565b82525050565b600061294e8385612e17565b935061295b838584613114565b612964836131b4565b840190509392505050565b600061297a82612e0c565b6129848185612e28565b9350612994818560208601613123565b61299d816131b4565b840191505092915050565b60006129b5600483612e28565b91506129c0826131d2565b602082019050919050565b60006129d8600c83612e28565b91506129e3826131fb565b602082019050919050565b60006129fb600683612e28565b9150612a0682613224565b602082019050919050565b6000612a1e600d83612e28565b9150612a298261324d565b602082019050919050565b6000612a41600b83612e28565b9150612a4c82613276565b602082019050919050565b6000612a64600783612e28565b9150612a6f8261329f565b602082019050919050565b6000612a87600683612e28565b9150612a92826132c8565b602082019050919050565b6000612aaa600983612e28565b9150612ab5826132f1565b602082019050919050565b6000612acd600383612e28565b9150612ad88261331a565b602082019050919050565b6000612af0600b83612e28565b9150612afb82613343565b602082019050919050565b6000612b13600e83612e28565b9150612b1e8261336c565b602082019050919050565b612b32816130fd565b82525050565b612b4181613107565b82525050565b6000602082019050612b5c6000830184612924565b92915050565b6000604082019050612b776000830185612924565b612b846020830184612b29565b9392505050565b6000608082019050612ba06000830188612924565b612bad6020830187612b29565b612bba6040830186612924565b8181036060830152612bcd818486612942565b90509695505050505050565b6000602082019050612bee6000830184612933565b92915050565b60006020820190508181036000830152612c0e818461296f565b905092915050565b60006020820190508181036000830152612c2f816129a8565b9050919050565b60006020820190508181036000830152612c4f816129cb565b9050919050565b60006020820190508181036000830152612c6f816129ee565b9050919050565b60006020820190508181036000830152612c8f81612a11565b9050919050565b60006020820190508181036000830152612caf81612a34565b9050919050565b60006020820190508181036000830152612ccf81612a57565b9050919050565b60006020820190508181036000830152612cef81612a7a565b9050919050565b60006020820190508181036000830152612d0f81612a9d565b9050919050565b60006020820190508181036000830152612d2f81612ac0565b9050919050565b60006020820190508181036000830152612d4f81612ae3565b9050919050565b60006020820190508181036000830152612d6f81612b06565b9050919050565b6000602082019050612d8b6000830184612b29565b92915050565b6000604082019050612da66000830185612b29565b612db36020830184612b29565b9392505050565b6000606082019050612dcf6000830186612b29565b612ddc6020830185612b29565b612de96040830184612b29565b949350505050565b6000602082019050612e066000830184612b38565b92915050565b600081519050919050565b600082825260208201905092915050565b600082825260208201905092915050565b6000612e44826130fd565b9150612e4f836130fd565b9250827fffffffffffffffffffffffffffffffffffffffffffffffffffffffffffffffff03821115612e8457612e83613156565b5b828201905092915050565b6000612e9a826130fd565b9150612ea5836130fd565b925082612eb557612eb4613185565b5b828204905092915050565b6000808291508390505b6001851115612f0a57808604811115612ee657612ee5613156565b5b6001851615612ef55780820291505b8081029050612f03856131c5565b9450612eca565b94509492505050565b6000612f1e826130fd565b9150612f2983613107565b9250612f567fffffffffffffffffffffffffffffffffffffffffffffffffffffffffffffffff8484612f5e565b905092915050565b600082612f6e576001905061302a565b81612f7c576000905061302a565b8160018114612f925760028114612f9c57612fcb565b600191505061302a565b60ff841115612fae57612fad613156565b5b8360020a915084821115612fc557612fc4613156565b5b5061302a565b5060208310610133831016604e8410600b84101617156130005782820a905083811115612ffb57612ffa613156565b5b61302a565b61300d8484846001612ec0565b9250905081840481111561302457613023613156565b5b81810290505b9392505050565b600061303c826130fd565b9150613047836130fd565b9250817fffffffffffffffffffffffffffffffffffffffffffffffffffffffffffffffff04831182151516156130805761307f613156565b5b828202905092915050565b6000613096826130fd565b91506130a1836130fd565b9250828210156130b4576130b3613156565b5b828203905092915050565b60006130ca826130dd565b9050919050565b60008115159050919050565b600073ffffffffffffffffffffffffffffffffffffffff82169050919050565b6000819050919050565b600060ff82169050919050565b82818337600083830152505050565b60005b83811015613141578082015181840152602081019050613126565b83811115613150576000848401525b50505050565b7f4e487b7100000000000000000000000000000000000000000000000000000000600052601160045260246000fd5b7f4e487b7100000000000000000000000000000000000000000000000000000000600052601260045260246000fd5b6000601f19601f8301169050919050565b60008160011c9050919050565b7f2144414f00000000000000000000000000000000000000000000000000000000600082015250565b7f7472616e73666572206572720000000000000000000000000000000000000000600082015250565b7f73656e6465720000000000000000000000000000000000000000000000000000600082015250565b7f616c6c6f77616e63652065727200000000000000000000000000000000000000600082015250565b7f62616c616e636520657272000000000000000000000000000000000000000000600082015250565b7f7370656e64657200000000000000000000000000000000000000000000000000600082015250565b7f4d61787865640000000000000000000000000000000000000000000000000000600082015250565b7f726563697069656e740000000000000000000000000000000000000000000000600082015250565b7f21356d0000000000000000000000000000000000000000000000000000000000600082015250565b7f6164647265737320657272000000000000000000000000000000000000000000600082015250565b7f7370617274616e73207361766564000000000000000000000000000000000000600082015250565b61339e816130bf565b81146133a957600080fd5b50565b6133b5816130d1565b81146133c057600080fd5b50565b6133cc816130fd565b81146133d757600080fd5b5056fea2646970667358221220c32fb4c7fa570892884285cbce958953886d7dd2bf1e497cc0b10fbed2dc881464736f6c63430008030033",
  "linkReferences": {},
  "deployedLinkReferences": {}
}