{
  "_format": "hh-sol-artifact-1",
  "contractName": "LendRouter",
  "sourceName": "contracts/lendRouter.sol",
  "abi": [
    {
      "inputs": [
        {
          "internalType": "address",
          "name": "_base",
          "type": "address"
        }
      ],
      "stateMutability": "nonpayable",
      "type": "constructor"
    },
    {
      "inputs": [],
      "name": "BASE",
      "outputs": [
        {
          "internalType": "address",
          "name": "",
          "type": "address"
        }
      ],
      "stateMutability": "view",
      "type": "function"
    },
    {
      "inputs": [],
      "name": "DEPLOYER",
      "outputs": [
        {
          "internalType": "address",
          "name": "",
          "type": "address"
        }
      ],
      "stateMutability": "view",
      "type": "function"
    },
    {
      "inputs": [
        {
          "internalType": "address",
          "name": "assetDebt",
          "type": "address"
        }
      ],
      "name": "borrowDebt",
      "outputs": [
        {
          "internalType": "uint256",
          "name": "_debtIssued",
          "type": "uint256"
        }
      ],
      "stateMutability": "nonpayable",
      "type": "function"
    },
    {
      "inputs": [
        {
          "internalType": "address",
          "name": "assetCol",
          "type": "address"
        }
      ],
      "name": "removeForMember",
      "outputs": [
        {
          "internalType": "uint256",
          "name": "DebtReturned",
          "type": "uint256"
        }
      ],
      "stateMutability": "nonpayable",
      "type": "function"
    }
  ],
  "bytecode": "0x608060405234801561001057600080fd5b50604051610722380380610722833981810160405281019061003291906100ce565b806000806101000a81548173ffffffffffffffffffffffffffffffffffffffff021916908373ffffffffffffffffffffffffffffffffffffffff16021790555033600160006101000a81548173ffffffffffffffffffffffffffffffffffffffff021916908373ffffffffffffffffffffffffffffffffffffffff16021790555050610140565b6000815190506100c881610129565b92915050565b6000602082840312156100e057600080fd5b60006100ee848285016100b9565b91505092915050565b600061010282610109565b9050919050565b600073ffffffffffffffffffffffffffffffffffffffff82169050919050565b610132816100f7565b811461013d57600080fd5b50565b6105d38061014f6000396000f3fe608060405234801561001057600080fd5b506004361061004c5760003560e01c8063bc5dedc914610051578063c1b8411a14610081578063e22b4dda1461009f578063ec342ad0146100cf575b600080fd5b61006b60048036038101906100669190610452565b6100ed565b6040516100789190610506565b60405180910390f35b610089610208565b60405161009691906104eb565b60405180910390f35b6100b960048036038101906100b49190610452565b61022e565b6040516100c69190610506565b60405180910390f35b6100d7610349565b6040516100e491906104eb565b60405180910390f35b6000600160009054906101000a900473ffffffffffffffffffffffffffffffffffffffff1673ffffffffffffffffffffffffffffffffffffffff163373ffffffffffffffffffffffffffffffffffffffff1614806101fa575061014e61036d565b73ffffffffffffffffffffffffffffffffffffffff1663f301e7816040518163ffffffff1660e01b815260040160206040518083038186803b15801561019357600080fd5b505afa1580156101a7573d6000803e3d6000fd5b505050506040513d601f19601f820116820180604052508101906101cb919061047b565b73ffffffffffffffffffffffffffffffffffffffff163373ffffffffffffffffffffffffffffffffffffffff16145b61020357600080fd5b919050565b600160009054906101000a900473ffffffffffffffffffffffffffffffffffffffff1681565b6000600160009054906101000a900473ffffffffffffffffffffffffffffffffffffffff1673ffffffffffffffffffffffffffffffffffffffff163373ffffffffffffffffffffffffffffffffffffffff16148061033b575061028f61036d565b73ffffffffffffffffffffffffffffffffffffffff1663f301e7816040518163ffffffff1660e01b815260040160206040518083038186803b1580156102d457600080fd5b505afa1580156102e8573d6000803e3d6000fd5b505050506040513d601f19601f8201168201806040525081019061030c919061047b565b73ffffffffffffffffffffffffffffffffffffffff163373ffffffffffffffffffffffffffffffffffffffff16145b61034457600080fd5b919050565b60008054906101000a900473ffffffffffffffffffffffffffffffffffffffff1681565b60008060009054906101000a900473ffffffffffffffffffffffffffffffffffffffff1673ffffffffffffffffffffffffffffffffffffffff166398fabd3a6040518163ffffffff1660e01b815260040160206040518083038186803b1580156103d657600080fd5b505afa1580156103ea573d6000803e3d6000fd5b505050506040513d601f19601f8201168201806040525081019061040e91906104a4565b905090565b6000813590506104228161056f565b92915050565b6000815190506104378161056f565b92915050565b60008151905061044c81610586565b92915050565b60006020828403121561046457600080fd5b600061047284828501610413565b91505092915050565b60006020828403121561048d57600080fd5b600061049b84828501610428565b91505092915050565b6000602082840312156104b657600080fd5b60006104c48482850161043d565b91505092915050565b6104d681610521565b82525050565b6104e581610565565b82525050565b600060208201905061050060008301846104cd565b92915050565b600060208201905061051b60008301846104dc565b92915050565b600061052c82610545565b9050919050565b600061053e82610521565b9050919050565b600073ffffffffffffffffffffffffffffffffffffffff82169050919050565b6000819050919050565b61057881610521565b811461058357600080fd5b50565b61058f81610533565b811461059a57600080fd5b5056fea2646970667358221220180f6a6aa60767cb39c3d91fac410b05878b2138acc45b238d8a2274bdb39d3064736f6c63430008030033",
  "linkReferences": {},
  "deployedLinkReferences": {}
}