{
  "_format": "hh-sol-artifact-1",
  "contractName": "PoolFactory",
  "sourceName": "contracts/poolFactory.sol",
  "abi": [
    {
      "inputs": [
        {
          "internalType": "address",
          "name": "_base",
          "type": "address"
        },
        {
          "internalType": "address",
          "name": "_wbnb",
          "type": "address"
        }
      ],
      "stateMutability": "nonpayable",
      "type": "constructor"
    },
    {
      "anonymous": false,
      "inputs": [
        {
          "indexed": true,
          "internalType": "address",
          "name": "pool",
          "type": "address"
        }
      ],
      "name": "AddCuratePool",
      "type": "event"
    },
    {
      "anonymous": false,
      "inputs": [
        {
          "indexed": true,
          "internalType": "address",
          "name": "token",
          "type": "address"
        },
        {
          "indexed": true,
          "internalType": "address",
          "name": "pool",
          "type": "address"
        }
      ],
      "name": "CreatePool",
      "type": "event"
    },
    {
      "anonymous": false,
      "inputs": [
        {
          "indexed": true,
          "internalType": "address",
          "name": "pool",
          "type": "address"
        }
      ],
      "name": "RemoveCuratePool",
      "type": "event"
    },
    {
      "inputs": [],
      "name": "BASE",
      "outputs": [
        {
          "internalType": "address",
          "name": "",
          "type": "address"
        }
      ],
      "stateMutability": "view",
      "type": "function"
    },
    {
      "inputs": [],
      "name": "DEPLOYER",
      "outputs": [
        {
          "internalType": "address",
          "name": "",
          "type": "address"
        }
      ],
      "stateMutability": "view",
      "type": "function"
    },
    {
      "inputs": [],
      "name": "WBNB",
      "outputs": [
        {
          "internalType": "address",
          "name": "",
          "type": "address"
        }
      ],
      "stateMutability": "view",
      "type": "function"
    },
    {
      "inputs": [
        {
          "internalType": "address",
          "name": "token",
          "type": "address"
        }
      ],
      "name": "addCuratedPool",
      "outputs": [],
      "stateMutability": "nonpayable",
      "type": "function"
    },
    {
      "inputs": [
        {
          "internalType": "uint256",
          "name": "",
          "type": "uint256"
        }
      ],
      "name": "arrayPools",
      "outputs": [
        {
          "internalType": "address",
          "name": "",
          "type": "address"
        }
      ],
      "stateMutability": "view",
      "type": "function"
    },
    {
      "inputs": [
        {
          "internalType": "uint256",
          "name": "",
          "type": "uint256"
        }
      ],
      "name": "arrayTokens",
      "outputs": [
        {
          "internalType": "address",
          "name": "",
          "type": "address"
        }
      ],
      "stateMutability": "view",
      "type": "function"
    },
    {
      "inputs": [
        {
          "internalType": "uint256",
          "name": "inputBase",
          "type": "uint256"
        },
        {
          "internalType": "uint256",
          "name": "inputToken",
          "type": "uint256"
        },
        {
          "internalType": "address",
          "name": "token",
          "type": "address"
        }
      ],
      "name": "createPoolADD",
      "outputs": [
        {
          "internalType": "address",
          "name": "pool",
          "type": "address"
        }
      ],
      "stateMutability": "payable",
      "type": "function"
    },
    {
      "inputs": [],
      "name": "curatedPoolCount",
      "outputs": [
        {
          "internalType": "uint256",
          "name": "",
          "type": "uint256"
        }
      ],
      "stateMutability": "view",
      "type": "function"
    },
    {
      "inputs": [],
      "name": "curatedPoolSize",
      "outputs": [
        {
          "internalType": "uint256",
          "name": "",
          "type": "uint256"
        }
      ],
      "stateMutability": "view",
      "type": "function"
    },
    {
      "inputs": [
        {
          "internalType": "address",
          "name": "token",
          "type": "address"
        }
      ],
      "name": "getPool",
      "outputs": [
        {
          "internalType": "address",
          "name": "pool",
          "type": "address"
        }
      ],
      "stateMutability": "view",
      "type": "function"
    },
    {
      "inputs": [
        {
          "internalType": "uint256",
          "name": "i",
          "type": "uint256"
        }
      ],
      "name": "getPoolArray",
      "outputs": [
        {
          "internalType": "address",
          "name": "",
          "type": "address"
        }
      ],
      "stateMutability": "view",
      "type": "function"
    },
    {
      "inputs": [
        {
          "internalType": "uint256",
          "name": "i",
          "type": "uint256"
        }
      ],
      "name": "getToken",
      "outputs": [
        {
          "internalType": "address",
          "name": "",
          "type": "address"
        }
      ],
      "stateMutability": "view",
      "type": "function"
    },
    {
      "inputs": [
        {
          "internalType": "address",
          "name": "",
          "type": "address"
        }
      ],
      "name": "isCuratedPool",
      "outputs": [
        {
          "internalType": "bool",
          "name": "",
          "type": "bool"
        }
      ],
      "stateMutability": "view",
      "type": "function"
    },
    {
      "inputs": [
        {
          "internalType": "address",
          "name": "",
          "type": "address"
        }
      ],
      "name": "isListedPool",
      "outputs": [
        {
          "internalType": "bool",
          "name": "",
          "type": "bool"
        }
      ],
      "stateMutability": "view",
      "type": "function"
    },
    {
      "inputs": [
        {
          "internalType": "address",
          "name": "pool",
          "type": "address"
        }
      ],
      "name": "isPool",
      "outputs": [
        {
          "internalType": "bool",
          "name": "",
          "type": "bool"
        }
      ],
      "stateMutability": "view",
      "type": "function"
    },
    {
      "inputs": [],
      "name": "poolCount",
      "outputs": [
        {
          "internalType": "uint256",
          "name": "",
          "type": "uint256"
        }
      ],
      "stateMutability": "view",
      "type": "function"
    },
    {
      "inputs": [],
      "name": "purgeDeployer",
      "outputs": [],
      "stateMutability": "nonpayable",
      "type": "function"
    },
    {
      "inputs": [
        {
          "internalType": "address",
          "name": "token",
          "type": "address"
        }
      ],
      "name": "removeCuratedPool",
      "outputs": [],
      "stateMutability": "nonpayable",
      "type": "function"
    },
    {
      "inputs": [
        {
          "internalType": "uint256",
          "name": "newSize",
          "type": "uint256"
        }
      ],
      "name": "setParams",
      "outputs": [],
      "stateMutability": "nonpayable",
      "type": "function"
    },
    {
      "inputs": [],
      "name": "tokenCount",
      "outputs": [
        {
          "internalType": "uint256",
          "name": "",
          "type": "uint256"
        }
      ],
      "stateMutability": "view",
      "type": "function"
    },
    {
      "inputs": [
        {
          "internalType": "uint256",
          "name": "",
          "type": "uint256"
        }
      ],
      "name": "vaultAssets",
      "outputs": [
        {
          "internalType": "address",
          "name": "",
          "type": "address"
        }
      ],
      "stateMutability": "view",
      "type": "function"
    }
  ],
  "bytecode": "0x60c06040523480156200001157600080fd5b506040516200a2363803806200a2368339818101604052810190620000379190620001fb565b6001600081905550600073ffffffffffffffffffffffffffffffffffffffff168273ffffffffffffffffffffffffffffffffffffffff161415620000b2576040517f08c379a0000000000000000000000000000000000000000000000000000000008152600401620000a99062000263565b60405180910390fd5b600073ffffffffffffffffffffffffffffffffffffffff168173ffffffffffffffffffffffffffffffffffffffff16141562000125576040517f08c379a00000000000000000000000000000000000000000000000000000000081526004016200011c9062000263565b60405180910390fd5b8173ffffffffffffffffffffffffffffffffffffffff1660808173ffffffffffffffffffffffffffffffffffffffff1660601b815250508073ffffffffffffffffffffffffffffffffffffffff1660a08173ffffffffffffffffffffffffffffffffffffffff1660601b81525050600a60028190555033600160006101000a81548173ffffffffffffffffffffffffffffffffffffffff021916908373ffffffffffffffffffffffffffffffffffffffff16021790555050506200030d565b600081519050620001f581620002f3565b92915050565b600080604083850312156200020f57600080fd5b60006200021f85828601620001e4565b92505060206200023285828601620001e4565b9150509250929050565b60006200024b60058362000285565b91506200025882620002ca565b602082019050919050565b600060208201905081810360008301526200027e816200023c565b9050919050565b600082825260208201905092915050565b6000620002a382620002aa565b9050919050565b600073ffffffffffffffffffffffffffffffffffffffff82169050919050565b7f215a45524f000000000000000000000000000000000000000000000000000000600082015250565b620002fe8162000296565b81146200030a57600080fd5b50565b60805160601c60a05160601c619eb062000386600039600081816116b0015281816117eb01528181611aa601528181612143015261221401526000818161089701528181611177015281816118ff01528181611acf01528181611bf301528181611cd501528181611f8d0152611fc00152619eb06000f3fe608060405260043610620001465760003560e01c80638dd9500211620000bb578063bbe4f6db1162000079578063bbe4f6db146200048b578063c1b8411a14620004cf578063cb66955414620004ff578063e4b50cb81462000535578063ec342ad01462000579578063f525cb6814620005a95762000146565b80638dd95002146200035f5780638e8093d6146200038f5780639d84048214620003d35780639f181b5e1462000417578063a432fd2a14620004475762000146565b806359ded210116200010957806359ded210146200024b5780635b16ebb714620002795780637ca51fbf14620002bd5780638bc51e3614620002eb5780638dcb4c93146200031b5762000146565b806303a82138146200014b5780631798546114620001655780632b2260a814620001a9578063346d7cbc14620001d75780634a0ff5d7146200021b575b600080fd5b3480156200015857600080fd5b5062000163620005d9565b005b3480156200017257600080fd5b506200019160048036038101906200018b919062002511565b62000739565b604051620001a0919062002857565b60405180910390f35b348015620001b657600080fd5b50620001d56004803603810190620001cf919062002461565b62000779565b005b348015620001e457600080fd5b50620002036004803603810190620001fd919062002511565b62000e37565b60405162000212919062002857565b60405180910390f35b3480156200022857600080fd5b506200023362000e77565b60405162000242919062002ae2565b60405180910390f35b3480156200025857600080fd5b5062000277600480360381019062000271919062002511565b62000e7d565b005b3480156200028657600080fd5b50620002a560048036038101906200029f919062002461565b62000fe9565b604051620002b491906200290b565b60405180910390f35b348015620002ca57600080fd5b50620002e96004803603810190620002e3919062002461565b62001059565b005b348015620002f857600080fd5b506200030362001688565b60405162000312919062002ae2565b60405180910390f35b3480156200032857600080fd5b5062000347600480360381019062000341919062002461565b6200168e565b6040516200035691906200290b565b60405180910390f35b3480156200036c57600080fd5b5062000377620016ae565b60405162000386919062002857565b60405180910390f35b3480156200039c57600080fd5b50620003bb6004803603810190620003b5919062002511565b620016d2565b604051620003ca919062002857565b60405180910390f35b348015620003e057600080fd5b50620003ff6004803603810190620003f9919062002511565b62001741565b6040516200040e919062002857565b60405180910390f35b3480156200042457600080fd5b506200042f62001781565b6040516200043e919062002ae2565b60405180910390f35b3480156200045457600080fd5b506200047360048036038101906200046d919062002461565b6200178e565b6040516200048291906200290b565b60405180910390f35b3480156200049857600080fd5b50620004b76004803603810190620004b1919062002461565b620017ae565b604051620004c6919062002857565b60405180910390f35b348015620004dc57600080fd5b50620004e7620018d5565b604051620004f6919062002857565b60405180910390f35b6200051d600480360381019062000517919062002569565b620018fb565b6040516200052c919062002857565b60405180910390f35b3480156200054257600080fd5b506200056160048036038101906200055b919062002511565b62001f1c565b60405162000570919062002857565b60405180910390f35b3480156200058657600080fd5b506200059162001f8b565b604051620005a0919062002857565b60405180910390f35b348015620005b657600080fd5b50620005c162001faf565b604051620005d0919062002ae2565b60405180910390f35b600160009054906101000a900473ffffffffffffffffffffffffffffffffffffffff1673ffffffffffffffffffffffffffffffffffffffff163373ffffffffffffffffffffffffffffffffffffffff161480620006eb57506200063b62001fbc565b73ffffffffffffffffffffffffffffffffffffffff166398fabd3a6040518163ffffffff1660e01b815260040160206040518083038186803b1580156200068157600080fd5b505afa15801562000696573d6000803e3d6000fd5b505050506040513d601f19601f82011682018060405250810190620006bc91906200248d565b73ffffffffffffffffffffffffffffffffffffffff163373ffffffffffffffffffffffffffffffffffffffff16145b620006f557600080fd5b6000600160006101000a81548173ffffffffffffffffffffffffffffffffffffffff021916908373ffffffffffffffffffffffffffffffffffffffff160217905550565b600581815481106200074a57600080fd5b906000526020600020016000915054906101000a900473ffffffffffffffffffffffffffffffffffffffff1681565b600160009054906101000a900473ffffffffffffffffffffffffffffffffffffffff1673ffffffffffffffffffffffffffffffffffffffff163373ffffffffffffffffffffffffffffffffffffffff1614806200088b5750620007db62001fbc565b73ffffffffffffffffffffffffffffffffffffffff166398fabd3a6040518163ffffffff1660e01b815260040160206040518083038186803b1580156200082157600080fd5b505afa15801562000836573d6000803e3d6000fd5b505050506040513d601f19601f820116820180604052508101906200085c91906200248d565b73ffffffffffffffffffffffffffffffffffffffff163373ffffffffffffffffffffffffffffffffffffffff16145b6200089557600080fd5b7f000000000000000000000000000000000000000000000000000000000000000073ffffffffffffffffffffffffffffffffffffffff168173ffffffffffffffffffffffffffffffffffffffff16141562000927576040517f08c379a00000000000000000000000000000000000000000000000000000000081526004016200091e90620029b0565b60405180910390fd5b60006200093362001fbc565b73ffffffffffffffffffffffffffffffffffffffff166398fabd3a6040518163ffffffff1660e01b815260040160206040518083038186803b1580156200097957600080fd5b505afa1580156200098e573d6000803e3d6000fd5b505050506040513d601f19601f82011682018060405250810190620009b491906200248d565b73ffffffffffffffffffffffffffffffffffffffff16632b49d4256040518163ffffffff1660e01b815260040160206040518083038186803b158015620009fa57600080fd5b505afa15801562000a0f573d6000803e3d6000fd5b505050506040513d601f19601f8201168201806040525081019062000a3591906200253d565b90506000151562000a4562001fbc565b73ffffffffffffffffffffffffffffffffffffffff166398fabd3a6040518163ffffffff1660e01b815260040160206040518083038186803b15801562000a8b57600080fd5b505afa15801562000aa0573d6000803e3d6000fd5b505050506040513d601f19601f8201168201806040525081019062000ac691906200248d565b73ffffffffffffffffffffffffffffffffffffffff16638bebea89836040518263ffffffff1660e01b815260040162000b00919062002ae2565b60206040518083038186803b15801562000b1957600080fd5b505afa15801562000b2e573d6000803e3d6000fd5b505050506040513d601f19601f8201168201806040525081019062000b549190620024b9565b15151462000b99576040517f08c379a000000000000000000000000000000000000000000000000000000000815260040162000b909062002a9e565b60405180910390fd5b600062000ba683620017ae565b905060011515600860008373ffffffffffffffffffffffffffffffffffffffff1673ffffffffffffffffffffffffffffffffffffffff16815260200190815260200160002060009054906101000a900460ff1615151462000c3e576040517f08c379a000000000000000000000000000000000000000000000000000000000815260040162000c359062002928565b60405180910390fd5b60001515600960008373ffffffffffffffffffffffffffffffffffffffff1673ffffffffffffffffffffffffffffffffffffffff16815260200190815260200160002060009054906101000a900460ff1615151462000cd4576040517f08c379a000000000000000000000000000000000000000000000000000000000815260040162000ccb906200298e565b60405180910390fd5b6002546003541062000d1d576040517f08c379a000000000000000000000000000000000000000000000000000000000815260040162000d14906200294a565b60405180910390fd5b6001600960008373ffffffffffffffffffffffffffffffffffffffff1673ffffffffffffffffffffffffffffffffffffffff16815260200190815260200160002060006101000a81548160ff021916908315150217905550600160035462000d86919062002b1b565b6003819055506006819080600181540180825580915050600190039060005260206000200160009091909190916101000a81548173ffffffffffffffffffffffffffffffffffffffff021916908373ffffffffffffffffffffffffffffffffffffffff1602179055508073ffffffffffffffffffffffffffffffffffffffff167ff21aa98dc310425cc8b86ef0a55117a759c433acf6c59d51f09ac1782a645cf860405160405180910390a2505050565b6006818154811062000e4857600080fd5b906000526020600020016000915054906101000a900473ffffffffffffffffffffffffffffffffffffffff1681565b60025481565b600160009054906101000a900473ffffffffffffffffffffffffffffffffffffffff1673ffffffffffffffffffffffffffffffffffffffff163373ffffffffffffffffffffffffffffffffffffffff16148062000f8f575062000edf62001fbc565b73ffffffffffffffffffffffffffffffffffffffff166398fabd3a6040518163ffffffff1660e01b815260040160206040518083038186803b15801562000f2557600080fd5b505afa15801562000f3a573d6000803e3d6000fd5b505050506040513d601f19601f8201168201806040525081019062000f6091906200248d565b73ffffffffffffffffffffffffffffffffffffffff163373ffffffffffffffffffffffffffffffffffffffff16145b62000f9957600080fd5b6000811162000fdf576040517f08c379a000000000000000000000000000000000000000000000000000000000815260040162000fd690620029b0565b60405180910390fd5b8060028190555050565b600060011515600860008473ffffffffffffffffffffffffffffffffffffffff1673ffffffffffffffffffffffffffffffffffffffff16815260200190815260200160002060009054906101000a900460ff16151514156200104f576001905062001054565b600090505b919050565b600160009054906101000a900473ffffffffffffffffffffffffffffffffffffffff1673ffffffffffffffffffffffffffffffffffffffff163373ffffffffffffffffffffffffffffffffffffffff1614806200116b5750620010bb62001fbc565b73ffffffffffffffffffffffffffffffffffffffff166398fabd3a6040518163ffffffff1660e01b815260040160206040518083038186803b1580156200110157600080fd5b505afa15801562001116573d6000803e3d6000fd5b505050506040513d601f19601f820116820180604052508101906200113c91906200248d565b73ffffffffffffffffffffffffffffffffffffffff163373ffffffffffffffffffffffffffffffffffffffff16145b6200117557600080fd5b7f000000000000000000000000000000000000000000000000000000000000000073ffffffffffffffffffffffffffffffffffffffff168173ffffffffffffffffffffffffffffffffffffffff16141562001207576040517f08c379a0000000000000000000000000000000000000000000000000000000008152600401620011fe90620029b0565b60405180910390fd5b60006200121482620017ae565b905060011515600960008373ffffffffffffffffffffffffffffffffffffffff1673ffffffffffffffffffffffffffffffffffffffff16815260200190815260200160002060009054906101000a900460ff16151514620012ac576040517f08c379a0000000000000000000000000000000000000000000000000000000008152600401620012a39062002ac0565b60405180910390fd5b6000600960008373ffffffffffffffffffffffffffffffffffffffff1673ffffffffffffffffffffffffffffffffffffffff16815260200190815260200160002060006101000a81548160ff021916908315150217905550600160035462001315919062002b78565b60038190555060005b60068054905081101562001547578173ffffffffffffffffffffffffffffffffffffffff16600682815481106200137e577f4e487b7100000000000000000000000000000000000000000000000000000000600052603260045260246000fd5b9060005260206000200160009054906101000a900473ffffffffffffffffffffffffffffffffffffffff1673ffffffffffffffffffffffffffffffffffffffff161415620015315760066001600680549050620013dc919062002b78565b8154811062001414577f4e487b7100000000000000000000000000000000000000000000000000000000600052603260045260246000fd5b9060005260206000200160009054906101000a900473ffffffffffffffffffffffffffffffffffffffff16600682815481106200147a577f4e487b7100000000000000000000000000000000000000000000000000000000600052603260045260246000fd5b9060005260206000200160006101000a81548173ffffffffffffffffffffffffffffffffffffffff021916908373ffffffffffffffffffffffffffffffffffffffff1602179055506006805480620014fb577f4e487b7100000000000000000000000000000000000000000000000000000000600052603160045260246000fd5b6001900381819060005260206000200160006101000a81549073ffffffffffffffffffffffffffffffffffffffff021916905590555b80806200153e9062002c1e565b9150506200131e565b506200155262001fbc565b73ffffffffffffffffffffffffffffffffffffffff1663b93ec54b6040518163ffffffff1660e01b815260040160206040518083038186803b1580156200159857600080fd5b505afa158015620015ad573d6000803e3d6000fd5b505050506040513d601f19601f82011682018060405250810190620015d391906200248d565b73ffffffffffffffffffffffffffffffffffffffff166335a7ede6836040518263ffffffff1660e01b81526004016200160d919062002857565b600060405180830381600087803b1580156200162857600080fd5b505af11580156200163d573d6000803e3d6000fd5b505050508073ffffffffffffffffffffffffffffffffffffffff167fe0e122d7131ec0f49556c4f88f13ed2b7f6624d0b88edd40870fa8715cab8b1c60405160405180910390a25050565b60035481565b60096020528060005260406000206000915054906101000a900460ff1681565b7f000000000000000000000000000000000000000000000000000000000000000081565b6000600482815481106200170f577f4e487b7100000000000000000000000000000000000000000000000000000000600052603260045260246000fd5b9060005260206000200160009054906101000a900473ffffffffffffffffffffffffffffffffffffffff169050919050565b600481815481106200175257600080fd5b906000526020600020016000915054906101000a900473ffffffffffffffffffffffffffffffffffffffff1681565b6000600580549050905090565b60086020528060005260406000206000915054906101000a900460ff1681565b60008073ffffffffffffffffffffffffffffffffffffffff168273ffffffffffffffffffffffffffffffffffffffff1614156200186d57600760007f000000000000000000000000000000000000000000000000000000000000000073ffffffffffffffffffffffffffffffffffffffff1673ffffffffffffffffffffffffffffffffffffffff16815260200190815260200160002060009054906101000a900473ffffffffffffffffffffffffffffffffffffffff169050620018d0565b600760008373ffffffffffffffffffffffffffffffffffffffff1673ffffffffffffffffffffffffffffffffffffffff16815260200190815260200160002060009054906101000a900473ffffffffffffffffffffffffffffffffffffffff1690505b919050565b600160009054906101000a900473ffffffffffffffffffffffffffffffffffffffff1681565b60007f000000000000000000000000000000000000000000000000000000000000000073ffffffffffffffffffffffffffffffffffffffff168273ffffffffffffffffffffffffffffffffffffffff1614156200198f576040517f08c379a00000000000000000000000000000000000000000000000000000000081526004016200198690620029b0565b60405180910390fd5b600073ffffffffffffffffffffffffffffffffffffffff16620019b283620017ae565b73ffffffffffffffffffffffffffffffffffffffff161462001a0b576040517f08c379a000000000000000000000000000000000000000000000000000000000815260040162001a0290620029f4565b60405180910390fd5b60008311801562001a26575069021e19e0c9bab24000008410155b62001a68576040517f08c379a000000000000000000000000000000000000000000000000000000000815260040162001a5f9062002a16565b60405180910390fd5b600080839050600073ffffffffffffffffffffffffffffffffffffffff168473ffffffffffffffffffffffffffffffffffffffff16141562001acd577f0000000000000000000000000000000000000000000000000000000000000000905062001bf1565b7f000000000000000000000000000000000000000000000000000000000000000073ffffffffffffffffffffffffffffffffffffffff168473ffffffffffffffffffffffffffffffffffffffff161415801562001bae575060128473ffffffffffffffffffffffffffffffffffffffff1663313ce5676040518163ffffffff1660e01b815260040160206040518083038186803b15801562001b6e57600080fd5b505afa15801562001b83573d6000803e3d6000fd5b505050506040513d601f19601f8201168201806040525081019062001ba99190620025bf565b60ff16145b62001bf0576040517f08c379a000000000000000000000000000000000000000000000000000000000815260040162001be79062002a5a565b60405180910390fd5b5b7f00000000000000000000000000000000000000000000000000000000000000008160405162001c2190620023b2565b62001c2e92919062002874565b604051809103906000f08015801562001c4b573d6000803e3d6000fd5b50915081925082600760008373ffffffffffffffffffffffffffffffffffffffff1673ffffffffffffffffffffffffffffffffffffffff16815260200190815260200160002060006101000a81548173ffffffffffffffffffffffffffffffffffffffff021916908373ffffffffffffffffffffffffffffffffffffffff16021790555062001cfc7f0000000000000000000000000000000000000000000000000000000000000000878562002065565b62001d0984868562002065565b6004839080600181540180825580915050600190039060005260206000200160009091909190916101000a81548173ffffffffffffffffffffffffffffffffffffffff021916908373ffffffffffffffffffffffffffffffffffffffff1602179055506005819080600181540180825580915050600190039060005260206000200160009091909190916101000a81548173ffffffffffffffffffffffffffffffffffffffff021916908373ffffffffffffffffffffffffffffffffffffffff1602179055506001600860008573ffffffffffffffffffffffffffffffffffffffff1673ffffffffffffffffffffffffffffffffffffffff16815260200190815260200160002060006101000a81548160ff0219169083151502179055508273ffffffffffffffffffffffffffffffffffffffff168473ffffffffffffffffffffffffffffffffffffffff167fdbd2a1ea6808362e6adbec4db4969cbc11e3b0b28fb6c74cb342defaaf1daada60405160405180910390a38273ffffffffffffffffffffffffffffffffffffffff166386d5f618336040518263ffffffff1660e01b815260040162001ebc919062002857565b602060405180830381600087803b15801562001ed757600080fd5b505af115801562001eec573d6000803e3d6000fd5b505050506040513d601f19601f8201168201806040525081019062001f1291906200253d565b5050509392505050565b60006005828154811062001f59577f4e487b7100000000000000000000000000000000000000000000000000000000600052603260045260246000fd5b9060005260206000200160009054906101000a900473ffffffffffffffffffffffffffffffffffffffff169050919050565b7f000000000000000000000000000000000000000000000000000000000000000081565b6000600480549050905090565b60007f000000000000000000000000000000000000000000000000000000000000000073ffffffffffffffffffffffffffffffffffffffff166398fabd3a6040518163ffffffff1660e01b815260040160206040518083038186803b1580156200202557600080fd5b505afa1580156200203a573d6000803e3d6000fd5b505050506040513d601f19601f82011682018060405250810190620020609190620024e5565b905090565b60026000541415620020ae576040517f08c379a0000000000000000000000000000000000000000000000000000000008152600401620020a59062002a7c565b60405180910390fd5b600260008190555060008211620020fc576040517f08c379a0000000000000000000000000000000000000000000000000000000008152600401620020f39062002a38565b60405180910390fd5b600073ffffffffffffffffffffffffffffffffffffffff168373ffffffffffffffffffffffffffffffffffffffff161415620022cd573482146200213f57600080fd5b60007f000000000000000000000000000000000000000000000000000000000000000073ffffffffffffffffffffffffffffffffffffffff1683604051620021879062002840565b60006040518083038185875af1925050503d8060008114620021c6576040519150601f19603f3d011682016040523d82523d6000602084013e620021cb565b606091505b505090508062002212576040517f08c379a000000000000000000000000000000000000000000000000000000000815260040162002209906200296c565b60405180910390fd5b7f000000000000000000000000000000000000000000000000000000000000000073ffffffffffffffffffffffffffffffffffffffff1663a9059cbb83856040518363ffffffff1660e01b81526004016200226f929190620028de565b602060405180830381600087803b1580156200228a57600080fd5b505af11580156200229f573d6000803e3d6000fd5b505050506040513d601f19601f82011682018060405250810190620022c59190620024b9565b5050620023a5565b8273ffffffffffffffffffffffffffffffffffffffff166323b872dd3383856040518463ffffffff1660e01b81526004016200230c93929190620028a1565b602060405180830381600087803b1580156200232757600080fd5b505af11580156200233c573d6000803e3d6000fd5b505050506040513d601f19601f82011682018060405250810190620023629190620024b9565b620023a4576040517f08c379a00000000000000000000000000000000000000000000000000000000081526004016200239b90620029d2565b60405180910390fd5b5b6001600081905550505050565b616f458062002f3683390190565b600081359050620023d18162002eb3565b92915050565b600081519050620023e88162002eb3565b92915050565b600081519050620023ff8162002ecd565b92915050565b600081519050620024168162002ee7565b92915050565b6000813590506200242d8162002f01565b92915050565b600081519050620024448162002f01565b92915050565b6000815190506200245b8162002f1b565b92915050565b6000602082840312156200247457600080fd5b60006200248484828501620023c0565b91505092915050565b600060208284031215620024a057600080fd5b6000620024b084828501620023d7565b91505092915050565b600060208284031215620024cc57600080fd5b6000620024dc84828501620023ee565b91505092915050565b600060208284031215620024f857600080fd5b6000620025088482850162002405565b91505092915050565b6000602082840312156200252457600080fd5b600062002534848285016200241c565b91505092915050565b6000602082840312156200255057600080fd5b6000620025608482850162002433565b91505092915050565b6000806000606084860312156200257f57600080fd5b60006200258f868287016200241c565b9350506020620025a2868287016200241c565b9250506040620025b586828701620023c0565b9150509250925092565b600060208284031215620025d257600080fd5b6000620025e2848285016200244a565b91505092915050565b620025f68162002bb3565b82525050565b620026078162002bc7565b82525050565b60006200261c60058362002b0a565b9150620026298262002c9b565b602082019050919050565b600062002643600a8362002b0a565b9150620026508262002cc4565b602082019050919050565b60006200266a60058362002b0a565b9150620026778262002ced565b602082019050919050565b60006200269160098362002b0a565b91506200269e8262002d16565b602082019050919050565b6000620026b860068362002b0a565b9150620026c58262002d3f565b602082019050919050565b6000620026df60098362002b0a565b9150620026ec8262002d68565b602082019050919050565b60006200270660048362002b0a565b9150620027138262002d91565b602082019050919050565b60006200272d60008362002aff565b91506200273a8262002dba565b600082019050919050565b60006200275460048362002b0a565b9150620027618262002dbd565b602082019050919050565b60006200277b60048362002b0a565b9150620027888262002de6565b602082019050919050565b6000620027a260098362002b0a565b9150620027af8262002e0f565b602082019050919050565b6000620027c9601f8362002b0a565b9150620027d68262002e38565b602082019050919050565b6000620027f060048362002b0a565b9150620027fd8262002e61565b602082019050919050565b60006200281760088362002b0a565b9150620028248262002e8a565b602082019050919050565b6200283a8162002c07565b82525050565b60006200284d826200271e565b9150819050919050565b60006020820190506200286e6000830184620025eb565b92915050565b60006040820190506200288b6000830185620025eb565b6200289a6020830184620025eb565b9392505050565b6000606082019050620028b86000830186620025eb565b620028c76020830185620025eb565b620028d660408301846200282f565b949350505050565b6000604082019050620028f56000830185620025eb565b6200290460208301846200282f565b9392505050565b6000602082019050620029226000830184620025fc565b92915050565b6000602082019050818103600083015262002943816200260d565b9050919050565b60006020820190508181036000830152620029658162002634565b9050919050565b6000602082019050818103600083015262002987816200265b565b9050919050565b60006020820190508181036000830152620029a98162002682565b9050919050565b60006020820190508181036000830152620029cb81620026a9565b9050919050565b60006020820190508181036000830152620029ed81620026d0565b9050919050565b6000602082019050818103600083015262002a0f81620026f7565b9050919050565b6000602082019050818103600083015262002a318162002745565b9050919050565b6000602082019050818103600083015262002a53816200276c565b9050919050565b6000602082019050818103600083015262002a758162002793565b9050919050565b6000602082019050818103600083015262002a9781620027ba565b9050919050565b6000602082019050818103600083015262002ab981620027e1565b9050919050565b6000602082019050818103600083015262002adb8162002808565b9050919050565b600060208201905062002af960008301846200282f565b92915050565b600081905092915050565b600082825260208201905092915050565b600062002b288262002c07565b915062002b358362002c07565b9250827fffffffffffffffffffffffffffffffffffffffffffffffffffffffffffffffff0382111562002b6d5762002b6c62002c6c565b5b828201905092915050565b600062002b858262002c07565b915062002b928362002c07565b92508282101562002ba85762002ba762002c6c565b5b828203905092915050565b600062002bc08262002be7565b9050919050565b60008115159050919050565b600062002be08262002bb3565b9050919050565b600073ffffffffffffffffffffffffffffffffffffffff82169050919050565b6000819050919050565b600060ff82169050919050565b600062002c2b8262002c07565b91507fffffffffffffffffffffffffffffffffffffffffffffffffffffffffffffffff82141562002c615762002c6062002c6c565b5b600182019050919050565b7f4e487b7100000000000000000000000000000000000000000000000000000000600052601160045260246000fd5b7f21504f4f4c000000000000000000000000000000000000000000000000000000600082015250565b7f6d61784375726174656400000000000000000000000000000000000000000000600082015250565b7f2173656e64000000000000000000000000000000000000000000000000000000600082015250565b7f6973437572617465640000000000000000000000000000000000000000000000600082015250565b7f2156414c49440000000000000000000000000000000000000000000000000000600082015250565b7f217472616e736665720000000000000000000000000000000000000000000000600082015250565b7f214e455700000000000000000000000000000000000000000000000000000000600082015250565b50565b7f214d494e00000000000000000000000000000000000000000000000000000000600082015250565b7f2147415300000000000000000000000000000000000000000000000000000000600082015250565b7f21444543494d414c530000000000000000000000000000000000000000000000600082015250565b7f5265656e7472616e637947756172643a207265656e7472616e742063616c6c00600082015250565b7f4f50454e00000000000000000000000000000000000000000000000000000000600082015250565b7f2143555241544544000000000000000000000000000000000000000000000000600082015250565b62002ebe8162002bb3565b811462002eca57600080fd5b50565b62002ed88162002bc7565b811462002ee457600080fd5b50565b62002ef28162002bd3565b811462002efe57600080fd5b50565b62002f0c8162002c07565b811462002f1857600080fd5b50565b62002f268162002c11565b811462002f3257600080fd5b5056fe6101006040523480156200001257600080fd5b5060405162006f4538038062006f45833981810160405281019062000038919062000524565b6001600081905550600073ffffffffffffffffffffffffffffffffffffffff168273ffffffffffffffffffffffffffffffffffffffff161415620000b3576040517f08c379a0000000000000000000000000000000000000000000000000000000008152600401620000aa9062000630565b60405180910390fd5b600073ffffffffffffffffffffffffffffffffffffffff168173ffffffffffffffffffffffffffffffffffffffff16141562000126576040517f08c379a00000000000000000000000000000000000000000000000000000000081526004016200011d9062000630565b60405180910390fd5b8173ffffffffffffffffffffffffffffffffffffffff1660808173ffffffffffffffffffffffffffffffffffffffff1660601b815250508073ffffffffffffffffffffffffffffffffffffffff1660a08173ffffffffffffffffffffffffffffffffffffffff1660601b8152505060006040518060400160405280601481526020017f2d5370617274616e50726f746f636f6c506f6f6c000000000000000000000000815250905060006040518060400160405280600481526020017f2d5350500000000000000000000000000000000000000000000000000000000081525090508273ffffffffffffffffffffffffffffffffffffffff166306fdde036040518163ffffffff1660e01b815260040160006040518083038186803b1580156200024f57600080fd5b505afa15801562000264573d6000803e3d6000fd5b505050506040513d6000823e3d601f19601f820116820180604052508101906200028f919062000565565b82604051602001620002a392919062000608565b604051602081830303815290604052600a9080519060200190620002c9929190620003eb565b508273ffffffffffffffffffffffffffffffffffffffff166395d89b416040518163ffffffff1660e01b815260040160006040518083038186803b1580156200031157600080fd5b505afa15801562000326573d6000803e3d6000fd5b505050506040513d6000823e3d601f19601f8201168201806040525081019062000351919062000565565b816040516020016200036592919062000608565b604051602081830303815290604052600b90805190602001906200038b929190620003eb565b50601260ff1660c08160ff1660f81b815250504260e08181525050610bb8600181905550610bb860058190555069152d02c7e14af68000006002819055504260048190555060016007819055506101f46009819055505050505062000860565b828054620003f99062000742565b90600052602060002090601f0160209004810192826200041d576000855562000469565b82601f106200043857805160ff191683800117855562000469565b8280016001018555821562000469579182015b82811115620004685782518255916020019190600101906200044b565b5b5090506200047891906200047c565b5090565b5b80821115620004975760008160009055506001016200047d565b5090565b6000620004b2620004ac846200067b565b62000652565b905082815260208101848484011115620004cb57600080fd5b620004d88482856200070c565b509392505050565b600081519050620004f18162000846565b92915050565b600082601f8301126200050957600080fd5b81516200051b8482602086016200049b565b91505092915050565b600080604083850312156200053857600080fd5b60006200054885828601620004e0565b92505060206200055b85828601620004e0565b9150509250929050565b6000602082840312156200057857600080fd5b600082015167ffffffffffffffff8111156200059357600080fd5b620005a184828501620004f7565b91505092915050565b6000620005b782620006b1565b620005c38185620006cd565b9350620005d58185602086016200070c565b80840191505092915050565b6000620005f0600583620006bc565b9150620005fd826200081d565b602082019050919050565b6000620006168285620005aa565b9150620006248284620005aa565b91508190509392505050565b600060208201905081810360008301526200064b81620005e1565b9050919050565b60006200065e62000671565b90506200066c828262000778565b919050565b6000604051905090565b600067ffffffffffffffff821115620006995762000698620007dd565b5b620006a4826200080c565b9050602081019050919050565b600081519050919050565b600082825260208201905092915050565b600081905092915050565b6000620006e582620006ec565b9050919050565b600073ffffffffffffffffffffffffffffffffffffffff82169050919050565b60005b838110156200072c5780820151818401526020810190506200070f565b838111156200073c576000848401525b50505050565b600060028204905060018216806200075b57607f821691505b60208210811415620007725762000771620007ae565b5b50919050565b62000783826200080c565b810181811067ffffffffffffffff82111715620007a557620007a4620007dd565b5b80604052505050565b7f4e487b7100000000000000000000000000000000000000000000000000000000600052602260045260246000fd5b7f4e487b7100000000000000000000000000000000000000000000000000000000600052604160045260246000fd5b6000601f19601f8301169050919050565b7f215a45524f000000000000000000000000000000000000000000000000000000600082015250565b6200085181620006d8565b81146200085d57600080fd5b50565b60805160601c60a05160601c60c05160f81c60e0516166166200092f6000396000818161220f01526126ff01526000611143015260008181610bfb01528181610ce101528181611927015281816128cd01528181612a5f0152818161350401528181613e46015281816143f9015281816149940152614efc015260008181610ba601528181610c8d01528181610d2401528181611da40152818161281e015281816129730152818161328a015281816135960152818161434a015281816148ee0152614c5301526166166000f3fe608060405234801561001057600080fd5b50600436106102485760003560e01c806386d5f6181161013b578063d8dfeb45116100b8578063eec7faa11161007c578063eec7faa114610724578063f0337cdc14610742578063f1bbdef214610772578063fb195363146107a3578063fff6cae9146107bf57610248565b8063d8dfeb4514610669578063dbfc5a0414610687578063dd62ed3e146106b8578063e1eddde3146106e8578063ec342ad01461070657610248565b8063a7f0b3de116100ff578063a7f0b3de146105b0578063a9059cbb146105ce578063ba8e3edd146105fe578063bc5dedc91461061a578063cbbcf8021461064b57610248565b806386d5f618146104f857806395d89b411461052857806399d786ca146105465780639d3f87e214610564578063a457c2d71461058057610248565b806342966c68116101c957806370a082311161018d57806370a082311461045257806370f93cdf14610482578063752d7793146104a05780637ec3eae5146104be57806382bfefc8146104da57610248565b806342966c68146103c0578063474e7302146103dc5780634864d140146103f85780635f83e5d51461041657806362a5af3b1461043457610248565b80632783e4a9116102105780632783e4a914610307578063308aca1d14610338578063313ce5671461035457806333ca78e414610372578063395093511461039057610248565b806306fdde031461024d578063095ea7b31461026b57806314c025c61461029b57806318160ddd146102b957806323b872dd146102d7575b600080fd5b6102556107c9565b6040516102629190615c60565b60405180910390f35b61028560048036038101906102809190615859565b61085b565b6040516102929190615c45565b60405180910390f35b6102a3610872565b6040516102b09190615ea2565b60405180910390f35b6102c1610878565b6040516102ce9190615ea2565b60405180910390f35b6102f160048036038101906102ec919061580a565b61087e565b6040516102fe9190615c45565b60405180910390f35b610321600480360381019061031c91906157ce565b610971565b60405161032f929190615f1d565b60405180910390f35b610352600480360381019061034d91906158e7565b610eb6565b005b61035c611141565b6040516103699190616015565b60405180910390f35b61037a611165565b6040516103879190615ea2565b60405180910390f35b6103aa60048036038101906103a59190615859565b61116b565b6040516103b79190615c45565b60405180910390f35b6103da60048036038101906103d591906158e7565b611209565b005b6103f660048036038101906103f191906158e7565b6113a8565b005b610400611627565b60405161040d9190615ea2565b60405180910390f35b61041e61162d565b60405161042b9190615ea2565b60405180910390f35b61043c611633565b6040516104499190615c45565b60405180910390f35b61046c6004803603810190610467919061577c565b611646565b6040516104799190615ea2565b60405180910390f35b61048a61168f565b6040516104979190615ea2565b60405180910390f35b6104a8611695565b6040516104b59190615ea2565b60405180910390f35b6104d860048036038101906104d391906158e7565b61169b565b005b6104e2611925565b6040516104ef9190615c01565b60405180910390f35b610512600480360381019061050d919061577c565b611949565b60405161051f9190615ea2565b60405180910390f35b610530611e55565b60405161053d9190615c60565b60405180910390f35b61054e611ee7565b60405161055b9190615ea2565b60405180910390f35b61057e600480360381019061057991906158e7565b611eed565b005b61059a60048036038101906105959190615859565b612127565b6040516105a79190615c45565b60405180910390f35b6105b861220d565b6040516105c59190615ea2565b60405180910390f35b6105e860048036038101906105e39190615859565b612231565b6040516105f59190615c45565b60405180910390f35b610618600480360381019061061391906158e7565b612248565b005b610634600480360381019061062f919061577c565b6124c7565b604051610642929190615f1d565b60405180910390f35b610653612ba2565b6040516106609190615ea2565b60405180910390f35b610671612ba8565b60405161067e9190615ea2565b60405180910390f35b6106a1600480360381019061069c919061577c565b612bae565b6040516106af929190615f1d565b60405180910390f35b6106d260048036038101906106cd91906157ce565b6133d9565b6040516106df9190615ea2565b60405180910390f35b6106f0613460565b6040516106fd9190615c01565b60405180910390f35b61070e613594565b60405161071b9190615c01565b60405180910390f35b61072c6135b8565b6040516107399190615ea2565b60405180910390f35b61075c600480360381019061075791906158e7565b6135be565b6040516107699190615ea2565b60405180910390f35b61078c6004803603810190610787919061577c565b6135e2565b60405161079a929190615f1d565b60405180910390f35b6107bd60048036038101906107b891906158e7565b613fd9565b005b6107c761428c565b005b6060600a80546107d8906161fb565b80601f0160208091040260200160405190810160405280929190818152602001828054610804906161fb565b80156108515780601f1061082657610100808354040283529160200191610851565b820191906000526020600020905b81548152906001019060200180831161083457829003601f168201915b5050505050905090565b60006108683384846144a8565b6001905092915050565b60095481565b600c5481565b600061088b848484614673565b6000600e60008673ffffffffffffffffffffffffffffffffffffffff1673ffffffffffffffffffffffffffffffffffffffff16815260200190815260200160002060003373ffffffffffffffffffffffffffffffffffffffff1673ffffffffffffffffffffffffffffffffffffffff1681526020019081526020016000205490508281101561094f576040517f08c379a000000000000000000000000000000000000000000000000000000000815260040161094690615cc2565b60405180910390fd5b61096585338584610960919061612d565b6144a8565b60019150509392505050565b60008061097c6148ea565b73ffffffffffffffffffffffffffffffffffffffff166332fe7b266040518163ffffffff1660e01b815260040160206040518083038186803b1580156109c157600080fd5b505afa1580156109d5573d6000803e3d6000fd5b505050506040513d601f19601f820116820180604052508101906109f991906157a5565b73ffffffffffffffffffffffffffffffffffffffff163373ffffffffffffffffffffffffffffffffffffffff161480610ae15750610a356148ea565b73ffffffffffffffffffffffffffffffffffffffff16632ab24e496040518163ffffffff1660e01b815260040160206040518083038186803b158015610a7a57600080fd5b505afa158015610a8e573d6000803e3d6000fd5b505050506040513d601f19601f82011682018060405250810190610ab291906157a5565b73ffffffffffffffffffffffffffffffffffffffff163373ffffffffffffffffffffffffffffffffffffffff16145b80610b9b5750610aef6148ea565b73ffffffffffffffffffffffffffffffffffffffff1663b99b0a0c6040518163ffffffff1660e01b815260040160206040518083038186803b158015610b3457600080fd5b505afa158015610b48573d6000803e3d6000fd5b505050506040513d601f19601f82011682018060405250810190610b6c91906157a5565b73ffffffffffffffffffffffffffffffffffffffff163373ffffffffffffffffffffffffffffffffffffffff16145b610ba457600080fd5b7f000000000000000000000000000000000000000000000000000000000000000073ffffffffffffffffffffffffffffffffffffffff168473ffffffffffffffffffffffffffffffffffffffff161480610c4957507f000000000000000000000000000000000000000000000000000000000000000073ffffffffffffffffffffffffffffffffffffffff168473ffffffffffffffffffffffffffffffffffffffff16145b610c88576040517f08c379a0000000000000000000000000000000000000000000000000000000008152600401610c7f90615d22565b60405180910390fd5b6000807f000000000000000000000000000000000000000000000000000000000000000073ffffffffffffffffffffffffffffffffffffffff168673ffffffffffffffffffffffffffffffffffffffff161415610d22577f00000000000000000000000000000000000000000000000000000000000000009150610d0a61498f565b9050610d1581614a65565b8094508195505050610d61565b7f00000000000000000000000000000000000000000000000000000000000000009150610d4d614c4e565b9050610d5881614d24565b80945081955050505b8473ffffffffffffffffffffffffffffffffffffffff168673ffffffffffffffffffffffffffffffffffffffff168373ffffffffffffffffffffffffffffffffffffffff167fc9163c3bdf7263acf1bb3d24072cc7da025f7181c31e2edc7e1673edf5e0ca32848888604051610dd993929190615f46565b60405180910390a48573ffffffffffffffffffffffffffffffffffffffff1663a9059cbb86866040518363ffffffff1660e01b8152600401610e1c929190615c1c565b602060405180830381600087803b158015610e3657600080fd5b505af1158015610e4a573d6000803e3d6000fd5b505050506040513d601f19601f82011682018060405250810190610e6e9190615895565b610ead576040517f08c379a0000000000000000000000000000000000000000000000000000000008152600401610ea490615de2565b60405180910390fd5b50509250929050565b610ebe6148ea565b73ffffffffffffffffffffffffffffffffffffffff166332fe7b266040518163ffffffff1660e01b815260040160206040518083038186803b158015610f0357600080fd5b505afa158015610f17573d6000803e3d6000fd5b505050506040513d601f19601f82011682018060405250810190610f3b91906157a5565b73ffffffffffffffffffffffffffffffffffffffff163373ffffffffffffffffffffffffffffffffffffffff1614806110235750610f776148ea565b73ffffffffffffffffffffffffffffffffffffffff16632ab24e496040518163ffffffff1660e01b815260040160206040518083038186803b158015610fbc57600080fd5b505afa158015610fd0573d6000803e3d6000fd5b505050506040513d601f19601f82011682018060405250810190610ff491906157a5565b73ffffffffffffffffffffffffffffffffffffffff163373ffffffffffffffffffffffffffffffffffffffff16145b806110dd57506110316148ea565b73ffffffffffffffffffffffffffffffffffffffff1663b99b0a0c6040518163ffffffff1660e01b815260040160206040518083038186803b15801561107657600080fd5b505afa15801561108a573d6000803e3d6000fd5b505050506040513d601f19601f820116820180604052508101906110ae91906157a5565b73ffffffffffffffffffffffffffffffffffffffff163373ffffffffffffffffffffffffffffffffffffffff16145b6110e657600080fd5b60fa811015806110f85750610bb88111155b611137576040517f08c379a000000000000000000000000000000000000000000000000000000000815260040161112e90615dc2565b60405180910390fd5b8060098190555050565b7f000000000000000000000000000000000000000000000000000000000000000081565b60015481565b60006111ff338484600e60003373ffffffffffffffffffffffffffffffffffffffff1673ffffffffffffffffffffffffffffffffffffffff16815260200190815260200160002060008873ffffffffffffffffffffffffffffffffffffffff1673ffffffffffffffffffffffffffffffffffffffff168152602001908152602001600020546111fa919061604c565b6144a8565b6001905092915050565b611211613460565b73ffffffffffffffffffffffffffffffffffffffff163373ffffffffffffffffffffffffffffffffffffffff161461124857600080fd5b6112506148ea565b73ffffffffffffffffffffffffffffffffffffffff1663b93ec54b6040518163ffffffff1660e01b815260040160206040518083038186803b15801561129557600080fd5b505afa1580156112a9573d6000803e3d6000fd5b505050506040513d601f19601f820116820180604052508101906112cd91906157a5565b73ffffffffffffffffffffffffffffffffffffffff16635e0237ea6112f0613460565b6040518263ffffffff1660e01b815260040161130c9190615c01565b60206040518083038186803b15801561132457600080fd5b505afa158015611338573d6000803e3d6000fd5b505050506040513d601f19601f8201168201806040525081019061135c9190615895565b61139b576040517f08c379a000000000000000000000000000000000000000000000000000000000815260040161139290615d42565b60405180910390fd5b6113a53382614fbd565b50565b6113b06148ea565b73ffffffffffffffffffffffffffffffffffffffff166332fe7b266040518163ffffffff1660e01b815260040160206040518083038186803b1580156113f557600080fd5b505afa158015611409573d6000803e3d6000fd5b505050506040513d601f19601f8201168201806040525081019061142d91906157a5565b73ffffffffffffffffffffffffffffffffffffffff163373ffffffffffffffffffffffffffffffffffffffff16148061151557506114696148ea565b73ffffffffffffffffffffffffffffffffffffffff16632ab24e496040518163ffffffff1660e01b815260040160206040518083038186803b1580156114ae57600080fd5b505afa1580156114c2573d6000803e3d6000fd5b505050506040513d601f19601f820116820180604052508101906114e691906157a5565b73ffffffffffffffffffffffffffffffffffffffff163373ffffffffffffffffffffffffffffffffffffffff16145b806115cf57506115236148ea565b73ffffffffffffffffffffffffffffffffffffffff1663b99b0a0c6040518163ffffffff1660e01b815260040160206040518083038186803b15801561156857600080fd5b505afa15801561157c573d6000803e3d6000fd5b505050506040513d601f19601f820116820180604052508101906115a091906157a5565b73ffffffffffffffffffffffffffffffffffffffff163373ffffffffffffffffffffffffffffffffffffffff16145b6115d857600080fd5b610bb881111561161d576040517f08c379a000000000000000000000000000000000000000000000000000000000815260040161161490615ca2565b60405180910390fd5b8060018190555050565b600f5481565b60125481565b600660009054906101000a900460ff1681565b6000600d60008373ffffffffffffffffffffffffffffffffffffffff1673ffffffffffffffffffffffffffffffffffffffff168152602001908152602001600020549050919050565b60075481565b60135481565b6116a36148ea565b73ffffffffffffffffffffffffffffffffffffffff166332fe7b266040518163ffffffff1660e01b815260040160206040518083038186803b1580156116e857600080fd5b505afa1580156116fc573d6000803e3d6000fd5b505050506040513d601f19601f8201168201806040525081019061172091906157a5565b73ffffffffffffffffffffffffffffffffffffffff163373ffffffffffffffffffffffffffffffffffffffff161480611808575061175c6148ea565b73ffffffffffffffffffffffffffffffffffffffff16632ab24e496040518163ffffffff1660e01b815260040160206040518083038186803b1580156117a157600080fd5b505afa1580156117b5573d6000803e3d6000fd5b505050506040513d601f19601f820116820180604052508101906117d991906157a5565b73ffffffffffffffffffffffffffffffffffffffff163373ffffffffffffffffffffffffffffffffffffffff16145b806118c257506118166148ea565b73ffffffffffffffffffffffffffffffffffffffff1663b99b0a0c6040518163ffffffff1660e01b815260040160206040518083038186803b15801561185b57600080fd5b505afa15801561186f573d6000803e3d6000fd5b505050506040513d601f19601f8201168201806040525081019061189391906157a5565b73ffffffffffffffffffffffffffffffffffffffff163373ffffffffffffffffffffffffffffffffffffffff16145b6118cb57600080fd5b600280546118d991906160d3565b81111561191b576040517f08c379a000000000000000000000000000000000000000000000000000000000815260040161191290615ca2565b60405180910390fd5b8060028190555050565b7f000000000000000000000000000000000000000000000000000000000000000081565b60006119536148ea565b73ffffffffffffffffffffffffffffffffffffffff166332fe7b266040518163ffffffff1660e01b815260040160206040518083038186803b15801561199857600080fd5b505afa1580156119ac573d6000803e3d6000fd5b505050506040513d601f19601f820116820180604052508101906119d091906157a5565b73ffffffffffffffffffffffffffffffffffffffff163373ffffffffffffffffffffffffffffffffffffffff161480611ab85750611a0c6148ea565b73ffffffffffffffffffffffffffffffffffffffff16632ab24e496040518163ffffffff1660e01b815260040160206040518083038186803b158015611a5157600080fd5b505afa158015611a65573d6000803e3d6000fd5b505050506040513d601f19601f82011682018060405250810190611a8991906157a5565b73ffffffffffffffffffffffffffffffffffffffff163373ffffffffffffffffffffffffffffffffffffffff16145b80611b725750611ac66148ea565b73ffffffffffffffffffffffffffffffffffffffff1663b99b0a0c6040518163ffffffff1660e01b815260040160206040518083038186803b158015611b0b57600080fd5b505afa158015611b1f573d6000803e3d6000fd5b505050506040513d601f19601f82011682018060405250810190611b4391906157a5565b73ffffffffffffffffffffffffffffffffffffffff163373ffffffffffffffffffffffffffffffffffffffff16145b611b7b57600080fd5b6000611b85614c4e565b905060025481600f54611b98919061604c565b10611bd8576040517f08c379a0000000000000000000000000000000000000000000000000000000008152600401611bcf90615e02565b60405180910390fd5b6000611be261498f565b9050611bec6148ea565b73ffffffffffffffffffffffffffffffffffffffff16637b0e5c456040518163ffffffff1660e01b815260040160206040518083038186803b158015611c3157600080fd5b505afa158015611c45573d6000803e3d6000fd5b505050506040513d601f19601f82011682018060405250810190611c6991906157a5565b73ffffffffffffffffffffffffffffffffffffffff1663c5c11ee983600f5484601054600c546040518663ffffffff1660e01b8152600401611caf959493929190615fc2565b60206040518083038186803b158015611cc757600080fd5b505afa158015611cdb573d6000803e3d6000fd5b505050506040513d601f19601f82011682018060405250810190611cff9190615910565b92506000600f541480611d1457506000601054145b15611de85768056bc75e2d631000008210158015611d3457506127108110155b611d73576040517f08c379a0000000000000000000000000000000000000000000000000000000008152600401611d6a90615ce2565b60405180910390fd5b6000612710846064611d8591906160d3565b611d8f91906160a2565b90508084611d9d919061612d565b9350611dc97f000000000000000000000000000000000000000000000000000000000000000082615187565b818384611dd691906160d3565b611de091906160a2565b600381905550505b611df282826152d0565b611dfc8484615187565b8373ffffffffffffffffffffffffffffffffffffffff167fbeb3885786d637a474cbc287c0a44587231633a077f0bd30354d5a4b18996fce838386604051611e4693929190615f46565b60405180910390a25050919050565b6060600b8054611e64906161fb565b80601f0160208091040260200160405190810160405280929190818152602001828054611e90906161fb565b8015611edd5780601f10611eb257610100808354040283529160200191611edd565b820191906000526020600020905b815481529060010190602001808311611ec057829003601f168201915b5050505050905090565b60115481565b611ef56148ea565b73ffffffffffffffffffffffffffffffffffffffff166332fe7b266040518163ffffffff1660e01b815260040160206040518083038186803b158015611f3a57600080fd5b505afa158015611f4e573d6000803e3d6000fd5b505050506040513d601f19601f82011682018060405250810190611f7291906157a5565b73ffffffffffffffffffffffffffffffffffffffff163373ffffffffffffffffffffffffffffffffffffffff16148061205a5750611fae6148ea565b73ffffffffffffffffffffffffffffffffffffffff16632ab24e496040518163ffffffff1660e01b815260040160206040518083038186803b158015611ff357600080fd5b505afa158015612007573d6000803e3d6000fd5b505050506040513d601f19601f8201168201806040525081019061202b91906157a5565b73ffffffffffffffffffffffffffffffffffffffff163373ffffffffffffffffffffffffffffffffffffffff16145b8061211457506120686148ea565b73ffffffffffffffffffffffffffffffffffffffff1663b99b0a0c6040518163ffffffff1660e01b815260040160206040518083038186803b1580156120ad57600080fd5b505afa1580156120c1573d6000803e3d6000fd5b505050506040513d601f19601f820116820180604052508101906120e591906157a5565b73ffffffffffffffffffffffffffffffffffffffff163373ffffffffffffffffffffffffffffffffffffffff16145b61211d57600080fd5b8060058190555050565b600080600e60003373ffffffffffffffffffffffffffffffffffffffff1673ffffffffffffffffffffffffffffffffffffffff16815260200190815260200160002060008573ffffffffffffffffffffffffffffffffffffffff1673ffffffffffffffffffffffffffffffffffffffff168152602001908152602001600020549050828110156121ec576040517f08c379a00000000000000000000000000000000000000000000000000000000081526004016121e390615cc2565b60405180910390fd5b612202338585846121fd919061612d565b6144a8565b600191505092915050565b7f000000000000000000000000000000000000000000000000000000000000000081565b600061223e338484614673565b6001905092915050565b6122506148ea565b73ffffffffffffffffffffffffffffffffffffffff166332fe7b266040518163ffffffff1660e01b815260040160206040518083038186803b15801561229557600080fd5b505afa1580156122a9573d6000803e3d6000fd5b505050506040513d601f19601f820116820180604052508101906122cd91906157a5565b73ffffffffffffffffffffffffffffffffffffffff163373ffffffffffffffffffffffffffffffffffffffff1614806123b557506123096148ea565b73ffffffffffffffffffffffffffffffffffffffff16632ab24e496040518163ffffffff1660e01b815260040160206040518083038186803b15801561234e57600080fd5b505afa158015612362573d6000803e3d6000fd5b505050506040513d601f19601f8201168201806040525081019061238691906157a5565b73ffffffffffffffffffffffffffffffffffffffff163373ffffffffffffffffffffffffffffffffffffffff16145b8061246f57506123c36148ea565b73ffffffffffffffffffffffffffffffffffffffff1663b99b0a0c6040518163ffffffff1660e01b815260040160206040518083038186803b15801561240857600080fd5b505afa15801561241c573d6000803e3d6000fd5b505050506040513d601f19601f8201168201806040525081019061244091906157a5565b73ffffffffffffffffffffffffffffffffffffffff163373ffffffffffffffffffffffffffffffffffffffff16145b61247857600080fd5b62093a8081106124bd576040517f08c379a00000000000000000000000000000000000000000000000000000000081526004016124b490615dc2565b60405180910390fd5b8060078190555050565b6000806124d26148ea565b73ffffffffffffffffffffffffffffffffffffffff166332fe7b266040518163ffffffff1660e01b815260040160206040518083038186803b15801561251757600080fd5b505afa15801561252b573d6000803e3d6000fd5b505050506040513d601f19601f8201168201806040525081019061254f91906157a5565b73ffffffffffffffffffffffffffffffffffffffff163373ffffffffffffffffffffffffffffffffffffffff161480612637575061258b6148ea565b73ffffffffffffffffffffffffffffffffffffffff16632ab24e496040518163ffffffff1660e01b815260040160206040518083038186803b1580156125d057600080fd5b505afa1580156125e4573d6000803e3d6000fd5b505050506040513d601f19601f8201168201806040525081019061260891906157a5565b73ffffffffffffffffffffffffffffffffffffffff163373ffffffffffffffffffffffffffffffffffffffff16145b806126f157506126456148ea565b73ffffffffffffffffffffffffffffffffffffffff1663b99b0a0c6040518163ffffffff1660e01b815260040160206040518083038186803b15801561268a57600080fd5b505afa15801561269e573d6000803e3d6000fd5b505050506040513d601f19601f820116820180604052508101906126c291906157a5565b73ffffffffffffffffffffffffffffffffffffffff163373ffffffffffffffffffffffffffffffffffffffff16145b6126fa57600080fd5b6007547f0000000000000000000000000000000000000000000000000000000000000000612728919061604c565b4211612769576040517f08c379a000000000000000000000000000000000000000000000000000000000815260040161276090615e62565b60405180910390fd5b600061277430611646565b905060006127806148ea565b73ffffffffffffffffffffffffffffffffffffffff16637b0e5c456040518163ffffffff1660e01b815260040160206040518083038186803b1580156127c557600080fd5b505afa1580156127d9573d6000803e3d6000fd5b505050506040513d601f19601f820116820180604052508101906127fd91906157a5565b90508073ffffffffffffffffffffffffffffffffffffffff16635a7b2ed3837f0000000000000000000000000000000000000000000000000000000000000000306040518463ffffffff1660e01b815260040161285c93929190615ee6565b60206040518083038186803b15801561287457600080fd5b505afa158015612888573d6000803e3d6000fd5b505050506040513d601f19601f820116820180604052508101906128ac9190615910565b93508073ffffffffffffffffffffffffffffffffffffffff16635a7b2ed3837f0000000000000000000000000000000000000000000000000000000000000000306040518463ffffffff1660e01b815260040161290b93929190615ee6565b60206040518083038186803b15801561292357600080fd5b505afa158015612937573d6000803e3d6000fd5b505050506040513d601f19601f8201168201806040525081019061295b9190615910565b9250612967848461530e565b6129713083614fbd565b7f000000000000000000000000000000000000000000000000000000000000000073ffffffffffffffffffffffffffffffffffffffff1663a9059cbb86866040518363ffffffff1660e01b81526004016129cc929190615c1c565b602060405180830381600087803b1580156129e657600080fd5b505af11580156129fa573d6000803e3d6000fd5b505050506040513d601f19601f82011682018060405250810190612a1e9190615895565b612a5d576040517f08c379a0000000000000000000000000000000000000000000000000000000008152600401612a5490615de2565b60405180910390fd5b7f000000000000000000000000000000000000000000000000000000000000000073ffffffffffffffffffffffffffffffffffffffff1663a9059cbb86856040518363ffffffff1660e01b8152600401612ab8929190615c1c565b602060405180830381600087803b158015612ad257600080fd5b505af1158015612ae6573d6000803e3d6000fd5b505050506040513d601f19601f82011682018060405250810190612b0a9190615895565b612b49576040517f08c379a0000000000000000000000000000000000000000000000000000000008152600401612b4090615de2565b60405180910390fd5b8473ffffffffffffffffffffffffffffffffffffffff167f59c3a0b60c6ab7deb62e1440c9e72441db6db7dfe514dba8cb18e60c0d896efa858585604051612b9393929190615f46565b60405180910390a25050915091565b60025481565b60085481565b600080612bb96148ea565b73ffffffffffffffffffffffffffffffffffffffff166332fe7b266040518163ffffffff1660e01b815260040160206040518083038186803b158015612bfe57600080fd5b505afa158015612c12573d6000803e3d6000fd5b505050506040513d601f19601f82011682018060405250810190612c3691906157a5565b73ffffffffffffffffffffffffffffffffffffffff163373ffffffffffffffffffffffffffffffffffffffff161480612d1e5750612c726148ea565b73ffffffffffffffffffffffffffffffffffffffff16632ab24e496040518163ffffffff1660e01b815260040160206040518083038186803b158015612cb757600080fd5b505afa158015612ccb573d6000803e3d6000fd5b505050506040513d601f19601f82011682018060405250810190612cef91906157a5565b73ffffffffffffffffffffffffffffffffffffffff163373ffffffffffffffffffffffffffffffffffffffff16145b80612dd85750612d2c6148ea565b73ffffffffffffffffffffffffffffffffffffffff1663b99b0a0c6040518163ffffffff1660e01b815260040160206040518083038186803b158015612d7157600080fd5b505afa158015612d85573d6000803e3d6000fd5b505050506040513d601f19601f82011682018060405250810190612da991906157a5565b73ffffffffffffffffffffffffffffffffffffffff163373ffffffffffffffffffffffffffffffffffffffff16145b612de157600080fd5b6000612deb613460565b9050600073ffffffffffffffffffffffffffffffffffffffff168173ffffffffffffffffffffffffffffffffffffffff161415612e5d576040517f08c379a0000000000000000000000000000000000000000000000000000000008152600401612e5490615da2565b60405180910390fd5b6000612e676148ea565b73ffffffffffffffffffffffffffffffffffffffff16637b0e5c456040518163ffffffff1660e01b815260040160206040518083038186803b158015612eac57600080fd5b505afa158015612ec0573d6000803e3d6000fd5b505050506040513d601f19601f82011682018060405250810190612ee491906157a5565b905060008273ffffffffffffffffffffffffffffffffffffffff166318160ddd6040518163ffffffff1660e01b815260040160206040518083038186803b158015612f2e57600080fd5b505afa158015612f42573d6000803e3d6000fd5b505050506040513d601f19601f82011682018060405250810190612f669190615910565b905060008373ffffffffffffffffffffffffffffffffffffffff166370a08231306040518263ffffffff1660e01b8152600401612fa39190615c01565b60206040518083038186803b158015612fbb57600080fd5b505afa158015612fcf573d6000803e3d6000fd5b505050506040513d601f19601f82011682018060405250810190612ff39190615910565b9050600061271060105460095461300a91906160d3565b61301491906160a2565b90506000612710600f5460095461302b91906160d3565b61303591906160a2565b9050600060085490508285101561304a578294505b81811015613056578190505b60008673ffffffffffffffffffffffffffffffffffffffff1663701baaf38688601054613083919061612d565b85600f54613091919061604c565b6040518463ffffffff1660e01b81526004016130af93929190615f46565b60206040518083038186803b1580156130c757600080fd5b505afa1580156130db573d6000803e3d6000fd5b505050506040513d601f19601f820116820180604052508101906130ff9190615910565b90508673ffffffffffffffffffffffffffffffffffffffff1663896a708c868860105461312c919061612d565b85600f5461313a919061604c565b6040518463ffffffff1660e01b815260040161315893929190615f46565b60206040518083038186803b15801561317057600080fd5b505afa158015613184573d6000803e3d6000fd5b505050506040513d601f19601f820116820180604052508101906131a89190615910565b985085600854866131b991906160d3565b6131c391906160a2565b600860008282546131d4919061612d565b925050819055506131e681600061530e565b6131ef8961534c565b60008873ffffffffffffffffffffffffffffffffffffffff166386450495876040518263ffffffff1660e01b815260040161322a9190615ea2565b602060405180830381600087803b15801561324457600080fd5b505af1158015613258573d6000803e3d6000fd5b505050506040513d601f19601f8201168201806040525081019061327c9190615910565b90506132888982614fbd565b7f000000000000000000000000000000000000000000000000000000000000000073ffffffffffffffffffffffffffffffffffffffff1663a9059cbb8d846040518363ffffffff1660e01b81526004016132e3929190615c1c565b602060405180830381600087803b1580156132fd57600080fd5b505af1158015613311573d6000803e3d6000fd5b505050506040513d601f19601f820116820180604052508101906133359190615895565b613374576040517f08c379a000000000000000000000000000000000000000000000000000000000815260040161336b90615de2565b60405180910390fd5b8b73ffffffffffffffffffffffffffffffffffffffff167f6f3ac8cc4850a948dddb5c85957bbaadcbea6e4b2cef3f02f6af53fcf2596f568383898e6040516133c09493929190615f7d565b60405180910390a2819a50505050505050505050915091565b6000600e60008473ffffffffffffffffffffffffffffffffffffffff1673ffffffffffffffffffffffffffffffffffffffff16815260200190815260200160002060008373ffffffffffffffffffffffffffffffffffffffff1673ffffffffffffffffffffffffffffffffffffffff16815260200190815260200160002054905092915050565b600061346a6148ea565b73ffffffffffffffffffffffffffffffffffffffff1663b93ec54b6040518163ffffffff1660e01b815260040160206040518083038186803b1580156134af57600080fd5b505afa1580156134c3573d6000803e3d6000fd5b505050506040513d601f19601f820116820180604052508101906134e791906157a5565b73ffffffffffffffffffffffffffffffffffffffff1663dcec81167f00000000000000000000000000000000000000000000000000000000000000006040518263ffffffff1660e01b815260040161353f9190615c01565b60206040518083038186803b15801561355757600080fd5b505afa15801561356b573d6000803e3d6000fd5b505050506040513d601f19601f8201168201806040525081019061358f91906157a5565b905090565b7f000000000000000000000000000000000000000000000000000000000000000081565b60105481565b601481815481106135ce57600080fd5b906000526020600020016000915090505481565b6000806135ed6148ea565b73ffffffffffffffffffffffffffffffffffffffff166332fe7b266040518163ffffffff1660e01b815260040160206040518083038186803b15801561363257600080fd5b505afa158015613646573d6000803e3d6000fd5b505050506040513d601f19601f8201168201806040525081019061366a91906157a5565b73ffffffffffffffffffffffffffffffffffffffff163373ffffffffffffffffffffffffffffffffffffffff16148061375257506136a66148ea565b73ffffffffffffffffffffffffffffffffffffffff16632ab24e496040518163ffffffff1660e01b815260040160206040518083038186803b1580156136eb57600080fd5b505afa1580156136ff573d6000803e3d6000fd5b505050506040513d601f19601f8201168201806040525081019061372391906157a5565b73ffffffffffffffffffffffffffffffffffffffff163373ffffffffffffffffffffffffffffffffffffffff16145b8061380c57506137606148ea565b73ffffffffffffffffffffffffffffffffffffffff1663b99b0a0c6040518163ffffffff1660e01b815260040160206040518083038186803b1580156137a557600080fd5b505afa1580156137b9573d6000803e3d6000fd5b505050506040513d601f19601f820116820180604052508101906137dd91906157a5565b73ffffffffffffffffffffffffffffffffffffffff163373ffffffffffffffffffffffffffffffffffffffff16145b61381557600080fd5b600061381f613460565b90506138296148ea565b73ffffffffffffffffffffffffffffffffffffffff1663b93ec54b6040518163ffffffff1660e01b815260040160206040518083038186803b15801561386e57600080fd5b505afa158015613882573d6000803e3d6000fd5b505050506040513d601f19601f820116820180604052508101906138a691906157a5565b73ffffffffffffffffffffffffffffffffffffffff16635e0237ea826040518263ffffffff1660e01b81526004016138de9190615c01565b60206040518083038186803b1580156138f657600080fd5b505afa15801561390a573d6000803e3d6000fd5b505050506040513d601f19601f8201168201806040525081019061392e9190615895565b61396d576040517f08c379a000000000000000000000000000000000000000000000000000000000815260040161396490615da2565b60405180910390fd5b60006139776148ea565b73ffffffffffffffffffffffffffffffffffffffff16637b0e5c456040518163ffffffff1660e01b815260040160206040518083038186803b1580156139bc57600080fd5b505afa1580156139d0573d6000803e3d6000fd5b505050506040513d601f19601f820116820180604052508101906139f491906157a5565b90506000613a00614c4e565b905060025481600f54613a13919061604c565b10613a53576040517f08c379a0000000000000000000000000000000000000000000000000000000008152600401613a4a90615e02565b60405180910390fd5b60008373ffffffffffffffffffffffffffffffffffffffff166318160ddd6040518163ffffffff1660e01b815260040160206040518083038186803b158015613a9b57600080fd5b505afa158015613aaf573d6000803e3d6000fd5b505050506040513d601f19601f82011682018060405250810190613ad39190615910565b90506000612710601054600954613aea91906160d3565b613af491906160a2565b90506000612710600f54600954613b0b91906160d3565b613b1591906160a2565b90506000600854905082841015613b2a578293505b81811015613b36578190505b8573ffffffffffffffffffffffffffffffffffffffff1663701baaf38683600f54613b61919061604c565b87601054613b6f919061612d565b6040518463ffffffff1660e01b8152600401613b8d93929190615f46565b60206040518083038186803b158015613ba557600080fd5b505afa158015613bb9573d6000803e3d6000fd5b505050506040513d601f19601f82011682018060405250810190613bdd9190615910565b98506000612710600154601054613bf491906160d3565b613bfe91906160a2565b90508560086000828254613c12919061604c565b92505081905550808873ffffffffffffffffffffffffffffffffffffffff166318160ddd6040518163ffffffff1660e01b815260040160206040518083038186803b158015613c6057600080fd5b505afa158015613c74573d6000803e3d6000fd5b505050506040513d601f19601f82011682018060405250810190613c989190615910565b8b613ca3919061604c565b10613ce3576040517f08c379a0000000000000000000000000000000000000000000000000000000008152600401613cda90615e42565b60405180910390fd5b60008773ffffffffffffffffffffffffffffffffffffffff1663b86a82ef88306040518363ffffffff1660e01b8152600401613d20929190615ebd565b60206040518083038186803b158015613d3857600080fd5b505afa158015613d4c573d6000803e3d6000fd5b505050506040513d601f19601f82011682018060405250810190613d709190615910565b9050613d7d8760006152d0565b60008873ffffffffffffffffffffffffffffffffffffffff1663896a708c8986600f54613daa919061604c565b8a601054613db8919061612d565b6040518463ffffffff1660e01b8152600401613dd693929190615f46565b60206040518083038186803b158015613dee57600080fd5b505afa158015613e02573d6000803e3d6000fd5b505050506040513d601f19601f82011682018060405250810190613e269190615910565b90508873ffffffffffffffffffffffffffffffffffffffff1663c19387df7f0000000000000000000000000000000000000000000000000000000000000000836040518363ffffffff1660e01b8152600401613e83929190615c1c565b60206040518083038186803b158015613e9b57600080fd5b505afa158015613eaf573d6000803e3d6000fd5b505050506040513d601f19601f82011682018060405250810190613ed39190615910565b9a50613edf8a83615187565b8973ffffffffffffffffffffffffffffffffffffffff166332f302e38e8e6040518363ffffffff1660e01b8152600401613f1a929190615c1c565b602060405180830381600087803b158015613f3457600080fd5b505af1158015613f48573d6000803e3d6000fd5b505050506040513d601f19601f82011682018060405250810190613f6c9190615910565b50613f768b61534c565b8c73ffffffffffffffffffffffffffffffffffffffff167fbaff1e38597e99ccc6d6abf0e271a32ee3dc24114ea5bec3f05afd9bbb19f1f589848f8f604051613fc29493929190615f7d565b60405180910390a250505050505050505050915091565b613fe16148ea565b73ffffffffffffffffffffffffffffffffffffffff166332fe7b266040518163ffffffff1660e01b815260040160206040518083038186803b15801561402657600080fd5b505afa15801561403a573d6000803e3d6000fd5b505050506040513d601f19601f8201168201806040525081019061405e91906157a5565b73ffffffffffffffffffffffffffffffffffffffff163373ffffffffffffffffffffffffffffffffffffffff161480614146575061409a6148ea565b73ffffffffffffffffffffffffffffffffffffffff16632ab24e496040518163ffffffff1660e01b815260040160206040518083038186803b1580156140df57600080fd5b505afa1580156140f3573d6000803e3d6000fd5b505050506040513d601f19601f8201168201806040525081019061411791906157a5565b73ffffffffffffffffffffffffffffffffffffffff163373ffffffffffffffffffffffffffffffffffffffff16145b8061420057506141546148ea565b73ffffffffffffffffffffffffffffffffffffffff1663b99b0a0c6040518163ffffffff1660e01b815260040160206040518083038186803b15801561419957600080fd5b505afa1580156141ad573d6000803e3d6000fd5b505050506040513d601f19601f820116820180604052508101906141d191906157a5565b73ffffffffffffffffffffffffffffffffffffffff163373ffffffffffffffffffffffffffffffffffffffff16145b61420957600080fd5b610244811061424d576040517f08c379a000000000000000000000000000000000000000000000000000000000815260040161424490615dc2565b60405180910390fd5b600660009054906101000a900460ff1615600660006101000a81548160ff0219169083151502179055508042614283919061604c565b60048190555050565b6142946148ea565b73ffffffffffffffffffffffffffffffffffffffff166398fabd3a6040518163ffffffff1660e01b815260040160206040518083038186803b1580156142d957600080fd5b505afa1580156142ed573d6000803e3d6000fd5b505050506040513d601f19601f8201168201806040525081019061431191906157a5565b73ffffffffffffffffffffffffffffffffffffffff163373ffffffffffffffffffffffffffffffffffffffff161461434857600080fd5b7f000000000000000000000000000000000000000000000000000000000000000073ffffffffffffffffffffffffffffffffffffffff166370a08231306040518263ffffffff1660e01b81526004016143a19190615c01565b60206040518083038186803b1580156143b957600080fd5b505afa1580156143cd573d6000803e3d6000fd5b505050506040513d601f19601f820116820180604052508101906143f19190615910565b600f819055507f000000000000000000000000000000000000000000000000000000000000000073ffffffffffffffffffffffffffffffffffffffff166370a08231306040518263ffffffff1660e01b81526004016144509190615c01565b60206040518083038186803b15801561446857600080fd5b505afa15801561447c573d6000803e3d6000fd5b505050506040513d601f19601f820116820180604052508101906144a09190615910565b601081905550565b600073ffffffffffffffffffffffffffffffffffffffff168373ffffffffffffffffffffffffffffffffffffffff161415614518576040517f08c379a000000000000000000000000000000000000000000000000000000000815260040161450f90615e82565b60405180910390fd5b600073ffffffffffffffffffffffffffffffffffffffff168273ffffffffffffffffffffffffffffffffffffffff161415614588576040517f08c379a000000000000000000000000000000000000000000000000000000000815260040161457f90615d82565b60405180910390fd5b80600e60008573ffffffffffffffffffffffffffffffffffffffff1673ffffffffffffffffffffffffffffffffffffffff16815260200190815260200160002060008473ffffffffffffffffffffffffffffffffffffffff1673ffffffffffffffffffffffffffffffffffffffff168152602001908152602001600020819055508173ffffffffffffffffffffffffffffffffffffffff168373ffffffffffffffffffffffffffffffffffffffff167f8c5be1e5ebec7d5bd14f71427d1e84f3dd0314c0f7b2291e5b200ac8c7c3b925836040516146669190615ea2565b60405180910390a3505050565b600073ffffffffffffffffffffffffffffffffffffffff168373ffffffffffffffffffffffffffffffffffffffff1614156146e3576040517f08c379a00000000000000000000000000000000000000000000000000000000081526004016146da90615e22565b60405180910390fd5b600073ffffffffffffffffffffffffffffffffffffffff168273ffffffffffffffffffffffffffffffffffffffff161415614753576040517f08c379a000000000000000000000000000000000000000000000000000000000815260040161474a90615d62565b60405180910390fd5b6000600d60008573ffffffffffffffffffffffffffffffffffffffff1673ffffffffffffffffffffffffffffffffffffffff168152602001908152602001600020549050818110156147da576040517f08c379a00000000000000000000000000000000000000000000000000000000081526004016147d190615d02565b60405180910390fd5b81816147e6919061612d565b600d60008673ffffffffffffffffffffffffffffffffffffffff1673ffffffffffffffffffffffffffffffffffffffff1681526020019081526020016000208190555081600d60008573ffffffffffffffffffffffffffffffffffffffff1673ffffffffffffffffffffffffffffffffffffffff1681526020019081526020016000206000828254614878919061604c565b925050819055508273ffffffffffffffffffffffffffffffffffffffff168473ffffffffffffffffffffffffffffffffffffffff167fddf252ad1be2c89b69c2b068fc378daa952ba7f163c4a11628f55a4df523b3ef846040516148dc9190615ea2565b60405180910390a350505050565b60007f000000000000000000000000000000000000000000000000000000000000000073ffffffffffffffffffffffffffffffffffffffff166398fabd3a6040518163ffffffff1660e01b815260040160206040518083038186803b15801561495257600080fd5b505afa158015614966573d6000803e3d6000fd5b505050506040513d601f19601f8201168201806040525081019061498a91906158be565b905090565b6000807f000000000000000000000000000000000000000000000000000000000000000073ffffffffffffffffffffffffffffffffffffffff166370a08231306040518263ffffffff1660e01b81526004016149eb9190615c01565b60206040518083038186803b158015614a0357600080fd5b505afa158015614a17573d6000803e3d6000fd5b505050506040513d601f19601f82011682018060405250810190614a3b9190615910565b9050601054811115614a5c5760105481614a55919061612d565b9150614a61565b600091505b5090565b600080600060105490506000600f5490506000614a806148ea565b73ffffffffffffffffffffffffffffffffffffffff16637b0e5c456040518163ffffffff1660e01b815260040160206040518083038186803b158015614ac557600080fd5b505afa158015614ad9573d6000803e3d6000fd5b505050506040513d601f19601f82011682018060405250810190614afd91906157a5565b90508073ffffffffffffffffffffffffffffffffffffffff1663701baaf38785856040518463ffffffff1660e01b8152600401614b3c93929190615f46565b60206040518083038186803b158015614b5457600080fd5b505afa158015614b68573d6000803e3d6000fd5b505050506040513d601f19601f82011682018060405250810190614b8c9190615910565b94508073ffffffffffffffffffffffffffffffffffffffff1663896a708c8785856040518463ffffffff1660e01b8152600401614bcb93929190615f46565b60206040518083038186803b158015614be357600080fd5b505afa158015614bf7573d6000803e3d6000fd5b505050506040513d601f19601f82011682018060405250810190614c1b9190615910565b9350614c3d8583614c2c919061612d565b8785614c38919061604c565b6153b5565b614c468461534c565b505050915091565b6000807f000000000000000000000000000000000000000000000000000000000000000073ffffffffffffffffffffffffffffffffffffffff166370a08231306040518263ffffffff1660e01b8152600401614caa9190615c01565b60206040518083038186803b158015614cc257600080fd5b505afa158015614cd6573d6000803e3d6000fd5b505050506040513d601f19601f82011682018060405250810190614cfa9190615910565b9050600f54811115614d1b57600f5481614d14919061612d565b9150614d20565b600091505b5090565b6000806000600f549050600060105490506000614d3f6148ea565b73ffffffffffffffffffffffffffffffffffffffff16637b0e5c456040518163ffffffff1660e01b815260040160206040518083038186803b158015614d8457600080fd5b505afa158015614d98573d6000803e3d6000fd5b505050506040513d601f19601f82011682018060405250810190614dbc91906157a5565b90508073ffffffffffffffffffffffffffffffffffffffff1663701baaf38785856040518463ffffffff1660e01b8152600401614dfb93929190615f46565b60206040518083038186803b158015614e1357600080fd5b505afa158015614e27573d6000803e3d6000fd5b505050506040513d601f19601f82011682018060405250810190614e4b9190615910565b945060008173ffffffffffffffffffffffffffffffffffffffff1663896a708c8886866040518463ffffffff1660e01b8152600401614e8c93929190615f46565b60206040518083038186803b158015614ea457600080fd5b505afa158015614eb8573d6000803e3d6000fd5b505050506040513d601f19601f82011682018060405250810190614edc9190615910565b90508173ffffffffffffffffffffffffffffffffffffffff1663c19387df7f0000000000000000000000000000000000000000000000000000000000000000836040518363ffffffff1660e01b8152600401614f39929190615c1c565b60206040518083038186803b158015614f5157600080fd5b505afa158015614f65573d6000803e3d6000fd5b505050506040513d601f19601f82011682018060405250810190614f899190615910565b9450614fab8785614f9a919061604c565b8785614fa6919061612d565b6153b5565b614fb48561534c565b50505050915091565b600073ffffffffffffffffffffffffffffffffffffffff168273ffffffffffffffffffffffffffffffffffffffff16141561502d576040517f08c379a000000000000000000000000000000000000000000000000000000000815260040161502490615c82565b60405180910390fd5b6000600d60008473ffffffffffffffffffffffffffffffffffffffff1673ffffffffffffffffffffffffffffffffffffffff168152602001908152602001600020549050818110156150b4576040517f08c379a00000000000000000000000000000000000000000000000000000000081526004016150ab90615d02565b60405180910390fd5b81816150c0919061612d565b600d60008573ffffffffffffffffffffffffffffffffffffffff1673ffffffffffffffffffffffffffffffffffffffff1681526020019081526020016000208190555081600c6000828254615115919061612d565b92505081905550600073ffffffffffffffffffffffffffffffffffffffff168373ffffffffffffffffffffffffffffffffffffffff167fddf252ad1be2c89b69c2b068fc378daa952ba7f163c4a11628f55a4df523b3ef8460405161517a9190615ea2565b60405180910390a3505050565b600073ffffffffffffffffffffffffffffffffffffffff168273ffffffffffffffffffffffffffffffffffffffff1614156151f7576040517f08c379a00000000000000000000000000000000000000000000000000000000081526004016151ee90615c82565b60405180910390fd5b80600c6000828254615209919061604c565b9250508190555080600d60008473ffffffffffffffffffffffffffffffffffffffff1673ffffffffffffffffffffffffffffffffffffffff168152602001908152602001600020600082825461525f919061604c565b925050819055508173ffffffffffffffffffffffffffffffffffffffff16600073ffffffffffffffffffffffffffffffffffffffff167fddf252ad1be2c89b69c2b068fc378daa952ba7f163c4a11628f55a4df523b3ef836040516152c49190615ea2565b60405180910390a35050565b81600f60008282546152e2919061604c565b9250508190555080601060008282546152fb919061604c565b9250508190555061530a6153cf565b5050565b81600f6000828254615320919061612d565b925050819055508060106000828254615339919061612d565b925050819055506153486153cf565b5050565b6000601154141561535f57426011819055505b62278d00601154615370919061604c565b421161538f5780601254615384919061604c565b6012819055506153b2565b426011819055506012546013819055506153aa60135461551c565b806012819055505b50565b81600f81905550806010819055506153cb6153cf565b5050565b6000601054600f54600f546153e491906160d3565b6153ee91906160a2565b90506000600354821115615411576003548261540a919061612d565b9050615422565b8160035461541f919061612d565b90505b816127108261543191906160d3565b61543b91906160a2565b90506005548110615466576001600660006101000a81548160ff02191690831515021790555061548d565b60045442111561548c57610e104261547e919061604c565b600481905550816003819055505b5b600660009054906101000a900460ff16156155185760055481116154c7576000600660006101000a81548160ff0219169083151502179055505b60045442111561551757610e10426154df919061604c565b60048190555060006004600380546154f791906160d3565b84615502919061604c565b61550c91906160a2565b905080600381905550505b5b5050565b6000601480548060200260200160405190810160405280929190818152602001828054801561556a57602002820191906000526020600020905b815481526020019060010190808311615556575b5050505050905060028151141561566657806001815181106155b5577f4e487b7100000000000000000000000000000000000000000000000000000000600052603260045260246000fd5b6020026020010151816000815181106155f7577f4e487b7100000000000000000000000000000000000000000000000000000000600052603260045260246000fd5b602002602001018181525050818160018151811061563e577f4e487b7100000000000000000000000000000000000000000000000000000000600052603260045260246000fd5b6020026020010181815250508060149080519060200190615660929190615694565b50615690565b60148290806001815401808255809150506001900390600052602060002001600090919091909150555b5050565b8280548282559060005260206000209081019282156156d0579160200282015b828111156156cf5782518255916020019190600101906156b4565b5b5090506156dd91906156e1565b5090565b5b808211156156fa5760008160009055506001016156e2565b5090565b60008135905061570d81616584565b92915050565b60008151905061572281616584565b92915050565b6000815190506157378161659b565b92915050565b60008151905061574c816165b2565b92915050565b600081359050615761816165c9565b92915050565b600081519050615776816165c9565b92915050565b60006020828403121561578e57600080fd5b600061579c848285016156fe565b91505092915050565b6000602082840312156157b757600080fd5b60006157c584828501615713565b91505092915050565b600080604083850312156157e157600080fd5b60006157ef858286016156fe565b9250506020615800858286016156fe565b9150509250929050565b60008060006060848603121561581f57600080fd5b600061582d868287016156fe565b935050602061583e868287016156fe565b925050604061584f86828701615752565b9150509250925092565b6000806040838503121561586c57600080fd5b600061587a858286016156fe565b925050602061588b85828601615752565b9150509250929050565b6000602082840312156158a757600080fd5b60006158b584828501615728565b91505092915050565b6000602082840312156158d057600080fd5b60006158de8482850161573d565b91505092915050565b6000602082840312156158f957600080fd5b600061590784828501615752565b91505092915050565b60006020828403121561592257600080fd5b600061593084828501615767565b91505092915050565b61594281616161565b82525050565b61595181616173565b82525050565b600061596282616030565b61596c818561603b565b935061597c8185602086016161c8565b615985816162ba565b840191505092915050565b600061599d60088361603b565b91506159a8826162cb565b602082019050919050565b60006159c060048361603b565b91506159cb826162f4565b602082019050919050565b60006159e360098361603b565b91506159ee8261631d565b602082019050919050565b6000615a0660098361603b565b9150615a1182616346565b602082019050919050565b6000615a2960088361603b565b9150615a348261636f565b602082019050919050565b6000615a4c600c8361603b565b9150615a5782616398565b602082019050919050565b6000615a6f60068361603b565b9150615a7a826163c1565b602082019050919050565b6000615a9260058361603b565b9150615a9d826163ea565b602082019050919050565b6000615ab560088361603b565b9150615ac082616413565b602082019050919050565b6000615ad860068361603b565b9150615ae38261643c565b602082019050919050565b6000615afb60068361603b565b9150615b0682616465565b602082019050919050565b6000615b1e60098361603b565b9150615b298261648e565b602082019050919050565b6000615b4160038361603b565b9150615b4c826164b7565b602082019050919050565b6000615b6460078361603b565b9150615b6f826164e0565b602082019050919050565b6000615b8760068361603b565b9150615b9282616509565b602082019050919050565b6000615baa600a8361603b565b9150615bb582616532565b602082019050919050565b6000615bcd60068361603b565b9150615bd88261655b565b602082019050919050565b615bec816161b1565b82525050565b615bfb816161bb565b82525050565b6000602082019050615c166000830184615939565b92915050565b6000604082019050615c316000830185615939565b615c3e6020830184615be3565b9392505050565b6000602082019050615c5a6000830184615948565b92915050565b60006020820190508181036000830152615c7a8184615957565b905092915050565b60006020820190508181036000830152615c9b81615990565b9050919050565b60006020820190508181036000830152615cbb816159b3565b9050919050565b60006020820190508181036000830152615cdb816159d6565b9050919050565b60006020820190508181036000830152615cfb816159f9565b9050919050565b60006020820190508181036000830152615d1b81615a1c565b9050919050565b60006020820190508181036000830152615d3b81615a3f565b9050919050565b60006020820190508181036000830152615d5b81615a62565b9050919050565b60006020820190508181036000830152615d7b81615a85565b9050919050565b60006020820190508181036000830152615d9b81615aa8565b9050919050565b60006020820190508181036000830152615dbb81615acb565b9050919050565b60006020820190508181036000830152615ddb81615aee565b9050919050565b60006020820190508181036000830152615dfb81615b11565b9050919050565b60006020820190508181036000830152615e1b81615b34565b9050919050565b60006020820190508181036000830152615e3b81615b57565b9050919050565b60006020820190508181036000830152615e5b81615b7a565b9050919050565b60006020820190508181036000830152615e7b81615b9d565b9050919050565b60006020820190508181036000830152615e9b81615bc0565b9050919050565b6000602082019050615eb76000830184615be3565b92915050565b6000604082019050615ed26000830185615be3565b615edf6020830184615939565b9392505050565b6000606082019050615efb6000830186615be3565b615f086020830185615939565b615f156040830184615939565b949350505050565b6000604082019050615f326000830185615be3565b615f3f6020830184615be3565b9392505050565b6000606082019050615f5b6000830186615be3565b615f686020830185615be3565b615f756040830184615be3565b949350505050565b6000608082019050615f926000830187615be3565b615f9f6020830186615be3565b615fac6040830185615be3565b615fb96060830184615be3565b95945050505050565b600060a082019050615fd76000830188615be3565b615fe46020830187615be3565b615ff16040830186615be3565b615ffe6060830185615be3565b61600b6080830184615be3565b9695505050505050565b600060208201905061602a6000830184615bf2565b92915050565b600081519050919050565b600082825260208201905092915050565b6000616057826161b1565b9150616062836161b1565b9250827fffffffffffffffffffffffffffffffffffffffffffffffffffffffffffffffff038211156160975761609661622d565b5b828201905092915050565b60006160ad826161b1565b91506160b8836161b1565b9250826160c8576160c761625c565b5b828204905092915050565b60006160de826161b1565b91506160e9836161b1565b9250817fffffffffffffffffffffffffffffffffffffffffffffffffffffffffffffffff04831182151516156161225761612161622d565b5b828202905092915050565b6000616138826161b1565b9150616143836161b1565b9250828210156161565761615561622d565b5b828203905092915050565b600061616c82616191565b9050919050565b60008115159050919050565b600061618a82616161565b9050919050565b600073ffffffffffffffffffffffffffffffffffffffff82169050919050565b6000819050919050565b600060ff82169050919050565b60005b838110156161e65780820151818401526020810190506161cb565b838111156161f5576000848401525b50505050565b6000600282049050600182168061621357607f821691505b602082108114156162275761622661628b565b5b50919050565b7f4e487b7100000000000000000000000000000000000000000000000000000000600052601160045260246000fd5b7f4e487b7100000000000000000000000000000000000000000000000000000000600052601260045260246000fd5b7f4e487b7100000000000000000000000000000000000000000000000000000000600052602260045260246000fd5b6000601f19601f8301169050919050565b7f216163636f756e74000000000000000000000000000000000000000000000000600082015250565b7f214d415800000000000000000000000000000000000000000000000000000000600082015250565b7f21617070726f76616c0000000000000000000000000000000000000000000000600082015250565b7f2142616c616e6365640000000000000000000000000000000000000000000000600082015250565b7f2162616c616e6365000000000000000000000000000000000000000000000000600082015250565b7f21424153457c7c544f4b454e0000000000000000000000000000000000000000600082015250565b7f2153594e54480000000000000000000000000000000000000000000000000000600082015250565b7f214255524e000000000000000000000000000000000000000000000000000000600082015250565b7f217370656e646572000000000000000000000000000000000000000000000000600082015250565b7f2173796e74680000000000000000000000000000000000000000000000000000600082015250565b7f2156414c49440000000000000000000000000000000000000000000000000000600082015250565b7f217472616e736665720000000000000000000000000000000000000000000000600082015250565b7f5254430000000000000000000000000000000000000000000000000000000000600082015250565b7f2173656e64657200000000000000000000000000000000000000000000000000600082015250565b7f4341505045440000000000000000000000000000000000000000000000000000600082015250565b7f21494e4954494154454400000000000000000000000000000000000000000000600082015250565b7f216f776e65720000000000000000000000000000000000000000000000000000600082015250565b61658d81616161565b811461659857600080fd5b50565b6165a481616173565b81146165af57600080fd5b50565b6165bb8161617f565b81146165c657600080fd5b50565b6165d2816161b1565b81146165dd57600080fd5b5056fea2646970667358221220c3a47e583f0ed7944891f7612db3548be22f30fd1fc5cd4a67e16356675038be64736f6c63430008030033a26469706673582212200377616370c3ad945ab33a0c18a3fa795468ba14f94a30026c27c0e64b16b21c64736f6c63430008030033",
  "linkReferences": {},
  "deployedLinkReferences": {}
}