{
  "_format": "hh-sol-artifact-1",
  "contractName": "PoolFactory",
  "sourceName": "contracts/poolFactory.sol",
  "abi": [
    {
      "inputs": [
        {
          "internalType": "address",
          "name": "_base",
          "type": "address"
        },
        {
          "internalType": "address",
          "name": "_wbnb",
          "type": "address"
        }
      ],
      "stateMutability": "nonpayable",
      "type": "constructor"
    },
    {
      "anonymous": false,
      "inputs": [
        {
          "indexed": true,
          "internalType": "address",
          "name": "pool",
          "type": "address"
        }
      ],
      "name": "AddCuratePool",
      "type": "event"
    },
    {
      "anonymous": false,
      "inputs": [
        {
          "indexed": true,
          "internalType": "address",
          "name": "token",
          "type": "address"
        },
        {
          "indexed": true,
          "internalType": "address",
          "name": "pool",
          "type": "address"
        }
      ],
      "name": "CreatePool",
      "type": "event"
    },
    {
      "anonymous": false,
      "inputs": [
        {
          "indexed": true,
          "internalType": "address",
          "name": "pool",
          "type": "address"
        }
      ],
      "name": "RemoveCuratePool",
      "type": "event"
    },
    {
      "inputs": [
        {
          "internalType": "address",
          "name": "token",
          "type": "address"
        }
      ],
      "name": "addCuratedPool",
      "outputs": [],
      "stateMutability": "nonpayable",
      "type": "function"
    },
    {
      "inputs": [
        {
          "internalType": "uint256",
          "name": "inputBase",
          "type": "uint256"
        },
        {
          "internalType": "uint256",
          "name": "inputToken",
          "type": "uint256"
        },
        {
          "internalType": "address",
          "name": "token",
          "type": "address"
        }
      ],
      "name": "createPoolADD",
      "outputs": [
        {
          "internalType": "address",
          "name": "pool",
          "type": "address"
        }
      ],
      "stateMutability": "payable",
      "type": "function"
    },
    {
      "inputs": [],
      "name": "curatedPoolCount",
      "outputs": [
        {
          "internalType": "uint256",
          "name": "",
          "type": "uint256"
        }
      ],
      "stateMutability": "view",
      "type": "function"
    },
    {
      "inputs": [
        {
          "internalType": "address",
          "name": "token",
          "type": "address"
        }
      ],
      "name": "getPool",
      "outputs": [
        {
          "internalType": "address",
          "name": "pool",
          "type": "address"
        }
      ],
      "stateMutability": "view",
      "type": "function"
    },
    {
      "inputs": [],
      "name": "getPoolAssets",
      "outputs": [
        {
          "internalType": "address[]",
          "name": "pools",
          "type": "address[]"
        }
      ],
      "stateMutability": "view",
      "type": "function"
    },
    {
      "inputs": [],
      "name": "getTokenAssets",
      "outputs": [
        {
          "internalType": "address[]",
          "name": "tokens",
          "type": "address[]"
        }
      ],
      "stateMutability": "view",
      "type": "function"
    },
    {
      "inputs": [],
      "name": "getVaultAssets",
      "outputs": [
        {
          "internalType": "address[]",
          "name": "assets",
          "type": "address[]"
        }
      ],
      "stateMutability": "view",
      "type": "function"
    },
    {
      "inputs": [
        {
          "internalType": "address",
          "name": "",
          "type": "address"
        }
      ],
      "name": "isCuratedPool",
      "outputs": [
        {
          "internalType": "bool",
          "name": "",
          "type": "bool"
        }
      ],
      "stateMutability": "view",
      "type": "function"
    },
    {
      "inputs": [
        {
          "internalType": "address",
          "name": "",
          "type": "address"
        }
      ],
      "name": "isPool",
      "outputs": [
        {
          "internalType": "bool",
          "name": "",
          "type": "bool"
        }
      ],
      "stateMutability": "view",
      "type": "function"
    },
    {
      "inputs": [],
      "name": "purgeDeployer",
      "outputs": [],
      "stateMutability": "nonpayable",
      "type": "function"
    },
    {
      "inputs": [
        {
          "internalType": "address",
          "name": "token",
          "type": "address"
        }
      ],
      "name": "removeCuratedPool",
      "outputs": [],
      "stateMutability": "nonpayable",
      "type": "function"
    },
    {
      "inputs": [
        {
          "internalType": "uint256",
          "name": "newSize",
          "type": "uint256"
        },
        {
          "internalType": "uint256",
          "name": "_minBASE",
          "type": "uint256"
        }
      ],
      "name": "setParams",
      "outputs": [],
      "stateMutability": "nonpayable",
      "type": "function"
    }
  ],
  "bytecode": "0x60c06040523480156200001157600080fd5b50604051620087993803806200879983398181016040528101906200003791906200011d565b8173ffffffffffffffffffffffffffffffffffffffff1660808173ffffffffffffffffffffffffffffffffffffffff1660601b815250508073ffffffffffffffffffffffffffffffffffffffff1660a08173ffffffffffffffffffffffffffffffffffffffff1660601b81525050600a60018190555069021e19e0c9bab2400000600681905550336000806101000a81548173ffffffffffffffffffffffffffffffffffffffff021916908373ffffffffffffffffffffffffffffffffffffffff1602179055505050620001ac565b600081519050620001178162000192565b92915050565b600080604083850312156200013157600080fd5b6000620001418582860162000106565b9250506020620001548582860162000106565b9150509250929050565b60006200016b8262000172565b9050919050565b600073ffffffffffffffffffffffffffffffffffffffff82169050919050565b6200019d816200015e565b8114620001a957600080fd5b50565b60805160601c60a05160601c61858262000217600039600081816112ac015281816115cd01528181611b990152611c3201526000818161059a01528181610bee015281816114d4015281816115f6015281816116e2015281816117c40152611a9f01526185826000f3fe608060405260043610620000b65760003560e01c80638dcb4c93116200006d5780638dcb4c9314620001d5578063abc764da1462000219578063bbe4f6db1462000249578063c0324c77146200028d578063cb66955414620002bb578063cf3abaf114620002f157620000b6565b806303a8213814620000bb5780632b2260a814620000d557806345f6e46014620001035780635b16ebb714620001335780637ca51fbf14620001775780638bc51e3614620001a5575b600080fd5b348015620000c857600080fd5b50620000d362000321565b005b348015620000e257600080fd5b50620001016004803603810190620000fb919062001e3f565b6200047e565b005b3480156200011057600080fd5b506200011b62000a22565b6040516200012a919062002198565b60405180910390f35b3480156200014057600080fd5b506200015f600480360381019062000159919062001e3f565b62000ab2565b6040516200016e9190620021bc565b60405180910390f35b3480156200018457600080fd5b50620001a360048036038101906200019d919062001e3f565b62000ad2565b005b348015620001b257600080fd5b50620001bd620011b9565b604051620001cc9190620021d9565b60405180910390f35b348015620001e257600080fd5b50620002016004803603810190620001fb919062001e3f565b620011bf565b604051620002109190620021bc565b60405180910390f35b3480156200022657600080fd5b5062000231620011df565b60405162000240919062002198565b60405180910390f35b3480156200025657600080fd5b506200027560048036038101906200026f919062001e3f565b6200126f565b604051620002849190620020e4565b60405180910390f35b3480156200029a57600080fd5b50620002b96004803603810190620002b3919062001f1b565b62001396565b005b620002d96004803603810190620002d3919062001f5c565b620014d0565b604051620002e89190620020e4565b60405180910390f35b348015620002fe57600080fd5b506200030962001a0b565b60405162000318919062002198565b60405180910390f35b60008054906101000a900473ffffffffffffffffffffffffffffffffffffffff1673ffffffffffffffffffffffffffffffffffffffff163373ffffffffffffffffffffffffffffffffffffffff1614806200043157506200038162001a9b565b73ffffffffffffffffffffffffffffffffffffffff166398fabd3a6040518163ffffffff1660e01b815260040160206040518083038186803b158015620003c757600080fd5b505afa158015620003dc573d6000803e3d6000fd5b505050506040513d601f19601f8201168201806040525081019062000402919062001e6b565b73ffffffffffffffffffffffffffffffffffffffff163373ffffffffffffffffffffffffffffffffffffffff16145b6200043b57600080fd5b60008060006101000a81548173ffffffffffffffffffffffffffffffffffffffff021916908373ffffffffffffffffffffffffffffffffffffffff160217905550565b60008054906101000a900473ffffffffffffffffffffffffffffffffffffffff1673ffffffffffffffffffffffffffffffffffffffff163373ffffffffffffffffffffffffffffffffffffffff1614806200058e5750620004de62001a9b565b73ffffffffffffffffffffffffffffffffffffffff166398fabd3a6040518163ffffffff1660e01b815260040160206040518083038186803b1580156200052457600080fd5b505afa15801562000539573d6000803e3d6000fd5b505050506040513d601f19601f820116820180604052508101906200055f919062001e6b565b73ffffffffffffffffffffffffffffffffffffffff163373ffffffffffffffffffffffffffffffffffffffff16145b6200059857600080fd5b7f000000000000000000000000000000000000000000000000000000000000000073ffffffffffffffffffffffffffffffffffffffff168173ffffffffffffffffffffffffffffffffffffffff161415620005f257600080fd5b6000620005fe62001a9b565b73ffffffffffffffffffffffffffffffffffffffff166398fabd3a6040518163ffffffff1660e01b815260040160206040518083038186803b1580156200064457600080fd5b505afa15801562000659573d6000803e3d6000fd5b505050506040513d601f19601f820116820180604052508101906200067f919062001e6b565b73ffffffffffffffffffffffffffffffffffffffff16632b49d4256040518163ffffffff1660e01b815260040160206040518083038186803b158015620006c557600080fd5b505afa158015620006da573d6000803e3d6000fd5b505050506040513d601f19601f8201168201806040525081019062000700919062001eef565b9050600015156200071062001a9b565b73ffffffffffffffffffffffffffffffffffffffff166398fabd3a6040518163ffffffff1660e01b815260040160206040518083038186803b1580156200075657600080fd5b505afa1580156200076b573d6000803e3d6000fd5b505050506040513d601f19601f8201168201806040525081019062000791919062001e6b565b73ffffffffffffffffffffffffffffffffffffffff16638bebea89836040518263ffffffff1660e01b8152600401620007cb9190620021d9565b60206040518083038186803b158015620007e457600080fd5b505afa158015620007f9573d6000803e3d6000fd5b505050506040513d601f19601f820116820180604052508101906200081f919062001e97565b1515146200082c57600080fd5b600062000839836200126f565b905060011515600860008373ffffffffffffffffffffffffffffffffffffffff1673ffffffffffffffffffffffffffffffffffffffff16815260200190815260200160002060009054906101000a900460ff161515146200089957600080fd5b60001515600960008373ffffffffffffffffffffffffffffffffffffffff1673ffffffffffffffffffffffffffffffffffffffff16815260200190815260200160002060009054906101000a900460ff16151514620008f757600080fd5b600154600254106200090857600080fd5b6001600960008373ffffffffffffffffffffffffffffffffffffffff1673ffffffffffffffffffffffffffffffffffffffff16815260200190815260200160002060006101000a81548160ff02191690831515021790555060016002546200097191906200223a565b6002819055506005819080600181540180825580915050600190039060005260206000200160009091909190916101000a81548173ffffffffffffffffffffffffffffffffffffffff021916908373ffffffffffffffffffffffffffffffffffffffff1602179055508073ffffffffffffffffffffffffffffffffffffffff167ff21aa98dc310425cc8b86ef0a55117a759c433acf6c59d51f09ac1782a645cf860405160405180910390a2505050565b6060600380548060200260200160405190810160405280929190818152602001828054801562000aa857602002820191906000526020600020905b8160009054906101000a900473ffffffffffffffffffffffffffffffffffffffff1673ffffffffffffffffffffffffffffffffffffffff168152602001906001019080831162000a5d575b5050505050905090565b60086020528060005260406000206000915054906101000a900460ff1681565b60008054906101000a900473ffffffffffffffffffffffffffffffffffffffff1673ffffffffffffffffffffffffffffffffffffffff163373ffffffffffffffffffffffffffffffffffffffff16148062000be2575062000b3262001a9b565b73ffffffffffffffffffffffffffffffffffffffff166398fabd3a6040518163ffffffff1660e01b815260040160206040518083038186803b15801562000b7857600080fd5b505afa15801562000b8d573d6000803e3d6000fd5b505050506040513d601f19601f8201168201806040525081019062000bb3919062001e6b565b73ffffffffffffffffffffffffffffffffffffffff163373ffffffffffffffffffffffffffffffffffffffff16145b62000bec57600080fd5b7f000000000000000000000000000000000000000000000000000000000000000073ffffffffffffffffffffffffffffffffffffffff168173ffffffffffffffffffffffffffffffffffffffff16141562000c4657600080fd5b600062000c53826200126f565b90506000151562000c6362001a9b565b73ffffffffffffffffffffffffffffffffffffffff16632f7fa1806040518163ffffffff1660e01b815260040160206040518083038186803b15801562000ca957600080fd5b505afa15801562000cbe573d6000803e3d6000fd5b505050506040513d601f19601f8201168201806040525081019062000ce4919062001e6b565b73ffffffffffffffffffffffffffffffffffffffff1663f794062e836040518263ffffffff1660e01b815260040162000d1e9190620020e4565b60206040518083038186803b15801562000d3757600080fd5b505afa15801562000d4c573d6000803e3d6000fd5b505050506040513d601f19601f8201168201806040525081019062000d72919062001e97565b15151462000d7f57600080fd5b60011515600960008373ffffffffffffffffffffffffffffffffffffffff1673ffffffffffffffffffffffffffffffffffffffff16815260200190815260200160002060009054906101000a900460ff1615151462000ddd57600080fd5b6000600960008373ffffffffffffffffffffffffffffffffffffffff1673ffffffffffffffffffffffffffffffffffffffff16815260200190815260200160002060006101000a81548160ff021916908315150217905550600160025462000e46919062002297565b60028190555060005b60058054905081101562001078578173ffffffffffffffffffffffffffffffffffffffff166005828154811062000eaf577f4e487b7100000000000000000000000000000000000000000000000000000000600052603260045260246000fd5b9060005260206000200160009054906101000a900473ffffffffffffffffffffffffffffffffffffffff1673ffffffffffffffffffffffffffffffffffffffff16141562001062576005600160058054905062000f0d919062002297565b8154811062000f45577f4e487b7100000000000000000000000000000000000000000000000000000000600052603260045260246000fd5b9060005260206000200160009054906101000a900473ffffffffffffffffffffffffffffffffffffffff166005828154811062000fab577f4e487b7100000000000000000000000000000000000000000000000000000000600052603260045260246000fd5b9060005260206000200160006101000a81548173ffffffffffffffffffffffffffffffffffffffff021916908373ffffffffffffffffffffffffffffffffffffffff16021790555060058054806200102c577f4e487b7100000000000000000000000000000000000000000000000000000000600052603160045260246000fd5b6001900381819060005260206000200160006101000a81549073ffffffffffffffffffffffffffffffffffffffff021916905590555b80806200106f906200233d565b91505062000e4f565b506200108362001a9b565b73ffffffffffffffffffffffffffffffffffffffff1663b93ec54b6040518163ffffffff1660e01b815260040160206040518083038186803b158015620010c957600080fd5b505afa158015620010de573d6000803e3d6000fd5b505050506040513d601f19601f8201168201806040525081019062001104919062001e6b565b73ffffffffffffffffffffffffffffffffffffffff166335a7ede6836040518263ffffffff1660e01b81526004016200113e9190620020e4565b600060405180830381600087803b1580156200115957600080fd5b505af11580156200116e573d6000803e3d6000fd5b505050508073ffffffffffffffffffffffffffffffffffffffff167fe0e122d7131ec0f49556c4f88f13ed2b7f6624d0b88edd40870fa8715cab8b1c60405160405180910390a25050565b60025481565b60096020528060005260406000206000915054906101000a900460ff1681565b606060058054806020026020016040519081016040528092919081815260200182805480156200126557602002820191906000526020600020905b8160009054906101000a900473ffffffffffffffffffffffffffffffffffffffff1673ffffffffffffffffffffffffffffffffffffffff16815260200190600101908083116200121a575b5050505050905090565b60008073ffffffffffffffffffffffffffffffffffffffff168273ffffffffffffffffffffffffffffffffffffffff1614156200132e57600760007f000000000000000000000000000000000000000000000000000000000000000073ffffffffffffffffffffffffffffffffffffffff1673ffffffffffffffffffffffffffffffffffffffff16815260200190815260200160002060009054906101000a900473ffffffffffffffffffffffffffffffffffffffff16905062001391565b600760008373ffffffffffffffffffffffffffffffffffffffff1673ffffffffffffffffffffffffffffffffffffffff16815260200190815260200160002060009054906101000a900473ffffffffffffffffffffffffffffffffffffffff1690505b919050565b60008054906101000a900473ffffffffffffffffffffffffffffffffffffffff1673ffffffffffffffffffffffffffffffffffffffff163373ffffffffffffffffffffffffffffffffffffffff161480620014a65750620013f662001a9b565b73ffffffffffffffffffffffffffffffffffffffff166398fabd3a6040518163ffffffff1660e01b815260040160206040518083038186803b1580156200143c57600080fd5b505afa15801562001451573d6000803e3d6000fd5b505050506040513d601f19601f8201168201806040525081019062001477919062001e6b565b73ffffffffffffffffffffffffffffffffffffffff163373ffffffffffffffffffffffffffffffffffffffff16145b620014b057600080fd5b60008211620014be57600080fd5b81600181905550806006819055505050565b60007f000000000000000000000000000000000000000000000000000000000000000073ffffffffffffffffffffffffffffffffffffffff168273ffffffffffffffffffffffffffffffffffffffff1614156200152c57600080fd5b600073ffffffffffffffffffffffffffffffffffffffff166200154f836200126f565b73ffffffffffffffffffffffffffffffffffffffff16146200157057600080fd5b620186a0831180156200158557506006548410155b6200158f57600080fd5b600080839050600073ffffffffffffffffffffffffffffffffffffffff168473ffffffffffffffffffffffffffffffffffffffff161415620015f4577f00000000000000000000000000000000000000000000000000000000000000009050620016e0565b7f000000000000000000000000000000000000000000000000000000000000000073ffffffffffffffffffffffffffffffffffffffff168473ffffffffffffffffffffffffffffffffffffffff1614158015620016d5575060128473ffffffffffffffffffffffffffffffffffffffff1663313ce5676040518163ffffffff1660e01b815260040160206040518083038186803b1580156200169557600080fd5b505afa158015620016aa573d6000803e3d6000fd5b505050506040513d601f19601f82011682018060405250810190620016d0919062001fb2565b60ff16145b620016df57600080fd5b5b7f000000000000000000000000000000000000000000000000000000000000000081604051620017109062001d90565b6200171d92919062002101565b604051809103906000f0801580156200173a573d6000803e3d6000fd5b50915081925082600760008373ffffffffffffffffffffffffffffffffffffffff1673ffffffffffffffffffffffffffffffffffffffff16815260200190815260200160002060006101000a81548173ffffffffffffffffffffffffffffffffffffffff021916908373ffffffffffffffffffffffffffffffffffffffff160217905550620017eb7f0000000000000000000000000000000000000000000000000000000000000000878562001b44565b620017f884868562001b44565b6003839080600181540180825580915050600190039060005260206000200160009091909190916101000a81548173ffffffffffffffffffffffffffffffffffffffff021916908373ffffffffffffffffffffffffffffffffffffffff1602179055506004819080600181540180825580915050600190039060005260206000200160009091909190916101000a81548173ffffffffffffffffffffffffffffffffffffffff021916908373ffffffffffffffffffffffffffffffffffffffff1602179055506001600860008573ffffffffffffffffffffffffffffffffffffffff1673ffffffffffffffffffffffffffffffffffffffff16815260200190815260200160002060006101000a81548160ff0219169083151502179055508273ffffffffffffffffffffffffffffffffffffffff168173ffffffffffffffffffffffffffffffffffffffff167fdbd2a1ea6808362e6adbec4db4969cbc11e3b0b28fb6c74cb342defaaf1daada60405160405180910390a38273ffffffffffffffffffffffffffffffffffffffff166386d5f618336040518263ffffffff1660e01b8152600401620019ab9190620020e4565b602060405180830381600087803b158015620019c657600080fd5b505af1158015620019db573d6000803e3d6000fd5b505050506040513d601f19601f8201168201806040525081019062001a01919062001eef565b5050509392505050565b6060600480548060200260200160405190810160405280929190818152602001828054801562001a9157602002820191906000526020600020905b8160009054906101000a900473ffffffffffffffffffffffffffffffffffffffff1673ffffffffffffffffffffffffffffffffffffffff168152602001906001019080831162001a46575b5050505050905090565b60007f000000000000000000000000000000000000000000000000000000000000000073ffffffffffffffffffffffffffffffffffffffff166398fabd3a6040518163ffffffff1660e01b815260040160206040518083038186803b15801562001b0457600080fd5b505afa15801562001b19573d6000803e3d6000fd5b505050506040513d601f19601f8201168201806040525081019062001b3f919062001ec3565b905090565b6000821162001b5257600080fd5b600073ffffffffffffffffffffffffffffffffffffffff168373ffffffffffffffffffffffffffffffffffffffff16141562001ceb5734821462001b9557600080fd5b60007f000000000000000000000000000000000000000000000000000000000000000073ffffffffffffffffffffffffffffffffffffffff168360405162001bdd90620020cd565b60006040518083038185875af1925050503d806000811462001c1c576040519150601f19603f3d011682016040523d82523d6000602084013e62001c21565b606091505b505090508062001c3057600080fd5b7f000000000000000000000000000000000000000000000000000000000000000073ffffffffffffffffffffffffffffffffffffffff1663a9059cbb83856040518363ffffffff1660e01b815260040162001c8d9291906200216b565b602060405180830381600087803b15801562001ca857600080fd5b505af115801562001cbd573d6000803e3d6000fd5b505050506040513d601f19601f8201168201806040525081019062001ce3919062001e97565b505062001d8b565b8273ffffffffffffffffffffffffffffffffffffffff166323b872dd3383856040518463ffffffff1660e01b815260040162001d2a939291906200212e565b602060405180830381600087803b15801562001d4557600080fd5b505af115801562001d5a573d6000803e3d6000fd5b505050506040513d601f19601f8201168201806040525081019062001d80919062001e97565b62001d8a57600080fd5b5b505050565b61610d806200244083390190565b60008135905062001daf81620023bd565b92915050565b60008151905062001dc681620023bd565b92915050565b60008151905062001ddd81620023d7565b92915050565b60008151905062001df481620023f1565b92915050565b60008135905062001e0b816200240b565b92915050565b60008151905062001e22816200240b565b92915050565b60008151905062001e398162002425565b92915050565b60006020828403121562001e5257600080fd5b600062001e628482850162001d9e565b91505092915050565b60006020828403121562001e7e57600080fd5b600062001e8e8482850162001db5565b91505092915050565b60006020828403121562001eaa57600080fd5b600062001eba8482850162001dcc565b91505092915050565b60006020828403121562001ed657600080fd5b600062001ee68482850162001de3565b91505092915050565b60006020828403121562001f0257600080fd5b600062001f128482850162001e11565b91505092915050565b6000806040838503121562001f2f57600080fd5b600062001f3f8582860162001dfa565b925050602062001f528582860162001dfa565b9150509250929050565b60008060006060848603121562001f7257600080fd5b600062001f828682870162001dfa565b935050602062001f958682870162001dfa565b925050604062001fa88682870162001d9e565b9150509250925092565b60006020828403121562001fc557600080fd5b600062001fd58482850162001e28565b91505092915050565b600062001fec838362001ff8565b60208301905092915050565b6200200381620022d2565b82525050565b6200201481620022d2565b82525050565b6000620020278262002206565b6200203381856200221e565b93506200204083620021f6565b8060005b83811015620020775781516200205b888262001fde565b9750620020688362002211565b92505060018101905062002044565b5085935050505092915050565b6200208f81620022e6565b82525050565b6000620020a46000836200222f565b9150620020b182620023ba565b600082019050919050565b620020c78162002326565b82525050565b6000620020da8262002095565b9150819050919050565b6000602082019050620020fb600083018462002009565b92915050565b600060408201905062002118600083018562002009565b62002127602083018462002009565b9392505050565b600060608201905062002145600083018662002009565b62002154602083018562002009565b620021636040830184620020bc565b949350505050565b600060408201905062002182600083018562002009565b620021916020830184620020bc565b9392505050565b60006020820190508181036000830152620021b481846200201a565b905092915050565b6000602082019050620021d3600083018462002084565b92915050565b6000602082019050620021f06000830184620020bc565b92915050565b6000819050602082019050919050565b600081519050919050565b6000602082019050919050565b600082825260208201905092915050565b600081905092915050565b6000620022478262002326565b9150620022548362002326565b9250827fffffffffffffffffffffffffffffffffffffffffffffffffffffffffffffffff038211156200228c576200228b6200238b565b5b828201905092915050565b6000620022a48262002326565b9150620022b18362002326565b925082821015620022c757620022c66200238b565b5b828203905092915050565b6000620022df8262002306565b9050919050565b60008115159050919050565b6000620022ff82620022d2565b9050919050565b600073ffffffffffffffffffffffffffffffffffffffff82169050919050565b6000819050919050565b600060ff82169050919050565b60006200234a8262002326565b91507fffffffffffffffffffffffffffffffffffffffffffffffffffffffffffffffff82141562002380576200237f6200238b565b5b600182019050919050565b7f4e487b7100000000000000000000000000000000000000000000000000000000600052601160045260246000fd5b50565b620023c881620022d2565b8114620023d457600080fd5b50565b620023e281620022e6565b8114620023ee57600080fd5b50565b620023fc81620022f2565b81146200240857600080fd5b50565b620024168162002326565b81146200242257600080fd5b50565b620024308162002330565b81146200243c57600080fd5b5056fe6101006040523480156200001257600080fd5b506040516200610d3803806200610d83398181016040528101906200003891906200044b565b8173ffffffffffffffffffffffffffffffffffffffff1660808173ffffffffffffffffffffffffffffffffffffffff1660601b815250508073ffffffffffffffffffffffffffffffffffffffff1660a08173ffffffffffffffffffffffffffffffffffffffff1660601b8152505060006040518060400160405280601481526020017f2d5370617274616e50726f746f636f6c506f6f6c000000000000000000000000815250905060006040518060400160405280600481526020017f2d5350500000000000000000000000000000000000000000000000000000000081525090508273ffffffffffffffffffffffffffffffffffffffff166306fdde036040518163ffffffff1660e01b815260040160006040518083038186803b1580156200016157600080fd5b505afa15801562000176573d6000803e3d6000fd5b505050506040513d6000823e3d601f19601f82011682018060405250810190620001a191906200048c565b82604051602001620001b592919062000508565b604051602081830303815290604052600a9080519060200190620001db92919062000312565b508273ffffffffffffffffffffffffffffffffffffffff166395d89b416040518163ffffffff1660e01b815260040160006040518083038186803b1580156200022357600080fd5b505afa15801562000238573d6000803e3d6000fd5b505050506040513d6000823e3d601f19601f820116820180604052508101906200026391906200048c565b816040516020016200027792919062000508565b604051602081830303815290604052600b90805190602001906200029d92919062000312565b50601260ff1660c08160ff1660f81b815250504260e08181525050603c42620002c79190620005a5565b600381905550426011819055506109c4600081905550610bb860048190555069152d02c7e14af6800000600181905550600060088190555061ec40600681905550505050506200079a565b828054620003209062000676565b90600052602060002090601f01602090048101928262000344576000855562000390565b82601f106200035f57805160ff191683800117855562000390565b8280016001018555821562000390579182015b828111156200038f57825182559160200191906001019062000372565b5b5090506200039f9190620003a3565b5090565b5b80821115620003be576000816000905550600101620003a4565b5090565b6000620003d9620003d38462000559565b62000530565b905082815260208101848484011115620003f257600080fd5b620003ff84828562000640565b509392505050565b600081519050620004188162000780565b92915050565b600082601f8301126200043057600080fd5b815162000442848260208601620003c2565b91505092915050565b600080604083850312156200045f57600080fd5b60006200046f8582860162000407565b9250506020620004828582860162000407565b9150509250929050565b6000602082840312156200049f57600080fd5b600082015167ffffffffffffffff811115620004ba57600080fd5b620004c8848285016200041e565b91505092915050565b6000620004de826200058f565b620004ea81856200059a565b9350620004fc81856020860162000640565b80840191505092915050565b6000620005168285620004d1565b9150620005248284620004d1565b91508190509392505050565b60006200053c6200054f565b90506200054a8282620006ac565b919050565b6000604051905090565b600067ffffffffffffffff82111562000577576200057662000740565b5b62000582826200076f565b9050602081019050919050565b600081519050919050565b600081905092915050565b6000620005b28262000636565b9150620005bf8362000636565b9250827fffffffffffffffffffffffffffffffffffffffffffffffffffffffffffffffff03821115620005f757620005f6620006e2565b5b828201905092915050565b60006200060f8262000616565b9050919050565b600073ffffffffffffffffffffffffffffffffffffffff82169050919050565b6000819050919050565b60005b838110156200066057808201518184015260208101905062000643565b8381111562000670576000848401525b50505050565b600060028204905060018216806200068f57607f821691505b60208210811415620006a657620006a562000711565b5b50919050565b620006b7826200076f565b810181811067ffffffffffffffff82111715620006d957620006d862000740565b5b80604052505050565b7f4e487b7100000000000000000000000000000000000000000000000000000000600052601160045260246000fd5b7f4e487b7100000000000000000000000000000000000000000000000000000000600052602260045260246000fd5b7f4e487b7100000000000000000000000000000000000000000000000000000000600052604160045260246000fd5b6000601f19601f8301169050919050565b6200078b8162000602565b81146200079757600080fd5b50565b60805160601c60a05160601c60c05160f81c60e051615896620008776000396000818161098a01526129ed015260006112ac015260008181610b2201528181610bf601528181610c1e015281816110e00152818161119001528181612177015281816125ab01528181612b5d0152818161332c015281816139270152818161425401526147bc015260008181610a7301528181610bcb0152818161108b0152818161113c015281816111d301528181611e320152818161254901528181612bef01528181613878015281816139da015261451301526158966000f3fe608060405234801561001057600080fd5b50600436106102255760003560e01c80636aff945411610130578063a7f0b3de116100b8578063e1eddde31161007c578063e1eddde3146106bd578063ec342ad0146106db578063eec7faa1146106f9578063f1bbdef214610717578063fff6cae91461074857610225565b8063a7f0b3de14610603578063a861ad2914610621578063a9059cbb1461063f578063cbbcf8021461066f578063dd62ed3e1461068d57610225565b806382bfefc8116100ff57806382bfefc81461054b57806386d5f6181461056957806395d89b41146105995780639d3f87e2146105b7578063a457c2d7146105d357610225565b80636aff9454146104b057806370a08231146104e1578063752d7793146105115780637ec3eae51461052f57610225565b806333ca78e4116101b35780634864d140116101825780634864d1401461040857806350f9844a146104265780635f83e5d51461044457806361cc24bb1461046257806362a5af3b1461049257610225565b806333ca78e41461038257806339509351146103a057806342966c68146103d0578063474e7302146103ec57610225565b806318160ddd116101fa57806318160ddd146102c757806323b872dd146102e55780632783e4a91461031557806328ea0adc14610346578063313ce5671461036457610225565b806286cb0e1461022a578062aea7451461025b57806306fdde0314610279578063095ea7b314610297575b600080fd5b610244600480360381019061023f9190614dd8565b610752565b60405161025292919061533d565b60405180910390f35b610263610cae565b60405161027091906152c2565b60405180910390f35b610281610cb4565b60405161028e91906151a0565b60405180910390f35b6102b160048036038101906102ac9190614e63565b610d46565b6040516102be9190615185565b60405180910390f35b6102cf610d5d565b6040516102dc91906152c2565b60405180910390f35b6102ff60048036038101906102fa9190614e14565b610d63565b60405161030c9190615185565b60405180910390f35b61032f600480360381019061032a9190614dd8565b610e56565b60405161033d92919061533d565b60405180910390f35b61034e6112a4565b60405161035b91906152c2565b60405180910390f35b61036c6112aa565b60405161037991906153f0565b60405180910390f35b61038a6112ce565b60405161039791906152c2565b60405180910390f35b6103ba60048036038101906103b59190614e63565b6112d4565b6040516103c79190615185565b60405180910390f35b6103ea60048036038101906103e59190614ef1565b611372565b005b61040660048036038101906104019190614ef1565b6114db565b005b610410611724565b60405161041d91906152c2565b60405180910390f35b61042e61172a565b60405161043b91906152c2565b60405180910390f35b61044c611730565b60405161045991906152c2565b60405180910390f35b61047c60048036038101906104779190614d86565b611736565b60405161048991906152c2565b60405180910390f35b61049a611897565b6040516104a79190615185565b60405180910390f35b6104ca60048036038101906104c59190614dd8565b6118aa565b6040516104d892919061533d565b60405180910390f35b6104fb60048036038101906104f69190614d86565b611ed1565b60405161050891906152c2565b60405180910390f35b610519611f1a565b60405161052691906152c2565b60405180910390f35b61054960048036038101906105449190614ef1565b611f20565b005b610553612175565b6040516105609190615118565b60405180910390f35b610583600480360381019061057e9190614d86565b612199565b60405161059091906152c2565b60405180910390f35b6105a1612639565b6040516105ae91906151a0565b60405180910390f35b6105d160048036038101906105cc9190614ef1565b6126cb565b005b6105ed60048036038101906105e89190614e63565b612905565b6040516105fa9190615185565b60405180910390f35b61060b6129eb565b60405161061891906152c2565b60405180910390f35b610629612a0f565b60405161063691906152c2565b60405180910390f35b61065960048036038101906106549190614e63565b612a15565b6040516106669190615185565b60405180910390f35b610677612a2c565b60405161068491906152c2565b60405180910390f35b6106a760048036038101906106a29190614dd8565b612a32565b6040516106b491906152c2565b60405180910390f35b6106c5612ab9565b6040516106d29190615118565b60405180910390f35b6106e3612bed565b6040516106f09190615118565b60405180910390f35b610701612c11565b60405161070e91906152c2565b60405180910390f35b610731600480360381019061072c9190614d86565b612c17565b60405161073f92919061533d565b60405180910390f35b610750613646565b005b60008061075d6139d6565b73ffffffffffffffffffffffffffffffffffffffff166332fe7b266040518163ffffffff1660e01b815260040160206040518083038186803b1580156107a257600080fd5b505afa1580156107b6573d6000803e3d6000fd5b505050506040513d601f19601f820116820180604052508101906107da9190614daf565b73ffffffffffffffffffffffffffffffffffffffff163373ffffffffffffffffffffffffffffffffffffffff1614806108c257506108166139d6565b73ffffffffffffffffffffffffffffffffffffffff16632ab24e496040518163ffffffff1660e01b815260040160206040518083038186803b15801561085b57600080fd5b505afa15801561086f573d6000803e3d6000fd5b505050506040513d601f19601f820116820180604052508101906108939190614daf565b73ffffffffffffffffffffffffffffffffffffffff163373ffffffffffffffffffffffffffffffffffffffff16145b8061097c57506108d06139d6565b73ffffffffffffffffffffffffffffffffffffffff1663b99b0a0c6040518163ffffffff1660e01b815260040160206040518083038186803b15801561091557600080fd5b505afa158015610929573d6000803e3d6000fd5b505050506040513d601f19601f8201168201806040525081019061094d9190614daf565b73ffffffffffffffffffffffffffffffffffffffff163373ffffffffffffffffffffffffffffffffffffffff16145b61098557600080fd5b6006547f00000000000000000000000000000000000000000000000000000000000000006109b3919061543d565b42116109be57600080fd5b60006109c930611ed1565b905060006109d56139d6565b73ffffffffffffffffffffffffffffffffffffffff16637b0e5c456040518163ffffffff1660e01b815260040160206040518083038186803b158015610a1a57600080fd5b505afa158015610a2e573d6000803e3d6000fd5b505050506040513d601f19601f82011682018060405250810190610a529190614daf565b90508073ffffffffffffffffffffffffffffffffffffffff16635a7b2ed3837f0000000000000000000000000000000000000000000000000000000000000000306040518463ffffffff1660e01b8152600401610ab193929190615306565b60206040518083038186803b158015610ac957600080fd5b505afa158015610add573d6000803e3d6000fd5b505050506040513d601f19601f82011682018060405250810190610b019190614f1a565b93508073ffffffffffffffffffffffffffffffffffffffff16635a7b2ed3837f0000000000000000000000000000000000000000000000000000000000000000306040518463ffffffff1660e01b8152600401610b6093929190615306565b60206040518083038186803b158015610b7857600080fd5b505afa158015610b8c573d6000803e3d6000fd5b505050506040513d601f19601f82011682018060405250810190610bb09190614f1a565b9250610bbc8484613a7b565b610bc63083613ab9565b610bf17f00000000000000000000000000000000000000000000000000000000000000008786613c83565b610c1c7f00000000000000000000000000000000000000000000000000000000000000008785613c83565b7f000000000000000000000000000000000000000000000000000000000000000073ffffffffffffffffffffffffffffffffffffffff168573ffffffffffffffffffffffffffffffffffffffff167feb755d537a0caac69ccb1ac1dc2b7397a32bb19f93bd06013c57ac0b2e5dd69c868686604051610c9d93929190615366565b60405180910390a350509250929050565b60085481565b6060600a8054610cc3906155ec565b80601f0160208091040260200160405190810160405280929190818152602001828054610cef906155ec565b8015610d3c5780601f10610d1157610100808354040283529160200191610d3c565b820191906000526020600020905b815481529060010190602001808311610d1f57829003601f168201915b5050505050905090565b6000610d53338484613e0d565b6001905092915050565b600c5481565b6000610d70848484613fd8565b6000600e60008673ffffffffffffffffffffffffffffffffffffffff1673ffffffffffffffffffffffffffffffffffffffff16815260200190815260200160002060003373ffffffffffffffffffffffffffffffffffffffff1673ffffffffffffffffffffffffffffffffffffffff16815260200190815260200160002054905082811015610e34576040517f08c379a0000000000000000000000000000000000000000000000000000000008152600401610e2b906151e2565b60405180910390fd5b610e4a85338584610e45919061551e565b613e0d565b60019150509392505050565b600080610e616139d6565b73ffffffffffffffffffffffffffffffffffffffff166332fe7b266040518163ffffffff1660e01b815260040160206040518083038186803b158015610ea657600080fd5b505afa158015610eba573d6000803e3d6000fd5b505050506040513d601f19601f82011682018060405250810190610ede9190614daf565b73ffffffffffffffffffffffffffffffffffffffff163373ffffffffffffffffffffffffffffffffffffffff161480610fc65750610f1a6139d6565b73ffffffffffffffffffffffffffffffffffffffff16632ab24e496040518163ffffffff1660e01b815260040160206040518083038186803b158015610f5f57600080fd5b505afa158015610f73573d6000803e3d6000fd5b505050506040513d601f19601f82011682018060405250810190610f979190614daf565b73ffffffffffffffffffffffffffffffffffffffff163373ffffffffffffffffffffffffffffffffffffffff16145b806110805750610fd46139d6565b73ffffffffffffffffffffffffffffffffffffffff1663b99b0a0c6040518163ffffffff1660e01b815260040160206040518083038186803b15801561101957600080fd5b505afa15801561102d573d6000803e3d6000fd5b505050506040513d601f19601f820116820180604052508101906110519190614daf565b73ffffffffffffffffffffffffffffffffffffffff163373ffffffffffffffffffffffffffffffffffffffff16145b61108957600080fd5b7f000000000000000000000000000000000000000000000000000000000000000073ffffffffffffffffffffffffffffffffffffffff168473ffffffffffffffffffffffffffffffffffffffff16148061112e57507f000000000000000000000000000000000000000000000000000000000000000073ffffffffffffffffffffffffffffffffffffffff168473ffffffffffffffffffffffffffffffffffffffff16145b61113757600080fd5b6000807f000000000000000000000000000000000000000000000000000000000000000073ffffffffffffffffffffffffffffffffffffffff168673ffffffffffffffffffffffffffffffffffffffff1614156111d1577f000000000000000000000000000000000000000000000000000000000000000091506111b961424f565b90506111c481614325565b8094508195505050611210565b7f000000000000000000000000000000000000000000000000000000000000000091506111fc61450e565b9050611207816145e4565b80945081955050505b8473ffffffffffffffffffffffffffffffffffffffff168673ffffffffffffffffffffffffffffffffffffffff168373ffffffffffffffffffffffffffffffffffffffff167fc9163c3bdf7263acf1bb3d24072cc7da025f7181c31e2edc7e1673edf5e0ca3284888860405161128893929190615366565b60405180910390a461129b868686613c83565b50509250929050565b60095481565b7f000000000000000000000000000000000000000000000000000000000000000081565b60005481565b6000611368338484600e60003373ffffffffffffffffffffffffffffffffffffffff1673ffffffffffffffffffffffffffffffffffffffff16815260200190815260200160002060008873ffffffffffffffffffffffffffffffffffffffff1673ffffffffffffffffffffffffffffffffffffffff16815260200190815260200160002054611363919061543d565b613e0d565b6001905092915050565b61137a612ab9565b73ffffffffffffffffffffffffffffffffffffffff163373ffffffffffffffffffffffffffffffffffffffff16146113b157600080fd5b6113b96139d6565b73ffffffffffffffffffffffffffffffffffffffff1663b93ec54b6040518163ffffffff1660e01b815260040160206040518083038186803b1580156113fe57600080fd5b505afa158015611412573d6000803e3d6000fd5b505050506040513d601f19601f820116820180604052508101906114369190614daf565b73ffffffffffffffffffffffffffffffffffffffff16635e0237ea611459612ab9565b6040518263ffffffff1660e01b81526004016114759190615118565b60206040518083038186803b15801561148d57600080fd5b505afa1580156114a1573d6000803e3d6000fd5b505050506040513d601f19601f820116820180604052508101906114c59190614e9f565b6114ce57600080fd5b6114d83382613ab9565b50565b6114e36139d6565b73ffffffffffffffffffffffffffffffffffffffff166332fe7b266040518163ffffffff1660e01b815260040160206040518083038186803b15801561152857600080fd5b505afa15801561153c573d6000803e3d6000fd5b505050506040513d601f19601f820116820180604052508101906115609190614daf565b73ffffffffffffffffffffffffffffffffffffffff163373ffffffffffffffffffffffffffffffffffffffff161480611648575061159c6139d6565b73ffffffffffffffffffffffffffffffffffffffff16632ab24e496040518163ffffffff1660e01b815260040160206040518083038186803b1580156115e157600080fd5b505afa1580156115f5573d6000803e3d6000fd5b505050506040513d601f19601f820116820180604052508101906116199190614daf565b73ffffffffffffffffffffffffffffffffffffffff163373ffffffffffffffffffffffffffffffffffffffff16145b8061170257506116566139d6565b73ffffffffffffffffffffffffffffffffffffffff1663b99b0a0c6040518163ffffffff1660e01b815260040160206040518083038186803b15801561169b57600080fd5b505afa1580156116af573d6000803e3d6000fd5b505050506040513d601f19601f820116820180604052508101906116d39190614daf565b73ffffffffffffffffffffffffffffffffffffffff163373ffffffffffffffffffffffffffffffffffffffff16145b61170b57600080fd5b610bb881111561171a57600080fd5b8060008190555050565b600f5481565b60075481565b60125481565b60008061271060005460105461174c91906154c4565b6117569190615493565b90506000808473ffffffffffffffffffffffffffffffffffffffff166318160ddd6040518163ffffffff1660e01b815260040160206040518083038186803b1580156117a157600080fd5b505afa1580156117b5573d6000803e3d6000fd5b505050506040513d601f19601f820116820180604052508101906117d99190614f1a565b9050600093508083106117f55780836117f2919061551e565b91505b6000600854146118275760006008544261180f919061551e565b90506007548161181f91906154c4565b94505061185c565b4260088190555042600981905550600654826118439190615493565b60078190555060075461384061185991906154c4565b93505b60065460095461186c919061543d565b42111561188f57600654826118819190615493565b600781905550426009819055505b505050919050565b600560009054906101000a900460ff1681565b6000806118b56139d6565b73ffffffffffffffffffffffffffffffffffffffff166332fe7b266040518163ffffffff1660e01b815260040160206040518083038186803b1580156118fa57600080fd5b505afa15801561190e573d6000803e3d6000fd5b505050506040513d601f19601f820116820180604052508101906119329190614daf565b73ffffffffffffffffffffffffffffffffffffffff163373ffffffffffffffffffffffffffffffffffffffff161480611a1a575061196e6139d6565b73ffffffffffffffffffffffffffffffffffffffff16632ab24e496040518163ffffffff1660e01b815260040160206040518083038186803b1580156119b357600080fd5b505afa1580156119c7573d6000803e3d6000fd5b505050506040513d601f19601f820116820180604052508101906119eb9190614daf565b73ffffffffffffffffffffffffffffffffffffffff163373ffffffffffffffffffffffffffffffffffffffff16145b80611ad45750611a286139d6565b73ffffffffffffffffffffffffffffffffffffffff1663b99b0a0c6040518163ffffffff1660e01b815260040160206040518083038186803b158015611a6d57600080fd5b505afa158015611a81573d6000803e3d6000fd5b505050506040513d601f19601f82011682018060405250810190611aa59190614daf565b73ffffffffffffffffffffffffffffffffffffffff163373ffffffffffffffffffffffffffffffffffffffff16145b611add57600080fd5b6000611ae7612ab9565b9050600073ffffffffffffffffffffffffffffffffffffffff168173ffffffffffffffffffffffffffffffffffffffff161415611b2357600080fd5b6000611b2d6139d6565b73ffffffffffffffffffffffffffffffffffffffff16637b0e5c456040518163ffffffff1660e01b815260040160206040518083038186803b158015611b7257600080fd5b505afa158015611b86573d6000803e3d6000fd5b505050506040513d601f19601f82011682018060405250810190611baa9190614daf565b905060008273ffffffffffffffffffffffffffffffffffffffff166370a08231306040518263ffffffff1660e01b8152600401611be79190615118565b60206040518083038186803b158015611bff57600080fd5b505afa158015611c13573d6000803e3d6000fd5b505050506040513d601f19601f82011682018060405250810190611c379190614f1a565b905060008273ffffffffffffffffffffffffffffffffffffffff1663701baaf383601054600f546040518463ffffffff1660e01b8152600401611c7c93929190615366565b60206040518083038186803b158015611c9457600080fd5b505afa158015611ca8573d6000803e3d6000fd5b505050506040513d601f19601f82011682018060405250810190611ccc9190614f1a565b9050600061271061251c83611ce191906154c4565b611ceb9190615493565b90508373ffffffffffffffffffffffffffffffffffffffff1663896a708c84601054600f546040518463ffffffff1660e01b8152600401611d2e93929190615366565b60206040518083038186803b158015611d4657600080fd5b505afa158015611d5a573d6000803e3d6000fd5b505050506040513d601f19601f82011682018060405250810190611d7e9190614f1a565b9550611d8b816000613a7b565b611d948661487d565b60008573ffffffffffffffffffffffffffffffffffffffff166386450495856040518263ffffffff1660e01b8152600401611dcf91906152c2565b602060405180830381600087803b158015611de957600080fd5b505af1158015611dfd573d6000803e3d6000fd5b505050506040513d601f19601f82011682018060405250810190611e219190614f1a565b9050611e2d8682613ab9565b611e587f00000000000000000000000000000000000000000000000000000000000000008b84613c83565b8573ffffffffffffffffffffffffffffffffffffffff168973ffffffffffffffffffffffffffffffffffffffff167f1ca4dfb6e3dc7697e773829570fd4a71da04e7dea5a0bf27ac6b6534c4a19b02848488604051611eb993929190615366565b60405180910390a38197505050505050509250929050565b6000600d60008373ffffffffffffffffffffffffffffffffffffffff1673ffffffffffffffffffffffffffffffffffffffff168152602001908152602001600020549050919050565b60135481565b611f286139d6565b73ffffffffffffffffffffffffffffffffffffffff166332fe7b266040518163ffffffff1660e01b815260040160206040518083038186803b158015611f6d57600080fd5b505afa158015611f81573d6000803e3d6000fd5b505050506040513d601f19601f82011682018060405250810190611fa59190614daf565b73ffffffffffffffffffffffffffffffffffffffff163373ffffffffffffffffffffffffffffffffffffffff16148061208d5750611fe16139d6565b73ffffffffffffffffffffffffffffffffffffffff16632ab24e496040518163ffffffff1660e01b815260040160206040518083038186803b15801561202657600080fd5b505afa15801561203a573d6000803e3d6000fd5b505050506040513d601f19601f8201168201806040525081019061205e9190614daf565b73ffffffffffffffffffffffffffffffffffffffff163373ffffffffffffffffffffffffffffffffffffffff16145b80612147575061209b6139d6565b73ffffffffffffffffffffffffffffffffffffffff1663b99b0a0c6040518163ffffffff1660e01b815260040160206040518083038186803b1580156120e057600080fd5b505afa1580156120f4573d6000803e3d6000fd5b505050506040513d601f19601f820116820180604052508101906121189190614daf565b73ffffffffffffffffffffffffffffffffffffffff163373ffffffffffffffffffffffffffffffffffffffff16145b61215057600080fd5b600260015461215f91906154c4565b81111561216b57600080fd5b8060018190555050565b7f000000000000000000000000000000000000000000000000000000000000000081565b60006121a36139d6565b73ffffffffffffffffffffffffffffffffffffffff166332fe7b266040518163ffffffff1660e01b815260040160206040518083038186803b1580156121e857600080fd5b505afa1580156121fc573d6000803e3d6000fd5b505050506040513d601f19601f820116820180604052508101906122209190614daf565b73ffffffffffffffffffffffffffffffffffffffff163373ffffffffffffffffffffffffffffffffffffffff161480612308575061225c6139d6565b73ffffffffffffffffffffffffffffffffffffffff16632ab24e496040518163ffffffff1660e01b815260040160206040518083038186803b1580156122a157600080fd5b505afa1580156122b5573d6000803e3d6000fd5b505050506040513d601f19601f820116820180604052508101906122d99190614daf565b73ffffffffffffffffffffffffffffffffffffffff163373ffffffffffffffffffffffffffffffffffffffff16145b806123c257506123166139d6565b73ffffffffffffffffffffffffffffffffffffffff1663b99b0a0c6040518163ffffffff1660e01b815260040160206040518083038186803b15801561235b57600080fd5b505afa15801561236f573d6000803e3d6000fd5b505050506040513d601f19601f820116820180604052508101906123939190614daf565b73ffffffffffffffffffffffffffffffffffffffff163373ffffffffffffffffffffffffffffffffffffffff16145b6123cb57600080fd5b60006123d561450e565b905060006123e161424f565b90506123eb6139d6565b73ffffffffffffffffffffffffffffffffffffffff16637b0e5c456040518163ffffffff1660e01b815260040160206040518083038186803b15801561243057600080fd5b505afa158015612444573d6000803e3d6000fd5b505050506040513d601f19601f820116820180604052508101906124689190614daf565b73ffffffffffffffffffffffffffffffffffffffff1663c5c11ee983600f5484601054600c546040518663ffffffff1660e01b81526004016124ae95949392919061539d565b60206040518083038186803b1580156124c657600080fd5b505afa1580156124da573d6000803e3d6000fd5b505050506040513d601f19601f820116820180604052508101906124fe9190614f1a565b92506000600f54148061251357506000601054145b1561259557600061271084606461252a91906154c4565b6125349190615493565b90508084612542919061551e565b935061256e7f0000000000000000000000000000000000000000000000000000000000000000826148d3565b8183670de0b6b3a764000061258391906154c4565b61258d9190615493565b600281905550505b61259f8282614a1c565b6125a984846148d3565b7f000000000000000000000000000000000000000000000000000000000000000073ffffffffffffffffffffffffffffffffffffffff168473ffffffffffffffffffffffffffffffffffffffff167f2f3289d16dbc3007471d28c4936df3a95222bc938112449400d049637e3309ce84848760405161262a93929190615366565b60405180910390a35050919050565b6060600b8054612648906155ec565b80601f0160208091040260200160405190810160405280929190818152602001828054612674906155ec565b80156126c15780601f10612696576101008083540402835291602001916126c1565b820191906000526020600020905b8154815290600101906020018083116126a457829003601f168201915b5050505050905090565b6126d36139d6565b73ffffffffffffffffffffffffffffffffffffffff166332fe7b266040518163ffffffff1660e01b815260040160206040518083038186803b15801561271857600080fd5b505afa15801561272c573d6000803e3d6000fd5b505050506040513d601f19601f820116820180604052508101906127509190614daf565b73ffffffffffffffffffffffffffffffffffffffff163373ffffffffffffffffffffffffffffffffffffffff161480612838575061278c6139d6565b73ffffffffffffffffffffffffffffffffffffffff16632ab24e496040518163ffffffff1660e01b815260040160206040518083038186803b1580156127d157600080fd5b505afa1580156127e5573d6000803e3d6000fd5b505050506040513d601f19601f820116820180604052508101906128099190614daf565b73ffffffffffffffffffffffffffffffffffffffff163373ffffffffffffffffffffffffffffffffffffffff16145b806128f257506128466139d6565b73ffffffffffffffffffffffffffffffffffffffff1663b99b0a0c6040518163ffffffff1660e01b815260040160206040518083038186803b15801561288b57600080fd5b505afa15801561289f573d6000803e3d6000fd5b505050506040513d601f19601f820116820180604052508101906128c39190614daf565b73ffffffffffffffffffffffffffffffffffffffff163373ffffffffffffffffffffffffffffffffffffffff16145b6128fb57600080fd5b8060048190555050565b600080600e60003373ffffffffffffffffffffffffffffffffffffffff1673ffffffffffffffffffffffffffffffffffffffff16815260200190815260200160002060008573ffffffffffffffffffffffffffffffffffffffff1673ffffffffffffffffffffffffffffffffffffffff168152602001908152602001600020549050828110156129ca576040517f08c379a00000000000000000000000000000000000000000000000000000000081526004016129c1906151e2565b60405180910390fd5b6129e0338585846129db919061551e565b613e0d565b600191505092915050565b7f000000000000000000000000000000000000000000000000000000000000000081565b60025481565b6000612a22338484613fd8565b6001905092915050565b60015481565b6000600e60008473ffffffffffffffffffffffffffffffffffffffff1673ffffffffffffffffffffffffffffffffffffffff16815260200190815260200160002060008373ffffffffffffffffffffffffffffffffffffffff1673ffffffffffffffffffffffffffffffffffffffff16815260200190815260200160002054905092915050565b6000612ac36139d6565b73ffffffffffffffffffffffffffffffffffffffff1663b93ec54b6040518163ffffffff1660e01b815260040160206040518083038186803b158015612b0857600080fd5b505afa158015612b1c573d6000803e3d6000fd5b505050506040513d601f19601f82011682018060405250810190612b409190614daf565b73ffffffffffffffffffffffffffffffffffffffff1663dcec81167f00000000000000000000000000000000000000000000000000000000000000006040518263ffffffff1660e01b8152600401612b989190615118565b60206040518083038186803b158015612bb057600080fd5b505afa158015612bc4573d6000803e3d6000fd5b505050506040513d601f19601f82011682018060405250810190612be89190614daf565b905090565b7f000000000000000000000000000000000000000000000000000000000000000081565b60105481565b600080612c226139d6565b73ffffffffffffffffffffffffffffffffffffffff166332fe7b266040518163ffffffff1660e01b815260040160206040518083038186803b158015612c6757600080fd5b505afa158015612c7b573d6000803e3d6000fd5b505050506040513d601f19601f82011682018060405250810190612c9f9190614daf565b73ffffffffffffffffffffffffffffffffffffffff163373ffffffffffffffffffffffffffffffffffffffff161480612d875750612cdb6139d6565b73ffffffffffffffffffffffffffffffffffffffff16632ab24e496040518163ffffffff1660e01b815260040160206040518083038186803b158015612d2057600080fd5b505afa158015612d34573d6000803e3d6000fd5b505050506040513d601f19601f82011682018060405250810190612d589190614daf565b73ffffffffffffffffffffffffffffffffffffffff163373ffffffffffffffffffffffffffffffffffffffff16145b80612e415750612d956139d6565b73ffffffffffffffffffffffffffffffffffffffff1663b99b0a0c6040518163ffffffff1660e01b815260040160206040518083038186803b158015612dda57600080fd5b505afa158015612dee573d6000803e3d6000fd5b505050506040513d601f19601f82011682018060405250810190612e129190614daf565b73ffffffffffffffffffffffffffffffffffffffff163373ffffffffffffffffffffffffffffffffffffffff16145b612e4a57600080fd5b6000612e54612ab9565b9050612e5e6139d6565b73ffffffffffffffffffffffffffffffffffffffff166332fe7b266040518163ffffffff1660e01b815260040160206040518083038186803b158015612ea357600080fd5b505afa158015612eb7573d6000803e3d6000fd5b505050506040513d601f19601f82011682018060405250810190612edb9190614daf565b73ffffffffffffffffffffffffffffffffffffffff1663940c4abc6040518163ffffffff1660e01b815260040160206040518083038186803b158015612f2057600080fd5b505afa158015612f34573d6000803e3d6000fd5b505050506040513d601f19601f82011682018060405250810190612f589190614e9f565b612f6157600080fd5b612f696139d6565b73ffffffffffffffffffffffffffffffffffffffff1663b93ec54b6040518163ffffffff1660e01b815260040160206040518083038186803b158015612fae57600080fd5b505afa158015612fc2573d6000803e3d6000fd5b505050506040513d601f19601f82011682018060405250810190612fe69190614daf565b73ffffffffffffffffffffffffffffffffffffffff16635e0237ea826040518263ffffffff1660e01b815260040161301e9190615118565b60206040518083038186803b15801561303657600080fd5b505afa15801561304a573d6000803e3d6000fd5b505050506040513d601f19601f8201168201806040525081019061306e9190614e9f565b61307757600080fd5b60006130816139d6565b73ffffffffffffffffffffffffffffffffffffffff16637b0e5c456040518163ffffffff1660e01b815260040160206040518083038186803b1580156130c657600080fd5b505afa1580156130da573d6000803e3d6000fd5b505050506040513d601f19601f820116820180604052508101906130fe9190614daf565b9050600061310a61450e565b9050600061311784611736565b905060008373ffffffffffffffffffffffffffffffffffffffff1663701baaf384600f546010546040518463ffffffff1660e01b815260040161315c93929190615366565b60206040518083038186803b15801561317457600080fd5b505afa158015613188573d6000803e3d6000fd5b505050506040513d601f19601f820116820180604052508101906131ac9190614f1a565b9050426008819055506127106126ac826131c691906154c4565b6131d09190615493565b9650818711156131df57600080fd5b60008473ffffffffffffffffffffffffffffffffffffffff1663b86a82ef85306040518363ffffffff1660e01b815260040161321c9291906152dd565b60206040518083038186803b15801561323457600080fd5b505afa158015613248573d6000803e3d6000fd5b505050506040513d601f19601f8201168201806040525081019061326c9190614f1a565b9050613279846000614a1c565b60008573ffffffffffffffffffffffffffffffffffffffff1663896a708c86600f546010546040518463ffffffff1660e01b81526004016132bc93929190615366565b60206040518083038186803b1580156132d457600080fd5b505afa1580156132e8573d6000803e3d6000fd5b505050506040513d601f19601f8201168201806040525081019061330c9190614f1a565b90508573ffffffffffffffffffffffffffffffffffffffff1663c19387df7f0000000000000000000000000000000000000000000000000000000000000000836040518363ffffffff1660e01b815260040161336992919061515c565b60206040518083038186803b15801561338157600080fd5b505afa158015613395573d6000803e3d6000fd5b505050506040513d601f19601f820116820180604052508101906133b99190614f1a565b97506133c587836148d3565b8673ffffffffffffffffffffffffffffffffffffffff166332f302e36133e96139d6565b73ffffffffffffffffffffffffffffffffffffffff16632ab24e496040518163ffffffff1660e01b815260040160206040518083038186803b15801561342e57600080fd5b505afa158015613442573d6000803e3d6000fd5b505050506040513d601f19601f820116820180604052508101906134669190614daf565b8b6040518363ffffffff1660e01b815260040161348492919061515c565b602060405180830381600087803b15801561349e57600080fd5b505af11580156134b2573d6000803e3d6000fd5b505050506040513d601f19601f820116820180604052508101906134d69190614f1a565b506134df6139d6565b73ffffffffffffffffffffffffffffffffffffffff16632ab24e496040518163ffffffff1660e01b815260040160206040518083038186803b15801561352457600080fd5b505afa158015613538573d6000803e3d6000fd5b505050506040513d601f19601f8201168201806040525081019061355c9190614daf565b73ffffffffffffffffffffffffffffffffffffffff16634335a95c888c6040518363ffffffff1660e01b8152600401613596929190615133565b600060405180830381600087803b1580156135b057600080fd5b505af11580156135c4573d6000803e3d6000fd5b505050506135d18861487d565b8673ffffffffffffffffffffffffffffffffffffffff168a73ffffffffffffffffffffffffffffffffffffffff167f59b847739ab740c3e5924b313b7c32db0c40e752d1337936891bc3d29e06246887858d60405161363293929190615366565b60405180910390a350505050505050915091565b61364e6139d6565b73ffffffffffffffffffffffffffffffffffffffff166398fabd3a6040518163ffffffff1660e01b815260040160206040518083038186803b15801561369357600080fd5b505afa1580156136a7573d6000803e3d6000fd5b505050506040513d601f19601f820116820180604052508101906136cb9190614daf565b73ffffffffffffffffffffffffffffffffffffffff163373ffffffffffffffffffffffffffffffffffffffff1614806137b357506137076139d6565b73ffffffffffffffffffffffffffffffffffffffff166332fe7b266040518163ffffffff1660e01b815260040160206040518083038186803b15801561374c57600080fd5b505afa158015613760573d6000803e3d6000fd5b505050506040513d601f19601f820116820180604052508101906137849190614daf565b73ffffffffffffffffffffffffffffffffffffffff163373ffffffffffffffffffffffffffffffffffffffff16145b8061386d57506137c16139d6565b73ffffffffffffffffffffffffffffffffffffffff16632ab24e496040518163ffffffff1660e01b815260040160206040518083038186803b15801561380657600080fd5b505afa15801561381a573d6000803e3d6000fd5b505050506040513d601f19601f8201168201806040525081019061383e9190614daf565b73ffffffffffffffffffffffffffffffffffffffff163373ffffffffffffffffffffffffffffffffffffffff16145b61387657600080fd5b7f000000000000000000000000000000000000000000000000000000000000000073ffffffffffffffffffffffffffffffffffffffff166370a08231306040518263ffffffff1660e01b81526004016138cf9190615118565b60206040518083038186803b1580156138e757600080fd5b505afa1580156138fb573d6000803e3d6000fd5b505050506040513d601f19601f8201168201806040525081019061391f9190614f1a565b600f819055507f000000000000000000000000000000000000000000000000000000000000000073ffffffffffffffffffffffffffffffffffffffff166370a08231306040518263ffffffff1660e01b815260040161397e9190615118565b60206040518083038186803b15801561399657600080fd5b505afa1580156139aa573d6000803e3d6000fd5b505050506040513d601f19601f820116820180604052508101906139ce9190614f1a565b601081905550565b60007f000000000000000000000000000000000000000000000000000000000000000073ffffffffffffffffffffffffffffffffffffffff166398fabd3a6040518163ffffffff1660e01b815260040160206040518083038186803b158015613a3e57600080fd5b505afa158015613a52573d6000803e3d6000fd5b505050506040513d601f19601f82011682018060405250810190613a769190614ec8565b905090565b81600f6000828254613a8d919061551e565b925050819055508060106000828254613aa6919061551e565b92505081905550613ab5614a75565b5050565b600073ffffffffffffffffffffffffffffffffffffffff168273ffffffffffffffffffffffffffffffffffffffff161415613b29576040517f08c379a0000000000000000000000000000000000000000000000000000000008152600401613b20906151c2565b60405180910390fd5b6000600d60008473ffffffffffffffffffffffffffffffffffffffff1673ffffffffffffffffffffffffffffffffffffffff16815260200190815260200160002054905081811015613bb0576040517f08c379a0000000000000000000000000000000000000000000000000000000008152600401613ba790615202565b60405180910390fd5b8181613bbc919061551e565b600d60008573ffffffffffffffffffffffffffffffffffffffff1673ffffffffffffffffffffffffffffffffffffffff1681526020019081526020016000208190555081600c6000828254613c11919061551e565b92505081905550600073ffffffffffffffffffffffffffffffffffffffff168373ffffffffffffffffffffffffffffffffffffffff167fddf252ad1be2c89b69c2b068fc378daa952ba7f163c4a11628f55a4df523b3ef84604051613c7691906152c2565b60405180910390a3505050565b6000808473ffffffffffffffffffffffffffffffffffffffff166040518060400160405280601981526020017f7472616e7366657228616464726573732c75696e743235362900000000000000815250805190602001208585604051602401613ced92919061515c565b604051602081830303815290604052907bffffffffffffffffffffffffffffffffffffffffffffffffffffffff19166020820180517bffffffffffffffffffffffffffffffffffffffffffffffffffffffff8381831617835250505050604051613d579190615101565b6000604051808303816000865af19150503d8060008114613d94576040519150601f19603f3d011682016040523d82523d6000602084013e613d99565b606091505b5091509150818015613dc75750600081511480613dc6575080806020019051810190613dc59190614e9f565b5b5b613e06576040517f08c379a0000000000000000000000000000000000000000000000000000000008152600401613dfd90615262565b60405180910390fd5b5050505050565b600073ffffffffffffffffffffffffffffffffffffffff168373ffffffffffffffffffffffffffffffffffffffff161415613e7d576040517f08c379a0000000000000000000000000000000000000000000000000000000008152600401613e74906152a2565b60405180910390fd5b600073ffffffffffffffffffffffffffffffffffffffff168273ffffffffffffffffffffffffffffffffffffffff161415613eed576040517f08c379a0000000000000000000000000000000000000000000000000000000008152600401613ee490615242565b60405180910390fd5b80600e60008573ffffffffffffffffffffffffffffffffffffffff1673ffffffffffffffffffffffffffffffffffffffff16815260200190815260200160002060008473ffffffffffffffffffffffffffffffffffffffff1673ffffffffffffffffffffffffffffffffffffffff168152602001908152602001600020819055508173ffffffffffffffffffffffffffffffffffffffff168373ffffffffffffffffffffffffffffffffffffffff167f8c5be1e5ebec7d5bd14f71427d1e84f3dd0314c0f7b2291e5b200ac8c7c3b92583604051613fcb91906152c2565b60405180910390a3505050565b600073ffffffffffffffffffffffffffffffffffffffff168373ffffffffffffffffffffffffffffffffffffffff161415614048576040517f08c379a000000000000000000000000000000000000000000000000000000000815260040161403f90615282565b60405180910390fd5b600073ffffffffffffffffffffffffffffffffffffffff168273ffffffffffffffffffffffffffffffffffffffff1614156140b8576040517f08c379a00000000000000000000000000000000000000000000000000000000081526004016140af90615222565b60405180910390fd5b6000600d60008573ffffffffffffffffffffffffffffffffffffffff1673ffffffffffffffffffffffffffffffffffffffff1681526020019081526020016000205490508181101561413f576040517f08c379a000000000000000000000000000000000000000000000000000000000815260040161413690615202565b60405180910390fd5b818161414b919061551e565b600d60008673ffffffffffffffffffffffffffffffffffffffff1673ffffffffffffffffffffffffffffffffffffffff1681526020019081526020016000208190555081600d60008573ffffffffffffffffffffffffffffffffffffffff1673ffffffffffffffffffffffffffffffffffffffff16815260200190815260200160002060008282546141dd919061543d565b925050819055508273ffffffffffffffffffffffffffffffffffffffff168473ffffffffffffffffffffffffffffffffffffffff167fddf252ad1be2c89b69c2b068fc378daa952ba7f163c4a11628f55a4df523b3ef8460405161424191906152c2565b60405180910390a350505050565b6000807f000000000000000000000000000000000000000000000000000000000000000073ffffffffffffffffffffffffffffffffffffffff166370a08231306040518263ffffffff1660e01b81526004016142ab9190615118565b60206040518083038186803b1580156142c357600080fd5b505afa1580156142d7573d6000803e3d6000fd5b505050506040513d601f19601f820116820180604052508101906142fb9190614f1a565b905060105481111561431c5760105481614315919061551e565b9150614321565b600091505b5090565b600080600060105490506000600f54905060006143406139d6565b73ffffffffffffffffffffffffffffffffffffffff16637b0e5c456040518163ffffffff1660e01b815260040160206040518083038186803b15801561438557600080fd5b505afa158015614399573d6000803e3d6000fd5b505050506040513d601f19601f820116820180604052508101906143bd9190614daf565b90508073ffffffffffffffffffffffffffffffffffffffff1663701baaf38785856040518463ffffffff1660e01b81526004016143fc93929190615366565b60206040518083038186803b15801561441457600080fd5b505afa158015614428573d6000803e3d6000fd5b505050506040513d601f19601f8201168201806040525081019061444c9190614f1a565b94508073ffffffffffffffffffffffffffffffffffffffff1663896a708c8785856040518463ffffffff1660e01b815260040161448b93929190615366565b60206040518083038186803b1580156144a357600080fd5b505afa1580156144b7573d6000803e3d6000fd5b505050506040513d601f19601f820116820180604052508101906144db9190614f1a565b93506144fd85836144ec919061551e565b87856144f8919061543d565b614bd5565b6145068461487d565b505050915091565b6000807f000000000000000000000000000000000000000000000000000000000000000073ffffffffffffffffffffffffffffffffffffffff166370a08231306040518263ffffffff1660e01b815260040161456a9190615118565b60206040518083038186803b15801561458257600080fd5b505afa158015614596573d6000803e3d6000fd5b505050506040513d601f19601f820116820180604052508101906145ba9190614f1a565b9050600f548111156145db57600f54816145d4919061551e565b91506145e0565b600091505b5090565b6000806000600f5490506000601054905060006145ff6139d6565b73ffffffffffffffffffffffffffffffffffffffff16637b0e5c456040518163ffffffff1660e01b815260040160206040518083038186803b15801561464457600080fd5b505afa158015614658573d6000803e3d6000fd5b505050506040513d601f19601f8201168201806040525081019061467c9190614daf565b90508073ffffffffffffffffffffffffffffffffffffffff1663701baaf38785856040518463ffffffff1660e01b81526004016146bb93929190615366565b60206040518083038186803b1580156146d357600080fd5b505afa1580156146e7573d6000803e3d6000fd5b505050506040513d601f19601f8201168201806040525081019061470b9190614f1a565b945060008173ffffffffffffffffffffffffffffffffffffffff1663896a708c8886866040518463ffffffff1660e01b815260040161474c93929190615366565b60206040518083038186803b15801561476457600080fd5b505afa158015614778573d6000803e3d6000fd5b505050506040513d601f19601f8201168201806040525081019061479c9190614f1a565b90508173ffffffffffffffffffffffffffffffffffffffff1663c19387df7f0000000000000000000000000000000000000000000000000000000000000000836040518363ffffffff1660e01b81526004016147f992919061515c565b60206040518083038186803b15801561481157600080fd5b505afa158015614825573d6000803e3d6000fd5b505050506040513d601f19601f820116820180604052508101906148499190614f1a565b945061486b878561485a919061543d565b8785614866919061551e565b614bd5565b6148748561487d565b50505050915091565b62278d0060115461488e919061543d565b42116148ad57806012546148a2919061543d565b6012819055506148d0565b426011819055506012546013819055506148c8601354614bef565b806012819055505b50565b600073ffffffffffffffffffffffffffffffffffffffff168273ffffffffffffffffffffffffffffffffffffffff161415614943576040517f08c379a000000000000000000000000000000000000000000000000000000000815260040161493a906151c2565b60405180910390fd5b80600c6000828254614955919061543d565b9250508190555080600d60008473ffffffffffffffffffffffffffffffffffffffff1673ffffffffffffffffffffffffffffffffffffffff16815260200190815260200160002060008282546149ab919061543d565b925050819055508173ffffffffffffffffffffffffffffffffffffffff16600073ffffffffffffffffffffffffffffffffffffffff167fddf252ad1be2c89b69c2b068fc378daa952ba7f163c4a11628f55a4df523b3ef83604051614a1091906152c2565b60405180910390a35050565b60015482600f54614a2d919061543d565b10614a3757600080fd5b81600f6000828254614a49919061543d565b925050819055508060106000828254614a62919061543d565b92505081905550614a71614a75565b5050565b6000601054600f54670de0b6b3a7640000614a9091906154c4565b614a9a9190615493565b9050600080600254831115614ad95760025483614ab7919061551e565b91508261271083614ac891906154c4565b614ad29190615493565b9050614b07565b82600254614ae7919061551e565b915060025461271083614afa91906154c4565b614b049190615493565b90505b6004548110614b30576001600560006101000a81548160ff021916908315150217905550614b57565b600354421115614b5657610e1042614b48919061543d565b600381905550826002819055505b5b600560009054906101000a900460ff1615614bd0576004548111614b91576000600560006101000a81548160ff0219169083151502179055505b600354421115614bcf57610e1042614ba9919061543d565b6003819055506002805484614bbe919061543d565b614bc89190615493565b6002819055505b5b505050565b81600f8190555080601081905550614beb614a75565b5050565b60026014805490501415614cdb576014600181548110614c38577f4e487b7100000000000000000000000000000000000000000000000000000000600052603260045260246000fd5b90600052602060002001546014600081548110614c7e577f4e487b7100000000000000000000000000000000000000000000000000000000600052603260045260246000fd5b9060005260206000200181905550806014600181548110614cc8577f4e487b7100000000000000000000000000000000000000000000000000000000600052603260045260246000fd5b9060005260206000200181905550614d05565b60148190806001815401808255809150506001900390600052602060002001600090919091909150555b50565b600081359050614d1781615804565b92915050565b600081519050614d2c81615804565b92915050565b600081519050614d418161581b565b92915050565b600081519050614d5681615832565b92915050565b600081359050614d6b81615849565b92915050565b600081519050614d8081615849565b92915050565b600060208284031215614d9857600080fd5b6000614da684828501614d08565b91505092915050565b600060208284031215614dc157600080fd5b6000614dcf84828501614d1d565b91505092915050565b60008060408385031215614deb57600080fd5b6000614df985828601614d08565b9250506020614e0a85828601614d08565b9150509250929050565b600080600060608486031215614e2957600080fd5b6000614e3786828701614d08565b9350506020614e4886828701614d08565b9250506040614e5986828701614d5c565b9150509250925092565b60008060408385031215614e7657600080fd5b6000614e8485828601614d08565b9250506020614e9585828601614d5c565b9150509250929050565b600060208284031215614eb157600080fd5b6000614ebf84828501614d32565b91505092915050565b600060208284031215614eda57600080fd5b6000614ee884828501614d47565b91505092915050565b600060208284031215614f0357600080fd5b6000614f1184828501614d5c565b91505092915050565b600060208284031215614f2c57600080fd5b6000614f3a84828501614d71565b91505092915050565b614f4c81615552565b82525050565b614f5b81615564565b82525050565b6000614f6c8261540b565b614f768185615421565b9350614f868185602086016155b9565b80840191505092915050565b6000614f9d82615416565b614fa7818561542c565b9350614fb78185602086016155b9565b614fc0816156ab565b840191505092915050565b6000614fd860088361542c565b9150614fe3826156bc565b602082019050919050565b6000614ffb60098361542c565b9150615006826156e5565b602082019050919050565b600061501e60088361542c565b91506150298261570e565b602082019050919050565b600061504160058361542c565b915061504c82615737565b602082019050919050565b600061506460088361542c565b915061506f82615760565b602082019050919050565b6000615087600f8361542c565b915061509282615789565b602082019050919050565b60006150aa60078361542c565b91506150b5826157b2565b602082019050919050565b60006150cd60068361542c565b91506150d8826157db565b602082019050919050565b6150ec816155a2565b82525050565b6150fb816155ac565b82525050565b600061510d8284614f61565b915081905092915050565b600060208201905061512d6000830184614f43565b92915050565b60006040820190506151486000830185614f43565b6151556020830184614f43565b9392505050565b60006040820190506151716000830185614f43565b61517e60208301846150e3565b9392505050565b600060208201905061519a6000830184614f52565b92915050565b600060208201905081810360008301526151ba8184614f92565b905092915050565b600060208201905081810360008301526151db81614fcb565b9050919050565b600060208201905081810360008301526151fb81614fee565b9050919050565b6000602082019050818103600083015261521b81615011565b9050919050565b6000602082019050818103600083015261523b81615034565b9050919050565b6000602082019050818103600083015261525b81615057565b9050919050565b6000602082019050818103600083015261527b8161507a565b9050919050565b6000602082019050818103600083015261529b8161509d565b9050919050565b600060208201905081810360008301526152bb816150c0565b9050919050565b60006020820190506152d760008301846150e3565b92915050565b60006040820190506152f260008301856150e3565b6152ff6020830184614f43565b9392505050565b600060608201905061531b60008301866150e3565b6153286020830185614f43565b6153356040830184614f43565b949350505050565b600060408201905061535260008301856150e3565b61535f60208301846150e3565b9392505050565b600060608201905061537b60008301866150e3565b61538860208301856150e3565b61539560408301846150e3565b949350505050565b600060a0820190506153b260008301886150e3565b6153bf60208301876150e3565b6153cc60408301866150e3565b6153d960608301856150e3565b6153e660808301846150e3565b9695505050505050565b600060208201905061540560008301846150f2565b92915050565b600081519050919050565b600081519050919050565b600081905092915050565b600082825260208201905092915050565b6000615448826155a2565b9150615453836155a2565b9250827fffffffffffffffffffffffffffffffffffffffffffffffffffffffffffffffff038211156154885761548761561e565b5b828201905092915050565b600061549e826155a2565b91506154a9836155a2565b9250826154b9576154b861564d565b5b828204905092915050565b60006154cf826155a2565b91506154da836155a2565b9250817fffffffffffffffffffffffffffffffffffffffffffffffffffffffffffffffff04831182151516156155135761551261561e565b5b828202905092915050565b6000615529826155a2565b9150615534836155a2565b9250828210156155475761554661561e565b5b828203905092915050565b600061555d82615582565b9050919050565b60008115159050919050565b600061557b82615552565b9050919050565b600073ffffffffffffffffffffffffffffffffffffffff82169050919050565b6000819050919050565b600060ff82169050919050565b60005b838110156155d75780820151818401526020810190506155bc565b838111156155e6576000848401525b50505050565b6000600282049050600182168061560457607f821691505b602082108114156156185761561761567c565b5b50919050565b7f4e487b7100000000000000000000000000000000000000000000000000000000600052601160045260246000fd5b7f4e487b7100000000000000000000000000000000000000000000000000000000600052601260045260246000fd5b7f4e487b7100000000000000000000000000000000000000000000000000000000600052602260045260246000fd5b6000601f19601f8301169050919050565b7f216163636f756e74000000000000000000000000000000000000000000000000600082015250565b7f21617070726f76616c0000000000000000000000000000000000000000000000600082015250565b7f2162616c616e6365000000000000000000000000000000000000000000000000600082015250565b7f214255524e000000000000000000000000000000000000000000000000000000600082015250565b7f217370656e646572000000000000000000000000000000000000000000000000600082015250565b7f5452414e534645525f4641494c45440000000000000000000000000000000000600082015250565b7f2173656e64657200000000000000000000000000000000000000000000000000600082015250565b7f216f776e65720000000000000000000000000000000000000000000000000000600082015250565b61580d81615552565b811461581857600080fd5b50565b61582481615564565b811461582f57600080fd5b50565b61583b81615570565b811461584657600080fd5b50565b615852816155a2565b811461585d57600080fd5b5056fea2646970667358221220c7c37087f9a29c575686f84183d151da81b77e2e4cbd27e89aab1c9ec219378464736f6c63430008030033a26469706673582212206dcd5b769f0cddfc0f21b9a7603d0cb82ff265b28bd448ba00104b10a6b570d464736f6c63430008030033",
  "linkReferences": {},
  "deployedLinkReferences": {}
}