{
  "_format": "hh-sol-artifact-1",
  "contractName": "PoolFactory",
  "sourceName": "contracts/poolFactory.sol",
  "abi": [
    {
      "inputs": [
        {
          "internalType": "address",
          "name": "_base",
          "type": "address"
        },
        {
          "internalType": "address",
          "name": "_wbnb",
          "type": "address"
        }
      ],
      "stateMutability": "nonpayable",
      "type": "constructor"
    },
    {
      "anonymous": false,
      "inputs": [
        {
          "indexed": true,
          "internalType": "address",
          "name": "pool",
          "type": "address"
        }
      ],
      "name": "AddCuratePool",
      "type": "event"
    },
    {
      "anonymous": false,
      "inputs": [
        {
          "indexed": true,
          "internalType": "address",
          "name": "token",
          "type": "address"
        },
        {
          "indexed": true,
          "internalType": "address",
          "name": "pool",
          "type": "address"
        }
      ],
      "name": "CreatePool",
      "type": "event"
    },
    {
      "anonymous": false,
      "inputs": [
        {
          "indexed": true,
          "internalType": "address",
          "name": "pool",
          "type": "address"
        }
      ],
      "name": "RemoveCuratePool",
      "type": "event"
    },
    {
      "inputs": [
        {
          "internalType": "address",
          "name": "token",
          "type": "address"
        }
      ],
      "name": "addCuratedPool",
      "outputs": [],
      "stateMutability": "nonpayable",
      "type": "function"
    },
    {
      "inputs": [
        {
          "internalType": "uint256",
          "name": "inputBase",
          "type": "uint256"
        },
        {
          "internalType": "uint256",
          "name": "inputToken",
          "type": "uint256"
        },
        {
          "internalType": "address",
          "name": "token",
          "type": "address"
        }
      ],
      "name": "createPoolADD",
      "outputs": [
        {
          "internalType": "address",
          "name": "pool",
          "type": "address"
        }
      ],
      "stateMutability": "payable",
      "type": "function"
    },
    {
      "inputs": [],
      "name": "curatedPoolCount",
      "outputs": [
        {
          "internalType": "uint256",
          "name": "",
          "type": "uint256"
        }
      ],
      "stateMutability": "view",
      "type": "function"
    },
    {
      "inputs": [
        {
          "internalType": "address",
          "name": "token",
          "type": "address"
        }
      ],
      "name": "getPool",
      "outputs": [
        {
          "internalType": "address",
          "name": "pool",
          "type": "address"
        }
      ],
      "stateMutability": "view",
      "type": "function"
    },
    {
      "inputs": [],
      "name": "getPoolAssets",
      "outputs": [
        {
          "internalType": "address[]",
          "name": "pools",
          "type": "address[]"
        }
      ],
      "stateMutability": "view",
      "type": "function"
    },
    {
      "inputs": [],
      "name": "getTokenAssets",
      "outputs": [
        {
          "internalType": "address[]",
          "name": "tokens",
          "type": "address[]"
        }
      ],
      "stateMutability": "view",
      "type": "function"
    },
    {
      "inputs": [],
      "name": "getVaultAssets",
      "outputs": [
        {
          "internalType": "address[]",
          "name": "assets",
          "type": "address[]"
        }
      ],
      "stateMutability": "view",
      "type": "function"
    },
    {
      "inputs": [
        {
          "internalType": "address",
          "name": "",
          "type": "address"
        }
      ],
      "name": "isCuratedPool",
      "outputs": [
        {
          "internalType": "bool",
          "name": "",
          "type": "bool"
        }
      ],
      "stateMutability": "view",
      "type": "function"
    },
    {
      "inputs": [
        {
          "internalType": "address",
          "name": "",
          "type": "address"
        }
      ],
      "name": "isPool",
      "outputs": [
        {
          "internalType": "bool",
          "name": "",
          "type": "bool"
        }
      ],
      "stateMutability": "view",
      "type": "function"
    },
    {
      "inputs": [],
      "name": "purgeDeployer",
      "outputs": [],
      "stateMutability": "nonpayable",
      "type": "function"
    },
    {
      "inputs": [
        {
          "internalType": "address",
          "name": "token",
          "type": "address"
        }
      ],
      "name": "removeCuratedPool",
      "outputs": [],
      "stateMutability": "nonpayable",
      "type": "function"
    },
    {
      "inputs": [
        {
          "internalType": "uint256",
          "name": "newSize",
          "type": "uint256"
        },
        {
          "internalType": "uint256",
          "name": "_minBASE",
          "type": "uint256"
        }
      ],
      "name": "setParams",
      "outputs": [],
      "stateMutability": "nonpayable",
      "type": "function"
    }
  ],
  "bytecode": "0x60c06040523480156200001157600080fd5b506040516200888d3803806200888d83398181016040528101906200003791906200011d565b8173ffffffffffffffffffffffffffffffffffffffff1660808173ffffffffffffffffffffffffffffffffffffffff1660601b815250508073ffffffffffffffffffffffffffffffffffffffff1660a08173ffffffffffffffffffffffffffffffffffffffff1660601b81525050600a60018190555069021e19e0c9bab2400000600681905550336000806101000a81548173ffffffffffffffffffffffffffffffffffffffff021916908373ffffffffffffffffffffffffffffffffffffffff1602179055505050620001ac565b600081519050620001178162000192565b92915050565b600080604083850312156200013157600080fd5b6000620001418582860162000106565b9250506020620001548582860162000106565b9150509250929050565b60006200016b8262000172565b9050919050565b600073ffffffffffffffffffffffffffffffffffffffff82169050919050565b6200019d816200015e565b8114620001a957600080fd5b50565b60805160601c60a05160601c61867662000217600039600081816112ac015281816115cd01528181611b990152611c3201526000818161059a01528181610bee015281816114d4015281816115f6015281816116e2015281816117c40152611a9f01526186766000f3fe608060405260043610620000b65760003560e01c80638dcb4c93116200006d5780638dcb4c9314620001d5578063abc764da1462000219578063bbe4f6db1462000249578063c0324c77146200028d578063cb66955414620002bb578063cf3abaf114620002f157620000b6565b806303a8213814620000bb5780632b2260a814620000d557806345f6e46014620001035780635b16ebb714620001335780637ca51fbf14620001775780638bc51e3614620001a5575b600080fd5b348015620000c857600080fd5b50620000d362000321565b005b348015620000e257600080fd5b50620001016004803603810190620000fb919062001e3f565b6200047e565b005b3480156200011057600080fd5b506200011b62000a22565b6040516200012a919062002198565b60405180910390f35b3480156200014057600080fd5b506200015f600480360381019062000159919062001e3f565b62000ab2565b6040516200016e9190620021bc565b60405180910390f35b3480156200018457600080fd5b50620001a360048036038101906200019d919062001e3f565b62000ad2565b005b348015620001b257600080fd5b50620001bd620011b9565b604051620001cc9190620021d9565b60405180910390f35b348015620001e257600080fd5b50620002016004803603810190620001fb919062001e3f565b620011bf565b604051620002109190620021bc565b60405180910390f35b3480156200022657600080fd5b5062000231620011df565b60405162000240919062002198565b60405180910390f35b3480156200025657600080fd5b506200027560048036038101906200026f919062001e3f565b6200126f565b604051620002849190620020e4565b60405180910390f35b3480156200029a57600080fd5b50620002b96004803603810190620002b3919062001f1b565b62001396565b005b620002d96004803603810190620002d3919062001f5c565b620014d0565b604051620002e89190620020e4565b60405180910390f35b348015620002fe57600080fd5b506200030962001a0b565b60405162000318919062002198565b60405180910390f35b60008054906101000a900473ffffffffffffffffffffffffffffffffffffffff1673ffffffffffffffffffffffffffffffffffffffff163373ffffffffffffffffffffffffffffffffffffffff1614806200043157506200038162001a9b565b73ffffffffffffffffffffffffffffffffffffffff166398fabd3a6040518163ffffffff1660e01b815260040160206040518083038186803b158015620003c757600080fd5b505afa158015620003dc573d6000803e3d6000fd5b505050506040513d601f19601f8201168201806040525081019062000402919062001e6b565b73ffffffffffffffffffffffffffffffffffffffff163373ffffffffffffffffffffffffffffffffffffffff16145b6200043b57600080fd5b60008060006101000a81548173ffffffffffffffffffffffffffffffffffffffff021916908373ffffffffffffffffffffffffffffffffffffffff160217905550565b60008054906101000a900473ffffffffffffffffffffffffffffffffffffffff1673ffffffffffffffffffffffffffffffffffffffff163373ffffffffffffffffffffffffffffffffffffffff1614806200058e5750620004de62001a9b565b73ffffffffffffffffffffffffffffffffffffffff166398fabd3a6040518163ffffffff1660e01b815260040160206040518083038186803b1580156200052457600080fd5b505afa15801562000539573d6000803e3d6000fd5b505050506040513d601f19601f820116820180604052508101906200055f919062001e6b565b73ffffffffffffffffffffffffffffffffffffffff163373ffffffffffffffffffffffffffffffffffffffff16145b6200059857600080fd5b7f000000000000000000000000000000000000000000000000000000000000000073ffffffffffffffffffffffffffffffffffffffff168173ffffffffffffffffffffffffffffffffffffffff161415620005f257600080fd5b6000620005fe62001a9b565b73ffffffffffffffffffffffffffffffffffffffff166398fabd3a6040518163ffffffff1660e01b815260040160206040518083038186803b1580156200064457600080fd5b505afa15801562000659573d6000803e3d6000fd5b505050506040513d601f19601f820116820180604052508101906200067f919062001e6b565b73ffffffffffffffffffffffffffffffffffffffff16632b49d4256040518163ffffffff1660e01b815260040160206040518083038186803b158015620006c557600080fd5b505afa158015620006da573d6000803e3d6000fd5b505050506040513d601f19601f8201168201806040525081019062000700919062001eef565b9050600015156200071062001a9b565b73ffffffffffffffffffffffffffffffffffffffff166398fabd3a6040518163ffffffff1660e01b815260040160206040518083038186803b1580156200075657600080fd5b505afa1580156200076b573d6000803e3d6000fd5b505050506040513d601f19601f8201168201806040525081019062000791919062001e6b565b73ffffffffffffffffffffffffffffffffffffffff16638bebea89836040518263ffffffff1660e01b8152600401620007cb9190620021d9565b60206040518083038186803b158015620007e457600080fd5b505afa158015620007f9573d6000803e3d6000fd5b505050506040513d601f19601f820116820180604052508101906200081f919062001e97565b1515146200082c57600080fd5b600062000839836200126f565b905060011515600860008373ffffffffffffffffffffffffffffffffffffffff1673ffffffffffffffffffffffffffffffffffffffff16815260200190815260200160002060009054906101000a900460ff161515146200089957600080fd5b60001515600960008373ffffffffffffffffffffffffffffffffffffffff1673ffffffffffffffffffffffffffffffffffffffff16815260200190815260200160002060009054906101000a900460ff16151514620008f757600080fd5b600154600254106200090857600080fd5b6001600960008373ffffffffffffffffffffffffffffffffffffffff1673ffffffffffffffffffffffffffffffffffffffff16815260200190815260200160002060006101000a81548160ff02191690831515021790555060016002546200097191906200223a565b6002819055506005819080600181540180825580915050600190039060005260206000200160009091909190916101000a81548173ffffffffffffffffffffffffffffffffffffffff021916908373ffffffffffffffffffffffffffffffffffffffff1602179055508073ffffffffffffffffffffffffffffffffffffffff167ff21aa98dc310425cc8b86ef0a55117a759c433acf6c59d51f09ac1782a645cf860405160405180910390a2505050565b6060600380548060200260200160405190810160405280929190818152602001828054801562000aa857602002820191906000526020600020905b8160009054906101000a900473ffffffffffffffffffffffffffffffffffffffff1673ffffffffffffffffffffffffffffffffffffffff168152602001906001019080831162000a5d575b5050505050905090565b60086020528060005260406000206000915054906101000a900460ff1681565b60008054906101000a900473ffffffffffffffffffffffffffffffffffffffff1673ffffffffffffffffffffffffffffffffffffffff163373ffffffffffffffffffffffffffffffffffffffff16148062000be2575062000b3262001a9b565b73ffffffffffffffffffffffffffffffffffffffff166398fabd3a6040518163ffffffff1660e01b815260040160206040518083038186803b15801562000b7857600080fd5b505afa15801562000b8d573d6000803e3d6000fd5b505050506040513d601f19601f8201168201806040525081019062000bb3919062001e6b565b73ffffffffffffffffffffffffffffffffffffffff163373ffffffffffffffffffffffffffffffffffffffff16145b62000bec57600080fd5b7f000000000000000000000000000000000000000000000000000000000000000073ffffffffffffffffffffffffffffffffffffffff168173ffffffffffffffffffffffffffffffffffffffff16141562000c4657600080fd5b600062000c53826200126f565b90506000151562000c6362001a9b565b73ffffffffffffffffffffffffffffffffffffffff16632f7fa1806040518163ffffffff1660e01b815260040160206040518083038186803b15801562000ca957600080fd5b505afa15801562000cbe573d6000803e3d6000fd5b505050506040513d601f19601f8201168201806040525081019062000ce4919062001e6b565b73ffffffffffffffffffffffffffffffffffffffff1663f794062e836040518263ffffffff1660e01b815260040162000d1e9190620020e4565b60206040518083038186803b15801562000d3757600080fd5b505afa15801562000d4c573d6000803e3d6000fd5b505050506040513d601f19601f8201168201806040525081019062000d72919062001e97565b15151462000d7f57600080fd5b60011515600960008373ffffffffffffffffffffffffffffffffffffffff1673ffffffffffffffffffffffffffffffffffffffff16815260200190815260200160002060009054906101000a900460ff1615151462000ddd57600080fd5b6000600960008373ffffffffffffffffffffffffffffffffffffffff1673ffffffffffffffffffffffffffffffffffffffff16815260200190815260200160002060006101000a81548160ff021916908315150217905550600160025462000e46919062002297565b60028190555060005b60058054905081101562001078578173ffffffffffffffffffffffffffffffffffffffff166005828154811062000eaf577f4e487b7100000000000000000000000000000000000000000000000000000000600052603260045260246000fd5b9060005260206000200160009054906101000a900473ffffffffffffffffffffffffffffffffffffffff1673ffffffffffffffffffffffffffffffffffffffff16141562001062576005600160058054905062000f0d919062002297565b8154811062000f45577f4e487b7100000000000000000000000000000000000000000000000000000000600052603260045260246000fd5b9060005260206000200160009054906101000a900473ffffffffffffffffffffffffffffffffffffffff166005828154811062000fab577f4e487b7100000000000000000000000000000000000000000000000000000000600052603260045260246000fd5b9060005260206000200160006101000a81548173ffffffffffffffffffffffffffffffffffffffff021916908373ffffffffffffffffffffffffffffffffffffffff16021790555060058054806200102c577f4e487b7100000000000000000000000000000000000000000000000000000000600052603160045260246000fd5b6001900381819060005260206000200160006101000a81549073ffffffffffffffffffffffffffffffffffffffff021916905590555b80806200106f906200233d565b91505062000e4f565b506200108362001a9b565b73ffffffffffffffffffffffffffffffffffffffff1663b93ec54b6040518163ffffffff1660e01b815260040160206040518083038186803b158015620010c957600080fd5b505afa158015620010de573d6000803e3d6000fd5b505050506040513d601f19601f8201168201806040525081019062001104919062001e6b565b73ffffffffffffffffffffffffffffffffffffffff166335a7ede6836040518263ffffffff1660e01b81526004016200113e9190620020e4565b600060405180830381600087803b1580156200115957600080fd5b505af11580156200116e573d6000803e3d6000fd5b505050508073ffffffffffffffffffffffffffffffffffffffff167fe0e122d7131ec0f49556c4f88f13ed2b7f6624d0b88edd40870fa8715cab8b1c60405160405180910390a25050565b60025481565b60096020528060005260406000206000915054906101000a900460ff1681565b606060058054806020026020016040519081016040528092919081815260200182805480156200126557602002820191906000526020600020905b8160009054906101000a900473ffffffffffffffffffffffffffffffffffffffff1673ffffffffffffffffffffffffffffffffffffffff16815260200190600101908083116200121a575b5050505050905090565b60008073ffffffffffffffffffffffffffffffffffffffff168273ffffffffffffffffffffffffffffffffffffffff1614156200132e57600760007f000000000000000000000000000000000000000000000000000000000000000073ffffffffffffffffffffffffffffffffffffffff1673ffffffffffffffffffffffffffffffffffffffff16815260200190815260200160002060009054906101000a900473ffffffffffffffffffffffffffffffffffffffff16905062001391565b600760008373ffffffffffffffffffffffffffffffffffffffff1673ffffffffffffffffffffffffffffffffffffffff16815260200190815260200160002060009054906101000a900473ffffffffffffffffffffffffffffffffffffffff1690505b919050565b60008054906101000a900473ffffffffffffffffffffffffffffffffffffffff1673ffffffffffffffffffffffffffffffffffffffff163373ffffffffffffffffffffffffffffffffffffffff161480620014a65750620013f662001a9b565b73ffffffffffffffffffffffffffffffffffffffff166398fabd3a6040518163ffffffff1660e01b815260040160206040518083038186803b1580156200143c57600080fd5b505afa15801562001451573d6000803e3d6000fd5b505050506040513d601f19601f8201168201806040525081019062001477919062001e6b565b73ffffffffffffffffffffffffffffffffffffffff163373ffffffffffffffffffffffffffffffffffffffff16145b620014b057600080fd5b60008211620014be57600080fd5b81600181905550806006819055505050565b60007f000000000000000000000000000000000000000000000000000000000000000073ffffffffffffffffffffffffffffffffffffffff168273ffffffffffffffffffffffffffffffffffffffff1614156200152c57600080fd5b600073ffffffffffffffffffffffffffffffffffffffff166200154f836200126f565b73ffffffffffffffffffffffffffffffffffffffff16146200157057600080fd5b620186a0831180156200158557506006548410155b6200158f57600080fd5b600080839050600073ffffffffffffffffffffffffffffffffffffffff168473ffffffffffffffffffffffffffffffffffffffff161415620015f4577f00000000000000000000000000000000000000000000000000000000000000009050620016e0565b7f000000000000000000000000000000000000000000000000000000000000000073ffffffffffffffffffffffffffffffffffffffff168473ffffffffffffffffffffffffffffffffffffffff1614158015620016d5575060128473ffffffffffffffffffffffffffffffffffffffff1663313ce5676040518163ffffffff1660e01b815260040160206040518083038186803b1580156200169557600080fd5b505afa158015620016aa573d6000803e3d6000fd5b505050506040513d601f19601f82011682018060405250810190620016d0919062001fb2565b60ff16145b620016df57600080fd5b5b7f000000000000000000000000000000000000000000000000000000000000000081604051620017109062001d90565b6200171d92919062002101565b604051809103906000f0801580156200173a573d6000803e3d6000fd5b50915081925082600760008373ffffffffffffffffffffffffffffffffffffffff1673ffffffffffffffffffffffffffffffffffffffff16815260200190815260200160002060006101000a81548173ffffffffffffffffffffffffffffffffffffffff021916908373ffffffffffffffffffffffffffffffffffffffff160217905550620017eb7f0000000000000000000000000000000000000000000000000000000000000000878562001b44565b620017f884868562001b44565b6003839080600181540180825580915050600190039060005260206000200160009091909190916101000a81548173ffffffffffffffffffffffffffffffffffffffff021916908373ffffffffffffffffffffffffffffffffffffffff1602179055506004819080600181540180825580915050600190039060005260206000200160009091909190916101000a81548173ffffffffffffffffffffffffffffffffffffffff021916908373ffffffffffffffffffffffffffffffffffffffff1602179055506001600860008573ffffffffffffffffffffffffffffffffffffffff1673ffffffffffffffffffffffffffffffffffffffff16815260200190815260200160002060006101000a81548160ff0219169083151502179055508273ffffffffffffffffffffffffffffffffffffffff168173ffffffffffffffffffffffffffffffffffffffff167fdbd2a1ea6808362e6adbec4db4969cbc11e3b0b28fb6c74cb342defaaf1daada60405160405180910390a38273ffffffffffffffffffffffffffffffffffffffff166386d5f618336040518263ffffffff1660e01b8152600401620019ab9190620020e4565b602060405180830381600087803b158015620019c657600080fd5b505af1158015620019db573d6000803e3d6000fd5b505050506040513d601f19601f8201168201806040525081019062001a01919062001eef565b5050509392505050565b6060600480548060200260200160405190810160405280929190818152602001828054801562001a9157602002820191906000526020600020905b8160009054906101000a900473ffffffffffffffffffffffffffffffffffffffff1673ffffffffffffffffffffffffffffffffffffffff168152602001906001019080831162001a46575b5050505050905090565b60007f000000000000000000000000000000000000000000000000000000000000000073ffffffffffffffffffffffffffffffffffffffff166398fabd3a6040518163ffffffff1660e01b815260040160206040518083038186803b15801562001b0457600080fd5b505afa15801562001b19573d6000803e3d6000fd5b505050506040513d601f19601f8201168201806040525081019062001b3f919062001ec3565b905090565b6000821162001b5257600080fd5b600073ffffffffffffffffffffffffffffffffffffffff168373ffffffffffffffffffffffffffffffffffffffff16141562001ceb5734821462001b9557600080fd5b60007f000000000000000000000000000000000000000000000000000000000000000073ffffffffffffffffffffffffffffffffffffffff168360405162001bdd90620020cd565b60006040518083038185875af1925050503d806000811462001c1c576040519150601f19603f3d011682016040523d82523d6000602084013e62001c21565b606091505b505090508062001c3057600080fd5b7f000000000000000000000000000000000000000000000000000000000000000073ffffffffffffffffffffffffffffffffffffffff1663a9059cbb83856040518363ffffffff1660e01b815260040162001c8d9291906200216b565b602060405180830381600087803b15801562001ca857600080fd5b505af115801562001cbd573d6000803e3d6000fd5b505050506040513d601f19601f8201168201806040525081019062001ce3919062001e97565b505062001d8b565b8273ffffffffffffffffffffffffffffffffffffffff166323b872dd3383856040518463ffffffff1660e01b815260040162001d2a939291906200212e565b602060405180830381600087803b15801562001d4557600080fd5b505af115801562001d5a573d6000803e3d6000fd5b505050506040513d601f19601f8201168201806040525081019062001d80919062001e97565b62001d8a57600080fd5b5b505050565b616201806200244083390190565b60008135905062001daf81620023bd565b92915050565b60008151905062001dc681620023bd565b92915050565b60008151905062001ddd81620023d7565b92915050565b60008151905062001df481620023f1565b92915050565b60008135905062001e0b816200240b565b92915050565b60008151905062001e22816200240b565b92915050565b60008151905062001e398162002425565b92915050565b60006020828403121562001e5257600080fd5b600062001e628482850162001d9e565b91505092915050565b60006020828403121562001e7e57600080fd5b600062001e8e8482850162001db5565b91505092915050565b60006020828403121562001eaa57600080fd5b600062001eba8482850162001dcc565b91505092915050565b60006020828403121562001ed657600080fd5b600062001ee68482850162001de3565b91505092915050565b60006020828403121562001f0257600080fd5b600062001f128482850162001e11565b91505092915050565b6000806040838503121562001f2f57600080fd5b600062001f3f8582860162001dfa565b925050602062001f528582860162001dfa565b9150509250929050565b60008060006060848603121562001f7257600080fd5b600062001f828682870162001dfa565b935050602062001f958682870162001dfa565b925050604062001fa88682870162001d9e565b9150509250925092565b60006020828403121562001fc557600080fd5b600062001fd58482850162001e28565b91505092915050565b600062001fec838362001ff8565b60208301905092915050565b6200200381620022d2565b82525050565b6200201481620022d2565b82525050565b6000620020278262002206565b6200203381856200221e565b93506200204083620021f6565b8060005b83811015620020775781516200205b888262001fde565b9750620020688362002211565b92505060018101905062002044565b5085935050505092915050565b6200208f81620022e6565b82525050565b6000620020a46000836200222f565b9150620020b182620023ba565b600082019050919050565b620020c78162002326565b82525050565b6000620020da8262002095565b9150819050919050565b6000602082019050620020fb600083018462002009565b92915050565b600060408201905062002118600083018562002009565b62002127602083018462002009565b9392505050565b600060608201905062002145600083018662002009565b62002154602083018562002009565b620021636040830184620020bc565b949350505050565b600060408201905062002182600083018562002009565b620021916020830184620020bc565b9392505050565b60006020820190508181036000830152620021b481846200201a565b905092915050565b6000602082019050620021d3600083018462002084565b92915050565b6000602082019050620021f06000830184620020bc565b92915050565b6000819050602082019050919050565b600081519050919050565b6000602082019050919050565b600082825260208201905092915050565b600081905092915050565b6000620022478262002326565b9150620022548362002326565b9250827fffffffffffffffffffffffffffffffffffffffffffffffffffffffffffffffff038211156200228c576200228b6200238b565b5b828201905092915050565b6000620022a48262002326565b9150620022b18362002326565b925082821015620022c757620022c66200238b565b5b828203905092915050565b6000620022df8262002306565b9050919050565b60008115159050919050565b6000620022ff82620022d2565b9050919050565b600073ffffffffffffffffffffffffffffffffffffffff82169050919050565b6000819050919050565b600060ff82169050919050565b60006200234a8262002326565b91507fffffffffffffffffffffffffffffffffffffffffffffffffffffffffffffffff82141562002380576200237f6200238b565b5b600182019050919050565b7f4e487b7100000000000000000000000000000000000000000000000000000000600052601160045260246000fd5b50565b620023c881620022d2565b8114620023d457600080fd5b50565b620023e281620022e6565b8114620023ee57600080fd5b50565b620023fc81620022f2565b81146200240857600080fd5b50565b620024168162002326565b81146200242257600080fd5b50565b620024308162002330565b81146200243c57600080fd5b5056fe6101006040523480156200001257600080fd5b50604051620062013803806200620183398181016040528101906200003891906200043c565b8173ffffffffffffffffffffffffffffffffffffffff1660808173ffffffffffffffffffffffffffffffffffffffff1660601b815250508073ffffffffffffffffffffffffffffffffffffffff1660a08173ffffffffffffffffffffffffffffffffffffffff1660601b8152505060006040518060400160405280601481526020017f2d5370617274616e50726f746f636f6c506f6f6c000000000000000000000000815250905060006040518060400160405280600481526020017f2d5350500000000000000000000000000000000000000000000000000000000081525090508273ffffffffffffffffffffffffffffffffffffffff166306fdde036040518163ffffffff1660e01b815260040160006040518083038186803b1580156200016157600080fd5b505afa15801562000176573d6000803e3d6000fd5b505050506040513d6000823e3d601f19601f82011682018060405250810190620001a191906200047d565b82604051602001620001b5929190620004f9565b604051602081830303815290604052600a9080519060200190620001db92919062000303565b508273ffffffffffffffffffffffffffffffffffffffff166395d89b416040518163ffffffff1660e01b815260040160006040518083038186803b1580156200022357600080fd5b505afa15801562000238573d6000803e3d6000fd5b505050506040513d6000823e3d601f19601f820116820180604052508101906200026391906200047d565b8160405160200162000277929190620004f9565b604051602081830303815290604052600b90805190602001906200029d92919062000303565b50601260ff1660c08160ff1660f81b815250504260e0818152505042600381905550426011819055506109c4600081905550610bb860048190555069152d02c7e14af68000006001819055506000600881905550600160068190555050505050620006f5565b828054620003119062000600565b90600052602060002090601f01602090048101928262000335576000855562000381565b82601f106200035057805160ff191683800117855562000381565b8280016001018555821562000381579182015b828111156200038057825182559160200191906001019062000363565b5b50905062000390919062000394565b5090565b5b80821115620003af57600081600090555060010162000395565b5090565b6000620003ca620003c4846200054a565b62000521565b905082815260208101848484011115620003e357600080fd5b620003f0848285620005ca565b509392505050565b6000815190506200040981620006db565b92915050565b600082601f8301126200042157600080fd5b815162000433848260208601620003b3565b91505092915050565b600080604083850312156200045057600080fd5b60006200046085828601620003f8565b92505060206200047385828601620003f8565b9150509250929050565b6000602082840312156200049057600080fd5b600082015167ffffffffffffffff811115620004ab57600080fd5b620004b9848285016200040f565b91505092915050565b6000620004cf8262000580565b620004db81856200058b565b9350620004ed818560208601620005ca565b80840191505092915050565b6000620005078285620004c2565b9150620005158284620004c2565b91508190509392505050565b60006200052d62000540565b90506200053b828262000636565b919050565b6000604051905090565b600067ffffffffffffffff8211156200056857620005676200069b565b5b6200057382620006ca565b9050602081019050919050565b600081519050919050565b600081905092915050565b6000620005a382620005aa565b9050919050565b600073ffffffffffffffffffffffffffffffffffffffff82169050919050565b60005b83811015620005ea578082015181840152602081019050620005cd565b83811115620005fa576000848401525b50505050565b600060028204905060018216806200061957607f821691505b6020821081141562000630576200062f6200066c565b5b50919050565b6200064182620006ca565b810181811067ffffffffffffffff821117156200066357620006626200069b565b5b80604052505050565b7f4e487b7100000000000000000000000000000000000000000000000000000000600052602260045260246000fd5b7f4e487b7100000000000000000000000000000000000000000000000000000000600052604160045260246000fd5b6000601f19601f8301169050919050565b620006e68162000596565b8114620006f257600080fd5b50565b60805160601c60a05160601c60c05160f81c60e051615a3d620007c460003960008181611c8e0152611eff01526000610d14015260008181610b4801528181610bf801528181611457015281816120970152818161216b0152818161292b015281816130db0152818161393d01528181613ed80152614440015260008181610af301528181610ba401528181610c3b0152818161182901528181611fe80152818161214001528181612778015281816129bd0152818161388e01528181613e3201526141970152615a3d6000f3fe608060405234801561001057600080fd5b506004361061021b5760003560e01c80637ec3eae511610125578063cbbcf802116100ad578063ec342ad01161007c578063ec342ad014610683578063eec7faa1146106a1578063f1bbdef2146106bf578063fb195363146106f0578063fff6cae91461070c5761021b565b8063cbbcf802146105e6578063dbfc5a0414610604578063dd62ed3e14610635578063e1eddde3146106655761021b565b80639d3f87e2116100f45780639d3f87e21461051b578063a457c2d714610537578063a7f0b3de14610567578063a9059cbb14610585578063bc5dedc9146105b55761021b565b80637ec3eae51461049357806382bfefc8146104af57806386d5f618146104cd57806395d89b41146104fd5761021b565b806339509351116101a857806350f9844a1161017757806350f9844a146103eb5780635f83e5d51461040957806362a5af3b1461042757806370a0823114610445578063752d7793146104755761021b565b8063395093511461036557806342966c6814610395578063474e7302146103b15780634864d140146103cd5761021b565b806323b872dd116101ef57806323b872dd146102aa5780632783e4a9146102da57806328ea0adc1461030b578063313ce5671461032957806333ca78e4146103475761021b565b8062aea7451461022057806306fdde031461023e578063095ea7b31461025c57806318160ddd1461028c575b600080fd5b610228610716565b6040516102359190615424565b60405180910390f35b61024661071c565b6040516102539190615302565b60405180910390f35b61027660048036038101906102719190614fc5565b6107ae565b60405161028391906152e7565b60405180910390f35b6102946107c5565b6040516102a19190615424565b60405180910390f35b6102c460048036038101906102bf9190614f76565b6107cb565b6040516102d191906152e7565b60405180910390f35b6102f460048036038101906102ef9190614f3a565b6108be565b60405161030292919061549f565b60405180910390f35b610313610d0c565b6040516103209190615424565b60405180910390f35b610331610d12565b60405161033e9190615597565b60405180910390f35b61034f610d36565b60405161035c9190615424565b60405180910390f35b61037f600480360381019061037a9190614fc5565b610d3c565b60405161038c91906152e7565b60405180910390f35b6103af60048036038101906103aa9190615053565b610dda565b005b6103cb60048036038101906103c69190615053565b610f43565b005b6103d561118c565b6040516103e29190615424565b60405180910390f35b6103f3611192565b6040516104009190615424565b60405180910390f35b610411611198565b60405161041e9190615424565b60405180910390f35b61042f61119e565b60405161043c91906152e7565b60405180910390f35b61045f600480360381019061045a9190614ee8565b6111b1565b60405161046c9190615424565b60405180910390f35b61047d6111fa565b60405161048a9190615424565b60405180910390f35b6104ad60048036038101906104a89190615053565b611200565b005b6104b7611455565b6040516104c4919061527a565b60405180910390f35b6104e760048036038101906104e29190614ee8565b611479565b6040516104f49190615424565b60405180910390f35b6105056118da565b6040516105129190615302565b60405180910390f35b61053560048036038101906105309190615053565b61196c565b005b610551600480360381019061054c9190614fc5565b611ba6565b60405161055e91906152e7565b60405180910390f35b61056f611c8c565b60405161057c9190615424565b60405180910390f35b61059f600480360381019061059a9190614fc5565b611cb0565b6040516105ac91906152e7565b60405180910390f35b6105cf60048036038101906105ca9190614ee8565b611cc7565b6040516105dd92919061549f565b60405180910390f35b6105ee6121ea565b6040516105fb9190615424565b60405180910390f35b61061e60048036038101906106199190614ee8565b6121f0565b60405161062c92919061549f565b60405180910390f35b61064f600480360381019061064a9190614f3a565b612800565b60405161065c9190615424565b60405180910390f35b61066d612887565b60405161067a919061527a565b60405180910390f35b61068b6129bb565b604051610698919061527a565b60405180910390f35b6106a96129df565b6040516106b69190615424565b60405180910390f35b6106d960048036038101906106d49190614ee8565b6129e5565b6040516106e792919061549f565b60405180910390f35b61070a60048036038101906107059190615053565b6133df565b005b61071461365c565b005b60085481565b6060600a805461072b90615793565b80601f016020809104026020016040519081016040528092919081815260200182805461075790615793565b80156107a45780601f10610779576101008083540402835291602001916107a4565b820191906000526020600020905b81548152906001019060200180831161078757829003601f168201915b5050505050905090565b60006107bb3384846139ec565b6001905092915050565b600c5481565b60006107d8848484613bb7565b6000600e60008673ffffffffffffffffffffffffffffffffffffffff1673ffffffffffffffffffffffffffffffffffffffff16815260200190815260200160002060003373ffffffffffffffffffffffffffffffffffffffff1673ffffffffffffffffffffffffffffffffffffffff1681526020019081526020016000205490508281101561089c576040517f08c379a000000000000000000000000000000000000000000000000000000000815260040161089390615344565b60405180910390fd5b6108b2853385846108ad91906156c5565b6139ec565b60019150509392505050565b6000806108c9613e2e565b73ffffffffffffffffffffffffffffffffffffffff166332fe7b266040518163ffffffff1660e01b815260040160206040518083038186803b15801561090e57600080fd5b505afa158015610922573d6000803e3d6000fd5b505050506040513d601f19601f820116820180604052508101906109469190614f11565b73ffffffffffffffffffffffffffffffffffffffff163373ffffffffffffffffffffffffffffffffffffffff161480610a2e5750610982613e2e565b73ffffffffffffffffffffffffffffffffffffffff16632ab24e496040518163ffffffff1660e01b815260040160206040518083038186803b1580156109c757600080fd5b505afa1580156109db573d6000803e3d6000fd5b505050506040513d601f19601f820116820180604052508101906109ff9190614f11565b73ffffffffffffffffffffffffffffffffffffffff163373ffffffffffffffffffffffffffffffffffffffff16145b80610ae85750610a3c613e2e565b73ffffffffffffffffffffffffffffffffffffffff1663b99b0a0c6040518163ffffffff1660e01b815260040160206040518083038186803b158015610a8157600080fd5b505afa158015610a95573d6000803e3d6000fd5b505050506040513d601f19601f82011682018060405250810190610ab99190614f11565b73ffffffffffffffffffffffffffffffffffffffff163373ffffffffffffffffffffffffffffffffffffffff16145b610af157600080fd5b7f000000000000000000000000000000000000000000000000000000000000000073ffffffffffffffffffffffffffffffffffffffff168473ffffffffffffffffffffffffffffffffffffffff161480610b9657507f000000000000000000000000000000000000000000000000000000000000000073ffffffffffffffffffffffffffffffffffffffff168473ffffffffffffffffffffffffffffffffffffffff16145b610b9f57600080fd5b6000807f000000000000000000000000000000000000000000000000000000000000000073ffffffffffffffffffffffffffffffffffffffff168673ffffffffffffffffffffffffffffffffffffffff161415610c39577f00000000000000000000000000000000000000000000000000000000000000009150610c21613ed3565b9050610c2c81613fa9565b8094508195505050610c78565b7f00000000000000000000000000000000000000000000000000000000000000009150610c64614192565b9050610c6f81614268565b80945081955050505b8473ffffffffffffffffffffffffffffffffffffffff168673ffffffffffffffffffffffffffffffffffffffff168373ffffffffffffffffffffffffffffffffffffffff167fc9163c3bdf7263acf1bb3d24072cc7da025f7181c31e2edc7e1673edf5e0ca32848888604051610cf0939291906154c8565b60405180910390a4610d03868686614501565b50509250929050565b60095481565b7f000000000000000000000000000000000000000000000000000000000000000081565b60005481565b6000610dd0338484600e60003373ffffffffffffffffffffffffffffffffffffffff1673ffffffffffffffffffffffffffffffffffffffff16815260200190815260200160002060008873ffffffffffffffffffffffffffffffffffffffff1673ffffffffffffffffffffffffffffffffffffffff16815260200190815260200160002054610dcb91906155e4565b6139ec565b6001905092915050565b610de2612887565b73ffffffffffffffffffffffffffffffffffffffff163373ffffffffffffffffffffffffffffffffffffffff1614610e1957600080fd5b610e21613e2e565b73ffffffffffffffffffffffffffffffffffffffff1663b93ec54b6040518163ffffffff1660e01b815260040160206040518083038186803b158015610e6657600080fd5b505afa158015610e7a573d6000803e3d6000fd5b505050506040513d601f19601f82011682018060405250810190610e9e9190614f11565b73ffffffffffffffffffffffffffffffffffffffff16635e0237ea610ec1612887565b6040518263ffffffff1660e01b8152600401610edd919061527a565b60206040518083038186803b158015610ef557600080fd5b505afa158015610f09573d6000803e3d6000fd5b505050506040513d601f19601f82011682018060405250810190610f2d9190615001565b610f3657600080fd5b610f40338261468b565b50565b610f4b613e2e565b73ffffffffffffffffffffffffffffffffffffffff166332fe7b266040518163ffffffff1660e01b815260040160206040518083038186803b158015610f9057600080fd5b505afa158015610fa4573d6000803e3d6000fd5b505050506040513d601f19601f82011682018060405250810190610fc89190614f11565b73ffffffffffffffffffffffffffffffffffffffff163373ffffffffffffffffffffffffffffffffffffffff1614806110b05750611004613e2e565b73ffffffffffffffffffffffffffffffffffffffff16632ab24e496040518163ffffffff1660e01b815260040160206040518083038186803b15801561104957600080fd5b505afa15801561105d573d6000803e3d6000fd5b505050506040513d601f19601f820116820180604052508101906110819190614f11565b73ffffffffffffffffffffffffffffffffffffffff163373ffffffffffffffffffffffffffffffffffffffff16145b8061116a57506110be613e2e565b73ffffffffffffffffffffffffffffffffffffffff1663b99b0a0c6040518163ffffffff1660e01b815260040160206040518083038186803b15801561110357600080fd5b505afa158015611117573d6000803e3d6000fd5b505050506040513d601f19601f8201168201806040525081019061113b9190614f11565b73ffffffffffffffffffffffffffffffffffffffff163373ffffffffffffffffffffffffffffffffffffffff16145b61117357600080fd5b610bb881111561118257600080fd5b8060008190555050565b600f5481565b60075481565b60125481565b600560009054906101000a900460ff1681565b6000600d60008373ffffffffffffffffffffffffffffffffffffffff1673ffffffffffffffffffffffffffffffffffffffff168152602001908152602001600020549050919050565b60135481565b611208613e2e565b73ffffffffffffffffffffffffffffffffffffffff166332fe7b266040518163ffffffff1660e01b815260040160206040518083038186803b15801561124d57600080fd5b505afa158015611261573d6000803e3d6000fd5b505050506040513d601f19601f820116820180604052508101906112859190614f11565b73ffffffffffffffffffffffffffffffffffffffff163373ffffffffffffffffffffffffffffffffffffffff16148061136d57506112c1613e2e565b73ffffffffffffffffffffffffffffffffffffffff16632ab24e496040518163ffffffff1660e01b815260040160206040518083038186803b15801561130657600080fd5b505afa15801561131a573d6000803e3d6000fd5b505050506040513d601f19601f8201168201806040525081019061133e9190614f11565b73ffffffffffffffffffffffffffffffffffffffff163373ffffffffffffffffffffffffffffffffffffffff16145b80611427575061137b613e2e565b73ffffffffffffffffffffffffffffffffffffffff1663b99b0a0c6040518163ffffffff1660e01b815260040160206040518083038186803b1580156113c057600080fd5b505afa1580156113d4573d6000803e3d6000fd5b505050506040513d601f19601f820116820180604052508101906113f89190614f11565b73ffffffffffffffffffffffffffffffffffffffff163373ffffffffffffffffffffffffffffffffffffffff16145b61143057600080fd5b600260015461143f919061566b565b81111561144b57600080fd5b8060018190555050565b7f000000000000000000000000000000000000000000000000000000000000000081565b6000611483613e2e565b73ffffffffffffffffffffffffffffffffffffffff166332fe7b266040518163ffffffff1660e01b815260040160206040518083038186803b1580156114c857600080fd5b505afa1580156114dc573d6000803e3d6000fd5b505050506040513d601f19601f820116820180604052508101906115009190614f11565b73ffffffffffffffffffffffffffffffffffffffff163373ffffffffffffffffffffffffffffffffffffffff1614806115e8575061153c613e2e565b73ffffffffffffffffffffffffffffffffffffffff16632ab24e496040518163ffffffff1660e01b815260040160206040518083038186803b15801561158157600080fd5b505afa158015611595573d6000803e3d6000fd5b505050506040513d601f19601f820116820180604052508101906115b99190614f11565b73ffffffffffffffffffffffffffffffffffffffff163373ffffffffffffffffffffffffffffffffffffffff16145b806116a257506115f6613e2e565b73ffffffffffffffffffffffffffffffffffffffff1663b99b0a0c6040518163ffffffff1660e01b815260040160206040518083038186803b15801561163b57600080fd5b505afa15801561164f573d6000803e3d6000fd5b505050506040513d601f19601f820116820180604052508101906116739190614f11565b73ffffffffffffffffffffffffffffffffffffffff163373ffffffffffffffffffffffffffffffffffffffff16145b6116ab57600080fd5b60006116b5614192565b905060006116c1613ed3565b90506116cb613e2e565b73ffffffffffffffffffffffffffffffffffffffff16637b0e5c456040518163ffffffff1660e01b815260040160206040518083038186803b15801561171057600080fd5b505afa158015611724573d6000803e3d6000fd5b505050506040513d601f19601f820116820180604052508101906117489190614f11565b73ffffffffffffffffffffffffffffffffffffffff1663c5c11ee983600f5484601054600c546040518663ffffffff1660e01b815260040161178e959493929190615544565b60206040518083038186803b1580156117a657600080fd5b505afa1580156117ba573d6000803e3d6000fd5b505050506040513d601f19601f820116820180604052508101906117de919061507c565b92506000600f5414806117f357506000601054145b1561186d57600061271084606461180a919061566b565b611814919061563a565b9050808461182291906156c5565b935061184e7f000000000000000000000000000000000000000000000000000000000000000082614855565b81838461185b919061566b565b611865919061563a565b600281905550505b611877828261499e565b6118818484614855565b8373ffffffffffffffffffffffffffffffffffffffff167fbeb3885786d637a474cbc287c0a44587231633a077f0bd30354d5a4b18996fce8383866040516118cb939291906154c8565b60405180910390a25050919050565b6060600b80546118e990615793565b80601f016020809104026020016040519081016040528092919081815260200182805461191590615793565b80156119625780601f1061193757610100808354040283529160200191611962565b820191906000526020600020905b81548152906001019060200180831161194557829003601f168201915b5050505050905090565b611974613e2e565b73ffffffffffffffffffffffffffffffffffffffff166332fe7b266040518163ffffffff1660e01b815260040160206040518083038186803b1580156119b957600080fd5b505afa1580156119cd573d6000803e3d6000fd5b505050506040513d601f19601f820116820180604052508101906119f19190614f11565b73ffffffffffffffffffffffffffffffffffffffff163373ffffffffffffffffffffffffffffffffffffffff161480611ad95750611a2d613e2e565b73ffffffffffffffffffffffffffffffffffffffff16632ab24e496040518163ffffffff1660e01b815260040160206040518083038186803b158015611a7257600080fd5b505afa158015611a86573d6000803e3d6000fd5b505050506040513d601f19601f82011682018060405250810190611aaa9190614f11565b73ffffffffffffffffffffffffffffffffffffffff163373ffffffffffffffffffffffffffffffffffffffff16145b80611b935750611ae7613e2e565b73ffffffffffffffffffffffffffffffffffffffff1663b99b0a0c6040518163ffffffff1660e01b815260040160206040518083038186803b158015611b2c57600080fd5b505afa158015611b40573d6000803e3d6000fd5b505050506040513d601f19601f82011682018060405250810190611b649190614f11565b73ffffffffffffffffffffffffffffffffffffffff163373ffffffffffffffffffffffffffffffffffffffff16145b611b9c57600080fd5b8060048190555050565b600080600e60003373ffffffffffffffffffffffffffffffffffffffff1673ffffffffffffffffffffffffffffffffffffffff16815260200190815260200160002060008573ffffffffffffffffffffffffffffffffffffffff1673ffffffffffffffffffffffffffffffffffffffff16815260200190815260200160002054905082811015611c6b576040517f08c379a0000000000000000000000000000000000000000000000000000000008152600401611c6290615344565b60405180910390fd5b611c8133858584611c7c91906156c5565b6139ec565b600191505092915050565b7f000000000000000000000000000000000000000000000000000000000000000081565b6000611cbd338484613bb7565b6001905092915050565b600080611cd2613e2e565b73ffffffffffffffffffffffffffffffffffffffff166332fe7b266040518163ffffffff1660e01b815260040160206040518083038186803b158015611d1757600080fd5b505afa158015611d2b573d6000803e3d6000fd5b505050506040513d601f19601f82011682018060405250810190611d4f9190614f11565b73ffffffffffffffffffffffffffffffffffffffff163373ffffffffffffffffffffffffffffffffffffffff161480611e375750611d8b613e2e565b73ffffffffffffffffffffffffffffffffffffffff16632ab24e496040518163ffffffff1660e01b815260040160206040518083038186803b158015611dd057600080fd5b505afa158015611de4573d6000803e3d6000fd5b505050506040513d601f19601f82011682018060405250810190611e089190614f11565b73ffffffffffffffffffffffffffffffffffffffff163373ffffffffffffffffffffffffffffffffffffffff16145b80611ef15750611e45613e2e565b73ffffffffffffffffffffffffffffffffffffffff1663b99b0a0c6040518163ffffffff1660e01b815260040160206040518083038186803b158015611e8a57600080fd5b505afa158015611e9e573d6000803e3d6000fd5b505050506040513d601f19601f82011682018060405250810190611ec29190614f11565b73ffffffffffffffffffffffffffffffffffffffff163373ffffffffffffffffffffffffffffffffffffffff16145b611efa57600080fd5b6006547f0000000000000000000000000000000000000000000000000000000000000000611f2891906155e4565b4211611f3357600080fd5b6000611f3e306111b1565b90506000611f4a613e2e565b73ffffffffffffffffffffffffffffffffffffffff16637b0e5c456040518163ffffffff1660e01b815260040160206040518083038186803b158015611f8f57600080fd5b505afa158015611fa3573d6000803e3d6000fd5b505050506040513d601f19601f82011682018060405250810190611fc79190614f11565b90508073ffffffffffffffffffffffffffffffffffffffff16635a7b2ed3837f0000000000000000000000000000000000000000000000000000000000000000306040518463ffffffff1660e01b815260040161202693929190615468565b60206040518083038186803b15801561203e57600080fd5b505afa158015612052573d6000803e3d6000fd5b505050506040513d601f19601f82011682018060405250810190612076919061507c565b93508073ffffffffffffffffffffffffffffffffffffffff16635a7b2ed3837f0000000000000000000000000000000000000000000000000000000000000000306040518463ffffffff1660e01b81526004016120d593929190615468565b60206040518083038186803b1580156120ed57600080fd5b505afa158015612101573d6000803e3d6000fd5b505050506040513d601f19601f82011682018060405250810190612125919061507c565b925061213184846149f7565b61213b308361468b565b6121667f00000000000000000000000000000000000000000000000000000000000000008686614501565b6121917f00000000000000000000000000000000000000000000000000000000000000008685614501565b8473ffffffffffffffffffffffffffffffffffffffff167f59c3a0b60c6ab7deb62e1440c9e72441db6db7dfe514dba8cb18e60c0d896efa8585856040516121db939291906154c8565b60405180910390a25050915091565b60015481565b6000806121fb613e2e565b73ffffffffffffffffffffffffffffffffffffffff166332fe7b266040518163ffffffff1660e01b815260040160206040518083038186803b15801561224057600080fd5b505afa158015612254573d6000803e3d6000fd5b505050506040513d601f19601f820116820180604052508101906122789190614f11565b73ffffffffffffffffffffffffffffffffffffffff163373ffffffffffffffffffffffffffffffffffffffff16148061236057506122b4613e2e565b73ffffffffffffffffffffffffffffffffffffffff16632ab24e496040518163ffffffff1660e01b815260040160206040518083038186803b1580156122f957600080fd5b505afa15801561230d573d6000803e3d6000fd5b505050506040513d601f19601f820116820180604052508101906123319190614f11565b73ffffffffffffffffffffffffffffffffffffffff163373ffffffffffffffffffffffffffffffffffffffff16145b8061241a575061236e613e2e565b73ffffffffffffffffffffffffffffffffffffffff1663b99b0a0c6040518163ffffffff1660e01b815260040160206040518083038186803b1580156123b357600080fd5b505afa1580156123c7573d6000803e3d6000fd5b505050506040513d601f19601f820116820180604052508101906123eb9190614f11565b73ffffffffffffffffffffffffffffffffffffffff163373ffffffffffffffffffffffffffffffffffffffff16145b61242357600080fd5b600061242d612887565b9050600073ffffffffffffffffffffffffffffffffffffffff168173ffffffffffffffffffffffffffffffffffffffff16141561246957600080fd5b6000612473613e2e565b73ffffffffffffffffffffffffffffffffffffffff16637b0e5c456040518163ffffffff1660e01b815260040160206040518083038186803b1580156124b857600080fd5b505afa1580156124cc573d6000803e3d6000fd5b505050506040513d601f19601f820116820180604052508101906124f09190614f11565b905060008273ffffffffffffffffffffffffffffffffffffffff166370a08231306040518263ffffffff1660e01b815260040161252d919061527a565b60206040518083038186803b15801561254557600080fd5b505afa158015612559573d6000803e3d6000fd5b505050506040513d601f19601f8201168201806040525081019061257d919061507c565b905060008273ffffffffffffffffffffffffffffffffffffffff1663701baaf383601054600f546040518463ffffffff1660e01b81526004016125c2939291906154c8565b60206040518083038186803b1580156125da57600080fd5b505afa1580156125ee573d6000803e3d6000fd5b505050506040513d601f19601f82011682018060405250810190612612919061507c565b9050600061271061251c83612627919061566b565b612631919061563a565b90508373ffffffffffffffffffffffffffffffffffffffff1663896a708c84601054600f546040518463ffffffff1660e01b8152600401612674939291906154c8565b60206040518083038186803b15801561268c57600080fd5b505afa1580156126a0573d6000803e3d6000fd5b505050506040513d601f19601f820116820180604052508101906126c4919061507c565b95506126d18160006149f7565b6126da86614a35565b60008573ffffffffffffffffffffffffffffffffffffffff166386450495856040518263ffffffff1660e01b81526004016127159190615424565b602060405180830381600087803b15801561272f57600080fd5b505af1158015612743573d6000803e3d6000fd5b505050506040513d601f19601f82011682018060405250810190612767919061507c565b9050612773868261468b565b61279e7f00000000000000000000000000000000000000000000000000000000000000008a84614501565b8873ffffffffffffffffffffffffffffffffffffffff167f6f3ac8cc4850a948dddb5c85957bbaadcbea6e4b2cef3f02f6af53fcf2596f568383878b6040516127ea94939291906154ff565b60405180910390a2819750505050505050915091565b6000600e60008473ffffffffffffffffffffffffffffffffffffffff1673ffffffffffffffffffffffffffffffffffffffff16815260200190815260200160002060008373ffffffffffffffffffffffffffffffffffffffff1673ffffffffffffffffffffffffffffffffffffffff16815260200190815260200160002054905092915050565b6000612891613e2e565b73ffffffffffffffffffffffffffffffffffffffff1663b93ec54b6040518163ffffffff1660e01b815260040160206040518083038186803b1580156128d657600080fd5b505afa1580156128ea573d6000803e3d6000fd5b505050506040513d601f19601f8201168201806040525081019061290e9190614f11565b73ffffffffffffffffffffffffffffffffffffffff1663dcec81167f00000000000000000000000000000000000000000000000000000000000000006040518263ffffffff1660e01b8152600401612966919061527a565b60206040518083038186803b15801561297e57600080fd5b505afa158015612992573d6000803e3d6000fd5b505050506040513d601f19601f820116820180604052508101906129b69190614f11565b905090565b7f000000000000000000000000000000000000000000000000000000000000000081565b60105481565b6000806129f0613e2e565b73ffffffffffffffffffffffffffffffffffffffff166332fe7b266040518163ffffffff1660e01b815260040160206040518083038186803b158015612a3557600080fd5b505afa158015612a49573d6000803e3d6000fd5b505050506040513d601f19601f82011682018060405250810190612a6d9190614f11565b73ffffffffffffffffffffffffffffffffffffffff163373ffffffffffffffffffffffffffffffffffffffff161480612b555750612aa9613e2e565b73ffffffffffffffffffffffffffffffffffffffff16632ab24e496040518163ffffffff1660e01b815260040160206040518083038186803b158015612aee57600080fd5b505afa158015612b02573d6000803e3d6000fd5b505050506040513d601f19601f82011682018060405250810190612b269190614f11565b73ffffffffffffffffffffffffffffffffffffffff163373ffffffffffffffffffffffffffffffffffffffff16145b80612c0f5750612b63613e2e565b73ffffffffffffffffffffffffffffffffffffffff1663b99b0a0c6040518163ffffffff1660e01b815260040160206040518083038186803b158015612ba857600080fd5b505afa158015612bbc573d6000803e3d6000fd5b505050506040513d601f19601f82011682018060405250810190612be09190614f11565b73ffffffffffffffffffffffffffffffffffffffff163373ffffffffffffffffffffffffffffffffffffffff16145b612c1857600080fd5b6000612c22612887565b9050612c2c613e2e565b73ffffffffffffffffffffffffffffffffffffffff166332fe7b266040518163ffffffff1660e01b815260040160206040518083038186803b158015612c7157600080fd5b505afa158015612c85573d6000803e3d6000fd5b505050506040513d601f19601f82011682018060405250810190612ca99190614f11565b73ffffffffffffffffffffffffffffffffffffffff1663940c4abc6040518163ffffffff1660e01b815260040160206040518083038186803b158015612cee57600080fd5b505afa158015612d02573d6000803e3d6000fd5b505050506040513d601f19601f82011682018060405250810190612d269190615001565b612d2f57600080fd5b612d37613e2e565b73ffffffffffffffffffffffffffffffffffffffff1663b93ec54b6040518163ffffffff1660e01b815260040160206040518083038186803b158015612d7c57600080fd5b505afa158015612d90573d6000803e3d6000fd5b505050506040513d601f19601f82011682018060405250810190612db49190614f11565b73ffffffffffffffffffffffffffffffffffffffff16635e0237ea826040518263ffffffff1660e01b8152600401612dec919061527a565b60206040518083038186803b158015612e0457600080fd5b505afa158015612e18573d6000803e3d6000fd5b505050506040513d601f19601f82011682018060405250810190612e3c9190615001565b612e4557600080fd5b6000612e4f613e2e565b73ffffffffffffffffffffffffffffffffffffffff16637b0e5c456040518163ffffffff1660e01b815260040160206040518083038186803b158015612e9457600080fd5b505afa158015612ea8573d6000803e3d6000fd5b505050506040513d601f19601f82011682018060405250810190612ecc9190614f11565b90506000612ed8614192565b90506000612ee584614a8b565b90508273ffffffffffffffffffffffffffffffffffffffff1663701baaf383600f546010546040518463ffffffff1660e01b8152600401612f28939291906154c8565b60206040518083038186803b158015612f4057600080fd5b505afa158015612f54573d6000803e3d6000fd5b505050506040513d601f19601f82011682018060405250810190612f78919061507c565b955080861115612f8757600080fd5b4260088190555060008373ffffffffffffffffffffffffffffffffffffffff1663b86a82ef84306040518363ffffffff1660e01b8152600401612fcb92919061543f565b60206040518083038186803b158015612fe357600080fd5b505afa158015612ff7573d6000803e3d6000fd5b505050506040513d601f19601f8201168201806040525081019061301b919061507c565b905061302883600061499e565b60008473ffffffffffffffffffffffffffffffffffffffff1663896a708c85600f546010546040518463ffffffff1660e01b815260040161306b939291906154c8565b60206040518083038186803b15801561308357600080fd5b505afa158015613097573d6000803e3d6000fd5b505050506040513d601f19601f820116820180604052508101906130bb919061507c565b90508473ffffffffffffffffffffffffffffffffffffffff1663c19387df7f0000000000000000000000000000000000000000000000000000000000000000836040518363ffffffff1660e01b81526004016131189291906152be565b60206040518083038186803b15801561313057600080fd5b505afa158015613144573d6000803e3d6000fd5b505050506040513d601f19601f82011682018060405250810190613168919061507c565b96506131748683614855565b8573ffffffffffffffffffffffffffffffffffffffff166332f302e3613198613e2e565b73ffffffffffffffffffffffffffffffffffffffff16632ab24e496040518163ffffffff1660e01b815260040160206040518083038186803b1580156131dd57600080fd5b505afa1580156131f1573d6000803e3d6000fd5b505050506040513d601f19601f820116820180604052508101906132159190614f11565b8a6040518363ffffffff1660e01b81526004016132339291906152be565b602060405180830381600087803b15801561324d57600080fd5b505af1158015613261573d6000803e3d6000fd5b505050506040513d601f19601f82011682018060405250810190613285919061507c565b5061328e613e2e565b73ffffffffffffffffffffffffffffffffffffffff16632ab24e496040518163ffffffff1660e01b815260040160206040518083038186803b1580156132d357600080fd5b505afa1580156132e7573d6000803e3d6000fd5b505050506040513d601f19601f8201168201806040525081019061330b9190614f11565b73ffffffffffffffffffffffffffffffffffffffff16634335a95c878b6040518363ffffffff1660e01b8152600401613345929190615295565b600060405180830381600087803b15801561335f57600080fd5b505af1158015613373573d6000803e3d6000fd5b5050505061338087614a35565b8873ffffffffffffffffffffffffffffffffffffffff167fbaff1e38597e99ccc6d6abf0e271a32ee3dc24114ea5bec3f05afd9bbb19f1f585848b8b6040516133cc94939291906154ff565b60405180910390a2505050505050915091565b6133e7613e2e565b73ffffffffffffffffffffffffffffffffffffffff166332fe7b266040518163ffffffff1660e01b815260040160206040518083038186803b15801561342c57600080fd5b505afa158015613440573d6000803e3d6000fd5b505050506040513d601f19601f820116820180604052508101906134649190614f11565b73ffffffffffffffffffffffffffffffffffffffff163373ffffffffffffffffffffffffffffffffffffffff16148061354c57506134a0613e2e565b73ffffffffffffffffffffffffffffffffffffffff16632ab24e496040518163ffffffff1660e01b815260040160206040518083038186803b1580156134e557600080fd5b505afa1580156134f9573d6000803e3d6000fd5b505050506040513d601f19601f8201168201806040525081019061351d9190614f11565b73ffffffffffffffffffffffffffffffffffffffff163373ffffffffffffffffffffffffffffffffffffffff16145b80613606575061355a613e2e565b73ffffffffffffffffffffffffffffffffffffffff1663b99b0a0c6040518163ffffffff1660e01b815260040160206040518083038186803b15801561359f57600080fd5b505afa1580156135b3573d6000803e3d6000fd5b505050506040513d601f19601f820116820180604052508101906135d79190614f11565b73ffffffffffffffffffffffffffffffffffffffff163373ffffffffffffffffffffffffffffffffffffffff16145b61360f57600080fd5b610244811061361d57600080fd5b600560009054906101000a900460ff1615600560006101000a81548160ff021916908315150217905550804261365391906155e4565b60038190555050565b613664613e2e565b73ffffffffffffffffffffffffffffffffffffffff166398fabd3a6040518163ffffffff1660e01b815260040160206040518083038186803b1580156136a957600080fd5b505afa1580156136bd573d6000803e3d6000fd5b505050506040513d601f19601f820116820180604052508101906136e19190614f11565b73ffffffffffffffffffffffffffffffffffffffff163373ffffffffffffffffffffffffffffffffffffffff1614806137c9575061371d613e2e565b73ffffffffffffffffffffffffffffffffffffffff166332fe7b266040518163ffffffff1660e01b815260040160206040518083038186803b15801561376257600080fd5b505afa158015613776573d6000803e3d6000fd5b505050506040513d601f19601f8201168201806040525081019061379a9190614f11565b73ffffffffffffffffffffffffffffffffffffffff163373ffffffffffffffffffffffffffffffffffffffff16145b8061388357506137d7613e2e565b73ffffffffffffffffffffffffffffffffffffffff16632ab24e496040518163ffffffff1660e01b815260040160206040518083038186803b15801561381c57600080fd5b505afa158015613830573d6000803e3d6000fd5b505050506040513d601f19601f820116820180604052508101906138549190614f11565b73ffffffffffffffffffffffffffffffffffffffff163373ffffffffffffffffffffffffffffffffffffffff16145b61388c57600080fd5b7f000000000000000000000000000000000000000000000000000000000000000073ffffffffffffffffffffffffffffffffffffffff166370a08231306040518263ffffffff1660e01b81526004016138e5919061527a565b60206040518083038186803b1580156138fd57600080fd5b505afa158015613911573d6000803e3d6000fd5b505050506040513d601f19601f82011682018060405250810190613935919061507c565b600f819055507f000000000000000000000000000000000000000000000000000000000000000073ffffffffffffffffffffffffffffffffffffffff166370a08231306040518263ffffffff1660e01b8152600401613994919061527a565b60206040518083038186803b1580156139ac57600080fd5b505afa1580156139c0573d6000803e3d6000fd5b505050506040513d601f19601f820116820180604052508101906139e4919061507c565b601081905550565b600073ffffffffffffffffffffffffffffffffffffffff168373ffffffffffffffffffffffffffffffffffffffff161415613a5c576040517f08c379a0000000000000000000000000000000000000000000000000000000008152600401613a5390615404565b60405180910390fd5b600073ffffffffffffffffffffffffffffffffffffffff168273ffffffffffffffffffffffffffffffffffffffff161415613acc576040517f08c379a0000000000000000000000000000000000000000000000000000000008152600401613ac3906153a4565b60405180910390fd5b80600e60008573ffffffffffffffffffffffffffffffffffffffff1673ffffffffffffffffffffffffffffffffffffffff16815260200190815260200160002060008473ffffffffffffffffffffffffffffffffffffffff1673ffffffffffffffffffffffffffffffffffffffff168152602001908152602001600020819055508173ffffffffffffffffffffffffffffffffffffffff168373ffffffffffffffffffffffffffffffffffffffff167f8c5be1e5ebec7d5bd14f71427d1e84f3dd0314c0f7b2291e5b200ac8c7c3b92583604051613baa9190615424565b60405180910390a3505050565b600073ffffffffffffffffffffffffffffffffffffffff168373ffffffffffffffffffffffffffffffffffffffff161415613c27576040517f08c379a0000000000000000000000000000000000000000000000000000000008152600401613c1e906153e4565b60405180910390fd5b600073ffffffffffffffffffffffffffffffffffffffff168273ffffffffffffffffffffffffffffffffffffffff161415613c97576040517f08c379a0000000000000000000000000000000000000000000000000000000008152600401613c8e90615384565b60405180910390fd5b6000600d60008573ffffffffffffffffffffffffffffffffffffffff1673ffffffffffffffffffffffffffffffffffffffff16815260200190815260200160002054905081811015613d1e576040517f08c379a0000000000000000000000000000000000000000000000000000000008152600401613d1590615364565b60405180910390fd5b8181613d2a91906156c5565b600d60008673ffffffffffffffffffffffffffffffffffffffff1673ffffffffffffffffffffffffffffffffffffffff1681526020019081526020016000208190555081600d60008573ffffffffffffffffffffffffffffffffffffffff1673ffffffffffffffffffffffffffffffffffffffff1681526020019081526020016000206000828254613dbc91906155e4565b925050819055508273ffffffffffffffffffffffffffffffffffffffff168473ffffffffffffffffffffffffffffffffffffffff167fddf252ad1be2c89b69c2b068fc378daa952ba7f163c4a11628f55a4df523b3ef84604051613e209190615424565b60405180910390a350505050565b60007f000000000000000000000000000000000000000000000000000000000000000073ffffffffffffffffffffffffffffffffffffffff166398fabd3a6040518163ffffffff1660e01b815260040160206040518083038186803b158015613e9657600080fd5b505afa158015613eaa573d6000803e3d6000fd5b505050506040513d601f19601f82011682018060405250810190613ece919061502a565b905090565b6000807f000000000000000000000000000000000000000000000000000000000000000073ffffffffffffffffffffffffffffffffffffffff166370a08231306040518263ffffffff1660e01b8152600401613f2f919061527a565b60206040518083038186803b158015613f4757600080fd5b505afa158015613f5b573d6000803e3d6000fd5b505050506040513d601f19601f82011682018060405250810190613f7f919061507c565b9050601054811115613fa05760105481613f9991906156c5565b9150613fa5565b600091505b5090565b600080600060105490506000600f5490506000613fc4613e2e565b73ffffffffffffffffffffffffffffffffffffffff16637b0e5c456040518163ffffffff1660e01b815260040160206040518083038186803b15801561400957600080fd5b505afa15801561401d573d6000803e3d6000fd5b505050506040513d601f19601f820116820180604052508101906140419190614f11565b90508073ffffffffffffffffffffffffffffffffffffffff1663701baaf38785856040518463ffffffff1660e01b8152600401614080939291906154c8565b60206040518083038186803b15801561409857600080fd5b505afa1580156140ac573d6000803e3d6000fd5b505050506040513d601f19601f820116820180604052508101906140d0919061507c565b94508073ffffffffffffffffffffffffffffffffffffffff1663896a708c8785856040518463ffffffff1660e01b815260040161410f939291906154c8565b60206040518083038186803b15801561412757600080fd5b505afa15801561413b573d6000803e3d6000fd5b505050506040513d601f19601f8201168201806040525081019061415f919061507c565b9350614181858361417091906156c5565b878561417c91906155e4565b614bec565b61418a84614a35565b505050915091565b6000807f000000000000000000000000000000000000000000000000000000000000000073ffffffffffffffffffffffffffffffffffffffff166370a08231306040518263ffffffff1660e01b81526004016141ee919061527a565b60206040518083038186803b15801561420657600080fd5b505afa15801561421a573d6000803e3d6000fd5b505050506040513d601f19601f8201168201806040525081019061423e919061507c565b9050600f5481111561425f57600f548161425891906156c5565b9150614264565b600091505b5090565b6000806000600f549050600060105490506000614283613e2e565b73ffffffffffffffffffffffffffffffffffffffff16637b0e5c456040518163ffffffff1660e01b815260040160206040518083038186803b1580156142c857600080fd5b505afa1580156142dc573d6000803e3d6000fd5b505050506040513d601f19601f820116820180604052508101906143009190614f11565b90508073ffffffffffffffffffffffffffffffffffffffff1663701baaf38785856040518463ffffffff1660e01b815260040161433f939291906154c8565b60206040518083038186803b15801561435757600080fd5b505afa15801561436b573d6000803e3d6000fd5b505050506040513d601f19601f8201168201806040525081019061438f919061507c565b945060008173ffffffffffffffffffffffffffffffffffffffff1663896a708c8886866040518463ffffffff1660e01b81526004016143d0939291906154c8565b60206040518083038186803b1580156143e857600080fd5b505afa1580156143fc573d6000803e3d6000fd5b505050506040513d601f19601f82011682018060405250810190614420919061507c565b90508173ffffffffffffffffffffffffffffffffffffffff1663c19387df7f0000000000000000000000000000000000000000000000000000000000000000836040518363ffffffff1660e01b815260040161447d9291906152be565b60206040518083038186803b15801561449557600080fd5b505afa1580156144a9573d6000803e3d6000fd5b505050506040513d601f19601f820116820180604052508101906144cd919061507c565b94506144ef87856144de91906155e4565b87856144ea91906156c5565b614bec565b6144f885614a35565b50505050915091565b6000808473ffffffffffffffffffffffffffffffffffffffff166040518060400160405280601981526020017f7472616e7366657228616464726573732c75696e74323536290000000000000081525080519060200120858560405160240161456b9291906152be565b604051602081830303815290604052907bffffffffffffffffffffffffffffffffffffffffffffffffffffffff19166020820180517bffffffffffffffffffffffffffffffffffffffffffffffffffffffff83818316178352505050506040516145d59190615263565b6000604051808303816000865af19150503d8060008114614612576040519150601f19603f3d011682016040523d82523d6000602084013e614617565b606091505b509150915081801561464557506000815114806146445750808060200190518101906146439190615001565b5b5b614684576040517f08c379a000000000000000000000000000000000000000000000000000000000815260040161467b906153c4565b60405180910390fd5b5050505050565b600073ffffffffffffffffffffffffffffffffffffffff168273ffffffffffffffffffffffffffffffffffffffff1614156146fb576040517f08c379a00000000000000000000000000000000000000000000000000000000081526004016146f290615324565b60405180910390fd5b6000600d60008473ffffffffffffffffffffffffffffffffffffffff1673ffffffffffffffffffffffffffffffffffffffff16815260200190815260200160002054905081811015614782576040517f08c379a000000000000000000000000000000000000000000000000000000000815260040161477990615364565b60405180910390fd5b818161478e91906156c5565b600d60008573ffffffffffffffffffffffffffffffffffffffff1673ffffffffffffffffffffffffffffffffffffffff1681526020019081526020016000208190555081600c60008282546147e391906156c5565b92505081905550600073ffffffffffffffffffffffffffffffffffffffff168373ffffffffffffffffffffffffffffffffffffffff167fddf252ad1be2c89b69c2b068fc378daa952ba7f163c4a11628f55a4df523b3ef846040516148489190615424565b60405180910390a3505050565b600073ffffffffffffffffffffffffffffffffffffffff168273ffffffffffffffffffffffffffffffffffffffff1614156148c5576040517f08c379a00000000000000000000000000000000000000000000000000000000081526004016148bc90615324565b60405180910390fd5b80600c60008282546148d791906155e4565b9250508190555080600d60008473ffffffffffffffffffffffffffffffffffffffff1673ffffffffffffffffffffffffffffffffffffffff168152602001908152602001600020600082825461492d91906155e4565b925050819055508173ffffffffffffffffffffffffffffffffffffffff16600073ffffffffffffffffffffffffffffffffffffffff167fddf252ad1be2c89b69c2b068fc378daa952ba7f163c4a11628f55a4df523b3ef836040516149929190615424565b60405180910390a35050565b60015482600f546149af91906155e4565b106149b957600080fd5b81600f60008282546149cb91906155e4565b9250508190555080601060008282546149e491906155e4565b925050819055506149f3614c06565b5050565b81600f6000828254614a0991906156c5565b925050819055508060106000828254614a2291906156c5565b92505081905550614a31614c06565b5050565b62278d00601154614a4691906155e4565b4211614a655780601254614a5a91906155e4565b601281905550614a88565b42601181905550601254601381905550614a80601354614d51565b806012819055505b50565b600080612710600054601054614aa1919061566b565b614aab919061563a565b90506000808473ffffffffffffffffffffffffffffffffffffffff166318160ddd6040518163ffffffff1660e01b815260040160206040518083038186803b158015614af657600080fd5b505afa158015614b0a573d6000803e3d6000fd5b505050506040513d601f19601f82011682018060405250810190614b2e919061507c565b905060009350808310614b4a578083614b4791906156c5565b91505b600060085414614b7c57600060085442614b6491906156c5565b905060075481614b74919061566b565b945050614bb1565b426008819055504260098190555060065482614b98919061563a565b600781905550600754613840614bae919061566b565b93505b600654600954614bc191906155e4565b421115614be45760065482614bd6919061563a565b600781905550426009819055505b505050919050565b81600f8190555080601081905550614c02614c06565b5050565b6000601054600f54600f54614c1b919061566b565b614c25919061563a565b90506000600254821115614c485760025482614c4191906156c5565b9050614c59565b81600254614c5691906156c5565b90505b60008261271083614c6a919061566b565b614c74919061563a565b90506004548110614c9f576001600560006101000a81548160ff021916908315150217905550614cc6565b600354421115614cc557610e1042614cb791906155e4565b600381905550826002819055505b5b600560009054906101000a900460ff1615614d4c576004548111614d00576000600560006101000a81548160ff0219169083151502179055505b600354421115614d4b57610e1042614d1891906155e4565b60038190555060046003600254614d2f919061566b565b84614d3a91906155e4565b614d44919061563a565b6002819055505b5b505050565b60026014805490501415614e3d576014600181548110614d9a577f4e487b7100000000000000000000000000000000000000000000000000000000600052603260045260246000fd5b90600052602060002001546014600081548110614de0577f4e487b7100000000000000000000000000000000000000000000000000000000600052603260045260246000fd5b9060005260206000200181905550806014600181548110614e2a577f4e487b7100000000000000000000000000000000000000000000000000000000600052603260045260246000fd5b9060005260206000200181905550614e67565b60148190806001815401808255809150506001900390600052602060002001600090919091909150555b50565b600081359050614e79816159ab565b92915050565b600081519050614e8e816159ab565b92915050565b600081519050614ea3816159c2565b92915050565b600081519050614eb8816159d9565b92915050565b600081359050614ecd816159f0565b92915050565b600081519050614ee2816159f0565b92915050565b600060208284031215614efa57600080fd5b6000614f0884828501614e6a565b91505092915050565b600060208284031215614f2357600080fd5b6000614f3184828501614e7f565b91505092915050565b60008060408385031215614f4d57600080fd5b6000614f5b85828601614e6a565b9250506020614f6c85828601614e6a565b9150509250929050565b600080600060608486031215614f8b57600080fd5b6000614f9986828701614e6a565b9350506020614faa86828701614e6a565b9250506040614fbb86828701614ebe565b9150509250925092565b60008060408385031215614fd857600080fd5b6000614fe685828601614e6a565b9250506020614ff785828601614ebe565b9150509250929050565b60006020828403121561501357600080fd5b600061502184828501614e94565b91505092915050565b60006020828403121561503c57600080fd5b600061504a84828501614ea9565b91505092915050565b60006020828403121561506557600080fd5b600061507384828501614ebe565b91505092915050565b60006020828403121561508e57600080fd5b600061509c84828501614ed3565b91505092915050565b6150ae816156f9565b82525050565b6150bd8161570b565b82525050565b60006150ce826155b2565b6150d881856155c8565b93506150e8818560208601615760565b80840191505092915050565b60006150ff826155bd565b61510981856155d3565b9350615119818560208601615760565b61512281615852565b840191505092915050565b600061513a6008836155d3565b915061514582615863565b602082019050919050565b600061515d6009836155d3565b91506151688261588c565b602082019050919050565b60006151806008836155d3565b915061518b826158b5565b602082019050919050565b60006151a36005836155d3565b91506151ae826158de565b602082019050919050565b60006151c66008836155d3565b91506151d182615907565b602082019050919050565b60006151e9600f836155d3565b91506151f482615930565b602082019050919050565b600061520c6007836155d3565b915061521782615959565b602082019050919050565b600061522f6006836155d3565b915061523a82615982565b602082019050919050565b61524e81615749565b82525050565b61525d81615753565b82525050565b600061526f82846150c3565b915081905092915050565b600060208201905061528f60008301846150a5565b92915050565b60006040820190506152aa60008301856150a5565b6152b760208301846150a5565b9392505050565b60006040820190506152d360008301856150a5565b6152e06020830184615245565b9392505050565b60006020820190506152fc60008301846150b4565b92915050565b6000602082019050818103600083015261531c81846150f4565b905092915050565b6000602082019050818103600083015261533d8161512d565b9050919050565b6000602082019050818103600083015261535d81615150565b9050919050565b6000602082019050818103600083015261537d81615173565b9050919050565b6000602082019050818103600083015261539d81615196565b9050919050565b600060208201905081810360008301526153bd816151b9565b9050919050565b600060208201905081810360008301526153dd816151dc565b9050919050565b600060208201905081810360008301526153fd816151ff565b9050919050565b6000602082019050818103600083015261541d81615222565b9050919050565b60006020820190506154396000830184615245565b92915050565b60006040820190506154546000830185615245565b61546160208301846150a5565b9392505050565b600060608201905061547d6000830186615245565b61548a60208301856150a5565b61549760408301846150a5565b949350505050565b60006040820190506154b46000830185615245565b6154c16020830184615245565b9392505050565b60006060820190506154dd6000830186615245565b6154ea6020830185615245565b6154f76040830184615245565b949350505050565b60006080820190506155146000830187615245565b6155216020830186615245565b61552e6040830185615245565b61553b6060830184615245565b95945050505050565b600060a0820190506155596000830188615245565b6155666020830187615245565b6155736040830186615245565b6155806060830185615245565b61558d6080830184615245565b9695505050505050565b60006020820190506155ac6000830184615254565b92915050565b600081519050919050565b600081519050919050565b600081905092915050565b600082825260208201905092915050565b60006155ef82615749565b91506155fa83615749565b9250827fffffffffffffffffffffffffffffffffffffffffffffffffffffffffffffffff0382111561562f5761562e6157c5565b5b828201905092915050565b600061564582615749565b915061565083615749565b9250826156605761565f6157f4565b5b828204905092915050565b600061567682615749565b915061568183615749565b9250817fffffffffffffffffffffffffffffffffffffffffffffffffffffffffffffffff04831182151516156156ba576156b96157c5565b5b828202905092915050565b60006156d082615749565b91506156db83615749565b9250828210156156ee576156ed6157c5565b5b828203905092915050565b600061570482615729565b9050919050565b60008115159050919050565b6000615722826156f9565b9050919050565b600073ffffffffffffffffffffffffffffffffffffffff82169050919050565b6000819050919050565b600060ff82169050919050565b60005b8381101561577e578082015181840152602081019050615763565b8381111561578d576000848401525b50505050565b600060028204905060018216806157ab57607f821691505b602082108114156157bf576157be615823565b5b50919050565b7f4e487b7100000000000000000000000000000000000000000000000000000000600052601160045260246000fd5b7f4e487b7100000000000000000000000000000000000000000000000000000000600052601260045260246000fd5b7f4e487b7100000000000000000000000000000000000000000000000000000000600052602260045260246000fd5b6000601f19601f8301169050919050565b7f216163636f756e74000000000000000000000000000000000000000000000000600082015250565b7f21617070726f76616c0000000000000000000000000000000000000000000000600082015250565b7f2162616c616e6365000000000000000000000000000000000000000000000000600082015250565b7f214255524e000000000000000000000000000000000000000000000000000000600082015250565b7f217370656e646572000000000000000000000000000000000000000000000000600082015250565b7f5452414e534645525f4641494c45440000000000000000000000000000000000600082015250565b7f2173656e64657200000000000000000000000000000000000000000000000000600082015250565b7f216f776e65720000000000000000000000000000000000000000000000000000600082015250565b6159b4816156f9565b81146159bf57600080fd5b50565b6159cb8161570b565b81146159d657600080fd5b50565b6159e281615717565b81146159ed57600080fd5b50565b6159f981615749565b8114615a0457600080fd5b5056fea2646970667358221220c8a377bdbbe4738c69beb7efc63d05fa13fd6600463d64d1b14cf7cd60cab28264736f6c63430008030033a264697066735822122023486ee1db9ababc5242bdfa2c5e80465eb534b5a0ab51dbc45a517b974b7a4264736f6c63430008030033",
  "linkReferences": {},
  "deployedLinkReferences": {}
}