{
  "_format": "hh-sol-artifact-1",
  "contractName": "PoolFactory",
  "sourceName": "contracts/poolFactory.sol",
  "abi": [
    {
      "inputs": [
        {
          "internalType": "address",
          "name": "_base",
          "type": "address"
        },
        {
          "internalType": "address",
          "name": "_wbnb",
          "type": "address"
        }
      ],
      "stateMutability": "nonpayable",
      "type": "constructor"
    },
    {
      "anonymous": false,
      "inputs": [
        {
          "indexed": true,
          "internalType": "address",
          "name": "pool",
          "type": "address"
        }
      ],
      "name": "AddCuratePool",
      "type": "event"
    },
    {
      "anonymous": false,
      "inputs": [
        {
          "indexed": true,
          "internalType": "address",
          "name": "token",
          "type": "address"
        },
        {
          "indexed": true,
          "internalType": "address",
          "name": "pool",
          "type": "address"
        }
      ],
      "name": "CreatePool",
      "type": "event"
    },
    {
      "anonymous": false,
      "inputs": [
        {
          "indexed": true,
          "internalType": "address",
          "name": "pool",
          "type": "address"
        }
      ],
      "name": "RemoveCuratePool",
      "type": "event"
    },
    {
      "inputs": [],
      "name": "BASE",
      "outputs": [
        {
          "internalType": "address",
          "name": "",
          "type": "address"
        }
      ],
      "stateMutability": "view",
      "type": "function"
    },
    {
      "inputs": [],
      "name": "DEPLOYER",
      "outputs": [
        {
          "internalType": "address",
          "name": "",
          "type": "address"
        }
      ],
      "stateMutability": "view",
      "type": "function"
    },
    {
      "inputs": [],
      "name": "WBNB",
      "outputs": [
        {
          "internalType": "address",
          "name": "",
          "type": "address"
        }
      ],
      "stateMutability": "view",
      "type": "function"
    },
    {
      "inputs": [
        {
          "internalType": "address",
          "name": "token",
          "type": "address"
        }
      ],
      "name": "addCuratedPool",
      "outputs": [],
      "stateMutability": "nonpayable",
      "type": "function"
    },
    {
      "inputs": [
        {
          "internalType": "uint256",
          "name": "",
          "type": "uint256"
        }
      ],
      "name": "arrayPools",
      "outputs": [
        {
          "internalType": "address",
          "name": "",
          "type": "address"
        }
      ],
      "stateMutability": "view",
      "type": "function"
    },
    {
      "inputs": [
        {
          "internalType": "uint256",
          "name": "",
          "type": "uint256"
        }
      ],
      "name": "arrayTokens",
      "outputs": [
        {
          "internalType": "address",
          "name": "",
          "type": "address"
        }
      ],
      "stateMutability": "view",
      "type": "function"
    },
    {
      "inputs": [
        {
          "internalType": "uint256",
          "name": "inputBase",
          "type": "uint256"
        },
        {
          "internalType": "uint256",
          "name": "inputToken",
          "type": "uint256"
        },
        {
          "internalType": "address",
          "name": "token",
          "type": "address"
        }
      ],
      "name": "createPoolADD",
      "outputs": [
        {
          "internalType": "address",
          "name": "pool",
          "type": "address"
        }
      ],
      "stateMutability": "payable",
      "type": "function"
    },
    {
      "inputs": [],
      "name": "curatedPoolCount",
      "outputs": [
        {
          "internalType": "uint256",
          "name": "",
          "type": "uint256"
        }
      ],
      "stateMutability": "view",
      "type": "function"
    },
    {
      "inputs": [],
      "name": "curatedPoolSize",
      "outputs": [
        {
          "internalType": "uint256",
          "name": "",
          "type": "uint256"
        }
      ],
      "stateMutability": "view",
      "type": "function"
    },
    {
      "inputs": [
        {
          "internalType": "address",
          "name": "token",
          "type": "address"
        }
      ],
      "name": "getPool",
      "outputs": [
        {
          "internalType": "address",
          "name": "pool",
          "type": "address"
        }
      ],
      "stateMutability": "view",
      "type": "function"
    },
    {
      "inputs": [
        {
          "internalType": "uint256",
          "name": "i",
          "type": "uint256"
        }
      ],
      "name": "getPoolArray",
      "outputs": [
        {
          "internalType": "address",
          "name": "",
          "type": "address"
        }
      ],
      "stateMutability": "view",
      "type": "function"
    },
    {
      "inputs": [
        {
          "internalType": "uint256",
          "name": "i",
          "type": "uint256"
        }
      ],
      "name": "getToken",
      "outputs": [
        {
          "internalType": "address",
          "name": "",
          "type": "address"
        }
      ],
      "stateMutability": "view",
      "type": "function"
    },
    {
      "inputs": [
        {
          "internalType": "address",
          "name": "",
          "type": "address"
        }
      ],
      "name": "isCuratedPool",
      "outputs": [
        {
          "internalType": "bool",
          "name": "",
          "type": "bool"
        }
      ],
      "stateMutability": "view",
      "type": "function"
    },
    {
      "inputs": [
        {
          "internalType": "address",
          "name": "",
          "type": "address"
        }
      ],
      "name": "isListedPool",
      "outputs": [
        {
          "internalType": "bool",
          "name": "",
          "type": "bool"
        }
      ],
      "stateMutability": "view",
      "type": "function"
    },
    {
      "inputs": [
        {
          "internalType": "address",
          "name": "pool",
          "type": "address"
        }
      ],
      "name": "isPool",
      "outputs": [
        {
          "internalType": "bool",
          "name": "",
          "type": "bool"
        }
      ],
      "stateMutability": "view",
      "type": "function"
    },
    {
      "inputs": [],
      "name": "poolCount",
      "outputs": [
        {
          "internalType": "uint256",
          "name": "",
          "type": "uint256"
        }
      ],
      "stateMutability": "view",
      "type": "function"
    },
    {
      "inputs": [],
      "name": "purgeDeployer",
      "outputs": [],
      "stateMutability": "nonpayable",
      "type": "function"
    },
    {
      "inputs": [
        {
          "internalType": "address",
          "name": "token",
          "type": "address"
        }
      ],
      "name": "removeCuratedPool",
      "outputs": [],
      "stateMutability": "nonpayable",
      "type": "function"
    },
    {
      "inputs": [
        {
          "internalType": "uint256",
          "name": "newSize",
          "type": "uint256"
        }
      ],
      "name": "setParams",
      "outputs": [],
      "stateMutability": "nonpayable",
      "type": "function"
    },
    {
      "inputs": [],
      "name": "tokenCount",
      "outputs": [
        {
          "internalType": "uint256",
          "name": "",
          "type": "uint256"
        }
      ],
      "stateMutability": "view",
      "type": "function"
    },
    {
      "inputs": [
        {
          "internalType": "uint256",
          "name": "",
          "type": "uint256"
        }
      ],
      "name": "vaultAssets",
      "outputs": [
        {
          "internalType": "address",
          "name": "",
          "type": "address"
        }
      ],
      "stateMutability": "view",
      "type": "function"
    }
  ],
  "bytecode": "0x60c06040523480156200001157600080fd5b506040516200a36c3803806200a36c8339818101604052810190620000379190620001fb565b6001600081905550600073ffffffffffffffffffffffffffffffffffffffff168273ffffffffffffffffffffffffffffffffffffffff161415620000b2576040517f08c379a0000000000000000000000000000000000000000000000000000000008152600401620000a99062000263565b60405180910390fd5b600073ffffffffffffffffffffffffffffffffffffffff168173ffffffffffffffffffffffffffffffffffffffff16141562000125576040517f08c379a00000000000000000000000000000000000000000000000000000000081526004016200011c9062000263565b60405180910390fd5b8173ffffffffffffffffffffffffffffffffffffffff1660808173ffffffffffffffffffffffffffffffffffffffff1660601b815250508073ffffffffffffffffffffffffffffffffffffffff1660a08173ffffffffffffffffffffffffffffffffffffffff1660601b81525050600a60028190555033600160006101000a81548173ffffffffffffffffffffffffffffffffffffffff021916908373ffffffffffffffffffffffffffffffffffffffff16021790555050506200030d565b600081519050620001f581620002f3565b92915050565b600080604083850312156200020f57600080fd5b60006200021f85828601620001e4565b92505060206200023285828601620001e4565b9150509250929050565b60006200024b60058362000285565b91506200025882620002ca565b602082019050919050565b600060208201905081810360008301526200027e816200023c565b9050919050565b600082825260208201905092915050565b6000620002a382620002aa565b9050919050565b600073ffffffffffffffffffffffffffffffffffffffff82169050919050565b7f215a45524f000000000000000000000000000000000000000000000000000000600082015250565b620002fe8162000296565b81146200030a57600080fd5b50565b60805160601c60a05160601c619fe662000386600039600081816116b0015281816117eb01528181611aa601528181612143015261221401526000818161089701528181611177015281816118ff01528181611acf01528181611bf301528181611cd501528181611f8d0152611fc00152619fe66000f3fe608060405260043610620001465760003560e01c80638dd9500211620000bb578063bbe4f6db1162000079578063bbe4f6db146200048b578063c1b8411a14620004cf578063cb66955414620004ff578063e4b50cb81462000535578063ec342ad01462000579578063f525cb6814620005a95762000146565b80638dd95002146200035f5780638e8093d6146200038f5780639d84048214620003d35780639f181b5e1462000417578063a432fd2a14620004475762000146565b806359ded210116200010957806359ded210146200024b5780635b16ebb714620002795780637ca51fbf14620002bd5780638bc51e3614620002eb5780638dcb4c93146200031b5762000146565b806303a82138146200014b5780631798546114620001655780632b2260a814620001a9578063346d7cbc14620001d75780634a0ff5d7146200021b575b600080fd5b3480156200015857600080fd5b5062000163620005d9565b005b3480156200017257600080fd5b506200019160048036038101906200018b919062002511565b62000739565b604051620001a0919062002857565b60405180910390f35b348015620001b657600080fd5b50620001d56004803603810190620001cf919062002461565b62000779565b005b348015620001e457600080fd5b50620002036004803603810190620001fd919062002511565b62000e37565b60405162000212919062002857565b60405180910390f35b3480156200022857600080fd5b506200023362000e77565b60405162000242919062002ae2565b60405180910390f35b3480156200025857600080fd5b5062000277600480360381019062000271919062002511565b62000e7d565b005b3480156200028657600080fd5b50620002a560048036038101906200029f919062002461565b62000fe9565b604051620002b491906200290b565b60405180910390f35b348015620002ca57600080fd5b50620002e96004803603810190620002e3919062002461565b62001059565b005b348015620002f857600080fd5b506200030362001688565b60405162000312919062002ae2565b60405180910390f35b3480156200032857600080fd5b5062000347600480360381019062000341919062002461565b6200168e565b6040516200035691906200290b565b60405180910390f35b3480156200036c57600080fd5b5062000377620016ae565b60405162000386919062002857565b60405180910390f35b3480156200039c57600080fd5b50620003bb6004803603810190620003b5919062002511565b620016d2565b604051620003ca919062002857565b60405180910390f35b348015620003e057600080fd5b50620003ff6004803603810190620003f9919062002511565b62001741565b6040516200040e919062002857565b60405180910390f35b3480156200042457600080fd5b506200042f62001781565b6040516200043e919062002ae2565b60405180910390f35b3480156200045457600080fd5b506200047360048036038101906200046d919062002461565b6200178e565b6040516200048291906200290b565b60405180910390f35b3480156200049857600080fd5b50620004b76004803603810190620004b1919062002461565b620017ae565b604051620004c6919062002857565b60405180910390f35b348015620004dc57600080fd5b50620004e7620018d5565b604051620004f6919062002857565b60405180910390f35b6200051d600480360381019062000517919062002569565b620018fb565b6040516200052c919062002857565b60405180910390f35b3480156200054257600080fd5b506200056160048036038101906200055b919062002511565b62001f1c565b60405162000570919062002857565b60405180910390f35b3480156200058657600080fd5b506200059162001f8b565b604051620005a0919062002857565b60405180910390f35b348015620005b657600080fd5b50620005c162001faf565b604051620005d0919062002ae2565b60405180910390f35b600160009054906101000a900473ffffffffffffffffffffffffffffffffffffffff1673ffffffffffffffffffffffffffffffffffffffff163373ffffffffffffffffffffffffffffffffffffffff161480620006eb57506200063b62001fbc565b73ffffffffffffffffffffffffffffffffffffffff166398fabd3a6040518163ffffffff1660e01b815260040160206040518083038186803b1580156200068157600080fd5b505afa15801562000696573d6000803e3d6000fd5b505050506040513d601f19601f82011682018060405250810190620006bc91906200248d565b73ffffffffffffffffffffffffffffffffffffffff163373ffffffffffffffffffffffffffffffffffffffff16145b620006f557600080fd5b6000600160006101000a81548173ffffffffffffffffffffffffffffffffffffffff021916908373ffffffffffffffffffffffffffffffffffffffff160217905550565b600581815481106200074a57600080fd5b906000526020600020016000915054906101000a900473ffffffffffffffffffffffffffffffffffffffff1681565b600160009054906101000a900473ffffffffffffffffffffffffffffffffffffffff1673ffffffffffffffffffffffffffffffffffffffff163373ffffffffffffffffffffffffffffffffffffffff1614806200088b5750620007db62001fbc565b73ffffffffffffffffffffffffffffffffffffffff166398fabd3a6040518163ffffffff1660e01b815260040160206040518083038186803b1580156200082157600080fd5b505afa15801562000836573d6000803e3d6000fd5b505050506040513d601f19601f820116820180604052508101906200085c91906200248d565b73ffffffffffffffffffffffffffffffffffffffff163373ffffffffffffffffffffffffffffffffffffffff16145b6200089557600080fd5b7f000000000000000000000000000000000000000000000000000000000000000073ffffffffffffffffffffffffffffffffffffffff168173ffffffffffffffffffffffffffffffffffffffff16141562000927576040517f08c379a00000000000000000000000000000000000000000000000000000000081526004016200091e90620029b0565b60405180910390fd5b60006200093362001fbc565b73ffffffffffffffffffffffffffffffffffffffff166398fabd3a6040518163ffffffff1660e01b815260040160206040518083038186803b1580156200097957600080fd5b505afa1580156200098e573d6000803e3d6000fd5b505050506040513d601f19601f82011682018060405250810190620009b491906200248d565b73ffffffffffffffffffffffffffffffffffffffff16632b49d4256040518163ffffffff1660e01b815260040160206040518083038186803b158015620009fa57600080fd5b505afa15801562000a0f573d6000803e3d6000fd5b505050506040513d601f19601f8201168201806040525081019062000a3591906200253d565b90506000151562000a4562001fbc565b73ffffffffffffffffffffffffffffffffffffffff166398fabd3a6040518163ffffffff1660e01b815260040160206040518083038186803b15801562000a8b57600080fd5b505afa15801562000aa0573d6000803e3d6000fd5b505050506040513d601f19601f8201168201806040525081019062000ac691906200248d565b73ffffffffffffffffffffffffffffffffffffffff16638bebea89836040518263ffffffff1660e01b815260040162000b00919062002ae2565b60206040518083038186803b15801562000b1957600080fd5b505afa15801562000b2e573d6000803e3d6000fd5b505050506040513d601f19601f8201168201806040525081019062000b549190620024b9565b15151462000b99576040517f08c379a000000000000000000000000000000000000000000000000000000000815260040162000b909062002a9e565b60405180910390fd5b600062000ba683620017ae565b905060011515600860008373ffffffffffffffffffffffffffffffffffffffff1673ffffffffffffffffffffffffffffffffffffffff16815260200190815260200160002060009054906101000a900460ff1615151462000c3e576040517f08c379a000000000000000000000000000000000000000000000000000000000815260040162000c359062002928565b60405180910390fd5b60001515600960008373ffffffffffffffffffffffffffffffffffffffff1673ffffffffffffffffffffffffffffffffffffffff16815260200190815260200160002060009054906101000a900460ff1615151462000cd4576040517f08c379a000000000000000000000000000000000000000000000000000000000815260040162000ccb906200298e565b60405180910390fd5b6002546003541062000d1d576040517f08c379a000000000000000000000000000000000000000000000000000000000815260040162000d14906200294a565b60405180910390fd5b6001600960008373ffffffffffffffffffffffffffffffffffffffff1673ffffffffffffffffffffffffffffffffffffffff16815260200190815260200160002060006101000a81548160ff021916908315150217905550600160035462000d86919062002b1b565b6003819055506006819080600181540180825580915050600190039060005260206000200160009091909190916101000a81548173ffffffffffffffffffffffffffffffffffffffff021916908373ffffffffffffffffffffffffffffffffffffffff1602179055508073ffffffffffffffffffffffffffffffffffffffff167ff21aa98dc310425cc8b86ef0a55117a759c433acf6c59d51f09ac1782a645cf860405160405180910390a2505050565b6006818154811062000e4857600080fd5b906000526020600020016000915054906101000a900473ffffffffffffffffffffffffffffffffffffffff1681565b60025481565b600160009054906101000a900473ffffffffffffffffffffffffffffffffffffffff1673ffffffffffffffffffffffffffffffffffffffff163373ffffffffffffffffffffffffffffffffffffffff16148062000f8f575062000edf62001fbc565b73ffffffffffffffffffffffffffffffffffffffff166398fabd3a6040518163ffffffff1660e01b815260040160206040518083038186803b15801562000f2557600080fd5b505afa15801562000f3a573d6000803e3d6000fd5b505050506040513d601f19601f8201168201806040525081019062000f6091906200248d565b73ffffffffffffffffffffffffffffffffffffffff163373ffffffffffffffffffffffffffffffffffffffff16145b62000f9957600080fd5b6000811162000fdf576040517f08c379a000000000000000000000000000000000000000000000000000000000815260040162000fd690620029b0565b60405180910390fd5b8060028190555050565b600060011515600860008473ffffffffffffffffffffffffffffffffffffffff1673ffffffffffffffffffffffffffffffffffffffff16815260200190815260200160002060009054906101000a900460ff16151514156200104f576001905062001054565b600090505b919050565b600160009054906101000a900473ffffffffffffffffffffffffffffffffffffffff1673ffffffffffffffffffffffffffffffffffffffff163373ffffffffffffffffffffffffffffffffffffffff1614806200116b5750620010bb62001fbc565b73ffffffffffffffffffffffffffffffffffffffff166398fabd3a6040518163ffffffff1660e01b815260040160206040518083038186803b1580156200110157600080fd5b505afa15801562001116573d6000803e3d6000fd5b505050506040513d601f19601f820116820180604052508101906200113c91906200248d565b73ffffffffffffffffffffffffffffffffffffffff163373ffffffffffffffffffffffffffffffffffffffff16145b6200117557600080fd5b7f000000000000000000000000000000000000000000000000000000000000000073ffffffffffffffffffffffffffffffffffffffff168173ffffffffffffffffffffffffffffffffffffffff16141562001207576040517f08c379a0000000000000000000000000000000000000000000000000000000008152600401620011fe90620029b0565b60405180910390fd5b60006200121482620017ae565b905060011515600960008373ffffffffffffffffffffffffffffffffffffffff1673ffffffffffffffffffffffffffffffffffffffff16815260200190815260200160002060009054906101000a900460ff16151514620012ac576040517f08c379a0000000000000000000000000000000000000000000000000000000008152600401620012a39062002ac0565b60405180910390fd5b6000600960008373ffffffffffffffffffffffffffffffffffffffff1673ffffffffffffffffffffffffffffffffffffffff16815260200190815260200160002060006101000a81548160ff021916908315150217905550600160035462001315919062002b78565b60038190555060005b60068054905081101562001547578173ffffffffffffffffffffffffffffffffffffffff16600682815481106200137e577f4e487b7100000000000000000000000000000000000000000000000000000000600052603260045260246000fd5b9060005260206000200160009054906101000a900473ffffffffffffffffffffffffffffffffffffffff1673ffffffffffffffffffffffffffffffffffffffff161415620015315760066001600680549050620013dc919062002b78565b8154811062001414577f4e487b7100000000000000000000000000000000000000000000000000000000600052603260045260246000fd5b9060005260206000200160009054906101000a900473ffffffffffffffffffffffffffffffffffffffff16600682815481106200147a577f4e487b7100000000000000000000000000000000000000000000000000000000600052603260045260246000fd5b9060005260206000200160006101000a81548173ffffffffffffffffffffffffffffffffffffffff021916908373ffffffffffffffffffffffffffffffffffffffff1602179055506006805480620014fb577f4e487b7100000000000000000000000000000000000000000000000000000000600052603160045260246000fd5b6001900381819060005260206000200160006101000a81549073ffffffffffffffffffffffffffffffffffffffff021916905590555b80806200153e9062002c1e565b9150506200131e565b506200155262001fbc565b73ffffffffffffffffffffffffffffffffffffffff1663b93ec54b6040518163ffffffff1660e01b815260040160206040518083038186803b1580156200159857600080fd5b505afa158015620015ad573d6000803e3d6000fd5b505050506040513d601f19601f82011682018060405250810190620015d391906200248d565b73ffffffffffffffffffffffffffffffffffffffff166335a7ede6836040518263ffffffff1660e01b81526004016200160d919062002857565b600060405180830381600087803b1580156200162857600080fd5b505af11580156200163d573d6000803e3d6000fd5b505050508073ffffffffffffffffffffffffffffffffffffffff167fe0e122d7131ec0f49556c4f88f13ed2b7f6624d0b88edd40870fa8715cab8b1c60405160405180910390a25050565b60035481565b60096020528060005260406000206000915054906101000a900460ff1681565b7f000000000000000000000000000000000000000000000000000000000000000081565b6000600482815481106200170f577f4e487b7100000000000000000000000000000000000000000000000000000000600052603260045260246000fd5b9060005260206000200160009054906101000a900473ffffffffffffffffffffffffffffffffffffffff169050919050565b600481815481106200175257600080fd5b906000526020600020016000915054906101000a900473ffffffffffffffffffffffffffffffffffffffff1681565b6000600580549050905090565b60086020528060005260406000206000915054906101000a900460ff1681565b60008073ffffffffffffffffffffffffffffffffffffffff168273ffffffffffffffffffffffffffffffffffffffff1614156200186d57600760007f000000000000000000000000000000000000000000000000000000000000000073ffffffffffffffffffffffffffffffffffffffff1673ffffffffffffffffffffffffffffffffffffffff16815260200190815260200160002060009054906101000a900473ffffffffffffffffffffffffffffffffffffffff169050620018d0565b600760008373ffffffffffffffffffffffffffffffffffffffff1673ffffffffffffffffffffffffffffffffffffffff16815260200190815260200160002060009054906101000a900473ffffffffffffffffffffffffffffffffffffffff1690505b919050565b600160009054906101000a900473ffffffffffffffffffffffffffffffffffffffff1681565b60007f000000000000000000000000000000000000000000000000000000000000000073ffffffffffffffffffffffffffffffffffffffff168273ffffffffffffffffffffffffffffffffffffffff1614156200198f576040517f08c379a00000000000000000000000000000000000000000000000000000000081526004016200198690620029b0565b60405180910390fd5b600073ffffffffffffffffffffffffffffffffffffffff16620019b283620017ae565b73ffffffffffffffffffffffffffffffffffffffff161462001a0b576040517f08c379a000000000000000000000000000000000000000000000000000000000815260040162001a0290620029f4565b60405180910390fd5b60008311801562001a26575069021e19e0c9bab24000008410155b62001a68576040517f08c379a000000000000000000000000000000000000000000000000000000000815260040162001a5f9062002a16565b60405180910390fd5b600080839050600073ffffffffffffffffffffffffffffffffffffffff168473ffffffffffffffffffffffffffffffffffffffff16141562001acd577f0000000000000000000000000000000000000000000000000000000000000000905062001bf1565b7f000000000000000000000000000000000000000000000000000000000000000073ffffffffffffffffffffffffffffffffffffffff168473ffffffffffffffffffffffffffffffffffffffff161415801562001bae575060128473ffffffffffffffffffffffffffffffffffffffff1663313ce5676040518163ffffffff1660e01b815260040160206040518083038186803b15801562001b6e57600080fd5b505afa15801562001b83573d6000803e3d6000fd5b505050506040513d601f19601f8201168201806040525081019062001ba99190620025bf565b60ff16145b62001bf0576040517f08c379a000000000000000000000000000000000000000000000000000000000815260040162001be79062002a5a565b60405180910390fd5b5b7f00000000000000000000000000000000000000000000000000000000000000008160405162001c2190620023b2565b62001c2e92919062002874565b604051809103906000f08015801562001c4b573d6000803e3d6000fd5b50915081925082600760008373ffffffffffffffffffffffffffffffffffffffff1673ffffffffffffffffffffffffffffffffffffffff16815260200190815260200160002060006101000a81548173ffffffffffffffffffffffffffffffffffffffff021916908373ffffffffffffffffffffffffffffffffffffffff16021790555062001cfc7f0000000000000000000000000000000000000000000000000000000000000000878562002065565b62001d0984868562002065565b6004839080600181540180825580915050600190039060005260206000200160009091909190916101000a81548173ffffffffffffffffffffffffffffffffffffffff021916908373ffffffffffffffffffffffffffffffffffffffff1602179055506005819080600181540180825580915050600190039060005260206000200160009091909190916101000a81548173ffffffffffffffffffffffffffffffffffffffff021916908373ffffffffffffffffffffffffffffffffffffffff1602179055506001600860008573ffffffffffffffffffffffffffffffffffffffff1673ffffffffffffffffffffffffffffffffffffffff16815260200190815260200160002060006101000a81548160ff0219169083151502179055508273ffffffffffffffffffffffffffffffffffffffff168473ffffffffffffffffffffffffffffffffffffffff167fdbd2a1ea6808362e6adbec4db4969cbc11e3b0b28fb6c74cb342defaaf1daada60405160405180910390a38273ffffffffffffffffffffffffffffffffffffffff166386d5f618336040518263ffffffff1660e01b815260040162001ebc919062002857565b602060405180830381600087803b15801562001ed757600080fd5b505af115801562001eec573d6000803e3d6000fd5b505050506040513d601f19601f8201168201806040525081019062001f1291906200253d565b5050509392505050565b60006005828154811062001f59577f4e487b7100000000000000000000000000000000000000000000000000000000600052603260045260246000fd5b9060005260206000200160009054906101000a900473ffffffffffffffffffffffffffffffffffffffff169050919050565b7f000000000000000000000000000000000000000000000000000000000000000081565b6000600480549050905090565b60007f000000000000000000000000000000000000000000000000000000000000000073ffffffffffffffffffffffffffffffffffffffff166398fabd3a6040518163ffffffff1660e01b815260040160206040518083038186803b1580156200202557600080fd5b505afa1580156200203a573d6000803e3d6000fd5b505050506040513d601f19601f82011682018060405250810190620020609190620024e5565b905090565b60026000541415620020ae576040517f08c379a0000000000000000000000000000000000000000000000000000000008152600401620020a59062002a7c565b60405180910390fd5b600260008190555060008211620020fc576040517f08c379a0000000000000000000000000000000000000000000000000000000008152600401620020f39062002a38565b60405180910390fd5b600073ffffffffffffffffffffffffffffffffffffffff168373ffffffffffffffffffffffffffffffffffffffff161415620022cd573482146200213f57600080fd5b60007f000000000000000000000000000000000000000000000000000000000000000073ffffffffffffffffffffffffffffffffffffffff1683604051620021879062002840565b60006040518083038185875af1925050503d8060008114620021c6576040519150601f19603f3d011682016040523d82523d6000602084013e620021cb565b606091505b505090508062002212576040517f08c379a000000000000000000000000000000000000000000000000000000000815260040162002209906200296c565b60405180910390fd5b7f000000000000000000000000000000000000000000000000000000000000000073ffffffffffffffffffffffffffffffffffffffff1663a9059cbb83856040518363ffffffff1660e01b81526004016200226f929190620028de565b602060405180830381600087803b1580156200228a57600080fd5b505af11580156200229f573d6000803e3d6000fd5b505050506040513d601f19601f82011682018060405250810190620022c59190620024b9565b5050620023a5565b8273ffffffffffffffffffffffffffffffffffffffff166323b872dd3383856040518463ffffffff1660e01b81526004016200230c93929190620028a1565b602060405180830381600087803b1580156200232757600080fd5b505af11580156200233c573d6000803e3d6000fd5b505050506040513d601f19601f82011682018060405250810190620023629190620024b9565b620023a4576040517f08c379a00000000000000000000000000000000000000000000000000000000081526004016200239b90620029d2565b60405180910390fd5b5b6001600081905550505050565b61707b8062002f3683390190565b600081359050620023d18162002eb3565b92915050565b600081519050620023e88162002eb3565b92915050565b600081519050620023ff8162002ecd565b92915050565b600081519050620024168162002ee7565b92915050565b6000813590506200242d8162002f01565b92915050565b600081519050620024448162002f01565b92915050565b6000815190506200245b8162002f1b565b92915050565b6000602082840312156200247457600080fd5b60006200248484828501620023c0565b91505092915050565b600060208284031215620024a057600080fd5b6000620024b084828501620023d7565b91505092915050565b600060208284031215620024cc57600080fd5b6000620024dc84828501620023ee565b91505092915050565b600060208284031215620024f857600080fd5b6000620025088482850162002405565b91505092915050565b6000602082840312156200252457600080fd5b600062002534848285016200241c565b91505092915050565b6000602082840312156200255057600080fd5b6000620025608482850162002433565b91505092915050565b6000806000606084860312156200257f57600080fd5b60006200258f868287016200241c565b9350506020620025a2868287016200241c565b9250506040620025b586828701620023c0565b9150509250925092565b600060208284031215620025d257600080fd5b6000620025e2848285016200244a565b91505092915050565b620025f68162002bb3565b82525050565b620026078162002bc7565b82525050565b60006200261c60058362002b0a565b9150620026298262002c9b565b602082019050919050565b600062002643600a8362002b0a565b9150620026508262002cc4565b602082019050919050565b60006200266a60058362002b0a565b9150620026778262002ced565b602082019050919050565b60006200269160098362002b0a565b91506200269e8262002d16565b602082019050919050565b6000620026b860068362002b0a565b9150620026c58262002d3f565b602082019050919050565b6000620026df60098362002b0a565b9150620026ec8262002d68565b602082019050919050565b60006200270660048362002b0a565b9150620027138262002d91565b602082019050919050565b60006200272d60008362002aff565b91506200273a8262002dba565b600082019050919050565b60006200275460048362002b0a565b9150620027618262002dbd565b602082019050919050565b60006200277b60048362002b0a565b9150620027888262002de6565b602082019050919050565b6000620027a260098362002b0a565b9150620027af8262002e0f565b602082019050919050565b6000620027c9601f8362002b0a565b9150620027d68262002e38565b602082019050919050565b6000620027f060048362002b0a565b9150620027fd8262002e61565b602082019050919050565b60006200281760088362002b0a565b9150620028248262002e8a565b602082019050919050565b6200283a8162002c07565b82525050565b60006200284d826200271e565b9150819050919050565b60006020820190506200286e6000830184620025eb565b92915050565b60006040820190506200288b6000830185620025eb565b6200289a6020830184620025eb565b9392505050565b6000606082019050620028b86000830186620025eb565b620028c76020830185620025eb565b620028d660408301846200282f565b949350505050565b6000604082019050620028f56000830185620025eb565b6200290460208301846200282f565b9392505050565b6000602082019050620029226000830184620025fc565b92915050565b6000602082019050818103600083015262002943816200260d565b9050919050565b60006020820190508181036000830152620029658162002634565b9050919050565b6000602082019050818103600083015262002987816200265b565b9050919050565b60006020820190508181036000830152620029a98162002682565b9050919050565b60006020820190508181036000830152620029cb81620026a9565b9050919050565b60006020820190508181036000830152620029ed81620026d0565b9050919050565b6000602082019050818103600083015262002a0f81620026f7565b9050919050565b6000602082019050818103600083015262002a318162002745565b9050919050565b6000602082019050818103600083015262002a53816200276c565b9050919050565b6000602082019050818103600083015262002a758162002793565b9050919050565b6000602082019050818103600083015262002a9781620027ba565b9050919050565b6000602082019050818103600083015262002ab981620027e1565b9050919050565b6000602082019050818103600083015262002adb8162002808565b9050919050565b600060208201905062002af960008301846200282f565b92915050565b600081905092915050565b600082825260208201905092915050565b600062002b288262002c07565b915062002b358362002c07565b9250827fffffffffffffffffffffffffffffffffffffffffffffffffffffffffffffffff0382111562002b6d5762002b6c62002c6c565b5b828201905092915050565b600062002b858262002c07565b915062002b928362002c07565b92508282101562002ba85762002ba762002c6c565b5b828203905092915050565b600062002bc08262002be7565b9050919050565b60008115159050919050565b600062002be08262002bb3565b9050919050565b600073ffffffffffffffffffffffffffffffffffffffff82169050919050565b6000819050919050565b600060ff82169050919050565b600062002c2b8262002c07565b91507fffffffffffffffffffffffffffffffffffffffffffffffffffffffffffffffff82141562002c615762002c6062002c6c565b5b600182019050919050565b7f4e487b7100000000000000000000000000000000000000000000000000000000600052601160045260246000fd5b7f21504f4f4c000000000000000000000000000000000000000000000000000000600082015250565b7f6d61784375726174656400000000000000000000000000000000000000000000600082015250565b7f2173656e64000000000000000000000000000000000000000000000000000000600082015250565b7f6973437572617465640000000000000000000000000000000000000000000000600082015250565b7f2156414c49440000000000000000000000000000000000000000000000000000600082015250565b7f217472616e736665720000000000000000000000000000000000000000000000600082015250565b7f214e455700000000000000000000000000000000000000000000000000000000600082015250565b50565b7f214d494e00000000000000000000000000000000000000000000000000000000600082015250565b7f2147415300000000000000000000000000000000000000000000000000000000600082015250565b7f21444543494d414c530000000000000000000000000000000000000000000000600082015250565b7f5265656e7472616e637947756172643a207265656e7472616e742063616c6c00600082015250565b7f4f50454e00000000000000000000000000000000000000000000000000000000600082015250565b7f2143555241544544000000000000000000000000000000000000000000000000600082015250565b62002ebe8162002bb3565b811462002eca57600080fd5b50565b62002ed88162002bc7565b811462002ee457600080fd5b50565b62002ef28162002bd3565b811462002efe57600080fd5b50565b62002f0c8162002c07565b811462002f1857600080fd5b50565b62002f268162002c11565b811462002f3257600080fd5b5056fe6101006040523480156200001257600080fd5b506040516200707b3803806200707b833981810160405281019062000038919062000524565b6001600081905550600073ffffffffffffffffffffffffffffffffffffffff168273ffffffffffffffffffffffffffffffffffffffff161415620000b3576040517f08c379a0000000000000000000000000000000000000000000000000000000008152600401620000aa9062000630565b60405180910390fd5b600073ffffffffffffffffffffffffffffffffffffffff168173ffffffffffffffffffffffffffffffffffffffff16141562000126576040517f08c379a00000000000000000000000000000000000000000000000000000000081526004016200011d9062000630565b60405180910390fd5b8173ffffffffffffffffffffffffffffffffffffffff1660808173ffffffffffffffffffffffffffffffffffffffff1660601b815250508073ffffffffffffffffffffffffffffffffffffffff1660a08173ffffffffffffffffffffffffffffffffffffffff1660601b8152505060006040518060400160405280601481526020017f2d5370617274616e50726f746f636f6c506f6f6c000000000000000000000000815250905060006040518060400160405280600481526020017f2d5350500000000000000000000000000000000000000000000000000000000081525090508273ffffffffffffffffffffffffffffffffffffffff166306fdde036040518163ffffffff1660e01b815260040160006040518083038186803b1580156200024f57600080fd5b505afa15801562000264573d6000803e3d6000fd5b505050506040513d6000823e3d601f19601f820116820180604052508101906200028f919062000565565b82604051602001620002a392919062000608565b604051602081830303815290604052600a9080519060200190620002c9929190620003eb565b508273ffffffffffffffffffffffffffffffffffffffff166395d89b416040518163ffffffff1660e01b815260040160006040518083038186803b1580156200031157600080fd5b505afa15801562000326573d6000803e3d6000fd5b505050506040513d6000823e3d601f19601f8201168201806040525081019062000351919062000565565b816040516020016200036592919062000608565b604051602081830303815290604052600b90805190602001906200038b929190620003eb565b50601260ff1660c08160ff1660f81b815250504260e08181525050610bb8600181905550610bb860058190555069152d02c7e14af68000006002819055504260048190555060016007819055506101f46009819055505050505062000860565b828054620003f99062000742565b90600052602060002090601f0160209004810192826200041d576000855562000469565b82601f106200043857805160ff191683800117855562000469565b8280016001018555821562000469579182015b82811115620004685782518255916020019190600101906200044b565b5b5090506200047891906200047c565b5090565b5b80821115620004975760008160009055506001016200047d565b5090565b6000620004b2620004ac846200067b565b62000652565b905082815260208101848484011115620004cb57600080fd5b620004d88482856200070c565b509392505050565b600081519050620004f18162000846565b92915050565b600082601f8301126200050957600080fd5b81516200051b8482602086016200049b565b91505092915050565b600080604083850312156200053857600080fd5b60006200054885828601620004e0565b92505060206200055b85828601620004e0565b9150509250929050565b6000602082840312156200057857600080fd5b600082015167ffffffffffffffff8111156200059357600080fd5b620005a184828501620004f7565b91505092915050565b6000620005b782620006b1565b620005c38185620006cd565b9350620005d58185602086016200070c565b80840191505092915050565b6000620005f0600583620006bc565b9150620005fd826200081d565b602082019050919050565b6000620006168285620005aa565b9150620006248284620005aa565b91508190509392505050565b600060208201905081810360008301526200064b81620005e1565b9050919050565b60006200065e62000671565b90506200066c828262000778565b919050565b6000604051905090565b600067ffffffffffffffff821115620006995762000698620007dd565b5b620006a4826200080c565b9050602081019050919050565b600081519050919050565b600082825260208201905092915050565b600081905092915050565b6000620006e582620006ec565b9050919050565b600073ffffffffffffffffffffffffffffffffffffffff82169050919050565b60005b838110156200072c5780820151818401526020810190506200070f565b838111156200073c576000848401525b50505050565b600060028204905060018216806200075b57607f821691505b60208210811415620007725762000771620007ae565b5b50919050565b62000783826200080c565b810181811067ffffffffffffffff82111715620007a557620007a4620007dd565b5b80604052505050565b7f4e487b7100000000000000000000000000000000000000000000000000000000600052602260045260246000fd5b7f4e487b7100000000000000000000000000000000000000000000000000000000600052604160045260246000fd5b6000601f19601f8301169050919050565b7f215a45524f000000000000000000000000000000000000000000000000000000600082015250565b6200085181620006d8565b81146200085d57600080fd5b50565b60805160601c60a05160601c60c05160f81c60e05161674c6200092f6000396000818161220f01526126ff01526000611143015260008181610bfb01528181610ce101528181611927015281816128cd01528181612a5f0152818161354501528181613e870152818161443a015281816149d50152614f3d015260008181610ba601528181610c8d01528181610d2401528181611da40152818161281e01528181612973015281816132cb015281816135d70152818161438b0152818161492f0152614c94015261674c6000f3fe608060405234801561001057600080fd5b50600436106102485760003560e01c806386d5f6181161013b578063d8dfeb45116100b8578063eec7faa11161007c578063eec7faa114610724578063f0337cdc14610742578063f1bbdef214610772578063fb195363146107a3578063fff6cae9146107bf57610248565b8063d8dfeb4514610669578063dbfc5a0414610687578063dd62ed3e146106b8578063e1eddde3146106e8578063ec342ad01461070657610248565b8063a7f0b3de116100ff578063a7f0b3de146105b0578063a9059cbb146105ce578063ba8e3edd146105fe578063bc5dedc91461061a578063cbbcf8021461064b57610248565b806386d5f618146104f857806395d89b411461052857806399d786ca146105465780639d3f87e214610564578063a457c2d71461058057610248565b806342966c68116101c957806370a082311161018d57806370a082311461045257806370f93cdf14610482578063752d7793146104a05780637ec3eae5146104be57806382bfefc8146104da57610248565b806342966c68146103c0578063474e7302146103dc5780634864d140146103f85780635f83e5d51461041657806362a5af3b1461043457610248565b80632783e4a9116102105780632783e4a914610307578063308aca1d14610338578063313ce5671461035457806333ca78e414610372578063395093511461039057610248565b806306fdde031461024d578063095ea7b31461026b57806314c025c61461029b57806318160ddd146102b957806323b872dd146102d7575b600080fd5b6102556107c9565b6040516102629190615d66565b60405180910390f35b6102856004803603810190610280919061595f565b61085b565b6040516102929190615d4b565b60405180910390f35b6102a3610872565b6040516102b09190615fd8565b60405180910390f35b6102c1610878565b6040516102ce9190615fd8565b60405180910390f35b6102f160048036038101906102ec9190615910565b61087e565b6040516102fe9190615d4b565b60405180910390f35b610321600480360381019061031c91906158d4565b610971565b60405161032f929190616053565b60405180910390f35b610352600480360381019061034d91906159ed565b610eb6565b005b61035c611141565b604051610369919061614b565b60405180910390f35b61037a611165565b6040516103879190615fd8565b60405180910390f35b6103aa60048036038101906103a5919061595f565b61116b565b6040516103b79190615d4b565b60405180910390f35b6103da60048036038101906103d591906159ed565b611209565b005b6103f660048036038101906103f191906159ed565b6113a8565b005b610400611627565b60405161040d9190615fd8565b60405180910390f35b61041e61162d565b60405161042b9190615fd8565b60405180910390f35b61043c611633565b6040516104499190615d4b565b60405180910390f35b61046c60048036038101906104679190615882565b611646565b6040516104799190615fd8565b60405180910390f35b61048a61168f565b6040516104979190615fd8565b60405180910390f35b6104a8611695565b6040516104b59190615fd8565b60405180910390f35b6104d860048036038101906104d391906159ed565b61169b565b005b6104e2611925565b6040516104ef9190615d07565b60405180910390f35b610512600480360381019061050d9190615882565b611949565b60405161051f9190615fd8565b60405180910390f35b610530611e55565b60405161053d9190615d66565b60405180910390f35b61054e611ee7565b60405161055b9190615fd8565b60405180910390f35b61057e600480360381019061057991906159ed565b611eed565b005b61059a6004803603810190610595919061595f565b612127565b6040516105a79190615d4b565b60405180910390f35b6105b861220d565b6040516105c59190615fd8565b60405180910390f35b6105e860048036038101906105e3919061595f565b612231565b6040516105f59190615d4b565b60405180910390f35b610618600480360381019061061391906159ed565b612248565b005b610634600480360381019061062f9190615882565b6124c7565b604051610642929190616053565b60405180910390f35b610653612ba2565b6040516106609190615fd8565b60405180910390f35b610671612ba8565b60405161067e9190615fd8565b60405180910390f35b6106a1600480360381019061069c9190615882565b612bae565b6040516106af929190616053565b60405180910390f35b6106d260048036038101906106cd91906158d4565b61341a565b6040516106df9190615fd8565b60405180910390f35b6106f06134a1565b6040516106fd9190615d07565b60405180910390f35b61070e6135d5565b60405161071b9190615d07565b60405180910390f35b61072c6135f9565b6040516107399190615fd8565b60405180910390f35b61075c600480360381019061075791906159ed565b6135ff565b6040516107699190615fd8565b60405180910390f35b61078c60048036038101906107879190615882565b613623565b60405161079a929190616053565b60405180910390f35b6107bd60048036038101906107b891906159ed565b61401a565b005b6107c76142cd565b005b6060600a80546107d890616331565b80601f016020809104026020016040519081016040528092919081815260200182805461080490616331565b80156108515780601f1061082657610100808354040283529160200191610851565b820191906000526020600020905b81548152906001019060200180831161083457829003601f168201915b5050505050905090565b60006108683384846144e9565b6001905092915050565b60095481565b600c5481565b600061088b8484846146b4565b6000600e60008673ffffffffffffffffffffffffffffffffffffffff1673ffffffffffffffffffffffffffffffffffffffff16815260200190815260200160002060003373ffffffffffffffffffffffffffffffffffffffff1673ffffffffffffffffffffffffffffffffffffffff1681526020019081526020016000205490508281101561094f576040517f08c379a000000000000000000000000000000000000000000000000000000000815260040161094690615df8565b60405180910390fd5b610965853385846109609190616263565b6144e9565b60019150509392505050565b60008061097c61492b565b73ffffffffffffffffffffffffffffffffffffffff166332fe7b266040518163ffffffff1660e01b815260040160206040518083038186803b1580156109c157600080fd5b505afa1580156109d5573d6000803e3d6000fd5b505050506040513d601f19601f820116820180604052508101906109f991906158ab565b73ffffffffffffffffffffffffffffffffffffffff163373ffffffffffffffffffffffffffffffffffffffff161480610ae15750610a3561492b565b73ffffffffffffffffffffffffffffffffffffffff16632ab24e496040518163ffffffff1660e01b815260040160206040518083038186803b158015610a7a57600080fd5b505afa158015610a8e573d6000803e3d6000fd5b505050506040513d601f19601f82011682018060405250810190610ab291906158ab565b73ffffffffffffffffffffffffffffffffffffffff163373ffffffffffffffffffffffffffffffffffffffff16145b80610b9b5750610aef61492b565b73ffffffffffffffffffffffffffffffffffffffff1663b99b0a0c6040518163ffffffff1660e01b815260040160206040518083038186803b158015610b3457600080fd5b505afa158015610b48573d6000803e3d6000fd5b505050506040513d601f19601f82011682018060405250810190610b6c91906158ab565b73ffffffffffffffffffffffffffffffffffffffff163373ffffffffffffffffffffffffffffffffffffffff16145b610ba457600080fd5b7f000000000000000000000000000000000000000000000000000000000000000073ffffffffffffffffffffffffffffffffffffffff168473ffffffffffffffffffffffffffffffffffffffff161480610c4957507f000000000000000000000000000000000000000000000000000000000000000073ffffffffffffffffffffffffffffffffffffffff168473ffffffffffffffffffffffffffffffffffffffff16145b610c88576040517f08c379a0000000000000000000000000000000000000000000000000000000008152600401610c7f90615e58565b60405180910390fd5b6000807f000000000000000000000000000000000000000000000000000000000000000073ffffffffffffffffffffffffffffffffffffffff168673ffffffffffffffffffffffffffffffffffffffff161415610d22577f00000000000000000000000000000000000000000000000000000000000000009150610d0a6149d0565b9050610d1581614aa6565b8094508195505050610d61565b7f00000000000000000000000000000000000000000000000000000000000000009150610d4d614c8f565b9050610d5881614d65565b80945081955050505b8473ffffffffffffffffffffffffffffffffffffffff168673ffffffffffffffffffffffffffffffffffffffff168373ffffffffffffffffffffffffffffffffffffffff167fc9163c3bdf7263acf1bb3d24072cc7da025f7181c31e2edc7e1673edf5e0ca32848888604051610dd99392919061607c565b60405180910390a48573ffffffffffffffffffffffffffffffffffffffff1663a9059cbb86866040518363ffffffff1660e01b8152600401610e1c929190615d22565b602060405180830381600087803b158015610e3657600080fd5b505af1158015610e4a573d6000803e3d6000fd5b505050506040513d601f19601f82011682018060405250810190610e6e919061599b565b610ead576040517f08c379a0000000000000000000000000000000000000000000000000000000008152600401610ea490615f18565b60405180910390fd5b50509250929050565b610ebe61492b565b73ffffffffffffffffffffffffffffffffffffffff166332fe7b266040518163ffffffff1660e01b815260040160206040518083038186803b158015610f0357600080fd5b505afa158015610f17573d6000803e3d6000fd5b505050506040513d601f19601f82011682018060405250810190610f3b91906158ab565b73ffffffffffffffffffffffffffffffffffffffff163373ffffffffffffffffffffffffffffffffffffffff1614806110235750610f7761492b565b73ffffffffffffffffffffffffffffffffffffffff16632ab24e496040518163ffffffff1660e01b815260040160206040518083038186803b158015610fbc57600080fd5b505afa158015610fd0573d6000803e3d6000fd5b505050506040513d601f19601f82011682018060405250810190610ff491906158ab565b73ffffffffffffffffffffffffffffffffffffffff163373ffffffffffffffffffffffffffffffffffffffff16145b806110dd575061103161492b565b73ffffffffffffffffffffffffffffffffffffffff1663b99b0a0c6040518163ffffffff1660e01b815260040160206040518083038186803b15801561107657600080fd5b505afa15801561108a573d6000803e3d6000fd5b505050506040513d601f19601f820116820180604052508101906110ae91906158ab565b73ffffffffffffffffffffffffffffffffffffffff163373ffffffffffffffffffffffffffffffffffffffff16145b6110e657600080fd5b60fa811015806110f85750610bb88111155b611137576040517f08c379a000000000000000000000000000000000000000000000000000000000815260040161112e90615ef8565b60405180910390fd5b8060098190555050565b7f000000000000000000000000000000000000000000000000000000000000000081565b60015481565b60006111ff338484600e60003373ffffffffffffffffffffffffffffffffffffffff1673ffffffffffffffffffffffffffffffffffffffff16815260200190815260200160002060008873ffffffffffffffffffffffffffffffffffffffff1673ffffffffffffffffffffffffffffffffffffffff168152602001908152602001600020546111fa9190616182565b6144e9565b6001905092915050565b6112116134a1565b73ffffffffffffffffffffffffffffffffffffffff163373ffffffffffffffffffffffffffffffffffffffff161461124857600080fd5b61125061492b565b73ffffffffffffffffffffffffffffffffffffffff1663b93ec54b6040518163ffffffff1660e01b815260040160206040518083038186803b15801561129557600080fd5b505afa1580156112a9573d6000803e3d6000fd5b505050506040513d601f19601f820116820180604052508101906112cd91906158ab565b73ffffffffffffffffffffffffffffffffffffffff16635e0237ea6112f06134a1565b6040518263ffffffff1660e01b815260040161130c9190615d07565b60206040518083038186803b15801561132457600080fd5b505afa158015611338573d6000803e3d6000fd5b505050506040513d601f19601f8201168201806040525081019061135c919061599b565b61139b576040517f08c379a000000000000000000000000000000000000000000000000000000000815260040161139290615e78565b60405180910390fd5b6113a53382614ffe565b50565b6113b061492b565b73ffffffffffffffffffffffffffffffffffffffff166332fe7b266040518163ffffffff1660e01b815260040160206040518083038186803b1580156113f557600080fd5b505afa158015611409573d6000803e3d6000fd5b505050506040513d601f19601f8201168201806040525081019061142d91906158ab565b73ffffffffffffffffffffffffffffffffffffffff163373ffffffffffffffffffffffffffffffffffffffff161480611515575061146961492b565b73ffffffffffffffffffffffffffffffffffffffff16632ab24e496040518163ffffffff1660e01b815260040160206040518083038186803b1580156114ae57600080fd5b505afa1580156114c2573d6000803e3d6000fd5b505050506040513d601f19601f820116820180604052508101906114e691906158ab565b73ffffffffffffffffffffffffffffffffffffffff163373ffffffffffffffffffffffffffffffffffffffff16145b806115cf575061152361492b565b73ffffffffffffffffffffffffffffffffffffffff1663b99b0a0c6040518163ffffffff1660e01b815260040160206040518083038186803b15801561156857600080fd5b505afa15801561157c573d6000803e3d6000fd5b505050506040513d601f19601f820116820180604052508101906115a091906158ab565b73ffffffffffffffffffffffffffffffffffffffff163373ffffffffffffffffffffffffffffffffffffffff16145b6115d857600080fd5b610bb881111561161d576040517f08c379a000000000000000000000000000000000000000000000000000000000815260040161161490615dd8565b60405180910390fd5b8060018190555050565b600f5481565b60125481565b600660009054906101000a900460ff1681565b6000600d60008373ffffffffffffffffffffffffffffffffffffffff1673ffffffffffffffffffffffffffffffffffffffff168152602001908152602001600020549050919050565b60075481565b60135481565b6116a361492b565b73ffffffffffffffffffffffffffffffffffffffff166332fe7b266040518163ffffffff1660e01b815260040160206040518083038186803b1580156116e857600080fd5b505afa1580156116fc573d6000803e3d6000fd5b505050506040513d601f19601f8201168201806040525081019061172091906158ab565b73ffffffffffffffffffffffffffffffffffffffff163373ffffffffffffffffffffffffffffffffffffffff161480611808575061175c61492b565b73ffffffffffffffffffffffffffffffffffffffff16632ab24e496040518163ffffffff1660e01b815260040160206040518083038186803b1580156117a157600080fd5b505afa1580156117b5573d6000803e3d6000fd5b505050506040513d601f19601f820116820180604052508101906117d991906158ab565b73ffffffffffffffffffffffffffffffffffffffff163373ffffffffffffffffffffffffffffffffffffffff16145b806118c2575061181661492b565b73ffffffffffffffffffffffffffffffffffffffff1663b99b0a0c6040518163ffffffff1660e01b815260040160206040518083038186803b15801561185b57600080fd5b505afa15801561186f573d6000803e3d6000fd5b505050506040513d601f19601f8201168201806040525081019061189391906158ab565b73ffffffffffffffffffffffffffffffffffffffff163373ffffffffffffffffffffffffffffffffffffffff16145b6118cb57600080fd5b600280546118d99190616209565b81111561191b576040517f08c379a000000000000000000000000000000000000000000000000000000000815260040161191290615dd8565b60405180910390fd5b8060028190555050565b7f000000000000000000000000000000000000000000000000000000000000000081565b600061195361492b565b73ffffffffffffffffffffffffffffffffffffffff166332fe7b266040518163ffffffff1660e01b815260040160206040518083038186803b15801561199857600080fd5b505afa1580156119ac573d6000803e3d6000fd5b505050506040513d601f19601f820116820180604052508101906119d091906158ab565b73ffffffffffffffffffffffffffffffffffffffff163373ffffffffffffffffffffffffffffffffffffffff161480611ab85750611a0c61492b565b73ffffffffffffffffffffffffffffffffffffffff16632ab24e496040518163ffffffff1660e01b815260040160206040518083038186803b158015611a5157600080fd5b505afa158015611a65573d6000803e3d6000fd5b505050506040513d601f19601f82011682018060405250810190611a8991906158ab565b73ffffffffffffffffffffffffffffffffffffffff163373ffffffffffffffffffffffffffffffffffffffff16145b80611b725750611ac661492b565b73ffffffffffffffffffffffffffffffffffffffff1663b99b0a0c6040518163ffffffff1660e01b815260040160206040518083038186803b158015611b0b57600080fd5b505afa158015611b1f573d6000803e3d6000fd5b505050506040513d601f19601f82011682018060405250810190611b4391906158ab565b73ffffffffffffffffffffffffffffffffffffffff163373ffffffffffffffffffffffffffffffffffffffff16145b611b7b57600080fd5b6000611b85614c8f565b905060025481600f54611b989190616182565b10611bd8576040517f08c379a0000000000000000000000000000000000000000000000000000000008152600401611bcf90615f38565b60405180910390fd5b6000611be26149d0565b9050611bec61492b565b73ffffffffffffffffffffffffffffffffffffffff16637b0e5c456040518163ffffffff1660e01b815260040160206040518083038186803b158015611c3157600080fd5b505afa158015611c45573d6000803e3d6000fd5b505050506040513d601f19601f82011682018060405250810190611c6991906158ab565b73ffffffffffffffffffffffffffffffffffffffff1663c5c11ee983600f5484601054600c546040518663ffffffff1660e01b8152600401611caf9594939291906160f8565b60206040518083038186803b158015611cc757600080fd5b505afa158015611cdb573d6000803e3d6000fd5b505050506040513d601f19601f82011682018060405250810190611cff9190615a16565b92506000600f541480611d1457506000601054145b15611de85768056bc75e2d631000008210158015611d3457506127108110155b611d73576040517f08c379a0000000000000000000000000000000000000000000000000000000008152600401611d6a90615e18565b60405180910390fd5b6000612710846064611d859190616209565b611d8f91906161d8565b90508084611d9d9190616263565b9350611dc97f0000000000000000000000000000000000000000000000000000000000000000826151c8565b818384611dd69190616209565b611de091906161d8565b600381905550505b611df28282615311565b611dfc84846151c8565b8373ffffffffffffffffffffffffffffffffffffffff167fbeb3885786d637a474cbc287c0a44587231633a077f0bd30354d5a4b18996fce838386604051611e469392919061607c565b60405180910390a25050919050565b6060600b8054611e6490616331565b80601f0160208091040260200160405190810160405280929190818152602001828054611e9090616331565b8015611edd5780601f10611eb257610100808354040283529160200191611edd565b820191906000526020600020905b815481529060010190602001808311611ec057829003601f168201915b5050505050905090565b60115481565b611ef561492b565b73ffffffffffffffffffffffffffffffffffffffff166332fe7b266040518163ffffffff1660e01b815260040160206040518083038186803b158015611f3a57600080fd5b505afa158015611f4e573d6000803e3d6000fd5b505050506040513d601f19601f82011682018060405250810190611f7291906158ab565b73ffffffffffffffffffffffffffffffffffffffff163373ffffffffffffffffffffffffffffffffffffffff16148061205a5750611fae61492b565b73ffffffffffffffffffffffffffffffffffffffff16632ab24e496040518163ffffffff1660e01b815260040160206040518083038186803b158015611ff357600080fd5b505afa158015612007573d6000803e3d6000fd5b505050506040513d601f19601f8201168201806040525081019061202b91906158ab565b73ffffffffffffffffffffffffffffffffffffffff163373ffffffffffffffffffffffffffffffffffffffff16145b80612114575061206861492b565b73ffffffffffffffffffffffffffffffffffffffff1663b99b0a0c6040518163ffffffff1660e01b815260040160206040518083038186803b1580156120ad57600080fd5b505afa1580156120c1573d6000803e3d6000fd5b505050506040513d601f19601f820116820180604052508101906120e591906158ab565b73ffffffffffffffffffffffffffffffffffffffff163373ffffffffffffffffffffffffffffffffffffffff16145b61211d57600080fd5b8060058190555050565b600080600e60003373ffffffffffffffffffffffffffffffffffffffff1673ffffffffffffffffffffffffffffffffffffffff16815260200190815260200160002060008573ffffffffffffffffffffffffffffffffffffffff1673ffffffffffffffffffffffffffffffffffffffff168152602001908152602001600020549050828110156121ec576040517f08c379a00000000000000000000000000000000000000000000000000000000081526004016121e390615df8565b60405180910390fd5b612202338585846121fd9190616263565b6144e9565b600191505092915050565b7f000000000000000000000000000000000000000000000000000000000000000081565b600061223e3384846146b4565b6001905092915050565b61225061492b565b73ffffffffffffffffffffffffffffffffffffffff166332fe7b266040518163ffffffff1660e01b815260040160206040518083038186803b15801561229557600080fd5b505afa1580156122a9573d6000803e3d6000fd5b505050506040513d601f19601f820116820180604052508101906122cd91906158ab565b73ffffffffffffffffffffffffffffffffffffffff163373ffffffffffffffffffffffffffffffffffffffff1614806123b5575061230961492b565b73ffffffffffffffffffffffffffffffffffffffff16632ab24e496040518163ffffffff1660e01b815260040160206040518083038186803b15801561234e57600080fd5b505afa158015612362573d6000803e3d6000fd5b505050506040513d601f19601f8201168201806040525081019061238691906158ab565b73ffffffffffffffffffffffffffffffffffffffff163373ffffffffffffffffffffffffffffffffffffffff16145b8061246f57506123c361492b565b73ffffffffffffffffffffffffffffffffffffffff1663b99b0a0c6040518163ffffffff1660e01b815260040160206040518083038186803b15801561240857600080fd5b505afa15801561241c573d6000803e3d6000fd5b505050506040513d601f19601f8201168201806040525081019061244091906158ab565b73ffffffffffffffffffffffffffffffffffffffff163373ffffffffffffffffffffffffffffffffffffffff16145b61247857600080fd5b62093a8081106124bd576040517f08c379a00000000000000000000000000000000000000000000000000000000081526004016124b490615ef8565b60405180910390fd5b8060078190555050565b6000806124d261492b565b73ffffffffffffffffffffffffffffffffffffffff166332fe7b266040518163ffffffff1660e01b815260040160206040518083038186803b15801561251757600080fd5b505afa15801561252b573d6000803e3d6000fd5b505050506040513d601f19601f8201168201806040525081019061254f91906158ab565b73ffffffffffffffffffffffffffffffffffffffff163373ffffffffffffffffffffffffffffffffffffffff161480612637575061258b61492b565b73ffffffffffffffffffffffffffffffffffffffff16632ab24e496040518163ffffffff1660e01b815260040160206040518083038186803b1580156125d057600080fd5b505afa1580156125e4573d6000803e3d6000fd5b505050506040513d601f19601f8201168201806040525081019061260891906158ab565b73ffffffffffffffffffffffffffffffffffffffff163373ffffffffffffffffffffffffffffffffffffffff16145b806126f1575061264561492b565b73ffffffffffffffffffffffffffffffffffffffff1663b99b0a0c6040518163ffffffff1660e01b815260040160206040518083038186803b15801561268a57600080fd5b505afa15801561269e573d6000803e3d6000fd5b505050506040513d601f19601f820116820180604052508101906126c291906158ab565b73ffffffffffffffffffffffffffffffffffffffff163373ffffffffffffffffffffffffffffffffffffffff16145b6126fa57600080fd5b6007547f00000000000000000000000000000000000000000000000000000000000000006127289190616182565b4211612769576040517f08c379a000000000000000000000000000000000000000000000000000000000815260040161276090615f98565b60405180910390fd5b600061277430611646565b9050600061278061492b565b73ffffffffffffffffffffffffffffffffffffffff16637b0e5c456040518163ffffffff1660e01b815260040160206040518083038186803b1580156127c557600080fd5b505afa1580156127d9573d6000803e3d6000fd5b505050506040513d601f19601f820116820180604052508101906127fd91906158ab565b90508073ffffffffffffffffffffffffffffffffffffffff16635a7b2ed3837f0000000000000000000000000000000000000000000000000000000000000000306040518463ffffffff1660e01b815260040161285c9392919061601c565b60206040518083038186803b15801561287457600080fd5b505afa158015612888573d6000803e3d6000fd5b505050506040513d601f19601f820116820180604052508101906128ac9190615a16565b93508073ffffffffffffffffffffffffffffffffffffffff16635a7b2ed3837f0000000000000000000000000000000000000000000000000000000000000000306040518463ffffffff1660e01b815260040161290b9392919061601c565b60206040518083038186803b15801561292357600080fd5b505afa158015612937573d6000803e3d6000fd5b505050506040513d601f19601f8201168201806040525081019061295b9190615a16565b9250612967848461534f565b6129713083614ffe565b7f000000000000000000000000000000000000000000000000000000000000000073ffffffffffffffffffffffffffffffffffffffff1663a9059cbb86866040518363ffffffff1660e01b81526004016129cc929190615d22565b602060405180830381600087803b1580156129e657600080fd5b505af11580156129fa573d6000803e3d6000fd5b505050506040513d601f19601f82011682018060405250810190612a1e919061599b565b612a5d576040517f08c379a0000000000000000000000000000000000000000000000000000000008152600401612a5490615f18565b60405180910390fd5b7f000000000000000000000000000000000000000000000000000000000000000073ffffffffffffffffffffffffffffffffffffffff1663a9059cbb86856040518363ffffffff1660e01b8152600401612ab8929190615d22565b602060405180830381600087803b158015612ad257600080fd5b505af1158015612ae6573d6000803e3d6000fd5b505050506040513d601f19601f82011682018060405250810190612b0a919061599b565b612b49576040517f08c379a0000000000000000000000000000000000000000000000000000000008152600401612b4090615f18565b60405180910390fd5b8473ffffffffffffffffffffffffffffffffffffffff167f59c3a0b60c6ab7deb62e1440c9e72441db6db7dfe514dba8cb18e60c0d896efa858585604051612b939392919061607c565b60405180910390a25050915091565b60025481565b60085481565b600080612bb961492b565b73ffffffffffffffffffffffffffffffffffffffff166332fe7b266040518163ffffffff1660e01b815260040160206040518083038186803b158015612bfe57600080fd5b505afa158015612c12573d6000803e3d6000fd5b505050506040513d601f19601f82011682018060405250810190612c3691906158ab565b73ffffffffffffffffffffffffffffffffffffffff163373ffffffffffffffffffffffffffffffffffffffff161480612d1e5750612c7261492b565b73ffffffffffffffffffffffffffffffffffffffff16632ab24e496040518163ffffffff1660e01b815260040160206040518083038186803b158015612cb757600080fd5b505afa158015612ccb573d6000803e3d6000fd5b505050506040513d601f19601f82011682018060405250810190612cef91906158ab565b73ffffffffffffffffffffffffffffffffffffffff163373ffffffffffffffffffffffffffffffffffffffff16145b80612dd85750612d2c61492b565b73ffffffffffffffffffffffffffffffffffffffff1663b99b0a0c6040518163ffffffff1660e01b815260040160206040518083038186803b158015612d7157600080fd5b505afa158015612d85573d6000803e3d6000fd5b505050506040513d601f19601f82011682018060405250810190612da991906158ab565b73ffffffffffffffffffffffffffffffffffffffff163373ffffffffffffffffffffffffffffffffffffffff16145b612de157600080fd5b6000612deb6134a1565b9050600073ffffffffffffffffffffffffffffffffffffffff168173ffffffffffffffffffffffffffffffffffffffff161415612e5d576040517f08c379a0000000000000000000000000000000000000000000000000000000008152600401612e5490615ed8565b60405180910390fd5b6000612e6761492b565b73ffffffffffffffffffffffffffffffffffffffff16637b0e5c456040518163ffffffff1660e01b815260040160206040518083038186803b158015612eac57600080fd5b505afa158015612ec0573d6000803e3d6000fd5b505050506040513d601f19601f82011682018060405250810190612ee491906158ab565b905060008273ffffffffffffffffffffffffffffffffffffffff166318160ddd6040518163ffffffff1660e01b815260040160206040518083038186803b158015612f2e57600080fd5b505afa158015612f42573d6000803e3d6000fd5b505050506040513d601f19601f82011682018060405250810190612f669190615a16565b905060008373ffffffffffffffffffffffffffffffffffffffff166370a08231306040518263ffffffff1660e01b8152600401612fa39190615d07565b60206040518083038186803b158015612fbb57600080fd5b505afa158015612fcf573d6000803e3d6000fd5b505050506040513d601f19601f82011682018060405250810190612ff39190615a16565b9050600061271060105460095461300a9190616209565b61301491906161d8565b90506000612710600f5460095461302b9190616209565b61303591906161d8565b9050600060085490508285101561304a578294505b81811015613056578190505b60008673ffffffffffffffffffffffffffffffffffffffff1663701baaf386886010546130839190616263565b85600f546130919190616182565b6040518463ffffffff1660e01b81526004016130af9392919061607c565b60206040518083038186803b1580156130c757600080fd5b505afa1580156130db573d6000803e3d6000fd5b505050506040513d601f19601f820116820180604052508101906130ff9190615a16565b90506131426040518060400160405280600d81526020017f546f6b656e2042616c616e63650000000000000000000000000000000000000081525060105461538d565b8673ffffffffffffffffffffffffffffffffffffffff1663896a708c868860105461316d9190616263565b85600f5461317b9190616182565b6040518463ffffffff1660e01b81526004016131999392919061607c565b60206040518083038186803b1580156131b157600080fd5b505afa1580156131c5573d6000803e3d6000fd5b505050506040513d601f19601f820116820180604052508101906131e99190615a16565b985085600854866131fa9190616209565b61320491906161d8565b600860008282546132159190616263565b9250508190555061322781600061534f565b61323089615429565b60008873ffffffffffffffffffffffffffffffffffffffff166386450495876040518263ffffffff1660e01b815260040161326b9190615fd8565b602060405180830381600087803b15801561328557600080fd5b505af1158015613299573d6000803e3d6000fd5b505050506040513d601f19601f820116820180604052508101906132bd9190615a16565b90506132c98982614ffe565b7f000000000000000000000000000000000000000000000000000000000000000073ffffffffffffffffffffffffffffffffffffffff1663a9059cbb8d846040518363ffffffff1660e01b8152600401613324929190615d22565b602060405180830381600087803b15801561333e57600080fd5b505af1158015613352573d6000803e3d6000fd5b505050506040513d601f19601f82011682018060405250810190613376919061599b565b6133b5576040517f08c379a00000000000000000000000000000000000000000000000000000000081526004016133ac90615f18565b60405180910390fd5b8b73ffffffffffffffffffffffffffffffffffffffff167f6f3ac8cc4850a948dddb5c85957bbaadcbea6e4b2cef3f02f6af53fcf2596f568383898e60405161340194939291906160b3565b60405180910390a2819a50505050505050505050915091565b6000600e60008473ffffffffffffffffffffffffffffffffffffffff1673ffffffffffffffffffffffffffffffffffffffff16815260200190815260200160002060008373ffffffffffffffffffffffffffffffffffffffff1673ffffffffffffffffffffffffffffffffffffffff16815260200190815260200160002054905092915050565b60006134ab61492b565b73ffffffffffffffffffffffffffffffffffffffff1663b93ec54b6040518163ffffffff1660e01b815260040160206040518083038186803b1580156134f057600080fd5b505afa158015613504573d6000803e3d6000fd5b505050506040513d601f19601f8201168201806040525081019061352891906158ab565b73ffffffffffffffffffffffffffffffffffffffff1663dcec81167f00000000000000000000000000000000000000000000000000000000000000006040518263ffffffff1660e01b81526004016135809190615d07565b60206040518083038186803b15801561359857600080fd5b505afa1580156135ac573d6000803e3d6000fd5b505050506040513d601f19601f820116820180604052508101906135d091906158ab565b905090565b7f000000000000000000000000000000000000000000000000000000000000000081565b60105481565b6014818154811061360f57600080fd5b906000526020600020016000915090505481565b60008061362e61492b565b73ffffffffffffffffffffffffffffffffffffffff166332fe7b266040518163ffffffff1660e01b815260040160206040518083038186803b15801561367357600080fd5b505afa158015613687573d6000803e3d6000fd5b505050506040513d601f19601f820116820180604052508101906136ab91906158ab565b73ffffffffffffffffffffffffffffffffffffffff163373ffffffffffffffffffffffffffffffffffffffff16148061379357506136e761492b565b73ffffffffffffffffffffffffffffffffffffffff16632ab24e496040518163ffffffff1660e01b815260040160206040518083038186803b15801561372c57600080fd5b505afa158015613740573d6000803e3d6000fd5b505050506040513d601f19601f8201168201806040525081019061376491906158ab565b73ffffffffffffffffffffffffffffffffffffffff163373ffffffffffffffffffffffffffffffffffffffff16145b8061384d57506137a161492b565b73ffffffffffffffffffffffffffffffffffffffff1663b99b0a0c6040518163ffffffff1660e01b815260040160206040518083038186803b1580156137e657600080fd5b505afa1580156137fa573d6000803e3d6000fd5b505050506040513d601f19601f8201168201806040525081019061381e91906158ab565b73ffffffffffffffffffffffffffffffffffffffff163373ffffffffffffffffffffffffffffffffffffffff16145b61385657600080fd5b60006138606134a1565b905061386a61492b565b73ffffffffffffffffffffffffffffffffffffffff1663b93ec54b6040518163ffffffff1660e01b815260040160206040518083038186803b1580156138af57600080fd5b505afa1580156138c3573d6000803e3d6000fd5b505050506040513d601f19601f820116820180604052508101906138e791906158ab565b73ffffffffffffffffffffffffffffffffffffffff16635e0237ea826040518263ffffffff1660e01b815260040161391f9190615d07565b60206040518083038186803b15801561393757600080fd5b505afa15801561394b573d6000803e3d6000fd5b505050506040513d601f19601f8201168201806040525081019061396f919061599b565b6139ae576040517f08c379a00000000000000000000000000000000000000000000000000000000081526004016139a590615ed8565b60405180910390fd5b60006139b861492b565b73ffffffffffffffffffffffffffffffffffffffff16637b0e5c456040518163ffffffff1660e01b815260040160206040518083038186803b1580156139fd57600080fd5b505afa158015613a11573d6000803e3d6000fd5b505050506040513d601f19601f82011682018060405250810190613a3591906158ab565b90506000613a41614c8f565b905060025481600f54613a549190616182565b10613a94576040517f08c379a0000000000000000000000000000000000000000000000000000000008152600401613a8b90615f38565b60405180910390fd5b60008373ffffffffffffffffffffffffffffffffffffffff166318160ddd6040518163ffffffff1660e01b815260040160206040518083038186803b158015613adc57600080fd5b505afa158015613af0573d6000803e3d6000fd5b505050506040513d601f19601f82011682018060405250810190613b149190615a16565b90506000612710601054600954613b2b9190616209565b613b3591906161d8565b90506000612710600f54600954613b4c9190616209565b613b5691906161d8565b90506000600854905082841015613b6b578293505b81811015613b77578190505b8573ffffffffffffffffffffffffffffffffffffffff1663701baaf38683600f54613ba29190616182565b87601054613bb09190616263565b6040518463ffffffff1660e01b8152600401613bce9392919061607c565b60206040518083038186803b158015613be657600080fd5b505afa158015613bfa573d6000803e3d6000fd5b505050506040513d601f19601f82011682018060405250810190613c1e9190615a16565b98506000612710600154601054613c359190616209565b613c3f91906161d8565b90508560086000828254613c539190616182565b92505081905550808873ffffffffffffffffffffffffffffffffffffffff166318160ddd6040518163ffffffff1660e01b815260040160206040518083038186803b158015613ca157600080fd5b505afa158015613cb5573d6000803e3d6000fd5b505050506040513d601f19601f82011682018060405250810190613cd99190615a16565b8b613ce49190616182565b10613d24576040517f08c379a0000000000000000000000000000000000000000000000000000000008152600401613d1b90615f78565b60405180910390fd5b60008773ffffffffffffffffffffffffffffffffffffffff1663b86a82ef88306040518363ffffffff1660e01b8152600401613d61929190615ff3565b60206040518083038186803b158015613d7957600080fd5b505afa158015613d8d573d6000803e3d6000fd5b505050506040513d601f19601f82011682018060405250810190613db19190615a16565b9050613dbe876000615311565b60008873ffffffffffffffffffffffffffffffffffffffff1663896a708c8986600f54613deb9190616182565b8a601054613df99190616263565b6040518463ffffffff1660e01b8152600401613e179392919061607c565b60206040518083038186803b158015613e2f57600080fd5b505afa158015613e43573d6000803e3d6000fd5b505050506040513d601f19601f82011682018060405250810190613e679190615a16565b90508873ffffffffffffffffffffffffffffffffffffffff1663c19387df7f0000000000000000000000000000000000000000000000000000000000000000836040518363ffffffff1660e01b8152600401613ec4929190615d22565b60206040518083038186803b158015613edc57600080fd5b505afa158015613ef0573d6000803e3d6000fd5b505050506040513d601f19601f82011682018060405250810190613f149190615a16565b9a50613f208a836151c8565b8973ffffffffffffffffffffffffffffffffffffffff166332f302e38e8e6040518363ffffffff1660e01b8152600401613f5b929190615d22565b602060405180830381600087803b158015613f7557600080fd5b505af1158015613f89573d6000803e3d6000fd5b505050506040513d601f19601f82011682018060405250810190613fad9190615a16565b50613fb78b615429565b8c73ffffffffffffffffffffffffffffffffffffffff167fbaff1e38597e99ccc6d6abf0e271a32ee3dc24114ea5bec3f05afd9bbb19f1f589848f8f60405161400394939291906160b3565b60405180910390a250505050505050505050915091565b61402261492b565b73ffffffffffffffffffffffffffffffffffffffff166332fe7b266040518163ffffffff1660e01b815260040160206040518083038186803b15801561406757600080fd5b505afa15801561407b573d6000803e3d6000fd5b505050506040513d601f19601f8201168201806040525081019061409f91906158ab565b73ffffffffffffffffffffffffffffffffffffffff163373ffffffffffffffffffffffffffffffffffffffff16148061418757506140db61492b565b73ffffffffffffffffffffffffffffffffffffffff16632ab24e496040518163ffffffff1660e01b815260040160206040518083038186803b15801561412057600080fd5b505afa158015614134573d6000803e3d6000fd5b505050506040513d601f19601f8201168201806040525081019061415891906158ab565b73ffffffffffffffffffffffffffffffffffffffff163373ffffffffffffffffffffffffffffffffffffffff16145b80614241575061419561492b565b73ffffffffffffffffffffffffffffffffffffffff1663b99b0a0c6040518163ffffffff1660e01b815260040160206040518083038186803b1580156141da57600080fd5b505afa1580156141ee573d6000803e3d6000fd5b505050506040513d601f19601f8201168201806040525081019061421291906158ab565b73ffffffffffffffffffffffffffffffffffffffff163373ffffffffffffffffffffffffffffffffffffffff16145b61424a57600080fd5b610244811061428e576040517f08c379a000000000000000000000000000000000000000000000000000000000815260040161428590615ef8565b60405180910390fd5b600660009054906101000a900460ff1615600660006101000a81548160ff02191690831515021790555080426142c49190616182565b60048190555050565b6142d561492b565b73ffffffffffffffffffffffffffffffffffffffff166398fabd3a6040518163ffffffff1660e01b815260040160206040518083038186803b15801561431a57600080fd5b505afa15801561432e573d6000803e3d6000fd5b505050506040513d601f19601f8201168201806040525081019061435291906158ab565b73ffffffffffffffffffffffffffffffffffffffff163373ffffffffffffffffffffffffffffffffffffffff161461438957600080fd5b7f000000000000000000000000000000000000000000000000000000000000000073ffffffffffffffffffffffffffffffffffffffff166370a08231306040518263ffffffff1660e01b81526004016143e29190615d07565b60206040518083038186803b1580156143fa57600080fd5b505afa15801561440e573d6000803e3d6000fd5b505050506040513d601f19601f820116820180604052508101906144329190615a16565b600f819055507f000000000000000000000000000000000000000000000000000000000000000073ffffffffffffffffffffffffffffffffffffffff166370a08231306040518263ffffffff1660e01b81526004016144919190615d07565b60206040518083038186803b1580156144a957600080fd5b505afa1580156144bd573d6000803e3d6000fd5b505050506040513d601f19601f820116820180604052508101906144e19190615a16565b601081905550565b600073ffffffffffffffffffffffffffffffffffffffff168373ffffffffffffffffffffffffffffffffffffffff161415614559576040517f08c379a000000000000000000000000000000000000000000000000000000000815260040161455090615fb8565b60405180910390fd5b600073ffffffffffffffffffffffffffffffffffffffff168273ffffffffffffffffffffffffffffffffffffffff1614156145c9576040517f08c379a00000000000000000000000000000000000000000000000000000000081526004016145c090615eb8565b60405180910390fd5b80600e60008573ffffffffffffffffffffffffffffffffffffffff1673ffffffffffffffffffffffffffffffffffffffff16815260200190815260200160002060008473ffffffffffffffffffffffffffffffffffffffff1673ffffffffffffffffffffffffffffffffffffffff168152602001908152602001600020819055508173ffffffffffffffffffffffffffffffffffffffff168373ffffffffffffffffffffffffffffffffffffffff167f8c5be1e5ebec7d5bd14f71427d1e84f3dd0314c0f7b2291e5b200ac8c7c3b925836040516146a79190615fd8565b60405180910390a3505050565b600073ffffffffffffffffffffffffffffffffffffffff168373ffffffffffffffffffffffffffffffffffffffff161415614724576040517f08c379a000000000000000000000000000000000000000000000000000000000815260040161471b90615f58565b60405180910390fd5b600073ffffffffffffffffffffffffffffffffffffffff168273ffffffffffffffffffffffffffffffffffffffff161415614794576040517f08c379a000000000000000000000000000000000000000000000000000000000815260040161478b90615e98565b60405180910390fd5b6000600d60008573ffffffffffffffffffffffffffffffffffffffff1673ffffffffffffffffffffffffffffffffffffffff1681526020019081526020016000205490508181101561481b576040517f08c379a000000000000000000000000000000000000000000000000000000000815260040161481290615e38565b60405180910390fd5b81816148279190616263565b600d60008673ffffffffffffffffffffffffffffffffffffffff1673ffffffffffffffffffffffffffffffffffffffff1681526020019081526020016000208190555081600d60008573ffffffffffffffffffffffffffffffffffffffff1673ffffffffffffffffffffffffffffffffffffffff16815260200190815260200160002060008282546148b99190616182565b925050819055508273ffffffffffffffffffffffffffffffffffffffff168473ffffffffffffffffffffffffffffffffffffffff167fddf252ad1be2c89b69c2b068fc378daa952ba7f163c4a11628f55a4df523b3ef8460405161491d9190615fd8565b60405180910390a350505050565b60007f000000000000000000000000000000000000000000000000000000000000000073ffffffffffffffffffffffffffffffffffffffff166398fabd3a6040518163ffffffff1660e01b815260040160206040518083038186803b15801561499357600080fd5b505afa1580156149a7573d6000803e3d6000fd5b505050506040513d601f19601f820116820180604052508101906149cb91906159c4565b905090565b6000807f000000000000000000000000000000000000000000000000000000000000000073ffffffffffffffffffffffffffffffffffffffff166370a08231306040518263ffffffff1660e01b8152600401614a2c9190615d07565b60206040518083038186803b158015614a4457600080fd5b505afa158015614a58573d6000803e3d6000fd5b505050506040513d601f19601f82011682018060405250810190614a7c9190615a16565b9050601054811115614a9d5760105481614a969190616263565b9150614aa2565b600091505b5090565b600080600060105490506000600f5490506000614ac161492b565b73ffffffffffffffffffffffffffffffffffffffff16637b0e5c456040518163ffffffff1660e01b815260040160206040518083038186803b158015614b0657600080fd5b505afa158015614b1a573d6000803e3d6000fd5b505050506040513d601f19601f82011682018060405250810190614b3e91906158ab565b90508073ffffffffffffffffffffffffffffffffffffffff1663701baaf38785856040518463ffffffff1660e01b8152600401614b7d9392919061607c565b60206040518083038186803b158015614b9557600080fd5b505afa158015614ba9573d6000803e3d6000fd5b505050506040513d601f19601f82011682018060405250810190614bcd9190615a16565b94508073ffffffffffffffffffffffffffffffffffffffff1663896a708c8785856040518463ffffffff1660e01b8152600401614c0c9392919061607c565b60206040518083038186803b158015614c2457600080fd5b505afa158015614c38573d6000803e3d6000fd5b505050506040513d601f19601f82011682018060405250810190614c5c9190615a16565b9350614c7e8583614c6d9190616263565b8785614c799190616182565b615492565b614c8784615429565b505050915091565b6000807f000000000000000000000000000000000000000000000000000000000000000073ffffffffffffffffffffffffffffffffffffffff166370a08231306040518263ffffffff1660e01b8152600401614ceb9190615d07565b60206040518083038186803b158015614d0357600080fd5b505afa158015614d17573d6000803e3d6000fd5b505050506040513d601f19601f82011682018060405250810190614d3b9190615a16565b9050600f54811115614d5c57600f5481614d559190616263565b9150614d61565b600091505b5090565b6000806000600f549050600060105490506000614d8061492b565b73ffffffffffffffffffffffffffffffffffffffff16637b0e5c456040518163ffffffff1660e01b815260040160206040518083038186803b158015614dc557600080fd5b505afa158015614dd9573d6000803e3d6000fd5b505050506040513d601f19601f82011682018060405250810190614dfd91906158ab565b90508073ffffffffffffffffffffffffffffffffffffffff1663701baaf38785856040518463ffffffff1660e01b8152600401614e3c9392919061607c565b60206040518083038186803b158015614e5457600080fd5b505afa158015614e68573d6000803e3d6000fd5b505050506040513d601f19601f82011682018060405250810190614e8c9190615a16565b945060008173ffffffffffffffffffffffffffffffffffffffff1663896a708c8886866040518463ffffffff1660e01b8152600401614ecd9392919061607c565b60206040518083038186803b158015614ee557600080fd5b505afa158015614ef9573d6000803e3d6000fd5b505050506040513d601f19601f82011682018060405250810190614f1d9190615a16565b90508173ffffffffffffffffffffffffffffffffffffffff1663c19387df7f0000000000000000000000000000000000000000000000000000000000000000836040518363ffffffff1660e01b8152600401614f7a929190615d22565b60206040518083038186803b158015614f9257600080fd5b505afa158015614fa6573d6000803e3d6000fd5b505050506040513d601f19601f82011682018060405250810190614fca9190615a16565b9450614fec8785614fdb9190616182565b8785614fe79190616263565b615492565b614ff585615429565b50505050915091565b600073ffffffffffffffffffffffffffffffffffffffff168273ffffffffffffffffffffffffffffffffffffffff16141561506e576040517f08c379a000000000000000000000000000000000000000000000000000000000815260040161506590615db8565b60405180910390fd5b6000600d60008473ffffffffffffffffffffffffffffffffffffffff1673ffffffffffffffffffffffffffffffffffffffff168152602001908152602001600020549050818110156150f5576040517f08c379a00000000000000000000000000000000000000000000000000000000081526004016150ec90615e38565b60405180910390fd5b81816151019190616263565b600d60008573ffffffffffffffffffffffffffffffffffffffff1673ffffffffffffffffffffffffffffffffffffffff1681526020019081526020016000208190555081600c60008282546151569190616263565b92505081905550600073ffffffffffffffffffffffffffffffffffffffff168373ffffffffffffffffffffffffffffffffffffffff167fddf252ad1be2c89b69c2b068fc378daa952ba7f163c4a11628f55a4df523b3ef846040516151bb9190615fd8565b60405180910390a3505050565b600073ffffffffffffffffffffffffffffffffffffffff168273ffffffffffffffffffffffffffffffffffffffff161415615238576040517f08c379a000000000000000000000000000000000000000000000000000000000815260040161522f90615db8565b60405180910390fd5b80600c600082825461524a9190616182565b9250508190555080600d60008473ffffffffffffffffffffffffffffffffffffffff1673ffffffffffffffffffffffffffffffffffffffff16815260200190815260200160002060008282546152a09190616182565b925050819055508173ffffffffffffffffffffffffffffffffffffffff16600073ffffffffffffffffffffffffffffffffffffffff167fddf252ad1be2c89b69c2b068fc378daa952ba7f163c4a11628f55a4df523b3ef836040516153059190615fd8565b60405180910390a35050565b81600f60008282546153239190616182565b92505081905550806010600082825461533c9190616182565b9250508190555061534b6154ac565b5050565b81600f60008282546153619190616263565b92505081905550806010600082825461537a9190616263565b925050819055506153896154ac565b5050565b61542582826040516024016153a3929190615d88565b6040516020818303038152906040527f9710a9d0000000000000000000000000000000000000000000000000000000007bffffffffffffffffffffffffffffffffffffffffffffffffffffffff19166020820180517bffffffffffffffffffffffffffffffffffffffffffffffffffffffff83818316178352505050506155f9565b5050565b6000601154141561543c57426011819055505b62278d0060115461544d9190616182565b421161546c57806012546154619190616182565b60128190555061548f565b42601181905550601254601381905550615487601354615622565b806012819055505b50565b81600f81905550806010819055506154a86154ac565b5050565b6000601054600f54600f546154c19190616209565b6154cb91906161d8565b905060006003548211156154ee57600354826154e79190616263565b90506154ff565b816003546154fc9190616263565b90505b816127108261550e9190616209565b61551891906161d8565b90506005548110615543576001600660006101000a81548160ff02191690831515021790555061556a565b60045442111561556957610e104261555b9190616182565b600481905550816003819055505b5b600660009054906101000a900460ff16156155f55760055481116155a4576000600660006101000a81548160ff0219169083151502179055505b6004544211156155f457610e10426155bc9190616182565b60048190555060006004600380546155d49190616209565b846155df9190616182565b6155e991906161d8565b905080600381905550505b5b5050565b60008151905060006a636f6e736f6c652e6c6f679050602083016000808483855afa5050505050565b6000601480548060200260200160405190810160405280929190818152602001828054801561567057602002820191906000526020600020905b81548152602001906001019080831161565c575b5050505050905060028151141561576c57806001815181106156bb577f4e487b7100000000000000000000000000000000000000000000000000000000600052603260045260246000fd5b6020026020010151816000815181106156fd577f4e487b7100000000000000000000000000000000000000000000000000000000600052603260045260246000fd5b6020026020010181815250508181600181518110615744577f4e487b7100000000000000000000000000000000000000000000000000000000600052603260045260246000fd5b602002602001018181525050806014908051906020019061576692919061579a565b50615796565b60148290806001815401808255809150506001900390600052602060002001600090919091909150555b5050565b8280548282559060005260206000209081019282156157d6579160200282015b828111156157d55782518255916020019190600101906157ba565b5b5090506157e391906157e7565b5090565b5b808211156158005760008160009055506001016157e8565b5090565b600081359050615813816166ba565b92915050565b600081519050615828816166ba565b92915050565b60008151905061583d816166d1565b92915050565b600081519050615852816166e8565b92915050565b600081359050615867816166ff565b92915050565b60008151905061587c816166ff565b92915050565b60006020828403121561589457600080fd5b60006158a284828501615804565b91505092915050565b6000602082840312156158bd57600080fd5b60006158cb84828501615819565b91505092915050565b600080604083850312156158e757600080fd5b60006158f585828601615804565b925050602061590685828601615804565b9150509250929050565b60008060006060848603121561592557600080fd5b600061593386828701615804565b935050602061594486828701615804565b925050604061595586828701615858565b9150509250925092565b6000806040838503121561597257600080fd5b600061598085828601615804565b925050602061599185828601615858565b9150509250929050565b6000602082840312156159ad57600080fd5b60006159bb8482850161582e565b91505092915050565b6000602082840312156159d657600080fd5b60006159e484828501615843565b91505092915050565b6000602082840312156159ff57600080fd5b6000615a0d84828501615858565b91505092915050565b600060208284031215615a2857600080fd5b6000615a368482850161586d565b91505092915050565b615a4881616297565b82525050565b615a57816162a9565b82525050565b6000615a6882616166565b615a728185616171565b9350615a828185602086016162fe565b615a8b816163f0565b840191505092915050565b6000615aa3600883616171565b9150615aae82616401565b602082019050919050565b6000615ac6600483616171565b9150615ad18261642a565b602082019050919050565b6000615ae9600983616171565b9150615af482616453565b602082019050919050565b6000615b0c600983616171565b9150615b178261647c565b602082019050919050565b6000615b2f600883616171565b9150615b3a826164a5565b602082019050919050565b6000615b52600c83616171565b9150615b5d826164ce565b602082019050919050565b6000615b75600683616171565b9150615b80826164f7565b602082019050919050565b6000615b98600583616171565b9150615ba382616520565b602082019050919050565b6000615bbb600883616171565b9150615bc682616549565b602082019050919050565b6000615bde600683616171565b9150615be982616572565b602082019050919050565b6000615c01600683616171565b9150615c0c8261659b565b602082019050919050565b6000615c24600983616171565b9150615c2f826165c4565b602082019050919050565b6000615c47600383616171565b9150615c52826165ed565b602082019050919050565b6000615c6a600783616171565b9150615c7582616616565b602082019050919050565b6000615c8d600683616171565b9150615c988261663f565b602082019050919050565b6000615cb0600a83616171565b9150615cbb82616668565b602082019050919050565b6000615cd3600683616171565b9150615cde82616691565b602082019050919050565b615cf2816162e7565b82525050565b615d01816162f1565b82525050565b6000602082019050615d1c6000830184615a3f565b92915050565b6000604082019050615d376000830185615a3f565b615d446020830184615ce9565b9392505050565b6000602082019050615d606000830184615a4e565b92915050565b60006020820190508181036000830152615d808184615a5d565b905092915050565b60006040820190508181036000830152615da28185615a5d565b9050615db16020830184615ce9565b9392505050565b60006020820190508181036000830152615dd181615a96565b9050919050565b60006020820190508181036000830152615df181615ab9565b9050919050565b60006020820190508181036000830152615e1181615adc565b9050919050565b60006020820190508181036000830152615e3181615aff565b9050919050565b60006020820190508181036000830152615e5181615b22565b9050919050565b60006020820190508181036000830152615e7181615b45565b9050919050565b60006020820190508181036000830152615e9181615b68565b9050919050565b60006020820190508181036000830152615eb181615b8b565b9050919050565b60006020820190508181036000830152615ed181615bae565b9050919050565b60006020820190508181036000830152615ef181615bd1565b9050919050565b60006020820190508181036000830152615f1181615bf4565b9050919050565b60006020820190508181036000830152615f3181615c17565b9050919050565b60006020820190508181036000830152615f5181615c3a565b9050919050565b60006020820190508181036000830152615f7181615c5d565b9050919050565b60006020820190508181036000830152615f9181615c80565b9050919050565b60006020820190508181036000830152615fb181615ca3565b9050919050565b60006020820190508181036000830152615fd181615cc6565b9050919050565b6000602082019050615fed6000830184615ce9565b92915050565b60006040820190506160086000830185615ce9565b6160156020830184615a3f565b9392505050565b60006060820190506160316000830186615ce9565b61603e6020830185615a3f565b61604b6040830184615a3f565b949350505050565b60006040820190506160686000830185615ce9565b6160756020830184615ce9565b9392505050565b60006060820190506160916000830186615ce9565b61609e6020830185615ce9565b6160ab6040830184615ce9565b949350505050565b60006080820190506160c86000830187615ce9565b6160d56020830186615ce9565b6160e26040830185615ce9565b6160ef6060830184615ce9565b95945050505050565b600060a08201905061610d6000830188615ce9565b61611a6020830187615ce9565b6161276040830186615ce9565b6161346060830185615ce9565b6161416080830184615ce9565b9695505050505050565b60006020820190506161606000830184615cf8565b92915050565b600081519050919050565b600082825260208201905092915050565b600061618d826162e7565b9150616198836162e7565b9250827fffffffffffffffffffffffffffffffffffffffffffffffffffffffffffffffff038211156161cd576161cc616363565b5b828201905092915050565b60006161e3826162e7565b91506161ee836162e7565b9250826161fe576161fd616392565b5b828204905092915050565b6000616214826162e7565b915061621f836162e7565b9250817fffffffffffffffffffffffffffffffffffffffffffffffffffffffffffffffff048311821515161561625857616257616363565b5b828202905092915050565b600061626e826162e7565b9150616279836162e7565b92508282101561628c5761628b616363565b5b828203905092915050565b60006162a2826162c7565b9050919050565b60008115159050919050565b60006162c082616297565b9050919050565b600073ffffffffffffffffffffffffffffffffffffffff82169050919050565b6000819050919050565b600060ff82169050919050565b60005b8381101561631c578082015181840152602081019050616301565b8381111561632b576000848401525b50505050565b6000600282049050600182168061634957607f821691505b6020821081141561635d5761635c6163c1565b5b50919050565b7f4e487b7100000000000000000000000000000000000000000000000000000000600052601160045260246000fd5b7f4e487b7100000000000000000000000000000000000000000000000000000000600052601260045260246000fd5b7f4e487b7100000000000000000000000000000000000000000000000000000000600052602260045260246000fd5b6000601f19601f8301169050919050565b7f216163636f756e74000000000000000000000000000000000000000000000000600082015250565b7f214d415800000000000000000000000000000000000000000000000000000000600082015250565b7f21617070726f76616c0000000000000000000000000000000000000000000000600082015250565b7f2142616c616e6365640000000000000000000000000000000000000000000000600082015250565b7f2162616c616e6365000000000000000000000000000000000000000000000000600082015250565b7f21424153457c7c544f4b454e0000000000000000000000000000000000000000600082015250565b7f2153594e54480000000000000000000000000000000000000000000000000000600082015250565b7f214255524e000000000000000000000000000000000000000000000000000000600082015250565b7f217370656e646572000000000000000000000000000000000000000000000000600082015250565b7f2173796e74680000000000000000000000000000000000000000000000000000600082015250565b7f2156414c49440000000000000000000000000000000000000000000000000000600082015250565b7f217472616e736665720000000000000000000000000000000000000000000000600082015250565b7f5254430000000000000000000000000000000000000000000000000000000000600082015250565b7f2173656e64657200000000000000000000000000000000000000000000000000600082015250565b7f4341505045440000000000000000000000000000000000000000000000000000600082015250565b7f21494e4954494154454400000000000000000000000000000000000000000000600082015250565b7f216f776e65720000000000000000000000000000000000000000000000000000600082015250565b6166c381616297565b81146166ce57600080fd5b50565b6166da816162a9565b81146166e557600080fd5b50565b6166f1816162b5565b81146166fc57600080fd5b50565b616708816162e7565b811461671357600080fd5b5056fea2646970667358221220fed271ce9aeb4067aca9e81156300f0ab4ffe1b94ffdb71d488f4b3cdb90c4f964736f6c63430008030033a26469706673582212206f75a79637fcd27442ff197cf5e3c8f5bb2ac6a50874dbb4fd99a3cb8c98312e64736f6c63430008030033",
  "linkReferences": {},
  "deployedLinkReferences": {}
}