{
  "_format": "hh-sol-artifact-1",
  "contractName": "PoolFactory",
  "sourceName": "contracts/poolFactory.sol",
  "abi": [
    {
      "inputs": [
        {
          "internalType": "address",
          "name": "_base",
          "type": "address"
        },
        {
          "internalType": "address",
          "name": "_wbnb",
          "type": "address"
        }
      ],
      "stateMutability": "nonpayable",
      "type": "constructor"
    },
    {
      "anonymous": false,
      "inputs": [
        {
          "indexed": true,
          "internalType": "address",
          "name": "pool",
          "type": "address"
        }
      ],
      "name": "AddCuratePool",
      "type": "event"
    },
    {
      "anonymous": false,
      "inputs": [
        {
          "indexed": true,
          "internalType": "address",
          "name": "token",
          "type": "address"
        },
        {
          "indexed": true,
          "internalType": "address",
          "name": "pool",
          "type": "address"
        }
      ],
      "name": "CreatePool",
      "type": "event"
    },
    {
      "anonymous": false,
      "inputs": [
        {
          "indexed": true,
          "internalType": "address",
          "name": "pool",
          "type": "address"
        }
      ],
      "name": "RemoveCuratePool",
      "type": "event"
    },
    {
      "inputs": [],
      "name": "BASE",
      "outputs": [
        {
          "internalType": "address",
          "name": "",
          "type": "address"
        }
      ],
      "stateMutability": "view",
      "type": "function"
    },
    {
      "inputs": [],
      "name": "DEPLOYER",
      "outputs": [
        {
          "internalType": "address",
          "name": "",
          "type": "address"
        }
      ],
      "stateMutability": "view",
      "type": "function"
    },
    {
      "inputs": [],
      "name": "WBNB",
      "outputs": [
        {
          "internalType": "address",
          "name": "",
          "type": "address"
        }
      ],
      "stateMutability": "view",
      "type": "function"
    },
    {
      "inputs": [
        {
          "internalType": "address",
          "name": "token",
          "type": "address"
        }
      ],
      "name": "addCuratedPool",
      "outputs": [],
      "stateMutability": "nonpayable",
      "type": "function"
    },
    {
      "inputs": [
        {
          "internalType": "uint256",
          "name": "",
          "type": "uint256"
        }
      ],
      "name": "arrayPools",
      "outputs": [
        {
          "internalType": "address",
          "name": "",
          "type": "address"
        }
      ],
      "stateMutability": "view",
      "type": "function"
    },
    {
      "inputs": [
        {
          "internalType": "uint256",
          "name": "",
          "type": "uint256"
        }
      ],
      "name": "arrayTokens",
      "outputs": [
        {
          "internalType": "address",
          "name": "",
          "type": "address"
        }
      ],
      "stateMutability": "view",
      "type": "function"
    },
    {
      "inputs": [
        {
          "internalType": "uint256",
          "name": "inputBase",
          "type": "uint256"
        },
        {
          "internalType": "uint256",
          "name": "inputToken",
          "type": "uint256"
        },
        {
          "internalType": "address",
          "name": "token",
          "type": "address"
        }
      ],
      "name": "createPoolADD",
      "outputs": [
        {
          "internalType": "address",
          "name": "pool",
          "type": "address"
        }
      ],
      "stateMutability": "payable",
      "type": "function"
    },
    {
      "inputs": [],
      "name": "curatedPoolCount",
      "outputs": [
        {
          "internalType": "uint256",
          "name": "",
          "type": "uint256"
        }
      ],
      "stateMutability": "view",
      "type": "function"
    },
    {
      "inputs": [],
      "name": "curatedPoolSize",
      "outputs": [
        {
          "internalType": "uint256",
          "name": "",
          "type": "uint256"
        }
      ],
      "stateMutability": "view",
      "type": "function"
    },
    {
      "inputs": [
        {
          "internalType": "address",
          "name": "token",
          "type": "address"
        }
      ],
      "name": "getPool",
      "outputs": [
        {
          "internalType": "address",
          "name": "pool",
          "type": "address"
        }
      ],
      "stateMutability": "view",
      "type": "function"
    },
    {
      "inputs": [
        {
          "internalType": "uint256",
          "name": "i",
          "type": "uint256"
        }
      ],
      "name": "getPoolArray",
      "outputs": [
        {
          "internalType": "address",
          "name": "",
          "type": "address"
        }
      ],
      "stateMutability": "view",
      "type": "function"
    },
    {
      "inputs": [
        {
          "internalType": "uint256",
          "name": "i",
          "type": "uint256"
        }
      ],
      "name": "getToken",
      "outputs": [
        {
          "internalType": "address",
          "name": "",
          "type": "address"
        }
      ],
      "stateMutability": "view",
      "type": "function"
    },
    {
      "inputs": [],
      "name": "getVaultAssets",
      "outputs": [
        {
          "internalType": "address[]",
          "name": "assets",
          "type": "address[]"
        }
      ],
      "stateMutability": "view",
      "type": "function"
    },
    {
      "inputs": [
        {
          "internalType": "address",
          "name": "",
          "type": "address"
        }
      ],
      "name": "isCuratedPool",
      "outputs": [
        {
          "internalType": "bool",
          "name": "",
          "type": "bool"
        }
      ],
      "stateMutability": "view",
      "type": "function"
    },
    {
      "inputs": [
        {
          "internalType": "address",
          "name": "",
          "type": "address"
        }
      ],
      "name": "isListedPool",
      "outputs": [
        {
          "internalType": "bool",
          "name": "",
          "type": "bool"
        }
      ],
      "stateMutability": "view",
      "type": "function"
    },
    {
      "inputs": [
        {
          "internalType": "address",
          "name": "pool",
          "type": "address"
        }
      ],
      "name": "isPool",
      "outputs": [
        {
          "internalType": "bool",
          "name": "",
          "type": "bool"
        }
      ],
      "stateMutability": "view",
      "type": "function"
    },
    {
      "inputs": [],
      "name": "minBASE",
      "outputs": [
        {
          "internalType": "uint256",
          "name": "",
          "type": "uint256"
        }
      ],
      "stateMutability": "view",
      "type": "function"
    },
    {
      "inputs": [],
      "name": "poolCount",
      "outputs": [
        {
          "internalType": "uint256",
          "name": "",
          "type": "uint256"
        }
      ],
      "stateMutability": "view",
      "type": "function"
    },
    {
      "inputs": [],
      "name": "purgeDeployer",
      "outputs": [],
      "stateMutability": "nonpayable",
      "type": "function"
    },
    {
      "inputs": [
        {
          "internalType": "address",
          "name": "token",
          "type": "address"
        }
      ],
      "name": "removeCuratedPool",
      "outputs": [],
      "stateMutability": "nonpayable",
      "type": "function"
    },
    {
      "inputs": [
        {
          "internalType": "uint256",
          "name": "newSize",
          "type": "uint256"
        },
        {
          "internalType": "uint256",
          "name": "_minBASE",
          "type": "uint256"
        }
      ],
      "name": "setParams",
      "outputs": [],
      "stateMutability": "nonpayable",
      "type": "function"
    },
    {
      "inputs": [],
      "name": "tokenCount",
      "outputs": [
        {
          "internalType": "uint256",
          "name": "",
          "type": "uint256"
        }
      ],
      "stateMutability": "view",
      "type": "function"
    },
    {
      "inputs": [],
      "name": "vaultAssetsLength",
      "outputs": [
        {
          "internalType": "uint256",
          "name": "",
          "type": "uint256"
        }
      ],
      "stateMutability": "view",
      "type": "function"
    }
  ],
  "bytecode": "0x60c06040523480156200001157600080fd5b506040516200aa9a3803806200aa9a83398181016040528101906200003791906200020c565b6001600081905550600073ffffffffffffffffffffffffffffffffffffffff168273ffffffffffffffffffffffffffffffffffffffff161415620000b2576040517f08c379a0000000000000000000000000000000000000000000000000000000008152600401620000a99062000274565b60405180910390fd5b600073ffffffffffffffffffffffffffffffffffffffff168173ffffffffffffffffffffffffffffffffffffffff16141562000125576040517f08c379a00000000000000000000000000000000000000000000000000000000081526004016200011c9062000274565b60405180910390fd5b8173ffffffffffffffffffffffffffffffffffffffff1660808173ffffffffffffffffffffffffffffffffffffffff1660601b815250508073ffffffffffffffffffffffffffffffffffffffff1660a08173ffffffffffffffffffffffffffffffffffffffff1660601b81525050600a60028190555069021e19e0c9bab240000060078190555033600160006101000a81548173ffffffffffffffffffffffffffffffffffffffff021916908373ffffffffffffffffffffffffffffffffffffffff16021790555050506200031e565b600081519050620002068162000304565b92915050565b600080604083850312156200022057600080fd5b60006200023085828601620001f5565b92505060206200024385828601620001f5565b9150509250929050565b60006200025c60058362000296565b91506200026982620002db565b602082019050919050565b600060208201905081810360008301526200028f816200024d565b9050919050565b600082825260208201905092915050565b6000620002b482620002bb565b9050919050565b600073ffffffffffffffffffffffffffffffffffffffff82169050919050565b7f215a45524f000000000000000000000000000000000000000000000000000000600082015250565b6200030f81620002a7565b81146200031b57600080fd5b50565b60805160601c60a05160601c61a70362000397600039600081816116d7015281816118a201528181611cc90152818161236c015261243d0152600081816108fb0152818161103c01528181611b2a01528181611cf201528181611e1601528181611ef8015281816121b001526121e9015261a7036000f3fe6080604052600436106200015e5760003560e01c80639d84048211620000c7578063c1b8411a1162000079578063c1b8411a1462000503578063cb6695541462000533578063e4b50cb81462000569578063ec342ad014620005ad578063f525cb6814620005dd578063f99b2ab0146200060d576200015e565b80639d84048214620003a95780639f181b5e14620003ed578063a432fd2a146200041d578063abc764da1462000461578063bbe4f6db1462000491578063c0324c7714620004d5576200015e565b80637b4a93a011620001215780637b4a93a014620002635780637ca51fbf14620002935780638bc51e3614620002c15780638dcb4c9314620002f15780638dd9500214620003355780638e8093d61462000365576200015e565b806303a82138146200016357806317985461146200017d5780632b2260a814620001c15780634a0ff5d714620001ef5780635b16ebb7146200021f575b600080fd5b3480156200017057600080fd5b506200017b6200063d565b005b3480156200018a57600080fd5b50620001a96004803603810190620001a391906200273a565b6200079d565b604051620001b8919062002b7d565b60405180910390f35b348015620001ce57600080fd5b50620001ed6004803603810190620001e791906200268a565b620007dd565b005b348015620001fc57600080fd5b506200020762000e9b565b60405162000216919062002e4e565b60405180910390f35b3480156200022c57600080fd5b506200024b60048036038101906200024591906200268a565b62000ea1565b6040516200025a919062002c55565b60405180910390f35b3480156200027057600080fd5b506200027b62000f11565b6040516200028a919062002e4e565b60405180910390f35b348015620002a057600080fd5b50620002bf6004803603810190620002b991906200268a565b62000f1e565b005b348015620002ce57600080fd5b50620002d9620016af565b604051620002e8919062002e4e565b60405180910390f35b348015620002fe57600080fd5b506200031d60048036038101906200031791906200268a565b620016b5565b6040516200032c919062002c55565b60405180910390f35b3480156200034257600080fd5b506200034d620016d5565b6040516200035c919062002b7d565b60405180910390f35b3480156200037257600080fd5b506200039160048036038101906200038b91906200273a565b620016f9565b604051620003a0919062002b7d565b60405180910390f35b348015620003b657600080fd5b50620003d56004803603810190620003cf91906200273a565b62001768565b604051620003e4919062002b7d565b60405180910390f35b348015620003fa57600080fd5b5062000405620017a8565b60405162000414919062002e4e565b60405180910390f35b3480156200042a57600080fd5b506200044960048036038101906200044391906200268a565b620017b5565b60405162000458919062002c55565b60405180910390f35b3480156200046e57600080fd5b5062000479620017d5565b60405162000488919062002c31565b60405180910390f35b3480156200049e57600080fd5b50620004bd6004803603810190620004b791906200268a565b62001865565b604051620004cc919062002b7d565b60405180910390f35b348015620004e257600080fd5b50620005016004803603810190620004fb919062002792565b6200198c565b005b3480156200051057600080fd5b506200051b62001b00565b6040516200052a919062002b7d565b60405180910390f35b6200055160048036038101906200054b9190620027d3565b62001b26565b60405162000560919062002b7d565b60405180910390f35b3480156200057657600080fd5b506200059560048036038101906200058f91906200273a565b6200213f565b604051620005a4919062002b7d565b60405180910390f35b348015620005ba57600080fd5b50620005c5620021ae565b604051620005d4919062002b7d565b60405180910390f35b348015620005ea57600080fd5b50620005f5620021d2565b60405162000604919062002e4e565b60405180910390f35b3480156200061a57600080fd5b5062000625620021df565b60405162000634919062002e4e565b60405180910390f35b600160009054906101000a900473ffffffffffffffffffffffffffffffffffffffff1673ffffffffffffffffffffffffffffffffffffffff163373ffffffffffffffffffffffffffffffffffffffff1614806200074f57506200069f620021e5565b73ffffffffffffffffffffffffffffffffffffffff166398fabd3a6040518163ffffffff1660e01b815260040160206040518083038186803b158015620006e557600080fd5b505afa158015620006fa573d6000803e3d6000fd5b505050506040513d601f19601f82011682018060405250810190620007209190620026b6565b73ffffffffffffffffffffffffffffffffffffffff163373ffffffffffffffffffffffffffffffffffffffff16145b6200075957600080fd5b6000600160006101000a81548173ffffffffffffffffffffffffffffffffffffffff021916908373ffffffffffffffffffffffffffffffffffffffff160217905550565b60058181548110620007ae57600080fd5b906000526020600020016000915054906101000a900473ffffffffffffffffffffffffffffffffffffffff1681565b600160009054906101000a900473ffffffffffffffffffffffffffffffffffffffff1673ffffffffffffffffffffffffffffffffffffffff163373ffffffffffffffffffffffffffffffffffffffff161480620008ef57506200083f620021e5565b73ffffffffffffffffffffffffffffffffffffffff166398fabd3a6040518163ffffffff1660e01b815260040160206040518083038186803b1580156200088557600080fd5b505afa1580156200089a573d6000803e3d6000fd5b505050506040513d601f19601f82011682018060405250810190620008c09190620026b6565b73ffffffffffffffffffffffffffffffffffffffff163373ffffffffffffffffffffffffffffffffffffffff16145b620008f957600080fd5b7f000000000000000000000000000000000000000000000000000000000000000073ffffffffffffffffffffffffffffffffffffffff168173ffffffffffffffffffffffffffffffffffffffff1614156200098b576040517f08c379a0000000000000000000000000000000000000000000000000000000008152600401620009829062002d1c565b60405180910390fd5b600062000997620021e5565b73ffffffffffffffffffffffffffffffffffffffff166398fabd3a6040518163ffffffff1660e01b815260040160206040518083038186803b158015620009dd57600080fd5b505afa158015620009f2573d6000803e3d6000fd5b505050506040513d601f19601f8201168201806040525081019062000a189190620026b6565b73ffffffffffffffffffffffffffffffffffffffff16632b49d4256040518163ffffffff1660e01b815260040160206040518083038186803b15801562000a5e57600080fd5b505afa15801562000a73573d6000803e3d6000fd5b505050506040513d601f19601f8201168201806040525081019062000a99919062002766565b90506000151562000aa9620021e5565b73ffffffffffffffffffffffffffffffffffffffff166398fabd3a6040518163ffffffff1660e01b815260040160206040518083038186803b15801562000aef57600080fd5b505afa15801562000b04573d6000803e3d6000fd5b505050506040513d601f19601f8201168201806040525081019062000b2a9190620026b6565b73ffffffffffffffffffffffffffffffffffffffff16638bebea89836040518263ffffffff1660e01b815260040162000b64919062002e4e565b60206040518083038186803b15801562000b7d57600080fd5b505afa15801562000b92573d6000803e3d6000fd5b505050506040513d601f19601f8201168201806040525081019062000bb89190620026e2565b15151462000bfd576040517f08c379a000000000000000000000000000000000000000000000000000000000815260040162000bf49062002e0a565b60405180910390fd5b600062000c0a8362001865565b905060011515600960008373ffffffffffffffffffffffffffffffffffffffff1673ffffffffffffffffffffffffffffffffffffffff16815260200190815260200160002060009054906101000a900460ff1615151462000ca2576040517f08c379a000000000000000000000000000000000000000000000000000000000815260040162000c999062002c72565b60405180910390fd5b60001515600a60008373ffffffffffffffffffffffffffffffffffffffff1673ffffffffffffffffffffffffffffffffffffffff16815260200190815260200160002060009054906101000a900460ff1615151462000d38576040517f08c379a000000000000000000000000000000000000000000000000000000000815260040162000d2f9062002cfa565b60405180910390fd5b6002546003541062000d81576040517f08c379a000000000000000000000000000000000000000000000000000000000815260040162000d789062002c94565b60405180910390fd5b6001600a60008373ffffffffffffffffffffffffffffffffffffffff1673ffffffffffffffffffffffffffffffffffffffff16815260200190815260200160002060006101000a81548160ff021916908315150217905550600160035462000dea919062002ec0565b6003819055506006819080600181540180825580915050600190039060005260206000200160009091909190916101000a81548173ffffffffffffffffffffffffffffffffffffffff021916908373ffffffffffffffffffffffffffffffffffffffff1602179055508073ffffffffffffffffffffffffffffffffffffffff167ff21aa98dc310425cc8b86ef0a55117a759c433acf6c59d51f09ac1782a645cf860405160405180910390a2505050565b60025481565b600060011515600960008473ffffffffffffffffffffffffffffffffffffffff1673ffffffffffffffffffffffffffffffffffffffff16815260200190815260200160002060009054906101000a900460ff161515141562000f07576001905062000f0c565b600090505b919050565b6000600680549050905090565b600160009054906101000a900473ffffffffffffffffffffffffffffffffffffffff1673ffffffffffffffffffffffffffffffffffffffff163373ffffffffffffffffffffffffffffffffffffffff16148062001030575062000f80620021e5565b73ffffffffffffffffffffffffffffffffffffffff166398fabd3a6040518163ffffffff1660e01b815260040160206040518083038186803b15801562000fc657600080fd5b505afa15801562000fdb573d6000803e3d6000fd5b505050506040513d601f19601f82011682018060405250810190620010019190620026b6565b73ffffffffffffffffffffffffffffffffffffffff163373ffffffffffffffffffffffffffffffffffffffff16145b6200103a57600080fd5b7f000000000000000000000000000000000000000000000000000000000000000073ffffffffffffffffffffffffffffffffffffffff168173ffffffffffffffffffffffffffffffffffffffff161415620010cc576040517f08c379a0000000000000000000000000000000000000000000000000000000008152600401620010c39062002d1c565b60405180910390fd5b6000620010d98262001865565b905060001515620010e9620021e5565b73ffffffffffffffffffffffffffffffffffffffff16632f7fa1806040518163ffffffff1660e01b815260040160206040518083038186803b1580156200112f57600080fd5b505afa15801562001144573d6000803e3d6000fd5b505050506040513d601f19601f820116820180604052508101906200116a9190620026b6565b73ffffffffffffffffffffffffffffffffffffffff1663f794062e836040518263ffffffff1660e01b8152600401620011a4919062002b7d565b60206040518083038186803b158015620011bd57600080fd5b505afa158015620011d2573d6000803e3d6000fd5b505050506040513d601f19601f82011682018060405250810190620011f89190620026e2565b1515146200123d576040517f08c379a0000000000000000000000000000000000000000000000000000000008152600401620012349062002cb6565b60405180910390fd5b60011515600a60008373ffffffffffffffffffffffffffffffffffffffff1673ffffffffffffffffffffffffffffffffffffffff16815260200190815260200160002060009054906101000a900460ff16151514620012d3576040517f08c379a0000000000000000000000000000000000000000000000000000000008152600401620012ca9062002e2c565b60405180910390fd5b6000600a60008373ffffffffffffffffffffffffffffffffffffffff1673ffffffffffffffffffffffffffffffffffffffff16815260200190815260200160002060006101000a81548160ff02191690831515021790555060016003546200133c919062002f1d565b60038190555060005b6006805490508110156200156e578173ffffffffffffffffffffffffffffffffffffffff1660068281548110620013a5577f4e487b7100000000000000000000000000000000000000000000000000000000600052603260045260246000fd5b9060005260206000200160009054906101000a900473ffffffffffffffffffffffffffffffffffffffff1673ffffffffffffffffffffffffffffffffffffffff16141562001558576006600160068054905062001403919062002f1d565b815481106200143b577f4e487b7100000000000000000000000000000000000000000000000000000000600052603260045260246000fd5b9060005260206000200160009054906101000a900473ffffffffffffffffffffffffffffffffffffffff1660068281548110620014a1577f4e487b7100000000000000000000000000000000000000000000000000000000600052603260045260246000fd5b9060005260206000200160006101000a81548173ffffffffffffffffffffffffffffffffffffffff021916908373ffffffffffffffffffffffffffffffffffffffff160217905550600680548062001522577f4e487b7100000000000000000000000000000000000000000000000000000000600052603160045260246000fd5b6001900381819060005260206000200160006101000a81549073ffffffffffffffffffffffffffffffffffffffff021916905590555b8080620015659062002fc3565b91505062001345565b5062001579620021e5565b73ffffffffffffffffffffffffffffffffffffffff1663b93ec54b6040518163ffffffff1660e01b815260040160206040518083038186803b158015620015bf57600080fd5b505afa158015620015d4573d6000803e3d6000fd5b505050506040513d601f19601f82011682018060405250810190620015fa9190620026b6565b73ffffffffffffffffffffffffffffffffffffffff166335a7ede6836040518263ffffffff1660e01b815260040162001634919062002b7d565b600060405180830381600087803b1580156200164f57600080fd5b505af115801562001664573d6000803e3d6000fd5b505050508073ffffffffffffffffffffffffffffffffffffffff167fe0e122d7131ec0f49556c4f88f13ed2b7f6624d0b88edd40870fa8715cab8b1c60405160405180910390a25050565b60035481565b600a6020528060005260406000206000915054906101000a900460ff1681565b7f000000000000000000000000000000000000000000000000000000000000000081565b60006004828154811062001736577f4e487b7100000000000000000000000000000000000000000000000000000000600052603260045260246000fd5b9060005260206000200160009054906101000a900473ffffffffffffffffffffffffffffffffffffffff169050919050565b600481815481106200177957600080fd5b906000526020600020016000915054906101000a900473ffffffffffffffffffffffffffffffffffffffff1681565b6000600580549050905090565b60096020528060005260406000206000915054906101000a900460ff1681565b606060068054806020026020016040519081016040528092919081815260200182805480156200185b57602002820191906000526020600020905b8160009054906101000a900473ffffffffffffffffffffffffffffffffffffffff1673ffffffffffffffffffffffffffffffffffffffff168152602001906001019080831162001810575b5050505050905090565b60008073ffffffffffffffffffffffffffffffffffffffff168273ffffffffffffffffffffffffffffffffffffffff1614156200192457600860007f000000000000000000000000000000000000000000000000000000000000000073ffffffffffffffffffffffffffffffffffffffff1673ffffffffffffffffffffffffffffffffffffffff16815260200190815260200160002060009054906101000a900473ffffffffffffffffffffffffffffffffffffffff16905062001987565b600860008373ffffffffffffffffffffffffffffffffffffffff1673ffffffffffffffffffffffffffffffffffffffff16815260200190815260200160002060009054906101000a900473ffffffffffffffffffffffffffffffffffffffff1690505b919050565b600160009054906101000a900473ffffffffffffffffffffffffffffffffffffffff1673ffffffffffffffffffffffffffffffffffffffff163373ffffffffffffffffffffffffffffffffffffffff16148062001a9e5750620019ee620021e5565b73ffffffffffffffffffffffffffffffffffffffff166398fabd3a6040518163ffffffff1660e01b815260040160206040518083038186803b15801562001a3457600080fd5b505afa15801562001a49573d6000803e3d6000fd5b505050506040513d601f19601f8201168201806040525081019062001a6f9190620026b6565b73ffffffffffffffffffffffffffffffffffffffff163373ffffffffffffffffffffffffffffffffffffffff16145b62001aa857600080fd5b6000821162001aee576040517f08c379a000000000000000000000000000000000000000000000000000000000815260040162001ae59062002d1c565b60405180910390fd5b81600281905550806007819055505050565b600160009054906101000a900473ffffffffffffffffffffffffffffffffffffffff1681565b60007f000000000000000000000000000000000000000000000000000000000000000073ffffffffffffffffffffffffffffffffffffffff168273ffffffffffffffffffffffffffffffffffffffff16141562001bba576040517f08c379a000000000000000000000000000000000000000000000000000000000815260040162001bb19062002d1c565b60405180910390fd5b600073ffffffffffffffffffffffffffffffffffffffff1662001bdd8362001865565b73ffffffffffffffffffffffffffffffffffffffff161462001c36576040517f08c379a000000000000000000000000000000000000000000000000000000000815260040162001c2d9062002d60565b60405180910390fd5b60008311801562001c4957506007548410155b62001c8b576040517f08c379a000000000000000000000000000000000000000000000000000000000815260040162001c829062002d82565b60405180910390fd5b600080839050600073ffffffffffffffffffffffffffffffffffffffff168473ffffffffffffffffffffffffffffffffffffffff16141562001cf0577f0000000000000000000000000000000000000000000000000000000000000000905062001e14565b7f000000000000000000000000000000000000000000000000000000000000000073ffffffffffffffffffffffffffffffffffffffff168473ffffffffffffffffffffffffffffffffffffffff161415801562001dd1575060128473ffffffffffffffffffffffffffffffffffffffff1663313ce5676040518163ffffffff1660e01b815260040160206040518083038186803b15801562001d9157600080fd5b505afa15801562001da6573d6000803e3d6000fd5b505050506040513d601f19601f8201168201806040525081019062001dcc919062002829565b60ff16145b62001e13576040517f08c379a000000000000000000000000000000000000000000000000000000000815260040162001e0a9062002dc6565b60405180910390fd5b5b7f00000000000000000000000000000000000000000000000000000000000000008160405162001e4490620025db565b62001e5192919062002b9a565b604051809103906000f08015801562001e6e573d6000803e3d6000fd5b50915081925082600860008373ffffffffffffffffffffffffffffffffffffffff1673ffffffffffffffffffffffffffffffffffffffff16815260200190815260200160002060006101000a81548173ffffffffffffffffffffffffffffffffffffffff021916908373ffffffffffffffffffffffffffffffffffffffff16021790555062001f1f7f000000000000000000000000000000000000000000000000000000000000000087856200228e565b62001f2c8486856200228e565b6004839080600181540180825580915050600190039060005260206000200160009091909190916101000a81548173ffffffffffffffffffffffffffffffffffffffff021916908373ffffffffffffffffffffffffffffffffffffffff1602179055506005819080600181540180825580915050600190039060005260206000200160009091909190916101000a81548173ffffffffffffffffffffffffffffffffffffffff021916908373ffffffffffffffffffffffffffffffffffffffff1602179055506001600960008573ffffffffffffffffffffffffffffffffffffffff1673ffffffffffffffffffffffffffffffffffffffff16815260200190815260200160002060006101000a81548160ff0219169083151502179055508273ffffffffffffffffffffffffffffffffffffffff168173ffffffffffffffffffffffffffffffffffffffff167fdbd2a1ea6808362e6adbec4db4969cbc11e3b0b28fb6c74cb342defaaf1daada60405160405180910390a38273ffffffffffffffffffffffffffffffffffffffff166386d5f618336040518263ffffffff1660e01b8152600401620020df919062002b7d565b602060405180830381600087803b158015620020fa57600080fd5b505af11580156200210f573d6000803e3d6000fd5b505050506040513d601f19601f8201168201806040525081019062002135919062002766565b5050509392505050565b6000600582815481106200217c577f4e487b7100000000000000000000000000000000000000000000000000000000600052603260045260246000fd5b9060005260206000200160009054906101000a900473ffffffffffffffffffffffffffffffffffffffff169050919050565b7f000000000000000000000000000000000000000000000000000000000000000081565b6000600480549050905090565b60075481565b60007f000000000000000000000000000000000000000000000000000000000000000073ffffffffffffffffffffffffffffffffffffffff166398fabd3a6040518163ffffffff1660e01b815260040160206040518083038186803b1580156200224e57600080fd5b505afa15801562002263573d6000803e3d6000fd5b505050506040513d601f19601f820116820180604052508101906200228991906200270e565b905090565b60026000541415620022d7576040517f08c379a0000000000000000000000000000000000000000000000000000000008152600401620022ce9062002de8565b60405180910390fd5b60026000819055506000821162002325576040517f08c379a00000000000000000000000000000000000000000000000000000000081526004016200231c9062002da4565b60405180910390fd5b600073ffffffffffffffffffffffffffffffffffffffff168373ffffffffffffffffffffffffffffffffffffffff161415620024f6573482146200236857600080fd5b60007f000000000000000000000000000000000000000000000000000000000000000073ffffffffffffffffffffffffffffffffffffffff1683604051620023b09062002b66565b60006040518083038185875af1925050503d8060008114620023ef576040519150601f19603f3d011682016040523d82523d6000602084013e620023f4565b606091505b50509050806200243b576040517f08c379a0000000000000000000000000000000000000000000000000000000008152600401620024329062002cd8565b60405180910390fd5b7f000000000000000000000000000000000000000000000000000000000000000073ffffffffffffffffffffffffffffffffffffffff1663a9059cbb83856040518363ffffffff1660e01b81526004016200249892919062002c04565b602060405180830381600087803b158015620024b357600080fd5b505af1158015620024c8573d6000803e3d6000fd5b505050506040513d601f19601f82011682018060405250810190620024ee9190620026e2565b5050620025ce565b8273ffffffffffffffffffffffffffffffffffffffff166323b872dd3383856040518463ffffffff1660e01b8152600401620025359392919062002bc7565b602060405180830381600087803b1580156200255057600080fd5b505af115801562002565573d6000803e3d6000fd5b505050506040513d601f19601f820116820180604052508101906200258b9190620026e2565b620025cd576040517f08c379a0000000000000000000000000000000000000000000000000000000008152600401620025c49062002d3e565b60405180910390fd5b5b6001600081905550505050565b6173ca806200330483390190565b600081359050620025fa8162003281565b92915050565b600081519050620026118162003281565b92915050565b60008151905062002628816200329b565b92915050565b6000815190506200263f81620032b5565b92915050565b6000813590506200265681620032cf565b92915050565b6000815190506200266d81620032cf565b92915050565b6000815190506200268481620032e9565b92915050565b6000602082840312156200269d57600080fd5b6000620026ad84828501620025e9565b91505092915050565b600060208284031215620026c957600080fd5b6000620026d98482850162002600565b91505092915050565b600060208284031215620026f557600080fd5b6000620027058482850162002617565b91505092915050565b6000602082840312156200272157600080fd5b600062002731848285016200262e565b91505092915050565b6000602082840312156200274d57600080fd5b60006200275d8482850162002645565b91505092915050565b6000602082840312156200277957600080fd5b600062002789848285016200265c565b91505092915050565b60008060408385031215620027a657600080fd5b6000620027b68582860162002645565b9250506020620027c98582860162002645565b9150509250929050565b600080600060608486031215620027e957600080fd5b6000620027f98682870162002645565b93505060206200280c8682870162002645565b92505060406200281f86828701620025e9565b9150509250925092565b6000602082840312156200283c57600080fd5b60006200284c8482850162002673565b91505092915050565b60006200286383836200286f565b60208301905092915050565b6200287a8162002f58565b82525050565b6200288b8162002f58565b82525050565b60006200289e8262002e7b565b620028aa818562002e93565b9350620028b78362002e6b565b8060005b83811015620028ee578151620028d2888262002855565b9750620028df8362002e86565b925050600181019050620028bb565b5085935050505092915050565b620029068162002f6c565b82525050565b60006200291b60058362002eaf565b9150620029288262003040565b602082019050919050565b600062002942600a8362002eaf565b91506200294f8262003069565b602082019050919050565b60006200296960098362002eaf565b9150620029768262003092565b602082019050919050565b60006200299060058362002eaf565b91506200299d82620030bb565b602082019050919050565b6000620029b760098362002eaf565b9150620029c482620030e4565b602082019050919050565b6000620029de60068362002eaf565b9150620029eb826200310d565b602082019050919050565b600062002a0560098362002eaf565b915062002a128262003136565b602082019050919050565b600062002a2c60048362002eaf565b915062002a39826200315f565b602082019050919050565b600062002a5360008362002ea4565b915062002a608262003188565b600082019050919050565b600062002a7a60048362002eaf565b915062002a87826200318b565b602082019050919050565b600062002aa160048362002eaf565b915062002aae82620031b4565b602082019050919050565b600062002ac860098362002eaf565b915062002ad582620031dd565b602082019050919050565b600062002aef601f8362002eaf565b915062002afc8262003206565b602082019050919050565b600062002b1660048362002eaf565b915062002b23826200322f565b602082019050919050565b600062002b3d60088362002eaf565b915062002b4a8262003258565b602082019050919050565b62002b608162002fac565b82525050565b600062002b738262002a44565b9150819050919050565b600060208201905062002b94600083018462002880565b92915050565b600060408201905062002bb1600083018562002880565b62002bc0602083018462002880565b9392505050565b600060608201905062002bde600083018662002880565b62002bed602083018562002880565b62002bfc604083018462002b55565b949350505050565b600060408201905062002c1b600083018562002880565b62002c2a602083018462002b55565b9392505050565b6000602082019050818103600083015262002c4d818462002891565b905092915050565b600060208201905062002c6c6000830184620028fb565b92915050565b6000602082019050818103600083015262002c8d816200290c565b9050919050565b6000602082019050818103600083015262002caf8162002933565b9050919050565b6000602082019050818103600083015262002cd1816200295a565b9050919050565b6000602082019050818103600083015262002cf38162002981565b9050919050565b6000602082019050818103600083015262002d1581620029a8565b9050919050565b6000602082019050818103600083015262002d3781620029cf565b9050919050565b6000602082019050818103600083015262002d5981620029f6565b9050919050565b6000602082019050818103600083015262002d7b8162002a1d565b9050919050565b6000602082019050818103600083015262002d9d8162002a6b565b9050919050565b6000602082019050818103600083015262002dbf8162002a92565b9050919050565b6000602082019050818103600083015262002de18162002ab9565b9050919050565b6000602082019050818103600083015262002e038162002ae0565b9050919050565b6000602082019050818103600083015262002e258162002b07565b9050919050565b6000602082019050818103600083015262002e478162002b2e565b9050919050565b600060208201905062002e65600083018462002b55565b92915050565b6000819050602082019050919050565b600081519050919050565b6000602082019050919050565b600082825260208201905092915050565b600081905092915050565b600082825260208201905092915050565b600062002ecd8262002fac565b915062002eda8362002fac565b9250827fffffffffffffffffffffffffffffffffffffffffffffffffffffffffffffffff0382111562002f125762002f1162003011565b5b828201905092915050565b600062002f2a8262002fac565b915062002f378362002fac565b92508282101562002f4d5762002f4c62003011565b5b828203905092915050565b600062002f658262002f8c565b9050919050565b60008115159050919050565b600062002f858262002f58565b9050919050565b600073ffffffffffffffffffffffffffffffffffffffff82169050919050565b6000819050919050565b600060ff82169050919050565b600062002fd08262002fac565b91507fffffffffffffffffffffffffffffffffffffffffffffffffffffffffffffffff82141562003006576200300562003011565b5b600182019050919050565b7f4e487b7100000000000000000000000000000000000000000000000000000000600052601160045260246000fd5b7f21504f4f4c000000000000000000000000000000000000000000000000000000600082015250565b7f6d61784375726174656400000000000000000000000000000000000000000000600082015250565b7f2144454c49535445440000000000000000000000000000000000000000000000600082015250565b7f2173656e64000000000000000000000000000000000000000000000000000000600082015250565b7f6973437572617465640000000000000000000000000000000000000000000000600082015250565b7f2156414c49440000000000000000000000000000000000000000000000000000600082015250565b7f217472616e736665720000000000000000000000000000000000000000000000600082015250565b7f214e455700000000000000000000000000000000000000000000000000000000600082015250565b50565b7f214d494e00000000000000000000000000000000000000000000000000000000600082015250565b7f2147415300000000000000000000000000000000000000000000000000000000600082015250565b7f21444543494d414c530000000000000000000000000000000000000000000000600082015250565b7f5265656e7472616e637947756172643a207265656e7472616e742063616c6c00600082015250565b7f4f50454e00000000000000000000000000000000000000000000000000000000600082015250565b7f2143555241544544000000000000000000000000000000000000000000000000600082015250565b6200328c8162002f58565b81146200329857600080fd5b50565b620032a68162002f6c565b8114620032b257600080fd5b50565b620032c08162002f78565b8114620032cc57600080fd5b50565b620032da8162002fac565b8114620032e657600080fd5b50565b620032f48162002fb6565b81146200330057600080fd5b5056fe6101006040523480156200001257600080fd5b50604051620073ca380380620073ca833981810160405281019062000038919062000536565b6001600081905550600073ffffffffffffffffffffffffffffffffffffffff168273ffffffffffffffffffffffffffffffffffffffff161415620000b3576040517f08c379a0000000000000000000000000000000000000000000000000000000008152600401620000aa9062000642565b60405180910390fd5b600073ffffffffffffffffffffffffffffffffffffffff168173ffffffffffffffffffffffffffffffffffffffff16141562000126576040517f08c379a00000000000000000000000000000000000000000000000000000000081526004016200011d9062000642565b60405180910390fd5b8173ffffffffffffffffffffffffffffffffffffffff1660808173ffffffffffffffffffffffffffffffffffffffff1660601b815250508073ffffffffffffffffffffffffffffffffffffffff1660a08173ffffffffffffffffffffffffffffffffffffffff1660601b8152505060006040518060400160405280601481526020017f2d5370617274616e50726f746f636f6c506f6f6c000000000000000000000000815250905060006040518060400160405280600481526020017f2d5350500000000000000000000000000000000000000000000000000000000081525090508273ffffffffffffffffffffffffffffffffffffffff166306fdde036040518163ffffffff1660e01b815260040160006040518083038186803b1580156200024f57600080fd5b505afa15801562000264573d6000803e3d6000fd5b505050506040513d6000823e3d601f19601f820116820180604052508101906200028f919062000577565b82604051602001620002a39291906200061a565b604051602081830303815290604052600d9080519060200190620002c9929190620003fd565b508273ffffffffffffffffffffffffffffffffffffffff166395d89b416040518163ffffffff1660e01b815260040160006040518083038186803b1580156200031157600080fd5b505afa15801562000326573d6000803e3d6000fd5b505050506040513d6000823e3d601f19601f8201168201806040525081019062000351919062000577565b81604051602001620003659291906200061a565b604051602081830303815290604052600e90805190602001906200038b929190620003fd565b50601260ff1660c08160ff1660f81b815250504260e081815250506109c4600181905550610bb860058190555069152d02c7e14af680000060028190555042600481905550620151806007819055506000600a81905550603c600881905550613840600b819055505050505062000872565b8280546200040b9062000754565b90600052602060002090601f0160209004810192826200042f57600085556200047b565b82601f106200044a57805160ff19168380011785556200047b565b828001600101855582156200047b579182015b828111156200047a5782518255916020019190600101906200045d565b5b5090506200048a91906200048e565b5090565b5b80821115620004a95760008160009055506001016200048f565b5090565b6000620004c4620004be846200068d565b62000664565b905082815260208101848484011115620004dd57600080fd5b620004ea8482856200071e565b509392505050565b600081519050620005038162000858565b92915050565b600082601f8301126200051b57600080fd5b81516200052d848260208601620004ad565b91505092915050565b600080604083850312156200054a57600080fd5b60006200055a85828601620004f2565b92505060206200056d85828601620004f2565b9150509250929050565b6000602082840312156200058a57600080fd5b600082015167ffffffffffffffff811115620005a557600080fd5b620005b38482850162000509565b91505092915050565b6000620005c982620006c3565b620005d58185620006df565b9350620005e78185602086016200071e565b80840191505092915050565b600062000602600583620006ce565b91506200060f826200082f565b602082019050919050565b6000620006288285620005bc565b9150620006368284620005bc565b91508190509392505050565b600060208201905081810360008301526200065d81620005f3565b9050919050565b60006200067062000683565b90506200067e82826200078a565b919050565b6000604051905090565b600067ffffffffffffffff821115620006ab57620006aa620007ef565b5b620006b6826200081e565b9050602081019050919050565b600081519050919050565b600082825260208201905092915050565b600081905092915050565b6000620006f782620006fe565b9050919050565b600073ffffffffffffffffffffffffffffffffffffffff82169050919050565b60005b838110156200073e57808201518184015260208101905062000721565b838111156200074e576000848401525b50505050565b600060028204905060018216806200076d57607f821691505b60208210811415620007845762000783620007c0565b5b50919050565b62000795826200081e565b810181811067ffffffffffffffff82111715620007b757620007b6620007ef565b5b80604052505050565b7f4e487b7100000000000000000000000000000000000000000000000000000000600052602260045260246000fd5b7f4e487b7100000000000000000000000000000000000000000000000000000000600052604160045260246000fd5b6000601f19601f8301169050919050565b7f215a45524f000000000000000000000000000000000000000000000000000000600082015250565b6200086381620006ea565b81146200086f57600080fd5b50565b60805160601c60a05160601c60c05160f81c60e051616a89620009416000396000818161255c0152612a4c01526000610fae015260008181610ceb01528181610dd101528181611c7401528181612c1a01528181612dac0152818161372d01528181613f3f015281816147d701528181614d7201526152da015260008181610c9601528181610d7d01528181610e14015281816120f101528181612b6b01528181612cc0015281816134b6015281816137bf0152818161472801528181614ccc01526150310152616a896000f3fe608060405234801561001057600080fd5b506004361061027e5760003560e01c8063752d77931161015c578063bc5dedc9116100ce578063ec342ad011610087578063ec342ad0146107f6578063eec7faa114610814578063f0337cdc14610832578063f1bbdef214610862578063fb19536314610893578063fff6cae9146108af5761027e565b8063bc5dedc91461070a578063cbbcf8021461073b578063d98c4a4614610759578063dbfc5a0414610777578063dd62ed3e146107a8578063e1eddde3146107d85761027e565b806399d786ca1161012057806399d786ca146106365780639d3f87e214610654578063a457c2d714610670578063a7f0b3de146106a0578063a9059cbb146106be578063ba8e3edd146106ee5761027e565b8063752d7793146105905780637ec3eae5146105ae57806382bfefc8146105ca57806386d5f618146105e857806395d89b41146106185761027e565b806346c67843116101f557806350f9844a116101b957806350f9844a146104b85780635f83e5d5146104d657806361cc24bb146104f457806362a5af3b1461052457806370a082311461054257806370f93cdf146105725761027e565b806346c6784314610414578063474e7302146104325780634864d1401461044e5780635022989b1461046c57806350e04598146104885761027e565b80632783e4a9116102475780632783e4a91461033d57806328ea0adc1461036e578063313ce5671461038c57806333ca78e4146103aa57806339509351146103c857806342966c68146103f85761027e565b8062aea7451461028357806306fdde03146102a1578063095ea7b3146102bf57806318160ddd146102ef57806323b872dd1461030d575b600080fd5b61028b6108b9565b60405161029891906162ec565b60405180910390f35b6102a96108bf565b6040516102b6919061608a565b60405180910390f35b6102d960048036038101906102d49190615c37565b610951565b6040516102e6919061606f565b60405180910390f35b6102f7610968565b60405161030491906162ec565b60405180910390f35b61032760048036038101906103229190615be8565b61096e565b604051610334919061606f565b60405180910390f35b61035760048036038101906103529190615bac565b610a61565b604051610365929190616367565b60405180910390f35b610376610fa6565b60405161038391906162ec565b60405180910390f35b610394610fac565b6040516103a1919061645f565b60405180910390f35b6103b2610fd0565b6040516103bf91906162ec565b60405180910390f35b6103e260048036038101906103dd9190615c37565b610fd6565b6040516103ef919061606f565b60405180910390f35b610412600480360381019061040d9190615cc5565b611074565b005b61041c611213565b60405161042991906162ec565b60405180910390f35b61044c60048036038101906104479190615cc5565b611219565b005b610456611498565b60405161046391906162ec565b60405180910390f35b61048660048036038101906104819190615b5a565b61149e565b005b6104a2600480360381019061049d9190615b5a565b611775565b6040516104af919061606f565b60405180910390f35b6104c0611795565b6040516104cd91906162ec565b60405180910390f35b6104de61179b565b6040516104eb91906162ec565b60405180910390f35b61050e60048036038101906105099190615b5a565b6117a1565b60405161051b91906162ec565b60405180910390f35b61052c611980565b604051610539919061606f565b60405180910390f35b61055c60048036038101906105579190615b5a565b611993565b60405161056991906162ec565b60405180910390f35b61057a6119dc565b60405161058791906162ec565b60405180910390f35b6105986119e2565b6040516105a591906162ec565b60405180910390f35b6105c860048036038101906105c39190615cc5565b6119e8565b005b6105d2611c72565b6040516105df9190616002565b60405180910390f35b61060260048036038101906105fd9190615b5a565b611c96565b60405161060f91906162ec565b60405180910390f35b6106206121a2565b60405161062d919061608a565b60405180910390f35b61063e612234565b60405161064b91906162ec565b60405180910390f35b61066e60048036038101906106699190615cc5565b61223a565b005b61068a60048036038101906106859190615c37565b612474565b604051610697919061606f565b60405180910390f35b6106a861255a565b6040516106b591906162ec565b60405180910390f35b6106d860048036038101906106d39190615c37565b61257e565b6040516106e5919061606f565b60405180910390f35b61070860048036038101906107039190615cc5565b612595565b005b610724600480360381019061071f9190615b5a565b612814565b604051610732929190616367565b60405180910390f35b610743612eef565b60405161075091906162ec565b60405180910390f35b610761612ef5565b60405161076e91906162ec565b60405180910390f35b610791600480360381019061078c9190615b5a565b612efb565b60405161079f929190616367565b60405180910390f35b6107c260048036038101906107bd9190615bac565b613602565b6040516107cf91906162ec565b60405180910390f35b6107e0613689565b6040516107ed9190616002565b60405180910390f35b6107fe6137bd565b60405161080b9190616002565b60405180910390f35b61081c6137e1565b60405161082991906162ec565b60405180910390f35b61084c60048036038101906108479190615cc5565b6137e7565b60405161085991906162ec565b60405180910390f35b61087c60048036038101906108779190615b5a565b61380b565b60405161088a929190616367565b60405180910390f35b6108ad60048036038101906108a89190615cc5565b614243565b005b6108b76144f6565b005b600a5481565b6060600d80546108ce90616645565b80601f01602080910402602001604051908101604052809291908181526020018280546108fa90616645565b80156109475780601f1061091c57610100808354040283529160200191610947565b820191906000526020600020905b81548152906001019060200180831161092a57829003601f168201915b5050505050905090565b600061095e338484614886565b6001905092915050565b600f5481565b600061097b848484614a51565b6000601160008673ffffffffffffffffffffffffffffffffffffffff1673ffffffffffffffffffffffffffffffffffffffff16815260200190815260200160002060003373ffffffffffffffffffffffffffffffffffffffff1673ffffffffffffffffffffffffffffffffffffffff16815260200190815260200160002054905082811015610a3f576040517f08c379a0000000000000000000000000000000000000000000000000000000008152600401610a36906160ec565b60405180910390fd5b610a5585338584610a509190616577565b614886565b60019150509392505050565b600080610a6c614cc8565b73ffffffffffffffffffffffffffffffffffffffff166332fe7b266040518163ffffffff1660e01b815260040160206040518083038186803b158015610ab157600080fd5b505afa158015610ac5573d6000803e3d6000fd5b505050506040513d601f19601f82011682018060405250810190610ae99190615b83565b73ffffffffffffffffffffffffffffffffffffffff163373ffffffffffffffffffffffffffffffffffffffff161480610bd15750610b25614cc8565b73ffffffffffffffffffffffffffffffffffffffff16632ab24e496040518163ffffffff1660e01b815260040160206040518083038186803b158015610b6a57600080fd5b505afa158015610b7e573d6000803e3d6000fd5b505050506040513d601f19601f82011682018060405250810190610ba29190615b83565b73ffffffffffffffffffffffffffffffffffffffff163373ffffffffffffffffffffffffffffffffffffffff16145b80610c8b5750610bdf614cc8565b73ffffffffffffffffffffffffffffffffffffffff1663b99b0a0c6040518163ffffffff1660e01b815260040160206040518083038186803b158015610c2457600080fd5b505afa158015610c38573d6000803e3d6000fd5b505050506040513d601f19601f82011682018060405250810190610c5c9190615b83565b73ffffffffffffffffffffffffffffffffffffffff163373ffffffffffffffffffffffffffffffffffffffff16145b610c9457600080fd5b7f000000000000000000000000000000000000000000000000000000000000000073ffffffffffffffffffffffffffffffffffffffff168473ffffffffffffffffffffffffffffffffffffffff161480610d3957507f000000000000000000000000000000000000000000000000000000000000000073ffffffffffffffffffffffffffffffffffffffff168473ffffffffffffffffffffffffffffffffffffffff16145b610d78576040517f08c379a0000000000000000000000000000000000000000000000000000000008152600401610d6f9061614c565b60405180910390fd5b6000807f000000000000000000000000000000000000000000000000000000000000000073ffffffffffffffffffffffffffffffffffffffff168673ffffffffffffffffffffffffffffffffffffffff161415610e12577f00000000000000000000000000000000000000000000000000000000000000009150610dfa614d6d565b9050610e0581614e43565b8094508195505050610e51565b7f00000000000000000000000000000000000000000000000000000000000000009150610e3d61502c565b9050610e4881615102565b80945081955050505b8473ffffffffffffffffffffffffffffffffffffffff168673ffffffffffffffffffffffffffffffffffffffff168373ffffffffffffffffffffffffffffffffffffffff167fc9163c3bdf7263acf1bb3d24072cc7da025f7181c31e2edc7e1673edf5e0ca32848888604051610ec993929190616390565b60405180910390a48573ffffffffffffffffffffffffffffffffffffffff1663a9059cbb86866040518363ffffffff1660e01b8152600401610f0c929190616046565b602060405180830381600087803b158015610f2657600080fd5b505af1158015610f3a573d6000803e3d6000fd5b505050506040513d601f19601f82011682018060405250810190610f5e9190615c73565b610f9d576040517f08c379a0000000000000000000000000000000000000000000000000000000008152600401610f949061622c565b60405180910390fd5b50509250929050565b600c5481565b7f000000000000000000000000000000000000000000000000000000000000000081565b60015481565b600061106a338484601160003373ffffffffffffffffffffffffffffffffffffffff1673ffffffffffffffffffffffffffffffffffffffff16815260200190815260200160002060008873ffffffffffffffffffffffffffffffffffffffff1673ffffffffffffffffffffffffffffffffffffffff168152602001908152602001600020546110659190616496565b614886565b6001905092915050565b61107c613689565b73ffffffffffffffffffffffffffffffffffffffff163373ffffffffffffffffffffffffffffffffffffffff16146110b357600080fd5b6110bb614cc8565b73ffffffffffffffffffffffffffffffffffffffff1663b93ec54b6040518163ffffffff1660e01b815260040160206040518083038186803b15801561110057600080fd5b505afa158015611114573d6000803e3d6000fd5b505050506040513d601f19601f820116820180604052508101906111389190615b83565b73ffffffffffffffffffffffffffffffffffffffff16635e0237ea61115b613689565b6040518263ffffffff1660e01b81526004016111779190616002565b60206040518083038186803b15801561118f57600080fd5b505afa1580156111a3573d6000803e3d6000fd5b505050506040513d601f19601f820116820180604052508101906111c79190615c73565b611206576040517f08c379a00000000000000000000000000000000000000000000000000000000081526004016111fd9061616c565b60405180910390fd5b611210338261539b565b50565b60085481565b611221614cc8565b73ffffffffffffffffffffffffffffffffffffffff166332fe7b266040518163ffffffff1660e01b815260040160206040518083038186803b15801561126657600080fd5b505afa15801561127a573d6000803e3d6000fd5b505050506040513d601f19601f8201168201806040525081019061129e9190615b83565b73ffffffffffffffffffffffffffffffffffffffff163373ffffffffffffffffffffffffffffffffffffffff16148061138657506112da614cc8565b73ffffffffffffffffffffffffffffffffffffffff16632ab24e496040518163ffffffff1660e01b815260040160206040518083038186803b15801561131f57600080fd5b505afa158015611333573d6000803e3d6000fd5b505050506040513d601f19601f820116820180604052508101906113579190615b83565b73ffffffffffffffffffffffffffffffffffffffff163373ffffffffffffffffffffffffffffffffffffffff16145b806114405750611394614cc8565b73ffffffffffffffffffffffffffffffffffffffff1663b99b0a0c6040518163ffffffff1660e01b815260040160206040518083038186803b1580156113d957600080fd5b505afa1580156113ed573d6000803e3d6000fd5b505050506040513d601f19601f820116820180604052508101906114119190615b83565b73ffffffffffffffffffffffffffffffffffffffff163373ffffffffffffffffffffffffffffffffffffffff16145b61144957600080fd5b610bb881111561148e576040517f08c379a0000000000000000000000000000000000000000000000000000000008152600401611485906160cc565b60405180910390fd5b8060018190555050565b60135481565b6114a6614cc8565b73ffffffffffffffffffffffffffffffffffffffff166398fabd3a6040518163ffffffff1660e01b815260040160206040518083038186803b1580156114eb57600080fd5b505afa1580156114ff573d6000803e3d6000fd5b505050506040513d601f19601f820116820180604052508101906115239190615b83565b73ffffffffffffffffffffffffffffffffffffffff163373ffffffffffffffffffffffffffffffffffffffff16148061160b575061155f614cc8565b73ffffffffffffffffffffffffffffffffffffffff166332fe7b266040518163ffffffff1660e01b815260040160206040518083038186803b1580156115a457600080fd5b505afa1580156115b8573d6000803e3d6000fd5b505050506040513d601f19601f820116820180604052508101906115dc9190615b83565b73ffffffffffffffffffffffffffffffffffffffff163373ffffffffffffffffffffffffffffffffffffffff16145b806116c55750611619614cc8565b73ffffffffffffffffffffffffffffffffffffffff16632ab24e496040518163ffffffff1660e01b815260040160206040518083038186803b15801561165e57600080fd5b505afa158015611672573d6000803e3d6000fd5b505050506040513d601f19601f820116820180604052508101906116969190615b83565b73ffffffffffffffffffffffffffffffffffffffff163373ffffffffffffffffffffffffffffffffffffffff16145b6116ce57600080fd5b601260008273ffffffffffffffffffffffffffffffffffffffff1673ffffffffffffffffffffffffffffffffffffffff16815260200190815260200160002060009054906101000a900460ff1615601260008373ffffffffffffffffffffffffffffffffffffffff1673ffffffffffffffffffffffffffffffffffffffff16815260200190815260200160002060006101000a81548160ff02191690831515021790555050565b60126020528060005260406000206000915054906101000a900460ff1681565b60095481565b60165481565b6000806127106001546014546117b7919061651d565b6117c191906164ec565b90506000818473ffffffffffffffffffffffffffffffffffffffff166318160ddd6040518163ffffffff1660e01b815260040160206040518083038186803b15801561180c57600080fd5b505afa158015611820573d6000803e3d6000fd5b505050506040513d601f19601f820116820180604052508101906118449190615cee565b1061185257600092506118de565b8373ffffffffffffffffffffffffffffffffffffffff166318160ddd6040518163ffffffff1660e01b815260040160206040518083038186803b15801561189857600080fd5b505afa1580156118ac573d6000803e3d6000fd5b505050506040513d601f19601f820116820180604052508101906118d09190615cee565b826118db9190616577565b90505b6000600a5414156119225742600a8190555042600c819055506008548161190591906164ec565b600981905550600954600b5461191b919061651d565b9250611946565b6000600a54426119329190616577565b905060095481611942919061651d565b9350505b600854600c546119569190616496565b421115611979576008548161196b91906164ec565b60098190555042600c819055505b5050919050565b600660009054906101000a900460ff1681565b6000601060008373ffffffffffffffffffffffffffffffffffffffff1673ffffffffffffffffffffffffffffffffffffffff168152602001908152602001600020549050919050565b60075481565b60175481565b6119f0614cc8565b73ffffffffffffffffffffffffffffffffffffffff166332fe7b266040518163ffffffff1660e01b815260040160206040518083038186803b158015611a3557600080fd5b505afa158015611a49573d6000803e3d6000fd5b505050506040513d601f19601f82011682018060405250810190611a6d9190615b83565b73ffffffffffffffffffffffffffffffffffffffff163373ffffffffffffffffffffffffffffffffffffffff161480611b555750611aa9614cc8565b73ffffffffffffffffffffffffffffffffffffffff16632ab24e496040518163ffffffff1660e01b815260040160206040518083038186803b158015611aee57600080fd5b505afa158015611b02573d6000803e3d6000fd5b505050506040513d601f19601f82011682018060405250810190611b269190615b83565b73ffffffffffffffffffffffffffffffffffffffff163373ffffffffffffffffffffffffffffffffffffffff16145b80611c0f5750611b63614cc8565b73ffffffffffffffffffffffffffffffffffffffff1663b99b0a0c6040518163ffffffff1660e01b815260040160206040518083038186803b158015611ba857600080fd5b505afa158015611bbc573d6000803e3d6000fd5b505050506040513d601f19601f82011682018060405250810190611be09190615b83565b73ffffffffffffffffffffffffffffffffffffffff163373ffffffffffffffffffffffffffffffffffffffff16145b611c1857600080fd5b60028054611c26919061651d565b811115611c68576040517f08c379a0000000000000000000000000000000000000000000000000000000008152600401611c5f906160cc565b60405180910390fd5b8060028190555050565b7f000000000000000000000000000000000000000000000000000000000000000081565b6000611ca0614cc8565b73ffffffffffffffffffffffffffffffffffffffff166332fe7b266040518163ffffffff1660e01b815260040160206040518083038186803b158015611ce557600080fd5b505afa158015611cf9573d6000803e3d6000fd5b505050506040513d601f19601f82011682018060405250810190611d1d9190615b83565b73ffffffffffffffffffffffffffffffffffffffff163373ffffffffffffffffffffffffffffffffffffffff161480611e055750611d59614cc8565b73ffffffffffffffffffffffffffffffffffffffff16632ab24e496040518163ffffffff1660e01b815260040160206040518083038186803b158015611d9e57600080fd5b505afa158015611db2573d6000803e3d6000fd5b505050506040513d601f19601f82011682018060405250810190611dd69190615b83565b73ffffffffffffffffffffffffffffffffffffffff163373ffffffffffffffffffffffffffffffffffffffff16145b80611ebf5750611e13614cc8565b73ffffffffffffffffffffffffffffffffffffffff1663b99b0a0c6040518163ffffffff1660e01b815260040160206040518083038186803b158015611e5857600080fd5b505afa158015611e6c573d6000803e3d6000fd5b505050506040513d601f19601f82011682018060405250810190611e909190615b83565b73ffffffffffffffffffffffffffffffffffffffff163373ffffffffffffffffffffffffffffffffffffffff16145b611ec857600080fd5b6000611ed261502c565b905060025481601354611ee59190616496565b10611f25576040517f08c379a0000000000000000000000000000000000000000000000000000000008152600401611f1c9061624c565b60405180910390fd5b6000611f2f614d6d565b9050611f39614cc8565b73ffffffffffffffffffffffffffffffffffffffff16637b0e5c456040518163ffffffff1660e01b815260040160206040518083038186803b158015611f7e57600080fd5b505afa158015611f92573d6000803e3d6000fd5b505050506040513d601f19601f82011682018060405250810190611fb69190615b83565b73ffffffffffffffffffffffffffffffffffffffff1663c5c11ee98360135484601454600f546040518663ffffffff1660e01b8152600401611ffc95949392919061640c565b60206040518083038186803b15801561201457600080fd5b505afa158015612028573d6000803e3d6000fd5b505050506040513d601f19601f8201168201806040525081019061204c9190615cee565b92506000601354148061206157506000601454145b156121355768056bc75e2d63100000821015801561208157506127108110155b6120c0576040517f08c379a00000000000000000000000000000000000000000000000000000000081526004016120b79061610c565b60405180910390fd5b60006127108460646120d2919061651d565b6120dc91906164ec565b905080846120ea9190616577565b93506121167f000000000000000000000000000000000000000000000000000000000000000082615565565b818384612123919061651d565b61212d91906164ec565b600381905550505b61213f82826156ae565b6121498484615565565b8373ffffffffffffffffffffffffffffffffffffffff167fbeb3885786d637a474cbc287c0a44587231633a077f0bd30354d5a4b18996fce83838660405161219393929190616390565b60405180910390a25050919050565b6060600e80546121b190616645565b80601f01602080910402602001604051908101604052809291908181526020018280546121dd90616645565b801561222a5780601f106121ff5761010080835404028352916020019161222a565b820191906000526020600020905b81548152906001019060200180831161220d57829003601f168201915b5050505050905090565b60155481565b612242614cc8565b73ffffffffffffffffffffffffffffffffffffffff166332fe7b266040518163ffffffff1660e01b815260040160206040518083038186803b15801561228757600080fd5b505afa15801561229b573d6000803e3d6000fd5b505050506040513d601f19601f820116820180604052508101906122bf9190615b83565b73ffffffffffffffffffffffffffffffffffffffff163373ffffffffffffffffffffffffffffffffffffffff1614806123a757506122fb614cc8565b73ffffffffffffffffffffffffffffffffffffffff16632ab24e496040518163ffffffff1660e01b815260040160206040518083038186803b15801561234057600080fd5b505afa158015612354573d6000803e3d6000fd5b505050506040513d601f19601f820116820180604052508101906123789190615b83565b73ffffffffffffffffffffffffffffffffffffffff163373ffffffffffffffffffffffffffffffffffffffff16145b8061246157506123b5614cc8565b73ffffffffffffffffffffffffffffffffffffffff1663b99b0a0c6040518163ffffffff1660e01b815260040160206040518083038186803b1580156123fa57600080fd5b505afa15801561240e573d6000803e3d6000fd5b505050506040513d601f19601f820116820180604052508101906124329190615b83565b73ffffffffffffffffffffffffffffffffffffffff163373ffffffffffffffffffffffffffffffffffffffff16145b61246a57600080fd5b8060058190555050565b600080601160003373ffffffffffffffffffffffffffffffffffffffff1673ffffffffffffffffffffffffffffffffffffffff16815260200190815260200160002060008573ffffffffffffffffffffffffffffffffffffffff1673ffffffffffffffffffffffffffffffffffffffff16815260200190815260200160002054905082811015612539576040517f08c379a0000000000000000000000000000000000000000000000000000000008152600401612530906160ec565b60405180910390fd5b61254f3385858461254a9190616577565b614886565b600191505092915050565b7f000000000000000000000000000000000000000000000000000000000000000081565b600061258b338484614a51565b6001905092915050565b61259d614cc8565b73ffffffffffffffffffffffffffffffffffffffff166332fe7b266040518163ffffffff1660e01b815260040160206040518083038186803b1580156125e257600080fd5b505afa1580156125f6573d6000803e3d6000fd5b505050506040513d601f19601f8201168201806040525081019061261a9190615b83565b73ffffffffffffffffffffffffffffffffffffffff163373ffffffffffffffffffffffffffffffffffffffff1614806127025750612656614cc8565b73ffffffffffffffffffffffffffffffffffffffff16632ab24e496040518163ffffffff1660e01b815260040160206040518083038186803b15801561269b57600080fd5b505afa1580156126af573d6000803e3d6000fd5b505050506040513d601f19601f820116820180604052508101906126d39190615b83565b73ffffffffffffffffffffffffffffffffffffffff163373ffffffffffffffffffffffffffffffffffffffff16145b806127bc5750612710614cc8565b73ffffffffffffffffffffffffffffffffffffffff1663b99b0a0c6040518163ffffffff1660e01b815260040160206040518083038186803b15801561275557600080fd5b505afa158015612769573d6000803e3d6000fd5b505050506040513d601f19601f8201168201806040525081019061278d9190615b83565b73ffffffffffffffffffffffffffffffffffffffff163373ffffffffffffffffffffffffffffffffffffffff16145b6127c557600080fd5b62093a80811061280a576040517f08c379a00000000000000000000000000000000000000000000000000000000081526004016128019061620c565b60405180910390fd5b8060078190555050565b60008061281f614cc8565b73ffffffffffffffffffffffffffffffffffffffff166332fe7b266040518163ffffffff1660e01b815260040160206040518083038186803b15801561286457600080fd5b505afa158015612878573d6000803e3d6000fd5b505050506040513d601f19601f8201168201806040525081019061289c9190615b83565b73ffffffffffffffffffffffffffffffffffffffff163373ffffffffffffffffffffffffffffffffffffffff16148061298457506128d8614cc8565b73ffffffffffffffffffffffffffffffffffffffff16632ab24e496040518163ffffffff1660e01b815260040160206040518083038186803b15801561291d57600080fd5b505afa158015612931573d6000803e3d6000fd5b505050506040513d601f19601f820116820180604052508101906129559190615b83565b73ffffffffffffffffffffffffffffffffffffffff163373ffffffffffffffffffffffffffffffffffffffff16145b80612a3e5750612992614cc8565b73ffffffffffffffffffffffffffffffffffffffff1663b99b0a0c6040518163ffffffff1660e01b815260040160206040518083038186803b1580156129d757600080fd5b505afa1580156129eb573d6000803e3d6000fd5b505050506040513d601f19601f82011682018060405250810190612a0f9190615b83565b73ffffffffffffffffffffffffffffffffffffffff163373ffffffffffffffffffffffffffffffffffffffff16145b612a4757600080fd5b6007547f0000000000000000000000000000000000000000000000000000000000000000612a759190616496565b4211612ab6576040517f08c379a0000000000000000000000000000000000000000000000000000000008152600401612aad906162ac565b60405180910390fd5b6000612ac130611993565b90506000612acd614cc8565b73ffffffffffffffffffffffffffffffffffffffff16637b0e5c456040518163ffffffff1660e01b815260040160206040518083038186803b158015612b1257600080fd5b505afa158015612b26573d6000803e3d6000fd5b505050506040513d601f19601f82011682018060405250810190612b4a9190615b83565b90508073ffffffffffffffffffffffffffffffffffffffff16635a7b2ed3837f0000000000000000000000000000000000000000000000000000000000000000306040518463ffffffff1660e01b8152600401612ba993929190616330565b60206040518083038186803b158015612bc157600080fd5b505afa158015612bd5573d6000803e3d6000fd5b505050506040513d601f19601f82011682018060405250810190612bf99190615cee565b93508073ffffffffffffffffffffffffffffffffffffffff16635a7b2ed3837f0000000000000000000000000000000000000000000000000000000000000000306040518463ffffffff1660e01b8152600401612c5893929190616330565b60206040518083038186803b158015612c7057600080fd5b505afa158015612c84573d6000803e3d6000fd5b505050506040513d601f19601f82011682018060405250810190612ca89190615cee565b9250612cb484846156ec565b612cbe308361539b565b7f000000000000000000000000000000000000000000000000000000000000000073ffffffffffffffffffffffffffffffffffffffff1663a9059cbb86866040518363ffffffff1660e01b8152600401612d19929190616046565b602060405180830381600087803b158015612d3357600080fd5b505af1158015612d47573d6000803e3d6000fd5b505050506040513d601f19601f82011682018060405250810190612d6b9190615c73565b612daa576040517f08c379a0000000000000000000000000000000000000000000000000000000008152600401612da19061622c565b60405180910390fd5b7f000000000000000000000000000000000000000000000000000000000000000073ffffffffffffffffffffffffffffffffffffffff1663a9059cbb86856040518363ffffffff1660e01b8152600401612e05929190616046565b602060405180830381600087803b158015612e1f57600080fd5b505af1158015612e33573d6000803e3d6000fd5b505050506040513d601f19601f82011682018060405250810190612e579190615c73565b612e96576040517f08c379a0000000000000000000000000000000000000000000000000000000008152600401612e8d9061622c565b60405180910390fd5b8473ffffffffffffffffffffffffffffffffffffffff167f59c3a0b60c6ab7deb62e1440c9e72441db6db7dfe514dba8cb18e60c0d896efa858585604051612ee093929190616390565b60405180910390a25050915091565b60025481565b600b5481565b600080612f06614cc8565b73ffffffffffffffffffffffffffffffffffffffff166332fe7b266040518163ffffffff1660e01b815260040160206040518083038186803b158015612f4b57600080fd5b505afa158015612f5f573d6000803e3d6000fd5b505050506040513d601f19601f82011682018060405250810190612f839190615b83565b73ffffffffffffffffffffffffffffffffffffffff163373ffffffffffffffffffffffffffffffffffffffff16148061306b5750612fbf614cc8565b73ffffffffffffffffffffffffffffffffffffffff16632ab24e496040518163ffffffff1660e01b815260040160206040518083038186803b15801561300457600080fd5b505afa158015613018573d6000803e3d6000fd5b505050506040513d601f19601f8201168201806040525081019061303c9190615b83565b73ffffffffffffffffffffffffffffffffffffffff163373ffffffffffffffffffffffffffffffffffffffff16145b806131255750613079614cc8565b73ffffffffffffffffffffffffffffffffffffffff1663b99b0a0c6040518163ffffffff1660e01b815260040160206040518083038186803b1580156130be57600080fd5b505afa1580156130d2573d6000803e3d6000fd5b505050506040513d601f19601f820116820180604052508101906130f69190615b83565b73ffffffffffffffffffffffffffffffffffffffff163373ffffffffffffffffffffffffffffffffffffffff16145b61312e57600080fd5b6000613138613689565b9050600073ffffffffffffffffffffffffffffffffffffffff168173ffffffffffffffffffffffffffffffffffffffff1614156131aa576040517f08c379a00000000000000000000000000000000000000000000000000000000081526004016131a1906161ec565b60405180910390fd5b60006131b4614cc8565b73ffffffffffffffffffffffffffffffffffffffff16637b0e5c456040518163ffffffff1660e01b815260040160206040518083038186803b1580156131f957600080fd5b505afa15801561320d573d6000803e3d6000fd5b505050506040513d601f19601f820116820180604052508101906132319190615b83565b905060008273ffffffffffffffffffffffffffffffffffffffff166370a08231306040518263ffffffff1660e01b815260040161326e9190616002565b60206040518083038186803b15801561328657600080fd5b505afa15801561329a573d6000803e3d6000fd5b505050506040513d601f19601f820116820180604052508101906132be9190615cee565b905060008273ffffffffffffffffffffffffffffffffffffffff1663701baaf3836014546013546040518463ffffffff1660e01b815260040161330393929190616390565b60206040518083038186803b15801561331b57600080fd5b505afa15801561332f573d6000803e3d6000fd5b505050506040513d601f19601f820116820180604052508101906133539190615cee565b9050600061271061251c83613368919061651d565b61337291906164ec565b90508373ffffffffffffffffffffffffffffffffffffffff1663896a708c846014546013546040518463ffffffff1660e01b81526004016133b593929190616390565b60206040518083038186803b1580156133cd57600080fd5b505afa1580156133e1573d6000803e3d6000fd5b505050506040513d601f19601f820116820180604052508101906134059190615cee565b95506134128160006156ec565b61341b8661572a565b60008573ffffffffffffffffffffffffffffffffffffffff166386450495856040518263ffffffff1660e01b815260040161345691906162ec565b602060405180830381600087803b15801561347057600080fd5b505af1158015613484573d6000803e3d6000fd5b505050506040513d601f19601f820116820180604052508101906134a89190615cee565b90506134b4868261539b565b7f000000000000000000000000000000000000000000000000000000000000000073ffffffffffffffffffffffffffffffffffffffff1663a9059cbb8a846040518363ffffffff1660e01b815260040161350f929190616046565b602060405180830381600087803b15801561352957600080fd5b505af115801561353d573d6000803e3d6000fd5b505050506040513d601f19601f820116820180604052508101906135619190615c73565b6135a0576040517f08c379a00000000000000000000000000000000000000000000000000000000081526004016135979061622c565b60405180910390fd5b8873ffffffffffffffffffffffffffffffffffffffff167f6f3ac8cc4850a948dddb5c85957bbaadcbea6e4b2cef3f02f6af53fcf2596f568383878b6040516135ec94939291906163c7565b60405180910390a2819750505050505050915091565b6000601160008473ffffffffffffffffffffffffffffffffffffffff1673ffffffffffffffffffffffffffffffffffffffff16815260200190815260200160002060008373ffffffffffffffffffffffffffffffffffffffff1673ffffffffffffffffffffffffffffffffffffffff16815260200190815260200160002054905092915050565b6000613693614cc8565b73ffffffffffffffffffffffffffffffffffffffff1663b93ec54b6040518163ffffffff1660e01b815260040160206040518083038186803b1580156136d857600080fd5b505afa1580156136ec573d6000803e3d6000fd5b505050506040513d601f19601f820116820180604052508101906137109190615b83565b73ffffffffffffffffffffffffffffffffffffffff1663dcec81167f00000000000000000000000000000000000000000000000000000000000000006040518263ffffffff1660e01b81526004016137689190616002565b60206040518083038186803b15801561378057600080fd5b505afa158015613794573d6000803e3d6000fd5b505050506040513d601f19601f820116820180604052508101906137b89190615b83565b905090565b7f000000000000000000000000000000000000000000000000000000000000000081565b60145481565b601881815481106137f757600080fd5b906000526020600020016000915090505481565b600080613816614cc8565b73ffffffffffffffffffffffffffffffffffffffff166332fe7b266040518163ffffffff1660e01b815260040160206040518083038186803b15801561385b57600080fd5b505afa15801561386f573d6000803e3d6000fd5b505050506040513d601f19601f820116820180604052508101906138939190615b83565b73ffffffffffffffffffffffffffffffffffffffff163373ffffffffffffffffffffffffffffffffffffffff16148061397b57506138cf614cc8565b73ffffffffffffffffffffffffffffffffffffffff16632ab24e496040518163ffffffff1660e01b815260040160206040518083038186803b15801561391457600080fd5b505afa158015613928573d6000803e3d6000fd5b505050506040513d601f19601f8201168201806040525081019061394c9190615b83565b73ffffffffffffffffffffffffffffffffffffffff163373ffffffffffffffffffffffffffffffffffffffff16145b80613a355750613989614cc8565b73ffffffffffffffffffffffffffffffffffffffff1663b99b0a0c6040518163ffffffff1660e01b815260040160206040518083038186803b1580156139ce57600080fd5b505afa1580156139e2573d6000803e3d6000fd5b505050506040513d601f19601f82011682018060405250810190613a069190615b83565b73ffffffffffffffffffffffffffffffffffffffff163373ffffffffffffffffffffffffffffffffffffffff16145b613a3e57600080fd5b6000613a48613689565b9050601260008273ffffffffffffffffffffffffffffffffffffffff1673ffffffffffffffffffffffffffffffffffffffff16815260200190815260200160002060009054906101000a900460ff16613ad6576040517f08c379a0000000000000000000000000000000000000000000000000000000008152600401613acd9061628c565b60405180910390fd5b613ade614cc8565b73ffffffffffffffffffffffffffffffffffffffff1663b93ec54b6040518163ffffffff1660e01b815260040160206040518083038186803b158015613b2357600080fd5b505afa158015613b37573d6000803e3d6000fd5b505050506040513d601f19601f82011682018060405250810190613b5b9190615b83565b73ffffffffffffffffffffffffffffffffffffffff16635e0237ea826040518263ffffffff1660e01b8152600401613b939190616002565b60206040518083038186803b158015613bab57600080fd5b505afa158015613bbf573d6000803e3d6000fd5b505050506040513d601f19601f82011682018060405250810190613be39190615c73565b613c22576040517f08c379a0000000000000000000000000000000000000000000000000000000008152600401613c19906161ec565b60405180910390fd5b6000613c2c614cc8565b73ffffffffffffffffffffffffffffffffffffffff16637b0e5c456040518163ffffffff1660e01b815260040160206040518083038186803b158015613c7157600080fd5b505afa158015613c85573d6000803e3d6000fd5b505050506040513d601f19601f82011682018060405250810190613ca99190615b83565b90506000613cb561502c565b905060025481601354613cc89190616496565b10613d08576040517f08c379a0000000000000000000000000000000000000000000000000000000008152600401613cff9061624c565b60405180910390fd5b6000613d13846117a1565b90508273ffffffffffffffffffffffffffffffffffffffff1663701baaf3836013546014546040518463ffffffff1660e01b8152600401613d5693929190616390565b60206040518083038186803b158015613d6e57600080fd5b505afa158015613d82573d6000803e3d6000fd5b505050506040513d601f19601f82011682018060405250810190613da69190615cee565b955080861115613deb576040517f08c379a0000000000000000000000000000000000000000000000000000000008152600401613de29061618c565b60405180910390fd5b42600a8190555060008373ffffffffffffffffffffffffffffffffffffffff1663b86a82ef84306040518363ffffffff1660e01b8152600401613e2f929190616307565b60206040518083038186803b158015613e4757600080fd5b505afa158015613e5b573d6000803e3d6000fd5b505050506040513d601f19601f82011682018060405250810190613e7f9190615cee565b9050613e8c8360006156ae565b60008473ffffffffffffffffffffffffffffffffffffffff1663896a708c856013546014546040518463ffffffff1660e01b8152600401613ecf93929190616390565b60206040518083038186803b158015613ee757600080fd5b505afa158015613efb573d6000803e3d6000fd5b505050506040513d601f19601f82011682018060405250810190613f1f9190615cee565b90508473ffffffffffffffffffffffffffffffffffffffff1663c19387df7f0000000000000000000000000000000000000000000000000000000000000000836040518363ffffffff1660e01b8152600401613f7c929190616046565b60206040518083038186803b158015613f9457600080fd5b505afa158015613fa8573d6000803e3d6000fd5b505050506040513d601f19601f82011682018060405250810190613fcc9190615cee565b9650613fd88683615565565b8573ffffffffffffffffffffffffffffffffffffffff166332f302e3613ffc614cc8565b73ffffffffffffffffffffffffffffffffffffffff16632ab24e496040518163ffffffff1660e01b815260040160206040518083038186803b15801561404157600080fd5b505afa158015614055573d6000803e3d6000fd5b505050506040513d601f19601f820116820180604052508101906140799190615b83565b8a6040518363ffffffff1660e01b8152600401614097929190616046565b602060405180830381600087803b1580156140b157600080fd5b505af11580156140c5573d6000803e3d6000fd5b505050506040513d601f19601f820116820180604052508101906140e99190615cee565b506140f2614cc8565b73ffffffffffffffffffffffffffffffffffffffff16632ab24e496040518163ffffffff1660e01b815260040160206040518083038186803b15801561413757600080fd5b505afa15801561414b573d6000803e3d6000fd5b505050506040513d601f19601f8201168201806040525081019061416f9190615b83565b73ffffffffffffffffffffffffffffffffffffffff16634335a95c878b6040518363ffffffff1660e01b81526004016141a992919061601d565b600060405180830381600087803b1580156141c357600080fd5b505af11580156141d7573d6000803e3d6000fd5b505050506141e48761572a565b8873ffffffffffffffffffffffffffffffffffffffff167fbaff1e38597e99ccc6d6abf0e271a32ee3dc24114ea5bec3f05afd9bbb19f1f585848b8b60405161423094939291906163c7565b60405180910390a2505050505050915091565b61424b614cc8565b73ffffffffffffffffffffffffffffffffffffffff166332fe7b266040518163ffffffff1660e01b815260040160206040518083038186803b15801561429057600080fd5b505afa1580156142a4573d6000803e3d6000fd5b505050506040513d601f19601f820116820180604052508101906142c89190615b83565b73ffffffffffffffffffffffffffffffffffffffff163373ffffffffffffffffffffffffffffffffffffffff1614806143b05750614304614cc8565b73ffffffffffffffffffffffffffffffffffffffff16632ab24e496040518163ffffffff1660e01b815260040160206040518083038186803b15801561434957600080fd5b505afa15801561435d573d6000803e3d6000fd5b505050506040513d601f19601f820116820180604052508101906143819190615b83565b73ffffffffffffffffffffffffffffffffffffffff163373ffffffffffffffffffffffffffffffffffffffff16145b8061446a57506143be614cc8565b73ffffffffffffffffffffffffffffffffffffffff1663b99b0a0c6040518163ffffffff1660e01b815260040160206040518083038186803b15801561440357600080fd5b505afa158015614417573d6000803e3d6000fd5b505050506040513d601f19601f8201168201806040525081019061443b9190615b83565b73ffffffffffffffffffffffffffffffffffffffff163373ffffffffffffffffffffffffffffffffffffffff16145b61447357600080fd5b61024481106144b7576040517f08c379a00000000000000000000000000000000000000000000000000000000081526004016144ae9061620c565b60405180910390fd5b600660009054906101000a900460ff1615600660006101000a81548160ff02191690831515021790555080426144ed9190616496565b60048190555050565b6144fe614cc8565b73ffffffffffffffffffffffffffffffffffffffff166398fabd3a6040518163ffffffff1660e01b815260040160206040518083038186803b15801561454357600080fd5b505afa158015614557573d6000803e3d6000fd5b505050506040513d601f19601f8201168201806040525081019061457b9190615b83565b73ffffffffffffffffffffffffffffffffffffffff163373ffffffffffffffffffffffffffffffffffffffff16148061466357506145b7614cc8565b73ffffffffffffffffffffffffffffffffffffffff166332fe7b266040518163ffffffff1660e01b815260040160206040518083038186803b1580156145fc57600080fd5b505afa158015614610573d6000803e3d6000fd5b505050506040513d601f19601f820116820180604052508101906146349190615b83565b73ffffffffffffffffffffffffffffffffffffffff163373ffffffffffffffffffffffffffffffffffffffff16145b8061471d5750614671614cc8565b73ffffffffffffffffffffffffffffffffffffffff16632ab24e496040518163ffffffff1660e01b815260040160206040518083038186803b1580156146b657600080fd5b505afa1580156146ca573d6000803e3d6000fd5b505050506040513d601f19601f820116820180604052508101906146ee9190615b83565b73ffffffffffffffffffffffffffffffffffffffff163373ffffffffffffffffffffffffffffffffffffffff16145b61472657600080fd5b7f000000000000000000000000000000000000000000000000000000000000000073ffffffffffffffffffffffffffffffffffffffff166370a08231306040518263ffffffff1660e01b815260040161477f9190616002565b60206040518083038186803b15801561479757600080fd5b505afa1580156147ab573d6000803e3d6000fd5b505050506040513d601f19601f820116820180604052508101906147cf9190615cee565b6013819055507f000000000000000000000000000000000000000000000000000000000000000073ffffffffffffffffffffffffffffffffffffffff166370a08231306040518263ffffffff1660e01b815260040161482e9190616002565b60206040518083038186803b15801561484657600080fd5b505afa15801561485a573d6000803e3d6000fd5b505050506040513d601f19601f8201168201806040525081019061487e9190615cee565b601481905550565b600073ffffffffffffffffffffffffffffffffffffffff168373ffffffffffffffffffffffffffffffffffffffff1614156148f6576040517f08c379a00000000000000000000000000000000000000000000000000000000081526004016148ed906162cc565b60405180910390fd5b600073ffffffffffffffffffffffffffffffffffffffff168273ffffffffffffffffffffffffffffffffffffffff161415614966576040517f08c379a000000000000000000000000000000000000000000000000000000000815260040161495d906161cc565b60405180910390fd5b80601160008573ffffffffffffffffffffffffffffffffffffffff1673ffffffffffffffffffffffffffffffffffffffff16815260200190815260200160002060008473ffffffffffffffffffffffffffffffffffffffff1673ffffffffffffffffffffffffffffffffffffffff168152602001908152602001600020819055508173ffffffffffffffffffffffffffffffffffffffff168373ffffffffffffffffffffffffffffffffffffffff167f8c5be1e5ebec7d5bd14f71427d1e84f3dd0314c0f7b2291e5b200ac8c7c3b92583604051614a4491906162ec565b60405180910390a3505050565b600073ffffffffffffffffffffffffffffffffffffffff168373ffffffffffffffffffffffffffffffffffffffff161415614ac1576040517f08c379a0000000000000000000000000000000000000000000000000000000008152600401614ab89061626c565b60405180910390fd5b600073ffffffffffffffffffffffffffffffffffffffff168273ffffffffffffffffffffffffffffffffffffffff161415614b31576040517f08c379a0000000000000000000000000000000000000000000000000000000008152600401614b28906161ac565b60405180910390fd5b6000601060008573ffffffffffffffffffffffffffffffffffffffff1673ffffffffffffffffffffffffffffffffffffffff16815260200190815260200160002054905081811015614bb8576040517f08c379a0000000000000000000000000000000000000000000000000000000008152600401614baf9061612c565b60405180910390fd5b8181614bc49190616577565b601060008673ffffffffffffffffffffffffffffffffffffffff1673ffffffffffffffffffffffffffffffffffffffff1681526020019081526020016000208190555081601060008573ffffffffffffffffffffffffffffffffffffffff1673ffffffffffffffffffffffffffffffffffffffff1681526020019081526020016000206000828254614c569190616496565b925050819055508273ffffffffffffffffffffffffffffffffffffffff168473ffffffffffffffffffffffffffffffffffffffff167fddf252ad1be2c89b69c2b068fc378daa952ba7f163c4a11628f55a4df523b3ef84604051614cba91906162ec565b60405180910390a350505050565b60007f000000000000000000000000000000000000000000000000000000000000000073ffffffffffffffffffffffffffffffffffffffff166398fabd3a6040518163ffffffff1660e01b815260040160206040518083038186803b158015614d3057600080fd5b505afa158015614d44573d6000803e3d6000fd5b505050506040513d601f19601f82011682018060405250810190614d689190615c9c565b905090565b6000807f000000000000000000000000000000000000000000000000000000000000000073ffffffffffffffffffffffffffffffffffffffff166370a08231306040518263ffffffff1660e01b8152600401614dc99190616002565b60206040518083038186803b158015614de157600080fd5b505afa158015614df5573d6000803e3d6000fd5b505050506040513d601f19601f82011682018060405250810190614e199190615cee565b9050601454811115614e3a5760145481614e339190616577565b9150614e3f565b600091505b5090565b60008060006014549050600060135490506000614e5e614cc8565b73ffffffffffffffffffffffffffffffffffffffff16637b0e5c456040518163ffffffff1660e01b815260040160206040518083038186803b158015614ea357600080fd5b505afa158015614eb7573d6000803e3d6000fd5b505050506040513d601f19601f82011682018060405250810190614edb9190615b83565b90508073ffffffffffffffffffffffffffffffffffffffff1663701baaf38785856040518463ffffffff1660e01b8152600401614f1a93929190616390565b60206040518083038186803b158015614f3257600080fd5b505afa158015614f46573d6000803e3d6000fd5b505050506040513d601f19601f82011682018060405250810190614f6a9190615cee565b94508073ffffffffffffffffffffffffffffffffffffffff1663896a708c8785856040518463ffffffff1660e01b8152600401614fa993929190616390565b60206040518083038186803b158015614fc157600080fd5b505afa158015614fd5573d6000803e3d6000fd5b505050506040513d601f19601f82011682018060405250810190614ff99190615cee565b935061501b858361500a9190616577565b87856150169190616496565b615793565b6150248461572a565b505050915091565b6000807f000000000000000000000000000000000000000000000000000000000000000073ffffffffffffffffffffffffffffffffffffffff166370a08231306040518263ffffffff1660e01b81526004016150889190616002565b60206040518083038186803b1580156150a057600080fd5b505afa1580156150b4573d6000803e3d6000fd5b505050506040513d601f19601f820116820180604052508101906150d89190615cee565b90506013548111156150f957601354816150f29190616577565b91506150fe565b600091505b5090565b6000806000601354905060006014549050600061511d614cc8565b73ffffffffffffffffffffffffffffffffffffffff16637b0e5c456040518163ffffffff1660e01b815260040160206040518083038186803b15801561516257600080fd5b505afa158015615176573d6000803e3d6000fd5b505050506040513d601f19601f8201168201806040525081019061519a9190615b83565b90508073ffffffffffffffffffffffffffffffffffffffff1663701baaf38785856040518463ffffffff1660e01b81526004016151d993929190616390565b60206040518083038186803b1580156151f157600080fd5b505afa158015615205573d6000803e3d6000fd5b505050506040513d601f19601f820116820180604052508101906152299190615cee565b945060008173ffffffffffffffffffffffffffffffffffffffff1663896a708c8886866040518463ffffffff1660e01b815260040161526a93929190616390565b60206040518083038186803b15801561528257600080fd5b505afa158015615296573d6000803e3d6000fd5b505050506040513d601f19601f820116820180604052508101906152ba9190615cee565b90508173ffffffffffffffffffffffffffffffffffffffff1663c19387df7f0000000000000000000000000000000000000000000000000000000000000000836040518363ffffffff1660e01b8152600401615317929190616046565b60206040518083038186803b15801561532f57600080fd5b505afa158015615343573d6000803e3d6000fd5b505050506040513d601f19601f820116820180604052508101906153679190615cee565b945061538987856153789190616496565b87856153849190616577565b615793565b6153928561572a565b50505050915091565b600073ffffffffffffffffffffffffffffffffffffffff168273ffffffffffffffffffffffffffffffffffffffff16141561540b576040517f08c379a0000000000000000000000000000000000000000000000000000000008152600401615402906160ac565b60405180910390fd5b6000601060008473ffffffffffffffffffffffffffffffffffffffff1673ffffffffffffffffffffffffffffffffffffffff16815260200190815260200160002054905081811015615492576040517f08c379a00000000000000000000000000000000000000000000000000000000081526004016154899061612c565b60405180910390fd5b818161549e9190616577565b601060008573ffffffffffffffffffffffffffffffffffffffff1673ffffffffffffffffffffffffffffffffffffffff1681526020019081526020016000208190555081600f60008282546154f39190616577565b92505081905550600073ffffffffffffffffffffffffffffffffffffffff168373ffffffffffffffffffffffffffffffffffffffff167fddf252ad1be2c89b69c2b068fc378daa952ba7f163c4a11628f55a4df523b3ef8460405161555891906162ec565b60405180910390a3505050565b600073ffffffffffffffffffffffffffffffffffffffff168273ffffffffffffffffffffffffffffffffffffffff1614156155d5576040517f08c379a00000000000000000000000000000000000000000000000000000000081526004016155cc906160ac565b60405180910390fd5b80600f60008282546155e79190616496565b9250508190555080601060008473ffffffffffffffffffffffffffffffffffffffff1673ffffffffffffffffffffffffffffffffffffffff168152602001908152602001600020600082825461563d9190616496565b925050819055508173ffffffffffffffffffffffffffffffffffffffff16600073ffffffffffffffffffffffffffffffffffffffff167fddf252ad1be2c89b69c2b068fc378daa952ba7f163c4a11628f55a4df523b3ef836040516156a291906162ec565b60405180910390a35050565b81601360008282546156c09190616496565b9250508190555080601460008282546156d99190616496565b925050819055506156e86157ad565b5050565b81601360008282546156fe9190616577565b9250508190555080601460008282546157179190616577565b925050819055506157266157ad565b5050565b6000601554141561573d57426015819055505b62278d0060155461574e9190616496565b421161576d57806016546157629190616496565b601681905550615790565b426015819055506016546017819055506157886017546158fa565b806016819055505b50565b81601381905550806014819055506157a96157ad565b5050565b60006014546013546013546157c2919061651d565b6157cc91906164ec565b905060006003548211156157ef57600354826157e89190616577565b9050615800565b816003546157fd9190616577565b90505b816127108261580f919061651d565b61581991906164ec565b90506005548110615844576001600660006101000a81548160ff02191690831515021790555061586b565b60045442111561586a57610e104261585c9190616496565b600481905550816003819055505b5b600660009054906101000a900460ff16156158f65760055481116158a5576000600660006101000a81548160ff0219169083151502179055505b6004544211156158f557610e10426158bd9190616496565b60048190555060006004600380546158d5919061651d565b846158e09190616496565b6158ea91906164ec565b905080600381905550505b5b5050565b6000601880548060200260200160405190810160405280929190818152602001828054801561594857602002820191906000526020600020905b815481526020019060010190808311615934575b50505050509050600281511415615a445780600181518110615993577f4e487b7100000000000000000000000000000000000000000000000000000000600052603260045260246000fd5b6020026020010151816000815181106159d5577f4e487b7100000000000000000000000000000000000000000000000000000000600052603260045260246000fd5b6020026020010181815250508181600181518110615a1c577f4e487b7100000000000000000000000000000000000000000000000000000000600052603260045260246000fd5b6020026020010181815250508060189080519060200190615a3e929190615a72565b50615a6e565b60188290806001815401808255809150506001900390600052602060002001600090919091909150555b5050565b828054828255906000526020600020908101928215615aae579160200282015b82811115615aad578251825591602001919060010190615a92565b5b509050615abb9190615abf565b5090565b5b80821115615ad8576000816000905550600101615ac0565b5090565b600081359050615aeb816169f7565b92915050565b600081519050615b00816169f7565b92915050565b600081519050615b1581616a0e565b92915050565b600081519050615b2a81616a25565b92915050565b600081359050615b3f81616a3c565b92915050565b600081519050615b5481616a3c565b92915050565b600060208284031215615b6c57600080fd5b6000615b7a84828501615adc565b91505092915050565b600060208284031215615b9557600080fd5b6000615ba384828501615af1565b91505092915050565b60008060408385031215615bbf57600080fd5b6000615bcd85828601615adc565b9250506020615bde85828601615adc565b9150509250929050565b600080600060608486031215615bfd57600080fd5b6000615c0b86828701615adc565b9350506020615c1c86828701615adc565b9250506040615c2d86828701615b30565b9150509250925092565b60008060408385031215615c4a57600080fd5b6000615c5885828601615adc565b9250506020615c6985828601615b30565b9150509250929050565b600060208284031215615c8557600080fd5b6000615c9384828501615b06565b91505092915050565b600060208284031215615cae57600080fd5b6000615cbc84828501615b1b565b91505092915050565b600060208284031215615cd757600080fd5b6000615ce584828501615b30565b91505092915050565b600060208284031215615d0057600080fd5b6000615d0e84828501615b45565b91505092915050565b615d20816165ab565b82525050565b615d2f816165bd565b82525050565b6000615d408261647a565b615d4a8185616485565b9350615d5a818560208601616612565b615d6381616704565b840191505092915050565b6000615d7b600883616485565b9150615d8682616715565b602082019050919050565b6000615d9e600483616485565b9150615da98261673e565b602082019050919050565b6000615dc1600983616485565b9150615dcc82616767565b602082019050919050565b6000615de4600983616485565b9150615def82616790565b602082019050919050565b6000615e07600883616485565b9150615e12826167b9565b602082019050919050565b6000615e2a600c83616485565b9150615e35826167e2565b602082019050919050565b6000615e4d600683616485565b9150615e588261680b565b602082019050919050565b6000615e70600883616485565b9150615e7b82616834565b602082019050919050565b6000615e93600583616485565b9150615e9e8261685d565b602082019050919050565b6000615eb6600883616485565b9150615ec182616886565b602082019050919050565b6000615ed9600683616485565b9150615ee4826168af565b602082019050919050565b6000615efc600683616485565b9150615f07826168d8565b602082019050919050565b6000615f1f600983616485565b9150615f2a82616901565b602082019050919050565b6000615f42600383616485565b9150615f4d8261692a565b602082019050919050565b6000615f65600783616485565b9150615f7082616953565b602082019050919050565b6000615f88600883616485565b9150615f938261697c565b602082019050919050565b6000615fab600a83616485565b9150615fb6826169a5565b602082019050919050565b6000615fce600683616485565b9150615fd9826169ce565b602082019050919050565b615fed816165fb565b82525050565b615ffc81616605565b82525050565b60006020820190506160176000830184615d17565b92915050565b60006040820190506160326000830185615d17565b61603f6020830184615d17565b9392505050565b600060408201905061605b6000830185615d17565b6160686020830184615fe4565b9392505050565b60006020820190506160846000830184615d26565b92915050565b600060208201905081810360008301526160a48184615d35565b905092915050565b600060208201905081810360008301526160c581615d6e565b9050919050565b600060208201905081810360008301526160e581615d91565b9050919050565b6000602082019050818103600083015261610581615db4565b9050919050565b6000602082019050818103600083015261612581615dd7565b9050919050565b6000602082019050818103600083015261614581615dfa565b9050919050565b6000602082019050818103600083015261616581615e1d565b9050919050565b6000602082019050818103600083015261618581615e40565b9050919050565b600060208201905081810360008301526161a581615e63565b9050919050565b600060208201905081810360008301526161c581615e86565b9050919050565b600060208201905081810360008301526161e581615ea9565b9050919050565b6000602082019050818103600083015261620581615ecc565b9050919050565b6000602082019050818103600083015261622581615eef565b9050919050565b6000602082019050818103600083015261624581615f12565b9050919050565b6000602082019050818103600083015261626581615f35565b9050919050565b6000602082019050818103600083015261628581615f58565b9050919050565b600060208201905081810360008301526162a581615f7b565b9050919050565b600060208201905081810360008301526162c581615f9e565b9050919050565b600060208201905081810360008301526162e581615fc1565b9050919050565b60006020820190506163016000830184615fe4565b92915050565b600060408201905061631c6000830185615fe4565b6163296020830184615d17565b9392505050565b60006060820190506163456000830186615fe4565b6163526020830185615d17565b61635f6040830184615d17565b949350505050565b600060408201905061637c6000830185615fe4565b6163896020830184615fe4565b9392505050565b60006060820190506163a56000830186615fe4565b6163b26020830185615fe4565b6163bf6040830184615fe4565b949350505050565b60006080820190506163dc6000830187615fe4565b6163e96020830186615fe4565b6163f66040830185615fe4565b6164036060830184615fe4565b95945050505050565b600060a0820190506164216000830188615fe4565b61642e6020830187615fe4565b61643b6040830186615fe4565b6164486060830185615fe4565b6164556080830184615fe4565b9695505050505050565b60006020820190506164746000830184615ff3565b92915050565b600081519050919050565b600082825260208201905092915050565b60006164a1826165fb565b91506164ac836165fb565b9250827fffffffffffffffffffffffffffffffffffffffffffffffffffffffffffffffff038211156164e1576164e0616677565b5b828201905092915050565b60006164f7826165fb565b9150616502836165fb565b925082616512576165116166a6565b5b828204905092915050565b6000616528826165fb565b9150616533836165fb565b9250817fffffffffffffffffffffffffffffffffffffffffffffffffffffffffffffffff048311821515161561656c5761656b616677565b5b828202905092915050565b6000616582826165fb565b915061658d836165fb565b9250828210156165a05761659f616677565b5b828203905092915050565b60006165b6826165db565b9050919050565b60008115159050919050565b60006165d4826165ab565b9050919050565b600073ffffffffffffffffffffffffffffffffffffffff82169050919050565b6000819050919050565b600060ff82169050919050565b60005b83811015616630578082015181840152602081019050616615565b8381111561663f576000848401525b50505050565b6000600282049050600182168061665d57607f821691505b60208210811415616671576166706166d5565b5b50919050565b7f4e487b7100000000000000000000000000000000000000000000000000000000600052601160045260246000fd5b7f4e487b7100000000000000000000000000000000000000000000000000000000600052601260045260246000fd5b7f4e487b7100000000000000000000000000000000000000000000000000000000600052602260045260246000fd5b6000601f19601f8301169050919050565b7f216163636f756e74000000000000000000000000000000000000000000000000600082015250565b7f214d415800000000000000000000000000000000000000000000000000000000600082015250565b7f21617070726f76616c0000000000000000000000000000000000000000000000600082015250565b7f2142616c616e6365640000000000000000000000000000000000000000000000600082015250565b7f2162616c616e6365000000000000000000000000000000000000000000000000600082015250565b7f21424153457c7c544f4b454e0000000000000000000000000000000000000000600082015250565b7f2153594e54480000000000000000000000000000000000000000000000000000600082015250565b7f2173746972726564000000000000000000000000000000000000000000000000600082015250565b7f214255524e000000000000000000000000000000000000000000000000000000600082015250565b7f217370656e646572000000000000000000000000000000000000000000000000600082015250565b7f2173796e74680000000000000000000000000000000000000000000000000000600082015250565b7f2156414c49440000000000000000000000000000000000000000000000000000600082015250565b7f217472616e736665720000000000000000000000000000000000000000000000600082015250565b7f5254430000000000000000000000000000000000000000000000000000000000600082015250565b7f2173656e64657200000000000000000000000000000000000000000000000000600082015250565b7f214d494e54494e47000000000000000000000000000000000000000000000000600082015250565b7f21494e4954494154454400000000000000000000000000000000000000000000600082015250565b7f216f776e65720000000000000000000000000000000000000000000000000000600082015250565b616a00816165ab565b8114616a0b57600080fd5b50565b616a17816165bd565b8114616a2257600080fd5b50565b616a2e816165c9565b8114616a3957600080fd5b50565b616a45816165fb565b8114616a5057600080fd5b5056fea26469706673582212206fba32a620d7f055a6450928ef1b7be8b4bfba650dcc6e194e3bed88d77e0e2164736f6c63430008030033a2646970667358221220648fc1d553d2f02d9681901ffac62ddb1fe34d6773188445a4c5024b314f11b764736f6c63430008030033",
  "linkReferences": {},
  "deployedLinkReferences": {}
}