{
  "_format": "hh-sol-artifact-1",
  "contractName": "PoolFactory",
  "sourceName": "contracts/poolFactory.sol",
  "abi": [
    {
      "inputs": [
        {
          "internalType": "address",
          "name": "_base",
          "type": "address"
        },
        {
          "internalType": "address",
          "name": "_wbnb",
          "type": "address"
        }
      ],
      "stateMutability": "nonpayable",
      "type": "constructor"
    },
    {
      "anonymous": false,
      "inputs": [
        {
          "indexed": true,
          "internalType": "address",
          "name": "pool",
          "type": "address"
        }
      ],
      "name": "AddCuratePool",
      "type": "event"
    },
    {
      "anonymous": false,
      "inputs": [
        {
          "indexed": true,
          "internalType": "address",
          "name": "token",
          "type": "address"
        },
        {
          "indexed": true,
          "internalType": "address",
          "name": "pool",
          "type": "address"
        }
      ],
      "name": "CreatePool",
      "type": "event"
    },
    {
      "anonymous": false,
      "inputs": [
        {
          "indexed": true,
          "internalType": "address",
          "name": "pool",
          "type": "address"
        }
      ],
      "name": "RemoveCuratePool",
      "type": "event"
    },
    {
      "inputs": [],
      "name": "BASE",
      "outputs": [
        {
          "internalType": "address",
          "name": "",
          "type": "address"
        }
      ],
      "stateMutability": "view",
      "type": "function"
    },
    {
      "inputs": [],
      "name": "DEPLOYER",
      "outputs": [
        {
          "internalType": "address",
          "name": "",
          "type": "address"
        }
      ],
      "stateMutability": "view",
      "type": "function"
    },
    {
      "inputs": [],
      "name": "WBNB",
      "outputs": [
        {
          "internalType": "address",
          "name": "",
          "type": "address"
        }
      ],
      "stateMutability": "view",
      "type": "function"
    },
    {
      "inputs": [
        {
          "internalType": "address",
          "name": "token",
          "type": "address"
        }
      ],
      "name": "addCuratedPool",
      "outputs": [],
      "stateMutability": "nonpayable",
      "type": "function"
    },
    {
      "inputs": [
        {
          "internalType": "uint256",
          "name": "",
          "type": "uint256"
        }
      ],
      "name": "arrayPools",
      "outputs": [
        {
          "internalType": "address",
          "name": "",
          "type": "address"
        }
      ],
      "stateMutability": "view",
      "type": "function"
    },
    {
      "inputs": [
        {
          "internalType": "uint256",
          "name": "",
          "type": "uint256"
        }
      ],
      "name": "arrayTokens",
      "outputs": [
        {
          "internalType": "address",
          "name": "",
          "type": "address"
        }
      ],
      "stateMutability": "view",
      "type": "function"
    },
    {
      "inputs": [
        {
          "internalType": "uint256",
          "name": "inputBase",
          "type": "uint256"
        },
        {
          "internalType": "uint256",
          "name": "inputToken",
          "type": "uint256"
        },
        {
          "internalType": "address",
          "name": "token",
          "type": "address"
        }
      ],
      "name": "createPoolADD",
      "outputs": [
        {
          "internalType": "address",
          "name": "pool",
          "type": "address"
        }
      ],
      "stateMutability": "payable",
      "type": "function"
    },
    {
      "inputs": [],
      "name": "curatedPoolCount",
      "outputs": [
        {
          "internalType": "uint256",
          "name": "",
          "type": "uint256"
        }
      ],
      "stateMutability": "view",
      "type": "function"
    },
    {
      "inputs": [],
      "name": "curatedPoolSize",
      "outputs": [
        {
          "internalType": "uint256",
          "name": "",
          "type": "uint256"
        }
      ],
      "stateMutability": "view",
      "type": "function"
    },
    {
      "inputs": [
        {
          "internalType": "address",
          "name": "token",
          "type": "address"
        }
      ],
      "name": "getPool",
      "outputs": [
        {
          "internalType": "address",
          "name": "pool",
          "type": "address"
        }
      ],
      "stateMutability": "view",
      "type": "function"
    },
    {
      "inputs": [
        {
          "internalType": "uint256",
          "name": "i",
          "type": "uint256"
        }
      ],
      "name": "getPoolArray",
      "outputs": [
        {
          "internalType": "address",
          "name": "",
          "type": "address"
        }
      ],
      "stateMutability": "view",
      "type": "function"
    },
    {
      "inputs": [
        {
          "internalType": "uint256",
          "name": "i",
          "type": "uint256"
        }
      ],
      "name": "getToken",
      "outputs": [
        {
          "internalType": "address",
          "name": "",
          "type": "address"
        }
      ],
      "stateMutability": "view",
      "type": "function"
    },
    {
      "inputs": [],
      "name": "getVaultAssets",
      "outputs": [
        {
          "internalType": "address[]",
          "name": "assets",
          "type": "address[]"
        }
      ],
      "stateMutability": "view",
      "type": "function"
    },
    {
      "inputs": [
        {
          "internalType": "address",
          "name": "",
          "type": "address"
        }
      ],
      "name": "isCuratedPool",
      "outputs": [
        {
          "internalType": "bool",
          "name": "",
          "type": "bool"
        }
      ],
      "stateMutability": "view",
      "type": "function"
    },
    {
      "inputs": [
        {
          "internalType": "address",
          "name": "",
          "type": "address"
        }
      ],
      "name": "isListedPool",
      "outputs": [
        {
          "internalType": "bool",
          "name": "",
          "type": "bool"
        }
      ],
      "stateMutability": "view",
      "type": "function"
    },
    {
      "inputs": [
        {
          "internalType": "address",
          "name": "pool",
          "type": "address"
        }
      ],
      "name": "isPool",
      "outputs": [
        {
          "internalType": "bool",
          "name": "",
          "type": "bool"
        }
      ],
      "stateMutability": "view",
      "type": "function"
    },
    {
      "inputs": [],
      "name": "minBASE",
      "outputs": [
        {
          "internalType": "uint256",
          "name": "",
          "type": "uint256"
        }
      ],
      "stateMutability": "view",
      "type": "function"
    },
    {
      "inputs": [],
      "name": "poolCount",
      "outputs": [
        {
          "internalType": "uint256",
          "name": "",
          "type": "uint256"
        }
      ],
      "stateMutability": "view",
      "type": "function"
    },
    {
      "inputs": [],
      "name": "purgeDeployer",
      "outputs": [],
      "stateMutability": "nonpayable",
      "type": "function"
    },
    {
      "inputs": [
        {
          "internalType": "address",
          "name": "token",
          "type": "address"
        }
      ],
      "name": "removeCuratedPool",
      "outputs": [],
      "stateMutability": "nonpayable",
      "type": "function"
    },
    {
      "inputs": [
        {
          "internalType": "uint256",
          "name": "newSize",
          "type": "uint256"
        },
        {
          "internalType": "uint256",
          "name": "_minBASE",
          "type": "uint256"
        }
      ],
      "name": "setParams",
      "outputs": [],
      "stateMutability": "nonpayable",
      "type": "function"
    },
    {
      "inputs": [],
      "name": "tokenCount",
      "outputs": [
        {
          "internalType": "uint256",
          "name": "",
          "type": "uint256"
        }
      ],
      "stateMutability": "view",
      "type": "function"
    },
    {
      "inputs": [],
      "name": "vaultAssetsLength",
      "outputs": [
        {
          "internalType": "uint256",
          "name": "",
          "type": "uint256"
        }
      ],
      "stateMutability": "view",
      "type": "function"
    }
  ],
  "bytecode": "0x60c06040523480156200001157600080fd5b506040516200a68b3803806200a68b83398181016040528101906200003791906200020c565b6001600081905550600073ffffffffffffffffffffffffffffffffffffffff168273ffffffffffffffffffffffffffffffffffffffff161415620000b2576040517f08c379a0000000000000000000000000000000000000000000000000000000008152600401620000a99062000274565b60405180910390fd5b600073ffffffffffffffffffffffffffffffffffffffff168173ffffffffffffffffffffffffffffffffffffffff16141562000125576040517f08c379a00000000000000000000000000000000000000000000000000000000081526004016200011c9062000274565b60405180910390fd5b8173ffffffffffffffffffffffffffffffffffffffff1660808173ffffffffffffffffffffffffffffffffffffffff1660601b815250508073ffffffffffffffffffffffffffffffffffffffff1660a08173ffffffffffffffffffffffffffffffffffffffff1660601b81525050600a60028190555069021e19e0c9bab240000060078190555033600160006101000a81548173ffffffffffffffffffffffffffffffffffffffff021916908373ffffffffffffffffffffffffffffffffffffffff16021790555050506200031e565b600081519050620002068162000304565b92915050565b600080604083850312156200022057600080fd5b60006200023085828601620001f5565b92505060206200024385828601620001f5565b9150509250929050565b60006200025c60058362000296565b91506200026982620002db565b602082019050919050565b600060208201905081810360008301526200028f816200024d565b9050919050565b600082825260208201905092915050565b6000620002b482620002bb565b9050919050565b600073ffffffffffffffffffffffffffffffffffffffff82169050919050565b7f215a45524f000000000000000000000000000000000000000000000000000000600082015250565b6200030f81620002a7565b81146200031b57600080fd5b50565b60805160601c60a05160601c61a2f462000397600039600081816116d7015281816118a201528181611cc90152818161236c015261243d0152600081816108fb0152818161103c01528181611b2a01528181611cf201528181611e1601528181611ef8015281816121b001526121e9015261a2f46000f3fe6080604052600436106200015e5760003560e01c80639d84048211620000c7578063c1b8411a1162000079578063c1b8411a1462000503578063cb6695541462000533578063e4b50cb81462000569578063ec342ad014620005ad578063f525cb6814620005dd578063f99b2ab0146200060d576200015e565b80639d84048214620003a95780639f181b5e14620003ed578063a432fd2a146200041d578063abc764da1462000461578063bbe4f6db1462000491578063c0324c7714620004d5576200015e565b80637b4a93a011620001215780637b4a93a014620002635780637ca51fbf14620002935780638bc51e3614620002c15780638dcb4c9314620002f15780638dd9500214620003355780638e8093d61462000365576200015e565b806303a82138146200016357806317985461146200017d5780632b2260a814620001c15780634a0ff5d714620001ef5780635b16ebb7146200021f575b600080fd5b3480156200017057600080fd5b506200017b6200063d565b005b3480156200018a57600080fd5b50620001a96004803603810190620001a391906200273a565b6200079d565b604051620001b8919062002b7d565b60405180910390f35b348015620001ce57600080fd5b50620001ed6004803603810190620001e791906200268a565b620007dd565b005b348015620001fc57600080fd5b506200020762000e9b565b60405162000216919062002e4e565b60405180910390f35b3480156200022c57600080fd5b506200024b60048036038101906200024591906200268a565b62000ea1565b6040516200025a919062002c55565b60405180910390f35b3480156200027057600080fd5b506200027b62000f11565b6040516200028a919062002e4e565b60405180910390f35b348015620002a057600080fd5b50620002bf6004803603810190620002b991906200268a565b62000f1e565b005b348015620002ce57600080fd5b50620002d9620016af565b604051620002e8919062002e4e565b60405180910390f35b348015620002fe57600080fd5b506200031d60048036038101906200031791906200268a565b620016b5565b6040516200032c919062002c55565b60405180910390f35b3480156200034257600080fd5b506200034d620016d5565b6040516200035c919062002b7d565b60405180910390f35b3480156200037257600080fd5b506200039160048036038101906200038b91906200273a565b620016f9565b604051620003a0919062002b7d565b60405180910390f35b348015620003b657600080fd5b50620003d56004803603810190620003cf91906200273a565b62001768565b604051620003e4919062002b7d565b60405180910390f35b348015620003fa57600080fd5b5062000405620017a8565b60405162000414919062002e4e565b60405180910390f35b3480156200042a57600080fd5b506200044960048036038101906200044391906200268a565b620017b5565b60405162000458919062002c55565b60405180910390f35b3480156200046e57600080fd5b5062000479620017d5565b60405162000488919062002c31565b60405180910390f35b3480156200049e57600080fd5b50620004bd6004803603810190620004b791906200268a565b62001865565b604051620004cc919062002b7d565b60405180910390f35b348015620004e257600080fd5b50620005016004803603810190620004fb919062002792565b6200198c565b005b3480156200051057600080fd5b506200051b62001b00565b6040516200052a919062002b7d565b60405180910390f35b6200055160048036038101906200054b9190620027d3565b62001b26565b60405162000560919062002b7d565b60405180910390f35b3480156200057657600080fd5b506200059560048036038101906200058f91906200273a565b6200213f565b604051620005a4919062002b7d565b60405180910390f35b348015620005ba57600080fd5b50620005c5620021ae565b604051620005d4919062002b7d565b60405180910390f35b348015620005ea57600080fd5b50620005f5620021d2565b60405162000604919062002e4e565b60405180910390f35b3480156200061a57600080fd5b5062000625620021df565b60405162000634919062002e4e565b60405180910390f35b600160009054906101000a900473ffffffffffffffffffffffffffffffffffffffff1673ffffffffffffffffffffffffffffffffffffffff163373ffffffffffffffffffffffffffffffffffffffff1614806200074f57506200069f620021e5565b73ffffffffffffffffffffffffffffffffffffffff166398fabd3a6040518163ffffffff1660e01b815260040160206040518083038186803b158015620006e557600080fd5b505afa158015620006fa573d6000803e3d6000fd5b505050506040513d601f19601f82011682018060405250810190620007209190620026b6565b73ffffffffffffffffffffffffffffffffffffffff163373ffffffffffffffffffffffffffffffffffffffff16145b6200075957600080fd5b6000600160006101000a81548173ffffffffffffffffffffffffffffffffffffffff021916908373ffffffffffffffffffffffffffffffffffffffff160217905550565b60058181548110620007ae57600080fd5b906000526020600020016000915054906101000a900473ffffffffffffffffffffffffffffffffffffffff1681565b600160009054906101000a900473ffffffffffffffffffffffffffffffffffffffff1673ffffffffffffffffffffffffffffffffffffffff163373ffffffffffffffffffffffffffffffffffffffff161480620008ef57506200083f620021e5565b73ffffffffffffffffffffffffffffffffffffffff166398fabd3a6040518163ffffffff1660e01b815260040160206040518083038186803b1580156200088557600080fd5b505afa1580156200089a573d6000803e3d6000fd5b505050506040513d601f19601f82011682018060405250810190620008c09190620026b6565b73ffffffffffffffffffffffffffffffffffffffff163373ffffffffffffffffffffffffffffffffffffffff16145b620008f957600080fd5b7f000000000000000000000000000000000000000000000000000000000000000073ffffffffffffffffffffffffffffffffffffffff168173ffffffffffffffffffffffffffffffffffffffff1614156200098b576040517f08c379a0000000000000000000000000000000000000000000000000000000008152600401620009829062002d1c565b60405180910390fd5b600062000997620021e5565b73ffffffffffffffffffffffffffffffffffffffff166398fabd3a6040518163ffffffff1660e01b815260040160206040518083038186803b158015620009dd57600080fd5b505afa158015620009f2573d6000803e3d6000fd5b505050506040513d601f19601f8201168201806040525081019062000a189190620026b6565b73ffffffffffffffffffffffffffffffffffffffff16632b49d4256040518163ffffffff1660e01b815260040160206040518083038186803b15801562000a5e57600080fd5b505afa15801562000a73573d6000803e3d6000fd5b505050506040513d601f19601f8201168201806040525081019062000a99919062002766565b90506000151562000aa9620021e5565b73ffffffffffffffffffffffffffffffffffffffff166398fabd3a6040518163ffffffff1660e01b815260040160206040518083038186803b15801562000aef57600080fd5b505afa15801562000b04573d6000803e3d6000fd5b505050506040513d601f19601f8201168201806040525081019062000b2a9190620026b6565b73ffffffffffffffffffffffffffffffffffffffff16638bebea89836040518263ffffffff1660e01b815260040162000b64919062002e4e565b60206040518083038186803b15801562000b7d57600080fd5b505afa15801562000b92573d6000803e3d6000fd5b505050506040513d601f19601f8201168201806040525081019062000bb89190620026e2565b15151462000bfd576040517f08c379a000000000000000000000000000000000000000000000000000000000815260040162000bf49062002e0a565b60405180910390fd5b600062000c0a8362001865565b905060011515600960008373ffffffffffffffffffffffffffffffffffffffff1673ffffffffffffffffffffffffffffffffffffffff16815260200190815260200160002060009054906101000a900460ff1615151462000ca2576040517f08c379a000000000000000000000000000000000000000000000000000000000815260040162000c999062002c72565b60405180910390fd5b60001515600a60008373ffffffffffffffffffffffffffffffffffffffff1673ffffffffffffffffffffffffffffffffffffffff16815260200190815260200160002060009054906101000a900460ff1615151462000d38576040517f08c379a000000000000000000000000000000000000000000000000000000000815260040162000d2f9062002cfa565b60405180910390fd5b6002546003541062000d81576040517f08c379a000000000000000000000000000000000000000000000000000000000815260040162000d789062002c94565b60405180910390fd5b6001600a60008373ffffffffffffffffffffffffffffffffffffffff1673ffffffffffffffffffffffffffffffffffffffff16815260200190815260200160002060006101000a81548160ff021916908315150217905550600160035462000dea919062002ec0565b6003819055506006819080600181540180825580915050600190039060005260206000200160009091909190916101000a81548173ffffffffffffffffffffffffffffffffffffffff021916908373ffffffffffffffffffffffffffffffffffffffff1602179055508073ffffffffffffffffffffffffffffffffffffffff167ff21aa98dc310425cc8b86ef0a55117a759c433acf6c59d51f09ac1782a645cf860405160405180910390a2505050565b60025481565b600060011515600960008473ffffffffffffffffffffffffffffffffffffffff1673ffffffffffffffffffffffffffffffffffffffff16815260200190815260200160002060009054906101000a900460ff161515141562000f07576001905062000f0c565b600090505b919050565b6000600680549050905090565b600160009054906101000a900473ffffffffffffffffffffffffffffffffffffffff1673ffffffffffffffffffffffffffffffffffffffff163373ffffffffffffffffffffffffffffffffffffffff16148062001030575062000f80620021e5565b73ffffffffffffffffffffffffffffffffffffffff166398fabd3a6040518163ffffffff1660e01b815260040160206040518083038186803b15801562000fc657600080fd5b505afa15801562000fdb573d6000803e3d6000fd5b505050506040513d601f19601f82011682018060405250810190620010019190620026b6565b73ffffffffffffffffffffffffffffffffffffffff163373ffffffffffffffffffffffffffffffffffffffff16145b6200103a57600080fd5b7f000000000000000000000000000000000000000000000000000000000000000073ffffffffffffffffffffffffffffffffffffffff168173ffffffffffffffffffffffffffffffffffffffff161415620010cc576040517f08c379a0000000000000000000000000000000000000000000000000000000008152600401620010c39062002d1c565b60405180910390fd5b6000620010d98262001865565b905060001515620010e9620021e5565b73ffffffffffffffffffffffffffffffffffffffff16632f7fa1806040518163ffffffff1660e01b815260040160206040518083038186803b1580156200112f57600080fd5b505afa15801562001144573d6000803e3d6000fd5b505050506040513d601f19601f820116820180604052508101906200116a9190620026b6565b73ffffffffffffffffffffffffffffffffffffffff1663f794062e836040518263ffffffff1660e01b8152600401620011a4919062002b7d565b60206040518083038186803b158015620011bd57600080fd5b505afa158015620011d2573d6000803e3d6000fd5b505050506040513d601f19601f82011682018060405250810190620011f89190620026e2565b1515146200123d576040517f08c379a0000000000000000000000000000000000000000000000000000000008152600401620012349062002cb6565b60405180910390fd5b60011515600a60008373ffffffffffffffffffffffffffffffffffffffff1673ffffffffffffffffffffffffffffffffffffffff16815260200190815260200160002060009054906101000a900460ff16151514620012d3576040517f08c379a0000000000000000000000000000000000000000000000000000000008152600401620012ca9062002e2c565b60405180910390fd5b6000600a60008373ffffffffffffffffffffffffffffffffffffffff1673ffffffffffffffffffffffffffffffffffffffff16815260200190815260200160002060006101000a81548160ff02191690831515021790555060016003546200133c919062002f1d565b60038190555060005b6006805490508110156200156e578173ffffffffffffffffffffffffffffffffffffffff1660068281548110620013a5577f4e487b7100000000000000000000000000000000000000000000000000000000600052603260045260246000fd5b9060005260206000200160009054906101000a900473ffffffffffffffffffffffffffffffffffffffff1673ffffffffffffffffffffffffffffffffffffffff16141562001558576006600160068054905062001403919062002f1d565b815481106200143b577f4e487b7100000000000000000000000000000000000000000000000000000000600052603260045260246000fd5b9060005260206000200160009054906101000a900473ffffffffffffffffffffffffffffffffffffffff1660068281548110620014a1577f4e487b7100000000000000000000000000000000000000000000000000000000600052603260045260246000fd5b9060005260206000200160006101000a81548173ffffffffffffffffffffffffffffffffffffffff021916908373ffffffffffffffffffffffffffffffffffffffff160217905550600680548062001522577f4e487b7100000000000000000000000000000000000000000000000000000000600052603160045260246000fd5b6001900381819060005260206000200160006101000a81549073ffffffffffffffffffffffffffffffffffffffff021916905590555b8080620015659062002fc3565b91505062001345565b5062001579620021e5565b73ffffffffffffffffffffffffffffffffffffffff1663b93ec54b6040518163ffffffff1660e01b815260040160206040518083038186803b158015620015bf57600080fd5b505afa158015620015d4573d6000803e3d6000fd5b505050506040513d601f19601f82011682018060405250810190620015fa9190620026b6565b73ffffffffffffffffffffffffffffffffffffffff166335a7ede6836040518263ffffffff1660e01b815260040162001634919062002b7d565b600060405180830381600087803b1580156200164f57600080fd5b505af115801562001664573d6000803e3d6000fd5b505050508073ffffffffffffffffffffffffffffffffffffffff167fe0e122d7131ec0f49556c4f88f13ed2b7f6624d0b88edd40870fa8715cab8b1c60405160405180910390a25050565b60035481565b600a6020528060005260406000206000915054906101000a900460ff1681565b7f000000000000000000000000000000000000000000000000000000000000000081565b60006004828154811062001736577f4e487b7100000000000000000000000000000000000000000000000000000000600052603260045260246000fd5b9060005260206000200160009054906101000a900473ffffffffffffffffffffffffffffffffffffffff169050919050565b600481815481106200177957600080fd5b906000526020600020016000915054906101000a900473ffffffffffffffffffffffffffffffffffffffff1681565b6000600580549050905090565b60096020528060005260406000206000915054906101000a900460ff1681565b606060068054806020026020016040519081016040528092919081815260200182805480156200185b57602002820191906000526020600020905b8160009054906101000a900473ffffffffffffffffffffffffffffffffffffffff1673ffffffffffffffffffffffffffffffffffffffff168152602001906001019080831162001810575b5050505050905090565b60008073ffffffffffffffffffffffffffffffffffffffff168273ffffffffffffffffffffffffffffffffffffffff1614156200192457600860007f000000000000000000000000000000000000000000000000000000000000000073ffffffffffffffffffffffffffffffffffffffff1673ffffffffffffffffffffffffffffffffffffffff16815260200190815260200160002060009054906101000a900473ffffffffffffffffffffffffffffffffffffffff16905062001987565b600860008373ffffffffffffffffffffffffffffffffffffffff1673ffffffffffffffffffffffffffffffffffffffff16815260200190815260200160002060009054906101000a900473ffffffffffffffffffffffffffffffffffffffff1690505b919050565b600160009054906101000a900473ffffffffffffffffffffffffffffffffffffffff1673ffffffffffffffffffffffffffffffffffffffff163373ffffffffffffffffffffffffffffffffffffffff16148062001a9e5750620019ee620021e5565b73ffffffffffffffffffffffffffffffffffffffff166398fabd3a6040518163ffffffff1660e01b815260040160206040518083038186803b15801562001a3457600080fd5b505afa15801562001a49573d6000803e3d6000fd5b505050506040513d601f19601f8201168201806040525081019062001a6f9190620026b6565b73ffffffffffffffffffffffffffffffffffffffff163373ffffffffffffffffffffffffffffffffffffffff16145b62001aa857600080fd5b6000821162001aee576040517f08c379a000000000000000000000000000000000000000000000000000000000815260040162001ae59062002d1c565b60405180910390fd5b81600281905550806007819055505050565b600160009054906101000a900473ffffffffffffffffffffffffffffffffffffffff1681565b60007f000000000000000000000000000000000000000000000000000000000000000073ffffffffffffffffffffffffffffffffffffffff168273ffffffffffffffffffffffffffffffffffffffff16141562001bba576040517f08c379a000000000000000000000000000000000000000000000000000000000815260040162001bb19062002d1c565b60405180910390fd5b600073ffffffffffffffffffffffffffffffffffffffff1662001bdd8362001865565b73ffffffffffffffffffffffffffffffffffffffff161462001c36576040517f08c379a000000000000000000000000000000000000000000000000000000000815260040162001c2d9062002d60565b60405180910390fd5b60008311801562001c4957506007548410155b62001c8b576040517f08c379a000000000000000000000000000000000000000000000000000000000815260040162001c829062002d82565b60405180910390fd5b600080839050600073ffffffffffffffffffffffffffffffffffffffff168473ffffffffffffffffffffffffffffffffffffffff16141562001cf0577f0000000000000000000000000000000000000000000000000000000000000000905062001e14565b7f000000000000000000000000000000000000000000000000000000000000000073ffffffffffffffffffffffffffffffffffffffff168473ffffffffffffffffffffffffffffffffffffffff161415801562001dd1575060128473ffffffffffffffffffffffffffffffffffffffff1663313ce5676040518163ffffffff1660e01b815260040160206040518083038186803b15801562001d9157600080fd5b505afa15801562001da6573d6000803e3d6000fd5b505050506040513d601f19601f8201168201806040525081019062001dcc919062002829565b60ff16145b62001e13576040517f08c379a000000000000000000000000000000000000000000000000000000000815260040162001e0a9062002dc6565b60405180910390fd5b5b7f00000000000000000000000000000000000000000000000000000000000000008160405162001e4490620025db565b62001e5192919062002b9a565b604051809103906000f08015801562001e6e573d6000803e3d6000fd5b50915081925082600860008373ffffffffffffffffffffffffffffffffffffffff1673ffffffffffffffffffffffffffffffffffffffff16815260200190815260200160002060006101000a81548173ffffffffffffffffffffffffffffffffffffffff021916908373ffffffffffffffffffffffffffffffffffffffff16021790555062001f1f7f000000000000000000000000000000000000000000000000000000000000000087856200228e565b62001f2c8486856200228e565b6004839080600181540180825580915050600190039060005260206000200160009091909190916101000a81548173ffffffffffffffffffffffffffffffffffffffff021916908373ffffffffffffffffffffffffffffffffffffffff1602179055506005819080600181540180825580915050600190039060005260206000200160009091909190916101000a81548173ffffffffffffffffffffffffffffffffffffffff021916908373ffffffffffffffffffffffffffffffffffffffff1602179055506001600960008573ffffffffffffffffffffffffffffffffffffffff1673ffffffffffffffffffffffffffffffffffffffff16815260200190815260200160002060006101000a81548160ff0219169083151502179055508273ffffffffffffffffffffffffffffffffffffffff168173ffffffffffffffffffffffffffffffffffffffff167fdbd2a1ea6808362e6adbec4db4969cbc11e3b0b28fb6c74cb342defaaf1daada60405160405180910390a38273ffffffffffffffffffffffffffffffffffffffff166386d5f618336040518263ffffffff1660e01b8152600401620020df919062002b7d565b602060405180830381600087803b158015620020fa57600080fd5b505af11580156200210f573d6000803e3d6000fd5b505050506040513d601f19601f8201168201806040525081019062002135919062002766565b5050509392505050565b6000600582815481106200217c577f4e487b7100000000000000000000000000000000000000000000000000000000600052603260045260246000fd5b9060005260206000200160009054906101000a900473ffffffffffffffffffffffffffffffffffffffff169050919050565b7f000000000000000000000000000000000000000000000000000000000000000081565b6000600480549050905090565b60075481565b60007f000000000000000000000000000000000000000000000000000000000000000073ffffffffffffffffffffffffffffffffffffffff166398fabd3a6040518163ffffffff1660e01b815260040160206040518083038186803b1580156200224e57600080fd5b505afa15801562002263573d6000803e3d6000fd5b505050506040513d601f19601f820116820180604052508101906200228991906200270e565b905090565b60026000541415620022d7576040517f08c379a0000000000000000000000000000000000000000000000000000000008152600401620022ce9062002de8565b60405180910390fd5b60026000819055506000821162002325576040517f08c379a00000000000000000000000000000000000000000000000000000000081526004016200231c9062002da4565b60405180910390fd5b600073ffffffffffffffffffffffffffffffffffffffff168373ffffffffffffffffffffffffffffffffffffffff161415620024f6573482146200236857600080fd5b60007f000000000000000000000000000000000000000000000000000000000000000073ffffffffffffffffffffffffffffffffffffffff1683604051620023b09062002b66565b60006040518083038185875af1925050503d8060008114620023ef576040519150601f19603f3d011682016040523d82523d6000602084013e620023f4565b606091505b50509050806200243b576040517f08c379a0000000000000000000000000000000000000000000000000000000008152600401620024329062002cd8565b60405180910390fd5b7f000000000000000000000000000000000000000000000000000000000000000073ffffffffffffffffffffffffffffffffffffffff1663a9059cbb83856040518363ffffffff1660e01b81526004016200249892919062002c04565b602060405180830381600087803b158015620024b357600080fd5b505af1158015620024c8573d6000803e3d6000fd5b505050506040513d601f19601f82011682018060405250810190620024ee9190620026e2565b5050620025ce565b8273ffffffffffffffffffffffffffffffffffffffff166323b872dd3383856040518463ffffffff1660e01b8152600401620025359392919062002bc7565b602060405180830381600087803b1580156200255057600080fd5b505af115801562002565573d6000803e3d6000fd5b505050506040513d601f19601f820116820180604052508101906200258b9190620026e2565b620025cd576040517f08c379a0000000000000000000000000000000000000000000000000000000008152600401620025c49062002d3e565b60405180910390fd5b5b6001600081905550505050565b616fbb806200330483390190565b600081359050620025fa8162003281565b92915050565b600081519050620026118162003281565b92915050565b60008151905062002628816200329b565b92915050565b6000815190506200263f81620032b5565b92915050565b6000813590506200265681620032cf565b92915050565b6000815190506200266d81620032cf565b92915050565b6000815190506200268481620032e9565b92915050565b6000602082840312156200269d57600080fd5b6000620026ad84828501620025e9565b91505092915050565b600060208284031215620026c957600080fd5b6000620026d98482850162002600565b91505092915050565b600060208284031215620026f557600080fd5b6000620027058482850162002617565b91505092915050565b6000602082840312156200272157600080fd5b600062002731848285016200262e565b91505092915050565b6000602082840312156200274d57600080fd5b60006200275d8482850162002645565b91505092915050565b6000602082840312156200277957600080fd5b600062002789848285016200265c565b91505092915050565b60008060408385031215620027a657600080fd5b6000620027b68582860162002645565b9250506020620027c98582860162002645565b9150509250929050565b600080600060608486031215620027e957600080fd5b6000620027f98682870162002645565b93505060206200280c8682870162002645565b92505060406200281f86828701620025e9565b9150509250925092565b6000602082840312156200283c57600080fd5b60006200284c8482850162002673565b91505092915050565b60006200286383836200286f565b60208301905092915050565b6200287a8162002f58565b82525050565b6200288b8162002f58565b82525050565b60006200289e8262002e7b565b620028aa818562002e93565b9350620028b78362002e6b565b8060005b83811015620028ee578151620028d2888262002855565b9750620028df8362002e86565b925050600181019050620028bb565b5085935050505092915050565b620029068162002f6c565b82525050565b60006200291b60058362002eaf565b9150620029288262003040565b602082019050919050565b600062002942600a8362002eaf565b91506200294f8262003069565b602082019050919050565b60006200296960098362002eaf565b9150620029768262003092565b602082019050919050565b60006200299060058362002eaf565b91506200299d82620030bb565b602082019050919050565b6000620029b760098362002eaf565b9150620029c482620030e4565b602082019050919050565b6000620029de60068362002eaf565b9150620029eb826200310d565b602082019050919050565b600062002a0560098362002eaf565b915062002a128262003136565b602082019050919050565b600062002a2c60048362002eaf565b915062002a39826200315f565b602082019050919050565b600062002a5360008362002ea4565b915062002a608262003188565b600082019050919050565b600062002a7a60048362002eaf565b915062002a87826200318b565b602082019050919050565b600062002aa160048362002eaf565b915062002aae82620031b4565b602082019050919050565b600062002ac860098362002eaf565b915062002ad582620031dd565b602082019050919050565b600062002aef601f8362002eaf565b915062002afc8262003206565b602082019050919050565b600062002b1660048362002eaf565b915062002b23826200322f565b602082019050919050565b600062002b3d60088362002eaf565b915062002b4a8262003258565b602082019050919050565b62002b608162002fac565b82525050565b600062002b738262002a44565b9150819050919050565b600060208201905062002b94600083018462002880565b92915050565b600060408201905062002bb1600083018562002880565b62002bc0602083018462002880565b9392505050565b600060608201905062002bde600083018662002880565b62002bed602083018562002880565b62002bfc604083018462002b55565b949350505050565b600060408201905062002c1b600083018562002880565b62002c2a602083018462002b55565b9392505050565b6000602082019050818103600083015262002c4d818462002891565b905092915050565b600060208201905062002c6c6000830184620028fb565b92915050565b6000602082019050818103600083015262002c8d816200290c565b9050919050565b6000602082019050818103600083015262002caf8162002933565b9050919050565b6000602082019050818103600083015262002cd1816200295a565b9050919050565b6000602082019050818103600083015262002cf38162002981565b9050919050565b6000602082019050818103600083015262002d1581620029a8565b9050919050565b6000602082019050818103600083015262002d3781620029cf565b9050919050565b6000602082019050818103600083015262002d5981620029f6565b9050919050565b6000602082019050818103600083015262002d7b8162002a1d565b9050919050565b6000602082019050818103600083015262002d9d8162002a6b565b9050919050565b6000602082019050818103600083015262002dbf8162002a92565b9050919050565b6000602082019050818103600083015262002de18162002ab9565b9050919050565b6000602082019050818103600083015262002e038162002ae0565b9050919050565b6000602082019050818103600083015262002e258162002b07565b9050919050565b6000602082019050818103600083015262002e478162002b2e565b9050919050565b600060208201905062002e65600083018462002b55565b92915050565b6000819050602082019050919050565b600081519050919050565b6000602082019050919050565b600082825260208201905092915050565b600081905092915050565b600082825260208201905092915050565b600062002ecd8262002fac565b915062002eda8362002fac565b9250827fffffffffffffffffffffffffffffffffffffffffffffffffffffffffffffffff0382111562002f125762002f1162003011565b5b828201905092915050565b600062002f2a8262002fac565b915062002f378362002fac565b92508282101562002f4d5762002f4c62003011565b5b828203905092915050565b600062002f658262002f8c565b9050919050565b60008115159050919050565b600062002f858262002f58565b9050919050565b600073ffffffffffffffffffffffffffffffffffffffff82169050919050565b6000819050919050565b600060ff82169050919050565b600062002fd08262002fac565b91507fffffffffffffffffffffffffffffffffffffffffffffffffffffffffffffffff82141562003006576200300562003011565b5b600182019050919050565b7f4e487b7100000000000000000000000000000000000000000000000000000000600052601160045260246000fd5b7f21504f4f4c000000000000000000000000000000000000000000000000000000600082015250565b7f6d61784375726174656400000000000000000000000000000000000000000000600082015250565b7f2144454c49535445440000000000000000000000000000000000000000000000600082015250565b7f2173656e64000000000000000000000000000000000000000000000000000000600082015250565b7f6973437572617465640000000000000000000000000000000000000000000000600082015250565b7f2156414c49440000000000000000000000000000000000000000000000000000600082015250565b7f217472616e736665720000000000000000000000000000000000000000000000600082015250565b7f214e455700000000000000000000000000000000000000000000000000000000600082015250565b50565b7f214d494e00000000000000000000000000000000000000000000000000000000600082015250565b7f2147415300000000000000000000000000000000000000000000000000000000600082015250565b7f21444543494d414c530000000000000000000000000000000000000000000000600082015250565b7f5265656e7472616e637947756172643a207265656e7472616e742063616c6c00600082015250565b7f4f50454e00000000000000000000000000000000000000000000000000000000600082015250565b7f2143555241544544000000000000000000000000000000000000000000000000600082015250565b6200328c8162002f58565b81146200329857600080fd5b50565b620032a68162002f6c565b8114620032b257600080fd5b50565b620032c08162002f78565b8114620032cc57600080fd5b50565b620032da8162002fac565b8114620032e657600080fd5b50565b620032f48162002fb6565b81146200330057600080fd5b5056fe6101006040523480156200001257600080fd5b5060405162006fbb38038062006fbb83398181016040528101906200003891906200044e565b60016000819055508173ffffffffffffffffffffffffffffffffffffffff1660808173ffffffffffffffffffffffffffffffffffffffff1660601b815250508073ffffffffffffffffffffffffffffffffffffffff1660a08173ffffffffffffffffffffffffffffffffffffffff1660601b8152505060006040518060400160405280601481526020017f2d5370617274616e50726f746f636f6c506f6f6c000000000000000000000000815250905060006040518060400160405280600481526020017f2d5350500000000000000000000000000000000000000000000000000000000081525090508273ffffffffffffffffffffffffffffffffffffffff166306fdde036040518163ffffffff1660e01b815260040160006040518083038186803b1580156200016957600080fd5b505afa1580156200017e573d6000803e3d6000fd5b505050506040513d6000823e3d601f19601f82011682018060405250810190620001a991906200048f565b82604051602001620001bd9291906200050b565b604051602081830303815290604052600d9080519060200190620001e392919062000315565b508273ffffffffffffffffffffffffffffffffffffffff166395d89b416040518163ffffffff1660e01b815260040160006040518083038186803b1580156200022b57600080fd5b505afa15801562000240573d6000803e3d6000fd5b505050506040513d6000823e3d601f19601f820116820180604052508101906200026b91906200048f565b816040516020016200027f9291906200050b565b604051602081830303815290604052600e9080519060200190620002a592919062000315565b50601260ff1660c08160ff1660f81b815250504260e08181525050426004819055506109c4600181905550610bb860058190555069152d02c7e14af680000060028190555060006007819055506000600a81905550603c600881905550613840600b819055505050505062000707565b828054620003239062000612565b90600052602060002090601f01602090048101928262000347576000855562000393565b82601f106200036257805160ff191683800117855562000393565b8280016001018555821562000393579182015b828111156200039257825182559160200191906001019062000375565b5b509050620003a29190620003a6565b5090565b5b80821115620003c1576000816000905550600101620003a7565b5090565b6000620003dc620003d6846200055c565b62000533565b905082815260208101848484011115620003f557600080fd5b62000402848285620005dc565b509392505050565b6000815190506200041b81620006ed565b92915050565b600082601f8301126200043357600080fd5b815162000445848260208601620003c5565b91505092915050565b600080604083850312156200046257600080fd5b600062000472858286016200040a565b925050602062000485858286016200040a565b9150509250929050565b600060208284031215620004a257600080fd5b600082015167ffffffffffffffff811115620004bd57600080fd5b620004cb8482850162000421565b91505092915050565b6000620004e18262000592565b620004ed81856200059d565b9350620004ff818560208601620005dc565b80840191505092915050565b6000620005198285620004d4565b9150620005278284620004d4565b91508190509392505050565b60006200053f62000552565b90506200054d828262000648565b919050565b6000604051905090565b600067ffffffffffffffff8211156200057a5762000579620006ad565b5b6200058582620006dc565b9050602081019050919050565b600081519050919050565b600081905092915050565b6000620005b582620005bc565b9050919050565b600073ffffffffffffffffffffffffffffffffffffffff82169050919050565b60005b83811015620005fc578082015181840152602081019050620005df565b838111156200060c576000848401525b50505050565b600060028204905060018216806200062b57607f821691505b602082108114156200064257620006416200067e565b5b50919050565b6200065382620006dc565b810181811067ffffffffffffffff82111715620006755762000674620006ad565b5b80604052505050565b7f4e487b7100000000000000000000000000000000000000000000000000000000600052602260045260246000fd5b7f4e487b7100000000000000000000000000000000000000000000000000000000600052604160045260246000fd5b6000601f19601f8301169050919050565b620006f881620005a8565b81146200070457600080fd5b50565b60805160601c60a05160601c60c05160f81c60e0516167e5620007d66000396000818161220301526126f301526000610f4c015260008181610c8901528181610d6f0152818161191b015281816128c101528181612a53015281816133d401528181613c9b0152818161453301528181614ace0152615036015260008181610c3401528181610d1b01528181610db201528181611d9801528181612812015281816129670152818161315d015281816134660152818161448401528181614a280152614d8d01526167e56000f3fe608060405234801561001057600080fd5b50600436106102685760003560e01c80637ec3eae511610151578063cbbcf802116100c3578063ec342ad011610087578063ec342ad014610794578063eec7faa1146107b2578063f0337cdc146107d0578063f1bbdef214610800578063fb19536314610831578063fff6cae91461084d57610268565b8063cbbcf802146106d9578063d98c4a46146106f7578063dbfc5a0414610715578063dd62ed3e14610746578063e1eddde31461077657610268565b80639d3f87e2116101155780639d3f87e2146105f2578063a457c2d71461060e578063a7f0b3de1461063e578063a9059cbb1461065c578063ba8e3edd1461068c578063bc5dedc9146106a857610268565b80637ec3eae51461054c57806382bfefc81461056857806386d5f6181461058657806395d89b41146105b657806399d786ca146105d457610268565b806342966c68116101ea5780635f83e5d5116101ae5780635f83e5d51461047457806361cc24bb1461049257806362a5af3b146104c257806370a08231146104e057806370f93cdf14610510578063752d77931461052e57610268565b806342966c68146103e257806346c67843146103fe578063474e73021461041c5780634864d1401461043857806350f9844a1461045657610268565b80632783e4a9116102315780632783e4a91461032757806328ea0adc14610358578063313ce5671461037657806333ca78e41461039457806339509351146103b257610268565b8062aea7451461026d57806306fdde031461028b578063095ea7b3146102a957806318160ddd146102d957806323b872dd146102f7575b600080fd5b610275610857565b6040516102829190616048565b60405180910390f35b61029361085d565b6040516102a09190615de6565b60405180910390f35b6102c360048036038101906102be9190615993565b6108ef565b6040516102d09190615dcb565b60405180910390f35b6102e1610906565b6040516102ee9190616048565b60405180910390f35b610311600480360381019061030c9190615944565b61090c565b60405161031e9190615dcb565b60405180910390f35b610341600480360381019061033c9190615908565b6109ff565b60405161034f9291906160c3565b60405180910390f35b610360610f44565b60405161036d9190616048565b60405180910390f35b61037e610f4a565b60405161038b91906161bb565b60405180910390f35b61039c610f6e565b6040516103a99190616048565b60405180910390f35b6103cc60048036038101906103c79190615993565b610f74565b6040516103d99190615dcb565b60405180910390f35b6103fc60048036038101906103f79190615a21565b611012565b005b6104066111b1565b6040516104139190616048565b60405180910390f35b61043660048036038101906104319190615a21565b6111b7565b005b610440611436565b60405161044d9190616048565b60405180910390f35b61045e61143c565b60405161046b9190616048565b60405180910390f35b61047c611442565b6040516104899190616048565b60405180910390f35b6104ac60048036038101906104a791906158b6565b611448565b6040516104b99190616048565b60405180910390f35b6104ca611627565b6040516104d79190615dcb565b60405180910390f35b6104fa60048036038101906104f591906158b6565b61163a565b6040516105079190616048565b60405180910390f35b610518611683565b6040516105259190616048565b60405180910390f35b610536611689565b6040516105439190616048565b60405180910390f35b61056660048036038101906105619190615a21565b61168f565b005b610570611919565b60405161057d9190615d5e565b60405180910390f35b6105a0600480360381019061059b91906158b6565b61193d565b6040516105ad9190616048565b60405180910390f35b6105be611e49565b6040516105cb9190615de6565b60405180910390f35b6105dc611edb565b6040516105e99190616048565b60405180910390f35b61060c60048036038101906106079190615a21565b611ee1565b005b61062860048036038101906106239190615993565b61211b565b6040516106359190615dcb565b60405180910390f35b610646612201565b6040516106539190616048565b60405180910390f35b61067660048036038101906106719190615993565b612225565b6040516106839190615dcb565b60405180910390f35b6106a660048036038101906106a19190615a21565b61223c565b005b6106c260048036038101906106bd91906158b6565b6124bb565b6040516106d09291906160c3565b60405180910390f35b6106e1612b96565b6040516106ee9190616048565b60405180910390f35b6106ff612b9c565b60405161070c9190616048565b60405180910390f35b61072f600480360381019061072a91906158b6565b612ba2565b60405161073d9291906160c3565b60405180910390f35b610760600480360381019061075b9190615908565b6132a9565b60405161076d9190616048565b60405180910390f35b61077e613330565b60405161078b9190615d5e565b60405180910390f35b61079c613464565b6040516107a99190615d5e565b60405180910390f35b6107ba613488565b6040516107c79190616048565b60405180910390f35b6107ea60048036038101906107e59190615a21565b61348e565b6040516107f79190616048565b60405180910390f35b61081a600480360381019061081591906158b6565b6134b2565b6040516108289291906160c3565b60405180910390f35b61084b60048036038101906108469190615a21565b613f9f565b005b610855614252565b005b600a5481565b6060600d805461086c906163a1565b80601f0160208091040260200160405190810160405280929190818152602001828054610898906163a1565b80156108e55780601f106108ba576101008083540402835291602001916108e5565b820191906000526020600020905b8154815290600101906020018083116108c857829003601f168201915b5050505050905090565b60006108fc3384846145e2565b6001905092915050565b600f5481565b60006109198484846147ad565b6000601160008673ffffffffffffffffffffffffffffffffffffffff1673ffffffffffffffffffffffffffffffffffffffff16815260200190815260200160002060003373ffffffffffffffffffffffffffffffffffffffff1673ffffffffffffffffffffffffffffffffffffffff168152602001908152602001600020549050828110156109dd576040517f08c379a00000000000000000000000000000000000000000000000000000000081526004016109d490615e48565b60405180910390fd5b6109f3853385846109ee91906162d3565b6145e2565b60019150509392505050565b600080610a0a614a24565b73ffffffffffffffffffffffffffffffffffffffff166332fe7b266040518163ffffffff1660e01b815260040160206040518083038186803b158015610a4f57600080fd5b505afa158015610a63573d6000803e3d6000fd5b505050506040513d601f19601f82011682018060405250810190610a8791906158df565b73ffffffffffffffffffffffffffffffffffffffff163373ffffffffffffffffffffffffffffffffffffffff161480610b6f5750610ac3614a24565b73ffffffffffffffffffffffffffffffffffffffff16632ab24e496040518163ffffffff1660e01b815260040160206040518083038186803b158015610b0857600080fd5b505afa158015610b1c573d6000803e3d6000fd5b505050506040513d601f19601f82011682018060405250810190610b4091906158df565b73ffffffffffffffffffffffffffffffffffffffff163373ffffffffffffffffffffffffffffffffffffffff16145b80610c295750610b7d614a24565b73ffffffffffffffffffffffffffffffffffffffff1663b99b0a0c6040518163ffffffff1660e01b815260040160206040518083038186803b158015610bc257600080fd5b505afa158015610bd6573d6000803e3d6000fd5b505050506040513d601f19601f82011682018060405250810190610bfa91906158df565b73ffffffffffffffffffffffffffffffffffffffff163373ffffffffffffffffffffffffffffffffffffffff16145b610c3257600080fd5b7f000000000000000000000000000000000000000000000000000000000000000073ffffffffffffffffffffffffffffffffffffffff168473ffffffffffffffffffffffffffffffffffffffff161480610cd757507f000000000000000000000000000000000000000000000000000000000000000073ffffffffffffffffffffffffffffffffffffffff168473ffffffffffffffffffffffffffffffffffffffff16145b610d16576040517f08c379a0000000000000000000000000000000000000000000000000000000008152600401610d0d90615ea8565b60405180910390fd5b6000807f000000000000000000000000000000000000000000000000000000000000000073ffffffffffffffffffffffffffffffffffffffff168673ffffffffffffffffffffffffffffffffffffffff161415610db0577f00000000000000000000000000000000000000000000000000000000000000009150610d98614ac9565b9050610da381614b9f565b8094508195505050610def565b7f00000000000000000000000000000000000000000000000000000000000000009150610ddb614d88565b9050610de681614e5e565b80945081955050505b8473ffffffffffffffffffffffffffffffffffffffff168673ffffffffffffffffffffffffffffffffffffffff168373ffffffffffffffffffffffffffffffffffffffff167fc9163c3bdf7263acf1bb3d24072cc7da025f7181c31e2edc7e1673edf5e0ca32848888604051610e67939291906160ec565b60405180910390a48573ffffffffffffffffffffffffffffffffffffffff1663a9059cbb86866040518363ffffffff1660e01b8152600401610eaa929190615da2565b602060405180830381600087803b158015610ec457600080fd5b505af1158015610ed8573d6000803e3d6000fd5b505050506040513d601f19601f82011682018060405250810190610efc91906159cf565b610f3b576040517f08c379a0000000000000000000000000000000000000000000000000000000008152600401610f3290615f88565b60405180910390fd5b50509250929050565b600c5481565b7f000000000000000000000000000000000000000000000000000000000000000081565b60015481565b6000611008338484601160003373ffffffffffffffffffffffffffffffffffffffff1673ffffffffffffffffffffffffffffffffffffffff16815260200190815260200160002060008873ffffffffffffffffffffffffffffffffffffffff1673ffffffffffffffffffffffffffffffffffffffff1681526020019081526020016000205461100391906161f2565b6145e2565b6001905092915050565b61101a613330565b73ffffffffffffffffffffffffffffffffffffffff163373ffffffffffffffffffffffffffffffffffffffff161461105157600080fd5b611059614a24565b73ffffffffffffffffffffffffffffffffffffffff1663b93ec54b6040518163ffffffff1660e01b815260040160206040518083038186803b15801561109e57600080fd5b505afa1580156110b2573d6000803e3d6000fd5b505050506040513d601f19601f820116820180604052508101906110d691906158df565b73ffffffffffffffffffffffffffffffffffffffff16635e0237ea6110f9613330565b6040518263ffffffff1660e01b81526004016111159190615d5e565b60206040518083038186803b15801561112d57600080fd5b505afa158015611141573d6000803e3d6000fd5b505050506040513d601f19601f8201168201806040525081019061116591906159cf565b6111a4576040517f08c379a000000000000000000000000000000000000000000000000000000000815260040161119b90615ec8565b60405180910390fd5b6111ae33826150f7565b50565b60085481565b6111bf614a24565b73ffffffffffffffffffffffffffffffffffffffff166332fe7b266040518163ffffffff1660e01b815260040160206040518083038186803b15801561120457600080fd5b505afa158015611218573d6000803e3d6000fd5b505050506040513d601f19601f8201168201806040525081019061123c91906158df565b73ffffffffffffffffffffffffffffffffffffffff163373ffffffffffffffffffffffffffffffffffffffff1614806113245750611278614a24565b73ffffffffffffffffffffffffffffffffffffffff16632ab24e496040518163ffffffff1660e01b815260040160206040518083038186803b1580156112bd57600080fd5b505afa1580156112d1573d6000803e3d6000fd5b505050506040513d601f19601f820116820180604052508101906112f591906158df565b73ffffffffffffffffffffffffffffffffffffffff163373ffffffffffffffffffffffffffffffffffffffff16145b806113de5750611332614a24565b73ffffffffffffffffffffffffffffffffffffffff1663b99b0a0c6040518163ffffffff1660e01b815260040160206040518083038186803b15801561137757600080fd5b505afa15801561138b573d6000803e3d6000fd5b505050506040513d601f19601f820116820180604052508101906113af91906158df565b73ffffffffffffffffffffffffffffffffffffffff163373ffffffffffffffffffffffffffffffffffffffff16145b6113e757600080fd5b610bb881111561142c576040517f08c379a000000000000000000000000000000000000000000000000000000000815260040161142390615e28565b60405180910390fd5b8060018190555050565b60125481565b60095481565b60155481565b60008061271060015460135461145e9190616279565b6114689190616248565b90506000818473ffffffffffffffffffffffffffffffffffffffff166318160ddd6040518163ffffffff1660e01b815260040160206040518083038186803b1580156114b357600080fd5b505afa1580156114c7573d6000803e3d6000fd5b505050506040513d601f19601f820116820180604052508101906114eb9190615a4a565b106114f95760009250611585565b8373ffffffffffffffffffffffffffffffffffffffff166318160ddd6040518163ffffffff1660e01b815260040160206040518083038186803b15801561153f57600080fd5b505afa158015611553573d6000803e3d6000fd5b505050506040513d601f19601f820116820180604052508101906115779190615a4a565b8261158291906162d3565b90505b6000600a5414156115c95742600a8190555042600c81905550600854816115ac9190616248565b600981905550600954600b546115c29190616279565b92506115ed565b6000600a54426115d991906162d3565b9050600954816115e99190616279565b9350505b600854600c546115fd91906161f2565b42111561162057600854816116129190616248565b60098190555042600c819055505b5050919050565b600660009054906101000a900460ff1681565b6000601060008373ffffffffffffffffffffffffffffffffffffffff1673ffffffffffffffffffffffffffffffffffffffff168152602001908152602001600020549050919050565b60075481565b60165481565b611697614a24565b73ffffffffffffffffffffffffffffffffffffffff166332fe7b266040518163ffffffff1660e01b815260040160206040518083038186803b1580156116dc57600080fd5b505afa1580156116f0573d6000803e3d6000fd5b505050506040513d601f19601f8201168201806040525081019061171491906158df565b73ffffffffffffffffffffffffffffffffffffffff163373ffffffffffffffffffffffffffffffffffffffff1614806117fc5750611750614a24565b73ffffffffffffffffffffffffffffffffffffffff16632ab24e496040518163ffffffff1660e01b815260040160206040518083038186803b15801561179557600080fd5b505afa1580156117a9573d6000803e3d6000fd5b505050506040513d601f19601f820116820180604052508101906117cd91906158df565b73ffffffffffffffffffffffffffffffffffffffff163373ffffffffffffffffffffffffffffffffffffffff16145b806118b6575061180a614a24565b73ffffffffffffffffffffffffffffffffffffffff1663b99b0a0c6040518163ffffffff1660e01b815260040160206040518083038186803b15801561184f57600080fd5b505afa158015611863573d6000803e3d6000fd5b505050506040513d601f19601f8201168201806040525081019061188791906158df565b73ffffffffffffffffffffffffffffffffffffffff163373ffffffffffffffffffffffffffffffffffffffff16145b6118bf57600080fd5b600280546118cd9190616279565b81111561190f576040517f08c379a000000000000000000000000000000000000000000000000000000000815260040161190690615e28565b60405180910390fd5b8060028190555050565b7f000000000000000000000000000000000000000000000000000000000000000081565b6000611947614a24565b73ffffffffffffffffffffffffffffffffffffffff166332fe7b266040518163ffffffff1660e01b815260040160206040518083038186803b15801561198c57600080fd5b505afa1580156119a0573d6000803e3d6000fd5b505050506040513d601f19601f820116820180604052508101906119c491906158df565b73ffffffffffffffffffffffffffffffffffffffff163373ffffffffffffffffffffffffffffffffffffffff161480611aac5750611a00614a24565b73ffffffffffffffffffffffffffffffffffffffff16632ab24e496040518163ffffffff1660e01b815260040160206040518083038186803b158015611a4557600080fd5b505afa158015611a59573d6000803e3d6000fd5b505050506040513d601f19601f82011682018060405250810190611a7d91906158df565b73ffffffffffffffffffffffffffffffffffffffff163373ffffffffffffffffffffffffffffffffffffffff16145b80611b665750611aba614a24565b73ffffffffffffffffffffffffffffffffffffffff1663b99b0a0c6040518163ffffffff1660e01b815260040160206040518083038186803b158015611aff57600080fd5b505afa158015611b13573d6000803e3d6000fd5b505050506040513d601f19601f82011682018060405250810190611b3791906158df565b73ffffffffffffffffffffffffffffffffffffffff163373ffffffffffffffffffffffffffffffffffffffff16145b611b6f57600080fd5b6000611b79614d88565b905060025481601254611b8c91906161f2565b10611bcc576040517f08c379a0000000000000000000000000000000000000000000000000000000008152600401611bc390615fa8565b60405180910390fd5b6000611bd6614ac9565b9050611be0614a24565b73ffffffffffffffffffffffffffffffffffffffff16637b0e5c456040518163ffffffff1660e01b815260040160206040518083038186803b158015611c2557600080fd5b505afa158015611c39573d6000803e3d6000fd5b505050506040513d601f19601f82011682018060405250810190611c5d91906158df565b73ffffffffffffffffffffffffffffffffffffffff1663c5c11ee98360125484601354600f546040518663ffffffff1660e01b8152600401611ca3959493929190616168565b60206040518083038186803b158015611cbb57600080fd5b505afa158015611ccf573d6000803e3d6000fd5b505050506040513d601f19601f82011682018060405250810190611cf39190615a4a565b925060006012541480611d0857506000601354145b15611ddc5768056bc75e2d631000008210158015611d2857506127108110155b611d67576040517f08c379a0000000000000000000000000000000000000000000000000000000008152600401611d5e90615e68565b60405180910390fd5b6000612710846064611d799190616279565b611d839190616248565b90508084611d9191906162d3565b9350611dbd7f0000000000000000000000000000000000000000000000000000000000000000826152c1565b818384611dca9190616279565b611dd49190616248565b600381905550505b611de6828261540a565b611df084846152c1565b8373ffffffffffffffffffffffffffffffffffffffff167fbeb3885786d637a474cbc287c0a44587231633a077f0bd30354d5a4b18996fce838386604051611e3a939291906160ec565b60405180910390a25050919050565b6060600e8054611e58906163a1565b80601f0160208091040260200160405190810160405280929190818152602001828054611e84906163a1565b8015611ed15780601f10611ea657610100808354040283529160200191611ed1565b820191906000526020600020905b815481529060010190602001808311611eb457829003601f168201915b5050505050905090565b60145481565b611ee9614a24565b73ffffffffffffffffffffffffffffffffffffffff166332fe7b266040518163ffffffff1660e01b815260040160206040518083038186803b158015611f2e57600080fd5b505afa158015611f42573d6000803e3d6000fd5b505050506040513d601f19601f82011682018060405250810190611f6691906158df565b73ffffffffffffffffffffffffffffffffffffffff163373ffffffffffffffffffffffffffffffffffffffff16148061204e5750611fa2614a24565b73ffffffffffffffffffffffffffffffffffffffff16632ab24e496040518163ffffffff1660e01b815260040160206040518083038186803b158015611fe757600080fd5b505afa158015611ffb573d6000803e3d6000fd5b505050506040513d601f19601f8201168201806040525081019061201f91906158df565b73ffffffffffffffffffffffffffffffffffffffff163373ffffffffffffffffffffffffffffffffffffffff16145b80612108575061205c614a24565b73ffffffffffffffffffffffffffffffffffffffff1663b99b0a0c6040518163ffffffff1660e01b815260040160206040518083038186803b1580156120a157600080fd5b505afa1580156120b5573d6000803e3d6000fd5b505050506040513d601f19601f820116820180604052508101906120d991906158df565b73ffffffffffffffffffffffffffffffffffffffff163373ffffffffffffffffffffffffffffffffffffffff16145b61211157600080fd5b8060058190555050565b600080601160003373ffffffffffffffffffffffffffffffffffffffff1673ffffffffffffffffffffffffffffffffffffffff16815260200190815260200160002060008573ffffffffffffffffffffffffffffffffffffffff1673ffffffffffffffffffffffffffffffffffffffff168152602001908152602001600020549050828110156121e0576040517f08c379a00000000000000000000000000000000000000000000000000000000081526004016121d790615e48565b60405180910390fd5b6121f6338585846121f191906162d3565b6145e2565b600191505092915050565b7f000000000000000000000000000000000000000000000000000000000000000081565b60006122323384846147ad565b6001905092915050565b612244614a24565b73ffffffffffffffffffffffffffffffffffffffff166332fe7b266040518163ffffffff1660e01b815260040160206040518083038186803b15801561228957600080fd5b505afa15801561229d573d6000803e3d6000fd5b505050506040513d601f19601f820116820180604052508101906122c191906158df565b73ffffffffffffffffffffffffffffffffffffffff163373ffffffffffffffffffffffffffffffffffffffff1614806123a957506122fd614a24565b73ffffffffffffffffffffffffffffffffffffffff16632ab24e496040518163ffffffff1660e01b815260040160206040518083038186803b15801561234257600080fd5b505afa158015612356573d6000803e3d6000fd5b505050506040513d601f19601f8201168201806040525081019061237a91906158df565b73ffffffffffffffffffffffffffffffffffffffff163373ffffffffffffffffffffffffffffffffffffffff16145b8061246357506123b7614a24565b73ffffffffffffffffffffffffffffffffffffffff1663b99b0a0c6040518163ffffffff1660e01b815260040160206040518083038186803b1580156123fc57600080fd5b505afa158015612410573d6000803e3d6000fd5b505050506040513d601f19601f8201168201806040525081019061243491906158df565b73ffffffffffffffffffffffffffffffffffffffff163373ffffffffffffffffffffffffffffffffffffffff16145b61246c57600080fd5b62093a8081106124b1576040517f08c379a00000000000000000000000000000000000000000000000000000000081526004016124a890615f68565b60405180910390fd5b8060078190555050565b6000806124c6614a24565b73ffffffffffffffffffffffffffffffffffffffff166332fe7b266040518163ffffffff1660e01b815260040160206040518083038186803b15801561250b57600080fd5b505afa15801561251f573d6000803e3d6000fd5b505050506040513d601f19601f8201168201806040525081019061254391906158df565b73ffffffffffffffffffffffffffffffffffffffff163373ffffffffffffffffffffffffffffffffffffffff16148061262b575061257f614a24565b73ffffffffffffffffffffffffffffffffffffffff16632ab24e496040518163ffffffff1660e01b815260040160206040518083038186803b1580156125c457600080fd5b505afa1580156125d8573d6000803e3d6000fd5b505050506040513d601f19601f820116820180604052508101906125fc91906158df565b73ffffffffffffffffffffffffffffffffffffffff163373ffffffffffffffffffffffffffffffffffffffff16145b806126e55750612639614a24565b73ffffffffffffffffffffffffffffffffffffffff1663b99b0a0c6040518163ffffffff1660e01b815260040160206040518083038186803b15801561267e57600080fd5b505afa158015612692573d6000803e3d6000fd5b505050506040513d601f19601f820116820180604052508101906126b691906158df565b73ffffffffffffffffffffffffffffffffffffffff163373ffffffffffffffffffffffffffffffffffffffff16145b6126ee57600080fd5b6007547f000000000000000000000000000000000000000000000000000000000000000061271c91906161f2565b421161275d576040517f08c379a000000000000000000000000000000000000000000000000000000000815260040161275490616008565b60405180910390fd5b60006127683061163a565b90506000612774614a24565b73ffffffffffffffffffffffffffffffffffffffff16637b0e5c456040518163ffffffff1660e01b815260040160206040518083038186803b1580156127b957600080fd5b505afa1580156127cd573d6000803e3d6000fd5b505050506040513d601f19601f820116820180604052508101906127f191906158df565b90508073ffffffffffffffffffffffffffffffffffffffff16635a7b2ed3837f0000000000000000000000000000000000000000000000000000000000000000306040518463ffffffff1660e01b81526004016128509392919061608c565b60206040518083038186803b15801561286857600080fd5b505afa15801561287c573d6000803e3d6000fd5b505050506040513d601f19601f820116820180604052508101906128a09190615a4a565b93508073ffffffffffffffffffffffffffffffffffffffff16635a7b2ed3837f0000000000000000000000000000000000000000000000000000000000000000306040518463ffffffff1660e01b81526004016128ff9392919061608c565b60206040518083038186803b15801561291757600080fd5b505afa15801561292b573d6000803e3d6000fd5b505050506040513d601f19601f8201168201806040525081019061294f9190615a4a565b925061295b8484615448565b61296530836150f7565b7f000000000000000000000000000000000000000000000000000000000000000073ffffffffffffffffffffffffffffffffffffffff1663a9059cbb86866040518363ffffffff1660e01b81526004016129c0929190615da2565b602060405180830381600087803b1580156129da57600080fd5b505af11580156129ee573d6000803e3d6000fd5b505050506040513d601f19601f82011682018060405250810190612a1291906159cf565b612a51576040517f08c379a0000000000000000000000000000000000000000000000000000000008152600401612a4890615f88565b60405180910390fd5b7f000000000000000000000000000000000000000000000000000000000000000073ffffffffffffffffffffffffffffffffffffffff1663a9059cbb86856040518363ffffffff1660e01b8152600401612aac929190615da2565b602060405180830381600087803b158015612ac657600080fd5b505af1158015612ada573d6000803e3d6000fd5b505050506040513d601f19601f82011682018060405250810190612afe91906159cf565b612b3d576040517f08c379a0000000000000000000000000000000000000000000000000000000008152600401612b3490615f88565b60405180910390fd5b8473ffffffffffffffffffffffffffffffffffffffff167f59c3a0b60c6ab7deb62e1440c9e72441db6db7dfe514dba8cb18e60c0d896efa858585604051612b87939291906160ec565b60405180910390a25050915091565b60025481565b600b5481565b600080612bad614a24565b73ffffffffffffffffffffffffffffffffffffffff166332fe7b266040518163ffffffff1660e01b815260040160206040518083038186803b158015612bf257600080fd5b505afa158015612c06573d6000803e3d6000fd5b505050506040513d601f19601f82011682018060405250810190612c2a91906158df565b73ffffffffffffffffffffffffffffffffffffffff163373ffffffffffffffffffffffffffffffffffffffff161480612d125750612c66614a24565b73ffffffffffffffffffffffffffffffffffffffff16632ab24e496040518163ffffffff1660e01b815260040160206040518083038186803b158015612cab57600080fd5b505afa158015612cbf573d6000803e3d6000fd5b505050506040513d601f19601f82011682018060405250810190612ce391906158df565b73ffffffffffffffffffffffffffffffffffffffff163373ffffffffffffffffffffffffffffffffffffffff16145b80612dcc5750612d20614a24565b73ffffffffffffffffffffffffffffffffffffffff1663b99b0a0c6040518163ffffffff1660e01b815260040160206040518083038186803b158015612d6557600080fd5b505afa158015612d79573d6000803e3d6000fd5b505050506040513d601f19601f82011682018060405250810190612d9d91906158df565b73ffffffffffffffffffffffffffffffffffffffff163373ffffffffffffffffffffffffffffffffffffffff16145b612dd557600080fd5b6000612ddf613330565b9050600073ffffffffffffffffffffffffffffffffffffffff168173ffffffffffffffffffffffffffffffffffffffff161415612e51576040517f08c379a0000000000000000000000000000000000000000000000000000000008152600401612e4890615f48565b60405180910390fd5b6000612e5b614a24565b73ffffffffffffffffffffffffffffffffffffffff16637b0e5c456040518163ffffffff1660e01b815260040160206040518083038186803b158015612ea057600080fd5b505afa158015612eb4573d6000803e3d6000fd5b505050506040513d601f19601f82011682018060405250810190612ed891906158df565b905060008273ffffffffffffffffffffffffffffffffffffffff166370a08231306040518263ffffffff1660e01b8152600401612f159190615d5e565b60206040518083038186803b158015612f2d57600080fd5b505afa158015612f41573d6000803e3d6000fd5b505050506040513d601f19601f82011682018060405250810190612f659190615a4a565b905060008273ffffffffffffffffffffffffffffffffffffffff1663701baaf3836013546012546040518463ffffffff1660e01b8152600401612faa939291906160ec565b60206040518083038186803b158015612fc257600080fd5b505afa158015612fd6573d6000803e3d6000fd5b505050506040513d601f19601f82011682018060405250810190612ffa9190615a4a565b9050600061271061251c8361300f9190616279565b6130199190616248565b90508373ffffffffffffffffffffffffffffffffffffffff1663896a708c846013546012546040518463ffffffff1660e01b815260040161305c939291906160ec565b60206040518083038186803b15801561307457600080fd5b505afa158015613088573d6000803e3d6000fd5b505050506040513d601f19601f820116820180604052508101906130ac9190615a4a565b95506130b9816000615448565b6130c286615486565b60008573ffffffffffffffffffffffffffffffffffffffff166386450495856040518263ffffffff1660e01b81526004016130fd9190616048565b602060405180830381600087803b15801561311757600080fd5b505af115801561312b573d6000803e3d6000fd5b505050506040513d601f19601f8201168201806040525081019061314f9190615a4a565b905061315b86826150f7565b7f000000000000000000000000000000000000000000000000000000000000000073ffffffffffffffffffffffffffffffffffffffff1663a9059cbb8a846040518363ffffffff1660e01b81526004016131b6929190615da2565b602060405180830381600087803b1580156131d057600080fd5b505af11580156131e4573d6000803e3d6000fd5b505050506040513d601f19601f8201168201806040525081019061320891906159cf565b613247576040517f08c379a000000000000000000000000000000000000000000000000000000000815260040161323e90615f88565b60405180910390fd5b8873ffffffffffffffffffffffffffffffffffffffff167f6f3ac8cc4850a948dddb5c85957bbaadcbea6e4b2cef3f02f6af53fcf2596f568383878b6040516132939493929190616123565b60405180910390a2819750505050505050915091565b6000601160008473ffffffffffffffffffffffffffffffffffffffff1673ffffffffffffffffffffffffffffffffffffffff16815260200190815260200160002060008373ffffffffffffffffffffffffffffffffffffffff1673ffffffffffffffffffffffffffffffffffffffff16815260200190815260200160002054905092915050565b600061333a614a24565b73ffffffffffffffffffffffffffffffffffffffff1663b93ec54b6040518163ffffffff1660e01b815260040160206040518083038186803b15801561337f57600080fd5b505afa158015613393573d6000803e3d6000fd5b505050506040513d601f19601f820116820180604052508101906133b791906158df565b73ffffffffffffffffffffffffffffffffffffffff1663dcec81167f00000000000000000000000000000000000000000000000000000000000000006040518263ffffffff1660e01b815260040161340f9190615d5e565b60206040518083038186803b15801561342757600080fd5b505afa15801561343b573d6000803e3d6000fd5b505050506040513d601f19601f8201168201806040525081019061345f91906158df565b905090565b7f000000000000000000000000000000000000000000000000000000000000000081565b60135481565b6017818154811061349e57600080fd5b906000526020600020016000915090505481565b6000806134bd614a24565b73ffffffffffffffffffffffffffffffffffffffff166332fe7b266040518163ffffffff1660e01b815260040160206040518083038186803b15801561350257600080fd5b505afa158015613516573d6000803e3d6000fd5b505050506040513d601f19601f8201168201806040525081019061353a91906158df565b73ffffffffffffffffffffffffffffffffffffffff163373ffffffffffffffffffffffffffffffffffffffff1614806136225750613576614a24565b73ffffffffffffffffffffffffffffffffffffffff16632ab24e496040518163ffffffff1660e01b815260040160206040518083038186803b1580156135bb57600080fd5b505afa1580156135cf573d6000803e3d6000fd5b505050506040513d601f19601f820116820180604052508101906135f391906158df565b73ffffffffffffffffffffffffffffffffffffffff163373ffffffffffffffffffffffffffffffffffffffff16145b806136dc5750613630614a24565b73ffffffffffffffffffffffffffffffffffffffff1663b99b0a0c6040518163ffffffff1660e01b815260040160206040518083038186803b15801561367557600080fd5b505afa158015613689573d6000803e3d6000fd5b505050506040513d601f19601f820116820180604052508101906136ad91906158df565b73ffffffffffffffffffffffffffffffffffffffff163373ffffffffffffffffffffffffffffffffffffffff16145b6136e557600080fd5b60006136ef613330565b90506136f9614a24565b73ffffffffffffffffffffffffffffffffffffffff166332fe7b266040518163ffffffff1660e01b815260040160206040518083038186803b15801561373e57600080fd5b505afa158015613752573d6000803e3d6000fd5b505050506040513d601f19601f8201168201806040525081019061377691906158df565b73ffffffffffffffffffffffffffffffffffffffff1663940c4abc6040518163ffffffff1660e01b815260040160206040518083038186803b1580156137bb57600080fd5b505afa1580156137cf573d6000803e3d6000fd5b505050506040513d601f19601f820116820180604052508101906137f391906159cf565b613832576040517f08c379a000000000000000000000000000000000000000000000000000000000815260040161382990615fe8565b60405180910390fd5b61383a614a24565b73ffffffffffffffffffffffffffffffffffffffff1663b93ec54b6040518163ffffffff1660e01b815260040160206040518083038186803b15801561387f57600080fd5b505afa158015613893573d6000803e3d6000fd5b505050506040513d601f19601f820116820180604052508101906138b791906158df565b73ffffffffffffffffffffffffffffffffffffffff16635e0237ea826040518263ffffffff1660e01b81526004016138ef9190615d5e565b60206040518083038186803b15801561390757600080fd5b505afa15801561391b573d6000803e3d6000fd5b505050506040513d601f19601f8201168201806040525081019061393f91906159cf565b61397e576040517f08c379a000000000000000000000000000000000000000000000000000000000815260040161397590615f48565b60405180910390fd5b6000613988614a24565b73ffffffffffffffffffffffffffffffffffffffff16637b0e5c456040518163ffffffff1660e01b815260040160206040518083038186803b1580156139cd57600080fd5b505afa1580156139e1573d6000803e3d6000fd5b505050506040513d601f19601f82011682018060405250810190613a0591906158df565b90506000613a11614d88565b905060025481601254613a2491906161f2565b10613a64576040517f08c379a0000000000000000000000000000000000000000000000000000000008152600401613a5b90615fa8565b60405180910390fd5b6000613a6f84611448565b90508273ffffffffffffffffffffffffffffffffffffffff1663701baaf3836012546013546040518463ffffffff1660e01b8152600401613ab2939291906160ec565b60206040518083038186803b158015613aca57600080fd5b505afa158015613ade573d6000803e3d6000fd5b505050506040513d601f19601f82011682018060405250810190613b029190615a4a565b955080861115613b47576040517f08c379a0000000000000000000000000000000000000000000000000000000008152600401613b3e90615ee8565b60405180910390fd5b42600a8190555060008373ffffffffffffffffffffffffffffffffffffffff1663b86a82ef84306040518363ffffffff1660e01b8152600401613b8b929190616063565b60206040518083038186803b158015613ba357600080fd5b505afa158015613bb7573d6000803e3d6000fd5b505050506040513d601f19601f82011682018060405250810190613bdb9190615a4a565b9050613be883600061540a565b60008473ffffffffffffffffffffffffffffffffffffffff1663896a708c856012546013546040518463ffffffff1660e01b8152600401613c2b939291906160ec565b60206040518083038186803b158015613c4357600080fd5b505afa158015613c57573d6000803e3d6000fd5b505050506040513d601f19601f82011682018060405250810190613c7b9190615a4a565b90508473ffffffffffffffffffffffffffffffffffffffff1663c19387df7f0000000000000000000000000000000000000000000000000000000000000000836040518363ffffffff1660e01b8152600401613cd8929190615da2565b60206040518083038186803b158015613cf057600080fd5b505afa158015613d04573d6000803e3d6000fd5b505050506040513d601f19601f82011682018060405250810190613d289190615a4a565b9650613d3486836152c1565b8573ffffffffffffffffffffffffffffffffffffffff166332f302e3613d58614a24565b73ffffffffffffffffffffffffffffffffffffffff16632ab24e496040518163ffffffff1660e01b815260040160206040518083038186803b158015613d9d57600080fd5b505afa158015613db1573d6000803e3d6000fd5b505050506040513d601f19601f82011682018060405250810190613dd591906158df565b8a6040518363ffffffff1660e01b8152600401613df3929190615da2565b602060405180830381600087803b158015613e0d57600080fd5b505af1158015613e21573d6000803e3d6000fd5b505050506040513d601f19601f82011682018060405250810190613e459190615a4a565b50613e4e614a24565b73ffffffffffffffffffffffffffffffffffffffff16632ab24e496040518163ffffffff1660e01b815260040160206040518083038186803b158015613e9357600080fd5b505afa158015613ea7573d6000803e3d6000fd5b505050506040513d601f19601f82011682018060405250810190613ecb91906158df565b73ffffffffffffffffffffffffffffffffffffffff16634335a95c878b6040518363ffffffff1660e01b8152600401613f05929190615d79565b600060405180830381600087803b158015613f1f57600080fd5b505af1158015613f33573d6000803e3d6000fd5b50505050613f4087615486565b8873ffffffffffffffffffffffffffffffffffffffff167fbaff1e38597e99ccc6d6abf0e271a32ee3dc24114ea5bec3f05afd9bbb19f1f585848b8b604051613f8c9493929190616123565b60405180910390a2505050505050915091565b613fa7614a24565b73ffffffffffffffffffffffffffffffffffffffff166332fe7b266040518163ffffffff1660e01b815260040160206040518083038186803b158015613fec57600080fd5b505afa158015614000573d6000803e3d6000fd5b505050506040513d601f19601f8201168201806040525081019061402491906158df565b73ffffffffffffffffffffffffffffffffffffffff163373ffffffffffffffffffffffffffffffffffffffff16148061410c5750614060614a24565b73ffffffffffffffffffffffffffffffffffffffff16632ab24e496040518163ffffffff1660e01b815260040160206040518083038186803b1580156140a557600080fd5b505afa1580156140b9573d6000803e3d6000fd5b505050506040513d601f19601f820116820180604052508101906140dd91906158df565b73ffffffffffffffffffffffffffffffffffffffff163373ffffffffffffffffffffffffffffffffffffffff16145b806141c6575061411a614a24565b73ffffffffffffffffffffffffffffffffffffffff1663b99b0a0c6040518163ffffffff1660e01b815260040160206040518083038186803b15801561415f57600080fd5b505afa158015614173573d6000803e3d6000fd5b505050506040513d601f19601f8201168201806040525081019061419791906158df565b73ffffffffffffffffffffffffffffffffffffffff163373ffffffffffffffffffffffffffffffffffffffff16145b6141cf57600080fd5b6102448110614213576040517f08c379a000000000000000000000000000000000000000000000000000000000815260040161420a90615f68565b60405180910390fd5b600660009054906101000a900460ff1615600660006101000a81548160ff021916908315150217905550804261424991906161f2565b60048190555050565b61425a614a24565b73ffffffffffffffffffffffffffffffffffffffff166398fabd3a6040518163ffffffff1660e01b815260040160206040518083038186803b15801561429f57600080fd5b505afa1580156142b3573d6000803e3d6000fd5b505050506040513d601f19601f820116820180604052508101906142d791906158df565b73ffffffffffffffffffffffffffffffffffffffff163373ffffffffffffffffffffffffffffffffffffffff1614806143bf5750614313614a24565b73ffffffffffffffffffffffffffffffffffffffff166332fe7b266040518163ffffffff1660e01b815260040160206040518083038186803b15801561435857600080fd5b505afa15801561436c573d6000803e3d6000fd5b505050506040513d601f19601f8201168201806040525081019061439091906158df565b73ffffffffffffffffffffffffffffffffffffffff163373ffffffffffffffffffffffffffffffffffffffff16145b8061447957506143cd614a24565b73ffffffffffffffffffffffffffffffffffffffff16632ab24e496040518163ffffffff1660e01b815260040160206040518083038186803b15801561441257600080fd5b505afa158015614426573d6000803e3d6000fd5b505050506040513d601f19601f8201168201806040525081019061444a91906158df565b73ffffffffffffffffffffffffffffffffffffffff163373ffffffffffffffffffffffffffffffffffffffff16145b61448257600080fd5b7f000000000000000000000000000000000000000000000000000000000000000073ffffffffffffffffffffffffffffffffffffffff166370a08231306040518263ffffffff1660e01b81526004016144db9190615d5e565b60206040518083038186803b1580156144f357600080fd5b505afa158015614507573d6000803e3d6000fd5b505050506040513d601f19601f8201168201806040525081019061452b9190615a4a565b6012819055507f000000000000000000000000000000000000000000000000000000000000000073ffffffffffffffffffffffffffffffffffffffff166370a08231306040518263ffffffff1660e01b815260040161458a9190615d5e565b60206040518083038186803b1580156145a257600080fd5b505afa1580156145b6573d6000803e3d6000fd5b505050506040513d601f19601f820116820180604052508101906145da9190615a4a565b601381905550565b600073ffffffffffffffffffffffffffffffffffffffff168373ffffffffffffffffffffffffffffffffffffffff161415614652576040517f08c379a000000000000000000000000000000000000000000000000000000000815260040161464990616028565b60405180910390fd5b600073ffffffffffffffffffffffffffffffffffffffff168273ffffffffffffffffffffffffffffffffffffffff1614156146c2576040517f08c379a00000000000000000000000000000000000000000000000000000000081526004016146b990615f28565b60405180910390fd5b80601160008573ffffffffffffffffffffffffffffffffffffffff1673ffffffffffffffffffffffffffffffffffffffff16815260200190815260200160002060008473ffffffffffffffffffffffffffffffffffffffff1673ffffffffffffffffffffffffffffffffffffffff168152602001908152602001600020819055508173ffffffffffffffffffffffffffffffffffffffff168373ffffffffffffffffffffffffffffffffffffffff167f8c5be1e5ebec7d5bd14f71427d1e84f3dd0314c0f7b2291e5b200ac8c7c3b925836040516147a09190616048565b60405180910390a3505050565b600073ffffffffffffffffffffffffffffffffffffffff168373ffffffffffffffffffffffffffffffffffffffff16141561481d576040517f08c379a000000000000000000000000000000000000000000000000000000000815260040161481490615fc8565b60405180910390fd5b600073ffffffffffffffffffffffffffffffffffffffff168273ffffffffffffffffffffffffffffffffffffffff16141561488d576040517f08c379a000000000000000000000000000000000000000000000000000000000815260040161488490615f08565b60405180910390fd5b6000601060008573ffffffffffffffffffffffffffffffffffffffff1673ffffffffffffffffffffffffffffffffffffffff16815260200190815260200160002054905081811015614914576040517f08c379a000000000000000000000000000000000000000000000000000000000815260040161490b90615e88565b60405180910390fd5b818161492091906162d3565b601060008673ffffffffffffffffffffffffffffffffffffffff1673ffffffffffffffffffffffffffffffffffffffff1681526020019081526020016000208190555081601060008573ffffffffffffffffffffffffffffffffffffffff1673ffffffffffffffffffffffffffffffffffffffff16815260200190815260200160002060008282546149b291906161f2565b925050819055508273ffffffffffffffffffffffffffffffffffffffff168473ffffffffffffffffffffffffffffffffffffffff167fddf252ad1be2c89b69c2b068fc378daa952ba7f163c4a11628f55a4df523b3ef84604051614a169190616048565b60405180910390a350505050565b60007f000000000000000000000000000000000000000000000000000000000000000073ffffffffffffffffffffffffffffffffffffffff166398fabd3a6040518163ffffffff1660e01b815260040160206040518083038186803b158015614a8c57600080fd5b505afa158015614aa0573d6000803e3d6000fd5b505050506040513d601f19601f82011682018060405250810190614ac491906159f8565b905090565b6000807f000000000000000000000000000000000000000000000000000000000000000073ffffffffffffffffffffffffffffffffffffffff166370a08231306040518263ffffffff1660e01b8152600401614b259190615d5e565b60206040518083038186803b158015614b3d57600080fd5b505afa158015614b51573d6000803e3d6000fd5b505050506040513d601f19601f82011682018060405250810190614b759190615a4a565b9050601354811115614b965760135481614b8f91906162d3565b9150614b9b565b600091505b5090565b60008060006013549050600060125490506000614bba614a24565b73ffffffffffffffffffffffffffffffffffffffff16637b0e5c456040518163ffffffff1660e01b815260040160206040518083038186803b158015614bff57600080fd5b505afa158015614c13573d6000803e3d6000fd5b505050506040513d601f19601f82011682018060405250810190614c3791906158df565b90508073ffffffffffffffffffffffffffffffffffffffff1663701baaf38785856040518463ffffffff1660e01b8152600401614c76939291906160ec565b60206040518083038186803b158015614c8e57600080fd5b505afa158015614ca2573d6000803e3d6000fd5b505050506040513d601f19601f82011682018060405250810190614cc69190615a4a565b94508073ffffffffffffffffffffffffffffffffffffffff1663896a708c8785856040518463ffffffff1660e01b8152600401614d05939291906160ec565b60206040518083038186803b158015614d1d57600080fd5b505afa158015614d31573d6000803e3d6000fd5b505050506040513d601f19601f82011682018060405250810190614d559190615a4a565b9350614d778583614d6691906162d3565b8785614d7291906161f2565b6154ef565b614d8084615486565b505050915091565b6000807f000000000000000000000000000000000000000000000000000000000000000073ffffffffffffffffffffffffffffffffffffffff166370a08231306040518263ffffffff1660e01b8152600401614de49190615d5e565b60206040518083038186803b158015614dfc57600080fd5b505afa158015614e10573d6000803e3d6000fd5b505050506040513d601f19601f82011682018060405250810190614e349190615a4a565b9050601254811115614e555760125481614e4e91906162d3565b9150614e5a565b600091505b5090565b60008060006012549050600060135490506000614e79614a24565b73ffffffffffffffffffffffffffffffffffffffff16637b0e5c456040518163ffffffff1660e01b815260040160206040518083038186803b158015614ebe57600080fd5b505afa158015614ed2573d6000803e3d6000fd5b505050506040513d601f19601f82011682018060405250810190614ef691906158df565b90508073ffffffffffffffffffffffffffffffffffffffff1663701baaf38785856040518463ffffffff1660e01b8152600401614f35939291906160ec565b60206040518083038186803b158015614f4d57600080fd5b505afa158015614f61573d6000803e3d6000fd5b505050506040513d601f19601f82011682018060405250810190614f859190615a4a565b945060008173ffffffffffffffffffffffffffffffffffffffff1663896a708c8886866040518463ffffffff1660e01b8152600401614fc6939291906160ec565b60206040518083038186803b158015614fde57600080fd5b505afa158015614ff2573d6000803e3d6000fd5b505050506040513d601f19601f820116820180604052508101906150169190615a4a565b90508173ffffffffffffffffffffffffffffffffffffffff1663c19387df7f0000000000000000000000000000000000000000000000000000000000000000836040518363ffffffff1660e01b8152600401615073929190615da2565b60206040518083038186803b15801561508b57600080fd5b505afa15801561509f573d6000803e3d6000fd5b505050506040513d601f19601f820116820180604052508101906150c39190615a4a565b94506150e587856150d491906161f2565b87856150e091906162d3565b6154ef565b6150ee85615486565b50505050915091565b600073ffffffffffffffffffffffffffffffffffffffff168273ffffffffffffffffffffffffffffffffffffffff161415615167576040517f08c379a000000000000000000000000000000000000000000000000000000000815260040161515e90615e08565b60405180910390fd5b6000601060008473ffffffffffffffffffffffffffffffffffffffff1673ffffffffffffffffffffffffffffffffffffffff168152602001908152602001600020549050818110156151ee576040517f08c379a00000000000000000000000000000000000000000000000000000000081526004016151e590615e88565b60405180910390fd5b81816151fa91906162d3565b601060008573ffffffffffffffffffffffffffffffffffffffff1673ffffffffffffffffffffffffffffffffffffffff1681526020019081526020016000208190555081600f600082825461524f91906162d3565b92505081905550600073ffffffffffffffffffffffffffffffffffffffff168373ffffffffffffffffffffffffffffffffffffffff167fddf252ad1be2c89b69c2b068fc378daa952ba7f163c4a11628f55a4df523b3ef846040516152b49190616048565b60405180910390a3505050565b600073ffffffffffffffffffffffffffffffffffffffff168273ffffffffffffffffffffffffffffffffffffffff161415615331576040517f08c379a000000000000000000000000000000000000000000000000000000000815260040161532890615e08565b60405180910390fd5b80600f600082825461534391906161f2565b9250508190555080601060008473ffffffffffffffffffffffffffffffffffffffff1673ffffffffffffffffffffffffffffffffffffffff168152602001908152602001600020600082825461539991906161f2565b925050819055508173ffffffffffffffffffffffffffffffffffffffff16600073ffffffffffffffffffffffffffffffffffffffff167fddf252ad1be2c89b69c2b068fc378daa952ba7f163c4a11628f55a4df523b3ef836040516153fe9190616048565b60405180910390a35050565b816012600082825461541c91906161f2565b92505081905550806013600082825461543591906161f2565b92505081905550615444615509565b5050565b816012600082825461545a91906162d3565b92505081905550806013600082825461547391906162d3565b92505081905550615482615509565b5050565b6000601454141561549957426014819055505b62278d006014546154aa91906161f2565b42116154c957806015546154be91906161f2565b6015819055506154ec565b426014819055506015546016819055506154e4601654615656565b806015819055505b50565b8160128190555080601381905550615505615509565b5050565b600060135460125460125461551e9190616279565b6155289190616248565b9050600060035482111561554b576003548261554491906162d3565b905061555c565b8160035461555991906162d3565b90505b816127108261556b9190616279565b6155759190616248565b905060055481106155a0576001600660006101000a81548160ff0219169083151502179055506155c7565b6004544211156155c657610e10426155b891906161f2565b600481905550816003819055505b5b600660009054906101000a900460ff1615615652576005548111615601576000600660006101000a81548160ff0219169083151502179055505b60045442111561565157610e104261561991906161f2565b60048190555060006004600380546156319190616279565b8461563c91906161f2565b6156469190616248565b905080600381905550505b5b5050565b600060178054806020026020016040519081016040528092919081815260200182805480156156a457602002820191906000526020600020905b815481526020019060010190808311615690575b505050505090506002815114156157a057806001815181106156ef577f4e487b7100000000000000000000000000000000000000000000000000000000600052603260045260246000fd5b602002602001015181600081518110615731577f4e487b7100000000000000000000000000000000000000000000000000000000600052603260045260246000fd5b6020026020010181815250508181600181518110615778577f4e487b7100000000000000000000000000000000000000000000000000000000600052603260045260246000fd5b602002602001018181525050806017908051906020019061579a9291906157ce565b506157ca565b60178290806001815401808255809150506001900390600052602060002001600090919091909150555b5050565b82805482825590600052602060002090810192821561580a579160200282015b828111156158095782518255916020019190600101906157ee565b5b509050615817919061581b565b5090565b5b8082111561583457600081600090555060010161581c565b5090565b60008135905061584781616753565b92915050565b60008151905061585c81616753565b92915050565b6000815190506158718161676a565b92915050565b60008151905061588681616781565b92915050565b60008135905061589b81616798565b92915050565b6000815190506158b081616798565b92915050565b6000602082840312156158c857600080fd5b60006158d684828501615838565b91505092915050565b6000602082840312156158f157600080fd5b60006158ff8482850161584d565b91505092915050565b6000806040838503121561591b57600080fd5b600061592985828601615838565b925050602061593a85828601615838565b9150509250929050565b60008060006060848603121561595957600080fd5b600061596786828701615838565b935050602061597886828701615838565b92505060406159898682870161588c565b9150509250925092565b600080604083850312156159a657600080fd5b60006159b485828601615838565b92505060206159c58582860161588c565b9150509250929050565b6000602082840312156159e157600080fd5b60006159ef84828501615862565b91505092915050565b600060208284031215615a0a57600080fd5b6000615a1884828501615877565b91505092915050565b600060208284031215615a3357600080fd5b6000615a418482850161588c565b91505092915050565b600060208284031215615a5c57600080fd5b6000615a6a848285016158a1565b91505092915050565b615a7c81616307565b82525050565b615a8b81616319565b82525050565b6000615a9c826161d6565b615aa681856161e1565b9350615ab681856020860161636e565b615abf81616460565b840191505092915050565b6000615ad76008836161e1565b9150615ae282616471565b602082019050919050565b6000615afa6004836161e1565b9150615b058261649a565b602082019050919050565b6000615b1d6009836161e1565b9150615b28826164c3565b602082019050919050565b6000615b406009836161e1565b9150615b4b826164ec565b602082019050919050565b6000615b636008836161e1565b9150615b6e82616515565b602082019050919050565b6000615b86600c836161e1565b9150615b918261653e565b602082019050919050565b6000615ba96006836161e1565b9150615bb482616567565b602082019050919050565b6000615bcc6008836161e1565b9150615bd782616590565b602082019050919050565b6000615bef6005836161e1565b9150615bfa826165b9565b602082019050919050565b6000615c126008836161e1565b9150615c1d826165e2565b602082019050919050565b6000615c356006836161e1565b9150615c408261660b565b602082019050919050565b6000615c586006836161e1565b9150615c6382616634565b602082019050919050565b6000615c7b6009836161e1565b9150615c868261665d565b602082019050919050565b6000615c9e6003836161e1565b9150615ca982616686565b602082019050919050565b6000615cc16007836161e1565b9150615ccc826166af565b602082019050919050565b6000615ce46008836161e1565b9150615cef826166d8565b602082019050919050565b6000615d07600a836161e1565b9150615d1282616701565b602082019050919050565b6000615d2a6006836161e1565b9150615d358261672a565b602082019050919050565b615d4981616357565b82525050565b615d5881616361565b82525050565b6000602082019050615d736000830184615a73565b92915050565b6000604082019050615d8e6000830185615a73565b615d9b6020830184615a73565b9392505050565b6000604082019050615db76000830185615a73565b615dc46020830184615d40565b9392505050565b6000602082019050615de06000830184615a82565b92915050565b60006020820190508181036000830152615e008184615a91565b905092915050565b60006020820190508181036000830152615e2181615aca565b9050919050565b60006020820190508181036000830152615e4181615aed565b9050919050565b60006020820190508181036000830152615e6181615b10565b9050919050565b60006020820190508181036000830152615e8181615b33565b9050919050565b60006020820190508181036000830152615ea181615b56565b9050919050565b60006020820190508181036000830152615ec181615b79565b9050919050565b60006020820190508181036000830152615ee181615b9c565b9050919050565b60006020820190508181036000830152615f0181615bbf565b9050919050565b60006020820190508181036000830152615f2181615be2565b9050919050565b60006020820190508181036000830152615f4181615c05565b9050919050565b60006020820190508181036000830152615f6181615c28565b9050919050565b60006020820190508181036000830152615f8181615c4b565b9050919050565b60006020820190508181036000830152615fa181615c6e565b9050919050565b60006020820190508181036000830152615fc181615c91565b9050919050565b60006020820190508181036000830152615fe181615cb4565b9050919050565b6000602082019050818103600083015261600181615cd7565b9050919050565b6000602082019050818103600083015261602181615cfa565b9050919050565b6000602082019050818103600083015261604181615d1d565b9050919050565b600060208201905061605d6000830184615d40565b92915050565b60006040820190506160786000830185615d40565b6160856020830184615a73565b9392505050565b60006060820190506160a16000830186615d40565b6160ae6020830185615a73565b6160bb6040830184615a73565b949350505050565b60006040820190506160d86000830185615d40565b6160e56020830184615d40565b9392505050565b60006060820190506161016000830186615d40565b61610e6020830185615d40565b61611b6040830184615d40565b949350505050565b60006080820190506161386000830187615d40565b6161456020830186615d40565b6161526040830185615d40565b61615f6060830184615d40565b95945050505050565b600060a08201905061617d6000830188615d40565b61618a6020830187615d40565b6161976040830186615d40565b6161a46060830185615d40565b6161b16080830184615d40565b9695505050505050565b60006020820190506161d06000830184615d4f565b92915050565b600081519050919050565b600082825260208201905092915050565b60006161fd82616357565b915061620883616357565b9250827fffffffffffffffffffffffffffffffffffffffffffffffffffffffffffffffff0382111561623d5761623c6163d3565b5b828201905092915050565b600061625382616357565b915061625e83616357565b92508261626e5761626d616402565b5b828204905092915050565b600061628482616357565b915061628f83616357565b9250817fffffffffffffffffffffffffffffffffffffffffffffffffffffffffffffffff04831182151516156162c8576162c76163d3565b5b828202905092915050565b60006162de82616357565b91506162e983616357565b9250828210156162fc576162fb6163d3565b5b828203905092915050565b600061631282616337565b9050919050565b60008115159050919050565b600061633082616307565b9050919050565b600073ffffffffffffffffffffffffffffffffffffffff82169050919050565b6000819050919050565b600060ff82169050919050565b60005b8381101561638c578082015181840152602081019050616371565b8381111561639b576000848401525b50505050565b600060028204905060018216806163b957607f821691505b602082108114156163cd576163cc616431565b5b50919050565b7f4e487b7100000000000000000000000000000000000000000000000000000000600052601160045260246000fd5b7f4e487b7100000000000000000000000000000000000000000000000000000000600052601260045260246000fd5b7f4e487b7100000000000000000000000000000000000000000000000000000000600052602260045260246000fd5b6000601f19601f8301169050919050565b7f216163636f756e74000000000000000000000000000000000000000000000000600082015250565b7f214d415800000000000000000000000000000000000000000000000000000000600082015250565b7f21617070726f76616c0000000000000000000000000000000000000000000000600082015250565b7f2142616c616e6365640000000000000000000000000000000000000000000000600082015250565b7f2162616c616e6365000000000000000000000000000000000000000000000000600082015250565b7f21424153457c7c544f4b454e0000000000000000000000000000000000000000600082015250565b7f2153594e54480000000000000000000000000000000000000000000000000000600082015250565b7f2173746972726564000000000000000000000000000000000000000000000000600082015250565b7f214255524e000000000000000000000000000000000000000000000000000000600082015250565b7f217370656e646572000000000000000000000000000000000000000000000000600082015250565b7f2173796e74680000000000000000000000000000000000000000000000000000600082015250565b7f2156414c49440000000000000000000000000000000000000000000000000000600082015250565b7f217472616e736665720000000000000000000000000000000000000000000000600082015250565b7f5254430000000000000000000000000000000000000000000000000000000000600082015250565b7f2173656e64657200000000000000000000000000000000000000000000000000600082015250565b7f214d494e54494e47000000000000000000000000000000000000000000000000600082015250565b7f21494e4954494154454400000000000000000000000000000000000000000000600082015250565b7f216f776e65720000000000000000000000000000000000000000000000000000600082015250565b61675c81616307565b811461676757600080fd5b50565b61677381616319565b811461677e57600080fd5b50565b61678a81616325565b811461679557600080fd5b50565b6167a181616357565b81146167ac57600080fd5b5056fea26469706673582212205651a864b9fb0041b3d5b1923762fe8306aeb4f8c49010b85fe36ab44b8a460264736f6c63430008030033a2646970667358221220cceb11e331c4c47ac225eae04f98a48ec5bd1bcc8719b6413837dae00cb2913964736f6c63430008030033",
  "linkReferences": {},
  "deployedLinkReferences": {}
}