{
  "_format": "hh-sol-artifact-1",
  "contractName": "PoolFactory",
  "sourceName": "contracts/poolFactory.sol",
  "abi": [
    {
      "inputs": [
        {
          "internalType": "address",
          "name": "_base",
          "type": "address"
        },
        {
          "internalType": "address",
          "name": "_wbnb",
          "type": "address"
        }
      ],
      "stateMutability": "nonpayable",
      "type": "constructor"
    },
    {
      "anonymous": false,
      "inputs": [
        {
          "indexed": true,
          "internalType": "address",
          "name": "pool",
          "type": "address"
        }
      ],
      "name": "AddCuratePool",
      "type": "event"
    },
    {
      "anonymous": false,
      "inputs": [
        {
          "indexed": true,
          "internalType": "address",
          "name": "token",
          "type": "address"
        },
        {
          "indexed": true,
          "internalType": "address",
          "name": "pool",
          "type": "address"
        }
      ],
      "name": "CreatePool",
      "type": "event"
    },
    {
      "anonymous": false,
      "inputs": [
        {
          "indexed": true,
          "internalType": "address",
          "name": "pool",
          "type": "address"
        }
      ],
      "name": "RemoveCuratePool",
      "type": "event"
    },
    {
      "inputs": [],
      "name": "BASE",
      "outputs": [
        {
          "internalType": "address",
          "name": "",
          "type": "address"
        }
      ],
      "stateMutability": "view",
      "type": "function"
    },
    {
      "inputs": [],
      "name": "DEPLOYER",
      "outputs": [
        {
          "internalType": "address",
          "name": "",
          "type": "address"
        }
      ],
      "stateMutability": "view",
      "type": "function"
    },
    {
      "inputs": [],
      "name": "WBNB",
      "outputs": [
        {
          "internalType": "address",
          "name": "",
          "type": "address"
        }
      ],
      "stateMutability": "view",
      "type": "function"
    },
    {
      "inputs": [
        {
          "internalType": "address",
          "name": "token",
          "type": "address"
        }
      ],
      "name": "addCuratedPool",
      "outputs": [],
      "stateMutability": "nonpayable",
      "type": "function"
    },
    {
      "inputs": [
        {
          "internalType": "uint256",
          "name": "",
          "type": "uint256"
        }
      ],
      "name": "arrayPools",
      "outputs": [
        {
          "internalType": "address",
          "name": "",
          "type": "address"
        }
      ],
      "stateMutability": "view",
      "type": "function"
    },
    {
      "inputs": [
        {
          "internalType": "uint256",
          "name": "",
          "type": "uint256"
        }
      ],
      "name": "arrayTokens",
      "outputs": [
        {
          "internalType": "address",
          "name": "",
          "type": "address"
        }
      ],
      "stateMutability": "view",
      "type": "function"
    },
    {
      "inputs": [
        {
          "internalType": "uint256",
          "name": "inputBase",
          "type": "uint256"
        },
        {
          "internalType": "uint256",
          "name": "inputToken",
          "type": "uint256"
        },
        {
          "internalType": "address",
          "name": "token",
          "type": "address"
        }
      ],
      "name": "createPoolADD",
      "outputs": [
        {
          "internalType": "address",
          "name": "pool",
          "type": "address"
        }
      ],
      "stateMutability": "payable",
      "type": "function"
    },
    {
      "inputs": [],
      "name": "curatedPoolCount",
      "outputs": [
        {
          "internalType": "uint256",
          "name": "",
          "type": "uint256"
        }
      ],
      "stateMutability": "view",
      "type": "function"
    },
    {
      "inputs": [],
      "name": "curatedPoolSize",
      "outputs": [
        {
          "internalType": "uint256",
          "name": "",
          "type": "uint256"
        }
      ],
      "stateMutability": "view",
      "type": "function"
    },
    {
      "inputs": [
        {
          "internalType": "address",
          "name": "token",
          "type": "address"
        }
      ],
      "name": "getPool",
      "outputs": [
        {
          "internalType": "address",
          "name": "pool",
          "type": "address"
        }
      ],
      "stateMutability": "view",
      "type": "function"
    },
    {
      "inputs": [
        {
          "internalType": "uint256",
          "name": "i",
          "type": "uint256"
        }
      ],
      "name": "getPoolArray",
      "outputs": [
        {
          "internalType": "address",
          "name": "",
          "type": "address"
        }
      ],
      "stateMutability": "view",
      "type": "function"
    },
    {
      "inputs": [
        {
          "internalType": "uint256",
          "name": "i",
          "type": "uint256"
        }
      ],
      "name": "getToken",
      "outputs": [
        {
          "internalType": "address",
          "name": "",
          "type": "address"
        }
      ],
      "stateMutability": "view",
      "type": "function"
    },
    {
      "inputs": [],
      "name": "getVaultAssets",
      "outputs": [
        {
          "internalType": "address[]",
          "name": "assets",
          "type": "address[]"
        }
      ],
      "stateMutability": "view",
      "type": "function"
    },
    {
      "inputs": [
        {
          "internalType": "address",
          "name": "",
          "type": "address"
        }
      ],
      "name": "isCuratedPool",
      "outputs": [
        {
          "internalType": "bool",
          "name": "",
          "type": "bool"
        }
      ],
      "stateMutability": "view",
      "type": "function"
    },
    {
      "inputs": [
        {
          "internalType": "address",
          "name": "",
          "type": "address"
        }
      ],
      "name": "isListedPool",
      "outputs": [
        {
          "internalType": "bool",
          "name": "",
          "type": "bool"
        }
      ],
      "stateMutability": "view",
      "type": "function"
    },
    {
      "inputs": [
        {
          "internalType": "address",
          "name": "pool",
          "type": "address"
        }
      ],
      "name": "isPool",
      "outputs": [
        {
          "internalType": "bool",
          "name": "",
          "type": "bool"
        }
      ],
      "stateMutability": "view",
      "type": "function"
    },
    {
      "inputs": [],
      "name": "poolCount",
      "outputs": [
        {
          "internalType": "uint256",
          "name": "",
          "type": "uint256"
        }
      ],
      "stateMutability": "view",
      "type": "function"
    },
    {
      "inputs": [],
      "name": "purgeDeployer",
      "outputs": [],
      "stateMutability": "nonpayable",
      "type": "function"
    },
    {
      "inputs": [
        {
          "internalType": "address",
          "name": "token",
          "type": "address"
        }
      ],
      "name": "removeCuratedPool",
      "outputs": [],
      "stateMutability": "nonpayable",
      "type": "function"
    },
    {
      "inputs": [
        {
          "internalType": "uint256",
          "name": "newSize",
          "type": "uint256"
        }
      ],
      "name": "setParams",
      "outputs": [],
      "stateMutability": "nonpayable",
      "type": "function"
    },
    {
      "inputs": [],
      "name": "tokenCount",
      "outputs": [
        {
          "internalType": "uint256",
          "name": "",
          "type": "uint256"
        }
      ],
      "stateMutability": "view",
      "type": "function"
    },
    {
      "inputs": [],
      "name": "vaultAssetsLength",
      "outputs": [
        {
          "internalType": "uint256",
          "name": "",
          "type": "uint256"
        }
      ],
      "stateMutability": "view",
      "type": "function"
    }
  ],
  "bytecode": "0x60c06040523480156200001157600080fd5b506040516200a6c93803806200a6c98339818101604052810190620000379190620001fb565b6001600081905550600073ffffffffffffffffffffffffffffffffffffffff168273ffffffffffffffffffffffffffffffffffffffff161415620000b2576040517f08c379a0000000000000000000000000000000000000000000000000000000008152600401620000a99062000263565b60405180910390fd5b600073ffffffffffffffffffffffffffffffffffffffff168173ffffffffffffffffffffffffffffffffffffffff16141562000125576040517f08c379a00000000000000000000000000000000000000000000000000000000081526004016200011c9062000263565b60405180910390fd5b8173ffffffffffffffffffffffffffffffffffffffff1660808173ffffffffffffffffffffffffffffffffffffffff1660601b815250508073ffffffffffffffffffffffffffffffffffffffff1660a08173ffffffffffffffffffffffffffffffffffffffff1660601b81525050600a60028190555033600160006101000a81548173ffffffffffffffffffffffffffffffffffffffff021916908373ffffffffffffffffffffffffffffffffffffffff16021790555050506200030d565b600081519050620001f581620002f3565b92915050565b600080604083850312156200020f57600080fd5b60006200021f85828601620001e4565b92505060206200023285828601620001e4565b9150509250929050565b60006200024b60058362000285565b91506200025882620002ca565b602082019050919050565b600060208201905081810360008301526200027e816200023c565b9050919050565b600082825260208201905092915050565b6000620002a382620002aa565b9050919050565b600073ffffffffffffffffffffffffffffffffffffffff82169050919050565b7f215a45524f000000000000000000000000000000000000000000000000000000600082015250565b620002fe8162000296565b81146200030a57600080fd5b50565b60805160601c60a05160601c61a34362000386600039600081816116a50152818161187001528181611b2b015281816121c801526122990152600081816108bf0152818161116c0152818161198401528181611b5401528181611c7801528181611d5a015281816120120152612045015261a3436000f3fe608060405260043610620001525760003560e01c80638e8093d611620000bb578063bbe4f6db1162000079578063bbe4f6db14620004b3578063c1b8411a14620004f7578063cb6695541462000527578063e4b50cb8146200055d578063ec342ad014620005a1578063f525cb6814620005d15762000152565b80638e8093d614620003875780639d84048214620003cb5780639f181b5e146200040f578063a432fd2a146200043f578063abc764da14620004835762000152565b80635b16ebb711620001155780635b16ebb714620002415780637b4a93a014620002855780637ca51fbf14620002b55780638bc51e3614620002e35780638dcb4c9314620003135780638dd9500214620003575762000152565b806303a8213814620001575780631798546114620001715780632b2260a814620001b55780634a0ff5d714620001e357806359ded2101462000213575b600080fd5b3480156200016457600080fd5b506200016f62000601565b005b3480156200017e57600080fd5b506200019d600480360381019062000197919062002596565b62000761565b604051620001ac919062002971565b60405180910390f35b348015620001c257600080fd5b50620001e16004803603810190620001db9190620024e6565b620007a1565b005b348015620001f057600080fd5b50620001fb62000e5f565b6040516200020a919062002c20565b60405180910390f35b3480156200022057600080fd5b506200023f600480360381019062000239919062002596565b62000e65565b005b3480156200024e57600080fd5b506200026d6004803603810190620002679190620024e6565b62000fd1565b6040516200027c919062002a49565b60405180910390f35b3480156200029257600080fd5b506200029d62001041565b604051620002ac919062002c20565b60405180910390f35b348015620002c257600080fd5b50620002e16004803603810190620002db9190620024e6565b6200104e565b005b348015620002f057600080fd5b50620002fb6200167d565b6040516200030a919062002c20565b60405180910390f35b3480156200032057600080fd5b506200033f6004803603810190620003399190620024e6565b62001683565b6040516200034e919062002a49565b60405180910390f35b3480156200036457600080fd5b506200036f620016a3565b6040516200037e919062002971565b60405180910390f35b3480156200039457600080fd5b50620003b36004803603810190620003ad919062002596565b620016c7565b604051620003c2919062002971565b60405180910390f35b348015620003d857600080fd5b50620003f76004803603810190620003f1919062002596565b62001736565b60405162000406919062002971565b60405180910390f35b3480156200041c57600080fd5b506200042762001776565b60405162000436919062002c20565b60405180910390f35b3480156200044c57600080fd5b506200046b6004803603810190620004659190620024e6565b62001783565b6040516200047a919062002a49565b60405180910390f35b3480156200049057600080fd5b506200049b620017a3565b604051620004aa919062002a25565b60405180910390f35b348015620004c057600080fd5b50620004df6004803603810190620004d99190620024e6565b62001833565b604051620004ee919062002971565b60405180910390f35b3480156200050457600080fd5b506200050f6200195a565b6040516200051e919062002971565b60405180910390f35b6200054560048036038101906200053f9190620025ee565b62001980565b60405162000554919062002971565b60405180910390f35b3480156200056a57600080fd5b5062000589600480360381019062000583919062002596565b62001fa1565b60405162000598919062002971565b60405180910390f35b348015620005ae57600080fd5b50620005b962002010565b604051620005c8919062002971565b60405180910390f35b348015620005de57600080fd5b50620005e962002034565b604051620005f8919062002c20565b60405180910390f35b600160009054906101000a900473ffffffffffffffffffffffffffffffffffffffff1673ffffffffffffffffffffffffffffffffffffffff163373ffffffffffffffffffffffffffffffffffffffff1614806200071357506200066362002041565b73ffffffffffffffffffffffffffffffffffffffff166398fabd3a6040518163ffffffff1660e01b815260040160206040518083038186803b158015620006a957600080fd5b505afa158015620006be573d6000803e3d6000fd5b505050506040513d601f19601f82011682018060405250810190620006e4919062002512565b73ffffffffffffffffffffffffffffffffffffffff163373ffffffffffffffffffffffffffffffffffffffff16145b6200071d57600080fd5b6000600160006101000a81548173ffffffffffffffffffffffffffffffffffffffff021916908373ffffffffffffffffffffffffffffffffffffffff160217905550565b600581815481106200077257600080fd5b906000526020600020016000915054906101000a900473ffffffffffffffffffffffffffffffffffffffff1681565b600160009054906101000a900473ffffffffffffffffffffffffffffffffffffffff1673ffffffffffffffffffffffffffffffffffffffff163373ffffffffffffffffffffffffffffffffffffffff161480620008b357506200080362002041565b73ffffffffffffffffffffffffffffffffffffffff166398fabd3a6040518163ffffffff1660e01b815260040160206040518083038186803b1580156200084957600080fd5b505afa1580156200085e573d6000803e3d6000fd5b505050506040513d601f19601f8201168201806040525081019062000884919062002512565b73ffffffffffffffffffffffffffffffffffffffff163373ffffffffffffffffffffffffffffffffffffffff16145b620008bd57600080fd5b7f000000000000000000000000000000000000000000000000000000000000000073ffffffffffffffffffffffffffffffffffffffff168173ffffffffffffffffffffffffffffffffffffffff1614156200094f576040517f08c379a0000000000000000000000000000000000000000000000000000000008152600401620009469062002aee565b60405180910390fd5b60006200095b62002041565b73ffffffffffffffffffffffffffffffffffffffff166398fabd3a6040518163ffffffff1660e01b815260040160206040518083038186803b158015620009a157600080fd5b505afa158015620009b6573d6000803e3d6000fd5b505050506040513d601f19601f82011682018060405250810190620009dc919062002512565b73ffffffffffffffffffffffffffffffffffffffff16632b49d4256040518163ffffffff1660e01b815260040160206040518083038186803b15801562000a2257600080fd5b505afa15801562000a37573d6000803e3d6000fd5b505050506040513d601f19601f8201168201806040525081019062000a5d9190620025c2565b90506000151562000a6d62002041565b73ffffffffffffffffffffffffffffffffffffffff166398fabd3a6040518163ffffffff1660e01b815260040160206040518083038186803b15801562000ab357600080fd5b505afa15801562000ac8573d6000803e3d6000fd5b505050506040513d601f19601f8201168201806040525081019062000aee919062002512565b73ffffffffffffffffffffffffffffffffffffffff16638bebea89836040518263ffffffff1660e01b815260040162000b28919062002c20565b60206040518083038186803b15801562000b4157600080fd5b505afa15801562000b56573d6000803e3d6000fd5b505050506040513d601f19601f8201168201806040525081019062000b7c91906200253e565b15151462000bc1576040517f08c379a000000000000000000000000000000000000000000000000000000000815260040162000bb89062002bdc565b60405180910390fd5b600062000bce8362001833565b905060011515600860008373ffffffffffffffffffffffffffffffffffffffff1673ffffffffffffffffffffffffffffffffffffffff16815260200190815260200160002060009054906101000a900460ff1615151462000c66576040517f08c379a000000000000000000000000000000000000000000000000000000000815260040162000c5d9062002a66565b60405180910390fd5b60001515600960008373ffffffffffffffffffffffffffffffffffffffff1673ffffffffffffffffffffffffffffffffffffffff16815260200190815260200160002060009054906101000a900460ff1615151462000cfc576040517f08c379a000000000000000000000000000000000000000000000000000000000815260040162000cf39062002acc565b60405180910390fd5b6002546003541062000d45576040517f08c379a000000000000000000000000000000000000000000000000000000000815260040162000d3c9062002a88565b60405180910390fd5b6001600960008373ffffffffffffffffffffffffffffffffffffffff1673ffffffffffffffffffffffffffffffffffffffff16815260200190815260200160002060006101000a81548160ff021916908315150217905550600160035462000dae919062002c92565b6003819055506006819080600181540180825580915050600190039060005260206000200160009091909190916101000a81548173ffffffffffffffffffffffffffffffffffffffff021916908373ffffffffffffffffffffffffffffffffffffffff1602179055508073ffffffffffffffffffffffffffffffffffffffff167ff21aa98dc310425cc8b86ef0a55117a759c433acf6c59d51f09ac1782a645cf860405160405180910390a2505050565b60025481565b600160009054906101000a900473ffffffffffffffffffffffffffffffffffffffff1673ffffffffffffffffffffffffffffffffffffffff163373ffffffffffffffffffffffffffffffffffffffff16148062000f77575062000ec762002041565b73ffffffffffffffffffffffffffffffffffffffff166398fabd3a6040518163ffffffff1660e01b815260040160206040518083038186803b15801562000f0d57600080fd5b505afa15801562000f22573d6000803e3d6000fd5b505050506040513d601f19601f8201168201806040525081019062000f48919062002512565b73ffffffffffffffffffffffffffffffffffffffff163373ffffffffffffffffffffffffffffffffffffffff16145b62000f8157600080fd5b6000811162000fc7576040517f08c379a000000000000000000000000000000000000000000000000000000000815260040162000fbe9062002aee565b60405180910390fd5b8060028190555050565b600060011515600860008473ffffffffffffffffffffffffffffffffffffffff1673ffffffffffffffffffffffffffffffffffffffff16815260200190815260200160002060009054906101000a900460ff16151514156200103757600190506200103c565b600090505b919050565b6000600680549050905090565b600160009054906101000a900473ffffffffffffffffffffffffffffffffffffffff1673ffffffffffffffffffffffffffffffffffffffff163373ffffffffffffffffffffffffffffffffffffffff161480620011605750620010b062002041565b73ffffffffffffffffffffffffffffffffffffffff166398fabd3a6040518163ffffffff1660e01b815260040160206040518083038186803b158015620010f657600080fd5b505afa1580156200110b573d6000803e3d6000fd5b505050506040513d601f19601f8201168201806040525081019062001131919062002512565b73ffffffffffffffffffffffffffffffffffffffff163373ffffffffffffffffffffffffffffffffffffffff16145b6200116a57600080fd5b7f000000000000000000000000000000000000000000000000000000000000000073ffffffffffffffffffffffffffffffffffffffff168173ffffffffffffffffffffffffffffffffffffffff161415620011fc576040517f08c379a0000000000000000000000000000000000000000000000000000000008152600401620011f39062002aee565b60405180910390fd5b6000620012098262001833565b905060011515600960008373ffffffffffffffffffffffffffffffffffffffff1673ffffffffffffffffffffffffffffffffffffffff16815260200190815260200160002060009054906101000a900460ff16151514620012a1576040517f08c379a0000000000000000000000000000000000000000000000000000000008152600401620012989062002bfe565b60405180910390fd5b6000600960008373ffffffffffffffffffffffffffffffffffffffff1673ffffffffffffffffffffffffffffffffffffffff16815260200190815260200160002060006101000a81548160ff02191690831515021790555060016003546200130a919062002cef565b60038190555060005b6006805490508110156200153c578173ffffffffffffffffffffffffffffffffffffffff166006828154811062001373577f4e487b7100000000000000000000000000000000000000000000000000000000600052603260045260246000fd5b9060005260206000200160009054906101000a900473ffffffffffffffffffffffffffffffffffffffff1673ffffffffffffffffffffffffffffffffffffffff161415620015265760066001600680549050620013d1919062002cef565b8154811062001409577f4e487b7100000000000000000000000000000000000000000000000000000000600052603260045260246000fd5b9060005260206000200160009054906101000a900473ffffffffffffffffffffffffffffffffffffffff16600682815481106200146f577f4e487b7100000000000000000000000000000000000000000000000000000000600052603260045260246000fd5b9060005260206000200160006101000a81548173ffffffffffffffffffffffffffffffffffffffff021916908373ffffffffffffffffffffffffffffffffffffffff1602179055506006805480620014f0577f4e487b7100000000000000000000000000000000000000000000000000000000600052603160045260246000fd5b6001900381819060005260206000200160006101000a81549073ffffffffffffffffffffffffffffffffffffffff021916905590555b8080620015339062002d95565b91505062001313565b506200154762002041565b73ffffffffffffffffffffffffffffffffffffffff1663b93ec54b6040518163ffffffff1660e01b815260040160206040518083038186803b1580156200158d57600080fd5b505afa158015620015a2573d6000803e3d6000fd5b505050506040513d601f19601f82011682018060405250810190620015c8919062002512565b73ffffffffffffffffffffffffffffffffffffffff166335a7ede6836040518263ffffffff1660e01b815260040162001602919062002971565b600060405180830381600087803b1580156200161d57600080fd5b505af115801562001632573d6000803e3d6000fd5b505050508073ffffffffffffffffffffffffffffffffffffffff167fe0e122d7131ec0f49556c4f88f13ed2b7f6624d0b88edd40870fa8715cab8b1c60405160405180910390a25050565b60035481565b60096020528060005260406000206000915054906101000a900460ff1681565b7f000000000000000000000000000000000000000000000000000000000000000081565b60006004828154811062001704577f4e487b7100000000000000000000000000000000000000000000000000000000600052603260045260246000fd5b9060005260206000200160009054906101000a900473ffffffffffffffffffffffffffffffffffffffff169050919050565b600481815481106200174757600080fd5b906000526020600020016000915054906101000a900473ffffffffffffffffffffffffffffffffffffffff1681565b6000600580549050905090565b60086020528060005260406000206000915054906101000a900460ff1681565b606060068054806020026020016040519081016040528092919081815260200182805480156200182957602002820191906000526020600020905b8160009054906101000a900473ffffffffffffffffffffffffffffffffffffffff1673ffffffffffffffffffffffffffffffffffffffff1681526020019060010190808311620017de575b5050505050905090565b60008073ffffffffffffffffffffffffffffffffffffffff168273ffffffffffffffffffffffffffffffffffffffff161415620018f257600760007f000000000000000000000000000000000000000000000000000000000000000073ffffffffffffffffffffffffffffffffffffffff1673ffffffffffffffffffffffffffffffffffffffff16815260200190815260200160002060009054906101000a900473ffffffffffffffffffffffffffffffffffffffff16905062001955565b600760008373ffffffffffffffffffffffffffffffffffffffff1673ffffffffffffffffffffffffffffffffffffffff16815260200190815260200160002060009054906101000a900473ffffffffffffffffffffffffffffffffffffffff1690505b919050565b600160009054906101000a900473ffffffffffffffffffffffffffffffffffffffff1681565b60007f000000000000000000000000000000000000000000000000000000000000000073ffffffffffffffffffffffffffffffffffffffff168273ffffffffffffffffffffffffffffffffffffffff16141562001a14576040517f08c379a000000000000000000000000000000000000000000000000000000000815260040162001a0b9062002aee565b60405180910390fd5b600073ffffffffffffffffffffffffffffffffffffffff1662001a378362001833565b73ffffffffffffffffffffffffffffffffffffffff161462001a90576040517f08c379a000000000000000000000000000000000000000000000000000000000815260040162001a879062002b32565b60405180910390fd5b60008311801562001aab575069021e19e0c9bab24000008410155b62001aed576040517f08c379a000000000000000000000000000000000000000000000000000000000815260040162001ae49062002b54565b60405180910390fd5b600080839050600073ffffffffffffffffffffffffffffffffffffffff168473ffffffffffffffffffffffffffffffffffffffff16141562001b52577f0000000000000000000000000000000000000000000000000000000000000000905062001c76565b7f000000000000000000000000000000000000000000000000000000000000000073ffffffffffffffffffffffffffffffffffffffff168473ffffffffffffffffffffffffffffffffffffffff161415801562001c33575060128473ffffffffffffffffffffffffffffffffffffffff1663313ce5676040518163ffffffff1660e01b815260040160206040518083038186803b15801562001bf357600080fd5b505afa15801562001c08573d6000803e3d6000fd5b505050506040513d601f19601f8201168201806040525081019062001c2e919062002644565b60ff16145b62001c75576040517f08c379a000000000000000000000000000000000000000000000000000000000815260040162001c6c9062002b98565b60405180910390fd5b5b7f00000000000000000000000000000000000000000000000000000000000000008160405162001ca69062002437565b62001cb39291906200298e565b604051809103906000f08015801562001cd0573d6000803e3d6000fd5b50915081925082600760008373ffffffffffffffffffffffffffffffffffffffff1673ffffffffffffffffffffffffffffffffffffffff16815260200190815260200160002060006101000a81548173ffffffffffffffffffffffffffffffffffffffff021916908373ffffffffffffffffffffffffffffffffffffffff16021790555062001d817f00000000000000000000000000000000000000000000000000000000000000008785620020ea565b62001d8e848685620020ea565b6004839080600181540180825580915050600190039060005260206000200160009091909190916101000a81548173ffffffffffffffffffffffffffffffffffffffff021916908373ffffffffffffffffffffffffffffffffffffffff1602179055506005819080600181540180825580915050600190039060005260206000200160009091909190916101000a81548173ffffffffffffffffffffffffffffffffffffffff021916908373ffffffffffffffffffffffffffffffffffffffff1602179055506001600860008573ffffffffffffffffffffffffffffffffffffffff1673ffffffffffffffffffffffffffffffffffffffff16815260200190815260200160002060006101000a81548160ff0219169083151502179055508273ffffffffffffffffffffffffffffffffffffffff168173ffffffffffffffffffffffffffffffffffffffff167fdbd2a1ea6808362e6adbec4db4969cbc11e3b0b28fb6c74cb342defaaf1daada60405160405180910390a38273ffffffffffffffffffffffffffffffffffffffff166386d5f618336040518263ffffffff1660e01b815260040162001f41919062002971565b602060405180830381600087803b15801562001f5c57600080fd5b505af115801562001f71573d6000803e3d6000fd5b505050506040513d601f19601f8201168201806040525081019062001f979190620025c2565b5050509392505050565b60006005828154811062001fde577f4e487b7100000000000000000000000000000000000000000000000000000000600052603260045260246000fd5b9060005260206000200160009054906101000a900473ffffffffffffffffffffffffffffffffffffffff169050919050565b7f000000000000000000000000000000000000000000000000000000000000000081565b6000600480549050905090565b60007f000000000000000000000000000000000000000000000000000000000000000073ffffffffffffffffffffffffffffffffffffffff166398fabd3a6040518163ffffffff1660e01b815260040160206040518083038186803b158015620020aa57600080fd5b505afa158015620020bf573d6000803e3d6000fd5b505050506040513d601f19601f82011682018060405250810190620020e591906200256a565b905090565b6002600054141562002133576040517f08c379a00000000000000000000000000000000000000000000000000000000081526004016200212a9062002bba565b60405180910390fd5b60026000819055506000821162002181576040517f08c379a0000000000000000000000000000000000000000000000000000000008152600401620021789062002b76565b60405180910390fd5b600073ffffffffffffffffffffffffffffffffffffffff168373ffffffffffffffffffffffffffffffffffffffff1614156200235257348214620021c457600080fd5b60007f000000000000000000000000000000000000000000000000000000000000000073ffffffffffffffffffffffffffffffffffffffff16836040516200220c906200295a565b60006040518083038185875af1925050503d80600081146200224b576040519150601f19603f3d011682016040523d82523d6000602084013e62002250565b606091505b505090508062002297576040517f08c379a00000000000000000000000000000000000000000000000000000000081526004016200228e9062002aaa565b60405180910390fd5b7f000000000000000000000000000000000000000000000000000000000000000073ffffffffffffffffffffffffffffffffffffffff1663a9059cbb83856040518363ffffffff1660e01b8152600401620022f4929190620029f8565b602060405180830381600087803b1580156200230f57600080fd5b505af115801562002324573d6000803e3d6000fd5b505050506040513d601f19601f820116820180604052508101906200234a91906200253e565b50506200242a565b8273ffffffffffffffffffffffffffffffffffffffff166323b872dd3383856040518463ffffffff1660e01b81526004016200239193929190620029bb565b602060405180830381600087803b158015620023ac57600080fd5b505af1158015620023c1573d6000803e3d6000fd5b505050506040513d601f19601f82011682018060405250810190620023e791906200253e565b62002429576040517f08c379a0000000000000000000000000000000000000000000000000000000008152600401620024209062002b10565b60405180910390fd5b5b6001600081905550505050565b61726180620030ad83390190565b60008135905062002456816200302a565b92915050565b6000815190506200246d816200302a565b92915050565b600081519050620024848162003044565b92915050565b6000815190506200249b816200305e565b92915050565b600081359050620024b28162003078565b92915050565b600081519050620024c98162003078565b92915050565b600081519050620024e08162003092565b92915050565b600060208284031215620024f957600080fd5b6000620025098482850162002445565b91505092915050565b6000602082840312156200252557600080fd5b600062002535848285016200245c565b91505092915050565b6000602082840312156200255157600080fd5b6000620025618482850162002473565b91505092915050565b6000602082840312156200257d57600080fd5b60006200258d848285016200248a565b91505092915050565b600060208284031215620025a957600080fd5b6000620025b984828501620024a1565b91505092915050565b600060208284031215620025d557600080fd5b6000620025e584828501620024b8565b91505092915050565b6000806000606084860312156200260457600080fd5b60006200261486828701620024a1565b93505060206200262786828701620024a1565b92505060406200263a8682870162002445565b9150509250925092565b6000602082840312156200265757600080fd5b60006200266784828501620024cf565b91505092915050565b60006200267e83836200268a565b60208301905092915050565b620026958162002d2a565b82525050565b620026a68162002d2a565b82525050565b6000620026b98262002c4d565b620026c5818562002c65565b9350620026d28362002c3d565b8060005b8381101562002709578151620026ed888262002670565b9750620026fa8362002c58565b925050600181019050620026d6565b5085935050505092915050565b620027218162002d3e565b82525050565b60006200273660058362002c81565b9150620027438262002e12565b602082019050919050565b60006200275d600a8362002c81565b91506200276a8262002e3b565b602082019050919050565b60006200278460058362002c81565b9150620027918262002e64565b602082019050919050565b6000620027ab60098362002c81565b9150620027b88262002e8d565b602082019050919050565b6000620027d260068362002c81565b9150620027df8262002eb6565b602082019050919050565b6000620027f960098362002c81565b9150620028068262002edf565b602082019050919050565b60006200282060048362002c81565b91506200282d8262002f08565b602082019050919050565b60006200284760008362002c76565b9150620028548262002f31565b600082019050919050565b60006200286e60048362002c81565b91506200287b8262002f34565b602082019050919050565b60006200289560048362002c81565b9150620028a28262002f5d565b602082019050919050565b6000620028bc60098362002c81565b9150620028c98262002f86565b602082019050919050565b6000620028e3601f8362002c81565b9150620028f08262002faf565b602082019050919050565b60006200290a60048362002c81565b9150620029178262002fd8565b602082019050919050565b60006200293160088362002c81565b91506200293e8262003001565b602082019050919050565b620029548162002d7e565b82525050565b6000620029678262002838565b9150819050919050565b60006020820190506200298860008301846200269b565b92915050565b6000604082019050620029a560008301856200269b565b620029b460208301846200269b565b9392505050565b6000606082019050620029d260008301866200269b565b620029e160208301856200269b565b620029f0604083018462002949565b949350505050565b600060408201905062002a0f60008301856200269b565b62002a1e602083018462002949565b9392505050565b6000602082019050818103600083015262002a418184620026ac565b905092915050565b600060208201905062002a60600083018462002716565b92915050565b6000602082019050818103600083015262002a818162002727565b9050919050565b6000602082019050818103600083015262002aa3816200274e565b9050919050565b6000602082019050818103600083015262002ac58162002775565b9050919050565b6000602082019050818103600083015262002ae7816200279c565b9050919050565b6000602082019050818103600083015262002b0981620027c3565b9050919050565b6000602082019050818103600083015262002b2b81620027ea565b9050919050565b6000602082019050818103600083015262002b4d8162002811565b9050919050565b6000602082019050818103600083015262002b6f816200285f565b9050919050565b6000602082019050818103600083015262002b918162002886565b9050919050565b6000602082019050818103600083015262002bb381620028ad565b9050919050565b6000602082019050818103600083015262002bd581620028d4565b9050919050565b6000602082019050818103600083015262002bf781620028fb565b9050919050565b6000602082019050818103600083015262002c198162002922565b9050919050565b600060208201905062002c37600083018462002949565b92915050565b6000819050602082019050919050565b600081519050919050565b6000602082019050919050565b600082825260208201905092915050565b600081905092915050565b600082825260208201905092915050565b600062002c9f8262002d7e565b915062002cac8362002d7e565b9250827fffffffffffffffffffffffffffffffffffffffffffffffffffffffffffffffff0382111562002ce45762002ce362002de3565b5b828201905092915050565b600062002cfc8262002d7e565b915062002d098362002d7e565b92508282101562002d1f5762002d1e62002de3565b5b828203905092915050565b600062002d378262002d5e565b9050919050565b60008115159050919050565b600062002d578262002d2a565b9050919050565b600073ffffffffffffffffffffffffffffffffffffffff82169050919050565b6000819050919050565b600060ff82169050919050565b600062002da28262002d7e565b91507fffffffffffffffffffffffffffffffffffffffffffffffffffffffffffffffff82141562002dd85762002dd762002de3565b5b600182019050919050565b7f4e487b7100000000000000000000000000000000000000000000000000000000600052601160045260246000fd5b7f21504f4f4c000000000000000000000000000000000000000000000000000000600082015250565b7f6d61784375726174656400000000000000000000000000000000000000000000600082015250565b7f2173656e64000000000000000000000000000000000000000000000000000000600082015250565b7f6973437572617465640000000000000000000000000000000000000000000000600082015250565b7f2156414c49440000000000000000000000000000000000000000000000000000600082015250565b7f217472616e736665720000000000000000000000000000000000000000000000600082015250565b7f214e455700000000000000000000000000000000000000000000000000000000600082015250565b50565b7f214d494e00000000000000000000000000000000000000000000000000000000600082015250565b7f2147415300000000000000000000000000000000000000000000000000000000600082015250565b7f21444543494d414c530000000000000000000000000000000000000000000000600082015250565b7f5265656e7472616e637947756172643a207265656e7472616e742063616c6c00600082015250565b7f4f50454e00000000000000000000000000000000000000000000000000000000600082015250565b7f2143555241544544000000000000000000000000000000000000000000000000600082015250565b620030358162002d2a565b81146200304157600080fd5b50565b6200304f8162002d3e565b81146200305b57600080fd5b50565b620030698162002d4a565b81146200307557600080fd5b50565b620030838162002d7e565b81146200308f57600080fd5b50565b6200309d8162002d88565b8114620030a957600080fd5b5056fe6101006040523480156200001257600080fd5b50604051620072613803806200726183398181016040528101906200003891906200053d565b6001600081905550600073ffffffffffffffffffffffffffffffffffffffff168273ffffffffffffffffffffffffffffffffffffffff161415620000b3576040517f08c379a0000000000000000000000000000000000000000000000000000000008152600401620000aa9062000649565b60405180910390fd5b600073ffffffffffffffffffffffffffffffffffffffff168173ffffffffffffffffffffffffffffffffffffffff16141562000126576040517f08c379a00000000000000000000000000000000000000000000000000000000081526004016200011d9062000649565b60405180910390fd5b8173ffffffffffffffffffffffffffffffffffffffff1660808173ffffffffffffffffffffffffffffffffffffffff1660601b815250508073ffffffffffffffffffffffffffffffffffffffff1660a08173ffffffffffffffffffffffffffffffffffffffff1660601b8152505060006040518060400160405280601481526020017f2d5370617274616e50726f746f636f6c506f6f6c000000000000000000000000815250905060006040518060400160405280600481526020017f2d5350500000000000000000000000000000000000000000000000000000000081525090508273ffffffffffffffffffffffffffffffffffffffff166306fdde036040518163ffffffff1660e01b815260040160006040518083038186803b1580156200024f57600080fd5b505afa15801562000264573d6000803e3d6000fd5b505050506040513d6000823e3d601f19601f820116820180604052508101906200028f91906200057e565b82604051602001620002a392919062000621565b604051602081830303815290604052600e9080519060200190620002c992919062000404565b508273ffffffffffffffffffffffffffffffffffffffff166395d89b416040518163ffffffff1660e01b815260040160006040518083038186803b1580156200031157600080fd5b505afa15801562000326573d6000803e3d6000fd5b505050506040513d6000823e3d601f19601f820116820180604052508101906200035191906200057e565b816040516020016200036592919062000621565b604051602081830303815290604052600f90805190602001906200038b92919062000404565b50601260ff1660c08160ff1660f81b815250504260e08181525050610bb8600181905550610bb860058190555069152d02c7e14af68000006002819055504260048190555060016007819055506101f4600a819055506000600b81905550603c600881905550613840600c819055505050505062000879565b82805462000412906200075b565b90600052602060002090601f01602090048101928262000436576000855562000482565b82601f106200045157805160ff191683800117855562000482565b8280016001018555821562000482579182015b828111156200048157825182559160200191906001019062000464565b5b50905062000491919062000495565b5090565b5b80821115620004b057600081600090555060010162000496565b5090565b6000620004cb620004c58462000694565b6200066b565b905082815260208101848484011115620004e457600080fd5b620004f184828562000725565b509392505050565b6000815190506200050a816200085f565b92915050565b600082601f8301126200052257600080fd5b815162000534848260208601620004b4565b91505092915050565b600080604083850312156200055157600080fd5b60006200056185828601620004f9565b92505060206200057485828601620004f9565b9150509250929050565b6000602082840312156200059157600080fd5b600082015167ffffffffffffffff811115620005ac57600080fd5b620005ba8482850162000510565b91505092915050565b6000620005d082620006ca565b620005dc8185620006e6565b9350620005ee81856020860162000725565b80840191505092915050565b600062000609600583620006d5565b9150620006168262000836565b602082019050919050565b60006200062f8285620005c3565b91506200063d8284620005c3565b91508190509392505050565b600060208201905081810360008301526200066481620005fa565b9050919050565b6000620006776200068a565b905062000685828262000791565b919050565b6000604051905090565b600067ffffffffffffffff821115620006b257620006b1620007f6565b5b620006bd8262000825565b9050602081019050919050565b600081519050919050565b600082825260208201905092915050565b600081905092915050565b6000620006fe8262000705565b9050919050565b600073ffffffffffffffffffffffffffffffffffffffff82169050919050565b60005b838110156200074557808201518184015260208101905062000728565b8381111562000755576000848401525b50505050565b600060028204905060018216806200077457607f821691505b602082108114156200078b576200078a620007c7565b5b50919050565b6200079c8262000825565b810181811067ffffffffffffffff82111715620007be57620007bd620007f6565b5b80604052505050565b7f4e487b7100000000000000000000000000000000000000000000000000000000600052602260045260246000fd5b7f4e487b7100000000000000000000000000000000000000000000000000000000600052604160045260246000fd5b6000601f19601f8301169050919050565b7f215a45524f000000000000000000000000000000000000000000000000000000600082015250565b6200086a81620006f1565b81146200087657600080fd5b50565b60805160601c60a05160601c60c05160f81c60e05161691962000948600039600081816124e401526129d40152600061122d015260008181610cdf01528181610dc501528181611bfc01528181612ba201528181612d34015281816136b501528181613e3b015281816146d301528181614c6e01526151d6015260008181610c8a01528181610d7101528181610e080152818161207901528181612af301528181612c480152818161343e015281816137470152818161462401528181614bc80152614f2d01526169196000f3fe608060405234801561001057600080fd5b506004361061027e5760003560e01c8063752d77931161015c578063bc5dedc9116100ce578063ec342ad011610087578063ec342ad0146107e4578063eec7faa114610802578063f0337cdc14610820578063f1bbdef214610850578063fb19536314610881578063fff6cae91461089d5761027e565b8063bc5dedc9146106f8578063cbbcf80214610729578063d98c4a4614610747578063dbfc5a0414610765578063dd62ed3e14610796578063e1eddde3146107c65761027e565b806399d786ca1161012057806399d786ca146106245780639d3f87e214610642578063a457c2d71461065e578063a7f0b3de1461068e578063a9059cbb146106ac578063ba8e3edd146106dc5761027e565b8063752d77931461057e5780637ec3eae51461059c57806382bfefc8146105b857806386d5f618146105d657806395d89b41146106065761027e565b806339509351116101f557806350f9844a116101b957806350f9844a146104a65780635f83e5d5146104c457806361cc24bb146104e257806362a5af3b1461051257806370a082311461053057806370f93cdf146105605761027e565b8063395093511461040257806342966c681461043257806346c678431461044e578063474e73021461046c5780634864d140146104885761027e565b806323b872dd1161024757806323b872dd1461032b5780632783e4a91461035b57806328ea0adc1461038c578063308aca1d146103aa578063313ce567146103c657806333ca78e4146103e45761027e565b8062aea7451461028357806306fdde03146102a1578063095ea7b3146102bf57806314c025c6146102ef57806318160ddd1461030d575b600080fd5b61028b6108a7565b60405161029891906161a5565b60405180910390f35b6102a96108ad565b6040516102b69190615f63565b60405180910390f35b6102d960048036038101906102d49190615b33565b61093f565b6040516102e69190615f48565b60405180910390f35b6102f7610956565b60405161030491906161a5565b60405180910390f35b61031561095c565b60405161032291906161a5565b60405180910390f35b61034560048036038101906103409190615ae4565b610962565b6040516103529190615f48565b60405180910390f35b61037560048036038101906103709190615aa8565b610a55565b604051610383929190616220565b60405180910390f35b610394610f9a565b6040516103a191906161a5565b60405180910390f35b6103c460048036038101906103bf9190615bc1565b610fa0565b005b6103ce61122b565b6040516103db9190616318565b60405180910390f35b6103ec61124f565b6040516103f991906161a5565b60405180910390f35b61041c60048036038101906104179190615b33565b611255565b6040516104299190615f48565b60405180910390f35b61044c60048036038101906104479190615bc1565b6112f3565b005b610456611492565b60405161046391906161a5565b60405180910390f35b61048660048036038101906104819190615bc1565b611498565b005b610490611717565b60405161049d91906161a5565b60405180910390f35b6104ae61171d565b6040516104bb91906161a5565b60405180910390f35b6104cc611723565b6040516104d991906161a5565b60405180910390f35b6104fc60048036038101906104f79190615a56565b611729565b60405161050991906161a5565b60405180910390f35b61051a611908565b6040516105279190615f48565b60405180910390f35b61054a60048036038101906105459190615a56565b61191b565b60405161055791906161a5565b60405180910390f35b610568611964565b60405161057591906161a5565b60405180910390f35b61058661196a565b60405161059391906161a5565b60405180910390f35b6105b660048036038101906105b19190615bc1565b611970565b005b6105c0611bfa565b6040516105cd9190615edb565b60405180910390f35b6105f060048036038101906105eb9190615a56565b611c1e565b6040516105fd91906161a5565b60405180910390f35b61060e61212a565b60405161061b9190615f63565b60405180910390f35b61062c6121bc565b60405161063991906161a5565b60405180910390f35b61065c60048036038101906106579190615bc1565b6121c2565b005b61067860048036038101906106739190615b33565b6123fc565b6040516106859190615f48565b60405180910390f35b6106966124e2565b6040516106a391906161a5565b60405180910390f35b6106c660048036038101906106c19190615b33565b612506565b6040516106d39190615f48565b60405180910390f35b6106f660048036038101906106f19190615bc1565b61251d565b005b610712600480360381019061070d9190615a56565b61279c565b604051610720929190616220565b60405180910390f35b610731612e77565b60405161073e91906161a5565b60405180910390f35b61074f612e7d565b60405161075c91906161a5565b60405180910390f35b61077f600480360381019061077a9190615a56565b612e83565b60405161078d929190616220565b60405180910390f35b6107b060048036038101906107ab9190615aa8565b61358a565b6040516107bd91906161a5565b60405180910390f35b6107ce613611565b6040516107db9190615edb565b60405180910390f35b6107ec613745565b6040516107f99190615edb565b60405180910390f35b61080a613769565b60405161081791906161a5565b60405180910390f35b61083a60048036038101906108359190615bc1565b61376f565b60405161084791906161a5565b60405180910390f35b61086a60048036038101906108659190615a56565b613793565b604051610878929190616220565b60405180910390f35b61089b60048036038101906108969190615bc1565b61413f565b005b6108a56143f2565b005b600b5481565b6060600e80546108bc906164fe565b80601f01602080910402602001604051908101604052809291908181526020018280546108e8906164fe565b80156109355780601f1061090a57610100808354040283529160200191610935565b820191906000526020600020905b81548152906001019060200180831161091857829003601f168201915b5050505050905090565b600061094c338484614782565b6001905092915050565b600a5481565b60105481565b600061096f84848461494d565b6000601260008673ffffffffffffffffffffffffffffffffffffffff1673ffffffffffffffffffffffffffffffffffffffff16815260200190815260200160002060003373ffffffffffffffffffffffffffffffffffffffff1673ffffffffffffffffffffffffffffffffffffffff16815260200190815260200160002054905082811015610a33576040517f08c379a0000000000000000000000000000000000000000000000000000000008152600401610a2a90615fc5565b60405180910390fd5b610a4985338584610a449190616430565b614782565b60019150509392505050565b600080610a60614bc4565b73ffffffffffffffffffffffffffffffffffffffff166332fe7b266040518163ffffffff1660e01b815260040160206040518083038186803b158015610aa557600080fd5b505afa158015610ab9573d6000803e3d6000fd5b505050506040513d601f19601f82011682018060405250810190610add9190615a7f565b73ffffffffffffffffffffffffffffffffffffffff163373ffffffffffffffffffffffffffffffffffffffff161480610bc55750610b19614bc4565b73ffffffffffffffffffffffffffffffffffffffff16632ab24e496040518163ffffffff1660e01b815260040160206040518083038186803b158015610b5e57600080fd5b505afa158015610b72573d6000803e3d6000fd5b505050506040513d601f19601f82011682018060405250810190610b969190615a7f565b73ffffffffffffffffffffffffffffffffffffffff163373ffffffffffffffffffffffffffffffffffffffff16145b80610c7f5750610bd3614bc4565b73ffffffffffffffffffffffffffffffffffffffff1663b99b0a0c6040518163ffffffff1660e01b815260040160206040518083038186803b158015610c1857600080fd5b505afa158015610c2c573d6000803e3d6000fd5b505050506040513d601f19601f82011682018060405250810190610c509190615a7f565b73ffffffffffffffffffffffffffffffffffffffff163373ffffffffffffffffffffffffffffffffffffffff16145b610c8857600080fd5b7f000000000000000000000000000000000000000000000000000000000000000073ffffffffffffffffffffffffffffffffffffffff168473ffffffffffffffffffffffffffffffffffffffff161480610d2d57507f000000000000000000000000000000000000000000000000000000000000000073ffffffffffffffffffffffffffffffffffffffff168473ffffffffffffffffffffffffffffffffffffffff16145b610d6c576040517f08c379a0000000000000000000000000000000000000000000000000000000008152600401610d6390616025565b60405180910390fd5b6000807f000000000000000000000000000000000000000000000000000000000000000073ffffffffffffffffffffffffffffffffffffffff168673ffffffffffffffffffffffffffffffffffffffff161415610e06577f00000000000000000000000000000000000000000000000000000000000000009150610dee614c69565b9050610df981614d3f565b8094508195505050610e45565b7f00000000000000000000000000000000000000000000000000000000000000009150610e31614f28565b9050610e3c81614ffe565b80945081955050505b8473ffffffffffffffffffffffffffffffffffffffff168673ffffffffffffffffffffffffffffffffffffffff168373ffffffffffffffffffffffffffffffffffffffff167fc9163c3bdf7263acf1bb3d24072cc7da025f7181c31e2edc7e1673edf5e0ca32848888604051610ebd93929190616249565b60405180910390a48573ffffffffffffffffffffffffffffffffffffffff1663a9059cbb86866040518363ffffffff1660e01b8152600401610f00929190615f1f565b602060405180830381600087803b158015610f1a57600080fd5b505af1158015610f2e573d6000803e3d6000fd5b505050506040513d601f19601f82011682018060405250810190610f529190615b6f565b610f91576040517f08c379a0000000000000000000000000000000000000000000000000000000008152600401610f8890616105565b60405180910390fd5b50509250929050565b600d5481565b610fa8614bc4565b73ffffffffffffffffffffffffffffffffffffffff166332fe7b266040518163ffffffff1660e01b815260040160206040518083038186803b158015610fed57600080fd5b505afa158015611001573d6000803e3d6000fd5b505050506040513d601f19601f820116820180604052508101906110259190615a7f565b73ffffffffffffffffffffffffffffffffffffffff163373ffffffffffffffffffffffffffffffffffffffff16148061110d5750611061614bc4565b73ffffffffffffffffffffffffffffffffffffffff16632ab24e496040518163ffffffff1660e01b815260040160206040518083038186803b1580156110a657600080fd5b505afa1580156110ba573d6000803e3d6000fd5b505050506040513d601f19601f820116820180604052508101906110de9190615a7f565b73ffffffffffffffffffffffffffffffffffffffff163373ffffffffffffffffffffffffffffffffffffffff16145b806111c7575061111b614bc4565b73ffffffffffffffffffffffffffffffffffffffff1663b99b0a0c6040518163ffffffff1660e01b815260040160206040518083038186803b15801561116057600080fd5b505afa158015611174573d6000803e3d6000fd5b505050506040513d601f19601f820116820180604052508101906111989190615a7f565b73ffffffffffffffffffffffffffffffffffffffff163373ffffffffffffffffffffffffffffffffffffffff16145b6111d057600080fd5b60fa811015806111e25750610bb88111155b611221576040517f08c379a0000000000000000000000000000000000000000000000000000000008152600401611218906160e5565b60405180910390fd5b80600a8190555050565b7f000000000000000000000000000000000000000000000000000000000000000081565b60015481565b60006112e9338484601260003373ffffffffffffffffffffffffffffffffffffffff1673ffffffffffffffffffffffffffffffffffffffff16815260200190815260200160002060008873ffffffffffffffffffffffffffffffffffffffff1673ffffffffffffffffffffffffffffffffffffffff168152602001908152602001600020546112e4919061634f565b614782565b6001905092915050565b6112fb613611565b73ffffffffffffffffffffffffffffffffffffffff163373ffffffffffffffffffffffffffffffffffffffff161461133257600080fd5b61133a614bc4565b73ffffffffffffffffffffffffffffffffffffffff1663b93ec54b6040518163ffffffff1660e01b815260040160206040518083038186803b15801561137f57600080fd5b505afa158015611393573d6000803e3d6000fd5b505050506040513d601f19601f820116820180604052508101906113b79190615a7f565b73ffffffffffffffffffffffffffffffffffffffff16635e0237ea6113da613611565b6040518263ffffffff1660e01b81526004016113f69190615edb565b60206040518083038186803b15801561140e57600080fd5b505afa158015611422573d6000803e3d6000fd5b505050506040513d601f19601f820116820180604052508101906114469190615b6f565b611485576040517f08c379a000000000000000000000000000000000000000000000000000000000815260040161147c90616045565b60405180910390fd5b61148f3382615297565b50565b60085481565b6114a0614bc4565b73ffffffffffffffffffffffffffffffffffffffff166332fe7b266040518163ffffffff1660e01b815260040160206040518083038186803b1580156114e557600080fd5b505afa1580156114f9573d6000803e3d6000fd5b505050506040513d601f19601f8201168201806040525081019061151d9190615a7f565b73ffffffffffffffffffffffffffffffffffffffff163373ffffffffffffffffffffffffffffffffffffffff1614806116055750611559614bc4565b73ffffffffffffffffffffffffffffffffffffffff16632ab24e496040518163ffffffff1660e01b815260040160206040518083038186803b15801561159e57600080fd5b505afa1580156115b2573d6000803e3d6000fd5b505050506040513d601f19601f820116820180604052508101906115d69190615a7f565b73ffffffffffffffffffffffffffffffffffffffff163373ffffffffffffffffffffffffffffffffffffffff16145b806116bf5750611613614bc4565b73ffffffffffffffffffffffffffffffffffffffff1663b99b0a0c6040518163ffffffff1660e01b815260040160206040518083038186803b15801561165857600080fd5b505afa15801561166c573d6000803e3d6000fd5b505050506040513d601f19601f820116820180604052508101906116909190615a7f565b73ffffffffffffffffffffffffffffffffffffffff163373ffffffffffffffffffffffffffffffffffffffff16145b6116c857600080fd5b610bb881111561170d576040517f08c379a000000000000000000000000000000000000000000000000000000000815260040161170490615fa5565b60405180910390fd5b8060018190555050565b60135481565b60095481565b60165481565b60008061271060015460145461173f91906163d6565b61174991906163a5565b90506000818473ffffffffffffffffffffffffffffffffffffffff166318160ddd6040518163ffffffff1660e01b815260040160206040518083038186803b15801561179457600080fd5b505afa1580156117a8573d6000803e3d6000fd5b505050506040513d601f19601f820116820180604052508101906117cc9190615bea565b106117da5760009250611866565b8373ffffffffffffffffffffffffffffffffffffffff166318160ddd6040518163ffffffff1660e01b815260040160206040518083038186803b15801561182057600080fd5b505afa158015611834573d6000803e3d6000fd5b505050506040513d601f19601f820116820180604052508101906118589190615bea565b826118639190616430565b90505b6000600b5414156118aa5742600b8190555042600d819055506008548161188d91906163a5565b600981905550600954600c546118a391906163d6565b92506118ce565b6000600b54426118ba9190616430565b9050600954816118ca91906163d6565b9350505b600854600d546118de919061634f565b42111561190157600854816118f391906163a5565b60098190555042600d819055505b5050919050565b600660009054906101000a900460ff1681565b6000601160008373ffffffffffffffffffffffffffffffffffffffff1673ffffffffffffffffffffffffffffffffffffffff168152602001908152602001600020549050919050565b60075481565b60175481565b611978614bc4565b73ffffffffffffffffffffffffffffffffffffffff166332fe7b266040518163ffffffff1660e01b815260040160206040518083038186803b1580156119bd57600080fd5b505afa1580156119d1573d6000803e3d6000fd5b505050506040513d601f19601f820116820180604052508101906119f59190615a7f565b73ffffffffffffffffffffffffffffffffffffffff163373ffffffffffffffffffffffffffffffffffffffff161480611add5750611a31614bc4565b73ffffffffffffffffffffffffffffffffffffffff16632ab24e496040518163ffffffff1660e01b815260040160206040518083038186803b158015611a7657600080fd5b505afa158015611a8a573d6000803e3d6000fd5b505050506040513d601f19601f82011682018060405250810190611aae9190615a7f565b73ffffffffffffffffffffffffffffffffffffffff163373ffffffffffffffffffffffffffffffffffffffff16145b80611b975750611aeb614bc4565b73ffffffffffffffffffffffffffffffffffffffff1663b99b0a0c6040518163ffffffff1660e01b815260040160206040518083038186803b158015611b3057600080fd5b505afa158015611b44573d6000803e3d6000fd5b505050506040513d601f19601f82011682018060405250810190611b689190615a7f565b73ffffffffffffffffffffffffffffffffffffffff163373ffffffffffffffffffffffffffffffffffffffff16145b611ba057600080fd5b60028054611bae91906163d6565b811115611bf0576040517f08c379a0000000000000000000000000000000000000000000000000000000008152600401611be790615fa5565b60405180910390fd5b8060028190555050565b7f000000000000000000000000000000000000000000000000000000000000000081565b6000611c28614bc4565b73ffffffffffffffffffffffffffffffffffffffff166332fe7b266040518163ffffffff1660e01b815260040160206040518083038186803b158015611c6d57600080fd5b505afa158015611c81573d6000803e3d6000fd5b505050506040513d601f19601f82011682018060405250810190611ca59190615a7f565b73ffffffffffffffffffffffffffffffffffffffff163373ffffffffffffffffffffffffffffffffffffffff161480611d8d5750611ce1614bc4565b73ffffffffffffffffffffffffffffffffffffffff16632ab24e496040518163ffffffff1660e01b815260040160206040518083038186803b158015611d2657600080fd5b505afa158015611d3a573d6000803e3d6000fd5b505050506040513d601f19601f82011682018060405250810190611d5e9190615a7f565b73ffffffffffffffffffffffffffffffffffffffff163373ffffffffffffffffffffffffffffffffffffffff16145b80611e475750611d9b614bc4565b73ffffffffffffffffffffffffffffffffffffffff1663b99b0a0c6040518163ffffffff1660e01b815260040160206040518083038186803b158015611de057600080fd5b505afa158015611df4573d6000803e3d6000fd5b505050506040513d601f19601f82011682018060405250810190611e189190615a7f565b73ffffffffffffffffffffffffffffffffffffffff163373ffffffffffffffffffffffffffffffffffffffff16145b611e5057600080fd5b6000611e5a614f28565b905060025481601354611e6d919061634f565b10611ead576040517f08c379a0000000000000000000000000000000000000000000000000000000008152600401611ea490616125565b60405180910390fd5b6000611eb7614c69565b9050611ec1614bc4565b73ffffffffffffffffffffffffffffffffffffffff16637b0e5c456040518163ffffffff1660e01b815260040160206040518083038186803b158015611f0657600080fd5b505afa158015611f1a573d6000803e3d6000fd5b505050506040513d601f19601f82011682018060405250810190611f3e9190615a7f565b73ffffffffffffffffffffffffffffffffffffffff1663c5c11ee983601354846014546010546040518663ffffffff1660e01b8152600401611f849594939291906162c5565b60206040518083038186803b158015611f9c57600080fd5b505afa158015611fb0573d6000803e3d6000fd5b505050506040513d601f19601f82011682018060405250810190611fd49190615bea565b925060006013541480611fe957506000601454145b156120bd5768056bc75e2d63100000821015801561200957506127108110155b612048576040517f08c379a000000000000000000000000000000000000000000000000000000000815260040161203f90615fe5565b60405180910390fd5b600061271084606461205a91906163d6565b61206491906163a5565b905080846120729190616430565b935061209e7f000000000000000000000000000000000000000000000000000000000000000082615461565b8183846120ab91906163d6565b6120b591906163a5565b600381905550505b6120c782826155aa565b6120d18484615461565b8373ffffffffffffffffffffffffffffffffffffffff167fbeb3885786d637a474cbc287c0a44587231633a077f0bd30354d5a4b18996fce83838660405161211b93929190616249565b60405180910390a25050919050565b6060600f8054612139906164fe565b80601f0160208091040260200160405190810160405280929190818152602001828054612165906164fe565b80156121b25780601f10612187576101008083540402835291602001916121b2565b820191906000526020600020905b81548152906001019060200180831161219557829003601f168201915b5050505050905090565b60155481565b6121ca614bc4565b73ffffffffffffffffffffffffffffffffffffffff166332fe7b266040518163ffffffff1660e01b815260040160206040518083038186803b15801561220f57600080fd5b505afa158015612223573d6000803e3d6000fd5b505050506040513d601f19601f820116820180604052508101906122479190615a7f565b73ffffffffffffffffffffffffffffffffffffffff163373ffffffffffffffffffffffffffffffffffffffff16148061232f5750612283614bc4565b73ffffffffffffffffffffffffffffffffffffffff16632ab24e496040518163ffffffff1660e01b815260040160206040518083038186803b1580156122c857600080fd5b505afa1580156122dc573d6000803e3d6000fd5b505050506040513d601f19601f820116820180604052508101906123009190615a7f565b73ffffffffffffffffffffffffffffffffffffffff163373ffffffffffffffffffffffffffffffffffffffff16145b806123e9575061233d614bc4565b73ffffffffffffffffffffffffffffffffffffffff1663b99b0a0c6040518163ffffffff1660e01b815260040160206040518083038186803b15801561238257600080fd5b505afa158015612396573d6000803e3d6000fd5b505050506040513d601f19601f820116820180604052508101906123ba9190615a7f565b73ffffffffffffffffffffffffffffffffffffffff163373ffffffffffffffffffffffffffffffffffffffff16145b6123f257600080fd5b8060058190555050565b600080601260003373ffffffffffffffffffffffffffffffffffffffff1673ffffffffffffffffffffffffffffffffffffffff16815260200190815260200160002060008573ffffffffffffffffffffffffffffffffffffffff1673ffffffffffffffffffffffffffffffffffffffff168152602001908152602001600020549050828110156124c1576040517f08c379a00000000000000000000000000000000000000000000000000000000081526004016124b890615fc5565b60405180910390fd5b6124d7338585846124d29190616430565b614782565b600191505092915050565b7f000000000000000000000000000000000000000000000000000000000000000081565b600061251333848461494d565b6001905092915050565b612525614bc4565b73ffffffffffffffffffffffffffffffffffffffff166332fe7b266040518163ffffffff1660e01b815260040160206040518083038186803b15801561256a57600080fd5b505afa15801561257e573d6000803e3d6000fd5b505050506040513d601f19601f820116820180604052508101906125a29190615a7f565b73ffffffffffffffffffffffffffffffffffffffff163373ffffffffffffffffffffffffffffffffffffffff16148061268a57506125de614bc4565b73ffffffffffffffffffffffffffffffffffffffff16632ab24e496040518163ffffffff1660e01b815260040160206040518083038186803b15801561262357600080fd5b505afa158015612637573d6000803e3d6000fd5b505050506040513d601f19601f8201168201806040525081019061265b9190615a7f565b73ffffffffffffffffffffffffffffffffffffffff163373ffffffffffffffffffffffffffffffffffffffff16145b806127445750612698614bc4565b73ffffffffffffffffffffffffffffffffffffffff1663b99b0a0c6040518163ffffffff1660e01b815260040160206040518083038186803b1580156126dd57600080fd5b505afa1580156126f1573d6000803e3d6000fd5b505050506040513d601f19601f820116820180604052508101906127159190615a7f565b73ffffffffffffffffffffffffffffffffffffffff163373ffffffffffffffffffffffffffffffffffffffff16145b61274d57600080fd5b62093a808110612792576040517f08c379a0000000000000000000000000000000000000000000000000000000008152600401612789906160e5565b60405180910390fd5b8060078190555050565b6000806127a7614bc4565b73ffffffffffffffffffffffffffffffffffffffff166332fe7b266040518163ffffffff1660e01b815260040160206040518083038186803b1580156127ec57600080fd5b505afa158015612800573d6000803e3d6000fd5b505050506040513d601f19601f820116820180604052508101906128249190615a7f565b73ffffffffffffffffffffffffffffffffffffffff163373ffffffffffffffffffffffffffffffffffffffff16148061290c5750612860614bc4565b73ffffffffffffffffffffffffffffffffffffffff16632ab24e496040518163ffffffff1660e01b815260040160206040518083038186803b1580156128a557600080fd5b505afa1580156128b9573d6000803e3d6000fd5b505050506040513d601f19601f820116820180604052508101906128dd9190615a7f565b73ffffffffffffffffffffffffffffffffffffffff163373ffffffffffffffffffffffffffffffffffffffff16145b806129c6575061291a614bc4565b73ffffffffffffffffffffffffffffffffffffffff1663b99b0a0c6040518163ffffffff1660e01b815260040160206040518083038186803b15801561295f57600080fd5b505afa158015612973573d6000803e3d6000fd5b505050506040513d601f19601f820116820180604052508101906129979190615a7f565b73ffffffffffffffffffffffffffffffffffffffff163373ffffffffffffffffffffffffffffffffffffffff16145b6129cf57600080fd5b6007547f00000000000000000000000000000000000000000000000000000000000000006129fd919061634f565b4211612a3e576040517f08c379a0000000000000000000000000000000000000000000000000000000008152600401612a3590616165565b60405180910390fd5b6000612a493061191b565b90506000612a55614bc4565b73ffffffffffffffffffffffffffffffffffffffff16637b0e5c456040518163ffffffff1660e01b815260040160206040518083038186803b158015612a9a57600080fd5b505afa158015612aae573d6000803e3d6000fd5b505050506040513d601f19601f82011682018060405250810190612ad29190615a7f565b90508073ffffffffffffffffffffffffffffffffffffffff16635a7b2ed3837f0000000000000000000000000000000000000000000000000000000000000000306040518463ffffffff1660e01b8152600401612b31939291906161e9565b60206040518083038186803b158015612b4957600080fd5b505afa158015612b5d573d6000803e3d6000fd5b505050506040513d601f19601f82011682018060405250810190612b819190615bea565b93508073ffffffffffffffffffffffffffffffffffffffff16635a7b2ed3837f0000000000000000000000000000000000000000000000000000000000000000306040518463ffffffff1660e01b8152600401612be0939291906161e9565b60206040518083038186803b158015612bf857600080fd5b505afa158015612c0c573d6000803e3d6000fd5b505050506040513d601f19601f82011682018060405250810190612c309190615bea565b9250612c3c84846155e8565b612c463083615297565b7f000000000000000000000000000000000000000000000000000000000000000073ffffffffffffffffffffffffffffffffffffffff1663a9059cbb86866040518363ffffffff1660e01b8152600401612ca1929190615f1f565b602060405180830381600087803b158015612cbb57600080fd5b505af1158015612ccf573d6000803e3d6000fd5b505050506040513d601f19601f82011682018060405250810190612cf39190615b6f565b612d32576040517f08c379a0000000000000000000000000000000000000000000000000000000008152600401612d2990616105565b60405180910390fd5b7f000000000000000000000000000000000000000000000000000000000000000073ffffffffffffffffffffffffffffffffffffffff1663a9059cbb86856040518363ffffffff1660e01b8152600401612d8d929190615f1f565b602060405180830381600087803b158015612da757600080fd5b505af1158015612dbb573d6000803e3d6000fd5b505050506040513d601f19601f82011682018060405250810190612ddf9190615b6f565b612e1e576040517f08c379a0000000000000000000000000000000000000000000000000000000008152600401612e1590616105565b60405180910390fd5b8473ffffffffffffffffffffffffffffffffffffffff167f59c3a0b60c6ab7deb62e1440c9e72441db6db7dfe514dba8cb18e60c0d896efa858585604051612e6893929190616249565b60405180910390a25050915091565b60025481565b600c5481565b600080612e8e614bc4565b73ffffffffffffffffffffffffffffffffffffffff166332fe7b266040518163ffffffff1660e01b815260040160206040518083038186803b158015612ed357600080fd5b505afa158015612ee7573d6000803e3d6000fd5b505050506040513d601f19601f82011682018060405250810190612f0b9190615a7f565b73ffffffffffffffffffffffffffffffffffffffff163373ffffffffffffffffffffffffffffffffffffffff161480612ff35750612f47614bc4565b73ffffffffffffffffffffffffffffffffffffffff16632ab24e496040518163ffffffff1660e01b815260040160206040518083038186803b158015612f8c57600080fd5b505afa158015612fa0573d6000803e3d6000fd5b505050506040513d601f19601f82011682018060405250810190612fc49190615a7f565b73ffffffffffffffffffffffffffffffffffffffff163373ffffffffffffffffffffffffffffffffffffffff16145b806130ad5750613001614bc4565b73ffffffffffffffffffffffffffffffffffffffff1663b99b0a0c6040518163ffffffff1660e01b815260040160206040518083038186803b15801561304657600080fd5b505afa15801561305a573d6000803e3d6000fd5b505050506040513d601f19601f8201168201806040525081019061307e9190615a7f565b73ffffffffffffffffffffffffffffffffffffffff163373ffffffffffffffffffffffffffffffffffffffff16145b6130b657600080fd5b60006130c0613611565b9050600073ffffffffffffffffffffffffffffffffffffffff168173ffffffffffffffffffffffffffffffffffffffff161415613132576040517f08c379a0000000000000000000000000000000000000000000000000000000008152600401613129906160c5565b60405180910390fd5b600061313c614bc4565b73ffffffffffffffffffffffffffffffffffffffff16637b0e5c456040518163ffffffff1660e01b815260040160206040518083038186803b15801561318157600080fd5b505afa158015613195573d6000803e3d6000fd5b505050506040513d601f19601f820116820180604052508101906131b99190615a7f565b905060008273ffffffffffffffffffffffffffffffffffffffff166370a08231306040518263ffffffff1660e01b81526004016131f69190615edb565b60206040518083038186803b15801561320e57600080fd5b505afa158015613222573d6000803e3d6000fd5b505050506040513d601f19601f820116820180604052508101906132469190615bea565b905060008273ffffffffffffffffffffffffffffffffffffffff1663701baaf3836014546013546040518463ffffffff1660e01b815260040161328b93929190616249565b60206040518083038186803b1580156132a357600080fd5b505afa1580156132b7573d6000803e3d6000fd5b505050506040513d601f19601f820116820180604052508101906132db9190615bea565b9050600061271061251c836132f091906163d6565b6132fa91906163a5565b90508373ffffffffffffffffffffffffffffffffffffffff1663896a708c846014546013546040518463ffffffff1660e01b815260040161333d93929190616249565b60206040518083038186803b15801561335557600080fd5b505afa158015613369573d6000803e3d6000fd5b505050506040513d601f19601f8201168201806040525081019061338d9190615bea565b955061339a8160006155e8565b6133a386615626565b60008573ffffffffffffffffffffffffffffffffffffffff166386450495856040518263ffffffff1660e01b81526004016133de91906161a5565b602060405180830381600087803b1580156133f857600080fd5b505af115801561340c573d6000803e3d6000fd5b505050506040513d601f19601f820116820180604052508101906134309190615bea565b905061343c8682615297565b7f000000000000000000000000000000000000000000000000000000000000000073ffffffffffffffffffffffffffffffffffffffff1663a9059cbb8a846040518363ffffffff1660e01b8152600401613497929190615f1f565b602060405180830381600087803b1580156134b157600080fd5b505af11580156134c5573d6000803e3d6000fd5b505050506040513d601f19601f820116820180604052508101906134e99190615b6f565b613528576040517f08c379a000000000000000000000000000000000000000000000000000000000815260040161351f90616105565b60405180910390fd5b8873ffffffffffffffffffffffffffffffffffffffff167f6f3ac8cc4850a948dddb5c85957bbaadcbea6e4b2cef3f02f6af53fcf2596f568383878b6040516135749493929190616280565b60405180910390a2819750505050505050915091565b6000601260008473ffffffffffffffffffffffffffffffffffffffff1673ffffffffffffffffffffffffffffffffffffffff16815260200190815260200160002060008373ffffffffffffffffffffffffffffffffffffffff1673ffffffffffffffffffffffffffffffffffffffff16815260200190815260200160002054905092915050565b600061361b614bc4565b73ffffffffffffffffffffffffffffffffffffffff1663b93ec54b6040518163ffffffff1660e01b815260040160206040518083038186803b15801561366057600080fd5b505afa158015613674573d6000803e3d6000fd5b505050506040513d601f19601f820116820180604052508101906136989190615a7f565b73ffffffffffffffffffffffffffffffffffffffff1663dcec81167f00000000000000000000000000000000000000000000000000000000000000006040518263ffffffff1660e01b81526004016136f09190615edb565b60206040518083038186803b15801561370857600080fd5b505afa15801561371c573d6000803e3d6000fd5b505050506040513d601f19601f820116820180604052508101906137409190615a7f565b905090565b7f000000000000000000000000000000000000000000000000000000000000000081565b60145481565b6018818154811061377f57600080fd5b906000526020600020016000915090505481565b60008061379e614bc4565b73ffffffffffffffffffffffffffffffffffffffff166332fe7b266040518163ffffffff1660e01b815260040160206040518083038186803b1580156137e357600080fd5b505afa1580156137f7573d6000803e3d6000fd5b505050506040513d601f19601f8201168201806040525081019061381b9190615a7f565b73ffffffffffffffffffffffffffffffffffffffff163373ffffffffffffffffffffffffffffffffffffffff1614806139035750613857614bc4565b73ffffffffffffffffffffffffffffffffffffffff16632ab24e496040518163ffffffff1660e01b815260040160206040518083038186803b15801561389c57600080fd5b505afa1580156138b0573d6000803e3d6000fd5b505050506040513d601f19601f820116820180604052508101906138d49190615a7f565b73ffffffffffffffffffffffffffffffffffffffff163373ffffffffffffffffffffffffffffffffffffffff16145b806139bd5750613911614bc4565b73ffffffffffffffffffffffffffffffffffffffff1663b99b0a0c6040518163ffffffff1660e01b815260040160206040518083038186803b15801561395657600080fd5b505afa15801561396a573d6000803e3d6000fd5b505050506040513d601f19601f8201168201806040525081019061398e9190615a7f565b73ffffffffffffffffffffffffffffffffffffffff163373ffffffffffffffffffffffffffffffffffffffff16145b6139c657600080fd5b60006139d0613611565b90506139da614bc4565b73ffffffffffffffffffffffffffffffffffffffff1663b93ec54b6040518163ffffffff1660e01b815260040160206040518083038186803b158015613a1f57600080fd5b505afa158015613a33573d6000803e3d6000fd5b505050506040513d601f19601f82011682018060405250810190613a579190615a7f565b73ffffffffffffffffffffffffffffffffffffffff16635e0237ea826040518263ffffffff1660e01b8152600401613a8f9190615edb565b60206040518083038186803b158015613aa757600080fd5b505afa158015613abb573d6000803e3d6000fd5b505050506040513d601f19601f82011682018060405250810190613adf9190615b6f565b613b1e576040517f08c379a0000000000000000000000000000000000000000000000000000000008152600401613b15906160c5565b60405180910390fd5b6000613b28614bc4565b73ffffffffffffffffffffffffffffffffffffffff16637b0e5c456040518163ffffffff1660e01b815260040160206040518083038186803b158015613b6d57600080fd5b505afa158015613b81573d6000803e3d6000fd5b505050506040513d601f19601f82011682018060405250810190613ba59190615a7f565b90506000613bb1614f28565b905060025481601354613bc4919061634f565b10613c04576040517f08c379a0000000000000000000000000000000000000000000000000000000008152600401613bfb90616125565b60405180910390fd5b6000613c0f84611729565b90508273ffffffffffffffffffffffffffffffffffffffff1663701baaf3836013546014546040518463ffffffff1660e01b8152600401613c5293929190616249565b60206040518083038186803b158015613c6a57600080fd5b505afa158015613c7e573d6000803e3d6000fd5b505050506040513d601f19601f82011682018060405250810190613ca29190615bea565b955080861115613ce7576040517f08c379a0000000000000000000000000000000000000000000000000000000008152600401613cde90616065565b60405180910390fd5b42600b8190555060008373ffffffffffffffffffffffffffffffffffffffff1663b86a82ef84306040518363ffffffff1660e01b8152600401613d2b9291906161c0565b60206040518083038186803b158015613d4357600080fd5b505afa158015613d57573d6000803e3d6000fd5b505050506040513d601f19601f82011682018060405250810190613d7b9190615bea565b9050613d888360006155aa565b60008473ffffffffffffffffffffffffffffffffffffffff1663896a708c856013546014546040518463ffffffff1660e01b8152600401613dcb93929190616249565b60206040518083038186803b158015613de357600080fd5b505afa158015613df7573d6000803e3d6000fd5b505050506040513d601f19601f82011682018060405250810190613e1b9190615bea565b90508473ffffffffffffffffffffffffffffffffffffffff1663c19387df7f0000000000000000000000000000000000000000000000000000000000000000836040518363ffffffff1660e01b8152600401613e78929190615f1f565b60206040518083038186803b158015613e9057600080fd5b505afa158015613ea4573d6000803e3d6000fd5b505050506040513d601f19601f82011682018060405250810190613ec89190615bea565b9650613ed48683615461565b8573ffffffffffffffffffffffffffffffffffffffff166332f302e3613ef8614bc4565b73ffffffffffffffffffffffffffffffffffffffff16632ab24e496040518163ffffffff1660e01b815260040160206040518083038186803b158015613f3d57600080fd5b505afa158015613f51573d6000803e3d6000fd5b505050506040513d601f19601f82011682018060405250810190613f759190615a7f565b8a6040518363ffffffff1660e01b8152600401613f93929190615f1f565b602060405180830381600087803b158015613fad57600080fd5b505af1158015613fc1573d6000803e3d6000fd5b505050506040513d601f19601f82011682018060405250810190613fe59190615bea565b50613fee614bc4565b73ffffffffffffffffffffffffffffffffffffffff16632ab24e496040518163ffffffff1660e01b815260040160206040518083038186803b15801561403357600080fd5b505afa158015614047573d6000803e3d6000fd5b505050506040513d601f19601f8201168201806040525081019061406b9190615a7f565b73ffffffffffffffffffffffffffffffffffffffff16634335a95c878b6040518363ffffffff1660e01b81526004016140a5929190615ef6565b600060405180830381600087803b1580156140bf57600080fd5b505af11580156140d3573d6000803e3d6000fd5b505050506140e087615626565b8873ffffffffffffffffffffffffffffffffffffffff167fbaff1e38597e99ccc6d6abf0e271a32ee3dc24114ea5bec3f05afd9bbb19f1f585848b8b60405161412c9493929190616280565b60405180910390a2505050505050915091565b614147614bc4565b73ffffffffffffffffffffffffffffffffffffffff166332fe7b266040518163ffffffff1660e01b815260040160206040518083038186803b15801561418c57600080fd5b505afa1580156141a0573d6000803e3d6000fd5b505050506040513d601f19601f820116820180604052508101906141c49190615a7f565b73ffffffffffffffffffffffffffffffffffffffff163373ffffffffffffffffffffffffffffffffffffffff1614806142ac5750614200614bc4565b73ffffffffffffffffffffffffffffffffffffffff16632ab24e496040518163ffffffff1660e01b815260040160206040518083038186803b15801561424557600080fd5b505afa158015614259573d6000803e3d6000fd5b505050506040513d601f19601f8201168201806040525081019061427d9190615a7f565b73ffffffffffffffffffffffffffffffffffffffff163373ffffffffffffffffffffffffffffffffffffffff16145b8061436657506142ba614bc4565b73ffffffffffffffffffffffffffffffffffffffff1663b99b0a0c6040518163ffffffff1660e01b815260040160206040518083038186803b1580156142ff57600080fd5b505afa158015614313573d6000803e3d6000fd5b505050506040513d601f19601f820116820180604052508101906143379190615a7f565b73ffffffffffffffffffffffffffffffffffffffff163373ffffffffffffffffffffffffffffffffffffffff16145b61436f57600080fd5b61024481106143b3576040517f08c379a00000000000000000000000000000000000000000000000000000000081526004016143aa906160e5565b60405180910390fd5b600660009054906101000a900460ff1615600660006101000a81548160ff02191690831515021790555080426143e9919061634f565b60048190555050565b6143fa614bc4565b73ffffffffffffffffffffffffffffffffffffffff166398fabd3a6040518163ffffffff1660e01b815260040160206040518083038186803b15801561443f57600080fd5b505afa158015614453573d6000803e3d6000fd5b505050506040513d601f19601f820116820180604052508101906144779190615a7f565b73ffffffffffffffffffffffffffffffffffffffff163373ffffffffffffffffffffffffffffffffffffffff16148061455f57506144b3614bc4565b73ffffffffffffffffffffffffffffffffffffffff166332fe7b266040518163ffffffff1660e01b815260040160206040518083038186803b1580156144f857600080fd5b505afa15801561450c573d6000803e3d6000fd5b505050506040513d601f19601f820116820180604052508101906145309190615a7f565b73ffffffffffffffffffffffffffffffffffffffff163373ffffffffffffffffffffffffffffffffffffffff16145b80614619575061456d614bc4565b73ffffffffffffffffffffffffffffffffffffffff16632ab24e496040518163ffffffff1660e01b815260040160206040518083038186803b1580156145b257600080fd5b505afa1580156145c6573d6000803e3d6000fd5b505050506040513d601f19601f820116820180604052508101906145ea9190615a7f565b73ffffffffffffffffffffffffffffffffffffffff163373ffffffffffffffffffffffffffffffffffffffff16145b61462257600080fd5b7f000000000000000000000000000000000000000000000000000000000000000073ffffffffffffffffffffffffffffffffffffffff166370a08231306040518263ffffffff1660e01b815260040161467b9190615edb565b60206040518083038186803b15801561469357600080fd5b505afa1580156146a7573d6000803e3d6000fd5b505050506040513d601f19601f820116820180604052508101906146cb9190615bea565b6013819055507f000000000000000000000000000000000000000000000000000000000000000073ffffffffffffffffffffffffffffffffffffffff166370a08231306040518263ffffffff1660e01b815260040161472a9190615edb565b60206040518083038186803b15801561474257600080fd5b505afa158015614756573d6000803e3d6000fd5b505050506040513d601f19601f8201168201806040525081019061477a9190615bea565b601481905550565b600073ffffffffffffffffffffffffffffffffffffffff168373ffffffffffffffffffffffffffffffffffffffff1614156147f2576040517f08c379a00000000000000000000000000000000000000000000000000000000081526004016147e990616185565b60405180910390fd5b600073ffffffffffffffffffffffffffffffffffffffff168273ffffffffffffffffffffffffffffffffffffffff161415614862576040517f08c379a0000000000000000000000000000000000000000000000000000000008152600401614859906160a5565b60405180910390fd5b80601260008573ffffffffffffffffffffffffffffffffffffffff1673ffffffffffffffffffffffffffffffffffffffff16815260200190815260200160002060008473ffffffffffffffffffffffffffffffffffffffff1673ffffffffffffffffffffffffffffffffffffffff168152602001908152602001600020819055508173ffffffffffffffffffffffffffffffffffffffff168373ffffffffffffffffffffffffffffffffffffffff167f8c5be1e5ebec7d5bd14f71427d1e84f3dd0314c0f7b2291e5b200ac8c7c3b9258360405161494091906161a5565b60405180910390a3505050565b600073ffffffffffffffffffffffffffffffffffffffff168373ffffffffffffffffffffffffffffffffffffffff1614156149bd576040517f08c379a00000000000000000000000000000000000000000000000000000000081526004016149b490616145565b60405180910390fd5b600073ffffffffffffffffffffffffffffffffffffffff168273ffffffffffffffffffffffffffffffffffffffff161415614a2d576040517f08c379a0000000000000000000000000000000000000000000000000000000008152600401614a2490616085565b60405180910390fd5b6000601160008573ffffffffffffffffffffffffffffffffffffffff1673ffffffffffffffffffffffffffffffffffffffff16815260200190815260200160002054905081811015614ab4576040517f08c379a0000000000000000000000000000000000000000000000000000000008152600401614aab90616005565b60405180910390fd5b8181614ac09190616430565b601160008673ffffffffffffffffffffffffffffffffffffffff1673ffffffffffffffffffffffffffffffffffffffff1681526020019081526020016000208190555081601160008573ffffffffffffffffffffffffffffffffffffffff1673ffffffffffffffffffffffffffffffffffffffff1681526020019081526020016000206000828254614b52919061634f565b925050819055508273ffffffffffffffffffffffffffffffffffffffff168473ffffffffffffffffffffffffffffffffffffffff167fddf252ad1be2c89b69c2b068fc378daa952ba7f163c4a11628f55a4df523b3ef84604051614bb691906161a5565b60405180910390a350505050565b60007f000000000000000000000000000000000000000000000000000000000000000073ffffffffffffffffffffffffffffffffffffffff166398fabd3a6040518163ffffffff1660e01b815260040160206040518083038186803b158015614c2c57600080fd5b505afa158015614c40573d6000803e3d6000fd5b505050506040513d601f19601f82011682018060405250810190614c649190615b98565b905090565b6000807f000000000000000000000000000000000000000000000000000000000000000073ffffffffffffffffffffffffffffffffffffffff166370a08231306040518263ffffffff1660e01b8152600401614cc59190615edb565b60206040518083038186803b158015614cdd57600080fd5b505afa158015614cf1573d6000803e3d6000fd5b505050506040513d601f19601f82011682018060405250810190614d159190615bea565b9050601454811115614d365760145481614d2f9190616430565b9150614d3b565b600091505b5090565b60008060006014549050600060135490506000614d5a614bc4565b73ffffffffffffffffffffffffffffffffffffffff16637b0e5c456040518163ffffffff1660e01b815260040160206040518083038186803b158015614d9f57600080fd5b505afa158015614db3573d6000803e3d6000fd5b505050506040513d601f19601f82011682018060405250810190614dd79190615a7f565b90508073ffffffffffffffffffffffffffffffffffffffff1663701baaf38785856040518463ffffffff1660e01b8152600401614e1693929190616249565b60206040518083038186803b158015614e2e57600080fd5b505afa158015614e42573d6000803e3d6000fd5b505050506040513d601f19601f82011682018060405250810190614e669190615bea565b94508073ffffffffffffffffffffffffffffffffffffffff1663896a708c8785856040518463ffffffff1660e01b8152600401614ea593929190616249565b60206040518083038186803b158015614ebd57600080fd5b505afa158015614ed1573d6000803e3d6000fd5b505050506040513d601f19601f82011682018060405250810190614ef59190615bea565b9350614f178583614f069190616430565b8785614f12919061634f565b61568f565b614f2084615626565b505050915091565b6000807f000000000000000000000000000000000000000000000000000000000000000073ffffffffffffffffffffffffffffffffffffffff166370a08231306040518263ffffffff1660e01b8152600401614f849190615edb565b60206040518083038186803b158015614f9c57600080fd5b505afa158015614fb0573d6000803e3d6000fd5b505050506040513d601f19601f82011682018060405250810190614fd49190615bea565b9050601354811115614ff55760135481614fee9190616430565b9150614ffa565b600091505b5090565b60008060006013549050600060145490506000615019614bc4565b73ffffffffffffffffffffffffffffffffffffffff16637b0e5c456040518163ffffffff1660e01b815260040160206040518083038186803b15801561505e57600080fd5b505afa158015615072573d6000803e3d6000fd5b505050506040513d601f19601f820116820180604052508101906150969190615a7f565b90508073ffffffffffffffffffffffffffffffffffffffff1663701baaf38785856040518463ffffffff1660e01b81526004016150d593929190616249565b60206040518083038186803b1580156150ed57600080fd5b505afa158015615101573d6000803e3d6000fd5b505050506040513d601f19601f820116820180604052508101906151259190615bea565b945060008173ffffffffffffffffffffffffffffffffffffffff1663896a708c8886866040518463ffffffff1660e01b815260040161516693929190616249565b60206040518083038186803b15801561517e57600080fd5b505afa158015615192573d6000803e3d6000fd5b505050506040513d601f19601f820116820180604052508101906151b69190615bea565b90508173ffffffffffffffffffffffffffffffffffffffff1663c19387df7f0000000000000000000000000000000000000000000000000000000000000000836040518363ffffffff1660e01b8152600401615213929190615f1f565b60206040518083038186803b15801561522b57600080fd5b505afa15801561523f573d6000803e3d6000fd5b505050506040513d601f19601f820116820180604052508101906152639190615bea565b94506152858785615274919061634f565b87856152809190616430565b61568f565b61528e85615626565b50505050915091565b600073ffffffffffffffffffffffffffffffffffffffff168273ffffffffffffffffffffffffffffffffffffffff161415615307576040517f08c379a00000000000000000000000000000000000000000000000000000000081526004016152fe90615f85565b60405180910390fd5b6000601160008473ffffffffffffffffffffffffffffffffffffffff1673ffffffffffffffffffffffffffffffffffffffff1681526020019081526020016000205490508181101561538e576040517f08c379a000000000000000000000000000000000000000000000000000000000815260040161538590616005565b60405180910390fd5b818161539a9190616430565b601160008573ffffffffffffffffffffffffffffffffffffffff1673ffffffffffffffffffffffffffffffffffffffff1681526020019081526020016000208190555081601060008282546153ef9190616430565b92505081905550600073ffffffffffffffffffffffffffffffffffffffff168373ffffffffffffffffffffffffffffffffffffffff167fddf252ad1be2c89b69c2b068fc378daa952ba7f163c4a11628f55a4df523b3ef8460405161545491906161a5565b60405180910390a3505050565b600073ffffffffffffffffffffffffffffffffffffffff168273ffffffffffffffffffffffffffffffffffffffff1614156154d1576040517f08c379a00000000000000000000000000000000000000000000000000000000081526004016154c890615f85565b60405180910390fd5b80601060008282546154e3919061634f565b9250508190555080601160008473ffffffffffffffffffffffffffffffffffffffff1673ffffffffffffffffffffffffffffffffffffffff1681526020019081526020016000206000828254615539919061634f565b925050819055508173ffffffffffffffffffffffffffffffffffffffff16600073ffffffffffffffffffffffffffffffffffffffff167fddf252ad1be2c89b69c2b068fc378daa952ba7f163c4a11628f55a4df523b3ef8360405161559e91906161a5565b60405180910390a35050565b81601360008282546155bc919061634f565b9250508190555080601460008282546155d5919061634f565b925050819055506155e46156a9565b5050565b81601360008282546155fa9190616430565b9250508190555080601460008282546156139190616430565b925050819055506156226156a9565b5050565b6000601554141561563957426015819055505b62278d0060155461564a919061634f565b4211615669578060165461565e919061634f565b60168190555061568c565b426015819055506016546017819055506156846017546157f6565b806016819055505b50565b81601381905550806014819055506156a56156a9565b5050565b60006014546013546013546156be91906163d6565b6156c891906163a5565b905060006003548211156156eb57600354826156e49190616430565b90506156fc565b816003546156f99190616430565b90505b816127108261570b91906163d6565b61571591906163a5565b90506005548110615740576001600660006101000a81548160ff021916908315150217905550615767565b60045442111561576657610e1042615758919061634f565b600481905550816003819055505b5b600660009054906101000a900460ff16156157f25760055481116157a1576000600660006101000a81548160ff0219169083151502179055505b6004544211156157f157610e10426157b9919061634f565b60048190555060006004600380546157d191906163d6565b846157dc919061634f565b6157e691906163a5565b905080600381905550505b5b5050565b6000601880548060200260200160405190810160405280929190818152602001828054801561584457602002820191906000526020600020905b815481526020019060010190808311615830575b50505050509050600281511415615940578060018151811061588f577f4e487b7100000000000000000000000000000000000000000000000000000000600052603260045260246000fd5b6020026020010151816000815181106158d1577f4e487b7100000000000000000000000000000000000000000000000000000000600052603260045260246000fd5b6020026020010181815250508181600181518110615918577f4e487b7100000000000000000000000000000000000000000000000000000000600052603260045260246000fd5b602002602001018181525050806018908051906020019061593a92919061596e565b5061596a565b60188290806001815401808255809150506001900390600052602060002001600090919091909150555b5050565b8280548282559060005260206000209081019282156159aa579160200282015b828111156159a957825182559160200191906001019061598e565b5b5090506159b791906159bb565b5090565b5b808211156159d45760008160009055506001016159bc565b5090565b6000813590506159e781616887565b92915050565b6000815190506159fc81616887565b92915050565b600081519050615a118161689e565b92915050565b600081519050615a26816168b5565b92915050565b600081359050615a3b816168cc565b92915050565b600081519050615a50816168cc565b92915050565b600060208284031215615a6857600080fd5b6000615a76848285016159d8565b91505092915050565b600060208284031215615a9157600080fd5b6000615a9f848285016159ed565b91505092915050565b60008060408385031215615abb57600080fd5b6000615ac9858286016159d8565b9250506020615ada858286016159d8565b9150509250929050565b600080600060608486031215615af957600080fd5b6000615b07868287016159d8565b9350506020615b18868287016159d8565b9250506040615b2986828701615a2c565b9150509250925092565b60008060408385031215615b4657600080fd5b6000615b54858286016159d8565b9250506020615b6585828601615a2c565b9150509250929050565b600060208284031215615b8157600080fd5b6000615b8f84828501615a02565b91505092915050565b600060208284031215615baa57600080fd5b6000615bb884828501615a17565b91505092915050565b600060208284031215615bd357600080fd5b6000615be184828501615a2c565b91505092915050565b600060208284031215615bfc57600080fd5b6000615c0a84828501615a41565b91505092915050565b615c1c81616464565b82525050565b615c2b81616476565b82525050565b6000615c3c82616333565b615c46818561633e565b9350615c568185602086016164cb565b615c5f816165bd565b840191505092915050565b6000615c7760088361633e565b9150615c82826165ce565b602082019050919050565b6000615c9a60048361633e565b9150615ca5826165f7565b602082019050919050565b6000615cbd60098361633e565b9150615cc882616620565b602082019050919050565b6000615ce060098361633e565b9150615ceb82616649565b602082019050919050565b6000615d0360088361633e565b9150615d0e82616672565b602082019050919050565b6000615d26600c8361633e565b9150615d318261669b565b602082019050919050565b6000615d4960068361633e565b9150615d54826166c4565b602082019050919050565b6000615d6c60088361633e565b9150615d77826166ed565b602082019050919050565b6000615d8f60058361633e565b9150615d9a82616716565b602082019050919050565b6000615db260088361633e565b9150615dbd8261673f565b602082019050919050565b6000615dd560068361633e565b9150615de082616768565b602082019050919050565b6000615df860068361633e565b9150615e0382616791565b602082019050919050565b6000615e1b60098361633e565b9150615e26826167ba565b602082019050919050565b6000615e3e60038361633e565b9150615e49826167e3565b602082019050919050565b6000615e6160078361633e565b9150615e6c8261680c565b602082019050919050565b6000615e84600a8361633e565b9150615e8f82616835565b602082019050919050565b6000615ea760068361633e565b9150615eb28261685e565b602082019050919050565b615ec6816164b4565b82525050565b615ed5816164be565b82525050565b6000602082019050615ef06000830184615c13565b92915050565b6000604082019050615f0b6000830185615c13565b615f186020830184615c13565b9392505050565b6000604082019050615f346000830185615c13565b615f416020830184615ebd565b9392505050565b6000602082019050615f5d6000830184615c22565b92915050565b60006020820190508181036000830152615f7d8184615c31565b905092915050565b60006020820190508181036000830152615f9e81615c6a565b9050919050565b60006020820190508181036000830152615fbe81615c8d565b9050919050565b60006020820190508181036000830152615fde81615cb0565b9050919050565b60006020820190508181036000830152615ffe81615cd3565b9050919050565b6000602082019050818103600083015261601e81615cf6565b9050919050565b6000602082019050818103600083015261603e81615d19565b9050919050565b6000602082019050818103600083015261605e81615d3c565b9050919050565b6000602082019050818103600083015261607e81615d5f565b9050919050565b6000602082019050818103600083015261609e81615d82565b9050919050565b600060208201905081810360008301526160be81615da5565b9050919050565b600060208201905081810360008301526160de81615dc8565b9050919050565b600060208201905081810360008301526160fe81615deb565b9050919050565b6000602082019050818103600083015261611e81615e0e565b9050919050565b6000602082019050818103600083015261613e81615e31565b9050919050565b6000602082019050818103600083015261615e81615e54565b9050919050565b6000602082019050818103600083015261617e81615e77565b9050919050565b6000602082019050818103600083015261619e81615e9a565b9050919050565b60006020820190506161ba6000830184615ebd565b92915050565b60006040820190506161d56000830185615ebd565b6161e26020830184615c13565b9392505050565b60006060820190506161fe6000830186615ebd565b61620b6020830185615c13565b6162186040830184615c13565b949350505050565b60006040820190506162356000830185615ebd565b6162426020830184615ebd565b9392505050565b600060608201905061625e6000830186615ebd565b61626b6020830185615ebd565b6162786040830184615ebd565b949350505050565b60006080820190506162956000830187615ebd565b6162a26020830186615ebd565b6162af6040830185615ebd565b6162bc6060830184615ebd565b95945050505050565b600060a0820190506162da6000830188615ebd565b6162e76020830187615ebd565b6162f46040830186615ebd565b6163016060830185615ebd565b61630e6080830184615ebd565b9695505050505050565b600060208201905061632d6000830184615ecc565b92915050565b600081519050919050565b600082825260208201905092915050565b600061635a826164b4565b9150616365836164b4565b9250827fffffffffffffffffffffffffffffffffffffffffffffffffffffffffffffffff0382111561639a57616399616530565b5b828201905092915050565b60006163b0826164b4565b91506163bb836164b4565b9250826163cb576163ca61655f565b5b828204905092915050565b60006163e1826164b4565b91506163ec836164b4565b9250817fffffffffffffffffffffffffffffffffffffffffffffffffffffffffffffffff048311821515161561642557616424616530565b5b828202905092915050565b600061643b826164b4565b9150616446836164b4565b92508282101561645957616458616530565b5b828203905092915050565b600061646f82616494565b9050919050565b60008115159050919050565b600061648d82616464565b9050919050565b600073ffffffffffffffffffffffffffffffffffffffff82169050919050565b6000819050919050565b600060ff82169050919050565b60005b838110156164e95780820151818401526020810190506164ce565b838111156164f8576000848401525b50505050565b6000600282049050600182168061651657607f821691505b6020821081141561652a5761652961658e565b5b50919050565b7f4e487b7100000000000000000000000000000000000000000000000000000000600052601160045260246000fd5b7f4e487b7100000000000000000000000000000000000000000000000000000000600052601260045260246000fd5b7f4e487b7100000000000000000000000000000000000000000000000000000000600052602260045260246000fd5b6000601f19601f8301169050919050565b7f216163636f756e74000000000000000000000000000000000000000000000000600082015250565b7f214d415800000000000000000000000000000000000000000000000000000000600082015250565b7f21617070726f76616c0000000000000000000000000000000000000000000000600082015250565b7f2142616c616e6365640000000000000000000000000000000000000000000000600082015250565b7f2162616c616e6365000000000000000000000000000000000000000000000000600082015250565b7f21424153457c7c544f4b454e0000000000000000000000000000000000000000600082015250565b7f2153594e54480000000000000000000000000000000000000000000000000000600082015250565b7f2173746972726564000000000000000000000000000000000000000000000000600082015250565b7f214255524e000000000000000000000000000000000000000000000000000000600082015250565b7f217370656e646572000000000000000000000000000000000000000000000000600082015250565b7f2173796e74680000000000000000000000000000000000000000000000000000600082015250565b7f2156414c49440000000000000000000000000000000000000000000000000000600082015250565b7f217472616e736665720000000000000000000000000000000000000000000000600082015250565b7f5254430000000000000000000000000000000000000000000000000000000000600082015250565b7f2173656e64657200000000000000000000000000000000000000000000000000600082015250565b7f21494e4954494154454400000000000000000000000000000000000000000000600082015250565b7f216f776e65720000000000000000000000000000000000000000000000000000600082015250565b61689081616464565b811461689b57600080fd5b50565b6168a781616476565b81146168b257600080fd5b50565b6168be81616482565b81146168c957600080fd5b50565b6168d5816164b4565b81146168e057600080fd5b5056fea26469706673582212203bb89aa2de364d22924c8cec8b2b84608f078a3344bf88b8d2329ae31902e54f64736f6c63430008030033a2646970667358221220bfde3a7ca3d2a4f21f84d9457ea6baab9599026de53d1d3c7e6ea8a8be9920cd64736f6c63430008030033",
  "linkReferences": {},
  "deployedLinkReferences": {}
}