{
  "_format": "hh-sol-artifact-1",
  "contractName": "Utils",
  "sourceName": "contracts/UtilsV2.sol",
  "abi": [
    {
      "inputs": [
        {
          "internalType": "address",
          "name": "_base",
          "type": "address"
        }
      ],
      "stateMutability": "nonpayable",
      "type": "constructor"
    },
    {
      "inputs": [],
      "name": "BASE",
      "outputs": [
        {
          "internalType": "address",
          "name": "",
          "type": "address"
        }
      ],
      "stateMutability": "view",
      "type": "function"
    },
    {
      "inputs": [
        {
          "internalType": "uint256",
          "name": "bp",
          "type": "uint256"
        },
        {
          "internalType": "uint256",
          "name": "total",
          "type": "uint256"
        }
      ],
      "name": "calcPart",
      "outputs": [
        {
          "internalType": "uint256",
          "name": "",
          "type": "uint256"
        }
      ],
      "stateMutability": "pure",
      "type": "function"
    },
    {
      "inputs": [
        {
          "internalType": "uint256",
          "name": "part",
          "type": "uint256"
        },
        {
          "internalType": "uint256",
          "name": "total",
          "type": "uint256"
        },
        {
          "internalType": "uint256",
          "name": "amount",
          "type": "uint256"
        }
      ],
      "name": "calcShare",
      "outputs": [
        {
          "internalType": "uint256",
          "name": "share",
          "type": "uint256"
        }
      ],
      "stateMutability": "pure",
      "type": "function"
    },
    {
      "inputs": [
        {
          "internalType": "uint256",
          "name": "totalSupply",
          "type": "uint256"
        },
        {
          "internalType": "uint256",
          "name": "maxSupply",
          "type": "uint256"
        }
      ],
      "name": "getFeeOnTransfer",
      "outputs": [
        {
          "internalType": "uint256",
          "name": "",
          "type": "uint256"
        }
      ],
      "stateMutability": "pure",
      "type": "function"
    }
  ],
  "bytecode": "0x608060405234801561001057600080fd5b506040516105be3803806105be8339818101604052810190610032919061008d565b806000806101000a81548173ffffffffffffffffffffffffffffffffffffffff021916908373ffffffffffffffffffffffffffffffffffffffff160217905550506100ff565b600081519050610087816100e8565b92915050565b60006020828403121561009f57600080fd5b60006100ad84828501610078565b91505092915050565b60006100c1826100c8565b9050919050565b600073ffffffffffffffffffffffffffffffffffffffff82169050919050565b6100f1816100b6565b81146100fc57600080fd5b50565b6104b08061010e6000396000f3fe608060405234801561001057600080fd5b506004361061004c5760003560e01c80631ba326c414610051578063714270ab146100815780638b18b115146100b1578063ec342ad0146100e1575b600080fd5b61006b6004803603810190610066919061021e565b6100ff565b60405161007891906102e9565b60405180910390f35b61009b600480360381019061009691906101e2565b610137565b6040516100a891906102e9565b60405180910390f35b6100cb60048036038101906100c691906101e2565b610193565b6040516100d891906102e9565b60405180910390f35b6100e96101a9565b6040516100f691906102ae565b60405180910390f35b60008284111561010d578293505b6000831115610130578284836101239190610346565b61012d9190610315565b90505b9392505050565b600061271083111561017e576040517f08c379a0000000000000000000000000000000000000000000000000000000008152600401610175906102c9565b60405180910390fd5b61018b83612710846100ff565b905092915050565b60006101a1838360646100ff565b905092915050565b60008054906101000a900473ffffffffffffffffffffffffffffffffffffffff1681565b6000813590506101dc81610463565b92915050565b600080604083850312156101f557600080fd5b6000610203858286016101cd565b9250506020610214858286016101cd565b9150509250929050565b60008060006060848603121561023357600080fd5b6000610241868287016101cd565b9350506020610252868287016101cd565b9250506040610263868287016101cd565b9150509250925092565b610276816103a0565b82525050565b6000610289601283610304565b91506102948261043a565b602082019050919050565b6102a8816103d2565b82525050565b60006020820190506102c3600083018461026d565b92915050565b600060208201905081810360008301526102e28161027c565b9050919050565b60006020820190506102fe600083018461029f565b92915050565b600082825260208201905092915050565b6000610320826103d2565b915061032b836103d2565b92508261033b5761033a61040b565b5b828204905092915050565b6000610351826103d2565b915061035c836103d2565b9250817fffffffffffffffffffffffffffffffffffffffffffffffffffffffffffffffff0483118215151615610395576103946103dc565b5b828202905092915050565b60006103ab826103b2565b9050919050565b600073ffffffffffffffffffffffffffffffffffffffff82169050919050565b6000819050919050565b7f4e487b7100000000000000000000000000000000000000000000000000000000600052601160045260246000fd5b7f4e487b7100000000000000000000000000000000000000000000000000000000600052601260045260246000fd5b7f4d75737420626520636f72726563742042500000000000000000000000000000600082015250565b61046c816103d2565b811461047757600080fd5b5056fea2646970667358221220ec062f034ffbf6836da904ea370ade9e82dbc5905bdd797c10fe6944e1b3b78864736f6c63430008030033",
  "linkReferences": {},
  "deployedLinkReferences": {}
}