{
  "_format": "hh-sol-artifact-1",
  "contractName": "Utils",
  "sourceName": "contracts/UtilsV2.sol",
  "abi": [
    {
      "inputs": [
        {
          "internalType": "address",
          "name": "_base",
          "type": "address"
        }
      ],
      "stateMutability": "payable",
      "type": "constructor"
    },
    {
      "inputs": [],
      "name": "BASE",
      "outputs": [
        {
          "internalType": "address",
          "name": "",
          "type": "address"
        }
      ],
      "stateMutability": "view",
      "type": "function"
    },
    {
      "inputs": [],
      "name": "allCuratedPools",
      "outputs": [
        {
          "internalType": "address[]",
          "name": "_allCuratedPools",
          "type": "address[]"
        }
      ],
      "stateMutability": "view",
      "type": "function"
    },
    {
      "inputs": [],
      "name": "allPools",
      "outputs": [
        {
          "internalType": "address[]",
          "name": "_allPools",
          "type": "address[]"
        }
      ],
      "stateMutability": "view",
      "type": "function"
    },
    {
      "inputs": [],
      "name": "allTokens",
      "outputs": [
        {
          "internalType": "address[]",
          "name": "_allTokens",
          "type": "address[]"
        }
      ],
      "stateMutability": "view",
      "type": "function"
    },
    {
      "inputs": [
        {
          "internalType": "uint256",
          "name": "units",
          "type": "uint256"
        },
        {
          "internalType": "uint256",
          "name": "totalSupply",
          "type": "uint256"
        },
        {
          "internalType": "address",
          "name": "lpToken",
          "type": "address"
        },
        {
          "internalType": "address",
          "name": "synth",
          "type": "address"
        }
      ],
      "name": "calcDebtShare",
      "outputs": [
        {
          "internalType": "uint256",
          "name": "share",
          "type": "uint256"
        }
      ],
      "stateMutability": "view",
      "type": "function"
    },
    {
      "inputs": [
        {
          "internalType": "uint256",
          "name": "bp",
          "type": "uint256"
        },
        {
          "internalType": "uint256",
          "name": "total",
          "type": "uint256"
        }
      ],
      "name": "calcPart",
      "outputs": [
        {
          "internalType": "uint256",
          "name": "",
          "type": "uint256"
        }
      ],
      "stateMutability": "pure",
      "type": "function"
    },
    {
      "inputs": [
        {
          "internalType": "uint256",
          "name": "part",
          "type": "uint256"
        },
        {
          "internalType": "uint256",
          "name": "total",
          "type": "uint256"
        },
        {
          "internalType": "uint256",
          "name": "amount",
          "type": "uint256"
        }
      ],
      "name": "calcShare",
      "outputs": [
        {
          "internalType": "uint256",
          "name": "share",
          "type": "uint256"
        }
      ],
      "stateMutability": "pure",
      "type": "function"
    },
    {
      "inputs": [],
      "name": "curatedPoolCount",
      "outputs": [
        {
          "internalType": "uint256",
          "name": "count",
          "type": "uint256"
        }
      ],
      "stateMutability": "view",
      "type": "function"
    },
    {
      "inputs": [
        {
          "internalType": "uint256",
          "name": "start",
          "type": "uint256"
        },
        {
          "internalType": "uint256",
          "name": "count",
          "type": "uint256"
        }
      ],
      "name": "curatedPoolsInRange",
      "outputs": [
        {
          "internalType": "address[]",
          "name": "someCuratedPools",
          "type": "address[]"
        }
      ],
      "stateMutability": "view",
      "type": "function"
    },
    {
      "inputs": [
        {
          "internalType": "address",
          "name": "_pool",
          "type": "address"
        }
      ],
      "name": "getDepth",
      "outputs": [
        {
          "internalType": "uint256",
          "name": "_baseAmount",
          "type": "uint256"
        }
      ],
      "stateMutability": "view",
      "type": "function"
    },
    {
      "inputs": [
        {
          "internalType": "uint256",
          "name": "totalSupply",
          "type": "uint256"
        },
        {
          "internalType": "uint256",
          "name": "maxSupply",
          "type": "uint256"
        }
      ],
      "name": "getFeeOnTransfer",
      "outputs": [
        {
          "internalType": "uint256",
          "name": "",
          "type": "uint256"
        }
      ],
      "stateMutability": "pure",
      "type": "function"
    },
    {
      "inputs": [
        {
          "internalType": "address",
          "name": "pool",
          "type": "address"
        },
        {
          "internalType": "address",
          "name": "member",
          "type": "address"
        }
      ],
      "name": "getMemberPoolShare",
      "outputs": [
        {
          "internalType": "uint256",
          "name": "baseAmount",
          "type": "uint256"
        },
        {
          "internalType": "uint256",
          "name": "tokenAmount",
          "type": "uint256"
        }
      ],
      "stateMutability": "view",
      "type": "function"
    },
    {
      "inputs": [
        {
          "internalType": "address",
          "name": "token",
          "type": "address"
        },
        {
          "internalType": "address",
          "name": "member",
          "type": "address"
        }
      ],
      "name": "getMemberShare",
      "outputs": [
        {
          "internalType": "uint256",
          "name": "baseAmount",
          "type": "uint256"
        },
        {
          "internalType": "uint256",
          "name": "tokenAmount",
          "type": "uint256"
        }
      ],
      "stateMutability": "view",
      "type": "function"
    },
    {
      "inputs": [
        {
          "internalType": "address",
          "name": "token",
          "type": "address"
        }
      ],
      "name": "getPoolAge",
      "outputs": [
        {
          "internalType": "uint256",
          "name": "daysSinceGenesis",
          "type": "uint256"
        }
      ],
      "stateMutability": "view",
      "type": "function"
    },
    {
      "inputs": [
        {
          "internalType": "address",
          "name": "token",
          "type": "address"
        }
      ],
      "name": "getPoolData",
      "outputs": [
        {
          "components": [
            {
              "internalType": "address",
              "name": "tokenAddress",
              "type": "address"
            },
            {
              "internalType": "address",
              "name": "poolAddress",
              "type": "address"
            },
            {
              "internalType": "uint256",
              "name": "genesis",
              "type": "uint256"
            },
            {
              "internalType": "uint256",
              "name": "baseAmount",
              "type": "uint256"
            },
            {
              "internalType": "uint256",
              "name": "tokenAmount",
              "type": "uint256"
            },
            {
              "internalType": "uint256",
              "name": "fees",
              "type": "uint256"
            },
            {
              "internalType": "uint256",
              "name": "volume",
              "type": "uint256"
            },
            {
              "internalType": "uint256",
              "name": "txCount",
              "type": "uint256"
            },
            {
              "internalType": "uint256",
              "name": "poolUnits",
              "type": "uint256"
            }
          ],
          "internalType": "struct Utils.PoolDataStruct",
          "name": "poolData",
          "type": "tuple"
        }
      ],
      "stateMutability": "view",
      "type": "function"
    },
    {
      "inputs": [
        {
          "internalType": "address",
          "name": "token",
          "type": "address"
        },
        {
          "internalType": "uint256",
          "name": "units",
          "type": "uint256"
        }
      ],
      "name": "getPoolShare",
      "outputs": [
        {
          "internalType": "uint256",
          "name": "baseAmount",
          "type": "uint256"
        },
        {
          "internalType": "uint256",
          "name": "tokenAmount",
          "type": "uint256"
        }
      ],
      "stateMutability": "view",
      "type": "function"
    },
    {
      "inputs": [
        {
          "internalType": "address",
          "name": "token",
          "type": "address"
        },
        {
          "internalType": "uint256",
          "name": "units",
          "type": "uint256"
        }
      ],
      "name": "getPoolShareWeight",
      "outputs": [
        {
          "internalType": "uint256",
          "name": "weight",
          "type": "uint256"
        }
      ],
      "stateMutability": "view",
      "type": "function"
    },
    {
      "inputs": [
        {
          "internalType": "address",
          "name": "token",
          "type": "address"
        },
        {
          "internalType": "address",
          "name": "member",
          "type": "address"
        }
      ],
      "name": "getShareOfBaseAmount",
      "outputs": [
        {
          "internalType": "uint256",
          "name": "baseAmount",
          "type": "uint256"
        }
      ],
      "stateMutability": "view",
      "type": "function"
    },
    {
      "inputs": [
        {
          "internalType": "address",
          "name": "token",
          "type": "address"
        },
        {
          "internalType": "address",
          "name": "member",
          "type": "address"
        }
      ],
      "name": "getShareOfTokenAmount",
      "outputs": [
        {
          "internalType": "uint256",
          "name": "baseAmount",
          "type": "uint256"
        }
      ],
      "stateMutability": "view",
      "type": "function"
    },
    {
      "inputs": [
        {
          "internalType": "address",
          "name": "token",
          "type": "address"
        }
      ],
      "name": "getSynth",
      "outputs": [
        {
          "internalType": "address",
          "name": "synth",
          "type": "address"
        }
      ],
      "stateMutability": "view",
      "type": "function"
    },
    {
      "inputs": [
        {
          "internalType": "address",
          "name": "token",
          "type": "address"
        }
      ],
      "name": "getSynthData",
      "outputs": [
        {
          "components": [
            {
              "internalType": "address",
              "name": "tokenAddress",
              "type": "address"
            },
            {
              "internalType": "address",
              "name": "synthAddress",
              "type": "address"
            },
            {
              "internalType": "uint256",
              "name": "genesis",
              "type": "uint256"
            },
            {
              "internalType": "uint256",
              "name": "totalDebt",
              "type": "uint256"
            }
          ],
          "internalType": "struct Utils.SynthDataStruct",
          "name": "synthData",
          "type": "tuple"
        }
      ],
      "stateMutability": "view",
      "type": "function"
    },
    {
      "inputs": [
        {
          "internalType": "address",
          "name": "token",
          "type": "address"
        }
      ],
      "name": "getTokenDetails",
      "outputs": [
        {
          "components": [
            {
              "internalType": "string",
              "name": "name",
              "type": "string"
            },
            {
              "internalType": "string",
              "name": "symbol",
              "type": "string"
            },
            {
              "internalType": "uint256",
              "name": "decimals",
              "type": "uint256"
            },
            {
              "internalType": "uint256",
              "name": "totalSupply",
              "type": "uint256"
            },
            {
              "internalType": "uint256",
              "name": "balance",
              "type": "uint256"
            },
            {
              "internalType": "address",
              "name": "tokenAddress",
              "type": "address"
            }
          ],
          "internalType": "struct Utils.TokenDetails",
          "name": "tokenDetails",
          "type": "tuple"
        }
      ],
      "stateMutability": "view",
      "type": "function"
    },
    {
      "inputs": [
        {
          "internalType": "address",
          "name": "token",
          "type": "address"
        },
        {
          "internalType": "address",
          "name": "member",
          "type": "address"
        }
      ],
      "name": "getTokenDetailsWithMember",
      "outputs": [
        {
          "components": [
            {
              "internalType": "string",
              "name": "name",
              "type": "string"
            },
            {
              "internalType": "string",
              "name": "symbol",
              "type": "string"
            },
            {
              "internalType": "uint256",
              "name": "decimals",
              "type": "uint256"
            },
            {
              "internalType": "uint256",
              "name": "totalSupply",
              "type": "uint256"
            },
            {
              "internalType": "uint256",
              "name": "balance",
              "type": "uint256"
            },
            {
              "internalType": "address",
              "name": "tokenAddress",
              "type": "address"
            }
          ],
          "internalType": "struct Utils.TokenDetails",
          "name": "tokenDetails",
          "type": "tuple"
        }
      ],
      "stateMutability": "view",
      "type": "function"
    },
    {
      "inputs": [
        {
          "internalType": "address",
          "name": "token",
          "type": "address"
        },
        {
          "internalType": "address",
          "name": "member",
          "type": "address"
        }
      ],
      "name": "isMember",
      "outputs": [
        {
          "internalType": "bool",
          "name": "",
          "type": "bool"
        }
      ],
      "stateMutability": "view",
      "type": "function"
    },
    {
      "inputs": [],
      "name": "one",
      "outputs": [
        {
          "internalType": "uint256",
          "name": "",
          "type": "uint256"
        }
      ],
      "stateMutability": "view",
      "type": "function"
    },
    {
      "inputs": [],
      "name": "poolCount",
      "outputs": [
        {
          "internalType": "uint256",
          "name": "count",
          "type": "uint256"
        }
      ],
      "stateMutability": "view",
      "type": "function"
    },
    {
      "inputs": [
        {
          "internalType": "uint256",
          "name": "start",
          "type": "uint256"
        },
        {
          "internalType": "uint256",
          "name": "count",
          "type": "uint256"
        }
      ],
      "name": "poolsInRange",
      "outputs": [
        {
          "internalType": "address[]",
          "name": "somePools",
          "type": "address[]"
        }
      ],
      "stateMutability": "view",
      "type": "function"
    },
    {
      "inputs": [],
      "name": "tokenCount",
      "outputs": [
        {
          "internalType": "uint256",
          "name": "count",
          "type": "uint256"
        }
      ],
      "stateMutability": "view",
      "type": "function"
    },
    {
      "inputs": [
        {
          "internalType": "uint256",
          "name": "start",
          "type": "uint256"
        },
        {
          "internalType": "uint256",
          "name": "count",
          "type": "uint256"
        }
      ],
      "name": "tokensInRange",
      "outputs": [
        {
          "internalType": "address[]",
          "name": "someTokens",
          "type": "address[]"
        }
      ],
      "stateMutability": "view",
      "type": "function"
    }
  ],
  "bytecode": "0x6080604052670de0b6b3a764000060015560405162003fbb38038062003fbb833981810160405281019062000035919062000093565b806000806101000a81548173ffffffffffffffffffffffffffffffffffffffff021916908373ffffffffffffffffffffffffffffffffffffffff160217905550506200010d565b6000815190506200008d81620000f3565b92915050565b600060208284031215620000a657600080fd5b6000620000b6848285016200007c565b91505092915050565b6000620000cc82620000d3565b9050919050565b600073ffffffffffffffffffffffffffffffffffffffff82169050919050565b620000fe81620000bf565b81146200010a57600080fd5b50565b613e9e806200011d6000396000f3fe608060405234801561001057600080fd5b50600436106101cf5760003560e01c80639ab8723111610104578063c5c63e65116100a2578063dcec811611610071578063dcec81161461061b578063ec342ad01461064b578063f01e3e2014610669578063f525cb6814610699576101cf565b8063c5c63e651461056d578063ca2e5b651461058b578063ce14f487146105bb578063cef7a09b146105eb576101cf565b8063b23b416d116100de578063b23b416d146104ac578063b7cf309e146104dc578063bd9caa581461050c578063bf71abbb1461053d576101cf565b80639ab87231146104405780639f181b5e1461045e578063b0d76a101461047c576101cf565b8063714270ab116101715780638b18b1151161014b5780638b18b115146103a35780638bc51e36146103d3578063901717d1146103f157806390d1cb001461040f576101cf565b8063714270ab146103135780637580afbf1461034357806388aa8bee14610373576101cf565b806339ac7a08116101ad57806339ac7a081461026457806343ca7a67146102945780636c2194f3146102c55780636ff97f1d146102f5576101cf565b806313d21cdf146101d45780631b70044c146102045780631ba326c414610234575b600080fd5b6101ee60048036038101906101e991906133cc565b6106b7565b6040516101fb919061399a565b60405180910390f35b61021e60048036038101906102199190613447565b610a63565b60405161022b91906139d1565b60405180910390f35b61024e600480360381019061024991906135f1565b610e60565b60405161025b91906139f3565b60405180910390f35b61027e60048036038101906102799190613447565b610e98565b60405161028b919061395f565b60405180910390f35b6102ae60048036038101906102a99190613447565b611051565b6040516102bc929190613a0e565b60405180910390f35b6102df60048036038101906102da919061358e565b6112f7565b6040516102ec91906139f3565b60405180910390f35b6102fd6113a7565b60405161030a919061393d565b60405180910390f35b61032d60048036038101906103289190613552565b6114ba565b60405161033a91906139f3565b60405180910390f35b61035d600480360381019061035891906133cc565b611516565b60405161036a91906139f3565b60405180910390f35b61038d600480360381019061038891906133cc565b61159d565b60405161039a91906139d1565b60405180910390f35b6103bd60048036038101906103b89190613552565b6115b6565b6040516103ca91906139f3565b60405180910390f35b6103db6115cc565b6040516103e891906139f3565b60405180910390f35b6103f96116d5565b60405161040691906139f3565b60405180910390f35b61042960048036038101906104249190613447565b6116db565b604051610437929190613a0e565b60405180910390f35b610448611893565b604051610455919061393d565b60405180910390f35b6104666118ac565b60405161047391906139f3565b60405180910390f35b61049660048036038101906104919190613552565b6119b5565b6040516104a3919061393d565b60405180910390f35b6104c660048036038101906104c191906133cc565b611c03565b6040516104d391906139f3565b60405180910390f35b6104f660048036038101906104f19190613552565b611ddc565b604051610503919061393d565b60405180910390f35b61052660048036038101906105219190613483565b61202a565b604051610534929190613a0e565b60405180910390f35b61055760048036038101906105529190613552565b612354565b604051610564919061393d565b60405180910390f35b6105756125a2565b604051610582919061393d565b60405180910390f35b6105a560048036038101906105a09190613483565b6125bb565b6040516105b291906139f3565b60405180910390f35b6105d560048036038101906105d091906133cc565b6127db565b6040516105e291906139b6565b60405180910390f35b61060560048036038101906106009190613447565b612974565b60405161061291906139f3565b60405180910390f35b610635600480360381019061063091906133cc565b612c22565b6040516106429190613922565b60405180910390f35b610653612d38565b6040516106609190613922565b60405180910390f35b610683600480360381019061067e9190613447565b612d5c565b60405161069091906139f3565b60405180910390f35b6106a161300a565b6040516106ae91906139f3565b60405180910390f35b6106bf6131b9565b60006106c9613113565b73ffffffffffffffffffffffffffffffffffffffff1663b99b0a0c6040518163ffffffff1660e01b815260040160206040518083038186803b15801561070e57600080fd5b505afa158015610722573d6000803e3d6000fd5b505050506040513d601f19601f8201168201806040525081019061074691906133f5565b73ffffffffffffffffffffffffffffffffffffffff1663bbe4f6db846040518263ffffffff1660e01b815260040161077e9190613922565b60206040518083038186803b15801561079657600080fd5b505afa1580156107aa573d6000803e3d6000fd5b505050506040513d601f19601f820116820180604052508101906107ce919061341e565b905080826020019073ffffffffffffffffffffffffffffffffffffffff16908173ffffffffffffffffffffffffffffffffffffffff168152505082826000019073ffffffffffffffffffffffffffffffffffffffff16908173ffffffffffffffffffffffffffffffffffffffff16815250508073ffffffffffffffffffffffffffffffffffffffff1663a7f0b3de6040518163ffffffff1660e01b815260040160206040518083038186803b15801561088657600080fd5b505afa15801561089a573d6000803e3d6000fd5b505050506040513d601f19601f820116820180604052508101906108be9190613529565b8260400181815250508073ffffffffffffffffffffffffffffffffffffffff16634864d1406040518163ffffffff1660e01b815260040160206040518083038186803b15801561090d57600080fd5b505afa158015610921573d6000803e3d6000fd5b505050506040513d601f19601f820116820180604052508101906109459190613529565b8260600181815250508073ffffffffffffffffffffffffffffffffffffffff1663eec7faa16040518163ffffffff1660e01b815260040160206040518083038186803b15801561099457600080fd5b505afa1580156109a8573d6000803e3d6000fd5b505050506040513d601f19601f820116820180604052508101906109cc9190613529565b8260800181815250508073ffffffffffffffffffffffffffffffffffffffff166318160ddd6040518163ffffffff1660e01b815260040160206040518083038186803b158015610a1b57600080fd5b505afa158015610a2f573d6000803e3d6000fd5b505050506040513d601f19601f82011682018060405250810190610a539190613529565b8261010001818152505050919050565b610a6b613231565b600073ffffffffffffffffffffffffffffffffffffffff168373ffffffffffffffffffffffffffffffffffffffff161415610b68576040518060400160405280600c81526020017f42696e616e636520436f696e000000000000000000000000000000000000000081525081600001819052506040518060400160405280600381526020017f424e420000000000000000000000000000000000000000000000000000000000815250816020018190525060128160400181815250506001546305f5e100610b399190613b7a565b8160600181815250508173ffffffffffffffffffffffffffffffffffffffff1631816080018181525050610e22565b8273ffffffffffffffffffffffffffffffffffffffff166306fdde036040518163ffffffff1660e01b815260040160006040518083038186803b158015610bae57600080fd5b505afa158015610bc2573d6000803e3d6000fd5b505050506040513d6000823e3d601f19601f82011682018060405250810190610beb91906134e8565b81600001819052508273ffffffffffffffffffffffffffffffffffffffff166395d89b416040518163ffffffff1660e01b815260040160006040518083038186803b158015610c3957600080fd5b505afa158015610c4d573d6000803e3d6000fd5b505050506040513d6000823e3d601f19601f82011682018060405250810190610c7691906134e8565b81602001819052508273ffffffffffffffffffffffffffffffffffffffff1663313ce5676040518163ffffffff1660e01b815260040160206040518083038186803b158015610cc457600080fd5b505afa158015610cd8573d6000803e3d6000fd5b505050506040513d601f19601f82011682018060405250810190610cfc9190613640565b60ff168160400181815250508273ffffffffffffffffffffffffffffffffffffffff166318160ddd6040518163ffffffff1660e01b815260040160206040518083038186803b158015610d4e57600080fd5b505afa158015610d62573d6000803e3d6000fd5b505050506040513d601f19601f82011682018060405250810190610d869190613529565b8160600181815250508273ffffffffffffffffffffffffffffffffffffffff166370a08231836040518263ffffffff1660e01b8152600401610dc89190613922565b60206040518083038186803b158015610de057600080fd5b505afa158015610df4573d6000803e3d6000fd5b505050506040513d601f19601f82011682018060405250810190610e189190613529565b8160800181815250505b828160a0019073ffffffffffffffffffffffffffffffffffffffff16908173ffffffffffffffffffffffffffffffffffffffff168152505092915050565b600082841115610e6e578293505b6000831115610e9157828483610e849190613b7a565b610e8e9190613b49565b90505b9392505050565b600080610ea3613113565b73ffffffffffffffffffffffffffffffffffffffff1663b99b0a0c6040518163ffffffff1660e01b815260040160206040518083038186803b158015610ee857600080fd5b505afa158015610efc573d6000803e3d6000fd5b505050506040513d601f19601f82011682018060405250810190610f2091906133f5565b73ffffffffffffffffffffffffffffffffffffffff1663bbe4f6db856040518263ffffffff1660e01b8152600401610f589190613922565b60206040518083038186803b158015610f7057600080fd5b505afa158015610f84573d6000803e3d6000fd5b505050506040513d601f19601f82011682018060405250810190610fa8919061341e565b905060008173ffffffffffffffffffffffffffffffffffffffff166370a08231856040518263ffffffff1660e01b8152600401610fe59190613922565b60206040518083038186803b158015610ffd57600080fd5b505afa158015611011573d6000803e3d6000fd5b505050506040513d601f19601f820116820180604052508101906110359190613529565b111561104557600191505061104b565b60009150505b92915050565b60008060008473ffffffffffffffffffffffffffffffffffffffff166370a08231856040518263ffffffff1660e01b815260040161108f9190613922565b60206040518083038186803b1580156110a757600080fd5b505afa1580156110bb573d6000803e3d6000fd5b505050506040513d601f19601f820116820180604052508101906110df9190613529565b90506111e6818673ffffffffffffffffffffffffffffffffffffffff166318160ddd6040518163ffffffff1660e01b815260040160206040518083038186803b15801561112b57600080fd5b505afa15801561113f573d6000803e3d6000fd5b505050506040513d601f19601f820116820180604052508101906111639190613529565b8773ffffffffffffffffffffffffffffffffffffffff16634864d1406040518163ffffffff1660e01b815260040160206040518083038186803b1580156111a957600080fd5b505afa1580156111bd573d6000803e3d6000fd5b505050506040513d601f19601f820116820180604052508101906111e19190613529565b610e60565b92506112ed818673ffffffffffffffffffffffffffffffffffffffff166318160ddd6040518163ffffffff1660e01b815260040160206040518083038186803b15801561123257600080fd5b505afa158015611246573d6000803e3d6000fd5b505050506040513d601f19601f8201168201806040525081019061126a9190613529565b8773ffffffffffffffffffffffffffffffffffffffff1663eec7faa16040518163ffffffff1660e01b815260040160206040518083038186803b1580156112b057600080fd5b505afa1580156112c4573d6000803e3d6000fd5b505050506040513d601f19601f820116820180604052508101906112e89190613529565b610e60565b9150509250929050565b6000808373ffffffffffffffffffffffffffffffffffffffff166370a08231846040518263ffffffff1660e01b81526004016113339190613922565b60206040518083038186803b15801561134b57600080fd5b505afa15801561135f573d6000803e3d6000fd5b505050506040513d601f19601f820116820180604052508101906113839190613529565b90508486826113929190613b7a565b61139c9190613b49565b915050949350505050565b60606114b560006113b6613113565b73ffffffffffffffffffffffffffffffffffffffff1663b99b0a0c6040518163ffffffff1660e01b815260040160206040518083038186803b1580156113fb57600080fd5b505afa15801561140f573d6000803e3d6000fd5b505050506040513d601f19601f8201168201806040525081019061143391906133f5565b73ffffffffffffffffffffffffffffffffffffffff16639f181b5e6040518163ffffffff1660e01b815260040160206040518083038186803b15801561147857600080fd5b505afa15801561148c573d6000803e3d6000fd5b505050506040513d601f19601f820116820180604052508101906114b09190613529565b611ddc565b905090565b6000612710831115611501576040517f08c379a00000000000000000000000000000000000000000000000000000000081526004016114f89061397a565b60405180910390fd5b61150e8361271084610e60565b905092915050565b60008173ffffffffffffffffffffffffffffffffffffffff16634864d1406040518163ffffffff1660e01b815260040160206040518083038186803b15801561155e57600080fd5b505afa158015611572573d6000803e3d6000fd5b505050506040513d601f19601f820116820180604052508101906115969190613529565b9050919050565b6115a5613231565b6115af8233610a63565b9050919050565b60006115c483836064610e60565b905092915050565b60006115d6613113565b73ffffffffffffffffffffffffffffffffffffffff1663b99b0a0c6040518163ffffffff1660e01b815260040160206040518083038186803b15801561161b57600080fd5b505afa15801561162f573d6000803e3d6000fd5b505050506040513d601f19601f8201168201806040525081019061165391906133f5565b73ffffffffffffffffffffffffffffffffffffffff16633984aa956040518163ffffffff1660e01b815260040160206040518083038186803b15801561169857600080fd5b505afa1580156116ac573d6000803e3d6000fd5b505050506040513d601f19601f820116820180604052508101906116d09190613529565b905090565b60015481565b60008060006116e8613113565b73ffffffffffffffffffffffffffffffffffffffff1663b99b0a0c6040518163ffffffff1660e01b815260040160206040518083038186803b15801561172d57600080fd5b505afa158015611741573d6000803e3d6000fd5b505050506040513d601f19601f8201168201806040525081019061176591906133f5565b73ffffffffffffffffffffffffffffffffffffffff1663bbe4f6db866040518263ffffffff1660e01b815260040161179d9190613922565b60206040518083038186803b1580156117b557600080fd5b505afa1580156117c9573d6000803e3d6000fd5b505050506040513d601f19601f820116820180604052508101906117ed919061341e565b905060008173ffffffffffffffffffffffffffffffffffffffff166370a08231866040518263ffffffff1660e01b815260040161182a9190613922565b60206040518083038186803b15801561184257600080fd5b505afa158015611856573d6000803e3d6000fd5b505050506040513d601f19601f8201168201806040525081019061187a9190613529565b9050611886868261202a565b9350935050509250929050565b60606118a760006118a26115cc565b612354565b905090565b60006118b6613113565b73ffffffffffffffffffffffffffffffffffffffff1663b99b0a0c6040518163ffffffff1660e01b815260040160206040518083038186803b1580156118fb57600080fd5b505afa15801561190f573d6000803e3d6000fd5b505050506040513d601f19601f8201168201806040525081019061193391906133f5565b73ffffffffffffffffffffffffffffffffffffffff16639f181b5e6040518163ffffffff1660e01b815260040160206040518083038186803b15801561197857600080fd5b505afa15801561198c573d6000803e3d6000fd5b505050506040513d601f19601f820116820180604052508101906119b09190613529565b905090565b60606119bf61300a565b82846119cb9190613af3565b11156119e757826119da61300a565b6119e49190613bd4565b91505b60008267ffffffffffffffff811115611a29577f4e487b7100000000000000000000000000000000000000000000000000000000600052604160045260246000fd5b604051908082528060200260200182016040528015611a575781602001602082028036833780820191505090505b50905060005b83811015611bf857611a6d613113565b73ffffffffffffffffffffffffffffffffffffffff1663b99b0a0c6040518163ffffffff1660e01b815260040160206040518083038186803b158015611ab257600080fd5b505afa158015611ac6573d6000803e3d6000fd5b505050506040513d601f19601f82011682018060405250810190611aea91906133f5565b73ffffffffffffffffffffffffffffffffffffffff16638e8093d6826040518263ffffffff1660e01b8152600401611b2291906139f3565b60206040518083038186803b158015611b3a57600080fd5b505afa158015611b4e573d6000803e3d6000fd5b505050506040513d601f19601f82011682018060405250810190611b72919061341e565b828281518110611bab577f4e487b7100000000000000000000000000000000000000000000000000000000600052603260045260246000fd5b602002602001019073ffffffffffffffffffffffffffffffffffffffff16908173ffffffffffffffffffffffffffffffffffffffff16815250508080611bf090613ce5565b915050611a5d565b508091505092915050565b600080611c0e613113565b73ffffffffffffffffffffffffffffffffffffffff1663b99b0a0c6040518163ffffffff1660e01b815260040160206040518083038186803b158015611c5357600080fd5b505afa158015611c67573d6000803e3d6000fd5b505050506040513d601f19601f82011682018060405250810190611c8b91906133f5565b73ffffffffffffffffffffffffffffffffffffffff1663bbe4f6db846040518263ffffffff1660e01b8152600401611cc39190613922565b60206040518083038186803b158015611cdb57600080fd5b505afa158015611cef573d6000803e3d6000fd5b505050506040513d601f19601f82011682018060405250810190611d13919061341e565b905060008173ffffffffffffffffffffffffffffffffffffffff1663a7f0b3de6040518163ffffffff1660e01b815260040160206040518083038186803b158015611d5d57600080fd5b505afa158015611d71573d6000803e3d6000fd5b505050506040513d601f19601f82011682018060405250810190611d959190613529565b90506201518081611da69190613af3565b421015611db857600192505050611dd7565b620151808142611dc89190613bd4565b611dd29190613b49565b925050505b919050565b6060611de66118ac565b8284611df29190613af3565b1115611e0e5782611e016118ac565b611e0b9190613bd4565b91505b60008267ffffffffffffffff811115611e50577f4e487b7100000000000000000000000000000000000000000000000000000000600052604160045260246000fd5b604051908082528060200260200182016040528015611e7e5781602001602082028036833780820191505090505b50905060005b8381101561201f57611e94613113565b73ffffffffffffffffffffffffffffffffffffffff1663b99b0a0c6040518163ffffffff1660e01b815260040160206040518083038186803b158015611ed957600080fd5b505afa158015611eed573d6000803e3d6000fd5b505050506040513d601f19601f82011682018060405250810190611f1191906133f5565b73ffffffffffffffffffffffffffffffffffffffff1663e4b50cb8826040518263ffffffff1660e01b8152600401611f4991906139f3565b60206040518083038186803b158015611f6157600080fd5b505afa158015611f75573d6000803e3d6000fd5b505050506040513d601f19601f82011682018060405250810190611f9991906133f5565b828281518110611fd2577f4e487b7100000000000000000000000000000000000000000000000000000000600052603260045260246000fd5b602002602001019073ffffffffffffffffffffffffffffffffffffffff16908173ffffffffffffffffffffffffffffffffffffffff1681525050808061201790613ce5565b915050611e84565b508091505092915050565b6000806000612037613113565b73ffffffffffffffffffffffffffffffffffffffff1663b99b0a0c6040518163ffffffff1660e01b815260040160206040518083038186803b15801561207c57600080fd5b505afa158015612090573d6000803e3d6000fd5b505050506040513d601f19601f820116820180604052508101906120b491906133f5565b73ffffffffffffffffffffffffffffffffffffffff1663bbe4f6db866040518263ffffffff1660e01b81526004016120ec9190613922565b60206040518083038186803b15801561210457600080fd5b505afa158015612118573d6000803e3d6000fd5b505050506040513d601f19601f8201168201806040525081019061213c919061341e565b9050612243848273ffffffffffffffffffffffffffffffffffffffff166318160ddd6040518163ffffffff1660e01b815260040160206040518083038186803b15801561218857600080fd5b505afa15801561219c573d6000803e3d6000fd5b505050506040513d601f19601f820116820180604052508101906121c09190613529565b8373ffffffffffffffffffffffffffffffffffffffff16634864d1406040518163ffffffff1660e01b815260040160206040518083038186803b15801561220657600080fd5b505afa15801561221a573d6000803e3d6000fd5b505050506040513d601f19601f8201168201806040525081019061223e9190613529565b610e60565b925061234a848273ffffffffffffffffffffffffffffffffffffffff166318160ddd6040518163ffffffff1660e01b815260040160206040518083038186803b15801561228f57600080fd5b505afa1580156122a3573d6000803e3d6000fd5b505050506040513d601f19601f820116820180604052508101906122c79190613529565b8373ffffffffffffffffffffffffffffffffffffffff1663eec7faa16040518163ffffffff1660e01b815260040160206040518083038186803b15801561230d57600080fd5b505afa158015612321573d6000803e3d6000fd5b505050506040513d601f19601f820116820180604052508101906123459190613529565b610e60565b9150509250929050565b606061235e6115cc565b828461236a9190613af3565b111561238657826123796115cc565b6123839190613bd4565b91505b60008267ffffffffffffffff8111156123c8577f4e487b7100000000000000000000000000000000000000000000000000000000600052604160045260246000fd5b6040519080825280602002602001820160405280156123f65781602001602082028036833780820191505090505b50905060005b838110156125975761240c613113565b73ffffffffffffffffffffffffffffffffffffffff1663b99b0a0c6040518163ffffffff1660e01b815260040160206040518083038186803b15801561245157600080fd5b505afa158015612465573d6000803e3d6000fd5b505050506040513d601f19601f8201168201806040525081019061248991906133f5565b73ffffffffffffffffffffffffffffffffffffffff166386032713826040518263ffffffff1660e01b81526004016124c191906139f3565b60206040518083038186803b1580156124d957600080fd5b505afa1580156124ed573d6000803e3d6000fd5b505050506040513d601f19601f8201168201806040525081019061251191906133f5565b82828151811061254a577f4e487b7100000000000000000000000000000000000000000000000000000000600052603260045260246000fd5b602002602001019073ffffffffffffffffffffffffffffffffffffffff16908173ffffffffffffffffffffffffffffffffffffffff1681525050808061258f90613ce5565b9150506123fc565b508091505092915050565b60606125b660006125b161300a565b6119b5565b905090565b6000806125c6613113565b73ffffffffffffffffffffffffffffffffffffffff1663b99b0a0c6040518163ffffffff1660e01b815260040160206040518083038186803b15801561260b57600080fd5b505afa15801561261f573d6000803e3d6000fd5b505050506040513d601f19601f8201168201806040525081019061264391906133f5565b73ffffffffffffffffffffffffffffffffffffffff1663bbe4f6db856040518263ffffffff1660e01b815260040161267b9190613922565b60206040518083038186803b15801561269357600080fd5b505afa1580156126a7573d6000803e3d6000fd5b505050506040513d601f19601f820116820180604052508101906126cb919061341e565b90506127d2838273ffffffffffffffffffffffffffffffffffffffff166318160ddd6040518163ffffffff1660e01b815260040160206040518083038186803b15801561271757600080fd5b505afa15801561272b573d6000803e3d6000fd5b505050506040513d601f19601f8201168201806040525081019061274f9190613529565b8373ffffffffffffffffffffffffffffffffffffffff16634864d1406040518163ffffffff1660e01b815260040160206040518083038186803b15801561279557600080fd5b505afa1580156127a9573d6000803e3d6000fd5b505050506040513d601f19601f820116820180604052508101906127cd9190613529565b610e60565b91505092915050565b6127e361327d565b60006127ee83612c22565b905080826020019073ffffffffffffffffffffffffffffffffffffffff16908173ffffffffffffffffffffffffffffffffffffffff168152505082826000019073ffffffffffffffffffffffffffffffffffffffff16908173ffffffffffffffffffffffffffffffffffffffff16815250508073ffffffffffffffffffffffffffffffffffffffff1663a7f0b3de6040518163ffffffff1660e01b815260040160206040518083038186803b1580156128a657600080fd5b505afa1580156128ba573d6000803e3d6000fd5b505050506040513d601f19601f820116820180604052508101906128de9190613529565b8260400181815250508073ffffffffffffffffffffffffffffffffffffffff1663a2309ff86040518163ffffffff1660e01b815260040160206040518083038186803b15801561292d57600080fd5b505afa158015612941573d6000803e3d6000fd5b505050506040513d601f19601f820116820180604052508101906129659190613529565b82606001818152505050919050565b60008061297f613113565b73ffffffffffffffffffffffffffffffffffffffff1663b99b0a0c6040518163ffffffff1660e01b815260040160206040518083038186803b1580156129c457600080fd5b505afa1580156129d8573d6000803e3d6000fd5b505050506040513d601f19601f820116820180604052508101906129fc91906133f5565b73ffffffffffffffffffffffffffffffffffffffff1663bbe4f6db856040518263ffffffff1660e01b8152600401612a349190613922565b60206040518083038186803b158015612a4c57600080fd5b505afa158015612a60573d6000803e3d6000fd5b505050506040513d601f19601f82011682018060405250810190612a84919061341e565b905060008173ffffffffffffffffffffffffffffffffffffffff166370a08231856040518263ffffffff1660e01b8152600401612ac19190613922565b60206040518083038186803b158015612ad957600080fd5b505afa158015612aed573d6000803e3d6000fd5b505050506040513d601f19601f82011682018060405250810190612b119190613529565b9050612c18818373ffffffffffffffffffffffffffffffffffffffff166318160ddd6040518163ffffffff1660e01b815260040160206040518083038186803b158015612b5d57600080fd5b505afa158015612b71573d6000803e3d6000fd5b505050506040513d601f19601f82011682018060405250810190612b959190613529565b8473ffffffffffffffffffffffffffffffffffffffff16634864d1406040518163ffffffff1660e01b815260040160206040518083038186803b158015612bdb57600080fd5b505afa158015612bef573d6000803e3d6000fd5b505050506040513d601f19601f82011682018060405250810190612c139190613529565b610e60565b9250505092915050565b6000612c2c613113565b73ffffffffffffffffffffffffffffffffffffffff1663b93ec54b6040518163ffffffff1660e01b815260040160206040518083038186803b158015612c7157600080fd5b505afa158015612c85573d6000803e3d6000fd5b505050506040513d601f19601f82011682018060405250810190612ca991906133f5565b73ffffffffffffffffffffffffffffffffffffffff1663dcec8116836040518263ffffffff1660e01b8152600401612ce19190613922565b60206040518083038186803b158015612cf957600080fd5b505afa158015612d0d573d6000803e3d6000fd5b505050506040513d601f19601f82011682018060405250810190612d3191906133f5565b9050919050565b60008054906101000a900473ffffffffffffffffffffffffffffffffffffffff1681565b600080612d67613113565b73ffffffffffffffffffffffffffffffffffffffff1663b99b0a0c6040518163ffffffff1660e01b815260040160206040518083038186803b158015612dac57600080fd5b505afa158015612dc0573d6000803e3d6000fd5b505050506040513d601f19601f82011682018060405250810190612de491906133f5565b73ffffffffffffffffffffffffffffffffffffffff1663bbe4f6db856040518263ffffffff1660e01b8152600401612e1c9190613922565b60206040518083038186803b158015612e3457600080fd5b505afa158015612e48573d6000803e3d6000fd5b505050506040513d601f19601f82011682018060405250810190612e6c919061341e565b905060008173ffffffffffffffffffffffffffffffffffffffff166370a08231856040518263ffffffff1660e01b8152600401612ea99190613922565b60206040518083038186803b158015612ec157600080fd5b505afa158015612ed5573d6000803e3d6000fd5b505050506040513d601f19601f82011682018060405250810190612ef99190613529565b9050613000818373ffffffffffffffffffffffffffffffffffffffff166318160ddd6040518163ffffffff1660e01b815260040160206040518083038186803b158015612f4557600080fd5b505afa158015612f59573d6000803e3d6000fd5b505050506040513d601f19601f82011682018060405250810190612f7d9190613529565b8473ffffffffffffffffffffffffffffffffffffffff1663eec7faa16040518163ffffffff1660e01b815260040160206040518083038186803b158015612fc357600080fd5b505afa158015612fd7573d6000803e3d6000fd5b505050506040513d601f19601f82011682018060405250810190612ffb9190613529565b610e60565b9250505092915050565b6000613014613113565b73ffffffffffffffffffffffffffffffffffffffff1663b99b0a0c6040518163ffffffff1660e01b815260040160206040518083038186803b15801561305957600080fd5b505afa15801561306d573d6000803e3d6000fd5b505050506040513d601f19601f8201168201806040525081019061309191906133f5565b73ffffffffffffffffffffffffffffffffffffffff1663f525cb686040518163ffffffff1660e01b815260040160206040518083038186803b1580156130d657600080fd5b505afa1580156130ea573d6000803e3d6000fd5b505050506040513d601f19601f8201168201806040525081019061310e9190613529565b905090565b60008060009054906101000a900473ffffffffffffffffffffffffffffffffffffffff1673ffffffffffffffffffffffffffffffffffffffff166398fabd3a6040518163ffffffff1660e01b815260040160206040518083038186803b15801561317c57600080fd5b505afa158015613190573d6000803e3d6000fd5b505050506040513d601f19601f820116820180604052508101906131b491906134bf565b905090565b604051806101200160405280600073ffffffffffffffffffffffffffffffffffffffff168152602001600073ffffffffffffffffffffffffffffffffffffffff168152602001600081526020016000815260200160008152602001600081526020016000815260200160008152602001600081525090565b6040518060c001604052806060815260200160608152602001600081526020016000815260200160008152602001600073ffffffffffffffffffffffffffffffffffffffff1681525090565b6040518060800160405280600073ffffffffffffffffffffffffffffffffffffffff168152602001600073ffffffffffffffffffffffffffffffffffffffff16815260200160008152602001600081525090565b60006132e46132df84613a5c565b613a37565b9050828152602081018484840111156132fc57600080fd5b613307848285613c81565b509392505050565b60008135905061331e81613df5565b92915050565b60008151905061333381613df5565b92915050565b60008151905061334881613e0c565b92915050565b60008151905061335d81613e23565b92915050565b600082601f83011261337457600080fd5b81516133848482602086016132d1565b91505092915050565b60008135905061339c81613e3a565b92915050565b6000815190506133b181613e3a565b92915050565b6000815190506133c681613e51565b92915050565b6000602082840312156133de57600080fd5b60006133ec8482850161330f565b91505092915050565b60006020828403121561340757600080fd5b600061341584828501613324565b91505092915050565b60006020828403121561343057600080fd5b600061343e84828501613339565b91505092915050565b6000806040838503121561345a57600080fd5b60006134688582860161330f565b92505060206134798582860161330f565b9150509250929050565b6000806040838503121561349657600080fd5b60006134a48582860161330f565b92505060206134b58582860161338d565b9150509250929050565b6000602082840312156134d157600080fd5b60006134df8482850161334e565b91505092915050565b6000602082840312156134fa57600080fd5b600082015167ffffffffffffffff81111561351457600080fd5b61352084828501613363565b91505092915050565b60006020828403121561353b57600080fd5b6000613549848285016133a2565b91505092915050565b6000806040838503121561356557600080fd5b60006135738582860161338d565b92505060206135848582860161338d565b9150509250929050565b600080600080608085870312156135a457600080fd5b60006135b28782880161338d565b94505060206135c38782880161338d565b93505060406135d48782880161330f565b92505060606135e58782880161330f565b91505092959194509250565b60008060006060848603121561360657600080fd5b60006136148682870161338d565b93505060206136258682870161338d565b92505060406136368682870161338d565b9150509250925092565b60006020828403121561365257600080fd5b6000613660848285016133b7565b91505092915050565b60006136758383613681565b60208301905092915050565b61368a81613c08565b82525050565b61369981613c08565b82525050565b60006136aa82613a9d565b6136b48185613ac0565b93506136bf83613a8d565b8060005b838110156136f05781516136d78882613669565b97506136e283613ab3565b9250506001810190506136c3565b5085935050505092915050565b61370681613c2c565b82525050565b600061371782613aa8565b6137218185613ad1565b9350613731818560208601613c81565b61373a81613dbb565b840191505092915050565b6000613752601283613ae2565b915061375d82613dcc565b602082019050919050565b6101208201600082015161377f6000850182613681565b5060208201516137926020850182613681565b5060408201516137a56040850182613904565b5060608201516137b86060850182613904565b5060808201516137cb6080850182613904565b5060a08201516137de60a0850182613904565b5060c08201516137f160c0850182613904565b5060e082015161380460e0850182613904565b50610100820151613819610100850182613904565b50505050565b6080820160008201516138356000850182613681565b5060208201516138486020850182613681565b50604082015161385b6040850182613904565b50606082015161386e6060850182613904565b50505050565b600060c0830160008301518482036000860152613891828261370c565b915050602083015184820360208601526138ab828261370c565b91505060408301516138c06040860182613904565b5060608301516138d36060860182613904565b5060808301516138e66080860182613904565b5060a08301516138f960a0860182613681565b508091505092915050565b61390d81613c6a565b82525050565b61391c81613c6a565b82525050565b60006020820190506139376000830184613690565b92915050565b60006020820190508181036000830152613957818461369f565b905092915050565b600060208201905061397460008301846136fd565b92915050565b6000602082019050818103600083015261399381613745565b9050919050565b6000610120820190506139b06000830184613768565b92915050565b60006080820190506139cb600083018461381f565b92915050565b600060208201905081810360008301526139eb8184613874565b905092915050565b6000602082019050613a086000830184613913565b92915050565b6000604082019050613a236000830185613913565b613a306020830184613913565b9392505050565b6000613a41613a52565b9050613a4d8282613cb4565b919050565b6000604051905090565b600067ffffffffffffffff821115613a7757613a76613d8c565b5b613a8082613dbb565b9050602081019050919050565b6000819050602082019050919050565b600081519050919050565b600081519050919050565b6000602082019050919050565b600082825260208201905092915050565b600082825260208201905092915050565b600082825260208201905092915050565b6000613afe82613c6a565b9150613b0983613c6a565b9250827fffffffffffffffffffffffffffffffffffffffffffffffffffffffffffffffff03821115613b3e57613b3d613d2e565b5b828201905092915050565b6000613b5482613c6a565b9150613b5f83613c6a565b925082613b6f57613b6e613d5d565b5b828204905092915050565b6000613b8582613c6a565b9150613b9083613c6a565b9250817fffffffffffffffffffffffffffffffffffffffffffffffffffffffffffffffff0483118215151615613bc957613bc8613d2e565b5b828202905092915050565b6000613bdf82613c6a565b9150613bea83613c6a565b925082821015613bfd57613bfc613d2e565b5b828203905092915050565b6000613c1382613c4a565b9050919050565b6000613c2582613c4a565b9050919050565b60008115159050919050565b6000613c4382613c08565b9050919050565b600073ffffffffffffffffffffffffffffffffffffffff82169050919050565b6000819050919050565b600060ff82169050919050565b60005b83811015613c9f578082015181840152602081019050613c84565b83811115613cae576000848401525b50505050565b613cbd82613dbb565b810181811067ffffffffffffffff82111715613cdc57613cdb613d8c565b5b80604052505050565b6000613cf082613c6a565b91507fffffffffffffffffffffffffffffffffffffffffffffffffffffffffffffffff821415613d2357613d22613d2e565b5b600182019050919050565b7f4e487b7100000000000000000000000000000000000000000000000000000000600052601160045260246000fd5b7f4e487b7100000000000000000000000000000000000000000000000000000000600052601260045260246000fd5b7f4e487b7100000000000000000000000000000000000000000000000000000000600052604160045260246000fd5b6000601f19601f8301169050919050565b7f4d75737420626520636f72726563742042500000000000000000000000000000600082015250565b613dfe81613c08565b8114613e0957600080fd5b50565b613e1581613c1a565b8114613e2057600080fd5b50565b613e2c81613c38565b8114613e3757600080fd5b50565b613e4381613c6a565b8114613e4e57600080fd5b50565b613e5a81613c74565b8114613e6557600080fd5b5056fea264697066735822122021d9065ccc2359f5c53dc696e8353f61e3aecea36950ee32d04cdd78b3b3f0eb64736f6c63430008030033",
  "linkReferences": {},
  "deployedLinkReferences": {}
}