{
  "contractName": "BaseMinted",
  "abi": [
    {
      "inputs": [],
      "stateMutability": "nonpayable",
      "type": "constructor"
    },
    {
      "anonymous": false,
      "inputs": [
        {
          "indexed": true,
          "internalType": "address",
          "name": "owner",
          "type": "address"
        },
        {
          "indexed": true,
          "internalType": "address",
          "name": "spender",
          "type": "address"
        },
        {
          "indexed": false,
          "internalType": "uint256",
          "name": "value",
          "type": "uint256"
        }
      ],
      "name": "Approval",
      "type": "event"
    },
    {
      "anonymous": false,
      "inputs": [
        {
          "indexed": true,
          "internalType": "address",
          "name": "DAO",
          "type": "address"
        },
        {
          "indexed": true,
          "internalType": "address",
          "name": "asset",
          "type": "address"
        }
      ],
      "name": "DelistedAsset",
      "type": "event"
    },
    {
      "anonymous": false,
      "inputs": [
        {
          "indexed": true,
          "internalType": "address",
          "name": "DAO",
          "type": "address"
        },
        {
          "indexed": true,
          "internalType": "address",
          "name": "asset",
          "type": "address"
        },
        {
          "indexed": false,
          "internalType": "uint256",
          "name": "claimRate",
          "type": "uint256"
        },
        {
          "indexed": false,
          "internalType": "uint256",
          "name": "allocation",
          "type": "uint256"
        }
      ],
      "name": "ListedAsset",
      "type": "event"
    },
    {
      "anonymous": false,
      "inputs": [
        {
          "indexed": true,
          "internalType": "address",
          "name": "DAO",
          "type": "address"
        },
        {
          "indexed": false,
          "internalType": "uint256",
          "name": "newCurve",
          "type": "uint256"
        }
      ],
      "name": "NewCurve",
      "type": "event"
    },
    {
      "anonymous": false,
      "inputs": [
        {
          "indexed": true,
          "internalType": "address",
          "name": "DAO",
          "type": "address"
        },
        {
          "indexed": false,
          "internalType": "address",
          "name": "newOwner",
          "type": "address"
        }
      ],
      "name": "NewDAO",
      "type": "event"
    },
    {
      "anonymous": false,
      "inputs": [
        {
          "indexed": true,
          "internalType": "address",
          "name": "DAO",
          "type": "address"
        },
        {
          "indexed": false,
          "internalType": "uint256",
          "name": "newDuration",
          "type": "uint256"
        }
      ],
      "name": "NewDuration",
      "type": "event"
    },
    {
      "anonymous": false,
      "inputs": [
        {
          "indexed": false,
          "internalType": "uint256",
          "name": "currentEra",
          "type": "uint256"
        },
        {
          "indexed": false,
          "internalType": "uint256",
          "name": "nextEraTime",
          "type": "uint256"
        },
        {
          "indexed": false,
          "internalType": "uint256",
          "name": "emission",
          "type": "uint256"
        }
      ],
      "name": "NewEra",
      "type": "event"
    },
    {
      "anonymous": false,
      "inputs": [
        {
          "indexed": true,
          "internalType": "address",
          "name": "DAO",
          "type": "address"
        },
        {
          "indexed": false,
          "internalType": "address",
          "name": "newIncentiveAddress",
          "type": "address"
        }
      ],
      "name": "NewIncentiveAddress",
      "type": "event"
    },
    {
      "anonymous": false,
      "inputs": [
        {
          "indexed": true,
          "internalType": "address",
          "name": "from",
          "type": "address"
        },
        {
          "indexed": true,
          "internalType": "address",
          "name": "to",
          "type": "address"
        },
        {
          "indexed": false,
          "internalType": "uint256",
          "name": "value",
          "type": "uint256"
        }
      ],
      "name": "Transfer",
      "type": "event"
    },
    {
      "inputs": [],
      "name": "DAO",
      "outputs": [
        {
          "internalType": "address",
          "name": "",
          "type": "address"
        }
      ],
      "stateMutability": "view",
      "type": "function"
    },
    {
      "inputs": [],
      "name": "DEPLOYER",
      "outputs": [
        {
          "internalType": "address",
          "name": "",
          "type": "address"
        }
      ],
      "stateMutability": "view",
      "type": "function"
    },
    {
      "inputs": [],
      "name": "_100m",
      "outputs": [
        {
          "internalType": "uint256",
          "name": "",
          "type": "uint256"
        }
      ],
      "stateMutability": "view",
      "type": "function"
    },
    {
      "inputs": [
        {
          "internalType": "uint256",
          "name": "",
          "type": "uint256"
        }
      ],
      "name": "assetArray",
      "outputs": [
        {
          "internalType": "address",
          "name": "",
          "type": "address"
        }
      ],
      "stateMutability": "view",
      "type": "function"
    },
    {
      "inputs": [],
      "name": "burnAddress",
      "outputs": [
        {
          "internalType": "address",
          "name": "",
          "type": "address"
        }
      ],
      "stateMutability": "view",
      "type": "function"
    },
    {
      "inputs": [],
      "name": "currentEra",
      "outputs": [
        {
          "internalType": "uint256",
          "name": "",
          "type": "uint256"
        }
      ],
      "stateMutability": "view",
      "type": "function"
    },
    {
      "inputs": [],
      "name": "decimals",
      "outputs": [
        {
          "internalType": "uint256",
          "name": "",
          "type": "uint256"
        }
      ],
      "stateMutability": "view",
      "type": "function"
    },
    {
      "inputs": [],
      "name": "emissionCurve",
      "outputs": [
        {
          "internalType": "uint256",
          "name": "",
          "type": "uint256"
        }
      ],
      "stateMutability": "view",
      "type": "function"
    },
    {
      "inputs": [],
      "name": "emitting",
      "outputs": [
        {
          "internalType": "bool",
          "name": "",
          "type": "bool"
        }
      ],
      "stateMutability": "view",
      "type": "function"
    },
    {
      "inputs": [],
      "name": "incentiveAddress",
      "outputs": [
        {
          "internalType": "address",
          "name": "",
          "type": "address"
        }
      ],
      "stateMutability": "view",
      "type": "function"
    },
    {
      "inputs": [
        {
          "internalType": "address",
          "name": "",
          "type": "address"
        }
      ],
      "name": "isListed",
      "outputs": [
        {
          "internalType": "bool",
          "name": "",
          "type": "bool"
        }
      ],
      "stateMutability": "view",
      "type": "function"
    },
    {
      "inputs": [
        {
          "internalType": "address",
          "name": "",
          "type": "address"
        }
      ],
      "name": "mapAsset_allocation",
      "outputs": [
        {
          "internalType": "uint256",
          "name": "",
          "type": "uint256"
        }
      ],
      "stateMutability": "view",
      "type": "function"
    },
    {
      "inputs": [
        {
          "internalType": "address",
          "name": "",
          "type": "address"
        }
      ],
      "name": "mapAsset_claimRate",
      "outputs": [
        {
          "internalType": "uint256",
          "name": "",
          "type": "uint256"
        }
      ],
      "stateMutability": "view",
      "type": "function"
    },
    {
      "inputs": [
        {
          "internalType": "address",
          "name": "",
          "type": "address"
        }
      ],
      "name": "mapAsset_claimed",
      "outputs": [
        {
          "internalType": "uint256",
          "name": "",
          "type": "uint256"
        }
      ],
      "stateMutability": "view",
      "type": "function"
    },
    {
      "inputs": [],
      "name": "name",
      "outputs": [
        {
          "internalType": "string",
          "name": "",
          "type": "string"
        }
      ],
      "stateMutability": "view",
      "type": "function"
    },
    {
      "inputs": [],
      "name": "nextEraTime",
      "outputs": [
        {
          "internalType": "uint256",
          "name": "",
          "type": "uint256"
        }
      ],
      "stateMutability": "view",
      "type": "function"
    },
    {
      "inputs": [],
      "name": "secondsPerEra",
      "outputs": [
        {
          "internalType": "uint256",
          "name": "",
          "type": "uint256"
        }
      ],
      "stateMutability": "view",
      "type": "function"
    },
    {
      "inputs": [],
      "name": "symbol",
      "outputs": [
        {
          "internalType": "string",
          "name": "",
          "type": "string"
        }
      ],
      "stateMutability": "view",
      "type": "function"
    },
    {
      "inputs": [],
      "name": "totalCap",
      "outputs": [
        {
          "internalType": "uint256",
          "name": "",
          "type": "uint256"
        }
      ],
      "stateMutability": "view",
      "type": "function"
    },
    {
      "inputs": [],
      "name": "totalSupply",
      "outputs": [
        {
          "internalType": "uint256",
          "name": "",
          "type": "uint256"
        }
      ],
      "stateMutability": "view",
      "type": "function"
    },
    {
      "inputs": [
        {
          "internalType": "address",
          "name": "account",
          "type": "address"
        }
      ],
      "name": "balanceOf",
      "outputs": [
        {
          "internalType": "uint256",
          "name": "",
          "type": "uint256"
        }
      ],
      "stateMutability": "view",
      "type": "function"
    },
    {
      "inputs": [
        {
          "internalType": "address",
          "name": "owner",
          "type": "address"
        },
        {
          "internalType": "address",
          "name": "spender",
          "type": "address"
        }
      ],
      "name": "allowance",
      "outputs": [
        {
          "internalType": "uint256",
          "name": "",
          "type": "uint256"
        }
      ],
      "stateMutability": "view",
      "type": "function"
    },
    {
      "inputs": [
        {
          "internalType": "address",
          "name": "recipient",
          "type": "address"
        },
        {
          "internalType": "uint256",
          "name": "amount",
          "type": "uint256"
        }
      ],
      "name": "transfer",
      "outputs": [
        {
          "internalType": "bool",
          "name": "",
          "type": "bool"
        }
      ],
      "stateMutability": "nonpayable",
      "type": "function"
    },
    {
      "inputs": [
        {
          "internalType": "address",
          "name": "spender",
          "type": "address"
        },
        {
          "internalType": "uint256",
          "name": "amount",
          "type": "uint256"
        }
      ],
      "name": "approve",
      "outputs": [
        {
          "internalType": "bool",
          "name": "",
          "type": "bool"
        }
      ],
      "stateMutability": "nonpayable",
      "type": "function"
    },
    {
      "inputs": [
        {
          "internalType": "address",
          "name": "spender",
          "type": "address"
        },
        {
          "internalType": "uint256",
          "name": "addedValue",
          "type": "uint256"
        }
      ],
      "name": "increaseAllowance",
      "outputs": [
        {
          "internalType": "bool",
          "name": "",
          "type": "bool"
        }
      ],
      "stateMutability": "nonpayable",
      "type": "function"
    },
    {
      "inputs": [
        {
          "internalType": "address",
          "name": "spender",
          "type": "address"
        },
        {
          "internalType": "uint256",
          "name": "subtractedValue",
          "type": "uint256"
        }
      ],
      "name": "decreaseAllowance",
      "outputs": [
        {
          "internalType": "bool",
          "name": "",
          "type": "bool"
        }
      ],
      "stateMutability": "nonpayable",
      "type": "function"
    },
    {
      "inputs": [
        {
          "internalType": "address",
          "name": "sender",
          "type": "address"
        },
        {
          "internalType": "address",
          "name": "recipient",
          "type": "address"
        },
        {
          "internalType": "uint256",
          "name": "amount",
          "type": "uint256"
        }
      ],
      "name": "transferFrom",
      "outputs": [
        {
          "internalType": "bool",
          "name": "",
          "type": "bool"
        }
      ],
      "stateMutability": "nonpayable",
      "type": "function"
    },
    {
      "inputs": [
        {
          "internalType": "address",
          "name": "recipient",
          "type": "address"
        },
        {
          "internalType": "uint256",
          "name": "amount",
          "type": "uint256"
        }
      ],
      "name": "transferTo",
      "outputs": [
        {
          "internalType": "bool",
          "name": "",
          "type": "bool"
        }
      ],
      "stateMutability": "nonpayable",
      "type": "function"
    },
    {
      "inputs": [
        {
          "internalType": "uint256",
          "name": "amount",
          "type": "uint256"
        }
      ],
      "name": "burn",
      "outputs": [],
      "stateMutability": "nonpayable",
      "type": "function"
    },
    {
      "inputs": [
        {
          "internalType": "address",
          "name": "account",
          "type": "address"
        },
        {
          "internalType": "uint256",
          "name": "amount",
          "type": "uint256"
        }
      ],
      "name": "burnFrom",
      "outputs": [],
      "stateMutability": "nonpayable",
      "type": "function"
    },
    {
      "inputs": [
        {
          "internalType": "address",
          "name": "asset",
          "type": "address"
        },
        {
          "internalType": "uint256",
          "name": "claimRate",
          "type": "uint256"
        },
        {
          "internalType": "uint256",
          "name": "allocation",
          "type": "uint256"
        }
      ],
      "name": "listAsset",
      "outputs": [
        {
          "internalType": "bool",
          "name": "",
          "type": "bool"
        }
      ],
      "stateMutability": "nonpayable",
      "type": "function"
    },
    {
      "inputs": [
        {
          "internalType": "address",
          "name": "asset",
          "type": "address"
        }
      ],
      "name": "delistAsset",
      "outputs": [
        {
          "internalType": "bool",
          "name": "",
          "type": "bool"
        }
      ],
      "stateMutability": "nonpayable",
      "type": "function"
    },
    {
      "inputs": [],
      "name": "startEmissions",
      "outputs": [
        {
          "internalType": "bool",
          "name": "",
          "type": "bool"
        }
      ],
      "stateMutability": "nonpayable",
      "type": "function"
    },
    {
      "inputs": [],
      "name": "stopEmissions",
      "outputs": [
        {
          "internalType": "bool",
          "name": "",
          "type": "bool"
        }
      ],
      "stateMutability": "nonpayable",
      "type": "function"
    },
    {
      "inputs": [
        {
          "internalType": "uint256",
          "name": "newCurve",
          "type": "uint256"
        }
      ],
      "name": "changeEmissionCurve",
      "outputs": [
        {
          "internalType": "bool",
          "name": "",
          "type": "bool"
        }
      ],
      "stateMutability": "nonpayable",
      "type": "function"
    },
    {
      "inputs": [
        {
          "internalType": "uint256",
          "name": "newDuration",
          "type": "uint256"
        }
      ],
      "name": "changeEraDuration",
      "outputs": [
        {
          "internalType": "bool",
          "name": "",
          "type": "bool"
        }
      ],
      "stateMutability": "nonpayable",
      "type": "function"
    },
    {
      "inputs": [
        {
          "internalType": "address",
          "name": "newIncentiveAddress",
          "type": "address"
        }
      ],
      "name": "changeIncentiveAddress",
      "outputs": [
        {
          "internalType": "bool",
          "name": "",
          "type": "bool"
        }
      ],
      "stateMutability": "nonpayable",
      "type": "function"
    },
    {
      "inputs": [
        {
          "internalType": "address",
          "name": "newDAO",
          "type": "address"
        }
      ],
      "name": "changeDAO",
      "outputs": [
        {
          "internalType": "bool",
          "name": "",
          "type": "bool"
        }
      ],
      "stateMutability": "nonpayable",
      "type": "function"
    },
    {
      "inputs": [],
      "name": "purgeDAO",
      "outputs": [
        {
          "internalType": "bool",
          "name": "",
          "type": "bool"
        }
      ],
      "stateMutability": "nonpayable",
      "type": "function"
    },
    {
      "inputs": [],
      "name": "purgeDeployer",
      "outputs": [
        {
          "internalType": "bool",
          "name": "",
          "type": "bool"
        }
      ],
      "stateMutability": "nonpayable",
      "type": "function"
    },
    {
      "inputs": [],
      "name": "getDailyEmission",
      "outputs": [
        {
          "internalType": "uint256",
          "name": "",
          "type": "uint256"
        }
      ],
      "stateMutability": "view",
      "type": "function"
    },
    {
      "inputs": [
        {
          "internalType": "address",
          "name": "asset",
          "type": "address"
        },
        {
          "internalType": "uint256",
          "name": "amount",
          "type": "uint256"
        }
      ],
      "name": "claim",
      "outputs": [],
      "stateMutability": "payable",
      "type": "function"
    },
    {
      "inputs": [
        {
          "internalType": "address",
          "name": "asset",
          "type": "address"
        }
      ],
      "name": "getAdjustedClaimRate",
      "outputs": [
        {
          "internalType": "uint256",
          "name": "adjustedClaimRate",
          "type": "uint256"
        }
      ],
      "stateMutability": "view",
      "type": "function"
    },
    {
      "inputs": [],
      "name": "assetCount",
      "outputs": [
        {
          "internalType": "uint256",
          "name": "count",
          "type": "uint256"
        }
      ],
      "stateMutability": "view",
      "type": "function"
    },
    {
      "inputs": [],
      "name": "allAssets",
      "outputs": [
        {
          "internalType": "address[]",
          "name": "_allAssets",
          "type": "address[]"
        }
      ],
      "stateMutability": "view",
      "type": "function"
    },
    {
      "inputs": [
        {
          "internalType": "uint256",
          "name": "start",
          "type": "uint256"
        },
        {
          "internalType": "uint256",
          "name": "count",
          "type": "uint256"
        }
      ],
      "name": "assetsInRange",
      "outputs": [
        {
          "internalType": "address[]",
          "name": "someAssets",
          "type": "address[]"
        }
      ],
      "stateMutability": "view",
      "type": "function"
    },
    {
      "inputs": [
        {
          "internalType": "address",
          "name": "asset",
          "type": "address"
        }
      ],
      "name": "getAssetDetails",
      "outputs": [
        {
          "components": [
            {
              "internalType": "bool",
              "name": "listed",
              "type": "bool"
            },
            {
              "internalType": "uint256",
              "name": "claimRate",
              "type": "uint256"
            },
            {
              "internalType": "uint256",
              "name": "claimed",
              "type": "uint256"
            },
            {
              "internalType": "uint256",
              "name": "allocation",
              "type": "uint256"
            }
          ],
          "internalType": "struct BaseMinted.AssetDetailsStruct",
          "name": "assetDetails",
          "type": "tuple"
        }
      ],
      "stateMutability": "view",
      "type": "function"
    }
  ],
  "bytecode": "0x60806040523480156200001157600080fd5b506040805180820190915260168082527f5350415254414e2050524f544f434f4c20544f4b454e000000000000000000006020909201918252620000589160009162000160565b506040805180820190915260068082526553504152544160d01b6020909201918252620000889160019162000160565b506012600255670de0b6b3a76400006006556a52b7d2dcc80cd2e40000006009556a295be96e6406697200000060038190556af8277896582678ac000000600a556108006008556007805460ff191690556001600c819055600b819055428101600d55600f8054336001600160a01b031991821681179092556010805490911690921790915560008181526004602052604080822084905551919290917fddf252ad1be2c89b69c2b068fc378daa952ba7f163c4a11628f55a4df523b3ef91620001529162000205565b60405180910390a36200020e565b828054600181600116156101000203166002900490600052602060002090601f016020900481019282601f10620001a357805160ff1916838001178555620001d3565b82800160010185558215620001d3579182015b82811115620001d3578251825591602001919060010190620001b6565b50620001e1929150620001e5565b5090565b6200020291905b80821115620001e15760008155600101620001ec565b90565b90815260200190565b6120ea806200021e6000396000f3fe6080604052600436106102885760003560e01c80637605bbb01161015a578063aad3ec96116100c1578063dd62ed3e1161007a578063dd62ed3e1461071d578063e86dad291461073d578063eae9fd6d1461075d578063eafe7a741461077d578063f293e67514610792578063f794062e146107a757610288565b8063aad3ec9614610680578063acf4db8614610693578063ba0f6566146106b3578063be8051c9146106d3578063c1b8411a146106f3578063c91b6b461461070857610288565b8063973628f611610113578063973628f6146105d457806398fabd3a146105e95780639a67759b146105fe5780639c9b645114610613578063a457c2d714610640578063a9059cbb1461066057610288565b80637605bbb01461051d57806376d708d71461053d57806379cc67901461055f5780638377e89a1461057f57806395d89b411461059f5780639620e222146105b457610288565b806328957be2116101fe57806342966c68116101b757806342966c68146104715780636b92a3b61461049357806370a08231146104a857806370d5ae05146104c85780637299626d146104dd578063745fda9b146104fd57610288565b806328957be2146103d05780632ccb1b30146103f25780632eabea0214610412578063313ce56714610427578063395093511461043c578063405b65871461045c57610288565b8063095ea7b311610250578063095ea7b314610331578063164500921461035157806318160ddd146103665780631b02f8451461037b5780631d007f5f1461039057806323b872dd146103b057610288565b806303a821381461028d57806306f8b189146102b857806306fdde03146102d85780630781f4d2146102fa578063090bbb011461030f575b600080fd5b34801561029957600080fd5b506102a26107c7565b6040516102af9190611cb3565b60405180910390f35b3480156102c457600080fd5b506102a26102d3366004611b9f565b610813565b3480156102e457600080fd5b506102ed610934565b6040516102af9190611cbe565b34801561030657600080fd5b506102a26109c2565b34801561031b57600080fd5b506103246109cb565b6040516102af9190611fb4565b34801561033d57600080fd5b506102a261034c366004611b75565b6109d1565b34801561035d57600080fd5b506103246109e8565b34801561037257600080fd5b506103246109ee565b34801561038757600080fd5b506102a26109f4565b34801561039c57600080fd5b506102a26103ab366004611ae6565b610a35565b3480156103bc57600080fd5b506102a26103cb366004611b35565b610ae6565b3480156103dc57600080fd5b506103e5610b55565b6040516102af9190611c2e565b3480156103fe57600080fd5b506102a261040d366004611b75565b610b64565b34801561041e57600080fd5b506102a2610b71565b34801561043357600080fd5b50610324610bae565b34801561044857600080fd5b506102a2610457366004611b75565b610bb4565b34801561046857600080fd5b50610324610bf0565b34801561047d57600080fd5b5061049161048c366004611bf2565b610bf6565b005b34801561049f57600080fd5b50610324610c03565b3480156104b457600080fd5b506103246104c3366004611ae6565b610c09565b3480156104d457600080fd5b506103e5610c24565b3480156104e957600080fd5b506102a26104f8366004611bf2565b610c33565b34801561050957600080fd5b50610324610518366004611ae6565b610c97565b34801561052957600080fd5b506102a2610538366004611ae6565b610d2d565b34801561054957600080fd5b50610552610dc0565b6040516102af9190611c66565b34801561056b57600080fd5b5061049161057a366004611b75565b610e22565b34801561058b57600080fd5b506102a261059a366004611ae6565b610e74565b3480156105ab57600080fd5b506102ed610eee565b3480156105c057600080fd5b506103246105cf366004611ae6565b610f48565b3480156105e057600080fd5b50610324610f5a565b3480156105f557600080fd5b506103e5610f60565b34801561060a57600080fd5b50610324610f6f565b34801561061f57600080fd5b5061063361062e366004611ae6565b610f75565b6040516102af9190611f87565b34801561064c57600080fd5b506102a261065b366004611b75565b610fd0565b34801561066c57600080fd5b506102a261067b366004611b75565b611025565b61049161068e366004611b75565b611032565b34801561069f57600080fd5b506102a26106ae366004611bf2565b6112a5565b3480156106bf57600080fd5b506103246106ce366004611ae6565b611309565b3480156106df57600080fd5b506103246106ee366004611ae6565b61131b565b3480156106ff57600080fd5b506103e561132d565b34801561071457600080fd5b506102a261133c565b34801561072957600080fd5b50610324610738366004611b01565b6113ba565b34801561074957600080fd5b506103e5610758366004611bf2565b6113e5565b34801561076957600080fd5b50610552610778366004611c0a565b61140c565b34801561078957600080fd5b506103246114e6565b34801561079e57600080fd5b506103246114ec565b3480156107b357600080fd5b506102a26107c2366004611ae6565b611544565b600f546000906001600160a01b031633146107fd5760405162461bcd60e51b81526004016107f490611e06565b60405180910390fd5b50601180546001600160a01b0319169055600190565b600f546000906001600160a01b031633146108405760405162461bcd60e51b81526004016107f490611e06565b6001600160a01b03841660009081526013602052604090205460ff166108c6576001600160a01b0384166000818152601360205260408120805460ff191660019081179091556012805491820181559091527fbb8a6a4669ba250d26cd7a459eca9d215f8307e33aebe50379bc5a3617ec34440180546001600160a01b03191690911790555b6001600160a01b03841660008181526014602090815260408083208790556016909152908190208490555133907f1adc5ea472d4a0b01604de1a7e973f26d81a58b0dafb186558bdf15e1af8479b906109229087908790611fbd565b60405180910390a35060019392505050565b6000805460408051602060026001851615610100026000190190941693909304601f810184900484028201840190925281815292918301828280156109ba5780601f1061098f576101008083540402835291602001916109ba565b820191906000526020600020905b81548152906001019060200180831161099d57829003601f168201915b505050505081565b60075460ff1681565b600d5481565b60006109de338484611559565b5060015b92915050565b600a5481565b60035481565b600f546000906001600160a01b03163314610a215760405162461bcd60e51b81526004016107f490611e06565b506007805460ff1916600190811790915590565b600f546000906001600160a01b03163314610a625760405162461bcd60e51b81526004016107f490611e06565b6001600160a01b038216610a885760405162461bcd60e51b81526004016107f490611e92565b600f80546001600160a01b0319166001600160a01b03841617905560405133907f567cac11d4a66456bbe20dc60d3579ec446a4e2fffae2a85f82ad0f1f18214f190610ad5908590611c2e565b60405180910390a25060015b919050565b6000610af384848461160d565b610b4b8433610b4685604051806060016040528060298152602001612065602991396001600160a01b038a166000908152600560209081526040808320338452909152902054919063ffffffff61170f16565b611559565b5060019392505050565b600e546001600160a01b031681565b60006109de32848461160d565b600f546000906001600160a01b03163314610b9e5760405162461bcd60e51b81526004016107f490611e06565b506007805460ff19169055600190565b60025481565b3360008181526005602090815260408083206001600160a01b038716845290915281205490916109de918590610b46908663ffffffff61173b16565b60095481565b610c003382611767565b50565b600b5481565b6001600160a01b031660009081526004602052604090205490565b6010546001600160a01b031681565b600f546000906001600160a01b03163314610c605760405162461bcd60e51b81526004016107f490611e06565b600b82905560405133907fc0473c2cbb9705ca96e7d892f51ae51b81f597dab7ed6eb25f0a3e7c75d4663990610ad5908590611fb4565b6001600160a01b03811660009081526014602052604081205460095460035411610cc2579050610ae1565b6000610cdb600954600a5461184990919063ffffffff16565b9050610d2481610d18610d0b610cfe60095460035461184990919063ffffffff16565b859063ffffffff61184916565b859063ffffffff61188b16565b9063ffffffff6118c516565b92505050610ae1565b600f546000906001600160a01b03163314610d5a5760405162461bcd60e51b81526004016107f490611e06565b6001600160a01b0382166000818152601360209081526040808320805460ff191690556014825280832083905560169091528082208290555133917ff487c2322baa448cfa506b983134d9dd9f27d0bbfe0b48119a3908d4f0dde89f91a3506001919050565b60606012805480602002602001604051908101604052809291908181526020018280548015610e1857602002820191906000526020600020905b81546001600160a01b03168152600190910190602001808311610dfa575b5050505050905090565b6000610e5882604051806060016040528060258152602001611ff760259139610e4b86336113ba565b919063ffffffff61170f16565b9050610e65833383611559565b610e6f8383611767565b505050565b600f546000906001600160a01b03163314610ea15760405162461bcd60e51b81526004016107f490611e06565b600e80546001600160a01b0319166001600160a01b03841617905560405133907f5b536d33bf72072f3abff40e9c9bc550f83025bbc9b8cc36972c166d8b568b4390610ad5908590611c2e565b60018054604080516020600284861615610100026000190190941693909304601f810184900484028201840190925281815292918301828280156109ba5780601f1061098f576101008083540402835291602001916109ba565b60166020526000908152604090205481565b600c5481565b600f546001600160a01b031681565b60085481565b610f7d611aa5565b6001600160a01b0390911660008181526013602090815260408083205460ff1615158552838352601482528083205485830152838352601582528083205485820152928252601690522054606082015290565b60006109de3384610b468560405180606001604052806026815260200161201c602691393360009081526005602090815260408083206001600160a01b038d168452909152902054919063ffffffff61170f16565b60006109de33848461160d565b6001600160a01b03821660009081526016602090815260408083205460159092529091205482919061106a908363ffffffff61173b16565b11156110a7576001600160a01b0383166000908152601560209081526040808320546016909252909120546110a49163ffffffff61184916565b90505b6001600160a01b03831661119f573482146110d45760405162461bcd60e51b81526004016107f490611e2b565b6010546040516001600160a01b039091169082906110f190611c2b565b60006040518083038185875af1925050503d806000811461112e576040519150601f19603f3d011682016040523d82523d6000602084013e611133565b606091505b503391506111499050838363ffffffff61184916565b60405161115590611c2b565b60006040518083038185875af1925050503d8060008114611192576040519150601f19603f3d011682016040523d82523d6000602084013e611197565b606091505b505050611227565b6010546040516323b872dd60e01b81526001600160a01b03808616926323b872dd926111d392339216908690600401611c42565b602060405180830381600087803b1580156111ed57600080fd5b505af1158015611201573d6000803e3d6000fd5b505050506040513d601f19601f820116820180604052508101906112259190611bd2565b505b6001600160a01b038316600090815260156020526040902054611250908363ffffffff61173b16565b6001600160a01b03841660009081526015602052604081209190915561127584610c97565b90506000611292600654610d18858561188b90919063ffffffff16565b905061129e3382611907565b5050505050565b600f546000906001600160a01b031633146112d25760405162461bcd60e51b81526004016107f490611e06565b600882905560405133907fe61d471656d849b230e45307bce5f71d00383888866b992d6a6993b72361e79990610ad5908590611fb4565b60146020526000908152604090205481565b60156020526000908152604090205481565b6011546001600160a01b031681565b600f546000906001600160a01b031633146113695760405162461bcd60e51b81526004016107f490611e06565b600f80546001600160a01b031916905560405133907f567cac11d4a66456bbe20dc60d3579ec446a4e2fffae2a85f82ad0f1f18214f1906113ac90600090611c2e565b60405180910390a250600190565b6001600160a01b03918216600090815260056020908152604080832093909416825291909152205490565b601281815481106113f257fe5b6000918252602090912001546001600160a01b0316905081565b60606114166114e6565b821115611428576114256114e6565b91505b60608267ffffffffffffffff8111801561144157600080fd5b5060405190808252806020026020018201604052801561146b578160200160208202803683370190505b509050835b611480858563ffffffff61173b16565b8110156114de576012818154811061149457fe5b9060005260206000200160009054906101000a90046001600160a01b03168282815181106114be57fe5b6001600160a01b0390921660209283029190910190910152600101611470565b509392505050565b60125490565b6000806009546003541161151e57611517600954610d18600354600a5461188b90919063ffffffff16565b9050611523565b50600a545b61153e600854610d186003548461184990919063ffffffff16565b91505090565b60136020526000908152604090205460ff1681565b6001600160a01b03831661157f5760405162461bcd60e51b81526004016107f490611f42565b6001600160a01b0382166115a55760405162461bcd60e51b81526004016107f490611d7d565b6001600160a01b0380841660008181526005602090815260408083209487168084529490915290819020849055517f8c5be1e5ebec7d5bd14f71427d1e84f3dd0314c0f7b2291e5b200ac8c7c3b92590611600908590611fb4565b60405180910390a3505050565b6001600160a01b0383166116335760405162461bcd60e51b81526004016107f490611dc0565b6116768160405180606001604052806027815260200161208e602791396001600160a01b038616600090815260046020526040902054919063ffffffff61170f16565b6001600160a01b0380851660009081526004602052604080822093909355908416815220546116ab908263ffffffff61173b16565b6001600160a01b0383166000908152600460205260409020556116cc6119de565b816001600160a01b0316836001600160a01b03167fddf252ad1be2c89b69c2b068fc378daa952ba7f163c4a11628f55a4df523b3ef836040516116009190611fb4565b600081848411156117335760405162461bcd60e51b81526004016107f49190611cbe565b505050900390565b6000828201838110156117605760405162461bcd60e51b81526004016107f490611d46565b9392505050565b6001600160a01b03821661178d5760405162461bcd60e51b81526004016107f490611f00565b6117d081604051806060016040528060238152602001612042602391396001600160a01b038516600090815260046020526040902054919063ffffffff61170f16565b6001600160a01b0383166000908152600460205260409020556003546117fc908263ffffffff61184916565b6003556040516000906001600160a01b038416907fddf252ad1be2c89b69c2b068fc378daa952ba7f163c4a11628f55a4df523b3ef9061183d908590611fb4565b60405180910390a35050565b600061176083836040518060400160405280601e81526020017f536166654d6174683a207375627472616374696f6e206f766572666c6f77000081525061170f565b60008261189a575060006109e2565b828202828482816118a757fe5b04146117605760405162461bcd60e51b81526004016107f490611e51565b600061176083836040518060400160405280601a81526020017f536166654d6174683a206469766973696f6e206279207a65726f000000000000815250611a6e565b6001600160a01b03821661192d5760405162461bcd60e51b81526004016107f490611d11565b600354611940908263ffffffff61173b16565b6003819055600a5410156119665760405162461bcd60e51b81526004016107f490611ec9565b6001600160a01b03821660009081526004602052604090205461198f908263ffffffff61173b16565b6001600160a01b0383166000818152600460205260408082209390935591519091907fddf252ad1be2c89b69c2b068fc378daa952ba7f163c4a11628f55a4df523b3ef9061183d908590611fb4565b600d5442101580156119f2575060075460ff165b15611a6c57600c80546001019055600b544201600d556000611a126114ec565b600e54909150611a2b906001600160a01b031682611907565b7f9d472bcf372fce01fd875c3296e8e5ae0a08bfca42dedac19e202271ce8f39c5600c54600d5483604051611a6293929190611fcb565b60405180910390a1505b565b60008183611a8f5760405162461bcd60e51b81526004016107f49190611cbe565b506000838581611a9b57fe5b0495945050505050565b60405180608001604052806000151581526020016000815260200160008152602001600081525090565b80356001600160a01b03811681146109e257600080fd5b600060208284031215611af7578081fd5b6117608383611acf565b60008060408385031215611b13578081fd5b611b1d8484611acf565b9150611b2c8460208501611acf565b90509250929050565b600080600060608486031215611b49578081fd5b8335611b5481611fe1565b92506020840135611b6481611fe1565b929592945050506040919091013590565b60008060408385031215611b87578182fd5b611b918484611acf565b946020939093013593505050565b600080600060608486031215611bb3578283fd5b611bbd8585611acf565b95602085013595506040909401359392505050565b600060208284031215611be3578081fd5b81518015158114611760578182fd5b600060208284031215611c03578081fd5b5035919050565b60008060408385031215611c1c578182fd5b50508035926020909101359150565b90565b6001600160a01b0391909116815260200190565b6001600160a01b039384168152919092166020820152604081019190915260600190565b6020808252825182820181905260009190848201906040850190845b81811015611ca75783516001600160a01b031683529284019291840191600101611c82565b50909695505050505050565b901515815260200190565b6000602080835283518082850152825b81811015611cea57858101830151858201604001528201611cce565b81811115611cfb5783604083870101525b50601f01601f1916929092016040019392505050565b6020808252818101527f6945524332303a206d696e7420746f20746865207a65726f2061646472657373604082015260600190565b6020808252601b908201527f536166654d6174683a206164646974696f6e206f766572666c6f770000000000604082015260600190565b60208082526023908201527f6945524332303a20617070726f766520746f20746865207a65726f206164647260408201526265737360e81b606082015260800190565b60208082526026908201527f6945524332303a207472616e736665722066726f6d20746865207a65726f206160408201526564647265737360d01b606082015260800190565b6020808252600b908201526a4d7573742062652044414f60a81b604082015260600190565b6020808252600c908201526b26bab9ba1033b2ba1021272160a11b604082015260600190565b60208082526021908201527f536166654d6174683a206d756c7469706c69636174696f6e206f766572666c6f6040820152607760f81b606082015260800190565b60208082526018908201527f4d757374206e6f74206265207a65726f20616464726573730000000000000000604082015260600190565b6020808252601f908201527f4d757374206e6f74206d696e74206d6f7265207468616e207468652063617000604082015260600190565b60208082526022908201527f6945524332303a206275726e2066726f6d20746865207a65726f206164647265604082015261737360f01b606082015260800190565b60208082526025908201527f6945524332303a20617070726f76652066726f6d20746865207a65726f206164604082015264647265737360d81b606082015260800190565b81511515815260208083015190820152604080830151908201526060918201519181019190915260800190565b90815260200190565b918252602082015260400190565b9283526020830191909152604082015260600190565b6001600160a01b0381168114610c0057600080fdfe6945524332303a206275726e20616d6f756e74206578636565647320616c6c6f77616e63656945524332303a2064656372656173656420616c6c6f77616e63652062656c6f77207a65726f6945524332303a206275726e20616d6f756e7420657863656564732062616c616e63656945524332303a207472616e7366657220616d6f756e74206578636565647320616c6c6f77616e63656945524332303a207472616e7366657220616d6f756e7420657863656564732062616c616e6365a2646970667358221220db469cad6327d0a308d0ef07ecbdeb736dba360635891e8b8e93c1759a5e13a964736f6c63430006080033",
  "immutableReferences": {},
  "source": "// SPDX-License-Identifier: UNLICENSED\npragma solidity 0.6.8;\npragma experimental ABIEncoderV2;\n//iERC20 Interface\ninterface iBEP20 {\n    function name() external view returns (string memory);\n    function symbol() external view returns (string memory);\n    function decimals() external view returns (uint);\n    function totalSupply() external view returns (uint);\n    function balanceOf(address account) external view returns (uint);\n    function transfer(address, uint) external returns (bool);\n    function allowance(address owner, address spender) external view returns (uint);\n    function approve(address, uint) external returns (bool);\n    function transferFrom(address, address, uint) external returns (bool);\n    event Transfer(address indexed from, address indexed to, uint value);\n    event Approval(address indexed owner, address indexed spender, uint value);\n}\n\nlibrary SafeMath {\n    function add(uint256 a, uint256 b) internal pure returns (uint256) {\n        uint256 c = a + b;\n        require(c >= a, \"SafeMath: addition overflow\");\n        return c;\n    }\n    function sub(uint256 a, uint256 b) internal pure returns (uint256) {\n        return sub(a, b, \"SafeMath: subtraction overflow\");\n    }\n    function sub(uint256 a, uint256 b, string memory errorMessage) internal pure returns (uint256) {\n        require(b <= a, errorMessage);\n        uint256 c = a - b;\n        return c;\n    }\n    function div(uint256 a, uint256 b) internal pure returns (uint256) {\n        return div(a, b, \"SafeMath: division by zero\");\n    }\n    function div(uint256 a, uint256 b, string memory errorMessage) internal pure returns (uint256) {\n        require(b > 0, errorMessage);\n        uint256 c = a / b;\n        return c;\n    }\n    function mul(uint256 a, uint256 b) internal pure returns (uint256) {\n        if (a == 0) {\n            return 0;\n        }\n        uint256 c = a * b;\n        require(c / a == b, \"SafeMath: multiplication overflow\");\n        return c;\n    }\n}\n    //======================================SPARTA=========================================//\ncontract BaseMinted is iBEP20 {\n    using SafeMath for uint256;\n\n    // ERC-20 Parameters\n    string public override name; string public override symbol;\n    uint256 public override decimals; uint256 public override totalSupply;\n\n    // ERC-20 Mappings\n    mapping(address => uint256) private _balances;\n    mapping(address => mapping(address => uint256)) private _allowances;\n\n    // Parameters\n    uint256 one;\n    bool public emitting;\n    uint256 public emissionCurve;\n    uint256 public _100m;\n    uint256 public totalCap;\n    uint256 public secondsPerEra;\n    uint256 public currentEra;\n    uint256 public nextEraTime;\n\n    address public incentiveAddress;\n    address public DAO;\n    address public burnAddress;\n    address public DEPLOYER;\n\n    address[] public assetArray;\n    mapping(address => bool) public isListed;\n    mapping(address => uint256) public mapAsset_claimRate;\n    mapping(address => uint256) public mapAsset_claimed;\n    mapping(address => uint256) public mapAsset_allocation;\n\n    struct AssetDetailsStruct {\n        bool listed;\n        uint256 claimRate;\n        uint256 claimed;\n        uint256 allocation;\n    }\n\n    // Events\n    event ListedAsset(address indexed DAO, address indexed asset, uint256 claimRate, uint256 allocation);\n    event DelistedAsset(address indexed DAO, address indexed asset);\n    event NewCurve(address indexed DAO, uint256 newCurve);\n    event NewIncentiveAddress(address indexed DAO, address newIncentiveAddress);\n    event NewDuration(address indexed DAO, uint256 newDuration);\n    event NewDAO(address indexed DAO, address newOwner);\n    event NewEra(uint256 currentEra, uint256 nextEraTime, uint256 emission);\n\n    // Only DAO can execute\n    modifier onlyDAO() {\n        require(msg.sender == DAO, \"Must be DAO\");\n        _;\n    }\n\n    //=====================================CREATION=========================================//\n    // Constructor\n    constructor() public {\n        name = 'SPARTAN PROTOCOL TOKEN';\n        symbol = 'SPARTA';\n        decimals = 18;\n        one = 10 ** decimals;\n        _100m = 100 * 10**6 * one;\n        totalSupply = _100m/2;\n        totalCap = 300 * 10**6 * one;\n        emissionCurve = 2048;\n        emitting = false;\n        currentEra = 1;\n        secondsPerEra = 1; //86400;\n        nextEraTime = now + secondsPerEra;\n        DAO = msg.sender;\n        burnAddress = 0x0000000000000000000000000000000000000001;\n        _balances[msg.sender] = totalSupply;\n        emit Transfer(address(0), msg.sender, totalSupply);\n    }\n\n    //========================================iERC20=========================================//\n    function balanceOf(address account) public view override returns (uint256) {\n        return _balances[account];\n    }\n    function allowance(address owner, address spender) public view virtual override returns (uint256) {\n        return _allowances[owner][spender];\n    }\n    // iERC20 Transfer function\n    function transfer(address recipient, uint256 amount) public virtual override returns (bool) {\n        _transfer(msg.sender, recipient, amount);\n        return true;\n    }\n    // iERC20 Approve, change allowance functions\n    function approve(address spender, uint256 amount) public virtual override returns (bool) {\n        _approve(msg.sender, spender, amount);\n        return true;\n    }\n    function increaseAllowance(address spender, uint256 addedValue) public virtual returns (bool) {\n        _approve(msg.sender, spender, _allowances[msg.sender][spender].add(addedValue));\n        return true;\n    }\n    function decreaseAllowance(address spender, uint256 subtractedValue) public virtual returns (bool) {\n        _approve(msg.sender, spender, _allowances[msg.sender][spender].sub(subtractedValue, \"iERC20: decreased allowance below zero\"));\n        return true;\n    }\n    function _approve(address owner, address spender, uint256 amount) internal virtual {\n        require(owner != address(0), \"iERC20: approve from the zero address\");\n        require(spender != address(0), \"iERC20: approve to the zero address\");\n        _allowances[owner][spender] = amount;\n        emit Approval(owner, spender, amount);\n    }\n    \n    // iERC20 TransferFrom function\n    function transferFrom(address sender, address recipient, uint256 amount) public virtual override returns (bool) {\n        _transfer(sender, recipient, amount);\n        _approve(sender, msg.sender, _allowances[sender][msg.sender].sub(amount, \"iERC20: transfer amount exceeds allowance\"));\n        return true;\n    }\n\n    // TransferTo function\n    function transferTo(address recipient, uint256 amount) public returns (bool) {\n        _transfer(tx.origin, recipient, amount);\n        return true;\n    }\n\n    // Internal transfer function\n    function _transfer(address sender, address recipient, uint256 amount) internal virtual {\n        require(sender != address(0), \"iERC20: transfer from the zero address\");\n        _balances[sender] = _balances[sender].sub(amount, \"iERC20: transfer amount exceeds balance\");\n        _balances[recipient] = _balances[recipient].add(amount);\n        _checkEmission();\n        emit Transfer(sender, recipient, amount);\n    }\n    // Internal mint (upgrading and daily emissions)\n    function _mint(address account, uint256 amount) internal virtual {\n        require(account != address(0), \"iERC20: mint to the zero address\");\n        totalSupply = totalSupply.add(amount);\n        require(totalSupply <= totalCap, \"Must not mint more than the cap\");\n        _balances[account] = _balances[account].add(amount);\n        emit Transfer(address(0), account, amount);\n    }\n    // Burn supply\n    function burn(uint256 amount) public virtual {\n        _burn(msg.sender, amount);\n    }\n    function burnFrom(address account, uint256 amount) public virtual {\n        uint256 decreasedAllowance = allowance(account, msg.sender).sub(amount, \"iERC20: burn amount exceeds allowance\");\n        _approve(account, msg.sender, decreasedAllowance);\n        _burn(account, amount);\n    }\n    function _burn(address account, uint256 amount) internal virtual {\n        require(account != address(0), \"iERC20: burn from the zero address\");\n        _balances[account] = _balances[account].sub(amount, \"iERC20: burn amount exceeds balance\");\n        totalSupply = totalSupply.sub(amount);\n        emit Transfer(account, address(0), amount);\n    }\n\n    //=========================================DAO=========================================//\n    // Can list\n    function listAsset(address asset, uint256 claimRate, uint256 allocation) public onlyDAO returns(bool){\n        if(!isListed[asset]){\n            isListed[asset] = true;\n            assetArray.push(asset);\n        }\n        mapAsset_claimRate[asset] = claimRate;\n        mapAsset_allocation[asset] = allocation;\n        emit ListedAsset(msg.sender, asset, claimRate, allocation);\n        return true;\n    }\n    // Can delist\n    function delistAsset(address asset) public onlyDAO returns(bool){\n        isListed[asset] = false;\n        mapAsset_claimRate[asset] = 0;\n        mapAsset_allocation[asset] = 0;\n        emit DelistedAsset(msg.sender, asset);\n        return true;\n    }\n    // Can start\n    function startEmissions() public onlyDAO returns(bool){\n        emitting = true;\n        return true;\n    }\n    // Can stop\n    function stopEmissions() public onlyDAO returns(bool){\n        emitting = false;\n        return true;\n    }\n    // Can change emissionCurve\n    function changeEmissionCurve(uint256 newCurve) public onlyDAO returns(bool){\n        emissionCurve = newCurve;\n        emit NewCurve(msg.sender, newCurve);\n        return true;\n    }\n    // Can change daily time\n    function changeEraDuration(uint256 newDuration) public onlyDAO returns(bool) {\n        secondsPerEra = newDuration;\n        emit NewDuration(msg.sender, newDuration);\n        return true;\n    }\n    // Can change Incentive Address\n    function changeIncentiveAddress(address newIncentiveAddress) public onlyDAO returns(bool) {\n        incentiveAddress = newIncentiveAddress;\n        emit NewIncentiveAddress(msg.sender, newIncentiveAddress);\n        return true;\n    }\n    // Can change DAO\n    function changeDAO(address newDAO) public onlyDAO returns(bool){\n        require(newDAO != address(0), \"Must not be zero address\");\n        DAO = newDAO;\n        emit NewDAO(msg.sender, newDAO);\n        return true;\n    }\n    // Can purge DAO\n    function purgeDAO() public onlyDAO returns(bool){\n        DAO = address(0);\n        emit NewDAO(msg.sender, address(0));\n        return true;\n    }\n    // Can purge DEPLOYER\n    function purgeDeployer() public onlyDAO returns(bool){\n        DEPLOYER = address(0);\n        return true;\n    }\n\n   //======================================EMISSION========================================//\n    // Internal - Update emission function\n    function _checkEmission() private {\n        if ((now >= nextEraTime) && emitting) {                                            // If new Era and allowed to emit\n            currentEra += 1;                                                               // Increment Era\n            nextEraTime = now + secondsPerEra;                                             // Set next Era time\n            uint256 _emission = getDailyEmission();                                        // Get Daily Dmission\n            _mint(incentiveAddress, _emission);                                            // Mint to the Incentive Address\n            emit NewEra(currentEra, nextEraTime, _emission);                               // Emit Event\n        }\n    }\n    // Calculate Daily Emission\n    function getDailyEmission() public view returns (uint256) {\n        uint _adjustedCap;\n        if(totalSupply <= _100m){ // If less than 100m, then adjust cap down\n            _adjustedCap = (totalCap.mul(totalSupply)).div(_100m); // 300m * 50m / 100m = 300m * 50% = 150m\n        } else {\n            _adjustedCap = totalCap;  // 300m\n        }\n        return (_adjustedCap.sub(totalSupply)).div(emissionCurve); // outstanding / 2048 \n    }\n    //======================================CLAIM========================================//\n    // Anyone to Claim\n    function claim(address asset, uint amount) public payable {\n        \n        uint _claim = amount;\n        if(mapAsset_claimed[asset].add(amount) > mapAsset_allocation[asset]){\n            _claim = mapAsset_allocation[asset].sub(mapAsset_claimed[asset]);\n        }\n\n        if(asset == address(0)){\n            require(amount == msg.value, \"Must get BNB\");\n            payable(burnAddress).call{value:_claim}(\"\");\n            payable(msg.sender).call{value:amount.sub(_claim)}(\"\");\n        } else {\n            iBEP20(asset).transferFrom(msg.sender, burnAddress, _claim);\n        }\n        \n        mapAsset_claimed[asset] = mapAsset_claimed[asset].add(amount);\n        uint256 _adjustedClaimRate = getAdjustedClaimRate(asset);\n        // sparta = rate * claim / 1e8\n        uint256 _sparta = (_adjustedClaimRate.mul(_claim)).div(one);\n        _mint(msg.sender, _sparta);\n    }\n     // Calculate Adjusted Claim Rate\n    function getAdjustedClaimRate(address asset) public view returns (uint256 adjustedClaimRate) {\n        uint256 _claimRate = mapAsset_claimRate[asset];                           // Get Claim Rate\n        if(totalSupply <= _100m){\n            // return 100%\n            return _claimRate;\n        } else {\n            // (claim*(200-(totalSupply-_100m)))/200 -> starts 100% then goes to 0 at 300m. \n            uint256 _200m = totalCap.sub(_100m);\n            return _claimRate.mul(_200m.sub((totalSupply.sub(_100m)))).div(_200m);\n        }\n    }\n    //======================================HELPERS========================================//\n    // Helper Functions\n\n    function assetCount() public view returns (uint256 count){\n        return assetArray.length;\n    }\n    function allAssets() public view returns (address[] memory _allAssets){\n        return assetArray;\n    }\n    function assetsInRange(uint start, uint count) public view returns (address[] memory someAssets){\n        if(count > assetCount()){count = assetCount();}\n        address[] memory result = new address[](count);\n        for (uint i = start; i<start.add(count); i++){\n            result[i] = assetArray[i];\n        }\n        return result;\n    }\n\n    function getAssetDetails(address asset) public view returns (AssetDetailsStruct memory assetDetails){\n        assetDetails.listed = isListed[asset];\n        assetDetails.claimRate = mapAsset_claimRate[asset];\n        assetDetails.claimed = mapAsset_claimed[asset];\n        assetDetails.allocation = mapAsset_allocation[asset];\n    }\n}",
  "sourcePath": "/Users/guzziplus/spartanswap-contracts/contracts/BaseMinted.sol",
  "compiler": {
    "name": "solc",
    "version": "0.6.8+commit.0bbfe453.Emscripten.clang"
  },
  "schemaVersion": "3.3.1",
  "updatedAt": "2020-11-06T00:41:33.780Z",
  "devdoc": {
    "methods": {}
  },
  "userdoc": {
    "methods": {}
  }
}