{
  "contractName": "Base",
  "abi": [
    {
      "inputs": [],
      "stateMutability": "nonpayable",
      "type": "constructor"
    },
    {
      "anonymous": false,
      "inputs": [
        {
          "indexed": true,
          "internalType": "address",
          "name": "owner",
          "type": "address"
        },
        {
          "indexed": true,
          "internalType": "address",
          "name": "spender",
          "type": "address"
        },
        {
          "indexed": false,
          "internalType": "uint256",
          "name": "value",
          "type": "uint256"
        }
      ],
      "name": "Approval",
      "type": "event"
    },
    {
      "anonymous": false,
      "inputs": [
        {
          "indexed": true,
          "internalType": "address",
          "name": "DAO",
          "type": "address"
        },
        {
          "indexed": true,
          "internalType": "address",
          "name": "asset",
          "type": "address"
        }
      ],
      "name": "DelistedAsset",
      "type": "event"
    },
    {
      "anonymous": false,
      "inputs": [
        {
          "indexed": true,
          "internalType": "address",
          "name": "DAO",
          "type": "address"
        },
        {
          "indexed": true,
          "internalType": "address",
          "name": "asset",
          "type": "address"
        },
        {
          "indexed": false,
          "internalType": "uint256",
          "name": "claimRate",
          "type": "uint256"
        },
        {
          "indexed": false,
          "internalType": "uint256",
          "name": "allocation",
          "type": "uint256"
        }
      ],
      "name": "ListedAsset",
      "type": "event"
    },
    {
      "anonymous": false,
      "inputs": [
        {
          "indexed": true,
          "internalType": "address",
          "name": "DAO",
          "type": "address"
        },
        {
          "indexed": false,
          "internalType": "uint256",
          "name": "newCurve",
          "type": "uint256"
        }
      ],
      "name": "NewCurve",
      "type": "event"
    },
    {
      "anonymous": false,
      "inputs": [
        {
          "indexed": true,
          "internalType": "address",
          "name": "DAO",
          "type": "address"
        },
        {
          "indexed": false,
          "internalType": "address",
          "name": "newOwner",
          "type": "address"
        }
      ],
      "name": "NewDAO",
      "type": "event"
    },
    {
      "anonymous": false,
      "inputs": [
        {
          "indexed": true,
          "internalType": "address",
          "name": "DAO",
          "type": "address"
        },
        {
          "indexed": false,
          "internalType": "uint256",
          "name": "newDuration",
          "type": "uint256"
        }
      ],
      "name": "NewDuration",
      "type": "event"
    },
    {
      "anonymous": false,
      "inputs": [
        {
          "indexed": false,
          "internalType": "uint256",
          "name": "currentEra",
          "type": "uint256"
        },
        {
          "indexed": false,
          "internalType": "uint256",
          "name": "nextEraTime",
          "type": "uint256"
        },
        {
          "indexed": false,
          "internalType": "uint256",
          "name": "emission",
          "type": "uint256"
        }
      ],
      "name": "NewEra",
      "type": "event"
    },
    {
      "anonymous": false,
      "inputs": [
        {
          "indexed": true,
          "internalType": "address",
          "name": "DAO",
          "type": "address"
        },
        {
          "indexed": false,
          "internalType": "address",
          "name": "newIncentiveAddress",
          "type": "address"
        }
      ],
      "name": "NewIncentiveAddress",
      "type": "event"
    },
    {
      "anonymous": false,
      "inputs": [
        {
          "indexed": true,
          "internalType": "address",
          "name": "from",
          "type": "address"
        },
        {
          "indexed": true,
          "internalType": "address",
          "name": "to",
          "type": "address"
        },
        {
          "indexed": false,
          "internalType": "uint256",
          "name": "value",
          "type": "uint256"
        }
      ],
      "name": "Transfer",
      "type": "event"
    },
    {
      "inputs": [],
      "name": "DAO",
      "outputs": [
        {
          "internalType": "address",
          "name": "",
          "type": "address"
        }
      ],
      "stateMutability": "view",
      "type": "function"
    },
    {
      "inputs": [],
      "name": "DEPLOYER",
      "outputs": [
        {
          "internalType": "address",
          "name": "",
          "type": "address"
        }
      ],
      "stateMutability": "view",
      "type": "function"
    },
    {
      "inputs": [],
      "name": "_100m",
      "outputs": [
        {
          "internalType": "uint256",
          "name": "",
          "type": "uint256"
        }
      ],
      "stateMutability": "view",
      "type": "function"
    },
    {
      "inputs": [
        {
          "internalType": "uint256",
          "name": "",
          "type": "uint256"
        }
      ],
      "name": "assetArray",
      "outputs": [
        {
          "internalType": "address",
          "name": "",
          "type": "address"
        }
      ],
      "stateMutability": "view",
      "type": "function"
    },
    {
      "inputs": [],
      "name": "burnAddress",
      "outputs": [
        {
          "internalType": "address",
          "name": "",
          "type": "address"
        }
      ],
      "stateMutability": "view",
      "type": "function"
    },
    {
      "inputs": [],
      "name": "currentEra",
      "outputs": [
        {
          "internalType": "uint256",
          "name": "",
          "type": "uint256"
        }
      ],
      "stateMutability": "view",
      "type": "function"
    },
    {
      "inputs": [],
      "name": "decimals",
      "outputs": [
        {
          "internalType": "uint256",
          "name": "",
          "type": "uint256"
        }
      ],
      "stateMutability": "view",
      "type": "function"
    },
    {
      "inputs": [],
      "name": "emissionCurve",
      "outputs": [
        {
          "internalType": "uint256",
          "name": "",
          "type": "uint256"
        }
      ],
      "stateMutability": "view",
      "type": "function"
    },
    {
      "inputs": [],
      "name": "emitting",
      "outputs": [
        {
          "internalType": "bool",
          "name": "",
          "type": "bool"
        }
      ],
      "stateMutability": "view",
      "type": "function"
    },
    {
      "inputs": [],
      "name": "incentiveAddress",
      "outputs": [
        {
          "internalType": "address",
          "name": "",
          "type": "address"
        }
      ],
      "stateMutability": "view",
      "type": "function"
    },
    {
      "inputs": [
        {
          "internalType": "address",
          "name": "",
          "type": "address"
        }
      ],
      "name": "isListed",
      "outputs": [
        {
          "internalType": "bool",
          "name": "",
          "type": "bool"
        }
      ],
      "stateMutability": "view",
      "type": "function"
    },
    {
      "inputs": [
        {
          "internalType": "address",
          "name": "",
          "type": "address"
        }
      ],
      "name": "mapAsset_allocation",
      "outputs": [
        {
          "internalType": "uint256",
          "name": "",
          "type": "uint256"
        }
      ],
      "stateMutability": "view",
      "type": "function"
    },
    {
      "inputs": [
        {
          "internalType": "address",
          "name": "",
          "type": "address"
        }
      ],
      "name": "mapAsset_claimRate",
      "outputs": [
        {
          "internalType": "uint256",
          "name": "",
          "type": "uint256"
        }
      ],
      "stateMutability": "view",
      "type": "function"
    },
    {
      "inputs": [
        {
          "internalType": "address",
          "name": "",
          "type": "address"
        }
      ],
      "name": "mapAsset_claimed",
      "outputs": [
        {
          "internalType": "uint256",
          "name": "",
          "type": "uint256"
        }
      ],
      "stateMutability": "view",
      "type": "function"
    },
    {
      "inputs": [],
      "name": "name",
      "outputs": [
        {
          "internalType": "string",
          "name": "",
          "type": "string"
        }
      ],
      "stateMutability": "view",
      "type": "function"
    },
    {
      "inputs": [],
      "name": "nextEraTime",
      "outputs": [
        {
          "internalType": "uint256",
          "name": "",
          "type": "uint256"
        }
      ],
      "stateMutability": "view",
      "type": "function"
    },
    {
      "inputs": [],
      "name": "secondsPerEra",
      "outputs": [
        {
          "internalType": "uint256",
          "name": "",
          "type": "uint256"
        }
      ],
      "stateMutability": "view",
      "type": "function"
    },
    {
      "inputs": [],
      "name": "symbol",
      "outputs": [
        {
          "internalType": "string",
          "name": "",
          "type": "string"
        }
      ],
      "stateMutability": "view",
      "type": "function"
    },
    {
      "inputs": [],
      "name": "totalCap",
      "outputs": [
        {
          "internalType": "uint256",
          "name": "",
          "type": "uint256"
        }
      ],
      "stateMutability": "view",
      "type": "function"
    },
    {
      "inputs": [],
      "name": "totalSupply",
      "outputs": [
        {
          "internalType": "uint256",
          "name": "",
          "type": "uint256"
        }
      ],
      "stateMutability": "view",
      "type": "function"
    },
    {
      "stateMutability": "payable",
      "type": "receive"
    },
    {
      "inputs": [
        {
          "internalType": "address",
          "name": "account",
          "type": "address"
        }
      ],
      "name": "balanceOf",
      "outputs": [
        {
          "internalType": "uint256",
          "name": "",
          "type": "uint256"
        }
      ],
      "stateMutability": "view",
      "type": "function"
    },
    {
      "inputs": [
        {
          "internalType": "address",
          "name": "owner",
          "type": "address"
        },
        {
          "internalType": "address",
          "name": "spender",
          "type": "address"
        }
      ],
      "name": "allowance",
      "outputs": [
        {
          "internalType": "uint256",
          "name": "",
          "type": "uint256"
        }
      ],
      "stateMutability": "view",
      "type": "function"
    },
    {
      "inputs": [
        {
          "internalType": "address",
          "name": "recipient",
          "type": "address"
        },
        {
          "internalType": "uint256",
          "name": "amount",
          "type": "uint256"
        }
      ],
      "name": "transfer",
      "outputs": [
        {
          "internalType": "bool",
          "name": "",
          "type": "bool"
        }
      ],
      "stateMutability": "nonpayable",
      "type": "function"
    },
    {
      "inputs": [
        {
          "internalType": "address",
          "name": "spender",
          "type": "address"
        },
        {
          "internalType": "uint256",
          "name": "amount",
          "type": "uint256"
        }
      ],
      "name": "approve",
      "outputs": [
        {
          "internalType": "bool",
          "name": "",
          "type": "bool"
        }
      ],
      "stateMutability": "nonpayable",
      "type": "function"
    },
    {
      "inputs": [
        {
          "internalType": "address",
          "name": "spender",
          "type": "address"
        },
        {
          "internalType": "uint256",
          "name": "addedValue",
          "type": "uint256"
        }
      ],
      "name": "increaseAllowance",
      "outputs": [
        {
          "internalType": "bool",
          "name": "",
          "type": "bool"
        }
      ],
      "stateMutability": "nonpayable",
      "type": "function"
    },
    {
      "inputs": [
        {
          "internalType": "address",
          "name": "spender",
          "type": "address"
        },
        {
          "internalType": "uint256",
          "name": "subtractedValue",
          "type": "uint256"
        }
      ],
      "name": "decreaseAllowance",
      "outputs": [
        {
          "internalType": "bool",
          "name": "",
          "type": "bool"
        }
      ],
      "stateMutability": "nonpayable",
      "type": "function"
    },
    {
      "inputs": [
        {
          "internalType": "address",
          "name": "sender",
          "type": "address"
        },
        {
          "internalType": "address",
          "name": "recipient",
          "type": "address"
        },
        {
          "internalType": "uint256",
          "name": "amount",
          "type": "uint256"
        }
      ],
      "name": "transferFrom",
      "outputs": [
        {
          "internalType": "bool",
          "name": "",
          "type": "bool"
        }
      ],
      "stateMutability": "nonpayable",
      "type": "function"
    },
    {
      "inputs": [
        {
          "internalType": "address",
          "name": "recipient",
          "type": "address"
        },
        {
          "internalType": "uint256",
          "name": "amount",
          "type": "uint256"
        }
      ],
      "name": "transferTo",
      "outputs": [
        {
          "internalType": "bool",
          "name": "",
          "type": "bool"
        }
      ],
      "stateMutability": "nonpayable",
      "type": "function"
    },
    {
      "inputs": [
        {
          "internalType": "uint256",
          "name": "amount",
          "type": "uint256"
        }
      ],
      "name": "burn",
      "outputs": [],
      "stateMutability": "nonpayable",
      "type": "function"
    },
    {
      "inputs": [
        {
          "internalType": "address",
          "name": "account",
          "type": "address"
        },
        {
          "internalType": "uint256",
          "name": "amount",
          "type": "uint256"
        }
      ],
      "name": "burnFrom",
      "outputs": [],
      "stateMutability": "nonpayable",
      "type": "function"
    },
    {
      "inputs": [
        {
          "internalType": "address",
          "name": "asset",
          "type": "address"
        },
        {
          "internalType": "uint256",
          "name": "claimRate",
          "type": "uint256"
        },
        {
          "internalType": "uint256",
          "name": "allocation",
          "type": "uint256"
        }
      ],
      "name": "listAsset",
      "outputs": [
        {
          "internalType": "bool",
          "name": "",
          "type": "bool"
        }
      ],
      "stateMutability": "nonpayable",
      "type": "function"
    },
    {
      "inputs": [
        {
          "internalType": "address",
          "name": "asset",
          "type": "address"
        }
      ],
      "name": "delistAsset",
      "outputs": [
        {
          "internalType": "bool",
          "name": "",
          "type": "bool"
        }
      ],
      "stateMutability": "nonpayable",
      "type": "function"
    },
    {
      "inputs": [],
      "name": "startEmissions",
      "outputs": [
        {
          "internalType": "bool",
          "name": "",
          "type": "bool"
        }
      ],
      "stateMutability": "nonpayable",
      "type": "function"
    },
    {
      "inputs": [],
      "name": "stopEmissions",
      "outputs": [
        {
          "internalType": "bool",
          "name": "",
          "type": "bool"
        }
      ],
      "stateMutability": "nonpayable",
      "type": "function"
    },
    {
      "inputs": [
        {
          "internalType": "uint256",
          "name": "newCurve",
          "type": "uint256"
        }
      ],
      "name": "changeEmissionCurve",
      "outputs": [
        {
          "internalType": "bool",
          "name": "",
          "type": "bool"
        }
      ],
      "stateMutability": "nonpayable",
      "type": "function"
    },
    {
      "inputs": [
        {
          "internalType": "uint256",
          "name": "newDuration",
          "type": "uint256"
        }
      ],
      "name": "changeEraDuration",
      "outputs": [
        {
          "internalType": "bool",
          "name": "",
          "type": "bool"
        }
      ],
      "stateMutability": "nonpayable",
      "type": "function"
    },
    {
      "inputs": [
        {
          "internalType": "address",
          "name": "newIncentiveAddress",
          "type": "address"
        }
      ],
      "name": "changeIncentiveAddress",
      "outputs": [
        {
          "internalType": "bool",
          "name": "",
          "type": "bool"
        }
      ],
      "stateMutability": "nonpayable",
      "type": "function"
    },
    {
      "inputs": [
        {
          "internalType": "address",
          "name": "newDAO",
          "type": "address"
        }
      ],
      "name": "changeDAO",
      "outputs": [
        {
          "internalType": "bool",
          "name": "",
          "type": "bool"
        }
      ],
      "stateMutability": "nonpayable",
      "type": "function"
    },
    {
      "inputs": [],
      "name": "purgeDAO",
      "outputs": [
        {
          "internalType": "bool",
          "name": "",
          "type": "bool"
        }
      ],
      "stateMutability": "nonpayable",
      "type": "function"
    },
    {
      "inputs": [],
      "name": "purgeDeployer",
      "outputs": [
        {
          "internalType": "bool",
          "name": "",
          "type": "bool"
        }
      ],
      "stateMutability": "nonpayable",
      "type": "function"
    },
    {
      "inputs": [],
      "name": "getDailyEmission",
      "outputs": [
        {
          "internalType": "uint256",
          "name": "",
          "type": "uint256"
        }
      ],
      "stateMutability": "view",
      "type": "function"
    },
    {
      "inputs": [
        {
          "internalType": "address",
          "name": "asset",
          "type": "address"
        },
        {
          "internalType": "uint256",
          "name": "amount",
          "type": "uint256"
        }
      ],
      "name": "claim",
      "outputs": [],
      "stateMutability": "payable",
      "type": "function"
    },
    {
      "inputs": [
        {
          "internalType": "address",
          "name": "asset",
          "type": "address"
        }
      ],
      "name": "getAdjustedClaimRate",
      "outputs": [
        {
          "internalType": "uint256",
          "name": "adjustedClaimRate",
          "type": "uint256"
        }
      ],
      "stateMutability": "view",
      "type": "function"
    },
    {
      "inputs": [],
      "name": "assetCount",
      "outputs": [
        {
          "internalType": "uint256",
          "name": "count",
          "type": "uint256"
        }
      ],
      "stateMutability": "view",
      "type": "function"
    },
    {
      "inputs": [],
      "name": "allAssets",
      "outputs": [
        {
          "internalType": "address[]",
          "name": "_allAssets",
          "type": "address[]"
        }
      ],
      "stateMutability": "view",
      "type": "function"
    },
    {
      "inputs": [
        {
          "internalType": "uint256",
          "name": "start",
          "type": "uint256"
        },
        {
          "internalType": "uint256",
          "name": "count",
          "type": "uint256"
        }
      ],
      "name": "assetsInRange",
      "outputs": [
        {
          "internalType": "address[]",
          "name": "someAssets",
          "type": "address[]"
        }
      ],
      "stateMutability": "view",
      "type": "function"
    },
    {
      "inputs": [
        {
          "internalType": "address",
          "name": "asset",
          "type": "address"
        }
      ],
      "name": "getAssetDetails",
      "outputs": [
        {
          "components": [
            {
              "internalType": "bool",
              "name": "listed",
              "type": "bool"
            },
            {
              "internalType": "uint256",
              "name": "claimRate",
              "type": "uint256"
            },
            {
              "internalType": "uint256",
              "name": "claimed",
              "type": "uint256"
            },
            {
              "internalType": "uint256",
              "name": "allocation",
              "type": "uint256"
            }
          ],
          "internalType": "struct Base.AssetDetailsStruct",
          "name": "assetDetails",
          "type": "tuple"
        }
      ],
      "stateMutability": "view",
      "type": "function"
    }
  ],
  "bytecode": "0x60806040523480156200001157600080fd5b506040805180820190915260168082527f5350415254414e2050524f544f434f4c20544f4b454e000000000000000000006020909201918252620000589160009162000106565b506040805180820190915260068082526553504152544160d01b6020909201918252620000889160019162000106565b506012600255670de0b6b3a76400006006556a52b7d2dcc80cd2e400000060095560006003556af8277896582678ac000000600a556108006008556007805460ff191690556001600c819055600b8190554201600d55601180546001600160a01b031990811633179091556010805490911661dead179055620001ab565b828054600181600116156101000203166002900490600052602060002090601f016020900481019282601f106200014957805160ff191683800117855562000179565b8280016001018555821562000179579182015b82811115620001795782518255916020019190600101906200015c565b50620001879291506200018b565b5090565b620001a891905b8082111562000187576000815560010162000192565b90565b6121ce80620001bb6000396000f3fe60806040526004361061028c5760003560e01c80637605bbb01161015a578063aad3ec96116100c1578063dd62ed3e1161007a578063dd62ed3e14610731578063e86dad2914610751578063eae9fd6d14610771578063eafe7a7414610791578063f293e675146107a6578063f794062e146107bb5761029e565b8063aad3ec9614610694578063acf4db86146106a7578063ba0f6566146106c7578063be8051c9146106e7578063c1b8411a14610707578063c91b6b461461071c5761029e565b8063973628f611610113578063973628f6146105e857806398fabd3a146105fd5780639a67759b146106125780639c9b645114610627578063a457c2d714610654578063a9059cbb146106745761029e565b80637605bbb01461053157806376d708d71461055157806379cc6790146105735780638377e89a1461059357806395d89b41146105b35780639620e222146105c85761029e565b806328957be2116101fe57806342966c68116101b757806342966c68146104875780636b92a3b6146104a757806370a08231146104bc57806370d5ae05146104dc5780637299626d146104f1578063745fda9b146105115761029e565b806328957be2146103e65780632ccb1b30146104085780632eabea0214610428578063313ce5671461043d5780633950935114610452578063405b6587146104725761029e565b8063095ea7b311610250578063095ea7b314610347578063164500921461036757806318160ddd1461037c5780631b02f845146103915780631d007f5f146103a657806323b872dd146103c65761029e565b806303a82138146102a357806306f8b189146102ce57806306fdde03146102ee5780630781f4d214610310578063090bbb01146103255761029e565b3661029e5761029c6000346107db565b005b600080fd5b3480156102af57600080fd5b506102b8610a63565b6040516102c59190611d97565b60405180910390f35b3480156102da57600080fd5b506102b86102e9366004611c83565b610abb565b3480156102fa57600080fd5b50610303610bf1565b6040516102c59190611da2565b34801561031c57600080fd5b506102b8610c7f565b34801561033157600080fd5b5061033a610c88565b6040516102c59190612098565b34801561035357600080fd5b506102b8610362366004611c59565b610c8e565b34801561037357600080fd5b5061033a610ca5565b34801561038857600080fd5b5061033a610cab565b34801561039d57600080fd5b506102b8610cb1565b3480156103b257600080fd5b506102b86103c1366004611bca565b610d07565b3480156103d257600080fd5b506102b86103e1366004611c19565b610dcd565b3480156103f257600080fd5b506103fb610e3c565b6040516102c59190611d12565b34801561041457600080fd5b506102b8610423366004611c59565b610e4b565b34801561043457600080fd5b506102b8610e58565b34801561044957600080fd5b5061033a610eaa565b34801561045e57600080fd5b506102b861046d366004611c59565b610eb0565b34801561047e57600080fd5b5061033a610eec565b34801561049357600080fd5b5061029c6104a2366004611cd6565b610ef2565b3480156104b357600080fd5b5061033a610eff565b3480156104c857600080fd5b5061033a6104d7366004611bca565b610f05565b3480156104e857600080fd5b506103fb610f20565b3480156104fd57600080fd5b506102b861050c366004611cd6565b610f2f565b34801561051d57600080fd5b5061033a61052c366004611bca565b610fa8565b34801561053d57600080fd5b506102b861054c366004611bca565b611032565b34801561055d57600080fd5b506105666110da565b6040516102c59190611d4a565b34801561057f57600080fd5b5061029c61058e366004611c59565b61113c565b34801561059f57600080fd5b506102b86105ae366004611bca565b61118e565b3480156105bf57600080fd5b5061030361121d565b3480156105d457600080fd5b5061033a6105e3366004611bca565b611277565b3480156105f457600080fd5b5061033a611289565b34801561060957600080fd5b506103fb61128f565b34801561061e57600080fd5b5061033a61129e565b34801561063357600080fd5b50610647610642366004611bca565b6112a4565b6040516102c5919061206b565b34801561066057600080fd5b506102b861066f366004611c59565b6112ff565b34801561068057600080fd5b506102b861068f366004611c59565b611354565b61029c6106a2366004611c59565b6107db565b3480156106b357600080fd5b506102b86106c2366004611cd6565b611361565b3480156106d357600080fd5b5061033a6106e2366004611bca565b6113da565b3480156106f357600080fd5b5061033a610702366004611bca565b6113ec565b34801561071357600080fd5b506103fb6113fe565b34801561072857600080fd5b506102b861140d565b34801561073d57600080fd5b5061033a61074c366004611be5565b6114a0565b34801561075d57600080fd5b506103fb61076c366004611cd6565b6114cb565b34801561077d57600080fd5b5061056661078c366004611cee565b6114f2565b34801561079d57600080fd5b5061033a6115cc565b3480156107b257600080fd5b5061033a6115d2565b3480156107c757600080fd5b506102b86107d6366004611bca565b61162a565b6001600160a01b038216600090815260166020908152604080832054601590925290912054829190610813908363ffffffff61163f16565b1115610850576001600160a01b03831660009081526015602090815260408083205460169092529091205461084d9163ffffffff61166b16565b90505b6001600160a01b038316610951573482146108865760405162461bcd60e51b815260040161087d90611ed9565b60405180910390fd5b6010546040516001600160a01b039091169082906108a390611d0f565b60006040518083038185875af1925050503d80600081146108e0576040519150601f19603f3d011682016040523d82523d6000602084013e6108e5565b606091505b503391506108fb9050838363ffffffff61166b16565b60405161090790611d0f565b60006040518083038185875af1925050503d8060008114610944576040519150601f19603f3d011682016040523d82523d6000602084013e610949565b606091505b5050506109d9565b6010546040516323b872dd60e01b81526001600160a01b03808616926323b872dd9261098592339216908690600401611d26565b602060405180830381600087803b15801561099f57600080fd5b505af11580156109b3573d6000803e3d6000fd5b505050506040513d601f19601f820116820180604052508101906109d79190611cb6565b505b6001600160a01b038316600090815260156020526040902054610a02908363ffffffff61163f16565b6001600160a01b038416600090815260156020526040812091909155610a2784610fa8565b90506000610a50600654610a4485856116ad90919063ffffffff16565b9063ffffffff6116e716565b9050610a5c3382611729565b5050505050565b600f546000906001600160a01b0316331480610a8957506011546001600160a01b031633145b610aa55760405162461bcd60e51b815260040161087d90611e6f565b50601180546001600160a01b0319169055600190565b600f546000906001600160a01b0316331480610ae157506011546001600160a01b031633145b610afd5760405162461bcd60e51b815260040161087d90611e6f565b6001600160a01b03841660009081526013602052604090205460ff16610b83576001600160a01b0384166000818152601360205260408120805460ff191660019081179091556012805491820181559091527fbb8a6a4669ba250d26cd7a459eca9d215f8307e33aebe50379bc5a3617ec34440180546001600160a01b03191690911790555b6001600160a01b03841660008181526014602090815260408083208790556016909152908190208490555133907f1adc5ea472d4a0b01604de1a7e973f26d81a58b0dafb186558bdf15e1af8479b90610bdf90879087906120a1565b60405180910390a35060019392505050565b6000805460408051602060026001851615610100026000190190941693909304601f81018490048402820184019092528181529291830182828015610c775780601f10610c4c57610100808354040283529160200191610c77565b820191906000526020600020905b815481529060010190602001808311610c5a57829003601f168201915b505050505081565b60075460ff1681565b600d5481565b6000610c9b33848461180c565b5060015b92915050565b600a5481565b60035481565b600f546000906001600160a01b0316331480610cd757506011546001600160a01b031633145b610cf35760405162461bcd60e51b815260040161087d90611e6f565b506007805460ff1916600190811790915590565b600f546000906001600160a01b0316331480610d2d57506011546001600160a01b031633145b610d495760405162461bcd60e51b815260040161087d90611e6f565b6001600160a01b038216610d6f5760405162461bcd60e51b815260040161087d90611f75565b600f80546001600160a01b0319166001600160a01b03841617905560405133907f567cac11d4a66456bbe20dc60d3579ec446a4e2fffae2a85f82ad0f1f18214f190610dbc908590611d12565b60405180910390a25060015b919050565b6000610dda8484846118c0565b610e328433610e2d856040518060600160405280602981526020016120db602991396001600160a01b038a166000908152600560209081526040808320338452909152902054919063ffffffff6119c016565b61180c565b5060019392505050565b600e546001600160a01b031681565b6000610c9b3284846118c0565b600f546000906001600160a01b0316331480610e7e57506011546001600160a01b031633145b610e9a5760405162461bcd60e51b815260040161087d90611e6f565b506007805460ff19169055600190565b60025481565b3360008181526005602090815260408083206001600160a01b03871684529091528120549091610c9b918590610e2d908663ffffffff61163f16565b60095481565b610efc33826119ec565b50565b600b5481565b6001600160a01b031660009081526004602052604090205490565b6010546001600160a01b031681565b600f546000906001600160a01b0316331480610f5557506011546001600160a01b031633145b610f715760405162461bcd60e51b815260040161087d90611e6f565b600b82905560405133907fc0473c2cbb9705ca96e7d892f51ae51b81f597dab7ed6eb25f0a3e7c75d4663990610dbc908590612098565b6001600160a01b03811660009081526014602052604081205460095460035411610fd3579050610dc8565b6000610fec600954600a5461166b90919063ffffffff16565b905061102981610a4461101c61100f60095460035461166b90919063ffffffff16565b859063ffffffff61166b16565b859063ffffffff6116ad16565b92505050610dc8565b600f546000906001600160a01b031633148061105857506011546001600160a01b031633145b6110745760405162461bcd60e51b815260040161087d90611e6f565b6001600160a01b0382166000818152601360209081526040808320805460ff191690556014825280832083905560169091528082208290555133917ff487c2322baa448cfa506b983134d9dd9f27d0bbfe0b48119a3908d4f0dde89f91a3506001919050565b6060601280548060200260200160405190810160405280929190818152602001828054801561113257602002820191906000526020600020905b81546001600160a01b03168152600190910190602001808311611114575b5050505050905090565b6000611172826040518060600160405280602581526020016121046025913961116586336114a0565b919063ffffffff6119c016565b905061117f83338361180c565b61118983836119ec565b505050565b600f546000906001600160a01b03163314806111b457506011546001600160a01b031633145b6111d05760405162461bcd60e51b815260040161087d90611e6f565b600e80546001600160a01b0319166001600160a01b03841617905560405133907f5b536d33bf72072f3abff40e9c9bc550f83025bbc9b8cc36972c166d8b568b4390610dbc908590611d12565b60018054604080516020600284861615610100026000190190941693909304601f81018490048402820184019092528181529291830182828015610c775780601f10610c4c57610100808354040283529160200191610c77565b60166020526000908152604090205481565b600c5481565b600f546001600160a01b031681565b60085481565b6112ac611b89565b6001600160a01b0390911660008181526013602090815260408083205460ff1615158552838352601482528083205485830152838352601582528083205485820152928252601690522054606082015290565b6000610c9b3384610e2d85604051806060016040528060268152602001612173602691393360009081526005602090815260408083206001600160a01b038d168452909152902054919063ffffffff6119c016565b6000610c9b3384846118c0565b600f546000906001600160a01b031633148061138757506011546001600160a01b031633145b6113a35760405162461bcd60e51b815260040161087d90611e6f565b600882905560405133907fe61d471656d849b230e45307bce5f71d00383888866b992d6a6993b72361e79990610dbc908590612098565b60146020526000908152604090205481565b60156020526000908152604090205481565b6011546001600160a01b031681565b600f546000906001600160a01b031633148061143357506011546001600160a01b031633145b61144f5760405162461bcd60e51b815260040161087d90611e6f565b600f80546001600160a01b031916905560405133907f567cac11d4a66456bbe20dc60d3579ec446a4e2fffae2a85f82ad0f1f18214f19061149290600090611d12565b60405180910390a250600190565b6001600160a01b03918216600090815260056020908152604080832093909416825291909152205490565b601281815481106114d857fe5b6000918252602090912001546001600160a01b0316905081565b60606114fc6115cc565b82111561150e5761150b6115cc565b91505b60608267ffffffffffffffff8111801561152757600080fd5b50604051908082528060200260200182016040528015611551578160200160208202803683370190505b509050835b611566858563ffffffff61163f16565b8110156115c4576012818154811061157a57fe5b9060005260206000200160009054906101000a90046001600160a01b03168282815181106115a457fe5b6001600160a01b0390921660209283029190910190910152600101611556565b509392505050565b60125490565b60008060095460035411611604576115fd600954610a44600354600a546116ad90919063ffffffff16565b9050611609565b50600a545b611624600854610a446003548461166b90919063ffffffff16565b91505090565b60136020526000908152604090205460ff1681565b6000828201838110156116645760405162461bcd60e51b815260040161087d90611df5565b9392505050565b600061166483836040518060400160405280601e81526020017f536166654d6174683a207375627472616374696f6e206f766572666c6f7700008152506119c0565b6000826116bc57506000610c9f565b828202828482816116c957fe5b04146116645760405162461bcd60e51b815260040161087d90611eff565b600061166483836040518060400160405280601a81526020017f536166654d6174683a206469766973696f6e206279207a65726f000000000000815250611ac2565b6001600160a01b03821661174f5760405162461bcd60e51b815260040161087d90611f40565b600354611762908263ffffffff61163f16565b6003819055600a5410156117885760405162461bcd60e51b815260040161087d90611fac565b6001600160a01b0382166000908152600460205260409020546117b1908263ffffffff61163f16565b6001600160a01b0383166000818152600460205260408082209390935591519091907fddf252ad1be2c89b69c2b068fc378daa952ba7f163c4a11628f55a4df523b3ef90611800908590612098565b60405180910390a35050565b6001600160a01b0383166118325760405162461bcd60e51b815260040161087d90611e94565b6001600160a01b0382166118585760405162461bcd60e51b815260040161087d90611e2c565b6001600160a01b0380841660008181526005602090815260408083209487168084529490915290819020849055517f8c5be1e5ebec7d5bd14f71427d1e84f3dd0314c0f7b2291e5b200ac8c7c3b925906118b3908590612098565b60405180910390a3505050565b6001600160a01b0383166118e65760405162461bcd60e51b815260040161087d90612025565b61192981604051806060016040528060278152602001612129602791396001600160a01b038616600090815260046020526040902054919063ffffffff6119c016565b6001600160a01b03808516600090815260046020526040808220939093559084168152205461195e908263ffffffff61163f16565b6001600160a01b0380841660008181526004602052604090819020939093559151908516907fddf252ad1be2c89b69c2b068fc378daa952ba7f163c4a11628f55a4df523b3ef906119b0908590612098565b60405180910390a3611189611af9565b600081848411156119e45760405162461bcd60e51b815260040161087d9190611da2565b505050900390565b6001600160a01b038216611a125760405162461bcd60e51b815260040161087d90611fe3565b611a5581604051806060016040528060238152602001612150602391396001600160a01b038516600090815260046020526040902054919063ffffffff6119c016565b6001600160a01b038316600090815260046020526040902055600354611a81908263ffffffff61166b16565b6003556040516000906001600160a01b038416907fddf252ad1be2c89b69c2b068fc378daa952ba7f163c4a11628f55a4df523b3ef90611800908590612098565b60008183611ae35760405162461bcd60e51b815260040161087d9190611da2565b506000838581611aef57fe5b0495945050505050565b600d544210158015611b0d575060075460ff165b15611b8757600c80546001019055600b544201600d556000611b2d6115d2565b600e54909150611b46906001600160a01b031682611729565b7f9d472bcf372fce01fd875c3296e8e5ae0a08bfca42dedac19e202271ce8f39c5600c54600d5483604051611b7d939291906120af565b60405180910390a1505b565b60405180608001604052806000151581526020016000815260200160008152602001600081525090565b80356001600160a01b0381168114610c9f57600080fd5b600060208284031215611bdb578081fd5b6116648383611bb3565b60008060408385031215611bf7578081fd5b611c018484611bb3565b9150611c108460208501611bb3565b90509250929050565b600080600060608486031215611c2d578081fd5b8335611c38816120c5565b92506020840135611c48816120c5565b929592945050506040919091013590565b60008060408385031215611c6b578182fd5b611c758484611bb3565b946020939093013593505050565b600080600060608486031215611c97578283fd5b611ca18585611bb3565b95602085013595506040909401359392505050565b600060208284031215611cc7578081fd5b81518015158114611664578182fd5b600060208284031215611ce7578081fd5b5035919050565b60008060408385031215611d00578182fd5b50508035926020909101359150565b90565b6001600160a01b0391909116815260200190565b6001600160a01b039384168152919092166020820152604081019190915260600190565b6020808252825182820181905260009190848201906040850190845b81811015611d8b5783516001600160a01b031683529284019291840191600101611d66565b50909695505050505050565b901515815260200190565b6000602080835283518082850152825b81811015611dce57858101830151858201604001528201611db2565b81811115611ddf5783604083870101525b50601f01601f1916929092016040019392505050565b6020808252601b908201527f536166654d6174683a206164646974696f6e206f766572666c6f770000000000604082015260600190565b60208082526023908201527f6942455032303a20617070726f766520746f20746865207a65726f206164647260408201526265737360e81b606082015260800190565b6020808252600b908201526a4d7573742062652044414f60a81b604082015260600190565b60208082526025908201527f6942455032303a20617070726f76652066726f6d20746865207a65726f206164604082015264647265737360d81b606082015260800190565b6020808252600c908201526b26bab9ba1033b2ba1021272160a11b604082015260600190565b60208082526021908201527f536166654d6174683a206d756c7469706c69636174696f6e206f766572666c6f6040820152607760f81b606082015260800190565b6020808252818101527f6942455032303a206d696e7420746f20746865207a65726f2061646472657373604082015260600190565b60208082526018908201527f4d757374206e6f74206265207a65726f20616464726573730000000000000000604082015260600190565b6020808252601f908201527f4d757374206e6f74206d696e74206d6f7265207468616e207468652063617000604082015260600190565b60208082526022908201527f6942455032303a206275726e2066726f6d20746865207a65726f206164647265604082015261737360f01b606082015260800190565b60208082526026908201527f6942455032303a207472616e736665722066726f6d20746865207a65726f206160408201526564647265737360d01b606082015260800190565b81511515815260208083015190820152604080830151908201526060918201519181019190915260800190565b90815260200190565b918252602082015260400190565b9283526020830191909152604082015260600190565b6001600160a01b0381168114610efc57600080fdfe6942455032303a207472616e7366657220616d6f756e74206578636565647320616c6c6f77616e63656942455032303a206275726e20616d6f756e74206578636565647320616c6c6f77616e63656942455032303a207472616e7366657220616d6f756e7420657863656564732062616c616e63656942455032303a206275726e20616d6f756e7420657863656564732062616c616e63656942455032303a2064656372656173656420616c6c6f77616e63652062656c6f77207a65726fa2646970667358221220fec914496929bbe94a0278fc2e3cc5482074ac563c5f06b0f808b9d7f49306cf64736f6c63430006080033",
  "immutableReferences": {},
  "source": "// SPDX-License-Identifier: UNLICENSED\npragma solidity 0.6.8;\npragma experimental ABIEncoderV2;\nimport \"@nomiclabs/buidler/console.sol\";\n//iBEP20 Interface\ninterface iBEP20 {\n    function name() external view returns (string memory);\n    function symbol() external view returns (string memory);\n    function decimals() external view returns (uint);\n    function totalSupply() external view returns (uint);\n    function balanceOf(address account) external view returns (uint);\n    function transfer(address, uint) external returns (bool);\n    function allowance(address owner, address spender) external view returns (uint);\n    function approve(address, uint) external returns (bool);\n    function transferFrom(address, address, uint) external returns (bool);\n    event Transfer(address indexed from, address indexed to, uint value);\n    event Approval(address indexed owner, address indexed spender, uint value);\n}\n\nlibrary SafeMath {\n    function add(uint256 a, uint256 b) internal pure returns (uint256) {\n        uint256 c = a + b;\n        require(c >= a, \"SafeMath: addition overflow\");\n        return c;\n    }\n    function sub(uint256 a, uint256 b) internal pure returns (uint256) {\n        return sub(a, b, \"SafeMath: subtraction overflow\");\n    }\n    function sub(uint256 a, uint256 b, string memory errorMessage) internal pure returns (uint256) {\n        require(b <= a, errorMessage);\n        uint256 c = a - b;\n        return c;\n    }\n    function div(uint256 a, uint256 b) internal pure returns (uint256) {\n        return div(a, b, \"SafeMath: division by zero\");\n    }\n    function div(uint256 a, uint256 b, string memory errorMessage) internal pure returns (uint256) {\n        require(b > 0, errorMessage);\n        uint256 c = a / b;\n        return c;\n    }\n    function mul(uint256 a, uint256 b) internal pure returns (uint256) {\n        if (a == 0) {\n            return 0;\n        }\n        uint256 c = a * b;\n        require(c / a == b, \"SafeMath: multiplication overflow\");\n        return c;\n    }\n}\n    //======================================SPARTA=========================================//\ncontract Base is iBEP20 {\n    using SafeMath for uint256;\n\n    // ERC-20 Parameters\n    string public override name; string public override symbol;\n    uint256 public override decimals; uint256 public override totalSupply;\n\n    // ERC-20 Mappings\n    mapping(address => uint256) private _balances;\n    mapping(address => mapping(address => uint256)) private _allowances;\n\n    // Parameters\n    uint256 one;\n    bool public emitting;\n    uint256 public emissionCurve;\n    uint256 public _100m;\n    uint256 public totalCap;\n    uint256 public secondsPerEra;\n    uint256 public currentEra;\n    uint256 public nextEraTime;\n    \n\n    address public incentiveAddress;\n    address public DAO;\n    address public burnAddress;\n    address public DEPLOYER;\n\n    address[] public assetArray;\n    mapping(address => bool) public isListed;\n    mapping(address => uint256) public mapAsset_claimRate;\n    mapping(address => uint256) public mapAsset_claimed;\n    mapping(address => uint256) public mapAsset_allocation;\n\n    struct AssetDetailsStruct {\n        bool listed;\n        uint256 claimRate;\n        uint256 claimed;\n        uint256 allocation;\n    }\n\n    // Events\n    event ListedAsset(address indexed DAO, address indexed asset, uint256 claimRate, uint256 allocation);\n    event DelistedAsset(address indexed DAO, address indexed asset);\n    event NewCurve(address indexed DAO, uint256 newCurve);\n    event NewIncentiveAddress(address indexed DAO, address newIncentiveAddress);\n    event NewDuration(address indexed DAO, uint256 newDuration);\n    event NewDAO(address indexed DAO, address newOwner);\n    event NewEra(uint256 currentEra, uint256 nextEraTime, uint256 emission);\n\n    // Only DAO can execute\n    modifier onlyDAO() {\n        require(msg.sender == DAO || msg.sender == DEPLOYER, \"Must be DAO\");\n        _;\n    }\n\n    //=====================================CREATION=========================================//\n    // Constructor\n    constructor() public {\n        name = 'SPARTAN PROTOCOL TOKEN';\n        symbol = 'SPARTA';\n        decimals = 18;\n        one = 10 ** decimals;\n        _100m = 100 * 10**6 * one;\n        totalSupply = 0;\n        totalCap = 300 * 10**6 * one;\n        emissionCurve = 2048;\n        emitting = false;\n        currentEra = 1;\n        secondsPerEra = 1;//86400;\n        nextEraTime = now + secondsPerEra;\n        DEPLOYER = msg.sender;\n        burnAddress = 0x000000000000000000000000000000000000dEaD;\n    }\n\n    receive() external payable {\n        claim(address(0), msg.value);\n    }\n\n    //========================================iBEP20=========================================//\n    function balanceOf(address account) public view override returns (uint256) {\n        return _balances[account];\n    }\n    function allowance(address owner, address spender) public view virtual override returns (uint256) {\n        return _allowances[owner][spender];\n    }\n    // iBEP20 Transfer function\n    function transfer(address recipient, uint256 amount) public virtual override returns (bool) {\n        _transfer(msg.sender, recipient, amount);\n        return true;\n    }\n    // iBEP20 Approve, change allowance functions\n    function approve(address spender, uint256 amount) public virtual override returns (bool) {\n        _approve(msg.sender, spender, amount);\n        return true;\n    }\n    function increaseAllowance(address spender, uint256 addedValue) public virtual returns (bool) {\n        _approve(msg.sender, spender, _allowances[msg.sender][spender].add(addedValue));\n        return true;\n    }\n    function decreaseAllowance(address spender, uint256 subtractedValue) public virtual returns (bool) {\n        _approve(msg.sender, spender, _allowances[msg.sender][spender].sub(subtractedValue, \"iBEP20: decreased allowance below zero\"));\n        return true;\n    }\n    function _approve(address owner, address spender, uint256 amount) internal virtual {\n        require(owner != address(0), \"iBEP20: approve from the zero address\");\n        require(spender != address(0), \"iBEP20: approve to the zero address\");\n        _allowances[owner][spender] = amount;\n        emit Approval(owner, spender, amount);\n    } \n    // iBEP20 TransferFrom function\n    function transferFrom(address sender, address recipient, uint256 amount) public virtual override returns (bool) {\n        _transfer(sender, recipient, amount);\n        _approve(sender, msg.sender, _allowances[sender][msg.sender].sub(amount, \"iBEP20: transfer amount exceeds allowance\"));\n        return true;\n    }\n\n    // TransferTo function\n    function transferTo(address recipient, uint256 amount) public returns (bool) {\n        _transfer(tx.origin, recipient, amount);\n        return true;\n    }\n\n    // Internal transfer function\n    function _transfer(address sender, address recipient, uint256 amount) internal virtual {\n        require(sender != address(0), \"iBEP20: transfer from the zero address\");\n        _balances[sender] = _balances[sender].sub(amount, \"iBEP20: transfer amount exceeds balance\");\n        _balances[recipient] = _balances[recipient].add(amount);\n        emit Transfer(sender, recipient, amount);\n        _checkEmission();\n    }\n    // Internal mint (upgrading and daily emissions)\n    function _mint(address account, uint256 amount) internal virtual {\n        require(account != address(0), \"iBEP20: mint to the zero address\");\n        totalSupply = totalSupply.add(amount);\n        require(totalSupply <= totalCap, \"Must not mint more than the cap\");\n        _balances[account] = _balances[account].add(amount);\n        emit Transfer(address(0), account, amount);\n    }\n    // Burn supply\n    function burn(uint256 amount) public virtual {\n        _burn(msg.sender, amount);\n    }\n    function burnFrom(address account, uint256 amount) public virtual {\n        uint256 decreasedAllowance = allowance(account, msg.sender).sub(amount, \"iBEP20: burn amount exceeds allowance\");\n        _approve(account, msg.sender, decreasedAllowance);\n        _burn(account, amount);\n    }\n    function _burn(address account, uint256 amount) internal virtual {\n        require(account != address(0), \"iBEP20: burn from the zero address\");\n        _balances[account] = _balances[account].sub(amount, \"iBEP20: burn amount exceeds balance\");\n        totalSupply = totalSupply.sub(amount);\n        emit Transfer(account, address(0), amount);\n    }\n\n    //=========================================DAO=========================================//\n    // Can list\n    function listAsset(address asset, uint256 claimRate, uint256 allocation) public onlyDAO returns(bool){\n        if(!isListed[asset]){\n            isListed[asset] = true;\n            assetArray.push(asset);\n        }\n        mapAsset_claimRate[asset] = claimRate;\n        mapAsset_allocation[asset] = allocation;\n        emit ListedAsset(msg.sender, asset, claimRate, allocation);\n        return true;\n    }\n    // Can delist\n    function delistAsset(address asset) public onlyDAO returns(bool){\n        isListed[asset] = false;\n        mapAsset_claimRate[asset] = 0;\n        mapAsset_allocation[asset] = 0;\n        emit DelistedAsset(msg.sender, asset);\n        return true;\n    }\n    // Can start\n    function startEmissions() public onlyDAO returns(bool){\n        emitting = true;\n        return true;\n    }\n    // Can stop\n    function stopEmissions() public onlyDAO returns(bool){\n        emitting = false;\n        return true;\n    }\n    // Can change emissionCurve\n    function changeEmissionCurve(uint256 newCurve) public onlyDAO returns(bool){\n        emissionCurve = newCurve;\n        emit NewCurve(msg.sender, newCurve);\n        return true;\n    }\n    // Can change daily time\n    function changeEraDuration(uint256 newDuration) public onlyDAO returns(bool) {\n        secondsPerEra = newDuration;\n        emit NewDuration(msg.sender, newDuration);\n        return true;\n    }\n    // Can change Incentive Address\n    function changeIncentiveAddress(address newIncentiveAddress) public onlyDAO returns(bool) {\n        incentiveAddress = newIncentiveAddress;\n        emit NewIncentiveAddress(msg.sender, newIncentiveAddress);\n        return true;\n    }\n    // Can change DAO\n    function changeDAO(address newDAO) public onlyDAO returns(bool){\n        require(newDAO != address(0), \"Must not be zero address\");\n        DAO = newDAO;\n        emit NewDAO(msg.sender, newDAO);\n        return true;\n    }\n    // Can purge DAO\n    function purgeDAO() public onlyDAO returns(bool){\n        DAO = address(0);\n        emit NewDAO(msg.sender, address(0));\n        return true;\n    }\n    // Can purge DEPLOYER\n    function purgeDeployer() public onlyDAO returns(bool){\n        DEPLOYER = address(0);\n        return true;\n    }\n\n   //======================================EMISSION========================================//\n    // Internal - Update emission function\n    function _checkEmission() private {\n        if ((now >= nextEraTime) && emitting) {                                            // If new Era and allowed to emit\n            currentEra += 1;                                                               // Increment Era\n            nextEraTime = now + secondsPerEra;                                             // Set next Era time\n            uint256 _emission = getDailyEmission();                                        // Get Daily Dmission\n            _mint(incentiveAddress, _emission);                                            // Mint to the Incentive Address\n            emit NewEra(currentEra, nextEraTime, _emission);                               // Emit Event\n        }\n    }\n    // Calculate Daily Emission\n    function getDailyEmission() public view returns (uint256) {\n        uint _adjustedCap;\n        if(totalSupply <= _100m){ // If less than 100m, then adjust cap down\n            _adjustedCap = (totalCap.mul(totalSupply)).div(_100m); // 300m * 50m / 100m = 300m * 50% = 150m\n        } else {\n            _adjustedCap = totalCap;  // 300m\n        }\n        return (_adjustedCap.sub(totalSupply)).div(emissionCurve); // outstanding / 2048 \n    }\n    //======================================CLAIM========================================//\n    // Anyone to Claim\n    function claim(address asset, uint amount) public payable {\n        uint _claim = amount;\n        if(mapAsset_claimed[asset].add(amount) > mapAsset_allocation[asset]){\n            _claim = mapAsset_allocation[asset].sub(mapAsset_claimed[asset]);\n        }\n\n        if(asset == address(0)){\n            require(amount == msg.value, \"Must get BNB\");\n            payable(burnAddress).call{value:_claim}(\"\");\n            payable(msg.sender).call{value:amount.sub(_claim)}(\"\");\n        } else {\n            iBEP20(asset).transferFrom(msg.sender, burnAddress, _claim);\n        }\n        \n        mapAsset_claimed[asset] = mapAsset_claimed[asset].add(amount);\n        uint256 _adjustedClaimRate = getAdjustedClaimRate(asset);\n        // sparta = rate * claim / 1e8\n        uint256 _sparta = (_adjustedClaimRate.mul(_claim)).div(one);\n        _mint(msg.sender, _sparta);\n    }\n     // Calculate Adjusted Claim Rate\n    function getAdjustedClaimRate(address asset) public view returns (uint256 adjustedClaimRate) {\n        uint256 _claimRate = mapAsset_claimRate[asset];                           // Get Claim Rate\n        if(totalSupply <= _100m){\n            // return 100%\n            return _claimRate;\n        } else {\n            // (claim*(200-(totalSupply-_100m)))/200 -> starts 100% then goes to 0 at 300m. \n            uint256 _200m = totalCap.sub(_100m);\n            return _claimRate.mul(_200m.sub((totalSupply.sub(_100m)))).div(_200m);\n        }\n    }\n    //======================================HELPERS========================================//\n    // Helper Functions\n\n    function assetCount() public view returns (uint256 count){\n        return assetArray.length;\n    }\n    function allAssets() public view returns (address[] memory _allAssets){\n        return assetArray;\n    }\n    function assetsInRange(uint start, uint count) public view returns (address[] memory someAssets){\n        if(count > assetCount()){count = assetCount();}\n        address[] memory result = new address[](count);\n        for (uint i = start; i<start.add(count); i++){\n            result[i] = assetArray[i];\n        }\n        return result;\n    }\n\n    function getAssetDetails(address asset) public view returns (AssetDetailsStruct memory assetDetails){\n        assetDetails.listed = isListed[asset];\n        assetDetails.claimRate = mapAsset_claimRate[asset];\n        assetDetails.claimed = mapAsset_claimed[asset];\n        assetDetails.allocation = mapAsset_allocation[asset];\n    }\n}",
  "sourcePath": "/Users/guzziplus/spartanswap-contracts/contracts/Base.sol",
  "compiler": {
    "name": "solc",
    "version": "0.6.8+commit.0bbfe453.Emscripten.clang"
  },
  "schemaVersion": "3.3.1",
  "updatedAt": "2020-11-06T00:41:33.710Z",
  "devdoc": {
    "methods": {}
  },
  "userdoc": {
    "methods": {}
  }
}