{
  "contractName": "Dao",
  "abi": [
    {
      "inputs": [
        {
          "internalType": "address",
          "name": "_base",
          "type": "address"
        }
      ],
      "stateMutability": "payable",
      "type": "constructor"
    },
    {
      "anonymous": false,
      "inputs": [
        {
          "indexed": true,
          "internalType": "address",
          "name": "member",
          "type": "address"
        },
        {
          "indexed": true,
          "internalType": "uint256",
          "name": "oldProposalID",
          "type": "uint256"
        },
        {
          "indexed": false,
          "internalType": "uint256",
          "name": "oldVotes",
          "type": "uint256"
        },
        {
          "indexed": false,
          "internalType": "uint256",
          "name": "newVotes",
          "type": "uint256"
        },
        {
          "indexed": false,
          "internalType": "uint256",
          "name": "totalWeight",
          "type": "uint256"
        }
      ],
      "name": "CancelProposal",
      "type": "event"
    },
    {
      "anonymous": false,
      "inputs": [
        {
          "indexed": true,
          "internalType": "address",
          "name": "member",
          "type": "address"
        },
        {
          "indexed": true,
          "internalType": "uint256",
          "name": "proposalID",
          "type": "uint256"
        },
        {
          "indexed": false,
          "internalType": "uint256",
          "name": "votesCast",
          "type": "uint256"
        },
        {
          "indexed": false,
          "internalType": "uint256",
          "name": "totalWeight",
          "type": "uint256"
        },
        {
          "indexed": false,
          "internalType": "string",
          "name": "proposalType",
          "type": "string"
        }
      ],
      "name": "FinalisedProposal",
      "type": "event"
    },
    {
      "anonymous": false,
      "inputs": [
        {
          "indexed": true,
          "internalType": "address",
          "name": "member",
          "type": "address"
        },
        {
          "indexed": true,
          "internalType": "address",
          "name": "pool",
          "type": "address"
        },
        {
          "indexed": false,
          "internalType": "uint256",
          "name": "amount",
          "type": "uint256"
        },
        {
          "indexed": false,
          "internalType": "uint256",
          "name": "weight",
          "type": "uint256"
        }
      ],
      "name": "MemberDeposits",
      "type": "event"
    },
    {
      "anonymous": false,
      "inputs": [
        {
          "indexed": true,
          "internalType": "address",
          "name": "member",
          "type": "address"
        },
        {
          "indexed": true,
          "internalType": "address",
          "name": "pool",
          "type": "address"
        },
        {
          "indexed": false,
          "internalType": "uint256",
          "name": "balance",
          "type": "uint256"
        }
      ],
      "name": "MemberWithdraws",
      "type": "event"
    },
    {
      "anonymous": false,
      "inputs": [
        {
          "indexed": true,
          "internalType": "address",
          "name": "member",
          "type": "address"
        },
        {
          "indexed": true,
          "internalType": "uint256",
          "name": "proposalID",
          "type": "uint256"
        },
        {
          "indexed": false,
          "internalType": "string",
          "name": "proposalType",
          "type": "string"
        }
      ],
      "name": "NewProposal",
      "type": "event"
    },
    {
      "anonymous": false,
      "inputs": [
        {
          "indexed": true,
          "internalType": "address",
          "name": "member",
          "type": "address"
        },
        {
          "indexed": true,
          "internalType": "uint256",
          "name": "proposalID",
          "type": "uint256"
        },
        {
          "indexed": false,
          "internalType": "uint256",
          "name": "voteWeight",
          "type": "uint256"
        },
        {
          "indexed": false,
          "internalType": "uint256",
          "name": "totalVotes",
          "type": "uint256"
        },
        {
          "indexed": false,
          "internalType": "string",
          "name": "proposalType",
          "type": "string"
        }
      ],
      "name": "NewVote",
      "type": "event"
    },
    {
      "anonymous": false,
      "inputs": [
        {
          "indexed": true,
          "internalType": "address",
          "name": "member",
          "type": "address"
        },
        {
          "indexed": true,
          "internalType": "uint256",
          "name": "proposalID",
          "type": "uint256"
        },
        {
          "indexed": false,
          "internalType": "uint256",
          "name": "timeFinalised",
          "type": "uint256"
        },
        {
          "indexed": false,
          "internalType": "string",
          "name": "proposalType",
          "type": "string"
        }
      ],
      "name": "ProposalFinalising",
      "type": "event"
    },
    {
      "anonymous": false,
      "inputs": [
        {
          "indexed": true,
          "internalType": "address",
          "name": "member",
          "type": "address"
        },
        {
          "indexed": false,
          "internalType": "uint256",
          "name": "weight",
          "type": "uint256"
        },
        {
          "indexed": false,
          "internalType": "uint256",
          "name": "totalWeight",
          "type": "uint256"
        }
      ],
      "name": "WeightChange",
      "type": "event"
    },
    {
      "inputs": [],
      "name": "BASE",
      "outputs": [
        {
          "internalType": "address",
          "name": "",
          "type": "address"
        }
      ],
      "stateMutability": "view",
      "type": "function"
    },
    {
      "inputs": [],
      "name": "DAO",
      "outputs": [
        {
          "internalType": "address",
          "name": "",
          "type": "address"
        }
      ],
      "stateMutability": "view",
      "type": "function"
    },
    {
      "inputs": [],
      "name": "DEPLOYER",
      "outputs": [
        {
          "internalType": "address",
          "name": "",
          "type": "address"
        }
      ],
      "stateMutability": "view",
      "type": "function"
    },
    {
      "inputs": [
        {
          "internalType": "uint256",
          "name": "",
          "type": "uint256"
        }
      ],
      "name": "arrayMembers",
      "outputs": [
        {
          "internalType": "address",
          "name": "",
          "type": "address"
        }
      ],
      "stateMutability": "view",
      "type": "function"
    },
    {
      "inputs": [],
      "name": "coolOffPeriod",
      "outputs": [
        {
          "internalType": "uint256",
          "name": "",
          "type": "uint256"
        }
      ],
      "stateMutability": "view",
      "type": "function"
    },
    {
      "inputs": [],
      "name": "daoHasMoved",
      "outputs": [
        {
          "internalType": "bool",
          "name": "",
          "type": "bool"
        }
      ],
      "stateMutability": "view",
      "type": "function"
    },
    {
      "inputs": [],
      "name": "erasToEarn",
      "outputs": [
        {
          "internalType": "uint256",
          "name": "",
          "type": "uint256"
        }
      ],
      "stateMutability": "view",
      "type": "function"
    },
    {
      "inputs": [
        {
          "internalType": "address",
          "name": "",
          "type": "address"
        }
      ],
      "name": "isMember",
      "outputs": [
        {
          "internalType": "bool",
          "name": "",
          "type": "bool"
        }
      ],
      "stateMutability": "view",
      "type": "function"
    },
    {
      "inputs": [
        {
          "internalType": "address",
          "name": "",
          "type": "address"
        },
        {
          "internalType": "address",
          "name": "",
          "type": "address"
        }
      ],
      "name": "mapMemberPool_balance",
      "outputs": [
        {
          "internalType": "uint256",
          "name": "",
          "type": "uint256"
        }
      ],
      "stateMutability": "view",
      "type": "function"
    },
    {
      "inputs": [
        {
          "internalType": "address",
          "name": "",
          "type": "address"
        },
        {
          "internalType": "address",
          "name": "",
          "type": "address"
        }
      ],
      "name": "mapMemberPool_weight",
      "outputs": [
        {
          "internalType": "uint256",
          "name": "",
          "type": "uint256"
        }
      ],
      "stateMutability": "view",
      "type": "function"
    },
    {
      "inputs": [
        {
          "internalType": "address",
          "name": "",
          "type": "address"
        }
      ],
      "name": "mapMember_lastTime",
      "outputs": [
        {
          "internalType": "uint256",
          "name": "",
          "type": "uint256"
        }
      ],
      "stateMutability": "view",
      "type": "function"
    },
    {
      "inputs": [
        {
          "internalType": "address",
          "name": "",
          "type": "address"
        },
        {
          "internalType": "uint256",
          "name": "",
          "type": "uint256"
        }
      ],
      "name": "mapMember_poolArray",
      "outputs": [
        {
          "internalType": "address",
          "name": "",
          "type": "address"
        }
      ],
      "stateMutability": "view",
      "type": "function"
    },
    {
      "inputs": [
        {
          "internalType": "address",
          "name": "",
          "type": "address"
        }
      ],
      "name": "mapMember_weight",
      "outputs": [
        {
          "internalType": "uint256",
          "name": "",
          "type": "uint256"
        }
      ],
      "stateMutability": "view",
      "type": "function"
    },
    {
      "inputs": [
        {
          "internalType": "uint256",
          "name": "",
          "type": "uint256"
        },
        {
          "internalType": "address",
          "name": "",
          "type": "address"
        }
      ],
      "name": "mapPIDMember_votes",
      "outputs": [
        {
          "internalType": "uint256",
          "name": "",
          "type": "uint256"
        }
      ],
      "stateMutability": "view",
      "type": "function"
    },
    {
      "inputs": [
        {
          "internalType": "uint256",
          "name": "",
          "type": "uint256"
        }
      ],
      "name": "mapPID_address",
      "outputs": [
        {
          "internalType": "address",
          "name": "",
          "type": "address"
        }
      ],
      "stateMutability": "view",
      "type": "function"
    },
    {
      "inputs": [
        {
          "internalType": "uint256",
          "name": "",
          "type": "uint256"
        }
      ],
      "name": "mapPID_finalised",
      "outputs": [
        {
          "internalType": "bool",
          "name": "",
          "type": "bool"
        }
      ],
      "stateMutability": "view",
      "type": "function"
    },
    {
      "inputs": [
        {
          "internalType": "uint256",
          "name": "",
          "type": "uint256"
        }
      ],
      "name": "mapPID_finalising",
      "outputs": [
        {
          "internalType": "bool",
          "name": "",
          "type": "bool"
        }
      ],
      "stateMutability": "view",
      "type": "function"
    },
    {
      "inputs": [
        {
          "internalType": "uint256",
          "name": "",
          "type": "uint256"
        }
      ],
      "name": "mapPID_grant",
      "outputs": [
        {
          "internalType": "address",
          "name": "recipient",
          "type": "address"
        },
        {
          "internalType": "uint256",
          "name": "amount",
          "type": "uint256"
        }
      ],
      "stateMutability": "view",
      "type": "function"
    },
    {
      "inputs": [
        {
          "internalType": "uint256",
          "name": "",
          "type": "uint256"
        }
      ],
      "name": "mapPID_list",
      "outputs": [
        {
          "internalType": "address",
          "name": "asset",
          "type": "address"
        },
        {
          "internalType": "uint256",
          "name": "claimRate",
          "type": "uint256"
        },
        {
          "internalType": "uint256",
          "name": "allocation",
          "type": "uint256"
        }
      ],
      "stateMutability": "view",
      "type": "function"
    },
    {
      "inputs": [
        {
          "internalType": "uint256",
          "name": "",
          "type": "uint256"
        }
      ],
      "name": "mapPID_param",
      "outputs": [
        {
          "internalType": "uint256",
          "name": "",
          "type": "uint256"
        }
      ],
      "stateMutability": "view",
      "type": "function"
    },
    {
      "inputs": [
        {
          "internalType": "uint256",
          "name": "",
          "type": "uint256"
        }
      ],
      "name": "mapPID_timeStart",
      "outputs": [
        {
          "internalType": "uint256",
          "name": "",
          "type": "uint256"
        }
      ],
      "stateMutability": "view",
      "type": "function"
    },
    {
      "inputs": [
        {
          "internalType": "uint256",
          "name": "",
          "type": "uint256"
        }
      ],
      "name": "mapPID_type",
      "outputs": [
        {
          "internalType": "string",
          "name": "",
          "type": "string"
        }
      ],
      "stateMutability": "view",
      "type": "function"
    },
    {
      "inputs": [
        {
          "internalType": "uint256",
          "name": "",
          "type": "uint256"
        }
      ],
      "name": "mapPID_votes",
      "outputs": [
        {
          "internalType": "uint256",
          "name": "",
          "type": "uint256"
        }
      ],
      "stateMutability": "view",
      "type": "function"
    },
    {
      "inputs": [],
      "name": "one",
      "outputs": [
        {
          "internalType": "uint256",
          "name": "",
          "type": "uint256"
        }
      ],
      "stateMutability": "view",
      "type": "function"
    },
    {
      "inputs": [],
      "name": "proposalCount",
      "outputs": [
        {
          "internalType": "uint256",
          "name": "",
          "type": "uint256"
        }
      ],
      "stateMutability": "view",
      "type": "function"
    },
    {
      "inputs": [],
      "name": "secondsPerEra",
      "outputs": [
        {
          "internalType": "uint256",
          "name": "",
          "type": "uint256"
        }
      ],
      "stateMutability": "view",
      "type": "function"
    },
    {
      "inputs": [],
      "name": "totalWeight",
      "outputs": [
        {
          "internalType": "uint256",
          "name": "",
          "type": "uint256"
        }
      ],
      "stateMutability": "view",
      "type": "function"
    },
    {
      "inputs": [
        {
          "internalType": "address",
          "name": "_router",
          "type": "address"
        },
        {
          "internalType": "address",
          "name": "_utils",
          "type": "address"
        }
      ],
      "name": "setGenesisAddresses",
      "outputs": [],
      "stateMutability": "nonpayable",
      "type": "function"
    },
    {
      "inputs": [
        {
          "internalType": "uint256",
          "name": "_coolOff",
          "type": "uint256"
        },
        {
          "internalType": "uint256",
          "name": "_daysToEarn",
          "type": "uint256"
        }
      ],
      "name": "setGenesisFactors",
      "outputs": [],
      "stateMutability": "nonpayable",
      "type": "function"
    },
    {
      "inputs": [],
      "name": "purgeDeployer",
      "outputs": [],
      "stateMutability": "nonpayable",
      "type": "function"
    },
    {
      "inputs": [
        {
          "internalType": "address",
          "name": "pool",
          "type": "address"
        },
        {
          "internalType": "uint256",
          "name": "amount",
          "type": "uint256"
        }
      ],
      "name": "deposit",
      "outputs": [],
      "stateMutability": "nonpayable",
      "type": "function"
    },
    {
      "inputs": [
        {
          "internalType": "address",
          "name": "pool",
          "type": "address"
        },
        {
          "internalType": "uint256",
          "name": "amount",
          "type": "uint256"
        },
        {
          "internalType": "address",
          "name": "member",
          "type": "address"
        }
      ],
      "name": "depositForMember",
      "outputs": [],
      "stateMutability": "nonpayable",
      "type": "function"
    },
    {
      "inputs": [
        {
          "internalType": "address",
          "name": "pool",
          "type": "address"
        },
        {
          "internalType": "address",
          "name": "member",
          "type": "address"
        }
      ],
      "name": "increaseWeight",
      "outputs": [
        {
          "internalType": "uint256",
          "name": "",
          "type": "uint256"
        }
      ],
      "stateMutability": "nonpayable",
      "type": "function"
    },
    {
      "inputs": [
        {
          "internalType": "address",
          "name": "pool",
          "type": "address"
        }
      ],
      "name": "withdraw",
      "outputs": [],
      "stateMutability": "nonpayable",
      "type": "function"
    },
    {
      "inputs": [],
      "name": "harvest",
      "outputs": [],
      "stateMutability": "nonpayable",
      "type": "function"
    },
    {
      "inputs": [
        {
          "internalType": "address",
          "name": "member",
          "type": "address"
        }
      ],
      "name": "calcCurrentReward",
      "outputs": [
        {
          "internalType": "uint256",
          "name": "",
          "type": "uint256"
        }
      ],
      "stateMutability": "view",
      "type": "function"
    },
    {
      "inputs": [
        {
          "internalType": "address",
          "name": "member",
          "type": "address"
        }
      ],
      "name": "calcReward",
      "outputs": [
        {
          "internalType": "uint256",
          "name": "",
          "type": "uint256"
        }
      ],
      "stateMutability": "view",
      "type": "function"
    },
    {
      "inputs": [
        {
          "internalType": "string",
          "name": "typeStr",
          "type": "string"
        }
      ],
      "name": "newActionProposal",
      "outputs": [
        {
          "internalType": "uint256",
          "name": "",
          "type": "uint256"
        }
      ],
      "stateMutability": "nonpayable",
      "type": "function"
    },
    {
      "inputs": [
        {
          "internalType": "uint256",
          "name": "param",
          "type": "uint256"
        },
        {
          "internalType": "string",
          "name": "typeStr",
          "type": "string"
        }
      ],
      "name": "newParamProposal",
      "outputs": [
        {
          "internalType": "uint256",
          "name": "",
          "type": "uint256"
        }
      ],
      "stateMutability": "nonpayable",
      "type": "function"
    },
    {
      "inputs": [
        {
          "internalType": "address",
          "name": "proposedAddress",
          "type": "address"
        },
        {
          "internalType": "string",
          "name": "typeStr",
          "type": "string"
        }
      ],
      "name": "newAddressProposal",
      "outputs": [
        {
          "internalType": "uint256",
          "name": "",
          "type": "uint256"
        }
      ],
      "stateMutability": "nonpayable",
      "type": "function"
    },
    {
      "inputs": [
        {
          "internalType": "address",
          "name": "asset",
          "type": "address"
        },
        {
          "internalType": "uint256",
          "name": "claimRate",
          "type": "uint256"
        },
        {
          "internalType": "uint256",
          "name": "allocation",
          "type": "uint256"
        }
      ],
      "name": "newListProposal",
      "outputs": [
        {
          "internalType": "uint256",
          "name": "",
          "type": "uint256"
        }
      ],
      "stateMutability": "nonpayable",
      "type": "function"
    },
    {
      "inputs": [
        {
          "internalType": "address",
          "name": "recipient",
          "type": "address"
        },
        {
          "internalType": "uint256",
          "name": "amount",
          "type": "uint256"
        }
      ],
      "name": "newGrantProposal",
      "outputs": [
        {
          "internalType": "uint256",
          "name": "",
          "type": "uint256"
        }
      ],
      "stateMutability": "nonpayable",
      "type": "function"
    },
    {
      "inputs": [
        {
          "internalType": "uint256",
          "name": "proposalID",
          "type": "uint256"
        }
      ],
      "name": "voteProposal",
      "outputs": [
        {
          "internalType": "uint256",
          "name": "voteWeight",
          "type": "uint256"
        }
      ],
      "stateMutability": "nonpayable",
      "type": "function"
    },
    {
      "inputs": [
        {
          "internalType": "uint256",
          "name": "oldProposalID",
          "type": "uint256"
        },
        {
          "internalType": "uint256",
          "name": "newProposalID",
          "type": "uint256"
        }
      ],
      "name": "cancelProposal",
      "outputs": [],
      "stateMutability": "nonpayable",
      "type": "function"
    },
    {
      "inputs": [
        {
          "internalType": "uint256",
          "name": "proposalID",
          "type": "uint256"
        }
      ],
      "name": "finaliseProposal",
      "outputs": [],
      "stateMutability": "nonpayable",
      "type": "function"
    },
    {
      "inputs": [
        {
          "internalType": "uint256",
          "name": "_proposalID",
          "type": "uint256"
        }
      ],
      "name": "hasMajority",
      "outputs": [
        {
          "internalType": "bool",
          "name": "",
          "type": "bool"
        }
      ],
      "stateMutability": "view",
      "type": "function"
    },
    {
      "inputs": [
        {
          "internalType": "uint256",
          "name": "_proposalID",
          "type": "uint256"
        }
      ],
      "name": "hasQuorum",
      "outputs": [
        {
          "internalType": "bool",
          "name": "",
          "type": "bool"
        }
      ],
      "stateMutability": "view",
      "type": "function"
    },
    {
      "inputs": [
        {
          "internalType": "uint256",
          "name": "_proposalID",
          "type": "uint256"
        }
      ],
      "name": "hasMinority",
      "outputs": [
        {
          "internalType": "bool",
          "name": "",
          "type": "bool"
        }
      ],
      "stateMutability": "view",
      "type": "function"
    },
    {
      "inputs": [],
      "name": "ROUTER",
      "outputs": [
        {
          "internalType": "contract iROUTER",
          "name": "",
          "type": "address"
        }
      ],
      "stateMutability": "view",
      "type": "function"
    },
    {
      "inputs": [],
      "name": "UTILS",
      "outputs": [
        {
          "internalType": "contract iUTILS",
          "name": "",
          "type": "address"
        }
      ],
      "stateMutability": "view",
      "type": "function"
    },
    {
      "inputs": [],
      "name": "memberCount",
      "outputs": [
        {
          "internalType": "uint256",
          "name": "",
          "type": "uint256"
        }
      ],
      "stateMutability": "view",
      "type": "function"
    },
    {
      "inputs": [
        {
          "internalType": "address",
          "name": "member",
          "type": "address"
        }
      ],
      "name": "getMemberDetails",
      "outputs": [
        {
          "components": [
            {
              "internalType": "bool",
              "name": "isMember",
              "type": "bool"
            },
            {
              "internalType": "uint256",
              "name": "weight",
              "type": "uint256"
            },
            {
              "internalType": "uint256",
              "name": "lastBlock",
              "type": "uint256"
            },
            {
              "internalType": "uint256",
              "name": "poolCount",
              "type": "uint256"
            }
          ],
          "internalType": "struct Dao.MemberDetails",
          "name": "memberDetails",
          "type": "tuple"
        }
      ],
      "stateMutability": "view",
      "type": "function"
    },
    {
      "inputs": [
        {
          "internalType": "uint256",
          "name": "proposalID",
          "type": "uint256"
        }
      ],
      "name": "getProposalDetails",
      "outputs": [
        {
          "components": [
            {
              "internalType": "uint256",
              "name": "id",
              "type": "uint256"
            },
            {
              "internalType": "string",
              "name": "proposalType",
              "type": "string"
            },
            {
              "internalType": "uint256",
              "name": "votes",
              "type": "uint256"
            },
            {
              "internalType": "uint256",
              "name": "timeStart",
              "type": "uint256"
            },
            {
              "internalType": "bool",
              "name": "finalising",
              "type": "bool"
            },
            {
              "internalType": "bool",
              "name": "finalised",
              "type": "bool"
            },
            {
              "internalType": "uint256",
              "name": "param",
              "type": "uint256"
            },
            {
              "internalType": "address",
              "name": "proposedAddress",
              "type": "address"
            },
            {
              "components": [
                {
                  "internalType": "address",
                  "name": "asset",
                  "type": "address"
                },
                {
                  "internalType": "uint256",
                  "name": "claimRate",
                  "type": "uint256"
                },
                {
                  "internalType": "uint256",
                  "name": "allocation",
                  "type": "uint256"
                }
              ],
              "internalType": "struct Dao.ListDetails",
              "name": "list",
              "type": "tuple"
            }
          ],
          "internalType": "struct Dao.ProposalDetails",
          "name": "proposalDetails",
          "type": "tuple"
        }
      ],
      "stateMutability": "view",
      "type": "function"
    },
    {
      "inputs": [
        {
          "internalType": "bytes",
          "name": "part1",
          "type": "bytes"
        },
        {
          "internalType": "bytes",
          "name": "part2",
          "type": "bytes"
        }
      ],
      "name": "isEqual",
      "outputs": [
        {
          "internalType": "bool",
          "name": "",
          "type": "bool"
        }
      ],
      "stateMutability": "pure",
      "type": "function"
    }
  ],
  "bytecode": "0x6080604052670de0b6b3a764000060035560405162003d5b38038062003d5b8339810160408190526200003291620000e4565b600180546001600160a01b038084166001600160a01b0319928316178084556000805490931633179092556004928355601e600655604080516335c951db60e11b815290519290911692636b92a3b6928282019260209290829003018186803b1580156200009f57600080fd5b505afa158015620000b4573d6000803e3d6000fd5b505050506040513d601f19601f82011682018060405250810190620000da919062000114565b600555506200012d565b600060208284031215620000f6578081fd5b81516001600160a01b03811681146200010d578182fd5b9392505050565b60006020828403121562000126578081fd5b5051919050565b613c1e806200013d6000396000f3fe608060405234801561001057600080fd5b50600436106103425760003560e01c80637b0e5c45116101b8578063c05fc17811610104578063d0ad1709116100a2578063da35c6641161007c578063da35c664146106e4578063dab249b3146106ec578063e38c7dcc146106ff578063ec342ad01461071257610342565b8063d0ad17091461069c578063d1458363146106af578063d5db12ae146106c257610342565b8063c42b3f7d116100de578063c42b3f7d14610642578063c84ae2bb14610655578063cb7bdbc014610668578063cca92d9c1461068957610342565b8063c05fc17814610607578063c1b8411a14610627578063c3bb1f2d1461062f57610342565b8063a230c52411610171578063abb6154f1161014b578063abb6154f146105c6578063ad306485146105ce578063ae887c8b146105e1578063bbf8cf82146105f457610342565b8063a230c5241461058d578063a3202246146105a0578063a6c83fed146105b357610342565b80637b0e5c451461053a578063807896d51461054257806383fd095414610555578063901717d11461057557806396c82e571461057d57806398fabd3a1461058557610342565b80633b4d01a7116102925780634b400034116102305780635c7366d31161020a5780635c7366d3146104f95780635ded8b061461050c5780636b92a3b61461051f57806373b03e461461052757610342565b80634b400034146104c057806351cff8d9146104d35780635c120b37146104e657610342565b80634636279f1161026c5780634636279f1461047f5780634641257d1461049257806347e7ef241461049a5780634b193e23146104ad57610342565b80633b4d01a7146104395780633d17f6ec14610459578063436f80be1461046c57610342565b80632bee1194116102ff578063316119f4116102d9578063316119f4146103eb57806332fe7b26146103fe57806334359808146104135780633a61738d1461042657610342565b80632bee1194146103bd5780632c07eebf146103d0578063314604fe146103d857610342565b806303a821381461034757806311aee3801461035157806317d1734f1461036f57806324efb52814610382578063293cee7d1461039757806329859f08146103aa575b600080fd5b61034f61071a565b005b61035961075f565b6040516103669190613b15565b60405180910390f35b61035961037d36600461343e565b610766565b61038a610ab3565b6040516103669190613785565b6103596103a5366004613476565b610abc565b6103596103b836600461343e565b610b49565b61038a6103cb36600461362e565b610b66565b610359610b7b565b6103596103e636600461362e565b610b81565b61034f6103f9366004613699565b610b93565b610406610bc8565b6040516103669190613737565b61038a61042136600461359c565b610c75565b610359610434366004613406565b610d2d565b61044c61044736600461362e565b610e69565b6040516103669190613a7e565b6104066104673660046134c4565b610fcb565b61040661047a36600461362e565b611000565b61035961048d366004613406565b611027565b61034f611119565b61034f6104a83660046134c4565b6111be565b61034f6104bb36600461362e565b6111c9565b61038a6104ce36600461362e565b6115c6565b61034f6104e1366004613406565b6115db565b61038a6104f436600461362e565b6117b9565b610359610507366004613406565b6117fe565b61034f61051a366004613699565b611810565b610359611a06565b610359610535366004613406565b611a0c565b610406611a1e565b61035961055036600461362e565b611a8c565b610568610563366004613406565b611c5c565b6040516103669190613a51565b610359611cb8565b610359611cbe565b610406611cc4565b61038a61059b366004613406565b611cd8565b6103596105ae36600461366a565b611ced565b6103596105c13660046134c4565b611d27565b610359611df1565b61034f6105dc36600461343e565b611df7565b6104066105ef36600461362e565b611e4f565b61038a61060236600461362e565b611e6a565b61061a61061536600461362e565b611e8f565b6040516103669190613790565b610406611f2a565b61034f61063d3660046134ef565b611f39565b610359610650366004613646565b6121e8565b610359610663366004613530565b612205565b61067b61067636600461362e565b6122db565b60405161036692919061374b565b61035961069736600461343e565b612300565b61038a6106aa36600461362e565b61231d565b6103596106bd3660046135f3565b612342565b6106d56106d036600461362e565b6123a6565b60405161036693929190613764565b6103596123d1565b6103596106fa36600461362e565b6123d7565b61035961070d36600461362e565b6123e9565b6104066123fb565b6000546001600160a01b0316331461074d5760405162461bcd60e51b8152600401610744906139a0565b60405180910390fd5b600080546001600160a01b0319169055565b600b545b90565b6001600160a01b0381166000908152600c602052604081205460ff1661079e5760405162461bcd60e51b815260040161074490613929565b6001600160a01b038083166000908152600f602090815260408083209387168352929052205415610880576001600160a01b038083166000908152600f60209081526040808320938716835292905220546002546108019163ffffffff61240a16565b6002556001600160a01b038083166000818152600f60209081526040808320948816835293815283822054928252600e905291909120546108479163ffffffff61240a16565b6001600160a01b038084166000908152600e6020908152604080832094909455600f8152838220928716825291909152908120556108bf565b6001600160a01b0382811660009081526011602090815260408220805460018101825590835291200180546001600160a01b0319169185169190911790555b6000600a60009054906101000a90046001600160a01b03166001600160a01b031663bd9caa58856001600160a01b03166382bfefc86040518163ffffffff1660e01b815260040160206040518083038186803b15801561091e57600080fd5b505afa158015610932573d6000803e3d6000fd5b505050506040513d601f19601f820116820180604052508101906109569190613422565b6001600160a01b038087166000908152600d60209081526040808320938b1683529290528190205490516001600160e01b031960e085901b16815261099f92919060040161374b565b60206040518083038186803b1580156109b757600080fd5b505afa1580156109cb573d6000803e3d6000fd5b505050506040513d601f19601f820116820180604052508101906109ef9190613584565b6001600160a01b038085166000818152600f60209081526040808320948a168352938152838220859055918152600e9091522054909150610a36908263ffffffff61243e16565b6001600160a01b0384166000908152600e6020526040902055600254610a62908263ffffffff61243e16565b60028190556040516001600160a01b038516917f77a5e6176a6553e4c121a2e2f31b21cc70111d9c122588df417fb9fe273c35dd91610aa2918591613b37565b60405180910390a290505b92915050565b60085460ff1681565b60078054600101808255600090815260136020908152604080832080546001600160a01b0319166001600160a01b038816179055925482526016815291812083519192610b0c9290850190613227565b50600754336001600160a01b0316600080516020613bc983398151915284604051610b379190613790565b60405180910390a35060075492915050565b600f60209081526000928352604080842090915290825290205481565b601a6020526000908152604090205460ff1681565b60065481565b60126020526000908152604090205481565b6000546001600160a01b03163314610bbd5760405162461bcd60e51b8152600401610744906139a0565b600491909155600655565b60085460009060ff1615610c6357600860019054906101000a90046001600160a01b03166001600160a01b03166332fe7b266040518163ffffffff1660e01b815260040160206040518083038186803b158015610c2457600080fd5b505afa158015610c38573d6000803e3d6000fd5b505050506040513d601f19601f82011682018060405250810190610c5c9190613422565b9050610763565b506009546001600160a01b0316610763565b6000600282604051610c87919061371b565b602060405180830381855afa158015610ca4573d6000803e3d6000fd5b5050506040513d601f19601f82011682018060405250810190610cc79190613584565b600284604051610cd7919061371b565b602060405180830381855afa158015610cf4573d6000803e3d6000fd5b5050506040513d601f19601f82011682018060405250810190610d179190613584565b1415610d2557506001610aad565b506000610aad565b6001600160a01b038082166000908152600e60205260408082205460065460015492516370a0823160e01b8152939491938593610dd69316906370a0823190610d7a903090600401613737565b60206040518083038186803b158015610d9257600080fd5b505afa158015610da6573d6000803e3d6000fd5b505050506040513d601f19601f82011682018060405250810190610dca9190613584565b9063ffffffff61244d16565b600a546002546040516306e8c9b160e21b81529293506001600160a01b0390911691631ba326c491610e0f918691908690600401613b6d565b60206040518083038186803b158015610e2757600080fd5b505afa158015610e3b573d6000803e3d6000fd5b505050506040513d601f19601f82011682018060405250810190610e5f9190613584565b925050505b919050565b610e716132a5565b81815260008281526016602090815260409182902080548351601f600260001961010060018616150201909316929092049182018490048402810184019094528084529091830182828015610f075780601f10610edc57610100808354040283529160200191610f07565b820191906000526020600020905b815481529060010190602001808311610eea57829003601f168201915b5050505060208084019290925250600083815260178252604080822054818501528482526018835280822054606080860191909152858352601984528183205460ff90811615156080870152868452601a85528284205416151560a0860152858352601284528183205460c086015285835260138452818320546001600160a01b0390811660e08701528684526014855292829020825191820183528054909316815260018301549381019390935260029091015490820152610100820152919050565b60116020528160005260406000208181548110610fe457fe5b6000918252602090912001546001600160a01b03169150829050565b600b818154811061100d57fe5b6000918252602090912001546001600160a01b0316905081565b6001600160a01b038116600090815260106020526040812054819061105390429063ffffffff61240a16565b9050600061106084610d2d565b9050600061107d600554610dca858561247a90919063ffffffff16565b6001546040516370a0823160e01b81529192506000916001600160a01b03909116906370a08231906110b3903090600401613737565b60206040518083038186803b1580156110cb57600080fd5b505afa1580156110df573d6000803e3d6000fd5b505050506040513d601f19601f820116820180604052508101906111039190613584565b9050808210611110578091505b50949350505050565b600061112433611027565b3360008181526010602052604090819020429055600154905163a9059cbb60e01b81529293506001600160a01b03169163a9059cbb9161116891859060040161374b565b602060405180830381600087803b15801561118257600080fd5b505af1158015611196573d6000803e3d6000fd5b505050506040513d601f19601f820116820180604052508101906111ba9190613564565b5050565b6111ba828233611f39565b6004546000828152601860205260409020544203116111fa5760405162461bcd60e51b8152600401610744906138cc565b60008181526019602052604090205460ff16151560011461122d5760405162461bcd60e51b81526004016107449061384d565b61123681611e6a565b611251576000818152601960205260409020805460ff191690555b60008181526016602090815260409182902080548351601f60026000196101006001861615020190931692909204918201849004840281018401909452808452606093928301828280156112e65780601f106112bb576101008083540402835291602001916112e6565b820191906000526020600020905b8154815290600101906020018083116112c957829003601f168201915b50505050509050611312816040518060400160405280600381526020016244414f60e81b815250610c75565b1561132557611320826124b4565b6111ba565b61134d81604051806040016040528060068152602001652927aaaa22a960d11b815250610c75565b1561135b57611320826126b6565b61138281604051806040016040528060058152602001645554494c5360d81b815250610c75565b15611390576113208261270f565b6113bb8160405180604001604052806009815260200168494e43454e5449564560b81b815250610c75565b156113c95761132082612768565b6113ef8160405180604001604052806004815260200163131254d560e21b815250610c75565b156113fd5761132082612829565b61142581604051806040016040528060068152602001651111531254d560d21b815250610c75565b156114335761132082612986565b61145a8160405180604001604052806005815260200164435552564560d81b815250610c75565b1561146857611320826129eb565b6114928160405180604001604052806008815260200167222aa920aa24a7a760c11b815250610c75565b156114a05761132082612a47565b6114d1816040518060400160405280600f81526020016e53544152545f454d495353494f4e5360881b815250610c75565b156114df5761132082612b88565b61150f816040518060400160405280600e81526020016d53544f505f454d495353494f4e5360901b815250610c75565b1561151d5761132082612c1d565b611547816040518060400160405280600881526020016721a7a7a62fa7a32360c11b815250610c75565b156115555761132082612c6d565b611583816040518060400160405280600c81526020016b22a920a9afaa27afa2a0a92760a11b815250610c75565b156115915761132082612ca7565b6115b8816040518060400160405280600581526020016411d490539560da1b815250610c75565b156111ba576111ba82612ce1565b60196020526000908152604090205460ff1681565b336000908152600d602090815260408083206001600160a01b03851684529091529020548061161c5760405162461bcd60e51b8152600401610744906138fc565b6116268233612e4c565b336000908152600e60205260409020541580156116c157506001546040516370a0823160e01b81526000916001600160a01b0316906370a082319061166f903090600401613737565b60206040518083038186803b15801561168757600080fd5b505afa15801561169b573d6000803e3d6000fd5b505050506040513d601f19601f820116820180604052508101906116bf9190613584565b115b156116ce576116ce611119565b60405163a9059cbb60e01b81526001600160a01b0383169063a9059cbb906116fc903390859060040161374b565b602060405180830381600087803b15801561171657600080fd5b505af115801561172a573d6000803e3d6000fd5b505050506040513d601f19601f8201168201806040525081019061174e9190613564565b61176a5760405162461bcd60e51b815260040161074490613951565b816001600160a01b0316336001600160a01b03167f12dcb5d4117cb4675d56c72f030db8f0f4dd34f875fe484eea4cf0790b5deaa3836040516117ad9190613b15565b60405180910390a35050565b6000818152601760205260408120546002805483916117de919063ffffffff61244d16565b9050808211156117f357600192505050610e64565b600092505050610e64565b60106020526000908152604090205481565b60008281526019602052604090205460ff1661183e5760405162461bcd60e51b81526004016107449061384d565b6118478161231d565b6118635760405162461bcd60e51b815260040161074490613879565b60008281526016602090815260409182902080548351601f6002600019610100600186161502019093169290920491820184900484028101840190945280845261199a93928301828280156118f95780601f106118ce576101008083540402835291602001916118f9565b820191906000526020600020905b8154815290600101906020018083116118dc57829003601f168201915b5050506000858152601660209081526040918290208054835160026001831615610100026000190190921691909104601f8101849004840282018401909452838152945092508301828280156119905780601f1061196557610100808354040283529160200191611990565b820191906000526020600020905b81548152906001019060200180831161197357829003601f168201915b5050505050610c75565b6119b65760405162461bcd60e51b8152600401610744906137f0565b600082815260176020526040808220829055828252808220546002549151859333937f0e67c2e72a9ea22e5d163549aebce99ddc3d1fbbc58e7ed196b0e88f458847d9936117ad93909190613b6d565b60055481565b600e6020526000908152604090205481565b60085460009060ff1615611a7a57600860019054906101000a90046001600160a01b03166001600160a01b0316637b0e5c456040518163ffffffff1660e01b815260040160206040518083038186803b158015610c2457600080fd5b50600a546001600160a01b0316610763565b600081815260166020908152604080832080548251601f60026000196101006001861615020190931692909204918201859004850281018501909352808352606093830182828015611b1f5780601f10611af457610100808354040283529160200191611b1f565b820191906000526020600020905b815481529060010190602001808311611b0257829003601f168201915b50505050509050611b2f83612f2a565b9150611b3a83611e6a565b8015611b55575060008381526019602052604090205460ff16155b15611c0757611b7f816040518060400160405280600381526020016244414f60e81b815250610c75565b80611bac5750611bac81604051806040016040528060058152602001645554494c5360d81b815250610c75565b80611bdd5750611bdd8160405180604001604052806009815260200168494e43454e5449564560b81b815250610c75565b15611bfe57611beb836117b9565b15611bf957611bf983612f9b565b611c07565b611c0783612f9b565b60008381526017602052604090819020549051849133917f4d46d88c7e981a5bf4572a83b5d88bcfefbd5ee6ca8df0588e27c4221a43640791611c4e918791908790613b45565b60405180910390a350919050565b611c64613303565b6001600160a01b0382166000818152600c602090815260408083205460ff1615158552838352600e825280832054858301528383526010825280832054858201529282526011905220546060820152919050565b60035481565b60025481565b60085461010090046001600160a01b031681565b600c6020526000908152604090205460ff1681565b600780546001018082556000908152601260209081526040808320869055925482526016815291812083519192610b0c9290850190613227565b604080518082018252600581526411d490539560da1b60208083019182526007805460010190819055600090815260169091529283208251611d699290613227565b50611d7261332d565b6001600160a01b03858116825260208083018681526007805460009081526015909352604092839020855181546001600160a01b03191695169490941784559051600190930192909255905490513390600080516020613bc983398151915290611ddd908690613790565b60405180910390a350506007549392505050565b60045481565b6000546001600160a01b03163314611e215760405162461bcd60e51b8152600401610744906139a0565b600980546001600160a01b039384166001600160a01b031991821617909155600a8054929093169116179055565b6013602052600090815260409020546001600160a01b031681565b60008181526017602052604081205460025482906117de90600363ffffffff61244d16565b60166020908152600091825260409182902080548351601f600260001961010060018616150201909316929092049182018490048402810184019094528084529091830182828015611f225780601f10611ef757610100808354040283529160200191611f22565b820191906000526020600020905b815481529060010190602001808311611f0557829003601f168201915b505050505081565b6000546001600160a01b031681565b600954604051635b16ebb760e01b81526001600160a01b0390911690635b16ebb790611f69908690600401613737565b60206040518083038186803b158015611f8157600080fd5b505afa158015611f95573d6000803e3d6000fd5b505050506040513d601f19601f82011682018060405250810190611fb99190613564565b1515600114611fda5760405162461bcd60e51b815260040161074490613978565b60008211611ffa5760405162461bcd60e51b8152600401610744906138a5565b6001600160a01b0381166000908152600c602052604090205460ff1661208c576001600160a01b0381166000818152601060209081526040808320429055600b805460018181019092557f0175b7a638427703f0dbe7bb9bbf987a2551717b34e79f33b5b1008d1fa01db90180546001600160a01b03191633179055938352600c9091529020805460ff191690911790555b6040516302ccb1b360e41b81526001600160a01b03841690632ccb1b30906120ba903090869060040161374b565b602060405180830381600087803b1580156120d457600080fd5b505af11580156120e8573d6000803e3d6000fd5b505050506040513d601f19601f8201168201806040525081019061210c9190613564565b6121285760405162461bcd60e51b815260040161074490613951565b6001600160a01b038082166000908152600d602090815260408083209387168352929052205461215e908363ffffffff61243e16565b6001600160a01b038083166000908152600d602090815260408083209388168352929052908120919091556121938483610766565b9050836001600160a01b0316826001600160a01b03167f89ed9d9df7d37b6fc603953d166d547483f56cd78caf9641803c02b17b4498bc85846040516121da929190613b37565b60405180910390a350505050565b601b60209081526000928352604080842090915290825290205481565b6040805180820182526004815263131254d560e21b602080830191825260078054600101908190556000908152601690915292832082516122469290613227565b5061224f613344565b6001600160a01b03868116825260208083018781526040808501888152600780546000908152601490955293829020865181546001600160a01b03191696169590951785559151600185015590516002909301929092555490513390600080516020613bc9833981519152906122c6908690613790565b60405180910390a35050600754949350505050565b601560205260009081526040902080546001909101546001600160a01b039091169082565b600d60209081526000928352604080842090915290825290205481565b60008181526017602052604081205460025482906117de90600663ffffffff61244d16565b600780546001019081905560009081526016602090815260408220835161236b92850190613227565b50600754336001600160a01b0316600080516020613bc9833981519152846040516123969190613790565b60405180910390a3505060075490565b6014602052600090815260409020805460018201546002909201546001600160a01b03909116919083565b60075481565b60176020526000908152604090205481565b60186020526000908152604090205481565b6001546001600160a01b031681565b60006124378383604051806040016040528060088152602001670a6c2ccca9ac2e8d60c31b81525061309c565b9392505050565b60008282018381101561243757fe5b60006124378383604051806040016040528060088152602001670a6c2ccca9ac2e8d60c31b8152506130c8565b60008261248957506000610aad565b8282028284828161249657fe5b04146124375760405162461bcd60e51b8152600401610744906137a3565b6000818152601360205260409020546001600160a01b0316806124e95760405162461bcd60e51b8152600401610744906139c5565b600082815260136020526040908190205460088054610100600160a81b0319166101006001600160a01b03938416021790556001549151631d007f5f60e01b8152911690631d007f5f90612541908490600401613737565b602060405180830381600087803b15801561255b57600080fd5b505af115801561256f573d6000803e3d6000fd5b505050506040513d601f19601f820116820180604052508101906125939190613564565b506001546040516370a0823160e01b81526000916001600160a01b0316906370a08231906125c5903090600401613737565b60206040518083038186803b1580156125dd57600080fd5b505afa1580156125f1573d6000803e3d6000fd5b505050506040513d601f19601f820116820180604052508101906126159190613584565b60015460405163a9059cbb60e01b81529192506001600160a01b03169063a9059cbb90612648908590859060040161374b565b602060405180830381600087803b15801561266257600080fd5b505af1158015612676573d6000803e3d6000fd5b505050506040513d601f19601f8201168201806040525081019061269a9190613564565b506008805460ff191660011790556126b1836130ff565b505050565b6000818152601360205260409020546001600160a01b0316806126eb5760405162461bcd60e51b8152600401610744906139c5565b600980546001600160a01b0319166001600160a01b0383161790556111ba826130ff565b6000818152601360205260409020546001600160a01b0316806127445760405162461bcd60e51b8152600401610744906139c5565b600a80546001600160a01b0319166001600160a01b0383161790556111ba826130ff565b6000818152601360205260409020546001600160a01b03168061279d5760405162461bcd60e51b8152600401610744906139c5565b6001546040516341bbf44d60e11b81526001600160a01b0390911690638377e89a906127cd908490600401613737565b602060405180830381600087803b1580156127e757600080fd5b505af11580156127fb573d6000803e3d6000fd5b505050506040513d601f19601f8201168201806040525081019061281f9190613564565b506111ba826130ff565b612831613344565b50600081815260146020908152604091829020825160608101845281546001600160a01b0390811682526001808401548386015260029093015482860152600354925485516318160ddd60e01b8152955192956305f5e100909402949116926318160ddd9260048083019392829003018186803b1580156128b157600080fd5b505afa1580156128c5573d6000803e3d6000fd5b505050506040513d601f19601f820116820180604052508101906128e99190613584565b11156129075760405162461bcd60e51b815260040161074490613816565b600354629896800261292a8260400151836020015161247a90919063ffffffff16565b11156129485760405162461bcd60e51b8152600401610744906139f2565b6001548151602083015160408085015190516306f8b18960e01b81526001600160a01b03909416936306f8b189936127cd9390929091600401613764565b6000818152601360205260409020546001600160a01b0316806129bb5760405162461bcd60e51b8152600401610744906139c5565b6001546040516307605bbb60e41b81526001600160a01b0390911690637605bbb0906127cd908490600401613737565b60008181526012602052604090205480612a175760405162461bcd60e51b8152600401610744906137c5565b60015460405163567a6dc360e11b81526001600160a01b039091169063acf4db86906127cd908490600401613b15565b60008181526012602052604090205480612a735760405162461bcd60e51b8152600401610744906137c5565b600154604051637299626d60e01b81526001600160a01b0390911690637299626d90612aa3908490600401613b15565b602060405180830381600087803b158015612abd57600080fd5b505af1158015612ad1573d6000803e3d6000fd5b505050506040513d601f19601f82011682018060405250810190612af59190613564565b50600160009054906101000a90046001600160a01b03166001600160a01b0316636b92a3b66040518163ffffffff1660e01b815260040160206040518083038186803b158015612b4457600080fd5b505afa158015612b58573d6000803e3d6000fd5b505050506040513d601f19601f82011682018060405250810190612b7c9190613584565b6005556111ba826130ff565b600160009054906101000a90046001600160a01b03166001600160a01b0316631b02f8456040518163ffffffff1660e01b8152600401602060405180830381600087803b158015612bd857600080fd5b505af1158015612bec573d6000803e3d6000fd5b505050506040513d601f19601f82011682018060405250810190612c109190613564565b50612c1a816130ff565b50565b600160009054906101000a90046001600160a01b03166001600160a01b0316632eabea026040518163ffffffff1660e01b8152600401602060405180830381600087803b158015612bd857600080fd5b60008181526012602052604090205480612c995760405162461bcd60e51b8152600401610744906137c5565b60048190556111ba826130ff565b60008181526012602052604090205480612cd35760405162461bcd60e51b8152600401610744906137c5565b60068190556111ba826130ff565b612ce961332d565b506000818152601560209081526040918290208251808401845281546001600160a01b03908116825260019283015493820193909352905492516370a0823160e01b81529092909116906370a0823190612d47903090600401613737565b60206040518083038186803b158015612d5f57600080fd5b505afa158015612d73573d6000803e3d6000fd5b505050506040513d601f19601f82011682018060405250810190612d979190613584565b81602001511115612dba5760405162461bcd60e51b815260040161074490613a22565b612dc3826130ff565b6001548151602083015160405163a9059cbb60e01b81526001600160a01b039093169263a9059cbb92612dfa92909160040161374b565b602060405180830381600087803b158015612e1457600080fd5b505af1158015612e28573d6000803e3d6000fd5b505050506040513d601f19601f820116820180604052508101906126b19190613564565b6001600160a01b038181166000818152600f602090815260408083209487168084528583528184208054958552600d8452828520918552908352908320839055939052909155600254612e9f908261240a565b6002556001600160a01b0382166000908152600e6020526040902054612ecb908263ffffffff61240a16565b6001600160a01b0383166000818152600e60205260409081902092909255600254915190917f77a5e6176a6553e4c121a2e2f31b21cc70111d9c122588df417fb9fe273c35dd91612f1d918591613b37565b60405180910390a2505050565b6000818152601b602090815260408083203384528252808320548484526017909252822054612f5e9163ffffffff61240a16565b600083815260176020908152604080832084815533808552600e8452828520549785529487019055601b8252808320938352929052208290555090565b60008181526016602090815260409182902080548351601f60026000196101006001861615020190931692909204918201849004840281018401909452808452606093928301828280156130305780601f1061300557610100808354040283529160200191613030565b820191906000526020600020905b81548152906001019060200180831161301357829003601f168201915b5050506000858152601960209081526040808320805460ff191660011790556018909152908190204290819055600454915194955086943394507f0f36aea5066f9f90a999260fe4ce8d7713f7f07f5ae61bf36d73cc51170a3a9e93506117ad92909101908690613b1e565b600081848411156130c05760405162461bcd60e51b81526004016107449190613790565b505050900390565b600081836130e95760405162461bcd60e51b81526004016107449190613790565b5060008385816130f557fe5b0495945050505050565b60008181526016602090815260409182902080548351601f60026000196101006001861615020190931692909204918201849004840281018401909452808452606093928301828280156131945780601f1061316957610100808354040283529160200191613194565b820191906000526020600020905b81548152906001019060200180831161317757829003601f168201915b5050506000858152601760205260409081902054600254915194955086943394507f28fca9bc3d4a734a707bd9396d50341c1f45e1d455c4aa4a58ceee0e09f6454493506131e492908790613b45565b60405180910390a3506000908152601760209081526040808320839055601a8252808320805460ff19908116600117909155601990925290912080549091169055565b828054600181600116156101000203166002900490600052602060002090601f016020900481019282601f1061326857805160ff1916838001178555613295565b82800160010185558215613295579182015b8281111561329557825182559160200191906001019061327a565b506132a192915061336e565b5090565b604051806101200160405280600081526020016060815260200160008152602001600081526020016000151581526020016000151581526020016000815260200160006001600160a01b031681526020016132fe613344565b905290565b60405180608001604052806000151581526020016000815260200160008152602001600081525090565b604080518082019091526000808252602082015290565b604051806060016040528060006001600160a01b0316815260200160008152602001600081525090565b61076391905b808211156132a15760008155600101613374565b600082601f830112613398578081fd5b813567ffffffffffffffff808211156133af578283fd5b604051601f8301601f1916810160200182811182821017156133cf578485fd5b6040528281529250828483016020018610156133ea57600080fd5b8260208601602083013760006020848301015250505092915050565b600060208284031215613417578081fd5b813561243781613bb3565b600060208284031215613433578081fd5b815161243781613bb3565b60008060408385031215613450578081fd5b823561345b81613bb3565b9150602083013561346b81613bb3565b809150509250929050565b60008060408385031215613488578182fd5b823561349381613bb3565b9150602083013567ffffffffffffffff8111156134ae578182fd5b6134ba85828601613388565b9150509250929050565b600080604083850312156134d6578182fd5b82356134e181613bb3565b946020939093013593505050565b600080600060608486031215613503578081fd5b833561350e81613bb3565b925060208401359150604084013561352581613bb3565b809150509250925092565b600080600060608486031215613544578283fd5b833561354f81613bb3565b95602085013595506040909401359392505050565b600060208284031215613575578081fd5b81518015158114612437578182fd5b600060208284031215613595578081fd5b5051919050565b600080604083850312156135ae578182fd5b823567ffffffffffffffff808211156135c5578384fd5b6135d186838701613388565b935060208501359150808211156135e6578283fd5b506134ba85828601613388565b600060208284031215613604578081fd5b813567ffffffffffffffff81111561361a578182fd5b61362684828501613388565b949350505050565b60006020828403121561363f578081fd5b5035919050565b60008060408385031215613658578182fd5b82359150602083013561346b81613bb3565b6000806040838503121561367c578182fd5b82359150602083013567ffffffffffffffff8111156134ae578182fd5b600080604083850312156136ab578182fd5b50508035926020909101359150565b6001600160a01b03169052565b15159052565b600081518084526136e5816020860160208601613b83565b601f01601f19169290920160200192915050565b80516001600160a01b0316825260208082015190830152604090810151910152565b6000825161372d818460208701613b83565b9190910192915050565b6001600160a01b0391909116815260200190565b6001600160a01b03929092168252602082015260400190565b6001600160a01b039390931683526020830191909152604082015260600190565b901515815260200190565b60006020825261243760208301846136cd565b6020808252600890820152670a6c2ccca9ac2e8d60c31b604082015260600190565b602080825260119082015270139bc81c185c985b481c1c9bdc1bdcd959607a1b604082015260600190565b6020808252600c908201526b4d7573742062652073616d6560a01b604082015260600190565b60208082526017908201527f4d757374206e6f74206c697374206f766572203130306d000000000000000000604082015260600190565b6020808252601290820152714d7573742062652066696e616c6973696e6760701b604082015260600190565b6020808252601290820152714d7573742068617665206d696e6f7269747960701b604082015260600190565b6020808252600d908201526c4d7573742067657420736f6d6560981b604082015260600190565b60208082526016908201527526bab9ba1031329030b33a32b91031b7b7b61037b33360511b604082015260600190565b6020808252601390820152724d757374206861766520612062616c616e636560681b604082015260600190565b6020808252600e908201526d26bab9ba1031329036b2b6b132b960911b604082015260600190565b6020808252600d908201526c26bab9ba103a3930b739b332b960991b604082015260600190565b6020808252600e908201526d135d5cdd081899481b1a5cdd195960921b604082015260600190565b6020808252600b908201526a2232b83637bcb2b922b93960a91b604082015260600190565b602080825260139082015272139bc81859191c995cdcc81c1c9bdc1bdcd959606a1b604082015260600190565b6020808252601690820152754d757374206e6f74206c697374206f7665722031306d60501b604082015260600190565b6020808252601590820152744e6f74206d6f7265207468616e2062616c616e636560581b604082015260600190565b81511515815260208083015190820152604080830151908201526060918201519181019190915260800190565b6000602082528251602083015260208301516101606040840152613aa66101808401826136cd565b604085015160608501526060850151608085015260808501519150613ace60a08501836136c7565b60a08501519150613ae260c08501836136c7565b60c085015160e085015260e08501519150610100613b02818601846136ba565b85015191506136266101208501836136f9565b90815260200190565b60008382526040602083015261362660408301846136cd565b918252602082015260400190565b600084825283602083015260606040830152613b6460608301846136cd565b95945050505050565b9283526020830191909152604082015260600190565b60005b83811015613b9e578181015183820152602001613b86565b83811115613bad576000848401525b50505050565b6001600160a01b0381168114612c1a57600080fdfe8d500fcad86fc64a281b94ef64d6d66acbfc6862aa4ff2ee5fbbfb40736e803ea26469706673582212208655e30b4f9fcf167e2ad0f55561e2bfac8bbb8131048347b0be42d4c3fef82864736f6c63430006080033",
  "immutableReferences": {},
  "source": "// SPDX-License-Identifier: UNLICENSED\npragma solidity 0.6.8;\npragma experimental ABIEncoderV2;\n\ninterface iBEP20 {\n    function totalSupply() external view returns (uint);\n    function balanceOf(address) external view returns (uint);\n    function transfer(address, uint) external returns (bool);\n    function transferFrom(address, address, uint) external returns (bool);\n}\ninterface iROUTER {\n    function isPool(address) external view returns(bool);\n}\ninterface iPOOL {\n    function TOKEN() external view returns(address);\n    function transferTo(address, uint) external returns (bool);\n}\ninterface iUTILS {\n    function calcShare(uint, uint, uint) external pure returns (uint);\n    function getPoolShare(address, uint) external view returns(uint);\n}\ninterface iBASE {\n    function secondsPerEra() external view returns (uint);\n    function changeIncentiveAddress(address) external returns(bool);\n    function changeDAO(address) external returns(bool);\n    function changeEmissionCurve(uint256) external returns(bool);\n    function changeEraDuration(uint256) external returns(bool);\n    function listAsset(address, uint256, uint256) external returns(bool);\n    function delistAsset(address) external returns(bool);\n    function startEmissions() external returns(bool);\n    function stopEmissions() external returns(bool);\n}\n\n// SafeMath\nlibrary SafeMath {\n\n    function add(uint a, uint b) internal pure returns (uint)   {\n        uint c = a + b;\n        assert(c >= a);\n        return c;\n    }\n\n    function mul(uint a, uint b) internal pure returns (uint) {\n        if (a == 0) {\n            return 0;\n        }\n        uint c = a * b;\n        require(c / a == b, \"SafeMath\");\n        return c;\n    }\n\n    function sub(uint256 a, uint256 b) internal pure returns (uint256) {\n        return sub(a, b, \"SafeMath\");\n    }\n    function sub(uint256 a, uint256 b, string memory errorMessage) internal pure returns (uint256) {\n        require(b <= a, errorMessage);\n        uint256 c = a - b;\n        return c;\n    }\n\n    function div(uint256 a, uint256 b) internal pure returns (uint256) {\n        return div(a, b, \"SafeMath\");\n    }\n    function div(uint256 a, uint256 b, string memory errorMessage) internal pure returns (uint256) {\n        require(b > 0, errorMessage);\n        uint256 c = a / b;\n        return c;\n    }\n}\n\n\ncontract Dao {\n\n    using SafeMath for uint;\n\n    address public DEPLOYER;\n    address public BASE;\n\n    uint256 public totalWeight;\n    uint public one = 10**18;\n\n    uint public coolOffPeriod;\n    uint public secondsPerEra;\n    uint public erasToEarn;\n\n    uint public proposalCount;\n\n    struct ListDetails{\n        address asset;\n        uint claimRate;\n        uint allocation;\n    }\n    struct GrantDetails{\n        address recipient;\n        uint amount;\n    }\n    struct MemberDetails {\n        bool isMember;\n        uint weight;\n        uint lastBlock;\n        uint poolCount;\n    }\n    struct ProposalDetails {\n        uint id;\n        string proposalType;\n        uint votes;\n        uint timeStart;\n        bool finalising;\n        bool finalised;\n        uint param;\n        address proposedAddress;\n        ListDetails list;\n    }\n\n    bool public daoHasMoved;\n    address public DAO;\n\n    iROUTER private _ROUTER;\n    iUTILS private _UTILS;\n\n    address[] public arrayMembers;\n    mapping(address => bool) public isMember; // Is Member\n    mapping(address => mapping(address => uint256)) public mapMemberPool_balance; // Member's balance in pool\n    mapping(address => uint256) public mapMember_weight; // Value of weight\n    mapping(address => mapping(address => uint256)) public mapMemberPool_weight; // Value of weight for pool\n    mapping(address => uint256) public mapMember_lastTime;\n    mapping(address => address[]) public mapMember_poolArray;\n\n    mapping(uint256 => uint256) public mapPID_param;\n    mapping(uint256 => address) public mapPID_address;\n    mapping(uint256 => ListDetails) public mapPID_list;\n    mapping(uint256 => GrantDetails) public mapPID_grant;\n    mapping(uint256 => string) public mapPID_type;\n    mapping(uint256 => uint256) public mapPID_votes;\n    mapping(uint256 => uint256) public mapPID_timeStart;\n    mapping(uint256 => bool) public mapPID_finalising;\n    mapping(uint256 => bool) public mapPID_finalised;\n    mapping(uint256 => mapping(address => uint256)) public mapPIDMember_votes;\n\n    event MemberDeposits(address indexed member,address indexed pool,uint256 amount, uint256 weight);\n    event MemberWithdraws(address indexed member,address indexed pool,uint256 balance);\n    event WeightChange(address indexed member, uint256 weight, uint256 totalWeight);\n\n    event NewProposal(address indexed member, uint indexed proposalID, string proposalType);\n    event NewVote(address indexed member, uint indexed proposalID, uint voteWeight, uint totalVotes, string proposalType);\n    event ProposalFinalising(address indexed member,uint indexed proposalID, uint timeFinalised, string proposalType);\n    event CancelProposal(address indexed member, uint indexed oldProposalID, uint oldVotes, uint newVotes, uint totalWeight);\n    event FinalisedProposal(address indexed member,uint indexed proposalID, uint votesCast, uint totalWeight, string proposalType);\n\n    // Only Deployer can execute\n    modifier onlyDeployer() {\n        require(msg.sender == DEPLOYER, \"DeployerErr\");\n        _;\n    }\n\n    constructor (address _base) public payable {\n        BASE = _base;\n        DEPLOYER = msg.sender;\n        coolOffPeriod = 1;\n        erasToEarn = 30;\n        secondsPerEra = iBASE(BASE).secondsPerEra();\n    }\n    function setGenesisAddresses(address _router, address _utils) public onlyDeployer {\n        _ROUTER = iROUTER(_router);\n        _UTILS = iUTILS(_utils);\n    }\n    function setGenesisFactors(uint _coolOff, uint _daysToEarn) public onlyDeployer {\n        coolOffPeriod = _coolOff;\n        erasToEarn = _daysToEarn;\n    }\n\n    function purgeDeployer() public onlyDeployer {\n        DEPLOYER = address(0);\n    }\n\n    //============================== USER - DEPOSIT/WITHDRAW ================================//\n\n    // Member deposits some LP tokens\n    function deposit(address pool, uint256 amount) public {\n        depositForMember(pool, amount, msg.sender);\n    }\n    // Contract deposits some LP tokens for member\n    function depositForMember(address pool, uint256 amount, address member) public {\n        require(_ROUTER.isPool(pool) == true, \"Must be listed\");\n        require(amount > 0, \"Must get some\");\n        if (!isMember[member]) {\n            mapMember_lastTime[member] = now;\n            arrayMembers.push(msg.sender);\n            isMember[member] = true;\n        }\n        require(iPOOL(pool).transferTo(address(this), amount),\"Must transfer\"); // LP tokens return bool\n        mapMemberPool_balance[member][pool] = mapMemberPool_balance[member][pool].add(amount); // Record total pool balance for member\n        uint weight = increaseWeight(pool, member);\n        emit MemberDeposits(member, pool, amount, weight);\n    }\n\n    // Anyone can update a member's weight, which is their claim on the BASE in the associated pool\n    function increaseWeight(address pool, address member) public returns(uint){\n        require(isMember[member], \"Must be member\");\n        if(mapMemberPool_weight[member][pool] > 0){ // Remove previous weights\n            totalWeight = totalWeight.sub(mapMemberPool_weight[member][pool]);\n            mapMember_weight[member] = mapMember_weight[member].sub(mapMemberPool_weight[member][pool]);\n            mapMemberPool_weight[member][pool] = 0;\n        } else {\n            mapMember_poolArray[member].push(pool);\n        }\n        uint weight = _UTILS.getPoolShare(iPOOL(pool).TOKEN(), mapMemberPool_balance[member][pool]); // Get claim on BASE in pool\n        mapMemberPool_weight[member][pool] = weight;\n        mapMember_weight[member] = mapMember_weight[member].add(weight);\n        totalWeight = totalWeight.add(weight);\n        emit WeightChange(member, weight, totalWeight);\n        return weight;\n    }\n\n    // Member withdraws all from a pool\n    function withdraw(address pool) public {\n        uint256 balance = mapMemberPool_balance[msg.sender][pool];\n        require(balance > 0, \"Must have a balance\");\n        decreaseWeight(pool, msg.sender);\n        if(mapMember_weight[msg.sender] == 0 && iBEP20(BASE).balanceOf(address(this)) > 0){\n            harvest();\n        }\n        require(iBEP20(pool).transfer(msg.sender, balance), \"Must transfer\"); // Then transfer\n        emit MemberWithdraws(msg.sender, pool, balance);\n    }\n\n    function decreaseWeight(address pool, address member) internal {\n        uint weight = mapMemberPool_weight[member][pool];\n        mapMemberPool_balance[member][pool] = 0; // Zero out balance\n        mapMemberPool_weight[member][pool] = 0; // Zero out weight\n        totalWeight = totalWeight.sub(weight); // Remove that weight\n        mapMember_weight[member] = mapMember_weight[member].sub(weight); // Reduce weight\n        emit WeightChange(member, weight, totalWeight);\n    }\n\n    //============================== REWARDS ================================//\n    // Rewards\n\n    function harvest() public {\n        uint reward = calcCurrentReward(msg.sender);\n        mapMember_lastTime[msg.sender] = now;\n        iBEP20(BASE).transfer(msg.sender, reward);\n    }\n\n    function calcCurrentReward(address member) public view returns(uint){\n        uint secondsSinceClaim = now.sub(mapMember_lastTime[member]); // Get time since last claim\n        uint share = calcReward(member);    // get share of rewards for member\n        uint reward = share.mul(secondsSinceClaim).div(secondsPerEra);    // Get owed amount, based on per-day rates\n        uint reserve = iBEP20(BASE).balanceOf(address(this));\n        if(reward >= reserve) {\n            reward = reserve; // Send full reserve if the last person\n        }\n        return reward;\n    }\n\n    function calcReward(address member) public view returns(uint){\n        uint weight = mapMember_weight[member];\n        uint reserve = iBEP20(BASE).balanceOf(address(this)).div(erasToEarn); // Aim to deplete reserve over a number of days\n        return _UTILS.calcShare(weight, totalWeight, reserve); // Get member's share of that\n    }\n\n    //============================== CREATE PROPOSALS ================================//\n\n    // New ID, but specify type, one type for each function call\n    // Votes counted to IDs\n    // IDs are finalised\n    // IDs are executed, but type specifies unique logic\n\n    // Simple Action Call\n    function newActionProposal(string memory typeStr) public returns(uint) {\n        proposalCount += 1;\n        mapPID_type[proposalCount] = typeStr;\n        emit NewProposal(msg.sender, proposalCount, typeStr);\n        return proposalCount;\n    }\n    // Action with uint parameter\n    function newParamProposal(uint param, string memory typeStr) public returns(uint) {\n        proposalCount += 1;\n        mapPID_param[proposalCount] = param;\n        mapPID_type[proposalCount] = typeStr;\n        emit NewProposal(msg.sender, proposalCount, typeStr);\n        return proposalCount;\n    }\n    // Action with address parameter\n    function newAddressProposal(address proposedAddress, string memory typeStr) public returns(uint) {\n        proposalCount += 1;\n        mapPID_address[proposalCount] = proposedAddress;\n        mapPID_type[proposalCount] = typeStr;\n        emit NewProposal(msg.sender, proposalCount, typeStr);\n        return proposalCount;\n    }\n    // Action with list parameter\n    function newListProposal(address asset, uint256 claimRate, uint256 allocation) public returns(uint) {\n        string memory typeStr = \"LIST\";\n        proposalCount += 1;\n        mapPID_type[proposalCount] = typeStr;\n        ListDetails memory list;\n        list.asset = asset;\n        list.claimRate = claimRate;\n        list.allocation = allocation;\n        mapPID_list[proposalCount] = list;\n        emit NewProposal(msg.sender, proposalCount, typeStr);\n        return proposalCount;\n    }\n    // Action with funding\n    function newGrantProposal(address recipient, uint amount) public returns(uint) {\n        string memory typeStr = \"GRANT\";\n        proposalCount += 1;\n        mapPID_type[proposalCount] = typeStr;\n        GrantDetails memory grant;\n        grant.recipient = recipient;\n        grant.amount = amount;\n        mapPID_grant[proposalCount] = grant;\n        emit NewProposal(msg.sender, proposalCount, typeStr);\n        return proposalCount;\n    }\n\n//============================== VOTE && FINALISE ================================//\n\n    // Vote for a proposal\n    function voteProposal(uint proposalID) public returns (uint voteWeight) {\n        bytes memory _type = bytes(mapPID_type[proposalID]);\n        voteWeight = countVotes(proposalID);\n        if(hasQuorum(proposalID) && mapPID_finalising[proposalID] == false){\n            if(isEqual(_type, 'DAO') || isEqual(_type, 'UTILS') || isEqual(_type, 'INCENTIVE')){\n                if(hasMajority(proposalID)){\n                    _finalise(proposalID);\n                }\n            } else {\n                _finalise(proposalID);\n            }\n        }\n        emit NewVote(msg.sender, proposalID, voteWeight, mapPID_votes[proposalID], string(_type));\n    }\n\n    function _finalise(uint _proposalID) internal {\n        bytes memory _type = bytes(mapPID_type[_proposalID]);\n        mapPID_finalising[_proposalID] = true;\n        mapPID_timeStart[_proposalID] = now;\n        emit ProposalFinalising(msg.sender, _proposalID, now+coolOffPeriod, string(_type));\n    }\n\n    // If an existing proposal, allow a minority to cancel\n    function cancelProposal(uint oldProposalID, uint newProposalID) public {\n        require(mapPID_finalising[oldProposalID], \"Must be finalising\");\n        require(hasMinority(newProposalID), \"Must have minority\");\n        require(isEqual(bytes(mapPID_type[oldProposalID]), bytes(mapPID_type[newProposalID])), \"Must be same\");\n        mapPID_votes[oldProposalID] = 0;\n        emit CancelProposal(msg.sender, oldProposalID, mapPID_votes[oldProposalID], mapPID_votes[newProposalID], totalWeight);\n    }\n\n    // Proposal with quorum can finalise after cool off period\n    function finaliseProposal(uint proposalID) public  {\n        require((now - mapPID_timeStart[proposalID]) > coolOffPeriod, \"Must be after cool off\");\n        require(mapPID_finalising[proposalID] == true, \"Must be finalising\");\n        if(!hasQuorum(proposalID)){\n            mapPID_finalising[proposalID] = false;\n        }\n        bytes memory _type = bytes(mapPID_type[proposalID]);\n        if(isEqual(_type, 'DAO')){\n            moveDao(proposalID);\n        } else if (isEqual(_type, 'ROUTER')) {\n            moveRouter(proposalID);\n        } else if (isEqual(_type, 'UTILS')){\n            moveUtils(proposalID);\n        } else if (isEqual(_type, 'INCENTIVE')){\n            moveIncentiveAddress(proposalID);\n        } else if (isEqual(_type, 'LIST')){\n            listAsset(proposalID);\n        } else if (isEqual(_type, 'DELIST')){\n            delistAsset(proposalID);\n        } else if (isEqual(_type, 'CURVE')){\n            changeCurve(proposalID);\n        } else if (isEqual(_type, 'DURATION')){\n            changeDuration(proposalID);\n        } else if (isEqual(_type, 'START_EMISSIONS')){\n            startEmissions(proposalID);\n        } else if (isEqual(_type, 'STOP_EMISSIONS')){\n            stopEmissions(proposalID);\n        } else if (isEqual(_type, 'COOL_OFF')){\n            changeCooloff(proposalID);\n        } else if (isEqual(_type, 'ERAS_TO_EARN')){\n            changeEras(proposalID);\n        } else if (isEqual(_type, 'GRANT')){\n            grantFunds(proposalID);\n        }\n    }\n\n    function moveDao(uint _proposalID) internal {\n        address _proposedAddress = mapPID_address[_proposalID];\n        require(_proposedAddress != address(0), \"No address proposed\");\n        DAO = mapPID_address[_proposalID];\n        iBASE(BASE).changeDAO(_proposedAddress);\n        uint reserve = iBEP20(BASE).balanceOf(address(this));\n        iBEP20(BASE).transfer(_proposedAddress, reserve);\n        daoHasMoved = true;\n        completeProposal(_proposalID);\n    }\n\n    function moveRouter(uint _proposalID) internal {\n        address _proposedAddress = mapPID_address[_proposalID];\n        require(_proposedAddress != address(0), \"No address proposed\");\n        _ROUTER = iROUTER(_proposedAddress);\n        completeProposal(_proposalID);\n    }\n\n    function moveUtils(uint _proposalID) internal {\n        address _proposedAddress = mapPID_address[_proposalID];\n        require(_proposedAddress != address(0), \"No address proposed\");\n        _UTILS = iUTILS(_proposedAddress);\n        completeProposal(_proposalID);\n    }\n    function moveIncentiveAddress(uint _proposalID) internal {\n        address _proposedAddress = mapPID_address[_proposalID];\n        require(_proposedAddress != address(0), \"No address proposed\");\n        iBASE(BASE).changeIncentiveAddress(_proposedAddress);\n        completeProposal(_proposalID);\n    }\n\n    function listAsset(uint _proposalID) internal {\n        ListDetails memory _list = mapPID_list[_proposalID];\n        require(iBEP20(BASE).totalSupply() <= 100 * 10**6 * one, \"Must not list over 100m\");\n        require(_list.claimRate.mul(_list.allocation) <= 10 * 10**6 * one, \"Must not list over 10m\");\n        iBASE(BASE).listAsset(_list.asset, _list.claimRate, _list.allocation);\n        completeProposal(_proposalID);\n    }\n    function delistAsset(uint _proposalID) internal {\n        address _proposedAddress = mapPID_address[_proposalID];\n        require(_proposedAddress != address(0), \"No address proposed\");\n        iBASE(BASE).delistAsset(_proposedAddress);\n        completeProposal(_proposalID);\n    }\n    function changeCurve(uint _proposalID) internal {\n        uint _proposedParam = mapPID_param[_proposalID];\n        require(_proposedParam != 0, \"No param proposed\");\n        iBASE(BASE).changeEmissionCurve(_proposedParam);\n        completeProposal(_proposalID);\n    }\n    function changeDuration(uint _proposalID) internal {\n        uint _proposedParam = mapPID_param[_proposalID];\n        require(_proposedParam != 0, \"No param proposed\");\n        iBASE(BASE).changeEraDuration(_proposedParam);\n        secondsPerEra = iBASE(BASE).secondsPerEra();\n        completeProposal(_proposalID);\n    }\n    function startEmissions(uint _proposalID) internal {\n        iBASE(BASE).startEmissions();\n        completeProposal(_proposalID);\n    }\n    function stopEmissions(uint _proposalID) internal {\n        iBASE(BASE).stopEmissions();\n        completeProposal(_proposalID);\n    }\n\n    function changeCooloff(uint _proposalID) internal {\n        uint _proposedParam = mapPID_param[_proposalID];\n        require(_proposedParam != 0, \"No param proposed\");\n        coolOffPeriod = _proposedParam;\n        completeProposal(_proposalID);\n    }\n    function changeEras(uint _proposalID) internal {\n        uint _proposedParam = mapPID_param[_proposalID];\n        require(_proposedParam != 0, \"No param proposed\");\n        erasToEarn = _proposedParam;\n        completeProposal(_proposalID);\n    }\n    function grantFunds(uint _proposalID) internal {\n        GrantDetails memory _grant = mapPID_grant[_proposalID];\n        require(_grant.amount <= iBEP20(BASE).balanceOf(address(this)), \"Not more than balance\");\n        completeProposal(_proposalID);\n        iBEP20(BASE).transfer(_grant.recipient, _grant.amount);\n    }\n\n    function completeProposal(uint _proposalID) internal {\n        string memory _typeStr = mapPID_type[_proposalID];\n        emit FinalisedProposal(msg.sender, _proposalID, mapPID_votes[_proposalID], totalWeight, _typeStr);\n        mapPID_votes[_proposalID] = 0;\n        mapPID_finalised[_proposalID] = true;\n        mapPID_finalising[_proposalID] = false;\n    }\n    \n\n    //============================== CONSENSUS ================================//\n\n    function countVotes(uint _proposalID) internal returns (uint voteWeight){\n        mapPID_votes[_proposalID] = mapPID_votes[_proposalID].sub(mapPIDMember_votes[_proposalID][msg.sender]);\n        voteWeight = mapMember_weight[msg.sender];\n        mapPID_votes[_proposalID] += voteWeight;\n        mapPIDMember_votes[_proposalID][msg.sender] = voteWeight;\n        return voteWeight;\n    }\n\n    function hasMajority(uint _proposalID) public view returns(bool){\n        uint votes = mapPID_votes[_proposalID];\n        uint consensus = totalWeight.div(2); // >50%\n        if(votes > consensus){\n            return true;\n        } else {\n            return false;\n        }\n    }\n    function hasQuorum(uint _proposalID) public view returns(bool){\n        uint votes = mapPID_votes[_proposalID];\n        uint consensus = totalWeight.div(3); // >33%\n        if(votes > consensus){\n            return true;\n        } else {\n            return false;\n        }\n    }\n    function hasMinority(uint _proposalID) public view returns(bool){\n        uint votes = mapPID_votes[_proposalID];\n        uint consensus = totalWeight.div(6); // >16%\n        if(votes > consensus){\n            return true;\n        } else {\n            return false;\n        }\n    }\n\n    //============================== ROUTER && UTILS ================================//\n\n    function ROUTER() public view returns(iROUTER){\n        if(daoHasMoved){\n            return Dao(DAO).ROUTER();\n        } else {\n            return _ROUTER;\n        }\n    }\n\n    function UTILS() public view returns(iUTILS){\n        if(daoHasMoved){\n            return Dao(DAO).UTILS();\n        } else {\n            return _UTILS;\n        }\n    }\n\n    //============================== HELPERS ================================//\n\n    function memberCount() public view returns(uint){\n        return arrayMembers.length;\n    }\n\n    function getMemberDetails(address member) public view returns (MemberDetails memory memberDetails){\n        memberDetails.isMember = isMember[member];\n        memberDetails.weight = mapMember_weight[member];\n        memberDetails.lastBlock = mapMember_lastTime[member];\n        memberDetails.poolCount = mapMember_poolArray[member].length;\n        return memberDetails;\n    }\n    function getProposalDetails(uint proposalID) public view returns (ProposalDetails memory proposalDetails){\n        proposalDetails.id = proposalID;\n        proposalDetails.proposalType = mapPID_type[proposalID];\n        proposalDetails.votes = mapPID_votes[proposalID];\n        proposalDetails.timeStart = mapPID_timeStart[proposalID];\n        proposalDetails.finalising = mapPID_finalising[proposalID];\n        proposalDetails.finalised = mapPID_finalised[proposalID];\n        proposalDetails.param = mapPID_param[proposalID];\n        proposalDetails.proposedAddress = mapPID_address[proposalID];\n        proposalDetails.list = mapPID_list[proposalID];\n        return proposalDetails;\n    }\n\n    function isEqual(bytes memory part1, bytes memory part2) public pure returns(bool){\n        if(sha256(part1) == sha256(part2)){\n            return true;\n        } else {\n            return false;\n        }\n    }\n\n}\n\n\n   ",
  "sourcePath": "/Users/guzziplus/spartanswap-contracts/contracts/Dao.sol",
  "compiler": {
    "name": "solc",
    "version": "0.6.8+commit.0bbfe453.Emscripten.clang"
  },
  "schemaVersion": "3.3.1",
  "updatedAt": "2020-11-06T00:41:33.799Z",
  "devdoc": {
    "methods": {}
  },
  "userdoc": {
    "methods": {}
  }
}