{
  "contractName": "Lock",
  "abi": [
    {
      "inputs": [
        {
          "internalType": "address",
          "name": "_base",
          "type": "address"
        },
        {
          "internalType": "address",
          "name": "_router",
          "type": "address"
        }
      ],
      "stateMutability": "nonpayable",
      "type": "constructor"
    },
    {
      "anonymous": false,
      "inputs": [
        {
          "indexed": true,
          "internalType": "address",
          "name": "owner",
          "type": "address"
        },
        {
          "indexed": true,
          "internalType": "address",
          "name": "spender",
          "type": "address"
        },
        {
          "indexed": false,
          "internalType": "uint256",
          "name": "value",
          "type": "uint256"
        }
      ],
      "name": "Approval",
      "type": "event"
    },
    {
      "anonymous": false,
      "inputs": [
        {
          "indexed": true,
          "internalType": "address",
          "name": "from",
          "type": "address"
        },
        {
          "indexed": true,
          "internalType": "address",
          "name": "to",
          "type": "address"
        },
        {
          "indexed": false,
          "internalType": "uint256",
          "name": "value",
          "type": "uint256"
        }
      ],
      "name": "Transfer",
      "type": "event"
    },
    {
      "inputs": [],
      "name": "BASE",
      "outputs": [
        {
          "internalType": "address",
          "name": "",
          "type": "address"
        }
      ],
      "stateMutability": "view",
      "type": "function"
    },
    {
      "inputs": [],
      "name": "ROUTER",
      "outputs": [
        {
          "internalType": "address",
          "name": "",
          "type": "address"
        }
      ],
      "stateMutability": "view",
      "type": "function"
    },
    {
      "inputs": [],
      "name": "decimals",
      "outputs": [
        {
          "internalType": "uint256",
          "name": "",
          "type": "uint256"
        }
      ],
      "stateMutability": "view",
      "type": "function"
    },
    {
      "inputs": [
        {
          "internalType": "address",
          "name": "",
          "type": "address"
        }
      ],
      "name": "mapAddress_LockedLP",
      "outputs": [
        {
          "internalType": "uint256",
          "name": "lockedLP",
          "type": "uint256"
        },
        {
          "internalType": "uint256",
          "name": "claimRate",
          "type": "uint256"
        },
        {
          "internalType": "uint256",
          "name": "secondsSinceLastClaim",
          "type": "uint256"
        }
      ],
      "stateMutability": "view",
      "type": "function"
    },
    {
      "inputs": [],
      "name": "name",
      "outputs": [
        {
          "internalType": "string",
          "name": "",
          "type": "string"
        }
      ],
      "stateMutability": "view",
      "type": "function"
    },
    {
      "inputs": [],
      "name": "symbol",
      "outputs": [
        {
          "internalType": "string",
          "name": "",
          "type": "string"
        }
      ],
      "stateMutability": "view",
      "type": "function"
    },
    {
      "inputs": [],
      "name": "totalSupply",
      "outputs": [
        {
          "internalType": "uint256",
          "name": "",
          "type": "uint256"
        }
      ],
      "stateMutability": "view",
      "type": "function"
    },
    {
      "inputs": [
        {
          "internalType": "address",
          "name": "account",
          "type": "address"
        }
      ],
      "name": "balanceOf",
      "outputs": [
        {
          "internalType": "uint256",
          "name": "",
          "type": "uint256"
        }
      ],
      "stateMutability": "view",
      "type": "function"
    },
    {
      "inputs": [
        {
          "internalType": "address",
          "name": "owner",
          "type": "address"
        },
        {
          "internalType": "address",
          "name": "spender",
          "type": "address"
        }
      ],
      "name": "allowance",
      "outputs": [
        {
          "internalType": "uint256",
          "name": "",
          "type": "uint256"
        }
      ],
      "stateMutability": "view",
      "type": "function"
    },
    {
      "inputs": [
        {
          "internalType": "address",
          "name": "recipient",
          "type": "address"
        },
        {
          "internalType": "uint256",
          "name": "amount",
          "type": "uint256"
        }
      ],
      "name": "transfer",
      "outputs": [
        {
          "internalType": "bool",
          "name": "",
          "type": "bool"
        }
      ],
      "stateMutability": "nonpayable",
      "type": "function"
    },
    {
      "inputs": [
        {
          "internalType": "address",
          "name": "spender",
          "type": "address"
        },
        {
          "internalType": "uint256",
          "name": "amount",
          "type": "uint256"
        }
      ],
      "name": "approve",
      "outputs": [
        {
          "internalType": "bool",
          "name": "",
          "type": "bool"
        }
      ],
      "stateMutability": "nonpayable",
      "type": "function"
    },
    {
      "inputs": [
        {
          "internalType": "address",
          "name": "spender",
          "type": "address"
        },
        {
          "internalType": "uint256",
          "name": "addedValue",
          "type": "uint256"
        }
      ],
      "name": "increaseAllowance",
      "outputs": [
        {
          "internalType": "bool",
          "name": "",
          "type": "bool"
        }
      ],
      "stateMutability": "nonpayable",
      "type": "function"
    },
    {
      "inputs": [
        {
          "internalType": "address",
          "name": "spender",
          "type": "address"
        },
        {
          "internalType": "uint256",
          "name": "subtractedValue",
          "type": "uint256"
        }
      ],
      "name": "decreaseAllowance",
      "outputs": [
        {
          "internalType": "bool",
          "name": "",
          "type": "bool"
        }
      ],
      "stateMutability": "nonpayable",
      "type": "function"
    },
    {
      "inputs": [
        {
          "internalType": "address",
          "name": "sender",
          "type": "address"
        },
        {
          "internalType": "address",
          "name": "recipient",
          "type": "address"
        },
        {
          "internalType": "uint256",
          "name": "amount",
          "type": "uint256"
        }
      ],
      "name": "transferFrom",
      "outputs": [
        {
          "internalType": "bool",
          "name": "",
          "type": "bool"
        }
      ],
      "stateMutability": "nonpayable",
      "type": "function"
    },
    {
      "inputs": [
        {
          "internalType": "address",
          "name": "recipient",
          "type": "address"
        },
        {
          "internalType": "uint256",
          "name": "amount",
          "type": "uint256"
        }
      ],
      "name": "transferTo",
      "outputs": [
        {
          "internalType": "bool",
          "name": "",
          "type": "bool"
        }
      ],
      "stateMutability": "nonpayable",
      "type": "function"
    },
    {
      "inputs": [],
      "name": "burn",
      "outputs": [
        {
          "internalType": "bool",
          "name": "success",
          "type": "bool"
        }
      ],
      "stateMutability": "nonpayable",
      "type": "function"
    },
    {
      "inputs": [
        {
          "internalType": "address",
          "name": "asset",
          "type": "address"
        },
        {
          "internalType": "uint256",
          "name": "amount",
          "type": "uint256"
        }
      ],
      "name": "deposit",
      "outputs": [
        {
          "internalType": "bool",
          "name": "success",
          "type": "bool"
        }
      ],
      "stateMutability": "payable",
      "type": "function"
    },
    {
      "inputs": [
        {
          "internalType": "address",
          "name": "asset",
          "type": "address"
        }
      ],
      "name": "claim",
      "outputs": [],
      "stateMutability": "nonpayable",
      "type": "function"
    },
    {
      "inputs": [
        {
          "internalType": "address",
          "name": "member",
          "type": "address"
        }
      ],
      "name": "calcClaimableLockedLP",
      "outputs": [
        {
          "internalType": "uint256",
          "name": "claimAmount",
          "type": "uint256"
        }
      ],
      "stateMutability": "view",
      "type": "function"
    }
  ],
  "bytecode": "0x60806040523480156200001157600080fd5b506040516200190c3803806200190c8339810160408190526200003491620001d3565b600780546001600160a01b038085166001600160a01b031992831617909255600880549284169290911691909117905560408051808201909152600a808252693637b1b596ba37b5b2b760b11b602090920191825262000097916000916200012e565b5060408051808201909152600480825263262a25a760e11b6020909201918252620000c5916001916200012e565b506012600255670de0b6b3a764000060038190553060008181526004602052604080822084905551919290917fddf252ad1be2c89b69c2b068fc378daa952ba7f163c4a11628f55a4df523b3ef916200011e9162000211565b60405180910390a3505062000233565b828054600181600116156101000203166002900490600052602060002090601f016020900481019282601f106200017157805160ff1916838001178555620001a1565b82800160010185558215620001a1579182015b82811115620001a157825182559160200191906001019062000184565b50620001af929150620001b3565b5090565b620001d091905b80821115620001af5760008155600101620001ba565b90565b60008060408385031215620001e6578182fd5b8251620001f3816200021a565b602084015190925062000206816200021a565b809150509250929050565b90815260200190565b6001600160a01b03811681146200023057600080fd5b50565b6116c980620002436000396000f3fe6080604052600436106101145760003560e01c806339509351116100a057806395d89b411161006457806395d89b41146102e3578063a457c2d7146102f8578063a9059cbb14610318578063dd62ed3e14610338578063ec342ad01461035857610114565b8063395093511461025b5780634313a21e1461027b57806344df8e701461029b57806347e7ef24146102b057806370a08231146102c357610114565b80631e83409a116100e75780631e83409a146101c257806323b872dd146101e45780632ccb1b3014610204578063313ce5671461022457806332fe7b261461023957610114565b806306fdde0314610119578063095ea7b31461014457806318160ddd1461017157806319d9a21e14610193575b600080fd5b34801561012557600080fd5b5061012e61036d565b60405161013b91906113ae565b60405180910390f35b34801561015057600080fd5b5061016461015f3660046112ef565b6103fb565b60405161013b91906113a3565b34801561017d57600080fd5b50610186610412565b60405161013b91906115ee565b34801561019f57600080fd5b506101b36101ae36600461123f565b610418565b60405161013b93929190611616565b3480156101ce57600080fd5b506101e26101dd36600461123f565b610439565b005b3480156101f057600080fd5b506101646101ff3660046112af565b610661565b34801561021057600080fd5b5061016461021f3660046112ef565b6106d0565b34801561023057600080fd5b506101866106dd565b34801561024557600080fd5b5061024e6106e3565b60405161013b9190611352565b34801561026757600080fd5b506101646102763660046112ef565b6106f2565b34801561028757600080fd5b5061018661029636600461123f565b61072e565b3480156102a757600080fd5b506101646107c2565b6101646102be3660046112ef565b610863565b3480156102cf57600080fd5b506101866102de36600461123f565b610dda565b3480156102ef57600080fd5b5061012e610df5565b34801561030457600080fd5b506101646103133660046112ef565b610e4f565b34801561032457600080fd5b506101646103333660046112ef565b610ea4565b34801561034457600080fd5b50610186610353366004611277565b610eb1565b34801561036457600080fd5b5061024e610edc565b6000805460408051602060026001851615610100026000190190941693909304601f810184900484028201840190925281815292918301828280156103f35780601f106103c8576101008083540402835291602001916103f3565b820191906000526020600020905b8154815290600101906020018083116103d657829003601f168201915b505050505081565b6000610408338484610eeb565b5060015b92915050565b60035481565b60066020526000908152604090208054600182015460029092015490919083565b3360009081526006602052604090205461046e5760405162461bcd60e51b8152600401610465906115c0565b60405180910390fd5b60006104793361072e565b90506000610485610f9f565b6001600160a01b0316637b0e5c456040518163ffffffff1660e01b815260040160206040518083038186803b1580156104bd57600080fd5b505afa1580156104d1573d6000803e3d6000fd5b505050506040513d601f19601f820116820180604052508101906104f5919061125b565b6001600160a01b031663bbe4f6db846040518263ffffffff1660e01b81526004016105209190611352565b60206040518083038186803b15801561053857600080fd5b505afa15801561054c573d6000803e3d6000fd5b505050506040513d601f19601f82011682018060405250810190610570919061125b565b336000908152600660205260409020549091508211156105a25760405162461bcd60e51b815260040161046590611429565b336000908152600660205260409020426002820155546105c8908363ffffffff61102116565b336000818152600660205260409081902092909255905163a9059cbb60e01b81526001600160a01b0383169163a9059cbb916106099190869060040161138a565b602060405180830381600087803b15801561062357600080fd5b505af1158015610637573d6000803e3d6000fd5b505050506040513d601f19601f8201168201806040525081019061065b919061131a565b50505050565b600061066e84848461106a565b6106c684336106c185604051806060016040528060298152602001611645602991396001600160a01b038a166000908152600560209081526040808320338452909152902054919063ffffffff61114016565b610eeb565b5060019392505050565b600061040832848461106a565b60025481565b6008546001600160a01b031681565b3360008181526005602090815260408083206001600160a01b038716845290915281205490916104089185906106c1908663ffffffff61116c16565b6001600160a01b038116600090815260066020526040812060020154819061075d90429063ffffffff61102116565b6001600160a01b0384166000908152600660205260409020600101549091506301e1338082106107a8575050506001600160a01b0381166000908152600660205260409020546107bd565b6107b8828263ffffffff61119116565b925050505b919050565b6007546003546000916107e09130916001600160a01b031690610eeb565b600754600354604051635569f64b60e11b81526001600160a01b039092169163aad3ec96916108149130919060040161138a565b600060405180830381600087803b15801561082e57600080fd5b505af1158015610842573d6000803e3d6000fd5b505060035461085a925090508063ffffffff61102116565b60035550600190565b60006001600160a01b03831661089357600034116108935760405162461bcd60e51b8152600401610465906114d3565b600082116108b35760405162461bcd60e51b815260040161046590611401565b60008060006108c0610f9f565b6001600160a01b0316637b0e5c456040518163ffffffff1660e01b815260040160206040518083038186803b1580156108f857600080fd5b505afa15801561090c573d6000803e3d6000fd5b505050506040513d601f19601f82011682018060405250810190610930919061125b565b6001600160a01b031663bbe4f6db876040518263ffffffff1660e01b815260040161095b9190611352565b60206040518083038186803b15801561097357600080fd5b505afa158015610987573d6000803e3d6000fd5b505050506040513d601f19601f820116820180604052508101906109ab919061125b565b90506109b5610f9f565b6001600160a01b0316637b0e5c456040518163ffffffff1660e01b815260040160206040518083038186803b1580156109ed57600080fd5b505afa158015610a01573d6000803e3d6000fd5b505050506040513d601f19601f82011682018060405250810190610a25919061125b565b6001600160a01b031663db39dc7987876040518363ffffffff1660e01b8152600401610a5292919061138a565b60206040518083038186803b158015610a6a57600080fd5b505afa158015610a7e573d6000803e3d6000fd5b505050506040513d601f19601f82011682018060405250810190610aa2919061133a565b6040516323b872dd60e01b81529093506001600160a01b038716906323b872dd90610ad590339030908a90600401611366565b602060405180830381600087803b158015610aef57600080fd5b505af1158015610b03573d6000803e3d6000fd5b505050506040513d601f19601f82011682018060405250810190610b27919061131a565b5060085460405163095ea7b360e01b81526001600160a01b038881169263095ea7b392610b5c9290911690899060040161138a565b602060405180830381600087803b158015610b7657600080fd5b505af1158015610b8a573d6000803e3d6000fd5b505050506040513d601f19601f82011682018060405250810190610bae919061131a565b5060075460085460405163095ea7b360e01b81526001600160a01b039283169263095ea7b392610be592911690879060040161138a565b602060405180830381600087803b158015610bff57600080fd5b505af1158015610c13573d6000803e3d6000fd5b505050506040513d601f19601f82011682018060405250810190610c37919061131a565b506008546040516321ec87bf60e21b81526001600160a01b03909116906387b21efc90610c6c90869089908b906004016115f7565b602060405180830381600087803b158015610c8657600080fd5b505af1158015610c9a573d6000803e3d6000fd5b505050506040513d601f19601f82011682018060405250810190610cbe919061133a565b91506000610ce6612710610cda8561138863ffffffff61119116565b9063ffffffff6111cb16565b33600090815260066020526040902054909150610d09908263ffffffff61116c16565b33600090815260066020526040902081815542600290910155610d36906301e1338063ffffffff6111cb16565b336000818152600660205260409081902060010192909255905163a9059cbb60e01b81526001600160a01b0384169163a9059cbb91610d7a9190859060040161138a565b602060405180830381600087803b158015610d9457600080fd5b505af1158015610da8573d6000803e3d6000fd5b505050506040513d601f19601f82011682018060405250810190610dcc919061131a565b506001979650505050505050565b6001600160a01b031660009081526004602052604090205490565b60018054604080516020600284861615610100026000190190941693909304601f810184900484028201840190925281815292918301828280156103f35780601f106103c8576101008083540402835291602001916103f3565b600061040833846106c18560405180606001604052806026815260200161166e602691393360009081526005602090815260408083206001600160a01b038d168452909152902054919063ffffffff61114016565b600061040833848461106a565b6001600160a01b03918216600090815260056020908152604080832093909416825291909152205490565b6007546001600160a01b031681565b6001600160a01b038316610f115760405162461bcd60e51b8152600401610465906114f4565b6001600160a01b038216610f375760405162461bcd60e51b815260040161046590611490565b6001600160a01b0380841660008181526005602090815260408083209487168084529490915290819020849055517f8c5be1e5ebec7d5bd14f71427d1e84f3dd0314c0f7b2291e5b200ac8c7c3b92590610f929085906115ee565b60405180910390a3505050565b60075460408051634c7d5e9d60e11b815290516000926001600160a01b0316916398fabd3a916004808301926020929190829003018186803b158015610fe457600080fd5b505afa158015610ff8573d6000803e3d6000fd5b505050506040513d601f19601f8201168201806040525081019061101c919061125b565b905090565b600061106383836040518060400160405280601e81526020017f536166654d6174683a207375627472616374696f6e206f766572666c6f770000815250611140565b9392505050565b6001600160a01b0383166110905760405162461bcd60e51b81526004016104659061157a565b6001600160a01b0383166000908152600460205260409020546110b9908263ffffffff61102116565b6001600160a01b0380851660009081526004602052604080822093909355908416815220546110ee908263ffffffff61116c16565b6001600160a01b0380841660008181526004602052604090819020939093559151908516907fddf252ad1be2c89b69c2b068fc378daa952ba7f163c4a11628f55a4df523b3ef90610f929085906115ee565b600081848411156111645760405162461bcd60e51b815260040161046591906113ae565b505050900390565b6000828201838110156110635760405162461bcd60e51b815260040161046590611459565b6000826111a05750600061040c565b828202828482816111ad57fe5b04146110635760405162461bcd60e51b815260040161046590611539565b600061106383836040518060400160405280601a81526020017f536166654d6174683a206469766973696f6e206279207a65726f000000000000815250600081836112295760405162461bcd60e51b815260040161046591906113ae565b50600083858161123557fe5b0495945050505050565b600060208284031215611250578081fd5b81356110638161162c565b60006020828403121561126c578081fd5b81516110638161162c565b60008060408385031215611289578081fd5b82356112948161162c565b915060208301356112a48161162c565b809150509250929050565b6000806000606084860312156112c3578081fd5b83356112ce8161162c565b925060208401356112de8161162c565b929592945050506040919091013590565b60008060408385031215611301578182fd5b823561130c8161162c565b946020939093013593505050565b60006020828403121561132b578081fd5b81518015158114611063578182fd5b60006020828403121561134b578081fd5b5051919050565b6001600160a01b0391909116815260200190565b6001600160a01b039384168152919092166020820152604081019190915260600190565b6001600160a01b03929092168252602082015260400190565b901515815260200190565b6000602080835283518082850152825b818110156113da578581018301518582016040015282016113be565b818111156113eb5783604083870101525b50601f01601f1916929092016040019392505050565b6020808252600e908201526d1b5d5cdd0819d95d08185cdcd95d60921b604082015260600190565b602080825260169082015275617474656d7074656420746f206f766572636c61696d60501b604082015260600190565b6020808252601b908201527f536166654d6174683a206164646974696f6e206f766572666c6f770000000000604082015260600190565b60208082526023908201527f6942455032303a20617070726f766520746f20746865207a65726f206164647260408201526265737360e81b606082015260800190565b60208082526007908201526633b2ba1031373160c91b604082015260600190565b60208082526025908201527f6942455032303a20617070726f76652066726f6d20746865207a65726f206164604082015264647265737360d81b606082015260800190565b60208082526021908201527f536166654d6174683a206d756c7469706c69636174696f6e206f766572666c6f6040820152607760f81b606082015260800190565b60208082526026908201527f6942455032303a207472616e736665722066726f6d20746865207a65726f206160408201526564647265737360d01b606082015260800190565b6020808252601490820152736d7573742068617665206c6f636b6564206c707360601b604082015260600190565b90815260200190565b92835260208301919091526001600160a01b0316604082015260600190565b9283526020830191909152604082015260600190565b6001600160a01b038116811461164157600080fd5b5056fe6942455032303a207472616e7366657220616d6f756e74206578636565647320616c6c6f77616e63656942455032303a2064656372656173656420616c6c6f77616e63652062656c6f77207a65726fa2646970667358221220fe12cf9af9b19b70df0316387f8f7b572e2f8d039400dd6aca16238f3bb0a9e264736f6c63430006080033",
  "immutableReferences": {},
  "source": "pragma solidity 0.6.8;\npragma experimental ABIEncoderV2;\nimport \"@nomiclabs/buidler/console.sol\";\n//iBEP20 Interface\ninterface iBEP20 {\n    function name() external view returns (string memory);\n    function symbol() external view returns (string memory);\n    function decimals() external view returns (uint);\n    function totalSupply() external view returns (uint);\n    function balanceOf(address account) external view returns (uint);\n    function transfer(address, uint) external returns (bool);\n    function allowance(address owner, address spender) external view returns (uint);\n    function approve(address, uint) external returns (bool);\n    function transferFrom(address, address, uint) external returns (bool);\n    event Transfer(address indexed from, address indexed to, uint value);\n    event Approval(address indexed owner, address indexed spender, uint value);\n}\ninterface iBASE {\n    function claim(address asset, uint256 amount) external payable;  \n    function DAO() external view returns (iDAO);\n}\ninterface iROUTER {\n    function addLiquidity(uint inputBase, uint inputToken, address token) external payable returns (uint units);\n}\ninterface iUTILS {\n    function calcValueInBaseWithPool(address pool, uint256 amount) external view returns (uint256 value);\n    function calcValueInBase(address token, uint256 amount) external view returns (uint256 value);\n    function getPool(address token)external view returns (address value);\n}\ninterface iDAO {\n    function ROUTER() external view returns(iROUTER);\n    function UTILS() external view returns(iUTILS);\n}\n\n\nlibrary SafeMath {\n    function add(uint256 a, uint256 b) internal pure returns (uint256) {\n        uint256 c = a + b;\n        require(c >= a, \"SafeMath: addition overflow\");\n        return c;\n    }\n    function sub(uint256 a, uint256 b) internal pure returns (uint256) {\n        return sub(a, b, \"SafeMath: subtraction overflow\");\n    }\n    function sub(uint256 a, uint256 b, string memory errorMessage) internal pure returns (uint256) {\n        require(b <= a, errorMessage);\n        uint256 c = a - b;\n        return c;\n    }\n    function div(uint256 a, uint256 b) internal pure returns (uint256) {\n        return div(a, b, \"SafeMath: division by zero\");\n    }\n    function div(uint256 a, uint256 b, string memory errorMessage) internal pure returns (uint256) {\n        require(b > 0, errorMessage);\n        uint256 c = a / b;\n        return c;\n    }\n    function mul(uint256 a, uint256 b) internal pure returns (uint256) {\n        if (a == 0) {\n            return 0;\n        }\n        uint256 c = a * b;\n        require(c / a == b, \"SafeMath: multiplication overflow\");\n        return c;\n    }\n}\n    //======================================SPARTA=========================================//\ncontract Lock is iBEP20 {\n    using SafeMath for uint256;\n\n    // ERC-20 Parameters\n    string public override name; string public override symbol;\n    uint256 public override decimals; uint256 public override totalSupply;  \n\n    // ERC-20 Mappings\n    mapping(address => uint256) private _balances;\n    mapping(address => mapping(address => uint256)) private _allowances;\n    mapping(address => LockedLP) public mapAddress_LockedLP;\n\n    struct LockedLP{\n        uint256 lockedLP;\n        uint256 claimRate;\n        uint256 secondsSinceLastClaim;\n    }\n  // Parameters\n    address public BASE;\n    address public ROUTER;\n\n    //=====================================CREATION=========================================//\n    // Constructor\n    constructor(address _base, address _router) public {\n         BASE = _base;\n        ROUTER = _router;\n        name = \"lock-token\";\n        symbol  = \"LTKN\";\n        decimals = 18;\n        totalSupply = 1 * (10 ** 18);\n        \n         _balances[address(this)] = totalSupply;\n        emit Transfer(address(0), address(this), totalSupply);\n\n    }\n    function _DAO() internal view returns(iDAO) {\n        return iBASE(BASE).DAO();\n    }\n    //========================================iBEP20=========================================//\n    function balanceOf(address account) public view override returns (uint256) {\n        return _balances[account];\n    }\n    function allowance(address owner, address spender) public view virtual override returns (uint256) {\n        return _allowances[owner][spender];\n    }\n    // iBEP20 Transfer function\n    function transfer(address recipient, uint256 amount) public virtual override returns (bool) {\n        _transfer(msg.sender, recipient, amount);\n        return true;\n    }\n    // iBEP20 Approve, change allowance functions\n    function approve(address spender, uint256 amount) public virtual override returns (bool) {\n        _approve(msg.sender, spender, amount);\n        return true;\n    }\n    function increaseAllowance(address spender, uint256 addedValue) public virtual returns (bool) {\n        _approve(msg.sender, spender, _allowances[msg.sender][spender].add(addedValue));\n        return true;\n    }\n    function decreaseAllowance(address spender, uint256 subtractedValue) public virtual returns (bool) {\n        _approve(msg.sender, spender, _allowances[msg.sender][spender].sub(subtractedValue, \"iBEP20: decreased allowance below zero\"));\n        return true;\n    }\n    function _approve(address owner, address spender, uint256 amount) internal virtual {\n        require(owner != address(0), \"iBEP20: approve from the zero address\");\n        require(spender != address(0), \"iBEP20: approve to the zero address\");\n        _allowances[owner][spender] = amount;\n        emit Approval(owner, spender, amount);\n    }\n    \n    // iBEP20 TransferFrom function\n    function transferFrom(address sender, address recipient, uint256 amount) public virtual override returns (bool) {\n        _transfer(sender, recipient, amount);\n        _approve(sender, msg.sender, _allowances[sender][msg.sender].sub(amount, \"iBEP20: transfer amount exceeds allowance\"));\n        return true;\n    }\n\n    // TransferTo function\n    function transferTo(address recipient, uint256 amount) public returns (bool) {\n        _transfer(tx.origin, recipient, amount);\n        return true;\n    }\n\n    // Internal transfer function\n    function _transfer(address sender, address recipient, uint256 amount) internal virtual {\n        require(sender != address(0), \"iBEP20: transfer from the zero address\");\n        _balances[sender] = _balances[sender].sub(amount);\n        _balances[recipient] = _balances[recipient].add(amount);\n        emit Transfer(sender, recipient, amount);\n    }\n\n    function burn() public returns (bool success){\n        _approve(address(this), BASE, totalSupply);\n        iBASE(BASE).claim(address(this), totalSupply);\n        totalSupply = totalSupply.sub(totalSupply);\n        return true;\n    }\n\n     function deposit(address asset, uint amount) public payable returns (bool success) {\n        if(asset == address(0)){\n            require(msg.value > 0, 'get bnb');\n        }\n        require(amount > 0, 'must get asset');\n        uint spartaAllocation; uint liquidityUnits; address _pool = _DAO().UTILS().getPool(asset);\n        spartaAllocation = _DAO().UTILS().calcValueInBase(asset, amount);\n        iBEP20(asset).transferFrom(msg.sender, address(this), amount);\n        iBEP20(asset).approve(ROUTER, amount); \n        iBEP20(BASE).approve(ROUTER, spartaAllocation); \n        liquidityUnits = iROUTER(ROUTER).addLiquidity(spartaAllocation, amount, asset);\n        uint lpAdjusted = liquidityUnits.mul(5000).div(10000);\n        mapAddress_LockedLP[msg.sender].lockedLP = mapAddress_LockedLP[msg.sender].lockedLP.add(lpAdjusted);\n        mapAddress_LockedLP[msg.sender].secondsSinceLastClaim = now;\n        mapAddress_LockedLP[msg.sender].claimRate = mapAddress_LockedLP[msg.sender].lockedLP.div(31536000);//12months 31536000\n        iBEP20(_pool).transfer(msg.sender, lpAdjusted);\n        return true;\n    }\n\n    //============================== CLAIM LP TOKENS ================================//\n\n    function claim(address asset) public {\n        require(mapAddress_LockedLP[msg.sender].lockedLP > 0, 'must have locked lps');\n        uint256 claimable = calcClaimableLockedLP(msg.sender); \n        address _pool = _DAO().UTILS().getPool(asset);\n        require(claimable <= mapAddress_LockedLP[msg.sender].lockedLP,'attempted to overclaim');\n        mapAddress_LockedLP[msg.sender].secondsSinceLastClaim = now;\n        mapAddress_LockedLP[msg.sender].lockedLP = mapAddress_LockedLP[msg.sender].lockedLP.sub(claimable);\n        iBEP20(_pool).transfer(msg.sender, claimable);\n    }\n\n    function calcClaimableLockedLP(address member) public view returns(uint256 claimAmount){\n        uint256 secondsSinceClaim = now.sub(mapAddress_LockedLP[member].secondsSinceLastClaim); // Get time since last claim\n        uint256 rate = mapAddress_LockedLP[member].claimRate;\n        if(secondsSinceClaim >= 31536000){\n            return mapAddress_LockedLP[member].lockedLP;\n        }\n        return secondsSinceClaim.mul(rate); \n    }\n}",
  "sourcePath": "/Users/guzziplus/spartanswap-contracts/contracts/Lock.sol",
  "compiler": {
    "name": "solc",
    "version": "0.6.8+commit.0bbfe453.Emscripten.clang"
  },
  "schemaVersion": "3.3.1",
  "updatedAt": "2020-11-06T00:41:33.941Z",
  "devdoc": {
    "methods": {}
  },
  "userdoc": {
    "methods": {}
  }
}