{
  "contractName": "Router",
  "abi": [
    {
      "inputs": [
        {
          "internalType": "address",
          "name": "_base",
          "type": "address"
        },
        {
          "internalType": "address",
          "name": "_wbnb",
          "type": "address"
        }
      ],
      "stateMutability": "payable",
      "type": "constructor"
    },
    {
      "anonymous": false,
      "inputs": [
        {
          "indexed": false,
          "internalType": "address",
          "name": "member",
          "type": "address"
        },
        {
          "indexed": false,
          "internalType": "uint256",
          "name": "inputBase",
          "type": "uint256"
        },
        {
          "indexed": false,
          "internalType": "uint256",
          "name": "inputToken",
          "type": "uint256"
        },
        {
          "indexed": false,
          "internalType": "uint256",
          "name": "unitsIssued",
          "type": "uint256"
        }
      ],
      "name": "AddLiquidity",
      "type": "event"
    },
    {
      "anonymous": false,
      "inputs": [
        {
          "indexed": false,
          "internalType": "address",
          "name": "token",
          "type": "address"
        },
        {
          "indexed": false,
          "internalType": "address",
          "name": "pool",
          "type": "address"
        },
        {
          "indexed": false,
          "internalType": "uint256",
          "name": "genesis",
          "type": "uint256"
        }
      ],
      "name": "NewPool",
      "type": "event"
    },
    {
      "anonymous": false,
      "inputs": [
        {
          "indexed": false,
          "internalType": "address",
          "name": "member",
          "type": "address"
        },
        {
          "indexed": false,
          "internalType": "uint256",
          "name": "outputBase",
          "type": "uint256"
        },
        {
          "indexed": false,
          "internalType": "uint256",
          "name": "outputToken",
          "type": "uint256"
        },
        {
          "indexed": false,
          "internalType": "uint256",
          "name": "unitsClaimed",
          "type": "uint256"
        }
      ],
      "name": "RemoveLiquidity",
      "type": "event"
    },
    {
      "anonymous": false,
      "inputs": [
        {
          "indexed": false,
          "internalType": "address",
          "name": "tokenFrom",
          "type": "address"
        },
        {
          "indexed": false,
          "internalType": "address",
          "name": "tokenTo",
          "type": "address"
        },
        {
          "indexed": false,
          "internalType": "uint256",
          "name": "inputAmount",
          "type": "uint256"
        },
        {
          "indexed": false,
          "internalType": "uint256",
          "name": "transferAmount",
          "type": "uint256"
        },
        {
          "indexed": false,
          "internalType": "uint256",
          "name": "outputAmount",
          "type": "uint256"
        },
        {
          "indexed": false,
          "internalType": "uint256",
          "name": "fee",
          "type": "uint256"
        },
        {
          "indexed": false,
          "internalType": "address",
          "name": "recipient",
          "type": "address"
        }
      ],
      "name": "Swapped",
      "type": "event"
    },
    {
      "inputs": [],
      "name": "BASE",
      "outputs": [
        {
          "internalType": "address",
          "name": "",
          "type": "address"
        }
      ],
      "stateMutability": "view",
      "type": "function"
    },
    {
      "inputs": [],
      "name": "DEPLOYER",
      "outputs": [
        {
          "internalType": "address",
          "name": "",
          "type": "address"
        }
      ],
      "stateMutability": "view",
      "type": "function"
    },
    {
      "inputs": [],
      "name": "WBNB",
      "outputs": [
        {
          "internalType": "address",
          "name": "",
          "type": "address"
        }
      ],
      "stateMutability": "view",
      "type": "function"
    },
    {
      "inputs": [],
      "name": "addLiquidityTx",
      "outputs": [
        {
          "internalType": "uint256",
          "name": "",
          "type": "uint256"
        }
      ],
      "stateMutability": "view",
      "type": "function"
    },
    {
      "inputs": [
        {
          "internalType": "uint256",
          "name": "",
          "type": "uint256"
        }
      ],
      "name": "arrayTokens",
      "outputs": [
        {
          "internalType": "address",
          "name": "",
          "type": "address"
        }
      ],
      "stateMutability": "view",
      "type": "function"
    },
    {
      "inputs": [
        {
          "internalType": "address",
          "name": "",
          "type": "address"
        }
      ],
      "name": "isPool",
      "outputs": [
        {
          "internalType": "bool",
          "name": "",
          "type": "bool"
        }
      ],
      "stateMutability": "view",
      "type": "function"
    },
    {
      "inputs": [],
      "name": "removeLiquidityTx",
      "outputs": [
        {
          "internalType": "uint256",
          "name": "",
          "type": "uint256"
        }
      ],
      "stateMutability": "view",
      "type": "function"
    },
    {
      "inputs": [],
      "name": "swapTx",
      "outputs": [
        {
          "internalType": "uint256",
          "name": "",
          "type": "uint256"
        }
      ],
      "stateMutability": "view",
      "type": "function"
    },
    {
      "inputs": [],
      "name": "totalFees",
      "outputs": [
        {
          "internalType": "uint256",
          "name": "",
          "type": "uint256"
        }
      ],
      "stateMutability": "view",
      "type": "function"
    },
    {
      "inputs": [],
      "name": "totalPooled",
      "outputs": [
        {
          "internalType": "uint256",
          "name": "",
          "type": "uint256"
        }
      ],
      "stateMutability": "view",
      "type": "function"
    },
    {
      "inputs": [],
      "name": "totalVolume",
      "outputs": [
        {
          "internalType": "uint256",
          "name": "",
          "type": "uint256"
        }
      ],
      "stateMutability": "view",
      "type": "function"
    },
    {
      "stateMutability": "payable",
      "type": "receive"
    },
    {
      "inputs": [
        {
          "internalType": "address payable",
          "name": "oldRouter",
          "type": "address"
        }
      ],
      "name": "migrateRouterData",
      "outputs": [],
      "stateMutability": "nonpayable",
      "type": "function"
    },
    {
      "inputs": [
        {
          "internalType": "address payable",
          "name": "oldRouter",
          "type": "address"
        }
      ],
      "name": "migrateTokenData",
      "outputs": [],
      "stateMutability": "nonpayable",
      "type": "function"
    },
    {
      "inputs": [],
      "name": "purgeDeployer",
      "outputs": [],
      "stateMutability": "nonpayable",
      "type": "function"
    },
    {
      "inputs": [
        {
          "internalType": "uint256",
          "name": "inputBase",
          "type": "uint256"
        },
        {
          "internalType": "uint256",
          "name": "inputToken",
          "type": "uint256"
        },
        {
          "internalType": "address",
          "name": "token",
          "type": "address"
        }
      ],
      "name": "createPool",
      "outputs": [
        {
          "internalType": "address",
          "name": "pool",
          "type": "address"
        }
      ],
      "stateMutability": "payable",
      "type": "function"
    },
    {
      "inputs": [
        {
          "internalType": "uint256",
          "name": "inputBase",
          "type": "uint256"
        },
        {
          "internalType": "uint256",
          "name": "inputToken",
          "type": "uint256"
        },
        {
          "internalType": "address",
          "name": "token",
          "type": "address"
        }
      ],
      "name": "addLiquidity",
      "outputs": [
        {
          "internalType": "uint256",
          "name": "units",
          "type": "uint256"
        }
      ],
      "stateMutability": "payable",
      "type": "function"
    },
    {
      "inputs": [
        {
          "internalType": "uint256",
          "name": "inputBase",
          "type": "uint256"
        },
        {
          "internalType": "uint256",
          "name": "inputToken",
          "type": "uint256"
        },
        {
          "internalType": "address",
          "name": "token",
          "type": "address"
        },
        {
          "internalType": "address",
          "name": "member",
          "type": "address"
        }
      ],
      "name": "addLiquidityForMember",
      "outputs": [
        {
          "internalType": "uint256",
          "name": "units",
          "type": "uint256"
        }
      ],
      "stateMutability": "payable",
      "type": "function"
    },
    {
      "inputs": [
        {
          "internalType": "uint256",
          "name": "basisPoints",
          "type": "uint256"
        },
        {
          "internalType": "address",
          "name": "token",
          "type": "address"
        }
      ],
      "name": "removeLiquidity",
      "outputs": [
        {
          "internalType": "uint256",
          "name": "outputBase",
          "type": "uint256"
        },
        {
          "internalType": "uint256",
          "name": "outputToken",
          "type": "uint256"
        }
      ],
      "stateMutability": "nonpayable",
      "type": "function"
    },
    {
      "inputs": [
        {
          "internalType": "uint256",
          "name": "units",
          "type": "uint256"
        },
        {
          "internalType": "address",
          "name": "token",
          "type": "address"
        }
      ],
      "name": "removeLiquidityExact",
      "outputs": [
        {
          "internalType": "uint256",
          "name": "outputBase",
          "type": "uint256"
        },
        {
          "internalType": "uint256",
          "name": "outputToken",
          "type": "uint256"
        }
      ],
      "stateMutability": "nonpayable",
      "type": "function"
    },
    {
      "inputs": [
        {
          "internalType": "uint256",
          "name": "basisPoints",
          "type": "uint256"
        },
        {
          "internalType": "bool",
          "name": "toBase",
          "type": "bool"
        },
        {
          "internalType": "address",
          "name": "token",
          "type": "address"
        }
      ],
      "name": "removeLiquidityAndSwap",
      "outputs": [
        {
          "internalType": "uint256",
          "name": "outputAmount",
          "type": "uint256"
        }
      ],
      "stateMutability": "nonpayable",
      "type": "function"
    },
    {
      "inputs": [
        {
          "internalType": "uint256",
          "name": "units",
          "type": "uint256"
        },
        {
          "internalType": "bool",
          "name": "toBase",
          "type": "bool"
        },
        {
          "internalType": "address",
          "name": "token",
          "type": "address"
        }
      ],
      "name": "removeLiquidityExactAndSwap",
      "outputs": [
        {
          "internalType": "uint256",
          "name": "outputAmount",
          "type": "uint256"
        }
      ],
      "stateMutability": "nonpayable",
      "type": "function"
    },
    {
      "inputs": [
        {
          "internalType": "uint256",
          "name": "amount",
          "type": "uint256"
        },
        {
          "internalType": "address",
          "name": "token",
          "type": "address"
        }
      ],
      "name": "buy",
      "outputs": [
        {
          "internalType": "uint256",
          "name": "outputAmount",
          "type": "uint256"
        },
        {
          "internalType": "uint256",
          "name": "fee",
          "type": "uint256"
        }
      ],
      "stateMutability": "nonpayable",
      "type": "function"
    },
    {
      "inputs": [
        {
          "internalType": "uint256",
          "name": "amount",
          "type": "uint256"
        },
        {
          "internalType": "address",
          "name": "token",
          "type": "address"
        },
        {
          "internalType": "address",
          "name": "member",
          "type": "address"
        }
      ],
      "name": "buyTo",
      "outputs": [
        {
          "internalType": "uint256",
          "name": "outputAmount",
          "type": "uint256"
        },
        {
          "internalType": "uint256",
          "name": "fee",
          "type": "uint256"
        }
      ],
      "stateMutability": "nonpayable",
      "type": "function"
    },
    {
      "inputs": [
        {
          "internalType": "uint256",
          "name": "amount",
          "type": "uint256"
        },
        {
          "internalType": "address",
          "name": "token",
          "type": "address"
        }
      ],
      "name": "sell",
      "outputs": [
        {
          "internalType": "uint256",
          "name": "outputAmount",
          "type": "uint256"
        },
        {
          "internalType": "uint256",
          "name": "fee",
          "type": "uint256"
        }
      ],
      "stateMutability": "payable",
      "type": "function"
    },
    {
      "inputs": [
        {
          "internalType": "uint256",
          "name": "amount",
          "type": "uint256"
        },
        {
          "internalType": "address",
          "name": "token",
          "type": "address"
        },
        {
          "internalType": "address",
          "name": "member",
          "type": "address"
        }
      ],
      "name": "sellTo",
      "outputs": [
        {
          "internalType": "uint256",
          "name": "outputAmount",
          "type": "uint256"
        },
        {
          "internalType": "uint256",
          "name": "fee",
          "type": "uint256"
        }
      ],
      "stateMutability": "payable",
      "type": "function"
    },
    {
      "inputs": [
        {
          "internalType": "uint256",
          "name": "inputAmount",
          "type": "uint256"
        },
        {
          "internalType": "address",
          "name": "fromToken",
          "type": "address"
        },
        {
          "internalType": "address",
          "name": "toToken",
          "type": "address"
        }
      ],
      "name": "swap",
      "outputs": [
        {
          "internalType": "uint256",
          "name": "outputAmount",
          "type": "uint256"
        },
        {
          "internalType": "uint256",
          "name": "fee",
          "type": "uint256"
        }
      ],
      "stateMutability": "payable",
      "type": "function"
    },
    {
      "inputs": [
        {
          "internalType": "uint256",
          "name": "inputAmount",
          "type": "uint256"
        },
        {
          "internalType": "address",
          "name": "fromToken",
          "type": "address"
        },
        {
          "internalType": "address",
          "name": "toToken",
          "type": "address"
        },
        {
          "internalType": "address",
          "name": "member",
          "type": "address"
        }
      ],
      "name": "swapTo",
      "outputs": [
        {
          "internalType": "uint256",
          "name": "outputAmount",
          "type": "uint256"
        },
        {
          "internalType": "uint256",
          "name": "fee",
          "type": "uint256"
        }
      ],
      "stateMutability": "payable",
      "type": "function"
    },
    {
      "inputs": [
        {
          "internalType": "address",
          "name": "token",
          "type": "address"
        }
      ],
      "name": "getPool",
      "outputs": [
        {
          "internalType": "address",
          "name": "pool",
          "type": "address"
        }
      ],
      "stateMutability": "view",
      "type": "function"
    },
    {
      "inputs": [],
      "name": "tokenCount",
      "outputs": [
        {
          "internalType": "uint256",
          "name": "",
          "type": "uint256"
        }
      ],
      "stateMutability": "view",
      "type": "function"
    },
    {
      "inputs": [
        {
          "internalType": "uint256",
          "name": "i",
          "type": "uint256"
        }
      ],
      "name": "getToken",
      "outputs": [
        {
          "internalType": "address",
          "name": "",
          "type": "address"
        }
      ],
      "stateMutability": "view",
      "type": "function"
    }
  ],
  "bytecode": "0x6080604052604051620051b6380380620051b6833981016040819052620000269162000068565b600080546001600160a01b039384166001600160a01b0319918216179091556001805492909316918116919091179091556002805490911633179055620000bf565b600080604083850312156200007b578182fd5b82516200008881620000a6565b60208401519092506200009b81620000a6565b809150509250929050565b6001600160a01b0381168114620000bc57600080fd5b50565b6150e780620000cf6000396000f3fe608060405260043610620001ff5760003560e01c806387b21efc116200010f578063bbe4f6db11620000a3578063e4b50cb8116200006d578063e4b50cb81462000532578063ec342ad01462000557578063ecf3ef92146200056f578063ff800fa814620005945762000207565b8063bbe4f6db14620004b8578063c1b8411a14620004dd578063c8c1fb7514620004f5578063d0497550146200051a5762000207565b80639f181b5e11620000e55780639f181b5e146200043f578063ab1485ec1462000457578063ab7228aa146200046e578063b385848714620004935762000207565b806387b21efc14620003f95780638dd95002146200041057806393cac68514620004285762000207565b80635b16ebb7116200019357806374944d62116200015d57806374944d6214620003805780637d5ae5a814620003985780637deb602514620003bd5780637fd8b9a214620003e25762000207565b80635b16ebb714620003055780635f81a57c146200033957806369ab0a8e14620003515780636ec21cc814620003685762000207565b80631798546111620001d557806317985461146200028b5780632b7f092314620002bf5780634189a68e14620002d65780634276845a14620002ed5762000207565b806303a82138146200020c57806305fe138b146200022657806313114a9d14620002645762000207565b366200020757005b600080fd5b3480156200021957600080fd5b5062000224620005b9565b005b3480156200023357600080fd5b506200024b62000245366004620027bb565b62000601565b6040516200025b92919062002b40565b60405180910390f35b3480156200027157600080fd5b506200027c620007de565b6040516200025b919062002b37565b3480156200029857600080fd5b50620002b0620002aa36600462002789565b620007e4565b6040516200025b91906200293d565b6200024b620002d0366004620027ed565b6200080c565b6200024b620002e7366004620027bb565b62000829565b348015620002fa57600080fd5b506200027c62000844565b3480156200031257600080fd5b506200032a620003243660046200272c565b6200084a565b6040516200025b9190620029e5565b3480156200034657600080fd5b506200027c6200085f565b6200024b62000362366004620027ed565b62000865565b3480156200037557600080fd5b506200027c62000980565b3480156200038d57600080fd5b506200027c62000986565b348015620003a557600080fd5b5062000224620003b73660046200272c565b6200098c565b348015620003ca57600080fd5b506200024b620003dc366004620027bb565b62000bd6565b620002b0620003f3366004620028d9565b62000be6565b6200027c6200040a366004620028d9565b62000e75565b3480156200041d57600080fd5b50620002b062000e8d565b6200027c6200043936600462002909565b62000e9c565b3480156200044c57600080fd5b506200027c62000f78565b6200024b6200046836600462002833565b62000f7e565b3480156200047b57600080fd5b506200027c6200048d3660046200288c565b62001360565b348015620004a057600080fd5b5062000224620004b23660046200272c565b620018d3565b348015620004c557600080fd5b50620002b0620004d73660046200272c565b62001be2565b348015620004ea57600080fd5b50620002b062001c3a565b3480156200050257600080fd5b506200024b62000514366004620027bb565b62001c49565b3480156200052757600080fd5b506200027c62001db0565b3480156200053f57600080fd5b50620002b06200055136600462002789565b62001db6565b3480156200056457600080fd5b50620002b062001de1565b3480156200057c57600080fd5b506200024b6200058e366004620027ed565b62001df0565b348015620005a157600080fd5b506200027c620005b33660046200288c565b62002032565b6002546001600160a01b03163314620005ef5760405162461bcd60e51b8152600401620005e69062002aec565b60405180910390fd5b600280546001600160a01b0319169055565b6000806000841180156200061757506127108411155b620006365760405162461bcd60e51b8152600401620005e69062002aca565b600062000642620021d9565b6001600160a01b0316637b0e5c456040518163ffffffff1660e01b815260040160206040518083038186803b1580156200067b57600080fd5b505afa15801562000690573d6000803e3d6000fd5b505050506040513d601f19601f82011682018060405250810190620006b691906200274b565b6001600160a01b031663714270ab86620006d08762001be2565b6001600160a01b03166370a08231336040518263ffffffff1660e01b8152600401620006fd91906200293d565b60206040518083038186803b1580156200071657600080fd5b505afa1580156200072b573d6000803e3d6000fd5b505050506040513d601f19601f82011682018060405250810190620007519190620027a2565b6040518363ffffffff1660e01b81526004016200077092919062002b40565b60206040518083038186803b1580156200078957600080fd5b505afa1580156200079e573d6000803e3d6000fd5b505050506040513d601f19601f82011682018060405250810190620007c49190620027a2565b9050620007d2818562001c49565b92509250509250929050565b60055481565b60098181548110620007f257fe5b6000918252602090912001546001600160a01b0316905081565b6000806200081d8585853362000f7e565b91509150935093915050565b6000806200083984843362000865565b915091509250929050565b60065481565b600b6020526000908152604090205460ff1681565b60045481565b6000805481906001600160a01b0385811691161415620008995760405162461bcd60e51b8152600401620005e69062002b11565b6000620008a68562001be2565b9050620008b585878362002269565b50600054604051632783e4a960e01b81526001600160a01b0383811692632783e4a992620008ec9290911690889060040162002975565b6040805180830381600087803b1580156200090657600080fd5b505af11580156200091b573d6000803e3d6000fd5b505050506040513d601f19601f82011682018060405250810190620009419190620028b5565b60035491945092506200095b908463ffffffff6200254216565b6003555060048054830190556005805482019055600880546001019055935093915050565b60035481565b60075481565b6002546001600160a01b03163314620009b95760405162461bcd60e51b8152600401620005e69062002aec565b6000816001600160a01b0316639f181b5e6040518163ffffffff1660e01b815260040160206040518083038186803b158015620009f557600080fd5b505afa15801562000a0a573d6000803e3d6000fd5b505050506040513d601f19601f8201168201806040525081019062000a309190620027a2565b905060005b8181101562000bd157604051631c96a19760e31b81526000906001600160a01b0385169063e4b50cb89062000a6f90859060040162002b37565b60206040518083038186803b15801562000a8857600080fd5b505afa15801562000a9d573d6000803e3d6000fd5b505050506040513d601f19601f8201168201806040525081019062000ac391906200274b565b90506000846001600160a01b031663bbe4f6db836040518263ffffffff1660e01b815260040162000af591906200293d565b60206040518083038186803b15801562000b0e57600080fd5b505afa15801562000b23573d6000803e3d6000fd5b505050506040513d601f19601f8201168201806040525081019062000b4991906200274b565b6001600160a01b039081166000818152600b60209081526040808320805460ff19166001908117909155600980548083019091557f6e1540171b6c0c960b71a7020d9f60077f6af931a8bbf590da0223dacf75c7af018054989096166001600160a01b03199889168117909655948352600a9091529020805490941617909255500162000a35565b505050565b6000806200083984843362001df0565b60008062000bf48362001be2565b6001600160a01b03161462000c1d5760405162461bcd60e51b8152600401620005e69062002a70565b6000546001600160a01b038381169116141562000c4e5760405162461bcd60e51b8152600401620005e69062002a46565b60008311801562000c5f5750600084115b62000c7e5760405162461bcd60e51b8152600401620005e69062002a93565b6000826001600160a01b03811662000c9e57506001546001600160a01b03165b6000546040516001600160a01b0390911690829062000cbd906200271e565b62000cca92919062002975565b604051809103906000f08015801562000ce7573d6000803e3d6000fd5b506001600160a01b038281166000908152600a6020526040812080546001600160a01b03191684841617905580549295508594509162000d2a9116888562002269565b905062000d3985878662002269565b506009805460018082019092557f6e1540171b6c0c960b71a7020d9f60077f6af931a8bbf590da0223dacf75c7af0180546001600160a01b0319166001600160a01b038581169190911790915585166000818152600b602052604090819020805460ff1916841790556003805485019055600780549093019092559051635514f58b60e01b8152635514f58b9062000dd69033906004016200293d565b602060405180830381600087803b15801562000df157600080fd5b505af115801562000e06573d6000803e3d6000fd5b505050506040513d601f19601f8201168201806040525081019062000e2c9190620027a2565b507f3e576c516aed7bfaa059edc1ec8f0628a6b75a37c777be146867372226f0bfdd85854260405162000e629392919062002951565b60405180910390a15050505b9392505050565b600062000e858484843362000e9c565b949350505050565b6001546001600160a01b031681565b60008062000eaa8462001be2565b600080549192509062000ec8906001600160a01b0316888462002269565b905062000ed785878462002269565b506003805482019055600780546001019055604051635514f58b60e01b81526001600160a01b03831690635514f58b9062000f179087906004016200293d565b602060405180830381600087803b15801562000f3257600080fd5b505af115801562000f47573d6000803e3d6000fd5b505050506040513d601f19601f8201168201806040525081019062000f6d9190620027a2565b979650505050505050565b60095490565b600080836001600160a01b0316856001600160a01b0316141562000fb65760405162461bcd60e51b8152600401620005e69062002b11565b600080546001600160a01b038781169116141562000fe65762000fdb87868662001df0565b909350915062001311565b6000546001600160a01b03868116911614156200100a5762000fdb87878662000865565b6000620010178662001be2565b9050600080620010298a8a8562000865565b600480548301905560058054820190559092509050876001600160a01b0381166200105c57506001546001600160a01b03165b600080856001600160a01b03166303438dd0846040518263ffffffff1660e01b81526004016200108d91906200293d565b6040805180830381600087803b158015620010a757600080fd5b505af1158015620010bc573d6000803e3d6000fd5b505050506040513d601f19601f82011682018060405250810190620010e29190620028b5565b91509150620010f38b838c62002571565b620010fd620021d9565b6001600160a01b0316637b0e5c456040518163ffffffff1660e01b815260040160206040518083038186803b1580156200113657600080fd5b505afa1580156200114b573d6000803e3d6000fd5b505050506040513d601f19601f820116820180604052508101906200117191906200274b565b6001600160a01b031663db39dc798c836040518363ffffffff1660e01b8152600401620011a0929190620029cc565b60206040518083038186803b158015620011b957600080fd5b505afa158015620011ce573d6000803e3d6000fd5b505050506040513d601f19601f82011682018060405250810190620011f49190620027a2565b6005805490910190559097509294508492879062001211620021d9565b6001600160a01b0316637b0e5c456040518163ffffffff1660e01b815260040160206040518083038186803b1580156200124a57600080fd5b505afa1580156200125f573d6000803e3d6000fd5b505050506040513d601f19601f820116820180604052508101906200128591906200274b565b6001600160a01b031663c0c4a7248c866040518363ffffffff1660e01b8152600401620012b4929190620029cc565b60206040518083038186803b158015620012cd57600080fd5b505afa158015620012e2573d6000803e3d6000fd5b505050506040513d601f19601f82011682018060405250810190620013089190620027a2565b01965050505050505b7f9231d8325e00e36dcd9b77484890cc00a0b5b0928605d0a4e6b7fbfeeac4c51b8686898487878a6040516200134e97969594939291906200298f565b60405180910390a15094509492505050565b6000806200136e8362001be2565b9050806001600160a01b03166318160ddd6040518163ffffffff1660e01b815260040160206040518083038186803b158015620013aa57600080fd5b505afa158015620013bf573d6000803e3d6000fd5b505050506040513d601f19601f82011682018060405250810190620013e59190620027a2565b8510620014065760405162461bcd60e51b8152600401620005e69062002aca565b6040516302ccb1b360e41b81526001600160a01b03821690632ccb1b3090620014369084908990600401620029cc565b602060405180830381600087803b1580156200145157600080fd5b505af115801562001466573d6000803e3d6000fd5b505050506040513d601f19601f820116820180604052508101906200148c91906200276a565b50600080826001600160a01b03166367b9a2866040518163ffffffff1660e01b81526004016040805180830381600087803b158015620014cb57600080fd5b505af1158015620014e0573d6000803e3d6000fd5b505050506040513d601f19601f82011682018060405250810190620015069190620028b5565b600354919350915062001520908363ffffffff6200254216565b6003556006805460010190558515620016835760405163a9059cbb60e01b81526001600160a01b0386169063a9059cbb90620015639086908590600401620029cc565b602060405180830381600087803b1580156200157e57600080fd5b505af115801562001593573d6000803e3d6000fd5b505050506040513d601f19601f82011682018060405250810190620015b991906200276a565b50600080846001600160a01b03166303438dd0886040518263ffffffff1660e01b8152600401620015eb91906200293d565b6040805180830381600087803b1580156200160557600080fd5b505af11580156200161a573d6000803e3d6000fd5b505050506040513d601f19601f82011682018060405250810190620016409190620028b5565b600580548201905590925090506200165f828563ffffffff620026df16565b6000549096506200167b906001600160a01b0316873362002571565b5050620018c9565b60005460405163a9059cbb60e01b81526001600160a01b039091169063a9059cbb90620016b79086908590600401620029cc565b602060405180830381600087803b158015620016d257600080fd5b505af1158015620016e7573d6000803e3d6000fd5b505050506040513d601f19601f820116820180604052508101906200170d91906200276a565b5060008054604051623438dd60e41b815282916001600160a01b03808816926303438dd092620017429216906004016200293d565b6040805180830381600087803b1580156200175c57600080fd5b505af115801562001771573d6000803e3d6000fd5b505050506040513d601f19601f82011682018060405250810190620017979190620028b5565b91509150620017a5620021d9565b6001600160a01b0316637b0e5c456040518163ffffffff1660e01b815260040160206040518083038186803b158015620017de57600080fd5b505afa158015620017f3573d6000803e3d6000fd5b505050506040513d601f19601f820116820180604052508101906200181991906200274b565b6001600160a01b031663db39dc7988836040518363ffffffff1660e01b815260040162001848929190620029cc565b60206040518083038186803b1580156200186157600080fd5b505afa15801562001876573d6000803e3d6000fd5b505050506040513d601f19601f820116820180604052508101906200189c9190620027a2565b600580549091019055620018b7828463ffffffff620026df16565b9550620018c687873362002571565b50505b5050509392505050565b6002546001600160a01b03163314620019005760405162461bcd60e51b8152600401620005e69062002aec565b806001600160a01b0316636ec21cc86040518163ffffffff1660e01b815260040160206040518083038186803b1580156200193a57600080fd5b505afa1580156200194f573d6000803e3d6000fd5b505050506040513d601f19601f82011682018060405250810190620019759190620027a2565b600381905550806001600160a01b0316635f81a57c6040518163ffffffff1660e01b815260040160206040518083038186803b158015620019b557600080fd5b505afa158015620019ca573d6000803e3d6000fd5b505050506040513d601f19601f82011682018060405250810190620019f09190620027a2565b600481905550806001600160a01b03166313114a9d6040518163ffffffff1660e01b815260040160206040518083038186803b15801562001a3057600080fd5b505afa15801562001a45573d6000803e3d6000fd5b505050506040513d601f19601f8201168201806040525081019062001a6b9190620027a2565b600581905550806001600160a01b0316634276845a6040518163ffffffff1660e01b815260040160206040518083038186803b15801562001aab57600080fd5b505afa15801562001ac0573d6000803e3d6000fd5b505050506040513d601f19601f8201168201806040525081019062001ae69190620027a2565b600681905550806001600160a01b03166374944d626040518163ffffffff1660e01b815260040160206040518083038186803b15801562001b2657600080fd5b505afa15801562001b3b573d6000803e3d6000fd5b505050506040513d601f19601f8201168201806040525081019062001b619190620027a2565b600781905550806001600160a01b031663d04975506040518163ffffffff1660e01b815260040160206040518083038186803b15801562001ba157600080fd5b505afa15801562001bb6573d6000803e3d6000fd5b505050506040513d601f19601f8201168201806040525081019062001bdc9190620027a2565b60085550565b60006001600160a01b03821662001c1857506001546001600160a01b039081166000908152600a60205260409020541662001c35565b506001600160a01b038082166000908152600a6020526040902054165b919050565b6002546001600160a01b031681565b600080600062001c598462001be2565b6040516302ccb1b360e41b815290915033906001600160a01b03831690632ccb1b309062001c8e9085908a90600401620029cc565b602060405180830381600087803b15801562001ca957600080fd5b505af115801562001cbe573d6000803e3d6000fd5b505050506040513d601f19601f8201168201806040525081019062001ce491906200276a565b50816001600160a01b03166367b9a2866040518163ffffffff1660e01b81526004016040805180830381600087803b15801562001d2057600080fd5b505af115801562001d35573d6000803e3d6000fd5b505050506040513d601f19601f8201168201806040525081019062001d5b9190620028b5565b909450925062001d6d85848362002571565b60005462001d86906001600160a01b0316858362002571565b60035462001d9b908563ffffffff6200254216565b60035550506006805460010190559250929050565b60085481565b60006009828154811062001dc657fe5b6000918252602090912001546001600160a01b031692915050565b6000546001600160a01b031681565b6000805481906001600160a01b038581169116141562001e245760405162461bcd60e51b8152600401620005e69062002b11565b836001600160a01b03811662001e4257506001546001600160a01b03165b600062001e4f8662001be2565b600080549192509062001e6d906001600160a01b0316898462002269565b604051623438dd60e41b81529091506001600160a01b038316906303438dd09062001e9d9086906004016200293d565b6040805180830381600087803b15801562001eb757600080fd5b505af115801562001ecc573d6000803e3d6000fd5b505050506040513d601f19601f8201168201806040525081019062001ef29190620028b5565b909550935062001f0487868862002571565b6003805482019055600480548201905562001f1e620021d9565b6001600160a01b0316637b0e5c456040518163ffffffff1660e01b815260040160206040518083038186803b15801562001f5757600080fd5b505afa15801562001f6c573d6000803e3d6000fd5b505050506040513d601f19601f8201168201806040525081019062001f9291906200274b565b6001600160a01b031663db39dc7988866040518363ffffffff1660e01b815260040162001fc1929190620029cc565b60206040518083038186803b15801562001fda57600080fd5b505afa15801562001fef573d6000803e3d6000fd5b505050506040513d601f19601f82011682018060405250810190620020159190620027a2565b600580549091019055505060088054600101905550935093915050565b6000806200203f620021d9565b6001600160a01b0316637b0e5c456040518163ffffffff1660e01b815260040160206040518083038186803b1580156200207857600080fd5b505afa1580156200208d573d6000803e3d6000fd5b505050506040513d601f19601f82011682018060405250810190620020b391906200274b565b6001600160a01b031663714270ab86620020cd8662001be2565b6001600160a01b03166370a08231336040518263ffffffff1660e01b8152600401620020fa91906200293d565b60206040518083038186803b1580156200211357600080fd5b505afa15801562002128573d6000803e3d6000fd5b505050506040513d601f19601f820116820180604052508101906200214e9190620027a2565b6040518363ffffffff1660e01b81526004016200216d92919062002b40565b60206040518083038186803b1580156200218657600080fd5b505afa1580156200219b573d6000803e3d6000fd5b505050506040513d601f19601f82011682018060405250810190620021c19190620027a2565b9050620021d081858562001360565b95945050505050565b60008060009054906101000a90046001600160a01b03166001600160a01b03166398fabd3a6040518163ffffffff1660e01b815260040160206040518083038186803b1580156200222957600080fd5b505afa1580156200223e573d6000803e3d6000fd5b505050506040513d601f19601f820116820180604052508101906200226491906200274b565b905090565b6000821562000e6e576001600160a01b0384166200239d57348314620022a35760405162461bcd60e51b8152600401620005e69062002aca565b6001546040516001600160a01b03909116908490620022c2906200293a565b60006040518083038185875af1925050503d806000811462002301576040519150601f19603f3d011682016040523d82523d6000602084013e62002306565b606091505b505060015460405163a9059cbb60e01b81526001600160a01b03909116915063a9059cbb906200233d9085908790600401620029cc565b602060405180830381600087803b1580156200235857600080fd5b505af11580156200236d573d6000803e3d6000fd5b505050506040513d601f19601f820116820180604052508101906200239391906200276a565b5082905062000e6e565b6040516370a0823160e01b81526000906001600160a01b038616906370a0823190620023ce9086906004016200293d565b60206040518083038186803b158015620023e757600080fd5b505afa158015620023fc573d6000803e3d6000fd5b505050506040513d601f19601f82011682018060405250810190620024229190620027a2565b6040516323b872dd60e01b81529091506001600160a01b038616906323b872dd90620024579033908790899060040162002951565b602060405180830381600087803b1580156200247257600080fd5b505af115801562002487573d6000803e3d6000fd5b505050506040513d601f19601f82011682018060405250810190620024ad91906200276a565b50620021d081866001600160a01b03166370a08231866040518263ffffffff1660e01b8152600401620024e191906200293d565b60206040518083038186803b158015620024fa57600080fd5b505afa1580156200250f573d6000803e3d6000fd5b505050506040513d601f19601f82011682018060405250810190620025359190620027a2565b9063ffffffff6200254216565b600062000e6e8383604051806040016040528060088152602001670a6c2ccca9ac2e8d60c31b815250620026ef565b811562000bd1576001600160a01b0383166200265357600154604051632e1a7d4d60e01b81526001600160a01b0390911690632e1a7d4d90620025b990859060040162002b37565b600060405180830381600087803b158015620025d457600080fd5b505af1158015620025e9573d6000803e3d6000fd5b50505050806001600160a01b03168260405162002606906200293a565b60006040518083038185875af1925050503d806000811462002645576040519150601f19603f3d011682016040523d82523d6000602084013e6200264a565b606091505b50505062000bd1565b60405163a9059cbb60e01b81526001600160a01b0384169063a9059cbb90620026839084908690600401620029cc565b602060405180830381600087803b1580156200269e57600080fd5b505af1158015620026b3573d6000803e3d6000fd5b505050506040513d601f19601f82011682018060405250810190620026d991906200276a565b50505050565b60008282018381101562000e6e57fe5b60008184841115620027165760405162461bcd60e51b8152600401620005e69190620029f0565b505050900390565b61253b8062002b7783390190565b6000602082840312156200273e578081fd5b813562000e6e8162002b4e565b6000602082840312156200275d578081fd5b815162000e6e8162002b4e565b6000602082840312156200277c578081fd5b815162000e6e8162002b67565b6000602082840312156200279b578081fd5b5035919050565b600060208284031215620027b4578081fd5b5051919050565b60008060408385031215620027ce578081fd5b823591506020830135620027e28162002b4e565b809150509250929050565b60008060006060848603121562002802578081fd5b833592506020840135620028168162002b4e565b91506040840135620028288162002b4e565b809150509250925092565b6000806000806080858703121562002849578081fd5b8435935060208501356200285d8162002b4e565b925060408501356200286f8162002b4e565b91506060850135620028818162002b4e565b939692955090935050565b600080600060608486031215620028a1578283fd5b833592506020840135620028168162002b67565b60008060408385031215620028c8578182fd5b505080516020909101519092909150565b600080600060608486031215620028ee578283fd5b83359250602084013591506040840135620028288162002b4e565b600080600080608085870312156200291f578182fd5b843593506020850135925060408501356200286f8162002b4e565b90565b6001600160a01b0391909116815260200190565b6001600160a01b039384168152919092166020820152604081019190915260600190565b6001600160a01b0392831681529116602082015260400190565b6001600160a01b039788168152958716602087015260408601949094526060850192909252608084015260a083015290911660c082015260e00190565b6001600160a01b03929092168252602082015260400190565b901515815260200190565b6000602080835283518082850152825b8181101562002a1e5785810183015185820160400152820162002a00565b8181111562002a305783604083870101525b50601f01601f1916929092016040019392505050565b60208082526010908201526f4d757374206e6f74206265204261736560801b604082015260600190565b60208082526009908201526821b932b0ba32a2b93960b91b604082015260600190565b60208082526018908201527f4d7573742067657420746f6b656e7320666f7220626f74680000000000000000604082015260600190565b60208082526008908201526724b7383aba22b93960c11b604082015260600190565b6020808252600b908201526a2232b83637bcb2b922b93960a91b604082015260600190565b6020808252600c908201526b2a37b5b2b72a3cb832a2b93960a11b604082015260600190565b90815260200190565b918252602082015260400190565b6001600160a01b038116811462002b6457600080fd5b50565b801515811462002b6457600080fdfe6080604052670de0b6b3a76400006002556040516200253b3803806200253b8339810160408190526200003291620002c2565b600080546001600160a01b038085166001600160a01b031992831617835560018054918516919092168117909155604080518082018252600e81526d5370617274616e506f6f6c56312d60901b602080830191909152825180840184526005815264535054312d60d81b9181019190915282516306fdde0360e01b8152925191949093859390926306fdde0392600480840193919291829003018186803b158015620000dd57600080fd5b505afa158015620000f2573d6000803e3d6000fd5b505050506040513d6000823e601f3d908101601f191682016040526200011c919081019062000300565b6040516020016200012f929190620003a2565b60405160208183030381529060405260039080519060200190620001559291906200021d565b5080836001600160a01b03166395d89b416040518163ffffffff1660e01b815260040160006040518083038186803b1580156200019157600080fd5b505afa158015620001a6573d6000803e3d6000fd5b505050506040513d6000823e601f3d908101601f19168201604052620001d0919081019062000300565b604051602001620001e3929190620003a2565b60405160208183030381529060405260049080519060200190620002099291906200021d565b505060126005555050426009555062000420565b828054600181600116156101000203166002900490600052602060002090601f016020900481019282601f106200026057805160ff191683800117855562000290565b8280016001018555821562000290579182015b828111156200029057825182559160200191906001019062000273565b506200029e929150620002a2565b5090565b620002bf91905b808211156200029e5760008155600101620002a9565b90565b60008060408385031215620002d5578182fd5b8251620002e28162000407565b6020840151909250620002f58162000407565b809150509250929050565b60006020828403121562000312578081fd5b81516001600160401b038082111562000329578283fd5b81840185601f8201126200033b578384fd5b80519250818311156200034c578384fd5b604051601f8401601f1916810160200183811182821017156200036d578586fd5b60405283815281840160200187101562000385578485fd5b62000398846020830160208501620003d4565b9695505050505050565b60008351620003b6818460208801620003d4565b8351908301620003cb828260208801620003d4565b01949350505050565b60005b83811015620003f1578181015183820152602001620003d7565b8381111562000401576000848401525b50505050565b6001600160a01b03811681146200041d57600080fd5b50565b61210b80620004306000396000f3fe6080604052600436106101cd5760003560e01c806379cc6790116100f7578063b374318111610095578063ec342ad011610064578063ec342ad0146104ad578063eec7faa1146104c2578063fbad9014146104d7578063fff6cae9146104f7576101cd565b8063b37431811461044e578063c618a1e414610463578063dd62ed3e14610478578063e8078d9414610498576101cd565b806395d89b41116100d157806395d89b41146103ef5780639af1d35a14610404578063a7f0b3de14610419578063a9059cbb1461042e576101cd565b806379cc67901461039857806382bfefc8146103b8578063901717d1146103da576101cd565b8063313ce5671161016f5780635514f58b1161013e5780635514f58b1461032e57806367b9a2861461034e57806370a08231146103635780637579c07f14610383576101cd565b8063313ce567146102cd5780633c540687146102e257806342966c68146102f75780634864d14014610319576101cd565b806318160ddd116101ab57806318160ddd1461025857806323b872dd1461027a5780632783e4a91461029a5780632ccb1b30146102ad576101cd565b806303438dd0146101d257806306fdde0314610209578063095ea7b31461022b575b600080fd5b3480156101de57600080fd5b506101f26101ed366004611dbc565b61050c565b604051610200929190612079565b60405180910390f35b34801561021557600080fd5b5061021e610523565b6040516102009190611f7d565b34801561023757600080fd5b5061024b610246366004611e50565b6105b9565b6040516102009190611f72565b34801561026457600080fd5b5061026d6105cf565b6040516102009190612049565b34801561028657600080fd5b5061024b610295366004611e10565b6105d5565b6101f26102a8366004611dd8565b61068e565b3480156102b957600080fd5b5061024b6102c8366004611e50565b61080c565b3480156102d957600080fd5b5061026d610819565b3480156102ee57600080fd5b5061026d61081f565b34801561030357600080fd5b50610317610312366004611eb7565b610825565b005b34801561032557600080fd5b5061026d610832565b34801561033a57600080fd5b5061026d610349366004611dbc565b610838565b34801561035a57600080fd5b506101f26109ac565b34801561036f57600080fd5b5061026d61037e366004611dbc565b6109c0565b34801561038f57600080fd5b5061026d6109db565b3480156103a457600080fd5b506103176103b3366004611e50565b6109e1565b3480156103c457600080fd5b506103cd610a5c565b6040516102009190611ee7565b3480156103e657600080fd5b5061026d610a6b565b3480156103fb57600080fd5b5061021e610a71565b34801561041057600080fd5b5061026d610ad2565b34801561042557600080fd5b5061026d610ad8565b34801561043a57600080fd5b5061024b610449366004611e50565b610ade565b34801561045a57600080fd5b5061026d610aeb565b34801561046f57600080fd5b5061026d610af1565b34801561048457600080fd5b5061026d610493366004611dd8565b610af7565b3480156104a457600080fd5b5061026d610b22565b3480156104b957600080fd5b506103cd610b32565b3480156104ce57600080fd5b5061026d610b41565b3480156104e357600080fd5b506101f26104f2366004611dbc565b610b47565b34801561050357600080fd5b50610317610ebc565b600080610519833361068e565b9092509050915091565b60038054604080516020601f60026000196101006001881615020190951694909404938401819004810282018101909252828152606093909290918301828280156105af5780601f10610584576101008083540402835291602001916105af565b820191906000526020600020905b81548152906001019060200180831161059257829003601f168201915b5050505050905090565b60006105c6338484610fc4565b50600192915050565b60065481565b6001600160a01b03831660009081526008602090815260408083203384529091528120548211156106215760405162461bcd60e51b815260040161061890611ff4565b60405180910390fd5b6001600160a01b0384166000908152600860209081526040808320338452909152902054610655908363ffffffff61102c16565b6001600160a01b0385166000908152600860209081526040808320338452909152902055610684848484611060565b5060019392505050565b6000805481906001600160a01b03858116911614806106ba57506001546001600160a01b038581169116145b6106d65760405162461bcd60e51b81526004016106189061201a565b6000805481906001600160a01b038781169116141561071a576001546001600160a01b03169150610705611132565b9050610710816111e7565b9094509250610741565b6000546001600160a01b03169150610730611421565b905061073b816114c2565b90945092505b7f5f159529725ffd2b46cc6592b8e5812527c7bbb61af2528492055e641628737c82878387878a60405161077a96959493929190611efb565b60405180910390a160405163a9059cbb60e01b81526001600160a01b0387169063a9059cbb906107b09088908890600401611f33565b602060405180830381600087803b1580156107ca57600080fd5b505af11580156107de573d6000803e3d6000fd5b505050506040513d601f19601f820116820180604052508101906108029190611e7b565b5050509250929050565b60006105c6328484611060565b60055481565b60105481565b61082f33826116f0565b50565b600a5481565b600080610843611421565b9050600061084f611132565b90506108596117b7565b6001600160a01b0316637b0e5c456040518163ffffffff1660e01b815260040160206040518083038186803b15801561089157600080fd5b505afa1580156108a5573d6000803e3d6000fd5b505050506040513d601f19601f820116820180604052508101906108c99190611e9b565b6001600160a01b031663c5c11ee983600a5484600b546006546040518663ffffffff1660e01b815260040161090295949392919061209d565b60206040518083038186803b15801561091a57600080fd5b505afa15801561092e573d6000803e3d6000fd5b505050506040513d601f19601f820116820180604052508101906109529190611ecf565b925061095e828261183e565b6109688484611863565b7fbeb3885786d637a474cbc287c0a44587231633a077f0bd30354d5a4b18996fce8483838660405161099d9493929190611f4c565b60405180910390a15050919050565b6000806109b833610b47565b915091509091565b6001600160a01b031660009081526007602052604090205490565b600c5481565b6001600160a01b0382166000908152600860209081526040808320338452909152902054811115610a245760405162461bcd60e51b815260040161061890611ff4565b6001600160a01b0382166000908152600860209081526040808320338452909152902080548290039055610a5882826116f0565b5050565b6001546001600160a01b031681565b60025481565b60048054604080516020601f60026000196101006001881615020190951694909404938401819004810282018101909252828152606093909290918301828280156105af5780601f10610584576101008083540402835291602001916105af565b600e5481565b60095481565b60006105c6338484611060565b600d5481565b600f5481565b6001600160a01b03918216600090815260086020908152604080832093909416825291909152205490565b6000610b2d33610838565b905090565b6000546001600160a01b031681565b600b5481565b6000806000610b55306109c0565b9050610b5f6117b7565b6001600160a01b0316637b0e5c456040518163ffffffff1660e01b815260040160206040518083038186803b158015610b9757600080fd5b505afa158015610bab573d6000803e3d6000fd5b505050506040513d601f19601f82011682018060405250810190610bcf9190611e9b565b600054604051635e5c428f60e01b81526001600160a01b0392831692635e5c428f92610c079286929091169030908a90600401612052565b60206040518083038186803b158015610c1f57600080fd5b505afa158015610c33573d6000803e3d6000fd5b505050506040513d601f19601f82011682018060405250810190610c579190611ecf565b9250610c616117b7565b6001600160a01b0316637b0e5c456040518163ffffffff1660e01b815260040160206040518083038186803b158015610c9957600080fd5b505afa158015610cad573d6000803e3d6000fd5b505050506040513d601f19601f82011682018060405250810190610cd19190611e9b565b600154604051635e5c428f60e01b81526001600160a01b0392831692635e5c428f92610d099286929091169030908a90600401612052565b60206040518083038186803b158015610d2157600080fd5b505afa158015610d35573d6000803e3d6000fd5b505050506040513d601f19601f82011682018060405250810190610d599190611ecf565b9150610d6583836118f1565b610d6f30826116f0565b60005460405163a9059cbb60e01b81526001600160a01b039091169063a9059cbb90610da19087908790600401611f33565b602060405180830381600087803b158015610dbb57600080fd5b505af1158015610dcf573d6000803e3d6000fd5b505050506040513d601f19601f82011682018060405250810190610df39190611e7b565b5060015460405163a9059cbb60e01b81526001600160a01b039091169063a9059cbb90610e269087908690600401611f33565b602060405180830381600087803b158015610e4057600080fd5b505af1158015610e54573d6000803e3d6000fd5b505050506040513d601f19601f82011682018060405250810190610e789190611e7b565b507f59c3a0b60c6ab7deb62e1440c9e72441db6db7dfe514dba8cb18e60c0d896efa84848484604051610eae9493929190611f4c565b60405180910390a150915091565b6000546040516370a0823160e01b81526001600160a01b03909116906370a0823190610eec903090600401611ee7565b60206040518083038186803b158015610f0457600080fd5b505afa158015610f18573d6000803e3d6000fd5b505050506040513d601f19601f82011682018060405250810190610f3c9190611ecf565b600a556001546040516370a0823160e01b81526001600160a01b03909116906370a0823190610f6f903090600401611ee7565b60206040518083038186803b158015610f8757600080fd5b505afa158015610f9b573d6000803e3d6000fd5b505050506040513d601f19601f82011682018060405250810190610fbf9190611ecf565b600b55565b6001600160a01b0380841660008181526008602090815260408083209487168084529490915290819020849055517f8c5be1e5ebec7d5bd14f71427d1e84f3dd0314c0f7b2291e5b200ac8c7c3b9259061101f908590612049565b60405180910390a3505050565b60006110598383604051806040016040528060088152602001670a6c2ccca9ac2e8d60c31b815250611b50565b9392505050565b6001600160a01b0383166000908152600760205260409020548111156110985760405162461bcd60e51b815260040161061890611fd0565b6001600160a01b03821660009081526007602052604090205481810110156110d25760405162461bcd60e51b815260040161061890611fd0565b6001600160a01b03808416600081815260076020526040808220805486900390559285168082529083902080548501905591517fddf252ad1be2c89b69c2b068fc378daa952ba7f163c4a11628f55a4df523b3ef9061101f908590612049565b6001546040516370a0823160e01b815260009182916001600160a01b03909116906370a0823190611167903090600401611ee7565b60206040518083038186803b15801561117f57600080fd5b505afa158015611193573d6000803e3d6000fd5b505050506040513d601f19601f820116820180604052508101906111b79190611ecf565b9050600b548111156111de57600b546111d790829063ffffffff61102c16565b91506111e3565b600091505b5090565b600b54600a5460009182916111fa6117b7565b6001600160a01b0316637b0e5c456040518163ffffffff1660e01b815260040160206040518083038186803b15801561123257600080fd5b505afa158015611246573d6000803e3d6000fd5b505050506040513d601f19601f8201168201806040525081019061126a9190611e9b565b6001600160a01b031663701baaf38684846040518463ffffffff1660e01b815260040161129993929190612087565b60206040518083038186803b1580156112b157600080fd5b505afa1580156112c5573d6000803e3d6000fd5b505050506040513d601f19601f820116820180604052508101906112e99190611ecf565b93506112f36117b7565b6001600160a01b0316637b0e5c456040518163ffffffff1660e01b815260040160206040518083038186803b15801561132b57600080fd5b505afa15801561133f573d6000803e3d6000fd5b505050506040513d601f19601f820116820180604052508101906113639190611e9b565b6001600160a01b031663896a708c8684846040518463ffffffff1660e01b815260040161139293929190612087565b60206040518083038186803b1580156113aa57600080fd5b505afa1580156113be573d6000803e3d6000fd5b505050506040513d601f19601f820116820180604052508101906113e29190611ecf565b925061140c6113f7828663ffffffff61102c16565b611407848863ffffffff611b7c16565b611b8b565b61141a838501846001611b96565b5050915091565b600080546040516370a0823160e01b815282916001600160a01b0316906370a0823190611452903090600401611ee7565b60206040518083038186803b15801561146a57600080fd5b505afa15801561147e573d6000803e3d6000fd5b505050506040513d601f19601f820116820180604052508101906114a29190611ecf565b9050600a548111156111de57600a546111d790829063ffffffff61102c16565b600a54600b5460009182916114d56117b7565b6001600160a01b0316637b0e5c456040518163ffffffff1660e01b815260040160206040518083038186803b15801561150d57600080fd5b505afa158015611521573d6000803e3d6000fd5b505050506040513d601f19601f820116820180604052508101906115459190611e9b565b6001600160a01b031663701baaf38684846040518463ffffffff1660e01b815260040161157493929190612087565b60206040518083038186803b15801561158c57600080fd5b505afa1580156115a0573d6000803e3d6000fd5b505050506040513d601f19601f820116820180604052508101906115c49190611ecf565b93506115ce6117b7565b6001600160a01b0316637b0e5c456040518163ffffffff1660e01b815260040160206040518083038186803b15801561160657600080fd5b505afa15801561161a573d6000803e3d6000fd5b505050506040513d601f19601f8201168201806040525081019061163e9190611e9b565b6001600160a01b031663896a708c8684846040518463ffffffff1660e01b815260040161166d93929190612087565b60206040518083038186803b15801561168557600080fd5b505afa158015611699573d6000803e3d6000fd5b505050506040513d601f19601f820116820180604052508101906116bd9190611ecf565b92506116e26116d2838763ffffffff611b7c16565b611407838763ffffffff61102c16565b61141a838501846000611b96565b604080518082018252600a8152692130b630b731b2a2b93960b11b6020808301919091526001600160a01b03851660009081526007909152919091205461173e91839063ffffffff611b5016565b6001600160a01b03831660009081526007602052604090205560065461176a908263ffffffff61102c16565b6006556040516000906001600160a01b038416907fddf252ad1be2c89b69c2b068fc378daa952ba7f163c4a11628f55a4df523b3ef906117ab908590612049565b60405180910390a35050565b60008060009054906101000a90046001600160a01b03166001600160a01b03166398fabd3a6040518163ffffffff1660e01b815260040160206040518083038186803b15801561180657600080fd5b505afa15801561181a573d6000803e3d6000fd5b505050506040513d601f19601f82011682018060405250810190610b2d9190611e9b565b600a805483019055600b805482019055600c8054909201909155600d80549091019055565b600654611876908263ffffffff611b7c16565b6006556001600160a01b0382166000908152600760205260409020546118a2908263ffffffff611b7c16565b6001600160a01b0383166000818152600760205260408082209390935591519091907fddf252ad1be2c89b69c2b068fc378daa952ba7f163c4a11628f55a4df523b3ef906117ab908590612049565b60006118fb6117b7565b6001600160a01b0316637b0e5c456040518163ffffffff1660e01b815260040160206040518083038186803b15801561193357600080fd5b505afa158015611947573d6000803e3d6000fd5b505050506040513d601f19601f8201168201806040525081019061196b9190611e9b565b600a54600c546040516306e8c9b160e21b81526001600160a01b039390931692631ba326c49261199f928892600401612087565b60206040518083038186803b1580156119b757600080fd5b505afa1580156119cb573d6000803e3d6000fd5b505050506040513d601f19601f820116820180604052508101906119ef9190611ecf565b905060006119fb6117b7565b6001600160a01b0316637b0e5c456040518163ffffffff1660e01b815260040160206040518083038186803b158015611a3357600080fd5b505afa158015611a47573d6000803e3d6000fd5b505050506040513d601f19601f82011682018060405250810190611a6b9190611e9b565b600b54600d546040516306e8c9b160e21b81526001600160a01b039390931692631ba326c492611a9f928892600401612087565b60206040518083038186803b158015611ab757600080fd5b505afa158015611acb573d6000803e3d6000fd5b505050506040513d601f19601f82011682018060405250810190611aef9190611ecf565b600c54909150611b05908363ffffffff61102c16565b600c55600d54611b1b908263ffffffff61102c16565b600d55600a54611b31908563ffffffff61102c16565b600a55600b54611b47908463ffffffff61102c16565b600b5550505050565b60008184841115611b745760405162461bcd60e51b81526004016106189190611f7d565b505050900390565b60008282018381101561105957fe5b600a91909155600b55565b8015611bb157600f805484019055600e805483019055611dae565b611bb96117b7565b6001600160a01b0316637b0e5c456040518163ffffffff1660e01b815260040160206040518083038186803b158015611bf157600080fd5b505afa158015611c05573d6000803e3d6000fd5b505050506040513d601f19601f82011682018060405250810190611c299190611e9b565b6001600160a01b03166372af922830856040518363ffffffff1660e01b8152600401611c56929190611f33565b60206040518083038186803b158015611c6e57600080fd5b505afa158015611c82573d6000803e3d6000fd5b505050506040513d601f19601f82011682018060405250810190611ca69190611ecf565b600f80549091019055611cb76117b7565b6001600160a01b0316637b0e5c456040518163ffffffff1660e01b815260040160206040518083038186803b158015611cef57600080fd5b505afa158015611d03573d6000803e3d6000fd5b505050506040513d601f19601f82011682018060405250810190611d279190611e9b565b6001600160a01b03166372af922830846040518363ffffffff1660e01b8152600401611d54929190611f33565b60206040518083038186803b158015611d6c57600080fd5b505afa158015611d80573d6000803e3d6000fd5b505050506040513d601f19601f82011682018060405250810190611da49190611ecf565b600e805490910190555b505060108054600101905550565b600060208284031215611dcd578081fd5b8135611059816120c0565b60008060408385031215611dea578081fd5b8235611df5816120c0565b91506020830135611e05816120c0565b809150509250929050565b600080600060608486031215611e24578081fd5b8335611e2f816120c0565b92506020840135611e3f816120c0565b929592945050506040919091013590565b60008060408385031215611e62578182fd5b8235611e6d816120c0565b946020939093013593505050565b600060208284031215611e8c578081fd5b81518015158114611059578182fd5b600060208284031215611eac578081fd5b8151611059816120c0565b600060208284031215611ec8578081fd5b5035919050565b600060208284031215611ee0578081fd5b5051919050565b6001600160a01b0391909116815260200190565b6001600160a01b039687168152948616602086015260408501939093526060840191909152608083015290911660a082015260c00190565b6001600160a01b03929092168252602082015260400190565b6001600160a01b0394909416845260208401929092526040830152606082015260800190565b901515815260200190565b6000602080835283518082850152825b81811015611fa957858101830151858201604001528201611f8d565b81811115611fba5783604083870101525b50601f01601f1916929092016040019392505050565b6020808252600a90820152692130b630b731b2a2b93960b11b604082015260600190565b6020808252600c908201526b20b63637bbb0b731b2a2b93960a11b604082015260600190565b60208082526015908201527426bab9ba103132902120a9a29037b9102a27a5a2a760591b604082015260600190565b90815260200190565b9384526001600160a01b039283166020850152908216604084015216606082015260800190565b918252602082015260400190565b9283526020830191909152604082015260600190565b948552602085019390935260408401919091526060830152608082015260a00190565b6001600160a01b038116811461082f57600080fdfea2646970667358221220729e223b7a90105c1431468e2988e067560ea8bbdb38ab8cd02c6213369d517464736f6c63430006080033a26469706673582212207e5eb453aff3a3da64af2e0ffa91573f88cad125c97e6044d280066c41258fe164736f6c63430006080033",
  "immutableReferences": {},
  "source": "// SPDX-License-Identifier: UNLICENSED\npragma solidity 0.6.8;\npragma experimental ABIEncoderV2;\n\ninterface iBEP20 {\n    function name() external view returns (string memory);\n    function symbol() external view returns (string memory);\n    function decimals() external view returns (uint256);\n    function totalSupply() external view returns (uint256);\n    function balanceOf(address account) external view returns (uint256);\n    function transfer(address, uint256) external returns (bool);\n    function allowance(address owner, address spender) external view returns (uint256);\n    function approve(address, uint256) external returns (bool);\n    function transferFrom(address, address, uint256) external returns (bool);\n    function burnFrom(address, uint256) external;\n    event Transfer(address indexed from, address indexed to, uint256 value);\n    event Approval(address indexed owner, address indexed spender, uint256 value);\n}\ninterface iWBNB {\n    function withdraw(uint256) external;\n}\ninterface iBASE {\n    function secondsPerEra() external view returns (uint256);\n    function DAO() external view returns (iDAO);\n}\ninterface iUTILS {\n    function calcPart(uint bp, uint total) external pure returns (uint part);\n    function calcShare(uint part, uint total, uint amount) external pure returns (uint share);\n    function calcLiquidityShare(uint units, address token, address pool, address member) external pure returns (uint share);\n    function calcSwapOutput(uint x, uint X, uint Y) external pure returns (uint output);\n    function calcSwapFee(uint x, uint X, uint Y) external pure returns (uint output);\n    function calcLiquidityUnits(uint b, uint B, uint t, uint T, uint P) external pure returns (uint units);\n    function getPoolShare(address token, uint units) external view returns(uint baseAmount, uint tokenAmount);\n    function getPoolShareAssym(address token, uint units, bool toBase) external view returns(uint baseAmount, uint tokenAmount, uint outputAmt);\n    function calcValueInBase(address token, uint amount) external view returns (uint value);\n    function calcValueInToken(address token, uint amount) external view returns (uint value);\n    function calcValueInBaseWithPool(address pool, uint amount) external view returns (uint value);\n}\ninterface iDAO {\n    function ROUTER() external view returns(address);\n    function UTILS() external view returns(iUTILS);\n}\n\n// SafeMath\nlibrary SafeMath {\n\n    function add(uint256 a, uint256 b) internal pure returns (uint256)   {\n        uint256 c = a + b;\n        assert(c >= a);\n        return c;\n    }\n\n    function mul(uint256 a, uint256 b) internal pure returns (uint256) {\n        if (a == 0) {\n            return 0;\n        }\n        uint256 c = a * b;\n        require(c / a == b, \"SafeMath\");\n        return c;\n    }\n\n    function sub(uint256 a, uint256 b) internal pure returns (uint256) {\n        return sub(a, b, \"SafeMath\");\n    }\n    function sub(uint256 a, uint256 b, string memory errorMessage) internal pure returns (uint256) {\n        require(b <= a, errorMessage);\n        uint256 c = a - b;\n        return c;\n    }\n\n    function div(uint256 a, uint256 b) internal pure returns (uint256) {\n        return div(a, b, \"SafeMath\");\n    }\n    function div(uint256 a, uint256 b, string memory errorMessage) internal pure returns (uint256) {\n        require(b > 0, errorMessage);\n        uint256 c = a / b;\n        return c;\n    }\n}\n\ncontract Pool is iBEP20 {\n    using SafeMath for uint256;\n\n    address public BASE;\n    address public TOKEN;\n\n    uint256 public one = 10**18;\n\n    // ERC-20 Parameters\n    string _name; string _symbol;\n    uint256 public override decimals; uint256 public override totalSupply;\n    // ERC-20 Mappings\n    mapping(address => uint) private _balances;\n    mapping(address => mapping(address => uint)) private _allowances;\n\n    uint public genesis;\n    uint public baseAmount;\n    uint public tokenAmount;\n    uint public baseAmountPooled;\n    uint public tokenAmountPooled;\n    uint public fees;\n    uint public volume;\n    uint public txCount;\n\n    event AddLiquidity(address member, uint inputBase, uint inputToken, uint unitsIssued);\n    event RemoveLiquidity(address member, uint outputBase, uint outputToken, uint unitsClaimed);\n    event Swapped(address tokenFrom, address tokenTo, uint inputAmount, uint outputAmount, uint fee, address recipient);\n\n    function _DAO() internal view returns(iDAO) {\n        return iBASE(BASE).DAO();\n    }\n\n    constructor (address _base, address _token) public payable {\n        BASE = _base;\n        TOKEN = _token;\n\n        string memory poolName = \"SpartanPoolV1-\";\n        string memory poolSymbol = \"SPT1-\";\n        _name = string(abi.encodePacked(poolName, iBEP20(_token).name()));\n        _symbol = string(abi.encodePacked(poolSymbol, iBEP20(_token).symbol()));\n        \n        decimals = 18;\n        genesis = now;\n    }\n\n    //========================================iBEP20=========================================//\n    function name() public view override returns (string memory) {\n        return _name;\n    }\n    function symbol() public view override returns (string memory) {\n        return _symbol;\n    }\n\n    function balanceOf(address account) public view override returns (uint256) {\n        return _balances[account];\n    }\n    function allowance(address owner, address spender) public view virtual override returns (uint256) {\n        return _allowances[owner][spender];\n    }\n    // iBEP20 Transfer function\n    function transfer(address to, uint256 value) public override returns (bool success) {\n        _transfer(msg.sender, to, value);\n        return true;\n    }\n    // iBEP20 Approve function\n    function approve(address spender, uint256 amount) public virtual override returns (bool) {\n        _approve(msg.sender, spender, amount);\n        return true;\n    }\n    function _approve(address owner, address spender, uint256 amount) internal virtual {\n        _allowances[owner][spender] = amount;\n        emit Approval(owner, spender, amount);\n    }\n    // iBEP20 TransferFrom function\n    function transferFrom(address from, address to, uint256 value) public override returns (bool success) {\n        require(value <= _allowances[from][msg.sender], 'AllowanceErr');\n        _allowances[from][msg.sender] = _allowances[from][msg.sender].sub(value);\n        _transfer(from, to, value);\n        return true;\n    }\n\n    // Internal transfer function\n    function _transfer(address _from, address _to, uint256 _value) private {\n        require(_balances[_from] >= _value, 'BalanceErr');\n        require(_balances[_to] + _value >= _balances[_to], 'BalanceErr');\n        _balances[_from] -= _value;\n        _balances[_to] += _value;\n        emit Transfer(_from, _to, _value);\n    }\n\n    // Contract can mint\n    function _mint(address account, uint256 amount) internal {\n        totalSupply = totalSupply.add(amount);\n        _balances[account] = _balances[account].add(amount);\n        emit Transfer(address(0), account, amount);\n    }\n    // Burn supply\n    function burn(uint256 amount) public virtual {\n        _burn(msg.sender, amount);\n    }\n    function burnFrom(address from, uint256 value) public virtual override {\n        require(value <= _allowances[from][msg.sender], 'AllowanceErr');\n        _allowances[from][msg.sender] -= value;\n        _burn(from, value);\n    }\n    function _burn(address account, uint256 amount) internal virtual {\n        _balances[account] = _balances[account].sub(amount, \"BalanceErr\");\n        totalSupply = totalSupply.sub(amount);\n        emit Transfer(account, address(0), amount);\n    }\n\n\n    //==================================================================================//\n    // Asset Movement Functions\n\n    // TransferTo function\n    function transferTo(address recipient, uint256 amount) public returns (bool) {\n        _transfer(tx.origin, recipient, amount);\n        return true;\n    }\n\n    // Sync internal balances to actual\n    function sync() public {\n        baseAmount = iBEP20(BASE).balanceOf(address(this));\n        tokenAmount = iBEP20(TOKEN).balanceOf(address(this));\n    }\n\n    // Add liquidity for self\n    function addLiquidity() public returns(uint liquidityUnits){\n        liquidityUnits = addLiquidityForMember(msg.sender);\n        return liquidityUnits;\n    }\n\n    // Add liquidity for a member\n    function addLiquidityForMember(address member) public returns(uint liquidityUnits){\n        uint256 _actualInputBase = _getAddedBaseAmount();\n        uint256 _actualInputToken = _getAddedTokenAmount();\n        liquidityUnits = _DAO().UTILS().calcLiquidityUnits(_actualInputBase, baseAmount, _actualInputToken, tokenAmount, totalSupply);\n        _incrementPoolBalances(_actualInputBase, _actualInputToken);\n        _mint(member, liquidityUnits);\n        emit AddLiquidity(member, _actualInputBase, _actualInputToken, liquidityUnits);\n        return liquidityUnits;\n    }\n\n    // Remove Liquidity\n    function removeLiquidity() public returns (uint outputBase, uint outputToken) {\n        return removeLiquidityForMember(msg.sender);\n    } \n\n    // Remove Liquidity for a member\n    function removeLiquidityForMember(address member) public returns (uint outputBase, uint outputToken) {\n        uint units = balanceOf(address(this));\n        outputBase = _DAO().UTILS().calcLiquidityShare(units, BASE, address(this), member);\n        outputToken = _DAO().UTILS().calcLiquidityShare(units, TOKEN, address(this), member);\n        _decrementPoolBalances(outputBase, outputToken);\n        _burn(address(this), units);\n        iBEP20(BASE).transfer(member, outputBase);\n        iBEP20(TOKEN).transfer(member, outputToken);\n        emit RemoveLiquidity(member, outputBase, outputToken, units);\n        return (outputBase, outputToken);\n    }\n\n    function swap(address token) public returns (uint outputAmount, uint fee){\n        (outputAmount, fee) = swapTo(token, msg.sender);\n        return (outputAmount, fee);\n    }\n\n    function swapTo(address token, address member) public payable returns (uint outputAmount, uint fee) {\n        require((token == BASE || token == TOKEN), \"Must be BASE or TOKEN\");\n        address _fromToken; uint _amount;\n        if(token == BASE){\n            _fromToken = TOKEN;\n            _amount = _getAddedTokenAmount();\n            (outputAmount, fee) = _swapTokenToBase(_amount);\n        } else {\n            _fromToken = BASE;\n            _amount = _getAddedBaseAmount();\n            (outputAmount, fee) = _swapBaseToToken(_amount);\n        }\n        emit Swapped(_fromToken, token, _amount, outputAmount, fee, member);\n        iBEP20(token).transfer(member, outputAmount);\n        return (outputAmount, fee);\n    }\n\n    function _getAddedBaseAmount() internal view returns(uint256 _actual){\n        uint _baseBalance = iBEP20(BASE).balanceOf(address(this)); \n        if(_baseBalance > baseAmount){\n            _actual = _baseBalance.sub(baseAmount);\n        } else {\n            _actual = 0;\n        }\n        return _actual;\n    }\n    function _getAddedTokenAmount() internal view returns(uint256 _actual){\n        uint _tokenBalance = iBEP20(TOKEN).balanceOf(address(this)); \n        if(_tokenBalance > tokenAmount){\n            _actual = _tokenBalance.sub(tokenAmount);\n        } else {\n            _actual = 0;\n        }\n        return _actual;\n    }\n\n    function _swapBaseToToken(uint256 _x) internal returns (uint256 _y, uint256 _fee){\n        uint256 _X = baseAmount;\n        uint256 _Y = tokenAmount;\n        _y =  _DAO().UTILS().calcSwapOutput(_x, _X, _Y);\n        _fee = _DAO().UTILS().calcSwapFee(_x, _X, _Y);\n        _setPoolAmounts(_X.add(_x), _Y.sub(_y));\n        _addPoolMetrics(_y+_fee, _fee, false);\n        return (_y, _fee);\n    }\n\n    function _swapTokenToBase(uint256 _x) internal returns (uint256 _y, uint256 _fee){\n        uint256 _X = tokenAmount;\n        uint256 _Y = baseAmount;\n        _y =  _DAO().UTILS().calcSwapOutput(_x, _X, _Y);\n        _fee = _DAO().UTILS().calcSwapFee(_x, _X, _Y);\n        _setPoolAmounts(_Y.sub(_y), _X.add(_x));\n        _addPoolMetrics(_y+_fee, _fee, true);\n        return (_y, _fee);\n    }\n\n    //==================================================================================//\n    // Data Model\n\n\n    // Increment internal balances\n    function _incrementPoolBalances(uint _baseAmount, uint _tokenAmount) internal  {\n        baseAmount += _baseAmount;\n        tokenAmount += _tokenAmount;\n        baseAmountPooled += _baseAmount;\n        tokenAmountPooled += _tokenAmount; \n    }\n    function _setPoolAmounts(uint256 _baseAmount, uint256 _tokenAmount) internal  {\n        baseAmount = _baseAmount;\n        tokenAmount = _tokenAmount; \n    }\n\n    // Decrement internal balances\n    function _decrementPoolBalances(uint _baseAmount, uint _tokenAmount) internal  {\n        uint _removedBase = _DAO().UTILS().calcShare(_baseAmount, baseAmount, baseAmountPooled);\n        uint _removedToken = _DAO().UTILS().calcShare(_tokenAmount, tokenAmount, tokenAmountPooled);\n        baseAmountPooled = baseAmountPooled.sub(_removedBase);\n        tokenAmountPooled = tokenAmountPooled.sub(_removedToken); \n        baseAmount = baseAmount.sub(_baseAmount);\n        tokenAmount = tokenAmount.sub(_tokenAmount); \n    }\n\n    function _addPoolMetrics(uint256 _volume, uint256 _fee, bool _toBase) internal {\n        if(_toBase){\n            volume += _volume;\n            fees += _fee;\n        } else {\n            volume += _DAO().UTILS().calcValueInBaseWithPool(address(this), _volume);\n            fees += _DAO().UTILS().calcValueInBaseWithPool(address(this), _fee);\n        }\n        txCount += 1;\n    }\n}\n\ncontract Router {\n\n    using SafeMath for uint256;\n\n    address public BASE;\n    address public WBNB;\n    address public DEPLOYER;\n\n    uint public totalPooled; \n    uint public totalVolume;\n    uint public totalFees;\n    uint public removeLiquidityTx;\n    uint public addLiquidityTx;\n    uint public swapTx;\n\n    address[] public arrayTokens;\n    mapping(address=>address) private mapToken_Pool;\n    mapping(address=>bool) public isPool;\n\n    event NewPool(address token, address pool, uint genesis);\n    event AddLiquidity(address member, uint inputBase, uint inputToken, uint unitsIssued);\n    event RemoveLiquidity(address member, uint outputBase, uint outputToken, uint unitsClaimed);\n    event Swapped(address tokenFrom, address tokenTo, uint inputAmount, uint transferAmount, uint outputAmount, uint fee, address recipient);\n\n    // Only Deployer can execute\n    modifier onlyDeployer() {\n        require(msg.sender == DEPLOYER, \"DeployerErr\");\n        _;\n    }\n\n    constructor (address _base, address _wbnb) public payable {\n        BASE = _base;\n        WBNB = _wbnb;\n        DEPLOYER = msg.sender;\n    }\n\n    function _DAO() internal view returns(iDAO) {\n        return iBASE(BASE).DAO();\n    }\n\n    receive() external payable {}\n\n    // In case of new router can migrate metrics\n    function migrateRouterData(address payable oldRouter) public onlyDeployer {\n        totalPooled = Router(oldRouter).totalPooled();\n        totalVolume = Router(oldRouter).totalVolume();\n        totalFees = Router(oldRouter).totalFees();\n        removeLiquidityTx = Router(oldRouter).removeLiquidityTx();\n        addLiquidityTx = Router(oldRouter).addLiquidityTx();\n        swapTx = Router(oldRouter).swapTx();\n    }\n\n    function migrateTokenData(address payable oldRouter) public onlyDeployer {\n        uint256 tokenCount = Router(oldRouter).tokenCount();\n        for(uint256 i = 0; i<tokenCount; i++){\n            address token = Router(oldRouter).getToken(i);\n            address pool = Router(oldRouter).getPool(token);\n            isPool[pool] = true;\n            arrayTokens.push(token);\n            mapToken_Pool[token] = pool;\n        }\n    }\n\n    function purgeDeployer() public onlyDeployer {\n        DEPLOYER = address(0);\n    }\n\n    function createPool(uint256 inputBase, uint256 inputToken, address token) public payable returns(address pool){\n        require(getPool(token) == address(0), \"CreateErr\");\n        require(token != BASE, \"Must not be Base\");\n        require((inputToken > 0 && inputBase > 0), \"Must get tokens for both\");\n        Pool newPool; address _token = token;\n        if(token == address(0)){_token = WBNB;} // Handle BNB\n        newPool = new Pool(BASE, _token); \n        pool = address(newPool);\n        mapToken_Pool[_token] = pool;\n        uint256 _actualInputBase = _handleTransferIn(BASE, inputBase, pool);\n        _handleTransferIn(token, inputToken, pool);\n        arrayTokens.push(_token);\n        isPool[pool] = true;\n        totalPooled += _actualInputBase;\n        addLiquidityTx += 1;\n        Pool(pool).addLiquidityForMember(msg.sender);\n        emit NewPool(token, pool, now);\n        return pool;\n    }\n\n    //==================================================================================//\n    // Add/Remove Liquidity functions\n\n    // Add liquidity for self\n    function addLiquidity(uint inputBase, uint inputToken, address token) public payable returns (uint units) {\n        units = addLiquidityForMember(inputBase, inputToken, token, msg.sender);\n        return units;\n    }\n\n    // Add liquidity for member\n    function addLiquidityForMember(uint inputBase, uint inputToken, address token, address member) public payable returns (uint units) {\n        address pool = getPool(token);\n        uint256 _actualInputBase = _handleTransferIn(BASE, inputBase, pool);\n        _handleTransferIn(token, inputToken, pool);\n        totalPooled += _actualInputBase;\n        addLiquidityTx += 1;\n        units = Pool(pool).addLiquidityForMember(member);\n        return units;\n    }\n\n    // Remove % for self\n    function removeLiquidity(uint basisPoints, address token) public returns (uint outputBase, uint outputToken) {\n        require((basisPoints > 0 && basisPoints <= 10000), \"InputErr\");\n        uint _units = _DAO().UTILS().calcPart(basisPoints, iBEP20(getPool(token)).balanceOf(msg.sender));\n        return removeLiquidityExact(_units, token);\n    }\n\n    // Remove an exact qty of units\n    function removeLiquidityExact(uint units, address token) public returns (uint outputBase, uint outputToken) {\n        address _pool = getPool(token);\n        address _member = msg.sender;\n        Pool(_pool).transferTo(_pool, units);\n        (outputBase, outputToken) = Pool(_pool).removeLiquidity();\n        _handleTransferOut(token, outputToken, _member);\n        _handleTransferOut(BASE, outputBase, _member);\n        totalPooled = totalPooled.sub(outputBase);\n        removeLiquidityTx += 1;\n        return (outputBase, outputToken);\n    }\n\n       // Remove % Asymmetrically\n    function removeLiquidityAndSwap(uint basisPoints, bool toBase, address token) public returns (uint outputAmount){\n        uint _units = _DAO().UTILS().calcPart(basisPoints, iBEP20(getPool(token)).balanceOf(msg.sender));\n        outputAmount = removeLiquidityExactAndSwap(_units, toBase, token);\n        return outputAmount;\n    }\n    // Remove Exact Asymmetrically\n    function removeLiquidityExactAndSwap(uint units, bool toBase, address token) public returns (uint outputAmount){\n        address _pool = getPool(token);\n        require(units < iBEP20(_pool).totalSupply(), \"InputErr\");\n        Pool(_pool).transferTo(_pool, units);\n        (uint _outputBase, uint _outputToken) = Pool(_pool).removeLiquidity();\n        totalPooled = totalPooled.sub(_outputBase);\n        removeLiquidityTx += 1;\n        if(toBase){\n            // sell to BASE\n            iBEP20(token).transfer(_pool, _outputToken);\n            (uint _baseBought, uint _fee) = Pool(_pool).swap(token);\n            totalFees += _fee;\n            outputAmount = _baseBought.add(_outputBase);\n            _handleTransferOut(BASE, outputAmount, msg.sender);\n        } else {\n            // buy to TOKEN\n            iBEP20(BASE).transfer(_pool, _outputToken);\n            (uint _tokenBought, uint _fee) = Pool(_pool).swap(BASE);\n            totalFees += _DAO().UTILS().calcValueInBase(token, _fee);\n            outputAmount = _tokenBought.add(_outputToken);\n            _handleTransferOut(token, outputAmount, msg.sender);\n        }\n        return outputAmount;\n    }\n\n    //==================================================================================//\n    // Swapping Functions\n\n    function buy(uint256 amount, address token) public returns (uint256 outputAmount, uint256 fee){\n        return buyTo(amount, token, msg.sender);\n    }\n    function buyTo(uint amount, address token, address member) public returns (uint outputAmount, uint fee) {\n        require(token != BASE, \"TokenTypeErr\");\n        address _token = token;\n        if(token == address(0)){_token = WBNB;} // Handle BNB\n        address _pool = getPool(token);\n        uint _actualAmount = _handleTransferIn(BASE, amount, _pool);\n        (outputAmount, fee) = Pool(_pool).swap(_token);\n        _handleTransferOut(token, outputAmount, member);\n        totalPooled += _actualAmount;\n        totalVolume += _actualAmount;\n        totalFees += _DAO().UTILS().calcValueInBase(token, fee);\n        swapTx += 1;\n        return (outputAmount, fee);\n    }\n\n    function sell(uint amount, address token) public payable returns (uint outputAmount, uint fee){\n        return sellTo(amount, token, msg.sender);\n    }\n    function sellTo(uint amount, address token, address member) public payable returns (uint outputAmount, uint fee) {\n        require(token != BASE, \"TokenTypeErr\");\n        address _pool = getPool(token);\n        _handleTransferIn(token, amount, _pool);\n        (outputAmount, fee) = Pool(_pool).swapTo(BASE, member);\n        totalPooled = totalPooled.sub(outputAmount);\n        totalVolume += outputAmount;\n        totalFees += fee;\n        swapTx += 1;\n        return (outputAmount, fee);\n    }\n\n    function swap(uint256 inputAmount, address fromToken, address toToken) public payable returns (uint256 outputAmount, uint256 fee) {\n        return swapTo(inputAmount, fromToken, toToken, msg.sender);\n    }\n\n    function swapTo(uint256 inputAmount, address fromToken, address toToken, address member) public payable returns (uint256 outputAmount, uint256 fee) {\n        require(fromToken != toToken, \"TokenTypeErr\");\n        uint256 _transferAmount = 0;\n        if(fromToken == BASE){\n            (outputAmount, fee) = buyTo(inputAmount, toToken, member);\n        } else if(toToken == BASE) {\n            (outputAmount, fee) = sellTo(inputAmount, fromToken, member);\n        } else {\n            address _poolTo = getPool(toToken);\n            (uint256 _yy, uint256 _feey) = sellTo(inputAmount, fromToken, _poolTo);\n            totalVolume += _yy; totalFees += _feey;\n            address _toToken = toToken;\n            if(toToken == address(0)){_toToken = WBNB;} // Handle BNB\n            (uint _zz, uint _feez) = Pool(_poolTo).swap(_toToken);\n            _handleTransferOut(toToken, _zz, member);\n            totalFees += _DAO().UTILS().calcValueInBase(toToken, _feez);\n            _transferAmount = _yy; outputAmount = _zz; \n            fee = _feez + _DAO().UTILS().calcValueInToken(toToken, _feey);\n        }\n        emit Swapped(fromToken, toToken, inputAmount, _transferAmount, outputAmount, fee, member);\n        return (outputAmount, fee);\n    }\n\n    //==================================================================================//\n    // Token Transfer Functions\n\n    function _handleTransferIn(address _token, uint256 _amount, address _pool) internal returns(uint256 actual){\n        if(_amount > 0) {\n            if(_token == address(0)){\n                // If BNB, then send to WBNB contract, then forward WBNB to pool\n                require((_amount == msg.value), \"InputErr\");\n                payable(WBNB).call{value:_amount}(\"\"); \n                iBEP20(WBNB).transfer(_pool, _amount); \n                actual = _amount;\n            } else {\n                uint startBal = iBEP20(_token).balanceOf(_pool); \n                iBEP20(_token).transferFrom(msg.sender, _pool, _amount); \n                actual = iBEP20(_token).balanceOf(_pool).sub(startBal);\n            }\n        }\n    }\n\n    function _handleTransferOut(address _token, uint256 _amount, address _recipient) internal {\n        if(_amount > 0) {\n            if (_token == address(0)) {\n                // If BNB, then withdraw to BNB, then forward BNB to recipient\n                iWBNB(WBNB).withdraw(_amount);\n                payable(_recipient).call{value:_amount}(\"\"); \n            } else {\n                iBEP20(_token).transfer(_recipient, _amount);\n            }\n        }\n    }\n\n    //======================================HELPERS========================================//\n    // Helper Functions\n\n    function getPool(address token) public view returns(address pool){\n        if(token == address(0)){\n            pool = mapToken_Pool[WBNB];   // Handle BNB\n        } else {\n            pool = mapToken_Pool[token];  // Handle normal token\n        } \n        return pool;\n    }\n\n    function tokenCount() public view returns(uint256){\n        return arrayTokens.length;\n    }\n\n    function getToken(uint256 i) public view returns(address){\n        return arrayTokens[i];\n    }\n\n}",
  "sourcePath": "/Users/guzziplus/spartanswap-contracts/contracts/Router.sol",
  "compiler": {
    "name": "solc",
    "version": "0.6.8+commit.0bbfe453.Emscripten.clang"
  },
  "schemaVersion": "3.3.1",
  "updatedAt": "2020-11-06T00:41:34.023Z",
  "devdoc": {
    "methods": {}
  },
  "userdoc": {
    "methods": {}
  }
}