{
  "contractName": "Synthetics",
  "abi": [
    {
      "inputs": [
        {
          "internalType": "address",
          "name": "_base",
          "type": "address"
        },
        {
          "internalType": "address",
          "name": "_router",
          "type": "address"
        }
      ],
      "stateMutability": "payable",
      "type": "constructor"
    },
    {
      "anonymous": false,
      "inputs": [
        {
          "indexed": true,
          "internalType": "address",
          "name": "owner",
          "type": "address"
        },
        {
          "indexed": true,
          "internalType": "address",
          "name": "spender",
          "type": "address"
        },
        {
          "indexed": false,
          "internalType": "uint256",
          "name": "value",
          "type": "uint256"
        }
      ],
      "name": "Approval",
      "type": "event"
    },
    {
      "anonymous": false,
      "inputs": [
        {
          "indexed": true,
          "internalType": "address",
          "name": "from",
          "type": "address"
        },
        {
          "indexed": true,
          "internalType": "address",
          "name": "to",
          "type": "address"
        },
        {
          "indexed": false,
          "internalType": "uint256",
          "name": "value",
          "type": "uint256"
        }
      ],
      "name": "Transfer",
      "type": "event"
    },
    {
      "inputs": [],
      "name": "BASE",
      "outputs": [
        {
          "internalType": "address",
          "name": "",
          "type": "address"
        }
      ],
      "stateMutability": "view",
      "type": "function"
    },
    {
      "inputs": [],
      "name": "ROUTER",
      "outputs": [
        {
          "internalType": "address",
          "name": "",
          "type": "address"
        }
      ],
      "stateMutability": "view",
      "type": "function"
    },
    {
      "inputs": [],
      "name": "burnAddress",
      "outputs": [
        {
          "internalType": "address",
          "name": "",
          "type": "address"
        }
      ],
      "stateMutability": "view",
      "type": "function"
    },
    {
      "inputs": [],
      "name": "decimals",
      "outputs": [
        {
          "internalType": "uint256",
          "name": "",
          "type": "uint256"
        }
      ],
      "stateMutability": "view",
      "type": "function"
    },
    {
      "inputs": [],
      "name": "defaultCollateralisation",
      "outputs": [
        {
          "internalType": "uint256",
          "name": "",
          "type": "uint256"
        }
      ],
      "stateMutability": "view",
      "type": "function"
    },
    {
      "inputs": [
        {
          "internalType": "address",
          "name": "",
          "type": "address"
        }
      ],
      "name": "mapAddress_lpCDP",
      "outputs": [
        {
          "internalType": "address",
          "name": "lpToken",
          "type": "address"
        },
        {
          "internalType": "uint256",
          "name": "debt",
          "type": "uint256"
        },
        {
          "internalType": "uint256",
          "name": "collateral",
          "type": "uint256"
        }
      ],
      "stateMutability": "view",
      "type": "function"
    },
    {
      "inputs": [],
      "name": "name",
      "outputs": [
        {
          "internalType": "string",
          "name": "",
          "type": "string"
        }
      ],
      "stateMutability": "view",
      "type": "function"
    },
    {
      "inputs": [],
      "name": "symbol",
      "outputs": [
        {
          "internalType": "string",
          "name": "",
          "type": "string"
        }
      ],
      "stateMutability": "view",
      "type": "function"
    },
    {
      "inputs": [],
      "name": "totalSupply",
      "outputs": [
        {
          "internalType": "uint256",
          "name": "",
          "type": "uint256"
        }
      ],
      "stateMutability": "view",
      "type": "function"
    },
    {
      "inputs": [
        {
          "internalType": "address",
          "name": "account",
          "type": "address"
        }
      ],
      "name": "balanceOf",
      "outputs": [
        {
          "internalType": "uint256",
          "name": "",
          "type": "uint256"
        }
      ],
      "stateMutability": "view",
      "type": "function"
    },
    {
      "inputs": [
        {
          "internalType": "address",
          "name": "owner",
          "type": "address"
        },
        {
          "internalType": "address",
          "name": "spender",
          "type": "address"
        }
      ],
      "name": "allowance",
      "outputs": [
        {
          "internalType": "uint256",
          "name": "",
          "type": "uint256"
        }
      ],
      "stateMutability": "view",
      "type": "function"
    },
    {
      "inputs": [
        {
          "internalType": "address",
          "name": "recipient",
          "type": "address"
        },
        {
          "internalType": "uint256",
          "name": "amount",
          "type": "uint256"
        }
      ],
      "name": "transfer",
      "outputs": [
        {
          "internalType": "bool",
          "name": "",
          "type": "bool"
        }
      ],
      "stateMutability": "nonpayable",
      "type": "function"
    },
    {
      "inputs": [
        {
          "internalType": "address",
          "name": "spender",
          "type": "address"
        },
        {
          "internalType": "uint256",
          "name": "amount",
          "type": "uint256"
        }
      ],
      "name": "approve",
      "outputs": [
        {
          "internalType": "bool",
          "name": "",
          "type": "bool"
        }
      ],
      "stateMutability": "nonpayable",
      "type": "function"
    },
    {
      "inputs": [
        {
          "internalType": "address",
          "name": "sender",
          "type": "address"
        },
        {
          "internalType": "address",
          "name": "recipient",
          "type": "address"
        },
        {
          "internalType": "uint256",
          "name": "amount",
          "type": "uint256"
        }
      ],
      "name": "transferFrom",
      "outputs": [
        {
          "internalType": "bool",
          "name": "",
          "type": "bool"
        }
      ],
      "stateMutability": "nonpayable",
      "type": "function"
    },
    {
      "inputs": [
        {
          "internalType": "address",
          "name": "recipient",
          "type": "address"
        },
        {
          "internalType": "uint256",
          "name": "amount",
          "type": "uint256"
        }
      ],
      "name": "transferTo",
      "outputs": [
        {
          "internalType": "bool",
          "name": "",
          "type": "bool"
        }
      ],
      "stateMutability": "nonpayable",
      "type": "function"
    },
    {
      "inputs": [
        {
          "internalType": "uint256",
          "name": "amount",
          "type": "uint256"
        }
      ],
      "name": "burn",
      "outputs": [],
      "stateMutability": "nonpayable",
      "type": "function"
    },
    {
      "inputs": [
        {
          "internalType": "address",
          "name": "lptokens",
          "type": "address"
        },
        {
          "internalType": "uint256",
          "name": "amount",
          "type": "uint256"
        }
      ],
      "name": "depositLP",
      "outputs": [
        {
          "internalType": "uint256",
          "name": "cdpShare",
          "type": "uint256"
        }
      ],
      "stateMutability": "payable",
      "type": "function"
    },
    {
      "inputs": [
        {
          "internalType": "address",
          "name": "lpCDP",
          "type": "address"
        },
        {
          "internalType": "uint256",
          "name": "withDrawBP",
          "type": "uint256"
        }
      ],
      "name": "withDrawLP",
      "outputs": [
        {
          "internalType": "uint256",
          "name": "lpTokens",
          "type": "uint256"
        }
      ],
      "stateMutability": "payable",
      "type": "function"
    },
    {
      "inputs": [
        {
          "internalType": "address",
          "name": "lpCDP",
          "type": "address"
        },
        {
          "internalType": "uint256",
          "name": "liquidateBP",
          "type": "uint256"
        }
      ],
      "name": "liquidate",
      "outputs": [
        {
          "internalType": "bool",
          "name": "success",
          "type": "bool"
        }
      ],
      "stateMutability": "nonpayable",
      "type": "function"
    },
    {
      "inputs": [
        {
          "internalType": "address",
          "name": "lpCDP",
          "type": "address"
        }
      ],
      "name": "_checkLiquidation",
      "outputs": [
        {
          "internalType": "bool",
          "name": "canLiquidate",
          "type": "bool"
        }
      ],
      "stateMutability": "nonpayable",
      "type": "function"
    }
  ],
  "bytecode": "0x608060405260405162000dfa38038062000dfa833981016040819052620000269162000188565b600680546001600160a01b038085166001600160a01b031992831617909255600780549284169290911691909117905560408051808201909152600f8082526e14de5b9d1a195b9d1a58c81cd554d1608a1b60209092019182526200008e91600091620000e3565b50604080518082019091526004808252631cd554d160e21b6020909201918252620000bc91600191620000e3565b5050601260025550600880546001600160a01b03191661dead1790556096600955620001df565b828054600181600116156101000203166002900490600052602060002090601f016020900481019282601f106200012657805160ff191683800117855562000156565b8280016001018555821562000156579182015b828111156200015657825182559160200191906001019062000139565b506200016492915062000168565b5090565b6200018591905b808211156200016457600081556001016200016f565b90565b600080604083850312156200019b578182fd5b8251620001a881620001c6565b6020840151909250620001bb81620001c6565b809150509250929050565b6001600160a01b0381168114620001dc57600080fd5b50565b610c0b80620001ef6000396000f3fe60806040526004361061011f5760003560e01c80634b9474d7116100a0578063bcbaf48711610064578063bcbaf487146102f8578063bf5038e91461024c578063c7337dcf14610313578063dd62ed3e14610333578063ec342ad0146103535761011f565b80634b9474d71461025f57806370a082311461028e57806370d5ae05146102ae57806395d89b41146102c3578063a9059cbb146102d85761011f565b8063313ce567116100e7578063313ce567146101de57806332fe7b26146101f35780633d252e4a1461021557806342966c681461022a578063445509281461024c5761011f565b806306fdde0314610124578063095ea7b31461014f57806318160ddd1461017c57806323b872dd1461019e5780632ccb1b30146101be575b600080fd5b34801561013057600080fd5b50610139610368565b60405161014691906109e1565b60405180910390f35b34801561015b57600080fd5b5061016f61016a36600461095f565b6103f6565b60405161014691906109d6565b34801561018857600080fd5b5061019161040d565b6040516101469190610b44565b3480156101aa57600080fd5b5061016f6101b936600461091f565b610413565b3480156101ca57600080fd5b5061016f6101d936600461095f565b610482565b3480156101ea57600080fd5b5061019161048f565b3480156101ff57600080fd5b50610208610495565b60405161014691906109a1565b34801561022157600080fd5b506101916104a4565b34801561023657600080fd5b5061024a610245366004610989565b6104aa565b005b61019161025a36600461095f565b6104b7565b34801561026b57600080fd5b5061027f61027a3660046108d0565b6104bf565b604051610146939291906109b5565b34801561029a57600080fd5b506101916102a93660046108d0565b6104ea565b3480156102ba57600080fd5b50610208610505565b3480156102cf57600080fd5b50610139610514565b3480156102e457600080fd5b5061016f6102f336600461095f565b61056e565b34801561030457600080fd5b5061016f61025a36600461095f565b34801561031f57600080fd5b5061016f61032e3660046108d0565b61057b565b34801561033f57600080fd5b5061019161034e3660046108eb565b610581565b34801561035f57600080fd5b506102086105ac565b6000805460408051602060026001851615610100026000190190941693909304601f810184900484028201840190925281815292918301828280156103ee5780601f106103c3576101008083540402835291602001916103ee565b820191906000526020600020905b8154815290600101906020018083116103d157829003601f168201915b505050505081565b60006104033384846105bb565b5060015b92915050565b60035481565b6000610420848484610678565b610478843361047385604051806060016040528060298152602001610b63602991396001600160a01b038a166000908152600560209081526040808320338452909152902054919063ffffffff61076816565b6105bb565b5060019392505050565b6000610403328484610678565b60025481565b6007546001600160a01b031681565b60095481565b6104b43382610794565b50565b600092915050565b600a602052600090815260409020805460018201546002909201546001600160a01b03909116919083565b6001600160a01b031660009081526004602052604090205490565b6008546001600160a01b031681565b60018054604080516020600284861615610100026000190190941693909304601f810184900484028201840190925281815292918301828280156103ee5780601f106103c3576101008083540402835291602001916103ee565b6000610403338484610678565b50600090565b6001600160a01b03918216600090815260056020908152604080832093909416825291909152205490565b6006546001600160a01b031681565b6001600160a01b0383166105ea5760405162461bcd60e51b81526004016105e190610a77565b60405180910390fd5b6001600160a01b0382166106105760405162461bcd60e51b81526004016105e190610a34565b6001600160a01b0380841660008181526005602090815260408083209487168084529490915290819020849055517f8c5be1e5ebec7d5bd14f71427d1e84f3dd0314c0f7b2291e5b200ac8c7c3b9259061066b908590610b44565b60405180910390a3505050565b6001600160a01b03831661069e5760405162461bcd60e51b81526004016105e190610afe565b6106e181604051806060016040528060278152602001610b8c602791396001600160a01b038616600090815260046020526040902054919063ffffffff61076816565b6001600160a01b038085166000908152600460205260408082209390935590841681522054610716908263ffffffff61087616565b6001600160a01b0380841660008181526004602052604090819020939093559151908516907fddf252ad1be2c89b69c2b068fc378daa952ba7f163c4a11628f55a4df523b3ef9061066b908590610b44565b6000818484111561078c5760405162461bcd60e51b81526004016105e191906109e1565b505050900390565b6001600160a01b0382166107ba5760405162461bcd60e51b81526004016105e190610abc565b6107fd81604051806060016040528060238152602001610bb3602391396001600160a01b038516600090815260046020526040902054919063ffffffff61076816565b6001600160a01b038316600090815260046020526040902055600354610829908263ffffffff61088c16565b6003556040516000906001600160a01b038416907fddf252ad1be2c89b69c2b068fc378daa952ba7f163c4a11628f55a4df523b3ef9061086a908590610b44565b60405180910390a35050565b60008282018381101561088557fe5b9392505050565b60006108858383604051806040016040528060088152602001670a6c2ccca9ac2e8d60c31b815250610768565b80356001600160a01b038116811461040757600080fd5b6000602082840312156108e1578081fd5b61088583836108b9565b600080604083850312156108fd578081fd5b61090784846108b9565b915061091684602085016108b9565b90509250929050565b600080600060608486031215610933578081fd5b833561093e81610b4d565b9250602084013561094e81610b4d565b929592945050506040919091013590565b60008060408385031215610971578182fd5b61097b84846108b9565b946020939093013593505050565b60006020828403121561099a578081fd5b5035919050565b6001600160a01b0391909116815260200190565b6001600160a01b039390931683526020830191909152604082015260600190565b901515815260200190565b6000602080835283518082850152825b81811015610a0d578581018301518582016040015282016109f1565b81811115610a1e5783604083870101525b50601f01601f1916929092016040019392505050565b60208082526023908201527f6942455032303a20617070726f766520746f20746865207a65726f206164647260408201526265737360e81b606082015260800190565b60208082526025908201527f6942455032303a20617070726f76652066726f6d20746865207a65726f206164604082015264647265737360d81b606082015260800190565b60208082526022908201527f6942455032303a206275726e2066726f6d20746865207a65726f206164647265604082015261737360f01b606082015260800190565b60208082526026908201527f6942455032303a207472616e736665722066726f6d20746865207a65726f206160408201526564647265737360d01b606082015260800190565b90815260200190565b6001600160a01b03811681146104b457600080fdfe6942455032303a207472616e7366657220616d6f756e74206578636565647320616c6c6f77616e63656942455032303a207472616e7366657220616d6f756e7420657863656564732062616c616e63656942455032303a206275726e20616d6f756e7420657863656564732062616c616e6365a264697066735822122062ceb9fa0e93dadb10e82ca5fa24e8d06b6deae245c3440cc4114521f34acb0764736f6c63430006080033",
  "immutableReferences": {},
  "source": "// SPDX-License-Identifier: UNLICENSED\npragma solidity 0.6.8;\npragma experimental ABIEncoderV2;\n\ninterface iBEP20 {\n    function name() external view returns (string memory);\n    function symbol() external view returns (string memory);\n    function decimals() external view returns (uint256);\n    function totalSupply() external view returns (uint256);\n    function balanceOf(address account) external view returns (uint256);\n    function transfer(address, uint256) external returns (bool);\n    function allowance(address owner, address spender) external view returns (uint256);\n    function approve(address, uint256) external returns (bool);\n    function transferFrom(address, address, uint256) external returns (bool);\n    event Transfer(address indexed from, address indexed to, uint256 value);\n    event Approval(address indexed owner, address indexed spender, uint256 value);\n}\ninterface iBASE {\n    function secondsPerEra() external view returns (uint256);\n    function DAO() external view returns (iDAO);\n}\ninterface iUTILS {\n    function calcPart(uint bp, uint total) external pure returns (uint part);\n    function calcShare(uint part, uint total, uint amount) external pure returns (uint share);\n    function calcLiquidityShare(uint units, address token, address pool, address member) external pure returns (uint share);\n    function calcSwapOutput(uint x, uint X, uint Y) external pure returns (uint output);\n    function calcSwapFee(uint x, uint X, uint Y) external pure returns (uint output);\n    function calcLiquidityUnits(uint b, uint B, uint t, uint T, uint P) external pure returns (uint units);\n    function getPoolShare(address token, uint units) external view returns(uint baseAmount, uint tokenAmount);\n    function getPoolShareAssym(address token, uint units, bool toBase) external view returns(uint baseAmount, uint tokenAmount, uint outputAmt);\n    function calcValueInBase(address token, uint amount) external view returns (uint value);\n    function calcValueInToken(address token, uint amount) external view returns (uint value);\n    function calcValueInBaseWithPool(address pool, uint amount) external view returns (uint value);\n}\ninterface iDAO {\n    function ROUTER() external view returns(address);\n    function UTILS() external view returns(iUTILS);\n}\n\n// SafeMath\nlibrary SafeMath {\n\n    function add(uint256 a, uint256 b) internal pure returns (uint256)   {\n        uint256 c = a + b;\n        assert(c >= a);\n        return c;\n    }\n\n    function mul(uint256 a, uint256 b) internal pure returns (uint256) {\n        if (a == 0) {\n            return 0;\n        }\n        uint256 c = a * b;\n        require(c / a == b, \"SafeMath\");\n        return c;\n    }\n\n    function sub(uint256 a, uint256 b) internal pure returns (uint256) {\n        return sub(a, b, \"SafeMath\");\n    }\n    function sub(uint256 a, uint256 b, string memory errorMessage) internal pure returns (uint256) {\n        require(b <= a, errorMessage);\n        uint256 c = a - b;\n        return c;\n    }\n\n    function div(uint256 a, uint256 b) internal pure returns (uint256) {\n        return div(a, b, \"SafeMath\");\n    }\n    function div(uint256 a, uint256 b, string memory errorMessage) internal pure returns (uint256) {\n        require(b > 0, errorMessage);\n        uint256 c = a / b;\n        return c;\n    }\n}\n\n\ncontract Synthetics is iBEP20{\n\n    using SafeMath for uint256;\n\n    \n    // ERC-20 Parameters\n    string public override name; string public override symbol;\n    uint256 public override decimals; uint256 public override totalSupply;\n\n    // ERC-20 Mappings\n    mapping(address => uint256) private _balances;\n    mapping(address => mapping(address => uint256)) private _allowances;\n\n    address public BASE;\n    address public ROUTER;\n    address public burnAddress;\n    uint public defaultCollateralisation;\n\n    mapping(address => lpCDP) public mapAddress_lpCDP;\n    //mapping(address => lpCDPMember) public mapAddress_lpCDPMember;\n\n    struct lpCDP{\n        address lpToken;\n        uint debt;\n        uint collateral;\n        address [] members;\n        mapping(address => uint) memberShare;\n    }\n   \n\n    constructor (address _base, address _router) public payable {\n        BASE = _base;\n        ROUTER = _router;\n        name = 'Synthentic sUSD';\n        symbol = 'sUSD';\n        decimals = 18;\n        burnAddress = 0x000000000000000000000000000000000000dEaD;\n        defaultCollateralisation = 150;\n    }\n\n    function _DAO() internal view returns(iDAO) {\n        return iBASE(BASE).DAO();\n    }\n     //========================================iBEP20=========================================//\n    function balanceOf(address account) public view override returns (uint256) {\n        return _balances[account];\n    }\n    function allowance(address owner, address spender) public view virtual override returns (uint256) {\n        return _allowances[owner][spender];\n    }\n    // iBEP20 Transfer function\n    function transfer(address recipient, uint256 amount) public virtual override returns (bool) {\n        _transfer(msg.sender, recipient, amount);\n        return true;\n    }\n    // iBEP20 Approve, change allowance functions\n    function approve(address spender, uint256 amount) public virtual override returns (bool) {\n        _approve(msg.sender, spender, amount);\n        return true;\n    }\n    function _approve(address owner, address spender, uint256 amount) internal virtual {\n        require(owner != address(0), \"iBEP20: approve from the zero address\");\n        require(spender != address(0), \"iBEP20: approve to the zero address\");\n        _allowances[owner][spender] = amount;\n        emit Approval(owner, spender, amount);\n    } \n    // iBEP20 TransferFrom function\n    function transferFrom(address sender, address recipient, uint256 amount) public virtual override returns (bool) {\n        _transfer(sender, recipient, amount);\n        _approve(sender, msg.sender, _allowances[sender][msg.sender].sub(amount, \"iBEP20: transfer amount exceeds allowance\"));\n        return true;\n    }\n\n    // TransferTo function\n    function transferTo(address recipient, uint256 amount) public returns (bool) {\n        _transfer(tx.origin, recipient, amount);\n        return true;\n    }\n\n    // Internal transfer function\n    function _transfer(address sender, address recipient, uint256 amount) internal virtual {\n        require(sender != address(0), \"iBEP20: transfer from the zero address\");\n        _balances[sender] = _balances[sender].sub(amount, \"iBEP20: transfer amount exceeds balance\");\n        _balances[recipient] = _balances[recipient].add(amount);\n        emit Transfer(sender, recipient, amount);\n    }\n    // Internal mint (upgrading and daily emissions)\n    function _mint(address account, uint256 amount) internal virtual {\n        require(account != address(0), \"iBEP20: mint to the zero address\");\n        totalSupply = totalSupply.add(amount);\n        _balances[account] = _balances[account].add(amount);\n        emit Transfer(address(0), account, amount);\n    }\n    // Burn supply\n    function burn(uint256 amount) public virtual {\n        _burn(msg.sender, amount);\n    }\n    \n    function _burn(address account, uint256 amount) internal virtual {\n        require(account != address(0), \"iBEP20: burn from the zero address\");\n        _balances[account] = _balances[account].sub(amount, \"iBEP20: burn amount exceeds balance\");\n        totalSupply = totalSupply.sub(amount);\n        emit Transfer(account, address(0), amount);\n    }\n\n    function depositLP(address lptokens, uint amount) public payable returns (uint cdpShare){\n        //get lp tokens\n        //get lp value\n        //check for member\n        //calculate share - update share\n        //add to mappings\n        //mint sUSD value at default collateralisation\n        //transfer msg.sender sUSD\n        //return cdp share\n        //emit event\n    }\n\n\n\n    function withDrawLP(address lpCDP, uint withDrawBP) public payable returns (uint lpTokens){\n        //require bp\n        //transfer debt from msg.sender - delete\n        //calculate amount to close\n        //update sender mappings\n        //update lpCDP mappings\n        //transfer back lp tokens\n        //emit event\n\n    }\n\n    function liquidate(address lpCDP, uint liquidateBP) public returns (bool success){\n        //bp liquidation\n        //if can liquidate \n        //require blocktime to be 4hrs later\n        //small liquidations - need to run some simulations\n        //calc how much to liquidate +fee\n        //removeLiquidityAndSwap - output sparta\n        //buy token from pool with sparta\n        //delete\n        //transfer sparta fee back to msg.sender\n        //emit event\n    }\n    function _checkLiquidation(address lpCDP) public returns (bool canLiquidate){\n        //check debt is less than lptoken value in mappings\n        //return true or false\n    }\n    \n   \n\n}",
  "sourcePath": "/Users/guzziplus/spartanswap-contracts/contracts/Synthetics.sol",
  "compiler": {
    "name": "solc",
    "version": "0.6.8+commit.0bbfe453.Emscripten.clang"
  },
  "schemaVersion": "3.3.1",
  "updatedAt": "2020-11-06T00:41:34.129Z",
  "devdoc": {
    "methods": {}
  },
  "userdoc": {
    "methods": {}
  }
}