{
  "_format": "hh-sol-artifact-1",
  "contractName": "BondVault",
  "sourceName": "contracts/BondVault.sol",
  "abi": [
    {
      "inputs": [
        {
          "internalType": "address",
          "name": "_base",
          "type": "address"
        }
      ],
      "stateMutability": "nonpayable",
      "type": "constructor"
    },
    {
      "inputs": [],
      "name": "BASE",
      "outputs": [
        {
          "internalType": "address",
          "name": "",
          "type": "address"
        }
      ],
      "stateMutability": "view",
      "type": "function"
    },
    {
      "inputs": [],
      "name": "DEPLOYER",
      "outputs": [
        {
          "internalType": "address",
          "name": "",
          "type": "address"
        }
      ],
      "stateMutability": "view",
      "type": "function"
    },
    {
      "inputs": [],
      "name": "allMembers",
      "outputs": [
        {
          "internalType": "address[]",
          "name": "_allMembers",
          "type": "address[]"
        }
      ],
      "stateMutability": "view",
      "type": "function"
    },
    {
      "inputs": [
        {
          "internalType": "uint256",
          "name": "",
          "type": "uint256"
        }
      ],
      "name": "arrayMembers",
      "outputs": [
        {
          "internalType": "address",
          "name": "",
          "type": "address"
        }
      ],
      "stateMutability": "view",
      "type": "function"
    },
    {
      "inputs": [
        {
          "internalType": "address",
          "name": "member",
          "type": "address"
        },
        {
          "internalType": "address",
          "name": "asset",
          "type": "address"
        }
      ],
      "name": "calcBondedLP",
      "outputs": [
        {
          "internalType": "uint256",
          "name": "claimAmount",
          "type": "uint256"
        }
      ],
      "stateMutability": "view",
      "type": "function"
    },
    {
      "inputs": [
        {
          "internalType": "address",
          "name": "asset",
          "type": "address"
        },
        {
          "internalType": "address",
          "name": "member",
          "type": "address"
        }
      ],
      "name": "claimForMember",
      "outputs": [
        {
          "internalType": "bool",
          "name": "",
          "type": "bool"
        }
      ],
      "stateMutability": "nonpayable",
      "type": "function"
    },
    {
      "inputs": [
        {
          "internalType": "address",
          "name": "asset",
          "type": "address"
        },
        {
          "internalType": "address",
          "name": "member",
          "type": "address"
        },
        {
          "internalType": "uint256",
          "name": "LPS",
          "type": "uint256"
        }
      ],
      "name": "depositForMember",
      "outputs": [
        {
          "internalType": "bool",
          "name": "",
          "type": "bool"
        }
      ],
      "stateMutability": "nonpayable",
      "type": "function"
    },
    {
      "inputs": [
        {
          "internalType": "address",
          "name": "member",
          "type": "address"
        },
        {
          "internalType": "address",
          "name": "asset",
          "type": "address"
        }
      ],
      "name": "getMemberDetails",
      "outputs": [
        {
          "components": [
            {
              "internalType": "bool",
              "name": "isMember",
              "type": "bool"
            },
            {
              "internalType": "uint256",
              "name": "bondedLP",
              "type": "uint256"
            },
            {
              "internalType": "uint256",
              "name": "claimRate",
              "type": "uint256"
            },
            {
              "internalType": "uint256",
              "name": "lastBlockTime",
              "type": "uint256"
            }
          ],
          "internalType": "struct BondVault.MemberDetails",
          "name": "memberDetails",
          "type": "tuple"
        }
      ],
      "stateMutability": "view",
      "type": "function"
    },
    {
      "inputs": [
        {
          "internalType": "address",
          "name": "member",
          "type": "address"
        }
      ],
      "name": "getMemberWeight",
      "outputs": [
        {
          "internalType": "uint256",
          "name": "",
          "type": "uint256"
        }
      ],
      "stateMutability": "view",
      "type": "function"
    },
    {
      "inputs": [
        {
          "internalType": "address",
          "name": "",
          "type": "address"
        }
      ],
      "name": "mapBondAsset_memberDetails",
      "outputs": [
        {
          "internalType": "bool",
          "name": "isListed",
          "type": "bool"
        }
      ],
      "stateMutability": "view",
      "type": "function"
    },
    {
      "inputs": [],
      "name": "memberCount",
      "outputs": [
        {
          "internalType": "uint256",
          "name": "count",
          "type": "uint256"
        }
      ],
      "stateMutability": "view",
      "type": "function"
    },
    {
      "inputs": [],
      "name": "purgeDeployer",
      "outputs": [],
      "stateMutability": "nonpayable",
      "type": "function"
    },
    {
      "inputs": [],
      "name": "totalWeight",
      "outputs": [
        {
          "internalType": "uint256",
          "name": "",
          "type": "uint256"
        }
      ],
      "stateMutability": "view",
      "type": "function"
    }
  ],
  "bytecode": "0x60806040523480156200001157600080fd5b5060405162002dd938038062002dd98339818101604052810190620000379190620000d6565b806000806101000a81548173ffffffffffffffffffffffffffffffffffffffff021916908373ffffffffffffffffffffffffffffffffffffffff16021790555033600160006101000a81548173ffffffffffffffffffffffffffffffffffffffff021916908373ffffffffffffffffffffffffffffffffffffffff1602179055505062000150565b600081519050620000d08162000136565b92915050565b600060208284031215620000e957600080fd5b6000620000f984828501620000bf565b91505092915050565b60006200010f8262000116565b9050919050565b600073ffffffffffffffffffffffffffffffffffffffff82169050919050565b620001418162000102565b81146200014d57600080fd5b50565b612c7980620001606000396000f3fe608060405234801561001057600080fd5b50600436106100cf5760003560e01c80635bc262be1161008c578063ba0ba54f11610066578063ba0ba54f14610228578063bf58d0ef14610258578063c1b8411a14610288578063ec342ad0146102a6576100cf565b80635bc262be146101aa578063734f6717146101da57806396c82e571461020a576100cf565b806303a82138146100d457806311aee380146100de5780631b89c139146100fc5780632007c6401461012c578063436f80be1461014a5780635364df491461017a575b600080fd5b6100dc6102c4565b005b6100e661041c565b6040516100f39190612963565b60405180910390f35b610116600480360381019061011191906125ed565b610429565b6040516101239190612948565b60405180910390f35b61013461066e565b60405161014191906128cb565b60405180910390f35b610164600480360381019061015f91906126ca565b6106fc565b6040516101719190612887565b60405180910390f35b610194600480360381019061018f919061259b565b61073b565b6040516101a19190612963565b60405180910390f35b6101c460048036038101906101bf91906125ed565b6107d5565b6040516101d191906128ed565b60405180910390f35b6101f460048036038101906101ef919061259b565b610e63565b60405161020191906128ed565b60405180910390f35b610212610e8e565b60405161021f9190612963565b60405180910390f35b610242600480360381019061023d91906125ed565b610e94565b60405161024f9190612963565b60405180910390f35b610272600480360381019061026d9190612629565b611160565b60405161027f91906128ed565b60405180910390f35b610290611879565b60405161029d9190612887565b60405180910390f35b6102ae61189f565b6040516102bb9190612887565b60405180910390f35b6102cc6118c3565b73ffffffffffffffffffffffffffffffffffffffff166398fabd3a6040518163ffffffff1660e01b815260040160206040518083038186803b15801561031157600080fd5b505afa158015610325573d6000803e3d6000fd5b505050506040513d601f19601f8201168201806040525081019061034991906125c4565b73ffffffffffffffffffffffffffffffffffffffff163373ffffffffffffffffffffffffffffffffffffffff1614806103cf5750600160009054906101000a900473ffffffffffffffffffffffffffffffffffffffff1673ffffffffffffffffffffffffffffffffffffffff163373ffffffffffffffffffffffffffffffffffffffff16145b6103d857600080fd5b6000600160006101000a81548173ffffffffffffffffffffffffffffffffffffffff021916908373ffffffffffffffffffffffffffffffffffffffff160217905550565b6000600380549050905090565b6104316124f3565b600460008373ffffffffffffffffffffffffffffffffffffffff1673ffffffffffffffffffffffffffffffffffffffff16815260200190815260200160002060020160008473ffffffffffffffffffffffffffffffffffffffff1673ffffffffffffffffffffffffffffffffffffffff16815260200190815260200160002060009054906101000a900460ff16816000019015159081151581525050600460008373ffffffffffffffffffffffffffffffffffffffff1673ffffffffffffffffffffffffffffffffffffffff16815260200190815260200160002060030160008473ffffffffffffffffffffffffffffffffffffffff1673ffffffffffffffffffffffffffffffffffffffff16815260200190815260200160002054816020018181525050600460008373ffffffffffffffffffffffffffffffffffffffff1673ffffffffffffffffffffffffffffffffffffffff16815260200190815260200160002060040160008473ffffffffffffffffffffffffffffffffffffffff1673ffffffffffffffffffffffffffffffffffffffff16815260200190815260200160002054816040018181525050600460008373ffffffffffffffffffffffffffffffffffffffff1673ffffffffffffffffffffffffffffffffffffffff16815260200190815260200160002060050160008473ffffffffffffffffffffffffffffffffffffffff1673ffffffffffffffffffffffffffffffffffffffff1681526020019081526020016000205481606001818152505092915050565b606060038054806020026020016040519081016040528092919081815260200182805480156106f257602002820191906000526020600020905b8160009054906101000a900473ffffffffffffffffffffffffffffffffffffffff1673ffffffffffffffffffffffffffffffffffffffff16815260200190600101908083116106a8575b5050505050905090565b6003818154811061070c57600080fd5b906000526020600020016000915054906101000a900473ffffffffffffffffffffffffffffffffffffffff1681565b600080600560008473ffffffffffffffffffffffffffffffffffffffff1673ffffffffffffffffffffffffffffffffffffffff1681526020019081526020016000205411156107cb57600560008373ffffffffffffffffffffffffffffffffffffffff1673ffffffffffffffffffffffffffffffffffffffff1681526020019081526020016000205490506107d0565b600090505b919050565b60006107df6118c3565b73ffffffffffffffffffffffffffffffffffffffff166398fabd3a6040518163ffffffff1660e01b815260040160206040518083038186803b15801561082457600080fd5b505afa158015610838573d6000803e3d6000fd5b505050506040513d601f19601f8201168201806040525081019061085c91906125c4565b73ffffffffffffffffffffffffffffffffffffffff163373ffffffffffffffffffffffffffffffffffffffff1614806108e25750600160009054906101000a900473ffffffffffffffffffffffffffffffffffffffff1673ffffffffffffffffffffffffffffffffffffffff163373ffffffffffffffffffffffffffffffffffffffff16145b6108eb57600080fd5b6000600460008573ffffffffffffffffffffffffffffffffffffffff1673ffffffffffffffffffffffffffffffffffffffff16815260200190815260200160002060030160008473ffffffffffffffffffffffffffffffffffffffff1673ffffffffffffffffffffffffffffffffffffffff16815260200190815260200160002054116109ad576040517f08c379a00000000000000000000000000000000000000000000000000000000081526004016109a490612908565b60405180910390fd5b600460008473ffffffffffffffffffffffffffffffffffffffff1673ffffffffffffffffffffffffffffffffffffffff16815260200190815260200160002060020160008373ffffffffffffffffffffffffffffffffffffffff1673ffffffffffffffffffffffffffffffffffffffff16815260200190815260200160002060009054906101000a900460ff16610a79576040517f08c379a0000000000000000000000000000000000000000000000000000000008152600401610a7090612928565b60405180910390fd5b6000610a858385610e94565b90506000610a916118c3565b73ffffffffffffffffffffffffffffffffffffffff1663b99b0a0c6040518163ffffffff1660e01b815260040160206040518083038186803b158015610ad657600080fd5b505afa158015610aea573d6000803e3d6000fd5b505050506040513d601f19601f82011682018060405250810190610b0e91906125c4565b73ffffffffffffffffffffffffffffffffffffffff1663bbe4f6db866040518263ffffffff1660e01b8152600401610b469190612887565b60206040518083038186803b158015610b5e57600080fd5b505afa158015610b72573d6000803e3d6000fd5b505050506040513d601f19601f82011682018060405250810190610b9691906125c4565b905042600460008773ffffffffffffffffffffffffffffffffffffffff1673ffffffffffffffffffffffffffffffffffffffff16815260200190815260200160002060050160008673ffffffffffffffffffffffffffffffffffffffff1673ffffffffffffffffffffffffffffffffffffffff1681526020019081526020016000208190555081600460008773ffffffffffffffffffffffffffffffffffffffff1673ffffffffffffffffffffffffffffffffffffffff16815260200190815260200160002060030160008673ffffffffffffffffffffffffffffffffffffffff1673ffffffffffffffffffffffffffffffffffffffff1681526020019081526020016000206000828254610cab9190612aa9565b92505081905550600460008673ffffffffffffffffffffffffffffffffffffffff1673ffffffffffffffffffffffffffffffffffffffff16815260200190815260200160002060030160008573ffffffffffffffffffffffffffffffffffffffff1673ffffffffffffffffffffffffffffffffffffffff16815260200190815260200160002054821415610dbf576000600460008773ffffffffffffffffffffffffffffffffffffffff1673ffffffffffffffffffffffffffffffffffffffff16815260200190815260200160002060040160008673ffffffffffffffffffffffffffffffffffffffff1673ffffffffffffffffffffffffffffffffffffffff168152602001908152602001600020819055505b610dc98585611969565b8073ffffffffffffffffffffffffffffffffffffffff1663a9059cbb85846040518363ffffffff1660e01b8152600401610e049291906128a2565b602060405180830381600087803b158015610e1e57600080fd5b505af1158015610e32573d6000803e3d6000fd5b505050506040513d601f19601f82011682018060405250810190610e569190612678565b5060019250505092915050565b60046020528060005260406000206000915090508060000160009054906101000a900460ff16905081565b60025481565b6000600460008373ffffffffffffffffffffffffffffffffffffffff1673ffffffffffffffffffffffffffffffffffffffff16815260200190815260200160002060020160008473ffffffffffffffffffffffffffffffffffffffff1673ffffffffffffffffffffffffffffffffffffffff16815260200190815260200160002060009054906101000a900460ff1615611159576000600460008473ffffffffffffffffffffffffffffffffffffffff1673ffffffffffffffffffffffffffffffffffffffff16815260200190815260200160002060050160008573ffffffffffffffffffffffffffffffffffffffff1673ffffffffffffffffffffffffffffffffffffffff1681526020019081526020016000205442610fb59190612aa9565b90506000600460008573ffffffffffffffffffffffffffffffffffffffff1673ffffffffffffffffffffffffffffffffffffffff16815260200190815260200160002060040160008673ffffffffffffffffffffffffffffffffffffffff1673ffffffffffffffffffffffffffffffffffffffff16815260200190815260200160002054905080826110479190612a4f565b9250600460008573ffffffffffffffffffffffffffffffffffffffff1673ffffffffffffffffffffffffffffffffffffffff16815260200190815260200160002060030160008673ffffffffffffffffffffffffffffffffffffffff1673ffffffffffffffffffffffffffffffffffffffff16815260200190815260200160002054831061115257600460008573ffffffffffffffffffffffffffffffffffffffff1673ffffffffffffffffffffffffffffffffffffffff16815260200190815260200160002060030160008673ffffffffffffffffffffffffffffffffffffffff1673ffffffffffffffffffffffffffffffffffffffff1681526020019081526020016000205492505b505061115a565b5b92915050565b600061116a6118c3565b73ffffffffffffffffffffffffffffffffffffffff166398fabd3a6040518163ffffffff1660e01b815260040160206040518083038186803b1580156111af57600080fd5b505afa1580156111c3573d6000803e3d6000fd5b505050506040513d601f19601f820116820180604052508101906111e791906125c4565b73ffffffffffffffffffffffffffffffffffffffff163373ffffffffffffffffffffffffffffffffffffffff16148061126d5750600160009054906101000a900473ffffffffffffffffffffffffffffffffffffffff1673ffffffffffffffffffffffffffffffffffffffff163373ffffffffffffffffffffffffffffffffffffffff16145b61127657600080fd5b600460008573ffffffffffffffffffffffffffffffffffffffff1673ffffffffffffffffffffffffffffffffffffffff16815260200190815260200160002060020160008473ffffffffffffffffffffffffffffffffffffffff1673ffffffffffffffffffffffffffffffffffffffff16815260200190815260200160002060009054906101000a900460ff166114a6576001600460008673ffffffffffffffffffffffffffffffffffffffff1673ffffffffffffffffffffffffffffffffffffffff16815260200190815260200160002060020160008573ffffffffffffffffffffffffffffffffffffffff1673ffffffffffffffffffffffffffffffffffffffff16815260200190815260200160002060006101000a81548160ff0219169083151502179055506003839080600181540180825580915050600190039060005260206000200160009091909190916101000a81548173ffffffffffffffffffffffffffffffffffffffff021916908373ffffffffffffffffffffffffffffffffffffffff160217905550600460008573ffffffffffffffffffffffffffffffffffffffff1673ffffffffffffffffffffffffffffffffffffffff168152602001908152602001600020600101839080600181540180825580915050600190039060005260206000200160009091909190916101000a81548173ffffffffffffffffffffffffffffffffffffffff021916908373ffffffffffffffffffffffffffffffffffffffff1602179055505b6000600460008673ffffffffffffffffffffffffffffffffffffffff1673ffffffffffffffffffffffffffffffffffffffff16815260200190815260200160002060030160008573ffffffffffffffffffffffffffffffffffffffff1673ffffffffffffffffffffffffffffffffffffffff16815260200190815260200160002054146115395761153784846107d5565b505b81600460008673ffffffffffffffffffffffffffffffffffffffff1673ffffffffffffffffffffffffffffffffffffffff16815260200190815260200160002060030160008573ffffffffffffffffffffffffffffffffffffffff1673ffffffffffffffffffffffffffffffffffffffff16815260200190815260200160002060008282546115c891906129c8565b9250508190555042600460008673ffffffffffffffffffffffffffffffffffffffff1673ffffffffffffffffffffffffffffffffffffffff16815260200190815260200160002060050160008573ffffffffffffffffffffffffffffffffffffffff1673ffffffffffffffffffffffffffffffffffffffff1681526020019081526020016000208190555061165b6118c3565b73ffffffffffffffffffffffffffffffffffffffff166398fabd3a6040518163ffffffff1660e01b815260040160206040518083038186803b1580156116a057600080fd5b505afa1580156116b4573d6000803e3d6000fd5b505050506040513d601f19601f820116820180604052508101906116d891906125c4565b73ffffffffffffffffffffffffffffffffffffffff166365c71bbf6040518163ffffffff1660e01b8152600401602060405180830381600087803b15801561171f57600080fd5b505af1158015611733573d6000803e3d6000fd5b505050506040513d601f19601f8201168201806040525081019061175791906126f3565b600460008673ffffffffffffffffffffffffffffffffffffffff1673ffffffffffffffffffffffffffffffffffffffff16815260200190815260200160002060030160008573ffffffffffffffffffffffffffffffffffffffff1673ffffffffffffffffffffffffffffffffffffffff168152602001908152602001600020546117e19190612a1e565b600460008673ffffffffffffffffffffffffffffffffffffffff1673ffffffffffffffffffffffffffffffffffffffff16815260200190815260200160002060040160008573ffffffffffffffffffffffffffffffffffffffff1673ffffffffffffffffffffffffffffffffffffffff1681526020019081526020016000208190555061186e8484611eeb565b600190509392505050565b600160009054906101000a900473ffffffffffffffffffffffffffffffffffffffff1681565b60008054906101000a900473ffffffffffffffffffffffffffffffffffffffff1681565b60008060009054906101000a900473ffffffffffffffffffffffffffffffffffffffff1673ffffffffffffffffffffffffffffffffffffffff166398fabd3a6040518163ffffffff1660e01b815260040160206040518083038186803b15801561192c57600080fd5b505afa158015611940573d6000803e3d6000fd5b505050506040513d601f19601f8201168201806040525081019061196491906126a1565b905090565b60006119736118c3565b73ffffffffffffffffffffffffffffffffffffffff1663b99b0a0c6040518163ffffffff1660e01b815260040160206040518083038186803b1580156119b857600080fd5b505afa1580156119cc573d6000803e3d6000fd5b505050506040513d601f19601f820116820180604052508101906119f091906125c4565b73ffffffffffffffffffffffffffffffffffffffff1663bbe4f6db846040518263ffffffff1660e01b8152600401611a289190612887565b60206040518083038186803b158015611a4057600080fd5b505afa158015611a54573d6000803e3d6000fd5b505050506040513d601f19601f82011682018060405250810190611a7891906125c4565b9050600660008373ffffffffffffffffffffffffffffffffffffffff1673ffffffffffffffffffffffffffffffffffffffff16815260200190815260200160002060008273ffffffffffffffffffffffffffffffffffffffff1673ffffffffffffffffffffffffffffffffffffffff1681526020019081526020016000205460026000828254611b089190612aa9565b92505081905550600660008373ffffffffffffffffffffffffffffffffffffffff1673ffffffffffffffffffffffffffffffffffffffff16815260200190815260200160002060008273ffffffffffffffffffffffffffffffffffffffff1673ffffffffffffffffffffffffffffffffffffffff16815260200190815260200160002054600560008473ffffffffffffffffffffffffffffffffffffffff1673ffffffffffffffffffffffffffffffffffffffff1681526020019081526020016000206000828254611bda9190612aa9565b925050819055506000600660008473ffffffffffffffffffffffffffffffffffffffff1673ffffffffffffffffffffffffffffffffffffffff16815260200190815260200160002060008373ffffffffffffffffffffffffffffffffffffffff1673ffffffffffffffffffffffffffffffffffffffff168152602001908152602001600020819055506000611c6d6118c3565b73ffffffffffffffffffffffffffffffffffffffff16637b0e5c456040518163ffffffff1660e01b815260040160206040518083038186803b158015611cb257600080fd5b505afa158015611cc6573d6000803e3d6000fd5b505050506040513d601f19601f82011682018060405250810190611cea91906125c4565b73ffffffffffffffffffffffffffffffffffffffff1663ca2e5b6585600460008873ffffffffffffffffffffffffffffffffffffffff1673ffffffffffffffffffffffffffffffffffffffff16815260200190815260200160002060030160008773ffffffffffffffffffffffffffffffffffffffff1673ffffffffffffffffffffffffffffffffffffffff168152602001908152602001600020546040518363ffffffff1660e01b8152600401611da39291906128a2565b60206040518083038186803b158015611dbb57600080fd5b505afa158015611dcf573d6000803e3d6000fd5b505050506040513d601f19601f82011682018060405250810190611df391906126f3565b905080600660008573ffffffffffffffffffffffffffffffffffffffff1673ffffffffffffffffffffffffffffffffffffffff16815260200190815260200160002060008473ffffffffffffffffffffffffffffffffffffffff1673ffffffffffffffffffffffffffffffffffffffff1681526020019081526020016000208190555080600560008573ffffffffffffffffffffffffffffffffffffffff1673ffffffffffffffffffffffffffffffffffffffff1681526020019081526020016000206000828254611ec591906129c8565b925050819055508060026000828254611ede91906129c8565b9250508190555050505050565b6000611ef56118c3565b73ffffffffffffffffffffffffffffffffffffffff1663b99b0a0c6040518163ffffffff1660e01b815260040160206040518083038186803b158015611f3a57600080fd5b505afa158015611f4e573d6000803e3d6000fd5b505050506040513d601f19601f82011682018060405250810190611f7291906125c4565b73ffffffffffffffffffffffffffffffffffffffff1663bbe4f6db846040518263ffffffff1660e01b8152600401611faa9190612887565b60206040518083038186803b158015611fc257600080fd5b505afa158015611fd6573d6000803e3d6000fd5b505050506040513d601f19601f82011682018060405250810190611ffa91906125c4565b90506000600660008473ffffffffffffffffffffffffffffffffffffffff1673ffffffffffffffffffffffffffffffffffffffff16815260200190815260200160002060008373ffffffffffffffffffffffffffffffffffffffff1673ffffffffffffffffffffffffffffffffffffffff16815260200190815260200160002054111561226b57600660008373ffffffffffffffffffffffffffffffffffffffff1673ffffffffffffffffffffffffffffffffffffffff16815260200190815260200160002060008273ffffffffffffffffffffffffffffffffffffffff1673ffffffffffffffffffffffffffffffffffffffff168152602001908152602001600020546002600082825461210f9190612aa9565b92505081905550600660008373ffffffffffffffffffffffffffffffffffffffff1673ffffffffffffffffffffffffffffffffffffffff16815260200190815260200160002060008273ffffffffffffffffffffffffffffffffffffffff1673ffffffffffffffffffffffffffffffffffffffff16815260200190815260200160002054600560008473ffffffffffffffffffffffffffffffffffffffff1673ffffffffffffffffffffffffffffffffffffffff16815260200190815260200160002060008282546121e19190612aa9565b925050819055506000600660008473ffffffffffffffffffffffffffffffffffffffff1673ffffffffffffffffffffffffffffffffffffffff16815260200190815260200160002060008373ffffffffffffffffffffffffffffffffffffffff1673ffffffffffffffffffffffffffffffffffffffff168152602001908152602001600020819055505b60006122756118c3565b73ffffffffffffffffffffffffffffffffffffffff16637b0e5c456040518163ffffffff1660e01b815260040160206040518083038186803b1580156122ba57600080fd5b505afa1580156122ce573d6000803e3d6000fd5b505050506040513d601f19601f820116820180604052508101906122f291906125c4565b73ffffffffffffffffffffffffffffffffffffffff1663ca2e5b6585600460008873ffffffffffffffffffffffffffffffffffffffff1673ffffffffffffffffffffffffffffffffffffffff16815260200190815260200160002060030160008773ffffffffffffffffffffffffffffffffffffffff1673ffffffffffffffffffffffffffffffffffffffff168152602001908152602001600020546040518363ffffffff1660e01b81526004016123ab9291906128a2565b60206040518083038186803b1580156123c357600080fd5b505afa1580156123d7573d6000803e3d6000fd5b505050506040513d601f19601f820116820180604052508101906123fb91906126f3565b905080600660008573ffffffffffffffffffffffffffffffffffffffff1673ffffffffffffffffffffffffffffffffffffffff16815260200190815260200160002060008473ffffffffffffffffffffffffffffffffffffffff1673ffffffffffffffffffffffffffffffffffffffff1681526020019081526020016000208190555080600560008573ffffffffffffffffffffffffffffffffffffffff1673ffffffffffffffffffffffffffffffffffffffff16815260200190815260200160002060008282546124cd91906129c8565b9250508190555080600260008282546124e691906129c8565b9250508190555050505050565b60405180608001604052806000151581526020016000815260200160008152602001600081525090565b60008135905061252c81612be7565b92915050565b60008151905061254181612be7565b92915050565b60008151905061255681612bfe565b92915050565b60008151905061256b81612c15565b92915050565b60008135905061258081612c2c565b92915050565b60008151905061259581612c2c565b92915050565b6000602082840312156125ad57600080fd5b60006125bb8482850161251d565b91505092915050565b6000602082840312156125d657600080fd5b60006125e484828501612532565b91505092915050565b6000806040838503121561260057600080fd5b600061260e8582860161251d565b925050602061261f8582860161251d565b9150509250929050565b60008060006060848603121561263e57600080fd5b600061264c8682870161251d565b935050602061265d8682870161251d565b925050604061266e86828701612571565b9150509250925092565b60006020828403121561268a57600080fd5b600061269884828501612547565b91505092915050565b6000602082840312156126b357600080fd5b60006126c18482850161255c565b91505092915050565b6000602082840312156126dc57600080fd5b60006126ea84828501612571565b91505092915050565b60006020828403121561270557600080fd5b600061271384828501612586565b91505092915050565b60006127288383612734565b60208301905092915050565b61273d81612add565b82525050565b61274c81612add565b82525050565b600061275d8261298e565b61276781856129a6565b93506127728361297e565b8060005b838110156127a357815161278a888261271c565b975061279583612999565b925050600181019050612776565b5085935050505092915050565b6127b981612aef565b82525050565b6127c881612aef565b82525050565b60006127db6007836129b7565b91506127e682612b95565b602082019050919050565b60006127fe6007836129b7565b915061280982612bbe565b602082019050919050565b60808201600082015161282a60008501826127b0565b50602082015161283d6020850182612869565b5060408201516128506040850182612869565b5060608201516128636060850182612869565b50505050565b61287281612b2d565b82525050565b61288181612b2d565b82525050565b600060208201905061289c6000830184612743565b92915050565b60006040820190506128b76000830185612743565b6128c46020830184612878565b9392505050565b600060208201905081810360008301526128e58184612752565b905092915050565b600060208201905061290260008301846127bf565b92915050565b60006020820190508181036000830152612921816127ce565b9050919050565b60006020820190508181036000830152612941816127f1565b9050919050565b600060808201905061295d6000830184612814565b92915050565b60006020820190506129786000830184612878565b92915050565b6000819050602082019050919050565b600081519050919050565b6000602082019050919050565b600082825260208201905092915050565b600082825260208201905092915050565b60006129d382612b2d565b91506129de83612b2d565b9250827fffffffffffffffffffffffffffffffffffffffffffffffffffffffffffffffff03821115612a1357612a12612b37565b5b828201905092915050565b6000612a2982612b2d565b9150612a3483612b2d565b925082612a4457612a43612b66565b5b828204905092915050565b6000612a5a82612b2d565b9150612a6583612b2d565b9250817fffffffffffffffffffffffffffffffffffffffffffffffffffffffffffffffff0483118215151615612a9e57612a9d612b37565b5b828202905092915050565b6000612ab482612b2d565b9150612abf83612b2d565b925082821015612ad257612ad1612b37565b5b828203905092915050565b6000612ae882612b0d565b9050919050565b60008115159050919050565b6000612b0682612add565b9050919050565b600073ffffffffffffffffffffffffffffffffffffffff82169050919050565b6000819050919050565b7f4e487b7100000000000000000000000000000000000000000000000000000000600052601160045260246000fd5b7f4e487b7100000000000000000000000000000000000000000000000000000000600052601260045260246000fd5b7f21626f6e64656400000000000000000000000000000000000000000000000000600082015250565b7f216d656d62657200000000000000000000000000000000000000000000000000600082015250565b612bf081612add565b8114612bfb57600080fd5b50565b612c0781612aef565b8114612c1257600080fd5b50565b612c1e81612afb565b8114612c2957600080fd5b50565b612c3581612b2d565b8114612c4057600080fd5b5056fea264697066735822122030c7358486f8b7bba7a2edd6cafcebfc6e397597bafd34cd65d72856b4c6348364736f6c63430008030033",
  "linkReferences": {},
  "deployedLinkReferences": {}
}