{
  "_format": "hh-sol-artifact-1",
  "contractName": "BondVault",
  "sourceName": "contracts/BondVault.sol",
  "abi": [
    {
      "inputs": [
        {
          "internalType": "address",
          "name": "_base",
          "type": "address"
        }
      ],
      "stateMutability": "nonpayable",
      "type": "constructor"
    },
    {
      "inputs": [],
      "name": "BASE",
      "outputs": [
        {
          "internalType": "address",
          "name": "",
          "type": "address"
        }
      ],
      "stateMutability": "view",
      "type": "function"
    },
    {
      "inputs": [],
      "name": "DEPLOYER",
      "outputs": [
        {
          "internalType": "address",
          "name": "",
          "type": "address"
        }
      ],
      "stateMutability": "view",
      "type": "function"
    },
    {
      "inputs": [],
      "name": "allMembers",
      "outputs": [
        {
          "internalType": "address[]",
          "name": "_allMembers",
          "type": "address[]"
        }
      ],
      "stateMutability": "view",
      "type": "function"
    },
    {
      "inputs": [
        {
          "internalType": "uint256",
          "name": "",
          "type": "uint256"
        }
      ],
      "name": "arrayMembers",
      "outputs": [
        {
          "internalType": "address",
          "name": "",
          "type": "address"
        }
      ],
      "stateMutability": "view",
      "type": "function"
    },
    {
      "inputs": [
        {
          "internalType": "address",
          "name": "member",
          "type": "address"
        },
        {
          "internalType": "address",
          "name": "_pool",
          "type": "address"
        }
      ],
      "name": "calcBondedLP",
      "outputs": [
        {
          "internalType": "uint256",
          "name": "claimAmount",
          "type": "uint256"
        }
      ],
      "stateMutability": "view",
      "type": "function"
    },
    {
      "inputs": [
        {
          "internalType": "address",
          "name": "_pool",
          "type": "address"
        },
        {
          "internalType": "address",
          "name": "member",
          "type": "address"
        }
      ],
      "name": "claimForMember",
      "outputs": [
        {
          "internalType": "bool",
          "name": "",
          "type": "bool"
        }
      ],
      "stateMutability": "nonpayable",
      "type": "function"
    },
    {
      "inputs": [
        {
          "internalType": "address",
          "name": "_pool",
          "type": "address"
        },
        {
          "internalType": "address",
          "name": "member",
          "type": "address"
        },
        {
          "internalType": "uint256",
          "name": "amount",
          "type": "uint256"
        }
      ],
      "name": "depositForMember",
      "outputs": [
        {
          "internalType": "bool",
          "name": "",
          "type": "bool"
        }
      ],
      "stateMutability": "nonpayable",
      "type": "function"
    },
    {
      "inputs": [
        {
          "internalType": "address",
          "name": "member",
          "type": "address"
        },
        {
          "internalType": "address",
          "name": "_pool",
          "type": "address"
        }
      ],
      "name": "getMemberDetails",
      "outputs": [
        {
          "components": [
            {
              "internalType": "bool",
              "name": "isMember",
              "type": "bool"
            },
            {
              "internalType": "uint256",
              "name": "bondedLP",
              "type": "uint256"
            },
            {
              "internalType": "uint256",
              "name": "claimRate",
              "type": "uint256"
            },
            {
              "internalType": "uint256",
              "name": "lastBlockTime",
              "type": "uint256"
            }
          ],
          "internalType": "struct BondVault.MemberDetails",
          "name": "memberDetails",
          "type": "tuple"
        }
      ],
      "stateMutability": "view",
      "type": "function"
    },
    {
      "inputs": [
        {
          "internalType": "address",
          "name": "member",
          "type": "address"
        }
      ],
      "name": "getMemberLPWeight",
      "outputs": [
        {
          "internalType": "uint256",
          "name": "memberWeight",
          "type": "uint256"
        },
        {
          "internalType": "uint256",
          "name": "totalWeight",
          "type": "uint256"
        }
      ],
      "stateMutability": "nonpayable",
      "type": "function"
    },
    {
      "inputs": [
        {
          "internalType": "address",
          "name": "_pool",
          "type": "address"
        },
        {
          "internalType": "address",
          "name": "member",
          "type": "address"
        }
      ],
      "name": "getMemberPoolBalance",
      "outputs": [
        {
          "internalType": "uint256",
          "name": "",
          "type": "uint256"
        }
      ],
      "stateMutability": "view",
      "type": "function"
    },
    {
      "inputs": [
        {
          "internalType": "address",
          "name": "",
          "type": "address"
        }
      ],
      "name": "isBondMember",
      "outputs": [
        {
          "internalType": "bool",
          "name": "",
          "type": "bool"
        }
      ],
      "stateMutability": "view",
      "type": "function"
    },
    {
      "inputs": [
        {
          "internalType": "address",
          "name": "",
          "type": "address"
        }
      ],
      "name": "mapBondedAmount_memberDetails",
      "outputs": [
        {
          "internalType": "bool",
          "name": "isListed",
          "type": "bool"
        }
      ],
      "stateMutability": "view",
      "type": "function"
    },
    {
      "inputs": [
        {
          "internalType": "address",
          "name": "",
          "type": "address"
        }
      ],
      "name": "mapTotalPool_balance",
      "outputs": [
        {
          "internalType": "uint256",
          "name": "",
          "type": "uint256"
        }
      ],
      "stateMutability": "view",
      "type": "function"
    },
    {
      "inputs": [],
      "name": "memberCount",
      "outputs": [
        {
          "internalType": "uint256",
          "name": "count",
          "type": "uint256"
        }
      ],
      "stateMutability": "view",
      "type": "function"
    },
    {
      "inputs": [],
      "name": "purgeDeployer",
      "outputs": [],
      "stateMutability": "nonpayable",
      "type": "function"
    },
    {
      "inputs": [],
      "name": "release",
      "outputs": [],
      "stateMutability": "nonpayable",
      "type": "function"
    }
  ],
  "bytecode": "0x60a06040523480156200001157600080fd5b506040516200323b3803806200323b833981810160405281019062000037919062000159565b600073ffffffffffffffffffffffffffffffffffffffff168173ffffffffffffffffffffffffffffffffffffffff161415620000aa576040517f08c379a0000000000000000000000000000000000000000000000000000000008152600401620000a190620001ac565b60405180910390fd5b8073ffffffffffffffffffffffffffffffffffffffff1660808173ffffffffffffffffffffffffffffffffffffffff1660601b81525050336000806101000a81548173ffffffffffffffffffffffffffffffffffffffff021916908373ffffffffffffffffffffffffffffffffffffffff16021790555060008060146101000a81548160ff0219169083151502179055505062000256565b60008151905062000153816200023c565b92915050565b6000602082840312156200016c57600080fd5b60006200017c8482850162000142565b91505092915050565b600062000194600583620001ce565b9150620001a18262000213565b602082019050919050565b60006020820190508181036000830152620001c78162000185565b9050919050565b600082825260208201905092915050565b6000620001ec82620001f3565b9050919050565b600073ffffffffffffffffffffffffffffffffffffffff82169050919050565b7f215a45524f000000000000000000000000000000000000000000000000000000600082015250565b6200024781620001df565b81146200025357600080fd5b50565b60805160601c612fbf6200027c6000396000818161236101526123870152612fbf6000f3fe608060405234801561001057600080fd5b50600436106101005760003560e01c806389ce859411610097578063ba0ba54f11610066578063ba0ba54f146102d6578063bf58d0ef14610306578063c1b8411a14610336578063ec342ad01461035457610100565b806389ce859414610215578063a477b80414610245578063aa9fd37414610276578063ae4d7faa146102a657610100565b8063436f80be116100d3578063436f80be1461017b5780635bc262be146101ab57806386d1a69f146101db57806389bbd670146101e557610100565b806303a821381461010557806311aee3801461010f5780631b89c1391461012d5780632007c6401461015d575b600080fd5b61010d610372565b005b6101176104c7565b6040516101249190612afa565b60405180910390f35b6101476004803603810190610142919061267a565b6104d4565b6040516101549190612adf565b60405180910390f35b610165610719565b6040516101729190612a02565b60405180910390f35b61019560048036038101906101909190612798565b6107a7565b6040516101a291906129be565b60405180910390f35b6101c560048036038101906101c0919061267a565b6107e6565b6040516101d29190612a24565b60405180910390f35b6101e3610e5b565b005b6101ff60048036038101906101fa9190612628565b610f8a565b60405161020c9190612afa565b60405180910390f35b61022f600480360381019061022a9190612628565b610fa2565b60405161023c9190612a24565b60405180910390f35b61025f600480360381019061025a9190612628565b610fc2565b60405161026d929190612b15565b60405180910390f35b610290600480360381019061028b919061267a565b611794565b60405161029d9190612afa565b60405180910390f35b6102c060048036038101906102bb9190612628565b61181e565b6040516102cd9190612a24565b60405180910390f35b6102f060048036038101906102eb919061267a565b611849565b6040516102fd9190612afa565b60405180910390f35b610320600480360381019061031b91906126b6565b611b2e565b60405161032d9190612a24565b60405180910390f35b61033e61233b565b60405161034b91906129be565b60405180910390f35b61035c61235f565b60405161036991906129be565b60405180910390f35b61037a612383565b73ffffffffffffffffffffffffffffffffffffffff166398fabd3a6040518163ffffffff1660e01b815260040160206040518083038186803b1580156103bf57600080fd5b505afa1580156103d3573d6000803e3d6000fd5b505050506040513d601f19601f820116820180604052508101906103f79190612651565b73ffffffffffffffffffffffffffffffffffffffff163373ffffffffffffffffffffffffffffffffffffffff16148061047b575060008054906101000a900473ffffffffffffffffffffffffffffffffffffffff1673ffffffffffffffffffffffffffffffffffffffff163373ffffffffffffffffffffffffffffffffffffffff16145b61048457600080fd5b60008060006101000a81548173ffffffffffffffffffffffffffffffffffffffff021916908373ffffffffffffffffffffffffffffffffffffffff160217905550565b6000600180549050905090565b6104dc6124ea565b600260008373ffffffffffffffffffffffffffffffffffffffff1673ffffffffffffffffffffffffffffffffffffffff16815260200190815260200160002060020160008473ffffffffffffffffffffffffffffffffffffffff1673ffffffffffffffffffffffffffffffffffffffff16815260200190815260200160002060009054906101000a900460ff16816000019015159081151581525050600260008373ffffffffffffffffffffffffffffffffffffffff1673ffffffffffffffffffffffffffffffffffffffff16815260200190815260200160002060030160008473ffffffffffffffffffffffffffffffffffffffff1673ffffffffffffffffffffffffffffffffffffffff16815260200190815260200160002054816020018181525050600260008373ffffffffffffffffffffffffffffffffffffffff1673ffffffffffffffffffffffffffffffffffffffff16815260200190815260200160002060040160008473ffffffffffffffffffffffffffffffffffffffff1673ffffffffffffffffffffffffffffffffffffffff16815260200190815260200160002054816040018181525050600260008373ffffffffffffffffffffffffffffffffffffffff1673ffffffffffffffffffffffffffffffffffffffff16815260200190815260200160002060050160008473ffffffffffffffffffffffffffffffffffffffff1673ffffffffffffffffffffffffffffffffffffffff1681526020019081526020016000205481606001818152505092915050565b6060600180548060200260200160405190810160405280929190818152602001828054801561079d57602002820191906000526020600020905b8160009054906101000a900473ffffffffffffffffffffffffffffffffffffffff1673ffffffffffffffffffffffffffffffffffffffff1681526020019060010190808311610753575b5050505050905090565b600181815481106107b757600080fd5b906000526020600020016000915054906101000a900473ffffffffffffffffffffffffffffffffffffffff1681565b60006107f0612383565b73ffffffffffffffffffffffffffffffffffffffff166398fabd3a6040518163ffffffff1660e01b815260040160206040518083038186803b15801561083557600080fd5b505afa158015610849573d6000803e3d6000fd5b505050506040513d601f19601f8201168201806040525081019061086d9190612651565b73ffffffffffffffffffffffffffffffffffffffff163373ffffffffffffffffffffffffffffffffffffffff1614806108f1575060008054906101000a900473ffffffffffffffffffffffffffffffffffffffff1673ffffffffffffffffffffffffffffffffffffffff163373ffffffffffffffffffffffffffffffffffffffff16145b6108fa57600080fd5b600073ffffffffffffffffffffffffffffffffffffffff168373ffffffffffffffffffffffffffffffffffffffff16141561096a576040517f08c379a000000000000000000000000000000000000000000000000000000000815260040161096190612a3f565b60405180910390fd5b6000600260008573ffffffffffffffffffffffffffffffffffffffff1673ffffffffffffffffffffffffffffffffffffffff16815260200190815260200160002060030160008473ffffffffffffffffffffffffffffffffffffffff1673ffffffffffffffffffffffffffffffffffffffff1681526020019081526020016000205411610a2c576040517f08c379a0000000000000000000000000000000000000000000000000000000008152600401610a2390612a5f565b60405180910390fd5b600260008473ffffffffffffffffffffffffffffffffffffffff1673ffffffffffffffffffffffffffffffffffffffff16815260200190815260200160002060020160008373ffffffffffffffffffffffffffffffffffffffff1673ffffffffffffffffffffffffffffffffffffffff16815260200190815260200160002060009054906101000a900460ff16610af8576040517f08c379a0000000000000000000000000000000000000000000000000000000008152600401610aef90612a7f565b60405180910390fd5b6000610b048385611849565b905042600260008673ffffffffffffffffffffffffffffffffffffffff1673ffffffffffffffffffffffffffffffffffffffff16815260200190815260200160002060050160008573ffffffffffffffffffffffffffffffffffffffff1673ffffffffffffffffffffffffffffffffffffffff1681526020019081526020016000208190555080600260008673ffffffffffffffffffffffffffffffffffffffff1673ffffffffffffffffffffffffffffffffffffffff16815260200190815260200160002060030160008573ffffffffffffffffffffffffffffffffffffffff1673ffffffffffffffffffffffffffffffffffffffff1681526020019081526020016000206000828254610c199190612cba565b925050819055506000600260008673ffffffffffffffffffffffffffffffffffffffff1673ffffffffffffffffffffffffffffffffffffffff16815260200190815260200160002060030160008573ffffffffffffffffffffffffffffffffffffffff1673ffffffffffffffffffffffffffffffffffffffff168152602001908152602001600020541415610d2e576000600260008673ffffffffffffffffffffffffffffffffffffffff1673ffffffffffffffffffffffffffffffffffffffff16815260200190815260200160002060040160008573ffffffffffffffffffffffffffffffffffffffff1673ffffffffffffffffffffffffffffffffffffffff168152602001908152602001600020819055505b80600460008673ffffffffffffffffffffffffffffffffffffffff1673ffffffffffffffffffffffffffffffffffffffff1681526020019081526020016000206000828254610d7d9190612cba565b925050819055508373ffffffffffffffffffffffffffffffffffffffff1663a9059cbb84836040518363ffffffff1660e01b8152600401610dbf9291906129d9565b602060405180830381600087803b158015610dd957600080fd5b505af1158015610ded573d6000803e3d6000fd5b505050506040513d601f19601f82011682018060405250810190610e119190612746565b610e50576040517f08c379a0000000000000000000000000000000000000000000000000000000008152600401610e4790612a9f565b60405180910390fd5b600191505092915050565b610e63612383565b73ffffffffffffffffffffffffffffffffffffffff166398fabd3a6040518163ffffffff1660e01b815260040160206040518083038186803b158015610ea857600080fd5b505afa158015610ebc573d6000803e3d6000fd5b505050506040513d601f19601f82011682018060405250810190610ee09190612651565b73ffffffffffffffffffffffffffffffffffffffff163373ffffffffffffffffffffffffffffffffffffffff161480610f64575060008054906101000a900473ffffffffffffffffffffffffffffffffffffffff1673ffffffffffffffffffffffffffffffffffffffff163373ffffffffffffffffffffffffffffffffffffffff16145b610f6d57600080fd5b6001600060146101000a81548160ff021916908315150217905550565b60046020528060005260406000206000915090505481565b60036020528060005260406000206000915054906101000a900460ff1681565b600080610fcd612383565b73ffffffffffffffffffffffffffffffffffffffff166398fabd3a6040518163ffffffff1660e01b815260040160206040518083038186803b15801561101257600080fd5b505afa158015611026573d6000803e3d6000fd5b505050506040513d601f19601f8201168201806040525081019061104a9190612651565b73ffffffffffffffffffffffffffffffffffffffff163373ffffffffffffffffffffffffffffffffffffffff1614806110ce575060008054906101000a900473ffffffffffffffffffffffffffffffffffffffff1673ffffffffffffffffffffffffffffffffffffffff163373ffffffffffffffffffffffffffffffffffffffff16145b6110d757600080fd5b600115156110e3612383565b73ffffffffffffffffffffffffffffffffffffffff16639d2cc4366040518163ffffffff1660e01b815260040160206040518083038186803b15801561112857600080fd5b505afa15801561113c573d6000803e3d6000fd5b505050506040513d601f19601f820116820180604052508101906111609190612651565b73ffffffffffffffffffffffffffffffffffffffff1663194e22ce6040518163ffffffff1660e01b8152600401602060405180830381600087803b1580156111a757600080fd5b505af11580156111bb573d6000803e3d6000fd5b505050506040513d601f19601f820116820180604052508101906111df9190612746565b15151415611222576040517f08c379a000000000000000000000000000000000000000000000000000000000815260040161121990612abf565b60405180910390fd5b600061122c612383565b73ffffffffffffffffffffffffffffffffffffffff166398fabd3a6040518163ffffffff1660e01b815260040160206040518083038186803b15801561127157600080fd5b505afa158015611285573d6000803e3d6000fd5b505050506040513d601f19601f820116820180604052508101906112a99190612651565b73ffffffffffffffffffffffffffffffffffffffff166335cb5fe06040518163ffffffff1660e01b8152600401600060405180830381600087803b1580156112f057600080fd5b505af1158015611304573d6000803e3d6000fd5b505050506040513d6000823e3d601f19601f8201168201806040525081019061132d9190612705565b905060005b815181101561178d57611384828281518110611377577f4e487b7100000000000000000000000000000000000000000000000000000000600052603260045260246000fd5b6020026020010151612428565b61138c612383565b73ffffffffffffffffffffffffffffffffffffffff16637b0e5c456040518163ffffffff1660e01b815260040160206040518083038186803b1580156113d157600080fd5b505afa1580156113e5573d6000803e3d6000fd5b505050506040513d601f19601f820116820180604052508101906114099190612651565b73ffffffffffffffffffffffffffffffffffffffff1663ca2e5b6583838151811061145d577f4e487b7100000000000000000000000000000000000000000000000000000000600052603260045260246000fd5b6020026020010151600260008686815181106114a2577f4e487b7100000000000000000000000000000000000000000000000000000000600052603260045260246000fd5b602002602001015173ffffffffffffffffffffffffffffffffffffffff1673ffffffffffffffffffffffffffffffffffffffff16815260200190815260200160002060030160008973ffffffffffffffffffffffffffffffffffffffff1673ffffffffffffffffffffffffffffffffffffffff168152602001908152602001600020546040518363ffffffff1660e01b81526004016115429291906129d9565b60206040518083038186803b15801561155a57600080fd5b505afa15801561156e573d6000803e3d6000fd5b505050506040513d601f19601f8201168201806040525081019061159291906127c1565b8461159d9190612bd9565b93506115a7612383565b73ffffffffffffffffffffffffffffffffffffffff16637b0e5c456040518163ffffffff1660e01b815260040160206040518083038186803b1580156115ec57600080fd5b505afa158015611600573d6000803e3d6000fd5b505050506040513d601f19601f820116820180604052508101906116249190612651565b73ffffffffffffffffffffffffffffffffffffffff1663ca2e5b65838381518110611678577f4e487b7100000000000000000000000000000000000000000000000000000000600052603260045260246000fd5b6020026020010151600460008686815181106116bd577f4e487b7100000000000000000000000000000000000000000000000000000000600052603260045260246000fd5b602002602001015173ffffffffffffffffffffffffffffffffffffffff1673ffffffffffffffffffffffffffffffffffffffff168152602001908152602001600020546040518363ffffffff1660e01b815260040161171d9291906129d9565b60206040518083038186803b15801561173557600080fd5b505afa158015611749573d6000803e3d6000fd5b505050506040513d601f19601f8201168201806040525081019061176d91906127c1565b836117789190612bd9565b9250808061178590612d79565b915050611332565b5050915091565b6000600260008473ffffffffffffffffffffffffffffffffffffffff1673ffffffffffffffffffffffffffffffffffffffff16815260200190815260200160002060030160008373ffffffffffffffffffffffffffffffffffffffff1673ffffffffffffffffffffffffffffffffffffffff16815260200190815260200160002054905092915050565b60026020528060005260406000206000915090508060000160009054906101000a900460ff16905081565b6000600260008373ffffffffffffffffffffffffffffffffffffffff1673ffffffffffffffffffffffffffffffffffffffff16815260200190815260200160002060020160008473ffffffffffffffffffffffffffffffffffffffff1673ffffffffffffffffffffffffffffffffffffffff16815260200190815260200160002060009054906101000a900460ff1615611b27576000600260008473ffffffffffffffffffffffffffffffffffffffff1673ffffffffffffffffffffffffffffffffffffffff16815260200190815260200160002060050160008573ffffffffffffffffffffffffffffffffffffffff1673ffffffffffffffffffffffffffffffffffffffff168152602001908152602001600020544261196a9190612cba565b90506000600260008573ffffffffffffffffffffffffffffffffffffffff1673ffffffffffffffffffffffffffffffffffffffff16815260200190815260200160002060040160008673ffffffffffffffffffffffffffffffffffffffff1673ffffffffffffffffffffffffffffffffffffffff16815260200190815260200160002054905080826119fc9190612c60565b9250600260008573ffffffffffffffffffffffffffffffffffffffff1673ffffffffffffffffffffffffffffffffffffffff16815260200190815260200160002060030160008673ffffffffffffffffffffffffffffffffffffffff1673ffffffffffffffffffffffffffffffffffffffff1681526020019081526020016000205483101580611a985750600060149054906101000a900460ff165b15611b2057600260008573ffffffffffffffffffffffffffffffffffffffff1673ffffffffffffffffffffffffffffffffffffffff16815260200190815260200160002060030160008673ffffffffffffffffffffffffffffffffffffffff1673ffffffffffffffffffffffffffffffffffffffff1681526020019081526020016000205492505b5050611b28565b5b92915050565b6000611b38612383565b73ffffffffffffffffffffffffffffffffffffffff166398fabd3a6040518163ffffffff1660e01b815260040160206040518083038186803b158015611b7d57600080fd5b505afa158015611b91573d6000803e3d6000fd5b505050506040513d601f19601f82011682018060405250810190611bb59190612651565b73ffffffffffffffffffffffffffffffffffffffff163373ffffffffffffffffffffffffffffffffffffffff161480611c39575060008054906101000a900473ffffffffffffffffffffffffffffffffffffffff1673ffffffffffffffffffffffffffffffffffffffff163373ffffffffffffffffffffffffffffffffffffffff16145b611c4257600080fd5b600260008573ffffffffffffffffffffffffffffffffffffffff1673ffffffffffffffffffffffffffffffffffffffff16815260200190815260200160002060020160008473ffffffffffffffffffffffffffffffffffffffff1673ffffffffffffffffffffffffffffffffffffffff16815260200190815260200160002060009054906101000a900460ff16611e0f576001600260008673ffffffffffffffffffffffffffffffffffffffff1673ffffffffffffffffffffffffffffffffffffffff16815260200190815260200160002060020160008573ffffffffffffffffffffffffffffffffffffffff1673ffffffffffffffffffffffffffffffffffffffff16815260200190815260200160002060006101000a81548160ff021916908315150217905550600260008573ffffffffffffffffffffffffffffffffffffffff1673ffffffffffffffffffffffffffffffffffffffff168152602001908152602001600020600101839080600181540180825580915050600190039060005260206000200160009091909190916101000a81548173ffffffffffffffffffffffffffffffffffffffff021916908373ffffffffffffffffffffffffffffffffffffffff1602179055505b600360008473ffffffffffffffffffffffffffffffffffffffff1673ffffffffffffffffffffffffffffffffffffffff16815260200190815260200160002060009054906101000a900460ff16611f1c576001600360008573ffffffffffffffffffffffffffffffffffffffff1673ffffffffffffffffffffffffffffffffffffffff16815260200190815260200160002060006101000a81548160ff0219169083151502179055506001839080600181540180825580915050600190039060005260206000200160009091909190916101000a81548173ffffffffffffffffffffffffffffffffffffffff021916908373ffffffffffffffffffffffffffffffffffffffff1602179055505b6000600260008673ffffffffffffffffffffffffffffffffffffffff1673ffffffffffffffffffffffffffffffffffffffff16815260200190815260200160002060030160008573ffffffffffffffffffffffffffffffffffffffff1673ffffffffffffffffffffffffffffffffffffffff1681526020019081526020016000205414611faf57611fad84846107e6565b505b81600260008673ffffffffffffffffffffffffffffffffffffffff1673ffffffffffffffffffffffffffffffffffffffff16815260200190815260200160002060030160008573ffffffffffffffffffffffffffffffffffffffff1673ffffffffffffffffffffffffffffffffffffffff168152602001908152602001600020600082825461203e9190612bd9565b9250508190555042600260008673ffffffffffffffffffffffffffffffffffffffff1673ffffffffffffffffffffffffffffffffffffffff16815260200190815260200160002060050160008573ffffffffffffffffffffffffffffffffffffffff1673ffffffffffffffffffffffffffffffffffffffff168152602001908152602001600020819055506120d1612383565b73ffffffffffffffffffffffffffffffffffffffff166398fabd3a6040518163ffffffff1660e01b815260040160206040518083038186803b15801561211657600080fd5b505afa15801561212a573d6000803e3d6000fd5b505050506040513d601f19601f8201168201806040525081019061214e9190612651565b73ffffffffffffffffffffffffffffffffffffffff166365c71bbf6040518163ffffffff1660e01b8152600401602060405180830381600087803b15801561219557600080fd5b505af11580156121a9573d6000803e3d6000fd5b505050506040513d601f19601f820116820180604052508101906121cd91906127c1565b600260008673ffffffffffffffffffffffffffffffffffffffff1673ffffffffffffffffffffffffffffffffffffffff16815260200190815260200160002060030160008573ffffffffffffffffffffffffffffffffffffffff1673ffffffffffffffffffffffffffffffffffffffff168152602001908152602001600020546122579190612c2f565b600260008673ffffffffffffffffffffffffffffffffffffffff1673ffffffffffffffffffffffffffffffffffffffff16815260200190815260200160002060040160008573ffffffffffffffffffffffffffffffffffffffff1673ffffffffffffffffffffffffffffffffffffffff1681526020019081526020016000208190555081600460008673ffffffffffffffffffffffffffffffffffffffff1673ffffffffffffffffffffffffffffffffffffffff16815260200190815260200160002060008282546123299190612bd9565b92505081905550600190509392505050565b60008054906101000a900473ffffffffffffffffffffffffffffffffffffffff1681565b7f000000000000000000000000000000000000000000000000000000000000000081565b60007f000000000000000000000000000000000000000000000000000000000000000073ffffffffffffffffffffffffffffffffffffffff166398fabd3a6040518163ffffffff1660e01b815260040160206040518083038186803b1580156123eb57600080fd5b505afa1580156123ff573d6000803e3d6000fd5b505050506040513d601f19601f82011682018060405250810190612423919061276f565b905090565b6124be8160405160240161243c91906129be565b6040516020818303038152906040527f2c2ecbc2000000000000000000000000000000000000000000000000000000007bffffffffffffffffffffffffffffffffffffffffffffffffffffffff19166020820180517bffffffffffffffffffffffffffffffffffffffffffffffffffffffff83818316178352505050506124c1565b50565b60008151905060006a636f6e736f6c652e6c6f679050602083016000808483855afa5050505050565b60405180608001604052806000151581526020016000815260200160008152602001600081525090565b600061252761252284612b63565b612b3e565b9050808382526020820190508285602086028201111561254657600080fd5b60005b85811015612576578161255c8882612595565b845260208401935060208301925050600181019050612549565b5050509392505050565b60008135905061258f81612f2d565b92915050565b6000815190506125a481612f2d565b92915050565b600082601f8301126125bb57600080fd5b81516125cb848260208601612514565b91505092915050565b6000815190506125e381612f44565b92915050565b6000815190506125f881612f5b565b92915050565b60008135905061260d81612f72565b92915050565b60008151905061262281612f72565b92915050565b60006020828403121561263a57600080fd5b600061264884828501612580565b91505092915050565b60006020828403121561266357600080fd5b600061267184828501612595565b91505092915050565b6000806040838503121561268d57600080fd5b600061269b85828601612580565b92505060206126ac85828601612580565b9150509250929050565b6000806000606084860312156126cb57600080fd5b60006126d986828701612580565b93505060206126ea86828701612580565b92505060406126fb868287016125fe565b9150509250925092565b60006020828403121561271757600080fd5b600082015167ffffffffffffffff81111561273157600080fd5b61273d848285016125aa565b91505092915050565b60006020828403121561275857600080fd5b6000612766848285016125d4565b91505092915050565b60006020828403121561278157600080fd5b600061278f848285016125e9565b91505092915050565b6000602082840312156127aa57600080fd5b60006127b8848285016125fe565b91505092915050565b6000602082840312156127d357600080fd5b60006127e184828501612613565b91505092915050565b60006127f68383612802565b60208301905092915050565b61280b81612cee565b82525050565b61281a81612cee565b82525050565b600061282b82612b9f565b6128358185612bb7565b935061284083612b8f565b8060005b8381101561287157815161285888826127ea565b975061286383612baa565b925050600181019050612844565b5085935050505092915050565b61288781612d00565b82525050565b61289681612d00565b82525050565b60006128a9600583612bc8565b91506128b482612e60565b602082019050919050565b60006128cc600783612bc8565b91506128d782612e89565b602082019050919050565b60006128ef600783612bc8565b91506128fa82612eb2565b602082019050919050565b6000612912600983612bc8565b915061291d82612edb565b602082019050919050565b6000612935600583612bc8565b915061294082612f04565b602082019050919050565b608082016000820151612961600085018261287e565b50602082015161297460208501826129a0565b50604082015161298760408501826129a0565b50606082015161299a60608501826129a0565b50505050565b6129a981612d3e565b82525050565b6129b881612d3e565b82525050565b60006020820190506129d36000830184612811565b92915050565b60006040820190506129ee6000830185612811565b6129fb60208301846129af565b9392505050565b60006020820190508181036000830152612a1c8184612820565b905092915050565b6000602082019050612a39600083018461288d565b92915050565b60006020820190508181036000830152612a588161289c565b9050919050565b60006020820190508181036000830152612a78816128bf565b9050919050565b60006020820190508181036000830152612a98816128e2565b9050919050565b60006020820190508181036000830152612ab881612905565b9050919050565b60006020820190508181036000830152612ad881612928565b9050919050565b6000608082019050612af4600083018461294b565b92915050565b6000602082019050612b0f60008301846129af565b92915050565b6000604082019050612b2a60008301856129af565b612b3760208301846129af565b9392505050565b6000612b48612b59565b9050612b548282612d48565b919050565b6000604051905090565b600067ffffffffffffffff821115612b7e57612b7d612e20565b5b602082029050602081019050919050565b6000819050602082019050919050565b600081519050919050565b6000602082019050919050565b600082825260208201905092915050565b600082825260208201905092915050565b6000612be482612d3e565b9150612bef83612d3e565b9250827fffffffffffffffffffffffffffffffffffffffffffffffffffffffffffffffff03821115612c2457612c23612dc2565b5b828201905092915050565b6000612c3a82612d3e565b9150612c4583612d3e565b925082612c5557612c54612df1565b5b828204905092915050565b6000612c6b82612d3e565b9150612c7683612d3e565b9250817fffffffffffffffffffffffffffffffffffffffffffffffffffffffffffffffff0483118215151615612caf57612cae612dc2565b5b828202905092915050565b6000612cc582612d3e565b9150612cd083612d3e565b925082821015612ce357612ce2612dc2565b5b828203905092915050565b6000612cf982612d1e565b9050919050565b60008115159050919050565b6000612d1782612cee565b9050919050565b600073ffffffffffffffffffffffffffffffffffffffff82169050919050565b6000819050919050565b612d5182612e4f565b810181811067ffffffffffffffff82111715612d7057612d6f612e20565b5b80604052505050565b6000612d8482612d3e565b91507fffffffffffffffffffffffffffffffffffffffffffffffffffffffffffffffff821415612db757612db6612dc2565b5b600182019050919050565b7f4e487b7100000000000000000000000000000000000000000000000000000000600052601160045260246000fd5b7f4e487b7100000000000000000000000000000000000000000000000000000000600052601260045260246000fd5b7f4e487b7100000000000000000000000000000000000000000000000000000000600052604160045260246000fd5b6000601f19601f8301169050919050565b7f21504f4f4c000000000000000000000000000000000000000000000000000000600082015250565b7f21626f6e64656400000000000000000000000000000000000000000000000000600082015250565b7f216d656d62657200000000000000000000000000000000000000000000000000600082015250565b7f217472616e736665720000000000000000000000000000000000000000000000600082015250565b7f2153414645000000000000000000000000000000000000000000000000000000600082015250565b612f3681612cee565b8114612f4157600080fd5b50565b612f4d81612d00565b8114612f5857600080fd5b50565b612f6481612d0c565b8114612f6f57600080fd5b50565b612f7b81612d3e565b8114612f8657600080fd5b5056fea2646970667358221220003d1bfd5595c558c095477ad0c3e4accb6486f33e0048ac36d88b22d0f40a5564736f6c63430008030033",
  "linkReferences": {},
  "deployedLinkReferences": {}
}