{
  "_format": "hh-sol-artifact-1",
  "contractName": "Utils",
  "sourceName": "contracts/Utils.sol",
  "abi": [
    {
      "inputs": [
        {
          "internalType": "address",
          "name": "_base",
          "type": "address"
        }
      ],
      "stateMutability": "nonpayable",
      "type": "constructor"
    },
    {
      "inputs": [],
      "name": "BASE",
      "outputs": [
        {
          "internalType": "address",
          "name": "",
          "type": "address"
        }
      ],
      "stateMutability": "view",
      "type": "function"
    },
    {
      "inputs": [
        {
          "internalType": "uint256",
          "name": "units",
          "type": "uint256"
        },
        {
          "internalType": "address",
          "name": "token",
          "type": "address"
        },
        {
          "internalType": "address",
          "name": "pool",
          "type": "address"
        }
      ],
      "name": "calcLiquidityHoldings",
      "outputs": [
        {
          "internalType": "uint256",
          "name": "share",
          "type": "uint256"
        }
      ],
      "stateMutability": "view",
      "type": "function"
    },
    {
      "inputs": [
        {
          "internalType": "uint256",
          "name": "b",
          "type": "uint256"
        },
        {
          "internalType": "uint256",
          "name": "B",
          "type": "uint256"
        },
        {
          "internalType": "uint256",
          "name": "t",
          "type": "uint256"
        },
        {
          "internalType": "uint256",
          "name": "T",
          "type": "uint256"
        },
        {
          "internalType": "uint256",
          "name": "P",
          "type": "uint256"
        }
      ],
      "name": "calcLiquidityUnits",
      "outputs": [
        {
          "internalType": "uint256",
          "name": "units",
          "type": "uint256"
        }
      ],
      "stateMutability": "view",
      "type": "function"
    },
    {
      "inputs": [
        {
          "internalType": "uint256",
          "name": "bp",
          "type": "uint256"
        },
        {
          "internalType": "uint256",
          "name": "total",
          "type": "uint256"
        }
      ],
      "name": "calcPart",
      "outputs": [
        {
          "internalType": "uint256",
          "name": "",
          "type": "uint256"
        }
      ],
      "stateMutability": "pure",
      "type": "function"
    },
    {
      "inputs": [
        {
          "internalType": "uint256",
          "name": "part",
          "type": "uint256"
        },
        {
          "internalType": "uint256",
          "name": "total",
          "type": "uint256"
        },
        {
          "internalType": "uint256",
          "name": "amount",
          "type": "uint256"
        }
      ],
      "name": "calcShare",
      "outputs": [
        {
          "internalType": "uint256",
          "name": "share",
          "type": "uint256"
        }
      ],
      "stateMutability": "pure",
      "type": "function"
    },
    {
      "inputs": [
        {
          "internalType": "uint256",
          "name": "totalSupply",
          "type": "uint256"
        },
        {
          "internalType": "uint256",
          "name": "maxSupply",
          "type": "uint256"
        }
      ],
      "name": "getFeeOnTransfer",
      "outputs": [
        {
          "internalType": "uint256",
          "name": "",
          "type": "uint256"
        }
      ],
      "stateMutability": "pure",
      "type": "function"
    },
    {
      "inputs": [
        {
          "internalType": "address",
          "name": "token",
          "type": "address"
        }
      ],
      "name": "getPoolData",
      "outputs": [
        {
          "components": [
            {
              "internalType": "address",
              "name": "tokenAddress",
              "type": "address"
            },
            {
              "internalType": "address",
              "name": "poolAddress",
              "type": "address"
            },
            {
              "internalType": "uint256",
              "name": "genesis",
              "type": "uint256"
            },
            {
              "internalType": "uint256",
              "name": "baseAmount",
              "type": "uint256"
            },
            {
              "internalType": "uint256",
              "name": "tokenAmount",
              "type": "uint256"
            },
            {
              "internalType": "uint256",
              "name": "fees",
              "type": "uint256"
            },
            {
              "internalType": "uint256",
              "name": "volume",
              "type": "uint256"
            },
            {
              "internalType": "uint256",
              "name": "txCount",
              "type": "uint256"
            },
            {
              "internalType": "uint256",
              "name": "poolUnits",
              "type": "uint256"
            }
          ],
          "internalType": "struct Utils.PoolDataStruct",
          "name": "poolData",
          "type": "tuple"
        }
      ],
      "stateMutability": "view",
      "type": "function"
    },
    {
      "inputs": [
        {
          "internalType": "uint256",
          "name": "b",
          "type": "uint256"
        },
        {
          "internalType": "uint256",
          "name": "B",
          "type": "uint256"
        },
        {
          "internalType": "uint256",
          "name": "t",
          "type": "uint256"
        },
        {
          "internalType": "uint256",
          "name": "T",
          "type": "uint256"
        }
      ],
      "name": "getSlipAdustment",
      "outputs": [
        {
          "internalType": "uint256",
          "name": "slipAdjustment",
          "type": "uint256"
        }
      ],
      "stateMutability": "view",
      "type": "function"
    },
    {
      "inputs": [],
      "name": "one",
      "outputs": [
        {
          "internalType": "uint256",
          "name": "",
          "type": "uint256"
        }
      ],
      "stateMutability": "view",
      "type": "function"
    }
  ],
  "bytecode": "0x6080604052670de0b6b3a76400006001553480156200001d57600080fd5b506040516200131a3803806200131a8339818101604052810190620000439190620000a1565b806000806101000a81548173ffffffffffffffffffffffffffffffffffffffff021916908373ffffffffffffffffffffffffffffffffffffffff160217905550506200011b565b6000815190506200009b8162000101565b92915050565b600060208284031215620000b457600080fd5b6000620000c4848285016200008a565b91505092915050565b6000620000da82620000e1565b9050919050565b600073ffffffffffffffffffffffffffffffffffffffff82169050919050565b6200010c81620000cd565b81146200011857600080fd5b50565b6111ef806200012b6000396000f3fe608060405234801561001057600080fd5b50600436106100935760003560e01c8063714270ab11610066578063714270ab146101585780638b18b11514610188578063901717d1146101b8578063c5c11ee9146101d6578063ec342ad01461020657610093565b806313d21cdf146100985780631ba326c4146100c85780635a7b2ed3146100f85780636da0f1fc14610128575b600080fd5b6100b260048036038101906100ad9190610b99565b610224565b6040516100bf9190610f42565b60405180910390f35b6100e260048036038101906100dd9190610cc8565b6105d0565b6040516100ef9190610f5e565b60405180910390f35b610112600480360381019061010d9190610c3d565b610608565b60405161011f9190610f5e565b60405180910390f35b610142600480360381019061013d9190610d17565b610809565b60405161014f9190610f5e565b60405180910390f35b610172600480360381019061016d9190610c8c565b6108c8565b60405161017f9190610f5e565b60405180910390f35b6101a2600480360381019061019d9190610c8c565b610924565b6040516101af9190610f5e565b60405180910390f35b6101c061093a565b6040516101cd9190610f5e565b60405180910390f35b6101f060048036038101906101eb9190610d7a565b610940565b6040516101fd9190610f5e565b60405180910390f35b61020e6109ee565b60405161021b9190610f07565b60405180910390f35b61022c610ab8565b6000610236610a12565b73ffffffffffffffffffffffffffffffffffffffff1663b99b0a0c6040518163ffffffff1660e01b815260040160206040518083038186803b15801561027b57600080fd5b505afa15801561028f573d6000803e3d6000fd5b505050506040513d601f19601f820116820180604052508101906102b39190610bc2565b73ffffffffffffffffffffffffffffffffffffffff1663bbe4f6db846040518263ffffffff1660e01b81526004016102eb9190610f07565b60206040518083038186803b15801561030357600080fd5b505afa158015610317573d6000803e3d6000fd5b505050506040513d601f19601f8201168201806040525081019061033b9190610bc2565b905080826020019073ffffffffffffffffffffffffffffffffffffffff16908173ffffffffffffffffffffffffffffffffffffffff168152505082826000019073ffffffffffffffffffffffffffffffffffffffff16908173ffffffffffffffffffffffffffffffffffffffff16815250508073ffffffffffffffffffffffffffffffffffffffff1663a7f0b3de6040518163ffffffff1660e01b815260040160206040518083038186803b1580156103f357600080fd5b505afa158015610407573d6000803e3d6000fd5b505050506040513d601f19601f8201168201806040525081019061042b9190610c14565b8260400181815250508073ffffffffffffffffffffffffffffffffffffffff16634864d1406040518163ffffffff1660e01b815260040160206040518083038186803b15801561047a57600080fd5b505afa15801561048e573d6000803e3d6000fd5b505050506040513d601f19601f820116820180604052508101906104b29190610c14565b8260600181815250508073ffffffffffffffffffffffffffffffffffffffff1663eec7faa16040518163ffffffff1660e01b815260040160206040518083038186803b15801561050157600080fd5b505afa158015610515573d6000803e3d6000fd5b505050506040513d601f19601f820116820180604052508101906105399190610c14565b8260800181815250508073ffffffffffffffffffffffffffffffffffffffff166318160ddd6040518163ffffffff1660e01b815260040160206040518083038186803b15801561058857600080fd5b505afa15801561059c573d6000803e3d6000fd5b505050506040513d601f19601f820116820180604052508101906105c09190610c14565b8261010001818152505050919050565b6000828411156105de578293505b6000831115610601578284836105f49190611011565b6105fe9190610fe0565b90505b9392505050565b60008060008054906101000a900473ffffffffffffffffffffffffffffffffffffffff1673ffffffffffffffffffffffffffffffffffffffff168473ffffffffffffffffffffffffffffffffffffffff1614156106e4578273ffffffffffffffffffffffffffffffffffffffff16634864d1406040518163ffffffff1660e01b815260040160206040518083038186803b1580156106a557600080fd5b505afa1580156106b9573d6000803e3d6000fd5b505050506040513d601f19601f820116820180604052508101906106dd9190610c14565b9050610765565b8273ffffffffffffffffffffffffffffffffffffffff1663eec7faa16040518163ffffffff1660e01b815260040160206040518083038186803b15801561072a57600080fd5b505afa15801561073e573d6000803e3d6000fd5b505050506040513d601f19601f820116820180604052508101906107629190610c14565b90505b60008373ffffffffffffffffffffffffffffffffffffffff166318160ddd6040518163ffffffff1660e01b815260040160206040518083038186803b1580156107ad57600080fd5b505afa1580156107c1573d6000803e3d6000fd5b505050506040513d601f19601f820116820180604052508101906107e59190610c14565b90508086836107f49190611011565b6107fe9190610fe0565b925050509392505050565b60008083856108189190611011565b9050600083876108289190611011565b905060008660028961083a9190611011565b6108449190610f8a565b9050600085876108549190610f8a565b905060008385111561087357838561086c919061106b565b9050610882565b848461087f919061106b565b90505b600082846108909190611011565b905080600154836108a19190611011565b6108ab9190610fe0565b6001546108b8919061106b565b9650505050505050949350505050565b600061271083111561090f576040517f08c379a000000000000000000000000000000000000000000000000000000000815260040161090690610f22565b60405180910390fd5b61091c83612710846105d0565b905092915050565b6000610932838360646105d0565b905092915050565b60015481565b600080821415610952578590506109e5565b600061096087878787610809565b9050600086866109709190611011565b9050600088866109809190611011565b90506000600289886109929190611011565b61099c9190611011565b905060008183856109ad9190610f8a565b886109b89190611011565b6109c29190610fe0565b905060015485826109d39190611011565b6109dd9190610fe0565b955050505050505b95945050505050565b60008054906101000a900473ffffffffffffffffffffffffffffffffffffffff1681565b60008060009054906101000a900473ffffffffffffffffffffffffffffffffffffffff1673ffffffffffffffffffffffffffffffffffffffff166398fabd3a6040518163ffffffff1660e01b815260040160206040518083038186803b158015610a7b57600080fd5b505afa158015610a8f573d6000803e3d6000fd5b505050506040513d601f19601f82011682018060405250810190610ab39190610beb565b905090565b604051806101200160405280600073ffffffffffffffffffffffffffffffffffffffff168152602001600073ffffffffffffffffffffffffffffffffffffffff168152602001600081526020016000815260200160008152602001600081526020016000815260200160008152602001600081525090565b600081359050610b3f81611174565b92915050565b600081519050610b5481611174565b92915050565b600081519050610b698161118b565b92915050565b600081359050610b7e816111a2565b92915050565b600081519050610b93816111a2565b92915050565b600060208284031215610bab57600080fd5b6000610bb984828501610b30565b91505092915050565b600060208284031215610bd457600080fd5b6000610be284828501610b45565b91505092915050565b600060208284031215610bfd57600080fd5b6000610c0b84828501610b5a565b91505092915050565b600060208284031215610c2657600080fd5b6000610c3484828501610b84565b91505092915050565b600080600060608486031215610c5257600080fd5b6000610c6086828701610b6f565b9350506020610c7186828701610b30565b9250506040610c8286828701610b30565b9150509250925092565b60008060408385031215610c9f57600080fd5b6000610cad85828601610b6f565b9250506020610cbe85828601610b6f565b9150509250929050565b600080600060608486031215610cdd57600080fd5b6000610ceb86828701610b6f565b9350506020610cfc86828701610b6f565b9250506040610d0d86828701610b6f565b9150509250925092565b60008060008060808587031215610d2d57600080fd5b6000610d3b87828801610b6f565b9450506020610d4c87828801610b6f565b9350506040610d5d87828801610b6f565b9250506060610d6e87828801610b6f565b91505092959194509250565b600080600080600060a08688031215610d9257600080fd5b6000610da088828901610b6f565b9550506020610db188828901610b6f565b9450506040610dc288828901610b6f565b9350506060610dd388828901610b6f565b9250506080610de488828901610b6f565b9150509295509295909350565b610dfa8161109f565b82525050565b610e098161109f565b82525050565b6000610e1c601283610f79565b9150610e278261114b565b602082019050919050565b61012082016000820151610e496000850182610df1565b506020820151610e5c6020850182610df1565b506040820151610e6f6040850182610ee9565b506060820151610e826060850182610ee9565b506080820151610e956080850182610ee9565b5060a0820151610ea860a0850182610ee9565b5060c0820151610ebb60c0850182610ee9565b5060e0820151610ece60e0850182610ee9565b50610100820151610ee3610100850182610ee9565b50505050565b610ef2816110e3565b82525050565b610f01816110e3565b82525050565b6000602082019050610f1c6000830184610e00565b92915050565b60006020820190508181036000830152610f3b81610e0f565b9050919050565b600061012082019050610f586000830184610e32565b92915050565b6000602082019050610f736000830184610ef8565b92915050565b600082825260208201905092915050565b6000610f95826110e3565b9150610fa0836110e3565b9250827fffffffffffffffffffffffffffffffffffffffffffffffffffffffffffffffff03821115610fd557610fd46110ed565b5b828201905092915050565b6000610feb826110e3565b9150610ff6836110e3565b9250826110065761100561111c565b5b828204905092915050565b600061101c826110e3565b9150611027836110e3565b9250817fffffffffffffffffffffffffffffffffffffffffffffffffffffffffffffffff04831182151516156110605761105f6110ed565b5b828202905092915050565b6000611076826110e3565b9150611081836110e3565b925082821015611094576110936110ed565b5b828203905092915050565b60006110aa826110c3565b9050919050565b60006110bc8261109f565b9050919050565b600073ffffffffffffffffffffffffffffffffffffffff82169050919050565b6000819050919050565b7f4e487b7100000000000000000000000000000000000000000000000000000000600052601160045260246000fd5b7f4e487b7100000000000000000000000000000000000000000000000000000000600052601260045260246000fd5b7f4d75737420626520636f72726563742042500000000000000000000000000000600082015250565b61117d8161109f565b811461118857600080fd5b50565b611194816110b1565b811461119f57600080fd5b50565b6111ab816110e3565b81146111b657600080fd5b5056fea2646970667358221220633a374257cefcb03161a20b97da5f3147fcb1b9476e9ec7d47d221445895d0764736f6c63430008030033",
  "linkReferences": {},
  "deployedLinkReferences": {}
}