{
  "_format": "hh-sol-artifact-1",
  "contractName": "Utils",
  "sourceName": "contracts/Utils.sol",
  "abi": [
    {
      "inputs": [
        {
          "internalType": "address",
          "name": "_base",
          "type": "address"
        }
      ],
      "stateMutability": "nonpayable",
      "type": "constructor"
    },
    {
      "inputs": [],
      "name": "BASE",
      "outputs": [
        {
          "internalType": "address",
          "name": "",
          "type": "address"
        }
      ],
      "stateMutability": "view",
      "type": "function"
    },
    {
      "inputs": [
        {
          "internalType": "uint256",
          "name": "amount",
          "type": "uint256"
        },
        {
          "internalType": "address",
          "name": "synth",
          "type": "address"
        }
      ],
      "name": "calcActualSynthUnits",
      "outputs": [
        {
          "internalType": "uint256",
          "name": "_output",
          "type": "uint256"
        }
      ],
      "stateMutability": "view",
      "type": "function"
    },
    {
      "inputs": [
        {
          "internalType": "address",
          "name": "pool",
          "type": "address"
        },
        {
          "internalType": "uint256",
          "name": "amount",
          "type": "uint256"
        }
      ],
      "name": "calcAsymmetricValueToken",
      "outputs": [
        {
          "internalType": "uint256",
          "name": "tokenValue",
          "type": "uint256"
        }
      ],
      "stateMutability": "view",
      "type": "function"
    },
    {
      "inputs": [
        {
          "internalType": "uint256",
          "name": "units",
          "type": "uint256"
        },
        {
          "internalType": "address",
          "name": "token",
          "type": "address"
        },
        {
          "internalType": "address",
          "name": "pool",
          "type": "address"
        }
      ],
      "name": "calcLiquidityHoldings",
      "outputs": [
        {
          "internalType": "uint256",
          "name": "share",
          "type": "uint256"
        }
      ],
      "stateMutability": "view",
      "type": "function"
    },
    {
      "inputs": [
        {
          "internalType": "uint256",
          "name": "b",
          "type": "uint256"
        },
        {
          "internalType": "uint256",
          "name": "B",
          "type": "uint256"
        },
        {
          "internalType": "uint256",
          "name": "t",
          "type": "uint256"
        },
        {
          "internalType": "uint256",
          "name": "T",
          "type": "uint256"
        },
        {
          "internalType": "uint256",
          "name": "P",
          "type": "uint256"
        }
      ],
      "name": "calcLiquidityUnits",
      "outputs": [
        {
          "internalType": "uint256",
          "name": "units",
          "type": "uint256"
        }
      ],
      "stateMutability": "view",
      "type": "function"
    },
    {
      "inputs": [
        {
          "internalType": "uint256",
          "name": "amount",
          "type": "uint256"
        },
        {
          "internalType": "address",
          "name": "pool",
          "type": "address"
        }
      ],
      "name": "calcLiquidityUnitsAsym",
      "outputs": [
        {
          "internalType": "uint256",
          "name": "units",
          "type": "uint256"
        }
      ],
      "stateMutability": "view",
      "type": "function"
    },
    {
      "inputs": [
        {
          "internalType": "uint256",
          "name": "bp",
          "type": "uint256"
        },
        {
          "internalType": "uint256",
          "name": "total",
          "type": "uint256"
        }
      ],
      "name": "calcPart",
      "outputs": [
        {
          "internalType": "uint256",
          "name": "",
          "type": "uint256"
        }
      ],
      "stateMutability": "pure",
      "type": "function"
    },
    {
      "inputs": [
        {
          "internalType": "uint256",
          "name": "part",
          "type": "uint256"
        },
        {
          "internalType": "uint256",
          "name": "total",
          "type": "uint256"
        },
        {
          "internalType": "uint256",
          "name": "amount",
          "type": "uint256"
        }
      ],
      "name": "calcShare",
      "outputs": [
        {
          "internalType": "uint256",
          "name": "share",
          "type": "uint256"
        }
      ],
      "stateMutability": "pure",
      "type": "function"
    },
    {
      "inputs": [
        {
          "internalType": "address",
          "name": "token",
          "type": "address"
        },
        {
          "internalType": "uint256",
          "name": "amount",
          "type": "uint256"
        }
      ],
      "name": "calcSpotValueInBase",
      "outputs": [
        {
          "internalType": "uint256",
          "name": "value",
          "type": "uint256"
        }
      ],
      "stateMutability": "view",
      "type": "function"
    },
    {
      "inputs": [
        {
          "internalType": "address",
          "name": "pool",
          "type": "address"
        },
        {
          "internalType": "uint256",
          "name": "amount",
          "type": "uint256"
        }
      ],
      "name": "calcSpotValueInBaseWithPool",
      "outputs": [
        {
          "internalType": "uint256",
          "name": "value",
          "type": "uint256"
        }
      ],
      "stateMutability": "view",
      "type": "function"
    },
    {
      "inputs": [
        {
          "internalType": "address",
          "name": "token",
          "type": "address"
        },
        {
          "internalType": "uint256",
          "name": "amount",
          "type": "uint256"
        }
      ],
      "name": "calcSpotValueInToken",
      "outputs": [
        {
          "internalType": "uint256",
          "name": "value",
          "type": "uint256"
        }
      ],
      "stateMutability": "view",
      "type": "function"
    },
    {
      "inputs": [
        {
          "internalType": "address",
          "name": "pool",
          "type": "address"
        },
        {
          "internalType": "uint256",
          "name": "amount",
          "type": "uint256"
        }
      ],
      "name": "calcSpotValueInTokenWithPool",
      "outputs": [
        {
          "internalType": "uint256",
          "name": "value",
          "type": "uint256"
        }
      ],
      "stateMutability": "view",
      "type": "function"
    },
    {
      "inputs": [
        {
          "internalType": "uint256",
          "name": "x",
          "type": "uint256"
        },
        {
          "internalType": "uint256",
          "name": "X",
          "type": "uint256"
        },
        {
          "internalType": "uint256",
          "name": "Y",
          "type": "uint256"
        }
      ],
      "name": "calcSwapFee",
      "outputs": [
        {
          "internalType": "uint256",
          "name": "output",
          "type": "uint256"
        }
      ],
      "stateMutability": "pure",
      "type": "function"
    },
    {
      "inputs": [
        {
          "internalType": "uint256",
          "name": "x",
          "type": "uint256"
        },
        {
          "internalType": "uint256",
          "name": "X",
          "type": "uint256"
        },
        {
          "internalType": "uint256",
          "name": "Y",
          "type": "uint256"
        }
      ],
      "name": "calcSwapOutput",
      "outputs": [
        {
          "internalType": "uint256",
          "name": "output",
          "type": "uint256"
        }
      ],
      "stateMutability": "pure",
      "type": "function"
    },
    {
      "inputs": [
        {
          "internalType": "address",
          "name": "token",
          "type": "address"
        },
        {
          "internalType": "uint256",
          "name": "amount",
          "type": "uint256"
        }
      ],
      "name": "calcSwapValueInBase",
      "outputs": [
        {
          "internalType": "uint256",
          "name": "_output",
          "type": "uint256"
        }
      ],
      "stateMutability": "view",
      "type": "function"
    },
    {
      "inputs": [
        {
          "internalType": "address",
          "name": "pool",
          "type": "address"
        },
        {
          "internalType": "uint256",
          "name": "amount",
          "type": "uint256"
        }
      ],
      "name": "calcSwapValueInBaseWithPool",
      "outputs": [
        {
          "internalType": "uint256",
          "name": "_output",
          "type": "uint256"
        }
      ],
      "stateMutability": "view",
      "type": "function"
    },
    {
      "inputs": [
        {
          "internalType": "address",
          "name": "synth",
          "type": "address"
        },
        {
          "internalType": "uint256",
          "name": "amount",
          "type": "uint256"
        }
      ],
      "name": "calcSwapValueInBaseWithSYNTH",
      "outputs": [
        {
          "internalType": "uint256",
          "name": "_output",
          "type": "uint256"
        }
      ],
      "stateMutability": "view",
      "type": "function"
    },
    {
      "inputs": [
        {
          "internalType": "address",
          "name": "token",
          "type": "address"
        },
        {
          "internalType": "uint256",
          "name": "amount",
          "type": "uint256"
        }
      ],
      "name": "calcSwapValueInToken",
      "outputs": [
        {
          "internalType": "uint256",
          "name": "_output",
          "type": "uint256"
        }
      ],
      "stateMutability": "view",
      "type": "function"
    },
    {
      "inputs": [
        {
          "internalType": "address",
          "name": "pool",
          "type": "address"
        },
        {
          "internalType": "uint256",
          "name": "amount",
          "type": "uint256"
        }
      ],
      "name": "calcSwapValueInTokenWithPool",
      "outputs": [
        {
          "internalType": "uint256",
          "name": "_output",
          "type": "uint256"
        }
      ],
      "stateMutability": "view",
      "type": "function"
    },
    {
      "inputs": [
        {
          "internalType": "uint256",
          "name": "totalSupply",
          "type": "uint256"
        },
        {
          "internalType": "uint256",
          "name": "maxSupply",
          "type": "uint256"
        }
      ],
      "name": "getFeeOnTransfer",
      "outputs": [
        {
          "internalType": "uint256",
          "name": "",
          "type": "uint256"
        }
      ],
      "stateMutability": "pure",
      "type": "function"
    },
    {
      "inputs": [
        {
          "internalType": "address",
          "name": "token",
          "type": "address"
        }
      ],
      "name": "getPool",
      "outputs": [
        {
          "internalType": "address",
          "name": "pool",
          "type": "address"
        }
      ],
      "stateMutability": "view",
      "type": "function"
    },
    {
      "inputs": [
        {
          "internalType": "address",
          "name": "token",
          "type": "address"
        }
      ],
      "name": "getPoolData",
      "outputs": [
        {
          "components": [
            {
              "internalType": "address",
              "name": "tokenAddress",
              "type": "address"
            },
            {
              "internalType": "address",
              "name": "poolAddress",
              "type": "address"
            },
            {
              "internalType": "uint256",
              "name": "genesis",
              "type": "uint256"
            },
            {
              "internalType": "uint256",
              "name": "baseAmount",
              "type": "uint256"
            },
            {
              "internalType": "uint256",
              "name": "tokenAmount",
              "type": "uint256"
            },
            {
              "internalType": "uint256",
              "name": "fees",
              "type": "uint256"
            },
            {
              "internalType": "uint256",
              "name": "volume",
              "type": "uint256"
            },
            {
              "internalType": "uint256",
              "name": "txCount",
              "type": "uint256"
            },
            {
              "internalType": "uint256",
              "name": "poolUnits",
              "type": "uint256"
            }
          ],
          "internalType": "struct Utils.PoolDataStruct",
          "name": "poolData",
          "type": "tuple"
        }
      ],
      "stateMutability": "view",
      "type": "function"
    },
    {
      "inputs": [
        {
          "internalType": "address",
          "name": "token",
          "type": "address"
        },
        {
          "internalType": "uint256",
          "name": "units",
          "type": "uint256"
        }
      ],
      "name": "getPoolShareWeight",
      "outputs": [
        {
          "internalType": "uint256",
          "name": "weight",
          "type": "uint256"
        }
      ],
      "stateMutability": "view",
      "type": "function"
    },
    {
      "inputs": [
        {
          "internalType": "uint256",
          "name": "b",
          "type": "uint256"
        },
        {
          "internalType": "uint256",
          "name": "B",
          "type": "uint256"
        },
        {
          "internalType": "uint256",
          "name": "t",
          "type": "uint256"
        },
        {
          "internalType": "uint256",
          "name": "T",
          "type": "uint256"
        }
      ],
      "name": "getSlipAdustment",
      "outputs": [
        {
          "internalType": "uint256",
          "name": "slipAdjustment",
          "type": "uint256"
        }
      ],
      "stateMutability": "view",
      "type": "function"
    },
    {
      "inputs": [],
      "name": "one",
      "outputs": [
        {
          "internalType": "uint256",
          "name": "",
          "type": "uint256"
        }
      ],
      "stateMutability": "view",
      "type": "function"
    }
  ],
  "bytecode": "0x6080604052670de0b6b3a76400006001553480156200001d57600080fd5b5060405162002438380380620024388339818101604052810190620000439190620000a1565b806000806101000a81548173ffffffffffffffffffffffffffffffffffffffff021916908373ffffffffffffffffffffffffffffffffffffffff160217905550506200011b565b6000815190506200009b8162000101565b92915050565b600060208284031215620000b457600080fd5b6000620000c4848285016200008a565b91505092915050565b6000620000da82620000e1565b9050919050565b600073ffffffffffffffffffffffffffffffffffffffff82169050919050565b6200010c81620000cd565b81146200011857600080fd5b50565b61230d806200012b6000396000f3fe608060405234801561001057600080fd5b50600436106101735760003560e01c8063701baaf3116100de578063b86a82ef11610097578063c5c11ee911610071578063c5c11ee914610556578063c889a4df14610586578063ca2e5b65146105b6578063ec342ad0146105e657610173565b8063b86a82ef146104c6578063bbe4f6db146104f6578063c19387df1461052657610173565b8063701baaf3146103b8578063714270ab146103e8578063896a708c146104185780638b18b11514610448578063901717d114610478578063b80e44b81461049657610173565b8063564982021161013057806356498202146102985780635a7b2ed3146102c85780635ad5a963146102f85780635f2c12e814610328578063698f44a3146103585780636da0f1fc1461038857610173565b806313d21cdf146101785780631ba326c4146101a85780631c7fbff6146101d857806320ec04ca146102085780633659919f14610238578063563d5e0514610268575b600080fd5b610192600480360381019061018d9190611c3f565b610604565b60405161019f9190612060565b60405180910390f35b6101c260048036038101906101bd9190611de6565b6108ac565b6040516101cf919061207c565b60405180910390f35b6101f260048036038101906101ed9190611c91565b6108e4565b6040516101ff919061207c565b60405180910390f35b610222600480360381019061021d9190611c91565b610988565b60405161022f919061207c565b60405180910390f35b610252600480360381019061024d9190611c91565b610aae565b60405161025f919061207c565b60405180910390f35b610282600480360381019061027d9190611c91565b610bc8565b60405161028f919061207c565b60405180910390f35b6102b260048036038101906102ad9190611c91565b610be9565b6040516102bf919061207c565b60405180910390f35b6102e260048036038101906102dd9190611d5b565b610e21565b6040516102ef919061207c565b60405180910390f35b610312600480360381019061030d9190611c91565b611022565b60405161031f919061207c565b60405180910390f35b610342600480360381019061033d9190611c91565b611148565b60405161034f919061207c565b60405180910390f35b610372600480360381019061036d9190611c91565b611169565b60405161037f919061207c565b60405180910390f35b6103a2600480360381019061039d9190611e35565b611283565b6040516103af919061207c565b60405180910390f35b6103d260048036038101906103cd9190611de6565b611342565b6040516103df919061207c565b60405180910390f35b61040260048036038101906103fd9190611daa565b61139b565b60405161040f919061207c565b60405180910390f35b610432600480360381019061042d9190611de6565b6113f7565b60405161043f919061207c565b60405180910390f35b610462600480360381019061045d9190611daa565b611450565b60405161046f919061207c565b60405180910390f35b610480611466565b60405161048d919061207c565b60405180910390f35b6104b060048036038101906104ab9190611c91565b61146c565b6040516104bd919061207c565b60405180910390f35b6104e060048036038101906104db9190611d1f565b61148d565b6040516104ed919061207c565b60405180910390f35b610510600480360381019061050b9190611c3f565b6115d0565b60405161051d9190612025565b60405180910390f35b610540600480360381019061053b9190611c91565b6116e6565b60405161054d919061207c565b60405180910390f35b610570600480360381019061056b9190611e98565b611707565b60405161057d919061207c565b60405180910390f35b6105a0600480360381019061059b9190611d1f565b6117b5565b6040516105ad919061207c565b60405180910390f35b6105d060048036038101906105cb9190611c91565b611978565b6040516105dd919061207c565b60405180910390f35b6105ee611a94565b6040516105fb9190612025565b60405180910390f35b61060c611b5e565b6000610617836115d0565b905080826020019073ffffffffffffffffffffffffffffffffffffffff16908173ffffffffffffffffffffffffffffffffffffffff168152505082826000019073ffffffffffffffffffffffffffffffffffffffff16908173ffffffffffffffffffffffffffffffffffffffff16815250508073ffffffffffffffffffffffffffffffffffffffff1663a7f0b3de6040518163ffffffff1660e01b815260040160206040518083038186803b1580156106cf57600080fd5b505afa1580156106e3573d6000803e3d6000fd5b505050506040513d601f19601f820116820180604052508101906107079190611cf6565b8260400181815250508073ffffffffffffffffffffffffffffffffffffffff16634864d1406040518163ffffffff1660e01b815260040160206040518083038186803b15801561075657600080fd5b505afa15801561076a573d6000803e3d6000fd5b505050506040513d601f19601f8201168201806040525081019061078e9190611cf6565b8260600181815250508073ffffffffffffffffffffffffffffffffffffffff1663eec7faa16040518163ffffffff1660e01b815260040160206040518083038186803b1580156107dd57600080fd5b505afa1580156107f1573d6000803e3d6000fd5b505050506040513d601f19601f820116820180604052508101906108159190611cf6565b8260800181815250508073ffffffffffffffffffffffffffffffffffffffff166318160ddd6040518163ffffffff1660e01b815260040160206040518083038186803b15801561086457600080fd5b505afa158015610878573d6000803e3d6000fd5b505050506040513d601f19601f8201168201806040525081019061089c9190611cf6565b8261010001818152505050919050565b6000828411156108ba578293505b60008311156108dd578284836108d0919061212f565b6108da91906120fe565b90505b9392505050565b6000808373ffffffffffffffffffffffffffffffffffffffff1663484920316040518163ffffffff1660e01b815260040160206040518083038186803b15801561092d57600080fd5b505afa158015610941573d6000803e3d6000fd5b505050506040513d601f19601f820116820180604052508101906109659190611c68565b90506000610972826115d0565b905061097e8185610aae565b9250505092915050565b6000808373ffffffffffffffffffffffffffffffffffffffff16634864d1406040518163ffffffff1660e01b815260040160206040518083038186803b1580156109d157600080fd5b505afa1580156109e5573d6000803e3d6000fd5b505050506040513d601f19601f82011682018060405250810190610a099190611cf6565b905060008473ffffffffffffffffffffffffffffffffffffffff1663eec7faa16040518163ffffffff1660e01b815260040160206040518083038186803b158015610a5357600080fd5b505afa158015610a67573d6000803e3d6000fd5b505050506040513d601f19601f82011682018060405250810190610a8b9190611cf6565b9050808285610a9a919061212f565b610aa491906120fe565b9250505092915050565b6000808373ffffffffffffffffffffffffffffffffffffffff16634864d1406040518163ffffffff1660e01b815260040160206040518083038186803b158015610af757600080fd5b505afa158015610b0b573d6000803e3d6000fd5b505050506040513d601f19601f82011682018060405250810190610b2f9190611cf6565b905060008473ffffffffffffffffffffffffffffffffffffffff1663eec7faa16040518163ffffffff1660e01b815260040160206040518083038186803b158015610b7957600080fd5b505afa158015610b8d573d6000803e3d6000fd5b505050506040513d601f19601f82011682018060405250810190610bb19190611cf6565b9050610bbe848284611342565b9250505092915050565b600080610bd4846115d0565b9050610be08184611022565b91505092915050565b600080610cf1838573ffffffffffffffffffffffffffffffffffffffff166318160ddd6040518163ffffffff1660e01b815260040160206040518083038186803b158015610c3657600080fd5b505afa158015610c4a573d6000803e3d6000fd5b505050506040513d601f19601f82011682018060405250810190610c6e9190611cf6565b8673ffffffffffffffffffffffffffffffffffffffff16634864d1406040518163ffffffff1660e01b815260040160206040518083038186803b158015610cb457600080fd5b505afa158015610cc8573d6000803e3d6000fd5b505050506040513d601f19601f82011682018060405250810190610cec9190611cf6565b6108ac565b90506000610dfa848673ffffffffffffffffffffffffffffffffffffffff166318160ddd6040518163ffffffff1660e01b815260040160206040518083038186803b158015610d3f57600080fd5b505afa158015610d53573d6000803e3d6000fd5b505050506040513d601f19601f82011682018060405250810190610d779190611cf6565b8773ffffffffffffffffffffffffffffffffffffffff1663eec7faa16040518163ffffffff1660e01b815260040160206040518083038186803b158015610dbd57600080fd5b505afa158015610dd1573d6000803e3d6000fd5b505050506040513d601f19601f82011682018060405250810190610df59190611cf6565b6108ac565b90506000610e088684611169565b90508082610e1691906120a8565b935050505092915050565b60008060008054906101000a900473ffffffffffffffffffffffffffffffffffffffff1673ffffffffffffffffffffffffffffffffffffffff168473ffffffffffffffffffffffffffffffffffffffff161415610efd578273ffffffffffffffffffffffffffffffffffffffff16634864d1406040518163ffffffff1660e01b815260040160206040518083038186803b158015610ebe57600080fd5b505afa158015610ed2573d6000803e3d6000fd5b505050506040513d601f19601f82011682018060405250810190610ef69190611cf6565b9050610f7e565b8273ffffffffffffffffffffffffffffffffffffffff1663eec7faa16040518163ffffffff1660e01b815260040160206040518083038186803b158015610f4357600080fd5b505afa158015610f57573d6000803e3d6000fd5b505050506040513d601f19601f82011682018060405250810190610f7b9190611cf6565b90505b60008373ffffffffffffffffffffffffffffffffffffffff166318160ddd6040518163ffffffff1660e01b815260040160206040518083038186803b158015610fc657600080fd5b505afa158015610fda573d6000803e3d6000fd5b505050506040513d601f19601f82011682018060405250810190610ffe9190611cf6565b905080868361100d919061212f565b61101791906120fe565b925050509392505050565b6000808373ffffffffffffffffffffffffffffffffffffffff16634864d1406040518163ffffffff1660e01b815260040160206040518083038186803b15801561106b57600080fd5b505afa15801561107f573d6000803e3d6000fd5b505050506040513d601f19601f820116820180604052508101906110a39190611cf6565b905060008473ffffffffffffffffffffffffffffffffffffffff1663eec7faa16040518163ffffffff1660e01b815260040160206040518083038186803b1580156110ed57600080fd5b505afa158015611101573d6000803e3d6000fd5b505050506040513d601f19601f820116820180604052508101906111259190611cf6565b9050818185611134919061212f565b61113e91906120fe565b9250505092915050565b600080611154846115d0565b90506111608184611169565b91505092915050565b6000808373ffffffffffffffffffffffffffffffffffffffff16634864d1406040518163ffffffff1660e01b815260040160206040518083038186803b1580156111b257600080fd5b505afa1580156111c6573d6000803e3d6000fd5b505050506040513d601f19601f820116820180604052508101906111ea9190611cf6565b905060008473ffffffffffffffffffffffffffffffffffffffff1663eec7faa16040518163ffffffff1660e01b815260040160206040518083038186803b15801561123457600080fd5b505afa158015611248573d6000803e3d6000fd5b505050506040513d601f19601f8201168201806040525081019061126c9190611cf6565b9050611279848383611342565b9250505092915050565b6000808385611292919061212f565b9050600083876112a2919061212f565b90506000866002896112b4919061212f565b6112be91906120a8565b9050600085876112ce91906120a8565b90506000838511156112ed5783856112e69190612189565b90506112fc565b84846112f99190612189565b90505b6000828461130a919061212f565b9050806001548361131b919061212f565b61132591906120fe565b6001546113329190612189565b9650505050505050949350505050565b6000808284611351919061212f565b8561135c919061212f565b90506000848661136c91906120a8565b858761137891906120a8565b611382919061212f565b9050808261139091906120fe565b925050509392505050565b60006127108311156113e2576040517f08c379a00000000000000000000000000000000000000000000000000000000081526004016113d990612040565b60405180910390fd5b6113ef83612710846108ac565b905092915050565b6000808285611406919061212f565b85611411919061212f565b90506000848661142191906120a8565b858761142d91906120a8565b611437919061212f565b9050808261144591906120fe565b925050509392505050565b600061145e838360646108ac565b905092915050565b60015481565b600080611478846115d0565b90506114848184610aae565b91505092915050565b6000808273ffffffffffffffffffffffffffffffffffffffff16634864d1406040518163ffffffff1660e01b815260040160206040518083038186803b1580156114d657600080fd5b505afa1580156114ea573d6000803e3d6000fd5b505050506040513d601f19601f8201168201806040525081019061150e9190611cf6565b905060008373ffffffffffffffffffffffffffffffffffffffff166318160ddd6040518163ffffffff1660e01b815260040160206040518083038186803b15801561155857600080fd5b505afa15801561156c573d6000803e3d6000fd5b505050506040513d601f19601f820116820180604052508101906115909190611cf6565b905060006002905082866115a491906120a8565b816115af919061212f565b86836115bb919061212f565b6115c591906120fe565b935050505092915050565b60006115da611ab8565b73ffffffffffffffffffffffffffffffffffffffff1663b99b0a0c6040518163ffffffff1660e01b815260040160206040518083038186803b15801561161f57600080fd5b505afa158015611633573d6000803e3d6000fd5b505050506040513d601f19601f820116820180604052508101906116579190611c68565b73ffffffffffffffffffffffffffffffffffffffff1663bbe4f6db836040518263ffffffff1660e01b815260040161168f9190612025565b60206040518083038186803b1580156116a757600080fd5b505afa1580156116bb573d6000803e3d6000fd5b505050506040513d601f19601f820116820180604052508101906116df9190611c68565b9050919050565b6000806116f2846115d0565b90506116fe8184610988565b91505092915050565b600080821415611719578590506117ac565b600061172787878787611283565b905060008686611737919061212f565b905060008886611747919061212f565b9050600060028988611759919061212f565b611763919061212f565b9050600081838561177491906120a8565b8861177f919061212f565b61178991906120fe565b9050600154858261179a919061212f565b6117a491906120fe565b955050505050505b95945050505050565b6000808273ffffffffffffffffffffffffffffffffffffffff1663484920316040518163ffffffff1660e01b815260040160206040518083038186803b1580156117fe57600080fd5b505afa158015611812573d6000803e3d6000fd5b505050506040513d601f19601f820116820180604052508101906118369190611c68565b90506000611843826115d0565b905060008173ffffffffffffffffffffffffffffffffffffffff16634864d1406040518163ffffffff1660e01b815260040160206040518083038186803b15801561188d57600080fd5b505afa1580156118a1573d6000803e3d6000fd5b505050506040513d601f19601f820116820180604052508101906118c59190611cf6565b905060008273ffffffffffffffffffffffffffffffffffffffff1663eec7faa16040518163ffffffff1660e01b815260040160206040518083038186803b15801561190f57600080fd5b505afa158015611923573d6000803e3d6000fd5b505050506040513d601f19601f820116820180604052508101906119479190611cf6565b9050806002611956919061212f565b8288611962919061212f565b61196c91906120fe565b94505050505092915050565b600080611984846115d0565b9050611a8b838273ffffffffffffffffffffffffffffffffffffffff166318160ddd6040518163ffffffff1660e01b815260040160206040518083038186803b1580156119d057600080fd5b505afa1580156119e4573d6000803e3d6000fd5b505050506040513d601f19601f82011682018060405250810190611a089190611cf6565b8373ffffffffffffffffffffffffffffffffffffffff16634864d1406040518163ffffffff1660e01b815260040160206040518083038186803b158015611a4e57600080fd5b505afa158015611a62573d6000803e3d6000fd5b505050506040513d601f19601f82011682018060405250810190611a869190611cf6565b6108ac565b91505092915050565b60008054906101000a900473ffffffffffffffffffffffffffffffffffffffff1681565b60008060009054906101000a900473ffffffffffffffffffffffffffffffffffffffff1673ffffffffffffffffffffffffffffffffffffffff166398fabd3a6040518163ffffffff1660e01b815260040160206040518083038186803b158015611b2157600080fd5b505afa158015611b35573d6000803e3d6000fd5b505050506040513d601f19601f82011682018060405250810190611b599190611ccd565b905090565b604051806101200160405280600073ffffffffffffffffffffffffffffffffffffffff168152602001600073ffffffffffffffffffffffffffffffffffffffff168152602001600081526020016000815260200160008152602001600081526020016000815260200160008152602001600081525090565b600081359050611be581612292565b92915050565b600081519050611bfa81612292565b92915050565b600081519050611c0f816122a9565b92915050565b600081359050611c24816122c0565b92915050565b600081519050611c39816122c0565b92915050565b600060208284031215611c5157600080fd5b6000611c5f84828501611bd6565b91505092915050565b600060208284031215611c7a57600080fd5b6000611c8884828501611beb565b91505092915050565b60008060408385031215611ca457600080fd5b6000611cb285828601611bd6565b9250506020611cc385828601611c15565b9150509250929050565b600060208284031215611cdf57600080fd5b6000611ced84828501611c00565b91505092915050565b600060208284031215611d0857600080fd5b6000611d1684828501611c2a565b91505092915050565b60008060408385031215611d3257600080fd5b6000611d4085828601611c15565b9250506020611d5185828601611bd6565b9150509250929050565b600080600060608486031215611d7057600080fd5b6000611d7e86828701611c15565b9350506020611d8f86828701611bd6565b9250506040611da086828701611bd6565b9150509250925092565b60008060408385031215611dbd57600080fd5b6000611dcb85828601611c15565b9250506020611ddc85828601611c15565b9150509250929050565b600080600060608486031215611dfb57600080fd5b6000611e0986828701611c15565b9350506020611e1a86828701611c15565b9250506040611e2b86828701611c15565b9150509250925092565b60008060008060808587031215611e4b57600080fd5b6000611e5987828801611c15565b9450506020611e6a87828801611c15565b9350506040611e7b87828801611c15565b9250506060611e8c87828801611c15565b91505092959194509250565b600080600080600060a08688031215611eb057600080fd5b6000611ebe88828901611c15565b9550506020611ecf88828901611c15565b9450506040611ee088828901611c15565b9350506060611ef188828901611c15565b9250506080611f0288828901611c15565b9150509295509295909350565b611f18816121bd565b82525050565b611f27816121bd565b82525050565b6000611f3a600383612097565b9150611f4582612269565b602082019050919050565b61012082016000820151611f676000850182611f0f565b506020820151611f7a6020850182611f0f565b506040820151611f8d6040850182612007565b506060820151611fa06060850182612007565b506080820151611fb36080850182612007565b5060a0820151611fc660a0850182612007565b5060c0820151611fd960c0850182612007565b5060e0820151611fec60e0850182612007565b50610100820151612001610100850182612007565b50505050565b61201081612201565b82525050565b61201f81612201565b82525050565b600060208201905061203a6000830184611f1e565b92915050565b6000602082019050818103600083015261205981611f2d565b9050919050565b6000610120820190506120766000830184611f50565b92915050565b60006020820190506120916000830184612016565b92915050565b600082825260208201905092915050565b60006120b382612201565b91506120be83612201565b9250827fffffffffffffffffffffffffffffffffffffffffffffffffffffffffffffffff038211156120f3576120f261220b565b5b828201905092915050565b600061210982612201565b915061211483612201565b9250826121245761212361223a565b5b828204905092915050565b600061213a82612201565b915061214583612201565b9250817fffffffffffffffffffffffffffffffffffffffffffffffffffffffffffffffff048311821515161561217e5761217d61220b565b5b828202905092915050565b600061219482612201565b915061219f83612201565b9250828210156121b2576121b161220b565b5b828203905092915050565b60006121c8826121e1565b9050919050565b60006121da826121bd565b9050919050565b600073ffffffffffffffffffffffffffffffffffffffff82169050919050565b6000819050919050565b7f4e487b7100000000000000000000000000000000000000000000000000000000600052601160045260246000fd5b7f4e487b7100000000000000000000000000000000000000000000000000000000600052601260045260246000fd5b7f2162700000000000000000000000000000000000000000000000000000000000600082015250565b61229b816121bd565b81146122a657600080fd5b50565b6122b2816121cf565b81146122bd57600080fd5b50565b6122c981612201565b81146122d457600080fd5b5056fea2646970667358221220459f1c83260eec1e0832c0b4ade07b835be820d84cdccb763ce3a8cecd50e0b364736f6c63430008030033",
  "linkReferences": {},
  "deployedLinkReferences": {}
}