{
  "_format": "hh-sol-artifact-1",
  "contractName": "Utils",
  "sourceName": "contracts/Utils.sol",
  "abi": [
    {
      "inputs": [
        {
          "internalType": "address",
          "name": "_base",
          "type": "address"
        }
      ],
      "stateMutability": "nonpayable",
      "type": "constructor"
    },
    {
      "inputs": [],
      "name": "BASE",
      "outputs": [
        {
          "internalType": "address",
          "name": "",
          "type": "address"
        }
      ],
      "stateMutability": "view",
      "type": "function"
    },
    {
      "inputs": [
        {
          "internalType": "uint256",
          "name": "unitsLP",
          "type": "uint256"
        },
        {
          "internalType": "address",
          "name": "pool",
          "type": "address"
        },
        {
          "internalType": "uint256",
          "name": "unitsSynths",
          "type": "uint256"
        },
        {
          "internalType": "address",
          "name": "synth",
          "type": "address"
        }
      ],
      "name": "calcActualSynthUnits",
      "outputs": [
        {
          "internalType": "uint256",
          "name": "_output",
          "type": "uint256"
        }
      ],
      "stateMutability": "view",
      "type": "function"
    },
    {
      "inputs": [
        {
          "internalType": "address",
          "name": "pool",
          "type": "address"
        },
        {
          "internalType": "uint256",
          "name": "amount",
          "type": "uint256"
        }
      ],
      "name": "calcAsymmetricValueToken",
      "outputs": [
        {
          "internalType": "uint256",
          "name": "tokenValue",
          "type": "uint256"
        }
      ],
      "stateMutability": "view",
      "type": "function"
    },
    {
      "inputs": [
        {
          "internalType": "uint256",
          "name": "units",
          "type": "uint256"
        },
        {
          "internalType": "address",
          "name": "token",
          "type": "address"
        },
        {
          "internalType": "address",
          "name": "pool",
          "type": "address"
        }
      ],
      "name": "calcLiquidityHoldings",
      "outputs": [
        {
          "internalType": "uint256",
          "name": "share",
          "type": "uint256"
        }
      ],
      "stateMutability": "view",
      "type": "function"
    },
    {
      "inputs": [
        {
          "internalType": "uint256",
          "name": "b",
          "type": "uint256"
        },
        {
          "internalType": "uint256",
          "name": "B",
          "type": "uint256"
        },
        {
          "internalType": "uint256",
          "name": "t",
          "type": "uint256"
        },
        {
          "internalType": "uint256",
          "name": "T",
          "type": "uint256"
        },
        {
          "internalType": "uint256",
          "name": "P",
          "type": "uint256"
        }
      ],
      "name": "calcLiquidityUnits",
      "outputs": [
        {
          "internalType": "uint256",
          "name": "units",
          "type": "uint256"
        }
      ],
      "stateMutability": "view",
      "type": "function"
    },
    {
      "inputs": [
        {
          "internalType": "uint256",
          "name": "Amount",
          "type": "uint256"
        },
        {
          "internalType": "address",
          "name": "pool",
          "type": "address"
        }
      ],
      "name": "calcLiquidityUnitsAsym",
      "outputs": [
        {
          "internalType": "uint256",
          "name": "units",
          "type": "uint256"
        }
      ],
      "stateMutability": "view",
      "type": "function"
    },
    {
      "inputs": [
        {
          "internalType": "uint256",
          "name": "bp",
          "type": "uint256"
        },
        {
          "internalType": "uint256",
          "name": "total",
          "type": "uint256"
        }
      ],
      "name": "calcPart",
      "outputs": [
        {
          "internalType": "uint256",
          "name": "",
          "type": "uint256"
        }
      ],
      "stateMutability": "pure",
      "type": "function"
    },
    {
      "inputs": [
        {
          "internalType": "uint256",
          "name": "part",
          "type": "uint256"
        },
        {
          "internalType": "uint256",
          "name": "total",
          "type": "uint256"
        },
        {
          "internalType": "uint256",
          "name": "amount",
          "type": "uint256"
        }
      ],
      "name": "calcShare",
      "outputs": [
        {
          "internalType": "uint256",
          "name": "share",
          "type": "uint256"
        }
      ],
      "stateMutability": "pure",
      "type": "function"
    },
    {
      "inputs": [
        {
          "internalType": "address",
          "name": "token",
          "type": "address"
        },
        {
          "internalType": "uint256",
          "name": "amount",
          "type": "uint256"
        }
      ],
      "name": "calcSpotValueInBase",
      "outputs": [
        {
          "internalType": "uint256",
          "name": "value",
          "type": "uint256"
        }
      ],
      "stateMutability": "view",
      "type": "function"
    },
    {
      "inputs": [
        {
          "internalType": "address",
          "name": "pool",
          "type": "address"
        },
        {
          "internalType": "uint256",
          "name": "amount",
          "type": "uint256"
        }
      ],
      "name": "calcSpotValueInBaseWithPool",
      "outputs": [
        {
          "internalType": "uint256",
          "name": "value",
          "type": "uint256"
        }
      ],
      "stateMutability": "view",
      "type": "function"
    },
    {
      "inputs": [
        {
          "internalType": "address",
          "name": "token",
          "type": "address"
        },
        {
          "internalType": "uint256",
          "name": "amount",
          "type": "uint256"
        }
      ],
      "name": "calcSpotValueInToken",
      "outputs": [
        {
          "internalType": "uint256",
          "name": "value",
          "type": "uint256"
        }
      ],
      "stateMutability": "view",
      "type": "function"
    },
    {
      "inputs": [
        {
          "internalType": "address",
          "name": "pool",
          "type": "address"
        },
        {
          "internalType": "uint256",
          "name": "amount",
          "type": "uint256"
        }
      ],
      "name": "calcSpotValueInTokenWithPool",
      "outputs": [
        {
          "internalType": "uint256",
          "name": "value",
          "type": "uint256"
        }
      ],
      "stateMutability": "view",
      "type": "function"
    },
    {
      "inputs": [
        {
          "internalType": "uint256",
          "name": "x",
          "type": "uint256"
        },
        {
          "internalType": "uint256",
          "name": "X",
          "type": "uint256"
        },
        {
          "internalType": "uint256",
          "name": "Y",
          "type": "uint256"
        }
      ],
      "name": "calcSwapFee",
      "outputs": [
        {
          "internalType": "uint256",
          "name": "output",
          "type": "uint256"
        }
      ],
      "stateMutability": "pure",
      "type": "function"
    },
    {
      "inputs": [
        {
          "internalType": "uint256",
          "name": "x",
          "type": "uint256"
        },
        {
          "internalType": "uint256",
          "name": "X",
          "type": "uint256"
        },
        {
          "internalType": "uint256",
          "name": "Y",
          "type": "uint256"
        }
      ],
      "name": "calcSwapOutput",
      "outputs": [
        {
          "internalType": "uint256",
          "name": "output",
          "type": "uint256"
        }
      ],
      "stateMutability": "pure",
      "type": "function"
    },
    {
      "inputs": [
        {
          "internalType": "address",
          "name": "token",
          "type": "address"
        },
        {
          "internalType": "uint256",
          "name": "amount",
          "type": "uint256"
        }
      ],
      "name": "calcSwapValueInBase",
      "outputs": [
        {
          "internalType": "uint256",
          "name": "_output",
          "type": "uint256"
        }
      ],
      "stateMutability": "view",
      "type": "function"
    },
    {
      "inputs": [
        {
          "internalType": "address",
          "name": "pool",
          "type": "address"
        },
        {
          "internalType": "uint256",
          "name": "amount",
          "type": "uint256"
        }
      ],
      "name": "calcSwapValueInBaseWithPool",
      "outputs": [
        {
          "internalType": "uint256",
          "name": "_output",
          "type": "uint256"
        }
      ],
      "stateMutability": "view",
      "type": "function"
    },
    {
      "inputs": [
        {
          "internalType": "address",
          "name": "synth",
          "type": "address"
        },
        {
          "internalType": "uint256",
          "name": "amount",
          "type": "uint256"
        }
      ],
      "name": "calcSwapValueInBaseWithSYNTH",
      "outputs": [
        {
          "internalType": "uint256",
          "name": "_output",
          "type": "uint256"
        }
      ],
      "stateMutability": "view",
      "type": "function"
    },
    {
      "inputs": [
        {
          "internalType": "address",
          "name": "token",
          "type": "address"
        },
        {
          "internalType": "uint256",
          "name": "amount",
          "type": "uint256"
        }
      ],
      "name": "calcSwapValueInToken",
      "outputs": [
        {
          "internalType": "uint256",
          "name": "_output",
          "type": "uint256"
        }
      ],
      "stateMutability": "view",
      "type": "function"
    },
    {
      "inputs": [
        {
          "internalType": "address",
          "name": "pool",
          "type": "address"
        },
        {
          "internalType": "uint256",
          "name": "amount",
          "type": "uint256"
        }
      ],
      "name": "calcSwapValueInTokenWithPool",
      "outputs": [
        {
          "internalType": "uint256",
          "name": "_output",
          "type": "uint256"
        }
      ],
      "stateMutability": "view",
      "type": "function"
    },
    {
      "inputs": [
        {
          "internalType": "uint256",
          "name": "totalSupply",
          "type": "uint256"
        },
        {
          "internalType": "uint256",
          "name": "maxSupply",
          "type": "uint256"
        }
      ],
      "name": "getFeeOnTransfer",
      "outputs": [
        {
          "internalType": "uint256",
          "name": "",
          "type": "uint256"
        }
      ],
      "stateMutability": "pure",
      "type": "function"
    },
    {
      "inputs": [
        {
          "internalType": "address",
          "name": "token",
          "type": "address"
        }
      ],
      "name": "getPool",
      "outputs": [
        {
          "internalType": "address",
          "name": "pool",
          "type": "address"
        }
      ],
      "stateMutability": "view",
      "type": "function"
    },
    {
      "inputs": [
        {
          "internalType": "address",
          "name": "token",
          "type": "address"
        }
      ],
      "name": "getPoolData",
      "outputs": [
        {
          "components": [
            {
              "internalType": "address",
              "name": "tokenAddress",
              "type": "address"
            },
            {
              "internalType": "address",
              "name": "poolAddress",
              "type": "address"
            },
            {
              "internalType": "uint256",
              "name": "genesis",
              "type": "uint256"
            },
            {
              "internalType": "uint256",
              "name": "baseAmount",
              "type": "uint256"
            },
            {
              "internalType": "uint256",
              "name": "tokenAmount",
              "type": "uint256"
            },
            {
              "internalType": "uint256",
              "name": "fees",
              "type": "uint256"
            },
            {
              "internalType": "uint256",
              "name": "volume",
              "type": "uint256"
            },
            {
              "internalType": "uint256",
              "name": "txCount",
              "type": "uint256"
            },
            {
              "internalType": "uint256",
              "name": "poolUnits",
              "type": "uint256"
            }
          ],
          "internalType": "struct Utils.PoolDataStruct",
          "name": "poolData",
          "type": "tuple"
        }
      ],
      "stateMutability": "view",
      "type": "function"
    },
    {
      "inputs": [
        {
          "internalType": "address",
          "name": "token",
          "type": "address"
        },
        {
          "internalType": "uint256",
          "name": "units",
          "type": "uint256"
        }
      ],
      "name": "getPoolShareWeight",
      "outputs": [
        {
          "internalType": "uint256",
          "name": "weight",
          "type": "uint256"
        }
      ],
      "stateMutability": "view",
      "type": "function"
    },
    {
      "inputs": [
        {
          "internalType": "uint256",
          "name": "b",
          "type": "uint256"
        },
        {
          "internalType": "uint256",
          "name": "B",
          "type": "uint256"
        },
        {
          "internalType": "uint256",
          "name": "t",
          "type": "uint256"
        },
        {
          "internalType": "uint256",
          "name": "T",
          "type": "uint256"
        }
      ],
      "name": "getSlipAdustment",
      "outputs": [
        {
          "internalType": "uint256",
          "name": "slipAdjustment",
          "type": "uint256"
        }
      ],
      "stateMutability": "view",
      "type": "function"
    },
    {
      "inputs": [],
      "name": "one",
      "outputs": [
        {
          "internalType": "uint256",
          "name": "",
          "type": "uint256"
        }
      ],
      "stateMutability": "view",
      "type": "function"
    }
  ],
  "bytecode": "0x6080604052670de0b6b3a76400006001553480156200001d57600080fd5b50604051620028fa380380620028fa8339818101604052810190620000439190620000a1565b806000806101000a81548173ffffffffffffffffffffffffffffffffffffffff021916908373ffffffffffffffffffffffffffffffffffffffff160217905550506200011b565b6000815190506200009b8162000101565b92915050565b600060208284031215620000b457600080fd5b6000620000c4848285016200008a565b91505092915050565b6000620000da82620000e1565b9050919050565b600073ffffffffffffffffffffffffffffffffffffffff82169050919050565b6200010c81620000cd565b81146200011857600080fd5b50565b6127cf806200012b6000396000f3fe608060405234801561001057600080fd5b50600436106101735760003560e01c80636da0f1fc116100de578063b80e44b811610097578063c19387df11610071578063c19387df14610556578063c5c11ee914610586578063ca2e5b65146105b6578063ec342ad0146105e657610173565b8063b80e44b8146104c6578063b86a82ef146104f6578063bbe4f6db1461052657610173565b80636da0f1fc146103b8578063701baaf3146103e8578063714270ab14610418578063896a708c146104485780638b18b11514610478578063901717d1146104a857610173565b8063563d5e0511610130578063563d5e051461029857806356498202146102c85780635a7b2ed3146102f85780635ad5a963146103285780635f2c12e814610358578063698f44a31461038857610173565b806313d21cdf146101785780631ba326c4146101a85780631c7fbff6146101d857806320ec04ca146102085780633659919f1461023857806350a8237c14610268575b600080fd5b610192600480360381019061018d919061209e565b610604565b60405161019f9190612522565b60405180910390f35b6101c260048036038101906101bd91906122a8565b6109b0565b6040516101cf919061253e565b60405180910390f35b6101f260048036038101906101ed91906120f0565b6109e8565b6040516101ff919061253e565b60405180910390f35b610222600480360381019061021d91906120f0565b610b90565b60405161022f919061253e565b60405180910390f35b610252600480360381019061024d91906120f0565b610cb6565b60405161025f919061253e565b60405180910390f35b610282600480360381019061027d9190612209565b610dd0565b60405161028f919061253e565b60405180910390f35b6102b260048036038101906102ad91906120f0565b610dda565b6040516102bf919061253e565b60405180910390f35b6102e260048036038101906102dd91906120f0565b610eff565b6040516102ef919061253e565b60405180910390f35b610312600480360381019061030d91906121ba565b611137565b60405161031f919061253e565b60405180910390f35b610342600480360381019061033d91906120f0565b611338565b60405161034f919061253e565b60405180910390f35b610372600480360381019061036d91906120f0565b61145e565b60405161037f919061253e565b60405180910390f35b6103a2600480360381019061039d91906120f0565b611583565b6040516103af919061253e565b60405180910390f35b6103d260048036038101906103cd91906122f7565b61169d565b6040516103df919061253e565b60405180910390f35b61040260048036038101906103fd91906122a8565b61175c565b60405161040f919061253e565b60405180910390f35b610432600480360381019061042d919061226c565b6117b5565b60405161043f919061253e565b60405180910390f35b610462600480360381019061045d91906122a8565b611811565b60405161046f919061253e565b60405180910390f35b610492600480360381019061048d919061226c565b61186a565b60405161049f919061253e565b60405180910390f35b6104b0611880565b6040516104bd919061253e565b60405180910390f35b6104e060048036038101906104db91906120f0565b611886565b6040516104ed919061253e565b60405180910390f35b610510600480360381019061050b919061217e565b6119ab565b60405161051d919061253e565b60405180910390f35b610540600480360381019061053b919061209e565b611aee565b60405161054d91906124e7565b60405180910390f35b610570600480360381019061056b91906120f0565b611c04565b60405161057d919061253e565b60405180910390f35b6105a0600480360381019061059b919061235a565b611d29565b6040516105ad919061253e565b60405180910390f35b6105d060048036038101906105cb91906120f0565b611dd7565b6040516105dd919061253e565b60405180910390f35b6105ee611ef3565b6040516105fb91906124e7565b60405180910390f35b61060c611fbd565b6000610616611f17565b73ffffffffffffffffffffffffffffffffffffffff1663b99b0a0c6040518163ffffffff1660e01b815260040160206040518083038186803b15801561065b57600080fd5b505afa15801561066f573d6000803e3d6000fd5b505050506040513d601f19601f8201168201806040525081019061069391906120c7565b73ffffffffffffffffffffffffffffffffffffffff1663bbe4f6db846040518263ffffffff1660e01b81526004016106cb91906124e7565b60206040518083038186803b1580156106e357600080fd5b505afa1580156106f7573d6000803e3d6000fd5b505050506040513d601f19601f8201168201806040525081019061071b91906120c7565b905080826020019073ffffffffffffffffffffffffffffffffffffffff16908173ffffffffffffffffffffffffffffffffffffffff168152505082826000019073ffffffffffffffffffffffffffffffffffffffff16908173ffffffffffffffffffffffffffffffffffffffff16815250508073ffffffffffffffffffffffffffffffffffffffff1663a7f0b3de6040518163ffffffff1660e01b815260040160206040518083038186803b1580156107d357600080fd5b505afa1580156107e7573d6000803e3d6000fd5b505050506040513d601f19601f8201168201806040525081019061080b9190612155565b8260400181815250508073ffffffffffffffffffffffffffffffffffffffff16634864d1406040518163ffffffff1660e01b815260040160206040518083038186803b15801561085a57600080fd5b505afa15801561086e573d6000803e3d6000fd5b505050506040513d601f19601f820116820180604052508101906108929190612155565b8260600181815250508073ffffffffffffffffffffffffffffffffffffffff1663eec7faa16040518163ffffffff1660e01b815260040160206040518083038186803b1580156108e157600080fd5b505afa1580156108f5573d6000803e3d6000fd5b505050506040513d601f19601f820116820180604052508101906109199190612155565b8260800181815250508073ffffffffffffffffffffffffffffffffffffffff166318160ddd6040518163ffffffff1660e01b815260040160206040518083038186803b15801561096857600080fd5b505afa15801561097c573d6000803e3d6000fd5b505050506040513d601f19601f820116820180604052508101906109a09190612155565b8261010001818152505050919050565b6000828411156109be578293505b60008311156109e1578284836109d491906125f1565b6109de91906125c0565b90505b9392505050565b6000808373ffffffffffffffffffffffffffffffffffffffff1663484920316040518163ffffffff1660e01b815260040160206040518083038186803b158015610a3157600080fd5b505afa158015610a45573d6000803e3d6000fd5b505050506040513d601f19601f82011682018060405250810190610a6991906120c7565b90506000610a75611f17565b73ffffffffffffffffffffffffffffffffffffffff1663b99b0a0c6040518163ffffffff1660e01b815260040160206040518083038186803b158015610aba57600080fd5b505afa158015610ace573d6000803e3d6000fd5b505050506040513d601f19601f82011682018060405250810190610af291906120c7565b73ffffffffffffffffffffffffffffffffffffffff1663bbe4f6db836040518263ffffffff1660e01b8152600401610b2a91906124e7565b60206040518083038186803b158015610b4257600080fd5b505afa158015610b56573d6000803e3d6000fd5b505050506040513d601f19601f82011682018060405250810190610b7a91906120c7565b9050610b868185610cb6565b9250505092915050565b6000808373ffffffffffffffffffffffffffffffffffffffff16634864d1406040518163ffffffff1660e01b815260040160206040518083038186803b158015610bd957600080fd5b505afa158015610bed573d6000803e3d6000fd5b505050506040513d601f19601f82011682018060405250810190610c119190612155565b905060008473ffffffffffffffffffffffffffffffffffffffff1663eec7faa16040518163ffffffff1660e01b815260040160206040518083038186803b158015610c5b57600080fd5b505afa158015610c6f573d6000803e3d6000fd5b505050506040513d601f19601f82011682018060405250810190610c939190612155565b9050808285610ca291906125f1565b610cac91906125c0565b9250505092915050565b6000808373ffffffffffffffffffffffffffffffffffffffff16634864d1406040518163ffffffff1660e01b815260040160206040518083038186803b158015610cff57600080fd5b505afa158015610d13573d6000803e3d6000fd5b505050506040513d601f19601f82011682018060405250810190610d379190612155565b905060008473ffffffffffffffffffffffffffffffffffffffff1663eec7faa16040518163ffffffff1660e01b815260040160206040518083038186803b158015610d8157600080fd5b505afa158015610d95573d6000803e3d6000fd5b505050506040513d601f19601f82011682018060405250810190610db99190612155565b9050610dc684828461175c565b9250505092915050565b6000949350505050565b600080610de5611f17565b73ffffffffffffffffffffffffffffffffffffffff1663b99b0a0c6040518163ffffffff1660e01b815260040160206040518083038186803b158015610e2a57600080fd5b505afa158015610e3e573d6000803e3d6000fd5b505050506040513d601f19601f82011682018060405250810190610e6291906120c7565b73ffffffffffffffffffffffffffffffffffffffff1663bbe4f6db856040518263ffffffff1660e01b8152600401610e9a91906124e7565b60206040518083038186803b158015610eb257600080fd5b505afa158015610ec6573d6000803e3d6000fd5b505050506040513d601f19601f82011682018060405250810190610eea91906120c7565b9050610ef68184611338565b91505092915050565b600080611007838573ffffffffffffffffffffffffffffffffffffffff166318160ddd6040518163ffffffff1660e01b815260040160206040518083038186803b158015610f4c57600080fd5b505afa158015610f60573d6000803e3d6000fd5b505050506040513d601f19601f82011682018060405250810190610f849190612155565b8673ffffffffffffffffffffffffffffffffffffffff16634864d1406040518163ffffffff1660e01b815260040160206040518083038186803b158015610fca57600080fd5b505afa158015610fde573d6000803e3d6000fd5b505050506040513d601f19601f820116820180604052508101906110029190612155565b6109b0565b90506000611110848673ffffffffffffffffffffffffffffffffffffffff166318160ddd6040518163ffffffff1660e01b815260040160206040518083038186803b15801561105557600080fd5b505afa158015611069573d6000803e3d6000fd5b505050506040513d601f19601f8201168201806040525081019061108d9190612155565b8773ffffffffffffffffffffffffffffffffffffffff1663eec7faa16040518163ffffffff1660e01b815260040160206040518083038186803b1580156110d357600080fd5b505afa1580156110e7573d6000803e3d6000fd5b505050506040513d601f19601f8201168201806040525081019061110b9190612155565b6109b0565b9050600061111e8684611583565b9050808261112c919061256a565b935050505092915050565b60008060008054906101000a900473ffffffffffffffffffffffffffffffffffffffff1673ffffffffffffffffffffffffffffffffffffffff168473ffffffffffffffffffffffffffffffffffffffff161415611213578273ffffffffffffffffffffffffffffffffffffffff16634864d1406040518163ffffffff1660e01b815260040160206040518083038186803b1580156111d457600080fd5b505afa1580156111e8573d6000803e3d6000fd5b505050506040513d601f19601f8201168201806040525081019061120c9190612155565b9050611294565b8273ffffffffffffffffffffffffffffffffffffffff1663eec7faa16040518163ffffffff1660e01b815260040160206040518083038186803b15801561125957600080fd5b505afa15801561126d573d6000803e3d6000fd5b505050506040513d601f19601f820116820180604052508101906112919190612155565b90505b60008373ffffffffffffffffffffffffffffffffffffffff166318160ddd6040518163ffffffff1660e01b815260040160206040518083038186803b1580156112dc57600080fd5b505afa1580156112f0573d6000803e3d6000fd5b505050506040513d601f19601f820116820180604052508101906113149190612155565b905080868361132391906125f1565b61132d91906125c0565b925050509392505050565b6000808373ffffffffffffffffffffffffffffffffffffffff16634864d1406040518163ffffffff1660e01b815260040160206040518083038186803b15801561138157600080fd5b505afa158015611395573d6000803e3d6000fd5b505050506040513d601f19601f820116820180604052508101906113b99190612155565b905060008473ffffffffffffffffffffffffffffffffffffffff1663eec7faa16040518163ffffffff1660e01b815260040160206040518083038186803b15801561140357600080fd5b505afa158015611417573d6000803e3d6000fd5b505050506040513d601f19601f8201168201806040525081019061143b9190612155565b905081818561144a91906125f1565b61145491906125c0565b9250505092915050565b600080611469611f17565b73ffffffffffffffffffffffffffffffffffffffff1663b99b0a0c6040518163ffffffff1660e01b815260040160206040518083038186803b1580156114ae57600080fd5b505afa1580156114c2573d6000803e3d6000fd5b505050506040513d601f19601f820116820180604052508101906114e691906120c7565b73ffffffffffffffffffffffffffffffffffffffff1663bbe4f6db856040518263ffffffff1660e01b815260040161151e91906124e7565b60206040518083038186803b15801561153657600080fd5b505afa15801561154a573d6000803e3d6000fd5b505050506040513d601f19601f8201168201806040525081019061156e91906120c7565b905061157a8184611583565b91505092915050565b6000808373ffffffffffffffffffffffffffffffffffffffff16634864d1406040518163ffffffff1660e01b815260040160206040518083038186803b1580156115cc57600080fd5b505afa1580156115e0573d6000803e3d6000fd5b505050506040513d601f19601f820116820180604052508101906116049190612155565b905060008473ffffffffffffffffffffffffffffffffffffffff1663eec7faa16040518163ffffffff1660e01b815260040160206040518083038186803b15801561164e57600080fd5b505afa158015611662573d6000803e3d6000fd5b505050506040513d601f19601f820116820180604052508101906116869190612155565b905061169384838361175c565b9250505092915050565b60008083856116ac91906125f1565b9050600083876116bc91906125f1565b90506000866002896116ce91906125f1565b6116d8919061256a565b9050600085876116e8919061256a565b9050600083851115611707578385611700919061264b565b9050611716565b8484611713919061264b565b90505b6000828461172491906125f1565b9050806001548361173591906125f1565b61173f91906125c0565b60015461174c919061264b565b9650505050505050949350505050565b600080828461176b91906125f1565b8561177691906125f1565b905060008486611786919061256a565b8587611792919061256a565b61179c91906125f1565b905080826117aa91906125c0565b925050509392505050565b60006127108311156117fc576040517f08c379a00000000000000000000000000000000000000000000000000000000081526004016117f390612502565b60405180910390fd5b61180983612710846109b0565b905092915050565b600080828561182091906125f1565b8561182b91906125f1565b90506000848661183b919061256a565b8587611847919061256a565b61185191906125f1565b9050808261185f91906125c0565b925050509392505050565b6000611878838360646109b0565b905092915050565b60015481565b600080611891611f17565b73ffffffffffffffffffffffffffffffffffffffff1663b99b0a0c6040518163ffffffff1660e01b815260040160206040518083038186803b1580156118d657600080fd5b505afa1580156118ea573d6000803e3d6000fd5b505050506040513d601f19601f8201168201806040525081019061190e91906120c7565b73ffffffffffffffffffffffffffffffffffffffff1663bbe4f6db856040518263ffffffff1660e01b815260040161194691906124e7565b60206040518083038186803b15801561195e57600080fd5b505afa158015611972573d6000803e3d6000fd5b505050506040513d601f19601f8201168201806040525081019061199691906120c7565b90506119a28184610cb6565b91505092915050565b6000808273ffffffffffffffffffffffffffffffffffffffff16634864d1406040518163ffffffff1660e01b815260040160206040518083038186803b1580156119f457600080fd5b505afa158015611a08573d6000803e3d6000fd5b505050506040513d601f19601f82011682018060405250810190611a2c9190612155565b905060008373ffffffffffffffffffffffffffffffffffffffff166318160ddd6040518163ffffffff1660e01b815260040160206040518083038186803b158015611a7657600080fd5b505afa158015611a8a573d6000803e3d6000fd5b505050506040513d601f19601f82011682018060405250810190611aae9190612155565b90506000600290508286611ac2919061256a565b81611acd91906125f1565b8683611ad991906125f1565b611ae391906125c0565b935050505092915050565b6000611af8611f17565b73ffffffffffffffffffffffffffffffffffffffff1663b99b0a0c6040518163ffffffff1660e01b815260040160206040518083038186803b158015611b3d57600080fd5b505afa158015611b51573d6000803e3d6000fd5b505050506040513d601f19601f82011682018060405250810190611b7591906120c7565b73ffffffffffffffffffffffffffffffffffffffff1663bbe4f6db836040518263ffffffff1660e01b8152600401611bad91906124e7565b60206040518083038186803b158015611bc557600080fd5b505afa158015611bd9573d6000803e3d6000fd5b505050506040513d601f19601f82011682018060405250810190611bfd91906120c7565b9050919050565b600080611c0f611f17565b73ffffffffffffffffffffffffffffffffffffffff1663b99b0a0c6040518163ffffffff1660e01b815260040160206040518083038186803b158015611c5457600080fd5b505afa158015611c68573d6000803e3d6000fd5b505050506040513d601f19601f82011682018060405250810190611c8c91906120c7565b73ffffffffffffffffffffffffffffffffffffffff1663bbe4f6db856040518263ffffffff1660e01b8152600401611cc491906124e7565b60206040518083038186803b158015611cdc57600080fd5b505afa158015611cf0573d6000803e3d6000fd5b505050506040513d601f19601f82011682018060405250810190611d1491906120c7565b9050611d208184610b90565b91505092915050565b600080821415611d3b57859050611dce565b6000611d498787878761169d565b905060008686611d5991906125f1565b905060008886611d6991906125f1565b9050600060028988611d7b91906125f1565b611d8591906125f1565b90506000818385611d96919061256a565b88611da191906125f1565b611dab91906125c0565b90506001548582611dbc91906125f1565b611dc691906125c0565b955050505050505b95945050505050565b600080611de384611aee565b9050611eea838273ffffffffffffffffffffffffffffffffffffffff166318160ddd6040518163ffffffff1660e01b815260040160206040518083038186803b158015611e2f57600080fd5b505afa158015611e43573d6000803e3d6000fd5b505050506040513d601f19601f82011682018060405250810190611e679190612155565b8373ffffffffffffffffffffffffffffffffffffffff16634864d1406040518163ffffffff1660e01b815260040160206040518083038186803b158015611ead57600080fd5b505afa158015611ec1573d6000803e3d6000fd5b505050506040513d601f19601f82011682018060405250810190611ee59190612155565b6109b0565b91505092915050565b60008054906101000a900473ffffffffffffffffffffffffffffffffffffffff1681565b60008060009054906101000a900473ffffffffffffffffffffffffffffffffffffffff1673ffffffffffffffffffffffffffffffffffffffff166398fabd3a6040518163ffffffff1660e01b815260040160206040518083038186803b158015611f8057600080fd5b505afa158015611f94573d6000803e3d6000fd5b505050506040513d601f19601f82011682018060405250810190611fb8919061212c565b905090565b604051806101200160405280600073ffffffffffffffffffffffffffffffffffffffff168152602001600073ffffffffffffffffffffffffffffffffffffffff168152602001600081526020016000815260200160008152602001600081526020016000815260200160008152602001600081525090565b60008135905061204481612754565b92915050565b60008151905061205981612754565b92915050565b60008151905061206e8161276b565b92915050565b60008135905061208381612782565b92915050565b60008151905061209881612782565b92915050565b6000602082840312156120b057600080fd5b60006120be84828501612035565b91505092915050565b6000602082840312156120d957600080fd5b60006120e78482850161204a565b91505092915050565b6000806040838503121561210357600080fd5b600061211185828601612035565b925050602061212285828601612074565b9150509250929050565b60006020828403121561213e57600080fd5b600061214c8482850161205f565b91505092915050565b60006020828403121561216757600080fd5b600061217584828501612089565b91505092915050565b6000806040838503121561219157600080fd5b600061219f85828601612074565b92505060206121b085828601612035565b9150509250929050565b6000806000606084860312156121cf57600080fd5b60006121dd86828701612074565b93505060206121ee86828701612035565b92505060406121ff86828701612035565b9150509250925092565b6000806000806080858703121561221f57600080fd5b600061222d87828801612074565b945050602061223e87828801612035565b935050604061224f87828801612074565b925050606061226087828801612035565b91505092959194509250565b6000806040838503121561227f57600080fd5b600061228d85828601612074565b925050602061229e85828601612074565b9150509250929050565b6000806000606084860312156122bd57600080fd5b60006122cb86828701612074565b93505060206122dc86828701612074565b92505060406122ed86828701612074565b9150509250925092565b6000806000806080858703121561230d57600080fd5b600061231b87828801612074565b945050602061232c87828801612074565b935050604061233d87828801612074565b925050606061234e87828801612074565b91505092959194509250565b600080600080600060a0868803121561237257600080fd5b600061238088828901612074565b955050602061239188828901612074565b94505060406123a288828901612074565b93505060606123b388828901612074565b92505060806123c488828901612074565b9150509295509295909350565b6123da8161267f565b82525050565b6123e98161267f565b82525050565b60006123fc601283612559565b91506124078261272b565b602082019050919050565b6101208201600082015161242960008501826123d1565b50602082015161243c60208501826123d1565b50604082015161244f60408501826124c9565b50606082015161246260608501826124c9565b50608082015161247560808501826124c9565b5060a082015161248860a08501826124c9565b5060c082015161249b60c08501826124c9565b5060e08201516124ae60e08501826124c9565b506101008201516124c36101008501826124c9565b50505050565b6124d2816126c3565b82525050565b6124e1816126c3565b82525050565b60006020820190506124fc60008301846123e0565b92915050565b6000602082019050818103600083015261251b816123ef565b9050919050565b6000610120820190506125386000830184612412565b92915050565b600060208201905061255360008301846124d8565b92915050565b600082825260208201905092915050565b6000612575826126c3565b9150612580836126c3565b9250827fffffffffffffffffffffffffffffffffffffffffffffffffffffffffffffffff038211156125b5576125b46126cd565b5b828201905092915050565b60006125cb826126c3565b91506125d6836126c3565b9250826125e6576125e56126fc565b5b828204905092915050565b60006125fc826126c3565b9150612607836126c3565b9250817fffffffffffffffffffffffffffffffffffffffffffffffffffffffffffffffff04831182151516156126405761263f6126cd565b5b828202905092915050565b6000612656826126c3565b9150612661836126c3565b925082821015612674576126736126cd565b5b828203905092915050565b600061268a826126a3565b9050919050565b600061269c8261267f565b9050919050565b600073ffffffffffffffffffffffffffffffffffffffff82169050919050565b6000819050919050565b7f4e487b7100000000000000000000000000000000000000000000000000000000600052601160045260246000fd5b7f4e487b7100000000000000000000000000000000000000000000000000000000600052601260045260246000fd5b7f4d75737420626520636f72726563742042500000000000000000000000000000600082015250565b61275d8161267f565b811461276857600080fd5b50565b61277481612691565b811461277f57600080fd5b50565b61278b816126c3565b811461279657600080fd5b5056fea2646970667358221220b69642b11b59e2c9c865cf28347b365c90b1b25a59980226b765e0a529f8c59964736f6c63430008030033",
  "linkReferences": {},
  "deployedLinkReferences": {}
}