{
  "_format": "hh-sol-artifact-1",
  "contractName": "Utils",
  "sourceName": "contracts/Utils.sol",
  "abi": [
    {
      "inputs": [
        {
          "internalType": "address",
          "name": "_base",
          "type": "address"
        }
      ],
      "stateMutability": "nonpayable",
      "type": "constructor"
    },
    {
      "inputs": [],
      "name": "BASE",
      "outputs": [
        {
          "internalType": "address",
          "name": "",
          "type": "address"
        }
      ],
      "stateMutability": "view",
      "type": "function"
    },
    {
      "inputs": [
        {
          "internalType": "address",
          "name": "pool",
          "type": "address"
        },
        {
          "internalType": "uint256",
          "name": "amount",
          "type": "uint256"
        }
      ],
      "name": "calcAsymmetricValueToken",
      "outputs": [
        {
          "internalType": "uint256",
          "name": "tokenValue",
          "type": "uint256"
        }
      ],
      "stateMutability": "view",
      "type": "function"
    },
    {
      "inputs": [
        {
          "internalType": "uint256",
          "name": "units",
          "type": "uint256"
        },
        {
          "internalType": "address",
          "name": "token",
          "type": "address"
        },
        {
          "internalType": "address",
          "name": "pool",
          "type": "address"
        }
      ],
      "name": "calcLiquidityHoldings",
      "outputs": [
        {
          "internalType": "uint256",
          "name": "share",
          "type": "uint256"
        }
      ],
      "stateMutability": "view",
      "type": "function"
    },
    {
      "inputs": [
        {
          "internalType": "uint256",
          "name": "b",
          "type": "uint256"
        },
        {
          "internalType": "uint256",
          "name": "B",
          "type": "uint256"
        },
        {
          "internalType": "uint256",
          "name": "t",
          "type": "uint256"
        },
        {
          "internalType": "uint256",
          "name": "T",
          "type": "uint256"
        },
        {
          "internalType": "uint256",
          "name": "P",
          "type": "uint256"
        }
      ],
      "name": "calcLiquidityUnits",
      "outputs": [
        {
          "internalType": "uint256",
          "name": "units",
          "type": "uint256"
        }
      ],
      "stateMutability": "view",
      "type": "function"
    },
    {
      "inputs": [
        {
          "internalType": "uint256",
          "name": "Amount",
          "type": "uint256"
        },
        {
          "internalType": "address",
          "name": "pool",
          "type": "address"
        }
      ],
      "name": "calcLiquidityUnitsAsym",
      "outputs": [
        {
          "internalType": "uint256",
          "name": "units",
          "type": "uint256"
        }
      ],
      "stateMutability": "view",
      "type": "function"
    },
    {
      "inputs": [
        {
          "internalType": "uint256",
          "name": "bp",
          "type": "uint256"
        },
        {
          "internalType": "uint256",
          "name": "total",
          "type": "uint256"
        }
      ],
      "name": "calcPart",
      "outputs": [
        {
          "internalType": "uint256",
          "name": "",
          "type": "uint256"
        }
      ],
      "stateMutability": "pure",
      "type": "function"
    },
    {
      "inputs": [
        {
          "internalType": "uint256",
          "name": "part",
          "type": "uint256"
        },
        {
          "internalType": "uint256",
          "name": "total",
          "type": "uint256"
        },
        {
          "internalType": "uint256",
          "name": "amount",
          "type": "uint256"
        }
      ],
      "name": "calcShare",
      "outputs": [
        {
          "internalType": "uint256",
          "name": "share",
          "type": "uint256"
        }
      ],
      "stateMutability": "pure",
      "type": "function"
    },
    {
      "inputs": [
        {
          "internalType": "address",
          "name": "token",
          "type": "address"
        },
        {
          "internalType": "uint256",
          "name": "amount",
          "type": "uint256"
        }
      ],
      "name": "calcSpotValueInBase",
      "outputs": [
        {
          "internalType": "uint256",
          "name": "value",
          "type": "uint256"
        }
      ],
      "stateMutability": "view",
      "type": "function"
    },
    {
      "inputs": [
        {
          "internalType": "address",
          "name": "pool",
          "type": "address"
        },
        {
          "internalType": "uint256",
          "name": "amount",
          "type": "uint256"
        }
      ],
      "name": "calcSpotValueInBaseWithPool",
      "outputs": [
        {
          "internalType": "uint256",
          "name": "value",
          "type": "uint256"
        }
      ],
      "stateMutability": "view",
      "type": "function"
    },
    {
      "inputs": [
        {
          "internalType": "address",
          "name": "token",
          "type": "address"
        },
        {
          "internalType": "uint256",
          "name": "amount",
          "type": "uint256"
        }
      ],
      "name": "calcSpotValueInToken",
      "outputs": [
        {
          "internalType": "uint256",
          "name": "value",
          "type": "uint256"
        }
      ],
      "stateMutability": "view",
      "type": "function"
    },
    {
      "inputs": [
        {
          "internalType": "address",
          "name": "pool",
          "type": "address"
        },
        {
          "internalType": "uint256",
          "name": "amount",
          "type": "uint256"
        }
      ],
      "name": "calcSpotValueInTokenWithPool",
      "outputs": [
        {
          "internalType": "uint256",
          "name": "value",
          "type": "uint256"
        }
      ],
      "stateMutability": "view",
      "type": "function"
    },
    {
      "inputs": [
        {
          "internalType": "uint256",
          "name": "x",
          "type": "uint256"
        },
        {
          "internalType": "uint256",
          "name": "X",
          "type": "uint256"
        },
        {
          "internalType": "uint256",
          "name": "Y",
          "type": "uint256"
        }
      ],
      "name": "calcSwapFee",
      "outputs": [
        {
          "internalType": "uint256",
          "name": "output",
          "type": "uint256"
        }
      ],
      "stateMutability": "pure",
      "type": "function"
    },
    {
      "inputs": [
        {
          "internalType": "uint256",
          "name": "x",
          "type": "uint256"
        },
        {
          "internalType": "uint256",
          "name": "X",
          "type": "uint256"
        },
        {
          "internalType": "uint256",
          "name": "Y",
          "type": "uint256"
        }
      ],
      "name": "calcSwapOutput",
      "outputs": [
        {
          "internalType": "uint256",
          "name": "output",
          "type": "uint256"
        }
      ],
      "stateMutability": "pure",
      "type": "function"
    },
    {
      "inputs": [
        {
          "internalType": "address",
          "name": "token",
          "type": "address"
        },
        {
          "internalType": "uint256",
          "name": "amount",
          "type": "uint256"
        }
      ],
      "name": "calcSwapValueInBase",
      "outputs": [
        {
          "internalType": "uint256",
          "name": "_output",
          "type": "uint256"
        }
      ],
      "stateMutability": "view",
      "type": "function"
    },
    {
      "inputs": [
        {
          "internalType": "address",
          "name": "pool",
          "type": "address"
        },
        {
          "internalType": "uint256",
          "name": "amount",
          "type": "uint256"
        }
      ],
      "name": "calcSwapValueInBaseWithPool",
      "outputs": [
        {
          "internalType": "uint256",
          "name": "_output",
          "type": "uint256"
        }
      ],
      "stateMutability": "view",
      "type": "function"
    },
    {
      "inputs": [
        {
          "internalType": "address",
          "name": "synth",
          "type": "address"
        },
        {
          "internalType": "uint256",
          "name": "amount",
          "type": "uint256"
        }
      ],
      "name": "calcSwapValueInBaseWithSYNTH",
      "outputs": [
        {
          "internalType": "uint256",
          "name": "_output",
          "type": "uint256"
        }
      ],
      "stateMutability": "view",
      "type": "function"
    },
    {
      "inputs": [
        {
          "internalType": "address",
          "name": "token",
          "type": "address"
        },
        {
          "internalType": "uint256",
          "name": "amount",
          "type": "uint256"
        }
      ],
      "name": "calcSwapValueInToken",
      "outputs": [
        {
          "internalType": "uint256",
          "name": "_output",
          "type": "uint256"
        }
      ],
      "stateMutability": "view",
      "type": "function"
    },
    {
      "inputs": [
        {
          "internalType": "address",
          "name": "pool",
          "type": "address"
        },
        {
          "internalType": "uint256",
          "name": "amount",
          "type": "uint256"
        }
      ],
      "name": "calcSwapValueInTokenWithPool",
      "outputs": [
        {
          "internalType": "uint256",
          "name": "_output",
          "type": "uint256"
        }
      ],
      "stateMutability": "view",
      "type": "function"
    },
    {
      "inputs": [
        {
          "internalType": "uint256",
          "name": "totalSupply",
          "type": "uint256"
        },
        {
          "internalType": "uint256",
          "name": "maxSupply",
          "type": "uint256"
        }
      ],
      "name": "getFeeOnTransfer",
      "outputs": [
        {
          "internalType": "uint256",
          "name": "",
          "type": "uint256"
        }
      ],
      "stateMutability": "pure",
      "type": "function"
    },
    {
      "inputs": [
        {
          "internalType": "address",
          "name": "token",
          "type": "address"
        }
      ],
      "name": "getPoolData",
      "outputs": [
        {
          "components": [
            {
              "internalType": "address",
              "name": "tokenAddress",
              "type": "address"
            },
            {
              "internalType": "address",
              "name": "poolAddress",
              "type": "address"
            },
            {
              "internalType": "uint256",
              "name": "genesis",
              "type": "uint256"
            },
            {
              "internalType": "uint256",
              "name": "baseAmount",
              "type": "uint256"
            },
            {
              "internalType": "uint256",
              "name": "tokenAmount",
              "type": "uint256"
            },
            {
              "internalType": "uint256",
              "name": "fees",
              "type": "uint256"
            },
            {
              "internalType": "uint256",
              "name": "volume",
              "type": "uint256"
            },
            {
              "internalType": "uint256",
              "name": "txCount",
              "type": "uint256"
            },
            {
              "internalType": "uint256",
              "name": "poolUnits",
              "type": "uint256"
            }
          ],
          "internalType": "struct Utils.PoolDataStruct",
          "name": "poolData",
          "type": "tuple"
        }
      ],
      "stateMutability": "view",
      "type": "function"
    },
    {
      "inputs": [
        {
          "internalType": "uint256",
          "name": "b",
          "type": "uint256"
        },
        {
          "internalType": "uint256",
          "name": "B",
          "type": "uint256"
        },
        {
          "internalType": "uint256",
          "name": "t",
          "type": "uint256"
        },
        {
          "internalType": "uint256",
          "name": "T",
          "type": "uint256"
        }
      ],
      "name": "getSlipAdustment",
      "outputs": [
        {
          "internalType": "uint256",
          "name": "slipAdjustment",
          "type": "uint256"
        }
      ],
      "stateMutability": "view",
      "type": "function"
    },
    {
      "inputs": [],
      "name": "one",
      "outputs": [
        {
          "internalType": "uint256",
          "name": "",
          "type": "uint256"
        }
      ],
      "stateMutability": "view",
      "type": "function"
    }
  ],
  "bytecode": "0x6080604052670de0b6b3a76400006001553480156200001d57600080fd5b506040516200259a3803806200259a8339818101604052810190620000439190620000a1565b806000806101000a81548173ffffffffffffffffffffffffffffffffffffffff021916908373ffffffffffffffffffffffffffffffffffffffff160217905550506200011b565b6000815190506200009b8162000101565b92915050565b600060208284031215620000b457600080fd5b6000620000c4848285016200008a565b91505092915050565b6000620000da82620000e1565b9050919050565b600073ffffffffffffffffffffffffffffffffffffffff82169050919050565b6200010c81620000cd565b81146200011857600080fd5b50565b61246f806200012b6000396000f3fe608060405234801561001057600080fd5b50600436106101425760003560e01c80636da0f1fc116100b8578063901717d11161007c578063901717d114610447578063b80e44b814610465578063b86a82ef14610495578063c19387df146104c5578063c5c11ee9146104f5578063ec342ad01461052557610142565b80636da0f1fc14610357578063701baaf314610387578063714270ab146103b7578063896a708c146103e75780638b18b1151461041757610142565b8063563d5e051161010a578063563d5e051461023757806356498202146102675780635a7b2ed3146102975780635ad5a963146102c75780635f2c12e8146102f7578063698f44a31461032757610142565b806313d21cdf146101475780631ba326c4146101775780631c7fbff6146101a757806320ec04ca146101d75780633659919f14610207575b600080fd5b610161600480360381019061015c9190611da1565b610543565b60405161016e91906121c2565b60405180910390f35b610191600480360381019061018c9190611f48565b6108ef565b60405161019e91906121de565b60405180910390f35b6101c160048036038101906101bc9190611df3565b610927565b6040516101ce91906121de565b60405180910390f35b6101f160048036038101906101ec9190611df3565b610acf565b6040516101fe91906121de565b60405180910390f35b610221600480360381019061021c9190611df3565b610bf5565b60405161022e91906121de565b60405180910390f35b610251600480360381019061024c9190611df3565b610d0f565b60405161025e91906121de565b60405180910390f35b610281600480360381019061027c9190611df3565b610e34565b60405161028e91906121de565b60405180910390f35b6102b160048036038101906102ac9190611ebd565b61106c565b6040516102be91906121de565b60405180910390f35b6102e160048036038101906102dc9190611df3565b61126d565b6040516102ee91906121de565b60405180910390f35b610311600480360381019061030c9190611df3565b611393565b60405161031e91906121de565b60405180910390f35b610341600480360381019061033c9190611df3565b6114b8565b60405161034e91906121de565b60405180910390f35b610371600480360381019061036c9190611f97565b6115d2565b60405161037e91906121de565b60405180910390f35b6103a1600480360381019061039c9190611f48565b611691565b6040516103ae91906121de565b60405180910390f35b6103d160048036038101906103cc9190611f0c565b6116ea565b6040516103de91906121de565b60405180910390f35b61040160048036038101906103fc9190611f48565b611746565b60405161040e91906121de565b60405180910390f35b610431600480360381019061042c9190611f0c565b61179f565b60405161043e91906121de565b60405180910390f35b61044f6117b5565b60405161045c91906121de565b60405180910390f35b61047f600480360381019061047a9190611df3565b6117bb565b60405161048c91906121de565b60405180910390f35b6104af60048036038101906104aa9190611e81565b6118e0565b6040516104bc91906121de565b60405180910390f35b6104df60048036038101906104da9190611df3565b611a23565b6040516104ec91906121de565b60405180910390f35b61050f600480360381019061050a9190611ffa565b611b48565b60405161051c91906121de565b60405180910390f35b61052d611bf6565b60405161053a9190612187565b60405180910390f35b61054b611cc0565b6000610555611c1a565b73ffffffffffffffffffffffffffffffffffffffff1663b99b0a0c6040518163ffffffff1660e01b815260040160206040518083038186803b15801561059a57600080fd5b505afa1580156105ae573d6000803e3d6000fd5b505050506040513d601f19601f820116820180604052508101906105d29190611dca565b73ffffffffffffffffffffffffffffffffffffffff1663bbe4f6db846040518263ffffffff1660e01b815260040161060a9190612187565b60206040518083038186803b15801561062257600080fd5b505afa158015610636573d6000803e3d6000fd5b505050506040513d601f19601f8201168201806040525081019061065a9190611dca565b905080826020019073ffffffffffffffffffffffffffffffffffffffff16908173ffffffffffffffffffffffffffffffffffffffff168152505082826000019073ffffffffffffffffffffffffffffffffffffffff16908173ffffffffffffffffffffffffffffffffffffffff16815250508073ffffffffffffffffffffffffffffffffffffffff1663a7f0b3de6040518163ffffffff1660e01b815260040160206040518083038186803b15801561071257600080fd5b505afa158015610726573d6000803e3d6000fd5b505050506040513d601f19601f8201168201806040525081019061074a9190611e58565b8260400181815250508073ffffffffffffffffffffffffffffffffffffffff16634864d1406040518163ffffffff1660e01b815260040160206040518083038186803b15801561079957600080fd5b505afa1580156107ad573d6000803e3d6000fd5b505050506040513d601f19601f820116820180604052508101906107d19190611e58565b8260600181815250508073ffffffffffffffffffffffffffffffffffffffff1663eec7faa16040518163ffffffff1660e01b815260040160206040518083038186803b15801561082057600080fd5b505afa158015610834573d6000803e3d6000fd5b505050506040513d601f19601f820116820180604052508101906108589190611e58565b8260800181815250508073ffffffffffffffffffffffffffffffffffffffff166318160ddd6040518163ffffffff1660e01b815260040160206040518083038186803b1580156108a757600080fd5b505afa1580156108bb573d6000803e3d6000fd5b505050506040513d601f19601f820116820180604052508101906108df9190611e58565b8261010001818152505050919050565b6000828411156108fd578293505b6000831115610920578284836109139190612291565b61091d9190612260565b90505b9392505050565b6000808373ffffffffffffffffffffffffffffffffffffffff1663484920316040518163ffffffff1660e01b815260040160206040518083038186803b15801561097057600080fd5b505afa158015610984573d6000803e3d6000fd5b505050506040513d601f19601f820116820180604052508101906109a89190611dca565b905060006109b4611c1a565b73ffffffffffffffffffffffffffffffffffffffff1663b99b0a0c6040518163ffffffff1660e01b815260040160206040518083038186803b1580156109f957600080fd5b505afa158015610a0d573d6000803e3d6000fd5b505050506040513d601f19601f82011682018060405250810190610a319190611dca565b73ffffffffffffffffffffffffffffffffffffffff1663bbe4f6db836040518263ffffffff1660e01b8152600401610a699190612187565b60206040518083038186803b158015610a8157600080fd5b505afa158015610a95573d6000803e3d6000fd5b505050506040513d601f19601f82011682018060405250810190610ab99190611dca565b9050610ac58185610bf5565b9250505092915050565b6000808373ffffffffffffffffffffffffffffffffffffffff16634864d1406040518163ffffffff1660e01b815260040160206040518083038186803b158015610b1857600080fd5b505afa158015610b2c573d6000803e3d6000fd5b505050506040513d601f19601f82011682018060405250810190610b509190611e58565b905060008473ffffffffffffffffffffffffffffffffffffffff1663eec7faa16040518163ffffffff1660e01b815260040160206040518083038186803b158015610b9a57600080fd5b505afa158015610bae573d6000803e3d6000fd5b505050506040513d601f19601f82011682018060405250810190610bd29190611e58565b9050808285610be19190612291565b610beb9190612260565b9250505092915050565b6000808373ffffffffffffffffffffffffffffffffffffffff16634864d1406040518163ffffffff1660e01b815260040160206040518083038186803b158015610c3e57600080fd5b505afa158015610c52573d6000803e3d6000fd5b505050506040513d601f19601f82011682018060405250810190610c769190611e58565b905060008473ffffffffffffffffffffffffffffffffffffffff1663eec7faa16040518163ffffffff1660e01b815260040160206040518083038186803b158015610cc057600080fd5b505afa158015610cd4573d6000803e3d6000fd5b505050506040513d601f19601f82011682018060405250810190610cf89190611e58565b9050610d05848284611691565b9250505092915050565b600080610d1a611c1a565b73ffffffffffffffffffffffffffffffffffffffff1663b99b0a0c6040518163ffffffff1660e01b815260040160206040518083038186803b158015610d5f57600080fd5b505afa158015610d73573d6000803e3d6000fd5b505050506040513d601f19601f82011682018060405250810190610d979190611dca565b73ffffffffffffffffffffffffffffffffffffffff1663bbe4f6db856040518263ffffffff1660e01b8152600401610dcf9190612187565b60206040518083038186803b158015610de757600080fd5b505afa158015610dfb573d6000803e3d6000fd5b505050506040513d601f19601f82011682018060405250810190610e1f9190611dca565b9050610e2b818461126d565b91505092915050565b600080610f3c838573ffffffffffffffffffffffffffffffffffffffff166318160ddd6040518163ffffffff1660e01b815260040160206040518083038186803b158015610e8157600080fd5b505afa158015610e95573d6000803e3d6000fd5b505050506040513d601f19601f82011682018060405250810190610eb99190611e58565b8673ffffffffffffffffffffffffffffffffffffffff16634864d1406040518163ffffffff1660e01b815260040160206040518083038186803b158015610eff57600080fd5b505afa158015610f13573d6000803e3d6000fd5b505050506040513d601f19601f82011682018060405250810190610f379190611e58565b6108ef565b90506000611045848673ffffffffffffffffffffffffffffffffffffffff166318160ddd6040518163ffffffff1660e01b815260040160206040518083038186803b158015610f8a57600080fd5b505afa158015610f9e573d6000803e3d6000fd5b505050506040513d601f19601f82011682018060405250810190610fc29190611e58565b8773ffffffffffffffffffffffffffffffffffffffff1663eec7faa16040518163ffffffff1660e01b815260040160206040518083038186803b15801561100857600080fd5b505afa15801561101c573d6000803e3d6000fd5b505050506040513d601f19601f820116820180604052508101906110409190611e58565b6108ef565b9050600061105386846114b8565b90508082611061919061220a565b935050505092915050565b60008060008054906101000a900473ffffffffffffffffffffffffffffffffffffffff1673ffffffffffffffffffffffffffffffffffffffff168473ffffffffffffffffffffffffffffffffffffffff161415611148578273ffffffffffffffffffffffffffffffffffffffff16634864d1406040518163ffffffff1660e01b815260040160206040518083038186803b15801561110957600080fd5b505afa15801561111d573d6000803e3d6000fd5b505050506040513d601f19601f820116820180604052508101906111419190611e58565b90506111c9565b8273ffffffffffffffffffffffffffffffffffffffff1663eec7faa16040518163ffffffff1660e01b815260040160206040518083038186803b15801561118e57600080fd5b505afa1580156111a2573d6000803e3d6000fd5b505050506040513d601f19601f820116820180604052508101906111c69190611e58565b90505b60008373ffffffffffffffffffffffffffffffffffffffff166318160ddd6040518163ffffffff1660e01b815260040160206040518083038186803b15801561121157600080fd5b505afa158015611225573d6000803e3d6000fd5b505050506040513d601f19601f820116820180604052508101906112499190611e58565b90508086836112589190612291565b6112629190612260565b925050509392505050565b6000808373ffffffffffffffffffffffffffffffffffffffff16634864d1406040518163ffffffff1660e01b815260040160206040518083038186803b1580156112b657600080fd5b505afa1580156112ca573d6000803e3d6000fd5b505050506040513d601f19601f820116820180604052508101906112ee9190611e58565b905060008473ffffffffffffffffffffffffffffffffffffffff1663eec7faa16040518163ffffffff1660e01b815260040160206040518083038186803b15801561133857600080fd5b505afa15801561134c573d6000803e3d6000fd5b505050506040513d601f19601f820116820180604052508101906113709190611e58565b905081818561137f9190612291565b6113899190612260565b9250505092915050565b60008061139e611c1a565b73ffffffffffffffffffffffffffffffffffffffff1663b99b0a0c6040518163ffffffff1660e01b815260040160206040518083038186803b1580156113e357600080fd5b505afa1580156113f7573d6000803e3d6000fd5b505050506040513d601f19601f8201168201806040525081019061141b9190611dca565b73ffffffffffffffffffffffffffffffffffffffff1663bbe4f6db856040518263ffffffff1660e01b81526004016114539190612187565b60206040518083038186803b15801561146b57600080fd5b505afa15801561147f573d6000803e3d6000fd5b505050506040513d601f19601f820116820180604052508101906114a39190611dca565b90506114af81846114b8565b91505092915050565b6000808373ffffffffffffffffffffffffffffffffffffffff16634864d1406040518163ffffffff1660e01b815260040160206040518083038186803b15801561150157600080fd5b505afa158015611515573d6000803e3d6000fd5b505050506040513d601f19601f820116820180604052508101906115399190611e58565b905060008473ffffffffffffffffffffffffffffffffffffffff1663eec7faa16040518163ffffffff1660e01b815260040160206040518083038186803b15801561158357600080fd5b505afa158015611597573d6000803e3d6000fd5b505050506040513d601f19601f820116820180604052508101906115bb9190611e58565b90506115c8848383611691565b9250505092915050565b60008083856115e19190612291565b9050600083876115f19190612291565b90506000866002896116039190612291565b61160d919061220a565b90506000858761161d919061220a565b905060008385111561163c57838561163591906122eb565b905061164b565b848461164891906122eb565b90505b600082846116599190612291565b9050806001548361166a9190612291565b6116749190612260565b60015461168191906122eb565b9650505050505050949350505050565b60008082846116a09190612291565b856116ab9190612291565b9050600084866116bb919061220a565b85876116c7919061220a565b6116d19190612291565b905080826116df9190612260565b925050509392505050565b6000612710831115611731576040517f08c379a0000000000000000000000000000000000000000000000000000000008152600401611728906121a2565b60405180910390fd5b61173e83612710846108ef565b905092915050565b60008082856117559190612291565b856117609190612291565b905060008486611770919061220a565b858761177c919061220a565b6117869190612291565b905080826117949190612260565b925050509392505050565b60006117ad838360646108ef565b905092915050565b60015481565b6000806117c6611c1a565b73ffffffffffffffffffffffffffffffffffffffff1663b99b0a0c6040518163ffffffff1660e01b815260040160206040518083038186803b15801561180b57600080fd5b505afa15801561181f573d6000803e3d6000fd5b505050506040513d601f19601f820116820180604052508101906118439190611dca565b73ffffffffffffffffffffffffffffffffffffffff1663bbe4f6db856040518263ffffffff1660e01b815260040161187b9190612187565b60206040518083038186803b15801561189357600080fd5b505afa1580156118a7573d6000803e3d6000fd5b505050506040513d601f19601f820116820180604052508101906118cb9190611dca565b90506118d78184610bf5565b91505092915050565b6000808273ffffffffffffffffffffffffffffffffffffffff16634864d1406040518163ffffffff1660e01b815260040160206040518083038186803b15801561192957600080fd5b505afa15801561193d573d6000803e3d6000fd5b505050506040513d601f19601f820116820180604052508101906119619190611e58565b905060008373ffffffffffffffffffffffffffffffffffffffff166318160ddd6040518163ffffffff1660e01b815260040160206040518083038186803b1580156119ab57600080fd5b505afa1580156119bf573d6000803e3d6000fd5b505050506040513d601f19601f820116820180604052508101906119e39190611e58565b905060006002905082866119f7919061220a565b81611a029190612291565b8683611a0e9190612291565b611a189190612260565b935050505092915050565b600080611a2e611c1a565b73ffffffffffffffffffffffffffffffffffffffff1663b99b0a0c6040518163ffffffff1660e01b815260040160206040518083038186803b158015611a7357600080fd5b505afa158015611a87573d6000803e3d6000fd5b505050506040513d601f19601f82011682018060405250810190611aab9190611dca565b73ffffffffffffffffffffffffffffffffffffffff1663bbe4f6db856040518263ffffffff1660e01b8152600401611ae39190612187565b60206040518083038186803b158015611afb57600080fd5b505afa158015611b0f573d6000803e3d6000fd5b505050506040513d601f19601f82011682018060405250810190611b339190611dca565b9050611b3f8184610acf565b91505092915050565b600080821415611b5a57859050611bed565b6000611b68878787876115d2565b905060008686611b789190612291565b905060008886611b889190612291565b9050600060028988611b9a9190612291565b611ba49190612291565b90506000818385611bb5919061220a565b88611bc09190612291565b611bca9190612260565b90506001548582611bdb9190612291565b611be59190612260565b955050505050505b95945050505050565b60008054906101000a900473ffffffffffffffffffffffffffffffffffffffff1681565b60008060009054906101000a900473ffffffffffffffffffffffffffffffffffffffff1673ffffffffffffffffffffffffffffffffffffffff166398fabd3a6040518163ffffffff1660e01b815260040160206040518083038186803b158015611c8357600080fd5b505afa158015611c97573d6000803e3d6000fd5b505050506040513d601f19601f82011682018060405250810190611cbb9190611e2f565b905090565b604051806101200160405280600073ffffffffffffffffffffffffffffffffffffffff168152602001600073ffffffffffffffffffffffffffffffffffffffff168152602001600081526020016000815260200160008152602001600081526020016000815260200160008152602001600081525090565b600081359050611d47816123f4565b92915050565b600081519050611d5c816123f4565b92915050565b600081519050611d718161240b565b92915050565b600081359050611d8681612422565b92915050565b600081519050611d9b81612422565b92915050565b600060208284031215611db357600080fd5b6000611dc184828501611d38565b91505092915050565b600060208284031215611ddc57600080fd5b6000611dea84828501611d4d565b91505092915050565b60008060408385031215611e0657600080fd5b6000611e1485828601611d38565b9250506020611e2585828601611d77565b9150509250929050565b600060208284031215611e4157600080fd5b6000611e4f84828501611d62565b91505092915050565b600060208284031215611e6a57600080fd5b6000611e7884828501611d8c565b91505092915050565b60008060408385031215611e9457600080fd5b6000611ea285828601611d77565b9250506020611eb385828601611d38565b9150509250929050565b600080600060608486031215611ed257600080fd5b6000611ee086828701611d77565b9350506020611ef186828701611d38565b9250506040611f0286828701611d38565b9150509250925092565b60008060408385031215611f1f57600080fd5b6000611f2d85828601611d77565b9250506020611f3e85828601611d77565b9150509250929050565b600080600060608486031215611f5d57600080fd5b6000611f6b86828701611d77565b9350506020611f7c86828701611d77565b9250506040611f8d86828701611d77565b9150509250925092565b60008060008060808587031215611fad57600080fd5b6000611fbb87828801611d77565b9450506020611fcc87828801611d77565b9350506040611fdd87828801611d77565b9250506060611fee87828801611d77565b91505092959194509250565b600080600080600060a0868803121561201257600080fd5b600061202088828901611d77565b955050602061203188828901611d77565b945050604061204288828901611d77565b935050606061205388828901611d77565b925050608061206488828901611d77565b9150509295509295909350565b61207a8161231f565b82525050565b6120898161231f565b82525050565b600061209c6012836121f9565b91506120a7826123cb565b602082019050919050565b610120820160008201516120c96000850182612071565b5060208201516120dc6020850182612071565b5060408201516120ef6040850182612169565b5060608201516121026060850182612169565b5060808201516121156080850182612169565b5060a082015161212860a0850182612169565b5060c082015161213b60c0850182612169565b5060e082015161214e60e0850182612169565b50610100820151612163610100850182612169565b50505050565b61217281612363565b82525050565b61218181612363565b82525050565b600060208201905061219c6000830184612080565b92915050565b600060208201905081810360008301526121bb8161208f565b9050919050565b6000610120820190506121d860008301846120b2565b92915050565b60006020820190506121f36000830184612178565b92915050565b600082825260208201905092915050565b600061221582612363565b915061222083612363565b9250827fffffffffffffffffffffffffffffffffffffffffffffffffffffffffffffffff038211156122555761225461236d565b5b828201905092915050565b600061226b82612363565b915061227683612363565b9250826122865761228561239c565b5b828204905092915050565b600061229c82612363565b91506122a783612363565b9250817fffffffffffffffffffffffffffffffffffffffffffffffffffffffffffffffff04831182151516156122e0576122df61236d565b5b828202905092915050565b60006122f682612363565b915061230183612363565b9250828210156123145761231361236d565b5b828203905092915050565b600061232a82612343565b9050919050565b600061233c8261231f565b9050919050565b600073ffffffffffffffffffffffffffffffffffffffff82169050919050565b6000819050919050565b7f4e487b7100000000000000000000000000000000000000000000000000000000600052601160045260246000fd5b7f4e487b7100000000000000000000000000000000000000000000000000000000600052601260045260246000fd5b7f4d75737420626520636f72726563742042500000000000000000000000000000600082015250565b6123fd8161231f565b811461240857600080fd5b50565b61241481612331565b811461241f57600080fd5b50565b61242b81612363565b811461243657600080fd5b5056fea264697066735822122052da234dc976623d50b5beaa0fc3a8433ec8e9712686cb40cf4d2ecf110a1fce64736f6c63430008030033",
  "linkReferences": {},
  "deployedLinkReferences": {}
}