{
  "_format": "hh-sol-artifact-1",
  "contractName": "Utils",
  "sourceName": "contracts/Utils.sol",
  "abi": [
    {
      "inputs": [
        {
          "internalType": "address",
          "name": "_base",
          "type": "address"
        }
      ],
      "stateMutability": "nonpayable",
      "type": "constructor"
    },
    {
      "inputs": [],
      "name": "BASE",
      "outputs": [
        {
          "internalType": "address",
          "name": "",
          "type": "address"
        }
      ],
      "stateMutability": "view",
      "type": "function"
    },
    {
      "inputs": [
        {
          "internalType": "uint256",
          "name": "amount",
          "type": "uint256"
        },
        {
          "internalType": "address",
          "name": "synth",
          "type": "address"
        }
      ],
      "name": "calcActualSynthUnits",
      "outputs": [
        {
          "internalType": "uint256",
          "name": "_output",
          "type": "uint256"
        }
      ],
      "stateMutability": "view",
      "type": "function"
    },
    {
      "inputs": [
        {
          "internalType": "uint256",
          "name": "units",
          "type": "uint256"
        },
        {
          "internalType": "address",
          "name": "token",
          "type": "address"
        },
        {
          "internalType": "address",
          "name": "pool",
          "type": "address"
        }
      ],
      "name": "calcLiquidityHoldings",
      "outputs": [
        {
          "internalType": "uint256",
          "name": "share",
          "type": "uint256"
        }
      ],
      "stateMutability": "view",
      "type": "function"
    },
    {
      "inputs": [
        {
          "internalType": "uint256",
          "name": "b",
          "type": "uint256"
        },
        {
          "internalType": "uint256",
          "name": "B",
          "type": "uint256"
        },
        {
          "internalType": "uint256",
          "name": "t",
          "type": "uint256"
        },
        {
          "internalType": "uint256",
          "name": "T",
          "type": "uint256"
        },
        {
          "internalType": "uint256",
          "name": "P",
          "type": "uint256"
        }
      ],
      "name": "calcLiquidityUnits",
      "outputs": [
        {
          "internalType": "uint256",
          "name": "units",
          "type": "uint256"
        }
      ],
      "stateMutability": "view",
      "type": "function"
    },
    {
      "inputs": [
        {
          "internalType": "uint256",
          "name": "amount",
          "type": "uint256"
        },
        {
          "internalType": "address",
          "name": "pool",
          "type": "address"
        }
      ],
      "name": "calcLiquidityUnitsAsym",
      "outputs": [
        {
          "internalType": "uint256",
          "name": "units",
          "type": "uint256"
        }
      ],
      "stateMutability": "view",
      "type": "function"
    },
    {
      "inputs": [
        {
          "internalType": "uint256",
          "name": "bp",
          "type": "uint256"
        },
        {
          "internalType": "uint256",
          "name": "total",
          "type": "uint256"
        }
      ],
      "name": "calcPart",
      "outputs": [
        {
          "internalType": "uint256",
          "name": "",
          "type": "uint256"
        }
      ],
      "stateMutability": "pure",
      "type": "function"
    },
    {
      "inputs": [
        {
          "internalType": "uint256",
          "name": "part",
          "type": "uint256"
        },
        {
          "internalType": "uint256",
          "name": "total",
          "type": "uint256"
        },
        {
          "internalType": "uint256",
          "name": "amount",
          "type": "uint256"
        }
      ],
      "name": "calcShare",
      "outputs": [
        {
          "internalType": "uint256",
          "name": "share",
          "type": "uint256"
        }
      ],
      "stateMutability": "pure",
      "type": "function"
    },
    {
      "inputs": [
        {
          "internalType": "address",
          "name": "token",
          "type": "address"
        },
        {
          "internalType": "uint256",
          "name": "amount",
          "type": "uint256"
        }
      ],
      "name": "calcSpotValueInBase",
      "outputs": [
        {
          "internalType": "uint256",
          "name": "value",
          "type": "uint256"
        }
      ],
      "stateMutability": "view",
      "type": "function"
    },
    {
      "inputs": [
        {
          "internalType": "uint256",
          "name": "x",
          "type": "uint256"
        },
        {
          "internalType": "uint256",
          "name": "X",
          "type": "uint256"
        },
        {
          "internalType": "uint256",
          "name": "Y",
          "type": "uint256"
        }
      ],
      "name": "calcSwapFee",
      "outputs": [
        {
          "internalType": "uint256",
          "name": "output",
          "type": "uint256"
        }
      ],
      "stateMutability": "pure",
      "type": "function"
    },
    {
      "inputs": [
        {
          "internalType": "uint256",
          "name": "x",
          "type": "uint256"
        },
        {
          "internalType": "uint256",
          "name": "X",
          "type": "uint256"
        },
        {
          "internalType": "uint256",
          "name": "Y",
          "type": "uint256"
        }
      ],
      "name": "calcSwapOutput",
      "outputs": [
        {
          "internalType": "uint256",
          "name": "output",
          "type": "uint256"
        }
      ],
      "stateMutability": "pure",
      "type": "function"
    },
    {
      "inputs": [
        {
          "internalType": "address",
          "name": "token",
          "type": "address"
        },
        {
          "internalType": "uint256",
          "name": "amount",
          "type": "uint256"
        }
      ],
      "name": "calcSwapValueInBase",
      "outputs": [
        {
          "internalType": "uint256",
          "name": "_output",
          "type": "uint256"
        }
      ],
      "stateMutability": "view",
      "type": "function"
    },
    {
      "inputs": [
        {
          "internalType": "address",
          "name": "token",
          "type": "address"
        },
        {
          "internalType": "uint256",
          "name": "amount",
          "type": "uint256"
        }
      ],
      "name": "calcSwapValueInToken",
      "outputs": [
        {
          "internalType": "uint256",
          "name": "_output",
          "type": "uint256"
        }
      ],
      "stateMutability": "view",
      "type": "function"
    },
    {
      "inputs": [
        {
          "internalType": "uint256",
          "name": "totalSupply",
          "type": "uint256"
        },
        {
          "internalType": "uint256",
          "name": "maxSupply",
          "type": "uint256"
        }
      ],
      "name": "getFeeOnTransfer",
      "outputs": [
        {
          "internalType": "uint256",
          "name": "",
          "type": "uint256"
        }
      ],
      "stateMutability": "pure",
      "type": "function"
    },
    {
      "inputs": [
        {
          "internalType": "address",
          "name": "token",
          "type": "address"
        }
      ],
      "name": "getPool",
      "outputs": [
        {
          "internalType": "address",
          "name": "pool",
          "type": "address"
        }
      ],
      "stateMutability": "view",
      "type": "function"
    },
    {
      "inputs": [
        {
          "internalType": "address",
          "name": "token",
          "type": "address"
        }
      ],
      "name": "getPoolData",
      "outputs": [
        {
          "components": [
            {
              "internalType": "address",
              "name": "tokenAddress",
              "type": "address"
            },
            {
              "internalType": "address",
              "name": "poolAddress",
              "type": "address"
            },
            {
              "internalType": "uint256",
              "name": "genesis",
              "type": "uint256"
            },
            {
              "internalType": "uint256",
              "name": "baseAmount",
              "type": "uint256"
            },
            {
              "internalType": "uint256",
              "name": "tokenAmount",
              "type": "uint256"
            },
            {
              "internalType": "uint256",
              "name": "fees",
              "type": "uint256"
            },
            {
              "internalType": "uint256",
              "name": "volume",
              "type": "uint256"
            },
            {
              "internalType": "uint256",
              "name": "txCount",
              "type": "uint256"
            },
            {
              "internalType": "uint256",
              "name": "poolUnits",
              "type": "uint256"
            }
          ],
          "internalType": "struct Utils.PoolDataStruct",
          "name": "poolData",
          "type": "tuple"
        }
      ],
      "stateMutability": "view",
      "type": "function"
    },
    {
      "inputs": [
        {
          "internalType": "address",
          "name": "pool",
          "type": "address"
        },
        {
          "internalType": "uint256",
          "name": "units",
          "type": "uint256"
        }
      ],
      "name": "getPoolShareWeight",
      "outputs": [
        {
          "internalType": "uint256",
          "name": "weight",
          "type": "uint256"
        }
      ],
      "stateMutability": "view",
      "type": "function"
    },
    {
      "inputs": [
        {
          "internalType": "uint256",
          "name": "b",
          "type": "uint256"
        },
        {
          "internalType": "uint256",
          "name": "B",
          "type": "uint256"
        },
        {
          "internalType": "uint256",
          "name": "t",
          "type": "uint256"
        },
        {
          "internalType": "uint256",
          "name": "T",
          "type": "uint256"
        }
      ],
      "name": "getSlipAdjustment",
      "outputs": [
        {
          "internalType": "uint256",
          "name": "slipAdjustment",
          "type": "uint256"
        }
      ],
      "stateMutability": "view",
      "type": "function"
    },
    {
      "inputs": [
        {
          "internalType": "address",
          "name": "token",
          "type": "address"
        }
      ],
      "name": "getSynth",
      "outputs": [
        {
          "internalType": "address",
          "name": "synth",
          "type": "address"
        }
      ],
      "stateMutability": "view",
      "type": "function"
    },
    {
      "inputs": [],
      "name": "one",
      "outputs": [
        {
          "internalType": "uint256",
          "name": "",
          "type": "uint256"
        }
      ],
      "stateMutability": "view",
      "type": "function"
    }
  ],
  "bytecode": "0x6080604052670de0b6b3a76400006001553480156200001d57600080fd5b506040516200245c3803806200245c8339818101604052810190620000439190620000a1565b806000806101000a81548173ffffffffffffffffffffffffffffffffffffffff021916908373ffffffffffffffffffffffffffffffffffffffff160217905550506200011b565b6000815190506200009b8162000101565b92915050565b600060208284031215620000b457600080fd5b6000620000c4848285016200008a565b91505092915050565b6000620000da82620000e1565b9050919050565b600073ffffffffffffffffffffffffffffffffffffffff82169050919050565b6200010c81620000cd565b81146200011857600080fd5b50565b612331806200012b6000396000f3fe608060405234801561001057600080fd5b50600436106101215760003560e01c8063901717d1116100ad578063c5c11ee911610071578063c5c11ee9146103b4578063c889a4df146103e4578063ca2e5b6514610414578063dcec811614610444578063ec342ad01461047457610121565b8063901717d1146102d6578063b80e44b8146102f4578063b86a82ef14610324578063bbe4f6db14610354578063c19387df1461038457610121565b80635f2c12e8116100f45780635f2c12e8146101e6578063701baaf314610216578063714270ab14610246578063896a708c146102765780638b18b115146102a657610121565b806302bf4bf81461012657806313d21cdf146101565780631ba326c4146101865780635a7b2ed3146101b6575b600080fd5b610140600480360381019061013b9190611ded565b610492565b60405161014d9190612077565b60405180910390f35b610170600480360381019061016b9190611bf7565b610594565b60405161017d919061205b565b60405180910390f35b6101a0600480360381019061019b9190611d9e565b61083c565b6040516101ad9190612077565b60405180910390f35b6101d060048036038101906101cb9190611d13565b6108ac565b6040516101dd9190612077565b60405180910390f35b61020060048036038101906101fb9190611c49565b610af0565b60405161020d9190612077565b60405180910390f35b610230600480360381019061022b9190611d9e565b610ce8565b60405161023d9190612077565b60405180910390f35b610260600480360381019061025b9190611d62565b610d84565b60405161026d9190612077565b60405180910390f35b610290600480360381019061028b9190611d9e565b610de0565b60405161029d9190612077565b60405180910390f35b6102c060048036038101906102bb9190611d62565b610e7c565b6040516102cd9190612077565b60405180910390f35b6102de610e92565b6040516102eb9190612077565b60405180910390f35b61030e60048036038101906103099190611c49565b610e98565b60405161031b9190612077565b60405180910390f35b61033e60048036038101906103399190611cd7565b611090565b60405161034b9190612077565b60405180910390f35b61036e60048036038101906103699190611bf7565b6111cd565b60405161037b9190612000565b60405180910390f35b61039e60048036038101906103999190611c49565b6112e3565b6040516103ab9190612077565b60405180910390f35b6103ce60048036038101906103c99190611e50565b61152a565b6040516103db9190612077565b60405180910390f35b6103fe60048036038101906103f99190611cd7565b61162f565b60405161040b9190612077565b60405180910390f35b61042e60048036038101906104299190611c49565b611827565b60405161043b9190612077565b60405180910390f35b61045e60048036038101906104599190611bf7565b611936565b60405161046b9190612000565b60405180910390f35b61047c611a4c565b6040516104899190612000565b60405180910390f35b60008083856104a1919061212a565b9050600083876104b1919061212a565b90506000868860026104c3919061212a565b6104cd91906120a3565b9050600085876104dd91906120a3565b90506000838511156104fc5783856104f59190612184565b905061050b565b84846105089190612184565b90505b60008284610519919061212a565b90506000811161055e576040517f08c379a00000000000000000000000000000000000000000000000000000000081526004016105559061201b565b60405180910390fd5b806001548361056d919061212a565b61057791906120f9565b6001546105849190612184565b9650505050505050949350505050565b61059c611b16565b60006105a7836111cd565b905080826020019073ffffffffffffffffffffffffffffffffffffffff16908173ffffffffffffffffffffffffffffffffffffffff168152505082826000019073ffffffffffffffffffffffffffffffffffffffff16908173ffffffffffffffffffffffffffffffffffffffff16815250508073ffffffffffffffffffffffffffffffffffffffff1663a7f0b3de6040518163ffffffff1660e01b815260040160206040518083038186803b15801561065f57600080fd5b505afa158015610673573d6000803e3d6000fd5b505050506040513d601f19601f820116820180604052508101906106979190611cae565b8260400181815250508073ffffffffffffffffffffffffffffffffffffffff16634864d1406040518163ffffffff1660e01b815260040160206040518083038186803b1580156106e657600080fd5b505afa1580156106fa573d6000803e3d6000fd5b505050506040513d601f19601f8201168201806040525081019061071e9190611cae565b8260600181815250508073ffffffffffffffffffffffffffffffffffffffff1663eec7faa16040518163ffffffff1660e01b815260040160206040518083038186803b15801561076d57600080fd5b505afa158015610781573d6000803e3d6000fd5b505050506040513d601f19601f820116820180604052508101906107a59190611cae565b8260800181815250508073ffffffffffffffffffffffffffffffffffffffff166318160ddd6040518163ffffffff1660e01b815260040160206040518083038186803b1580156107f457600080fd5b505afa158015610808573d6000803e3d6000fd5b505050506040513d601f19601f8201168201806040525081019061082c9190611cae565b8261010001818152505050919050565b6000808311610880576040517f08c379a00000000000000000000000000000000000000000000000000000000081526004016108779061201b565b60405180910390fd5b8284111561088c578293505b828483610899919061212a565b6108a391906120f9565b90509392505050565b60008060008054906101000a900473ffffffffffffffffffffffffffffffffffffffff1673ffffffffffffffffffffffffffffffffffffffff168473ffffffffffffffffffffffffffffffffffffffff161415610988578273ffffffffffffffffffffffffffffffffffffffff16634864d1406040518163ffffffff1660e01b815260040160206040518083038186803b15801561094957600080fd5b505afa15801561095d573d6000803e3d6000fd5b505050506040513d601f19601f820116820180604052508101906109819190611cae565b9050610a09565b8273ffffffffffffffffffffffffffffffffffffffff1663eec7faa16040518163ffffffff1660e01b815260040160206040518083038186803b1580156109ce57600080fd5b505afa1580156109e2573d6000803e3d6000fd5b505050506040513d601f19601f82011682018060405250810190610a069190611cae565b90505b60008373ffffffffffffffffffffffffffffffffffffffff166318160ddd6040518163ffffffff1660e01b815260040160206040518083038186803b158015610a5157600080fd5b505afa158015610a65573d6000803e3d6000fd5b505050506040513d601f19601f82011682018060405250810190610a899190611cae565b905060008111610ace576040517f08c379a0000000000000000000000000000000000000000000000000000000008152600401610ac59061201b565b60405180910390fd5b808683610adb919061212a565b610ae591906120f9565b925050509392505050565b600080610afc846111cd565b90506000610b0985611936565b905060008273ffffffffffffffffffffffffffffffffffffffff16634864d1406040518163ffffffff1660e01b815260040160206040518083038186803b158015610b5357600080fd5b505afa158015610b67573d6000803e3d6000fd5b505050506040513d601f19601f82011682018060405250810190610b8b9190611cae565b905060008373ffffffffffffffffffffffffffffffffffffffff1663eec7faa16040518163ffffffff1660e01b815260040160206040518083038186803b158015610bd557600080fd5b505afa158015610be9573d6000803e3d6000fd5b505050506040513d601f19601f82011682018060405250810190610c0d9190611cae565b905060008073ffffffffffffffffffffffffffffffffffffffff168473ffffffffffffffffffffffffffffffffffffffff1614610cc5578373ffffffffffffffffffffffffffffffffffffffff166318160ddd6040518163ffffffff1660e01b815260040160206040518083038186803b158015610c8a57600080fd5b505afa158015610c9e573d6000803e3d6000fd5b505050506040513d601f19601f82011682018060405250810190610cc29190611cae565b90505b610cdb87848385610cd69190612184565b610ce8565b9550505050505092915050565b600080828486610cf8919061212a565b610d02919061212a565b905060008486610d1291906120a3565b8587610d1e91906120a3565b610d28919061212a565b905060008111610d6d576040517f08c379a0000000000000000000000000000000000000000000000000000000008152600401610d649061201b565b60405180910390fd5b8082610d7991906120f9565b925050509392505050565b6000612710831115610dcb576040517f08c379a0000000000000000000000000000000000000000000000000000000008152600401610dc29061203b565b60405180910390fd5b610dd8836127108461083c565b905092915050565b600080828586610df0919061212a565b610dfa919061212a565b905060008486610e0a91906120a3565b8587610e1691906120a3565b610e20919061212a565b905060008111610e65576040517f08c379a0000000000000000000000000000000000000000000000000000000008152600401610e5c9061201b565b60405180910390fd5b8082610e7191906120f9565b925050509392505050565b6000610e8a8383606461083c565b905092915050565b60015481565b600080610ea4846111cd565b90506000610eb185611936565b905060008273ffffffffffffffffffffffffffffffffffffffff16634864d1406040518163ffffffff1660e01b815260040160206040518083038186803b158015610efb57600080fd5b505afa158015610f0f573d6000803e3d6000fd5b505050506040513d601f19601f82011682018060405250810190610f339190611cae565b905060008373ffffffffffffffffffffffffffffffffffffffff1663eec7faa16040518163ffffffff1660e01b815260040160206040518083038186803b158015610f7d57600080fd5b505afa158015610f91573d6000803e3d6000fd5b505050506040513d601f19601f82011682018060405250810190610fb59190611cae565b905060008073ffffffffffffffffffffffffffffffffffffffff168473ffffffffffffffffffffffffffffffffffffffff161461106d578373ffffffffffffffffffffffffffffffffffffffff166318160ddd6040518163ffffffff1660e01b815260040160206040518083038186803b15801561103257600080fd5b505afa158015611046573d6000803e3d6000fd5b505050506040513d601f19601f8201168201806040525081019061106a9190611cae565b90505b61108387828461107d9190612184565b85610ce8565b9550505050505092915050565b6000808273ffffffffffffffffffffffffffffffffffffffff16634864d1406040518163ffffffff1660e01b815260040160206040518083038186803b1580156110d957600080fd5b505afa1580156110ed573d6000803e3d6000fd5b505050506040513d601f19601f820116820180604052508101906111119190611cae565b905060008373ffffffffffffffffffffffffffffffffffffffff166318160ddd6040518163ffffffff1660e01b815260040160206040518083038186803b15801561115b57600080fd5b505afa15801561116f573d6000803e3d6000fd5b505050506040513d601f19601f820116820180604052508101906111939190611cae565b9050600282866111a391906120a3565b6111ad919061212a565b85826111b9919061212a565b6111c391906120f9565b9250505092915050565b60006111d7611a70565b73ffffffffffffffffffffffffffffffffffffffff1663b99b0a0c6040518163ffffffff1660e01b815260040160206040518083038186803b15801561121c57600080fd5b505afa158015611230573d6000803e3d6000fd5b505050506040513d601f19601f820116820180604052508101906112549190611c20565b73ffffffffffffffffffffffffffffffffffffffff1663bbe4f6db836040518263ffffffff1660e01b815260040161128c9190612000565b60206040518083038186803b1580156112a457600080fd5b505afa1580156112b8573d6000803e3d6000fd5b505050506040513d601f19601f820116820180604052508101906112dc9190611c20565b9050919050565b6000806112ef846111cd565b905060006112fc85611936565b905060008273ffffffffffffffffffffffffffffffffffffffff16634864d1406040518163ffffffff1660e01b815260040160206040518083038186803b15801561134657600080fd5b505afa15801561135a573d6000803e3d6000fd5b505050506040513d601f19601f8201168201806040525081019061137e9190611cae565b905060008373ffffffffffffffffffffffffffffffffffffffff1663eec7faa16040518163ffffffff1660e01b815260040160206040518083038186803b1580156113c857600080fd5b505afa1580156113dc573d6000803e3d6000fd5b505050506040513d601f19601f820116820180604052508101906114009190611cae565b905060008073ffffffffffffffffffffffffffffffffffffffff168473ffffffffffffffffffffffffffffffffffffffff16146114b8578373ffffffffffffffffffffffffffffffffffffffff166318160ddd6040518163ffffffff1660e01b815260040160206040518083038186803b15801561147d57600080fd5b505afa158015611491573d6000803e3d6000fd5b505050506040513d601f19601f820116820180604052508101906114b59190611cae565b90505b600082116114fb576040517f08c379a00000000000000000000000000000000000000000000000000000000081526004016114f29061201b565b60405180910390fd5b80826115079190612184565b8388611513919061212a565b61151d91906120f9565b9550505050505092915050565b60008082141561153c57859050611626565b600061154a87878787610492565b9050670d99a8cec7e20000811161156057600080fd5b6000868661156e919061212a565b90506000888661157e919061212a565b9050600060028988611590919061212a565b61159a919061212a565b9050600081116115df576040517f08c379a00000000000000000000000000000000000000000000000000000000081526004016115d69061201b565b60405180910390fd5b60008183856115ee91906120a3565b886115f9919061212a565b61160391906120f9565b90506001548582611614919061212a565b61161e91906120f9565b955050505050505b95945050505050565b6000808273ffffffffffffffffffffffffffffffffffffffff16637535d2466040518163ffffffff1660e01b815260040160206040518083038186803b15801561167857600080fd5b505afa15801561168c573d6000803e3d6000fd5b505050506040513d601f19601f820116820180604052508101906116b09190611c20565b905060008173ffffffffffffffffffffffffffffffffffffffff16634864d1406040518163ffffffff1660e01b815260040160206040518083038186803b1580156116fa57600080fd5b505afa15801561170e573d6000803e3d6000fd5b505050506040513d601f19601f820116820180604052508101906117329190611cae565b905060008273ffffffffffffffffffffffffffffffffffffffff1663eec7faa16040518163ffffffff1660e01b815260040160206040518083038186803b15801561177c57600080fd5b505afa158015611790573d6000803e3d6000fd5b505050506040513d601f19601f820116820180604052508101906117b49190611cae565b9050600081116117f9576040517f08c379a00000000000000000000000000000000000000000000000000000000081526004016117f09061201b565b60405180910390fd5b806002611806919061212a565b8287611812919061212a565b61181c91906120f9565b935050505092915050565b600061192e828473ffffffffffffffffffffffffffffffffffffffff166318160ddd6040518163ffffffff1660e01b815260040160206040518083038186803b15801561187357600080fd5b505afa158015611887573d6000803e3d6000fd5b505050506040513d601f19601f820116820180604052508101906118ab9190611cae565b8573ffffffffffffffffffffffffffffffffffffffff16634864d1406040518163ffffffff1660e01b815260040160206040518083038186803b1580156118f157600080fd5b505afa158015611905573d6000803e3d6000fd5b505050506040513d601f19601f820116820180604052508101906119299190611cae565b61083c565b905092915050565b6000611940611a70565b73ffffffffffffffffffffffffffffffffffffffff1663b93ec54b6040518163ffffffff1660e01b815260040160206040518083038186803b15801561198557600080fd5b505afa158015611999573d6000803e3d6000fd5b505050506040513d601f19601f820116820180604052508101906119bd9190611c20565b73ffffffffffffffffffffffffffffffffffffffff1663dcec8116836040518263ffffffff1660e01b81526004016119f59190612000565b60206040518083038186803b158015611a0d57600080fd5b505afa158015611a21573d6000803e3d6000fd5b505050506040513d601f19601f82011682018060405250810190611a459190611c20565b9050919050565b60008054906101000a900473ffffffffffffffffffffffffffffffffffffffff1681565b60008060009054906101000a900473ffffffffffffffffffffffffffffffffffffffff1673ffffffffffffffffffffffffffffffffffffffff166398fabd3a6040518163ffffffff1660e01b815260040160206040518083038186803b158015611ad957600080fd5b505afa158015611aed573d6000803e3d6000fd5b505050506040513d601f19601f82011682018060405250810190611b119190611c85565b905090565b604051806101200160405280600073ffffffffffffffffffffffffffffffffffffffff168152602001600073ffffffffffffffffffffffffffffffffffffffff168152602001600081526020016000815260200160008152602001600081526020016000815260200160008152602001600081525090565b600081359050611b9d816122b6565b92915050565b600081519050611bb2816122b6565b92915050565b600081519050611bc7816122cd565b92915050565b600081359050611bdc816122e4565b92915050565b600081519050611bf1816122e4565b92915050565b600060208284031215611c0957600080fd5b6000611c1784828501611b8e565b91505092915050565b600060208284031215611c3257600080fd5b6000611c4084828501611ba3565b91505092915050565b60008060408385031215611c5c57600080fd5b6000611c6a85828601611b8e565b9250506020611c7b85828601611bcd565b9150509250929050565b600060208284031215611c9757600080fd5b6000611ca584828501611bb8565b91505092915050565b600060208284031215611cc057600080fd5b6000611cce84828501611be2565b91505092915050565b60008060408385031215611cea57600080fd5b6000611cf885828601611bcd565b9250506020611d0985828601611b8e565b9150509250929050565b600080600060608486031215611d2857600080fd5b6000611d3686828701611bcd565b9350506020611d4786828701611b8e565b9250506040611d5886828701611b8e565b9150509250925092565b60008060408385031215611d7557600080fd5b6000611d8385828601611bcd565b9250506020611d9485828601611bcd565b9150509250929050565b600080600060608486031215611db357600080fd5b6000611dc186828701611bcd565b9350506020611dd286828701611bcd565b9250506040611de386828701611bcd565b9150509250925092565b60008060008060808587031215611e0357600080fd5b6000611e1187828801611bcd565b9450506020611e2287828801611bcd565b9350506040611e3387828801611bcd565b9250506060611e4487828801611bcd565b91505092959194509250565b600080600080600060a08688031215611e6857600080fd5b6000611e7688828901611bcd565b9550506020611e8788828901611bcd565b9450506040611e9888828901611bcd565b9350506060611ea988828901611bcd565b9250506080611eba88828901611bcd565b9150509295509295909350565b611ed0816121b8565b82525050565b611edf816121b8565b82525050565b6000611ef2600983612092565b9150611efd82612264565b602082019050919050565b6000611f15600383612092565b9150611f208261228d565b602082019050919050565b61012082016000820151611f426000850182611ec7565b506020820151611f556020850182611ec7565b506040820151611f686040850182611fe2565b506060820151611f7b6060850182611fe2565b506080820151611f8e6080850182611fe2565b5060a0820151611fa160a0850182611fe2565b5060c0820151611fb460c0850182611fe2565b5060e0820151611fc760e0850182611fe2565b50610100820151611fdc610100850182611fe2565b50505050565b611feb816121fc565b82525050565b611ffa816121fc565b82525050565b60006020820190506120156000830184611ed6565b92915050565b6000602082019050818103600083015261203481611ee5565b9050919050565b6000602082019050818103600083015261205481611f08565b9050919050565b6000610120820190506120716000830184611f2b565b92915050565b600060208201905061208c6000830184611ff1565b92915050565b600082825260208201905092915050565b60006120ae826121fc565b91506120b9836121fc565b9250827fffffffffffffffffffffffffffffffffffffffffffffffffffffffffffffffff038211156120ee576120ed612206565b5b828201905092915050565b6000612104826121fc565b915061210f836121fc565b92508261211f5761211e612235565b5b828204905092915050565b6000612135826121fc565b9150612140836121fc565b9250817fffffffffffffffffffffffffffffffffffffffffffffffffffffffffffffffff048311821515161561217957612178612206565b5b828202905092915050565b600061218f826121fc565b915061219a836121fc565b9250828210156121ad576121ac612206565b5b828203905092915050565b60006121c3826121dc565b9050919050565b60006121d5826121b8565b9050919050565b600073ffffffffffffffffffffffffffffffffffffffff82169050919050565b6000819050919050565b7f4e487b7100000000000000000000000000000000000000000000000000000000600052601160045260246000fd5b7f4e487b7100000000000000000000000000000000000000000000000000000000600052601260045260246000fd5b7f214449564953494f4e0000000000000000000000000000000000000000000000600082015250565b7f2162700000000000000000000000000000000000000000000000000000000000600082015250565b6122bf816121b8565b81146122ca57600080fd5b50565b6122d6816121ca565b81146122e157600080fd5b50565b6122ed816121fc565b81146122f857600080fd5b5056fea2646970667358221220d42d382b4e21c233a295eed045e0a038b708bd4cf036174e0b52c165e08d8eb564736f6c63430008030033",
  "linkReferences": {},
  "deployedLinkReferences": {}
}