{
  "_format": "hh-sol-artifact-1",
  "contractName": "Utils",
  "sourceName": "contracts/Utils.sol",
  "abi": [
    {
      "inputs": [
        {
          "internalType": "address",
          "name": "_base",
          "type": "address"
        }
      ],
      "stateMutability": "nonpayable",
      "type": "constructor"
    },
    {
      "inputs": [],
      "name": "BASE",
      "outputs": [
        {
          "internalType": "address",
          "name": "",
          "type": "address"
        }
      ],
      "stateMutability": "view",
      "type": "function"
    },
    {
      "inputs": [
        {
          "internalType": "uint256",
          "name": "amount",
          "type": "uint256"
        },
        {
          "internalType": "address",
          "name": "synth",
          "type": "address"
        }
      ],
      "name": "calcActualSynthUnits",
      "outputs": [
        {
          "internalType": "uint256",
          "name": "_output",
          "type": "uint256"
        }
      ],
      "stateMutability": "view",
      "type": "function"
    },
    {
      "inputs": [
        {
          "internalType": "uint256",
          "name": "units",
          "type": "uint256"
        },
        {
          "internalType": "address",
          "name": "token",
          "type": "address"
        },
        {
          "internalType": "address",
          "name": "pool",
          "type": "address"
        }
      ],
      "name": "calcLiquidityHoldings",
      "outputs": [
        {
          "internalType": "uint256",
          "name": "share",
          "type": "uint256"
        }
      ],
      "stateMutability": "view",
      "type": "function"
    },
    {
      "inputs": [
        {
          "internalType": "uint256",
          "name": "b",
          "type": "uint256"
        },
        {
          "internalType": "uint256",
          "name": "B",
          "type": "uint256"
        },
        {
          "internalType": "uint256",
          "name": "t",
          "type": "uint256"
        },
        {
          "internalType": "uint256",
          "name": "T",
          "type": "uint256"
        },
        {
          "internalType": "uint256",
          "name": "P",
          "type": "uint256"
        }
      ],
      "name": "calcLiquidityUnits",
      "outputs": [
        {
          "internalType": "uint256",
          "name": "units",
          "type": "uint256"
        }
      ],
      "stateMutability": "view",
      "type": "function"
    },
    {
      "inputs": [
        {
          "internalType": "uint256",
          "name": "amount",
          "type": "uint256"
        },
        {
          "internalType": "address",
          "name": "pool",
          "type": "address"
        }
      ],
      "name": "calcLiquidityUnitsAsym",
      "outputs": [
        {
          "internalType": "uint256",
          "name": "units",
          "type": "uint256"
        }
      ],
      "stateMutability": "view",
      "type": "function"
    },
    {
      "inputs": [
        {
          "internalType": "uint256",
          "name": "bp",
          "type": "uint256"
        },
        {
          "internalType": "uint256",
          "name": "total",
          "type": "uint256"
        }
      ],
      "name": "calcPart",
      "outputs": [
        {
          "internalType": "uint256",
          "name": "",
          "type": "uint256"
        }
      ],
      "stateMutability": "pure",
      "type": "function"
    },
    {
      "inputs": [
        {
          "internalType": "uint256",
          "name": "part",
          "type": "uint256"
        },
        {
          "internalType": "uint256",
          "name": "total",
          "type": "uint256"
        },
        {
          "internalType": "uint256",
          "name": "amount",
          "type": "uint256"
        }
      ],
      "name": "calcShare",
      "outputs": [
        {
          "internalType": "uint256",
          "name": "share",
          "type": "uint256"
        }
      ],
      "stateMutability": "pure",
      "type": "function"
    },
    {
      "inputs": [
        {
          "internalType": "address",
          "name": "token",
          "type": "address"
        },
        {
          "internalType": "uint256",
          "name": "amount",
          "type": "uint256"
        }
      ],
      "name": "calcSpotValueInBase",
      "outputs": [
        {
          "internalType": "uint256",
          "name": "value",
          "type": "uint256"
        }
      ],
      "stateMutability": "view",
      "type": "function"
    },
    {
      "inputs": [
        {
          "internalType": "address",
          "name": "pool",
          "type": "address"
        },
        {
          "internalType": "uint256",
          "name": "amount",
          "type": "uint256"
        }
      ],
      "name": "calcSpotValueInBaseWithPool",
      "outputs": [
        {
          "internalType": "uint256",
          "name": "value",
          "type": "uint256"
        }
      ],
      "stateMutability": "view",
      "type": "function"
    },
    {
      "inputs": [
        {
          "internalType": "address",
          "name": "token",
          "type": "address"
        },
        {
          "internalType": "uint256",
          "name": "amount",
          "type": "uint256"
        }
      ],
      "name": "calcSpotValueInToken",
      "outputs": [
        {
          "internalType": "uint256",
          "name": "value",
          "type": "uint256"
        }
      ],
      "stateMutability": "view",
      "type": "function"
    },
    {
      "inputs": [
        {
          "internalType": "address",
          "name": "pool",
          "type": "address"
        },
        {
          "internalType": "uint256",
          "name": "amount",
          "type": "uint256"
        }
      ],
      "name": "calcSpotValueInTokenWithPool",
      "outputs": [
        {
          "internalType": "uint256",
          "name": "value",
          "type": "uint256"
        }
      ],
      "stateMutability": "view",
      "type": "function"
    },
    {
      "inputs": [
        {
          "internalType": "uint256",
          "name": "x",
          "type": "uint256"
        },
        {
          "internalType": "uint256",
          "name": "X",
          "type": "uint256"
        },
        {
          "internalType": "uint256",
          "name": "Y",
          "type": "uint256"
        }
      ],
      "name": "calcSwapFee",
      "outputs": [
        {
          "internalType": "uint256",
          "name": "output",
          "type": "uint256"
        }
      ],
      "stateMutability": "pure",
      "type": "function"
    },
    {
      "inputs": [
        {
          "internalType": "uint256",
          "name": "x",
          "type": "uint256"
        },
        {
          "internalType": "uint256",
          "name": "X",
          "type": "uint256"
        },
        {
          "internalType": "uint256",
          "name": "Y",
          "type": "uint256"
        }
      ],
      "name": "calcSwapOutput",
      "outputs": [
        {
          "internalType": "uint256",
          "name": "output",
          "type": "uint256"
        }
      ],
      "stateMutability": "pure",
      "type": "function"
    },
    {
      "inputs": [
        {
          "internalType": "address",
          "name": "token",
          "type": "address"
        },
        {
          "internalType": "uint256",
          "name": "amount",
          "type": "uint256"
        }
      ],
      "name": "calcSwapValueInBase",
      "outputs": [
        {
          "internalType": "uint256",
          "name": "_output",
          "type": "uint256"
        }
      ],
      "stateMutability": "view",
      "type": "function"
    },
    {
      "inputs": [
        {
          "internalType": "address",
          "name": "pool",
          "type": "address"
        },
        {
          "internalType": "uint256",
          "name": "amount",
          "type": "uint256"
        }
      ],
      "name": "calcSwapValueInBaseWithPool",
      "outputs": [
        {
          "internalType": "uint256",
          "name": "_output",
          "type": "uint256"
        }
      ],
      "stateMutability": "view",
      "type": "function"
    },
    {
      "inputs": [
        {
          "internalType": "address",
          "name": "synth",
          "type": "address"
        },
        {
          "internalType": "uint256",
          "name": "amount",
          "type": "uint256"
        }
      ],
      "name": "calcSwapValueInBaseWithSYNTH",
      "outputs": [
        {
          "internalType": "uint256",
          "name": "_output",
          "type": "uint256"
        }
      ],
      "stateMutability": "view",
      "type": "function"
    },
    {
      "inputs": [
        {
          "internalType": "address",
          "name": "token",
          "type": "address"
        },
        {
          "internalType": "uint256",
          "name": "amount",
          "type": "uint256"
        }
      ],
      "name": "calcSwapValueInToken",
      "outputs": [
        {
          "internalType": "uint256",
          "name": "_output",
          "type": "uint256"
        }
      ],
      "stateMutability": "view",
      "type": "function"
    },
    {
      "inputs": [
        {
          "internalType": "address",
          "name": "pool",
          "type": "address"
        },
        {
          "internalType": "uint256",
          "name": "amount",
          "type": "uint256"
        }
      ],
      "name": "calcSwapValueInTokenWithPool",
      "outputs": [
        {
          "internalType": "uint256",
          "name": "_output",
          "type": "uint256"
        }
      ],
      "stateMutability": "view",
      "type": "function"
    },
    {
      "inputs": [
        {
          "internalType": "uint256",
          "name": "totalSupply",
          "type": "uint256"
        },
        {
          "internalType": "uint256",
          "name": "maxSupply",
          "type": "uint256"
        }
      ],
      "name": "getFeeOnTransfer",
      "outputs": [
        {
          "internalType": "uint256",
          "name": "",
          "type": "uint256"
        }
      ],
      "stateMutability": "pure",
      "type": "function"
    },
    {
      "inputs": [
        {
          "internalType": "address",
          "name": "token",
          "type": "address"
        }
      ],
      "name": "getPool",
      "outputs": [
        {
          "internalType": "address",
          "name": "pool",
          "type": "address"
        }
      ],
      "stateMutability": "view",
      "type": "function"
    },
    {
      "inputs": [
        {
          "internalType": "address",
          "name": "token",
          "type": "address"
        }
      ],
      "name": "getPoolData",
      "outputs": [
        {
          "components": [
            {
              "internalType": "address",
              "name": "tokenAddress",
              "type": "address"
            },
            {
              "internalType": "address",
              "name": "poolAddress",
              "type": "address"
            },
            {
              "internalType": "uint256",
              "name": "genesis",
              "type": "uint256"
            },
            {
              "internalType": "uint256",
              "name": "baseAmount",
              "type": "uint256"
            },
            {
              "internalType": "uint256",
              "name": "tokenAmount",
              "type": "uint256"
            },
            {
              "internalType": "uint256",
              "name": "fees",
              "type": "uint256"
            },
            {
              "internalType": "uint256",
              "name": "volume",
              "type": "uint256"
            },
            {
              "internalType": "uint256",
              "name": "txCount",
              "type": "uint256"
            },
            {
              "internalType": "uint256",
              "name": "poolUnits",
              "type": "uint256"
            }
          ],
          "internalType": "struct Utils.PoolDataStruct",
          "name": "poolData",
          "type": "tuple"
        }
      ],
      "stateMutability": "view",
      "type": "function"
    },
    {
      "inputs": [
        {
          "internalType": "address",
          "name": "pool",
          "type": "address"
        },
        {
          "internalType": "uint256",
          "name": "units",
          "type": "uint256"
        }
      ],
      "name": "getPoolShareWeight",
      "outputs": [
        {
          "internalType": "uint256",
          "name": "weight",
          "type": "uint256"
        }
      ],
      "stateMutability": "view",
      "type": "function"
    },
    {
      "inputs": [
        {
          "internalType": "uint256",
          "name": "b",
          "type": "uint256"
        },
        {
          "internalType": "uint256",
          "name": "B",
          "type": "uint256"
        },
        {
          "internalType": "uint256",
          "name": "t",
          "type": "uint256"
        },
        {
          "internalType": "uint256",
          "name": "T",
          "type": "uint256"
        }
      ],
      "name": "getSlipAdjustment",
      "outputs": [
        {
          "internalType": "uint256",
          "name": "slipAdjustment",
          "type": "uint256"
        }
      ],
      "stateMutability": "view",
      "type": "function"
    },
    {
      "inputs": [],
      "name": "one",
      "outputs": [
        {
          "internalType": "uint256",
          "name": "",
          "type": "uint256"
        }
      ],
      "stateMutability": "view",
      "type": "function"
    }
  ],
  "bytecode": "0x6080604052670de0b6b3a76400006001553480156200001d57600080fd5b5060405162002442380380620024428339818101604052810190620000439190620000a1565b806000806101000a81548173ffffffffffffffffffffffffffffffffffffffff021916908373ffffffffffffffffffffffffffffffffffffffff160217905550506200011b565b6000815190506200009b8162000101565b92915050565b600060208284031215620000b457600080fd5b6000620000c4848285016200008a565b91505092915050565b6000620000da82620000e1565b9050919050565b600073ffffffffffffffffffffffffffffffffffffffff82169050919050565b6200010c81620000cd565b81146200011857600080fd5b50565b612317806200012b6000396000f3fe608060405234801561001057600080fd5b50600436106101585760003560e01c8063714270ab116100c3578063bbe4f6db1161007c578063bbe4f6db146104ab578063c19387df146104db578063c5c11ee91461050b578063c889a4df1461053b578063ca2e5b651461056b578063ec342ad01461059b57610158565b8063714270ab1461039d578063896a708c146103cd5780638b18b115146103fd578063901717d11461042d578063b80e44b81461044b578063b86a82ef1461047b57610158565b8063563d5e0511610115578063563d5e051461027d5780635a7b2ed3146102ad5780635ad5a963146102dd5780635f2c12e81461030d578063698f44a31461033d578063701baaf31461036d57610158565b806302bf4bf81461015d57806313d21cdf1461018d5780631ba326c4146101bd5780631c7fbff6146101ed57806320ec04ca1461021d5780633659919f1461024d575b600080fd5b61017760048036038101906101729190611dd3565b6105b9565b604051610184919061205d565b60405180910390f35b6101a760048036038101906101a29190611bdd565b6106bb565b6040516101b49190612041565b60405180910390f35b6101d760048036038101906101d29190611d84565b610963565b6040516101e4919061205d565b60405180910390f35b61020760048036038101906102029190611c2f565b6109d3565b604051610214919061205d565b60405180910390f35b61023760048036038101906102329190611c2f565b610a69565b604051610244919061205d565b60405180910390f35b61026760048036038101906102629190611c2f565b610bd2565b604051610274919061205d565b60405180910390f35b61029760048036038101906102929190611c2f565b610cec565b6040516102a4919061205d565b60405180910390f35b6102c760048036038101906102c29190611cf9565b610d0d565b6040516102d4919061205d565b60405180910390f35b6102f760048036038101906102f29190611c2f565b610f51565b604051610304919061205d565b60405180910390f35b61032760048036038101906103229190611c2f565b6110ba565b604051610334919061205d565b60405180910390f35b61035760048036038101906103529190611c2f565b6110db565b604051610364919061205d565b60405180910390f35b61038760048036038101906103829190611d84565b6111f5565b604051610394919061205d565b60405180910390f35b6103b760048036038101906103b29190611d48565b611291565b6040516103c4919061205d565b60405180910390f35b6103e760048036038101906103e29190611d84565b6112ed565b6040516103f4919061205d565b60405180910390f35b61041760048036038101906104129190611d48565b611389565b604051610424919061205d565b60405180910390f35b61043561139f565b604051610442919061205d565b60405180910390f35b61046560048036038101906104609190611c2f565b6113a5565b604051610472919061205d565b60405180910390f35b61049560048036038101906104909190611cbd565b6113c6565b6040516104a2919061205d565b60405180910390f35b6104c560048036038101906104c09190611bdd565b611503565b6040516104d29190611fe6565b60405180910390f35b6104f560048036038101906104f09190611c2f565b611619565b604051610502919061205d565b60405180910390f35b61052560048036038101906105209190611e36565b61163a565b604051610532919061205d565b60405180910390f35b61055560048036038101906105509190611cbd565b61172b565b604051610562919061205d565b60405180910390f35b61058560048036038101906105809190611c2f565b611923565b604051610592919061205d565b60405180910390f35b6105a3611a32565b6040516105b09190611fe6565b60405180910390f35b60008083856105c89190612110565b9050600083876105d89190612110565b90506000868860026105ea9190612110565b6105f49190612089565b9050600085876106049190612089565b905060008385111561062357838561061c919061216a565b9050610632565b848461062f919061216a565b90505b600082846106409190612110565b905060008111610685576040517f08c379a000000000000000000000000000000000000000000000000000000000815260040161067c90612001565b60405180910390fd5b80600154836106949190612110565b61069e91906120df565b6001546106ab919061216a565b9650505050505050949350505050565b6106c3611afc565b60006106ce83611503565b905080826020019073ffffffffffffffffffffffffffffffffffffffff16908173ffffffffffffffffffffffffffffffffffffffff168152505082826000019073ffffffffffffffffffffffffffffffffffffffff16908173ffffffffffffffffffffffffffffffffffffffff16815250508073ffffffffffffffffffffffffffffffffffffffff1663a7f0b3de6040518163ffffffff1660e01b815260040160206040518083038186803b15801561078657600080fd5b505afa15801561079a573d6000803e3d6000fd5b505050506040513d601f19601f820116820180604052508101906107be9190611c94565b8260400181815250508073ffffffffffffffffffffffffffffffffffffffff16634864d1406040518163ffffffff1660e01b815260040160206040518083038186803b15801561080d57600080fd5b505afa158015610821573d6000803e3d6000fd5b505050506040513d601f19601f820116820180604052508101906108459190611c94565b8260600181815250508073ffffffffffffffffffffffffffffffffffffffff1663eec7faa16040518163ffffffff1660e01b815260040160206040518083038186803b15801561089457600080fd5b505afa1580156108a8573d6000803e3d6000fd5b505050506040513d601f19601f820116820180604052508101906108cc9190611c94565b8260800181815250508073ffffffffffffffffffffffffffffffffffffffff166318160ddd6040518163ffffffff1660e01b815260040160206040518083038186803b15801561091b57600080fd5b505afa15801561092f573d6000803e3d6000fd5b505050506040513d601f19601f820116820180604052508101906109539190611c94565b8261010001818152505050919050565b60008083116109a7576040517f08c379a000000000000000000000000000000000000000000000000000000000815260040161099e90612001565b60405180910390fd5b828411156109b3578293505b8284836109c09190612110565b6109ca91906120df565b90509392505050565b6000808373ffffffffffffffffffffffffffffffffffffffff16637535d2466040518163ffffffff1660e01b815260040160206040518083038186803b158015610a1c57600080fd5b505afa158015610a30573d6000803e3d6000fd5b505050506040513d601f19601f82011682018060405250810190610a549190611c06565b9050610a608184610bd2565b91505092915050565b6000808373ffffffffffffffffffffffffffffffffffffffff16634864d1406040518163ffffffff1660e01b815260040160206040518083038186803b158015610ab257600080fd5b505afa158015610ac6573d6000803e3d6000fd5b505050506040513d601f19601f82011682018060405250810190610aea9190611c94565b905060008473ffffffffffffffffffffffffffffffffffffffff1663eec7faa16040518163ffffffff1660e01b815260040160206040518083038186803b158015610b3457600080fd5b505afa158015610b48573d6000803e3d6000fd5b505050506040513d601f19601f82011682018060405250810190610b6c9190611c94565b905060008111610bb1576040517f08c379a0000000000000000000000000000000000000000000000000000000008152600401610ba890612001565b60405180910390fd5b808285610bbe9190612110565b610bc891906120df565b9250505092915050565b6000808373ffffffffffffffffffffffffffffffffffffffff16634864d1406040518163ffffffff1660e01b815260040160206040518083038186803b158015610c1b57600080fd5b505afa158015610c2f573d6000803e3d6000fd5b505050506040513d601f19601f82011682018060405250810190610c539190611c94565b905060008473ffffffffffffffffffffffffffffffffffffffff1663eec7faa16040518163ffffffff1660e01b815260040160206040518083038186803b158015610c9d57600080fd5b505afa158015610cb1573d6000803e3d6000fd5b505050506040513d601f19601f82011682018060405250810190610cd59190611c94565b9050610ce28482846111f5565b9250505092915050565b600080610cf884611503565b9050610d048184610f51565b91505092915050565b60008060008054906101000a900473ffffffffffffffffffffffffffffffffffffffff1673ffffffffffffffffffffffffffffffffffffffff168473ffffffffffffffffffffffffffffffffffffffff161415610de9578273ffffffffffffffffffffffffffffffffffffffff16634864d1406040518163ffffffff1660e01b815260040160206040518083038186803b158015610daa57600080fd5b505afa158015610dbe573d6000803e3d6000fd5b505050506040513d601f19601f82011682018060405250810190610de29190611c94565b9050610e6a565b8273ffffffffffffffffffffffffffffffffffffffff1663eec7faa16040518163ffffffff1660e01b815260040160206040518083038186803b158015610e2f57600080fd5b505afa158015610e43573d6000803e3d6000fd5b505050506040513d601f19601f82011682018060405250810190610e679190611c94565b90505b60008373ffffffffffffffffffffffffffffffffffffffff166318160ddd6040518163ffffffff1660e01b815260040160206040518083038186803b158015610eb257600080fd5b505afa158015610ec6573d6000803e3d6000fd5b505050506040513d601f19601f82011682018060405250810190610eea9190611c94565b905060008111610f2f576040517f08c379a0000000000000000000000000000000000000000000000000000000008152600401610f2690612001565b60405180910390fd5b808683610f3c9190612110565b610f4691906120df565b925050509392505050565b6000808373ffffffffffffffffffffffffffffffffffffffff16634864d1406040518163ffffffff1660e01b815260040160206040518083038186803b158015610f9a57600080fd5b505afa158015610fae573d6000803e3d6000fd5b505050506040513d601f19601f82011682018060405250810190610fd29190611c94565b905060008473ffffffffffffffffffffffffffffffffffffffff1663eec7faa16040518163ffffffff1660e01b815260040160206040518083038186803b15801561101c57600080fd5b505afa158015611030573d6000803e3d6000fd5b505050506040513d601f19601f820116820180604052508101906110549190611c94565b905060008211611099576040517f08c379a000000000000000000000000000000000000000000000000000000000815260040161109090612001565b60405180910390fd5b8181856110a69190612110565b6110b091906120df565b9250505092915050565b6000806110c684611503565b90506110d281846110db565b91505092915050565b6000808373ffffffffffffffffffffffffffffffffffffffff16634864d1406040518163ffffffff1660e01b815260040160206040518083038186803b15801561112457600080fd5b505afa158015611138573d6000803e3d6000fd5b505050506040513d601f19601f8201168201806040525081019061115c9190611c94565b905060008473ffffffffffffffffffffffffffffffffffffffff1663eec7faa16040518163ffffffff1660e01b815260040160206040518083038186803b1580156111a657600080fd5b505afa1580156111ba573d6000803e3d6000fd5b505050506040513d601f19601f820116820180604052508101906111de9190611c94565b90506111eb8483836111f5565b9250505092915050565b6000808284866112059190612110565b61120f9190612110565b90506000848661121f9190612089565b858761122b9190612089565b6112359190612110565b90506000811161127a576040517f08c379a000000000000000000000000000000000000000000000000000000000815260040161127190612001565b60405180910390fd5b808261128691906120df565b925050509392505050565b60006127108311156112d8576040517f08c379a00000000000000000000000000000000000000000000000000000000081526004016112cf90612021565b60405180910390fd5b6112e58361271084610963565b905092915050565b6000808285866112fd9190612110565b6113079190612110565b9050600084866113179190612089565b85876113239190612089565b61132d9190612110565b905060008111611372576040517f08c379a000000000000000000000000000000000000000000000000000000000815260040161136990612001565b60405180910390fd5b808261137e91906120df565b925050509392505050565b600061139783836064610963565b905092915050565b60015481565b6000806113b184611503565b90506113bd8184610bd2565b91505092915050565b6000808273ffffffffffffffffffffffffffffffffffffffff16634864d1406040518163ffffffff1660e01b815260040160206040518083038186803b15801561140f57600080fd5b505afa158015611423573d6000803e3d6000fd5b505050506040513d601f19601f820116820180604052508101906114479190611c94565b905060008373ffffffffffffffffffffffffffffffffffffffff166318160ddd6040518163ffffffff1660e01b815260040160206040518083038186803b15801561149157600080fd5b505afa1580156114a5573d6000803e3d6000fd5b505050506040513d601f19601f820116820180604052508101906114c99190611c94565b9050600282866114d99190612089565b6114e39190612110565b85826114ef9190612110565b6114f991906120df565b9250505092915050565b600061150d611a56565b73ffffffffffffffffffffffffffffffffffffffff1663b99b0a0c6040518163ffffffff1660e01b815260040160206040518083038186803b15801561155257600080fd5b505afa158015611566573d6000803e3d6000fd5b505050506040513d601f19601f8201168201806040525081019061158a9190611c06565b73ffffffffffffffffffffffffffffffffffffffff1663bbe4f6db836040518263ffffffff1660e01b81526004016115c29190611fe6565b60206040518083038186803b1580156115da57600080fd5b505afa1580156115ee573d6000803e3d6000fd5b505050506040513d601f19601f820116820180604052508101906116129190611c06565b9050919050565b60008061162584611503565b90506116318184610a69565b91505092915050565b60008082141561164c57859050611722565b600061165a878787876105b9565b90506000868661166a9190612110565b90506000888661167a9190612110565b905060006002898861168c9190612110565b6116969190612110565b9050600081116116db576040517f08c379a00000000000000000000000000000000000000000000000000000000081526004016116d290612001565b60405180910390fd5b60008183856116ea9190612089565b886116f59190612110565b6116ff91906120df565b905060015485826117109190612110565b61171a91906120df565b955050505050505b95945050505050565b6000808273ffffffffffffffffffffffffffffffffffffffff16637535d2466040518163ffffffff1660e01b815260040160206040518083038186803b15801561177457600080fd5b505afa158015611788573d6000803e3d6000fd5b505050506040513d601f19601f820116820180604052508101906117ac9190611c06565b905060008173ffffffffffffffffffffffffffffffffffffffff16634864d1406040518163ffffffff1660e01b815260040160206040518083038186803b1580156117f657600080fd5b505afa15801561180a573d6000803e3d6000fd5b505050506040513d601f19601f8201168201806040525081019061182e9190611c94565b905060008273ffffffffffffffffffffffffffffffffffffffff1663eec7faa16040518163ffffffff1660e01b815260040160206040518083038186803b15801561187857600080fd5b505afa15801561188c573d6000803e3d6000fd5b505050506040513d601f19601f820116820180604052508101906118b09190611c94565b9050600081116118f5576040517f08c379a00000000000000000000000000000000000000000000000000000000081526004016118ec90612001565b60405180910390fd5b8060026119029190612110565b828761190e9190612110565b61191891906120df565b935050505092915050565b6000611a2a828473ffffffffffffffffffffffffffffffffffffffff166318160ddd6040518163ffffffff1660e01b815260040160206040518083038186803b15801561196f57600080fd5b505afa158015611983573d6000803e3d6000fd5b505050506040513d601f19601f820116820180604052508101906119a79190611c94565b8573ffffffffffffffffffffffffffffffffffffffff16634864d1406040518163ffffffff1660e01b815260040160206040518083038186803b1580156119ed57600080fd5b505afa158015611a01573d6000803e3d6000fd5b505050506040513d601f19601f82011682018060405250810190611a259190611c94565b610963565b905092915050565b60008054906101000a900473ffffffffffffffffffffffffffffffffffffffff1681565b60008060009054906101000a900473ffffffffffffffffffffffffffffffffffffffff1673ffffffffffffffffffffffffffffffffffffffff166398fabd3a6040518163ffffffff1660e01b815260040160206040518083038186803b158015611abf57600080fd5b505afa158015611ad3573d6000803e3d6000fd5b505050506040513d601f19601f82011682018060405250810190611af79190611c6b565b905090565b604051806101200160405280600073ffffffffffffffffffffffffffffffffffffffff168152602001600073ffffffffffffffffffffffffffffffffffffffff168152602001600081526020016000815260200160008152602001600081526020016000815260200160008152602001600081525090565b600081359050611b838161229c565b92915050565b600081519050611b988161229c565b92915050565b600081519050611bad816122b3565b92915050565b600081359050611bc2816122ca565b92915050565b600081519050611bd7816122ca565b92915050565b600060208284031215611bef57600080fd5b6000611bfd84828501611b74565b91505092915050565b600060208284031215611c1857600080fd5b6000611c2684828501611b89565b91505092915050565b60008060408385031215611c4257600080fd5b6000611c5085828601611b74565b9250506020611c6185828601611bb3565b9150509250929050565b600060208284031215611c7d57600080fd5b6000611c8b84828501611b9e565b91505092915050565b600060208284031215611ca657600080fd5b6000611cb484828501611bc8565b91505092915050565b60008060408385031215611cd057600080fd5b6000611cde85828601611bb3565b9250506020611cef85828601611b74565b9150509250929050565b600080600060608486031215611d0e57600080fd5b6000611d1c86828701611bb3565b9350506020611d2d86828701611b74565b9250506040611d3e86828701611b74565b9150509250925092565b60008060408385031215611d5b57600080fd5b6000611d6985828601611bb3565b9250506020611d7a85828601611bb3565b9150509250929050565b600080600060608486031215611d9957600080fd5b6000611da786828701611bb3565b9350506020611db886828701611bb3565b9250506040611dc986828701611bb3565b9150509250925092565b60008060008060808587031215611de957600080fd5b6000611df787828801611bb3565b9450506020611e0887828801611bb3565b9350506040611e1987828801611bb3565b9250506060611e2a87828801611bb3565b91505092959194509250565b600080600080600060a08688031215611e4e57600080fd5b6000611e5c88828901611bb3565b9550506020611e6d88828901611bb3565b9450506040611e7e88828901611bb3565b9350506060611e8f88828901611bb3565b9250506080611ea088828901611bb3565b9150509295509295909350565b611eb68161219e565b82525050565b611ec58161219e565b82525050565b6000611ed8600983612078565b9150611ee38261224a565b602082019050919050565b6000611efb600383612078565b9150611f0682612273565b602082019050919050565b61012082016000820151611f286000850182611ead565b506020820151611f3b6020850182611ead565b506040820151611f4e6040850182611fc8565b506060820151611f616060850182611fc8565b506080820151611f746080850182611fc8565b5060a0820151611f8760a0850182611fc8565b5060c0820151611f9a60c0850182611fc8565b5060e0820151611fad60e0850182611fc8565b50610100820151611fc2610100850182611fc8565b50505050565b611fd1816121e2565b82525050565b611fe0816121e2565b82525050565b6000602082019050611ffb6000830184611ebc565b92915050565b6000602082019050818103600083015261201a81611ecb565b9050919050565b6000602082019050818103600083015261203a81611eee565b9050919050565b6000610120820190506120576000830184611f11565b92915050565b60006020820190506120726000830184611fd7565b92915050565b600082825260208201905092915050565b6000612094826121e2565b915061209f836121e2565b9250827fffffffffffffffffffffffffffffffffffffffffffffffffffffffffffffffff038211156120d4576120d36121ec565b5b828201905092915050565b60006120ea826121e2565b91506120f5836121e2565b9250826121055761210461221b565b5b828204905092915050565b600061211b826121e2565b9150612126836121e2565b9250817fffffffffffffffffffffffffffffffffffffffffffffffffffffffffffffffff048311821515161561215f5761215e6121ec565b5b828202905092915050565b6000612175826121e2565b9150612180836121e2565b925082821015612193576121926121ec565b5b828203905092915050565b60006121a9826121c2565b9050919050565b60006121bb8261219e565b9050919050565b600073ffffffffffffffffffffffffffffffffffffffff82169050919050565b6000819050919050565b7f4e487b7100000000000000000000000000000000000000000000000000000000600052601160045260246000fd5b7f4e487b7100000000000000000000000000000000000000000000000000000000600052601260045260246000fd5b7f214449564953494f4e0000000000000000000000000000000000000000000000600082015250565b7f2162700000000000000000000000000000000000000000000000000000000000600082015250565b6122a58161219e565b81146122b057600080fd5b50565b6122bc816121b0565b81146122c757600080fd5b50565b6122d3816121e2565b81146122de57600080fd5b5056fea26469706673582212203b97a64102bbfc996991864514f94d362989622e50f803fa79329853400dd8a764736f6c63430008030033",
  "linkReferences": {},
  "deployedLinkReferences": {}
}