{
  "_format": "hh-sol-artifact-1",
  "contractName": "Utils",
  "sourceName": "contracts/Utils.sol",
  "abi": [
    {
      "inputs": [
        {
          "internalType": "address",
          "name": "_base",
          "type": "address"
        }
      ],
      "stateMutability": "nonpayable",
      "type": "constructor"
    },
    {
      "inputs": [],
      "name": "BASE",
      "outputs": [
        {
          "internalType": "address",
          "name": "",
          "type": "address"
        }
      ],
      "stateMutability": "view",
      "type": "function"
    },
    {
      "inputs": [
        {
          "internalType": "address",
          "name": "synth",
          "type": "address"
        },
        {
          "internalType": "uint256",
          "name": "amount",
          "type": "uint256"
        }
      ],
      "name": "calcActualSynthUnits",
      "outputs": [
        {
          "internalType": "uint256",
          "name": "_output",
          "type": "uint256"
        }
      ],
      "stateMutability": "view",
      "type": "function"
    },
    {
      "inputs": [
        {
          "internalType": "uint256",
          "name": "units",
          "type": "uint256"
        },
        {
          "internalType": "address",
          "name": "token",
          "type": "address"
        },
        {
          "internalType": "address",
          "name": "pool",
          "type": "address"
        }
      ],
      "name": "calcLiquidityHoldings",
      "outputs": [
        {
          "internalType": "uint256",
          "name": "share",
          "type": "uint256"
        }
      ],
      "stateMutability": "view",
      "type": "function"
    },
    {
      "inputs": [
        {
          "internalType": "uint256",
          "name": "b",
          "type": "uint256"
        },
        {
          "internalType": "uint256",
          "name": "B",
          "type": "uint256"
        },
        {
          "internalType": "uint256",
          "name": "t",
          "type": "uint256"
        },
        {
          "internalType": "uint256",
          "name": "T",
          "type": "uint256"
        },
        {
          "internalType": "uint256",
          "name": "P",
          "type": "uint256"
        }
      ],
      "name": "calcLiquidityUnits",
      "outputs": [
        {
          "internalType": "uint256",
          "name": "units",
          "type": "uint256"
        }
      ],
      "stateMutability": "pure",
      "type": "function"
    },
    {
      "inputs": [
        {
          "internalType": "uint256",
          "name": "amount",
          "type": "uint256"
        },
        {
          "internalType": "address",
          "name": "pool",
          "type": "address"
        }
      ],
      "name": "calcLiquidityUnitsAsym",
      "outputs": [
        {
          "internalType": "uint256",
          "name": "units",
          "type": "uint256"
        }
      ],
      "stateMutability": "view",
      "type": "function"
    },
    {
      "inputs": [
        {
          "internalType": "uint256",
          "name": "bp",
          "type": "uint256"
        },
        {
          "internalType": "uint256",
          "name": "total",
          "type": "uint256"
        }
      ],
      "name": "calcPart",
      "outputs": [
        {
          "internalType": "uint256",
          "name": "",
          "type": "uint256"
        }
      ],
      "stateMutability": "pure",
      "type": "function"
    },
    {
      "inputs": [
        {
          "internalType": "uint256",
          "name": "part",
          "type": "uint256"
        },
        {
          "internalType": "uint256",
          "name": "total",
          "type": "uint256"
        },
        {
          "internalType": "uint256",
          "name": "amount",
          "type": "uint256"
        }
      ],
      "name": "calcShare",
      "outputs": [
        {
          "internalType": "uint256",
          "name": "share",
          "type": "uint256"
        }
      ],
      "stateMutability": "pure",
      "type": "function"
    },
    {
      "inputs": [
        {
          "internalType": "address",
          "name": "token",
          "type": "address"
        },
        {
          "internalType": "uint256",
          "name": "amount",
          "type": "uint256"
        }
      ],
      "name": "calcSpotValueInBase",
      "outputs": [
        {
          "internalType": "uint256",
          "name": "value",
          "type": "uint256"
        }
      ],
      "stateMutability": "view",
      "type": "function"
    },
    {
      "inputs": [
        {
          "internalType": "address",
          "name": "synth",
          "type": "address"
        },
        {
          "internalType": "uint256",
          "name": "amount",
          "type": "uint256"
        }
      ],
      "name": "calcSpotValueInBaseWithSynth",
      "outputs": [
        {
          "internalType": "uint256",
          "name": "value",
          "type": "uint256"
        }
      ],
      "stateMutability": "view",
      "type": "function"
    },
    {
      "inputs": [
        {
          "internalType": "uint256",
          "name": "x",
          "type": "uint256"
        },
        {
          "internalType": "uint256",
          "name": "X",
          "type": "uint256"
        },
        {
          "internalType": "uint256",
          "name": "Y",
          "type": "uint256"
        }
      ],
      "name": "calcSwapFee",
      "outputs": [
        {
          "internalType": "uint256",
          "name": "output",
          "type": "uint256"
        }
      ],
      "stateMutability": "pure",
      "type": "function"
    },
    {
      "inputs": [
        {
          "internalType": "uint256",
          "name": "x",
          "type": "uint256"
        },
        {
          "internalType": "uint256",
          "name": "X",
          "type": "uint256"
        },
        {
          "internalType": "uint256",
          "name": "Y",
          "type": "uint256"
        }
      ],
      "name": "calcSwapOutput",
      "outputs": [
        {
          "internalType": "uint256",
          "name": "output",
          "type": "uint256"
        }
      ],
      "stateMutability": "pure",
      "type": "function"
    },
    {
      "inputs": [
        {
          "internalType": "address",
          "name": "token",
          "type": "address"
        },
        {
          "internalType": "uint256",
          "name": "amount",
          "type": "uint256"
        }
      ],
      "name": "calcSwapValueInBase",
      "outputs": [
        {
          "internalType": "uint256",
          "name": "_output",
          "type": "uint256"
        }
      ],
      "stateMutability": "view",
      "type": "function"
    },
    {
      "inputs": [
        {
          "internalType": "address",
          "name": "token",
          "type": "address"
        },
        {
          "internalType": "uint256",
          "name": "amount",
          "type": "uint256"
        }
      ],
      "name": "calcSwapValueInToken",
      "outputs": [
        {
          "internalType": "uint256",
          "name": "_output",
          "type": "uint256"
        }
      ],
      "stateMutability": "view",
      "type": "function"
    },
    {
      "inputs": [
        {
          "internalType": "uint256",
          "name": "totalSupply",
          "type": "uint256"
        },
        {
          "internalType": "uint256",
          "name": "maxSupply",
          "type": "uint256"
        }
      ],
      "name": "getFeeOnTransfer",
      "outputs": [
        {
          "internalType": "uint256",
          "name": "",
          "type": "uint256"
        }
      ],
      "stateMutability": "pure",
      "type": "function"
    },
    {
      "inputs": [
        {
          "internalType": "address",
          "name": "token",
          "type": "address"
        }
      ],
      "name": "getPool",
      "outputs": [
        {
          "internalType": "address",
          "name": "pool",
          "type": "address"
        }
      ],
      "stateMutability": "view",
      "type": "function"
    },
    {
      "inputs": [
        {
          "internalType": "address",
          "name": "token",
          "type": "address"
        }
      ],
      "name": "getPoolData",
      "outputs": [
        {
          "components": [
            {
              "internalType": "address",
              "name": "tokenAddress",
              "type": "address"
            },
            {
              "internalType": "address",
              "name": "poolAddress",
              "type": "address"
            },
            {
              "internalType": "uint256",
              "name": "genesis",
              "type": "uint256"
            },
            {
              "internalType": "uint256",
              "name": "baseAmount",
              "type": "uint256"
            },
            {
              "internalType": "uint256",
              "name": "tokenAmount",
              "type": "uint256"
            },
            {
              "internalType": "uint256",
              "name": "poolUnits",
              "type": "uint256"
            }
          ],
          "internalType": "struct Utils.PoolDataStruct",
          "name": "poolData",
          "type": "tuple"
        }
      ],
      "stateMutability": "view",
      "type": "function"
    },
    {
      "inputs": [
        {
          "internalType": "address",
          "name": "pool",
          "type": "address"
        },
        {
          "internalType": "uint256",
          "name": "units",
          "type": "uint256"
        }
      ],
      "name": "getPoolShareWeight",
      "outputs": [
        {
          "internalType": "uint256",
          "name": "weight",
          "type": "uint256"
        }
      ],
      "stateMutability": "view",
      "type": "function"
    },
    {
      "inputs": [
        {
          "internalType": "uint256",
          "name": "b",
          "type": "uint256"
        },
        {
          "internalType": "uint256",
          "name": "B",
          "type": "uint256"
        },
        {
          "internalType": "uint256",
          "name": "t",
          "type": "uint256"
        },
        {
          "internalType": "uint256",
          "name": "T",
          "type": "uint256"
        }
      ],
      "name": "getSlipAdjustment",
      "outputs": [
        {
          "internalType": "uint256",
          "name": "slipAdjustment",
          "type": "uint256"
        }
      ],
      "stateMutability": "pure",
      "type": "function"
    },
    {
      "inputs": [
        {
          "internalType": "address",
          "name": "token",
          "type": "address"
        }
      ],
      "name": "getSynth",
      "outputs": [
        {
          "internalType": "address",
          "name": "synth",
          "type": "address"
        }
      ],
      "stateMutability": "view",
      "type": "function"
    }
  ],
  "bytecode": "0x60a06040523480156200001157600080fd5b50604051620023a9380380620023a983398181016040528101906200003791906200008c565b8073ffffffffffffffffffffffffffffffffffffffff1660808173ffffffffffffffffffffffffffffffffffffffff1660601b815250505062000106565b6000815190506200008681620000ec565b92915050565b6000602082840312156200009f57600080fd5b6000620000af8482850162000075565b91505092915050565b6000620000c582620000cc565b9050919050565b600073ffffffffffffffffffffffffffffffffffffffff82169050919050565b620000f781620000b8565b81146200010357600080fd5b50565b60805160601c6122766200013360003960008181610aba015281816119e70152611a0d01526122766000f3fe608060405234801561001057600080fd5b50600436106101215760003560e01c8063896a708c116100ad578063c19387df11610071578063c19387df146103c6578063c5c11ee9146103f6578063ca2e5b6514610426578063dcec811614610456578063ec342ad01461048657610121565b8063896a708c146102d65780638b18b11514610306578063b80e44b814610336578063b86a82ef14610366578063bbe4f6db1461039657610121565b80635a7b2ed3116100f45780635a7b2ed3146101e65780635f2c12e8146102165780636c5054d014610246578063701baaf314610276578063714270ab146102a657610121565b806302bf4bf81461012657806313d21cdf146101565780631ba326c41461018657806348c0fd8f146101b6575b600080fd5b610140600480360381019061013b9190611d6f565b6104a4565b60405161014d9190611fbc565b60405180910390f35b610170600480360381019061016b9190611b79565b6105b2565b60405161017d9190611fa1565b60405180910390f35b6101a0600480360381019061019b9190611d20565b610859565b6040516101ad9190611fbc565b60405180910390f35b6101d060048036038101906101cb9190611bcb565b6108c9565b6040516101dd9190611fbc565b60405180910390f35b61020060048036038101906101fb9190611c95565b610ab5565b60405161020d9190611fbc565b60405180910390f35b610230600480360381019061022b9190611bcb565b610cf9565b60405161023d9190611fbc565b60405180910390f35b610260600480360381019061025b9190611bcb565b610e21565b60405161026d9190611fbc565b60405180910390f35b610290600480360381019061028b9190611d20565b611019565b60405161029d9190611fbc565b60405180910390f35b6102c060048036038101906102bb9190611ce4565b6110b5565b6040516102cd9190611fbc565b60405180910390f35b6102f060048036038101906102eb9190611d20565b611111565b6040516102fd9190611fbc565b60405180910390f35b610320600480360381019061031b9190611ce4565b6111ad565b60405161032d9190611fbc565b60405180910390f35b610350600480360381019061034b9190611bcb565b6111c3565b60405161035d9190611fbc565b60405180910390f35b610380600480360381019061037b9190611c59565b6112eb565b60405161038d9190611fbc565b60405180910390f35b6103b060048036038101906103ab9190611b79565b611428565b6040516103bd9190611f46565b60405180910390f35b6103e060048036038101906103db9190611bcb565b61153e565b6040516103ed9190611fbc565b60405180910390f35b610410600480360381019061040b9190611dd2565b6116b5565b60405161041d9190611fbc565b60405180910390f35b610440600480360381019061043b9190611bcb565b6117c0565b60405161044d9190611fbc565b60405180910390f35b610470600480360381019061046b9190611b79565b6118cf565b60405161047d9190611f46565b60405180910390f35b61048e6119e5565b60405161049b9190611f46565b60405180910390f35b60008083856104b3919061206f565b9050600083876104c3919061206f565b90506000868860026104d5919061206f565b6104df9190611fe8565b9050600085876104ef9190611fe8565b905060008385111561050e57838561050791906120c9565b905061051d565b848461051a91906120c9565b90505b6000828461052b919061206f565b905060008111610570576040517f08c379a000000000000000000000000000000000000000000000000000000000815260040161056790611f61565b60405180910390fd5b80670de0b6b3a764000083610585919061206f565b61058f919061203e565b670de0b6b3a76400006105a291906120c9565b9650505050505050949350505050565b6105ba611aae565b60006105c583611428565b905082826000019073ffffffffffffffffffffffffffffffffffffffff16908173ffffffffffffffffffffffffffffffffffffffff168152505080826020019073ffffffffffffffffffffffffffffffffffffffff16908173ffffffffffffffffffffffffffffffffffffffff16815250508073ffffffffffffffffffffffffffffffffffffffff1663a7f0b3de6040518163ffffffff1660e01b815260040160206040518083038186803b15801561067d57600080fd5b505afa158015610691573d6000803e3d6000fd5b505050506040513d601f19601f820116820180604052508101906106b59190611c30565b8260400181815250508073ffffffffffffffffffffffffffffffffffffffff16634864d1406040518163ffffffff1660e01b815260040160206040518083038186803b15801561070457600080fd5b505afa158015610718573d6000803e3d6000fd5b505050506040513d601f19601f8201168201806040525081019061073c9190611c30565b8260600181815250508073ffffffffffffffffffffffffffffffffffffffff1663eec7faa16040518163ffffffff1660e01b815260040160206040518083038186803b15801561078b57600080fd5b505afa15801561079f573d6000803e3d6000fd5b505050506040513d601f19601f820116820180604052508101906107c39190611c30565b8260800181815250508073ffffffffffffffffffffffffffffffffffffffff166318160ddd6040518163ffffffff1660e01b815260040160206040518083038186803b15801561081257600080fd5b505afa158015610826573d6000803e3d6000fd5b505050506040513d601f19601f8201168201806040525081019061084a9190611c30565b8260a001818152505050919050565b600080831161089d576040517f08c379a000000000000000000000000000000000000000000000000000000000815260040161089490611f61565b60405180910390fd5b828411156108a9578293505b8284836108b6919061206f565b6108c0919061203e565b90509392505050565b6000808373ffffffffffffffffffffffffffffffffffffffff16637535d2466040518163ffffffff1660e01b815260040160206040518083038186803b15801561091257600080fd5b505afa158015610926573d6000803e3d6000fd5b505050506040513d601f19601f8201168201806040525081019061094a9190611ba2565b905060008173ffffffffffffffffffffffffffffffffffffffff16634864d1406040518163ffffffff1660e01b815260040160206040518083038186803b15801561099457600080fd5b505afa1580156109a8573d6000803e3d6000fd5b505050506040513d601f19601f820116820180604052508101906109cc9190611c30565b905060008273ffffffffffffffffffffffffffffffffffffffff1663eec7faa16040518163ffffffff1660e01b815260040160206040518083038186803b158015610a1657600080fd5b505afa158015610a2a573d6000803e3d6000fd5b505050506040513d601f19601f82011682018060405250810190610a4e9190611c30565b905060008111610a93576040517f08c379a0000000000000000000000000000000000000000000000000000000008152600401610a8a90611f61565b60405180910390fd5b808286610aa0919061206f565b610aaa919061203e565b935050505092915050565b6000807f000000000000000000000000000000000000000000000000000000000000000073ffffffffffffffffffffffffffffffffffffffff168473ffffffffffffffffffffffffffffffffffffffff161415610b91578273ffffffffffffffffffffffffffffffffffffffff16634864d1406040518163ffffffff1660e01b815260040160206040518083038186803b158015610b5257600080fd5b505afa158015610b66573d6000803e3d6000fd5b505050506040513d601f19601f82011682018060405250810190610b8a9190611c30565b9050610c12565b8273ffffffffffffffffffffffffffffffffffffffff1663eec7faa16040518163ffffffff1660e01b815260040160206040518083038186803b158015610bd757600080fd5b505afa158015610beb573d6000803e3d6000fd5b505050506040513d601f19601f82011682018060405250810190610c0f9190611c30565b90505b60008373ffffffffffffffffffffffffffffffffffffffff166318160ddd6040518163ffffffff1660e01b815260040160206040518083038186803b158015610c5a57600080fd5b505afa158015610c6e573d6000803e3d6000fd5b505050506040513d601f19601f82011682018060405250810190610c929190611c30565b905060008111610cd7576040517f08c379a0000000000000000000000000000000000000000000000000000000008152600401610cce90611f61565b60405180910390fd5b808683610ce4919061206f565b610cee919061203e565b925050509392505050565b600080610d0584611428565b905060008173ffffffffffffffffffffffffffffffffffffffff16634864d1406040518163ffffffff1660e01b815260040160206040518083038186803b158015610d4f57600080fd5b505afa158015610d63573d6000803e3d6000fd5b505050506040513d601f19601f82011682018060405250810190610d879190611c30565b905060008273ffffffffffffffffffffffffffffffffffffffff1663eec7faa16040518163ffffffff1660e01b815260040160206040518083038186803b158015610dd157600080fd5b505afa158015610de5573d6000803e3d6000fd5b505050506040513d601f19601f82011682018060405250810190610e099190611c30565b9050610e16858383611019565b935050505092915050565b6000808373ffffffffffffffffffffffffffffffffffffffff16637535d2466040518163ffffffff1660e01b815260040160206040518083038186803b158015610e6a57600080fd5b505afa158015610e7e573d6000803e3d6000fd5b505050506040513d601f19601f82011682018060405250810190610ea29190611ba2565b905060008173ffffffffffffffffffffffffffffffffffffffff16634864d1406040518163ffffffff1660e01b815260040160206040518083038186803b158015610eec57600080fd5b505afa158015610f00573d6000803e3d6000fd5b505050506040513d601f19601f82011682018060405250810190610f249190611c30565b905060008273ffffffffffffffffffffffffffffffffffffffff1663eec7faa16040518163ffffffff1660e01b815260040160206040518083038186803b158015610f6e57600080fd5b505afa158015610f82573d6000803e3d6000fd5b505050506040513d601f19601f82011682018060405250810190610fa69190611c30565b905060008111610feb576040517f08c379a0000000000000000000000000000000000000000000000000000000008152600401610fe290611f61565b60405180910390fd5b806002610ff8919061206f565b8286611004919061206f565b61100e919061203e565b935050505092915050565b600080828486611029919061206f565b611033919061206f565b9050600084866110439190611fe8565b858761104f9190611fe8565b611059919061206f565b90506000811161109e576040517f08c379a000000000000000000000000000000000000000000000000000000000815260040161109590611f61565b60405180910390fd5b80826110aa919061203e565b925050509392505050565b60006127108311156110fc576040517f08c379a00000000000000000000000000000000000000000000000000000000081526004016110f390611f81565b60405180910390fd5b6111098361271084610859565b905092915050565b600080828586611121919061206f565b61112b919061206f565b90506000848661113b9190611fe8565b85876111479190611fe8565b611151919061206f565b905060008111611196576040517f08c379a000000000000000000000000000000000000000000000000000000000815260040161118d90611f61565b60405180910390fd5b80826111a2919061203e565b925050509392505050565b60006111bb83836064610859565b905092915050565b6000806111cf84611428565b905060008173ffffffffffffffffffffffffffffffffffffffff16634864d1406040518163ffffffff1660e01b815260040160206040518083038186803b15801561121957600080fd5b505afa15801561122d573d6000803e3d6000fd5b505050506040513d601f19601f820116820180604052508101906112519190611c30565b905060008273ffffffffffffffffffffffffffffffffffffffff1663eec7faa16040518163ffffffff1660e01b815260040160206040518083038186803b15801561129b57600080fd5b505afa1580156112af573d6000803e3d6000fd5b505050506040513d601f19601f820116820180604052508101906112d39190611c30565b90506112e0858284611019565b935050505092915050565b6000808273ffffffffffffffffffffffffffffffffffffffff16634864d1406040518163ffffffff1660e01b815260040160206040518083038186803b15801561133457600080fd5b505afa158015611348573d6000803e3d6000fd5b505050506040513d601f19601f8201168201806040525081019061136c9190611c30565b905060008373ffffffffffffffffffffffffffffffffffffffff166318160ddd6040518163ffffffff1660e01b815260040160206040518083038186803b1580156113b657600080fd5b505afa1580156113ca573d6000803e3d6000fd5b505050506040513d601f19601f820116820180604052508101906113ee9190611c30565b9050600282866113fe9190611fe8565b611408919061206f565b8582611414919061206f565b61141e919061203e565b9250505092915050565b6000611432611a09565b73ffffffffffffffffffffffffffffffffffffffff1663b99b0a0c6040518163ffffffff1660e01b815260040160206040518083038186803b15801561147757600080fd5b505afa15801561148b573d6000803e3d6000fd5b505050506040513d601f19601f820116820180604052508101906114af9190611ba2565b73ffffffffffffffffffffffffffffffffffffffff1663bbe4f6db836040518263ffffffff1660e01b81526004016114e79190611f46565b60206040518083038186803b1580156114ff57600080fd5b505afa158015611513573d6000803e3d6000fd5b505050506040513d601f19601f820116820180604052508101906115379190611ba2565b9050919050565b60008061154a84611428565b905060008173ffffffffffffffffffffffffffffffffffffffff16634864d1406040518163ffffffff1660e01b815260040160206040518083038186803b15801561159457600080fd5b505afa1580156115a8573d6000803e3d6000fd5b505050506040513d601f19601f820116820180604052508101906115cc9190611c30565b905060008273ffffffffffffffffffffffffffffffffffffffff1663eec7faa16040518163ffffffff1660e01b815260040160206040518083038186803b15801561161657600080fd5b505afa15801561162a573d6000803e3d6000fd5b505050506040513d601f19601f8201168201806040525081019061164e9190611c30565b905060008111611693576040517f08c379a000000000000000000000000000000000000000000000000000000000815260040161168a90611f61565b60405180910390fd5b8082866116a0919061206f565b6116aa919061203e565b935050505092915050565b6000808214156116c7578590506117b7565b60006116d5878787876104a4565b9050670d99a8cec7e2000081116116eb57600080fd5b600086866116f9919061206f565b905060008886611709919061206f565b905060006002898861171b919061206f565b611725919061206f565b90506000811161176a576040517f08c379a000000000000000000000000000000000000000000000000000000000815260040161176190611f61565b60405180910390fd5b60008183856117799190611fe8565b88611784919061206f565b61178e919061203e565b9050670de0b6b3a764000085826117a5919061206f565b6117af919061203e565b955050505050505b95945050505050565b60006118c7828473ffffffffffffffffffffffffffffffffffffffff166318160ddd6040518163ffffffff1660e01b815260040160206040518083038186803b15801561180c57600080fd5b505afa158015611820573d6000803e3d6000fd5b505050506040513d601f19601f820116820180604052508101906118449190611c30565b8573ffffffffffffffffffffffffffffffffffffffff16634864d1406040518163ffffffff1660e01b815260040160206040518083038186803b15801561188a57600080fd5b505afa15801561189e573d6000803e3d6000fd5b505050506040513d601f19601f820116820180604052508101906118c29190611c30565b610859565b905092915050565b60006118d9611a09565b73ffffffffffffffffffffffffffffffffffffffff1663b93ec54b6040518163ffffffff1660e01b815260040160206040518083038186803b15801561191e57600080fd5b505afa158015611932573d6000803e3d6000fd5b505050506040513d601f19601f820116820180604052508101906119569190611ba2565b73ffffffffffffffffffffffffffffffffffffffff1663dcec8116836040518263ffffffff1660e01b815260040161198e9190611f46565b60206040518083038186803b1580156119a657600080fd5b505afa1580156119ba573d6000803e3d6000fd5b505050506040513d601f19601f820116820180604052508101906119de9190611ba2565b9050919050565b7f000000000000000000000000000000000000000000000000000000000000000081565b60007f000000000000000000000000000000000000000000000000000000000000000073ffffffffffffffffffffffffffffffffffffffff166398fabd3a6040518163ffffffff1660e01b815260040160206040518083038186803b158015611a7157600080fd5b505afa158015611a85573d6000803e3d6000fd5b505050506040513d601f19601f82011682018060405250810190611aa99190611c07565b905090565b6040518060c00160405280600073ffffffffffffffffffffffffffffffffffffffff168152602001600073ffffffffffffffffffffffffffffffffffffffff168152602001600081526020016000815260200160008152602001600081525090565b600081359050611b1f816121fb565b92915050565b600081519050611b34816121fb565b92915050565b600081519050611b4981612212565b92915050565b600081359050611b5e81612229565b92915050565b600081519050611b7381612229565b92915050565b600060208284031215611b8b57600080fd5b6000611b9984828501611b10565b91505092915050565b600060208284031215611bb457600080fd5b6000611bc284828501611b25565b91505092915050565b60008060408385031215611bde57600080fd5b6000611bec85828601611b10565b9250506020611bfd85828601611b4f565b9150509250929050565b600060208284031215611c1957600080fd5b6000611c2784828501611b3a565b91505092915050565b600060208284031215611c4257600080fd5b6000611c5084828501611b64565b91505092915050565b60008060408385031215611c6c57600080fd5b6000611c7a85828601611b4f565b9250506020611c8b85828601611b10565b9150509250929050565b600080600060608486031215611caa57600080fd5b6000611cb886828701611b4f565b9350506020611cc986828701611b10565b9250506040611cda86828701611b10565b9150509250925092565b60008060408385031215611cf757600080fd5b6000611d0585828601611b4f565b9250506020611d1685828601611b4f565b9150509250929050565b600080600060608486031215611d3557600080fd5b6000611d4386828701611b4f565b9350506020611d5486828701611b4f565b9250506040611d6586828701611b4f565b9150509250925092565b60008060008060808587031215611d8557600080fd5b6000611d9387828801611b4f565b9450506020611da487828801611b4f565b9350506040611db587828801611b4f565b9250506060611dc687828801611b4f565b91505092959194509250565b600080600080600060a08688031215611dea57600080fd5b6000611df888828901611b4f565b9550506020611e0988828901611b4f565b9450506040611e1a88828901611b4f565b9350506060611e2b88828901611b4f565b9250506080611e3c88828901611b4f565b9150509295509295909350565b611e52816120fd565b82525050565b611e61816120fd565b82525050565b6000611e74600983611fd7565b9150611e7f826121a9565b602082019050919050565b6000611e97600383611fd7565b9150611ea2826121d2565b602082019050919050565b60c082016000820151611ec36000850182611e49565b506020820151611ed66020850182611e49565b506040820151611ee96040850182611f28565b506060820151611efc6060850182611f28565b506080820151611f0f6080850182611f28565b5060a0820151611f2260a0850182611f28565b50505050565b611f3181612141565b82525050565b611f4081612141565b82525050565b6000602082019050611f5b6000830184611e58565b92915050565b60006020820190508181036000830152611f7a81611e67565b9050919050565b60006020820190508181036000830152611f9a81611e8a565b9050919050565b600060c082019050611fb66000830184611ead565b92915050565b6000602082019050611fd16000830184611f37565b92915050565b600082825260208201905092915050565b6000611ff382612141565b9150611ffe83612141565b9250827fffffffffffffffffffffffffffffffffffffffffffffffffffffffffffffffff038211156120335761203261214b565b5b828201905092915050565b600061204982612141565b915061205483612141565b9250826120645761206361217a565b5b828204905092915050565b600061207a82612141565b915061208583612141565b9250817fffffffffffffffffffffffffffffffffffffffffffffffffffffffffffffffff04831182151516156120be576120bd61214b565b5b828202905092915050565b60006120d482612141565b91506120df83612141565b9250828210156120f2576120f161214b565b5b828203905092915050565b600061210882612121565b9050919050565b600061211a826120fd565b9050919050565b600073ffffffffffffffffffffffffffffffffffffffff82169050919050565b6000819050919050565b7f4e487b7100000000000000000000000000000000000000000000000000000000600052601160045260246000fd5b7f4e487b7100000000000000000000000000000000000000000000000000000000600052601260045260246000fd5b7f214449564953494f4e0000000000000000000000000000000000000000000000600082015250565b7f2162700000000000000000000000000000000000000000000000000000000000600082015250565b612204816120fd565b811461220f57600080fd5b50565b61221b8161210f565b811461222657600080fd5b50565b61223281612141565b811461223d57600080fd5b5056fea2646970667358221220d55dbe3826730cbd396181b66f10bb7cc769afcabb58b9a3c8d0c170c245b31464736f6c63430008030033",
  "linkReferences": {},
  "deployedLinkReferences": {}
}