{
  "_format": "hh-sol-artifact-1",
  "contractName": "Synth",
  "sourceName": "contracts/Synth.sol",
  "abi": [
    {
      "inputs": [
        {
          "internalType": "address",
          "name": "_base",
          "type": "address"
        },
        {
          "internalType": "address",
          "name": "_token",
          "type": "address"
        },
        {
          "internalType": "address",
          "name": "_pool",
          "type": "address"
        }
      ],
      "stateMutability": "nonpayable",
      "type": "constructor"
    },
    {
      "anonymous": false,
      "inputs": [
        {
          "indexed": true,
          "internalType": "address",
          "name": "owner",
          "type": "address"
        },
        {
          "indexed": true,
          "internalType": "address",
          "name": "spender",
          "type": "address"
        },
        {
          "indexed": false,
          "internalType": "uint256",
          "name": "value",
          "type": "uint256"
        }
      ],
      "name": "Approval",
      "type": "event"
    },
    {
      "anonymous": false,
      "inputs": [
        {
          "indexed": true,
          "internalType": "address",
          "name": "from",
          "type": "address"
        },
        {
          "indexed": true,
          "internalType": "address",
          "name": "to",
          "type": "address"
        },
        {
          "indexed": false,
          "internalType": "uint256",
          "name": "value",
          "type": "uint256"
        }
      ],
      "name": "Transfer",
      "type": "event"
    },
    {
      "inputs": [],
      "name": "BASE",
      "outputs": [
        {
          "internalType": "address",
          "name": "",
          "type": "address"
        }
      ],
      "stateMutability": "view",
      "type": "function"
    },
    {
      "inputs": [],
      "name": "POOL",
      "outputs": [
        {
          "internalType": "address",
          "name": "",
          "type": "address"
        }
      ],
      "stateMutability": "view",
      "type": "function"
    },
    {
      "inputs": [],
      "name": "TOKEN",
      "outputs": [
        {
          "internalType": "address",
          "name": "",
          "type": "address"
        }
      ],
      "stateMutability": "view",
      "type": "function"
    },
    {
      "inputs": [
        {
          "internalType": "address",
          "name": "owner",
          "type": "address"
        },
        {
          "internalType": "address",
          "name": "spender",
          "type": "address"
        }
      ],
      "name": "allowance",
      "outputs": [
        {
          "internalType": "uint256",
          "name": "",
          "type": "uint256"
        }
      ],
      "stateMutability": "view",
      "type": "function"
    },
    {
      "inputs": [
        {
          "internalType": "address",
          "name": "spender",
          "type": "address"
        },
        {
          "internalType": "uint256",
          "name": "amount",
          "type": "uint256"
        }
      ],
      "name": "approve",
      "outputs": [
        {
          "internalType": "bool",
          "name": "",
          "type": "bool"
        }
      ],
      "stateMutability": "nonpayable",
      "type": "function"
    },
    {
      "inputs": [
        {
          "internalType": "address",
          "name": "account",
          "type": "address"
        }
      ],
      "name": "balanceOf",
      "outputs": [
        {
          "internalType": "uint256",
          "name": "",
          "type": "uint256"
        }
      ],
      "stateMutability": "view",
      "type": "function"
    },
    {
      "inputs": [
        {
          "internalType": "uint256",
          "name": "amount",
          "type": "uint256"
        }
      ],
      "name": "burn",
      "outputs": [],
      "stateMutability": "nonpayable",
      "type": "function"
    },
    {
      "inputs": [
        {
          "internalType": "uint256",
          "name": "_syntheticAmount",
          "type": "uint256"
        }
      ],
      "name": "burnSynth",
      "outputs": [
        {
          "internalType": "uint256",
          "name": "",
          "type": "uint256"
        }
      ],
      "stateMutability": "nonpayable",
      "type": "function"
    },
    {
      "inputs": [],
      "name": "collateral",
      "outputs": [
        {
          "internalType": "uint256",
          "name": "",
          "type": "uint256"
        }
      ],
      "stateMutability": "view",
      "type": "function"
    },
    {
      "inputs": [],
      "name": "decimals",
      "outputs": [
        {
          "internalType": "uint8",
          "name": "",
          "type": "uint8"
        }
      ],
      "stateMutability": "view",
      "type": "function"
    },
    {
      "inputs": [
        {
          "internalType": "address",
          "name": "spender",
          "type": "address"
        },
        {
          "internalType": "uint256",
          "name": "subtractedValue",
          "type": "uint256"
        }
      ],
      "name": "decreaseAllowance",
      "outputs": [
        {
          "internalType": "bool",
          "name": "",
          "type": "bool"
        }
      ],
      "stateMutability": "nonpayable",
      "type": "function"
    },
    {
      "inputs": [],
      "name": "genesis",
      "outputs": [
        {
          "internalType": "uint256",
          "name": "",
          "type": "uint256"
        }
      ],
      "stateMutability": "view",
      "type": "function"
    },
    {
      "inputs": [
        {
          "internalType": "address",
          "name": "spender",
          "type": "address"
        },
        {
          "internalType": "uint256",
          "name": "addedValue",
          "type": "uint256"
        }
      ],
      "name": "increaseAllowance",
      "outputs": [
        {
          "internalType": "bool",
          "name": "",
          "type": "bool"
        }
      ],
      "stateMutability": "nonpayable",
      "type": "function"
    },
    {
      "inputs": [
        {
          "internalType": "address",
          "name": "member",
          "type": "address"
        },
        {
          "internalType": "uint256",
          "name": "amount",
          "type": "uint256"
        }
      ],
      "name": "mintSynth",
      "outputs": [
        {
          "internalType": "uint256",
          "name": "syntheticAmount",
          "type": "uint256"
        }
      ],
      "stateMutability": "nonpayable",
      "type": "function"
    },
    {
      "inputs": [],
      "name": "name",
      "outputs": [
        {
          "internalType": "string",
          "name": "",
          "type": "string"
        }
      ],
      "stateMutability": "view",
      "type": "function"
    },
    {
      "inputs": [],
      "name": "realise",
      "outputs": [],
      "stateMutability": "nonpayable",
      "type": "function"
    },
    {
      "inputs": [],
      "name": "symbol",
      "outputs": [
        {
          "internalType": "string",
          "name": "",
          "type": "string"
        }
      ],
      "stateMutability": "view",
      "type": "function"
    },
    {
      "inputs": [],
      "name": "totalSupply",
      "outputs": [
        {
          "internalType": "uint256",
          "name": "",
          "type": "uint256"
        }
      ],
      "stateMutability": "view",
      "type": "function"
    },
    {
      "inputs": [
        {
          "internalType": "address",
          "name": "recipient",
          "type": "address"
        },
        {
          "internalType": "uint256",
          "name": "amount",
          "type": "uint256"
        }
      ],
      "name": "transfer",
      "outputs": [
        {
          "internalType": "bool",
          "name": "",
          "type": "bool"
        }
      ],
      "stateMutability": "nonpayable",
      "type": "function"
    },
    {
      "inputs": [
        {
          "internalType": "address",
          "name": "sender",
          "type": "address"
        },
        {
          "internalType": "address",
          "name": "recipient",
          "type": "address"
        },
        {
          "internalType": "uint256",
          "name": "amount",
          "type": "uint256"
        }
      ],
      "name": "transferFrom",
      "outputs": [
        {
          "internalType": "bool",
          "name": "",
          "type": "bool"
        }
      ],
      "stateMutability": "nonpayable",
      "type": "function"
    }
  ],
  "bytecode": "0x6101006040523480156200001257600080fd5b50604051620030f8380380620030f88339818101604052810190620000389190620004d4565b8273ffffffffffffffffffffffffffffffffffffffff1660808173ffffffffffffffffffffffffffffffffffffffff1660601b815250508173ffffffffffffffffffffffffffffffffffffffff1660a08173ffffffffffffffffffffffffffffffffffffffff1660601b815250508073ffffffffffffffffffffffffffffffffffffffff1660c08173ffffffffffffffffffffffffffffffffffffffff1660601b8152505060006040518060400160405280601981526020017f2d5370617274616e50726f746f636f6c53796e74686574696300000000000000815250905060006040518060400160405280600481526020017f2d5350530000000000000000000000000000000000000000000000000000000081525090508373ffffffffffffffffffffffffffffffffffffffff166306fdde036040518163ffffffff1660e01b815260040160006040518083038186803b1580156200019857600080fd5b505afa158015620001ad573d6000803e3d6000fd5b505050506040513d6000823e3d601f19601f82011682018060405250810190620001d891906200052a565b82604051602001620001ec929190620005d2565b604051602081830303815290604052600190805190602001906200021292919062000384565b508373ffffffffffffffffffffffffffffffffffffffff166395d89b416040518163ffffffff1660e01b815260040160006040518083038186803b1580156200025a57600080fd5b505afa1580156200026f573d6000803e3d6000fd5b505050506040513d6000823e3d601f19601f820116820180604052508101906200029a91906200052a565b81604051602001620002ae929190620005d2565b60405160208183030381529060405260029080519060200190620002d492919062000384565b508373ffffffffffffffffffffffffffffffffffffffff1663313ce5676040518163ffffffff1660e01b815260040160206040518083038186803b1580156200031c57600080fd5b505afa15801562000331573d6000803e3d6000fd5b505050506040513d601f19601f820116820180604052508101906200035791906200056f565b600360006101000a81548160ff021916908360ff1602179055504260e081815250505050505050620007f5565b8280546200039290620006e6565b90600052602060002090601f016020900481019282620003b6576000855562000402565b82601f10620003d157805160ff191683800117855562000402565b8280016001018555821562000402579182015b8281111562000401578251825591602001919060010190620003e4565b5b50905062000411919062000415565b5090565b5b808211156200043057600081600090555060010162000416565b5090565b60006200044b620004458462000623565b620005fa565b9050828152602081018484840111156200046457600080fd5b62000471848285620006b0565b509392505050565b6000815190506200048a81620007c1565b92915050565b600082601f830112620004a257600080fd5b8151620004b484826020860162000434565b91505092915050565b600081519050620004ce81620007db565b92915050565b600080600060608486031215620004ea57600080fd5b6000620004fa8682870162000479565b93505060206200050d8682870162000479565b9250506040620005208682870162000479565b9150509250925092565b6000602082840312156200053d57600080fd5b600082015167ffffffffffffffff8111156200055857600080fd5b620005668482850162000490565b91505092915050565b6000602082840312156200058257600080fd5b60006200059284828501620004bd565b91505092915050565b6000620005a88262000659565b620005b4818562000664565b9350620005c6818560208601620006b0565b80840191505092915050565b6000620005e082856200059b565b9150620005ee82846200059b565b91508190509392505050565b60006200060662000619565b90506200061482826200071c565b919050565b6000604051905090565b600067ffffffffffffffff82111562000641576200064062000781565b5b6200064c82620007b0565b9050602081019050919050565b600081519050919050565b600081905092915050565b60006200067c8262000683565b9050919050565b600073ffffffffffffffffffffffffffffffffffffffff82169050919050565b600060ff82169050919050565b60005b83811015620006d0578082015181840152602081019050620006b3565b83811115620006e0576000848401525b50505050565b60006002820490506001821680620006ff57607f821691505b6020821081141562000716576200071562000752565b5b50919050565b6200072782620007b0565b810181811067ffffffffffffffff8211171562000749576200074862000781565b5b80604052505050565b7f4e487b7100000000000000000000000000000000000000000000000000000000600052602260045260246000fd5b7f4e487b7100000000000000000000000000000000000000000000000000000000600052604160045260246000fd5b6000601f19601f8301169050919050565b620007cc816200066f565b8114620007d857600080fd5b50565b620007e681620006a3565b8114620007f257600080fd5b50565b60805160601c60a05160601c60c05160601c60e0516128816200087760003960006113b9015260008181610648015281816108b90152818161096101528181610afc01528181610c2a01528181610f6e01528181610fb801526110e601526000610f9201526000818161062701528181611481015261167201526128816000f3fe608060405234801561001057600080fd5b506004361061012c5760003560e01c80637535d246116100ad578063a7f0b3de11610071578063a7f0b3de1461035b578063a9059cbb14610379578063d8dfeb45146103a9578063dd62ed3e146103c7578063ec342ad0146103f75761012c565b80637535d246146102a157806382bfefc8146102bf57806386450495146102dd57806395d89b411461030d578063a457c2d71461032b5761012c565b8063313ce567116100f4578063313ce567146101d757806332f302e3146101f5578063395093511461022557806342966c681461025557806370a08231146102715761012c565b806306fdde0314610131578063095ea7b31461014f57806318160ddd1461017f578063224b2a5b1461019d57806323b872dd146101a7575b600080fd5b610139610415565b60405161014691906121c2565b60405180910390f35b61016960048036038101906101649190611eb0565b6104a7565b60405161017691906121a7565b60405180910390f35b6101876104be565b6040516101949190612324565b60405180910390f35b6101a56104c4565b005b6101c160048036038101906101bc9190611e61565b6109f2565b6040516101ce91906121a7565b60405180910390f35b6101df610ae5565b6040516101ec919061239f565b60405180910390f35b61020f600480360381019061020a9190611eb0565b610af8565b60405161021c9190612324565b60405180910390f35b61023f600480360381019061023a9190611eb0565b610e82565b60405161024c91906121a7565b60405180910390f35b61026f600480360381019061026a9190611f3e565b610f20565b005b61028b60048036038101906102869190611dd3565b610f23565b6040516102989190612324565b60405180910390f35b6102a9610f6c565b6040516102b69190612163565b60405180910390f35b6102c7610f90565b6040516102d49190612163565b60405180910390f35b6102f760048036038101906102f29190611f3e565b610fb4565b6040516103049190612324565b60405180910390f35b61031561123f565b60405161032291906121c2565b60405180910390f35b61034560048036038101906103409190611eb0565b6112d1565b60405161035291906121a7565b60405180910390f35b6103636113b7565b6040516103709190612324565b60405180910390f35b610393600480360381019061038e9190611eb0565b6113db565b6040516103a091906121a7565b60405180910390f35b6103b16113f2565b6040516103be9190612324565b60405180910390f35b6103e160048036038101906103dc9190611e25565b6113f8565b6040516103ee9190612324565b60405180910390f35b6103ff61147f565b60405161040c9190612163565b60405180910390f35b60606001805461042490612585565b80601f016020809104026020016040519081016040528092919081815260200182805461045090612585565b801561049d5780601f106104725761010080835404028352916020019161049d565b820191906000526020600020905b81548152906001019060200180831161048057829003601f168201915b5050505050905090565b60006104b43384846114a3565b6001905092915050565b60045481565b6104cc61166e565b73ffffffffffffffffffffffffffffffffffffffff166398fabd3a6040518163ffffffff1660e01b815260040160206040518083038186803b15801561051157600080fd5b505afa158015610525573d6000803e3d6000fd5b505050506040513d601f19601f820116820180604052508101906105499190611dfc565b73ffffffffffffffffffffffffffffffffffffffff163373ffffffffffffffffffffffffffffffffffffffff161461058057600080fd5b600061058a61166e565b73ffffffffffffffffffffffffffffffffffffffff16637b0e5c456040518163ffffffff1660e01b815260040160206040518083038186803b1580156105cf57600080fd5b505afa1580156105e3573d6000803e3d6000fd5b505050506040513d601f19601f820116820180604052508101906106079190611dfc565b73ffffffffffffffffffffffffffffffffffffffff16635a7b2ed36000547f00000000000000000000000000000000000000000000000000000000000000007f00000000000000000000000000000000000000000000000000000000000000006040518463ffffffff1660e01b815260040161068593929190612368565b60206040518083038186803b15801561069d57600080fd5b505afa1580156106b1573d6000803e3d6000fd5b505050506040513d601f19601f820116820180604052508101906106d59190611f67565b905060006106e161166e565b73ffffffffffffffffffffffffffffffffffffffff16637b0e5c456040518163ffffffff1660e01b815260040160206040518083038186803b15801561072657600080fd5b505afa15801561073a573d6000803e3d6000fd5b505050506040513d601f19601f8201168201806040525081019061075e9190611dfc565b73ffffffffffffffffffffffffffffffffffffffff16636c5054d0306004546040518363ffffffff1660e01b815260040161079a92919061217e565b60206040518083038186803b1580156107b257600080fd5b505afa1580156107c6573d6000803e3d6000fd5b505050506040513d601f19601f820116820180604052508101906107ea9190611f67565b9050808211156109ee576000818361080291906124b7565b9050670de0b6b3a76400008111156109ec57600061081e61166e565b73ffffffffffffffffffffffffffffffffffffffff16637b0e5c456040518163ffffffff1660e01b815260040160206040518083038186803b15801561086357600080fd5b505afa158015610877573d6000803e3d6000fd5b505050506040513d601f19601f8201168201806040525081019061089b9190611dfc565b73ffffffffffffffffffffffffffffffffffffffff1663b86a82ef837f00000000000000000000000000000000000000000000000000000000000000006040518363ffffffff1660e01b81526004016108f592919061233f565b60206040518083038186803b15801561090d57600080fd5b505afa158015610921573d6000803e3d6000fd5b505050506040513d601f19601f820116820180604052508101906109459190611f67565b90508060008082825461095891906124b7565b925050819055507f000000000000000000000000000000000000000000000000000000000000000073ffffffffffffffffffffffffffffffffffffffff166342966c68826040518263ffffffff1660e01b81526004016109b89190612324565b600060405180830381600087803b1580156109d257600080fd5b505af11580156109e6573d6000803e3d6000fd5b50505050505b505b5050565b60006109ff848484611713565b6000600660008673ffffffffffffffffffffffffffffffffffffffff1673ffffffffffffffffffffffffffffffffffffffff16815260200190815260200160002060003373ffffffffffffffffffffffffffffffffffffffff1673ffffffffffffffffffffffffffffffffffffffff16815260200190815260200160002054905082811015610ac3576040517f08c379a0000000000000000000000000000000000000000000000000000000008152600401610aba90612224565b60405180910390fd5b610ad985338584610ad491906124b7565b6114a3565b60019150509392505050565b600360009054906101000a900460ff1681565b60007f000000000000000000000000000000000000000000000000000000000000000073ffffffffffffffffffffffffffffffffffffffff163373ffffffffffffffffffffffffffffffffffffffff1614610b88576040517f08c379a0000000000000000000000000000000000000000000000000000000008152600401610b7f906121e4565b60405180910390fd5b610b9061166e565b73ffffffffffffffffffffffffffffffffffffffff1663b99b0a0c6040518163ffffffff1660e01b815260040160206040518083038186803b158015610bd557600080fd5b505afa158015610be9573d6000803e3d6000fd5b505050506040513d601f19601f82011682018060405250810190610c0d9190611dfc565b73ffffffffffffffffffffffffffffffffffffffff16635b16ebb77f00000000000000000000000000000000000000000000000000000000000000006040518263ffffffff1660e01b8152600401610c659190612163565b602060405180830381600087803b158015610c7f57600080fd5b505af1158015610c93573d6000803e3d6000fd5b505050506040513d601f19601f82011682018060405250810190610cb79190611eec565b610cf6576040517f08c379a0000000000000000000000000000000000000000000000000000000008152600401610ced906121e4565b60405180910390fd5b60011515610d0261166e565b73ffffffffffffffffffffffffffffffffffffffff1663b99b0a0c6040518163ffffffff1660e01b815260040160206040518083038186803b158015610d4757600080fd5b505afa158015610d5b573d6000803e3d6000fd5b505050506040513d601f19601f82011682018060405250810190610d7f9190611dfc565b73ffffffffffffffffffffffffffffffffffffffff16638dcb4c93336040518263ffffffff1660e01b8152600401610db79190612163565b60206040518083038186803b158015610dcf57600080fd5b505afa158015610de3573d6000803e3d6000fd5b505050506040513d601f19601f82011682018060405250810190610e079190611eec565b151514610e49576040517f08c379a0000000000000000000000000000000000000000000000000000000008152600401610e40906122e4565b60405180910390fd5b6000610e543361198a565b905080600080828254610e6791906123d6565b92505081905550610e788484611a42565b8291505092915050565b6000610f16338484600660003373ffffffffffffffffffffffffffffffffffffffff1673ffffffffffffffffffffffffffffffffffffffff16815260200190815260200160002060008873ffffffffffffffffffffffffffffffffffffffff1673ffffffffffffffffffffffffffffffffffffffff16815260200190815260200160002054610f1191906123d6565b6114a3565b6001905092915050565b50565b6000600560008373ffffffffffffffffffffffffffffffffffffffff1673ffffffffffffffffffffffffffffffffffffffff168152602001908152602001600020549050919050565b7f000000000000000000000000000000000000000000000000000000000000000081565b7f000000000000000000000000000000000000000000000000000000000000000081565b60007f000000000000000000000000000000000000000000000000000000000000000073ffffffffffffffffffffffffffffffffffffffff163373ffffffffffffffffffffffffffffffffffffffff1614611044576040517f08c379a000000000000000000000000000000000000000000000000000000000815260040161103b906121e4565b60405180910390fd5b61104c61166e565b73ffffffffffffffffffffffffffffffffffffffff1663b99b0a0c6040518163ffffffff1660e01b815260040160206040518083038186803b15801561109157600080fd5b505afa1580156110a5573d6000803e3d6000fd5b505050506040513d601f19601f820116820180604052508101906110c99190611dfc565b73ffffffffffffffffffffffffffffffffffffffff16635b16ebb77f00000000000000000000000000000000000000000000000000000000000000006040518263ffffffff1660e01b81526004016111219190612163565b602060405180830381600087803b15801561113b57600080fd5b505af115801561114f573d6000803e3d6000fd5b505050506040513d601f19601f820116820180604052508101906111739190611eec565b6111b2576040517f08c379a00000000000000000000000000000000000000000000000000000000081526004016111a9906121e4565b60405180910390fd5b600082116111f5576040517f08c379a00000000000000000000000000000000000000000000000000000000081526004016111ec90612244565b60405180910390fd5b600060045460005484611208919061245d565b611212919061242c565b90508060008082825461122591906124b7565b925050819055506112363384611b8b565b80915050919050565b60606002805461124e90612585565b80601f016020809104026020016040519081016040528092919081815260200182805461127a90612585565b80156112c75780601f1061129c576101008083540402835291602001916112c7565b820191906000526020600020905b8154815290600101906020018083116112aa57829003601f168201915b5050505050905090565b600080600660003373ffffffffffffffffffffffffffffffffffffffff1673ffffffffffffffffffffffffffffffffffffffff16815260200190815260200160002060008573ffffffffffffffffffffffffffffffffffffffff1673ffffffffffffffffffffffffffffffffffffffff16815260200190815260200160002054905082811015611396576040517f08c379a000000000000000000000000000000000000000000000000000000000815260040161138d90612224565b60405180910390fd5b6113ac338585846113a791906124b7565b6114a3565b600191505092915050565b7f000000000000000000000000000000000000000000000000000000000000000081565b60006113e8338484611713565b6001905092915050565b60005481565b6000600660008473ffffffffffffffffffffffffffffffffffffffff1673ffffffffffffffffffffffffffffffffffffffff16815260200190815260200160002060008373ffffffffffffffffffffffffffffffffffffffff1673ffffffffffffffffffffffffffffffffffffffff16815260200190815260200160002054905092915050565b7f000000000000000000000000000000000000000000000000000000000000000081565b600073ffffffffffffffffffffffffffffffffffffffff168373ffffffffffffffffffffffffffffffffffffffff161415611513576040517f08c379a000000000000000000000000000000000000000000000000000000000815260040161150a90612304565b60405180910390fd5b600073ffffffffffffffffffffffffffffffffffffffff168273ffffffffffffffffffffffffffffffffffffffff161415611583576040517f08c379a000000000000000000000000000000000000000000000000000000000815260040161157a906122a4565b60405180910390fd5b80600660008573ffffffffffffffffffffffffffffffffffffffff1673ffffffffffffffffffffffffffffffffffffffff16815260200190815260200160002060008473ffffffffffffffffffffffffffffffffffffffff1673ffffffffffffffffffffffffffffffffffffffff168152602001908152602001600020819055508173ffffffffffffffffffffffffffffffffffffffff168373ffffffffffffffffffffffffffffffffffffffff167f8c5be1e5ebec7d5bd14f71427d1e84f3dd0314c0f7b2291e5b200ac8c7c3b925836040516116619190612324565b60405180910390a3505050565b60007f000000000000000000000000000000000000000000000000000000000000000073ffffffffffffffffffffffffffffffffffffffff166398fabd3a6040518163ffffffff1660e01b815260040160206040518083038186803b1580156116d657600080fd5b505afa1580156116ea573d6000803e3d6000fd5b505050506040513d601f19601f8201168201806040525081019061170e9190611f15565b905090565b600073ffffffffffffffffffffffffffffffffffffffff168373ffffffffffffffffffffffffffffffffffffffff161415611783576040517f08c379a000000000000000000000000000000000000000000000000000000000815260040161177a906122c4565b60405180910390fd5b600073ffffffffffffffffffffffffffffffffffffffff168273ffffffffffffffffffffffffffffffffffffffff1614156117f3576040517f08c379a00000000000000000000000000000000000000000000000000000000081526004016117ea90612284565b60405180910390fd5b6000600560008573ffffffffffffffffffffffffffffffffffffffff1673ffffffffffffffffffffffffffffffffffffffff1681526020019081526020016000205490508181101561187a576040517f08c379a000000000000000000000000000000000000000000000000000000000815260040161187190612264565b60405180910390fd5b818161188691906124b7565b600560008673ffffffffffffffffffffffffffffffffffffffff1673ffffffffffffffffffffffffffffffffffffffff1681526020019081526020016000208190555081600560008573ffffffffffffffffffffffffffffffffffffffff1673ffffffffffffffffffffffffffffffffffffffff168152602001908152602001600020600082825461191891906123d6565b925050819055508273ffffffffffffffffffffffffffffffffffffffff168473ffffffffffffffffffffffffffffffffffffffff167fddf252ad1be2c89b69c2b068fc378daa952ba7f163c4a11628f55a4df523b3ef8460405161197c9190612324565b60405180910390a350505050565b6000808273ffffffffffffffffffffffffffffffffffffffff166370a08231306040518263ffffffff1660e01b81526004016119c69190612163565b60206040518083038186803b1580156119de57600080fd5b505afa1580156119f2573d6000803e3d6000fd5b505050506040513d601f19601f82011682018060405250810190611a169190611f67565b9050600054811115611a375760005481611a3091906124b7565b9150611a3c565b600091505b50919050565b600073ffffffffffffffffffffffffffffffffffffffff168273ffffffffffffffffffffffffffffffffffffffff161415611ab2576040517f08c379a0000000000000000000000000000000000000000000000000000000008152600401611aa990612204565b60405180910390fd5b8060046000828254611ac491906123d6565b9250508190555080600560008473ffffffffffffffffffffffffffffffffffffffff1673ffffffffffffffffffffffffffffffffffffffff1681526020019081526020016000206000828254611b1a91906123d6565b925050819055508173ffffffffffffffffffffffffffffffffffffffff16600073ffffffffffffffffffffffffffffffffffffffff167fddf252ad1be2c89b69c2b068fc378daa952ba7f163c4a11628f55a4df523b3ef83604051611b7f9190612324565b60405180910390a35050565b600073ffffffffffffffffffffffffffffffffffffffff168273ffffffffffffffffffffffffffffffffffffffff161415611bfb576040517f08c379a0000000000000000000000000000000000000000000000000000000008152600401611bf290612204565b60405180910390fd5b6000600560008473ffffffffffffffffffffffffffffffffffffffff1673ffffffffffffffffffffffffffffffffffffffff16815260200190815260200160002054905081811015611c82576040517f08c379a0000000000000000000000000000000000000000000000000000000008152600401611c7990612264565b60405180910390fd5b8181611c8e91906124b7565b600560008573ffffffffffffffffffffffffffffffffffffffff1673ffffffffffffffffffffffffffffffffffffffff168152602001908152602001600020819055508160046000828254611ce391906124b7565b92505081905550600073ffffffffffffffffffffffffffffffffffffffff168373ffffffffffffffffffffffffffffffffffffffff167fddf252ad1be2c89b69c2b068fc378daa952ba7f163c4a11628f55a4df523b3ef84604051611d489190612324565b60405180910390a3505050565b600081359050611d64816127ef565b92915050565b600081519050611d79816127ef565b92915050565b600081519050611d8e81612806565b92915050565b600081519050611da38161281d565b92915050565b600081359050611db881612834565b92915050565b600081519050611dcd81612834565b92915050565b600060208284031215611de557600080fd5b6000611df384828501611d55565b91505092915050565b600060208284031215611e0e57600080fd5b6000611e1c84828501611d6a565b91505092915050565b60008060408385031215611e3857600080fd5b6000611e4685828601611d55565b9250506020611e5785828601611d55565b9150509250929050565b600080600060608486031215611e7657600080fd5b6000611e8486828701611d55565b9350506020611e9586828701611d55565b9250506040611ea686828701611da9565b9150509250925092565b60008060408385031215611ec357600080fd5b6000611ed185828601611d55565b9250506020611ee285828601611da9565b9150509250929050565b600060208284031215611efe57600080fd5b6000611f0c84828501611d7f565b91505092915050565b600060208284031215611f2757600080fd5b6000611f3584828501611d94565b91505092915050565b600060208284031215611f5057600080fd5b6000611f5e84828501611da9565b91505092915050565b600060208284031215611f7957600080fd5b6000611f8784828501611dbe565b91505092915050565b611f99816124eb565b82525050565b611fa8816124fd565b82525050565b6000611fb9826123ba565b611fc381856123c5565b9350611fd3818560208601612552565b611fdc81612644565b840191505092915050565b6000611ff46005836123c5565b9150611fff82612655565b602082019050919050565b60006120176008836123c5565b91506120228261267e565b602082019050919050565b600061203a6009836123c5565b9150612045826126a7565b602082019050919050565b600061205d6007836123c5565b9150612068826126d0565b602082019050919050565b60006120806008836123c5565b915061208b826126f9565b602082019050919050565b60006120a36005836123c5565b91506120ae82612722565b602082019050919050565b60006120c66008836123c5565b91506120d18261274b565b602082019050919050565b60006120e96007836123c5565b91506120f482612774565b602082019050919050565b600061210c6008836123c5565b91506121178261279d565b602082019050919050565b600061212f6006836123c5565b915061213a826127c6565b602082019050919050565b61214e8161253b565b82525050565b61215d81612545565b82525050565b60006020820190506121786000830184611f90565b92915050565b60006040820190506121936000830185611f90565b6121a06020830184612145565b9392505050565b60006020820190506121bc6000830184611f9f565b92915050565b600060208201905081810360008301526121dc8184611fae565b905092915050565b600060208201905081810360008301526121fd81611fe7565b9050919050565b6000602082019050818103600083015261221d8161200a565b9050919050565b6000602082019050818103600083015261223d8161202d565b9050919050565b6000602082019050818103600083015261225d81612050565b9050919050565b6000602082019050818103600083015261227d81612073565b9050919050565b6000602082019050818103600083015261229d81612096565b9050919050565b600060208201905081810360008301526122bd816120b9565b9050919050565b600060208201905081810360008301526122dd816120dc565b9050919050565b600060208201905081810360008301526122fd816120ff565b9050919050565b6000602082019050818103600083015261231d81612122565b9050919050565b60006020820190506123396000830184612145565b92915050565b60006040820190506123546000830185612145565b6123616020830184611f90565b9392505050565b600060608201905061237d6000830186612145565b61238a6020830185611f90565b6123976040830184611f90565b949350505050565b60006020820190506123b46000830184612154565b92915050565b600081519050919050565b600082825260208201905092915050565b60006123e18261253b565b91506123ec8361253b565b9250827fffffffffffffffffffffffffffffffffffffffffffffffffffffffffffffffff03821115612421576124206125b7565b5b828201905092915050565b60006124378261253b565b91506124428361253b565b925082612452576124516125e6565b5b828204905092915050565b60006124688261253b565b91506124738361253b565b9250817fffffffffffffffffffffffffffffffffffffffffffffffffffffffffffffffff04831182151516156124ac576124ab6125b7565b5b828202905092915050565b60006124c28261253b565b91506124cd8361253b565b9250828210156124e0576124df6125b7565b5b828203905092915050565b60006124f68261251b565b9050919050565b60008115159050919050565b6000612514826124eb565b9050919050565b600073ffffffffffffffffffffffffffffffffffffffff82169050919050565b6000819050919050565b600060ff82169050919050565b60005b83811015612570578082015181840152602081019050612555565b8381111561257f576000848401525b50505050565b6000600282049050600182168061259d57607f821691505b602082108114156125b1576125b0612615565b5b50919050565b7f4e487b7100000000000000000000000000000000000000000000000000000000600052601160045260246000fd5b7f4e487b7100000000000000000000000000000000000000000000000000000000600052601260045260246000fd5b7f4e487b7100000000000000000000000000000000000000000000000000000000600052602260045260246000fd5b6000601f19601f8301169050919050565b7f21504f4f4c000000000000000000000000000000000000000000000000000000600082015250565b7f216163636f756e74000000000000000000000000000000000000000000000000600082015250565b7f21617070726f76616c0000000000000000000000000000000000000000000000600082015250565b7f21414d4f554e5400000000000000000000000000000000000000000000000000600082015250565b7f2162616c616e6365000000000000000000000000000000000000000000000000600082015250565b7f214255524e000000000000000000000000000000000000000000000000000000600082015250565b7f217370656e646572000000000000000000000000000000000000000000000000600082015250565b7f2173656e64657200000000000000000000000000000000000000000000000000600082015250565b7f2143555241544544000000000000000000000000000000000000000000000000600082015250565b7f216f776e65720000000000000000000000000000000000000000000000000000600082015250565b6127f8816124eb565b811461280357600080fd5b50565b61280f816124fd565b811461281a57600080fd5b50565b61282681612509565b811461283157600080fd5b50565b61283d8161253b565b811461284857600080fd5b5056fea2646970667358221220f21969db273851d3a52c94224bc1d56f21e004896071591932792ff829df617364736f6c63430008030033",
  "linkReferences": {},
  "deployedLinkReferences": {}
}