{
  "_format": "hh-sol-artifact-1",
  "contractName": "Synth",
  "sourceName": "contracts/Synth.sol",
  "abi": [
    {
      "inputs": [
        {
          "internalType": "address",
          "name": "_base",
          "type": "address"
        },
        {
          "internalType": "address",
          "name": "_token",
          "type": "address"
        }
      ],
      "stateMutability": "nonpayable",
      "type": "constructor"
    },
    {
      "anonymous": false,
      "inputs": [
        {
          "indexed": true,
          "internalType": "address",
          "name": "owner",
          "type": "address"
        },
        {
          "indexed": true,
          "internalType": "address",
          "name": "spender",
          "type": "address"
        },
        {
          "indexed": false,
          "internalType": "uint256",
          "name": "value",
          "type": "uint256"
        }
      ],
      "name": "Approval",
      "type": "event"
    },
    {
      "anonymous": false,
      "inputs": [
        {
          "indexed": true,
          "internalType": "address",
          "name": "from",
          "type": "address"
        },
        {
          "indexed": true,
          "internalType": "address",
          "name": "to",
          "type": "address"
        },
        {
          "indexed": false,
          "internalType": "uint256",
          "name": "value",
          "type": "uint256"
        }
      ],
      "name": "Transfer",
      "type": "event"
    },
    {
      "inputs": [],
      "name": "BASE",
      "outputs": [
        {
          "internalType": "address",
          "name": "",
          "type": "address"
        }
      ],
      "stateMutability": "view",
      "type": "function"
    },
    {
      "inputs": [],
      "name": "DEPLOYER",
      "outputs": [
        {
          "internalType": "address",
          "name": "",
          "type": "address"
        }
      ],
      "stateMutability": "view",
      "type": "function"
    },
    {
      "inputs": [],
      "name": "LayerONE",
      "outputs": [
        {
          "internalType": "address",
          "name": "",
          "type": "address"
        }
      ],
      "stateMutability": "view",
      "type": "function"
    },
    {
      "inputs": [
        {
          "internalType": "address",
          "name": "owner",
          "type": "address"
        },
        {
          "internalType": "address",
          "name": "spender",
          "type": "address"
        }
      ],
      "name": "allowance",
      "outputs": [
        {
          "internalType": "uint256",
          "name": "",
          "type": "uint256"
        }
      ],
      "stateMutability": "view",
      "type": "function"
    },
    {
      "inputs": [
        {
          "internalType": "address",
          "name": "spender",
          "type": "address"
        },
        {
          "internalType": "uint256",
          "name": "amount",
          "type": "uint256"
        }
      ],
      "name": "approve",
      "outputs": [
        {
          "internalType": "bool",
          "name": "",
          "type": "bool"
        }
      ],
      "stateMutability": "nonpayable",
      "type": "function"
    },
    {
      "inputs": [
        {
          "internalType": "address",
          "name": "recipient",
          "type": "address"
        },
        {
          "internalType": "uint256",
          "name": "amount",
          "type": "uint256"
        },
        {
          "internalType": "bytes",
          "name": "data",
          "type": "bytes"
        }
      ],
      "name": "approveAndCall",
      "outputs": [
        {
          "internalType": "bool",
          "name": "",
          "type": "bool"
        }
      ],
      "stateMutability": "nonpayable",
      "type": "function"
    },
    {
      "inputs": [
        {
          "internalType": "address",
          "name": "account",
          "type": "address"
        }
      ],
      "name": "balanceOf",
      "outputs": [
        {
          "internalType": "uint256",
          "name": "",
          "type": "uint256"
        }
      ],
      "stateMutability": "view",
      "type": "function"
    },
    {
      "inputs": [
        {
          "internalType": "uint256",
          "name": "amount",
          "type": "uint256"
        }
      ],
      "name": "burn",
      "outputs": [],
      "stateMutability": "nonpayable",
      "type": "function"
    },
    {
      "inputs": [
        {
          "internalType": "address",
          "name": "account",
          "type": "address"
        },
        {
          "internalType": "uint256",
          "name": "amount",
          "type": "uint256"
        }
      ],
      "name": "burnFrom",
      "outputs": [],
      "stateMutability": "nonpayable",
      "type": "function"
    },
    {
      "inputs": [],
      "name": "burnSynth",
      "outputs": [
        {
          "internalType": "bool",
          "name": "",
          "type": "bool"
        }
      ],
      "stateMutability": "nonpayable",
      "type": "function"
    },
    {
      "inputs": [],
      "name": "decimals",
      "outputs": [
        {
          "internalType": "uint8",
          "name": "",
          "type": "uint8"
        }
      ],
      "stateMutability": "view",
      "type": "function"
    },
    {
      "inputs": [
        {
          "internalType": "address",
          "name": "spender",
          "type": "address"
        },
        {
          "internalType": "uint256",
          "name": "subtractedValue",
          "type": "uint256"
        }
      ],
      "name": "decreaseAllowance",
      "outputs": [
        {
          "internalType": "bool",
          "name": "",
          "type": "bool"
        }
      ],
      "stateMutability": "nonpayable",
      "type": "function"
    },
    {
      "inputs": [],
      "name": "genesis",
      "outputs": [
        {
          "internalType": "uint256",
          "name": "",
          "type": "uint256"
        }
      ],
      "stateMutability": "view",
      "type": "function"
    },
    {
      "inputs": [
        {
          "internalType": "address",
          "name": "pool",
          "type": "address"
        }
      ],
      "name": "getmapAddress_LPBalance",
      "outputs": [
        {
          "internalType": "uint256",
          "name": "",
          "type": "uint256"
        }
      ],
      "stateMutability": "view",
      "type": "function"
    },
    {
      "inputs": [
        {
          "internalType": "address",
          "name": "pool",
          "type": "address"
        }
      ],
      "name": "getmapAddress_LPDebt",
      "outputs": [
        {
          "internalType": "uint256",
          "name": "",
          "type": "uint256"
        }
      ],
      "stateMutability": "view",
      "type": "function"
    },
    {
      "inputs": [
        {
          "internalType": "address",
          "name": "spender",
          "type": "address"
        },
        {
          "internalType": "uint256",
          "name": "addedValue",
          "type": "uint256"
        }
      ],
      "name": "increaseAllowance",
      "outputs": [
        {
          "internalType": "bool",
          "name": "",
          "type": "bool"
        }
      ],
      "stateMutability": "nonpayable",
      "type": "function"
    },
    {
      "inputs": [
        {
          "internalType": "address",
          "name": "",
          "type": "address"
        }
      ],
      "name": "mapSynth_LPBalance",
      "outputs": [
        {
          "internalType": "uint256",
          "name": "",
          "type": "uint256"
        }
      ],
      "stateMutability": "view",
      "type": "function"
    },
    {
      "inputs": [
        {
          "internalType": "address",
          "name": "",
          "type": "address"
        }
      ],
      "name": "mapSynth_LPDept",
      "outputs": [
        {
          "internalType": "uint256",
          "name": "",
          "type": "uint256"
        }
      ],
      "stateMutability": "view",
      "type": "function"
    },
    {
      "inputs": [
        {
          "internalType": "address",
          "name": "member",
          "type": "address"
        },
        {
          "internalType": "uint256",
          "name": "amount",
          "type": "uint256"
        }
      ],
      "name": "mintSynth",
      "outputs": [
        {
          "internalType": "uint256",
          "name": "syntheticAmount",
          "type": "uint256"
        }
      ],
      "stateMutability": "nonpayable",
      "type": "function"
    },
    {
      "inputs": [],
      "name": "name",
      "outputs": [
        {
          "internalType": "string",
          "name": "",
          "type": "string"
        }
      ],
      "stateMutability": "view",
      "type": "function"
    },
    {
      "inputs": [
        {
          "internalType": "address",
          "name": "pool",
          "type": "address"
        }
      ],
      "name": "realise",
      "outputs": [],
      "stateMutability": "nonpayable",
      "type": "function"
    },
    {
      "inputs": [],
      "name": "symbol",
      "outputs": [
        {
          "internalType": "string",
          "name": "",
          "type": "string"
        }
      ],
      "stateMutability": "view",
      "type": "function"
    },
    {
      "inputs": [],
      "name": "totalSupply",
      "outputs": [
        {
          "internalType": "uint256",
          "name": "",
          "type": "uint256"
        }
      ],
      "stateMutability": "view",
      "type": "function"
    },
    {
      "inputs": [
        {
          "internalType": "address",
          "name": "recipient",
          "type": "address"
        },
        {
          "internalType": "uint256",
          "name": "amount",
          "type": "uint256"
        }
      ],
      "name": "transfer",
      "outputs": [
        {
          "internalType": "bool",
          "name": "",
          "type": "bool"
        }
      ],
      "stateMutability": "nonpayable",
      "type": "function"
    },
    {
      "inputs": [
        {
          "internalType": "address",
          "name": "recipient",
          "type": "address"
        },
        {
          "internalType": "uint256",
          "name": "amount",
          "type": "uint256"
        },
        {
          "internalType": "bytes",
          "name": "data",
          "type": "bytes"
        }
      ],
      "name": "transferAndCall",
      "outputs": [
        {
          "internalType": "bool",
          "name": "",
          "type": "bool"
        }
      ],
      "stateMutability": "nonpayable",
      "type": "function"
    },
    {
      "inputs": [
        {
          "internalType": "address",
          "name": "sender",
          "type": "address"
        },
        {
          "internalType": "address",
          "name": "recipient",
          "type": "address"
        },
        {
          "internalType": "uint256",
          "name": "amount",
          "type": "uint256"
        }
      ],
      "name": "transferFrom",
      "outputs": [
        {
          "internalType": "bool",
          "name": "",
          "type": "bool"
        }
      ],
      "stateMutability": "nonpayable",
      "type": "function"
    }
  ],
  "bytecode": "0x60806040523480156200001157600080fd5b50604051620034ce380380620034ce833981810160405281019062000037919062000457565b816000806101000a81548173ffffffffffffffffffffffffffffffffffffffff021916908373ffffffffffffffffffffffffffffffffffffffff16021790555080600160006101000a81548173ffffffffffffffffffffffffffffffffffffffff021916908373ffffffffffffffffffffffffffffffffffffffff16021790555060006040518060400160405280601981526020017f2d5370617274616e50726f746f636f6c53796e74686574696300000000000000815250905060006040518060400160405280600481526020017f2d5350530000000000000000000000000000000000000000000000000000000081525090508273ffffffffffffffffffffffffffffffffffffffff166306fdde036040518163ffffffff1660e01b815260040160006040518083038186803b1580156200017357600080fd5b505afa15801562000188573d6000803e3d6000fd5b505050506040513d6000823e3d601f19601f82011682018060405250810190620001b3919062000498565b82604051602001620001c792919062000514565b60405160208183030381529060405260049080519060200190620001ed9291906200031e565b508273ffffffffffffffffffffffffffffffffffffffff166395d89b416040518163ffffffff1660e01b815260040160006040518083038186803b1580156200023557600080fd5b505afa1580156200024a573d6000803e3d6000fd5b505050506040513d6000823e3d601f19601f8201168201806040525081019062000275919062000498565b816040516020016200028992919062000514565b60405160208183030381529060405260059080519060200190620002af9291906200031e565b506012600660006101000a81548160ff021916908360ff16021790555033600360006101000a81548173ffffffffffffffffffffffffffffffffffffffff021916908373ffffffffffffffffffffffffffffffffffffffff160217905550426002819055505050505062000710565b8280546200032c906200061b565b90600052602060002090601f0160209004810192826200035057600085556200039c565b82601f106200036b57805160ff19168380011785556200039c565b828001600101855582156200039c579182015b828111156200039b5782518255916020019190600101906200037e565b5b509050620003ab9190620003af565b5090565b5b80821115620003ca576000816000905550600101620003b0565b5090565b6000620003e5620003df8462000565565b6200053c565b905082815260208101848484011115620003fe57600080fd5b6200040b848285620005e5565b509392505050565b6000815190506200042481620006f6565b92915050565b600082601f8301126200043c57600080fd5b81516200044e848260208601620003ce565b91505092915050565b600080604083850312156200046b57600080fd5b60006200047b8582860162000413565b92505060206200048e8582860162000413565b9150509250929050565b600060208284031215620004ab57600080fd5b600082015167ffffffffffffffff811115620004c657600080fd5b620004d4848285016200042a565b91505092915050565b6000620004ea826200059b565b620004f68185620005a6565b935062000508818560208601620005e5565b80840191505092915050565b6000620005228285620004dd565b9150620005308284620004dd565b91508190509392505050565b6000620005486200055b565b905062000556828262000651565b919050565b6000604051905090565b600067ffffffffffffffff821115620005835762000582620006b6565b5b6200058e82620006e5565b9050602081019050919050565b600081519050919050565b600081905092915050565b6000620005be82620005c5565b9050919050565b600073ffffffffffffffffffffffffffffffffffffffff82169050919050565b60005b8381101562000605578082015181840152602081019050620005e8565b8381111562000615576000848401525b50505050565b600060028204905060018216806200063457607f821691505b602082108114156200064b576200064a62000687565b5b50919050565b6200065c82620006e5565b810181811067ffffffffffffffff821117156200067e576200067d620006b6565b5b80604052505050565b7f4e487b7100000000000000000000000000000000000000000000000000000000600052602260045260246000fd5b7f4e487b7100000000000000000000000000000000000000000000000000000000600052604160045260246000fd5b6000601f19601f8301169050919050565b6200070181620005b1565b81146200070d57600080fd5b50565b612dae80620007206000396000f3fe608060405234801561001057600080fd5b506004361061018e5760003560e01c806379cc6790116100de578063cae9ca5111610097578063d9f22fba11610071578063d9f22fba146104e7578063dd25322914610517578063dd62ed3e14610547578063ec342ad0146105775761018e565b8063cae9ca511461047d578063d3e48814146104ad578063d950b6f3146104c95761018e565b806379cc6790146103a757806395d89b41146103c3578063a457c2d7146103e1578063a7f0b3de14610411578063a9059cbb1461042f578063c1b8411a1461045f5761018e565b8063395093511161014b578063484920311161012557806348492031146102f95780635d30ca1f1461031757806364dcd2161461034757806370a08231146103775761018e565b8063395093511461027d5780634000aea0146102ad57806342966c68146102dd5761018e565b806306fdde0314610193578063095ea7b3146101b157806318160ddd146101e157806323b872dd146101ff578063313ce5671461022f57806332f302e31461024d575b600080fd5b61019b610595565b6040516101a8919061277a565b60405180910390f35b6101cb60048036038101906101c69190612413565b610627565b6040516101d8919061275f565b60405180910390f35b6101e961063e565b6040516101f691906128ac565b60405180910390f35b610219600480360381019061021491906123c4565b610644565b604051610226919061275f565b60405180910390f35b6102376107dc565b6040516102449190612927565b60405180910390f35b61026760048036038101906102629190612413565b6107ef565b60405161027491906128ac565b60405180910390f35b61029760048036038101906102929190612413565b610a11565b6040516102a4919061275f565b60405180910390f35b6102c760048036038101906102c2919061244f565b610aaf565b6040516102d4919061275f565b60405180910390f35b6102f760048036038101906102f2919061250d565b610b3b565b005b610301610b48565b60405161030e91906126f6565b60405180910390f35b610331600480360381019061032c9190612336565b610b6e565b60405161033e91906128ac565b60405180910390f35b610361600480360381019061035c9190612336565b610b86565b60405161036e91906128ac565b60405180910390f35b610391600480360381019061038c9190612336565b610bcf565b60405161039e91906128ac565b60405180910390f35b6103c160048036038101906103bc9190612413565b610c18565b005b6103cb610c4b565b6040516103d8919061277a565b60405180910390f35b6103fb60048036038101906103f69190612413565b610cdd565b604051610408919061275f565b60405180910390f35b610419610dc3565b60405161042691906128ac565b60405180910390f35b61044960048036038101906104449190612413565b610dc9565b604051610456919061275f565b60405180910390f35b610467610de0565b60405161047491906126f6565b60405180910390f35b6104976004803603810190610492919061244f565b610e06565b6040516104a4919061275f565b60405180910390f35b6104c760048036038101906104c29190612336565b610eb2565b005b6104d1611558565b6040516104de919061275f565b60405180910390f35b61050160048036038101906104fc9190612336565b611733565b60405161050e91906128ac565b60405180910390f35b610531600480360381019061052c9190612336565b61177c565b60405161053e91906128ac565b60405180910390f35b610561600480360381019061055c9190612388565b611794565b60405161056e91906128ac565b60405180910390f35b61057f61181b565b60405161058c91906126f6565b60405180910390f35b6060600480546105a490612b2d565b80601f01602080910402602001604051908101604052809291908181526020018280546105d090612b2d565b801561061d5780601f106105f25761010080835404028352916020019161061d565b820191906000526020600020905b81548152906001019060200180831161060057829003601f168201915b5050505050905090565b600061063433848461183f565b6001905092915050565b60075481565b6000610651848484611aaf565b7fffffffffffffffffffffffffffffffffffffffffffffffffffffffffffffffff600960008673ffffffffffffffffffffffffffffffffffffffff1673ffffffffffffffffffffffffffffffffffffffff16815260200190815260200160002060003373ffffffffffffffffffffffffffffffffffffffff1673ffffffffffffffffffffffffffffffffffffffff1681526020019081526020016000205410156107d1576000600960008673ffffffffffffffffffffffffffffffffffffffff1673ffffffffffffffffffffffffffffffffffffffff16815260200190815260200160002060003373ffffffffffffffffffffffffffffffffffffffff1673ffffffffffffffffffffffffffffffffffffffff168152602001908152602001600020549050828110156107b9576040517f08c379a00000000000000000000000000000000000000000000000000000000081526004016107b09061282c565b60405180910390fd5b6107cf853385846107ca9190612a50565b61183f565b505b600190509392505050565b600660009054906101000a900460ff1681565b6000600115156107fd611cbd565b73ffffffffffffffffffffffffffffffffffffffff1663b99b0a0c6040518163ffffffff1660e01b815260040160206040518083038186803b15801561084257600080fd5b505afa158015610856573d6000803e3d6000fd5b505050506040513d601f19601f8201168201806040525081019061087a919061235f565b73ffffffffffffffffffffffffffffffffffffffff16638dcb4c93336040518263ffffffff1660e01b81526004016108b291906126f6565b60206040518083038186803b1580156108ca57600080fd5b505afa1580156108de573d6000803e3d6000fd5b505050506040513d601f19601f8201168201806040525081019061090291906124bb565b151514610944576040517f08c379a000000000000000000000000000000000000000000000000000000000815260040161093b906127ec565b60405180910390fd5b600061094f33611d63565b905082600b60003373ffffffffffffffffffffffffffffffffffffffff1673ffffffffffffffffffffffffffffffffffffffff16815260200190815260200160002060008282546109a0919061296f565b9250508190555080600a60003373ffffffffffffffffffffffffffffffffffffffff1673ffffffffffffffffffffffffffffffffffffffff16815260200190815260200160002060008282546109f6919061296f565b92505081905550610a078484611e95565b8291505092915050565b6000610aa5338484600960003373ffffffffffffffffffffffffffffffffffffffff1673ffffffffffffffffffffffffffffffffffffffff16815260200190815260200160002060008873ffffffffffffffffffffffffffffffffffffffff1673ffffffffffffffffffffffffffffffffffffffff16815260200190815260200160002054610aa0919061296f565b61183f565b6001905092915050565b6000610abc338686611aaf565b8473ffffffffffffffffffffffffffffffffffffffff1663cf4d253530863387876040518663ffffffff1660e01b8152600401610afd959493929190612711565b600060405180830381600087803b158015610b1757600080fd5b505af1158015610b2b573d6000803e3d6000fd5b5050505060019050949350505050565b610b453382611fde565b50565b600160009054906101000a900473ffffffffffffffffffffffffffffffffffffffff1681565b600a6020528060005260406000206000915090505481565b6000600a60008373ffffffffffffffffffffffffffffffffffffffff1673ffffffffffffffffffffffffffffffffffffffff168152602001908152602001600020549050919050565b6000600860008373ffffffffffffffffffffffffffffffffffffffff1673ffffffffffffffffffffffffffffffffffffffff168152602001908152602001600020549050919050565b600081610c258433611794565b610c2f9190612a50565b9050610c3c83338361183f565b610c468383611fde565b505050565b606060058054610c5a90612b2d565b80601f0160208091040260200160405190810160405280929190818152602001828054610c8690612b2d565b8015610cd35780601f10610ca857610100808354040283529160200191610cd3565b820191906000526020600020905b815481529060010190602001808311610cb657829003601f168201915b5050505050905090565b600080600960003373ffffffffffffffffffffffffffffffffffffffff1673ffffffffffffffffffffffffffffffffffffffff16815260200190815260200160002060008573ffffffffffffffffffffffffffffffffffffffff1673ffffffffffffffffffffffffffffffffffffffff16815260200190815260200160002054905082811015610da2576040517f08c379a0000000000000000000000000000000000000000000000000000000008152600401610d999061282c565b60405180910390fd5b610db833858584610db39190612a50565b61183f565b600191505092915050565b60025481565b6000610dd6338484611aaf565b6001905092915050565b600360009054906101000a900473ffffffffffffffffffffffffffffffffffffffff1681565b6000610e3333867fffffffffffffffffffffffffffffffffffffffffffffffffffffffffffffffff61183f565b8473ffffffffffffffffffffffffffffffffffffffff16631ac562a730863387876040518663ffffffff1660e01b8152600401610e74959493929190612711565b600060405180830381600087803b158015610e8e57600080fd5b505af1158015610ea2573d6000803e3d6000fd5b5050505060019050949350505050565b6000610ebc611cbd565b73ffffffffffffffffffffffffffffffffffffffff16637b0e5c456040518163ffffffff1660e01b815260040160206040518083038186803b158015610f0157600080fd5b505afa158015610f15573d6000803e3d6000fd5b505050506040513d601f19601f82011682018060405250810190610f39919061235f565b73ffffffffffffffffffffffffffffffffffffffff16635a7b2ed3600a60008573ffffffffffffffffffffffffffffffffffffffff1673ffffffffffffffffffffffffffffffffffffffff1681526020019081526020016000205460008054906101000a900473ffffffffffffffffffffffffffffffffffffffff16856040518463ffffffff1660e01b8152600401610fd4939291906128f0565b60206040518083038186803b158015610fec57600080fd5b505afa158015611000573d6000803e3d6000fd5b505050506040513d601f19601f820116820180604052508101906110249190612536565b90506000611030611cbd565b73ffffffffffffffffffffffffffffffffffffffff16637b0e5c456040518163ffffffff1660e01b815260040160206040518083038186803b15801561107557600080fd5b505afa158015611089573d6000803e3d6000fd5b505050506040513d601f19601f820116820180604052508101906110ad919061235f565b73ffffffffffffffffffffffffffffffffffffffff1663c889a4df600b60008673ffffffffffffffffffffffffffffffffffffffff1673ffffffffffffffffffffffffffffffffffffffff16815260200190815260200160002054306040518363ffffffff1660e01b81526004016111269291906128c7565b60206040518083038186803b15801561113e57600080fd5b505afa158015611152573d6000803e3d6000fd5b505050506040513d601f19601f820116820180604052508101906111769190612536565b9050670de0b6b3a7640000818361118d9190612a50565b111561155357600081836111a19190612a50565b905060006111ad611cbd565b73ffffffffffffffffffffffffffffffffffffffff16637b0e5c456040518163ffffffff1660e01b815260040160206040518083038186803b1580156111f257600080fd5b505afa158015611206573d6000803e3d6000fd5b505050506040513d601f19601f8201168201806040525081019061122a919061235f565b73ffffffffffffffffffffffffffffffffffffffff1663b86a82ef83876040518363ffffffff1660e01b81526004016112649291906128c7565b60206040518083038186803b15801561127c57600080fd5b505afa158015611290573d6000803e3d6000fd5b505050506040513d601f19601f820116820180604052508101906112b49190612536565b905080600a60008773ffffffffffffffffffffffffffffffffffffffff1673ffffffffffffffffffffffffffffffffffffffff16815260200190815260200160002060008282546113059190612a50565b9250508190555061135e6040518060400160405280601281526020017f4c5042616c204261736520616d6f756e74200000000000000000000000000000815250670de0b6b3a76400008661135991906129c5565b6121a9565b6113b06040518060400160405280601681526020017f73796e7468556e69747320426173652076616c75652000000000000000000000815250670de0b6b3a7640000856113ab91906129c5565b6121a9565b6114026040518060400160405280601081526020017f4241534520646966666572656e63652000000000000000000000000000000000815250670de0b6b3a7640000846113fd91906129c5565b6121a9565b6114546040518060400160405280601181526020017f4c5020756e69747320746f206275726e20000000000000000000000000000000815250670de0b6b3a76400008361144f91906129c5565b6121a9565b6114e56040518060400160405280601281526020017f6d617053796e74685f4c5042616c616e63650000000000000000000000000000815250670de0b6b3a7640000600a60008973ffffffffffffffffffffffffffffffffffffffff1673ffffffffffffffffffffffffffffffffffffffff168152602001908152602001600020546114e091906129c5565b6121a9565b8473ffffffffffffffffffffffffffffffffffffffff166342966c68826040518263ffffffff1660e01b815260040161151e91906128ac565b600060405180830381600087803b15801561153857600080fd5b505af115801561154c573d6000803e3d6000fd5b5050505050505b505050565b60008061156430610bcf565b90506000600b60003373ffffffffffffffffffffffffffffffffffffffff1673ffffffffffffffffffffffffffffffffffffffff16815260200190815260200160002054600a60003373ffffffffffffffffffffffffffffffffffffffff1673ffffffffffffffffffffffffffffffffffffffff16815260200190815260200160002054836115f391906129f6565b6115fd91906129c5565b905080600a60003373ffffffffffffffffffffffffffffffffffffffff1673ffffffffffffffffffffffffffffffffffffffff168152602001908152602001600020600082825461164e9190612a50565b9250508190555081600b60003373ffffffffffffffffffffffffffffffffffffffff1673ffffffffffffffffffffffffffffffffffffffff16815260200190815260200160002060008282546116a49190612a50565b92505081905550600081111561172a576116be3083611fde565b3373ffffffffffffffffffffffffffffffffffffffff166342966c68826040518263ffffffff1660e01b81526004016116f791906128ac565b600060405180830381600087803b15801561171157600080fd5b505af1158015611725573d6000803e3d6000fd5b505050505b60019250505090565b6000600b60008373ffffffffffffffffffffffffffffffffffffffff1673ffffffffffffffffffffffffffffffffffffffff168152602001908152602001600020549050919050565b600b6020528060005260406000206000915090505481565b6000600960008473ffffffffffffffffffffffffffffffffffffffff1673ffffffffffffffffffffffffffffffffffffffff16815260200190815260200160002060008373ffffffffffffffffffffffffffffffffffffffff1673ffffffffffffffffffffffffffffffffffffffff16815260200190815260200160002054905092915050565b60008054906101000a900473ffffffffffffffffffffffffffffffffffffffff1681565b600073ffffffffffffffffffffffffffffffffffffffff168373ffffffffffffffffffffffffffffffffffffffff1614156118af576040517f08c379a00000000000000000000000000000000000000000000000000000000081526004016118a69061280c565b60405180910390fd5b600073ffffffffffffffffffffffffffffffffffffffff168273ffffffffffffffffffffffffffffffffffffffff16141561191f576040517f08c379a00000000000000000000000000000000000000000000000000000000081526004016119169061286c565b60405180910390fd5b7fffffffffffffffffffffffffffffffffffffffffffffffffffffffffffffffff600960008573ffffffffffffffffffffffffffffffffffffffff1673ffffffffffffffffffffffffffffffffffffffff16815260200190815260200160002060008473ffffffffffffffffffffffffffffffffffffffff1673ffffffffffffffffffffffffffffffffffffffff168152602001908152602001600020541015611aaa5780600960008573ffffffffffffffffffffffffffffffffffffffff1673ffffffffffffffffffffffffffffffffffffffff16815260200190815260200160002060008473ffffffffffffffffffffffffffffffffffffffff1673ffffffffffffffffffffffffffffffffffffffff168152602001908152602001600020819055508173ffffffffffffffffffffffffffffffffffffffff168373ffffffffffffffffffffffffffffffffffffffff167f8c5be1e5ebec7d5bd14f71427d1e84f3dd0314c0f7b2291e5b200ac8c7c3b92583604051611aa191906128ac565b60405180910390a35b505050565b600073ffffffffffffffffffffffffffffffffffffffff168373ffffffffffffffffffffffffffffffffffffffff161415611b1f576040517f08c379a0000000000000000000000000000000000000000000000000000000008152600401611b16906127cc565b60405180910390fd5b6000600860008573ffffffffffffffffffffffffffffffffffffffff1673ffffffffffffffffffffffffffffffffffffffff16815260200190815260200160002054905081811015611ba6576040517f08c379a0000000000000000000000000000000000000000000000000000000008152600401611b9d9061284c565b60405180910390fd5b81600860008673ffffffffffffffffffffffffffffffffffffffff1673ffffffffffffffffffffffffffffffffffffffff1681526020019081526020016000206000828254611bf59190612a50565b9250508190555081600860008573ffffffffffffffffffffffffffffffffffffffff1673ffffffffffffffffffffffffffffffffffffffff1681526020019081526020016000206000828254611c4b919061296f565b925050819055508273ffffffffffffffffffffffffffffffffffffffff168473ffffffffffffffffffffffffffffffffffffffff167fddf252ad1be2c89b69c2b068fc378daa952ba7f163c4a11628f55a4df523b3ef84604051611caf91906128ac565b60405180910390a350505050565b60008060009054906101000a900473ffffffffffffffffffffffffffffffffffffffff1673ffffffffffffffffffffffffffffffffffffffff166398fabd3a6040518163ffffffff1660e01b815260040160206040518083038186803b158015611d2657600080fd5b505afa158015611d3a573d6000803e3d6000fd5b505050506040513d601f19601f82011682018060405250810190611d5e91906124e4565b905090565b6000808273ffffffffffffffffffffffffffffffffffffffff166370a08231306040518263ffffffff1660e01b8152600401611d9f91906126f6565b60206040518083038186803b158015611db757600080fd5b505afa158015611dcb573d6000803e3d6000fd5b505050506040513d601f19601f82011682018060405250810190611def9190612536565b9050600a60008473ffffffffffffffffffffffffffffffffffffffff1673ffffffffffffffffffffffffffffffffffffffff16815260200190815260200160002054811115611e8a57600a60008473ffffffffffffffffffffffffffffffffffffffff1673ffffffffffffffffffffffffffffffffffffffff1681526020019081526020016000205481611e839190612a50565b9150611e8f565b600091505b50919050565b600073ffffffffffffffffffffffffffffffffffffffff168273ffffffffffffffffffffffffffffffffffffffff161415611f05576040517f08c379a0000000000000000000000000000000000000000000000000000000008152600401611efc9061288c565b60405180910390fd5b8060076000828254611f17919061296f565b9250508190555080600860008473ffffffffffffffffffffffffffffffffffffffff1673ffffffffffffffffffffffffffffffffffffffff1681526020019081526020016000206000828254611f6d919061296f565b925050819055508173ffffffffffffffffffffffffffffffffffffffff16600073ffffffffffffffffffffffffffffffffffffffff167fddf252ad1be2c89b69c2b068fc378daa952ba7f163c4a11628f55a4df523b3ef83604051611fd291906128ac565b60405180910390a35050565b600073ffffffffffffffffffffffffffffffffffffffff168273ffffffffffffffffffffffffffffffffffffffff16141561204e576040517f08c379a00000000000000000000000000000000000000000000000000000000081526004016120459061288c565b60405180910390fd5b80600860008473ffffffffffffffffffffffffffffffffffffffff1673ffffffffffffffffffffffffffffffffffffffff1681526020019081526020016000205410156120d0576040517f08c379a00000000000000000000000000000000000000000000000000000000081526004016120c79061284c565b60405180910390fd5b80600860008473ffffffffffffffffffffffffffffffffffffffff1673ffffffffffffffffffffffffffffffffffffffff168152602001908152602001600020600082825461211f9190612a50565b9250508190555080600760008282546121389190612a50565b92505081905550600073ffffffffffffffffffffffffffffffffffffffff168273ffffffffffffffffffffffffffffffffffffffff167fddf252ad1be2c89b69c2b068fc378daa952ba7f163c4a11628f55a4df523b3ef8360405161219d91906128ac565b60405180910390a35050565b61224182826040516024016121bf92919061279c565b6040516020818303038152906040527f9710a9d0000000000000000000000000000000000000000000000000000000007bffffffffffffffffffffffffffffffffffffffffffffffffffffffff19166020820180517bffffffffffffffffffffffffffffffffffffffffffffffffffffffff8381831617835250505050612245565b5050565b60008151905060006a636f6e736f6c652e6c6f679050602083016000808483855afa5050505050565b60008135905061227d81612d1c565b92915050565b60008151905061229281612d1c565b92915050565b6000815190506122a781612d33565b92915050565b60008083601f8401126122bf57600080fd5b8235905067ffffffffffffffff8111156122d857600080fd5b6020830191508360018202830111156122f057600080fd5b9250929050565b60008151905061230681612d4a565b92915050565b60008135905061231b81612d61565b92915050565b60008151905061233081612d61565b92915050565b60006020828403121561234857600080fd5b60006123568482850161226e565b91505092915050565b60006020828403121561237157600080fd5b600061237f84828501612283565b91505092915050565b6000806040838503121561239b57600080fd5b60006123a98582860161226e565b92505060206123ba8582860161226e565b9150509250929050565b6000806000606084860312156123d957600080fd5b60006123e78682870161226e565b93505060206123f88682870161226e565b92505060406124098682870161230c565b9150509250925092565b6000806040838503121561242657600080fd5b60006124348582860161226e565b92505060206124458582860161230c565b9150509250929050565b6000806000806060858703121561246557600080fd5b60006124738782880161226e565b94505060206124848782880161230c565b935050604085013567ffffffffffffffff8111156124a157600080fd5b6124ad878288016122ad565b925092505092959194509250565b6000602082840312156124cd57600080fd5b60006124db84828501612298565b91505092915050565b6000602082840312156124f657600080fd5b6000612504848285016122f7565b91505092915050565b60006020828403121561251f57600080fd5b600061252d8482850161230c565b91505092915050565b60006020828403121561254857600080fd5b600061255684828501612321565b91505092915050565b61256881612a84565b82525050565b61257781612a96565b82525050565b6000612589838561294d565b9350612596838584612aeb565b61259f83612bec565b840190509392505050565b60006125b582612942565b6125bf818561295e565b93506125cf818560208601612afa565b6125d881612bec565b840191505092915050565b60006125f0600c8361295e565b91506125fb82612bfd565b602082019050919050565b600061261360058361295e565b915061261e82612c26565b602082019050919050565b600061263660068361295e565b915061264182612c4f565b602082019050919050565b6000612659600d8361295e565b915061266482612c78565b602082019050919050565b600061267c600b8361295e565b915061268782612ca1565b602082019050919050565b600061269f60078361295e565b91506126aa82612cca565b602082019050919050565b60006126c2600b8361295e565b91506126cd82612cf3565b602082019050919050565b6126e181612ad4565b82525050565b6126f081612ade565b82525050565b600060208201905061270b600083018461255f565b92915050565b6000608082019050612726600083018861255f565b61273360208301876126d8565b612740604083018661255f565b818103606083015261275381848661257d565b90509695505050505050565b6000602082019050612774600083018461256e565b92915050565b6000602082019050818103600083015261279481846125aa565b905092915050565b600060408201905081810360008301526127b681856125aa565b90506127c560208301846126d8565b9392505050565b600060208201905081810360008301526127e5816125e3565b9050919050565b6000602082019050818103600083015261280581612606565b9050919050565b6000602082019050818103600083015261282581612629565b9050919050565b600060208201905081810360008301526128458161264c565b9050919050565b600060208201905081810360008301526128658161266f565b9050919050565b6000602082019050818103600083015261288581612692565b9050919050565b600060208201905081810360008301526128a5816126b5565b9050919050565b60006020820190506128c160008301846126d8565b92915050565b60006040820190506128dc60008301856126d8565b6128e9602083018461255f565b9392505050565b600060608201905061290560008301866126d8565b612912602083018561255f565b61291f604083018461255f565b949350505050565b600060208201905061293c60008301846126e7565b92915050565b600081519050919050565b600082825260208201905092915050565b600082825260208201905092915050565b600061297a82612ad4565b915061298583612ad4565b9250827fffffffffffffffffffffffffffffffffffffffffffffffffffffffffffffffff038211156129ba576129b9612b5f565b5b828201905092915050565b60006129d082612ad4565b91506129db83612ad4565b9250826129eb576129ea612b8e565b5b828204905092915050565b6000612a0182612ad4565b9150612a0c83612ad4565b9250817fffffffffffffffffffffffffffffffffffffffffffffffffffffffffffffffff0483118215151615612a4557612a44612b5f565b5b828202905092915050565b6000612a5b82612ad4565b9150612a6683612ad4565b925082821015612a7957612a78612b5f565b5b828203905092915050565b6000612a8f82612ab4565b9050919050565b60008115159050919050565b6000612aad82612a84565b9050919050565b600073ffffffffffffffffffffffffffffffffffffffff82169050919050565b6000819050919050565b600060ff82169050919050565b82818337600083830152505050565b60005b83811015612b18578082015181840152602081019050612afd565b83811115612b27576000848401525b50505050565b60006002820490506001821680612b4557607f821691505b60208210811415612b5957612b58612bbd565b5b50919050565b7f4e487b7100000000000000000000000000000000000000000000000000000000600052601160045260246000fd5b7f4e487b7100000000000000000000000000000000000000000000000000000000600052601260045260246000fd5b7f4e487b7100000000000000000000000000000000000000000000000000000000600052602260045260246000fd5b6000601f19601f8301169050919050565b7f7472616e73666572206572720000000000000000000000000000000000000000600082015250565b7f21504f4f4c000000000000000000000000000000000000000000000000000000600082015250565b7f73656e6465720000000000000000000000000000000000000000000000000000600082015250565b7f616c6c6f77616e63652065727200000000000000000000000000000000000000600082015250565b7f62616c616e636520657272000000000000000000000000000000000000000000600082015250565b7f7370656e64657200000000000000000000000000000000000000000000000000600082015250565b7f6164647265737320657272000000000000000000000000000000000000000000600082015250565b612d2581612a84565b8114612d3057600080fd5b50565b612d3c81612a96565b8114612d4757600080fd5b50565b612d5381612aa2565b8114612d5e57600080fd5b50565b612d6a81612ad4565b8114612d7557600080fd5b5056fea2646970667358221220657da443b26362382b75fc2ec7fdfa0c3dad37d3a53e33d597edbca660ea25fc64736f6c63430008030033",
  "linkReferences": {},
  "deployedLinkReferences": {}
}