{
  "_format": "hh-sol-artifact-1",
  "contractName": "Synth",
  "sourceName": "contracts/Synth.sol",
  "abi": [
    {
      "inputs": [
        {
          "internalType": "address",
          "name": "_base",
          "type": "address"
        },
        {
          "internalType": "address",
          "name": "_token",
          "type": "address"
        }
      ],
      "stateMutability": "nonpayable",
      "type": "constructor"
    },
    {
      "anonymous": false,
      "inputs": [
        {
          "indexed": true,
          "internalType": "address",
          "name": "owner",
          "type": "address"
        },
        {
          "indexed": true,
          "internalType": "address",
          "name": "spender",
          "type": "address"
        },
        {
          "indexed": false,
          "internalType": "uint256",
          "name": "value",
          "type": "uint256"
        }
      ],
      "name": "Approval",
      "type": "event"
    },
    {
      "anonymous": false,
      "inputs": [
        {
          "indexed": true,
          "internalType": "address",
          "name": "from",
          "type": "address"
        },
        {
          "indexed": true,
          "internalType": "address",
          "name": "to",
          "type": "address"
        },
        {
          "indexed": false,
          "internalType": "uint256",
          "name": "value",
          "type": "uint256"
        }
      ],
      "name": "Transfer",
      "type": "event"
    },
    {
      "inputs": [],
      "name": "BASE",
      "outputs": [
        {
          "internalType": "address",
          "name": "",
          "type": "address"
        }
      ],
      "stateMutability": "view",
      "type": "function"
    },
    {
      "inputs": [],
      "name": "DEPLOYER",
      "outputs": [
        {
          "internalType": "address",
          "name": "",
          "type": "address"
        }
      ],
      "stateMutability": "view",
      "type": "function"
    },
    {
      "inputs": [],
      "name": "LayerONE",
      "outputs": [
        {
          "internalType": "address",
          "name": "",
          "type": "address"
        }
      ],
      "stateMutability": "view",
      "type": "function"
    },
    {
      "inputs": [
        {
          "internalType": "address",
          "name": "owner",
          "type": "address"
        },
        {
          "internalType": "address",
          "name": "spender",
          "type": "address"
        }
      ],
      "name": "allowance",
      "outputs": [
        {
          "internalType": "uint256",
          "name": "",
          "type": "uint256"
        }
      ],
      "stateMutability": "view",
      "type": "function"
    },
    {
      "inputs": [
        {
          "internalType": "address",
          "name": "spender",
          "type": "address"
        },
        {
          "internalType": "uint256",
          "name": "amount",
          "type": "uint256"
        }
      ],
      "name": "approve",
      "outputs": [
        {
          "internalType": "bool",
          "name": "",
          "type": "bool"
        }
      ],
      "stateMutability": "nonpayable",
      "type": "function"
    },
    {
      "inputs": [
        {
          "internalType": "address",
          "name": "recipient",
          "type": "address"
        },
        {
          "internalType": "uint256",
          "name": "amount",
          "type": "uint256"
        },
        {
          "internalType": "bytes",
          "name": "data",
          "type": "bytes"
        }
      ],
      "name": "approveAndCall",
      "outputs": [
        {
          "internalType": "bool",
          "name": "",
          "type": "bool"
        }
      ],
      "stateMutability": "nonpayable",
      "type": "function"
    },
    {
      "inputs": [
        {
          "internalType": "address",
          "name": "account",
          "type": "address"
        }
      ],
      "name": "balanceOf",
      "outputs": [
        {
          "internalType": "uint256",
          "name": "",
          "type": "uint256"
        }
      ],
      "stateMutability": "view",
      "type": "function"
    },
    {
      "inputs": [
        {
          "internalType": "uint256",
          "name": "amount",
          "type": "uint256"
        }
      ],
      "name": "burn",
      "outputs": [],
      "stateMutability": "nonpayable",
      "type": "function"
    },
    {
      "inputs": [
        {
          "internalType": "address",
          "name": "account",
          "type": "address"
        },
        {
          "internalType": "uint256",
          "name": "amount",
          "type": "uint256"
        }
      ],
      "name": "burnFrom",
      "outputs": [],
      "stateMutability": "nonpayable",
      "type": "function"
    },
    {
      "inputs": [],
      "name": "burnSynth",
      "outputs": [
        {
          "internalType": "bool",
          "name": "",
          "type": "bool"
        }
      ],
      "stateMutability": "nonpayable",
      "type": "function"
    },
    {
      "inputs": [],
      "name": "decimals",
      "outputs": [
        {
          "internalType": "uint8",
          "name": "",
          "type": "uint8"
        }
      ],
      "stateMutability": "view",
      "type": "function"
    },
    {
      "inputs": [
        {
          "internalType": "address",
          "name": "spender",
          "type": "address"
        },
        {
          "internalType": "uint256",
          "name": "subtractedValue",
          "type": "uint256"
        }
      ],
      "name": "decreaseAllowance",
      "outputs": [
        {
          "internalType": "bool",
          "name": "",
          "type": "bool"
        }
      ],
      "stateMutability": "nonpayable",
      "type": "function"
    },
    {
      "inputs": [],
      "name": "genesis",
      "outputs": [
        {
          "internalType": "uint256",
          "name": "",
          "type": "uint256"
        }
      ],
      "stateMutability": "view",
      "type": "function"
    },
    {
      "inputs": [
        {
          "internalType": "address",
          "name": "pool",
          "type": "address"
        }
      ],
      "name": "getmapAddress_LPBalance",
      "outputs": [
        {
          "internalType": "uint256",
          "name": "",
          "type": "uint256"
        }
      ],
      "stateMutability": "view",
      "type": "function"
    },
    {
      "inputs": [
        {
          "internalType": "address",
          "name": "pool",
          "type": "address"
        }
      ],
      "name": "getmapAddress_LPDebt",
      "outputs": [
        {
          "internalType": "uint256",
          "name": "",
          "type": "uint256"
        }
      ],
      "stateMutability": "view",
      "type": "function"
    },
    {
      "inputs": [
        {
          "internalType": "address",
          "name": "spender",
          "type": "address"
        },
        {
          "internalType": "uint256",
          "name": "addedValue",
          "type": "uint256"
        }
      ],
      "name": "increaseAllowance",
      "outputs": [
        {
          "internalType": "bool",
          "name": "",
          "type": "bool"
        }
      ],
      "stateMutability": "nonpayable",
      "type": "function"
    },
    {
      "inputs": [
        {
          "internalType": "address",
          "name": "",
          "type": "address"
        }
      ],
      "name": "mapSynth_LPBalance",
      "outputs": [
        {
          "internalType": "uint256",
          "name": "",
          "type": "uint256"
        }
      ],
      "stateMutability": "view",
      "type": "function"
    },
    {
      "inputs": [
        {
          "internalType": "address",
          "name": "",
          "type": "address"
        }
      ],
      "name": "mapSynth_LPDept",
      "outputs": [
        {
          "internalType": "uint256",
          "name": "",
          "type": "uint256"
        }
      ],
      "stateMutability": "view",
      "type": "function"
    },
    {
      "inputs": [
        {
          "internalType": "address",
          "name": "member",
          "type": "address"
        },
        {
          "internalType": "uint256",
          "name": "amount",
          "type": "uint256"
        }
      ],
      "name": "mintSynth",
      "outputs": [
        {
          "internalType": "uint256",
          "name": "syntheticAmount",
          "type": "uint256"
        }
      ],
      "stateMutability": "nonpayable",
      "type": "function"
    },
    {
      "inputs": [],
      "name": "name",
      "outputs": [
        {
          "internalType": "string",
          "name": "",
          "type": "string"
        }
      ],
      "stateMutability": "view",
      "type": "function"
    },
    {
      "inputs": [
        {
          "internalType": "address",
          "name": "pool",
          "type": "address"
        }
      ],
      "name": "realise",
      "outputs": [],
      "stateMutability": "nonpayable",
      "type": "function"
    },
    {
      "inputs": [],
      "name": "symbol",
      "outputs": [
        {
          "internalType": "string",
          "name": "",
          "type": "string"
        }
      ],
      "stateMutability": "view",
      "type": "function"
    },
    {
      "inputs": [],
      "name": "totalSupply",
      "outputs": [
        {
          "internalType": "uint256",
          "name": "",
          "type": "uint256"
        }
      ],
      "stateMutability": "view",
      "type": "function"
    },
    {
      "inputs": [
        {
          "internalType": "address",
          "name": "recipient",
          "type": "address"
        },
        {
          "internalType": "uint256",
          "name": "amount",
          "type": "uint256"
        }
      ],
      "name": "transfer",
      "outputs": [
        {
          "internalType": "bool",
          "name": "",
          "type": "bool"
        }
      ],
      "stateMutability": "nonpayable",
      "type": "function"
    },
    {
      "inputs": [
        {
          "internalType": "address",
          "name": "recipient",
          "type": "address"
        },
        {
          "internalType": "uint256",
          "name": "amount",
          "type": "uint256"
        },
        {
          "internalType": "bytes",
          "name": "data",
          "type": "bytes"
        }
      ],
      "name": "transferAndCall",
      "outputs": [
        {
          "internalType": "bool",
          "name": "",
          "type": "bool"
        }
      ],
      "stateMutability": "nonpayable",
      "type": "function"
    },
    {
      "inputs": [
        {
          "internalType": "address",
          "name": "sender",
          "type": "address"
        },
        {
          "internalType": "address",
          "name": "recipient",
          "type": "address"
        },
        {
          "internalType": "uint256",
          "name": "amount",
          "type": "uint256"
        }
      ],
      "name": "transferFrom",
      "outputs": [
        {
          "internalType": "bool",
          "name": "",
          "type": "bool"
        }
      ],
      "stateMutability": "nonpayable",
      "type": "function"
    }
  ],
  "bytecode": "0x60806040523480156200001157600080fd5b50604051620034bb380380620034bb833981810160405281019062000037919062000457565b816000806101000a81548173ffffffffffffffffffffffffffffffffffffffff021916908373ffffffffffffffffffffffffffffffffffffffff16021790555080600160006101000a81548173ffffffffffffffffffffffffffffffffffffffff021916908373ffffffffffffffffffffffffffffffffffffffff16021790555060006040518060400160405280601981526020017f2d5370617274616e50726f746f636f6c53796e74686574696300000000000000815250905060006040518060400160405280600481526020017f2d5350530000000000000000000000000000000000000000000000000000000081525090508273ffffffffffffffffffffffffffffffffffffffff166306fdde036040518163ffffffff1660e01b815260040160006040518083038186803b1580156200017357600080fd5b505afa15801562000188573d6000803e3d6000fd5b505050506040513d6000823e3d601f19601f82011682018060405250810190620001b3919062000498565b82604051602001620001c792919062000514565b60405160208183030381529060405260049080519060200190620001ed9291906200031e565b508273ffffffffffffffffffffffffffffffffffffffff166395d89b416040518163ffffffff1660e01b815260040160006040518083038186803b1580156200023557600080fd5b505afa1580156200024a573d6000803e3d6000fd5b505050506040513d6000823e3d601f19601f8201168201806040525081019062000275919062000498565b816040516020016200028992919062000514565b60405160208183030381529060405260059080519060200190620002af9291906200031e565b506012600660006101000a81548160ff021916908360ff16021790555033600360006101000a81548173ffffffffffffffffffffffffffffffffffffffff021916908373ffffffffffffffffffffffffffffffffffffffff160217905550426002819055505050505062000710565b8280546200032c906200061b565b90600052602060002090601f0160209004810192826200035057600085556200039c565b82601f106200036b57805160ff19168380011785556200039c565b828001600101855582156200039c579182015b828111156200039b5782518255916020019190600101906200037e565b5b509050620003ab9190620003af565b5090565b5b80821115620003ca576000816000905550600101620003b0565b5090565b6000620003e5620003df8462000565565b6200053c565b905082815260208101848484011115620003fe57600080fd5b6200040b848285620005e5565b509392505050565b6000815190506200042481620006f6565b92915050565b600082601f8301126200043c57600080fd5b81516200044e848260208601620003ce565b91505092915050565b600080604083850312156200046b57600080fd5b60006200047b8582860162000413565b92505060206200048e8582860162000413565b9150509250929050565b600060208284031215620004ab57600080fd5b600082015167ffffffffffffffff811115620004c657600080fd5b620004d4848285016200042a565b91505092915050565b6000620004ea826200059b565b620004f68185620005a6565b935062000508818560208601620005e5565b80840191505092915050565b6000620005228285620004dd565b9150620005308284620004dd565b91508190509392505050565b6000620005486200055b565b905062000556828262000651565b919050565b6000604051905090565b600067ffffffffffffffff821115620005835762000582620006b6565b5b6200058e82620006e5565b9050602081019050919050565b600081519050919050565b600081905092915050565b6000620005be82620005c5565b9050919050565b600073ffffffffffffffffffffffffffffffffffffffff82169050919050565b60005b8381101562000605578082015181840152602081019050620005e8565b8381111562000615576000848401525b50505050565b600060028204905060018216806200063457607f821691505b602082108114156200064b576200064a62000687565b5b50919050565b6200065c82620006e5565b810181811067ffffffffffffffff821117156200067e576200067d620006b6565b5b80604052505050565b7f4e487b7100000000000000000000000000000000000000000000000000000000600052602260045260246000fd5b7f4e487b7100000000000000000000000000000000000000000000000000000000600052604160045260246000fd5b6000601f19601f8301169050919050565b6200070181620005b1565b81146200070d57600080fd5b50565b612d9b80620007206000396000f3fe608060405234801561001057600080fd5b506004361061018e5760003560e01c806379cc6790116100de578063cae9ca5111610097578063d9f22fba11610071578063d9f22fba146104e7578063dd25322914610517578063dd62ed3e14610547578063ec342ad0146105775761018e565b8063cae9ca511461047d578063d3e48814146104ad578063d950b6f3146104c95761018e565b806379cc6790146103a757806395d89b41146103c3578063a457c2d7146103e1578063a7f0b3de14610411578063a9059cbb1461042f578063c1b8411a1461045f5761018e565b8063395093511161014b578063484920311161012557806348492031146102f95780635d30ca1f1461031757806364dcd2161461034757806370a08231146103775761018e565b8063395093511461027d5780634000aea0146102ad57806342966c68146102dd5761018e565b806306fdde0314610193578063095ea7b3146101b157806318160ddd146101e157806323b872dd146101ff578063313ce5671461022f57806332f302e31461024d575b600080fd5b61019b610595565b6040516101a89190612767565b60405180910390f35b6101cb60048036038101906101c69190612400565b610627565b6040516101d8919061274c565b60405180910390f35b6101e961063e565b6040516101f69190612899565b60405180910390f35b610219600480360381019061021491906123b1565b610644565b604051610226919061274c565b60405180910390f35b6102376107dc565b6040516102449190612914565b60405180910390f35b61026760048036038101906102629190612400565b6107ef565b6040516102749190612899565b60405180910390f35b61029760048036038101906102929190612400565b610a11565b6040516102a4919061274c565b60405180910390f35b6102c760048036038101906102c2919061243c565b610aaf565b6040516102d4919061274c565b60405180910390f35b6102f760048036038101906102f291906124fa565b610b3b565b005b610301610b48565b60405161030e91906126e3565b60405180910390f35b610331600480360381019061032c9190612323565b610b6e565b60405161033e9190612899565b60405180910390f35b610361600480360381019061035c9190612323565b610b86565b60405161036e9190612899565b60405180910390f35b610391600480360381019061038c9190612323565b610bcf565b60405161039e9190612899565b60405180910390f35b6103c160048036038101906103bc9190612400565b610c18565b005b6103cb610c4b565b6040516103d89190612767565b60405180910390f35b6103fb60048036038101906103f69190612400565b610cdd565b604051610408919061274c565b60405180910390f35b610419610dc3565b6040516104269190612899565b60405180910390f35b61044960048036038101906104449190612400565b610dc9565b604051610456919061274c565b60405180910390f35b610467610de0565b60405161047491906126e3565b60405180910390f35b6104976004803603810190610492919061243c565b610e06565b6040516104a4919061274c565b60405180910390f35b6104c760048036038101906104c29190612323565b610eb2565b005b6104d1611545565b6040516104de919061274c565b60405180910390f35b61050160048036038101906104fc9190612323565b611720565b60405161050e9190612899565b60405180910390f35b610531600480360381019061052c9190612323565b611769565b60405161053e9190612899565b60405180910390f35b610561600480360381019061055c9190612375565b611781565b60405161056e9190612899565b60405180910390f35b61057f611808565b60405161058c91906126e3565b60405180910390f35b6060600480546105a490612b1a565b80601f01602080910402602001604051908101604052809291908181526020018280546105d090612b1a565b801561061d5780601f106105f25761010080835404028352916020019161061d565b820191906000526020600020905b81548152906001019060200180831161060057829003601f168201915b5050505050905090565b600061063433848461182c565b6001905092915050565b60075481565b6000610651848484611a9c565b7fffffffffffffffffffffffffffffffffffffffffffffffffffffffffffffffff600960008673ffffffffffffffffffffffffffffffffffffffff1673ffffffffffffffffffffffffffffffffffffffff16815260200190815260200160002060003373ffffffffffffffffffffffffffffffffffffffff1673ffffffffffffffffffffffffffffffffffffffff1681526020019081526020016000205410156107d1576000600960008673ffffffffffffffffffffffffffffffffffffffff1673ffffffffffffffffffffffffffffffffffffffff16815260200190815260200160002060003373ffffffffffffffffffffffffffffffffffffffff1673ffffffffffffffffffffffffffffffffffffffff168152602001908152602001600020549050828110156107b9576040517f08c379a00000000000000000000000000000000000000000000000000000000081526004016107b090612819565b60405180910390fd5b6107cf853385846107ca9190612a3d565b61182c565b505b600190509392505050565b600660009054906101000a900460ff1681565b6000600115156107fd611caa565b73ffffffffffffffffffffffffffffffffffffffff1663b99b0a0c6040518163ffffffff1660e01b815260040160206040518083038186803b15801561084257600080fd5b505afa158015610856573d6000803e3d6000fd5b505050506040513d601f19601f8201168201806040525081019061087a919061234c565b73ffffffffffffffffffffffffffffffffffffffff16638dcb4c93336040518263ffffffff1660e01b81526004016108b291906126e3565b60206040518083038186803b1580156108ca57600080fd5b505afa1580156108de573d6000803e3d6000fd5b505050506040513d601f19601f8201168201806040525081019061090291906124a8565b151514610944576040517f08c379a000000000000000000000000000000000000000000000000000000000815260040161093b906127d9565b60405180910390fd5b600061094f33611d50565b905082600b60003373ffffffffffffffffffffffffffffffffffffffff1673ffffffffffffffffffffffffffffffffffffffff16815260200190815260200160002060008282546109a0919061295c565b9250508190555080600a60003373ffffffffffffffffffffffffffffffffffffffff1673ffffffffffffffffffffffffffffffffffffffff16815260200190815260200160002060008282546109f6919061295c565b92505081905550610a078484611e82565b8291505092915050565b6000610aa5338484600960003373ffffffffffffffffffffffffffffffffffffffff1673ffffffffffffffffffffffffffffffffffffffff16815260200190815260200160002060008873ffffffffffffffffffffffffffffffffffffffff1673ffffffffffffffffffffffffffffffffffffffff16815260200190815260200160002054610aa0919061295c565b61182c565b6001905092915050565b6000610abc338686611a9c565b8473ffffffffffffffffffffffffffffffffffffffff1663cf4d253530863387876040518663ffffffff1660e01b8152600401610afd9594939291906126fe565b600060405180830381600087803b158015610b1757600080fd5b505af1158015610b2b573d6000803e3d6000fd5b5050505060019050949350505050565b610b453382611fcb565b50565b600160009054906101000a900473ffffffffffffffffffffffffffffffffffffffff1681565b600a6020528060005260406000206000915090505481565b6000600a60008373ffffffffffffffffffffffffffffffffffffffff1673ffffffffffffffffffffffffffffffffffffffff168152602001908152602001600020549050919050565b6000600860008373ffffffffffffffffffffffffffffffffffffffff1673ffffffffffffffffffffffffffffffffffffffff168152602001908152602001600020549050919050565b600081610c258433611781565b610c2f9190612a3d565b9050610c3c83338361182c565b610c468383611fcb565b505050565b606060058054610c5a90612b1a565b80601f0160208091040260200160405190810160405280929190818152602001828054610c8690612b1a565b8015610cd35780601f10610ca857610100808354040283529160200191610cd3565b820191906000526020600020905b815481529060010190602001808311610cb657829003601f168201915b5050505050905090565b600080600960003373ffffffffffffffffffffffffffffffffffffffff1673ffffffffffffffffffffffffffffffffffffffff16815260200190815260200160002060008573ffffffffffffffffffffffffffffffffffffffff1673ffffffffffffffffffffffffffffffffffffffff16815260200190815260200160002054905082811015610da2576040517f08c379a0000000000000000000000000000000000000000000000000000000008152600401610d9990612819565b60405180910390fd5b610db833858584610db39190612a3d565b61182c565b600191505092915050565b60025481565b6000610dd6338484611a9c565b6001905092915050565b600360009054906101000a900473ffffffffffffffffffffffffffffffffffffffff1681565b6000610e3333867fffffffffffffffffffffffffffffffffffffffffffffffffffffffffffffffff61182c565b8473ffffffffffffffffffffffffffffffffffffffff16631ac562a730863387876040518663ffffffff1660e01b8152600401610e749594939291906126fe565b600060405180830381600087803b158015610e8e57600080fd5b505af1158015610ea2573d6000803e3d6000fd5b5050505060019050949350505050565b6000610ebc611caa565b73ffffffffffffffffffffffffffffffffffffffff16637b0e5c456040518163ffffffff1660e01b815260040160206040518083038186803b158015610f0157600080fd5b505afa158015610f15573d6000803e3d6000fd5b505050506040513d601f19601f82011682018060405250810190610f39919061234c565b73ffffffffffffffffffffffffffffffffffffffff16635a7b2ed3600a60008573ffffffffffffffffffffffffffffffffffffffff1673ffffffffffffffffffffffffffffffffffffffff1681526020019081526020016000205460008054906101000a900473ffffffffffffffffffffffffffffffffffffffff16856040518463ffffffff1660e01b8152600401610fd4939291906128dd565b60206040518083038186803b158015610fec57600080fd5b505afa158015611000573d6000803e3d6000fd5b505050506040513d601f19601f820116820180604052508101906110249190612523565b90506000611030611caa565b73ffffffffffffffffffffffffffffffffffffffff16637b0e5c456040518163ffffffff1660e01b815260040160206040518083038186803b15801561107557600080fd5b505afa158015611089573d6000803e3d6000fd5b505050506040513d601f19601f820116820180604052508101906110ad919061234c565b73ffffffffffffffffffffffffffffffffffffffff1663c889a4df600b60008673ffffffffffffffffffffffffffffffffffffffff1673ffffffffffffffffffffffffffffffffffffffff16815260200190815260200160002054306040518363ffffffff1660e01b81526004016111269291906128b4565b60206040518083038186803b15801561113e57600080fd5b505afa158015611152573d6000803e3d6000fd5b505050506040513d601f19601f820116820180604052508101906111769190612523565b905080821115611540576000818361118e9190612a3d565b9050600061119a611caa565b73ffffffffffffffffffffffffffffffffffffffff16637b0e5c456040518163ffffffff1660e01b815260040160206040518083038186803b1580156111df57600080fd5b505afa1580156111f3573d6000803e3d6000fd5b505050506040513d601f19601f82011682018060405250810190611217919061234c565b73ffffffffffffffffffffffffffffffffffffffff1663b86a82ef83876040518363ffffffff1660e01b81526004016112519291906128b4565b60206040518083038186803b15801561126957600080fd5b505afa15801561127d573d6000803e3d6000fd5b505050506040513d601f19601f820116820180604052508101906112a19190612523565b905080600a60008773ffffffffffffffffffffffffffffffffffffffff1673ffffffffffffffffffffffffffffffffffffffff16815260200190815260200160002060008282546112f29190612a3d565b9250508190555061134b6040518060400160405280601281526020017f4c5042616c204261736520616d6f756e74200000000000000000000000000000815250670de0b6b3a76400008661134691906129b2565b612196565b61139d6040518060400160405280601681526020017f73796e7468556e69747320426173652076616c75652000000000000000000000815250670de0b6b3a76400008561139891906129b2565b612196565b6113ef6040518060400160405280601081526020017f4241534520646966666572656e63652000000000000000000000000000000000815250670de0b6b3a7640000846113ea91906129b2565b612196565b6114416040518060400160405280601181526020017f4c5020756e69747320746f206275726e20000000000000000000000000000000815250670de0b6b3a76400008361143c91906129b2565b612196565b6114d26040518060400160405280601281526020017f6d617053796e74685f4c5042616c616e63650000000000000000000000000000815250670de0b6b3a7640000600a60008973ffffffffffffffffffffffffffffffffffffffff1673ffffffffffffffffffffffffffffffffffffffff168152602001908152602001600020546114cd91906129b2565b612196565b8473ffffffffffffffffffffffffffffffffffffffff166342966c68826040518263ffffffff1660e01b815260040161150b9190612899565b600060405180830381600087803b15801561152557600080fd5b505af1158015611539573d6000803e3d6000fd5b5050505050505b505050565b60008061155130610bcf565b90506000600b60003373ffffffffffffffffffffffffffffffffffffffff1673ffffffffffffffffffffffffffffffffffffffff16815260200190815260200160002054600a60003373ffffffffffffffffffffffffffffffffffffffff1673ffffffffffffffffffffffffffffffffffffffff16815260200190815260200160002054836115e091906129e3565b6115ea91906129b2565b905080600a60003373ffffffffffffffffffffffffffffffffffffffff1673ffffffffffffffffffffffffffffffffffffffff168152602001908152602001600020600082825461163b9190612a3d565b9250508190555081600b60003373ffffffffffffffffffffffffffffffffffffffff1673ffffffffffffffffffffffffffffffffffffffff16815260200190815260200160002060008282546116919190612a3d565b925050819055506000811115611717576116ab3083611fcb565b3373ffffffffffffffffffffffffffffffffffffffff166342966c68826040518263ffffffff1660e01b81526004016116e49190612899565b600060405180830381600087803b1580156116fe57600080fd5b505af1158015611712573d6000803e3d6000fd5b505050505b60019250505090565b6000600b60008373ffffffffffffffffffffffffffffffffffffffff1673ffffffffffffffffffffffffffffffffffffffff168152602001908152602001600020549050919050565b600b6020528060005260406000206000915090505481565b6000600960008473ffffffffffffffffffffffffffffffffffffffff1673ffffffffffffffffffffffffffffffffffffffff16815260200190815260200160002060008373ffffffffffffffffffffffffffffffffffffffff1673ffffffffffffffffffffffffffffffffffffffff16815260200190815260200160002054905092915050565b60008054906101000a900473ffffffffffffffffffffffffffffffffffffffff1681565b600073ffffffffffffffffffffffffffffffffffffffff168373ffffffffffffffffffffffffffffffffffffffff16141561189c576040517f08c379a0000000000000000000000000000000000000000000000000000000008152600401611893906127f9565b60405180910390fd5b600073ffffffffffffffffffffffffffffffffffffffff168273ffffffffffffffffffffffffffffffffffffffff16141561190c576040517f08c379a000000000000000000000000000000000000000000000000000000000815260040161190390612859565b60405180910390fd5b7fffffffffffffffffffffffffffffffffffffffffffffffffffffffffffffffff600960008573ffffffffffffffffffffffffffffffffffffffff1673ffffffffffffffffffffffffffffffffffffffff16815260200190815260200160002060008473ffffffffffffffffffffffffffffffffffffffff1673ffffffffffffffffffffffffffffffffffffffff168152602001908152602001600020541015611a975780600960008573ffffffffffffffffffffffffffffffffffffffff1673ffffffffffffffffffffffffffffffffffffffff16815260200190815260200160002060008473ffffffffffffffffffffffffffffffffffffffff1673ffffffffffffffffffffffffffffffffffffffff168152602001908152602001600020819055508173ffffffffffffffffffffffffffffffffffffffff168373ffffffffffffffffffffffffffffffffffffffff167f8c5be1e5ebec7d5bd14f71427d1e84f3dd0314c0f7b2291e5b200ac8c7c3b92583604051611a8e9190612899565b60405180910390a35b505050565b600073ffffffffffffffffffffffffffffffffffffffff168373ffffffffffffffffffffffffffffffffffffffff161415611b0c576040517f08c379a0000000000000000000000000000000000000000000000000000000008152600401611b03906127b9565b60405180910390fd5b6000600860008573ffffffffffffffffffffffffffffffffffffffff1673ffffffffffffffffffffffffffffffffffffffff16815260200190815260200160002054905081811015611b93576040517f08c379a0000000000000000000000000000000000000000000000000000000008152600401611b8a90612839565b60405180910390fd5b81600860008673ffffffffffffffffffffffffffffffffffffffff1673ffffffffffffffffffffffffffffffffffffffff1681526020019081526020016000206000828254611be29190612a3d565b9250508190555081600860008573ffffffffffffffffffffffffffffffffffffffff1673ffffffffffffffffffffffffffffffffffffffff1681526020019081526020016000206000828254611c38919061295c565b925050819055508273ffffffffffffffffffffffffffffffffffffffff168473ffffffffffffffffffffffffffffffffffffffff167fddf252ad1be2c89b69c2b068fc378daa952ba7f163c4a11628f55a4df523b3ef84604051611c9c9190612899565b60405180910390a350505050565b60008060009054906101000a900473ffffffffffffffffffffffffffffffffffffffff1673ffffffffffffffffffffffffffffffffffffffff166398fabd3a6040518163ffffffff1660e01b815260040160206040518083038186803b158015611d1357600080fd5b505afa158015611d27573d6000803e3d6000fd5b505050506040513d601f19601f82011682018060405250810190611d4b91906124d1565b905090565b6000808273ffffffffffffffffffffffffffffffffffffffff166370a08231306040518263ffffffff1660e01b8152600401611d8c91906126e3565b60206040518083038186803b158015611da457600080fd5b505afa158015611db8573d6000803e3d6000fd5b505050506040513d601f19601f82011682018060405250810190611ddc9190612523565b9050600a60008473ffffffffffffffffffffffffffffffffffffffff1673ffffffffffffffffffffffffffffffffffffffff16815260200190815260200160002054811115611e7757600a60008473ffffffffffffffffffffffffffffffffffffffff1673ffffffffffffffffffffffffffffffffffffffff1681526020019081526020016000205481611e709190612a3d565b9150611e7c565b600091505b50919050565b600073ffffffffffffffffffffffffffffffffffffffff168273ffffffffffffffffffffffffffffffffffffffff161415611ef2576040517f08c379a0000000000000000000000000000000000000000000000000000000008152600401611ee990612879565b60405180910390fd5b8060076000828254611f04919061295c565b9250508190555080600860008473ffffffffffffffffffffffffffffffffffffffff1673ffffffffffffffffffffffffffffffffffffffff1681526020019081526020016000206000828254611f5a919061295c565b925050819055508173ffffffffffffffffffffffffffffffffffffffff16600073ffffffffffffffffffffffffffffffffffffffff167fddf252ad1be2c89b69c2b068fc378daa952ba7f163c4a11628f55a4df523b3ef83604051611fbf9190612899565b60405180910390a35050565b600073ffffffffffffffffffffffffffffffffffffffff168273ffffffffffffffffffffffffffffffffffffffff16141561203b576040517f08c379a000000000000000000000000000000000000000000000000000000000815260040161203290612879565b60405180910390fd5b80600860008473ffffffffffffffffffffffffffffffffffffffff1673ffffffffffffffffffffffffffffffffffffffff1681526020019081526020016000205410156120bd576040517f08c379a00000000000000000000000000000000000000000000000000000000081526004016120b490612839565b60405180910390fd5b80600860008473ffffffffffffffffffffffffffffffffffffffff1673ffffffffffffffffffffffffffffffffffffffff168152602001908152602001600020600082825461210c9190612a3d565b9250508190555080600760008282546121259190612a3d565b92505081905550600073ffffffffffffffffffffffffffffffffffffffff168273ffffffffffffffffffffffffffffffffffffffff167fddf252ad1be2c89b69c2b068fc378daa952ba7f163c4a11628f55a4df523b3ef8360405161218a9190612899565b60405180910390a35050565b61222e82826040516024016121ac929190612789565b6040516020818303038152906040527f9710a9d0000000000000000000000000000000000000000000000000000000007bffffffffffffffffffffffffffffffffffffffffffffffffffffffff19166020820180517bffffffffffffffffffffffffffffffffffffffffffffffffffffffff8381831617835250505050612232565b5050565b60008151905060006a636f6e736f6c652e6c6f679050602083016000808483855afa5050505050565b60008135905061226a81612d09565b92915050565b60008151905061227f81612d09565b92915050565b60008151905061229481612d20565b92915050565b60008083601f8401126122ac57600080fd5b8235905067ffffffffffffffff8111156122c557600080fd5b6020830191508360018202830111156122dd57600080fd5b9250929050565b6000815190506122f381612d37565b92915050565b60008135905061230881612d4e565b92915050565b60008151905061231d81612d4e565b92915050565b60006020828403121561233557600080fd5b60006123438482850161225b565b91505092915050565b60006020828403121561235e57600080fd5b600061236c84828501612270565b91505092915050565b6000806040838503121561238857600080fd5b60006123968582860161225b565b92505060206123a78582860161225b565b9150509250929050565b6000806000606084860312156123c657600080fd5b60006123d48682870161225b565b93505060206123e58682870161225b565b92505060406123f6868287016122f9565b9150509250925092565b6000806040838503121561241357600080fd5b60006124218582860161225b565b9250506020612432858286016122f9565b9150509250929050565b6000806000806060858703121561245257600080fd5b60006124608782880161225b565b9450506020612471878288016122f9565b935050604085013567ffffffffffffffff81111561248e57600080fd5b61249a8782880161229a565b925092505092959194509250565b6000602082840312156124ba57600080fd5b60006124c884828501612285565b91505092915050565b6000602082840312156124e357600080fd5b60006124f1848285016122e4565b91505092915050565b60006020828403121561250c57600080fd5b600061251a848285016122f9565b91505092915050565b60006020828403121561253557600080fd5b60006125438482850161230e565b91505092915050565b61255581612a71565b82525050565b61256481612a83565b82525050565b6000612576838561293a565b9350612583838584612ad8565b61258c83612bd9565b840190509392505050565b60006125a28261292f565b6125ac818561294b565b93506125bc818560208601612ae7565b6125c581612bd9565b840191505092915050565b60006125dd600c8361294b565b91506125e882612bea565b602082019050919050565b600061260060058361294b565b915061260b82612c13565b602082019050919050565b600061262360068361294b565b915061262e82612c3c565b602082019050919050565b6000612646600d8361294b565b915061265182612c65565b602082019050919050565b6000612669600b8361294b565b915061267482612c8e565b602082019050919050565b600061268c60078361294b565b915061269782612cb7565b602082019050919050565b60006126af600b8361294b565b91506126ba82612ce0565b602082019050919050565b6126ce81612ac1565b82525050565b6126dd81612acb565b82525050565b60006020820190506126f8600083018461254c565b92915050565b6000608082019050612713600083018861254c565b61272060208301876126c5565b61272d604083018661254c565b818103606083015261274081848661256a565b90509695505050505050565b6000602082019050612761600083018461255b565b92915050565b600060208201905081810360008301526127818184612597565b905092915050565b600060408201905081810360008301526127a38185612597565b90506127b260208301846126c5565b9392505050565b600060208201905081810360008301526127d2816125d0565b9050919050565b600060208201905081810360008301526127f2816125f3565b9050919050565b6000602082019050818103600083015261281281612616565b9050919050565b6000602082019050818103600083015261283281612639565b9050919050565b600060208201905081810360008301526128528161265c565b9050919050565b600060208201905081810360008301526128728161267f565b9050919050565b60006020820190508181036000830152612892816126a2565b9050919050565b60006020820190506128ae60008301846126c5565b92915050565b60006040820190506128c960008301856126c5565b6128d6602083018461254c565b9392505050565b60006060820190506128f260008301866126c5565b6128ff602083018561254c565b61290c604083018461254c565b949350505050565b600060208201905061292960008301846126d4565b92915050565b600081519050919050565b600082825260208201905092915050565b600082825260208201905092915050565b600061296782612ac1565b915061297283612ac1565b9250827fffffffffffffffffffffffffffffffffffffffffffffffffffffffffffffffff038211156129a7576129a6612b4c565b5b828201905092915050565b60006129bd82612ac1565b91506129c883612ac1565b9250826129d8576129d7612b7b565b5b828204905092915050565b60006129ee82612ac1565b91506129f983612ac1565b9250817fffffffffffffffffffffffffffffffffffffffffffffffffffffffffffffffff0483118215151615612a3257612a31612b4c565b5b828202905092915050565b6000612a4882612ac1565b9150612a5383612ac1565b925082821015612a6657612a65612b4c565b5b828203905092915050565b6000612a7c82612aa1565b9050919050565b60008115159050919050565b6000612a9a82612a71565b9050919050565b600073ffffffffffffffffffffffffffffffffffffffff82169050919050565b6000819050919050565b600060ff82169050919050565b82818337600083830152505050565b60005b83811015612b05578082015181840152602081019050612aea565b83811115612b14576000848401525b50505050565b60006002820490506001821680612b3257607f821691505b60208210811415612b4657612b45612baa565b5b50919050565b7f4e487b7100000000000000000000000000000000000000000000000000000000600052601160045260246000fd5b7f4e487b7100000000000000000000000000000000000000000000000000000000600052601260045260246000fd5b7f4e487b7100000000000000000000000000000000000000000000000000000000600052602260045260246000fd5b6000601f19601f8301169050919050565b7f7472616e73666572206572720000000000000000000000000000000000000000600082015250565b7f21504f4f4c000000000000000000000000000000000000000000000000000000600082015250565b7f73656e6465720000000000000000000000000000000000000000000000000000600082015250565b7f616c6c6f77616e63652065727200000000000000000000000000000000000000600082015250565b7f62616c616e636520657272000000000000000000000000000000000000000000600082015250565b7f7370656e64657200000000000000000000000000000000000000000000000000600082015250565b7f6164647265737320657272000000000000000000000000000000000000000000600082015250565b612d1281612a71565b8114612d1d57600080fd5b50565b612d2981612a83565b8114612d3457600080fd5b50565b612d4081612a8f565b8114612d4b57600080fd5b50565b612d5781612ac1565b8114612d6257600080fd5b5056fea2646970667358221220cbc327ae796aa4d98fe1d0ea320be7dfcfebe6a03c094251a24e5c9f87d293dc64736f6c63430008030033",
  "linkReferences": {},
  "deployedLinkReferences": {}
}